{
	"EscroDot.sol": {
		"EscroDot": {
			"abi": [
				{
					"inputs": [],
					"name": "ECDSAInvalidSignature",
					"type": "error"
				},
				{
					"inputs": [
						{
							"internalType": "uint256",
							"name": "length",
							"type": "uint256"
						}
					],
					"name": "ECDSAInvalidSignatureLength",
					"type": "error"
				},
				{
					"inputs": [
						{
							"internalType": "bytes32",
							"name": "s",
							"type": "bytes32"
						}
					],
					"name": "ECDSAInvalidSignatureS",
					"type": "error"
				},
				{
					"inputs": [
						{
							"internalType": "address",
							"name": "sender",
							"type": "address"
						},
						{
							"internalType": "string[]",
							"name": "urls",
							"type": "string[]"
						},
						{
							"internalType": "bytes",
							"name": "callData",
							"type": "bytes"
						},
						{
							"internalType": "bytes4",
							"name": "callbackFunction",
							"type": "bytes4"
						},
						{
							"internalType": "bytes",
							"name": "extraData",
							"type": "bytes"
						}
					],
					"name": "OffchainLookup",
					"type": "error"
				},
				{
					"anonymous": false,
					"inputs": [
						{
							"indexed": true,
							"internalType": "bytes32",
							"name": "serviceId",
							"type": "bytes32"
						},
						{
							"indexed": true,
							"internalType": "uint256",
							"name": "purchaseId",
							"type": "uint256"
						}
					],
					"name": "DisputeRaised",
					"type": "event"
				},
				{
					"anonymous": false,
					"inputs": [
						{
							"indexed": true,
							"internalType": "bytes32",
							"name": "serviceId",
							"type": "bytes32"
						},
						{
							"indexed": true,
							"internalType": "uint256",
							"name": "purchaseId",
							"type": "uint256"
						},
						{
							"indexed": false,
							"internalType": "bool",
							"name": "refunded",
							"type": "bool"
						},
						{
							"indexed": true,
							"internalType": "address",
							"name": "arbiter",
							"type": "address"
						}
					],
					"name": "DisputeResolved",
					"type": "event"
				},
				{
					"anonymous": false,
					"inputs": [
						{
							"indexed": true,
							"internalType": "bytes32",
							"name": "serviceId",
							"type": "bytes32"
						},
						{
							"indexed": true,
							"internalType": "uint256",
							"name": "purchaseId",
							"type": "uint256"
						},
						{
							"indexed": false,
							"internalType": "bytes32",
							"name": "deliverableHash",
							"type": "bytes32"
						}
					],
					"name": "OffchainDelivery",
					"type": "event"
				},
				{
					"anonymous": false,
					"inputs": [
						{
							"indexed": true,
							"internalType": "bytes32",
							"name": "serviceId",
							"type": "bytes32"
						},
						{
							"indexed": true,
							"internalType": "uint256",
							"name": "purchaseId",
							"type": "uint256"
						}
					],
					"name": "PaymentClaimed",
					"type": "event"
				},
				{
					"anonymous": false,
					"inputs": [
						{
							"indexed": true,
							"internalType": "bytes32",
							"name": "serviceId",
							"type": "bytes32"
						},
						{
							"indexed": false,
							"internalType": "string",
							"name": "name",
							"type": "string"
						},
						{
							"indexed": true,
							"internalType": "address",
							"name": "provider",
							"type": "address"
						},
						{
							"indexed": false,
							"internalType": "uint256",
							"name": "stake",
							"type": "uint256"
						}
					],
					"name": "ServiceDeployed",
					"type": "event"
				},
				{
					"anonymous": false,
					"inputs": [
						{
							"indexed": true,
							"internalType": "bytes32",
							"name": "serviceId",
							"type": "bytes32"
						},
						{
							"indexed": true,
							"internalType": "uint256",
							"name": "purchaseId",
							"type": "uint256"
						},
						{
							"indexed": true,
							"internalType": "address",
							"name": "buyer",
							"type": "address"
						},
						{
							"indexed": false,
							"internalType": "uint256",
							"name": "amount",
							"type": "uint256"
						}
					],
					"name": "ServicePurchased",
					"type": "event"
				},
				{
					"anonymous": false,
					"inputs": [
						{
							"indexed": true,
							"internalType": "bytes32",
							"name": "serviceId",
							"type": "bytes32"
						},
						{
							"indexed": false,
							"internalType": "string",
							"name": "description",
							"type": "string"
						},
						{
							"indexed": false,
							"internalType": "string",
							"name": "gateway",
							"type": "string"
						},
						{
							"indexed": false,
							"internalType": "address",
							"name": "gatewaySigner",
							"type": "address"
						}
					],
					"name": "ServiceUpdated",
					"type": "event"
				},
				{
					"anonymous": false,
					"inputs": [
						{
							"indexed": true,
							"internalType": "bytes32",
							"name": "serviceId",
							"type": "bytes32"
						},
						{
							"indexed": false,
							"internalType": "uint256",
							"name": "amount",
							"type": "uint256"
						},
						{
							"indexed": false,
							"internalType": "uint256",
							"name": "newTotal",
							"type": "uint256"
						}
					],
					"name": "StakeToppedUp",
					"type": "event"
				},
				{
					"anonymous": false,
					"inputs": [
						{
							"indexed": true,
							"internalType": "bytes32",
							"name": "serviceId",
							"type": "bytes32"
						},
						{
							"indexed": false,
							"internalType": "uint256",
							"name": "amount",
							"type": "uint256"
						},
						{
							"indexed": false,
							"internalType": "uint256",
							"name": "newTotal",
							"type": "uint256"
						}
					],
					"name": "StakeWithdrawn",
					"type": "event"
				},
				{
					"inputs": [
						{
							"internalType": "bytes32",
							"name": "serviceId",
							"type": "bytes32"
						}
					],
					"name": "buyService",
					"outputs": [
						{
							"internalType": "uint256",
							"name": "purchaseId",
							"type": "uint256"
						}
					],
					"stateMutability": "payable",
					"type": "function"
				},
				{
					"inputs": [
						{
							"internalType": "bytes",
							"name": "response",
							"type": "bytes"
						},
						{
							"internalType": "bytes",
							"name": "extraData",
							"type": "bytes"
						}
					],
					"name": "ccipCallback",
					"outputs": [
						{
							"internalType": "bytes",
							"name": "",
							"type": "bytes"
						}
					],
					"stateMutability": "view",
					"type": "function"
				},
				{
					"inputs": [
						{
							"internalType": "bytes32",
							"name": "serviceId",
							"type": "bytes32"
						},
						{
							"internalType": "uint256",
							"name": "purchaseId",
							"type": "uint256"
						},
						{
							"internalType": "bytes",
							"name": "userInput",
							"type": "bytes"
						}
					],
					"name": "checkDelivery",
					"outputs": [],
					"stateMutability": "view",
					"type": "function"
				},
				{
					"inputs": [
						{
							"internalType": "bytes32",
							"name": "serviceId",
							"type": "bytes32"
						},
						{
							"internalType": "uint256",
							"name": "purchaseId",
							"type": "uint256"
						},
						{
							"internalType": "bytes32",
							"name": "deliverableHash",
							"type": "bytes32"
						}
					],
					"name": "claimDigest",
					"outputs": [
						{
							"internalType": "bytes32",
							"name": "",
							"type": "bytes32"
						}
					],
					"stateMutability": "view",
					"type": "function"
				},
				{
					"inputs": [
						{
							"internalType": "bytes32",
							"name": "serviceId",
							"type": "bytes32"
						},
						{
							"internalType": "uint256",
							"name": "purchaseId",
							"type": "uint256"
						},
						{
							"internalType": "bytes32",
							"name": "deliverableHash",
							"type": "bytes32"
						},
						{
							"internalType": "bytes",
							"name": "buyerSignature",
							"type": "bytes"
						}
					],
					"name": "claimPayment",
					"outputs": [],
					"stateMutability": "nonpayable",
					"type": "function"
				},
				{
					"inputs": [
						{
							"internalType": "string",
							"name": "name",
							"type": "string"
						},
						{
							"internalType": "uint256",
							"name": "price",
							"type": "uint256"
						},
						{
							"internalType": "string",
							"name": "gateway",
							"type": "string"
						},
						{
							"internalType": "address",
							"name": "gatewaySigner",
							"type": "address"
						},
						{
							"internalType": "string",
							"name": "description",
							"type": "string"
						}
					],
					"name": "createService",
					"outputs": [
						{
							"internalType": "bytes32",
							"name": "serviceId",
							"type": "bytes32"
						}
					],
					"stateMutability": "payable",
					"type": "function"
				},
				{
					"inputs": [],
					"name": "listServices",
					"outputs": [
						{
							"internalType": "bytes32[]",
							"name": "ids",
							"type": "bytes32[]"
						}
					],
					"stateMutability": "view",
					"type": "function"
				},
				{
					"inputs": [
						{
							"internalType": "bytes32",
							"name": "",
							"type": "bytes32"
						}
					],
					"name": "nextPurchaseIds",
					"outputs": [
						{
							"internalType": "uint256",
							"name": "",
							"type": "uint256"
						}
					],
					"stateMutability": "view",
					"type": "function"
				},
				{
					"inputs": [
						{
							"internalType": "bytes32",
							"name": "",
							"type": "bytes32"
						},
						{
							"internalType": "uint256",
							"name": "",
							"type": "uint256"
						}
					],
					"name": "purchases",
					"outputs": [
						{
							"internalType": "address",
							"name": "buyer",
							"type": "address"
						},
						{
							"internalType": "uint256",
							"name": "amount",
							"type": "uint256"
						},
						{
							"internalType": "bool",
							"name": "claimed",
							"type": "bool"
						},
						{
							"internalType": "bool",
							"name": "disputed",
							"type": "bool"
						},
						{
							"internalType": "bool",
							"name": "resolved",
							"type": "bool"
						}
					],
					"stateMutability": "view",
					"type": "function"
				},
				{
					"inputs": [
						{
							"internalType": "bytes32",
							"name": "serviceId",
							"type": "bytes32"
						},
						{
							"internalType": "uint256",
							"name": "purchaseId",
							"type": "uint256"
						}
					],
					"name": "raiseDispute",
					"outputs": [],
					"stateMutability": "nonpayable",
					"type": "function"
				},
				{
					"inputs": [
						{
							"internalType": "bytes32",
							"name": "serviceId",
							"type": "bytes32"
						},
						{
							"internalType": "uint256",
							"name": "purchaseId",
							"type": "uint256"
						},
						{
							"internalType": "bool",
							"name": "refundBuyer",
							"type": "bool"
						}
					],
					"name": "resolveDispute",
					"outputs": [],
					"stateMutability": "payable",
					"type": "function"
				},
				{
					"inputs": [
						{
							"internalType": "uint256",
							"name": "",
							"type": "uint256"
						}
					],
					"name": "serviceIds",
					"outputs": [
						{
							"internalType": "bytes32",
							"name": "",
							"type": "bytes32"
						}
					],
					"stateMutability": "view",
					"type": "function"
				},
				{
					"inputs": [
						{
							"internalType": "bytes32",
							"name": "",
							"type": "bytes32"
						}
					],
					"name": "services",
					"outputs": [
						{
							"internalType": "address",
							"name": "provider",
							"type": "address"
						},
						{
							"internalType": "uint256",
							"name": "price",
							"type": "uint256"
						},
						{
							"internalType": "string",
							"name": "description",
							"type": "string"
						},
						{
							"internalType": "string",
							"name": "gateway",
							"type": "string"
						},
						{
							"internalType": "address",
							"name": "gatewaySigner",
							"type": "address"
						}
					],
					"stateMutability": "view",
					"type": "function"
				},
				{
					"inputs": [
						{
							"internalType": "bytes32",
							"name": "",
							"type": "bytes32"
						}
					],
					"name": "stakes",
					"outputs": [
						{
							"internalType": "uint256",
							"name": "",
							"type": "uint256"
						}
					],
					"stateMutability": "view",
					"type": "function"
				},
				{
					"inputs": [
						{
							"internalType": "bytes32",
							"name": "serviceId",
							"type": "bytes32"
						}
					],
					"name": "topUpStake",
					"outputs": [],
					"stateMutability": "payable",
					"type": "function"
				},
				{
					"inputs": [
						{
							"internalType": "bytes32",
							"name": "serviceId",
							"type": "bytes32"
						},
						{
							"internalType": "string",
							"name": "description",
							"type": "string"
						},
						{
							"internalType": "string",
							"name": "gateway",
							"type": "string"
						},
						{
							"internalType": "address",
							"name": "gatewaySigner",
							"type": "address"
						}
					],
					"name": "updateService",
					"outputs": [],
					"stateMutability": "nonpayable",
					"type": "function"
				},
				{
					"inputs": [
						{
							"internalType": "bytes32",
							"name": "serviceId",
							"type": "bytes32"
						},
						{
							"internalType": "uint256",
							"name": "amount",
							"type": "uint256"
						}
					],
					"name": "withdrawStake",
					"outputs": [],
					"stateMutability": "nonpayable",
					"type": "function"
				},
				{
					"stateMutability": "payable",
					"type": "receive"
				}
			],
			"devdoc": {
				"errors": {
					"ECDSAInvalidSignature()": [
						{
							"details": "The signature derives the `address(0)`."
						}
					],
					"ECDSAInvalidSignatureLength(uint256)": [
						{
							"details": "The signature has an invalid length."
						}
					],
					"ECDSAInvalidSignatureS(bytes32)": [
						{
							"details": "The signature has an S value that is in the upper half order."
						}
					],
					"OffchainLookup(address,string[],bytes,bytes4,bytes)": [
						{
							"details": "See EIP‑3668 for parameter semantics"
						}
					]
				},
				"kind": "dev",
				"methods": {
					"claimDigest(bytes32,uint256,bytes32)": {
						"details": "Compute the digest that a buyer must sign to authorise payment"
					},
					"createService(string,uint256,string,address,string)": {
						"params": {
							"description": "IPFS CID or text description `msg.value` – initial stake (must be ≥ `price`)",
							"gateway": "CCIP‑Read endpoint",
							"name": "Human‑readable service name (unique)",
							"price": "Fixed price in wei"
						}
					},
					"listServices()": {
						"returns": {
							"ids": "Array of all service IDs"
						}
					}
				},
				"version": 1
			},
			"userdoc": {
				"events": {
					"DisputeRaised(bytes32,uint256)": {
						"notice": "Buyer flagged the purchase for dispute"
					},
					"DisputeResolved(bytes32,uint256,bool,address)": {
						"notice": "Dispute resolved by an arbiter"
					},
					"OffchainDelivery(bytes32,uint256,bytes32)": {
						"notice": "Off‑chain gateway supplied a deliverable hash for a purchase"
					},
					"PaymentClaimed(bytes32,uint256)": {
						"notice": "Provider claimed the locked payment (buyer signature verified)"
					},
					"ServiceDeployed(bytes32,string,address,uint256)": {
						"notice": "New service deployed"
					},
					"ServicePurchased(bytes32,uint256,address,uint256)": {
						"notice": "Buyer successfully paid for the service"
					},
					"ServiceUpdated(bytes32,string,string,address)": {
						"notice": "Service updated"
					},
					"StakeToppedUp(bytes32,uint256,uint256)": {
						"notice": "Provider topped up their stake"
					},
					"StakeWithdrawn(bytes32,uint256,uint256)": {
						"notice": "Provider withdrew part of their stake"
					}
				},
				"kind": "user",
				"methods": {
					"buyService(bytes32)": {
						"notice": "Purchase the service by locking `price` ETH in this contract"
					},
					"ccipCallback(bytes,bytes)": {
						"notice": "CCIP‑Read callback that simply logs the deliverable hash off‑chain"
					},
					"checkDelivery(bytes32,uint256,bytes)": {
						"notice": "Trigger an ERC‑3668 OffchainLookup so that a gateway can return the deliverable"
					},
					"claimPayment(bytes32,uint256,bytes32,bytes)": {
						"notice": "Provider claims funds by presenting a buyer‑signed message"
					},
					"createService(string,uint256,string,address,string)": {
						"notice": "Create a new service"
					},
					"nextPurchaseIds(bytes32)": {
						"notice": "Map: serviceId ⇒ next purchase ID"
					},
					"purchases(bytes32,uint256)": {
						"notice": "Map: serviceId ⇒ purchaseId ⇒ Purchase"
					},
					"resolveDispute(bytes32,uint256,bool)": {
						"notice": "Resolve a dispute. Anyone can act as arbiter by bonding ≥ price"
					},
					"serviceIds(uint256)": {
						"notice": "List of all serviceIds (for off‑chain pagination)"
					},
					"services(bytes32)": {
						"notice": "Map: serviceId ⇒ Service data"
					},
					"stakes(bytes32)": {
						"notice": "Map: serviceId ⇒ provider's collateral"
					},
					"topUpStake(bytes32)": {
						"notice": "Increase stake for a service "
					},
					"updateService(bytes32,string,string,address)": {
						"notice": "Update service details"
					},
					"withdrawStake(bytes32,uint256)": {
						"notice": "Withdraw unused stake (cannot exceed balance held by contract)"
					}
				},
				"version": 1
			},
			"storageLayout": {
				"storage": [
					{
						"astId": 446,
						"contract": "EscroDot.sol:EscroDot",
						"label": "services",
						"offset": 0,
						"slot": "0",
						"type": "t_mapping(t_bytes32,t_struct(Service)479_storage)"
					},
					{
						"astId": 450,
						"contract": "EscroDot.sol:EscroDot",
						"label": "serviceIds",
						"offset": 0,
						"slot": "1",
						"type": "t_array(t_bytes32)dyn_storage"
					},
					{
						"astId": 455,
						"contract": "EscroDot.sol:EscroDot",
						"label": "stakes",
						"offset": 0,
						"slot": "2",
						"type": "t_mapping(t_bytes32,t_uint256)"
					},
					{
						"astId": 463,
						"contract": "EscroDot.sol:EscroDot",
						"label": "purchases",
						"offset": 0,
						"slot": "3",
						"type": "t_mapping(t_bytes32,t_mapping(t_uint256,t_struct(Purchase)490_storage))"
					},
					{
						"astId": 468,
						"contract": "EscroDot.sol:EscroDot",
						"label": "nextPurchaseIds",
						"offset": 0,
						"slot": "4",
						"type": "t_mapping(t_bytes32,t_uint256)"
					},
					{
						"astId": 610,
						"contract": "EscroDot.sol:EscroDot",
						"label": "_locked",
						"offset": 0,
						"slot": "5",
						"type": "t_uint256"
					}
				],
				"types": {
					"t_address": {
						"encoding": "inplace",
						"label": "address",
						"numberOfBytes": "20"
					},
					"t_array(t_bytes32)dyn_storage": {
						"base": "t_bytes32",
						"encoding": "dynamic_array",
						"label": "bytes32[]",
						"numberOfBytes": "32"
					},
					"t_bool": {
						"encoding": "inplace",
						"label": "bool",
						"numberOfBytes": "1"
					},
					"t_bytes32": {
						"encoding": "inplace",
						"label": "bytes32",
						"numberOfBytes": "32"
					},
					"t_mapping(t_bytes32,t_mapping(t_uint256,t_struct(Purchase)490_storage))": {
						"encoding": "mapping",
						"key": "t_bytes32",
						"label": "mapping(bytes32 => mapping(uint256 => struct EscroDot.Purchase))",
						"numberOfBytes": "32",
						"value": "t_mapping(t_uint256,t_struct(Purchase)490_storage)"
					},
					"t_mapping(t_bytes32,t_struct(Service)479_storage)": {
						"encoding": "mapping",
						"key": "t_bytes32",
						"label": "mapping(bytes32 => struct EscroDot.Service)",
						"numberOfBytes": "32",
						"value": "t_struct(Service)479_storage"
					},
					"t_mapping(t_bytes32,t_uint256)": {
						"encoding": "mapping",
						"key": "t_bytes32",
						"label": "mapping(bytes32 => uint256)",
						"numberOfBytes": "32",
						"value": "t_uint256"
					},
					"t_mapping(t_uint256,t_struct(Purchase)490_storage)": {
						"encoding": "mapping",
						"key": "t_uint256",
						"label": "mapping(uint256 => struct EscroDot.Purchase)",
						"numberOfBytes": "32",
						"value": "t_struct(Purchase)490_storage"
					},
					"t_string_storage": {
						"encoding": "bytes",
						"label": "string",
						"numberOfBytes": "32"
					},
					"t_struct(Purchase)490_storage": {
						"encoding": "inplace",
						"label": "struct EscroDot.Purchase",
						"members": [
							{
								"astId": 481,
								"contract": "EscroDot.sol:EscroDot",
								"label": "buyer",
								"offset": 0,
								"slot": "0",
								"type": "t_address"
							},
							{
								"astId": 483,
								"contract": "EscroDot.sol:EscroDot",
								"label": "amount",
								"offset": 0,
								"slot": "1",
								"type": "t_uint256"
							},
							{
								"astId": 485,
								"contract": "EscroDot.sol:EscroDot",
								"label": "claimed",
								"offset": 0,
								"slot": "2",
								"type": "t_bool"
							},
							{
								"astId": 487,
								"contract": "EscroDot.sol:EscroDot",
								"label": "disputed",
								"offset": 1,
								"slot": "2",
								"type": "t_bool"
							},
							{
								"astId": 489,
								"contract": "EscroDot.sol:EscroDot",
								"label": "resolved",
								"offset": 2,
								"slot": "2",
								"type": "t_bool"
							}
						],
						"numberOfBytes": "96"
					},
					"t_struct(Service)479_storage": {
						"encoding": "inplace",
						"label": "struct EscroDot.Service",
						"members": [
							{
								"astId": 470,
								"contract": "EscroDot.sol:EscroDot",
								"label": "provider",
								"offset": 0,
								"slot": "0",
								"type": "t_address"
							},
							{
								"astId": 472,
								"contract": "EscroDot.sol:EscroDot",
								"label": "price",
								"offset": 0,
								"slot": "1",
								"type": "t_uint256"
							},
							{
								"astId": 474,
								"contract": "EscroDot.sol:EscroDot",
								"label": "description",
								"offset": 0,
								"slot": "2",
								"type": "t_string_storage"
							},
							{
								"astId": 476,
								"contract": "EscroDot.sol:EscroDot",
								"label": "gateway",
								"offset": 0,
								"slot": "3",
								"type": "t_string_storage"
							},
							{
								"astId": 478,
								"contract": "EscroDot.sol:EscroDot",
								"label": "gatewaySigner",
								"offset": 0,
								"slot": "4",
								"type": "t_address"
							}
						],
						"numberOfBytes": "160"
					},
					"t_uint256": {
						"encoding": "inplace",
						"label": "uint256",
						"numberOfBytes": "32"
					}
				}
			},
			"evm": {
				"assembly": "// RO data = 0/0 bytes\n// RW data = 272/65824 bytes\n// Stack size = 16384 bytes\n\n// Instructions = 48987\n// Code size = 157132 bytes\n\n      : @0 (gas: 2)\n     0: i32 a2 = a0 >> 0x10\n     3: jump @6 if a2 != 0\n      : @1 (gas: 2)\n     6: a2 = 0x10001\n    11: jump @6 if a1 >=u a2\n      : @2 (gas: 4)\n    14: a1 = a1 + a0\n    17: i32 a1 = a1 + 0x1f\n    20: a1 = a1 & 0xffffffffffffffe0\n    23: jump @7 if a1 >=u 65537\n      : @3 (gas: 2)\n    29: a3 = i32 [0x20110]\n    34: jump @5 if a3 >=u a1\n      : @4 (gas: 4)\n    37: u32 [0x20110] = a1\n    42: a1 = 0x20120\n    47: a0 = a0 + a1\n    50: ret\n      : @5 (gas: 3)\n    52: a1 = 0x20120\n    57: a0 = a0 + a1\n    60: ret\n      : @6 (gas: 1)\n    62: trap\n      : @7 (gas: 1)\n    63: trap\n      : @8 (gas: 1)\n    64: jump @22 if a0 == a1\n      : @9 (gas: 9)\n    67: a3 = a1 << 0x20\n    70: a3 = a3 >> 0x20\n    73: a4 = a0 << 0x20\n    76: a4 = a4 >> 0x20\n    79: a4 = a4 + a2\n    82: a3 = a3 - a4\n    85: a4 = a2 << 0x1\n    88: a4 = -a4\n    90: jump @15 if a4 >=u a3\n      : @10 (gas: 1)\n    93: jump @19 if a0 >=u a1\n      : @11 (gas: 1)\n    96: jump @22 if a2 == 0\n      : @12 (gas: 3)\n    99: a2 = a2 + a0\n   102: a3 = a0\n   104: fallthrough\n      : @13 (gas: 6)\n   105: a4 = u8 [a1]\n   107: a1 = a1 + 0x1\n   110: a5 = a3 + 0x1\n   113: u8 [a3] = a4\n   115: a3 = a5\n   117: jump @13 if a5 != a2\n      : @14 (gas: 1)\n   120: jump @22\n      : @15 (gas: 1)\n   122: jump @22 if a2 == 0\n      : @16 (gas: 3)\n   125: a2 = a2 + a0\n   128: a3 = a0\n   130: fallthrough\n      : @17 (gas: 6)\n   131: a4 = u8 [a1]\n   133: a1 = a1 + 0x1\n   136: a5 = a3 + 0x1\n   139: u8 [a3] = a4\n   141: a3 = a5\n   143: jump @17 if a5 != a2\n      : @18 (gas: 1)\n   146: jump @22\n      : @19 (gas: 1)\n   148: jump @22 if a2 == 0\n      : @20 (gas: 2)\n   151: i32 a3 = a2 + 0xffffffffffffffff\n   154: fallthrough\n      : @21 (gas: 7)\n   155: a4 = a1 + a3\n   158: a4 = u8 [a4]\n   160: a2 = a2 + 0xffffffffffffffff\n   163: a5 = a0 + a3\n   166: u8 [a5] = a4\n   168: i32 a3 = a3 + 0xffffffffffffffff\n   171: jump @21 if a2 != 0\n      : @22 (gas: 1)\n   174: ret\n      : @23 (gas: 13)\n   176: sp = sp + 0xffffffffffffffd8\n   179: u64 [sp + 0x20] = ra\n   182: u64 [sp + 0x18] = s0\n   185: u64 [sp + 0x10] = s1\n   188: a2 = u64 [a1]\n   190: u64 [sp + 0x8] = a2\n   193: a2 = u64 [a1 + 0x8]\n   196: u64 [sp] = a2\n   198: s0 = u64 [a1 + 0x10]\n   201: s1 = u64 [a1 + 0x18]\n   204: i32 a0 = a0 + 0\n   206: a1 = 0x20\n   209: ra = 2, jump @0\n      : @24 [@dyn 1] (gas: 71)\n   214: a1 = reverse s1\n   216: a2 = reverse s0\n   218: a3 = u64 [sp]\n   220: a3 = reverse a3\n   222: a4 = u64 [sp + 0x8]\n   225: a4 = reverse a4\n   227: u8 [a0 + 0x18] = a4\n   230: u8 [a0 + 0x10] = a3\n   233: u8 [a0 + 0x8] = a2\n   236: u8 [a0] = a1\n   238: a5 = a4 >> 0x38\n   241: u8 [a0 + 0x1f] = a5\n   244: a5 = a4 >> 0x30\n   247: u8 [a0 + 0x1e] = a5\n   250: a5 = a4 >> 0x28\n   253: u8 [a0 + 0x1d] = a5\n   256: a5 = a4 >> 0x20\n   259: u8 [a0 + 0x1c] = a5\n   262: a5 = a4 >> 0x18\n   265: u8 [a0 + 0x1b] = a5\n   268: a5 = a4 >> 0x10\n   271: u8 [a0 + 0x1a] = a5\n   274: a4 = a4 >> 0x8\n   277: u8 [a0 + 0x19] = a4\n   280: a4 = a3 >> 0x38\n   283: u8 [a0 + 0x17] = a4\n   286: a4 = a3 >> 0x30\n   289: u8 [a0 + 0x16] = a4\n   292: a4 = a3 >> 0x28\n   295: u8 [a0 + 0x15] = a4\n   298: a4 = a3 >> 0x20\n   301: u8 [a0 + 0x14] = a4\n   304: a4 = a3 >> 0x18\n   307: u8 [a0 + 0x13] = a4\n   310: a4 = a3 >> 0x10\n   313: u8 [a0 + 0x12] = a4\n   316: a3 = a3 >> 0x8\n   319: u8 [a0 + 0x11] = a3\n   322: a3 = a2 >> 0x38\n   325: u8 [a0 + 0xf] = a3\n   328: a3 = a2 >> 0x30\n   331: u8 [a0 + 0xe] = a3\n   334: a3 = a2 >> 0x28\n   337: u8 [a0 + 0xd] = a3\n   340: a3 = a2 >> 0x20\n   343: u8 [a0 + 0xc] = a3\n   346: a3 = a2 >> 0x18\n   349: u8 [a0 + 0xb] = a3\n   352: a3 = a2 >> 0x10\n   355: u8 [a0 + 0xa] = a3\n   358: a2 = a2 >> 0x8\n   361: u8 [a0 + 0x9] = a2\n   364: a2 = a1 >> 0x38\n   367: u8 [a0 + 0x7] = a2\n   370: a2 = a1 >> 0x30\n   373: u8 [a0 + 0x6] = a2\n   376: a2 = a1 >> 0x28\n   379: u8 [a0 + 0x5] = a2\n   382: a2 = a1 >> 0x20\n   385: u8 [a0 + 0x4] = a2\n   388: a2 = a1 >> 0x18\n   391: u8 [a0 + 0x3] = a2\n   394: a2 = a1 >> 0x10\n   397: u8 [a0 + 0x2] = a2\n   400: a1 = a1 >> 0x8\n   403: u8 [a0 + 0x1] = a1\n   406: ra = u64 [sp + 0x20]\n   409: s0 = u64 [sp + 0x18]\n   412: s1 = u64 [sp + 0x10]\n   415: sp = sp + 0x28\n   418: ret\n      : @25 (gas: 6)\n   420: sp = sp + 0xfffffffffffffff0\n   423: u64 [sp + 0x8] = ra\n   426: u64 [sp] = s0\n   428: s0 = a0 & 0x1\n   431: ecalli 4 // 'call_data_size'\n   433: fallthrough\n      : @26 (gas: 2)\n   434: u32 [0x20114] = a0\n   439: jump @28 if s0 == 0\n      : @27 (gas: 1)\n   442: ra = 4, jump @29\n      : @28 [@dyn 2] (gas: 1)\n   446: ra = 6, jump @43\n      : @29 [@dyn 3] (gas: 9)\n   451: sp = sp + 0xffffffffffffff60\n   455: u64 [sp + 0x98] = ra\n   459: u64 [sp + 0x90] = s0\n   463: u64 [sp + 0x88] = s1\n   467: s0 = sp + 0xa0\n   471: sp = sp & 0xffffffffffffffe0\n   474: a0 = 0x40\n   477: a1 = 0x20\n   480: ra = 8, jump @0\n      : @30 [@dyn 4] (gas: 39)\n   485: u8 [a0 + 31] = 0x80\n   490: u8 [a0 + 30] = 0\n   493: u8 [a0 + 29] = 0\n   496: u8 [a0 + 28] = 0\n   499: u8 [a0 + 27] = 0\n   502: u8 [a0 + 26] = 0\n   505: u8 [a0 + 25] = 0\n   508: u8 [a0 + 24] = 0\n   511: u8 [a0 + 23] = 0\n   514: u8 [a0 + 22] = 0\n   517: u8 [a0 + 21] = 0\n   520: u8 [a0 + 20] = 0\n   523: u8 [a0 + 19] = 0\n   526: u8 [a0 + 18] = 0\n   529: u8 [a0 + 17] = 0\n   532: u8 [a0 + 16] = 0\n   535: u8 [a0 + 15] = 0\n   538: u8 [a0 + 14] = 0\n   541: u8 [a0 + 13] = 0\n   544: u8 [a0 + 12] = 0\n   547: u8 [a0 + 11] = 0\n   550: u8 [a0 + 10] = 0\n   553: u8 [a0 + 9] = 0\n   556: u8 [a0 + 8] = 0\n   559: u8 [a0 + 7] = 0\n   562: u8 [a0 + 6] = 0\n   565: u8 [a0 + 5] = 0\n   568: u8 [a0 + 4] = 0\n   571: u8 [a0 + 3] = 0\n   574: u8 [a0 + 2] = 0\n   577: u8 [a0 + 1] = 0\n   580: u8 [a0 + 0] = 0\n   582: u64 [sp + 24] = 0\n   585: u64 [sp + 0] = 0\n   587: u64 [sp + 8] = 0\n   590: u64 [sp + 16] = 0\n   593: i32 a0 = sp + 0\n   595: ecalli 16 // 'value_transferred'\n   597: fallthrough\n      : @31 (gas: 8)\n   598: a0 = u64 [sp + 0x10]\n   601: a1 = u64 [sp + 0x18]\n   604: a2 = u64 [sp + 0x8]\n   607: a3 = u64 [sp]\n   609: a1 = a1 | a2\n   612: a0 = a0 | a3\n   615: a0 = a0 | a1\n   618: jump @35 if a0 != 0\n      : @32 (gas: 33)\n   622: u64 [sp + 88] = 0\n   625: u64 [sp + 80] = 0\n   628: u64 [sp + 72] = 0\n   631: s1 = 0x5\n   634: u64 [sp + 0x40] = s1\n   637: u64 [sp + 120] = 0\n   640: u64 [sp + 112] = 0\n   643: u64 [sp + 104] = 0\n   646: u64 [sp + 96] = 0\n   649: u32 [sp + 32] = 0x20\n   653: i32 a1 = sp + 0x40\n   656: i32 a3 = sp + 0x60\n   659: i32 a4 = sp + 0x20\n   662: a2 = 0xffffffffffffffff\n   665: a0 = 0\n   667: ecalli 7 // 'get_storage'\n   669: u64 [sp + 88] = 0\n   672: u64 [sp + 80] = 0\n   675: u64 [sp + 72] = 0\n   678: u64 [sp + 0x40] = s1\n   681: u64 [sp + 120] = 0\n   684: u64 [sp + 112] = 0\n   687: u64 [sp + 104] = 0\n   690: u64 [sp + 96] = 0x1\n   694: i32 a1 = sp + 0x40\n   697: i32 a3 = sp + 0x60\n   700: a2 = 0xffffffffffffffff\n   703: a4 = 0x20\n   706: a0 = 0\n   708: ecalli 15 // 'set_storage'\n   710: a0 = 0x40\n   713: a1 = 0x20\n   716: ra = 10, jump @0\n      : @33 [@dyn 5] (gas: 100)\n   721: a1 = u8 [a0 + 0x11]\n   724: a2 = u8 [a0 + 0x10]\n   727: a3 = u8 [a0 + 0x12]\n   730: a4 = u8 [a0 + 0x13]\n   733: a1 = a1 << 0x8\n   736: a1 = a1 | a2\n   739: a3 = a3 << 0x10\n   742: a4 = a4 << 0x18\n   745: a3 = a3 | a4\n   748: a1 = a1 | a3\n   751: a2 = u8 [a0 + 0x15]\n   754: a3 = u8 [a0 + 0x14]\n   757: a4 = u8 [a0 + 0x16]\n   760: a5 = u8 [a0 + 0x17]\n   763: a2 = a2 << 0x8\n   766: a2 = a2 | a3\n   769: a4 = a4 << 0x10\n   772: a5 = a5 << 0x18\n   775: a4 = a4 | a5\n   778: a2 = a2 | a4\n   781: a2 = a2 << 0x20\n   784: t0 = a2 | a1\n   787: a2 = u8 [a0 + 0x1]\n   790: a3 = u8 [a0]\n   792: a4 = u8 [a0 + 0x2]\n   795: a5 = u8 [a0 + 0x3]\n   798: a2 = a2 << 0x8\n   801: a2 = a2 | a3\n   804: a4 = a4 << 0x10\n   807: a5 = a5 << 0x18\n   810: a4 = a4 | a5\n   813: a2 = a2 | a4\n   816: a3 = u8 [a0 + 0x5]\n   819: a4 = u8 [a0 + 0x4]\n   822: a5 = u8 [a0 + 0x6]\n   825: s1 = u8 [a0 + 0x7]\n   828: a3 = a3 << 0x8\n   831: a3 = a3 | a4\n   834: a5 = a5 << 0x10\n   837: s1 = s1 << 0x18\n   840: a5 = a5 | s1\n   843: a3 = a3 | a5\n   846: a3 = a3 << 0x20\n   849: a2 = a2 | a3\n   852: a3 = u8 [a0 + 0x19]\n   855: a4 = u8 [a0 + 0x18]\n   858: a5 = u8 [a0 + 0x1a]\n   861: s1 = u8 [a0 + 0x1b]\n   864: a3 = a3 << 0x8\n   867: a3 = a3 | a4\n   870: a5 = a5 << 0x10\n   873: s1 = s1 << 0x18\n   876: a5 = a5 | s1\n   879: a3 = a3 | a5\n   882: a4 = u8 [a0 + 0x1d]\n   885: a5 = u8 [a0 + 0x1c]\n   888: s1 = u8 [a0 + 0x1e]\n   891: a1 = u8 [a0 + 0x1f]\n   894: a4 = a4 << 0x8\n   897: a4 = a4 | a5\n   900: s1 = s1 << 0x10\n   903: a1 = a1 << 0x18\n   906: a1 = a1 | s1\n   909: a1 = a1 | a4\n   912: a1 = a1 << 0x20\n   915: a3 = a3 | a1\n   918: a1 = u8 [a0 + 0x9]\n   921: a4 = u8 [a0 + 0x8]\n   924: a5 = u8 [a0 + 0xa]\n   927: s1 = u8 [a0 + 0xb]\n   930: a1 = a1 << 0x8\n   933: a1 = a1 | a4\n   936: a5 = a5 << 0x10\n   939: s1 = s1 << 0x18\n   942: a5 = a5 | s1\n   945: a1 = a1 | a5\n   948: a4 = u8 [a0 + 0xd]\n   951: a5 = u8 [a0 + 0xc]\n   954: s1 = u8 [a0 + 0xe]\n   957: a0 = u8 [a0 + 0xf]\n   960: a4 = a4 << 0x8\n   963: a4 = a4 | a5\n   966: s1 = s1 << 0x10\n   969: a0 = a0 << 0x18\n   972: a0 = a0 | s1\n   975: a0 = a0 | a4\n   978: a0 = a0 << 0x20\n   981: a0 = a0 | a1\n   984: a0 = reverse a0\n   986: s1 = reverse a3\n   988: a1 = reverse a2\n   990: a2 = reverse t0\n   992: a1 = a1 | a2\n   995: a2 = s1 | a0\n   998: a2 = a2 | a1\n  1001: a2 = a2 >> 0x20\n  1004: a0 = a0 | a1\n  1007: a0 = a0 << 0x20\n  1010: a0 = a0 | a2\n  1013: jump @37 if a0 == 0\n      : @34 (gas: 1)\n  1016: trap\n      : @35 (gas: 3)\n  1017: a0 = 0\n  1019: a1 = 0\n  1021: ra = 12, jump @0\n      : @36 [@dyn 6] (gas: 5)\n  1026: i32 a1 = a0 + 0\n  1028: a0 = 0x1\n  1031: a2 = 0\n  1033: ecalli 13 // 'seal_return'\n  1035: fallthrough\n      : @37 (gas: 4)\n  1036: i32 s1 = s1 + 0\n  1038: a0 = s1\n  1040: a1 = 0\n  1042: ra = 14, jump @0\n      : @38 [@dyn 7] (gas: 5)\n  1047: i32 a0 = a0 + 0\n  1049: a1 = 0\n  1051: a2 = 0\n  1053: ecalli 2 // 'call_data_copy'\n  1055: fallthrough\n      : @39 (gas: 2)\n  1056: a1 = i32 [0x20118]\n  1061: jump @41 if a1 == 0\n      : @40 (gas: 4)\n  1064: a0 = 0x30120\n  1069: i32 a0 = a0 + 0\n  1071: ecalli 14 // 'set_immutable_data'\n  1073: fallthrough\n      : @41 (gas: 3)\n  1074: a0 = s1\n  1076: a1 = 0\n  1078: ra = 16, jump @0\n      : @42 [@dyn 8] (gas: 6)\n  1083: i32 a1 = a0 + 0\n  1085: a0 = 0\n  1087: a2 = 0\n  1089: ra = 0x12\n  1092: ecalli 13 // 'seal_return'\n  1094: fallthrough\n      : @43 [@dyn 9] (gas: 9)\n  1095: sp = sp + 0xfffffffffffffd20\n  1099: u64 [sp + 0x2d8] = ra\n  1103: u64 [sp + 0x2d0] = s0\n  1107: u64 [sp + 0x2c8] = s1\n  1111: s0 = sp + 0x2e0\n  1115: sp = sp & 0xffffffffffffffe0\n  1118: a0 = 0x40\n  1121: a1 = 0x20\n  1124: ra = 20, jump @0\n      : @44 [@dyn 10] (gas: 35)\n  1129: u8 [a0 + 31] = 0x80\n  1134: u8 [a0 + 30] = 0\n  1137: u8 [a0 + 29] = 0\n  1140: u8 [a0 + 28] = 0\n  1143: u8 [a0 + 27] = 0\n  1146: u8 [a0 + 26] = 0\n  1149: u8 [a0 + 25] = 0\n  1152: u8 [a0 + 24] = 0\n  1155: u8 [a0 + 23] = 0\n  1158: u8 [a0 + 22] = 0\n  1161: u8 [a0 + 21] = 0\n  1164: u8 [a0 + 20] = 0\n  1167: u8 [a0 + 19] = 0\n  1170: u8 [a0 + 18] = 0\n  1173: u8 [a0 + 17] = 0\n  1176: u8 [a0 + 16] = 0\n  1179: u8 [a0 + 15] = 0\n  1182: u8 [a0 + 14] = 0\n  1185: u8 [a0 + 13] = 0\n  1188: u8 [a0 + 12] = 0\n  1191: u8 [a0 + 11] = 0\n  1194: u8 [a0 + 10] = 0\n  1197: u8 [a0 + 9] = 0\n  1200: u8 [a0 + 8] = 0\n  1203: u8 [a0 + 7] = 0\n  1206: u8 [a0 + 3] = 0\n  1209: s1 = 0x20114\n  1214: u8 [a0 + 2] = 0\n  1217: u8 [a0 + 1] = 0\n  1220: u8 [a0 + 0] = 0\n  1222: a1 = i32 [0x20114]\n  1227: u8 [a0 + 6] = 0\n  1230: u8 [a0 + 5] = 0\n  1233: u8 [a0 + 4] = 0\n  1236: jump @95 if a1 <u 4\n      : @45 (gas: 4)\n  1241: i32 a0 = sp + 0x280\n  1245: a1 = 0\n  1247: ecalli 3 // 'call_data_load'\n  1249: fallthrough\n      : @46 (gas: 2)\n  1250: a0 = i32 [sp + 0x29c]\n  1254: jump @53 if a0 <=s 4202135285\n      : @47 (gas: 1)\n  1261: jump @58 if a0 <=s 433870613\n      : @48 (gas: 1)\n  1269: jump @79 if a0 <=s 937816906\n      : @49 (gas: 1)\n  1277: jump @92 if a0 == 937816907\n      : @50 (gas: 1)\n  1285: jump @87 if a0 == 1324209523\n      : @51 (gas: 1)\n  1293: jump @94 if a0 != 1775397171\n      : @52 (gas: 14)\n  1301: ra = 0x16\n  1304: sp = sp + 0xffffffffffffff40\n  1308: u64 [sp + 0xb8] = ra\n  1312: u64 [sp + 0xb0] = s0\n  1316: u64 [sp + 0xa8] = s1\n  1320: s0 = sp + 0xc0\n  1324: sp = sp & 0xffffffffffffffe0\n  1327: u64 [sp + 120] = 0\n  1330: u64 [sp + 112] = 0\n  1333: u64 [sp + 104] = 0\n  1336: u64 [sp + 96] = 0\n  1339: i32 a0 = sp + 0x60\n  1342: ecalli 16 // 'value_transferred'\n  1344: jump @366\n      : @53 [@dyn 11] (gas: 1)\n  1347: jump @66 if a0 >s 2731774007\n      : @54 (gas: 2)\n  1355: a1 = 0xffffffff98238000\n  1361: jump @73 if a0 >s 2552464528\n      : @55 (gas: 1)\n  1369: jump @88 if a0 == 2414765063\n      : @56 (gas: 1)\n  1377: jump @94 if a0 != 2458667258\n      : @57 (gas: 1)\n  1385: ra = 24, jump @404\n      : @58 [@dyn 12] (gas: 2)\n  1390: a1 = 0xa791000\n  1396: jump @70 if a0 >s 175705782\n      : @59 (gas: 1)\n  1404: jump @82 if a0 == 4202135286\n      : @60 (gas: 1)\n  1412: jump @94 if a0 != 4210080703\n      : @61 (gas: 13)\n  1420: a0 = u32 [s1]\n  1422: u64 [sp + 504] = 0\n  1426: u64 [sp + 496] = 0\n  1430: u64 [sp + 488] = 0\n  1434: u64 [sp + 0x1e0] = a0\n  1438: u64 [sp + 536] = 0\n  1442: u64 [sp + 528] = 0\n  1446: u64 [sp + 512] = 0x4\n  1451: a0 = sp + 0x220\n  1455: a1 = sp + 0x200\n  1459: a2 = sp + 0x1e0\n  1463: u64 [sp + 520] = 0\n  1467: ra = 26, jump @560\n      : @62 [@dyn 13] (gas: 30)\n  1473: a0 = u64 [sp + 0x220]\n  1477: u64 [sp + 0x38] = a0\n  1480: t1 = u64 [sp + 0x228]\n  1484: t2 = u64 [sp + 0x230]\n  1488: ra = u64 [sp + 0x238]\n  1492: t0 = u64 [sp + 0x240]\n  1496: a5 = u64 [sp + 0x248]\n  1500: s1 = u64 [sp + 0x250]\n  1504: a4 = u64 [sp + 0x258]\n  1508: a3 = u64 [sp + 0x260]\n  1512: a1 = u64 [sp + 0x268]\n  1516: a2 = u64 [sp + 0x270]\n  1520: a0 = u64 [sp + 0x278]\n  1524: u64 [sp + 0x198] = a0\n  1528: u64 [sp + 0x190] = a2\n  1532: u64 [sp + 0x188] = a1\n  1536: u64 [sp + 0x180] = a3\n  1540: u64 [sp + 0x1b8] = a4\n  1544: u64 [sp + 0x1b0] = s1\n  1548: u64 [sp + 0x1a8] = a5\n  1552: u64 [sp + 0x1a0] = t0\n  1556: u64 [sp + 0x1d8] = ra\n  1560: u64 [sp + 0x1d0] = t2\n  1564: u64 [sp + 0x1c8] = t1\n  1568: a0 = sp + 0x1c0\n  1572: a1 = sp + 0x1a0\n  1576: a2 = sp + 0x180\n  1580: a3 = u64 [sp + 0x38]\n  1583: u64 [sp + 0x1c0] = a3\n  1587: ra = 28, jump @1487\n      : @63 [@dyn 14] (gas: 3)\n  1593: a0 = 0x40\n  1596: a1 = 0x20\n  1599: ra = 30, jump @0\n      : @64 [@dyn 15] (gas: 100)\n  1604: a1 = u8 [a0 + 0x11]\n  1607: a2 = u8 [a0 + 0x10]\n  1610: a3 = u8 [a0 + 0x12]\n  1613: a4 = u8 [a0 + 0x13]\n  1616: a1 = a1 << 0x8\n  1619: a1 = a1 | a2\n  1622: a3 = a3 << 0x10\n  1625: a4 = a4 << 0x18\n  1628: a3 = a3 | a4\n  1631: a1 = a1 | a3\n  1634: a2 = u8 [a0 + 0x15]\n  1637: a3 = u8 [a0 + 0x14]\n  1640: a4 = u8 [a0 + 0x16]\n  1643: a5 = u8 [a0 + 0x17]\n  1646: a2 = a2 << 0x8\n  1649: a2 = a2 | a3\n  1652: a4 = a4 << 0x10\n  1655: a5 = a5 << 0x18\n  1658: a4 = a4 | a5\n  1661: a2 = a2 | a4\n  1664: a2 = a2 << 0x20\n  1667: t0 = a2 | a1\n  1670: a2 = u8 [a0 + 0x1]\n  1673: a3 = u8 [a0]\n  1675: a4 = u8 [a0 + 0x2]\n  1678: a5 = u8 [a0 + 0x3]\n  1681: a2 = a2 << 0x8\n  1684: a2 = a2 | a3\n  1687: a4 = a4 << 0x10\n  1690: a5 = a5 << 0x18\n  1693: a4 = a4 | a5\n  1696: a2 = a2 | a4\n  1699: a3 = u8 [a0 + 0x5]\n  1702: a4 = u8 [a0 + 0x4]\n  1705: a5 = u8 [a0 + 0x6]\n  1708: s1 = u8 [a0 + 0x7]\n  1711: a3 = a3 << 0x8\n  1714: a3 = a3 | a4\n  1717: a5 = a5 << 0x10\n  1720: s1 = s1 << 0x18\n  1723: a5 = a5 | s1\n  1726: a3 = a3 | a5\n  1729: a3 = a3 << 0x20\n  1732: a2 = a2 | a3\n  1735: a3 = u8 [a0 + 0x19]\n  1738: a4 = u8 [a0 + 0x18]\n  1741: a5 = u8 [a0 + 0x1a]\n  1744: s1 = u8 [a0 + 0x1b]\n  1747: a3 = a3 << 0x8\n  1750: a3 = a3 | a4\n  1753: a5 = a5 << 0x10\n  1756: s1 = s1 << 0x18\n  1759: a5 = a5 | s1\n  1762: a3 = a3 | a5\n  1765: a4 = u8 [a0 + 0x1d]\n  1768: a5 = u8 [a0 + 0x1c]\n  1771: s1 = u8 [a0 + 0x1e]\n  1774: a1 = u8 [a0 + 0x1f]\n  1777: a4 = a4 << 0x8\n  1780: a4 = a4 | a5\n  1783: s1 = s1 << 0x10\n  1786: a1 = a1 << 0x18\n  1789: a1 = a1 | s1\n  1792: a1 = a1 | a4\n  1795: a1 = a1 << 0x20\n  1798: a3 = a3 | a1\n  1801: a1 = u8 [a0 + 0x9]\n  1804: a4 = u8 [a0 + 0x8]\n  1807: a5 = u8 [a0 + 0xa]\n  1810: s1 = u8 [a0 + 0xb]\n  1813: a1 = a1 << 0x8\n  1816: a1 = a1 | a4\n  1819: a5 = a5 << 0x10\n  1822: s1 = s1 << 0x18\n  1825: a5 = a5 | s1\n  1828: a1 = a1 | a5\n  1831: a4 = u8 [a0 + 0xd]\n  1834: a5 = u8 [a0 + 0xc]\n  1837: s1 = u8 [a0 + 0xe]\n  1840: a0 = u8 [a0 + 0xf]\n  1843: a4 = a4 << 0x8\n  1846: a4 = a4 | a5\n  1849: s1 = s1 << 0x10\n  1852: a0 = a0 << 0x18\n  1855: a0 = a0 | s1\n  1858: a0 = a0 | a4\n  1861: a0 = a0 << 0x20\n  1864: a0 = a0 | a1\n  1867: a1 = reverse a0\n  1869: a0 = reverse a3\n  1871: a2 = reverse a2\n  1873: a3 = reverse t0\n  1875: a2 = a2 | a3\n  1878: a3 = a0 | a1\n  1881: a3 = a3 | a2\n  1884: a3 = a3 >> 0x20\n  1887: a1 = a1 | a2\n  1890: a1 = a1 << 0x20\n  1893: a1 = a1 | a3\n  1896: jump @99 if a1 == 0\n      : @65 (gas: 1)\n  1900: trap\n      : @66 (gas: 2)\n  1901: a1 = 0xffffffffe8795000\n  1907: jump @76 if a0 >s 3900265089\n      : @67 (gas: 1)\n  1915: jump @89 if a0 == 2731774008\n      : @68 (gas: 1)\n  1923: jump @94 if a0 != 3726398600\n      : @69 (gas: 14)\n  1931: ra = 0x20\n  1934: sp = sp + 0xfffffffffffffee0\n  1938: u64 [sp + 0x118] = ra\n  1942: u64 [sp + 0x110] = s0\n  1946: u64 [sp + 0x108] = s1\n  1950: s0 = sp + 0x120\n  1954: sp = sp & 0xffffffffffffffe0\n  1957: u64 [sp + 248] = 0\n  1961: u64 [sp + 240] = 0\n  1965: u64 [sp + 232] = 0\n  1969: u64 [sp + 224] = 0\n  1973: i32 a0 = sp + 0xe0\n  1977: ecalli 16 // 'value_transferred'\n  1979: jump @492\n      : @70 [@dyn 16] (gas: 2)\n  1982: i32 a1 = a1 + 0xfffffffffffffeb7\n  1986: jump @86 if a0 == a1\n      : @71 (gas: 1)\n  1990: jump @94 if a0 != 300277071\n      : @72 (gas: 14)\n  1998: ra = 0x22\n  2001: sp = sp + 0xfffffffffffffde0\n  2005: u64 [sp + 0x218] = ra\n  2009: u64 [sp + 0x210] = s0\n  2013: u64 [sp + 0x208] = s1\n  2017: s0 = sp + 0x220\n  2021: sp = sp & 0xffffffffffffffe0\n  2024: u64 [sp + 504] = 0\n  2028: u64 [sp + 496] = 0\n  2032: u64 [sp + 488] = 0\n  2036: u64 [sp + 480] = 0\n  2040: i32 a0 = sp + 0x1e0\n  2044: ecalli 16 // 'value_transferred'\n  2046: jump @199\n      : @73 [@dyn 17] (gas: 2)\n  2049: i32 a1 = a1 + 0x491\n  2053: jump @90 if a0 == a1\n      : @74 (gas: 1)\n  2057: jump @94 if a0 != 2724851380\n      : @75 (gas: 21)\n  2065: ra = 0x24\n  2068: sp = sp + 0xfffffffffffffcb0\n  2072: u64 [sp + 0x348] = ra\n  2076: u64 [sp + 0x340] = s0\n  2080: u64 [sp + 0x338] = s1\n  2084: s0 = sp + 0x350\n  2088: sp = sp & 0xfffffffffffffff0\n  2091: a0 = u32 [0x20114]\n  2096: u64 [sp + 520] = 0\n  2100: u64 [sp + 512] = 0\n  2104: u64 [sp + 504] = 0\n  2108: u64 [sp + 0x1f0] = a0\n  2112: u64 [sp + 552] = 0\n  2116: u64 [sp + 544] = 0\n  2120: u64 [sp + 528] = 0x4\n  2125: a0 = sp + 0x230\n  2129: a1 = sp + 0x210\n  2133: a2 = sp + 0x1f0\n  2137: u64 [sp + 536] = 0\n  2141: ra = 0x17e\n  2145: jump @427\n      : @76 [@dyn 18] (gas: 2)\n  2148: i32 a1 = a1 + 0x282\n  2152: jump @91 if a0 == a1\n      : @77 (gas: 1)\n  2156: jump @94 if a0 != 3936577167\n      : @78 (gas: 1)\n  2164: ra = 38, jump @521\n      : @79 [@dyn 19] (gas: 1)\n  2170: jump @93 if a0 == 433870614\n      : @80 (gas: 1)\n  2178: jump @94 if a0 != 693191810\n      : @81 (gas: 14)\n  2186: ra = 0x28\n  2189: sp = sp + 0xfffffffffffffda0\n  2193: u64 [sp + 0x258] = ra\n  2197: u64 [sp + 0x250] = s0\n  2201: u64 [sp + 0x248] = s1\n  2205: s0 = sp + 0x260\n  2209: sp = sp & 0xffffffffffffffe0\n  2212: u64 [sp + 568] = 0\n  2216: u64 [sp + 560] = 0\n  2220: u64 [sp + 552] = 0\n  2224: u64 [sp + 544] = 0\n  2228: i32 a0 = sp + 0x220\n  2232: ecalli 16 // 'value_transferred'\n  2234: jump @255\n      : @82 [@dyn 20] (gas: 7)\n  2237: u64 [sp + 696] = 0\n  2241: u64 [sp + 688] = 0\n  2245: u64 [sp + 680] = 0\n  2249: u64 [sp + 672] = 0\n  2253: i32 a0 = sp + 0x2a0\n  2257: ecalli 16 // 'value_transferred'\n  2259: fallthrough\n      : @83 (gas: 8)\n  2260: a0 = u64 [sp + 0x2b0]\n  2264: a1 = u64 [sp + 0x2b8]\n  2268: a2 = u64 [sp + 0x2a8]\n  2272: a3 = u64 [sp + 0x2a0]\n  2276: a1 = a1 | a2\n  2279: a0 = a0 | a3\n  2282: a0 = a0 | a1\n  2285: jump @100 if a0 != 0\n      : @84 (gas: 13)\n  2289: a0 = u32 [s1]\n  2291: u64 [sp + 216] = 0\n  2295: u64 [sp + 208] = 0\n  2299: u64 [sp + 200] = 0\n  2303: u64 [sp + 0xc0] = a0\n  2307: u64 [sp + 248] = 0\n  2311: u64 [sp + 240] = 0\n  2315: u64 [sp + 224] = 0x4\n  2320: a0 = sp + 0x100\n  2324: a1 = sp + 0xe0\n  2328: a2 = sp + 0xc0\n  2332: u64 [sp + 232] = 0\n  2336: ra = 42, jump @530\n      : @85 [@dyn 21] (gas: 47)\n  2342: a0 = u64 [sp + 0x100]\n  2346: u64 [sp + 0x38] = a0\n  2349: a0 = u64 [sp + 0x108]\n  2353: u64 [sp + 0x30] = a0\n  2356: a0 = u64 [sp + 0x110]\n  2360: u64 [sp + 0x28] = a0\n  2363: a0 = u64 [sp + 0x118]\n  2367: u64 [sp + 0x20] = a0\n  2370: a0 = u64 [sp + 0x120]\n  2374: u64 [sp + 0x18] = a0\n  2377: ra = u64 [sp + 0x128]\n  2381: s1 = u64 [sp + 0x130]\n  2385: t2 = u64 [sp + 0x138]\n  2389: t1 = u64 [sp + 0x140]\n  2393: t0 = u64 [sp + 0x148]\n  2397: a5 = u64 [sp + 0x150]\n  2401: a4 = u64 [sp + 0x158]\n  2405: a3 = u64 [sp + 0x160]\n  2409: a2 = u64 [sp + 0x168]\n  2413: a1 = u64 [sp + 0x170]\n  2417: a0 = u64 [sp + 0x178]\n  2421: u64 [sp + 0x58] = a0\n  2424: u64 [sp + 0x50] = a1\n  2427: u64 [sp + 0x48] = a2\n  2430: u64 [sp + 0x40] = a3\n  2433: u64 [sp + 0x78] = a4\n  2436: u64 [sp + 0x70] = a5\n  2439: u64 [sp + 0x68] = t0\n  2442: u64 [sp + 0x60] = t1\n  2445: u64 [sp + 0x98] = t2\n  2449: u64 [sp + 0x90] = s1\n  2453: u64 [sp + 0x88] = ra\n  2457: a0 = u64 [sp + 0x18]\n  2460: u64 [sp + 0x80] = a0\n  2464: a0 = u64 [sp + 0x20]\n  2467: u64 [sp + 0xb8] = a0\n  2471: a0 = u64 [sp + 0x28]\n  2474: u64 [sp + 0xb0] = a0\n  2478: a0 = u64 [sp + 0x30]\n  2481: u64 [sp + 0xa8] = a0\n  2485: a0 = sp + 0xa0\n  2489: a1 = sp + 0x80\n  2493: a2 = sp + 0x60\n  2496: a3 = sp + 0x40\n  2499: a4 = u64 [sp + 0x38]\n  2502: u64 [sp + 0xa0] = a4\n  2506: ra = 44, jump @1422\n      : @86 [@dyn 22] (gas: 14)\n  2512: ra = 0x2e\n  2515: sp = sp + 0xfffffffffffffd40\n  2519: u64 [sp + 0x2b8] = ra\n  2523: u64 [sp + 0x2b0] = s0\n  2527: u64 [sp + 0x2a8] = s1\n  2531: s0 = sp + 0x2c0\n  2535: sp = sp & 0xffffffffffffffe0\n  2538: u64 [sp + 632] = 0\n  2542: u64 [sp + 624] = 0\n  2546: u64 [sp + 616] = 0\n  2550: u64 [sp + 608] = 0\n  2554: i32 a0 = sp + 0x260\n  2558: ecalli 16 // 'value_transferred'\n  2560: jump @160\n      : @87 [@dyn 23] (gas: 1)\n  2563: ra = 48, jump @331\n      : @88 [@dyn 24] (gas: 14)\n  2568: ra = 0x32\n  2571: sp = sp + 0xffffffffffffff60\n  2575: u64 [sp + 0x98] = ra\n  2579: u64 [sp + 0x90] = s0\n  2583: u64 [sp + 0x88] = s1\n  2587: s0 = sp + 0xa0\n  2591: sp = sp & 0xffffffffffffffe0\n  2594: u64 [sp + 56] = 0\n  2597: u64 [sp + 48] = 0\n  2600: u64 [sp + 40] = 0\n  2603: u64 [sp + 32] = 0\n  2606: i32 a0 = sp + 0x20\n  2609: ecalli 16 // 'value_transferred'\n  2611: jump @381\n      : @89 [@dyn 25] (gas: 1)\n  2614: ra = 52, jump @457\n      : @90 [@dyn 26] (gas: 1)\n  2619: ra = 54, jump @416\n      : @91 [@dyn 27] (gas: 14)\n  2624: ra = 0x38\n  2627: sp = sp + 0xffffffffffffff60\n  2631: u64 [sp + 0x98] = ra\n  2635: u64 [sp + 0x90] = s0\n  2639: u64 [sp + 0x88] = s1\n  2643: s0 = sp + 0xa0\n  2647: sp = sp & 0xffffffffffffffe0\n  2650: u64 [sp + 56] = 0\n  2653: u64 [sp + 48] = 0\n  2656: u64 [sp + 40] = 0\n  2659: u64 [sp + 32] = 0\n  2662: i32 a0 = sp + 0x20\n  2665: ecalli 16 // 'value_transferred'\n  2667: jump @508\n      : @92 [@dyn 28] (gas: 14)\n  2670: ra = 0x3a\n  2673: sp = sp + 0xfffffffffffffd20\n  2677: u64 [sp + 0x2d8] = ra\n  2681: u64 [sp + 0x2d0] = s0\n  2685: u64 [sp + 0x2c8] = s1\n  2689: s0 = sp + 0x2e0\n  2693: sp = sp & 0xffffffffffffffe0\n  2696: u64 [sp + 664] = 0\n  2700: u64 [sp + 656] = 0\n  2704: u64 [sp + 648] = 0\n  2708: u64 [sp + 640] = 0\n  2712: i32 a0 = sp + 0x280\n  2716: ecalli 16 // 'value_transferred'\n  2718: jump @290\n      : @93 [@dyn 29] (gas: 1)\n  2721: ra = 60, jump @217\n      : @94 [@dyn 30] (gas: 2)\n  2726: a1 = i32 [s1]\n  2728: fallthrough\n      : @95 (gas: 1)\n  2729: jump @97 if a1 == 0\n      : @96 (gas: 7)\n  2732: ra = 0x3e\n  2735: sp = sp + 0xfffffffffffffff8\n  2738: u64 [sp] = ra\n  2740: a0 = 0\n  2742: a1 = 0\n  2744: ra = 0x8e\n  2748: jump @0\n      : @97 [@dyn 31] (gas: 2)\n  2751: a0 = 0\n  2753: ra = 64, jump @0\n      : @98 [@dyn 32] (gas: 7)\n  2758: i32 a1 = a0 + 0\n  2760: a0 = 0\n  2762: a2 = 0\n  2764: ecalli 13 // 'seal_return'\n  2766: i32 a0 = a0 + 0\n  2768: ra = 0x40\n  2771: jump @0\n      : @99 (gas: 3)\n  2774: i32 a0 = a0 + 0\n  2776: ra = 0x40\n  2779: jump @0\n      : @100 (gas: 3)\n  2782: a0 = 0\n  2784: a1 = 0\n  2786: ra = 66, jump @0\n      : @101 [@dyn 33] (gas: 6)\n  2791: i32 a1 = a0 + 0\n  2793: a0 = 0x1\n  2796: a2 = 0\n  2798: ra = 0x44\n  2801: ecalli 13 // 'seal_return'\n  2803: fallthrough\n      : @102 [@dyn 34] (gas: 7)\n  2804: sp = sp + 0xfffffffffffffff0\n  2807: u64 [sp + 0x8] = ra\n  2810: u64 [sp] = s0\n  2812: s0 = a0\n  2814: a0 = 0x40\n  2817: a1 = 0x20\n  2820: ra = 70, jump @0\n      : @103 [@dyn 35] (gas: 100)\n  2825: a1 = u8 [a0 + 0x1]\n  2828: a2 = u8 [a0]\n  2830: a3 = u8 [a0 + 0x2]\n  2833: a4 = u8 [a0 + 0x3]\n  2836: a1 = a1 << 0x8\n  2839: a1 = a1 | a2\n  2842: a3 = a3 << 0x10\n  2845: a4 = a4 << 0x18\n  2848: a3 = a3 | a4\n  2851: a1 = a1 | a3\n  2854: a2 = u8 [a0 + 0x5]\n  2857: a3 = u8 [a0 + 0x4]\n  2860: a4 = u8 [a0 + 0x6]\n  2863: a5 = u8 [a0 + 0x7]\n  2866: a2 = a2 << 0x8\n  2869: a2 = a2 | a3\n  2872: a4 = a4 << 0x10\n  2875: a5 = a5 << 0x18\n  2878: a4 = a4 | a5\n  2881: a2 = a2 | a4\n  2884: a2 = a2 << 0x20\n  2887: t0 = a2 | a1\n  2890: a2 = u8 [a0 + 0x9]\n  2893: a3 = u8 [a0 + 0x8]\n  2896: a4 = u8 [a0 + 0xa]\n  2899: a5 = u8 [a0 + 0xb]\n  2902: a2 = a2 << 0x8\n  2905: a2 = a2 | a3\n  2908: a4 = a4 << 0x10\n  2911: a5 = a5 << 0x18\n  2914: a4 = a4 | a5\n  2917: a2 = a2 | a4\n  2920: a3 = u8 [a0 + 0xd]\n  2923: a4 = u8 [a0 + 0xc]\n  2926: a5 = u8 [a0 + 0xe]\n  2929: a1 = u8 [a0 + 0xf]\n  2932: a3 = a3 << 0x8\n  2935: a3 = a3 | a4\n  2938: a5 = a5 << 0x10\n  2941: a1 = a1 << 0x18\n  2944: a1 = a1 | a5\n  2947: a1 = a1 | a3\n  2950: a1 = a1 << 0x20\n  2953: t1 = a1 | a2\n  2956: a1 = u8 [a0 + 0x11]\n  2959: a3 = u8 [a0 + 0x10]\n  2962: a4 = u8 [a0 + 0x12]\n  2965: a5 = u8 [a0 + 0x13]\n  2968: a1 = a1 << 0x8\n  2971: a1 = a1 | a3\n  2974: a4 = a4 << 0x10\n  2977: a5 = a5 << 0x18\n  2980: a4 = a4 | a5\n  2983: a1 = a1 | a4\n  2986: a3 = u8 [a0 + 0x15]\n  2989: a4 = u8 [a0 + 0x14]\n  2992: a5 = u8 [a0 + 0x16]\n  2995: a2 = u8 [a0 + 0x17]\n  2998: a3 = a3 << 0x8\n  3001: a3 = a3 | a4\n  3004: a5 = a5 << 0x10\n  3007: a2 = a2 << 0x18\n  3010: a2 = a2 | a5\n  3013: a2 = a2 | a3\n  3016: a2 = a2 << 0x20\n  3019: a3 = a2 | a1\n  3022: a1 = u8 [a0 + 0x19]\n  3025: a2 = u8 [a0 + 0x18]\n  3028: a4 = u8 [a0 + 0x1a]\n  3031: a5 = u8 [a0 + 0x1b]\n  3034: a1 = a1 << 0x8\n  3037: a1 = a1 | a2\n  3040: a4 = a4 << 0x10\n  3043: a5 = a5 << 0x18\n  3046: a4 = a4 | a5\n  3049: a1 = a1 | a4\n  3052: a2 = u8 [a0 + 0x1d]\n  3055: a4 = u8 [a0 + 0x1c]\n  3058: a5 = u8 [a0 + 0x1e]\n  3061: a0 = u8 [a0 + 0x1f]\n  3064: a2 = a2 << 0x8\n  3067: a2 = a2 | a4\n  3070: a5 = a5 << 0x10\n  3073: a0 = a0 << 0x18\n  3076: a0 = a0 | a5\n  3079: a0 = a0 | a2\n  3082: a0 = a0 << 0x20\n  3085: a0 = a0 | a1\n  3088: a0 = reverse a0\n  3090: a1 = reverse a3\n  3092: a2 = reverse t1\n  3094: a3 = reverse t0\n  3096: u64 [s0 + 0x18] = a3\n  3099: u64 [s0 + 0x10] = a2\n  3102: u64 [s0 + 0x8] = a1\n  3105: u64 [s0] = a0\n  3107: ra = u64 [sp + 0x8]\n  3110: s0 = u64 [sp]\n  3112: sp = sp + 0x10\n  3115: ret\n      : @104 (gas: 39)\n  3117: sp = sp + 0xfffffffffffffea0\n  3121: u64 [sp + 0x158] = ra\n  3125: u64 [sp + 0x150] = s0\n  3129: u64 [sp + 0x148] = s1\n  3133: s0 = sp + 0x160\n  3137: sp = sp & 0xffffffffffffffe0\n  3140: u64 [sp + 0x8] = a0\n  3143: a0 = u64 [a2 + 0x18]\n  3146: u64 [sp + 0xb0] = a0\n  3150: a0 = u64 [a2 + 0x10]\n  3153: u64 [sp + 0xa8] = a0\n  3157: a0 = u64 [a2 + 0x8]\n  3160: u64 [sp + 0xa0] = a0\n  3164: a0 = u64 [a2]\n  3166: u64 [sp + 0xb8] = a0\n  3170: a4 = u64 [a1 + 0x18]\n  3173: a3 = u64 [a1 + 0x10]\n  3176: a2 = u64 [a1 + 0x8]\n  3179: a0 = u64 [a1]\n  3181: u64 [sp + 0x18] = a4\n  3184: u64 [sp + 0x118] = a4\n  3188: u64 [sp + 0x20] = a3\n  3191: u64 [sp + 0x110] = a3\n  3195: u64 [sp + 0x68] = a2\n  3198: u64 [sp + 0x108] = a2\n  3202: u64 [sp + 0x70] = a0\n  3205: u64 [sp + 0x100] = a0\n  3209: u64 [sp + 312] = 0\n  3213: u64 [sp + 304] = 0\n  3217: u64 [sp + 296] = 0\n  3221: u64 [sp + 288] = 0\n  3225: u32 [sp + 320] = 0x20\n  3230: i32 a1 = sp + 0x100\n  3234: i32 a3 = sp + 0x120\n  3238: i32 a4 = sp + 0x140\n  3242: a2 = 0xffffffffffffffff\n  3245: a0 = 0\n  3247: ecalli 7 // 'get_storage'\n  3249: fallthrough\n      : @105 (gas: 32)\n  3250: t0 = u64 [sp + 0x130]\n  3254: t1 = u64 [sp + 0x128]\n  3258: t2 = u64 [sp + 0x138]\n  3262: a5 = u64 [sp + 0x120]\n  3266: a0 = t0 << 0x3f\n  3269: a1 = t1 >> 0x1\n  3272: a0 = a0 | a1\n  3275: a1 = t2 << 0x3f\n  3278: a2 = t0 >> 0x1\n  3281: a1 = a1 | a2\n  3284: a2 = t1 << 0x3f\n  3287: a3 = a5 >> 0x1\n  3290: a4 = a3 | a2\n  3293: a2 = t2 >> 0x1\n  3296: u64 [sp + 0x78] = a5\n  3299: a5 = a5 & 0x1\n  3302: a3 = -a5\n  3304: ra = a4 & 0x7f\n  3307: a1 = a1 & a3\n  3310: s1 = a3 & a0\n  3313: a4 = ra if a5 == 0\n  3316: a2 = a2 & a3\n  3319: u64 [sp + 0x58] = a4\n  3322: a0 = a4 <u 0x20\n  3325: u64 [sp + 0x48] = s1\n  3328: a0 = 0 if s1 != 0\n  3330: u64 [sp + 0x50] = a1\n  3333: u64 [sp + 0x40] = a2\n  3336: a1 = a1 | a2\n  3339: a0 = 0 if a1 != 0\n  3341: a1 = a5 <u 0x1\n  3344: jump @124 if a1 != a0\n      : @106 (gas: 17)\n  3348: u64 [sp + 0x98] = a5\n  3352: u64 [sp + 0x10] = ra\n  3355: u64 [sp + 0x80] = t1\n  3359: u64 [sp + 0x88] = t0\n  3363: u64 [sp + 0x90] = t2\n  3367: a0 = u64 [sp + 0xb8]\n  3371: a2 = u64 [sp + 0xa8]\n  3375: a0 = a0 | a2\n  3378: a1 = u64 [sp + 0xb0]\n  3382: a3 = u64 [sp + 0xa0]\n  3386: a1 = a1 | a3\n  3389: a0 = a0 | a1\n  3392: a0 = a0 >> 0x20\n  3395: a1 = a1 | a2\n  3398: a1 = a1 << 0x20\n  3401: a0 = a0 | a1\n  3404: jump @123 if a0 != 0\n      : @107 (gas: 4)\n  3408: s1 = u64 [sp + 0xb8]\n  3412: i32 a0 = s1 + 0\n  3414: a1 = 0x20\n  3417: ra = 72, jump @0\n      : @108 [@dyn 36] (gas: 85)\n  3422: a1 = u64 [sp + 0x40]\n  3425: a1 = reverse a1\n  3427: a2 = u64 [sp + 0x58]\n  3430: a2 = reverse a2\n  3432: a3 = a2 >> 0x38\n  3435: u8 [a0 + 0x1f] = a3\n  3438: a3 = a2 >> 0x30\n  3441: u8 [a0 + 0x1e] = a3\n  3444: a3 = a2 >> 0x28\n  3447: u8 [a0 + 0x1d] = a3\n  3450: a3 = a2 >> 0x20\n  3453: u8 [a0 + 0x1c] = a3\n  3456: a3 = a2 >> 0x18\n  3459: u8 [a0 + 0x1b] = a3\n  3462: a3 = a2 >> 0x10\n  3465: u8 [a0 + 0x1a] = a3\n  3468: a3 = a2 >> 0x8\n  3471: u8 [a0 + 0x19] = a3\n  3474: a3 = u64 [sp + 0x48]\n  3477: a3 = reverse a3\n  3479: u8 [a0 + 0x18] = a2\n  3482: a2 = a3 >> 0x38\n  3485: u8 [a0 + 0x17] = a2\n  3488: a2 = a3 >> 0x30\n  3491: u8 [a0 + 0x16] = a2\n  3494: a2 = a3 >> 0x28\n  3497: u8 [a0 + 0x15] = a2\n  3500: a2 = a3 >> 0x20\n  3503: u8 [a0 + 0x14] = a2\n  3506: a2 = a3 >> 0x18\n  3509: u8 [a0 + 0x13] = a2\n  3512: a2 = a3 >> 0x10\n  3515: u8 [a0 + 0x12] = a2\n  3518: a2 = u64 [sp + 0x50]\n  3521: a2 = reverse a2\n  3523: u8 [a0 + 0x10] = a3\n  3526: a3 = a3 >> 0x8\n  3529: u8 [a0 + 0x11] = a3\n  3532: u8 [a0 + 0x8] = a2\n  3535: a3 = a2 >> 0x38\n  3538: u8 [a0 + 0xf] = a3\n  3541: a3 = a2 >> 0x30\n  3544: u8 [a0 + 0xe] = a3\n  3547: a3 = a2 >> 0x28\n  3550: u8 [a0 + 0xd] = a3\n  3553: a3 = a2 >> 0x20\n  3556: u8 [a0 + 0xc] = a3\n  3559: a3 = a2 >> 0x18\n  3562: u8 [a0 + 0xb] = a3\n  3565: a3 = a2 >> 0x10\n  3568: u8 [a0 + 0xa] = a3\n  3571: a2 = a2 >> 0x8\n  3574: u8 [a0 + 0x9] = a2\n  3577: u8 [a0] = a1\n  3579: a2 = a1 >> 0x38\n  3582: u8 [a0 + 0x7] = a2\n  3585: a2 = a1 >> 0x30\n  3588: u8 [a0 + 0x6] = a2\n  3591: a2 = a1 >> 0x28\n  3594: u8 [a0 + 0x5] = a2\n  3597: a2 = a1 >> 0x20\n  3600: u8 [a0 + 0x4] = a2\n  3603: a2 = a1 >> 0x18\n  3606: u8 [a0 + 0x3] = a2\n  3609: a2 = a1 >> 0x10\n  3612: u8 [a0 + 0x2] = a2\n  3615: a1 = a1 >> 0x8\n  3618: u8 [a0 + 0x1] = a1\n  3621: a0 = s1 + 0x20\n  3624: u64 [sp + 0x60] = a0\n  3627: a0 = a0 <u s1\n  3630: a3 = u64 [sp + 0xa0]\n  3634: a1 = a3 + a0\n  3637: u64 [sp + 0x28] = a1\n  3640: a1 = a1 <u a3\n  3643: a1 = a0 if a0 == 0\n  3646: a0 = u64 [sp + 0xa8]\n  3650: a1 = a1 + a0\n  3653: u64 [sp + 0x30] = a1\n  3656: a0 = a1 <u a0\n  3659: a1 = u64 [sp + 0xb0]\n  3663: a0 = a0 + a1\n  3666: u64 [sp + 0x38] = a0\n  3669: a0 = u64 [sp + 0x98]\n  3673: jump @112 if a0 != 0\n      : @109 (gas: 9)\n  3677: a0 = u64 [sp + 0xb0]\n  3681: a1 = u64 [sp + 0xa8]\n  3685: a0 = a0 | a1\n  3688: a1 = 0xffffffe0\n  3698: a2 = u64 [sp + 0xb8]\n  3702: a1 = a2 <u a1\n  3705: a1 = 0 if a3 != 0\n  3707: a1 = 0 if a0 != 0\n  3709: jump @123 if a1 == 0\n      : @110 (gas: 5)\n  3713: a0 = u64 [sp + 0x78]\n  3716: s1 = a0 & 0xffffffffffffff00\n  3720: a0 = i32 [sp + 0x60]\n  3723: a1 = 0x20\n  3726: ra = 74, jump @0\n      : @111 [@dyn 37] (gas: 73)\n  3731: t0 = 0\n  3733: t1 = 0\n  3735: u64 [sp + 176] = 0\n  3739: a3 = reverse s1\n  3741: a4 = a3 >> 0x30\n  3744: u8 [a0 + 0x1e] = a4\n  3747: a4 = a3 >> 0x28\n  3750: u8 [a0 + 0x1d] = a4\n  3753: a4 = a3 >> 0x20\n  3756: u8 [a0 + 0x1c] = a4\n  3759: a4 = a3 >> 0x18\n  3762: u8 [a0 + 0x1b] = a4\n  3765: a4 = a3 >> 0x10\n  3768: u8 [a0 + 0x1a] = a4\n  3771: a1 = u64 [sp + 0x80]\n  3775: a4 = reverse a1\n  3777: u8 [a0 + 0x18] = a3\n  3780: a3 = a3 >> 0x8\n  3783: u8 [a0 + 0x19] = a3\n  3786: a3 = a4 >> 0x38\n  3789: u8 [a0 + 0x17] = a3\n  3792: a3 = a4 >> 0x30\n  3795: u8 [a0 + 0x16] = a3\n  3798: a3 = a4 >> 0x28\n  3801: u8 [a0 + 0x15] = a3\n  3804: a3 = a4 >> 0x20\n  3807: u8 [a0 + 0x14] = a3\n  3810: a3 = a4 >> 0x18\n  3813: u8 [a0 + 0x13] = a3\n  3816: a3 = a4 >> 0x10\n  3819: u8 [a0 + 0x12] = a3\n  3822: a1 = u64 [sp + 0x88]\n  3826: a3 = reverse a1\n  3828: u8 [a0 + 0x10] = a4\n  3831: a4 = a4 >> 0x8\n  3834: u8 [a0 + 0x11] = a4\n  3837: a4 = a3 >> 0x38\n  3840: u8 [a0 + 0xf] = a4\n  3843: a4 = a3 >> 0x30\n  3846: u8 [a0 + 0xe] = a4\n  3849: a4 = a3 >> 0x28\n  3852: u8 [a0 + 0xd] = a4\n  3855: a4 = a3 >> 0x20\n  3858: u8 [a0 + 0xc] = a4\n  3861: a4 = a3 >> 0x18\n  3864: u8 [a0 + 0xb] = a4\n  3867: a4 = a3 >> 0x10\n  3870: u8 [a0 + 0xa] = a4\n  3873: a1 = u64 [sp + 0x90]\n  3877: a4 = reverse a1\n  3879: u8 [a0 + 31] = 0\n  3882: u8 [a0 + 0x8] = a3\n  3885: a3 = a3 >> 0x8\n  3888: u8 [a0 + 0x9] = a3\n  3891: u8 [a0] = a4\n  3893: a3 = a4 >> 0x38\n  3896: u8 [a0 + 0x7] = a3\n  3899: a3 = a4 >> 0x30\n  3902: u8 [a0 + 0x6] = a3\n  3905: a3 = a4 >> 0x28\n  3908: u8 [a0 + 0x5] = a3\n  3911: a3 = a4 >> 0x20\n  3914: u8 [a0 + 0x4] = a3\n  3917: a3 = a4 >> 0x18\n  3920: u8 [a0 + 0x3] = a3\n  3923: a3 = a4 >> 0x10\n  3926: u8 [a0 + 0x2] = a3\n  3929: a4 = a4 >> 0x8\n  3932: u8 [a0 + 0x1] = a4\n  3935: a0 = u64 [sp + 0x10]\n  3938: a0 = a0 >u 0\n  3940: ra = a0 << 0x5\n  3943: jump @122\n      : @112 (gas: 3)\n  3946: a1 = 0x20\n  3949: a0 = 0\n  3951: ra = 76, jump @0\n      : @113 [@dyn 38] (gas: 71)\n  3956: a1 = u64 [sp + 0x18]\n  3959: a1 = reverse a1\n  3961: a2 = u64 [sp + 0x20]\n  3964: a2 = reverse a2\n  3966: a3 = u64 [sp + 0x68]\n  3969: a3 = reverse a3\n  3971: a4 = u64 [sp + 0x70]\n  3974: a4 = reverse a4\n  3976: a5 = a4 >> 0x38\n  3979: u8 [a0 + 0x1f] = a5\n  3982: a5 = a4 >> 0x30\n  3985: u8 [a0 + 0x1e] = a5\n  3988: a5 = a4 >> 0x28\n  3991: u8 [a0 + 0x1d] = a5\n  3994: a5 = a4 >> 0x20\n  3997: u8 [a0 + 0x1c] = a5\n  4000: a5 = a4 >> 0x18\n  4003: u8 [a0 + 0x1b] = a5\n  4006: a5 = a4 >> 0x10\n  4009: u8 [a0 + 0x1a] = a5\n  4012: a5 = a4 >> 0x8\n  4015: u8 [a0 + 0x19] = a5\n  4018: u8 [a0 + 0x18] = a4\n  4021: u8 [a0 + 0x10] = a3\n  4024: a4 = a3 >> 0x38\n  4027: u8 [a0 + 0x17] = a4\n  4030: a4 = a3 >> 0x30\n  4033: u8 [a0 + 0x16] = a4\n  4036: a4 = a3 >> 0x28\n  4039: u8 [a0 + 0x15] = a4\n  4042: a4 = a3 >> 0x20\n  4045: u8 [a0 + 0x14] = a4\n  4048: a4 = a3 >> 0x18\n  4051: u8 [a0 + 0x13] = a4\n  4054: a4 = a3 >> 0x10\n  4057: u8 [a0 + 0x12] = a4\n  4060: a3 = a3 >> 0x8\n  4063: u8 [a0 + 0x11] = a3\n  4066: u8 [a0 + 0x8] = a2\n  4069: a3 = a2 >> 0x38\n  4072: u8 [a0 + 0xf] = a3\n  4075: a3 = a2 >> 0x30\n  4078: u8 [a0 + 0xe] = a3\n  4081: a3 = a2 >> 0x28\n  4084: u8 [a0 + 0xd] = a3\n  4087: a3 = a2 >> 0x20\n  4090: u8 [a0 + 0xc] = a3\n  4093: a3 = a2 >> 0x18\n  4096: u8 [a0 + 0xb] = a3\n  4099: a3 = a2 >> 0x10\n  4102: u8 [a0 + 0xa] = a3\n  4105: a2 = a2 >> 0x8\n  4108: u8 [a0 + 0x9] = a2\n  4111: u8 [a0] = a1\n  4113: a2 = a1 >> 0x38\n  4116: u8 [a0 + 0x7] = a2\n  4119: a2 = a1 >> 0x30\n  4122: u8 [a0 + 0x6] = a2\n  4125: a2 = a1 >> 0x28\n  4128: u8 [a0 + 0x5] = a2\n  4131: a2 = a1 >> 0x20\n  4134: u8 [a0 + 0x4] = a2\n  4137: a2 = a1 >> 0x18\n  4140: u8 [a0 + 0x3] = a2\n  4143: a2 = a1 >> 0x10\n  4146: u8 [a0 + 0x2] = a2\n  4149: a1 = a1 >> 0x8\n  4152: u8 [a0 + 0x1] = a1\n  4155: a1 = 0x20\n  4158: a0 = 0\n  4160: ra = 78, jump @0\n      : @114 [@dyn 39] (gas: 5)\n  4165: i32 a0 = a0 + 0\n  4167: i32 a2 = sp + 0x120\n  4171: a1 = 0x20\n  4174: ecalli 8 // 'hash_keccak_256'\n  4176: fallthrough\n      : @115 (gas: 9)\n  4177: a0 = u64 [sp + 0x78]\n  4180: a0 = a0 <u 0x2\n  4183: a1 = u64 [sp + 0x80]\n  4187: a0 = 0 if a1 != 0\n  4189: a1 = u64 [sp + 0x90]\n  4193: a2 = u64 [sp + 0x88]\n  4197: a1 = a1 | a2\n  4200: a0 = 0 if a1 != 0\n  4202: jump @117 if a0 == 0\n      : @116 (gas: 5)\n  4205: ra = 0\n  4207: t0 = 0\n  4209: t1 = 0\n  4211: u64 [sp + 176] = 0\n  4215: jump @122\n      : @117 (gas: 19)\n  4218: u64 [sp + 168] = 0\n  4222: u64 [sp + 160] = 0\n  4226: s1 = 0\n  4228: u64 [sp + 176] = 0\n  4232: a0 = u64 [sp + 0x120]\n  4236: a1 = u64 [sp + 0x128]\n  4240: a2 = u64 [sp + 0x130]\n  4244: a3 = u64 [sp + 0x138]\n  4248: a0 = reverse a0\n  4250: a5 = reverse a1\n  4252: a1 = reverse a2\n  4254: t2 = reverse a3\n  4256: i32 a3 = sp + 0x100\n  4260: u64 [sp + 0x20] = a3\n  4263: i32 a3 = sp + 0x120\n  4267: u64 [sp + 0x18] = a3\n  4270: i32 a3 = sp + 0x140\n  4274: u64 [sp + 0x10] = a3\n  4277: fallthrough\n      : @118 (gas: 20)\n  4278: u64 [sp + 0x88] = a5\n  4282: u64 [sp + 0x110] = a5\n  4286: u64 [sp + 0xb8] = a1\n  4290: u64 [sp + 0x108] = a1\n  4294: u64 [sp + 0x90] = t2\n  4298: u64 [sp + 0x100] = t2\n  4302: u64 [sp + 0x98] = a0\n  4306: u64 [sp + 0x118] = a0\n  4310: u64 [sp + 312] = 0\n  4314: u64 [sp + 304] = 0\n  4318: u64 [sp + 296] = 0\n  4322: u64 [sp + 288] = 0\n  4326: u32 [sp + 320] = 0x20\n  4331: a2 = 0xffffffffffffffff\n  4334: a0 = 0\n  4336: a1 = u64 [sp + 0x20]\n  4339: a3 = u64 [sp + 0x18]\n  4342: a4 = u64 [sp + 0x10]\n  4345: ecalli 7 // 'get_storage'\n  4347: fallthrough\n      : @119 (gas: 30)\n  4348: a0 = u64 [sp + 0x60]\n  4351: a1 = u64 [sp + 0xa8]\n  4355: a0 = a0 + a1\n  4358: a1 = a0 <u a1\n  4361: a2 = u64 [sp + 0x28]\n  4364: a4 = u64 [sp + 0xa0]\n  4368: a2 = a2 + a4\n  4371: a2 = a2 + a1\n  4374: a3 = a2 ^ a4\n  4377: a4 = a2 <u a4\n  4380: a4 = a1 if a3 == 0\n  4383: a1 = u64 [sp + 0x30]\n  4386: a1 = a1 + s1\n  4389: u64 [sp + 0x80] = s1\n  4393: a3 = a1 <u s1\n  4396: a5 = u64 [sp + 0x38]\n  4399: s1 = u64 [sp + 0xb0]\n  4403: a5 = a5 + s1\n  4406: a3 = a3 + a5\n  4409: a4 = a4 + a1\n  4412: a1 = a4 <u a1\n  4415: a1 = a1 + a3\n  4418: a1 = a1 | a2\n  4421: a2 = a0 | a4\n  4424: a2 = a2 | a1\n  4427: a1 = a1 | a4\n  4430: a2 = a2 >> 0x20\n  4433: a1 = a1 << 0x20\n  4436: a1 = a1 | a2\n  4439: jump @123 if a1 != 0\n      : @120 (gas: 10)\n  4443: a1 = u64 [sp + 0x138]\n  4447: u64 [sp + 0x70] = a1\n  4450: a1 = u64 [sp + 0x130]\n  4454: u64 [sp + 0x78] = a1\n  4457: a1 = u64 [sp + 0x128]\n  4461: u64 [sp + 0x68] = a1\n  4464: s1 = u64 [sp + 0x120]\n  4468: i32 a0 = a0 + 0\n  4470: a1 = 0x20\n  4473: ra = 80, jump @0\n      : @121 [@dyn 40] (gas: 115)\n  4478: a1 = reverse s1\n  4480: a2 = a1 >> 0x38\n  4483: u8 [a0 + 0x1f] = a2\n  4486: a2 = a1 >> 0x30\n  4489: u8 [a0 + 0x1e] = a2\n  4492: a2 = a1 >> 0x28\n  4495: u8 [a0 + 0x1d] = a2\n  4498: a2 = a1 >> 0x20\n  4501: u8 [a0 + 0x1c] = a2\n  4504: a2 = a1 >> 0x18\n  4507: u8 [a0 + 0x1b] = a2\n  4510: a2 = a1 >> 0x10\n  4513: u8 [a0 + 0x1a] = a2\n  4516: a2 = a1 >> 0x8\n  4519: u8 [a0 + 0x19] = a2\n  4522: a2 = u64 [sp + 0x68]\n  4525: a2 = reverse a2\n  4527: u8 [a0 + 0x18] = a1\n  4530: a1 = a2 >> 0x38\n  4533: u8 [a0 + 0x17] = a1\n  4536: a1 = a2 >> 0x30\n  4539: u8 [a0 + 0x16] = a1\n  4542: a1 = a2 >> 0x28\n  4545: u8 [a0 + 0x15] = a1\n  4548: a1 = a2 >> 0x20\n  4551: u8 [a0 + 0x14] = a1\n  4554: a1 = a2 >> 0x18\n  4557: u8 [a0 + 0x13] = a1\n  4560: a1 = a2 >> 0x10\n  4563: u8 [a0 + 0x12] = a1\n  4566: a1 = u64 [sp + 0x70]\n  4569: a1 = reverse a1\n  4571: a3 = u64 [sp + 0x78]\n  4574: a3 = reverse a3\n  4576: u8 [a0 + 0x10] = a2\n  4579: a2 = a2 >> 0x8\n  4582: u8 [a0 + 0x11] = a2\n  4585: u8 [a0 + 0x8] = a3\n  4588: a2 = a3 >> 0x38\n  4591: u8 [a0 + 0xf] = a2\n  4594: a2 = a3 >> 0x30\n  4597: u8 [a0 + 0xe] = a2\n  4600: a2 = a3 >> 0x28\n  4603: u8 [a0 + 0xd] = a2\n  4606: a2 = a3 >> 0x20\n  4609: u8 [a0 + 0xc] = a2\n  4612: a2 = a3 >> 0x18\n  4615: u8 [a0 + 0xb] = a2\n  4618: a2 = a3 >> 0x10\n  4621: u8 [a0 + 0xa] = a2\n  4624: a3 = a3 >> 0x8\n  4627: u8 [a0 + 0x9] = a3\n  4630: u8 [a0] = a1\n  4632: a2 = a1 >> 0x38\n  4635: u8 [a0 + 0x7] = a2\n  4638: a2 = a1 >> 0x30\n  4641: u8 [a0 + 0x6] = a2\n  4644: a2 = a1 >> 0x28\n  4647: u8 [a0 + 0x5] = a2\n  4650: a2 = a1 >> 0x20\n  4653: u8 [a0 + 0x4] = a2\n  4656: a2 = a1 >> 0x18\n  4659: u8 [a0 + 0x3] = a2\n  4662: a2 = a1 >> 0x10\n  4665: u8 [a0 + 0x2] = a2\n  4668: a1 = a1 >> 0x8\n  4671: u8 [a0 + 0x1] = a1\n  4674: t2 = u64 [sp + 0x90]\n  4678: t2 = t2 + 0x1\n  4681: a0 = t2 <u 0x1\n  4684: a1 = u64 [sp + 0xb8]\n  4688: a1 = a1 + a0\n  4691: u64 [sp + 0xb8] = a1\n  4695: a0 = u64 [sp + 0xa8]\n  4699: ra = a0 + 0x20\n  4702: a2 = ra <u a0\n  4705: a0 = u64 [sp + 0xa0]\n  4709: t0 = a0 + a2\n  4712: a3 = t0 <u a0\n  4715: a3 = a2 if a2 == 0\n  4718: a0 = u64 [sp + 0x80]\n  4722: t1 = a0 + a3\n  4725: a3 = t1 <u a0\n  4728: a5 = u64 [sp + 0xb0]\n  4732: a5 = a5 + a3\n  4735: a1 = u64 [sp + 0x50]\n  4738: a0 = t1 <u a1\n  4741: u64 [sp + 0xa8] = a0\n  4745: a2 = u64 [sp + 0x58]\n  4748: a4 = ra <u a2\n  4751: a2 = u64 [sp + 0x48]\n  4754: s1 = t0 ^ a2\n  4757: a3 = t0 <u a2\n  4760: a3 = a4 if s1 == 0\n  4763: a2 = u64 [sp + 0x40]\n  4766: a0 = a5 ^ a2\n  4769: u64 [sp + 0xb0] = a5\n  4773: s1 = a5 <u a2\n  4776: a2 = u64 [sp + 0xa8]\n  4780: s1 = a2 if a0 == 0\n  4783: a4 = t1 ^ a1\n  4786: a1 = u64 [sp + 0xb8]\n  4790: a0 = a0 | a4\n  4793: a5 = t2 | a1\n  4796: a5 = a5 <u 0x1\n  4799: a4 = u64 [sp + 0x88]\n  4803: a5 = a5 + a4\n  4806: a4 = a5 <u a4\n  4809: a3 = s1 if a0 != 0\n  4812: a0 = u64 [sp + 0x98]\n  4816: a0 = a0 + a4\n  4819: u64 [sp + 0xa8] = ra\n  4823: u64 [sp + 0xa0] = t0\n  4827: s1 = t1\n  4829: jump @118 if a3 != 0\n      : @122 (gas: 30)\n  4833: a3 = u64 [sp + 0x60]\n  4836: a3 = a3 + ra\n  4839: a0 = a3 <u ra\n  4842: a4 = u64 [sp + 0x28]\n  4845: a4 = a4 + t0\n  4848: a4 = a4 + a0\n  4851: a5 = a4 ^ t0\n  4854: a1 = a4 <u t0\n  4857: a1 = a0 if a5 == 0\n  4860: a0 = u64 [sp + 0x30]\n  4863: a0 = a0 + t1\n  4866: a1 = a1 + a0\n  4869: a5 = a1 <u a0\n  4872: a0 = a0 <u t1\n  4875: a2 = u64 [sp + 0x38]\n  4878: s1 = u64 [sp + 0xb0]\n  4882: a2 = a2 + s1\n  4885: a0 = a0 + a2\n  4888: a0 = a0 + a5\n  4891: a2 = u64 [sp + 0x8]\n  4894: u64 [a2] = a3\n  4896: u64 [a2 + 0x8] = a4\n  4899: u64 [a2 + 0x10] = a1\n  4902: u64 [a2 + 0x18] = a0\n  4905: sp = s0 + 0xfffffffffffffea0\n  4909: ra = u64 [sp + 0x158]\n  4913: s0 = u64 [sp + 0x150]\n  4917: s1 = u64 [sp + 0x148]\n  4921: sp = sp + 0x160\n  4925: ret\n      : @123 (gas: 1)\n  4927: trap\n      : @124 (gas: 8)\n  4928: u64 [sp + 240] = 0\n  4932: u64 [sp + 232] = 0\n  4936: u64 [sp + 224] = 0\n  4940: a0 = 0x4e487b7100000000\n  4950: a1 = sp + 0xe0\n  4954: u64 [sp + 0xf8] = a0\n  4958: a0 = 0\n  4960: ra = 82, jump @23\n      : @125 [@dyn 41] (gas: 7)\n  4965: u64 [sp + 216] = 0\n  4969: u64 [sp + 208] = 0\n  4973: u64 [sp + 192] = 0x22\n  4978: a0 = 0x4\n  4981: a1 = sp + 0xc0\n  4985: u64 [sp + 200] = 0\n  4989: ra = 84, jump @23\n      : @126 [@dyn 42] (gas: 3)\n  4994: a1 = 0x24\n  4997: a0 = 0\n  4999: ra = 86, jump @0\n      : @127 [@dyn 43] (gas: 6)\n  5004: i32 a1 = a0 + 0\n  5006: a0 = 0x1\n  5009: a2 = 0x24\n  5012: ra = 0x58\n  5015: ecalli 13 // 'seal_return'\n  5017: fallthrough\n      : @128 [@dyn 44] (gas: 27)\n  5018: sp = sp + 0xffffffffffffff80\n  5021: u64 [sp + 0x78] = ra\n  5024: u64 [sp + 0x70] = s0\n  5027: u64 [sp + 0x68] = s1\n  5030: s0 = sp + 0x80\n  5034: sp = sp & 0xfffffffffffffff0\n  5037: t0 = u64 [a1]\n  5039: t1 = u64 [a1 + 0x8]\n  5042: t2 = u64 [a1 + 0x10]\n  5045: a1 = u64 [a1 + 0x18]\n  5048: a3 = u64 [a2]\n  5050: a4 = u64 [a2 + 0x8]\n  5053: a5 = u64 [a2 + 0x10]\n  5056: a2 = u64 [a2 + 0x18]\n  5059: s1 = a0\n  5061: u64 [sp + 0x18] = a2\n  5064: u64 [sp + 0x10] = a5\n  5067: u64 [sp + 0x8] = a4\n  5070: u64 [sp] = a3\n  5072: u64 [sp + 0x38] = a1\n  5075: u64 [sp + 0x30] = t2\n  5078: u64 [sp + 0x28] = t1\n  5081: a0 = sp + 0x40\n  5084: a1 = sp + 0x20\n  5087: a2 = sp\n  5089: u64 [sp + 0x20] = t0\n  5092: ra = 90, jump @104\n      : @129 [@dyn 45] (gas: 14)\n  5097: a0 = u64 [sp + 0x50]\n  5100: a1 = u64 [sp + 0x58]\n  5103: a2 = u64 [sp + 0x40]\n  5106: a3 = u64 [sp + 0x48]\n  5109: u64 [s1 + 0x10] = a0\n  5112: u64 [s1 + 0x18] = a1\n  5115: u64 [s1] = a2\n  5117: u64 [s1 + 0x8] = a3\n  5120: sp = s0 + 0xffffffffffffff80\n  5123: ra = u64 [sp + 0x78]\n  5126: s0 = u64 [sp + 0x70]\n  5129: s1 = u64 [sp + 0x68]\n  5132: sp = sp + 0x80\n  5136: ret\n      : @130 (gas: 18)\n  5138: sp = sp + 0xffffffffffffff00\n  5142: u64 [sp + 0xf8] = ra\n  5146: u64 [sp + 0xf0] = s0\n  5150: u64 [sp + 0xe8] = s1\n  5154: s0 = sp + 0x100\n  5158: sp = sp & 0xfffffffffffffff0\n  5161: a2 = u64 [a1]\n  5163: u64 [sp + 0x20] = a2\n  5166: a2 = u64 [a1 + 0x8]\n  5169: u64 [sp + 0x10] = a2\n  5172: a2 = u64 [a1 + 0x10]\n  5175: u64 [sp + 0x8] = a2\n  5178: a1 = u64 [a1 + 0x18]\n  5181: u64 [sp] = a1\n  5183: u64 [sp + 0x18] = a0\n  5186: a0 = 0x40\n  5189: a1 = 0x20\n  5192: ra = 92, jump @0\n      : @131 [@dyn 46] (gas: 111)\n  5197: a1 = u8 [a0 + 0x1]\n  5200: a2 = u8 [a0]\n  5202: a3 = u8 [a0 + 0x2]\n  5205: a4 = u8 [a0 + 0x3]\n  5208: a1 = a1 << 0x8\n  5211: a1 = a1 | a2\n  5214: a3 = a3 << 0x10\n  5217: a4 = a4 << 0x18\n  5220: a3 = a3 | a4\n  5223: a1 = a1 | a3\n  5226: a2 = u8 [a0 + 0x5]\n  5229: a3 = u8 [a0 + 0x4]\n  5232: a4 = u8 [a0 + 0x6]\n  5235: a5 = u8 [a0 + 0x7]\n  5238: a2 = a2 << 0x8\n  5241: a2 = a2 | a3\n  5244: a4 = a4 << 0x10\n  5247: a5 = a5 << 0x18\n  5250: a4 = a4 | a5\n  5253: a2 = a2 | a4\n  5256: a2 = a2 << 0x20\n  5259: t0 = a2 | a1\n  5262: a2 = u8 [a0 + 0x9]\n  5265: a3 = u8 [a0 + 0x8]\n  5268: a4 = u8 [a0 + 0xa]\n  5271: a5 = u8 [a0 + 0xb]\n  5274: a2 = a2 << 0x8\n  5277: a2 = a2 | a3\n  5280: a4 = a4 << 0x10\n  5283: a5 = a5 << 0x18\n  5286: a4 = a4 | a5\n  5289: a2 = a2 | a4\n  5292: a3 = u8 [a0 + 0xd]\n  5295: a4 = u8 [a0 + 0xc]\n  5298: a5 = u8 [a0 + 0xe]\n  5301: s1 = u8 [a0 + 0xf]\n  5304: a3 = a3 << 0x8\n  5307: a3 = a3 | a4\n  5310: a5 = a5 << 0x10\n  5313: s1 = s1 << 0x18\n  5316: a5 = a5 | s1\n  5319: a3 = a3 | a5\n  5322: a3 = a3 << 0x20\n  5325: a2 = a2 | a3\n  5328: a3 = u8 [a0 + 0x11]\n  5331: a4 = u8 [a0 + 0x10]\n  5334: a5 = u8 [a0 + 0x12]\n  5337: s1 = u8 [a0 + 0x13]\n  5340: a3 = a3 << 0x8\n  5343: a3 = a3 | a4\n  5346: a5 = a5 << 0x10\n  5349: s1 = s1 << 0x18\n  5352: a5 = a5 | s1\n  5355: a3 = a3 | a5\n  5358: a4 = u8 [a0 + 0x15]\n  5361: a5 = u8 [a0 + 0x14]\n  5364: s1 = u8 [a0 + 0x16]\n  5367: a1 = u8 [a0 + 0x17]\n  5370: a4 = a4 << 0x8\n  5373: a4 = a4 | a5\n  5376: s1 = s1 << 0x10\n  5379: a1 = a1 << 0x18\n  5382: a1 = a1 | s1\n  5385: a1 = a1 | a4\n  5388: a1 = a1 << 0x20\n  5391: a3 = a3 | a1\n  5394: a1 = u8 [a0 + 0x19]\n  5397: a4 = u8 [a0 + 0x18]\n  5400: a5 = u8 [a0 + 0x1a]\n  5403: s1 = u8 [a0 + 0x1b]\n  5406: a1 = a1 << 0x8\n  5409: a1 = a1 | a4\n  5412: a5 = a5 << 0x10\n  5415: s1 = s1 << 0x18\n  5418: a5 = a5 | s1\n  5421: a1 = a1 | a5\n  5424: a4 = u8 [a0 + 0x1d]\n  5427: a5 = u8 [a0 + 0x1c]\n  5430: s1 = u8 [a0 + 0x1e]\n  5433: a0 = u8 [a0 + 0x1f]\n  5436: a4 = a4 << 0x8\n  5439: a4 = a4 | a5\n  5442: s1 = s1 << 0x10\n  5445: a0 = a0 << 0x18\n  5448: a0 = a0 | s1\n  5451: a0 = a0 | a4\n  5454: a0 = a0 << 0x20\n  5457: a0 = a0 | a1\n  5460: a4 = reverse a0\n  5462: u64 [sp + 0x38] = a4\n  5465: s1 = reverse a3\n  5467: a2 = reverse a2\n  5469: u64 [sp + 0x30] = a2\n  5472: a1 = reverse t0\n  5474: u64 [sp + 0x28] = a1\n  5477: a0 = u64 [sp]\n  5479: u64 [sp + 0xb8] = a0\n  5483: a0 = u64 [sp + 0x8]\n  5486: u64 [sp + 0xb0] = a0\n  5490: a0 = u64 [sp + 0x10]\n  5493: u64 [sp + 0xa8] = a0\n  5497: a0 = u64 [sp + 0x20]\n  5500: u64 [sp + 0xa0] = a0\n  5504: u64 [sp + 0x98] = a1\n  5508: u64 [sp + 0x90] = a2\n  5512: u64 [sp + 0x88] = s1\n  5516: a0 = sp + 0xc0\n  5520: a1 = sp + 0xa0\n  5524: a2 = sp + 0x80\n  5528: u64 [sp + 0x80] = a4\n  5532: ra = 94, jump @104\n      : @132 [@dyn 47] (gas: 58)\n  5537: t2 = s1\n  5539: a3 = u64 [sp + 0xc8]\n  5543: a0 = u64 [sp + 0xd8]\n  5547: u64 [sp + 0x10] = a0\n  5550: a4 = u64 [sp + 0xc0]\n  5554: t1 = u64 [sp + 0xd0]\n  5558: a5 = a3 ^ s1\n  5561: a1 = a3 <u s1\n  5564: a2 = u64 [sp + 0x38]\n  5567: s1 = a4 <u a2\n  5570: a1 = s1 if a5 == 0\n  5573: a3 = a3 - t2\n  5576: a3 = a3 - s1\n  5579: u64 [sp + 0x8] = a3\n  5582: a4 = a4 - a2\n  5585: a5 = a4 + 0x1f\n  5588: a4 = a5 <u a4\n  5591: a3 = a3 + a4\n  5594: a5 = a5 & 0xffffffffffffffe0\n  5597: a0 = a3 + t2\n  5600: a2 = a2 + a5\n  5603: u64 [sp + 0x20] = a2\n  5606: a5 = a2 <u a5\n  5609: t0 = a0 + a5\n  5612: a0 = t0 ^ a3\n  5615: a2 = t0 <u a3\n  5618: a2 = a5 if a0 == 0\n  5621: s1 = u64 [sp + 0x30]\n  5624: a0 = t1 - s1\n  5627: a5 = t1 <u s1\n  5630: t1 = s1\n  5632: ra = u64 [sp + 0x28]\n  5635: s1 = u64 [sp + 0x10]\n  5638: s1 = s1 - ra\n  5641: s1 = s1 - a5\n  5644: a5 = a0 <u a1\n  5647: s1 = s1 - a5\n  5650: a0 = a0 - a1\n  5653: a1 = u64 [sp + 0x8]\n  5656: a1 = a3 <u a1\n  5659: a1 = a4 if a4 == 0\n  5662: a1 = a1 + a0\n  5665: a0 = a1 <u a0\n  5668: a3 = a1 + t1\n  5671: a5 = a3 + a2\n  5674: a1 = a3 <u a1\n  5677: a2 = a5 <u a3\n  5680: s1 = s1 + ra\n  5683: a0 = a0 + s1\n  5686: a0 = a0 + a1\n  5689: s1 = a0 + a2\n  5692: a0 = s1 >u 0\n  5694: a1 = a5 >u 0\n  5696: a1 = a0 if s1 != 0\n  5699: a0 = a5 | s1\n  5702: a2 = t0 >u 0\n  5704: a2 = a1 if a0 != 0\n  5707: jump @136 if a2 != 0\n      : @133 (gas: 15)\n  5711: a4 = t1\n  5713: a0 = u64 [sp + 0x38]\n  5716: a1 = u64 [sp + 0x20]\n  5719: a0 = a1 <u a0\n  5722: a1 = t0 ^ t2\n  5725: a2 = t0 <u t2\n  5728: a2 = a0 if a1 == 0\n  5731: a0 = a5 <u t1\n  5734: a1 = s1 ^ ra\n  5737: a3 = s1 <u ra\n  5740: a3 = a0 if a1 == 0\n  5743: a0 = a5 ^ t1\n  5746: a0 = a0 | a1\n  5749: a3 = a2 if a0 == 0\n  5752: jump @136 if a3 != 0\n      : @134 (gas: 6)\n  5756: a0 = 0x40\n  5759: a1 = 0x20\n  5762: u64 [sp + 0x10] = t2\n  5765: u64 [sp + 0x8] = t0\n  5768: u64 [sp] = a5\n  5770: ra = 96, jump @0\n      : @135 [@dyn 48] (gas: 82)\n  5775: a1 = reverse s1\n  5777: a2 = u64 [sp]\n  5779: a2 = reverse a2\n  5781: a3 = u64 [sp + 0x8]\n  5784: a3 = reverse a3\n  5786: a4 = u64 [sp + 0x20]\n  5789: a4 = reverse a4\n  5791: u8 [a0 + 0x18] = a4\n  5794: a5 = a4 >> 0x38\n  5797: u8 [a0 + 0x1f] = a5\n  5800: a5 = a4 >> 0x30\n  5803: u8 [a0 + 0x1e] = a5\n  5806: a5 = a4 >> 0x28\n  5809: u8 [a0 + 0x1d] = a5\n  5812: a5 = a4 >> 0x20\n  5815: u8 [a0 + 0x1c] = a5\n  5818: a5 = a4 >> 0x18\n  5821: u8 [a0 + 0x1b] = a5\n  5824: a5 = a4 >> 0x10\n  5827: u8 [a0 + 0x1a] = a5\n  5830: a4 = a4 >> 0x8\n  5833: u8 [a0 + 0x19] = a4\n  5836: u8 [a0 + 0x10] = a3\n  5839: a4 = a3 >> 0x38\n  5842: u8 [a0 + 0x17] = a4\n  5845: a4 = a3 >> 0x30\n  5848: u8 [a0 + 0x16] = a4\n  5851: a4 = a3 >> 0x28\n  5854: u8 [a0 + 0x15] = a4\n  5857: a4 = a3 >> 0x20\n  5860: u8 [a0 + 0x14] = a4\n  5863: a4 = a3 >> 0x18\n  5866: u8 [a0 + 0x13] = a4\n  5869: a4 = a3 >> 0x10\n  5872: u8 [a0 + 0x12] = a4\n  5875: a3 = a3 >> 0x8\n  5878: u8 [a0 + 0x11] = a3\n  5881: u8 [a0 + 0x8] = a2\n  5884: a3 = a2 >> 0x38\n  5887: u8 [a0 + 0xf] = a3\n  5890: a3 = a2 >> 0x30\n  5893: u8 [a0 + 0xe] = a3\n  5896: a3 = a2 >> 0x28\n  5899: u8 [a0 + 0xd] = a3\n  5902: a3 = a2 >> 0x20\n  5905: u8 [a0 + 0xc] = a3\n  5908: a3 = a2 >> 0x18\n  5911: u8 [a0 + 0xb] = a3\n  5914: a3 = a2 >> 0x10\n  5917: u8 [a0 + 0xa] = a3\n  5920: a2 = a2 >> 0x8\n  5923: u8 [a0 + 0x9] = a2\n  5926: u8 [a0] = a1\n  5928: a2 = a1 >> 0x38\n  5931: u8 [a0 + 0x7] = a2\n  5934: a2 = a1 >> 0x30\n  5937: u8 [a0 + 0x6] = a2\n  5940: a2 = a1 >> 0x28\n  5943: u8 [a0 + 0x5] = a2\n  5946: a2 = a1 >> 0x20\n  5949: u8 [a0 + 0x4] = a2\n  5952: a2 = a1 >> 0x18\n  5955: u8 [a0 + 0x3] = a2\n  5958: a2 = a1 >> 0x10\n  5961: u8 [a0 + 0x2] = a2\n  5964: a1 = a1 >> 0x8\n  5967: u8 [a0 + 0x1] = a1\n  5970: a0 = u64 [sp + 0x18]\n  5973: a1 = u64 [sp + 0x38]\n  5976: u64 [a0] = a1\n  5978: a1 = u64 [sp + 0x28]\n  5981: u64 [a0 + 0x18] = a1\n  5984: a1 = u64 [sp + 0x10]\n  5987: u64 [a0 + 0x8] = a1\n  5990: a1 = u64 [sp + 0x30]\n  5993: u64 [a0 + 0x10] = a1\n  5996: sp = s0 + 0xffffffffffffff00\n  6000: ra = u64 [sp + 0xf8]\n  6004: s0 = u64 [sp + 0xf0]\n  6008: s1 = u64 [sp + 0xe8]\n  6012: sp = sp + 0x100\n  6016: ret\n      : @136 (gas: 8)\n  6018: u64 [sp + 112] = 0\n  6021: u64 [sp + 104] = 0\n  6024: u64 [sp + 96] = 0\n  6027: a0 = 0x4e487b7100000000\n  6037: a1 = sp + 0x60\n  6040: u64 [sp + 0x78] = a0\n  6043: a0 = 0\n  6045: ra = 98, jump @23\n      : @137 [@dyn 49] (gas: 7)\n  6050: u64 [sp + 88] = 0\n  6053: u64 [sp + 80] = 0\n  6056: u64 [sp + 64] = 0x41\n  6060: a0 = 0x4\n  6063: a1 = sp + 0x40\n  6066: u64 [sp + 72] = 0\n  6069: ra = 100, jump @23\n      : @138 [@dyn 50] (gas: 3)\n  6074: a1 = 0x24\n  6077: a0 = 0\n  6079: ra = 102, jump @0\n      : @139 [@dyn 51] (gas: 6)\n  6084: i32 a1 = a0 + 0\n  6086: a0 = 0x1\n  6089: a2 = 0x24\n  6092: ra = 0x68\n  6095: ecalli 13 // 'seal_return'\n  6097: fallthrough\n      : @140 [@dyn 52] (gas: 17)\n  6098: sp = sp + 0xfffffffffffffe80\n  6102: u64 [sp + 0x178] = ra\n  6106: u64 [sp + 0x170] = s0\n  6110: u64 [sp + 0x168] = s1\n  6114: s0 = sp + 0x180\n  6118: sp = sp & 0xffffffffffffffe0\n  6121: a2 = u64 [a1]\n  6123: u64 [sp + 0x98] = a2\n  6127: a2 = u64 [a1 + 0x8]\n  6130: u64 [sp + 0x90] = a2\n  6134: a2 = u64 [a1 + 0x10]\n  6137: u64 [sp + 0x88] = a2\n  6141: s1 = u64 [a1 + 0x18]\n  6144: u64 [sp + 0x78] = a0\n  6147: a1 = 0x20\n  6150: a0 = 0\n  6152: ra = 106, jump @0\n      : @141 [@dyn 53] (gas: 70)\n  6157: a1 = reverse s1\n  6159: a2 = u64 [sp + 0x88]\n  6163: a2 = reverse a2\n  6165: a3 = u64 [sp + 0x90]\n  6169: a3 = reverse a3\n  6171: a4 = u64 [sp + 0x98]\n  6175: a4 = reverse a4\n  6177: a5 = a4 >> 0x38\n  6180: u8 [a0 + 0x1f] = a5\n  6183: a5 = a4 >> 0x30\n  6186: u8 [a0 + 0x1e] = a5\n  6189: a5 = a4 >> 0x28\n  6192: u8 [a0 + 0x1d] = a5\n  6195: a5 = a4 >> 0x20\n  6198: u8 [a0 + 0x1c] = a5\n  6201: a5 = a4 >> 0x18\n  6204: u8 [a0 + 0x1b] = a5\n  6207: a5 = a4 >> 0x10\n  6210: u8 [a0 + 0x1a] = a5\n  6213: a5 = a4 >> 0x8\n  6216: u8 [a0 + 0x19] = a5\n  6219: u8 [a0 + 0x18] = a4\n  6222: a4 = a3 >> 0x38\n  6225: u8 [a0 + 0x17] = a4\n  6228: a4 = a3 >> 0x30\n  6231: u8 [a0 + 0x16] = a4\n  6234: a4 = a3 >> 0x28\n  6237: u8 [a0 + 0x15] = a4\n  6240: a4 = a3 >> 0x20\n  6243: u8 [a0 + 0x14] = a4\n  6246: a4 = a3 >> 0x18\n  6249: u8 [a0 + 0x13] = a4\n  6252: a4 = a3 >> 0x10\n  6255: u8 [a0 + 0x12] = a4\n  6258: a4 = a3 >> 0x8\n  6261: u8 [a0 + 0x11] = a4\n  6264: u8 [a0 + 0x10] = a3\n  6267: a3 = a2 >> 0x38\n  6270: u8 [a0 + 0xf] = a3\n  6273: a3 = a2 >> 0x30\n  6276: u8 [a0 + 0xe] = a3\n  6279: a3 = a2 >> 0x28\n  6282: u8 [a0 + 0xd] = a3\n  6285: a3 = a2 >> 0x20\n  6288: u8 [a0 + 0xc] = a3\n  6291: a3 = a2 >> 0x18\n  6294: u8 [a0 + 0xb] = a3\n  6297: a3 = a2 >> 0x10\n  6300: u8 [a0 + 0xa] = a3\n  6303: a3 = a2 >> 0x8\n  6306: u8 [a0 + 0x9] = a3\n  6309: u8 [a0 + 0x8] = a2\n  6312: a2 = a1 >> 0x38\n  6315: u8 [a0 + 0x7] = a2\n  6318: a2 = a1 >> 0x30\n  6321: u8 [a0 + 0x6] = a2\n  6324: a2 = a1 >> 0x28\n  6327: u8 [a0 + 0x5] = a2\n  6330: a2 = a1 >> 0x20\n  6333: u8 [a0 + 0x4] = a2\n  6336: a2 = a1 >> 0x18\n  6339: u8 [a0 + 0x3] = a2\n  6342: a2 = a1 >> 0x10\n  6345: u8 [a0 + 0x2] = a2\n  6348: a2 = a1 >> 0x8\n  6351: u8 [a0 + 0x1] = a2\n  6354: u8 [a0] = a1\n  6356: a0 = 0x20\n  6359: a1 = 0x20\n  6362: ra = 108, jump @0\n      : @142 [@dyn 54] (gas: 35)\n  6367: u8 [a0 + 31] = 0\n  6370: u8 [a0 + 30] = 0\n  6373: u8 [a0 + 29] = 0\n  6376: u8 [a0 + 28] = 0\n  6379: u8 [a0 + 27] = 0\n  6382: u8 [a0 + 26] = 0\n  6385: u8 [a0 + 25] = 0\n  6388: u8 [a0 + 24] = 0\n  6391: u8 [a0 + 23] = 0\n  6394: u8 [a0 + 22] = 0\n  6397: u8 [a0 + 21] = 0\n  6400: u8 [a0 + 20] = 0\n  6403: u8 [a0 + 19] = 0\n  6406: u8 [a0 + 18] = 0\n  6409: u8 [a0 + 17] = 0\n  6412: u8 [a0 + 16] = 0\n  6415: u8 [a0 + 15] = 0\n  6418: u8 [a0 + 14] = 0\n  6421: u8 [a0 + 13] = 0\n  6424: u8 [a0 + 12] = 0\n  6427: u8 [a0 + 11] = 0\n  6430: u8 [a0 + 10] = 0\n  6433: u8 [a0 + 9] = 0\n  6436: u8 [a0 + 8] = 0\n  6439: u8 [a0 + 7] = 0\n  6442: u8 [a0 + 6] = 0\n  6445: u8 [a0 + 5] = 0\n  6448: u8 [a0 + 4] = 0\n  6451: u8 [a0 + 3] = 0\n  6454: u8 [a0 + 2] = 0\n  6457: u8 [a0 + 1] = 0\n  6460: u8 [a0 + 0] = 0\n  6462: a1 = 0x40\n  6465: a0 = 0\n  6467: ra = 110, jump @0\n      : @143 [@dyn 55] (gas: 89)\n  6472: i32 a0 = a0 + 0\n  6474: i32 a2 = sp + 0x140\n  6478: a1 = 0x40\n  6481: ecalli 8 // 'hash_keccak_256'\n  6483: a0 = u64 [sp + 0x158]\n  6487: a1 = u64 [sp + 0x150]\n  6491: a2 = u64 [sp + 0x148]\n  6495: a3 = u64 [sp + 0x140]\n  6499: s1 = reverse a0\n  6501: a1 = reverse a1\n  6503: u64 [sp + 0x98] = a1\n  6507: a2 = reverse a2\n  6509: u64 [sp + 0x88] = a2\n  6513: a0 = reverse a3\n  6515: u64 [sp + 0x80] = a0\n  6519: u64 [sp + 0x138] = a0\n  6523: u64 [sp + 0x130] = a2\n  6527: u64 [sp + 0x128] = a1\n  6531: u64 [sp + 0x120] = s1\n  6535: u64 [sp + 0x90] = s1\n  6539: u64 [sp + 344] = 0\n  6543: u64 [sp + 336] = 0\n  6547: u64 [sp + 328] = 0\n  6551: u64 [sp + 320] = 0\n  6555: u32 [sp + 352] = 0x20\n  6560: i32 a1 = sp + 0x120\n  6564: i32 a3 = sp + 0x140\n  6568: i32 a4 = sp + 0x160\n  6572: a2 = 0xffffffffffffffff\n  6575: a0 = 0\n  6577: ecalli 7 // 'get_storage'\n  6579: a0 = s1 + 0x1\n  6582: a1 = a0 <u 0x1\n  6585: a2 = u64 [sp + 0x98]\n  6589: a1 = a1 + a2\n  6592: a2 = a0 | a1\n  6595: a2 = a2 <u 0x1\n  6598: s1 = u64 [sp + 0x88]\n  6602: a2 = a2 + s1\n  6605: a3 = a2 <u s1\n  6608: a4 = u64 [sp + 0x80]\n  6612: a3 = a3 + a4\n  6615: u64 [sp + 0x138] = a3\n  6619: u64 [sp + 0x130] = a2\n  6623: a2 = u64 [sp + 0x140]\n  6627: u64 [sp + 0x70] = a2\n  6630: u64 [sp + 0x128] = a1\n  6634: a1 = u64 [sp + 0x148]\n  6638: u64 [sp + 0x68] = a1\n  6641: u64 [sp + 0x120] = a0\n  6645: a0 = u32 [sp + 0x150]\n  6649: u64 [sp + 0x60] = a0\n  6652: u64 [sp + 344] = 0\n  6656: u64 [sp + 336] = 0\n  6660: u64 [sp + 328] = 0\n  6664: u64 [sp + 320] = 0\n  6668: u32 [sp + 352] = 0x20\n  6673: i32 a1 = sp + 0x120\n  6677: i32 a3 = sp + 0x140\n  6681: i32 a4 = sp + 0x160\n  6685: a2 = 0xffffffffffffffff\n  6688: a0 = 0\n  6690: ecalli 7 // 'get_storage'\n  6692: a0 = u64 [sp + 0x140]\n  6696: u64 [sp + 0x58] = a0\n  6699: a0 = u64 [sp + 0x148]\n  6703: u64 [sp + 0x50] = a0\n  6706: a0 = u64 [sp + 0x150]\n  6710: u64 [sp + 0x48] = a0\n  6713: a0 = u64 [sp + 0x158]\n  6717: u64 [sp + 0x40] = a0\n  6720: a0 = u64 [sp + 0x90]\n  6724: a2 = a0 + 0x2\n  6727: a0 = a2 <u a0\n  6730: a3 = u64 [sp + 0x98]\n  6734: a1 = a3 + a0\n  6737: a3 = a1 <u a3\n  6740: a3 = a0 if a0 == 0\n  6743: a3 = a3 + s1\n  6746: a0 = a3 <u s1\n  6749: s1 = u64 [sp + 0x80]\n  6753: a0 = a0 + s1\n  6756: u64 [sp + 0xf8] = a0\n  6760: u64 [sp + 0xf0] = a3\n  6764: u64 [sp + 0xe8] = a1\n  6768: a0 = sp + 0x100\n  6772: a1 = sp + 0xe0\n  6776: u64 [sp + 0xe0] = a2\n  6780: ra = 112, jump @130\n      : @144 [@dyn 56] (gas: 26)\n  6785: a0 = u64 [sp + 0x100]\n  6789: u64 [sp + 0x38] = a0\n  6792: a0 = u64 [sp + 0x108]\n  6796: u64 [sp + 0x30] = a0\n  6799: a0 = u64 [sp + 0x110]\n  6803: u64 [sp + 0x28] = a0\n  6806: a0 = u64 [sp + 0x118]\n  6810: u64 [sp + 0x20] = a0\n  6813: a0 = u64 [sp + 0x90]\n  6817: a2 = a0 + 0x3\n  6820: a0 = a2 <u a0\n  6823: a3 = u64 [sp + 0x98]\n  6827: a1 = a3 + a0\n  6830: a3 = a1 <u a3\n  6833: a3 = a0 if a0 == 0\n  6836: a0 = u64 [sp + 0x88]\n  6840: a3 = a3 + a0\n  6843: a0 = a3 <u a0\n  6846: a0 = a0 + s1\n  6849: u64 [sp + 0xb8] = a0\n  6853: u64 [sp + 0xb0] = a3\n  6857: u64 [sp + 0xa8] = a1\n  6861: a0 = sp + 0xc0\n  6865: a1 = sp + 0xa0\n  6869: u64 [sp + 0xa0] = a2\n  6873: ra = 114, jump @130\n      : @145 [@dyn 57] (gas: 79)\n  6878: a0 = u64 [sp + 0xc0]\n  6882: u64 [sp + 0x18] = a0\n  6885: a0 = u64 [sp + 0xc8]\n  6889: u64 [sp + 0x10] = a0\n  6892: a0 = u64 [sp + 0xd0]\n  6896: u64 [sp + 0x8] = a0\n  6899: a0 = u64 [sp + 0xd8]\n  6903: u64 [sp] = a0\n  6905: a1 = u64 [sp + 0x90]\n  6909: a0 = a1 + 0x4\n  6912: a1 = a0 <u a1\n  6915: a3 = u64 [sp + 0x98]\n  6919: a2 = a3 + a1\n  6922: a3 = a2 <u a3\n  6925: a3 = a1 if a1 == 0\n  6928: a1 = u64 [sp + 0x88]\n  6932: a3 = a3 + a1\n  6935: a1 = a3 <u a1\n  6938: a1 = a1 + s1\n  6941: u64 [sp + 0x138] = a1\n  6945: u64 [sp + 0x130] = a3\n  6949: u64 [sp + 0x128] = a2\n  6953: u64 [sp + 0x120] = a0\n  6957: u64 [sp + 344] = 0\n  6961: u64 [sp + 336] = 0\n  6965: u64 [sp + 328] = 0\n  6969: u64 [sp + 320] = 0\n  6973: u32 [sp + 352] = 0x20\n  6978: i32 a1 = sp + 0x120\n  6982: i32 a3 = sp + 0x140\n  6986: i32 a4 = sp + 0x160\n  6990: a2 = 0xffffffffffffffff\n  6993: a0 = 0\n  6995: ecalli 7 // 'get_storage'\n  6997: a0 = u32 [sp + 0x150]\n  7001: a1 = u64 [sp + 0x148]\n  7005: a2 = u64 [sp + 0x140]\n  7009: a3 = u64 [sp + 0x78]\n  7012: u64 [a3 + 0x90] = a0\n  7016: u64 [a3 + 0x88] = a1\n  7020: u64 [a3 + 0x80] = a2\n  7024: a0 = u64 [sp]\n  7026: u64 [a3 + 0x78] = a0\n  7029: a0 = u64 [sp + 0x8]\n  7032: u64 [a3 + 0x70] = a0\n  7035: a0 = u64 [sp + 0x10]\n  7038: u64 [a3 + 0x68] = a0\n  7041: a0 = u64 [sp + 0x18]\n  7044: u64 [a3 + 0x60] = a0\n  7047: a0 = u64 [sp + 0x20]\n  7050: u64 [a3 + 0x58] = a0\n  7053: a0 = u64 [sp + 0x28]\n  7056: u64 [a3 + 0x50] = a0\n  7059: a0 = u64 [sp + 0x30]\n  7062: u64 [a3 + 0x48] = a0\n  7065: a0 = u64 [sp + 0x38]\n  7068: u64 [a3 + 0x40] = a0\n  7071: a0 = u64 [sp + 0x40]\n  7074: u64 [a3 + 0x38] = a0\n  7077: a0 = u64 [sp + 0x48]\n  7080: u64 [a3 + 0x30] = a0\n  7083: a0 = u64 [sp + 0x50]\n  7086: u64 [a3 + 0x28] = a0\n  7089: a0 = u64 [sp + 0x58]\n  7092: u64 [a3 + 0x20] = a0\n  7095: a0 = u64 [sp + 0x60]\n  7098: u64 [a3 + 0x10] = a0\n  7101: a0 = u64 [sp + 0x68]\n  7104: u64 [a3 + 0x8] = a0\n  7107: a0 = u64 [sp + 0x70]\n  7110: u64 [a3] = a0\n  7112: u64 [a3 + 152] = 0\n  7116: u64 [a3 + 24] = 0\n  7119: sp = s0 + 0xfffffffffffffe80\n  7123: ra = u64 [sp + 0x178]\n  7127: s0 = u64 [sp + 0x170]\n  7131: s1 = u64 [sp + 0x168]\n  7135: sp = sp + 0x180\n  7139: ret\n      : @146 (gas: 23)\n  7141: sp = sp + 0xfffffffffffffe60\n  7145: u64 [sp + 0x198] = ra\n  7149: u64 [sp + 0x190] = s0\n  7153: u64 [sp + 0x188] = s1\n  7157: s0 = sp + 0x1a0\n  7161: sp = sp & 0xfffffffffffffff0\n  7164: t0 = u64 [a1 + 0x18]\n  7167: t1 = u64 [a1 + 0x10]\n  7170: s1 = u64 [a1 + 0x8]\n  7173: a1 = u64 [a1]\n  7175: u64 [sp + 0xb0] = s1\n  7179: u64 [sp + 0xa0] = t0\n  7183: t0 = s1 | t0\n  7186: u64 [sp + 0xb8] = a1\n  7190: s1 = a1 | t1\n  7193: s1 = s1 | t0\n  7196: s1 = s1 >> 0x20\n  7199: u64 [sp + 0x98] = t1\n  7203: a1 = t0 | t1\n  7206: a1 = a1 << 0x20\n  7209: a1 = a1 | s1\n  7212: u64 [sp + 0x40] = a0\n  7215: jump @159 if a1 != 0\n      : @147 (gas: 42)\n  7219: a0 = u64 [s0]\n  7221: a1 = u64 [a0 + 0x10]\n  7224: u64 [sp + 0x18] = a1\n  7227: a1 = u64 [a0 + 0x8]\n  7230: u64 [sp + 0x10] = a1\n  7233: a0 = u64 [a0]\n  7235: u64 [sp + 0x8] = a0\n  7238: a0 = u64 [a5 + 0x18]\n  7241: u64 [sp + 0x20] = a0\n  7244: a0 = u64 [a5 + 0x10]\n  7247: u64 [sp + 0x28] = a0\n  7250: a0 = u64 [a5 + 0x8]\n  7253: u64 [sp + 0x30] = a0\n  7256: a0 = u64 [a5]\n  7258: u64 [sp + 0x38] = a0\n  7261: a0 = u64 [a4 + 0x18]\n  7264: u64 [sp + 0x48] = a0\n  7267: a0 = u64 [a4 + 0x10]\n  7270: u64 [sp + 0x50] = a0\n  7273: a0 = u64 [a4 + 0x8]\n  7276: u64 [sp + 0x58] = a0\n  7279: a0 = u64 [a4]\n  7281: u64 [sp + 0x60] = a0\n  7284: a0 = u64 [a3 + 0x18]\n  7287: u64 [sp + 0x70] = a0\n  7290: a0 = u64 [a3 + 0x10]\n  7293: u64 [sp + 0x78] = a0\n  7296: a0 = u64 [a3 + 0x8]\n  7299: u64 [sp + 0x80] = a0\n  7303: a0 = u64 [a2 + 0x10]\n  7306: a1 = u64 [a3]\n  7308: u64 [sp + 0x68] = a1\n  7311: a1 = u64 [a2 + 0x8]\n  7314: u64 [sp + 0x88] = a1\n  7318: a1 = u64 [a2]\n  7320: u64 [sp + 0x90] = a1\n  7324: a0 = a0 << 0x20\n  7327: s1 = a0 >> 0x20\n  7330: a0 = i32 [sp + 0xb8]\n  7334: a1 = 0x20\n  7337: u64 [sp + 0xa8] = a0\n  7341: ra = 116, jump @0\n      : @148 [@dyn 58] (gas: 67)\n  7346: a1 = reverse s1\n  7348: a2 = u64 [sp + 0x88]\n  7352: a2 = reverse a2\n  7354: a3 = u64 [sp + 0x90]\n  7358: a3 = reverse a3\n  7360: a4 = a3 >> 0x38\n  7363: u8 [a0 + 0x1f] = a4\n  7366: a4 = a3 >> 0x30\n  7369: u8 [a0 + 0x1e] = a4\n  7372: a4 = a3 >> 0x28\n  7375: u8 [a0 + 0x1d] = a4\n  7378: a4 = a3 >> 0x20\n  7381: u8 [a0 + 0x1c] = a4\n  7384: a4 = a3 >> 0x18\n  7387: u8 [a0 + 0x1b] = a4\n  7390: a4 = a3 >> 0x10\n  7393: u8 [a0 + 0x1a] = a4\n  7396: a4 = a3 >> 0x8\n  7399: u8 [a0 + 0x19] = a4\n  7402: u8 [a0 + 0x18] = a3\n  7405: u8 [a0 + 0x10] = a2\n  7408: u8 [a0 + 11] = 0\n  7411: u8 [a0 + 10] = 0\n  7414: u8 [a0 + 9] = 0\n  7417: u8 [a0 + 7] = 0\n  7420: u8 [a0 + 6] = 0\n  7423: u8 [a0 + 5] = 0\n  7426: u8 [a0 + 4] = 0\n  7429: u8 [a0 + 3] = 0\n  7432: u8 [a0 + 2] = 0\n  7435: u8 [a0 + 1] = 0\n  7438: u8 [a0 + 0] = 0\n  7440: a3 = a2 >> 0x38\n  7443: u8 [a0 + 0x17] = a3\n  7446: a3 = a2 >> 0x30\n  7449: u8 [a0 + 0x16] = a3\n  7452: a3 = a2 >> 0x28\n  7455: u8 [a0 + 0x15] = a3\n  7458: a3 = a2 >> 0x20\n  7461: u8 [a0 + 0x14] = a3\n  7464: a3 = a2 >> 0x18\n  7467: u8 [a0 + 0x13] = a3\n  7470: a3 = a2 >> 0x10\n  7473: u8 [a0 + 0x12] = a3\n  7476: a2 = a2 >> 0x8\n  7479: u8 [a0 + 0x11] = a2\n  7482: u8 [a0 + 0x8] = a1\n  7485: a2 = a1 >> 0x38\n  7488: u8 [a0 + 0xf] = a2\n  7491: a2 = a1 >> 0x30\n  7494: u8 [a0 + 0xe] = a2\n  7497: a2 = a1 >> 0x28\n  7500: u8 [a0 + 0xd] = a2\n  7503: a1 = a1 >> 0x20\n  7506: a2 = u64 [sp + 0xa0]\n  7510: a4 = u64 [sp + 0x98]\n  7514: a4 = a4 | a2\n  7517: s1 = 0x100000000\n  7527: a2 = 0xffffffe0\n  7537: a3 = u64 [sp + 0xb8]\n  7541: a2 = a3 <u a2\n  7544: a3 = u64 [sp + 0xb0]\n  7548: a2 = 0 if a3 != 0\n  7550: u64 [sp + 0x90] = a4\n  7554: a2 = 0 if a4 != 0\n  7556: u8 [a0 + 0xc] = a1\n  7559: jump @159 if a2 == 0\n      : @149 (gas: 4)\n  7563: a0 = u64 [sp + 0xa8]\n  7567: i32 a0 = a0 + 0x20\n  7570: a1 = 0x20\n  7573: ra = 118, jump @0\n      : @150 [@dyn 59] (gas: 76)\n  7578: a1 = u64 [sp + 0x70]\n  7581: a1 = reverse a1\n  7583: a2 = u64 [sp + 0x78]\n  7586: a2 = reverse a2\n  7588: a3 = u64 [sp + 0x80]\n  7592: a3 = reverse a3\n  7594: a4 = u64 [sp + 0x68]\n  7597: a4 = reverse a4\n  7599: a5 = a4 >> 0x38\n  7602: u8 [a0 + 0x1f] = a5\n  7605: a5 = a4 >> 0x30\n  7608: u8 [a0 + 0x1e] = a5\n  7611: a5 = a4 >> 0x28\n  7614: u8 [a0 + 0x1d] = a5\n  7617: a5 = a4 >> 0x20\n  7620: u8 [a0 + 0x1c] = a5\n  7623: a5 = a4 >> 0x18\n  7626: u8 [a0 + 0x1b] = a5\n  7629: a5 = a4 >> 0x10\n  7632: u8 [a0 + 0x1a] = a5\n  7635: a5 = a4 >> 0x8\n  7638: u8 [a0 + 0x19] = a5\n  7641: u8 [a0 + 0x18] = a4\n  7644: u8 [a0 + 0x10] = a3\n  7647: a4 = a3 >> 0x38\n  7650: u8 [a0 + 0x17] = a4\n  7653: a4 = a3 >> 0x30\n  7656: u8 [a0 + 0x16] = a4\n  7659: a4 = a3 >> 0x28\n  7662: u8 [a0 + 0x15] = a4\n  7665: a4 = a3 >> 0x20\n  7668: u8 [a0 + 0x14] = a4\n  7671: a4 = a3 >> 0x18\n  7674: u8 [a0 + 0x13] = a4\n  7677: a4 = a3 >> 0x10\n  7680: u8 [a0 + 0x12] = a4\n  7683: a3 = a3 >> 0x8\n  7686: u8 [a0 + 0x11] = a3\n  7689: u8 [a0 + 0x8] = a2\n  7692: a3 = a2 >> 0x38\n  7695: u8 [a0 + 0xf] = a3\n  7698: a3 = a2 >> 0x30\n  7701: u8 [a0 + 0xe] = a3\n  7704: a3 = a2 >> 0x28\n  7707: u8 [a0 + 0xd] = a3\n  7710: a3 = a2 >> 0x20\n  7713: u8 [a0 + 0xc] = a3\n  7716: a3 = a2 >> 0x18\n  7719: u8 [a0 + 0xb] = a3\n  7722: a3 = a2 >> 0x10\n  7725: u8 [a0 + 0xa] = a3\n  7728: a2 = a2 >> 0x8\n  7731: u8 [a0 + 0x9] = a2\n  7734: u8 [a0] = a1\n  7736: a2 = a1 >> 0x38\n  7739: u8 [a0 + 0x7] = a2\n  7742: a2 = a1 >> 0x30\n  7745: u8 [a0 + 0x6] = a2\n  7748: a2 = a1 >> 0x28\n  7751: u8 [a0 + 0x5] = a2\n  7754: a2 = a1 >> 0x20\n  7757: u8 [a0 + 0x4] = a2\n  7760: a2 = a1 >> 0x18\n  7763: u8 [a0 + 0x3] = a2\n  7766: a2 = a1 >> 0x10\n  7769: u8 [a0 + 0x2] = a2\n  7772: a1 = a1 >> 0x8\n  7775: a2 = s1 + 0xffffffffffffffc0\n  7778: a3 = u64 [sp + 0xb8]\n  7782: a2 = a3 <u a2\n  7785: a3 = u64 [sp + 0xb0]\n  7789: a2 = 0 if a3 != 0\n  7791: a3 = u64 [sp + 0x90]\n  7795: a2 = 0 if a3 != 0\n  7797: u8 [a0 + 0x1] = a1\n  7800: jump @159 if a2 == 0\n      : @151 (gas: 19)\n  7804: a0 = u64 [sp + 0xb8]\n  7808: a1 = a0 + 0xa0\n  7812: u64 [sp + 0x88] = a1\n  7816: a0 = a1 <u a0\n  7819: a1 = u64 [sp + 0xb0]\n  7823: a2 = a1 + a0\n  7826: u64 [sp + 0x80] = a2\n  7830: s1 = a2 <u a1\n  7833: s1 = a0 if a0 == 0\n  7836: a0 = u64 [sp + 0x98]\n  7840: s1 = s1 + a0\n  7843: a0 = s1 <u a0\n  7846: a1 = u64 [sp + 0xa0]\n  7850: a0 = a0 + a1\n  7853: u64 [sp + 0x78] = a0\n  7856: a0 = u64 [sp + 0xa8]\n  7860: i32 a0 = a0 + 0x40\n  7863: a1 = 0x20\n  7866: ra = 120, jump @0\n      : @152 [@dyn 60] (gas: 51)\n  7871: u8 [a0 + 31] = 0xa0\n  7876: u8 [a0 + 30] = 0\n  7879: u8 [a0 + 29] = 0\n  7882: u8 [a0 + 28] = 0\n  7885: u8 [a0 + 27] = 0\n  7888: u8 [a0 + 26] = 0\n  7891: u8 [a0 + 25] = 0\n  7894: u8 [a0 + 24] = 0\n  7897: u8 [a0 + 23] = 0\n  7900: u8 [a0 + 22] = 0\n  7903: u8 [a0 + 21] = 0\n  7906: u8 [a0 + 20] = 0\n  7909: u8 [a0 + 19] = 0\n  7912: u8 [a0 + 18] = 0\n  7915: u8 [a0 + 17] = 0\n  7918: u8 [a0 + 16] = 0\n  7921: u8 [a0 + 15] = 0\n  7924: u8 [a0 + 14] = 0\n  7927: u8 [a0 + 13] = 0\n  7930: u8 [a0 + 12] = 0\n  7933: u8 [a0 + 11] = 0\n  7936: u8 [a0 + 10] = 0\n  7939: u8 [a0 + 9] = 0\n  7942: u8 [a0 + 8] = 0\n  7945: u8 [a0 + 7] = 0\n  7948: u8 [a0 + 6] = 0\n  7951: u8 [a0 + 5] = 0\n  7954: u8 [a0 + 4] = 0\n  7957: u8 [a0 + 3] = 0\n  7960: u8 [a0 + 2] = 0\n  7963: u8 [a0 + 1] = 0\n  7966: u8 [a0 + 0] = 0\n  7968: a0 = u64 [sp + 0x78]\n  7971: u64 [sp + 0x138] = a0\n  7975: u64 [sp + 0x130] = s1\n  7979: a0 = u64 [sp + 0x80]\n  7983: u64 [sp + 0x128] = a0\n  7987: a0 = u64 [sp + 0x88]\n  7991: u64 [sp + 0x120] = a0\n  7995: a0 = u64 [sp + 0x48]\n  7998: u64 [sp + 0x158] = a0\n  8002: a0 = u64 [sp + 0x50]\n  8005: u64 [sp + 0x150] = a0\n  8009: a0 = u64 [sp + 0x58]\n  8012: u64 [sp + 0x148] = a0\n  8016: a0 = sp + 0x160\n  8020: a1 = sp + 0x140\n  8024: a2 = sp + 0x120\n  8028: a3 = u64 [sp + 0x60]\n  8031: u64 [sp + 0x140] = a3\n  8035: ra = 122, jump @241\n      : @153 [@dyn 61] (gas: 10)\n  8040: a0 = 0x100000000\n  8050: u64 [sp + 0x88] = a0\n  8054: a0 = 0xffffffa0\n  8064: a1 = u64 [sp + 0xb8]\n  8068: a0 = a1 <u a0\n  8071: a1 = u64 [sp + 0xb0]\n  8075: a0 = 0 if a1 != 0\n  8077: a1 = u64 [sp + 0x90]\n  8081: a0 = 0 if a1 != 0\n  8083: jump @159 if a0 == 0\n      : @154 (gas: 37)\n  8087: a2 = u64 [sp + 0x160]\n  8091: a5 = u64 [sp + 0x168]\n  8095: a4 = u64 [sp + 0x178]\n  8099: u64 [sp + 0x78] = a4\n  8102: t0 = u64 [sp + 0x170]\n  8106: a1 = u64 [sp + 0xb8]\n  8110: ra = a2 <u a1\n  8113: t2 = a2\n  8115: t1 = a1\n  8117: a3 = u64 [sp + 0xb0]\n  8121: a1 = a5 ^ a3\n  8124: a2 = a5 <u a3\n  8127: u64 [sp + 0x70] = a5\n  8130: a0 = a3\n  8132: a2 = ra if a1 == 0\n  8135: u64 [sp + 0x80] = t0\n  8139: s1 = u64 [sp + 0x98]\n  8143: a1 = t0 - s1\n  8146: a3 = a1 - a2\n  8149: u64 [sp + 0x68] = a3\n  8152: a1 = a1 <u a2\n  8155: a2 = t0 <u s1\n  8158: a3 = u64 [sp + 0xa0]\n  8162: a3 = a4 - a3\n  8165: a3 = a3 - a2\n  8168: a3 = a3 - a1\n  8171: u64 [sp + 0xa0] = a3\n  8175: a1 = a5 - a0\n  8178: a0 = a1 - ra\n  8181: u64 [sp + 0x98] = a0\n  8185: a0 = t2 - t1\n  8188: u64 [sp + 0x60] = a0\n  8191: s1 = t2\n  8193: a0 = u64 [sp + 0xa8]\n  8197: i32 a0 = a0 + 0x60\n  8200: a1 = 0x20\n  8203: ra = 124, jump @0\n      : @155 [@dyn 62] (gas: 87)\n  8208: a1 = u64 [sp + 0xa0]\n  8212: a1 = reverse a1\n  8214: a2 = u64 [sp + 0x68]\n  8217: a2 = reverse a2\n  8219: a3 = u64 [sp + 0x98]\n  8223: a3 = reverse a3\n  8225: a4 = u64 [sp + 0x60]\n  8228: a4 = reverse a4\n  8230: u8 [a0 + 0x18] = a4\n  8233: a5 = a4 >> 0x38\n  8236: u8 [a0 + 0x1f] = a5\n  8239: a5 = a4 >> 0x30\n  8242: u8 [a0 + 0x1e] = a5\n  8245: a5 = a4 >> 0x28\n  8248: u8 [a0 + 0x1d] = a5\n  8251: a5 = a4 >> 0x20\n  8254: u8 [a0 + 0x1c] = a5\n  8257: a5 = a4 >> 0x18\n  8260: u8 [a0 + 0x1b] = a5\n  8263: a5 = a4 >> 0x10\n  8266: u8 [a0 + 0x1a] = a5\n  8269: a4 = a4 >> 0x8\n  8272: u8 [a0 + 0x19] = a4\n  8275: u8 [a0 + 0x10] = a3\n  8278: a4 = a3 >> 0x38\n  8281: u8 [a0 + 0x17] = a4\n  8284: a4 = a3 >> 0x30\n  8287: u8 [a0 + 0x16] = a4\n  8290: a4 = a3 >> 0x28\n  8293: u8 [a0 + 0x15] = a4\n  8296: a4 = a3 >> 0x20\n  8299: u8 [a0 + 0x14] = a4\n  8302: a4 = a3 >> 0x18\n  8305: u8 [a0 + 0x13] = a4\n  8308: a4 = a3 >> 0x10\n  8311: u8 [a0 + 0x12] = a4\n  8314: a3 = a3 >> 0x8\n  8317: u8 [a0 + 0x11] = a3\n  8320: u8 [a0 + 0x8] = a2\n  8323: a3 = a2 >> 0x38\n  8326: u8 [a0 + 0xf] = a3\n  8329: a3 = a2 >> 0x30\n  8332: u8 [a0 + 0xe] = a3\n  8335: a3 = a2 >> 0x28\n  8338: u8 [a0 + 0xd] = a3\n  8341: a3 = a2 >> 0x20\n  8344: u8 [a0 + 0xc] = a3\n  8347: a3 = a2 >> 0x18\n  8350: u8 [a0 + 0xb] = a3\n  8353: a3 = a2 >> 0x10\n  8356: u8 [a0 + 0xa] = a3\n  8359: a2 = a2 >> 0x8\n  8362: u8 [a0 + 0x9] = a2\n  8365: u8 [a0] = a1\n  8367: a2 = a1 >> 0x38\n  8370: u8 [a0 + 0x7] = a2\n  8373: a2 = a1 >> 0x30\n  8376: u8 [a0 + 0x6] = a2\n  8379: a2 = a1 >> 0x28\n  8382: u8 [a0 + 0x5] = a2\n  8385: a2 = a1 >> 0x20\n  8388: u8 [a0 + 0x4] = a2\n  8391: a2 = a1 >> 0x18\n  8394: u8 [a0 + 0x3] = a2\n  8397: a2 = a1 >> 0x10\n  8400: u8 [a0 + 0x2] = a2\n  8403: a1 = a1 >> 0x8\n  8406: u8 [a0 + 0x1] = a1\n  8409: a0 = u64 [sp + 0x78]\n  8412: u64 [sp + 0xd8] = a0\n  8416: a0 = u64 [sp + 0x80]\n  8420: u64 [sp + 0xd0] = a0\n  8424: a0 = u64 [sp + 0x70]\n  8427: u64 [sp + 0xc8] = a0\n  8431: u64 [sp + 0xc0] = s1\n  8435: a0 = u64 [sp + 0x20]\n  8438: u64 [sp + 0xf8] = a0\n  8442: a0 = u64 [sp + 0x28]\n  8445: u64 [sp + 0xf0] = a0\n  8449: a0 = u64 [sp + 0x30]\n  8452: u64 [sp + 0xe8] = a0\n  8456: a0 = sp + 0x100\n  8460: a1 = sp + 0xe0\n  8464: a2 = sp + 0xc0\n  8468: a3 = u64 [sp + 0x38]\n  8471: u64 [sp + 0xe0] = a3\n  8475: ra = 126, jump @241\n      : @156 [@dyn 63] (gas: 9)\n  8480: a0 = u64 [sp + 0x88]\n  8484: a0 = a0 + 0xffffffffffffff80\n  8487: a1 = u64 [sp + 0xb8]\n  8491: a0 = a1 <u a0\n  8494: a1 = u64 [sp + 0xb0]\n  8498: a0 = 0 if a1 != 0\n  8500: a1 = u64 [sp + 0x90]\n  8504: a0 = 0 if a1 != 0\n  8506: jump @159 if a0 == 0\n      : @157 (gas: 21)\n  8510: a1 = 0xffffffff\n  8520: a2 = u64 [sp + 0x118]\n  8524: u64 [sp + 0xb0] = a2\n  8528: a2 = u64 [sp + 0x110]\n  8532: u64 [sp + 0xb8] = a2\n  8536: a2 = u64 [sp + 0x108]\n  8540: u64 [sp + 0xa0] = a2\n  8544: a2 = u64 [sp + 0x100]\n  8548: u64 [sp + 0x98] = a2\n  8552: a2 = u64 [sp + 0x8]\n  8555: a2 = a2 & 0xffffffffffffffff\n  8558: u64 [sp + 0x90] = a2\n  8562: a2 = u64 [sp + 0x10]\n  8565: a0 = a2 & 0xffffffffffffffff\n  8568: u64 [sp + 0x88] = a0\n  8572: s1 = u64 [sp + 0x18]\n  8575: s1 = s1 & a1\n  8578: a0 = u64 [sp + 0xa8]\n  8582: i32 a0 = a0 + 0x80\n  8586: a1 = 0x20\n  8589: ra = 128, jump @0\n      : @158 [@dyn 64] (gas: 70)\n  8595: a1 = reverse s1\n  8597: a2 = u64 [sp + 0x88]\n  8601: a2 = reverse a2\n  8603: a3 = u64 [sp + 0x90]\n  8607: a3 = reverse a3\n  8609: u8 [a0 + 0x18] = a3\n  8612: u8 [a0 + 11] = 0\n  8615: u8 [a0 + 10] = 0\n  8618: u8 [a0 + 9] = 0\n  8621: u8 [a0 + 7] = 0\n  8624: u8 [a0 + 6] = 0\n  8627: u8 [a0 + 5] = 0\n  8630: u8 [a0 + 4] = 0\n  8633: u8 [a0 + 3] = 0\n  8636: u8 [a0 + 2] = 0\n  8639: u8 [a0 + 1] = 0\n  8642: u8 [a0 + 0] = 0\n  8644: a4 = a3 >> 0x38\n  8647: u8 [a0 + 0x1f] = a4\n  8650: a4 = a3 >> 0x30\n  8653: u8 [a0 + 0x1e] = a4\n  8656: a4 = a3 >> 0x28\n  8659: u8 [a0 + 0x1d] = a4\n  8662: a4 = a3 >> 0x20\n  8665: u8 [a0 + 0x1c] = a4\n  8668: a4 = a3 >> 0x18\n  8671: u8 [a0 + 0x1b] = a4\n  8674: a4 = a3 >> 0x10\n  8677: u8 [a0 + 0x1a] = a4\n  8680: a3 = a3 >> 0x8\n  8683: u8 [a0 + 0x19] = a3\n  8686: u8 [a0 + 0x10] = a2\n  8689: a3 = a2 >> 0x38\n  8692: u8 [a0 + 0x17] = a3\n  8695: a3 = a2 >> 0x30\n  8698: u8 [a0 + 0x16] = a3\n  8701: a3 = a2 >> 0x28\n  8704: u8 [a0 + 0x15] = a3\n  8707: a3 = a2 >> 0x20\n  8710: u8 [a0 + 0x14] = a3\n  8713: a3 = a2 >> 0x18\n  8716: u8 [a0 + 0x13] = a3\n  8719: a3 = a2 >> 0x10\n  8722: u8 [a0 + 0x12] = a3\n  8725: a2 = a2 >> 0x8\n  8728: u8 [a0 + 0x11] = a2\n  8731: u8 [a0 + 0x8] = a1\n  8734: a2 = a1 >> 0x38\n  8737: u8 [a0 + 0xf] = a2\n  8740: a2 = a1 >> 0x30\n  8743: u8 [a0 + 0xe] = a2\n  8746: a2 = a1 >> 0x28\n  8749: u8 [a0 + 0xd] = a2\n  8752: a1 = a1 >> 0x20\n  8755: u8 [a0 + 0xc] = a1\n  8758: a0 = u64 [sp + 0x40]\n  8761: a1 = u64 [sp + 0x98]\n  8765: u64 [a0] = a1\n  8767: a1 = u64 [sp + 0xb0]\n  8771: u64 [a0 + 0x18] = a1\n  8774: a1 = u64 [sp + 0xa0]\n  8778: u64 [a0 + 0x8] = a1\n  8781: a1 = u64 [sp + 0xb8]\n  8785: u64 [a0 + 0x10] = a1\n  8788: sp = s0 + 0xfffffffffffffe60\n  8792: ra = u64 [sp + 0x198]\n  8796: s0 = u64 [sp + 0x190]\n  8800: s1 = u64 [sp + 0x188]\n  8804: sp = sp + 0x1a0\n  8808: ret\n      : @159 (gas: 1)\n  8810: trap\n      : @160 (gas: 8)\n  8811: a0 = u64 [sp + 0x270]\n  8815: a1 = u64 [sp + 0x278]\n  8819: a2 = u64 [sp + 0x268]\n  8823: a3 = u64 [sp + 0x260]\n  8827: a1 = a1 | a2\n  8830: a0 = a0 | a3\n  8833: a0 = a0 | a1\n  8836: jump @168 if a0 != 0\n      : @161 (gas: 2)\n  8840: a0 = i32 [0x20114]\n  8845: jump @168 if a0 <=u 35\n      : @162 (gas: 14)\n  8850: i32 a0 = sp + 0x280\n  8854: a1 = 0x4\n  8857: ecalli 3 // 'call_data_load'\n  8859: a2 = u64 [sp + 0x280]\n  8863: a0 = u64 [sp + 0x288]\n  8867: a1 = u64 [sp + 0x290]\n  8871: a3 = u64 [sp + 0x298]\n  8875: u64 [sp + 0x1b8] = a3\n  8879: u64 [sp + 0x1b0] = a1\n  8883: u64 [sp + 0x1a8] = a0\n  8887: a0 = sp + 0x1c0\n  8891: a1 = sp + 0x1a0\n  8895: u64 [sp + 0x1a0] = a2\n  8899: ra = 130, jump @140\n      : @163 [@dyn 65] (gas: 43)\n  8905: a0 = u64 [sp + 0x1c0]\n  8909: u64 [sp + 0xb0] = a0\n  8913: a0 = u64 [sp + 0x1c8]\n  8917: u64 [sp + 0xa8] = a0\n  8921: a0 = u64 [sp + 0x1d0]\n  8925: u64 [sp + 0xa0] = a0\n  8929: a0 = u64 [sp + 0x1d8]\n  8933: u64 [sp + 0x98] = a0\n  8937: a0 = u64 [sp + 0x1e0]\n  8941: u64 [sp + 0x90] = a0\n  8945: a0 = u64 [sp + 0x1e8]\n  8949: u64 [sp + 0x88] = a0\n  8953: a0 = u64 [sp + 0x1f0]\n  8957: u64 [sp + 0x80] = a0\n  8961: a0 = u64 [sp + 0x1f8]\n  8965: u64 [sp + 0x78] = a0\n  8968: a0 = u64 [sp + 0x200]\n  8972: u64 [sp + 0x70] = a0\n  8975: a0 = u64 [sp + 0x208]\n  8979: u64 [sp + 0x68] = a0\n  8982: a0 = u64 [sp + 0x210]\n  8986: u64 [sp + 0x60] = a0\n  8989: a0 = u64 [sp + 0x218]\n  8993: u64 [sp + 0x58] = a0\n  8996: a0 = u64 [sp + 0x220]\n  9000: u64 [sp + 0x50] = a0\n  9003: a0 = u64 [sp + 0x228]\n  9007: u64 [sp + 0x48] = a0\n  9010: a0 = u64 [sp + 0x230]\n  9014: u64 [sp + 0x40] = a0\n  9017: a0 = u64 [sp + 0x238]\n  9021: u64 [sp + 0x38] = a0\n  9024: a0 = u64 [sp + 0x240]\n  9028: u64 [sp + 0x30] = a0\n  9031: a0 = u64 [sp + 0x248]\n  9035: u64 [sp + 0x28] = a0\n  9038: a0 = u64 [sp + 0x250]\n  9042: u64 [sp + 0x20] = a0\n  9045: a0 = u64 [sp + 0x258]\n  9049: u64 [sp + 0x18] = a0\n  9052: a0 = 0x40\n  9055: a1 = 0x20\n  9058: ra = 132, jump @0\n      : @164 [@dyn 66] (gas: 148)\n  9064: a1 = u8 [a0 + 0x1]\n  9067: a2 = u8 [a0]\n  9069: a3 = u8 [a0 + 0x2]\n  9072: a4 = u8 [a0 + 0x3]\n  9075: a1 = a1 << 0x8\n  9078: a1 = a1 | a2\n  9081: a3 = a3 << 0x10\n  9084: a4 = a4 << 0x18\n  9087: a3 = a3 | a4\n  9090: a1 = a1 | a3\n  9093: a2 = u8 [a0 + 0x5]\n  9096: a3 = u8 [a0 + 0x4]\n  9099: a4 = u8 [a0 + 0x6]\n  9102: a5 = u8 [a0 + 0x7]\n  9105: a2 = a2 << 0x8\n  9108: a2 = a2 | a3\n  9111: a4 = a4 << 0x10\n  9114: a5 = a5 << 0x18\n  9117: a4 = a4 | a5\n  9120: a2 = a2 | a4\n  9123: a2 = a2 << 0x20\n  9126: t0 = a2 | a1\n  9129: a2 = u8 [a0 + 0x9]\n  9132: a3 = u8 [a0 + 0x8]\n  9135: a4 = u8 [a0 + 0xa]\n  9138: a5 = u8 [a0 + 0xb]\n  9141: a2 = a2 << 0x8\n  9144: a2 = a2 | a3\n  9147: a4 = a4 << 0x10\n  9150: a5 = a5 << 0x18\n  9153: a4 = a4 | a5\n  9156: a2 = a2 | a4\n  9159: a3 = u8 [a0 + 0xd]\n  9162: a4 = u8 [a0 + 0xc]\n  9165: a5 = u8 [a0 + 0xe]\n  9168: s1 = u8 [a0 + 0xf]\n  9171: a3 = a3 << 0x8\n  9174: a3 = a3 | a4\n  9177: a5 = a5 << 0x10\n  9180: s1 = s1 << 0x18\n  9183: a5 = a5 | s1\n  9186: a3 = a3 | a5\n  9189: a3 = a3 << 0x20\n  9192: a2 = a2 | a3\n  9195: a3 = u8 [a0 + 0x11]\n  9198: a4 = u8 [a0 + 0x10]\n  9201: a5 = u8 [a0 + 0x12]\n  9204: s1 = u8 [a0 + 0x13]\n  9207: a3 = a3 << 0x8\n  9210: a3 = a3 | a4\n  9213: a5 = a5 << 0x10\n  9216: s1 = s1 << 0x18\n  9219: a5 = a5 | s1\n  9222: a3 = a3 | a5\n  9225: a4 = u8 [a0 + 0x15]\n  9228: a5 = u8 [a0 + 0x14]\n  9231: s1 = u8 [a0 + 0x16]\n  9234: a1 = u8 [a0 + 0x17]\n  9237: a4 = a4 << 0x8\n  9240: a4 = a4 | a5\n  9243: s1 = s1 << 0x10\n  9246: a1 = a1 << 0x18\n  9249: a1 = a1 | s1\n  9252: a1 = a1 | a4\n  9255: a1 = a1 << 0x20\n  9258: a3 = a3 | a1\n  9261: a1 = u8 [a0 + 0x19]\n  9264: a4 = u8 [a0 + 0x18]\n  9267: a5 = u8 [a0 + 0x1a]\n  9270: s1 = u8 [a0 + 0x1b]\n  9273: a1 = a1 << 0x8\n  9276: a1 = a1 | a4\n  9279: a5 = a5 << 0x10\n  9282: s1 = s1 << 0x18\n  9285: a5 = a5 | s1\n  9288: a1 = a1 | a5\n  9291: a4 = u8 [a0 + 0x1d]\n  9294: a5 = u8 [a0 + 0x1c]\n  9297: s1 = u8 [a0 + 0x1e]\n  9300: a0 = u8 [a0 + 0x1f]\n  9303: a4 = a4 << 0x8\n  9306: a4 = a4 | a5\n  9309: s1 = s1 << 0x10\n  9312: a0 = a0 << 0x18\n  9315: a0 = a0 | s1\n  9318: a0 = a0 | a4\n  9321: a0 = a0 << 0x20\n  9324: a0 = a0 | a1\n  9327: s1 = reverse a0\n  9329: a3 = reverse a3\n  9331: u64 [sp + 0x8] = a3\n  9334: a1 = reverse a2\n  9336: u64 [sp + 0x10] = a1\n  9339: a2 = reverse t0\n  9341: u64 [sp + 0xb8] = a2\n  9345: a0 = sp + 0xc0\n  9349: u64 [sp] = a0\n  9351: a0 = u64 [sp + 0x18]\n  9354: u64 [sp + 0xd8] = a0\n  9358: a0 = u64 [sp + 0x20]\n  9361: u64 [sp + 0xd0] = a0\n  9365: a0 = u64 [sp + 0x28]\n  9368: u64 [sp + 0xc8] = a0\n  9372: a0 = u64 [sp + 0x30]\n  9375: u64 [sp + 0xc0] = a0\n  9379: a0 = u64 [sp + 0x38]\n  9382: u64 [sp + 0xf8] = a0\n  9386: a0 = u64 [sp + 0x40]\n  9389: u64 [sp + 0xf0] = a0\n  9393: a0 = u64 [sp + 0x48]\n  9396: u64 [sp + 0xe8] = a0\n  9400: a0 = u64 [sp + 0x50]\n  9403: u64 [sp + 0xe0] = a0\n  9407: a0 = u64 [sp + 0x58]\n  9410: u64 [sp + 0x118] = a0\n  9414: a0 = u64 [sp + 0x60]\n  9417: u64 [sp + 0x110] = a0\n  9421: a0 = u64 [sp + 0x68]\n  9424: u64 [sp + 0x108] = a0\n  9428: a0 = u64 [sp + 0x70]\n  9431: u64 [sp + 0x100] = a0\n  9435: a0 = u64 [sp + 0x78]\n  9438: u64 [sp + 0x138] = a0\n  9442: a0 = u64 [sp + 0x80]\n  9446: u64 [sp + 0x130] = a0\n  9450: a0 = u64 [sp + 0x88]\n  9454: u64 [sp + 0x128] = a0\n  9458: a0 = u64 [sp + 0x90]\n  9462: u64 [sp + 0x120] = a0\n  9466: a0 = u64 [sp + 0x98]\n  9470: u64 [sp + 0x158] = a0\n  9474: a0 = u64 [sp + 0xa0]\n  9478: u64 [sp + 0x150] = a0\n  9482: a0 = u64 [sp + 0xa8]\n  9486: u64 [sp + 0x148] = a0\n  9490: a0 = u64 [sp + 0xb0]\n  9494: u64 [sp + 0x140] = a0\n  9498: u64 [sp + 0x178] = a2\n  9502: u64 [sp + 0x170] = a1\n  9506: u64 [sp + 0x168] = a3\n  9510: a0 = sp + 0x180\n  9514: a1 = sp + 0x160\n  9518: a2 = sp + 0x140\n  9522: a3 = sp + 0x120\n  9526: a4 = sp + 0x100\n  9530: a5 = sp + 0xe0\n  9534: u64 [sp + 0x160] = s1\n  9538: ra = 134, jump @146\n      : @165 [@dyn 67] (gas: 12)\n  9544: a4 = u64 [sp + 0x8]\n  9547: a2 = s1\n  9549: a0 = u64 [sp + 0xb8]\n  9553: a0 = a0 | a4\n  9556: s1 = u64 [sp + 0x10]\n  9559: a1 = a2 | s1\n  9562: a1 = a1 | a0\n  9565: a1 = a1 >> 0x20\n  9568: a0 = a0 | s1\n  9571: a0 = a0 << 0x20\n  9574: a0 = a0 | a1\n  9577: jump @167 if a0 != 0\n      : @166 (gas: 29)\n  9580: a0 = u64 [sp + 0x188]\n  9584: a1 = u64 [sp + 0x198]\n  9588: u64 [sp + 0xb0] = a1\n  9592: t1 = u64 [sp + 0x180]\n  9596: a1 = u64 [sp + 0x190]\n  9600: t2 = a0 ^ a4\n  9603: a5 = a0 <u a4\n  9606: ra = t1 <u a2\n  9609: a5 = ra if t2 == 0\n  9612: a3 = a1 - s1\n  9615: t2 = a3 - a5\n  9618: t0 = a3 <u a5\n  9621: a3 = a1 <u s1\n  9624: a1 = u64 [sp + 0xb8]\n  9628: a5 = u64 [sp + 0xb0]\n  9632: a5 = a5 - a1\n  9635: a5 = a5 - a3\n  9638: a5 = a5 - t0\n  9641: a0 = a0 - a4\n  9644: a0 = a0 - ra\n  9647: s1 = t1 - a2\n  9650: a0 = a0 | a5\n  9653: a1 = s1 | t2\n  9656: a1 = a1 | a0\n  9659: a0 = a0 | t2\n  9662: a1 = a1 >> 0x20\n  9665: a0 = a0 << 0x20\n  9668: a0 = a0 | a1\n  9671: jump @170 if a0 == 0\n      : @167 (gas: 1)\n  9674: trap\n      : @168 (gas: 3)\n  9675: a0 = 0\n  9677: a1 = 0\n  9679: ra = 136, jump @0\n      : @169 [@dyn 68] (gas: 5)\n  9685: i32 a1 = a0 + 0\n  9687: a0 = 0x1\n  9690: a2 = 0\n  9692: ecalli 13 // 'seal_return'\n  9694: fallthrough\n      : @170 (gas: 4)\n  9695: i32 a0 = a2 + 0\n  9697: i32 s1 = s1 + 0\n  9699: a1 = s1\n  9701: ra = 138, jump @0\n      : @171 [@dyn 69] (gas: 6)\n  9707: i32 a1 = a0 + 0\n  9709: a0 = 0\n  9711: a2 = s1\n  9713: ra = 0x8c\n  9717: ecalli 13 // 'seal_return'\n  9719: fallthrough\n      : @172 [@dyn 70] (gas: 1)\n  9720: ret\n      : @173 [@dyn 71] (gas: 6)\n  9722: i32 a1 = a0 + 0\n  9724: a0 = 0x1\n  9727: a2 = 0\n  9729: ra = 0x90\n  9733: ecalli 13 // 'seal_return'\n  9735: fallthrough\n      : @174 [@dyn 72] (gas: 37)\n  9736: sp = sp + 0xffffffffffffff60\n  9740: u64 [sp + 0x98] = ra\n  9744: u64 [sp + 0x90] = s0\n  9748: u64 [sp + 0x88] = s1\n  9752: s0 = sp + 0xa0\n  9756: sp = sp & 0xffffffffffffffe0\n  9759: a4 = u64 [a1]\n  9761: s1 = u64 [a2 + 0x8]\n  9764: ra = u64 [a1 + 0x8]\n  9767: t1 = u64 [a2]\n  9769: a3 = a4 + 0x1f\n  9772: u64 [sp + 0x58] = a4\n  9775: t0 = a3 <u a4\n  9778: a5 = ra + t0\n  9781: u64 [sp + 0x40] = t1\n  9784: t1 = a3 <u t1\n  9787: a3 = a5 ^ s1\n  9790: u64 [sp + 0x48] = s1\n  9793: a4 = a5 <u s1\n  9796: a4 = t1 if a3 == 0\n  9799: t2 = u64 [a1 + 0x10]\n  9802: a3 = a5 <u ra\n  9805: a3 = t0 if t0 == 0\n  9808: t0 = u64 [a2 + 0x18]\n  9811: t1 = u64 [a1 + 0x18]\n  9814: s1 = u64 [a2 + 0x10]\n  9817: a3 = a3 + t2\n  9820: a1 = a3 <u t2\n  9823: a1 = a1 + t1\n  9826: a2 = a1 ^ t0\n  9829: a1 = a1 <s t0\n  9832: a5 = a3 <u s1\n  9835: a1 = a5 if a2 == 0\n  9838: a3 = a3 ^ s1\n  9841: a2 = a2 | a3\n  9844: a4 = a1 if a2 != 0\n  9847: jump @181 if a4 == 0\n      : @175 (gas: 14)\n  9851: u64 [sp + 0x28] = t0\n  9854: u64 [sp + 0x30] = s1\n  9857: u64 [sp + 0x38] = a0\n  9860: a0 = u64 [sp + 0x58]\n  9863: a0 = a0 | t2\n  9866: u64 [sp + 0x18] = t1\n  9869: a1 = ra | t1\n  9872: a0 = a0 | a1\n  9875: a0 = a0 >> 0x20\n  9878: u64 [sp + 0x20] = t2\n  9881: a1 = a1 | t2\n  9884: a1 = a1 << 0x20\n  9887: a0 = a0 | a1\n  9890: jump @180 if a0 != 0\n      : @176 (gas: 5)\n  9894: s1 = ra\n  9896: a1 = i32 [sp + 0x58]\n  9899: i32 a0 = sp + 0x60\n  9902: ecalli 3 // 'call_data_load'\n  9904: fallthrough\n      : @177 (gas: 8)\n  9905: a0 = u64 [sp + 0x78]\n  9908: a1 = u64 [sp + 0x70]\n  9911: t1 = u64 [sp + 0x68]\n  9914: u64 [sp + 0x50] = a0\n  9917: a0 = a0 | a1\n  9920: a3 = t1 <u 0x1\n  9923: a3 = 0 if a0 != 0\n  9925: jump @181 if a3 == 0\n      : @178 (gas: 46)\n  9929: a2 = u64 [sp + 0x60]\n  9932: a0 = u64 [sp + 0x58]\n  9935: a4 = a0 + 0x20\n  9938: a0 = a4 <u a0\n  9941: ra = s1 + a0\n  9944: u64 [sp + 0x10] = a4\n  9947: a4 = a4 + a2\n  9950: u64 [sp + 0x58] = a2\n  9953: t0 = a4 <u a2\n  9956: a5 = t1 + ra\n  9959: a5 = a5 + t0\n  9962: a2 = a5 ^ t1\n  9965: a3 = a5 <u t1\n  9968: a3 = t0 if a2 == 0\n  9971: a2 = ra <u s1\n  9974: a2 = a0 if a0 == 0\n  9977: a0 = u64 [sp + 0x20]\n  9980: t2 = a0 + a2\n  9983: s1 = t2 <u a0\n  9986: a0 = u64 [sp + 0x18]\n  9989: a0 = a0 + s1\n  9992: s1 = u64 [sp + 0x48]\n  9995: a2 = a5 ^ s1\n  9998: a5 = s1 <u a5\n 10001: s1 = u64 [sp + 0x40]\n 10004: a4 = s1 <u a4\n 10007: a4 = a5 if a2 != 0\n 10010: a2 = a1 + t2\n 10013: a5 = a2 <u a1\n 10016: s1 = u64 [sp + 0x50]\n 10019: u64 [sp + 0x48] = a0\n 10022: s1 = s1 + a0\n 10025: a5 = a5 + s1\n 10028: a3 = a3 + a2\n 10031: a2 = a3 <u a2\n 10034: a2 = a2 + a5\n 10037: s1 = u64 [sp + 0x28]\n 10040: a5 = a2 ^ s1\n 10043: t0 = s1 <u a2\n 10046: a2 = u64 [sp + 0x30]\n 10049: s1 = a2 <u a3\n 10052: s1 = t0 if a5 != 0\n 10055: a2 = a2 ^ a3\n 10058: a2 = a2 | a5\n 10061: a4 = s1 if a2 != 0\n 10064: jump @181 if a4 != 0\n      : @179 (gas: 19)\n 10067: a2 = u64 [sp + 0x38]\n 10070: a0 = u64 [sp + 0x58]\n 10073: u64 [a2 + 0x20] = a0\n 10076: a0 = u64 [sp + 0x10]\n 10079: u64 [a2] = a0\n 10081: u64 [a2 + 0x28] = t1\n 10084: u64 [a2 + 0x8] = ra\n 10087: u64 [a2 + 0x30] = a1\n 10090: u64 [a2 + 0x10] = t2\n 10093: a0 = u64 [sp + 0x50]\n 10096: u64 [a2 + 0x38] = a0\n 10099: a0 = u64 [sp + 0x48]\n 10102: u64 [a2 + 0x18] = a0\n 10105: sp = s0 + 0xffffffffffffff60\n 10109: ra = u64 [sp + 0x98]\n 10113: s0 = u64 [sp + 0x90]\n 10117: s1 = u64 [sp + 0x88]\n 10121: sp = sp + 0xa0\n 10125: ret\n      : @180 (gas: 1)\n 10127: trap\n      : @181 (gas: 3)\n 10128: a0 = 0\n 10130: a1 = 0\n 10132: ra = 146, jump @0\n      : @182 [@dyn 73] (gas: 6)\n 10138: i32 a1 = a0 + 0\n 10140: a0 = 0x1\n 10143: a2 = 0\n 10145: ra = 0x94\n 10149: ecalli 13 // 'seal_return'\n 10151: fallthrough\n      : @183 [@dyn 74] (gas: 43)\n 10152: sp = sp + 0xfffffffffffffe60\n 10156: u64 [sp + 0x198] = ra\n 10160: u64 [sp + 0x190] = s0\n 10164: u64 [sp + 0x188] = s1\n 10168: s0 = sp + 0x1a0\n 10172: sp = sp & 0xffffffffffffffe0\n 10175: t2 = u64 [a2 + 0x8]\n 10178: ra = u64 [a1 + 0x8]\n 10181: s1 = u64 [a2]\n 10183: a5 = u64 [a1]\n 10185: t0 = u64 [a2 + 0x10]\n 10188: a4 = t2 ^ ra\n 10191: a3 = t2 <u ra\n 10194: t1 = s1 <u a5\n 10197: a3 = t1 if a4 == 0\n 10200: a4 = t2 - ra\n 10203: a4 = a4 - t1\n 10206: u64 [sp + 0x70] = s1\n 10209: u64 [sp + 0xb8] = a5\n 10213: a5 = s1 - a5\n 10216: a5 = a5 <u 0x80\n 10220: a5 = a5 ^ 0x1\n 10223: t1 = u64 [a1 + 0x10]\n 10226: s1 = a4 >u 0\n 10228: a5 = s1 if a4 != 0\n 10231: a4 = u64 [a2 + 0x18]\n 10234: s1 = u64 [a1 + 0x18]\n 10237: a1 = t0 - t1\n 10240: a2 = a1 - a3\n 10243: a1 = a1 <u a3\n 10246: u64 [sp + 0xa8] = t1\n 10250: a3 = t0 <u t1\n 10253: u64 [sp + 0x68] = a4\n 10256: u64 [sp + 0xa0] = s1\n 10260: a4 = a4 - s1\n 10263: a4 = a4 - a3\n 10266: a4 = a4 - a1\n 10269: a1 = a4 >s 0\n 10271: a3 = a2 >u 0\n 10273: a3 = a1 if a4 != 0\n 10276: a2 = a2 | a4\n 10279: a5 = a3 if a2 != 0\n 10282: jump @196 if a5 == 0\n      : @184 (gas: 15)\n 10286: s1 = a0\n 10288: u64 [sp + 0x78] = t0\n 10291: u64 [sp + 0x80] = t2\n 10295: a2 = u64 [sp + 0xa8]\n 10299: t2 = u64 [sp + 0xb8]\n 10303: a0 = t2 | a2\n 10306: a1 = u64 [sp + 0xa0]\n 10310: a1 = ra | a1\n 10313: a0 = a0 | a1\n 10316: a0 = a0 >> 0x20\n 10319: a1 = a1 | a2\n 10322: a1 = a1 << 0x20\n 10325: a0 = a0 | a1\n 10328: u64 [sp + 0xb0] = ra\n 10332: jump @195 if a0 != 0\n      : @185 (gas: 5)\n 10336: i32 a1 = t2 + 0\n 10338: i32 a0 = sp + 0x160\n 10342: u64 [sp + 0x98] = a1\n 10346: ecalli 3 // 'call_data_load'\n 10348: fallthrough\n      : @186 (gas: 13)\n 10349: a0 = u64 [sp + 0xa8]\n 10353: a2 = u64 [sp + 0xa0]\n 10357: a2 = a2 | a0\n 10360: a0 = 0x100000000\n 10370: u64 [sp + 0x88] = a0\n 10374: a0 = 0xffffffe0\n 10384: a1 = u64 [sp + 0xb8]\n 10388: a0 = a1 <u a0\n 10391: a1 = u64 [sp + 0xb0]\n 10395: a0 = 0 if a1 != 0\n 10397: u64 [sp + 0x90] = a2\n 10401: a0 = 0 if a2 != 0\n 10403: jump @195 if a0 == 0\n      : @187 (gas: 13)\n 10407: a0 = u64 [sp + 0x178]\n 10411: u64 [sp + 0x58] = a0\n 10414: a0 = u64 [sp + 0x170]\n 10418: u64 [sp + 0x48] = a0\n 10421: a0 = u64 [sp + 0x168]\n 10425: u64 [sp + 0x60] = a0\n 10428: a0 = u64 [sp + 0x160]\n 10432: u64 [sp + 0x50] = a0\n 10435: a0 = u64 [sp + 0x98]\n 10439: i32 a1 = a0 + 0x20\n 10442: i32 a0 = sp + 0x160\n 10446: ecalli 3 // 'call_data_load'\n 10448: fallthrough\n      : @188 (gas: 9)\n 10449: a0 = u64 [sp + 0x88]\n 10453: a0 = a0 + 0xffffffffffffffc0\n 10456: a1 = u64 [sp + 0xb8]\n 10460: a0 = a1 <u a0\n 10463: a1 = u64 [sp + 0xb0]\n 10467: a0 = 0 if a1 != 0\n 10469: a1 = u64 [sp + 0x90]\n 10473: a0 = 0 if a1 != 0\n 10475: jump @195 if a0 == 0\n      : @189 (gas: 13)\n 10479: a0 = u64 [sp + 0x178]\n 10483: u64 [sp + 0x40] = a0\n 10486: a0 = u64 [sp + 0x170]\n 10490: u64 [sp + 0x30] = a0\n 10493: a0 = u64 [sp + 0x168]\n 10497: u64 [sp + 0x88] = a0\n 10501: a0 = u64 [sp + 0x160]\n 10505: u64 [sp + 0x38] = a0\n 10508: a0 = u64 [sp + 0x98]\n 10512: i32 a1 = a0 + 0x40\n 10515: i32 a0 = sp + 0x160\n 10519: ecalli 3 // 'call_data_load'\n 10521: fallthrough\n      : @190 (gas: 8)\n 10522: a0 = 0xffffffa0\n 10532: a1 = u64 [sp + 0xb8]\n 10536: a0 = a1 <u a0\n 10539: a1 = u64 [sp + 0xb0]\n 10543: a0 = 0 if a1 != 0\n 10545: a1 = u64 [sp + 0x90]\n 10549: a0 = 0 if a1 != 0\n 10551: jump @195 if a0 == 0\n      : @191 (gas: 13)\n 10555: a0 = u64 [sp + 0x178]\n 10559: u64 [sp + 0x28] = a0\n 10562: a0 = u64 [sp + 0x170]\n 10566: u64 [sp + 0x18] = a0\n 10569: a0 = u64 [sp + 0x168]\n 10573: u64 [sp + 0x90] = a0\n 10577: a0 = u64 [sp + 0x160]\n 10581: u64 [sp + 0x20] = a0\n 10584: a0 = u64 [sp + 0x98]\n 10588: i32 a1 = a0 + 0x60\n 10591: i32 a0 = sp + 0x140\n 10595: ecalli 3 // 'call_data_load'\n 10597: fallthrough\n      : @192 (gas: 7)\n 10598: t0 = u64 [sp + 0x158]\n 10602: a1 = u64 [sp + 0x150]\n 10606: a2 = u64 [sp + 0x148]\n 10610: a3 = a1 | t0\n 10613: a4 = a2 <u 0x1\n 10616: a4 = 0 if a3 != 0\n 10618: jump @196 if a4 == 0\n      : @193 (gas: 35)\n 10622: a3 = u64 [sp + 0x140]\n 10626: a4 = u64 [sp + 0xb8]\n 10630: a4 = a4 + a3\n 10633: a3 = a4 <u a3\n 10636: a5 = u64 [sp + 0xb0]\n 10640: a5 = a5 + a2\n 10643: a5 = a5 + a3\n 10646: a0 = a5 ^ a2\n 10649: a2 = a5 <u a2\n 10652: a2 = a3 if a0 == 0\n 10655: a0 = u64 [sp + 0xa8]\n 10659: a0 = a0 + a1\n 10662: a2 = a2 + a0\n 10665: a3 = a2 <u a0\n 10668: a0 = a0 <u a1\n 10671: a1 = u64 [sp + 0xa0]\n 10675: t0 = t0 + a1\n 10678: a0 = a0 + t0\n 10681: a3 = a3 + a0\n 10684: a0 = u64 [sp + 0x70]\n 10687: u64 [sp + 0xc0] = a0\n 10691: a0 = u64 [sp + 0x80]\n 10695: u64 [sp + 0xc8] = a0\n 10699: u64 [sp + 0xe0] = a4\n 10703: a0 = u64 [sp + 0x78]\n 10706: u64 [sp + 0xd0] = a0\n 10710: a0 = u64 [sp + 0x68]\n 10713: u64 [sp + 0xd8] = a0\n 10717: u64 [sp + 0xe8] = a5\n 10721: u64 [sp + 0xf0] = a2\n 10725: a0 = sp + 0x100\n 10729: a1 = sp + 0xe0\n 10733: a2 = sp + 0xc0\n 10737: u64 [sp + 0xf8] = a3\n 10741: ra = 150, jump @174\n      : @194 [@dyn 75] (gas: 46)\n 10747: t0 = u64 [sp + 0x108]\n 10751: t1 = u64 [sp + 0x100]\n 10755: a2 = u64 [sp + 0x118]\n 10759: a3 = u64 [sp + 0x110]\n 10763: a4 = u64 [sp + 0x130]\n 10767: a5 = u64 [sp + 0x138]\n 10771: a0 = u64 [sp + 0x120]\n 10775: a1 = u64 [sp + 0x128]\n 10779: u64 [s1 + 0x90] = a4\n 10783: u64 [s1 + 0x98] = a5\n 10787: u64 [s1 + 0x80] = a0\n 10791: u64 [s1 + 0x88] = a1\n 10795: u64 [s1 + 0x70] = a3\n 10798: u64 [s1 + 0x78] = a2\n 10801: u64 [s1 + 0x60] = t1\n 10804: u64 [s1 + 0x68] = t0\n 10807: a0 = u64 [sp + 0x18]\n 10810: u64 [s1 + 0x50] = a0\n 10813: a0 = u64 [sp + 0x28]\n 10816: u64 [s1 + 0x58] = a0\n 10819: a0 = u64 [sp + 0x20]\n 10822: u64 [s1 + 0x40] = a0\n 10825: a0 = u64 [sp + 0x90]\n 10829: u64 [s1 + 0x48] = a0\n 10832: a0 = u64 [sp + 0x30]\n 10835: u64 [s1 + 0x30] = a0\n 10838: a0 = u64 [sp + 0x40]\n 10841: u64 [s1 + 0x38] = a0\n 10844: a0 = u64 [sp + 0x38]\n 10847: u64 [s1 + 0x20] = a0\n 10850: a0 = u64 [sp + 0x88]\n 10854: u64 [s1 + 0x28] = a0\n 10857: a0 = u64 [sp + 0x48]\n 10860: u64 [s1 + 0x10] = a0\n 10863: a0 = u64 [sp + 0x58]\n 10866: u64 [s1 + 0x18] = a0\n 10869: a0 = u64 [sp + 0x50]\n 10872: u64 [s1] = a0\n 10874: a0 = u64 [sp + 0x60]\n 10877: u64 [s1 + 0x8] = a0\n 10880: sp = s0 + 0xfffffffffffffe60\n 10884: ra = u64 [sp + 0x198]\n 10888: s0 = u64 [sp + 0x190]\n 10892: s1 = u64 [sp + 0x188]\n 10896: sp = sp + 0x1a0\n 10900: ret\n      : @195 (gas: 1)\n 10902: trap\n      : @196 (gas: 3)\n 10903: a0 = 0\n 10905: a1 = 0\n 10907: ra = 152, jump @0\n      : @197 [@dyn 76] (gas: 6)\n 10913: i32 a1 = a0 + 0\n 10915: a0 = 0x1\n 10918: a2 = 0\n 10920: ra = 0x9a\n 10924: ecalli 13 // 'seal_return'\n 10926: fallthrough\n      : @198 [@dyn 77] (gas: 9)\n 10927: a2 = u64 [a1 + 0x18]\n 10930: a3 = u64 [a1 + 0x10]\n 10933: a4 = u64 [a1 + 0x8]\n 10936: a1 = u64 [a1]\n 10938: u64 [a0 + 0x18] = a2\n 10941: u64 [a0 + 0x10] = a3\n 10944: u64 [a0 + 0x8] = a4\n 10947: u64 [a0] = a1\n 10949: ret\n      : @199 (gas: 8)\n 10951: a0 = u64 [sp + 0x1f0]\n 10955: a1 = u64 [sp + 0x1f8]\n 10959: a2 = u64 [sp + 0x1e8]\n 10963: a3 = u64 [sp + 0x1e0]\n 10967: a1 = a1 | a2\n 10970: a0 = a0 | a3\n 10973: a0 = a0 | a1\n 10976: jump @205 if a0 != 0\n      : @200 (gas: 13)\n 10980: a0 = u32 [0x20114]\n 10985: u64 [sp + 280] = 0\n 10989: u64 [sp + 272] = 0\n 10993: u64 [sp + 264] = 0\n 10997: u64 [sp + 0x100] = a0\n 11001: u64 [sp + 312] = 0\n 11005: u64 [sp + 304] = 0\n 11009: u64 [sp + 288] = 0x4\n 11014: a0 = sp + 0x140\n 11018: a1 = sp + 0x120\n 11022: a2 = sp + 0x100\n 11026: u64 [sp + 296] = 0\n 11030: ra = 156, jump @183\n      : @201 [@dyn 78] (gas: 64)\n 11036: a0 = u64 [sp + 0x140]\n 11040: u64 [sp + 0x58] = a0\n 11043: a0 = u64 [sp + 0x148]\n 11047: u64 [sp + 0x50] = a0\n 11050: a0 = u64 [sp + 0x150]\n 11054: u64 [sp + 0x48] = a0\n 11057: a0 = u64 [sp + 0x158]\n 11061: u64 [sp + 0x40] = a0\n 11064: a0 = u64 [sp + 0x160]\n 11068: u64 [sp + 0x38] = a0\n 11071: a0 = u64 [sp + 0x168]\n 11075: u64 [sp + 0x30] = a0\n 11078: a0 = u64 [sp + 0x170]\n 11082: u64 [sp + 0x28] = a0\n 11085: a0 = u64 [sp + 0x178]\n 11089: u64 [sp + 0x20] = a0\n 11092: a0 = u64 [sp + 0x180]\n 11096: u64 [sp + 0x18] = a0\n 11099: ra = u64 [sp + 0x188]\n 11103: s1 = u64 [sp + 0x190]\n 11107: t2 = u64 [sp + 0x198]\n 11111: t1 = u64 [sp + 0x1a0]\n 11115: t0 = u64 [sp + 0x1a8]\n 11119: a5 = u64 [sp + 0x1b0]\n 11123: a4 = u64 [sp + 0x1b8]\n 11127: a3 = u64 [sp + 0x1c0]\n 11131: a2 = u64 [sp + 0x1c8]\n 11135: a1 = u64 [sp + 0x1d0]\n 11139: a0 = u64 [sp + 0x1d8]\n 11143: u64 [sp + 0x78] = a0\n 11146: u64 [sp + 0x70] = a1\n 11149: u64 [sp + 0x68] = a2\n 11152: u64 [sp + 0x60] = a3\n 11155: u64 [sp + 0x98] = a4\n 11159: u64 [sp + 0x90] = a5\n 11163: u64 [sp + 0x88] = t0\n 11167: u64 [sp + 0x80] = t1\n 11171: u64 [sp + 0xb8] = t2\n 11175: u64 [sp + 0xb0] = s1\n 11179: u64 [sp + 0xa8] = ra\n 11183: a0 = u64 [sp + 0x18]\n 11186: u64 [sp + 0xa0] = a0\n 11190: a0 = u64 [sp + 0x20]\n 11193: u64 [sp + 0xd8] = a0\n 11197: a0 = u64 [sp + 0x28]\n 11200: u64 [sp + 0xd0] = a0\n 11204: a0 = u64 [sp + 0x30]\n 11207: u64 [sp + 0xc8] = a0\n 11211: a0 = u64 [sp + 0x38]\n 11214: u64 [sp + 0xc0] = a0\n 11218: a0 = u64 [sp + 0x40]\n 11221: u64 [sp + 0xf8] = a0\n 11225: a0 = u64 [sp + 0x48]\n 11228: u64 [sp + 0xf0] = a0\n 11232: a0 = u64 [sp + 0x50]\n 11235: u64 [sp + 0xe8] = a0\n 11239: a0 = sp + 0xe0\n 11243: a1 = sp + 0xc0\n 11247: a2 = sp + 0xa0\n 11251: a3 = sp + 0x80\n 11255: a4 = sp + 0x60\n 11258: a5 = u64 [sp + 0x58]\n 11261: u64 [sp + 0xe0] = a5\n 11265: ra = 158, jump @588\n      : @202 [@dyn 79] (gas: 3)\n 11271: a0 = 0x40\n 11274: a1 = 0x20\n 11277: ra = 160, jump @0\n      : @203 [@dyn 80] (gas: 100)\n 11283: a1 = u8 [a0 + 0x11]\n 11286: a2 = u8 [a0 + 0x10]\n 11289: a3 = u8 [a0 + 0x12]\n 11292: a4 = u8 [a0 + 0x13]\n 11295: a1 = a1 << 0x8\n 11298: a1 = a1 | a2\n 11301: a3 = a3 << 0x10\n 11304: a4 = a4 << 0x18\n 11307: a3 = a3 | a4\n 11310: a1 = a1 | a3\n 11313: a2 = u8 [a0 + 0x15]\n 11316: a3 = u8 [a0 + 0x14]\n 11319: a4 = u8 [a0 + 0x16]\n 11322: a5 = u8 [a0 + 0x17]\n 11325: a2 = a2 << 0x8\n 11328: a2 = a2 | a3\n 11331: a4 = a4 << 0x10\n 11334: a5 = a5 << 0x18\n 11337: a4 = a4 | a5\n 11340: a2 = a2 | a4\n 11343: a2 = a2 << 0x20\n 11346: t0 = a2 | a1\n 11349: a2 = u8 [a0 + 0x1]\n 11352: a3 = u8 [a0]\n 11354: a4 = u8 [a0 + 0x2]\n 11357: a5 = u8 [a0 + 0x3]\n 11360: a2 = a2 << 0x8\n 11363: a2 = a2 | a3\n 11366: a4 = a4 << 0x10\n 11369: a5 = a5 << 0x18\n 11372: a4 = a4 | a5\n 11375: a2 = a2 | a4\n 11378: a3 = u8 [a0 + 0x5]\n 11381: a4 = u8 [a0 + 0x4]\n 11384: a5 = u8 [a0 + 0x6]\n 11387: s1 = u8 [a0 + 0x7]\n 11390: a3 = a3 << 0x8\n 11393: a3 = a3 | a4\n 11396: a5 = a5 << 0x10\n 11399: s1 = s1 << 0x18\n 11402: a5 = a5 | s1\n 11405: a3 = a3 | a5\n 11408: a3 = a3 << 0x20\n 11411: a2 = a2 | a3\n 11414: a3 = u8 [a0 + 0x19]\n 11417: a4 = u8 [a0 + 0x18]\n 11420: a5 = u8 [a0 + 0x1a]\n 11423: s1 = u8 [a0 + 0x1b]\n 11426: a3 = a3 << 0x8\n 11429: a3 = a3 | a4\n 11432: a5 = a5 << 0x10\n 11435: s1 = s1 << 0x18\n 11438: a5 = a5 | s1\n 11441: a3 = a3 | a5\n 11444: a4 = u8 [a0 + 0x1d]\n 11447: a5 = u8 [a0 + 0x1c]\n 11450: s1 = u8 [a0 + 0x1e]\n 11453: a1 = u8 [a0 + 0x1f]\n 11456: a4 = a4 << 0x8\n 11459: a4 = a4 | a5\n 11462: s1 = s1 << 0x10\n 11465: a1 = a1 << 0x18\n 11468: a1 = a1 | s1\n 11471: a1 = a1 | a4\n 11474: a1 = a1 << 0x20\n 11477: a3 = a3 | a1\n 11480: a1 = u8 [a0 + 0x9]\n 11483: a4 = u8 [a0 + 0x8]\n 11486: a5 = u8 [a0 + 0xa]\n 11489: s1 = u8 [a0 + 0xb]\n 11492: a1 = a1 << 0x8\n 11495: a1 = a1 | a4\n 11498: a5 = a5 << 0x10\n 11501: s1 = s1 << 0x18\n 11504: a5 = a5 | s1\n 11507: a1 = a1 | a5\n 11510: a4 = u8 [a0 + 0xd]\n 11513: a5 = u8 [a0 + 0xc]\n 11516: s1 = u8 [a0 + 0xe]\n 11519: a0 = u8 [a0 + 0xf]\n 11522: a4 = a4 << 0x8\n 11525: a4 = a4 | a5\n 11528: s1 = s1 << 0x10\n 11531: a0 = a0 << 0x18\n 11534: a0 = a0 | s1\n 11537: a0 = a0 | a4\n 11540: a0 = a0 << 0x20\n 11543: a0 = a0 | a1\n 11546: a1 = reverse a0\n 11548: a0 = reverse a3\n 11550: a2 = reverse a2\n 11552: a3 = reverse t0\n 11554: a2 = a2 | a3\n 11557: a3 = a0 | a1\n 11560: a3 = a3 | a2\n 11563: a3 = a3 >> 0x20\n 11566: a1 = a1 | a2\n 11569: a1 = a1 << 0x20\n 11572: a1 = a1 | a3\n 11575: jump @207 if a1 == 0\n      : @204 (gas: 1)\n 11578: trap\n      : @205 (gas: 3)\n 11579: a0 = 0\n 11581: a1 = 0\n 11583: ra = 162, jump @0\n      : @206 [@dyn 81] (gas: 7)\n 11589: i32 a1 = a0 + 0\n 11591: a0 = 0x1\n 11594: a2 = 0\n 11596: ecalli 13 // 'seal_return'\n 11598: i32 a0 = a0 + 0\n 11600: ra = 0xa4\n 11604: jump @0\n      : @207 (gas: 2)\n 11607: i32 a0 = a0 + 0\n 11609: ra = 164, jump @0\n      : @208 [@dyn 82] (gas: 6)\n 11615: i32 a1 = a0 + 0\n 11617: a0 = 0\n 11619: a2 = 0\n 11621: ra = 0xa6\n 11625: ecalli 13 // 'seal_return'\n 11627: fallthrough\n      : @209 [@dyn 83] (gas: 47)\n 11628: sp = sp + 0xffffffffffffff80\n 11631: u64 [sp + 0x78] = ra\n 11634: u64 [sp + 0x70] = s0\n 11637: u64 [sp + 0x68] = s1\n 11640: s0 = sp + 0x80\n 11644: sp = sp & 0xffffffffffffffe0\n 11647: ra = u64 [a1 + 0x10]\n 11650: a5 = u64 [a1 + 0x8]\n 11653: a3 = u64 [a2 + 0x8]\n 11656: t1 = u64 [a1]\n 11658: a4 = u64 [a2]\n 11660: u64 [sp + 0x28] = a4\n 11663: t2 = u64 [a2 + 0x10]\n 11666: t0 = a3 ^ a5\n 11669: s1 = a3 <u a5\n 11672: a4 = a4 <u t1\n 11675: u64 [sp + 0x20] = a4\n 11678: s1 = a4 if t0 == 0\n 11681: t0 = u64 [a1 + 0x18]\n 11684: a1 = u64 [a2 + 0x18]\n 11687: u64 [sp + 0x18] = a1\n 11690: a2 = t2 - ra\n 11693: a1 = a2 - s1\n 11696: u64 [sp + 0x30] = a1\n 11699: a1 = a2 <u s1\n 11702: a4 = t2 <u ra\n 11705: u64 [sp + 0x38] = t0\n 11708: a2 = u64 [sp + 0x18]\n 11711: a2 = a2 - t0\n 11714: a2 = a2 - a4\n 11717: a2 = a2 - a1\n 11720: a1 = a3 - a5\n 11723: a3 = u64 [sp + 0x20]\n 11726: a1 = a1 - a3\n 11729: a3 = u64 [sp + 0x28]\n 11732: a3 = a3 - t1\n 11735: a4 = a1 >u 0\n 11737: a3 = a3 <u 0x40\n 11740: a3 = a3 ^ 0x1\n 11743: a3 = a4 if a1 != 0\n 11746: s1 = a2 >s 0\n 11748: a1 = u64 [sp + 0x30]\n 11751: a4 = a1 >u 0\n 11753: a4 = s1 if a2 != 0\n 11756: a1 = a1 | a2\n 11759: a3 = a4 if a1 != 0\n 11762: jump @215 if a3 == 0\n      : @210 (gas: 12)\n 11766: s1 = a0\n 11768: a0 = t1 | ra\n 11771: u64 [sp + 0x30] = a5\n 11774: a1 = u64 [sp + 0x38]\n 11777: a1 = a1 | a5\n 11780: a0 = a0 | a1\n 11783: a0 = a0 >> 0x20\n 11786: u64 [sp + 0x28] = ra\n 11789: a1 = a1 | ra\n 11792: a1 = a1 << 0x20\n 11795: a0 = a0 | a1\n 11798: jump @214 if a0 != 0\n      : @211 (gas: 6)\n 11802: i32 a1 = t1 + 0\n 11804: i32 a0 = sp + 0x40\n 11807: u64 [sp + 0x18] = a1\n 11810: u64 [sp + 0x20] = t1\n 11813: ecalli 3 // 'call_data_load'\n 11815: fallthrough\n      : @212 (gas: 10)\n 11816: a0 = u64 [sp + 0x28]\n 11819: a1 = u64 [sp + 0x38]\n 11822: a0 = a0 | a1\n 11825: a1 = 0xffffffe0\n 11835: a2 = u64 [sp + 0x20]\n 11838: a1 = a2 <u a1\n 11841: a2 = u64 [sp + 0x30]\n 11844: a1 = 0 if a2 != 0\n 11846: a1 = 0 if a0 != 0\n 11848: jump @214 if a1 == 0\n      : @213 (gas: 34)\n 11851: a0 = u64 [sp + 0x58]\n 11854: u64 [sp + 0x20] = a0\n 11857: a0 = u64 [sp + 0x50]\n 11860: u64 [sp + 0x28] = a0\n 11863: a0 = u64 [sp + 0x48]\n 11866: u64 [sp + 0x30] = a0\n 11869: a0 = u64 [sp + 0x40]\n 11872: u64 [sp + 0x38] = a0\n 11875: a0 = u64 [sp + 0x18]\n 11878: i32 a1 = a0 + 0x20\n 11881: i32 a0 = sp + 0x40\n 11884: ecalli 3 // 'call_data_load'\n 11886: a0 = u64 [sp + 0x58]\n 11889: a1 = u64 [sp + 0x50]\n 11892: a2 = u64 [sp + 0x48]\n 11895: a3 = u64 [sp + 0x40]\n 11898: u64 [s1 + 0x38] = a0\n 11901: u64 [s1 + 0x30] = a1\n 11904: u64 [s1 + 0x28] = a2\n 11907: u64 [s1 + 0x20] = a3\n 11910: a0 = u64 [sp + 0x20]\n 11913: u64 [s1 + 0x18] = a0\n 11916: a0 = u64 [sp + 0x28]\n 11919: u64 [s1 + 0x10] = a0\n 11922: a0 = u64 [sp + 0x30]\n 11925: u64 [s1 + 0x8] = a0\n 11928: a0 = u64 [sp + 0x38]\n 11931: u64 [s1] = a0\n 11933: sp = s0 + 0xffffffffffffff80\n 11936: ra = u64 [sp + 0x78]\n 11939: s0 = u64 [sp + 0x70]\n 11942: s1 = u64 [sp + 0x68]\n 11945: sp = sp + 0x80\n 11949: ret\n      : @214 (gas: 1)\n 11951: trap\n      : @215 (gas: 3)\n 11952: a0 = 0\n 11954: a1 = 0\n 11956: ra = 168, jump @0\n      : @216 [@dyn 84] (gas: 6)\n 11962: i32 a1 = a0 + 0\n 11964: a0 = 0x1\n 11967: a2 = 0\n 11969: ra = 0xaa\n 11973: ecalli 13 // 'seal_return'\n 11975: fallthrough\n      : @217 [@dyn 85] (gas: 13)\n 11976: sp = sp + 0xffffffffffffff40\n 11980: u64 [sp + 0xb8] = ra\n 11984: u64 [sp + 0xb0] = s0\n 11988: u64 [sp + 0xa8] = s1\n 11992: s0 = sp + 0xc0\n 11996: sp = sp & 0xffffffffffffffe0\n 11999: u64 [sp + 120] = 0\n 12002: u64 [sp + 112] = 0\n 12005: u64 [sp + 104] = 0\n 12008: u64 [sp + 96] = 0\n 12011: i32 a0 = sp + 0x60\n 12014: ecalli 16 // 'value_transferred'\n 12016: fallthrough\n      : @218 (gas: 8)\n 12017: a0 = u64 [sp + 0x70]\n 12020: a1 = u64 [sp + 0x78]\n 12023: a2 = u64 [sp + 0x68]\n 12026: a3 = u64 [sp + 0x60]\n 12029: a1 = a1 | a2\n 12032: a0 = a0 | a3\n 12035: a0 = a0 | a1\n 12038: jump @224 if a0 != 0\n      : @219 (gas: 2)\n 12042: a0 = i32 [0x20114]\n 12047: jump @224 if a0 <=u 67\n      : @220 (gas: 31)\n 12052: i32 a0 = sp + 0x80\n 12056: a1 = 0x4\n 12059: ecalli 3 // 'call_data_load'\n 12061: a0 = u64 [sp + 0x80]\n 12065: u64 [sp + 0x18] = a0\n 12068: a0 = u64 [sp + 0x88]\n 12072: u64 [sp + 0x10] = a0\n 12075: a0 = u64 [sp + 0x90]\n 12079: u64 [sp + 0x8] = a0\n 12082: s1 = u64 [sp + 0x98]\n 12086: i32 a0 = sp + 0x80\n 12090: a1 = 0x24\n 12093: ecalli 3 // 'call_data_load'\n 12095: a0 = u64 [sp + 0x80]\n 12099: a1 = u64 [sp + 0x88]\n 12103: a2 = u64 [sp + 0x90]\n 12107: a3 = u64 [sp + 0x98]\n 12111: u64 [sp + 0x38] = a3\n 12114: u64 [sp + 0x30] = a2\n 12117: u64 [sp + 0x28] = a1\n 12120: u64 [sp + 0x20] = a0\n 12123: u64 [sp + 0x58] = s1\n 12126: a0 = u64 [sp + 0x8]\n 12129: u64 [sp + 0x50] = a0\n 12132: a0 = u64 [sp + 0x10]\n 12135: u64 [sp + 0x48] = a0\n 12138: a0 = sp + 0x40\n 12141: a1 = sp + 0x20\n 12144: a2 = u64 [sp + 0x18]\n 12147: u64 [sp + 0x40] = a2\n 12150: ra = 172, jump @747\n      : @221 [@dyn 86] (gas: 3)\n 12157: a0 = 0x40\n 12160: a1 = 0x20\n 12163: ra = 174, jump @0\n      : @222 [@dyn 87] (gas: 100)\n 12169: a1 = u8 [a0 + 0x11]\n 12172: a2 = u8 [a0 + 0x10]\n 12175: a3 = u8 [a0 + 0x12]\n 12178: a4 = u8 [a0 + 0x13]\n 12181: a1 = a1 << 0x8\n 12184: a1 = a1 | a2\n 12187: a3 = a3 << 0x10\n 12190: a4 = a4 << 0x18\n 12193: a3 = a3 | a4\n 12196: a1 = a1 | a3\n 12199: a2 = u8 [a0 + 0x15]\n 12202: a3 = u8 [a0 + 0x14]\n 12205: a4 = u8 [a0 + 0x16]\n 12208: a5 = u8 [a0 + 0x17]\n 12211: a2 = a2 << 0x8\n 12214: a2 = a2 | a3\n 12217: a4 = a4 << 0x10\n 12220: a5 = a5 << 0x18\n 12223: a4 = a4 | a5\n 12226: a2 = a2 | a4\n 12229: a2 = a2 << 0x20\n 12232: t0 = a2 | a1\n 12235: a2 = u8 [a0 + 0x1]\n 12238: a3 = u8 [a0]\n 12240: a4 = u8 [a0 + 0x2]\n 12243: a5 = u8 [a0 + 0x3]\n 12246: a2 = a2 << 0x8\n 12249: a2 = a2 | a3\n 12252: a4 = a4 << 0x10\n 12255: a5 = a5 << 0x18\n 12258: a4 = a4 | a5\n 12261: a2 = a2 | a4\n 12264: a3 = u8 [a0 + 0x5]\n 12267: a4 = u8 [a0 + 0x4]\n 12270: a5 = u8 [a0 + 0x6]\n 12273: s1 = u8 [a0 + 0x7]\n 12276: a3 = a3 << 0x8\n 12279: a3 = a3 | a4\n 12282: a5 = a5 << 0x10\n 12285: s1 = s1 << 0x18\n 12288: a5 = a5 | s1\n 12291: a3 = a3 | a5\n 12294: a3 = a3 << 0x20\n 12297: a2 = a2 | a3\n 12300: a3 = u8 [a0 + 0x19]\n 12303: a4 = u8 [a0 + 0x18]\n 12306: a5 = u8 [a0 + 0x1a]\n 12309: s1 = u8 [a0 + 0x1b]\n 12312: a3 = a3 << 0x8\n 12315: a3 = a3 | a4\n 12318: a5 = a5 << 0x10\n 12321: s1 = s1 << 0x18\n 12324: a5 = a5 | s1\n 12327: a3 = a3 | a5\n 12330: a4 = u8 [a0 + 0x1d]\n 12333: a5 = u8 [a0 + 0x1c]\n 12336: s1 = u8 [a0 + 0x1e]\n 12339: a1 = u8 [a0 + 0x1f]\n 12342: a4 = a4 << 0x8\n 12345: a4 = a4 | a5\n 12348: s1 = s1 << 0x10\n 12351: a1 = a1 << 0x18\n 12354: a1 = a1 | s1\n 12357: a1 = a1 | a4\n 12360: a1 = a1 << 0x20\n 12363: a3 = a3 | a1\n 12366: a1 = u8 [a0 + 0x9]\n 12369: a4 = u8 [a0 + 0x8]\n 12372: a5 = u8 [a0 + 0xa]\n 12375: s1 = u8 [a0 + 0xb]\n 12378: a1 = a1 << 0x8\n 12381: a1 = a1 | a4\n 12384: a5 = a5 << 0x10\n 12387: s1 = s1 << 0x18\n 12390: a5 = a5 | s1\n 12393: a1 = a1 | a5\n 12396: a4 = u8 [a0 + 0xd]\n 12399: a5 = u8 [a0 + 0xc]\n 12402: s1 = u8 [a0 + 0xe]\n 12405: a0 = u8 [a0 + 0xf]\n 12408: a4 = a4 << 0x8\n 12411: a4 = a4 | a5\n 12414: s1 = s1 << 0x10\n 12417: a0 = a0 << 0x18\n 12420: a0 = a0 | s1\n 12423: a0 = a0 | a4\n 12426: a0 = a0 << 0x20\n 12429: a0 = a0 | a1\n 12432: a1 = reverse a0\n 12434: a0 = reverse a3\n 12436: a2 = reverse a2\n 12438: a3 = reverse t0\n 12440: a2 = a2 | a3\n 12443: a3 = a0 | a1\n 12446: a3 = a3 | a2\n 12449: a3 = a3 >> 0x20\n 12452: a1 = a1 | a2\n 12455: a1 = a1 << 0x20\n 12458: a1 = a1 | a3\n 12461: jump @226 if a1 == 0\n      : @223 (gas: 1)\n 12464: trap\n      : @224 (gas: 3)\n 12465: a0 = 0\n 12467: a1 = 0\n 12469: ra = 176, jump @0\n      : @225 [@dyn 88] (gas: 7)\n 12475: i32 a1 = a0 + 0\n 12477: a0 = 0x1\n 12480: a2 = 0\n 12482: ecalli 13 // 'seal_return'\n 12484: i32 a0 = a0 + 0\n 12486: ra = 0xb2\n 12490: jump @0\n      : @226 (gas: 2)\n 12493: i32 a0 = a0 + 0\n 12495: ra = 178, jump @0\n      : @227 [@dyn 89] (gas: 6)\n 12501: i32 a1 = a0 + 0\n 12503: a0 = 0\n 12505: a2 = 0\n 12507: ra = 0xb4\n 12511: ecalli 13 // 'seal_return'\n 12513: fallthrough\n      : @228 [@dyn 90] (gas: 44)\n 12514: sp = sp + 0xfffffffffffffe00\n 12518: u64 [sp + 0x1f8] = ra\n 12522: u64 [sp + 0x1f0] = s0\n 12526: u64 [sp + 0x1e8] = s1\n 12530: s0 = sp + 0x200\n 12534: sp = sp & 0xffffffffffffffe0\n 12537: s1 = u64 [a2 + 0x8]\n 12540: t2 = u64 [a1 + 0x8]\n 12543: a5 = u64 [a2]\n 12545: a3 = u64 [a1]\n 12547: t0 = u64 [a2 + 0x10]\n 12550: a4 = s1 ^ t2\n 12553: ra = s1 <u t2\n 12556: t1 = a5 <u a3\n 12559: ra = t1 if a4 == 0\n 12562: u64 [sp + 0x78] = s1\n 12565: a4 = s1 - t2\n 12568: a4 = a4 - t1\n 12571: u64 [sp + 0x68] = a5\n 12574: u64 [sp + 0x98] = a3\n 12578: a5 = a5 - a3\n 12581: a5 = a5 <u 0x40\n 12584: a5 = a5 ^ 0x1\n 12587: t1 = u64 [a1 + 0x10]\n 12590: s1 = a4 >u 0\n 12592: a5 = s1 if a4 != 0\n 12595: a4 = u64 [a2 + 0x18]\n 12598: s1 = u64 [a1 + 0x18]\n 12601: a1 = t0 - t1\n 12604: a2 = a1 - ra\n 12607: ra = a1 <u ra\n 12610: u64 [sp + 0x70] = t0\n 12613: a3 = t0 <u t1\n 12616: a1 = s1\n 12618: u64 [sp + 0x60] = a4\n 12621: a4 = a4 - s1\n 12624: a4 = a4 - a3\n 12627: a4 = a4 - ra\n 12630: s1 = a4 >s 0\n 12632: a3 = a2 >u 0\n 12634: a3 = s1 if a4 != 0\n 12637: a2 = a2 | a4\n 12640: a5 = a3 if a2 != 0\n 12643: jump @239 if a5 == 0\n      : @229 (gas: 13)\n 12647: s1 = a0\n 12649: a2 = u64 [sp + 0x98]\n 12653: a0 = a2 | t1\n 12656: u64 [sp + 0x90] = t2\n 12660: u64 [sp + 0x80] = a1\n 12664: a1 = t2 | a1\n 12667: a0 = a0 | a1\n 12670: a0 = a0 >> 0x20\n 12673: u64 [sp + 0x88] = t1\n 12677: a1 = a1 | t1\n 12680: a1 = a1 << 0x20\n 12683: a0 = a0 | a1\n 12686: jump @238 if a0 != 0\n      : @230 (gas: 5)\n 12690: i32 a1 = a2 + 0\n 12692: i32 a0 = sp + 0x1a0\n 12696: u64 [sp + 0x58] = a1\n 12699: ecalli 3 // 'call_data_load'\n 12701: fallthrough\n      : @231 (gas: 7)\n 12702: t0 = u64 [sp + 0x1b8]\n 12706: a1 = u64 [sp + 0x1b0]\n 12710: a2 = u64 [sp + 0x1a8]\n 12714: a3 = a1 | t0\n 12717: a4 = a2 <u 0x1\n 12720: a4 = 0 if a3 != 0\n 12722: jump @239 if a4 == 0\n      : @232 (gas: 35)\n 12726: a3 = u64 [sp + 0x1a0]\n 12730: a4 = u64 [sp + 0x98]\n 12734: a4 = a4 + a3\n 12737: a3 = a4 <u a3\n 12740: a5 = u64 [sp + 0x90]\n 12744: a5 = a5 + a2\n 12747: a5 = a5 + a3\n 12750: a0 = a5 ^ a2\n 12753: a2 = a5 <u a2\n 12756: a2 = a3 if a0 == 0\n 12759: a0 = u64 [sp + 0x88]\n 12763: a0 = a0 + a1\n 12766: a2 = a2 + a0\n 12769: a3 = a2 <u a0\n 12772: a0 = a0 <u a1\n 12775: a1 = u64 [sp + 0x80]\n 12779: t0 = t0 + a1\n 12782: a0 = a0 + t0\n 12785: a3 = a3 + a0\n 12788: a0 = u64 [sp + 0x68]\n 12791: u64 [sp + 0x120] = a0\n 12795: a0 = u64 [sp + 0x78]\n 12798: u64 [sp + 0x128] = a0\n 12802: u64 [sp + 0x140] = a4\n 12806: a0 = u64 [sp + 0x70]\n 12809: u64 [sp + 0x130] = a0\n 12813: a0 = u64 [sp + 0x60]\n 12816: u64 [sp + 0x138] = a0\n 12820: u64 [sp + 0x148] = a5\n 12824: u64 [sp + 0x150] = a2\n 12828: a0 = sp + 0x160\n 12832: a1 = sp + 0x140\n 12836: a2 = sp + 0x120\n 12840: u64 [sp + 0x158] = a3\n 12844: ra = 182, jump @174\n      : @233 [@dyn 91] (gas: 10)\n 12850: a0 = u64 [sp + 0x88]\n 12854: a1 = u64 [sp + 0x80]\n 12858: a0 = a0 | a1\n 12861: a1 = 0xffffffe0\n 12871: a2 = u64 [sp + 0x98]\n 12875: a1 = a2 <u a1\n 12878: a2 = u64 [sp + 0x90]\n 12882: a1 = 0 if a2 != 0\n 12884: a1 = 0 if a0 != 0\n 12886: jump @238 if a1 == 0\n      : @234 (gas: 21)\n 12890: a0 = u64 [sp + 0x198]\n 12894: u64 [sp + 0x38] = a0\n 12897: a0 = u64 [sp + 0x190]\n 12901: u64 [sp + 0x18] = a0\n 12904: a0 = u64 [sp + 0x188]\n 12908: u64 [sp + 0x40] = a0\n 12911: a0 = u64 [sp + 0x180]\n 12915: u64 [sp + 0x20] = a0\n 12918: a0 = u64 [sp + 0x178]\n 12922: u64 [sp + 0x48] = a0\n 12925: a0 = u64 [sp + 0x170]\n 12929: u64 [sp + 0x28] = a0\n 12932: a0 = u64 [sp + 0x168]\n 12936: u64 [sp + 0x50] = a0\n 12939: a0 = u64 [sp + 0x160]\n 12943: u64 [sp + 0x30] = a0\n 12946: a0 = u64 [sp + 0x58]\n 12949: i32 a1 = a0 + 0x20\n 12952: i32 a0 = sp + 0x1c0\n 12956: ecalli 3 // 'call_data_load'\n 12958: fallthrough\n      : @235 (gas: 7)\n 12959: t0 = u64 [sp + 0x1d8]\n 12963: a1 = u64 [sp + 0x1d0]\n 12967: a2 = u64 [sp + 0x1c8]\n 12971: a3 = a1 | t0\n 12974: a4 = a2 <u 0x1\n 12977: a4 = 0 if a3 != 0\n 12979: jump @239 if a4 == 0\n      : @236 (gas: 35)\n 12983: a3 = u64 [sp + 0x1c0]\n 12987: a4 = u64 [sp + 0x98]\n 12991: a4 = a4 + a3\n 12994: a3 = a4 <u a3\n 12997: a5 = u64 [sp + 0x90]\n 13001: a5 = a5 + a2\n 13004: a5 = a5 + a3\n 13007: a0 = a5 ^ a2\n 13010: a2 = a5 <u a2\n 13013: a2 = a3 if a0 == 0\n 13016: a0 = u64 [sp + 0x88]\n 13020: a0 = a0 + a1\n 13023: a2 = a2 + a0\n 13026: a3 = a2 <u a0\n 13029: a0 = a0 <u a1\n 13032: a1 = u64 [sp + 0x80]\n 13036: t0 = t0 + a1\n 13039: a0 = a0 + t0\n 13042: a3 = a3 + a0\n 13045: a0 = u64 [sp + 0x68]\n 13048: u64 [sp + 0xa0] = a0\n 13052: a0 = u64 [sp + 0x78]\n 13055: u64 [sp + 0xa8] = a0\n 13059: u64 [sp + 0xc0] = a4\n 13063: a0 = u64 [sp + 0x70]\n 13066: u64 [sp + 0xb0] = a0\n 13070: a0 = u64 [sp + 0x60]\n 13073: u64 [sp + 0xb8] = a0\n 13077: u64 [sp + 0xc8] = a5\n 13081: u64 [sp + 0xd0] = a2\n 13085: a0 = sp + 0xe0\n 13089: a1 = sp + 0xc0\n 13093: a2 = sp + 0xa0\n 13097: u64 [sp + 0xd8] = a3\n 13101: ra = 184, jump @174\n      : @237 [@dyn 92] (gas: 38)\n 13107: t0 = u64 [sp + 0xe8]\n 13111: t1 = u64 [sp + 0xe0]\n 13115: a2 = u64 [sp + 0xf8]\n 13119: a3 = u64 [sp + 0xf0]\n 13123: a4 = u64 [sp + 0x110]\n 13127: a5 = u64 [sp + 0x118]\n 13131: a0 = u64 [sp + 0x100]\n 13135: a1 = u64 [sp + 0x108]\n 13139: u64 [s1 + 0x70] = a4\n 13142: u64 [s1 + 0x78] = a5\n 13145: u64 [s1 + 0x60] = a0\n 13148: u64 [s1 + 0x68] = a1\n 13151: u64 [s1 + 0x50] = a3\n 13154: u64 [s1 + 0x58] = a2\n 13157: u64 [s1 + 0x40] = t1\n 13160: u64 [s1 + 0x48] = t0\n 13163: a0 = u64 [sp + 0x18]\n 13166: u64 [s1 + 0x30] = a0\n 13169: a0 = u64 [sp + 0x38]\n 13172: u64 [s1 + 0x38] = a0\n 13175: a0 = u64 [sp + 0x20]\n 13178: u64 [s1 + 0x20] = a0\n 13181: a0 = u64 [sp + 0x40]\n 13184: u64 [s1 + 0x28] = a0\n 13187: a0 = u64 [sp + 0x28]\n 13190: u64 [s1 + 0x10] = a0\n 13193: a0 = u64 [sp + 0x48]\n 13196: u64 [s1 + 0x18] = a0\n 13199: a0 = u64 [sp + 0x30]\n 13202: u64 [s1] = a0\n 13204: a0 = u64 [sp + 0x50]\n 13207: u64 [s1 + 0x8] = a0\n 13210: sp = s0 + 0xfffffffffffffe00\n 13214: ra = u64 [sp + 0x1f8]\n 13218: s0 = u64 [sp + 0x1f0]\n 13222: s1 = u64 [sp + 0x1e8]\n 13226: sp = sp + 0x200\n 13230: ret\n      : @238 (gas: 1)\n 13232: trap\n      : @239 (gas: 3)\n 13233: a0 = 0\n 13235: a1 = 0\n 13237: ra = 186, jump @0\n      : @240 [@dyn 93] (gas: 6)\n 13243: i32 a1 = a0 + 0\n 13245: a0 = 0x1\n 13248: a2 = 0\n 13250: ra = 0xbc\n 13254: ecalli 13 // 'seal_return'\n 13256: fallthrough\n      : @241 [@dyn 94] (gas: 16)\n 13257: sp = sp + 0xffffffffffffff88\n 13260: u64 [sp + 0x70] = ra\n 13263: u64 [sp + 0x68] = s0\n 13266: u64 [sp + 0x60] = s1\n 13269: a5 = u64 [a1 + 0x10]\n 13272: s1 = u64 [a1 + 0x18]\n 13275: a4 = u64 [a1 + 0x8]\n 13278: s0 = u64 [a1]\n 13280: a1 = a4 | s1\n 13283: a3 = s0 | a5\n 13286: a3 = a3 | a1\n 13289: a3 = a3 >> 0x20\n 13292: a1 = a1 | a5\n 13295: a1 = a1 << 0x20\n 13298: a1 = a1 | a3\n 13301: jump @254 if a1 != 0\n      : @242 (gas: 16)\n 13305: u64 [sp + 0x28] = s1\n 13308: u64 [sp + 0x30] = a5\n 13311: u64 [sp + 0x40] = a4\n 13314: u64 [sp] = a0\n 13316: a0 = u64 [a2 + 0x18]\n 13319: u64 [sp + 0x58] = a0\n 13322: s1 = u64 [a2 + 0x10]\n 13325: a0 = u64 [a2 + 0x8]\n 13328: u64 [sp + 0x50] = a0\n 13331: a0 = u64 [a2]\n 13333: u64 [sp + 0x48] = a0\n 13336: u64 [sp + 0x20] = s0\n 13339: i32 a0 = s0 + 0\n 13341: a1 = 0x20\n 13344: u64 [sp + 0x8] = a0\n 13347: ra = 190, jump @0\n      : @243 [@dyn 95] (gas: 12)\n 13353: t0 = u64 [sp + 0x48]\n 13356: a1 = t0 | s1\n 13359: a2 = u64 [sp + 0x58]\n 13362: a3 = u64 [sp + 0x50]\n 13365: a2 = a2 | a3\n 13368: a1 = a1 | a2\n 13371: a1 = a1 >> 0x20\n 13374: u64 [sp + 0x38] = s1\n 13377: a2 = a2 | s1\n 13380: a2 = a2 << 0x20\n 13383: a1 = a1 | a2\n 13386: jump @254 if a1 != 0\n      : @244 (gas: 93)\n 13390: a1 = u8 [a0 + 0x19]\n 13393: a2 = u8 [a0 + 0x18]\n 13396: a3 = u8 [a0 + 0x1a]\n 13399: a4 = u8 [a0 + 0x1b]\n 13402: a1 = a1 << 0x8\n 13405: a1 = a1 | a2\n 13408: a3 = a3 << 0x10\n 13411: a4 = a4 << 0x18\n 13414: a3 = a3 | a4\n 13417: a1 = a1 | a3\n 13420: a2 = u8 [a0 + 0x1d]\n 13423: a3 = u8 [a0 + 0x1c]\n 13426: a4 = u8 [a0 + 0x1e]\n 13429: a5 = u8 [a0 + 0x1f]\n 13432: a2 = a2 << 0x8\n 13435: a2 = a2 | a3\n 13438: a4 = a4 << 0x10\n 13441: a5 = a5 << 0x18\n 13444: a4 = a4 | a5\n 13447: a2 = a2 | a4\n 13450: a2 = a2 << 0x20\n 13453: a1 = a1 | a2\n 13456: u64 [sp + 0x18] = a1\n 13459: a1 = u8 [a0 + 0x11]\n 13462: a2 = u8 [a0 + 0x10]\n 13465: a3 = u8 [a0 + 0x12]\n 13468: a4 = u8 [a0 + 0x13]\n 13471: a1 = a1 << 0x8\n 13474: a1 = a1 | a2\n 13477: a3 = a3 << 0x10\n 13480: a4 = a4 << 0x18\n 13483: a3 = a3 | a4\n 13486: a1 = a1 | a3\n 13489: a2 = u8 [a0 + 0x15]\n 13492: a3 = u8 [a0 + 0x14]\n 13495: a4 = u8 [a0 + 0x16]\n 13498: a5 = u8 [a0 + 0x17]\n 13501: a2 = a2 << 0x8\n 13504: a2 = a2 | a3\n 13507: a4 = a4 << 0x10\n 13510: a5 = a5 << 0x18\n 13513: a4 = a4 | a5\n 13516: a2 = a2 | a4\n 13519: a2 = a2 << 0x20\n 13522: a1 = a1 | a2\n 13525: u64 [sp + 0x10] = a1\n 13528: a1 = u8 [a0 + 0x9]\n 13531: a2 = u8 [a0 + 0x8]\n 13534: a3 = u8 [a0 + 0xa]\n 13537: a4 = u8 [a0 + 0xb]\n 13540: a1 = a1 << 0x8\n 13543: a1 = a1 | a2\n 13546: a3 = a3 << 0x10\n 13549: a4 = a4 << 0x18\n 13552: a3 = a3 | a4\n 13555: a1 = a1 | a3\n 13558: a2 = u8 [a0 + 0xd]\n 13561: a3 = u8 [a0 + 0xc]\n 13564: a4 = u8 [a0 + 0xe]\n 13567: a5 = u8 [a0 + 0xf]\n 13570: a2 = a2 << 0x8\n 13573: a2 = a2 | a3\n 13576: a4 = a4 << 0x10\n 13579: a5 = a5 << 0x18\n 13582: a4 = a4 | a5\n 13585: a2 = a2 | a4\n 13588: a2 = a2 << 0x20\n 13591: s1 = a2 | a1\n 13594: a1 = u8 [a0 + 0x1]\n 13597: a2 = u8 [a0]\n 13599: a3 = u8 [a0 + 0x2]\n 13602: a4 = u8 [a0 + 0x3]\n 13605: a1 = a1 << 0x8\n 13608: a1 = a1 | a2\n 13611: a3 = a3 << 0x10\n 13614: a4 = a4 << 0x18\n 13617: a3 = a3 | a4\n 13620: a1 = a1 | a3\n 13623: a2 = u8 [a0 + 0x5]\n 13626: a3 = u8 [a0 + 0x4]\n 13629: a4 = u8 [a0 + 0x6]\n 13632: a0 = u8 [a0 + 0x7]\n 13635: a2 = a2 << 0x8\n 13638: a2 = a2 | a3\n 13641: a4 = a4 << 0x10\n 13644: a0 = a0 << 0x18\n 13647: a0 = a0 | a4\n 13650: a0 = a0 | a2\n 13653: a0 = a0 << 0x20\n 13656: s0 = a0 | a1\n 13659: i32 a0 = t0 + 0\n 13661: a1 = 0x20\n 13664: ra = 192, jump @0\n      : @245 [@dyn 96] (gas: 73)\n 13670: a4 = s1\n 13672: a2 = u64 [sp + 0x10]\n 13675: s1 = u64 [sp + 0x18]\n 13678: t0 = u64 [sp + 0x48]\n 13681: a1 = a4 >> 0x38\n 13684: u8 [a0 + 0xf] = a1\n 13687: a1 = a4 >> 0x30\n 13690: u8 [a0 + 0xe] = a1\n 13693: a1 = a4 >> 0x28\n 13696: u8 [a0 + 0xd] = a1\n 13699: a1 = a4 >> 0x20\n 13702: u8 [a0 + 0xc] = a1\n 13705: a1 = a4 >> 0x18\n 13708: u8 [a0 + 0xb] = a1\n 13711: a1 = a4 >> 0x10\n 13714: u8 [a0 + 0xa] = a1\n 13717: a1 = a4 >> 0x8\n 13720: u8 [a0 + 0x9] = a1\n 13723: a1 = s0 >> 0x38\n 13726: u8 [a0 + 0x7] = a1\n 13729: a1 = s0 >> 0x30\n 13732: u8 [a0 + 0x6] = a1\n 13735: a1 = s0 >> 0x28\n 13738: u8 [a0 + 0x5] = a1\n 13741: a1 = s0 >> 0x20\n 13744: u8 [a0 + 0x4] = a1\n 13747: a1 = s0 >> 0x18\n 13750: u8 [a0 + 0x3] = a1\n 13753: a1 = s0 >> 0x10\n 13756: u8 [a0 + 0x2] = a1\n 13759: a1 = s0 >> 0x8\n 13762: u8 [a0 + 0x1] = a1\n 13765: a1 = a2 >> 0x38\n 13768: u8 [a0 + 0x17] = a1\n 13771: a1 = a2 >> 0x30\n 13774: u8 [a0 + 0x16] = a1\n 13777: a1 = a2 >> 0x28\n 13780: u8 [a0 + 0x15] = a1\n 13783: a1 = a2 >> 0x20\n 13786: u8 [a0 + 0x14] = a1\n 13789: a1 = a2 >> 0x18\n 13792: u8 [a0 + 0x13] = a1\n 13795: a1 = a2 >> 0x10\n 13798: u8 [a0 + 0x12] = a1\n 13801: a1 = a2 >> 0x8\n 13804: u8 [a0 + 0x11] = a1\n 13807: a1 = s1 >> 0x38\n 13810: u8 [a0 + 0x1f] = a1\n 13813: a1 = s1 >> 0x30\n 13816: u8 [a0 + 0x1e] = a1\n 13819: a1 = s1 >> 0x28\n 13822: u8 [a0 + 0x1d] = a1\n 13825: a1 = s1 >> 0x20\n 13828: u8 [a0 + 0x1c] = a1\n 13831: a1 = s1 >> 0x18\n 13834: u8 [a0 + 0x1b] = a1\n 13837: a1 = s1 >> 0x10\n 13840: u8 [a0 + 0x1a] = a1\n 13843: a1 = s1 >> 0x8\n 13846: u8 [a0 + 0x19] = a1\n 13849: ra = u64 [sp + 0x58]\n 13852: t2 = u64 [sp + 0x38]\n 13855: t1 = t2 | ra\n 13858: a1 = 0xffffffe0\n 13868: a3 = t0 <u a1\n 13871: a5 = u64 [sp + 0x50]\n 13874: a3 = 0 if a5 != 0\n 13876: a3 = 0 if t1 != 0\n 13878: u8 [a0 + 0x10] = a2\n 13881: u8 [a0 + 0x8] = a4\n 13884: u8 [a0] = s0\n 13886: u8 [a0 + 0x18] = s1\n 13889: jump @254 if a3 == 0\n      : @246 (gas: 9)\n 13893: a0 = u64 [sp + 0x30]\n 13896: a3 = u64 [sp + 0x28]\n 13899: a0 = a0 | a3\n 13902: a3 = u64 [sp + 0x20]\n 13905: a1 = a3 <u a1\n 13908: a3 = u64 [sp + 0x40]\n 13911: a1 = 0 if a3 != 0\n 13913: a1 = 0 if a0 != 0\n 13915: jump @254 if a1 == 0\n      : @247 (gas: 15)\n 13919: a1 = reverse s0\n 13921: a3 = reverse a4\n 13923: a4 = reverse a2\n 13925: s0 = reverse s1\n 13927: a0 = s0 | a3\n 13930: u64 [sp + 0x30] = a1\n 13933: u64 [sp + 0x20] = a4\n 13936: a1 = a1 | a4\n 13939: a0 = a0 | a1\n 13942: a0 = a0 >> 0x20\n 13945: u64 [sp + 0x28] = a3\n 13948: a1 = a1 | a3\n 13951: a1 = a1 << 0x20\n 13954: a0 = a0 | a1\n 13957: jump @254 if a0 != 0\n      : @248 (gas: 19)\n 13961: a3 = t0 + 0x20\n 13964: u64 [sp + 0x40] = a3\n 13967: a0 = a3 <u t0\n 13970: a1 = a5 + a0\n 13973: u64 [sp + 0x48] = a1\n 13976: a1 = a1 <u a5\n 13979: a1 = a0 if a0 == 0\n 13982: a1 = a1 + t2\n 13985: u64 [sp + 0x50] = a1\n 13988: a0 = a1 <u t2\n 13991: a0 = a0 + ra\n 13994: u64 [sp + 0x58] = a0\n 13997: i32 a0 = a3 + 0\n 13999: a1 = u64 [sp + 0x8]\n 14002: i32 a1 = a1 + 0x20\n 14005: u64 [sp + 0x38] = a1\n 14008: i32 s1 = s0 + 0\n 14010: a1 = s1\n 14012: ra = 194, jump @0\n      : @249 [@dyn 97] (gas: 5)\n 14018: u64 [sp + 0x18] = a0\n 14021: a0 = u64 [sp + 0x38]\n 14024: a1 = s1\n 14026: s1 = s0\n 14028: ra = 196, jump @0\n      : @250 [@dyn 98] (gas: 4)\n 14034: a1 = a0\n 14036: a0 = u64 [sp + 0x18]\n 14039: a2 = s0\n 14041: ra = 198, jump @8\n      : @251 [@dyn 99] (gas: 29)\n 14047: a0 = u64 [sp + 0x40]\n 14050: a0 = a0 + s0\n 14053: a1 = a0 <u s0\n 14056: a4 = u64 [sp + 0x20]\n 14059: a2 = u64 [sp + 0x48]\n 14062: a2 = a2 + a4\n 14065: a2 = a2 + a1\n 14068: a3 = a2 ^ a4\n 14071: a4 = a2 <u a4\n 14074: a4 = a1 if a3 == 0\n 14077: a5 = u64 [sp + 0x28]\n 14080: a1 = u64 [sp + 0x50]\n 14083: a1 = a1 + a5\n 14086: a4 = a4 + a1\n 14089: a3 = a4 <u a1\n 14092: a1 = a1 <u a5\n 14095: a5 = u64 [sp + 0x30]\n 14098: s0 = u64 [sp + 0x58]\n 14101: a5 = a5 + s0\n 14104: a1 = a1 + a5\n 14107: a1 = a1 + a3\n 14110: a3 = a0 | a4\n 14113: a1 = a1 | a2\n 14116: a3 = a3 | a1\n 14119: a3 = a3 >> 0x20\n 14122: a1 = a1 | a4\n 14125: a1 = a1 << 0x20\n 14128: a1 = a1 | a3\n 14131: jump @254 if a1 != 0\n      : @252 (gas: 3)\n 14135: i32 a0 = a0 + 0\n 14137: a1 = 0x20\n 14140: ra = 200, jump @0\n      : @253 [@dyn 100] (gas: 56)\n 14146: u8 [a0 + 31] = 0\n 14149: u8 [a0 + 30] = 0\n 14152: u8 [a0 + 29] = 0\n 14155: u8 [a0 + 28] = 0\n 14158: u8 [a0 + 27] = 0\n 14161: u8 [a0 + 26] = 0\n 14164: u8 [a0 + 25] = 0\n 14167: u8 [a0 + 24] = 0\n 14170: u8 [a0 + 23] = 0\n 14173: u8 [a0 + 22] = 0\n 14176: u8 [a0 + 21] = 0\n 14179: u8 [a0 + 20] = 0\n 14182: u8 [a0 + 19] = 0\n 14185: u8 [a0 + 18] = 0\n 14188: u8 [a0 + 17] = 0\n 14191: u8 [a0 + 16] = 0\n 14194: u8 [a0 + 15] = 0\n 14197: u8 [a0 + 14] = 0\n 14200: u8 [a0 + 13] = 0\n 14203: u8 [a0 + 12] = 0\n 14206: u8 [a0 + 11] = 0\n 14209: u8 [a0 + 10] = 0\n 14212: u8 [a0 + 9] = 0\n 14215: u8 [a0 + 8] = 0\n 14218: u8 [a0 + 7] = 0\n 14221: u8 [a0 + 6] = 0\n 14224: u8 [a0 + 5] = 0\n 14227: u8 [a0 + 4] = 0\n 14230: u8 [a0 + 3] = 0\n 14233: u8 [a0 + 2] = 0\n 14236: u8 [a0 + 1] = 0\n 14239: u8 [a0 + 0] = 0\n 14241: a0 = s1 + 0x1f\n 14244: a1 = 0x1ffffffe0\n 14254: a0 = a0 & a1\n 14257: a1 = u64 [sp + 0x40]\n 14260: a1 = a1 + a0\n 14263: a0 = a1 <u a0\n 14266: a2 = u64 [sp + 0x48]\n 14269: a2 = a2 + a0\n 14272: a0 = 0 if a2 != 0\n 14274: a3 = u64 [sp + 0x50]\n 14277: a0 = a0 + a3\n 14280: a3 = a0 <u a3\n 14283: a4 = u64 [sp + 0x58]\n 14286: a3 = a3 + a4\n 14289: a4 = u64 [sp]\n 14291: u64 [a4] = a1\n 14293: u64 [a4 + 0x8] = a2\n 14296: u64 [a4 + 0x10] = a0\n 14299: u64 [a4 + 0x18] = a3\n 14302: ra = u64 [sp + 0x70]\n 14305: s0 = u64 [sp + 0x68]\n 14308: s1 = u64 [sp + 0x60]\n 14311: sp = sp + 0x78\n 14314: ret\n      : @254 (gas: 1)\n 14316: trap\n      : @255 (gas: 8)\n 14317: a0 = u64 [sp + 0x230]\n 14321: a1 = u64 [sp + 0x238]\n 14325: a2 = u64 [sp + 0x228]\n 14329: a3 = u64 [sp + 0x220]\n 14333: a1 = a1 | a2\n 14336: a0 = a0 | a3\n 14339: a0 = a0 | a1\n 14342: jump @264 if a0 != 0\n      : @256 (gas: 13)\n 14346: a0 = u32 [0x20114]\n 14351: u64 [sp + 376] = 0\n 14355: u64 [sp + 368] = 0\n 14359: u64 [sp + 360] = 0\n 14363: u64 [sp + 0x160] = a0\n 14367: u64 [sp + 408] = 0\n 14371: u64 [sp + 400] = 0\n 14375: u64 [sp + 384] = 0x4\n 14380: a0 = sp + 0x1a0\n 14384: a1 = sp + 0x180\n 14388: a2 = sp + 0x160\n 14392: u64 [sp + 392] = 0\n 14396: ra = 202, jump @228\n      : @257 [@dyn 101] (gas: 48)\n 14402: a0 = u64 [sp + 0x1a0]\n 14406: u64 [sp + 0x58] = a0\n 14409: a0 = u64 [sp + 0x1a8]\n 14413: u64 [sp + 0x50] = a0\n 14416: a0 = u64 [sp + 0x1b0]\n 14420: u64 [sp + 0x48] = a0\n 14423: a0 = u64 [sp + 0x1b8]\n 14427: u64 [sp + 0x40] = a0\n 14430: a0 = u64 [sp + 0x1c0]\n 14434: u64 [sp + 0x38] = a0\n 14437: ra = u64 [sp + 0x1c8]\n 14441: s1 = u64 [sp + 0x1d0]\n 14445: t2 = u64 [sp + 0x1d8]\n 14449: t1 = u64 [sp + 0x1e0]\n 14453: t0 = u64 [sp + 0x1e8]\n 14457: a5 = u64 [sp + 0x1f0]\n 14461: a4 = u64 [sp + 0x1f8]\n 14465: a3 = u64 [sp + 0x200]\n 14469: a2 = u64 [sp + 0x208]\n 14473: a1 = u64 [sp + 0x210]\n 14477: a0 = u64 [sp + 0x218]\n 14481: u64 [sp + 0xd8] = a0\n 14485: u64 [sp + 0xd0] = a1\n 14489: u64 [sp + 0xc8] = a2\n 14493: u64 [sp + 0xc0] = a3\n 14497: u64 [sp + 0xf8] = a4\n 14501: u64 [sp + 0xf0] = a5\n 14505: u64 [sp + 0xe8] = t0\n 14509: u64 [sp + 0xe0] = t1\n 14513: u64 [sp + 0x118] = t2\n 14517: u64 [sp + 0x110] = s1\n 14521: u64 [sp + 0x108] = ra\n 14525: a0 = u64 [sp + 0x38]\n 14528: u64 [sp + 0x100] = a0\n 14532: a0 = u64 [sp + 0x40]\n 14535: u64 [sp + 0x138] = a0\n 14539: a0 = u64 [sp + 0x48]\n 14542: u64 [sp + 0x130] = a0\n 14546: a0 = u64 [sp + 0x50]\n 14549: u64 [sp + 0x128] = a0\n 14553: a0 = sp + 0x140\n 14557: a1 = sp + 0x120\n 14561: a2 = sp + 0x100\n 14565: a3 = sp + 0xe0\n 14569: a4 = sp + 0xc0\n 14573: a5 = u64 [sp + 0x58]\n 14576: u64 [sp + 0x120] = a5\n 14580: ra = 204, jump @812\n      : @258 [@dyn 102] (gas: 11)\n 14587: a0 = u64 [sp + 0x158]\n 14591: u64 [sp + 0x40] = a0\n 14594: a0 = u64 [sp + 0x150]\n 14598: u64 [sp + 0x48] = a0\n 14601: a0 = u64 [sp + 0x148]\n 14605: u64 [sp + 0x50] = a0\n 14608: a0 = u64 [sp + 0x140]\n 14612: u64 [sp + 0x58] = a0\n 14615: a0 = 0x40\n 14618: a1 = 0x20\n 14621: ra = 206, jump @0\n      : @259 [@dyn 103] (gas: 100)\n 14627: a1 = u8 [a0 + 0x11]\n 14630: a2 = u8 [a0 + 0x10]\n 14633: a3 = u8 [a0 + 0x12]\n 14636: a4 = u8 [a0 + 0x13]\n 14639: a1 = a1 << 0x8\n 14642: a1 = a1 | a2\n 14645: a3 = a3 << 0x10\n 14648: a4 = a4 << 0x18\n 14651: a3 = a3 | a4\n 14654: a1 = a1 | a3\n 14657: a2 = u8 [a0 + 0x15]\n 14660: a3 = u8 [a0 + 0x14]\n 14663: a4 = u8 [a0 + 0x16]\n 14666: a5 = u8 [a0 + 0x17]\n 14669: a2 = a2 << 0x8\n 14672: a2 = a2 | a3\n 14675: a4 = a4 << 0x10\n 14678: a5 = a5 << 0x18\n 14681: a4 = a4 | a5\n 14684: a2 = a2 | a4\n 14687: a2 = a2 << 0x20\n 14690: t0 = a2 | a1\n 14693: a2 = u8 [a0 + 0x1]\n 14696: a3 = u8 [a0]\n 14698: a4 = u8 [a0 + 0x2]\n 14701: a5 = u8 [a0 + 0x3]\n 14704: a2 = a2 << 0x8\n 14707: a2 = a2 | a3\n 14710: a4 = a4 << 0x10\n 14713: a5 = a5 << 0x18\n 14716: a4 = a4 | a5\n 14719: a2 = a2 | a4\n 14722: a3 = u8 [a0 + 0x5]\n 14725: a4 = u8 [a0 + 0x4]\n 14728: a5 = u8 [a0 + 0x6]\n 14731: s1 = u8 [a0 + 0x7]\n 14734: a3 = a3 << 0x8\n 14737: a3 = a3 | a4\n 14740: a5 = a5 << 0x10\n 14743: s1 = s1 << 0x18\n 14746: a5 = a5 | s1\n 14749: a3 = a3 | a5\n 14752: a3 = a3 << 0x20\n 14755: a2 = a2 | a3\n 14758: a3 = u8 [a0 + 0x19]\n 14761: a4 = u8 [a0 + 0x18]\n 14764: a5 = u8 [a0 + 0x1a]\n 14767: s1 = u8 [a0 + 0x1b]\n 14770: a3 = a3 << 0x8\n 14773: a3 = a3 | a4\n 14776: a5 = a5 << 0x10\n 14779: s1 = s1 << 0x18\n 14782: a5 = a5 | s1\n 14785: a3 = a3 | a5\n 14788: a4 = u8 [a0 + 0x1d]\n 14791: a5 = u8 [a0 + 0x1c]\n 14794: s1 = u8 [a0 + 0x1e]\n 14797: a1 = u8 [a0 + 0x1f]\n 14800: a4 = a4 << 0x8\n 14803: a4 = a4 | a5\n 14806: s1 = s1 << 0x10\n 14809: a1 = a1 << 0x18\n 14812: a1 = a1 | s1\n 14815: a1 = a1 | a4\n 14818: a1 = a1 << 0x20\n 14821: a3 = a3 | a1\n 14824: a1 = u8 [a0 + 0x9]\n 14827: a4 = u8 [a0 + 0x8]\n 14830: a5 = u8 [a0 + 0xa]\n 14833: s1 = u8 [a0 + 0xb]\n 14836: a1 = a1 << 0x8\n 14839: a1 = a1 | a4\n 14842: a5 = a5 << 0x10\n 14845: s1 = s1 << 0x18\n 14848: a5 = a5 | s1\n 14851: a1 = a1 | a5\n 14854: a4 = u8 [a0 + 0xd]\n 14857: a5 = u8 [a0 + 0xc]\n 14860: s1 = u8 [a0 + 0xe]\n 14863: a0 = u8 [a0 + 0xf]\n 14866: a4 = a4 << 0x8\n 14869: a4 = a4 | a5\n 14872: s1 = s1 << 0x10\n 14875: a0 = a0 << 0x18\n 14878: a0 = a0 | s1\n 14881: a0 = a0 | a4\n 14884: a0 = a0 << 0x20\n 14887: a0 = a0 | a1\n 14890: s1 = reverse a0\n 14892: a3 = reverse a3\n 14894: a4 = reverse a2\n 14896: a2 = reverse t0\n 14898: a0 = a2 | a4\n 14901: a1 = a3 | s1\n 14904: a1 = a1 | a0\n 14907: a1 = a1 >> 0x20\n 14910: a0 = a0 | s1\n 14913: a0 = a0 << 0x20\n 14916: a0 = a0 | a1\n 14919: jump @263 if a0 != 0\n      : @260 (gas: 19)\n 14923: a0 = a3 + 0x20\n 14926: u64 [sp + 0x18] = a0\n 14929: a0 = a0 <u a3\n 14932: a1 = a2 + a0\n 14935: u64 [sp + 0x8] = a1\n 14938: a1 = a1 <u a2\n 14941: a1 = a0 if a0 == 0\n 14944: a1 = a1 + s1\n 14947: u64 [sp + 0x10] = a1\n 14950: a0 = a1 <u s1\n 14953: a0 = a0 + a4\n 14956: u64 [sp + 0x20] = a0\n 14959: i32 a0 = a3 + 0\n 14961: a1 = 0x20\n 14964: u64 [sp] = a0\n 14966: u64 [sp + 0x30] = a3\n 14969: u64 [sp + 0x28] = a2\n 14972: u64 [sp + 0x38] = a4\n 14975: ra = 208, jump @0\n      : @261 [@dyn 104] (gas: 52)\n 14981: u8 [a0 + 31] = 0x20\n 14985: u8 [a0 + 30] = 0\n 14988: u8 [a0 + 29] = 0\n 14991: u8 [a0 + 28] = 0\n 14994: u8 [a0 + 27] = 0\n 14997: u8 [a0 + 26] = 0\n 15000: u8 [a0 + 25] = 0\n 15003: u8 [a0 + 24] = 0\n 15006: u8 [a0 + 23] = 0\n 15009: u8 [a0 + 22] = 0\n 15012: u8 [a0 + 21] = 0\n 15015: u8 [a0 + 20] = 0\n 15018: u8 [a0 + 19] = 0\n 15021: u8 [a0 + 18] = 0\n 15024: u8 [a0 + 17] = 0\n 15027: u8 [a0 + 16] = 0\n 15030: u8 [a0 + 15] = 0\n 15033: u8 [a0 + 14] = 0\n 15036: u8 [a0 + 13] = 0\n 15039: u8 [a0 + 12] = 0\n 15042: u8 [a0 + 11] = 0\n 15045: u8 [a0 + 10] = 0\n 15048: u8 [a0 + 9] = 0\n 15051: u8 [a0 + 8] = 0\n 15054: u8 [a0 + 7] = 0\n 15057: u8 [a0 + 6] = 0\n 15060: u8 [a0 + 5] = 0\n 15063: u8 [a0 + 4] = 0\n 15066: u8 [a0 + 3] = 0\n 15069: u8 [a0 + 2] = 0\n 15072: u8 [a0 + 1] = 0\n 15075: u8 [a0 + 0] = 0\n 15077: a0 = u64 [sp + 0x8]\n 15080: u64 [sp + 0x68] = a0\n 15083: a0 = u64 [sp + 0x18]\n 15086: u64 [sp + 0x60] = a0\n 15089: a0 = u64 [sp + 0x40]\n 15092: u64 [sp + 0x98] = a0\n 15096: a0 = u64 [sp + 0x48]\n 15099: u64 [sp + 0x90] = a0\n 15103: a0 = u64 [sp + 0x50]\n 15106: u64 [sp + 0x88] = a0\n 15110: a0 = u64 [sp + 0x58]\n 15113: u64 [sp + 0x80] = a0\n 15117: a0 = u64 [sp + 0x10]\n 15120: u64 [sp + 0x70] = a0\n 15123: a0 = sp + 0xa0\n 15127: a1 = sp + 0x80\n 15131: a2 = sp + 0x60\n 15134: a3 = u64 [sp + 0x20]\n 15137: u64 [sp + 0x78] = a3\n 15140: ra = 210, jump @241\n      : @262 [@dyn 105] (gas: 30)\n 15146: a0 = u64 [sp + 0xa8]\n 15150: t0 = u64 [sp + 0xb8]\n 15154: t1 = u64 [sp + 0xa0]\n 15158: a3 = u64 [sp + 0xb0]\n 15162: a1 = u64 [sp + 0x28]\n 15165: a4 = a0 ^ a1\n 15168: a5 = a0 <u a1\n 15171: t2 = a1\n 15173: a2 = u64 [sp + 0x30]\n 15176: a1 = t1 <u a2\n 15179: a5 = a1 if a4 == 0\n 15182: a4 = a3 - s1\n 15185: a3 = a3 <u s1\n 15188: s1 = u64 [sp + 0x38]\n 15191: s1 = t0 - s1\n 15194: s1 = s1 - a3\n 15197: a3 = a4 <u a5\n 15200: s1 = s1 - a3\n 15203: a4 = a4 - a5\n 15206: a0 = a0 - t2\n 15209: a1 = a0 - a1\n 15212: a0 = t1 - a2\n 15215: a1 = a1 | s1\n 15218: a2 = a0 | a4\n 15221: a2 = a2 | a1\n 15224: a1 = a1 | a4\n 15227: a2 = a2 >> 0x20\n 15230: a1 = a1 << 0x20\n 15233: a1 = a1 | a2\n 15236: jump @266 if a1 == 0\n      : @263 (gas: 1)\n 15239: trap\n      : @264 (gas: 3)\n 15240: a0 = 0\n 15242: a1 = 0\n 15244: ra = 212, jump @0\n      : @265 [@dyn 106] (gas: 5)\n 15250: i32 a1 = a0 + 0\n 15252: a0 = 0x1\n 15255: a2 = 0\n 15257: ecalli 13 // 'seal_return'\n 15259: fallthrough\n      : @266 (gas: 4)\n 15260: i32 s1 = a0 + 0\n 15262: a0 = u64 [sp]\n 15264: a1 = s1\n 15266: ra = 214, jump @0\n      : @267 [@dyn 107] (gas: 6)\n 15272: i32 a1 = a0 + 0\n 15274: a0 = 0\n 15276: a2 = s1\n 15278: ra = 0xd8\n 15282: ecalli 13 // 'seal_return'\n 15284: fallthrough\n      : @268 [@dyn 108] (gas: 25)\n 15285: sp = sp + 0xffffffffffffff80\n 15288: u64 [sp + 0x78] = ra\n 15291: u64 [sp + 0x70] = s0\n 15294: u64 [sp + 0x68] = s1\n 15297: s0 = sp + 0x80\n 15301: sp = sp & 0xffffffffffffffe0\n 15304: a3 = u64 [a1]\n 15306: u64 [sp + 0x30] = a3\n 15309: a3 = u64 [a1 + 0x8]\n 15312: u64 [sp + 0x28] = a3\n 15315: a3 = u64 [a1 + 0x10]\n 15318: u64 [sp + 0x20] = a3\n 15321: a1 = u64 [a1 + 0x18]\n 15324: u64 [sp + 0x18] = a1\n 15327: a1 = u64 [a2]\n 15329: u64 [sp + 0x10] = a1\n 15332: a1 = u64 [a2 + 0x8]\n 15335: u64 [sp + 0x8] = a1\n 15338: a1 = u64 [a2 + 0x10]\n 15341: u64 [sp] = a1\n 15343: s1 = u64 [a2 + 0x18]\n 15346: u64 [sp + 0x38] = a0\n 15349: a1 = 0x20\n 15352: a0 = 0\n 15354: ra = 218, jump @0\n      : @269 [@dyn 109] (gas: 70)\n 15360: a1 = reverse s1\n 15362: a2 = u64 [sp]\n 15364: a2 = reverse a2\n 15366: a3 = u64 [sp + 0x8]\n 15369: a3 = reverse a3\n 15371: a4 = u64 [sp + 0x10]\n 15374: a4 = reverse a4\n 15376: a5 = a4 >> 0x38\n 15379: u8 [a0 + 0x1f] = a5\n 15382: a5 = a4 >> 0x30\n 15385: u8 [a0 + 0x1e] = a5\n 15388: a5 = a4 >> 0x28\n 15391: u8 [a0 + 0x1d] = a5\n 15394: a5 = a4 >> 0x20\n 15397: u8 [a0 + 0x1c] = a5\n 15400: a5 = a4 >> 0x18\n 15403: u8 [a0 + 0x1b] = a5\n 15406: a5 = a4 >> 0x10\n 15409: u8 [a0 + 0x1a] = a5\n 15412: a5 = a4 >> 0x8\n 15415: u8 [a0 + 0x19] = a5\n 15418: u8 [a0 + 0x18] = a4\n 15421: a4 = a3 >> 0x38\n 15424: u8 [a0 + 0x17] = a4\n 15427: a4 = a3 >> 0x30\n 15430: u8 [a0 + 0x16] = a4\n 15433: a4 = a3 >> 0x28\n 15436: u8 [a0 + 0x15] = a4\n 15439: a4 = a3 >> 0x20\n 15442: u8 [a0 + 0x14] = a4\n 15445: a4 = a3 >> 0x18\n 15448: u8 [a0 + 0x13] = a4\n 15451: a4 = a3 >> 0x10\n 15454: u8 [a0 + 0x12] = a4\n 15457: a4 = a3 >> 0x8\n 15460: u8 [a0 + 0x11] = a4\n 15463: u8 [a0 + 0x10] = a3\n 15466: a3 = a2 >> 0x38\n 15469: u8 [a0 + 0xf] = a3\n 15472: a3 = a2 >> 0x30\n 15475: u8 [a0 + 0xe] = a3\n 15478: a3 = a2 >> 0x28\n 15481: u8 [a0 + 0xd] = a3\n 15484: a3 = a2 >> 0x20\n 15487: u8 [a0 + 0xc] = a3\n 15490: a3 = a2 >> 0x18\n 15493: u8 [a0 + 0xb] = a3\n 15496: a3 = a2 >> 0x10\n 15499: u8 [a0 + 0xa] = a3\n 15502: a3 = a2 >> 0x8\n 15505: u8 [a0 + 0x9] = a3\n 15508: u8 [a0 + 0x8] = a2\n 15511: a2 = a1 >> 0x38\n 15514: u8 [a0 + 0x7] = a2\n 15517: a2 = a1 >> 0x30\n 15520: u8 [a0 + 0x6] = a2\n 15523: a2 = a1 >> 0x28\n 15526: u8 [a0 + 0x5] = a2\n 15529: a2 = a1 >> 0x20\n 15532: u8 [a0 + 0x4] = a2\n 15535: a2 = a1 >> 0x18\n 15538: u8 [a0 + 0x3] = a2\n 15541: a2 = a1 >> 0x10\n 15544: u8 [a0 + 0x2] = a2\n 15547: a2 = a1 >> 0x8\n 15550: u8 [a0 + 0x1] = a2\n 15553: u8 [a0] = a1\n 15555: a0 = 0x20\n 15558: a1 = 0x20\n 15561: ra = 220, jump @0\n      : @270 [@dyn 110] (gas: 71)\n 15567: a1 = u64 [sp + 0x18]\n 15570: a1 = reverse a1\n 15572: a2 = u64 [sp + 0x20]\n 15575: a2 = reverse a2\n 15577: a3 = u64 [sp + 0x28]\n 15580: a3 = reverse a3\n 15582: a4 = u64 [sp + 0x30]\n 15585: a4 = reverse a4\n 15587: a5 = a4 >> 0x38\n 15590: u8 [a0 + 0x1f] = a5\n 15593: a5 = a4 >> 0x30\n 15596: u8 [a0 + 0x1e] = a5\n 15599: a5 = a4 >> 0x28\n 15602: u8 [a0 + 0x1d] = a5\n 15605: a5 = a4 >> 0x20\n 15608: u8 [a0 + 0x1c] = a5\n 15611: a5 = a4 >> 0x18\n 15614: u8 [a0 + 0x1b] = a5\n 15617: a5 = a4 >> 0x10\n 15620: u8 [a0 + 0x1a] = a5\n 15623: a5 = a4 >> 0x8\n 15626: u8 [a0 + 0x19] = a5\n 15629: u8 [a0 + 0x18] = a4\n 15632: a4 = a3 >> 0x38\n 15635: u8 [a0 + 0x17] = a4\n 15638: a4 = a3 >> 0x30\n 15641: u8 [a0 + 0x16] = a4\n 15644: a4 = a3 >> 0x28\n 15647: u8 [a0 + 0x15] = a4\n 15650: a4 = a3 >> 0x20\n 15653: u8 [a0 + 0x14] = a4\n 15656: a4 = a3 >> 0x18\n 15659: u8 [a0 + 0x13] = a4\n 15662: a4 = a3 >> 0x10\n 15665: u8 [a0 + 0x12] = a4\n 15668: a4 = a3 >> 0x8\n 15671: u8 [a0 + 0x11] = a4\n 15674: u8 [a0 + 0x10] = a3\n 15677: a3 = a2 >> 0x38\n 15680: u8 [a0 + 0xf] = a3\n 15683: a3 = a2 >> 0x30\n 15686: u8 [a0 + 0xe] = a3\n 15689: a3 = a2 >> 0x28\n 15692: u8 [a0 + 0xd] = a3\n 15695: a3 = a2 >> 0x20\n 15698: u8 [a0 + 0xc] = a3\n 15701: a3 = a2 >> 0x18\n 15704: u8 [a0 + 0xb] = a3\n 15707: a3 = a2 >> 0x10\n 15710: u8 [a0 + 0xa] = a3\n 15713: a3 = a2 >> 0x8\n 15716: u8 [a0 + 0x9] = a3\n 15719: u8 [a0 + 0x8] = a2\n 15722: a2 = a1 >> 0x38\n 15725: u8 [a0 + 0x7] = a2\n 15728: a2 = a1 >> 0x30\n 15731: u8 [a0 + 0x6] = a2\n 15734: a2 = a1 >> 0x28\n 15737: u8 [a0 + 0x5] = a2\n 15740: a2 = a1 >> 0x20\n 15743: u8 [a0 + 0x4] = a2\n 15746: a2 = a1 >> 0x18\n 15749: u8 [a0 + 0x3] = a2\n 15752: a2 = a1 >> 0x10\n 15755: u8 [a0 + 0x2] = a2\n 15758: a2 = a1 >> 0x8\n 15761: u8 [a0 + 0x1] = a2\n 15764: u8 [a0] = a1\n 15766: a1 = 0x40\n 15769: a0 = 0\n 15771: ra = 222, jump @0\n      : @271 [@dyn 111] (gas: 23)\n 15777: i32 a0 = a0 + 0\n 15779: i32 a2 = sp + 0x40\n 15782: a1 = 0x40\n 15785: ecalli 8 // 'hash_keccak_256'\n 15787: a0 = u64 [sp + 0x58]\n 15790: a1 = u64 [sp + 0x50]\n 15793: a2 = u64 [sp + 0x48]\n 15796: a3 = u64 [sp + 0x40]\n 15799: a0 = reverse a0\n 15801: a1 = reverse a1\n 15803: a2 = reverse a2\n 15805: a3 = reverse a3\n 15807: a4 = u64 [sp + 0x38]\n 15810: u64 [a4 + 0x18] = a3\n 15813: u64 [a4 + 0x10] = a2\n 15816: u64 [a4 + 0x8] = a1\n 15819: u64 [a4] = a0\n 15821: sp = s0 + 0xffffffffffffff80\n 15824: ra = u64 [sp + 0x78]\n 15827: s0 = u64 [sp + 0x70]\n 15830: s1 = u64 [sp + 0x68]\n 15833: sp = sp + 0x80\n 15837: ret\n      : @272 [@dyn 112] (gas: 70)\n 15839: a1 = reverse s1\n 15841: a2 = u64 [sp + 0x40]\n 15844: a2 = reverse a2\n 15846: a3 = u64 [sp + 0x48]\n 15849: a3 = reverse a3\n 15851: a4 = u64 [sp + 0x58]\n 15854: a4 = reverse a4\n 15856: a5 = a4 >> 0x38\n 15859: u8 [a0 + 0x1f] = a5\n 15862: a5 = a4 >> 0x30\n 15865: u8 [a0 + 0x1e] = a5\n 15868: a5 = a4 >> 0x28\n 15871: u8 [a0 + 0x1d] = a5\n 15874: a5 = a4 >> 0x20\n 15877: u8 [a0 + 0x1c] = a5\n 15880: a5 = a4 >> 0x18\n 15883: u8 [a0 + 0x1b] = a5\n 15886: a5 = a4 >> 0x10\n 15889: u8 [a0 + 0x1a] = a5\n 15892: a5 = a4 >> 0x8\n 15895: u8 [a0 + 0x19] = a5\n 15898: u8 [a0 + 0x18] = a4\n 15901: a4 = a3 >> 0x38\n 15904: u8 [a0 + 0x17] = a4\n 15907: a4 = a3 >> 0x30\n 15910: u8 [a0 + 0x16] = a4\n 15913: a4 = a3 >> 0x28\n 15916: u8 [a0 + 0x15] = a4\n 15919: a4 = a3 >> 0x20\n 15922: u8 [a0 + 0x14] = a4\n 15925: a4 = a3 >> 0x18\n 15928: u8 [a0 + 0x13] = a4\n 15931: a4 = a3 >> 0x10\n 15934: u8 [a0 + 0x12] = a4\n 15937: a4 = a3 >> 0x8\n 15940: u8 [a0 + 0x11] = a4\n 15943: u8 [a0 + 0x10] = a3\n 15946: a3 = a2 >> 0x38\n 15949: u8 [a0 + 0xf] = a3\n 15952: a3 = a2 >> 0x30\n 15955: u8 [a0 + 0xe] = a3\n 15958: a3 = a2 >> 0x28\n 15961: u8 [a0 + 0xd] = a3\n 15964: a3 = a2 >> 0x20\n 15967: u8 [a0 + 0xc] = a3\n 15970: a3 = a2 >> 0x18\n 15973: u8 [a0 + 0xb] = a3\n 15976: a3 = a2 >> 0x10\n 15979: u8 [a0 + 0xa] = a3\n 15982: a3 = a2 >> 0x8\n 15985: u8 [a0 + 0x9] = a3\n 15988: u8 [a0 + 0x8] = a2\n 15991: a2 = a1 >> 0x38\n 15994: u8 [a0 + 0x7] = a2\n 15997: a2 = a1 >> 0x30\n 16000: u8 [a0 + 0x6] = a2\n 16003: a2 = a1 >> 0x28\n 16006: u8 [a0 + 0x5] = a2\n 16009: a2 = a1 >> 0x20\n 16012: u8 [a0 + 0x4] = a2\n 16015: a2 = a1 >> 0x18\n 16018: u8 [a0 + 0x3] = a2\n 16021: a2 = a1 >> 0x10\n 16024: u8 [a0 + 0x2] = a2\n 16027: a2 = a1 >> 0x8\n 16030: u8 [a0 + 0x1] = a2\n 16033: u8 [a0] = a1\n 16035: a0 = 0x20\n 16038: a1 = 0x20\n 16041: ra = 226, jump @0\n      : @273 [@dyn 113] (gas: 35)\n 16047: u8 [a0 + 31] = 0x3\n 16051: u8 [a0 + 30] = 0\n 16054: u8 [a0 + 29] = 0\n 16057: u8 [a0 + 28] = 0\n 16060: u8 [a0 + 27] = 0\n 16063: u8 [a0 + 26] = 0\n 16066: u8 [a0 + 25] = 0\n 16069: u8 [a0 + 24] = 0\n 16072: u8 [a0 + 23] = 0\n 16075: u8 [a0 + 22] = 0\n 16078: u8 [a0 + 21] = 0\n 16081: u8 [a0 + 20] = 0\n 16084: u8 [a0 + 19] = 0\n 16087: u8 [a0 + 18] = 0\n 16090: u8 [a0 + 17] = 0\n 16093: u8 [a0 + 16] = 0\n 16096: u8 [a0 + 15] = 0\n 16099: u8 [a0 + 14] = 0\n 16102: u8 [a0 + 13] = 0\n 16105: u8 [a0 + 12] = 0\n 16108: u8 [a0 + 11] = 0\n 16111: u8 [a0 + 10] = 0\n 16114: u8 [a0 + 9] = 0\n 16117: u8 [a0 + 8] = 0\n 16120: u8 [a0 + 7] = 0\n 16123: u8 [a0 + 6] = 0\n 16126: u8 [a0 + 5] = 0\n 16129: u8 [a0 + 4] = 0\n 16132: u8 [a0 + 3] = 0\n 16135: u8 [a0 + 2] = 0\n 16138: u8 [a0 + 1] = 0\n 16141: u8 [a0 + 0] = 0\n 16143: a1 = 0x40\n 16146: a0 = 0\n 16148: ra = 228, jump @0\n      : @274 [@dyn 114] (gas: 14)\n 16154: i32 a0 = a0 + 0\n 16156: i32 a2 = sp + 0xa0\n 16160: a1 = 0x40\n 16163: ecalli 8 // 'hash_keccak_256'\n 16165: a0 = u64 [sp + 0xa0]\n 16169: u64 [sp + 0x58] = a0\n 16172: a0 = u64 [sp + 0xa8]\n 16176: u64 [sp + 0x48] = a0\n 16179: a0 = u64 [sp + 0xb0]\n 16183: u64 [sp + 0x40] = a0\n 16186: s1 = u64 [sp + 0xb8]\n 16190: a1 = 0x20\n 16193: a0 = 0\n 16195: ra = 230, jump @0\n      : @275 [@dyn 115] (gas: 71)\n 16201: a1 = u64 [sp + 0x60]\n 16204: a1 = reverse a1\n 16206: a2 = u64 [sp + 0x68]\n 16209: a2 = reverse a2\n 16211: a3 = u64 [sp + 0x70]\n 16214: a3 = reverse a3\n 16216: a4 = u64 [sp + 0x78]\n 16219: a4 = reverse a4\n 16221: a5 = a4 >> 0x38\n 16224: u8 [a0 + 0x1f] = a5\n 16227: a5 = a4 >> 0x30\n 16230: u8 [a0 + 0x1e] = a5\n 16233: a5 = a4 >> 0x28\n 16236: u8 [a0 + 0x1d] = a5\n 16239: a5 = a4 >> 0x20\n 16242: u8 [a0 + 0x1c] = a5\n 16245: a5 = a4 >> 0x18\n 16248: u8 [a0 + 0x1b] = a5\n 16251: a5 = a4 >> 0x10\n 16254: u8 [a0 + 0x1a] = a5\n 16257: a5 = a4 >> 0x8\n 16260: u8 [a0 + 0x19] = a5\n 16263: u8 [a0 + 0x18] = a4\n 16266: a4 = a3 >> 0x38\n 16269: u8 [a0 + 0x17] = a4\n 16272: a4 = a3 >> 0x30\n 16275: u8 [a0 + 0x16] = a4\n 16278: a4 = a3 >> 0x28\n 16281: u8 [a0 + 0x15] = a4\n 16284: a4 = a3 >> 0x20\n 16287: u8 [a0 + 0x14] = a4\n 16290: a4 = a3 >> 0x18\n 16293: u8 [a0 + 0x13] = a4\n 16296: a4 = a3 >> 0x10\n 16299: u8 [a0 + 0x12] = a4\n 16302: a4 = a3 >> 0x8\n 16305: u8 [a0 + 0x11] = a4\n 16308: u8 [a0 + 0x10] = a3\n 16311: a3 = a2 >> 0x38\n 16314: u8 [a0 + 0xf] = a3\n 16317: a3 = a2 >> 0x30\n 16320: u8 [a0 + 0xe] = a3\n 16323: a3 = a2 >> 0x28\n 16326: u8 [a0 + 0xd] = a3\n 16329: a3 = a2 >> 0x20\n 16332: u8 [a0 + 0xc] = a3\n 16335: a3 = a2 >> 0x18\n 16338: u8 [a0 + 0xb] = a3\n 16341: a3 = a2 >> 0x10\n 16344: u8 [a0 + 0xa] = a3\n 16347: a3 = a2 >> 0x8\n 16350: u8 [a0 + 0x9] = a3\n 16353: u8 [a0 + 0x8] = a2\n 16356: a2 = a1 >> 0x38\n 16359: u8 [a0 + 0x7] = a2\n 16362: a2 = a1 >> 0x30\n 16365: u8 [a0 + 0x6] = a2\n 16368: a2 = a1 >> 0x28\n 16371: u8 [a0 + 0x5] = a2\n 16374: a2 = a1 >> 0x20\n 16377: u8 [a0 + 0x4] = a2\n 16380: a2 = a1 >> 0x18\n 16383: u8 [a0 + 0x3] = a2\n 16386: a2 = a1 >> 0x10\n 16389: u8 [a0 + 0x2] = a2\n 16392: a2 = a1 >> 0x8\n 16395: u8 [a0 + 0x1] = a2\n 16398: u8 [a0] = a1\n 16400: a0 = 0x20\n 16403: a1 = 0x20\n 16406: ra = 232, jump @0\n      : @276 [@dyn 116] (gas: 66)\n 16412: a1 = s1 >> 0x38\n 16415: u8 [a0 + 0x1f] = a1\n 16418: a1 = s1 >> 0x30\n 16421: u8 [a0 + 0x1e] = a1\n 16424: a1 = s1 >> 0x28\n 16427: u8 [a0 + 0x1d] = a1\n 16430: a1 = s1 >> 0x20\n 16433: u8 [a0 + 0x1c] = a1\n 16436: a1 = s1 >> 0x18\n 16439: u8 [a0 + 0x1b] = a1\n 16442: a1 = s1 >> 0x10\n 16445: u8 [a0 + 0x1a] = a1\n 16448: a1 = s1 >> 0x8\n 16451: u8 [a0 + 0x19] = a1\n 16454: u8 [a0 + 0x18] = s1\n 16457: a2 = u64 [sp + 0x40]\n 16460: a1 = a2 >> 0x38\n 16463: u8 [a0 + 0x17] = a1\n 16466: a1 = a2 >> 0x30\n 16469: u8 [a0 + 0x16] = a1\n 16472: a1 = a2 >> 0x28\n 16475: u8 [a0 + 0x15] = a1\n 16478: a1 = a2 >> 0x20\n 16481: u8 [a0 + 0x14] = a1\n 16484: a1 = a2 >> 0x18\n 16487: u8 [a0 + 0x13] = a1\n 16490: a1 = a2 >> 0x10\n 16493: u8 [a0 + 0x12] = a1\n 16496: a1 = a2 >> 0x8\n 16499: u8 [a0 + 0x11] = a1\n 16502: u8 [a0 + 0x10] = a2\n 16505: a2 = u64 [sp + 0x48]\n 16508: a1 = a2 >> 0x38\n 16511: u8 [a0 + 0xf] = a1\n 16514: a1 = a2 >> 0x30\n 16517: u8 [a0 + 0xe] = a1\n 16520: a1 = a2 >> 0x28\n 16523: u8 [a0 + 0xd] = a1\n 16526: a1 = a2 >> 0x20\n 16529: u8 [a0 + 0xc] = a1\n 16532: a1 = a2 >> 0x18\n 16535: u8 [a0 + 0xb] = a1\n 16538: a1 = a2 >> 0x10\n 16541: u8 [a0 + 0xa] = a1\n 16544: a1 = a2 >> 0x8\n 16547: u8 [a0 + 0x9] = a1\n 16550: u8 [a0 + 0x8] = a2\n 16553: a2 = u64 [sp + 0x58]\n 16556: a1 = a2 >> 0x38\n 16559: u8 [a0 + 0x7] = a1\n 16562: a1 = a2 >> 0x30\n 16565: u8 [a0 + 0x6] = a1\n 16568: a1 = a2 >> 0x28\n 16571: u8 [a0 + 0x5] = a1\n 16574: a1 = a2 >> 0x20\n 16577: u8 [a0 + 0x4] = a1\n 16580: a1 = a2 >> 0x18\n 16583: u8 [a0 + 0x3] = a1\n 16586: a1 = a2 >> 0x10\n 16589: u8 [a0 + 0x2] = a1\n 16592: a1 = a2 >> 0x8\n 16595: u8 [a0 + 0x1] = a1\n 16598: u8 [a0] = a2\n 16600: a1 = 0x40\n 16603: a0 = 0\n 16605: ra = 234, jump @0\n      : @277 [@dyn 117] (gas: 179)\n 16611: i32 a0 = a0 + 0\n 16613: i32 a2 = sp + 0xa0\n 16617: a1 = 0x40\n 16620: ecalli 8 // 'hash_keccak_256'\n 16622: a0 = u64 [sp + 0xb8]\n 16626: a1 = u64 [sp + 0xb0]\n 16630: a2 = u64 [sp + 0xa8]\n 16634: a3 = u64 [sp + 0xa0]\n 16638: s1 = reverse a0\n 16640: a1 = reverse a1\n 16642: u64 [sp + 0x70] = a1\n 16645: a2 = reverse a2\n 16647: u64 [sp + 0x58] = a2\n 16650: a0 = reverse a3\n 16652: u64 [sp + 0x78] = a0\n 16655: u64 [sp + 0x98] = a0\n 16659: u64 [sp + 0x90] = a2\n 16663: u64 [sp + 0x88] = a1\n 16667: u64 [sp + 0x80] = s1\n 16671: u64 [sp + 0x60] = s1\n 16674: u64 [sp + 184] = 0\n 16678: u64 [sp + 176] = 0\n 16682: u64 [sp + 168] = 0\n 16686: u64 [sp + 160] = 0\n 16690: u32 [sp + 192] = 0x20\n 16695: i32 a1 = sp + 0x80\n 16699: i32 a3 = sp + 0xa0\n 16703: i32 a4 = sp + 0xc0\n 16707: a2 = 0xffffffffffffffff\n 16710: a0 = 0\n 16712: ecalli 7 // 'get_storage'\n 16714: a0 = s1 + 0x1\n 16717: a1 = a0 <u 0x1\n 16720: a2 = u64 [sp + 0x70]\n 16723: a1 = a1 + a2\n 16726: a2 = a0 | a1\n 16729: a2 = a2 <u 0x1\n 16732: a3 = u64 [sp + 0x58]\n 16735: a2 = a2 + a3\n 16738: a3 = a2 <u a3\n 16741: a4 = u64 [sp + 0x78]\n 16744: a3 = a3 + a4\n 16747: u64 [sp + 0x98] = a3\n 16751: u64 [sp + 0x90] = a2\n 16755: a2 = u64 [sp + 0xa0]\n 16759: u64 [sp + 0x48] = a2\n 16762: u64 [sp + 0x88] = a1\n 16766: a1 = u64 [sp + 0xa8]\n 16770: u64 [sp + 0x40] = a1\n 16773: u64 [sp + 0x80] = a0\n 16777: a0 = u32 [sp + 0xb0]\n 16781: u64 [sp + 0x38] = a0\n 16784: u64 [sp + 184] = 0\n 16788: u64 [sp + 176] = 0\n 16792: u64 [sp + 168] = 0\n 16796: u64 [sp + 160] = 0\n 16800: u32 [sp + 192] = 0x20\n 16805: i32 a1 = sp + 0x80\n 16809: i32 a3 = sp + 0xa0\n 16813: i32 a4 = sp + 0xc0\n 16817: a2 = 0xffffffffffffffff\n 16820: a0 = 0\n 16822: ecalli 7 // 'get_storage'\n 16824: a0 = u64 [sp + 0xa0]\n 16828: u64 [sp + 0x30] = a0\n 16831: a0 = u64 [sp + 0xa8]\n 16835: u64 [sp + 0x28] = a0\n 16838: a0 = u64 [sp + 0xb0]\n 16842: u64 [sp + 0x20] = a0\n 16845: a0 = u64 [sp + 0xb8]\n 16849: u64 [sp + 0x18] = a0\n 16852: a0 = u64 [sp + 0x60]\n 16855: a1 = a0 + 0x2\n 16858: a0 = a1 <u a0\n 16861: a2 = a1\n 16863: u64 [sp + 0x68] = a1\n 16866: a1 = u64 [sp + 0x70]\n 16869: a3 = a1 + a0\n 16872: u64 [sp + 0x60] = a3\n 16875: s1 = a3 <u a1\n 16878: s1 = a0 if a0 == 0\n 16881: a0 = u64 [sp + 0x58]\n 16884: s1 = s1 + a0\n 16887: a0 = s1 <u a0\n 16890: a1 = u64 [sp + 0x78]\n 16893: a0 = a0 + a1\n 16896: u64 [sp + 0x78] = a0\n 16899: u64 [sp + 0x98] = a0\n 16903: u64 [sp + 0x90] = s1\n 16907: u64 [sp + 0x88] = a3\n 16911: u64 [sp + 0x80] = a2\n 16915: u64 [sp + 184] = 0\n 16919: u64 [sp + 176] = 0\n 16923: u64 [sp + 168] = 0\n 16927: u64 [sp + 160] = 0\n 16931: u32 [sp + 192] = 0x20\n 16936: i32 a1 = sp + 0x80\n 16940: i32 a3 = sp + 0xa0\n 16944: i32 a4 = sp + 0xc0\n 16948: a2 = 0xffffffffffffffff\n 16951: a0 = 0\n 16953: ecalli 7 // 'get_storage'\n 16955: a0 = u8 [sp + 0xa0]\n 16959: u64 [sp + 0x70] = a0\n 16962: a0 = u64 [sp + 0x78]\n 16965: u64 [sp + 0x98] = a0\n 16969: u64 [sp + 0x90] = s1\n 16973: a0 = u64 [sp + 0x60]\n 16976: u64 [sp + 0x88] = a0\n 16980: a0 = u64 [sp + 0x68]\n 16983: u64 [sp + 0x80] = a0\n 16987: u64 [sp + 184] = 0\n 16991: u64 [sp + 176] = 0\n 16995: u64 [sp + 168] = 0\n 16999: u64 [sp + 160] = 0\n 17003: u32 [sp + 192] = 0x20\n 17008: i32 a1 = sp + 0x80\n 17012: i32 a3 = sp + 0xa0\n 17016: i32 a4 = sp + 0xc0\n 17020: a2 = 0xffffffffffffffff\n 17023: a0 = 0\n 17025: ecalli 7 // 'get_storage'\n 17027: a0 = u8 [sp + 0xa1]\n 17031: u64 [sp + 0x58] = a0\n 17034: a0 = u64 [sp + 0x78]\n 17037: u64 [sp + 0x98] = a0\n 17041: u64 [sp + 0x90] = s1\n 17045: a0 = u64 [sp + 0x60]\n 17048: u64 [sp + 0x88] = a0\n 17052: a0 = u64 [sp + 0x68]\n 17055: u64 [sp + 0x80] = a0\n 17059: u64 [sp + 184] = 0\n 17063: u64 [sp + 176] = 0\n 17067: u64 [sp + 168] = 0\n 17071: u64 [sp + 160] = 0\n 17075: u32 [sp + 192] = 0x20\n 17080: i32 a1 = sp + 0x80\n 17084: i32 a3 = sp + 0xa0\n 17088: i32 a4 = sp + 0xc0\n 17092: a2 = 0xffffffffffffffff\n 17095: a0 = 0\n 17097: ecalli 7 // 'get_storage'\n 17099: a0 = u8 [sp + 0xa2]\n 17103: a1 = u64 [sp + 0x50]\n 17106: u64 [a1 + 152] = 0\n 17110: u64 [a1 + 144] = 0\n 17114: u64 [a1 + 136] = 0\n 17118: u64 [a1 + 0x80] = a0\n 17122: u64 [a1 + 120] = 0\n 17125: u64 [a1 + 112] = 0\n 17128: u64 [a1 + 104] = 0\n 17131: a0 = u64 [sp + 0x58]\n 17134: u64 [a1 + 0x60] = a0\n 17137: u64 [a1 + 88] = 0\n 17140: u64 [a1 + 80] = 0\n 17143: u64 [a1 + 72] = 0\n 17146: a0 = u64 [sp + 0x70]\n 17149: u64 [a1 + 0x40] = a0\n 17152: a0 = u64 [sp + 0x18]\n 17155: u64 [a1 + 0x38] = a0\n 17158: a0 = u64 [sp + 0x20]\n 17161: u64 [a1 + 0x30] = a0\n 17164: a0 = u64 [sp + 0x28]\n 17167: u64 [a1 + 0x28] = a0\n 17170: a0 = u64 [sp + 0x30]\n 17173: u64 [a1 + 0x20] = a0\n 17176: u64 [a1 + 24] = 0\n 17179: a0 = u64 [sp + 0x38]\n 17182: u64 [a1 + 0x10] = a0\n 17185: a0 = u64 [sp + 0x40]\n 17188: u64 [a1 + 0x8] = a0\n 17191: a0 = u64 [sp + 0x48]\n 17194: u64 [a1] = a0\n 17196: sp = s0 + 0xffffffffffffff20\n 17200: ra = u64 [sp + 0xd8]\n 17204: s0 = u64 [sp + 0xd0]\n 17208: s1 = u64 [sp + 0xc8]\n 17212: sp = sp + 0xe0\n 17216: ret\n      : @278 (gas: 21)\n 17218: sp = sp + 0xffffffffffffff30\n 17222: u64 [sp + 0xc8] = ra\n 17226: u64 [sp + 0xc0] = s0\n 17230: u64 [sp + 0xb8] = s1\n 17234: s0 = u64 [a1 + 0x10]\n 17237: t0 = u64 [a1 + 0x18]\n 17240: s1 = u64 [a1 + 0x8]\n 17243: a1 = u64 [a1]\n 17245: u64 [sp + 0xa8] = s1\n 17249: u64 [sp + 0x88] = t0\n 17253: t0 = s1 | t0\n 17256: u64 [sp + 0xb0] = a1\n 17260: s1 = a1 | s0\n 17263: s1 = s1 | t0\n 17266: s1 = s1 >> 0x20\n 17269: u64 [sp + 0x90] = s0\n 17273: a1 = t0 | s0\n 17276: a1 = a1 << 0x20\n 17279: a1 = a1 | s1\n 17282: u64 [sp + 0x40] = a0\n 17285: jump @289 if a1 != 0\n      : @279 (gas: 43)\n 17289: a0 = u64 [sp + 0xd0]\n 17293: a1 = u64 [a0 + 0x18]\n 17296: u64 [sp + 0x18] = a1\n 17299: a1 = u64 [a0 + 0x10]\n 17302: u64 [sp + 0x8] = a1\n 17305: a1 = u64 [a0 + 0x8]\n 17308: u64 [sp + 0x10] = a1\n 17311: a0 = u64 [a0]\n 17313: u64 [sp] = a0\n 17315: a0 = u64 [a5 + 0x18]\n 17318: u64 [sp + 0x38] = a0\n 17321: a0 = u64 [a5 + 0x10]\n 17324: u64 [sp + 0x28] = a0\n 17327: a0 = u64 [a5 + 0x8]\n 17330: u64 [sp + 0x30] = a0\n 17333: a0 = u64 [a5]\n 17335: u64 [sp + 0x20] = a0\n 17338: a0 = u64 [a4 + 0x18]\n 17341: u64 [sp + 0x60] = a0\n 17344: a0 = u64 [a4 + 0x10]\n 17347: u64 [sp + 0x50] = a0\n 17350: a0 = u64 [a4 + 0x8]\n 17353: u64 [sp + 0x58] = a0\n 17356: a0 = u64 [a4]\n 17358: u64 [sp + 0x48] = a0\n 17361: a0 = u64 [a3 + 0x18]\n 17364: u64 [sp + 0x70] = a0\n 17367: a0 = u64 [a3 + 0x10]\n 17370: u64 [sp + 0x78] = a0\n 17373: a0 = u64 [a3 + 0x8]\n 17376: u64 [sp + 0x80] = a0\n 17380: a0 = u64 [a2 + 0x10]\n 17383: a1 = u64 [a3]\n 17385: u64 [sp + 0x68] = a1\n 17388: a1 = u64 [a2 + 0x8]\n 17391: u64 [sp + 0x98] = a1\n 17395: s1 = u64 [a2]\n 17397: a0 = a0 << 0x20\n 17400: s0 = a0 >> 0x20\n 17403: a0 = i32 [sp + 0xb0]\n 17407: a1 = 0x20\n 17410: u64 [sp + 0xa0] = a0\n 17414: ra = 236, jump @0\n      : @280 [@dyn 118] (gas: 66)\n 17420: a1 = reverse s0\n 17422: a2 = u64 [sp + 0x98]\n 17426: a2 = reverse a2\n 17428: a3 = reverse s1\n 17430: a4 = a3 >> 0x38\n 17433: u8 [a0 + 0x1f] = a4\n 17436: a4 = a3 >> 0x30\n 17439: u8 [a0 + 0x1e] = a4\n 17442: a4 = a3 >> 0x28\n 17445: u8 [a0 + 0x1d] = a4\n 17448: a4 = a3 >> 0x20\n 17451: u8 [a0 + 0x1c] = a4\n 17454: a4 = a3 >> 0x18\n 17457: u8 [a0 + 0x1b] = a4\n 17460: a4 = a3 >> 0x10\n 17463: u8 [a0 + 0x1a] = a4\n 17466: a4 = a3 >> 0x8\n 17469: u8 [a0 + 0x19] = a4\n 17472: u8 [a0 + 0x18] = a3\n 17475: u8 [a0 + 0x10] = a2\n 17478: u8 [a0 + 11] = 0\n 17481: u8 [a0 + 10] = 0\n 17484: u8 [a0 + 9] = 0\n 17487: u8 [a0 + 7] = 0\n 17490: u8 [a0 + 6] = 0\n 17493: u8 [a0 + 5] = 0\n 17496: u8 [a0 + 4] = 0\n 17499: u8 [a0 + 3] = 0\n 17502: u8 [a0 + 2] = 0\n 17505: u8 [a0 + 1] = 0\n 17508: u8 [a0 + 0] = 0\n 17510: a3 = a2 >> 0x38\n 17513: u8 [a0 + 0x17] = a3\n 17516: a3 = a2 >> 0x30\n 17519: u8 [a0 + 0x16] = a3\n 17522: a3 = a2 >> 0x28\n 17525: u8 [a0 + 0x15] = a3\n 17528: a3 = a2 >> 0x20\n 17531: u8 [a0 + 0x14] = a3\n 17534: a3 = a2 >> 0x18\n 17537: u8 [a0 + 0x13] = a3\n 17540: a3 = a2 >> 0x10\n 17543: u8 [a0 + 0x12] = a3\n 17546: a2 = a2 >> 0x8\n 17549: u8 [a0 + 0x11] = a2\n 17552: u8 [a0 + 0x8] = a1\n 17555: a2 = a1 >> 0x38\n 17558: u8 [a0 + 0xf] = a2\n 17561: a2 = a1 >> 0x30\n 17564: u8 [a0 + 0xe] = a2\n 17567: a2 = a1 >> 0x28\n 17570: u8 [a0 + 0xd] = a2\n 17573: a1 = a1 >> 0x20\n 17576: a2 = u64 [sp + 0x90]\n 17580: a4 = u64 [sp + 0x88]\n 17584: a4 = a4 | a2\n 17587: s0 = 0x100000000\n 17597: a2 = 0xffffffe0\n 17607: a3 = u64 [sp + 0xb0]\n 17611: a2 = a3 <u a2\n 17614: a3 = u64 [sp + 0xa8]\n 17618: a2 = 0 if a3 != 0\n 17620: u64 [sp + 0x98] = a4\n 17624: a2 = 0 if a4 != 0\n 17626: u8 [a0 + 0xc] = a1\n 17629: jump @289 if a2 == 0\n      : @281 (gas: 4)\n 17633: a0 = u64 [sp + 0xa0]\n 17637: i32 a0 = a0 + 0x20\n 17640: a1 = 0x20\n 17643: ra = 238, jump @0\n      : @282 [@dyn 119] (gas: 76)\n 17649: a1 = u64 [sp + 0x70]\n 17652: a1 = reverse a1\n 17654: a2 = u64 [sp + 0x78]\n 17657: a2 = reverse a2\n 17659: a3 = u64 [sp + 0x80]\n 17663: a3 = reverse a3\n 17665: a4 = u64 [sp + 0x68]\n 17668: a4 = reverse a4\n 17670: a5 = a4 >> 0x38\n 17673: u8 [a0 + 0x1f] = a5\n 17676: a5 = a4 >> 0x30\n 17679: u8 [a0 + 0x1e] = a5\n 17682: a5 = a4 >> 0x28\n 17685: u8 [a0 + 0x1d] = a5\n 17688: a5 = a4 >> 0x20\n 17691: u8 [a0 + 0x1c] = a5\n 17694: a5 = a4 >> 0x18\n 17697: u8 [a0 + 0x1b] = a5\n 17700: a5 = a4 >> 0x10\n 17703: u8 [a0 + 0x1a] = a5\n 17706: a5 = a4 >> 0x8\n 17709: u8 [a0 + 0x19] = a5\n 17712: u8 [a0 + 0x18] = a4\n 17715: u8 [a0 + 0x10] = a3\n 17718: a4 = a3 >> 0x38\n 17721: u8 [a0 + 0x17] = a4\n 17724: a4 = a3 >> 0x30\n 17727: u8 [a0 + 0x16] = a4\n 17730: a4 = a3 >> 0x28\n 17733: u8 [a0 + 0x15] = a4\n 17736: a4 = a3 >> 0x20\n 17739: u8 [a0 + 0x14] = a4\n 17742: a4 = a3 >> 0x18\n 17745: u8 [a0 + 0x13] = a4\n 17748: a4 = a3 >> 0x10\n 17751: u8 [a0 + 0x12] = a4\n 17754: a3 = a3 >> 0x8\n 17757: u8 [a0 + 0x11] = a3\n 17760: u8 [a0 + 0x8] = a2\n 17763: a3 = a2 >> 0x38\n 17766: u8 [a0 + 0xf] = a3\n 17769: a3 = a2 >> 0x30\n 17772: u8 [a0 + 0xe] = a3\n 17775: a3 = a2 >> 0x28\n 17778: u8 [a0 + 0xd] = a3\n 17781: a3 = a2 >> 0x20\n 17784: u8 [a0 + 0xc] = a3\n 17787: a3 = a2 >> 0x18\n 17790: u8 [a0 + 0xb] = a3\n 17793: a3 = a2 >> 0x10\n 17796: u8 [a0 + 0xa] = a3\n 17799: a2 = a2 >> 0x8\n 17802: u8 [a0 + 0x9] = a2\n 17805: u8 [a0] = a1\n 17807: a2 = a1 >> 0x38\n 17810: u8 [a0 + 0x7] = a2\n 17813: a2 = a1 >> 0x30\n 17816: u8 [a0 + 0x6] = a2\n 17819: a2 = a1 >> 0x28\n 17822: u8 [a0 + 0x5] = a2\n 17825: a2 = a1 >> 0x20\n 17828: u8 [a0 + 0x4] = a2\n 17831: a2 = a1 >> 0x18\n 17834: u8 [a0 + 0x3] = a2\n 17837: a2 = a1 >> 0x10\n 17840: u8 [a0 + 0x2] = a2\n 17843: a1 = a1 >> 0x8\n 17846: a2 = s0 + 0xffffffffffffffc0\n 17849: a3 = u64 [sp + 0xb0]\n 17853: a2 = a3 <u a2\n 17856: a3 = u64 [sp + 0xa8]\n 17860: a2 = 0 if a3 != 0\n 17862: a3 = u64 [sp + 0x98]\n 17866: a2 = 0 if a3 != 0\n 17868: u8 [a0 + 0x1] = a1\n 17871: jump @289 if a2 == 0\n      : @283 (gas: 12)\n 17875: a0 = u64 [sp + 0x50]\n 17878: a1 = u64 [sp + 0x48]\n 17881: a0 = a0 | a1\n 17884: a1 = u64 [sp + 0x60]\n 17887: a2 = u64 [sp + 0x58]\n 17890: a1 = a1 | a2\n 17893: a0 = a0 | a1\n 17896: s0 = a0 >u 0\n 17898: a0 = u64 [sp + 0xa0]\n 17902: i32 a0 = a0 + 0x40\n 17905: a1 = 0x20\n 17908: ra = 240, jump @0\n      : @284 [@dyn 120] (gas: 41)\n 17914: u8 [a0 + 30] = 0\n 17917: u8 [a0 + 29] = 0\n 17920: u8 [a0 + 28] = 0\n 17923: u8 [a0 + 27] = 0\n 17926: u8 [a0 + 26] = 0\n 17929: u8 [a0 + 25] = 0\n 17932: u8 [a0 + 24] = 0\n 17935: u8 [a0 + 23] = 0\n 17938: u8 [a0 + 22] = 0\n 17941: u8 [a0 + 21] = 0\n 17944: u8 [a0 + 20] = 0\n 17947: u8 [a0 + 19] = 0\n 17950: u8 [a0 + 18] = 0\n 17953: u8 [a0 + 17] = 0\n 17956: u8 [a0 + 16] = 0\n 17959: u8 [a0 + 15] = 0\n 17962: u8 [a0 + 14] = 0\n 17965: u8 [a0 + 13] = 0\n 17968: u8 [a0 + 12] = 0\n 17971: u8 [a0 + 11] = 0\n 17974: u8 [a0 + 10] = 0\n 17977: u8 [a0 + 9] = 0\n 17980: u8 [a0 + 8] = 0\n 17983: u8 [a0 + 7] = 0\n 17986: u8 [a0 + 6] = 0\n 17989: u8 [a0 + 5] = 0\n 17992: u8 [a0 + 4] = 0\n 17995: u8 [a0 + 3] = 0\n 17998: u8 [a0 + 2] = 0\n 18001: u8 [a0 + 1] = 0\n 18004: u8 [a0 + 0x1f] = s0\n 18007: s0 = 0x100000000\n 18017: a1 = 0xffffffa0\n 18027: a2 = u64 [sp + 0xb0]\n 18031: a1 = a2 <u a1\n 18034: a2 = u64 [sp + 0xa8]\n 18038: a1 = 0 if a2 != 0\n 18040: a2 = u64 [sp + 0x98]\n 18044: a1 = 0 if a2 != 0\n 18046: u8 [a0 + 0] = 0\n 18048: jump @289 if a1 == 0\n      : @285 (gas: 12)\n 18052: a0 = u64 [sp + 0x28]\n 18055: a1 = u64 [sp + 0x20]\n 18058: a0 = a0 | a1\n 18061: a1 = u64 [sp + 0x38]\n 18064: a2 = u64 [sp + 0x30]\n 18067: a1 = a1 | a2\n 18070: a0 = a0 | a1\n 18073: s1 = a0 >u 0\n 18075: a0 = u64 [sp + 0xa0]\n 18079: i32 a0 = a0 + 0x60\n 18082: a1 = 0x20\n 18085: ra = 242, jump @0\n      : @286 [@dyn 121] (gas: 40)\n 18091: u8 [a0 + 30] = 0\n 18094: u8 [a0 + 29] = 0\n 18097: u8 [a0 + 28] = 0\n 18100: u8 [a0 + 27] = 0\n 18103: u8 [a0 + 26] = 0\n 18106: u8 [a0 + 25] = 0\n 18109: u8 [a0 + 24] = 0\n 18112: u8 [a0 + 23] = 0\n 18115: u8 [a0 + 22] = 0\n 18118: u8 [a0 + 21] = 0\n 18121: u8 [a0 + 20] = 0\n 18124: u8 [a0 + 19] = 0\n 18127: u8 [a0 + 18] = 0\n 18130: u8 [a0 + 17] = 0\n 18133: u8 [a0 + 16] = 0\n 18136: u8 [a0 + 15] = 0\n 18139: u8 [a0 + 14] = 0\n 18142: u8 [a0 + 13] = 0\n 18145: u8 [a0 + 12] = 0\n 18148: u8 [a0 + 11] = 0\n 18151: u8 [a0 + 10] = 0\n 18154: u8 [a0 + 9] = 0\n 18157: u8 [a0 + 8] = 0\n 18160: u8 [a0 + 7] = 0\n 18163: u8 [a0 + 6] = 0\n 18166: u8 [a0 + 5] = 0\n 18169: u8 [a0 + 4] = 0\n 18172: u8 [a0 + 3] = 0\n 18175: u8 [a0 + 2] = 0\n 18178: u8 [a0 + 1] = 0\n 18181: u8 [a0 + 0] = 0\n 18183: a1 = s0 + 0xffffffffffffff80\n 18186: a2 = u64 [sp + 0xb0]\n 18190: a1 = a2 <u a1\n 18193: a2 = u64 [sp + 0xa8]\n 18197: a1 = 0 if a2 != 0\n 18199: a2 = u64 [sp + 0x98]\n 18203: a1 = 0 if a2 != 0\n 18205: u8 [a0 + 0x1f] = s1\n 18208: jump @289 if a1 == 0\n      : @287 (gas: 27)\n 18212: a0 = u64 [sp + 0xb0]\n 18216: a1 = a0 + 0xa0\n 18220: u64 [sp + 0x98] = a1\n 18224: a0 = a1 <u a0\n 18227: a1 = u64 [sp + 0xa8]\n 18231: s1 = a1 + a0\n 18234: s0 = s1 <u a1\n 18237: s0 = a0 if a0 == 0\n 18240: a0 = u64 [sp + 0x90]\n 18244: s0 = s0 + a0\n 18247: a0 = s0 <u a0\n 18250: a1 = u64 [sp + 0x88]\n 18254: a0 = a0 + a1\n 18257: u64 [sp + 0xb0] = a0\n 18261: a0 = u64 [sp + 0x8]\n 18264: a1 = u64 [sp]\n 18266: a0 = a0 | a1\n 18269: a1 = u64 [sp + 0x18]\n 18272: a2 = u64 [sp + 0x10]\n 18275: a1 = a1 | a2\n 18278: a0 = a0 | a1\n 18281: a0 = a0 >u 0\n 18283: u64 [sp + 0xa8] = a0\n 18287: a0 = u64 [sp + 0xa0]\n 18291: i32 a0 = a0 + 0x80\n 18295: a1 = 0x20\n 18298: ra = 244, jump @0\n      : @288 [@dyn 122] (gas: 45)\n 18304: u8 [a0 + 30] = 0\n 18307: u8 [a0 + 29] = 0\n 18310: u8 [a0 + 28] = 0\n 18313: u8 [a0 + 27] = 0\n 18316: u8 [a0 + 26] = 0\n 18319: u8 [a0 + 25] = 0\n 18322: u8 [a0 + 24] = 0\n 18325: u8 [a0 + 23] = 0\n 18328: u8 [a0 + 22] = 0\n 18331: u8 [a0 + 21] = 0\n 18334: u8 [a0 + 20] = 0\n 18337: u8 [a0 + 19] = 0\n 18340: u8 [a0 + 18] = 0\n 18343: u8 [a0 + 17] = 0\n 18346: u8 [a0 + 16] = 0\n 18349: u8 [a0 + 15] = 0\n 18352: u8 [a0 + 14] = 0\n 18355: u8 [a0 + 13] = 0\n 18358: u8 [a0 + 12] = 0\n 18361: u8 [a0 + 11] = 0\n 18364: u8 [a0 + 10] = 0\n 18367: u8 [a0 + 9] = 0\n 18370: u8 [a0 + 8] = 0\n 18373: u8 [a0 + 7] = 0\n 18376: u8 [a0 + 6] = 0\n 18379: u8 [a0 + 5] = 0\n 18382: u8 [a0 + 4] = 0\n 18385: u8 [a0 + 3] = 0\n 18388: u8 [a0 + 2] = 0\n 18391: u8 [a0 + 1] = 0\n 18394: u8 [a0 + 0] = 0\n 18396: a1 = u64 [sp + 0xa8]\n 18400: u8 [a0 + 0x1f] = a1\n 18403: a0 = u64 [sp + 0x40]\n 18406: a1 = u64 [sp + 0x98]\n 18410: u64 [a0] = a1\n 18412: a1 = u64 [sp + 0xb0]\n 18416: u64 [a0 + 0x18] = a1\n 18419: u64 [a0 + 0x8] = s1\n 18422: u64 [a0 + 0x10] = s0\n 18425: ra = u64 [sp + 0xc8]\n 18429: s0 = u64 [sp + 0xc0]\n 18433: s1 = u64 [sp + 0xb8]\n 18437: sp = sp + 0xd0\n 18441: ret\n      : @289 (gas: 1)\n 18443: trap\n      : @290 (gas: 8)\n 18444: a0 = u64 [sp + 0x290]\n 18448: a1 = u64 [sp + 0x298]\n 18452: a2 = u64 [sp + 0x288]\n 18456: a3 = u64 [sp + 0x280]\n 18460: a1 = a1 | a2\n 18463: a0 = a0 | a3\n 18466: a0 = a0 | a1\n 18469: jump @298 if a0 != 0\n      : @291 (gas: 2)\n 18473: a0 = i32 [0x20114]\n 18478: jump @298 if a0 <=u 67\n      : @292 (gas: 58)\n 18483: i32 a0 = sp + 0x2a0\n 18487: a1 = 0x4\n 18490: ecalli 3 // 'call_data_load'\n 18492: a0 = u64 [sp + 0x2a0]\n 18496: u64 [sp + 0xb8] = a0\n 18500: a0 = u64 [sp + 0x2a8]\n 18504: u64 [sp + 0xb0] = a0\n 18508: a0 = u64 [sp + 0x2b0]\n 18512: u64 [sp + 0xa8] = a0\n 18516: s1 = u64 [sp + 0x2b8]\n 18520: i32 a0 = sp + 0x2a0\n 18524: a1 = 0x24\n 18527: ecalli 3 // 'call_data_load'\n 18529: a0 = u64 [sp + 0x2a0]\n 18533: a1 = u64 [sp + 0x2a8]\n 18537: a2 = u64 [sp + 0x2b0]\n 18541: a3 = u64 [sp + 0x2b8]\n 18545: u64 [sp + 0x1b8] = a3\n 18549: u64 [sp + 0x1b0] = a2\n 18553: u64 [sp + 0x1a8] = a1\n 18557: u64 [sp + 0x1a0] = a0\n 18561: u64 [sp + 0x1d8] = s1\n 18565: a0 = u64 [sp + 0xa8]\n 18569: u64 [sp + 0x1d0] = a0\n 18573: a0 = u64 [sp + 0xb0]\n 18577: u64 [sp + 0x1c8] = a0\n 18581: a0 = sp + 0x1e0\n 18585: a1 = sp + 0x1c0\n 18589: a2 = sp + 0x1a0\n 18593: a3 = u64 [sp + 0xb8]\n 18597: u64 [sp + 0x1c0] = a3\n 18601: ra = 0xf6\n 18605: sp = sp + 0xffffffffffffff20\n 18609: u64 [sp + 0xd8] = ra\n 18613: u64 [sp + 0xd0] = s0\n 18617: u64 [sp + 0xc8] = s1\n 18621: s0 = sp + 0xe0\n 18625: sp = sp & 0xffffffffffffffe0\n 18628: a3 = u64 [a2]\n 18630: u64 [sp + 0x78] = a3\n 18633: a3 = u64 [a2 + 0x8]\n 18636: u64 [sp + 0x70] = a3\n 18639: a3 = u64 [a2 + 0x10]\n 18642: u64 [sp + 0x68] = a3\n 18645: a2 = u64 [a2 + 0x18]\n 18648: u64 [sp + 0x60] = a2\n 18651: a2 = u64 [a1]\n 18653: u64 [sp + 0x58] = a2\n 18656: a2 = u64 [a1 + 0x8]\n 18659: u64 [sp + 0x48] = a2\n 18662: a2 = u64 [a1 + 0x10]\n 18665: u64 [sp + 0x40] = a2\n 18668: s1 = u64 [a1 + 0x18]\n 18671: u64 [sp + 0x50] = a0\n 18674: a1 = 0x20\n 18677: a0 = 0\n 18679: ra = 0xe0\n 18683: jump @0\n      : @293 [@dyn 123] (gas: 43)\n 18686: a0 = u64 [sp + 0x1e0]\n 18690: u64 [sp + 0xb0] = a0\n 18694: a0 = u64 [sp + 0x1e8]\n 18698: u64 [sp + 0xa8] = a0\n 18702: a0 = u64 [sp + 0x1f0]\n 18706: u64 [sp + 0xa0] = a0\n 18710: a0 = u64 [sp + 0x1f8]\n 18714: u64 [sp + 0x98] = a0\n 18718: a0 = u64 [sp + 0x200]\n 18722: u64 [sp + 0x90] = a0\n 18726: a0 = u64 [sp + 0x208]\n 18730: u64 [sp + 0x88] = a0\n 18734: a0 = u64 [sp + 0x210]\n 18738: u64 [sp + 0x80] = a0\n 18742: a0 = u64 [sp + 0x218]\n 18746: u64 [sp + 0x78] = a0\n 18749: a0 = u64 [sp + 0x220]\n 18753: u64 [sp + 0x70] = a0\n 18756: a0 = u64 [sp + 0x228]\n 18760: u64 [sp + 0x68] = a0\n 18763: a0 = u64 [sp + 0x230]\n 18767: u64 [sp + 0x60] = a0\n 18770: a0 = u64 [sp + 0x238]\n 18774: u64 [sp + 0x58] = a0\n 18777: a0 = u64 [sp + 0x240]\n 18781: u64 [sp + 0x50] = a0\n 18784: a0 = u64 [sp + 0x248]\n 18788: u64 [sp + 0x48] = a0\n 18791: a0 = u64 [sp + 0x250]\n 18795: u64 [sp + 0x40] = a0\n 18798: a0 = u64 [sp + 0x258]\n 18802: u64 [sp + 0x38] = a0\n 18805: a0 = u64 [sp + 0x260]\n 18809: u64 [sp + 0x30] = a0\n 18812: a0 = u64 [sp + 0x268]\n 18816: u64 [sp + 0x28] = a0\n 18819: a0 = u64 [sp + 0x270]\n 18823: u64 [sp + 0x20] = a0\n 18826: a0 = u64 [sp + 0x278]\n 18830: u64 [sp + 0x18] = a0\n 18833: a0 = 0x40\n 18836: a1 = 0x20\n 18839: ra = 248, jump @0\n      : @294 [@dyn 124] (gas: 148)\n 18845: a1 = u8 [a0 + 0x1]\n 18848: a2 = u8 [a0]\n 18850: a3 = u8 [a0 + 0x2]\n 18853: a4 = u8 [a0 + 0x3]\n 18856: a1 = a1 << 0x8\n 18859: a1 = a1 | a2\n 18862: a3 = a3 << 0x10\n 18865: a4 = a4 << 0x18\n 18868: a3 = a3 | a4\n 18871: a1 = a1 | a3\n 18874: a2 = u8 [a0 + 0x5]\n 18877: a3 = u8 [a0 + 0x4]\n 18880: a4 = u8 [a0 + 0x6]\n 18883: a5 = u8 [a0 + 0x7]\n 18886: a2 = a2 << 0x8\n 18889: a2 = a2 | a3\n 18892: a4 = a4 << 0x10\n 18895: a5 = a5 << 0x18\n 18898: a4 = a4 | a5\n 18901: a2 = a2 | a4\n 18904: a2 = a2 << 0x20\n 18907: t0 = a2 | a1\n 18910: a2 = u8 [a0 + 0x9]\n 18913: a3 = u8 [a0 + 0x8]\n 18916: a4 = u8 [a0 + 0xa]\n 18919: a5 = u8 [a0 + 0xb]\n 18922: a2 = a2 << 0x8\n 18925: a2 = a2 | a3\n 18928: a4 = a4 << 0x10\n 18931: a5 = a5 << 0x18\n 18934: a4 = a4 | a5\n 18937: a2 = a2 | a4\n 18940: a3 = u8 [a0 + 0xd]\n 18943: a4 = u8 [a0 + 0xc]\n 18946: a5 = u8 [a0 + 0xe]\n 18949: s1 = u8 [a0 + 0xf]\n 18952: a3 = a3 << 0x8\n 18955: a3 = a3 | a4\n 18958: a5 = a5 << 0x10\n 18961: s1 = s1 << 0x18\n 18964: a5 = a5 | s1\n 18967: a3 = a3 | a5\n 18970: a3 = a3 << 0x20\n 18973: a2 = a2 | a3\n 18976: a3 = u8 [a0 + 0x11]\n 18979: a4 = u8 [a0 + 0x10]\n 18982: a5 = u8 [a0 + 0x12]\n 18985: s1 = u8 [a0 + 0x13]\n 18988: a3 = a3 << 0x8\n 18991: a3 = a3 | a4\n 18994: a5 = a5 << 0x10\n 18997: s1 = s1 << 0x18\n 19000: a5 = a5 | s1\n 19003: a3 = a3 | a5\n 19006: a4 = u8 [a0 + 0x15]\n 19009: a5 = u8 [a0 + 0x14]\n 19012: s1 = u8 [a0 + 0x16]\n 19015: a1 = u8 [a0 + 0x17]\n 19018: a4 = a4 << 0x8\n 19021: a4 = a4 | a5\n 19024: s1 = s1 << 0x10\n 19027: a1 = a1 << 0x18\n 19030: a1 = a1 | s1\n 19033: a1 = a1 | a4\n 19036: a1 = a1 << 0x20\n 19039: a3 = a3 | a1\n 19042: a1 = u8 [a0 + 0x19]\n 19045: a4 = u8 [a0 + 0x18]\n 19048: a5 = u8 [a0 + 0x1a]\n 19051: s1 = u8 [a0 + 0x1b]\n 19054: a1 = a1 << 0x8\n 19057: a1 = a1 | a4\n 19060: a5 = a5 << 0x10\n 19063: s1 = s1 << 0x18\n 19066: a5 = a5 | s1\n 19069: a1 = a1 | a5\n 19072: a4 = u8 [a0 + 0x1d]\n 19075: a5 = u8 [a0 + 0x1c]\n 19078: s1 = u8 [a0 + 0x1e]\n 19081: a0 = u8 [a0 + 0x1f]\n 19084: a4 = a4 << 0x8\n 19087: a4 = a4 | a5\n 19090: s1 = s1 << 0x10\n 19093: a0 = a0 << 0x18\n 19096: a0 = a0 | s1\n 19099: a0 = a0 | a4\n 19102: a0 = a0 << 0x20\n 19105: a0 = a0 | a1\n 19108: s1 = reverse a0\n 19110: a3 = reverse a3\n 19112: u64 [sp + 0x8] = a3\n 19115: a1 = reverse a2\n 19117: u64 [sp + 0x10] = a1\n 19120: a2 = reverse t0\n 19122: u64 [sp + 0xb8] = a2\n 19126: a0 = sp + 0xc0\n 19130: u64 [sp] = a0\n 19132: a0 = u64 [sp + 0x18]\n 19135: u64 [sp + 0xd8] = a0\n 19139: a0 = u64 [sp + 0x20]\n 19142: u64 [sp + 0xd0] = a0\n 19146: a0 = u64 [sp + 0x28]\n 19149: u64 [sp + 0xc8] = a0\n 19153: a0 = u64 [sp + 0x30]\n 19156: u64 [sp + 0xc0] = a0\n 19160: a0 = u64 [sp + 0x38]\n 19163: u64 [sp + 0xf8] = a0\n 19167: a0 = u64 [sp + 0x40]\n 19170: u64 [sp + 0xf0] = a0\n 19174: a0 = u64 [sp + 0x48]\n 19177: u64 [sp + 0xe8] = a0\n 19181: a0 = u64 [sp + 0x50]\n 19184: u64 [sp + 0xe0] = a0\n 19188: a0 = u64 [sp + 0x58]\n 19191: u64 [sp + 0x118] = a0\n 19195: a0 = u64 [sp + 0x60]\n 19198: u64 [sp + 0x110] = a0\n 19202: a0 = u64 [sp + 0x68]\n 19205: u64 [sp + 0x108] = a0\n 19209: a0 = u64 [sp + 0x70]\n 19212: u64 [sp + 0x100] = a0\n 19216: a0 = u64 [sp + 0x78]\n 19219: u64 [sp + 0x138] = a0\n 19223: a0 = u64 [sp + 0x80]\n 19227: u64 [sp + 0x130] = a0\n 19231: a0 = u64 [sp + 0x88]\n 19235: u64 [sp + 0x128] = a0\n 19239: a0 = u64 [sp + 0x90]\n 19243: u64 [sp + 0x120] = a0\n 19247: a0 = u64 [sp + 0x98]\n 19251: u64 [sp + 0x158] = a0\n 19255: a0 = u64 [sp + 0xa0]\n 19259: u64 [sp + 0x150] = a0\n 19263: a0 = u64 [sp + 0xa8]\n 19267: u64 [sp + 0x148] = a0\n 19271: a0 = u64 [sp + 0xb0]\n 19275: u64 [sp + 0x140] = a0\n 19279: u64 [sp + 0x178] = a2\n 19283: u64 [sp + 0x170] = a1\n 19287: u64 [sp + 0x168] = a3\n 19291: a0 = sp + 0x180\n 19295: a1 = sp + 0x160\n 19299: a2 = sp + 0x140\n 19303: a3 = sp + 0x120\n 19307: a4 = sp + 0x100\n 19311: a5 = sp + 0xe0\n 19315: u64 [sp + 0x160] = s1\n 19319: ra = 250, jump @278\n      : @295 [@dyn 125] (gas: 12)\n 19325: a4 = u64 [sp + 0x8]\n 19328: a2 = s1\n 19330: a0 = u64 [sp + 0xb8]\n 19334: a0 = a0 | a4\n 19337: s1 = u64 [sp + 0x10]\n 19340: a1 = a2 | s1\n 19343: a1 = a1 | a0\n 19346: a1 = a1 >> 0x20\n 19349: a0 = a0 | s1\n 19352: a0 = a0 << 0x20\n 19355: a0 = a0 | a1\n 19358: jump @297 if a0 != 0\n      : @296 (gas: 29)\n 19361: a0 = u64 [sp + 0x188]\n 19365: a1 = u64 [sp + 0x198]\n 19369: u64 [sp + 0xb0] = a1\n 19373: t1 = u64 [sp + 0x180]\n 19377: a1 = u64 [sp + 0x190]\n 19381: t2 = a0 ^ a4\n 19384: a5 = a0 <u a4\n 19387: ra = t1 <u a2\n 19390: a5 = ra if t2 == 0\n 19393: a3 = a1 - s1\n 19396: t2 = a3 - a5\n 19399: t0 = a3 <u a5\n 19402: a3 = a1 <u s1\n 19405: a1 = u64 [sp + 0xb8]\n 19409: a5 = u64 [sp + 0xb0]\n 19413: a5 = a5 - a1\n 19416: a5 = a5 - a3\n 19419: a5 = a5 - t0\n 19422: a0 = a0 - a4\n 19425: a0 = a0 - ra\n 19428: s1 = t1 - a2\n 19431: a0 = a0 | a5\n 19434: a1 = s1 | t2\n 19437: a1 = a1 | a0\n 19440: a0 = a0 | t2\n 19443: a1 = a1 >> 0x20\n 19446: a0 = a0 << 0x20\n 19449: a0 = a0 | a1\n 19452: jump @300 if a0 == 0\n      : @297 (gas: 1)\n 19455: trap\n      : @298 (gas: 3)\n 19456: a0 = 0\n 19458: a1 = 0\n 19460: ra = 252, jump @0\n      : @299 [@dyn 126] (gas: 5)\n 19466: i32 a1 = a0 + 0\n 19468: a0 = 0x1\n 19471: a2 = 0\n 19473: ecalli 13 // 'seal_return'\n 19475: fallthrough\n      : @300 (gas: 4)\n 19476: i32 a0 = a2 + 0\n 19478: i32 s1 = s1 + 0\n 19480: a1 = s1\n 19482: ra = 254, jump @0\n      : @301 [@dyn 127] (gas: 6)\n 19488: i32 a1 = a0 + 0\n 19490: a0 = 0\n 19492: a2 = s1\n 19494: ra = 0x100\n 19498: ecalli 13 // 'seal_return'\n 19500: fallthrough\n      : @302 [@dyn 128] (gas: 10)\n 19501: a1 = u64 [a0 + 0x10]\n 19504: a0 = u64 [a0 + 0x18]\n 19507: a2 = 0x100000000\n 19517: a2 = a2 ^ a1\n 19520: a2 = a2 | a0\n 19523: a1 = a1 >> 0x20\n 19526: a1 = a1 <u 0x1\n 19529: a1 = 0 if a0 != 0\n 19531: a1 = 0 if a2 == 0\n 19533: jump @304 if a1 == 0\n      : @303 (gas: 1)\n 19536: ret\n      : @304 (gas: 4)\n 19538: sp = sp + 0xfffffffffffffff8\n 19541: u64 [sp] = ra\n 19543: a0 = 0\n 19545: ra = 258, jump @0\n      : @305 [@dyn 129] (gas: 6)\n 19551: i32 a1 = a0 + 0\n 19553: a0 = 0x1\n 19556: a2 = 0\n 19558: ra = 0x104\n 19562: ecalli 13 // 'seal_return'\n 19564: fallthrough\n      : @306 [@dyn 130] (gas: 18)\n 19565: sp = sp + 0xffffffffffffffc0\n 19568: u64 [sp + 0x38] = ra\n 19571: u64 [sp + 0x30] = s0\n 19574: u64 [sp + 0x28] = s1\n 19577: s0 = sp + 0x40\n 19580: sp = sp & 0xffffffffffffffe0\n 19583: a2 = u64 [a1 + 0x10]\n 19586: a3 = u64 [a1 + 0x18]\n 19589: a4 = u64 [a1 + 0x8]\n 19592: a1 = u64 [a1]\n 19594: a3 = a3 | a4\n 19597: a4 = a1 | a2\n 19600: a4 = a4 | a3\n 19603: a4 = a4 >> 0x20\n 19606: a2 = a2 | a3\n 19609: a2 = a2 << 0x20\n 19612: a2 = a2 | a4\n 19615: jump @310 if a2 != 0\n      : @307 (gas: 5)\n 19618: s1 = a0\n 19620: i32 a1 = a1 + 0\n 19622: i32 a0 = sp + 0\n 19624: ecalli 3 // 'call_data_load'\n 19626: fallthrough\n      : @308 (gas: 10)\n 19627: a0 = u64 [sp + 0x10]\n 19630: a1 = u64 [sp + 0x18]\n 19633: a2 = 0x100000000\n 19643: a2 = a2 ^ a0\n 19646: a2 = a2 | a1\n 19649: a3 = a0 >> 0x20\n 19652: a3 = a3 <u 0x1\n 19655: a3 = 0 if a1 != 0\n 19657: a3 = 0 if a2 == 0\n 19659: jump @311 if a3 == 0\n      : @309 (gas: 12)\n 19662: a2 = u64 [sp]\n 19664: a3 = u64 [sp + 0x8]\n 19667: u64 [s1] = a2\n 19669: u64 [s1 + 0x8] = a3\n 19672: u64 [s1 + 0x10] = a0\n 19675: u64 [s1 + 0x18] = a1\n 19678: sp = s0 + 0xffffffffffffffc0\n 19681: ra = u64 [sp + 0x38]\n 19684: s0 = u64 [sp + 0x30]\n 19687: s1 = u64 [sp + 0x28]\n 19690: sp = sp + 0x40\n 19693: ret\n      : @310 (gas: 1)\n 19695: trap\n      : @311 (gas: 3)\n 19696: a0 = 0\n 19698: a1 = 0\n 19700: ra = 262, jump @0\n      : @312 [@dyn 131] (gas: 6)\n 19706: i32 a1 = a0 + 0\n 19708: a0 = 0x1\n 19711: a2 = 0\n 19713: ra = 0x108\n 19717: ecalli 13 // 'seal_return'\n 19719: fallthrough\n      : @313 [@dyn 132] (gas: 42)\n 19720: sp = sp + 0xfffffffffffffdc0\n 19724: u64 [sp + 0x238] = ra\n 19728: u64 [sp + 0x230] = s0\n 19732: u64 [sp + 0x228] = s1\n 19736: s0 = sp + 0x240\n 19740: sp = sp & 0xffffffffffffffe0\n 19743: s1 = u64 [a2 + 0x8]\n 19746: t0 = u64 [a1 + 0x8]\n 19749: a5 = u64 [a2]\n 19751: t1 = u64 [a1]\n 19753: t2 = u64 [a2 + 0x10]\n 19756: a4 = s1 ^ t0\n 19759: a3 = s1 <u t0\n 19762: ra = a5 <u t1\n 19765: a3 = ra if a4 == 0\n 19768: u64 [sp + 0x90] = s1\n 19772: a4 = s1 - t0\n 19775: a4 = a4 - ra\n 19778: u64 [sp + 0x80] = a5\n 19782: a5 = a5 - t1\n 19785: a5 = a5 <u 0x80\n 19789: a5 = a5 ^ 0x1\n 19792: ra = u64 [a1 + 0x10]\n 19795: s1 = a4 >u 0\n 19797: a5 = s1 if a4 != 0\n 19800: a4 = u64 [a2 + 0x18]\n 19803: s1 = u64 [a1 + 0x18]\n 19806: a1 = t2 - ra\n 19809: a2 = a1 - a3\n 19812: a1 = a1 <u a3\n 19815: u64 [sp + 0x88] = t2\n 19819: a3 = t2 <u ra\n 19822: u64 [sp + 0x78] = a4\n 19825: a4 = a4 - s1\n 19828: a4 = a4 - a3\n 19831: a4 = a4 - a1\n 19834: a1 = a4 >s 0\n 19836: a3 = a2 >u 0\n 19838: a3 = a1 if a4 != 0\n 19841: a2 = a2 | a4\n 19844: a5 = a3 if a2 != 0\n 19847: jump @329 if a5 == 0\n      : @314 (gas: 13)\n 19851: t2 = s1\n 19853: s1 = a0\n 19855: a0 = t1 | ra\n 19858: a1 = t0 | t2\n 19861: a0 = a0 | a1\n 19864: a0 = a0 >> 0x20\n 19867: a1 = a1 | ra\n 19870: a1 = a1 << 0x20\n 19873: a0 = a0 | a1\n 19876: u64 [sp + 0xb8] = t0\n 19880: u64 [sp + 0xa8] = ra\n 19884: u64 [sp + 0xa0] = t2\n 19888: jump @328 if a0 != 0\n      : @315 (gas: 6)\n 19892: i32 a1 = t1 + 0\n 19894: i32 a0 = sp + 0x200\n 19898: u64 [sp + 0x98] = a1\n 19902: u64 [sp + 0xb0] = t1\n 19906: ecalli 3 // 'call_data_load'\n 19908: fallthrough\n      : @316 (gas: 11)\n 19909: a0 = u64 [sp + 0xa8]\n 19913: a1 = u64 [sp + 0xa0]\n 19917: a1 = a1 | a0\n 19920: a0 = 0xffffffe0\n 19930: a2 = u64 [sp + 0xb0]\n 19934: a0 = a2 <u a0\n 19937: a2 = u64 [sp + 0xb8]\n 19941: a0 = 0 if a2 != 0\n 19943: u64 [sp + 0x70] = a1\n 19946: a0 = 0 if a1 != 0\n 19948: jump @328 if a0 == 0\n      : @317 (gas: 13)\n 19952: a0 = u64 [sp + 0x218]\n 19956: u64 [sp + 0x68] = a0\n 19959: a0 = u64 [sp + 0x210]\n 19963: u64 [sp + 0x60] = a0\n 19966: a0 = u64 [sp + 0x208]\n 19970: u64 [sp + 0x50] = a0\n 19973: a0 = u64 [sp + 0x200]\n 19977: u64 [sp + 0x58] = a0\n 19980: a0 = u64 [sp + 0x98]\n 19984: i32 a1 = a0 + 0x20\n 19987: i32 a0 = sp + 0x1c0\n 19991: ecalli 3 // 'call_data_load'\n 19993: fallthrough\n      : @318 (gas: 7)\n 19994: t0 = u64 [sp + 0x1d8]\n 19998: a1 = u64 [sp + 0x1d0]\n 20002: a2 = u64 [sp + 0x1c8]\n 20006: a3 = a1 | t0\n 20009: a4 = a2 <u 0x1\n 20012: a4 = 0 if a3 != 0\n 20014: jump @329 if a4 == 0\n      : @319 (gas: 35)\n 20018: a3 = u64 [sp + 0x1c0]\n 20022: a4 = u64 [sp + 0xb0]\n 20026: a4 = a4 + a3\n 20029: a3 = a4 <u a3\n 20032: a5 = u64 [sp + 0xb8]\n 20036: a5 = a5 + a2\n 20039: a5 = a5 + a3\n 20042: a0 = a5 ^ a2\n 20045: a2 = a5 <u a2\n 20048: a2 = a3 if a0 == 0\n 20051: a0 = u64 [sp + 0xa8]\n 20055: a0 = a0 + a1\n 20058: a2 = a2 + a0\n 20061: a3 = a2 <u a0\n 20064: a0 = a0 <u a1\n 20067: a1 = u64 [sp + 0xa0]\n 20071: t0 = t0 + a1\n 20074: a0 = a0 + t0\n 20077: a3 = a3 + a0\n 20080: a0 = u64 [sp + 0x80]\n 20084: u64 [sp + 0x140] = a0\n 20088: a0 = u64 [sp + 0x90]\n 20092: u64 [sp + 0x148] = a0\n 20096: u64 [sp + 0x160] = a4\n 20100: a0 = u64 [sp + 0x88]\n 20104: u64 [sp + 0x150] = a0\n 20108: a0 = u64 [sp + 0x78]\n 20111: u64 [sp + 0x158] = a0\n 20115: u64 [sp + 0x168] = a5\n 20119: u64 [sp + 0x170] = a2\n 20123: a0 = sp + 0x180\n 20127: a1 = sp + 0x160\n 20131: a2 = sp + 0x140\n 20135: u64 [sp + 0x178] = a3\n 20139: ra = 266, jump @174\n      : @320 [@dyn 133] (gas: 8)\n 20145: a0 = 0xffffffc0\n 20155: a1 = u64 [sp + 0xb0]\n 20159: a0 = a1 <u a0\n 20162: a1 = u64 [sp + 0xb8]\n 20166: a0 = 0 if a1 != 0\n 20168: a1 = u64 [sp + 0x70]\n 20171: a0 = 0 if a1 != 0\n 20173: jump @328 if a0 == 0\n      : @321 (gas: 21)\n 20177: a0 = u64 [sp + 0x1b8]\n 20181: u64 [sp + 0x48] = a0\n 20184: a0 = u64 [sp + 0x1b0]\n 20188: u64 [sp + 0x40] = a0\n 20191: a0 = u64 [sp + 0x1a8]\n 20195: u64 [sp + 0x38] = a0\n 20198: a0 = u64 [sp + 0x1a0]\n 20202: u64 [sp + 0x30] = a0\n 20205: a0 = u64 [sp + 0x198]\n 20209: u64 [sp + 0x28] = a0\n 20212: a0 = u64 [sp + 0x190]\n 20216: u64 [sp + 0x20] = a0\n 20219: a0 = u64 [sp + 0x188]\n 20223: u64 [sp + 0x10] = a0\n 20226: a0 = u64 [sp + 0x180]\n 20230: u64 [sp + 0x18] = a0\n 20233: a0 = u64 [sp + 0x98]\n 20237: i32 a1 = a0 + 0x40\n 20240: i32 a0 = sp + 0x1e0\n 20244: ecalli 3 // 'call_data_load'\n 20246: fallthrough\n      : @322 (gas: 7)\n 20247: t0 = u64 [sp + 0x1f8]\n 20251: a1 = u64 [sp + 0x1f0]\n 20255: a2 = u64 [sp + 0x1e8]\n 20259: a3 = a1 | t0\n 20262: a4 = a2 <u 0x1\n 20265: a4 = 0 if a3 != 0\n 20267: jump @329 if a4 == 0\n      : @323 (gas: 35)\n 20271: a3 = u64 [sp + 0x1e0]\n 20275: a4 = u64 [sp + 0xb0]\n 20279: a4 = a4 + a3\n 20282: a3 = a4 <u a3\n 20285: a5 = u64 [sp + 0xb8]\n 20289: a5 = a5 + a2\n 20292: a5 = a5 + a3\n 20295: a0 = a5 ^ a2\n 20298: a2 = a5 <u a2\n 20301: a2 = a3 if a0 == 0\n 20304: a0 = u64 [sp + 0xa8]\n 20308: a0 = a0 + a1\n 20311: a2 = a2 + a0\n 20314: a3 = a2 <u a0\n 20317: a0 = a0 <u a1\n 20320: a1 = u64 [sp + 0xa0]\n 20324: t0 = t0 + a1\n 20327: a0 = a0 + t0\n 20330: a3 = a3 + a0\n 20333: a0 = u64 [sp + 0x80]\n 20337: u64 [sp + 0xc0] = a0\n 20341: a0 = u64 [sp + 0x90]\n 20345: u64 [sp + 0xc8] = a0\n 20349: u64 [sp + 0xe0] = a4\n 20353: a0 = u64 [sp + 0x88]\n 20357: u64 [sp + 0xd0] = a0\n 20361: a0 = u64 [sp + 0x78]\n 20364: u64 [sp + 0xd8] = a0\n 20368: u64 [sp + 0xe8] = a5\n 20372: u64 [sp + 0xf0] = a2\n 20376: a0 = sp + 0x100\n 20380: a1 = sp + 0xe0\n 20384: a2 = sp + 0xc0\n 20388: u64 [sp + 0xf8] = a3\n 20392: ra = 268, jump @174\n      : @324 [@dyn 134] (gas: 10)\n 20398: a0 = 0x100000000\n 20408: u64 [sp + 0xa8] = a0\n 20412: a0 = 0xffffffa0\n 20422: a1 = u64 [sp + 0xb0]\n 20426: a0 = a1 <u a0\n 20429: a1 = u64 [sp + 0xb8]\n 20433: a0 = 0 if a1 != 0\n 20435: a1 = u64 [sp + 0x70]\n 20438: a0 = 0 if a1 != 0\n 20440: jump @328 if a0 == 0\n      : @325 (gas: 21)\n 20444: a0 = u64 [sp + 0x138]\n 20448: u64 [sp + 0xb8] = a0\n 20452: a0 = u64 [sp + 0x130]\n 20456: u64 [sp + 0xb0] = a0\n 20460: a0 = u64 [sp + 0x128]\n 20464: u64 [sp + 0xa0] = a0\n 20468: a0 = u64 [sp + 0x120]\n 20472: u64 [sp + 0x90] = a0\n 20476: a0 = u64 [sp + 0x118]\n 20480: u64 [sp + 0x88] = a0\n 20484: a0 = u64 [sp + 0x110]\n 20488: u64 [sp + 0x80] = a0\n 20492: a0 = u64 [sp + 0x108]\n 20496: u64 [sp + 0x70] = a0\n 20499: a0 = u64 [sp + 0x100]\n 20503: u64 [sp + 0x78] = a0\n 20506: a0 = u64 [sp + 0x98]\n 20510: i32 a1 = a0 + 0x60\n 20513: i32 a0 = sp + 0x200\n 20517: ecalli 3 // 'call_data_load'\n 20519: fallthrough\n      : @326 (gas: 10)\n 20520: a1 = u64 [sp + 0x210]\n 20524: a0 = u64 [sp + 0x218]\n 20528: a2 = u64 [sp + 0xa8]\n 20532: a2 = a2 ^ a1\n 20535: a2 = a2 | a0\n 20538: a3 = a1 >> 0x20\n 20541: a3 = a3 <u 0x1\n 20544: a3 = 0 if a0 != 0\n 20546: a3 = 0 if a2 == 0\n 20548: jump @329 if a3 == 0\n      : @327 (gas: 52)\n 20552: a2 = u64 [sp + 0x208]\n 20556: a3 = u64 [sp + 0x200]\n 20560: u64 [s1 + 0xa8] = a2\n 20564: u64 [s1 + 0xa0] = a3\n 20568: a2 = u64 [sp + 0x70]\n 20571: u64 [s1 + 0x68] = a2\n 20574: a2 = u64 [sp + 0x78]\n 20577: u64 [s1 + 0x60] = a2\n 20580: a2 = u64 [sp + 0x10]\n 20583: u64 [s1 + 0x28] = a2\n 20586: a2 = u64 [sp + 0x18]\n 20589: u64 [s1 + 0x20] = a2\n 20592: a2 = u64 [sp + 0x50]\n 20595: u64 [s1 + 0x8] = a2\n 20598: a2 = u64 [sp + 0x58]\n 20601: u64 [s1] = a2\n 20603: u64 [s1 + 0xb0] = a1\n 20607: a1 = u64 [sp + 0x80]\n 20611: u64 [s1 + 0x70] = a1\n 20614: a1 = u64 [sp + 0x20]\n 20617: u64 [s1 + 0x30] = a1\n 20620: a1 = u64 [sp + 0x60]\n 20623: u64 [s1 + 0x10] = a1\n 20626: u64 [s1 + 0xb8] = a0\n 20630: a0 = u64 [sp + 0x88]\n 20634: u64 [s1 + 0x78] = a0\n 20637: a0 = u64 [sp + 0x28]\n 20640: u64 [s1 + 0x38] = a0\n 20643: a0 = u64 [sp + 0x68]\n 20646: u64 [s1 + 0x18] = a0\n 20649: a0 = u64 [sp + 0x90]\n 20653: u64 [s1 + 0x80] = a0\n 20657: a0 = u64 [sp + 0x30]\n 20660: u64 [s1 + 0x40] = a0\n 20663: a0 = u64 [sp + 0xa0]\n 20667: u64 [s1 + 0x88] = a0\n 20671: a0 = u64 [sp + 0x38]\n 20674: u64 [s1 + 0x48] = a0\n 20677: a0 = u64 [sp + 0xb0]\n 20681: u64 [s1 + 0x90] = a0\n 20685: a0 = u64 [sp + 0x40]\n 20688: u64 [s1 + 0x50] = a0\n 20691: a0 = u64 [sp + 0xb8]\n 20695: u64 [s1 + 0x98] = a0\n 20699: a0 = u64 [sp + 0x48]\n 20702: u64 [s1 + 0x58] = a0\n 20705: sp = s0 + 0xfffffffffffffdc0\n 20709: ra = u64 [sp + 0x238]\n 20713: s0 = u64 [sp + 0x230]\n 20717: s1 = u64 [sp + 0x228]\n 20721: sp = sp + 0x240\n 20725: ret\n      : @328 (gas: 1)\n 20727: trap\n      : @329 (gas: 3)\n 20728: a0 = 0\n 20730: a1 = 0\n 20732: ra = 270, jump @0\n      : @330 [@dyn 135] (gas: 6)\n 20738: i32 a1 = a0 + 0\n 20740: a0 = 0x1\n 20743: a2 = 0\n 20745: ra = 0x110\n 20749: ecalli 13 // 'seal_return'\n 20751: fallthrough\n      : @331 [@dyn 136] (gas: 13)\n 20752: sp = sp + 0xfffffffffffffd80\n 20756: u64 [sp + 0x278] = ra\n 20760: u64 [sp + 0x270] = s0\n 20764: u64 [sp + 0x268] = s1\n 20768: s0 = sp + 0x280\n 20772: sp = sp & 0xffffffffffffffe0\n 20775: u64 [sp + 600] = 0\n 20779: u64 [sp + 592] = 0\n 20783: u64 [sp + 584] = 0\n 20787: u64 [sp + 576] = 0\n 20791: i32 a0 = sp + 0x240\n 20795: ecalli 16 // 'value_transferred'\n 20797: fallthrough\n      : @332 (gas: 8)\n 20798: a0 = u64 [sp + 0x250]\n 20802: a1 = u64 [sp + 0x258]\n 20806: a2 = u64 [sp + 0x248]\n 20810: a3 = u64 [sp + 0x240]\n 20814: a1 = a1 | a2\n 20817: a0 = a0 | a3\n 20820: a0 = a0 | a1\n 20823: jump @338 if a0 != 0\n      : @333 (gas: 13)\n 20827: a0 = u32 [0x20114]\n 20832: u64 [sp + 344] = 0\n 20836: u64 [sp + 336] = 0\n 20840: u64 [sp + 328] = 0\n 20844: u64 [sp + 0x140] = a0\n 20848: u64 [sp + 376] = 0\n 20852: u64 [sp + 368] = 0\n 20856: u64 [sp + 352] = 0x4\n 20861: a0 = sp + 0x180\n 20865: a1 = sp + 0x160\n 20869: a2 = sp + 0x140\n 20873: u64 [sp + 360] = 0\n 20877: ra = 274, jump @313\n      : @334 [@dyn 137] (gas: 81)\n 20883: a0 = u64 [sp + 0x180]\n 20887: u64 [sp + 0x78] = a0\n 20890: a0 = u64 [sp + 0x188]\n 20894: u64 [sp + 0x70] = a0\n 20897: a0 = u64 [sp + 0x190]\n 20901: u64 [sp + 0x68] = a0\n 20904: a0 = u64 [sp + 0x198]\n 20908: u64 [sp + 0x60] = a0\n 20911: a0 = u64 [sp + 0x1a0]\n 20915: u64 [sp + 0x58] = a0\n 20918: a0 = u64 [sp + 0x1a8]\n 20922: u64 [sp + 0x50] = a0\n 20925: a0 = u64 [sp + 0x1b0]\n 20929: u64 [sp + 0x48] = a0\n 20932: a0 = u64 [sp + 0x1b8]\n 20936: u64 [sp + 0x40] = a0\n 20939: a0 = u64 [sp + 0x1c0]\n 20943: u64 [sp + 0x38] = a0\n 20946: a0 = u64 [sp + 0x1c8]\n 20950: u64 [sp + 0x30] = a0\n 20953: a0 = u64 [sp + 0x1d0]\n 20957: u64 [sp + 0x28] = a0\n 20960: a0 = u64 [sp + 0x1d8]\n 20964: u64 [sp + 0x20] = a0\n 20967: a0 = u64 [sp + 0x1e0]\n 20971: u64 [sp + 0x18] = a0\n 20974: ra = u64 [sp + 0x1e8]\n 20978: s1 = u64 [sp + 0x1f0]\n 20982: t2 = u64 [sp + 0x1f8]\n 20986: t1 = u64 [sp + 0x200]\n 20990: t0 = u64 [sp + 0x208]\n 20994: a5 = u64 [sp + 0x210]\n 20998: a4 = u64 [sp + 0x218]\n 21002: a3 = u64 [sp + 0x220]\n 21006: a2 = u64 [sp + 0x228]\n 21010: a1 = u64 [sp + 0x230]\n 21014: a0 = u64 [sp + 0x238]\n 21018: u64 [sp + 0x98] = a0\n 21022: u64 [sp + 0x90] = a1\n 21026: u64 [sp + 0x88] = a2\n 21030: u64 [sp + 0x80] = a3\n 21034: u64 [sp + 0xb8] = a4\n 21038: u64 [sp + 0xb0] = a5\n 21042: u64 [sp + 0xa8] = t0\n 21046: u64 [sp + 0xa0] = t1\n 21050: u64 [sp + 0xd8] = t2\n 21054: u64 [sp + 0xd0] = s1\n 21058: u64 [sp + 0xc8] = ra\n 21062: a0 = u64 [sp + 0x18]\n 21065: u64 [sp + 0xc0] = a0\n 21069: a0 = u64 [sp + 0x20]\n 21072: u64 [sp + 0xf8] = a0\n 21076: a0 = u64 [sp + 0x28]\n 21079: u64 [sp + 0xf0] = a0\n 21083: a0 = u64 [sp + 0x30]\n 21086: u64 [sp + 0xe8] = a0\n 21090: a0 = u64 [sp + 0x38]\n 21093: u64 [sp + 0xe0] = a0\n 21097: a0 = u64 [sp + 0x40]\n 21100: u64 [sp + 0x118] = a0\n 21104: a0 = u64 [sp + 0x48]\n 21107: u64 [sp + 0x110] = a0\n 21111: a0 = u64 [sp + 0x50]\n 21114: u64 [sp + 0x108] = a0\n 21118: a0 = u64 [sp + 0x58]\n 21121: u64 [sp + 0x100] = a0\n 21125: a0 = u64 [sp + 0x60]\n 21128: u64 [sp + 0x138] = a0\n 21132: a0 = u64 [sp + 0x68]\n 21135: u64 [sp + 0x130] = a0\n 21139: a0 = u64 [sp + 0x70]\n 21142: u64 [sp + 0x128] = a0\n 21146: a0 = sp + 0x120\n 21150: a1 = sp + 0x100\n 21154: a2 = sp + 0xe0\n 21158: a3 = sp + 0xc0\n 21162: a4 = sp + 0xa0\n 21166: a5 = sp + 0x80\n 21170: s1 = u64 [sp + 0x78]\n 21173: u64 [sp + 0x120] = s1\n 21177: ra = 276, jump @833\n      : @335 [@dyn 138] (gas: 3)\n 21184: a0 = 0x40\n 21187: a1 = 0x20\n 21190: ra = 278, jump @0\n      : @336 [@dyn 139] (gas: 100)\n 21196: a1 = u8 [a0 + 0x11]\n 21199: a2 = u8 [a0 + 0x10]\n 21202: a3 = u8 [a0 + 0x12]\n 21205: a4 = u8 [a0 + 0x13]\n 21208: a1 = a1 << 0x8\n 21211: a1 = a1 | a2\n 21214: a3 = a3 << 0x10\n 21217: a4 = a4 << 0x18\n 21220: a3 = a3 | a4\n 21223: a1 = a1 | a3\n 21226: a2 = u8 [a0 + 0x15]\n 21229: a3 = u8 [a0 + 0x14]\n 21232: a4 = u8 [a0 + 0x16]\n 21235: a5 = u8 [a0 + 0x17]\n 21238: a2 = a2 << 0x8\n 21241: a2 = a2 | a3\n 21244: a4 = a4 << 0x10\n 21247: a5 = a5 << 0x18\n 21250: a4 = a4 | a5\n 21253: a2 = a2 | a4\n 21256: a2 = a2 << 0x20\n 21259: t0 = a2 | a1\n 21262: a2 = u8 [a0 + 0x1]\n 21265: a3 = u8 [a0]\n 21267: a4 = u8 [a0 + 0x2]\n 21270: a5 = u8 [a0 + 0x3]\n 21273: a2 = a2 << 0x8\n 21276: a2 = a2 | a3\n 21279: a4 = a4 << 0x10\n 21282: a5 = a5 << 0x18\n 21285: a4 = a4 | a5\n 21288: a2 = a2 | a4\n 21291: a3 = u8 [a0 + 0x5]\n 21294: a4 = u8 [a0 + 0x4]\n 21297: a5 = u8 [a0 + 0x6]\n 21300: s1 = u8 [a0 + 0x7]\n 21303: a3 = a3 << 0x8\n 21306: a3 = a3 | a4\n 21309: a5 = a5 << 0x10\n 21312: s1 = s1 << 0x18\n 21315: a5 = a5 | s1\n 21318: a3 = a3 | a5\n 21321: a3 = a3 << 0x20\n 21324: a2 = a2 | a3\n 21327: a3 = u8 [a0 + 0x19]\n 21330: a4 = u8 [a0 + 0x18]\n 21333: a5 = u8 [a0 + 0x1a]\n 21336: s1 = u8 [a0 + 0x1b]\n 21339: a3 = a3 << 0x8\n 21342: a3 = a3 | a4\n 21345: a5 = a5 << 0x10\n 21348: s1 = s1 << 0x18\n 21351: a5 = a5 | s1\n 21354: a3 = a3 | a5\n 21357: a4 = u8 [a0 + 0x1d]\n 21360: a5 = u8 [a0 + 0x1c]\n 21363: s1 = u8 [a0 + 0x1e]\n 21366: a1 = u8 [a0 + 0x1f]\n 21369: a4 = a4 << 0x8\n 21372: a4 = a4 | a5\n 21375: s1 = s1 << 0x10\n 21378: a1 = a1 << 0x18\n 21381: a1 = a1 | s1\n 21384: a1 = a1 | a4\n 21387: a1 = a1 << 0x20\n 21390: a3 = a3 | a1\n 21393: a1 = u8 [a0 + 0x9]\n 21396: a4 = u8 [a0 + 0x8]\n 21399: a5 = u8 [a0 + 0xa]\n 21402: s1 = u8 [a0 + 0xb]\n 21405: a1 = a1 << 0x8\n 21408: a1 = a1 | a4\n 21411: a5 = a5 << 0x10\n 21414: s1 = s1 << 0x18\n 21417: a5 = a5 | s1\n 21420: a1 = a1 | a5\n 21423: a4 = u8 [a0 + 0xd]\n 21426: a5 = u8 [a0 + 0xc]\n 21429: s1 = u8 [a0 + 0xe]\n 21432: a0 = u8 [a0 + 0xf]\n 21435: a4 = a4 << 0x8\n 21438: a4 = a4 | a5\n 21441: s1 = s1 << 0x10\n 21444: a0 = a0 << 0x18\n 21447: a0 = a0 | s1\n 21450: a0 = a0 | a4\n 21453: a0 = a0 << 0x20\n 21456: a0 = a0 | a1\n 21459: a1 = reverse a0\n 21461: a0 = reverse a3\n 21463: a2 = reverse a2\n 21465: a3 = reverse t0\n 21467: a2 = a2 | a3\n 21470: a3 = a0 | a1\n 21473: a3 = a3 | a2\n 21476: a3 = a3 >> 0x20\n 21479: a1 = a1 | a2\n 21482: a1 = a1 << 0x20\n 21485: a1 = a1 | a3\n 21488: jump @340 if a1 == 0\n      : @337 (gas: 1)\n 21491: trap\n      : @338 (gas: 3)\n 21492: a0 = 0\n 21494: a1 = 0\n 21496: ra = 280, jump @0\n      : @339 [@dyn 140] (gas: 7)\n 21502: i32 a1 = a0 + 0\n 21504: a0 = 0x1\n 21507: a2 = 0\n 21509: ecalli 13 // 'seal_return'\n 21511: i32 a0 = a0 + 0\n 21513: ra = 0x11a\n 21517: jump @0\n      : @340 (gas: 2)\n 21520: i32 a0 = a0 + 0\n 21522: ra = 282, jump @0\n      : @341 [@dyn 141] (gas: 6)\n 21528: i32 a1 = a0 + 0\n 21530: a0 = 0\n 21532: a2 = 0\n 21534: ra = 0x11c\n 21538: ecalli 13 // 'seal_return'\n 21540: fallthrough\n      : @342 [@dyn 142] (gas: 13)\n 21541: sp = sp + 0xffffffffffffffb0\n 21544: u64 [sp + 0x48] = ra\n 21547: u64 [sp + 0x40] = s0\n 21550: s0 = sp + 0x50\n 21553: sp = sp & 0xfffffffffffffff0\n 21556: u64 [sp + 48] = 0\n 21559: u64 [sp + 40] = 0\n 21562: u64 [sp + 32] = 0\n 21565: a0 = 0x4e487b7100000000\n 21575: a1 = sp + 0x20\n 21578: u64 [sp + 0x38] = a0\n 21581: a0 = 0\n 21583: ra = 286, jump @23\n      : @343 [@dyn 143] (gas: 7)\n 21589: u64 [sp + 24] = 0\n 21592: u64 [sp + 16] = 0\n 21595: u64 [sp + 0] = 0x32\n 21598: a0 = 0x4\n 21601: a1 = sp\n 21603: u64 [sp + 8] = 0\n 21606: ra = 288, jump @23\n      : @344 [@dyn 144] (gas: 3)\n 21612: a1 = 0x24\n 21615: a0 = 0\n 21617: ra = 290, jump @0\n      : @345 [@dyn 145] (gas: 6)\n 21623: i32 a1 = a0 + 0\n 21625: a0 = 0x1\n 21628: a2 = 0x24\n 21631: ra = 0x124\n 21635: ecalli 13 // 'seal_return'\n 21637: fallthrough\n      : @346 [@dyn 146] (gas: 40)\n 21638: sp = sp + 0xffffffffffffffa0\n 21641: u64 [sp + 0x58] = ra\n 21644: u64 [sp + 0x50] = s0\n 21647: u64 [sp + 0x48] = s1\n 21650: s0 = sp + 0x60\n 21653: sp = sp & 0xffffffffffffffe0\n 21656: s1 = a0\n 21658: a0 = u64 [a1 + 0x18]\n 21661: a2 = u64 [a1 + 0x10]\n 21664: a3 = u64 [a1 + 0x8]\n 21667: a1 = u64 [a1]\n 21669: u64 [sp + 0x18] = a0\n 21672: u64 [sp + 0x10] = a2\n 21675: u64 [sp + 0x8] = a3\n 21678: u64 [sp] = a1\n 21680: u64 [sp + 56] = 0\n 21683: u64 [sp + 48] = 0\n 21686: u64 [sp + 40] = 0\n 21689: u64 [sp + 32] = 0\n 21692: u32 [sp + 64] = 0x20\n 21696: i32 a1 = sp + 0\n 21698: i32 a3 = sp + 0x20\n 21701: i32 a4 = sp + 0x40\n 21704: a2 = 0xffffffffffffffff\n 21707: a0 = 0\n 21709: ecalli 7 // 'get_storage'\n 21711: a0 = u64 [sp + 0x38]\n 21714: a1 = u64 [sp + 0x30]\n 21717: a2 = u64 [sp + 0x28]\n 21720: a3 = u64 [sp + 0x20]\n 21723: u64 [s1 + 0x18] = a0\n 21726: u64 [s1 + 0x10] = a1\n 21729: u64 [s1 + 0x8] = a2\n 21732: u64 [s1] = a3\n 21734: sp = s0 + 0xffffffffffffffa0\n 21737: ra = u64 [sp + 0x58]\n 21740: s0 = u64 [sp + 0x50]\n 21743: s1 = u64 [sp + 0x48]\n 21746: sp = sp + 0x60\n 21749: ret\n      : @347 (gas: 38)\n 21751: sp = sp + 0xfffffffffffffee0\n 21755: u64 [sp + 0x118] = ra\n 21759: u64 [sp + 0x110] = s0\n 21763: u64 [sp + 0x108] = s1\n 21767: s0 = sp + 0x120\n 21771: sp = sp & 0xffffffffffffffe0\n 21774: u64 [sp + 0x40] = a0\n 21777: a0 = u64 [a2]\n 21779: u64 [sp + 0x48] = a0\n 21782: a0 = u64 [a2 + 0x8]\n 21785: u64 [sp + 0x50] = a0\n 21788: a0 = u64 [a2 + 0x10]\n 21791: u64 [sp + 0x58] = a0\n 21794: s1 = u64 [a2 + 0x18]\n 21797: a4 = u64 [a1 + 0x18]\n 21800: a3 = u64 [a1 + 0x10]\n 21803: a2 = u64 [a1 + 0x8]\n 21806: a0 = u64 [a1]\n 21808: u64 [sp + 0x18] = a4\n 21811: u64 [sp + 0xb8] = a4\n 21815: u64 [sp + 0x20] = a3\n 21818: u64 [sp + 0xb0] = a3\n 21822: u64 [sp + 0x28] = a2\n 21825: u64 [sp + 0xa8] = a2\n 21829: u64 [sp + 0x30] = a0\n 21832: u64 [sp + 0xa0] = a0\n 21836: u64 [sp + 248] = 0\n 21840: u64 [sp + 240] = 0\n 21844: u64 [sp + 232] = 0\n 21848: u64 [sp + 224] = 0\n 21852: u32 [sp + 192] = 0x20\n 21857: i32 a1 = sp + 0xa0\n 21861: i32 a3 = sp + 0xe0\n 21865: i32 a4 = sp + 0xc0\n 21869: a2 = 0xffffffffffffffff\n 21872: a0 = 0\n 21874: ecalli 7 // 'get_storage'\n 21876: fallthrough\n      : @348 (gas: 20)\n 21877: a0 = u64 [sp + 0xf8]\n 21881: t0 = u64 [sp + 0xe0]\n 21885: a2 = u64 [sp + 0xf0]\n 21889: a3 = u64 [sp + 0xe8]\n 21893: a4 = a0 ^ s1\n 21896: u64 [sp + 0x38] = s1\n 21899: a1 = s1 <u a0\n 21902: a0 = u64 [sp + 0x58]\n 21905: a5 = a0 <u a2\n 21908: a5 = a1 if a4 != 0\n 21911: a1 = u64 [sp + 0x50]\n 21914: t1 = a3 ^ a1\n 21917: a3 = a1 <u a3\n 21920: a1 = u64 [sp + 0x48]\n 21923: a1 = a1 <u t0\n 21926: a1 = a3 if t1 != 0\n 21929: a0 = a0 ^ a2\n 21932: a0 = a0 | a4\n 21935: a1 = a5 if a0 != 0\n 21938: jump @352 if a1 == 0\n      : @349 (gas: 3)\n 21942: a1 = 0x20\n 21945: a0 = 0\n 21947: ra = 294, jump @0\n      : @350 [@dyn 147] (gas: 71)\n 21953: a1 = u64 [sp + 0x18]\n 21956: a1 = reverse a1\n 21958: a2 = u64 [sp + 0x20]\n 21961: a2 = reverse a2\n 21963: a3 = u64 [sp + 0x28]\n 21966: a3 = reverse a3\n 21968: a4 = u64 [sp + 0x30]\n 21971: a4 = reverse a4\n 21973: a5 = a4 >> 0x38\n 21976: u8 [a0 + 0x1f] = a5\n 21979: a5 = a4 >> 0x30\n 21982: u8 [a0 + 0x1e] = a5\n 21985: a5 = a4 >> 0x28\n 21988: u8 [a0 + 0x1d] = a5\n 21991: a5 = a4 >> 0x20\n 21994: u8 [a0 + 0x1c] = a5\n 21997: a5 = a4 >> 0x18\n 22000: u8 [a0 + 0x1b] = a5\n 22003: a5 = a4 >> 0x10\n 22006: u8 [a0 + 0x1a] = a5\n 22009: a5 = a4 >> 0x8\n 22012: u8 [a0 + 0x19] = a5\n 22015: u8 [a0 + 0x18] = a4\n 22018: u8 [a0 + 0x10] = a3\n 22021: a4 = a3 >> 0x38\n 22024: u8 [a0 + 0x17] = a4\n 22027: a4 = a3 >> 0x30\n 22030: u8 [a0 + 0x16] = a4\n 22033: a4 = a3 >> 0x28\n 22036: u8 [a0 + 0x15] = a4\n 22039: a4 = a3 >> 0x20\n 22042: u8 [a0 + 0x14] = a4\n 22045: a4 = a3 >> 0x18\n 22048: u8 [a0 + 0x13] = a4\n 22051: a4 = a3 >> 0x10\n 22054: u8 [a0 + 0x12] = a4\n 22057: a3 = a3 >> 0x8\n 22060: u8 [a0 + 0x11] = a3\n 22063: u8 [a0 + 0x8] = a2\n 22066: a3 = a2 >> 0x38\n 22069: u8 [a0 + 0xf] = a3\n 22072: a3 = a2 >> 0x30\n 22075: u8 [a0 + 0xe] = a3\n 22078: a3 = a2 >> 0x28\n 22081: u8 [a0 + 0xd] = a3\n 22084: a3 = a2 >> 0x20\n 22087: u8 [a0 + 0xc] = a3\n 22090: a3 = a2 >> 0x18\n 22093: u8 [a0 + 0xb] = a3\n 22096: a3 = a2 >> 0x10\n 22099: u8 [a0 + 0xa] = a3\n 22102: a2 = a2 >> 0x8\n 22105: u8 [a0 + 0x9] = a2\n 22108: u8 [a0] = a1\n 22110: a2 = a1 >> 0x38\n 22113: u8 [a0 + 0x7] = a2\n 22116: a2 = a1 >> 0x30\n 22119: u8 [a0 + 0x6] = a2\n 22122: a2 = a1 >> 0x28\n 22125: u8 [a0 + 0x5] = a2\n 22128: a2 = a1 >> 0x20\n 22131: u8 [a0 + 0x4] = a2\n 22134: a2 = a1 >> 0x18\n 22137: u8 [a0 + 0x3] = a2\n 22140: a2 = a1 >> 0x10\n 22143: u8 [a0 + 0x2] = a2\n 22146: a1 = a1 >> 0x8\n 22149: u8 [a0 + 0x1] = a1\n 22152: a1 = 0x20\n 22155: a0 = 0\n 22157: ra = 296, jump @0\n      : @351 [@dyn 148] (gas: 45)\n 22163: i32 a0 = a0 + 0\n 22165: i32 a2 = sp + 0xe0\n 22169: a1 = 0x20\n 22172: ecalli 8 // 'hash_keccak_256'\n 22174: a0 = u64 [sp + 0xe0]\n 22178: a1 = u64 [sp + 0xe8]\n 22182: a2 = u64 [sp + 0xf8]\n 22186: a3 = u64 [sp + 0xf0]\n 22190: t0 = reverse a0\n 22192: a1 = reverse a1\n 22194: a2 = reverse a2\n 22196: a3 = reverse a3\n 22198: a4 = u64 [sp + 0x50]\n 22201: a4 = a4 + a3\n 22204: a5 = u64 [sp + 0x48]\n 22207: a5 = a5 + a2\n 22210: a2 = a5 <u a2\n 22213: a4 = a4 + a2\n 22216: s1 = a4 ^ a3\n 22219: a3 = a4 <u a3\n 22222: a3 = a2 if s1 == 0\n 22225: a2 = u64 [sp + 0x58]\n 22228: a2 = a2 + a1\n 22231: a3 = a3 + a2\n 22234: s1 = a3 <u a2\n 22237: a0 = u64 [sp + 0x38]\n 22240: a0 = a0 + t0\n 22243: a1 = a2 <u a1\n 22246: a0 = a0 + a1\n 22249: a0 = a0 + s1\n 22252: a1 = u64 [sp + 0x40]\n 22255: u64 [a1 + 56] = 0\n 22258: u64 [a1 + 48] = 0\n 22261: u64 [a1 + 40] = 0\n 22264: u64 [a1 + 32] = 0\n 22267: u64 [a1] = a5\n 22269: u64 [a1 + 0x8] = a4\n 22272: u64 [a1 + 0x10] = a3\n 22275: u64 [a1 + 0x18] = a0\n 22278: sp = s0 + 0xfffffffffffffee0\n 22282: ra = u64 [sp + 0x118]\n 22286: s0 = u64 [sp + 0x110]\n 22290: s1 = u64 [sp + 0x108]\n 22294: sp = sp + 0x120\n 22298: ret\n      : @352 (gas: 8)\n 22300: u64 [sp + 144] = 0\n 22304: u64 [sp + 136] = 0\n 22308: u64 [sp + 128] = 0\n 22312: a0 = 0x4e487b7100000000\n 22322: a1 = sp + 0x80\n 22326: u64 [sp + 0x98] = a0\n 22330: a0 = 0\n 22332: ra = 298, jump @23\n      : @353 [@dyn 149] (gas: 7)\n 22338: u64 [sp + 120] = 0\n 22341: u64 [sp + 112] = 0\n 22344: u64 [sp + 96] = 0x32\n 22348: a0 = 0x4\n 22351: a1 = sp + 0x60\n 22354: u64 [sp + 104] = 0\n 22357: ra = 300, jump @23\n      : @354 [@dyn 150] (gas: 3)\n 22363: a1 = 0x24\n 22366: a0 = 0\n 22368: ra = 302, jump @0\n      : @355 [@dyn 151] (gas: 6)\n 22374: i32 a1 = a0 + 0\n 22376: a0 = 0x1\n 22379: a2 = 0x24\n 22382: ra = 0x130\n 22386: ecalli 13 // 'seal_return'\n 22388: fallthrough\n      : @356 [@dyn 152] (gas: 236)\n 22389: sp = sp + 0xffffffffffffffa0\n 22392: u64 [sp + 0x58] = ra\n 22395: u64 [sp + 0x50] = s0\n 22398: u64 [sp + 0x48] = s1\n 22401: u64 [sp] = a0\n 22403: t0 = u64 [a1]\n 22405: t1 = u64 [a2]\n 22407: a0 = u64 [a2 + 0x8]\n 22410: a3 = u64 [a2 + 0x10]\n 22413: a4 = u64 [a1 + 0x18]\n 22416: s0 = u64 [a1 + 0x10]\n 22419: a2 = u64 [a2 + 0x18]\n 22422: a1 = u64 [a1 + 0x8]\n 22425: t2 = a4 >u 0\n 22427: s1 = s0 >u 0\n 22429: s1 = t2 if a4 != 0\n 22432: ra = a1 >u 0\n 22434: a5 = t0 <u 0x100\n 22438: t2 = a5 ^ 0x1\n 22441: t2 = ra if a1 != 0\n 22444: a4 = a4 | s0\n 22447: t2 = s1 if a4 != 0\n 22450: u8 [sp + 71] = 0\n 22453: u8 [sp + 70] = 0\n 22456: u8 [sp + 69] = 0\n 22459: u8 [sp + 68] = 0\n 22462: u8 [sp + 67] = 0\n 22465: u8 [sp + 66] = 0\n 22468: u8 [sp + 65] = 0\n 22471: u8 [sp + 64] = 0\n 22474: u8 [sp + 63] = 0\n 22477: u8 [sp + 62] = 0\n 22480: u8 [sp + 61] = 0\n 22483: u8 [sp + 60] = 0\n 22486: u8 [sp + 59] = 0\n 22489: u8 [sp + 58] = 0\n 22492: u8 [sp + 57] = 0\n 22495: u8 [sp + 56] = 0\n 22498: u8 [sp + 55] = 0\n 22501: u8 [sp + 54] = 0\n 22504: u8 [sp + 53] = 0\n 22507: u8 [sp + 52] = 0\n 22510: u8 [sp + 51] = 0\n 22513: u8 [sp + 50] = 0\n 22516: u8 [sp + 49] = 0\n 22519: u8 [sp + 48] = 0\n 22522: u8 [sp + 47] = 0\n 22525: u8 [sp + 46] = 0\n 22528: u8 [sp + 45] = 0\n 22531: u8 [sp + 44] = 0\n 22534: u8 [sp + 43] = 0\n 22537: u8 [sp + 42] = 0\n 22540: u8 [sp + 41] = 0\n 22543: u8 [sp + 40] = 0\n 22546: u8 [sp + 0x20] = a2\n 22549: u8 [sp + 0x18] = a3\n 22552: u8 [sp + 0x10] = a0\n 22555: u8 [sp + 0x8] = t1\n 22558: a1 = a2 >> 0x38\n 22561: u8 [sp + 0x27] = a1\n 22564: a1 = a2 >> 0x30\n 22567: u8 [sp + 0x26] = a1\n 22570: a1 = a2 >> 0x28\n 22573: u8 [sp + 0x25] = a1\n 22576: a1 = a2 >> 0x20\n 22579: u8 [sp + 0x24] = a1\n 22582: a1 = a2 >> 0x18\n 22585: u8 [sp + 0x23] = a1\n 22588: a1 = a2 >> 0x10\n 22591: u8 [sp + 0x22] = a1\n 22594: a2 = a2 >> 0x8\n 22597: u8 [sp + 0x21] = a2\n 22600: a1 = a3 >> 0x38\n 22603: u8 [sp + 0x1f] = a1\n 22606: a1 = a3 >> 0x30\n 22609: u8 [sp + 0x1e] = a1\n 22612: a1 = a3 >> 0x28\n 22615: u8 [sp + 0x1d] = a1\n 22618: a1 = a3 >> 0x20\n 22621: u8 [sp + 0x1c] = a1\n 22624: a1 = a3 >> 0x18\n 22627: u8 [sp + 0x1b] = a1\n 22630: a1 = a3 >> 0x10\n 22633: u8 [sp + 0x1a] = a1\n 22636: a3 = a3 >> 0x8\n 22639: u8 [sp + 0x19] = a3\n 22642: a1 = a0 >> 0x38\n 22645: u8 [sp + 0x17] = a1\n 22648: a1 = a0 >> 0x30\n 22651: u8 [sp + 0x16] = a1\n 22654: a1 = a0 >> 0x28\n 22657: u8 [sp + 0x15] = a1\n 22660: a1 = a0 >> 0x20\n 22663: u8 [sp + 0x14] = a1\n 22666: a1 = a0 >> 0x18\n 22669: u8 [sp + 0x13] = a1\n 22672: a1 = a0 >> 0x10\n 22675: u8 [sp + 0x12] = a1\n 22678: a0 = a0 >> 0x8\n 22681: u8 [sp + 0x11] = a0\n 22684: a0 = t1 >> 0x38\n 22687: u8 [sp + 0xf] = a0\n 22690: a0 = t1 >> 0x30\n 22693: u8 [sp + 0xe] = a0\n 22696: a0 = t1 >> 0x28\n 22699: u8 [sp + 0xd] = a0\n 22702: a0 = t1 >> 0x20\n 22705: u8 [sp + 0xc] = a0\n 22708: a0 = t1 >> 0x18\n 22711: u8 [sp + 0xb] = a0\n 22714: a0 = t1 >> 0x10\n 22717: u8 [sp + 0xa] = a0\n 22720: a0 = t1 >> 0x8\n 22723: u8 [sp + 0x9] = a0\n 22726: a0 = t0 << 0x38\n 22729: a0 = a0 >> 0x3b\n 22732: a2 = sp + 0x8\n 22735: a2 = a2 + a0\n 22738: a0 = u8 [a2 + 0x11]\n 22741: a1 = u8 [a2 + 0x10]\n 22744: a3 = u8 [a2 + 0x12]\n 22747: a4 = u8 [a2 + 0x13]\n 22750: a0 = a0 << 0x8\n 22753: a0 = a0 | a1\n 22756: a3 = a3 << 0x10\n 22759: a4 = a4 << 0x18\n 22762: a3 = a3 | a4\n 22765: a0 = a0 | a3\n 22768: a1 = u8 [a2 + 0x15]\n 22771: a3 = u8 [a2 + 0x14]\n 22774: a4 = u8 [a2 + 0x16]\n 22777: a5 = u8 [a2 + 0x17]\n 22780: a1 = a1 << 0x8\n 22783: a1 = a1 | a3\n 22786: a4 = a4 << 0x10\n 22789: a5 = a5 << 0x18\n 22792: a4 = a4 | a5\n 22795: a1 = a1 | a4\n 22798: a1 = a1 << 0x20\n 22801: ra = a1 | a0\n 22804: a3 = t0 & 0x7\n 22807: a1 = ra >> a3\n 22810: a0 = u8 [a2 + 0x19]\n 22813: a4 = u8 [a2 + 0x18]\n 22816: s1 = u8 [a2 + 0x1a]\n 22819: s0 = u8 [a2 + 0x1b]\n 22822: a0 = a0 << 0x8\n 22825: a0 = a0 | a4\n 22828: s1 = s1 << 0x10\n 22831: s0 = s0 << 0x18\n 22834: s0 = s0 | s1\n 22837: a0 = a0 | s0\n 22840: a4 = u8 [a2 + 0x1d]\n 22843: s1 = u8 [a2 + 0x1c]\n 22846: s0 = u8 [a2 + 0x1e]\n 22849: a5 = u8 [a2 + 0x1f]\n 22852: a4 = a4 << 0x8\n 22855: a4 = a4 | s1\n 22858: s0 = s0 << 0x10\n 22861: a5 = a5 << 0x18\n 22864: a5 = a5 | s0\n 22867: a4 = a4 | a5\n 22870: a4 = a4 << 0x20\n 22873: t0 = a4 | a0\n 22876: a0 = t0 << 0x1\n 22879: t1 = a3 ^ 0x3f\n 22882: a4 = a0 << t1\n 22885: a4 = a4 | a1\n 22888: a0 = u8 [a2 + 0x9]\n 22891: a1 = u8 [a2 + 0x8]\n 22894: a5 = u8 [a2 + 0xa]\n 22897: s0 = u8 [a2 + 0xb]\n 22900: a0 = a0 << 0x8\n 22903: a0 = a0 | a1\n 22906: a5 = a5 << 0x10\n 22909: s0 = s0 << 0x18\n 22912: a5 = a5 | s0\n 22915: a0 = a0 | a5\n 22918: a1 = u8 [a2 + 0xd]\n 22921: a5 = u8 [a2 + 0xc]\n 22924: s0 = u8 [a2 + 0xe]\n 22927: s1 = u8 [a2 + 0xf]\n 22930: a1 = a1 << 0x8\n 22933: a1 = a1 | a5\n 22936: s0 = s0 << 0x10\n 22939: s1 = s1 << 0x18\n 22942: s0 = s0 | s1\n 22945: a1 = a1 | s0\n 22948: a1 = a1 << 0x20\n 22951: a1 = a1 | a0\n 22954: a0 = a1 >> a3\n 22957: ra = ra << 0x1\n 22960: a5 = a3 ^ 0xffffffffffffffff\n 22963: a5 = ra << a5\n 22966: ra = a0 | a5\n 22969: a0 = u8 [a2 + 0x1]\n 22972: s0 = u8 [a2]\n 22974: s1 = u8 [a2 + 0x2]\n 22977: a5 = u8 [a2 + 0x3]\n 22980: a0 = a0 << 0x8\n 22983: a0 = a0 | s0\n 22986: s1 = s1 << 0x10\n 22989: a5 = a5 << 0x18\n 22992: a5 = a5 | s1\n 22995: a0 = a0 | a5\n 22998: a5 = u8 [a2 + 0x5]\n 23001: s0 = u8 [a2 + 0x4]\n 23004: s1 = u8 [a2 + 0x6]\n 23007: a2 = u8 [a2 + 0x7]\n 23010: a5 = a5 << 0x8\n 23013: a5 = a5 | s0\n 23016: s1 = s1 << 0x10\n 23019: a2 = a2 << 0x18\n 23022: a2 = a2 | s1\n 23025: a2 = a2 | a5\n 23028: a2 = a2 << 0x20\n 23031: a0 = a0 | a2\n 23034: a0 = a0 >> a3\n 23037: a1 = a1 << 0x1\n 23040: a1 = a1 << t1\n 23043: a0 = a0 | a1\n 23046: a1 = t0 >> a3\n 23049: a0 = 0 if t2 != 0\n 23051: ra = 0 if t2 != 0\n 23053: a4 = 0 if t2 != 0\n 23055: a1 = 0 if t2 != 0\n 23057: a2 = u64 [sp]\n 23059: u64 [a2 + 0x18] = a1\n 23062: u64 [a2 + 0x10] = a4\n 23065: u64 [a2 + 0x8] = ra\n 23068: u64 [a2] = a0\n 23070: ra = u64 [sp + 0x58]\n 23073: s0 = u64 [sp + 0x50]\n 23076: s1 = u64 [sp + 0x48]\n 23079: sp = sp + 0x60\n 23082: ret\n      : @357 (gas: 19)\n 23084: t1 = u64 [sp + 0x8]\n 23087: t0 = u64 [sp]\n 23089: a0 = u64 [sp + 0x118]\n 23093: a1 = u64 [sp + 0x100]\n 23097: t2 = u64 [sp + 0x110]\n 23101: a3 = u64 [sp + 0x108]\n 23105: a4 = a0 ^ s1\n 23108: a0 = s1 <u a0\n 23111: a2 = u64 [sp + 0x10]\n 23114: a5 = a2 <u t2\n 23117: a5 = a0 if a4 != 0\n 23120: a0 = a3 ^ t0\n 23123: a3 = t0 <u a3\n 23126: a1 = t1 <u a1\n 23129: a1 = a3 if a0 != 0\n 23132: a0 = t2 ^ a2\n 23135: a0 = a0 | a4\n 23138: a1 = a5 if a0 != 0\n 23141: jump @360 if a1 == 0\n      : @358 (gas: 12)\n 23145: u64 [sp + 0x60] = t1\n 23148: u64 [sp + 152] = 0\n 23152: u64 [sp + 144] = 0\n 23156: u64 [sp + 136] = 0\n 23160: u64 [sp + 128] = 0x1\n 23165: u64 [sp + 0x68] = t0\n 23168: u64 [sp + 0x70] = a2\n 23171: a0 = sp + 0xa0\n 23175: a1 = sp + 0x80\n 23179: a2 = sp + 0x60\n 23182: u64 [sp + 0x78] = s1\n 23185: ra = 306, jump @347\n      : @359 [@dyn 153] (gas: 250)\n 23191: a0 = u64 [sp + 0xd8]\n 23195: u64 [sp + 0x10] = a0\n 23198: a0 = u64 [sp + 0xd0]\n 23202: u64 [sp + 0x8] = a0\n 23205: s1 = u64 [sp + 0xc8]\n 23209: a0 = u64 [sp + 0xc0]\n 23213: u64 [sp] = a0\n 23215: a0 = u64 [sp + 0xb8]\n 23219: a1 = u64 [sp + 0xb0]\n 23223: a2 = u64 [sp + 0xa8]\n 23227: a3 = u64 [sp + 0xa0]\n 23231: u64 [sp + 0xf8] = a0\n 23235: u64 [sp + 0xf0] = a1\n 23239: u64 [sp + 0xe8] = a2\n 23243: u64 [sp + 0xe0] = a3\n 23247: u64 [sp + 280] = 0\n 23251: u64 [sp + 272] = 0\n 23255: u64 [sp + 264] = 0\n 23259: u64 [sp + 256] = 0\n 23263: u32 [sp + 288] = 0x20\n 23268: i32 a1 = sp + 0xe0\n 23272: i32 a3 = sp + 0x100\n 23276: i32 a4 = sp + 0x120\n 23280: a2 = 0xffffffffffffffff\n 23283: a0 = 0\n 23285: ecalli 7 // 'get_storage'\n 23287: t0 = u64 [sp + 0x100]\n 23291: a2 = u64 [sp + 0x108]\n 23295: a3 = u64 [sp + 0x110]\n 23299: t2 = u64 [sp]\n 23301: a0 = t2 >> 0x3d\n 23304: a4 = s1 << 0x3\n 23307: a4 = a4 | a0\n 23310: s1 = s1 >> 0x3d\n 23313: a1 = u64 [sp + 0x8]\n 23316: a0 = a1 << 0x3\n 23319: s1 = s1 | a0\n 23322: a0 = a1 >> 0x3d\n 23325: a5 = u64 [sp + 0x10]\n 23328: a5 = a5 << 0x3\n 23331: a5 = a5 | a0\n 23334: a0 = t2 << 0x3\n 23337: a1 = a4 >u 0\n 23339: a0 = a0 <u 0x100\n 23343: t1 = a0 ^ 0x1\n 23346: t1 = a1 if a4 != 0\n 23349: a1 = a5 >u 0\n 23351: a0 = s1 >u 0\n 23353: a0 = a1 if a5 != 0\n 23356: a4 = u64 [sp + 0x118]\n 23360: a5 = a5 | s1\n 23363: t1 = a0 if a5 != 0\n 23366: u8 [sp + 95] = 0\n 23369: u8 [sp + 94] = 0\n 23372: u8 [sp + 93] = 0\n 23375: u8 [sp + 92] = 0\n 23378: u8 [sp + 91] = 0\n 23381: u8 [sp + 90] = 0\n 23384: u8 [sp + 89] = 0\n 23387: u8 [sp + 88] = 0\n 23390: u8 [sp + 87] = 0\n 23393: u8 [sp + 86] = 0\n 23396: u8 [sp + 85] = 0\n 23399: u8 [sp + 84] = 0\n 23402: u8 [sp + 83] = 0\n 23405: u8 [sp + 82] = 0\n 23408: u8 [sp + 81] = 0\n 23411: u8 [sp + 80] = 0\n 23414: u8 [sp + 79] = 0\n 23417: u8 [sp + 78] = 0\n 23420: u8 [sp + 77] = 0\n 23423: u8 [sp + 76] = 0\n 23426: u8 [sp + 75] = 0\n 23429: u8 [sp + 74] = 0\n 23432: u8 [sp + 73] = 0\n 23435: u8 [sp + 72] = 0\n 23438: u8 [sp + 71] = 0\n 23441: u8 [sp + 70] = 0\n 23444: u8 [sp + 69] = 0\n 23447: u8 [sp + 68] = 0\n 23450: u8 [sp + 67] = 0\n 23453: u8 [sp + 66] = 0\n 23456: u8 [sp + 65] = 0\n 23459: u8 [sp + 64] = 0\n 23462: u8 [sp + 0x38] = a4\n 23465: u8 [sp + 0x30] = a3\n 23468: u8 [sp + 0x28] = a2\n 23471: u8 [sp + 0x20] = t0\n 23474: a0 = a4 >> 0x38\n 23477: u8 [sp + 0x3f] = a0\n 23480: a0 = a4 >> 0x30\n 23483: u8 [sp + 0x3e] = a0\n 23486: a0 = a4 >> 0x28\n 23489: u8 [sp + 0x3d] = a0\n 23492: a0 = a4 >> 0x20\n 23495: u8 [sp + 0x3c] = a0\n 23498: a0 = a4 >> 0x18\n 23501: u8 [sp + 0x3b] = a0\n 23504: a0 = a4 >> 0x10\n 23507: u8 [sp + 0x3a] = a0\n 23510: a4 = a4 >> 0x8\n 23513: u8 [sp + 0x39] = a4\n 23516: a0 = a3 >> 0x38\n 23519: u8 [sp + 0x37] = a0\n 23522: a0 = a3 >> 0x30\n 23525: u8 [sp + 0x36] = a0\n 23528: a0 = a3 >> 0x28\n 23531: u8 [sp + 0x35] = a0\n 23534: a0 = a3 >> 0x20\n 23537: u8 [sp + 0x34] = a0\n 23540: a0 = a3 >> 0x18\n 23543: u8 [sp + 0x33] = a0\n 23546: a0 = a3 >> 0x10\n 23549: u8 [sp + 0x32] = a0\n 23552: a3 = a3 >> 0x8\n 23555: u8 [sp + 0x31] = a3\n 23558: a0 = a2 >> 0x38\n 23561: u8 [sp + 0x2f] = a0\n 23564: a0 = a2 >> 0x30\n 23567: u8 [sp + 0x2e] = a0\n 23570: a0 = a2 >> 0x28\n 23573: u8 [sp + 0x2d] = a0\n 23576: a0 = a2 >> 0x20\n 23579: u8 [sp + 0x2c] = a0\n 23582: a0 = a2 >> 0x18\n 23585: u8 [sp + 0x2b] = a0\n 23588: a0 = a2 >> 0x10\n 23591: u8 [sp + 0x2a] = a0\n 23594: a2 = a2 >> 0x8\n 23597: u8 [sp + 0x29] = a2\n 23600: a0 = t0 >> 0x38\n 23603: u8 [sp + 0x27] = a0\n 23606: a0 = t0 >> 0x30\n 23609: u8 [sp + 0x26] = a0\n 23612: a0 = t0 >> 0x28\n 23615: u8 [sp + 0x25] = a0\n 23618: a0 = t0 >> 0x20\n 23621: u8 [sp + 0x24] = a0\n 23624: a0 = t0 >> 0x18\n 23627: u8 [sp + 0x23] = a0\n 23630: a0 = t0 >> 0x10\n 23633: u8 [sp + 0x22] = a0\n 23636: a0 = t0 >> 0x8\n 23639: u8 [sp + 0x21] = a0\n 23642: a1 = t2 & 0x1f\n 23645: a0 = sp + 0x20\n 23648: a1 = a1 + a0\n 23651: a0 = u8 [a1 + 0x19]\n 23654: a2 = u8 [a1 + 0x18]\n 23657: a3 = u8 [a1 + 0x1a]\n 23660: a4 = u8 [a1 + 0x1b]\n 23663: a0 = a0 << 0x8\n 23666: a0 = a0 | a2\n 23669: a3 = a3 << 0x10\n 23672: a4 = a4 << 0x18\n 23675: a3 = a3 | a4\n 23678: a0 = a0 | a3\n 23681: a2 = u8 [a1 + 0x1d]\n 23684: a3 = u8 [a1 + 0x1c]\n 23687: a4 = u8 [a1 + 0x1e]\n 23690: a5 = u8 [a1 + 0x1f]\n 23693: a2 = a2 << 0x8\n 23696: a2 = a2 | a3\n 23699: a4 = a4 << 0x10\n 23702: a5 = a5 << 0x18\n 23705: a4 = a4 | a5\n 23708: a2 = a2 | a4\n 23711: a2 = a2 << 0x20\n 23714: t0 = a2 | a0\n 23717: a0 = u8 [a1 + 0x11]\n 23720: a3 = u8 [a1 + 0x10]\n 23723: a4 = u8 [a1 + 0x12]\n 23726: a5 = u8 [a1 + 0x13]\n 23729: a0 = a0 << 0x8\n 23732: a0 = a0 | a3\n 23735: a4 = a4 << 0x10\n 23738: a5 = a5 << 0x18\n 23741: a4 = a4 | a5\n 23744: a0 = a0 | a4\n 23747: a3 = u8 [a1 + 0x15]\n 23750: a4 = u8 [a1 + 0x14]\n 23753: a5 = u8 [a1 + 0x16]\n 23756: s1 = u8 [a1 + 0x17]\n 23759: a3 = a3 << 0x8\n 23762: a3 = a3 | a4\n 23765: a5 = a5 << 0x10\n 23768: s1 = s1 << 0x18\n 23771: a5 = a5 | s1\n 23774: a3 = a3 | a5\n 23777: a3 = a3 << 0x20\n 23780: a3 = a3 | a0\n 23783: a0 = u8 [a1 + 0x9]\n 23786: a4 = u8 [a1 + 0x8]\n 23789: a5 = u8 [a1 + 0xa]\n 23792: s1 = u8 [a1 + 0xb]\n 23795: a0 = a0 << 0x8\n 23798: a0 = a0 | a4\n 23801: a5 = a5 << 0x10\n 23804: s1 = s1 << 0x18\n 23807: a5 = a5 | s1\n 23810: a0 = a0 | a5\n 23813: a4 = u8 [a1 + 0xd]\n 23816: a5 = u8 [a1 + 0xc]\n 23819: s1 = u8 [a1 + 0xe]\n 23822: a2 = u8 [a1 + 0xf]\n 23825: a4 = a4 << 0x8\n 23828: a4 = a4 | a5\n 23831: s1 = s1 << 0x10\n 23834: a2 = a2 << 0x18\n 23837: a2 = a2 | s1\n 23840: a2 = a2 | a4\n 23843: a2 = a2 << 0x20\n 23846: a4 = a2 | a0\n 23849: a0 = u8 [a1 + 0x1]\n 23852: a2 = u8 [a1]\n 23854: a5 = u8 [a1 + 0x2]\n 23857: s1 = u8 [a1 + 0x3]\n 23860: a0 = a0 << 0x8\n 23863: a0 = a0 | a2\n 23866: a5 = a5 << 0x10\n 23869: s1 = s1 << 0x18\n 23872: a5 = a5 | s1\n 23875: a0 = a0 | a5\n 23878: a2 = u8 [a1 + 0x5]\n 23881: a5 = u8 [a1 + 0x4]\n 23884: s1 = u8 [a1 + 0x6]\n 23887: a1 = u8 [a1 + 0x7]\n 23890: a2 = a2 << 0x8\n 23893: a2 = a2 | a5\n 23896: s1 = s1 << 0x10\n 23899: a1 = a1 << 0x18\n 23902: a1 = a1 | s1\n 23905: a1 = a1 | a2\n 23908: a1 = a1 << 0x20\n 23911: a0 = a0 | a1\n 23914: a0 = 0 if t1 != 0\n 23916: a4 = 0 if t1 != 0\n 23918: a3 = 0 if t1 != 0\n 23920: t0 = 0 if t1 != 0\n 23922: a1 = u64 [sp + 0x18]\n 23925: u64 [a1 + 0x18] = t0\n 23928: u64 [a1 + 0x10] = a3\n 23931: u64 [a1 + 0x8] = a4\n 23934: u64 [a1] = a0\n 23936: sp = s0 + 0xfffffffffffffec0\n 23940: ra = u64 [sp + 0x138]\n 23944: s0 = u64 [sp + 0x130]\n 23948: s1 = u64 [sp + 0x128]\n 23952: sp = sp + 0x140\n 23956: ret\n      : @360 (gas: 2)\n 23958: a0 = 0\n 23960: ra = 308, jump @0\n      : @361 [@dyn 154] (gas: 6)\n 23966: i32 a1 = a0 + 0\n 23968: a0 = 0x1\n 23971: a2 = 0\n 23973: ra = 0x136\n 23977: ecalli 13 // 'seal_return'\n 23979: fallthrough\n      : @362 [@dyn 155] (gas: 17)\n 23980: sp = sp + 0xffffffffffffffa8\n 23983: u64 [sp + 0x50] = ra\n 23986: u64 [sp + 0x48] = s0\n 23989: u64 [sp + 0x40] = s1\n 23992: a3 = u64 [a1 + 0x10]\n 23995: s1 = u64 [a1 + 0x18]\n 23998: a5 = u64 [a1 + 0x8]\n 24001: s0 = u64 [a1]\n 24003: a4 = a5 | s1\n 24006: a1 = s0 | a3\n 24009: a1 = a1 | a4\n 24012: a1 = a1 >> 0x20\n 24015: a4 = a4 | a3\n 24018: a4 = a4 << 0x20\n 24021: a1 = a1 | a4\n 24024: u64 [sp + 0x38] = a0\n 24027: jump @365 if a1 != 0\n      : @363 (gas: 22)\n 24031: a0 = u64 [a2 + 0x18]\n 24034: u64 [sp] = a0\n 24036: a0 = u64 [a2 + 0x10]\n 24039: u64 [sp + 0x8] = a0\n 24042: a0 = u64 [a2 + 0x8]\n 24045: u64 [sp + 0x10] = a0\n 24048: a0 = u64 [a2]\n 24050: u64 [sp + 0x18] = a0\n 24053: a0 = s0 + 0x20\n 24056: u64 [sp + 0x30] = a0\n 24059: a0 = a0 <u s0\n 24062: a1 = a5 + a0\n 24065: u64 [sp + 0x28] = a1\n 24068: a1 = a1 <u a5\n 24071: a1 = a0 if a0 == 0\n 24074: a1 = a1 + a3\n 24077: u64 [sp + 0x20] = a1\n 24080: a0 = a1 <u a3\n 24083: s1 = s1 + a0\n 24086: i32 a0 = s0 + 0\n 24088: a1 = 0x20\n 24091: ra = 312, jump @0\n      : @364 [@dyn 156] (gas: 81)\n 24097: a1 = u64 [sp]\n 24099: a1 = reverse a1\n 24101: a2 = u64 [sp + 0x8]\n 24104: a2 = reverse a2\n 24106: a3 = u64 [sp + 0x10]\n 24109: a3 = reverse a3\n 24111: a4 = u64 [sp + 0x18]\n 24114: a4 = reverse a4\n 24116: a5 = a4 >> 0x38\n 24119: u8 [a0 + 0x1f] = a5\n 24122: a5 = a4 >> 0x30\n 24125: u8 [a0 + 0x1e] = a5\n 24128: a5 = a4 >> 0x28\n 24131: u8 [a0 + 0x1d] = a5\n 24134: a5 = a4 >> 0x20\n 24137: u8 [a0 + 0x1c] = a5\n 24140: a5 = a4 >> 0x18\n 24143: u8 [a0 + 0x1b] = a5\n 24146: a5 = a4 >> 0x10\n 24149: u8 [a0 + 0x1a] = a5\n 24152: a5 = a4 >> 0x8\n 24155: u8 [a0 + 0x19] = a5\n 24158: u8 [a0 + 0x18] = a4\n 24161: u8 [a0 + 0x10] = a3\n 24164: a4 = a3 >> 0x38\n 24167: u8 [a0 + 0x17] = a4\n 24170: a4 = a3 >> 0x30\n 24173: u8 [a0 + 0x16] = a4\n 24176: a4 = a3 >> 0x28\n 24179: u8 [a0 + 0x15] = a4\n 24182: a4 = a3 >> 0x20\n 24185: u8 [a0 + 0x14] = a4\n 24188: a4 = a3 >> 0x18\n 24191: u8 [a0 + 0x13] = a4\n 24194: a4 = a3 >> 0x10\n 24197: u8 [a0 + 0x12] = a4\n 24200: a3 = a3 >> 0x8\n 24203: u8 [a0 + 0x11] = a3\n 24206: u8 [a0 + 0x8] = a2\n 24209: a3 = a2 >> 0x38\n 24212: u8 [a0 + 0xf] = a3\n 24215: a3 = a2 >> 0x30\n 24218: u8 [a0 + 0xe] = a3\n 24221: a3 = a2 >> 0x28\n 24224: u8 [a0 + 0xd] = a3\n 24227: a3 = a2 >> 0x20\n 24230: u8 [a0 + 0xc] = a3\n 24233: a3 = a2 >> 0x18\n 24236: u8 [a0 + 0xb] = a3\n 24239: a3 = a2 >> 0x10\n 24242: u8 [a0 + 0xa] = a3\n 24245: a2 = a2 >> 0x8\n 24248: u8 [a0 + 0x9] = a2\n 24251: u8 [a0] = a1\n 24253: a2 = a1 >> 0x38\n 24256: u8 [a0 + 0x7] = a2\n 24259: a2 = a1 >> 0x30\n 24262: u8 [a0 + 0x6] = a2\n 24265: a2 = a1 >> 0x28\n 24268: u8 [a0 + 0x5] = a2\n 24271: a2 = a1 >> 0x20\n 24274: u8 [a0 + 0x4] = a2\n 24277: a2 = a1 >> 0x18\n 24280: u8 [a0 + 0x3] = a2\n 24283: a2 = a1 >> 0x10\n 24286: u8 [a0 + 0x2] = a2\n 24289: a1 = a1 >> 0x8\n 24292: u8 [a0 + 0x1] = a1\n 24295: a0 = u64 [sp + 0x38]\n 24298: a1 = u64 [sp + 0x30]\n 24301: u64 [a0] = a1\n 24303: a1 = u64 [sp + 0x28]\n 24306: u64 [a0 + 0x8] = a1\n 24309: a1 = u64 [sp + 0x20]\n 24312: u64 [a0 + 0x10] = a1\n 24315: u64 [a0 + 0x18] = s1\n 24318: ra = u64 [sp + 0x50]\n 24321: s0 = u64 [sp + 0x48]\n 24324: s1 = u64 [sp + 0x40]\n 24327: sp = sp + 0x58\n 24330: ret\n      : @365 (gas: 1)\n 24332: trap\n      : @366 (gas: 8)\n 24333: a0 = u64 [sp + 0x70]\n 24336: a1 = u64 [sp + 0x78]\n 24339: a2 = u64 [sp + 0x68]\n 24342: a3 = u64 [sp + 0x60]\n 24345: a1 = a1 | a2\n 24348: a0 = a0 | a3\n 24351: a0 = a0 | a1\n 24354: jump @372 if a0 != 0\n      : @367 (gas: 2)\n 24358: a0 = i32 [0x20114]\n 24363: jump @372 if a0 <=u 35\n      : @368 (gas: 44)\n 24368: i32 a0 = sp + 0x80\n 24372: a1 = 0x4\n 24375: ecalli 3 // 'call_data_load'\n 24377: a2 = u64 [sp + 0x80]\n 24381: a0 = u64 [sp + 0x88]\n 24385: a1 = u64 [sp + 0x90]\n 24389: a3 = u64 [sp + 0x98]\n 24393: u64 [sp + 0x38] = a3\n 24396: u64 [sp + 0x30] = a1\n 24399: u64 [sp + 0x28] = a0\n 24402: a0 = sp + 0x40\n 24405: a1 = sp + 0x20\n 24408: u64 [sp + 0x20] = a2\n 24411: ra = 0x13a\n 24415: sp = sp + 0xfffffffffffffec0\n 24419: u64 [sp + 0x138] = ra\n 24423: u64 [sp + 0x130] = s0\n 24427: u64 [sp + 0x128] = s1\n 24431: s0 = sp + 0x140\n 24435: sp = sp & 0xffffffffffffffe0\n 24438: u64 [sp + 0x18] = a0\n 24441: a0 = u64 [a1]\n 24443: u64 [sp + 0x8] = a0\n 24446: a0 = u64 [a1 + 0x8]\n 24449: u64 [sp] = a0\n 24451: a0 = u64 [a1 + 0x10]\n 24454: u64 [sp + 0x10] = a0\n 24457: s1 = u64 [a1 + 0x18]\n 24460: u64 [sp + 248] = 0\n 24464: u64 [sp + 240] = 0\n 24468: u64 [sp + 232] = 0\n 24472: u64 [sp + 224] = 0x1\n 24477: u64 [sp + 280] = 0\n 24481: u64 [sp + 272] = 0\n 24485: u64 [sp + 264] = 0\n 24489: u64 [sp + 256] = 0\n 24493: u32 [sp + 288] = 0x20\n 24498: i32 a1 = sp + 0xe0\n 24502: i32 a3 = sp + 0x100\n 24506: i32 a4 = sp + 0x120\n 24510: a2 = 0xffffffffffffffff\n 24513: a0 = 0\n 24515: ecalli 7 // 'get_storage'\n 24517: jump @357\n      : @369 [@dyn 157] (gas: 11)\n 24520: a0 = u64 [sp + 0x58]\n 24523: u64 [sp] = a0\n 24525: a0 = u64 [sp + 0x50]\n 24528: u64 [sp + 0x8] = a0\n 24531: a0 = u64 [sp + 0x48]\n 24534: u64 [sp + 0x10] = a0\n 24537: a0 = u64 [sp + 0x40]\n 24540: u64 [sp + 0x18] = a0\n 24543: a0 = 0x40\n 24546: a1 = 0x20\n 24549: ra = 316, jump @0\n      : @370 [@dyn 158] (gas: 100)\n 24555: a1 = u8 [a0 + 0x11]\n 24558: a2 = u8 [a0 + 0x10]\n 24561: a3 = u8 [a0 + 0x12]\n 24564: a4 = u8 [a0 + 0x13]\n 24567: a1 = a1 << 0x8\n 24570: a1 = a1 | a2\n 24573: a3 = a3 << 0x10\n 24576: a4 = a4 << 0x18\n 24579: a3 = a3 | a4\n 24582: a1 = a1 | a3\n 24585: a2 = u8 [a0 + 0x15]\n 24588: a3 = u8 [a0 + 0x14]\n 24591: a4 = u8 [a0 + 0x16]\n 24594: a5 = u8 [a0 + 0x17]\n 24597: a2 = a2 << 0x8\n 24600: a2 = a2 | a3\n 24603: a4 = a4 << 0x10\n 24606: a5 = a5 << 0x18\n 24609: a4 = a4 | a5\n 24612: a2 = a2 | a4\n 24615: a2 = a2 << 0x20\n 24618: t0 = a2 | a1\n 24621: a2 = u8 [a0 + 0x1]\n 24624: a3 = u8 [a0]\n 24626: a4 = u8 [a0 + 0x2]\n 24629: a5 = u8 [a0 + 0x3]\n 24632: a2 = a2 << 0x8\n 24635: a2 = a2 | a3\n 24638: a4 = a4 << 0x10\n 24641: a5 = a5 << 0x18\n 24644: a4 = a4 | a5\n 24647: a2 = a2 | a4\n 24650: a3 = u8 [a0 + 0x5]\n 24653: a4 = u8 [a0 + 0x4]\n 24656: a5 = u8 [a0 + 0x6]\n 24659: s1 = u8 [a0 + 0x7]\n 24662: a3 = a3 << 0x8\n 24665: a3 = a3 | a4\n 24668: a5 = a5 << 0x10\n 24671: s1 = s1 << 0x18\n 24674: a5 = a5 | s1\n 24677: a3 = a3 | a5\n 24680: a3 = a3 << 0x20\n 24683: a2 = a2 | a3\n 24686: a3 = u8 [a0 + 0x19]\n 24689: a4 = u8 [a0 + 0x18]\n 24692: a5 = u8 [a0 + 0x1a]\n 24695: s1 = u8 [a0 + 0x1b]\n 24698: a3 = a3 << 0x8\n 24701: a3 = a3 | a4\n 24704: a5 = a5 << 0x10\n 24707: s1 = s1 << 0x18\n 24710: a5 = a5 | s1\n 24713: a3 = a3 | a5\n 24716: a4 = u8 [a0 + 0x1d]\n 24719: a5 = u8 [a0 + 0x1c]\n 24722: s1 = u8 [a0 + 0x1e]\n 24725: a1 = u8 [a0 + 0x1f]\n 24728: a4 = a4 << 0x8\n 24731: a4 = a4 | a5\n 24734: s1 = s1 << 0x10\n 24737: a1 = a1 << 0x18\n 24740: a1 = a1 | s1\n 24743: a1 = a1 | a4\n 24746: a1 = a1 << 0x20\n 24749: a3 = a3 | a1\n 24752: a1 = u8 [a0 + 0x9]\n 24755: a4 = u8 [a0 + 0x8]\n 24758: a5 = u8 [a0 + 0xa]\n 24761: s1 = u8 [a0 + 0xb]\n 24764: a1 = a1 << 0x8\n 24767: a1 = a1 | a4\n 24770: a5 = a5 << 0x10\n 24773: s1 = s1 << 0x18\n 24776: a5 = a5 | s1\n 24779: a1 = a1 | a5\n 24782: a4 = u8 [a0 + 0xd]\n 24785: a5 = u8 [a0 + 0xc]\n 24788: s1 = u8 [a0 + 0xe]\n 24791: a0 = u8 [a0 + 0xf]\n 24794: a4 = a4 << 0x8\n 24797: a4 = a4 | a5\n 24800: s1 = s1 << 0x10\n 24803: a0 = a0 << 0x18\n 24806: a0 = a0 | s1\n 24809: a0 = a0 | a4\n 24812: a0 = a0 << 0x20\n 24815: a0 = a0 | a1\n 24818: a1 = reverse a0\n 24820: a0 = reverse a3\n 24822: a2 = reverse a2\n 24824: a3 = reverse t0\n 24826: a2 = a2 | a3\n 24829: a3 = a0 | a1\n 24832: a3 = a3 | a2\n 24835: a3 = a3 >> 0x20\n 24838: a1 = a1 | a2\n 24841: a1 = a1 << 0x20\n 24844: a1 = a1 | a3\n 24847: jump @374 if a1 == 0\n      : @371 (gas: 1)\n 24850: trap\n      : @372 (gas: 3)\n 24851: a0 = 0\n 24853: a1 = 0\n 24855: ra = 318, jump @0\n      : @373 [@dyn 159] (gas: 5)\n 24861: i32 a1 = a0 + 0\n 24863: a0 = 0x1\n 24866: a2 = 0\n 24868: ecalli 13 // 'seal_return'\n 24870: fallthrough\n      : @374 (gas: 4)\n 24871: i32 s1 = a0 + 0\n 24873: a1 = 0x20\n 24876: a0 = s1\n 24878: ra = 320, jump @0\n      : @375 [@dyn 160] (gas: 71)\n 24884: a1 = u64 [sp]\n 24886: a1 = reverse a1\n 24888: a2 = u64 [sp + 0x8]\n 24891: a2 = reverse a2\n 24893: a3 = u64 [sp + 0x10]\n 24896: a3 = reverse a3\n 24898: a4 = u64 [sp + 0x18]\n 24901: a4 = reverse a4\n 24903: a5 = a4 >> 0x38\n 24906: u8 [a0 + 0x1f] = a5\n 24909: a5 = a4 >> 0x30\n 24912: u8 [a0 + 0x1e] = a5\n 24915: a5 = a4 >> 0x28\n 24918: u8 [a0 + 0x1d] = a5\n 24921: a5 = a4 >> 0x20\n 24924: u8 [a0 + 0x1c] = a5\n 24927: a5 = a4 >> 0x18\n 24930: u8 [a0 + 0x1b] = a5\n 24933: a5 = a4 >> 0x10\n 24936: u8 [a0 + 0x1a] = a5\n 24939: a5 = a4 >> 0x8\n 24942: u8 [a0 + 0x19] = a5\n 24945: u8 [a0 + 0x18] = a4\n 24948: u8 [a0 + 0x10] = a3\n 24951: a4 = a3 >> 0x38\n 24954: u8 [a0 + 0x17] = a4\n 24957: a4 = a3 >> 0x30\n 24960: u8 [a0 + 0x16] = a4\n 24963: a4 = a3 >> 0x28\n 24966: u8 [a0 + 0x15] = a4\n 24969: a4 = a3 >> 0x20\n 24972: u8 [a0 + 0x14] = a4\n 24975: a4 = a3 >> 0x18\n 24978: u8 [a0 + 0x13] = a4\n 24981: a4 = a3 >> 0x10\n 24984: u8 [a0 + 0x12] = a4\n 24987: a3 = a3 >> 0x8\n 24990: u8 [a0 + 0x11] = a3\n 24993: u8 [a0 + 0x8] = a2\n 24996: a3 = a2 >> 0x38\n 24999: u8 [a0 + 0xf] = a3\n 25002: a3 = a2 >> 0x30\n 25005: u8 [a0 + 0xe] = a3\n 25008: a3 = a2 >> 0x28\n 25011: u8 [a0 + 0xd] = a3\n 25014: a3 = a2 >> 0x20\n 25017: u8 [a0 + 0xc] = a3\n 25020: a3 = a2 >> 0x18\n 25023: u8 [a0 + 0xb] = a3\n 25026: a3 = a2 >> 0x10\n 25029: u8 [a0 + 0xa] = a3\n 25032: a2 = a2 >> 0x8\n 25035: u8 [a0 + 0x9] = a2\n 25038: u8 [a0] = a1\n 25040: a2 = a1 >> 0x38\n 25043: u8 [a0 + 0x7] = a2\n 25046: a2 = a1 >> 0x30\n 25049: u8 [a0 + 0x6] = a2\n 25052: a2 = a1 >> 0x28\n 25055: u8 [a0 + 0x5] = a2\n 25058: a2 = a1 >> 0x20\n 25061: u8 [a0 + 0x4] = a2\n 25064: a2 = a1 >> 0x18\n 25067: u8 [a0 + 0x3] = a2\n 25070: a2 = a1 >> 0x10\n 25073: u8 [a0 + 0x2] = a2\n 25076: a1 = a1 >> 0x8\n 25079: u8 [a0 + 0x1] = a1\n 25082: a1 = 0x20\n 25085: a0 = s1\n 25087: ra = 322, jump @0\n      : @376 [@dyn 161] (gas: 6)\n 25093: i32 a1 = a0 + 0\n 25095: a2 = 0x20\n 25098: a0 = 0\n 25100: ra = 0x144\n 25104: ecalli 13 // 'seal_return'\n 25106: fallthrough\n      : @377 [@dyn 162] (gas: 17)\n 25107: sp = sp + 0xffffffffffffff80\n 25110: u64 [sp + 0x78] = ra\n 25113: u64 [sp + 0x70] = s0\n 25116: u64 [sp + 0x68] = s1\n 25119: s0 = sp + 0x80\n 25123: sp = sp & 0xffffffffffffffe0\n 25126: a2 = u64 [a1]\n 25128: u64 [sp + 0x10] = a2\n 25131: a2 = u64 [a1 + 0x8]\n 25134: u64 [sp + 0x8] = a2\n 25137: a2 = u64 [a1 + 0x10]\n 25140: u64 [sp] = a2\n 25142: s1 = u64 [a1 + 0x18]\n 25145: u64 [sp + 0x18] = a0\n 25148: a1 = 0x20\n 25151: a0 = 0\n 25153: ra = 326, jump @0\n      : @378 [@dyn 163] (gas: 70)\n 25159: a1 = reverse s1\n 25161: a2 = u64 [sp]\n 25163: a2 = reverse a2\n 25165: a3 = u64 [sp + 0x8]\n 25168: a3 = reverse a3\n 25170: a4 = u64 [sp + 0x10]\n 25173: a4 = reverse a4\n 25175: a5 = a4 >> 0x38\n 25178: u8 [a0 + 0x1f] = a5\n 25181: a5 = a4 >> 0x30\n 25184: u8 [a0 + 0x1e] = a5\n 25187: a5 = a4 >> 0x28\n 25190: u8 [a0 + 0x1d] = a5\n 25193: a5 = a4 >> 0x20\n 25196: u8 [a0 + 0x1c] = a5\n 25199: a5 = a4 >> 0x18\n 25202: u8 [a0 + 0x1b] = a5\n 25205: a5 = a4 >> 0x10\n 25208: u8 [a0 + 0x1a] = a5\n 25211: a5 = a4 >> 0x8\n 25214: u8 [a0 + 0x19] = a5\n 25217: u8 [a0 + 0x18] = a4\n 25220: a4 = a3 >> 0x38\n 25223: u8 [a0 + 0x17] = a4\n 25226: a4 = a3 >> 0x30\n 25229: u8 [a0 + 0x16] = a4\n 25232: a4 = a3 >> 0x28\n 25235: u8 [a0 + 0x15] = a4\n 25238: a4 = a3 >> 0x20\n 25241: u8 [a0 + 0x14] = a4\n 25244: a4 = a3 >> 0x18\n 25247: u8 [a0 + 0x13] = a4\n 25250: a4 = a3 >> 0x10\n 25253: u8 [a0 + 0x12] = a4\n 25256: a4 = a3 >> 0x8\n 25259: u8 [a0 + 0x11] = a4\n 25262: u8 [a0 + 0x10] = a3\n 25265: a3 = a2 >> 0x38\n 25268: u8 [a0 + 0xf] = a3\n 25271: a3 = a2 >> 0x30\n 25274: u8 [a0 + 0xe] = a3\n 25277: a3 = a2 >> 0x28\n 25280: u8 [a0 + 0xd] = a3\n 25283: a3 = a2 >> 0x20\n 25286: u8 [a0 + 0xc] = a3\n 25289: a3 = a2 >> 0x18\n 25292: u8 [a0 + 0xb] = a3\n 25295: a3 = a2 >> 0x10\n 25298: u8 [a0 + 0xa] = a3\n 25301: a3 = a2 >> 0x8\n 25304: u8 [a0 + 0x9] = a3\n 25307: u8 [a0 + 0x8] = a2\n 25310: a2 = a1 >> 0x38\n 25313: u8 [a0 + 0x7] = a2\n 25316: a2 = a1 >> 0x30\n 25319: u8 [a0 + 0x6] = a2\n 25322: a2 = a1 >> 0x28\n 25325: u8 [a0 + 0x5] = a2\n 25328: a2 = a1 >> 0x20\n 25331: u8 [a0 + 0x4] = a2\n 25334: a2 = a1 >> 0x18\n 25337: u8 [a0 + 0x3] = a2\n 25340: a2 = a1 >> 0x10\n 25343: u8 [a0 + 0x2] = a2\n 25346: a2 = a1 >> 0x8\n 25349: u8 [a0 + 0x1] = a2\n 25352: u8 [a0] = a1\n 25354: a0 = 0x20\n 25357: a1 = 0x20\n 25360: ra = 328, jump @0\n      : @379 [@dyn 164] (gas: 35)\n 25366: u8 [a0 + 31] = 0x2\n 25370: u8 [a0 + 30] = 0\n 25373: u8 [a0 + 29] = 0\n 25376: u8 [a0 + 28] = 0\n 25379: u8 [a0 + 27] = 0\n 25382: u8 [a0 + 26] = 0\n 25385: u8 [a0 + 25] = 0\n 25388: u8 [a0 + 24] = 0\n 25391: u8 [a0 + 23] = 0\n 25394: u8 [a0 + 22] = 0\n 25397: u8 [a0 + 21] = 0\n 25400: u8 [a0 + 20] = 0\n 25403: u8 [a0 + 19] = 0\n 25406: u8 [a0 + 18] = 0\n 25409: u8 [a0 + 17] = 0\n 25412: u8 [a0 + 16] = 0\n 25415: u8 [a0 + 15] = 0\n 25418: u8 [a0 + 14] = 0\n 25421: u8 [a0 + 13] = 0\n 25424: u8 [a0 + 12] = 0\n 25427: u8 [a0 + 11] = 0\n 25430: u8 [a0 + 10] = 0\n 25433: u8 [a0 + 9] = 0\n 25436: u8 [a0 + 8] = 0\n 25439: u8 [a0 + 7] = 0\n 25442: u8 [a0 + 6] = 0\n 25445: u8 [a0 + 5] = 0\n 25448: u8 [a0 + 4] = 0\n 25451: u8 [a0 + 3] = 0\n 25454: u8 [a0 + 2] = 0\n 25457: u8 [a0 + 1] = 0\n 25460: u8 [a0 + 0] = 0\n 25462: a1 = 0x40\n 25465: a0 = 0\n 25467: ra = 330, jump @0\n      : @380 [@dyn 165] (gas: 42)\n 25473: i32 a0 = a0 + 0\n 25475: i32 a2 = sp + 0x40\n 25478: a1 = 0x40\n 25481: ecalli 8 // 'hash_keccak_256'\n 25483: a0 = u64 [sp + 0x58]\n 25486: a1 = u64 [sp + 0x50]\n 25489: a2 = u64 [sp + 0x48]\n 25492: a3 = u64 [sp + 0x40]\n 25495: a0 = reverse a0\n 25497: a1 = reverse a1\n 25499: a2 = reverse a2\n 25501: a3 = reverse a3\n 25503: u64 [sp + 0x38] = a3\n 25506: u64 [sp + 0x30] = a2\n 25509: u64 [sp + 0x28] = a1\n 25512: u64 [sp + 0x20] = a0\n 25515: u64 [sp + 88] = 0\n 25518: u64 [sp + 80] = 0\n 25521: u64 [sp + 72] = 0\n 25524: u64 [sp + 64] = 0\n 25527: u32 [sp + 96] = 0x20\n 25531: i32 a1 = sp + 0x20\n 25534: i32 a3 = sp + 0x40\n 25537: i32 a4 = sp + 0x60\n 25540: a2 = 0xffffffffffffffff\n 25543: a0 = 0\n 25545: ecalli 7 // 'get_storage'\n 25547: a0 = u64 [sp + 0x58]\n 25550: a1 = u64 [sp + 0x50]\n 25553: a2 = u64 [sp + 0x48]\n 25556: a3 = u64 [sp + 0x40]\n 25559: a4 = u64 [sp + 0x18]\n 25562: u64 [a4 + 0x18] = a0\n 25565: u64 [a4 + 0x10] = a1\n 25568: u64 [a4 + 0x8] = a2\n 25571: u64 [a4] = a3\n 25573: sp = s0 + 0xffffffffffffff80\n 25576: ra = u64 [sp + 0x78]\n 25579: s0 = u64 [sp + 0x70]\n 25582: s1 = u64 [sp + 0x68]\n 25585: sp = sp + 0x80\n 25589: ret\n      : @381 (gas: 8)\n 25591: a0 = u64 [sp + 0x30]\n 25594: a1 = u64 [sp + 0x38]\n 25597: a2 = u64 [sp + 0x28]\n 25600: a3 = u64 [sp + 0x20]\n 25603: a1 = a1 | a2\n 25606: a0 = a0 | a3\n 25609: a0 = a0 | a1\n 25612: jump @389 if a0 != 0\n      : @382 (gas: 2)\n 25616: a0 = i32 [0x20114]\n 25621: jump @389 if a0 <=u 35\n      : @383 (gas: 13)\n 25626: i32 a0 = sp + 0x60\n 25629: a1 = 0x4\n 25632: ecalli 3 // 'call_data_load'\n 25634: a0 = u64 [sp + 0x60]\n 25637: u64 [sp + 0x18] = a0\n 25640: a0 = u64 [sp + 0x68]\n 25643: u64 [sp + 0x10] = a0\n 25646: a0 = u64 [sp + 0x70]\n 25649: u64 [sp + 0x8] = a0\n 25652: s1 = u64 [sp + 0x78]\n 25655: a1 = 0x20\n 25658: a0 = 0\n 25660: ra = 332, jump @0\n      : @384 [@dyn 166] (gas: 70)\n 25666: a1 = reverse s1\n 25668: a2 = u64 [sp + 0x8]\n 25671: a2 = reverse a2\n 25673: a3 = u64 [sp + 0x10]\n 25676: a3 = reverse a3\n 25678: a4 = u64 [sp + 0x18]\n 25681: a4 = reverse a4\n 25683: a5 = a4 >> 0x38\n 25686: u8 [a0 + 0x1f] = a5\n 25689: a5 = a4 >> 0x30\n 25692: u8 [a0 + 0x1e] = a5\n 25695: a5 = a4 >> 0x28\n 25698: u8 [a0 + 0x1d] = a5\n 25701: a5 = a4 >> 0x20\n 25704: u8 [a0 + 0x1c] = a5\n 25707: a5 = a4 >> 0x18\n 25710: u8 [a0 + 0x1b] = a5\n 25713: a5 = a4 >> 0x10\n 25716: u8 [a0 + 0x1a] = a5\n 25719: a5 = a4 >> 0x8\n 25722: u8 [a0 + 0x19] = a5\n 25725: u8 [a0 + 0x18] = a4\n 25728: a4 = a3 >> 0x38\n 25731: u8 [a0 + 0x17] = a4\n 25734: a4 = a3 >> 0x30\n 25737: u8 [a0 + 0x16] = a4\n 25740: a4 = a3 >> 0x28\n 25743: u8 [a0 + 0x15] = a4\n 25746: a4 = a3 >> 0x20\n 25749: u8 [a0 + 0x14] = a4\n 25752: a4 = a3 >> 0x18\n 25755: u8 [a0 + 0x13] = a4\n 25758: a4 = a3 >> 0x10\n 25761: u8 [a0 + 0x12] = a4\n 25764: a4 = a3 >> 0x8\n 25767: u8 [a0 + 0x11] = a4\n 25770: u8 [a0 + 0x10] = a3\n 25773: a3 = a2 >> 0x38\n 25776: u8 [a0 + 0xf] = a3\n 25779: a3 = a2 >> 0x30\n 25782: u8 [a0 + 0xe] = a3\n 25785: a3 = a2 >> 0x28\n 25788: u8 [a0 + 0xd] = a3\n 25791: a3 = a2 >> 0x20\n 25794: u8 [a0 + 0xc] = a3\n 25797: a3 = a2 >> 0x18\n 25800: u8 [a0 + 0xb] = a3\n 25803: a3 = a2 >> 0x10\n 25806: u8 [a0 + 0xa] = a3\n 25809: a3 = a2 >> 0x8\n 25812: u8 [a0 + 0x9] = a3\n 25815: u8 [a0 + 0x8] = a2\n 25818: a2 = a1 >> 0x38\n 25821: u8 [a0 + 0x7] = a2\n 25824: a2 = a1 >> 0x30\n 25827: u8 [a0 + 0x6] = a2\n 25830: a2 = a1 >> 0x28\n 25833: u8 [a0 + 0x5] = a2\n 25836: a2 = a1 >> 0x20\n 25839: u8 [a0 + 0x4] = a2\n 25842: a2 = a1 >> 0x18\n 25845: u8 [a0 + 0x3] = a2\n 25848: a2 = a1 >> 0x10\n 25851: u8 [a0 + 0x2] = a2\n 25854: a2 = a1 >> 0x8\n 25857: u8 [a0 + 0x1] = a2\n 25860: u8 [a0] = a1\n 25862: a0 = 0x20\n 25865: a1 = 0x20\n 25868: ra = 334, jump @0\n      : @385 [@dyn 167] (gas: 35)\n 25874: u8 [a0 + 31] = 0x2\n 25878: u8 [a0 + 30] = 0\n 25881: u8 [a0 + 29] = 0\n 25884: u8 [a0 + 28] = 0\n 25887: u8 [a0 + 27] = 0\n 25890: u8 [a0 + 26] = 0\n 25893: u8 [a0 + 25] = 0\n 25896: u8 [a0 + 24] = 0\n 25899: u8 [a0 + 23] = 0\n 25902: u8 [a0 + 22] = 0\n 25905: u8 [a0 + 21] = 0\n 25908: u8 [a0 + 20] = 0\n 25911: u8 [a0 + 19] = 0\n 25914: u8 [a0 + 18] = 0\n 25917: u8 [a0 + 17] = 0\n 25920: u8 [a0 + 16] = 0\n 25923: u8 [a0 + 15] = 0\n 25926: u8 [a0 + 14] = 0\n 25929: u8 [a0 + 13] = 0\n 25932: u8 [a0 + 12] = 0\n 25935: u8 [a0 + 11] = 0\n 25938: u8 [a0 + 10] = 0\n 25941: u8 [a0 + 9] = 0\n 25944: u8 [a0 + 8] = 0\n 25947: u8 [a0 + 7] = 0\n 25950: u8 [a0 + 6] = 0\n 25953: u8 [a0 + 5] = 0\n 25956: u8 [a0 + 4] = 0\n 25959: u8 [a0 + 3] = 0\n 25962: u8 [a0 + 2] = 0\n 25965: u8 [a0 + 1] = 0\n 25968: u8 [a0 + 0] = 0\n 25970: a1 = 0x40\n 25973: a0 = 0\n 25975: ra = 336, jump @0\n      : @386 [@dyn 168] (gas: 38)\n 25981: i32 a0 = a0 + 0\n 25983: i32 a2 = sp + 0x60\n 25986: a1 = 0x40\n 25989: ecalli 8 // 'hash_keccak_256'\n 25991: a0 = u64 [sp + 0x78]\n 25994: a1 = u64 [sp + 0x70]\n 25997: a2 = u64 [sp + 0x68]\n 26000: a3 = u64 [sp + 0x60]\n 26003: a0 = reverse a0\n 26005: a1 = reverse a1\n 26007: a2 = reverse a2\n 26009: a3 = reverse a3\n 26011: u64 [sp + 0x58] = a3\n 26014: u64 [sp + 0x50] = a2\n 26017: u64 [sp + 0x48] = a1\n 26020: u64 [sp + 0x40] = a0\n 26023: u64 [sp + 120] = 0\n 26026: u64 [sp + 112] = 0\n 26029: u64 [sp + 104] = 0\n 26032: u64 [sp + 96] = 0\n 26035: u32 [sp + 128] = 0x20\n 26040: i32 a1 = sp + 0x40\n 26043: i32 a3 = sp + 0x60\n 26046: i32 a4 = sp + 0x80\n 26050: a2 = 0xffffffffffffffff\n 26053: a0 = 0\n 26055: ecalli 7 // 'get_storage'\n 26057: a0 = u64 [sp + 0x78]\n 26060: u64 [sp] = a0\n 26062: a0 = u64 [sp + 0x70]\n 26065: u64 [sp + 0x8] = a0\n 26068: a0 = u64 [sp + 0x68]\n 26071: u64 [sp + 0x10] = a0\n 26074: a0 = u64 [sp + 0x60]\n 26077: u64 [sp + 0x18] = a0\n 26080: a0 = 0x40\n 26083: a1 = 0x20\n 26086: ra = 338, jump @0\n      : @387 [@dyn 169] (gas: 100)\n 26092: a1 = u8 [a0 + 0x11]\n 26095: a2 = u8 [a0 + 0x10]\n 26098: a3 = u8 [a0 + 0x12]\n 26101: a4 = u8 [a0 + 0x13]\n 26104: a1 = a1 << 0x8\n 26107: a1 = a1 | a2\n 26110: a3 = a3 << 0x10\n 26113: a4 = a4 << 0x18\n 26116: a3 = a3 | a4\n 26119: a1 = a1 | a3\n 26122: a2 = u8 [a0 + 0x15]\n 26125: a3 = u8 [a0 + 0x14]\n 26128: a4 = u8 [a0 + 0x16]\n 26131: a5 = u8 [a0 + 0x17]\n 26134: a2 = a2 << 0x8\n 26137: a2 = a2 | a3\n 26140: a4 = a4 << 0x10\n 26143: a5 = a5 << 0x18\n 26146: a4 = a4 | a5\n 26149: a2 = a2 | a4\n 26152: a2 = a2 << 0x20\n 26155: t0 = a2 | a1\n 26158: a2 = u8 [a0 + 0x1]\n 26161: a3 = u8 [a0]\n 26163: a4 = u8 [a0 + 0x2]\n 26166: a5 = u8 [a0 + 0x3]\n 26169: a2 = a2 << 0x8\n 26172: a2 = a2 | a3\n 26175: a4 = a4 << 0x10\n 26178: a5 = a5 << 0x18\n 26181: a4 = a4 | a5\n 26184: a2 = a2 | a4\n 26187: a3 = u8 [a0 + 0x5]\n 26190: a4 = u8 [a0 + 0x4]\n 26193: a5 = u8 [a0 + 0x6]\n 26196: s1 = u8 [a0 + 0x7]\n 26199: a3 = a3 << 0x8\n 26202: a3 = a3 | a4\n 26205: a5 = a5 << 0x10\n 26208: s1 = s1 << 0x18\n 26211: a5 = a5 | s1\n 26214: a3 = a3 | a5\n 26217: a3 = a3 << 0x20\n 26220: a2 = a2 | a3\n 26223: a3 = u8 [a0 + 0x19]\n 26226: a4 = u8 [a0 + 0x18]\n 26229: a5 = u8 [a0 + 0x1a]\n 26232: s1 = u8 [a0 + 0x1b]\n 26235: a3 = a3 << 0x8\n 26238: a3 = a3 | a4\n 26241: a5 = a5 << 0x10\n 26244: s1 = s1 << 0x18\n 26247: a5 = a5 | s1\n 26250: a3 = a3 | a5\n 26253: a4 = u8 [a0 + 0x1d]\n 26256: a5 = u8 [a0 + 0x1c]\n 26259: s1 = u8 [a0 + 0x1e]\n 26262: a1 = u8 [a0 + 0x1f]\n 26265: a4 = a4 << 0x8\n 26268: a4 = a4 | a5\n 26271: s1 = s1 << 0x10\n 26274: a1 = a1 << 0x18\n 26277: a1 = a1 | s1\n 26280: a1 = a1 | a4\n 26283: a1 = a1 << 0x20\n 26286: a3 = a3 | a1\n 26289: a1 = u8 [a0 + 0x9]\n 26292: a4 = u8 [a0 + 0x8]\n 26295: a5 = u8 [a0 + 0xa]\n 26298: s1 = u8 [a0 + 0xb]\n 26301: a1 = a1 << 0x8\n 26304: a1 = a1 | a4\n 26307: a5 = a5 << 0x10\n 26310: s1 = s1 << 0x18\n 26313: a5 = a5 | s1\n 26316: a1 = a1 | a5\n 26319: a4 = u8 [a0 + 0xd]\n 26322: a5 = u8 [a0 + 0xc]\n 26325: s1 = u8 [a0 + 0xe]\n 26328: a0 = u8 [a0 + 0xf]\n 26331: a4 = a4 << 0x8\n 26334: a4 = a4 | a5\n 26337: s1 = s1 << 0x10\n 26340: a0 = a0 << 0x18\n 26343: a0 = a0 | s1\n 26346: a0 = a0 | a4\n 26349: a0 = a0 << 0x20\n 26352: a0 = a0 | a1\n 26355: a1 = reverse a0\n 26357: a0 = reverse a3\n 26359: a2 = reverse a2\n 26361: a3 = reverse t0\n 26363: a2 = a2 | a3\n 26366: a3 = a0 | a1\n 26369: a3 = a3 | a2\n 26372: a3 = a3 >> 0x20\n 26375: a1 = a1 | a2\n 26378: a1 = a1 << 0x20\n 26381: a1 = a1 | a3\n 26384: jump @391 if a1 == 0\n      : @388 (gas: 1)\n 26387: trap\n      : @389 (gas: 3)\n 26388: a0 = 0\n 26390: a1 = 0\n 26392: ra = 340, jump @0\n      : @390 [@dyn 170] (gas: 5)\n 26398: i32 a1 = a0 + 0\n 26400: a0 = 0x1\n 26403: a2 = 0\n 26405: ecalli 13 // 'seal_return'\n 26407: fallthrough\n      : @391 (gas: 4)\n 26408: i32 s1 = a0 + 0\n 26410: a1 = 0x20\n 26413: a0 = s1\n 26415: ra = 342, jump @0\n      : @392 [@dyn 171] (gas: 71)\n 26421: a1 = u64 [sp]\n 26423: a1 = reverse a1\n 26425: a2 = u64 [sp + 0x8]\n 26428: a2 = reverse a2\n 26430: a3 = u64 [sp + 0x10]\n 26433: a3 = reverse a3\n 26435: a4 = u64 [sp + 0x18]\n 26438: a4 = reverse a4\n 26440: a5 = a4 >> 0x38\n 26443: u8 [a0 + 0x1f] = a5\n 26446: a5 = a4 >> 0x30\n 26449: u8 [a0 + 0x1e] = a5\n 26452: a5 = a4 >> 0x28\n 26455: u8 [a0 + 0x1d] = a5\n 26458: a5 = a4 >> 0x20\n 26461: u8 [a0 + 0x1c] = a5\n 26464: a5 = a4 >> 0x18\n 26467: u8 [a0 + 0x1b] = a5\n 26470: a5 = a4 >> 0x10\n 26473: u8 [a0 + 0x1a] = a5\n 26476: a5 = a4 >> 0x8\n 26479: u8 [a0 + 0x19] = a5\n 26482: u8 [a0 + 0x18] = a4\n 26485: u8 [a0 + 0x10] = a3\n 26488: a4 = a3 >> 0x38\n 26491: u8 [a0 + 0x17] = a4\n 26494: a4 = a3 >> 0x30\n 26497: u8 [a0 + 0x16] = a4\n 26500: a4 = a3 >> 0x28\n 26503: u8 [a0 + 0x15] = a4\n 26506: a4 = a3 >> 0x20\n 26509: u8 [a0 + 0x14] = a4\n 26512: a4 = a3 >> 0x18\n 26515: u8 [a0 + 0x13] = a4\n 26518: a4 = a3 >> 0x10\n 26521: u8 [a0 + 0x12] = a4\n 26524: a3 = a3 >> 0x8\n 26527: u8 [a0 + 0x11] = a3\n 26530: u8 [a0 + 0x8] = a2\n 26533: a3 = a2 >> 0x38\n 26536: u8 [a0 + 0xf] = a3\n 26539: a3 = a2 >> 0x30\n 26542: u8 [a0 + 0xe] = a3\n 26545: a3 = a2 >> 0x28\n 26548: u8 [a0 + 0xd] = a3\n 26551: a3 = a2 >> 0x20\n 26554: u8 [a0 + 0xc] = a3\n 26557: a3 = a2 >> 0x18\n 26560: u8 [a0 + 0xb] = a3\n 26563: a3 = a2 >> 0x10\n 26566: u8 [a0 + 0xa] = a3\n 26569: a2 = a2 >> 0x8\n 26572: u8 [a0 + 0x9] = a2\n 26575: u8 [a0] = a1\n 26577: a2 = a1 >> 0x38\n 26580: u8 [a0 + 0x7] = a2\n 26583: a2 = a1 >> 0x30\n 26586: u8 [a0 + 0x6] = a2\n 26589: a2 = a1 >> 0x28\n 26592: u8 [a0 + 0x5] = a2\n 26595: a2 = a1 >> 0x20\n 26598: u8 [a0 + 0x4] = a2\n 26601: a2 = a1 >> 0x18\n 26604: u8 [a0 + 0x3] = a2\n 26607: a2 = a1 >> 0x10\n 26610: u8 [a0 + 0x2] = a2\n 26613: a1 = a1 >> 0x8\n 26616: u8 [a0 + 0x1] = a1\n 26619: a1 = 0x20\n 26622: a0 = s1\n 26624: ra = 344, jump @0\n      : @393 [@dyn 172] (gas: 6)\n 26630: i32 a1 = a0 + 0\n 26632: a2 = 0x20\n 26635: a0 = 0\n 26637: ra = 0x15a\n 26641: ecalli 13 // 'seal_return'\n 26643: fallthrough\n      : @394 [@dyn 173] (gas: 48)\n 26644: sp = sp + 0xffffffffffffff60\n 26648: u64 [sp + 0x98] = ra\n 26652: u64 [sp + 0x90] = s0\n 26656: u64 [sp + 0x88] = s1\n 26660: s0 = sp + 0xa0\n 26664: sp = sp & 0xffffffffffffffe0\n 26667: t0 = u64 [a1 + 0x10]\n 26670: a5 = u64 [a1 + 0x8]\n 26673: a3 = u64 [a2 + 0x8]\n 26676: t2 = u64 [a1]\n 26678: a4 = u64 [a2]\n 26680: u64 [sp + 0x40] = a4\n 26683: ra = u64 [a2 + 0x10]\n 26686: t1 = a3 ^ a5\n 26689: s1 = a3 <u a5\n 26692: a4 = a4 <u t2\n 26695: u64 [sp + 0x38] = a4\n 26698: s1 = a4 if t1 == 0\n 26701: t1 = u64 [a1 + 0x18]\n 26704: a1 = u64 [a2 + 0x18]\n 26707: u64 [sp + 0x30] = a1\n 26710: a2 = ra - t0\n 26713: a1 = a2 - s1\n 26716: u64 [sp + 0x48] = a1\n 26719: a1 = a2 <u s1\n 26722: u64 [sp + 0x58] = t0\n 26725: a4 = ra <u t0\n 26728: u64 [sp + 0x50] = t1\n 26731: a2 = u64 [sp + 0x30]\n 26734: a2 = a2 - t1\n 26737: a2 = a2 - a4\n 26740: a2 = a2 - a1\n 26743: a1 = a3 - a5\n 26746: a3 = u64 [sp + 0x38]\n 26749: a1 = a1 - a3\n 26752: a3 = u64 [sp + 0x40]\n 26755: a3 = a3 - t2\n 26758: a4 = a1 >u 0\n 26760: a3 = a3 <u 0x60\n 26763: a3 = a3 ^ 0x1\n 26766: a3 = a4 if a1 != 0\n 26769: s1 = a2 >s 0\n 26771: a1 = u64 [sp + 0x48]\n 26774: a4 = a1 >u 0\n 26776: a4 = s1 if a2 != 0\n 26779: a1 = a1 | a2\n 26782: a3 = a4 if a1 != 0\n 26785: jump @402 if a3 == 0\n      : @395 (gas: 12)\n 26789: s1 = a0\n 26791: a2 = u64 [sp + 0x58]\n 26794: a0 = t2 | a2\n 26797: u64 [sp + 0x48] = a5\n 26800: a1 = u64 [sp + 0x50]\n 26803: a1 = a1 | a5\n 26806: a0 = a0 | a1\n 26809: a0 = a0 >> 0x20\n 26812: a1 = a1 | a2\n 26815: a1 = a1 << 0x20\n 26818: a0 = a0 | a1\n 26821: jump @401 if a0 != 0\n      : @396 (gas: 6)\n 26825: i32 a1 = t2 + 0\n 26827: i32 a0 = sp + 0x60\n 26830: u64 [sp + 0x38] = a1\n 26833: u64 [sp + 0x40] = t2\n 26836: ecalli 3 // 'call_data_load'\n 26838: fallthrough\n      : @397 (gas: 13)\n 26839: a0 = u64 [sp + 0x58]\n 26842: a1 = u64 [sp + 0x50]\n 26845: a2 = a0 | a1\n 26848: a0 = 0x100000000\n 26858: u64 [sp + 0x50] = a0\n 26861: a0 = 0xffffffe0\n 26871: a1 = u64 [sp + 0x40]\n 26874: a0 = a1 <u a0\n 26877: a1 = u64 [sp + 0x48]\n 26880: a0 = 0 if a1 != 0\n 26882: u64 [sp + 0x58] = a2\n 26885: a0 = 0 if a2 != 0\n 26887: jump @401 if a0 == 0\n      : @398 (gas: 13)\n 26891: a0 = u64 [sp + 0x78]\n 26894: u64 [sp + 0x18] = a0\n 26897: a0 = u64 [sp + 0x70]\n 26900: u64 [sp + 0x20] = a0\n 26903: a0 = u64 [sp + 0x68]\n 26906: u64 [sp + 0x28] = a0\n 26909: a0 = u64 [sp + 0x60]\n 26912: u64 [sp + 0x30] = a0\n 26915: a0 = u64 [sp + 0x38]\n 26918: i32 a1 = a0 + 0x20\n 26921: i32 a0 = sp + 0x60\n 26924: ecalli 3 // 'call_data_load'\n 26926: fallthrough\n      : @399 (gas: 9)\n 26927: a0 = u64 [sp + 0x50]\n 26930: a0 = a0 + 0xffffffffffffffc0\n 26933: a1 = u64 [sp + 0x40]\n 26936: a0 = a1 <u a0\n 26939: a1 = u64 [sp + 0x48]\n 26942: a0 = 0 if a1 != 0\n 26944: a1 = u64 [sp + 0x58]\n 26947: a0 = 0 if a1 != 0\n 26949: jump @401 if a0 == 0\n      : @400 (gas: 42)\n 26953: a0 = u64 [sp + 0x78]\n 26956: u64 [sp + 0x40] = a0\n 26959: a0 = u64 [sp + 0x70]\n 26962: u64 [sp + 0x48] = a0\n 26965: a0 = u64 [sp + 0x68]\n 26968: u64 [sp + 0x50] = a0\n 26971: a0 = u64 [sp + 0x60]\n 26974: u64 [sp + 0x58] = a0\n 26977: a0 = u64 [sp + 0x38]\n 26980: i32 a1 = a0 + 0x40\n 26983: i32 a0 = sp + 0x60\n 26986: ecalli 3 // 'call_data_load'\n 26988: a0 = u64 [sp + 0x78]\n 26991: a1 = u64 [sp + 0x70]\n 26994: a2 = u64 [sp + 0x68]\n 26997: a3 = u64 [sp + 0x60]\n 27000: u64 [s1 + 0x58] = a0\n 27003: u64 [s1 + 0x50] = a1\n 27006: u64 [s1 + 0x48] = a2\n 27009: u64 [s1 + 0x40] = a3\n 27012: a0 = u64 [sp + 0x40]\n 27015: u64 [s1 + 0x38] = a0\n 27018: a0 = u64 [sp + 0x48]\n 27021: u64 [s1 + 0x30] = a0\n 27024: a0 = u64 [sp + 0x50]\n 27027: u64 [s1 + 0x28] = a0\n 27030: a0 = u64 [sp + 0x58]\n 27033: u64 [s1 + 0x20] = a0\n 27036: a0 = u64 [sp + 0x18]\n 27039: u64 [s1 + 0x18] = a0\n 27042: a0 = u64 [sp + 0x20]\n 27045: u64 [s1 + 0x10] = a0\n 27048: a0 = u64 [sp + 0x28]\n 27051: u64 [s1 + 0x8] = a0\n 27054: a0 = u64 [sp + 0x30]\n 27057: u64 [s1] = a0\n 27059: sp = s0 + 0xffffffffffffff60\n 27063: ra = u64 [sp + 0x98]\n 27067: s0 = u64 [sp + 0x90]\n 27071: s1 = u64 [sp + 0x88]\n 27075: sp = sp + 0xa0\n 27079: ret\n      : @401 (gas: 1)\n 27081: trap\n      : @402 (gas: 3)\n 27082: a0 = 0\n 27084: a1 = 0\n 27086: ra = 348, jump @0\n      : @403 [@dyn 174] (gas: 6)\n 27092: i32 a1 = a0 + 0\n 27094: a0 = 0x1\n 27097: a2 = 0\n 27099: ra = 0x15e\n 27103: ecalli 13 // 'seal_return'\n 27105: fallthrough\n      : @404 [@dyn 175] (gas: 13)\n 27106: sp = sp + 0xfffffffffffffee0\n 27110: u64 [sp + 0x118] = ra\n 27114: u64 [sp + 0x110] = s0\n 27118: u64 [sp + 0x108] = s1\n 27122: s0 = sp + 0x120\n 27126: sp = sp & 0xffffffffffffffe0\n 27129: u64 [sp + 216] = 0\n 27133: u64 [sp + 208] = 0\n 27137: u64 [sp + 200] = 0\n 27141: u64 [sp + 192] = 0\n 27145: i32 a0 = sp + 0xc0\n 27149: ecalli 16 // 'value_transferred'\n 27151: fallthrough\n      : @405 (gas: 8)\n 27152: a0 = u64 [sp + 0xd0]\n 27156: a1 = u64 [sp + 0xd8]\n 27160: a2 = u64 [sp + 0xc8]\n 27164: a3 = u64 [sp + 0xc0]\n 27168: a1 = a1 | a2\n 27171: a0 = a0 | a3\n 27174: a0 = a0 | a1\n 27177: jump @411 if a0 != 0\n      : @406 (gas: 2)\n 27181: a0 = i32 [0x20114]\n 27186: jump @411 if a0 <=u 99\n      : @407 (gas: 52)\n 27191: i32 a0 = sp + 0xe0\n 27195: a1 = 0x4\n 27198: ecalli 3 // 'call_data_load'\n 27200: a0 = u64 [sp + 0xe0]\n 27204: u64 [sp + 0x38] = a0\n 27207: a0 = u64 [sp + 0xe8]\n 27211: u64 [sp + 0x30] = a0\n 27214: a0 = u64 [sp + 0xf0]\n 27218: u64 [sp + 0x28] = a0\n 27221: a0 = u64 [sp + 0xf8]\n 27225: u64 [sp + 0x20] = a0\n 27228: i32 a0 = sp + 0xe0\n 27232: a1 = 0x24\n 27235: ecalli 3 // 'call_data_load'\n 27237: a0 = u64 [sp + 0xe0]\n 27241: u64 [sp + 0x18] = a0\n 27244: a0 = u64 [sp + 0xe8]\n 27248: u64 [sp + 0x10] = a0\n 27251: a0 = u64 [sp + 0xf0]\n 27255: u64 [sp + 0x8] = a0\n 27258: s1 = u64 [sp + 0xf8]\n 27262: i32 a0 = sp + 0xe0\n 27266: a1 = 0x44\n 27269: ecalli 3 // 'call_data_load'\n 27271: a0 = u64 [sp + 0xe0]\n 27275: a1 = u64 [sp + 0xe8]\n 27279: a2 = u64 [sp + 0xf0]\n 27283: a3 = u64 [sp + 0xf8]\n 27287: u64 [sp + 0x58] = a3\n 27290: u64 [sp + 0x50] = a2\n 27293: u64 [sp + 0x48] = a1\n 27296: u64 [sp + 0x40] = a0\n 27299: u64 [sp + 0x78] = s1\n 27302: a0 = u64 [sp + 0x8]\n 27305: u64 [sp + 0x70] = a0\n 27308: a0 = u64 [sp + 0x10]\n 27311: u64 [sp + 0x68] = a0\n 27314: a0 = u64 [sp + 0x18]\n 27317: u64 [sp + 0x60] = a0\n 27320: a0 = u64 [sp + 0x20]\n 27323: u64 [sp + 0x98] = a0\n 27327: a0 = u64 [sp + 0x28]\n 27330: u64 [sp + 0x90] = a0\n 27334: a0 = u64 [sp + 0x30]\n 27337: u64 [sp + 0x88] = a0\n 27341: a0 = sp + 0xa0\n 27345: a1 = sp + 0x80\n 27349: a2 = sp + 0x60\n 27352: a3 = sp + 0x40\n 27355: a4 = u64 [sp + 0x38]\n 27358: u64 [sp + 0x80] = a4\n 27362: ra = 352, jump @1598\n      : @408 [@dyn 176] (gas: 11)\n 27369: a0 = u64 [sp + 0xb8]\n 27373: u64 [sp + 0x20] = a0\n 27376: a0 = u64 [sp + 0xb0]\n 27380: u64 [sp + 0x28] = a0\n 27383: a0 = u64 [sp + 0xa8]\n 27387: u64 [sp + 0x30] = a0\n 27390: a0 = u64 [sp + 0xa0]\n 27394: u64 [sp + 0x38] = a0\n 27397: a0 = 0x40\n 27400: a1 = 0x20\n 27403: ra = 354, jump @0\n      : @409 [@dyn 177] (gas: 100)\n 27409: a1 = u8 [a0 + 0x11]\n 27412: a2 = u8 [a0 + 0x10]\n 27415: a3 = u8 [a0 + 0x12]\n 27418: a4 = u8 [a0 + 0x13]\n 27421: a1 = a1 << 0x8\n 27424: a1 = a1 | a2\n 27427: a3 = a3 << 0x10\n 27430: a4 = a4 << 0x18\n 27433: a3 = a3 | a4\n 27436: a1 = a1 | a3\n 27439: a2 = u8 [a0 + 0x15]\n 27442: a3 = u8 [a0 + 0x14]\n 27445: a4 = u8 [a0 + 0x16]\n 27448: a5 = u8 [a0 + 0x17]\n 27451: a2 = a2 << 0x8\n 27454: a2 = a2 | a3\n 27457: a4 = a4 << 0x10\n 27460: a5 = a5 << 0x18\n 27463: a4 = a4 | a5\n 27466: a2 = a2 | a4\n 27469: a2 = a2 << 0x20\n 27472: t0 = a2 | a1\n 27475: a2 = u8 [a0 + 0x1]\n 27478: a3 = u8 [a0]\n 27480: a4 = u8 [a0 + 0x2]\n 27483: a5 = u8 [a0 + 0x3]\n 27486: a2 = a2 << 0x8\n 27489: a2 = a2 | a3\n 27492: a4 = a4 << 0x10\n 27495: a5 = a5 << 0x18\n 27498: a4 = a4 | a5\n 27501: a2 = a2 | a4\n 27504: a3 = u8 [a0 + 0x5]\n 27507: a4 = u8 [a0 + 0x4]\n 27510: a5 = u8 [a0 + 0x6]\n 27513: s1 = u8 [a0 + 0x7]\n 27516: a3 = a3 << 0x8\n 27519: a3 = a3 | a4\n 27522: a5 = a5 << 0x10\n 27525: s1 = s1 << 0x18\n 27528: a5 = a5 | s1\n 27531: a3 = a3 | a5\n 27534: a3 = a3 << 0x20\n 27537: a2 = a2 | a3\n 27540: a3 = u8 [a0 + 0x19]\n 27543: a4 = u8 [a0 + 0x18]\n 27546: a5 = u8 [a0 + 0x1a]\n 27549: s1 = u8 [a0 + 0x1b]\n 27552: a3 = a3 << 0x8\n 27555: a3 = a3 | a4\n 27558: a5 = a5 << 0x10\n 27561: s1 = s1 << 0x18\n 27564: a5 = a5 | s1\n 27567: a3 = a3 | a5\n 27570: a4 = u8 [a0 + 0x1d]\n 27573: a5 = u8 [a0 + 0x1c]\n 27576: s1 = u8 [a0 + 0x1e]\n 27579: a1 = u8 [a0 + 0x1f]\n 27582: a4 = a4 << 0x8\n 27585: a4 = a4 | a5\n 27588: s1 = s1 << 0x10\n 27591: a1 = a1 << 0x18\n 27594: a1 = a1 | s1\n 27597: a1 = a1 | a4\n 27600: a1 = a1 << 0x20\n 27603: a3 = a3 | a1\n 27606: a1 = u8 [a0 + 0x9]\n 27609: a4 = u8 [a0 + 0x8]\n 27612: a5 = u8 [a0 + 0xa]\n 27615: s1 = u8 [a0 + 0xb]\n 27618: a1 = a1 << 0x8\n 27621: a1 = a1 | a4\n 27624: a5 = a5 << 0x10\n 27627: s1 = s1 << 0x18\n 27630: a5 = a5 | s1\n 27633: a1 = a1 | a5\n 27636: a4 = u8 [a0 + 0xd]\n 27639: a5 = u8 [a0 + 0xc]\n 27642: s1 = u8 [a0 + 0xe]\n 27645: a0 = u8 [a0 + 0xf]\n 27648: a4 = a4 << 0x8\n 27651: a4 = a4 | a5\n 27654: s1 = s1 << 0x10\n 27657: a0 = a0 << 0x18\n 27660: a0 = a0 | s1\n 27663: a0 = a0 | a4\n 27666: a0 = a0 << 0x20\n 27669: a0 = a0 | a1\n 27672: a1 = reverse a0\n 27674: a0 = reverse a3\n 27676: a2 = reverse a2\n 27678: a3 = reverse t0\n 27680: a2 = a2 | a3\n 27683: a3 = a0 | a1\n 27686: a3 = a3 | a2\n 27689: a3 = a3 >> 0x20\n 27692: a1 = a1 | a2\n 27695: a1 = a1 << 0x20\n 27698: a1 = a1 | a3\n 27701: jump @413 if a1 == 0\n      : @410 (gas: 1)\n 27704: trap\n      : @411 (gas: 3)\n 27705: a0 = 0\n 27707: a1 = 0\n 27709: ra = 356, jump @0\n      : @412 [@dyn 178] (gas: 5)\n 27715: i32 a1 = a0 + 0\n 27717: a0 = 0x1\n 27720: a2 = 0\n 27722: ecalli 13 // 'seal_return'\n 27724: fallthrough\n      : @413 (gas: 4)\n 27725: i32 s1 = a0 + 0\n 27727: a1 = 0x20\n 27730: a0 = s1\n 27732: ra = 358, jump @0\n      : @414 [@dyn 179] (gas: 71)\n 27738: a1 = u64 [sp + 0x20]\n 27741: a1 = reverse a1\n 27743: a2 = u64 [sp + 0x28]\n 27746: a2 = reverse a2\n 27748: a3 = u64 [sp + 0x30]\n 27751: a3 = reverse a3\n 27753: a4 = u64 [sp + 0x38]\n 27756: a4 = reverse a4\n 27758: a5 = a4 >> 0x38\n 27761: u8 [a0 + 0x1f] = a5\n 27764: a5 = a4 >> 0x30\n 27767: u8 [a0 + 0x1e] = a5\n 27770: a5 = a4 >> 0x28\n 27773: u8 [a0 + 0x1d] = a5\n 27776: a5 = a4 >> 0x20\n 27779: u8 [a0 + 0x1c] = a5\n 27782: a5 = a4 >> 0x18\n 27785: u8 [a0 + 0x1b] = a5\n 27788: a5 = a4 >> 0x10\n 27791: u8 [a0 + 0x1a] = a5\n 27794: a5 = a4 >> 0x8\n 27797: u8 [a0 + 0x19] = a5\n 27800: u8 [a0 + 0x18] = a4\n 27803: u8 [a0 + 0x10] = a3\n 27806: a4 = a3 >> 0x38\n 27809: u8 [a0 + 0x17] = a4\n 27812: a4 = a3 >> 0x30\n 27815: u8 [a0 + 0x16] = a4\n 27818: a4 = a3 >> 0x28\n 27821: u8 [a0 + 0x15] = a4\n 27824: a4 = a3 >> 0x20\n 27827: u8 [a0 + 0x14] = a4\n 27830: a4 = a3 >> 0x18\n 27833: u8 [a0 + 0x13] = a4\n 27836: a4 = a3 >> 0x10\n 27839: u8 [a0 + 0x12] = a4\n 27842: a3 = a3 >> 0x8\n 27845: u8 [a0 + 0x11] = a3\n 27848: u8 [a0 + 0x8] = a2\n 27851: a3 = a2 >> 0x38\n 27854: u8 [a0 + 0xf] = a3\n 27857: a3 = a2 >> 0x30\n 27860: u8 [a0 + 0xe] = a3\n 27863: a3 = a2 >> 0x28\n 27866: u8 [a0 + 0xd] = a3\n 27869: a3 = a2 >> 0x20\n 27872: u8 [a0 + 0xc] = a3\n 27875: a3 = a2 >> 0x18\n 27878: u8 [a0 + 0xb] = a3\n 27881: a3 = a2 >> 0x10\n 27884: u8 [a0 + 0xa] = a3\n 27887: a2 = a2 >> 0x8\n 27890: u8 [a0 + 0x9] = a2\n 27893: u8 [a0] = a1\n 27895: a2 = a1 >> 0x38\n 27898: u8 [a0 + 0x7] = a2\n 27901: a2 = a1 >> 0x30\n 27904: u8 [a0 + 0x6] = a2\n 27907: a2 = a1 >> 0x28\n 27910: u8 [a0 + 0x5] = a2\n 27913: a2 = a1 >> 0x20\n 27916: u8 [a0 + 0x4] = a2\n 27919: a2 = a1 >> 0x18\n 27922: u8 [a0 + 0x3] = a2\n 27925: a2 = a1 >> 0x10\n 27928: u8 [a0 + 0x2] = a2\n 27931: a1 = a1 >> 0x8\n 27934: u8 [a0 + 0x1] = a1\n 27937: a1 = 0x20\n 27940: a0 = s1\n 27942: ra = 360, jump @0\n      : @415 [@dyn 180] (gas: 6)\n 27948: i32 a1 = a0 + 0\n 27950: a2 = 0x20\n 27953: a0 = 0\n 27955: ra = 0x16a\n 27959: ecalli 13 // 'seal_return'\n 27961: fallthrough\n      : @416 [@dyn 181] (gas: 13)\n 27962: sp = sp + 0xffffffffffffff40\n 27966: u64 [sp + 0xb8] = ra\n 27970: u64 [sp + 0xb0] = s0\n 27974: u64 [sp + 0xa8] = s1\n 27978: s0 = sp + 0xc0\n 27982: sp = sp & 0xffffffffffffffe0\n 27985: u64 [sp + 120] = 0\n 27988: u64 [sp + 112] = 0\n 27991: u64 [sp + 104] = 0\n 27994: u64 [sp + 96] = 0\n 27997: i32 a0 = sp + 0x60\n 28000: ecalli 16 // 'value_transferred'\n 28002: fallthrough\n      : @417 (gas: 8)\n 28003: a0 = u64 [sp + 0x70]\n 28006: a1 = u64 [sp + 0x78]\n 28009: a2 = u64 [sp + 0x68]\n 28012: a3 = u64 [sp + 0x60]\n 28015: a1 = a1 | a2\n 28018: a0 = a0 | a3\n 28021: a0 = a0 | a1\n 28024: jump @423 if a0 != 0\n      : @418 (gas: 2)\n 28028: a0 = i32 [0x20114]\n 28033: jump @423 if a0 <=u 67\n      : @419 (gas: 56)\n 28038: i32 a0 = sp + 0x80\n 28042: a1 = 0x4\n 28045: ecalli 3 // 'call_data_load'\n 28047: a0 = u64 [sp + 0x80]\n 28051: u64 [sp + 0x18] = a0\n 28054: a0 = u64 [sp + 0x88]\n 28058: u64 [sp + 0x10] = a0\n 28061: a0 = u64 [sp + 0x90]\n 28065: u64 [sp + 0x8] = a0\n 28068: s1 = u64 [sp + 0x98]\n 28072: i32 a0 = sp + 0x80\n 28076: a1 = 0x24\n 28079: ecalli 3 // 'call_data_load'\n 28081: a0 = u64 [sp + 0x80]\n 28085: a1 = u64 [sp + 0x88]\n 28089: a2 = u64 [sp + 0x90]\n 28093: a3 = u64 [sp + 0x98]\n 28097: u64 [sp + 0x38] = a3\n 28100: u64 [sp + 0x30] = a2\n 28103: u64 [sp + 0x28] = a1\n 28106: u64 [sp + 0x20] = a0\n 28109: u64 [sp + 0x58] = s1\n 28112: a0 = u64 [sp + 0x8]\n 28115: u64 [sp + 0x50] = a0\n 28118: a0 = u64 [sp + 0x10]\n 28121: u64 [sp + 0x48] = a0\n 28124: a0 = sp + 0x40\n 28127: a1 = sp + 0x20\n 28130: a2 = u64 [sp + 0x18]\n 28133: u64 [sp + 0x40] = a2\n 28136: ra = 0x16c\n 28140: sp = sp + 0xfffffffffffffde0\n 28144: u64 [sp + 0x218] = ra\n 28148: u64 [sp + 0x210] = s0\n 28152: u64 [sp + 0x208] = s1\n 28156: s0 = sp + 0x220\n 28160: sp = sp & 0xffffffffffffffe0\n 28163: a2 = u64 [a1]\n 28165: u64 [sp + 0x78] = a2\n 28168: a2 = u64 [a1 + 0x8]\n 28171: u64 [sp + 0x70] = a2\n 28174: a2 = u64 [a1 + 0x10]\n 28177: u64 [sp + 0x68] = a2\n 28180: a1 = u64 [a1 + 0x18]\n 28183: u64 [sp + 0x60] = a1\n 28186: a1 = u64 [a0]\n 28188: u64 [sp + 0x58] = a1\n 28191: a1 = u64 [a0 + 0x8]\n 28194: u64 [sp + 0x50] = a1\n 28197: a1 = u64 [a0 + 0x10]\n 28200: u64 [sp + 0x48] = a1\n 28203: s1 = u64 [a0 + 0x18]\n 28206: a1 = 0x20\n 28209: a0 = 0\n 28211: ra = 0x374\n 28215: jump @0\n      : @420 [@dyn 182] (gas: 3)\n 28218: a0 = 0x40\n 28221: a1 = 0x20\n 28224: ra = 366, jump @0\n      : @421 [@dyn 183] (gas: 100)\n 28230: a1 = u8 [a0 + 0x11]\n 28233: a2 = u8 [a0 + 0x10]\n 28236: a3 = u8 [a0 + 0x12]\n 28239: a4 = u8 [a0 + 0x13]\n 28242: a1 = a1 << 0x8\n 28245: a1 = a1 | a2\n 28248: a3 = a3 << 0x10\n 28251: a4 = a4 << 0x18\n 28254: a3 = a3 | a4\n 28257: a1 = a1 | a3\n 28260: a2 = u8 [a0 + 0x15]\n 28263: a3 = u8 [a0 + 0x14]\n 28266: a4 = u8 [a0 + 0x16]\n 28269: a5 = u8 [a0 + 0x17]\n 28272: a2 = a2 << 0x8\n 28275: a2 = a2 | a3\n 28278: a4 = a4 << 0x10\n 28281: a5 = a5 << 0x18\n 28284: a4 = a4 | a5\n 28287: a2 = a2 | a4\n 28290: a2 = a2 << 0x20\n 28293: t0 = a2 | a1\n 28296: a2 = u8 [a0 + 0x1]\n 28299: a3 = u8 [a0]\n 28301: a4 = u8 [a0 + 0x2]\n 28304: a5 = u8 [a0 + 0x3]\n 28307: a2 = a2 << 0x8\n 28310: a2 = a2 | a3\n 28313: a4 = a4 << 0x10\n 28316: a5 = a5 << 0x18\n 28319: a4 = a4 | a5\n 28322: a2 = a2 | a4\n 28325: a3 = u8 [a0 + 0x5]\n 28328: a4 = u8 [a0 + 0x4]\n 28331: a5 = u8 [a0 + 0x6]\n 28334: s1 = u8 [a0 + 0x7]\n 28337: a3 = a3 << 0x8\n 28340: a3 = a3 | a4\n 28343: a5 = a5 << 0x10\n 28346: s1 = s1 << 0x18\n 28349: a5 = a5 | s1\n 28352: a3 = a3 | a5\n 28355: a3 = a3 << 0x20\n 28358: a2 = a2 | a3\n 28361: a3 = u8 [a0 + 0x19]\n 28364: a4 = u8 [a0 + 0x18]\n 28367: a5 = u8 [a0 + 0x1a]\n 28370: s1 = u8 [a0 + 0x1b]\n 28373: a3 = a3 << 0x8\n 28376: a3 = a3 | a4\n 28379: a5 = a5 << 0x10\n 28382: s1 = s1 << 0x18\n 28385: a5 = a5 | s1\n 28388: a3 = a3 | a5\n 28391: a4 = u8 [a0 + 0x1d]\n 28394: a5 = u8 [a0 + 0x1c]\n 28397: s1 = u8 [a0 + 0x1e]\n 28400: a1 = u8 [a0 + 0x1f]\n 28403: a4 = a4 << 0x8\n 28406: a4 = a4 | a5\n 28409: s1 = s1 << 0x10\n 28412: a1 = a1 << 0x18\n 28415: a1 = a1 | s1\n 28418: a1 = a1 | a4\n 28421: a1 = a1 << 0x20\n 28424: a3 = a3 | a1\n 28427: a1 = u8 [a0 + 0x9]\n 28430: a4 = u8 [a0 + 0x8]\n 28433: a5 = u8 [a0 + 0xa]\n 28436: s1 = u8 [a0 + 0xb]\n 28439: a1 = a1 << 0x8\n 28442: a1 = a1 | a4\n 28445: a5 = a5 << 0x10\n 28448: s1 = s1 << 0x18\n 28451: a5 = a5 | s1\n 28454: a1 = a1 | a5\n 28457: a4 = u8 [a0 + 0xd]\n 28460: a5 = u8 [a0 + 0xc]\n 28463: s1 = u8 [a0 + 0xe]\n 28466: a0 = u8 [a0 + 0xf]\n 28469: a4 = a4 << 0x8\n 28472: a4 = a4 | a5\n 28475: s1 = s1 << 0x10\n 28478: a0 = a0 << 0x18\n 28481: a0 = a0 | s1\n 28484: a0 = a0 | a4\n 28487: a0 = a0 << 0x20\n 28490: a0 = a0 | a1\n 28493: a1 = reverse a0\n 28495: a0 = reverse a3\n 28497: a2 = reverse a2\n 28499: a3 = reverse t0\n 28501: a2 = a2 | a3\n 28504: a3 = a0 | a1\n 28507: a3 = a3 | a2\n 28510: a3 = a3 >> 0x20\n 28513: a1 = a1 | a2\n 28516: a1 = a1 << 0x20\n 28519: a1 = a1 | a3\n 28522: jump @425 if a1 == 0\n      : @422 (gas: 1)\n 28525: trap\n      : @423 (gas: 3)\n 28526: a0 = 0\n 28528: a1 = 0\n 28530: ra = 368, jump @0\n      : @424 [@dyn 184] (gas: 7)\n 28536: i32 a1 = a0 + 0\n 28538: a0 = 0x1\n 28541: a2 = 0\n 28543: ecalli 13 // 'seal_return'\n 28545: i32 a0 = a0 + 0\n 28547: ra = 0x172\n 28551: jump @0\n      : @425 (gas: 2)\n 28554: i32 a0 = a0 + 0\n 28556: ra = 370, jump @0\n      : @426 [@dyn 185] (gas: 6)\n 28562: i32 a1 = a0 + 0\n 28564: a0 = 0\n 28566: a2 = 0\n 28568: ra = 0x174\n 28572: ecalli 13 // 'seal_return'\n 28574: fallthrough\n      : @427 [@dyn 186] (gas: 44)\n 28575: sp = sp + 0xfffffffffffffcc0\n 28579: u64 [sp + 0x338] = ra\n 28583: u64 [sp + 0x330] = s0\n 28587: u64 [sp + 0x328] = s1\n 28591: s0 = sp + 0x340\n 28595: sp = sp & 0xffffffffffffffe0\n 28598: s1 = u64 [a2 + 0x8]\n 28601: t2 = u64 [a1 + 0x8]\n 28604: a5 = u64 [a2]\n 28606: a3 = u64 [a1]\n 28608: t0 = u64 [a2 + 0x10]\n 28611: a4 = s1 ^ t2\n 28614: ra = s1 <u t2\n 28617: t1 = a5 <u a3\n 28620: ra = t1 if a4 == 0\n 28623: u64 [sp + 0xf0] = s1\n 28627: a4 = s1 - t2\n 28630: a4 = a4 - t1\n 28633: u64 [sp + 0xe0] = a5\n 28637: u64 [sp + 0x118] = a3\n 28641: a5 = a5 - a3\n 28644: a5 = a5 <u 0xa0\n 28648: a5 = a5 ^ 0x1\n 28651: t1 = u64 [a1 + 0x10]\n 28654: s1 = a4 >u 0\n 28656: a5 = s1 if a4 != 0\n 28659: a4 = u64 [a2 + 0x18]\n 28662: s1 = u64 [a1 + 0x18]\n 28665: a1 = t0 - t1\n 28668: a2 = a1 - ra\n 28671: ra = a1 <u ra\n 28674: u64 [sp + 0xe8] = t0\n 28678: a3 = t0 <u t1\n 28681: a1 = s1\n 28683: u64 [sp + 0xd8] = a4\n 28687: a4 = a4 - s1\n 28690: a4 = a4 - a3\n 28693: a4 = a4 - ra\n 28696: s1 = a4 >s 0\n 28698: a3 = a2 >u 0\n 28700: a3 = s1 if a4 != 0\n 28703: a2 = a2 | a4\n 28706: a5 = a3 if a2 != 0\n 28709: jump @447 if a5 == 0\n      : @428 (gas: 13)\n 28713: s1 = a0\n 28715: a2 = u64 [sp + 0x118]\n 28719: a0 = a2 | t1\n 28722: u64 [sp + 0x110] = t2\n 28726: u64 [sp + 0x100] = a1\n 28730: a1 = t2 | a1\n 28733: a0 = a0 | a1\n 28736: a0 = a0 >> 0x20\n 28739: u64 [sp + 0x108] = t1\n 28743: a1 = a1 | t1\n 28746: a1 = a1 << 0x20\n 28749: a0 = a0 | a1\n 28752: jump @446 if a0 != 0\n      : @429 (gas: 5)\n 28756: i32 a1 = a2 + 0\n 28758: i32 a0 = sp + 0x2a0\n 28762: u64 [sp + 0xf8] = a1\n 28766: ecalli 3 // 'call_data_load'\n 28768: fallthrough\n      : @430 (gas: 7)\n 28769: t0 = u64 [sp + 0x2b8]\n 28773: a1 = u64 [sp + 0x2b0]\n 28777: a2 = u64 [sp + 0x2a8]\n 28781: a3 = a1 | t0\n 28784: a4 = a2 <u 0x1\n 28787: a4 = 0 if a3 != 0\n 28789: jump @447 if a4 == 0\n      : @431 (gas: 35)\n 28793: a3 = u64 [sp + 0x2a0]\n 28797: a4 = u64 [sp + 0x118]\n 28801: a4 = a4 + a3\n 28804: a3 = a4 <u a3\n 28807: a5 = u64 [sp + 0x110]\n 28811: a5 = a5 + a2\n 28814: a5 = a5 + a3\n 28817: a0 = a5 ^ a2\n 28820: a2 = a5 <u a2\n 28823: a2 = a3 if a0 == 0\n 28826: a0 = u64 [sp + 0x108]\n 28830: a0 = a0 + a1\n 28833: a2 = a2 + a0\n 28836: a3 = a2 <u a0\n 28839: a0 = a0 <u a1\n 28842: a1 = u64 [sp + 0x100]\n 28846: t0 = t0 + a1\n 28849: a0 = a0 + t0\n 28852: a3 = a3 + a0\n 28855: a0 = u64 [sp + 0xe0]\n 28859: u64 [sp + 0x220] = a0\n 28863: a0 = u64 [sp + 0xf0]\n 28867: u64 [sp + 0x228] = a0\n 28871: u64 [sp + 0x240] = a4\n 28875: a0 = u64 [sp + 0xe8]\n 28879: u64 [sp + 0x230] = a0\n 28883: a0 = u64 [sp + 0xd8]\n 28887: u64 [sp + 0x238] = a0\n 28891: u64 [sp + 0x248] = a5\n 28895: u64 [sp + 0x250] = a2\n 28899: a0 = sp + 0x260\n 28903: a1 = sp + 0x240\n 28907: a2 = sp + 0x220\n 28911: u64 [sp + 0x258] = a3\n 28915: ra = 374, jump @174\n      : @432 [@dyn 187] (gas: 13)\n 28921: a0 = u64 [sp + 0x108]\n 28925: a2 = u64 [sp + 0x100]\n 28929: a2 = a2 | a0\n 28932: a0 = 0x100000000\n 28942: u64 [sp + 0xc8] = a0\n 28946: a0 = 0xffffffe0\n 28956: a1 = u64 [sp + 0x118]\n 28960: a0 = a1 <u a0\n 28963: a1 = u64 [sp + 0x110]\n 28967: a0 = 0 if a1 != 0\n 28969: u64 [sp + 0xd0] = a2\n 28973: a0 = 0 if a2 != 0\n 28975: jump @446 if a0 == 0\n      : @433 (gas: 21)\n 28979: a0 = u64 [sp + 0x298]\n 28983: u64 [sp + 0xa8] = a0\n 28987: a0 = u64 [sp + 0x290]\n 28991: u64 [sp + 0x88] = a0\n 28995: a0 = u64 [sp + 0x288]\n 28999: u64 [sp + 0xb0] = a0\n 29003: a0 = u64 [sp + 0x280]\n 29007: u64 [sp + 0x90] = a0\n 29011: a0 = u64 [sp + 0x278]\n 29015: u64 [sp + 0xb8] = a0\n 29019: a0 = u64 [sp + 0x270]\n 29023: u64 [sp + 0x98] = a0\n 29027: a0 = u64 [sp + 0x268]\n 29031: u64 [sp + 0xc0] = a0\n 29035: a0 = u64 [sp + 0x260]\n 29039: u64 [sp + 0xa0] = a0\n 29043: a0 = u64 [sp + 0xf8]\n 29047: i32 a1 = a0 + 0x20\n 29050: i32 a0 = sp + 0x300\n 29054: ecalli 3 // 'call_data_load'\n 29056: fallthrough\n      : @434 (gas: 9)\n 29057: a0 = u64 [sp + 0xc8]\n 29061: a0 = a0 + 0xffffffffffffffc0\n 29064: a1 = u64 [sp + 0x118]\n 29068: a0 = a1 <u a0\n 29071: a1 = u64 [sp + 0x110]\n 29075: a0 = 0 if a1 != 0\n 29077: a1 = u64 [sp + 0xd0]\n 29081: a0 = 0 if a1 != 0\n 29083: jump @446 if a0 == 0\n      : @435 (gas: 13)\n 29087: a0 = u64 [sp + 0x318]\n 29091: u64 [sp + 0x78] = a0\n 29094: a0 = u64 [sp + 0x310]\n 29098: u64 [sp + 0x68] = a0\n 29101: a0 = u64 [sp + 0x308]\n 29105: u64 [sp + 0x80] = a0\n 29109: a0 = u64 [sp + 0x300]\n 29113: u64 [sp + 0x70] = a0\n 29116: a0 = u64 [sp + 0xf8]\n 29120: i32 a1 = a0 + 0x40\n 29123: i32 a0 = sp + 0x2c0\n 29127: ecalli 3 // 'call_data_load'\n 29129: fallthrough\n      : @436 (gas: 7)\n 29130: t0 = u64 [sp + 0x2d8]\n 29134: a1 = u64 [sp + 0x2d0]\n 29138: a2 = u64 [sp + 0x2c8]\n 29142: a3 = a1 | t0\n 29145: a4 = a2 <u 0x1\n 29148: a4 = 0 if a3 != 0\n 29150: jump @447 if a4 == 0\n      : @437 (gas: 35)\n 29154: a3 = u64 [sp + 0x2c0]\n 29158: a4 = u64 [sp + 0x118]\n 29162: a4 = a4 + a3\n 29165: a3 = a4 <u a3\n 29168: a5 = u64 [sp + 0x110]\n 29172: a5 = a5 + a2\n 29175: a5 = a5 + a3\n 29178: a0 = a5 ^ a2\n 29181: a2 = a5 <u a2\n 29184: a2 = a3 if a0 == 0\n 29187: a0 = u64 [sp + 0x108]\n 29191: a0 = a0 + a1\n 29194: a2 = a2 + a0\n 29197: a3 = a2 <u a0\n 29200: a0 = a0 <u a1\n 29203: a1 = u64 [sp + 0x100]\n 29207: t0 = t0 + a1\n 29210: a0 = a0 + t0\n 29213: a3 = a3 + a0\n 29216: a0 = u64 [sp + 0xe0]\n 29220: u64 [sp + 0x1a0] = a0\n 29224: a0 = u64 [sp + 0xf0]\n 29228: u64 [sp + 0x1a8] = a0\n 29232: u64 [sp + 0x1c0] = a4\n 29236: a0 = u64 [sp + 0xe8]\n 29240: u64 [sp + 0x1b0] = a0\n 29244: a0 = u64 [sp + 0xd8]\n 29248: u64 [sp + 0x1b8] = a0\n 29252: u64 [sp + 0x1c8] = a5\n 29256: u64 [sp + 0x1d0] = a2\n 29260: a0 = sp + 0x1e0\n 29264: a1 = sp + 0x1c0\n 29268: a2 = sp + 0x1a0\n 29272: u64 [sp + 0x1d8] = a3\n 29276: ra = 376, jump @174\n      : @438 [@dyn 188] (gas: 10)\n 29282: a0 = 0x100000000\n 29292: u64 [sp + 0xc8] = a0\n 29296: a0 = 0xffffffa0\n 29306: a1 = u64 [sp + 0x118]\n 29310: a0 = a1 <u a0\n 29313: a1 = u64 [sp + 0x110]\n 29317: a0 = 0 if a1 != 0\n 29319: a1 = u64 [sp + 0xd0]\n 29323: a0 = 0 if a1 != 0\n 29325: jump @446 if a0 == 0\n      : @439 (gas: 21)\n 29329: a0 = u64 [sp + 0x218]\n 29333: u64 [sp + 0x48] = a0\n 29336: a0 = u64 [sp + 0x210]\n 29340: u64 [sp + 0x28] = a0\n 29343: a0 = u64 [sp + 0x208]\n 29347: u64 [sp + 0x50] = a0\n 29350: a0 = u64 [sp + 0x200]\n 29354: u64 [sp + 0x30] = a0\n 29357: a0 = u64 [sp + 0x1f8]\n 29361: u64 [sp + 0x58] = a0\n 29364: a0 = u64 [sp + 0x1f0]\n 29368: u64 [sp + 0x38] = a0\n 29371: a0 = u64 [sp + 0x1e8]\n 29375: u64 [sp + 0x60] = a0\n 29378: a0 = u64 [sp + 0x1e0]\n 29382: u64 [sp + 0x40] = a0\n 29385: a0 = u64 [sp + 0xf8]\n 29389: i32 a1 = a0 + 0x60\n 29392: i32 a0 = sp + 0x300\n 29396: ecalli 3 // 'call_data_load'\n 29398: fallthrough\n      : @440 (gas: 10)\n 29399: a2 = u64 [sp + 0x310]\n 29403: a3 = u64 [sp + 0x318]\n 29407: a0 = u64 [sp + 0xc8]\n 29411: a0 = a0 ^ a2\n 29414: a0 = a0 | a3\n 29417: a1 = a2 >> 0x20\n 29420: a1 = a1 <u 0x1\n 29423: a1 = 0 if a3 != 0\n 29425: a1 = 0 if a0 == 0\n 29427: jump @449 if a1 == 0\n      : @441 (gas: 10)\n 29431: u64 [sp + 0x20] = a3\n 29434: u64 [sp + 0xc8] = a2\n 29438: a0 = 0xffffff80\n 29448: a1 = u64 [sp + 0x118]\n 29452: a0 = a1 <u a0\n 29455: a1 = u64 [sp + 0x110]\n 29459: a0 = 0 if a1 != 0\n 29461: a1 = u64 [sp + 0xd0]\n 29465: a0 = 0 if a1 != 0\n 29467: jump @446 if a0 == 0\n      : @442 (gas: 9)\n 29471: a0 = u64 [sp + 0x308]\n 29475: u64 [sp + 0xd0] = a0\n 29479: a0 = u64 [sp + 0x300]\n 29483: u64 [sp + 0x18] = a0\n 29486: a0 = u64 [sp + 0xf8]\n 29490: i32 a1 = a0 + 0x80\n 29494: i32 a0 = sp + 0x2e0\n 29498: ecalli 3 // 'call_data_load'\n 29500: fallthrough\n      : @443 (gas: 7)\n 29501: t0 = u64 [sp + 0x2f8]\n 29505: a1 = u64 [sp + 0x2f0]\n 29509: a2 = u64 [sp + 0x2e8]\n 29513: a3 = a1 | t0\n 29516: a4 = a2 <u 0x1\n 29519: a4 = 0 if a3 != 0\n 29521: jump @447 if a4 == 0\n      : @444 (gas: 35)\n 29525: a3 = u64 [sp + 0x2e0]\n 29529: a4 = u64 [sp + 0x118]\n 29533: a4 = a4 + a3\n 29536: a3 = a4 <u a3\n 29539: a5 = u64 [sp + 0x110]\n 29543: a5 = a5 + a2\n 29546: a5 = a5 + a3\n 29549: a0 = a5 ^ a2\n 29552: a2 = a5 <u a2\n 29555: a2 = a3 if a0 == 0\n 29558: a0 = u64 [sp + 0x108]\n 29562: a0 = a0 + a1\n 29565: a2 = a2 + a0\n 29568: a3 = a2 <u a0\n 29571: a0 = a0 <u a1\n 29574: a1 = u64 [sp + 0x100]\n 29578: t0 = t0 + a1\n 29581: a0 = a0 + t0\n 29584: a3 = a3 + a0\n 29587: a0 = u64 [sp + 0xe0]\n 29591: u64 [sp + 0x120] = a0\n 29595: a0 = u64 [sp + 0xf0]\n 29599: u64 [sp + 0x128] = a0\n 29603: u64 [sp + 0x140] = a4\n 29607: a0 = u64 [sp + 0xe8]\n 29611: u64 [sp + 0x130] = a0\n 29615: a0 = u64 [sp + 0xd8]\n 29619: u64 [sp + 0x138] = a0\n 29623: u64 [sp + 0x148] = a5\n 29627: u64 [sp + 0x150] = a2\n 29631: a0 = sp + 0x160\n 29635: a1 = sp + 0x140\n 29639: a2 = sp + 0x120\n 29643: u64 [sp + 0x158] = a3\n 29647: ra = 378, jump @174\n      : @445 [@dyn 189] (gas: 70)\n 29653: t0 = u64 [sp + 0x168]\n 29657: t1 = u64 [sp + 0x160]\n 29661: a2 = u64 [sp + 0x178]\n 29665: a3 = u64 [sp + 0x170]\n 29669: a4 = u64 [sp + 0x190]\n 29673: a5 = u64 [sp + 0x198]\n 29677: a0 = u64 [sp + 0x180]\n 29681: a1 = u64 [sp + 0x188]\n 29685: u64 [s1 + 0xf0] = a4\n 29689: u64 [s1 + 0xf8] = a5\n 29693: u64 [s1 + 0xe0] = a0\n 29697: u64 [s1 + 0xe8] = a1\n 29701: u64 [s1 + 0xd0] = a3\n 29705: u64 [s1 + 0xd8] = a2\n 29709: u64 [s1 + 0xc0] = t1\n 29713: u64 [s1 + 0xc8] = t0\n 29717: a0 = u64 [sp + 0xc8]\n 29721: u64 [s1 + 0xb0] = a0\n 29725: a0 = u64 [sp + 0x20]\n 29728: u64 [s1 + 0xb8] = a0\n 29732: a0 = u64 [sp + 0x18]\n 29735: u64 [s1 + 0xa0] = a0\n 29739: a0 = u64 [sp + 0xd0]\n 29743: u64 [s1 + 0xa8] = a0\n 29747: a0 = u64 [sp + 0x28]\n 29750: u64 [s1 + 0x90] = a0\n 29754: a0 = u64 [sp + 0x48]\n 29757: u64 [s1 + 0x98] = a0\n 29761: a0 = u64 [sp + 0x30]\n 29764: u64 [s1 + 0x80] = a0\n 29768: a0 = u64 [sp + 0x50]\n 29771: u64 [s1 + 0x88] = a0\n 29775: a0 = u64 [sp + 0x38]\n 29778: u64 [s1 + 0x70] = a0\n 29781: a0 = u64 [sp + 0x58]\n 29784: u64 [s1 + 0x78] = a0\n 29787: a0 = u64 [sp + 0x40]\n 29790: u64 [s1 + 0x60] = a0\n 29793: a0 = u64 [sp + 0x60]\n 29796: u64 [s1 + 0x68] = a0\n 29799: a0 = u64 [sp + 0x68]\n 29802: u64 [s1 + 0x50] = a0\n 29805: a0 = u64 [sp + 0x78]\n 29808: u64 [s1 + 0x58] = a0\n 29811: a0 = u64 [sp + 0x70]\n 29814: u64 [s1 + 0x40] = a0\n 29817: a0 = u64 [sp + 0x80]\n 29821: u64 [s1 + 0x48] = a0\n 29824: a0 = u64 [sp + 0x88]\n 29828: u64 [s1 + 0x30] = a0\n 29831: a0 = u64 [sp + 0xa8]\n 29835: u64 [s1 + 0x38] = a0\n 29838: a0 = u64 [sp + 0x90]\n 29842: u64 [s1 + 0x20] = a0\n 29845: a0 = u64 [sp + 0xb0]\n 29849: u64 [s1 + 0x28] = a0\n 29852: a0 = u64 [sp + 0x98]\n 29856: u64 [s1 + 0x10] = a0\n 29859: a0 = u64 [sp + 0xb8]\n 29863: u64 [s1 + 0x18] = a0\n 29866: a0 = u64 [sp + 0xa0]\n 29870: u64 [s1] = a0\n 29872: a0 = u64 [sp + 0xc0]\n 29876: u64 [s1 + 0x8] = a0\n 29879: sp = s0 + 0xfffffffffffffcc0\n 29883: ra = u64 [sp + 0x338]\n 29887: s0 = u64 [sp + 0x330]\n 29891: s1 = u64 [sp + 0x328]\n 29895: sp = sp + 0x340\n 29899: ret\n      : @446 (gas: 1)\n 29901: trap\n      : @447 (gas: 3)\n 29902: a0 = 0\n 29904: a1 = 0\n 29906: ra = 380, jump @0\n      : @448 [@dyn 190] (gas: 7)\n 29912: i32 a1 = a0 + 0\n 29914: a0 = 0x1\n 29917: a2 = 0\n 29919: ecalli 13 // 'seal_return'\n 29921: a0 = 0\n 29923: ra = 0x17c\n 29927: jump @0\n      : @449 (gas: 3)\n 29930: a0 = 0\n 29932: ra = 0x17c\n 29936: jump @0\n      : @450 [@dyn 191] (gas: 123)\n 29939: a0 = u64 [sp + 0x230]\n 29943: u64 [sp + 0xc8] = a0\n 29947: a0 = u64 [sp + 0x238]\n 29951: u64 [sp + 0xc0] = a0\n 29955: a0 = u64 [sp + 0x240]\n 29959: u64 [sp + 0xb8] = a0\n 29963: a0 = u64 [sp + 0x248]\n 29967: u64 [sp + 0xb0] = a0\n 29971: a0 = u64 [sp + 0x250]\n 29975: u64 [sp + 0xa8] = a0\n 29979: a0 = u64 [sp + 0x258]\n 29983: u64 [sp + 0xa0] = a0\n 29987: a0 = u64 [sp + 0x260]\n 29991: u64 [sp + 0x98] = a0\n 29995: a0 = u64 [sp + 0x268]\n 29999: u64 [sp + 0x90] = a0\n 30003: a0 = u64 [sp + 0x270]\n 30007: u64 [sp + 0x88] = a0\n 30011: a0 = u64 [sp + 0x278]\n 30015: u64 [sp + 0x80] = a0\n 30019: a0 = u64 [sp + 0x280]\n 30023: u64 [sp + 0x78] = a0\n 30026: a0 = u64 [sp + 0x288]\n 30030: u64 [sp + 0x70] = a0\n 30033: a0 = u64 [sp + 0x290]\n 30037: u64 [sp + 0x68] = a0\n 30040: a0 = u64 [sp + 0x298]\n 30044: u64 [sp + 0x60] = a0\n 30047: a0 = u64 [sp + 0x2a0]\n 30051: u64 [sp + 0x58] = a0\n 30054: a0 = u64 [sp + 0x2a8]\n 30058: u64 [sp + 0x50] = a0\n 30061: a0 = u64 [sp + 0x2b0]\n 30065: u64 [sp + 0x48] = a0\n 30068: a0 = u64 [sp + 0x2b8]\n 30072: u64 [sp + 0x40] = a0\n 30075: a0 = u64 [sp + 0x2c0]\n 30079: u64 [sp + 0x38] = a0\n 30082: a0 = u64 [sp + 0x2c8]\n 30086: u64 [sp + 0x30] = a0\n 30089: a0 = u64 [sp + 0x2d0]\n 30093: u64 [sp + 0x28] = a0\n 30096: a0 = u64 [sp + 0x2d8]\n 30100: u64 [sp + 0x20] = a0\n 30103: a0 = u64 [sp + 0x2e0]\n 30107: u64 [sp + 0x18] = a0\n 30110: t2 = u64 [sp + 0x2e8]\n 30114: t1 = u64 [sp + 0x2f0]\n 30118: t0 = u64 [sp + 0x2f8]\n 30122: a5 = u64 [sp + 0x300]\n 30126: a4 = u64 [sp + 0x308]\n 30130: a3 = u64 [sp + 0x310]\n 30134: a2 = u64 [sp + 0x318]\n 30138: a1 = u64 [sp + 0x320]\n 30142: a0 = u64 [sp + 0x328]\n 30146: ra = sp + 0xd0\n 30150: u64 [sp + 0x10] = ra\n 30153: s1 = sp + 0xf0\n 30157: u64 [sp + 0x8] = s1\n 30160: s1 = sp + 0x110\n 30164: u64 [sp] = s1\n 30166: u64 [sp + 0xe8] = a0\n 30170: u64 [sp + 0xe0] = a1\n 30174: u64 [sp + 0xd8] = a2\n 30178: u64 [sp + 0xd0] = a3\n 30182: u64 [sp + 0x108] = a4\n 30186: u64 [sp + 0x100] = a5\n 30190: u64 [sp + 0xf8] = t0\n 30194: u64 [sp + 0xf0] = t1\n 30198: u64 [sp + 0x128] = t2\n 30202: a0 = u64 [sp + 0x18]\n 30205: u64 [sp + 0x120] = a0\n 30209: a0 = u64 [sp + 0x20]\n 30212: u64 [sp + 0x118] = a0\n 30216: a0 = u64 [sp + 0x28]\n 30219: u64 [sp + 0x110] = a0\n 30223: a0 = u64 [sp + 0x30]\n 30226: u64 [sp + 0x148] = a0\n 30230: a0 = u64 [sp + 0x38]\n 30233: u64 [sp + 0x140] = a0\n 30237: a0 = u64 [sp + 0x40]\n 30240: u64 [sp + 0x138] = a0\n 30244: a0 = u64 [sp + 0x48]\n 30247: u64 [sp + 0x130] = a0\n 30251: a0 = u64 [sp + 0x50]\n 30254: u64 [sp + 0x168] = a0\n 30258: a0 = u64 [sp + 0x58]\n 30261: u64 [sp + 0x160] = a0\n 30265: a0 = u64 [sp + 0x60]\n 30268: u64 [sp + 0x158] = a0\n 30272: a0 = u64 [sp + 0x68]\n 30275: u64 [sp + 0x150] = a0\n 30279: a0 = u64 [sp + 0x70]\n 30282: u64 [sp + 0x188] = a0\n 30286: a0 = u64 [sp + 0x78]\n 30289: u64 [sp + 0x180] = a0\n 30293: a0 = u64 [sp + 0x80]\n 30297: u64 [sp + 0x178] = a0\n 30301: a0 = u64 [sp + 0x88]\n 30305: u64 [sp + 0x170] = a0\n 30309: a0 = u64 [sp + 0x90]\n 30313: u64 [sp + 0x1a8] = a0\n 30317: a0 = u64 [sp + 0x98]\n 30321: u64 [sp + 0x1a0] = a0\n 30325: a0 = u64 [sp + 0xa0]\n 30329: u64 [sp + 0x198] = a0\n 30333: a0 = u64 [sp + 0xa8]\n 30337: u64 [sp + 0x190] = a0\n 30341: a0 = u64 [sp + 0xb0]\n 30345: u64 [sp + 0x1c8] = a0\n 30349: a0 = u64 [sp + 0xb8]\n 30353: u64 [sp + 0x1c0] = a0\n 30357: a0 = u64 [sp + 0xc0]\n 30361: u64 [sp + 0x1b8] = a0\n 30365: a0 = sp + 0x1d0\n 30369: a1 = sp + 0x1b0\n 30373: a2 = sp + 0x190\n 30377: a3 = sp + 0x170\n 30381: a4 = sp + 0x150\n 30385: a5 = sp + 0x130\n 30389: s1 = u64 [sp + 0xc8]\n 30393: u64 [sp + 0x1b0] = s1\n 30397: ra = 384, jump @1107\n      : @451 [@dyn 192] (gas: 11)\n 30404: a0 = u64 [sp + 0x1e8]\n 30408: u64 [sp + 0xb0] = a0\n 30412: a0 = u64 [sp + 0x1e0]\n 30416: u64 [sp + 0xb8] = a0\n 30420: a0 = u64 [sp + 0x1d8]\n 30424: u64 [sp + 0xc0] = a0\n 30428: a0 = u64 [sp + 0x1d0]\n 30432: u64 [sp + 0xc8] = a0\n 30436: a0 = 0x40\n 30439: a1 = 0x20\n 30442: ra = 386, jump @0\n      : @452 [@dyn 193] (gas: 100)\n 30448: a1 = u8 [a0 + 0x11]\n 30451: a2 = u8 [a0 + 0x10]\n 30454: a3 = u8 [a0 + 0x12]\n 30457: a4 = u8 [a0 + 0x13]\n 30460: a1 = a1 << 0x8\n 30463: a1 = a1 | a2\n 30466: a3 = a3 << 0x10\n 30469: a4 = a4 << 0x18\n 30472: a3 = a3 | a4\n 30475: a1 = a1 | a3\n 30478: a2 = u8 [a0 + 0x15]\n 30481: a3 = u8 [a0 + 0x14]\n 30484: a4 = u8 [a0 + 0x16]\n 30487: a5 = u8 [a0 + 0x17]\n 30490: a2 = a2 << 0x8\n 30493: a2 = a2 | a3\n 30496: a4 = a4 << 0x10\n 30499: a5 = a5 << 0x18\n 30502: a4 = a4 | a5\n 30505: a2 = a2 | a4\n 30508: a2 = a2 << 0x20\n 30511: t0 = a2 | a1\n 30514: a2 = u8 [a0 + 0x1]\n 30517: a3 = u8 [a0]\n 30519: a4 = u8 [a0 + 0x2]\n 30522: a5 = u8 [a0 + 0x3]\n 30525: a2 = a2 << 0x8\n 30528: a2 = a2 | a3\n 30531: a4 = a4 << 0x10\n 30534: a5 = a5 << 0x18\n 30537: a4 = a4 | a5\n 30540: a2 = a2 | a4\n 30543: a3 = u8 [a0 + 0x5]\n 30546: a4 = u8 [a0 + 0x4]\n 30549: a5 = u8 [a0 + 0x6]\n 30552: s1 = u8 [a0 + 0x7]\n 30555: a3 = a3 << 0x8\n 30558: a3 = a3 | a4\n 30561: a5 = a5 << 0x10\n 30564: s1 = s1 << 0x18\n 30567: a5 = a5 | s1\n 30570: a3 = a3 | a5\n 30573: a3 = a3 << 0x20\n 30576: a2 = a2 | a3\n 30579: a3 = u8 [a0 + 0x19]\n 30582: a4 = u8 [a0 + 0x18]\n 30585: a5 = u8 [a0 + 0x1a]\n 30588: s1 = u8 [a0 + 0x1b]\n 30591: a3 = a3 << 0x8\n 30594: a3 = a3 | a4\n 30597: a5 = a5 << 0x10\n 30600: s1 = s1 << 0x18\n 30603: a5 = a5 | s1\n 30606: a3 = a3 | a5\n 30609: a4 = u8 [a0 + 0x1d]\n 30612: a5 = u8 [a0 + 0x1c]\n 30615: s1 = u8 [a0 + 0x1e]\n 30618: a1 = u8 [a0 + 0x1f]\n 30621: a4 = a4 << 0x8\n 30624: a4 = a4 | a5\n 30627: s1 = s1 << 0x10\n 30630: a1 = a1 << 0x18\n 30633: a1 = a1 | s1\n 30636: a1 = a1 | a4\n 30639: a1 = a1 << 0x20\n 30642: a3 = a3 | a1\n 30645: a1 = u8 [a0 + 0x9]\n 30648: a4 = u8 [a0 + 0x8]\n 30651: a5 = u8 [a0 + 0xa]\n 30654: s1 = u8 [a0 + 0xb]\n 30657: a1 = a1 << 0x8\n 30660: a1 = a1 | a4\n 30663: a5 = a5 << 0x10\n 30666: s1 = s1 << 0x18\n 30669: a5 = a5 | s1\n 30672: a1 = a1 | a5\n 30675: a4 = u8 [a0 + 0xd]\n 30678: a5 = u8 [a0 + 0xc]\n 30681: s1 = u8 [a0 + 0xe]\n 30684: a0 = u8 [a0 + 0xf]\n 30687: a4 = a4 << 0x8\n 30690: a4 = a4 | a5\n 30693: s1 = s1 << 0x10\n 30696: a0 = a0 << 0x18\n 30699: a0 = a0 | s1\n 30702: a0 = a0 | a4\n 30705: a0 = a0 << 0x20\n 30708: a0 = a0 | a1\n 30711: a1 = reverse a0\n 30713: a0 = reverse a3\n 30715: a2 = reverse a2\n 30717: a3 = reverse t0\n 30719: a2 = a2 | a3\n 30722: a3 = a0 | a1\n 30725: a3 = a3 | a2\n 30728: a3 = a3 >> 0x20\n 30731: a1 = a1 | a2\n 30734: a1 = a1 << 0x20\n 30737: a1 = a1 | a3\n 30740: jump @454 if a1 == 0\n      : @453 (gas: 1)\n 30743: trap\n      : @454 (gas: 4)\n 30744: i32 s1 = a0 + 0\n 30746: a1 = 0x20\n 30749: a0 = s1\n 30751: ra = 388, jump @0\n      : @455 [@dyn 194] (gas: 71)\n 30757: a1 = u64 [sp + 0xb0]\n 30761: a1 = reverse a1\n 30763: a2 = u64 [sp + 0xb8]\n 30767: a2 = reverse a2\n 30769: a3 = u64 [sp + 0xc0]\n 30773: a3 = reverse a3\n 30775: a4 = u64 [sp + 0xc8]\n 30779: a4 = reverse a4\n 30781: a5 = a4 >> 0x38\n 30784: u8 [a0 + 0x1f] = a5\n 30787: a5 = a4 >> 0x30\n 30790: u8 [a0 + 0x1e] = a5\n 30793: a5 = a4 >> 0x28\n 30796: u8 [a0 + 0x1d] = a5\n 30799: a5 = a4 >> 0x20\n 30802: u8 [a0 + 0x1c] = a5\n 30805: a5 = a4 >> 0x18\n 30808: u8 [a0 + 0x1b] = a5\n 30811: a5 = a4 >> 0x10\n 30814: u8 [a0 + 0x1a] = a5\n 30817: a5 = a4 >> 0x8\n 30820: u8 [a0 + 0x19] = a5\n 30823: u8 [a0 + 0x18] = a4\n 30826: u8 [a0 + 0x10] = a3\n 30829: a4 = a3 >> 0x38\n 30832: u8 [a0 + 0x17] = a4\n 30835: a4 = a3 >> 0x30\n 30838: u8 [a0 + 0x16] = a4\n 30841: a4 = a3 >> 0x28\n 30844: u8 [a0 + 0x15] = a4\n 30847: a4 = a3 >> 0x20\n 30850: u8 [a0 + 0x14] = a4\n 30853: a4 = a3 >> 0x18\n 30856: u8 [a0 + 0x13] = a4\n 30859: a4 = a3 >> 0x10\n 30862: u8 [a0 + 0x12] = a4\n 30865: a3 = a3 >> 0x8\n 30868: u8 [a0 + 0x11] = a3\n 30871: u8 [a0 + 0x8] = a2\n 30874: a3 = a2 >> 0x38\n 30877: u8 [a0 + 0xf] = a3\n 30880: a3 = a2 >> 0x30\n 30883: u8 [a0 + 0xe] = a3\n 30886: a3 = a2 >> 0x28\n 30889: u8 [a0 + 0xd] = a3\n 30892: a3 = a2 >> 0x20\n 30895: u8 [a0 + 0xc] = a3\n 30898: a3 = a2 >> 0x18\n 30901: u8 [a0 + 0xb] = a3\n 30904: a3 = a2 >> 0x10\n 30907: u8 [a0 + 0xa] = a3\n 30910: a2 = a2 >> 0x8\n 30913: u8 [a0 + 0x9] = a2\n 30916: u8 [a0] = a1\n 30918: a2 = a1 >> 0x38\n 30921: u8 [a0 + 0x7] = a2\n 30924: a2 = a1 >> 0x30\n 30927: u8 [a0 + 0x6] = a2\n 30930: a2 = a1 >> 0x28\n 30933: u8 [a0 + 0x5] = a2\n 30936: a2 = a1 >> 0x20\n 30939: u8 [a0 + 0x4] = a2\n 30942: a2 = a1 >> 0x18\n 30945: u8 [a0 + 0x3] = a2\n 30948: a2 = a1 >> 0x10\n 30951: u8 [a0 + 0x2] = a2\n 30954: a1 = a1 >> 0x8\n 30957: u8 [a0 + 0x1] = a1\n 30960: a1 = 0x20\n 30963: a0 = s1\n 30965: ra = 390, jump @0\n      : @456 [@dyn 195] (gas: 6)\n 30971: i32 a1 = a0 + 0\n 30973: a2 = 0x20\n 30976: a0 = 0\n 30978: ra = 0x188\n 30982: ecalli 13 // 'seal_return'\n 30984: fallthrough\n      : @457 [@dyn 196] (gas: 8)\n 30985: sp = sp + 0xffffffffffffff40\n 30989: u64 [sp + 0xb8] = ra\n 30993: u64 [sp + 0xb0] = s0\n 30997: u64 [sp + 0xa8] = s1\n 31001: s0 = sp + 0xc0\n 31005: sp = sp & 0xffffffffffffffe0\n 31008: a0 = i32 [0x20114]\n 31013: jump @462 if a0 <=u 35\n      : @458 (gas: 18)\n 31018: i32 a0 = sp + 0x80\n 31022: a1 = 0x4\n 31025: ecalli 3 // 'call_data_load'\n 31027: a0 = u64 [sp + 0x80]\n 31031: a1 = u64 [sp + 0x88]\n 31035: a2 = u64 [sp + 0x90]\n 31039: a3 = u64 [sp + 0x98]\n 31043: u64 [sp + 0x38] = a3\n 31046: u64 [sp + 0x30] = a2\n 31049: u64 [sp + 0x28] = a1\n 31052: u64 [sp + 0x20] = a0\n 31055: u64 [sp + 88] = 0\n 31058: u64 [sp + 80] = 0\n 31061: u64 [sp + 72] = 0\n 31064: a0 = sp + 0x60\n 31067: a2 = sp + 0x20\n 31070: u64 [sp + 64] = 0\n 31073: ra = 394, jump @1192\n      : @459 [@dyn 197] (gas: 11)\n 31080: a0 = u64 [sp + 0x78]\n 31083: u64 [sp] = a0\n 31085: a0 = u64 [sp + 0x70]\n 31088: u64 [sp + 0x8] = a0\n 31091: a0 = u64 [sp + 0x68]\n 31094: u64 [sp + 0x10] = a0\n 31097: a0 = u64 [sp + 0x60]\n 31100: u64 [sp + 0x18] = a0\n 31103: a0 = 0x40\n 31106: a1 = 0x20\n 31109: ra = 396, jump @0\n      : @460 [@dyn 198] (gas: 100)\n 31115: a1 = u8 [a0 + 0x11]\n 31118: a2 = u8 [a0 + 0x10]\n 31121: a3 = u8 [a0 + 0x12]\n 31124: a4 = u8 [a0 + 0x13]\n 31127: a1 = a1 << 0x8\n 31130: a1 = a1 | a2\n 31133: a3 = a3 << 0x10\n 31136: a4 = a4 << 0x18\n 31139: a3 = a3 | a4\n 31142: a1 = a1 | a3\n 31145: a2 = u8 [a0 + 0x15]\n 31148: a3 = u8 [a0 + 0x14]\n 31151: a4 = u8 [a0 + 0x16]\n 31154: a5 = u8 [a0 + 0x17]\n 31157: a2 = a2 << 0x8\n 31160: a2 = a2 | a3\n 31163: a4 = a4 << 0x10\n 31166: a5 = a5 << 0x18\n 31169: a4 = a4 | a5\n 31172: a2 = a2 | a4\n 31175: a2 = a2 << 0x20\n 31178: t0 = a2 | a1\n 31181: a2 = u8 [a0 + 0x1]\n 31184: a3 = u8 [a0]\n 31186: a4 = u8 [a0 + 0x2]\n 31189: a5 = u8 [a0 + 0x3]\n 31192: a2 = a2 << 0x8\n 31195: a2 = a2 | a3\n 31198: a4 = a4 << 0x10\n 31201: a5 = a5 << 0x18\n 31204: a4 = a4 | a5\n 31207: a2 = a2 | a4\n 31210: a3 = u8 [a0 + 0x5]\n 31213: a4 = u8 [a0 + 0x4]\n 31216: a5 = u8 [a0 + 0x6]\n 31219: s1 = u8 [a0 + 0x7]\n 31222: a3 = a3 << 0x8\n 31225: a3 = a3 | a4\n 31228: a5 = a5 << 0x10\n 31231: s1 = s1 << 0x18\n 31234: a5 = a5 | s1\n 31237: a3 = a3 | a5\n 31240: a3 = a3 << 0x20\n 31243: a2 = a2 | a3\n 31246: a3 = u8 [a0 + 0x19]\n 31249: a4 = u8 [a0 + 0x18]\n 31252: a5 = u8 [a0 + 0x1a]\n 31255: s1 = u8 [a0 + 0x1b]\n 31258: a3 = a3 << 0x8\n 31261: a3 = a3 | a4\n 31264: a5 = a5 << 0x10\n 31267: s1 = s1 << 0x18\n 31270: a5 = a5 | s1\n 31273: a3 = a3 | a5\n 31276: a4 = u8 [a0 + 0x1d]\n 31279: a5 = u8 [a0 + 0x1c]\n 31282: s1 = u8 [a0 + 0x1e]\n 31285: a1 = u8 [a0 + 0x1f]\n 31288: a4 = a4 << 0x8\n 31291: a4 = a4 | a5\n 31294: s1 = s1 << 0x10\n 31297: a1 = a1 << 0x18\n 31300: a1 = a1 | s1\n 31303: a1 = a1 | a4\n 31306: a1 = a1 << 0x20\n 31309: a3 = a3 | a1\n 31312: a1 = u8 [a0 + 0x9]\n 31315: a4 = u8 [a0 + 0x8]\n 31318: a5 = u8 [a0 + 0xa]\n 31321: s1 = u8 [a0 + 0xb]\n 31324: a1 = a1 << 0x8\n 31327: a1 = a1 | a4\n 31330: a5 = a5 << 0x10\n 31333: s1 = s1 << 0x18\n 31336: a5 = a5 | s1\n 31339: a1 = a1 | a5\n 31342: a4 = u8 [a0 + 0xd]\n 31345: a5 = u8 [a0 + 0xc]\n 31348: s1 = u8 [a0 + 0xe]\n 31351: a0 = u8 [a0 + 0xf]\n 31354: a4 = a4 << 0x8\n 31357: a4 = a4 | a5\n 31360: s1 = s1 << 0x10\n 31363: a0 = a0 << 0x18\n 31366: a0 = a0 | s1\n 31369: a0 = a0 | a4\n 31372: a0 = a0 << 0x20\n 31375: a0 = a0 | a1\n 31378: a1 = reverse a0\n 31380: a0 = reverse a3\n 31382: a2 = reverse a2\n 31384: a3 = reverse t0\n 31386: a2 = a2 | a3\n 31389: a3 = a0 | a1\n 31392: a3 = a3 | a2\n 31395: a3 = a3 >> 0x20\n 31398: a1 = a1 | a2\n 31401: a1 = a1 << 0x20\n 31404: a1 = a1 | a3\n 31407: jump @464 if a1 == 0\n      : @461 (gas: 1)\n 31410: trap\n      : @462 (gas: 3)\n 31411: a0 = 0\n 31413: a1 = 0\n 31415: ra = 398, jump @0\n      : @463 [@dyn 199] (gas: 5)\n 31421: i32 a1 = a0 + 0\n 31423: a0 = 0x1\n 31426: a2 = 0\n 31428: ecalli 13 // 'seal_return'\n 31430: fallthrough\n      : @464 (gas: 4)\n 31431: i32 s1 = a0 + 0\n 31433: a1 = 0x20\n 31436: a0 = s1\n 31438: ra = 400, jump @0\n      : @465 [@dyn 200] (gas: 71)\n 31444: a1 = u64 [sp]\n 31446: a1 = reverse a1\n 31448: a2 = u64 [sp + 0x8]\n 31451: a2 = reverse a2\n 31453: a3 = u64 [sp + 0x10]\n 31456: a3 = reverse a3\n 31458: a4 = u64 [sp + 0x18]\n 31461: a4 = reverse a4\n 31463: a5 = a4 >> 0x38\n 31466: u8 [a0 + 0x1f] = a5\n 31469: a5 = a4 >> 0x30\n 31472: u8 [a0 + 0x1e] = a5\n 31475: a5 = a4 >> 0x28\n 31478: u8 [a0 + 0x1d] = a5\n 31481: a5 = a4 >> 0x20\n 31484: u8 [a0 + 0x1c] = a5\n 31487: a5 = a4 >> 0x18\n 31490: u8 [a0 + 0x1b] = a5\n 31493: a5 = a4 >> 0x10\n 31496: u8 [a0 + 0x1a] = a5\n 31499: a5 = a4 >> 0x8\n 31502: u8 [a0 + 0x19] = a5\n 31505: u8 [a0 + 0x18] = a4\n 31508: u8 [a0 + 0x10] = a3\n 31511: a4 = a3 >> 0x38\n 31514: u8 [a0 + 0x17] = a4\n 31517: a4 = a3 >> 0x30\n 31520: u8 [a0 + 0x16] = a4\n 31523: a4 = a3 >> 0x28\n 31526: u8 [a0 + 0x15] = a4\n 31529: a4 = a3 >> 0x20\n 31532: u8 [a0 + 0x14] = a4\n 31535: a4 = a3 >> 0x18\n 31538: u8 [a0 + 0x13] = a4\n 31541: a4 = a3 >> 0x10\n 31544: u8 [a0 + 0x12] = a4\n 31547: a3 = a3 >> 0x8\n 31550: u8 [a0 + 0x11] = a3\n 31553: u8 [a0 + 0x8] = a2\n 31556: a3 = a2 >> 0x38\n 31559: u8 [a0 + 0xf] = a3\n 31562: a3 = a2 >> 0x30\n 31565: u8 [a0 + 0xe] = a3\n 31568: a3 = a2 >> 0x28\n 31571: u8 [a0 + 0xd] = a3\n 31574: a3 = a2 >> 0x20\n 31577: u8 [a0 + 0xc] = a3\n 31580: a3 = a2 >> 0x18\n 31583: u8 [a0 + 0xb] = a3\n 31586: a3 = a2 >> 0x10\n 31589: u8 [a0 + 0xa] = a3\n 31592: a2 = a2 >> 0x8\n 31595: u8 [a0 + 0x9] = a2\n 31598: u8 [a0] = a1\n 31600: a2 = a1 >> 0x38\n 31603: u8 [a0 + 0x7] = a2\n 31606: a2 = a1 >> 0x30\n 31609: u8 [a0 + 0x6] = a2\n 31612: a2 = a1 >> 0x28\n 31615: u8 [a0 + 0x5] = a2\n 31618: a2 = a1 >> 0x20\n 31621: u8 [a0 + 0x4] = a2\n 31624: a2 = a1 >> 0x18\n 31627: u8 [a0 + 0x3] = a2\n 31630: a2 = a1 >> 0x10\n 31633: u8 [a0 + 0x2] = a2\n 31636: a1 = a1 >> 0x8\n 31639: u8 [a0 + 0x1] = a1\n 31642: a1 = 0x20\n 31645: a0 = s1\n 31647: ra = 402, jump @0\n      : @466 [@dyn 201] (gas: 6)\n 31653: i32 a1 = a0 + 0\n 31655: a2 = 0x20\n 31658: a0 = 0\n 31660: ra = 0x194\n 31664: ecalli 13 // 'seal_return'\n 31666: fallthrough\n      : @467 [@dyn 202] (gas: 19)\n 31667: t0 = u64 [a0 + 0x18]\n 31670: t1 = u64 [a1 + 0x18]\n 31673: a4 = u64 [a0 + 0x10]\n 31676: a5 = u64 [a0 + 0x8]\n 31679: a2 = u64 [a1 + 0x8]\n 31682: t2 = u64 [a0]\n 31684: a3 = u64 [a1]\n 31686: a1 = u64 [a1 + 0x10]\n 31689: a0 = a2 ^ a5\n 31692: a2 = a2 <u a5\n 31695: a3 = a3 <u t2\n 31698: a3 = a2 if a0 != 0\n 31701: a0 = a1 - a4\n 31704: a0 = a0 <u a3\n 31707: a1 = a1 <u a4\n 31710: a2 = t1 - t0\n 31713: a2 = a2 - a1\n 31716: a2 = a2 - a0\n 31719: jump @469 if a2 <s 0\n      : @468 (gas: 1)\n 31722: ret\n      : @469 (gas: 5)\n 31724: sp = sp + 0xfffffffffffffff8\n 31727: u64 [sp] = ra\n 31729: a0 = 0\n 31731: a1 = 0\n 31733: ra = 406, jump @0\n      : @470 [@dyn 203] (gas: 6)\n 31739: i32 a1 = a0 + 0\n 31741: a0 = 0x1\n 31744: a2 = 0\n 31746: ra = 0x198\n 31750: ecalli 13 // 'seal_return'\n 31752: fallthrough\n      : @471 [@dyn 204] (gas: 12)\n 31753: a2 = u64 [a1 + 0x10]\n 31756: a3 = u64 [a1 + 0x18]\n 31759: a4 = u64 [a1 + 0x8]\n 31762: a1 = u64 [a1]\n 31764: a3 = a3 | a4\n 31767: a4 = a1 | a2\n 31770: a4 = a4 | a3\n 31773: a4 = a4 >> 0x20\n 31776: a2 = a2 | a3\n 31779: a2 = a2 << 0x20\n 31782: a2 = a2 | a4\n 31785: jump @474 if a2 != 0\n      : @472 (gas: 7)\n 31789: sp = sp + 0xfffffffffffffff0\n 31792: u64 [sp + 0x8] = ra\n 31795: u64 [sp] = s0\n 31797: s0 = a0\n 31799: i32 a0 = a1 + 0\n 31801: a1 = 0x20\n 31804: ra = 410, jump @0\n      : @473 [@dyn 205] (gas: 100)\n 31810: a1 = u8 [a0 + 0x1]\n 31813: a2 = u8 [a0]\n 31815: a3 = u8 [a0 + 0x2]\n 31818: a4 = u8 [a0 + 0x3]\n 31821: a1 = a1 << 0x8\n 31824: a1 = a1 | a2\n 31827: a3 = a3 << 0x10\n 31830: a4 = a4 << 0x18\n 31833: a3 = a3 | a4\n 31836: a1 = a1 | a3\n 31839: a2 = u8 [a0 + 0x5]\n 31842: a3 = u8 [a0 + 0x4]\n 31845: a4 = u8 [a0 + 0x6]\n 31848: a5 = u8 [a0 + 0x7]\n 31851: a2 = a2 << 0x8\n 31854: a2 = a2 | a3\n 31857: a4 = a4 << 0x10\n 31860: a5 = a5 << 0x18\n 31863: a4 = a4 | a5\n 31866: a2 = a2 | a4\n 31869: a2 = a2 << 0x20\n 31872: t0 = a2 | a1\n 31875: a2 = u8 [a0 + 0x9]\n 31878: a3 = u8 [a0 + 0x8]\n 31881: a4 = u8 [a0 + 0xa]\n 31884: a5 = u8 [a0 + 0xb]\n 31887: a2 = a2 << 0x8\n 31890: a2 = a2 | a3\n 31893: a4 = a4 << 0x10\n 31896: a5 = a5 << 0x18\n 31899: a4 = a4 | a5\n 31902: a2 = a2 | a4\n 31905: a3 = u8 [a0 + 0xd]\n 31908: a4 = u8 [a0 + 0xc]\n 31911: a5 = u8 [a0 + 0xe]\n 31914: a1 = u8 [a0 + 0xf]\n 31917: a3 = a3 << 0x8\n 31920: a3 = a3 | a4\n 31923: a5 = a5 << 0x10\n 31926: a1 = a1 << 0x18\n 31929: a1 = a1 | a5\n 31932: a1 = a1 | a3\n 31935: a1 = a1 << 0x20\n 31938: t1 = a1 | a2\n 31941: a1 = u8 [a0 + 0x11]\n 31944: a3 = u8 [a0 + 0x10]\n 31947: a4 = u8 [a0 + 0x12]\n 31950: a5 = u8 [a0 + 0x13]\n 31953: a1 = a1 << 0x8\n 31956: a1 = a1 | a3\n 31959: a4 = a4 << 0x10\n 31962: a5 = a5 << 0x18\n 31965: a4 = a4 | a5\n 31968: a1 = a1 | a4\n 31971: a3 = u8 [a0 + 0x15]\n 31974: a4 = u8 [a0 + 0x14]\n 31977: a5 = u8 [a0 + 0x16]\n 31980: a2 = u8 [a0 + 0x17]\n 31983: a3 = a3 << 0x8\n 31986: a3 = a3 | a4\n 31989: a5 = a5 << 0x10\n 31992: a2 = a2 << 0x18\n 31995: a2 = a2 | a5\n 31998: a2 = a2 | a3\n 32001: a2 = a2 << 0x20\n 32004: a3 = a2 | a1\n 32007: a1 = u8 [a0 + 0x19]\n 32010: a2 = u8 [a0 + 0x18]\n 32013: a4 = u8 [a0 + 0x1a]\n 32016: a5 = u8 [a0 + 0x1b]\n 32019: a1 = a1 << 0x8\n 32022: a1 = a1 | a2\n 32025: a4 = a4 << 0x10\n 32028: a5 = a5 << 0x18\n 32031: a4 = a4 | a5\n 32034: a1 = a1 | a4\n 32037: a2 = u8 [a0 + 0x1d]\n 32040: a4 = u8 [a0 + 0x1c]\n 32043: a5 = u8 [a0 + 0x1e]\n 32046: a0 = u8 [a0 + 0x1f]\n 32049: a2 = a2 << 0x8\n 32052: a2 = a2 | a4\n 32055: a5 = a5 << 0x10\n 32058: a0 = a0 << 0x18\n 32061: a0 = a0 | a5\n 32064: a0 = a0 | a2\n 32067: a0 = a0 << 0x20\n 32070: a0 = a0 | a1\n 32073: a0 = reverse a0\n 32075: a1 = reverse a3\n 32077: a2 = reverse t1\n 32079: a3 = reverse t0\n 32081: u64 [s0 + 0x18] = a3\n 32084: u64 [s0 + 0x10] = a2\n 32087: u64 [s0 + 0x8] = a1\n 32090: u64 [s0] = a0\n 32092: ra = u64 [sp + 0x8]\n 32095: s0 = u64 [sp]\n 32097: sp = sp + 0x10\n 32100: ret\n      : @474 (gas: 1)\n 32102: trap\n      : @475 (gas: 20)\n 32103: sp = sp + 0xfffffffffffffe58\n 32107: u64 [sp + 0x1a0] = ra\n 32111: u64 [sp + 0x198] = s0\n 32115: u64 [sp + 0x190] = s1\n 32119: a3 = u64 [a1 + 0x18]\n 32122: a4 = u64 [a1 + 0x10]\n 32125: a5 = u64 [a1 + 0x8]\n 32128: s0 = u64 [a1]\n 32130: u64 [sp + 0x180] = a3\n 32134: u64 [sp + 0x150] = a5\n 32138: a1 = a5 | a3\n 32141: a3 = s0 | a4\n 32144: a3 = a3 | a1\n 32147: a3 = a3 >> 0x20\n 32150: u64 [sp + 0x178] = a4\n 32154: a1 = a1 | a4\n 32157: a1 = a1 << 0x20\n 32160: a1 = a1 | a3\n 32163: u64 [sp] = a0\n 32165: jump @491 if a1 != 0\n      : @476 (gas: 12)\n 32169: a0 = u64 [a2 + 0x18]\n 32172: u64 [sp + 0x188] = a0\n 32176: a0 = u64 [a2 + 0x10]\n 32179: u64 [sp + 0x168] = a0\n 32183: a0 = u64 [a2 + 0x8]\n 32186: u64 [sp + 0x170] = a0\n 32190: s1 = u64 [a2]\n 32192: u64 [sp + 0x138] = s0\n 32196: i32 a0 = s0 + 0\n 32198: a1 = 0x20\n 32201: s0 = 0x20\n 32204: ra = 412, jump @0\n      : @477 [@dyn 206] (gas: 43)\n 32210: u8 [a0 + 0x1f] = s0\n 32213: a3 = u64 [sp + 0x168]\n 32217: a1 = s1 | a3\n 32220: a2 = u64 [sp + 0x188]\n 32224: a5 = u64 [sp + 0x170]\n 32228: a2 = a2 | a5\n 32231: a1 = a1 | a2\n 32234: a1 = a1 >> 0x20\n 32237: a2 = a2 | a3\n 32240: a2 = a2 << 0x20\n 32243: a1 = a1 | a2\n 32246: u8 [a0 + 30] = 0\n 32249: u8 [a0 + 29] = 0\n 32252: u8 [a0 + 28] = 0\n 32255: u8 [a0 + 27] = 0\n 32258: u8 [a0 + 26] = 0\n 32261: u8 [a0 + 25] = 0\n 32264: u8 [a0 + 24] = 0\n 32267: u8 [a0 + 23] = 0\n 32270: u8 [a0 + 22] = 0\n 32273: u8 [a0 + 21] = 0\n 32276: u8 [a0 + 20] = 0\n 32279: u8 [a0 + 19] = 0\n 32282: u8 [a0 + 18] = 0\n 32285: u8 [a0 + 17] = 0\n 32288: u8 [a0 + 16] = 0\n 32291: u8 [a0 + 15] = 0\n 32294: u8 [a0 + 14] = 0\n 32297: u8 [a0 + 13] = 0\n 32300: u8 [a0 + 12] = 0\n 32303: u8 [a0 + 11] = 0\n 32306: u8 [a0 + 10] = 0\n 32309: u8 [a0 + 9] = 0\n 32312: u8 [a0 + 8] = 0\n 32315: u8 [a0 + 7] = 0\n 32318: u8 [a0 + 6] = 0\n 32321: u8 [a0 + 5] = 0\n 32324: u8 [a0 + 4] = 0\n 32327: u8 [a0 + 3] = 0\n 32330: u8 [a0 + 2] = 0\n 32333: u8 [a0 + 1] = 0\n 32336: u8 [a0 + 0] = 0\n 32338: jump @491 if a1 != 0\n      : @478 (gas: 19)\n 32342: a4 = s1\n 32344: a0 = u64 [sp + 0x138]\n 32348: a1 = a0 + 0x20\n 32351: u64 [sp + 0x160] = a1\n 32355: a0 = a1 <u a0\n 32358: a1 = u64 [sp + 0x150]\n 32362: s1 = a1 + a0\n 32365: a1 = s1 <u a1\n 32368: a1 = a0 if a0 == 0\n 32371: a0 = u64 [sp + 0x178]\n 32375: s0 = a0 + a1\n 32378: a0 = s0 <u a0\n 32381: a1 = u64 [sp + 0x180]\n 32385: a0 = a0 + a1\n 32388: u64 [sp + 0x158] = a0\n 32392: u64 [sp + 0x118] = a4\n 32396: i32 a0 = a4 + 0\n 32398: a1 = 0x20\n 32401: ra = 414, jump @0\n      : @479 [@dyn 207] (gas: 12)\n 32407: t0 = u64 [sp + 0x160]\n 32411: a1 = t0 | s0\n 32414: u64 [sp + 0x148] = s1\n 32418: a2 = u64 [sp + 0x158]\n 32422: a2 = a2 | s1\n 32425: a1 = a1 | a2\n 32428: a1 = a1 >> 0x20\n 32431: u64 [sp + 0x140] = s0\n 32435: a2 = a2 | s0\n 32438: a2 = a2 << 0x20\n 32441: a1 = a1 | a2\n 32444: jump @491 if a1 != 0\n      : @480 (gas: 93)\n 32448: a1 = u8 [a0 + 0x19]\n 32451: a2 = u8 [a0 + 0x18]\n 32454: a3 = u8 [a0 + 0x1a]\n 32457: a4 = u8 [a0 + 0x1b]\n 32460: a1 = a1 << 0x8\n 32463: a1 = a1 | a2\n 32466: a3 = a3 << 0x10\n 32469: a4 = a4 << 0x18\n 32472: a3 = a3 | a4\n 32475: a1 = a1 | a3\n 32478: a2 = u8 [a0 + 0x1d]\n 32481: a3 = u8 [a0 + 0x1c]\n 32484: a4 = u8 [a0 + 0x1e]\n 32487: a5 = u8 [a0 + 0x1f]\n 32490: a2 = a2 << 0x8\n 32493: a2 = a2 | a3\n 32496: a4 = a4 << 0x10\n 32499: a5 = a5 << 0x18\n 32502: a4 = a4 | a5\n 32505: a2 = a2 | a4\n 32508: a2 = a2 << 0x20\n 32511: a1 = a1 | a2\n 32514: u64 [sp + 0x128] = a1\n 32518: a1 = u8 [a0 + 0x11]\n 32521: a2 = u8 [a0 + 0x10]\n 32524: a3 = u8 [a0 + 0x12]\n 32527: a4 = u8 [a0 + 0x13]\n 32530: a1 = a1 << 0x8\n 32533: a1 = a1 | a2\n 32536: a3 = a3 << 0x10\n 32539: a4 = a4 << 0x18\n 32542: a3 = a3 | a4\n 32545: a1 = a1 | a3\n 32548: a2 = u8 [a0 + 0x15]\n 32551: a3 = u8 [a0 + 0x14]\n 32554: a4 = u8 [a0 + 0x16]\n 32557: a5 = u8 [a0 + 0x17]\n 32560: a2 = a2 << 0x8\n 32563: a2 = a2 | a3\n 32566: a4 = a4 << 0x10\n 32569: a5 = a5 << 0x18\n 32572: a4 = a4 | a5\n 32575: a2 = a2 | a4\n 32578: a2 = a2 << 0x20\n 32581: a1 = a1 | a2\n 32584: u64 [sp + 0x130] = a1\n 32588: a1 = u8 [a0 + 0x9]\n 32591: a2 = u8 [a0 + 0x8]\n 32594: a3 = u8 [a0 + 0xa]\n 32597: a4 = u8 [a0 + 0xb]\n 32600: a1 = a1 << 0x8\n 32603: a1 = a1 | a2\n 32606: a3 = a3 << 0x10\n 32609: a4 = a4 << 0x18\n 32612: a3 = a3 | a4\n 32615: a1 = a1 | a3\n 32618: a2 = u8 [a0 + 0xd]\n 32621: a3 = u8 [a0 + 0xc]\n 32624: a4 = u8 [a0 + 0xe]\n 32627: a5 = u8 [a0 + 0xf]\n 32630: a2 = a2 << 0x8\n 32633: a2 = a2 | a3\n 32636: a4 = a4 << 0x10\n 32639: a5 = a5 << 0x18\n 32642: a4 = a4 | a5\n 32645: a2 = a2 | a4\n 32648: a2 = a2 << 0x20\n 32651: s1 = a2 | a1\n 32654: a1 = u8 [a0 + 0x1]\n 32657: a2 = u8 [a0]\n 32659: a3 = u8 [a0 + 0x2]\n 32662: a4 = u8 [a0 + 0x3]\n 32665: a1 = a1 << 0x8\n 32668: a1 = a1 | a2\n 32671: a3 = a3 << 0x10\n 32674: a4 = a4 << 0x18\n 32677: a3 = a3 | a4\n 32680: a1 = a1 | a3\n 32683: a2 = u8 [a0 + 0x5]\n 32686: a3 = u8 [a0 + 0x4]\n 32689: a4 = u8 [a0 + 0x6]\n 32692: a0 = u8 [a0 + 0x7]\n 32695: a2 = a2 << 0x8\n 32698: a2 = a2 | a3\n 32701: a4 = a4 << 0x10\n 32704: a0 = a0 << 0x18\n 32707: a0 = a0 | a4\n 32710: a0 = a0 | a2\n 32713: a0 = a0 << 0x20\n 32716: s0 = a0 | a1\n 32719: i32 a0 = t0 + 0\n 32721: a1 = 0x20\n 32724: ra = 416, jump @0\n      : @481 [@dyn 208] (gas: 82)\n 32730: a2 = u64 [sp + 0x130]\n 32734: u8 [a0 + 0x10] = a2\n 32737: a1 = s1 >> 0x38\n 32740: u8 [a0 + 0xf] = a1\n 32743: a1 = s1 >> 0x30\n 32746: u8 [a0 + 0xe] = a1\n 32749: a1 = s1 >> 0x28\n 32752: u8 [a0 + 0xd] = a1\n 32755: a1 = s1 >> 0x20\n 32758: u8 [a0 + 0xc] = a1\n 32761: a1 = s1 >> 0x18\n 32764: u8 [a0 + 0xb] = a1\n 32767: a1 = s1 >> 0x10\n 32770: u8 [a0 + 0xa] = a1\n 32773: a1 = s1 >> 0x8\n 32776: u8 [a0 + 0x9] = a1\n 32779: u8 [a0 + 0x8] = s1\n 32782: a1 = s0 >> 0x38\n 32785: u8 [a0 + 0x7] = a1\n 32788: a1 = s0 >> 0x30\n 32791: u8 [a0 + 0x6] = a1\n 32794: a1 = s0 >> 0x28\n 32797: u8 [a0 + 0x5] = a1\n 32800: a1 = s0 >> 0x20\n 32803: u8 [a0 + 0x4] = a1\n 32806: a1 = s0 >> 0x18\n 32809: u8 [a0 + 0x3] = a1\n 32812: a1 = s0 >> 0x10\n 32815: u8 [a0 + 0x2] = a1\n 32818: a1 = s0 >> 0x8\n 32821: u8 [a0 + 0x1] = a1\n 32824: u8 [a0] = s0\n 32826: a4 = u64 [sp + 0x128]\n 32830: u8 [a0 + 0x18] = a4\n 32833: a1 = a2 >> 0x38\n 32836: u8 [a0 + 0x17] = a1\n 32839: a1 = a2 >> 0x30\n 32842: u8 [a0 + 0x16] = a1\n 32845: a1 = a2 >> 0x28\n 32848: u8 [a0 + 0x15] = a1\n 32851: a1 = a2 >> 0x20\n 32854: u8 [a0 + 0x14] = a1\n 32857: a1 = a2 >> 0x18\n 32860: u8 [a0 + 0x13] = a1\n 32863: a1 = a2 >> 0x10\n 32866: u8 [a0 + 0x12] = a1\n 32869: a1 = a2 >> 0x8\n 32872: a5 = a2\n 32874: u8 [a0 + 0x11] = a1\n 32877: a1 = a4 >> 0x38\n 32880: u8 [a0 + 0x1f] = a1\n 32883: a1 = a4 >> 0x30\n 32886: u8 [a0 + 0x1e] = a1\n 32889: a1 = a4 >> 0x28\n 32892: u8 [a0 + 0x1d] = a1\n 32895: a1 = a4 >> 0x20\n 32898: u8 [a0 + 0x1c] = a1\n 32901: a1 = a4 >> 0x18\n 32904: u8 [a0 + 0x1b] = a1\n 32907: a1 = a4 >> 0x10\n 32910: u8 [a0 + 0x1a] = a1\n 32913: a1 = a4 >> 0x8\n 32916: u8 [a0 + 0x19] = a1\n 32919: a1 = u64 [sp + 0x138]\n 32923: t2 = a1 + 0x40\n 32926: a2 = t2 <u a1\n 32929: a3 = u64 [sp + 0x150]\n 32933: ra = a3 + a2\n 32936: a3 = ra <u a3\n 32939: a3 = a2 if a2 == 0\n 32942: a2 = s0 | a5\n 32945: t1 = a4\n 32947: a4 = a4 | s1\n 32950: a4 = a4 | a2\n 32953: a5 = u64 [sp + 0x178]\n 32957: a3 = a3 + a5\n 32960: u64 [sp + 0x120] = a3\n 32964: a3 = a3 <u a5\n 32967: t0 = u64 [sp + 0x180]\n 32971: a5 = t0 + a3\n 32974: u64 [sp + 0x150] = a5\n 32978: jump @489 if a4 == 0\n      : @482 (gas: 20)\n 32982: a0 = 0\n 32984: a1 = 0\n 32986: u64 [sp + 312] = 0\n 32990: a2 = 0\n 32992: a3 = reverse s0\n 32994: u64 [sp + 0x20] = a3\n 32997: a3 = reverse s1\n 32999: u64 [sp + 0x18] = a3\n 33002: a3 = u64 [sp + 0x130]\n 33006: a3 = reverse a3\n 33008: u64 [sp + 0x10] = a3\n 33011: a3 = reverse t1\n 33013: u64 [sp + 0x8] = a3\n 33016: a4 = 0xffffffe0\n 33026: u64 [sp + 0x28] = a4\n 33029: s0 = u64 [sp + 0x168]\n 33033: t0 = u64 [sp + 0x170]\n 33037: a3 = u64 [sp + 0x118]\n 33041: t1 = u64 [sp + 0x120]\n 33045: fallthrough\n      : @483 (gas: 16)\n 33046: u64 [sp + 0x120] = a2\n 33050: u64 [sp + 0x128] = a1\n 33054: u64 [sp + 0x130] = a0\n 33058: a4 = u64 [sp + 0x188]\n 33062: a4 = a4 | s0\n 33065: s1 = u64 [sp + 0x28]\n 33068: a5 = a3 <u s1\n 33071: u64 [sp + 0x170] = t0\n 33075: a5 = 0 if t0 != 0\n 33077: a5 = 0 if a4 != 0\n 33079: a0 = u64 [sp + 0x150]\n 33083: u64 [sp + 0x118] = a0\n 33087: u64 [sp + 0x110] = t1\n 33091: u64 [sp + 0x108] = ra\n 33095: u64 [sp + 0x180] = t2\n 33099: jump @491 if a5 == 0\n      : @484 (gas: 7)\n 33103: u64 [sp + 0x168] = s0\n 33107: a0 = a3 + 0x20\n 33110: u64 [sp + 0x178] = a0\n 33114: i32 a0 = a0 + 0\n 33116: a1 = 0x20\n 33119: s0 = a3\n 33121: ra = 418, jump @0\n      : @485 [@dyn 209] (gas: 9)\n 33128: a1 = u64 [sp + 0x140]\n 33132: a2 = u64 [sp + 0x158]\n 33136: a1 = a1 | a2\n 33139: a2 = u64 [sp + 0x160]\n 33143: a2 = a2 <u s1\n 33146: a3 = u64 [sp + 0x148]\n 33150: a2 = 0 if a3 != 0\n 33152: a2 = 0 if a1 != 0\n 33154: jump @491 if a2 == 0\n      : @486 (gas: 81)\n 33158: a1 = u64 [sp + 0x178]\n 33162: a2 = a1 <u s0\n 33165: a1 = u64 [sp + 0x170]\n 33169: a3 = a1 + a2\n 33172: u64 [sp + 0x160] = a3\n 33176: a1 = a3 <u a1\n 33179: a1 = a2 if a2 == 0\n 33182: a2 = u8 [a0]\n 33184: u64 [sp + 0x158] = a2\n 33188: a2 = u8 [a0 + 0x1]\n 33191: u64 [sp + 0x150] = a2\n 33195: a2 = u8 [a0 + 0x2]\n 33198: u64 [sp + 0x148] = a2\n 33202: a2 = u8 [a0 + 0x3]\n 33205: u64 [sp + 0x140] = a2\n 33209: a2 = u8 [a0 + 0x4]\n 33212: u64 [sp + 0x100] = a2\n 33216: a2 = u8 [a0 + 0x5]\n 33219: u64 [sp + 0xf8] = a2\n 33223: a2 = u8 [a0 + 0x6]\n 33226: u64 [sp + 0xf0] = a2\n 33230: a2 = u8 [a0 + 0x7]\n 33233: u64 [sp + 0xe8] = a2\n 33237: a2 = u8 [a0 + 0x8]\n 33240: u64 [sp + 0xe0] = a2\n 33244: a2 = u8 [a0 + 0x9]\n 33247: u64 [sp + 0xd8] = a2\n 33251: a2 = u8 [a0 + 0xa]\n 33254: u64 [sp + 0xd0] = a2\n 33258: a2 = u8 [a0 + 0xb]\n 33261: u64 [sp + 0xc8] = a2\n 33265: a2 = u8 [a0 + 0xc]\n 33268: u64 [sp + 0xc0] = a2\n 33272: a2 = u8 [a0 + 0xd]\n 33275: u64 [sp + 0xb8] = a2\n 33279: a2 = u8 [a0 + 0xe]\n 33282: u64 [sp + 0xb0] = a2\n 33286: a2 = u8 [a0 + 0xf]\n 33289: u64 [sp + 0xa8] = a2\n 33293: a2 = u8 [a0 + 0x10]\n 33296: u64 [sp + 0xa0] = a2\n 33300: a2 = u8 [a0 + 0x11]\n 33303: u64 [sp + 0x98] = a2\n 33307: a2 = u8 [a0 + 0x12]\n 33310: u64 [sp + 0x90] = a2\n 33314: a2 = u8 [a0 + 0x13]\n 33317: u64 [sp + 0x88] = a2\n 33321: a2 = u8 [a0 + 0x14]\n 33324: u64 [sp + 0x80] = a2\n 33328: a2 = u8 [a0 + 0x15]\n 33331: u64 [sp + 0x78] = a2\n 33334: a2 = u8 [a0 + 0x16]\n 33337: u64 [sp + 0x70] = a2\n 33340: a2 = u8 [a0 + 0x17]\n 33343: u64 [sp + 0x68] = a2\n 33346: a2 = u8 [a0 + 0x18]\n 33349: u64 [sp + 0x60] = a2\n 33352: a2 = u8 [a0 + 0x19]\n 33355: u64 [sp + 0x58] = a2\n 33358: a2 = u8 [a0 + 0x1a]\n 33361: u64 [sp + 0x50] = a2\n 33364: a2 = u8 [a0 + 0x1b]\n 33367: u64 [sp + 0x48] = a2\n 33370: a2 = u8 [a0 + 0x1c]\n 33373: u64 [sp + 0x40] = a2\n 33376: a2 = u8 [a0 + 0x1d]\n 33379: u64 [sp + 0x38] = a2\n 33382: a2 = u8 [a0 + 0x1e]\n 33385: u64 [sp + 0x30] = a2\n 33388: s1 = u8 [a0 + 0x1f]\n 33391: s0 = u64 [sp + 0x168]\n 33395: a1 = a1 + s0\n 33398: u64 [sp + 0x170] = a1\n 33402: a0 = a1 <u s0\n 33405: a1 = u64 [sp + 0x188]\n 33409: a1 = a1 + a0\n 33412: u64 [sp + 0x188] = a1\n 33416: s0 = u64 [sp + 0x180]\n 33420: i32 a0 = s0 + 0\n 33422: a1 = 0x20\n 33425: ra = 420, jump @0\n      : @487 [@dyn 210] (gas: 120)\n 33432: u8 [a0 + 0x1f] = s1\n 33435: a1 = u64 [sp + 0x30]\n 33438: u8 [a0 + 0x1e] = a1\n 33441: a1 = u64 [sp + 0x38]\n 33444: u8 [a0 + 0x1d] = a1\n 33447: a1 = u64 [sp + 0x40]\n 33450: u8 [a0 + 0x1c] = a1\n 33453: a1 = u64 [sp + 0x48]\n 33456: u8 [a0 + 0x1b] = a1\n 33459: a1 = u64 [sp + 0x50]\n 33462: u8 [a0 + 0x1a] = a1\n 33465: a1 = u64 [sp + 0x58]\n 33468: u8 [a0 + 0x19] = a1\n 33471: a1 = u64 [sp + 0x60]\n 33474: u8 [a0 + 0x18] = a1\n 33477: a1 = u64 [sp + 0x68]\n 33480: u8 [a0 + 0x17] = a1\n 33483: a1 = u64 [sp + 0x70]\n 33486: u8 [a0 + 0x16] = a1\n 33489: a1 = u64 [sp + 0x78]\n 33492: u8 [a0 + 0x15] = a1\n 33495: a1 = u64 [sp + 0x80]\n 33499: u8 [a0 + 0x14] = a1\n 33502: a1 = u64 [sp + 0x88]\n 33506: u8 [a0 + 0x13] = a1\n 33509: a1 = u64 [sp + 0x90]\n 33513: u8 [a0 + 0x12] = a1\n 33516: a1 = u64 [sp + 0x98]\n 33520: u8 [a0 + 0x11] = a1\n 33523: a1 = u64 [sp + 0xa0]\n 33527: u8 [a0 + 0x10] = a1\n 33530: a1 = u64 [sp + 0xa8]\n 33534: u8 [a0 + 0xf] = a1\n 33537: a1 = u64 [sp + 0xb0]\n 33541: u8 [a0 + 0xe] = a1\n 33544: a1 = u64 [sp + 0xb8]\n 33548: u8 [a0 + 0xd] = a1\n 33551: a1 = u64 [sp + 0xc0]\n 33555: u8 [a0 + 0xc] = a1\n 33558: a1 = u64 [sp + 0xc8]\n 33562: u8 [a0 + 0xb] = a1\n 33565: a1 = u64 [sp + 0xd0]\n 33569: u8 [a0 + 0xa] = a1\n 33572: a1 = u64 [sp + 0xd8]\n 33576: u8 [a0 + 0x9] = a1\n 33579: a1 = u64 [sp + 0xe0]\n 33583: u8 [a0 + 0x8] = a1\n 33586: a1 = u64 [sp + 0xe8]\n 33590: u8 [a0 + 0x7] = a1\n 33593: a1 = u64 [sp + 0xf0]\n 33597: u8 [a0 + 0x6] = a1\n 33600: a1 = u64 [sp + 0xf8]\n 33604: u8 [a0 + 0x5] = a1\n 33607: a1 = u64 [sp + 0x100]\n 33611: u8 [a0 + 0x4] = a1\n 33614: a1 = u64 [sp + 0x140]\n 33618: u8 [a0 + 0x3] = a1\n 33621: a1 = u64 [sp + 0x148]\n 33625: u8 [a0 + 0x2] = a1\n 33628: a1 = u64 [sp + 0x150]\n 33632: u8 [a0 + 0x1] = a1\n 33635: a1 = u64 [sp + 0x158]\n 33639: u8 [a0] = a1\n 33641: t1 = u64 [sp + 0x130]\n 33645: t1 = t1 + 0x1\n 33648: a0 = t1 <u 0x1\n 33651: t2 = u64 [sp + 0x128]\n 33655: t2 = t2 + a0\n 33658: a0 = t1 | t2\n 33661: a4 = a0 <u 0x1\n 33664: a0 = u64 [sp + 0x138]\n 33668: a4 = a4 + a0\n 33671: a0 = a4 <u a0\n 33674: ra = u64 [sp + 0x120]\n 33678: ra = ra + a0\n 33681: a0 = u64 [sp + 0x8]\n 33684: a0 = t1 <u a0\n 33687: a2 = u64 [sp + 0x10]\n 33690: a1 = t2 ^ a2\n 33693: a2 = t2 <u a2\n 33696: a2 = a0 if a1 == 0\n 33699: a0 = u64 [sp + 0x18]\n 33702: s1 = a4 <u a0\n 33705: a3 = u64 [sp + 0x20]\n 33708: a1 = ra ^ a3\n 33711: a5 = ra <u a3\n 33714: a5 = s1 if a1 == 0\n 33717: a0 = a0 ^ a4\n 33720: a1 = a1 | a0\n 33723: a0 = s0 + 0x20\n 33726: u64 [sp + 0x168] = a0\n 33730: a5 = a2 if a1 == 0\n 33733: a2 = a0 <u s0\n 33736: s1 = u64 [sp + 0x108]\n 33740: a0 = s1 + a2\n 33743: u64 [sp + 0x130] = a0\n 33747: a3 = a0 <u s1\n 33750: a3 = a2 if a2 == 0\n 33753: a1 = u64 [sp + 0x110]\n 33757: a2 = a1 + a3\n 33760: a3 = a2 <u a1\n 33763: a0 = u64 [sp + 0x118]\n 33767: a3 = a3 + a0\n 33770: u64 [sp + 0x150] = a3\n 33774: u64 [sp + 0x138] = a4\n 33778: a3 = u64 [sp + 0x178]\n 33782: t0 = u64 [sp + 0x160]\n 33786: s0 = u64 [sp + 0x170]\n 33790: a4 = u64 [sp + 0x180]\n 33794: u64 [sp + 0x160] = a4\n 33798: u64 [sp + 0x148] = s1\n 33802: u64 [sp + 0x140] = a1\n 33806: u64 [sp + 0x158] = a0\n 33810: a0 = t1\n 33812: t1 = a2\n 33814: a1 = t2\n 33816: t2 = u64 [sp + 0x168]\n 33820: a2 = ra\n 33822: ra = u64 [sp + 0x130]\n 33826: jump @483 if a5 != 0\n      : @488 (gas: 1)\n 33830: jump @490\n      : @489 (gas: 2)\n 33832: t1 = u64 [sp + 0x120]\n 33836: fallthrough\n      : @490 (gas: 11)\n 33837: a4 = u64 [sp]\n 33839: u64 [a4] = t2\n 33841: u64 [a4 + 0x8] = ra\n 33844: u64 [a4 + 0x10] = t1\n 33847: a0 = u64 [sp + 0x150]\n 33851: u64 [a4 + 0x18] = a0\n 33854: ra = u64 [sp + 0x1a0]\n 33858: s0 = u64 [sp + 0x198]\n 33862: s1 = u64 [sp + 0x190]\n 33866: sp = sp + 0x1a8\n 33870: ret\n      : @491 (gas: 1)\n 33872: trap\n      : @492 (gas: 8)\n 33873: a0 = u64 [sp + 0xf0]\n 33877: a1 = u64 [sp + 0xf8]\n 33881: a2 = u64 [sp + 0xe8]\n 33885: a3 = u64 [sp + 0xe0]\n 33889: a1 = a1 | a2\n 33892: a0 = a0 | a3\n 33895: a0 = a0 | a1\n 33898: jump @500 if a0 != 0\n      : @493 (gas: 2)\n 33902: a0 = i32 [0x20114]\n 33907: jump @500 if a0 <=u 3\n      : @494 (gas: 7)\n 33912: u64 [sp + 184] = 0\n 33916: u64 [sp + 176] = 0\n 33920: u64 [sp + 160] = 0x1\n 33925: a0 = sp + 0xc0\n 33929: a1 = sp + 0xa0\n 33933: u64 [sp + 168] = 0\n 33937: ra = 422, jump @1314\n      : @495 [@dyn 211] (gas: 11)\n 33944: a0 = u64 [sp + 0xc0]\n 33948: u64 [sp + 0x38] = a0\n 33951: a0 = u64 [sp + 0xc8]\n 33955: u64 [sp + 0x30] = a0\n 33958: a0 = u64 [sp + 0xd0]\n 33962: u64 [sp + 0x28] = a0\n 33965: a0 = u64 [sp + 0xd8]\n 33969: u64 [sp + 0x20] = a0\n 33972: a0 = 0x40\n 33975: a1 = 0x20\n 33978: ra = 424, jump @0\n      : @496 [@dyn 212] (gas: 111)\n 33985: a1 = u8 [a0 + 0x1]\n 33988: a2 = u8 [a0]\n 33990: a3 = u8 [a0 + 0x2]\n 33993: a4 = u8 [a0 + 0x3]\n 33996: a1 = a1 << 0x8\n 33999: a1 = a1 | a2\n 34002: a3 = a3 << 0x10\n 34005: a4 = a4 << 0x18\n 34008: a3 = a3 | a4\n 34011: a1 = a1 | a3\n 34014: a2 = u8 [a0 + 0x5]\n 34017: a3 = u8 [a0 + 0x4]\n 34020: a4 = u8 [a0 + 0x6]\n 34023: a5 = u8 [a0 + 0x7]\n 34026: a2 = a2 << 0x8\n 34029: a2 = a2 | a3\n 34032: a4 = a4 << 0x10\n 34035: a5 = a5 << 0x18\n 34038: a4 = a4 | a5\n 34041: a2 = a2 | a4\n 34044: a2 = a2 << 0x20\n 34047: t0 = a2 | a1\n 34050: a2 = u8 [a0 + 0x9]\n 34053: a3 = u8 [a0 + 0x8]\n 34056: a4 = u8 [a0 + 0xa]\n 34059: a5 = u8 [a0 + 0xb]\n 34062: a2 = a2 << 0x8\n 34065: a2 = a2 | a3\n 34068: a4 = a4 << 0x10\n 34071: a5 = a5 << 0x18\n 34074: a4 = a4 | a5\n 34077: a2 = a2 | a4\n 34080: a3 = u8 [a0 + 0xd]\n 34083: a4 = u8 [a0 + 0xc]\n 34086: a5 = u8 [a0 + 0xe]\n 34089: s1 = u8 [a0 + 0xf]\n 34092: a3 = a3 << 0x8\n 34095: a3 = a3 | a4\n 34098: a5 = a5 << 0x10\n 34101: s1 = s1 << 0x18\n 34104: a5 = a5 | s1\n 34107: a3 = a3 | a5\n 34110: a3 = a3 << 0x20\n 34113: a2 = a2 | a3\n 34116: a3 = u8 [a0 + 0x11]\n 34119: a4 = u8 [a0 + 0x10]\n 34122: a5 = u8 [a0 + 0x12]\n 34125: s1 = u8 [a0 + 0x13]\n 34128: a3 = a3 << 0x8\n 34131: a3 = a3 | a4\n 34134: a5 = a5 << 0x10\n 34137: s1 = s1 << 0x18\n 34140: a5 = a5 | s1\n 34143: a3 = a3 | a5\n 34146: a4 = u8 [a0 + 0x15]\n 34149: a5 = u8 [a0 + 0x14]\n 34152: s1 = u8 [a0 + 0x16]\n 34155: a1 = u8 [a0 + 0x17]\n 34158: a4 = a4 << 0x8\n 34161: a4 = a4 | a5\n 34164: s1 = s1 << 0x10\n 34167: a1 = a1 << 0x18\n 34170: a1 = a1 | s1\n 34173: a1 = a1 | a4\n 34176: a1 = a1 << 0x20\n 34179: a3 = a3 | a1\n 34182: a1 = u8 [a0 + 0x19]\n 34185: a4 = u8 [a0 + 0x18]\n 34188: a5 = u8 [a0 + 0x1a]\n 34191: s1 = u8 [a0 + 0x1b]\n 34194: a1 = a1 << 0x8\n 34197: a1 = a1 | a4\n 34200: a5 = a5 << 0x10\n 34203: s1 = s1 << 0x18\n 34206: a5 = a5 | s1\n 34209: a1 = a1 | a5\n 34212: a4 = u8 [a0 + 0x1d]\n 34215: a5 = u8 [a0 + 0x1c]\n 34218: s1 = u8 [a0 + 0x1e]\n 34221: a0 = u8 [a0 + 0x1f]\n 34224: a4 = a4 << 0x8\n 34227: a4 = a4 | a5\n 34230: s1 = s1 << 0x10\n 34233: a0 = a0 << 0x18\n 34236: a0 = a0 | s1\n 34239: a0 = a0 | a4\n 34242: a0 = a0 << 0x20\n 34245: a0 = a0 | a1\n 34248: a4 = reverse a0\n 34250: u64 [sp + 0x8] = a4\n 34253: a3 = reverse a3\n 34255: u64 [sp + 0x10] = a3\n 34258: a1 = reverse a2\n 34260: u64 [sp + 0x18] = a1\n 34263: s1 = reverse t0\n 34265: a0 = u64 [sp + 0x20]\n 34268: u64 [sp + 0x58] = a0\n 34271: a0 = u64 [sp + 0x28]\n 34274: u64 [sp + 0x50] = a0\n 34277: a0 = u64 [sp + 0x30]\n 34280: u64 [sp + 0x48] = a0\n 34283: a0 = u64 [sp + 0x38]\n 34286: u64 [sp + 0x40] = a0\n 34289: u64 [sp + 0x78] = s1\n 34292: u64 [sp + 0x70] = a1\n 34295: u64 [sp + 0x68] = a3\n 34298: a0 = sp + 0x80\n 34302: a1 = sp + 0x60\n 34305: a2 = sp + 0x40\n 34308: u64 [sp + 0x60] = a4\n 34311: ra = 426, jump @475\n      : @497 [@dyn 213] (gas: 12)\n 34317: a4 = u64 [sp + 0x10]\n 34320: a2 = u64 [sp + 0x8]\n 34323: u64 [sp + 0x38] = s1\n 34326: a0 = a4 | s1\n 34329: s1 = u64 [sp + 0x18]\n 34332: a1 = a2 | s1\n 34335: a1 = a1 | a0\n 34338: a1 = a1 >> 0x20\n 34341: a0 = a0 | s1\n 34344: a0 = a0 << 0x20\n 34347: a0 = a0 | a1\n 34350: jump @499 if a0 != 0\n      : @498 (gas: 29)\n 34353: a0 = u64 [sp + 0x88]\n 34357: a1 = u64 [sp + 0x98]\n 34361: u64 [sp + 0x30] = a1\n 34364: t1 = u64 [sp + 0x80]\n 34368: a1 = u64 [sp + 0x90]\n 34372: t2 = a0 ^ a4\n 34375: a5 = a0 <u a4\n 34378: ra = t1 <u a2\n 34381: a5 = ra if t2 == 0\n 34384: a3 = a1 - s1\n 34387: t2 = a3 - a5\n 34390: t0 = a3 <u a5\n 34393: a3 = a1 <u s1\n 34396: a1 = u64 [sp + 0x38]\n 34399: a5 = u64 [sp + 0x30]\n 34402: a5 = a5 - a1\n 34405: a5 = a5 - a3\n 34408: a5 = a5 - t0\n 34411: a0 = a0 - a4\n 34414: a0 = a0 - ra\n 34417: s1 = t1 - a2\n 34420: a0 = a0 | a5\n 34423: a1 = s1 | t2\n 34426: a1 = a1 | a0\n 34429: a0 = a0 | t2\n 34432: a1 = a1 >> 0x20\n 34435: a0 = a0 << 0x20\n 34438: a0 = a0 | a1\n 34441: jump @502 if a0 == 0\n      : @499 (gas: 1)\n 34444: trap\n      : @500 (gas: 3)\n 34445: a0 = 0\n 34447: a1 = 0\n 34449: ra = 428, jump @0\n      : @501 [@dyn 214] (gas: 5)\n 34456: i32 a1 = a0 + 0\n 34458: a0 = 0x1\n 34461: a2 = 0\n 34463: ecalli 13 // 'seal_return'\n 34465: fallthrough\n      : @502 (gas: 4)\n 34466: i32 a0 = a2 + 0\n 34468: i32 s1 = s1 + 0\n 34470: a1 = s1\n 34472: ra = 430, jump @0\n      : @503 [@dyn 215] (gas: 6)\n 34479: i32 a1 = a0 + 0\n 34481: a0 = 0\n 34483: a2 = s1\n 34485: ra = 0x1b0\n 34489: ecalli 13 // 'seal_return'\n 34491: fallthrough\n      : @504 [@dyn 216] (gas: 17)\n 34492: sp = sp + 0xffffffffffffff80\n 34495: u64 [sp + 0x78] = ra\n 34498: u64 [sp + 0x70] = s0\n 34501: u64 [sp + 0x68] = s1\n 34504: s0 = sp + 0x80\n 34508: sp = sp & 0xffffffffffffffe0\n 34511: a2 = u64 [a1]\n 34513: u64 [sp + 0x10] = a2\n 34516: a2 = u64 [a1 + 0x8]\n 34519: u64 [sp + 0x8] = a2\n 34522: a2 = u64 [a1 + 0x10]\n 34525: u64 [sp] = a2\n 34527: s1 = u64 [a1 + 0x18]\n 34530: u64 [sp + 0x18] = a0\n 34533: a1 = 0x20\n 34536: a0 = 0\n 34538: ra = 434, jump @0\n      : @505 [@dyn 217] (gas: 70)\n 34545: a1 = reverse s1\n 34547: a2 = u64 [sp]\n 34549: a2 = reverse a2\n 34551: a3 = u64 [sp + 0x8]\n 34554: a3 = reverse a3\n 34556: a4 = u64 [sp + 0x10]\n 34559: a4 = reverse a4\n 34561: a5 = a4 >> 0x38\n 34564: u8 [a0 + 0x1f] = a5\n 34567: a5 = a4 >> 0x30\n 34570: u8 [a0 + 0x1e] = a5\n 34573: a5 = a4 >> 0x28\n 34576: u8 [a0 + 0x1d] = a5\n 34579: a5 = a4 >> 0x20\n 34582: u8 [a0 + 0x1c] = a5\n 34585: a5 = a4 >> 0x18\n 34588: u8 [a0 + 0x1b] = a5\n 34591: a5 = a4 >> 0x10\n 34594: u8 [a0 + 0x1a] = a5\n 34597: a5 = a4 >> 0x8\n 34600: u8 [a0 + 0x19] = a5\n 34603: u8 [a0 + 0x18] = a4\n 34606: a4 = a3 >> 0x38\n 34609: u8 [a0 + 0x17] = a4\n 34612: a4 = a3 >> 0x30\n 34615: u8 [a0 + 0x16] = a4\n 34618: a4 = a3 >> 0x28\n 34621: u8 [a0 + 0x15] = a4\n 34624: a4 = a3 >> 0x20\n 34627: u8 [a0 + 0x14] = a4\n 34630: a4 = a3 >> 0x18\n 34633: u8 [a0 + 0x13] = a4\n 34636: a4 = a3 >> 0x10\n 34639: u8 [a0 + 0x12] = a4\n 34642: a4 = a3 >> 0x8\n 34645: u8 [a0 + 0x11] = a4\n 34648: u8 [a0 + 0x10] = a3\n 34651: a3 = a2 >> 0x38\n 34654: u8 [a0 + 0xf] = a3\n 34657: a3 = a2 >> 0x30\n 34660: u8 [a0 + 0xe] = a3\n 34663: a3 = a2 >> 0x28\n 34666: u8 [a0 + 0xd] = a3\n 34669: a3 = a2 >> 0x20\n 34672: u8 [a0 + 0xc] = a3\n 34675: a3 = a2 >> 0x18\n 34678: u8 [a0 + 0xb] = a3\n 34681: a3 = a2 >> 0x10\n 34684: u8 [a0 + 0xa] = a3\n 34687: a3 = a2 >> 0x8\n 34690: u8 [a0 + 0x9] = a3\n 34693: u8 [a0 + 0x8] = a2\n 34696: a2 = a1 >> 0x38\n 34699: u8 [a0 + 0x7] = a2\n 34702: a2 = a1 >> 0x30\n 34705: u8 [a0 + 0x6] = a2\n 34708: a2 = a1 >> 0x28\n 34711: u8 [a0 + 0x5] = a2\n 34714: a2 = a1 >> 0x20\n 34717: u8 [a0 + 0x4] = a2\n 34720: a2 = a1 >> 0x18\n 34723: u8 [a0 + 0x3] = a2\n 34726: a2 = a1 >> 0x10\n 34729: u8 [a0 + 0x2] = a2\n 34732: a2 = a1 >> 0x8\n 34735: u8 [a0 + 0x1] = a2\n 34738: u8 [a0] = a1\n 34740: a0 = 0x20\n 34743: a1 = 0x20\n 34746: ra = 436, jump @0\n      : @506 [@dyn 218] (gas: 35)\n 34753: u8 [a0 + 31] = 0x4\n 34757: u8 [a0 + 30] = 0\n 34760: u8 [a0 + 29] = 0\n 34763: u8 [a0 + 28] = 0\n 34766: u8 [a0 + 27] = 0\n 34769: u8 [a0 + 26] = 0\n 34772: u8 [a0 + 25] = 0\n 34775: u8 [a0 + 24] = 0\n 34778: u8 [a0 + 23] = 0\n 34781: u8 [a0 + 22] = 0\n 34784: u8 [a0 + 21] = 0\n 34787: u8 [a0 + 20] = 0\n 34790: u8 [a0 + 19] = 0\n 34793: u8 [a0 + 18] = 0\n 34796: u8 [a0 + 17] = 0\n 34799: u8 [a0 + 16] = 0\n 34802: u8 [a0 + 15] = 0\n 34805: u8 [a0 + 14] = 0\n 34808: u8 [a0 + 13] = 0\n 34811: u8 [a0 + 12] = 0\n 34814: u8 [a0 + 11] = 0\n 34817: u8 [a0 + 10] = 0\n 34820: u8 [a0 + 9] = 0\n 34823: u8 [a0 + 8] = 0\n 34826: u8 [a0 + 7] = 0\n 34829: u8 [a0 + 6] = 0\n 34832: u8 [a0 + 5] = 0\n 34835: u8 [a0 + 4] = 0\n 34838: u8 [a0 + 3] = 0\n 34841: u8 [a0 + 2] = 0\n 34844: u8 [a0 + 1] = 0\n 34847: u8 [a0 + 0] = 0\n 34849: a1 = 0x40\n 34852: a0 = 0\n 34854: ra = 438, jump @0\n      : @507 [@dyn 219] (gas: 42)\n 34861: i32 a0 = a0 + 0\n 34863: i32 a2 = sp + 0x40\n 34866: a1 = 0x40\n 34869: ecalli 8 // 'hash_keccak_256'\n 34871: a0 = u64 [sp + 0x58]\n 34874: a1 = u64 [sp + 0x50]\n 34877: a2 = u64 [sp + 0x48]\n 34880: a3 = u64 [sp + 0x40]\n 34883: a0 = reverse a0\n 34885: a1 = reverse a1\n 34887: a2 = reverse a2\n 34889: a3 = reverse a3\n 34891: u64 [sp + 0x38] = a3\n 34894: u64 [sp + 0x30] = a2\n 34897: u64 [sp + 0x28] = a1\n 34900: u64 [sp + 0x20] = a0\n 34903: u64 [sp + 88] = 0\n 34906: u64 [sp + 80] = 0\n 34909: u64 [sp + 72] = 0\n 34912: u64 [sp + 64] = 0\n 34915: u32 [sp + 96] = 0x20\n 34919: i32 a1 = sp + 0x20\n 34922: i32 a3 = sp + 0x40\n 34925: i32 a4 = sp + 0x60\n 34928: a2 = 0xffffffffffffffff\n 34931: a0 = 0\n 34933: ecalli 7 // 'get_storage'\n 34935: a0 = u64 [sp + 0x58]\n 34938: a1 = u64 [sp + 0x50]\n 34941: a2 = u64 [sp + 0x48]\n 34944: a3 = u64 [sp + 0x40]\n 34947: a4 = u64 [sp + 0x18]\n 34950: u64 [a4 + 0x18] = a0\n 34953: u64 [a4 + 0x10] = a1\n 34956: u64 [a4 + 0x8] = a2\n 34959: u64 [a4] = a3\n 34961: sp = s0 + 0xffffffffffffff80\n 34964: ra = u64 [sp + 0x78]\n 34967: s0 = u64 [sp + 0x70]\n 34970: s1 = u64 [sp + 0x68]\n 34973: sp = sp + 0x80\n 34977: ret\n      : @508 (gas: 8)\n 34979: a0 = u64 [sp + 0x30]\n 34982: a1 = u64 [sp + 0x38]\n 34985: a2 = u64 [sp + 0x28]\n 34988: a3 = u64 [sp + 0x20]\n 34991: a1 = a1 | a2\n 34994: a0 = a0 | a3\n 34997: a0 = a0 | a1\n 35000: jump @516 if a0 != 0\n      : @509 (gas: 2)\n 35004: a0 = i32 [0x20114]\n 35009: jump @516 if a0 <=u 35\n      : @510 (gas: 13)\n 35014: i32 a0 = sp + 0x60\n 35017: a1 = 0x4\n 35020: ecalli 3 // 'call_data_load'\n 35022: a0 = u64 [sp + 0x60]\n 35025: u64 [sp + 0x18] = a0\n 35028: a0 = u64 [sp + 0x68]\n 35031: u64 [sp + 0x10] = a0\n 35034: a0 = u64 [sp + 0x70]\n 35037: u64 [sp + 0x8] = a0\n 35040: s1 = u64 [sp + 0x78]\n 35043: a1 = 0x20\n 35046: a0 = 0\n 35048: ra = 440, jump @0\n      : @511 [@dyn 220] (gas: 70)\n 35055: a1 = reverse s1\n 35057: a2 = u64 [sp + 0x8]\n 35060: a2 = reverse a2\n 35062: a3 = u64 [sp + 0x10]\n 35065: a3 = reverse a3\n 35067: a4 = u64 [sp + 0x18]\n 35070: a4 = reverse a4\n 35072: a5 = a4 >> 0x38\n 35075: u8 [a0 + 0x1f] = a5\n 35078: a5 = a4 >> 0x30\n 35081: u8 [a0 + 0x1e] = a5\n 35084: a5 = a4 >> 0x28\n 35087: u8 [a0 + 0x1d] = a5\n 35090: a5 = a4 >> 0x20\n 35093: u8 [a0 + 0x1c] = a5\n 35096: a5 = a4 >> 0x18\n 35099: u8 [a0 + 0x1b] = a5\n 35102: a5 = a4 >> 0x10\n 35105: u8 [a0 + 0x1a] = a5\n 35108: a5 = a4 >> 0x8\n 35111: u8 [a0 + 0x19] = a5\n 35114: u8 [a0 + 0x18] = a4\n 35117: a4 = a3 >> 0x38\n 35120: u8 [a0 + 0x17] = a4\n 35123: a4 = a3 >> 0x30\n 35126: u8 [a0 + 0x16] = a4\n 35129: a4 = a3 >> 0x28\n 35132: u8 [a0 + 0x15] = a4\n 35135: a4 = a3 >> 0x20\n 35138: u8 [a0 + 0x14] = a4\n 35141: a4 = a3 >> 0x18\n 35144: u8 [a0 + 0x13] = a4\n 35147: a4 = a3 >> 0x10\n 35150: u8 [a0 + 0x12] = a4\n 35153: a4 = a3 >> 0x8\n 35156: u8 [a0 + 0x11] = a4\n 35159: u8 [a0 + 0x10] = a3\n 35162: a3 = a2 >> 0x38\n 35165: u8 [a0 + 0xf] = a3\n 35168: a3 = a2 >> 0x30\n 35171: u8 [a0 + 0xe] = a3\n 35174: a3 = a2 >> 0x28\n 35177: u8 [a0 + 0xd] = a3\n 35180: a3 = a2 >> 0x20\n 35183: u8 [a0 + 0xc] = a3\n 35186: a3 = a2 >> 0x18\n 35189: u8 [a0 + 0xb] = a3\n 35192: a3 = a2 >> 0x10\n 35195: u8 [a0 + 0xa] = a3\n 35198: a3 = a2 >> 0x8\n 35201: u8 [a0 + 0x9] = a3\n 35204: u8 [a0 + 0x8] = a2\n 35207: a2 = a1 >> 0x38\n 35210: u8 [a0 + 0x7] = a2\n 35213: a2 = a1 >> 0x30\n 35216: u8 [a0 + 0x6] = a2\n 35219: a2 = a1 >> 0x28\n 35222: u8 [a0 + 0x5] = a2\n 35225: a2 = a1 >> 0x20\n 35228: u8 [a0 + 0x4] = a2\n 35231: a2 = a1 >> 0x18\n 35234: u8 [a0 + 0x3] = a2\n 35237: a2 = a1 >> 0x10\n 35240: u8 [a0 + 0x2] = a2\n 35243: a2 = a1 >> 0x8\n 35246: u8 [a0 + 0x1] = a2\n 35249: u8 [a0] = a1\n 35251: a0 = 0x20\n 35254: a1 = 0x20\n 35257: ra = 442, jump @0\n      : @512 [@dyn 221] (gas: 35)\n 35264: u8 [a0 + 31] = 0x4\n 35268: u8 [a0 + 30] = 0\n 35271: u8 [a0 + 29] = 0\n 35274: u8 [a0 + 28] = 0\n 35277: u8 [a0 + 27] = 0\n 35280: u8 [a0 + 26] = 0\n 35283: u8 [a0 + 25] = 0\n 35286: u8 [a0 + 24] = 0\n 35289: u8 [a0 + 23] = 0\n 35292: u8 [a0 + 22] = 0\n 35295: u8 [a0 + 21] = 0\n 35298: u8 [a0 + 20] = 0\n 35301: u8 [a0 + 19] = 0\n 35304: u8 [a0 + 18] = 0\n 35307: u8 [a0 + 17] = 0\n 35310: u8 [a0 + 16] = 0\n 35313: u8 [a0 + 15] = 0\n 35316: u8 [a0 + 14] = 0\n 35319: u8 [a0 + 13] = 0\n 35322: u8 [a0 + 12] = 0\n 35325: u8 [a0 + 11] = 0\n 35328: u8 [a0 + 10] = 0\n 35331: u8 [a0 + 9] = 0\n 35334: u8 [a0 + 8] = 0\n 35337: u8 [a0 + 7] = 0\n 35340: u8 [a0 + 6] = 0\n 35343: u8 [a0 + 5] = 0\n 35346: u8 [a0 + 4] = 0\n 35349: u8 [a0 + 3] = 0\n 35352: u8 [a0 + 2] = 0\n 35355: u8 [a0 + 1] = 0\n 35358: u8 [a0 + 0] = 0\n 35360: a1 = 0x40\n 35363: a0 = 0\n 35365: ra = 444, jump @0\n      : @513 [@dyn 222] (gas: 38)\n 35372: i32 a0 = a0 + 0\n 35374: i32 a2 = sp + 0x60\n 35377: a1 = 0x40\n 35380: ecalli 8 // 'hash_keccak_256'\n 35382: a0 = u64 [sp + 0x78]\n 35385: a1 = u64 [sp + 0x70]\n 35388: a2 = u64 [sp + 0x68]\n 35391: a3 = u64 [sp + 0x60]\n 35394: a0 = reverse a0\n 35396: a1 = reverse a1\n 35398: a2 = reverse a2\n 35400: a3 = reverse a3\n 35402: u64 [sp + 0x58] = a3\n 35405: u64 [sp + 0x50] = a2\n 35408: u64 [sp + 0x48] = a1\n 35411: u64 [sp + 0x40] = a0\n 35414: u64 [sp + 120] = 0\n 35417: u64 [sp + 112] = 0\n 35420: u64 [sp + 104] = 0\n 35423: u64 [sp + 96] = 0\n 35426: u32 [sp + 128] = 0x20\n 35431: i32 a1 = sp + 0x40\n 35434: i32 a3 = sp + 0x60\n 35437: i32 a4 = sp + 0x80\n 35441: a2 = 0xffffffffffffffff\n 35444: a0 = 0\n 35446: ecalli 7 // 'get_storage'\n 35448: a0 = u64 [sp + 0x78]\n 35451: u64 [sp] = a0\n 35453: a0 = u64 [sp + 0x70]\n 35456: u64 [sp + 0x8] = a0\n 35459: a0 = u64 [sp + 0x68]\n 35462: u64 [sp + 0x10] = a0\n 35465: a0 = u64 [sp + 0x60]\n 35468: u64 [sp + 0x18] = a0\n 35471: a0 = 0x40\n 35474: a1 = 0x20\n 35477: ra = 446, jump @0\n      : @514 [@dyn 223] (gas: 100)\n 35484: a1 = u8 [a0 + 0x11]\n 35487: a2 = u8 [a0 + 0x10]\n 35490: a3 = u8 [a0 + 0x12]\n 35493: a4 = u8 [a0 + 0x13]\n 35496: a1 = a1 << 0x8\n 35499: a1 = a1 | a2\n 35502: a3 = a3 << 0x10\n 35505: a4 = a4 << 0x18\n 35508: a3 = a3 | a4\n 35511: a1 = a1 | a3\n 35514: a2 = u8 [a0 + 0x15]\n 35517: a3 = u8 [a0 + 0x14]\n 35520: a4 = u8 [a0 + 0x16]\n 35523: a5 = u8 [a0 + 0x17]\n 35526: a2 = a2 << 0x8\n 35529: a2 = a2 | a3\n 35532: a4 = a4 << 0x10\n 35535: a5 = a5 << 0x18\n 35538: a4 = a4 | a5\n 35541: a2 = a2 | a4\n 35544: a2 = a2 << 0x20\n 35547: t0 = a2 | a1\n 35550: a2 = u8 [a0 + 0x1]\n 35553: a3 = u8 [a0]\n 35555: a4 = u8 [a0 + 0x2]\n 35558: a5 = u8 [a0 + 0x3]\n 35561: a2 = a2 << 0x8\n 35564: a2 = a2 | a3\n 35567: a4 = a4 << 0x10\n 35570: a5 = a5 << 0x18\n 35573: a4 = a4 | a5\n 35576: a2 = a2 | a4\n 35579: a3 = u8 [a0 + 0x5]\n 35582: a4 = u8 [a0 + 0x4]\n 35585: a5 = u8 [a0 + 0x6]\n 35588: s1 = u8 [a0 + 0x7]\n 35591: a3 = a3 << 0x8\n 35594: a3 = a3 | a4\n 35597: a5 = a5 << 0x10\n 35600: s1 = s1 << 0x18\n 35603: a5 = a5 | s1\n 35606: a3 = a3 | a5\n 35609: a3 = a3 << 0x20\n 35612: a2 = a2 | a3\n 35615: a3 = u8 [a0 + 0x19]\n 35618: a4 = u8 [a0 + 0x18]\n 35621: a5 = u8 [a0 + 0x1a]\n 35624: s1 = u8 [a0 + 0x1b]\n 35627: a3 = a3 << 0x8\n 35630: a3 = a3 | a4\n 35633: a5 = a5 << 0x10\n 35636: s1 = s1 << 0x18\n 35639: a5 = a5 | s1\n 35642: a3 = a3 | a5\n 35645: a4 = u8 [a0 + 0x1d]\n 35648: a5 = u8 [a0 + 0x1c]\n 35651: s1 = u8 [a0 + 0x1e]\n 35654: a1 = u8 [a0 + 0x1f]\n 35657: a4 = a4 << 0x8\n 35660: a4 = a4 | a5\n 35663: s1 = s1 << 0x10\n 35666: a1 = a1 << 0x18\n 35669: a1 = a1 | s1\n 35672: a1 = a1 | a4\n 35675: a1 = a1 << 0x20\n 35678: a3 = a3 | a1\n 35681: a1 = u8 [a0 + 0x9]\n 35684: a4 = u8 [a0 + 0x8]\n 35687: a5 = u8 [a0 + 0xa]\n 35690: s1 = u8 [a0 + 0xb]\n 35693: a1 = a1 << 0x8\n 35696: a1 = a1 | a4\n 35699: a5 = a5 << 0x10\n 35702: s1 = s1 << 0x18\n 35705: a5 = a5 | s1\n 35708: a1 = a1 | a5\n 35711: a4 = u8 [a0 + 0xd]\n 35714: a5 = u8 [a0 + 0xc]\n 35717: s1 = u8 [a0 + 0xe]\n 35720: a0 = u8 [a0 + 0xf]\n 35723: a4 = a4 << 0x8\n 35726: a4 = a4 | a5\n 35729: s1 = s1 << 0x10\n 35732: a0 = a0 << 0x18\n 35735: a0 = a0 | s1\n 35738: a0 = a0 | a4\n 35741: a0 = a0 << 0x20\n 35744: a0 = a0 | a1\n 35747: a1 = reverse a0\n 35749: a0 = reverse a3\n 35751: a2 = reverse a2\n 35753: a3 = reverse t0\n 35755: a2 = a2 | a3\n 35758: a3 = a0 | a1\n 35761: a3 = a3 | a2\n 35764: a3 = a3 >> 0x20\n 35767: a1 = a1 | a2\n 35770: a1 = a1 << 0x20\n 35773: a1 = a1 | a3\n 35776: jump @518 if a1 == 0\n      : @515 (gas: 1)\n 35779: trap\n      : @516 (gas: 3)\n 35780: a0 = 0\n 35782: a1 = 0\n 35784: ra = 448, jump @0\n      : @517 [@dyn 224] (gas: 5)\n 35791: i32 a1 = a0 + 0\n 35793: a0 = 0x1\n 35796: a2 = 0\n 35798: ecalli 13 // 'seal_return'\n 35800: fallthrough\n      : @518 (gas: 4)\n 35801: i32 s1 = a0 + 0\n 35803: a1 = 0x20\n 35806: a0 = s1\n 35808: ra = 450, jump @0\n      : @519 [@dyn 225] (gas: 71)\n 35815: a1 = u64 [sp]\n 35817: a1 = reverse a1\n 35819: a2 = u64 [sp + 0x8]\n 35822: a2 = reverse a2\n 35824: a3 = u64 [sp + 0x10]\n 35827: a3 = reverse a3\n 35829: a4 = u64 [sp + 0x18]\n 35832: a4 = reverse a4\n 35834: a5 = a4 >> 0x38\n 35837: u8 [a0 + 0x1f] = a5\n 35840: a5 = a4 >> 0x30\n 35843: u8 [a0 + 0x1e] = a5\n 35846: a5 = a4 >> 0x28\n 35849: u8 [a0 + 0x1d] = a5\n 35852: a5 = a4 >> 0x20\n 35855: u8 [a0 + 0x1c] = a5\n 35858: a5 = a4 >> 0x18\n 35861: u8 [a0 + 0x1b] = a5\n 35864: a5 = a4 >> 0x10\n 35867: u8 [a0 + 0x1a] = a5\n 35870: a5 = a4 >> 0x8\n 35873: u8 [a0 + 0x19] = a5\n 35876: u8 [a0 + 0x18] = a4\n 35879: u8 [a0 + 0x10] = a3\n 35882: a4 = a3 >> 0x38\n 35885: u8 [a0 + 0x17] = a4\n 35888: a4 = a3 >> 0x30\n 35891: u8 [a0 + 0x16] = a4\n 35894: a4 = a3 >> 0x28\n 35897: u8 [a0 + 0x15] = a4\n 35900: a4 = a3 >> 0x20\n 35903: u8 [a0 + 0x14] = a4\n 35906: a4 = a3 >> 0x18\n 35909: u8 [a0 + 0x13] = a4\n 35912: a4 = a3 >> 0x10\n 35915: u8 [a0 + 0x12] = a4\n 35918: a3 = a3 >> 0x8\n 35921: u8 [a0 + 0x11] = a3\n 35924: u8 [a0 + 0x8] = a2\n 35927: a3 = a2 >> 0x38\n 35930: u8 [a0 + 0xf] = a3\n 35933: a3 = a2 >> 0x30\n 35936: u8 [a0 + 0xe] = a3\n 35939: a3 = a2 >> 0x28\n 35942: u8 [a0 + 0xd] = a3\n 35945: a3 = a2 >> 0x20\n 35948: u8 [a0 + 0xc] = a3\n 35951: a3 = a2 >> 0x18\n 35954: u8 [a0 + 0xb] = a3\n 35957: a3 = a2 >> 0x10\n 35960: u8 [a0 + 0xa] = a3\n 35963: a2 = a2 >> 0x8\n 35966: u8 [a0 + 0x9] = a2\n 35969: u8 [a0] = a1\n 35971: a2 = a1 >> 0x38\n 35974: u8 [a0 + 0x7] = a2\n 35977: a2 = a1 >> 0x30\n 35980: u8 [a0 + 0x6] = a2\n 35983: a2 = a1 >> 0x28\n 35986: u8 [a0 + 0x5] = a2\n 35989: a2 = a1 >> 0x20\n 35992: u8 [a0 + 0x4] = a2\n 35995: a2 = a1 >> 0x18\n 35998: u8 [a0 + 0x3] = a2\n 36001: a2 = a1 >> 0x10\n 36004: u8 [a0 + 0x2] = a2\n 36007: a1 = a1 >> 0x8\n 36010: u8 [a0 + 0x1] = a1\n 36013: a1 = 0x20\n 36016: a0 = s1\n 36018: ra = 452, jump @0\n      : @520 [@dyn 226] (gas: 6)\n 36025: i32 a1 = a0 + 0\n 36027: a2 = 0x20\n 36030: a0 = 0\n 36032: ra = 0x1c6\n 36036: ecalli 13 // 'seal_return'\n 36038: fallthrough\n      : @521 [@dyn 227] (gas: 7)\n 36039: sp = sp + 0xffffffffffffffa0\n 36042: u64 [sp + 0x58] = ra\n 36045: u64 [sp + 0x50] = s0\n 36048: s0 = sp + 0x60\n 36051: sp = sp & 0xffffffffffffffe0\n 36054: a0 = i32 [0x20114]\n 36059: jump @526 if a0 <=u 35\n      : @522 (gas: 13)\n 36064: i32 a0 = sp + 0x20\n 36067: a1 = 0x4\n 36070: ecalli 3 // 'call_data_load'\n 36072: a1 = u64 [sp + 0x20]\n 36075: a0 = u64 [sp + 0x28]\n 36078: a2 = u64 [sp + 0x30]\n 36081: a3 = u64 [sp + 0x38]\n 36084: u64 [sp + 0x18] = a3\n 36087: u64 [sp + 0x10] = a2\n 36090: u64 [sp + 0x8] = a0\n 36093: a0 = sp\n 36095: u64 [sp] = a1\n 36097: ra = 456, jump @1326\n      : @523 [@dyn 228] (gas: 3)\n 36104: a0 = 0x40\n 36107: a1 = 0x20\n 36110: ra = 458, jump @0\n      : @524 [@dyn 229] (gas: 100)\n 36117: a1 = u8 [a0 + 0x11]\n 36120: a2 = u8 [a0 + 0x10]\n 36123: a3 = u8 [a0 + 0x12]\n 36126: a4 = u8 [a0 + 0x13]\n 36129: a1 = a1 << 0x8\n 36132: a1 = a1 | a2\n 36135: a3 = a3 << 0x10\n 36138: a4 = a4 << 0x18\n 36141: a3 = a3 | a4\n 36144: a1 = a1 | a3\n 36147: a2 = u8 [a0 + 0x15]\n 36150: a3 = u8 [a0 + 0x14]\n 36153: a4 = u8 [a0 + 0x16]\n 36156: a5 = u8 [a0 + 0x17]\n 36159: a2 = a2 << 0x8\n 36162: a2 = a2 | a3\n 36165: a4 = a4 << 0x10\n 36168: a5 = a5 << 0x18\n 36171: a4 = a4 | a5\n 36174: a2 = a2 | a4\n 36177: a2 = a2 << 0x20\n 36180: t0 = a2 | a1\n 36183: a2 = u8 [a0 + 0x1]\n 36186: a3 = u8 [a0]\n 36188: a4 = u8 [a0 + 0x2]\n 36191: a5 = u8 [a0 + 0x3]\n 36194: a2 = a2 << 0x8\n 36197: a2 = a2 | a3\n 36200: a4 = a4 << 0x10\n 36203: a5 = a5 << 0x18\n 36206: a4 = a4 | a5\n 36209: a2 = a2 | a4\n 36212: a3 = u8 [a0 + 0x5]\n 36215: a4 = u8 [a0 + 0x4]\n 36218: a5 = u8 [a0 + 0x6]\n 36221: a1 = u8 [a0 + 0x7]\n 36224: a3 = a3 << 0x8\n 36227: a3 = a3 | a4\n 36230: a5 = a5 << 0x10\n 36233: a1 = a1 << 0x18\n 36236: a1 = a1 | a5\n 36239: a1 = a1 | a3\n 36242: a1 = a1 << 0x20\n 36245: t1 = a1 | a2\n 36248: a1 = u8 [a0 + 0x19]\n 36251: a3 = u8 [a0 + 0x18]\n 36254: a4 = u8 [a0 + 0x1a]\n 36257: a5 = u8 [a0 + 0x1b]\n 36260: a1 = a1 << 0x8\n 36263: a1 = a1 | a3\n 36266: a4 = a4 << 0x10\n 36269: a5 = a5 << 0x18\n 36272: a4 = a4 | a5\n 36275: a1 = a1 | a4\n 36278: a3 = u8 [a0 + 0x1d]\n 36281: a4 = u8 [a0 + 0x1c]\n 36284: a5 = u8 [a0 + 0x1e]\n 36287: a2 = u8 [a0 + 0x1f]\n 36290: a3 = a3 << 0x8\n 36293: a3 = a3 | a4\n 36296: a5 = a5 << 0x10\n 36299: a2 = a2 << 0x18\n 36302: a2 = a2 | a5\n 36305: a2 = a2 | a3\n 36308: a2 = a2 << 0x20\n 36311: a3 = a2 | a1\n 36314: a1 = u8 [a0 + 0x9]\n 36317: a2 = u8 [a0 + 0x8]\n 36320: a4 = u8 [a0 + 0xa]\n 36323: a5 = u8 [a0 + 0xb]\n 36326: a1 = a1 << 0x8\n 36329: a1 = a1 | a2\n 36332: a4 = a4 << 0x10\n 36335: a5 = a5 << 0x18\n 36338: a4 = a4 | a5\n 36341: a1 = a1 | a4\n 36344: a2 = u8 [a0 + 0xd]\n 36347: a4 = u8 [a0 + 0xc]\n 36350: a5 = u8 [a0 + 0xe]\n 36353: a0 = u8 [a0 + 0xf]\n 36356: a2 = a2 << 0x8\n 36359: a2 = a2 | a4\n 36362: a5 = a5 << 0x10\n 36365: a0 = a0 << 0x18\n 36368: a0 = a0 | a5\n 36371: a0 = a0 | a2\n 36374: a0 = a0 << 0x20\n 36377: a0 = a0 | a1\n 36380: a1 = reverse a0\n 36382: a0 = reverse a3\n 36384: a2 = reverse t1\n 36386: a3 = reverse t0\n 36388: a2 = a2 | a3\n 36391: a3 = a0 | a1\n 36394: a3 = a3 | a2\n 36397: a3 = a3 >> 0x20\n 36400: a1 = a1 | a2\n 36403: a1 = a1 << 0x20\n 36406: a1 = a1 | a3\n 36409: jump @528 if a1 == 0\n      : @525 (gas: 1)\n 36412: trap\n      : @526 (gas: 3)\n 36413: a0 = 0\n 36415: a1 = 0\n 36417: ra = 460, jump @0\n      : @527 [@dyn 230] (gas: 7)\n 36424: i32 a1 = a0 + 0\n 36426: a0 = 0x1\n 36429: a2 = 0\n 36431: ecalli 13 // 'seal_return'\n 36433: i32 a0 = a0 + 0\n 36435: ra = 0x1ce\n 36439: jump @0\n      : @528 (gas: 2)\n 36443: i32 a0 = a0 + 0\n 36445: ra = 462, jump @0\n      : @529 [@dyn 231] (gas: 6)\n 36452: i32 a1 = a0 + 0\n 36454: a0 = 0\n 36456: a2 = 0\n 36458: ra = 0x1d0\n 36462: ecalli 13 // 'seal_return'\n 36464: fallthrough\n      : @530 [@dyn 232] (gas: 43)\n 36465: sp = sp + 0xfffffffffffffe80\n 36469: u64 [sp + 0x178] = ra\n 36473: u64 [sp + 0x170] = s0\n 36477: u64 [sp + 0x168] = s1\n 36481: s0 = sp + 0x180\n 36485: sp = sp & 0xffffffffffffffe0\n 36488: t2 = u64 [a2 + 0x8]\n 36491: ra = u64 [a1 + 0x8]\n 36494: s1 = u64 [a2]\n 36496: a5 = u64 [a1]\n 36498: t0 = u64 [a2 + 0x10]\n 36501: a4 = t2 ^ ra\n 36504: a3 = t2 <u ra\n 36507: t1 = s1 <u a5\n 36510: a3 = t1 if a4 == 0\n 36513: a4 = t2 - ra\n 36516: a4 = a4 - t1\n 36519: u64 [sp + 0x60] = s1\n 36522: u64 [sp + 0x98] = a5\n 36526: a5 = s1 - a5\n 36529: a5 = a5 <u 0x60\n 36532: a5 = a5 ^ 0x1\n 36535: t1 = u64 [a1 + 0x10]\n 36538: s1 = a4 >u 0\n 36540: a5 = s1 if a4 != 0\n 36543: a4 = u64 [a2 + 0x18]\n 36546: s1 = u64 [a1 + 0x18]\n 36549: a1 = t0 - t1\n 36552: a2 = a1 - a3\n 36555: a1 = a1 <u a3\n 36558: u64 [sp + 0x90] = t1\n 36562: a3 = t0 <u t1\n 36565: u64 [sp + 0x58] = a4\n 36568: u64 [sp + 0x88] = s1\n 36572: a4 = a4 - s1\n 36575: a4 = a4 - a3\n 36578: a4 = a4 - a1\n 36581: a1 = a4 >s 0\n 36583: a3 = a2 >u 0\n 36585: a3 = a1 if a4 != 0\n 36588: a2 = a2 | a4\n 36591: a5 = a3 if a2 != 0\n 36594: jump @541 if a5 == 0\n      : @531 (gas: 15)\n 36598: s1 = a0\n 36600: u64 [sp + 0x68] = t0\n 36603: u64 [sp + 0x70] = t2\n 36606: a2 = u64 [sp + 0x90]\n 36610: t2 = u64 [sp + 0x98]\n 36614: a0 = t2 | a2\n 36617: a1 = u64 [sp + 0x88]\n 36621: a1 = ra | a1\n 36624: a0 = a0 | a1\n 36627: a0 = a0 >> 0x20\n 36630: a1 = a1 | a2\n 36633: a1 = a1 << 0x20\n 36636: a0 = a0 | a1\n 36639: u64 [sp + 0x80] = ra\n 36643: jump @540 if a0 != 0\n      : @532 (gas: 5)\n 36647: i32 a1 = t2 + 0\n 36649: i32 a0 = sp + 0x140\n 36653: u64 [sp + 0x78] = a1\n 36656: ecalli 3 // 'call_data_load'\n 36658: fallthrough\n      : @533 (gas: 13)\n 36659: a0 = u64 [sp + 0x90]\n 36663: a1 = u64 [sp + 0x88]\n 36667: a2 = a0 | a1\n 36670: a0 = 0x100000000\n 36680: u64 [sp + 0x48] = a0\n 36683: a0 = 0xffffffe0\n 36693: a1 = u64 [sp + 0x98]\n 36697: a0 = a1 <u a0\n 36700: a1 = u64 [sp + 0x80]\n 36704: a0 = 0 if a1 != 0\n 36706: u64 [sp + 0x50] = a2\n 36709: a0 = 0 if a2 != 0\n 36711: jump @540 if a0 == 0\n      : @534 (gas: 13)\n 36715: a0 = u64 [sp + 0x158]\n 36719: u64 [sp + 0x38] = a0\n 36722: a0 = u64 [sp + 0x150]\n 36726: u64 [sp + 0x28] = a0\n 36729: a0 = u64 [sp + 0x148]\n 36733: u64 [sp + 0x40] = a0\n 36736: a0 = u64 [sp + 0x140]\n 36740: u64 [sp + 0x30] = a0\n 36743: a0 = u64 [sp + 0x78]\n 36746: i32 a1 = a0 + 0x20\n 36749: i32 a0 = sp + 0x140\n 36753: ecalli 3 // 'call_data_load'\n 36755: fallthrough\n      : @535 (gas: 9)\n 36756: a0 = u64 [sp + 0x48]\n 36759: a0 = a0 + 0xffffffffffffffc0\n 36762: a1 = u64 [sp + 0x98]\n 36766: a0 = a1 <u a0\n 36769: a1 = u64 [sp + 0x80]\n 36773: a0 = 0 if a1 != 0\n 36775: a1 = u64 [sp + 0x50]\n 36778: a0 = 0 if a1 != 0\n 36780: jump @540 if a0 == 0\n      : @536 (gas: 13)\n 36784: a0 = u64 [sp + 0x158]\n 36788: u64 [sp + 0x48] = a0\n 36791: a0 = u64 [sp + 0x150]\n 36795: u64 [sp + 0x18] = a0\n 36798: a0 = u64 [sp + 0x148]\n 36802: u64 [sp + 0x50] = a0\n 36805: a0 = u64 [sp + 0x140]\n 36809: u64 [sp + 0x20] = a0\n 36812: a0 = u64 [sp + 0x78]\n 36815: i32 a1 = a0 + 0x40\n 36818: i32 a0 = sp + 0x120\n 36822: ecalli 3 // 'call_data_load'\n 36824: fallthrough\n      : @537 (gas: 7)\n 36825: t0 = u64 [sp + 0x138]\n 36829: a1 = u64 [sp + 0x130]\n 36833: a2 = u64 [sp + 0x128]\n 36837: a3 = a1 | t0\n 36840: a4 = a2 <u 0x1\n 36843: a4 = 0 if a3 != 0\n 36845: jump @541 if a4 == 0\n      : @538 (gas: 35)\n 36849: a3 = u64 [sp + 0x120]\n 36853: a4 = u64 [sp + 0x98]\n 36857: a4 = a4 + a3\n 36860: a3 = a4 <u a3\n 36863: a5 = u64 [sp + 0x80]\n 36867: a5 = a5 + a2\n 36870: a5 = a5 + a3\n 36873: a0 = a5 ^ a2\n 36876: a2 = a5 <u a2\n 36879: a2 = a3 if a0 == 0\n 36882: a0 = u64 [sp + 0x90]\n 36886: a0 = a0 + a1\n 36889: a2 = a2 + a0\n 36892: a3 = a2 <u a0\n 36895: a0 = a0 <u a1\n 36898: a1 = u64 [sp + 0x88]\n 36902: t0 = t0 + a1\n 36905: a0 = a0 + t0\n 36908: a3 = a3 + a0\n 36911: a0 = u64 [sp + 0x60]\n 36914: u64 [sp + 0xa0] = a0\n 36918: a0 = u64 [sp + 0x70]\n 36921: u64 [sp + 0xa8] = a0\n 36925: u64 [sp + 0xc0] = a4\n 36929: a0 = u64 [sp + 0x68]\n 36932: u64 [sp + 0xb0] = a0\n 36936: a0 = u64 [sp + 0x58]\n 36939: u64 [sp + 0xb8] = a0\n 36943: u64 [sp + 0xc8] = a5\n 36947: u64 [sp + 0xd0] = a2\n 36951: a0 = sp + 0xe0\n 36955: a1 = sp + 0xc0\n 36959: a2 = sp + 0xa0\n 36963: u64 [sp + 0xd8] = a3\n 36967: ra = 466, jump @174\n      : @539 [@dyn 233] (gas: 38)\n 36973: t0 = u64 [sp + 0xe8]\n 36977: t1 = u64 [sp + 0xe0]\n 36981: a2 = u64 [sp + 0xf8]\n 36985: a3 = u64 [sp + 0xf0]\n 36989: a4 = u64 [sp + 0x110]\n 36993: a5 = u64 [sp + 0x118]\n 36997: a0 = u64 [sp + 0x100]\n 37001: a1 = u64 [sp + 0x108]\n 37005: u64 [s1 + 0x70] = a4\n 37008: u64 [s1 + 0x78] = a5\n 37011: u64 [s1 + 0x60] = a0\n 37014: u64 [s1 + 0x68] = a1\n 37017: u64 [s1 + 0x50] = a3\n 37020: u64 [s1 + 0x58] = a2\n 37023: u64 [s1 + 0x40] = t1\n 37026: u64 [s1 + 0x48] = t0\n 37029: a0 = u64 [sp + 0x18]\n 37032: u64 [s1 + 0x30] = a0\n 37035: a0 = u64 [sp + 0x48]\n 37038: u64 [s1 + 0x38] = a0\n 37041: a0 = u64 [sp + 0x20]\n 37044: u64 [s1 + 0x20] = a0\n 37047: a0 = u64 [sp + 0x50]\n 37050: u64 [s1 + 0x28] = a0\n 37053: a0 = u64 [sp + 0x28]\n 37056: u64 [s1 + 0x10] = a0\n 37059: a0 = u64 [sp + 0x38]\n 37062: u64 [s1 + 0x18] = a0\n 37065: a0 = u64 [sp + 0x30]\n 37068: u64 [s1] = a0\n 37070: a0 = u64 [sp + 0x40]\n 37073: u64 [s1 + 0x8] = a0\n 37076: sp = s0 + 0xfffffffffffffe80\n 37080: ra = u64 [sp + 0x178]\n 37084: s0 = u64 [sp + 0x170]\n 37088: s1 = u64 [sp + 0x168]\n 37092: sp = sp + 0x180\n 37096: ret\n      : @540 (gas: 1)\n 37098: trap\n      : @541 (gas: 3)\n 37099: a0 = 0\n 37101: a1 = 0\n 37103: ra = 468, jump @0\n      : @542 [@dyn 234] (gas: 6)\n 37110: i32 a1 = a0 + 0\n 37112: a0 = 0x1\n 37115: a2 = 0\n 37117: ra = 0x1d6\n 37121: ecalli 13 // 'seal_return'\n 37123: fallthrough\n      : @543 [@dyn 235] (gas: 13)\n 37124: sp = sp + 0xfffffffffffffe40\n 37128: u64 [sp + 0x1b8] = ra\n 37132: u64 [sp + 0x1b0] = s0\n 37136: u64 [sp + 0x1a8] = s1\n 37140: s0 = sp + 0x1c0\n 37144: sp = sp & 0xffffffffffffffe0\n 37147: u64 [sp + 408] = 0\n 37151: u64 [sp + 400] = 0\n 37155: u64 [sp + 392] = 0\n 37159: u64 [sp + 384] = 0\n 37163: i32 a0 = sp + 0x180\n 37167: ecalli 16 // 'value_transferred'\n 37169: fallthrough\n      : @544 (gas: 8)\n 37170: a0 = u64 [sp + 0x190]\n 37174: a1 = u64 [sp + 0x198]\n 37178: a2 = u64 [sp + 0x188]\n 37182: a3 = u64 [sp + 0x180]\n 37186: a1 = a1 | a2\n 37189: a0 = a0 | a3\n 37192: a0 = a0 | a1\n 37195: jump @547 if a0 != 0\n      : @545 (gas: 13)\n 37199: a0 = u32 [0x20114]\n 37204: u64 [sp + 216] = 0\n 37208: u64 [sp + 208] = 0\n 37212: u64 [sp + 200] = 0\n 37216: u64 [sp + 0xc0] = a0\n 37220: u64 [sp + 248] = 0\n 37224: u64 [sp + 240] = 0\n 37228: u64 [sp + 224] = 0x4\n 37233: a0 = sp + 0x100\n 37237: a1 = sp + 0xe0\n 37241: a2 = sp + 0xc0\n 37245: u64 [sp + 232] = 0\n 37249: ra = 472, jump @530\n      : @546 [@dyn 236] (gas: 47)\n 37255: a0 = u64 [sp + 0x100]\n 37259: u64 [sp + 0x38] = a0\n 37262: a0 = u64 [sp + 0x108]\n 37266: u64 [sp + 0x30] = a0\n 37269: a0 = u64 [sp + 0x110]\n 37273: u64 [sp + 0x28] = a0\n 37276: a0 = u64 [sp + 0x118]\n 37280: u64 [sp + 0x20] = a0\n 37283: a0 = u64 [sp + 0x120]\n 37287: u64 [sp + 0x18] = a0\n 37290: ra = u64 [sp + 0x128]\n 37294: t2 = u64 [sp + 0x130]\n 37298: t1 = u64 [sp + 0x138]\n 37302: t0 = u64 [sp + 0x140]\n 37306: s1 = u64 [sp + 0x148]\n 37310: a5 = u64 [sp + 0x150]\n 37314: a4 = u64 [sp + 0x158]\n 37318: a3 = u64 [sp + 0x160]\n 37322: a2 = u64 [sp + 0x168]\n 37326: a1 = u64 [sp + 0x170]\n 37330: a0 = u64 [sp + 0x178]\n 37334: u64 [sp + 0x58] = a0\n 37337: u64 [sp + 0x50] = a1\n 37340: u64 [sp + 0x48] = a2\n 37343: u64 [sp + 0x40] = a3\n 37346: u64 [sp + 0x78] = a4\n 37349: u64 [sp + 0x70] = a5\n 37352: u64 [sp + 0x68] = s1\n 37355: u64 [sp + 0x60] = t0\n 37358: u64 [sp + 0x98] = t1\n 37362: u64 [sp + 0x90] = t2\n 37366: u64 [sp + 0x88] = ra\n 37370: a0 = u64 [sp + 0x18]\n 37373: u64 [sp + 0x80] = a0\n 37377: a0 = u64 [sp + 0x20]\n 37380: u64 [sp + 0xb8] = a0\n 37384: a0 = u64 [sp + 0x28]\n 37387: u64 [sp + 0xb0] = a0\n 37391: a0 = u64 [sp + 0x30]\n 37394: u64 [sp + 0xa8] = a0\n 37398: a0 = sp + 0xa0\n 37402: a1 = sp + 0x80\n 37406: a2 = sp + 0x60\n 37409: a3 = sp + 0x40\n 37412: a4 = u64 [sp + 0x38]\n 37415: u64 [sp + 0xa0] = a4\n 37419: ra = 474, jump @1422\n      : @547 [@dyn 237] (gas: 3)\n 37426: a0 = 0\n 37428: a1 = 0\n 37430: ra = 476, jump @0\n      : @548 [@dyn 238] (gas: 6)\n 37437: i32 a1 = a0 + 0\n 37439: a0 = 0x1\n 37442: a2 = 0\n 37444: ra = 0x1de\n 37448: ecalli 13 // 'seal_return'\n 37450: fallthrough\n      : @549 [@dyn 239] (gas: 9)\n 37451: a1 = u64 [a0 + 0x18]\n 37454: a2 = u64 [a0 + 0x10]\n 37457: a3 = u64 [a0]\n 37459: a0 = u64 [a0 + 0x8]\n 37462: a1 = a1 | a2\n 37465: a2 = a3 <u 0x2\n 37468: a2 = 0 if a0 != 0\n 37470: a2 = 0 if a1 != 0\n 37472: jump @551 if a2 == 0\n      : @550 (gas: 1)\n 37475: ret\n      : @551 (gas: 5)\n 37477: sp = sp + 0xfffffffffffffff8\n 37480: u64 [sp] = ra\n 37482: a0 = 0\n 37484: a1 = 0\n 37486: ra = 480, jump @0\n      : @552 [@dyn 240] (gas: 6)\n 37493: i32 a1 = a0 + 0\n 37495: a0 = 0x1\n 37498: a2 = 0\n 37500: ra = 0x1e2\n 37504: ecalli 13 // 'seal_return'\n 37506: fallthrough\n      : @553 [@dyn 241] (gas: 18)\n 37507: sp = sp + 0xffffffffffffffc0\n 37510: u64 [sp + 0x38] = ra\n 37513: u64 [sp + 0x30] = s0\n 37516: u64 [sp + 0x28] = s1\n 37519: s0 = sp + 0x40\n 37522: sp = sp & 0xffffffffffffffe0\n 37525: a2 = u64 [a1 + 0x10]\n 37528: a3 = u64 [a1 + 0x18]\n 37531: a4 = u64 [a1 + 0x8]\n 37534: a1 = u64 [a1]\n 37536: a3 = a3 | a4\n 37539: a4 = a1 | a2\n 37542: a4 = a4 | a3\n 37545: a4 = a4 >> 0x20\n 37548: a2 = a2 | a3\n 37551: a2 = a2 << 0x20\n 37554: a2 = a2 | a4\n 37557: jump @557 if a2 != 0\n      : @554 (gas: 5)\n 37560: s1 = a0\n 37562: i32 a1 = a1 + 0\n 37564: i32 a0 = sp + 0\n 37566: ecalli 3 // 'call_data_load'\n 37568: fallthrough\n      : @555 (gas: 9)\n 37569: a0 = u64 [sp + 0x18]\n 37572: a1 = u64 [sp + 0x10]\n 37575: a2 = u64 [sp]\n 37577: a3 = u64 [sp + 0x8]\n 37580: a4 = a1 | a0\n 37583: a5 = a2 <u 0x2\n 37586: a5 = 0 if a3 != 0\n 37588: a5 = 0 if a4 != 0\n 37590: jump @558 if a5 == 0\n      : @556 (gas: 10)\n 37593: u64 [s1] = a2\n 37595: u64 [s1 + 0x8] = a3\n 37598: u64 [s1 + 0x10] = a1\n 37601: u64 [s1 + 0x18] = a0\n 37604: sp = s0 + 0xffffffffffffffc0\n 37607: ra = u64 [sp + 0x38]\n 37610: s0 = u64 [sp + 0x30]\n 37613: s1 = u64 [sp + 0x28]\n 37616: sp = sp + 0x40\n 37619: ret\n      : @557 (gas: 1)\n 37621: trap\n      : @558 (gas: 3)\n 37622: a0 = 0\n 37624: a1 = 0\n 37626: ra = 484, jump @0\n      : @559 [@dyn 242] (gas: 6)\n 37633: i32 a1 = a0 + 0\n 37635: a0 = 0x1\n 37638: a2 = 0\n 37640: ra = 0x1e6\n 37644: ecalli 13 // 'seal_return'\n 37646: fallthrough\n      : @560 [@dyn 243] (gas: 48)\n 37647: sp = sp + 0xffffffffffffff60\n 37651: u64 [sp + 0x98] = ra\n 37655: u64 [sp + 0x90] = s0\n 37659: u64 [sp + 0x88] = s1\n 37663: s0 = sp + 0xa0\n 37667: sp = sp & 0xffffffffffffffe0\n 37670: t0 = u64 [a1 + 0x10]\n 37673: a5 = u64 [a1 + 0x8]\n 37676: a3 = u64 [a2 + 0x8]\n 37679: t2 = u64 [a1]\n 37681: a4 = u64 [a2]\n 37683: u64 [sp + 0x40] = a4\n 37686: ra = u64 [a2 + 0x10]\n 37689: t1 = a3 ^ a5\n 37692: s1 = a3 <u a5\n 37695: a4 = a4 <u t2\n 37698: u64 [sp + 0x38] = a4\n 37701: s1 = a4 if t1 == 0\n 37704: t1 = u64 [a1 + 0x18]\n 37707: a1 = u64 [a2 + 0x18]\n 37710: u64 [sp + 0x30] = a1\n 37713: a2 = ra - t0\n 37716: a1 = a2 - s1\n 37719: u64 [sp + 0x48] = a1\n 37722: a1 = a2 <u s1\n 37725: u64 [sp + 0x58] = t0\n 37728: a4 = ra <u t0\n 37731: u64 [sp + 0x50] = t1\n 37734: a2 = u64 [sp + 0x30]\n 37737: a2 = a2 - t1\n 37740: a2 = a2 - a4\n 37743: a2 = a2 - a1\n 37746: a1 = a3 - a5\n 37749: a3 = u64 [sp + 0x38]\n 37752: a1 = a1 - a3\n 37755: a3 = u64 [sp + 0x40]\n 37758: a3 = a3 - t2\n 37761: a4 = a1 >u 0\n 37763: a3 = a3 <u 0x60\n 37766: a3 = a3 ^ 0x1\n 37769: a3 = a4 if a1 != 0\n 37772: s1 = a2 >s 0\n 37774: a1 = u64 [sp + 0x48]\n 37777: a4 = a1 >u 0\n 37779: a4 = s1 if a2 != 0\n 37782: a1 = a1 | a2\n 37785: a3 = a4 if a1 != 0\n 37788: jump @570 if a3 == 0\n      : @561 (gas: 12)\n 37792: s1 = a0\n 37794: a2 = u64 [sp + 0x58]\n 37797: a0 = t2 | a2\n 37800: u64 [sp + 0x48] = a5\n 37803: a1 = u64 [sp + 0x50]\n 37806: a1 = a1 | a5\n 37809: a0 = a0 | a1\n 37812: a0 = a0 >> 0x20\n 37815: a1 = a1 | a2\n 37818: a1 = a1 << 0x20\n 37821: a0 = a0 | a1\n 37824: jump @569 if a0 != 0\n      : @562 (gas: 6)\n 37828: i32 a1 = t2 + 0\n 37830: i32 a0 = sp + 0x60\n 37833: u64 [sp + 0x38] = a1\n 37836: u64 [sp + 0x40] = t2\n 37839: ecalli 3 // 'call_data_load'\n 37841: fallthrough\n      : @563 (gas: 13)\n 37842: a0 = u64 [sp + 0x58]\n 37845: a1 = u64 [sp + 0x50]\n 37848: a2 = a0 | a1\n 37851: a0 = 0x100000000\n 37861: u64 [sp + 0x50] = a0\n 37864: a0 = 0xffffffe0\n 37874: a1 = u64 [sp + 0x40]\n 37877: a0 = a1 <u a0\n 37880: a1 = u64 [sp + 0x48]\n 37883: a0 = 0 if a1 != 0\n 37885: u64 [sp + 0x58] = a2\n 37888: a0 = 0 if a2 != 0\n 37890: jump @569 if a0 == 0\n      : @564 (gas: 13)\n 37894: a0 = u64 [sp + 0x78]\n 37897: u64 [sp + 0x30] = a0\n 37900: a0 = u64 [sp + 0x70]\n 37903: u64 [sp + 0x28] = a0\n 37906: a0 = u64 [sp + 0x68]\n 37909: u64 [sp + 0x18] = a0\n 37912: a0 = u64 [sp + 0x60]\n 37915: u64 [sp + 0x20] = a0\n 37918: a0 = u64 [sp + 0x38]\n 37921: i32 a1 = a0 + 0x20\n 37924: i32 a0 = sp + 0x60\n 37927: ecalli 3 // 'call_data_load'\n 37929: fallthrough\n      : @565 (gas: 9)\n 37930: a0 = u64 [sp + 0x50]\n 37933: a0 = a0 + 0xffffffffffffffc0\n 37936: a1 = u64 [sp + 0x40]\n 37939: a0 = a1 <u a0\n 37942: a1 = u64 [sp + 0x48]\n 37945: a0 = 0 if a1 != 0\n 37947: a1 = u64 [sp + 0x58]\n 37950: a0 = 0 if a1 != 0\n 37952: jump @569 if a0 == 0\n      : @566 (gas: 13)\n 37956: a0 = u64 [sp + 0x78]\n 37959: u64 [sp + 0x58] = a0\n 37962: a0 = u64 [sp + 0x70]\n 37965: u64 [sp + 0x50] = a0\n 37968: a0 = u64 [sp + 0x68]\n 37971: u64 [sp + 0x40] = a0\n 37974: a0 = u64 [sp + 0x60]\n 37977: u64 [sp + 0x48] = a0\n 37980: a0 = u64 [sp + 0x38]\n 37983: i32 a1 = a0 + 0x40\n 37986: i32 a0 = sp + 0x60\n 37989: ecalli 3 // 'call_data_load'\n 37991: fallthrough\n      : @567 (gas: 9)\n 37992: a0 = u64 [sp + 0x78]\n 37995: a1 = u64 [sp + 0x70]\n 37998: a2 = u64 [sp + 0x60]\n 38001: a3 = u64 [sp + 0x68]\n 38004: a4 = a1 | a0\n 38007: a5 = a2 <u 0x2\n 38010: a5 = 0 if a3 != 0\n 38012: a5 = 0 if a4 != 0\n 38014: jump @570 if a5 == 0\n      : @568 (gas: 26)\n 38017: u64 [s1 + 0x48] = a3\n 38020: u64 [s1 + 0x40] = a2\n 38023: a2 = u64 [sp + 0x40]\n 38026: u64 [s1 + 0x28] = a2\n 38029: a2 = u64 [sp + 0x48]\n 38032: u64 [s1 + 0x20] = a2\n 38035: a2 = u64 [sp + 0x18]\n 38038: u64 [s1 + 0x8] = a2\n 38041: a2 = u64 [sp + 0x20]\n 38044: u64 [s1] = a2\n 38046: u64 [s1 + 0x50] = a1\n 38049: a1 = u64 [sp + 0x50]\n 38052: u64 [s1 + 0x30] = a1\n 38055: a1 = u64 [sp + 0x28]\n 38058: u64 [s1 + 0x10] = a1\n 38061: u64 [s1 + 0x58] = a0\n 38064: a0 = u64 [sp + 0x58]\n 38067: u64 [s1 + 0x38] = a0\n 38070: a0 = u64 [sp + 0x30]\n 38073: u64 [s1 + 0x18] = a0\n 38076: sp = s0 + 0xffffffffffffff60\n 38080: ra = u64 [sp + 0x98]\n 38084: s0 = u64 [sp + 0x90]\n 38088: s1 = u64 [sp + 0x88]\n 38092: sp = sp + 0xa0\n 38096: ret\n      : @569 (gas: 1)\n 38098: trap\n      : @570 (gas: 3)\n 38099: a0 = 0\n 38101: a1 = 0\n 38103: ra = 488, jump @0\n      : @571 [@dyn 244] (gas: 6)\n 38110: i32 a1 = a0 + 0\n 38112: a0 = 0x1\n 38115: a2 = 0\n 38117: ra = 0x1ea\n 38121: ecalli 13 // 'seal_return'\n 38123: fallthrough\n      : @572 [@dyn 245] (gas: 19)\n 38124: sp = sp + 0xfffffffffffffed0\n 38128: u64 [sp + 0x128] = ra\n 38132: u64 [sp + 0x120] = s0\n 38136: u64 [sp + 0x118] = s1\n 38140: s0 = sp + 0x130\n 38144: sp = sp & 0xfffffffffffffff0\n 38147: a0 = u32 [0x20114]\n 38152: u64 [sp + 136] = 0\n 38156: u64 [sp + 128] = 0\n 38160: u64 [sp + 120] = 0\n 38163: u64 [sp + 0x70] = a0\n 38166: u64 [sp + 168] = 0\n 38170: u64 [sp + 160] = 0\n 38174: u64 [sp + 144] = 0x4\n 38179: a0 = sp + 0xb0\n 38183: a1 = sp + 0x90\n 38187: a2 = sp + 0x70\n 38190: u64 [sp + 152] = 0\n 38194: ra = 492, jump @560\n      : @573 [@dyn 246] (gas: 30)\n 38200: a0 = u64 [sp + 0xb0]\n 38204: u64 [sp + 0x8] = a0\n 38207: t1 = u64 [sp + 0xb8]\n 38211: t2 = u64 [sp + 0xc0]\n 38215: ra = u64 [sp + 0xc8]\n 38219: t0 = u64 [sp + 0xd0]\n 38223: a5 = u64 [sp + 0xd8]\n 38227: a4 = u64 [sp + 0xe0]\n 38231: a3 = u64 [sp + 0xe8]\n 38235: a1 = u64 [sp + 0xf0]\n 38239: s1 = u64 [sp + 0xf8]\n 38243: a2 = u64 [sp + 0x100]\n 38247: a0 = u64 [sp + 0x108]\n 38251: u64 [sp + 0x28] = a0\n 38254: u64 [sp + 0x20] = a2\n 38257: u64 [sp + 0x18] = s1\n 38260: u64 [sp + 0x10] = a1\n 38263: u64 [sp + 0x48] = a3\n 38266: u64 [sp + 0x40] = a4\n 38269: u64 [sp + 0x38] = a5\n 38272: u64 [sp + 0x30] = t0\n 38275: u64 [sp + 0x68] = ra\n 38278: u64 [sp + 0x60] = t2\n 38281: u64 [sp + 0x58] = t1\n 38284: a0 = sp + 0x50\n 38287: a1 = sp + 0x30\n 38290: a2 = sp + 0x10\n 38293: a3 = u64 [sp + 0x8]\n 38296: u64 [sp + 0x50] = a3\n 38299: ra = 494, jump @1487\n      : @574 [@dyn 247] (gas: 3)\n 38306: a0 = 0x40\n 38309: a1 = 0x20\n 38312: ra = 496, jump @0\n      : @575 [@dyn 248] (gas: 100)\n 38319: a1 = u8 [a0 + 0x11]\n 38322: a2 = u8 [a0 + 0x10]\n 38325: a3 = u8 [a0 + 0x12]\n 38328: a4 = u8 [a0 + 0x13]\n 38331: a1 = a1 << 0x8\n 38334: a1 = a1 | a2\n 38337: a3 = a3 << 0x10\n 38340: a4 = a4 << 0x18\n 38343: a3 = a3 | a4\n 38346: a1 = a1 | a3\n 38349: a2 = u8 [a0 + 0x15]\n 38352: a3 = u8 [a0 + 0x14]\n 38355: a4 = u8 [a0 + 0x16]\n 38358: a5 = u8 [a0 + 0x17]\n 38361: a2 = a2 << 0x8\n 38364: a2 = a2 | a3\n 38367: a4 = a4 << 0x10\n 38370: a5 = a5 << 0x18\n 38373: a4 = a4 | a5\n 38376: a2 = a2 | a4\n 38379: a2 = a2 << 0x20\n 38382: t0 = a2 | a1\n 38385: a2 = u8 [a0 + 0x1]\n 38388: a3 = u8 [a0]\n 38390: a4 = u8 [a0 + 0x2]\n 38393: a5 = u8 [a0 + 0x3]\n 38396: a2 = a2 << 0x8\n 38399: a2 = a2 | a3\n 38402: a4 = a4 << 0x10\n 38405: a5 = a5 << 0x18\n 38408: a4 = a4 | a5\n 38411: a2 = a2 | a4\n 38414: a3 = u8 [a0 + 0x5]\n 38417: a4 = u8 [a0 + 0x4]\n 38420: a5 = u8 [a0 + 0x6]\n 38423: s1 = u8 [a0 + 0x7]\n 38426: a3 = a3 << 0x8\n 38429: a3 = a3 | a4\n 38432: a5 = a5 << 0x10\n 38435: s1 = s1 << 0x18\n 38438: a5 = a5 | s1\n 38441: a3 = a3 | a5\n 38444: a3 = a3 << 0x20\n 38447: a2 = a2 | a3\n 38450: a3 = u8 [a0 + 0x19]\n 38453: a4 = u8 [a0 + 0x18]\n 38456: a5 = u8 [a0 + 0x1a]\n 38459: s1 = u8 [a0 + 0x1b]\n 38462: a3 = a3 << 0x8\n 38465: a3 = a3 | a4\n 38468: a5 = a5 << 0x10\n 38471: s1 = s1 << 0x18\n 38474: a5 = a5 | s1\n 38477: a3 = a3 | a5\n 38480: a4 = u8 [a0 + 0x1d]\n 38483: a5 = u8 [a0 + 0x1c]\n 38486: s1 = u8 [a0 + 0x1e]\n 38489: a1 = u8 [a0 + 0x1f]\n 38492: a4 = a4 << 0x8\n 38495: a4 = a4 | a5\n 38498: s1 = s1 << 0x10\n 38501: a1 = a1 << 0x18\n 38504: a1 = a1 | s1\n 38507: a1 = a1 | a4\n 38510: a1 = a1 << 0x20\n 38513: a3 = a3 | a1\n 38516: a1 = u8 [a0 + 0x9]\n 38519: a4 = u8 [a0 + 0x8]\n 38522: a5 = u8 [a0 + 0xa]\n 38525: s1 = u8 [a0 + 0xb]\n 38528: a1 = a1 << 0x8\n 38531: a1 = a1 | a4\n 38534: a5 = a5 << 0x10\n 38537: s1 = s1 << 0x18\n 38540: a5 = a5 | s1\n 38543: a1 = a1 | a5\n 38546: a4 = u8 [a0 + 0xd]\n 38549: a5 = u8 [a0 + 0xc]\n 38552: s1 = u8 [a0 + 0xe]\n 38555: a0 = u8 [a0 + 0xf]\n 38558: a4 = a4 << 0x8\n 38561: a4 = a4 | a5\n 38564: s1 = s1 << 0x10\n 38567: a0 = a0 << 0x18\n 38570: a0 = a0 | s1\n 38573: a0 = a0 | a4\n 38576: a0 = a0 << 0x20\n 38579: a0 = a0 | a1\n 38582: a1 = reverse a0\n 38584: a0 = reverse a3\n 38586: a2 = reverse a2\n 38588: a3 = reverse t0\n 38590: a2 = a2 | a3\n 38593: a3 = a0 | a1\n 38596: a3 = a3 | a2\n 38599: a3 = a3 >> 0x20\n 38602: a1 = a1 | a2\n 38605: a1 = a1 << 0x20\n 38608: a1 = a1 | a3\n 38611: jump @577 if a1 == 0\n      : @576 (gas: 1)\n 38614: trap\n      : @577 (gas: 2)\n 38615: i32 a0 = a0 + 0\n 38617: ra = 498, jump @0\n      : @578 [@dyn 249] (gas: 6)\n 38624: i32 a1 = a0 + 0\n 38626: a0 = 0\n 38628: a2 = 0\n 38630: ra = 0x1f4\n 38634: ecalli 13 // 'seal_return'\n 38636: fallthrough\n      : @579 [@dyn 250] (gas: 9)\n 38637: a2 = u64 [a1 + 0x18]\n 38640: a3 = u64 [a1 + 0x10]\n 38643: a4 = u64 [a1 + 0x8]\n 38646: a1 = u64 [a1]\n 38648: u64 [a0 + 0x18] = a2\n 38651: u64 [a0 + 0x10] = a3\n 38654: u64 [a0 + 0x8] = a4\n 38657: u64 [a0] = a1\n 38659: ret\n      : @580 (gas: 17)\n 38661: sp = sp + 0xffffffffffffffa0\n 38664: u64 [sp + 0x58] = ra\n 38667: u64 [sp + 0x50] = s0\n 38670: u64 [sp + 0x48] = s1\n 38673: a3 = u64 [a1 + 0x18]\n 38676: a4 = u64 [a1 + 0x10]\n 38679: a5 = u64 [a1 + 0x8]\n 38682: s1 = u64 [a1]\n 38684: a1 = a5 | a3\n 38687: a2 = s1 | a4\n 38690: a2 = a2 | a1\n 38693: a2 = a2 >> 0x20\n 38696: a1 = a1 | a4\n 38699: a1 = a1 << 0x20\n 38702: a1 = a1 | a2\n 38705: u64 [sp + 0x28] = a0\n 38708: jump @587 if a1 != 0\n      : @581 (gas: 19)\n 38712: a0 = s1 + 0x20\n 38715: u64 [sp + 0x30] = a0\n 38718: a0 = a0 <u s1\n 38721: a1 = a5 + a0\n 38724: u64 [sp + 0x40] = a1\n 38727: u64 [sp + 0x8] = a5\n 38730: s0 = a1 <u a5\n 38733: s0 = a0 if a0 == 0\n 38736: s0 = s0 + a4\n 38739: u64 [sp + 0x10] = a4\n 38742: a0 = s0 <u a4\n 38745: u64 [sp + 0x18] = a3\n 38748: a0 = a0 + a3\n 38751: u64 [sp + 0x38] = a0\n 38754: u64 [sp] = s1\n 38756: i32 a0 = s1 + 0\n 38758: a1 = 0x20\n 38761: s1 = 0x20\n 38764: ra = 502, jump @0\n      : @582 [@dyn 251] (gas: 45)\n 38771: u8 [a0 + 0x1f] = s1\n 38774: a1 = u64 [sp + 0x30]\n 38777: s1 = a1\n 38779: a1 = a1 | s0\n 38782: a2 = u64 [sp + 0x40]\n 38785: a4 = u64 [sp + 0x38]\n 38788: a2 = a2 | a4\n 38791: a1 = a1 | a2\n 38794: a1 = a1 >> 0x20\n 38797: u64 [sp + 0x20] = s0\n 38800: a2 = a2 | s0\n 38803: a2 = a2 << 0x20\n 38806: a1 = a1 | a2\n 38809: u8 [a0 + 30] = 0\n 38812: u8 [a0 + 29] = 0\n 38815: u8 [a0 + 28] = 0\n 38818: u8 [a0 + 27] = 0\n 38821: u8 [a0 + 26] = 0\n 38824: u8 [a0 + 25] = 0\n 38827: u8 [a0 + 24] = 0\n 38830: u8 [a0 + 23] = 0\n 38833: u8 [a0 + 22] = 0\n 38836: u8 [a0 + 21] = 0\n 38839: u8 [a0 + 20] = 0\n 38842: u8 [a0 + 19] = 0\n 38845: u8 [a0 + 18] = 0\n 38848: u8 [a0 + 17] = 0\n 38851: u8 [a0 + 16] = 0\n 38854: u8 [a0 + 15] = 0\n 38857: u8 [a0 + 14] = 0\n 38860: u8 [a0 + 13] = 0\n 38863: u8 [a0 + 12] = 0\n 38866: u8 [a0 + 11] = 0\n 38869: u8 [a0 + 10] = 0\n 38872: u8 [a0 + 9] = 0\n 38875: u8 [a0 + 8] = 0\n 38878: u8 [a0 + 7] = 0\n 38881: u8 [a0 + 6] = 0\n 38884: u8 [a0 + 5] = 0\n 38887: u8 [a0 + 4] = 0\n 38890: u8 [a0 + 3] = 0\n 38893: u8 [a0 + 2] = 0\n 38896: u8 [a0 + 1] = 0\n 38899: u8 [a0 + 0] = 0\n 38901: jump @587 if a1 != 0\n      : @583 (gas: 4)\n 38905: i32 s0 = s1 + 0\n 38907: a1 = 0x20\n 38910: a0 = s0\n 38912: ra = 504, jump @0\n      : @584 [@dyn 252] (gas: 41)\n 38919: u8 [a0 + 31] = 0x16\n 38923: u8 [a0 + 30] = 0\n 38926: u8 [a0 + 29] = 0\n 38929: u8 [a0 + 28] = 0\n 38932: u8 [a0 + 27] = 0\n 38935: u8 [a0 + 26] = 0\n 38938: u8 [a0 + 25] = 0\n 38941: u8 [a0 + 24] = 0\n 38944: u8 [a0 + 23] = 0\n 38947: u8 [a0 + 22] = 0\n 38950: u8 [a0 + 21] = 0\n 38953: u8 [a0 + 20] = 0\n 38956: u8 [a0 + 19] = 0\n 38959: u8 [a0 + 18] = 0\n 38962: u8 [a0 + 17] = 0\n 38965: u8 [a0 + 16] = 0\n 38968: u8 [a0 + 15] = 0\n 38971: u8 [a0 + 14] = 0\n 38974: u8 [a0 + 13] = 0\n 38977: u8 [a0 + 12] = 0\n 38980: u8 [a0 + 11] = 0\n 38983: u8 [a0 + 10] = 0\n 38986: u8 [a0 + 9] = 0\n 38989: u8 [a0 + 8] = 0\n 38992: u8 [a0 + 7] = 0\n 38995: u8 [a0 + 6] = 0\n 38998: u8 [a0 + 5] = 0\n 39001: u8 [a0 + 4] = 0\n 39004: u8 [a0 + 3] = 0\n 39007: u8 [a0 + 2] = 0\n 39010: u8 [a0 + 1] = 0\n 39013: a1 = u64 [sp + 0x20]\n 39016: a2 = u64 [sp + 0x38]\n 39019: a1 = a1 | a2\n 39022: a2 = 0xffffffe0\n 39032: a2 = s1 <u a2\n 39035: a3 = u64 [sp + 0x40]\n 39038: a2 = 0 if a3 != 0\n 39040: a2 = 0 if a1 != 0\n 39042: u8 [a0 + 0] = 0\n 39044: jump @587 if a2 == 0\n      : @585 (gas: 3)\n 39048: i32 a0 = s0 + 0x20\n 39051: a1 = 0x20\n 39054: ra = 506, jump @0\n      : @586 [@dyn 253] (gas: 55)\n 39061: u8 [a0 + 31] = 0\n 39064: u8 [a0 + 30] = 0\n 39067: u8 [a0 + 29] = 0\n 39070: u8 [a0 + 28] = 0\n 39073: u8 [a0 + 27] = 0\n 39076: u8 [a0 + 26] = 0\n 39079: u8 [a0 + 25] = 0\n 39082: u8 [a0 + 24] = 0\n 39085: u8 [a0 + 23] = 0\n 39088: u8 [a0 + 22] = 0\n 39091: u8 [a0 + 21] = 0x6c\n 39095: u8 [a0 + 20] = 0x6c\n 39099: u8 [a0 + 19] = 0x61\n 39103: u8 [a0 + 18] = 0x63\n 39107: a5 = 0x20\n 39110: u8 [a0 + 0x11] = a5\n 39113: u8 [a0 + 16] = 0x74\n 39117: u8 [a0 + 15] = 0x6e\n 39121: u8 [a0 + 14] = 0x61\n 39125: u8 [a0 + 13] = 0x72\n 39129: u8 [a0 + 12] = 0x74\n 39133: u8 [a0 + 11] = 0x6e\n 39137: u8 [a0 + 10] = 0x65\n 39141: u8 [a0 + 9] = 0x65\n 39145: u8 [a0 + 8] = 0x72\n 39149: u8 [a0 + 0x7] = a5\n 39152: u8 [a0 + 6] = 0x3a\n 39156: u8 [a0 + 5] = 0x77\n 39160: u8 [a0 + 4] = 0x6f\n 39164: u8 [a0 + 3] = 0x72\n 39168: u8 [a0 + 2] = 0x63\n 39172: u8 [a0 + 1] = 0x73\n 39176: u8 [a0 + 0] = 0x45\n 39179: a1 = u64 [sp]\n 39181: a0 = a1 + 0x60\n 39184: a1 = a0 <u a1\n 39187: a3 = u64 [sp + 0x8]\n 39190: a2 = a3 + a1\n 39193: a3 = a2 <u a3\n 39196: a3 = a1 if a1 == 0\n 39199: a1 = u64 [sp + 0x10]\n 39202: a3 = a3 + a1\n 39205: a1 = a3 <u a1\n 39208: a4 = u64 [sp + 0x18]\n 39211: a1 = a1 + a4\n 39214: a4 = u64 [sp + 0x28]\n 39217: u64 [a4] = a0\n 39219: u64 [a4 + 0x8] = a2\n 39222: u64 [a4 + 0x10] = a3\n 39225: u64 [a4 + 0x18] = a1\n 39228: ra = u64 [sp + 0x58]\n 39231: s0 = u64 [sp + 0x50]\n 39234: s1 = u64 [sp + 0x48]\n 39237: sp = sp + 0x60\n 39240: ret\n      : @587 (gas: 1)\n 39242: trap\n      : @588 (gas: 63)\n 39243: sp = sp + 0xfffffffffffffe00\n 39247: u64 [sp + 0x1f8] = ra\n 39251: u64 [sp + 0x1f0] = s0\n 39255: u64 [sp + 0x1e8] = s1\n 39259: s0 = sp + 0x200\n 39263: sp = sp & 0xffffffffffffffe0\n 39266: a5 = u64 [a4 + 0x18]\n 39269: u64 [sp] = a5\n 39271: a5 = u64 [a4 + 0x10]\n 39274: u64 [sp + 0x8] = a5\n 39277: a5 = u64 [a4 + 0x8]\n 39280: u64 [sp + 0x10] = a5\n 39283: a4 = u64 [a4]\n 39285: u64 [sp + 0x18] = a4\n 39288: a4 = u64 [a3 + 0x18]\n 39291: u64 [sp + 0x20] = a4\n 39294: a4 = u64 [a3 + 0x10]\n 39297: u64 [sp + 0x28] = a4\n 39300: a4 = u64 [a3 + 0x8]\n 39303: u64 [sp + 0x30] = a4\n 39306: a3 = u64 [a3]\n 39308: u64 [sp + 0x38] = a3\n 39311: a3 = u64 [a2 + 0x18]\n 39314: u64 [sp + 0x40] = a3\n 39317: a3 = u64 [a2 + 0x10]\n 39320: u64 [sp + 0x48] = a3\n 39323: a3 = u64 [a2 + 0x8]\n 39326: u64 [sp + 0x50] = a3\n 39329: a2 = u64 [a2]\n 39331: u64 [sp + 0x58] = a2\n 39334: a2 = u64 [a1 + 0x18]\n 39337: u64 [sp + 0x60] = a2\n 39340: a2 = u64 [a1 + 0x10]\n 39343: u64 [sp + 0x68] = a2\n 39346: a2 = u64 [a1 + 0x8]\n 39349: u64 [sp + 0x70] = a2\n 39352: a1 = u64 [a1]\n 39354: u64 [sp + 0x78] = a1\n 39357: a1 = u64 [a0 + 0x18]\n 39360: u64 [sp + 0x80] = a1\n 39364: a1 = u64 [a0 + 0x10]\n 39367: u64 [sp + 0x88] = a1\n 39371: a1 = u64 [a0 + 0x8]\n 39374: u64 [sp + 0x90] = a1\n 39378: a0 = u64 [a0]\n 39380: u64 [sp + 0x98] = a0\n 39384: u64 [sp + 440] = 0\n 39388: u64 [sp + 432] = 0\n 39392: u64 [sp + 424] = 0\n 39396: s1 = 0x5\n 39399: u64 [sp + 0x1a0] = s1\n 39403: u64 [sp + 472] = 0\n 39407: u64 [sp + 464] = 0\n 39411: u64 [sp + 456] = 0\n 39415: u64 [sp + 448] = 0\n 39419: u32 [sp + 384] = 0x20\n 39424: i32 a1 = sp + 0x1a0\n 39428: i32 a3 = sp + 0x1c0\n 39432: i32 a4 = sp + 0x180\n 39436: a2 = 0xffffffffffffffff\n 39439: a0 = 0\n 39441: ecalli 7 // 'get_storage'\n 39443: fallthrough\n      : @589 (gas: 9)\n 39444: a0 = u64 [sp + 0x1d8]\n 39448: a1 = u64 [sp + 0x1c8]\n 39452: a2 = u64 [sp + 0x1c0]\n 39456: a3 = u64 [sp + 0x1d0]\n 39460: a0 = a0 | a1\n 39463: a1 = a2 ^ 0x1\n 39466: a1 = a1 | a3\n 39469: a0 = a0 | a1\n 39472: jump @592 if a0 != 0\n      : @590 (gas: 142)\n 39476: u64 [sp + 440] = 0\n 39480: u64 [sp + 432] = 0\n 39484: u64 [sp + 424] = 0\n 39488: u64 [sp + 416] = 0x5\n 39493: u64 [sp + 472] = 0\n 39497: u64 [sp + 464] = 0\n 39501: u64 [sp + 456] = 0\n 39505: u64 [sp + 448] = 0\n 39509: u32 [sp + 384] = 0x20\n 39514: i32 a1 = sp + 0x1a0\n 39518: i32 a3 = sp + 0x1c0\n 39522: i32 a4 = sp + 0x180\n 39526: a2 = 0xffffffffffffffff\n 39529: a0 = 0\n 39531: ecalli 7 // 'get_storage'\n 39533: u64 [sp + 440] = 0\n 39537: u64 [sp + 432] = 0\n 39541: u64 [sp + 424] = 0\n 39545: u64 [sp + 416] = 0x5\n 39550: u64 [sp + 472] = 0\n 39554: u64 [sp + 464] = 0\n 39558: u64 [sp + 456] = 0\n 39562: u64 [sp + 448] = 0x2\n 39567: i32 a1 = sp + 0x1a0\n 39571: i32 a3 = sp + 0x1c0\n 39575: a2 = 0xffffffffffffffff\n 39578: a4 = 0x20\n 39581: a0 = 0\n 39583: ecalli 15 // 'set_storage'\n 39585: a0 = u64 [sp]\n 39587: u64 [sp + 0xb8] = a0\n 39591: a0 = u64 [sp + 0x8]\n 39594: u64 [sp + 0xb0] = a0\n 39598: a0 = u64 [sp + 0x10]\n 39601: u64 [sp + 0xa8] = a0\n 39605: a0 = u64 [sp + 0x18]\n 39608: u64 [sp + 0xa0] = a0\n 39612: a0 = u64 [sp + 0x20]\n 39615: u64 [sp + 0xd8] = a0\n 39619: a0 = u64 [sp + 0x28]\n 39622: u64 [sp + 0xd0] = a0\n 39626: a0 = u64 [sp + 0x30]\n 39629: u64 [sp + 0xc8] = a0\n 39633: a0 = u64 [sp + 0x38]\n 39636: u64 [sp + 0xc0] = a0\n 39640: a0 = u64 [sp + 0x40]\n 39643: u64 [sp + 0xf8] = a0\n 39647: a0 = u64 [sp + 0x48]\n 39650: u64 [sp + 0xf0] = a0\n 39654: a0 = u64 [sp + 0x50]\n 39657: u64 [sp + 0xe8] = a0\n 39661: a0 = u64 [sp + 0x58]\n 39664: u64 [sp + 0xe0] = a0\n 39668: a0 = u64 [sp + 0x60]\n 39671: u64 [sp + 0x118] = a0\n 39675: a0 = u64 [sp + 0x68]\n 39678: u64 [sp + 0x110] = a0\n 39682: a0 = u64 [sp + 0x70]\n 39685: u64 [sp + 0x108] = a0\n 39689: a0 = u64 [sp + 0x78]\n 39692: u64 [sp + 0x100] = a0\n 39696: a0 = u64 [sp + 0x80]\n 39700: u64 [sp + 0x138] = a0\n 39704: a0 = u64 [sp + 0x88]\n 39708: u64 [sp + 0x130] = a0\n 39712: a0 = u64 [sp + 0x90]\n 39716: u64 [sp + 0x128] = a0\n 39720: a0 = sp + 0x120\n 39724: a1 = sp + 0x100\n 39728: a2 = sp + 0xe0\n 39732: a3 = sp + 0xc0\n 39736: a4 = sp + 0xa0\n 39740: a5 = u64 [sp + 0x98]\n 39744: u64 [sp + 0x120] = a5\n 39748: ra = 0x1fc\n 39752: sp = sp + 0xfffffffffffffde0\n 39756: u64 [sp + 0x218] = ra\n 39760: u64 [sp + 0x210] = s0\n 39764: u64 [sp + 520] = 0x5\n 39769: s0 = sp + 0x220\n 39773: sp = sp & 0xffffffffffffffe0\n 39776: a5 = u64 [a4 + 0x18]\n 39779: u64 [sp + 0x88] = a5\n 39783: a5 = u64 [a4 + 0x10]\n 39786: u64 [sp + 0x68] = a5\n 39789: a5 = u64 [a4 + 0x8]\n 39792: u64 [sp + 0x48] = a5\n 39795: a4 = u64 [a4]\n 39797: u64 [sp + 0x28] = a4\n 39800: a4 = u64 [a3 + 0x18]\n 39803: u64 [sp + 0x80] = a4\n 39807: a4 = u64 [a3 + 0x10]\n 39810: u64 [sp + 0x58] = a4\n 39813: a4 = u64 [a3 + 0x8]\n 39816: u64 [sp + 0x38] = a4\n 39819: a3 = u64 [a3]\n 39821: u64 [sp + 0x18] = a3\n 39824: a3 = u64 [a2 + 0x18]\n 39827: u64 [sp + 0x70] = a3\n 39830: a3 = u64 [a2 + 0x10]\n 39833: u64 [sp + 0x50] = a3\n 39836: a3 = u64 [a2 + 0x8]\n 39839: u64 [sp + 0x30] = a3\n 39842: a2 = u64 [a2]\n 39844: u64 [sp + 0x10] = a2\n 39847: a2 = u64 [a1 + 0x18]\n 39850: u64 [sp + 0x60] = a2\n 39853: a2 = u64 [a1 + 0x10]\n 39856: u64 [sp + 0x40] = a2\n 39859: a2 = u64 [a1 + 0x8]\n 39862: u64 [sp + 0x20] = a2\n 39865: a1 = u64 [a1]\n 39867: u64 [sp + 0x8] = a1\n 39870: a1 = u64 [a0]\n 39872: u64 [sp + 0xb0] = a1\n 39876: a1 = u64 [a0 + 0x8]\n 39879: u64 [sp + 0xb8] = a1\n 39883: a1 = u64 [a0 + 0x10]\n 39886: u64 [sp + 0x90] = a1\n 39890: s1 = u64 [a0 + 0x18]\n 39893: i32 a0 = sp + 0x1a0\n 39897: ecalli 5 // 'caller'\n 39899: a0 = u64 [sp + 0x1a8]\n 39903: a1 = u64 [sp + 0x1a0]\n 39907: a2 = i32 [sp + 0x1b0]\n 39911: a0 = reverse a0\n 39913: a3 = a0 >> 0x20\n 39916: a1 = reverse a1\n 39918: a4 = a1 << 0x20\n 39921: a3 = a3 | a4\n 39924: u64 [sp + 0xa8] = a3\n 39928: a0 = a0 << 0x20\n 39931: a2 = reverse a2\n 39933: a2 = a2 >> 0x20\n 39936: a0 = a0 | a2\n 39939: u64 [sp + 0xa0] = a0\n 39943: a1 = a1 >> 0x20\n 39946: u64 [sp + 0x98] = a1\n 39950: a1 = 0x20\n 39953: a0 = 0\n 39955: ra = 0x214\n 39959: jump @0\n      : @591 [@dyn 254] (gas: 35)\n 39963: u64 [sp + 440] = 0\n 39967: u64 [sp + 432] = 0\n 39971: u64 [sp + 424] = 0\n 39975: u64 [sp + 0x1a0] = s1\n 39979: u64 [sp + 472] = 0\n 39983: u64 [sp + 464] = 0\n 39987: u64 [sp + 456] = 0\n 39991: u64 [sp + 448] = 0\n 39995: u32 [sp + 384] = 0x20\n 40000: i32 a1 = sp + 0x1a0\n 40004: i32 a3 = sp + 0x1c0\n 40008: i32 a4 = sp + 0x180\n 40012: a2 = 0xffffffffffffffff\n 40015: a0 = 0\n 40017: ecalli 7 // 'get_storage'\n 40019: u64 [sp + 440] = 0\n 40023: u64 [sp + 432] = 0\n 40027: u64 [sp + 424] = 0\n 40031: u64 [sp + 0x1a0] = s1\n 40035: u64 [sp + 472] = 0\n 40039: u64 [sp + 464] = 0\n 40043: u64 [sp + 456] = 0\n 40047: u64 [sp + 448] = 0x1\n 40052: i32 a1 = sp + 0x1a0\n 40056: i32 a3 = sp + 0x1c0\n 40060: a2 = 0xffffffffffffffff\n 40063: a4 = 0x20\n 40066: a0 = 0\n 40068: ecalli 15 // 'set_storage'\n 40070: sp = s0 + 0xfffffffffffffe00\n 40074: ra = u64 [sp + 0x1f8]\n 40078: s0 = u64 [sp + 0x1f0]\n 40082: s1 = u64 [sp + 0x1e8]\n 40086: sp = sp + 0x200\n 40090: ret\n      : @592 (gas: 3)\n 40092: a0 = 0x40\n 40095: a1 = 0x20\n 40098: ra = 510, jump @0\n      : @593 [@dyn 255] (gas: 103)\n 40105: a1 = u8 [a0 + 0x11]\n 40108: a2 = u8 [a0 + 0x10]\n 40111: a3 = u8 [a0 + 0x12]\n 40114: a4 = u8 [a0 + 0x13]\n 40117: a1 = a1 << 0x8\n 40120: a1 = a1 | a2\n 40123: a3 = a3 << 0x10\n 40126: a4 = a4 << 0x18\n 40129: a3 = a3 | a4\n 40132: a1 = a1 | a3\n 40135: a2 = u8 [a0 + 0x15]\n 40138: a3 = u8 [a0 + 0x14]\n 40141: a4 = u8 [a0 + 0x16]\n 40144: a5 = u8 [a0 + 0x17]\n 40147: a2 = a2 << 0x8\n 40150: a2 = a2 | a3\n 40153: a4 = a4 << 0x10\n 40156: a5 = a5 << 0x18\n 40159: a4 = a4 | a5\n 40162: a2 = a2 | a4\n 40165: a2 = a2 << 0x20\n 40168: t0 = a2 | a1\n 40171: a2 = u8 [a0 + 0x1]\n 40174: a3 = u8 [a0]\n 40176: a4 = u8 [a0 + 0x2]\n 40179: a5 = u8 [a0 + 0x3]\n 40182: a2 = a2 << 0x8\n 40185: a2 = a2 | a3\n 40188: a4 = a4 << 0x10\n 40191: a5 = a5 << 0x18\n 40194: a4 = a4 | a5\n 40197: a2 = a2 | a4\n 40200: a3 = u8 [a0 + 0x5]\n 40203: a4 = u8 [a0 + 0x4]\n 40206: a5 = u8 [a0 + 0x6]\n 40209: s1 = u8 [a0 + 0x7]\n 40212: a3 = a3 << 0x8\n 40215: a3 = a3 | a4\n 40218: a5 = a5 << 0x10\n 40221: s1 = s1 << 0x18\n 40224: a5 = a5 | s1\n 40227: a3 = a3 | a5\n 40230: a3 = a3 << 0x20\n 40233: a2 = a2 | a3\n 40236: a3 = u8 [a0 + 0x19]\n 40239: a4 = u8 [a0 + 0x18]\n 40242: a5 = u8 [a0 + 0x1a]\n 40245: s1 = u8 [a0 + 0x1b]\n 40248: a3 = a3 << 0x8\n 40251: a3 = a3 | a4\n 40254: a5 = a5 << 0x10\n 40257: s1 = s1 << 0x18\n 40260: a5 = a5 | s1\n 40263: a3 = a3 | a5\n 40266: a4 = u8 [a0 + 0x1d]\n 40269: a5 = u8 [a0 + 0x1c]\n 40272: s1 = u8 [a0 + 0x1e]\n 40275: a1 = u8 [a0 + 0x1f]\n 40278: a4 = a4 << 0x8\n 40281: a4 = a4 | a5\n 40284: s1 = s1 << 0x10\n 40287: a1 = a1 << 0x18\n 40290: a1 = a1 | s1\n 40293: a1 = a1 | a4\n 40296: a1 = a1 << 0x20\n 40299: a3 = a3 | a1\n 40302: a1 = u8 [a0 + 0x9]\n 40305: a4 = u8 [a0 + 0x8]\n 40308: a5 = u8 [a0 + 0xa]\n 40311: s1 = u8 [a0 + 0xb]\n 40314: a1 = a1 << 0x8\n 40317: a1 = a1 | a4\n 40320: a5 = a5 << 0x10\n 40323: s1 = s1 << 0x18\n 40326: a5 = a5 | s1\n 40329: a1 = a1 | a5\n 40332: a4 = u8 [a0 + 0xd]\n 40335: a5 = u8 [a0 + 0xc]\n 40338: s1 = u8 [a0 + 0xe]\n 40341: a0 = u8 [a0 + 0xf]\n 40344: a4 = a4 << 0x8\n 40347: a4 = a4 | a5\n 40350: s1 = s1 << 0x10\n 40353: a0 = a0 << 0x18\n 40356: a0 = a0 | s1\n 40359: a0 = a0 | a4\n 40362: a0 = a0 << 0x20\n 40365: a0 = a0 | a1\n 40368: s1 = reverse a0\n 40370: a1 = reverse a3\n 40372: a2 = reverse a2\n 40374: a0 = reverse t0\n 40376: u64 [sp + 0x98] = a0\n 40380: u64 [sp + 0x90] = a2\n 40384: a0 = a0 | a2\n 40387: a2 = a1\n 40389: a1 = a1 | s1\n 40392: a1 = a1 | a0\n 40395: a1 = a1 >> 0x20\n 40398: a0 = a0 | s1\n 40401: a0 = a0 << 0x20\n 40404: a0 = a0 | a1\n 40407: jump @597 if a0 != 0\n      : @594 (gas: 5)\n 40411: u64 [sp + 0x88] = a2\n 40415: i32 a0 = a2 + 0\n 40417: a1 = 0x20\n 40420: u64 [sp + 0x80] = a0\n 40424: ra = 512, jump @0\n      : @595 [@dyn 256] (gas: 50)\n 40431: u8 [a0 + 31] = 0\n 40434: u8 [a0 + 30] = 0\n 40437: u8 [a0 + 29] = 0\n 40440: u8 [a0 + 28] = 0\n 40443: u8 [a0 + 27] = 0\n 40446: u8 [a0 + 26] = 0\n 40449: u8 [a0 + 25] = 0\n 40452: u8 [a0 + 24] = 0\n 40455: u8 [a0 + 23] = 0\n 40458: u8 [a0 + 22] = 0\n 40461: u8 [a0 + 21] = 0\n 40464: u8 [a0 + 20] = 0\n 40467: u8 [a0 + 19] = 0\n 40470: u8 [a0 + 18] = 0\n 40473: u8 [a0 + 17] = 0\n 40476: u8 [a0 + 16] = 0\n 40479: u8 [a0 + 15] = 0\n 40482: u8 [a0 + 14] = 0\n 40485: u8 [a0 + 13] = 0\n 40488: u8 [a0 + 12] = 0\n 40491: u8 [a0 + 11] = 0\n 40494: u8 [a0 + 10] = 0\n 40497: u8 [a0 + 9] = 0\n 40500: u8 [a0 + 8] = 0\n 40503: u8 [a0 + 7] = 0\n 40506: u8 [a0 + 6] = 0\n 40509: u8 [a0 + 5] = 0\n 40512: u8 [a0 + 4] = 0\n 40515: u8 [a0 + 3] = 0xa0\n 40520: u8 [a0 + 2] = 0x79\n 40524: u8 [a0 + 1] = 0xc3\n 40529: u8 [a0 + 0] = 0x8\n 40532: a1 = u64 [sp + 0x88]\n 40536: a0 = a1 + 0x4\n 40539: a1 = a0 <u a1\n 40542: a3 = u64 [sp + 0x98]\n 40546: a2 = a3 + a1\n 40549: a3 = a2 <u a3\n 40552: a3 = a1 if a1 == 0\n 40555: a3 = a3 + s1\n 40558: a1 = a3 <u s1\n 40561: a4 = u64 [sp + 0x90]\n 40565: a4 = a4 + a1\n 40568: u64 [sp + 0x148] = a2\n 40572: u64 [sp + 0x140] = a0\n 40576: u64 [sp + 0x150] = a3\n 40580: a0 = sp + 0x160\n 40584: a1 = sp + 0x140\n 40588: u64 [sp + 0x158] = a4\n 40592: ra = 514, jump @580\n      : @596 [@dyn 257] (gas: 30)\n 40598: a0 = u64 [sp + 0x168]\n 40602: t0 = u64 [sp + 0x178]\n 40606: t1 = u64 [sp + 0x160]\n 40610: a3 = u64 [sp + 0x170]\n 40614: a1 = u64 [sp + 0x98]\n 40618: a4 = a0 ^ a1\n 40621: a5 = a0 <u a1\n 40624: t2 = a1\n 40626: a2 = u64 [sp + 0x88]\n 40630: a1 = t1 <u a2\n 40633: a5 = a1 if a4 == 0\n 40636: a4 = a3 - s1\n 40639: a3 = a3 <u s1\n 40642: s1 = u64 [sp + 0x90]\n 40646: s1 = t0 - s1\n 40649: s1 = s1 - a3\n 40652: a3 = a4 <u a5\n 40655: s1 = s1 - a3\n 40658: a4 = a4 - a5\n 40661: a0 = a0 - t2\n 40664: a1 = a0 - a1\n 40667: a0 = t1 - a2\n 40670: a1 = a1 | s1\n 40673: a2 = a0 | a4\n 40676: a2 = a2 | a1\n 40679: a1 = a1 | a4\n 40682: a2 = a2 >> 0x20\n 40685: a1 = a1 << 0x20\n 40688: a1 = a1 | a2\n 40691: jump @598 if a1 == 0\n      : @597 (gas: 1)\n 40694: trap\n      : @598 (gas: 4)\n 40695: i32 s1 = a0 + 0\n 40697: a0 = u64 [sp + 0x80]\n 40701: a1 = s1\n 40703: ra = 516, jump @0\n      : @599 [@dyn 258] (gas: 6)\n 40710: i32 a1 = a0 + 0\n 40712: a0 = 0x1\n 40715: a2 = s1\n 40717: ra = 0x206\n 40721: ecalli 13 // 'seal_return'\n 40723: fallthrough\n      : @600 [@dyn 259] (gas: 18)\n 40724: sp = sp + 0xffffffffffffffc8\n 40727: u64 [sp + 0x30] = ra\n 40730: u64 [sp + 0x28] = s0\n 40733: u64 [sp + 0x20] = s1\n 40736: s1 = u64 [a0 + 0x10]\n 40739: a3 = u64 [a0 + 0x18]\n 40742: a1 = u64 [a0 + 0x8]\n 40745: a2 = u64 [a0]\n 40747: u64 [sp + 0x18] = a1\n 40750: u64 [sp + 0x10] = a3\n 40753: a0 = a1 | a3\n 40756: a1 = a2 | s1\n 40759: a1 = a1 | a0\n 40762: a1 = a1 >> 0x20\n 40765: a0 = a0 | s1\n 40768: a0 = a0 << 0x20\n 40771: a0 = a0 | a1\n 40774: jump @605 if a0 != 0\n      : @601 (gas: 6)\n 40778: i32 a0 = a2 + 0\n 40780: a1 = 0x20\n 40783: s0 = 0x20\n 40786: u64 [sp] = a0\n 40788: u64 [sp + 0x8] = a2\n 40791: ra = 520, jump @0\n      : @602 [@dyn 260] (gas: 43)\n 40798: u8 [a0 + 31] = 0x64\n 40802: u8 [a0 + 30] = 0x69\n 40806: u8 [a0 + 29] = 0x76\n 40810: u8 [a0 + 28] = 0x6f\n 40814: u8 [a0 + 27] = 0x72\n 40818: u8 [a0 + 26] = 0x70\n 40822: u8 [a0 + 0x19] = s0\n 40825: a5 = 0x65\n 40828: u8 [a0 + 0x18] = a5\n 40831: u8 [a0 + 23] = 0x68\n 40835: u8 [a0 + 22] = 0x74\n 40839: u8 [a0 + 0x15] = s0\n 40842: u8 [a0 + 20] = 0x74\n 40846: u8 [a0 + 19] = 0x6f\n 40850: u8 [a0 + 18] = 0x6e\n 40854: u8 [a0 + 0x11] = s0\n 40857: u8 [a0 + 16] = 0x73\n 40861: u8 [a0 + 15] = 0x69\n 40865: u8 [a0 + 0xe] = s0\n 40868: u8 [a0 + 13] = 0x72\n 40872: u8 [a0 + 0xc] = a5\n 40875: u8 [a0 + 11] = 0x6c\n 40879: u8 [a0 + 10] = 0x6c\n 40883: u8 [a0 + 9] = 0x61\n 40887: u8 [a0 + 8] = 0x63\n 40891: u8 [a0 + 0x7] = s0\n 40894: s0 = 0x72\n 40897: u8 [a0 + 6] = 0x3a\n 40901: u8 [a0 + 5] = 0x77\n 40905: u8 [a0 + 4] = 0x6f\n 40909: u8 [a0 + 0x3] = s0\n 40912: u8 [a0 + 2] = 0x63\n 40916: u8 [a0 + 1] = 0x73\n 40920: a2 = u64 [sp + 0x10]\n 40923: a2 = a2 | s1\n 40926: a3 = 0xffffffe0\n 40936: a4 = u64 [sp + 0x8]\n 40939: a3 = a4 <u a3\n 40942: a4 = u64 [sp + 0x18]\n 40945: a3 = 0 if a4 != 0\n 40947: a3 = 0 if a2 != 0\n 40949: u8 [a0 + 0] = 0x45\n 40952: jump @605 if a3 == 0\n      : @603 (gas: 4)\n 40956: a0 = u64 [sp]\n 40958: i32 a0 = a0 + 0x20\n 40961: a1 = 0x20\n 40964: ra = 522, jump @0\n      : @604 [@dyn 261] (gas: 38)\n 40971: u8 [a0 + 31] = 0\n 40974: u8 [a0 + 30] = 0\n 40977: u8 [a0 + 29] = 0\n 40980: u8 [a0 + 28] = 0\n 40983: u8 [a0 + 27] = 0\n 40986: u8 [a0 + 26] = 0\n 40989: u8 [a0 + 25] = 0\n 40992: u8 [a0 + 24] = 0\n 40995: u8 [a0 + 23] = 0\n 40998: u8 [a0 + 22] = 0\n 41001: u8 [a0 + 21] = 0\n 41004: u8 [a0 + 20] = 0\n 41007: u8 [a0 + 19] = 0\n 41010: u8 [a0 + 18] = 0\n 41013: u8 [a0 + 17] = 0\n 41016: u8 [a0 + 16] = 0\n 41019: u8 [a0 + 15] = 0\n 41022: u8 [a0 + 14] = 0\n 41025: u8 [a0 + 13] = 0\n 41028: u8 [a0 + 12] = 0\n 41031: u8 [a0 + 11] = 0\n 41034: u8 [a0 + 10] = 0\n 41037: u8 [a0 + 9] = 0\n 41040: u8 [a0 + 8] = 0\n 41043: u8 [a0 + 7] = 0\n 41046: u8 [a0 + 6] = 0\n 41049: u8 [a0 + 5] = 0\n 41052: u8 [a0 + 4] = 0\n 41055: u8 [a0 + 3] = 0\n 41058: u8 [a0 + 2] = 0\n 41061: u8 [a0 + 0x1] = s0\n 41064: a1 = 0x65\n 41067: u8 [a0] = a1\n 41069: ra = u64 [sp + 0x30]\n 41072: s0 = u64 [sp + 0x28]\n 41075: s1 = u64 [sp + 0x20]\n 41078: sp = sp + 0x38\n 41081: ret\n      : @605 (gas: 1)\n 41083: trap\n      : @606 (gas: 17)\n 41084: sp = sp + 0xffffffffffffffa0\n 41087: u64 [sp + 0x58] = ra\n 41090: u64 [sp + 0x50] = s0\n 41093: u64 [sp + 0x48] = s1\n 41096: a3 = u64 [a1 + 0x18]\n 41099: a4 = u64 [a1 + 0x10]\n 41102: a5 = u64 [a1 + 0x8]\n 41105: s1 = u64 [a1]\n 41107: a1 = a5 | a3\n 41110: a2 = s1 | a4\n 41113: a2 = a2 | a1\n 41116: a2 = a2 >> 0x20\n 41119: a1 = a1 | a4\n 41122: a1 = a1 << 0x20\n 41125: a1 = a1 | a2\n 41128: u64 [sp + 0x28] = a0\n 41131: jump @615 if a1 != 0\n      : @607 (gas: 19)\n 41135: a0 = s1 + 0x20\n 41138: u64 [sp + 0x40] = a0\n 41141: a0 = a0 <u s1\n 41144: a1 = a5 + a0\n 41147: u64 [sp + 0x38] = a1\n 41150: u64 [sp + 0x10] = a5\n 41153: s0 = a1 <u a5\n 41156: s0 = a0 if a0 == 0\n 41159: s0 = s0 + a4\n 41162: u64 [sp + 0x18] = a4\n 41165: a0 = s0 <u a4\n 41168: u64 [sp + 0x20] = a3\n 41171: a0 = a0 + a3\n 41174: u64 [sp + 0x30] = a0\n 41177: u64 [sp + 0x8] = s1\n 41180: i32 a0 = s1 + 0\n 41182: a1 = 0x20\n 41185: s1 = 0x20\n 41188: ra = 524, jump @0\n      : @608 [@dyn 262] (gas: 43)\n 41195: u8 [a0 + 0x1f] = s1\n 41198: a1 = u64 [sp + 0x40]\n 41201: a1 = a1 | s0\n 41204: a2 = u64 [sp + 0x38]\n 41207: a3 = u64 [sp + 0x30]\n 41210: a2 = a2 | a3\n 41213: a1 = a1 | a2\n 41216: a1 = a1 >> 0x20\n 41219: a2 = a2 | s0\n 41222: a2 = a2 << 0x20\n 41225: a1 = a1 | a2\n 41228: u8 [a0 + 30] = 0\n 41231: u8 [a0 + 29] = 0\n 41234: u8 [a0 + 28] = 0\n 41237: u8 [a0 + 27] = 0\n 41240: u8 [a0 + 26] = 0\n 41243: u8 [a0 + 25] = 0\n 41246: u8 [a0 + 24] = 0\n 41249: u8 [a0 + 23] = 0\n 41252: u8 [a0 + 22] = 0\n 41255: u8 [a0 + 21] = 0\n 41258: u8 [a0 + 20] = 0\n 41261: u8 [a0 + 19] = 0\n 41264: u8 [a0 + 18] = 0\n 41267: u8 [a0 + 17] = 0\n 41270: u8 [a0 + 16] = 0\n 41273: u8 [a0 + 15] = 0\n 41276: u8 [a0 + 14] = 0\n 41279: u8 [a0 + 13] = 0\n 41282: u8 [a0 + 12] = 0\n 41285: u8 [a0 + 11] = 0\n 41288: u8 [a0 + 10] = 0\n 41291: u8 [a0 + 9] = 0\n 41294: u8 [a0 + 8] = 0\n 41297: u8 [a0 + 7] = 0\n 41300: u8 [a0 + 6] = 0\n 41303: u8 [a0 + 5] = 0\n 41306: u8 [a0 + 4] = 0\n 41309: u8 [a0 + 3] = 0\n 41312: u8 [a0 + 2] = 0\n 41315: u8 [a0 + 1] = 0\n 41318: u8 [a0 + 0] = 0\n 41320: jump @615 if a1 != 0\n      : @609 (gas: 6)\n 41324: s1 = s0\n 41326: s0 = u64 [sp + 0x40]\n 41329: i32 a0 = s0 + 0\n 41331: a1 = 0x20\n 41334: u64 [sp] = a0\n 41336: ra = 526, jump @0\n      : @610 [@dyn 263] (gas: 42)\n 41343: u8 [a0 + 31] = 0x22\n 41347: u8 [a0 + 30] = 0\n 41350: u8 [a0 + 29] = 0\n 41353: u8 [a0 + 28] = 0\n 41356: u8 [a0 + 27] = 0\n 41359: u8 [a0 + 26] = 0\n 41362: u8 [a0 + 25] = 0\n 41365: u8 [a0 + 24] = 0\n 41368: u8 [a0 + 23] = 0\n 41371: u8 [a0 + 22] = 0\n 41374: u8 [a0 + 21] = 0\n 41377: u8 [a0 + 20] = 0\n 41380: u8 [a0 + 19] = 0\n 41383: u8 [a0 + 18] = 0\n 41386: u8 [a0 + 17] = 0\n 41389: u8 [a0 + 16] = 0\n 41392: u8 [a0 + 15] = 0\n 41395: u8 [a0 + 14] = 0\n 41398: u8 [a0 + 13] = 0\n 41401: u8 [a0 + 12] = 0\n 41404: u8 [a0 + 11] = 0\n 41407: u8 [a0 + 10] = 0\n 41410: u8 [a0 + 9] = 0\n 41413: u8 [a0 + 8] = 0\n 41416: u8 [a0 + 7] = 0\n 41419: u8 [a0 + 6] = 0\n 41422: u8 [a0 + 5] = 0\n 41425: u8 [a0 + 4] = 0\n 41428: u8 [a0 + 3] = 0\n 41431: u8 [a0 + 2] = 0\n 41434: u8 [a0 + 1] = 0\n 41437: a1 = u64 [sp + 0x30]\n 41440: a3 = s1 | a1\n 41443: s1 = 0x100000000\n 41453: a1 = 0xffffffe0\n 41463: a1 = s0 <u a1\n 41466: a2 = u64 [sp + 0x38]\n 41469: a1 = 0 if a2 != 0\n 41471: u64 [sp + 0x30] = a3\n 41474: a1 = 0 if a3 != 0\n 41476: u8 [a0 + 0] = 0\n 41478: jump @615 if a1 == 0\n      : @611 (gas: 4)\n 41482: s0 = u64 [sp]\n 41484: i32 a0 = s0 + 0x20\n 41487: a1 = 0x20\n 41490: ra = 528, jump @0\n      : @612 [@dyn 264] (gas: 43)\n 41497: u8 [a0 + 31] = 0x64\n 41501: t0 = 0x69\n 41504: u8 [a0 + 0x1e] = t0\n 41507: u8 [a0 + 29] = 0x76\n 41511: u8 [a0 + 28] = 0x6f\n 41515: a5 = 0x72\n 41518: u8 [a0 + 0x1b] = a5\n 41521: u8 [a0 + 26] = 0x70\n 41525: u8 [a0 + 25] = 0x20\n 41529: u8 [a0 + 24] = 0x65\n 41533: u8 [a0 + 23] = 0x68\n 41537: u8 [a0 + 22] = 0x74\n 41541: u8 [a0 + 21] = 0x20\n 41545: u8 [a0 + 20] = 0x74\n 41549: u8 [a0 + 19] = 0x6f\n 41553: u8 [a0 + 18] = 0x6e\n 41557: u8 [a0 + 17] = 0x20\n 41561: u8 [a0 + 16] = 0x73\n 41565: u8 [a0 + 0xf] = t0\n 41568: u8 [a0 + 14] = 0x20\n 41572: u8 [a0 + 0xd] = a5\n 41575: u8 [a0 + 12] = 0x65\n 41579: u8 [a0 + 11] = 0x6c\n 41583: u8 [a0 + 10] = 0x6c\n 41587: u8 [a0 + 9] = 0x61\n 41591: u8 [a0 + 8] = 0x63\n 41595: u8 [a0 + 7] = 0x20\n 41599: u8 [a0 + 6] = 0x3a\n 41603: a4 = 0x77\n 41606: u8 [a0 + 0x5] = a4\n 41609: u8 [a0 + 4] = 0x6f\n 41613: u8 [a0 + 0x3] = a5\n 41616: u8 [a0 + 2] = 0x63\n 41620: u8 [a0 + 1] = 0x73\n 41624: a2 = s1 + 0xffffffffffffffc0\n 41627: a3 = u64 [sp + 0x40]\n 41630: a2 = a3 <u a2\n 41633: a3 = u64 [sp + 0x38]\n 41636: a2 = 0 if a3 != 0\n 41638: a3 = u64 [sp + 0x30]\n 41641: a2 = 0 if a3 != 0\n 41643: u8 [a0 + 0] = 0x45\n 41646: jump @615 if a2 == 0\n      : @613 (gas: 3)\n 41650: i32 a0 = s0 + 0x40\n 41653: a1 = 0x20\n 41656: ra = 530, jump @0\n      : @614 [@dyn 265] (gas: 54)\n 41663: u8 [a0 + 31] = 0\n 41666: u8 [a0 + 30] = 0\n 41669: u8 [a0 + 29] = 0\n 41672: u8 [a0 + 28] = 0\n 41675: u8 [a0 + 27] = 0\n 41678: u8 [a0 + 26] = 0\n 41681: u8 [a0 + 25] = 0\n 41684: u8 [a0 + 24] = 0\n 41687: u8 [a0 + 23] = 0\n 41690: u8 [a0 + 22] = 0\n 41693: u8 [a0 + 21] = 0\n 41696: u8 [a0 + 20] = 0\n 41699: u8 [a0 + 19] = 0\n 41702: u8 [a0 + 18] = 0\n 41705: u8 [a0 + 17] = 0\n 41708: u8 [a0 + 16] = 0\n 41711: u8 [a0 + 15] = 0\n 41714: u8 [a0 + 14] = 0\n 41717: u8 [a0 + 13] = 0\n 41720: u8 [a0 + 12] = 0\n 41723: u8 [a0 + 11] = 0\n 41726: u8 [a0 + 10] = 0\n 41729: u8 [a0 + 9] = 0\n 41732: u8 [a0 + 8] = 0\n 41735: u8 [a0 + 7] = 0\n 41738: u8 [a0 + 6] = 0\n 41741: u8 [a0 + 5] = 0\n 41744: u8 [a0 + 4] = 0\n 41747: u8 [a0 + 3] = 0\n 41750: u8 [a0 + 2] = 0\n 41753: u8 [a0 + 1] = 0x72\n 41757: u8 [a0 + 0] = 0x65\n 41760: a1 = u64 [sp + 0x8]\n 41763: a0 = a1 + 0x80\n 41767: a1 = a0 <u a1\n 41770: a3 = u64 [sp + 0x10]\n 41773: a2 = a3 + a1\n 41776: a3 = a2 <u a3\n 41779: a3 = a1 if a1 == 0\n 41782: a1 = u64 [sp + 0x18]\n 41785: a3 = a3 + a1\n 41788: a1 = a3 <u a1\n 41791: a4 = u64 [sp + 0x20]\n 41794: a1 = a1 + a4\n 41797: a4 = u64 [sp + 0x28]\n 41800: u64 [a4] = a0\n 41802: u64 [a4 + 0x8] = a2\n 41805: u64 [a4 + 0x10] = a3\n 41808: u64 [a4 + 0x18] = a1\n 41811: ra = u64 [sp + 0x58]\n 41814: s0 = u64 [sp + 0x50]\n 41817: s1 = u64 [sp + 0x48]\n 41820: sp = sp + 0x60\n 41823: ret\n      : @615 (gas: 1)\n 41825: trap\n      : @616 [@dyn 266] (gas: 71)\n 41826: u64 [sp + 0x78] = s1\n 41829: a1 = reverse s1\n 41831: s1 = u64 [sp + 0x90]\n 41835: a2 = reverse s1\n 41837: a3 = u64 [sp + 0xb8]\n 41841: a3 = reverse a3\n 41843: a4 = u64 [sp + 0xb0]\n 41847: a4 = reverse a4\n 41849: a5 = a4 >> 0x38\n 41852: u8 [a0 + 0x1f] = a5\n 41855: a5 = a4 >> 0x30\n 41858: u8 [a0 + 0x1e] = a5\n 41861: a5 = a4 >> 0x28\n 41864: u8 [a0 + 0x1d] = a5\n 41867: a5 = a4 >> 0x20\n 41870: u8 [a0 + 0x1c] = a5\n 41873: a5 = a4 >> 0x18\n 41876: u8 [a0 + 0x1b] = a5\n 41879: a5 = a4 >> 0x10\n 41882: u8 [a0 + 0x1a] = a5\n 41885: a5 = a4 >> 0x8\n 41888: u8 [a0 + 0x19] = a5\n 41891: u8 [a0 + 0x18] = a4\n 41894: a4 = a3 >> 0x38\n 41897: u8 [a0 + 0x17] = a4\n 41900: a4 = a3 >> 0x30\n 41903: u8 [a0 + 0x16] = a4\n 41906: a4 = a3 >> 0x28\n 41909: u8 [a0 + 0x15] = a4\n 41912: a4 = a3 >> 0x20\n 41915: u8 [a0 + 0x14] = a4\n 41918: a4 = a3 >> 0x18\n 41921: u8 [a0 + 0x13] = a4\n 41924: a4 = a3 >> 0x10\n 41927: u8 [a0 + 0x12] = a4\n 41930: a4 = a3 >> 0x8\n 41933: u8 [a0 + 0x11] = a4\n 41936: u8 [a0 + 0x10] = a3\n 41939: a3 = a2 >> 0x38\n 41942: u8 [a0 + 0xf] = a3\n 41945: a3 = a2 >> 0x30\n 41948: u8 [a0 + 0xe] = a3\n 41951: a3 = a2 >> 0x28\n 41954: u8 [a0 + 0xd] = a3\n 41957: a3 = a2 >> 0x20\n 41960: u8 [a0 + 0xc] = a3\n 41963: a3 = a2 >> 0x18\n 41966: u8 [a0 + 0xb] = a3\n 41969: a3 = a2 >> 0x10\n 41972: u8 [a0 + 0xa] = a3\n 41975: a3 = a2 >> 0x8\n 41978: u8 [a0 + 0x9] = a3\n 41981: u8 [a0 + 0x8] = a2\n 41984: a2 = a1 >> 0x38\n 41987: u8 [a0 + 0x7] = a2\n 41990: a2 = a1 >> 0x30\n 41993: u8 [a0 + 0x6] = a2\n 41996: a2 = a1 >> 0x28\n 41999: u8 [a0 + 0x5] = a2\n 42002: a2 = a1 >> 0x20\n 42005: u8 [a0 + 0x4] = a2\n 42008: a2 = a1 >> 0x18\n 42011: u8 [a0 + 0x3] = a2\n 42014: a2 = a1 >> 0x10\n 42017: u8 [a0 + 0x2] = a2\n 42020: a2 = a1 >> 0x8\n 42023: u8 [a0 + 0x1] = a2\n 42026: u8 [a0] = a1\n 42028: a0 = 0x20\n 42031: a1 = 0x20\n 42034: ra = 534, jump @0\n      : @617 [@dyn 267] (gas: 35)\n 42041: u8 [a0 + 31] = 0\n 42044: u8 [a0 + 30] = 0\n 42047: u8 [a0 + 29] = 0\n 42050: u8 [a0 + 28] = 0\n 42053: u8 [a0 + 27] = 0\n 42056: u8 [a0 + 26] = 0\n 42059: u8 [a0 + 25] = 0\n 42062: u8 [a0 + 24] = 0\n 42065: u8 [a0 + 23] = 0\n 42068: u8 [a0 + 22] = 0\n 42071: u8 [a0 + 21] = 0\n 42074: u8 [a0 + 20] = 0\n 42077: u8 [a0 + 19] = 0\n 42080: u8 [a0 + 18] = 0\n 42083: u8 [a0 + 17] = 0\n 42086: u8 [a0 + 16] = 0\n 42089: u8 [a0 + 15] = 0\n 42092: u8 [a0 + 14] = 0\n 42095: u8 [a0 + 13] = 0\n 42098: u8 [a0 + 12] = 0\n 42101: u8 [a0 + 11] = 0\n 42104: u8 [a0 + 10] = 0\n 42107: u8 [a0 + 9] = 0\n 42110: u8 [a0 + 8] = 0\n 42113: u8 [a0 + 7] = 0\n 42116: u8 [a0 + 6] = 0\n 42119: u8 [a0 + 5] = 0\n 42122: u8 [a0 + 4] = 0\n 42125: u8 [a0 + 3] = 0\n 42128: u8 [a0 + 2] = 0\n 42131: u8 [a0 + 1] = 0\n 42134: u8 [a0 + 0] = 0\n 42136: a1 = 0x40\n 42139: a0 = 0\n 42141: ra = 536, jump @0\n      : @618 [@dyn 268] (gas: 28)\n 42148: i32 a0 = a0 + 0\n 42150: i32 a2 = sp + 0x1e0\n 42154: a1 = 0x40\n 42157: ecalli 8 // 'hash_keccak_256'\n 42159: a0 = u64 [sp + 0x1f8]\n 42163: a1 = u64 [sp + 0x1f0]\n 42167: a2 = u64 [sp + 0x1e8]\n 42171: a3 = u64 [sp + 0x1e0]\n 42175: a0 = reverse a0\n 42177: a1 = reverse a1\n 42179: a2 = reverse a2\n 42181: a3 = reverse a3\n 42183: u64 [sp + 0x1d8] = a3\n 42187: u64 [sp + 0x1d0] = a2\n 42191: u64 [sp + 0x1c8] = a1\n 42195: u64 [sp + 0x1c0] = a0\n 42199: u64 [sp + 504] = 0\n 42203: u64 [sp + 496] = 0\n 42207: u64 [sp + 488] = 0\n 42211: u64 [sp + 480] = 0\n 42215: u32 [sp + 512] = 0x20\n 42220: i32 a1 = sp + 0x1c0\n 42224: i32 a3 = sp + 0x1e0\n 42228: i32 a4 = sp + 0x200\n 42232: a2 = 0xffffffffffffffff\n 42235: a0 = 0\n 42237: ecalli 7 // 'get_storage'\n 42239: fallthrough\n      : @619 (gas: 12)\n 42240: a0 = u32 [sp + 0x1f0]\n 42244: a1 = u64 [sp + 0x1e0]\n 42248: a2 = u64 [sp + 0x1e8]\n 42252: a3 = u64 [sp + 0x98]\n 42256: a0 = a0 ^ a3\n 42259: a3 = u64 [sp + 0xa0]\n 42263: a1 = a1 ^ a3\n 42266: a0 = a0 | a1\n 42269: a1 = u64 [sp + 0xa8]\n 42273: a1 = a1 ^ a2\n 42276: a0 = a0 | a1\n 42279: jump @622 if a0 != 0\n      : @620 (gas: 94)\n 42283: a0 = u64 [sp + 0x28]\n 42286: u64 [sp + 0xc0] = a0\n 42290: a0 = u64 [sp + 0x18]\n 42293: u64 [sp + 0xe0] = a0\n 42297: a0 = u64 [sp + 0x10]\n 42300: u64 [sp + 0x100] = a0\n 42304: a0 = u64 [sp + 0x8]\n 42307: u64 [sp + 0x120] = a0\n 42311: a0 = u64 [sp + 0xb0]\n 42315: u64 [sp + 0x140] = a0\n 42319: a0 = u64 [sp + 0x48]\n 42322: u64 [sp + 0xc8] = a0\n 42326: a0 = u64 [sp + 0x38]\n 42329: u64 [sp + 0xe8] = a0\n 42333: a0 = u64 [sp + 0x30]\n 42336: u64 [sp + 0x108] = a0\n 42340: a0 = u64 [sp + 0x20]\n 42343: u64 [sp + 0x128] = a0\n 42347: a0 = u64 [sp + 0xb8]\n 42351: u64 [sp + 0x148] = a0\n 42355: a0 = u64 [sp + 0x68]\n 42358: u64 [sp + 0xd0] = a0\n 42362: a0 = u64 [sp + 0x58]\n 42365: u64 [sp + 0xf0] = a0\n 42369: a0 = u64 [sp + 0x50]\n 42372: u64 [sp + 0x110] = a0\n 42376: a0 = u64 [sp + 0x40]\n 42379: u64 [sp + 0x130] = a0\n 42383: u64 [sp + 0x150] = s1\n 42387: a0 = u64 [sp + 0x88]\n 42391: u64 [sp + 0xd8] = a0\n 42395: a0 = u64 [sp + 0x80]\n 42399: u64 [sp + 0xf8] = a0\n 42403: a0 = u64 [sp + 0x70]\n 42406: u64 [sp + 0x118] = a0\n 42410: a0 = u64 [sp + 0x60]\n 42413: u64 [sp + 0x138] = a0\n 42417: a0 = sp + 0x140\n 42421: a1 = sp + 0x120\n 42425: a2 = sp + 0x100\n 42429: a3 = sp + 0xe0\n 42433: a4 = sp + 0xc0\n 42437: a5 = u64 [sp + 0x78]\n 42440: u64 [sp + 0x158] = a5\n 42444: ra = 0x21a\n 42448: sp = sp + 0xfffffffffffffa40\n 42452: u64 [sp + 0x5b8] = ra\n 42456: u64 [sp + 0x5b0] = s0\n 42460: u64 [sp + 0x5a8] = s1\n 42464: s0 = sp + 0x5c0\n 42468: sp = sp & 0xffffffffffffffe0\n 42471: a5 = u64 [a4 + 0x18]\n 42474: u64 [sp + 0x148] = a5\n 42478: a5 = u64 [a4 + 0x10]\n 42481: u64 [sp + 0x150] = a5\n 42485: a5 = u64 [a4 + 0x8]\n 42488: u64 [sp + 0x158] = a5\n 42492: a4 = u64 [a4]\n 42494: u64 [sp + 0x160] = a4\n 42498: a4 = u64 [a3 + 0x18]\n 42501: u64 [sp + 0x168] = a4\n 42505: a4 = u64 [a3 + 0x10]\n 42508: u64 [sp + 0x170] = a4\n 42512: a4 = u64 [a3 + 0x8]\n 42515: u64 [sp + 0x178] = a4\n 42519: a3 = u64 [a3]\n 42521: u64 [sp + 0x180] = a3\n 42525: a3 = u64 [a2 + 0x18]\n 42528: u64 [sp + 0x138] = a3\n 42532: a3 = u64 [a2 + 0x10]\n 42535: u64 [sp + 0x130] = a3\n 42539: a3 = u64 [a2 + 0x8]\n 42542: u64 [sp + 0x128] = a3\n 42546: a2 = u64 [a2]\n 42548: u64 [sp + 0x120] = a2\n 42552: a2 = u64 [a1]\n 42554: u64 [sp + 0x1e8] = a2\n 42558: a2 = u64 [a1 + 0x8]\n 42561: u64 [sp + 0x1f8] = a2\n 42565: a2 = u64 [a1 + 0x10]\n 42568: u64 [sp + 0x200] = a2\n 42572: a1 = u64 [a1 + 0x18]\n 42575: u64 [sp + 0x208] = a1\n 42579: a1 = u64 [a0]\n 42581: u64 [sp + 0x1d8] = a1\n 42585: a1 = u64 [a0 + 0x8]\n 42588: u64 [sp + 0x1e0] = a1\n 42592: a1 = u64 [a0 + 0x10]\n 42595: u64 [sp + 0x1f0] = a1\n 42599: s1 = u64 [a0 + 0x18]\n 42602: a1 = 0x20\n 42605: a0 = 0\n 42607: ra = 0x266\n 42611: jump @0\n      : @621 [@dyn 269] (gas: 6)\n 42615: sp = s0 + 0xfffffffffffffde0\n 42619: ra = u64 [sp + 0x218]\n 42623: s0 = u64 [sp + 0x210]\n 42627: s1 = u64 [sp + 0x208]\n 42631: sp = sp + 0x220\n 42635: ret\n      : @622 (gas: 3)\n 42637: a0 = 0x40\n 42640: a1 = 0x20\n 42643: ra = 540, jump @0\n      : @623 [@dyn 270] (gas: 103)\n 42650: a1 = u8 [a0 + 0x11]\n 42653: a2 = u8 [a0 + 0x10]\n 42656: a3 = u8 [a0 + 0x12]\n 42659: a4 = u8 [a0 + 0x13]\n 42662: a1 = a1 << 0x8\n 42665: a1 = a1 | a2\n 42668: a3 = a3 << 0x10\n 42671: a4 = a4 << 0x18\n 42674: a3 = a3 | a4\n 42677: a1 = a1 | a3\n 42680: a2 = u8 [a0 + 0x15]\n 42683: a3 = u8 [a0 + 0x14]\n 42686: a4 = u8 [a0 + 0x16]\n 42689: a5 = u8 [a0 + 0x17]\n 42692: a2 = a2 << 0x8\n 42695: a2 = a2 | a3\n 42698: a4 = a4 << 0x10\n 42701: a5 = a5 << 0x18\n 42704: a4 = a4 | a5\n 42707: a2 = a2 | a4\n 42710: a2 = a2 << 0x20\n 42713: t0 = a2 | a1\n 42716: a2 = u8 [a0 + 0x1]\n 42719: a3 = u8 [a0]\n 42721: a4 = u8 [a0 + 0x2]\n 42724: a5 = u8 [a0 + 0x3]\n 42727: a2 = a2 << 0x8\n 42730: a2 = a2 | a3\n 42733: a4 = a4 << 0x10\n 42736: a5 = a5 << 0x18\n 42739: a4 = a4 | a5\n 42742: a2 = a2 | a4\n 42745: a3 = u8 [a0 + 0x5]\n 42748: a4 = u8 [a0 + 0x4]\n 42751: a5 = u8 [a0 + 0x6]\n 42754: s1 = u8 [a0 + 0x7]\n 42757: a3 = a3 << 0x8\n 42760: a3 = a3 | a4\n 42763: a5 = a5 << 0x10\n 42766: s1 = s1 << 0x18\n 42769: a5 = a5 | s1\n 42772: a3 = a3 | a5\n 42775: a3 = a3 << 0x20\n 42778: a2 = a2 | a3\n 42781: a3 = u8 [a0 + 0x19]\n 42784: a4 = u8 [a0 + 0x18]\n 42787: a5 = u8 [a0 + 0x1a]\n 42790: s1 = u8 [a0 + 0x1b]\n 42793: a3 = a3 << 0x8\n 42796: a3 = a3 | a4\n 42799: a5 = a5 << 0x10\n 42802: s1 = s1 << 0x18\n 42805: a5 = a5 | s1\n 42808: a3 = a3 | a5\n 42811: a4 = u8 [a0 + 0x1d]\n 42814: a5 = u8 [a0 + 0x1c]\n 42817: s1 = u8 [a0 + 0x1e]\n 42820: a1 = u8 [a0 + 0x1f]\n 42823: a4 = a4 << 0x8\n 42826: a4 = a4 | a5\n 42829: s1 = s1 << 0x10\n 42832: a1 = a1 << 0x18\n 42835: a1 = a1 | s1\n 42838: a1 = a1 | a4\n 42841: a1 = a1 << 0x20\n 42844: a3 = a3 | a1\n 42847: a1 = u8 [a0 + 0x9]\n 42850: a4 = u8 [a0 + 0x8]\n 42853: a5 = u8 [a0 + 0xa]\n 42856: s1 = u8 [a0 + 0xb]\n 42859: a1 = a1 << 0x8\n 42862: a1 = a1 | a4\n 42865: a5 = a5 << 0x10\n 42868: s1 = s1 << 0x18\n 42871: a5 = a5 | s1\n 42874: a1 = a1 | a5\n 42877: a4 = u8 [a0 + 0xd]\n 42880: a5 = u8 [a0 + 0xc]\n 42883: s1 = u8 [a0 + 0xe]\n 42886: a0 = u8 [a0 + 0xf]\n 42889: a4 = a4 << 0x8\n 42892: a4 = a4 | a5\n 42895: s1 = s1 << 0x10\n 42898: a0 = a0 << 0x18\n 42901: a0 = a0 | s1\n 42904: a0 = a0 | a4\n 42907: a0 = a0 << 0x20\n 42910: a0 = a0 | a1\n 42913: s1 = reverse a0\n 42915: a1 = reverse a3\n 42917: a2 = reverse a2\n 42919: a0 = reverse t0\n 42921: u64 [sp + 0xb8] = a0\n 42925: u64 [sp + 0xb0] = a2\n 42929: a0 = a0 | a2\n 42932: a2 = a1\n 42934: a1 = a1 | s1\n 42937: a1 = a1 | a0\n 42940: a1 = a1 >> 0x20\n 42943: a0 = a0 | s1\n 42946: a0 = a0 << 0x20\n 42949: a0 = a0 | a1\n 42952: jump @627 if a0 != 0\n      : @624 (gas: 5)\n 42956: u64 [sp + 0xa8] = a2\n 42960: i32 a0 = a2 + 0\n 42962: a1 = 0x20\n 42965: u64 [sp + 0xa0] = a0\n 42969: ra = 542, jump @0\n      : @625 [@dyn 271] (gas: 50)\n 42976: u8 [a0 + 31] = 0\n 42979: u8 [a0 + 30] = 0\n 42982: u8 [a0 + 29] = 0\n 42985: u8 [a0 + 28] = 0\n 42988: u8 [a0 + 27] = 0\n 42991: u8 [a0 + 26] = 0\n 42994: u8 [a0 + 25] = 0\n 42997: u8 [a0 + 24] = 0\n 43000: u8 [a0 + 23] = 0\n 43003: u8 [a0 + 22] = 0\n 43006: u8 [a0 + 21] = 0\n 43009: u8 [a0 + 20] = 0\n 43012: u8 [a0 + 19] = 0\n 43015: u8 [a0 + 18] = 0\n 43018: u8 [a0 + 17] = 0\n 43021: u8 [a0 + 16] = 0\n 43024: u8 [a0 + 15] = 0\n 43027: u8 [a0 + 14] = 0\n 43030: u8 [a0 + 13] = 0\n 43033: u8 [a0 + 12] = 0\n 43036: u8 [a0 + 11] = 0\n 43039: u8 [a0 + 10] = 0\n 43042: u8 [a0 + 9] = 0\n 43045: u8 [a0 + 8] = 0\n 43048: u8 [a0 + 7] = 0\n 43051: u8 [a0 + 6] = 0\n 43054: u8 [a0 + 5] = 0\n 43057: u8 [a0 + 4] = 0\n 43060: u8 [a0 + 3] = 0xa0\n 43065: u8 [a0 + 2] = 0x79\n 43069: u8 [a0 + 1] = 0xc3\n 43074: u8 [a0 + 0] = 0x8\n 43077: a1 = u64 [sp + 0xa8]\n 43081: a0 = a1 + 0x4\n 43084: a1 = a0 <u a1\n 43087: a3 = u64 [sp + 0xb8]\n 43091: a2 = a3 + a1\n 43094: a3 = a2 <u a3\n 43097: a3 = a1 if a1 == 0\n 43100: a3 = a3 + s1\n 43103: a1 = a3 <u s1\n 43106: a4 = u64 [sp + 0xb0]\n 43110: a4 = a4 + a1\n 43113: u64 [sp + 0x168] = a2\n 43117: u64 [sp + 0x160] = a0\n 43121: u64 [sp + 0x170] = a3\n 43125: a0 = sp + 0x180\n 43129: a1 = sp + 0x160\n 43133: u64 [sp + 0x178] = a4\n 43137: ra = 544, jump @606\n      : @626 [@dyn 272] (gas: 30)\n 43143: a0 = u64 [sp + 0x188]\n 43147: t0 = u64 [sp + 0x198]\n 43151: t1 = u64 [sp + 0x180]\n 43155: a3 = u64 [sp + 0x190]\n 43159: a1 = u64 [sp + 0xb8]\n 43163: a4 = a0 ^ a1\n 43166: a5 = a0 <u a1\n 43169: t2 = a1\n 43171: a2 = u64 [sp + 0xa8]\n 43175: a1 = t1 <u a2\n 43178: a5 = a1 if a4 == 0\n 43181: a4 = a3 - s1\n 43184: a3 = a3 <u s1\n 43187: s1 = u64 [sp + 0xb0]\n 43191: s1 = t0 - s1\n 43194: s1 = s1 - a3\n 43197: a3 = a4 <u a5\n 43200: s1 = s1 - a3\n 43203: a4 = a4 - a5\n 43206: a0 = a0 - t2\n 43209: a1 = a0 - a1\n 43212: a0 = t1 - a2\n 43215: a1 = a1 | s1\n 43218: a2 = a0 | a4\n 43221: a2 = a2 | a1\n 43224: a1 = a1 | a4\n 43227: a2 = a2 >> 0x20\n 43230: a1 = a1 << 0x20\n 43233: a1 = a1 | a2\n 43236: jump @628 if a1 == 0\n      : @627 (gas: 1)\n 43239: trap\n      : @628 (gas: 4)\n 43240: i32 s1 = a0 + 0\n 43242: a0 = u64 [sp + 0xa0]\n 43246: a1 = s1\n 43248: ra = 546, jump @0\n      : @629 [@dyn 273] (gas: 6)\n 43255: i32 a1 = a0 + 0\n 43257: a0 = 0x1\n 43260: a2 = s1\n 43262: ra = 0x224\n 43266: ecalli 13 // 'seal_return'\n 43268: fallthrough\n      : @630 [@dyn 274] (gas: 9)\n 43269: a2 = u64 [a1 + 0x18]\n 43272: a3 = u64 [a1 + 0x10]\n 43275: a4 = u64 [a1 + 0x8]\n 43278: a1 = u64 [a1]\n 43280: u64 [a0 + 0x18] = a2\n 43283: u64 [a0 + 0x10] = a3\n 43286: u64 [a0 + 0x8] = a4\n 43289: u64 [a0] = a1\n 43291: ret\n      : @631 (gas: 17)\n 43293: sp = sp + 0xffffffffffffffa0\n 43296: u64 [sp + 0x58] = ra\n 43299: u64 [sp + 0x50] = s0\n 43302: u64 [sp + 0x48] = s1\n 43305: a3 = u64 [a1 + 0x18]\n 43308: a4 = u64 [a1 + 0x10]\n 43311: a5 = u64 [a1 + 0x8]\n 43314: s1 = u64 [a1]\n 43316: a1 = a5 | a3\n 43319: a2 = s1 | a4\n 43322: a2 = a2 | a1\n 43325: a2 = a2 >> 0x20\n 43328: a1 = a1 | a4\n 43331: a1 = a1 << 0x20\n 43334: a1 = a1 | a2\n 43337: u64 [sp + 0x28] = a0\n 43340: jump @638 if a1 != 0\n      : @632 (gas: 19)\n 43344: a0 = s1 + 0x20\n 43347: u64 [sp + 0x30] = a0\n 43350: a0 = a0 <u s1\n 43353: a1 = a5 + a0\n 43356: u64 [sp + 0x40] = a1\n 43359: u64 [sp + 0x8] = a5\n 43362: s0 = a1 <u a5\n 43365: s0 = a0 if a0 == 0\n 43368: s0 = s0 + a4\n 43371: u64 [sp + 0x10] = a4\n 43374: a0 = s0 <u a4\n 43377: u64 [sp + 0x18] = a3\n 43380: a0 = a0 + a3\n 43383: u64 [sp + 0x38] = a0\n 43386: u64 [sp] = s1\n 43388: i32 a0 = s1 + 0\n 43390: a1 = 0x20\n 43393: s1 = 0x20\n 43396: ra = 550, jump @0\n      : @633 [@dyn 275] (gas: 45)\n 43403: u8 [a0 + 0x1f] = s1\n 43406: a1 = u64 [sp + 0x30]\n 43409: s1 = a1\n 43411: a1 = a1 | s0\n 43414: a2 = u64 [sp + 0x40]\n 43417: a4 = u64 [sp + 0x38]\n 43420: a2 = a2 | a4\n 43423: a1 = a1 | a2\n 43426: a1 = a1 >> 0x20\n 43429: u64 [sp + 0x20] = s0\n 43432: a2 = a2 | s0\n 43435: a2 = a2 << 0x20\n 43438: a1 = a1 | a2\n 43441: u8 [a0 + 30] = 0\n 43444: u8 [a0 + 29] = 0\n 43447: u8 [a0 + 28] = 0\n 43450: u8 [a0 + 27] = 0\n 43453: u8 [a0 + 26] = 0\n 43456: u8 [a0 + 25] = 0\n 43459: u8 [a0 + 24] = 0\n 43462: u8 [a0 + 23] = 0\n 43465: u8 [a0 + 22] = 0\n 43468: u8 [a0 + 21] = 0\n 43471: u8 [a0 + 20] = 0\n 43474: u8 [a0 + 19] = 0\n 43477: u8 [a0 + 18] = 0\n 43480: u8 [a0 + 17] = 0\n 43483: u8 [a0 + 16] = 0\n 43486: u8 [a0 + 15] = 0\n 43489: u8 [a0 + 14] = 0\n 43492: u8 [a0 + 13] = 0\n 43495: u8 [a0 + 12] = 0\n 43498: u8 [a0 + 11] = 0\n 43501: u8 [a0 + 10] = 0\n 43504: u8 [a0 + 9] = 0\n 43507: u8 [a0 + 8] = 0\n 43510: u8 [a0 + 7] = 0\n 43513: u8 [a0 + 6] = 0\n 43516: u8 [a0 + 5] = 0\n 43519: u8 [a0 + 4] = 0\n 43522: u8 [a0 + 3] = 0\n 43525: u8 [a0 + 2] = 0\n 43528: u8 [a0 + 1] = 0\n 43531: u8 [a0 + 0] = 0\n 43533: jump @638 if a1 != 0\n      : @634 (gas: 4)\n 43537: i32 s0 = s1 + 0\n 43539: a1 = 0x20\n 43542: a0 = s0\n 43544: ra = 552, jump @0\n      : @635 [@dyn 276] (gas: 41)\n 43551: u8 [a0 + 31] = 0x1f\n 43555: u8 [a0 + 30] = 0\n 43558: u8 [a0 + 29] = 0\n 43561: u8 [a0 + 28] = 0\n 43564: u8 [a0 + 27] = 0\n 43567: u8 [a0 + 26] = 0\n 43570: u8 [a0 + 25] = 0\n 43573: u8 [a0 + 24] = 0\n 43576: u8 [a0 + 23] = 0\n 43579: u8 [a0 + 22] = 0\n 43582: u8 [a0 + 21] = 0\n 43585: u8 [a0 + 20] = 0\n 43588: u8 [a0 + 19] = 0\n 43591: u8 [a0 + 18] = 0\n 43594: u8 [a0 + 17] = 0\n 43597: u8 [a0 + 16] = 0\n 43600: u8 [a0 + 15] = 0\n 43603: u8 [a0 + 14] = 0\n 43606: u8 [a0 + 13] = 0\n 43609: u8 [a0 + 12] = 0\n 43612: u8 [a0 + 11] = 0\n 43615: u8 [a0 + 10] = 0\n 43618: u8 [a0 + 9] = 0\n 43621: u8 [a0 + 8] = 0\n 43624: u8 [a0 + 7] = 0\n 43627: u8 [a0 + 6] = 0\n 43630: u8 [a0 + 5] = 0\n 43633: u8 [a0 + 4] = 0\n 43636: u8 [a0 + 3] = 0\n 43639: u8 [a0 + 2] = 0\n 43642: u8 [a0 + 1] = 0\n 43645: a1 = u64 [sp + 0x20]\n 43648: a2 = u64 [sp + 0x38]\n 43651: a1 = a1 | a2\n 43654: a2 = 0xffffffe0\n 43664: a2 = s1 <u a2\n 43667: a3 = u64 [sp + 0x40]\n 43670: a2 = 0 if a3 != 0\n 43672: a2 = 0 if a1 != 0\n 43674: u8 [a0 + 0] = 0\n 43676: jump @638 if a2 == 0\n      : @636 (gas: 3)\n 43680: i32 a0 = s0 + 0x20\n 43683: a1 = 0x20\n 43686: ra = 554, jump @0\n      : @637 [@dyn 277] (gas: 54)\n 43693: u8 [a0 + 27] = 0x69\n 43697: u8 [a0 + 30] = 0x64\n 43701: u8 [a0 + 21] = 0x64\n 43705: u8 [a0 + 25] = 0x6c\n 43709: u8 [a0 + 17] = 0x6c\n 43713: u8 [a0 + 14] = 0x74\n 43717: u8 [a0 + 13] = 0x6e\n 43721: u8 [a0 + 29] = 0x65\n 43725: u8 [a0 + 19] = 0x65\n 43729: u8 [a0 + 12] = 0x65\n 43733: u8 [a0 + 28] = 0x6d\n 43737: u8 [a0 + 11] = 0x6d\n 43741: u8 [a0 + 22] = 0x79\n 43745: u8 [a0 + 10] = 0x79\n 43749: u8 [a0 + 26] = 0x61\n 43753: u8 [a0 + 20] = 0x61\n 43757: u8 [a0 + 16] = 0x61\n 43761: u8 [a0 + 9] = 0x61\n 43765: u8 [a0 + 8] = 0x70\n 43769: u8 [a0 + 31] = 0\n 43772: u8 [a0 + 23] = 0x20\n 43776: u8 [a0 + 15] = 0x20\n 43780: u8 [a0 + 7] = 0x20\n 43784: u8 [a0 + 6] = 0x3a\n 43788: u8 [a0 + 5] = 0x77\n 43792: u8 [a0 + 4] = 0x6f\n 43796: u8 [a0 + 18] = 0x72\n 43800: u8 [a0 + 3] = 0x72\n 43804: u8 [a0 + 24] = 0x63\n 43808: u8 [a0 + 2] = 0x63\n 43812: u8 [a0 + 1] = 0x73\n 43816: u8 [a0 + 0] = 0x45\n 43819: a1 = u64 [sp]\n 43821: a0 = a1 + 0x60\n 43824: a1 = a0 <u a1\n 43827: a3 = u64 [sp + 0x8]\n 43830: a2 = a3 + a1\n 43833: a3 = a2 <u a3\n 43836: a3 = a1 if a1 == 0\n 43839: a1 = u64 [sp + 0x10]\n 43842: a3 = a3 + a1\n 43845: a1 = a3 <u a1\n 43848: a4 = u64 [sp + 0x18]\n 43851: a1 = a1 + a4\n 43854: a4 = u64 [sp + 0x28]\n 43857: u64 [a4] = a0\n 43859: u64 [a4 + 0x8] = a2\n 43862: u64 [a4 + 0x10] = a3\n 43865: u64 [a4 + 0x18] = a1\n 43868: ra = u64 [sp + 0x58]\n 43871: s0 = u64 [sp + 0x50]\n 43874: s1 = u64 [sp + 0x48]\n 43877: sp = sp + 0x60\n 43880: ret\n      : @638 (gas: 1)\n 43882: trap\n      : @639 (gas: 17)\n 43883: sp = sp + 0xffffffffffffffa0\n 43886: u64 [sp + 0x58] = ra\n 43889: u64 [sp + 0x50] = s0\n 43892: u64 [sp + 0x48] = s1\n 43895: a3 = u64 [a1 + 0x18]\n 43898: a4 = u64 [a1 + 0x10]\n 43901: a5 = u64 [a1 + 0x8]\n 43904: s1 = u64 [a1]\n 43906: a1 = a5 | a3\n 43909: a2 = s1 | a4\n 43912: a2 = a2 | a1\n 43915: a2 = a2 >> 0x20\n 43918: a1 = a1 | a4\n 43921: a1 = a1 << 0x20\n 43924: a1 = a1 | a2\n 43927: u64 [sp + 0x28] = a0\n 43930: jump @646 if a1 != 0\n      : @640 (gas: 19)\n 43934: a0 = s1 + 0x20\n 43937: u64 [sp + 0x30] = a0\n 43940: a0 = a0 <u s1\n 43943: a1 = a5 + a0\n 43946: u64 [sp + 0x40] = a1\n 43949: u64 [sp + 0x8] = a5\n 43952: s0 = a1 <u a5\n 43955: s0 = a0 if a0 == 0\n 43958: s0 = s0 + a4\n 43961: u64 [sp + 0x10] = a4\n 43964: a0 = s0 <u a4\n 43967: u64 [sp + 0x18] = a3\n 43970: a0 = a0 + a3\n 43973: u64 [sp + 0x38] = a0\n 43976: u64 [sp] = s1\n 43978: i32 a0 = s1 + 0\n 43980: a1 = 0x20\n 43983: s1 = 0x20\n 43986: ra = 556, jump @0\n      : @641 [@dyn 278] (gas: 45)\n 43993: u8 [a0 + 0x1f] = s1\n 43996: a1 = u64 [sp + 0x30]\n 43999: s1 = a1\n 44001: a1 = a1 | s0\n 44004: a2 = u64 [sp + 0x40]\n 44007: a4 = u64 [sp + 0x38]\n 44010: a2 = a2 | a4\n 44013: a1 = a1 | a2\n 44016: a1 = a1 >> 0x20\n 44019: u64 [sp + 0x20] = s0\n 44022: a2 = a2 | s0\n 44025: a2 = a2 << 0x20\n 44028: a1 = a1 | a2\n 44031: u8 [a0 + 30] = 0\n 44034: u8 [a0 + 29] = 0\n 44037: u8 [a0 + 28] = 0\n 44040: u8 [a0 + 27] = 0\n 44043: u8 [a0 + 26] = 0\n 44046: u8 [a0 + 25] = 0\n 44049: u8 [a0 + 24] = 0\n 44052: u8 [a0 + 23] = 0\n 44055: u8 [a0 + 22] = 0\n 44058: u8 [a0 + 21] = 0\n 44061: u8 [a0 + 20] = 0\n 44064: u8 [a0 + 19] = 0\n 44067: u8 [a0 + 18] = 0\n 44070: u8 [a0 + 17] = 0\n 44073: u8 [a0 + 16] = 0\n 44076: u8 [a0 + 15] = 0\n 44079: u8 [a0 + 14] = 0\n 44082: u8 [a0 + 13] = 0\n 44085: u8 [a0 + 12] = 0\n 44088: u8 [a0 + 11] = 0\n 44091: u8 [a0 + 10] = 0\n 44094: u8 [a0 + 9] = 0\n 44097: u8 [a0 + 8] = 0\n 44100: u8 [a0 + 7] = 0\n 44103: u8 [a0 + 6] = 0\n 44106: u8 [a0 + 5] = 0\n 44109: u8 [a0 + 4] = 0\n 44112: u8 [a0 + 3] = 0\n 44115: u8 [a0 + 2] = 0\n 44118: u8 [a0 + 1] = 0\n 44121: u8 [a0 + 0] = 0\n 44123: jump @646 if a1 != 0\n      : @642 (gas: 4)\n 44127: i32 s0 = s1 + 0\n 44129: a1 = 0x20\n 44132: a0 = s0\n 44134: ra = 558, jump @0\n      : @643 [@dyn 279] (gas: 41)\n 44141: u8 [a0 + 31] = 0x1e\n 44145: u8 [a0 + 30] = 0\n 44148: u8 [a0 + 29] = 0\n 44151: u8 [a0 + 28] = 0\n 44154: u8 [a0 + 27] = 0\n 44157: u8 [a0 + 26] = 0\n 44160: u8 [a0 + 25] = 0\n 44163: u8 [a0 + 24] = 0\n 44166: u8 [a0 + 23] = 0\n 44169: u8 [a0 + 22] = 0\n 44172: u8 [a0 + 21] = 0\n 44175: u8 [a0 + 20] = 0\n 44178: u8 [a0 + 19] = 0\n 44181: u8 [a0 + 18] = 0\n 44184: u8 [a0 + 17] = 0\n 44187: u8 [a0 + 16] = 0\n 44190: u8 [a0 + 15] = 0\n 44193: u8 [a0 + 14] = 0\n 44196: u8 [a0 + 13] = 0\n 44199: u8 [a0 + 12] = 0\n 44202: u8 [a0 + 11] = 0\n 44205: u8 [a0 + 10] = 0\n 44208: u8 [a0 + 9] = 0\n 44211: u8 [a0 + 8] = 0\n 44214: u8 [a0 + 7] = 0\n 44217: u8 [a0 + 6] = 0\n 44220: u8 [a0 + 5] = 0\n 44223: u8 [a0 + 4] = 0\n 44226: u8 [a0 + 3] = 0\n 44229: u8 [a0 + 2] = 0\n 44232: u8 [a0 + 1] = 0\n 44235: a1 = u64 [sp + 0x20]\n 44238: a2 = u64 [sp + 0x38]\n 44241: a1 = a1 | a2\n 44244: a2 = 0xffffffe0\n 44254: a2 = s1 <u a2\n 44257: a3 = u64 [sp + 0x40]\n 44260: a2 = 0 if a3 != 0\n 44262: a2 = 0 if a1 != 0\n 44264: u8 [a0 + 0] = 0\n 44266: jump @646 if a2 == 0\n      : @644 (gas: 3)\n 44270: i32 a0 = s0 + 0x20\n 44273: a1 = 0x20\n 44276: ra = 560, jump @0\n      : @645 [@dyn 280] (gas: 54)\n 44283: u8 [a0 + 28] = 0x74\n 44287: u8 [a0 + 23] = 0x64\n 44291: u8 [a0 + 21] = 0x6e\n 44295: u8 [a0 + 24] = 0x69\n 44299: u8 [a0 + 20] = 0x69\n 44303: u8 [a0 + 17] = 0x69\n 44307: u8 [a0 + 29] = 0x65\n 44311: u8 [a0 + 15] = 0x65\n 44315: u8 [a0 + 13] = 0x61\n 44319: u8 [a0 + 12] = 0x68\n 44323: u8 [a0 + 27] = 0x75\n 44327: u8 [a0 + 9] = 0x75\n 44331: u8 [a0 + 26] = 0x70\n 44335: u8 [a0 + 8] = 0x70\n 44339: u8 [a0 + 31] = 0\n 44342: u8 [a0 + 30] = 0\n 44345: u8 [a0 + 22] = 0x20\n 44349: u8 [a0 + 19] = 0x20\n 44353: u8 [a0 + 16] = 0x20\n 44357: u8 [a0 + 7] = 0x20\n 44361: u8 [a0 + 6] = 0x3a\n 44365: u8 [a0 + 5] = 0x77\n 44369: u8 [a0 + 4] = 0x6f\n 44373: u8 [a0 + 10] = 0x72\n 44377: u8 [a0 + 3] = 0x72\n 44381: u8 [a0 + 11] = 0x63\n 44385: u8 [a0 + 2] = 0x63\n 44389: u8 [a0 + 25] = 0x73\n 44393: u8 [a0 + 18] = 0x73\n 44397: u8 [a0 + 14] = 0x73\n 44401: u8 [a0 + 1] = 0x73\n 44405: u8 [a0 + 0] = 0x45\n 44408: a1 = u64 [sp]\n 44410: a0 = a1 + 0x60\n 44413: a1 = a0 <u a1\n 44416: a3 = u64 [sp + 0x8]\n 44419: a2 = a3 + a1\n 44422: a3 = a2 <u a3\n 44425: a3 = a1 if a1 == 0\n 44428: a1 = u64 [sp + 0x10]\n 44431: a3 = a3 + a1\n 44434: a1 = a3 <u a1\n 44437: a4 = u64 [sp + 0x18]\n 44440: a1 = a1 + a4\n 44443: a4 = u64 [sp + 0x28]\n 44446: u64 [a4] = a0\n 44448: u64 [a4 + 0x8] = a2\n 44451: u64 [a4 + 0x10] = a3\n 44454: u64 [a4 + 0x18] = a1\n 44457: ra = u64 [sp + 0x58]\n 44460: s0 = u64 [sp + 0x50]\n 44463: s1 = u64 [sp + 0x48]\n 44466: sp = sp + 0x60\n 44469: ret\n      : @646 (gas: 1)\n 44471: trap\n      : @647 (gas: 18)\n 44472: sp = sp + 0xffffffffffffff60\n 44476: u64 [sp + 0x98] = ra\n 44480: u64 [sp + 0x90] = s0\n 44484: u64 [sp + 0x88] = s1\n 44488: s0 = sp + 0xa0\n 44492: sp = sp & 0xfffffffffffffff0\n 44495: a2 = u64 [a1 + 0x18]\n 44498: u64 [sp + 0x30] = a2\n 44501: a2 = u64 [a1 + 0x10]\n 44504: u64 [sp + 0x28] = a2\n 44507: a2 = u64 [a1 + 0x8]\n 44510: u64 [sp + 0x20] = a2\n 44513: a1 = u64 [a1]\n 44515: u64 [sp + 0x18] = a1\n 44518: u64 [sp + 0x38] = a0\n 44521: a0 = 0x40\n 44524: a1 = 0x20\n 44527: ra = 562, jump @0\n      : @648 [@dyn 281] (gas: 130)\n 44534: a1 = u8 [a0 + 0x19]\n 44537: a2 = u8 [a0 + 0x18]\n 44540: a3 = u8 [a0 + 0x1a]\n 44543: a4 = u8 [a0 + 0x1b]\n 44546: a1 = a1 << 0x8\n 44549: a1 = a1 | a2\n 44552: a3 = a3 << 0x10\n 44555: a4 = a4 << 0x18\n 44558: a3 = a3 | a4\n 44561: a1 = a1 | a3\n 44564: a2 = u8 [a0 + 0x1d]\n 44567: a3 = u8 [a0 + 0x1c]\n 44570: a4 = u8 [a0 + 0x1e]\n 44573: a5 = u8 [a0 + 0x1f]\n 44576: a2 = a2 << 0x8\n 44579: a2 = a2 | a3\n 44582: a4 = a4 << 0x10\n 44585: a5 = a5 << 0x18\n 44588: a4 = a4 | a5\n 44591: a2 = a2 | a4\n 44594: a2 = a2 << 0x20\n 44597: t0 = a2 | a1\n 44600: a2 = u8 [a0 + 0x11]\n 44603: a3 = u8 [a0 + 0x10]\n 44606: a4 = u8 [a0 + 0x12]\n 44609: a5 = u8 [a0 + 0x13]\n 44612: a2 = a2 << 0x8\n 44615: a2 = a2 | a3\n 44618: a4 = a4 << 0x10\n 44621: a5 = a5 << 0x18\n 44624: a4 = a4 | a5\n 44627: a2 = a2 | a4\n 44630: a3 = u8 [a0 + 0x15]\n 44633: a4 = u8 [a0 + 0x14]\n 44636: a5 = u8 [a0 + 0x16]\n 44639: s1 = u8 [a0 + 0x17]\n 44642: a3 = a3 << 0x8\n 44645: a3 = a3 | a4\n 44648: a5 = a5 << 0x10\n 44651: s1 = s1 << 0x18\n 44654: a5 = a5 | s1\n 44657: a3 = a3 | a5\n 44660: a3 = a3 << 0x20\n 44663: a2 = a2 | a3\n 44666: a3 = u8 [a0 + 0x9]\n 44669: a4 = u8 [a0 + 0x8]\n 44672: a5 = u8 [a0 + 0xa]\n 44675: s1 = u8 [a0 + 0xb]\n 44678: a3 = a3 << 0x8\n 44681: a3 = a3 | a4\n 44684: a5 = a5 << 0x10\n 44687: s1 = s1 << 0x18\n 44690: a5 = a5 | s1\n 44693: a3 = a3 | a5\n 44696: a4 = u8 [a0 + 0xd]\n 44699: a5 = u8 [a0 + 0xc]\n 44702: s1 = u8 [a0 + 0xe]\n 44705: a1 = u8 [a0 + 0xf]\n 44708: a4 = a4 << 0x8\n 44711: a4 = a4 | a5\n 44714: s1 = s1 << 0x10\n 44717: a1 = a1 << 0x18\n 44720: a1 = a1 | s1\n 44723: a1 = a1 | a4\n 44726: a1 = a1 << 0x20\n 44729: a3 = a3 | a1\n 44732: a1 = u8 [a0 + 0x1]\n 44735: a4 = u8 [a0]\n 44737: a5 = u8 [a0 + 0x2]\n 44740: s1 = u8 [a0 + 0x3]\n 44743: a1 = a1 << 0x8\n 44746: a1 = a1 | a4\n 44749: a5 = a5 << 0x10\n 44752: s1 = s1 << 0x18\n 44755: a5 = a5 | s1\n 44758: a1 = a1 | a5\n 44761: a4 = u8 [a0 + 0x5]\n 44764: a5 = u8 [a0 + 0x4]\n 44767: s1 = u8 [a0 + 0x6]\n 44770: a0 = u8 [a0 + 0x7]\n 44773: a4 = a4 << 0x8\n 44776: a4 = a4 | a5\n 44779: s1 = s1 << 0x10\n 44782: a0 = a0 << 0x18\n 44785: a0 = a0 | s1\n 44788: a0 = a0 | a4\n 44791: a0 = a0 << 0x20\n 44794: a0 = a0 | a1\n 44797: t1 = reverse a0\n 44799: t2 = reverse a3\n 44801: s1 = reverse a2\n 44803: a5 = reverse t0\n 44805: a1 = u64 [sp + 0x18]\n 44808: a0 = a1 + 0x1f\n 44811: a1 = a0 <u a1\n 44814: a3 = u64 [sp + 0x20]\n 44817: a2 = a3 + a1\n 44820: a3 = a2 <u a3\n 44823: a3 = a1 if a1 == 0\n 44826: a1 = u64 [sp + 0x28]\n 44829: a3 = a3 + a1\n 44832: a1 = a3 <u a1\n 44835: a4 = u64 [sp + 0x30]\n 44838: a1 = a1 + a4\n 44841: a0 = a0 & 0xffffffffffffffe0\n 44844: a0 = a0 + a5\n 44847: u64 [sp + 0x28] = a5\n 44850: u64 [sp + 0x10] = a0\n 44853: a4 = a0 <u a5\n 44856: a2 = a2 + s1\n 44859: a5 = a2 + a4\n 44862: a2 = a5 ^ s1\n 44865: u64 [sp + 0x30] = s1\n 44868: a0 = a5 <u s1\n 44871: a0 = a4 if a2 == 0\n 44874: a3 = a3 + t2\n 44877: a4 = a3 + a0\n 44880: s1 = a4 <u a3\n 44883: a2 = a3 <u t2\n 44886: a1 = a1 + t1\n 44889: a1 = a1 + a2\n 44892: s1 = s1 + a1\n 44895: a1 = a4 >u 0\n 44897: a2 = s1 >u 0\n 44899: a2 = a1 if s1 == 0\n 44902: a1 = a4 | s1\n 44905: u64 [sp + 0x8] = a5\n 44908: a3 = a5 >u 0\n 44910: a3 = a2 if a1 != 0\n 44913: jump @652 if a3 != 0\n      : @649 (gas: 8)\n 44917: a1 = a4 <u t2\n 44920: a2 = s1 ^ t1\n 44923: a3 = s1 <u t1\n 44926: a3 = a1 if a2 == 0\n 44929: a1 = a4 ^ t2\n 44932: a1 = a1 | a2\n 44935: a0 = a3 if a1 != 0\n 44938: jump @652 if a0 != 0\n      : @650 (gas: 6)\n 44942: a0 = 0x40\n 44945: a1 = 0x20\n 44948: u64 [sp + 0x20] = t2\n 44951: u64 [sp + 0x18] = t1\n 44954: u64 [sp] = a4\n 44956: ra = 564, jump @0\n      : @651 [@dyn 282] (gas: 82)\n 44963: a1 = reverse s1\n 44965: a2 = u64 [sp]\n 44967: a2 = reverse a2\n 44969: a3 = u64 [sp + 0x8]\n 44972: a3 = reverse a3\n 44974: a4 = u64 [sp + 0x10]\n 44977: a4 = reverse a4\n 44979: u8 [a0 + 0x18] = a4\n 44982: a5 = a4 >> 0x38\n 44985: u8 [a0 + 0x1f] = a5\n 44988: a5 = a4 >> 0x30\n 44991: u8 [a0 + 0x1e] = a5\n 44994: a5 = a4 >> 0x28\n 44997: u8 [a0 + 0x1d] = a5\n 45000: a5 = a4 >> 0x20\n 45003: u8 [a0 + 0x1c] = a5\n 45006: a5 = a4 >> 0x18\n 45009: u8 [a0 + 0x1b] = a5\n 45012: a5 = a4 >> 0x10\n 45015: u8 [a0 + 0x1a] = a5\n 45018: a4 = a4 >> 0x8\n 45021: u8 [a0 + 0x19] = a4\n 45024: u8 [a0 + 0x10] = a3\n 45027: a4 = a3 >> 0x38\n 45030: u8 [a0 + 0x17] = a4\n 45033: a4 = a3 >> 0x30\n 45036: u8 [a0 + 0x16] = a4\n 45039: a4 = a3 >> 0x28\n 45042: u8 [a0 + 0x15] = a4\n 45045: a4 = a3 >> 0x20\n 45048: u8 [a0 + 0x14] = a4\n 45051: a4 = a3 >> 0x18\n 45054: u8 [a0 + 0x13] = a4\n 45057: a4 = a3 >> 0x10\n 45060: u8 [a0 + 0x12] = a4\n 45063: a3 = a3 >> 0x8\n 45066: u8 [a0 + 0x11] = a3\n 45069: u8 [a0 + 0x8] = a2\n 45072: a3 = a2 >> 0x38\n 45075: u8 [a0 + 0xf] = a3\n 45078: a3 = a2 >> 0x30\n 45081: u8 [a0 + 0xe] = a3\n 45084: a3 = a2 >> 0x28\n 45087: u8 [a0 + 0xd] = a3\n 45090: a3 = a2 >> 0x20\n 45093: u8 [a0 + 0xc] = a3\n 45096: a3 = a2 >> 0x18\n 45099: u8 [a0 + 0xb] = a3\n 45102: a3 = a2 >> 0x10\n 45105: u8 [a0 + 0xa] = a3\n 45108: a2 = a2 >> 0x8\n 45111: u8 [a0 + 0x9] = a2\n 45114: u8 [a0] = a1\n 45116: a2 = a1 >> 0x38\n 45119: u8 [a0 + 0x7] = a2\n 45122: a2 = a1 >> 0x30\n 45125: u8 [a0 + 0x6] = a2\n 45128: a2 = a1 >> 0x28\n 45131: u8 [a0 + 0x5] = a2\n 45134: a2 = a1 >> 0x20\n 45137: u8 [a0 + 0x4] = a2\n 45140: a2 = a1 >> 0x18\n 45143: u8 [a0 + 0x3] = a2\n 45146: a2 = a1 >> 0x10\n 45149: u8 [a0 + 0x2] = a2\n 45152: a1 = a1 >> 0x8\n 45155: u8 [a0 + 0x1] = a1\n 45158: a0 = u64 [sp + 0x38]\n 45161: a1 = u64 [sp + 0x28]\n 45164: u64 [a0] = a1\n 45166: a1 = u64 [sp + 0x18]\n 45169: u64 [a0 + 0x18] = a1\n 45172: a1 = u64 [sp + 0x30]\n 45175: u64 [a0 + 0x8] = a1\n 45178: a1 = u64 [sp + 0x20]\n 45181: u64 [a0 + 0x10] = a1\n 45184: sp = s0 + 0xffffffffffffff60\n 45188: ra = u64 [sp + 0x98]\n 45192: s0 = u64 [sp + 0x90]\n 45196: s1 = u64 [sp + 0x88]\n 45200: sp = sp + 0xa0\n 45204: ret\n      : @652 (gas: 8)\n 45206: u64 [sp + 112] = 0\n 45209: u64 [sp + 104] = 0\n 45212: u64 [sp + 96] = 0\n 45215: a0 = 0x4e487b7100000000\n 45225: a1 = sp + 0x60\n 45228: u64 [sp + 0x78] = a0\n 45231: a0 = 0\n 45233: ra = 566, jump @23\n      : @653 [@dyn 283] (gas: 7)\n 45240: u64 [sp + 88] = 0\n 45243: u64 [sp + 80] = 0\n 45246: u64 [sp + 64] = 0x41\n 45250: a0 = 0x4\n 45253: a1 = sp + 0x40\n 45256: u64 [sp + 72] = 0\n 45259: ra = 568, jump @23\n      : @654 [@dyn 284] (gas: 3)\n 45266: a1 = 0x24\n 45269: a0 = 0\n 45271: ra = 570, jump @0\n      : @655 [@dyn 285] (gas: 6)\n 45278: i32 a1 = a0 + 0\n 45280: a0 = 0x1\n 45283: a2 = 0x24\n 45286: ra = 0x23c\n 45290: ecalli 13 // 'seal_return'\n 45292: fallthrough\n      : @656 [@dyn 286] (gas: 7)\n 45293: a3 = u64 [a1 + 0x18]\n 45296: a4 = u64 [a1 + 0x10]\n 45299: a2 = u64 [a1 + 0x8]\n 45302: a3 = a3 | a4\n 45305: a4 = a2 <u 0x1\n 45308: a4 = 0 if a3 != 0\n 45310: jump @658 if a4 == 0\n      : @657 (gas: 16)\n 45313: a1 = u64 [a1]\n 45315: a3 = a1 + 0x1f\n 45318: a1 = a3 <u a1\n 45321: a1 = a1 + a2\n 45324: a1 = a1 & 0x1\n 45327: a3 = a3 & 0xffffffffffffffe0\n 45330: a2 = a3 + 0x20\n 45333: a3 = a2 <u a3\n 45336: a4 = a1 + a3\n 45339: a1 = a4 <u a1\n 45342: a1 = a3 if a3 == 0\n 45345: u64 [a0 + 24] = 0\n 45348: u64 [a0] = a2\n 45350: u64 [a0 + 0x8] = a4\n 45353: u64 [a0 + 0x10] = a1\n 45356: ret\n      : @658 (gas: 13)\n 45358: sp = sp + 0xffffffffffffffb0\n 45361: u64 [sp + 0x48] = ra\n 45364: u64 [sp + 0x40] = s0\n 45367: s0 = sp + 0x50\n 45370: sp = sp & 0xfffffffffffffff0\n 45373: u64 [sp + 48] = 0\n 45376: u64 [sp + 40] = 0\n 45379: u64 [sp + 32] = 0\n 45382: a0 = 0x4e487b7100000000\n 45392: a1 = sp + 0x20\n 45395: u64 [sp + 0x38] = a0\n 45398: a0 = 0\n 45400: ra = 574, jump @23\n      : @659 [@dyn 287] (gas: 7)\n 45407: u64 [sp + 24] = 0\n 45410: u64 [sp + 16] = 0\n 45413: u64 [sp + 0] = 0x41\n 45416: a0 = 0x4\n 45419: a1 = sp\n 45421: u64 [sp + 8] = 0\n 45424: ra = 576, jump @23\n      : @660 [@dyn 288] (gas: 3)\n 45431: a1 = 0x24\n 45434: a0 = 0\n 45436: ra = 578, jump @0\n      : @661 [@dyn 289] (gas: 6)\n 45443: i32 a1 = a0 + 0\n 45445: a0 = 0x1\n 45448: a2 = 0x24\n 45451: ra = 0x244\n 45455: ecalli 13 // 'seal_return'\n 45457: fallthrough\n      : @662 [@dyn 290] (gas: 16)\n 45458: sp = sp + 0xffffffffffffffa8\n 45461: u64 [sp + 0x50] = ra\n 45464: u64 [sp + 0x48] = s0\n 45467: u64 [sp + 0x40] = s1\n 45470: a3 = u64 [a0 + 0x10]\n 45473: a4 = u64 [a0 + 0x18]\n 45476: a5 = u64 [a0 + 0x8]\n 45479: a0 = u64 [a0]\n 45481: a4 = a4 | a5\n 45484: a5 = a0 | a3\n 45487: a5 = a5 | a4\n 45490: a5 = a5 >> 0x20\n 45493: a3 = a3 | a4\n 45496: a3 = a3 << 0x20\n 45499: a3 = a3 | a5\n 45502: jump @670 if a3 != 0\n      : @663 (gas: 12)\n 45506: a4 = u64 [a2 + 0x18]\n 45509: a5 = u64 [a2 + 0x10]\n 45512: s0 = u64 [a2]\n 45514: s1 = u64 [a2 + 0x8]\n 45517: a2 = s0 | a5\n 45520: a3 = s1 | a4\n 45523: a2 = a2 | a3\n 45526: a2 = a2 >> 0x20\n 45529: a3 = a3 | a5\n 45532: a3 = a3 << 0x20\n 45535: a2 = a2 | a3\n 45538: jump @670 if a2 != 0\n      : @664 (gas: 18)\n 45542: u64 [sp + 0x28] = s1\n 45545: u64 [sp + 0x30] = a5\n 45548: u64 [sp + 0x38] = a4\n 45551: a2 = u64 [a1 + 0x18]\n 45554: a3 = u64 [a1 + 0x10]\n 45557: a5 = u64 [a1]\n 45559: a4 = u64 [a1 + 0x8]\n 45562: a1 = a5 | a3\n 45565: u64 [sp + 0x20] = a2\n 45568: u64 [sp + 0x10] = a4\n 45571: a2 = a2 | a4\n 45574: a1 = a1 | a2\n 45577: a1 = a1 >> 0x20\n 45580: u64 [sp + 0x18] = a3\n 45583: a2 = a2 | a3\n 45586: a2 = a2 << 0x20\n 45589: a1 = a1 | a2\n 45592: jump @670 if a1 != 0\n      : @665 (gas: 7)\n 45596: i32 a0 = a0 + 0\n 45598: u64 [sp + 0x8] = a0\n 45601: i32 a0 = a5 + 0\n 45603: i32 s1 = s0 + 0\n 45605: a1 = s1\n 45607: u64 [sp] = a5\n 45609: ra = 582, jump @0\n      : @666 [@dyn 291] (gas: 5)\n 45616: i32 a0 = a0 + 0\n 45618: a1 = s1\n 45620: a2 = u64 [sp + 0x8]\n 45623: ecalli 2 // 'call_data_copy'\n 45625: fallthrough\n      : @667 (gas: 29)\n 45626: a0 = u64 [sp]\n 45628: a0 = a0 + s0\n 45631: a1 = a0 <u s0\n 45634: a4 = u64 [sp + 0x28]\n 45637: a2 = u64 [sp + 0x10]\n 45640: a2 = a2 + a4\n 45643: a2 = a2 + a1\n 45646: a3 = a2 ^ a4\n 45649: a4 = a2 <u a4\n 45652: a4 = a1 if a3 == 0\n 45655: a5 = u64 [sp + 0x30]\n 45658: a1 = u64 [sp + 0x18]\n 45661: a1 = a1 + a5\n 45664: a4 = a4 + a1\n 45667: a3 = a4 <u a1\n 45670: a1 = a1 <u a5\n 45673: a5 = u64 [sp + 0x38]\n 45676: s1 = u64 [sp + 0x20]\n 45679: a5 = a5 + s1\n 45682: a1 = a1 + a5\n 45685: a1 = a1 + a3\n 45688: a3 = a0 | a4\n 45691: a1 = a1 | a2\n 45694: a3 = a3 | a1\n 45697: a3 = a3 >> 0x20\n 45700: a1 = a1 | a4\n 45703: a1 = a1 << 0x20\n 45706: a1 = a1 | a3\n 45709: jump @670 if a1 != 0\n      : @668 (gas: 3)\n 45712: i32 a0 = a0 + 0\n 45714: a1 = 0x20\n 45717: ra = 584, jump @0\n      : @669 [@dyn 292] (gas: 37)\n 45724: u8 [a0 + 31] = 0\n 45727: u8 [a0 + 30] = 0\n 45730: u8 [a0 + 29] = 0\n 45733: u8 [a0 + 28] = 0\n 45736: u8 [a0 + 27] = 0\n 45739: u8 [a0 + 26] = 0\n 45742: u8 [a0 + 25] = 0\n 45745: u8 [a0 + 24] = 0\n 45748: u8 [a0 + 23] = 0\n 45751: u8 [a0 + 22] = 0\n 45754: u8 [a0 + 21] = 0\n 45757: u8 [a0 + 20] = 0\n 45760: u8 [a0 + 19] = 0\n 45763: u8 [a0 + 18] = 0\n 45766: u8 [a0 + 17] = 0\n 45769: u8 [a0 + 16] = 0\n 45772: u8 [a0 + 15] = 0\n 45775: u8 [a0 + 14] = 0\n 45778: u8 [a0 + 13] = 0\n 45781: u8 [a0 + 12] = 0\n 45784: u8 [a0 + 11] = 0\n 45787: u8 [a0 + 10] = 0\n 45790: u8 [a0 + 9] = 0\n 45793: u8 [a0 + 8] = 0\n 45796: u8 [a0 + 7] = 0\n 45799: u8 [a0 + 6] = 0\n 45802: u8 [a0 + 5] = 0\n 45805: u8 [a0 + 4] = 0\n 45808: u8 [a0 + 3] = 0\n 45811: u8 [a0 + 2] = 0\n 45814: u8 [a0 + 1] = 0\n 45817: u8 [a0 + 0] = 0\n 45819: ra = u64 [sp + 0x50]\n 45822: s0 = u64 [sp + 0x48]\n 45825: s1 = u64 [sp + 0x40]\n 45828: sp = sp + 0x58\n 45831: ret\n      : @670 (gas: 1)\n 45833: trap\n      : @671 (gas: 16)\n 45834: sp = sp + 0xfffffffffffffee0\n 45838: u64 [sp + 0x118] = ra\n 45842: u64 [sp + 0x110] = s0\n 45846: u64 [sp + 0x108] = s1\n 45850: s0 = sp + 0x120\n 45854: sp = sp & 0xfffffffffffffff0\n 45857: a4 = u64 [a2 + 0x18]\n 45860: a5 = u64 [a2 + 0x10]\n 45863: s1 = u64 [a2 + 0x8]\n 45866: u64 [sp + 0x50] = a4\n 45869: u64 [sp + 0x48] = a5\n 45872: a4 = a4 | a5\n 45875: a5 = s1 <u 0x1\n 45878: a5 = 0 if a4 != 0\n 45880: u64 [sp] = a0\n 45882: jump @685 if a5 == 0\n      : @672 (gas: 35)\n 45886: a0 = u64 [a3 + 0x18]\n 45889: u64 [sp + 0x18] = a0\n 45892: a0 = u64 [a3 + 0x10]\n 45895: u64 [sp + 0x20] = a0\n 45898: a0 = u64 [a3 + 0x8]\n 45901: u64 [sp + 0x8] = a0\n 45904: a0 = u64 [a3]\n 45906: u64 [sp + 0x10] = a0\n 45909: a2 = u64 [a2]\n 45911: a0 = u64 [a1 + 0x18]\n 45914: u64 [sp + 0x70] = a0\n 45917: a0 = u64 [a1 + 0x10]\n 45920: u64 [sp + 0x78] = a0\n 45923: a0 = u64 [a1 + 0x8]\n 45926: u64 [sp + 0x68] = a0\n 45929: a0 = u64 [a1]\n 45931: u64 [sp + 0x60] = a0\n 45934: a0 = a2 + 0x1f\n 45937: u64 [sp + 0x40] = a2\n 45940: a1 = a0 <u a2\n 45943: a1 = a1 + s1\n 45946: a1 = a1 & 0x1\n 45949: a0 = a0 & 0xffffffffffffffe0\n 45952: a2 = a0 + 0x20\n 45955: a0 = a2 <u a0\n 45958: a3 = a1 + a0\n 45961: a4 = a3 <u a1\n 45964: a4 = a0 if a0 == 0\n 45967: u64 [sp + 216] = 0\n 45971: u64 [sp + 0xc0] = a2\n 45975: u64 [sp + 0xc8] = a3\n 45979: a0 = sp + 0xe0\n 45983: a1 = sp + 0xc0\n 45987: u64 [sp + 0xd0] = a4\n 45991: ra = 586, jump @647\n      : @673 [@dyn 293] (gas: 15)\n 45997: a0 = u64 [sp + 0xf8]\n 46001: a2 = u64 [sp + 0xf0]\n 46005: a1 = u64 [sp + 0xe8]\n 46009: a3 = u64 [sp + 0xe0]\n 46013: u64 [sp + 0x58] = a0\n 46016: u64 [sp + 0x30] = a1\n 46019: a0 = a0 | a1\n 46022: a1 = a3 | a2\n 46025: a1 = a1 | a0\n 46028: a1 = a1 >> 0x20\n 46031: u64 [sp + 0x38] = a2\n 46034: a0 = a0 | a2\n 46037: a0 = a0 << 0x20\n 46040: a0 = a0 | a1\n 46043: jump @684 if a0 != 0\n      : @674 (gas: 4)\n 46047: u64 [sp + 0x28] = a3\n 46050: i32 a0 = a3 + 0\n 46052: a1 = 0x20\n 46055: ra = 588, jump @0\n      : @675 [@dyn 294] (gas: 102)\n 46062: t2 = u64 [sp + 0x40]\n 46065: a1 = u64 [sp + 0x60]\n 46068: a1 = a1 + t2\n 46071: a3 = a1 <u t2\n 46074: a2 = u64 [sp + 0x68]\n 46077: a2 = a2 + s1\n 46080: a4 = a2 + a3\n 46083: a5 = a4 ^ s1\n 46086: a2 = a4 <u s1\n 46089: a2 = a3 if a5 == 0\n 46092: a5 = u64 [sp + 0x8]\n 46095: a3 = a4 ^ a5\n 46098: a4 = a5 <u a4\n 46101: a5 = u64 [sp + 0x10]\n 46104: a1 = a5 <u a1\n 46107: ra = u64 [sp + 0x48]\n 46110: a5 = u64 [sp + 0x78]\n 46113: a5 = a5 + ra\n 46116: a1 = a4 if a3 != 0\n 46119: a3 = a5 <u ra\n 46122: t1 = u64 [sp + 0x50]\n 46125: a4 = u64 [sp + 0x70]\n 46128: a4 = a4 + t1\n 46131: a3 = a3 + a4\n 46134: a2 = a2 + a5\n 46137: a4 = a2 <u a5\n 46140: a3 = a3 + a4\n 46143: a5 = u64 [sp + 0x18]\n 46146: a4 = a3 ^ a5\n 46149: a3 = a5 <u a3\n 46152: t0 = u64 [sp + 0x20]\n 46155: a5 = t0 <u a2\n 46158: a3 = a5 if a4 == 0\n 46161: a2 = a2 ^ t0\n 46164: a2 = a2 | a4\n 46167: a1 = a3 if a2 != 0\n 46170: a2 = reverse t2\n 46172: a3 = a2 >> 0x38\n 46175: u8 [a0 + 0x1f] = a3\n 46178: a3 = a2 >> 0x30\n 46181: u8 [a0 + 0x1e] = a3\n 46184: a3 = a2 >> 0x28\n 46187: u8 [a0 + 0x1d] = a3\n 46190: a3 = a2 >> 0x20\n 46193: u8 [a0 + 0x1c] = a3\n 46196: a3 = a2 >> 0x18\n 46199: u8 [a0 + 0x1b] = a3\n 46202: a3 = a2 >> 0x10\n 46205: u8 [a0 + 0x1a] = a3\n 46208: a3 = a2 >> 0x8\n 46211: u8 [a0 + 0x19] = a3\n 46214: a3 = reverse s1\n 46216: u8 [a0 + 0x18] = a2\n 46219: a2 = a3 >> 0x38\n 46222: u8 [a0 + 0x17] = a2\n 46225: a2 = a3 >> 0x30\n 46228: u8 [a0 + 0x16] = a2\n 46231: a2 = a3 >> 0x28\n 46234: u8 [a0 + 0x15] = a2\n 46237: a2 = a3 >> 0x20\n 46240: u8 [a0 + 0x14] = a2\n 46243: a2 = a3 >> 0x18\n 46246: u8 [a0 + 0x13] = a2\n 46249: a2 = a3 >> 0x10\n 46252: u8 [a0 + 0x12] = a2\n 46255: a2 = reverse ra\n 46257: u8 [a0 + 0x10] = a3\n 46260: a3 = a3 >> 0x8\n 46263: u8 [a0 + 0x11] = a3\n 46266: a3 = a2 >> 0x38\n 46269: u8 [a0 + 0xf] = a3\n 46272: a3 = a2 >> 0x30\n 46275: u8 [a0 + 0xe] = a3\n 46278: a3 = a2 >> 0x28\n 46281: u8 [a0 + 0xd] = a3\n 46284: a3 = a2 >> 0x20\n 46287: u8 [a0 + 0xc] = a3\n 46290: a3 = a2 >> 0x18\n 46293: u8 [a0 + 0xb] = a3\n 46296: a3 = a2 >> 0x10\n 46299: u8 [a0 + 0xa] = a3\n 46302: a3 = reverse t1\n 46304: u8 [a0 + 0x8] = a2\n 46307: a2 = a2 >> 0x8\n 46310: u8 [a0 + 0x9] = a2\n 46313: a2 = a3 >> 0x38\n 46316: u8 [a0 + 0x7] = a2\n 46319: a2 = a3 >> 0x30\n 46322: u8 [a0 + 0x6] = a2\n 46325: a2 = a3 >> 0x28\n 46328: u8 [a0 + 0x5] = a2\n 46331: a2 = a3 >> 0x20\n 46334: u8 [a0 + 0x4] = a2\n 46337: a2 = a3 >> 0x18\n 46340: u8 [a0 + 0x3] = a2\n 46343: a2 = a3 >> 0x10\n 46346: u8 [a0 + 0x2] = a2\n 46349: u8 [a0] = a3\n 46351: a3 = a3 >> 0x8\n 46354: u8 [a0 + 0x1] = a3\n 46357: t0 = u64 [sp + 0x60]\n 46360: jump @689 if a1 != 0\n      : @676 (gas: 12)\n 46364: a2 = u64 [sp + 0x78]\n 46367: a0 = t0 | a2\n 46370: a1 = u64 [sp + 0x70]\n 46373: a3 = u64 [sp + 0x68]\n 46376: a1 = a1 | a3\n 46379: a0 = a0 | a1\n 46382: a0 = a0 >> 0x20\n 46385: a1 = a1 | a2\n 46388: a1 = a1 << 0x20\n 46391: a0 = a0 | a1\n 46394: a3 = u64 [sp + 0x58]\n 46397: jump @684 if a0 != 0\n      : @677 (gas: 11)\n 46401: a0 = t2 | ra\n 46404: a1 = s1 | t1\n 46407: a0 = a0 | a1\n 46410: a0 = a0 >> 0x20\n 46413: a1 = a1 | ra\n 46416: a1 = a1 << 0x20\n 46419: a0 = a0 | a1\n 46422: a2 = u64 [sp + 0x38]\n 46425: a4 = u64 [sp + 0x30]\n 46428: a5 = u64 [sp + 0x28]\n 46431: jump @684 if a0 != 0\n      : @678 (gas: 7)\n 46435: u64 [sp + 0x78] = s1\n 46438: a0 = a2 | a3\n 46441: a1 = 0xffffffe0\n 46451: a1 = a5 <u a1\n 46454: a1 = 0 if a4 != 0\n 46456: a1 = 0 if a0 != 0\n 46458: jump @684 if a1 == 0\n      : @679 (gas: 16)\n 46462: s1 = a5 + 0x20\n 46465: a0 = s1 <u a5\n 46468: a1 = a4 + a0\n 46471: u64 [sp + 0x20] = a1\n 46474: a1 = a1 <u a4\n 46477: a1 = a0 if a0 == 0\n 46480: a1 = a1 + a2\n 46483: u64 [sp + 0x68] = a1\n 46486: a0 = a1 <u a2\n 46489: u64 [sp + 0x70] = a0\n 46492: i32 t0 = t0 + 0\n 46494: u64 [sp + 0x60] = t0\n 46497: i32 a0 = s1 + 0\n 46499: i32 a1 = t2 + 0\n 46501: u64 [sp + 0x18] = a1\n 46504: ra = 590, jump @0\n      : @680 [@dyn 295] (gas: 5)\n 46511: i32 a0 = a0 + 0\n 46513: a1 = u64 [sp + 0x18]\n 46516: a2 = u64 [sp + 0x60]\n 46519: ecalli 2 // 'call_data_copy'\n 46521: fallthrough\n      : @681 (gas: 31)\n 46522: a0 = u64 [sp + 0x40]\n 46525: a0 = a0 + s1\n 46528: a1 = a0 <u s1\n 46531: a2 = u64 [sp + 0x78]\n 46534: a4 = u64 [sp + 0x20]\n 46537: a2 = a2 + a4\n 46540: a2 = a2 + a1\n 46543: a3 = a2 ^ a4\n 46546: a4 = a2 <u a4\n 46549: a4 = a1 if a3 == 0\n 46552: a1 = u64 [sp + 0x48]\n 46555: a3 = u64 [sp + 0x68]\n 46558: a1 = a1 + a3\n 46561: a4 = a4 + a1\n 46564: t0 = a4 <u a1\n 46567: a1 = a1 <u a3\n 46570: a5 = u64 [sp + 0x50]\n 46573: s1 = u64 [sp + 0x58]\n 46576: a5 = a5 + s1\n 46579: a3 = u64 [sp + 0x70]\n 46582: a5 = a5 + a3\n 46585: a1 = a1 + a5\n 46588: a1 = a1 + t0\n 46591: a3 = a0 | a4\n 46594: a1 = a1 | a2\n 46597: a3 = a3 | a1\n 46600: a3 = a3 >> 0x20\n 46603: a1 = a1 | a4\n 46606: a1 = a1 << 0x20\n 46609: a1 = a1 | a3\n 46612: jump @684 if a1 != 0\n      : @682 (gas: 3)\n 46616: i32 a0 = a0 + 0\n 46618: a1 = 0x20\n 46621: ra = 592, jump @0\n      : @683 [@dyn 296] (gas: 46)\n 46628: u8 [a0 + 31] = 0\n 46631: u8 [a0 + 30] = 0\n 46634: u8 [a0 + 29] = 0\n 46637: u8 [a0 + 28] = 0\n 46640: u8 [a0 + 27] = 0\n 46643: u8 [a0 + 26] = 0\n 46646: u8 [a0 + 25] = 0\n 46649: u8 [a0 + 24] = 0\n 46652: u8 [a0 + 23] = 0\n 46655: u8 [a0 + 22] = 0\n 46658: u8 [a0 + 21] = 0\n 46661: u8 [a0 + 20] = 0\n 46664: u8 [a0 + 19] = 0\n 46667: u8 [a0 + 18] = 0\n 46670: u8 [a0 + 17] = 0\n 46673: u8 [a0 + 16] = 0\n 46676: u8 [a0 + 15] = 0\n 46679: u8 [a0 + 14] = 0\n 46682: u8 [a0 + 13] = 0\n 46685: u8 [a0 + 12] = 0\n 46688: u8 [a0 + 11] = 0\n 46691: u8 [a0 + 10] = 0\n 46694: u8 [a0 + 9] = 0\n 46697: u8 [a0 + 8] = 0\n 46700: u8 [a0 + 7] = 0\n 46703: u8 [a0 + 6] = 0\n 46706: u8 [a0 + 5] = 0\n 46709: u8 [a0 + 4] = 0\n 46712: u8 [a0 + 3] = 0\n 46715: u8 [a0 + 2] = 0\n 46718: u8 [a0 + 1] = 0\n 46721: u8 [a0 + 0] = 0\n 46723: a0 = u64 [sp]\n 46725: a1 = u64 [sp + 0x28]\n 46728: u64 [a0] = a1\n 46730: u64 [a0 + 0x18] = s1\n 46733: a1 = u64 [sp + 0x30]\n 46736: u64 [a0 + 0x8] = a1\n 46739: a1 = u64 [sp + 0x38]\n 46742: u64 [a0 + 0x10] = a1\n 46745: sp = s0 + 0xfffffffffffffee0\n 46749: ra = u64 [sp + 0x118]\n 46753: s0 = u64 [sp + 0x110]\n 46757: s1 = u64 [sp + 0x108]\n 46761: sp = sp + 0x120\n 46765: ret\n      : @684 (gas: 1)\n 46767: trap\n      : @685 (gas: 8)\n 46768: u64 [sp + 176] = 0\n 46772: u64 [sp + 168] = 0\n 46776: u64 [sp + 160] = 0\n 46780: a0 = 0x4e487b7100000000\n 46790: a1 = sp + 0xa0\n 46794: u64 [sp + 0xb8] = a0\n 46798: a0 = 0\n 46800: ra = 594, jump @23\n      : @686 [@dyn 297] (gas: 7)\n 46807: u64 [sp + 152] = 0\n 46811: u64 [sp + 144] = 0\n 46815: u64 [sp + 128] = 0x41\n 46820: a0 = 0x4\n 46823: a1 = sp + 0x80\n 46827: u64 [sp + 136] = 0\n 46831: ra = 596, jump @23\n      : @687 [@dyn 298] (gas: 3)\n 46838: a1 = 0x24\n 46841: a0 = 0\n 46843: ra = 598, jump @0\n      : @688 [@dyn 299] (gas: 5)\n 46850: i32 a1 = a0 + 0\n 46852: a0 = 0x1\n 46855: a2 = 0x24\n 46858: ecalli 13 // 'seal_return'\n 46860: fallthrough\n      : @689 (gas: 3)\n 46861: a0 = 0\n 46863: a1 = 0\n 46865: ra = 600, jump @0\n      : @690 [@dyn 300] (gas: 6)\n 46872: i32 a1 = a0 + 0\n 46874: a0 = 0x1\n 46877: a2 = 0\n 46879: ra = 0x25a\n 46883: ecalli 13 // 'seal_return'\n 46885: fallthrough\n      : @691 [@dyn 301] (gas: 33)\n 46886: sp = sp + 0xffffffffffffff60\n 46890: u64 [sp + 0x98] = ra\n 46894: u64 [sp + 0x90] = s0\n 46898: u64 [sp + 0x88] = s1\n 46902: s0 = sp + 0xa0\n 46906: sp = sp & 0xfffffffffffffff0\n 46909: t0 = u64 [a1]\n 46911: t1 = u64 [a1 + 0x8]\n 46914: t2 = u64 [a1 + 0x10]\n 46917: ra = u64 [a1 + 0x18]\n 46920: a4 = u64 [a2]\n 46922: a3 = u64 [a2 + 0x8]\n 46925: a5 = u64 [a2 + 0x10]\n 46928: a2 = u64 [a2 + 0x18]\n 46931: a1 = u32 [0x20114]\n 46936: s1 = a0\n 46938: u64 [sp + 24] = 0\n 46941: u64 [sp + 16] = 0\n 46944: u64 [sp + 8] = 0\n 46947: u64 [sp] = a1\n 46949: u64 [sp + 0x38] = a2\n 46952: u64 [sp + 0x30] = a5\n 46955: u64 [sp + 0x28] = a3\n 46958: u64 [sp + 0x20] = a4\n 46961: u64 [sp + 0x58] = ra\n 46964: u64 [sp + 0x50] = t2\n 46967: u64 [sp + 0x48] = t1\n 46970: a0 = sp + 0x60\n 46973: a1 = sp + 0x40\n 46976: a2 = sp + 0x20\n 46979: a3 = sp\n 46981: u64 [sp + 0x40] = t0\n 46984: ra = 604, jump @671\n      : @692 [@dyn 302] (gas: 14)\n 46990: a0 = u64 [sp + 0x70]\n 46993: a1 = u64 [sp + 0x78]\n 46996: a2 = u64 [sp + 0x60]\n 46999: a3 = u64 [sp + 0x68]\n 47002: u64 [s1 + 0x10] = a0\n 47005: u64 [s1 + 0x18] = a1\n 47008: u64 [s1] = a2\n 47010: u64 [s1 + 0x8] = a3\n 47013: sp = s0 + 0xffffffffffffff60\n 47017: ra = u64 [sp + 0x98]\n 47021: s0 = u64 [sp + 0x90]\n 47025: s1 = u64 [sp + 0x88]\n 47029: sp = sp + 0xa0\n 47033: ret\n      : @693 (gas: 17)\n 47035: sp = sp + 0xffffffffffffffa0\n 47038: u64 [sp + 0x58] = ra\n 47041: u64 [sp + 0x50] = s0\n 47044: u64 [sp + 0x48] = s1\n 47047: a3 = u64 [a1 + 0x18]\n 47050: a4 = u64 [a1 + 0x10]\n 47053: a5 = u64 [a1 + 0x8]\n 47056: s1 = u64 [a1]\n 47058: a1 = a5 | a3\n 47061: a2 = s1 | a4\n 47064: a2 = a2 | a1\n 47067: a2 = a2 >> 0x20\n 47070: a1 = a1 | a4\n 47073: a1 = a1 << 0x20\n 47076: a1 = a1 | a2\n 47079: u64 [sp + 0x20] = a0\n 47082: jump @702 if a1 != 0\n      : @694 (gas: 19)\n 47086: a0 = s1 + 0x20\n 47089: u64 [sp + 0x38] = a0\n 47092: a0 = a0 <u s1\n 47095: a1 = a5 + a0\n 47098: u64 [sp + 0x40] = a1\n 47101: u64 [sp + 0x8] = a5\n 47104: s0 = a1 <u a5\n 47107: s0 = a0 if a0 == 0\n 47110: s0 = s0 + a4\n 47113: u64 [sp + 0x10] = a4\n 47116: a0 = s0 <u a4\n 47119: u64 [sp + 0x18] = a3\n 47122: a0 = a0 + a3\n 47125: u64 [sp + 0x30] = a0\n 47128: u64 [sp] = s1\n 47130: i32 a0 = s1 + 0\n 47132: a1 = 0x20\n 47135: s1 = 0x20\n 47138: ra = 606, jump @0\n      : @695 [@dyn 303] (gas: 43)\n 47145: u8 [a0 + 0x1f] = s1\n 47148: a1 = u64 [sp + 0x38]\n 47151: a1 = a1 | s0\n 47154: a2 = u64 [sp + 0x40]\n 47157: a3 = u64 [sp + 0x30]\n 47160: a2 = a2 | a3\n 47163: a1 = a1 | a2\n 47166: a1 = a1 >> 0x20\n 47169: a2 = a2 | s0\n 47172: a2 = a2 << 0x20\n 47175: a1 = a1 | a2\n 47178: u8 [a0 + 30] = 0\n 47181: u8 [a0 + 29] = 0\n 47184: u8 [a0 + 28] = 0\n 47187: u8 [a0 + 27] = 0\n 47190: u8 [a0 + 26] = 0\n 47193: u8 [a0 + 25] = 0\n 47196: u8 [a0 + 24] = 0\n 47199: u8 [a0 + 23] = 0\n 47202: u8 [a0 + 22] = 0\n 47205: u8 [a0 + 21] = 0\n 47208: u8 [a0 + 20] = 0\n 47211: u8 [a0 + 19] = 0\n 47214: u8 [a0 + 18] = 0\n 47217: u8 [a0 + 17] = 0\n 47220: u8 [a0 + 16] = 0\n 47223: u8 [a0 + 15] = 0\n 47226: u8 [a0 + 14] = 0\n 47229: u8 [a0 + 13] = 0\n 47232: u8 [a0 + 12] = 0\n 47235: u8 [a0 + 11] = 0\n 47238: u8 [a0 + 10] = 0\n 47241: u8 [a0 + 9] = 0\n 47244: u8 [a0 + 8] = 0\n 47247: u8 [a0 + 7] = 0\n 47250: u8 [a0 + 6] = 0\n 47253: u8 [a0 + 5] = 0\n 47256: u8 [a0 + 4] = 0\n 47259: u8 [a0 + 3] = 0\n 47262: u8 [a0 + 2] = 0\n 47265: u8 [a0 + 1] = 0\n 47268: u8 [a0 + 0] = 0\n 47270: jump @702 if a1 != 0\n      : @696 (gas: 6)\n 47274: s1 = s0\n 47276: s0 = u64 [sp + 0x38]\n 47279: i32 a0 = s0 + 0\n 47281: a1 = 0x20\n 47284: u64 [sp + 0x28] = a0\n 47287: ra = 608, jump @0\n      : @697 [@dyn 304] (gas: 42)\n 47294: u8 [a0 + 31] = 0x24\n 47298: u8 [a0 + 30] = 0\n 47301: u8 [a0 + 29] = 0\n 47304: u8 [a0 + 28] = 0\n 47307: u8 [a0 + 27] = 0\n 47310: u8 [a0 + 26] = 0\n 47313: u8 [a0 + 25] = 0\n 47316: u8 [a0 + 24] = 0\n 47319: u8 [a0 + 23] = 0\n 47322: u8 [a0 + 22] = 0\n 47325: u8 [a0 + 21] = 0\n 47328: u8 [a0 + 20] = 0\n 47331: u8 [a0 + 19] = 0\n 47334: u8 [a0 + 18] = 0\n 47337: u8 [a0 + 17] = 0\n 47340: u8 [a0 + 16] = 0\n 47343: u8 [a0 + 15] = 0\n 47346: u8 [a0 + 14] = 0\n 47349: u8 [a0 + 13] = 0\n 47352: u8 [a0 + 12] = 0\n 47355: u8 [a0 + 11] = 0\n 47358: u8 [a0 + 10] = 0\n 47361: u8 [a0 + 9] = 0\n 47364: u8 [a0 + 8] = 0\n 47367: u8 [a0 + 7] = 0\n 47370: u8 [a0 + 6] = 0\n 47373: u8 [a0 + 5] = 0\n 47376: u8 [a0 + 4] = 0\n 47379: u8 [a0 + 3] = 0\n 47382: u8 [a0 + 2] = 0\n 47385: u8 [a0 + 1] = 0\n 47388: a1 = u64 [sp + 0x30]\n 47391: a3 = s1 | a1\n 47394: s1 = 0x100000000\n 47404: a1 = 0xffffffe0\n 47414: a1 = s0 <u a1\n 47417: a2 = u64 [sp + 0x40]\n 47420: a1 = 0 if a2 != 0\n 47422: u64 [sp + 0x30] = a3\n 47425: a1 = 0 if a3 != 0\n 47427: u8 [a0 + 0] = 0\n 47429: jump @702 if a1 == 0\n      : @698 (gas: 4)\n 47433: a0 = u64 [sp + 0x28]\n 47436: i32 a0 = a0 + 0x20\n 47439: a1 = 0x20\n 47442: ra = 610, jump @0\n      : @699 [@dyn 305] (gas: 42)\n 47449: u8 [a0 + 27] = 0x73\n 47453: u8 [a0 + 25] = 0x64\n 47457: u8 [a0 + 23] = 0x6c\n 47461: u8 [a0 + 21] = 0x76\n 47465: u8 [a0 + 19] = 0x49\n 47469: u8 [a0 + 26] = 0x20\n 47473: u8 [a0 + 18] = 0x20\n 47477: u8 [a0 + 17] = 0x3a\n 47481: u8 [a0 + 13] = 0x66\n 47485: u8 [a0 + 9] = 0x56\n 47489: u8 [a0 + 31] = 0x61\n 47493: u8 [a0 + 22] = 0x61\n 47497: u8 [a0 + 4] = 0x61\n 47501: u8 [a0 + 30] = 0x6e\n 47505: u8 [a0 + 20] = 0x6e\n 47509: u8 [a0 + 3] = 0x6e\n 47513: u8 [a0 + 29] = 0x67\n 47517: u8 [a0 + 2] = 0x67\n 47521: u8 [a0 + 28] = 0x69\n 47525: u8 [a0 + 24] = 0x69\n 47529: u8 [a0 + 14] = 0x69\n 47533: u8 [a0 + 12] = 0x69\n 47537: u8 [a0 + 1] = 0x69\n 47541: u8 [a0 + 0] = 0x53\n 47544: s0 = 0x72\n 47547: u8 [a0 + 0x10] = s0\n 47550: a1 = s1 + 0xffffffffffffffc0\n 47553: a2 = u64 [sp + 0x38]\n 47556: a1 = a2 <u a1\n 47559: s1 = 0x65\n 47562: u8 [a0 + 0xf] = s1\n 47565: u8 [a0 + 0xb] = s0\n 47568: u8 [a0 + 0xa] = s1\n 47571: u8 [a0 + 0x8] = s1\n 47574: u8 [a0 + 0x7] = s0\n 47577: a2 = u64 [sp + 0x40]\n 47580: a1 = 0 if a2 != 0\n 47582: u8 [a0 + 6] = 0x75\n 47586: a2 = u64 [sp + 0x30]\n 47589: a1 = 0 if a2 != 0\n 47591: u8 [a0 + 5] = 0x74\n 47595: jump @702 if a1 == 0\n      : @700 (gas: 4)\n 47599: a0 = u64 [sp + 0x28]\n 47602: i32 a0 = a0 + 0x40\n 47605: a1 = 0x20\n 47608: ra = 612, jump @0\n      : @701 [@dyn 306] (gas: 54)\n 47615: u8 [a0 + 31] = 0\n 47618: u8 [a0 + 30] = 0\n 47621: u8 [a0 + 29] = 0\n 47624: u8 [a0 + 28] = 0\n 47627: u8 [a0 + 27] = 0\n 47630: u8 [a0 + 26] = 0\n 47633: u8 [a0 + 25] = 0\n 47636: u8 [a0 + 24] = 0\n 47639: u8 [a0 + 23] = 0\n 47642: u8 [a0 + 22] = 0\n 47645: u8 [a0 + 21] = 0\n 47648: u8 [a0 + 20] = 0\n 47651: u8 [a0 + 19] = 0\n 47654: u8 [a0 + 18] = 0\n 47657: u8 [a0 + 17] = 0\n 47660: u8 [a0 + 16] = 0\n 47663: u8 [a0 + 15] = 0\n 47666: u8 [a0 + 14] = 0\n 47669: u8 [a0 + 13] = 0\n 47672: u8 [a0 + 12] = 0\n 47675: u8 [a0 + 11] = 0\n 47678: u8 [a0 + 10] = 0\n 47681: u8 [a0 + 9] = 0\n 47684: u8 [a0 + 8] = 0\n 47687: u8 [a0 + 7] = 0\n 47690: u8 [a0 + 6] = 0\n 47693: u8 [a0 + 5] = 0\n 47696: u8 [a0 + 4] = 0\n 47699: u8 [a0 + 0x3] = s1\n 47702: u8 [a0 + 0x2] = s0\n 47705: u8 [a0 + 1] = 0x75\n 47709: u8 [a0 + 0] = 0x74\n 47712: a1 = u64 [sp]\n 47714: a0 = a1 + 0x80\n 47718: a1 = a0 <u a1\n 47721: a3 = u64 [sp + 0x8]\n 47724: a2 = a3 + a1\n 47727: a3 = a2 <u a3\n 47730: a3 = a1 if a1 == 0\n 47733: a1 = u64 [sp + 0x10]\n 47736: a3 = a3 + a1\n 47739: a1 = a3 <u a1\n 47742: a4 = u64 [sp + 0x18]\n 47745: a1 = a1 + a4\n 47748: a4 = u64 [sp + 0x20]\n 47751: u64 [a4] = a0\n 47753: u64 [a4 + 0x8] = a2\n 47756: u64 [a4 + 0x10] = a3\n 47759: u64 [a4 + 0x18] = a1\n 47762: ra = u64 [sp + 0x58]\n 47765: s0 = u64 [sp + 0x50]\n 47768: s1 = u64 [sp + 0x48]\n 47771: sp = sp + 0x60\n 47774: ret\n      : @702 (gas: 1)\n 47776: trap\n      : @703 [@dyn 307] (gas: 103)\n 47777: u64 [sp + 0x140] = s1\n 47781: a1 = reverse s1\n 47783: a2 = u64 [sp + 0x1f0]\n 47787: a2 = reverse a2\n 47789: a3 = u64 [sp + 0x1e0]\n 47793: a4 = reverse a3\n 47795: a3 = u64 [sp + 0x1d8]\n 47799: a3 = reverse a3\n 47801: u8 [a0 + 0x18] = a3\n 47804: u8 [a0 + 0x10] = a4\n 47807: u8 [a0 + 0x8] = a2\n 47810: u8 [a0] = a1\n 47812: a5 = a3 >> 0x38\n 47815: u64 [sp + 0x118] = a5\n 47819: u8 [a0 + 0x1f] = a5\n 47822: a5 = a3 >> 0x30\n 47825: u64 [sp + 0x110] = a5\n 47829: u8 [a0 + 0x1e] = a5\n 47832: a5 = a3 >> 0x28\n 47835: u64 [sp + 0x108] = a5\n 47839: u8 [a0 + 0x1d] = a5\n 47842: a5 = a3 >> 0x20\n 47845: u64 [sp + 0x100] = a5\n 47849: u8 [a0 + 0x1c] = a5\n 47852: a5 = a3 >> 0x18\n 47855: u64 [sp + 0xf8] = a5\n 47859: u8 [a0 + 0x1b] = a5\n 47862: a5 = a3 >> 0x10\n 47865: u64 [sp + 0xf0] = a5\n 47869: u8 [a0 + 0x1a] = a5\n 47872: u64 [sp + 0x198] = a3\n 47876: a3 = a3 >> 0x8\n 47879: u64 [sp + 0xe8] = a3\n 47883: u8 [a0 + 0x19] = a3\n 47886: a3 = a4 >> 0x38\n 47889: u64 [sp + 0xe0] = a3\n 47893: u8 [a0 + 0x17] = a3\n 47896: a3 = a4 >> 0x30\n 47899: u64 [sp + 0xd8] = a3\n 47903: u8 [a0 + 0x16] = a3\n 47906: a3 = a4 >> 0x28\n 47909: u64 [sp + 0xd0] = a3\n 47913: u8 [a0 + 0x15] = a3\n 47916: a3 = a4 >> 0x20\n 47919: u64 [sp + 0xc8] = a3\n 47923: u8 [a0 + 0x14] = a3\n 47926: a3 = a4 >> 0x18\n 47929: u64 [sp + 0xc0] = a3\n 47933: u8 [a0 + 0x13] = a3\n 47936: a3 = a4 >> 0x10\n 47939: u64 [sp + 0xb8] = a3\n 47943: u8 [a0 + 0x12] = a3\n 47946: u64 [sp + 0x190] = a4\n 47950: a4 = a4 >> 0x8\n 47953: u64 [sp + 0xb0] = a4\n 47957: u8 [a0 + 0x11] = a4\n 47960: a3 = a2 >> 0x38\n 47963: u64 [sp + 0xa8] = a3\n 47967: u8 [a0 + 0xf] = a3\n 47970: a3 = a2 >> 0x30\n 47973: u64 [sp + 0xa0] = a3\n 47977: u8 [a0 + 0xe] = a3\n 47980: a3 = a2 >> 0x28\n 47983: u64 [sp + 0x98] = a3\n 47987: u8 [a0 + 0xd] = a3\n 47990: a3 = a2 >> 0x20\n 47993: u64 [sp + 0x90] = a3\n 47997: u8 [a0 + 0xc] = a3\n 48000: a3 = a2 >> 0x18\n 48003: u64 [sp + 0x88] = a3\n 48007: u8 [a0 + 0xb] = a3\n 48010: a3 = a2 >> 0x10\n 48013: u64 [sp + 0x80] = a3\n 48017: u8 [a0 + 0xa] = a3\n 48020: u64 [sp + 0x1a0] = a2\n 48024: a2 = a2 >> 0x8\n 48027: u64 [sp + 0x78] = a2\n 48030: u8 [a0 + 0x9] = a2\n 48033: a2 = a1 >> 0x38\n 48036: u64 [sp + 0x70] = a2\n 48039: u8 [a0 + 0x7] = a2\n 48042: a2 = a1 >> 0x30\n 48045: u64 [sp + 0x68] = a2\n 48048: u8 [a0 + 0x6] = a2\n 48051: a2 = a1 >> 0x28\n 48054: u64 [sp + 0x60] = a2\n 48057: u8 [a0 + 0x5] = a2\n 48060: a2 = a1 >> 0x20\n 48063: u64 [sp + 0x58] = a2\n 48066: u8 [a0 + 0x4] = a2\n 48069: a2 = a1 >> 0x18\n 48072: u64 [sp + 0x50] = a2\n 48075: u8 [a0 + 0x3] = a2\n 48078: a2 = a1 >> 0x10\n 48081: u64 [sp + 0x48] = a2\n 48084: u8 [a0 + 0x2] = a2\n 48087: u64 [sp + 0x1a8] = a1\n 48091: a1 = a1 >> 0x8\n 48094: u64 [sp + 0x40] = a1\n 48097: u8 [a0 + 0x1] = a1\n 48100: a0 = 0x20\n 48103: a1 = 0x20\n 48106: ra = 616, jump @0\n      : @704 [@dyn 308] (gas: 35)\n 48113: u8 [a0 + 31] = 0x3\n 48117: u8 [a0 + 30] = 0\n 48120: u8 [a0 + 29] = 0\n 48123: u8 [a0 + 28] = 0\n 48126: u8 [a0 + 27] = 0\n 48129: u8 [a0 + 26] = 0\n 48132: u8 [a0 + 25] = 0\n 48135: u8 [a0 + 24] = 0\n 48138: u8 [a0 + 23] = 0\n 48141: u8 [a0 + 22] = 0\n 48144: u8 [a0 + 21] = 0\n 48147: u8 [a0 + 20] = 0\n 48150: u8 [a0 + 19] = 0\n 48153: u8 [a0 + 18] = 0\n 48156: u8 [a0 + 17] = 0\n 48159: u8 [a0 + 16] = 0\n 48162: u8 [a0 + 15] = 0\n 48165: u8 [a0 + 14] = 0\n 48168: u8 [a0 + 13] = 0\n 48171: u8 [a0 + 12] = 0\n 48174: u8 [a0 + 11] = 0\n 48177: u8 [a0 + 10] = 0\n 48180: u8 [a0 + 9] = 0\n 48183: u8 [a0 + 8] = 0\n 48186: u8 [a0 + 7] = 0\n 48189: u8 [a0 + 6] = 0\n 48192: u8 [a0 + 5] = 0\n 48195: u8 [a0 + 4] = 0\n 48198: u8 [a0 + 3] = 0\n 48201: u8 [a0 + 2] = 0\n 48204: u8 [a0 + 1] = 0\n 48207: u8 [a0 + 0] = 0\n 48209: a1 = 0x40\n 48212: a0 = 0\n 48214: ra = 618, jump @0\n      : @705 [@dyn 309] (gas: 14)\n 48221: i32 a0 = a0 + 0\n 48223: i32 a2 = sp + 0x540\n 48227: a1 = 0x40\n 48230: ecalli 8 // 'hash_keccak_256'\n 48232: a0 = u64 [sp + 0x540]\n 48236: u64 [sp + 0x218] = a0\n 48240: a0 = u64 [sp + 0x548]\n 48244: u64 [sp + 0x210] = a0\n 48248: a0 = u64 [sp + 0x550]\n 48252: u64 [sp + 0x1d0] = a0\n 48256: s1 = u64 [sp + 0x558]\n 48260: a1 = 0x20\n 48263: a0 = 0\n 48265: ra = 620, jump @0\n      : @706 [@dyn 310] (gas: 75)\n 48272: a1 = u64 [sp + 0x208]\n 48276: a2 = reverse a1\n 48278: a1 = u64 [sp + 0x200]\n 48282: a3 = reverse a1\n 48284: a1 = u64 [sp + 0x1f8]\n 48288: a5 = reverse a1\n 48290: a1 = u64 [sp + 0x1e8]\n 48294: a4 = reverse a1\n 48296: a1 = a4 >> 0x38\n 48299: u8 [a0 + 0x1f] = a1\n 48302: a1 = a4 >> 0x30\n 48305: u8 [a0 + 0x1e] = a1\n 48308: a1 = a4 >> 0x28\n 48311: u8 [a0 + 0x1d] = a1\n 48314: a1 = a4 >> 0x20\n 48317: u8 [a0 + 0x1c] = a1\n 48320: a1 = a4 >> 0x18\n 48323: u8 [a0 + 0x1b] = a1\n 48326: a1 = a4 >> 0x10\n 48329: u8 [a0 + 0x1a] = a1\n 48332: a1 = a4 >> 0x8\n 48335: u8 [a0 + 0x19] = a1\n 48338: u64 [sp + 0x28] = a4\n 48341: u8 [a0 + 0x18] = a4\n 48344: a1 = a5 >> 0x38\n 48347: u8 [a0 + 0x17] = a1\n 48350: a1 = a5 >> 0x30\n 48353: u8 [a0 + 0x16] = a1\n 48356: a1 = a5 >> 0x28\n 48359: u8 [a0 + 0x15] = a1\n 48362: a1 = a5 >> 0x20\n 48365: u8 [a0 + 0x14] = a1\n 48368: a1 = a5 >> 0x18\n 48371: u8 [a0 + 0x13] = a1\n 48374: a1 = a5 >> 0x10\n 48377: u8 [a0 + 0x12] = a1\n 48380: a1 = a5 >> 0x8\n 48383: u8 [a0 + 0x11] = a1\n 48386: u64 [sp + 0x20] = a5\n 48389: u8 [a0 + 0x10] = a5\n 48392: a1 = a3 >> 0x38\n 48395: u8 [a0 + 0xf] = a1\n 48398: a1 = a3 >> 0x30\n 48401: u8 [a0 + 0xe] = a1\n 48404: a1 = a3 >> 0x28\n 48407: u8 [a0 + 0xd] = a1\n 48410: a1 = a3 >> 0x20\n 48413: u8 [a0 + 0xc] = a1\n 48416: a1 = a3 >> 0x18\n 48419: u8 [a0 + 0xb] = a1\n 48422: a1 = a3 >> 0x10\n 48425: u8 [a0 + 0xa] = a1\n 48428: a1 = a3 >> 0x8\n 48431: u8 [a0 + 0x9] = a1\n 48434: u64 [sp + 0x30] = a3\n 48437: u8 [a0 + 0x8] = a3\n 48440: a1 = a2 >> 0x38\n 48443: u8 [a0 + 0x7] = a1\n 48446: a1 = a2 >> 0x30\n 48449: u8 [a0 + 0x6] = a1\n 48452: a1 = a2 >> 0x28\n 48455: u8 [a0 + 0x5] = a1\n 48458: a1 = a2 >> 0x20\n 48461: u8 [a0 + 0x4] = a1\n 48464: a1 = a2 >> 0x18\n 48467: u8 [a0 + 0x3] = a1\n 48470: a1 = a2 >> 0x10\n 48473: u8 [a0 + 0x2] = a1\n 48476: a1 = a2 >> 0x8\n 48479: u8 [a0 + 0x1] = a1\n 48482: u64 [sp + 0x38] = a2\n 48485: u8 [a0] = a2\n 48487: a0 = 0x20\n 48490: a1 = 0x20\n 48493: ra = 622, jump @0\n      : @707 [@dyn 311] (gas: 66)\n 48500: a1 = s1 >> 0x38\n 48503: u8 [a0 + 0x1f] = a1\n 48506: a1 = s1 >> 0x30\n 48509: u8 [a0 + 0x1e] = a1\n 48512: a1 = s1 >> 0x28\n 48515: u8 [a0 + 0x1d] = a1\n 48518: a1 = s1 >> 0x20\n 48521: u8 [a0 + 0x1c] = a1\n 48524: a1 = s1 >> 0x18\n 48527: u8 [a0 + 0x1b] = a1\n 48530: a1 = s1 >> 0x10\n 48533: u8 [a0 + 0x1a] = a1\n 48536: a1 = s1 >> 0x8\n 48539: u8 [a0 + 0x19] = a1\n 48542: u8 [a0 + 0x18] = s1\n 48545: a2 = u64 [sp + 0x1d0]\n 48549: a1 = a2 >> 0x38\n 48552: u8 [a0 + 0x17] = a1\n 48555: a1 = a2 >> 0x30\n 48558: u8 [a0 + 0x16] = a1\n 48561: a1 = a2 >> 0x28\n 48564: u8 [a0 + 0x15] = a1\n 48567: a1 = a2 >> 0x20\n 48570: u8 [a0 + 0x14] = a1\n 48573: a1 = a2 >> 0x18\n 48576: u8 [a0 + 0x13] = a1\n 48579: a1 = a2 >> 0x10\n 48582: u8 [a0 + 0x12] = a1\n 48585: a1 = a2 >> 0x8\n 48588: u8 [a0 + 0x11] = a1\n 48591: u8 [a0 + 0x10] = a2\n 48594: a2 = u64 [sp + 0x210]\n 48598: a1 = a2 >> 0x38\n 48601: u8 [a0 + 0xf] = a1\n 48604: a1 = a2 >> 0x30\n 48607: u8 [a0 + 0xe] = a1\n 48610: a1 = a2 >> 0x28\n 48613: u8 [a0 + 0xd] = a1\n 48616: a1 = a2 >> 0x20\n 48619: u8 [a0 + 0xc] = a1\n 48622: a1 = a2 >> 0x18\n 48625: u8 [a0 + 0xb] = a1\n 48628: a1 = a2 >> 0x10\n 48631: u8 [a0 + 0xa] = a1\n 48634: a1 = a2 >> 0x8\n 48637: u8 [a0 + 0x9] = a1\n 48640: u8 [a0 + 0x8] = a2\n 48643: a2 = u64 [sp + 0x218]\n 48647: a1 = a2 >> 0x38\n 48650: u8 [a0 + 0x7] = a1\n 48653: a1 = a2 >> 0x30\n 48656: u8 [a0 + 0x6] = a1\n 48659: a1 = a2 >> 0x28\n 48662: u8 [a0 + 0x5] = a1\n 48665: a1 = a2 >> 0x20\n 48668: u8 [a0 + 0x4] = a1\n 48671: a1 = a2 >> 0x18\n 48674: u8 [a0 + 0x3] = a1\n 48677: a1 = a2 >> 0x10\n 48680: u8 [a0 + 0x2] = a1\n 48683: a1 = a2 >> 0x8\n 48686: u8 [a0 + 0x1] = a1\n 48689: u8 [a0] = a2\n 48691: a1 = 0x40\n 48694: a0 = 0\n 48696: ra = 624, jump @0\n      : @708 [@dyn 312] (gas: 43)\n 48703: i32 a0 = a0 + 0\n 48705: i32 a2 = sp + 0x540\n 48709: a1 = 0x40\n 48712: ecalli 8 // 'hash_keccak_256'\n 48714: a0 = u64 [sp + 0x540]\n 48718: a1 = u64 [sp + 0x548]\n 48722: a2 = u64 [sp + 0x550]\n 48726: a3 = u64 [sp + 0x558]\n 48730: a5 = reverse a0\n 48732: a4 = reverse a1\n 48734: a1 = reverse a2\n 48736: a0 = reverse a3\n 48738: a2 = a0 + 0x2\n 48741: u64 [sp + 0x1b0] = a0\n 48745: a0 = a2 <u a0\n 48748: a3 = a1 + a0\n 48751: u64 [sp + 0x1b8] = a1\n 48755: a1 = a3 <u a1\n 48758: a1 = a0 if a0 == 0\n 48761: s1 = a4 + a1\n 48764: u64 [sp + 0x1c0] = a4\n 48768: a0 = s1 <u a4\n 48771: u64 [sp + 0x1c8] = a5\n 48775: a0 = a0 + a5\n 48778: u64 [sp + 0x210] = a3\n 48782: u64 [sp + 0x508] = a3\n 48786: u64 [sp + 0x218] = a2\n 48790: u64 [sp + 0x500] = a2\n 48794: u64 [sp + 0x510] = s1\n 48798: u64 [sp + 0x1d0] = a0\n 48802: u64 [sp + 0x518] = a0\n 48806: u64 [sp + 1368] = 0\n 48810: u64 [sp + 1360] = 0\n 48814: u64 [sp + 1352] = 0\n 48818: u64 [sp + 1344] = 0\n 48822: u32 [sp + 1312] = 0x20\n 48827: i32 a1 = sp + 0x500\n 48831: i32 a3 = sp + 0x540\n 48835: i32 a4 = sp + 0x520\n 48839: a2 = 0xffffffffffffffff\n 48842: a0 = 0\n 48844: ecalli 7 // 'get_storage'\n 48846: fallthrough\n      : @709 (gas: 2)\n 48847: a0 = u8 [sp + 0x540]\n 48851: jump @726 if a0 != 0\n      : @710 (gas: 20)\n 48855: u64 [sp + 0x188] = s1\n 48859: u64 [sp + 0x510] = s1\n 48863: a0 = u64 [sp + 0x210]\n 48867: u64 [sp + 0x508] = a0\n 48871: a0 = u64 [sp + 0x218]\n 48875: u64 [sp + 0x500] = a0\n 48879: a0 = u64 [sp + 0x1d0]\n 48883: u64 [sp + 0x518] = a0\n 48887: u64 [sp + 1368] = 0\n 48891: u64 [sp + 1360] = 0\n 48895: u64 [sp + 1352] = 0\n 48899: u64 [sp + 1344] = 0\n 48903: u32 [sp + 1312] = 0x20\n 48908: i32 a1 = sp + 0x500\n 48912: i32 a3 = sp + 0x540\n 48916: i32 a4 = sp + 0x520\n 48920: a2 = 0xffffffffffffffff\n 48923: a0 = 0\n 48925: ecalli 7 // 'get_storage'\n 48927: fallthrough\n      : @711 (gas: 2)\n 48928: a0 = u8 [sp + 0x541]\n 48932: jump @731 if a0 != 0\n      : @712 (gas: 29)\n 48936: a0 = u64 [sp + 0x120]\n 48940: u64 [sp + 0x400] = a0\n 48944: a0 = u64 [sp + 0x1e8]\n 48948: u64 [sp + 0x420] = a0\n 48952: a0 = u64 [sp + 0x1d8]\n 48956: u64 [sp + 0x440] = a0\n 48960: a0 = u64 [sp + 0x128]\n 48964: u64 [sp + 0x408] = a0\n 48968: a0 = u64 [sp + 0x1f8]\n 48972: u64 [sp + 0x428] = a0\n 48976: a0 = u64 [sp + 0x1e0]\n 48980: u64 [sp + 0x448] = a0\n 48984: a0 = u64 [sp + 0x130]\n 48988: u64 [sp + 0x410] = a0\n 48992: a0 = u64 [sp + 0x200]\n 48996: u64 [sp + 0x430] = a0\n 49000: a0 = u64 [sp + 0x1f0]\n 49004: u64 [sp + 0x450] = a0\n 49008: a0 = u64 [sp + 0x138]\n 49012: u64 [sp + 0x418] = a0\n 49016: a0 = u64 [sp + 0x208]\n 49020: u64 [sp + 0x438] = a0\n 49024: a0 = sp + 0x460\n 49028: a1 = sp + 0x440\n 49032: a2 = sp + 0x420\n 49036: a3 = sp + 0x400\n 49040: a4 = u64 [sp + 0x140]\n 49044: u64 [sp + 0x458] = a4\n 49048: ra = 626, jump @1598\n      : @713 [@dyn 313] (gas: 33)\n 49055: a0 = u64 [sp + 0x460]\n 49059: u64 [sp + 0x208] = a0\n 49063: a1 = u64 [sp + 0x468]\n 49067: u64 [sp + 0x200] = a1\n 49071: a1 = u64 [sp + 0x470]\n 49075: u64 [sp + 0x1f8] = a1\n 49079: s1 = u64 [sp + 0x478]\n 49083: a0 = u32 [0x20114]\n 49088: u64 [sp + 920] = 0\n 49092: u64 [sp + 912] = 0\n 49096: u64 [sp + 904] = 0\n 49100: u64 [sp + 0x380] = a0\n 49104: a0 = u64 [sp + 0x148]\n 49108: u64 [sp + 0x3b8] = a0\n 49112: a0 = u64 [sp + 0x150]\n 49116: u64 [sp + 0x3b0] = a0\n 49120: a0 = u64 [sp + 0x158]\n 49124: u64 [sp + 0x3a8] = a0\n 49128: a0 = u64 [sp + 0x160]\n 49132: u64 [sp + 0x3a0] = a0\n 49136: a0 = u64 [sp + 0x168]\n 49140: u64 [sp + 0x3d8] = a0\n 49144: a0 = u64 [sp + 0x170]\n 49148: u64 [sp + 0x3d0] = a0\n 49152: a0 = u64 [sp + 0x178]\n 49156: u64 [sp + 0x3c8] = a0\n 49160: a0 = sp + 0x3e0\n 49164: a1 = sp + 0x3c0\n 49168: a2 = sp + 0x3a0\n 49172: a3 = sp + 0x380\n 49176: a4 = u64 [sp + 0x180]\n 49180: u64 [sp + 0x3c0] = a4\n 49184: ra = 628, jump @671\n      : @714 [@dyn 314] (gas: 19)\n 49190: a0 = u64 [sp + 0x3e0]\n 49194: a1 = u64 [sp + 0x3e8]\n 49198: a2 = u64 [sp + 0x3f0]\n 49202: a3 = u64 [sp + 0x3f8]\n 49206: u64 [sp + 0x2f8] = a3\n 49210: u64 [sp + 0x2f0] = a2\n 49214: u64 [sp + 0x2e8] = a1\n 49218: u64 [sp + 0x2e0] = a0\n 49222: u64 [sp + 0x318] = s1\n 49226: a0 = u64 [sp + 0x1f8]\n 49230: u64 [sp + 0x310] = a0\n 49234: a0 = u64 [sp + 0x200]\n 49238: u64 [sp + 0x308] = a0\n 49242: a0 = sp + 0x320\n 49246: a1 = sp + 0x300\n 49250: a2 = sp + 0x2e0\n 49254: a3 = u64 [sp + 0x208]\n 49258: u64 [sp + 0x300] = a3\n 49262: ra = 630, jump @1717\n      : @715 [@dyn 315] (gas: 25)\n 49269: a0 = u64 [sp + 0x320]\n 49273: u64 [sp + 0x208] = a0\n 49277: a0 = u32 [sp + 0x330]\n 49281: u64 [sp + 0x200] = a0\n 49285: a0 = u64 [sp + 0x328]\n 49289: u64 [sp + 0x1f8] = a0\n 49293: t0 = u64 [sp + 0x340]\n 49297: a0 = u64 [sp + 0x348]\n 49301: a1 = u64 [sp + 0x350]\n 49305: a3 = u64 [sp + 0x358]\n 49309: a4 = u64 [sp + 0x360]\n 49313: a5 = u64 [sp + 0x368]\n 49317: s1 = u64 [sp + 0x370]\n 49321: a2 = u64 [sp + 0x378]\n 49325: u64 [sp + 0x2b8] = a2\n 49329: u64 [sp + 0x2b0] = s1\n 49333: u64 [sp + 0x2a8] = a5\n 49337: u64 [sp + 0x2a0] = a4\n 49341: u64 [sp + 0x2d8] = a3\n 49345: u64 [sp + 0x2d0] = a1\n 49349: u64 [sp + 0x2c8] = a0\n 49353: a0 = sp + 0x2c0\n 49357: a1 = sp + 0x2a0\n 49361: u64 [sp + 0x2c0] = t0\n 49365: ra = 632, jump @1732\n      : @716 [@dyn 316] (gas: 20)\n 49372: a0 = u64 [sp + 0x1c8]\n 49376: u64 [sp + 0x518] = a0\n 49380: a0 = u64 [sp + 0x1c0]\n 49384: u64 [sp + 0x510] = a0\n 49388: a0 = u64 [sp + 0x1b8]\n 49392: u64 [sp + 0x508] = a0\n 49396: a0 = u64 [sp + 0x1b0]\n 49400: u64 [sp + 0x500] = a0\n 49404: u64 [sp + 1368] = 0\n 49408: u64 [sp + 1360] = 0\n 49412: u64 [sp + 1352] = 0\n 49416: u64 [sp + 1344] = 0\n 49420: u32 [sp + 1312] = 0x20\n 49425: i32 a1 = sp + 0x500\n 49429: i32 a3 = sp + 0x540\n 49433: i32 a4 = sp + 0x520\n 49437: a2 = 0xffffffffffffffff\n 49440: a0 = 0\n 49442: ecalli 7 // 'get_storage'\n 49444: fallthrough\n      : @717 (gas: 12)\n 49445: a0 = u64 [sp + 0x548]\n 49449: a1 = u32 [sp + 0x550]\n 49453: a2 = u64 [sp + 0x540]\n 49457: a3 = u64 [sp + 0x1f8]\n 49461: a0 = a0 ^ a3\n 49464: a3 = u64 [sp + 0x200]\n 49468: a1 = a1 ^ a3\n 49471: a3 = u64 [sp + 0x208]\n 49475: a2 = a2 ^ a3\n 49478: a1 = a1 | a2\n 49481: a0 = a0 | a1\n 49484: jump @736 if a0 != 0\n      : @718 (gas: 47)\n 49488: a0 = 0xffffffff\n 49498: u64 [sp + 0x208] = a0\n 49502: a0 = u64 [sp + 0x188]\n 49506: u64 [sp + 0x510] = a0\n 49510: a0 = u64 [sp + 0x210]\n 49514: u64 [sp + 0x508] = a0\n 49518: a0 = u64 [sp + 0x218]\n 49522: u64 [sp + 0x500] = a0\n 49526: s1 = u64 [sp + 0x1d0]\n 49530: u64 [sp + 0x518] = s1\n 49534: u64 [sp + 1368] = 0\n 49538: u64 [sp + 1360] = 0\n 49542: u64 [sp + 1352] = 0\n 49546: u64 [sp + 1344] = 0\n 49550: u32 [sp + 1312] = 0x20\n 49555: i32 a1 = sp + 0x500\n 49559: i32 a3 = sp + 0x540\n 49563: i32 a4 = sp + 0x520\n 49567: a2 = 0xffffffffffffffff\n 49570: a0 = 0\n 49572: ecalli 7 // 'get_storage'\n 49574: a0 = u64 [sp + 0x540]\n 49578: a1 = u64 [sp + 0x548]\n 49582: a2 = u64 [sp + 0x550]\n 49586: a3 = u64 [sp + 0x558]\n 49590: a0 = a0 & 0xffffffffffffff00\n 49594: a0 = a0 | 0x1\n 49597: u64 [sp + 0x518] = s1\n 49601: a4 = u64 [sp + 0x188]\n 49605: u64 [sp + 0x510] = a4\n 49609: a4 = u64 [sp + 0x210]\n 49613: u64 [sp + 0x508] = a4\n 49617: a4 = u64 [sp + 0x218]\n 49621: u64 [sp + 0x500] = a4\n 49625: u64 [sp + 0x558] = a3\n 49629: u64 [sp + 0x550] = a2\n 49633: u64 [sp + 0x548] = a1\n 49637: u64 [sp + 0x540] = a0\n 49641: i32 a1 = sp + 0x500\n 49645: i32 a3 = sp + 0x540\n 49649: a2 = 0xffffffffffffffff\n 49652: a4 = 0x20\n 49655: a0 = 0\n 49657: ecalli 15 // 'set_storage'\n 49659: a1 = 0x20\n 49662: a0 = 0\n 49664: ra = 634, jump @0\n      : @719 [@dyn 317] (gas: 67)\n 49671: a1 = u64 [sp + 0x118]\n 49675: u8 [a0 + 0x1f] = a1\n 49678: a1 = u64 [sp + 0x110]\n 49682: u8 [a0 + 0x1e] = a1\n 49685: a1 = u64 [sp + 0x108]\n 49689: u8 [a0 + 0x1d] = a1\n 49692: a1 = u64 [sp + 0x100]\n 49696: u8 [a0 + 0x1c] = a1\n 49699: a1 = u64 [sp + 0xf8]\n 49703: u8 [a0 + 0x1b] = a1\n 49706: a1 = u64 [sp + 0xf0]\n 49710: u8 [a0 + 0x1a] = a1\n 49713: a1 = u64 [sp + 0xe8]\n 49717: u8 [a0 + 0x19] = a1\n 49720: a1 = u64 [sp + 0xe0]\n 49724: u8 [a0 + 0x17] = a1\n 49727: a1 = u64 [sp + 0xd8]\n 49731: u8 [a0 + 0x16] = a1\n 49734: a1 = u64 [sp + 0xd0]\n 49738: u8 [a0 + 0x15] = a1\n 49741: a1 = u64 [sp + 0xc8]\n 49745: u8 [a0 + 0x14] = a1\n 49748: a1 = u64 [sp + 0xc0]\n 49752: u8 [a0 + 0x13] = a1\n 49755: a1 = u64 [sp + 0xb8]\n 49759: u8 [a0 + 0x12] = a1\n 49762: a1 = u64 [sp + 0xb0]\n 49766: u8 [a0 + 0x11] = a1\n 49769: a1 = u64 [sp + 0xa8]\n 49773: u8 [a0 + 0xf] = a1\n 49776: a1 = u64 [sp + 0xa0]\n 49780: u8 [a0 + 0xe] = a1\n 49783: a1 = u64 [sp + 0x98]\n 49787: u8 [a0 + 0xd] = a1\n 49790: a1 = u64 [sp + 0x90]\n 49794: u8 [a0 + 0xc] = a1\n 49797: a1 = u64 [sp + 0x88]\n 49801: u8 [a0 + 0xb] = a1\n 49804: a1 = u64 [sp + 0x80]\n 49808: u8 [a0 + 0xa] = a1\n 49811: a1 = u64 [sp + 0x78]\n 49814: u8 [a0 + 0x9] = a1\n 49817: a1 = u64 [sp + 0x70]\n 49820: u8 [a0 + 0x7] = a1\n 49823: a1 = u64 [sp + 0x68]\n 49826: u8 [a0 + 0x6] = a1\n 49829: a1 = u64 [sp + 0x60]\n 49832: u8 [a0 + 0x5] = a1\n 49835: a1 = u64 [sp + 0x58]\n 49838: u8 [a0 + 0x4] = a1\n 49841: a1 = u64 [sp + 0x50]\n 49844: u8 [a0 + 0x3] = a1\n 49847: a1 = u64 [sp + 0x48]\n 49850: u8 [a0 + 0x2] = a1\n 49853: a1 = u64 [sp + 0x40]\n 49856: u8 [a0 + 0x1] = a1\n 49859: a1 = u64 [sp + 0x198]\n 49863: u8 [a0 + 0x18] = a1\n 49866: a1 = u64 [sp + 0x190]\n 49870: u8 [a0 + 0x10] = a1\n 49873: a1 = u64 [sp + 0x1a0]\n 49877: u8 [a0 + 0x8] = a1\n 49880: a1 = u64 [sp + 0x1a8]\n 49884: u8 [a0] = a1\n 49886: a0 = 0x20\n 49889: a1 = 0x20\n 49892: ra = 636, jump @0\n      : @720 [@dyn 318] (gas: 35)\n 49899: u8 [a0 + 31] = 0\n 49902: u8 [a0 + 30] = 0\n 49905: u8 [a0 + 29] = 0\n 49908: u8 [a0 + 28] = 0\n 49911: u8 [a0 + 27] = 0\n 49914: u8 [a0 + 26] = 0\n 49917: u8 [a0 + 25] = 0\n 49920: u8 [a0 + 24] = 0\n 49923: u8 [a0 + 23] = 0\n 49926: u8 [a0 + 22] = 0\n 49929: u8 [a0 + 21] = 0\n 49932: u8 [a0 + 20] = 0\n 49935: u8 [a0 + 19] = 0\n 49938: u8 [a0 + 18] = 0\n 49941: u8 [a0 + 17] = 0\n 49944: u8 [a0 + 16] = 0\n 49947: u8 [a0 + 15] = 0\n 49950: u8 [a0 + 14] = 0\n 49953: u8 [a0 + 13] = 0\n 49956: u8 [a0 + 12] = 0\n 49959: u8 [a0 + 11] = 0\n 49962: u8 [a0 + 10] = 0\n 49965: u8 [a0 + 9] = 0\n 49968: u8 [a0 + 8] = 0\n 49971: u8 [a0 + 7] = 0\n 49974: u8 [a0 + 6] = 0\n 49977: u8 [a0 + 5] = 0\n 49980: u8 [a0 + 4] = 0\n 49983: u8 [a0 + 3] = 0\n 49986: u8 [a0 + 2] = 0\n 49989: u8 [a0 + 1] = 0\n 49992: u8 [a0 + 0] = 0\n 49994: a1 = 0x40\n 49997: a0 = 0\n 49999: ra = 638, jump @0\n      : @721 [@dyn 319] (gas: 80)\n 50006: i32 a0 = a0 + 0\n 50008: i32 a2 = sp + 0x540\n 50012: a1 = 0x40\n 50015: ecalli 8 // 'hash_keccak_256'\n 50017: a0 = u64 [sp + 0x558]\n 50021: a1 = u64 [sp + 0x550]\n 50025: a2 = u64 [sp + 0x548]\n 50029: a3 = u64 [sp + 0x540]\n 50033: a0 = reverse a0\n 50035: a1 = reverse a1\n 50037: a2 = reverse a2\n 50039: a3 = reverse a3\n 50041: u64 [sp + 0x518] = a3\n 50045: u64 [sp + 0x510] = a2\n 50049: u64 [sp + 0x508] = a1\n 50053: u64 [sp + 0x500] = a0\n 50057: u64 [sp + 1368] = 0\n 50061: u64 [sp + 1360] = 0\n 50065: u64 [sp + 1352] = 0\n 50069: u64 [sp + 1344] = 0\n 50073: u32 [sp + 1312] = 0x20\n 50078: i32 a1 = sp + 0x500\n 50082: i32 a3 = sp + 0x540\n 50086: i32 a4 = sp + 0x520\n 50090: a2 = 0xffffffffffffffff\n 50093: a0 = 0\n 50095: ecalli 7 // 'get_storage'\n 50097: a0 = u64 [sp + 0x540]\n 50101: a1 = u64 [sp + 0x548]\n 50105: a2 = u64 [sp + 0x550]\n 50109: a0 = a0 & 0xffffffffffffffff\n 50112: u64 [sp + 0x218] = a0\n 50116: a1 = a1 & 0xffffffffffffffff\n 50119: u64 [sp + 0x210] = a1\n 50123: s1 = u64 [sp + 0x208]\n 50127: s1 = s1 & a2\n 50130: a0 = u64 [sp + 0x1b0]\n 50134: a0 = a0 + 0x1\n 50137: a1 = a0 <u 0x1\n 50140: a2 = u64 [sp + 0x1b8]\n 50144: a1 = a1 + a2\n 50147: a2 = a0 | a1\n 50150: a2 = a2 <u 0x1\n 50153: a3 = u64 [sp + 0x1c0]\n 50157: a2 = a2 + a3\n 50160: a3 = a2 <u a3\n 50163: a4 = u64 [sp + 0x1c8]\n 50167: a3 = a3 + a4\n 50170: u64 [sp + 0x518] = a3\n 50174: u64 [sp + 0x510] = a2\n 50178: u64 [sp + 0x508] = a1\n 50182: u64 [sp + 0x500] = a0\n 50186: u64 [sp + 1368] = 0\n 50190: u64 [sp + 1360] = 0\n 50194: u64 [sp + 1352] = 0\n 50198: u64 [sp + 1344] = 0\n 50202: u32 [sp + 1312] = 0x20\n 50207: i32 a1 = sp + 0x500\n 50211: i32 a3 = sp + 0x540\n 50215: i32 a4 = sp + 0x520\n 50219: a2 = 0xffffffffffffffff\n 50222: a0 = 0\n 50224: ecalli 7 // 'get_storage'\n 50226: a0 = u64 [sp + 0x540]\n 50230: a1 = u64 [sp + 0x548]\n 50234: a2 = u64 [sp + 0x550]\n 50238: a3 = u64 [sp + 0x558]\n 50242: u64 [sp + 0x238] = a3\n 50246: u64 [sp + 0x230] = a2\n 50250: u64 [sp + 0x228] = a1\n 50254: u64 [sp + 0x220] = a0\n 50258: u64 [sp + 600] = 0\n 50262: u64 [sp + 0x250] = s1\n 50266: a0 = u64 [sp + 0x210]\n 50270: u64 [sp + 0x248] = a0\n 50274: a0 = sp + 0x240\n 50278: a1 = sp + 0x220\n 50282: a2 = u64 [sp + 0x218]\n 50286: u64 [sp + 0x240] = a2\n 50290: ra = 640, jump @1645\n      : @722 [@dyn 320] (gas: 3)\n 50297: a0 = 0x40\n 50300: a1 = 0x20\n 50303: ra = 642, jump @0\n      : @723 [@dyn 321] (gas: 100)\n 50310: a1 = u8 [a0 + 0x11]\n 50313: a2 = u8 [a0 + 0x10]\n 50316: a3 = u8 [a0 + 0x12]\n 50319: a4 = u8 [a0 + 0x13]\n 50322: a1 = a1 << 0x8\n 50325: a1 = a1 | a2\n 50328: a3 = a3 << 0x10\n 50331: a4 = a4 << 0x18\n 50334: a3 = a3 | a4\n 50337: a1 = a1 | a3\n 50340: a2 = u8 [a0 + 0x15]\n 50343: a3 = u8 [a0 + 0x14]\n 50346: a4 = u8 [a0 + 0x16]\n 50349: a5 = u8 [a0 + 0x17]\n 50352: a2 = a2 << 0x8\n 50355: a2 = a2 | a3\n 50358: a4 = a4 << 0x10\n 50361: a5 = a5 << 0x18\n 50364: a4 = a4 | a5\n 50367: a2 = a2 | a4\n 50370: a2 = a2 << 0x20\n 50373: t0 = a2 | a1\n 50376: a2 = u8 [a0 + 0x1]\n 50379: a3 = u8 [a0]\n 50381: a4 = u8 [a0 + 0x2]\n 50384: a5 = u8 [a0 + 0x3]\n 50387: a2 = a2 << 0x8\n 50390: a2 = a2 | a3\n 50393: a4 = a4 << 0x10\n 50396: a5 = a5 << 0x18\n 50399: a4 = a4 | a5\n 50402: a2 = a2 | a4\n 50405: a3 = u8 [a0 + 0x5]\n 50408: a4 = u8 [a0 + 0x4]\n 50411: a5 = u8 [a0 + 0x6]\n 50414: s1 = u8 [a0 + 0x7]\n 50417: a3 = a3 << 0x8\n 50420: a3 = a3 | a4\n 50423: a5 = a5 << 0x10\n 50426: s1 = s1 << 0x18\n 50429: a5 = a5 | s1\n 50432: a3 = a3 | a5\n 50435: a3 = a3 << 0x20\n 50438: a2 = a2 | a3\n 50441: a3 = u8 [a0 + 0x19]\n 50444: a4 = u8 [a0 + 0x18]\n 50447: a5 = u8 [a0 + 0x1a]\n 50450: s1 = u8 [a0 + 0x1b]\n 50453: a3 = a3 << 0x8\n 50456: a3 = a3 | a4\n 50459: a5 = a5 << 0x10\n 50462: s1 = s1 << 0x18\n 50465: a5 = a5 | s1\n 50468: a3 = a3 | a5\n 50471: a4 = u8 [a0 + 0x1d]\n 50474: a5 = u8 [a0 + 0x1c]\n 50477: s1 = u8 [a0 + 0x1e]\n 50480: a1 = u8 [a0 + 0x1f]\n 50483: a4 = a4 << 0x8\n 50486: a4 = a4 | a5\n 50489: s1 = s1 << 0x10\n 50492: a1 = a1 << 0x18\n 50495: a1 = a1 | s1\n 50498: a1 = a1 | a4\n 50501: a1 = a1 << 0x20\n 50504: a3 = a3 | a1\n 50507: a1 = u8 [a0 + 0x9]\n 50510: a4 = u8 [a0 + 0x8]\n 50513: a5 = u8 [a0 + 0xa]\n 50516: s1 = u8 [a0 + 0xb]\n 50519: a1 = a1 << 0x8\n 50522: a1 = a1 | a4\n 50525: a5 = a5 << 0x10\n 50528: s1 = s1 << 0x18\n 50531: a5 = a5 | s1\n 50534: a1 = a1 | a5\n 50537: a4 = u8 [a0 + 0xd]\n 50540: a5 = u8 [a0 + 0xc]\n 50543: s1 = u8 [a0 + 0xe]\n 50546: a0 = u8 [a0 + 0xf]\n 50549: a4 = a4 << 0x8\n 50552: a4 = a4 | a5\n 50555: s1 = s1 << 0x10\n 50558: a0 = a0 << 0x18\n 50561: a0 = a0 | s1\n 50564: a0 = a0 | a4\n 50567: a0 = a0 << 0x20\n 50570: a0 = a0 | a1\n 50573: a1 = reverse a0\n 50575: a0 = reverse a3\n 50577: a2 = reverse a2\n 50579: a3 = reverse t0\n 50581: a2 = a2 | a3\n 50584: a3 = a0 | a1\n 50587: a3 = a3 | a2\n 50590: a3 = a3 >> 0x20\n 50593: a1 = a1 | a2\n 50596: a1 = a1 << 0x20\n 50599: a1 = a1 | a3\n 50602: jump @742 if a1 != 0\n      : @724 (gas: 2)\n 50606: i32 a0 = a0 + 0\n 50608: ra = 644, jump @0\n      : @725 [@dyn 322] (gas: 35)\n 50615: a1 = u64 [0x20000]\n 50620: a2 = u64 [0x20008]\n 50625: a3 = u64 [0x20010]\n 50630: a4 = u64 [0x20018]\n 50635: u64 [sp + 0x558] = a1\n 50639: u64 [sp + 0x550] = a2\n 50643: u64 [sp + 0x548] = a3\n 50647: u64 [sp + 0x540] = a4\n 50651: a1 = u64 [sp + 0x190]\n 50655: u64 [sp + 0x570] = a1\n 50659: a1 = u64 [sp + 0x1a0]\n 50663: u64 [sp + 0x568] = a1\n 50667: a1 = u64 [sp + 0x1a8]\n 50671: u64 [sp + 0x560] = a1\n 50675: a1 = u64 [sp + 0x198]\n 50679: u64 [sp + 0x578] = a1\n 50683: a1 = u64 [sp + 0x20]\n 50686: u64 [sp + 0x590] = a1\n 50690: a1 = u64 [sp + 0x30]\n 50693: u64 [sp + 0x588] = a1\n 50697: a1 = u64 [sp + 0x38]\n 50700: u64 [sp + 0x580] = a1\n 50704: a1 = u64 [sp + 0x28]\n 50707: u64 [sp + 0x598] = a1\n 50711: i32 a2 = a0 + 0\n 50713: i32 a0 = sp + 0x540\n 50717: a1 = 0x3\n 50720: a3 = 0\n 50722: ecalli 6 // 'deposit_event'\n 50724: sp = s0 + 0xfffffffffffffa40\n 50728: ra = u64 [sp + 0x5b8]\n 50732: s0 = u64 [sp + 0x5b0]\n 50736: s1 = u64 [sp + 0x5a8]\n 50740: sp = sp + 0x5c0\n 50744: ret\n      : @726 (gas: 3)\n 50746: a0 = 0x40\n 50749: a1 = 0x20\n 50752: ra = 646, jump @0\n      : @727 [@dyn 323] (gas: 103)\n 50759: a1 = u8 [a0 + 0x11]\n 50762: a2 = u8 [a0 + 0x10]\n 50765: a3 = u8 [a0 + 0x12]\n 50768: a4 = u8 [a0 + 0x13]\n 50771: a1 = a1 << 0x8\n 50774: a1 = a1 | a2\n 50777: a3 = a3 << 0x10\n 50780: a4 = a4 << 0x18\n 50783: a3 = a3 | a4\n 50786: a1 = a1 | a3\n 50789: a2 = u8 [a0 + 0x15]\n 50792: a3 = u8 [a0 + 0x14]\n 50795: a4 = u8 [a0 + 0x16]\n 50798: a5 = u8 [a0 + 0x17]\n 50801: a2 = a2 << 0x8\n 50804: a2 = a2 | a3\n 50807: a4 = a4 << 0x10\n 50810: a5 = a5 << 0x18\n 50813: a4 = a4 | a5\n 50816: a2 = a2 | a4\n 50819: a2 = a2 << 0x20\n 50822: t0 = a2 | a1\n 50825: a2 = u8 [a0 + 0x1]\n 50828: a3 = u8 [a0]\n 50830: a4 = u8 [a0 + 0x2]\n 50833: a5 = u8 [a0 + 0x3]\n 50836: a2 = a2 << 0x8\n 50839: a2 = a2 | a3\n 50842: a4 = a4 << 0x10\n 50845: a5 = a5 << 0x18\n 50848: a4 = a4 | a5\n 50851: a2 = a2 | a4\n 50854: a3 = u8 [a0 + 0x5]\n 50857: a4 = u8 [a0 + 0x4]\n 50860: a5 = u8 [a0 + 0x6]\n 50863: s1 = u8 [a0 + 0x7]\n 50866: a3 = a3 << 0x8\n 50869: a3 = a3 | a4\n 50872: a5 = a5 << 0x10\n 50875: s1 = s1 << 0x18\n 50878: a5 = a5 | s1\n 50881: a3 = a3 | a5\n 50884: a3 = a3 << 0x20\n 50887: a2 = a2 | a3\n 50890: a3 = u8 [a0 + 0x19]\n 50893: a4 = u8 [a0 + 0x18]\n 50896: a5 = u8 [a0 + 0x1a]\n 50899: s1 = u8 [a0 + 0x1b]\n 50902: a3 = a3 << 0x8\n 50905: a3 = a3 | a4\n 50908: a5 = a5 << 0x10\n 50911: s1 = s1 << 0x18\n 50914: a5 = a5 | s1\n 50917: a3 = a3 | a5\n 50920: a4 = u8 [a0 + 0x1d]\n 50923: a5 = u8 [a0 + 0x1c]\n 50926: s1 = u8 [a0 + 0x1e]\n 50929: a1 = u8 [a0 + 0x1f]\n 50932: a4 = a4 << 0x8\n 50935: a4 = a4 | a5\n 50938: s1 = s1 << 0x10\n 50941: a1 = a1 << 0x18\n 50944: a1 = a1 | s1\n 50947: a1 = a1 | a4\n 50950: a1 = a1 << 0x20\n 50953: a3 = a3 | a1\n 50956: a1 = u8 [a0 + 0x9]\n 50959: a4 = u8 [a0 + 0x8]\n 50962: a5 = u8 [a0 + 0xa]\n 50965: s1 = u8 [a0 + 0xb]\n 50968: a1 = a1 << 0x8\n 50971: a1 = a1 | a4\n 50974: a5 = a5 << 0x10\n 50977: s1 = s1 << 0x18\n 50980: a5 = a5 | s1\n 50983: a1 = a1 | a5\n 50986: a4 = u8 [a0 + 0xd]\n 50989: a5 = u8 [a0 + 0xc]\n 50992: s1 = u8 [a0 + 0xe]\n 50995: a0 = u8 [a0 + 0xf]\n 50998: a4 = a4 << 0x8\n 51001: a4 = a4 | a5\n 51004: s1 = s1 << 0x10\n 51007: a0 = a0 << 0x18\n 51010: a0 = a0 | s1\n 51013: a0 = a0 | a4\n 51016: a0 = a0 << 0x20\n 51019: a0 = a0 | a1\n 51022: s1 = reverse a0\n 51024: a1 = reverse a3\n 51026: a2 = reverse a2\n 51028: a0 = reverse t0\n 51030: u64 [sp + 0x218] = a0\n 51034: u64 [sp + 0x210] = a2\n 51038: a0 = a0 | a2\n 51041: a2 = a1\n 51043: a1 = a1 | s1\n 51046: a1 = a1 | a0\n 51049: a1 = a1 >> 0x20\n 51052: a0 = a0 | s1\n 51055: a0 = a0 << 0x20\n 51058: a0 = a0 | a1\n 51061: jump @742 if a0 != 0\n      : @728 (gas: 5)\n 51065: u64 [sp + 0x208] = a2\n 51069: i32 a0 = a2 + 0\n 51071: a1 = 0x20\n 51074: u64 [sp + 0x200] = a0\n 51078: ra = 648, jump @0\n      : @729 [@dyn 324] (gas: 50)\n 51085: u8 [a0 + 31] = 0\n 51088: u8 [a0 + 30] = 0\n 51091: u8 [a0 + 29] = 0\n 51094: u8 [a0 + 28] = 0\n 51097: u8 [a0 + 27] = 0\n 51100: u8 [a0 + 26] = 0\n 51103: u8 [a0 + 25] = 0\n 51106: u8 [a0 + 24] = 0\n 51109: u8 [a0 + 23] = 0\n 51112: u8 [a0 + 22] = 0\n 51115: u8 [a0 + 21] = 0\n 51118: u8 [a0 + 20] = 0\n 51121: u8 [a0 + 19] = 0\n 51124: u8 [a0 + 18] = 0\n 51127: u8 [a0 + 17] = 0\n 51130: u8 [a0 + 16] = 0\n 51133: u8 [a0 + 15] = 0\n 51136: u8 [a0 + 14] = 0\n 51139: u8 [a0 + 13] = 0\n 51142: u8 [a0 + 12] = 0\n 51145: u8 [a0 + 11] = 0\n 51148: u8 [a0 + 10] = 0\n 51151: u8 [a0 + 9] = 0\n 51154: u8 [a0 + 8] = 0\n 51157: u8 [a0 + 7] = 0\n 51160: u8 [a0 + 6] = 0\n 51163: u8 [a0 + 5] = 0\n 51166: u8 [a0 + 4] = 0\n 51169: u8 [a0 + 3] = 0xa0\n 51174: u8 [a0 + 2] = 0x79\n 51178: u8 [a0 + 1] = 0xc3\n 51183: u8 [a0 + 0] = 0x8\n 51186: a1 = u64 [sp + 0x208]\n 51190: a0 = a1 + 0x4\n 51193: a1 = a0 <u a1\n 51196: a3 = u64 [sp + 0x218]\n 51200: a2 = a3 + a1\n 51203: a3 = a2 <u a3\n 51206: a3 = a1 if a1 == 0\n 51209: a3 = a3 + s1\n 51212: a1 = a3 <u s1\n 51215: a4 = u64 [sp + 0x210]\n 51219: a4 = a4 + a1\n 51222: u64 [sp + 0x4c8] = a2\n 51226: u64 [sp + 0x4c0] = a0\n 51230: u64 [sp + 0x4d0] = a3\n 51234: a0 = sp + 0x4e0\n 51238: a1 = sp + 0x4c0\n 51242: u64 [sp + 0x4d8] = a4\n 51246: ra = 650, jump @631\n      : @730 [@dyn 325] (gas: 5)\n 51252: a0 = u64 [sp + 0x4e8]\n 51256: t0 = u64 [sp + 0x4f8]\n 51260: t1 = u64 [sp + 0x4e0]\n 51264: a3 = u64 [sp + 0x4f0]\n 51268: jump @741\n      : @731 (gas: 3)\n 51271: a0 = 0x40\n 51274: a1 = 0x20\n 51277: ra = 652, jump @0\n      : @732 [@dyn 326] (gas: 103)\n 51284: a1 = u8 [a0 + 0x11]\n 51287: a2 = u8 [a0 + 0x10]\n 51290: a3 = u8 [a0 + 0x12]\n 51293: a4 = u8 [a0 + 0x13]\n 51296: a1 = a1 << 0x8\n 51299: a1 = a1 | a2\n 51302: a3 = a3 << 0x10\n 51305: a4 = a4 << 0x18\n 51308: a3 = a3 | a4\n 51311: a1 = a1 | a3\n 51314: a2 = u8 [a0 + 0x15]\n 51317: a3 = u8 [a0 + 0x14]\n 51320: a4 = u8 [a0 + 0x16]\n 51323: a5 = u8 [a0 + 0x17]\n 51326: a2 = a2 << 0x8\n 51329: a2 = a2 | a3\n 51332: a4 = a4 << 0x10\n 51335: a5 = a5 << 0x18\n 51338: a4 = a4 | a5\n 51341: a2 = a2 | a4\n 51344: a2 = a2 << 0x20\n 51347: t0 = a2 | a1\n 51350: a2 = u8 [a0 + 0x1]\n 51353: a3 = u8 [a0]\n 51355: a4 = u8 [a0 + 0x2]\n 51358: a5 = u8 [a0 + 0x3]\n 51361: a2 = a2 << 0x8\n 51364: a2 = a2 | a3\n 51367: a4 = a4 << 0x10\n 51370: a5 = a5 << 0x18\n 51373: a4 = a4 | a5\n 51376: a2 = a2 | a4\n 51379: a3 = u8 [a0 + 0x5]\n 51382: a4 = u8 [a0 + 0x4]\n 51385: a5 = u8 [a0 + 0x6]\n 51388: s1 = u8 [a0 + 0x7]\n 51391: a3 = a3 << 0x8\n 51394: a3 = a3 | a4\n 51397: a5 = a5 << 0x10\n 51400: s1 = s1 << 0x18\n 51403: a5 = a5 | s1\n 51406: a3 = a3 | a5\n 51409: a3 = a3 << 0x20\n 51412: a2 = a2 | a3\n 51415: a3 = u8 [a0 + 0x19]\n 51418: a4 = u8 [a0 + 0x18]\n 51421: a5 = u8 [a0 + 0x1a]\n 51424: s1 = u8 [a0 + 0x1b]\n 51427: a3 = a3 << 0x8\n 51430: a3 = a3 | a4\n 51433: a5 = a5 << 0x10\n 51436: s1 = s1 << 0x18\n 51439: a5 = a5 | s1\n 51442: a3 = a3 | a5\n 51445: a4 = u8 [a0 + 0x1d]\n 51448: a5 = u8 [a0 + 0x1c]\n 51451: s1 = u8 [a0 + 0x1e]\n 51454: a1 = u8 [a0 + 0x1f]\n 51457: a4 = a4 << 0x8\n 51460: a4 = a4 | a5\n 51463: s1 = s1 << 0x10\n 51466: a1 = a1 << 0x18\n 51469: a1 = a1 | s1\n 51472: a1 = a1 | a4\n 51475: a1 = a1 << 0x20\n 51478: a3 = a3 | a1\n 51481: a1 = u8 [a0 + 0x9]\n 51484: a4 = u8 [a0 + 0x8]\n 51487: a5 = u8 [a0 + 0xa]\n 51490: s1 = u8 [a0 + 0xb]\n 51493: a1 = a1 << 0x8\n 51496: a1 = a1 | a4\n 51499: a5 = a5 << 0x10\n 51502: s1 = s1 << 0x18\n 51505: a5 = a5 | s1\n 51508: a1 = a1 | a5\n 51511: a4 = u8 [a0 + 0xd]\n 51514: a5 = u8 [a0 + 0xc]\n 51517: s1 = u8 [a0 + 0xe]\n 51520: a0 = u8 [a0 + 0xf]\n 51523: a4 = a4 << 0x8\n 51526: a4 = a4 | a5\n 51529: s1 = s1 << 0x10\n 51532: a0 = a0 << 0x18\n 51535: a0 = a0 | s1\n 51538: a0 = a0 | a4\n 51541: a0 = a0 << 0x20\n 51544: a0 = a0 | a1\n 51547: s1 = reverse a0\n 51549: a1 = reverse a3\n 51551: a2 = reverse a2\n 51553: a0 = reverse t0\n 51555: u64 [sp + 0x218] = a0\n 51559: u64 [sp + 0x210] = a2\n 51563: a0 = a0 | a2\n 51566: a2 = a1\n 51568: a1 = a1 | s1\n 51571: a1 = a1 | a0\n 51574: a1 = a1 >> 0x20\n 51577: a0 = a0 | s1\n 51580: a0 = a0 << 0x20\n 51583: a0 = a0 | a1\n 51586: jump @742 if a0 != 0\n      : @733 (gas: 5)\n 51590: u64 [sp + 0x208] = a2\n 51594: i32 a0 = a2 + 0\n 51596: a1 = 0x20\n 51599: u64 [sp + 0x200] = a0\n 51603: ra = 654, jump @0\n      : @734 [@dyn 327] (gas: 50)\n 51610: u8 [a0 + 31] = 0\n 51613: u8 [a0 + 30] = 0\n 51616: u8 [a0 + 29] = 0\n 51619: u8 [a0 + 28] = 0\n 51622: u8 [a0 + 27] = 0\n 51625: u8 [a0 + 26] = 0\n 51628: u8 [a0 + 25] = 0\n 51631: u8 [a0 + 24] = 0\n 51634: u8 [a0 + 23] = 0\n 51637: u8 [a0 + 22] = 0\n 51640: u8 [a0 + 21] = 0\n 51643: u8 [a0 + 20] = 0\n 51646: u8 [a0 + 19] = 0\n 51649: u8 [a0 + 18] = 0\n 51652: u8 [a0 + 17] = 0\n 51655: u8 [a0 + 16] = 0\n 51658: u8 [a0 + 15] = 0\n 51661: u8 [a0 + 14] = 0\n 51664: u8 [a0 + 13] = 0\n 51667: u8 [a0 + 12] = 0\n 51670: u8 [a0 + 11] = 0\n 51673: u8 [a0 + 10] = 0\n 51676: u8 [a0 + 9] = 0\n 51679: u8 [a0 + 8] = 0\n 51682: u8 [a0 + 7] = 0\n 51685: u8 [a0 + 6] = 0\n 51688: u8 [a0 + 5] = 0\n 51691: u8 [a0 + 4] = 0\n 51694: u8 [a0 + 3] = 0xa0\n 51699: u8 [a0 + 2] = 0x79\n 51703: u8 [a0 + 1] = 0xc3\n 51708: u8 [a0 + 0] = 0x8\n 51711: a1 = u64 [sp + 0x208]\n 51715: a0 = a1 + 0x4\n 51718: a1 = a0 <u a1\n 51721: a3 = u64 [sp + 0x218]\n 51725: a2 = a3 + a1\n 51728: a3 = a2 <u a3\n 51731: a3 = a1 if a1 == 0\n 51734: a3 = a3 + s1\n 51737: a1 = a3 <u s1\n 51740: a4 = u64 [sp + 0x210]\n 51744: a4 = a4 + a1\n 51747: u64 [sp + 0x488] = a2\n 51751: u64 [sp + 0x480] = a0\n 51755: u64 [sp + 0x490] = a3\n 51759: a0 = sp + 0x4a0\n 51763: a1 = sp + 0x480\n 51767: u64 [sp + 0x498] = a4\n 51771: ra = 656, jump @639\n      : @735 [@dyn 328] (gas: 5)\n 51777: a0 = u64 [sp + 0x4a8]\n 51781: t0 = u64 [sp + 0x4b8]\n 51785: t1 = u64 [sp + 0x4a0]\n 51789: a3 = u64 [sp + 0x4b0]\n 51793: jump @741\n      : @736 (gas: 3)\n 51796: a0 = 0x40\n 51799: a1 = 0x20\n 51802: ra = 658, jump @0\n      : @737 [@dyn 329] (gas: 103)\n 51809: a1 = u8 [a0 + 0x11]\n 51812: a2 = u8 [a0 + 0x10]\n 51815: a3 = u8 [a0 + 0x12]\n 51818: a4 = u8 [a0 + 0x13]\n 51821: a1 = a1 << 0x8\n 51824: a1 = a1 | a2\n 51827: a3 = a3 << 0x10\n 51830: a4 = a4 << 0x18\n 51833: a3 = a3 | a4\n 51836: a1 = a1 | a3\n 51839: a2 = u8 [a0 + 0x15]\n 51842: a3 = u8 [a0 + 0x14]\n 51845: a4 = u8 [a0 + 0x16]\n 51848: a5 = u8 [a0 + 0x17]\n 51851: a2 = a2 << 0x8\n 51854: a2 = a2 | a3\n 51857: a4 = a4 << 0x10\n 51860: a5 = a5 << 0x18\n 51863: a4 = a4 | a5\n 51866: a2 = a2 | a4\n 51869: a2 = a2 << 0x20\n 51872: t0 = a2 | a1\n 51875: a2 = u8 [a0 + 0x1]\n 51878: a3 = u8 [a0]\n 51880: a4 = u8 [a0 + 0x2]\n 51883: a5 = u8 [a0 + 0x3]\n 51886: a2 = a2 << 0x8\n 51889: a2 = a2 | a3\n 51892: a4 = a4 << 0x10\n 51895: a5 = a5 << 0x18\n 51898: a4 = a4 | a5\n 51901: a2 = a2 | a4\n 51904: a3 = u8 [a0 + 0x5]\n 51907: a4 = u8 [a0 + 0x4]\n 51910: a5 = u8 [a0 + 0x6]\n 51913: s1 = u8 [a0 + 0x7]\n 51916: a3 = a3 << 0x8\n 51919: a3 = a3 | a4\n 51922: a5 = a5 << 0x10\n 51925: s1 = s1 << 0x18\n 51928: a5 = a5 | s1\n 51931: a3 = a3 | a5\n 51934: a3 = a3 << 0x20\n 51937: a2 = a2 | a3\n 51940: a3 = u8 [a0 + 0x19]\n 51943: a4 = u8 [a0 + 0x18]\n 51946: a5 = u8 [a0 + 0x1a]\n 51949: s1 = u8 [a0 + 0x1b]\n 51952: a3 = a3 << 0x8\n 51955: a3 = a3 | a4\n 51958: a5 = a5 << 0x10\n 51961: s1 = s1 << 0x18\n 51964: a5 = a5 | s1\n 51967: a3 = a3 | a5\n 51970: a4 = u8 [a0 + 0x1d]\n 51973: a5 = u8 [a0 + 0x1c]\n 51976: s1 = u8 [a0 + 0x1e]\n 51979: a1 = u8 [a0 + 0x1f]\n 51982: a4 = a4 << 0x8\n 51985: a4 = a4 | a5\n 51988: s1 = s1 << 0x10\n 51991: a1 = a1 << 0x18\n 51994: a1 = a1 | s1\n 51997: a1 = a1 | a4\n 52000: a1 = a1 << 0x20\n 52003: a3 = a3 | a1\n 52006: a1 = u8 [a0 + 0x9]\n 52009: a4 = u8 [a0 + 0x8]\n 52012: a5 = u8 [a0 + 0xa]\n 52015: s1 = u8 [a0 + 0xb]\n 52018: a1 = a1 << 0x8\n 52021: a1 = a1 | a4\n 52024: a5 = a5 << 0x10\n 52027: s1 = s1 << 0x18\n 52030: a5 = a5 | s1\n 52033: a1 = a1 | a5\n 52036: a4 = u8 [a0 + 0xd]\n 52039: a5 = u8 [a0 + 0xc]\n 52042: s1 = u8 [a0 + 0xe]\n 52045: a0 = u8 [a0 + 0xf]\n 52048: a4 = a4 << 0x8\n 52051: a4 = a4 | a5\n 52054: s1 = s1 << 0x10\n 52057: a0 = a0 << 0x18\n 52060: a0 = a0 | s1\n 52063: a0 = a0 | a4\n 52066: a0 = a0 << 0x20\n 52069: a0 = a0 | a1\n 52072: s1 = reverse a0\n 52074: a1 = reverse a3\n 52076: a2 = reverse a2\n 52078: a0 = reverse t0\n 52080: u64 [sp + 0x218] = a0\n 52084: u64 [sp + 0x210] = a2\n 52088: a0 = a0 | a2\n 52091: a2 = a1\n 52093: a1 = a1 | s1\n 52096: a1 = a1 | a0\n 52099: a1 = a1 >> 0x20\n 52102: a0 = a0 | s1\n 52105: a0 = a0 << 0x20\n 52108: a0 = a0 | a1\n 52111: jump @742 if a0 != 0\n      : @738 (gas: 5)\n 52115: u64 [sp + 0x208] = a2\n 52119: i32 a0 = a2 + 0\n 52121: a1 = 0x20\n 52124: u64 [sp + 0x200] = a0\n 52128: ra = 660, jump @0\n      : @739 [@dyn 330] (gas: 50)\n 52135: u8 [a0 + 31] = 0\n 52138: u8 [a0 + 30] = 0\n 52141: u8 [a0 + 29] = 0\n 52144: u8 [a0 + 28] = 0\n 52147: u8 [a0 + 27] = 0\n 52150: u8 [a0 + 26] = 0\n 52153: u8 [a0 + 25] = 0\n 52156: u8 [a0 + 24] = 0\n 52159: u8 [a0 + 23] = 0\n 52162: u8 [a0 + 22] = 0\n 52165: u8 [a0 + 21] = 0\n 52168: u8 [a0 + 20] = 0\n 52171: u8 [a0 + 19] = 0\n 52174: u8 [a0 + 18] = 0\n 52177: u8 [a0 + 17] = 0\n 52180: u8 [a0 + 16] = 0\n 52183: u8 [a0 + 15] = 0\n 52186: u8 [a0 + 14] = 0\n 52189: u8 [a0 + 13] = 0\n 52192: u8 [a0 + 12] = 0\n 52195: u8 [a0 + 11] = 0\n 52198: u8 [a0 + 10] = 0\n 52201: u8 [a0 + 9] = 0\n 52204: u8 [a0 + 8] = 0\n 52207: u8 [a0 + 7] = 0\n 52210: u8 [a0 + 6] = 0\n 52213: u8 [a0 + 5] = 0\n 52216: u8 [a0 + 4] = 0\n 52219: u8 [a0 + 3] = 0xa0\n 52224: u8 [a0 + 2] = 0x79\n 52228: u8 [a0 + 1] = 0xc3\n 52233: u8 [a0 + 0] = 0x8\n 52236: a1 = u64 [sp + 0x208]\n 52240: a0 = a1 + 0x4\n 52243: a1 = a0 <u a1\n 52246: a3 = u64 [sp + 0x218]\n 52250: a2 = a3 + a1\n 52253: a3 = a2 <u a3\n 52256: a3 = a1 if a1 == 0\n 52259: a3 = a3 + s1\n 52262: a1 = a3 <u s1\n 52265: a4 = u64 [sp + 0x210]\n 52269: a4 = a4 + a1\n 52272: u64 [sp + 0x268] = a2\n 52276: u64 [sp + 0x260] = a0\n 52280: u64 [sp + 0x270] = a3\n 52284: a0 = sp + 0x280\n 52288: a1 = sp + 0x260\n 52292: u64 [sp + 0x278] = a4\n 52296: ra = 662, jump @693\n      : @740 [@dyn 331] (gas: 5)\n 52302: a0 = u64 [sp + 0x288]\n 52306: t0 = u64 [sp + 0x298]\n 52310: t1 = u64 [sp + 0x280]\n 52314: a3 = u64 [sp + 0x290]\n 52318: fallthrough\n      : @741 (gas: 26)\n 52319: a1 = u64 [sp + 0x218]\n 52323: a4 = a0 ^ a1\n 52326: a5 = a0 <u a1\n 52329: t2 = a1\n 52331: a2 = u64 [sp + 0x208]\n 52335: a1 = t1 <u a2\n 52338: a5 = a1 if a4 == 0\n 52341: a4 = a3 - s1\n 52344: a3 = a3 <u s1\n 52347: s1 = u64 [sp + 0x210]\n 52351: s1 = t0 - s1\n 52354: s1 = s1 - a3\n 52357: a3 = a4 <u a5\n 52360: s1 = s1 - a3\n 52363: a4 = a4 - a5\n 52366: a0 = a0 - t2\n 52369: a1 = a0 - a1\n 52372: a0 = t1 - a2\n 52375: a1 = a1 | s1\n 52378: a2 = a0 | a4\n 52381: a2 = a2 | a1\n 52384: a1 = a1 | a4\n 52387: a2 = a2 >> 0x20\n 52390: a1 = a1 << 0x20\n 52393: a1 = a1 | a2\n 52396: jump @743 if a1 == 0\n      : @742 (gas: 1)\n 52399: trap\n      : @743 (gas: 4)\n 52400: i32 s1 = a0 + 0\n 52402: a0 = u64 [sp + 0x200]\n 52406: a1 = s1\n 52408: ra = 664, jump @0\n      : @744 [@dyn 332] (gas: 6)\n 52415: i32 a1 = a0 + 0\n 52417: a0 = 0x1\n 52420: a2 = s1\n 52422: ra = 0x29a\n 52426: ecalli 13 // 'seal_return'\n 52428: fallthrough\n      : @745 [@dyn 333] (gas: 70)\n 52429: sp = sp + 0xfffffffffffffef0\n 52433: u64 [sp + 0x108] = ra\n 52437: u64 [sp + 0x100] = s0\n 52441: u64 [sp + 0xf8] = s1\n 52445: s0 = sp + 0x110\n 52449: sp = sp & 0xfffffffffffffff0\n 52452: a5 = u64 [a0]\n 52454: u64 [sp + 0x48] = a5\n 52457: a5 = u64 [a0 + 0x8]\n 52460: u64 [sp + 0x40] = a5\n 52463: a5 = u64 [a0 + 0x10]\n 52466: u64 [sp + 0x38] = a5\n 52469: a0 = u64 [a0 + 0x18]\n 52472: u64 [sp + 0x30] = a0\n 52475: a0 = u64 [a1]\n 52477: u64 [sp + 0x28] = a0\n 52480: a0 = u64 [a1 + 0x8]\n 52483: u64 [sp + 0x20] = a0\n 52486: a0 = u64 [a1 + 0x10]\n 52489: u64 [sp + 0x18] = a0\n 52492: a0 = u64 [a1 + 0x18]\n 52495: u64 [sp + 0x10] = a0\n 52498: a0 = u64 [a2]\n 52500: u64 [sp + 0x8] = a0\n 52503: ra = u64 [a2 + 0x8]\n 52506: s1 = u64 [a2 + 0x10]\n 52509: t2 = u64 [a2 + 0x18]\n 52512: t1 = u64 [a3]\n 52514: t0 = u64 [a3 + 0x8]\n 52517: a5 = u64 [a3 + 0x10]\n 52520: a3 = u64 [a3 + 0x18]\n 52523: a2 = u64 [a4]\n 52525: a1 = u64 [a4 + 0x8]\n 52528: a0 = u64 [a4 + 0x10]\n 52531: a4 = u64 [a4 + 0x18]\n 52534: u64 [sp + 0x68] = a4\n 52537: u64 [sp + 0x60] = a0\n 52540: u64 [sp + 0x58] = a1\n 52543: u64 [sp + 0x50] = a2\n 52546: u64 [sp + 0x88] = a3\n 52550: u64 [sp + 0x80] = a5\n 52554: u64 [sp + 0x78] = t0\n 52557: u64 [sp + 0x70] = t1\n 52560: u64 [sp + 0xa8] = t2\n 52564: u64 [sp + 0xa0] = s1\n 52568: u64 [sp + 0x98] = ra\n 52572: a0 = u64 [sp + 0x8]\n 52575: u64 [sp + 0x90] = a0\n 52579: a0 = u64 [sp + 0x10]\n 52582: u64 [sp + 0xc8] = a0\n 52586: a0 = u64 [sp + 0x18]\n 52589: u64 [sp + 0xc0] = a0\n 52593: a0 = u64 [sp + 0x20]\n 52596: u64 [sp + 0xb8] = a0\n 52600: a0 = u64 [sp + 0x28]\n 52603: u64 [sp + 0xb0] = a0\n 52607: a0 = u64 [sp + 0x30]\n 52610: u64 [sp + 0xe8] = a0\n 52614: a0 = u64 [sp + 0x38]\n 52617: u64 [sp + 0xe0] = a0\n 52621: a0 = u64 [sp + 0x40]\n 52624: u64 [sp + 0xd8] = a0\n 52628: a0 = sp + 0xd0\n 52632: a1 = sp + 0xb0\n 52636: a2 = sp + 0x90\n 52640: a3 = sp + 0x70\n 52643: a4 = sp + 0x50\n 52646: a5 = u64 [sp + 0x48]\n 52649: u64 [sp + 0xd0] = a5\n 52653: ra = 668, jump @588\n      : @746 [@dyn 334] (gas: 6)\n 52659: sp = s0 + 0xfffffffffffffef0\n 52663: ra = u64 [sp + 0x108]\n 52667: s0 = u64 [sp + 0x100]\n 52671: s1 = u64 [sp + 0xf8]\n 52675: sp = sp + 0x110\n 52679: ret\n      : @747 (gas: 42)\n 52681: sp = sp + 0xfffffffffffffea0\n 52685: u64 [sp + 0x158] = ra\n 52689: u64 [sp + 0x150] = s0\n 52693: u64 [sp + 0x148] = s1\n 52697: s0 = sp + 0x160\n 52701: sp = sp & 0xffffffffffffffe0\n 52704: a2 = u64 [a1 + 0x18]\n 52707: u64 [sp + 0x28] = a2\n 52710: a2 = u64 [a1 + 0x10]\n 52713: u64 [sp + 0x18] = a2\n 52716: a2 = u64 [a1 + 0x8]\n 52719: u64 [sp + 0x10] = a2\n 52722: a1 = u64 [a1]\n 52724: u64 [sp + 0x8] = a1\n 52727: a1 = u64 [a0]\n 52729: u64 [sp + 0x50] = a1\n 52732: a1 = u64 [a0 + 0x8]\n 52735: u64 [sp + 0x58] = a1\n 52738: a1 = u64 [a0 + 0x10]\n 52741: u64 [sp + 0x30] = a1\n 52744: s1 = u64 [a0 + 0x18]\n 52747: i32 a0 = sp + 0xe0\n 52751: ecalli 5 // 'caller'\n 52753: a0 = u64 [sp + 0xe8]\n 52757: a1 = u64 [sp + 0xe0]\n 52761: a2 = i32 [sp + 0xf0]\n 52765: a0 = reverse a0\n 52767: a3 = a0 >> 0x20\n 52770: a1 = reverse a1\n 52772: a4 = a1 << 0x20\n 52775: a3 = a3 | a4\n 52778: u64 [sp + 0x48] = a3\n 52781: a0 = a0 << 0x20\n 52784: a2 = reverse a2\n 52786: a2 = a2 >> 0x20\n 52789: a0 = a0 | a2\n 52792: u64 [sp + 0x40] = a0\n 52795: a1 = a1 >> 0x20\n 52798: u64 [sp + 0x38] = a1\n 52801: a1 = 0x20\n 52804: a0 = 0\n 52806: ra = 670, jump @0\n      : @748 [@dyn 335] (gas: 71)\n 52813: u64 [sp + 0x20] = s1\n 52816: a1 = reverse s1\n 52818: s1 = u64 [sp + 0x30]\n 52821: a2 = reverse s1\n 52823: a3 = u64 [sp + 0x58]\n 52826: a3 = reverse a3\n 52828: a4 = u64 [sp + 0x50]\n 52831: a4 = reverse a4\n 52833: a5 = a4 >> 0x38\n 52836: u8 [a0 + 0x1f] = a5\n 52839: a5 = a4 >> 0x30\n 52842: u8 [a0 + 0x1e] = a5\n 52845: a5 = a4 >> 0x28\n 52848: u8 [a0 + 0x1d] = a5\n 52851: a5 = a4 >> 0x20\n 52854: u8 [a0 + 0x1c] = a5\n 52857: a5 = a4 >> 0x18\n 52860: u8 [a0 + 0x1b] = a5\n 52863: a5 = a4 >> 0x10\n 52866: u8 [a0 + 0x1a] = a5\n 52869: a5 = a4 >> 0x8\n 52872: u8 [a0 + 0x19] = a5\n 52875: u8 [a0 + 0x18] = a4\n 52878: a4 = a3 >> 0x38\n 52881: u8 [a0 + 0x17] = a4\n 52884: a4 = a3 >> 0x30\n 52887: u8 [a0 + 0x16] = a4\n 52890: a4 = a3 >> 0x28\n 52893: u8 [a0 + 0x15] = a4\n 52896: a4 = a3 >> 0x20\n 52899: u8 [a0 + 0x14] = a4\n 52902: a4 = a3 >> 0x18\n 52905: u8 [a0 + 0x13] = a4\n 52908: a4 = a3 >> 0x10\n 52911: u8 [a0 + 0x12] = a4\n 52914: a4 = a3 >> 0x8\n 52917: u8 [a0 + 0x11] = a4\n 52920: u8 [a0 + 0x10] = a3\n 52923: a3 = a2 >> 0x38\n 52926: u8 [a0 + 0xf] = a3\n 52929: a3 = a2 >> 0x30\n 52932: u8 [a0 + 0xe] = a3\n 52935: a3 = a2 >> 0x28\n 52938: u8 [a0 + 0xd] = a3\n 52941: a3 = a2 >> 0x20\n 52944: u8 [a0 + 0xc] = a3\n 52947: a3 = a2 >> 0x18\n 52950: u8 [a0 + 0xb] = a3\n 52953: a3 = a2 >> 0x10\n 52956: u8 [a0 + 0xa] = a3\n 52959: a3 = a2 >> 0x8\n 52962: u8 [a0 + 0x9] = a3\n 52965: u8 [a0 + 0x8] = a2\n 52968: a2 = a1 >> 0x38\n 52971: u8 [a0 + 0x7] = a2\n 52974: a2 = a1 >> 0x30\n 52977: u8 [a0 + 0x6] = a2\n 52980: a2 = a1 >> 0x28\n 52983: u8 [a0 + 0x5] = a2\n 52986: a2 = a1 >> 0x20\n 52989: u8 [a0 + 0x4] = a2\n 52992: a2 = a1 >> 0x18\n 52995: u8 [a0 + 0x3] = a2\n 52998: a2 = a1 >> 0x10\n 53001: u8 [a0 + 0x2] = a2\n 53004: a2 = a1 >> 0x8\n 53007: u8 [a0 + 0x1] = a2\n 53010: u8 [a0] = a1\n 53012: a0 = 0x20\n 53015: a1 = 0x20\n 53018: ra = 672, jump @0\n      : @749 [@dyn 336] (gas: 35)\n 53025: u8 [a0 + 31] = 0\n 53028: u8 [a0 + 30] = 0\n 53031: u8 [a0 + 29] = 0\n 53034: u8 [a0 + 28] = 0\n 53037: u8 [a0 + 27] = 0\n 53040: u8 [a0 + 26] = 0\n 53043: u8 [a0 + 25] = 0\n 53046: u8 [a0 + 24] = 0\n 53049: u8 [a0 + 23] = 0\n 53052: u8 [a0 + 22] = 0\n 53055: u8 [a0 + 21] = 0\n 53058: u8 [a0 + 20] = 0\n 53061: u8 [a0 + 19] = 0\n 53064: u8 [a0 + 18] = 0\n 53067: u8 [a0 + 17] = 0\n 53070: u8 [a0 + 16] = 0\n 53073: u8 [a0 + 15] = 0\n 53076: u8 [a0 + 14] = 0\n 53079: u8 [a0 + 13] = 0\n 53082: u8 [a0 + 12] = 0\n 53085: u8 [a0 + 11] = 0\n 53088: u8 [a0 + 10] = 0\n 53091: u8 [a0 + 9] = 0\n 53094: u8 [a0 + 8] = 0\n 53097: u8 [a0 + 7] = 0\n 53100: u8 [a0 + 6] = 0\n 53103: u8 [a0 + 5] = 0\n 53106: u8 [a0 + 4] = 0\n 53109: u8 [a0 + 3] = 0\n 53112: u8 [a0 + 2] = 0\n 53115: u8 [a0 + 1] = 0\n 53118: u8 [a0 + 0] = 0\n 53120: a1 = 0x40\n 53123: a0 = 0\n 53125: ra = 674, jump @0\n      : @750 [@dyn 337] (gas: 28)\n 53132: i32 a0 = a0 + 0\n 53134: i32 a2 = sp + 0x120\n 53138: a1 = 0x40\n 53141: ecalli 8 // 'hash_keccak_256'\n 53143: a0 = u64 [sp + 0x138]\n 53147: a1 = u64 [sp + 0x130]\n 53151: a2 = u64 [sp + 0x128]\n 53155: a3 = u64 [sp + 0x120]\n 53159: a0 = reverse a0\n 53161: a1 = reverse a1\n 53163: a2 = reverse a2\n 53165: a3 = reverse a3\n 53167: u64 [sp + 0x118] = a3\n 53171: u64 [sp + 0x110] = a2\n 53175: u64 [sp + 0x108] = a1\n 53179: u64 [sp + 0x100] = a0\n 53183: u64 [sp + 312] = 0\n 53187: u64 [sp + 304] = 0\n 53191: u64 [sp + 296] = 0\n 53195: u64 [sp + 288] = 0\n 53199: u32 [sp + 320] = 0x20\n 53204: i32 a1 = sp + 0x100\n 53208: i32 a3 = sp + 0x120\n 53212: i32 a4 = sp + 0x140\n 53216: a2 = 0xffffffffffffffff\n 53219: a0 = 0\n 53221: ecalli 7 // 'get_storage'\n 53223: fallthrough\n      : @751 (gas: 12)\n 53224: a0 = u32 [sp + 0x130]\n 53228: a1 = u64 [sp + 0x120]\n 53232: a2 = u64 [sp + 0x128]\n 53236: a3 = u64 [sp + 0x38]\n 53239: a0 = a0 ^ a3\n 53242: a3 = u64 [sp + 0x40]\n 53245: a1 = a1 ^ a3\n 53248: a0 = a0 | a1\n 53251: a1 = u64 [sp + 0x48]\n 53254: a1 = a1 ^ a2\n 53257: a0 = a0 | a1\n 53260: jump @754 if a0 != 0\n      : @752 (gas: 43)\n 53264: a0 = u64 [sp + 0x8]\n 53267: u64 [sp + 0x60] = a0\n 53270: a0 = u64 [sp + 0x50]\n 53273: u64 [sp + 0x80] = a0\n 53277: a0 = u64 [sp + 0x10]\n 53280: u64 [sp + 0x68] = a0\n 53283: a0 = u64 [sp + 0x58]\n 53286: u64 [sp + 0x88] = a0\n 53290: a0 = u64 [sp + 0x18]\n 53293: u64 [sp + 0x70] = a0\n 53296: u64 [sp + 0x90] = s1\n 53300: a0 = u64 [sp + 0x28]\n 53303: u64 [sp + 0x78] = a0\n 53306: a0 = sp + 0x80\n 53310: a1 = sp + 0x60\n 53313: a2 = u64 [sp + 0x20]\n 53316: u64 [sp + 0x98] = a2\n 53320: ra = 0x2a4\n 53324: sp = sp + 0xfffffffffffffd20\n 53328: u64 [sp + 0x2d8] = ra\n 53332: u64 [sp + 0x2d0] = s0\n 53336: u64 [sp + 0x2c8] = s1\n 53340: s0 = sp + 0x2e0\n 53344: sp = sp & 0xffffffffffffffe0\n 53347: a2 = u64 [a1]\n 53349: u64 [sp + 0x158] = a2\n 53353: a2 = u64 [a1 + 0x8]\n 53356: u64 [sp + 0x150] = a2\n 53360: a2 = u64 [a1 + 0x10]\n 53363: u64 [sp + 0x148] = a2\n 53367: a1 = u64 [a1 + 0x18]\n 53370: u64 [sp + 0x140] = a1\n 53374: a1 = u64 [a0]\n 53376: u64 [sp + 0x138] = a1\n 53380: a1 = u64 [a0 + 0x8]\n 53383: u64 [sp + 0x130] = a1\n 53387: a1 = u64 [a0 + 0x10]\n 53390: u64 [sp + 0x128] = a1\n 53394: s1 = u64 [a0 + 0x18]\n 53397: a1 = 0x20\n 53400: a0 = 0\n 53402: ra = 0x2bc\n 53406: jump @0\n      : @753 [@dyn 338] (gas: 6)\n 53410: sp = s0 + 0xfffffffffffffea0\n 53414: ra = u64 [sp + 0x158]\n 53418: s0 = u64 [sp + 0x150]\n 53422: s1 = u64 [sp + 0x148]\n 53426: sp = sp + 0x160\n 53430: ret\n      : @754 (gas: 3)\n 53432: a0 = 0x40\n 53435: a1 = 0x20\n 53438: ra = 678, jump @0\n      : @755 [@dyn 339] (gas: 103)\n 53445: a1 = u8 [a0 + 0x11]\n 53448: a2 = u8 [a0 + 0x10]\n 53451: a3 = u8 [a0 + 0x12]\n 53454: a4 = u8 [a0 + 0x13]\n 53457: a1 = a1 << 0x8\n 53460: a1 = a1 | a2\n 53463: a3 = a3 << 0x10\n 53466: a4 = a4 << 0x18\n 53469: a3 = a3 | a4\n 53472: a1 = a1 | a3\n 53475: a2 = u8 [a0 + 0x15]\n 53478: a3 = u8 [a0 + 0x14]\n 53481: a4 = u8 [a0 + 0x16]\n 53484: a5 = u8 [a0 + 0x17]\n 53487: a2 = a2 << 0x8\n 53490: a2 = a2 | a3\n 53493: a4 = a4 << 0x10\n 53496: a5 = a5 << 0x18\n 53499: a4 = a4 | a5\n 53502: a2 = a2 | a4\n 53505: a2 = a2 << 0x20\n 53508: t0 = a2 | a1\n 53511: a2 = u8 [a0 + 0x1]\n 53514: a3 = u8 [a0]\n 53516: a4 = u8 [a0 + 0x2]\n 53519: a5 = u8 [a0 + 0x3]\n 53522: a2 = a2 << 0x8\n 53525: a2 = a2 | a3\n 53528: a4 = a4 << 0x10\n 53531: a5 = a5 << 0x18\n 53534: a4 = a4 | a5\n 53537: a2 = a2 | a4\n 53540: a3 = u8 [a0 + 0x5]\n 53543: a4 = u8 [a0 + 0x4]\n 53546: a5 = u8 [a0 + 0x6]\n 53549: s1 = u8 [a0 + 0x7]\n 53552: a3 = a3 << 0x8\n 53555: a3 = a3 | a4\n 53558: a5 = a5 << 0x10\n 53561: s1 = s1 << 0x18\n 53564: a5 = a5 | s1\n 53567: a3 = a3 | a5\n 53570: a3 = a3 << 0x20\n 53573: a2 = a2 | a3\n 53576: a3 = u8 [a0 + 0x19]\n 53579: a4 = u8 [a0 + 0x18]\n 53582: a5 = u8 [a0 + 0x1a]\n 53585: s1 = u8 [a0 + 0x1b]\n 53588: a3 = a3 << 0x8\n 53591: a3 = a3 | a4\n 53594: a5 = a5 << 0x10\n 53597: s1 = s1 << 0x18\n 53600: a5 = a5 | s1\n 53603: a3 = a3 | a5\n 53606: a4 = u8 [a0 + 0x1d]\n 53609: a5 = u8 [a0 + 0x1c]\n 53612: s1 = u8 [a0 + 0x1e]\n 53615: a1 = u8 [a0 + 0x1f]\n 53618: a4 = a4 << 0x8\n 53621: a4 = a4 | a5\n 53624: s1 = s1 << 0x10\n 53627: a1 = a1 << 0x18\n 53630: a1 = a1 | s1\n 53633: a1 = a1 | a4\n 53636: a1 = a1 << 0x20\n 53639: a3 = a3 | a1\n 53642: a1 = u8 [a0 + 0x9]\n 53645: a4 = u8 [a0 + 0x8]\n 53648: a5 = u8 [a0 + 0xa]\n 53651: s1 = u8 [a0 + 0xb]\n 53654: a1 = a1 << 0x8\n 53657: a1 = a1 | a4\n 53660: a5 = a5 << 0x10\n 53663: s1 = s1 << 0x18\n 53666: a5 = a5 | s1\n 53669: a1 = a1 | a5\n 53672: a4 = u8 [a0 + 0xd]\n 53675: a5 = u8 [a0 + 0xc]\n 53678: s1 = u8 [a0 + 0xe]\n 53681: a0 = u8 [a0 + 0xf]\n 53684: a4 = a4 << 0x8\n 53687: a4 = a4 | a5\n 53690: s1 = s1 << 0x10\n 53693: a0 = a0 << 0x18\n 53696: a0 = a0 | s1\n 53699: a0 = a0 | a4\n 53702: a0 = a0 << 0x20\n 53705: a0 = a0 | a1\n 53708: s1 = reverse a0\n 53710: a1 = reverse a3\n 53712: a2 = reverse a2\n 53714: a0 = reverse t0\n 53716: u64 [sp + 0x58] = a0\n 53719: u64 [sp + 0x50] = a2\n 53722: a0 = a0 | a2\n 53725: a2 = a1\n 53727: a1 = a1 | s1\n 53730: a1 = a1 | a0\n 53733: a1 = a1 >> 0x20\n 53736: a0 = a0 | s1\n 53739: a0 = a0 << 0x20\n 53742: a0 = a0 | a1\n 53745: jump @759 if a0 != 0\n      : @756 (gas: 5)\n 53749: u64 [sp + 0x48] = a2\n 53752: i32 a0 = a2 + 0\n 53754: a1 = 0x20\n 53757: u64 [sp + 0x40] = a0\n 53760: ra = 680, jump @0\n      : @757 [@dyn 340] (gas: 50)\n 53767: u8 [a0 + 31] = 0\n 53770: u8 [a0 + 30] = 0\n 53773: u8 [a0 + 29] = 0\n 53776: u8 [a0 + 28] = 0\n 53779: u8 [a0 + 27] = 0\n 53782: u8 [a0 + 26] = 0\n 53785: u8 [a0 + 25] = 0\n 53788: u8 [a0 + 24] = 0\n 53791: u8 [a0 + 23] = 0\n 53794: u8 [a0 + 22] = 0\n 53797: u8 [a0 + 21] = 0\n 53800: u8 [a0 + 20] = 0\n 53803: u8 [a0 + 19] = 0\n 53806: u8 [a0 + 18] = 0\n 53809: u8 [a0 + 17] = 0\n 53812: u8 [a0 + 16] = 0\n 53815: u8 [a0 + 15] = 0\n 53818: u8 [a0 + 14] = 0\n 53821: u8 [a0 + 13] = 0\n 53824: u8 [a0 + 12] = 0\n 53827: u8 [a0 + 11] = 0\n 53830: u8 [a0 + 10] = 0\n 53833: u8 [a0 + 9] = 0\n 53836: u8 [a0 + 8] = 0\n 53839: u8 [a0 + 7] = 0\n 53842: u8 [a0 + 6] = 0\n 53845: u8 [a0 + 5] = 0\n 53848: u8 [a0 + 4] = 0\n 53851: u8 [a0 + 3] = 0xa0\n 53856: u8 [a0 + 2] = 0x79\n 53860: u8 [a0 + 1] = 0xc3\n 53865: u8 [a0 + 0] = 0x8\n 53868: a1 = u64 [sp + 0x48]\n 53871: a0 = a1 + 0x4\n 53874: a1 = a0 <u a1\n 53877: a3 = u64 [sp + 0x58]\n 53880: a2 = a3 + a1\n 53883: a3 = a2 <u a3\n 53886: a3 = a1 if a1 == 0\n 53889: a3 = a3 + s1\n 53892: a1 = a3 <u s1\n 53895: a4 = u64 [sp + 0x50]\n 53898: a4 = a4 + a1\n 53901: u64 [sp + 0xa8] = a2\n 53905: u64 [sp + 0xa0] = a0\n 53909: u64 [sp + 0xb0] = a3\n 53913: a0 = sp + 0xc0\n 53917: a1 = sp + 0xa0\n 53921: u64 [sp + 0xb8] = a4\n 53925: ra = 682, jump @606\n      : @758 [@dyn 341] (gas: 30)\n 53931: a0 = u64 [sp + 0xc8]\n 53935: t0 = u64 [sp + 0xd8]\n 53939: t1 = u64 [sp + 0xc0]\n 53943: a3 = u64 [sp + 0xd0]\n 53947: a1 = u64 [sp + 0x58]\n 53950: a4 = a0 ^ a1\n 53953: a5 = a0 <u a1\n 53956: t2 = a1\n 53958: a2 = u64 [sp + 0x48]\n 53961: a1 = t1 <u a2\n 53964: a5 = a1 if a4 == 0\n 53967: a4 = a3 - s1\n 53970: a3 = a3 <u s1\n 53973: s1 = u64 [sp + 0x50]\n 53976: s1 = t0 - s1\n 53979: s1 = s1 - a3\n 53982: a3 = a4 <u a5\n 53985: s1 = s1 - a3\n 53988: a4 = a4 - a5\n 53991: a0 = a0 - t2\n 53994: a1 = a0 - a1\n 53997: a0 = t1 - a2\n 54000: a1 = a1 | s1\n 54003: a2 = a0 | a4\n 54006: a2 = a2 | a1\n 54009: a1 = a1 | a4\n 54012: a2 = a2 >> 0x20\n 54015: a1 = a1 << 0x20\n 54018: a1 = a1 | a2\n 54021: jump @760 if a1 == 0\n      : @759 (gas: 1)\n 54024: trap\n      : @760 (gas: 4)\n 54025: i32 s1 = a0 + 0\n 54027: a0 = u64 [sp + 0x40]\n 54030: a1 = s1\n 54032: ra = 684, jump @0\n      : @761 [@dyn 342] (gas: 6)\n 54039: i32 a1 = a0 + 0\n 54041: a0 = 0x1\n 54044: a2 = s1\n 54046: ra = 0x2ae\n 54050: ecalli 13 // 'seal_return'\n 54052: fallthrough\n      : @762 [@dyn 343] (gas: 18)\n 54053: sp = sp + 0xffffffffffffffd0\n 54056: u64 [sp + 0x28] = ra\n 54059: u64 [sp + 0x20] = s0\n 54062: u64 [sp + 0x18] = s1\n 54065: s1 = u64 [a0 + 0x10]\n 54068: a2 = u64 [a0 + 0x18]\n 54071: a1 = u64 [a0 + 0x8]\n 54074: s0 = u64 [a0]\n 54076: u64 [sp + 0x10] = a1\n 54079: u64 [sp + 0x8] = a2\n 54082: a0 = a1 | a2\n 54085: a1 = s0 | s1\n 54088: a1 = a1 | a0\n 54091: a1 = a1 >> 0x20\n 54094: a0 = a0 | s1\n 54097: a0 = a0 << 0x20\n 54100: a0 = a0 | a1\n 54103: jump @767 if a0 != 0\n      : @763 (gas: 4)\n 54107: i32 a0 = s0 + 0\n 54109: a1 = 0x20\n 54112: u64 [sp] = a0\n 54114: ra = 688, jump @0\n      : @764 [@dyn 344] (gas: 42)\n 54121: u8 [a0 + 31] = 0x6e\n 54125: u8 [a0 + 30] = 0x61\n 54129: u8 [a0 + 29] = 0x6c\n 54133: u8 [a0 + 28] = 0x61\n 54137: u8 [a0 + 27] = 0x62\n 54141: u8 [a0 + 26] = 0x20\n 54145: u8 [a0 + 25] = 0x65\n 54149: u8 [a0 + 24] = 0x6b\n 54153: u8 [a0 + 23] = 0x61\n 54157: u8 [a0 + 22] = 0x74\n 54161: u8 [a0 + 21] = 0x73\n 54165: u8 [a0 + 20] = 0x20\n 54169: t0 = 0x20\n 54172: u8 [a0 + 19] = 0x74\n 54176: u8 [a0 + 18] = 0x6e\n 54180: u8 [a0 + 17] = 0x65\n 54184: u8 [a0 + 16] = 0x69\n 54188: a5 = 0x63\n 54191: u8 [a0 + 0xf] = a5\n 54194: u8 [a0 + 14] = 0x69\n 54198: u8 [a0 + 13] = 0x66\n 54202: u8 [a0 + 12] = 0x66\n 54206: u8 [a0 + 11] = 0x75\n 54210: u8 [a0 + 10] = 0x73\n 54214: u8 [a0 + 9] = 0x6e\n 54218: u8 [a0 + 8] = 0x69\n 54222: u8 [a0 + 0x7] = t0\n 54225: u8 [a0 + 6] = 0x3a\n 54229: u8 [a0 + 5] = 0x77\n 54233: u8 [a0 + 4] = 0x6f\n 54237: u8 [a0 + 3] = 0x72\n 54241: u8 [a0 + 0x2] = a5\n 54244: u8 [a0 + 1] = 0x73\n 54248: a2 = u64 [sp + 0x8]\n 54251: a2 = a2 | s1\n 54254: a3 = 0xffffffe0\n 54264: a3 = s0 <u a3\n 54267: a4 = u64 [sp + 0x10]\n 54270: a3 = 0 if a4 != 0\n 54272: a3 = 0 if a2 != 0\n 54274: u8 [a0 + 0] = 0x45\n 54277: jump @767 if a3 == 0\n      : @765 (gas: 4)\n 54281: a0 = u64 [sp]\n 54283: i32 a0 = a0 + 0x20\n 54286: a1 = 0x20\n 54289: ra = 690, jump @0\n      : @766 [@dyn 345] (gas: 38)\n 54296: u8 [a0 + 31] = 0\n 54299: u8 [a0 + 30] = 0\n 54302: u8 [a0 + 29] = 0\n 54305: u8 [a0 + 28] = 0\n 54308: u8 [a0 + 27] = 0\n 54311: u8 [a0 + 26] = 0\n 54314: u8 [a0 + 25] = 0\n 54317: u8 [a0 + 24] = 0\n 54320: u8 [a0 + 23] = 0\n 54323: u8 [a0 + 22] = 0\n 54326: u8 [a0 + 21] = 0\n 54329: u8 [a0 + 20] = 0\n 54332: u8 [a0 + 19] = 0\n 54335: u8 [a0 + 18] = 0\n 54338: u8 [a0 + 17] = 0\n 54341: u8 [a0 + 16] = 0\n 54344: u8 [a0 + 15] = 0\n 54347: u8 [a0 + 14] = 0\n 54350: u8 [a0 + 13] = 0\n 54353: u8 [a0 + 12] = 0\n 54356: u8 [a0 + 11] = 0\n 54359: u8 [a0 + 10] = 0\n 54362: u8 [a0 + 9] = 0\n 54365: u8 [a0 + 8] = 0\n 54368: u8 [a0 + 7] = 0\n 54371: u8 [a0 + 6] = 0\n 54374: u8 [a0 + 5] = 0\n 54377: u8 [a0 + 4] = 0\n 54380: u8 [a0 + 3] = 0\n 54383: u8 [a0 + 2] = 0\n 54386: u8 [a0 + 1] = 0x65\n 54390: a1 = 0x63\n 54393: u8 [a0] = a1\n 54395: ra = u64 [sp + 0x28]\n 54398: s0 = u64 [sp + 0x20]\n 54401: s1 = u64 [sp + 0x18]\n 54404: sp = sp + 0x30\n 54407: ret\n      : @767 (gas: 1)\n 54409: trap\n      : @768 (gas: 17)\n 54410: sp = sp + 0xffffffffffffff98\n 54413: u64 [sp + 0x60] = ra\n 54416: u64 [sp + 0x58] = s0\n 54419: u64 [sp + 0x50] = s1\n 54422: a3 = u64 [a1 + 0x18]\n 54425: a4 = u64 [a1 + 0x10]\n 54428: a5 = u64 [a1 + 0x8]\n 54431: s1 = u64 [a1]\n 54433: a1 = a5 | a3\n 54436: a2 = s1 | a4\n 54439: a2 = a2 | a1\n 54442: a2 = a2 >> 0x20\n 54445: a1 = a1 | a4\n 54448: a1 = a1 << 0x20\n 54451: a1 = a1 | a2\n 54454: u64 [sp + 0x30] = a0\n 54457: jump @777 if a1 != 0\n      : @769 (gas: 19)\n 54461: a0 = s1 + 0x20\n 54464: u64 [sp + 0x48] = a0\n 54467: a0 = a0 <u s1\n 54470: a1 = a5 + a0\n 54473: u64 [sp + 0x40] = a1\n 54476: u64 [sp + 0x18] = a5\n 54479: s0 = a1 <u a5\n 54482: s0 = a0 if a0 == 0\n 54485: s0 = s0 + a4\n 54488: u64 [sp + 0x20] = a4\n 54491: a0 = s0 <u a4\n 54494: u64 [sp + 0x28] = a3\n 54497: a0 = a0 + a3\n 54500: u64 [sp + 0x38] = a0\n 54503: u64 [sp + 0x10] = s1\n 54506: i32 a0 = s1 + 0\n 54508: a1 = 0x20\n 54511: s1 = 0x20\n 54514: ra = 692, jump @0\n      : @770 [@dyn 346] (gas: 43)\n 54521: u8 [a0 + 0x1f] = s1\n 54524: a1 = u64 [sp + 0x48]\n 54527: a1 = a1 | s0\n 54530: a2 = u64 [sp + 0x40]\n 54533: a3 = u64 [sp + 0x38]\n 54536: a2 = a2 | a3\n 54539: a1 = a1 | a2\n 54542: a1 = a1 >> 0x20\n 54545: a2 = a2 | s0\n 54548: a2 = a2 << 0x20\n 54551: a1 = a1 | a2\n 54554: u8 [a0 + 30] = 0\n 54557: u8 [a0 + 29] = 0\n 54560: u8 [a0 + 28] = 0\n 54563: u8 [a0 + 27] = 0\n 54566: u8 [a0 + 26] = 0\n 54569: u8 [a0 + 25] = 0\n 54572: u8 [a0 + 24] = 0\n 54575: u8 [a0 + 23] = 0\n 54578: u8 [a0 + 22] = 0\n 54581: u8 [a0 + 21] = 0\n 54584: u8 [a0 + 20] = 0\n 54587: u8 [a0 + 19] = 0\n 54590: u8 [a0 + 18] = 0\n 54593: u8 [a0 + 17] = 0\n 54596: u8 [a0 + 16] = 0\n 54599: u8 [a0 + 15] = 0\n 54602: u8 [a0 + 14] = 0\n 54605: u8 [a0 + 13] = 0\n 54608: u8 [a0 + 12] = 0\n 54611: u8 [a0 + 11] = 0\n 54614: u8 [a0 + 10] = 0\n 54617: u8 [a0 + 9] = 0\n 54620: u8 [a0 + 8] = 0\n 54623: u8 [a0 + 7] = 0\n 54626: u8 [a0 + 6] = 0\n 54629: u8 [a0 + 5] = 0\n 54632: u8 [a0 + 4] = 0\n 54635: u8 [a0 + 3] = 0\n 54638: u8 [a0 + 2] = 0\n 54641: u8 [a0 + 1] = 0\n 54644: u8 [a0 + 0] = 0\n 54646: jump @777 if a1 != 0\n      : @771 (gas: 6)\n 54650: s1 = s0\n 54652: s0 = u64 [sp + 0x48]\n 54655: i32 a0 = s0 + 0\n 54657: a1 = 0x20\n 54660: u64 [sp + 0x8] = a0\n 54663: ra = 694, jump @0\n      : @772 [@dyn 347] (gas: 44)\n 54670: u8 [a0 + 31] = 0x22\n 54674: u8 [a0 + 30] = 0\n 54677: u8 [a0 + 29] = 0\n 54680: u8 [a0 + 28] = 0\n 54683: u8 [a0 + 27] = 0\n 54686: u8 [a0 + 26] = 0\n 54689: u8 [a0 + 25] = 0\n 54692: u8 [a0 + 24] = 0\n 54695: u8 [a0 + 23] = 0\n 54698: u8 [a0 + 22] = 0\n 54701: u8 [a0 + 21] = 0\n 54704: u8 [a0 + 20] = 0\n 54707: u8 [a0 + 19] = 0\n 54710: u8 [a0 + 18] = 0\n 54713: u8 [a0 + 17] = 0\n 54716: u8 [a0 + 16] = 0\n 54719: u8 [a0 + 15] = 0\n 54722: u8 [a0 + 14] = 0\n 54725: u8 [a0 + 13] = 0\n 54728: u8 [a0 + 12] = 0\n 54731: u8 [a0 + 11] = 0\n 54734: u8 [a0 + 10] = 0\n 54737: u8 [a0 + 9] = 0\n 54740: u8 [a0 + 8] = 0\n 54743: u8 [a0 + 7] = 0\n 54746: u8 [a0 + 6] = 0\n 54749: u8 [a0 + 5] = 0\n 54752: u8 [a0 + 4] = 0\n 54755: u8 [a0 + 3] = 0\n 54758: u8 [a0 + 2] = 0\n 54761: u8 [a0 + 1] = 0\n 54764: a1 = u64 [sp + 0x38]\n 54767: a3 = s1 | a1\n 54770: s1 = 0x1\n 54773: a1 = 0x100000000\n 54783: u64 [sp] = a1\n 54785: a1 = 0xffffffe0\n 54795: a1 = s0 <u a1\n 54798: a2 = u64 [sp + 0x40]\n 54801: a1 = 0 if a2 != 0\n 54803: u64 [sp + 0x38] = a3\n 54806: a1 = 0 if a3 != 0\n 54808: u8 [a0 + 0] = 0\n 54810: jump @777 if a1 == 0\n      : @773 (gas: 4)\n 54814: s0 = u64 [sp + 0x8]\n 54817: i32 a0 = s0 + 0x20\n 54820: a1 = 0x20\n 54823: ra = 696, jump @0\n      : @774 [@dyn 348] (gas: 44)\n 54830: u8 [a0 + 31] = 0x6e\n 54834: u8 [a0 + 30] = 0x61\n 54838: u8 [a0 + 29] = 0x6c\n 54842: u8 [a0 + 28] = 0x61\n 54846: u8 [a0 + 27] = 0x62\n 54850: a5 = 0x20\n 54853: u8 [a0 + 0x1a] = a5\n 54856: u8 [a0 + 25] = 0x65\n 54860: u8 [a0 + 24] = 0x6b\n 54864: u8 [a0 + 23] = 0x61\n 54868: u8 [a0 + 22] = 0x74\n 54872: u8 [a0 + 21] = 0x73\n 54876: u8 [a0 + 0x14] = a5\n 54879: u8 [a0 + 19] = 0x74\n 54883: u8 [a0 + 18] = 0x6e\n 54887: u8 [a0 + 17] = 0x65\n 54891: u8 [a0 + 16] = 0x69\n 54895: s1 = 0x63\n 54898: u8 [a0 + 0xf] = s1\n 54901: u8 [a0 + 14] = 0x69\n 54905: u8 [a0 + 13] = 0x66\n 54909: u8 [a0 + 12] = 0x66\n 54913: a4 = 0x75\n 54916: u8 [a0 + 0xb] = a4\n 54919: u8 [a0 + 10] = 0x73\n 54923: u8 [a0 + 9] = 0x6e\n 54927: u8 [a0 + 8] = 0x69\n 54931: u8 [a0 + 0x7] = a5\n 54934: u8 [a0 + 6] = 0x3a\n 54938: u8 [a0 + 5] = 0x77\n 54942: u8 [a0 + 4] = 0x6f\n 54946: u8 [a0 + 3] = 0x72\n 54950: u8 [a0 + 0x2] = s1\n 54953: u8 [a0 + 1] = 0x73\n 54957: a2 = u64 [sp]\n 54959: a2 = a2 + 0xffffffffffffffc0\n 54962: a3 = u64 [sp + 0x48]\n 54965: a2 = a3 <u a2\n 54968: a3 = u64 [sp + 0x40]\n 54971: a2 = 0 if a3 != 0\n 54973: a3 = u64 [sp + 0x38]\n 54976: a2 = 0 if a3 != 0\n 54978: u8 [a0 + 0] = 0x45\n 54981: jump @777 if a2 == 0\n      : @775 (gas: 3)\n 54985: i32 a0 = s0 + 0x40\n 54988: a1 = 0x20\n 54991: ra = 698, jump @0\n      : @776 [@dyn 349] (gas: 54)\n 54998: u8 [a0 + 31] = 0\n 55001: u8 [a0 + 30] = 0\n 55004: u8 [a0 + 29] = 0\n 55007: u8 [a0 + 28] = 0\n 55010: u8 [a0 + 27] = 0\n 55013: u8 [a0 + 26] = 0\n 55016: u8 [a0 + 25] = 0\n 55019: u8 [a0 + 24] = 0\n 55022: u8 [a0 + 23] = 0\n 55025: u8 [a0 + 22] = 0\n 55028: u8 [a0 + 21] = 0\n 55031: u8 [a0 + 20] = 0\n 55034: u8 [a0 + 19] = 0\n 55037: u8 [a0 + 18] = 0\n 55040: u8 [a0 + 17] = 0\n 55043: u8 [a0 + 16] = 0\n 55046: u8 [a0 + 15] = 0\n 55049: u8 [a0 + 14] = 0\n 55052: u8 [a0 + 13] = 0\n 55055: u8 [a0 + 12] = 0\n 55058: u8 [a0 + 11] = 0\n 55061: u8 [a0 + 10] = 0\n 55064: u8 [a0 + 9] = 0\n 55067: u8 [a0 + 8] = 0\n 55070: u8 [a0 + 7] = 0\n 55073: u8 [a0 + 6] = 0\n 55076: u8 [a0 + 5] = 0\n 55079: u8 [a0 + 4] = 0\n 55082: u8 [a0 + 3] = 0\n 55085: u8 [a0 + 2] = 0\n 55088: u8 [a0 + 1] = 0x65\n 55092: u8 [a0 + 0] = 0x63\n 55095: a1 = u64 [sp + 0x10]\n 55098: a0 = a1 + 0x80\n 55102: a1 = a0 <u a1\n 55105: a3 = u64 [sp + 0x18]\n 55108: a2 = a3 + a1\n 55111: a3 = a2 <u a3\n 55114: a3 = a1 if a1 == 0\n 55117: a1 = u64 [sp + 0x20]\n 55120: a3 = a3 + a1\n 55123: a1 = a3 <u a1\n 55126: a4 = u64 [sp + 0x28]\n 55129: a1 = a1 + a4\n 55132: a4 = u64 [sp + 0x30]\n 55135: u64 [a4] = a0\n 55137: u64 [a4 + 0x8] = a2\n 55140: u64 [a4 + 0x10] = a3\n 55143: u64 [a4 + 0x18] = a1\n 55146: ra = u64 [sp + 0x60]\n 55149: s0 = u64 [sp + 0x58]\n 55152: s1 = u64 [sp + 0x50]\n 55155: sp = sp + 0x68\n 55158: ret\n      : @777 (gas: 1)\n 55160: trap\n      : @778 [@dyn 350] (gas: 102)\n 55161: a5 = reverse s1\n 55163: a1 = u64 [sp + 0x128]\n 55167: a1 = reverse a1\n 55169: a2 = u64 [sp + 0x130]\n 55173: a2 = reverse a2\n 55175: a3 = u64 [sp + 0x138]\n 55179: a3 = reverse a3\n 55181: u8 [a0 + 0x18] = a3\n 55184: u8 [a0 + 0x10] = a2\n 55187: u8 [a0 + 0x8] = a1\n 55190: u8 [a0] = a5\n 55192: a4 = a3 >> 0x38\n 55195: u64 [sp + 0x118] = a4\n 55199: u8 [a0 + 0x1f] = a4\n 55202: a4 = a3 >> 0x30\n 55205: u64 [sp + 0x110] = a4\n 55209: u8 [a0 + 0x1e] = a4\n 55212: a4 = a3 >> 0x28\n 55215: u64 [sp + 0x108] = a4\n 55219: u8 [a0 + 0x1d] = a4\n 55222: a4 = a3 >> 0x20\n 55225: u64 [sp + 0x100] = a4\n 55229: u8 [a0 + 0x1c] = a4\n 55232: a4 = a3 >> 0x18\n 55235: u64 [sp + 0xf8] = a4\n 55239: u8 [a0 + 0x1b] = a4\n 55242: a4 = a3 >> 0x10\n 55245: u64 [sp + 0xf0] = a4\n 55249: u8 [a0 + 0x1a] = a4\n 55252: u64 [sp + 0x120] = a3\n 55256: a3 = a3 >> 0x8\n 55259: u64 [sp + 0xe8] = a3\n 55263: u8 [a0 + 0x19] = a3\n 55266: a3 = a2 >> 0x38\n 55269: u64 [sp + 0xe0] = a3\n 55273: u8 [a0 + 0x17] = a3\n 55276: a3 = a2 >> 0x30\n 55279: u64 [sp + 0xd8] = a3\n 55283: u8 [a0 + 0x16] = a3\n 55286: a3 = a2 >> 0x28\n 55289: u64 [sp + 0xd0] = a3\n 55293: u8 [a0 + 0x15] = a3\n 55296: a3 = a2 >> 0x20\n 55299: u64 [sp + 0xc8] = a3\n 55303: u8 [a0 + 0x14] = a3\n 55306: a3 = a2 >> 0x18\n 55309: u64 [sp + 0xc0] = a3\n 55313: u8 [a0 + 0x13] = a3\n 55316: a3 = a2 >> 0x10\n 55319: u64 [sp + 0xb8] = a3\n 55323: u8 [a0 + 0x12] = a3\n 55326: u64 [sp + 0x128] = a2\n 55330: a2 = a2 >> 0x8\n 55333: u64 [sp + 0xb0] = a2\n 55337: u8 [a0 + 0x11] = a2\n 55340: a2 = a1 >> 0x38\n 55343: u64 [sp + 0xa8] = a2\n 55347: u8 [a0 + 0xf] = a2\n 55350: a2 = a1 >> 0x30\n 55353: u64 [sp + 0xa0] = a2\n 55357: u8 [a0 + 0xe] = a2\n 55360: a2 = a1 >> 0x28\n 55363: u64 [sp + 0x98] = a2\n 55367: u8 [a0 + 0xd] = a2\n 55370: a2 = a1 >> 0x20\n 55373: u64 [sp + 0x90] = a2\n 55377: u8 [a0 + 0xc] = a2\n 55380: a2 = a1 >> 0x18\n 55383: u64 [sp + 0x88] = a2\n 55387: u8 [a0 + 0xb] = a2\n 55390: a2 = a1 >> 0x10\n 55393: u64 [sp + 0x80] = a2\n 55397: u8 [a0 + 0xa] = a2\n 55400: u64 [sp + 0x130] = a1\n 55404: a1 = a1 >> 0x8\n 55407: u64 [sp + 0x78] = a1\n 55410: u8 [a0 + 0x9] = a1\n 55413: a1 = a5 >> 0x38\n 55416: u64 [sp + 0x70] = a1\n 55419: u8 [a0 + 0x7] = a1\n 55422: a1 = a5 >> 0x30\n 55425: u64 [sp + 0x68] = a1\n 55428: u8 [a0 + 0x6] = a1\n 55431: a1 = a5 >> 0x28\n 55434: u64 [sp + 0x60] = a1\n 55437: u8 [a0 + 0x5] = a1\n 55440: a1 = a5 >> 0x20\n 55443: u64 [sp + 0x58] = a1\n 55446: u8 [a0 + 0x4] = a1\n 55449: a1 = a5 >> 0x18\n 55452: u64 [sp + 0x50] = a1\n 55455: u8 [a0 + 0x3] = a1\n 55458: a1 = a5 >> 0x10\n 55461: u64 [sp + 0x48] = a1\n 55464: u8 [a0 + 0x2] = a1\n 55467: u64 [sp + 0x138] = a5\n 55471: a1 = a5 >> 0x8\n 55474: u64 [sp + 0x40] = a1\n 55477: u8 [a0 + 0x1] = a1\n 55480: a0 = 0x20\n 55483: a1 = 0x20\n 55486: ra = 702, jump @0\n      : @779 [@dyn 351] (gas: 35)\n 55493: u8 [a0 + 31] = 0x2\n 55497: u8 [a0 + 30] = 0\n 55500: u8 [a0 + 29] = 0\n 55503: u8 [a0 + 28] = 0\n 55506: u8 [a0 + 27] = 0\n 55509: u8 [a0 + 26] = 0\n 55512: u8 [a0 + 25] = 0\n 55515: u8 [a0 + 24] = 0\n 55518: u8 [a0 + 23] = 0\n 55521: u8 [a0 + 22] = 0\n 55524: u8 [a0 + 21] = 0\n 55527: u8 [a0 + 20] = 0\n 55530: u8 [a0 + 19] = 0\n 55533: u8 [a0 + 18] = 0\n 55536: u8 [a0 + 17] = 0\n 55539: u8 [a0 + 16] = 0\n 55542: u8 [a0 + 15] = 0\n 55545: u8 [a0 + 14] = 0\n 55548: u8 [a0 + 13] = 0\n 55551: u8 [a0 + 12] = 0\n 55554: u8 [a0 + 11] = 0\n 55557: u8 [a0 + 10] = 0\n 55560: u8 [a0 + 9] = 0\n 55563: u8 [a0 + 8] = 0\n 55566: u8 [a0 + 7] = 0\n 55569: u8 [a0 + 6] = 0\n 55572: u8 [a0 + 5] = 0\n 55575: u8 [a0 + 4] = 0\n 55578: u8 [a0 + 3] = 0\n 55581: u8 [a0 + 2] = 0\n 55584: u8 [a0 + 1] = 0\n 55587: u8 [a0 + 0] = 0\n 55589: a1 = 0x40\n 55592: a0 = 0\n 55594: ra = 704, jump @0\n      : @780 [@dyn 352] (gas: 28)\n 55601: i32 a0 = a0 + 0\n 55603: i32 a2 = sp + 0x280\n 55607: a1 = 0x40\n 55610: ecalli 8 // 'hash_keccak_256'\n 55612: a0 = u64 [sp + 0x298]\n 55616: a1 = u64 [sp + 0x290]\n 55620: a2 = u64 [sp + 0x288]\n 55624: a3 = u64 [sp + 0x280]\n 55628: a0 = reverse a0\n 55630: a1 = reverse a1\n 55632: a2 = reverse a2\n 55634: a3 = reverse a3\n 55636: u64 [sp + 0x258] = a3\n 55640: u64 [sp + 0x250] = a2\n 55644: u64 [sp + 0x248] = a1\n 55648: u64 [sp + 0x240] = a0\n 55652: u64 [sp + 664] = 0\n 55656: u64 [sp + 656] = 0\n 55660: u64 [sp + 648] = 0\n 55664: u64 [sp + 640] = 0\n 55668: u32 [sp + 608] = 0x20\n 55673: i32 a1 = sp + 0x240\n 55677: i32 a3 = sp + 0x280\n 55681: i32 a4 = sp + 0x260\n 55685: a2 = 0xffffffffffffffff\n 55688: a0 = 0\n 55690: ecalli 7 // 'get_storage'\n 55692: fallthrough\n      : @781 (gas: 20)\n 55693: a0 = u64 [sp + 0x298]\n 55697: t0 = u64 [sp + 0x280]\n 55701: a2 = u64 [sp + 0x290]\n 55705: a3 = u64 [sp + 0x288]\n 55709: a1 = u64 [sp + 0x140]\n 55713: a4 = a0 ^ a1\n 55716: s1 = a0 <u a1\n 55719: a0 = u64 [sp + 0x148]\n 55723: a5 = a2 <u a0\n 55726: a5 = s1 if a4 != 0\n 55729: a1 = u64 [sp + 0x150]\n 55733: s1 = a3 ^ a1\n 55736: a3 = a3 <u a1\n 55739: a1 = u64 [sp + 0x158]\n 55743: a1 = t0 <u a1\n 55746: a1 = a3 if s1 != 0\n 55749: a0 = a0 ^ a2\n 55752: a0 = a0 | a4\n 55755: a1 = a5 if a0 != 0\n 55758: jump @798 if a1 != 0\n      : @782 (gas: 3)\n 55762: a1 = 0x20\n 55765: a0 = 0\n 55767: ra = 706, jump @0\n      : @783 [@dyn 353] (gas: 67)\n 55774: a1 = u64 [sp + 0x128]\n 55778: u8 [a0 + 0x10] = a1\n 55781: a1 = u64 [sp + 0xa8]\n 55785: u8 [a0 + 0xf] = a1\n 55788: a1 = u64 [sp + 0xa0]\n 55792: u8 [a0 + 0xe] = a1\n 55795: a1 = u64 [sp + 0x98]\n 55799: u8 [a0 + 0xd] = a1\n 55802: a1 = u64 [sp + 0x90]\n 55806: u8 [a0 + 0xc] = a1\n 55809: a1 = u64 [sp + 0x88]\n 55813: u8 [a0 + 0xb] = a1\n 55816: a1 = u64 [sp + 0x80]\n 55820: u8 [a0 + 0xa] = a1\n 55823: a1 = u64 [sp + 0x78]\n 55826: u8 [a0 + 0x9] = a1\n 55829: a1 = u64 [sp + 0x130]\n 55833: u8 [a0 + 0x8] = a1\n 55836: a1 = u64 [sp + 0x70]\n 55839: u8 [a0 + 0x7] = a1\n 55842: a1 = u64 [sp + 0x68]\n 55845: u8 [a0 + 0x6] = a1\n 55848: a1 = u64 [sp + 0x60]\n 55851: u8 [a0 + 0x5] = a1\n 55854: a1 = u64 [sp + 0x58]\n 55857: u8 [a0 + 0x4] = a1\n 55860: a1 = u64 [sp + 0x50]\n 55863: u8 [a0 + 0x3] = a1\n 55866: a1 = u64 [sp + 0x48]\n 55869: u8 [a0 + 0x2] = a1\n 55872: a1 = u64 [sp + 0x40]\n 55875: u8 [a0 + 0x1] = a1\n 55878: a1 = u64 [sp + 0x138]\n 55882: u8 [a0] = a1\n 55884: a1 = u64 [sp + 0x120]\n 55888: u8 [a0 + 0x18] = a1\n 55891: a1 = u64 [sp + 0xe0]\n 55895: u8 [a0 + 0x17] = a1\n 55898: a1 = u64 [sp + 0xd8]\n 55902: u8 [a0 + 0x16] = a1\n 55905: a1 = u64 [sp + 0xd0]\n 55909: u8 [a0 + 0x15] = a1\n 55912: a1 = u64 [sp + 0xc8]\n 55916: u8 [a0 + 0x14] = a1\n 55919: a1 = u64 [sp + 0xc0]\n 55923: u8 [a0 + 0x13] = a1\n 55926: a1 = u64 [sp + 0xb8]\n 55930: u8 [a0 + 0x12] = a1\n 55933: a1 = u64 [sp + 0xb0]\n 55937: u8 [a0 + 0x11] = a1\n 55940: a1 = u64 [sp + 0x118]\n 55944: u8 [a0 + 0x1f] = a1\n 55947: a1 = u64 [sp + 0x110]\n 55951: u8 [a0 + 0x1e] = a1\n 55954: a1 = u64 [sp + 0x108]\n 55958: u8 [a0 + 0x1d] = a1\n 55961: a1 = u64 [sp + 0x100]\n 55965: u8 [a0 + 0x1c] = a1\n 55968: a1 = u64 [sp + 0xf8]\n 55972: u8 [a0 + 0x1b] = a1\n 55975: a1 = u64 [sp + 0xf0]\n 55979: u8 [a0 + 0x1a] = a1\n 55982: a1 = u64 [sp + 0xe8]\n 55986: u8 [a0 + 0x19] = a1\n 55989: a0 = 0x20\n 55992: a1 = 0x20\n 55995: ra = 708, jump @0\n      : @784 [@dyn 354] (gas: 35)\n 56002: u8 [a0 + 31] = 0x2\n 56006: u8 [a0 + 30] = 0\n 56009: u8 [a0 + 29] = 0\n 56012: u8 [a0 + 28] = 0\n 56015: u8 [a0 + 27] = 0\n 56018: u8 [a0 + 26] = 0\n 56021: u8 [a0 + 25] = 0\n 56024: u8 [a0 + 24] = 0\n 56027: u8 [a0 + 23] = 0\n 56030: u8 [a0 + 22] = 0\n 56033: u8 [a0 + 21] = 0\n 56036: u8 [a0 + 20] = 0\n 56039: u8 [a0 + 19] = 0\n 56042: u8 [a0 + 18] = 0\n 56045: u8 [a0 + 17] = 0\n 56048: u8 [a0 + 16] = 0\n 56051: u8 [a0 + 15] = 0\n 56054: u8 [a0 + 14] = 0\n 56057: u8 [a0 + 13] = 0\n 56060: u8 [a0 + 12] = 0\n 56063: u8 [a0 + 11] = 0\n 56066: u8 [a0 + 10] = 0\n 56069: u8 [a0 + 9] = 0\n 56072: u8 [a0 + 8] = 0\n 56075: u8 [a0 + 7] = 0\n 56078: u8 [a0 + 6] = 0\n 56081: u8 [a0 + 5] = 0\n 56084: u8 [a0 + 4] = 0\n 56087: u8 [a0 + 3] = 0\n 56090: u8 [a0 + 2] = 0\n 56093: u8 [a0 + 1] = 0\n 56096: u8 [a0 + 0] = 0\n 56098: a1 = 0x40\n 56101: a0 = 0\n 56103: ra = 710, jump @0\n      : @785 [@dyn 355] (gas: 32)\n 56110: i32 a0 = a0 + 0\n 56112: i32 a2 = sp + 0x280\n 56116: a1 = 0x40\n 56119: ecalli 8 // 'hash_keccak_256'\n 56121: a0 = u64 [sp + 0x298]\n 56125: a1 = u64 [sp + 0x290]\n 56129: a2 = u64 [sp + 0x288]\n 56133: a3 = u64 [sp + 0x280]\n 56137: a0 = reverse a0\n 56139: a1 = reverse a1\n 56141: a2 = reverse a2\n 56143: a3 = reverse a3\n 56145: u64 [sp + 0x20] = a3\n 56148: u64 [sp + 0x258] = a3\n 56152: u64 [sp + 0x28] = a2\n 56155: u64 [sp + 0x250] = a2\n 56159: u64 [sp + 0x30] = a1\n 56162: u64 [sp + 0x248] = a1\n 56166: u64 [sp + 0x38] = a0\n 56169: u64 [sp + 0x240] = a0\n 56173: u64 [sp + 664] = 0\n 56177: u64 [sp + 656] = 0\n 56181: u64 [sp + 648] = 0\n 56185: u64 [sp + 640] = 0\n 56189: u32 [sp + 608] = 0x20\n 56194: i32 a1 = sp + 0x240\n 56198: i32 a3 = sp + 0x280\n 56202: i32 a4 = sp + 0x260\n 56206: a2 = 0xffffffffffffffff\n 56209: a0 = 0\n 56211: ecalli 7 // 'get_storage'\n 56213: fallthrough\n      : @786 (gas: 22)\n 56214: a2 = u64 [sp + 0x298]\n 56218: a3 = u64 [sp + 0x290]\n 56222: t1 = u64 [sp + 0x288]\n 56226: a1 = u64 [sp + 0x280]\n 56230: a4 = u64 [sp + 0x140]\n 56234: a0 = a2 ^ a4\n 56237: a4 = a2 <u a4\n 56240: t0 = u64 [sp + 0x148]\n 56244: a5 = a3 <u t0\n 56247: u64 [sp + 0x10] = a5\n 56250: a4 = a5 if a0 == 0\n 56253: a5 = u64 [sp + 0x150]\n 56257: t2 = t1 ^ a5\n 56260: s1 = t1 <u a5\n 56263: a5 = u64 [sp + 0x158]\n 56267: u64 [sp] = a1\n 56269: ra = a1 <u a5\n 56272: s1 = ra if t2 == 0\n 56275: a5 = a3 ^ t0\n 56278: a0 = a0 | a5\n 56281: a4 = s1 if a0 == 0\n 56284: jump @804 if a4 != 0\n      : @787 (gas: 89)\n 56288: a0 = u64 [sp + 0x148]\n 56292: a0 = a3 - a0\n 56295: a3 = a0 - s1\n 56298: u64 [sp + 0x18] = a3\n 56301: a0 = a0 <u s1\n 56304: a3 = u64 [sp + 0x140]\n 56308: a2 = a2 - a3\n 56311: a1 = u64 [sp + 0x10]\n 56314: a2 = a2 - a1\n 56317: a2 = a2 - a0\n 56320: u64 [sp + 0x10] = a2\n 56323: a0 = u64 [sp + 0x150]\n 56327: a0 = t1 - a0\n 56330: a0 = a0 - ra\n 56333: u64 [sp + 0x8] = a0\n 56336: a0 = u64 [sp + 0x158]\n 56340: a1 = u64 [sp]\n 56342: a0 = a1 - a0\n 56345: u64 [sp] = a0\n 56347: a0 = u64 [sp + 0x28]\n 56350: u64 [sp + 0x250] = a0\n 56354: a0 = u64 [sp + 0x30]\n 56357: u64 [sp + 0x248] = a0\n 56361: a0 = u64 [sp + 0x38]\n 56364: u64 [sp + 0x240] = a0\n 56368: s1 = u64 [sp + 0x20]\n 56371: u64 [sp + 0x258] = s1\n 56375: u64 [sp + 664] = 0\n 56379: u64 [sp + 656] = 0\n 56383: u64 [sp + 648] = 0\n 56387: u64 [sp + 640] = 0\n 56391: u32 [sp + 608] = 0x20\n 56396: i32 a1 = sp + 0x240\n 56400: i32 a3 = sp + 0x280\n 56404: i32 a4 = sp + 0x260\n 56408: a2 = 0xffffffffffffffff\n 56411: a0 = 0\n 56413: ecalli 7 // 'get_storage'\n 56415: u64 [sp + 0x258] = s1\n 56419: a0 = u64 [sp + 0x28]\n 56422: u64 [sp + 0x250] = a0\n 56426: a0 = u64 [sp + 0x30]\n 56429: u64 [sp + 0x248] = a0\n 56433: a0 = u64 [sp + 0x38]\n 56436: u64 [sp + 0x240] = a0\n 56440: a0 = u64 [sp + 0x10]\n 56443: u64 [sp + 0x298] = a0\n 56447: a0 = u64 [sp + 0x18]\n 56450: u64 [sp + 0x290] = a0\n 56454: a0 = u64 [sp + 0x8]\n 56457: u64 [sp + 0x288] = a0\n 56461: a0 = u64 [sp]\n 56463: u64 [sp + 0x280] = a0\n 56467: i32 a1 = sp + 0x240\n 56471: i32 a3 = sp + 0x280\n 56475: a2 = 0xffffffffffffffff\n 56478: a4 = 0x20\n 56481: a0 = 0\n 56483: ecalli 15 // 'set_storage'\n 56485: i32 a0 = sp + 0x220\n 56489: ecalli 5 // 'caller'\n 56491: a0 = u64 [sp + 0x228]\n 56495: a1 = i32 [sp + 0x230]\n 56499: a2 = u64 [sp + 0x220]\n 56503: a0 = reverse a0\n 56505: a3 = a0 << 0x20\n 56508: a1 = reverse a1\n 56510: a1 = a1 >> 0x20\n 56513: a3 = a3 | a1\n 56516: a0 = a0 >> 0x20\n 56519: a1 = reverse a2\n 56521: a2 = a1 << 0x20\n 56524: a0 = a0 | a2\n 56527: a1 = a1 >> 0x20\n 56530: a2 = u64 [sp + 0x140]\n 56534: u64 [sp + 0x1f8] = a2\n 56538: a2 = u64 [sp + 0x148]\n 56542: u64 [sp + 0x1f0] = a2\n 56546: a2 = u64 [sp + 0x150]\n 56550: u64 [sp + 0x1e8] = a2\n 56554: a2 = u64 [sp + 0x158]\n 56558: u64 [sp + 0x1e0] = a2\n 56562: u64 [sp + 536] = 0\n 56566: u64 [sp + 0x210] = a1\n 56570: u64 [sp + 0x208] = a0\n 56574: a0 = sp + 0x200\n 56578: a1 = sp + 0x1e0\n 56582: u64 [sp + 0x200] = a3\n 56586: ra = 712, jump @1645\n      : @788 [@dyn 356] (gas: 3)\n 56593: a1 = 0x20\n 56596: a0 = 0\n 56598: ra = 714, jump @0\n      : @789 [@dyn 357] (gas: 67)\n 56605: a1 = u64 [sp + 0x118]\n 56609: u8 [a0 + 0x1f] = a1\n 56612: a1 = u64 [sp + 0x110]\n 56616: u8 [a0 + 0x1e] = a1\n 56619: a1 = u64 [sp + 0x108]\n 56623: u8 [a0 + 0x1d] = a1\n 56626: a1 = u64 [sp + 0x100]\n 56630: u8 [a0 + 0x1c] = a1\n 56633: a1 = u64 [sp + 0xf8]\n 56637: u8 [a0 + 0x1b] = a1\n 56640: a1 = u64 [sp + 0xf0]\n 56644: u8 [a0 + 0x1a] = a1\n 56647: a1 = u64 [sp + 0xe8]\n 56651: u8 [a0 + 0x19] = a1\n 56654: a1 = u64 [sp + 0xe0]\n 56658: u8 [a0 + 0x17] = a1\n 56661: a1 = u64 [sp + 0xd8]\n 56665: u8 [a0 + 0x16] = a1\n 56668: a1 = u64 [sp + 0xd0]\n 56672: u8 [a0 + 0x15] = a1\n 56675: a1 = u64 [sp + 0xc8]\n 56679: u8 [a0 + 0x14] = a1\n 56682: a1 = u64 [sp + 0xc0]\n 56686: u8 [a0 + 0x13] = a1\n 56689: a1 = u64 [sp + 0xb8]\n 56693: u8 [a0 + 0x12] = a1\n 56696: a1 = u64 [sp + 0xb0]\n 56700: u8 [a0 + 0x11] = a1\n 56703: a1 = u64 [sp + 0xa8]\n 56707: u8 [a0 + 0xf] = a1\n 56710: a1 = u64 [sp + 0xa0]\n 56714: u8 [a0 + 0xe] = a1\n 56717: a1 = u64 [sp + 0x98]\n 56721: u8 [a0 + 0xd] = a1\n 56724: a1 = u64 [sp + 0x90]\n 56728: u8 [a0 + 0xc] = a1\n 56731: a1 = u64 [sp + 0x88]\n 56735: u8 [a0 + 0xb] = a1\n 56738: a1 = u64 [sp + 0x80]\n 56742: u8 [a0 + 0xa] = a1\n 56745: a1 = u64 [sp + 0x78]\n 56748: u8 [a0 + 0x9] = a1\n 56751: a1 = u64 [sp + 0x70]\n 56754: u8 [a0 + 0x7] = a1\n 56757: a1 = u64 [sp + 0x68]\n 56760: u8 [a0 + 0x6] = a1\n 56763: a1 = u64 [sp + 0x60]\n 56766: u8 [a0 + 0x5] = a1\n 56769: a1 = u64 [sp + 0x58]\n 56772: u8 [a0 + 0x4] = a1\n 56775: a1 = u64 [sp + 0x50]\n 56778: u8 [a0 + 0x3] = a1\n 56781: a1 = u64 [sp + 0x48]\n 56784: u8 [a0 + 0x2] = a1\n 56787: a1 = u64 [sp + 0x40]\n 56790: u8 [a0 + 0x1] = a1\n 56793: a1 = u64 [sp + 0x120]\n 56797: u8 [a0 + 0x18] = a1\n 56800: a1 = u64 [sp + 0x128]\n 56804: u8 [a0 + 0x10] = a1\n 56807: a1 = u64 [sp + 0x130]\n 56811: u8 [a0 + 0x8] = a1\n 56814: a1 = u64 [sp + 0x138]\n 56818: u8 [a0] = a1\n 56820: a0 = 0x20\n 56823: a1 = 0x20\n 56826: ra = 716, jump @0\n      : @790 [@dyn 358] (gas: 35)\n 56833: u8 [a0 + 31] = 0x2\n 56837: u8 [a0 + 30] = 0\n 56840: u8 [a0 + 29] = 0\n 56843: u8 [a0 + 28] = 0\n 56846: u8 [a0 + 27] = 0\n 56849: u8 [a0 + 26] = 0\n 56852: u8 [a0 + 25] = 0\n 56855: u8 [a0 + 24] = 0\n 56858: u8 [a0 + 23] = 0\n 56861: u8 [a0 + 22] = 0\n 56864: u8 [a0 + 21] = 0\n 56867: u8 [a0 + 20] = 0\n 56870: u8 [a0 + 19] = 0\n 56873: u8 [a0 + 18] = 0\n 56876: u8 [a0 + 17] = 0\n 56879: u8 [a0 + 16] = 0\n 56882: u8 [a0 + 15] = 0\n 56885: u8 [a0 + 14] = 0\n 56888: u8 [a0 + 13] = 0\n 56891: u8 [a0 + 12] = 0\n 56894: u8 [a0 + 11] = 0\n 56897: u8 [a0 + 10] = 0\n 56900: u8 [a0 + 9] = 0\n 56903: u8 [a0 + 8] = 0\n 56906: u8 [a0 + 7] = 0\n 56909: u8 [a0 + 6] = 0\n 56912: u8 [a0 + 5] = 0\n 56915: u8 [a0 + 4] = 0\n 56918: u8 [a0 + 3] = 0\n 56921: u8 [a0 + 2] = 0\n 56924: u8 [a0 + 1] = 0\n 56927: u8 [a0 + 0] = 0\n 56929: a1 = 0x40\n 56932: a0 = 0\n 56934: ra = 718, jump @0\n      : @791 [@dyn 359] (gas: 38)\n 56941: i32 a0 = a0 + 0\n 56943: i32 a2 = sp + 0x280\n 56947: a1 = 0x40\n 56950: ecalli 8 // 'hash_keccak_256'\n 56952: a0 = u64 [sp + 0x298]\n 56956: a1 = u64 [sp + 0x290]\n 56960: a2 = u64 [sp + 0x288]\n 56964: a3 = u64 [sp + 0x280]\n 56968: a0 = reverse a0\n 56970: a1 = reverse a1\n 56972: a2 = reverse a2\n 56974: a3 = reverse a3\n 56976: u64 [sp + 0x258] = a3\n 56980: u64 [sp + 0x250] = a2\n 56984: u64 [sp + 0x248] = a1\n 56988: u64 [sp + 0x240] = a0\n 56992: u64 [sp + 664] = 0\n 56996: u64 [sp + 656] = 0\n 57000: u64 [sp + 648] = 0\n 57004: u64 [sp + 640] = 0\n 57008: u32 [sp + 608] = 0x20\n 57013: i32 a1 = sp + 0x240\n 57017: i32 a3 = sp + 0x280\n 57021: i32 a4 = sp + 0x260\n 57025: a2 = 0xffffffffffffffff\n 57028: a0 = 0\n 57030: ecalli 7 // 'get_storage'\n 57032: a0 = u64 [sp + 0x298]\n 57036: u64 [sp + 0xf0] = a0\n 57040: a0 = u64 [sp + 0x290]\n 57044: u64 [sp + 0xf8] = a0\n 57048: a0 = u64 [sp + 0x288]\n 57052: u64 [sp + 0x100] = a0\n 57056: a0 = u64 [sp + 0x280]\n 57060: u64 [sp + 0x108] = a0\n 57064: a0 = 0x40\n 57067: a1 = 0x20\n 57070: ra = 720, jump @0\n      : @792 [@dyn 360] (gas: 102)\n 57077: a1 = u8 [a0 + 0x11]\n 57080: a2 = u8 [a0 + 0x10]\n 57083: a3 = u8 [a0 + 0x12]\n 57086: a4 = u8 [a0 + 0x13]\n 57089: a1 = a1 << 0x8\n 57092: a1 = a1 | a2\n 57095: a3 = a3 << 0x10\n 57098: a4 = a4 << 0x18\n 57101: a3 = a3 | a4\n 57104: a1 = a1 | a3\n 57107: a2 = u8 [a0 + 0x15]\n 57110: a3 = u8 [a0 + 0x14]\n 57113: a4 = u8 [a0 + 0x16]\n 57116: a5 = u8 [a0 + 0x17]\n 57119: a2 = a2 << 0x8\n 57122: a2 = a2 | a3\n 57125: a4 = a4 << 0x10\n 57128: a5 = a5 << 0x18\n 57131: a4 = a4 | a5\n 57134: a2 = a2 | a4\n 57137: a2 = a2 << 0x20\n 57140: t0 = a2 | a1\n 57143: a2 = u8 [a0 + 0x1]\n 57146: a3 = u8 [a0]\n 57148: a4 = u8 [a0 + 0x2]\n 57151: a5 = u8 [a0 + 0x3]\n 57154: a2 = a2 << 0x8\n 57157: a2 = a2 | a3\n 57160: a4 = a4 << 0x10\n 57163: a5 = a5 << 0x18\n 57166: a4 = a4 | a5\n 57169: a2 = a2 | a4\n 57172: a3 = u8 [a0 + 0x5]\n 57175: a4 = u8 [a0 + 0x4]\n 57178: a5 = u8 [a0 + 0x6]\n 57181: s1 = u8 [a0 + 0x7]\n 57184: a3 = a3 << 0x8\n 57187: a3 = a3 | a4\n 57190: a5 = a5 << 0x10\n 57193: s1 = s1 << 0x18\n 57196: a5 = a5 | s1\n 57199: a3 = a3 | a5\n 57202: a3 = a3 << 0x20\n 57205: a2 = a2 | a3\n 57208: a3 = u8 [a0 + 0x19]\n 57211: a4 = u8 [a0 + 0x18]\n 57214: a5 = u8 [a0 + 0x1a]\n 57217: s1 = u8 [a0 + 0x1b]\n 57220: a3 = a3 << 0x8\n 57223: a3 = a3 | a4\n 57226: a5 = a5 << 0x10\n 57229: s1 = s1 << 0x18\n 57232: a5 = a5 | s1\n 57235: a3 = a3 | a5\n 57238: a4 = u8 [a0 + 0x1d]\n 57241: a5 = u8 [a0 + 0x1c]\n 57244: s1 = u8 [a0 + 0x1e]\n 57247: a1 = u8 [a0 + 0x1f]\n 57250: a4 = a4 << 0x8\n 57253: a4 = a4 | a5\n 57256: s1 = s1 << 0x10\n 57259: a1 = a1 << 0x18\n 57262: a1 = a1 | s1\n 57265: a1 = a1 | a4\n 57268: a1 = a1 << 0x20\n 57271: a3 = a3 | a1\n 57274: a1 = u8 [a0 + 0x9]\n 57277: a4 = u8 [a0 + 0x8]\n 57280: a5 = u8 [a0 + 0xa]\n 57283: s1 = u8 [a0 + 0xb]\n 57286: a1 = a1 << 0x8\n 57289: a1 = a1 | a4\n 57292: a5 = a5 << 0x10\n 57295: s1 = s1 << 0x18\n 57298: a5 = a5 | s1\n 57301: a1 = a1 | a5\n 57304: a4 = u8 [a0 + 0xd]\n 57307: a5 = u8 [a0 + 0xc]\n 57310: s1 = u8 [a0 + 0xe]\n 57313: a0 = u8 [a0 + 0xf]\n 57316: a4 = a4 << 0x8\n 57319: a4 = a4 | a5\n 57322: s1 = s1 << 0x10\n 57325: a0 = a0 << 0x18\n 57328: a0 = a0 | s1\n 57331: a0 = a0 | a4\n 57334: a0 = a0 << 0x20\n 57337: a0 = a0 | a1\n 57340: s1 = reverse a0\n 57342: a3 = reverse a3\n 57344: a1 = reverse a2\n 57346: a0 = reverse t0\n 57348: u64 [sp + 0x118] = a0\n 57352: u64 [sp + 0x110] = a1\n 57356: a0 = a0 | a1\n 57359: a1 = a3 | s1\n 57362: a1 = a1 | a0\n 57365: a1 = a1 >> 0x20\n 57368: a0 = a0 | s1\n 57371: a0 = a0 << 0x20\n 57374: a0 = a0 | a1\n 57377: jump @803 if a0 != 0\n      : @793 (gas: 5)\n 57381: i32 a0 = a3 + 0\n 57383: a1 = 0x20\n 57386: u64 [sp + 0xe0] = a0\n 57390: u64 [sp + 0xe8] = a3\n 57394: ra = 722, jump @0\n      : @794 [@dyn 361] (gas: 77)\n 57401: a1 = u64 [sp + 0x140]\n 57405: a1 = reverse a1\n 57407: a2 = u64 [sp + 0x148]\n 57411: a2 = reverse a2\n 57413: a3 = u64 [sp + 0x150]\n 57417: a3 = reverse a3\n 57419: a4 = u64 [sp + 0x158]\n 57423: a4 = reverse a4\n 57425: a5 = a4 >> 0x38\n 57428: u8 [a0 + 0x1f] = a5\n 57431: a5 = a4 >> 0x30\n 57434: u8 [a0 + 0x1e] = a5\n 57437: a5 = a4 >> 0x28\n 57440: u8 [a0 + 0x1d] = a5\n 57443: a5 = a4 >> 0x20\n 57446: u8 [a0 + 0x1c] = a5\n 57449: a5 = a4 >> 0x18\n 57452: u8 [a0 + 0x1b] = a5\n 57455: a5 = a4 >> 0x10\n 57458: u8 [a0 + 0x1a] = a5\n 57461: a5 = a4 >> 0x8\n 57464: u8 [a0 + 0x19] = a5\n 57467: u8 [a0 + 0x18] = a4\n 57470: u8 [a0 + 0x10] = a3\n 57473: a4 = a3 >> 0x38\n 57476: u8 [a0 + 0x17] = a4\n 57479: a4 = a3 >> 0x30\n 57482: u8 [a0 + 0x16] = a4\n 57485: a4 = a3 >> 0x28\n 57488: u8 [a0 + 0x15] = a4\n 57491: a4 = a3 >> 0x20\n 57494: u8 [a0 + 0x14] = a4\n 57497: a4 = a3 >> 0x18\n 57500: u8 [a0 + 0x13] = a4\n 57503: a4 = a3 >> 0x10\n 57506: u8 [a0 + 0x12] = a4\n 57509: a3 = a3 >> 0x8\n 57512: u8 [a0 + 0x11] = a3\n 57515: u8 [a0 + 0x8] = a2\n 57518: a3 = a2 >> 0x38\n 57521: u8 [a0 + 0xf] = a3\n 57524: a3 = a2 >> 0x30\n 57527: u8 [a0 + 0xe] = a3\n 57530: a3 = a2 >> 0x28\n 57533: u8 [a0 + 0xd] = a3\n 57536: a3 = a2 >> 0x20\n 57539: u8 [a0 + 0xc] = a3\n 57542: a3 = a2 >> 0x18\n 57545: u8 [a0 + 0xb] = a3\n 57548: a3 = a2 >> 0x10\n 57551: u8 [a0 + 0xa] = a3\n 57554: a2 = a2 >> 0x8\n 57557: u8 [a0 + 0x9] = a2\n 57560: u8 [a0] = a1\n 57562: a2 = a1 >> 0x38\n 57565: u8 [a0 + 0x7] = a2\n 57568: a2 = a1 >> 0x30\n 57571: u8 [a0 + 0x6] = a2\n 57574: a2 = a1 >> 0x28\n 57577: u8 [a0 + 0x5] = a2\n 57580: a2 = a1 >> 0x20\n 57583: u8 [a0 + 0x4] = a2\n 57586: a2 = a1 >> 0x18\n 57589: u8 [a0 + 0x3] = a2\n 57592: a2 = a1 >> 0x10\n 57595: u8 [a0 + 0x2] = a2\n 57598: a1 = a1 >> 0x8\n 57601: a2 = u64 [sp + 0x110]\n 57605: a2 = a2 | s1\n 57608: a3 = 0xffffffe0\n 57618: a4 = u64 [sp + 0xe8]\n 57622: a3 = a4 <u a3\n 57625: a4 = u64 [sp + 0x118]\n 57629: a3 = 0 if a4 != 0\n 57631: a3 = 0 if a2 != 0\n 57633: u8 [a0 + 0x1] = a1\n 57636: jump @803 if a3 == 0\n      : @795 (gas: 4)\n 57640: s1 = u64 [sp + 0xe0]\n 57644: i32 a0 = s1 + 0x20\n 57647: a1 = 0x20\n 57650: ra = 724, jump @0\n      : @796 [@dyn 362] (gas: 71)\n 57657: a1 = u64 [sp + 0xf0]\n 57661: a1 = reverse a1\n 57663: a2 = u64 [sp + 0xf8]\n 57667: a2 = reverse a2\n 57669: a3 = u64 [sp + 0x100]\n 57673: a3 = reverse a3\n 57675: a4 = u64 [sp + 0x108]\n 57679: a4 = reverse a4\n 57681: a5 = a4 >> 0x38\n 57684: u8 [a0 + 0x1f] = a5\n 57687: a5 = a4 >> 0x30\n 57690: u8 [a0 + 0x1e] = a5\n 57693: a5 = a4 >> 0x28\n 57696: u8 [a0 + 0x1d] = a5\n 57699: a5 = a4 >> 0x20\n 57702: u8 [a0 + 0x1c] = a5\n 57705: a5 = a4 >> 0x18\n 57708: u8 [a0 + 0x1b] = a5\n 57711: a5 = a4 >> 0x10\n 57714: u8 [a0 + 0x1a] = a5\n 57717: a5 = a4 >> 0x8\n 57720: u8 [a0 + 0x19] = a5\n 57723: u8 [a0 + 0x18] = a4\n 57726: u8 [a0 + 0x10] = a3\n 57729: a4 = a3 >> 0x38\n 57732: u8 [a0 + 0x17] = a4\n 57735: a4 = a3 >> 0x30\n 57738: u8 [a0 + 0x16] = a4\n 57741: a4 = a3 >> 0x28\n 57744: u8 [a0 + 0x15] = a4\n 57747: a4 = a3 >> 0x20\n 57750: u8 [a0 + 0x14] = a4\n 57753: a4 = a3 >> 0x18\n 57756: u8 [a0 + 0x13] = a4\n 57759: a4 = a3 >> 0x10\n 57762: u8 [a0 + 0x12] = a4\n 57765: a3 = a3 >> 0x8\n 57768: u8 [a0 + 0x11] = a3\n 57771: u8 [a0 + 0x8] = a2\n 57774: a3 = a2 >> 0x38\n 57777: u8 [a0 + 0xf] = a3\n 57780: a3 = a2 >> 0x30\n 57783: u8 [a0 + 0xe] = a3\n 57786: a3 = a2 >> 0x28\n 57789: u8 [a0 + 0xd] = a3\n 57792: a3 = a2 >> 0x20\n 57795: u8 [a0 + 0xc] = a3\n 57798: a3 = a2 >> 0x18\n 57801: u8 [a0 + 0xb] = a3\n 57804: a3 = a2 >> 0x10\n 57807: u8 [a0 + 0xa] = a3\n 57810: a2 = a2 >> 0x8\n 57813: u8 [a0 + 0x9] = a2\n 57816: u8 [a0] = a1\n 57818: a2 = a1 >> 0x38\n 57821: u8 [a0 + 0x7] = a2\n 57824: a2 = a1 >> 0x30\n 57827: u8 [a0 + 0x6] = a2\n 57830: a2 = a1 >> 0x28\n 57833: u8 [a0 + 0x5] = a2\n 57836: a2 = a1 >> 0x20\n 57839: u8 [a0 + 0x4] = a2\n 57842: a2 = a1 >> 0x18\n 57845: u8 [a0 + 0x3] = a2\n 57848: a2 = a1 >> 0x10\n 57851: u8 [a0 + 0x2] = a2\n 57854: a1 = a1 >> 0x8\n 57857: u8 [a0 + 0x1] = a1\n 57860: a1 = 0x40\n 57863: a0 = s1\n 57865: ra = 726, jump @0\n      : @797 [@dyn 363] (gas: 27)\n 57872: a1 = u64 [0x20020]\n 57877: a2 = u64 [0x20028]\n 57882: a3 = u64 [0x20030]\n 57887: a4 = u64 [0x20038]\n 57892: u64 [sp + 0x298] = a1\n 57896: u64 [sp + 0x290] = a2\n 57900: u64 [sp + 0x288] = a3\n 57904: u64 [sp + 0x280] = a4\n 57908: a1 = u64 [sp + 0x120]\n 57912: u64 [sp + 0x2b8] = a1\n 57916: a1 = u64 [sp + 0x128]\n 57920: u64 [sp + 0x2b0] = a1\n 57924: a1 = u64 [sp + 0x130]\n 57928: u64 [sp + 0x2a8] = a1\n 57932: a1 = u64 [sp + 0x138]\n 57936: u64 [sp + 0x2a0] = a1\n 57940: i32 a2 = a0 + 0\n 57942: i32 a0 = sp + 0x280\n 57946: a1 = 0x2\n 57949: a3 = 0x40\n 57952: ecalli 6 // 'deposit_event'\n 57954: sp = s0 + 0xfffffffffffffd20\n 57958: ra = u64 [sp + 0x2d8]\n 57962: s0 = u64 [sp + 0x2d0]\n 57966: s1 = u64 [sp + 0x2c8]\n 57970: sp = sp + 0x2e0\n 57974: ret\n      : @798 (gas: 3)\n 57976: a0 = 0x40\n 57979: a1 = 0x20\n 57982: ra = 728, jump @0\n      : @799 [@dyn 364] (gas: 103)\n 57989: a1 = u8 [a0 + 0x11]\n 57992: a2 = u8 [a0 + 0x10]\n 57995: a3 = u8 [a0 + 0x12]\n 57998: a4 = u8 [a0 + 0x13]\n 58001: a1 = a1 << 0x8\n 58004: a1 = a1 | a2\n 58007: a3 = a3 << 0x10\n 58010: a4 = a4 << 0x18\n 58013: a3 = a3 | a4\n 58016: a1 = a1 | a3\n 58019: a2 = u8 [a0 + 0x15]\n 58022: a3 = u8 [a0 + 0x14]\n 58025: a4 = u8 [a0 + 0x16]\n 58028: a5 = u8 [a0 + 0x17]\n 58031: a2 = a2 << 0x8\n 58034: a2 = a2 | a3\n 58037: a4 = a4 << 0x10\n 58040: a5 = a5 << 0x18\n 58043: a4 = a4 | a5\n 58046: a2 = a2 | a4\n 58049: a2 = a2 << 0x20\n 58052: t0 = a2 | a1\n 58055: a2 = u8 [a0 + 0x1]\n 58058: a3 = u8 [a0]\n 58060: a4 = u8 [a0 + 0x2]\n 58063: a5 = u8 [a0 + 0x3]\n 58066: a2 = a2 << 0x8\n 58069: a2 = a2 | a3\n 58072: a4 = a4 << 0x10\n 58075: a5 = a5 << 0x18\n 58078: a4 = a4 | a5\n 58081: a2 = a2 | a4\n 58084: a3 = u8 [a0 + 0x5]\n 58087: a4 = u8 [a0 + 0x4]\n 58090: a5 = u8 [a0 + 0x6]\n 58093: s1 = u8 [a0 + 0x7]\n 58096: a3 = a3 << 0x8\n 58099: a3 = a3 | a4\n 58102: a5 = a5 << 0x10\n 58105: s1 = s1 << 0x18\n 58108: a5 = a5 | s1\n 58111: a3 = a3 | a5\n 58114: a3 = a3 << 0x20\n 58117: a2 = a2 | a3\n 58120: a3 = u8 [a0 + 0x19]\n 58123: a4 = u8 [a0 + 0x18]\n 58126: a5 = u8 [a0 + 0x1a]\n 58129: s1 = u8 [a0 + 0x1b]\n 58132: a3 = a3 << 0x8\n 58135: a3 = a3 | a4\n 58138: a5 = a5 << 0x10\n 58141: s1 = s1 << 0x18\n 58144: a5 = a5 | s1\n 58147: a3 = a3 | a5\n 58150: a4 = u8 [a0 + 0x1d]\n 58153: a5 = u8 [a0 + 0x1c]\n 58156: s1 = u8 [a0 + 0x1e]\n 58159: a1 = u8 [a0 + 0x1f]\n 58162: a4 = a4 << 0x8\n 58165: a4 = a4 | a5\n 58168: s1 = s1 << 0x10\n 58171: a1 = a1 << 0x18\n 58174: a1 = a1 | s1\n 58177: a1 = a1 | a4\n 58180: a1 = a1 << 0x20\n 58183: a3 = a3 | a1\n 58186: a1 = u8 [a0 + 0x9]\n 58189: a4 = u8 [a0 + 0x8]\n 58192: a5 = u8 [a0 + 0xa]\n 58195: s1 = u8 [a0 + 0xb]\n 58198: a1 = a1 << 0x8\n 58201: a1 = a1 | a4\n 58204: a5 = a5 << 0x10\n 58207: s1 = s1 << 0x18\n 58210: a5 = a5 | s1\n 58213: a1 = a1 | a5\n 58216: a4 = u8 [a0 + 0xd]\n 58219: a5 = u8 [a0 + 0xc]\n 58222: s1 = u8 [a0 + 0xe]\n 58225: a0 = u8 [a0 + 0xf]\n 58228: a4 = a4 << 0x8\n 58231: a4 = a4 | a5\n 58234: s1 = s1 << 0x10\n 58237: a0 = a0 << 0x18\n 58240: a0 = a0 | s1\n 58243: a0 = a0 | a4\n 58246: a0 = a0 << 0x20\n 58249: a0 = a0 | a1\n 58252: s1 = reverse a0\n 58254: a1 = reverse a3\n 58256: a2 = reverse a2\n 58258: a0 = reverse t0\n 58260: u64 [sp + 0x158] = a0\n 58264: u64 [sp + 0x150] = a2\n 58268: a0 = a0 | a2\n 58271: a2 = a1\n 58273: a1 = a1 | s1\n 58276: a1 = a1 | a0\n 58279: a1 = a1 >> 0x20\n 58282: a0 = a0 | s1\n 58285: a0 = a0 << 0x20\n 58288: a0 = a0 | a1\n 58291: jump @803 if a0 != 0\n      : @800 (gas: 5)\n 58295: u64 [sp + 0x148] = a2\n 58299: i32 a0 = a2 + 0\n 58301: a1 = 0x20\n 58304: u64 [sp + 0x140] = a0\n 58308: ra = 730, jump @0\n      : @801 [@dyn 365] (gas: 50)\n 58315: u8 [a0 + 31] = 0\n 58318: u8 [a0 + 30] = 0\n 58321: u8 [a0 + 29] = 0\n 58324: u8 [a0 + 28] = 0\n 58327: u8 [a0 + 27] = 0\n 58330: u8 [a0 + 26] = 0\n 58333: u8 [a0 + 25] = 0\n 58336: u8 [a0 + 24] = 0\n 58339: u8 [a0 + 23] = 0\n 58342: u8 [a0 + 22] = 0\n 58345: u8 [a0 + 21] = 0\n 58348: u8 [a0 + 20] = 0\n 58351: u8 [a0 + 19] = 0\n 58354: u8 [a0 + 18] = 0\n 58357: u8 [a0 + 17] = 0\n 58360: u8 [a0 + 16] = 0\n 58363: u8 [a0 + 15] = 0\n 58366: u8 [a0 + 14] = 0\n 58369: u8 [a0 + 13] = 0\n 58372: u8 [a0 + 12] = 0\n 58375: u8 [a0 + 11] = 0\n 58378: u8 [a0 + 10] = 0\n 58381: u8 [a0 + 9] = 0\n 58384: u8 [a0 + 8] = 0\n 58387: u8 [a0 + 7] = 0\n 58390: u8 [a0 + 6] = 0\n 58393: u8 [a0 + 5] = 0\n 58396: u8 [a0 + 4] = 0\n 58399: u8 [a0 + 3] = 0xa0\n 58404: u8 [a0 + 2] = 0x79\n 58408: u8 [a0 + 1] = 0xc3\n 58413: u8 [a0 + 0] = 0x8\n 58416: a1 = u64 [sp + 0x148]\n 58420: a0 = a1 + 0x4\n 58423: a1 = a0 <u a1\n 58426: a3 = u64 [sp + 0x158]\n 58430: a2 = a3 + a1\n 58433: a3 = a2 <u a3\n 58436: a3 = a1 if a1 == 0\n 58439: a3 = a3 + s1\n 58442: a1 = a3 <u s1\n 58445: a4 = u64 [sp + 0x150]\n 58449: a4 = a4 + a1\n 58452: u64 [sp + 0x168] = a2\n 58456: u64 [sp + 0x160] = a0\n 58460: u64 [sp + 0x170] = a3\n 58464: a0 = sp + 0x180\n 58468: a1 = sp + 0x160\n 58472: u64 [sp + 0x178] = a4\n 58476: ra = 732, jump @768\n      : @802 [@dyn 366] (gas: 30)\n 58482: a0 = u64 [sp + 0x188]\n 58486: t0 = u64 [sp + 0x198]\n 58490: t1 = u64 [sp + 0x180]\n 58494: a3 = u64 [sp + 0x190]\n 58498: a1 = u64 [sp + 0x158]\n 58502: a4 = a0 ^ a1\n 58505: a5 = a0 <u a1\n 58508: t2 = a1\n 58510: a2 = u64 [sp + 0x148]\n 58514: a1 = t1 <u a2\n 58517: a5 = a1 if a4 == 0\n 58520: a4 = a3 - s1\n 58523: a3 = a3 <u s1\n 58526: s1 = u64 [sp + 0x150]\n 58530: s1 = t0 - s1\n 58533: s1 = s1 - a3\n 58536: a3 = a4 <u a5\n 58539: s1 = s1 - a3\n 58542: a4 = a4 - a5\n 58545: a0 = a0 - t2\n 58548: a1 = a0 - a1\n 58551: a0 = t1 - a2\n 58554: a1 = a1 | s1\n 58557: a2 = a0 | a4\n 58560: a2 = a2 | a1\n 58563: a1 = a1 | a4\n 58566: a2 = a2 >> 0x20\n 58569: a1 = a1 << 0x20\n 58572: a1 = a1 | a2\n 58575: jump @808 if a1 == 0\n      : @803 (gas: 1)\n 58578: trap\n      : @804 (gas: 8)\n 58579: u64 [sp + 464] = 0\n 58583: u64 [sp + 456] = 0\n 58587: u64 [sp + 448] = 0\n 58591: a0 = 0x4e487b7100000000\n 58601: a1 = sp + 0x1c0\n 58605: u64 [sp + 0x1d8] = a0\n 58609: a0 = 0\n 58611: ra = 734, jump @23\n      : @805 [@dyn 367] (gas: 7)\n 58618: u64 [sp + 440] = 0\n 58622: u64 [sp + 432] = 0\n 58626: u64 [sp + 416] = 0x11\n 58631: a0 = 0x4\n 58634: a1 = sp + 0x1a0\n 58638: u64 [sp + 424] = 0\n 58642: ra = 736, jump @23\n      : @806 [@dyn 368] (gas: 3)\n 58649: a1 = 0x24\n 58652: a0 = 0\n 58654: ra = 738, jump @0\n      : @807 [@dyn 369] (gas: 5)\n 58661: i32 a1 = a0 + 0\n 58663: a0 = 0x1\n 58666: a2 = 0x24\n 58669: ecalli 13 // 'seal_return'\n 58671: fallthrough\n      : @808 (gas: 4)\n 58672: i32 s1 = a0 + 0\n 58674: a0 = u64 [sp + 0x140]\n 58678: a1 = s1\n 58680: ra = 740, jump @0\n      : @809 [@dyn 370] (gas: 6)\n 58687: i32 a1 = a0 + 0\n 58689: a0 = 0x1\n 58692: a2 = s1\n 58694: ra = 0x2e6\n 58698: ecalli 13 // 'seal_return'\n 58700: fallthrough\n      : @810 [@dyn 371] (gas: 24)\n 58701: sp = sp + 0xffffffffffffffb0\n 58704: u64 [sp + 0x48] = ra\n 58707: u64 [sp + 0x40] = s0\n 58710: s0 = sp + 0x50\n 58713: sp = sp & 0xfffffffffffffff0\n 58716: t0 = u64 [a0]\n 58718: t1 = u64 [a0 + 0x8]\n 58721: a4 = u64 [a0 + 0x10]\n 58724: a0 = u64 [a0 + 0x18]\n 58727: a5 = u64 [a1]\n 58729: a2 = u64 [a1 + 0x8]\n 58732: a3 = u64 [a1 + 0x10]\n 58735: a1 = u64 [a1 + 0x18]\n 58738: u64 [sp + 0x18] = a1\n 58741: u64 [sp + 0x10] = a3\n 58744: u64 [sp + 0x8] = a2\n 58747: u64 [sp] = a5\n 58749: u64 [sp + 0x38] = a0\n 58752: u64 [sp + 0x30] = a4\n 58755: u64 [sp + 0x28] = t1\n 58758: a0 = sp + 0x20\n 58761: a1 = sp\n 58763: u64 [sp + 0x20] = t0\n 58766: ra = 744, jump @747\n      : @811 [@dyn 372] (gas: 5)\n 58772: sp = s0 + 0xffffffffffffffb0\n 58775: ra = u64 [sp + 0x48]\n 58778: s0 = u64 [sp + 0x40]\n 58781: sp = sp + 0x50\n 58784: ret\n      : @812 (gas: 20)\n 58786: sp = sp + 0xfffffffffffffde0\n 58790: u64 [sp + 0x218] = ra\n 58794: u64 [sp + 0x210] = s0\n 58798: u64 [sp + 0x208] = s1\n 58802: s0 = sp + 0x220\n 58806: sp = sp & 0xffffffffffffffe0\n 58809: t1 = u64 [a4 + 0x8]\n 58812: t0 = u64 [a4]\n 58814: t2 = u64 [a4 + 0x10]\n 58817: ra = u64 [a4 + 0x18]\n 58820: a4 = t1 >u 0\n 58822: a5 = t0 <u 0x40\n 58825: a5 = a5 ^ 0x1\n 58828: a5 = a4 if t1 != 0\n 58831: a4 = ra >s 0\n 58833: s1 = t2 >u 0\n 58835: s1 = a4 if ra != 0\n 58838: a4 = t2 | ra\n 58841: s1 = a5 if a4 == 0\n 58844: jump @829 if s1 == 0\n      : @813 (gas: 20)\n 58848: u64 [sp + 0x88] = ra\n 58852: u64 [sp + 0x90] = t2\n 58856: u64 [sp + 0x98] = t1\n 58860: u64 [sp + 0xa0] = t0\n 58864: u64 [sp + 0x80] = a0\n 58868: s1 = u64 [a3 + 0x18]\n 58871: a5 = u64 [a3 + 0x10]\n 58874: a4 = u64 [a3]\n 58876: a3 = u64 [a3 + 0x8]\n 58879: a0 = a4 | a5\n 58882: u64 [sp + 0xb0] = s1\n 58886: u64 [sp + 0xa8] = a3\n 58890: a3 = a3 | s1\n 58893: a0 = a0 | a3\n 58896: a0 = a0 >> 0x20\n 58899: u64 [sp + 0xb8] = a5\n 58903: a3 = a3 | a5\n 58906: a3 = a3 << 0x20\n 58909: a0 = a0 | a3\n 58912: jump @828 if a0 != 0\n      : @814 (gas: 22)\n 58916: a0 = u64 [a2 + 0x18]\n 58919: u64 [sp + 0x38] = a0\n 58922: a0 = u64 [a2 + 0x10]\n 58925: u64 [sp + 0x40] = a0\n 58928: a0 = u64 [a2 + 0x8]\n 58931: u64 [sp + 0x48] = a0\n 58934: a0 = u64 [a2]\n 58936: u64 [sp + 0x50] = a0\n 58939: a0 = u64 [a1 + 0x18]\n 58942: u64 [sp + 0x58] = a0\n 58945: a0 = u64 [a1 + 0x10]\n 58948: u64 [sp + 0x60] = a0\n 58951: a0 = u64 [a1 + 0x8]\n 58954: u64 [sp + 0x68] = a0\n 58957: a0 = u64 [a1]\n 58959: u64 [sp + 0x70] = a0\n 58962: s1 = a4\n 58964: i32 a1 = a4 + 0\n 58966: i32 a0 = sp + 0x1e0\n 58970: u64 [sp + 0x30] = a1\n 58973: ecalli 3 // 'call_data_load'\n 58975: fallthrough\n      : @815 (gas: 10)\n 58976: a0 = u64 [sp + 0xb8]\n 58980: a1 = u64 [sp + 0xb0]\n 58984: a0 = a0 | a1\n 58987: a1 = 0xffffffe0\n 58997: u64 [sp + 0x78] = s1\n 59000: a1 = s1 <u a1\n 59003: a2 = u64 [sp + 0xa8]\n 59007: a1 = 0 if a2 != 0\n 59009: a1 = 0 if a0 != 0\n 59011: jump @828 if a1 == 0\n      : @816 (gas: 14)\n 59015: a0 = u64 [sp + 0x1f8]\n 59019: u64 [sp + 0x18] = a0\n 59022: a0 = u64 [sp + 0x1f0]\n 59026: u64 [sp + 0x20] = a0\n 59029: a0 = u64 [sp + 0x1e8]\n 59033: u64 [sp + 0x28] = a0\n 59036: s1 = u64 [sp + 0x1e0]\n 59040: a0 = u64 [sp + 0x30]\n 59043: i32 a1 = a0 + 0x20\n 59046: i32 a0 = sp + 0x1e0\n 59050: ecalli 3 // 'call_data_load'\n 59052: a1 = 0x20\n 59055: a0 = 0\n 59057: ra = 746, jump @0\n      : @817 [@dyn 373] (gas: 70)\n 59064: a1 = u64 [sp + 0x18]\n 59067: a1 = reverse a1\n 59069: a2 = u64 [sp + 0x20]\n 59072: a2 = reverse a2\n 59074: a3 = u64 [sp + 0x28]\n 59077: a3 = reverse a3\n 59079: a4 = reverse s1\n 59081: a5 = a4 >> 0x38\n 59084: u8 [a0 + 0x1f] = a5\n 59087: a5 = a4 >> 0x30\n 59090: u8 [a0 + 0x1e] = a5\n 59093: a5 = a4 >> 0x28\n 59096: u8 [a0 + 0x1d] = a5\n 59099: a5 = a4 >> 0x20\n 59102: u8 [a0 + 0x1c] = a5\n 59105: a5 = a4 >> 0x18\n 59108: u8 [a0 + 0x1b] = a5\n 59111: a5 = a4 >> 0x10\n 59114: u8 [a0 + 0x1a] = a5\n 59117: a5 = a4 >> 0x8\n 59120: u8 [a0 + 0x19] = a5\n 59123: u8 [a0 + 0x18] = a4\n 59126: a4 = a3 >> 0x38\n 59129: u8 [a0 + 0x17] = a4\n 59132: a4 = a3 >> 0x30\n 59135: u8 [a0 + 0x16] = a4\n 59138: a4 = a3 >> 0x28\n 59141: u8 [a0 + 0x15] = a4\n 59144: a4 = a3 >> 0x20\n 59147: u8 [a0 + 0x14] = a4\n 59150: a4 = a3 >> 0x18\n 59153: u8 [a0 + 0x13] = a4\n 59156: a4 = a3 >> 0x10\n 59159: u8 [a0 + 0x12] = a4\n 59162: a4 = a3 >> 0x8\n 59165: u8 [a0 + 0x11] = a4\n 59168: u8 [a0 + 0x10] = a3\n 59171: a3 = a2 >> 0x38\n 59174: u8 [a0 + 0xf] = a3\n 59177: a3 = a2 >> 0x30\n 59180: u8 [a0 + 0xe] = a3\n 59183: a3 = a2 >> 0x28\n 59186: u8 [a0 + 0xd] = a3\n 59189: a3 = a2 >> 0x20\n 59192: u8 [a0 + 0xc] = a3\n 59195: a3 = a2 >> 0x18\n 59198: u8 [a0 + 0xb] = a3\n 59201: a3 = a2 >> 0x10\n 59204: u8 [a0 + 0xa] = a3\n 59207: a3 = a2 >> 0x8\n 59210: u8 [a0 + 0x9] = a3\n 59213: u8 [a0 + 0x8] = a2\n 59216: a2 = a1 >> 0x38\n 59219: u8 [a0 + 0x7] = a2\n 59222: a2 = a1 >> 0x30\n 59225: u8 [a0 + 0x6] = a2\n 59228: a2 = a1 >> 0x28\n 59231: u8 [a0 + 0x5] = a2\n 59234: a2 = a1 >> 0x20\n 59237: u8 [a0 + 0x4] = a2\n 59240: a2 = a1 >> 0x18\n 59243: u8 [a0 + 0x3] = a2\n 59246: a2 = a1 >> 0x10\n 59249: u8 [a0 + 0x2] = a2\n 59252: a2 = a1 >> 0x8\n 59255: u8 [a0 + 0x1] = a2\n 59258: u8 [a0] = a1\n 59260: a0 = 0x20\n 59263: a1 = 0x20\n 59266: ra = 748, jump @0\n      : @818 [@dyn 374] (gas: 35)\n 59273: u8 [a0 + 31] = 0\n 59276: u8 [a0 + 30] = 0\n 59279: u8 [a0 + 29] = 0\n 59282: u8 [a0 + 28] = 0\n 59285: u8 [a0 + 27] = 0\n 59288: u8 [a0 + 26] = 0\n 59291: u8 [a0 + 25] = 0\n 59294: u8 [a0 + 24] = 0\n 59297: u8 [a0 + 23] = 0\n 59300: u8 [a0 + 22] = 0\n 59303: u8 [a0 + 21] = 0\n 59306: u8 [a0 + 20] = 0\n 59309: u8 [a0 + 19] = 0\n 59312: u8 [a0 + 18] = 0\n 59315: u8 [a0 + 17] = 0\n 59318: u8 [a0 + 16] = 0\n 59321: u8 [a0 + 15] = 0\n 59324: u8 [a0 + 14] = 0\n 59327: u8 [a0 + 13] = 0\n 59330: u8 [a0 + 12] = 0\n 59333: u8 [a0 + 11] = 0\n 59336: u8 [a0 + 10] = 0\n 59339: u8 [a0 + 9] = 0\n 59342: u8 [a0 + 8] = 0\n 59345: u8 [a0 + 7] = 0\n 59348: u8 [a0 + 6] = 0\n 59351: u8 [a0 + 5] = 0\n 59354: u8 [a0 + 4] = 0\n 59357: u8 [a0 + 3] = 0\n 59360: u8 [a0 + 2] = 0\n 59363: u8 [a0 + 1] = 0\n 59366: u8 [a0 + 0] = 0\n 59368: a1 = 0x40\n 59371: a0 = 0\n 59373: ra = 750, jump @0\n      : @819 [@dyn 375] (gas: 115)\n 59380: i32 a0 = a0 + 0\n 59382: i32 a2 = sp + 0x1e0\n 59386: a1 = 0x40\n 59389: ecalli 8 // 'hash_keccak_256'\n 59391: a0 = u64 [sp + 0x1e0]\n 59395: a1 = u64 [sp + 0x1e8]\n 59399: a2 = u64 [sp + 0x1f0]\n 59403: a3 = u64 [sp + 0x1f8]\n 59407: a0 = reverse a0\n 59409: u64 [sp + 0x30] = a0\n 59412: a0 = reverse a1\n 59414: u64 [sp + 0x28] = a0\n 59417: a0 = reverse a2\n 59419: u64 [sp + 0x20] = a0\n 59422: s1 = reverse a3\n 59424: a0 = u64 [sp + 0x38]\n 59427: u64 [sp + 0x118] = a0\n 59431: a0 = u64 [sp + 0x40]\n 59434: u64 [sp + 0x110] = a0\n 59438: a0 = u64 [sp + 0x48]\n 59441: u64 [sp + 0x108] = a0\n 59445: a0 = u64 [sp + 0x50]\n 59448: u64 [sp + 0x100] = a0\n 59452: a0 = u64 [sp + 0x58]\n 59455: u64 [sp + 0x138] = a0\n 59459: a0 = u64 [sp + 0x60]\n 59462: u64 [sp + 0x130] = a0\n 59466: a0 = u64 [sp + 0x68]\n 59469: u64 [sp + 0x128] = a0\n 59473: a0 = u64 [sp + 0x70]\n 59476: u64 [sp + 0x120] = a0\n 59480: a0 = u64 [sp + 0x88]\n 59484: u64 [sp + 0x158] = a0\n 59488: a0 = u64 [sp + 0x90]\n 59492: u64 [sp + 0x150] = a0\n 59496: a0 = u64 [sp + 0x98]\n 59500: u64 [sp + 0x148] = a0\n 59504: a0 = u64 [sp + 0xa0]\n 59508: u64 [sp + 0x140] = a0\n 59512: a0 = u64 [sp + 0xb0]\n 59516: u64 [sp + 0x178] = a0\n 59520: a0 = u64 [sp + 0xb8]\n 59524: u64 [sp + 0x170] = a0\n 59528: a0 = u64 [sp + 0xa8]\n 59532: u64 [sp + 0x168] = a0\n 59536: a0 = sp + 0x180\n 59540: a1 = sp + 0x160\n 59544: a2 = sp + 0x140\n 59548: a3 = sp + 0x120\n 59552: a4 = sp + 0x100\n 59556: a5 = u64 [sp + 0x78]\n 59559: u64 [sp + 0x160] = a5\n 59563: ra = 0x2f0\n 59567: sp = sp + 0xfffffffffffffc00\n 59571: u64 [sp + 0x3f8] = ra\n 59575: u64 [sp + 0x3f0] = s0\n 59579: u64 [sp + 0x3e8] = s1\n 59583: s0 = sp + 0x400\n 59587: sp = sp & 0xffffffffffffffe0\n 59590: u64 [sp + 0x8] = a0\n 59593: t0 = u64 [a3 + 0x18]\n 59596: t2 = u64 [a4 + 0x18]\n 59599: a0 = u64 [a3 + 0x10]\n 59602: u64 [sp + 0xb0] = a0\n 59606: t1 = u64 [a3]\n 59608: u64 [sp + 0xb8] = t1\n 59612: s1 = u64 [a4]\n 59614: ra = u64 [a3 + 0x8]\n 59617: a5 = u64 [a4 + 0x8]\n 59620: a0 = u64 [a4 + 0x10]\n 59623: t1 = t1 + s1\n 59626: s1 = t1 <u s1\n 59629: a4 = a5 + ra\n 59632: a4 = a4 + s1\n 59635: a3 = a4 ^ a5\n 59638: a5 = a4 <u a5\n 59641: a5 = s1 if a3 == 0\n 59644: a3 = t2 + t0\n 59647: t2 = u64 [sp + 0xb0]\n 59651: s1 = a0 + t2\n 59654: a0 = s1 <u a0\n 59657: a0 = a0 + a3\n 59660: a3 = u64 [a1]\n 59662: u64 [sp + 0x78] = a3\n 59665: a3 = u64 [a1 + 0x8]\n 59668: u64 [sp + 0x70] = a3\n 59671: a3 = u64 [a1 + 0x10]\n 59674: u64 [sp + 0x68] = a3\n 59677: a1 = u64 [a1 + 0x18]\n 59680: u64 [sp + 0x60] = a1\n 59683: a1 = u64 [a2]\n 59685: u64 [sp + 0x50] = a1\n 59688: a1 = u64 [a2 + 0x8]\n 59691: u64 [sp + 0x40] = a1\n 59694: a1 = u64 [a2 + 0x10]\n 59697: u64 [sp + 0x30] = a1\n 59700: a1 = u64 [a2 + 0x18]\n 59703: u64 [sp + 0x28] = a1\n 59706: a5 = a5 + s1\n 59709: a1 = a5 <u s1\n 59712: a3 = a0 + a1\n 59715: u64 [sp + 0x300] = t1\n 59719: u64 [sp + 0x338] = t0\n 59723: u64 [sp + 0x330] = t2\n 59727: u64 [sp + 0x328] = ra\n 59731: a0 = u64 [sp + 0xb8]\n 59735: u64 [sp + 0x320] = a0\n 59739: u64 [sp + 0x308] = a4\n 59743: u64 [sp + 0x310] = a5\n 59747: a0 = sp + 0x340\n 59751: a1 = sp + 0x320\n 59755: a2 = sp + 0x300\n 59759: u64 [sp + 0x318] = a3\n 59763: ra = 0x622\n 59767: jump @1669\n      : @820 [@dyn 376] (gas: 40)\n 59771: a0 = u64 [sp + 0x1b8]\n 59775: u64 [sp + 0xa8] = a0\n 59779: a0 = u64 [sp + 0x1b0]\n 59783: u64 [sp + 0xa0] = a0\n 59787: a0 = u64 [sp + 0x1a8]\n 59791: u64 [sp + 0x98] = a0\n 59795: a0 = u64 [sp + 0x1a0]\n 59799: u64 [sp + 0x90] = a0\n 59803: a0 = s1 + 0x4\n 59806: a1 = a0 <u s1\n 59809: a3 = u64 [sp + 0x20]\n 59812: a2 = a3 + a1\n 59815: a3 = a2 <u a3\n 59818: a3 = a1 if a1 == 0\n 59821: a1 = u64 [sp + 0x190]\n 59825: u64 [sp + 0xb8] = a1\n 59829: a1 = u64 [sp + 0x28]\n 59832: a3 = a3 + a1\n 59835: a1 = a3 <u a1\n 59838: a4 = u64 [sp + 0x30]\n 59841: a1 = a1 + a4\n 59844: a4 = u64 [sp + 0x188]\n 59848: u64 [sp + 0xb0] = a4\n 59852: s1 = u64 [sp + 0x180]\n 59856: u64 [sp + 0x1d0] = a3\n 59860: u64 [sp + 0x1c8] = a2\n 59864: u64 [sp + 0x1c0] = a0\n 59868: u64 [sp + 0x1d8] = a1\n 59872: u32 [sp + 512] = 0x20\n 59877: u64 [sp + 504] = 0\n 59881: u64 [sp + 496] = 0\n 59885: u64 [sp + 488] = 0\n 59889: u64 [sp + 480] = 0\n 59893: i32 a1 = sp + 0x1c0\n 59897: i32 a3 = sp + 0x1e0\n 59901: i32 a4 = sp + 0x200\n 59905: a2 = 0xffffffffffffffff\n 59908: a0 = 0\n 59910: ecalli 7 // 'get_storage'\n 59912: fallthrough\n      : @821 (gas: 13)\n 59913: a0 = u64 [sp + 0x1e8]\n 59917: a1 = u64 [sp + 0x1e0]\n 59921: a2 = u64 [sp + 0x1f0]\n 59925: a3 = u64 [sp + 0xb0]\n 59929: a0 = a0 ^ a3\n 59932: a1 = a1 ^ s1\n 59935: a3 = u64 [sp + 0xb8]\n 59939: a2 = a2 ^ a3\n 59942: a2 = a2 << 0x20\n 59945: a2 = a2 >> 0x20\n 59948: a0 = a0 | a1\n 59951: a0 = a0 | a2\n 59954: jump @823 if a0 != 0\n      : @822 (gas: 15)\n 59957: a0 = u64 [sp + 0x80]\n 59961: a1 = u64 [sp + 0x90]\n 59965: u64 [a0] = a1\n 59967: a1 = u64 [sp + 0x98]\n 59971: u64 [a0 + 0x8] = a1\n 59974: a1 = u64 [sp + 0xa0]\n 59978: u64 [a0 + 0x10] = a1\n 59981: a1 = u64 [sp + 0xa8]\n 59985: u64 [a0 + 0x18] = a1\n 59988: sp = s0 + 0xfffffffffffffde0\n 59992: ra = u64 [sp + 0x218]\n 59996: s0 = u64 [sp + 0x210]\n 60000: s1 = u64 [sp + 0x208]\n 60004: sp = sp + 0x220\n 60008: ret\n      : @823 (gas: 3)\n 60010: a0 = 0x40\n 60013: a1 = 0x20\n 60016: ra = 754, jump @0\n      : @824 [@dyn 377] (gas: 103)\n 60023: a1 = u8 [a0 + 0x11]\n 60026: a2 = u8 [a0 + 0x10]\n 60029: a3 = u8 [a0 + 0x12]\n 60032: a4 = u8 [a0 + 0x13]\n 60035: a1 = a1 << 0x8\n 60038: a1 = a1 | a2\n 60041: a3 = a3 << 0x10\n 60044: a4 = a4 << 0x18\n 60047: a3 = a3 | a4\n 60050: a1 = a1 | a3\n 60053: a2 = u8 [a0 + 0x15]\n 60056: a3 = u8 [a0 + 0x14]\n 60059: a4 = u8 [a0 + 0x16]\n 60062: a5 = u8 [a0 + 0x17]\n 60065: a2 = a2 << 0x8\n 60068: a2 = a2 | a3\n 60071: a4 = a4 << 0x10\n 60074: a5 = a5 << 0x18\n 60077: a4 = a4 | a5\n 60080: a2 = a2 | a4\n 60083: a2 = a2 << 0x20\n 60086: t0 = a2 | a1\n 60089: a2 = u8 [a0 + 0x1]\n 60092: a3 = u8 [a0]\n 60094: a4 = u8 [a0 + 0x2]\n 60097: a5 = u8 [a0 + 0x3]\n 60100: a2 = a2 << 0x8\n 60103: a2 = a2 | a3\n 60106: a4 = a4 << 0x10\n 60109: a5 = a5 << 0x18\n 60112: a4 = a4 | a5\n 60115: a2 = a2 | a4\n 60118: a3 = u8 [a0 + 0x5]\n 60121: a4 = u8 [a0 + 0x4]\n 60124: a5 = u8 [a0 + 0x6]\n 60127: s1 = u8 [a0 + 0x7]\n 60130: a3 = a3 << 0x8\n 60133: a3 = a3 | a4\n 60136: a5 = a5 << 0x10\n 60139: s1 = s1 << 0x18\n 60142: a5 = a5 | s1\n 60145: a3 = a3 | a5\n 60148: a3 = a3 << 0x20\n 60151: a2 = a2 | a3\n 60154: a3 = u8 [a0 + 0x19]\n 60157: a4 = u8 [a0 + 0x18]\n 60160: a5 = u8 [a0 + 0x1a]\n 60163: s1 = u8 [a0 + 0x1b]\n 60166: a3 = a3 << 0x8\n 60169: a3 = a3 | a4\n 60172: a5 = a5 << 0x10\n 60175: s1 = s1 << 0x18\n 60178: a5 = a5 | s1\n 60181: a3 = a3 | a5\n 60184: a4 = u8 [a0 + 0x1d]\n 60187: a5 = u8 [a0 + 0x1c]\n 60190: s1 = u8 [a0 + 0x1e]\n 60193: a1 = u8 [a0 + 0x1f]\n 60196: a4 = a4 << 0x8\n 60199: a4 = a4 | a5\n 60202: s1 = s1 << 0x10\n 60205: a1 = a1 << 0x18\n 60208: a1 = a1 | s1\n 60211: a1 = a1 | a4\n 60214: a1 = a1 << 0x20\n 60217: a3 = a3 | a1\n 60220: a1 = u8 [a0 + 0x9]\n 60223: a4 = u8 [a0 + 0x8]\n 60226: a5 = u8 [a0 + 0xa]\n 60229: s1 = u8 [a0 + 0xb]\n 60232: a1 = a1 << 0x8\n 60235: a1 = a1 | a4\n 60238: a5 = a5 << 0x10\n 60241: s1 = s1 << 0x18\n 60244: a5 = a5 | s1\n 60247: a1 = a1 | a5\n 60250: a4 = u8 [a0 + 0xd]\n 60253: a5 = u8 [a0 + 0xc]\n 60256: s1 = u8 [a0 + 0xe]\n 60259: a0 = u8 [a0 + 0xf]\n 60262: a4 = a4 << 0x8\n 60265: a4 = a4 | a5\n 60268: s1 = s1 << 0x10\n 60271: a0 = a0 << 0x18\n 60274: a0 = a0 | s1\n 60277: a0 = a0 | a4\n 60280: a0 = a0 << 0x20\n 60283: a0 = a0 | a1\n 60286: s1 = reverse a0\n 60288: a1 = reverse a3\n 60290: a2 = reverse a2\n 60292: a0 = reverse t0\n 60294: u64 [sp + 0xb8] = a0\n 60298: u64 [sp + 0xb0] = a2\n 60302: a0 = a0 | a2\n 60305: a2 = a1\n 60307: a1 = a1 | s1\n 60310: a1 = a1 | a0\n 60313: a1 = a1 >> 0x20\n 60316: a0 = a0 | s1\n 60319: a0 = a0 << 0x20\n 60322: a0 = a0 | a1\n 60325: jump @828 if a0 != 0\n      : @825 (gas: 5)\n 60329: u64 [sp + 0xa8] = a2\n 60333: i32 a0 = a2 + 0\n 60335: a1 = 0x20\n 60338: u64 [sp + 0xa0] = a0\n 60342: ra = 756, jump @0\n      : @826 [@dyn 378] (gas: 50)\n 60349: u8 [a0 + 31] = 0\n 60352: u8 [a0 + 30] = 0\n 60355: u8 [a0 + 29] = 0\n 60358: u8 [a0 + 28] = 0\n 60361: u8 [a0 + 27] = 0\n 60364: u8 [a0 + 26] = 0\n 60367: u8 [a0 + 25] = 0\n 60370: u8 [a0 + 24] = 0\n 60373: u8 [a0 + 23] = 0\n 60376: u8 [a0 + 22] = 0\n 60379: u8 [a0 + 21] = 0\n 60382: u8 [a0 + 20] = 0\n 60385: u8 [a0 + 19] = 0\n 60388: u8 [a0 + 18] = 0\n 60391: u8 [a0 + 17] = 0\n 60394: u8 [a0 + 16] = 0\n 60397: u8 [a0 + 15] = 0\n 60400: u8 [a0 + 14] = 0\n 60403: u8 [a0 + 13] = 0\n 60406: u8 [a0 + 12] = 0\n 60409: u8 [a0 + 11] = 0\n 60412: u8 [a0 + 10] = 0\n 60415: u8 [a0 + 9] = 0\n 60418: u8 [a0 + 8] = 0\n 60421: u8 [a0 + 7] = 0\n 60424: u8 [a0 + 6] = 0\n 60427: u8 [a0 + 5] = 0\n 60430: u8 [a0 + 4] = 0\n 60433: u8 [a0 + 3] = 0xa0\n 60438: u8 [a0 + 2] = 0x79\n 60442: u8 [a0 + 1] = 0xc3\n 60447: u8 [a0 + 0] = 0x8\n 60450: a1 = u64 [sp + 0xa8]\n 60454: a0 = a1 + 0x4\n 60457: a1 = a0 <u a1\n 60460: a3 = u64 [sp + 0xb8]\n 60464: a2 = a3 + a1\n 60467: a3 = a2 <u a3\n 60470: a3 = a1 if a1 == 0\n 60473: a3 = a3 + s1\n 60476: a1 = a3 <u s1\n 60479: a4 = u64 [sp + 0xb0]\n 60483: a4 = a4 + a1\n 60486: u64 [sp + 0xc8] = a2\n 60490: u64 [sp + 0xc0] = a0\n 60494: u64 [sp + 0xd0] = a3\n 60498: a0 = sp + 0xe0\n 60502: a1 = sp + 0xc0\n 60506: u64 [sp + 0xd8] = a4\n 60510: ra = 758, jump @693\n      : @827 [@dyn 379] (gas: 30)\n 60516: a0 = u64 [sp + 0xe8]\n 60520: t0 = u64 [sp + 0xf8]\n 60524: t1 = u64 [sp + 0xe0]\n 60528: a3 = u64 [sp + 0xf0]\n 60532: a1 = u64 [sp + 0xb8]\n 60536: a4 = a0 ^ a1\n 60539: a5 = a0 <u a1\n 60542: t2 = a1\n 60544: a2 = u64 [sp + 0xa8]\n 60548: a1 = t1 <u a2\n 60551: a5 = a1 if a4 == 0\n 60554: a4 = a3 - s1\n 60557: a3 = a3 <u s1\n 60560: s1 = u64 [sp + 0xb0]\n 60564: s1 = t0 - s1\n 60567: s1 = s1 - a3\n 60570: a3 = a4 <u a5\n 60573: s1 = s1 - a3\n 60576: a4 = a4 - a5\n 60579: a0 = a0 - t2\n 60582: a1 = a0 - a1\n 60585: a0 = t1 - a2\n 60588: a1 = a1 | s1\n 60591: a2 = a0 | a4\n 60594: a2 = a2 | a1\n 60597: a1 = a1 | a4\n 60600: a2 = a2 >> 0x20\n 60603: a1 = a1 << 0x20\n 60606: a1 = a1 | a2\n 60609: jump @831 if a1 == 0\n      : @828 (gas: 1)\n 60612: trap\n      : @829 (gas: 3)\n 60613: a0 = 0\n 60615: a1 = 0\n 60617: ra = 760, jump @0\n      : @830 [@dyn 380] (gas: 5)\n 60624: i32 a1 = a0 + 0\n 60626: a0 = 0x1\n 60629: a2 = 0\n 60631: ecalli 13 // 'seal_return'\n 60633: fallthrough\n      : @831 (gas: 4)\n 60634: i32 s1 = a0 + 0\n 60636: a0 = u64 [sp + 0xa0]\n 60640: a1 = s1\n 60642: ra = 762, jump @0\n      : @832 [@dyn 381] (gas: 6)\n 60649: i32 a1 = a0 + 0\n 60651: a0 = 0x1\n 60654: a2 = s1\n 60656: ra = 0x2fc\n 60660: ecalli 13 // 'seal_return'\n 60662: fallthrough\n      : @833 [@dyn 382] (gas: 74)\n 60663: sp = sp + 0xfffffffffffffda0\n 60667: u64 [sp + 0x258] = ra\n 60671: u64 [sp + 0x250] = s0\n 60675: u64 [sp + 0x248] = s1\n 60679: s0 = sp + 0x260\n 60683: sp = sp & 0xffffffffffffffe0\n 60686: s1 = u64 [a5 + 0x18]\n 60689: u64 [sp + 0xa8] = s1\n 60693: s1 = u64 [a5 + 0x10]\n 60696: u64 [sp + 0x88] = s1\n 60700: s1 = u64 [a5 + 0x8]\n 60703: u64 [sp + 0x60] = s1\n 60706: a5 = u64 [a5]\n 60708: u64 [sp + 0x38] = a5\n 60711: a5 = u64 [a4 + 0x18]\n 60714: u64 [sp + 0xa0] = a5\n 60718: a5 = u64 [a4 + 0x10]\n 60721: u64 [sp + 0x78] = a5\n 60724: a5 = u64 [a4 + 0x8]\n 60727: u64 [sp + 0x50] = a5\n 60730: a4 = u64 [a4]\n 60732: u64 [sp + 0x28] = a4\n 60735: a4 = u64 [a3 + 0x18]\n 60738: u64 [sp + 0x90] = a4\n 60742: a4 = u64 [a3 + 0x10]\n 60745: u64 [sp + 0x68] = a4\n 60748: a4 = u64 [a3 + 0x8]\n 60751: u64 [sp + 0x40] = a4\n 60754: a3 = u64 [a3]\n 60756: u64 [sp + 0x18] = a3\n 60759: a3 = u64 [a2 + 0x18]\n 60762: u64 [sp + 0x80] = a3\n 60766: a3 = u64 [a2 + 0x10]\n 60769: u64 [sp + 0x58] = a3\n 60772: a3 = u64 [a2 + 0x8]\n 60775: u64 [sp + 0x30] = a3\n 60778: a2 = u64 [a2]\n 60780: u64 [sp + 0x10] = a2\n 60783: a2 = u64 [a1 + 0x18]\n 60786: u64 [sp + 0x70] = a2\n 60789: a2 = u64 [a1 + 0x10]\n 60792: u64 [sp + 0x48] = a2\n 60795: a2 = u64 [a1 + 0x8]\n 60798: u64 [sp + 0x20] = a2\n 60801: a1 = u64 [a1]\n 60803: u64 [sp + 0x8] = a1\n 60806: a1 = u64 [a0]\n 60808: u64 [sp + 0xd0] = a1\n 60812: a1 = u64 [a0 + 0x8]\n 60815: u64 [sp + 0xd8] = a1\n 60819: a1 = u64 [a0 + 0x10]\n 60822: u64 [sp + 0xb0] = a1\n 60826: s1 = u64 [a0 + 0x18]\n 60829: i32 a0 = sp + 0x1e0\n 60833: ecalli 5 // 'caller'\n 60835: a0 = u64 [sp + 0x1e8]\n 60839: a1 = u64 [sp + 0x1e0]\n 60843: a2 = i32 [sp + 0x1f0]\n 60847: a0 = reverse a0\n 60849: a3 = a0 >> 0x20\n 60852: a1 = reverse a1\n 60854: a4 = a1 << 0x20\n 60857: a3 = a3 | a4\n 60860: u64 [sp + 0xc8] = a3\n 60864: a0 = a0 << 0x20\n 60867: a2 = reverse a2\n 60869: a2 = a2 >> 0x20\n 60872: a0 = a0 | a2\n 60875: u64 [sp + 0xc0] = a0\n 60879: a1 = a1 >> 0x20\n 60882: u64 [sp + 0xb8] = a1\n 60886: a1 = 0x20\n 60889: a0 = 0\n 60891: ra = 766, jump @0\n      : @834 [@dyn 383] (gas: 71)\n 60898: u64 [sp + 0x98] = s1\n 60902: a1 = reverse s1\n 60904: s1 = u64 [sp + 0xb0]\n 60908: a2 = reverse s1\n 60910: a3 = u64 [sp + 0xd8]\n 60914: a3 = reverse a3\n 60916: a4 = u64 [sp + 0xd0]\n 60920: a4 = reverse a4\n 60922: a5 = a4 >> 0x38\n 60925: u8 [a0 + 0x1f] = a5\n 60928: a5 = a4 >> 0x30\n 60931: u8 [a0 + 0x1e] = a5\n 60934: a5 = a4 >> 0x28\n 60937: u8 [a0 + 0x1d] = a5\n 60940: a5 = a4 >> 0x20\n 60943: u8 [a0 + 0x1c] = a5\n 60946: a5 = a4 >> 0x18\n 60949: u8 [a0 + 0x1b] = a5\n 60952: a5 = a4 >> 0x10\n 60955: u8 [a0 + 0x1a] = a5\n 60958: a5 = a4 >> 0x8\n 60961: u8 [a0 + 0x19] = a5\n 60964: u8 [a0 + 0x18] = a4\n 60967: a4 = a3 >> 0x38\n 60970: u8 [a0 + 0x17] = a4\n 60973: a4 = a3 >> 0x30\n 60976: u8 [a0 + 0x16] = a4\n 60979: a4 = a3 >> 0x28\n 60982: u8 [a0 + 0x15] = a4\n 60985: a4 = a3 >> 0x20\n 60988: u8 [a0 + 0x14] = a4\n 60991: a4 = a3 >> 0x18\n 60994: u8 [a0 + 0x13] = a4\n 60997: a4 = a3 >> 0x10\n 61000: u8 [a0 + 0x12] = a4\n 61003: a4 = a3 >> 0x8\n 61006: u8 [a0 + 0x11] = a4\n 61009: u8 [a0 + 0x10] = a3\n 61012: a3 = a2 >> 0x38\n 61015: u8 [a0 + 0xf] = a3\n 61018: a3 = a2 >> 0x30\n 61021: u8 [a0 + 0xe] = a3\n 61024: a3 = a2 >> 0x28\n 61027: u8 [a0 + 0xd] = a3\n 61030: a3 = a2 >> 0x20\n 61033: u8 [a0 + 0xc] = a3\n 61036: a3 = a2 >> 0x18\n 61039: u8 [a0 + 0xb] = a3\n 61042: a3 = a2 >> 0x10\n 61045: u8 [a0 + 0xa] = a3\n 61048: a3 = a2 >> 0x8\n 61051: u8 [a0 + 0x9] = a3\n 61054: u8 [a0 + 0x8] = a2\n 61057: a2 = a1 >> 0x38\n 61060: u8 [a0 + 0x7] = a2\n 61063: a2 = a1 >> 0x30\n 61066: u8 [a0 + 0x6] = a2\n 61069: a2 = a1 >> 0x28\n 61072: u8 [a0 + 0x5] = a2\n 61075: a2 = a1 >> 0x20\n 61078: u8 [a0 + 0x4] = a2\n 61081: a2 = a1 >> 0x18\n 61084: u8 [a0 + 0x3] = a2\n 61087: a2 = a1 >> 0x10\n 61090: u8 [a0 + 0x2] = a2\n 61093: a2 = a1 >> 0x8\n 61096: u8 [a0 + 0x1] = a2\n 61099: u8 [a0] = a1\n 61101: a0 = 0x20\n 61104: a1 = 0x20\n 61107: ra = 768, jump @0\n      : @835 [@dyn 384] (gas: 35)\n 61114: u8 [a0 + 31] = 0\n 61117: u8 [a0 + 30] = 0\n 61120: u8 [a0 + 29] = 0\n 61123: u8 [a0 + 28] = 0\n 61126: u8 [a0 + 27] = 0\n 61129: u8 [a0 + 26] = 0\n 61132: u8 [a0 + 25] = 0\n 61135: u8 [a0 + 24] = 0\n 61138: u8 [a0 + 23] = 0\n 61141: u8 [a0 + 22] = 0\n 61144: u8 [a0 + 21] = 0\n 61147: u8 [a0 + 20] = 0\n 61150: u8 [a0 + 19] = 0\n 61153: u8 [a0 + 18] = 0\n 61156: u8 [a0 + 17] = 0\n 61159: u8 [a0 + 16] = 0\n 61162: u8 [a0 + 15] = 0\n 61165: u8 [a0 + 14] = 0\n 61168: u8 [a0 + 13] = 0\n 61171: u8 [a0 + 12] = 0\n 61174: u8 [a0 + 11] = 0\n 61177: u8 [a0 + 10] = 0\n 61180: u8 [a0 + 9] = 0\n 61183: u8 [a0 + 8] = 0\n 61186: u8 [a0 + 7] = 0\n 61189: u8 [a0 + 6] = 0\n 61192: u8 [a0 + 5] = 0\n 61195: u8 [a0 + 4] = 0\n 61198: u8 [a0 + 3] = 0\n 61201: u8 [a0 + 2] = 0\n 61204: u8 [a0 + 1] = 0\n 61207: u8 [a0 + 0] = 0\n 61209: a1 = 0x40\n 61212: a0 = 0\n 61214: ra = 770, jump @0\n      : @836 [@dyn 385] (gas: 28)\n 61221: i32 a0 = a0 + 0\n 61223: i32 a2 = sp + 0x220\n 61227: a1 = 0x40\n 61230: ecalli 8 // 'hash_keccak_256'\n 61232: a0 = u64 [sp + 0x238]\n 61236: a1 = u64 [sp + 0x230]\n 61240: a2 = u64 [sp + 0x228]\n 61244: a3 = u64 [sp + 0x220]\n 61248: a0 = reverse a0\n 61250: a1 = reverse a1\n 61252: a2 = reverse a2\n 61254: a3 = reverse a3\n 61256: u64 [sp + 0x218] = a3\n 61260: u64 [sp + 0x210] = a2\n 61264: u64 [sp + 0x208] = a1\n 61268: u64 [sp + 0x200] = a0\n 61272: u64 [sp + 568] = 0\n 61276: u64 [sp + 560] = 0\n 61280: u64 [sp + 552] = 0\n 61284: u64 [sp + 544] = 0\n 61288: u32 [sp + 576] = 0x20\n 61293: i32 a1 = sp + 0x200\n 61297: i32 a3 = sp + 0x220\n 61301: i32 a4 = sp + 0x240\n 61305: a2 = 0xffffffffffffffff\n 61308: a0 = 0\n 61310: ecalli 7 // 'get_storage'\n 61312: fallthrough\n      : @837 (gas: 12)\n 61313: a0 = u32 [sp + 0x230]\n 61317: a1 = u64 [sp + 0x220]\n 61321: a2 = u64 [sp + 0x228]\n 61325: a3 = u64 [sp + 0xb8]\n 61329: a0 = a0 ^ a3\n 61332: a3 = u64 [sp + 0xc0]\n 61336: a1 = a1 ^ a3\n 61339: a0 = a0 | a1\n 61342: a1 = u64 [sp + 0xc8]\n 61346: a1 = a1 ^ a2\n 61349: a0 = a0 | a1\n 61352: jump @840 if a0 != 0\n      : @838 (gas: 54)\n 61356: a0 = u64 [sp + 0x38]\n 61359: u64 [sp + 0xe0] = a0\n 61363: a0 = u64 [sp + 0x28]\n 61366: u64 [sp + 0x100] = a0\n 61370: a0 = u64 [sp + 0x18]\n 61373: u64 [sp + 0x120] = a0\n 61377: a0 = u64 [sp + 0x10]\n 61380: u64 [sp + 0x140] = a0\n 61384: a0 = u64 [sp + 0x8]\n 61387: u64 [sp + 0x160] = a0\n 61391: a0 = u64 [sp + 0xd0]\n 61395: u64 [sp + 0x180] = a0\n 61399: a0 = u64 [sp + 0x60]\n 61402: u64 [sp + 0xe8] = a0\n 61406: a0 = u64 [sp + 0x50]\n 61409: u64 [sp + 0x108] = a0\n 61413: a0 = u64 [sp + 0x40]\n 61416: u64 [sp + 0x128] = a0\n 61420: a0 = u64 [sp + 0x30]\n 61423: u64 [sp + 0x148] = a0\n 61427: a0 = u64 [sp + 0x20]\n 61430: u64 [sp + 0x168] = a0\n 61434: a0 = u64 [sp + 0xd8]\n 61438: u64 [sp + 0x188] = a0\n 61442: a0 = u64 [sp + 0x88]\n 61446: u64 [sp + 0xf0] = a0\n 61450: a0 = u64 [sp + 0x78]\n 61453: u64 [sp + 0x110] = a0\n 61457: a0 = u64 [sp + 0x68]\n 61460: u64 [sp + 0x130] = a0\n 61464: a0 = u64 [sp + 0x58]\n 61467: u64 [sp + 0x150] = a0\n 61471: a0 = u64 [sp + 0x48]\n 61474: u64 [sp + 0x170] = a0\n 61478: u64 [sp + 0x190] = s1\n 61482: a0 = u64 [sp + 0xa8]\n 61486: u64 [sp + 0xf8] = a0\n 61490: a0 = u64 [sp + 0xa0]\n 61494: u64 [sp + 0x118] = a0\n 61498: a0 = u64 [sp + 0x90]\n 61502: u64 [sp + 0x138] = a0\n 61506: a0 = u64 [sp + 0x80]\n 61510: u64 [sp + 0x158] = a0\n 61514: a0 = u64 [sp + 0x70]\n 61517: u64 [sp + 0x178] = a0\n 61521: a0 = sp + 0x180\n 61525: a1 = sp + 0x160\n 61529: a2 = sp + 0x140\n 61533: a3 = sp + 0x120\n 61537: a4 = sp + 0x100\n 61541: a5 = sp + 0xe0\n 61545: s1 = u64 [sp + 0x98]\n 61549: u64 [sp + 0x198] = s1\n 61553: ra = 772, jump @934\n      : @839 [@dyn 386] (gas: 6)\n 61559: sp = s0 + 0xfffffffffffffda0\n 61563: ra = u64 [sp + 0x258]\n 61567: s0 = u64 [sp + 0x250]\n 61571: s1 = u64 [sp + 0x248]\n 61575: sp = sp + 0x260\n 61579: ret\n      : @840 (gas: 3)\n 61581: a0 = 0x40\n 61584: a1 = 0x20\n 61587: ra = 774, jump @0\n      : @841 [@dyn 387] (gas: 103)\n 61594: a1 = u8 [a0 + 0x11]\n 61597: a2 = u8 [a0 + 0x10]\n 61600: a3 = u8 [a0 + 0x12]\n 61603: a4 = u8 [a0 + 0x13]\n 61606: a1 = a1 << 0x8\n 61609: a1 = a1 | a2\n 61612: a3 = a3 << 0x10\n 61615: a4 = a4 << 0x18\n 61618: a3 = a3 | a4\n 61621: a1 = a1 | a3\n 61624: a2 = u8 [a0 + 0x15]\n 61627: a3 = u8 [a0 + 0x14]\n 61630: a4 = u8 [a0 + 0x16]\n 61633: a5 = u8 [a0 + 0x17]\n 61636: a2 = a2 << 0x8\n 61639: a2 = a2 | a3\n 61642: a4 = a4 << 0x10\n 61645: a5 = a5 << 0x18\n 61648: a4 = a4 | a5\n 61651: a2 = a2 | a4\n 61654: a2 = a2 << 0x20\n 61657: t0 = a2 | a1\n 61660: a2 = u8 [a0 + 0x1]\n 61663: a3 = u8 [a0]\n 61665: a4 = u8 [a0 + 0x2]\n 61668: a5 = u8 [a0 + 0x3]\n 61671: a2 = a2 << 0x8\n 61674: a2 = a2 | a3\n 61677: a4 = a4 << 0x10\n 61680: a5 = a5 << 0x18\n 61683: a4 = a4 | a5\n 61686: a2 = a2 | a4\n 61689: a3 = u8 [a0 + 0x5]\n 61692: a4 = u8 [a0 + 0x4]\n 61695: a5 = u8 [a0 + 0x6]\n 61698: s1 = u8 [a0 + 0x7]\n 61701: a3 = a3 << 0x8\n 61704: a3 = a3 | a4\n 61707: a5 = a5 << 0x10\n 61710: s1 = s1 << 0x18\n 61713: a5 = a5 | s1\n 61716: a3 = a3 | a5\n 61719: a3 = a3 << 0x20\n 61722: a2 = a2 | a3\n 61725: a3 = u8 [a0 + 0x19]\n 61728: a4 = u8 [a0 + 0x18]\n 61731: a5 = u8 [a0 + 0x1a]\n 61734: s1 = u8 [a0 + 0x1b]\n 61737: a3 = a3 << 0x8\n 61740: a3 = a3 | a4\n 61743: a5 = a5 << 0x10\n 61746: s1 = s1 << 0x18\n 61749: a5 = a5 | s1\n 61752: a3 = a3 | a5\n 61755: a4 = u8 [a0 + 0x1d]\n 61758: a5 = u8 [a0 + 0x1c]\n 61761: s1 = u8 [a0 + 0x1e]\n 61764: a1 = u8 [a0 + 0x1f]\n 61767: a4 = a4 << 0x8\n 61770: a4 = a4 | a5\n 61773: s1 = s1 << 0x10\n 61776: a1 = a1 << 0x18\n 61779: a1 = a1 | s1\n 61782: a1 = a1 | a4\n 61785: a1 = a1 << 0x20\n 61788: a3 = a3 | a1\n 61791: a1 = u8 [a0 + 0x9]\n 61794: a4 = u8 [a0 + 0x8]\n 61797: a5 = u8 [a0 + 0xa]\n 61800: s1 = u8 [a0 + 0xb]\n 61803: a1 = a1 << 0x8\n 61806: a1 = a1 | a4\n 61809: a5 = a5 << 0x10\n 61812: s1 = s1 << 0x18\n 61815: a5 = a5 | s1\n 61818: a1 = a1 | a5\n 61821: a4 = u8 [a0 + 0xd]\n 61824: a5 = u8 [a0 + 0xc]\n 61827: s1 = u8 [a0 + 0xe]\n 61830: a0 = u8 [a0 + 0xf]\n 61833: a4 = a4 << 0x8\n 61836: a4 = a4 | a5\n 61839: s1 = s1 << 0x10\n 61842: a0 = a0 << 0x18\n 61845: a0 = a0 | s1\n 61848: a0 = a0 | a4\n 61851: a0 = a0 << 0x20\n 61854: a0 = a0 | a1\n 61857: s1 = reverse a0\n 61859: a1 = reverse a3\n 61861: a2 = reverse a2\n 61863: a0 = reverse t0\n 61865: u64 [sp + 0xd8] = a0\n 61869: u64 [sp + 0xd0] = a2\n 61873: a0 = a0 | a2\n 61876: a2 = a1\n 61878: a1 = a1 | s1\n 61881: a1 = a1 | a0\n 61884: a1 = a1 >> 0x20\n 61887: a0 = a0 | s1\n 61890: a0 = a0 << 0x20\n 61893: a0 = a0 | a1\n 61896: jump @845 if a0 != 0\n      : @842 (gas: 5)\n 61900: u64 [sp + 0xc8] = a2\n 61904: i32 a0 = a2 + 0\n 61906: a1 = 0x20\n 61909: u64 [sp + 0xc0] = a0\n 61913: ra = 776, jump @0\n      : @843 [@dyn 388] (gas: 50)\n 61920: u8 [a0 + 31] = 0\n 61923: u8 [a0 + 30] = 0\n 61926: u8 [a0 + 29] = 0\n 61929: u8 [a0 + 28] = 0\n 61932: u8 [a0 + 27] = 0\n 61935: u8 [a0 + 26] = 0\n 61938: u8 [a0 + 25] = 0\n 61941: u8 [a0 + 24] = 0\n 61944: u8 [a0 + 23] = 0\n 61947: u8 [a0 + 22] = 0\n 61950: u8 [a0 + 21] = 0\n 61953: u8 [a0 + 20] = 0\n 61956: u8 [a0 + 19] = 0\n 61959: u8 [a0 + 18] = 0\n 61962: u8 [a0 + 17] = 0\n 61965: u8 [a0 + 16] = 0\n 61968: u8 [a0 + 15] = 0\n 61971: u8 [a0 + 14] = 0\n 61974: u8 [a0 + 13] = 0\n 61977: u8 [a0 + 12] = 0\n 61980: u8 [a0 + 11] = 0\n 61983: u8 [a0 + 10] = 0\n 61986: u8 [a0 + 9] = 0\n 61989: u8 [a0 + 8] = 0\n 61992: u8 [a0 + 7] = 0\n 61995: u8 [a0 + 6] = 0\n 61998: u8 [a0 + 5] = 0\n 62001: u8 [a0 + 4] = 0\n 62004: u8 [a0 + 3] = 0xa0\n 62009: u8 [a0 + 2] = 0x79\n 62013: u8 [a0 + 1] = 0xc3\n 62018: u8 [a0 + 0] = 0x8\n 62021: a1 = u64 [sp + 0xc8]\n 62025: a0 = a1 + 0x4\n 62028: a1 = a0 <u a1\n 62031: a3 = u64 [sp + 0xd8]\n 62035: a2 = a3 + a1\n 62038: a3 = a2 <u a3\n 62041: a3 = a1 if a1 == 0\n 62044: a3 = a3 + s1\n 62047: a1 = a3 <u s1\n 62050: a4 = u64 [sp + 0xd0]\n 62054: a4 = a4 + a1\n 62057: u64 [sp + 0x1a8] = a2\n 62061: u64 [sp + 0x1a0] = a0\n 62065: u64 [sp + 0x1b0] = a3\n 62069: a0 = sp + 0x1c0\n 62073: a1 = sp + 0x1a0\n 62077: u64 [sp + 0x1b8] = a4\n 62081: ra = 778, jump @606\n      : @844 [@dyn 389] (gas: 30)\n 62087: a0 = u64 [sp + 0x1c8]\n 62091: t0 = u64 [sp + 0x1d8]\n 62095: t1 = u64 [sp + 0x1c0]\n 62099: a3 = u64 [sp + 0x1d0]\n 62103: a1 = u64 [sp + 0xd8]\n 62107: a4 = a0 ^ a1\n 62110: a5 = a0 <u a1\n 62113: t2 = a1\n 62115: a2 = u64 [sp + 0xc8]\n 62119: a1 = t1 <u a2\n 62122: a5 = a1 if a4 == 0\n 62125: a4 = a3 - s1\n 62128: a3 = a3 <u s1\n 62131: s1 = u64 [sp + 0xd0]\n 62135: s1 = t0 - s1\n 62138: s1 = s1 - a3\n 62141: a3 = a4 <u a5\n 62144: s1 = s1 - a3\n 62147: a4 = a4 - a5\n 62150: a0 = a0 - t2\n 62153: a1 = a0 - a1\n 62156: a0 = t1 - a2\n 62159: a1 = a1 | s1\n 62162: a2 = a0 | a4\n 62165: a2 = a2 | a1\n 62168: a1 = a1 | a4\n 62171: a2 = a2 >> 0x20\n 62174: a1 = a1 << 0x20\n 62177: a1 = a1 | a2\n 62180: jump @846 if a1 == 0\n      : @845 (gas: 1)\n 62183: trap\n      : @846 (gas: 4)\n 62184: i32 s1 = a0 + 0\n 62186: a0 = u64 [sp + 0xc0]\n 62190: a1 = s1\n 62192: ra = 780, jump @0\n      : @847 [@dyn 390] (gas: 6)\n 62199: i32 a1 = a0 + 0\n 62201: a0 = 0x1\n 62204: a2 = s1\n 62206: ra = 0x30e\n 62210: ecalli 13 // 'seal_return'\n 62212: fallthrough\n      : @848 [@dyn 391] (gas: 17)\n 62213: t0 = u64 [a1]\n 62215: t1 = u64 [a1 + 0x8]\n 62218: t2 = u64 [a1 + 0x10]\n 62221: a1 = u64 [a1 + 0x18]\n 62224: a3 = u64 [a2 + 0x18]\n 62227: a4 = u64 [a2 + 0x10]\n 62230: a5 = u64 [a2 + 0x8]\n 62233: a2 = u64 [a2]\n 62235: u64 [a0 + 0x38] = a3\n 62238: u64 [a0 + 0x30] = a4\n 62241: u64 [a0 + 0x28] = a5\n 62244: u64 [a0 + 0x20] = a2\n 62247: u64 [a0 + 0x18] = a1\n 62250: u64 [a0 + 0x10] = t2\n 62253: u64 [a0 + 0x8] = t1\n 62256: u64 [a0] = t0\n 62258: ret\n      : @849 (gas: 17)\n 62260: sp = sp + 0xffffffffffffffa0\n 62263: u64 [sp + 0x58] = ra\n 62266: u64 [sp + 0x50] = s0\n 62269: u64 [sp + 0x48] = s1\n 62272: a3 = u64 [a1 + 0x18]\n 62275: a4 = u64 [a1 + 0x10]\n 62278: a5 = u64 [a1 + 0x8]\n 62281: s1 = u64 [a1]\n 62283: a1 = a5 | a3\n 62286: a2 = s1 | a4\n 62289: a2 = a2 | a1\n 62292: a2 = a2 >> 0x20\n 62295: a1 = a1 | a4\n 62298: a1 = a1 << 0x20\n 62301: a1 = a1 | a2\n 62304: u64 [sp + 0x28] = a0\n 62307: jump @856 if a1 != 0\n      : @850 (gas: 19)\n 62311: a0 = s1 + 0x20\n 62314: u64 [sp + 0x30] = a0\n 62317: a0 = a0 <u s1\n 62320: a1 = a5 + a0\n 62323: u64 [sp + 0x40] = a1\n 62326: u64 [sp + 0x8] = a5\n 62329: s0 = a1 <u a5\n 62332: s0 = a0 if a0 == 0\n 62335: s0 = s0 + a4\n 62338: u64 [sp + 0x10] = a4\n 62341: a0 = s0 <u a4\n 62344: u64 [sp + 0x18] = a3\n 62347: a0 = a0 + a3\n 62350: u64 [sp + 0x38] = a0\n 62353: u64 [sp] = s1\n 62355: i32 a0 = s1 + 0\n 62357: a1 = 0x20\n 62360: s1 = 0x20\n 62363: ra = 784, jump @0\n      : @851 [@dyn 392] (gas: 45)\n 62370: u8 [a0 + 0x1f] = s1\n 62373: a1 = u64 [sp + 0x30]\n 62376: s1 = a1\n 62378: a1 = a1 | s0\n 62381: a2 = u64 [sp + 0x40]\n 62384: a4 = u64 [sp + 0x38]\n 62387: a2 = a2 | a4\n 62390: a1 = a1 | a2\n 62393: a1 = a1 >> 0x20\n 62396: u64 [sp + 0x20] = s0\n 62399: a2 = a2 | s0\n 62402: a2 = a2 << 0x20\n 62405: a1 = a1 | a2\n 62408: u8 [a0 + 30] = 0\n 62411: u8 [a0 + 29] = 0\n 62414: u8 [a0 + 28] = 0\n 62417: u8 [a0 + 27] = 0\n 62420: u8 [a0 + 26] = 0\n 62423: u8 [a0 + 25] = 0\n 62426: u8 [a0 + 24] = 0\n 62429: u8 [a0 + 23] = 0\n 62432: u8 [a0 + 22] = 0\n 62435: u8 [a0 + 21] = 0\n 62438: u8 [a0 + 20] = 0\n 62441: u8 [a0 + 19] = 0\n 62444: u8 [a0 + 18] = 0\n 62447: u8 [a0 + 17] = 0\n 62450: u8 [a0 + 16] = 0\n 62453: u8 [a0 + 15] = 0\n 62456: u8 [a0 + 14] = 0\n 62459: u8 [a0 + 13] = 0\n 62462: u8 [a0 + 12] = 0\n 62465: u8 [a0 + 11] = 0\n 62468: u8 [a0 + 10] = 0\n 62471: u8 [a0 + 9] = 0\n 62474: u8 [a0 + 8] = 0\n 62477: u8 [a0 + 7] = 0\n 62480: u8 [a0 + 6] = 0\n 62483: u8 [a0 + 5] = 0\n 62486: u8 [a0 + 4] = 0\n 62489: u8 [a0 + 3] = 0\n 62492: u8 [a0 + 2] = 0\n 62495: u8 [a0 + 1] = 0\n 62498: u8 [a0 + 0] = 0\n 62500: jump @856 if a1 != 0\n      : @852 (gas: 4)\n 62504: i32 s0 = s1 + 0\n 62506: a1 = 0x20\n 62509: a0 = s0\n 62511: ra = 786, jump @0\n      : @853 [@dyn 393] (gas: 41)\n 62518: u8 [a0 + 31] = 0x1f\n 62522: u8 [a0 + 30] = 0\n 62525: u8 [a0 + 29] = 0\n 62528: u8 [a0 + 28] = 0\n 62531: u8 [a0 + 27] = 0\n 62534: u8 [a0 + 26] = 0\n 62537: u8 [a0 + 25] = 0\n 62540: u8 [a0 + 24] = 0\n 62543: u8 [a0 + 23] = 0\n 62546: u8 [a0 + 22] = 0\n 62549: u8 [a0 + 21] = 0\n 62552: u8 [a0 + 20] = 0\n 62555: u8 [a0 + 19] = 0\n 62558: u8 [a0 + 18] = 0\n 62561: u8 [a0 + 17] = 0\n 62564: u8 [a0 + 16] = 0\n 62567: u8 [a0 + 15] = 0\n 62570: u8 [a0 + 14] = 0\n 62573: u8 [a0 + 13] = 0\n 62576: u8 [a0 + 12] = 0\n 62579: u8 [a0 + 11] = 0\n 62582: u8 [a0 + 10] = 0\n 62585: u8 [a0 + 9] = 0\n 62588: u8 [a0 + 8] = 0\n 62591: u8 [a0 + 7] = 0\n 62594: u8 [a0 + 6] = 0\n 62597: u8 [a0 + 5] = 0\n 62600: u8 [a0 + 4] = 0\n 62603: u8 [a0 + 3] = 0\n 62606: u8 [a0 + 2] = 0\n 62609: u8 [a0 + 1] = 0\n 62612: a1 = u64 [sp + 0x20]\n 62615: a2 = u64 [sp + 0x38]\n 62618: a1 = a1 | a2\n 62621: a2 = 0xffffffe0\n 62631: a2 = s1 <u a2\n 62634: a3 = u64 [sp + 0x40]\n 62637: a2 = 0 if a3 != 0\n 62639: a2 = 0 if a1 != 0\n 62641: u8 [a0 + 0] = 0\n 62643: jump @856 if a2 == 0\n      : @854 (gas: 3)\n 62647: i32 a0 = s0 + 0x20\n 62650: a1 = 0x20\n 62653: ra = 788, jump @0\n      : @855 [@dyn 394] (gas: 54)\n 62660: u8 [a0 + 28] = 0x70\n 62664: u8 [a0 + 27] = 0x6d\n 62668: u8 [a0 + 23] = 0x62\n 62672: u8 [a0 + 19] = 0x6e\n 62676: u8 [a0 + 18] = 0x6e\n 62680: u8 [a0 + 30] = 0x79\n 62684: u8 [a0 + 14] = 0x79\n 62688: u8 [a0 + 26] = 0x65\n 62692: u8 [a0 + 24] = 0x65\n 62696: u8 [a0 + 11] = 0x65\n 62700: u8 [a0 + 29] = 0x74\n 62704: u8 [a0 + 21] = 0x74\n 62708: u8 [a0 + 10] = 0x74\n 62712: u8 [a0 + 17] = 0x61\n 62716: u8 [a0 + 13] = 0x61\n 62720: u8 [a0 + 9] = 0x61\n 62724: u8 [a0 + 8] = 0x67\n 62728: u8 [a0 + 31] = 0\n 62731: u8 [a0 + 25] = 0x20\n 62735: u8 [a0 + 22] = 0x20\n 62739: u8 [a0 + 15] = 0x20\n 62743: u8 [a0 + 7] = 0x20\n 62747: u8 [a0 + 6] = 0x3a\n 62751: u8 [a0 + 12] = 0x77\n 62755: u8 [a0 + 5] = 0x77\n 62759: u8 [a0 + 20] = 0x6f\n 62763: u8 [a0 + 4] = 0x6f\n 62767: u8 [a0 + 3] = 0x72\n 62771: u8 [a0 + 16] = 0x63\n 62775: u8 [a0 + 2] = 0x63\n 62779: u8 [a0 + 1] = 0x73\n 62783: u8 [a0 + 0] = 0x45\n 62786: a1 = u64 [sp]\n 62788: a0 = a1 + 0x60\n 62791: a1 = a0 <u a1\n 62794: a3 = u64 [sp + 0x8]\n 62797: a2 = a3 + a1\n 62800: a3 = a2 <u a3\n 62803: a3 = a1 if a1 == 0\n 62806: a1 = u64 [sp + 0x10]\n 62809: a3 = a3 + a1\n 62812: a1 = a3 <u a1\n 62815: a4 = u64 [sp + 0x18]\n 62818: a1 = a1 + a4\n 62821: a4 = u64 [sp + 0x28]\n 62824: u64 [a4] = a0\n 62826: u64 [a4 + 0x8] = a2\n 62829: u64 [a4 + 0x10] = a3\n 62832: u64 [a4 + 0x18] = a1\n 62835: ra = u64 [sp + 0x58]\n 62838: s0 = u64 [sp + 0x50]\n 62841: s1 = u64 [sp + 0x48]\n 62844: sp = sp + 0x60\n 62847: ret\n      : @856 (gas: 1)\n 62849: trap\n      : @857 (gas: 17)\n 62850: sp = sp + 0xffffffffffffffa0\n 62853: u64 [sp + 0x58] = ra\n 62856: u64 [sp + 0x50] = s0\n 62859: u64 [sp + 0x48] = s1\n 62862: a3 = u64 [a1 + 0x18]\n 62865: a4 = u64 [a1 + 0x10]\n 62868: a5 = u64 [a1 + 0x8]\n 62871: s1 = u64 [a1]\n 62873: a1 = a5 | a3\n 62876: a2 = s1 | a4\n 62879: a2 = a2 | a1\n 62882: a2 = a2 >> 0x20\n 62885: a1 = a1 | a4\n 62888: a1 = a1 << 0x20\n 62891: a1 = a1 | a2\n 62894: u64 [sp + 0x20] = a0\n 62897: jump @866 if a1 != 0\n      : @858 (gas: 19)\n 62901: a0 = s1 + 0x20\n 62904: u64 [sp + 0x40] = a0\n 62907: a0 = a0 <u s1\n 62910: a1 = a5 + a0\n 62913: u64 [sp + 0x38] = a1\n 62916: u64 [sp + 0x8] = a5\n 62919: s0 = a1 <u a5\n 62922: s0 = a0 if a0 == 0\n 62925: s0 = s0 + a4\n 62928: u64 [sp + 0x10] = a4\n 62931: a0 = s0 <u a4\n 62934: u64 [sp + 0x18] = a3\n 62937: a0 = a0 + a3\n 62940: u64 [sp + 0x30] = a0\n 62943: u64 [sp] = s1\n 62945: i32 a0 = s1 + 0\n 62947: a1 = 0x20\n 62950: s1 = 0x20\n 62953: ra = 790, jump @0\n      : @859 [@dyn 395] (gas: 43)\n 62960: u8 [a0 + 0x1f] = s1\n 62963: a1 = u64 [sp + 0x40]\n 62966: a1 = a1 | s0\n 62969: a2 = u64 [sp + 0x38]\n 62972: a3 = u64 [sp + 0x30]\n 62975: a2 = a2 | a3\n 62978: a1 = a1 | a2\n 62981: a1 = a1 >> 0x20\n 62984: a2 = a2 | s0\n 62987: a2 = a2 << 0x20\n 62990: a1 = a1 | a2\n 62993: u8 [a0 + 30] = 0\n 62996: u8 [a0 + 29] = 0\n 62999: u8 [a0 + 28] = 0\n 63002: u8 [a0 + 27] = 0\n 63005: u8 [a0 + 26] = 0\n 63008: u8 [a0 + 25] = 0\n 63011: u8 [a0 + 24] = 0\n 63014: u8 [a0 + 23] = 0\n 63017: u8 [a0 + 22] = 0\n 63020: u8 [a0 + 21] = 0\n 63023: u8 [a0 + 20] = 0\n 63026: u8 [a0 + 19] = 0\n 63029: u8 [a0 + 18] = 0\n 63032: u8 [a0 + 17] = 0\n 63035: u8 [a0 + 16] = 0\n 63038: u8 [a0 + 15] = 0\n 63041: u8 [a0 + 14] = 0\n 63044: u8 [a0 + 13] = 0\n 63047: u8 [a0 + 12] = 0\n 63050: u8 [a0 + 11] = 0\n 63053: u8 [a0 + 10] = 0\n 63056: u8 [a0 + 9] = 0\n 63059: u8 [a0 + 8] = 0\n 63062: u8 [a0 + 7] = 0\n 63065: u8 [a0 + 6] = 0\n 63068: u8 [a0 + 5] = 0\n 63071: u8 [a0 + 4] = 0\n 63074: u8 [a0 + 3] = 0\n 63077: u8 [a0 + 2] = 0\n 63080: u8 [a0 + 1] = 0\n 63083: u8 [a0 + 0] = 0\n 63085: jump @866 if a1 != 0\n      : @860 (gas: 5)\n 63089: s1 = u64 [sp + 0x40]\n 63092: i32 a0 = s1 + 0\n 63094: a1 = 0x20\n 63097: u64 [sp + 0x28] = a0\n 63100: ra = 792, jump @0\n      : @861 [@dyn 396] (gas: 42)\n 63107: u8 [a0 + 31] = 0x2d\n 63111: u8 [a0 + 30] = 0\n 63114: u8 [a0 + 29] = 0\n 63117: u8 [a0 + 28] = 0\n 63120: u8 [a0 + 27] = 0\n 63123: u8 [a0 + 26] = 0\n 63126: u8 [a0 + 25] = 0\n 63129: u8 [a0 + 24] = 0\n 63132: u8 [a0 + 23] = 0\n 63135: u8 [a0 + 22] = 0\n 63138: u8 [a0 + 21] = 0\n 63141: u8 [a0 + 20] = 0\n 63144: u8 [a0 + 19] = 0\n 63147: u8 [a0 + 18] = 0\n 63150: u8 [a0 + 17] = 0\n 63153: u8 [a0 + 16] = 0\n 63156: u8 [a0 + 15] = 0\n 63159: u8 [a0 + 14] = 0\n 63162: u8 [a0 + 13] = 0\n 63165: u8 [a0 + 12] = 0\n 63168: u8 [a0 + 11] = 0\n 63171: u8 [a0 + 10] = 0\n 63174: u8 [a0 + 9] = 0\n 63177: u8 [a0 + 8] = 0\n 63180: u8 [a0 + 7] = 0\n 63183: u8 [a0 + 6] = 0\n 63186: u8 [a0 + 5] = 0\n 63189: u8 [a0 + 4] = 0\n 63192: u8 [a0 + 3] = 0\n 63195: u8 [a0 + 2] = 0\n 63198: u8 [a0 + 1] = 0\n 63201: a1 = u64 [sp + 0x30]\n 63204: a3 = s0 | a1\n 63207: s0 = 0x100000000\n 63217: a1 = 0xffffffe0\n 63227: a1 = s1 <u a1\n 63230: a2 = u64 [sp + 0x38]\n 63233: a1 = 0 if a2 != 0\n 63235: u64 [sp + 0x30] = a3\n 63238: a1 = 0 if a3 != 0\n 63240: u8 [a0 + 0] = 0\n 63242: jump @866 if a1 == 0\n      : @862 (gas: 4)\n 63246: a0 = u64 [sp + 0x28]\n 63249: i32 a0 = a0 + 0x20\n 63252: a1 = 0x20\n 63255: ra = 794, jump @0\n      : @863 [@dyn 397] (gas: 44)\n 63262: u8 [a0 + 30] = 0x62\n 63266: u8 [a0 + 26] = 0x6e\n 63270: u8 [a0 + 25] = 0x6e\n 63274: u8 [a0 + 19] = 0x6e\n 63278: u8 [a0 + 17] = 0x69\n 63282: u8 [a0 + 14] = 0x79\n 63286: u8 [a0 + 28] = 0x74\n 63290: u8 [a0 + 10] = 0x74\n 63294: u8 [a0 + 18] = 0x67\n 63298: u8 [a0 + 8] = 0x67\n 63302: u8 [a0 + 31] = 0x65\n 63306: u8 [a0 + 29] = 0x20\n 63310: u8 [a0 + 22] = 0x20\n 63314: u8 [a0 + 15] = 0x20\n 63318: u8 [a0 + 7] = 0x20\n 63322: u8 [a0 + 6] = 0x3a\n 63326: u8 [a0 + 12] = 0x77\n 63330: u8 [a0 + 5] = 0x77\n 63334: u8 [a0 + 23] = 0x63\n 63338: u8 [a0 + 2] = 0x63\n 63342: u8 [a0 + 0] = 0x45\n 63345: a4 = 0x6f\n 63348: u8 [a0 + 0x1b] = a4\n 63351: a1 = s0 + 0xffffffffffffffc0\n 63354: a2 = u64 [sp + 0x40]\n 63357: a1 = a2 <u a1\n 63360: a5 = 0x61\n 63363: u8 [a0 + 0x18] = a5\n 63366: a2 = u64 [sp + 0x38]\n 63369: a1 = 0 if a2 != 0\n 63371: s1 = 0x72\n 63374: u8 [a0 + 0x15] = s1\n 63377: u8 [a0 + 20] = 0x65\n 63381: a2 = u64 [sp + 0x30]\n 63384: a1 = 0 if a2 != 0\n 63386: s0 = 0x73\n 63389: u8 [a0 + 0x10] = s0\n 63392: u8 [a0 + 0xd] = a5\n 63395: u8 [a0 + 11] = 0x65\n 63399: u8 [a0 + 0x9] = a5\n 63402: u8 [a0 + 0x4] = a4\n 63405: u8 [a0 + 0x3] = s1\n 63408: u8 [a0 + 0x1] = s0\n 63411: jump @866 if a1 == 0\n      : @864 (gas: 4)\n 63415: a0 = u64 [sp + 0x28]\n 63418: i32 a0 = a0 + 0x40\n 63421: a1 = 0x20\n 63424: ra = 796, jump @0\n      : @865 [@dyn 398] (gas: 54)\n 63431: u8 [a0 + 31] = 0\n 63434: u8 [a0 + 30] = 0\n 63437: u8 [a0 + 29] = 0\n 63440: u8 [a0 + 28] = 0\n 63443: u8 [a0 + 27] = 0\n 63446: u8 [a0 + 26] = 0\n 63449: u8 [a0 + 25] = 0\n 63452: u8 [a0 + 24] = 0\n 63455: u8 [a0 + 23] = 0\n 63458: u8 [a0 + 22] = 0\n 63461: u8 [a0 + 21] = 0\n 63464: u8 [a0 + 20] = 0\n 63467: u8 [a0 + 19] = 0\n 63470: u8 [a0 + 18] = 0\n 63473: u8 [a0 + 17] = 0\n 63476: u8 [a0 + 16] = 0\n 63479: u8 [a0 + 15] = 0\n 63482: u8 [a0 + 14] = 0\n 63485: u8 [a0 + 13] = 0\n 63488: u8 [a0 + 0xc] = s0\n 63491: u8 [a0 + 0xb] = s0\n 63494: u8 [a0 + 10] = 0x65\n 63498: u8 [a0 + 0x9] = s1\n 63501: u8 [a0 + 8] = 0x64\n 63505: u8 [a0 + 7] = 0x64\n 63509: u8 [a0 + 6] = 0x61\n 63513: u8 [a0 + 5] = 0x20\n 63517: u8 [a0 + 4] = 0x6f\n 63521: u8 [a0 + 0x3] = s1\n 63524: u8 [a0 + 2] = 0x65\n 63528: u8 [a0 + 1] = 0x7a\n 63532: u8 [a0 + 0] = 0x20\n 63535: a1 = u64 [sp]\n 63537: a0 = a1 + 0x80\n 63541: a1 = a0 <u a1\n 63544: a3 = u64 [sp + 0x8]\n 63547: a2 = a3 + a1\n 63550: a3 = a2 <u a3\n 63553: a3 = a1 if a1 == 0\n 63556: a1 = u64 [sp + 0x10]\n 63559: a3 = a3 + a1\n 63562: a1 = a3 <u a1\n 63565: a4 = u64 [sp + 0x18]\n 63568: a1 = a1 + a4\n 63571: a4 = u64 [sp + 0x20]\n 63574: u64 [a4] = a0\n 63576: u64 [a4 + 0x8] = a2\n 63579: u64 [a4 + 0x10] = a3\n 63582: u64 [a4 + 0x18] = a1\n 63585: ra = u64 [sp + 0x58]\n 63588: s0 = u64 [sp + 0x50]\n 63591: s1 = u64 [sp + 0x48]\n 63594: sp = sp + 0x60\n 63597: ret\n      : @866 (gas: 1)\n 63599: trap\n      : @867 (gas: 15)\n 63600: sp = sp + 0xffffffffffffff20\n 63604: u64 [sp + 0xd8] = ra\n 63608: u64 [sp + 0xd0] = s0\n 63612: u64 [sp + 0xc8] = s1\n 63616: s0 = sp + 0xe0\n 63620: sp = sp & 0xffffffffffffffe0\n 63623: t0 = u64 [a1 + 0x18]\n 63626: a5 = u64 [a1 + 0x10]\n 63629: a4 = u64 [a1]\n 63631: s1 = u64 [a1 + 0x8]\n 63634: a1 = a5 | t0\n 63637: a3 = a4 <u 0x20\n 63640: a3 = 0 if s1 != 0\n 63642: a3 = 0 if a1 != 0\n 63644: jump @875 if a3 != 0\n      : @868 (gas: 23)\n 63648: a1 = u64 [a2 + 0x18]\n 63651: u64 [sp + 0x50] = a1\n 63654: a1 = u64 [a2 + 0x10]\n 63657: u64 [sp + 0x40] = a1\n 63660: a1 = u64 [a2 + 0x8]\n 63663: u64 [sp + 0x58] = a1\n 63666: a1 = u64 [a2]\n 63668: u64 [sp + 0x20] = a1\n 63671: a1 = u64 [a0 + 0x18]\n 63674: u64 [sp] = a1\n 63676: a1 = u64 [a0 + 0x10]\n 63679: u64 [sp + 0x8] = a1\n 63682: a1 = u64 [a0 + 0x8]\n 63685: u64 [sp + 0x10] = a1\n 63688: a0 = u64 [a0]\n 63690: u64 [sp + 0x18] = a0\n 63693: a1 = 0x20\n 63696: a0 = 0\n 63698: u64 [sp + 0x28] = t0\n 63701: u64 [sp + 0x48] = a5\n 63704: u64 [sp + 0x38] = s1\n 63707: u64 [sp + 0x30] = a4\n 63710: ra = 798, jump @0\n      : @869 [@dyn 399] (gas: 71)\n 63717: a1 = u64 [sp]\n 63719: a1 = reverse a1\n 63721: a2 = u64 [sp + 0x8]\n 63724: a2 = reverse a2\n 63726: a3 = u64 [sp + 0x10]\n 63729: a3 = reverse a3\n 63731: a4 = u64 [sp + 0x18]\n 63734: a4 = reverse a4\n 63736: a5 = a4 >> 0x38\n 63739: u8 [a0 + 0x1f] = a5\n 63742: a5 = a4 >> 0x30\n 63745: u8 [a0 + 0x1e] = a5\n 63748: a5 = a4 >> 0x28\n 63751: u8 [a0 + 0x1d] = a5\n 63754: a5 = a4 >> 0x20\n 63757: u8 [a0 + 0x1c] = a5\n 63760: a5 = a4 >> 0x18\n 63763: u8 [a0 + 0x1b] = a5\n 63766: a5 = a4 >> 0x10\n 63769: u8 [a0 + 0x1a] = a5\n 63772: a5 = a4 >> 0x8\n 63775: u8 [a0 + 0x19] = a5\n 63778: u8 [a0 + 0x18] = a4\n 63781: u8 [a0 + 0x10] = a3\n 63784: a4 = a3 >> 0x38\n 63787: u8 [a0 + 0x17] = a4\n 63790: a4 = a3 >> 0x30\n 63793: u8 [a0 + 0x16] = a4\n 63796: a4 = a3 >> 0x28\n 63799: u8 [a0 + 0x15] = a4\n 63802: a4 = a3 >> 0x20\n 63805: u8 [a0 + 0x14] = a4\n 63808: a4 = a3 >> 0x18\n 63811: u8 [a0 + 0x13] = a4\n 63814: a4 = a3 >> 0x10\n 63817: u8 [a0 + 0x12] = a4\n 63820: a3 = a3 >> 0x8\n 63823: u8 [a0 + 0x11] = a3\n 63826: u8 [a0 + 0x8] = a2\n 63829: a3 = a2 >> 0x38\n 63832: u8 [a0 + 0xf] = a3\n 63835: a3 = a2 >> 0x30\n 63838: u8 [a0 + 0xe] = a3\n 63841: a3 = a2 >> 0x28\n 63844: u8 [a0 + 0xd] = a3\n 63847: a3 = a2 >> 0x20\n 63850: u8 [a0 + 0xc] = a3\n 63853: a3 = a2 >> 0x18\n 63856: u8 [a0 + 0xb] = a3\n 63859: a3 = a2 >> 0x10\n 63862: u8 [a0 + 0xa] = a3\n 63865: a2 = a2 >> 0x8\n 63868: u8 [a0 + 0x9] = a2\n 63871: u8 [a0] = a1\n 63873: a2 = a1 >> 0x38\n 63876: u8 [a0 + 0x7] = a2\n 63879: a2 = a1 >> 0x30\n 63882: u8 [a0 + 0x6] = a2\n 63885: a2 = a1 >> 0x28\n 63888: u8 [a0 + 0x5] = a2\n 63891: a2 = a1 >> 0x20\n 63894: u8 [a0 + 0x4] = a2\n 63897: a2 = a1 >> 0x18\n 63900: u8 [a0 + 0x3] = a2\n 63903: a2 = a1 >> 0x10\n 63906: u8 [a0 + 0x2] = a2\n 63909: a1 = a1 >> 0x8\n 63912: u8 [a0 + 0x1] = a1\n 63915: a1 = 0x20\n 63918: a0 = 0\n 63920: ra = 800, jump @0\n      : @870 [@dyn 400] (gas: 5)\n 63927: i32 a0 = a0 + 0\n 63929: i32 a2 = sp + 0xa0\n 63933: a1 = 0x20\n 63936: ecalli 8 // 'hash_keccak_256'\n 63938: fallthrough\n      : @871 (gas: 112)\n 63939: a2 = u64 [sp + 0x20]\n 63942: a1 = a2 + 0x1f\n 63945: a0 = a1 <u a2\n 63948: t1 = a2\n 63950: a4 = u64 [sp + 0x58]\n 63953: a3 = a4 + a0\n 63956: a2 = a3 <u a4\n 63959: t0 = a4\n 63961: a2 = a0 if a0 == 0\n 63964: s1 = u64 [sp + 0x40]\n 63967: a2 = a2 + s1\n 63970: u64 [sp + 0x18] = a2\n 63973: a2 = a2 << 0x3b\n 63976: a4 = a3 >> 0x5\n 63979: a2 = a2 | a4\n 63982: a3 = a3 << 0x3b\n 63985: a1 = a1 >> 0x5\n 63988: a5 = a1 | a3\n 63991: a1 = t1 <u 0x20\n 63994: a1 = 0 if t0 != 0\n 63996: a3 = u64 [sp + 0xb8]\n 64000: t1 = u64 [sp + 0xb0]\n 64004: a0 = u64 [sp + 0x50]\n 64007: a4 = s1 | a0\n 64010: a1 = 0 if a4 != 0\n 64012: a4 = reverse a3\n 64014: s1 = reverse t1\n 64016: a2 = 0 if a1 != 0\n 64018: a5 = 0 if a1 != 0\n 64020: a5 = a5 + a4\n 64023: u64 [sp + 0x58] = a5\n 64026: a5 = a5 <u a4\n 64029: a3 = s1 + a5\n 64032: t0 = a3 + a2\n 64035: a3 = t0 ^ s1\n 64038: ra = t0 <u s1\n 64041: ra = a5 if a3 == 0\n 64044: a0 = u64 [sp + 0x30]\n 64047: t2 = a0 + 0x1f\n 64050: a0 = t2 <u a0\n 64053: a2 = u64 [sp + 0x38]\n 64056: a3 = a2 + a0\n 64059: a5 = a3 <u a2\n 64062: a5 = a0 if a0 == 0\n 64065: a0 = u64 [sp + 0x48]\n 64068: a5 = a5 + a0\n 64071: a0 = a5 << 0x3b\n 64074: a2 = a3 >> 0x5\n 64077: a0 = a0 | a2\n 64080: a3 = a3 << 0x3b\n 64083: a2 = t2 >> 0x5\n 64086: a2 = a2 | a3\n 64089: t2 = a4 + a2\n 64092: a2 = t2 <u a4\n 64095: a3 = s1 + a2\n 64098: t1 = a3 + a0\n 64101: a0 = t1 ^ s1\n 64104: a3 = t1 <u s1\n 64107: a3 = a2 if a0 == 0\n 64110: a4 = u64 [sp + 0x18]\n 64113: a0 = u64 [sp + 0x40]\n 64116: a0 = a4 <u a0\n 64119: a2 = u64 [sp + 0x50]\n 64122: a0 = a0 + a2\n 64125: a2 = a4 >> 0x5\n 64128: a4 = a0 << 0x3b\n 64131: a2 = a2 | a4\n 64134: a0 = a0 >> 0x5\n 64137: a4 = u64 [sp + 0xa8]\n 64141: s1 = u64 [sp + 0xa0]\n 64145: a2 = 0 if a1 != 0\n 64147: a0 = 0 if a1 != 0\n 64149: a1 = reverse a4\n 64151: a4 = reverse s1\n 64153: u64 [sp + 0x50] = a4\n 64156: a0 = a0 + a4\n 64159: a2 = a2 + a1\n 64162: s1 = a2 <u a1\n 64165: a0 = a0 + s1\n 64168: a4 = a2 + ra\n 64171: s1 = a4 <u a2\n 64174: s1 = s1 + a0\n 64177: a0 = u64 [sp + 0x48]\n 64180: a0 = a5 <u a0\n 64183: a2 = u64 [sp + 0x28]\n 64186: a0 = a0 + a2\n 64189: a5 = a5 >> 0x5\n 64192: a2 = a0 << 0x3b\n 64195: a2 = a2 | a5\n 64198: a5 = u64 [sp + 0x58]\n 64201: a0 = a0 >> 0x5\n 64204: a2 = a2 + a1\n 64207: ra = a2 + a3\n 64210: a1 = a2 <u a1\n 64213: a2 = ra <u a2\n 64216: a3 = u64 [sp + 0x50]\n 64219: a0 = a0 + a3\n 64222: a0 = a0 + a1\n 64225: a3 = a0 + a2\n 64228: a0 = t0 ^ t1\n 64231: a1 = t0 <u t1\n 64234: a2 = a5 <u t2\n 64237: a2 = a1 if a0 != 0\n 64240: a0 = a4 <u ra\n 64243: a1 = s1 ^ a3\n 64246: u64 [sp + 0x40] = a3\n 64249: a3 = s1 <u a3\n 64252: a3 = a0 if a1 == 0\n 64255: a0 = a4 ^ ra\n 64258: a0 = a0 | a1\n 64261: a2 = a3 if a0 != 0\n 64264: jump @875 if a2 == 0\n      : @872 (gas: 5)\n 64268: a0 = a4\n 64270: u64 [sp + 0x38] = t2\n 64273: u64 [sp + 0x30] = t1\n 64276: u64 [sp + 0x28] = ra\n 64279: fallthrough\n      : @873 (gas: 36)\n 64280: u64 [sp + 0x48] = a0\n 64283: u64 [sp + 0x50] = t0\n 64286: u64 [sp + 0x58] = a5\n 64289: u64 [sp + 0x90] = a0\n 64293: u64 [sp + 0x88] = t0\n 64297: u64 [sp + 0x80] = a5\n 64301: u64 [sp + 0x98] = s1\n 64305: u64 [sp + 184] = 0\n 64309: u64 [sp + 176] = 0\n 64313: u64 [sp + 168] = 0\n 64317: u64 [sp + 160] = 0\n 64321: u32 [sp + 96] = 0x20\n 64325: i32 a1 = sp + 0x80\n 64329: i32 a3 = sp + 0xa0\n 64333: i32 a4 = sp + 0x60\n 64336: a2 = 0xffffffffffffffff\n 64339: a0 = 0\n 64341: ecalli 7 // 'get_storage'\n 64343: u64 [sp + 0x98] = s1\n 64347: a0 = u64 [sp + 0x48]\n 64350: u64 [sp + 0x90] = a0\n 64354: a0 = u64 [sp + 0x50]\n 64357: u64 [sp + 0x88] = a0\n 64361: a0 = u64 [sp + 0x58]\n 64364: u64 [sp + 0x80] = a0\n 64368: u64 [sp + 184] = 0\n 64372: u64 [sp + 176] = 0\n 64376: u64 [sp + 168] = 0\n 64380: u64 [sp + 160] = 0\n 64384: i32 a1 = sp + 0x80\n 64388: i32 a3 = sp + 0xa0\n 64392: a2 = 0xffffffffffffffff\n 64395: a4 = 0x20\n 64398: a0 = 0\n 64400: ecalli 15 // 'set_storage'\n 64402: fallthrough\n      : @874 (gas: 27)\n 64403: ra = u64 [sp + 0x28]\n 64406: t1 = u64 [sp + 0x30]\n 64409: t2 = u64 [sp + 0x38]\n 64412: t0 = u64 [sp + 0x50]\n 64415: a5 = u64 [sp + 0x58]\n 64418: a5 = a5 + 0x1\n 64421: a0 = a5 <u 0x1\n 64424: t0 = t0 + a0\n 64427: a0 = a5 | t0\n 64430: a0 = a0 <u 0x1\n 64433: a1 = u64 [sp + 0x48]\n 64436: a0 = a0 + a1\n 64439: a1 = a0 <u a1\n 64442: s1 = s1 + a1\n 64445: a1 = a5 <u t2\n 64448: a2 = t0 ^ t1\n 64451: a3 = t0 <u t1\n 64454: a3 = a1 if a2 == 0\n 64457: a1 = a0 <u ra\n 64460: a4 = u64 [sp + 0x40]\n 64463: a2 = s1 ^ a4\n 64466: a4 = s1 <u a4\n 64469: a4 = a1 if a2 == 0\n 64472: a1 = a0 ^ ra\n 64475: a1 = a1 | a2\n 64478: a4 = a3 if a1 == 0\n 64481: jump @873 if a4 != 0\n      : @875 (gas: 6)\n 64485: sp = s0 + 0xffffffffffffff20\n 64489: ra = u64 [sp + 0xd8]\n 64493: s0 = u64 [sp + 0xd0]\n 64497: s1 = u64 [sp + 0xc8]\n 64501: sp = sp + 0xe0\n 64505: ret\n      : @876 (gas: 17)\n 64507: sp = sp + 0xfffffffffffffd00\n 64511: u64 [sp + 0x2f8] = ra\n 64515: u64 [sp + 0x2f0] = s0\n 64519: u64 [sp + 0x2e8] = s1\n 64523: s0 = sp + 0x300\n 64527: sp = sp & 0xffffffffffffffe0\n 64530: a5 = u64 [a2 + 0x18]\n 64533: a3 = u64 [a2 + 0x10]\n 64536: a4 = u64 [a2 + 0x8]\n 64539: u64 [sp + 0x48] = a3\n 64542: u64 [sp + 0x18] = a5\n 64545: a5 = a5 | a3\n 64548: u64 [sp + 0x40] = a4\n 64551: a3 = a4 <u 0x1\n 64554: u64 [sp + 0xb8] = a5\n 64558: a3 = 0 if a5 != 0\n 64560: jump @902 if a3 == 0\n      : @877 (gas: 34)\n 64564: a2 = u64 [a2]\n 64566: u64 [sp + 0x50] = a2\n 64569: a2 = u64 [a1 + 0x18]\n 64572: u64 [sp + 0x78] = a2\n 64575: a2 = u64 [a1 + 0x10]\n 64578: u64 [sp + 0x70] = a2\n 64581: a2 = u64 [a1 + 0x8]\n 64584: u64 [sp + 0x60] = a2\n 64587: a1 = u64 [a1]\n 64589: u64 [sp + 0x68] = a1\n 64592: a3 = u64 [a0 + 0x10]\n 64595: a1 = u64 [a0 + 0x8]\n 64598: a2 = u64 [a0]\n 64600: a0 = u64 [a0 + 0x18]\n 64603: u64 [sp + 0x38] = a3\n 64606: u64 [sp + 0x2b0] = a3\n 64610: u64 [sp + 0x20] = a1\n 64613: u64 [sp + 0x2a8] = a1\n 64617: u64 [sp + 0x28] = a2\n 64620: u64 [sp + 0x2a0] = a2\n 64624: u64 [sp + 0x30] = a0\n 64627: u64 [sp + 0x2b8] = a0\n 64631: u64 [sp + 728] = 0\n 64635: u64 [sp + 720] = 0\n 64639: u64 [sp + 712] = 0\n 64643: u64 [sp + 704] = 0\n 64647: u32 [sp + 640] = 0x20\n 64652: i32 a1 = sp + 0x2a0\n 64656: i32 a3 = sp + 0x2c0\n 64660: i32 a4 = sp + 0x280\n 64664: a2 = 0xffffffffffffffff\n 64667: a0 = 0\n 64669: ecalli 7 // 'get_storage'\n 64671: fallthrough\n      : @878 (gas: 27)\n 64672: a0 = u64 [sp + 0x2d0]\n 64676: a1 = u64 [sp + 0x2c8]\n 64680: a2 = u64 [sp + 0x2c0]\n 64684: a3 = u64 [sp + 0x2d8]\n 64688: a4 = a0 << 0x3f\n 64691: a5 = a1 >> 0x1\n 64694: a4 = a4 | a5\n 64697: a5 = a3 << 0x3f\n 64700: a0 = a0 >> 0x1\n 64703: s1 = a0 | a5\n 64706: a1 = a1 << 0x3f\n 64709: a5 = a2 >> 0x1\n 64712: a1 = a1 | a5\n 64715: t1 = a3 >> 0x1\n 64718: a2 = a2 & 0x1\n 64721: a0 = -a2\n 64723: t0 = a2 <u 0x1\n 64726: a3 = a1 & 0x7f\n 64729: a5 = a0 & s1\n 64732: a4 = a4 & a0\n 64735: a3 = a1 if a2 != 0\n 64738: a1 = a0 & t1\n 64741: a0 = a3 <u 0x20\n 64744: a0 = 0 if a4 != 0\n 64746: a2 = a5 | a1\n 64749: a0 = 0 if a2 != 0\n 64751: jump @904 if t0 != a0\n      : @879 (gas: 24)\n 64755: a0 = u64 [sp + 0x50]\n 64758: u64 [sp + 0x1c0] = a0\n 64762: u64 [sp + 0x1e0] = a3\n 64766: a0 = u64 [sp + 0x28]\n 64769: u64 [sp + 0x200] = a0\n 64773: a0 = u64 [sp + 0x40]\n 64776: u64 [sp + 0x1c8] = a0\n 64780: u64 [sp + 0x1e8] = a4\n 64784: a0 = u64 [sp + 0x20]\n 64787: u64 [sp + 0x208] = a0\n 64791: a0 = u64 [sp + 0x48]\n 64794: u64 [sp + 0x1d0] = a0\n 64798: u64 [sp + 0x1f0] = a5\n 64802: a0 = u64 [sp + 0x38]\n 64805: u64 [sp + 0x210] = a0\n 64809: s1 = u64 [sp + 0x18]\n 64812: u64 [sp + 0x1d8] = s1\n 64816: u64 [sp + 0x1f8] = a1\n 64820: a0 = sp + 0x200\n 64824: a1 = sp + 0x1e0\n 64828: a2 = sp + 0x1c0\n 64832: a3 = u64 [sp + 0x30]\n 64835: u64 [sp + 0x218] = a3\n 64839: ra = 802, jump @867\n      : @880 [@dyn 401] (gas: 16)\n 64845: a5 = u64 [sp + 0x48]\n 64848: a3 = u64 [sp + 0x40]\n 64851: a4 = s1\n 64853: a0 = a3 >u 0\n 64855: s1 = u64 [sp + 0x50]\n 64858: a1 = s1 <u 0x20\n 64861: a1 = a1 ^ 0x1\n 64864: a1 = a0 if a3 != 0\n 64867: a0 = a5 >u 0\n 64869: a2 = a4 >u 0\n 64871: a2 = a0 if a4 == 0\n 64874: a0 = u64 [sp + 0xb8]\n 64878: a2 = a1 if a0 == 0\n 64881: t0 = u64 [sp + 0x38]\n 64884: a0 = s1\n 64886: jump @890 if a2 == 0\n      : @881 (gas: 6)\n 64890: a0 = a0 & 0xffffffffffffffe0\n 64893: u64 [sp + 0x58] = a0\n 64896: a1 = 0x20\n 64899: a0 = 0\n 64901: s1 = t0\n 64903: ra = 804, jump @0\n      : @882 [@dyn 402] (gas: 70)\n 64910: a1 = u64 [sp + 0x30]\n 64913: a1 = reverse a1\n 64915: a2 = reverse s1\n 64917: a3 = u64 [sp + 0x20]\n 64920: a3 = reverse a3\n 64922: a4 = u64 [sp + 0x28]\n 64925: a4 = reverse a4\n 64927: a5 = a4 >> 0x38\n 64930: u8 [a0 + 0x1f] = a5\n 64933: a5 = a4 >> 0x30\n 64936: u8 [a0 + 0x1e] = a5\n 64939: a5 = a4 >> 0x28\n 64942: u8 [a0 + 0x1d] = a5\n 64945: a5 = a4 >> 0x20\n 64948: u8 [a0 + 0x1c] = a5\n 64951: a5 = a4 >> 0x18\n 64954: u8 [a0 + 0x1b] = a5\n 64957: a5 = a4 >> 0x10\n 64960: u8 [a0 + 0x1a] = a5\n 64963: a5 = a4 >> 0x8\n 64966: u8 [a0 + 0x19] = a5\n 64969: u8 [a0 + 0x18] = a4\n 64972: u8 [a0 + 0x10] = a3\n 64975: a4 = a3 >> 0x38\n 64978: u8 [a0 + 0x17] = a4\n 64981: a4 = a3 >> 0x30\n 64984: u8 [a0 + 0x16] = a4\n 64987: a4 = a3 >> 0x28\n 64990: u8 [a0 + 0x15] = a4\n 64993: a4 = a3 >> 0x20\n 64996: u8 [a0 + 0x14] = a4\n 64999: a4 = a3 >> 0x18\n 65002: u8 [a0 + 0x13] = a4\n 65005: a4 = a3 >> 0x10\n 65008: u8 [a0 + 0x12] = a4\n 65011: a3 = a3 >> 0x8\n 65014: u8 [a0 + 0x11] = a3\n 65017: u8 [a0 + 0x8] = a2\n 65020: a3 = a2 >> 0x38\n 65023: u8 [a0 + 0xf] = a3\n 65026: a3 = a2 >> 0x30\n 65029: u8 [a0 + 0xe] = a3\n 65032: a3 = a2 >> 0x28\n 65035: u8 [a0 + 0xd] = a3\n 65038: a3 = a2 >> 0x20\n 65041: u8 [a0 + 0xc] = a3\n 65044: a3 = a2 >> 0x18\n 65047: u8 [a0 + 0xb] = a3\n 65050: a3 = a2 >> 0x10\n 65053: u8 [a0 + 0xa] = a3\n 65056: a2 = a2 >> 0x8\n 65059: u8 [a0 + 0x9] = a2\n 65062: u8 [a0] = a1\n 65064: a2 = a1 >> 0x38\n 65067: u8 [a0 + 0x7] = a2\n 65070: a2 = a1 >> 0x30\n 65073: u8 [a0 + 0x6] = a2\n 65076: a2 = a1 >> 0x28\n 65079: u8 [a0 + 0x5] = a2\n 65082: a2 = a1 >> 0x20\n 65085: u8 [a0 + 0x4] = a2\n 65088: a2 = a1 >> 0x18\n 65091: u8 [a0 + 0x3] = a2\n 65094: a2 = a1 >> 0x10\n 65097: u8 [a0 + 0x2] = a2\n 65100: a1 = a1 >> 0x8\n 65103: u8 [a0 + 0x1] = a1\n 65106: a1 = 0x20\n 65109: a0 = 0\n 65111: ra = 806, jump @0\n      : @883 [@dyn 403] (gas: 5)\n 65118: i32 a0 = a0 + 0\n 65120: i32 a2 = sp + 0x2c0\n 65124: a1 = 0x20\n 65127: ecalli 8 // 'hash_keccak_256'\n 65129: fallthrough\n      : @884 (gas: 13)\n 65130: a0 = u64 [sp + 0x2c0]\n 65134: a1 = u64 [sp + 0x2c8]\n 65138: a2 = u64 [sp + 0x2d0]\n 65142: a3 = u64 [sp + 0x2d8]\n 65146: a0 = reverse a0\n 65148: u64 [sp + 0xb0] = a0\n 65152: t2 = reverse a1\n 65154: a0 = reverse a2\n 65156: u64 [sp + 0xb8] = a0\n 65160: a0 = reverse a3\n 65162: u64 [sp + 0xa0] = a0\n 65166: a0 = u64 [sp + 0x58]\n 65169: jump @893 if a0 == 0\n      : @885 (gas: 6)\n 65173: a3 = 0\n 65175: a4 = 0\n 65177: s1 = 0\n 65179: ra = 0\n 65181: a0 = t2\n 65183: fallthrough\n      : @886 (gas: 31)\n 65184: u64 [sp + 0x80] = ra\n 65188: u64 [sp + 0xa8] = a0\n 65192: a1 = u64 [sp + 0x68]\n 65195: a1 = a1 + a3\n 65198: u64 [sp + 0x90] = a3\n 65202: a0 = a1 <u a3\n 65205: a2 = u64 [sp + 0x60]\n 65208: a2 = a2 + a4\n 65211: a2 = a2 + a0\n 65214: a3 = a2 ^ a4\n 65217: u64 [sp + 0x88] = a4\n 65221: a4 = a2 <u a4\n 65224: a4 = a0 if a3 == 0\n 65227: a0 = u64 [sp + 0x70]\n 65230: a0 = a0 + s1\n 65233: u64 [sp + 0x98] = s1\n 65237: a3 = a0 <u s1\n 65240: a5 = u64 [sp + 0x78]\n 65243: a5 = a5 + ra\n 65246: a3 = a3 + a5\n 65249: a4 = a4 + a0\n 65252: a0 = a4 <u a0\n 65255: a0 = a0 + a3\n 65258: a0 = a0 | a2\n 65261: a2 = a1 | a4\n 65264: a2 = a2 | a0\n 65267: a0 = a0 | a4\n 65270: a2 = a2 >> 0x20\n 65273: a0 = a0 << 0x20\n 65276: a0 = a0 | a2\n 65279: jump @901 if a0 != 0\n      : @887 (gas: 26)\n 65283: i32 a1 = a1 + 0\n 65285: i32 a0 = sp + 0x220\n 65289: ecalli 3 // 'call_data_load'\n 65291: a0 = u64 [sp + 0x220]\n 65295: a1 = u64 [sp + 0x228]\n 65299: a2 = u64 [sp + 0x230]\n 65303: a3 = u64 [sp + 0x238]\n 65307: a4 = u64 [sp + 0xb0]\n 65311: u64 [sp + 0x2b8] = a4\n 65315: a4 = u64 [sp + 0xa8]\n 65319: u64 [sp + 0x2b0] = a4\n 65323: a4 = u64 [sp + 0xb8]\n 65327: u64 [sp + 0x2a8] = a4\n 65331: s1 = u64 [sp + 0xa0]\n 65335: u64 [sp + 0x2a0] = s1\n 65339: u64 [sp + 0x2d8] = a3\n 65343: u64 [sp + 0x2d0] = a2\n 65347: u64 [sp + 0x2c8] = a1\n 65351: u64 [sp + 0x2c0] = a0\n 65355: i32 a1 = sp + 0x2a0\n 65359: i32 a3 = sp + 0x2c0\n 65363: a2 = 0xffffffffffffffff\n 65366: a4 = 0x20\n 65369: a0 = 0\n 65371: ecalli 15 // 'set_storage'\n 65373: fallthrough\n      : @888 (gas: 38)\n 65374: s1 = s1 + 0x1\n 65377: a0 = s1 <u 0x1\n 65380: a1 = u64 [sp + 0xb8]\n 65384: a1 = a1 + a0\n 65387: u64 [sp + 0xb8] = a1\n 65391: u64 [sp + 0xa0] = s1\n 65395: a0 = u64 [sp + 0xb8]\n 65399: a0 = a0 | s1\n 65402: a0 = a0 <u 0x1\n 65405: a1 = u64 [sp + 0xa8]\n 65409: t2 = a1 + a0\n 65412: a3 = t2 <u a1\n 65415: a0 = u64 [sp + 0x90]\n 65419: a2 = a0 + 0x20\n 65422: a0 = a2 <u a0\n 65425: a4 = u64 [sp + 0x88]\n 65429: t0 = a4 + a0\n 65432: a4 = t0 <u a4\n 65435: a4 = a0 if a0 == 0\n 65438: a5 = u64 [sp + 0x98]\n 65442: t1 = a5 + a4\n 65445: a4 = t1 <u a5\n 65448: a1 = u64 [sp + 0x80]\n 65452: a1 = a1 + a4\n 65455: a4 = t1 | a1\n 65458: a5 = u64 [sp + 0x58]\n 65461: a5 = a2 <u a5\n 65464: a5 = 0 if t0 != 0\n 65466: a5 = 0 if a4 != 0\n 65468: a0 = u64 [sp + 0xb0]\n 65472: a0 = a0 + a3\n 65475: u64 [sp + 0xb0] = a0\n 65479: a3 = a2\n 65481: a4 = t0\n 65483: s1 = t1\n 65485: a0 = t2\n 65487: ra = a1\n 65489: jump @886 if a5 != 0\n      : @889 (gas: 1)\n 65493: jump @894\n      : @890 (gas: 4)\n 65496: a0 = a0 | a5\n 65499: a1 = a3 | a4\n 65502: a0 = a0 | a1\n 65505: jump @898 if a0 == 0\n      : @891 (gas: 12)\n 65509: a2 = u64 [sp + 0x70]\n 65512: a3 = u64 [sp + 0x68]\n 65515: a0 = a3 | a2\n 65518: a1 = u64 [sp + 0x78]\n 65521: a4 = u64 [sp + 0x60]\n 65524: a1 = a1 | a4\n 65527: a0 = a0 | a1\n 65530: a0 = a0 >> 0x20\n 65533: a1 = a1 | a2\n 65536: a1 = a1 << 0x20\n 65539: a0 = a0 | a1\n 65542: jump @901 if a0 != 0\n      : @892 (gas: 193)\n 65546: i32 a1 = a3 + 0\n 65548: i32 a0 = sp + 0x260\n 65552: ecalli 3 // 'call_data_load'\n 65554: a0 = u64 [sp + 0x278]\n 65558: u64 [sp + 0xb8] = a0\n 65562: a0 = u64 [sp + 0x270]\n 65566: u64 [sp + 0xb0] = a0\n 65570: t2 = u64 [sp + 0x268]\n 65574: ra = u64 [sp + 0x260]\n 65578: u8 [sp + 447] = 0\n 65582: u8 [sp + 446] = 0\n 65586: u8 [sp + 445] = 0\n 65590: u8 [sp + 444] = 0\n 65594: u8 [sp + 443] = 0\n 65598: u8 [sp + 442] = 0\n 65602: u8 [sp + 441] = 0\n 65606: u8 [sp + 440] = 0\n 65610: u8 [sp + 439] = 0\n 65614: u8 [sp + 438] = 0\n 65618: u8 [sp + 437] = 0\n 65622: u8 [sp + 436] = 0\n 65626: u8 [sp + 435] = 0\n 65630: u8 [sp + 434] = 0\n 65634: u8 [sp + 433] = 0\n 65638: u8 [sp + 432] = 0\n 65642: u8 [sp + 431] = 0\n 65646: u8 [sp + 430] = 0\n 65650: u8 [sp + 429] = 0\n 65654: u8 [sp + 428] = 0\n 65658: u8 [sp + 427] = 0\n 65662: u8 [sp + 426] = 0\n 65666: u8 [sp + 425] = 0\n 65670: u8 [sp + 424] = 0\n 65674: u8 [sp + 423] = 0\n 65678: u8 [sp + 422] = 0\n 65682: u8 [sp + 421] = 0\n 65686: u8 [sp + 420] = 0\n 65690: u8 [sp + 419] = 0\n 65694: u8 [sp + 418] = 0\n 65698: u8 [sp + 417] = 0\n 65702: u8 [sp + 416] = 0\n 65706: u8 [sp + 415] = 0xff\n 65712: u8 [sp + 414] = 0xff\n 65718: u8 [sp + 413] = 0xff\n 65724: u8 [sp + 411] = 0xff\n 65730: u8 [sp + 408] = 0xffffffffffffffff\n 65735: u8 [sp + 407] = 0xff\n 65741: u8 [sp + 406] = 0xff\n 65747: u8 [sp + 405] = 0xff\n 65753: u8 [sp + 403] = 0xff\n 65759: u8 [sp + 400] = 0xffffffffffffffff\n 65764: u8 [sp + 399] = 0xff\n 65770: u8 [sp + 398] = 0xff\n 65776: u8 [sp + 397] = 0xff\n 65782: u8 [sp + 395] = 0xff\n 65788: u8 [sp + 392] = 0xffffffffffffffff\n 65793: u8 [sp + 391] = 0xff\n 65799: u8 [sp + 390] = 0xff\n 65805: u8 [sp + 389] = 0xff\n 65811: u8 [sp + 387] = 0xff\n 65817: u8 [sp + 384] = 0xffffffffffffffff\n 65822: a0 = 0xffffffff\n 65832: u8 [sp + 0x19c] = a0\n 65836: a5 = 0xffffffffffff\n 65846: u8 [sp + 0x19a] = a5\n 65850: a4 = 0xffffffffffffff\n 65860: u8 [sp + 0x199] = a4\n 65864: u8 [sp + 0x194] = a0\n 65868: u8 [sp + 0x192] = a5\n 65872: u8 [sp + 0x191] = a4\n 65876: u8 [sp + 0x18c] = a0\n 65880: u8 [sp + 0x18a] = a5\n 65884: u8 [sp + 0x189] = a4\n 65888: u8 [sp + 0x184] = a0\n 65892: u8 [sp + 0x182] = a5\n 65896: u8 [sp + 0x181] = a4\n 65900: t0 = u64 [sp + 0x50]\n 65903: a4 = t0 & 0x1f\n 65906: a0 = sp + 0x180\n 65910: a4 = a4 + a0\n 65913: a0 = u8 [a4 + 0x19]\n 65916: a5 = u8 [a4 + 0x18]\n 65919: s1 = u8 [a4 + 0x1a]\n 65922: a1 = u8 [a4 + 0x1b]\n 65925: a0 = a0 << 0x8\n 65928: a0 = a0 | a5\n 65931: s1 = s1 << 0x10\n 65934: a1 = a1 << 0x18\n 65937: a1 = a1 | s1\n 65940: a0 = a0 | a1\n 65943: a1 = u8 [a4 + 0x1d]\n 65946: a5 = u8 [a4 + 0x1c]\n 65949: s1 = u8 [a4 + 0x1e]\n 65952: a2 = u8 [a4 + 0x1f]\n 65955: a1 = a1 << 0x8\n 65958: a1 = a1 | a5\n 65961: s1 = s1 << 0x10\n 65964: a2 = a2 << 0x18\n 65967: a2 = a2 | s1\n 65970: a1 = a1 | a2\n 65973: a1 = a1 << 0x20\n 65976: t1 = a1 | a0\n 65979: a0 = u8 [a4 + 0x11]\n 65982: a1 = u8 [a4 + 0x10]\n 65985: a2 = u8 [a4 + 0x12]\n 65988: s1 = u8 [a4 + 0x13]\n 65991: a0 = a0 << 0x8\n 65994: a0 = a0 | a1\n 65997: a2 = a2 << 0x10\n 66000: s1 = s1 << 0x18\n 66003: a2 = a2 | s1\n 66006: a0 = a0 | a2\n 66009: a1 = u8 [a4 + 0x15]\n 66012: a2 = u8 [a4 + 0x14]\n 66015: s1 = u8 [a4 + 0x16]\n 66018: a3 = u8 [a4 + 0x17]\n 66021: a1 = a1 << 0x8\n 66024: a1 = a1 | a2\n 66027: s1 = s1 << 0x10\n 66030: a3 = a3 << 0x18\n 66033: a3 = a3 | s1\n 66036: a1 = a1 | a3\n 66039: a1 = a1 << 0x20\n 66042: s1 = a1 | a0\n 66045: a0 = u8 [a4 + 0x9]\n 66048: a1 = u8 [a4 + 0x8]\n 66051: a2 = u8 [a4 + 0xa]\n 66054: a3 = u8 [a4 + 0xb]\n 66057: a0 = a0 << 0x8\n 66060: a0 = a0 | a1\n 66063: a2 = a2 << 0x10\n 66066: a3 = a3 << 0x18\n 66069: a2 = a2 | a3\n 66072: a5 = a2 | a0\n 66075: a1 = u8 [a4 + 0xd]\n 66078: a2 = u8 [a4 + 0xc]\n 66081: a3 = u8 [a4 + 0xe]\n 66084: a0 = u8 [a4 + 0xf]\n 66087: a1 = a1 << 0x8\n 66090: a1 = a1 | a2\n 66093: a3 = a3 << 0x10\n 66096: a0 = a0 << 0x18\n 66099: a0 = a0 | a3\n 66102: a0 = a0 | a1\n 66105: a0 = a0 << 0x20\n 66108: a0 = a0 | a5\n 66111: a1 = u8 [a4 + 0x1]\n 66114: a2 = u8 [a4]\n 66116: a3 = u8 [a4 + 0x2]\n 66119: a5 = u8 [a4 + 0x3]\n 66122: a1 = a1 << 0x8\n 66125: a1 = a1 | a2\n 66128: a3 = a3 << 0x10\n 66131: a5 = a5 << 0x18\n 66134: a3 = a3 | a5\n 66137: a1 = a1 | a3\n 66140: a2 = u8 [a4 + 0x5]\n 66143: a3 = u8 [a4 + 0x4]\n 66146: a5 = u8 [a4 + 0x6]\n 66149: a4 = u8 [a4 + 0x7]\n 66152: a2 = a2 << 0x8\n 66155: a2 = a2 | a3\n 66158: a5 = a5 << 0x10\n 66161: a4 = a4 << 0x18\n 66164: a4 = a4 | a5\n 66167: a2 = a2 | a4\n 66170: a2 = a2 << 0x20\n 66173: a1 = a1 | a2\n 66176: ra = ra & ~a1\n 66179: a2 = t2 & ~a0\n 66182: a0 = u64 [sp + 0xb0]\n 66186: a1 = a0 & ~s1\n 66189: a0 = u64 [sp + 0xb8]\n 66193: a0 = a0 & ~t1\n 66196: a4 = t0 >> 0x3f\n 66199: a3 = u64 [sp + 0x40]\n 66202: a5 = a3 << 0x1\n 66205: a4 = a4 | a5\n 66208: a5 = a3 >> 0x3f\n 66211: a3 = u64 [sp + 0x48]\n 66214: s1 = a3 << 0x1\n 66217: a5 = a5 | s1\n 66220: s1 = a3 >> 0x3f\n 66223: a3 = u64 [sp + 0x18]\n 66226: a3 = a3 << 0x1\n 66229: a3 = a3 | s1\n 66232: a0 = a0 | a3\n 66235: a1 = a1 | a5\n 66238: a2 = a2 | a4\n 66241: a3 = t0 << 0x1\n 66244: a3 = ra | a3\n 66247: t0 = u64 [sp + 0x38]\n 66250: jump @899\n      : @893 (gas: 5)\n 66253: a2 = 0\n 66255: t0 = 0\n 66257: t1 = 0\n 66259: ra = 0\n 66261: fallthrough\n      : @894 (gas: 10)\n 66262: s1 = u64 [sp + 0x50]\n 66265: a3 = u64 [sp + 0x58]\n 66268: a3 = a3 ^ s1\n 66271: a5 = u64 [sp + 0x48]\n 66274: a3 = a3 | a5\n 66277: a0 = u64 [sp + 0x40]\n 66280: a4 = u64 [sp + 0x18]\n 66283: a4 = a4 | a0\n 66286: a3 = a3 | a4\n 66289: jump @897 if a3 == 0\n      : @895 (gas: 27)\n 66293: u64 [sp + 0xa8] = t2\n 66297: a3 = u64 [sp + 0x68]\n 66300: a3 = a3 + a2\n 66303: a2 = a3 <u a2\n 66306: a4 = u64 [sp + 0x60]\n 66309: a4 = a4 + t0\n 66312: a4 = a4 + a2\n 66315: a5 = a4 ^ t0\n 66318: a1 = a4 <u t0\n 66321: a1 = a2 if a5 == 0\n 66324: a2 = u64 [sp + 0x70]\n 66327: a2 = a2 + t1\n 66330: a1 = a1 + a2\n 66333: a5 = a1 <u a2\n 66336: a0 = a2 <u t1\n 66339: a2 = u64 [sp + 0x78]\n 66342: a2 = a2 + ra\n 66345: a0 = a0 + a2\n 66348: a0 = a0 + a5\n 66351: a2 = a3 | a1\n 66354: a0 = a0 | a4\n 66357: a2 = a2 | a0\n 66360: a2 = a2 >> 0x20\n 66363: a0 = a0 | a1\n 66366: a0 = a0 << 0x20\n 66369: a0 = a0 | a2\n 66372: jump @901 if a0 != 0\n      : @896 (gas: 194)\n 66376: i32 a1 = a3 + 0\n 66378: i32 a0 = sp + 0x240\n 66382: ecalli 3 // 'call_data_load'\n 66384: a0 = u64 [sp + 0x258]\n 66388: u64 [sp + 0x98] = a0\n 66392: t1 = u64 [sp + 0x250]\n 66396: t2 = u64 [sp + 0x248]\n 66400: ra = u64 [sp + 0x240]\n 66404: u8 [sp + 383] = 0\n 66408: u8 [sp + 382] = 0\n 66412: u8 [sp + 381] = 0\n 66416: u8 [sp + 380] = 0\n 66420: u8 [sp + 379] = 0\n 66424: u8 [sp + 378] = 0\n 66428: u8 [sp + 377] = 0\n 66432: u8 [sp + 376] = 0\n 66436: u8 [sp + 375] = 0\n 66440: u8 [sp + 374] = 0\n 66444: u8 [sp + 373] = 0\n 66448: u8 [sp + 372] = 0\n 66452: u8 [sp + 371] = 0\n 66456: u8 [sp + 370] = 0\n 66460: u8 [sp + 369] = 0\n 66464: u8 [sp + 368] = 0\n 66468: u8 [sp + 367] = 0\n 66472: u8 [sp + 366] = 0\n 66476: u8 [sp + 365] = 0\n 66480: u8 [sp + 364] = 0\n 66484: u8 [sp + 363] = 0\n 66488: u8 [sp + 362] = 0\n 66492: u8 [sp + 361] = 0\n 66496: u8 [sp + 360] = 0\n 66500: u8 [sp + 359] = 0\n 66504: u8 [sp + 358] = 0\n 66508: u8 [sp + 357] = 0\n 66512: u8 [sp + 356] = 0\n 66516: u8 [sp + 355] = 0\n 66520: u8 [sp + 354] = 0\n 66524: u8 [sp + 353] = 0\n 66528: u8 [sp + 352] = 0\n 66532: u8 [sp + 351] = 0xff\n 66538: u8 [sp + 350] = 0xff\n 66544: u8 [sp + 349] = 0xff\n 66550: u8 [sp + 347] = 0xff\n 66556: u8 [sp + 344] = 0xffffffffffffffff\n 66561: u8 [sp + 343] = 0xff\n 66567: u8 [sp + 342] = 0xff\n 66573: u8 [sp + 341] = 0xff\n 66579: u8 [sp + 339] = 0xff\n 66585: u8 [sp + 336] = 0xffffffffffffffff\n 66590: u8 [sp + 335] = 0xff\n 66596: u8 [sp + 334] = 0xff\n 66602: u8 [sp + 333] = 0xff\n 66608: u8 [sp + 331] = 0xff\n 66614: u8 [sp + 328] = 0xffffffffffffffff\n 66619: u8 [sp + 327] = 0xff\n 66625: u8 [sp + 326] = 0xff\n 66631: u8 [sp + 325] = 0xff\n 66637: u8 [sp + 323] = 0xff\n 66643: u8 [sp + 320] = 0xffffffffffffffff\n 66648: a0 = 0xffffffff\n 66658: u8 [sp + 0x15c] = a0\n 66662: a5 = 0xffffffffffff\n 66672: u8 [sp + 0x15a] = a5\n 66676: a4 = 0xffffffffffffff\n 66686: u8 [sp + 0x159] = a4\n 66690: u8 [sp + 0x154] = a0\n 66694: u8 [sp + 0x152] = a5\n 66698: u8 [sp + 0x151] = a4\n 66702: u8 [sp + 0x14c] = a0\n 66706: u8 [sp + 0x14a] = a5\n 66710: u8 [sp + 0x149] = a4\n 66714: u8 [sp + 0x144] = a0\n 66718: u8 [sp + 0x142] = a5\n 66722: u8 [sp + 0x141] = a4\n 66726: a4 = u64 [sp + 0x50]\n 66729: a4 = a4 & 0x1f\n 66732: a0 = sp + 0x140\n 66736: a4 = a4 + a0\n 66739: a0 = u8 [a4 + 0x19]\n 66742: a5 = u8 [a4 + 0x18]\n 66745: s1 = u8 [a4 + 0x1a]\n 66748: a1 = u8 [a4 + 0x1b]\n 66751: a0 = a0 << 0x8\n 66754: a0 = a0 | a5\n 66757: s1 = s1 << 0x10\n 66760: a1 = a1 << 0x18\n 66763: a1 = a1 | s1\n 66766: a0 = a0 | a1\n 66769: a1 = u8 [a4 + 0x1d]\n 66772: a5 = u8 [a4 + 0x1c]\n 66775: s1 = u8 [a4 + 0x1e]\n 66778: a2 = u8 [a4 + 0x1f]\n 66781: a1 = a1 << 0x8\n 66784: a1 = a1 | a5\n 66787: s1 = s1 << 0x10\n 66790: a2 = a2 << 0x18\n 66793: a2 = a2 | s1\n 66796: a1 = a1 | a2\n 66799: a1 = a1 << 0x20\n 66802: t0 = a1 | a0\n 66805: a0 = u8 [a4 + 0x11]\n 66808: a1 = u8 [a4 + 0x10]\n 66811: a2 = u8 [a4 + 0x12]\n 66814: s1 = u8 [a4 + 0x13]\n 66817: a0 = a0 << 0x8\n 66820: a0 = a0 | a1\n 66823: a2 = a2 << 0x10\n 66826: s1 = s1 << 0x18\n 66829: a2 = a2 | s1\n 66832: a0 = a0 | a2\n 66835: a1 = u8 [a4 + 0x15]\n 66838: a2 = u8 [a4 + 0x14]\n 66841: s1 = u8 [a4 + 0x16]\n 66844: a3 = u8 [a4 + 0x17]\n 66847: a1 = a1 << 0x8\n 66850: a1 = a1 | a2\n 66853: s1 = s1 << 0x10\n 66856: a3 = a3 << 0x18\n 66859: a3 = a3 | s1\n 66862: a1 = a1 | a3\n 66865: a1 = a1 << 0x20\n 66868: s1 = a1 | a0\n 66871: a0 = u8 [a4 + 0x9]\n 66874: a1 = u8 [a4 + 0x8]\n 66877: a2 = u8 [a4 + 0xa]\n 66880: a3 = u8 [a4 + 0xb]\n 66883: a0 = a0 << 0x8\n 66886: a0 = a0 | a1\n 66889: a2 = a2 << 0x10\n 66892: a3 = a3 << 0x18\n 66895: a2 = a2 | a3\n 66898: a5 = a2 | a0\n 66901: a1 = u8 [a4 + 0xd]\n 66904: a2 = u8 [a4 + 0xc]\n 66907: a3 = u8 [a4 + 0xe]\n 66910: a0 = u8 [a4 + 0xf]\n 66913: a1 = a1 << 0x8\n 66916: a1 = a1 | a2\n 66919: a3 = a3 << 0x10\n 66922: a0 = a0 << 0x18\n 66925: a0 = a0 | a3\n 66928: a0 = a0 | a1\n 66931: a0 = a0 << 0x20\n 66934: a0 = a0 | a5\n 66937: a1 = u8 [a4 + 0x1]\n 66940: a2 = u8 [a4]\n 66942: a3 = u8 [a4 + 0x2]\n 66945: a5 = u8 [a4 + 0x3]\n 66948: a1 = a1 << 0x8\n 66951: a1 = a1 | a2\n 66954: a3 = a3 << 0x10\n 66957: a5 = a5 << 0x18\n 66960: a3 = a3 | a5\n 66963: a1 = a1 | a3\n 66966: a2 = u8 [a4 + 0x5]\n 66969: a3 = u8 [a4 + 0x4]\n 66972: a5 = u8 [a4 + 0x6]\n 66975: a4 = u8 [a4 + 0x7]\n 66978: a2 = a2 << 0x8\n 66981: a2 = a2 | a3\n 66984: a5 = a5 << 0x10\n 66987: a4 = a4 << 0x18\n 66990: a4 = a4 | a5\n 66993: a2 = a2 | a4\n 66996: a2 = a2 << 0x20\n 66999: a1 = a1 | a2\n 67002: a1 = ra & ~a1\n 67005: a0 = t2 & ~a0\n 67008: a2 = t1 & ~s1\n 67011: a3 = u64 [sp + 0x98]\n 67015: a3 = a3 & ~t0\n 67018: a4 = u64 [sp + 0xb0]\n 67022: u64 [sp + 0x2b8] = a4\n 67026: a4 = u64 [sp + 0xa8]\n 67030: u64 [sp + 0x2b0] = a4\n 67034: a4 = u64 [sp + 0xb8]\n 67038: u64 [sp + 0x2a8] = a4\n 67042: a4 = u64 [sp + 0xa0]\n 67046: u64 [sp + 0x2a0] = a4\n 67050: u64 [sp + 0x2d8] = a3\n 67054: u64 [sp + 0x2d0] = a2\n 67058: u64 [sp + 0x2c8] = a0\n 67062: u64 [sp + 0x2c0] = a1\n 67066: i32 a1 = sp + 0x2a0\n 67070: i32 a3 = sp + 0x2c0\n 67074: a2 = 0xffffffffffffffff\n 67077: a4 = 0x20\n 67080: a0 = 0\n 67082: ecalli 15 // 'set_storage'\n 67084: s1 = u64 [sp + 0x50]\n 67087: a5 = u64 [sp + 0x48]\n 67090: a0 = u64 [sp + 0x40]\n 67093: fallthrough\n      : @897 (gas: 25)\n 67094: a2 = a5 >> 0x3f\n 67097: a1 = u64 [sp + 0x18]\n 67100: a1 = a1 << 0x1\n 67103: t0 = a1 | a2\n 67106: a1 = a0 >> 0x3f\n 67109: a2 = a5 << 0x1\n 67112: a1 = a1 | a2\n 67115: a2 = s1 >> 0x3f\n 67118: a3 = a0 << 0x1\n 67121: a2 = a2 | a3\n 67124: a3 = s1 << 0x1\n 67127: a3 = a3 + 0x1\n 67130: a4 = u64 [sp + 0x20]\n 67133: u64 [sp + 0x2a8] = a4\n 67137: a4 = u64 [sp + 0x28]\n 67140: u64 [sp + 0x2a0] = a4\n 67144: a4 = u64 [sp + 0x38]\n 67147: u64 [sp + 0x2b0] = a4\n 67151: a4 = u64 [sp + 0x30]\n 67154: u64 [sp + 0x2b8] = a4\n 67158: u64 [sp + 0x2c0] = a3\n 67162: u64 [sp + 0x2c8] = a2\n 67166: u64 [sp + 0x2d0] = a1\n 67170: u64 [sp + 0x2d8] = t0\n 67174: jump @900\n      : @898 (gas: 4)\n 67176: a3 = 0\n 67178: a2 = 0\n 67180: a1 = 0\n 67182: fallthrough\n      : @899 (gas: 12)\n 67183: a4 = u64 [sp + 0x20]\n 67186: u64 [sp + 0x2a8] = a4\n 67190: a4 = u64 [sp + 0x28]\n 67193: u64 [sp + 0x2a0] = a4\n 67197: u64 [sp + 0x2b0] = t0\n 67201: a4 = u64 [sp + 0x30]\n 67204: u64 [sp + 0x2b8] = a4\n 67208: u64 [sp + 0x2c0] = a3\n 67212: u64 [sp + 0x2c8] = a2\n 67216: u64 [sp + 0x2d0] = a1\n 67220: u64 [sp + 0x2d8] = a0\n 67224: fallthrough\n      : @900 (gas: 12)\n 67225: i32 a1 = sp + 0x2a0\n 67229: i32 a3 = sp + 0x2c0\n 67233: a2 = 0xffffffffffffffff\n 67236: a4 = 0x20\n 67239: a0 = 0\n 67241: ecalli 15 // 'set_storage'\n 67243: sp = s0 + 0xfffffffffffffd00\n 67247: ra = u64 [sp + 0x2f8]\n 67251: s0 = u64 [sp + 0x2f0]\n 67255: s1 = u64 [sp + 0x2e8]\n 67259: sp = sp + 0x300\n 67263: ret\n      : @901 (gas: 1)\n 67265: trap\n      : @902 (gas: 8)\n 67266: u64 [sp + 240] = 0\n 67270: u64 [sp + 232] = 0\n 67274: u64 [sp + 224] = 0\n 67278: a0 = 0x4e487b7100000000\n 67288: a1 = sp + 0xe0\n 67292: u64 [sp + 0xf8] = a0\n 67296: a0 = 0\n 67298: ra = 808, jump @23\n      : @903 [@dyn 404] (gas: 8)\n 67305: u64 [sp + 216] = 0\n 67309: u64 [sp + 208] = 0\n 67313: u64 [sp + 192] = 0x41\n 67318: a0 = 0x4\n 67321: a1 = sp + 0xc0\n 67325: u64 [sp + 200] = 0\n 67329: ra = 0x32c\n 67333: jump @23\n      : @904 (gas: 8)\n 67337: u64 [sp + 304] = 0\n 67341: u64 [sp + 296] = 0\n 67345: u64 [sp + 288] = 0\n 67349: a0 = 0x4e487b7100000000\n 67359: a1 = sp + 0x120\n 67363: u64 [sp + 0x138] = a0\n 67367: a0 = 0\n 67369: ra = 810, jump @23\n      : @905 [@dyn 405] (gas: 7)\n 67376: u64 [sp + 280] = 0\n 67380: u64 [sp + 272] = 0\n 67384: u64 [sp + 256] = 0x22\n 67389: a0 = 0x4\n 67392: a1 = sp + 0x100\n 67396: u64 [sp + 264] = 0\n 67400: ra = 812, jump @23\n      : @906 [@dyn 406] (gas: 3)\n 67407: a1 = 0x24\n 67410: a0 = 0\n 67412: ra = 814, jump @0\n      : @907 [@dyn 407] (gas: 6)\n 67419: i32 a1 = a0 + 0\n 67421: a0 = 0x1\n 67424: a2 = 0x24\n 67427: ra = 0x330\n 67431: ecalli 13 // 'seal_return'\n 67433: fallthrough\n      : @908 [@dyn 408] (gas: 36)\n 67434: sp = sp + 0xffffffffffffff70\n 67438: u64 [sp + 0x88] = ra\n 67442: u64 [sp + 0x80] = s0\n 67446: u64 [sp + 0x78] = s1\n 67449: s0 = sp + 0x90\n 67453: sp = sp & 0xfffffffffffffff0\n 67456: a3 = u64 [a0]\n 67458: u64 [sp + 0x8] = a3\n 67461: t1 = u64 [a0 + 0x8]\n 67464: t2 = u64 [a0 + 0x10]\n 67467: ra = u64 [a0 + 0x18]\n 67470: t0 = u64 [a1]\n 67472: a4 = u64 [a1 + 0x8]\n 67475: a5 = u64 [a1 + 0x10]\n 67478: a3 = u64 [a1 + 0x18]\n 67481: s1 = u64 [a2]\n 67483: a1 = u64 [a2 + 0x8]\n 67486: a0 = u64 [a2 + 0x10]\n 67489: a2 = u64 [a2 + 0x18]\n 67492: u64 [sp + 0x28] = a2\n 67495: u64 [sp + 0x20] = a0\n 67498: u64 [sp + 0x18] = a1\n 67501: u64 [sp + 0x10] = s1\n 67504: u64 [sp + 0x48] = a3\n 67507: u64 [sp + 0x40] = a5\n 67510: u64 [sp + 0x38] = a4\n 67513: u64 [sp + 0x30] = t0\n 67516: u64 [sp + 0x68] = ra\n 67519: u64 [sp + 0x60] = t2\n 67522: u64 [sp + 0x58] = t1\n 67525: a0 = sp + 0x50\n 67528: a1 = sp + 0x30\n 67531: a2 = sp + 0x10\n 67534: a3 = u64 [sp + 0x8]\n 67537: u64 [sp + 0x50] = a3\n 67540: ra = 818, jump @876\n      : @909 [@dyn 409] (gas: 6)\n 67546: sp = s0 + 0xffffffffffffff70\n 67550: ra = u64 [sp + 0x88]\n 67554: s0 = u64 [sp + 0x80]\n 67558: s1 = u64 [sp + 0x78]\n 67561: sp = sp + 0x90\n 67565: ret\n      : @910 (gas: 17)\n 67567: sp = sp + 0xffffffffffffff00\n 67571: u64 [sp + 0xf8] = ra\n 67575: u64 [sp + 0xf0] = s0\n 67579: u64 [sp + 0xe8] = s1\n 67583: t1 = u64 [a1 + 0x18]\n 67586: t2 = u64 [a1 + 0x10]\n 67589: s0 = u64 [a1 + 0x8]\n 67592: t0 = u64 [a1]\n 67594: a1 = s0 | t1\n 67597: s1 = t0 | t2\n 67600: s1 = s1 | a1\n 67603: s1 = s1 >> 0x20\n 67606: a1 = a1 | t2\n 67609: a1 = a1 << 0x20\n 67612: a1 = a1 | s1\n 67615: u64 [sp + 0x18] = a0\n 67618: jump @933 if a1 != 0\n      : @911 (gas: 57)\n 67622: a0 = u64 [sp + 0x100]\n 67626: a1 = u64 [a0 + 0x10]\n 67629: u64 [sp] = a1\n 67631: a1 = u64 [a0 + 0x8]\n 67634: u64 [sp + 0x8] = a1\n 67637: a0 = u64 [a0]\n 67639: u64 [sp + 0x10] = a0\n 67642: a0 = u64 [a5 + 0x18]\n 67645: u64 [sp + 0x80] = a0\n 67649: a0 = t0 + 0x60\n 67652: u64 [sp + 0xd0] = a0\n 67656: a0 = a0 <u t0\n 67659: a1 = s0 + a0\n 67662: u64 [sp + 0xc8] = a1\n 67666: u64 [sp + 0xa0] = s0\n 67670: s1 = a1 <u s0\n 67673: s1 = a0 if a0 == 0\n 67676: a0 = u64 [a5 + 0x10]\n 67679: u64 [sp + 0x78] = a0\n 67682: a0 = u64 [a5 + 0x8]\n 67685: u64 [sp + 0x70] = a0\n 67688: a0 = u64 [a5]\n 67690: u64 [sp + 0xe0] = a0\n 67694: a0 = u64 [a4 + 0x18]\n 67697: u64 [sp + 0x28] = a0\n 67700: a0 = u64 [a4 + 0x10]\n 67703: u64 [sp + 0x30] = a0\n 67706: a0 = u64 [a4 + 0x8]\n 67709: u64 [sp + 0x20] = a0\n 67712: a0 = u64 [a4]\n 67714: u64 [sp + 0x38] = a0\n 67717: a0 = u64 [a3 + 0x18]\n 67720: u64 [sp + 0xc0] = a0\n 67724: a0 = u64 [a3 + 0x10]\n 67727: u64 [sp + 0xb8] = a0\n 67731: a0 = u64 [a3 + 0x8]\n 67734: u64 [sp + 0xb0] = a0\n 67738: a0 = u64 [a3]\n 67740: u64 [sp + 0xd8] = a0\n 67744: a0 = u64 [a2 + 0x18]\n 67747: u64 [sp + 0x58] = a0\n 67750: a0 = u64 [a2 + 0x10]\n 67753: u64 [sp + 0x60] = a0\n 67756: a0 = u64 [a2 + 0x8]\n 67759: u64 [sp + 0x50] = a0\n 67762: a0 = u64 [a2]\n 67764: u64 [sp + 0x68] = a0\n 67767: s1 = s1 + t2\n 67770: u64 [sp + 0x98] = t2\n 67774: a0 = s1 <u t2\n 67777: u64 [sp + 0x90] = t1\n 67781: s0 = t1 + a0\n 67784: u64 [sp + 0xa8] = t0\n 67788: i32 a0 = t0 + 0\n 67790: a1 = 0x20\n 67793: u64 [sp + 0x88] = a0\n 67797: ra = 820, jump @0\n      : @912 [@dyn 410] (gas: 44)\n 67804: a3 = u64 [sp + 0xd0]\n 67808: u8 [a0 + 31] = 0x60\n 67812: a1 = a3 | s1\n 67815: u64 [sp + 0x40] = s0\n 67818: a2 = u64 [sp + 0xc8]\n 67822: a2 = a2 | s0\n 67825: a1 = a1 | a2\n 67828: a1 = a1 >> 0x20\n 67831: u64 [sp + 0x48] = s1\n 67834: a2 = a2 | s1\n 67837: a2 = a2 << 0x20\n 67840: a1 = a1 | a2\n 67843: u8 [a0 + 30] = 0\n 67846: u8 [a0 + 29] = 0\n 67849: u8 [a0 + 28] = 0\n 67852: u8 [a0 + 27] = 0\n 67855: u8 [a0 + 26] = 0\n 67858: u8 [a0 + 25] = 0\n 67861: u8 [a0 + 24] = 0\n 67864: u8 [a0 + 23] = 0\n 67867: u8 [a0 + 22] = 0\n 67870: u8 [a0 + 21] = 0\n 67873: u8 [a0 + 20] = 0\n 67876: u8 [a0 + 19] = 0\n 67879: u8 [a0 + 18] = 0\n 67882: u8 [a0 + 17] = 0\n 67885: u8 [a0 + 16] = 0\n 67888: u8 [a0 + 15] = 0\n 67891: u8 [a0 + 14] = 0\n 67894: u8 [a0 + 13] = 0\n 67897: u8 [a0 + 12] = 0\n 67900: u8 [a0 + 11] = 0\n 67903: u8 [a0 + 10] = 0\n 67906: u8 [a0 + 9] = 0\n 67909: u8 [a0 + 8] = 0\n 67912: u8 [a0 + 7] = 0\n 67915: u8 [a0 + 6] = 0\n 67918: u8 [a0 + 5] = 0\n 67921: u8 [a0 + 4] = 0\n 67924: u8 [a0 + 3] = 0\n 67927: u8 [a0 + 2] = 0\n 67930: u8 [a0 + 1] = 0\n 67933: u8 [a0 + 0] = 0\n 67935: jump @933 if a1 != 0\n      : @913 (gas: 3)\n 67939: i32 a0 = a3 + 0\n 67941: a1 = 0x20\n 67944: ra = 822, jump @0\n      : @914 [@dyn 411] (gas: 80)\n 67951: s0 = u64 [sp + 0xd8]\n 67955: a1 = reverse s0\n 67957: a2 = a1 >> 0x38\n 67960: u8 [a0 + 0x1f] = a2\n 67963: a2 = a1 >> 0x30\n 67966: u8 [a0 + 0x1e] = a2\n 67969: a2 = a1 >> 0x28\n 67972: u8 [a0 + 0x1d] = a2\n 67975: a2 = a1 >> 0x20\n 67978: u8 [a0 + 0x1c] = a2\n 67981: a2 = a1 >> 0x18\n 67984: u8 [a0 + 0x1b] = a2\n 67987: a2 = a1 >> 0x10\n 67990: u8 [a0 + 0x1a] = a2\n 67993: a2 = a1 >> 0x8\n 67996: u8 [a0 + 0x19] = a2\n 67999: t0 = u64 [sp + 0xb0]\n 68003: a2 = reverse t0\n 68005: u8 [a0 + 0x18] = a1\n 68008: a1 = a2 >> 0x38\n 68011: u8 [a0 + 0x17] = a1\n 68014: a1 = a2 >> 0x30\n 68017: u8 [a0 + 0x16] = a1\n 68020: a1 = a2 >> 0x28\n 68023: u8 [a0 + 0x15] = a1\n 68026: a1 = a2 >> 0x20\n 68029: u8 [a0 + 0x14] = a1\n 68032: a1 = a2 >> 0x18\n 68035: u8 [a0 + 0x13] = a1\n 68038: a1 = a2 >> 0x10\n 68041: u8 [a0 + 0x12] = a1\n 68044: a4 = u64 [sp + 0xb8]\n 68048: a3 = reverse a4\n 68050: u8 [a0 + 0x10] = a2\n 68053: a2 = a2 >> 0x8\n 68056: u8 [a0 + 0x11] = a2\n 68059: a1 = a3 >> 0x38\n 68062: u8 [a0 + 0xf] = a1\n 68065: a1 = a3 >> 0x30\n 68068: u8 [a0 + 0xe] = a1\n 68071: a1 = a3 >> 0x28\n 68074: u8 [a0 + 0xd] = a1\n 68077: a1 = a3 >> 0x20\n 68080: u8 [a0 + 0xc] = a1\n 68083: a1 = a3 >> 0x18\n 68086: u8 [a0 + 0xb] = a1\n 68089: a1 = a3 >> 0x10\n 68092: u8 [a0 + 0xa] = a1\n 68095: s1 = u64 [sp + 0xc0]\n 68099: a1 = reverse s1\n 68101: u8 [a0 + 0x8] = a3\n 68104: a3 = a3 >> 0x8\n 68107: u8 [a0 + 0x9] = a3\n 68110: a2 = a1 >> 0x38\n 68113: u8 [a0 + 0x7] = a2\n 68116: a2 = a1 >> 0x30\n 68119: u8 [a0 + 0x6] = a2\n 68122: a2 = a1 >> 0x28\n 68125: u8 [a0 + 0x5] = a2\n 68128: a2 = a1 >> 0x20\n 68131: u8 [a0 + 0x4] = a2\n 68134: a2 = a1 >> 0x18\n 68137: u8 [a0 + 0x3] = a2\n 68140: a2 = a1 >> 0x10\n 68143: u8 [a0 + 0x2] = a2\n 68146: a2 = u64 [sp + 0x58]\n 68149: a5 = u64 [sp + 0x50]\n 68152: a5 = a5 | a2\n 68155: t1 = u64 [sp + 0x68]\n 68158: a2 = u64 [sp + 0x60]\n 68161: a3 = t1 | a2\n 68164: a3 = a3 | a5\n 68167: a2 = a2 | a5\n 68170: a3 = a3 >> 0x20\n 68173: a2 = a2 << 0x20\n 68176: a2 = a2 | a3\n 68179: u8 [a0] = a1\n 68181: a1 = a1 >> 0x8\n 68184: u8 [a0 + 0x1] = a1\n 68187: jump @933 if a2 != 0\n      : @915 (gas: 13)\n 68191: a3 = a4\n 68193: a0 = s0 | a3\n 68196: a1 = t0 | s1\n 68199: a0 = a0 | a1\n 68202: a0 = a0 >> 0x20\n 68205: a1 = a1 | a3\n 68208: a1 = a1 << 0x20\n 68211: a0 = a0 | a1\n 68214: a2 = u64 [sp + 0xa8]\n 68218: a3 = u64 [sp + 0xa0]\n 68222: t0 = u64 [sp + 0x90]\n 68226: a5 = u64 [sp + 0x98]\n 68230: jump @933 if a0 != 0\n      : @916 (gas: 10)\n 68234: a0 = u64 [sp + 0x48]\n 68237: a1 = u64 [sp + 0x40]\n 68240: a0 = a0 | a1\n 68243: a1 = 0xffffffe0\n 68253: a4 = u64 [sp + 0xd0]\n 68257: a1 = a4 <u a1\n 68260: a4 = u64 [sp + 0xc8]\n 68264: a1 = 0 if a4 != 0\n 68266: a1 = 0 if a0 != 0\n 68268: jump @933 if a1 == 0\n      : @917 (gas: 17)\n 68272: a4 = a2 + 0x80\n 68276: a0 = a4 <u a2\n 68279: s1 = a3 + a0\n 68282: a1 = s1 <u a3\n 68285: a1 = a0 if a0 == 0\n 68288: a1 = a1 + a5\n 68291: u64 [sp + 0xd0] = a1\n 68295: a0 = a1 <u a5\n 68298: a0 = a0 + t0\n 68301: u64 [sp + 0xc8] = a0\n 68305: i32 t1 = t1 + 0\n 68307: u64 [sp + 0x68] = t1\n 68310: i32 a0 = a4 + 0\n 68312: i32 a1 = s0 + 0\n 68314: u64 [sp + 0x60] = a1\n 68317: s0 = a4\n 68319: ra = 824, jump @0\n      : @918 [@dyn 412] (gas: 5)\n 68326: i32 a0 = a0 + 0\n 68328: a1 = u64 [sp + 0x60]\n 68331: a2 = u64 [sp + 0x68]\n 68334: ecalli 2 // 'call_data_copy'\n 68336: fallthrough\n      : @919 (gas: 30)\n 68337: a0 = u64 [sp + 0xd8]\n 68341: a0 = a0 + s0\n 68344: u64 [sp + 0x68] = s0\n 68347: a1 = a0 <u s0\n 68350: a2 = u64 [sp + 0xb0]\n 68354: a2 = a2 + s1\n 68357: a2 = a2 + a1\n 68360: a3 = a2 ^ s1\n 68363: u64 [sp + 0xb0] = s1\n 68367: a4 = a2 <u s1\n 68370: a4 = a1 if a3 == 0\n 68373: a1 = u64 [sp + 0xb8]\n 68377: a5 = u64 [sp + 0xd0]\n 68381: a1 = a1 + a5\n 68384: a4 = a4 + a1\n 68387: a3 = a4 <u a1\n 68390: a1 = a1 <u a5\n 68393: a5 = u64 [sp + 0xc0]\n 68397: s1 = u64 [sp + 0xc8]\n 68401: a5 = a5 + s1\n 68404: a1 = a1 + a5\n 68407: a1 = a1 + a3\n 68410: a3 = a0 | a4\n 68413: a1 = a1 | a2\n 68416: a3 = a3 | a1\n 68419: a3 = a3 >> 0x20\n 68422: a1 = a1 | a4\n 68425: a1 = a1 << 0x20\n 68428: a1 = a1 | a3\n 68431: jump @933 if a1 != 0\n      : @920 (gas: 4)\n 68435: s0 = 0x1ffffffe0\n 68445: i32 a0 = a0 + 0\n 68447: a1 = 0x20\n 68450: ra = 826, jump @0\n      : @921 [@dyn 413] (gas: 78)\n 68457: u8 [a0 + 31] = 0\n 68460: u8 [a0 + 30] = 0\n 68463: u8 [a0 + 29] = 0\n 68466: u8 [a0 + 28] = 0\n 68469: u8 [a0 + 27] = 0\n 68472: u8 [a0 + 26] = 0\n 68475: u8 [a0 + 25] = 0\n 68478: u8 [a0 + 24] = 0\n 68481: u8 [a0 + 23] = 0\n 68484: u8 [a0 + 22] = 0\n 68487: u8 [a0 + 21] = 0\n 68490: u8 [a0 + 20] = 0\n 68493: u8 [a0 + 19] = 0\n 68496: u8 [a0 + 18] = 0\n 68499: u8 [a0 + 17] = 0\n 68502: u8 [a0 + 16] = 0\n 68505: u8 [a0 + 15] = 0\n 68508: u8 [a0 + 14] = 0\n 68511: u8 [a0 + 13] = 0\n 68514: u8 [a0 + 12] = 0\n 68517: u8 [a0 + 11] = 0\n 68520: u8 [a0 + 10] = 0\n 68523: u8 [a0 + 9] = 0\n 68526: u8 [a0 + 8] = 0\n 68529: u8 [a0 + 7] = 0\n 68532: u8 [a0 + 6] = 0\n 68535: u8 [a0 + 5] = 0\n 68538: u8 [a0 + 4] = 0\n 68541: u8 [a0 + 3] = 0\n 68544: u8 [a0 + 2] = 0\n 68547: u8 [a0 + 1] = 0\n 68550: u8 [a0 + 0] = 0\n 68552: a0 = u64 [sp + 0xd8]\n 68556: a0 = a0 + 0x1f\n 68559: u64 [sp + 0x60] = s0\n 68562: a0 = a0 & s0\n 68565: s1 = u64 [sp + 0x68]\n 68568: a5 = a0 + s1\n 68571: a0 = a5 <u a0\n 68574: a1 = u64 [sp + 0xb0]\n 68578: a3 = a1 + a0\n 68581: a0 = 0 if a3 != 0\n 68583: a1 = u64 [sp + 0xd0]\n 68587: a4 = a1 + a0\n 68590: u64 [sp + 0xd8] = a4\n 68594: a0 = a4 <u a1\n 68597: a1 = u64 [sp + 0xc8]\n 68601: s1 = a1 + a0\n 68604: u64 [sp + 0xd0] = s1\n 68608: a2 = u64 [sp + 0xa0]\n 68612: a0 = a3 ^ a2\n 68615: a1 = a3 <u a2\n 68618: t1 = a3\n 68620: t0 = u64 [sp + 0xa8]\n 68624: s0 = a5 <u t0\n 68627: a1 = s0 if a0 == 0\n 68630: a3 = u64 [sp + 0x98]\n 68634: a0 = a4 - a3\n 68637: a3 = a4 <u a3\n 68640: a4 = u64 [sp + 0x90]\n 68644: a3 = a3 + a4\n 68647: a4 = a0 <u a1\n 68650: a3 = s1 - a3\n 68653: a3 = a3 - a4\n 68656: u64 [sp + 0xc8] = a3\n 68660: a0 = a0 - a1\n 68663: u64 [sp + 0xc0] = a0\n 68667: a2 = a2 + s0\n 68670: a0 = t1 - a2\n 68673: u64 [sp + 0xb8] = a0\n 68677: s1 = t1\n 68679: a0 = a5 - t0\n 68682: u64 [sp + 0xb0] = a0\n 68686: s0 = a5\n 68688: a0 = u64 [sp + 0x88]\n 68692: i32 a0 = a0 + 0x20\n 68695: a1 = 0x20\n 68698: ra = 828, jump @0\n      : @922 [@dyn 414] (gas: 79)\n 68705: a1 = u64 [sp + 0xc8]\n 68709: a1 = reverse a1\n 68711: a2 = u64 [sp + 0xc0]\n 68715: a2 = reverse a2\n 68717: a3 = u64 [sp + 0xb8]\n 68721: a3 = reverse a3\n 68723: a4 = u64 [sp + 0xb0]\n 68727: a4 = reverse a4\n 68729: u8 [a0 + 0x18] = a4\n 68732: a5 = a4 >> 0x38\n 68735: u8 [a0 + 0x1f] = a5\n 68738: a5 = a4 >> 0x30\n 68741: u8 [a0 + 0x1e] = a5\n 68744: a5 = a4 >> 0x28\n 68747: u8 [a0 + 0x1d] = a5\n 68750: a5 = a4 >> 0x20\n 68753: u8 [a0 + 0x1c] = a5\n 68756: a5 = a4 >> 0x18\n 68759: u8 [a0 + 0x1b] = a5\n 68762: a5 = a4 >> 0x10\n 68765: u8 [a0 + 0x1a] = a5\n 68768: a4 = a4 >> 0x8\n 68771: u8 [a0 + 0x19] = a4\n 68774: u8 [a0 + 0x10] = a3\n 68777: a4 = a3 >> 0x38\n 68780: u8 [a0 + 0x17] = a4\n 68783: a4 = a3 >> 0x30\n 68786: u8 [a0 + 0x16] = a4\n 68789: a4 = a3 >> 0x28\n 68792: u8 [a0 + 0x15] = a4\n 68795: a4 = a3 >> 0x20\n 68798: u8 [a0 + 0x14] = a4\n 68801: a4 = a3 >> 0x18\n 68804: u8 [a0 + 0x13] = a4\n 68807: a4 = a3 >> 0x10\n 68810: u8 [a0 + 0x12] = a4\n 68813: a3 = a3 >> 0x8\n 68816: u8 [a0 + 0x11] = a3\n 68819: u8 [a0 + 0x8] = a2\n 68822: a3 = a2 >> 0x38\n 68825: u8 [a0 + 0xf] = a3\n 68828: a3 = a2 >> 0x30\n 68831: u8 [a0 + 0xe] = a3\n 68834: a3 = a2 >> 0x28\n 68837: u8 [a0 + 0xd] = a3\n 68840: a3 = a2 >> 0x20\n 68843: u8 [a0 + 0xc] = a3\n 68846: a3 = a2 >> 0x18\n 68849: u8 [a0 + 0xb] = a3\n 68852: a3 = a2 >> 0x10\n 68855: u8 [a0 + 0xa] = a3\n 68858: a2 = a2 >> 0x8\n 68861: u8 [a0 + 0x9] = a2\n 68864: u8 [a0] = a1\n 68866: a2 = a1 >> 0x38\n 68869: u8 [a0 + 0x7] = a2\n 68872: a2 = a1 >> 0x30\n 68875: u8 [a0 + 0x6] = a2\n 68878: a2 = a1 >> 0x28\n 68881: u8 [a0 + 0x5] = a2\n 68884: a2 = a1 >> 0x20\n 68887: u8 [a0 + 0x4] = a2\n 68890: a2 = a1 >> 0x18\n 68893: u8 [a0 + 0x3] = a2\n 68896: a2 = a1 >> 0x10\n 68899: u8 [a0 + 0x2] = a2\n 68902: a1 = a1 >> 0x8\n 68905: a3 = u64 [sp + 0xd8]\n 68909: a2 = s0 | a3\n 68912: u64 [sp + 0xc8] = s1\n 68916: a4 = u64 [sp + 0xd0]\n 68920: a4 = a4 | s1\n 68923: a2 = a2 | a4\n 68926: a2 = a2 >> 0x20\n 68929: a3 = a3 | a4\n 68932: a3 = a3 << 0x20\n 68935: a2 = a2 | a3\n 68938: u8 [a0 + 0x1] = a1\n 68941: jump @933 if a2 != 0\n      : @923 (gas: 4)\n 68945: u64 [sp + 0xc0] = s0\n 68949: i32 a0 = s0 + 0\n 68951: a1 = 0x20\n 68954: ra = 830, jump @0\n      : @924 [@dyn 415] (gas: 80)\n 68961: t0 = u64 [sp + 0xe0]\n 68965: a1 = reverse t0\n 68967: a2 = a1 >> 0x38\n 68970: u8 [a0 + 0x1f] = a2\n 68973: a2 = a1 >> 0x30\n 68976: u8 [a0 + 0x1e] = a2\n 68979: a2 = a1 >> 0x28\n 68982: u8 [a0 + 0x1d] = a2\n 68985: a2 = a1 >> 0x20\n 68988: u8 [a0 + 0x1c] = a2\n 68991: a2 = a1 >> 0x18\n 68994: u8 [a0 + 0x1b] = a2\n 68997: a2 = a1 >> 0x10\n 69000: u8 [a0 + 0x1a] = a2\n 69003: a2 = a1 >> 0x8\n 69006: u8 [a0 + 0x19] = a2\n 69009: t1 = u64 [sp + 0x70]\n 69012: a2 = reverse t1\n 69014: u8 [a0 + 0x18] = a1\n 69017: a1 = a2 >> 0x38\n 69020: u8 [a0 + 0x17] = a1\n 69023: a1 = a2 >> 0x30\n 69026: u8 [a0 + 0x16] = a1\n 69029: a1 = a2 >> 0x28\n 69032: u8 [a0 + 0x15] = a1\n 69035: a1 = a2 >> 0x20\n 69038: u8 [a0 + 0x14] = a1\n 69041: a1 = a2 >> 0x18\n 69044: u8 [a0 + 0x13] = a1\n 69047: a1 = a2 >> 0x10\n 69050: u8 [a0 + 0x12] = a1\n 69053: s1 = u64 [sp + 0x78]\n 69056: a3 = reverse s1\n 69058: u8 [a0 + 0x10] = a2\n 69061: a2 = a2 >> 0x8\n 69064: u8 [a0 + 0x11] = a2\n 69067: a1 = a3 >> 0x38\n 69070: u8 [a0 + 0xf] = a1\n 69073: a1 = a3 >> 0x30\n 69076: u8 [a0 + 0xe] = a1\n 69079: a1 = a3 >> 0x28\n 69082: u8 [a0 + 0xd] = a1\n 69085: a1 = a3 >> 0x20\n 69088: u8 [a0 + 0xc] = a1\n 69091: a1 = a3 >> 0x18\n 69094: u8 [a0 + 0xb] = a1\n 69097: a1 = a3 >> 0x10\n 69100: u8 [a0 + 0xa] = a1\n 69103: a5 = u64 [sp + 0x80]\n 69107: a1 = reverse a5\n 69109: u8 [a0 + 0x8] = a3\n 69112: a3 = a3 >> 0x8\n 69115: u8 [a0 + 0x9] = a3\n 69118: a2 = a1 >> 0x38\n 69121: u8 [a0 + 0x7] = a2\n 69124: a2 = a1 >> 0x30\n 69127: u8 [a0 + 0x6] = a2\n 69130: a2 = a1 >> 0x28\n 69133: u8 [a0 + 0x5] = a2\n 69136: a2 = a1 >> 0x20\n 69139: u8 [a0 + 0x4] = a2\n 69142: a2 = a1 >> 0x18\n 69145: u8 [a0 + 0x3] = a2\n 69148: a2 = a1 >> 0x10\n 69151: u8 [a0 + 0x2] = a2\n 69154: a2 = u64 [sp + 0x28]\n 69157: s0 = u64 [sp + 0x20]\n 69160: s0 = s0 | a2\n 69163: t2 = u64 [sp + 0x38]\n 69166: a2 = u64 [sp + 0x30]\n 69169: a3 = t2 | a2\n 69172: a3 = a3 | s0\n 69175: a2 = a2 | s0\n 69178: a3 = a3 >> 0x20\n 69181: a2 = a2 << 0x20\n 69184: a2 = a2 | a3\n 69187: u8 [a0] = a1\n 69189: a1 = a1 >> 0x8\n 69192: u8 [a0 + 0x1] = a1\n 69195: jump @933 if a2 != 0\n      : @925 (gas: 8)\n 69199: a0 = t0 | s1\n 69202: a1 = t1 | a5\n 69205: a0 = a0 | a1\n 69208: a0 = a0 >> 0x20\n 69211: a1 = a1 | s1\n 69214: a1 = a1 << 0x20\n 69217: a0 = a0 | a1\n 69220: jump @933 if a0 != 0\n      : @926 (gas: 10)\n 69224: a2 = u64 [sp + 0xd8]\n 69228: a4 = u64 [sp + 0xd0]\n 69232: a0 = a2 | a4\n 69235: a1 = 0xffffffe0\n 69245: a3 = u64 [sp + 0xc0]\n 69249: a1 = a3 <u a1\n 69252: a5 = u64 [sp + 0xc8]\n 69256: a1 = 0 if a5 != 0\n 69258: a1 = 0 if a0 != 0\n 69260: jump @933 if a1 == 0\n      : @927 (gas: 16)\n 69264: s1 = a3 + 0x20\n 69267: a0 = s1 <u a3\n 69270: s0 = a5 + a0\n 69273: a1 = s0 <u a5\n 69276: a1 = a0 if a0 == 0\n 69279: a1 = a1 + a2\n 69282: u64 [sp + 0xc8] = a1\n 69286: a0 = a1 <u a2\n 69289: a0 = a0 + a4\n 69292: u64 [sp + 0xd8] = a0\n 69296: i32 t2 = t2 + 0\n 69298: u64 [sp + 0xd0] = t2\n 69302: i32 a0 = s1 + 0\n 69304: a1 = i32 [sp + 0xe0]\n 69308: u64 [sp + 0xc0] = a1\n 69312: ra = 832, jump @0\n      : @928 [@dyn 416] (gas: 5)\n 69319: i32 a0 = a0 + 0\n 69321: a1 = u64 [sp + 0xc0]\n 69325: a2 = u64 [sp + 0xd0]\n 69329: ecalli 2 // 'call_data_copy'\n 69331: fallthrough\n      : @929 (gas: 30)\n 69332: a0 = u64 [sp + 0xe0]\n 69336: a0 = a0 + s1\n 69339: u64 [sp + 0xc0] = s1\n 69343: a1 = a0 <u s1\n 69346: a2 = u64 [sp + 0x70]\n 69349: a2 = a2 + s0\n 69352: a2 = a2 + a1\n 69355: a3 = a2 ^ s0\n 69358: u64 [sp + 0xd0] = s0\n 69362: a4 = a2 <u s0\n 69365: s0 = u64 [sp + 0xc8]\n 69369: a4 = a1 if a3 == 0\n 69372: a1 = u64 [sp + 0x78]\n 69375: a1 = a1 + s0\n 69378: a4 = a4 + a1\n 69381: a3 = a4 <u a1\n 69384: a1 = a1 <u s0\n 69387: a5 = u64 [sp + 0x80]\n 69391: s1 = u64 [sp + 0xd8]\n 69395: a5 = a5 + s1\n 69398: a1 = a1 + a5\n 69401: a1 = a1 + a3\n 69404: a3 = a0 | a4\n 69407: a1 = a1 | a2\n 69410: a3 = a3 | a1\n 69413: a3 = a3 >> 0x20\n 69416: a1 = a1 | a4\n 69419: a1 = a1 << 0x20\n 69422: a1 = a1 | a3\n 69425: jump @933 if a1 != 0\n      : @930 (gas: 3)\n 69429: i32 a0 = a0 + 0\n 69431: a1 = 0x20\n 69434: ra = 834, jump @0\n      : @931 [@dyn 417] (gas: 57)\n 69441: u8 [a0 + 31] = 0\n 69444: u8 [a0 + 30] = 0\n 69447: u8 [a0 + 29] = 0\n 69450: u8 [a0 + 28] = 0\n 69453: u8 [a0 + 27] = 0\n 69456: u8 [a0 + 26] = 0\n 69459: u8 [a0 + 25] = 0\n 69462: u8 [a0 + 24] = 0\n 69465: u8 [a0 + 23] = 0\n 69468: u8 [a0 + 22] = 0\n 69471: u8 [a0 + 21] = 0\n 69474: u8 [a0 + 20] = 0\n 69477: u8 [a0 + 19] = 0\n 69480: u8 [a0 + 18] = 0\n 69483: u8 [a0 + 17] = 0\n 69486: u8 [a0 + 16] = 0\n 69489: u8 [a0 + 15] = 0\n 69492: u8 [a0 + 14] = 0\n 69495: u8 [a0 + 13] = 0\n 69498: u8 [a0 + 12] = 0\n 69501: u8 [a0 + 11] = 0\n 69504: u8 [a0 + 10] = 0\n 69507: u8 [a0 + 9] = 0\n 69510: u8 [a0 + 8] = 0\n 69513: u8 [a0 + 7] = 0\n 69516: u8 [a0 + 6] = 0\n 69519: u8 [a0 + 5] = 0\n 69522: u8 [a0 + 4] = 0\n 69525: u8 [a0 + 3] = 0\n 69528: u8 [a0 + 2] = 0\n 69531: u8 [a0 + 1] = 0\n 69534: u8 [a0 + 0] = 0\n 69536: a0 = u64 [sp + 0xe0]\n 69540: a0 = a0 + 0x1f\n 69543: a1 = u64 [sp + 0x60]\n 69546: a0 = a0 & a1\n 69549: a1 = u64 [sp + 0xc0]\n 69553: a0 = a0 + a1\n 69556: u64 [sp + 0xe0] = a0\n 69560: a0 = a0 <u a1\n 69563: a1 = u64 [sp + 0xd0]\n 69567: a2 = a1 + a0\n 69570: u64 [sp + 0xc0] = a2\n 69574: s1 = a2 <u a1\n 69577: s1 = a0 if a0 == 0\n 69580: s1 = s1 + s0\n 69583: a0 = s1 <u s0\n 69586: a1 = u64 [sp + 0xd8]\n 69590: a0 = a0 + a1\n 69593: u64 [sp + 0xd8] = a0\n 69597: a0 = u64 [sp]\n 69599: a0 = a0 << 0x20\n 69602: s0 = a0 >> 0x20\n 69605: a0 = u64 [sp + 0x88]\n 69609: i32 a0 = a0 + 0x40\n 69612: a1 = 0x20\n 69615: ra = 836, jump @0\n      : @932 [@dyn 418] (gas: 68)\n 69622: a1 = reverse s0\n 69624: a2 = u64 [sp + 0x8]\n 69627: a2 = reverse a2\n 69629: a3 = u64 [sp + 0x10]\n 69632: a3 = reverse a3\n 69634: a4 = a3 >> 0x38\n 69637: u8 [a0 + 0x1f] = a4\n 69640: a4 = a3 >> 0x30\n 69643: u8 [a0 + 0x1e] = a4\n 69646: a4 = a3 >> 0x28\n 69649: u8 [a0 + 0x1d] = a4\n 69652: a4 = a3 >> 0x20\n 69655: u8 [a0 + 0x1c] = a4\n 69658: a4 = a3 >> 0x18\n 69661: u8 [a0 + 0x1b] = a4\n 69664: a4 = a3 >> 0x10\n 69667: u8 [a0 + 0x1a] = a4\n 69670: a4 = a3 >> 0x8\n 69673: u8 [a0 + 0x19] = a4\n 69676: u8 [a0 + 0x18] = a3\n 69679: a3 = a2 >> 0x38\n 69682: u8 [a0 + 0x17] = a3\n 69685: a3 = a2 >> 0x30\n 69688: u8 [a0 + 0x16] = a3\n 69691: a3 = a2 >> 0x28\n 69694: u8 [a0 + 0x15] = a3\n 69697: a3 = a2 >> 0x20\n 69700: u8 [a0 + 0x14] = a3\n 69703: a3 = a2 >> 0x18\n 69706: u8 [a0 + 0x13] = a3\n 69709: a3 = a2 >> 0x10\n 69712: u8 [a0 + 0x12] = a3\n 69715: a3 = a2 >> 0x8\n 69718: u8 [a0 + 0x11] = a3\n 69721: u8 [a0 + 0x10] = a2\n 69724: u8 [a0 + 11] = 0\n 69727: u8 [a0 + 10] = 0\n 69730: u8 [a0 + 9] = 0\n 69733: u8 [a0 + 0x8] = a1\n 69736: u8 [a0 + 7] = 0\n 69739: u8 [a0 + 6] = 0\n 69742: u8 [a0 + 5] = 0\n 69745: u8 [a0 + 4] = 0\n 69748: u8 [a0 + 3] = 0\n 69751: u8 [a0 + 2] = 0\n 69754: u8 [a0 + 1] = 0\n 69757: u8 [a0 + 0] = 0\n 69759: a2 = a1 >> 0x38\n 69762: u8 [a0 + 0xf] = a2\n 69765: a2 = a1 >> 0x30\n 69768: u8 [a0 + 0xe] = a2\n 69771: a2 = a1 >> 0x28\n 69774: u8 [a0 + 0xd] = a2\n 69777: a1 = a1 >> 0x20\n 69780: u8 [a0 + 0xc] = a1\n 69783: a0 = u64 [sp + 0x18]\n 69786: a1 = u64 [sp + 0xe0]\n 69790: u64 [a0] = a1\n 69792: a1 = u64 [sp + 0xc0]\n 69796: u64 [a0 + 0x8] = a1\n 69799: u64 [a0 + 0x10] = s1\n 69802: a1 = u64 [sp + 0xd8]\n 69806: u64 [a0 + 0x18] = a1\n 69809: ra = u64 [sp + 0xf8]\n 69813: s0 = u64 [sp + 0xf0]\n 69817: s1 = u64 [sp + 0xe8]\n 69821: sp = sp + 0x100\n 69825: ret\n      : @933 (gas: 1)\n 69827: trap\n      : @934 (gas: 14)\n 69828: sp = sp + 0xfffffffffffffc40\n 69832: u64 [sp + 0x3b8] = ra\n 69836: u64 [sp + 0x3b0] = s0\n 69840: u64 [sp + 0x3a8] = s1\n 69844: s0 = sp + 0x3c0\n 69848: sp = sp & 0xffffffffffffffe0\n 69851: t0 = u64 [a4 + 0x10]\n 69854: ra = u64 [a4 + 0x18]\n 69857: t2 = u64 [a4 + 0x8]\n 69860: a4 = u64 [a4]\n 69862: t1 = t2 | ra\n 69865: s1 = a4 | t0\n 69868: s1 = s1 | t1\n 69871: jump @947 if s1 == 0\n      : @935 (gas: 16)\n 69875: u64 [sp + 0xe0] = ra\n 69879: u64 [sp + 0xe8] = t2\n 69883: u64 [sp + 0xf0] = a4\n 69887: u64 [sp + 0xf8] = t0\n 69891: a4 = u64 [a5 + 0x10]\n 69894: t0 = u64 [a5 + 0x8]\n 69897: t1 = u64 [a5]\n 69899: u64 [sp + 0x50] = a4\n 69902: a4 = a4 << 0x20\n 69905: s1 = a4 >> 0x20\n 69908: u64 [sp + 0xd8] = t1\n 69912: u64 [sp + 0xd0] = t0\n 69916: a4 = t1 | t0\n 69919: u64 [sp + 0x48] = s1\n 69922: a4 = a4 | s1\n 69925: jump @952 if a4 == 0\n      : @936 (gas: 36)\n 69929: a4 = u64 [a5 + 0x18]\n 69932: u64 [sp + 0x40] = a4\n 69935: a4 = u64 [a3 + 0x18]\n 69938: u64 [sp + 0x70] = a4\n 69941: a4 = u64 [a3 + 0x10]\n 69944: u64 [sp + 0x78] = a4\n 69947: a4 = u64 [a3 + 0x8]\n 69950: u64 [sp + 0x80] = a4\n 69954: a3 = u64 [a3]\n 69956: u64 [sp + 0x88] = a3\n 69960: a3 = u64 [a2 + 0x18]\n 69963: u64 [sp + 0x90] = a3\n 69967: a3 = u64 [a2 + 0x10]\n 69970: u64 [sp + 0x98] = a3\n 69974: a3 = u64 [a2 + 0x8]\n 69977: u64 [sp + 0xa0] = a3\n 69981: a2 = u64 [a2]\n 69983: u64 [sp + 0xa8] = a2\n 69987: a2 = u64 [a1 + 0x18]\n 69990: u64 [sp + 0xb0] = a2\n 69994: a2 = u64 [a1 + 0x10]\n 69997: u64 [sp + 0xb8] = a2\n 70001: a2 = u64 [a1 + 0x8]\n 70004: u64 [sp + 0xc0] = a2\n 70008: a1 = u64 [a1]\n 70010: u64 [sp + 0xc8] = a1\n 70014: s1 = u64 [a0 + 0x18]\n 70017: a1 = u64 [a0 + 0x10]\n 70020: u64 [sp + 0x58] = a1\n 70023: a1 = u64 [a0 + 0x8]\n 70026: u64 [sp + 0x60] = a1\n 70029: a0 = u64 [a0]\n 70031: u64 [sp + 0x68] = a0\n 70034: a1 = 0x20\n 70037: a0 = 0\n 70039: ra = 838, jump @0\n      : @937 [@dyn 419] (gas: 74)\n 70046: a2 = reverse s1\n 70048: a1 = u64 [sp + 0x58]\n 70051: a3 = reverse a1\n 70053: a1 = u64 [sp + 0x60]\n 70056: a5 = reverse a1\n 70058: a1 = u64 [sp + 0x68]\n 70061: a4 = reverse a1\n 70063: a1 = a4 >> 0x38\n 70066: u8 [a0 + 0x1f] = a1\n 70069: a1 = a4 >> 0x30\n 70072: u8 [a0 + 0x1e] = a1\n 70075: a1 = a4 >> 0x28\n 70078: u8 [a0 + 0x1d] = a1\n 70081: a1 = a4 >> 0x20\n 70084: u8 [a0 + 0x1c] = a1\n 70087: a1 = a4 >> 0x18\n 70090: u8 [a0 + 0x1b] = a1\n 70093: a1 = a4 >> 0x10\n 70096: u8 [a0 + 0x1a] = a1\n 70099: a1 = a4 >> 0x8\n 70102: u8 [a0 + 0x19] = a1\n 70105: u64 [sp + 0x18] = a4\n 70108: u8 [a0 + 0x18] = a4\n 70111: u8 [a0 + 0x10] = a5\n 70114: a1 = a5 >> 0x38\n 70117: u8 [a0 + 0x17] = a1\n 70120: a1 = a5 >> 0x30\n 70123: u8 [a0 + 0x16] = a1\n 70126: a1 = a5 >> 0x28\n 70129: u8 [a0 + 0x15] = a1\n 70132: a1 = a5 >> 0x20\n 70135: u8 [a0 + 0x14] = a1\n 70138: a1 = a5 >> 0x18\n 70141: u8 [a0 + 0x13] = a1\n 70144: a1 = a5 >> 0x10\n 70147: u8 [a0 + 0x12] = a1\n 70150: u64 [sp + 0x10] = a5\n 70153: a1 = a5 >> 0x8\n 70156: u8 [a0 + 0x11] = a1\n 70159: u8 [a0 + 0x8] = a3\n 70162: a1 = a3 >> 0x38\n 70165: u8 [a0 + 0xf] = a1\n 70168: a1 = a3 >> 0x30\n 70171: u8 [a0 + 0xe] = a1\n 70174: a1 = a3 >> 0x28\n 70177: u8 [a0 + 0xd] = a1\n 70180: a1 = a3 >> 0x20\n 70183: u8 [a0 + 0xc] = a1\n 70186: a1 = a3 >> 0x18\n 70189: u8 [a0 + 0xb] = a1\n 70192: a1 = a3 >> 0x10\n 70195: u8 [a0 + 0xa] = a1\n 70198: u64 [sp + 0x20] = a3\n 70201: a1 = a3 >> 0x8\n 70204: u8 [a0 + 0x9] = a1\n 70207: u8 [a0] = a2\n 70209: a1 = a2 >> 0x38\n 70212: u8 [a0 + 0x7] = a1\n 70215: a1 = a2 >> 0x30\n 70218: u8 [a0 + 0x6] = a1\n 70221: a1 = a2 >> 0x28\n 70224: u8 [a0 + 0x5] = a1\n 70227: a1 = a2 >> 0x20\n 70230: u8 [a0 + 0x4] = a1\n 70233: a1 = a2 >> 0x18\n 70236: u8 [a0 + 0x3] = a1\n 70239: a1 = a2 >> 0x10\n 70242: u8 [a0 + 0x2] = a1\n 70245: u64 [sp + 0x28] = a2\n 70248: a1 = a2 >> 0x8\n 70251: u8 [a0 + 0x1] = a1\n 70254: a0 = 0x20\n 70257: a1 = 0x20\n 70260: ra = 840, jump @0\n      : @938 [@dyn 420] (gas: 35)\n 70267: u8 [a0 + 31] = 0\n 70270: u8 [a0 + 30] = 0\n 70273: u8 [a0 + 29] = 0\n 70276: u8 [a0 + 28] = 0\n 70279: u8 [a0 + 27] = 0\n 70282: u8 [a0 + 26] = 0\n 70285: u8 [a0 + 25] = 0\n 70288: u8 [a0 + 24] = 0\n 70291: u8 [a0 + 23] = 0\n 70294: u8 [a0 + 22] = 0\n 70297: u8 [a0 + 21] = 0\n 70300: u8 [a0 + 20] = 0\n 70303: u8 [a0 + 19] = 0\n 70306: u8 [a0 + 18] = 0\n 70309: u8 [a0 + 17] = 0\n 70312: u8 [a0 + 16] = 0\n 70315: u8 [a0 + 15] = 0\n 70318: u8 [a0 + 14] = 0\n 70321: u8 [a0 + 13] = 0\n 70324: u8 [a0 + 12] = 0\n 70327: u8 [a0 + 11] = 0\n 70330: u8 [a0 + 10] = 0\n 70333: u8 [a0 + 9] = 0\n 70336: u8 [a0 + 8] = 0\n 70339: u8 [a0 + 7] = 0\n 70342: u8 [a0 + 6] = 0\n 70345: u8 [a0 + 5] = 0\n 70348: u8 [a0 + 4] = 0\n 70351: u8 [a0 + 3] = 0\n 70354: u8 [a0 + 2] = 0\n 70357: u8 [a0 + 1] = 0\n 70360: u8 [a0 + 0] = 0\n 70362: a1 = 0x40\n 70365: a0 = 0\n 70367: ra = 842, jump @0\n      : @939 [@dyn 421] (gas: 47)\n 70374: i32 a0 = a0 + 0\n 70376: i32 a2 = sp + 0x360\n 70380: a1 = 0x40\n 70383: ecalli 8 // 'hash_keccak_256'\n 70385: a0 = u64 [sp + 0x360]\n 70389: a1 = u64 [sp + 0x368]\n 70393: a2 = u64 [sp + 0x370]\n 70397: a3 = u64 [sp + 0x378]\n 70401: a4 = reverse a0\n 70403: u64 [sp + 0x68] = a4\n 70406: a5 = reverse a1\n 70408: u64 [sp + 0x58] = a5\n 70411: a2 = reverse a2\n 70413: u64 [sp + 0x60] = a2\n 70416: s1 = reverse a3\n 70418: t0 = s1 + 0x2\n 70421: a1 = t0 <u s1\n 70424: a0 = a2 + a1\n 70427: a3 = a0 <u a2\n 70430: a3 = a1 if a1 == 0\n 70433: a3 = a3 + a5\n 70436: a1 = a3 <u a5\n 70439: a4 = a4 + a1\n 70442: a1 = u64 [sp + 0x90]\n 70446: u64 [sp + 0x2d8] = a1\n 70450: a1 = u64 [sp + 0x98]\n 70454: u64 [sp + 0x2d0] = a1\n 70458: a1 = u64 [sp + 0xa0]\n 70462: u64 [sp + 0x2c8] = a1\n 70466: a1 = u64 [sp + 0xa8]\n 70470: u64 [sp + 0x2c0] = a1\n 70474: a1 = u64 [sp + 0xb0]\n 70478: u64 [sp + 0x2f8] = a1\n 70482: a1 = u64 [sp + 0xb8]\n 70486: u64 [sp + 0x2f0] = a1\n 70490: a1 = u64 [sp + 0xc0]\n 70494: u64 [sp + 0x2e8] = a1\n 70498: a1 = u64 [sp + 0xc8]\n 70502: u64 [sp + 0x2e0] = a1\n 70506: u64 [sp + 0x300] = t0\n 70510: u64 [sp + 0x308] = a0\n 70514: u64 [sp + 0x310] = a3\n 70518: a0 = sp + 0x300\n 70522: a1 = sp + 0x2e0\n 70526: a2 = sp + 0x2c0\n 70530: u64 [sp + 0x318] = a4\n 70534: ra = 844, jump @876\n      : @940 [@dyn 422] (gas: 35)\n 70540: a3 = s1 + 0x3\n 70543: a0 = a3 <u s1\n 70546: a2 = u64 [sp + 0x60]\n 70549: a1 = a2 + a0\n 70552: a2 = a1 <u a2\n 70555: a2 = a0 if a0 == 0\n 70558: a0 = u64 [sp + 0x58]\n 70561: a2 = a2 + a0\n 70564: a0 = a2 <u a0\n 70567: a4 = u64 [sp + 0x68]\n 70570: a0 = a0 + a4\n 70573: a4 = u64 [sp + 0xe0]\n 70577: u64 [sp + 0x278] = a4\n 70581: a4 = u64 [sp + 0xf8]\n 70585: u64 [sp + 0x270] = a4\n 70589: a4 = u64 [sp + 0xe8]\n 70593: u64 [sp + 0x268] = a4\n 70597: a4 = u64 [sp + 0xf0]\n 70601: u64 [sp + 0x260] = a4\n 70605: a4 = u64 [sp + 0x70]\n 70608: u64 [sp + 0x298] = a4\n 70612: a4 = u64 [sp + 0x78]\n 70615: u64 [sp + 0x290] = a4\n 70619: a4 = u64 [sp + 0x80]\n 70623: u64 [sp + 0x288] = a4\n 70627: a4 = u64 [sp + 0x88]\n 70631: u64 [sp + 0x280] = a4\n 70635: u64 [sp + 0x2b8] = a0\n 70639: u64 [sp + 0x2b0] = a2\n 70643: u64 [sp + 0x2a8] = a1\n 70647: a0 = sp + 0x2a0\n 70651: a1 = sp + 0x280\n 70655: a2 = sp + 0x260\n 70659: u64 [sp + 0x2a0] = a3\n 70663: ra = 846, jump @876\n      : @941 [@dyn 423] (gas: 57)\n 70669: a1 = s1 + 0x4\n 70672: a0 = a1 <u s1\n 70675: a2 = a1\n 70677: u64 [sp + 0x38] = a1\n 70680: a1 = u64 [sp + 0x60]\n 70683: a3 = a1 + a0\n 70686: u64 [sp + 0x30] = a3\n 70689: s1 = a3 <u a1\n 70692: s1 = a0 if a0 == 0\n 70695: a0 = u64 [sp + 0x58]\n 70698: s1 = s1 + a0\n 70701: a0 = s1 <u a0\n 70704: a1 = u64 [sp + 0x68]\n 70707: a0 = a0 + a1\n 70710: u64 [sp + 0x68] = a0\n 70713: u64 [sp + 0x358] = a0\n 70717: u64 [sp + 0x350] = s1\n 70721: u64 [sp + 0x348] = a3\n 70725: u64 [sp + 0x340] = a2\n 70729: u64 [sp + 888] = 0\n 70733: u64 [sp + 880] = 0\n 70737: u64 [sp + 872] = 0\n 70741: u64 [sp + 864] = 0\n 70745: u32 [sp + 800] = 0x20\n 70750: i32 a1 = sp + 0x340\n 70754: i32 a3 = sp + 0x360\n 70758: i32 a4 = sp + 0x320\n 70762: a2 = 0xffffffffffffffff\n 70765: a0 = 0\n 70767: ecalli 7 // 'get_storage'\n 70769: a0 = u32 [sp + 0x374]\n 70773: a0 = a0 << 0x20\n 70776: a1 = u64 [sp + 0x378]\n 70780: a2 = u64 [sp + 0x48]\n 70783: a0 = a0 | a2\n 70786: a2 = u64 [sp + 0x68]\n 70789: u64 [sp + 0x358] = a2\n 70793: u64 [sp + 0x350] = s1\n 70797: a2 = u64 [sp + 0x30]\n 70800: u64 [sp + 0x348] = a2\n 70804: a2 = u64 [sp + 0x38]\n 70807: u64 [sp + 0x340] = a2\n 70811: u64 [sp + 0x378] = a1\n 70815: u64 [sp + 0x370] = a0\n 70819: a0 = u64 [sp + 0xd0]\n 70823: u64 [sp + 0x368] = a0\n 70827: a0 = u64 [sp + 0xd8]\n 70831: u64 [sp + 0x360] = a0\n 70835: i32 a1 = sp + 0x340\n 70839: i32 a3 = sp + 0x360\n 70843: a2 = 0xffffffffffffffff\n 70846: a4 = 0x20\n 70849: a0 = 0\n 70851: ecalli 15 // 'set_storage'\n 70853: a0 = 0x40\n 70856: a1 = 0x20\n 70859: ra = 848, jump @0\n      : @942 [@dyn 424] (gas: 148)\n 70866: a1 = u8 [a0 + 0x1]\n 70869: a2 = u8 [a0]\n 70871: a3 = u8 [a0 + 0x2]\n 70874: a4 = u8 [a0 + 0x3]\n 70877: a1 = a1 << 0x8\n 70880: a1 = a1 | a2\n 70883: a3 = a3 << 0x10\n 70886: a4 = a4 << 0x18\n 70889: a3 = a3 | a4\n 70892: a1 = a1 | a3\n 70895: a2 = u8 [a0 + 0x5]\n 70898: a3 = u8 [a0 + 0x4]\n 70901: a4 = u8 [a0 + 0x6]\n 70904: a5 = u8 [a0 + 0x7]\n 70907: a2 = a2 << 0x8\n 70910: a2 = a2 | a3\n 70913: a4 = a4 << 0x10\n 70916: a5 = a5 << 0x18\n 70919: a4 = a4 | a5\n 70922: a2 = a2 | a4\n 70925: a2 = a2 << 0x20\n 70928: t0 = a2 | a1\n 70931: a2 = u8 [a0 + 0x9]\n 70934: a3 = u8 [a0 + 0x8]\n 70937: a4 = u8 [a0 + 0xa]\n 70940: a5 = u8 [a0 + 0xb]\n 70943: a2 = a2 << 0x8\n 70946: a2 = a2 | a3\n 70949: a4 = a4 << 0x10\n 70952: a5 = a5 << 0x18\n 70955: a4 = a4 | a5\n 70958: a2 = a2 | a4\n 70961: a3 = u8 [a0 + 0xd]\n 70964: a4 = u8 [a0 + 0xc]\n 70967: a5 = u8 [a0 + 0xe]\n 70970: s1 = u8 [a0 + 0xf]\n 70973: a3 = a3 << 0x8\n 70976: a3 = a3 | a4\n 70979: a5 = a5 << 0x10\n 70982: s1 = s1 << 0x18\n 70985: a5 = a5 | s1\n 70988: a3 = a3 | a5\n 70991: a3 = a3 << 0x20\n 70994: a2 = a2 | a3\n 70997: a3 = u8 [a0 + 0x11]\n 71000: a4 = u8 [a0 + 0x10]\n 71003: a5 = u8 [a0 + 0x12]\n 71006: s1 = u8 [a0 + 0x13]\n 71009: a3 = a3 << 0x8\n 71012: a3 = a3 | a4\n 71015: a5 = a5 << 0x10\n 71018: s1 = s1 << 0x18\n 71021: a5 = a5 | s1\n 71024: a3 = a3 | a5\n 71027: a4 = u8 [a0 + 0x15]\n 71030: a5 = u8 [a0 + 0x14]\n 71033: s1 = u8 [a0 + 0x16]\n 71036: a1 = u8 [a0 + 0x17]\n 71039: a4 = a4 << 0x8\n 71042: a4 = a4 | a5\n 71045: s1 = s1 << 0x10\n 71048: a1 = a1 << 0x18\n 71051: a1 = a1 | s1\n 71054: a1 = a1 | a4\n 71057: a1 = a1 << 0x20\n 71060: a3 = a3 | a1\n 71063: a1 = u8 [a0 + 0x19]\n 71066: a4 = u8 [a0 + 0x18]\n 71069: a5 = u8 [a0 + 0x1a]\n 71072: s1 = u8 [a0 + 0x1b]\n 71075: a1 = a1 << 0x8\n 71078: a1 = a1 | a4\n 71081: a5 = a5 << 0x10\n 71084: s1 = s1 << 0x18\n 71087: a5 = a5 | s1\n 71090: a1 = a1 | a5\n 71093: a4 = u8 [a0 + 0x1d]\n 71096: a5 = u8 [a0 + 0x1c]\n 71099: s1 = u8 [a0 + 0x1e]\n 71102: a0 = u8 [a0 + 0x1f]\n 71105: a4 = a4 << 0x8\n 71108: a4 = a4 | a5\n 71111: s1 = s1 << 0x10\n 71114: a0 = a0 << 0x18\n 71117: a0 = a0 | s1\n 71120: a0 = a0 | a4\n 71123: a0 = a0 << 0x20\n 71126: a0 = a0 | a1\n 71129: t1 = reverse a0\n 71131: u64 [sp + 0x58] = t1\n 71134: a1 = reverse a3\n 71136: u64 [sp + 0x60] = a1\n 71139: s1 = reverse a2\n 71141: a2 = reverse t0\n 71143: u64 [sp + 0x68] = a2\n 71146: a0 = sp + 0x180\n 71150: u64 [sp] = a0\n 71152: a0 = u64 [sp + 0x40]\n 71155: u64 [sp + 0x198] = a0\n 71159: a0 = u64 [sp + 0x50]\n 71162: u64 [sp + 0x190] = a0\n 71166: a0 = u64 [sp + 0xd0]\n 71170: u64 [sp + 0x188] = a0\n 71174: a0 = u64 [sp + 0xd8]\n 71178: u64 [sp + 0x180] = a0\n 71182: a0 = u64 [sp + 0xe0]\n 71186: u64 [sp + 0x1b8] = a0\n 71190: a0 = u64 [sp + 0xf8]\n 71194: u64 [sp + 0x1b0] = a0\n 71198: a0 = u64 [sp + 0xe8]\n 71202: u64 [sp + 0x1a8] = a0\n 71206: a0 = u64 [sp + 0xf0]\n 71210: u64 [sp + 0x1a0] = a0\n 71214: a0 = u64 [sp + 0x70]\n 71217: u64 [sp + 0x1d8] = a0\n 71221: a0 = u64 [sp + 0x78]\n 71224: u64 [sp + 0x1d0] = a0\n 71228: a0 = u64 [sp + 0x80]\n 71232: u64 [sp + 0x1c8] = a0\n 71236: a0 = u64 [sp + 0x88]\n 71240: u64 [sp + 0x1c0] = a0\n 71244: a0 = u64 [sp + 0x90]\n 71248: u64 [sp + 0x1f8] = a0\n 71252: a0 = u64 [sp + 0x98]\n 71256: u64 [sp + 0x1f0] = a0\n 71260: a0 = u64 [sp + 0xa0]\n 71264: u64 [sp + 0x1e8] = a0\n 71268: a0 = u64 [sp + 0xa8]\n 71272: u64 [sp + 0x1e0] = a0\n 71276: a0 = u64 [sp + 0xb0]\n 71280: u64 [sp + 0x218] = a0\n 71284: a0 = u64 [sp + 0xb8]\n 71288: u64 [sp + 0x210] = a0\n 71292: a0 = u64 [sp + 0xc0]\n 71296: u64 [sp + 0x208] = a0\n 71300: a0 = u64 [sp + 0xc8]\n 71304: u64 [sp + 0x200] = a0\n 71308: u64 [sp + 0x238] = a2\n 71312: u64 [sp + 0x230] = s1\n 71316: u64 [sp + 0x228] = a1\n 71320: a0 = sp + 0x240\n 71324: a1 = sp + 0x220\n 71328: a2 = sp + 0x200\n 71332: a3 = sp + 0x1e0\n 71336: a4 = sp + 0x1c0\n 71340: a5 = sp + 0x1a0\n 71344: u64 [sp + 0x220] = t1\n 71348: ra = 850, jump @910\n      : @943 [@dyn 425] (gas: 11)\n 71354: a2 = u64 [sp + 0x60]\n 71357: t1 = u64 [sp + 0x58]\n 71360: a0 = u64 [sp + 0x68]\n 71363: a0 = a0 | a2\n 71366: a1 = t1 | s1\n 71369: a1 = a1 | a0\n 71372: a1 = a1 >> 0x20\n 71375: a0 = a0 | s1\n 71378: a0 = a0 << 0x20\n 71381: a0 = a0 | a1\n 71384: jump @958 if a0 != 0\n      : @944 (gas: 27)\n 71388: a0 = u64 [sp + 0x248]\n 71392: t0 = u64 [sp + 0x258]\n 71396: t2 = u64 [sp + 0x240]\n 71400: a3 = u64 [sp + 0x250]\n 71404: a4 = a0 ^ a2\n 71407: a5 = a0 <u a2\n 71410: a1 = t2 <u t1\n 71413: a5 = a1 if a4 == 0\n 71416: a4 = a3 - s1\n 71419: ra = a4 - a5\n 71422: a4 = a4 <u a5\n 71425: a3 = a3 <u s1\n 71428: a5 = u64 [sp + 0x68]\n 71431: a5 = t0 - a5\n 71434: a5 = a5 - a3\n 71437: a5 = a5 - a4\n 71440: a0 = a0 - a2\n 71443: a0 = a0 - a1\n 71446: s1 = t2 - t1\n 71449: a0 = a0 | a5\n 71452: a1 = s1 | ra\n 71455: a1 = a1 | a0\n 71458: a0 = a0 | ra\n 71461: a1 = a1 >> 0x20\n 71464: a0 = a0 << 0x20\n 71467: a0 = a0 | a1\n 71470: jump @958 if a0 != 0\n      : @945 (gas: 4)\n 71474: i32 a0 = t1 + 0\n 71476: i32 s1 = s1 + 0\n 71478: a1 = s1\n 71480: ra = 852, jump @0\n      : @946 [@dyn 426] (gas: 27)\n 71487: a1 = u64 [0x20040]\n 71492: a2 = u64 [0x20048]\n 71497: a3 = u64 [0x20050]\n 71502: a4 = u64 [0x20058]\n 71507: u64 [sp + 0x378] = a1\n 71511: u64 [sp + 0x370] = a2\n 71515: u64 [sp + 0x368] = a3\n 71519: u64 [sp + 0x360] = a4\n 71523: a1 = u64 [sp + 0x10]\n 71526: u64 [sp + 0x390] = a1\n 71530: a1 = u64 [sp + 0x20]\n 71533: u64 [sp + 0x388] = a1\n 71537: a1 = u64 [sp + 0x28]\n 71540: u64 [sp + 0x380] = a1\n 71544: a1 = u64 [sp + 0x18]\n 71547: u64 [sp + 0x398] = a1\n 71551: i32 a2 = a0 + 0\n 71553: i32 a0 = sp + 0x360\n 71557: a1 = 0x2\n 71560: a3 = s1\n 71562: ecalli 6 // 'deposit_event'\n 71564: sp = s0 + 0xfffffffffffffc40\n 71568: ra = u64 [sp + 0x3b8]\n 71572: s0 = u64 [sp + 0x3b0]\n 71576: s1 = u64 [sp + 0x3a8]\n 71580: sp = sp + 0x3c0\n 71584: ret\n      : @947 (gas: 3)\n 71586: a0 = 0x40\n 71589: a1 = 0x20\n 71592: ra = 854, jump @0\n      : @948 [@dyn 427] (gas: 103)\n 71599: a1 = u8 [a0 + 0x11]\n 71602: a2 = u8 [a0 + 0x10]\n 71605: a3 = u8 [a0 + 0x12]\n 71608: a4 = u8 [a0 + 0x13]\n 71611: a1 = a1 << 0x8\n 71614: a1 = a1 | a2\n 71617: a3 = a3 << 0x10\n 71620: a4 = a4 << 0x18\n 71623: a3 = a3 | a4\n 71626: a1 = a1 | a3\n 71629: a2 = u8 [a0 + 0x15]\n 71632: a3 = u8 [a0 + 0x14]\n 71635: a4 = u8 [a0 + 0x16]\n 71638: a5 = u8 [a0 + 0x17]\n 71641: a2 = a2 << 0x8\n 71644: a2 = a2 | a3\n 71647: a4 = a4 << 0x10\n 71650: a5 = a5 << 0x18\n 71653: a4 = a4 | a5\n 71656: a2 = a2 | a4\n 71659: a2 = a2 << 0x20\n 71662: t0 = a2 | a1\n 71665: a2 = u8 [a0 + 0x1]\n 71668: a3 = u8 [a0]\n 71670: a4 = u8 [a0 + 0x2]\n 71673: a5 = u8 [a0 + 0x3]\n 71676: a2 = a2 << 0x8\n 71679: a2 = a2 | a3\n 71682: a4 = a4 << 0x10\n 71685: a5 = a5 << 0x18\n 71688: a4 = a4 | a5\n 71691: a2 = a2 | a4\n 71694: a3 = u8 [a0 + 0x5]\n 71697: a4 = u8 [a0 + 0x4]\n 71700: a5 = u8 [a0 + 0x6]\n 71703: s1 = u8 [a0 + 0x7]\n 71706: a3 = a3 << 0x8\n 71709: a3 = a3 | a4\n 71712: a5 = a5 << 0x10\n 71715: s1 = s1 << 0x18\n 71718: a5 = a5 | s1\n 71721: a3 = a3 | a5\n 71724: a3 = a3 << 0x20\n 71727: a2 = a2 | a3\n 71730: a3 = u8 [a0 + 0x19]\n 71733: a4 = u8 [a0 + 0x18]\n 71736: a5 = u8 [a0 + 0x1a]\n 71739: s1 = u8 [a0 + 0x1b]\n 71742: a3 = a3 << 0x8\n 71745: a3 = a3 | a4\n 71748: a5 = a5 << 0x10\n 71751: s1 = s1 << 0x18\n 71754: a5 = a5 | s1\n 71757: a3 = a3 | a5\n 71760: a4 = u8 [a0 + 0x1d]\n 71763: a5 = u8 [a0 + 0x1c]\n 71766: s1 = u8 [a0 + 0x1e]\n 71769: a1 = u8 [a0 + 0x1f]\n 71772: a4 = a4 << 0x8\n 71775: a4 = a4 | a5\n 71778: s1 = s1 << 0x10\n 71781: a1 = a1 << 0x18\n 71784: a1 = a1 | s1\n 71787: a1 = a1 | a4\n 71790: a1 = a1 << 0x20\n 71793: a3 = a3 | a1\n 71796: a1 = u8 [a0 + 0x9]\n 71799: a4 = u8 [a0 + 0x8]\n 71802: a5 = u8 [a0 + 0xa]\n 71805: s1 = u8 [a0 + 0xb]\n 71808: a1 = a1 << 0x8\n 71811: a1 = a1 | a4\n 71814: a5 = a5 << 0x10\n 71817: s1 = s1 << 0x18\n 71820: a5 = a5 | s1\n 71823: a1 = a1 | a5\n 71826: a4 = u8 [a0 + 0xd]\n 71829: a5 = u8 [a0 + 0xc]\n 71832: s1 = u8 [a0 + 0xe]\n 71835: a0 = u8 [a0 + 0xf]\n 71838: a4 = a4 << 0x8\n 71841: a4 = a4 | a5\n 71844: s1 = s1 << 0x10\n 71847: a0 = a0 << 0x18\n 71850: a0 = a0 | s1\n 71853: a0 = a0 | a4\n 71856: a0 = a0 << 0x20\n 71859: a0 = a0 | a1\n 71862: s1 = reverse a0\n 71864: a1 = reverse a3\n 71866: a2 = reverse a2\n 71868: a0 = reverse t0\n 71870: u64 [sp + 0xf8] = a0\n 71874: u64 [sp + 0xf0] = a2\n 71878: a0 = a0 | a2\n 71881: a2 = a1\n 71883: a1 = a1 | s1\n 71886: a1 = a1 | a0\n 71889: a1 = a1 >> 0x20\n 71892: a0 = a0 | s1\n 71895: a0 = a0 << 0x20\n 71898: a0 = a0 | a1\n 71901: jump @958 if a0 != 0\n      : @949 (gas: 5)\n 71905: u64 [sp + 0xe8] = a2\n 71909: i32 a0 = a2 + 0\n 71911: a1 = 0x20\n 71914: u64 [sp + 0xe0] = a0\n 71918: ra = 856, jump @0\n      : @950 [@dyn 428] (gas: 50)\n 71925: u8 [a0 + 31] = 0\n 71928: u8 [a0 + 30] = 0\n 71931: u8 [a0 + 29] = 0\n 71934: u8 [a0 + 28] = 0\n 71937: u8 [a0 + 27] = 0\n 71940: u8 [a0 + 26] = 0\n 71943: u8 [a0 + 25] = 0\n 71946: u8 [a0 + 24] = 0\n 71949: u8 [a0 + 23] = 0\n 71952: u8 [a0 + 22] = 0\n 71955: u8 [a0 + 21] = 0\n 71958: u8 [a0 + 20] = 0\n 71961: u8 [a0 + 19] = 0\n 71964: u8 [a0 + 18] = 0\n 71967: u8 [a0 + 17] = 0\n 71970: u8 [a0 + 16] = 0\n 71973: u8 [a0 + 15] = 0\n 71976: u8 [a0 + 14] = 0\n 71979: u8 [a0 + 13] = 0\n 71982: u8 [a0 + 12] = 0\n 71985: u8 [a0 + 11] = 0\n 71988: u8 [a0 + 10] = 0\n 71991: u8 [a0 + 9] = 0\n 71994: u8 [a0 + 8] = 0\n 71997: u8 [a0 + 7] = 0\n 72000: u8 [a0 + 6] = 0\n 72003: u8 [a0 + 5] = 0\n 72006: u8 [a0 + 4] = 0\n 72009: u8 [a0 + 3] = 0xa0\n 72014: u8 [a0 + 2] = 0x79\n 72018: u8 [a0 + 1] = 0xc3\n 72023: u8 [a0 + 0] = 0x8\n 72026: a1 = u64 [sp + 0xe8]\n 72030: a0 = a1 + 0x4\n 72033: a1 = a0 <u a1\n 72036: a3 = u64 [sp + 0xf8]\n 72040: a2 = a3 + a1\n 72043: a3 = a2 <u a3\n 72046: a3 = a1 if a1 == 0\n 72049: a3 = a3 + s1\n 72052: a1 = a3 <u s1\n 72055: a4 = u64 [sp + 0xf0]\n 72059: a4 = a4 + a1\n 72062: u64 [sp + 0x108] = a2\n 72066: u64 [sp + 0x100] = a0\n 72070: u64 [sp + 0x110] = a3\n 72074: a0 = sp + 0x120\n 72078: a1 = sp + 0x100\n 72082: u64 [sp + 0x118] = a4\n 72086: ra = 858, jump @849\n      : @951 [@dyn 429] (gas: 5)\n 72092: a0 = u64 [sp + 0x128]\n 72096: t0 = u64 [sp + 0x138]\n 72100: t1 = u64 [sp + 0x120]\n 72104: a3 = u64 [sp + 0x130]\n 72108: jump @957\n      : @952 (gas: 3)\n 72111: a0 = 0x40\n 72114: a1 = 0x20\n 72117: ra = 860, jump @0\n      : @953 [@dyn 430] (gas: 103)\n 72124: a1 = u8 [a0 + 0x11]\n 72127: a2 = u8 [a0 + 0x10]\n 72130: a3 = u8 [a0 + 0x12]\n 72133: a4 = u8 [a0 + 0x13]\n 72136: a1 = a1 << 0x8\n 72139: a1 = a1 | a2\n 72142: a3 = a3 << 0x10\n 72145: a4 = a4 << 0x18\n 72148: a3 = a3 | a4\n 72151: a1 = a1 | a3\n 72154: a2 = u8 [a0 + 0x15]\n 72157: a3 = u8 [a0 + 0x14]\n 72160: a4 = u8 [a0 + 0x16]\n 72163: a5 = u8 [a0 + 0x17]\n 72166: a2 = a2 << 0x8\n 72169: a2 = a2 | a3\n 72172: a4 = a4 << 0x10\n 72175: a5 = a5 << 0x18\n 72178: a4 = a4 | a5\n 72181: a2 = a2 | a4\n 72184: a2 = a2 << 0x20\n 72187: t0 = a2 | a1\n 72190: a2 = u8 [a0 + 0x1]\n 72193: a3 = u8 [a0]\n 72195: a4 = u8 [a0 + 0x2]\n 72198: a5 = u8 [a0 + 0x3]\n 72201: a2 = a2 << 0x8\n 72204: a2 = a2 | a3\n 72207: a4 = a4 << 0x10\n 72210: a5 = a5 << 0x18\n 72213: a4 = a4 | a5\n 72216: a2 = a2 | a4\n 72219: a3 = u8 [a0 + 0x5]\n 72222: a4 = u8 [a0 + 0x4]\n 72225: a5 = u8 [a0 + 0x6]\n 72228: s1 = u8 [a0 + 0x7]\n 72231: a3 = a3 << 0x8\n 72234: a3 = a3 | a4\n 72237: a5 = a5 << 0x10\n 72240: s1 = s1 << 0x18\n 72243: a5 = a5 | s1\n 72246: a3 = a3 | a5\n 72249: a3 = a3 << 0x20\n 72252: a2 = a2 | a3\n 72255: a3 = u8 [a0 + 0x19]\n 72258: a4 = u8 [a0 + 0x18]\n 72261: a5 = u8 [a0 + 0x1a]\n 72264: s1 = u8 [a0 + 0x1b]\n 72267: a3 = a3 << 0x8\n 72270: a3 = a3 | a4\n 72273: a5 = a5 << 0x10\n 72276: s1 = s1 << 0x18\n 72279: a5 = a5 | s1\n 72282: a3 = a3 | a5\n 72285: a4 = u8 [a0 + 0x1d]\n 72288: a5 = u8 [a0 + 0x1c]\n 72291: s1 = u8 [a0 + 0x1e]\n 72294: a1 = u8 [a0 + 0x1f]\n 72297: a4 = a4 << 0x8\n 72300: a4 = a4 | a5\n 72303: s1 = s1 << 0x10\n 72306: a1 = a1 << 0x18\n 72309: a1 = a1 | s1\n 72312: a1 = a1 | a4\n 72315: a1 = a1 << 0x20\n 72318: a3 = a3 | a1\n 72321: a1 = u8 [a0 + 0x9]\n 72324: a4 = u8 [a0 + 0x8]\n 72327: a5 = u8 [a0 + 0xa]\n 72330: s1 = u8 [a0 + 0xb]\n 72333: a1 = a1 << 0x8\n 72336: a1 = a1 | a4\n 72339: a5 = a5 << 0x10\n 72342: s1 = s1 << 0x18\n 72345: a5 = a5 | s1\n 72348: a1 = a1 | a5\n 72351: a4 = u8 [a0 + 0xd]\n 72354: a5 = u8 [a0 + 0xc]\n 72357: s1 = u8 [a0 + 0xe]\n 72360: a0 = u8 [a0 + 0xf]\n 72363: a4 = a4 << 0x8\n 72366: a4 = a4 | a5\n 72369: s1 = s1 << 0x10\n 72372: a0 = a0 << 0x18\n 72375: a0 = a0 | s1\n 72378: a0 = a0 | a4\n 72381: a0 = a0 << 0x20\n 72384: a0 = a0 | a1\n 72387: s1 = reverse a0\n 72389: a1 = reverse a3\n 72391: a2 = reverse a2\n 72393: a0 = reverse t0\n 72395: u64 [sp + 0xf8] = a0\n 72399: u64 [sp + 0xf0] = a2\n 72403: a0 = a0 | a2\n 72406: a2 = a1\n 72408: a1 = a1 | s1\n 72411: a1 = a1 | a0\n 72414: a1 = a1 >> 0x20\n 72417: a0 = a0 | s1\n 72420: a0 = a0 << 0x20\n 72423: a0 = a0 | a1\n 72426: jump @958 if a0 != 0\n      : @954 (gas: 5)\n 72430: u64 [sp + 0xe8] = a2\n 72434: i32 a0 = a2 + 0\n 72436: a1 = 0x20\n 72439: u64 [sp + 0xe0] = a0\n 72443: ra = 862, jump @0\n      : @955 [@dyn 431] (gas: 50)\n 72450: u8 [a0 + 31] = 0\n 72453: u8 [a0 + 30] = 0\n 72456: u8 [a0 + 29] = 0\n 72459: u8 [a0 + 28] = 0\n 72462: u8 [a0 + 27] = 0\n 72465: u8 [a0 + 26] = 0\n 72468: u8 [a0 + 25] = 0\n 72471: u8 [a0 + 24] = 0\n 72474: u8 [a0 + 23] = 0\n 72477: u8 [a0 + 22] = 0\n 72480: u8 [a0 + 21] = 0\n 72483: u8 [a0 + 20] = 0\n 72486: u8 [a0 + 19] = 0\n 72489: u8 [a0 + 18] = 0\n 72492: u8 [a0 + 17] = 0\n 72495: u8 [a0 + 16] = 0\n 72498: u8 [a0 + 15] = 0\n 72501: u8 [a0 + 14] = 0\n 72504: u8 [a0 + 13] = 0\n 72507: u8 [a0 + 12] = 0\n 72510: u8 [a0 + 11] = 0\n 72513: u8 [a0 + 10] = 0\n 72516: u8 [a0 + 9] = 0\n 72519: u8 [a0 + 8] = 0\n 72522: u8 [a0 + 7] = 0\n 72525: u8 [a0 + 6] = 0\n 72528: u8 [a0 + 5] = 0\n 72531: u8 [a0 + 4] = 0\n 72534: u8 [a0 + 3] = 0xa0\n 72539: u8 [a0 + 2] = 0x79\n 72543: u8 [a0 + 1] = 0xc3\n 72548: u8 [a0 + 0] = 0x8\n 72551: a1 = u64 [sp + 0xe8]\n 72555: a0 = a1 + 0x4\n 72558: a1 = a0 <u a1\n 72561: a3 = u64 [sp + 0xf8]\n 72565: a2 = a3 + a1\n 72568: a3 = a2 <u a3\n 72571: a3 = a1 if a1 == 0\n 72574: a3 = a3 + s1\n 72577: a1 = a3 <u s1\n 72580: a4 = u64 [sp + 0xf0]\n 72584: a4 = a4 + a1\n 72587: u64 [sp + 0x148] = a2\n 72591: u64 [sp + 0x140] = a0\n 72595: u64 [sp + 0x150] = a3\n 72599: a0 = sp + 0x160\n 72603: a1 = sp + 0x140\n 72607: u64 [sp + 0x158] = a4\n 72611: ra = 864, jump @857\n      : @956 [@dyn 432] (gas: 5)\n 72617: a0 = u64 [sp + 0x168]\n 72621: t0 = u64 [sp + 0x178]\n 72625: t1 = u64 [sp + 0x160]\n 72629: a3 = u64 [sp + 0x170]\n 72633: fallthrough\n      : @957 (gas: 26)\n 72634: a1 = u64 [sp + 0xf8]\n 72638: a4 = a0 ^ a1\n 72641: a5 = a0 <u a1\n 72644: t2 = a1\n 72646: a2 = u64 [sp + 0xe8]\n 72650: a1 = t1 <u a2\n 72653: a5 = a1 if a4 == 0\n 72656: a4 = a3 - s1\n 72659: a3 = a3 <u s1\n 72662: s1 = u64 [sp + 0xf0]\n 72666: s1 = t0 - s1\n 72669: s1 = s1 - a3\n 72672: a3 = a4 <u a5\n 72675: s1 = s1 - a3\n 72678: a4 = a4 - a5\n 72681: a0 = a0 - t2\n 72684: a1 = a0 - a1\n 72687: a0 = t1 - a2\n 72690: a1 = a1 | s1\n 72693: a2 = a0 | a4\n 72696: a2 = a2 | a1\n 72699: a1 = a1 | a4\n 72702: a2 = a2 >> 0x20\n 72705: a1 = a1 << 0x20\n 72708: a1 = a1 | a2\n 72711: jump @959 if a1 == 0\n      : @958 (gas: 1)\n 72714: trap\n      : @959 (gas: 4)\n 72715: i32 s1 = a0 + 0\n 72717: a0 = u64 [sp + 0xe0]\n 72721: a1 = s1\n 72723: ra = 866, jump @0\n      : @960 [@dyn 433] (gas: 6)\n 72730: i32 a1 = a0 + 0\n 72732: a0 = 0x1\n 72735: a2 = s1\n 72737: ra = 0x364\n 72741: ecalli 13 // 'seal_return'\n 72743: fallthrough\n      : @961 [@dyn 434] (gas: 87)\n 72744: sp = sp + 0xfffffffffffffeb0\n 72748: u64 [sp + 0x148] = ra\n 72752: u64 [sp + 0x140] = s0\n 72756: u64 [sp + 0x138] = s1\n 72760: s0 = sp + 0x150\n 72764: sp = sp & 0xfffffffffffffff0\n 72767: s1 = u64 [a0]\n 72769: u64 [sp + 0x68] = s1\n 72772: s1 = u64 [a0 + 0x8]\n 72775: u64 [sp + 0x60] = s1\n 72778: s1 = u64 [a0 + 0x10]\n 72781: u64 [sp + 0x58] = s1\n 72784: a0 = u64 [a0 + 0x18]\n 72787: u64 [sp + 0x50] = a0\n 72790: a0 = u64 [a1]\n 72792: u64 [sp + 0x48] = a0\n 72795: a0 = u64 [a1 + 0x8]\n 72798: u64 [sp + 0x40] = a0\n 72801: a0 = u64 [a1 + 0x10]\n 72804: u64 [sp + 0x38] = a0\n 72807: a0 = u64 [a1 + 0x18]\n 72810: u64 [sp + 0x30] = a0\n 72813: a0 = u64 [a2]\n 72815: u64 [sp + 0x28] = a0\n 72818: a0 = u64 [a2 + 0x8]\n 72821: u64 [sp + 0x20] = a0\n 72824: a0 = u64 [a2 + 0x10]\n 72827: u64 [sp + 0x18] = a0\n 72830: a0 = u64 [a2 + 0x18]\n 72833: u64 [sp + 0x10] = a0\n 72836: a0 = u64 [a3]\n 72838: u64 [sp + 0x8] = a0\n 72841: ra = u64 [a3 + 0x8]\n 72844: s1 = u64 [a3 + 0x10]\n 72847: t2 = u64 [a3 + 0x18]\n 72850: t1 = u64 [a4]\n 72852: t0 = u64 [a4 + 0x8]\n 72855: a3 = u64 [a4 + 0x10]\n 72858: a4 = u64 [a4 + 0x18]\n 72861: a2 = u64 [a5]\n 72863: a1 = u64 [a5 + 0x8]\n 72866: a0 = u64 [a5 + 0x10]\n 72869: a5 = u64 [a5 + 0x18]\n 72872: u64 [sp + 0x88] = a5\n 72876: u64 [sp + 0x80] = a0\n 72880: u64 [sp + 0x78] = a1\n 72883: u64 [sp + 0x70] = a2\n 72886: u64 [sp + 0xa8] = a4\n 72890: u64 [sp + 0xa0] = a3\n 72894: u64 [sp + 0x98] = t0\n 72898: u64 [sp + 0x90] = t1\n 72902: u64 [sp + 0xc8] = t2\n 72906: u64 [sp + 0xc0] = s1\n 72910: u64 [sp + 0xb8] = ra\n 72914: a0 = u64 [sp + 0x8]\n 72917: u64 [sp + 0xb0] = a0\n 72921: a0 = u64 [sp + 0x10]\n 72924: u64 [sp + 0xe8] = a0\n 72928: a0 = u64 [sp + 0x18]\n 72931: u64 [sp + 0xe0] = a0\n 72935: a0 = u64 [sp + 0x20]\n 72938: u64 [sp + 0xd8] = a0\n 72942: a0 = u64 [sp + 0x28]\n 72945: u64 [sp + 0xd0] = a0\n 72949: a0 = u64 [sp + 0x30]\n 72952: u64 [sp + 0x108] = a0\n 72956: a0 = u64 [sp + 0x38]\n 72959: u64 [sp + 0x100] = a0\n 72963: a0 = u64 [sp + 0x40]\n 72966: u64 [sp + 0xf8] = a0\n 72970: a0 = u64 [sp + 0x48]\n 72973: u64 [sp + 0xf0] = a0\n 72977: a0 = u64 [sp + 0x50]\n 72980: u64 [sp + 0x128] = a0\n 72984: a0 = u64 [sp + 0x58]\n 72987: u64 [sp + 0x120] = a0\n 72991: a0 = u64 [sp + 0x60]\n 72994: u64 [sp + 0x118] = a0\n 72998: a0 = sp + 0x110\n 73002: a1 = sp + 0xf0\n 73006: a2 = sp + 0xd0\n 73010: a3 = sp + 0xb0\n 73014: a4 = sp + 0x90\n 73018: a5 = sp + 0x70\n 73021: s1 = u64 [sp + 0x68]\n 73024: u64 [sp + 0x110] = s1\n 73028: ra = 870, jump @833\n      : @962 [@dyn 435] (gas: 6)\n 73034: sp = s0 + 0xfffffffffffffeb0\n 73038: ra = u64 [sp + 0x148]\n 73042: s0 = u64 [sp + 0x140]\n 73046: s1 = u64 [sp + 0x138]\n 73050: sp = sp + 0x150\n 73054: ret\n      : @963 (gas: 17)\n 73056: sp = sp + 0xffffffffffffffa0\n 73059: u64 [sp + 0x58] = ra\n 73062: u64 [sp + 0x50] = s0\n 73065: u64 [sp + 0x48] = s1\n 73068: a3 = u64 [a1 + 0x18]\n 73071: a4 = u64 [a1 + 0x10]\n 73074: a5 = u64 [a1 + 0x8]\n 73077: s1 = u64 [a1]\n 73079: a1 = a5 | a3\n 73082: a2 = s1 | a4\n 73085: a2 = a2 | a1\n 73088: a2 = a2 >> 0x20\n 73091: a1 = a1 | a4\n 73094: a1 = a1 << 0x20\n 73097: a1 = a1 | a2\n 73100: u64 [sp + 0x28] = a0\n 73103: jump @970 if a1 != 0\n      : @964 (gas: 19)\n 73107: a0 = s1 + 0x20\n 73110: u64 [sp + 0x30] = a0\n 73113: a0 = a0 <u s1\n 73116: a1 = a5 + a0\n 73119: u64 [sp + 0x40] = a1\n 73122: u64 [sp + 0x8] = a5\n 73125: s0 = a1 <u a5\n 73128: s0 = a0 if a0 == 0\n 73131: s0 = s0 + a4\n 73134: u64 [sp + 0x10] = a4\n 73137: a0 = s0 <u a4\n 73140: u64 [sp + 0x18] = a3\n 73143: a0 = a0 + a3\n 73146: u64 [sp + 0x38] = a0\n 73149: u64 [sp] = s1\n 73151: i32 a0 = s1 + 0\n 73153: a1 = 0x20\n 73156: s1 = 0x20\n 73159: ra = 872, jump @0\n      : @965 [@dyn 436] (gas: 45)\n 73166: u8 [a0 + 0x1f] = s1\n 73169: a1 = u64 [sp + 0x30]\n 73172: s1 = a1\n 73174: a1 = a1 | s0\n 73177: a2 = u64 [sp + 0x40]\n 73180: a4 = u64 [sp + 0x38]\n 73183: a2 = a2 | a4\n 73186: a1 = a1 | a2\n 73189: a1 = a1 >> 0x20\n 73192: u64 [sp + 0x20] = s0\n 73195: a2 = a2 | s0\n 73198: a2 = a2 << 0x20\n 73201: a1 = a1 | a2\n 73204: u8 [a0 + 30] = 0\n 73207: u8 [a0 + 29] = 0\n 73210: u8 [a0 + 28] = 0\n 73213: u8 [a0 + 27] = 0\n 73216: u8 [a0 + 26] = 0\n 73219: u8 [a0 + 25] = 0\n 73222: u8 [a0 + 24] = 0\n 73225: u8 [a0 + 23] = 0\n 73228: u8 [a0 + 22] = 0\n 73231: u8 [a0 + 21] = 0\n 73234: u8 [a0 + 20] = 0\n 73237: u8 [a0 + 19] = 0\n 73240: u8 [a0 + 18] = 0\n 73243: u8 [a0 + 17] = 0\n 73246: u8 [a0 + 16] = 0\n 73249: u8 [a0 + 15] = 0\n 73252: u8 [a0 + 14] = 0\n 73255: u8 [a0 + 13] = 0\n 73258: u8 [a0 + 12] = 0\n 73261: u8 [a0 + 11] = 0\n 73264: u8 [a0 + 10] = 0\n 73267: u8 [a0 + 9] = 0\n 73270: u8 [a0 + 8] = 0\n 73273: u8 [a0 + 7] = 0\n 73276: u8 [a0 + 6] = 0\n 73279: u8 [a0 + 5] = 0\n 73282: u8 [a0 + 4] = 0\n 73285: u8 [a0 + 3] = 0\n 73288: u8 [a0 + 2] = 0\n 73291: u8 [a0 + 1] = 0\n 73294: u8 [a0 + 0] = 0\n 73296: jump @970 if a1 != 0\n      : @966 (gas: 4)\n 73300: i32 s0 = s1 + 0\n 73302: a1 = 0x20\n 73305: a0 = s0\n 73307: ra = 874, jump @0\n      : @967 [@dyn 437] (gas: 41)\n 73314: u8 [a0 + 31] = 0x1f\n 73318: u8 [a0 + 30] = 0\n 73321: u8 [a0 + 29] = 0\n 73324: u8 [a0 + 28] = 0\n 73327: u8 [a0 + 27] = 0\n 73330: u8 [a0 + 26] = 0\n 73333: u8 [a0 + 25] = 0\n 73336: u8 [a0 + 24] = 0\n 73339: u8 [a0 + 23] = 0\n 73342: u8 [a0 + 22] = 0\n 73345: u8 [a0 + 21] = 0\n 73348: u8 [a0 + 20] = 0\n 73351: u8 [a0 + 19] = 0\n 73354: u8 [a0 + 18] = 0\n 73357: u8 [a0 + 17] = 0\n 73360: u8 [a0 + 16] = 0\n 73363: u8 [a0 + 15] = 0\n 73366: u8 [a0 + 14] = 0\n 73369: u8 [a0 + 13] = 0\n 73372: u8 [a0 + 12] = 0\n 73375: u8 [a0 + 11] = 0\n 73378: u8 [a0 + 10] = 0\n 73381: u8 [a0 + 9] = 0\n 73384: u8 [a0 + 8] = 0\n 73387: u8 [a0 + 7] = 0\n 73390: u8 [a0 + 6] = 0\n 73393: u8 [a0 + 5] = 0\n 73396: u8 [a0 + 4] = 0\n 73399: u8 [a0 + 3] = 0\n 73402: u8 [a0 + 2] = 0\n 73405: u8 [a0 + 1] = 0\n 73408: a1 = u64 [sp + 0x20]\n 73411: a2 = u64 [sp + 0x38]\n 73414: a1 = a1 | a2\n 73417: a2 = 0xffffffe0\n 73427: a2 = s1 <u a2\n 73430: a3 = u64 [sp + 0x40]\n 73433: a2 = 0 if a3 != 0\n 73435: a2 = 0 if a1 != 0\n 73437: u8 [a0 + 0] = 0\n 73439: jump @970 if a2 == 0\n      : @968 (gas: 3)\n 73443: i32 a0 = s0 + 0x20\n 73446: a1 = 0x20\n 73449: ra = 876, jump @0\n      : @969 [@dyn 438] (gas: 55)\n 73456: u8 [a0 + 31] = 0\n 73459: u8 [a0 + 30] = 0x72\n 73463: u8 [a0 + 29] = 0x65\n 73467: u8 [a0 + 28] = 0x79\n 73471: u8 [a0 + 27] = 0x75\n 73475: u8 [a0 + 26] = 0x62\n 73479: u8 [a0 + 25] = 0x20\n 73483: u8 [a0 + 24] = 0x65\n 73487: u8 [a0 + 23] = 0x68\n 73491: u8 [a0 + 22] = 0x74\n 73495: u8 [a0 + 21] = 0x20\n 73499: u8 [a0 + 20] = 0x74\n 73503: u8 [a0 + 19] = 0x6f\n 73507: u8 [a0 + 18] = 0x6e\n 73511: u8 [a0 + 17] = 0x20\n 73515: u8 [a0 + 16] = 0x73\n 73519: u8 [a0 + 15] = 0x69\n 73523: u8 [a0 + 14] = 0x20\n 73527: u8 [a0 + 13] = 0x72\n 73531: u8 [a0 + 12] = 0x65\n 73535: u8 [a0 + 11] = 0x6c\n 73539: u8 [a0 + 10] = 0x6c\n 73543: u8 [a0 + 9] = 0x61\n 73547: u8 [a0 + 8] = 0x63\n 73551: u8 [a0 + 7] = 0x20\n 73555: u8 [a0 + 6] = 0x3a\n 73559: a5 = 0x77\n 73562: u8 [a0 + 0x5] = a5\n 73565: u8 [a0 + 4] = 0x6f\n 73569: u8 [a0 + 3] = 0x72\n 73573: u8 [a0 + 2] = 0x63\n 73577: u8 [a0 + 1] = 0x73\n 73581: u8 [a0 + 0] = 0x45\n 73584: a1 = u64 [sp]\n 73586: a0 = a1 + 0x60\n 73589: a1 = a0 <u a1\n 73592: a3 = u64 [sp + 0x8]\n 73595: a2 = a3 + a1\n 73598: a3 = a2 <u a3\n 73601: a3 = a1 if a1 == 0\n 73604: a1 = u64 [sp + 0x10]\n 73607: a3 = a3 + a1\n 73610: a1 = a3 <u a1\n 73613: a4 = u64 [sp + 0x18]\n 73616: a1 = a1 + a4\n 73619: a4 = u64 [sp + 0x28]\n 73622: u64 [a4] = a0\n 73624: u64 [a4 + 0x8] = a2\n 73627: u64 [a4 + 0x10] = a3\n 73630: u64 [a4 + 0x18] = a1\n 73633: ra = u64 [sp + 0x58]\n 73636: s0 = u64 [sp + 0x50]\n 73639: s1 = u64 [sp + 0x48]\n 73642: sp = sp + 0x60\n 73645: ret\n      : @970 (gas: 1)\n 73647: trap\n      : @971 (gas: 17)\n 73648: sp = sp + 0xffffffffffffffa0\n 73651: u64 [sp + 0x58] = ra\n 73654: u64 [sp + 0x50] = s0\n 73657: u64 [sp + 0x48] = s1\n 73660: a3 = u64 [a1 + 0x18]\n 73663: a4 = u64 [a1 + 0x10]\n 73666: a5 = u64 [a1 + 0x8]\n 73669: s1 = u64 [a1]\n 73671: a1 = a5 | a3\n 73674: a2 = s1 | a4\n 73677: a2 = a2 | a1\n 73680: a2 = a2 >> 0x20\n 73683: a1 = a1 | a4\n 73686: a1 = a1 << 0x20\n 73689: a1 = a1 | a2\n 73692: u64 [sp + 0x28] = a0\n 73695: jump @978 if a1 != 0\n      : @972 (gas: 19)\n 73699: a0 = s1 + 0x20\n 73702: u64 [sp + 0x30] = a0\n 73705: a0 = a0 <u s1\n 73708: a1 = a5 + a0\n 73711: u64 [sp + 0x40] = a1\n 73714: u64 [sp + 0x8] = a5\n 73717: s0 = a1 <u a5\n 73720: s0 = a0 if a0 == 0\n 73723: s0 = s0 + a4\n 73726: u64 [sp + 0x10] = a4\n 73729: a0 = s0 <u a4\n 73732: u64 [sp + 0x18] = a3\n 73735: a0 = a0 + a3\n 73738: u64 [sp + 0x38] = a0\n 73741: u64 [sp] = s1\n 73743: i32 a0 = s1 + 0\n 73745: a1 = 0x20\n 73748: s1 = 0x20\n 73751: ra = 878, jump @0\n      : @973 [@dyn 439] (gas: 45)\n 73758: u8 [a0 + 0x1f] = s1\n 73761: a1 = u64 [sp + 0x30]\n 73764: s1 = a1\n 73766: a1 = a1 | s0\n 73769: a2 = u64 [sp + 0x40]\n 73772: a4 = u64 [sp + 0x38]\n 73775: a2 = a2 | a4\n 73778: a1 = a1 | a2\n 73781: a1 = a1 >> 0x20\n 73784: u64 [sp + 0x20] = s0\n 73787: a2 = a2 | s0\n 73790: a2 = a2 << 0x20\n 73793: a1 = a1 | a2\n 73796: u8 [a0 + 30] = 0\n 73799: u8 [a0 + 29] = 0\n 73802: u8 [a0 + 28] = 0\n 73805: u8 [a0 + 27] = 0\n 73808: u8 [a0 + 26] = 0\n 73811: u8 [a0 + 25] = 0\n 73814: u8 [a0 + 24] = 0\n 73817: u8 [a0 + 23] = 0\n 73820: u8 [a0 + 22] = 0\n 73823: u8 [a0 + 21] = 0\n 73826: u8 [a0 + 20] = 0\n 73829: u8 [a0 + 19] = 0\n 73832: u8 [a0 + 18] = 0\n 73835: u8 [a0 + 17] = 0\n 73838: u8 [a0 + 16] = 0\n 73841: u8 [a0 + 15] = 0\n 73844: u8 [a0 + 14] = 0\n 73847: u8 [a0 + 13] = 0\n 73850: u8 [a0 + 12] = 0\n 73853: u8 [a0 + 11] = 0\n 73856: u8 [a0 + 10] = 0\n 73859: u8 [a0 + 9] = 0\n 73862: u8 [a0 + 8] = 0\n 73865: u8 [a0 + 7] = 0\n 73868: u8 [a0 + 6] = 0\n 73871: u8 [a0 + 5] = 0\n 73874: u8 [a0 + 4] = 0\n 73877: u8 [a0 + 3] = 0\n 73880: u8 [a0 + 2] = 0\n 73883: u8 [a0 + 1] = 0\n 73886: u8 [a0 + 0] = 0\n 73888: jump @978 if a1 != 0\n      : @974 (gas: 4)\n 73892: i32 s0 = s1 + 0\n 73894: a1 = 0x20\n 73897: a0 = s0\n 73899: ra = 880, jump @0\n      : @975 [@dyn 440] (gas: 41)\n 73906: u8 [a0 + 31] = 0x1e\n 73910: u8 [a0 + 30] = 0\n 73913: u8 [a0 + 29] = 0\n 73916: u8 [a0 + 28] = 0\n 73919: u8 [a0 + 27] = 0\n 73922: u8 [a0 + 26] = 0\n 73925: u8 [a0 + 25] = 0\n 73928: u8 [a0 + 24] = 0\n 73931: u8 [a0 + 23] = 0\n 73934: u8 [a0 + 22] = 0\n 73937: u8 [a0 + 21] = 0\n 73940: u8 [a0 + 20] = 0\n 73943: u8 [a0 + 19] = 0\n 73946: u8 [a0 + 18] = 0\n 73949: u8 [a0 + 17] = 0\n 73952: u8 [a0 + 16] = 0\n 73955: u8 [a0 + 15] = 0\n 73958: u8 [a0 + 14] = 0\n 73961: u8 [a0 + 13] = 0\n 73964: u8 [a0 + 12] = 0\n 73967: u8 [a0 + 11] = 0\n 73970: u8 [a0 + 10] = 0\n 73973: u8 [a0 + 9] = 0\n 73976: u8 [a0 + 8] = 0\n 73979: u8 [a0 + 7] = 0\n 73982: u8 [a0 + 6] = 0\n 73985: u8 [a0 + 5] = 0\n 73988: u8 [a0 + 4] = 0\n 73991: u8 [a0 + 3] = 0\n 73994: u8 [a0 + 2] = 0\n 73997: u8 [a0 + 1] = 0\n 74000: a1 = u64 [sp + 0x20]\n 74003: a2 = u64 [sp + 0x38]\n 74006: a1 = a1 | a2\n 74009: a2 = 0xffffffe0\n 74019: a2 = s1 <u a2\n 74022: a3 = u64 [sp + 0x40]\n 74025: a2 = 0 if a3 != 0\n 74027: a2 = 0 if a1 != 0\n 74029: u8 [a0 + 0] = 0\n 74031: jump @978 if a2 == 0\n      : @976 (gas: 3)\n 74035: i32 a0 = s0 + 0x20\n 74038: a1 = 0x20\n 74041: ra = 882, jump @0\n      : @977 [@dyn 441] (gas: 54)\n 74048: u8 [a0 + 22] = 0x79\n 74052: u8 [a0 + 17] = 0x6c\n 74056: u8 [a0 + 25] = 0x61\n 74060: u8 [a0 + 20] = 0x61\n 74064: u8 [a0 + 16] = 0x61\n 74068: u8 [a0 + 28] = 0x65\n 74072: u8 [a0 + 19] = 0x65\n 74076: u8 [a0 + 14] = 0x65\n 74080: u8 [a0 + 13] = 0x74\n 74084: u8 [a0 + 12] = 0x75\n 74088: u8 [a0 + 11] = 0x70\n 74092: u8 [a0 + 26] = 0x69\n 74096: u8 [a0 + 9] = 0x69\n 74100: u8 [a0 + 29] = 0x64\n 74104: u8 [a0 + 21] = 0x64\n 74108: u8 [a0 + 8] = 0x64\n 74112: u8 [a0 + 31] = 0\n 74115: u8 [a0 + 30] = 0\n 74118: u8 [a0 + 23] = 0x20\n 74122: u8 [a0 + 15] = 0x20\n 74126: u8 [a0 + 7] = 0x20\n 74130: u8 [a0 + 6] = 0x3a\n 74134: u8 [a0 + 5] = 0x77\n 74138: u8 [a0 + 4] = 0x6f\n 74142: u8 [a0 + 24] = 0x72\n 74146: u8 [a0 + 18] = 0x72\n 74150: u8 [a0 + 3] = 0x72\n 74154: u8 [a0 + 2] = 0x63\n 74158: u8 [a0 + 27] = 0x73\n 74162: u8 [a0 + 10] = 0x73\n 74166: u8 [a0 + 1] = 0x73\n 74170: u8 [a0 + 0] = 0x45\n 74173: a1 = u64 [sp]\n 74175: a0 = a1 + 0x60\n 74178: a1 = a0 <u a1\n 74181: a3 = u64 [sp + 0x8]\n 74184: a2 = a3 + a1\n 74187: a3 = a2 <u a3\n 74190: a3 = a1 if a1 == 0\n 74193: a1 = u64 [sp + 0x10]\n 74196: a3 = a3 + a1\n 74199: a1 = a3 <u a1\n 74202: a4 = u64 [sp + 0x18]\n 74205: a1 = a1 + a4\n 74208: a4 = u64 [sp + 0x28]\n 74211: u64 [a4] = a0\n 74213: u64 [a4 + 0x8] = a2\n 74216: u64 [a4 + 0x10] = a3\n 74219: u64 [a4 + 0x18] = a1\n 74222: ra = u64 [sp + 0x58]\n 74225: s0 = u64 [sp + 0x50]\n 74228: s1 = u64 [sp + 0x48]\n 74231: sp = sp + 0x60\n 74234: ret\n      : @978 (gas: 1)\n 74236: trap\n      : @979 [@dyn 442] (gas: 74)\n 74237: a2 = reverse s1\n 74239: a1 = u64 [sp + 0x48]\n 74242: a3 = reverse a1\n 74244: a1 = u64 [sp + 0x50]\n 74247: a5 = reverse a1\n 74249: a1 = u64 [sp + 0x58]\n 74252: a4 = reverse a1\n 74254: u8 [a0 + 0x18] = a4\n 74257: u8 [a0 + 0x10] = a5\n 74260: u8 [a0 + 0x8] = a3\n 74263: u8 [a0] = a2\n 74265: a1 = a4 >> 0x38\n 74268: u8 [a0 + 0x1f] = a1\n 74271: a1 = a4 >> 0x30\n 74274: u8 [a0 + 0x1e] = a1\n 74277: a1 = a4 >> 0x28\n 74280: u8 [a0 + 0x1d] = a1\n 74283: a1 = a4 >> 0x20\n 74286: u8 [a0 + 0x1c] = a1\n 74289: a1 = a4 >> 0x18\n 74292: u8 [a0 + 0x1b] = a1\n 74295: a1 = a4 >> 0x10\n 74298: u8 [a0 + 0x1a] = a1\n 74301: u64 [sp + 0x30] = a4\n 74304: a1 = a4 >> 0x8\n 74307: u8 [a0 + 0x19] = a1\n 74310: a1 = a5 >> 0x38\n 74313: u8 [a0 + 0x17] = a1\n 74316: a1 = a5 >> 0x30\n 74319: u8 [a0 + 0x16] = a1\n 74322: a1 = a5 >> 0x28\n 74325: u8 [a0 + 0x15] = a1\n 74328: a1 = a5 >> 0x20\n 74331: u8 [a0 + 0x14] = a1\n 74334: a1 = a5 >> 0x18\n 74337: u8 [a0 + 0x13] = a1\n 74340: a1 = a5 >> 0x10\n 74343: u8 [a0 + 0x12] = a1\n 74346: u64 [sp + 0x28] = a5\n 74349: a1 = a5 >> 0x8\n 74352: u8 [a0 + 0x11] = a1\n 74355: a1 = a3 >> 0x38\n 74358: u8 [a0 + 0xf] = a1\n 74361: a1 = a3 >> 0x30\n 74364: u8 [a0 + 0xe] = a1\n 74367: a1 = a3 >> 0x28\n 74370: u8 [a0 + 0xd] = a1\n 74373: a1 = a3 >> 0x20\n 74376: u8 [a0 + 0xc] = a1\n 74379: a1 = a3 >> 0x18\n 74382: u8 [a0 + 0xb] = a1\n 74385: a1 = a3 >> 0x10\n 74388: u8 [a0 + 0xa] = a1\n 74391: u64 [sp + 0x38] = a3\n 74394: a1 = a3 >> 0x8\n 74397: u8 [a0 + 0x9] = a1\n 74400: a1 = a2 >> 0x38\n 74403: u8 [a0 + 0x7] = a1\n 74406: a1 = a2 >> 0x30\n 74409: u8 [a0 + 0x6] = a1\n 74412: a1 = a2 >> 0x28\n 74415: u8 [a0 + 0x5] = a1\n 74418: a1 = a2 >> 0x20\n 74421: u8 [a0 + 0x4] = a1\n 74424: a1 = a2 >> 0x18\n 74427: u8 [a0 + 0x3] = a1\n 74430: a1 = a2 >> 0x10\n 74433: u8 [a0 + 0x2] = a1\n 74436: u64 [sp + 0x40] = a2\n 74439: a1 = a2 >> 0x8\n 74442: u8 [a0 + 0x1] = a1\n 74445: a0 = 0x20\n 74448: a1 = 0x20\n 74451: ra = 886, jump @0\n      : @980 [@dyn 443] (gas: 35)\n 74458: u8 [a0 + 31] = 0x3\n 74462: u8 [a0 + 30] = 0\n 74465: u8 [a0 + 29] = 0\n 74468: u8 [a0 + 28] = 0\n 74471: u8 [a0 + 27] = 0\n 74474: u8 [a0 + 26] = 0\n 74477: u8 [a0 + 25] = 0\n 74480: u8 [a0 + 24] = 0\n 74483: u8 [a0 + 23] = 0\n 74486: u8 [a0 + 22] = 0\n 74489: u8 [a0 + 21] = 0\n 74492: u8 [a0 + 20] = 0\n 74495: u8 [a0 + 19] = 0\n 74498: u8 [a0 + 18] = 0\n 74501: u8 [a0 + 17] = 0\n 74504: u8 [a0 + 16] = 0\n 74507: u8 [a0 + 15] = 0\n 74510: u8 [a0 + 14] = 0\n 74513: u8 [a0 + 13] = 0\n 74516: u8 [a0 + 12] = 0\n 74519: u8 [a0 + 11] = 0\n 74522: u8 [a0 + 10] = 0\n 74525: u8 [a0 + 9] = 0\n 74528: u8 [a0 + 8] = 0\n 74531: u8 [a0 + 7] = 0\n 74534: u8 [a0 + 6] = 0\n 74537: u8 [a0 + 5] = 0\n 74540: u8 [a0 + 4] = 0\n 74543: u8 [a0 + 3] = 0\n 74546: u8 [a0 + 2] = 0\n 74549: u8 [a0 + 1] = 0\n 74552: u8 [a0 + 0] = 0\n 74554: a1 = 0x40\n 74557: a0 = 0\n 74559: ra = 888, jump @0\n      : @981 [@dyn 444] (gas: 14)\n 74566: i32 a0 = a0 + 0\n 74568: i32 a2 = sp + 0x1a0\n 74572: a1 = 0x40\n 74575: ecalli 8 // 'hash_keccak_256'\n 74577: a0 = u64 [sp + 0x1a0]\n 74581: u64 [sp + 0x58] = a0\n 74584: a0 = u64 [sp + 0x1a8]\n 74588: u64 [sp + 0x50] = a0\n 74591: a0 = u64 [sp + 0x1b0]\n 74595: u64 [sp + 0x48] = a0\n 74598: s1 = u64 [sp + 0x1b8]\n 74602: a1 = 0x20\n 74605: a0 = 0\n 74607: ra = 890, jump @0\n      : @982 [@dyn 445] (gas: 75)\n 74614: a1 = u64 [sp + 0x60]\n 74617: a2 = reverse a1\n 74619: a1 = u64 [sp + 0x68]\n 74622: a3 = reverse a1\n 74624: a1 = u64 [sp + 0x70]\n 74627: a5 = reverse a1\n 74629: a1 = u64 [sp + 0x78]\n 74632: a4 = reverse a1\n 74634: a1 = a4 >> 0x38\n 74637: u8 [a0 + 0x1f] = a1\n 74640: a1 = a4 >> 0x30\n 74643: u8 [a0 + 0x1e] = a1\n 74646: a1 = a4 >> 0x28\n 74649: u8 [a0 + 0x1d] = a1\n 74652: a1 = a4 >> 0x20\n 74655: u8 [a0 + 0x1c] = a1\n 74658: a1 = a4 >> 0x18\n 74661: u8 [a0 + 0x1b] = a1\n 74664: a1 = a4 >> 0x10\n 74667: u8 [a0 + 0x1a] = a1\n 74670: a1 = a4 >> 0x8\n 74673: u8 [a0 + 0x19] = a1\n 74676: u64 [sp + 0x10] = a4\n 74679: u8 [a0 + 0x18] = a4\n 74682: a1 = a5 >> 0x38\n 74685: u8 [a0 + 0x17] = a1\n 74688: a1 = a5 >> 0x30\n 74691: u8 [a0 + 0x16] = a1\n 74694: a1 = a5 >> 0x28\n 74697: u8 [a0 + 0x15] = a1\n 74700: a1 = a5 >> 0x20\n 74703: u8 [a0 + 0x14] = a1\n 74706: a1 = a5 >> 0x18\n 74709: u8 [a0 + 0x13] = a1\n 74712: a1 = a5 >> 0x10\n 74715: u8 [a0 + 0x12] = a1\n 74718: a1 = a5 >> 0x8\n 74721: u8 [a0 + 0x11] = a1\n 74724: u64 [sp + 0x8] = a5\n 74727: u8 [a0 + 0x10] = a5\n 74730: a1 = a3 >> 0x38\n 74733: u8 [a0 + 0xf] = a1\n 74736: a1 = a3 >> 0x30\n 74739: u8 [a0 + 0xe] = a1\n 74742: a1 = a3 >> 0x28\n 74745: u8 [a0 + 0xd] = a1\n 74748: a1 = a3 >> 0x20\n 74751: u8 [a0 + 0xc] = a1\n 74754: a1 = a3 >> 0x18\n 74757: u8 [a0 + 0xb] = a1\n 74760: a1 = a3 >> 0x10\n 74763: u8 [a0 + 0xa] = a1\n 74766: a1 = a3 >> 0x8\n 74769: u8 [a0 + 0x9] = a1\n 74772: u64 [sp + 0x18] = a3\n 74775: u8 [a0 + 0x8] = a3\n 74778: a1 = a2 >> 0x38\n 74781: u8 [a0 + 0x7] = a1\n 74784: a1 = a2 >> 0x30\n 74787: u8 [a0 + 0x6] = a1\n 74790: a1 = a2 >> 0x28\n 74793: u8 [a0 + 0x5] = a1\n 74796: a1 = a2 >> 0x20\n 74799: u8 [a0 + 0x4] = a1\n 74802: a1 = a2 >> 0x18\n 74805: u8 [a0 + 0x3] = a1\n 74808: a1 = a2 >> 0x10\n 74811: u8 [a0 + 0x2] = a1\n 74814: a1 = a2 >> 0x8\n 74817: u8 [a0 + 0x1] = a1\n 74820: u64 [sp + 0x20] = a2\n 74823: u8 [a0] = a2\n 74825: a0 = 0x20\n 74828: a1 = 0x20\n 74831: ra = 892, jump @0\n      : @983 [@dyn 446] (gas: 66)\n 74838: a1 = s1 >> 0x38\n 74841: u8 [a0 + 0x1f] = a1\n 74844: a1 = s1 >> 0x30\n 74847: u8 [a0 + 0x1e] = a1\n 74850: a1 = s1 >> 0x28\n 74853: u8 [a0 + 0x1d] = a1\n 74856: a1 = s1 >> 0x20\n 74859: u8 [a0 + 0x1c] = a1\n 74862: a1 = s1 >> 0x18\n 74865: u8 [a0 + 0x1b] = a1\n 74868: a1 = s1 >> 0x10\n 74871: u8 [a0 + 0x1a] = a1\n 74874: a1 = s1 >> 0x8\n 74877: u8 [a0 + 0x19] = a1\n 74880: u8 [a0 + 0x18] = s1\n 74883: a2 = u64 [sp + 0x48]\n 74886: a1 = a2 >> 0x38\n 74889: u8 [a0 + 0x17] = a1\n 74892: a1 = a2 >> 0x30\n 74895: u8 [a0 + 0x16] = a1\n 74898: a1 = a2 >> 0x28\n 74901: u8 [a0 + 0x15] = a1\n 74904: a1 = a2 >> 0x20\n 74907: u8 [a0 + 0x14] = a1\n 74910: a1 = a2 >> 0x18\n 74913: u8 [a0 + 0x13] = a1\n 74916: a1 = a2 >> 0x10\n 74919: u8 [a0 + 0x12] = a1\n 74922: a1 = a2 >> 0x8\n 74925: u8 [a0 + 0x11] = a1\n 74928: u8 [a0 + 0x10] = a2\n 74931: a2 = u64 [sp + 0x50]\n 74934: a1 = a2 >> 0x38\n 74937: u8 [a0 + 0xf] = a1\n 74940: a1 = a2 >> 0x30\n 74943: u8 [a0 + 0xe] = a1\n 74946: a1 = a2 >> 0x28\n 74949: u8 [a0 + 0xd] = a1\n 74952: a1 = a2 >> 0x20\n 74955: u8 [a0 + 0xc] = a1\n 74958: a1 = a2 >> 0x18\n 74961: u8 [a0 + 0xb] = a1\n 74964: a1 = a2 >> 0x10\n 74967: u8 [a0 + 0xa] = a1\n 74970: a1 = a2 >> 0x8\n 74973: u8 [a0 + 0x9] = a1\n 74976: u8 [a0 + 0x8] = a2\n 74979: a2 = u64 [sp + 0x58]\n 74982: a1 = a2 >> 0x38\n 74985: u8 [a0 + 0x7] = a1\n 74988: a1 = a2 >> 0x30\n 74991: u8 [a0 + 0x6] = a1\n 74994: a1 = a2 >> 0x28\n 74997: u8 [a0 + 0x5] = a1\n 75000: a1 = a2 >> 0x20\n 75003: u8 [a0 + 0x4] = a1\n 75006: a1 = a2 >> 0x18\n 75009: u8 [a0 + 0x3] = a1\n 75012: a1 = a2 >> 0x10\n 75015: u8 [a0 + 0x2] = a1\n 75018: a1 = a2 >> 0x8\n 75021: u8 [a0 + 0x1] = a1\n 75024: u8 [a0] = a2\n 75026: a1 = 0x40\n 75029: a0 = 0\n 75031: ra = 894, jump @0\n      : @984 [@dyn 447] (gas: 53)\n 75038: i32 a0 = a0 + 0\n 75040: i32 a2 = sp + 0x1a0\n 75044: a1 = 0x40\n 75047: ecalli 8 // 'hash_keccak_256'\n 75049: a0 = u64 [sp + 0x1b8]\n 75053: a1 = u64 [sp + 0x1b0]\n 75057: a2 = u64 [sp + 0x1a8]\n 75061: a3 = u64 [sp + 0x1a0]\n 75065: a0 = reverse a0\n 75067: u64 [sp + 0x70] = a0\n 75070: a0 = reverse a1\n 75072: u64 [sp + 0x50] = a0\n 75075: a0 = reverse a2\n 75077: u64 [sp + 0x78] = a0\n 75080: s1 = reverse a3\n 75082: i32 a0 = sp + 0x140\n 75086: ecalli 5 // 'caller'\n 75088: a0 = u64 [sp + 0x148]\n 75092: a1 = u64 [sp + 0x140]\n 75096: a2 = i32 [sp + 0x150]\n 75100: a0 = reverse a0\n 75102: a3 = a0 >> 0x20\n 75105: a1 = reverse a1\n 75107: a4 = a1 << 0x20\n 75110: a3 = a3 | a4\n 75113: u64 [sp + 0x68] = a3\n 75116: a0 = a0 << 0x20\n 75119: a2 = reverse a2\n 75121: a2 = a2 >> 0x20\n 75124: a0 = a0 | a2\n 75127: u64 [sp + 0x60] = a0\n 75130: a1 = a1 >> 0x20\n 75133: u64 [sp + 0x58] = a1\n 75136: u64 [sp + 0x48] = s1\n 75139: u64 [sp + 0x198] = s1\n 75143: s1 = u64 [sp + 0x50]\n 75146: a0 = u64 [sp + 0x78]\n 75149: u64 [sp + 0x190] = a0\n 75153: u64 [sp + 0x188] = s1\n 75157: a0 = u64 [sp + 0x70]\n 75160: u64 [sp + 0x180] = a0\n 75164: u64 [sp + 440] = 0\n 75168: u64 [sp + 432] = 0\n 75172: u64 [sp + 424] = 0\n 75176: u64 [sp + 416] = 0\n 75180: u32 [sp + 352] = 0x20\n 75185: i32 a1 = sp + 0x180\n 75189: i32 a3 = sp + 0x1a0\n 75193: i32 a4 = sp + 0x160\n 75197: a2 = 0xffffffffffffffff\n 75200: a0 = 0\n 75202: ecalli 7 // 'get_storage'\n 75204: fallthrough\n      : @985 (gas: 12)\n 75205: a0 = u32 [sp + 0x1b0]\n 75209: a1 = u64 [sp + 0x1a0]\n 75213: a2 = u64 [sp + 0x1a8]\n 75217: a3 = u64 [sp + 0x58]\n 75220: a0 = a0 ^ a3\n 75223: a3 = u64 [sp + 0x60]\n 75226: a1 = a1 ^ a3\n 75229: a0 = a0 | a1\n 75232: a1 = u64 [sp + 0x68]\n 75235: a1 = a1 ^ a2\n 75238: a0 = a0 | a1\n 75241: jump @994 if a0 != 0\n      : @986 (gas: 31)\n 75245: a0 = u64 [sp + 0x70]\n 75248: a1 = a0 + 0x2\n 75251: a0 = a1 <u a0\n 75254: a2 = s1 + a0\n 75257: s1 = a2 <u s1\n 75260: s1 = a0 if a0 == 0\n 75263: a0 = u64 [sp + 0x78]\n 75266: a3 = a0 + s1\n 75269: s1 = a2\n 75271: a0 = a3 <u a0\n 75274: a2 = u64 [sp + 0x48]\n 75277: a0 = a0 + a2\n 75280: u64 [sp + 0x78] = a1\n 75283: u64 [sp + 0x180] = a1\n 75287: u64 [sp + 0x188] = s1\n 75291: u64 [sp + 0x70] = a3\n 75294: u64 [sp + 0x190] = a3\n 75298: u64 [sp + 0x68] = a0\n 75301: u64 [sp + 0x198] = a0\n 75305: u64 [sp + 440] = 0\n 75309: u64 [sp + 432] = 0\n 75313: u64 [sp + 424] = 0\n 75317: u64 [sp + 416] = 0\n 75321: u32 [sp + 352] = 0x20\n 75326: i32 a1 = sp + 0x180\n 75330: i32 a3 = sp + 0x1a0\n 75334: i32 a4 = sp + 0x160\n 75338: a2 = 0xffffffffffffffff\n 75341: a0 = 0\n 75343: ecalli 7 // 'get_storage'\n 75345: fallthrough\n      : @987 (gas: 2)\n 75346: a0 = u8 [sp + 0x1a0]\n 75350: jump @999 if a0 != 0\n      : @988 (gas: 19)\n 75354: a0 = u64 [sp + 0x70]\n 75357: u64 [sp + 0x190] = a0\n 75361: u64 [sp + 0x188] = s1\n 75365: a0 = u64 [sp + 0x78]\n 75368: u64 [sp + 0x180] = a0\n 75372: a0 = u64 [sp + 0x68]\n 75375: u64 [sp + 0x198] = a0\n 75379: u64 [sp + 440] = 0\n 75383: u64 [sp + 432] = 0\n 75387: u64 [sp + 424] = 0\n 75391: u64 [sp + 416] = 0\n 75395: u32 [sp + 352] = 0x20\n 75400: i32 a1 = sp + 0x180\n 75404: i32 a3 = sp + 0x1a0\n 75408: i32 a4 = sp + 0x160\n 75412: a2 = 0xffffffffffffffff\n 75415: a0 = 0\n 75417: ecalli 7 // 'get_storage'\n 75419: fallthrough\n      : @989 (gas: 2)\n 75420: a0 = u8 [sp + 0x1a1]\n 75424: jump @1004 if a0 != 0\n      : @990 (gas: 45)\n 75428: a0 = u64 [sp + 0x70]\n 75431: u64 [sp + 0x190] = a0\n 75435: u64 [sp + 0x188] = s1\n 75439: u64 [sp + 0x60] = s1\n 75442: a0 = u64 [sp + 0x78]\n 75445: u64 [sp + 0x180] = a0\n 75449: s1 = u64 [sp + 0x68]\n 75452: u64 [sp + 0x198] = s1\n 75456: u64 [sp + 440] = 0\n 75460: u64 [sp + 432] = 0\n 75464: u64 [sp + 424] = 0\n 75468: u64 [sp + 416] = 0\n 75472: u32 [sp + 352] = 0x20\n 75477: i32 a1 = sp + 0x180\n 75481: i32 a3 = sp + 0x1a0\n 75485: i32 a4 = sp + 0x160\n 75489: a2 = 0xffffffffffffffff\n 75492: a0 = 0\n 75494: ecalli 7 // 'get_storage'\n 75496: a0 = u64 [sp + 0x1a8]\n 75500: a1 = u64 [sp + 0x1b0]\n 75504: a2 = u64 [sp + 0x1a0]\n 75508: a3 = u64 [sp + 0x1b8]\n 75512: a2 = a2 & 0xffffffffffff00ff\n 75517: a2 = a2 | 0x100\n 75521: u64 [sp + 0x198] = s1\n 75525: a4 = u64 [sp + 0x70]\n 75528: u64 [sp + 0x190] = a4\n 75532: a4 = u64 [sp + 0x60]\n 75535: u64 [sp + 0x188] = a4\n 75539: a4 = u64 [sp + 0x78]\n 75542: u64 [sp + 0x180] = a4\n 75546: u64 [sp + 0x1b8] = a3\n 75550: u64 [sp + 0x1b0] = a1\n 75554: u64 [sp + 0x1a8] = a0\n 75558: u64 [sp + 0x1a0] = a2\n 75562: i32 a1 = sp + 0x180\n 75566: i32 a3 = sp + 0x1a0\n 75570: a2 = 0xffffffffffffffff\n 75573: a4 = 0x20\n 75576: a0 = 0\n 75578: ecalli 15 // 'set_storage'\n 75580: a0 = 0x40\n 75583: a1 = 0x20\n 75586: ra = 896, jump @0\n      : @991 [@dyn 448] (gas: 100)\n 75593: a1 = u8 [a0 + 0x11]\n 75596: a2 = u8 [a0 + 0x10]\n 75599: a3 = u8 [a0 + 0x12]\n 75602: a4 = u8 [a0 + 0x13]\n 75605: a1 = a1 << 0x8\n 75608: a1 = a1 | a2\n 75611: a3 = a3 << 0x10\n 75614: a4 = a4 << 0x18\n 75617: a3 = a3 | a4\n 75620: a1 = a1 | a3\n 75623: a2 = u8 [a0 + 0x15]\n 75626: a3 = u8 [a0 + 0x14]\n 75629: a4 = u8 [a0 + 0x16]\n 75632: a5 = u8 [a0 + 0x17]\n 75635: a2 = a2 << 0x8\n 75638: a2 = a2 | a3\n 75641: a4 = a4 << 0x10\n 75644: a5 = a5 << 0x18\n 75647: a4 = a4 | a5\n 75650: a2 = a2 | a4\n 75653: a2 = a2 << 0x20\n 75656: t0 = a2 | a1\n 75659: a2 = u8 [a0 + 0x1]\n 75662: a3 = u8 [a0]\n 75664: a4 = u8 [a0 + 0x2]\n 75667: a5 = u8 [a0 + 0x3]\n 75670: a2 = a2 << 0x8\n 75673: a2 = a2 | a3\n 75676: a4 = a4 << 0x10\n 75679: a5 = a5 << 0x18\n 75682: a4 = a4 | a5\n 75685: a2 = a2 | a4\n 75688: a3 = u8 [a0 + 0x5]\n 75691: a4 = u8 [a0 + 0x4]\n 75694: a5 = u8 [a0 + 0x6]\n 75697: s1 = u8 [a0 + 0x7]\n 75700: a3 = a3 << 0x8\n 75703: a3 = a3 | a4\n 75706: a5 = a5 << 0x10\n 75709: s1 = s1 << 0x18\n 75712: a5 = a5 | s1\n 75715: a3 = a3 | a5\n 75718: a3 = a3 << 0x20\n 75721: a2 = a2 | a3\n 75724: a3 = u8 [a0 + 0x19]\n 75727: a4 = u8 [a0 + 0x18]\n 75730: a5 = u8 [a0 + 0x1a]\n 75733: s1 = u8 [a0 + 0x1b]\n 75736: a3 = a3 << 0x8\n 75739: a3 = a3 | a4\n 75742: a5 = a5 << 0x10\n 75745: s1 = s1 << 0x18\n 75748: a5 = a5 | s1\n 75751: a3 = a3 | a5\n 75754: a4 = u8 [a0 + 0x1d]\n 75757: a5 = u8 [a0 + 0x1c]\n 75760: s1 = u8 [a0 + 0x1e]\n 75763: a1 = u8 [a0 + 0x1f]\n 75766: a4 = a4 << 0x8\n 75769: a4 = a4 | a5\n 75772: s1 = s1 << 0x10\n 75775: a1 = a1 << 0x18\n 75778: a1 = a1 | s1\n 75781: a1 = a1 | a4\n 75784: a1 = a1 << 0x20\n 75787: a3 = a3 | a1\n 75790: a1 = u8 [a0 + 0x9]\n 75793: a4 = u8 [a0 + 0x8]\n 75796: a5 = u8 [a0 + 0xa]\n 75799: s1 = u8 [a0 + 0xb]\n 75802: a1 = a1 << 0x8\n 75805: a1 = a1 | a4\n 75808: a5 = a5 << 0x10\n 75811: s1 = s1 << 0x18\n 75814: a5 = a5 | s1\n 75817: a1 = a1 | a5\n 75820: a4 = u8 [a0 + 0xd]\n 75823: a5 = u8 [a0 + 0xc]\n 75826: s1 = u8 [a0 + 0xe]\n 75829: a0 = u8 [a0 + 0xf]\n 75832: a4 = a4 << 0x8\n 75835: a4 = a4 | a5\n 75838: s1 = s1 << 0x10\n 75841: a0 = a0 << 0x18\n 75844: a0 = a0 | s1\n 75847: a0 = a0 | a4\n 75850: a0 = a0 << 0x20\n 75853: a0 = a0 | a1\n 75856: a1 = reverse a0\n 75858: a0 = reverse a3\n 75860: a2 = reverse a2\n 75862: a3 = reverse t0\n 75864: a2 = a2 | a3\n 75867: a3 = a0 | a1\n 75870: a3 = a3 | a2\n 75873: a3 = a3 >> 0x20\n 75876: a1 = a1 | a2\n 75879: a1 = a1 << 0x20\n 75882: a1 = a1 | a3\n 75885: jump @1010 if a1 != 0\n      : @992 (gas: 2)\n 75889: i32 a0 = a0 + 0\n 75891: ra = 898, jump @0\n      : @993 [@dyn 449] (gas: 35)\n 75898: a1 = u64 [0x20060]\n 75903: a2 = u64 [0x20068]\n 75908: a3 = u64 [0x20070]\n 75913: a4 = u64 [0x20078]\n 75918: u64 [sp + 0x1b8] = a1\n 75922: u64 [sp + 0x1b0] = a2\n 75926: u64 [sp + 0x1a8] = a3\n 75930: u64 [sp + 0x1a0] = a4\n 75934: a1 = u64 [sp + 0x28]\n 75937: u64 [sp + 0x1d0] = a1\n 75941: a1 = u64 [sp + 0x38]\n 75944: u64 [sp + 0x1c8] = a1\n 75948: a1 = u64 [sp + 0x40]\n 75951: u64 [sp + 0x1c0] = a1\n 75955: a1 = u64 [sp + 0x30]\n 75958: u64 [sp + 0x1d8] = a1\n 75962: a1 = u64 [sp + 0x8]\n 75965: u64 [sp + 0x1f0] = a1\n 75969: a1 = u64 [sp + 0x18]\n 75972: u64 [sp + 0x1e8] = a1\n 75976: a1 = u64 [sp + 0x20]\n 75979: u64 [sp + 0x1e0] = a1\n 75983: a1 = u64 [sp + 0x10]\n 75986: u64 [sp + 0x1f8] = a1\n 75990: i32 a2 = a0 + 0\n 75992: i32 a0 = sp + 0x1a0\n 75996: a1 = 0x3\n 75999: a3 = 0\n 76001: ecalli 6 // 'deposit_event'\n 76003: sp = s0 + 0xfffffffffffffde0\n 76007: ra = u64 [sp + 0x218]\n 76011: s0 = u64 [sp + 0x210]\n 76015: s1 = u64 [sp + 0x208]\n 76019: sp = sp + 0x220\n 76023: ret\n      : @994 (gas: 3)\n 76025: a0 = 0x40\n 76028: a1 = 0x20\n 76031: ra = 900, jump @0\n      : @995 [@dyn 450] (gas: 103)\n 76038: a1 = u8 [a0 + 0x11]\n 76041: a2 = u8 [a0 + 0x10]\n 76044: a3 = u8 [a0 + 0x12]\n 76047: a4 = u8 [a0 + 0x13]\n 76050: a1 = a1 << 0x8\n 76053: a1 = a1 | a2\n 76056: a3 = a3 << 0x10\n 76059: a4 = a4 << 0x18\n 76062: a3 = a3 | a4\n 76065: a1 = a1 | a3\n 76068: a2 = u8 [a0 + 0x15]\n 76071: a3 = u8 [a0 + 0x14]\n 76074: a4 = u8 [a0 + 0x16]\n 76077: a5 = u8 [a0 + 0x17]\n 76080: a2 = a2 << 0x8\n 76083: a2 = a2 | a3\n 76086: a4 = a4 << 0x10\n 76089: a5 = a5 << 0x18\n 76092: a4 = a4 | a5\n 76095: a2 = a2 | a4\n 76098: a2 = a2 << 0x20\n 76101: t0 = a2 | a1\n 76104: a2 = u8 [a0 + 0x1]\n 76107: a3 = u8 [a0]\n 76109: a4 = u8 [a0 + 0x2]\n 76112: a5 = u8 [a0 + 0x3]\n 76115: a2 = a2 << 0x8\n 76118: a2 = a2 | a3\n 76121: a4 = a4 << 0x10\n 76124: a5 = a5 << 0x18\n 76127: a4 = a4 | a5\n 76130: a2 = a2 | a4\n 76133: a3 = u8 [a0 + 0x5]\n 76136: a4 = u8 [a0 + 0x4]\n 76139: a5 = u8 [a0 + 0x6]\n 76142: s1 = u8 [a0 + 0x7]\n 76145: a3 = a3 << 0x8\n 76148: a3 = a3 | a4\n 76151: a5 = a5 << 0x10\n 76154: s1 = s1 << 0x18\n 76157: a5 = a5 | s1\n 76160: a3 = a3 | a5\n 76163: a3 = a3 << 0x20\n 76166: a2 = a2 | a3\n 76169: a3 = u8 [a0 + 0x19]\n 76172: a4 = u8 [a0 + 0x18]\n 76175: a5 = u8 [a0 + 0x1a]\n 76178: s1 = u8 [a0 + 0x1b]\n 76181: a3 = a3 << 0x8\n 76184: a3 = a3 | a4\n 76187: a5 = a5 << 0x10\n 76190: s1 = s1 << 0x18\n 76193: a5 = a5 | s1\n 76196: a3 = a3 | a5\n 76199: a4 = u8 [a0 + 0x1d]\n 76202: a5 = u8 [a0 + 0x1c]\n 76205: s1 = u8 [a0 + 0x1e]\n 76208: a1 = u8 [a0 + 0x1f]\n 76211: a4 = a4 << 0x8\n 76214: a4 = a4 | a5\n 76217: s1 = s1 << 0x10\n 76220: a1 = a1 << 0x18\n 76223: a1 = a1 | s1\n 76226: a1 = a1 | a4\n 76229: a1 = a1 << 0x20\n 76232: a3 = a3 | a1\n 76235: a1 = u8 [a0 + 0x9]\n 76238: a4 = u8 [a0 + 0x8]\n 76241: a5 = u8 [a0 + 0xa]\n 76244: s1 = u8 [a0 + 0xb]\n 76247: a1 = a1 << 0x8\n 76250: a1 = a1 | a4\n 76253: a5 = a5 << 0x10\n 76256: s1 = s1 << 0x18\n 76259: a5 = a5 | s1\n 76262: a1 = a1 | a5\n 76265: a4 = u8 [a0 + 0xd]\n 76268: a5 = u8 [a0 + 0xc]\n 76271: s1 = u8 [a0 + 0xe]\n 76274: a0 = u8 [a0 + 0xf]\n 76277: a4 = a4 << 0x8\n 76280: a4 = a4 | a5\n 76283: s1 = s1 << 0x10\n 76286: a0 = a0 << 0x18\n 76289: a0 = a0 | s1\n 76292: a0 = a0 | a4\n 76295: a0 = a0 << 0x20\n 76298: a0 = a0 | a1\n 76301: s1 = reverse a0\n 76303: a1 = reverse a3\n 76305: a2 = reverse a2\n 76307: a0 = reverse t0\n 76309: u64 [sp + 0x78] = a0\n 76312: u64 [sp + 0x70] = a2\n 76315: a0 = a0 | a2\n 76318: a2 = a1\n 76320: a1 = a1 | s1\n 76323: a1 = a1 | a0\n 76326: a1 = a1 >> 0x20\n 76329: a0 = a0 | s1\n 76332: a0 = a0 << 0x20\n 76335: a0 = a0 | a1\n 76338: jump @1010 if a0 != 0\n      : @996 (gas: 5)\n 76342: u64 [sp + 0x68] = a2\n 76345: i32 a0 = a2 + 0\n 76347: a1 = 0x20\n 76350: u64 [sp + 0x60] = a0\n 76353: ra = 902, jump @0\n      : @997 [@dyn 451] (gas: 50)\n 76360: u8 [a0 + 31] = 0\n 76363: u8 [a0 + 30] = 0\n 76366: u8 [a0 + 29] = 0\n 76369: u8 [a0 + 28] = 0\n 76372: u8 [a0 + 27] = 0\n 76375: u8 [a0 + 26] = 0\n 76378: u8 [a0 + 25] = 0\n 76381: u8 [a0 + 24] = 0\n 76384: u8 [a0 + 23] = 0\n 76387: u8 [a0 + 22] = 0\n 76390: u8 [a0 + 21] = 0\n 76393: u8 [a0 + 20] = 0\n 76396: u8 [a0 + 19] = 0\n 76399: u8 [a0 + 18] = 0\n 76402: u8 [a0 + 17] = 0\n 76405: u8 [a0 + 16] = 0\n 76408: u8 [a0 + 15] = 0\n 76411: u8 [a0 + 14] = 0\n 76414: u8 [a0 + 13] = 0\n 76417: u8 [a0 + 12] = 0\n 76420: u8 [a0 + 11] = 0\n 76423: u8 [a0 + 10] = 0\n 76426: u8 [a0 + 9] = 0\n 76429: u8 [a0 + 8] = 0\n 76432: u8 [a0 + 7] = 0\n 76435: u8 [a0 + 6] = 0\n 76438: u8 [a0 + 5] = 0\n 76441: u8 [a0 + 4] = 0\n 76444: u8 [a0 + 3] = 0xa0\n 76449: u8 [a0 + 2] = 0x79\n 76453: u8 [a0 + 1] = 0xc3\n 76458: u8 [a0 + 0] = 0x8\n 76461: a1 = u64 [sp + 0x68]\n 76464: a0 = a1 + 0x4\n 76467: a1 = a0 <u a1\n 76470: a3 = u64 [sp + 0x78]\n 76473: a2 = a3 + a1\n 76476: a3 = a2 <u a3\n 76479: a3 = a1 if a1 == 0\n 76482: a3 = a3 + s1\n 76485: a1 = a3 <u s1\n 76488: a4 = u64 [sp + 0x70]\n 76491: a4 = a4 + a1\n 76494: u64 [sp + 0x108] = a2\n 76498: u64 [sp + 0x100] = a0\n 76502: u64 [sp + 0x110] = a3\n 76506: a0 = sp + 0x120\n 76510: a1 = sp + 0x100\n 76514: u64 [sp + 0x118] = a4\n 76518: ra = 904, jump @963\n      : @998 [@dyn 452] (gas: 5)\n 76524: a0 = u64 [sp + 0x128]\n 76528: t0 = u64 [sp + 0x138]\n 76532: t1 = u64 [sp + 0x120]\n 76536: a3 = u64 [sp + 0x130]\n 76540: jump @1009\n      : @999 (gas: 3)\n 76543: a0 = 0x40\n 76546: a1 = 0x20\n 76549: ra = 906, jump @0\n      : @1000 [@dyn 453] (gas: 103)\n 76556: a1 = u8 [a0 + 0x11]\n 76559: a2 = u8 [a0 + 0x10]\n 76562: a3 = u8 [a0 + 0x12]\n 76565: a4 = u8 [a0 + 0x13]\n 76568: a1 = a1 << 0x8\n 76571: a1 = a1 | a2\n 76574: a3 = a3 << 0x10\n 76577: a4 = a4 << 0x18\n 76580: a3 = a3 | a4\n 76583: a1 = a1 | a3\n 76586: a2 = u8 [a0 + 0x15]\n 76589: a3 = u8 [a0 + 0x14]\n 76592: a4 = u8 [a0 + 0x16]\n 76595: a5 = u8 [a0 + 0x17]\n 76598: a2 = a2 << 0x8\n 76601: a2 = a2 | a3\n 76604: a4 = a4 << 0x10\n 76607: a5 = a5 << 0x18\n 76610: a4 = a4 | a5\n 76613: a2 = a2 | a4\n 76616: a2 = a2 << 0x20\n 76619: t0 = a2 | a1\n 76622: a2 = u8 [a0 + 0x1]\n 76625: a3 = u8 [a0]\n 76627: a4 = u8 [a0 + 0x2]\n 76630: a5 = u8 [a0 + 0x3]\n 76633: a2 = a2 << 0x8\n 76636: a2 = a2 | a3\n 76639: a4 = a4 << 0x10\n 76642: a5 = a5 << 0x18\n 76645: a4 = a4 | a5\n 76648: a2 = a2 | a4\n 76651: a3 = u8 [a0 + 0x5]\n 76654: a4 = u8 [a0 + 0x4]\n 76657: a5 = u8 [a0 + 0x6]\n 76660: s1 = u8 [a0 + 0x7]\n 76663: a3 = a3 << 0x8\n 76666: a3 = a3 | a4\n 76669: a5 = a5 << 0x10\n 76672: s1 = s1 << 0x18\n 76675: a5 = a5 | s1\n 76678: a3 = a3 | a5\n 76681: a3 = a3 << 0x20\n 76684: a2 = a2 | a3\n 76687: a3 = u8 [a0 + 0x19]\n 76690: a4 = u8 [a0 + 0x18]\n 76693: a5 = u8 [a0 + 0x1a]\n 76696: s1 = u8 [a0 + 0x1b]\n 76699: a3 = a3 << 0x8\n 76702: a3 = a3 | a4\n 76705: a5 = a5 << 0x10\n 76708: s1 = s1 << 0x18\n 76711: a5 = a5 | s1\n 76714: a3 = a3 | a5\n 76717: a4 = u8 [a0 + 0x1d]\n 76720: a5 = u8 [a0 + 0x1c]\n 76723: s1 = u8 [a0 + 0x1e]\n 76726: a1 = u8 [a0 + 0x1f]\n 76729: a4 = a4 << 0x8\n 76732: a4 = a4 | a5\n 76735: s1 = s1 << 0x10\n 76738: a1 = a1 << 0x18\n 76741: a1 = a1 | s1\n 76744: a1 = a1 | a4\n 76747: a1 = a1 << 0x20\n 76750: a3 = a3 | a1\n 76753: a1 = u8 [a0 + 0x9]\n 76756: a4 = u8 [a0 + 0x8]\n 76759: a5 = u8 [a0 + 0xa]\n 76762: s1 = u8 [a0 + 0xb]\n 76765: a1 = a1 << 0x8\n 76768: a1 = a1 | a4\n 76771: a5 = a5 << 0x10\n 76774: s1 = s1 << 0x18\n 76777: a5 = a5 | s1\n 76780: a1 = a1 | a5\n 76783: a4 = u8 [a0 + 0xd]\n 76786: a5 = u8 [a0 + 0xc]\n 76789: s1 = u8 [a0 + 0xe]\n 76792: a0 = u8 [a0 + 0xf]\n 76795: a4 = a4 << 0x8\n 76798: a4 = a4 | a5\n 76801: s1 = s1 << 0x10\n 76804: a0 = a0 << 0x18\n 76807: a0 = a0 | s1\n 76810: a0 = a0 | a4\n 76813: a0 = a0 << 0x20\n 76816: a0 = a0 | a1\n 76819: s1 = reverse a0\n 76821: a1 = reverse a3\n 76823: a2 = reverse a2\n 76825: a0 = reverse t0\n 76827: u64 [sp + 0x78] = a0\n 76830: u64 [sp + 0x70] = a2\n 76833: a0 = a0 | a2\n 76836: a2 = a1\n 76838: a1 = a1 | s1\n 76841: a1 = a1 | a0\n 76844: a1 = a1 >> 0x20\n 76847: a0 = a0 | s1\n 76850: a0 = a0 << 0x20\n 76853: a0 = a0 | a1\n 76856: jump @1010 if a0 != 0\n      : @1001 (gas: 5)\n 76860: u64 [sp + 0x68] = a2\n 76863: i32 a0 = a2 + 0\n 76865: a1 = 0x20\n 76868: u64 [sp + 0x60] = a0\n 76871: ra = 908, jump @0\n      : @1002 [@dyn 454] (gas: 50)\n 76878: u8 [a0 + 31] = 0\n 76881: u8 [a0 + 30] = 0\n 76884: u8 [a0 + 29] = 0\n 76887: u8 [a0 + 28] = 0\n 76890: u8 [a0 + 27] = 0\n 76893: u8 [a0 + 26] = 0\n 76896: u8 [a0 + 25] = 0\n 76899: u8 [a0 + 24] = 0\n 76902: u8 [a0 + 23] = 0\n 76905: u8 [a0 + 22] = 0\n 76908: u8 [a0 + 21] = 0\n 76911: u8 [a0 + 20] = 0\n 76914: u8 [a0 + 19] = 0\n 76917: u8 [a0 + 18] = 0\n 76920: u8 [a0 + 17] = 0\n 76923: u8 [a0 + 16] = 0\n 76926: u8 [a0 + 15] = 0\n 76929: u8 [a0 + 14] = 0\n 76932: u8 [a0 + 13] = 0\n 76935: u8 [a0 + 12] = 0\n 76938: u8 [a0 + 11] = 0\n 76941: u8 [a0 + 10] = 0\n 76944: u8 [a0 + 9] = 0\n 76947: u8 [a0 + 8] = 0\n 76950: u8 [a0 + 7] = 0\n 76953: u8 [a0 + 6] = 0\n 76956: u8 [a0 + 5] = 0\n 76959: u8 [a0 + 4] = 0\n 76962: u8 [a0 + 3] = 0xa0\n 76967: u8 [a0 + 2] = 0x79\n 76971: u8 [a0 + 1] = 0xc3\n 76976: u8 [a0 + 0] = 0x8\n 76979: a1 = u64 [sp + 0x68]\n 76982: a0 = a1 + 0x4\n 76985: a1 = a0 <u a1\n 76988: a3 = u64 [sp + 0x78]\n 76991: a2 = a3 + a1\n 76994: a3 = a2 <u a3\n 76997: a3 = a1 if a1 == 0\n 77000: a3 = a3 + s1\n 77003: a1 = a3 <u s1\n 77006: a4 = u64 [sp + 0x70]\n 77009: a4 = a4 + a1\n 77012: u64 [sp + 0xc8] = a2\n 77016: u64 [sp + 0xc0] = a0\n 77020: u64 [sp + 0xd0] = a3\n 77024: a0 = sp + 0xe0\n 77028: a1 = sp + 0xc0\n 77032: u64 [sp + 0xd8] = a4\n 77036: ra = 910, jump @631\n      : @1003 [@dyn 455] (gas: 5)\n 77043: a0 = u64 [sp + 0xe8]\n 77047: t0 = u64 [sp + 0xf8]\n 77051: t1 = u64 [sp + 0xe0]\n 77055: a3 = u64 [sp + 0xf0]\n 77059: jump @1009\n      : @1004 (gas: 3)\n 77062: a0 = 0x40\n 77065: a1 = 0x20\n 77068: ra = 912, jump @0\n      : @1005 [@dyn 456] (gas: 103)\n 77075: a1 = u8 [a0 + 0x11]\n 77078: a2 = u8 [a0 + 0x10]\n 77081: a3 = u8 [a0 + 0x12]\n 77084: a4 = u8 [a0 + 0x13]\n 77087: a1 = a1 << 0x8\n 77090: a1 = a1 | a2\n 77093: a3 = a3 << 0x10\n 77096: a4 = a4 << 0x18\n 77099: a3 = a3 | a4\n 77102: a1 = a1 | a3\n 77105: a2 = u8 [a0 + 0x15]\n 77108: a3 = u8 [a0 + 0x14]\n 77111: a4 = u8 [a0 + 0x16]\n 77114: a5 = u8 [a0 + 0x17]\n 77117: a2 = a2 << 0x8\n 77120: a2 = a2 | a3\n 77123: a4 = a4 << 0x10\n 77126: a5 = a5 << 0x18\n 77129: a4 = a4 | a5\n 77132: a2 = a2 | a4\n 77135: a2 = a2 << 0x20\n 77138: t0 = a2 | a1\n 77141: a2 = u8 [a0 + 0x1]\n 77144: a3 = u8 [a0]\n 77146: a4 = u8 [a0 + 0x2]\n 77149: a5 = u8 [a0 + 0x3]\n 77152: a2 = a2 << 0x8\n 77155: a2 = a2 | a3\n 77158: a4 = a4 << 0x10\n 77161: a5 = a5 << 0x18\n 77164: a4 = a4 | a5\n 77167: a2 = a2 | a4\n 77170: a3 = u8 [a0 + 0x5]\n 77173: a4 = u8 [a0 + 0x4]\n 77176: a5 = u8 [a0 + 0x6]\n 77179: s1 = u8 [a0 + 0x7]\n 77182: a3 = a3 << 0x8\n 77185: a3 = a3 | a4\n 77188: a5 = a5 << 0x10\n 77191: s1 = s1 << 0x18\n 77194: a5 = a5 | s1\n 77197: a3 = a3 | a5\n 77200: a3 = a3 << 0x20\n 77203: a2 = a2 | a3\n 77206: a3 = u8 [a0 + 0x19]\n 77209: a4 = u8 [a0 + 0x18]\n 77212: a5 = u8 [a0 + 0x1a]\n 77215: s1 = u8 [a0 + 0x1b]\n 77218: a3 = a3 << 0x8\n 77221: a3 = a3 | a4\n 77224: a5 = a5 << 0x10\n 77227: s1 = s1 << 0x18\n 77230: a5 = a5 | s1\n 77233: a3 = a3 | a5\n 77236: a4 = u8 [a0 + 0x1d]\n 77239: a5 = u8 [a0 + 0x1c]\n 77242: s1 = u8 [a0 + 0x1e]\n 77245: a1 = u8 [a0 + 0x1f]\n 77248: a4 = a4 << 0x8\n 77251: a4 = a4 | a5\n 77254: s1 = s1 << 0x10\n 77257: a1 = a1 << 0x18\n 77260: a1 = a1 | s1\n 77263: a1 = a1 | a4\n 77266: a1 = a1 << 0x20\n 77269: a3 = a3 | a1\n 77272: a1 = u8 [a0 + 0x9]\n 77275: a4 = u8 [a0 + 0x8]\n 77278: a5 = u8 [a0 + 0xa]\n 77281: s1 = u8 [a0 + 0xb]\n 77284: a1 = a1 << 0x8\n 77287: a1 = a1 | a4\n 77290: a5 = a5 << 0x10\n 77293: s1 = s1 << 0x18\n 77296: a5 = a5 | s1\n 77299: a1 = a1 | a5\n 77302: a4 = u8 [a0 + 0xd]\n 77305: a5 = u8 [a0 + 0xc]\n 77308: s1 = u8 [a0 + 0xe]\n 77311: a0 = u8 [a0 + 0xf]\n 77314: a4 = a4 << 0x8\n 77317: a4 = a4 | a5\n 77320: s1 = s1 << 0x10\n 77323: a0 = a0 << 0x18\n 77326: a0 = a0 | s1\n 77329: a0 = a0 | a4\n 77332: a0 = a0 << 0x20\n 77335: a0 = a0 | a1\n 77338: s1 = reverse a0\n 77340: a1 = reverse a3\n 77342: a2 = reverse a2\n 77344: a0 = reverse t0\n 77346: u64 [sp + 0x78] = a0\n 77349: u64 [sp + 0x70] = a2\n 77352: a0 = a0 | a2\n 77355: a2 = a1\n 77357: a1 = a1 | s1\n 77360: a1 = a1 | a0\n 77363: a1 = a1 >> 0x20\n 77366: a0 = a0 | s1\n 77369: a0 = a0 << 0x20\n 77372: a0 = a0 | a1\n 77375: jump @1010 if a0 != 0\n      : @1006 (gas: 5)\n 77379: u64 [sp + 0x68] = a2\n 77382: i32 a0 = a2 + 0\n 77384: a1 = 0x20\n 77387: u64 [sp + 0x60] = a0\n 77390: ra = 914, jump @0\n      : @1007 [@dyn 457] (gas: 50)\n 77397: u8 [a0 + 31] = 0\n 77400: u8 [a0 + 30] = 0\n 77403: u8 [a0 + 29] = 0\n 77406: u8 [a0 + 28] = 0\n 77409: u8 [a0 + 27] = 0\n 77412: u8 [a0 + 26] = 0\n 77415: u8 [a0 + 25] = 0\n 77418: u8 [a0 + 24] = 0\n 77421: u8 [a0 + 23] = 0\n 77424: u8 [a0 + 22] = 0\n 77427: u8 [a0 + 21] = 0\n 77430: u8 [a0 + 20] = 0\n 77433: u8 [a0 + 19] = 0\n 77436: u8 [a0 + 18] = 0\n 77439: u8 [a0 + 17] = 0\n 77442: u8 [a0 + 16] = 0\n 77445: u8 [a0 + 15] = 0\n 77448: u8 [a0 + 14] = 0\n 77451: u8 [a0 + 13] = 0\n 77454: u8 [a0 + 12] = 0\n 77457: u8 [a0 + 11] = 0\n 77460: u8 [a0 + 10] = 0\n 77463: u8 [a0 + 9] = 0\n 77466: u8 [a0 + 8] = 0\n 77469: u8 [a0 + 7] = 0\n 77472: u8 [a0 + 6] = 0\n 77475: u8 [a0 + 5] = 0\n 77478: u8 [a0 + 4] = 0\n 77481: u8 [a0 + 3] = 0xa0\n 77486: u8 [a0 + 2] = 0x79\n 77490: u8 [a0 + 1] = 0xc3\n 77495: u8 [a0 + 0] = 0x8\n 77498: a1 = u64 [sp + 0x68]\n 77501: a0 = a1 + 0x4\n 77504: a1 = a0 <u a1\n 77507: a3 = u64 [sp + 0x78]\n 77510: a2 = a3 + a1\n 77513: a3 = a2 <u a3\n 77516: a3 = a1 if a1 == 0\n 77519: a3 = a3 + s1\n 77522: a1 = a3 <u s1\n 77525: a4 = u64 [sp + 0x70]\n 77528: a4 = a4 + a1\n 77531: u64 [sp + 0x88] = a2\n 77535: u64 [sp + 0x80] = a0\n 77539: u64 [sp + 0x90] = a3\n 77543: a0 = sp + 0xa0\n 77547: a1 = sp + 0x80\n 77551: u64 [sp + 0x98] = a4\n 77555: ra = 916, jump @971\n      : @1008 [@dyn 458] (gas: 5)\n 77561: a0 = u64 [sp + 0xa8]\n 77565: t0 = u64 [sp + 0xb8]\n 77569: t1 = u64 [sp + 0xa0]\n 77573: a3 = u64 [sp + 0xb0]\n 77577: fallthrough\n      : @1009 (gas: 26)\n 77578: a1 = u64 [sp + 0x78]\n 77581: a4 = a0 ^ a1\n 77584: a5 = a0 <u a1\n 77587: t2 = a1\n 77589: a2 = u64 [sp + 0x68]\n 77592: a1 = t1 <u a2\n 77595: a5 = a1 if a4 == 0\n 77598: a4 = a3 - s1\n 77601: a3 = a3 <u s1\n 77604: s1 = u64 [sp + 0x70]\n 77607: s1 = t0 - s1\n 77610: s1 = s1 - a3\n 77613: a3 = a4 <u a5\n 77616: s1 = s1 - a3\n 77619: a4 = a4 - a5\n 77622: a0 = a0 - t2\n 77625: a1 = a0 - a1\n 77628: a0 = t1 - a2\n 77631: a1 = a1 | s1\n 77634: a2 = a0 | a4\n 77637: a2 = a2 | a1\n 77640: a1 = a1 | a4\n 77643: a2 = a2 >> 0x20\n 77646: a1 = a1 << 0x20\n 77649: a1 = a1 | a2\n 77652: jump @1011 if a1 == 0\n      : @1010 (gas: 1)\n 77655: trap\n      : @1011 (gas: 4)\n 77656: i32 s1 = a0 + 0\n 77658: a0 = u64 [sp + 0x60]\n 77661: a1 = s1\n 77663: ra = 918, jump @0\n      : @1012 [@dyn 459] (gas: 6)\n 77670: i32 a1 = a0 + 0\n 77672: a0 = 0x1\n 77675: a2 = s1\n 77677: ra = 0x398\n 77681: ecalli 13 // 'seal_return'\n 77683: fallthrough\n      : @1013 [@dyn 460] (gas: 12)\n 77684: a1 = u64 [a0 + 0x10]\n 77687: a2 = u64 [a0 + 0x18]\n 77690: a3 = u64 [a0 + 0x8]\n 77693: a0 = u64 [a0]\n 77695: a2 = a2 | a3\n 77698: a3 = a0 | a1\n 77701: a3 = a3 | a2\n 77704: a3 = a3 >> 0x20\n 77707: a1 = a1 | a2\n 77710: a1 = a1 << 0x20\n 77713: a1 = a1 | a3\n 77716: jump @1016 if a1 != 0\n      : @1014 (gas: 7)\n 77720: sp = sp + 0xfffffffffffffff0\n 77723: u64 [sp + 0x8] = ra\n 77726: u64 [sp] = s0\n 77728: i32 a0 = a0 + 0\n 77730: a1 = 0x20\n 77733: s0 = 0x20\n 77736: ra = 922, jump @0\n      : @1015 [@dyn 461] (gas: 42)\n 77743: u8 [a0 + 31] = 0\n 77746: u8 [a0 + 30] = 0\n 77749: u8 [a0 + 29] = 0\n 77752: u8 [a0 + 28] = 0\n 77755: u8 [a0 + 27] = 0x79\n 77759: u8 [a0 + 26] = 0x74\n 77763: u8 [a0 + 25] = 0x70\n 77767: t0 = 0x6d\n 77770: u8 [a0 + 0x18] = t0\n 77773: u8 [a0 + 23] = 0x65\n 77777: u8 [a0 + 0x16] = s0\n 77780: u8 [a0 + 21] = 0x65\n 77784: u8 [a0 + 20] = 0x62\n 77788: u8 [a0 + 0x13] = s0\n 77791: u8 [a0 + 18] = 0x74\n 77795: u8 [a0 + 17] = 0x6f\n 77799: a4 = 0x6e\n 77802: u8 [a0 + 0x10] = a4\n 77805: u8 [a0 + 0xf] = a4\n 77808: a5 = 0x61\n 77811: u8 [a0 + 0xe] = a5\n 77814: a2 = 0x63\n 77817: u8 [a0 + 0xd] = a2\n 77820: u8 [a0 + 0xc] = s0\n 77823: u8 [a0 + 11] = 0x65\n 77827: u8 [a0 + 0xa] = t0\n 77830: u8 [a0 + 0x9] = a5\n 77833: u8 [a0 + 0x8] = a4\n 77836: u8 [a0 + 0x7] = s0\n 77839: u8 [a0 + 6] = 0x3a\n 77843: a3 = 0x77\n 77846: u8 [a0 + 0x5] = a3\n 77849: u8 [a0 + 4] = 0x6f\n 77853: u8 [a0 + 3] = 0x72\n 77857: u8 [a0 + 0x2] = a2\n 77860: u8 [a0 + 1] = 0x73\n 77864: a1 = 0x45\n 77867: u8 [a0] = a1\n 77869: ra = u64 [sp + 0x8]\n 77872: s0 = u64 [sp]\n 77874: sp = sp + 0x10\n 77877: ret\n      : @1016 (gas: 1)\n 77879: trap\n      : @1017 (gas: 17)\n 77880: sp = sp + 0xffffffffffffffa0\n 77883: u64 [sp + 0x58] = ra\n 77886: u64 [sp + 0x50] = s0\n 77889: u64 [sp + 0x48] = s1\n 77892: a3 = u64 [a1 + 0x18]\n 77895: a4 = u64 [a1 + 0x10]\n 77898: a5 = u64 [a1 + 0x8]\n 77901: s1 = u64 [a1]\n 77903: a1 = a5 | a3\n 77906: a2 = s1 | a4\n 77909: a2 = a2 | a1\n 77912: a2 = a2 >> 0x20\n 77915: a1 = a1 | a4\n 77918: a1 = a1 << 0x20\n 77921: a1 = a1 | a2\n 77924: u64 [sp + 0x28] = a0\n 77927: jump @1024 if a1 != 0\n      : @1018 (gas: 19)\n 77931: a0 = s1 + 0x20\n 77934: u64 [sp + 0x30] = a0\n 77937: a0 = a0 <u s1\n 77940: a1 = a5 + a0\n 77943: u64 [sp + 0x40] = a1\n 77946: u64 [sp + 0x8] = a5\n 77949: s0 = a1 <u a5\n 77952: s0 = a0 if a0 == 0\n 77955: s0 = s0 + a4\n 77958: u64 [sp + 0x10] = a4\n 77961: a0 = s0 <u a4\n 77964: u64 [sp + 0x18] = a3\n 77967: a0 = a0 + a3\n 77970: u64 [sp + 0x38] = a0\n 77973: u64 [sp] = s1\n 77975: i32 a0 = s1 + 0\n 77977: a1 = 0x20\n 77980: s1 = 0x20\n 77983: ra = 924, jump @0\n      : @1019 [@dyn 462] (gas: 45)\n 77990: u8 [a0 + 0x1f] = s1\n 77993: a1 = u64 [sp + 0x30]\n 77996: s1 = a1\n 77998: a1 = a1 | s0\n 78001: a2 = u64 [sp + 0x40]\n 78004: a4 = u64 [sp + 0x38]\n 78007: a2 = a2 | a4\n 78010: a1 = a1 | a2\n 78013: a1 = a1 >> 0x20\n 78016: u64 [sp + 0x20] = s0\n 78019: a2 = a2 | s0\n 78022: a2 = a2 << 0x20\n 78025: a1 = a1 | a2\n 78028: u8 [a0 + 30] = 0\n 78031: u8 [a0 + 29] = 0\n 78034: u8 [a0 + 28] = 0\n 78037: u8 [a0 + 27] = 0\n 78040: u8 [a0 + 26] = 0\n 78043: u8 [a0 + 25] = 0\n 78046: u8 [a0 + 24] = 0\n 78049: u8 [a0 + 23] = 0\n 78052: u8 [a0 + 22] = 0\n 78055: u8 [a0 + 21] = 0\n 78058: u8 [a0 + 20] = 0\n 78061: u8 [a0 + 19] = 0\n 78064: u8 [a0 + 18] = 0\n 78067: u8 [a0 + 17] = 0\n 78070: u8 [a0 + 16] = 0\n 78073: u8 [a0 + 15] = 0\n 78076: u8 [a0 + 14] = 0\n 78079: u8 [a0 + 13] = 0\n 78082: u8 [a0 + 12] = 0\n 78085: u8 [a0 + 11] = 0\n 78088: u8 [a0 + 10] = 0\n 78091: u8 [a0 + 9] = 0\n 78094: u8 [a0 + 8] = 0\n 78097: u8 [a0 + 7] = 0\n 78100: u8 [a0 + 6] = 0\n 78103: u8 [a0 + 5] = 0\n 78106: u8 [a0 + 4] = 0\n 78109: u8 [a0 + 3] = 0\n 78112: u8 [a0 + 2] = 0\n 78115: u8 [a0 + 1] = 0\n 78118: u8 [a0 + 0] = 0\n 78120: jump @1024 if a1 != 0\n      : @1020 (gas: 4)\n 78124: i32 s0 = s1 + 0\n 78126: a1 = 0x20\n 78129: a0 = s0\n 78131: ra = 926, jump @0\n      : @1021 [@dyn 463] (gas: 41)\n 78138: u8 [a0 + 31] = 0x1c\n 78142: u8 [a0 + 30] = 0\n 78145: u8 [a0 + 29] = 0\n 78148: u8 [a0 + 28] = 0\n 78151: u8 [a0 + 27] = 0\n 78154: u8 [a0 + 26] = 0\n 78157: u8 [a0 + 25] = 0\n 78160: u8 [a0 + 24] = 0\n 78163: u8 [a0 + 23] = 0\n 78166: u8 [a0 + 22] = 0\n 78169: u8 [a0 + 21] = 0\n 78172: u8 [a0 + 20] = 0\n 78175: u8 [a0 + 19] = 0\n 78178: u8 [a0 + 18] = 0\n 78181: u8 [a0 + 17] = 0\n 78184: u8 [a0 + 16] = 0\n 78187: u8 [a0 + 15] = 0\n 78190: u8 [a0 + 14] = 0\n 78193: u8 [a0 + 13] = 0\n 78196: u8 [a0 + 12] = 0\n 78199: u8 [a0 + 11] = 0\n 78202: u8 [a0 + 10] = 0\n 78205: u8 [a0 + 9] = 0\n 78208: u8 [a0 + 8] = 0\n 78211: u8 [a0 + 7] = 0\n 78214: u8 [a0 + 6] = 0\n 78217: u8 [a0 + 5] = 0\n 78220: u8 [a0 + 4] = 0\n 78223: u8 [a0 + 3] = 0\n 78226: u8 [a0 + 2] = 0\n 78229: u8 [a0 + 1] = 0\n 78232: a1 = u64 [sp + 0x20]\n 78235: a2 = u64 [sp + 0x38]\n 78238: a1 = a1 | a2\n 78241: a2 = 0xffffffe0\n 78251: a2 = s1 <u a2\n 78254: a3 = u64 [sp + 0x40]\n 78257: a2 = 0 if a3 != 0\n 78259: a2 = 0 if a1 != 0\n 78261: u8 [a0 + 0] = 0\n 78263: jump @1024 if a2 == 0\n      : @1022 (gas: 3)\n 78267: i32 a0 = s0 + 0x20\n 78270: a1 = 0x20\n 78273: ra = 928, jump @0\n      : @1023 [@dyn 464] (gas: 54)\n 78280: u8 [a0 + 27] = 0x79\n 78284: u8 [a0 + 25] = 0x70\n 78288: u8 [a0 + 20] = 0x62\n 78292: u8 [a0 + 26] = 0x74\n 78296: u8 [a0 + 18] = 0x74\n 78300: u8 [a0 + 23] = 0x65\n 78304: u8 [a0 + 21] = 0x65\n 78308: u8 [a0 + 11] = 0x65\n 78312: u8 [a0 + 24] = 0x6d\n 78316: u8 [a0 + 10] = 0x6d\n 78320: u8 [a0 + 14] = 0x61\n 78324: u8 [a0 + 9] = 0x61\n 78328: u8 [a0 + 16] = 0x6e\n 78332: u8 [a0 + 15] = 0x6e\n 78336: u8 [a0 + 8] = 0x6e\n 78340: u8 [a0 + 31] = 0\n 78343: u8 [a0 + 30] = 0\n 78346: u8 [a0 + 29] = 0\n 78349: u8 [a0 + 28] = 0\n 78352: u8 [a0 + 22] = 0x20\n 78356: u8 [a0 + 19] = 0x20\n 78360: u8 [a0 + 12] = 0x20\n 78364: u8 [a0 + 7] = 0x20\n 78368: u8 [a0 + 6] = 0x3a\n 78372: u8 [a0 + 5] = 0x77\n 78376: u8 [a0 + 17] = 0x6f\n 78380: u8 [a0 + 4] = 0x6f\n 78384: u8 [a0 + 3] = 0x72\n 78388: u8 [a0 + 13] = 0x63\n 78392: u8 [a0 + 2] = 0x63\n 78396: u8 [a0 + 1] = 0x73\n 78400: u8 [a0 + 0] = 0x45\n 78403: a1 = u64 [sp]\n 78405: a0 = a1 + 0x60\n 78408: a1 = a0 <u a1\n 78411: a3 = u64 [sp + 0x8]\n 78414: a2 = a3 + a1\n 78417: a3 = a2 <u a3\n 78420: a3 = a1 if a1 == 0\n 78423: a1 = u64 [sp + 0x10]\n 78426: a3 = a3 + a1\n 78429: a1 = a3 <u a1\n 78432: a4 = u64 [sp + 0x18]\n 78435: a1 = a1 + a4\n 78438: a4 = u64 [sp + 0x28]\n 78441: u64 [a4] = a0\n 78443: u64 [a4 + 0x8] = a2\n 78446: u64 [a4 + 0x10] = a3\n 78449: u64 [a4 + 0x18] = a1\n 78452: ra = u64 [sp + 0x58]\n 78455: s0 = u64 [sp + 0x50]\n 78458: s1 = u64 [sp + 0x48]\n 78461: sp = sp + 0x60\n 78464: ret\n      : @1024 (gas: 1)\n 78466: trap\n      : @1025 (gas: 17)\n 78467: sp = sp + 0xffffffffffffffa0\n 78470: u64 [sp + 0x58] = ra\n 78473: u64 [sp + 0x50] = s0\n 78476: u64 [sp + 0x48] = s1\n 78479: a3 = u64 [a1 + 0x18]\n 78482: a4 = u64 [a1 + 0x10]\n 78485: a5 = u64 [a1 + 0x8]\n 78488: s1 = u64 [a1]\n 78490: a1 = a5 | a3\n 78493: a2 = s1 | a4\n 78496: a2 = a2 | a1\n 78499: a2 = a2 >> 0x20\n 78502: a1 = a1 | a4\n 78505: a1 = a1 << 0x20\n 78508: a1 = a1 | a2\n 78511: u64 [sp + 0x20] = a0\n 78514: jump @1034 if a1 != 0\n      : @1026 (gas: 19)\n 78518: a0 = s1 + 0x20\n 78521: u64 [sp + 0x38] = a0\n 78524: a0 = a0 <u s1\n 78527: a1 = a5 + a0\n 78530: u64 [sp + 0x40] = a1\n 78533: u64 [sp + 0x8] = a5\n 78536: s0 = a1 <u a5\n 78539: s0 = a0 if a0 == 0\n 78542: s0 = s0 + a4\n 78545: u64 [sp + 0x10] = a4\n 78548: a0 = s0 <u a4\n 78551: u64 [sp + 0x18] = a3\n 78554: a0 = a0 + a3\n 78557: u64 [sp + 0x30] = a0\n 78560: u64 [sp] = s1\n 78562: i32 a0 = s1 + 0\n 78564: a1 = 0x20\n 78567: s1 = 0x20\n 78570: ra = 930, jump @0\n      : @1027 [@dyn 465] (gas: 43)\n 78577: u8 [a0 + 0x1f] = s1\n 78580: a1 = u64 [sp + 0x38]\n 78583: a1 = a1 | s0\n 78586: a2 = u64 [sp + 0x40]\n 78589: a3 = u64 [sp + 0x30]\n 78592: a2 = a2 | a3\n 78595: a1 = a1 | a2\n 78598: a1 = a1 >> 0x20\n 78601: a2 = a2 | s0\n 78604: a2 = a2 << 0x20\n 78607: a1 = a1 | a2\n 78610: u8 [a0 + 30] = 0\n 78613: u8 [a0 + 29] = 0\n 78616: u8 [a0 + 28] = 0\n 78619: u8 [a0 + 27] = 0\n 78622: u8 [a0 + 26] = 0\n 78625: u8 [a0 + 25] = 0\n 78628: u8 [a0 + 24] = 0\n 78631: u8 [a0 + 23] = 0\n 78634: u8 [a0 + 22] = 0\n 78637: u8 [a0 + 21] = 0\n 78640: u8 [a0 + 20] = 0\n 78643: u8 [a0 + 19] = 0\n 78646: u8 [a0 + 18] = 0\n 78649: u8 [a0 + 17] = 0\n 78652: u8 [a0 + 16] = 0\n 78655: u8 [a0 + 15] = 0\n 78658: u8 [a0 + 14] = 0\n 78661: u8 [a0 + 13] = 0\n 78664: u8 [a0 + 12] = 0\n 78667: u8 [a0 + 11] = 0\n 78670: u8 [a0 + 10] = 0\n 78673: u8 [a0 + 9] = 0\n 78676: u8 [a0 + 8] = 0\n 78679: u8 [a0 + 7] = 0\n 78682: u8 [a0 + 6] = 0\n 78685: u8 [a0 + 5] = 0\n 78688: u8 [a0 + 4] = 0\n 78691: u8 [a0 + 3] = 0\n 78694: u8 [a0 + 2] = 0\n 78697: u8 [a0 + 1] = 0\n 78700: u8 [a0 + 0] = 0\n 78702: jump @1034 if a1 != 0\n      : @1028 (gas: 6)\n 78706: s1 = s0\n 78708: s0 = u64 [sp + 0x38]\n 78711: i32 a0 = s0 + 0\n 78713: a1 = 0x20\n 78716: u64 [sp + 0x28] = a0\n 78719: ra = 932, jump @0\n      : @1029 [@dyn 466] (gas: 42)\n 78726: u8 [a0 + 31] = 0x2c\n 78730: u8 [a0 + 30] = 0\n 78733: u8 [a0 + 29] = 0\n 78736: u8 [a0 + 28] = 0\n 78739: u8 [a0 + 27] = 0\n 78742: u8 [a0 + 26] = 0\n 78745: u8 [a0 + 25] = 0\n 78748: u8 [a0 + 24] = 0\n 78751: u8 [a0 + 23] = 0\n 78754: u8 [a0 + 22] = 0\n 78757: u8 [a0 + 21] = 0\n 78760: u8 [a0 + 20] = 0\n 78763: u8 [a0 + 19] = 0\n 78766: u8 [a0 + 18] = 0\n 78769: u8 [a0 + 17] = 0\n 78772: u8 [a0 + 16] = 0\n 78775: u8 [a0 + 15] = 0\n 78778: u8 [a0 + 14] = 0\n 78781: u8 [a0 + 13] = 0\n 78784: u8 [a0 + 12] = 0\n 78787: u8 [a0 + 11] = 0\n 78790: u8 [a0 + 10] = 0\n 78793: u8 [a0 + 9] = 0\n 78796: u8 [a0 + 8] = 0\n 78799: u8 [a0 + 7] = 0\n 78802: u8 [a0 + 6] = 0\n 78805: u8 [a0 + 5] = 0\n 78808: u8 [a0 + 4] = 0\n 78811: u8 [a0 + 3] = 0\n 78814: u8 [a0 + 2] = 0\n 78817: u8 [a0 + 1] = 0\n 78820: a1 = u64 [sp + 0x30]\n 78823: a3 = s1 | a1\n 78826: s1 = 0x100000000\n 78836: a1 = 0xffffffe0\n 78846: a1 = s0 <u a1\n 78849: a2 = u64 [sp + 0x40]\n 78852: a1 = 0 if a2 != 0\n 78854: u64 [sp + 0x30] = a3\n 78857: a1 = 0 if a3 != 0\n 78859: u8 [a0 + 0] = 0\n 78861: jump @1034 if a1 == 0\n      : @1030 (gas: 4)\n 78865: a0 = u64 [sp + 0x28]\n 78868: i32 a0 = a0 + 0x20\n 78871: a1 = 0x20\n 78874: ra = 934, jump @0\n      : @1031 [@dyn 467] (gas: 43)\n 78881: u8 [a0 + 28] = 0x6c\n 78885: u8 [a0 + 21] = 0x76\n 78889: u8 [a0 + 14] = 0x6d\n 78893: u8 [a0 + 11] = 0x6b\n 78897: u8 [a0 + 30] = 0x61\n 78901: u8 [a0 + 25] = 0x61\n 78905: u8 [a0 + 10] = 0x61\n 78909: u8 [a0 + 31] = 0x73\n 78913: u8 [a0 + 27] = 0x20\n 78917: u8 [a0 + 24] = 0x20\n 78921: u8 [a0 + 18] = 0x20\n 78925: u8 [a0 + 13] = 0x20\n 78929: u8 [a0 + 7] = 0x20\n 78933: u8 [a0 + 6] = 0x3a\n 78937: u8 [a0 + 5] = 0x77\n 78941: u8 [a0 + 19] = 0x63\n 78945: u8 [a0 + 2] = 0x63\n 78949: s0 = 0x65\n 78952: u8 [a0 + 0x1d] = s0\n 78955: u8 [a0 + 16] = 0x73\n 78959: u8 [a0 + 8] = 0x73\n 78963: u8 [a0 + 1] = 0x73\n 78967: u8 [a0 + 0] = 0x45\n 78970: u8 [a0 + 26] = 0x74\n 78974: a1 = s1 + 0xffffffffffffffc0\n 78977: a2 = u64 [sp + 0x38]\n 78980: a1 = a2 <u a1\n 78983: s1 = 0x72\n 78986: u8 [a0 + 0x17] = s1\n 78989: u8 [a0 + 0x16] = s0\n 78992: a2 = u64 [sp + 0x40]\n 78995: a1 = 0 if a2 != 0\n 78997: a4 = 0x6f\n 79000: u8 [a0 + 0x14] = a4\n 79003: u8 [a0 + 17] = 0x74\n 79007: a2 = u64 [sp + 0x30]\n 79010: a1 = 0 if a2 != 0\n 79012: u8 [a0 + 15] = 0x75\n 79016: u8 [a0 + 0xc] = s0\n 79019: u8 [a0 + 9] = 0x74\n 79023: u8 [a0 + 0x4] = a4\n 79026: u8 [a0 + 0x3] = s1\n 79029: jump @1034 if a1 == 0\n      : @1032 (gas: 4)\n 79033: a0 = u64 [sp + 0x28]\n 79036: i32 a0 = a0 + 0x40\n 79039: a1 = 0x20\n 79042: ra = 936, jump @0\n      : @1033 [@dyn 468] (gas: 54)\n 79049: u8 [a0 + 11] = 0x64\n 79053: u8 [a0 + 9] = 0x75\n 79057: u8 [a0 + 8] = 0x66\n 79061: u8 [a0 + 0x6] = s1\n 79064: u8 [a0 + 0x7] = s0\n 79067: u8 [a0 + 0x4] = s0\n 79070: u8 [a0 + 10] = 0x6e\n 79074: u8 [a0 + 3] = 0x6e\n 79078: u8 [a0 + 2] = 0x6f\n 79082: u8 [a0 + 5] = 0x20\n 79086: u8 [a0 + 1] = 0x20\n 79090: u8 [a0 + 31] = 0\n 79093: u8 [a0 + 30] = 0\n 79096: u8 [a0 + 29] = 0\n 79099: u8 [a0 + 28] = 0\n 79102: u8 [a0 + 27] = 0\n 79105: u8 [a0 + 26] = 0\n 79108: u8 [a0 + 25] = 0\n 79111: u8 [a0 + 24] = 0\n 79114: u8 [a0 + 23] = 0\n 79117: u8 [a0 + 22] = 0\n 79120: u8 [a0 + 21] = 0\n 79123: u8 [a0 + 20] = 0\n 79126: u8 [a0 + 19] = 0\n 79129: u8 [a0 + 18] = 0\n 79132: u8 [a0 + 17] = 0\n 79135: u8 [a0 + 16] = 0\n 79138: u8 [a0 + 15] = 0\n 79141: u8 [a0 + 14] = 0\n 79144: u8 [a0 + 13] = 0\n 79147: u8 [a0 + 12] = 0\n 79150: u8 [a0 + 0] = 0x74\n 79153: a1 = u64 [sp]\n 79155: a0 = a1 + 0x80\n 79159: a1 = a0 <u a1\n 79162: a3 = u64 [sp + 0x8]\n 79165: a2 = a3 + a1\n 79168: a3 = a2 <u a3\n 79171: a3 = a1 if a1 == 0\n 79174: a1 = u64 [sp + 0x10]\n 79177: a3 = a3 + a1\n 79180: a1 = a3 <u a1\n 79183: a4 = u64 [sp + 0x18]\n 79186: a1 = a1 + a4\n 79189: a4 = u64 [sp + 0x20]\n 79192: u64 [a4] = a0\n 79194: u64 [a4 + 0x8] = a2\n 79197: u64 [a4 + 0x10] = a3\n 79200: u64 [a4 + 0x18] = a1\n 79203: ra = u64 [sp + 0x58]\n 79206: s0 = u64 [sp + 0x50]\n 79209: s1 = u64 [sp + 0x48]\n 79212: sp = sp + 0x60\n 79215: ret\n      : @1034 (gas: 1)\n 79217: trap\n      : @1035 (gas: 17)\n 79218: sp = sp + 0xffffffffffffffa0\n 79221: u64 [sp + 0x58] = ra\n 79224: u64 [sp + 0x50] = s0\n 79227: u64 [sp + 0x48] = s1\n 79230: a3 = u64 [a1 + 0x18]\n 79233: a4 = u64 [a1 + 0x10]\n 79236: a5 = u64 [a1 + 0x8]\n 79239: s1 = u64 [a1]\n 79241: a1 = a5 | a3\n 79244: a2 = s1 | a4\n 79247: a2 = a2 | a1\n 79250: a2 = a2 >> 0x20\n 79253: a1 = a1 | a4\n 79256: a1 = a1 << 0x20\n 79259: a1 = a1 | a2\n 79262: u64 [sp + 0x28] = a0\n 79265: jump @1044 if a1 != 0\n      : @1036 (gas: 19)\n 79269: a0 = s1 + 0x20\n 79272: u64 [sp + 0x40] = a0\n 79275: a0 = a0 <u s1\n 79278: a1 = a5 + a0\n 79281: u64 [sp + 0x38] = a1\n 79284: u64 [sp + 0x10] = a5\n 79287: s0 = a1 <u a5\n 79290: s0 = a0 if a0 == 0\n 79293: s0 = s0 + a4\n 79296: u64 [sp + 0x18] = a4\n 79299: a0 = s0 <u a4\n 79302: u64 [sp + 0x20] = a3\n 79305: a0 = a0 + a3\n 79308: u64 [sp + 0x30] = a0\n 79311: u64 [sp + 0x8] = s1\n 79314: i32 a0 = s1 + 0\n 79316: a1 = 0x20\n 79319: s1 = 0x20\n 79322: ra = 938, jump @0\n      : @1037 [@dyn 469] (gas: 43)\n 79329: u8 [a0 + 0x1f] = s1\n 79332: a1 = u64 [sp + 0x40]\n 79335: a1 = a1 | s0\n 79338: a2 = u64 [sp + 0x38]\n 79341: a3 = u64 [sp + 0x30]\n 79344: a2 = a2 | a3\n 79347: a1 = a1 | a2\n 79350: a1 = a1 >> 0x20\n 79353: a2 = a2 | s0\n 79356: a2 = a2 << 0x20\n 79359: a1 = a1 | a2\n 79362: u8 [a0 + 30] = 0\n 79365: u8 [a0 + 29] = 0\n 79368: u8 [a0 + 28] = 0\n 79371: u8 [a0 + 27] = 0\n 79374: u8 [a0 + 26] = 0\n 79377: u8 [a0 + 25] = 0\n 79380: u8 [a0 + 24] = 0\n 79383: u8 [a0 + 23] = 0\n 79386: u8 [a0 + 22] = 0\n 79389: u8 [a0 + 21] = 0\n 79392: u8 [a0 + 20] = 0\n 79395: u8 [a0 + 19] = 0\n 79398: u8 [a0 + 18] = 0\n 79401: u8 [a0 + 17] = 0\n 79404: u8 [a0 + 16] = 0\n 79407: u8 [a0 + 15] = 0\n 79410: u8 [a0 + 14] = 0\n 79413: u8 [a0 + 13] = 0\n 79416: u8 [a0 + 12] = 0\n 79419: u8 [a0 + 11] = 0\n 79422: u8 [a0 + 10] = 0\n 79425: u8 [a0 + 9] = 0\n 79428: u8 [a0 + 8] = 0\n 79431: u8 [a0 + 7] = 0\n 79434: u8 [a0 + 6] = 0\n 79437: u8 [a0 + 5] = 0\n 79440: u8 [a0 + 4] = 0\n 79443: u8 [a0 + 3] = 0\n 79446: u8 [a0 + 2] = 0\n 79449: u8 [a0 + 1] = 0\n 79452: u8 [a0 + 0] = 0\n 79454: jump @1044 if a1 != 0\n      : @1038 (gas: 6)\n 79458: s1 = s0\n 79460: s0 = u64 [sp + 0x40]\n 79463: i32 a0 = s0 + 0\n 79465: a1 = 0x20\n 79468: u64 [sp] = a0\n 79470: ra = 940, jump @0\n      : @1039 [@dyn 470] (gas: 42)\n 79477: u8 [a0 + 31] = 0x22\n 79481: u8 [a0 + 30] = 0\n 79484: u8 [a0 + 29] = 0\n 79487: u8 [a0 + 28] = 0\n 79490: u8 [a0 + 27] = 0\n 79493: u8 [a0 + 26] = 0\n 79496: u8 [a0 + 25] = 0\n 79499: u8 [a0 + 24] = 0\n 79502: u8 [a0 + 23] = 0\n 79505: u8 [a0 + 22] = 0\n 79508: u8 [a0 + 21] = 0\n 79511: u8 [a0 + 20] = 0\n 79514: u8 [a0 + 19] = 0\n 79517: u8 [a0 + 18] = 0\n 79520: u8 [a0 + 17] = 0\n 79523: u8 [a0 + 16] = 0\n 79526: u8 [a0 + 15] = 0\n 79529: u8 [a0 + 14] = 0\n 79532: u8 [a0 + 13] = 0\n 79535: u8 [a0 + 12] = 0\n 79538: u8 [a0 + 11] = 0\n 79541: u8 [a0 + 10] = 0\n 79544: u8 [a0 + 9] = 0\n 79547: u8 [a0 + 8] = 0\n 79550: u8 [a0 + 7] = 0\n 79553: u8 [a0 + 6] = 0\n 79556: u8 [a0 + 5] = 0\n 79559: u8 [a0 + 4] = 0\n 79562: u8 [a0 + 3] = 0\n 79565: u8 [a0 + 2] = 0\n 79568: u8 [a0 + 1] = 0\n 79571: a1 = u64 [sp + 0x30]\n 79574: a3 = s1 | a1\n 79577: s1 = 0x100000000\n 79587: a1 = 0xffffffe0\n 79597: a1 = s0 <u a1\n 79600: a2 = u64 [sp + 0x38]\n 79603: a1 = 0 if a2 != 0\n 79605: u64 [sp + 0x30] = a3\n 79608: a1 = 0 if a3 != 0\n 79610: u8 [a0 + 0] = 0\n 79612: jump @1044 if a1 == 0\n      : @1040 (gas: 4)\n 79616: s0 = u64 [sp]\n 79618: i32 a0 = s0 + 0x20\n 79621: a1 = 0x20\n 79624: ra = 942, jump @0\n      : @1041 [@dyn 471] (gas: 42)\n 79631: u8 [a0 + 31] = 0x6b\n 79635: u8 [a0 + 30] = 0x61\n 79639: u8 [a0 + 29] = 0x74\n 79643: u8 [a0 + 28] = 0x20\n 79647: u8 [a0 + 27] = 0x79\n 79651: u8 [a0 + 26] = 0x64\n 79655: u8 [a0 + 25] = 0x61\n 79659: a5 = 0x65\n 79662: u8 [a0 + 0x18] = a5\n 79665: u8 [a0 + 23] = 0x72\n 79669: u8 [a0 + 22] = 0x6c\n 79673: u8 [a0 + 21] = 0x61\n 79677: u8 [a0 + 20] = 0x20\n 79681: u8 [a0 + 0x13] = a5\n 79684: u8 [a0 + 18] = 0x6d\n 79688: u8 [a0 + 17] = 0x61\n 79692: u8 [a0 + 16] = 0x6e\n 79696: u8 [a0 + 15] = 0x20\n 79700: u8 [a0 + 0xe] = a5\n 79703: u8 [a0 + 13] = 0x63\n 79707: u8 [a0 + 12] = 0x69\n 79711: u8 [a0 + 11] = 0x76\n 79715: u8 [a0 + 10] = 0x72\n 79719: u8 [a0 + 0x9] = a5\n 79722: u8 [a0 + 8] = 0x73\n 79726: u8 [a0 + 7] = 0x20\n 79730: u8 [a0 + 6] = 0x3a\n 79734: u8 [a0 + 5] = 0x77\n 79738: a4 = 0x6f\n 79741: u8 [a0 + 0x4] = a4\n 79744: u8 [a0 + 3] = 0x72\n 79748: u8 [a0 + 2] = 0x63\n 79752: u8 [a0 + 1] = 0x73\n 79756: a2 = s1 + 0xffffffffffffffc0\n 79759: a3 = u64 [sp + 0x40]\n 79762: a2 = a3 <u a2\n 79765: a3 = u64 [sp + 0x38]\n 79768: a2 = 0 if a3 != 0\n 79770: a3 = u64 [sp + 0x30]\n 79773: a2 = 0 if a3 != 0\n 79775: u8 [a0 + 0] = 0x45\n 79778: jump @1044 if a2 == 0\n      : @1042 (gas: 3)\n 79782: i32 a0 = s0 + 0x40\n 79785: a1 = 0x20\n 79788: ra = 944, jump @0\n      : @1043 [@dyn 472] (gas: 54)\n 79795: u8 [a0 + 31] = 0\n 79798: u8 [a0 + 30] = 0\n 79801: u8 [a0 + 29] = 0\n 79804: u8 [a0 + 28] = 0\n 79807: u8 [a0 + 27] = 0\n 79810: u8 [a0 + 26] = 0\n 79813: u8 [a0 + 25] = 0\n 79816: u8 [a0 + 24] = 0\n 79819: u8 [a0 + 23] = 0\n 79822: u8 [a0 + 22] = 0\n 79825: u8 [a0 + 21] = 0\n 79828: u8 [a0 + 20] = 0\n 79831: u8 [a0 + 19] = 0\n 79834: u8 [a0 + 18] = 0\n 79837: u8 [a0 + 17] = 0\n 79840: u8 [a0 + 16] = 0\n 79843: u8 [a0 + 15] = 0\n 79846: u8 [a0 + 14] = 0\n 79849: u8 [a0 + 13] = 0\n 79852: u8 [a0 + 12] = 0\n 79855: u8 [a0 + 11] = 0\n 79858: u8 [a0 + 10] = 0\n 79861: u8 [a0 + 9] = 0\n 79864: u8 [a0 + 8] = 0\n 79867: u8 [a0 + 7] = 0\n 79870: u8 [a0 + 6] = 0\n 79873: u8 [a0 + 5] = 0\n 79876: u8 [a0 + 4] = 0\n 79879: u8 [a0 + 3] = 0\n 79882: u8 [a0 + 2] = 0\n 79885: u8 [a0 + 1] = 0x6e\n 79889: u8 [a0 + 0] = 0x65\n 79892: a1 = u64 [sp + 0x8]\n 79895: a0 = a1 + 0x80\n 79899: a1 = a0 <u a1\n 79902: a3 = u64 [sp + 0x10]\n 79905: a2 = a3 + a1\n 79908: a3 = a2 <u a3\n 79911: a3 = a1 if a1 == 0\n 79914: a1 = u64 [sp + 0x18]\n 79917: a3 = a3 + a1\n 79920: a1 = a3 <u a1\n 79923: a4 = u64 [sp + 0x20]\n 79926: a1 = a1 + a4\n 79929: a4 = u64 [sp + 0x28]\n 79932: u64 [a4] = a0\n 79934: u64 [a4 + 0x8] = a2\n 79937: u64 [a4 + 0x10] = a3\n 79940: u64 [a4 + 0x18] = a1\n 79943: ra = u64 [sp + 0x58]\n 79946: s0 = u64 [sp + 0x50]\n 79949: s1 = u64 [sp + 0x48]\n 79952: sp = sp + 0x60\n 79955: ret\n      : @1044 (gas: 1)\n 79957: trap\n      : @1045 (gas: 21)\n 79958: sp = sp + 0xfffffffffffffd40\n 79962: u64 [sp + 0x2b8] = ra\n 79966: u64 [sp + 0x2b0] = s0\n 79970: u64 [sp + 0x2a8] = s1\n 79974: s0 = sp + 0x2c0\n 79978: sp = sp & 0xffffffffffffffe0\n 79981: a3 = u64 [a1 + 0x10]\n 79984: a2 = u64 [a1 + 0x18]\n 79987: a4 = u64 [a1 + 0x8]\n 79990: a5 = u64 [a1]\n 79992: u64 [sp + 0x98] = a2\n 79996: u64 [sp + 0x88] = a4\n 80000: a1 = a4 | a2\n 80003: a2 = a5 | a3\n 80006: a2 = a2 | a1\n 80009: a2 = a2 >> 0x20\n 80012: u64 [sp + 0x90] = a3\n 80016: a1 = a1 | a3\n 80019: a1 = a1 << 0x20\n 80022: a1 = a1 | a2\n 80025: jump @1075 if a1 != 0\n      : @1046 (gas: 13)\n 80029: a1 = u64 [a0 + 0x18]\n 80032: u64 [sp + 0x40] = a1\n 80035: a1 = u64 [a0 + 0x10]\n 80038: u64 [sp + 0x58] = a1\n 80041: a1 = u64 [a0 + 0x8]\n 80044: u64 [sp + 0x48] = a1\n 80047: a0 = u64 [a0]\n 80049: u64 [sp + 0x50] = a0\n 80052: u64 [sp + 0x80] = a5\n 80056: i32 a0 = a5 + 0\n 80058: a1 = 0x20\n 80061: u64 [sp + 0x18] = a0\n 80064: ra = 946, jump @0\n      : @1047 [@dyn 473] (gas: 80)\n 80071: a1 = u8 [a0 + 0x9]\n 80074: a2 = u8 [a0 + 0x8]\n 80077: a3 = u8 [a0 + 0xa]\n 80080: a4 = u8 [a0 + 0xb]\n 80083: a1 = a1 << 0x8\n 80086: a1 = a1 | a2\n 80089: a3 = a3 << 0x10\n 80092: a4 = a4 << 0x18\n 80095: a3 = a3 | a4\n 80098: a1 = a1 | a3\n 80101: a2 = u8 [a0 + 0xd]\n 80104: a3 = u8 [a0 + 0xc]\n 80107: a4 = u8 [a0 + 0xe]\n 80110: a5 = u8 [a0 + 0xf]\n 80113: a2 = a2 << 0x8\n 80116: a2 = a2 | a3\n 80119: a4 = a4 << 0x10\n 80122: a5 = a5 << 0x18\n 80125: a4 = a4 | a5\n 80128: a2 = a2 | a4\n 80131: a2 = a2 << 0x20\n 80134: t0 = a2 | a1\n 80137: a1 = u8 [a0 + 0x1]\n 80140: a2 = u8 [a0]\n 80142: a3 = u8 [a0 + 0x2]\n 80145: a4 = u8 [a0 + 0x3]\n 80148: a1 = a1 << 0x8\n 80151: a1 = a1 | a2\n 80154: a3 = a3 << 0x10\n 80157: a4 = a4 << 0x18\n 80160: a3 = a3 | a4\n 80163: a1 = a1 | a3\n 80166: a2 = u8 [a0 + 0x5]\n 80169: a3 = u8 [a0 + 0x4]\n 80172: a4 = u8 [a0 + 0x6]\n 80175: a5 = u8 [a0 + 0x7]\n 80178: a2 = a2 << 0x8\n 80181: a2 = a2 | a3\n 80184: a4 = a4 << 0x10\n 80187: a5 = a5 << 0x18\n 80190: a4 = a4 | a5\n 80193: a2 = a2 | a4\n 80196: a2 = a2 << 0x20\n 80199: s1 = a2 | a1\n 80202: a1 = u8 [a0 + 0x11]\n 80205: a2 = u8 [a0 + 0x10]\n 80208: a3 = u8 [a0 + 0x12]\n 80211: a4 = u8 [a0 + 0x13]\n 80214: a1 = a1 << 0x8\n 80217: a1 = a1 | a2\n 80220: a3 = a3 << 0x10\n 80223: a4 = a4 << 0x18\n 80226: a3 = a3 | a4\n 80229: a1 = a1 | a3\n 80232: a2 = u8 [a0 + 0x15]\n 80235: a3 = u8 [a0 + 0x14]\n 80238: a4 = u8 [a0 + 0x16]\n 80241: a5 = u8 [a0 + 0x17]\n 80244: a2 = a2 << 0x8\n 80247: a2 = a2 | a3\n 80250: a4 = a4 << 0x10\n 80253: a5 = a5 << 0x18\n 80256: a4 = a4 | a5\n 80259: a2 = a2 | a4\n 80262: a2 = a2 << 0x20\n 80265: a1 = a1 | a2\n 80268: u64 [sp + 0x60] = a1\n 80271: a1 = reverse a1\n 80273: u64 [sp + 0x68] = s1\n 80276: a3 = reverse s1\n 80278: u64 [sp + 0x70] = t0\n 80281: a2 = reverse t0\n 80283: u64 [sp + 0x30] = a2\n 80286: u64 [sp + 0x28] = a3\n 80289: a2 = a2 | a3\n 80292: u64 [sp + 0x38] = a1\n 80295: a1 = a1 <u 0x1\n 80298: u64 [sp + 0xd8] = a2\n 80302: a1 = 0 if a2 != 0\n 80304: jump @1076 if a1 == 0\n      : @1048 (gas: 36)\n 80308: a1 = u8 [a0 + 0x18]\n 80311: u64 [sp + 0xb8] = a1\n 80315: a1 = u8 [a0 + 0x19]\n 80318: u64 [sp + 0x78] = a1\n 80321: a1 = u8 [a0 + 0x1a]\n 80324: u64 [sp + 0xa8] = a1\n 80328: a1 = u8 [a0 + 0x1b]\n 80331: u64 [sp + 0xa0] = a1\n 80335: a1 = u8 [a0 + 0x1c]\n 80338: u64 [sp + 0xd0] = a1\n 80342: a1 = u8 [a0 + 0x1d]\n 80345: u64 [sp + 0xb0] = a1\n 80349: a1 = u8 [a0 + 0x1e]\n 80352: u64 [sp + 0xc8] = a1\n 80356: a0 = u8 [a0 + 0x1f]\n 80359: u64 [sp + 0xc0] = a0\n 80363: u32 [sp + 576] = 0x20\n 80368: a0 = u64 [sp + 0x58]\n 80371: u64 [sp + 0x270] = a0\n 80375: a0 = u64 [sp + 0x48]\n 80378: u64 [sp + 0x268] = a0\n 80382: a0 = u64 [sp + 0x50]\n 80385: u64 [sp + 0x260] = a0\n 80389: s1 = u64 [sp + 0x40]\n 80392: u64 [sp + 0x278] = s1\n 80396: u64 [sp + 664] = 0\n 80400: u64 [sp + 656] = 0\n 80404: u64 [sp + 648] = 0\n 80408: u64 [sp + 640] = 0\n 80412: i32 a1 = sp + 0x260\n 80416: i32 a3 = sp + 0x280\n 80420: i32 a4 = sp + 0x240\n 80424: a2 = 0xffffffffffffffff\n 80427: a0 = 0\n 80429: ecalli 7 // 'get_storage'\n 80431: fallthrough\n      : @1049 (gas: 28)\n 80432: a0 = u64 [sp + 0x290]\n 80436: a1 = u64 [sp + 0x288]\n 80440: a2 = u64 [sp + 0x280]\n 80444: a3 = u64 [sp + 0x298]\n 80448: a4 = a0 << 0x3f\n 80451: a5 = a1 >> 0x1\n 80454: a4 = a4 | a5\n 80457: a5 = a3 << 0x3f\n 80460: a0 = a0 >> 0x1\n 80463: t2 = s1\n 80465: s1 = a0 | a5\n 80468: a1 = a1 << 0x3f\n 80471: a5 = a2 >> 0x1\n 80474: a1 = a1 | a5\n 80477: a5 = a3 >> 0x1\n 80480: a2 = a2 & 0x1\n 80483: a0 = -a2\n 80485: t0 = a2 <u 0x1\n 80488: a3 = a1 & 0x7f\n 80491: t1 = a0 & s1\n 80494: a4 = a4 & a0\n 80497: a3 = a1 if a2 != 0\n 80500: a1 = a0 & a5\n 80503: a0 = a3 <u 0x20\n 80506: a0 = 0 if a4 != 0\n 80508: a2 = t1 | a1\n 80511: a0 = 0 if a2 != 0\n 80513: jump @1078 if t0 != a0\n      : @1050 (gas: 47)\n 80517: a0 = u64 [sp + 0x78]\n 80520: a0 = a0 << 0x8\n 80523: a2 = u64 [sp + 0xb8]\n 80527: a0 = a0 | a2\n 80530: a2 = u64 [sp + 0xa8]\n 80534: a2 = a2 << 0x10\n 80537: a5 = u64 [sp + 0xa0]\n 80541: a5 = a5 << 0x18\n 80544: a2 = a2 | a5\n 80547: a0 = a0 | a2\n 80550: a2 = u64 [sp + 0xb0]\n 80554: a2 = a2 << 0x8\n 80557: a5 = u64 [sp + 0xd0]\n 80561: a2 = a2 | a5\n 80564: a5 = u64 [sp + 0xc8]\n 80568: a5 = a5 << 0x10\n 80571: s1 = u64 [sp + 0xc0]\n 80575: s1 = s1 << 0x18\n 80578: a5 = a5 | s1\n 80581: a2 = a2 | a5\n 80584: a2 = a2 << 0x20\n 80587: a0 = a0 | a2\n 80590: u64 [sp + 0xd0] = a0\n 80594: a0 = reverse a0\n 80596: u64 [sp + 0x20] = a0\n 80599: u64 [sp + 0x1e0] = a0\n 80603: u64 [sp + 0x200] = a3\n 80607: a0 = u64 [sp + 0x50]\n 80610: u64 [sp + 0x220] = a0\n 80614: a0 = u64 [sp + 0x38]\n 80617: u64 [sp + 0x1e8] = a0\n 80621: u64 [sp + 0x208] = a4\n 80625: a0 = u64 [sp + 0x48]\n 80628: u64 [sp + 0x228] = a0\n 80632: a0 = u64 [sp + 0x30]\n 80635: u64 [sp + 0x1f0] = a0\n 80639: u64 [sp + 0x210] = t1\n 80643: a0 = u64 [sp + 0x58]\n 80646: u64 [sp + 0x230] = a0\n 80650: s1 = u64 [sp + 0x28]\n 80653: u64 [sp + 0x1f8] = s1\n 80657: u64 [sp + 0x218] = a1\n 80661: a0 = sp + 0x220\n 80665: a1 = sp + 0x200\n 80669: a2 = sp + 0x1e0\n 80673: u64 [sp + 0x238] = t2\n 80677: ra = 948, jump @867\n      : @1051 [@dyn 474] (gas: 16)\n 80683: a3 = u64 [sp + 0x20]\n 80686: a2 = u64 [sp + 0x38]\n 80689: a0 = a2 >u 0\n 80691: a1 = a3 <u 0x20\n 80694: a1 = a1 ^ 0x1\n 80697: a1 = a0 if a2 != 0\n 80700: a0 = u64 [sp + 0x30]\n 80703: a0 = a0 >u 0\n 80705: a2 = s1 >u 0\n 80707: a2 = a0 if s1 == 0\n 80710: a0 = u64 [sp + 0xd8]\n 80714: a2 = a1 if a0 == 0\n 80717: a4 = u64 [sp + 0x40]\n 80720: a5 = u64 [sp + 0x58]\n 80723: s1 = u64 [sp + 0x50]\n 80726: jump @1062 if a2 == 0\n      : @1052 (gas: 5)\n 80730: a3 = a3 & 0xffffffffffffffe0\n 80733: u64 [sp + 0x18] = a3\n 80736: a1 = 0x20\n 80739: a0 = 0\n 80741: ra = 950, jump @0\n      : @1053 [@dyn 475] (gas: 70)\n 80748: a1 = u64 [sp + 0x40]\n 80751: a1 = reverse a1\n 80753: a2 = u64 [sp + 0x58]\n 80756: a2 = reverse a2\n 80758: a3 = u64 [sp + 0x48]\n 80761: a3 = reverse a3\n 80763: a4 = reverse s1\n 80765: a5 = a4 >> 0x38\n 80768: u8 [a0 + 0x1f] = a5\n 80771: a5 = a4 >> 0x30\n 80774: u8 [a0 + 0x1e] = a5\n 80777: a5 = a4 >> 0x28\n 80780: u8 [a0 + 0x1d] = a5\n 80783: a5 = a4 >> 0x20\n 80786: u8 [a0 + 0x1c] = a5\n 80789: a5 = a4 >> 0x18\n 80792: u8 [a0 + 0x1b] = a5\n 80795: a5 = a4 >> 0x10\n 80798: u8 [a0 + 0x1a] = a5\n 80801: a5 = a4 >> 0x8\n 80804: u8 [a0 + 0x19] = a5\n 80807: u8 [a0 + 0x18] = a4\n 80810: u8 [a0 + 0x10] = a3\n 80813: a4 = a3 >> 0x38\n 80816: u8 [a0 + 0x17] = a4\n 80819: a4 = a3 >> 0x30\n 80822: u8 [a0 + 0x16] = a4\n 80825: a4 = a3 >> 0x28\n 80828: u8 [a0 + 0x15] = a4\n 80831: a4 = a3 >> 0x20\n 80834: u8 [a0 + 0x14] = a4\n 80837: a4 = a3 >> 0x18\n 80840: u8 [a0 + 0x13] = a4\n 80843: a4 = a3 >> 0x10\n 80846: u8 [a0 + 0x12] = a4\n 80849: a3 = a3 >> 0x8\n 80852: u8 [a0 + 0x11] = a3\n 80855: u8 [a0 + 0x8] = a2\n 80858: a3 = a2 >> 0x38\n 80861: u8 [a0 + 0xf] = a3\n 80864: a3 = a2 >> 0x30\n 80867: u8 [a0 + 0xe] = a3\n 80870: a3 = a2 >> 0x28\n 80873: u8 [a0 + 0xd] = a3\n 80876: a3 = a2 >> 0x20\n 80879: u8 [a0 + 0xc] = a3\n 80882: a3 = a2 >> 0x18\n 80885: u8 [a0 + 0xb] = a3\n 80888: a3 = a2 >> 0x10\n 80891: u8 [a0 + 0xa] = a3\n 80894: a2 = a2 >> 0x8\n 80897: u8 [a0 + 0x9] = a2\n 80900: u8 [a0] = a1\n 80902: a2 = a1 >> 0x38\n 80905: u8 [a0 + 0x7] = a2\n 80908: a2 = a1 >> 0x30\n 80911: u8 [a0 + 0x6] = a2\n 80914: a2 = a1 >> 0x28\n 80917: u8 [a0 + 0x5] = a2\n 80920: a2 = a1 >> 0x20\n 80923: u8 [a0 + 0x4] = a2\n 80926: a2 = a1 >> 0x18\n 80929: u8 [a0 + 0x3] = a2\n 80932: a2 = a1 >> 0x10\n 80935: u8 [a0 + 0x2] = a2\n 80938: a1 = a1 >> 0x8\n 80941: u8 [a0 + 0x1] = a1\n 80944: a1 = 0x20\n 80947: a0 = 0\n 80949: ra = 952, jump @0\n      : @1054 [@dyn 476] (gas: 5)\n 80956: i32 a0 = a0 + 0\n 80958: i32 a2 = sp + 0x280\n 80962: a1 = 0x20\n 80965: ecalli 8 // 'hash_keccak_256'\n 80967: fallthrough\n      : @1055 (gas: 13)\n 80968: a0 = u64 [sp + 0x280]\n 80972: a1 = u64 [sp + 0x288]\n 80976: a2 = u64 [sp + 0x290]\n 80980: a3 = u64 [sp + 0x298]\n 80984: a0 = reverse a0\n 80986: u64 [sp + 0xd0] = a0\n 80990: t0 = reverse a1\n 80992: a0 = reverse a2\n 80994: u64 [sp + 0xd8] = a0\n 80998: a0 = reverse a3\n 81000: u64 [sp + 0xc0] = a0\n 81004: a0 = u64 [sp + 0x18]\n 81007: jump @1066 if a0 == 0\n      : @1056 (gas: 118)\n 81011: u64 [sp + 176] = 0\n 81015: u64 [sp + 184] = 0\n 81019: u64 [sp + 168] = 0\n 81023: ra = u64 [sp + 0x80]\n 81027: s1 = ra + 0x20\n 81030: a0 = s1 <u ra\n 81033: t2 = u64 [sp + 0x88]\n 81037: a2 = t2 + a0\n 81040: a3 = a2 <u t2\n 81043: a3 = a0 if a0 == 0\n 81046: t1 = u64 [sp + 0x90]\n 81050: a3 = a3 + t1\n 81053: a0 = a3 <u t1\n 81056: u64 [sp + 0xc8] = t0\n 81060: t0 = u64 [sp + 0x98]\n 81064: t0 = t0 + a0\n 81067: a4 = a3 >u 0\n 81069: a5 = t0 >u 0\n 81071: a5 = a4 if t0 == 0\n 81074: a4 = 0x100000000\n 81084: a1 = s1\n 81086: a0 = maxu(s1, a4)\n 81089: s1 = a4 if a5 == 0\n 81092: a1 = a4 if a2 == 0\n 81095: a0 = a1 if a2 != 0\n 81098: a1 = a3 | t0\n 81101: a0 = s1 if a1 != 0\n 81104: a4 = a2\n 81106: a4 = 0 if a5 == 0\n 81108: a4 = a2 if a1 == 0\n 81111: a1 = a3\n 81113: a1 = 0 if t0 == 0\n 81115: a1 = a3 if t0 == 0\n 81118: a2 = t2 ^ 0xffffffffffffffff\n 81121: a4 = a4 + a2\n 81124: a3 = ra ^ 0xffffffffffffffff\n 81127: a0 = a0 + a3\n 81130: a3 = a0 <u a3\n 81133: a4 = a4 + a3\n 81136: a5 = a4 ^ a2\n 81139: a2 = a4 <u a2\n 81142: a2 = a3 if a5 == 0\n 81145: a5 = t1 ^ 0xffffffffffffffff\n 81148: u64 [sp + 0x78] = a5\n 81151: a5 = a5 + a1\n 81154: s1 = a5 + a2\n 81157: a1 = s1 << 0x3b\n 81160: a2 = a4 >> 0x5\n 81163: a1 = a1 | a2\n 81166: a4 = a4 << 0x3b\n 81169: a0 = a0 >> 0x5\n 81172: a2 = a0 | a4\n 81175: u64 [sp + 0xa0] = a2\n 81179: a4 = u64 [sp + 0x18]\n 81182: a0 = a4 <u 0x1\n 81185: a3 = -a0\n 81187: ra = a0 << 0x3b\n 81190: a4 = a4 + 0xffffffffffffffff\n 81193: a4 = a4 >> 0x5\n 81196: a0 = a4 - ra\n 81199: t2 = a1 ^ a3\n 81202: a4 = a1 <u a3\n 81205: t1 = a2 <u a0\n 81208: t1 = a4 if t2 != 0\n 81211: a2 = u64 [sp + 0x98]\n 81215: a4 = a2 ^ 0xffffffffffffffff\n 81218: t0 = t0 + a4\n 81221: a2 = u64 [sp + 0x78]\n 81224: a4 = a5 <u a2\n 81227: a4 = a4 + t0\n 81230: a5 = s1 <u a5\n 81233: a4 = a4 + a5\n 81236: s1 = s1 >> 0x5\n 81239: a5 = a4 << 0x3b\n 81242: a5 = a5 | s1\n 81245: a4 = a4 >> 0x5\n 81248: s1 = a3 >> 0x5\n 81251: t0 = s1 - ra\n 81254: a2 = a5 <u t0\n 81257: t2 = a4 ^ s1\n 81260: ra = a4 <u s1\n 81263: ra = a2 if t2 == 0\n 81266: a2 = a5 ^ t0\n 81269: a2 = a2 | t2\n 81272: ra = t1 if a2 == 0\n 81275: a2 = u64 [sp + 0xa0]\n 81279: a2 = a0 if ra == 0\n 81282: a1 = a3 if ra == 0\n 81285: a4 = s1 if ra == 0\n 81288: a5 = t0 if ra == 0\n 81291: a0 = a5 >> 0x3b\n 81294: a4 = a4 << 0x5\n 81297: t0 = a4 | a0\n 81300: a4 = u64 [sp + 0xb0]\n 81304: a0 = a1 >> 0x3b\n 81307: a5 = a5 << 0x5\n 81310: t2 = a5 | a0\n 81313: a5 = u64 [sp + 0xb8]\n 81317: a3 = a2 >> 0x3b\n 81320: a1 = a1 << 0x5\n 81323: a0 = a1 | a3\n 81326: t1 = a2 << 0x5\n 81329: a3 = t1 + 0x40\n 81332: u64 [sp + 0x78] = a3\n 81335: a3 = a3 <u t1\n 81338: s1 = u64 [sp + 0xa8]\n 81342: a1 = a0 + a3\n 81345: u64 [sp + 0x70] = a1\n 81348: a1 = a1 <u a0\n 81351: a1 = a3 if a3 == 0\n 81354: a1 = a1 + t2\n 81357: u64 [sp + 0x68] = a1\n 81360: a1 = a1 <u t2\n 81363: a1 = a1 + t0\n 81366: u64 [sp + 0x60] = a1\n 81369: a2 = 0x20\n 81372: a3 = u64 [sp + 0xc8]\n 81376: fallthrough\n      : @1057 (gas: 31)\n 81377: u64 [sp + 0xa8] = s1\n 81381: u64 [sp + 0xc8] = a3\n 81385: a0 = u64 [sp + 0x80]\n 81389: a0 = a0 + a2\n 81392: u64 [sp + 0xa0] = a2\n 81396: a1 = a0 <u a2\n 81399: a2 = u64 [sp + 0x88]\n 81403: a2 = a2 + a4\n 81406: a2 = a2 + a1\n 81409: a3 = a2 ^ a4\n 81412: u64 [sp + 0xb0] = a4\n 81416: a4 = a2 <u a4\n 81419: a4 = a1 if a3 == 0\n 81422: a1 = u64 [sp + 0x90]\n 81426: a1 = a1 + a5\n 81429: u64 [sp + 0xb8] = a5\n 81433: a3 = a1 <u a5\n 81436: a5 = u64 [sp + 0x98]\n 81440: a5 = a5 + s1\n 81443: a3 = a3 + a5\n 81446: a4 = a4 + a1\n 81449: a1 = a4 <u a1\n 81452: a1 = a1 + a3\n 81455: a1 = a1 | a2\n 81458: a2 = a0 | a4\n 81461: a2 = a2 | a1\n 81464: a1 = a1 | a4\n 81467: a2 = a2 >> 0x20\n 81470: a1 = a1 << 0x20\n 81473: a1 = a1 | a2\n 81476: jump @1075 if a1 != 0\n      : @1058 (gas: 3)\n 81480: i32 a0 = a0 + 0\n 81482: a1 = 0x20\n 81485: ra = 954, jump @0\n      : @1059 [@dyn 477] (gas: 111)\n 81492: a1 = u8 [a0 + 0x1]\n 81495: a2 = u8 [a0]\n 81497: a3 = u8 [a0 + 0x2]\n 81500: a4 = u8 [a0 + 0x3]\n 81503: a1 = a1 << 0x8\n 81506: a1 = a1 | a2\n 81509: a3 = a3 << 0x10\n 81512: a4 = a4 << 0x18\n 81515: a3 = a3 | a4\n 81518: a1 = a1 | a3\n 81521: a2 = u8 [a0 + 0x5]\n 81524: a3 = u8 [a0 + 0x4]\n 81527: a4 = u8 [a0 + 0x6]\n 81530: a5 = u8 [a0 + 0x7]\n 81533: a2 = a2 << 0x8\n 81536: a2 = a2 | a3\n 81539: a4 = a4 << 0x10\n 81542: a5 = a5 << 0x18\n 81545: a4 = a4 | a5\n 81548: a2 = a2 | a4\n 81551: a2 = a2 << 0x20\n 81554: t0 = a2 | a1\n 81557: a2 = u8 [a0 + 0x9]\n 81560: a3 = u8 [a0 + 0x8]\n 81563: a4 = u8 [a0 + 0xa]\n 81566: a5 = u8 [a0 + 0xb]\n 81569: a2 = a2 << 0x8\n 81572: a2 = a2 | a3\n 81575: a4 = a4 << 0x10\n 81578: a5 = a5 << 0x18\n 81581: a4 = a4 | a5\n 81584: a2 = a2 | a4\n 81587: a3 = u8 [a0 + 0xd]\n 81590: a4 = u8 [a0 + 0xc]\n 81593: a5 = u8 [a0 + 0xe]\n 81596: s1 = u8 [a0 + 0xf]\n 81599: a3 = a3 << 0x8\n 81602: a3 = a3 | a4\n 81605: a5 = a5 << 0x10\n 81608: s1 = s1 << 0x18\n 81611: a5 = a5 | s1\n 81614: a3 = a3 | a5\n 81617: a3 = a3 << 0x20\n 81620: a2 = a2 | a3\n 81623: a3 = u8 [a0 + 0x11]\n 81626: a4 = u8 [a0 + 0x10]\n 81629: a5 = u8 [a0 + 0x12]\n 81632: s1 = u8 [a0 + 0x13]\n 81635: a3 = a3 << 0x8\n 81638: a3 = a3 | a4\n 81641: a5 = a5 << 0x10\n 81644: s1 = s1 << 0x18\n 81647: a5 = a5 | s1\n 81650: a3 = a3 | a5\n 81653: a4 = u8 [a0 + 0x15]\n 81656: a5 = u8 [a0 + 0x14]\n 81659: s1 = u8 [a0 + 0x16]\n 81662: a1 = u8 [a0 + 0x17]\n 81665: a4 = a4 << 0x8\n 81668: a4 = a4 | a5\n 81671: s1 = s1 << 0x10\n 81674: a1 = a1 << 0x18\n 81677: a1 = a1 | s1\n 81680: a1 = a1 | a4\n 81683: a1 = a1 << 0x20\n 81686: a3 = a3 | a1\n 81689: a1 = u8 [a0 + 0x19]\n 81692: a4 = u8 [a0 + 0x18]\n 81695: a5 = u8 [a0 + 0x1a]\n 81698: s1 = u8 [a0 + 0x1b]\n 81701: a1 = a1 << 0x8\n 81704: a1 = a1 | a4\n 81707: a5 = a5 << 0x10\n 81710: s1 = s1 << 0x18\n 81713: a5 = a5 | s1\n 81716: a1 = a1 | a5\n 81719: a4 = u8 [a0 + 0x1d]\n 81722: a5 = u8 [a0 + 0x1c]\n 81725: s1 = u8 [a0 + 0x1e]\n 81728: a0 = u8 [a0 + 0x1f]\n 81731: a4 = a4 << 0x8\n 81734: a4 = a4 | a5\n 81737: s1 = s1 << 0x10\n 81740: a0 = a0 << 0x18\n 81743: a0 = a0 | s1\n 81746: a0 = a0 | a4\n 81749: a0 = a0 << 0x20\n 81752: a0 = a0 | a1\n 81755: a0 = reverse a0\n 81757: a1 = reverse a3\n 81759: a2 = reverse a2\n 81761: a3 = reverse t0\n 81763: a4 = u64 [sp + 0xd0]\n 81767: u64 [sp + 0x278] = a4\n 81771: a4 = u64 [sp + 0xc8]\n 81775: u64 [sp + 0x270] = a4\n 81779: a4 = u64 [sp + 0xd8]\n 81783: u64 [sp + 0x268] = a4\n 81787: s1 = u64 [sp + 0xc0]\n 81791: u64 [sp + 0x260] = s1\n 81795: u64 [sp + 0x298] = a3\n 81799: u64 [sp + 0x290] = a2\n 81803: u64 [sp + 0x288] = a1\n 81807: u64 [sp + 0x280] = a0\n 81811: i32 a1 = sp + 0x260\n 81815: i32 a3 = sp + 0x280\n 81819: a2 = 0xffffffffffffffff\n 81822: a4 = 0x20\n 81825: a0 = 0\n 81827: ecalli 15 // 'set_storage'\n 81829: fallthrough\n      : @1060 (gas: 42)\n 81830: s1 = s1 + 0x1\n 81833: a0 = s1 <u 0x1\n 81836: a1 = u64 [sp + 0xd8]\n 81840: a1 = a1 + a0\n 81843: u64 [sp + 0xc0] = s1\n 81847: u64 [sp + 0xd8] = a1\n 81851: a0 = s1 | a1\n 81854: a0 = a0 <u 0x1\n 81857: a1 = u64 [sp + 0xc8]\n 81861: t0 = a1 + a0\n 81864: a2 = t0 <u a1\n 81867: a0 = u64 [sp + 0xa0]\n 81871: a1 = a0 + 0x20\n 81874: a0 = a1 <u a0\n 81877: a3 = u64 [sp + 0xb0]\n 81881: t2 = a3 + a0\n 81884: a3 = t2 <u a3\n 81887: a3 = a0 if a0 == 0\n 81890: a4 = u64 [sp + 0xb8]\n 81894: a0 = a4 + a3\n 81897: a3 = a0 <u a4\n 81900: s1 = u64 [sp + 0xa8]\n 81904: s1 = s1 + a3\n 81907: a3 = u64 [sp + 0x68]\n 81910: a3 = a3 ^ a0\n 81913: a4 = u64 [sp + 0x78]\n 81916: a4 = a4 ^ a1\n 81919: a3 = a3 | a4\n 81922: a4 = u64 [sp + 0x60]\n 81925: a4 = a4 ^ s1\n 81928: a5 = u64 [sp + 0x70]\n 81931: a5 = t2 ^ a5\n 81934: a4 = a4 | a5\n 81937: t1 = a3 | a4\n 81940: a3 = u64 [sp + 0xd0]\n 81944: a3 = a3 + a2\n 81947: u64 [sp + 0xd0] = a3\n 81951: a2 = a1\n 81953: a4 = t2\n 81955: a5 = a0\n 81957: a3 = t0\n 81959: jump @1057 if t1 != 0\n      : @1061 (gas: 1)\n 81963: jump @1067\n      : @1062 (gas: 8)\n 81966: a0 = u64 [sp + 0x68]\n 81969: a1 = u64 [sp + 0x60]\n 81972: a0 = a0 | a1\n 81975: a1 = u64 [sp + 0x70]\n 81978: a2 = u64 [sp + 0xd0]\n 81982: a1 = a1 | a2\n 81985: a0 = a0 | a1\n 81988: jump @1072 if a0 == 0\n      : @1063 (gas: 10)\n 81992: a0 = u64 [sp + 0x98]\n 81996: a1 = u64 [sp + 0x90]\n 82000: a0 = a0 | a1\n 82003: a1 = 0xffffffe0\n 82013: a2 = u64 [sp + 0x80]\n 82017: a1 = a2 <u a1\n 82020: a2 = u64 [sp + 0x88]\n 82024: a1 = 0 if a2 != 0\n 82026: a1 = 0 if a0 != 0\n 82028: jump @1075 if a1 == 0\n      : @1064 (gas: 4)\n 82032: a0 = u64 [sp + 0x18]\n 82035: i32 a0 = a0 + 0x20\n 82038: a1 = 0x20\n 82041: ra = 956, jump @0\n      : @1065 [@dyn 478] (gas: 280)\n 82048: a1 = u8 [a0 + 0x19]\n 82051: a2 = u8 [a0 + 0x18]\n 82054: a3 = u8 [a0 + 0x1a]\n 82057: a4 = u8 [a0 + 0x1b]\n 82060: a1 = a1 << 0x8\n 82063: a1 = a1 | a2\n 82066: a3 = a3 << 0x10\n 82069: a4 = a4 << 0x18\n 82072: a3 = a3 | a4\n 82075: a1 = a1 | a3\n 82078: a2 = u8 [a0 + 0x1d]\n 82081: a3 = u8 [a0 + 0x1c]\n 82084: a4 = u8 [a0 + 0x1e]\n 82087: a5 = u8 [a0 + 0x1f]\n 82090: a2 = a2 << 0x8\n 82093: a2 = a2 | a3\n 82096: a4 = a4 << 0x10\n 82099: a5 = a5 << 0x18\n 82102: a4 = a4 | a5\n 82105: a2 = a2 | a4\n 82108: a2 = a2 << 0x20\n 82111: t0 = a2 | a1\n 82114: a1 = u8 [a0 + 0x11]\n 82117: a2 = u8 [a0 + 0x10]\n 82120: a3 = u8 [a0 + 0x12]\n 82123: a4 = u8 [a0 + 0x13]\n 82126: a1 = a1 << 0x8\n 82129: a1 = a1 | a2\n 82132: a3 = a3 << 0x10\n 82135: a4 = a4 << 0x18\n 82138: a3 = a3 | a4\n 82141: a1 = a1 | a3\n 82144: a2 = u8 [a0 + 0x15]\n 82147: a3 = u8 [a0 + 0x14]\n 82150: a4 = u8 [a0 + 0x16]\n 82153: a5 = u8 [a0 + 0x17]\n 82156: a2 = a2 << 0x8\n 82159: a2 = a2 | a3\n 82162: a4 = a4 << 0x10\n 82165: a5 = a5 << 0x18\n 82168: a4 = a4 | a5\n 82171: a2 = a2 | a4\n 82174: a2 = a2 << 0x20\n 82177: a1 = a1 | a2\n 82180: u64 [sp + 0xd8] = a1\n 82184: a1 = u8 [a0 + 0x9]\n 82187: a3 = u8 [a0 + 0x8]\n 82190: a4 = u8 [a0 + 0xa]\n 82193: a5 = u8 [a0 + 0xb]\n 82196: a1 = a1 << 0x8\n 82199: a1 = a1 | a3\n 82202: a4 = a4 << 0x10\n 82205: a5 = a5 << 0x18\n 82208: a4 = a4 | a5\n 82211: a1 = a1 | a4\n 82214: a3 = u8 [a0 + 0xd]\n 82217: a4 = u8 [a0 + 0xc]\n 82220: a5 = u8 [a0 + 0xe]\n 82223: s1 = u8 [a0 + 0xf]\n 82226: a3 = a3 << 0x8\n 82229: a3 = a3 | a4\n 82232: a5 = a5 << 0x10\n 82235: s1 = s1 << 0x18\n 82238: a5 = a5 | s1\n 82241: a3 = a3 | a5\n 82244: a3 = a3 << 0x20\n 82247: a1 = a1 | a3\n 82250: u64 [sp + 0xd0] = a1\n 82254: a1 = u8 [a0 + 0x1]\n 82257: a4 = u8 [a0]\n 82259: a5 = u8 [a0 + 0x2]\n 82262: s1 = u8 [a0 + 0x3]\n 82265: a1 = a1 << 0x8\n 82268: a1 = a1 | a4\n 82271: a5 = a5 << 0x10\n 82274: s1 = s1 << 0x18\n 82277: a5 = a5 | s1\n 82280: a1 = a1 | a5\n 82283: a4 = u8 [a0 + 0x5]\n 82286: a5 = u8 [a0 + 0x4]\n 82289: s1 = u8 [a0 + 0x6]\n 82292: a0 = u8 [a0 + 0x7]\n 82295: a4 = a4 << 0x8\n 82298: a4 = a4 | a5\n 82301: s1 = s1 << 0x10\n 82304: a0 = a0 << 0x18\n 82307: a0 = a0 | s1\n 82310: a0 = a0 | a4\n 82313: a0 = a0 << 0x20\n 82316: ra = a0 | a1\n 82319: u8 [sp + 479] = 0\n 82323: u8 [sp + 478] = 0\n 82327: u8 [sp + 477] = 0\n 82331: u8 [sp + 476] = 0\n 82335: u8 [sp + 475] = 0\n 82339: u8 [sp + 474] = 0\n 82343: u8 [sp + 473] = 0\n 82347: u8 [sp + 472] = 0\n 82351: u8 [sp + 471] = 0\n 82355: u8 [sp + 470] = 0\n 82359: u8 [sp + 469] = 0\n 82363: u8 [sp + 468] = 0\n 82367: u8 [sp + 467] = 0\n 82371: u8 [sp + 466] = 0\n 82375: u8 [sp + 465] = 0\n 82379: u8 [sp + 464] = 0\n 82383: u8 [sp + 463] = 0\n 82387: u8 [sp + 462] = 0\n 82391: u8 [sp + 461] = 0\n 82395: u8 [sp + 460] = 0\n 82399: u8 [sp + 459] = 0\n 82403: u8 [sp + 458] = 0\n 82407: u8 [sp + 457] = 0\n 82411: u8 [sp + 456] = 0\n 82415: u8 [sp + 455] = 0\n 82419: u8 [sp + 454] = 0\n 82423: u8 [sp + 453] = 0\n 82427: u8 [sp + 452] = 0\n 82431: u8 [sp + 451] = 0\n 82435: u8 [sp + 450] = 0\n 82439: u8 [sp + 449] = 0\n 82443: u8 [sp + 448] = 0\n 82447: u8 [sp + 447] = 0xff\n 82453: u8 [sp + 446] = 0xff\n 82459: u8 [sp + 445] = 0xff\n 82465: u8 [sp + 443] = 0xff\n 82471: u8 [sp + 440] = 0xffffffffffffffff\n 82476: u8 [sp + 439] = 0xff\n 82482: u8 [sp + 438] = 0xff\n 82488: u8 [sp + 437] = 0xff\n 82494: u8 [sp + 435] = 0xff\n 82500: u8 [sp + 432] = 0xffffffffffffffff\n 82505: u8 [sp + 431] = 0xff\n 82511: u8 [sp + 430] = 0xff\n 82517: u8 [sp + 429] = 0xff\n 82523: u8 [sp + 427] = 0xff\n 82529: u8 [sp + 424] = 0xffffffffffffffff\n 82534: u8 [sp + 423] = 0xff\n 82540: u8 [sp + 422] = 0xff\n 82546: u8 [sp + 421] = 0xff\n 82552: u8 [sp + 419] = 0xff\n 82558: u8 [sp + 416] = 0xffffffffffffffff\n 82563: a1 = 0xffffffff\n 82573: u8 [sp + 0x1bc] = a1\n 82577: a5 = 0xffffffffffff\n 82587: u8 [sp + 0x1ba] = a5\n 82591: a4 = 0xffffffffffffff\n 82601: u8 [sp + 0x1b9] = a4\n 82605: u8 [sp + 0x1b4] = a1\n 82609: u8 [sp + 0x1b2] = a5\n 82613: u8 [sp + 0x1b1] = a4\n 82617: u8 [sp + 0x1ac] = a1\n 82621: u8 [sp + 0x1aa] = a5\n 82625: u8 [sp + 0x1a9] = a4\n 82629: u8 [sp + 0x1a4] = a1\n 82633: u8 [sp + 0x1a2] = a5\n 82637: u8 [sp + 0x1a1] = a4\n 82641: t2 = u64 [sp + 0x20]\n 82644: a4 = t2 & 0x1f\n 82647: a1 = sp + 0x1a0\n 82651: a4 = a4 + a1\n 82654: a1 = u8 [a4 + 0x19]\n 82657: a5 = u8 [a4 + 0x18]\n 82660: s1 = u8 [a4 + 0x1a]\n 82663: a2 = u8 [a4 + 0x1b]\n 82666: a1 = a1 << 0x8\n 82669: a1 = a1 | a5\n 82672: s1 = s1 << 0x10\n 82675: a2 = a2 << 0x18\n 82678: a2 = a2 | s1\n 82681: a1 = a1 | a2\n 82684: a2 = u8 [a4 + 0x1d]\n 82687: a5 = u8 [a4 + 0x1c]\n 82690: s1 = u8 [a4 + 0x1e]\n 82693: a3 = u8 [a4 + 0x1f]\n 82696: a2 = a2 << 0x8\n 82699: a2 = a2 | a5\n 82702: s1 = s1 << 0x10\n 82705: a3 = a3 << 0x18\n 82708: a3 = a3 | s1\n 82711: a2 = a2 | a3\n 82714: a2 = a2 << 0x20\n 82717: t1 = a2 | a1\n 82720: a1 = u8 [a4 + 0x11]\n 82723: a2 = u8 [a4 + 0x10]\n 82726: a3 = u8 [a4 + 0x12]\n 82729: s1 = u8 [a4 + 0x13]\n 82732: a1 = a1 << 0x8\n 82735: a1 = a1 | a2\n 82738: a3 = a3 << 0x10\n 82741: s1 = s1 << 0x18\n 82744: a3 = a3 | s1\n 82747: a1 = a1 | a3\n 82750: a2 = u8 [a4 + 0x15]\n 82753: a3 = u8 [a4 + 0x14]\n 82756: s1 = u8 [a4 + 0x16]\n 82759: a0 = u8 [a4 + 0x17]\n 82762: a2 = a2 << 0x8\n 82765: a2 = a2 | a3\n 82768: s1 = s1 << 0x10\n 82771: a0 = a0 << 0x18\n 82774: a0 = a0 | s1\n 82777: a0 = a0 | a2\n 82780: a0 = a0 << 0x20\n 82783: s1 = a0 | a1\n 82786: a0 = u8 [a4 + 0x9]\n 82789: a1 = u8 [a4 + 0x8]\n 82792: a2 = u8 [a4 + 0xa]\n 82795: a3 = u8 [a4 + 0xb]\n 82798: a0 = a0 << 0x8\n 82801: a0 = a0 | a1\n 82804: a2 = a2 << 0x10\n 82807: a3 = a3 << 0x18\n 82810: a2 = a2 | a3\n 82813: a5 = a2 | a0\n 82816: a1 = u8 [a4 + 0xd]\n 82819: a2 = u8 [a4 + 0xc]\n 82822: a3 = u8 [a4 + 0xe]\n 82825: a0 = u8 [a4 + 0xf]\n 82828: a1 = a1 << 0x8\n 82831: a1 = a1 | a2\n 82834: a3 = a3 << 0x10\n 82837: a0 = a0 << 0x18\n 82840: a0 = a0 | a3\n 82843: a0 = a0 | a1\n 82846: a0 = a0 << 0x20\n 82849: a1 = a0 | a5\n 82852: a0 = u8 [a4 + 0x1]\n 82855: a2 = u8 [a4]\n 82857: a3 = u8 [a4 + 0x2]\n 82860: a5 = u8 [a4 + 0x3]\n 82863: a0 = a0 << 0x8\n 82866: a0 = a0 | a2\n 82869: a3 = a3 << 0x10\n 82872: a5 = a5 << 0x18\n 82875: a3 = a3 | a5\n 82878: a0 = a0 | a3\n 82881: a2 = u8 [a4 + 0x5]\n 82884: a3 = u8 [a4 + 0x4]\n 82887: a5 = u8 [a4 + 0x6]\n 82890: a4 = u8 [a4 + 0x7]\n 82893: a2 = a2 << 0x8\n 82896: a2 = a2 | a3\n 82899: a5 = a5 << 0x10\n 82902: a4 = a4 << 0x18\n 82905: a4 = a4 | a5\n 82908: a2 = a2 | a4\n 82911: a2 = a2 << 0x20\n 82914: a0 = a0 | a2\n 82917: a2 = reverse t0\n 82919: t0 = a2 & ~a0\n 82922: a0 = u64 [sp + 0xd8]\n 82926: a0 = reverse a0\n 82928: a2 = a0 & ~a1\n 82931: a0 = reverse ra\n 82933: a1 = u64 [sp + 0xd0]\n 82937: a1 = reverse a1\n 82939: a1 = a1 & ~s1\n 82942: a0 = a0 & ~t1\n 82945: a4 = t2 >> 0x3f\n 82948: a3 = u64 [sp + 0x38]\n 82951: a5 = a3 << 0x1\n 82954: a4 = a4 | a5\n 82957: a5 = a3 >> 0x3f\n 82960: a3 = u64 [sp + 0x30]\n 82963: s1 = a3 << 0x1\n 82966: a5 = a5 | s1\n 82969: s1 = a3 >> 0x3f\n 82972: a3 = u64 [sp + 0x28]\n 82975: a3 = a3 << 0x1\n 82978: a3 = a3 | s1\n 82981: t1 = a0 | a3\n 82984: a1 = a1 | a5\n 82987: a2 = a2 | a4\n 82990: a3 = t2 << 0x1\n 82993: a3 = t0 | a3\n 82996: a4 = u64 [sp + 0x40]\n 82999: a5 = u64 [sp + 0x58]\n 83002: s1 = u64 [sp + 0x50]\n 83005: jump @1073\n      : @1066 (gas: 4)\n 83008: t2 = 0\n 83010: s1 = 0\n 83012: a1 = 0x20\n 83015: fallthrough\n      : @1067 (gas: 10)\n 83016: a5 = u64 [sp + 0x20]\n 83019: a2 = u64 [sp + 0x18]\n 83022: a2 = a2 ^ a5\n 83025: a3 = u64 [sp + 0x30]\n 83028: a2 = a2 | a3\n 83031: a3 = u64 [sp + 0x38]\n 83034: a4 = u64 [sp + 0x28]\n 83037: a3 = a3 | a4\n 83040: a2 = a2 | a3\n 83043: jump @1071 if a2 == 0\n      : @1068 (gas: 27)\n 83047: u64 [sp + 0xc8] = t0\n 83051: a2 = u64 [sp + 0x80]\n 83055: a2 = a2 + a1\n 83058: a3 = a2 <u a1\n 83061: a4 = u64 [sp + 0x88]\n 83065: a4 = a4 + t2\n 83068: a4 = a4 + a3\n 83071: a5 = a4 ^ t2\n 83074: a1 = a4 <u t2\n 83077: a1 = a3 if a5 == 0\n 83080: a3 = u64 [sp + 0x90]\n 83084: a3 = a3 + a0\n 83087: a1 = a1 + a3\n 83090: a5 = a1 <u a3\n 83093: a0 = a3 <u a0\n 83096: a3 = u64 [sp + 0x98]\n 83100: a3 = a3 + s1\n 83103: a0 = a0 + a3\n 83106: a0 = a0 + a5\n 83109: a3 = a2 | a1\n 83112: a0 = a0 | a4\n 83115: a3 = a3 | a0\n 83118: a3 = a3 >> 0x20\n 83121: a0 = a0 | a1\n 83124: a0 = a0 << 0x20\n 83127: a0 = a0 | a3\n 83130: jump @1075 if a0 != 0\n      : @1069 (gas: 3)\n 83134: i32 a0 = a2 + 0\n 83136: a1 = 0x20\n 83139: ra = 958, jump @0\n      : @1070 [@dyn 479] (gas: 277)\n 83146: a1 = u8 [a0 + 0x19]\n 83149: a2 = u8 [a0 + 0x18]\n 83152: a3 = u8 [a0 + 0x1a]\n 83155: a4 = u8 [a0 + 0x1b]\n 83158: a1 = a1 << 0x8\n 83161: a1 = a1 | a2\n 83164: a3 = a3 << 0x10\n 83167: a4 = a4 << 0x18\n 83170: a3 = a3 | a4\n 83173: a1 = a1 | a3\n 83176: a2 = u8 [a0 + 0x1d]\n 83179: a3 = u8 [a0 + 0x1c]\n 83182: a4 = u8 [a0 + 0x1e]\n 83185: a5 = u8 [a0 + 0x1f]\n 83188: a2 = a2 << 0x8\n 83191: a2 = a2 | a3\n 83194: a4 = a4 << 0x10\n 83197: a5 = a5 << 0x18\n 83200: a4 = a4 | a5\n 83203: a2 = a2 | a4\n 83206: a2 = a2 << 0x20\n 83209: a1 = a1 | a2\n 83212: u64 [sp + 0xb8] = a1\n 83216: a1 = u8 [a0 + 0x11]\n 83219: a2 = u8 [a0 + 0x10]\n 83222: a3 = u8 [a0 + 0x12]\n 83225: a4 = u8 [a0 + 0x13]\n 83228: a1 = a1 << 0x8\n 83231: a1 = a1 | a2\n 83234: a3 = a3 << 0x10\n 83237: a4 = a4 << 0x18\n 83240: a3 = a3 | a4\n 83243: a1 = a1 | a3\n 83246: a2 = u8 [a0 + 0x15]\n 83249: a3 = u8 [a0 + 0x14]\n 83252: a4 = u8 [a0 + 0x16]\n 83255: a5 = u8 [a0 + 0x17]\n 83258: a2 = a2 << 0x8\n 83261: a2 = a2 | a3\n 83264: a4 = a4 << 0x10\n 83267: a5 = a5 << 0x18\n 83270: a4 = a4 | a5\n 83273: a2 = a2 | a4\n 83276: a2 = a2 << 0x20\n 83279: t1 = a2 | a1\n 83282: a1 = u8 [a0 + 0x9]\n 83285: a3 = u8 [a0 + 0x8]\n 83288: a4 = u8 [a0 + 0xa]\n 83291: a5 = u8 [a0 + 0xb]\n 83294: a1 = a1 << 0x8\n 83297: a1 = a1 | a3\n 83300: a4 = a4 << 0x10\n 83303: a5 = a5 << 0x18\n 83306: a4 = a4 | a5\n 83309: a1 = a1 | a4\n 83312: a3 = u8 [a0 + 0xd]\n 83315: a4 = u8 [a0 + 0xc]\n 83318: a5 = u8 [a0 + 0xe]\n 83321: s1 = u8 [a0 + 0xf]\n 83324: a3 = a3 << 0x8\n 83327: a3 = a3 | a4\n 83330: a5 = a5 << 0x10\n 83333: s1 = s1 << 0x18\n 83336: a5 = a5 | s1\n 83339: a3 = a3 | a5\n 83342: a3 = a3 << 0x20\n 83345: t2 = a3 | a1\n 83348: a1 = u8 [a0 + 0x1]\n 83351: a4 = u8 [a0]\n 83353: a5 = u8 [a0 + 0x2]\n 83356: s1 = u8 [a0 + 0x3]\n 83359: a1 = a1 << 0x8\n 83362: a1 = a1 | a4\n 83365: a5 = a5 << 0x10\n 83368: s1 = s1 << 0x18\n 83371: a5 = a5 | s1\n 83374: a1 = a1 | a5\n 83377: a4 = u8 [a0 + 0x5]\n 83380: a5 = u8 [a0 + 0x4]\n 83383: s1 = u8 [a0 + 0x6]\n 83386: a0 = u8 [a0 + 0x7]\n 83389: a4 = a4 << 0x8\n 83392: a4 = a4 | a5\n 83395: s1 = s1 << 0x10\n 83398: a0 = a0 << 0x18\n 83401: a0 = a0 | s1\n 83404: a0 = a0 | a4\n 83407: a0 = a0 << 0x20\n 83410: ra = a0 | a1\n 83413: u8 [sp + 415] = 0\n 83417: u8 [sp + 414] = 0\n 83421: u8 [sp + 413] = 0\n 83425: u8 [sp + 412] = 0\n 83429: u8 [sp + 411] = 0\n 83433: u8 [sp + 410] = 0\n 83437: u8 [sp + 409] = 0\n 83441: u8 [sp + 408] = 0\n 83445: u8 [sp + 407] = 0\n 83449: u8 [sp + 406] = 0\n 83453: u8 [sp + 405] = 0\n 83457: u8 [sp + 404] = 0\n 83461: u8 [sp + 403] = 0\n 83465: u8 [sp + 402] = 0\n 83469: u8 [sp + 401] = 0\n 83473: u8 [sp + 400] = 0\n 83477: u8 [sp + 399] = 0\n 83481: u8 [sp + 398] = 0\n 83485: u8 [sp + 397] = 0\n 83489: u8 [sp + 396] = 0\n 83493: u8 [sp + 395] = 0\n 83497: u8 [sp + 394] = 0\n 83501: u8 [sp + 393] = 0\n 83505: u8 [sp + 392] = 0\n 83509: u8 [sp + 391] = 0\n 83513: u8 [sp + 390] = 0\n 83517: u8 [sp + 389] = 0\n 83521: u8 [sp + 388] = 0\n 83525: u8 [sp + 387] = 0\n 83529: u8 [sp + 386] = 0\n 83533: u8 [sp + 385] = 0\n 83537: u8 [sp + 384] = 0\n 83541: u8 [sp + 383] = 0xff\n 83547: u8 [sp + 382] = 0xff\n 83553: u8 [sp + 381] = 0xff\n 83559: u8 [sp + 379] = 0xff\n 83565: u8 [sp + 376] = 0xffffffffffffffff\n 83570: u8 [sp + 375] = 0xff\n 83576: u8 [sp + 374] = 0xff\n 83582: u8 [sp + 373] = 0xff\n 83588: u8 [sp + 371] = 0xff\n 83594: u8 [sp + 368] = 0xffffffffffffffff\n 83599: u8 [sp + 367] = 0xff\n 83605: u8 [sp + 366] = 0xff\n 83611: u8 [sp + 365] = 0xff\n 83617: u8 [sp + 363] = 0xff\n 83623: u8 [sp + 360] = 0xffffffffffffffff\n 83628: u8 [sp + 359] = 0xff\n 83634: u8 [sp + 358] = 0xff\n 83640: u8 [sp + 357] = 0xff\n 83646: u8 [sp + 355] = 0xff\n 83652: u8 [sp + 352] = 0xffffffffffffffff\n 83657: a1 = 0xffffffff\n 83667: u8 [sp + 0x17c] = a1\n 83671: a5 = 0xffffffffffff\n 83681: u8 [sp + 0x17a] = a5\n 83685: a4 = 0xffffffffffffff\n 83695: u8 [sp + 0x179] = a4\n 83699: u8 [sp + 0x174] = a1\n 83703: u8 [sp + 0x172] = a5\n 83707: u8 [sp + 0x171] = a4\n 83711: u8 [sp + 0x16c] = a1\n 83715: u8 [sp + 0x16a] = a5\n 83719: u8 [sp + 0x169] = a4\n 83723: u8 [sp + 0x164] = a1\n 83727: u8 [sp + 0x162] = a5\n 83731: u8 [sp + 0x161] = a4\n 83735: a4 = u64 [sp + 0x20]\n 83738: a4 = a4 & 0x1f\n 83741: a1 = sp + 0x160\n 83745: a4 = a4 + a1\n 83748: a1 = u8 [a4 + 0x19]\n 83751: a5 = u8 [a4 + 0x18]\n 83754: s1 = u8 [a4 + 0x1a]\n 83757: a2 = u8 [a4 + 0x1b]\n 83760: a1 = a1 << 0x8\n 83763: a1 = a1 | a5\n 83766: s1 = s1 << 0x10\n 83769: a2 = a2 << 0x18\n 83772: a2 = a2 | s1\n 83775: a1 = a1 | a2\n 83778: a2 = u8 [a4 + 0x1d]\n 83781: a5 = u8 [a4 + 0x1c]\n 83784: s1 = u8 [a4 + 0x1e]\n 83787: a3 = u8 [a4 + 0x1f]\n 83790: a2 = a2 << 0x8\n 83793: a2 = a2 | a5\n 83796: s1 = s1 << 0x10\n 83799: a3 = a3 << 0x18\n 83802: a3 = a3 | s1\n 83805: a2 = a2 | a3\n 83808: a2 = a2 << 0x20\n 83811: t0 = a2 | a1\n 83814: a1 = u8 [a4 + 0x11]\n 83817: a2 = u8 [a4 + 0x10]\n 83820: a3 = u8 [a4 + 0x12]\n 83823: s1 = u8 [a4 + 0x13]\n 83826: a1 = a1 << 0x8\n 83829: a1 = a1 | a2\n 83832: a3 = a3 << 0x10\n 83835: s1 = s1 << 0x18\n 83838: a3 = a3 | s1\n 83841: a1 = a1 | a3\n 83844: a2 = u8 [a4 + 0x15]\n 83847: a3 = u8 [a4 + 0x14]\n 83850: s1 = u8 [a4 + 0x16]\n 83853: a0 = u8 [a4 + 0x17]\n 83856: a2 = a2 << 0x8\n 83859: a2 = a2 | a3\n 83862: s1 = s1 << 0x10\n 83865: a0 = a0 << 0x18\n 83868: a0 = a0 | s1\n 83871: a0 = a0 | a2\n 83874: a0 = a0 << 0x20\n 83877: s1 = a0 | a1\n 83880: a0 = u8 [a4 + 0x9]\n 83883: a1 = u8 [a4 + 0x8]\n 83886: a2 = u8 [a4 + 0xa]\n 83889: a3 = u8 [a4 + 0xb]\n 83892: a0 = a0 << 0x8\n 83895: a0 = a0 | a1\n 83898: a2 = a2 << 0x10\n 83901: a3 = a3 << 0x18\n 83904: a2 = a2 | a3\n 83907: a5 = a2 | a0\n 83910: a1 = u8 [a4 + 0xd]\n 83913: a2 = u8 [a4 + 0xc]\n 83916: a3 = u8 [a4 + 0xe]\n 83919: a0 = u8 [a4 + 0xf]\n 83922: a1 = a1 << 0x8\n 83925: a1 = a1 | a2\n 83928: a3 = a3 << 0x10\n 83931: a0 = a0 << 0x18\n 83934: a0 = a0 | a3\n 83937: a0 = a0 | a1\n 83940: a0 = a0 << 0x20\n 83943: a1 = a0 | a5\n 83946: a0 = u8 [a4 + 0x1]\n 83949: a2 = u8 [a4]\n 83951: a3 = u8 [a4 + 0x2]\n 83954: a5 = u8 [a4 + 0x3]\n 83957: a0 = a0 << 0x8\n 83960: a0 = a0 | a2\n 83963: a3 = a3 << 0x10\n 83966: a5 = a5 << 0x18\n 83969: a3 = a3 | a5\n 83972: a0 = a0 | a3\n 83975: a2 = u8 [a4 + 0x5]\n 83978: a3 = u8 [a4 + 0x4]\n 83981: a5 = u8 [a4 + 0x6]\n 83984: a4 = u8 [a4 + 0x7]\n 83987: a2 = a2 << 0x8\n 83990: a2 = a2 | a3\n 83993: a5 = a5 << 0x10\n 83996: a4 = a4 << 0x18\n 83999: a4 = a4 | a5\n 84002: a2 = a2 | a4\n 84005: a2 = a2 << 0x20\n 84008: a0 = a0 | a2\n 84011: a2 = u64 [sp + 0xb8]\n 84015: a2 = reverse a2\n 84017: a0 = a2 & ~a0\n 84020: a2 = reverse t1\n 84022: a1 = a2 & ~a1\n 84025: a2 = reverse t2\n 84027: a2 = a2 & ~s1\n 84030: a3 = reverse ra\n 84032: a3 = a3 & ~t0\n 84035: a4 = u64 [sp + 0xd0]\n 84039: u64 [sp + 0x278] = a4\n 84043: a4 = u64 [sp + 0xc8]\n 84047: u64 [sp + 0x270] = a4\n 84051: a4 = u64 [sp + 0xd8]\n 84055: u64 [sp + 0x268] = a4\n 84059: a4 = u64 [sp + 0xc0]\n 84063: u64 [sp + 0x260] = a4\n 84067: u64 [sp + 0x298] = a3\n 84071: u64 [sp + 0x290] = a2\n 84075: u64 [sp + 0x288] = a1\n 84079: u64 [sp + 0x280] = a0\n 84083: i32 a1 = sp + 0x260\n 84087: i32 a3 = sp + 0x280\n 84091: a2 = 0xffffffffffffffff\n 84094: a4 = 0x20\n 84097: a0 = 0\n 84099: ecalli 15 // 'set_storage'\n 84101: a5 = u64 [sp + 0x20]\n 84104: fallthrough\n      : @1071 (gas: 27)\n 84105: a2 = u64 [sp + 0x30]\n 84108: a0 = a2 >> 0x3f\n 84111: a1 = u64 [sp + 0x28]\n 84114: a1 = a1 << 0x1\n 84117: a0 = a0 | a1\n 84120: a3 = u64 [sp + 0x38]\n 84123: a1 = a3 >> 0x3f\n 84126: a2 = a2 << 0x1\n 84129: a1 = a1 | a2\n 84132: a2 = a5 >> 0x3f\n 84135: a3 = a3 << 0x1\n 84138: a2 = a2 | a3\n 84141: a3 = a5 << 0x1\n 84144: a3 = a3 + 0x1\n 84147: a4 = u64 [sp + 0x48]\n 84150: u64 [sp + 0x268] = a4\n 84154: a4 = u64 [sp + 0x50]\n 84157: u64 [sp + 0x260] = a4\n 84161: a4 = u64 [sp + 0x58]\n 84164: u64 [sp + 0x270] = a4\n 84168: a4 = u64 [sp + 0x40]\n 84171: u64 [sp + 0x278] = a4\n 84175: u64 [sp + 0x280] = a3\n 84179: u64 [sp + 0x288] = a2\n 84183: u64 [sp + 0x290] = a1\n 84187: u64 [sp + 0x298] = a0\n 84191: jump @1074\n      : @1072 (gas: 5)\n 84193: a3 = 0\n 84195: a2 = 0\n 84197: a1 = 0\n 84199: t1 = 0\n 84201: fallthrough\n      : @1073 (gas: 10)\n 84202: a0 = u64 [sp + 0x48]\n 84205: u64 [sp + 0x268] = a0\n 84209: u64 [sp + 0x260] = s1\n 84213: u64 [sp + 0x270] = a5\n 84217: u64 [sp + 0x278] = a4\n 84221: u64 [sp + 0x280] = a3\n 84225: u64 [sp + 0x288] = a2\n 84229: u64 [sp + 0x290] = a1\n 84233: u64 [sp + 0x298] = t1\n 84237: fallthrough\n      : @1074 (gas: 12)\n 84238: i32 a1 = sp + 0x260\n 84242: i32 a3 = sp + 0x280\n 84246: a2 = 0xffffffffffffffff\n 84249: a4 = 0x20\n 84252: a0 = 0\n 84254: ecalli 15 // 'set_storage'\n 84256: sp = s0 + 0xfffffffffffffd40\n 84260: ra = u64 [sp + 0x2b8]\n 84264: s0 = u64 [sp + 0x2b0]\n 84268: s1 = u64 [sp + 0x2a8]\n 84272: sp = sp + 0x2c0\n 84276: ret\n      : @1075 (gas: 1)\n 84278: trap\n      : @1076 (gas: 8)\n 84279: u64 [sp + 272] = 0\n 84283: u64 [sp + 264] = 0\n 84287: u64 [sp + 256] = 0\n 84291: a0 = 0x4e487b7100000000\n 84301: a1 = sp + 0x100\n 84305: u64 [sp + 0x118] = a0\n 84309: a0 = 0\n 84311: ra = 960, jump @23\n      : @1077 [@dyn 480] (gas: 8)\n 84318: u64 [sp + 248] = 0\n 84322: u64 [sp + 240] = 0\n 84326: u64 [sp + 224] = 0x41\n 84331: a0 = 0x4\n 84334: a1 = sp + 0xe0\n 84338: u64 [sp + 232] = 0\n 84342: ra = 0x3c4\n 84346: jump @23\n      : @1078 (gas: 8)\n 84350: u64 [sp + 336] = 0\n 84354: u64 [sp + 328] = 0\n 84358: u64 [sp + 320] = 0\n 84362: a0 = 0x4e487b7100000000\n 84372: a1 = sp + 0x140\n 84376: u64 [sp + 0x158] = a0\n 84380: a0 = 0\n 84382: ra = 962, jump @23\n      : @1079 [@dyn 481] (gas: 7)\n 84389: u64 [sp + 312] = 0\n 84393: u64 [sp + 304] = 0\n 84397: u64 [sp + 288] = 0x22\n 84402: a0 = 0x4\n 84405: a1 = sp + 0x120\n 84409: u64 [sp + 296] = 0\n 84413: ra = 964, jump @23\n      : @1080 [@dyn 482] (gas: 3)\n 84420: a1 = 0x24\n 84423: a0 = 0\n 84425: ra = 966, jump @0\n      : @1081 [@dyn 483] (gas: 6)\n 84432: i32 a1 = a0 + 0\n 84434: a0 = 0x1\n 84437: a2 = 0x24\n 84440: ra = 0x3c8\n 84444: ecalli 13 // 'seal_return'\n 84446: fallthrough\n      : @1082 [@dyn 484] (gas: 24)\n 84447: sp = sp + 0xffffffffffffffb0\n 84450: u64 [sp + 0x48] = ra\n 84453: u64 [sp + 0x40] = s0\n 84456: s0 = sp + 0x50\n 84459: sp = sp & 0xfffffffffffffff0\n 84462: t0 = u64 [a0]\n 84464: t1 = u64 [a0 + 0x8]\n 84467: a4 = u64 [a0 + 0x10]\n 84470: a0 = u64 [a0 + 0x18]\n 84473: a5 = u64 [a1]\n 84475: a2 = u64 [a1 + 0x8]\n 84478: a3 = u64 [a1 + 0x10]\n 84481: a1 = u64 [a1 + 0x18]\n 84484: u64 [sp + 0x18] = a1\n 84487: u64 [sp + 0x10] = a3\n 84490: u64 [sp + 0x8] = a2\n 84493: u64 [sp] = a5\n 84495: u64 [sp + 0x38] = a0\n 84498: u64 [sp + 0x30] = a4\n 84501: u64 [sp + 0x28] = t1\n 84504: a0 = sp + 0x20\n 84507: a1 = sp\n 84509: u64 [sp + 0x20] = t0\n 84512: ra = 970, jump @1045\n      : @1083 [@dyn 485] (gas: 5)\n 84518: sp = s0 + 0xffffffffffffffb0\n 84521: ra = u64 [sp + 0x48]\n 84524: s0 = u64 [sp + 0x40]\n 84527: sp = sp + 0x50\n 84530: ret\n      : @1084 (gas: 22)\n 84532: sp = sp + 0xfffffffffffffe60\n 84536: u64 [sp + 0x198] = ra\n 84540: u64 [sp + 0x190] = s0\n 84544: u64 [sp + 0x188] = s1\n 84548: s0 = sp + 0x1a0\n 84552: sp = sp & 0xffffffffffffffe0\n 84555: a4 = u64 [a1 + 0x10]\n 84558: a5 = u64 [a1 + 0x18]\n 84561: a2 = u64 [a1 + 0x8]\n 84564: a3 = u64 [a1]\n 84566: u64 [sp + 0x70] = a2\n 84569: u64 [sp + 0x58] = a5\n 84572: a1 = a2 | a5\n 84575: u64 [sp + 0x80] = a3\n 84579: a2 = a3 | a4\n 84582: a2 = a2 | a1\n 84585: a2 = a2 >> 0x20\n 84588: u64 [sp + 0x60] = a4\n 84591: a1 = a1 | a4\n 84594: a1 = a1 << 0x20\n 84597: a1 = a1 | a2\n 84600: jump @1099 if a1 != 0\n      : @1085 (gas: 12)\n 84604: a1 = u64 [a0 + 0x18]\n 84607: u64 [sp + 0x78] = a1\n 84610: a1 = u64 [a0 + 0x10]\n 84613: u64 [sp + 0x98] = a1\n 84617: a1 = u64 [a0 + 0x8]\n 84620: u64 [sp + 0x90] = a1\n 84624: a0 = u64 [a0]\n 84626: u64 [sp + 0x88] = a0\n 84630: a0 = i32 [sp + 0x80]\n 84634: a1 = 0x20\n 84637: u64 [sp + 0x68] = a0\n 84640: ra = 972, jump @0\n      : @1086 [@dyn 486] (gas: 105)\n 84647: a1 = u8 [a0 + 0x11]\n 84650: a2 = u8 [a0 + 0x10]\n 84653: a3 = u8 [a0 + 0x12]\n 84656: a4 = u8 [a0 + 0x13]\n 84659: a1 = a1 << 0x8\n 84662: a1 = a1 | a2\n 84665: a3 = a3 << 0x10\n 84668: a4 = a4 << 0x18\n 84671: a3 = a3 | a4\n 84674: a1 = a1 | a3\n 84677: a2 = u8 [a0 + 0x15]\n 84680: a3 = u8 [a0 + 0x14]\n 84683: a4 = u8 [a0 + 0x16]\n 84686: a5 = u8 [a0 + 0x17]\n 84689: a2 = a2 << 0x8\n 84692: a2 = a2 | a3\n 84695: a4 = a4 << 0x10\n 84698: a5 = a5 << 0x18\n 84701: a4 = a4 | a5\n 84704: a2 = a2 | a4\n 84707: a2 = a2 << 0x20\n 84710: a1 = a1 | a2\n 84713: a2 = u8 [a0 + 0x19]\n 84716: a3 = u8 [a0 + 0x18]\n 84719: a4 = u8 [a0 + 0x1a]\n 84722: a5 = u8 [a0 + 0x1b]\n 84725: a2 = a2 << 0x8\n 84728: a2 = a2 | a3\n 84731: a4 = a4 << 0x10\n 84734: a5 = a5 << 0x18\n 84737: a4 = a4 | a5\n 84740: a2 = a2 | a4\n 84743: a3 = u8 [a0 + 0x1d]\n 84746: a4 = u8 [a0 + 0x1c]\n 84749: a5 = u8 [a0 + 0x1e]\n 84752: s1 = u8 [a0 + 0x1f]\n 84755: a3 = a3 << 0x8\n 84758: a3 = a3 | a4\n 84761: a5 = a5 << 0x10\n 84764: s1 = s1 << 0x18\n 84767: a5 = a5 | s1\n 84770: a3 = a3 | a5\n 84773: a3 = a3 << 0x20\n 84776: a2 = a2 | a3\n 84779: a3 = u8 [a0 + 0xd]\n 84782: a4 = u8 [a0 + 0xc]\n 84785: a5 = u8 [a0 + 0xe]\n 84788: a0 = u8 [a0 + 0xf]\n 84791: a3 = a3 << 0x8\n 84794: a3 = a3 | a4\n 84797: a5 = a5 << 0x10\n 84800: a0 = a0 << 0x18\n 84803: a0 = a0 | a5\n 84806: a0 = a0 | a3\n 84809: a2 = reverse a2\n 84811: u64 [sp + 0x50] = a2\n 84814: a1 = reverse a1\n 84816: u64 [sp + 0x48] = a1\n 84819: s1 = reverse a0\n 84821: s1 = s1 >> 0x20\n 84824: u64 [sp + 0x40] = s1\n 84827: s1 = u64 [sp + 0x78]\n 84830: u64 [sp + 0x158] = s1\n 84834: a0 = u64 [sp + 0x98]\n 84838: u64 [sp + 0x150] = a0\n 84842: a0 = u64 [sp + 0x90]\n 84846: u64 [sp + 0x148] = a0\n 84850: a0 = u64 [sp + 0x88]\n 84854: u64 [sp + 0x140] = a0\n 84858: u64 [sp + 376] = 0\n 84862: u64 [sp + 368] = 0\n 84866: u64 [sp + 360] = 0\n 84870: u64 [sp + 352] = 0\n 84874: u32 [sp + 288] = 0x20\n 84879: i32 a1 = sp + 0x140\n 84883: i32 a3 = sp + 0x160\n 84887: i32 a4 = sp + 0x120\n 84891: a2 = 0xffffffffffffffff\n 84894: a0 = 0\n 84896: ecalli 7 // 'get_storage'\n 84898: a0 = u32 [sp + 0x174]\n 84902: a0 = a0 << 0x20\n 84905: a1 = u64 [sp + 0x178]\n 84909: a2 = u64 [sp + 0x40]\n 84912: a0 = a0 | a2\n 84915: u64 [sp + 0x158] = s1\n 84919: a2 = u64 [sp + 0x98]\n 84923: u64 [sp + 0x150] = a2\n 84927: a2 = u64 [sp + 0x90]\n 84931: u64 [sp + 0x148] = a2\n 84935: a2 = u64 [sp + 0x88]\n 84939: u64 [sp + 0x140] = a2\n 84943: u64 [sp + 0x178] = a1\n 84947: u64 [sp + 0x170] = a0\n 84951: a0 = u64 [sp + 0x48]\n 84954: u64 [sp + 0x168] = a0\n 84958: a0 = u64 [sp + 0x50]\n 84961: u64 [sp + 0x160] = a0\n 84965: i32 a1 = sp + 0x140\n 84969: i32 a3 = sp + 0x160\n 84973: a2 = 0xffffffffffffffff\n 84976: a4 = 0x20\n 84979: a0 = 0\n 84981: ecalli 15 // 'set_storage'\n 84983: fallthrough\n      : @1087 (gas: 13)\n 84984: a0 = u64 [sp + 0x60]\n 84987: a2 = u64 [sp + 0x58]\n 84990: a2 = a2 | a0\n 84993: a0 = 0x100000000\n 85003: u64 [sp + 0x40] = a0\n 85006: a0 = 0xffffffe0\n 85016: a1 = u64 [sp + 0x80]\n 85020: a0 = a1 <u a0\n 85023: a1 = u64 [sp + 0x70]\n 85026: a0 = 0 if a1 != 0\n 85028: u64 [sp + 0x60] = a2\n 85031: a0 = 0 if a2 != 0\n 85033: jump @1099 if a0 == 0\n      : @1088 (gas: 20)\n 85037: a0 = u64 [sp + 0x88]\n 85041: a2 = a0 + 0x1\n 85044: u64 [sp + 0x48] = a2\n 85047: a0 = a2 <u 0x1\n 85050: a1 = u64 [sp + 0x90]\n 85054: a0 = a0 + a1\n 85057: u64 [sp + 0x58] = a0\n 85060: a0 = a0 | a2\n 85063: a0 = a0 <u 0x1\n 85066: a1 = u64 [sp + 0x98]\n 85070: a0 = a0 + a1\n 85073: u64 [sp + 0x50] = a0\n 85076: a0 = a0 <u a1\n 85079: a1 = u64 [sp + 0x78]\n 85082: a0 = a0 + a1\n 85085: u64 [sp + 0x38] = a0\n 85088: a0 = u64 [sp + 0x68]\n 85091: i32 a0 = a0 + 0x20\n 85094: a1 = 0x20\n 85097: ra = 974, jump @0\n      : @1089 [@dyn 487] (gas: 137)\n 85104: a1 = u8 [a0 + 0x1]\n 85107: a2 = u8 [a0]\n 85109: a3 = u8 [a0 + 0x2]\n 85112: a4 = u8 [a0 + 0x3]\n 85115: a1 = a1 << 0x8\n 85118: a1 = a1 | a2\n 85121: a3 = a3 << 0x10\n 85124: a4 = a4 << 0x18\n 85127: a3 = a3 | a4\n 85130: a1 = a1 | a3\n 85133: a2 = u8 [a0 + 0x5]\n 85136: a3 = u8 [a0 + 0x4]\n 85139: a4 = u8 [a0 + 0x6]\n 85142: a5 = u8 [a0 + 0x7]\n 85145: a2 = a2 << 0x8\n 85148: a2 = a2 | a3\n 85151: a4 = a4 << 0x10\n 85154: a5 = a5 << 0x18\n 85157: a4 = a4 | a5\n 85160: a2 = a2 | a4\n 85163: a2 = a2 << 0x20\n 85166: t0 = a2 | a1\n 85169: a2 = u8 [a0 + 0x9]\n 85172: a3 = u8 [a0 + 0x8]\n 85175: a4 = u8 [a0 + 0xa]\n 85178: a5 = u8 [a0 + 0xb]\n 85181: a2 = a2 << 0x8\n 85184: a2 = a2 | a3\n 85187: a4 = a4 << 0x10\n 85190: a5 = a5 << 0x18\n 85193: a4 = a4 | a5\n 85196: a2 = a2 | a4\n 85199: a3 = u8 [a0 + 0xd]\n 85202: a4 = u8 [a0 + 0xc]\n 85205: a5 = u8 [a0 + 0xe]\n 85208: s1 = u8 [a0 + 0xf]\n 85211: a3 = a3 << 0x8\n 85214: a3 = a3 | a4\n 85217: a5 = a5 << 0x10\n 85220: s1 = s1 << 0x18\n 85223: a5 = a5 | s1\n 85226: a3 = a3 | a5\n 85229: a3 = a3 << 0x20\n 85232: a2 = a2 | a3\n 85235: a3 = u8 [a0 + 0x11]\n 85238: a4 = u8 [a0 + 0x10]\n 85241: a5 = u8 [a0 + 0x12]\n 85244: s1 = u8 [a0 + 0x13]\n 85247: a3 = a3 << 0x8\n 85250: a3 = a3 | a4\n 85253: a5 = a5 << 0x10\n 85256: s1 = s1 << 0x18\n 85259: a5 = a5 | s1\n 85262: a3 = a3 | a5\n 85265: a4 = u8 [a0 + 0x15]\n 85268: a5 = u8 [a0 + 0x14]\n 85271: s1 = u8 [a0 + 0x16]\n 85274: a1 = u8 [a0 + 0x17]\n 85277: a4 = a4 << 0x8\n 85280: a4 = a4 | a5\n 85283: s1 = s1 << 0x10\n 85286: a1 = a1 << 0x18\n 85289: a1 = a1 | s1\n 85292: a1 = a1 | a4\n 85295: a1 = a1 << 0x20\n 85298: a3 = a3 | a1\n 85301: a1 = u8 [a0 + 0x19]\n 85304: a4 = u8 [a0 + 0x18]\n 85307: a5 = u8 [a0 + 0x1a]\n 85310: s1 = u8 [a0 + 0x1b]\n 85313: a1 = a1 << 0x8\n 85316: a1 = a1 | a4\n 85319: a5 = a5 << 0x10\n 85322: s1 = s1 << 0x18\n 85325: a5 = a5 | s1\n 85328: a1 = a1 | a5\n 85331: a4 = u8 [a0 + 0x1d]\n 85334: a5 = u8 [a0 + 0x1c]\n 85337: s1 = u8 [a0 + 0x1e]\n 85340: a0 = u8 [a0 + 0x1f]\n 85343: a4 = a4 << 0x8\n 85346: a4 = a4 | a5\n 85349: s1 = s1 << 0x10\n 85352: a0 = a0 << 0x18\n 85355: a0 = a0 | s1\n 85358: a0 = a0 | a4\n 85361: a0 = a0 << 0x20\n 85364: a0 = a0 | a1\n 85367: u32 [sp + 288] = 0x20\n 85372: a0 = reverse a0\n 85374: u64 [sp + 0x30] = a0\n 85377: a0 = reverse a3\n 85379: u64 [sp + 0x28] = a0\n 85382: a0 = reverse a2\n 85384: u64 [sp + 0x20] = a0\n 85387: a0 = reverse t0\n 85389: u64 [sp + 0x18] = a0\n 85392: a0 = u64 [sp + 0x50]\n 85395: u64 [sp + 0x150] = a0\n 85399: a0 = u64 [sp + 0x58]\n 85402: u64 [sp + 0x148] = a0\n 85406: a0 = u64 [sp + 0x48]\n 85409: u64 [sp + 0x140] = a0\n 85413: s1 = u64 [sp + 0x38]\n 85416: u64 [sp + 0x158] = s1\n 85420: u64 [sp + 376] = 0\n 85424: u64 [sp + 368] = 0\n 85428: u64 [sp + 360] = 0\n 85432: u64 [sp + 352] = 0\n 85436: i32 a1 = sp + 0x140\n 85440: i32 a3 = sp + 0x160\n 85444: i32 a4 = sp + 0x120\n 85448: a2 = 0xffffffffffffffff\n 85451: a0 = 0\n 85453: ecalli 7 // 'get_storage'\n 85455: u64 [sp + 0x158] = s1\n 85459: a0 = u64 [sp + 0x50]\n 85462: u64 [sp + 0x150] = a0\n 85466: a0 = u64 [sp + 0x58]\n 85469: u64 [sp + 0x148] = a0\n 85473: a0 = u64 [sp + 0x48]\n 85476: u64 [sp + 0x140] = a0\n 85480: a0 = u64 [sp + 0x18]\n 85483: u64 [sp + 0x178] = a0\n 85487: a0 = u64 [sp + 0x20]\n 85490: u64 [sp + 0x170] = a0\n 85494: a0 = u64 [sp + 0x28]\n 85497: u64 [sp + 0x168] = a0\n 85501: a0 = u64 [sp + 0x30]\n 85504: u64 [sp + 0x160] = a0\n 85508: i32 a1 = sp + 0x140\n 85512: i32 a3 = sp + 0x160\n 85516: a2 = 0xffffffffffffffff\n 85519: a4 = 0x20\n 85522: a0 = 0\n 85524: ecalli 15 // 'set_storage'\n 85526: fallthrough\n      : @1090 (gas: 9)\n 85527: a0 = u64 [sp + 0x40]\n 85530: a0 = a0 + 0xffffffffffffffc0\n 85533: a1 = u64 [sp + 0x80]\n 85537: a0 = a1 <u a0\n 85540: a1 = u64 [sp + 0x70]\n 85543: a0 = 0 if a1 != 0\n 85545: a1 = u64 [sp + 0x60]\n 85548: a0 = 0 if a1 != 0\n 85550: jump @1099 if a0 == 0\n      : @1091 (gas: 20)\n 85554: a0 = u64 [sp + 0x88]\n 85558: a1 = a0 + 0x2\n 85561: u64 [sp + 0x58] = a1\n 85564: a0 = a1 <u a0\n 85567: a1 = u64 [sp + 0x90]\n 85571: a2 = a1 + a0\n 85574: u64 [sp + 0x50] = a2\n 85577: s1 = a2 <u a1\n 85580: s1 = a0 if a0 == 0\n 85583: a0 = u64 [sp + 0x98]\n 85587: s1 = s1 + a0\n 85590: u64 [sp + 0x40] = s1\n 85593: a0 = s1 <u a0\n 85596: a1 = u64 [sp + 0x78]\n 85599: a0 = a0 + a1\n 85602: u64 [sp + 0x48] = a0\n 85605: a0 = u64 [sp + 0x68]\n 85608: i32 a0 = a0 + 0x40\n 85611: a1 = 0x20\n 85614: ra = 976, jump @0\n      : @1092 [@dyn 488] (gas: 107)\n 85621: a1 = u8 [a0 + 0x1]\n 85624: a2 = u8 [a0]\n 85626: a3 = u8 [a0 + 0x2]\n 85629: a4 = u8 [a0 + 0x3]\n 85632: a1 = a1 << 0x8\n 85635: a1 = a1 | a2\n 85638: a3 = a3 << 0x10\n 85641: a4 = a4 << 0x18\n 85644: a3 = a3 | a4\n 85647: a1 = a1 | a3\n 85650: a2 = u8 [a0 + 0x5]\n 85653: a3 = u8 [a0 + 0x4]\n 85656: a4 = u8 [a0 + 0x6]\n 85659: a5 = u8 [a0 + 0x7]\n 85662: a2 = a2 << 0x8\n 85665: a2 = a2 | a3\n 85668: a4 = a4 << 0x10\n 85671: a5 = a5 << 0x18\n 85674: a4 = a4 | a5\n 85677: a2 = a2 | a4\n 85680: a2 = a2 << 0x20\n 85683: t0 = a2 | a1\n 85686: a2 = u8 [a0 + 0x9]\n 85689: a3 = u8 [a0 + 0x8]\n 85692: a4 = u8 [a0 + 0xa]\n 85695: a5 = u8 [a0 + 0xb]\n 85698: a2 = a2 << 0x8\n 85701: a2 = a2 | a3\n 85704: a4 = a4 << 0x10\n 85707: a5 = a5 << 0x18\n 85710: a4 = a4 | a5\n 85713: a2 = a2 | a4\n 85716: a3 = u8 [a0 + 0xd]\n 85719: a4 = u8 [a0 + 0xc]\n 85722: a5 = u8 [a0 + 0xe]\n 85725: a1 = u8 [a0 + 0xf]\n 85728: a3 = a3 << 0x8\n 85731: a3 = a3 | a4\n 85734: a5 = a5 << 0x10\n 85737: a1 = a1 << 0x18\n 85740: a1 = a1 | a5\n 85743: a1 = a1 | a3\n 85746: a1 = a1 << 0x20\n 85749: a2 = a2 | a1\n 85752: a1 = u8 [a0 + 0x11]\n 85755: a3 = u8 [a0 + 0x10]\n 85758: a4 = u8 [a0 + 0x12]\n 85761: a5 = u8 [a0 + 0x13]\n 85764: a1 = a1 << 0x8\n 85767: a1 = a1 | a3\n 85770: a4 = a4 << 0x10\n 85773: a5 = a5 << 0x18\n 85776: a4 = a4 | a5\n 85779: a1 = a1 | a4\n 85782: a3 = u8 [a0 + 0x15]\n 85785: a4 = u8 [a0 + 0x14]\n 85788: a5 = u8 [a0 + 0x16]\n 85791: s1 = u8 [a0 + 0x17]\n 85794: a3 = a3 << 0x8\n 85797: a3 = a3 | a4\n 85800: a5 = a5 << 0x10\n 85803: s1 = s1 << 0x18\n 85806: a5 = a5 | s1\n 85809: a3 = a3 | a5\n 85812: a3 = a3 << 0x20\n 85815: a3 = a3 | a1\n 85818: a1 = u8 [a0 + 0x19]\n 85821: a4 = u8 [a0 + 0x18]\n 85824: a5 = u8 [a0 + 0x1a]\n 85827: s1 = u8 [a0 + 0x1b]\n 85830: a1 = a1 << 0x8\n 85833: a1 = a1 | a4\n 85836: a5 = a5 << 0x10\n 85839: s1 = s1 << 0x18\n 85842: a5 = a5 | s1\n 85845: a1 = a1 | a5\n 85848: a4 = u8 [a0 + 0x1d]\n 85851: a5 = u8 [a0 + 0x1c]\n 85854: s1 = u8 [a0 + 0x1e]\n 85857: a0 = u8 [a0 + 0x1f]\n 85860: a4 = a4 << 0x8\n 85863: a4 = a4 | a5\n 85866: s1 = s1 << 0x10\n 85869: a0 = a0 << 0x18\n 85872: a0 = a0 | s1\n 85875: a0 = a0 | a4\n 85878: a0 = a0 << 0x20\n 85881: a0 = a0 | a1\n 85884: a4 = reverse a0\n 85886: a0 = reverse a3\n 85888: a1 = reverse a2\n 85890: a2 = reverse t0\n 85892: a3 = u64 [sp + 0x50]\n 85895: u64 [sp + 0x108] = a3\n 85899: a3 = u64 [sp + 0x58]\n 85902: u64 [sp + 0x100] = a3\n 85906: a3 = u64 [sp + 0x40]\n 85909: u64 [sp + 0x110] = a3\n 85913: a3 = u64 [sp + 0x48]\n 85916: u64 [sp + 0x118] = a3\n 85920: u64 [sp + 0xf8] = a2\n 85924: u64 [sp + 0xf0] = a1\n 85928: u64 [sp + 0xe8] = a0\n 85932: a0 = sp + 0x100\n 85936: a1 = sp + 0xe0\n 85940: u64 [sp + 0xe0] = a4\n 85944: ra = 978, jump @1045\n      : @1093 [@dyn 489] (gas: 10)\n 85950: a0 = 0x100000000\n 85960: u64 [sp + 0x58] = a0\n 85963: a0 = 0xffffffa0\n 85973: a1 = u64 [sp + 0x80]\n 85977: a0 = a1 <u a0\n 85980: a1 = u64 [sp + 0x70]\n 85983: a0 = 0 if a1 != 0\n 85985: a1 = u64 [sp + 0x60]\n 85988: a0 = 0 if a1 != 0\n 85990: jump @1099 if a0 == 0\n      : @1094 (gas: 20)\n 85994: a0 = u64 [sp + 0x88]\n 85998: a1 = a0 + 0x3\n 86001: u64 [sp + 0x50] = a1\n 86004: a0 = a1 <u a0\n 86007: a1 = u64 [sp + 0x90]\n 86011: a2 = a1 + a0\n 86014: u64 [sp + 0x48] = a2\n 86017: s1 = a2 <u a1\n 86020: s1 = a0 if a0 == 0\n 86023: a0 = u64 [sp + 0x98]\n 86027: s1 = s1 + a0\n 86030: u64 [sp + 0x38] = s1\n 86033: a0 = s1 <u a0\n 86036: a1 = u64 [sp + 0x78]\n 86039: a0 = a0 + a1\n 86042: u64 [sp + 0x40] = a0\n 86045: a0 = u64 [sp + 0x68]\n 86048: i32 a0 = a0 + 0x60\n 86051: a1 = 0x20\n 86054: ra = 980, jump @0\n      : @1095 [@dyn 490] (gas: 107)\n 86061: a1 = u8 [a0 + 0x1]\n 86064: a2 = u8 [a0]\n 86066: a3 = u8 [a0 + 0x2]\n 86069: a4 = u8 [a0 + 0x3]\n 86072: a1 = a1 << 0x8\n 86075: a1 = a1 | a2\n 86078: a3 = a3 << 0x10\n 86081: a4 = a4 << 0x18\n 86084: a3 = a3 | a4\n 86087: a1 = a1 | a3\n 86090: a2 = u8 [a0 + 0x5]\n 86093: a3 = u8 [a0 + 0x4]\n 86096: a4 = u8 [a0 + 0x6]\n 86099: a5 = u8 [a0 + 0x7]\n 86102: a2 = a2 << 0x8\n 86105: a2 = a2 | a3\n 86108: a4 = a4 << 0x10\n 86111: a5 = a5 << 0x18\n 86114: a4 = a4 | a5\n 86117: a2 = a2 | a4\n 86120: a2 = a2 << 0x20\n 86123: t0 = a2 | a1\n 86126: a2 = u8 [a0 + 0x9]\n 86129: a3 = u8 [a0 + 0x8]\n 86132: a4 = u8 [a0 + 0xa]\n 86135: a5 = u8 [a0 + 0xb]\n 86138: a2 = a2 << 0x8\n 86141: a2 = a2 | a3\n 86144: a4 = a4 << 0x10\n 86147: a5 = a5 << 0x18\n 86150: a4 = a4 | a5\n 86153: a2 = a2 | a4\n 86156: a3 = u8 [a0 + 0xd]\n 86159: a4 = u8 [a0 + 0xc]\n 86162: a5 = u8 [a0 + 0xe]\n 86165: a1 = u8 [a0 + 0xf]\n 86168: a3 = a3 << 0x8\n 86171: a3 = a3 | a4\n 86174: a5 = a5 << 0x10\n 86177: a1 = a1 << 0x18\n 86180: a1 = a1 | a5\n 86183: a1 = a1 | a3\n 86186: a1 = a1 << 0x20\n 86189: a2 = a2 | a1\n 86192: a1 = u8 [a0 + 0x11]\n 86195: a3 = u8 [a0 + 0x10]\n 86198: a4 = u8 [a0 + 0x12]\n 86201: a5 = u8 [a0 + 0x13]\n 86204: a1 = a1 << 0x8\n 86207: a1 = a1 | a3\n 86210: a4 = a4 << 0x10\n 86213: a5 = a5 << 0x18\n 86216: a4 = a4 | a5\n 86219: a1 = a1 | a4\n 86222: a3 = u8 [a0 + 0x15]\n 86225: a4 = u8 [a0 + 0x14]\n 86228: a5 = u8 [a0 + 0x16]\n 86231: s1 = u8 [a0 + 0x17]\n 86234: a3 = a3 << 0x8\n 86237: a3 = a3 | a4\n 86240: a5 = a5 << 0x10\n 86243: s1 = s1 << 0x18\n 86246: a5 = a5 | s1\n 86249: a3 = a3 | a5\n 86252: a3 = a3 << 0x20\n 86255: a3 = a3 | a1\n 86258: a1 = u8 [a0 + 0x19]\n 86261: a4 = u8 [a0 + 0x18]\n 86264: a5 = u8 [a0 + 0x1a]\n 86267: s1 = u8 [a0 + 0x1b]\n 86270: a1 = a1 << 0x8\n 86273: a1 = a1 | a4\n 86276: a5 = a5 << 0x10\n 86279: s1 = s1 << 0x18\n 86282: a5 = a5 | s1\n 86285: a1 = a1 | a5\n 86288: a4 = u8 [a0 + 0x1d]\n 86291: a5 = u8 [a0 + 0x1c]\n 86294: s1 = u8 [a0 + 0x1e]\n 86297: a0 = u8 [a0 + 0x1f]\n 86300: a4 = a4 << 0x8\n 86303: a4 = a4 | a5\n 86306: s1 = s1 << 0x10\n 86309: a0 = a0 << 0x18\n 86312: a0 = a0 | s1\n 86315: a0 = a0 | a4\n 86318: a0 = a0 << 0x20\n 86321: a0 = a0 | a1\n 86324: a4 = reverse a0\n 86326: a0 = reverse a3\n 86328: a1 = reverse a2\n 86330: a2 = reverse t0\n 86332: a3 = u64 [sp + 0x48]\n 86335: u64 [sp + 0xc8] = a3\n 86339: a3 = u64 [sp + 0x50]\n 86342: u64 [sp + 0xc0] = a3\n 86346: a3 = u64 [sp + 0x38]\n 86349: u64 [sp + 0xd0] = a3\n 86353: a3 = u64 [sp + 0x40]\n 86356: u64 [sp + 0xd8] = a3\n 86360: u64 [sp + 0xb8] = a2\n 86364: u64 [sp + 0xb0] = a1\n 86368: u64 [sp + 0xa8] = a0\n 86372: a0 = sp + 0xc0\n 86376: a1 = sp + 0xa0\n 86380: u64 [sp + 0xa0] = a4\n 86384: ra = 982, jump @1045\n      : @1096 [@dyn 491] (gas: 9)\n 86390: a0 = u64 [sp + 0x58]\n 86393: a0 = a0 + 0xffffffffffffff80\n 86396: a1 = u64 [sp + 0x80]\n 86400: a0 = a1 <u a0\n 86403: a1 = u64 [sp + 0x70]\n 86406: a0 = 0 if a1 != 0\n 86408: a1 = u64 [sp + 0x60]\n 86411: a0 = 0 if a1 != 0\n 86413: jump @1099 if a0 == 0\n      : @1097 (gas: 22)\n 86417: a0 = 0xffffffff00000000\n 86427: u64 [sp + 0x80] = a0\n 86431: a0 = u64 [sp + 0x88]\n 86435: a1 = a0 + 0x4\n 86438: u64 [sp + 0x70] = a1\n 86441: a0 = a1 <u a0\n 86444: a1 = u64 [sp + 0x90]\n 86448: a2 = a1 + a0\n 86451: u64 [sp + 0x88] = a2\n 86455: a1 = a2 <u a1\n 86458: a1 = a0 if a0 == 0\n 86461: a0 = u64 [sp + 0x98]\n 86465: a1 = a1 + a0\n 86468: u64 [sp + 0x90] = a1\n 86472: a0 = a1 <u a0\n 86475: a1 = u64 [sp + 0x78]\n 86478: a0 = a0 + a1\n 86481: u64 [sp + 0x98] = a0\n 86485: a0 = u64 [sp + 0x68]\n 86488: i32 a0 = a0 + 0x80\n 86492: a1 = 0x20\n 86495: ra = 984, jump @0\n      : @1098 [@dyn 492] (gas: 127)\n 86502: a1 = u8 [a0 + 0x19]\n 86505: a2 = u8 [a0 + 0x18]\n 86508: a3 = u8 [a0 + 0x1a]\n 86511: a4 = u8 [a0 + 0x1b]\n 86514: a1 = a1 << 0x8\n 86517: a1 = a1 | a2\n 86520: a3 = a3 << 0x10\n 86523: a4 = a4 << 0x18\n 86526: a3 = a3 | a4\n 86529: a1 = a1 | a3\n 86532: a2 = u8 [a0 + 0x1d]\n 86535: a3 = u8 [a0 + 0x1c]\n 86538: a4 = u8 [a0 + 0x1e]\n 86541: a5 = u8 [a0 + 0x1f]\n 86544: a2 = a2 << 0x8\n 86547: a2 = a2 | a3\n 86550: a4 = a4 << 0x10\n 86553: a5 = a5 << 0x18\n 86556: a4 = a4 | a5\n 86559: a2 = a2 | a4\n 86562: a2 = a2 << 0x20\n 86565: a1 = a1 | a2\n 86568: a2 = u8 [a0 + 0x11]\n 86571: a3 = u8 [a0 + 0x10]\n 86574: a4 = u8 [a0 + 0x12]\n 86577: a5 = u8 [a0 + 0x13]\n 86580: a2 = a2 << 0x8\n 86583: a2 = a2 | a3\n 86586: a4 = a4 << 0x10\n 86589: a5 = a5 << 0x18\n 86592: a4 = a4 | a5\n 86595: a2 = a2 | a4\n 86598: a3 = u8 [a0 + 0x15]\n 86601: a4 = u8 [a0 + 0x14]\n 86604: a5 = u8 [a0 + 0x16]\n 86607: s1 = u8 [a0 + 0x17]\n 86610: a3 = a3 << 0x8\n 86613: a3 = a3 | a4\n 86616: a5 = a5 << 0x10\n 86619: s1 = s1 << 0x18\n 86622: a5 = a5 | s1\n 86625: a3 = a3 | a5\n 86628: a3 = a3 << 0x20\n 86631: a2 = a2 | a3\n 86634: a3 = u8 [a0 + 0x9]\n 86637: a4 = u8 [a0 + 0x8]\n 86640: a5 = u8 [a0 + 0xa]\n 86643: s1 = u8 [a0 + 0xb]\n 86646: a3 = a3 << 0x8\n 86649: a3 = a3 | a4\n 86652: a5 = a5 << 0x10\n 86655: s1 = s1 << 0x18\n 86658: a5 = a5 | s1\n 86661: a3 = a3 | a5\n 86664: a4 = u8 [a0 + 0xd]\n 86667: a5 = u8 [a0 + 0xc]\n 86670: s1 = u8 [a0 + 0xe]\n 86673: a0 = u8 [a0 + 0xf]\n 86676: a4 = a4 << 0x8\n 86679: a4 = a4 | a5\n 86682: s1 = s1 << 0x10\n 86685: a0 = a0 << 0x18\n 86688: a0 = a0 | s1\n 86691: a0 = a0 | a4\n 86694: a0 = a0 << 0x20\n 86697: a0 = a0 | a3\n 86700: u32 [sp + 288] = 0x20\n 86705: a3 = u64 [sp + 0x80]\n 86709: a0 = a0 & a3\n 86712: a2 = a2 & 0xffffffffffffffff\n 86715: a1 = a1 & 0xffffffffffffffff\n 86718: a1 = reverse a1\n 86720: u64 [sp + 0x78] = a1\n 86723: a1 = reverse a2\n 86725: u64 [sp + 0x68] = a1\n 86728: a0 = reverse a0\n 86730: u64 [sp + 0x60] = a0\n 86733: a0 = u64 [sp + 0x90]\n 86737: u64 [sp + 0x150] = a0\n 86741: a0 = u64 [sp + 0x88]\n 86745: u64 [sp + 0x148] = a0\n 86749: a0 = u64 [sp + 0x70]\n 86752: u64 [sp + 0x140] = a0\n 86756: s1 = u64 [sp + 0x98]\n 86760: u64 [sp + 0x158] = s1\n 86764: u64 [sp + 376] = 0\n 86768: u64 [sp + 368] = 0\n 86772: u64 [sp + 360] = 0\n 86776: u64 [sp + 352] = 0\n 86780: i32 a1 = sp + 0x140\n 86784: i32 a3 = sp + 0x160\n 86788: i32 a4 = sp + 0x120\n 86792: a2 = 0xffffffffffffffff\n 86795: a0 = 0\n 86797: ecalli 7 // 'get_storage'\n 86799: a0 = u64 [sp + 0x178]\n 86803: a1 = u64 [sp + 0x170]\n 86807: a0 = a0 & 0xffffffffffffffff\n 86810: a2 = u64 [sp + 0x80]\n 86814: a1 = a1 & a2\n 86817: a2 = u64 [sp + 0x60]\n 86820: a1 = a1 | a2\n 86823: u64 [sp + 0x158] = s1\n 86827: a2 = u64 [sp + 0x90]\n 86831: u64 [sp + 0x150] = a2\n 86835: a2 = u64 [sp + 0x88]\n 86839: u64 [sp + 0x148] = a2\n 86843: a2 = u64 [sp + 0x70]\n 86846: u64 [sp + 0x140] = a2\n 86850: u64 [sp + 0x178] = a0\n 86854: u64 [sp + 0x170] = a1\n 86858: a0 = u64 [sp + 0x68]\n 86861: u64 [sp + 0x168] = a0\n 86865: a0 = u64 [sp + 0x78]\n 86868: u64 [sp + 0x160] = a0\n 86872: i32 a1 = sp + 0x140\n 86876: i32 a3 = sp + 0x160\n 86880: a2 = 0xffffffffffffffff\n 86883: a4 = 0x20\n 86886: a0 = 0\n 86888: ecalli 15 // 'set_storage'\n 86890: sp = s0 + 0xfffffffffffffe60\n 86894: ra = u64 [sp + 0x198]\n 86898: s0 = u64 [sp + 0x190]\n 86902: s1 = u64 [sp + 0x188]\n 86906: sp = sp + 0x1a0\n 86910: ret\n      : @1099 (gas: 1)\n 86912: trap\n      : @1100 (gas: 7)\n 86913: a4 = u64 [sp + 0x218]\n 86917: a3 = u64 [sp + 0x210]\n 86921: a2 = u64 [sp + 0x208]\n 86925: a0 = a3 | a4\n 86928: a1 = a2 <u 0x1\n 86931: a1 = 0 if a0 != 0\n 86933: jump @1103 if a1 == 0\n      : @1101 (gas: 50)\n 86937: a0 = u64 [sp + 0x200]\n 86941: u64 [sp + 0x58] = a0\n 86944: a0 = a0 + 0x1\n 86947: a1 = a0 <u 0x1\n 86950: a1 = a1 + a2\n 86953: u64 [sp + 0x200] = a0\n 86957: a0 = a0 | a1\n 86960: u64 [sp + 0x208] = a1\n 86964: a0 = a0 <u 0x1\n 86967: a0 = a0 + a3\n 86970: u64 [sp + 0x210] = a0\n 86974: a0 = a0 <u a3\n 86977: a0 = a0 + a4\n 86980: u64 [sp + 0x218] = a0\n 86984: a0 = u64 [sp + 0x70]\n 86987: u64 [sp + 0x1e8] = a0\n 86991: a0 = u64 [sp + 0x78]\n 86994: u64 [sp + 0x1e0] = a0\n 86998: a0 = u64 [sp + 0x68]\n 87001: u64 [sp + 0x1f0] = a0\n 87005: s1 = u64 [sp + 0x60]\n 87008: u64 [sp + 0x1f8] = s1\n 87012: i32 a1 = sp + 0x1e0\n 87016: u64 [sp + 0x48] = a3\n 87019: i32 a3 = sp + 0x200\n 87023: u64 [sp + 0x40] = a2\n 87026: a2 = 0xffffffffffffffff\n 87029: u64 [sp + 0x38] = a4\n 87032: a4 = 0x20\n 87035: a0 = 0\n 87037: ecalli 15 // 'set_storage'\n 87039: a0 = u64 [sp + 0x38]\n 87042: u64 [sp + 0x158] = a0\n 87046: a0 = u64 [sp + 0x48]\n 87049: u64 [sp + 0x150] = a0\n 87053: a0 = u64 [sp + 0x40]\n 87056: u64 [sp + 0x148] = a0\n 87060: a0 = u64 [sp + 0x58]\n 87063: u64 [sp + 0x140] = a0\n 87067: u64 [sp + 0x178] = s1\n 87071: a0 = u64 [sp + 0x68]\n 87074: u64 [sp + 0x170] = a0\n 87078: a0 = u64 [sp + 0x70]\n 87081: u64 [sp + 0x168] = a0\n 87085: a0 = sp + 0x180\n 87089: a1 = sp + 0x160\n 87093: a2 = sp + 0x140\n 87097: a3 = u64 [sp + 0x78]\n 87100: u64 [sp + 0x160] = a3\n 87104: ra = 986, jump @347\n      : @1102 [@dyn 493] (gas: 453)\n 87111: a0 = u64 [sp + 0x1b8]\n 87115: u64 [sp + 0x58] = a0\n 87118: a0 = u64 [sp + 0x1b0]\n 87122: u64 [sp + 0x48] = a0\n 87125: s1 = u64 [sp + 0x1a8]\n 87129: a0 = u64 [sp + 0x1a0]\n 87133: u64 [sp + 0x18] = a0\n 87136: a3 = u64 [sp + 0x198]\n 87140: u64 [sp + 0x60] = a3\n 87143: a2 = u64 [sp + 0x190]\n 87147: u64 [sp + 0x68] = a2\n 87150: a1 = u64 [sp + 0x188]\n 87154: u64 [sp + 0x70] = a1\n 87157: a0 = u64 [sp + 0x180]\n 87161: u64 [sp + 0x78] = a0\n 87164: u64 [sp + 0x1f8] = a3\n 87168: u64 [sp + 0x1f0] = a2\n 87172: u64 [sp + 0x1e8] = a1\n 87176: u64 [sp + 0x1e0] = a0\n 87180: u64 [sp + 536] = 0\n 87184: u64 [sp + 528] = 0\n 87188: u64 [sp + 520] = 0\n 87192: u64 [sp + 512] = 0\n 87196: u32 [sp + 448] = 0x20\n 87201: i32 a1 = sp + 0x1e0\n 87205: i32 a3 = sp + 0x200\n 87209: i32 a4 = sp + 0x1c0\n 87213: a2 = 0xffffffffffffffff\n 87216: a0 = 0\n 87218: ecalli 7 // 'get_storage'\n 87220: a2 = u64 [sp + 0x18]\n 87223: a0 = a2 >> 0x3d\n 87226: a1 = s1 << 0x3\n 87229: a0 = a0 | a1\n 87232: a1 = a2 << 0x3\n 87235: a1 = a1 <u 0x100\n 87239: t1 = a1 ^ 0x1\n 87242: a1 = a0 >u 0\n 87244: t1 = a1 if a0 != 0\n 87247: s1 = s1 >> 0x3d\n 87250: a1 = u64 [sp + 0x48]\n 87253: a0 = a1 << 0x3\n 87256: a0 = a0 | s1\n 87259: a1 = a1 >> 0x3d\n 87262: a3 = u64 [sp + 0x58]\n 87265: a3 = a3 << 0x3\n 87268: a1 = a1 | a3\n 87271: a3 = a1 >u 0\n 87273: a4 = a0 >u 0\n 87275: a4 = a3 if a1 != 0\n 87278: a0 = a0 | a1\n 87281: t1 = a4 if a0 != 0\n 87284: a0 = u64 [sp + 0x200]\n 87288: u64 [sp + 0x58] = a0\n 87291: a0 = u64 [sp + 0x208]\n 87295: u64 [sp + 0x48] = a0\n 87298: a0 = u64 [sp + 0x210]\n 87302: u64 [sp + 0x40] = a0\n 87305: a0 = u64 [sp + 0x218]\n 87309: u64 [sp + 0x38] = a0\n 87312: u8 [sp + 319] = 0xff\n 87318: u8 [sp + 318] = 0xff\n 87324: u8 [sp + 317] = 0xff\n 87330: u8 [sp + 316] = 0xff\n 87336: u8 [sp + 315] = 0xff\n 87342: u8 [sp + 314] = 0xff\n 87348: u8 [sp + 313] = 0xff\n 87354: u8 [sp + 312] = 0xff\n 87360: u8 [sp + 311] = 0xff\n 87366: u8 [sp + 310] = 0xff\n 87372: u8 [sp + 309] = 0xff\n 87378: u8 [sp + 308] = 0xff\n 87384: u8 [sp + 307] = 0xff\n 87390: u8 [sp + 306] = 0xff\n 87396: u8 [sp + 305] = 0xff\n 87402: u8 [sp + 304] = 0xff\n 87408: u8 [sp + 303] = 0xff\n 87414: u8 [sp + 302] = 0xff\n 87420: u8 [sp + 301] = 0xff\n 87426: u8 [sp + 300] = 0xff\n 87432: u8 [sp + 299] = 0xff\n 87438: u8 [sp + 298] = 0xff\n 87444: u8 [sp + 297] = 0xff\n 87450: u8 [sp + 296] = 0xff\n 87456: u8 [sp + 295] = 0xff\n 87462: u8 [sp + 294] = 0xff\n 87468: u8 [sp + 293] = 0xff\n 87474: u8 [sp + 292] = 0xff\n 87480: u8 [sp + 291] = 0xff\n 87486: u8 [sp + 290] = 0xff\n 87492: u8 [sp + 289] = 0xff\n 87498: u8 [sp + 288] = 0xff\n 87504: u8 [sp + 287] = 0\n 87508: u8 [sp + 286] = 0\n 87512: u8 [sp + 285] = 0\n 87516: u8 [sp + 284] = 0\n 87520: u8 [sp + 283] = 0\n 87524: u8 [sp + 282] = 0\n 87528: u8 [sp + 281] = 0\n 87532: u8 [sp + 280] = 0\n 87536: u8 [sp + 279] = 0\n 87540: u8 [sp + 278] = 0\n 87544: u8 [sp + 277] = 0\n 87548: u8 [sp + 276] = 0\n 87552: u8 [sp + 275] = 0\n 87556: u8 [sp + 274] = 0\n 87560: u8 [sp + 273] = 0\n 87564: u8 [sp + 272] = 0\n 87568: u8 [sp + 271] = 0\n 87572: u8 [sp + 270] = 0\n 87576: u8 [sp + 269] = 0\n 87580: u8 [sp + 268] = 0\n 87584: u8 [sp + 267] = 0\n 87588: u8 [sp + 266] = 0\n 87592: u8 [sp + 265] = 0\n 87596: u8 [sp + 264] = 0\n 87600: u8 [sp + 263] = 0\n 87604: u8 [sp + 262] = 0\n 87608: u8 [sp + 261] = 0\n 87612: u8 [sp + 260] = 0\n 87616: u8 [sp + 259] = 0\n 87620: u8 [sp + 258] = 0\n 87624: u8 [sp + 257] = 0\n 87628: u8 [sp + 256] = 0\n 87632: a4 = a2 & 0x1f\n 87635: a3 = sp + 0x120\n 87639: a3 = a3 - a4\n 87642: a0 = u8 [a3 + 0x19]\n 87645: a1 = u8 [a3 + 0x18]\n 87648: a5 = u8 [a3 + 0x1a]\n 87651: s1 = u8 [a3 + 0x1b]\n 87654: a0 = a0 << 0x8\n 87657: a0 = a0 | a1\n 87660: a5 = a5 << 0x10\n 87663: s1 = s1 << 0x18\n 87666: a5 = a5 | s1\n 87669: t0 = a5 | a0\n 87672: a1 = u8 [a3 + 0x1d]\n 87675: a5 = u8 [a3 + 0x1c]\n 87678: s1 = u8 [a3 + 0x1e]\n 87681: a0 = u8 [a3 + 0x1f]\n 87684: a1 = a1 << 0x8\n 87687: a1 = a1 | a5\n 87690: s1 = s1 << 0x10\n 87693: a0 = a0 << 0x18\n 87696: a0 = a0 | s1\n 87699: a0 = a0 | a1\n 87702: a0 = a0 << 0x20\n 87705: a0 = a0 | t0\n 87708: u64 [sp + 0x18] = a0\n 87711: a0 = u8 [a3 + 0x11]\n 87714: a1 = u8 [a3 + 0x10]\n 87717: a5 = u8 [a3 + 0x12]\n 87720: s1 = u8 [a3 + 0x13]\n 87723: a0 = a0 << 0x8\n 87726: a0 = a0 | a1\n 87729: a5 = a5 << 0x10\n 87732: s1 = s1 << 0x18\n 87735: a5 = a5 | s1\n 87738: t0 = a5 | a0\n 87741: a1 = u8 [a3 + 0x15]\n 87744: a5 = u8 [a3 + 0x14]\n 87747: s1 = u8 [a3 + 0x16]\n 87750: a0 = u8 [a3 + 0x17]\n 87753: a1 = a1 << 0x8\n 87756: a1 = a1 | a5\n 87759: s1 = s1 << 0x10\n 87762: a0 = a0 << 0x18\n 87765: a0 = a0 | s1\n 87768: a0 = a0 | a1\n 87771: a0 = a0 << 0x20\n 87774: a0 = a0 | t0\n 87777: u64 [sp + 0x10] = a0\n 87780: a0 = u8 [a3 + 0x9]\n 87783: a1 = u8 [a3 + 0x8]\n 87786: a5 = u8 [a3 + 0xa]\n 87789: s1 = u8 [a3 + 0xb]\n 87792: a0 = a0 << 0x8\n 87795: a0 = a0 | a1\n 87798: a5 = a5 << 0x10\n 87801: s1 = s1 << 0x18\n 87804: a5 = a5 | s1\n 87807: a2 = a5 | a0\n 87810: a1 = u8 [a3 + 0xd]\n 87813: a5 = u8 [a3 + 0xc]\n 87816: s1 = u8 [a3 + 0xe]\n 87819: a0 = u8 [a3 + 0xf]\n 87822: a1 = a1 << 0x8\n 87825: a1 = a1 | a5\n 87828: s1 = s1 << 0x10\n 87831: a0 = a0 << 0x18\n 87834: a0 = a0 | s1\n 87837: a0 = a0 | a1\n 87840: a0 = a0 << 0x20\n 87843: ra = a0 | a2\n 87846: a0 = u8 [a3 + 0x1]\n 87849: a1 = u8 [a3]\n 87851: a2 = u8 [a3 + 0x2]\n 87854: s1 = u8 [a3 + 0x3]\n 87857: a0 = a0 << 0x8\n 87860: a0 = a0 | a1\n 87863: a2 = a2 << 0x10\n 87866: s1 = s1 << 0x18\n 87869: a2 = a2 | s1\n 87872: a0 = a0 | a2\n 87875: a1 = u8 [a3 + 0x5]\n 87878: a2 = u8 [a3 + 0x4]\n 87881: s1 = u8 [a3 + 0x6]\n 87884: a3 = u8 [a3 + 0x7]\n 87887: a1 = a1 << 0x8\n 87890: a1 = a1 | a2\n 87893: s1 = s1 << 0x10\n 87896: a3 = a3 << 0x18\n 87899: a3 = a3 | s1\n 87902: a1 = a1 | a3\n 87905: a1 = a1 << 0x20\n 87908: t2 = a1 | a0\n 87911: a1 = u64 [sp + 0x20]\n 87914: a0 = a1 >> 0x38\n 87917: u8 [sp + 0xe7] = a0\n 87921: a0 = a1 >> 0x30\n 87924: u8 [sp + 0xe6] = a0\n 87928: a0 = a1 >> 0x28\n 87931: u8 [sp + 0xe5] = a0\n 87935: a0 = a1 >> 0x20\n 87938: u8 [sp + 0xe4] = a0\n 87942: a0 = a1 >> 0x18\n 87945: u8 [sp + 0xe3] = a0\n 87949: a0 = a1 >> 0x10\n 87952: u8 [sp + 0xe2] = a0\n 87956: u8 [sp + 0xe0] = a1\n 87960: a0 = a1 >> 0x8\n 87963: u8 [sp + 0xe1] = a0\n 87967: a1 = u64 [sp + 0x28]\n 87970: a0 = a1 >> 0x38\n 87973: u8 [sp + 0xef] = a0\n 87977: a0 = a1 >> 0x30\n 87980: u8 [sp + 0xee] = a0\n 87984: a0 = a1 >> 0x28\n 87987: u8 [sp + 0xed] = a0\n 87991: a0 = a1 >> 0x20\n 87994: u8 [sp + 0xec] = a0\n 87998: a0 = a1 >> 0x18\n 88001: u8 [sp + 0xeb] = a0\n 88005: a0 = a1 >> 0x10\n 88008: u8 [sp + 0xea] = a0\n 88012: u8 [sp + 0xe8] = a1\n 88016: a0 = a1 >> 0x8\n 88019: u8 [sp + 0xe9] = a0\n 88023: a1 = u64 [sp + 0x30]\n 88026: a0 = a1 >> 0x38\n 88029: u8 [sp + 0xf7] = a0\n 88033: a0 = a1 >> 0x30\n 88036: u8 [sp + 0xf6] = a0\n 88040: a0 = a1 >> 0x28\n 88043: u8 [sp + 0xf5] = a0\n 88047: a0 = a1 >> 0x20\n 88050: u8 [sp + 0xf4] = a0\n 88054: a0 = a1 >> 0x18\n 88057: u8 [sp + 0xf3] = a0\n 88061: a0 = a1 >> 0x10\n 88064: u8 [sp + 0xf2] = a0\n 88068: u8 [sp + 0xf0] = a1\n 88072: a0 = a1 >> 0x8\n 88075: u8 [sp + 0xf1] = a0\n 88079: a1 = u64 [sp + 0x50]\n 88082: a0 = a1 >> 0x38\n 88085: u8 [sp + 0xff] = a0\n 88089: a0 = a1 >> 0x30\n 88092: u8 [sp + 0xfe] = a0\n 88096: a0 = a1 >> 0x28\n 88099: u8 [sp + 0xfd] = a0\n 88103: a0 = a1 >> 0x20\n 88106: u8 [sp + 0xfc] = a0\n 88110: a0 = a1 >> 0x18\n 88113: u8 [sp + 0xfb] = a0\n 88117: a0 = a1 >> 0x10\n 88120: u8 [sp + 0xfa] = a0\n 88124: u8 [sp + 0xf8] = a1\n 88128: a0 = a1 >> 0x8\n 88131: u8 [sp + 0xf9] = a0\n 88135: a0 = sp + 0xe0\n 88139: a4 = a0 - a4\n 88142: u8 [sp + 223] = 0\n 88146: u8 [sp + 222] = 0\n 88150: u8 [sp + 221] = 0\n 88154: u8 [sp + 220] = 0\n 88158: u8 [sp + 219] = 0\n 88162: u8 [sp + 218] = 0\n 88166: u8 [sp + 217] = 0\n 88170: u8 [sp + 216] = 0\n 88174: u8 [sp + 215] = 0\n 88178: u8 [sp + 214] = 0\n 88182: u8 [sp + 213] = 0\n 88186: u8 [sp + 212] = 0\n 88190: u8 [sp + 211] = 0\n 88194: u8 [sp + 210] = 0\n 88198: u8 [sp + 209] = 0\n 88202: u8 [sp + 208] = 0\n 88206: u8 [sp + 207] = 0\n 88210: u8 [sp + 206] = 0\n 88214: u8 [sp + 205] = 0\n 88218: u8 [sp + 204] = 0\n 88222: u8 [sp + 203] = 0\n 88226: u8 [sp + 202] = 0\n 88230: u8 [sp + 201] = 0\n 88234: u8 [sp + 200] = 0\n 88238: u8 [sp + 199] = 0\n 88242: u8 [sp + 198] = 0\n 88246: u8 [sp + 197] = 0\n 88250: u8 [sp + 196] = 0\n 88254: u8 [sp + 195] = 0\n 88258: u8 [sp + 194] = 0\n 88262: u8 [sp + 193] = 0\n 88266: u8 [sp + 192] = 0\n 88270: a0 = u8 [a4 + 0x19]\n 88273: a1 = u8 [a4 + 0x18]\n 88276: a2 = u8 [a4 + 0x1a]\n 88279: s1 = u8 [a4 + 0x1b]\n 88282: a0 = a0 << 0x8\n 88285: a0 = a0 | a1\n 88288: a2 = a2 << 0x10\n 88291: s1 = s1 << 0x18\n 88294: a2 = a2 | s1\n 88297: a3 = a2 | a0\n 88300: a1 = u8 [a4 + 0x1d]\n 88303: a2 = u8 [a4 + 0x1c]\n 88306: s1 = u8 [a4 + 0x1e]\n 88309: a0 = u8 [a4 + 0x1f]\n 88312: a1 = a1 << 0x8\n 88315: a1 = a1 | a2\n 88318: s1 = s1 << 0x10\n 88321: a0 = a0 << 0x18\n 88324: a0 = a0 | s1\n 88327: a0 = a0 | a1\n 88330: a0 = a0 << 0x20\n 88333: s1 = a0 | a3\n 88336: a0 = u8 [a4 + 0x11]\n 88339: a1 = u8 [a4 + 0x10]\n 88342: a2 = u8 [a4 + 0x12]\n 88345: a3 = u8 [a4 + 0x13]\n 88348: a0 = a0 << 0x8\n 88351: a0 = a0 | a1\n 88354: a2 = a2 << 0x10\n 88357: a3 = a3 << 0x18\n 88360: a2 = a2 | a3\n 88363: a5 = a2 | a0\n 88366: a1 = u8 [a4 + 0x15]\n 88369: a2 = u8 [a4 + 0x14]\n 88372: a3 = u8 [a4 + 0x16]\n 88375: a0 = u8 [a4 + 0x17]\n 88378: a1 = a1 << 0x8\n 88381: a1 = a1 | a2\n 88384: a3 = a3 << 0x10\n 88387: a0 = a0 << 0x18\n 88390: a0 = a0 | a3\n 88393: a0 = a0 | a1\n 88396: a0 = a0 << 0x20\n 88399: t0 = a0 | a5\n 88402: a0 = u8 [a4 + 0x9]\n 88405: a2 = u8 [a4 + 0x8]\n 88408: a3 = u8 [a4 + 0xa]\n 88411: a5 = u8 [a4 + 0xb]\n 88414: a0 = a0 << 0x8\n 88417: a0 = a0 | a2\n 88420: a3 = a3 << 0x10\n 88423: a5 = a5 << 0x18\n 88426: a3 = a3 | a5\n 88429: a1 = a3 | a0\n 88432: a2 = u8 [a4 + 0xd]\n 88435: a3 = u8 [a4 + 0xc]\n 88438: a5 = u8 [a4 + 0xe]\n 88441: a0 = u8 [a4 + 0xf]\n 88444: a2 = a2 << 0x8\n 88447: a2 = a2 | a3\n 88450: a5 = a5 << 0x10\n 88453: a0 = a0 << 0x18\n 88456: a0 = a0 | a5\n 88459: a0 = a0 | a2\n 88462: a0 = a0 << 0x20\n 88465: a0 = a0 | a1\n 88468: a1 = u8 [a4 + 0x1]\n 88471: a2 = u8 [a4]\n 88473: a3 = u8 [a4 + 0x2]\n 88476: a5 = u8 [a4 + 0x3]\n 88479: a1 = a1 << 0x8\n 88482: a1 = a1 | a2\n 88485: a3 = a3 << 0x10\n 88488: a5 = a5 << 0x18\n 88491: a3 = a3 | a5\n 88494: a1 = a1 | a3\n 88497: a2 = u8 [a4 + 0x5]\n 88500: a3 = u8 [a4 + 0x4]\n 88503: a5 = u8 [a4 + 0x6]\n 88506: a4 = u8 [a4 + 0x7]\n 88509: a2 = a2 << 0x8\n 88512: a2 = a2 | a3\n 88515: a5 = a5 << 0x10\n 88518: a4 = a4 << 0x18\n 88521: a4 = a4 | a5\n 88524: a2 = a2 | a4\n 88527: a2 = a2 << 0x20\n 88530: a4 = a2 | a1\n 88533: t2 = 0 if t1 != 0\n 88535: ra = 0 if t1 != 0\n 88537: a5 = u64 [sp + 0x10]\n 88540: a5 = 0 if t1 != 0\n 88542: a2 = u64 [sp + 0x18]\n 88545: a2 = 0 if t1 != 0\n 88547: a4 = 0 if t1 != 0\n 88549: a0 = 0 if t1 != 0\n 88551: t0 = 0 if t1 != 0\n 88553: s1 = 0 if t1 != 0\n 88555: a1 = u64 [sp + 0x38]\n 88558: t1 = a1 & ~a2\n 88561: a2 = a2 & s1\n 88564: a1 = u64 [sp + 0x40]\n 88567: a3 = a1 & ~a5\n 88570: a5 = t0 & a5\n 88573: a1 = u64 [sp + 0x48]\n 88576: s1 = a1 & ~ra\n 88579: a0 = a0 & ra\n 88582: a1 = u64 [sp + 0x58]\n 88585: a1 = a1 & ~t2\n 88588: a4 = a4 & t2\n 88591: a1 = a1 | a4\n 88594: a0 = a0 | s1\n 88597: a3 = a3 | a5\n 88600: a2 = t1 | a2\n 88603: a4 = u64 [sp + 0x60]\n 88606: u64 [sp + 0x1f8] = a4\n 88610: a4 = u64 [sp + 0x68]\n 88613: u64 [sp + 0x1f0] = a4\n 88617: a4 = u64 [sp + 0x70]\n 88620: u64 [sp + 0x1e8] = a4\n 88624: a4 = u64 [sp + 0x78]\n 88627: u64 [sp + 0x1e0] = a4\n 88631: u64 [sp + 0x218] = a2\n 88635: u64 [sp + 0x210] = a3\n 88639: u64 [sp + 0x208] = a0\n 88643: u64 [sp + 0x200] = a1\n 88647: i32 a1 = sp + 0x1e0\n 88651: i32 a3 = sp + 0x200\n 88655: a2 = 0xffffffffffffffff\n 88658: a4 = 0x20\n 88661: a0 = 0\n 88663: ecalli 15 // 'set_storage'\n 88665: sp = s0 + 0xfffffffffffffdc0\n 88669: ra = u64 [sp + 0x238]\n 88673: s0 = u64 [sp + 0x230]\n 88677: s1 = u64 [sp + 0x228]\n 88681: sp = sp + 0x240\n 88685: ret\n      : @1103 (gas: 8)\n 88687: u64 [sp + 176] = 0\n 88691: u64 [sp + 168] = 0\n 88695: u64 [sp + 160] = 0\n 88699: a0 = 0x4e487b7100000000\n 88709: a1 = sp + 0xa0\n 88713: u64 [sp + 0xb8] = a0\n 88717: a0 = 0\n 88719: ra = 988, jump @23\n      : @1104 [@dyn 494] (gas: 7)\n 88726: u64 [sp + 152] = 0\n 88730: u64 [sp + 144] = 0\n 88734: u64 [sp + 128] = 0x41\n 88739: a0 = 0x4\n 88742: a1 = sp + 0x80\n 88746: u64 [sp + 136] = 0\n 88750: ra = 990, jump @23\n      : @1105 [@dyn 495] (gas: 3)\n 88757: a1 = 0x24\n 88760: a0 = 0\n 88762: ra = 992, jump @0\n      : @1106 [@dyn 496] (gas: 6)\n 88769: i32 a1 = a0 + 0\n 88771: a0 = 0x1\n 88774: a2 = 0x24\n 88777: ra = 0x3e2\n 88781: ecalli 13 // 'seal_return'\n 88783: fallthrough\n      : @1107 [@dyn 497] (gas: 20)\n 88784: sp = sp + 0xfffffffffffff880\n 88788: u64 [sp + 0x778] = ra\n 88792: u64 [sp + 0x770] = s0\n 88796: u64 [sp + 0x768] = s1\n 88800: s0 = sp + 0x780\n 88804: sp = sp & 0xffffffffffffffe0\n 88807: s1 = sp\n 88809: t1 = u64 [a2 + 0x10]\n 88812: t2 = u64 [a2 + 0x18]\n 88815: t0 = u64 [a2 + 0x8]\n 88818: a2 = u64 [a2]\n 88820: u64 [s1 + 0x1c8] = t0\n 88824: u64 [s1 + 0x1c0] = t2\n 88828: t0 = t0 | t2\n 88831: u64 [s1 + 0x1d8] = t1\n 88835: u64 [s1 + 0x1d0] = a2\n 88839: a2 = a2 | t1\n 88842: a2 = a2 | t0\n 88845: u64 [s1 + 0x30] = a0\n 88848: jump @1109 if a2 != 0\n      : @1108 (gas: 1)\n 88851: jump @1163\n      : @1109 (gas: 68)\n 88854: a0 = u64 [s0 + 0x10]\n 88857: a2 = u64 [a0 + 0x18]\n 88860: u64 [s1 + 0x88] = a2\n 88864: t0 = u64 [s0 + 0x8]\n 88867: a2 = u64 [a0 + 0x10]\n 88870: u64 [s1 + 0x68] = a2\n 88873: a2 = u64 [a0 + 0x8]\n 88876: u64 [s1 + 0x70] = a2\n 88879: a0 = u64 [a0]\n 88881: u64 [s1 + 0x78] = a0\n 88884: a0 = u64 [t0 + 0x18]\n 88887: u64 [s1 + 0x80] = a0\n 88891: a0 = u64 [s0]\n 88893: a2 = u64 [t0 + 0x10]\n 88896: u64 [s1 + 0x58] = a2\n 88899: a2 = u64 [t0 + 0x8]\n 88902: u64 [s1 + 0x60] = a2\n 88905: a2 = u64 [t0]\n 88907: u64 [s1 + 0x90] = a2\n 88911: a2 = u64 [a0 + 0x10]\n 88914: u64 [s1 + 0x250] = a2\n 88918: a2 = u64 [a0 + 0x8]\n 88921: u64 [s1 + 0x1b0] = a2\n 88925: a0 = u64 [a0]\n 88927: u64 [s1 + 0x1b8] = a0\n 88931: a0 = u64 [a5 + 0x18]\n 88934: u64 [s1 + 0x1e0] = a0\n 88938: a0 = u64 [a5 + 0x10]\n 88941: u64 [s1 + 0x1e8] = a0\n 88945: a0 = u64 [a5 + 0x8]\n 88948: u64 [s1 + 0x1f0] = a0\n 88952: a0 = u64 [a5]\n 88954: u64 [s1 + 0x1f8] = a0\n 88958: a0 = u64 [a4 + 0x18]\n 88961: u64 [s1 + 0x38] = a0\n 88964: a0 = u64 [a4 + 0x10]\n 88967: u64 [s1 + 0x40] = a0\n 88970: a0 = u64 [a4 + 0x8]\n 88973: u64 [s1 + 0x48] = a0\n 88976: a0 = u64 [a4]\n 88978: u64 [s1 + 0x50] = a0\n 88981: a0 = u64 [a3 + 0x18]\n 88984: u64 [s1 + 0x200] = a0\n 88988: a0 = u64 [a3 + 0x10]\n 88991: u64 [s1 + 0x208] = a0\n 88995: a0 = u64 [a3 + 0x8]\n 88998: u64 [s1 + 0x210] = a0\n 89002: a0 = u64 [a3]\n 89004: u64 [s1 + 0x218] = a0\n 89008: a0 = u64 [a1 + 0x18]\n 89011: u64 [s1 + 0x190] = a0\n 89015: a0 = u64 [a1 + 0x10]\n 89018: u64 [s1 + 0x198] = a0\n 89022: a0 = u64 [a1 + 0x8]\n 89025: u64 [s1 + 0x1a0] = a0\n 89029: a0 = u64 [a1]\n 89031: u64 [s1 + 0x1a8] = a0\n 89035: a0 = sp + 0xffffffffffffffe0\n 89038: a0 = a0 & 0xffffffffffffffe0\n 89041: u64 [s1 + 0x258] = a0\n 89045: sp = a0\n 89047: u64 [a0 + 24] = 0\n 89050: u64 [a0 + 16] = 0\n 89053: u64 [a0 + 8] = 0\n 89056: u64 [a0 + 0] = 0\n 89058: i32 a0 = a0 + 0\n 89060: ecalli 16 // 'value_transferred'\n 89062: fallthrough\n      : @1110 (gas: 21)\n 89063: a1 = u64 [s1 + 0x258]\n 89067: a0 = u64 [a1 + 0x18]\n 89070: t0 = u64 [a1]\n 89072: a2 = u64 [a1 + 0x10]\n 89075: a3 = u64 [a1 + 0x8]\n 89078: a1 = u64 [s1 + 0x200]\n 89082: a4 = a0 ^ a1\n 89085: a1 = a0 <u a1\n 89088: a0 = u64 [s1 + 0x208]\n 89092: a5 = a2 <u a0\n 89095: a5 = a1 if a4 != 0\n 89098: a1 = u64 [s1 + 0x210]\n 89102: t1 = a3 ^ a1\n 89105: a3 = a3 <u a1\n 89108: a1 = u64 [s1 + 0x218]\n 89112: a1 = t0 <u a1\n 89115: a1 = a3 if t1 != 0\n 89118: a0 = a0 ^ a2\n 89121: a0 = a0 | a4\n 89124: a1 = a5 if a0 != 0\n 89127: jump @1112 if a1 == 0\n      : @1111 (gas: 1)\n 89130: jump @1168\n      : @1112 (gas: 8)\n 89133: a0 = u64 [s1 + 0x1e8]\n 89137: a1 = u64 [s1 + 0x1f8]\n 89141: a0 = a0 | a1\n 89144: a1 = u64 [s1 + 0x1e0]\n 89148: a2 = u64 [s1 + 0x1f0]\n 89152: a1 = a1 | a2\n 89155: a0 = a0 | a1\n 89158: jump @1114 if a0 != 0\n      : @1113 (gas: 1)\n 89161: jump @1173\n      : @1114 (gas: 9)\n 89164: a0 = u64 [s1 + 0x250]\n 89168: a0 = a0 << 0x20\n 89171: a2 = a0 >> 0x20\n 89174: a0 = u64 [s1 + 0x1b8]\n 89178: a1 = u64 [s1 + 0x1b0]\n 89182: a0 = a0 | a1\n 89185: u64 [s1 + 0x28] = a2\n 89188: a0 = a0 | a2\n 89191: jump @1116 if a0 != 0\n      : @1115 (gas: 1)\n 89194: jump @1178\n      : @1116 (gas: 28)\n 89197: a0 = 0x20114\n 89202: u64 [s1 + 0x188] = a0\n 89206: a0 = u32 [0x20114]\n 89211: u64 [s1 + 1560] = 0\n 89215: u64 [s1 + 1552] = 0\n 89219: u64 [s1 + 1544] = 0\n 89223: u64 [s1 + 0x600] = a0\n 89227: a0 = u64 [s1 + 0x1d8]\n 89231: u64 [s1 + 0x630] = a0\n 89235: a0 = u64 [s1 + 0x1c8]\n 89239: u64 [s1 + 0x628] = a0\n 89243: a0 = u64 [s1 + 0x1d0]\n 89247: u64 [s1 + 0x620] = a0\n 89251: a0 = u64 [s1 + 0x198]\n 89255: u64 [s1 + 0x650] = a0\n 89259: a0 = u64 [s1 + 0x1a0]\n 89263: u64 [s1 + 0x648] = a0\n 89267: a0 = u64 [s1 + 0x1a8]\n 89271: u64 [s1 + 0x640] = a0\n 89275: a0 = u64 [s1 + 0x1c0]\n 89279: u64 [s1 + 0x638] = a0\n 89283: a0 = s1 + 0x660\n 89287: a1 = s1 + 0x640\n 89291: a2 = s1 + 0x620\n 89295: a3 = s1 + 0x600\n 89299: a4 = u64 [s1 + 0x190]\n 89303: u64 [s1 + 0x658] = a4\n 89307: ra = 996, jump @671\n      : @1117 [@dyn 498] (gas: 15)\n 89314: a1 = u64 [s1 + 0x678]\n 89318: a3 = u64 [s1 + 0x670]\n 89322: a0 = u64 [s1 + 0x668]\n 89326: a2 = u64 [s1 + 0x660]\n 89330: u64 [s1 + 0x258] = a0\n 89334: u64 [s1 + 0x250] = a1\n 89338: a0 = a0 | a1\n 89341: a1 = a2 | a3\n 89344: a1 = a1 | a0\n 89347: a1 = a1 >> 0x20\n 89350: u64 [s1 + 0x248] = a3\n 89354: a0 = a0 | a3\n 89357: a0 = a0 << 0x20\n 89360: a0 = a0 | a1\n 89363: jump @1119 if a0 == 0\n      : @1118 (gas: 1)\n 89366: jump @1189\n      : @1119 (gas: 5)\n 89369: i32 a0 = a2 + 0\n 89371: a1 = 0x20\n 89374: u64 [s1 + 0x238] = a0\n 89378: u64 [s1 + 0x240] = a2\n 89382: ra = 998, jump @0\n      : @1120 [@dyn 499] (gas: 10)\n 89389: a1 = u64 [s1 + 0x250]\n 89393: a2 = u64 [s1 + 0x248]\n 89397: a1 = a1 | a2\n 89400: a2 = 0xffffffe0\n 89410: a3 = u64 [s1 + 0x240]\n 89414: a2 = a3 <u a2\n 89417: a3 = u64 [s1 + 0x258]\n 89421: a2 = 0 if a3 != 0\n 89423: a2 = 0 if a1 != 0\n 89425: jump @1122 if a2 != 0\n      : @1121 (gas: 1)\n 89428: jump @1189\n      : @1122 (gas: 100)\n 89431: a1 = u8 [a0 + 0x19]\n 89434: a2 = u8 [a0 + 0x18]\n 89437: a3 = u8 [a0 + 0x1a]\n 89440: a4 = u8 [a0 + 0x1b]\n 89443: a1 = a1 << 0x8\n 89446: a1 = a1 | a2\n 89449: a3 = a3 << 0x10\n 89452: a4 = a4 << 0x18\n 89455: a3 = a3 | a4\n 89458: a1 = a1 | a3\n 89461: a2 = u8 [a0 + 0x1d]\n 89464: a3 = u8 [a0 + 0x1c]\n 89467: a4 = u8 [a0 + 0x1e]\n 89470: a5 = u8 [a0 + 0x1f]\n 89473: a2 = a2 << 0x8\n 89476: a2 = a2 | a3\n 89479: a4 = a4 << 0x10\n 89482: a5 = a5 << 0x18\n 89485: a4 = a4 | a5\n 89488: a2 = a2 | a4\n 89491: a2 = a2 << 0x20\n 89494: t0 = a2 | a1\n 89497: a2 = u8 [a0 + 0x11]\n 89500: a3 = u8 [a0 + 0x10]\n 89503: a4 = u8 [a0 + 0x12]\n 89506: a5 = u8 [a0 + 0x13]\n 89509: a2 = a2 << 0x8\n 89512: a2 = a2 | a3\n 89515: a4 = a4 << 0x10\n 89518: a5 = a5 << 0x18\n 89521: a4 = a4 | a5\n 89524: a2 = a2 | a4\n 89527: a3 = u8 [a0 + 0x15]\n 89530: a4 = u8 [a0 + 0x14]\n 89533: a5 = u8 [a0 + 0x16]\n 89536: a1 = u8 [a0 + 0x17]\n 89539: a3 = a3 << 0x8\n 89542: a3 = a3 | a4\n 89545: a5 = a5 << 0x10\n 89548: a1 = a1 << 0x18\n 89551: a1 = a1 | a5\n 89554: a1 = a1 | a3\n 89557: a1 = a1 << 0x20\n 89560: t1 = a1 | a2\n 89563: a1 = u8 [a0 + 0x9]\n 89566: a3 = u8 [a0 + 0x8]\n 89569: a4 = u8 [a0 + 0xa]\n 89572: a5 = u8 [a0 + 0xb]\n 89575: a1 = a1 << 0x8\n 89578: a1 = a1 | a3\n 89581: a4 = a4 << 0x10\n 89584: a5 = a5 << 0x18\n 89587: a4 = a4 | a5\n 89590: a1 = a1 | a4\n 89593: a3 = u8 [a0 + 0xd]\n 89596: a4 = u8 [a0 + 0xc]\n 89599: a5 = u8 [a0 + 0xe]\n 89602: a2 = u8 [a0 + 0xf]\n 89605: a3 = a3 << 0x8\n 89608: a3 = a3 | a4\n 89611: a5 = a5 << 0x10\n 89614: a2 = a2 << 0x18\n 89617: a2 = a2 | a5\n 89620: a2 = a2 | a3\n 89623: a2 = a2 << 0x20\n 89626: a3 = a2 | a1\n 89629: a1 = u8 [a0 + 0x1]\n 89632: a2 = u8 [a0]\n 89634: a4 = u8 [a0 + 0x2]\n 89637: a5 = u8 [a0 + 0x3]\n 89640: a1 = a1 << 0x8\n 89643: a1 = a1 | a2\n 89646: a4 = a4 << 0x10\n 89649: a5 = a5 << 0x18\n 89652: a4 = a4 | a5\n 89655: a1 = a1 | a4\n 89658: a2 = u8 [a0 + 0x5]\n 89661: a4 = u8 [a0 + 0x4]\n 89664: a5 = u8 [a0 + 0x6]\n 89667: a0 = u8 [a0 + 0x7]\n 89670: a2 = a2 << 0x8\n 89673: a2 = a2 | a4\n 89676: a5 = a5 << 0x10\n 89679: a0 = a0 << 0x18\n 89682: a0 = a0 | a5\n 89685: a0 = a0 | a2\n 89688: a0 = a0 << 0x20\n 89691: a0 = a0 | a1\n 89694: a0 = reverse a0\n 89696: a2 = reverse a3\n 89698: a3 = reverse t1\n 89700: a1 = reverse t0\n 89702: a4 = a1 | a2\n 89705: a0 = a0 | a3\n 89708: a4 = a4 | a0\n 89711: a4 = a4 >> 0x20\n 89714: a0 = a0 | a2\n 89717: a0 = a0 << 0x20\n 89720: a0 = a0 | a4\n 89723: jump @1124 if a0 == 0\n      : @1123 (gas: 1)\n 89726: jump @1189\n      : @1124 (gas: 7)\n 89729: a0 = 0xffffffff\n 89739: u64 [s1 + 0x258] = a0\n 89743: a0 = u64 [s1 + 0x238]\n 89747: i32 a0 = a0 + 0x20\n 89750: i32 a1 = a1 + 0\n 89752: u64 [s1 + 0x250] = a1\n 89756: ra = 1000, jump @0\n      : @1125 [@dyn 500] (gas: 20)\n 89763: a1 = sp + 0xffffffffffffffe0\n 89766: a1 = a1 & 0xffffffffffffffe0\n 89769: u64 [s1 + 0x240] = a1\n 89773: sp = a1\n 89775: i32 a0 = a0 + 0\n 89777: i32 a2 = a1 + 0\n 89779: a1 = u64 [s1 + 0x250]\n 89783: ecalli 8 // 'hash_keccak_256'\n 89785: a1 = u64 [s1 + 0x240]\n 89789: a0 = u64 [a1 + 0x18]\n 89792: u64 [s1 + 0x248] = a0\n 89796: a0 = u64 [a1 + 0x10]\n 89799: u64 [s1 + 0x230] = a0\n 89803: a0 = u64 [a1 + 0x8]\n 89806: u64 [s1 + 0x238] = a0\n 89810: a0 = u64 [a1]\n 89812: u64 [s1 + 0x240] = a0\n 89816: a1 = 0x20\n 89819: a0 = 0\n 89821: ra = 1002, jump @0\n      : @1126 [@dyn 501] (gas: 95)\n 89828: a2 = u64 [s1 + 0x248]\n 89832: a1 = a2 >> 0x38\n 89835: u64 [s1 + 0x170] = a1\n 89839: u8 [a0 + 0x1f] = a1\n 89842: a1 = a2 >> 0x30\n 89845: u64 [s1 + 0x168] = a1\n 89849: u8 [a0 + 0x1e] = a1\n 89852: a1 = a2 >> 0x28\n 89855: u64 [s1 + 0x160] = a1\n 89859: u8 [a0 + 0x1d] = a1\n 89862: a1 = a2 >> 0x20\n 89865: u64 [s1 + 0x158] = a1\n 89869: u8 [a0 + 0x1c] = a1\n 89872: a1 = a2 >> 0x18\n 89875: u64 [s1 + 0x150] = a1\n 89879: u8 [a0 + 0x1b] = a1\n 89882: a1 = a2 >> 0x10\n 89885: u64 [s1 + 0x148] = a1\n 89889: u8 [a0 + 0x1a] = a1\n 89892: a1 = a2 >> 0x8\n 89895: u64 [s1 + 0x140] = a1\n 89899: u8 [a0 + 0x19] = a1\n 89902: u8 [a0 + 0x18] = a2\n 89905: a2 = u64 [s1 + 0x230]\n 89909: a1 = a2 >> 0x38\n 89912: u64 [s1 + 0x138] = a1\n 89916: u8 [a0 + 0x17] = a1\n 89919: a1 = a2 >> 0x30\n 89922: u64 [s1 + 0x130] = a1\n 89926: u8 [a0 + 0x16] = a1\n 89929: a1 = a2 >> 0x28\n 89932: u64 [s1 + 0x128] = a1\n 89936: u8 [a0 + 0x15] = a1\n 89939: a1 = a2 >> 0x20\n 89942: u64 [s1 + 0x120] = a1\n 89946: u8 [a0 + 0x14] = a1\n 89949: a1 = a2 >> 0x18\n 89952: u64 [s1 + 0x118] = a1\n 89956: u8 [a0 + 0x13] = a1\n 89959: a1 = a2 >> 0x10\n 89962: u64 [s1 + 0x110] = a1\n 89966: u8 [a0 + 0x12] = a1\n 89969: a1 = a2 >> 0x8\n 89972: u64 [s1 + 0x108] = a1\n 89976: u8 [a0 + 0x11] = a1\n 89979: u8 [a0 + 0x10] = a2\n 89982: a2 = u64 [s1 + 0x238]\n 89986: a1 = a2 >> 0x38\n 89989: u64 [s1 + 0x100] = a1\n 89993: u8 [a0 + 0xf] = a1\n 89996: a1 = a2 >> 0x30\n 89999: u64 [s1 + 0xf8] = a1\n 90003: u8 [a0 + 0xe] = a1\n 90006: a1 = a2 >> 0x28\n 90009: u64 [s1 + 0xf0] = a1\n 90013: u8 [a0 + 0xd] = a1\n 90016: a1 = a2 >> 0x20\n 90019: u64 [s1 + 0xe8] = a1\n 90023: u8 [a0 + 0xc] = a1\n 90026: a1 = a2 >> 0x18\n 90029: u64 [s1 + 0xe0] = a1\n 90033: u8 [a0 + 0xb] = a1\n 90036: a1 = a2 >> 0x10\n 90039: u64 [s1 + 0xd8] = a1\n 90043: u8 [a0 + 0xa] = a1\n 90046: a1 = a2 >> 0x8\n 90049: u64 [s1 + 0xd0] = a1\n 90053: u8 [a0 + 0x9] = a1\n 90056: u8 [a0 + 0x8] = a2\n 90059: a2 = u64 [s1 + 0x240]\n 90063: a1 = a2 >> 0x38\n 90066: u64 [s1 + 0xc8] = a1\n 90070: u8 [a0 + 0x7] = a1\n 90073: a1 = a2 >> 0x30\n 90076: u64 [s1 + 0xc0] = a1\n 90080: u8 [a0 + 0x6] = a1\n 90083: a1 = a2 >> 0x28\n 90086: u64 [s1 + 0xb8] = a1\n 90090: u8 [a0 + 0x5] = a1\n 90093: a1 = a2 >> 0x20\n 90096: u64 [s1 + 0xb0] = a1\n 90100: u8 [a0 + 0x4] = a1\n 90103: a1 = a2 >> 0x18\n 90106: u64 [s1 + 0xa8] = a1\n 90110: u8 [a0 + 0x3] = a1\n 90113: a1 = a2 >> 0x10\n 90116: u64 [s1 + 0xa0] = a1\n 90120: u8 [a0 + 0x2] = a1\n 90123: a1 = a2 >> 0x8\n 90126: u64 [s1 + 0x98] = a1\n 90130: u8 [a0 + 0x1] = a1\n 90133: u8 [a0] = a2\n 90135: a0 = 0x20\n 90138: a1 = 0x20\n 90141: ra = 1004, jump @0\n      : @1127 [@dyn 502] (gas: 35)\n 90148: u8 [a0 + 31] = 0\n 90151: u8 [a0 + 30] = 0\n 90154: u8 [a0 + 29] = 0\n 90157: u8 [a0 + 28] = 0\n 90160: u8 [a0 + 27] = 0\n 90163: u8 [a0 + 26] = 0\n 90166: u8 [a0 + 25] = 0\n 90169: u8 [a0 + 24] = 0\n 90172: u8 [a0 + 23] = 0\n 90175: u8 [a0 + 22] = 0\n 90178: u8 [a0 + 21] = 0\n 90181: u8 [a0 + 20] = 0\n 90184: u8 [a0 + 19] = 0\n 90187: u8 [a0 + 18] = 0\n 90190: u8 [a0 + 17] = 0\n 90193: u8 [a0 + 16] = 0\n 90196: u8 [a0 + 15] = 0\n 90199: u8 [a0 + 14] = 0\n 90202: u8 [a0 + 13] = 0\n 90205: u8 [a0 + 12] = 0\n 90208: u8 [a0 + 11] = 0\n 90211: u8 [a0 + 10] = 0\n 90214: u8 [a0 + 9] = 0\n 90217: u8 [a0 + 8] = 0\n 90220: u8 [a0 + 7] = 0\n 90223: u8 [a0 + 6] = 0\n 90226: u8 [a0 + 5] = 0\n 90229: u8 [a0 + 4] = 0\n 90232: u8 [a0 + 3] = 0\n 90235: u8 [a0 + 2] = 0\n 90238: u8 [a0 + 1] = 0\n 90241: u8 [a0 + 0] = 0\n 90243: a1 = 0x40\n 90246: a0 = 0\n 90248: ra = 1006, jump @0\n      : @1128 [@dyn 503] (gas: 28)\n 90255: i32 a0 = a0 + 0\n 90257: i32 a2 = s1 + 0x700\n 90261: a1 = 0x40\n 90264: ecalli 8 // 'hash_keccak_256'\n 90266: a0 = u64 [s1 + 0x718]\n 90270: a1 = u64 [s1 + 0x710]\n 90274: a2 = u64 [s1 + 0x708]\n 90278: a3 = u64 [s1 + 0x700]\n 90282: a0 = reverse a0\n 90284: a1 = reverse a1\n 90286: a2 = reverse a2\n 90288: a3 = reverse a3\n 90290: u64 [s1 + 0x6f8] = a3\n 90294: u64 [s1 + 0x6f0] = a2\n 90298: u64 [s1 + 0x6e8] = a1\n 90302: u64 [s1 + 0x6e0] = a0\n 90306: u64 [s1 + 1816] = 0\n 90310: u64 [s1 + 1808] = 0\n 90314: u64 [s1 + 1800] = 0\n 90318: u64 [s1 + 1792] = 0\n 90322: u32 [s1 + 1728] = 0x20\n 90327: i32 a1 = s1 + 0x6e0\n 90331: i32 a3 = s1 + 0x700\n 90335: i32 a4 = s1 + 0x6c0\n 90339: a2 = 0xffffffffffffffff\n 90342: a0 = 0\n 90344: ecalli 7 // 'get_storage'\n 90346: fallthrough\n      : @1129 (gas: 10)\n 90347: a0 = u64 [s1 + 0x708]\n 90351: a1 = u64 [s1 + 0x710]\n 90355: a2 = u64 [s1 + 0x700]\n 90359: a0 = a0 & 0xffffffffffffffff\n 90362: a4 = u64 [s1 + 0x258]\n 90366: a1 = a1 & a4\n 90369: a2 = a2 & 0xffffffffffffffff\n 90372: a1 = a1 | a2\n 90375: a0 = a0 | a1\n 90378: jump @1131 if a0 == 0\n      : @1130 (gas: 1)\n 90381: jump @1183\n      : @1131 (gas: 15)\n 90384: i32 a0 = s1 + 0x680\n 90388: ecalli 5 // 'caller'\n 90390: a0 = u32 [s1 + 0x690]\n 90394: u64 [s1 + 0x228] = a0\n 90398: a0 = u64 [s1 + 0x688]\n 90402: u64 [s1 + 0x20] = a0\n 90405: a0 = u64 [s1 + 0x680]\n 90409: u64 [s1 + 0x220] = a0\n 90413: u64 [s1 + 1432] = 0\n 90417: u64 [s1 + 1424] = 0\n 90421: u64 [s1 + 1408] = 0xa0\n 90427: a0 = s1 + 0x5a0\n 90431: a1 = s1 + 0x580\n 90435: u64 [s1 + 1416] = 0\n 90439: ra = 1008, jump @647\n      : @1132 [@dyn 504] (gas: 16)\n 90446: a2 = u64 [s1 + 0x5b8]\n 90450: a3 = u64 [s1 + 0x5b0]\n 90454: a0 = u64 [s1 + 0x5a8]\n 90458: a1 = u64 [s1 + 0x5a0]\n 90462: u64 [s1 + 0x250] = a0\n 90466: u64 [s1 + 0x178] = a2\n 90470: a0 = a0 | a2\n 90473: u64 [s1 + 0x258] = a1\n 90477: a1 = a1 | a3\n 90480: a1 = a1 | a0\n 90483: a1 = a1 >> 0x20\n 90486: u64 [s1 + 0x180] = a3\n 90490: a0 = a0 | a3\n 90493: a0 = a0 << 0x20\n 90496: a0 = a0 | a1\n 90499: jump @1134 if a0 == 0\n      : @1133 (gas: 1)\n 90502: jump @1189\n      : @1134 (gas: 18)\n 90505: a0 = u64 [s1 + 0x220]\n 90509: a0 = reverse a0\n 90511: a0 = a0 << 0x20\n 90514: a1 = u64 [s1 + 0x20]\n 90517: a1 = reverse a1\n 90519: a2 = a1 >> 0x20\n 90522: a0 = a0 | a2\n 90525: u64 [s1 + 0x20] = a0\n 90528: a1 = a1 << 0x20\n 90531: a0 = u64 [s1 + 0x228]\n 90535: a0 = reverse a0\n 90537: a0 = a0 >> 0x20\n 90540: a0 = a0 | a1\n 90543: u64 [s1 + 0x18] = a0\n 90546: a0 = i32 [s1 + 0x258]\n 90550: a1 = 0x20\n 90553: u64 [s1 + 0x228] = a0\n 90557: ra = 1010, jump @0\n      : @1135 [@dyn 505] (gas: 67)\n 90564: a1 = u64 [s1 + 0x18]\n 90567: a1 = reverse a1\n 90569: a2 = u64 [s1 + 0x20]\n 90572: a2 = reverse a2\n 90574: a4 = u64 [s1 + 0x220]\n 90578: a3 = a4 >> 0x18\n 90581: u8 [a0 + 0xf] = a3\n 90584: a3 = a4 >> 0x10\n 90587: u8 [a0 + 0xe] = a3\n 90590: a3 = a4 >> 0x8\n 90593: u8 [a0 + 0xd] = a3\n 90596: u8 [a0 + 0xc] = a4\n 90599: u8 [a0 + 11] = 0\n 90602: u8 [a0 + 10] = 0\n 90605: u8 [a0 + 9] = 0\n 90608: u8 [a0 + 8] = 0\n 90611: u8 [a0 + 7] = 0\n 90614: u8 [a0 + 6] = 0\n 90617: u8 [a0 + 5] = 0\n 90620: u8 [a0 + 4] = 0\n 90623: u8 [a0 + 3] = 0\n 90626: u8 [a0 + 2] = 0\n 90629: u8 [a0 + 1] = 0\n 90632: u8 [a0 + 0] = 0\n 90634: u8 [a0 + 0x10] = a2\n 90637: u8 [a0 + 0x18] = a1\n 90640: a3 = a2 >> 0x38\n 90643: u8 [a0 + 0x17] = a3\n 90646: a3 = a2 >> 0x30\n 90649: u8 [a0 + 0x16] = a3\n 90652: a3 = a2 >> 0x28\n 90655: u8 [a0 + 0x15] = a3\n 90658: a3 = a2 >> 0x20\n 90661: u8 [a0 + 0x14] = a3\n 90664: a3 = a2 >> 0x18\n 90667: u8 [a0 + 0x13] = a3\n 90670: a3 = a2 >> 0x10\n 90673: u8 [a0 + 0x12] = a3\n 90676: a2 = a2 >> 0x8\n 90679: u8 [a0 + 0x11] = a2\n 90682: a2 = a1 >> 0x38\n 90685: u8 [a0 + 0x1f] = a2\n 90688: a2 = a1 >> 0x30\n 90691: u8 [a0 + 0x1e] = a2\n 90694: a2 = a1 >> 0x28\n 90697: u8 [a0 + 0x1d] = a2\n 90700: a2 = a1 >> 0x20\n 90703: u8 [a0 + 0x1c] = a2\n 90706: a2 = a1 >> 0x18\n 90709: u8 [a0 + 0x1b] = a2\n 90712: a2 = a1 >> 0x10\n 90715: u8 [a0 + 0x1a] = a2\n 90718: a1 = a1 >> 0x8\n 90721: a2 = u64 [s1 + 0x178]\n 90725: a4 = u64 [s1 + 0x180]\n 90729: a4 = a4 | a2\n 90732: a2 = 0x100000000\n 90742: u64 [s1 + 0x20] = a2\n 90745: a2 = 0xffffffe0\n 90755: a3 = u64 [s1 + 0x258]\n 90759: a2 = a3 <u a2\n 90762: a3 = u64 [s1 + 0x250]\n 90766: a2 = 0 if a3 != 0\n 90768: u64 [s1 + 0x220] = a4\n 90772: a2 = 0 if a4 != 0\n 90774: u8 [a0 + 0x19] = a1\n 90777: jump @1137 if a2 != 0\n      : @1136 (gas: 1)\n 90780: jump @1189\n      : @1137 (gas: 4)\n 90783: a0 = u64 [s1 + 0x228]\n 90787: i32 a0 = a0 + 0x20\n 90790: a1 = 0x20\n 90793: ra = 1012, jump @0\n      : @1138 [@dyn 506] (gas: 95)\n 90800: a1 = u64 [s1 + 0x200]\n 90804: a1 = reverse a1\n 90806: a2 = u64 [s1 + 0x208]\n 90810: a2 = reverse a2\n 90812: a3 = u64 [s1 + 0x210]\n 90816: a3 = reverse a3\n 90818: a4 = u64 [s1 + 0x218]\n 90822: a4 = reverse a4\n 90824: a5 = a4 >> 0x38\n 90827: u8 [a0 + 0x1f] = a5\n 90830: a5 = a4 >> 0x30\n 90833: u8 [a0 + 0x1e] = a5\n 90836: a5 = a4 >> 0x28\n 90839: u8 [a0 + 0x1d] = a5\n 90842: a5 = a4 >> 0x20\n 90845: u8 [a0 + 0x1c] = a5\n 90848: a5 = a4 >> 0x18\n 90851: u8 [a0 + 0x1b] = a5\n 90854: a5 = a4 >> 0x10\n 90857: u8 [a0 + 0x1a] = a5\n 90860: a5 = a4 >> 0x8\n 90863: u8 [a0 + 0x19] = a5\n 90866: u8 [a0 + 0x18] = a4\n 90869: u8 [a0 + 0x10] = a3\n 90872: a4 = a3 >> 0x38\n 90875: u8 [a0 + 0x17] = a4\n 90878: a4 = a3 >> 0x30\n 90881: u8 [a0 + 0x16] = a4\n 90884: a4 = a3 >> 0x28\n 90887: u8 [a0 + 0x15] = a4\n 90890: a4 = a3 >> 0x20\n 90893: u8 [a0 + 0x14] = a4\n 90896: a4 = a3 >> 0x18\n 90899: u8 [a0 + 0x13] = a4\n 90902: a4 = a3 >> 0x10\n 90905: u8 [a0 + 0x12] = a4\n 90908: a3 = a3 >> 0x8\n 90911: u8 [a0 + 0x11] = a3\n 90914: u8 [a0 + 0x8] = a2\n 90917: a3 = a2 >> 0x38\n 90920: u8 [a0 + 0xf] = a3\n 90923: a3 = a2 >> 0x30\n 90926: u8 [a0 + 0xe] = a3\n 90929: a3 = a2 >> 0x28\n 90932: u8 [a0 + 0xd] = a3\n 90935: a3 = a2 >> 0x20\n 90938: u8 [a0 + 0xc] = a3\n 90941: a3 = a2 >> 0x18\n 90944: u8 [a0 + 0xb] = a3\n 90947: a3 = a2 >> 0x10\n 90950: u8 [a0 + 0xa] = a3\n 90953: a2 = a2 >> 0x8\n 90956: u8 [a0 + 0x9] = a2\n 90959: u8 [a0] = a1\n 90961: a2 = a1 >> 0x38\n 90964: u8 [a0 + 0x7] = a2\n 90967: a2 = a1 >> 0x30\n 90970: u8 [a0 + 0x6] = a2\n 90973: a2 = a1 >> 0x28\n 90976: a3 = a1 >> 0x18\n 90979: u8 [a0 + 0x3] = a3\n 90982: a3 = a1 >> 0x10\n 90985: u8 [a0 + 0x2] = a3\n 90988: a3 = a1 >> 0x8\n 90991: u8 [a0 + 0x1] = a3\n 90994: a3 = u64 [s1 + 0x188]\n 90998: a3 = u32 [a3]\n 91000: u8 [a0 + 0x5] = a2\n 91003: a1 = a1 >> 0x20\n 91006: u8 [a0 + 0x4] = a1\n 91009: u64 [s1 + 1304] = 0\n 91013: u64 [s1 + 1296] = 0\n 91017: u64 [s1 + 1288] = 0\n 91021: u64 [s1 + 0x500] = a3\n 91025: a0 = u64 [s1 + 0x88]\n 91029: u64 [s1 + 0x538] = a0\n 91033: a0 = u64 [s1 + 0x68]\n 91036: u64 [s1 + 0x530] = a0\n 91040: a0 = u64 [s1 + 0x70]\n 91043: u64 [s1 + 0x528] = a0\n 91047: a0 = u64 [s1 + 0x78]\n 91050: u64 [s1 + 0x520] = a0\n 91054: a0 = u64 [s1 + 0x80]\n 91058: u64 [s1 + 0x558] = a0\n 91062: a0 = u64 [s1 + 0x58]\n 91065: u64 [s1 + 0x550] = a0\n 91069: a0 = u64 [s1 + 0x60]\n 91072: u64 [s1 + 0x548] = a0\n 91076: a0 = s1 + 0x560\n 91080: a1 = s1 + 0x540\n 91084: a2 = s1 + 0x520\n 91088: a3 = s1 + 0x500\n 91092: a4 = u64 [s1 + 0x90]\n 91096: u64 [s1 + 0x540] = a4\n 91100: ra = 1014, jump @671\n      : @1139 [@dyn 507] (gas: 9)\n 91107: a0 = u64 [s1 + 0x20]\n 91110: a0 = a0 + 0xffffffffffffffc0\n 91113: a1 = u64 [s1 + 0x258]\n 91117: a0 = a1 <u a0\n 91120: a1 = u64 [s1 + 0x250]\n 91124: a0 = 0 if a1 != 0\n 91126: a1 = u64 [s1 + 0x220]\n 91130: a0 = 0 if a1 != 0\n 91132: jump @1141 if a0 != 0\n      : @1140 (gas: 1)\n 91135: jump @1189\n      : @1141 (gas: 12)\n 91138: a0 = u64 [s1 + 0x578]\n 91142: u64 [s1 + 0x200] = a0\n 91146: a0 = u64 [s1 + 0x570]\n 91150: u64 [s1 + 0x208] = a0\n 91154: a0 = u64 [s1 + 0x568]\n 91158: u64 [s1 + 0x210] = a0\n 91162: a0 = u64 [s1 + 0x560]\n 91166: u64 [s1 + 0x218] = a0\n 91170: a0 = u64 [s1 + 0x228]\n 91174: i32 a0 = a0 + 0x40\n 91177: a1 = 0x20\n 91180: ra = 1016, jump @0\n      : @1142 [@dyn 508] (gas: 95)\n 91187: a1 = u64 [s1 + 0x200]\n 91191: a1 = reverse a1\n 91193: a2 = u64 [s1 + 0x208]\n 91197: a2 = reverse a2\n 91199: a3 = u64 [s1 + 0x210]\n 91203: a3 = reverse a3\n 91205: a4 = u64 [s1 + 0x218]\n 91209: a4 = reverse a4\n 91211: a5 = a4 >> 0x38\n 91214: u8 [a0 + 0x1f] = a5\n 91217: a5 = a4 >> 0x30\n 91220: u8 [a0 + 0x1e] = a5\n 91223: a5 = a4 >> 0x28\n 91226: u8 [a0 + 0x1d] = a5\n 91229: a5 = a4 >> 0x20\n 91232: u8 [a0 + 0x1c] = a5\n 91235: a5 = a4 >> 0x18\n 91238: u8 [a0 + 0x1b] = a5\n 91241: a5 = a4 >> 0x10\n 91244: u8 [a0 + 0x1a] = a5\n 91247: a5 = a4 >> 0x8\n 91250: u8 [a0 + 0x19] = a5\n 91253: u8 [a0 + 0x18] = a4\n 91256: u8 [a0 + 0x10] = a3\n 91259: a4 = a3 >> 0x38\n 91262: u8 [a0 + 0x17] = a4\n 91265: a4 = a3 >> 0x30\n 91268: u8 [a0 + 0x16] = a4\n 91271: a4 = a3 >> 0x28\n 91274: u8 [a0 + 0x15] = a4\n 91277: a4 = a3 >> 0x20\n 91280: u8 [a0 + 0x14] = a4\n 91283: a4 = a3 >> 0x18\n 91286: u8 [a0 + 0x13] = a4\n 91289: a4 = a3 >> 0x10\n 91292: u8 [a0 + 0x12] = a4\n 91295: a3 = a3 >> 0x8\n 91298: u8 [a0 + 0x11] = a3\n 91301: u8 [a0 + 0x8] = a2\n 91304: a3 = a2 >> 0x38\n 91307: u8 [a0 + 0xf] = a3\n 91310: a3 = a2 >> 0x30\n 91313: u8 [a0 + 0xe] = a3\n 91316: a3 = a2 >> 0x28\n 91319: u8 [a0 + 0xd] = a3\n 91322: a3 = a2 >> 0x20\n 91325: u8 [a0 + 0xc] = a3\n 91328: a3 = a2 >> 0x18\n 91331: u8 [a0 + 0xb] = a3\n 91334: a3 = a2 >> 0x10\n 91337: u8 [a0 + 0xa] = a3\n 91340: a2 = a2 >> 0x8\n 91343: u8 [a0 + 0x9] = a2\n 91346: u8 [a0] = a1\n 91348: a2 = a1 >> 0x38\n 91351: u8 [a0 + 0x7] = a2\n 91354: a2 = a1 >> 0x30\n 91357: u8 [a0 + 0x6] = a2\n 91360: a2 = a1 >> 0x28\n 91363: a3 = a1 >> 0x18\n 91366: u8 [a0 + 0x3] = a3\n 91369: a3 = a1 >> 0x10\n 91372: u8 [a0 + 0x2] = a3\n 91375: a3 = a1 >> 0x8\n 91378: u8 [a0 + 0x1] = a3\n 91381: a3 = u64 [s1 + 0x188]\n 91385: a3 = u32 [a3]\n 91387: u8 [a0 + 0x5] = a2\n 91390: a1 = a1 >> 0x20\n 91393: u8 [a0 + 0x4] = a1\n 91396: u64 [s1 + 1176] = 0\n 91400: u64 [s1 + 1168] = 0\n 91404: u64 [s1 + 1160] = 0\n 91408: u64 [s1 + 0x480] = a3\n 91412: a0 = u64 [s1 + 0x1e0]\n 91416: u64 [s1 + 0x4b8] = a0\n 91420: a0 = u64 [s1 + 0x1e8]\n 91424: u64 [s1 + 0x4b0] = a0\n 91428: a0 = u64 [s1 + 0x1f0]\n 91432: u64 [s1 + 0x4a8] = a0\n 91436: a0 = u64 [s1 + 0x1f8]\n 91440: u64 [s1 + 0x4a0] = a0\n 91444: a0 = u64 [s1 + 0x38]\n 91447: u64 [s1 + 0x4d8] = a0\n 91451: a0 = u64 [s1 + 0x40]\n 91454: u64 [s1 + 0x4d0] = a0\n 91458: a0 = u64 [s1 + 0x48]\n 91461: u64 [s1 + 0x4c8] = a0\n 91465: a0 = s1 + 0x4e0\n 91469: a1 = s1 + 0x4c0\n 91473: a2 = s1 + 0x4a0\n 91477: a3 = s1 + 0x480\n 91481: a4 = u64 [s1 + 0x50]\n 91484: u64 [s1 + 0x4c0] = a4\n 91488: ra = 1018, jump @671\n      : @1143 [@dyn 509] (gas: 10)\n 91495: a0 = 0x100000000\n 91505: u64 [s1 + 0x218] = a0\n 91509: a0 = 0xffffffa0\n 91519: a1 = u64 [s1 + 0x258]\n 91523: a0 = a1 <u a0\n 91526: a1 = u64 [s1 + 0x250]\n 91530: a0 = 0 if a1 != 0\n 91532: a1 = u64 [s1 + 0x220]\n 91536: a0 = 0 if a1 != 0\n 91538: jump @1145 if a0 != 0\n      : @1144 (gas: 1)\n 91541: jump @1189\n      : @1145 (gas: 12)\n 91544: a0 = u64 [s1 + 0x4f8]\n 91548: u64 [s1 + 0x1f8] = a0\n 91552: a0 = u64 [s1 + 0x4f0]\n 91556: u64 [s1 + 0x200] = a0\n 91560: a0 = u64 [s1 + 0x4e8]\n 91564: u64 [s1 + 0x208] = a0\n 91568: a0 = u64 [s1 + 0x4e0]\n 91572: u64 [s1 + 0x210] = a0\n 91576: a0 = u64 [s1 + 0x228]\n 91580: i32 a0 = a0 + 0x60\n 91583: a1 = 0x20\n 91586: ra = 1020, jump @0\n      : @1146 [@dyn 510] (gas: 77)\n 91593: a1 = u64 [s1 + 0x1f8]\n 91597: a1 = reverse a1\n 91599: a2 = u64 [s1 + 0x200]\n 91603: a2 = reverse a2\n 91605: a3 = u64 [s1 + 0x208]\n 91609: a3 = reverse a3\n 91611: a4 = u64 [s1 + 0x210]\n 91615: a4 = reverse a4\n 91617: a5 = a4 >> 0x38\n 91620: u8 [a0 + 0x1f] = a5\n 91623: a5 = a4 >> 0x30\n 91626: u8 [a0 + 0x1e] = a5\n 91629: a5 = a4 >> 0x28\n 91632: u8 [a0 + 0x1d] = a5\n 91635: a5 = a4 >> 0x20\n 91638: u8 [a0 + 0x1c] = a5\n 91641: a5 = a4 >> 0x18\n 91644: u8 [a0 + 0x1b] = a5\n 91647: a5 = a4 >> 0x10\n 91650: u8 [a0 + 0x1a] = a5\n 91653: a5 = a4 >> 0x8\n 91656: u8 [a0 + 0x19] = a5\n 91659: u8 [a0 + 0x18] = a4\n 91662: u8 [a0 + 0x10] = a3\n 91665: a4 = a3 >> 0x38\n 91668: u8 [a0 + 0x17] = a4\n 91671: a4 = a3 >> 0x30\n 91674: u8 [a0 + 0x16] = a4\n 91677: a4 = a3 >> 0x28\n 91680: u8 [a0 + 0x15] = a4\n 91683: a4 = a3 >> 0x20\n 91686: u8 [a0 + 0x14] = a4\n 91689: a4 = a3 >> 0x18\n 91692: u8 [a0 + 0x13] = a4\n 91695: a4 = a3 >> 0x10\n 91698: u8 [a0 + 0x12] = a4\n 91701: a3 = a3 >> 0x8\n 91704: u8 [a0 + 0x11] = a3\n 91707: u8 [a0 + 0x8] = a2\n 91710: a3 = a2 >> 0x38\n 91713: u8 [a0 + 0xf] = a3\n 91716: a3 = a2 >> 0x30\n 91719: u8 [a0 + 0xe] = a3\n 91722: a3 = a2 >> 0x28\n 91725: u8 [a0 + 0xd] = a3\n 91728: a3 = a2 >> 0x20\n 91731: u8 [a0 + 0xc] = a3\n 91734: a3 = a2 >> 0x18\n 91737: u8 [a0 + 0xb] = a3\n 91740: a3 = a2 >> 0x10\n 91743: u8 [a0 + 0xa] = a3\n 91746: a2 = a2 >> 0x8\n 91749: u8 [a0 + 0x9] = a2\n 91752: u8 [a0] = a1\n 91754: a2 = a1 >> 0x38\n 91757: u8 [a0 + 0x7] = a2\n 91760: a2 = a1 >> 0x30\n 91763: u8 [a0 + 0x6] = a2\n 91766: a2 = a1 >> 0x28\n 91769: u8 [a0 + 0x5] = a2\n 91772: a2 = a1 >> 0x20\n 91775: u8 [a0 + 0x4] = a2\n 91778: a2 = a1 >> 0x18\n 91781: u8 [a0 + 0x3] = a2\n 91784: a2 = a1 >> 0x10\n 91787: u8 [a0 + 0x2] = a2\n 91790: a1 = a1 >> 0x8\n 91793: a2 = u64 [s1 + 0x218]\n 91797: a2 = a2 + 0xffffffffffffff80\n 91800: a3 = u64 [s1 + 0x258]\n 91804: a2 = a3 <u a2\n 91807: a3 = u64 [s1 + 0x250]\n 91811: a2 = 0 if a3 != 0\n 91813: a3 = u64 [s1 + 0x220]\n 91817: a2 = 0 if a3 != 0\n 91819: u8 [a0 + 0x1] = a1\n 91822: jump @1148 if a2 != 0\n      : @1147 (gas: 1)\n 91825: jump @1189\n      : @1148 (gas: 16)\n 91828: a0 = u64 [s1 + 0x240]\n 91832: a0 = reverse a0\n 91834: u64 [s1 + 0x208] = a0\n 91838: a0 = u64 [s1 + 0x238]\n 91842: a0 = reverse a0\n 91844: u64 [s1 + 0x210] = a0\n 91848: a0 = u64 [s1 + 0x230]\n 91852: a0 = reverse a0\n 91854: u64 [s1 + 0x218] = a0\n 91858: a0 = u64 [s1 + 0x248]\n 91862: a0 = reverse a0\n 91864: u64 [s1 + 0x220] = a0\n 91868: a0 = u64 [s1 + 0x228]\n 91872: i32 a0 = a0 + 0x80\n 91876: a1 = 0x20\n 91879: ra = 1022, jump @0\n      : @1149 [@dyn 511] (gas: 59)\n 91886: a1 = u64 [s1 + 0x28]\n 91889: a1 = reverse a1\n 91891: a2 = u64 [s1 + 0x1b0]\n 91895: a2 = reverse a2\n 91897: a3 = u64 [s1 + 0x1b8]\n 91901: a3 = reverse a3\n 91903: a4 = a3 >> 0x38\n 91906: u8 [a0 + 0x1f] = a4\n 91909: a4 = a3 >> 0x30\n 91912: u8 [a0 + 0x1e] = a4\n 91915: a4 = a3 >> 0x28\n 91918: u8 [a0 + 0x1d] = a4\n 91921: a4 = a3 >> 0x20\n 91924: u8 [a0 + 0x1c] = a4\n 91927: a4 = a3 >> 0x18\n 91930: u8 [a0 + 0x1b] = a4\n 91933: a4 = a3 >> 0x10\n 91936: u8 [a0 + 0x1a] = a4\n 91939: a4 = a3 >> 0x8\n 91942: u8 [a0 + 0x19] = a4\n 91945: u8 [a0 + 0x18] = a3\n 91948: u8 [a0 + 0x10] = a2\n 91951: u8 [a0 + 11] = 0\n 91954: u8 [a0 + 10] = 0\n 91957: u8 [a0 + 9] = 0\n 91960: u8 [a0 + 7] = 0\n 91963: u8 [a0 + 6] = 0\n 91966: u8 [a0 + 5] = 0\n 91969: u8 [a0 + 4] = 0\n 91972: u8 [a0 + 3] = 0\n 91975: u8 [a0 + 2] = 0\n 91978: u8 [a0 + 1] = 0\n 91981: u8 [a0 + 0] = 0\n 91983: a3 = a2 >> 0x38\n 91986: u8 [a0 + 0x17] = a3\n 91989: a3 = a2 >> 0x30\n 91992: u8 [a0 + 0x16] = a3\n 91995: a3 = a2 >> 0x28\n 91998: u8 [a0 + 0x15] = a3\n 92001: a3 = a2 >> 0x20\n 92004: u8 [a0 + 0x14] = a3\n 92007: a3 = a2 >> 0x18\n 92010: u8 [a0 + 0x13] = a3\n 92013: a3 = a2 >> 0x10\n 92016: u8 [a0 + 0x12] = a3\n 92019: a2 = a2 >> 0x8\n 92022: u8 [a0 + 0x11] = a2\n 92025: u8 [a0 + 0x8] = a1\n 92028: a2 = a1 >> 0x38\n 92031: u8 [a0 + 0xf] = a2\n 92034: a2 = a1 >> 0x30\n 92037: u8 [a0 + 0xe] = a2\n 92040: a2 = a1 >> 0x28\n 92043: u8 [a0 + 0xd] = a2\n 92046: a1 = a1 >> 0x20\n 92049: u8 [a0 + 0xc] = a1\n 92052: a1 = 0x20\n 92055: a0 = 0\n 92057: ra = 1024, jump @0\n      : @1150 [@dyn 512] (gas: 67)\n 92064: a1 = u64 [s1 + 0x170]\n 92068: u8 [a0 + 0x1f] = a1\n 92071: a1 = u64 [s1 + 0x168]\n 92075: u8 [a0 + 0x1e] = a1\n 92078: a1 = u64 [s1 + 0x160]\n 92082: u8 [a0 + 0x1d] = a1\n 92085: a1 = u64 [s1 + 0x158]\n 92089: u8 [a0 + 0x1c] = a1\n 92092: a1 = u64 [s1 + 0x150]\n 92096: u8 [a0 + 0x1b] = a1\n 92099: a1 = u64 [s1 + 0x148]\n 92103: u8 [a0 + 0x1a] = a1\n 92106: a1 = u64 [s1 + 0x140]\n 92110: u8 [a0 + 0x19] = a1\n 92113: a1 = u64 [s1 + 0x248]\n 92117: u8 [a0 + 0x18] = a1\n 92120: a1 = u64 [s1 + 0x138]\n 92124: u8 [a0 + 0x17] = a1\n 92127: a1 = u64 [s1 + 0x130]\n 92131: u8 [a0 + 0x16] = a1\n 92134: a1 = u64 [s1 + 0x128]\n 92138: u8 [a0 + 0x15] = a1\n 92141: a1 = u64 [s1 + 0x120]\n 92145: u8 [a0 + 0x14] = a1\n 92148: a1 = u64 [s1 + 0x118]\n 92152: u8 [a0 + 0x13] = a1\n 92155: a1 = u64 [s1 + 0x110]\n 92159: u8 [a0 + 0x12] = a1\n 92162: a1 = u64 [s1 + 0x108]\n 92166: u8 [a0 + 0x11] = a1\n 92169: a1 = u64 [s1 + 0x230]\n 92173: u8 [a0 + 0x10] = a1\n 92176: a1 = u64 [s1 + 0x100]\n 92180: u8 [a0 + 0xf] = a1\n 92183: a1 = u64 [s1 + 0xf8]\n 92187: u8 [a0 + 0xe] = a1\n 92190: a1 = u64 [s1 + 0xf0]\n 92194: u8 [a0 + 0xd] = a1\n 92197: a1 = u64 [s1 + 0xe8]\n 92201: u8 [a0 + 0xc] = a1\n 92204: a1 = u64 [s1 + 0xe0]\n 92208: u8 [a0 + 0xb] = a1\n 92211: a1 = u64 [s1 + 0xd8]\n 92215: u8 [a0 + 0xa] = a1\n 92218: a1 = u64 [s1 + 0xd0]\n 92222: u8 [a0 + 0x9] = a1\n 92225: a1 = u64 [s1 + 0x238]\n 92229: u8 [a0 + 0x8] = a1\n 92232: a1 = u64 [s1 + 0xc8]\n 92236: u8 [a0 + 0x7] = a1\n 92239: a1 = u64 [s1 + 0xc0]\n 92243: u8 [a0 + 0x6] = a1\n 92246: a1 = u64 [s1 + 0xb8]\n 92250: u8 [a0 + 0x5] = a1\n 92253: a1 = u64 [s1 + 0xb0]\n 92257: u8 [a0 + 0x4] = a1\n 92260: a1 = u64 [s1 + 0xa8]\n 92264: u8 [a0 + 0x3] = a1\n 92267: a1 = u64 [s1 + 0xa0]\n 92271: u8 [a0 + 0x2] = a1\n 92274: a1 = u64 [s1 + 0x98]\n 92278: u8 [a0 + 0x1] = a1\n 92281: a1 = u64 [s1 + 0x240]\n 92285: u8 [a0] = a1\n 92287: a0 = 0x20\n 92290: a1 = 0x20\n 92293: ra = 1026, jump @0\n      : @1151 [@dyn 513] (gas: 35)\n 92300: u8 [a0 + 31] = 0\n 92303: u8 [a0 + 30] = 0\n 92306: u8 [a0 + 29] = 0\n 92309: u8 [a0 + 28] = 0\n 92312: u8 [a0 + 27] = 0\n 92315: u8 [a0 + 26] = 0\n 92318: u8 [a0 + 25] = 0\n 92321: u8 [a0 + 24] = 0\n 92324: u8 [a0 + 23] = 0\n 92327: u8 [a0 + 22] = 0\n 92330: u8 [a0 + 21] = 0\n 92333: u8 [a0 + 20] = 0\n 92336: u8 [a0 + 19] = 0\n 92339: u8 [a0 + 18] = 0\n 92342: u8 [a0 + 17] = 0\n 92345: u8 [a0 + 16] = 0\n 92348: u8 [a0 + 15] = 0\n 92351: u8 [a0 + 14] = 0\n 92354: u8 [a0 + 13] = 0\n 92357: u8 [a0 + 12] = 0\n 92360: u8 [a0 + 11] = 0\n 92363: u8 [a0 + 10] = 0\n 92366: u8 [a0 + 9] = 0\n 92369: u8 [a0 + 8] = 0\n 92372: u8 [a0 + 7] = 0\n 92375: u8 [a0 + 6] = 0\n 92378: u8 [a0 + 5] = 0\n 92381: u8 [a0 + 4] = 0\n 92384: u8 [a0 + 3] = 0\n 92387: u8 [a0 + 2] = 0\n 92390: u8 [a0 + 1] = 0\n 92393: u8 [a0 + 0] = 0\n 92395: a1 = 0x40\n 92398: a0 = 0\n 92400: ra = 1028, jump @0\n      : @1152 [@dyn 514] (gas: 27)\n 92407: i32 a0 = a0 + 0\n 92409: i32 a2 = s1 + 0x700\n 92413: a1 = 0x40\n 92416: ecalli 8 // 'hash_keccak_256'\n 92418: a0 = u64 [s1 + 0x718]\n 92422: a1 = u64 [s1 + 0x710]\n 92426: a2 = u64 [s1 + 0x708]\n 92430: a3 = u64 [s1 + 0x700]\n 92434: a4 = reverse a0\n 92436: a0 = reverse a1\n 92438: a1 = reverse a2\n 92440: a2 = reverse a3\n 92442: a3 = u64 [s1 + 0x178]\n 92446: u64 [s1 + 0x458] = a3\n 92450: a3 = u64 [s1 + 0x180]\n 92454: u64 [s1 + 0x450] = a3\n 92458: a3 = u64 [s1 + 0x250]\n 92462: u64 [s1 + 0x448] = a3\n 92466: a3 = u64 [s1 + 0x258]\n 92470: u64 [s1 + 0x440] = a3\n 92474: u64 [s1 + 0x478] = a2\n 92478: u64 [s1 + 0x470] = a1\n 92482: u64 [s1 + 0x468] = a0\n 92486: a0 = s1 + 0x460\n 92490: a1 = s1 + 0x440\n 92494: u64 [s1 + 0x460] = a4\n 92498: ra = 1030, jump @1084\n      : @1153 [@dyn 515] (gas: 53)\n 92504: a0 = u64 [s1 + 0x208]\n 92508: u64 [s1 + 0x418] = a0\n 92512: a0 = u64 [s1 + 0x210]\n 92516: u64 [s1 + 0x410] = a0\n 92520: a0 = u64 [s1 + 0x218]\n 92524: u64 [s1 + 0x408] = a0\n 92528: a0 = u64 [s1 + 0x220]\n 92532: u64 [s1 + 0x400] = a0\n 92536: u64 [s1 + 1080] = 0\n 92540: u64 [s1 + 1072] = 0\n 92544: u64 [s1 + 1056] = 0x1\n 92549: a0 = s1 + 0x420\n 92553: a1 = s1 + 0x400\n 92557: u64 [s1 + 1064] = 0\n 92561: ra = 0x408\n 92565: sp = sp + 0xfffffffffffffdc0\n 92569: u64 [sp + 0x238] = ra\n 92573: u64 [sp + 0x230] = s0\n 92577: u64 [sp + 0x228] = s1\n 92581: s0 = sp + 0x240\n 92585: sp = sp & 0xffffffffffffffe0\n 92588: a2 = u64 [a1 + 0x18]\n 92591: u64 [sp + 0x50] = a2\n 92594: a2 = u64 [a1 + 0x10]\n 92597: u64 [sp + 0x30] = a2\n 92600: a2 = u64 [a1 + 0x8]\n 92603: u64 [sp + 0x28] = a2\n 92606: a1 = u64 [a1]\n 92608: u64 [sp + 0x20] = a1\n 92611: a3 = u64 [a0 + 0x18]\n 92614: a2 = u64 [a0 + 0x10]\n 92617: a1 = u64 [a0 + 0x8]\n 92620: a0 = u64 [a0]\n 92622: u64 [sp + 0x60] = a3\n 92625: u64 [sp + 0x1f8] = a3\n 92629: u64 [sp + 0x68] = a2\n 92632: u64 [sp + 0x1f0] = a2\n 92636: u64 [sp + 0x70] = a1\n 92639: u64 [sp + 0x1e8] = a1\n 92643: u64 [sp + 0x78] = a0\n 92646: u64 [sp + 0x1e0] = a0\n 92650: u64 [sp + 536] = 0\n 92654: u64 [sp + 528] = 0\n 92658: u64 [sp + 520] = 0\n 92662: u64 [sp + 512] = 0\n 92666: u32 [sp + 448] = 0x20\n 92671: i32 a1 = sp + 0x1e0\n 92675: i32 a3 = sp + 0x200\n 92679: i32 a4 = sp + 0x1c0\n 92683: a2 = 0xffffffffffffffff\n 92686: a0 = 0\n 92688: ecalli 7 // 'get_storage'\n 92690: jump @1100\n      : @1154 [@dyn 516] (gas: 22)\n 92693: a0 = sp + 0xffffffffffffffe0\n 92696: a0 = a0 & 0xffffffffffffffe0\n 92699: u64 [s1 + 0x200] = a0\n 92703: sp = a0\n 92705: u64 [a0 + 24] = 0\n 92708: u64 [a0 + 16] = 0\n 92711: u64 [a0 + 8] = 0\n 92714: u64 [a0 + 0] = 0\n 92716: i32 a0 = a0 + 0\n 92718: ecalli 16 // 'value_transferred'\n 92720: a1 = u64 [s1 + 0x200]\n 92724: a0 = u64 [a1]\n 92726: u64 [s1 + 0x258] = a0\n 92730: a0 = u64 [a1 + 0x8]\n 92733: u64 [s1 + 0x250] = a0\n 92737: a0 = u64 [a1 + 0x10]\n 92740: u64 [s1 + 0x228] = a0\n 92744: a0 = u64 [a1 + 0x18]\n 92747: u64 [s1 + 0x200] = a0\n 92751: a1 = 0x20\n 92754: a0 = 0\n 92756: ra = 1034, jump @0\n      : @1155 [@dyn 517] (gas: 67)\n 92763: a1 = u64 [s1 + 0x170]\n 92767: u8 [a0 + 0x1f] = a1\n 92770: a1 = u64 [s1 + 0x168]\n 92774: u8 [a0 + 0x1e] = a1\n 92777: a1 = u64 [s1 + 0x160]\n 92781: u8 [a0 + 0x1d] = a1\n 92784: a1 = u64 [s1 + 0x158]\n 92788: u8 [a0 + 0x1c] = a1\n 92791: a1 = u64 [s1 + 0x150]\n 92795: u8 [a0 + 0x1b] = a1\n 92798: a1 = u64 [s1 + 0x148]\n 92802: u8 [a0 + 0x1a] = a1\n 92805: a1 = u64 [s1 + 0x140]\n 92809: u8 [a0 + 0x19] = a1\n 92812: a1 = u64 [s1 + 0x138]\n 92816: u8 [a0 + 0x17] = a1\n 92819: a1 = u64 [s1 + 0x130]\n 92823: u8 [a0 + 0x16] = a1\n 92826: a1 = u64 [s1 + 0x128]\n 92830: u8 [a0 + 0x15] = a1\n 92833: a1 = u64 [s1 + 0x120]\n 92837: u8 [a0 + 0x14] = a1\n 92840: a1 = u64 [s1 + 0x118]\n 92844: u8 [a0 + 0x13] = a1\n 92847: a1 = u64 [s1 + 0x110]\n 92851: u8 [a0 + 0x12] = a1\n 92854: a1 = u64 [s1 + 0x108]\n 92858: u8 [a0 + 0x11] = a1\n 92861: a1 = u64 [s1 + 0x100]\n 92865: u8 [a0 + 0xf] = a1\n 92868: a1 = u64 [s1 + 0xf8]\n 92872: u8 [a0 + 0xe] = a1\n 92875: a1 = u64 [s1 + 0xf0]\n 92879: u8 [a0 + 0xd] = a1\n 92882: a1 = u64 [s1 + 0xe8]\n 92886: u8 [a0 + 0xc] = a1\n 92889: a1 = u64 [s1 + 0xe0]\n 92893: u8 [a0 + 0xb] = a1\n 92896: a1 = u64 [s1 + 0xd8]\n 92900: u8 [a0 + 0xa] = a1\n 92903: a1 = u64 [s1 + 0xd0]\n 92907: u8 [a0 + 0x9] = a1\n 92910: a1 = u64 [s1 + 0xc8]\n 92914: u8 [a0 + 0x7] = a1\n 92917: a1 = u64 [s1 + 0xc0]\n 92921: u8 [a0 + 0x6] = a1\n 92924: a1 = u64 [s1 + 0xb8]\n 92928: u8 [a0 + 0x5] = a1\n 92931: a1 = u64 [s1 + 0xb0]\n 92935: u8 [a0 + 0x4] = a1\n 92938: a1 = u64 [s1 + 0xa8]\n 92942: u8 [a0 + 0x3] = a1\n 92945: a1 = u64 [s1 + 0xa0]\n 92949: u8 [a0 + 0x2] = a1\n 92952: a1 = u64 [s1 + 0x98]\n 92956: u8 [a0 + 0x1] = a1\n 92959: a1 = u64 [s1 + 0x248]\n 92963: u8 [a0 + 0x18] = a1\n 92966: a1 = u64 [s1 + 0x230]\n 92970: u8 [a0 + 0x10] = a1\n 92973: a1 = u64 [s1 + 0x238]\n 92977: u8 [a0 + 0x8] = a1\n 92980: a1 = u64 [s1 + 0x240]\n 92984: u8 [a0] = a1\n 92986: a0 = 0x20\n 92989: a1 = 0x20\n 92992: ra = 1036, jump @0\n      : @1156 [@dyn 518] (gas: 35)\n 92999: u8 [a0 + 31] = 0x2\n 93003: u8 [a0 + 30] = 0\n 93006: u8 [a0 + 29] = 0\n 93009: u8 [a0 + 28] = 0\n 93012: u8 [a0 + 27] = 0\n 93015: u8 [a0 + 26] = 0\n 93018: u8 [a0 + 25] = 0\n 93021: u8 [a0 + 24] = 0\n 93024: u8 [a0 + 23] = 0\n 93027: u8 [a0 + 22] = 0\n 93030: u8 [a0 + 21] = 0\n 93033: u8 [a0 + 20] = 0\n 93036: u8 [a0 + 19] = 0\n 93039: u8 [a0 + 18] = 0\n 93042: u8 [a0 + 17] = 0\n 93045: u8 [a0 + 16] = 0\n 93048: u8 [a0 + 15] = 0\n 93051: u8 [a0 + 14] = 0\n 93054: u8 [a0 + 13] = 0\n 93057: u8 [a0 + 12] = 0\n 93060: u8 [a0 + 11] = 0\n 93063: u8 [a0 + 10] = 0\n 93066: u8 [a0 + 9] = 0\n 93069: u8 [a0 + 8] = 0\n 93072: u8 [a0 + 7] = 0\n 93075: u8 [a0 + 6] = 0\n 93078: u8 [a0 + 5] = 0\n 93081: u8 [a0 + 4] = 0\n 93084: u8 [a0 + 3] = 0\n 93087: u8 [a0 + 2] = 0\n 93090: u8 [a0 + 1] = 0\n 93093: u8 [a0 + 0] = 0\n 93095: a1 = 0x40\n 93098: a0 = 0\n 93100: ra = 1038, jump @0\n      : @1157 [@dyn 519] (gas: 83)\n 93107: i32 a0 = a0 + 0\n 93109: i32 a2 = s1 + 0x700\n 93113: a1 = 0x40\n 93116: ecalli 8 // 'hash_keccak_256'\n 93118: a0 = u64 [s1 + 0x718]\n 93122: a1 = u64 [s1 + 0x710]\n 93126: a2 = u64 [s1 + 0x708]\n 93130: a3 = u64 [s1 + 0x700]\n 93134: a0 = reverse a0\n 93136: u64 [s1 + 0x1f8] = a0\n 93140: a1 = reverse a1\n 93142: u64 [s1 + 0x1f0] = a1\n 93146: a2 = reverse a2\n 93148: u64 [s1 + 0x1e8] = a2\n 93152: a3 = reverse a3\n 93154: u64 [s1 + 0x1e0] = a3\n 93158: u64 [s1 + 0x6f8] = a3\n 93162: u64 [s1 + 0x6f0] = a2\n 93166: u64 [s1 + 0x6e8] = a1\n 93170: u64 [s1 + 0x6e0] = a0\n 93174: u64 [s1 + 1816] = 0\n 93178: u64 [s1 + 1808] = 0\n 93182: u64 [s1 + 1800] = 0\n 93186: u64 [s1 + 1792] = 0\n 93190: u32 [s1 + 1728] = 0x20\n 93195: i32 a1 = s1 + 0x6e0\n 93199: i32 a3 = s1 + 0x700\n 93203: i32 a4 = s1 + 0x6c0\n 93207: a2 = 0xffffffffffffffff\n 93210: a0 = 0\n 93212: ecalli 7 // 'get_storage'\n 93214: a0 = u64 [s1 + 0x1e0]\n 93218: u64 [s1 + 0x6f8] = a0\n 93222: a0 = u64 [s1 + 0x1e8]\n 93226: u64 [s1 + 0x6f0] = a0\n 93230: a0 = u64 [s1 + 0x1f0]\n 93234: u64 [s1 + 0x6e8] = a0\n 93238: a0 = u64 [s1 + 0x1f8]\n 93242: u64 [s1 + 0x6e0] = a0\n 93246: a0 = u64 [s1 + 0x200]\n 93250: u64 [s1 + 0x718] = a0\n 93254: a0 = u64 [s1 + 0x228]\n 93258: u64 [s1 + 0x710] = a0\n 93262: a0 = u64 [s1 + 0x250]\n 93266: u64 [s1 + 0x708] = a0\n 93270: a0 = u64 [s1 + 0x258]\n 93274: u64 [s1 + 0x700] = a0\n 93278: i32 a1 = s1 + 0x6e0\n 93282: i32 a3 = s1 + 0x700\n 93286: a2 = 0xffffffffffffffff\n 93289: a4 = 0x20\n 93292: a0 = 0\n 93294: ecalli 15 // 'set_storage'\n 93296: i32 a0 = s1 + 0x6a0\n 93300: ecalli 5 // 'caller'\n 93302: a0 = u32 [s1 + 0x6b0]\n 93306: u64 [s1 + 0x1b0] = a0\n 93310: a0 = u64 [s1 + 0x6a8]\n 93314: u64 [s1 + 0x188] = a0\n 93318: a0 = u64 [s1 + 0x6a0]\n 93322: u64 [s1 + 0x228] = a0\n 93326: a0 = sp + 0xffffffffffffffe0\n 93329: a0 = a0 & 0xffffffffffffffe0\n 93332: u64 [s1 + 0x258] = a0\n 93336: sp = a0\n 93338: u64 [a0 + 24] = 0\n 93341: u64 [a0 + 16] = 0\n 93344: u64 [a0 + 8] = 0\n 93347: u64 [a0 + 0] = 0\n 93349: i32 a0 = a0 + 0\n 93351: ecalli 16 // 'value_transferred'\n 93353: a1 = u64 [s1 + 0x258]\n 93357: a0 = u64 [a1]\n 93359: u64 [s1 + 0x200] = a0\n 93363: a0 = u64 [a1 + 0x8]\n 93366: u64 [s1 + 0x1f8] = a0\n 93370: a0 = u64 [a1 + 0x10]\n 93373: u64 [s1 + 0x1f0] = a0\n 93377: a0 = u64 [a1 + 0x18]\n 93380: u64 [s1 + 0x1e8] = a0\n 93384: a0 = 0x40\n 93387: a1 = 0x20\n 93390: ra = 1040, jump @0\n      : @1158 [@dyn 520] (gas: 130)\n 93397: a1 = u8 [a0 + 0x1]\n 93400: a2 = u8 [a0]\n 93402: a3 = u8 [a0 + 0x2]\n 93405: a4 = u8 [a0 + 0x3]\n 93408: a1 = a1 << 0x8\n 93411: a1 = a1 | a2\n 93414: a3 = a3 << 0x10\n 93417: a4 = a4 << 0x18\n 93420: a3 = a3 | a4\n 93423: a1 = a1 | a3\n 93426: a2 = u8 [a0 + 0x5]\n 93429: a3 = u8 [a0 + 0x4]\n 93432: a4 = u8 [a0 + 0x6]\n 93435: a5 = u8 [a0 + 0x7]\n 93438: a2 = a2 << 0x8\n 93441: a2 = a2 | a3\n 93444: a4 = a4 << 0x10\n 93447: a5 = a5 << 0x18\n 93450: a4 = a4 | a5\n 93453: a2 = a2 | a4\n 93456: a2 = a2 << 0x20\n 93459: t0 = a2 | a1\n 93462: a2 = u8 [a0 + 0x9]\n 93465: a3 = u8 [a0 + 0x8]\n 93468: a4 = u8 [a0 + 0xa]\n 93471: a5 = u8 [a0 + 0xb]\n 93474: a2 = a2 << 0x8\n 93477: a2 = a2 | a3\n 93480: a4 = a4 << 0x10\n 93483: a5 = a5 << 0x18\n 93486: a4 = a4 | a5\n 93489: a2 = a2 | a4\n 93492: a3 = u8 [a0 + 0xd]\n 93495: a4 = u8 [a0 + 0xc]\n 93498: a5 = u8 [a0 + 0xe]\n 93501: a1 = u8 [a0 + 0xf]\n 93504: a3 = a3 << 0x8\n 93507: a3 = a3 | a4\n 93510: a5 = a5 << 0x10\n 93513: a1 = a1 << 0x18\n 93516: a1 = a1 | a5\n 93519: a1 = a1 | a3\n 93522: a1 = a1 << 0x20\n 93525: t1 = a1 | a2\n 93528: a1 = u8 [a0 + 0x11]\n 93531: a3 = u8 [a0 + 0x10]\n 93534: a4 = u8 [a0 + 0x12]\n 93537: a5 = u8 [a0 + 0x13]\n 93540: a1 = a1 << 0x8\n 93543: a1 = a1 | a3\n 93546: a4 = a4 << 0x10\n 93549: a5 = a5 << 0x18\n 93552: a4 = a4 | a5\n 93555: a1 = a1 | a4\n 93558: a3 = u8 [a0 + 0x15]\n 93561: a4 = u8 [a0 + 0x14]\n 93564: a5 = u8 [a0 + 0x16]\n 93567: a2 = u8 [a0 + 0x17]\n 93570: a3 = a3 << 0x8\n 93573: a3 = a3 | a4\n 93576: a5 = a5 << 0x10\n 93579: a2 = a2 << 0x18\n 93582: a2 = a2 | a5\n 93585: a2 = a2 | a3\n 93588: a2 = a2 << 0x20\n 93591: a3 = a2 | a1\n 93594: a1 = u8 [a0 + 0x19]\n 93597: a2 = u8 [a0 + 0x18]\n 93600: a4 = u8 [a0 + 0x1a]\n 93603: a5 = u8 [a0 + 0x1b]\n 93606: a1 = a1 << 0x8\n 93609: a1 = a1 | a2\n 93612: a4 = a4 << 0x10\n 93615: a5 = a5 << 0x18\n 93618: a4 = a4 | a5\n 93621: a1 = a1 | a4\n 93624: a2 = u8 [a0 + 0x1d]\n 93627: a4 = u8 [a0 + 0x1c]\n 93630: a5 = u8 [a0 + 0x1e]\n 93633: a0 = u8 [a0 + 0x1f]\n 93636: a2 = a2 << 0x8\n 93639: a2 = a2 | a4\n 93642: a5 = a5 << 0x10\n 93645: a0 = a0 << 0x18\n 93648: a0 = a0 | a5\n 93651: a0 = a0 | a2\n 93654: a0 = a0 << 0x20\n 93657: a0 = a0 | a1\n 93660: a5 = reverse a0\n 93662: u64 [s1 + 0x258] = a5\n 93666: a2 = reverse a3\n 93668: u64 [s1 + 0x1b8] = a2\n 93672: a1 = reverse t1\n 93674: u64 [s1 + 0x1e0] = a1\n 93678: a3 = reverse t0\n 93680: u64 [s1 + 0x250] = a3\n 93684: a0 = u64 [s1 + 0x1e8]\n 93688: u64 [s1 + 0x378] = a0\n 93692: a0 = u64 [s1 + 0x1f0]\n 93696: u64 [s1 + 0x370] = a0\n 93700: a0 = u64 [s1 + 0x1f8]\n 93704: u64 [s1 + 0x368] = a0\n 93708: a0 = u64 [s1 + 0x200]\n 93712: u64 [s1 + 0x360] = a0\n 93716: a0 = u64 [s1 + 0x1c0]\n 93720: u64 [s1 + 0x398] = a0\n 93724: a0 = u64 [s1 + 0x1d8]\n 93728: u64 [s1 + 0x390] = a0\n 93732: a0 = u64 [s1 + 0x1c8]\n 93736: u64 [s1 + 0x388] = a0\n 93740: a0 = u64 [s1 + 0x1d0]\n 93744: u64 [s1 + 0x380] = a0\n 93748: a0 = u64 [s1 + 0x190]\n 93752: u64 [s1 + 0x3b8] = a0\n 93756: a0 = u64 [s1 + 0x198]\n 93760: u64 [s1 + 0x3b0] = a0\n 93764: a0 = u64 [s1 + 0x1a0]\n 93768: u64 [s1 + 0x3a8] = a0\n 93772: a0 = u64 [s1 + 0x1a8]\n 93776: u64 [s1 + 0x3a0] = a0\n 93780: u64 [s1 + 0x3d8] = a3\n 93784: u64 [s1 + 0x3d0] = a1\n 93788: u64 [s1 + 0x3c8] = a2\n 93792: a0 = s1 + 0x3e0\n 93796: a1 = s1 + 0x3c0\n 93800: a2 = s1 + 0x3a0\n 93804: a3 = s1 + 0x380\n 93808: a4 = s1 + 0x360\n 93812: u64 [s1 + 0x3c0] = a5\n 93816: ra = 1042, jump @1377\n      : @1159 [@dyn 521] (gas: 12)\n 93822: a2 = u64 [s1 + 0x1b8]\n 93826: a0 = u64 [s1 + 0x250]\n 93830: a0 = a0 | a2\n 93833: a3 = u64 [s1 + 0x1e0]\n 93837: a1 = u64 [s1 + 0x258]\n 93841: a1 = a1 | a3\n 93844: a1 = a1 | a0\n 93847: a1 = a1 >> 0x20\n 93850: a0 = a0 | a3\n 93853: a0 = a0 << 0x20\n 93856: a0 = a0 | a1\n 93859: jump @1189 if a0 != 0\n      : @1160 (gas: 33)\n 93863: ra = a3\n 93865: a0 = u64 [s1 + 0x3e8]\n 93869: a1 = u64 [s1 + 0x3f8]\n 93873: u64 [s1 + 0x200] = a1\n 93877: t2 = u64 [s1 + 0x3e0]\n 93881: a3 = u64 [s1 + 0x3f0]\n 93885: a4 = a0 ^ a2\n 93888: a5 = a0 <u a2\n 93891: t0 = u64 [s1 + 0x258]\n 93895: a1 = t2 <u t0\n 93898: a5 = a1 if a4 == 0\n 93901: a4 = a3 - ra\n 93904: t1 = a4 - a5\n 93907: a4 = a4 <u a5\n 93910: u64 [s1 + 0x1f8] = a4\n 93914: a3 = a3 <u ra\n 93917: a5 = u64 [s1 + 0x250]\n 93921: a4 = u64 [s1 + 0x200]\n 93925: a5 = a4 - a5\n 93928: a5 = a5 - a3\n 93931: a3 = u64 [s1 + 0x1f8]\n 93935: a5 = a5 - a3\n 93938: a0 = a0 - a2\n 93941: a0 = a0 - a1\n 93944: a1 = t2 - t0\n 93947: a0 = a0 | a5\n 93950: a3 = a1 | t1\n 93953: a3 = a3 | a0\n 93956: a0 = a0 | t1\n 93959: a3 = a3 >> 0x20\n 93962: a0 = a0 << 0x20\n 93965: a0 = a0 | a3\n 93968: jump @1189 if a0 != 0\n      : @1161 (gas: 18)\n 93972: a0 = u64 [s1 + 0x228]\n 93976: a0 = reverse a0\n 93978: a0 = a0 << 0x20\n 93981: a2 = u64 [s1 + 0x188]\n 93985: a2 = reverse a2\n 93987: a3 = a2 >> 0x20\n 93990: a0 = a0 | a3\n 93993: u64 [s1 + 0x250] = a0\n 93997: a2 = a2 << 0x20\n 94000: a0 = u64 [s1 + 0x1b0]\n 94004: a0 = reverse a0\n 94006: a0 = a0 >> 0x20\n 94009: a0 = a0 | a2\n 94012: u64 [s1 + 0x200] = a0\n 94016: a0 = i32 [s1 + 0x258]\n 94020: i32 a1 = a1 + 0\n 94022: u64 [s1 + 0x258] = a1\n 94026: ra = 1044, jump @0\n      : @1162 [@dyn 522] (gas: 46)\n 94033: a1 = u64 [0x20080]\n 94038: a2 = u64 [0x20088]\n 94043: a3 = u64 [0x20090]\n 94048: a4 = u64 [0x20098]\n 94053: u64 [s1 + 0x718] = a1\n 94057: u64 [s1 + 0x710] = a2\n 94061: u64 [s1 + 0x708] = a3\n 94065: u64 [s1 + 0x700] = a4\n 94069: a1 = u64 [s1 + 0x230]\n 94073: u64 [s1 + 0x730] = a1\n 94077: a1 = u64 [s1 + 0x238]\n 94081: u64 [s1 + 0x728] = a1\n 94085: a1 = u64 [s1 + 0x240]\n 94089: u64 [s1 + 0x720] = a1\n 94093: a1 = u64 [s1 + 0x248]\n 94097: u64 [s1 + 0x738] = a1\n 94101: a1 = u64 [s1 + 0x200]\n 94105: a1 = reverse a1\n 94107: a2 = u64 [s1 + 0x250]\n 94111: a2 = reverse a2\n 94113: a3 = u64 [s1 + 0x228]\n 94117: a3 = a3 << 0x20\n 94120: u64 [s1 + 0x748] = a3\n 94124: u64 [s1 + 1856] = 0\n 94128: u64 [s1 + 0x750] = a2\n 94132: u64 [s1 + 0x758] = a1\n 94136: i32 a2 = a0 + 0\n 94138: i32 a0 = s1 + 0x700\n 94142: a1 = 0x3\n 94145: a3 = u64 [s1 + 0x258]\n 94149: ecalli 6 // 'deposit_event'\n 94151: a0 = u64 [s1 + 0x30]\n 94154: a1 = u64 [s1 + 0x208]\n 94158: u64 [a0 + 0x18] = a1\n 94161: a1 = u64 [s1 + 0x210]\n 94165: u64 [a0 + 0x10] = a1\n 94168: a1 = u64 [s1 + 0x218]\n 94172: u64 [a0 + 0x8] = a1\n 94175: a1 = u64 [s1 + 0x220]\n 94179: u64 [a0] = a1\n 94181: sp = s0 + 0xfffffffffffff880\n 94185: ra = u64 [sp + 0x778]\n 94189: s0 = u64 [sp + 0x770]\n 94193: s1 = u64 [sp + 0x768]\n 94197: sp = sp + 0x780\n 94201: ret\n      : @1163 (gas: 3)\n 94203: a0 = 0x40\n 94206: a1 = 0x20\n 94209: ra = 1046, jump @0\n      : @1164 [@dyn 523] (gas: 104)\n 94216: a1 = u8 [a0 + 0x11]\n 94219: a2 = u8 [a0 + 0x10]\n 94222: a3 = u8 [a0 + 0x12]\n 94225: a4 = u8 [a0 + 0x13]\n 94228: a1 = a1 << 0x8\n 94231: a1 = a1 | a2\n 94234: a3 = a3 << 0x10\n 94237: a4 = a4 << 0x18\n 94240: a3 = a3 | a4\n 94243: a1 = a1 | a3\n 94246: a2 = u8 [a0 + 0x15]\n 94249: a3 = u8 [a0 + 0x14]\n 94252: a4 = u8 [a0 + 0x16]\n 94255: a5 = u8 [a0 + 0x17]\n 94258: a2 = a2 << 0x8\n 94261: a2 = a2 | a3\n 94264: a4 = a4 << 0x10\n 94267: a5 = a5 << 0x18\n 94270: a4 = a4 | a5\n 94273: a2 = a2 | a4\n 94276: a2 = a2 << 0x20\n 94279: t0 = a2 | a1\n 94282: a2 = u8 [a0 + 0x1]\n 94285: a3 = u8 [a0]\n 94287: a4 = u8 [a0 + 0x2]\n 94290: a5 = u8 [a0 + 0x3]\n 94293: a2 = a2 << 0x8\n 94296: a2 = a2 | a3\n 94299: a4 = a4 << 0x10\n 94302: a5 = a5 << 0x18\n 94305: a4 = a4 | a5\n 94308: a2 = a2 | a4\n 94311: a3 = u8 [a0 + 0x5]\n 94314: a4 = u8 [a0 + 0x4]\n 94317: a5 = u8 [a0 + 0x6]\n 94320: a1 = u8 [a0 + 0x7]\n 94323: a3 = a3 << 0x8\n 94326: a3 = a3 | a4\n 94329: a5 = a5 << 0x10\n 94332: a1 = a1 << 0x18\n 94335: a1 = a1 | a5\n 94338: a1 = a1 | a3\n 94341: a1 = a1 << 0x20\n 94344: t1 = a1 | a2\n 94347: a1 = u8 [a0 + 0x19]\n 94350: a3 = u8 [a0 + 0x18]\n 94353: a4 = u8 [a0 + 0x1a]\n 94356: a5 = u8 [a0 + 0x1b]\n 94359: a1 = a1 << 0x8\n 94362: a1 = a1 | a3\n 94365: a4 = a4 << 0x10\n 94368: a5 = a5 << 0x18\n 94371: a4 = a4 | a5\n 94374: a1 = a1 | a4\n 94377: a3 = u8 [a0 + 0x1d]\n 94380: a4 = u8 [a0 + 0x1c]\n 94383: a5 = u8 [a0 + 0x1e]\n 94386: a2 = u8 [a0 + 0x1f]\n 94389: a3 = a3 << 0x8\n 94392: a3 = a3 | a4\n 94395: a5 = a5 << 0x10\n 94398: a2 = a2 << 0x18\n 94401: a2 = a2 | a5\n 94404: a2 = a2 | a3\n 94407: a2 = a2 << 0x20\n 94410: a3 = a2 | a1\n 94413: a1 = u8 [a0 + 0x9]\n 94416: a2 = u8 [a0 + 0x8]\n 94419: a4 = u8 [a0 + 0xa]\n 94422: a5 = u8 [a0 + 0xb]\n 94425: a1 = a1 << 0x8\n 94428: a1 = a1 | a2\n 94431: a4 = a4 << 0x10\n 94434: a5 = a5 << 0x18\n 94437: a4 = a4 | a5\n 94440: a1 = a1 | a4\n 94443: a2 = u8 [a0 + 0xd]\n 94446: a4 = u8 [a0 + 0xc]\n 94449: a5 = u8 [a0 + 0xe]\n 94452: a0 = u8 [a0 + 0xf]\n 94455: a2 = a2 << 0x8\n 94458: a2 = a2 | a4\n 94461: a5 = a5 << 0x10\n 94464: a0 = a0 << 0x18\n 94467: a0 = a0 | a5\n 94470: a0 = a0 | a2\n 94473: a0 = a0 << 0x20\n 94476: a0 = a0 | a1\n 94479: a4 = reverse a0\n 94481: a1 = reverse a3\n 94483: a2 = reverse t1\n 94485: a0 = reverse t0\n 94487: u64 [s1 + 0x258] = a0\n 94491: u64 [s1 + 0x248] = a2\n 94495: a0 = a0 | a2\n 94498: a2 = a1\n 94500: a1 = a1 | a4\n 94503: a1 = a1 | a0\n 94506: a1 = a1 >> 0x20\n 94509: u64 [s1 + 0x250] = a4\n 94513: a0 = a0 | a4\n 94516: a0 = a0 << 0x20\n 94519: a0 = a0 | a1\n 94522: jump @1189 if a0 != 0\n      : @1165 (gas: 5)\n 94526: u64 [s1 + 0x240] = a2\n 94530: i32 a0 = a2 + 0\n 94532: a1 = 0x20\n 94535: u64 [s1 + 0x238] = a0\n 94539: ra = 1048, jump @0\n      : @1166 [@dyn 524] (gas: 51)\n 94546: u8 [a0 + 31] = 0\n 94549: u8 [a0 + 30] = 0\n 94552: u8 [a0 + 29] = 0\n 94555: u8 [a0 + 28] = 0\n 94558: u8 [a0 + 27] = 0\n 94561: u8 [a0 + 26] = 0\n 94564: u8 [a0 + 25] = 0\n 94567: u8 [a0 + 24] = 0\n 94570: u8 [a0 + 23] = 0\n 94573: u8 [a0 + 22] = 0\n 94576: u8 [a0 + 21] = 0\n 94579: u8 [a0 + 20] = 0\n 94582: u8 [a0 + 19] = 0\n 94585: u8 [a0 + 18] = 0\n 94588: u8 [a0 + 17] = 0\n 94591: u8 [a0 + 16] = 0\n 94594: u8 [a0 + 15] = 0\n 94597: u8 [a0 + 14] = 0\n 94600: u8 [a0 + 13] = 0\n 94603: u8 [a0 + 12] = 0\n 94606: u8 [a0 + 11] = 0\n 94609: u8 [a0 + 10] = 0\n 94612: u8 [a0 + 9] = 0\n 94615: u8 [a0 + 8] = 0\n 94618: u8 [a0 + 7] = 0\n 94621: u8 [a0 + 6] = 0\n 94624: u8 [a0 + 5] = 0\n 94627: u8 [a0 + 4] = 0\n 94630: u8 [a0 + 3] = 0xa0\n 94635: u8 [a0 + 2] = 0x79\n 94639: u8 [a0 + 1] = 0xc3\n 94644: u8 [a0 + 0] = 0x8\n 94647: a1 = u64 [s1 + 0x240]\n 94651: a0 = a1 + 0x4\n 94654: a1 = a0 <u a1\n 94657: a3 = u64 [s1 + 0x258]\n 94661: a2 = a3 + a1\n 94664: a3 = a2 <u a3\n 94667: a3 = a1 if a1 == 0\n 94670: a1 = u64 [s1 + 0x250]\n 94674: a3 = a3 + a1\n 94677: a1 = a3 <u a1\n 94680: a4 = u64 [s1 + 0x248]\n 94684: a4 = a4 + a1\n 94687: u64 [s1 + 0x268] = a2\n 94691: u64 [s1 + 0x260] = a0\n 94695: u64 [s1 + 0x270] = a3\n 94699: a0 = s1 + 0x280\n 94703: a1 = s1 + 0x260\n 94707: u64 [s1 + 0x278] = a4\n 94711: ra = 1050, jump @1017\n      : @1167 [@dyn 525] (gas: 5)\n 94717: a0 = u64 [s1 + 0x288]\n 94721: t0 = u64 [s1 + 0x298]\n 94725: t1 = u64 [s1 + 0x280]\n 94729: a3 = u64 [s1 + 0x290]\n 94733: jump @1188\n      : @1168 (gas: 3)\n 94736: a0 = 0x40\n 94739: a1 = 0x20\n 94742: ra = 1052, jump @0\n      : @1169 [@dyn 526] (gas: 104)\n 94749: a1 = u8 [a0 + 0x11]\n 94752: a2 = u8 [a0 + 0x10]\n 94755: a3 = u8 [a0 + 0x12]\n 94758: a4 = u8 [a0 + 0x13]\n 94761: a1 = a1 << 0x8\n 94764: a1 = a1 | a2\n 94767: a3 = a3 << 0x10\n 94770: a4 = a4 << 0x18\n 94773: a3 = a3 | a4\n 94776: a1 = a1 | a3\n 94779: a2 = u8 [a0 + 0x15]\n 94782: a3 = u8 [a0 + 0x14]\n 94785: a4 = u8 [a0 + 0x16]\n 94788: a5 = u8 [a0 + 0x17]\n 94791: a2 = a2 << 0x8\n 94794: a2 = a2 | a3\n 94797: a4 = a4 << 0x10\n 94800: a5 = a5 << 0x18\n 94803: a4 = a4 | a5\n 94806: a2 = a2 | a4\n 94809: a2 = a2 << 0x20\n 94812: t0 = a2 | a1\n 94815: a2 = u8 [a0 + 0x1]\n 94818: a3 = u8 [a0]\n 94820: a4 = u8 [a0 + 0x2]\n 94823: a5 = u8 [a0 + 0x3]\n 94826: a2 = a2 << 0x8\n 94829: a2 = a2 | a3\n 94832: a4 = a4 << 0x10\n 94835: a5 = a5 << 0x18\n 94838: a4 = a4 | a5\n 94841: a2 = a2 | a4\n 94844: a3 = u8 [a0 + 0x5]\n 94847: a4 = u8 [a0 + 0x4]\n 94850: a5 = u8 [a0 + 0x6]\n 94853: a1 = u8 [a0 + 0x7]\n 94856: a3 = a3 << 0x8\n 94859: a3 = a3 | a4\n 94862: a5 = a5 << 0x10\n 94865: a1 = a1 << 0x18\n 94868: a1 = a1 | a5\n 94871: a1 = a1 | a3\n 94874: a1 = a1 << 0x20\n 94877: t1 = a1 | a2\n 94880: a1 = u8 [a0 + 0x19]\n 94883: a3 = u8 [a0 + 0x18]\n 94886: a4 = u8 [a0 + 0x1a]\n 94889: a5 = u8 [a0 + 0x1b]\n 94892: a1 = a1 << 0x8\n 94895: a1 = a1 | a3\n 94898: a4 = a4 << 0x10\n 94901: a5 = a5 << 0x18\n 94904: a4 = a4 | a5\n 94907: a1 = a1 | a4\n 94910: a3 = u8 [a0 + 0x1d]\n 94913: a4 = u8 [a0 + 0x1c]\n 94916: a5 = u8 [a0 + 0x1e]\n 94919: a2 = u8 [a0 + 0x1f]\n 94922: a3 = a3 << 0x8\n 94925: a3 = a3 | a4\n 94928: a5 = a5 << 0x10\n 94931: a2 = a2 << 0x18\n 94934: a2 = a2 | a5\n 94937: a2 = a2 | a3\n 94940: a2 = a2 << 0x20\n 94943: a3 = a2 | a1\n 94946: a1 = u8 [a0 + 0x9]\n 94949: a2 = u8 [a0 + 0x8]\n 94952: a4 = u8 [a0 + 0xa]\n 94955: a5 = u8 [a0 + 0xb]\n 94958: a1 = a1 << 0x8\n 94961: a1 = a1 | a2\n 94964: a4 = a4 << 0x10\n 94967: a5 = a5 << 0x18\n 94970: a4 = a4 | a5\n 94973: a1 = a1 | a4\n 94976: a2 = u8 [a0 + 0xd]\n 94979: a4 = u8 [a0 + 0xc]\n 94982: a5 = u8 [a0 + 0xe]\n 94985: a0 = u8 [a0 + 0xf]\n 94988: a2 = a2 << 0x8\n 94991: a2 = a2 | a4\n 94994: a5 = a5 << 0x10\n 94997: a0 = a0 << 0x18\n 95000: a0 = a0 | a5\n 95003: a0 = a0 | a2\n 95006: a0 = a0 << 0x20\n 95009: a0 = a0 | a1\n 95012: a4 = reverse a0\n 95014: a1 = reverse a3\n 95016: a2 = reverse t1\n 95018: a0 = reverse t0\n 95020: u64 [s1 + 0x258] = a0\n 95024: u64 [s1 + 0x248] = a2\n 95028: a0 = a0 | a2\n 95031: a2 = a1\n 95033: a1 = a1 | a4\n 95036: a1 = a1 | a0\n 95039: a1 = a1 >> 0x20\n 95042: u64 [s1 + 0x250] = a4\n 95046: a0 = a0 | a4\n 95049: a0 = a0 << 0x20\n 95052: a0 = a0 | a1\n 95055: jump @1189 if a0 != 0\n      : @1170 (gas: 5)\n 95059: u64 [s1 + 0x240] = a2\n 95063: i32 a0 = a2 + 0\n 95065: a1 = 0x20\n 95068: u64 [s1 + 0x238] = a0\n 95072: ra = 1054, jump @0\n      : @1171 [@dyn 527] (gas: 51)\n 95079: u8 [a0 + 31] = 0\n 95082: u8 [a0 + 30] = 0\n 95085: u8 [a0 + 29] = 0\n 95088: u8 [a0 + 28] = 0\n 95091: u8 [a0 + 27] = 0\n 95094: u8 [a0 + 26] = 0\n 95097: u8 [a0 + 25] = 0\n 95100: u8 [a0 + 24] = 0\n 95103: u8 [a0 + 23] = 0\n 95106: u8 [a0 + 22] = 0\n 95109: u8 [a0 + 21] = 0\n 95112: u8 [a0 + 20] = 0\n 95115: u8 [a0 + 19] = 0\n 95118: u8 [a0 + 18] = 0\n 95121: u8 [a0 + 17] = 0\n 95124: u8 [a0 + 16] = 0\n 95127: u8 [a0 + 15] = 0\n 95130: u8 [a0 + 14] = 0\n 95133: u8 [a0 + 13] = 0\n 95136: u8 [a0 + 12] = 0\n 95139: u8 [a0 + 11] = 0\n 95142: u8 [a0 + 10] = 0\n 95145: u8 [a0 + 9] = 0\n 95148: u8 [a0 + 8] = 0\n 95151: u8 [a0 + 7] = 0\n 95154: u8 [a0 + 6] = 0\n 95157: u8 [a0 + 5] = 0\n 95160: u8 [a0 + 4] = 0\n 95163: u8 [a0 + 3] = 0xa0\n 95168: u8 [a0 + 2] = 0x79\n 95172: u8 [a0 + 1] = 0xc3\n 95177: u8 [a0 + 0] = 0x8\n 95180: a1 = u64 [s1 + 0x240]\n 95184: a0 = a1 + 0x4\n 95187: a1 = a0 <u a1\n 95190: a3 = u64 [s1 + 0x258]\n 95194: a2 = a3 + a1\n 95197: a3 = a2 <u a3\n 95200: a3 = a1 if a1 == 0\n 95203: a1 = u64 [s1 + 0x250]\n 95207: a3 = a3 + a1\n 95210: a1 = a3 <u a1\n 95213: a4 = u64 [s1 + 0x248]\n 95217: a4 = a4 + a1\n 95220: u64 [s1 + 0x2a8] = a2\n 95224: u64 [s1 + 0x2a0] = a0\n 95228: u64 [s1 + 0x2b0] = a3\n 95232: a0 = s1 + 0x2c0\n 95236: a1 = s1 + 0x2a0\n 95240: u64 [s1 + 0x2b8] = a4\n 95244: ra = 1056, jump @1025\n      : @1172 [@dyn 528] (gas: 5)\n 95250: a0 = u64 [s1 + 0x2c8]\n 95254: t0 = u64 [s1 + 0x2d8]\n 95258: t1 = u64 [s1 + 0x2c0]\n 95262: a3 = u64 [s1 + 0x2d0]\n 95266: jump @1188\n      : @1173 (gas: 3)\n 95269: a0 = 0x40\n 95272: a1 = 0x20\n 95275: ra = 1058, jump @0\n      : @1174 [@dyn 529] (gas: 104)\n 95282: a1 = u8 [a0 + 0x11]\n 95285: a2 = u8 [a0 + 0x10]\n 95288: a3 = u8 [a0 + 0x12]\n 95291: a4 = u8 [a0 + 0x13]\n 95294: a1 = a1 << 0x8\n 95297: a1 = a1 | a2\n 95300: a3 = a3 << 0x10\n 95303: a4 = a4 << 0x18\n 95306: a3 = a3 | a4\n 95309: a1 = a1 | a3\n 95312: a2 = u8 [a0 + 0x15]\n 95315: a3 = u8 [a0 + 0x14]\n 95318: a4 = u8 [a0 + 0x16]\n 95321: a5 = u8 [a0 + 0x17]\n 95324: a2 = a2 << 0x8\n 95327: a2 = a2 | a3\n 95330: a4 = a4 << 0x10\n 95333: a5 = a5 << 0x18\n 95336: a4 = a4 | a5\n 95339: a2 = a2 | a4\n 95342: a2 = a2 << 0x20\n 95345: t0 = a2 | a1\n 95348: a2 = u8 [a0 + 0x1]\n 95351: a3 = u8 [a0]\n 95353: a4 = u8 [a0 + 0x2]\n 95356: a5 = u8 [a0 + 0x3]\n 95359: a2 = a2 << 0x8\n 95362: a2 = a2 | a3\n 95365: a4 = a4 << 0x10\n 95368: a5 = a5 << 0x18\n 95371: a4 = a4 | a5\n 95374: a2 = a2 | a4\n 95377: a3 = u8 [a0 + 0x5]\n 95380: a4 = u8 [a0 + 0x4]\n 95383: a5 = u8 [a0 + 0x6]\n 95386: a1 = u8 [a0 + 0x7]\n 95389: a3 = a3 << 0x8\n 95392: a3 = a3 | a4\n 95395: a5 = a5 << 0x10\n 95398: a1 = a1 << 0x18\n 95401: a1 = a1 | a5\n 95404: a1 = a1 | a3\n 95407: a1 = a1 << 0x20\n 95410: t1 = a1 | a2\n 95413: a1 = u8 [a0 + 0x19]\n 95416: a3 = u8 [a0 + 0x18]\n 95419: a4 = u8 [a0 + 0x1a]\n 95422: a5 = u8 [a0 + 0x1b]\n 95425: a1 = a1 << 0x8\n 95428: a1 = a1 | a3\n 95431: a4 = a4 << 0x10\n 95434: a5 = a5 << 0x18\n 95437: a4 = a4 | a5\n 95440: a1 = a1 | a4\n 95443: a3 = u8 [a0 + 0x1d]\n 95446: a4 = u8 [a0 + 0x1c]\n 95449: a5 = u8 [a0 + 0x1e]\n 95452: a2 = u8 [a0 + 0x1f]\n 95455: a3 = a3 << 0x8\n 95458: a3 = a3 | a4\n 95461: a5 = a5 << 0x10\n 95464: a2 = a2 << 0x18\n 95467: a2 = a2 | a5\n 95470: a2 = a2 | a3\n 95473: a2 = a2 << 0x20\n 95476: a3 = a2 | a1\n 95479: a1 = u8 [a0 + 0x9]\n 95482: a2 = u8 [a0 + 0x8]\n 95485: a4 = u8 [a0 + 0xa]\n 95488: a5 = u8 [a0 + 0xb]\n 95491: a1 = a1 << 0x8\n 95494: a1 = a1 | a2\n 95497: a4 = a4 << 0x10\n 95500: a5 = a5 << 0x18\n 95503: a4 = a4 | a5\n 95506: a1 = a1 | a4\n 95509: a2 = u8 [a0 + 0xd]\n 95512: a4 = u8 [a0 + 0xc]\n 95515: a5 = u8 [a0 + 0xe]\n 95518: a0 = u8 [a0 + 0xf]\n 95521: a2 = a2 << 0x8\n 95524: a2 = a2 | a4\n 95527: a5 = a5 << 0x10\n 95530: a0 = a0 << 0x18\n 95533: a0 = a0 | a5\n 95536: a0 = a0 | a2\n 95539: a0 = a0 << 0x20\n 95542: a0 = a0 | a1\n 95545: a4 = reverse a0\n 95547: a1 = reverse a3\n 95549: a2 = reverse t1\n 95551: a0 = reverse t0\n 95553: u64 [s1 + 0x258] = a0\n 95557: u64 [s1 + 0x248] = a2\n 95561: a0 = a0 | a2\n 95564: a2 = a1\n 95566: a1 = a1 | a4\n 95569: a1 = a1 | a0\n 95572: a1 = a1 >> 0x20\n 95575: u64 [s1 + 0x250] = a4\n 95579: a0 = a0 | a4\n 95582: a0 = a0 << 0x20\n 95585: a0 = a0 | a1\n 95588: jump @1189 if a0 != 0\n      : @1175 (gas: 5)\n 95592: u64 [s1 + 0x240] = a2\n 95596: i32 a0 = a2 + 0\n 95598: a1 = 0x20\n 95601: u64 [s1 + 0x238] = a0\n 95605: ra = 1060, jump @0\n      : @1176 [@dyn 530] (gas: 51)\n 95612: u8 [a0 + 31] = 0\n 95615: u8 [a0 + 30] = 0\n 95618: u8 [a0 + 29] = 0\n 95621: u8 [a0 + 28] = 0\n 95624: u8 [a0 + 27] = 0\n 95627: u8 [a0 + 26] = 0\n 95630: u8 [a0 + 25] = 0\n 95633: u8 [a0 + 24] = 0\n 95636: u8 [a0 + 23] = 0\n 95639: u8 [a0 + 22] = 0\n 95642: u8 [a0 + 21] = 0\n 95645: u8 [a0 + 20] = 0\n 95648: u8 [a0 + 19] = 0\n 95651: u8 [a0 + 18] = 0\n 95654: u8 [a0 + 17] = 0\n 95657: u8 [a0 + 16] = 0\n 95660: u8 [a0 + 15] = 0\n 95663: u8 [a0 + 14] = 0\n 95666: u8 [a0 + 13] = 0\n 95669: u8 [a0 + 12] = 0\n 95672: u8 [a0 + 11] = 0\n 95675: u8 [a0 + 10] = 0\n 95678: u8 [a0 + 9] = 0\n 95681: u8 [a0 + 8] = 0\n 95684: u8 [a0 + 7] = 0\n 95687: u8 [a0 + 6] = 0\n 95690: u8 [a0 + 5] = 0\n 95693: u8 [a0 + 4] = 0\n 95696: u8 [a0 + 3] = 0xa0\n 95701: u8 [a0 + 2] = 0x79\n 95705: u8 [a0 + 1] = 0xc3\n 95710: u8 [a0 + 0] = 0x8\n 95713: a1 = u64 [s1 + 0x240]\n 95717: a0 = a1 + 0x4\n 95720: a1 = a0 <u a1\n 95723: a3 = u64 [s1 + 0x258]\n 95727: a2 = a3 + a1\n 95730: a3 = a2 <u a3\n 95733: a3 = a1 if a1 == 0\n 95736: a1 = u64 [s1 + 0x250]\n 95740: a3 = a3 + a1\n 95743: a1 = a3 <u a1\n 95746: a4 = u64 [s1 + 0x248]\n 95750: a4 = a4 + a1\n 95753: u64 [s1 + 0x2e8] = a2\n 95757: u64 [s1 + 0x2e0] = a0\n 95761: u64 [s1 + 0x2f0] = a3\n 95765: a0 = s1 + 0x300\n 95769: a1 = s1 + 0x2e0\n 95773: u64 [s1 + 0x2f8] = a4\n 95777: ra = 1062, jump @849\n      : @1177 [@dyn 531] (gas: 5)\n 95784: a0 = u64 [s1 + 0x308]\n 95788: t0 = u64 [s1 + 0x318]\n 95792: t1 = u64 [s1 + 0x300]\n 95796: a3 = u64 [s1 + 0x310]\n 95800: jump @1188\n      : @1178 (gas: 3)\n 95803: a0 = 0x40\n 95806: a1 = 0x20\n 95809: ra = 1064, jump @0\n      : @1179 [@dyn 532] (gas: 104)\n 95816: a1 = u8 [a0 + 0x11]\n 95819: a2 = u8 [a0 + 0x10]\n 95822: a3 = u8 [a0 + 0x12]\n 95825: a4 = u8 [a0 + 0x13]\n 95828: a1 = a1 << 0x8\n 95831: a1 = a1 | a2\n 95834: a3 = a3 << 0x10\n 95837: a4 = a4 << 0x18\n 95840: a3 = a3 | a4\n 95843: a1 = a1 | a3\n 95846: a2 = u8 [a0 + 0x15]\n 95849: a3 = u8 [a0 + 0x14]\n 95852: a4 = u8 [a0 + 0x16]\n 95855: a5 = u8 [a0 + 0x17]\n 95858: a2 = a2 << 0x8\n 95861: a2 = a2 | a3\n 95864: a4 = a4 << 0x10\n 95867: a5 = a5 << 0x18\n 95870: a4 = a4 | a5\n 95873: a2 = a2 | a4\n 95876: a2 = a2 << 0x20\n 95879: t0 = a2 | a1\n 95882: a2 = u8 [a0 + 0x1]\n 95885: a3 = u8 [a0]\n 95887: a4 = u8 [a0 + 0x2]\n 95890: a5 = u8 [a0 + 0x3]\n 95893: a2 = a2 << 0x8\n 95896: a2 = a2 | a3\n 95899: a4 = a4 << 0x10\n 95902: a5 = a5 << 0x18\n 95905: a4 = a4 | a5\n 95908: a2 = a2 | a4\n 95911: a3 = u8 [a0 + 0x5]\n 95914: a4 = u8 [a0 + 0x4]\n 95917: a5 = u8 [a0 + 0x6]\n 95920: a1 = u8 [a0 + 0x7]\n 95923: a3 = a3 << 0x8\n 95926: a3 = a3 | a4\n 95929: a5 = a5 << 0x10\n 95932: a1 = a1 << 0x18\n 95935: a1 = a1 | a5\n 95938: a1 = a1 | a3\n 95941: a1 = a1 << 0x20\n 95944: t1 = a1 | a2\n 95947: a1 = u8 [a0 + 0x19]\n 95950: a3 = u8 [a0 + 0x18]\n 95953: a4 = u8 [a0 + 0x1a]\n 95956: a5 = u8 [a0 + 0x1b]\n 95959: a1 = a1 << 0x8\n 95962: a1 = a1 | a3\n 95965: a4 = a4 << 0x10\n 95968: a5 = a5 << 0x18\n 95971: a4 = a4 | a5\n 95974: a1 = a1 | a4\n 95977: a3 = u8 [a0 + 0x1d]\n 95980: a4 = u8 [a0 + 0x1c]\n 95983: a5 = u8 [a0 + 0x1e]\n 95986: a2 = u8 [a0 + 0x1f]\n 95989: a3 = a3 << 0x8\n 95992: a3 = a3 | a4\n 95995: a5 = a5 << 0x10\n 95998: a2 = a2 << 0x18\n 96001: a2 = a2 | a5\n 96004: a2 = a2 | a3\n 96007: a2 = a2 << 0x20\n 96010: a3 = a2 | a1\n 96013: a1 = u8 [a0 + 0x9]\n 96016: a2 = u8 [a0 + 0x8]\n 96019: a4 = u8 [a0 + 0xa]\n 96022: a5 = u8 [a0 + 0xb]\n 96025: a1 = a1 << 0x8\n 96028: a1 = a1 | a2\n 96031: a4 = a4 << 0x10\n 96034: a5 = a5 << 0x18\n 96037: a4 = a4 | a5\n 96040: a1 = a1 | a4\n 96043: a2 = u8 [a0 + 0xd]\n 96046: a4 = u8 [a0 + 0xc]\n 96049: a5 = u8 [a0 + 0xe]\n 96052: a0 = u8 [a0 + 0xf]\n 96055: a2 = a2 << 0x8\n 96058: a2 = a2 | a4\n 96061: a5 = a5 << 0x10\n 96064: a0 = a0 << 0x18\n 96067: a0 = a0 | a5\n 96070: a0 = a0 | a2\n 96073: a0 = a0 << 0x20\n 96076: a0 = a0 | a1\n 96079: a4 = reverse a0\n 96081: a1 = reverse a3\n 96083: a2 = reverse t1\n 96085: a0 = reverse t0\n 96087: u64 [s1 + 0x258] = a0\n 96091: u64 [s1 + 0x248] = a2\n 96095: a0 = a0 | a2\n 96098: a2 = a1\n 96100: a1 = a1 | a4\n 96103: a1 = a1 | a0\n 96106: a1 = a1 >> 0x20\n 96109: u64 [s1 + 0x250] = a4\n 96113: a0 = a0 | a4\n 96116: a0 = a0 << 0x20\n 96119: a0 = a0 | a1\n 96122: jump @1189 if a0 != 0\n      : @1180 (gas: 5)\n 96126: u64 [s1 + 0x240] = a2\n 96130: i32 a0 = a2 + 0\n 96132: a1 = 0x20\n 96135: u64 [s1 + 0x238] = a0\n 96139: ra = 1066, jump @0\n      : @1181 [@dyn 533] (gas: 51)\n 96146: u8 [a0 + 31] = 0\n 96149: u8 [a0 + 30] = 0\n 96152: u8 [a0 + 29] = 0\n 96155: u8 [a0 + 28] = 0\n 96158: u8 [a0 + 27] = 0\n 96161: u8 [a0 + 26] = 0\n 96164: u8 [a0 + 25] = 0\n 96167: u8 [a0 + 24] = 0\n 96170: u8 [a0 + 23] = 0\n 96173: u8 [a0 + 22] = 0\n 96176: u8 [a0 + 21] = 0\n 96179: u8 [a0 + 20] = 0\n 96182: u8 [a0 + 19] = 0\n 96185: u8 [a0 + 18] = 0\n 96188: u8 [a0 + 17] = 0\n 96191: u8 [a0 + 16] = 0\n 96194: u8 [a0 + 15] = 0\n 96197: u8 [a0 + 14] = 0\n 96200: u8 [a0 + 13] = 0\n 96203: u8 [a0 + 12] = 0\n 96206: u8 [a0 + 11] = 0\n 96209: u8 [a0 + 10] = 0\n 96212: u8 [a0 + 9] = 0\n 96215: u8 [a0 + 8] = 0\n 96218: u8 [a0 + 7] = 0\n 96221: u8 [a0 + 6] = 0\n 96224: u8 [a0 + 5] = 0\n 96227: u8 [a0 + 4] = 0\n 96230: u8 [a0 + 3] = 0xa0\n 96235: u8 [a0 + 2] = 0x79\n 96239: u8 [a0 + 1] = 0xc3\n 96244: u8 [a0 + 0] = 0x8\n 96247: a1 = u64 [s1 + 0x240]\n 96251: a0 = a1 + 0x4\n 96254: a1 = a0 <u a1\n 96257: a3 = u64 [s1 + 0x258]\n 96261: a2 = a3 + a1\n 96264: a3 = a2 <u a3\n 96267: a3 = a1 if a1 == 0\n 96270: a1 = u64 [s1 + 0x250]\n 96274: a3 = a3 + a1\n 96277: a1 = a3 <u a1\n 96280: a4 = u64 [s1 + 0x248]\n 96284: a4 = a4 + a1\n 96287: u64 [s1 + 0x328] = a2\n 96291: u64 [s1 + 0x320] = a0\n 96295: u64 [s1 + 0x330] = a3\n 96299: a0 = s1 + 0x340\n 96303: a1 = s1 + 0x320\n 96307: u64 [s1 + 0x338] = a4\n 96311: ra = 1068, jump @857\n      : @1182 [@dyn 534] (gas: 5)\n 96318: a0 = u64 [s1 + 0x348]\n 96322: t0 = u64 [s1 + 0x358]\n 96326: t1 = u64 [s1 + 0x340]\n 96330: a3 = u64 [s1 + 0x350]\n 96334: jump @1188\n      : @1183 (gas: 3)\n 96337: a0 = 0x40\n 96340: a1 = 0x20\n 96343: ra = 1070, jump @0\n      : @1184 [@dyn 535] (gas: 104)\n 96350: a1 = u8 [a0 + 0x11]\n 96353: a2 = u8 [a0 + 0x10]\n 96356: a3 = u8 [a0 + 0x12]\n 96359: a4 = u8 [a0 + 0x13]\n 96362: a1 = a1 << 0x8\n 96365: a1 = a1 | a2\n 96368: a3 = a3 << 0x10\n 96371: a4 = a4 << 0x18\n 96374: a3 = a3 | a4\n 96377: a1 = a1 | a3\n 96380: a2 = u8 [a0 + 0x15]\n 96383: a3 = u8 [a0 + 0x14]\n 96386: a4 = u8 [a0 + 0x16]\n 96389: a5 = u8 [a0 + 0x17]\n 96392: a2 = a2 << 0x8\n 96395: a2 = a2 | a3\n 96398: a4 = a4 << 0x10\n 96401: a5 = a5 << 0x18\n 96404: a4 = a4 | a5\n 96407: a2 = a2 | a4\n 96410: a2 = a2 << 0x20\n 96413: t0 = a2 | a1\n 96416: a2 = u8 [a0 + 0x1]\n 96419: a3 = u8 [a0]\n 96421: a4 = u8 [a0 + 0x2]\n 96424: a5 = u8 [a0 + 0x3]\n 96427: a2 = a2 << 0x8\n 96430: a2 = a2 | a3\n 96433: a4 = a4 << 0x10\n 96436: a5 = a5 << 0x18\n 96439: a4 = a4 | a5\n 96442: a2 = a2 | a4\n 96445: a3 = u8 [a0 + 0x5]\n 96448: a4 = u8 [a0 + 0x4]\n 96451: a5 = u8 [a0 + 0x6]\n 96454: a1 = u8 [a0 + 0x7]\n 96457: a3 = a3 << 0x8\n 96460: a3 = a3 | a4\n 96463: a5 = a5 << 0x10\n 96466: a1 = a1 << 0x18\n 96469: a1 = a1 | a5\n 96472: a1 = a1 | a3\n 96475: a1 = a1 << 0x20\n 96478: t1 = a1 | a2\n 96481: a1 = u8 [a0 + 0x19]\n 96484: a3 = u8 [a0 + 0x18]\n 96487: a4 = u8 [a0 + 0x1a]\n 96490: a5 = u8 [a0 + 0x1b]\n 96493: a1 = a1 << 0x8\n 96496: a1 = a1 | a3\n 96499: a4 = a4 << 0x10\n 96502: a5 = a5 << 0x18\n 96505: a4 = a4 | a5\n 96508: a1 = a1 | a4\n 96511: a3 = u8 [a0 + 0x1d]\n 96514: a4 = u8 [a0 + 0x1c]\n 96517: a5 = u8 [a0 + 0x1e]\n 96520: a2 = u8 [a0 + 0x1f]\n 96523: a3 = a3 << 0x8\n 96526: a3 = a3 | a4\n 96529: a5 = a5 << 0x10\n 96532: a2 = a2 << 0x18\n 96535: a2 = a2 | a5\n 96538: a2 = a2 | a3\n 96541: a2 = a2 << 0x20\n 96544: a3 = a2 | a1\n 96547: a1 = u8 [a0 + 0x9]\n 96550: a2 = u8 [a0 + 0x8]\n 96553: a4 = u8 [a0 + 0xa]\n 96556: a5 = u8 [a0 + 0xb]\n 96559: a1 = a1 << 0x8\n 96562: a1 = a1 | a2\n 96565: a4 = a4 << 0x10\n 96568: a5 = a5 << 0x18\n 96571: a4 = a4 | a5\n 96574: a1 = a1 | a4\n 96577: a2 = u8 [a0 + 0xd]\n 96580: a4 = u8 [a0 + 0xc]\n 96583: a5 = u8 [a0 + 0xe]\n 96586: a0 = u8 [a0 + 0xf]\n 96589: a2 = a2 << 0x8\n 96592: a2 = a2 | a4\n 96595: a5 = a5 << 0x10\n 96598: a0 = a0 << 0x18\n 96601: a0 = a0 | a5\n 96604: a0 = a0 | a2\n 96607: a0 = a0 << 0x20\n 96610: a0 = a0 | a1\n 96613: a4 = reverse a0\n 96615: a1 = reverse a3\n 96617: a2 = reverse t1\n 96619: a0 = reverse t0\n 96621: u64 [s1 + 0x258] = a0\n 96625: u64 [s1 + 0x248] = a2\n 96629: a0 = a0 | a2\n 96632: a2 = a1\n 96634: a1 = a1 | a4\n 96637: a1 = a1 | a0\n 96640: a1 = a1 >> 0x20\n 96643: u64 [s1 + 0x250] = a4\n 96647: a0 = a0 | a4\n 96650: a0 = a0 << 0x20\n 96653: a0 = a0 | a1\n 96656: jump @1189 if a0 != 0\n      : @1185 (gas: 5)\n 96660: u64 [s1 + 0x240] = a2\n 96664: i32 a0 = a2 + 0\n 96666: a1 = 0x20\n 96669: u64 [s1 + 0x238] = a0\n 96673: ra = 1072, jump @0\n      : @1186 [@dyn 536] (gas: 51)\n 96680: u8 [a0 + 31] = 0\n 96683: u8 [a0 + 30] = 0\n 96686: u8 [a0 + 29] = 0\n 96689: u8 [a0 + 28] = 0\n 96692: u8 [a0 + 27] = 0\n 96695: u8 [a0 + 26] = 0\n 96698: u8 [a0 + 25] = 0\n 96701: u8 [a0 + 24] = 0\n 96704: u8 [a0 + 23] = 0\n 96707: u8 [a0 + 22] = 0\n 96710: u8 [a0 + 21] = 0\n 96713: u8 [a0 + 20] = 0\n 96716: u8 [a0 + 19] = 0\n 96719: u8 [a0 + 18] = 0\n 96722: u8 [a0 + 17] = 0\n 96725: u8 [a0 + 16] = 0\n 96728: u8 [a0 + 15] = 0\n 96731: u8 [a0 + 14] = 0\n 96734: u8 [a0 + 13] = 0\n 96737: u8 [a0 + 12] = 0\n 96740: u8 [a0 + 11] = 0\n 96743: u8 [a0 + 10] = 0\n 96746: u8 [a0 + 9] = 0\n 96749: u8 [a0 + 8] = 0\n 96752: u8 [a0 + 7] = 0\n 96755: u8 [a0 + 6] = 0\n 96758: u8 [a0 + 5] = 0\n 96761: u8 [a0 + 4] = 0\n 96764: u8 [a0 + 3] = 0xa0\n 96769: u8 [a0 + 2] = 0x79\n 96773: u8 [a0 + 1] = 0xc3\n 96778: u8 [a0 + 0] = 0x8\n 96781: a1 = u64 [s1 + 0x240]\n 96785: a0 = a1 + 0x4\n 96788: a1 = a0 <u a1\n 96791: a3 = u64 [s1 + 0x258]\n 96795: a2 = a3 + a1\n 96798: a3 = a2 <u a3\n 96801: a3 = a1 if a1 == 0\n 96804: a1 = u64 [s1 + 0x250]\n 96808: a3 = a3 + a1\n 96811: a1 = a3 <u a1\n 96814: a4 = u64 [s1 + 0x248]\n 96818: a4 = a4 + a1\n 96821: u64 [s1 + 0x5c8] = a2\n 96825: u64 [s1 + 0x5c0] = a0\n 96829: u64 [s1 + 0x5d0] = a3\n 96833: a0 = s1 + 0x5e0\n 96837: a1 = s1 + 0x5c0\n 96841: u64 [s1 + 0x5d8] = a4\n 96845: ra = 1074, jump @1035\n      : @1187 [@dyn 537] (gas: 5)\n 96851: a0 = u64 [s1 + 0x5e8]\n 96855: t0 = u64 [s1 + 0x5f8]\n 96859: t1 = u64 [s1 + 0x5e0]\n 96863: a3 = u64 [s1 + 0x5f0]\n 96867: fallthrough\n      : @1188 (gas: 27)\n 96868: a1 = u64 [s1 + 0x258]\n 96872: a4 = a0 ^ a1\n 96875: a5 = a0 <u a1\n 96878: ra = a1\n 96880: t2 = u64 [s1 + 0x240]\n 96884: a1 = t1 <u t2\n 96887: a5 = a1 if a4 == 0\n 96890: a2 = u64 [s1 + 0x250]\n 96894: a4 = a3 - a2\n 96897: a3 = a3 <u a2\n 96900: a2 = u64 [s1 + 0x248]\n 96904: a2 = t0 - a2\n 96907: a2 = a2 - a3\n 96910: a3 = a4 <u a5\n 96913: a2 = a2 - a3\n 96916: a4 = a4 - a5\n 96919: a0 = a0 - ra\n 96922: a1 = a0 - a1\n 96925: a0 = t1 - t2\n 96928: a1 = a1 | a2\n 96931: a2 = a0 | a4\n 96934: a2 = a2 | a1\n 96937: a1 = a1 | a4\n 96940: a2 = a2 >> 0x20\n 96943: a1 = a1 << 0x20\n 96946: a1 = a1 | a2\n 96949: jump @1190 if a1 == 0\n      : @1189 (gas: 1)\n 96952: trap\n      : @1190 (gas: 4)\n 96953: i32 a1 = a0 + 0\n 96955: u64 [s1 + 0x258] = a1\n 96959: a0 = u64 [s1 + 0x238]\n 96963: ra = 1076, jump @0\n      : @1191 [@dyn 538] (gas: 6)\n 96970: i32 a1 = a0 + 0\n 96972: a0 = 0x1\n 96975: a2 = u64 [s1 + 0x258]\n 96979: ra = 0x436\n 96983: ecalli 13 // 'seal_return'\n 96985: fallthrough\n      : @1192 [@dyn 539] (gas: 32)\n 96986: sp = sp + 0xfffffffffffffea0\n 96990: u64 [sp + 0x158] = ra\n 96994: u64 [sp + 0x150] = s0\n 96998: u64 [sp + 0x148] = s1\n 97002: s0 = sp + 0x160\n 97006: sp = sp & 0xffffffffffffffe0\n 97009: u64 [sp + 0x38] = a0\n 97012: a0 = u64 [a2 + 0x18]\n 97015: u64 [sp + 0x18] = a0\n 97018: a0 = u64 [a2 + 0x10]\n 97021: u64 [sp + 0x20] = a0\n 97024: a0 = u64 [a2 + 0x8]\n 97027: u64 [sp + 0x28] = a0\n 97030: a0 = u64 [a2]\n 97032: u64 [sp + 0x30] = a0\n 97035: u64 [sp + 280] = 0\n 97039: u64 [sp + 272] = 0\n 97043: u64 [sp + 264] = 0\n 97047: s1 = 0x5\n 97050: u64 [sp + 0x100] = s1\n 97054: u64 [sp + 312] = 0\n 97058: u64 [sp + 304] = 0\n 97062: u64 [sp + 296] = 0\n 97066: u64 [sp + 288] = 0\n 97070: u32 [sp + 224] = 0x20\n 97075: i32 a1 = sp + 0x100\n 97079: i32 a3 = sp + 0x120\n 97083: i32 a4 = sp + 0xe0\n 97087: a2 = 0xffffffffffffffff\n 97090: a0 = 0\n 97092: ecalli 7 // 'get_storage'\n 97094: fallthrough\n      : @1193 (gas: 9)\n 97095: a0 = u64 [sp + 0x138]\n 97099: a1 = u64 [sp + 0x128]\n 97103: a2 = u64 [sp + 0x120]\n 97107: a3 = u64 [sp + 0x130]\n 97111: a0 = a0 | a1\n 97114: a1 = a2 ^ 0x1\n 97117: a1 = a1 | a3\n 97120: a0 = a0 | a1\n 97123: jump @1196 if a0 != 0\n      : @1194 (gas: 60)\n 97127: u64 [sp + 280] = 0\n 97131: u64 [sp + 272] = 0\n 97135: u64 [sp + 264] = 0\n 97139: u64 [sp + 256] = 0x5\n 97144: u64 [sp + 312] = 0\n 97148: u64 [sp + 304] = 0\n 97152: u64 [sp + 296] = 0\n 97156: u64 [sp + 288] = 0\n 97160: u32 [sp + 224] = 0x20\n 97165: i32 a1 = sp + 0x100\n 97169: i32 a3 = sp + 0x120\n 97173: i32 a4 = sp + 0xe0\n 97177: a2 = 0xffffffffffffffff\n 97180: a0 = 0\n 97182: ecalli 7 // 'get_storage'\n 97184: u64 [sp + 280] = 0\n 97188: u64 [sp + 272] = 0\n 97192: u64 [sp + 264] = 0\n 97196: u64 [sp + 256] = 0x5\n 97201: u64 [sp + 312] = 0\n 97205: u64 [sp + 304] = 0\n 97209: u64 [sp + 296] = 0\n 97213: u64 [sp + 288] = 0x2\n 97218: i32 a1 = sp + 0x100\n 97222: i32 a3 = sp + 0x120\n 97226: a2 = 0xffffffffffffffff\n 97229: a4 = 0x20\n 97232: a0 = 0\n 97234: ecalli 15 // 'set_storage'\n 97236: a0 = u64 [sp + 0x18]\n 97239: u64 [sp + 0x58] = a0\n 97242: a0 = u64 [sp + 0x20]\n 97245: u64 [sp + 0x50] = a0\n 97248: a0 = u64 [sp + 0x28]\n 97251: u64 [sp + 0x48] = a0\n 97254: a0 = sp + 0x80\n 97258: a2 = sp + 0x40\n 97261: a3 = u64 [sp + 0x30]\n 97264: u64 [sp + 0x40] = a3\n 97267: ra = 0x438\n 97271: sp = sp + 0xfffffffffffffc00\n 97275: u64 [sp + 0x3f8] = ra\n 97279: u64 [sp + 0x3f0] = s0\n 97283: u64 [sp + 1000] = 0x5\n 97288: s0 = sp + 0x400\n 97292: sp = sp & 0xffffffffffffffe0\n 97295: s1 = sp\n 97297: a1 = u64 [a2]\n 97299: u64 [s1 + 0x198] = a1\n 97303: a1 = u64 [a2 + 0x8]\n 97306: u64 [s1 + 0x190] = a1\n 97310: a1 = u64 [a2 + 0x10]\n 97313: u64 [s1 + 0x188] = a1\n 97317: a1 = u64 [a2 + 0x18]\n 97320: u64 [s1 + 0x180] = a1\n 97324: u64 [s1 + 0x18] = a0\n 97327: a1 = 0x20\n 97330: a0 = 0\n 97332: ra = 0x45c\n 97336: jump @0\n      : @1195 [@dyn 540] (gas: 52)\n 97340: a0 = u64 [sp + 0x80]\n 97344: u64 [sp + 0x30] = a0\n 97347: a0 = u64 [sp + 0x88]\n 97351: u64 [sp + 0x28] = a0\n 97354: a0 = u64 [sp + 0x90]\n 97358: u64 [sp + 0x20] = a0\n 97361: a0 = u64 [sp + 0x98]\n 97365: u64 [sp + 0x18] = a0\n 97368: u64 [sp + 280] = 0\n 97372: u64 [sp + 272] = 0\n 97376: u64 [sp + 264] = 0\n 97380: u64 [sp + 256] = 0x5\n 97385: u64 [sp + 312] = 0\n 97389: u64 [sp + 304] = 0\n 97393: u64 [sp + 296] = 0\n 97397: u64 [sp + 288] = 0\n 97401: u32 [sp + 224] = 0x20\n 97406: i32 a1 = sp + 0x100\n 97410: i32 a3 = sp + 0x120\n 97414: i32 a4 = sp + 0xe0\n 97418: a2 = 0xffffffffffffffff\n 97421: a0 = 0\n 97423: ecalli 7 // 'get_storage'\n 97425: u64 [sp + 280] = 0\n 97429: u64 [sp + 272] = 0\n 97433: u64 [sp + 264] = 0\n 97437: u64 [sp + 256] = 0x5\n 97442: u64 [sp + 312] = 0\n 97446: u64 [sp + 304] = 0\n 97450: u64 [sp + 296] = 0\n 97454: u64 [sp + 288] = 0x1\n 97459: i32 a1 = sp + 0x100\n 97463: i32 a3 = sp + 0x120\n 97467: a2 = 0xffffffffffffffff\n 97470: a4 = 0x20\n 97473: a0 = 0\n 97475: ecalli 15 // 'set_storage'\n 97477: a0 = u64 [sp + 0x38]\n 97480: a1 = u64 [sp + 0x18]\n 97483: u64 [a0 + 0x18] = a1\n 97486: a1 = u64 [sp + 0x20]\n 97489: u64 [a0 + 0x10] = a1\n 97492: a1 = u64 [sp + 0x28]\n 97495: u64 [a0 + 0x8] = a1\n 97498: a1 = u64 [sp + 0x30]\n 97501: u64 [a0] = a1\n 97503: sp = s0 + 0xfffffffffffffea0\n 97507: ra = u64 [sp + 0x158]\n 97511: s0 = u64 [sp + 0x150]\n 97515: s1 = u64 [sp + 0x148]\n 97519: sp = sp + 0x160\n 97523: ret\n      : @1196 (gas: 3)\n 97525: a0 = 0x40\n 97528: a1 = 0x20\n 97531: ra = 1082, jump @0\n      : @1197 [@dyn 541] (gas: 103)\n 97538: a1 = u8 [a0 + 0x11]\n 97541: a2 = u8 [a0 + 0x10]\n 97544: a3 = u8 [a0 + 0x12]\n 97547: a4 = u8 [a0 + 0x13]\n 97550: a1 = a1 << 0x8\n 97553: a1 = a1 | a2\n 97556: a3 = a3 << 0x10\n 97559: a4 = a4 << 0x18\n 97562: a3 = a3 | a4\n 97565: a1 = a1 | a3\n 97568: a2 = u8 [a0 + 0x15]\n 97571: a3 = u8 [a0 + 0x14]\n 97574: a4 = u8 [a0 + 0x16]\n 97577: a5 = u8 [a0 + 0x17]\n 97580: a2 = a2 << 0x8\n 97583: a2 = a2 | a3\n 97586: a4 = a4 << 0x10\n 97589: a5 = a5 << 0x18\n 97592: a4 = a4 | a5\n 97595: a2 = a2 | a4\n 97598: a2 = a2 << 0x20\n 97601: t0 = a2 | a1\n 97604: a2 = u8 [a0 + 0x1]\n 97607: a3 = u8 [a0]\n 97609: a4 = u8 [a0 + 0x2]\n 97612: a5 = u8 [a0 + 0x3]\n 97615: a2 = a2 << 0x8\n 97618: a2 = a2 | a3\n 97621: a4 = a4 << 0x10\n 97624: a5 = a5 << 0x18\n 97627: a4 = a4 | a5\n 97630: a2 = a2 | a4\n 97633: a3 = u8 [a0 + 0x5]\n 97636: a4 = u8 [a0 + 0x4]\n 97639: a5 = u8 [a0 + 0x6]\n 97642: s1 = u8 [a0 + 0x7]\n 97645: a3 = a3 << 0x8\n 97648: a3 = a3 | a4\n 97651: a5 = a5 << 0x10\n 97654: s1 = s1 << 0x18\n 97657: a5 = a5 | s1\n 97660: a3 = a3 | a5\n 97663: a3 = a3 << 0x20\n 97666: a2 = a2 | a3\n 97669: a3 = u8 [a0 + 0x19]\n 97672: a4 = u8 [a0 + 0x18]\n 97675: a5 = u8 [a0 + 0x1a]\n 97678: s1 = u8 [a0 + 0x1b]\n 97681: a3 = a3 << 0x8\n 97684: a3 = a3 | a4\n 97687: a5 = a5 << 0x10\n 97690: s1 = s1 << 0x18\n 97693: a5 = a5 | s1\n 97696: a3 = a3 | a5\n 97699: a4 = u8 [a0 + 0x1d]\n 97702: a5 = u8 [a0 + 0x1c]\n 97705: s1 = u8 [a0 + 0x1e]\n 97708: a1 = u8 [a0 + 0x1f]\n 97711: a4 = a4 << 0x8\n 97714: a4 = a4 | a5\n 97717: s1 = s1 << 0x10\n 97720: a1 = a1 << 0x18\n 97723: a1 = a1 | s1\n 97726: a1 = a1 | a4\n 97729: a1 = a1 << 0x20\n 97732: a3 = a3 | a1\n 97735: a1 = u8 [a0 + 0x9]\n 97738: a4 = u8 [a0 + 0x8]\n 97741: a5 = u8 [a0 + 0xa]\n 97744: s1 = u8 [a0 + 0xb]\n 97747: a1 = a1 << 0x8\n 97750: a1 = a1 | a4\n 97753: a5 = a5 << 0x10\n 97756: s1 = s1 << 0x18\n 97759: a5 = a5 | s1\n 97762: a1 = a1 | a5\n 97765: a4 = u8 [a0 + 0xd]\n 97768: a5 = u8 [a0 + 0xc]\n 97771: s1 = u8 [a0 + 0xe]\n 97774: a0 = u8 [a0 + 0xf]\n 97777: a4 = a4 << 0x8\n 97780: a4 = a4 | a5\n 97783: s1 = s1 << 0x10\n 97786: a0 = a0 << 0x18\n 97789: a0 = a0 | s1\n 97792: a0 = a0 | a4\n 97795: a0 = a0 << 0x20\n 97798: a0 = a0 | a1\n 97801: s1 = reverse a0\n 97803: a1 = reverse a3\n 97805: a2 = reverse a2\n 97807: a0 = reverse t0\n 97809: u64 [sp + 0x38] = a0\n 97812: u64 [sp + 0x30] = a2\n 97815: a0 = a0 | a2\n 97818: a2 = a1\n 97820: a1 = a1 | s1\n 97823: a1 = a1 | a0\n 97826: a1 = a1 >> 0x20\n 97829: a0 = a0 | s1\n 97832: a0 = a0 << 0x20\n 97835: a0 = a0 | a1\n 97838: jump @1201 if a0 != 0\n      : @1198 (gas: 5)\n 97842: u64 [sp + 0x28] = a2\n 97845: i32 a0 = a2 + 0\n 97847: a1 = 0x20\n 97850: u64 [sp + 0x20] = a0\n 97853: ra = 1084, jump @0\n      : @1199 [@dyn 542] (gas: 50)\n 97860: u8 [a0 + 31] = 0\n 97863: u8 [a0 + 30] = 0\n 97866: u8 [a0 + 29] = 0\n 97869: u8 [a0 + 28] = 0\n 97872: u8 [a0 + 27] = 0\n 97875: u8 [a0 + 26] = 0\n 97878: u8 [a0 + 25] = 0\n 97881: u8 [a0 + 24] = 0\n 97884: u8 [a0 + 23] = 0\n 97887: u8 [a0 + 22] = 0\n 97890: u8 [a0 + 21] = 0\n 97893: u8 [a0 + 20] = 0\n 97896: u8 [a0 + 19] = 0\n 97899: u8 [a0 + 18] = 0\n 97902: u8 [a0 + 17] = 0\n 97905: u8 [a0 + 16] = 0\n 97908: u8 [a0 + 15] = 0\n 97911: u8 [a0 + 14] = 0\n 97914: u8 [a0 + 13] = 0\n 97917: u8 [a0 + 12] = 0\n 97920: u8 [a0 + 11] = 0\n 97923: u8 [a0 + 10] = 0\n 97926: u8 [a0 + 9] = 0\n 97929: u8 [a0 + 8] = 0\n 97932: u8 [a0 + 7] = 0\n 97935: u8 [a0 + 6] = 0\n 97938: u8 [a0 + 5] = 0\n 97941: u8 [a0 + 4] = 0\n 97944: u8 [a0 + 3] = 0xa0\n 97949: u8 [a0 + 2] = 0x79\n 97953: u8 [a0 + 1] = 0xc3\n 97958: u8 [a0 + 0] = 0x8\n 97961: a1 = u64 [sp + 0x28]\n 97964: a0 = a1 + 0x4\n 97967: a1 = a0 <u a1\n 97970: a3 = u64 [sp + 0x38]\n 97973: a2 = a3 + a1\n 97976: a3 = a2 <u a3\n 97979: a3 = a1 if a1 == 0\n 97982: a3 = a3 + s1\n 97985: a1 = a3 <u s1\n 97988: a4 = u64 [sp + 0x30]\n 97991: a4 = a4 + a1\n 97994: u64 [sp + 0xa8] = a2\n 97998: u64 [sp + 0xa0] = a0\n 98002: u64 [sp + 0xb0] = a3\n 98006: a0 = sp + 0xc0\n 98010: a1 = sp + 0xa0\n 98014: u64 [sp + 0xb8] = a4\n 98018: ra = 1086, jump @580\n      : @1200 [@dyn 543] (gas: 30)\n 98025: a0 = u64 [sp + 0xc8]\n 98029: t0 = u64 [sp + 0xd8]\n 98033: t1 = u64 [sp + 0xc0]\n 98037: a3 = u64 [sp + 0xd0]\n 98041: a1 = u64 [sp + 0x38]\n 98044: a4 = a0 ^ a1\n 98047: a5 = a0 <u a1\n 98050: t2 = a1\n 98052: a2 = u64 [sp + 0x28]\n 98055: a1 = t1 <u a2\n 98058: a5 = a1 if a4 == 0\n 98061: a4 = a3 - s1\n 98064: a3 = a3 <u s1\n 98067: s1 = u64 [sp + 0x30]\n 98070: s1 = t0 - s1\n 98073: s1 = s1 - a3\n 98076: a3 = a4 <u a5\n 98079: s1 = s1 - a3\n 98082: a4 = a4 - a5\n 98085: a0 = a0 - t2\n 98088: a1 = a0 - a1\n 98091: a0 = t1 - a2\n 98094: a1 = a1 | s1\n 98097: a2 = a0 | a4\n 98100: a2 = a2 | a1\n 98103: a1 = a1 | a4\n 98106: a2 = a2 >> 0x20\n 98109: a1 = a1 << 0x20\n 98112: a1 = a1 | a2\n 98115: jump @1202 if a1 == 0\n      : @1201 (gas: 1)\n 98118: trap\n      : @1202 (gas: 4)\n 98119: i32 s1 = a0 + 0\n 98121: a0 = u64 [sp + 0x20]\n 98124: a1 = s1\n 98126: ra = 1088, jump @0\n      : @1203 [@dyn 544] (gas: 6)\n 98133: i32 a1 = a0 + 0\n 98135: a0 = 0x1\n 98138: a2 = s1\n 98140: ra = 0x442\n 98144: ecalli 13 // 'seal_return'\n 98146: fallthrough\n      : @1204 [@dyn 545] (gas: 12)\n 98147: a1 = u64 [a0 + 0x10]\n 98150: a2 = u64 [a0 + 0x18]\n 98153: a3 = u64 [a0 + 0x8]\n 98156: a0 = u64 [a0]\n 98158: a2 = a2 | a3\n 98161: a3 = a0 | a1\n 98164: a3 = a3 | a2\n 98167: a3 = a3 >> 0x20\n 98170: a1 = a1 | a2\n 98173: a1 = a1 << 0x20\n 98176: a1 = a1 | a3\n 98179: jump @1207 if a1 != 0\n      : @1205 (gas: 7)\n 98183: sp = sp + 0xfffffffffffffff0\n 98186: u64 [sp + 0x8] = ra\n 98189: u64 [sp] = s0\n 98191: i32 a0 = a0 + 0\n 98193: a1 = 0x20\n 98196: s0 = 0x20\n 98199: ra = 1092, jump @0\n      : @1206 [@dyn 546] (gas: 41)\n 98206: u8 [a0 + 31] = 0\n 98209: u8 [a0 + 30] = 0\n 98212: u8 [a0 + 29] = 0x74\n 98216: u8 [a0 + 28] = 0x73\n 98220: u8 [a0 + 27] = 0x69\n 98224: u8 [a0 + 26] = 0x78\n 98228: u8 [a0 + 25] = 0x65\n 98232: u8 [a0 + 0x18] = s0\n 98235: u8 [a0 + 23] = 0x74\n 98239: a2 = 0x6f\n 98242: u8 [a0 + 0x16] = a2\n 98245: u8 [a0 + 21] = 0x6e\n 98249: u8 [a0 + 0x14] = s0\n 98252: u8 [a0 + 19] = 0x73\n 98256: u8 [a0 + 18] = 0x65\n 98260: u8 [a0 + 0x11] = a2\n 98263: u8 [a0 + 16] = 0x64\n 98267: u8 [a0 + 0xf] = s0\n 98270: u8 [a0 + 14] = 0x65\n 98274: a5 = 0x63\n 98277: u8 [a0 + 0xd] = a5\n 98280: u8 [a0 + 12] = 0x69\n 98284: u8 [a0 + 11] = 0x76\n 98288: a3 = 0x72\n 98291: u8 [a0 + 0xa] = a3\n 98294: u8 [a0 + 9] = 0x65\n 98298: u8 [a0 + 8] = 0x73\n 98302: u8 [a0 + 0x7] = s0\n 98305: u8 [a0 + 6] = 0x3a\n 98309: a4 = 0x77\n 98312: u8 [a0 + 0x5] = a4\n 98315: u8 [a0 + 0x4] = a2\n 98318: u8 [a0 + 0x3] = a3\n 98321: u8 [a0 + 0x2] = a5\n 98324: u8 [a0 + 1] = 0x73\n 98328: a1 = 0x45\n 98331: u8 [a0] = a1\n 98333: ra = u64 [sp + 0x8]\n 98336: s0 = u64 [sp]\n 98338: sp = sp + 0x10\n 98341: ret\n      : @1207 (gas: 1)\n 98343: trap\n      : @1208 (gas: 17)\n 98344: sp = sp + 0xffffffffffffffa0\n 98347: u64 [sp + 0x58] = ra\n 98350: u64 [sp + 0x50] = s0\n 98353: u64 [sp + 0x48] = s1\n 98356: a3 = u64 [a1 + 0x18]\n 98359: a4 = u64 [a1 + 0x10]\n 98362: a5 = u64 [a1 + 0x8]\n 98365: s1 = u64 [a1]\n 98367: a1 = a5 | a3\n 98370: a2 = s1 | a4\n 98373: a2 = a2 | a1\n 98376: a2 = a2 >> 0x20\n 98379: a1 = a1 | a4\n 98382: a1 = a1 << 0x20\n 98385: a1 = a1 | a2\n 98388: u64 [sp + 0x28] = a0\n 98391: jump @1215 if a1 != 0\n      : @1209 (gas: 19)\n 98395: a0 = s1 + 0x20\n 98398: u64 [sp + 0x30] = a0\n 98401: a0 = a0 <u s1\n 98404: a1 = a5 + a0\n 98407: u64 [sp + 0x40] = a1\n 98410: u64 [sp + 0x8] = a5\n 98413: s0 = a1 <u a5\n 98416: s0 = a0 if a0 == 0\n 98419: s0 = s0 + a4\n 98422: u64 [sp + 0x10] = a4\n 98425: a0 = s0 <u a4\n 98428: u64 [sp + 0x18] = a3\n 98431: a0 = a0 + a3\n 98434: u64 [sp + 0x38] = a0\n 98437: u64 [sp] = s1\n 98439: i32 a0 = s1 + 0\n 98441: a1 = 0x20\n 98444: s1 = 0x20\n 98447: ra = 1094, jump @0\n      : @1210 [@dyn 547] (gas: 45)\n 98454: u8 [a0 + 0x1f] = s1\n 98457: a1 = u64 [sp + 0x30]\n 98460: s1 = a1\n 98462: a1 = a1 | s0\n 98465: a2 = u64 [sp + 0x40]\n 98468: a4 = u64 [sp + 0x38]\n 98471: a2 = a2 | a4\n 98474: a1 = a1 | a2\n 98477: a1 = a1 >> 0x20\n 98480: u64 [sp + 0x20] = s0\n 98483: a2 = a2 | s0\n 98486: a2 = a2 << 0x20\n 98489: a1 = a1 | a2\n 98492: u8 [a0 + 30] = 0\n 98495: u8 [a0 + 29] = 0\n 98498: u8 [a0 + 28] = 0\n 98501: u8 [a0 + 27] = 0\n 98504: u8 [a0 + 26] = 0\n 98507: u8 [a0 + 25] = 0\n 98510: u8 [a0 + 24] = 0\n 98513: u8 [a0 + 23] = 0\n 98516: u8 [a0 + 22] = 0\n 98519: u8 [a0 + 21] = 0\n 98522: u8 [a0 + 20] = 0\n 98525: u8 [a0 + 19] = 0\n 98528: u8 [a0 + 18] = 0\n 98531: u8 [a0 + 17] = 0\n 98534: u8 [a0 + 16] = 0\n 98537: u8 [a0 + 15] = 0\n 98540: u8 [a0 + 14] = 0\n 98543: u8 [a0 + 13] = 0\n 98546: u8 [a0 + 12] = 0\n 98549: u8 [a0 + 11] = 0\n 98552: u8 [a0 + 10] = 0\n 98555: u8 [a0 + 9] = 0\n 98558: u8 [a0 + 8] = 0\n 98561: u8 [a0 + 7] = 0\n 98564: u8 [a0 + 6] = 0\n 98567: u8 [a0 + 5] = 0\n 98570: u8 [a0 + 4] = 0\n 98573: u8 [a0 + 3] = 0\n 98576: u8 [a0 + 2] = 0\n 98579: u8 [a0 + 1] = 0\n 98582: u8 [a0 + 0] = 0\n 98584: jump @1215 if a1 != 0\n      : @1211 (gas: 4)\n 98588: i32 s0 = s1 + 0\n 98590: a1 = 0x20\n 98593: a0 = s0\n 98595: ra = 1096, jump @0\n      : @1212 [@dyn 548] (gas: 41)\n 98602: u8 [a0 + 31] = 0x1e\n 98606: u8 [a0 + 30] = 0\n 98609: u8 [a0 + 29] = 0\n 98612: u8 [a0 + 28] = 0\n 98615: u8 [a0 + 27] = 0\n 98618: u8 [a0 + 26] = 0\n 98621: u8 [a0 + 25] = 0\n 98624: u8 [a0 + 24] = 0\n 98627: u8 [a0 + 23] = 0\n 98630: u8 [a0 + 22] = 0\n 98633: u8 [a0 + 21] = 0\n 98636: u8 [a0 + 20] = 0\n 98639: u8 [a0 + 19] = 0\n 98642: u8 [a0 + 18] = 0\n 98645: u8 [a0 + 17] = 0\n 98648: u8 [a0 + 16] = 0\n 98651: u8 [a0 + 15] = 0\n 98654: u8 [a0 + 14] = 0\n 98657: u8 [a0 + 13] = 0\n 98660: u8 [a0 + 12] = 0\n 98663: u8 [a0 + 11] = 0\n 98666: u8 [a0 + 10] = 0\n 98669: u8 [a0 + 9] = 0\n 98672: u8 [a0 + 8] = 0\n 98675: u8 [a0 + 7] = 0\n 98678: u8 [a0 + 6] = 0\n 98681: u8 [a0 + 5] = 0\n 98684: u8 [a0 + 4] = 0\n 98687: u8 [a0 + 3] = 0\n 98690: u8 [a0 + 2] = 0\n 98693: u8 [a0 + 1] = 0\n 98696: a1 = u64 [sp + 0x20]\n 98699: a2 = u64 [sp + 0x38]\n 98702: a1 = a1 | a2\n 98705: a2 = 0xffffffe0\n 98715: a2 = s1 <u a2\n 98718: a3 = u64 [sp + 0x40]\n 98721: a2 = 0 if a3 != 0\n 98723: a2 = 0 if a1 != 0\n 98725: u8 [a0 + 0] = 0\n 98727: jump @1215 if a2 == 0\n      : @1213 (gas: 3)\n 98731: i32 a0 = s0 + 0x20\n 98734: a1 = 0x20\n 98737: ra = 1098, jump @0\n      : @1214 [@dyn 549] (gas: 55)\n 98744: u8 [a0 + 31] = 0\n 98747: u8 [a0 + 30] = 0\n 98750: u8 [a0 + 29] = 0x74\n 98754: u8 [a0 + 28] = 0x73\n 98758: u8 [a0 + 27] = 0x69\n 98762: u8 [a0 + 26] = 0x78\n 98766: u8 [a0 + 25] = 0x65\n 98770: u8 [a0 + 24] = 0x20\n 98774: u8 [a0 + 23] = 0x74\n 98778: u8 [a0 + 22] = 0x6f\n 98782: u8 [a0 + 21] = 0x6e\n 98786: u8 [a0 + 20] = 0x20\n 98790: u8 [a0 + 19] = 0x73\n 98794: u8 [a0 + 18] = 0x65\n 98798: u8 [a0 + 17] = 0x6f\n 98802: u8 [a0 + 16] = 0x64\n 98806: u8 [a0 + 15] = 0x20\n 98810: u8 [a0 + 14] = 0x65\n 98814: a5 = 0x63\n 98817: u8 [a0 + 0xd] = a5\n 98820: u8 [a0 + 12] = 0x69\n 98824: u8 [a0 + 11] = 0x76\n 98828: u8 [a0 + 10] = 0x72\n 98832: u8 [a0 + 9] = 0x65\n 98836: u8 [a0 + 8] = 0x73\n 98840: u8 [a0 + 7] = 0x20\n 98844: u8 [a0 + 6] = 0x3a\n 98848: u8 [a0 + 5] = 0x77\n 98852: u8 [a0 + 4] = 0x6f\n 98856: u8 [a0 + 3] = 0x72\n 98860: u8 [a0 + 0x2] = a5\n 98863: u8 [a0 + 1] = 0x73\n 98867: u8 [a0 + 0] = 0x45\n 98870: a1 = u64 [sp]\n 98872: a0 = a1 + 0x60\n 98875: a1 = a0 <u a1\n 98878: a3 = u64 [sp + 0x8]\n 98881: a2 = a3 + a1\n 98884: a3 = a2 <u a3\n 98887: a3 = a1 if a1 == 0\n 98890: a1 = u64 [sp + 0x10]\n 98893: a3 = a3 + a1\n 98896: a1 = a3 <u a1\n 98899: a4 = u64 [sp + 0x18]\n 98902: a1 = a1 + a4\n 98905: a4 = u64 [sp + 0x28]\n 98908: u64 [a4] = a0\n 98910: u64 [a4 + 0x8] = a2\n 98913: u64 [a4 + 0x10] = a3\n 98916: u64 [a4 + 0x18] = a1\n 98919: ra = u64 [sp + 0x58]\n 98922: s0 = u64 [sp + 0x50]\n 98925: s1 = u64 [sp + 0x48]\n 98928: sp = sp + 0x60\n 98931: ret\n      : @1215 (gas: 1)\n 98933: trap\n      : @1216 (gas: 16)\n 98934: sp = sp + 0xffffffffffffffa0\n 98937: u64 [sp + 0x58] = ra\n 98940: u64 [sp + 0x50] = s0\n 98943: u64 [sp + 0x48] = s1\n 98946: a3 = u64 [a1 + 0x18]\n 98949: a4 = u64 [a1 + 0x10]\n 98952: a5 = u64 [a1 + 0x8]\n 98955: s1 = u64 [a1]\n 98957: a1 = a5 | a3\n 98960: a2 = s1 | a4\n 98963: a2 = a2 | a1\n 98966: a2 = a2 >> 0x20\n 98969: a1 = a1 | a4\n 98972: a1 = a1 << 0x20\n 98975: a1 = a1 | a2\n 98978: jump @1223 if a1 != 0\n      : @1217 (gas: 20)\n 98982: u64 [sp + 0x10] = a0\n 98985: a0 = s1 + 0x20\n 98988: u64 [sp + 0x30] = a0\n 98991: a0 = a0 <u s1\n 98994: a1 = a5 + a0\n 98997: u64 [sp + 0x40] = a1\n 99000: u64 [sp + 0x8] = a5\n 99003: s0 = a1 <u a5\n 99006: s0 = a0 if a0 == 0\n 99009: s0 = s0 + a4\n 99012: u64 [sp + 0x18] = a4\n 99015: a0 = s0 <u a4\n 99018: u64 [sp + 0x20] = a3\n 99021: a0 = a0 + a3\n 99024: u64 [sp + 0x38] = a0\n 99027: u64 [sp] = s1\n 99029: i32 a0 = s1 + 0\n 99031: a1 = 0x20\n 99034: s1 = 0x20\n 99037: ra = 1100, jump @0\n      : @1218 [@dyn 550] (gas: 45)\n 99044: a1 = u64 [sp + 0x30]\n 99047: a3 = a1\n 99049: a1 = a1 | s0\n 99052: a2 = u64 [sp + 0x40]\n 99055: a4 = u64 [sp + 0x38]\n 99058: a2 = a2 | a4\n 99061: a1 = a1 | a2\n 99064: a1 = a1 >> 0x20\n 99067: u64 [sp + 0x28] = s0\n 99070: a2 = a2 | s0\n 99073: a2 = a2 << 0x20\n 99076: a1 = a1 | a2\n 99079: u8 [a0 + 0x1f] = s1\n 99082: u8 [a0 + 30] = 0\n 99085: u8 [a0 + 29] = 0\n 99088: u8 [a0 + 28] = 0\n 99091: u8 [a0 + 27] = 0\n 99094: u8 [a0 + 26] = 0\n 99097: u8 [a0 + 25] = 0\n 99100: u8 [a0 + 24] = 0\n 99103: u8 [a0 + 23] = 0\n 99106: u8 [a0 + 22] = 0\n 99109: u8 [a0 + 21] = 0\n 99112: u8 [a0 + 20] = 0\n 99115: u8 [a0 + 19] = 0\n 99118: u8 [a0 + 18] = 0\n 99121: u8 [a0 + 17] = 0\n 99124: u8 [a0 + 16] = 0\n 99127: u8 [a0 + 15] = 0\n 99130: u8 [a0 + 14] = 0\n 99133: u8 [a0 + 13] = 0\n 99136: u8 [a0 + 12] = 0\n 99139: u8 [a0 + 11] = 0\n 99142: u8 [a0 + 10] = 0\n 99145: u8 [a0 + 9] = 0\n 99148: u8 [a0 + 8] = 0\n 99151: u8 [a0 + 7] = 0\n 99154: u8 [a0 + 6] = 0\n 99157: u8 [a0 + 5] = 0\n 99160: u8 [a0 + 4] = 0\n 99163: u8 [a0 + 3] = 0\n 99166: u8 [a0 + 2] = 0\n 99169: u8 [a0 + 1] = 0\n 99172: u8 [a0 + 0] = 0\n 99174: jump @1223 if a1 != 0\n      : @1219 (gas: 5)\n 99178: s1 = a3\n 99180: i32 s0 = a3 + 0\n 99182: a1 = 0x20\n 99185: a0 = s0\n 99187: ra = 1102, jump @0\n      : @1220 [@dyn 551] (gas: 41)\n 99194: u8 [a0 + 31] = 0x20\n 99198: u8 [a0 + 30] = 0\n 99201: u8 [a0 + 29] = 0\n 99204: u8 [a0 + 28] = 0\n 99207: u8 [a0 + 27] = 0\n 99210: u8 [a0 + 26] = 0\n 99213: u8 [a0 + 25] = 0\n 99216: u8 [a0 + 24] = 0\n 99219: u8 [a0 + 23] = 0\n 99222: u8 [a0 + 22] = 0\n 99225: u8 [a0 + 21] = 0\n 99228: u8 [a0 + 20] = 0\n 99231: u8 [a0 + 19] = 0\n 99234: u8 [a0 + 18] = 0\n 99237: u8 [a0 + 17] = 0\n 99240: u8 [a0 + 16] = 0\n 99243: u8 [a0 + 15] = 0\n 99246: u8 [a0 + 14] = 0\n 99249: u8 [a0 + 13] = 0\n 99252: u8 [a0 + 12] = 0\n 99255: u8 [a0 + 11] = 0\n 99258: u8 [a0 + 10] = 0\n 99261: u8 [a0 + 9] = 0\n 99264: u8 [a0 + 8] = 0\n 99267: u8 [a0 + 7] = 0\n 99270: u8 [a0 + 6] = 0\n 99273: u8 [a0 + 5] = 0\n 99276: u8 [a0 + 4] = 0\n 99279: u8 [a0 + 3] = 0\n 99282: u8 [a0 + 2] = 0\n 99285: u8 [a0 + 1] = 0\n 99288: a1 = u64 [sp + 0x28]\n 99291: a2 = u64 [sp + 0x38]\n 99294: a1 = a1 | a2\n 99297: a2 = 0xffffffe0\n 99307: a2 = s1 <u a2\n 99310: a3 = u64 [sp + 0x40]\n 99313: a2 = 0 if a3 != 0\n 99315: a2 = 0 if a1 != 0\n 99317: u8 [a0 + 0] = 0\n 99319: jump @1223 if a2 == 0\n      : @1221 (gas: 4)\n 99323: i32 a0 = s0 + 0x20\n 99326: a1 = 0x20\n 99329: s0 = 0x20\n 99332: ra = 1104, jump @0\n      : @1222 [@dyn 552] (gas: 54)\n 99339: u8 [a0 + 29] = 0x75\n 99343: u8 [a0 + 27] = 0x6d\n 99347: u8 [a0 + 21] = 0x6d\n 99351: u8 [a0 + 20] = 0x79\n 99355: u8 [a0 + 26] = 0x61\n 99359: u8 [a0 + 19] = 0x61\n 99363: u8 [a0 + 18] = 0x70\n 99367: u8 [a0 + 31] = 0x74\n 99371: u8 [a0 + 24] = 0x74\n 99375: u8 [a0 + 16] = 0x74\n 99379: u8 [a0 + 22] = 0x65\n 99383: u8 [a0 + 14] = 0x65\n 99387: u8 [a0 + 30] = 0x6e\n 99391: u8 [a0 + 23] = 0x6e\n 99395: u8 [a0 + 9] = 0x6e\n 99399: u8 [a0 + 8] = 0x69\n 99403: u8 [a0 + 0x19] = s0\n 99406: u8 [a0 + 0x11] = s0\n 99409: u8 [a0 + 0x7] = s0\n 99412: u8 [a0 + 6] = 0x3a\n 99416: u8 [a0 + 5] = 0x77\n 99420: u8 [a0 + 28] = 0x6f\n 99424: u8 [a0 + 11] = 0x6f\n 99428: u8 [a0 + 4] = 0x6f\n 99432: u8 [a0 + 13] = 0x72\n 99436: u8 [a0 + 12] = 0x72\n 99440: u8 [a0 + 3] = 0x72\n 99444: u8 [a0 + 15] = 0x63\n 99448: u8 [a0 + 10] = 0x63\n 99452: u8 [a0 + 2] = 0x63\n 99456: u8 [a0 + 1] = 0x73\n 99460: u8 [a0 + 0] = 0x45\n 99463: a1 = u64 [sp]\n 99465: a0 = a1 + 0x60\n 99468: a1 = a0 <u a1\n 99471: a3 = u64 [sp + 0x8]\n 99474: a2 = a3 + a1\n 99477: a3 = a2 <u a3\n 99480: a3 = a1 if a1 == 0\n 99483: a1 = u64 [sp + 0x18]\n 99486: a3 = a3 + a1\n 99489: a1 = a3 <u a1\n 99492: a4 = u64 [sp + 0x20]\n 99495: a1 = a1 + a4\n 99498: a4 = u64 [sp + 0x10]\n 99501: u64 [a4] = a0\n 99503: u64 [a4 + 0x8] = a2\n 99506: u64 [a4 + 0x10] = a3\n 99509: u64 [a4 + 0x18] = a1\n 99512: ra = u64 [sp + 0x58]\n 99515: s0 = u64 [sp + 0x50]\n 99518: s1 = u64 [sp + 0x48]\n 99521: sp = sp + 0x60\n 99524: ret\n      : @1223 (gas: 1)\n 99526: trap\n      : @1224 (gas: 22)\n 99527: sp = sp + 0xfffffffffffffee0\n 99531: u64 [sp + 0x118] = ra\n 99535: u64 [sp + 0x110] = s0\n 99539: u64 [sp + 0x108] = s1\n 99543: s0 = sp + 0x120\n 99547: sp = sp & 0xffffffffffffffe0\n 99550: a4 = u64 [a1 + 0x10]\n 99553: a5 = u64 [a1 + 0x18]\n 99556: a2 = u64 [a1 + 0x8]\n 99559: a3 = u64 [a1]\n 99561: u64 [sp + 0x70] = a2\n 99564: u64 [sp + 0x58] = a5\n 99567: a1 = a2 | a5\n 99570: u64 [sp + 0x80] = a3\n 99574: a2 = a3 | a4\n 99577: a2 = a2 | a1\n 99580: a2 = a2 >> 0x20\n 99583: u64 [sp + 0x78] = a4\n 99586: a1 = a1 | a4\n 99589: a1 = a1 << 0x20\n 99592: a1 = a1 | a2\n 99595: jump @1239 if a1 != 0\n      : @1225 (gas: 12)\n 99599: a1 = u64 [a0 + 0x18]\n 99602: u64 [sp + 0x60] = a1\n 99605: a1 = u64 [a0 + 0x10]\n 99608: u64 [sp + 0x88] = a1\n 99612: a1 = u64 [a0 + 0x8]\n 99615: u64 [sp + 0x90] = a1\n 99619: a0 = u64 [a0]\n 99621: u64 [sp + 0x98] = a0\n 99625: a0 = i32 [sp + 0x80]\n 99629: a1 = 0x20\n 99632: u64 [sp + 0x68] = a0\n 99635: ra = 1106, jump @0\n      : @1226 [@dyn 553] (gas: 105)\n 99642: a1 = u8 [a0 + 0x11]\n 99645: a2 = u8 [a0 + 0x10]\n 99648: a3 = u8 [a0 + 0x12]\n 99651: a4 = u8 [a0 + 0x13]\n 99654: a1 = a1 << 0x8\n 99657: a1 = a1 | a2\n 99660: a3 = a3 << 0x10\n 99663: a4 = a4 << 0x18\n 99666: a3 = a3 | a4\n 99669: a1 = a1 | a3\n 99672: a2 = u8 [a0 + 0x15]\n 99675: a3 = u8 [a0 + 0x14]\n 99678: a4 = u8 [a0 + 0x16]\n 99681: a5 = u8 [a0 + 0x17]\n 99684: a2 = a2 << 0x8\n 99687: a2 = a2 | a3\n 99690: a4 = a4 << 0x10\n 99693: a5 = a5 << 0x18\n 99696: a4 = a4 | a5\n 99699: a2 = a2 | a4\n 99702: a2 = a2 << 0x20\n 99705: a1 = a1 | a2\n 99708: a2 = u8 [a0 + 0x19]\n 99711: a3 = u8 [a0 + 0x18]\n 99714: a4 = u8 [a0 + 0x1a]\n 99717: a5 = u8 [a0 + 0x1b]\n 99720: a2 = a2 << 0x8\n 99723: a2 = a2 | a3\n 99726: a4 = a4 << 0x10\n 99729: a5 = a5 << 0x18\n 99732: a4 = a4 | a5\n 99735: a2 = a2 | a4\n 99738: a3 = u8 [a0 + 0x1d]\n 99741: a4 = u8 [a0 + 0x1c]\n 99744: a5 = u8 [a0 + 0x1e]\n 99747: s1 = u8 [a0 + 0x1f]\n 99750: a3 = a3 << 0x8\n 99753: a3 = a3 | a4\n 99756: a5 = a5 << 0x10\n 99759: s1 = s1 << 0x18\n 99762: a5 = a5 | s1\n 99765: a3 = a3 | a5\n 99768: a3 = a3 << 0x20\n 99771: a2 = a2 | a3\n 99774: a3 = u8 [a0 + 0xd]\n 99777: a4 = u8 [a0 + 0xc]\n 99780: a5 = u8 [a0 + 0xe]\n 99783: a0 = u8 [a0 + 0xf]\n 99786: a3 = a3 << 0x8\n 99789: a3 = a3 | a4\n 99792: a5 = a5 << 0x10\n 99795: a0 = a0 << 0x18\n 99798: a0 = a0 | a5\n 99801: a0 = a0 | a3\n 99804: a2 = reverse a2\n 99806: u64 [sp + 0x50] = a2\n 99809: a1 = reverse a1\n 99811: u64 [sp + 0x48] = a1\n 99814: s1 = reverse a0\n 99816: s1 = s1 >> 0x20\n 99819: u64 [sp + 0x40] = s1\n 99822: s1 = u64 [sp + 0x60]\n 99825: u64 [sp + 0xd8] = s1\n 99829: a0 = u64 [sp + 0x88]\n 99833: u64 [sp + 0xd0] = a0\n 99837: a0 = u64 [sp + 0x90]\n 99841: u64 [sp + 0xc8] = a0\n 99845: a0 = u64 [sp + 0x98]\n 99849: u64 [sp + 0xc0] = a0\n 99853: u64 [sp + 248] = 0\n 99857: u64 [sp + 240] = 0\n 99861: u64 [sp + 232] = 0\n 99865: u64 [sp + 224] = 0\n 99869: u32 [sp + 160] = 0x20\n 99874: i32 a1 = sp + 0xc0\n 99878: i32 a3 = sp + 0xe0\n 99882: i32 a4 = sp + 0xa0\n 99886: a2 = 0xffffffffffffffff\n 99889: a0 = 0\n 99891: ecalli 7 // 'get_storage'\n 99893: a0 = u32 [sp + 0xf4]\n 99897: a0 = a0 << 0x20\n 99900: a1 = u64 [sp + 0xf8]\n 99904: a2 = u64 [sp + 0x40]\n 99907: a0 = a0 | a2\n 99910: u64 [sp + 0xd8] = s1\n 99914: a2 = u64 [sp + 0x88]\n 99918: u64 [sp + 0xd0] = a2\n 99922: a2 = u64 [sp + 0x90]\n 99926: u64 [sp + 0xc8] = a2\n 99930: a2 = u64 [sp + 0x98]\n 99934: u64 [sp + 0xc0] = a2\n 99938: u64 [sp + 0xf8] = a1\n 99942: u64 [sp + 0xf0] = a0\n 99946: a0 = u64 [sp + 0x48]\n 99949: u64 [sp + 0xe8] = a0\n 99953: a0 = u64 [sp + 0x50]\n 99956: u64 [sp + 0xe0] = a0\n 99960: i32 a1 = sp + 0xc0\n 99964: i32 a3 = sp + 0xe0\n 99968: a2 = 0xffffffffffffffff\n 99971: a4 = 0x20\n 99974: a0 = 0\n 99976: ecalli 15 // 'set_storage'\n 99978: fallthrough\n      : @1227 (gas: 13)\n 99979: a0 = u64 [sp + 0x78]\n 99982: a2 = u64 [sp + 0x58]\n 99985: a2 = a2 | a0\n 99988: a0 = 0x100000000\n 99998: u64 [sp + 0x40] = a0\n100001: a0 = 0xffffffe0\n100011: a1 = u64 [sp + 0x80]\n100015: a0 = a1 <u a0\n100018: a1 = u64 [sp + 0x70]\n100021: a0 = 0 if a1 != 0\n100023: u64 [sp + 0x58] = a2\n100026: a0 = 0 if a2 != 0\n100028: jump @1239 if a0 == 0\n      : @1228 (gas: 20)\n100032: a0 = u64 [sp + 0x98]\n100036: a2 = a0 + 0x1\n100039: u64 [sp + 0x48] = a2\n100042: a0 = a2 <u 0x1\n100045: a1 = u64 [sp + 0x90]\n100049: a0 = a0 + a1\n100052: u64 [sp + 0x78] = a0\n100055: a0 = a0 | a2\n100058: a0 = a0 <u 0x1\n100061: a1 = u64 [sp + 0x88]\n100065: a0 = a0 + a1\n100068: u64 [sp + 0x50] = a0\n100071: a0 = a0 <u a1\n100074: a1 = u64 [sp + 0x60]\n100077: a0 = a0 + a1\n100080: u64 [sp + 0x38] = a0\n100083: a0 = u64 [sp + 0x68]\n100086: i32 a0 = a0 + 0x20\n100089: a1 = 0x20\n100092: ra = 1108, jump @0\n      : @1229 [@dyn 554] (gas: 137)\n100099: a1 = u8 [a0 + 0x1]\n100102: a2 = u8 [a0]\n100104: a3 = u8 [a0 + 0x2]\n100107: a4 = u8 [a0 + 0x3]\n100110: a1 = a1 << 0x8\n100113: a1 = a1 | a2\n100116: a3 = a3 << 0x10\n100119: a4 = a4 << 0x18\n100122: a3 = a3 | a4\n100125: a1 = a1 | a3\n100128: a2 = u8 [a0 + 0x5]\n100131: a3 = u8 [a0 + 0x4]\n100134: a4 = u8 [a0 + 0x6]\n100137: a5 = u8 [a0 + 0x7]\n100140: a2 = a2 << 0x8\n100143: a2 = a2 | a3\n100146: a4 = a4 << 0x10\n100149: a5 = a5 << 0x18\n100152: a4 = a4 | a5\n100155: a2 = a2 | a4\n100158: a2 = a2 << 0x20\n100161: t0 = a2 | a1\n100164: a2 = u8 [a0 + 0x9]\n100167: a3 = u8 [a0 + 0x8]\n100170: a4 = u8 [a0 + 0xa]\n100173: a5 = u8 [a0 + 0xb]\n100176: a2 = a2 << 0x8\n100179: a2 = a2 | a3\n100182: a4 = a4 << 0x10\n100185: a5 = a5 << 0x18\n100188: a4 = a4 | a5\n100191: a2 = a2 | a4\n100194: a3 = u8 [a0 + 0xd]\n100197: a4 = u8 [a0 + 0xc]\n100200: a5 = u8 [a0 + 0xe]\n100203: s1 = u8 [a0 + 0xf]\n100206: a3 = a3 << 0x8\n100209: a3 = a3 | a4\n100212: a5 = a5 << 0x10\n100215: s1 = s1 << 0x18\n100218: a5 = a5 | s1\n100221: a3 = a3 | a5\n100224: a3 = a3 << 0x20\n100227: a2 = a2 | a3\n100230: a3 = u8 [a0 + 0x11]\n100233: a4 = u8 [a0 + 0x10]\n100236: a5 = u8 [a0 + 0x12]\n100239: s1 = u8 [a0 + 0x13]\n100242: a3 = a3 << 0x8\n100245: a3 = a3 | a4\n100248: a5 = a5 << 0x10\n100251: s1 = s1 << 0x18\n100254: a5 = a5 | s1\n100257: a3 = a3 | a5\n100260: a4 = u8 [a0 + 0x15]\n100263: a5 = u8 [a0 + 0x14]\n100266: s1 = u8 [a0 + 0x16]\n100269: a1 = u8 [a0 + 0x17]\n100272: a4 = a4 << 0x8\n100275: a4 = a4 | a5\n100278: s1 = s1 << 0x10\n100281: a1 = a1 << 0x18\n100284: a1 = a1 | s1\n100287: a1 = a1 | a4\n100290: a1 = a1 << 0x20\n100293: a3 = a3 | a1\n100296: a1 = u8 [a0 + 0x19]\n100299: a4 = u8 [a0 + 0x18]\n100302: a5 = u8 [a0 + 0x1a]\n100305: s1 = u8 [a0 + 0x1b]\n100308: a1 = a1 << 0x8\n100311: a1 = a1 | a4\n100314: a5 = a5 << 0x10\n100317: s1 = s1 << 0x18\n100320: a5 = a5 | s1\n100323: a1 = a1 | a5\n100326: a4 = u8 [a0 + 0x1d]\n100329: a5 = u8 [a0 + 0x1c]\n100332: s1 = u8 [a0 + 0x1e]\n100335: a0 = u8 [a0 + 0x1f]\n100338: a4 = a4 << 0x8\n100341: a4 = a4 | a5\n100344: s1 = s1 << 0x10\n100347: a0 = a0 << 0x18\n100350: a0 = a0 | s1\n100353: a0 = a0 | a4\n100356: a0 = a0 << 0x20\n100359: a0 = a0 | a1\n100362: u32 [sp + 160] = 0x20\n100367: a0 = reverse a0\n100369: u64 [sp + 0x30] = a0\n100372: a0 = reverse a3\n100374: u64 [sp + 0x28] = a0\n100377: a0 = reverse a2\n100379: u64 [sp + 0x20] = a0\n100382: a0 = reverse t0\n100384: u64 [sp + 0x18] = a0\n100387: a0 = u64 [sp + 0x50]\n100390: u64 [sp + 0xd0] = a0\n100394: a0 = u64 [sp + 0x78]\n100397: u64 [sp + 0xc8] = a0\n100401: a0 = u64 [sp + 0x48]\n100404: u64 [sp + 0xc0] = a0\n100408: s1 = u64 [sp + 0x38]\n100411: u64 [sp + 0xd8] = s1\n100415: u64 [sp + 248] = 0\n100419: u64 [sp + 240] = 0\n100423: u64 [sp + 232] = 0\n100427: u64 [sp + 224] = 0\n100431: i32 a1 = sp + 0xc0\n100435: i32 a3 = sp + 0xe0\n100439: i32 a4 = sp + 0xa0\n100443: a2 = 0xffffffffffffffff\n100446: a0 = 0\n100448: ecalli 7 // 'get_storage'\n100450: u64 [sp + 0xd8] = s1\n100454: a0 = u64 [sp + 0x50]\n100457: u64 [sp + 0xd0] = a0\n100461: a0 = u64 [sp + 0x78]\n100464: u64 [sp + 0xc8] = a0\n100468: a0 = u64 [sp + 0x48]\n100471: u64 [sp + 0xc0] = a0\n100475: a0 = u64 [sp + 0x18]\n100478: u64 [sp + 0xf8] = a0\n100482: a0 = u64 [sp + 0x20]\n100485: u64 [sp + 0xf0] = a0\n100489: a0 = u64 [sp + 0x28]\n100492: u64 [sp + 0xe8] = a0\n100496: a0 = u64 [sp + 0x30]\n100499: u64 [sp + 0xe0] = a0\n100503: i32 a1 = sp + 0xc0\n100507: i32 a3 = sp + 0xe0\n100511: a2 = 0xffffffffffffffff\n100514: a4 = 0x20\n100517: a0 = 0\n100519: ecalli 15 // 'set_storage'\n100521: fallthrough\n      : @1230 (gas: 9)\n100522: a0 = u64 [sp + 0x40]\n100525: a0 = a0 + 0xffffffffffffffc0\n100528: a1 = u64 [sp + 0x80]\n100532: a0 = a1 <u a0\n100535: a1 = u64 [sp + 0x70]\n100538: a0 = 0 if a1 != 0\n100540: a1 = u64 [sp + 0x58]\n100543: a0 = 0 if a1 != 0\n100545: jump @1239 if a0 == 0\n      : @1231 (gas: 20)\n100549: a0 = u64 [sp + 0x98]\n100553: a1 = a0 + 0x2\n100556: u64 [sp + 0x78] = a1\n100559: a0 = a1 <u a0\n100562: a1 = u64 [sp + 0x90]\n100566: a2 = a1 + a0\n100569: u64 [sp + 0x98] = a2\n100573: a1 = a2 <u a1\n100576: a1 = a0 if a0 == 0\n100579: a0 = u64 [sp + 0x88]\n100583: a1 = a1 + a0\n100586: u64 [sp + 0x90] = a1\n100590: a0 = a1 <u a0\n100593: a1 = u64 [sp + 0x60]\n100596: a0 = a0 + a1\n100599: u64 [sp + 0x88] = a0\n100603: a0 = u64 [sp + 0x68]\n100606: i32 a0 = a0 + 0x40\n100609: a1 = 0x20\n100612: ra = 1110, jump @0\n      : @1232 [@dyn 555] (gas: 135)\n100619: a1 = u8 [a0 + 0x11]\n100622: a2 = u8 [a0 + 0x10]\n100625: a3 = u8 [a0 + 0x12]\n100628: a4 = u8 [a0 + 0x13]\n100631: a1 = a1 << 0x8\n100634: a1 = a1 | a2\n100637: a3 = a3 << 0x10\n100640: a4 = a4 << 0x18\n100643: a3 = a3 | a4\n100646: t0 = a3 | a1\n100649: a2 = u8 [a0 + 0x1]\n100652: a3 = u8 [a0]\n100654: a4 = u8 [a0 + 0x2]\n100657: a5 = u8 [a0 + 0x3]\n100660: a2 = a2 << 0x8\n100663: a2 = a2 | a3\n100666: a4 = a4 << 0x10\n100669: a5 = a5 << 0x18\n100672: a4 = a4 | a5\n100675: t1 = a4 | a2\n100678: a3 = u8 [a0 + 0x15]\n100681: a4 = u8 [a0 + 0x14]\n100684: a5 = u8 [a0 + 0x16]\n100687: s1 = u8 [a0 + 0x17]\n100690: a3 = a3 << 0x8\n100693: a3 = a3 | a4\n100696: a5 = a5 << 0x10\n100699: s1 = s1 << 0x18\n100702: a5 = a5 | s1\n100705: t2 = a5 | a3\n100708: a4 = u8 [a0 + 0x5]\n100711: a5 = u8 [a0 + 0x4]\n100714: s1 = u8 [a0 + 0x6]\n100717: a1 = u8 [a0 + 0x7]\n100720: a4 = a4 << 0x8\n100723: a4 = a4 | a5\n100726: s1 = s1 << 0x10\n100729: a1 = a1 << 0x18\n100732: a1 = a1 | s1\n100735: ra = a1 | a4\n100738: a1 = u8 [a0 + 0x19]\n100741: a5 = u8 [a0 + 0x18]\n100744: s1 = u8 [a0 + 0x1a]\n100747: a2 = u8 [a0 + 0x1b]\n100750: a1 = a1 << 0x8\n100753: a1 = a1 | a5\n100756: s1 = s1 << 0x10\n100759: a2 = a2 << 0x18\n100762: a2 = a2 | s1\n100765: a5 = a2 | a1\n100768: a1 = u8 [a0 + 0x9]\n100771: a2 = u8 [a0 + 0x8]\n100774: s1 = u8 [a0 + 0xa]\n100777: a3 = u8 [a0 + 0xb]\n100780: a1 = a1 << 0x8\n100783: a1 = a1 | a2\n100786: s1 = s1 << 0x10\n100789: a3 = a3 << 0x18\n100792: a3 = a3 | s1\n100795: s1 = a3 | a1\n100798: a1 = u8 [a0 + 0x1d]\n100801: a2 = u8 [a0 + 0x1c]\n100804: a3 = u8 [a0 + 0x1e]\n100807: a4 = u8 [a0 + 0x1f]\n100810: a1 = a1 << 0x8\n100813: a1 = a1 | a2\n100816: a3 = a3 << 0x10\n100819: a4 = a4 << 0x18\n100822: a3 = a3 | a4\n100825: a1 = a1 | a3\n100828: a2 = u8 [a0 + 0xd]\n100831: a3 = u8 [a0 + 0xc]\n100834: a4 = u8 [a0 + 0xe]\n100837: a0 = u8 [a0 + 0xf]\n100840: a2 = a2 << 0x8\n100843: a2 = a2 | a3\n100846: a4 = a4 << 0x10\n100849: a0 = a0 << 0x18\n100852: a0 = a0 | a4\n100855: a0 = a0 | a2\n100858: a0 = a0 | a1\n100861: a5 = a5 | s1\n100864: a0 = a0 << 0x20\n100867: a0 = a0 | a5\n100870: a1 = ra | t2\n100873: a2 = t1 | t0\n100876: a1 = a1 << 0x20\n100879: a1 = a1 | a2\n100882: a0 = a0 | a1\n100885: a0 = a0 >u 0\n100887: u64 [sp + 0x60] = a0\n100890: a0 = u64 [sp + 0x88]\n100894: u64 [sp + 0xd8] = a0\n100898: a0 = u64 [sp + 0x90]\n100902: u64 [sp + 0xd0] = a0\n100906: a0 = u64 [sp + 0x98]\n100910: u64 [sp + 0xc8] = a0\n100914: s1 = u64 [sp + 0x78]\n100917: u64 [sp + 0xc0] = s1\n100921: u64 [sp + 248] = 0\n100925: u64 [sp + 240] = 0\n100929: u64 [sp + 232] = 0\n100933: u64 [sp + 224] = 0\n100937: u32 [sp + 160] = 0x20\n100942: i32 a1 = sp + 0xc0\n100946: i32 a3 = sp + 0xe0\n100950: i32 a4 = sp + 0xa0\n100954: a2 = 0xffffffffffffffff\n100957: a0 = 0\n100959: ecalli 7 // 'get_storage'\n100961: a0 = u64 [sp + 0xe0]\n100965: a1 = u64 [sp + 0xe8]\n100969: a2 = u64 [sp + 0xf0]\n100973: a3 = u64 [sp + 0xf8]\n100977: a0 = a0 & 0xffffffffffffff00\n100981: a4 = u64 [sp + 0x60]\n100984: a0 = a0 | a4\n100987: a4 = u64 [sp + 0x88]\n100991: u64 [sp + 0xd8] = a4\n100995: a4 = u64 [sp + 0x90]\n100999: u64 [sp + 0xd0] = a4\n101003: a4 = u64 [sp + 0x98]\n101007: u64 [sp + 0xc8] = a4\n101011: u64 [sp + 0xc0] = s1\n101015: u64 [sp + 0xf8] = a3\n101019: u64 [sp + 0xf0] = a2\n101023: u64 [sp + 0xe8] = a1\n101027: u64 [sp + 0xe0] = a0\n101031: i32 a1 = sp + 0xc0\n101035: i32 a3 = sp + 0xe0\n101039: a2 = 0xffffffffffffffff\n101042: a4 = 0x20\n101045: a0 = 0\n101047: ecalli 15 // 'set_storage'\n101049: fallthrough\n      : @1233 (gas: 10)\n101050: a0 = 0x100000000\n101060: u64 [sp + 0x60] = a0\n101063: a0 = 0xffffffa0\n101073: a1 = u64 [sp + 0x80]\n101077: a0 = a1 <u a0\n101080: a1 = u64 [sp + 0x70]\n101083: a0 = 0 if a1 != 0\n101085: a1 = u64 [sp + 0x58]\n101088: a0 = 0 if a1 != 0\n101090: jump @1239 if a0 == 0\n      : @1234 (gas: 4)\n101094: a0 = u64 [sp + 0x68]\n101097: i32 a0 = a0 + 0x60\n101100: a1 = 0x20\n101103: ra = 1112, jump @0\n      : @1235 [@dyn 556] (gas: 135)\n101110: a1 = u8 [a0 + 0x1d]\n101113: a2 = u8 [a0 + 0x1c]\n101116: a3 = u8 [a0 + 0x1e]\n101119: a4 = u8 [a0 + 0x1f]\n101122: a1 = a1 << 0x8\n101125: a1 = a1 | a2\n101128: a3 = a3 << 0x10\n101131: a4 = a4 << 0x18\n101134: a3 = a3 | a4\n101137: a1 = a1 | a3\n101140: a2 = u8 [a0 + 0xd]\n101143: a3 = u8 [a0 + 0xc]\n101146: a4 = u8 [a0 + 0xe]\n101149: a5 = u8 [a0 + 0xf]\n101152: a2 = a2 << 0x8\n101155: a2 = a2 | a3\n101158: a4 = a4 << 0x10\n101161: a5 = a5 << 0x18\n101164: a4 = a4 | a5\n101167: a2 = a2 | a4\n101170: a1 = a1 | a2\n101173: a1 = a1 << 0x20\n101176: a2 = u8 [a0 + 0x9]\n101179: a3 = u8 [a0 + 0x8]\n101182: a4 = u8 [a0 + 0xa]\n101185: a5 = u8 [a0 + 0xb]\n101188: a2 = a2 << 0x8\n101191: a2 = a2 | a3\n101194: a4 = a4 << 0x10\n101197: a5 = a5 << 0x18\n101200: a4 = a4 | a5\n101203: a2 = a2 | a4\n101206: a3 = u8 [a0 + 0x19]\n101209: a4 = u8 [a0 + 0x18]\n101212: a5 = u8 [a0 + 0x1a]\n101215: s1 = u8 [a0 + 0x1b]\n101218: a3 = a3 << 0x8\n101221: a3 = a3 | a4\n101224: a5 = a5 << 0x10\n101227: s1 = s1 << 0x18\n101230: a5 = a5 | s1\n101233: a3 = a3 | a5\n101236: a2 = a2 | a3\n101239: a1 = a1 | a2\n101242: a2 = u8 [a0 + 0x15]\n101245: a3 = u8 [a0 + 0x14]\n101248: a4 = u8 [a0 + 0x16]\n101251: a5 = u8 [a0 + 0x17]\n101254: a2 = a2 << 0x8\n101257: a2 = a2 | a3\n101260: a4 = a4 << 0x10\n101263: a5 = a5 << 0x18\n101266: a4 = a4 | a5\n101269: a2 = a2 | a4\n101272: a3 = u8 [a0 + 0x5]\n101275: a4 = u8 [a0 + 0x4]\n101278: a5 = u8 [a0 + 0x6]\n101281: s1 = u8 [a0 + 0x7]\n101284: a3 = a3 << 0x8\n101287: a3 = a3 | a4\n101290: a5 = a5 << 0x10\n101293: s1 = s1 << 0x18\n101296: a5 = a5 | s1\n101299: a3 = a3 | a5\n101302: a2 = a2 | a3\n101305: a3 = u8 [a0 + 0x1]\n101308: a4 = u8 [a0]\n101310: a5 = u8 [a0 + 0x2]\n101313: s1 = u8 [a0 + 0x3]\n101316: a3 = a3 << 0x8\n101319: a3 = a3 | a4\n101322: a5 = a5 << 0x10\n101325: s1 = s1 << 0x18\n101328: a4 = u8 [a0 + 0x11]\n101331: a5 = a5 | s1\n101334: a3 = a3 | a5\n101337: a5 = u8 [a0 + 0x10]\n101340: a4 = a4 << 0x8\n101343: s1 = u8 [a0 + 0x12]\n101346: a0 = u8 [a0 + 0x13]\n101349: a4 = a4 | a5\n101352: a2 = a2 << 0x20\n101355: s1 = s1 << 0x10\n101358: a0 = a0 << 0x18\n101361: a0 = a0 | s1\n101364: a0 = a0 | a4\n101367: a0 = a0 | a3\n101370: a0 = a0 | a2\n101373: a0 = a0 | a1\n101376: s1 = a0 >u 0\n101378: a0 = u64 [sp + 0x88]\n101382: u64 [sp + 0xd8] = a0\n101386: a0 = u64 [sp + 0x90]\n101390: u64 [sp + 0xd0] = a0\n101394: a0 = u64 [sp + 0x98]\n101398: u64 [sp + 0xc8] = a0\n101402: a0 = u64 [sp + 0x78]\n101405: u64 [sp + 0xc0] = a0\n101409: u64 [sp + 248] = 0\n101413: u64 [sp + 240] = 0\n101417: u64 [sp + 232] = 0\n101421: u64 [sp + 224] = 0\n101425: u32 [sp + 160] = 0x20\n101430: i32 a1 = sp + 0xc0\n101434: i32 a3 = sp + 0xe0\n101438: i32 a4 = sp + 0xa0\n101442: a2 = 0xffffffffffffffff\n101445: a0 = 0\n101447: ecalli 7 // 'get_storage'\n101449: a0 = u64 [sp + 0xe8]\n101453: a1 = u64 [sp + 0xf0]\n101457: a2 = u64 [sp + 0xf8]\n101461: a3 = u64 [sp + 0xe0]\n101465: s1 = s1 << 0x8\n101468: a3 = a3 & 0xffffffffffff00ff\n101473: a3 = a3 | s1\n101476: a4 = u64 [sp + 0x88]\n101480: u64 [sp + 0xd8] = a4\n101484: a4 = u64 [sp + 0x90]\n101488: u64 [sp + 0xd0] = a4\n101492: a4 = u64 [sp + 0x98]\n101496: u64 [sp + 0xc8] = a4\n101500: a4 = u64 [sp + 0x78]\n101503: u64 [sp + 0xc0] = a4\n101507: u64 [sp + 0xf8] = a2\n101511: u64 [sp + 0xf0] = a1\n101515: u64 [sp + 0xe8] = a0\n101519: u64 [sp + 0xe0] = a3\n101523: i32 a1 = sp + 0xc0\n101527: i32 a3 = sp + 0xe0\n101531: a2 = 0xffffffffffffffff\n101534: a4 = 0x20\n101537: a0 = 0\n101539: ecalli 15 // 'set_storage'\n101541: fallthrough\n      : @1236 (gas: 9)\n101542: a0 = u64 [sp + 0x60]\n101545: a0 = a0 + 0xffffffffffffff80\n101548: a1 = u64 [sp + 0x80]\n101552: a0 = a1 <u a0\n101555: a1 = u64 [sp + 0x70]\n101558: a0 = 0 if a1 != 0\n101560: a1 = u64 [sp + 0x58]\n101563: a0 = 0 if a1 != 0\n101565: jump @1239 if a0 == 0\n      : @1237 (gas: 4)\n101569: a0 = u64 [sp + 0x68]\n101572: i32 a0 = a0 + 0x80\n101576: a1 = 0x20\n101579: ra = 1114, jump @0\n      : @1238 [@dyn 557] (gas: 140)\n101586: a1 = u8 [a0 + 0x1d]\n101589: a2 = u8 [a0 + 0x1c]\n101592: a3 = u8 [a0 + 0x1e]\n101595: a4 = u8 [a0 + 0x1f]\n101598: a1 = a1 << 0x8\n101601: a1 = a1 | a2\n101604: a3 = a3 << 0x10\n101607: a4 = a4 << 0x18\n101610: a3 = a3 | a4\n101613: a1 = a1 | a3\n101616: a2 = u8 [a0 + 0xd]\n101619: a3 = u8 [a0 + 0xc]\n101622: a4 = u8 [a0 + 0xe]\n101625: a5 = u8 [a0 + 0xf]\n101628: a2 = a2 << 0x8\n101631: a2 = a2 | a3\n101634: a4 = a4 << 0x10\n101637: a5 = a5 << 0x18\n101640: a4 = a4 | a5\n101643: a2 = a2 | a4\n101646: a1 = a1 | a2\n101649: a1 = a1 << 0x20\n101652: a2 = u8 [a0 + 0x9]\n101655: a3 = u8 [a0 + 0x8]\n101658: a4 = u8 [a0 + 0xa]\n101661: a5 = u8 [a0 + 0xb]\n101664: a2 = a2 << 0x8\n101667: a2 = a2 | a3\n101670: a4 = a4 << 0x10\n101673: a5 = a5 << 0x18\n101676: a4 = a4 | a5\n101679: a2 = a2 | a4\n101682: a3 = u8 [a0 + 0x19]\n101685: a4 = u8 [a0 + 0x18]\n101688: a5 = u8 [a0 + 0x1a]\n101691: s1 = u8 [a0 + 0x1b]\n101694: a3 = a3 << 0x8\n101697: a3 = a3 | a4\n101700: a5 = a5 << 0x10\n101703: s1 = s1 << 0x18\n101706: a5 = a5 | s1\n101709: a3 = a3 | a5\n101712: a2 = a2 | a3\n101715: a1 = a1 | a2\n101718: a2 = u8 [a0 + 0x15]\n101721: a3 = u8 [a0 + 0x14]\n101724: a4 = u8 [a0 + 0x16]\n101727: a5 = u8 [a0 + 0x17]\n101730: a2 = a2 << 0x8\n101733: a2 = a2 | a3\n101736: a4 = a4 << 0x10\n101739: a5 = a5 << 0x18\n101742: a4 = a4 | a5\n101745: a2 = a2 | a4\n101748: a3 = u8 [a0 + 0x5]\n101751: a4 = u8 [a0 + 0x4]\n101754: a5 = u8 [a0 + 0x6]\n101757: s1 = u8 [a0 + 0x7]\n101760: a3 = a3 << 0x8\n101763: a3 = a3 | a4\n101766: a5 = a5 << 0x10\n101769: s1 = s1 << 0x18\n101772: a5 = a5 | s1\n101775: a3 = a3 | a5\n101778: a2 = a2 | a3\n101781: a3 = u8 [a0 + 0x1]\n101784: a4 = u8 [a0]\n101786: a5 = u8 [a0 + 0x2]\n101789: s1 = u8 [a0 + 0x3]\n101792: a3 = a3 << 0x8\n101795: a3 = a3 | a4\n101798: a5 = a5 << 0x10\n101801: s1 = s1 << 0x18\n101804: a4 = u8 [a0 + 0x11]\n101807: a5 = a5 | s1\n101810: a3 = a3 | a5\n101813: a5 = u8 [a0 + 0x10]\n101816: a4 = a4 << 0x8\n101819: s1 = u8 [a0 + 0x12]\n101822: a0 = u8 [a0 + 0x13]\n101825: a4 = a4 | a5\n101828: a2 = a2 << 0x20\n101831: s1 = s1 << 0x10\n101834: a0 = a0 << 0x18\n101837: a0 = a0 | s1\n101840: a0 = a0 | a4\n101843: a0 = a0 | a3\n101846: a0 = a0 | a2\n101849: a0 = a0 | a1\n101852: s1 = a0 >u 0\n101854: a0 = u64 [sp + 0x88]\n101858: u64 [sp + 0xd8] = a0\n101862: a0 = u64 [sp + 0x90]\n101866: u64 [sp + 0xd0] = a0\n101870: a0 = u64 [sp + 0x98]\n101874: u64 [sp + 0xc8] = a0\n101878: a0 = u64 [sp + 0x78]\n101881: u64 [sp + 0xc0] = a0\n101885: u64 [sp + 248] = 0\n101889: u64 [sp + 240] = 0\n101893: u64 [sp + 232] = 0\n101897: u64 [sp + 224] = 0\n101901: u32 [sp + 160] = 0x20\n101906: i32 a1 = sp + 0xc0\n101910: i32 a3 = sp + 0xe0\n101914: i32 a4 = sp + 0xa0\n101918: a2 = 0xffffffffffffffff\n101921: a0 = 0\n101923: ecalli 7 // 'get_storage'\n101925: a0 = u64 [sp + 0xe8]\n101929: a1 = u64 [sp + 0xf0]\n101933: a2 = u64 [sp + 0xf8]\n101937: a3 = u64 [sp + 0xe0]\n101941: s1 = s1 << 0x10\n101944: a3 = a3 & 0xffffffffff00ffff\n101950: a3 = a3 | s1\n101953: a4 = u64 [sp + 0x88]\n101957: u64 [sp + 0xd8] = a4\n101961: a4 = u64 [sp + 0x90]\n101965: u64 [sp + 0xd0] = a4\n101969: a4 = u64 [sp + 0x98]\n101973: u64 [sp + 0xc8] = a4\n101977: a4 = u64 [sp + 0x78]\n101980: u64 [sp + 0xc0] = a4\n101984: u64 [sp + 0xf8] = a2\n101988: u64 [sp + 0xf0] = a1\n101992: u64 [sp + 0xe8] = a0\n101996: u64 [sp + 0xe0] = a3\n102000: i32 a1 = sp + 0xc0\n102004: i32 a3 = sp + 0xe0\n102008: a2 = 0xffffffffffffffff\n102011: a4 = 0x20\n102014: a0 = 0\n102016: ecalli 15 // 'set_storage'\n102018: sp = s0 + 0xfffffffffffffee0\n102022: ra = u64 [sp + 0x118]\n102026: s0 = u64 [sp + 0x110]\n102030: s1 = u64 [sp + 0x108]\n102034: sp = sp + 0x120\n102038: ret\n      : @1239 (gas: 1)\n102040: trap\n      : @1240 [@dyn 558] (gas: 103)\n102041: a1 = u64 [s1 + 0x180]\n102045: a1 = reverse a1\n102047: a2 = u64 [s1 + 0x188]\n102051: a2 = reverse a2\n102053: a3 = u64 [s1 + 0x190]\n102057: a3 = reverse a3\n102059: a4 = u64 [s1 + 0x198]\n102063: a4 = reverse a4\n102065: a5 = a4 >> 0x38\n102068: u64 [s1 + 0x158] = a5\n102072: u8 [a0 + 0x1f] = a5\n102075: a5 = a4 >> 0x30\n102078: u64 [s1 + 0x150] = a5\n102082: u8 [a0 + 0x1e] = a5\n102085: a5 = a4 >> 0x28\n102088: u64 [s1 + 0x148] = a5\n102092: u8 [a0 + 0x1d] = a5\n102095: a5 = a4 >> 0x20\n102098: u64 [s1 + 0x140] = a5\n102102: u8 [a0 + 0x1c] = a5\n102105: a5 = a4 >> 0x18\n102108: u64 [s1 + 0x138] = a5\n102112: u8 [a0 + 0x1b] = a5\n102115: a5 = a4 >> 0x10\n102118: u64 [s1 + 0x130] = a5\n102122: u8 [a0 + 0x1a] = a5\n102125: a5 = a4 >> 0x8\n102128: u64 [s1 + 0x128] = a5\n102132: u8 [a0 + 0x19] = a5\n102135: u64 [s1 + 0x168] = a4\n102139: u8 [a0 + 0x18] = a4\n102142: a4 = a3 >> 0x38\n102145: u64 [s1 + 0x120] = a4\n102149: u8 [a0 + 0x17] = a4\n102152: a4 = a3 >> 0x30\n102155: u64 [s1 + 0x118] = a4\n102159: u8 [a0 + 0x16] = a4\n102162: a4 = a3 >> 0x28\n102165: u64 [s1 + 0x110] = a4\n102169: u8 [a0 + 0x15] = a4\n102172: a4 = a3 >> 0x20\n102175: u64 [s1 + 0x108] = a4\n102179: u8 [a0 + 0x14] = a4\n102182: a4 = a3 >> 0x18\n102185: u64 [s1 + 0x100] = a4\n102189: u8 [a0 + 0x13] = a4\n102192: a4 = a3 >> 0x10\n102195: u64 [s1 + 0xf8] = a4\n102199: u8 [a0 + 0x12] = a4\n102202: a4 = a3 >> 0x8\n102205: u64 [s1 + 0xf0] = a4\n102209: u8 [a0 + 0x11] = a4\n102212: u64 [s1 + 0x170] = a3\n102216: u8 [a0 + 0x10] = a3\n102219: a3 = a2 >> 0x38\n102222: u64 [s1 + 0xe8] = a3\n102226: u8 [a0 + 0xf] = a3\n102229: a3 = a2 >> 0x30\n102232: u64 [s1 + 0xe0] = a3\n102236: u8 [a0 + 0xe] = a3\n102239: a3 = a2 >> 0x28\n102242: u64 [s1 + 0xd8] = a3\n102246: u8 [a0 + 0xd] = a3\n102249: a3 = a2 >> 0x20\n102252: u64 [s1 + 0xd0] = a3\n102256: u8 [a0 + 0xc] = a3\n102259: a3 = a2 >> 0x18\n102262: u64 [s1 + 0xc8] = a3\n102266: u8 [a0 + 0xb] = a3\n102269: a3 = a2 >> 0x10\n102272: u64 [s1 + 0xc0] = a3\n102276: u8 [a0 + 0xa] = a3\n102279: a3 = a2 >> 0x8\n102282: u64 [s1 + 0xb8] = a3\n102286: u8 [a0 + 0x9] = a3\n102289: u64 [s1 + 0x178] = a2\n102293: u8 [a0 + 0x8] = a2\n102296: a2 = a1 >> 0x38\n102299: u64 [s1 + 0xb0] = a2\n102303: u8 [a0 + 0x7] = a2\n102306: a2 = a1 >> 0x30\n102309: u64 [s1 + 0xa8] = a2\n102313: u8 [a0 + 0x6] = a2\n102316: a2 = a1 >> 0x28\n102319: u64 [s1 + 0xa0] = a2\n102323: u8 [a0 + 0x5] = a2\n102326: a2 = a1 >> 0x20\n102329: u64 [s1 + 0x98] = a2\n102333: u8 [a0 + 0x4] = a2\n102336: a2 = a1 >> 0x18\n102339: u64 [s1 + 0x90] = a2\n102343: u8 [a0 + 0x3] = a2\n102346: a2 = a1 >> 0x10\n102349: u64 [s1 + 0x88] = a2\n102353: u8 [a0 + 0x2] = a2\n102356: a2 = a1 >> 0x8\n102359: u64 [s1 + 0x80] = a2\n102363: u8 [a0 + 0x1] = a2\n102366: u64 [s1 + 0x180] = a1\n102370: u8 [a0] = a1\n102372: a0 = 0x20\n102375: a1 = 0x20\n102378: ra = 1118, jump @0\n      : @1241 [@dyn 559] (gas: 35)\n102385: u8 [a0 + 31] = 0\n102388: u8 [a0 + 30] = 0\n102391: u8 [a0 + 29] = 0\n102394: u8 [a0 + 28] = 0\n102397: u8 [a0 + 27] = 0\n102400: u8 [a0 + 26] = 0\n102403: u8 [a0 + 25] = 0\n102406: u8 [a0 + 24] = 0\n102409: u8 [a0 + 23] = 0\n102412: u8 [a0 + 22] = 0\n102415: u8 [a0 + 21] = 0\n102418: u8 [a0 + 20] = 0\n102421: u8 [a0 + 19] = 0\n102424: u8 [a0 + 18] = 0\n102427: u8 [a0 + 17] = 0\n102430: u8 [a0 + 16] = 0\n102433: u8 [a0 + 15] = 0\n102436: u8 [a0 + 14] = 0\n102439: u8 [a0 + 13] = 0\n102442: u8 [a0 + 12] = 0\n102445: u8 [a0 + 11] = 0\n102448: u8 [a0 + 10] = 0\n102451: u8 [a0 + 9] = 0\n102454: u8 [a0 + 8] = 0\n102457: u8 [a0 + 7] = 0\n102460: u8 [a0 + 6] = 0\n102463: u8 [a0 + 5] = 0\n102466: u8 [a0 + 4] = 0\n102469: u8 [a0 + 3] = 0\n102472: u8 [a0 + 2] = 0\n102475: u8 [a0 + 1] = 0\n102478: u8 [a0 + 0] = 0\n102480: a1 = 0x40\n102483: a0 = 0\n102485: ra = 1120, jump @0\n      : @1242 [@dyn 560] (gas: 32)\n102492: i32 a0 = a0 + 0\n102494: i32 a2 = s1 + 0x360\n102498: a1 = 0x40\n102501: ecalli 8 // 'hash_keccak_256'\n102503: a0 = u64 [s1 + 0x378]\n102507: a1 = u64 [s1 + 0x370]\n102511: a2 = u64 [s1 + 0x368]\n102515: a3 = u64 [s1 + 0x360]\n102519: a5 = reverse a0\n102521: a4 = reverse a1\n102523: a0 = reverse a2\n102525: a1 = reverse a3\n102527: u64 [s1 + 0x190] = a1\n102531: u64 [s1 + 0x358] = a1\n102535: u64 [s1 + 0x198] = a0\n102539: u64 [s1 + 0x350] = a0\n102543: u64 [s1 + 0x188] = a4\n102547: u64 [s1 + 0x348] = a4\n102551: u64 [s1 + 0x160] = a5\n102555: u64 [s1 + 0x340] = a5\n102559: u64 [s1 + 888] = 0\n102563: u64 [s1 + 880] = 0\n102567: u64 [s1 + 872] = 0\n102571: u64 [s1 + 864] = 0\n102575: u32 [s1 + 800] = 0x20\n102580: i32 a1 = s1 + 0x340\n102584: i32 a3 = s1 + 0x360\n102588: i32 a4 = s1 + 0x320\n102592: a2 = 0xffffffffffffffff\n102595: a0 = 0\n102597: ecalli 7 // 'get_storage'\n102599: fallthrough\n      : @1243 (gas: 6)\n102600: a0 = u64 [s1 + 0x360]\n102604: a1 = u32 [s1 + 0x370]\n102608: a2 = u64 [s1 + 0x368]\n102612: a0 = a0 | a1\n102615: a0 = a0 | a2\n102618: jump @1245 if a0 != 0\n      : @1244 (gas: 1)\n102621: jump @1279\n      : @1245 (gas: 47)\n102624: a0 = sp + 0xffffffffffffffe0\n102627: a0 = a0 & 0xffffffffffffffe0\n102630: u64 [s1 + 0x60] = a0\n102633: sp = a0\n102635: u64 [a0 + 24] = 0\n102638: u64 [a0 + 16] = 0\n102641: u64 [a0 + 8] = 0\n102644: u64 [a0 + 0] = 0\n102646: i32 a0 = a0 + 0\n102648: ecalli 16 // 'value_transferred'\n102650: a1 = u64 [s1 + 0x60]\n102653: a0 = u64 [a1]\n102655: u64 [s1 + 0x78] = a0\n102658: a0 = u64 [a1 + 0x10]\n102661: u64 [s1 + 0x70] = a0\n102664: a0 = u64 [a1 + 0x8]\n102667: u64 [s1 + 0x68] = a0\n102670: a0 = u64 [a1 + 0x18]\n102673: u64 [s1 + 0x60] = a0\n102676: a0 = u64 [s1 + 0x160]\n102680: a0 = a0 + 0x1\n102683: a1 = a0 <u 0x1\n102686: a2 = u64 [s1 + 0x188]\n102690: a1 = a1 + a2\n102693: a2 = a0 | a1\n102696: a2 = a2 <u 0x1\n102699: a3 = u64 [s1 + 0x198]\n102703: a2 = a2 + a3\n102706: a3 = a2 <u a3\n102709: a4 = u64 [s1 + 0x190]\n102713: a3 = a3 + a4\n102716: u64 [s1 + 0x358] = a3\n102720: u64 [s1 + 0x350] = a2\n102724: u64 [s1 + 0x348] = a1\n102728: u64 [s1 + 0x340] = a0\n102732: u64 [s1 + 888] = 0\n102736: u64 [s1 + 880] = 0\n102740: u64 [s1 + 872] = 0\n102744: u64 [s1 + 864] = 0\n102748: u32 [s1 + 800] = 0x20\n102753: i32 a1 = s1 + 0x340\n102757: i32 a3 = s1 + 0x360\n102761: i32 a4 = s1 + 0x320\n102765: a2 = 0xffffffffffffffff\n102768: a0 = 0\n102770: ecalli 7 // 'get_storage'\n102772: fallthrough\n      : @1246 (gas: 16)\n102773: a0 = u64 [s1 + 0x378]\n102777: a1 = u64 [s1 + 0x368]\n102781: a2 = u64 [s1 + 0x360]\n102785: a3 = u64 [s1 + 0x370]\n102789: a4 = u64 [s1 + 0x60]\n102792: a0 = a0 ^ a4\n102795: a4 = u64 [s1 + 0x68]\n102798: a1 = a1 ^ a4\n102801: a0 = a0 | a1\n102804: a1 = u64 [s1 + 0x70]\n102807: a1 = a1 ^ a3\n102810: a3 = u64 [s1 + 0x78]\n102813: a2 = a2 ^ a3\n102816: a1 = a1 | a2\n102819: a0 = a0 | a1\n102822: jump @1248 if a0 == 0\n      : @1247 (gas: 1)\n102825: jump @1284\n      : @1248 (gas: 2)\n102828: a1 = 0x20\n102831: ra = 1122, jump @0\n      : @1249 [@dyn 561] (gas: 67)\n102838: a1 = u64 [s1 + 0x170]\n102842: u8 [a0 + 0x10] = a1\n102845: a1 = u64 [s1 + 0xe8]\n102849: u8 [a0 + 0xf] = a1\n102852: a1 = u64 [s1 + 0xe0]\n102856: u8 [a0 + 0xe] = a1\n102859: a1 = u64 [s1 + 0xd8]\n102863: u8 [a0 + 0xd] = a1\n102866: a1 = u64 [s1 + 0xd0]\n102870: u8 [a0 + 0xc] = a1\n102873: a1 = u64 [s1 + 0xc8]\n102877: u8 [a0 + 0xb] = a1\n102880: a1 = u64 [s1 + 0xc0]\n102884: u8 [a0 + 0xa] = a1\n102887: a1 = u64 [s1 + 0xb8]\n102891: u8 [a0 + 0x9] = a1\n102894: a1 = u64 [s1 + 0x178]\n102898: u8 [a0 + 0x8] = a1\n102901: a1 = u64 [s1 + 0xb0]\n102905: u8 [a0 + 0x7] = a1\n102908: a1 = u64 [s1 + 0xa8]\n102912: u8 [a0 + 0x6] = a1\n102915: a1 = u64 [s1 + 0xa0]\n102919: u8 [a0 + 0x5] = a1\n102922: a1 = u64 [s1 + 0x98]\n102926: u8 [a0 + 0x4] = a1\n102929: a1 = u64 [s1 + 0x90]\n102933: u8 [a0 + 0x3] = a1\n102936: a1 = u64 [s1 + 0x88]\n102940: u8 [a0 + 0x2] = a1\n102943: a1 = u64 [s1 + 0x80]\n102947: u8 [a0 + 0x1] = a1\n102950: a1 = u64 [s1 + 0x180]\n102954: u8 [a0] = a1\n102956: a1 = u64 [s1 + 0x168]\n102960: u8 [a0 + 0x18] = a1\n102963: a1 = u64 [s1 + 0x120]\n102967: u8 [a0 + 0x17] = a1\n102970: a1 = u64 [s1 + 0x118]\n102974: u8 [a0 + 0x16] = a1\n102977: a1 = u64 [s1 + 0x110]\n102981: u8 [a0 + 0x15] = a1\n102984: a1 = u64 [s1 + 0x108]\n102988: u8 [a0 + 0x14] = a1\n102991: a1 = u64 [s1 + 0x100]\n102995: u8 [a0 + 0x13] = a1\n102998: a1 = u64 [s1 + 0xf8]\n103002: u8 [a0 + 0x12] = a1\n103005: a1 = u64 [s1 + 0xf0]\n103009: u8 [a0 + 0x11] = a1\n103012: a1 = u64 [s1 + 0x158]\n103016: u8 [a0 + 0x1f] = a1\n103019: a1 = u64 [s1 + 0x150]\n103023: u8 [a0 + 0x1e] = a1\n103026: a1 = u64 [s1 + 0x148]\n103030: u8 [a0 + 0x1d] = a1\n103033: a1 = u64 [s1 + 0x140]\n103037: u8 [a0 + 0x1c] = a1\n103040: a1 = u64 [s1 + 0x138]\n103044: u8 [a0 + 0x1b] = a1\n103047: a1 = u64 [s1 + 0x130]\n103051: u8 [a0 + 0x1a] = a1\n103054: a1 = u64 [s1 + 0x128]\n103058: u8 [a0 + 0x19] = a1\n103061: a0 = 0x20\n103064: a1 = 0x20\n103067: ra = 1124, jump @0\n      : @1250 [@dyn 562] (gas: 35)\n103074: u8 [a0 + 31] = 0x4\n103078: u8 [a0 + 30] = 0\n103081: u8 [a0 + 29] = 0\n103084: u8 [a0 + 28] = 0\n103087: u8 [a0 + 27] = 0\n103090: u8 [a0 + 26] = 0\n103093: u8 [a0 + 25] = 0\n103096: u8 [a0 + 24] = 0\n103099: u8 [a0 + 23] = 0\n103102: u8 [a0 + 22] = 0\n103105: u8 [a0 + 21] = 0\n103108: u8 [a0 + 20] = 0\n103111: u8 [a0 + 19] = 0\n103114: u8 [a0 + 18] = 0\n103117: u8 [a0 + 17] = 0\n103120: u8 [a0 + 16] = 0\n103123: u8 [a0 + 15] = 0\n103126: u8 [a0 + 14] = 0\n103129: u8 [a0 + 13] = 0\n103132: u8 [a0 + 12] = 0\n103135: u8 [a0 + 11] = 0\n103138: u8 [a0 + 10] = 0\n103141: u8 [a0 + 9] = 0\n103144: u8 [a0 + 8] = 0\n103147: u8 [a0 + 7] = 0\n103150: u8 [a0 + 6] = 0\n103153: u8 [a0 + 5] = 0\n103156: u8 [a0 + 4] = 0\n103159: u8 [a0 + 3] = 0\n103162: u8 [a0 + 2] = 0\n103165: u8 [a0 + 1] = 0\n103168: u8 [a0 + 0] = 0\n103170: a1 = 0x40\n103173: a0 = 0\n103175: ra = 1126, jump @0\n      : @1251 [@dyn 563] (gas: 32)\n103182: i32 a0 = a0 + 0\n103184: i32 a2 = s1 + 0x360\n103188: a1 = 0x40\n103191: ecalli 8 // 'hash_keccak_256'\n103193: a0 = u64 [s1 + 0x378]\n103197: a1 = u64 [s1 + 0x370]\n103201: a2 = u64 [s1 + 0x368]\n103205: a3 = u64 [s1 + 0x360]\n103209: a0 = reverse a0\n103211: a1 = reverse a1\n103213: a2 = reverse a2\n103215: a3 = reverse a3\n103217: u64 [s1 + 0x160] = a3\n103221: u64 [s1 + 0x358] = a3\n103225: u64 [s1 + 0x188] = a2\n103229: u64 [s1 + 0x350] = a2\n103233: u64 [s1 + 0x190] = a1\n103237: u64 [s1 + 0x348] = a1\n103241: u64 [s1 + 0x198] = a0\n103245: u64 [s1 + 0x340] = a0\n103249: u64 [s1 + 888] = 0\n103253: u64 [s1 + 880] = 0\n103257: u64 [s1 + 872] = 0\n103261: u64 [s1 + 864] = 0\n103265: u32 [s1 + 800] = 0x20\n103270: i32 a1 = s1 + 0x340\n103274: i32 a3 = s1 + 0x360\n103278: i32 a4 = s1 + 0x320\n103282: a2 = 0xffffffffffffffff\n103285: a0 = 0\n103287: ecalli 7 // 'get_storage'\n103289: fallthrough\n      : @1252 (gas: 24)\n103290: a0 = u64 [s1 + 0x360]\n103294: a2 = u64 [s1 + 0x378]\n103298: a1 = u64 [s1 + 0x368]\n103302: a3 = u64 [s1 + 0x370]\n103306: u64 [s1 + 0x68] = a0\n103309: a4 = a0 + 0x1\n103312: a0 = a4 <u 0x1\n103315: u64 [s1 + 0x60] = a1\n103318: a1 = a1 + a0\n103321: a0 = a4 | a1\n103324: a0 = a0 <u 0x1\n103327: a5 = a3 + a0\n103330: u64 [s1 + 0x50] = a3\n103333: a0 = a5 <u a3\n103336: u64 [s1 + 0x58] = a2\n103339: a0 = a0 + a2\n103342: u64 [s1 + 0x70] = a1\n103345: u64 [s1 + 0x40] = a0\n103348: a0 = a0 | a1\n103351: u64 [s1 + 0x78] = a4\n103354: u64 [s1 + 0x48] = a5\n103357: a1 = a4 | a5\n103360: a0 = a0 | a1\n103363: jump @1254 if a0 != 0\n      : @1253 (gas: 1)\n103366: jump @1291\n      : @1254 (gas: 75)\n103369: a0 = u64 [s1 + 0x188]\n103373: u64 [s1 + 0x350] = a0\n103377: a0 = u64 [s1 + 0x190]\n103381: u64 [s1 + 0x348] = a0\n103385: a0 = u64 [s1 + 0x198]\n103389: u64 [s1 + 0x340] = a0\n103393: a0 = u64 [s1 + 0x160]\n103397: u64 [s1 + 0x358] = a0\n103401: u64 [s1 + 888] = 0\n103405: u64 [s1 + 880] = 0\n103409: u64 [s1 + 872] = 0\n103413: u64 [s1 + 864] = 0\n103417: u32 [s1 + 800] = 0x20\n103422: i32 a1 = s1 + 0x340\n103426: i32 a3 = s1 + 0x360\n103430: i32 a4 = s1 + 0x320\n103434: a2 = 0xffffffffffffffff\n103437: a0 = 0\n103439: ecalli 7 // 'get_storage'\n103441: a0 = u64 [s1 + 0x160]\n103445: u64 [s1 + 0x358] = a0\n103449: a0 = u64 [s1 + 0x188]\n103453: u64 [s1 + 0x350] = a0\n103457: a0 = u64 [s1 + 0x190]\n103461: u64 [s1 + 0x348] = a0\n103465: a0 = u64 [s1 + 0x198]\n103469: u64 [s1 + 0x340] = a0\n103473: a0 = u64 [s1 + 0x40]\n103476: u64 [s1 + 0x378] = a0\n103480: a0 = u64 [s1 + 0x48]\n103483: u64 [s1 + 0x370] = a0\n103487: a0 = u64 [s1 + 0x70]\n103490: u64 [s1 + 0x368] = a0\n103494: a0 = u64 [s1 + 0x78]\n103497: u64 [s1 + 0x360] = a0\n103501: i32 a1 = s1 + 0x340\n103505: i32 a3 = s1 + 0x360\n103509: a2 = 0xffffffffffffffff\n103512: a4 = 0x20\n103515: a0 = 0\n103517: ecalli 15 // 'set_storage'\n103519: i32 a0 = s1 + 0x2e0\n103523: ecalli 5 // 'caller'\n103525: a0 = u32 [s1 + 0x2f0]\n103529: u64 [s1 + 0x188] = a0\n103533: a0 = u64 [s1 + 0x2e8]\n103537: u64 [s1 + 0x48] = a0\n103540: a0 = u64 [s1 + 0x2e0]\n103544: u64 [s1 + 0x160] = a0\n103548: a0 = sp + 0xffffffffffffffe0\n103551: a0 = a0 & 0xffffffffffffffe0\n103554: u64 [s1 + 0x198] = a0\n103558: sp = a0\n103560: u64 [a0 + 24] = 0\n103563: u64 [a0 + 16] = 0\n103566: u64 [a0 + 8] = 0\n103569: u64 [a0 + 0] = 0\n103571: i32 a0 = a0 + 0\n103573: ecalli 16 // 'value_transferred'\n103575: a1 = u64 [s1 + 0x198]\n103579: a0 = u64 [a1 + 0x18]\n103582: u64 [s1 + 0x28] = a0\n103585: a0 = u64 [a1 + 0x10]\n103588: u64 [s1 + 0x30] = a0\n103591: a0 = u64 [a1 + 0x8]\n103594: u64 [s1 + 0x38] = a0\n103597: a0 = u64 [a1]\n103599: u64 [s1 + 0x40] = a0\n103602: u64 [s1 + 632] = 0\n103606: u64 [s1 + 624] = 0\n103610: u64 [s1 + 608] = 0xa0\n103616: a0 = s1 + 0x280\n103620: a1 = s1 + 0x260\n103624: u64 [s1 + 616] = 0\n103628: ra = 1128, jump @647\n      : @1255 [@dyn 564] (gas: 16)\n103635: a2 = u64 [s1 + 0x298]\n103639: a3 = u64 [s1 + 0x290]\n103643: a0 = u64 [s1 + 0x288]\n103647: a1 = u64 [s1 + 0x280]\n103651: u64 [s1 + 0x190] = a0\n103655: u64 [s1 + 0x70] = a2\n103658: a0 = a0 | a2\n103661: u64 [s1 + 0x198] = a1\n103665: a1 = a1 | a3\n103668: a1 = a1 | a0\n103671: a1 = a1 >> 0x20\n103674: u64 [s1 + 0x78] = a3\n103677: a0 = a0 | a3\n103680: a0 = a0 << 0x20\n103683: a0 = a0 | a1\n103686: jump @1257 if a0 == 0\n      : @1256 (gas: 1)\n103689: jump @1290\n      : @1257 (gas: 18)\n103692: a0 = u64 [s1 + 0x160]\n103696: a0 = reverse a0\n103698: a0 = a0 << 0x20\n103701: a1 = u64 [s1 + 0x48]\n103704: a1 = reverse a1\n103706: a2 = a1 >> 0x20\n103709: a0 = a0 | a2\n103712: u64 [s1 + 0x48] = a0\n103715: a1 = a1 << 0x20\n103718: a0 = u64 [s1 + 0x188]\n103722: a0 = reverse a0\n103724: a0 = a0 >> 0x20\n103727: a0 = a0 | a1\n103730: u64 [s1 + 0x20] = a0\n103733: a0 = i32 [s1 + 0x198]\n103737: a1 = 0x20\n103740: u64 [s1 + 0x188] = a0\n103744: ra = 1130, jump @0\n      : @1258 [@dyn 565] (gas: 67)\n103751: a1 = u64 [s1 + 0x20]\n103754: a1 = reverse a1\n103756: a2 = u64 [s1 + 0x48]\n103759: a2 = reverse a2\n103761: a4 = u64 [s1 + 0x160]\n103765: a3 = a4 >> 0x18\n103768: u8 [a0 + 0xf] = a3\n103771: a3 = a4 >> 0x10\n103774: u8 [a0 + 0xe] = a3\n103777: a3 = a4 >> 0x8\n103780: u8 [a0 + 0xd] = a3\n103783: u8 [a0 + 0xc] = a4\n103786: u8 [a0 + 11] = 0\n103789: u8 [a0 + 10] = 0\n103792: u8 [a0 + 9] = 0\n103795: u8 [a0 + 8] = 0\n103798: u8 [a0 + 7] = 0\n103801: u8 [a0 + 6] = 0\n103804: u8 [a0 + 5] = 0\n103807: u8 [a0 + 4] = 0\n103810: u8 [a0 + 3] = 0\n103813: u8 [a0 + 2] = 0\n103816: u8 [a0 + 1] = 0\n103819: u8 [a0 + 0] = 0\n103821: u8 [a0 + 0x10] = a2\n103824: u8 [a0 + 0x18] = a1\n103827: a3 = a2 >> 0x38\n103830: u8 [a0 + 0x17] = a3\n103833: a3 = a2 >> 0x30\n103836: u8 [a0 + 0x16] = a3\n103839: a3 = a2 >> 0x28\n103842: u8 [a0 + 0x15] = a3\n103845: a3 = a2 >> 0x20\n103848: u8 [a0 + 0x14] = a3\n103851: a3 = a2 >> 0x18\n103854: u8 [a0 + 0x13] = a3\n103857: a3 = a2 >> 0x10\n103860: u8 [a0 + 0x12] = a3\n103863: a2 = a2 >> 0x8\n103866: u8 [a0 + 0x11] = a2\n103869: a2 = a1 >> 0x38\n103872: u8 [a0 + 0x1f] = a2\n103875: a2 = a1 >> 0x30\n103878: u8 [a0 + 0x1e] = a2\n103881: a2 = a1 >> 0x28\n103884: u8 [a0 + 0x1d] = a2\n103887: a2 = a1 >> 0x20\n103890: u8 [a0 + 0x1c] = a2\n103893: a2 = a1 >> 0x18\n103896: u8 [a0 + 0x1b] = a2\n103899: a2 = a1 >> 0x10\n103902: u8 [a0 + 0x1a] = a2\n103905: a1 = a1 >> 0x8\n103908: a2 = u64 [s1 + 0x70]\n103911: a4 = u64 [s1 + 0x78]\n103914: a4 = a4 | a2\n103917: a2 = 0x100000000\n103927: u64 [s1 + 0x48] = a2\n103930: a2 = 0xffffffe0\n103940: a3 = u64 [s1 + 0x198]\n103944: a2 = a3 <u a2\n103947: a3 = u64 [s1 + 0x190]\n103951: a2 = 0 if a3 != 0\n103953: u64 [s1 + 0x160] = a4\n103957: a2 = 0 if a4 != 0\n103959: u8 [a0 + 0x19] = a1\n103962: jump @1260 if a2 != 0\n      : @1259 (gas: 1)\n103965: jump @1290\n      : @1260 (gas: 4)\n103968: a0 = u64 [s1 + 0x188]\n103972: i32 a0 = a0 + 0x20\n103975: a1 = 0x20\n103978: ra = 1132, jump @0\n      : @1261 [@dyn 566] (gas: 77)\n103985: a1 = u64 [s1 + 0x28]\n103988: a1 = reverse a1\n103990: a2 = u64 [s1 + 0x30]\n103993: a2 = reverse a2\n103995: a3 = u64 [s1 + 0x38]\n103998: a3 = reverse a3\n104000: a4 = u64 [s1 + 0x40]\n104003: a4 = reverse a4\n104005: a5 = a4 >> 0x38\n104008: u8 [a0 + 0x1f] = a5\n104011: a5 = a4 >> 0x30\n104014: u8 [a0 + 0x1e] = a5\n104017: a5 = a4 >> 0x28\n104020: u8 [a0 + 0x1d] = a5\n104023: a5 = a4 >> 0x20\n104026: u8 [a0 + 0x1c] = a5\n104029: a5 = a4 >> 0x18\n104032: u8 [a0 + 0x1b] = a5\n104035: a5 = a4 >> 0x10\n104038: u8 [a0 + 0x1a] = a5\n104041: a5 = a4 >> 0x8\n104044: u8 [a0 + 0x19] = a5\n104047: u8 [a0 + 0x18] = a4\n104050: u8 [a0 + 0x10] = a3\n104053: a4 = a3 >> 0x38\n104056: u8 [a0 + 0x17] = a4\n104059: a4 = a3 >> 0x30\n104062: u8 [a0 + 0x16] = a4\n104065: a4 = a3 >> 0x28\n104068: u8 [a0 + 0x15] = a4\n104071: a4 = a3 >> 0x20\n104074: u8 [a0 + 0x14] = a4\n104077: a4 = a3 >> 0x18\n104080: u8 [a0 + 0x13] = a4\n104083: a4 = a3 >> 0x10\n104086: u8 [a0 + 0x12] = a4\n104089: a3 = a3 >> 0x8\n104092: u8 [a0 + 0x11] = a3\n104095: u8 [a0 + 0x8] = a2\n104098: a3 = a2 >> 0x38\n104101: u8 [a0 + 0xf] = a3\n104104: a3 = a2 >> 0x30\n104107: u8 [a0 + 0xe] = a3\n104110: a3 = a2 >> 0x28\n104113: u8 [a0 + 0xd] = a3\n104116: a3 = a2 >> 0x20\n104119: u8 [a0 + 0xc] = a3\n104122: a3 = a2 >> 0x18\n104125: u8 [a0 + 0xb] = a3\n104128: a3 = a2 >> 0x10\n104131: u8 [a0 + 0xa] = a3\n104134: a2 = a2 >> 0x8\n104137: u8 [a0 + 0x9] = a2\n104140: u8 [a0] = a1\n104142: a2 = a1 >> 0x38\n104145: u8 [a0 + 0x7] = a2\n104148: a2 = a1 >> 0x30\n104151: u8 [a0 + 0x6] = a2\n104154: a2 = a1 >> 0x28\n104157: u8 [a0 + 0x5] = a2\n104160: a2 = a1 >> 0x20\n104163: u8 [a0 + 0x4] = a2\n104166: a2 = a1 >> 0x18\n104169: u8 [a0 + 0x3] = a2\n104172: a2 = a1 >> 0x10\n104175: u8 [a0 + 0x2] = a2\n104178: a1 = a1 >> 0x8\n104181: a2 = u64 [s1 + 0x48]\n104184: a2 = a2 + 0xffffffffffffffc0\n104187: a3 = u64 [s1 + 0x198]\n104191: a2 = a3 <u a2\n104194: a3 = u64 [s1 + 0x190]\n104198: a2 = 0 if a3 != 0\n104200: a3 = u64 [s1 + 0x160]\n104204: a2 = 0 if a3 != 0\n104206: u8 [a0 + 0x1] = a1\n104209: jump @1290 if a2 == 0\n      : @1262 (gas: 4)\n104213: a0 = u64 [s1 + 0x188]\n104217: i32 a0 = a0 + 0x40\n104220: a1 = 0x20\n104223: ra = 1134, jump @0\n      : @1263 [@dyn 567] (gas: 42)\n104230: u8 [a0 + 31] = 0\n104233: u8 [a0 + 30] = 0\n104236: u8 [a0 + 29] = 0\n104239: u8 [a0 + 28] = 0\n104242: u8 [a0 + 27] = 0\n104245: u8 [a0 + 26] = 0\n104248: u8 [a0 + 25] = 0\n104251: u8 [a0 + 24] = 0\n104254: u8 [a0 + 23] = 0\n104257: u8 [a0 + 22] = 0\n104260: u8 [a0 + 21] = 0\n104263: u8 [a0 + 20] = 0\n104266: u8 [a0 + 19] = 0\n104269: u8 [a0 + 18] = 0\n104272: u8 [a0 + 17] = 0\n104275: u8 [a0 + 16] = 0\n104278: u8 [a0 + 15] = 0\n104281: u8 [a0 + 14] = 0\n104284: u8 [a0 + 13] = 0\n104287: u8 [a0 + 12] = 0\n104290: u8 [a0 + 11] = 0\n104293: u8 [a0 + 10] = 0\n104296: u8 [a0 + 9] = 0\n104299: u8 [a0 + 8] = 0\n104302: u8 [a0 + 7] = 0\n104305: u8 [a0 + 6] = 0\n104308: u8 [a0 + 5] = 0\n104311: u8 [a0 + 4] = 0\n104314: u8 [a0 + 3] = 0\n104317: u8 [a0 + 2] = 0\n104320: u8 [a0 + 1] = 0\n104323: a1 = 0x100000000\n104333: u64 [s1 + 0x48] = a1\n104336: a1 = 0xffffffa0\n104346: a2 = u64 [s1 + 0x198]\n104350: a1 = a2 <u a1\n104353: a2 = u64 [s1 + 0x190]\n104357: a1 = 0 if a2 != 0\n104359: a2 = u64 [s1 + 0x160]\n104363: a1 = 0 if a2 != 0\n104365: u8 [a0 + 0] = 0\n104367: jump @1290 if a1 == 0\n      : @1264 (gas: 4)\n104371: a0 = u64 [s1 + 0x188]\n104375: i32 a0 = a0 + 0x60\n104378: a1 = 0x20\n104381: ra = 1136, jump @0\n      : @1265 [@dyn 568] (gas: 41)\n104388: u8 [a0 + 31] = 0\n104391: u8 [a0 + 30] = 0\n104394: u8 [a0 + 29] = 0\n104397: u8 [a0 + 28] = 0\n104400: u8 [a0 + 27] = 0\n104403: u8 [a0 + 26] = 0\n104406: u8 [a0 + 25] = 0\n104409: u8 [a0 + 24] = 0\n104412: u8 [a0 + 23] = 0\n104415: u8 [a0 + 22] = 0\n104418: u8 [a0 + 21] = 0\n104421: u8 [a0 + 20] = 0\n104424: u8 [a0 + 19] = 0\n104427: u8 [a0 + 18] = 0\n104430: u8 [a0 + 17] = 0\n104433: u8 [a0 + 16] = 0\n104436: u8 [a0 + 15] = 0\n104439: u8 [a0 + 14] = 0\n104442: u8 [a0 + 13] = 0\n104445: u8 [a0 + 12] = 0\n104448: u8 [a0 + 11] = 0\n104451: u8 [a0 + 10] = 0\n104454: u8 [a0 + 9] = 0\n104457: u8 [a0 + 8] = 0\n104460: u8 [a0 + 7] = 0\n104463: u8 [a0 + 6] = 0\n104466: u8 [a0 + 5] = 0\n104469: u8 [a0 + 4] = 0\n104472: u8 [a0 + 3] = 0\n104475: u8 [a0 + 2] = 0\n104478: u8 [a0 + 1] = 0\n104481: a1 = u64 [s1 + 0x48]\n104484: a1 = a1 + 0xffffffffffffff80\n104487: a2 = u64 [s1 + 0x198]\n104491: a1 = a2 <u a1\n104494: a2 = u64 [s1 + 0x190]\n104498: a1 = 0 if a2 != 0\n104500: a2 = u64 [s1 + 0x160]\n104504: a1 = 0 if a2 != 0\n104506: u8 [a0 + 0] = 0\n104508: jump @1290 if a1 == 0\n      : @1266 (gas: 4)\n104512: a0 = u64 [s1 + 0x188]\n104516: i32 a0 = a0 + 0x80\n104520: a1 = 0x20\n104523: ra = 1138, jump @0\n      : @1267 [@dyn 569] (gas: 35)\n104530: u8 [a0 + 31] = 0\n104533: u8 [a0 + 30] = 0\n104536: u8 [a0 + 29] = 0\n104539: u8 [a0 + 28] = 0\n104542: u8 [a0 + 27] = 0\n104545: u8 [a0 + 26] = 0\n104548: u8 [a0 + 25] = 0\n104551: u8 [a0 + 24] = 0\n104554: u8 [a0 + 23] = 0\n104557: u8 [a0 + 22] = 0\n104560: u8 [a0 + 21] = 0\n104563: u8 [a0 + 20] = 0\n104566: u8 [a0 + 19] = 0\n104569: u8 [a0 + 18] = 0\n104572: u8 [a0 + 17] = 0\n104575: u8 [a0 + 16] = 0\n104578: u8 [a0 + 15] = 0\n104581: u8 [a0 + 14] = 0\n104584: u8 [a0 + 13] = 0\n104587: u8 [a0 + 12] = 0\n104590: u8 [a0 + 11] = 0\n104593: u8 [a0 + 10] = 0\n104596: u8 [a0 + 9] = 0\n104599: u8 [a0 + 8] = 0\n104602: u8 [a0 + 7] = 0\n104605: u8 [a0 + 6] = 0\n104608: u8 [a0 + 5] = 0\n104611: u8 [a0 + 4] = 0\n104614: u8 [a0 + 3] = 0\n104617: u8 [a0 + 2] = 0\n104620: u8 [a0 + 1] = 0\n104623: u8 [a0 + 0] = 0\n104625: a1 = 0x20\n104628: a0 = 0\n104630: ra = 1140, jump @0\n      : @1268 [@dyn 570] (gas: 67)\n104637: a1 = u64 [s1 + 0x158]\n104641: u8 [a0 + 0x1f] = a1\n104644: a1 = u64 [s1 + 0x150]\n104648: u8 [a0 + 0x1e] = a1\n104651: a1 = u64 [s1 + 0x148]\n104655: u8 [a0 + 0x1d] = a1\n104658: a1 = u64 [s1 + 0x140]\n104662: u8 [a0 + 0x1c] = a1\n104665: a1 = u64 [s1 + 0x138]\n104669: u8 [a0 + 0x1b] = a1\n104672: a1 = u64 [s1 + 0x130]\n104676: u8 [a0 + 0x1a] = a1\n104679: a1 = u64 [s1 + 0x128]\n104683: u8 [a0 + 0x19] = a1\n104686: a1 = u64 [s1 + 0x120]\n104690: u8 [a0 + 0x17] = a1\n104693: a1 = u64 [s1 + 0x118]\n104697: u8 [a0 + 0x16] = a1\n104700: a1 = u64 [s1 + 0x110]\n104704: u8 [a0 + 0x15] = a1\n104707: a1 = u64 [s1 + 0x108]\n104711: u8 [a0 + 0x14] = a1\n104714: a1 = u64 [s1 + 0x100]\n104718: u8 [a0 + 0x13] = a1\n104721: a1 = u64 [s1 + 0xf8]\n104725: u8 [a0 + 0x12] = a1\n104728: a1 = u64 [s1 + 0xf0]\n104732: u8 [a0 + 0x11] = a1\n104735: a1 = u64 [s1 + 0xe8]\n104739: u8 [a0 + 0xf] = a1\n104742: a1 = u64 [s1 + 0xe0]\n104746: u8 [a0 + 0xe] = a1\n104749: a1 = u64 [s1 + 0xd8]\n104753: u8 [a0 + 0xd] = a1\n104756: a1 = u64 [s1 + 0xd0]\n104760: u8 [a0 + 0xc] = a1\n104763: a1 = u64 [s1 + 0xc8]\n104767: u8 [a0 + 0xb] = a1\n104770: a1 = u64 [s1 + 0xc0]\n104774: u8 [a0 + 0xa] = a1\n104777: a1 = u64 [s1 + 0xb8]\n104781: u8 [a0 + 0x9] = a1\n104784: a1 = u64 [s1 + 0xb0]\n104788: u8 [a0 + 0x7] = a1\n104791: a1 = u64 [s1 + 0xa8]\n104795: u8 [a0 + 0x6] = a1\n104798: a1 = u64 [s1 + 0xa0]\n104802: u8 [a0 + 0x5] = a1\n104805: a1 = u64 [s1 + 0x98]\n104809: u8 [a0 + 0x4] = a1\n104812: a1 = u64 [s1 + 0x90]\n104816: u8 [a0 + 0x3] = a1\n104819: a1 = u64 [s1 + 0x88]\n104823: u8 [a0 + 0x2] = a1\n104826: a1 = u64 [s1 + 0x80]\n104830: u8 [a0 + 0x1] = a1\n104833: a1 = u64 [s1 + 0x168]\n104837: u8 [a0 + 0x18] = a1\n104840: a1 = u64 [s1 + 0x170]\n104844: u8 [a0 + 0x10] = a1\n104847: a1 = u64 [s1 + 0x178]\n104851: u8 [a0 + 0x8] = a1\n104854: a1 = u64 [s1 + 0x180]\n104858: u8 [a0] = a1\n104860: a0 = 0x20\n104863: a1 = 0x20\n104866: ra = 1142, jump @0\n      : @1269 [@dyn 571] (gas: 35)\n104873: u8 [a0 + 31] = 0x3\n104877: u8 [a0 + 30] = 0\n104880: u8 [a0 + 29] = 0\n104883: u8 [a0 + 28] = 0\n104886: u8 [a0 + 27] = 0\n104889: u8 [a0 + 26] = 0\n104892: u8 [a0 + 25] = 0\n104895: u8 [a0 + 24] = 0\n104898: u8 [a0 + 23] = 0\n104901: u8 [a0 + 22] = 0\n104904: u8 [a0 + 21] = 0\n104907: u8 [a0 + 20] = 0\n104910: u8 [a0 + 19] = 0\n104913: u8 [a0 + 18] = 0\n104916: u8 [a0 + 17] = 0\n104919: u8 [a0 + 16] = 0\n104922: u8 [a0 + 15] = 0\n104925: u8 [a0 + 14] = 0\n104928: u8 [a0 + 13] = 0\n104931: u8 [a0 + 12] = 0\n104934: u8 [a0 + 11] = 0\n104937: u8 [a0 + 10] = 0\n104940: u8 [a0 + 9] = 0\n104943: u8 [a0 + 8] = 0\n104946: u8 [a0 + 7] = 0\n104949: u8 [a0 + 6] = 0\n104952: u8 [a0 + 5] = 0\n104955: u8 [a0 + 4] = 0\n104958: u8 [a0 + 3] = 0\n104961: u8 [a0 + 2] = 0\n104964: u8 [a0 + 1] = 0\n104967: u8 [a0 + 0] = 0\n104969: a1 = 0x40\n104972: a0 = 0\n104974: ra = 1144, jump @0\n      : @1270 [@dyn 572] (gas: 15)\n104981: i32 a0 = a0 + 0\n104983: i32 a2 = s1 + 0x360\n104987: a1 = 0x40\n104990: ecalli 8 // 'hash_keccak_256'\n104992: a0 = u64 [s1 + 0x360]\n104996: u64 [s1 + 0x188] = a0\n105000: a0 = u64 [s1 + 0x368]\n105004: u64 [s1 + 0x160] = a0\n105008: a0 = u64 [s1 + 0x370]\n105012: u64 [s1 + 0x158] = a0\n105016: a0 = u64 [s1 + 0x378]\n105020: u64 [s1 + 0x150] = a0\n105024: a1 = 0x20\n105027: a0 = 0\n105029: ra = 1146, jump @0\n      : @1271 [@dyn 573] (gas: 75)\n105036: a1 = u64 [s1 + 0x58]\n105039: a2 = reverse a1\n105041: a1 = u64 [s1 + 0x50]\n105044: a3 = reverse a1\n105046: a1 = u64 [s1 + 0x60]\n105049: a4 = reverse a1\n105051: a1 = u64 [s1 + 0x68]\n105054: a5 = reverse a1\n105056: a1 = a5 >> 0x38\n105059: u8 [a0 + 0x1f] = a1\n105062: a1 = a5 >> 0x30\n105065: u8 [a0 + 0x1e] = a1\n105068: a1 = a5 >> 0x28\n105071: u8 [a0 + 0x1d] = a1\n105074: a1 = a5 >> 0x20\n105077: u8 [a0 + 0x1c] = a1\n105080: a1 = a5 >> 0x18\n105083: u8 [a0 + 0x1b] = a1\n105086: a1 = a5 >> 0x10\n105089: u8 [a0 + 0x1a] = a1\n105092: a1 = a5 >> 0x8\n105095: u8 [a0 + 0x19] = a1\n105098: u64 [s1 + 0x130] = a5\n105102: u8 [a0 + 0x18] = a5\n105105: a1 = a4 >> 0x38\n105108: u8 [a0 + 0x17] = a1\n105111: a1 = a4 >> 0x30\n105114: u8 [a0 + 0x16] = a1\n105117: a1 = a4 >> 0x28\n105120: u8 [a0 + 0x15] = a1\n105123: a1 = a4 >> 0x20\n105126: u8 [a0 + 0x14] = a1\n105129: a1 = a4 >> 0x18\n105132: u8 [a0 + 0x13] = a1\n105135: a1 = a4 >> 0x10\n105138: u8 [a0 + 0x12] = a1\n105141: a1 = a4 >> 0x8\n105144: u8 [a0 + 0x11] = a1\n105147: u64 [s1 + 0x138] = a4\n105151: u8 [a0 + 0x10] = a4\n105154: a1 = a3 >> 0x38\n105157: u8 [a0 + 0xf] = a1\n105160: a1 = a3 >> 0x30\n105163: u8 [a0 + 0xe] = a1\n105166: a1 = a3 >> 0x28\n105169: u8 [a0 + 0xd] = a1\n105172: a1 = a3 >> 0x20\n105175: u8 [a0 + 0xc] = a1\n105178: a1 = a3 >> 0x18\n105181: u8 [a0 + 0xb] = a1\n105184: a1 = a3 >> 0x10\n105187: u8 [a0 + 0xa] = a1\n105190: a1 = a3 >> 0x8\n105193: u8 [a0 + 0x9] = a1\n105196: u64 [s1 + 0x140] = a3\n105200: u8 [a0 + 0x8] = a3\n105203: a1 = a2 >> 0x38\n105206: u8 [a0 + 0x7] = a1\n105209: a1 = a2 >> 0x30\n105212: u8 [a0 + 0x6] = a1\n105215: a1 = a2 >> 0x28\n105218: u8 [a0 + 0x5] = a1\n105221: a1 = a2 >> 0x20\n105224: u8 [a0 + 0x4] = a1\n105227: a1 = a2 >> 0x18\n105230: u8 [a0 + 0x3] = a1\n105233: a1 = a2 >> 0x10\n105236: u8 [a0 + 0x2] = a1\n105239: a1 = a2 >> 0x8\n105242: u8 [a0 + 0x1] = a1\n105245: u64 [s1 + 0x148] = a2\n105249: u8 [a0] = a2\n105251: a0 = 0x20\n105254: a1 = 0x20\n105257: ra = 1148, jump @0\n      : @1272 [@dyn 574] (gas: 67)\n105264: a2 = u64 [s1 + 0x150]\n105268: a1 = a2 >> 0x38\n105271: u8 [a0 + 0x1f] = a1\n105274: a1 = a2 >> 0x30\n105277: u8 [a0 + 0x1e] = a1\n105280: a1 = a2 >> 0x28\n105283: u8 [a0 + 0x1d] = a1\n105286: a1 = a2 >> 0x20\n105289: u8 [a0 + 0x1c] = a1\n105292: a1 = a2 >> 0x18\n105295: u8 [a0 + 0x1b] = a1\n105298: a1 = a2 >> 0x10\n105301: u8 [a0 + 0x1a] = a1\n105304: a1 = a2 >> 0x8\n105307: u8 [a0 + 0x19] = a1\n105310: u8 [a0 + 0x18] = a2\n105313: a2 = u64 [s1 + 0x158]\n105317: a1 = a2 >> 0x38\n105320: u8 [a0 + 0x17] = a1\n105323: a1 = a2 >> 0x30\n105326: u8 [a0 + 0x16] = a1\n105329: a1 = a2 >> 0x28\n105332: u8 [a0 + 0x15] = a1\n105335: a1 = a2 >> 0x20\n105338: u8 [a0 + 0x14] = a1\n105341: a1 = a2 >> 0x18\n105344: u8 [a0 + 0x13] = a1\n105347: a1 = a2 >> 0x10\n105350: u8 [a0 + 0x12] = a1\n105353: a1 = a2 >> 0x8\n105356: u8 [a0 + 0x11] = a1\n105359: u8 [a0 + 0x10] = a2\n105362: a2 = u64 [s1 + 0x160]\n105366: a1 = a2 >> 0x38\n105369: u8 [a0 + 0xf] = a1\n105372: a1 = a2 >> 0x30\n105375: u8 [a0 + 0xe] = a1\n105378: a1 = a2 >> 0x28\n105381: u8 [a0 + 0xd] = a1\n105384: a1 = a2 >> 0x20\n105387: u8 [a0 + 0xc] = a1\n105390: a1 = a2 >> 0x18\n105393: u8 [a0 + 0xb] = a1\n105396: a1 = a2 >> 0x10\n105399: u8 [a0 + 0xa] = a1\n105402: a1 = a2 >> 0x8\n105405: u8 [a0 + 0x9] = a1\n105408: u8 [a0 + 0x8] = a2\n105411: a2 = u64 [s1 + 0x188]\n105415: a1 = a2 >> 0x38\n105418: u8 [a0 + 0x7] = a1\n105421: a1 = a2 >> 0x30\n105424: u8 [a0 + 0x6] = a1\n105427: a1 = a2 >> 0x28\n105430: u8 [a0 + 0x5] = a1\n105433: a1 = a2 >> 0x20\n105436: u8 [a0 + 0x4] = a1\n105439: a1 = a2 >> 0x18\n105442: u8 [a0 + 0x3] = a1\n105445: a1 = a2 >> 0x10\n105448: u8 [a0 + 0x2] = a1\n105451: a1 = a2 >> 0x8\n105454: u8 [a0 + 0x1] = a1\n105457: u8 [a0] = a2\n105459: a1 = 0x40\n105462: a0 = 0\n105464: ra = 1150, jump @0\n      : @1273 [@dyn 575] (gas: 27)\n105471: i32 a0 = a0 + 0\n105473: i32 a2 = s1 + 0x360\n105477: a1 = 0x40\n105480: ecalli 8 // 'hash_keccak_256'\n105482: a0 = u64 [s1 + 0x378]\n105486: a1 = u64 [s1 + 0x370]\n105490: a2 = u64 [s1 + 0x368]\n105494: a3 = u64 [s1 + 0x360]\n105498: a4 = reverse a0\n105500: a0 = reverse a1\n105502: a1 = reverse a2\n105504: a2 = reverse a3\n105506: a3 = u64 [s1 + 0x70]\n105509: u64 [s1 + 0x238] = a3\n105513: a3 = u64 [s1 + 0x78]\n105516: u64 [s1 + 0x230] = a3\n105520: a3 = u64 [s1 + 0x190]\n105524: u64 [s1 + 0x228] = a3\n105528: a3 = u64 [s1 + 0x198]\n105532: u64 [s1 + 0x220] = a3\n105536: u64 [s1 + 0x258] = a2\n105540: u64 [s1 + 0x250] = a1\n105544: u64 [s1 + 0x248] = a0\n105548: a0 = s1 + 0x240\n105552: a1 = s1 + 0x220\n105556: u64 [s1 + 0x240] = a4\n105560: ra = 1152, jump @1224\n      : @1274 [@dyn 576] (gas: 30)\n105566: i32 a0 = s1 + 0x300\n105570: ecalli 5 // 'caller'\n105572: a0 = u32 [s1 + 0x310]\n105576: u64 [s1 + 0x188] = a0\n105580: a0 = u64 [s1 + 0x308]\n105584: u64 [s1 + 0x128] = a0\n105588: a0 = u64 [s1 + 0x300]\n105592: u64 [s1 + 0x198] = a0\n105596: a0 = sp + 0xffffffffffffffe0\n105599: a0 = a0 & 0xffffffffffffffe0\n105602: u64 [s1 + 0x190] = a0\n105606: sp = a0\n105608: u64 [a0 + 24] = 0\n105611: u64 [a0 + 16] = 0\n105614: u64 [a0 + 8] = 0\n105617: u64 [a0 + 0] = 0\n105619: i32 a0 = a0 + 0\n105621: ecalli 16 // 'value_transferred'\n105623: a1 = u64 [s1 + 0x190]\n105627: a0 = u64 [a1 + 0x18]\n105630: u64 [s1 + 0x150] = a0\n105634: a0 = u64 [a1 + 0x10]\n105637: u64 [s1 + 0x158] = a0\n105641: a0 = u64 [a1 + 0x8]\n105644: u64 [s1 + 0x160] = a0\n105648: a0 = u64 [a1]\n105650: u64 [s1 + 0x190] = a0\n105654: a0 = 0x40\n105657: a1 = 0x20\n105660: ra = 1154, jump @0\n      : @1275 [@dyn 577] (gas: 100)\n105667: a1 = u8 [a0 + 0x11]\n105670: a2 = u8 [a0 + 0x10]\n105673: a3 = u8 [a0 + 0x12]\n105676: a4 = u8 [a0 + 0x13]\n105679: a1 = a1 << 0x8\n105682: a1 = a1 | a2\n105685: a3 = a3 << 0x10\n105688: a4 = a4 << 0x18\n105691: a3 = a3 | a4\n105694: a1 = a1 | a3\n105697: a2 = u8 [a0 + 0x15]\n105700: a3 = u8 [a0 + 0x14]\n105703: a4 = u8 [a0 + 0x16]\n105706: a5 = u8 [a0 + 0x17]\n105709: a2 = a2 << 0x8\n105712: a2 = a2 | a3\n105715: a4 = a4 << 0x10\n105718: a5 = a5 << 0x18\n105721: a4 = a4 | a5\n105724: a2 = a2 | a4\n105727: a2 = a2 << 0x20\n105730: t0 = a2 | a1\n105733: a2 = u8 [a0 + 0x1]\n105736: a3 = u8 [a0]\n105738: a4 = u8 [a0 + 0x2]\n105741: a5 = u8 [a0 + 0x3]\n105744: a2 = a2 << 0x8\n105747: a2 = a2 | a3\n105750: a4 = a4 << 0x10\n105753: a5 = a5 << 0x18\n105756: a4 = a4 | a5\n105759: a2 = a2 | a4\n105762: a3 = u8 [a0 + 0x5]\n105765: a4 = u8 [a0 + 0x4]\n105768: a5 = u8 [a0 + 0x6]\n105771: a1 = u8 [a0 + 0x7]\n105774: a3 = a3 << 0x8\n105777: a3 = a3 | a4\n105780: a5 = a5 << 0x10\n105783: a1 = a1 << 0x18\n105786: a1 = a1 | a5\n105789: a1 = a1 | a3\n105792: a1 = a1 << 0x20\n105795: t1 = a1 | a2\n105798: a1 = u8 [a0 + 0x19]\n105801: a3 = u8 [a0 + 0x18]\n105804: a4 = u8 [a0 + 0x1a]\n105807: a5 = u8 [a0 + 0x1b]\n105810: a1 = a1 << 0x8\n105813: a1 = a1 | a3\n105816: a4 = a4 << 0x10\n105819: a5 = a5 << 0x18\n105822: a4 = a4 | a5\n105825: a1 = a1 | a4\n105828: a3 = u8 [a0 + 0x1d]\n105831: a4 = u8 [a0 + 0x1c]\n105834: a5 = u8 [a0 + 0x1e]\n105837: a2 = u8 [a0 + 0x1f]\n105840: a3 = a3 << 0x8\n105843: a3 = a3 | a4\n105846: a5 = a5 << 0x10\n105849: a2 = a2 << 0x18\n105852: a2 = a2 | a5\n105855: a2 = a2 | a3\n105858: a2 = a2 << 0x20\n105861: a3 = a2 | a1\n105864: a1 = u8 [a0 + 0x9]\n105867: a2 = u8 [a0 + 0x8]\n105870: a4 = u8 [a0 + 0xa]\n105873: a5 = u8 [a0 + 0xb]\n105876: a1 = a1 << 0x8\n105879: a1 = a1 | a2\n105882: a4 = a4 << 0x10\n105885: a5 = a5 << 0x18\n105888: a4 = a4 | a5\n105891: a1 = a1 | a4\n105894: a2 = u8 [a0 + 0xd]\n105897: a4 = u8 [a0 + 0xc]\n105900: a5 = u8 [a0 + 0xe]\n105903: a0 = u8 [a0 + 0xf]\n105906: a2 = a2 << 0x8\n105909: a2 = a2 | a4\n105912: a5 = a5 << 0x10\n105915: a0 = a0 << 0x18\n105918: a0 = a0 | a5\n105921: a0 = a0 | a2\n105924: a0 = a0 << 0x20\n105927: a0 = a0 | a1\n105930: a1 = reverse a0\n105932: a0 = reverse a3\n105934: a2 = reverse t1\n105936: a3 = reverse t0\n105938: a2 = a2 | a3\n105941: a3 = a0 | a1\n105944: a3 = a3 | a2\n105947: a3 = a3 >> 0x20\n105950: a1 = a1 | a2\n105953: a1 = a1 << 0x20\n105956: a1 = a1 | a3\n105959: jump @1290 if a1 != 0\n      : @1276 (gas: 18)\n105963: a1 = u64 [s1 + 0x128]\n105967: a1 = reverse a1\n105969: a2 = a1 << 0x20\n105972: a3 = u64 [s1 + 0x188]\n105976: a3 = reverse a3\n105978: a3 = a3 >> 0x20\n105981: a2 = a2 | a3\n105984: u64 [s1 + 0x188] = a2\n105988: a2 = u64 [s1 + 0x198]\n105992: a2 = reverse a2\n105994: a2 = a2 << 0x20\n105997: a1 = a1 >> 0x20\n106000: a1 = a1 | a2\n106003: u64 [s1 + 0x128] = a1\n106007: i32 a0 = a0 + 0\n106009: u64 [s1 + 0x120] = a0\n106013: a1 = 0x20\n106016: ra = 1156, jump @0\n      : @1277 [@dyn 578] (gas: 71)\n106023: a1 = u64 [s1 + 0x150]\n106027: a1 = reverse a1\n106029: a2 = u64 [s1 + 0x158]\n106033: a2 = reverse a2\n106035: a3 = u64 [s1 + 0x160]\n106039: a3 = reverse a3\n106041: a4 = u64 [s1 + 0x190]\n106045: a4 = reverse a4\n106047: a5 = a4 >> 0x38\n106050: u8 [a0 + 0x1f] = a5\n106053: a5 = a4 >> 0x30\n106056: u8 [a0 + 0x1e] = a5\n106059: a5 = a4 >> 0x28\n106062: u8 [a0 + 0x1d] = a5\n106065: a5 = a4 >> 0x20\n106068: u8 [a0 + 0x1c] = a5\n106071: a5 = a4 >> 0x18\n106074: u8 [a0 + 0x1b] = a5\n106077: a5 = a4 >> 0x10\n106080: u8 [a0 + 0x1a] = a5\n106083: a5 = a4 >> 0x8\n106086: u8 [a0 + 0x19] = a5\n106089: u8 [a0 + 0x18] = a4\n106092: u8 [a0 + 0x10] = a3\n106095: a4 = a3 >> 0x38\n106098: u8 [a0 + 0x17] = a4\n106101: a4 = a3 >> 0x30\n106104: u8 [a0 + 0x16] = a4\n106107: a4 = a3 >> 0x28\n106110: u8 [a0 + 0x15] = a4\n106113: a4 = a3 >> 0x20\n106116: u8 [a0 + 0x14] = a4\n106119: a4 = a3 >> 0x18\n106122: u8 [a0 + 0x13] = a4\n106125: a4 = a3 >> 0x10\n106128: u8 [a0 + 0x12] = a4\n106131: a3 = a3 >> 0x8\n106134: u8 [a0 + 0x11] = a3\n106137: u8 [a0 + 0x8] = a2\n106140: a3 = a2 >> 0x38\n106143: u8 [a0 + 0xf] = a3\n106146: a3 = a2 >> 0x30\n106149: u8 [a0 + 0xe] = a3\n106152: a3 = a2 >> 0x28\n106155: u8 [a0 + 0xd] = a3\n106158: a3 = a2 >> 0x20\n106161: u8 [a0 + 0xc] = a3\n106164: a3 = a2 >> 0x18\n106167: u8 [a0 + 0xb] = a3\n106170: a3 = a2 >> 0x10\n106173: u8 [a0 + 0xa] = a3\n106176: a2 = a2 >> 0x8\n106179: u8 [a0 + 0x9] = a2\n106182: u8 [a0] = a1\n106184: a2 = a1 >> 0x38\n106187: u8 [a0 + 0x7] = a2\n106190: a2 = a1 >> 0x30\n106193: u8 [a0 + 0x6] = a2\n106196: a2 = a1 >> 0x28\n106199: u8 [a0 + 0x5] = a2\n106202: a2 = a1 >> 0x20\n106205: u8 [a0 + 0x4] = a2\n106208: a2 = a1 >> 0x18\n106211: u8 [a0 + 0x3] = a2\n106214: a2 = a1 >> 0x10\n106217: u8 [a0 + 0x2] = a2\n106220: a1 = a1 >> 0x8\n106223: u8 [a0 + 0x1] = a1\n106226: a1 = 0x20\n106229: a0 = u64 [s1 + 0x120]\n106233: ra = 1158, jump @0\n      : @1278 [@dyn 579] (gas: 54)\n106240: a1 = u64 [0x200a0]\n106245: a2 = u64 [0x200a8]\n106250: a3 = u64 [0x200b0]\n106255: a4 = u64 [0x200b8]\n106260: u64 [s1 + 0x378] = a1\n106264: u64 [s1 + 0x370] = a2\n106268: u64 [s1 + 0x368] = a3\n106272: u64 [s1 + 0x360] = a4\n106276: a1 = u64 [s1 + 0x168]\n106280: u64 [s1 + 0x398] = a1\n106284: a1 = u64 [s1 + 0x170]\n106288: u64 [s1 + 0x390] = a1\n106292: a1 = u64 [s1 + 0x178]\n106296: u64 [s1 + 0x388] = a1\n106300: a1 = u64 [s1 + 0x180]\n106304: u64 [s1 + 0x380] = a1\n106308: a1 = u64 [s1 + 0x130]\n106312: u64 [s1 + 0x3b8] = a1\n106316: a1 = u64 [s1 + 0x138]\n106320: u64 [s1 + 0x3b0] = a1\n106324: a1 = u64 [s1 + 0x140]\n106328: u64 [s1 + 0x3a8] = a1\n106332: a1 = u64 [s1 + 0x148]\n106336: u64 [s1 + 0x3a0] = a1\n106340: a1 = u64 [s1 + 0x188]\n106344: a1 = reverse a1\n106346: u64 [s1 + 0x3d8] = a1\n106350: a1 = u64 [s1 + 0x128]\n106354: a1 = reverse a1\n106356: u64 [s1 + 0x3d0] = a1\n106360: a1 = u64 [s1 + 0x198]\n106364: a1 = a1 << 0x20\n106367: u64 [s1 + 0x3c8] = a1\n106371: u64 [s1 + 960] = 0\n106375: i32 a2 = a0 + 0\n106377: i32 a0 = s1 + 0x360\n106381: a1 = 0x4\n106384: a3 = 0x20\n106387: ecalli 6 // 'deposit_event'\n106389: a0 = u64 [s1 + 0x18]\n106392: a1 = u64 [s1 + 0x58]\n106395: u64 [a0 + 0x18] = a1\n106398: a1 = u64 [s1 + 0x50]\n106401: u64 [a0 + 0x10] = a1\n106404: a1 = u64 [s1 + 0x60]\n106407: u64 [a0 + 0x8] = a1\n106410: a1 = u64 [s1 + 0x68]\n106413: u64 [a0] = a1\n106415: sp = s0 + 0xfffffffffffffc00\n106419: ra = u64 [sp + 0x3f8]\n106423: s0 = u64 [sp + 0x3f0]\n106427: s1 = u64 [sp + 0x3e8]\n106431: sp = sp + 0x400\n106435: ret\n      : @1279 (gas: 3)\n106437: a0 = 0x40\n106440: a1 = 0x20\n106443: ra = 1160, jump @0\n      : @1280 [@dyn 580] (gas: 104)\n106450: a1 = u8 [a0 + 0x11]\n106453: a2 = u8 [a0 + 0x10]\n106456: a3 = u8 [a0 + 0x12]\n106459: a4 = u8 [a0 + 0x13]\n106462: a1 = a1 << 0x8\n106465: a1 = a1 | a2\n106468: a3 = a3 << 0x10\n106471: a4 = a4 << 0x18\n106474: a3 = a3 | a4\n106477: a1 = a1 | a3\n106480: a2 = u8 [a0 + 0x15]\n106483: a3 = u8 [a0 + 0x14]\n106486: a4 = u8 [a0 + 0x16]\n106489: a5 = u8 [a0 + 0x17]\n106492: a2 = a2 << 0x8\n106495: a2 = a2 | a3\n106498: a4 = a4 << 0x10\n106501: a5 = a5 << 0x18\n106504: a4 = a4 | a5\n106507: a2 = a2 | a4\n106510: a2 = a2 << 0x20\n106513: t0 = a2 | a1\n106516: a2 = u8 [a0 + 0x1]\n106519: a3 = u8 [a0]\n106521: a4 = u8 [a0 + 0x2]\n106524: a5 = u8 [a0 + 0x3]\n106527: a2 = a2 << 0x8\n106530: a2 = a2 | a3\n106533: a4 = a4 << 0x10\n106536: a5 = a5 << 0x18\n106539: a4 = a4 | a5\n106542: a2 = a2 | a4\n106545: a3 = u8 [a0 + 0x5]\n106548: a4 = u8 [a0 + 0x4]\n106551: a5 = u8 [a0 + 0x6]\n106554: a1 = u8 [a0 + 0x7]\n106557: a3 = a3 << 0x8\n106560: a3 = a3 | a4\n106563: a5 = a5 << 0x10\n106566: a1 = a1 << 0x18\n106569: a1 = a1 | a5\n106572: a1 = a1 | a3\n106575: a1 = a1 << 0x20\n106578: t1 = a1 | a2\n106581: a1 = u8 [a0 + 0x19]\n106584: a3 = u8 [a0 + 0x18]\n106587: a4 = u8 [a0 + 0x1a]\n106590: a5 = u8 [a0 + 0x1b]\n106593: a1 = a1 << 0x8\n106596: a1 = a1 | a3\n106599: a4 = a4 << 0x10\n106602: a5 = a5 << 0x18\n106605: a4 = a4 | a5\n106608: a1 = a1 | a4\n106611: a3 = u8 [a0 + 0x1d]\n106614: a4 = u8 [a0 + 0x1c]\n106617: a5 = u8 [a0 + 0x1e]\n106620: a2 = u8 [a0 + 0x1f]\n106623: a3 = a3 << 0x8\n106626: a3 = a3 | a4\n106629: a5 = a5 << 0x10\n106632: a2 = a2 << 0x18\n106635: a2 = a2 | a5\n106638: a2 = a2 | a3\n106641: a2 = a2 << 0x20\n106644: a3 = a2 | a1\n106647: a1 = u8 [a0 + 0x9]\n106650: a2 = u8 [a0 + 0x8]\n106653: a4 = u8 [a0 + 0xa]\n106656: a5 = u8 [a0 + 0xb]\n106659: a1 = a1 << 0x8\n106662: a1 = a1 | a2\n106665: a4 = a4 << 0x10\n106668: a5 = a5 << 0x18\n106671: a4 = a4 | a5\n106674: a1 = a1 | a4\n106677: a2 = u8 [a0 + 0xd]\n106680: a4 = u8 [a0 + 0xc]\n106683: a5 = u8 [a0 + 0xe]\n106686: a0 = u8 [a0 + 0xf]\n106689: a2 = a2 << 0x8\n106692: a2 = a2 | a4\n106695: a5 = a5 << 0x10\n106698: a0 = a0 << 0x18\n106701: a0 = a0 | a5\n106704: a0 = a0 | a2\n106707: a0 = a0 << 0x20\n106710: a0 = a0 | a1\n106713: a4 = reverse a0\n106715: a1 = reverse a3\n106717: a2 = reverse t1\n106719: a0 = reverse t0\n106721: u64 [s1 + 0x198] = a0\n106725: u64 [s1 + 0x188] = a2\n106729: a0 = a0 | a2\n106732: a2 = a1\n106734: a1 = a1 | a4\n106737: a1 = a1 | a0\n106740: a1 = a1 >> 0x20\n106743: u64 [s1 + 0x190] = a4\n106747: a0 = a0 | a4\n106750: a0 = a0 << 0x20\n106753: a0 = a0 | a1\n106756: jump @1290 if a0 != 0\n      : @1281 (gas: 5)\n106760: u64 [s1 + 0x180] = a2\n106764: i32 a0 = a2 + 0\n106766: a1 = 0x20\n106769: u64 [s1 + 0x178] = a0\n106773: ra = 1162, jump @0\n      : @1282 [@dyn 581] (gas: 51)\n106780: u8 [a0 + 31] = 0\n106783: u8 [a0 + 30] = 0\n106786: u8 [a0 + 29] = 0\n106789: u8 [a0 + 28] = 0\n106792: u8 [a0 + 27] = 0\n106795: u8 [a0 + 26] = 0\n106798: u8 [a0 + 25] = 0\n106801: u8 [a0 + 24] = 0\n106804: u8 [a0 + 23] = 0\n106807: u8 [a0 + 22] = 0\n106810: u8 [a0 + 21] = 0\n106813: u8 [a0 + 20] = 0\n106816: u8 [a0 + 19] = 0\n106819: u8 [a0 + 18] = 0\n106822: u8 [a0 + 17] = 0\n106825: u8 [a0 + 16] = 0\n106828: u8 [a0 + 15] = 0\n106831: u8 [a0 + 14] = 0\n106834: u8 [a0 + 13] = 0\n106837: u8 [a0 + 12] = 0\n106840: u8 [a0 + 11] = 0\n106843: u8 [a0 + 10] = 0\n106846: u8 [a0 + 9] = 0\n106849: u8 [a0 + 8] = 0\n106852: u8 [a0 + 7] = 0\n106855: u8 [a0 + 6] = 0\n106858: u8 [a0 + 5] = 0\n106861: u8 [a0 + 4] = 0\n106864: u8 [a0 + 3] = 0xa0\n106869: u8 [a0 + 2] = 0x79\n106873: u8 [a0 + 1] = 0xc3\n106878: u8 [a0 + 0] = 0x8\n106881: a1 = u64 [s1 + 0x180]\n106885: a0 = a1 + 0x4\n106888: a1 = a0 <u a1\n106891: a3 = u64 [s1 + 0x198]\n106895: a2 = a3 + a1\n106898: a3 = a2 <u a3\n106901: a3 = a1 if a1 == 0\n106904: a1 = u64 [s1 + 0x190]\n106908: a3 = a3 + a1\n106911: a1 = a3 <u a1\n106914: a4 = u64 [s1 + 0x188]\n106918: a4 = a4 + a1\n106921: u64 [s1 + 0x1a8] = a2\n106925: u64 [s1 + 0x1a0] = a0\n106929: u64 [s1 + 0x1b0] = a3\n106933: a0 = s1 + 0x1c0\n106937: a1 = s1 + 0x1a0\n106941: u64 [s1 + 0x1b8] = a4\n106945: ra = 1164, jump @1208\n      : @1283 [@dyn 582] (gas: 5)\n106951: a0 = u64 [s1 + 0x1c8]\n106955: t0 = u64 [s1 + 0x1d8]\n106959: t1 = u64 [s1 + 0x1c0]\n106963: a3 = u64 [s1 + 0x1d0]\n106967: jump @1289\n      : @1284 (gas: 3)\n106970: a0 = 0x40\n106973: a1 = 0x20\n106976: ra = 1166, jump @0\n      : @1285 [@dyn 583] (gas: 104)\n106983: a1 = u8 [a0 + 0x11]\n106986: a2 = u8 [a0 + 0x10]\n106989: a3 = u8 [a0 + 0x12]\n106992: a4 = u8 [a0 + 0x13]\n106995: a1 = a1 << 0x8\n106998: a1 = a1 | a2\n107001: a3 = a3 << 0x10\n107004: a4 = a4 << 0x18\n107007: a3 = a3 | a4\n107010: a1 = a1 | a3\n107013: a2 = u8 [a0 + 0x15]\n107016: a3 = u8 [a0 + 0x14]\n107019: a4 = u8 [a0 + 0x16]\n107022: a5 = u8 [a0 + 0x17]\n107025: a2 = a2 << 0x8\n107028: a2 = a2 | a3\n107031: a4 = a4 << 0x10\n107034: a5 = a5 << 0x18\n107037: a4 = a4 | a5\n107040: a2 = a2 | a4\n107043: a2 = a2 << 0x20\n107046: t0 = a2 | a1\n107049: a2 = u8 [a0 + 0x1]\n107052: a3 = u8 [a0]\n107054: a4 = u8 [a0 + 0x2]\n107057: a5 = u8 [a0 + 0x3]\n107060: a2 = a2 << 0x8\n107063: a2 = a2 | a3\n107066: a4 = a4 << 0x10\n107069: a5 = a5 << 0x18\n107072: a4 = a4 | a5\n107075: a2 = a2 | a4\n107078: a3 = u8 [a0 + 0x5]\n107081: a4 = u8 [a0 + 0x4]\n107084: a5 = u8 [a0 + 0x6]\n107087: a1 = u8 [a0 + 0x7]\n107090: a3 = a3 << 0x8\n107093: a3 = a3 | a4\n107096: a5 = a5 << 0x10\n107099: a1 = a1 << 0x18\n107102: a1 = a1 | a5\n107105: a1 = a1 | a3\n107108: a1 = a1 << 0x20\n107111: t1 = a1 | a2\n107114: a1 = u8 [a0 + 0x19]\n107117: a3 = u8 [a0 + 0x18]\n107120: a4 = u8 [a0 + 0x1a]\n107123: a5 = u8 [a0 + 0x1b]\n107126: a1 = a1 << 0x8\n107129: a1 = a1 | a3\n107132: a4 = a4 << 0x10\n107135: a5 = a5 << 0x18\n107138: a4 = a4 | a5\n107141: a1 = a1 | a4\n107144: a3 = u8 [a0 + 0x1d]\n107147: a4 = u8 [a0 + 0x1c]\n107150: a5 = u8 [a0 + 0x1e]\n107153: a2 = u8 [a0 + 0x1f]\n107156: a3 = a3 << 0x8\n107159: a3 = a3 | a4\n107162: a5 = a5 << 0x10\n107165: a2 = a2 << 0x18\n107168: a2 = a2 | a5\n107171: a2 = a2 | a3\n107174: a2 = a2 << 0x20\n107177: a3 = a2 | a1\n107180: a1 = u8 [a0 + 0x9]\n107183: a2 = u8 [a0 + 0x8]\n107186: a4 = u8 [a0 + 0xa]\n107189: a5 = u8 [a0 + 0xb]\n107192: a1 = a1 << 0x8\n107195: a1 = a1 | a2\n107198: a4 = a4 << 0x10\n107201: a5 = a5 << 0x18\n107204: a4 = a4 | a5\n107207: a1 = a1 | a4\n107210: a2 = u8 [a0 + 0xd]\n107213: a4 = u8 [a0 + 0xc]\n107216: a5 = u8 [a0 + 0xe]\n107219: a0 = u8 [a0 + 0xf]\n107222: a2 = a2 << 0x8\n107225: a2 = a2 | a4\n107228: a5 = a5 << 0x10\n107231: a0 = a0 << 0x18\n107234: a0 = a0 | a5\n107237: a0 = a0 | a2\n107240: a0 = a0 << 0x20\n107243: a0 = a0 | a1\n107246: a4 = reverse a0\n107248: a1 = reverse a3\n107250: a2 = reverse t1\n107252: a0 = reverse t0\n107254: u64 [s1 + 0x198] = a0\n107258: u64 [s1 + 0x188] = a2\n107262: a0 = a0 | a2\n107265: a2 = a1\n107267: a1 = a1 | a4\n107270: a1 = a1 | a0\n107273: a1 = a1 >> 0x20\n107276: u64 [s1 + 0x190] = a4\n107280: a0 = a0 | a4\n107283: a0 = a0 << 0x20\n107286: a0 = a0 | a1\n107289: jump @1290 if a0 != 0\n      : @1286 (gas: 5)\n107293: u64 [s1 + 0x180] = a2\n107297: i32 a0 = a2 + 0\n107299: a1 = 0x20\n107302: u64 [s1 + 0x178] = a0\n107306: ra = 1168, jump @0\n      : @1287 [@dyn 584] (gas: 51)\n107313: u8 [a0 + 31] = 0\n107316: u8 [a0 + 30] = 0\n107319: u8 [a0 + 29] = 0\n107322: u8 [a0 + 28] = 0\n107325: u8 [a0 + 27] = 0\n107328: u8 [a0 + 26] = 0\n107331: u8 [a0 + 25] = 0\n107334: u8 [a0 + 24] = 0\n107337: u8 [a0 + 23] = 0\n107340: u8 [a0 + 22] = 0\n107343: u8 [a0 + 21] = 0\n107346: u8 [a0 + 20] = 0\n107349: u8 [a0 + 19] = 0\n107352: u8 [a0 + 18] = 0\n107355: u8 [a0 + 17] = 0\n107358: u8 [a0 + 16] = 0\n107361: u8 [a0 + 15] = 0\n107364: u8 [a0 + 14] = 0\n107367: u8 [a0 + 13] = 0\n107370: u8 [a0 + 12] = 0\n107373: u8 [a0 + 11] = 0\n107376: u8 [a0 + 10] = 0\n107379: u8 [a0 + 9] = 0\n107382: u8 [a0 + 8] = 0\n107385: u8 [a0 + 7] = 0\n107388: u8 [a0 + 6] = 0\n107391: u8 [a0 + 5] = 0\n107394: u8 [a0 + 4] = 0\n107397: u8 [a0 + 3] = 0xa0\n107402: u8 [a0 + 2] = 0x79\n107406: u8 [a0 + 1] = 0xc3\n107411: u8 [a0 + 0] = 0x8\n107414: a1 = u64 [s1 + 0x180]\n107418: a0 = a1 + 0x4\n107421: a1 = a0 <u a1\n107424: a3 = u64 [s1 + 0x198]\n107428: a2 = a3 + a1\n107431: a3 = a2 <u a3\n107434: a3 = a1 if a1 == 0\n107437: a1 = u64 [s1 + 0x190]\n107441: a3 = a3 + a1\n107444: a1 = a3 <u a1\n107447: a4 = u64 [s1 + 0x188]\n107451: a4 = a4 + a1\n107454: u64 [s1 + 0x2a8] = a2\n107458: u64 [s1 + 0x2a0] = a0\n107462: u64 [s1 + 0x2b0] = a3\n107466: a0 = s1 + 0x2c0\n107470: a1 = s1 + 0x2a0\n107474: u64 [s1 + 0x2b8] = a4\n107478: ra = 1170, jump @1216\n      : @1288 [@dyn 585] (gas: 5)\n107484: a0 = u64 [s1 + 0x2c8]\n107488: t0 = u64 [s1 + 0x2d8]\n107492: t1 = u64 [s1 + 0x2c0]\n107496: a3 = u64 [s1 + 0x2d0]\n107500: fallthrough\n      : @1289 (gas: 27)\n107501: a1 = u64 [s1 + 0x198]\n107505: a4 = a0 ^ a1\n107508: a5 = a0 <u a1\n107511: ra = a1\n107513: t2 = u64 [s1 + 0x180]\n107517: a1 = t1 <u t2\n107520: a5 = a1 if a4 == 0\n107523: a2 = u64 [s1 + 0x190]\n107527: a4 = a3 - a2\n107530: a3 = a3 <u a2\n107533: a2 = u64 [s1 + 0x188]\n107537: a2 = t0 - a2\n107540: a2 = a2 - a3\n107543: a3 = a4 <u a5\n107546: a2 = a2 - a3\n107549: a4 = a4 - a5\n107552: a0 = a0 - ra\n107555: a1 = a0 - a1\n107558: a0 = t1 - t2\n107561: a1 = a1 | a2\n107564: a2 = a0 | a4\n107567: a2 = a2 | a1\n107570: a1 = a1 | a4\n107573: a2 = a2 >> 0x20\n107576: a1 = a1 << 0x20\n107579: a1 = a1 | a2\n107582: jump @1295 if a1 == 0\n      : @1290 (gas: 1)\n107585: trap\n      : @1291 (gas: 8)\n107586: u64 [s1 + 528] = 0\n107590: u64 [s1 + 520] = 0\n107594: u64 [s1 + 512] = 0\n107598: a0 = 0x4e487b7100000000\n107608: a1 = s1 + 0x200\n107612: u64 [s1 + 0x218] = a0\n107616: a0 = 0\n107618: ra = 1172, jump @23\n      : @1292 [@dyn 586] (gas: 7)\n107625: u64 [s1 + 504] = 0\n107629: u64 [s1 + 496] = 0\n107633: u64 [s1 + 480] = 0x11\n107638: a0 = 0x4\n107641: a1 = s1 + 0x1e0\n107645: u64 [s1 + 488] = 0\n107649: ra = 1174, jump @23\n      : @1293 [@dyn 587] (gas: 3)\n107656: a1 = 0x24\n107659: a0 = 0\n107661: ra = 1176, jump @0\n      : @1294 [@dyn 588] (gas: 5)\n107668: i32 a1 = a0 + 0\n107670: a0 = 0x1\n107673: a2 = 0x24\n107676: ecalli 13 // 'seal_return'\n107678: fallthrough\n      : @1295 (gas: 4)\n107679: i32 a1 = a0 + 0\n107681: u64 [s1 + 0x198] = a1\n107685: a0 = u64 [s1 + 0x178]\n107689: ra = 1178, jump @0\n      : @1296 [@dyn 589] (gas: 6)\n107696: i32 a1 = a0 + 0\n107698: a0 = 0x1\n107701: a2 = u64 [s1 + 0x198]\n107705: ra = 0x49c\n107709: ecalli 13 // 'seal_return'\n107711: fallthrough\n      : @1297 [@dyn 590] (gas: 22)\n107712: sp = sp + 0xffffffffffffff80\n107715: u64 [sp + 0x78] = ra\n107718: u64 [sp + 0x70] = s0\n107721: u64 [sp + 0x68] = s1\n107724: s0 = sp + 0x80\n107728: sp = sp & 0xfffffffffffffff0\n107731: a2 = u64 [a1]\n107733: a3 = u64 [a1 + 0x8]\n107736: a4 = u64 [a1 + 0x10]\n107739: a1 = u64 [a1 + 0x18]\n107742: s1 = a0\n107744: u64 [sp + 0x18] = a1\n107747: u64 [sp + 0x10] = a4\n107750: u64 [sp + 0x8] = a3\n107753: u64 [sp] = a2\n107755: u64 [sp + 56] = 0\n107758: u64 [sp + 48] = 0\n107761: u64 [sp + 40] = 0\n107764: a0 = sp + 0x40\n107767: a2 = sp\n107769: u64 [sp + 32] = 0\n107772: ra = 1182, jump @1192\n      : @1298 [@dyn 591] (gas: 14)\n107778: a0 = u64 [sp + 0x50]\n107781: a1 = u64 [sp + 0x58]\n107784: a2 = u64 [sp + 0x40]\n107787: a3 = u64 [sp + 0x48]\n107790: u64 [s1 + 0x10] = a0\n107793: u64 [s1 + 0x18] = a1\n107796: u64 [s1] = a2\n107798: u64 [s1 + 0x8] = a3\n107801: sp = s0 + 0xffffffffffffff80\n107804: ra = u64 [sp + 0x78]\n107807: s0 = u64 [sp + 0x70]\n107810: s1 = u64 [sp + 0x68]\n107813: sp = sp + 0x80\n107817: ret\n      : @1299 (gas: 12)\n107819: a0 = u64 [sp + 0x70]\n107822: a1 = u64 [sp + 0x78]\n107825: a0 = a0 | a1\n107828: a1 = u64 [sp + 0x98]\n107832: a1 = a1 | s1\n107835: a1 = a1 | a0\n107838: a1 = a1 >> 0x20\n107841: u64 [sp + 0x68] = s1\n107844: a0 = a0 | s1\n107847: a0 = a0 << 0x20\n107850: a0 = a0 | a1\n107853: jump @1313 if a0 != 0\n      : @1300 (gas: 11)\n107857: s1 = u64 [sp + 0xd8]\n107861: u64 [sp + 0x80] = s1\n107865: a0 = u64 [sp + 0xd0]\n107869: u64 [sp + 0x90] = a0\n107873: a0 = u64 [sp + 0xc8]\n107877: u64 [sp + 0x60] = a0\n107880: a0 = u64 [sp + 0xc0]\n107884: u64 [sp + 0x88] = a0\n107888: a0 = i32 [sp + 0x98]\n107892: a1 = 0x20\n107895: ra = 1184, jump @0\n      : @1301 [@dyn 592] (gas: 70)\n107902: a1 = reverse s1\n107904: a2 = u64 [sp + 0x90]\n107908: a2 = reverse a2\n107910: s1 = u64 [sp + 0x60]\n107913: a3 = reverse s1\n107915: a4 = u64 [sp + 0x88]\n107919: a4 = reverse a4\n107921: a5 = a4 >> 0x38\n107924: u8 [a0 + 0x1f] = a5\n107927: a5 = a4 >> 0x30\n107930: u8 [a0 + 0x1e] = a5\n107933: a5 = a4 >> 0x28\n107936: u8 [a0 + 0x1d] = a5\n107939: a5 = a4 >> 0x20\n107942: u8 [a0 + 0x1c] = a5\n107945: a5 = a4 >> 0x18\n107948: u8 [a0 + 0x1b] = a5\n107951: a5 = a4 >> 0x10\n107954: u8 [a0 + 0x1a] = a5\n107957: a5 = a4 >> 0x8\n107960: u8 [a0 + 0x19] = a5\n107963: u8 [a0 + 0x18] = a4\n107966: u8 [a0 + 0x10] = a3\n107969: a4 = a3 >> 0x38\n107972: u8 [a0 + 0x17] = a4\n107975: a4 = a3 >> 0x30\n107978: u8 [a0 + 0x16] = a4\n107981: a4 = a3 >> 0x28\n107984: u8 [a0 + 0x15] = a4\n107987: a4 = a3 >> 0x20\n107990: u8 [a0 + 0x14] = a4\n107993: a4 = a3 >> 0x18\n107996: u8 [a0 + 0x13] = a4\n107999: a4 = a3 >> 0x10\n108002: u8 [a0 + 0x12] = a4\n108005: a3 = a3 >> 0x8\n108008: u8 [a0 + 0x11] = a3\n108011: u8 [a0 + 0x8] = a2\n108014: a3 = a2 >> 0x38\n108017: u8 [a0 + 0xf] = a3\n108020: a3 = a2 >> 0x30\n108023: u8 [a0 + 0xe] = a3\n108026: a3 = a2 >> 0x28\n108029: u8 [a0 + 0xd] = a3\n108032: a3 = a2 >> 0x20\n108035: u8 [a0 + 0xc] = a3\n108038: a3 = a2 >> 0x18\n108041: u8 [a0 + 0xb] = a3\n108044: a3 = a2 >> 0x10\n108047: u8 [a0 + 0xa] = a3\n108050: a2 = a2 >> 0x8\n108053: u8 [a0 + 0x9] = a2\n108056: u8 [a0] = a1\n108058: a2 = a1 >> 0x38\n108061: u8 [a0 + 0x7] = a2\n108064: a2 = a1 >> 0x30\n108067: u8 [a0 + 0x6] = a2\n108070: a2 = a1 >> 0x28\n108073: u8 [a0 + 0x5] = a2\n108076: a2 = a1 >> 0x20\n108079: u8 [a0 + 0x4] = a2\n108082: a2 = a1 >> 0x18\n108085: u8 [a0 + 0x3] = a2\n108088: a2 = a1 >> 0x10\n108091: u8 [a0 + 0x2] = a2\n108094: a1 = a1 >> 0x8\n108097: u8 [a0 + 0x1] = a1\n108100: a1 = 0x20\n108103: a0 = 0\n108105: ra = 1186, jump @0\n      : @1302 [@dyn 593] (gas: 71)\n108112: a1 = u64 [sp + 0x40]\n108115: a1 = reverse a1\n108117: a2 = u64 [sp + 0x48]\n108120: a2 = reverse a2\n108122: a3 = u64 [sp + 0x50]\n108125: a3 = reverse a3\n108127: a4 = u64 [sp + 0x58]\n108130: a4 = reverse a4\n108132: a5 = a4 >> 0x38\n108135: u8 [a0 + 0x1f] = a5\n108138: a5 = a4 >> 0x30\n108141: u8 [a0 + 0x1e] = a5\n108144: a5 = a4 >> 0x28\n108147: u8 [a0 + 0x1d] = a5\n108150: a5 = a4 >> 0x20\n108153: u8 [a0 + 0x1c] = a5\n108156: a5 = a4 >> 0x18\n108159: u8 [a0 + 0x1b] = a5\n108162: a5 = a4 >> 0x10\n108165: u8 [a0 + 0x1a] = a5\n108168: a5 = a4 >> 0x8\n108171: u8 [a0 + 0x19] = a5\n108174: u8 [a0 + 0x18] = a4\n108177: a4 = a3 >> 0x38\n108180: u8 [a0 + 0x17] = a4\n108183: a4 = a3 >> 0x30\n108186: u8 [a0 + 0x16] = a4\n108189: a4 = a3 >> 0x28\n108192: u8 [a0 + 0x15] = a4\n108195: a4 = a3 >> 0x20\n108198: u8 [a0 + 0x14] = a4\n108201: a4 = a3 >> 0x18\n108204: u8 [a0 + 0x13] = a4\n108207: a4 = a3 >> 0x10\n108210: u8 [a0 + 0x12] = a4\n108213: a4 = a3 >> 0x8\n108216: u8 [a0 + 0x11] = a4\n108219: u8 [a0 + 0x10] = a3\n108222: a3 = a2 >> 0x38\n108225: u8 [a0 + 0xf] = a3\n108228: a3 = a2 >> 0x30\n108231: u8 [a0 + 0xe] = a3\n108234: a3 = a2 >> 0x28\n108237: u8 [a0 + 0xd] = a3\n108240: a3 = a2 >> 0x20\n108243: u8 [a0 + 0xc] = a3\n108246: a3 = a2 >> 0x18\n108249: u8 [a0 + 0xb] = a3\n108252: a3 = a2 >> 0x10\n108255: u8 [a0 + 0xa] = a3\n108258: a3 = a2 >> 0x8\n108261: u8 [a0 + 0x9] = a3\n108264: u8 [a0 + 0x8] = a2\n108267: a2 = a1 >> 0x38\n108270: u8 [a0 + 0x7] = a2\n108273: a2 = a1 >> 0x30\n108276: u8 [a0 + 0x6] = a2\n108279: a2 = a1 >> 0x28\n108282: u8 [a0 + 0x5] = a2\n108285: a2 = a1 >> 0x20\n108288: u8 [a0 + 0x4] = a2\n108291: a2 = a1 >> 0x18\n108294: u8 [a0 + 0x3] = a2\n108297: a2 = a1 >> 0x10\n108300: u8 [a0 + 0x2] = a2\n108303: a2 = a1 >> 0x8\n108306: u8 [a0 + 0x1] = a2\n108309: u8 [a0] = a1\n108311: a1 = 0x20\n108314: a0 = 0\n108316: ra = 1188, jump @0\n      : @1303 [@dyn 594] (gas: 5)\n108323: i32 a0 = a0 + 0\n108325: i32 a2 = sp + 0xc0\n108329: a1 = 0x20\n108332: ecalli 8 // 'hash_keccak_256'\n108334: fallthrough\n      : @1304 (gas: 20)\n108335: a1 = u64 [sp + 0x98]\n108339: a0 = a1 + 0x20\n108342: u64 [sp + 0x50] = a0\n108345: a2 = a0 <u a1\n108348: a1 = u64 [sp + 0x78]\n108351: t2 = a1 + a2\n108354: a3 = t2 <u a1\n108357: a3 = a2 if a2 == 0\n108360: a2 = u64 [sp + 0x68]\n108363: ra = a2 + a3\n108366: a0 = u64 [sp + 0x90]\n108370: a3 = u64 [sp + 0x88]\n108374: a3 = a3 | a0\n108377: a0 = u64 [sp + 0x80]\n108381: a4 = s1 | a0\n108384: a4 = a4 | a3\n108387: a3 = ra <u a2\n108390: t1 = u64 [sp + 0x70]\n108393: a3 = a3 + t1\n108396: jump @1311 if a4 == 0\n      : @1305 (gas: 161)\n108400: a0 = 0xffffffe0\n108410: a4 = u64 [sp + 0x98]\n108414: s1 = a0 <u a4\n108417: u64 [sp + 0x40] = s1\n108420: a5 = a1 >u 0\n108422: a5 = s1 if a1 == 0\n108425: s1 = -a2\n108427: a1 = s1 - a5\n108430: u64 [sp + 0x58] = a1\n108433: t0 = a1 >u 0\n108435: a5 = s1 <u a5\n108438: s1 = a2 >u 0\n108440: s1 = s1 + t1\n108443: s1 = -s1\n108445: s1 = s1 - a5\n108448: t1 = s1 >u 0\n108450: t1 = t0 if s1 == 0\n108453: a2 = s1\n108455: u64 [sp + 0x48] = s1\n108458: t0 = a0 - a4\n108461: a1 = u64 [sp + 0x78]\n108464: a5 = -a1\n108466: a1 = u64 [sp + 0x40]\n108469: a4 = a5 - a1\n108472: u64 [sp + 0x40] = a0\n108475: s1 = a0 <u t0\n108478: a5 = a4 >u 0\n108480: a5 = s1 if a4 == 0\n108483: a1 = u64 [sp + 0x58]\n108486: s1 = a1 | a2\n108489: a5 = t1 if s1 != 0\n108492: t0 = 0 if a5 != 0\n108494: a0 = t0 + 0x1f\n108497: s1 = a0 <u t0\n108500: a4 = 0 if a5 != 0\n108502: t0 = a4 + s1\n108505: a4 = t0 <u a4\n108508: a4 = s1 if s1 == 0\n108511: a1 = 0 if a5 != 0\n108513: u64 [sp + 0x58] = a1\n108516: a1 = a1 + a4\n108519: u64 [sp + 0x8] = a1\n108522: a4 = a1 << 0x3b\n108525: s1 = t0 >> 0x5\n108528: t1 = s1 | a4\n108531: t0 = t0 << 0x3b\n108534: a4 = a0 >> 0x5\n108537: s1 = a4 | t0\n108540: u64 [sp + 0x38] = s1\n108543: a1 = u64 [sp + 0x88]\n108547: a4 = a1 <u 0x1\n108550: t0 = u64 [sp + 0x60]\n108553: a0 = t0 - a4\n108556: u64 [sp + 0x20] = a0\n108559: a2 = a1 + 0xffffffffffffffff\n108562: u64 [sp + 0x30] = a2\n108565: u64 [sp + 0x28] = t1\n108568: a4 = a0 ^ t1\n108571: t1 = a0 <u t1\n108574: a0 = a2 <u s1\n108577: a0 = t1 if a4 != 0\n108580: u64 [sp + 0x10] = a0\n108583: a4 = a1 | t0\n108586: a4 = a4 <u 0x1\n108589: a0 = u64 [sp + 0x90]\n108593: t1 = a0 <u a4\n108596: a1 = u64 [sp + 0x80]\n108600: a1 = a1 - t1\n108603: a0 = a0 - a4\n108606: a2 = u64 [sp + 0x48]\n108609: a2 = 0 if a5 != 0\n108611: a4 = u64 [sp + 0x8]\n108614: a5 = u64 [sp + 0x58]\n108617: a5 = a4 <u a5\n108620: a2 = a2 + a5\n108623: t1 = a4 >> 0x5\n108626: a5 = a2 << 0x3b\n108629: t1 = t1 | a5\n108632: a5 = a2 >> 0x5\n108635: a2 = a0 <u t1\n108638: t0 = a1 ^ a5\n108641: a4 = a1 <u a5\n108644: a4 = a2 if t0 == 0\n108647: s1 = a0 ^ t1\n108650: s1 = s1 | t0\n108653: a2 = u64 [sp + 0x10]\n108656: a4 = a2 if s1 == 0\n108659: a1 = a5 if a4 == 0\n108662: u64 [sp + 0x90] = a1\n108666: a0 = t1 if a4 == 0\n108669: a1 = u64 [sp + 0x20]\n108672: a2 = u64 [sp + 0x28]\n108675: a1 = a2 if a4 == 0\n108678: a2 = u64 [sp + 0x30]\n108681: a5 = u64 [sp + 0x38]\n108684: a2 = a5 if a4 == 0\n108687: a4 = a2 >> 0x3b\n108690: a5 = a1 << 0x5\n108693: t1 = a1\n108695: a4 = a4 | a5\n108698: a5 = a2 << 0x5\n108701: s1 = u64 [sp + 0x78]\n108704: s1 = s1 + a4\n108707: a1 = u64 [sp + 0x98]\n108711: a5 = a5 + a1\n108714: u64 [sp + 0x60] = a5\n108717: a4 = a5 <u a1\n108720: s1 = s1 + a4\n108723: a1 = u64 [sp + 0x78]\n108726: t0 = s1 ^ a1\n108729: a1 = u64 [sp + 0x78]\n108732: a5 = s1 <u a1\n108735: a5 = a4 if t0 == 0\n108738: a1 = u64 [sp + 0xd0]\n108742: u64 [sp + 0x88] = a1\n108746: t1 = t1 >> 0x3b\n108749: a4 = a0 << 0x5\n108752: t1 = a4 | t1\n108755: a1 = u64 [sp + 0xc8]\n108759: u64 [sp + 0x80] = a1\n108763: a0 = a0 >> 0x3b\n108766: t0 = u64 [sp + 0x90]\n108770: t0 = t0 << 0x5\n108773: a4 = t0 | a0\n108776: a2 = u64 [sp + 0x68]\n108779: t0 = u64 [sp + 0x70]\n108782: t0 = t0 + a4\n108785: t1 = t1 + a2\n108788: a4 = t1 <u a2\n108791: t0 = t0 + a4\n108794: a5 = a5 + t1\n108797: a4 = a5 <u t1\n108800: a1 = u64 [sp + 0x70]\n108803: t0 = t0 + a4\n108806: a4 = u64 [sp + 0x60]\n108809: a0 = a4 + 0x20\n108812: u64 [sp + 0x38] = a0\n108815: a4 = a0 <u a4\n108818: a0 = s1 + a4\n108821: u64 [sp + 0x30] = a0\n108824: s1 = a0 <u s1\n108827: s1 = a4 if a4 == 0\n108830: a0 = u64 [sp + 0xc0]\n108834: s1 = s1 + a5\n108837: u64 [sp + 0x28] = s1\n108840: a5 = s1 <u a5\n108843: a5 = a5 + t0\n108846: u64 [sp + 0x20] = a5\n108849: a4 = u64 [sp + 0x78]\n108852: a5 = u64 [sp + 0xd8]\n108856: a0 = reverse a0\n108858: u64 [sp + 0x90] = a0\n108862: a0 = u64 [sp + 0x80]\n108866: t0 = reverse a0\n108868: a0 = u64 [sp + 0x88]\n108872: a0 = reverse a0\n108874: u64 [sp + 0x88] = a0\n108878: a0 = reverse a5\n108880: u64 [sp + 0x80] = a0\n108884: t1 = u64 [sp + 0x50]\n108887: fallthrough\n      : @1306 (gas: 29)\n108888: u64 [sp + 0x60] = a1\n108891: u64 [sp + 0x58] = a2\n108894: s1 = a4\n108896: a0 = u64 [sp + 0x98]\n108900: u64 [sp + 0x50] = a0\n108903: u64 [sp + 0x70] = a3\n108906: u64 [sp + 0x68] = ra\n108909: u64 [sp + 0x78] = t2\n108912: u64 [sp + 0x98] = t1\n108916: u64 [sp + 0x48] = t0\n108919: u64 [sp + 0xb0] = t0\n108923: a0 = u64 [sp + 0x88]\n108927: u64 [sp + 0xa8] = a0\n108931: a0 = u64 [sp + 0x80]\n108935: u64 [sp + 0xa0] = a0\n108939: a0 = u64 [sp + 0x90]\n108943: u64 [sp + 0xb8] = a0\n108947: u64 [sp + 216] = 0\n108951: u64 [sp + 208] = 0\n108955: u64 [sp + 200] = 0\n108959: u64 [sp + 192] = 0\n108963: u32 [sp + 224] = 0x20\n108968: i32 a1 = sp + 0xa0\n108972: i32 a3 = sp + 0xc0\n108976: i32 a4 = sp + 0xe0\n108980: a2 = 0xffffffffffffffff\n108983: a0 = 0\n108985: ecalli 7 // 'get_storage'\n108987: fallthrough\n      : @1307 (gas: 9)\n108988: a0 = u64 [sp + 0x60]\n108991: a1 = u64 [sp + 0x58]\n108994: a0 = a0 | a1\n108997: a1 = u64 [sp + 0x40]\n109000: a2 = u64 [sp + 0x50]\n109003: a1 = a2 <u a1\n109006: a1 = 0 if s1 != 0\n109008: a1 = 0 if a0 != 0\n109010: jump @1313 if a1 == 0\n      : @1308 (gas: 10)\n109014: s1 = u64 [sp + 0xd8]\n109018: a0 = u64 [sp + 0xd0]\n109022: u64 [sp + 0x50] = a0\n109025: a0 = u64 [sp + 0xc8]\n109029: u64 [sp + 0x58] = a0\n109032: a0 = u64 [sp + 0xc0]\n109036: u64 [sp + 0x60] = a0\n109039: a0 = i32 [sp + 0x98]\n109043: a1 = 0x20\n109046: ra = 1190, jump @0\n      : @1309 [@dyn 595] (gas: 107)\n109053: a1 = reverse s1\n109055: a2 = u64 [sp + 0x50]\n109058: a2 = reverse a2\n109060: a3 = u64 [sp + 0x58]\n109063: a3 = reverse a3\n109065: a4 = u64 [sp + 0x60]\n109068: a4 = reverse a4\n109070: a5 = a4 >> 0x38\n109073: u8 [a0 + 0x1f] = a5\n109076: a5 = a4 >> 0x30\n109079: u8 [a0 + 0x1e] = a5\n109082: a5 = a4 >> 0x28\n109085: u8 [a0 + 0x1d] = a5\n109088: a5 = a4 >> 0x20\n109091: u8 [a0 + 0x1c] = a5\n109094: a5 = a4 >> 0x18\n109097: u8 [a0 + 0x1b] = a5\n109100: a5 = a4 >> 0x10\n109103: u8 [a0 + 0x1a] = a5\n109106: a5 = a4 >> 0x8\n109109: u8 [a0 + 0x19] = a5\n109112: u8 [a0 + 0x18] = a4\n109115: u8 [a0 + 0x10] = a3\n109118: a4 = a3 >> 0x38\n109121: u8 [a0 + 0x17] = a4\n109124: a4 = a3 >> 0x30\n109127: u8 [a0 + 0x16] = a4\n109130: a4 = a3 >> 0x28\n109133: u8 [a0 + 0x15] = a4\n109136: a4 = a3 >> 0x20\n109139: u8 [a0 + 0x14] = a4\n109142: a4 = a3 >> 0x18\n109145: u8 [a0 + 0x13] = a4\n109148: a4 = a3 >> 0x10\n109151: u8 [a0 + 0x12] = a4\n109154: a3 = a3 >> 0x8\n109157: u8 [a0 + 0x11] = a3\n109160: u8 [a0 + 0x8] = a2\n109163: a3 = a2 >> 0x38\n109166: u8 [a0 + 0xf] = a3\n109169: a3 = a2 >> 0x30\n109172: u8 [a0 + 0xe] = a3\n109175: a3 = a2 >> 0x28\n109178: u8 [a0 + 0xd] = a3\n109181: a3 = a2 >> 0x20\n109184: u8 [a0 + 0xc] = a3\n109187: a3 = a2 >> 0x18\n109190: u8 [a0 + 0xb] = a3\n109193: a3 = a2 >> 0x10\n109196: u8 [a0 + 0xa] = a3\n109199: a2 = a2 >> 0x8\n109202: u8 [a0 + 0x9] = a2\n109205: u8 [a0] = a1\n109207: a2 = a1 >> 0x38\n109210: u8 [a0 + 0x7] = a2\n109213: a2 = a1 >> 0x30\n109216: u8 [a0 + 0x6] = a2\n109219: a2 = a1 >> 0x28\n109222: u8 [a0 + 0x5] = a2\n109225: a2 = a1 >> 0x20\n109228: u8 [a0 + 0x4] = a2\n109231: a2 = a1 >> 0x18\n109234: u8 [a0 + 0x3] = a2\n109237: a2 = a1 >> 0x10\n109240: u8 [a0 + 0x2] = a2\n109243: a1 = a1 >> 0x8\n109246: u8 [a0 + 0x1] = a1\n109249: a2 = u64 [sp + 0x80]\n109253: a2 = a2 + 0x1\n109256: a0 = a2 <u 0x1\n109259: a1 = u64 [sp + 0x88]\n109263: a1 = a1 + a0\n109266: u64 [sp + 0x88] = a1\n109270: u64 [sp + 0x80] = a2\n109274: a0 = a2 | a1\n109277: a4 = a0 <u 0x1\n109280: a0 = u64 [sp + 0x48]\n109283: t0 = a0 + a4\n109286: a0 = t0 <u a0\n109289: a1 = u64 [sp + 0x90]\n109293: a1 = a1 + a0\n109296: u64 [sp + 0x90] = a1\n109300: a0 = u64 [sp + 0x98]\n109304: t1 = a0 + 0x20\n109307: a2 = t1 <u a0\n109310: s1 = a0\n109312: a4 = u64 [sp + 0x78]\n109315: t2 = a4 + a2\n109318: a3 = t2 <u a4\n109321: a3 = a2 if a2 == 0\n109324: a0 = u64 [sp + 0x38]\n109327: s1 = s1 ^ a0\n109330: a2 = u64 [sp + 0x68]\n109333: a5 = u64 [sp + 0x28]\n109336: a5 = a5 ^ a2\n109339: a5 = a5 | s1\n109342: a0 = u64 [sp + 0x30]\n109345: a0 = a0 ^ a4\n109348: a1 = u64 [sp + 0x70]\n109351: s1 = u64 [sp + 0x20]\n109354: s1 = s1 ^ a1\n109357: s1 = s1 | a0\n109360: ra = a2 + a3\n109363: a5 = a5 | s1\n109366: a3 = ra <u a2\n109369: a3 = a3 + a1\n109372: jump @1306 if a5 != 0\n      : @1310 (gas: 1)\n109376: jump @1312\n      : @1311 (gas: 2)\n109378: t1 = u64 [sp + 0x50]\n109381: fallthrough\n      : @1312 (gas: 11)\n109382: a4 = u64 [sp + 0x18]\n109385: u64 [a4] = t1\n109387: u64 [a4 + 0x8] = t2\n109390: u64 [a4 + 0x10] = ra\n109393: u64 [a4 + 0x18] = a3\n109396: sp = s0 + 0xffffffffffffff00\n109400: ra = u64 [sp + 0xf8]\n109404: s0 = u64 [sp + 0xf0]\n109408: s1 = u64 [sp + 0xe8]\n109412: sp = sp + 0x100\n109416: ret\n      : @1313 (gas: 1)\n109418: trap\n      : @1314 (gas: 18)\n109419: sp = sp + 0xffffffffffffff00\n109423: u64 [sp + 0xf8] = ra\n109427: u64 [sp + 0xf0] = s0\n109431: u64 [sp + 0xe8] = s1\n109435: s0 = sp + 0x100\n109439: sp = sp & 0xfffffffffffffff0\n109442: a2 = u64 [a1]\n109444: u64 [sp + 0x20] = a2\n109447: a2 = u64 [a1 + 0x8]\n109450: u64 [sp + 0x10] = a2\n109453: a2 = u64 [a1 + 0x10]\n109456: u64 [sp + 0x8] = a2\n109459: a1 = u64 [a1 + 0x18]\n109462: u64 [sp] = a1\n109464: u64 [sp + 0x18] = a0\n109467: a0 = 0x40\n109470: a1 = 0x20\n109473: ra = 1192, jump @0\n      : @1315 [@dyn 596] (gas: 149)\n109480: a1 = u8 [a0 + 0x1]\n109483: a2 = u8 [a0]\n109485: a3 = u8 [a0 + 0x2]\n109488: a4 = u8 [a0 + 0x3]\n109491: a1 = a1 << 0x8\n109494: a1 = a1 | a2\n109497: a3 = a3 << 0x10\n109500: a4 = a4 << 0x18\n109503: a3 = a3 | a4\n109506: a1 = a1 | a3\n109509: a2 = u8 [a0 + 0x5]\n109512: a3 = u8 [a0 + 0x4]\n109515: a4 = u8 [a0 + 0x6]\n109518: a5 = u8 [a0 + 0x7]\n109521: a2 = a2 << 0x8\n109524: a2 = a2 | a3\n109527: a4 = a4 << 0x10\n109530: a5 = a5 << 0x18\n109533: a4 = a4 | a5\n109536: a2 = a2 | a4\n109539: a2 = a2 << 0x20\n109542: t0 = a2 | a1\n109545: a2 = u8 [a0 + 0x9]\n109548: a3 = u8 [a0 + 0x8]\n109551: a4 = u8 [a0 + 0xa]\n109554: a5 = u8 [a0 + 0xb]\n109557: a2 = a2 << 0x8\n109560: a2 = a2 | a3\n109563: a4 = a4 << 0x10\n109566: a5 = a5 << 0x18\n109569: a4 = a4 | a5\n109572: a2 = a2 | a4\n109575: a3 = u8 [a0 + 0xd]\n109578: a4 = u8 [a0 + 0xc]\n109581: a5 = u8 [a0 + 0xe]\n109584: s1 = u8 [a0 + 0xf]\n109587: a3 = a3 << 0x8\n109590: a3 = a3 | a4\n109593: a5 = a5 << 0x10\n109596: s1 = s1 << 0x18\n109599: a5 = a5 | s1\n109602: a3 = a3 | a5\n109605: a3 = a3 << 0x20\n109608: a2 = a2 | a3\n109611: a3 = u8 [a0 + 0x11]\n109614: a4 = u8 [a0 + 0x10]\n109617: a5 = u8 [a0 + 0x12]\n109620: s1 = u8 [a0 + 0x13]\n109623: a3 = a3 << 0x8\n109626: a3 = a3 | a4\n109629: a5 = a5 << 0x10\n109632: s1 = s1 << 0x18\n109635: a5 = a5 | s1\n109638: a3 = a3 | a5\n109641: a4 = u8 [a0 + 0x15]\n109644: a5 = u8 [a0 + 0x14]\n109647: s1 = u8 [a0 + 0x16]\n109650: a1 = u8 [a0 + 0x17]\n109653: a4 = a4 << 0x8\n109656: a4 = a4 | a5\n109659: s1 = s1 << 0x10\n109662: a1 = a1 << 0x18\n109665: a1 = a1 | s1\n109668: a1 = a1 | a4\n109671: a1 = a1 << 0x20\n109674: a3 = a3 | a1\n109677: a1 = u8 [a0 + 0x19]\n109680: a4 = u8 [a0 + 0x18]\n109683: a5 = u8 [a0 + 0x1a]\n109686: s1 = u8 [a0 + 0x1b]\n109689: a1 = a1 << 0x8\n109692: a1 = a1 | a4\n109695: a5 = a5 << 0x10\n109698: s1 = s1 << 0x18\n109701: a5 = a5 | s1\n109704: a1 = a1 | a5\n109707: a4 = u8 [a0 + 0x1d]\n109710: a5 = u8 [a0 + 0x1c]\n109713: s1 = u8 [a0 + 0x1e]\n109716: a0 = u8 [a0 + 0x1f]\n109719: a4 = a4 << 0x8\n109722: a4 = a4 | a5\n109725: s1 = s1 << 0x10\n109728: a0 = a0 << 0x18\n109731: a0 = a0 | s1\n109734: a0 = a0 | a4\n109737: a0 = a0 << 0x20\n109740: a0 = a0 | a1\n109743: a4 = reverse a0\n109745: u64 [sp + 0x38] = a4\n109748: s1 = reverse a3\n109750: a2 = reverse a2\n109752: u64 [sp + 0x30] = a2\n109755: a1 = reverse t0\n109757: u64 [sp + 0x28] = a1\n109760: a0 = u64 [sp]\n109762: u64 [sp + 0xb8] = a0\n109766: a0 = u64 [sp + 0x8]\n109769: u64 [sp + 0xb0] = a0\n109773: a0 = u64 [sp + 0x10]\n109776: u64 [sp + 0xa8] = a0\n109780: a0 = u64 [sp + 0x20]\n109783: u64 [sp + 0xa0] = a0\n109787: u64 [sp + 0x98] = a1\n109791: u64 [sp + 0x90] = a2\n109795: u64 [sp + 0x88] = s1\n109799: a0 = sp + 0xc0\n109803: a1 = sp + 0xa0\n109807: a2 = sp + 0x80\n109811: u64 [sp + 0x80] = a4\n109815: ra = 0x4aa\n109819: sp = sp + 0xffffffffffffff00\n109823: u64 [sp + 0xf8] = ra\n109827: u64 [sp + 0xf0] = s0\n109831: u64 [sp + 0xe8] = s1\n109835: s0 = sp + 0x100\n109839: sp = sp & 0xffffffffffffffe0\n109842: u64 [sp + 0x18] = a0\n109845: s1 = u64 [a2 + 0x10]\n109848: a0 = u64 [a2]\n109850: u64 [sp + 0x98] = a0\n109854: a0 = u64 [a2 + 0x18]\n109857: u64 [sp + 0x70] = a0\n109860: a0 = u64 [a2 + 0x8]\n109863: u64 [sp + 0x78] = a0\n109866: a4 = u64 [a1 + 0x18]\n109869: a3 = u64 [a1 + 0x10]\n109872: a2 = u64 [a1 + 0x8]\n109875: a0 = u64 [a1]\n109877: u64 [sp + 0x40] = a4\n109880: u64 [sp + 0xb8] = a4\n109884: u64 [sp + 0x48] = a3\n109887: u64 [sp + 0xb0] = a3\n109891: u64 [sp + 0x50] = a2\n109894: u64 [sp + 0xa8] = a2\n109898: u64 [sp + 0x58] = a0\n109901: u64 [sp + 0xa0] = a0\n109905: u64 [sp + 216] = 0\n109909: u64 [sp + 208] = 0\n109913: u64 [sp + 200] = 0\n109917: u64 [sp + 192] = 0\n109921: u32 [sp + 224] = 0x20\n109926: i32 a1 = sp + 0xa0\n109930: i32 a3 = sp + 0xc0\n109934: i32 a4 = sp + 0xe0\n109938: a2 = 0xffffffffffffffff\n109941: a0 = 0\n109943: ecalli 7 // 'get_storage'\n109945: jump @1299\n      : @1316 [@dyn 597] (gas: 58)\n109948: t2 = s1\n109950: a3 = u64 [sp + 0xc8]\n109954: a0 = u64 [sp + 0xd8]\n109958: u64 [sp + 0x10] = a0\n109961: a4 = u64 [sp + 0xc0]\n109965: t1 = u64 [sp + 0xd0]\n109969: a5 = a3 ^ s1\n109972: a1 = a3 <u s1\n109975: a2 = u64 [sp + 0x38]\n109978: s1 = a4 <u a2\n109981: a1 = s1 if a5 == 0\n109984: a3 = a3 - t2\n109987: a3 = a3 - s1\n109990: u64 [sp + 0x8] = a3\n109993: a4 = a4 - a2\n109996: a5 = a4 + 0x1f\n109999: a4 = a5 <u a4\n110002: a3 = a3 + a4\n110005: a5 = a5 & 0xffffffffffffffe0\n110008: a0 = a3 + t2\n110011: a2 = a2 + a5\n110014: u64 [sp + 0x20] = a2\n110017: a5 = a2 <u a5\n110020: t0 = a0 + a5\n110023: a0 = t0 ^ a3\n110026: a2 = t0 <u a3\n110029: a2 = a5 if a0 == 0\n110032: s1 = u64 [sp + 0x30]\n110035: a0 = t1 - s1\n110038: a5 = t1 <u s1\n110041: t1 = s1\n110043: ra = u64 [sp + 0x28]\n110046: s1 = u64 [sp + 0x10]\n110049: s1 = s1 - ra\n110052: s1 = s1 - a5\n110055: a5 = a0 <u a1\n110058: s1 = s1 - a5\n110061: a0 = a0 - a1\n110064: a1 = u64 [sp + 0x8]\n110067: a1 = a3 <u a1\n110070: a1 = a4 if a4 == 0\n110073: a1 = a1 + a0\n110076: a0 = a1 <u a0\n110079: a3 = a1 + t1\n110082: a5 = a3 + a2\n110085: a1 = a3 <u a1\n110088: a2 = a5 <u a3\n110091: s1 = s1 + ra\n110094: a0 = a0 + s1\n110097: a0 = a0 + a1\n110100: s1 = a0 + a2\n110103: a0 = s1 >u 0\n110105: a1 = a5 >u 0\n110107: a1 = a0 if s1 != 0\n110110: a0 = a5 | s1\n110113: a2 = t0 >u 0\n110115: a2 = a1 if a0 != 0\n110118: jump @1320 if a2 != 0\n      : @1317 (gas: 15)\n110122: a4 = t1\n110124: a0 = u64 [sp + 0x38]\n110127: a1 = u64 [sp + 0x20]\n110130: a0 = a1 <u a0\n110133: a1 = t0 ^ t2\n110136: a2 = t0 <u t2\n110139: a2 = a0 if a1 == 0\n110142: a0 = a5 <u t1\n110145: a1 = s1 ^ ra\n110148: a3 = s1 <u ra\n110151: a3 = a0 if a1 == 0\n110154: a0 = a5 ^ t1\n110157: a0 = a0 | a1\n110160: a3 = a2 if a0 == 0\n110163: jump @1320 if a3 != 0\n      : @1318 (gas: 6)\n110167: a0 = 0x40\n110170: a1 = 0x20\n110173: u64 [sp + 0x10] = t2\n110176: u64 [sp + 0x8] = t0\n110179: u64 [sp] = a5\n110181: ra = 1196, jump @0\n      : @1319 [@dyn 598] (gas: 82)\n110188: a1 = reverse s1\n110190: a2 = u64 [sp]\n110192: a2 = reverse a2\n110194: a3 = u64 [sp + 0x8]\n110197: a3 = reverse a3\n110199: a4 = u64 [sp + 0x20]\n110202: a4 = reverse a4\n110204: u8 [a0 + 0x18] = a4\n110207: a5 = a4 >> 0x38\n110210: u8 [a0 + 0x1f] = a5\n110213: a5 = a4 >> 0x30\n110216: u8 [a0 + 0x1e] = a5\n110219: a5 = a4 >> 0x28\n110222: u8 [a0 + 0x1d] = a5\n110225: a5 = a4 >> 0x20\n110228: u8 [a0 + 0x1c] = a5\n110231: a5 = a4 >> 0x18\n110234: u8 [a0 + 0x1b] = a5\n110237: a5 = a4 >> 0x10\n110240: u8 [a0 + 0x1a] = a5\n110243: a4 = a4 >> 0x8\n110246: u8 [a0 + 0x19] = a4\n110249: u8 [a0 + 0x10] = a3\n110252: a4 = a3 >> 0x38\n110255: u8 [a0 + 0x17] = a4\n110258: a4 = a3 >> 0x30\n110261: u8 [a0 + 0x16] = a4\n110264: a4 = a3 >> 0x28\n110267: u8 [a0 + 0x15] = a4\n110270: a4 = a3 >> 0x20\n110273: u8 [a0 + 0x14] = a4\n110276: a4 = a3 >> 0x18\n110279: u8 [a0 + 0x13] = a4\n110282: a4 = a3 >> 0x10\n110285: u8 [a0 + 0x12] = a4\n110288: a3 = a3 >> 0x8\n110291: u8 [a0 + 0x11] = a3\n110294: u8 [a0 + 0x8] = a2\n110297: a3 = a2 >> 0x38\n110300: u8 [a0 + 0xf] = a3\n110303: a3 = a2 >> 0x30\n110306: u8 [a0 + 0xe] = a3\n110309: a3 = a2 >> 0x28\n110312: u8 [a0 + 0xd] = a3\n110315: a3 = a2 >> 0x20\n110318: u8 [a0 + 0xc] = a3\n110321: a3 = a2 >> 0x18\n110324: u8 [a0 + 0xb] = a3\n110327: a3 = a2 >> 0x10\n110330: u8 [a0 + 0xa] = a3\n110333: a2 = a2 >> 0x8\n110336: u8 [a0 + 0x9] = a2\n110339: u8 [a0] = a1\n110341: a2 = a1 >> 0x38\n110344: u8 [a0 + 0x7] = a2\n110347: a2 = a1 >> 0x30\n110350: u8 [a0 + 0x6] = a2\n110353: a2 = a1 >> 0x28\n110356: u8 [a0 + 0x5] = a2\n110359: a2 = a1 >> 0x20\n110362: u8 [a0 + 0x4] = a2\n110365: a2 = a1 >> 0x18\n110368: u8 [a0 + 0x3] = a2\n110371: a2 = a1 >> 0x10\n110374: u8 [a0 + 0x2] = a2\n110377: a1 = a1 >> 0x8\n110380: u8 [a0 + 0x1] = a1\n110383: a0 = u64 [sp + 0x18]\n110386: a1 = u64 [sp + 0x38]\n110389: u64 [a0] = a1\n110391: a1 = u64 [sp + 0x28]\n110394: u64 [a0 + 0x18] = a1\n110397: a1 = u64 [sp + 0x10]\n110400: u64 [a0 + 0x8] = a1\n110403: a1 = u64 [sp + 0x30]\n110406: u64 [a0 + 0x10] = a1\n110409: sp = s0 + 0xffffffffffffff00\n110413: ra = u64 [sp + 0xf8]\n110417: s0 = u64 [sp + 0xf0]\n110421: s1 = u64 [sp + 0xe8]\n110425: sp = sp + 0x100\n110429: ret\n      : @1320 (gas: 8)\n110431: u64 [sp + 112] = 0\n110434: u64 [sp + 104] = 0\n110437: u64 [sp + 96] = 0\n110440: a0 = 0x4e487b7100000000\n110450: a1 = sp + 0x60\n110453: u64 [sp + 0x78] = a0\n110456: a0 = 0\n110458: ra = 1198, jump @23\n      : @1321 [@dyn 599] (gas: 7)\n110465: u64 [sp + 88] = 0\n110468: u64 [sp + 80] = 0\n110471: u64 [sp + 64] = 0x41\n110475: a0 = 0x4\n110478: a1 = sp + 0x40\n110481: u64 [sp + 72] = 0\n110484: ra = 1200, jump @23\n      : @1322 [@dyn 600] (gas: 3)\n110491: a1 = 0x24\n110494: a0 = 0\n110496: ra = 1202, jump @0\n      : @1323 [@dyn 601] (gas: 6)\n110503: i32 a1 = a0 + 0\n110505: a0 = 0x1\n110508: a2 = 0x24\n110511: ra = 0x4b4\n110515: ecalli 13 // 'seal_return'\n110517: fallthrough\n      : @1324 [@dyn 602] (gas: 18)\n110518: sp = sp + 0xffffffffffffffa0\n110521: u64 [sp + 0x58] = ra\n110524: u64 [sp + 0x50] = s0\n110527: u64 [sp + 0x48] = s1\n110530: s0 = sp + 0x60\n110533: sp = sp & 0xfffffffffffffff0\n110536: a2 = u64 [a1]\n110538: a3 = u64 [a1 + 0x8]\n110541: a4 = u64 [a1 + 0x10]\n110544: a1 = u64 [a1 + 0x18]\n110547: s1 = a0\n110549: u64 [sp + 0x18] = a1\n110552: u64 [sp + 0x10] = a4\n110555: u64 [sp + 0x8] = a3\n110558: a0 = sp + 0x20\n110561: a1 = sp\n110563: u64 [sp] = a2\n110565: ra = 1206, jump @1314\n      : @1325 [@dyn 603] (gas: 14)\n110571: a0 = u64 [sp + 0x30]\n110574: a1 = u64 [sp + 0x38]\n110577: a2 = u64 [sp + 0x20]\n110580: a3 = u64 [sp + 0x28]\n110583: u64 [s1 + 0x10] = a0\n110586: u64 [s1 + 0x18] = a1\n110589: u64 [s1] = a2\n110591: u64 [s1 + 0x8] = a3\n110594: sp = s0 + 0xffffffffffffffa0\n110597: ra = u64 [sp + 0x58]\n110600: s0 = u64 [sp + 0x50]\n110603: s1 = u64 [sp + 0x48]\n110606: sp = sp + 0x60\n110609: ret\n      : @1326 (gas: 34)\n110611: sp = sp + 0xfffffffffffffee0\n110615: u64 [sp + 0x118] = ra\n110619: u64 [sp + 0x110] = s0\n110623: u64 [sp + 0x108] = s1\n110627: s0 = sp + 0x120\n110631: sp = sp & 0xffffffffffffffe0\n110634: a1 = u64 [a0]\n110636: u64 [sp + 0x10] = a1\n110639: a1 = u64 [a0 + 0x8]\n110642: u64 [sp + 0x38] = a1\n110645: a1 = u64 [a0 + 0x10]\n110648: u64 [sp + 0x30] = a1\n110651: s1 = u64 [a0 + 0x18]\n110654: i32 a0 = sp + 0xa0\n110658: ecalli 5 // 'caller'\n110660: a0 = u64 [sp + 0xa8]\n110664: a1 = u64 [sp + 0xa0]\n110668: a2 = i32 [sp + 0xb0]\n110672: a0 = reverse a0\n110674: a3 = a0 >> 0x20\n110677: a1 = reverse a1\n110679: a4 = a1 << 0x20\n110682: a3 = a3 | a4\n110685: u64 [sp + 0x28] = a3\n110688: a0 = a0 << 0x20\n110691: a2 = reverse a2\n110693: a2 = a2 >> 0x20\n110696: a0 = a0 | a2\n110699: u64 [sp + 0x20] = a0\n110702: a1 = a1 >> 0x20\n110705: u64 [sp + 0x18] = a1\n110708: a1 = 0x20\n110711: a0 = 0\n110713: ra = 1208, jump @0\n      : @1327 [@dyn 604] (gas: 71)\n110720: u64 [sp + 0x8] = s1\n110723: a1 = reverse s1\n110725: s1 = u64 [sp + 0x10]\n110728: a2 = u64 [sp + 0x30]\n110731: a2 = reverse a2\n110733: a3 = u64 [sp + 0x38]\n110736: a3 = reverse a3\n110738: a4 = reverse s1\n110740: a5 = a4 >> 0x38\n110743: u8 [a0 + 0x1f] = a5\n110746: a5 = a4 >> 0x30\n110749: u8 [a0 + 0x1e] = a5\n110752: a5 = a4 >> 0x28\n110755: u8 [a0 + 0x1d] = a5\n110758: a5 = a4 >> 0x20\n110761: u8 [a0 + 0x1c] = a5\n110764: a5 = a4 >> 0x18\n110767: u8 [a0 + 0x1b] = a5\n110770: a5 = a4 >> 0x10\n110773: u8 [a0 + 0x1a] = a5\n110776: a5 = a4 >> 0x8\n110779: u8 [a0 + 0x19] = a5\n110782: u8 [a0 + 0x18] = a4\n110785: a4 = a3 >> 0x38\n110788: u8 [a0 + 0x17] = a4\n110791: a4 = a3 >> 0x30\n110794: u8 [a0 + 0x16] = a4\n110797: a4 = a3 >> 0x28\n110800: u8 [a0 + 0x15] = a4\n110803: a4 = a3 >> 0x20\n110806: u8 [a0 + 0x14] = a4\n110809: a4 = a3 >> 0x18\n110812: u8 [a0 + 0x13] = a4\n110815: a4 = a3 >> 0x10\n110818: u8 [a0 + 0x12] = a4\n110821: a4 = a3 >> 0x8\n110824: u8 [a0 + 0x11] = a4\n110827: u8 [a0 + 0x10] = a3\n110830: a3 = a2 >> 0x38\n110833: u8 [a0 + 0xf] = a3\n110836: a3 = a2 >> 0x30\n110839: u8 [a0 + 0xe] = a3\n110842: a3 = a2 >> 0x28\n110845: u8 [a0 + 0xd] = a3\n110848: a3 = a2 >> 0x20\n110851: u8 [a0 + 0xc] = a3\n110854: a3 = a2 >> 0x18\n110857: u8 [a0 + 0xb] = a3\n110860: a3 = a2 >> 0x10\n110863: u8 [a0 + 0xa] = a3\n110866: a3 = a2 >> 0x8\n110869: u8 [a0 + 0x9] = a3\n110872: u8 [a0 + 0x8] = a2\n110875: a2 = a1 >> 0x38\n110878: u8 [a0 + 0x7] = a2\n110881: a2 = a1 >> 0x30\n110884: u8 [a0 + 0x6] = a2\n110887: a2 = a1 >> 0x28\n110890: u8 [a0 + 0x5] = a2\n110893: a2 = a1 >> 0x20\n110896: u8 [a0 + 0x4] = a2\n110899: a2 = a1 >> 0x18\n110902: u8 [a0 + 0x3] = a2\n110905: a2 = a1 >> 0x10\n110908: u8 [a0 + 0x2] = a2\n110911: a2 = a1 >> 0x8\n110914: u8 [a0 + 0x1] = a2\n110917: u8 [a0] = a1\n110919: a0 = 0x20\n110922: a1 = 0x20\n110925: ra = 1210, jump @0\n      : @1328 [@dyn 605] (gas: 35)\n110932: u8 [a0 + 31] = 0\n110935: u8 [a0 + 30] = 0\n110938: u8 [a0 + 29] = 0\n110941: u8 [a0 + 28] = 0\n110944: u8 [a0 + 27] = 0\n110947: u8 [a0 + 26] = 0\n110950: u8 [a0 + 25] = 0\n110953: u8 [a0 + 24] = 0\n110956: u8 [a0 + 23] = 0\n110959: u8 [a0 + 22] = 0\n110962: u8 [a0 + 21] = 0\n110965: u8 [a0 + 20] = 0\n110968: u8 [a0 + 19] = 0\n110971: u8 [a0 + 18] = 0\n110974: u8 [a0 + 17] = 0\n110977: u8 [a0 + 16] = 0\n110980: u8 [a0 + 15] = 0\n110983: u8 [a0 + 14] = 0\n110986: u8 [a0 + 13] = 0\n110989: u8 [a0 + 12] = 0\n110992: u8 [a0 + 11] = 0\n110995: u8 [a0 + 10] = 0\n110998: u8 [a0 + 9] = 0\n111001: u8 [a0 + 8] = 0\n111004: u8 [a0 + 7] = 0\n111007: u8 [a0 + 6] = 0\n111010: u8 [a0 + 5] = 0\n111013: u8 [a0 + 4] = 0\n111016: u8 [a0 + 3] = 0\n111019: u8 [a0 + 2] = 0\n111022: u8 [a0 + 1] = 0\n111025: u8 [a0 + 0] = 0\n111027: a1 = 0x40\n111030: a0 = 0\n111032: ra = 1212, jump @0\n      : @1329 [@dyn 606] (gas: 28)\n111039: i32 a0 = a0 + 0\n111041: i32 a2 = sp + 0xe0\n111045: a1 = 0x40\n111048: ecalli 8 // 'hash_keccak_256'\n111050: a0 = u64 [sp + 0xf8]\n111054: a1 = u64 [sp + 0xf0]\n111058: a2 = u64 [sp + 0xe8]\n111062: a3 = u64 [sp + 0xe0]\n111066: a0 = reverse a0\n111068: a1 = reverse a1\n111070: a2 = reverse a2\n111072: a3 = reverse a3\n111074: u64 [sp + 0xd8] = a3\n111078: u64 [sp + 0xd0] = a2\n111082: u64 [sp + 0xc8] = a1\n111086: u64 [sp + 0xc0] = a0\n111090: u64 [sp + 248] = 0\n111094: u64 [sp + 240] = 0\n111098: u64 [sp + 232] = 0\n111102: u64 [sp + 224] = 0\n111106: u32 [sp + 256] = 0x20\n111111: i32 a1 = sp + 0xc0\n111115: i32 a3 = sp + 0xe0\n111119: i32 a4 = sp + 0x100\n111123: a2 = 0xffffffffffffffff\n111126: a0 = 0\n111128: ecalli 7 // 'get_storage'\n111130: fallthrough\n      : @1330 (gas: 12)\n111131: a0 = u32 [sp + 0xf0]\n111135: a1 = u64 [sp + 0xe0]\n111139: a2 = u64 [sp + 0xe8]\n111143: a3 = u64 [sp + 0x18]\n111146: a0 = a0 ^ a3\n111149: a3 = u64 [sp + 0x20]\n111152: a1 = a1 ^ a3\n111155: a0 = a0 | a1\n111158: a1 = u64 [sp + 0x28]\n111161: a1 = a1 ^ a2\n111164: a0 = a0 | a1\n111167: jump @1333 if a0 != 0\n      : @1331 (gas: 9)\n111170: u64 [sp + 0x40] = s1\n111173: a0 = u64 [sp + 0x38]\n111176: u64 [sp + 0x48] = a0\n111179: a0 = u64 [sp + 0x30]\n111182: u64 [sp + 0x50] = a0\n111185: a0 = sp + 0x40\n111188: a1 = u64 [sp + 0x8]\n111191: u64 [sp + 0x58] = a1\n111194: ra = 1214, jump @1347\n      : @1332 [@dyn 607] (gas: 6)\n111200: sp = s0 + 0xfffffffffffffee0\n111204: ra = u64 [sp + 0x118]\n111208: s0 = u64 [sp + 0x110]\n111212: s1 = u64 [sp + 0x108]\n111216: sp = sp + 0x120\n111220: ret\n      : @1333 (gas: 3)\n111222: a0 = 0x40\n111225: a1 = 0x20\n111228: ra = 1216, jump @0\n      : @1334 [@dyn 608] (gas: 103)\n111235: a1 = u8 [a0 + 0x11]\n111238: a2 = u8 [a0 + 0x10]\n111241: a3 = u8 [a0 + 0x12]\n111244: a4 = u8 [a0 + 0x13]\n111247: a1 = a1 << 0x8\n111250: a1 = a1 | a2\n111253: a3 = a3 << 0x10\n111256: a4 = a4 << 0x18\n111259: a3 = a3 | a4\n111262: a1 = a1 | a3\n111265: a2 = u8 [a0 + 0x15]\n111268: a3 = u8 [a0 + 0x14]\n111271: a4 = u8 [a0 + 0x16]\n111274: a5 = u8 [a0 + 0x17]\n111277: a2 = a2 << 0x8\n111280: a2 = a2 | a3\n111283: a4 = a4 << 0x10\n111286: a5 = a5 << 0x18\n111289: a4 = a4 | a5\n111292: a2 = a2 | a4\n111295: a2 = a2 << 0x20\n111298: t0 = a2 | a1\n111301: a2 = u8 [a0 + 0x1]\n111304: a3 = u8 [a0]\n111306: a4 = u8 [a0 + 0x2]\n111309: a5 = u8 [a0 + 0x3]\n111312: a2 = a2 << 0x8\n111315: a2 = a2 | a3\n111318: a4 = a4 << 0x10\n111321: a5 = a5 << 0x18\n111324: a4 = a4 | a5\n111327: a2 = a2 | a4\n111330: a3 = u8 [a0 + 0x5]\n111333: a4 = u8 [a0 + 0x4]\n111336: a5 = u8 [a0 + 0x6]\n111339: s1 = u8 [a0 + 0x7]\n111342: a3 = a3 << 0x8\n111345: a3 = a3 | a4\n111348: a5 = a5 << 0x10\n111351: s1 = s1 << 0x18\n111354: a5 = a5 | s1\n111357: a3 = a3 | a5\n111360: a3 = a3 << 0x20\n111363: a2 = a2 | a3\n111366: a3 = u8 [a0 + 0x19]\n111369: a4 = u8 [a0 + 0x18]\n111372: a5 = u8 [a0 + 0x1a]\n111375: s1 = u8 [a0 + 0x1b]\n111378: a3 = a3 << 0x8\n111381: a3 = a3 | a4\n111384: a5 = a5 << 0x10\n111387: s1 = s1 << 0x18\n111390: a5 = a5 | s1\n111393: a3 = a3 | a5\n111396: a4 = u8 [a0 + 0x1d]\n111399: a5 = u8 [a0 + 0x1c]\n111402: s1 = u8 [a0 + 0x1e]\n111405: a1 = u8 [a0 + 0x1f]\n111408: a4 = a4 << 0x8\n111411: a4 = a4 | a5\n111414: s1 = s1 << 0x10\n111417: a1 = a1 << 0x18\n111420: a1 = a1 | s1\n111423: a1 = a1 | a4\n111426: a1 = a1 << 0x20\n111429: a3 = a3 | a1\n111432: a1 = u8 [a0 + 0x9]\n111435: a4 = u8 [a0 + 0x8]\n111438: a5 = u8 [a0 + 0xa]\n111441: s1 = u8 [a0 + 0xb]\n111444: a1 = a1 << 0x8\n111447: a1 = a1 | a4\n111450: a5 = a5 << 0x10\n111453: s1 = s1 << 0x18\n111456: a5 = a5 | s1\n111459: a1 = a1 | a5\n111462: a4 = u8 [a0 + 0xd]\n111465: a5 = u8 [a0 + 0xc]\n111468: s1 = u8 [a0 + 0xe]\n111471: a0 = u8 [a0 + 0xf]\n111474: a4 = a4 << 0x8\n111477: a4 = a4 | a5\n111480: s1 = s1 << 0x10\n111483: a0 = a0 << 0x18\n111486: a0 = a0 | s1\n111489: a0 = a0 | a4\n111492: a0 = a0 << 0x20\n111495: a0 = a0 | a1\n111498: s1 = reverse a0\n111500: a1 = reverse a3\n111502: a2 = reverse a2\n111504: a0 = reverse t0\n111506: u64 [sp + 0x38] = a0\n111509: u64 [sp + 0x30] = a2\n111512: a0 = a0 | a2\n111515: a2 = a1\n111517: a1 = a1 | s1\n111520: a1 = a1 | a0\n111523: a1 = a1 >> 0x20\n111526: a0 = a0 | s1\n111529: a0 = a0 << 0x20\n111532: a0 = a0 | a1\n111535: jump @1338 if a0 != 0\n      : @1335 (gas: 5)\n111539: u64 [sp + 0x28] = a2\n111542: i32 a0 = a2 + 0\n111544: a1 = 0x20\n111547: u64 [sp + 0x20] = a0\n111550: ra = 1218, jump @0\n      : @1336 [@dyn 609] (gas: 50)\n111557: u8 [a0 + 31] = 0\n111560: u8 [a0 + 30] = 0\n111563: u8 [a0 + 29] = 0\n111566: u8 [a0 + 28] = 0\n111569: u8 [a0 + 27] = 0\n111572: u8 [a0 + 26] = 0\n111575: u8 [a0 + 25] = 0\n111578: u8 [a0 + 24] = 0\n111581: u8 [a0 + 23] = 0\n111584: u8 [a0 + 22] = 0\n111587: u8 [a0 + 21] = 0\n111590: u8 [a0 + 20] = 0\n111593: u8 [a0 + 19] = 0\n111596: u8 [a0 + 18] = 0\n111599: u8 [a0 + 17] = 0\n111602: u8 [a0 + 16] = 0\n111605: u8 [a0 + 15] = 0\n111608: u8 [a0 + 14] = 0\n111611: u8 [a0 + 13] = 0\n111614: u8 [a0 + 12] = 0\n111617: u8 [a0 + 11] = 0\n111620: u8 [a0 + 10] = 0\n111623: u8 [a0 + 9] = 0\n111626: u8 [a0 + 8] = 0\n111629: u8 [a0 + 7] = 0\n111632: u8 [a0 + 6] = 0\n111635: u8 [a0 + 5] = 0\n111638: u8 [a0 + 4] = 0\n111641: u8 [a0 + 3] = 0xa0\n111646: u8 [a0 + 2] = 0x79\n111650: u8 [a0 + 1] = 0xc3\n111655: u8 [a0 + 0] = 0x8\n111658: a1 = u64 [sp + 0x28]\n111661: a0 = a1 + 0x4\n111664: a1 = a0 <u a1\n111667: a3 = u64 [sp + 0x38]\n111670: a2 = a3 + a1\n111673: a3 = a2 <u a3\n111676: a3 = a1 if a1 == 0\n111679: a3 = a3 + s1\n111682: a1 = a3 <u s1\n111685: a4 = u64 [sp + 0x30]\n111688: a4 = a4 + a1\n111691: u64 [sp + 0x68] = a2\n111694: u64 [sp + 0x60] = a0\n111697: u64 [sp + 0x70] = a3\n111700: a0 = sp + 0x80\n111704: a1 = sp + 0x60\n111707: u64 [sp + 0x78] = a4\n111710: ra = 1220, jump @606\n      : @1337 [@dyn 610] (gas: 30)\n111717: a0 = u64 [sp + 0x88]\n111721: t0 = u64 [sp + 0x98]\n111725: t1 = u64 [sp + 0x80]\n111729: a3 = u64 [sp + 0x90]\n111733: a1 = u64 [sp + 0x38]\n111736: a4 = a0 ^ a1\n111739: a5 = a0 <u a1\n111742: t2 = a1\n111744: a2 = u64 [sp + 0x28]\n111747: a1 = t1 <u a2\n111750: a5 = a1 if a4 == 0\n111753: a4 = a3 - s1\n111756: a3 = a3 <u s1\n111759: s1 = u64 [sp + 0x30]\n111762: s1 = t0 - s1\n111765: s1 = s1 - a3\n111768: a3 = a4 <u a5\n111771: s1 = s1 - a3\n111774: a4 = a4 - a5\n111777: a0 = a0 - t2\n111780: a1 = a0 - a1\n111783: a0 = t1 - a2\n111786: a1 = a1 | s1\n111789: a2 = a0 | a4\n111792: a2 = a2 | a1\n111795: a1 = a1 | a4\n111798: a2 = a2 >> 0x20\n111801: a1 = a1 << 0x20\n111804: a1 = a1 | a2\n111807: jump @1339 if a1 == 0\n      : @1338 (gas: 1)\n111810: trap\n      : @1339 (gas: 4)\n111811: i32 s1 = a0 + 0\n111813: a0 = u64 [sp + 0x20]\n111816: a1 = s1\n111818: ra = 1222, jump @0\n      : @1340 [@dyn 611] (gas: 6)\n111825: i32 a1 = a0 + 0\n111827: a0 = 0x1\n111830: a2 = s1\n111832: ra = 0x4c8\n111836: ecalli 13 // 'seal_return'\n111838: fallthrough\n      : @1341 [@dyn 612] (gas: 45)\n111839: sp = sp + 0xffffffffffffff90\n111842: u64 [sp + 0x68] = ra\n111845: u64 [sp + 0x60] = s0\n111848: u64 [sp + 0x58] = s1\n111851: s0 = sp + 0x70\n111854: sp = sp & 0xfffffffffffffff0\n111857: a3 = u64 [a1 + 0x18]\n111860: u64 [sp + 0x8] = a3\n111863: a4 = u64 [a2 + 0x18]\n111866: t2 = u64 [a1]\n111868: u64 [sp] = t2\n111870: a3 = u64 [a1 + 0x8]\n111873: s1 = u64 [a2 + 0x8]\n111876: a5 = u64 [a2]\n111878: t1 = u64 [a1 + 0x10]\n111881: t0 = u64 [a2 + 0x10]\n111884: a2 = s1 + a3\n111887: t2 = t2 + a5\n111890: a5 = t2 <u a5\n111893: a2 = a2 + a5\n111896: ra = a2 ^ s1\n111899: s1 = a2 <u s1\n111902: s1 = a5 if ra == 0\n111905: a1 = t0 + t1\n111908: a5 = u64 [sp + 0x8]\n111911: a5 = a5 + a4\n111914: a4 = a1 <u t0\n111917: a4 = a4 + a5\n111920: a5 = a1 + s1\n111923: a1 = a5 <u a1\n111926: ra = a4 + a1\n111929: a4 = a2 ^ a3\n111932: a3 = a2 <u a3\n111935: a1 = u64 [sp]\n111937: s1 = t2 <u a1\n111940: s1 = a3 if a4 != 0\n111943: t0 = a5 <u t1\n111946: a1 = u64 [sp + 0x8]\n111949: a4 = ra ^ a1\n111952: a3 = ra <u a1\n111955: a3 = t0 if a4 == 0\n111958: a1 = a5 ^ t1\n111961: a1 = a1 | a4\n111964: s1 = a3 if a1 != 0\n111967: jump @1343 if s1 != 0\n      : @1342 (gas: 10)\n111970: u64 [a0] = t2\n111972: u64 [a0 + 0x8] = a2\n111975: u64 [a0 + 0x10] = a5\n111978: u64 [a0 + 0x18] = ra\n111981: sp = s0 + 0xffffffffffffff90\n111984: ra = u64 [sp + 0x68]\n111987: s0 = u64 [sp + 0x60]\n111990: s1 = u64 [sp + 0x58]\n111993: sp = sp + 0x70\n111996: ret\n      : @1343 (gas: 8)\n111998: u64 [sp + 64] = 0\n112001: u64 [sp + 56] = 0\n112004: u64 [sp + 48] = 0\n112007: a0 = 0x4e487b7100000000\n112017: a1 = sp + 0x30\n112020: u64 [sp + 0x48] = a0\n112023: a0 = 0\n112025: ra = 1226, jump @23\n      : @1344 [@dyn 613] (gas: 7)\n112032: u64 [sp + 40] = 0\n112035: u64 [sp + 32] = 0\n112038: u64 [sp + 16] = 0x11\n112042: a0 = 0x4\n112045: a1 = sp + 0x10\n112048: u64 [sp + 24] = 0\n112051: ra = 1228, jump @23\n      : @1345 [@dyn 614] (gas: 3)\n112058: a1 = 0x24\n112061: a0 = 0\n112063: ra = 1230, jump @0\n      : @1346 [@dyn 615] (gas: 6)\n112070: i32 a1 = a0 + 0\n112072: a0 = 0x1\n112075: a2 = 0x24\n112078: ra = 0x4d0\n112082: ecalli 13 // 'seal_return'\n112084: fallthrough\n      : @1347 [@dyn 616] (gas: 32)\n112085: sp = sp + 0xfffffffffffffdc0\n112089: u64 [sp + 0x238] = ra\n112093: u64 [sp + 0x230] = s0\n112097: u64 [sp + 0x228] = s1\n112101: s0 = sp + 0x240\n112105: sp = sp & 0xffffffffffffffe0\n112108: s1 = sp\n112110: a1 = u64 [a0]\n112112: u64 [s1 + 0x138] = a1\n112116: a1 = u64 [a0 + 0x8]\n112119: u64 [s1 + 0x130] = a1\n112123: a1 = u64 [a0 + 0x10]\n112126: u64 [s1 + 0x128] = a1\n112130: a0 = u64 [a0 + 0x18]\n112133: u64 [s1 + 0x120] = a0\n112137: u64 [s1 + 408] = 0\n112141: u64 [s1 + 400] = 0\n112145: u64 [s1 + 392] = 0\n112149: u64 [s1 + 384] = 0\n112153: i32 a0 = s1 + 0x180\n112157: ecalli 16 // 'value_transferred'\n112159: a0 = u64 [s1 + 0x198]\n112163: u64 [s1 + 0x18] = a0\n112166: a0 = u64 [s1 + 0x190]\n112170: u64 [s1 + 0x10] = a0\n112173: a0 = u64 [s1 + 0x180]\n112177: u64 [s1 + 0x8] = a0\n112180: a0 = u64 [s1 + 0x188]\n112184: u64 [s1] = a0\n112186: a1 = 0x20\n112189: a0 = 0\n112191: ra = 1234, jump @0\n      : @1348 [@dyn 617] (gas: 103)\n112198: a1 = u64 [s1 + 0x120]\n112202: a1 = reverse a1\n112204: a2 = u64 [s1 + 0x128]\n112208: a2 = reverse a2\n112210: a3 = u64 [s1 + 0x130]\n112214: a3 = reverse a3\n112216: a4 = u64 [s1 + 0x138]\n112220: a4 = reverse a4\n112222: a5 = a4 >> 0x38\n112225: u64 [s1 + 0xf8] = a5\n112229: u8 [a0 + 0x1f] = a5\n112232: a5 = a4 >> 0x30\n112235: u64 [s1 + 0xf0] = a5\n112239: u8 [a0 + 0x1e] = a5\n112242: a5 = a4 >> 0x28\n112245: u64 [s1 + 0xe8] = a5\n112249: u8 [a0 + 0x1d] = a5\n112252: a5 = a4 >> 0x20\n112255: u64 [s1 + 0xe0] = a5\n112259: u8 [a0 + 0x1c] = a5\n112262: a5 = a4 >> 0x18\n112265: u64 [s1 + 0xd8] = a5\n112269: u8 [a0 + 0x1b] = a5\n112272: a5 = a4 >> 0x10\n112275: u64 [s1 + 0xd0] = a5\n112279: u8 [a0 + 0x1a] = a5\n112282: a5 = a4 >> 0x8\n112285: u64 [s1 + 0xc8] = a5\n112289: u8 [a0 + 0x19] = a5\n112292: u64 [s1 + 0x100] = a4\n112296: u8 [a0 + 0x18] = a4\n112299: a4 = a3 >> 0x38\n112302: u64 [s1 + 0xc0] = a4\n112306: u8 [a0 + 0x17] = a4\n112309: a4 = a3 >> 0x30\n112312: u64 [s1 + 0xb8] = a4\n112316: u8 [a0 + 0x16] = a4\n112319: a4 = a3 >> 0x28\n112322: u64 [s1 + 0xb0] = a4\n112326: u8 [a0 + 0x15] = a4\n112329: a4 = a3 >> 0x20\n112332: u64 [s1 + 0xa8] = a4\n112336: u8 [a0 + 0x14] = a4\n112339: a4 = a3 >> 0x18\n112342: u64 [s1 + 0xa0] = a4\n112346: u8 [a0 + 0x13] = a4\n112349: a4 = a3 >> 0x10\n112352: u64 [s1 + 0x98] = a4\n112356: u8 [a0 + 0x12] = a4\n112359: a4 = a3 >> 0x8\n112362: u64 [s1 + 0x90] = a4\n112366: u8 [a0 + 0x11] = a4\n112369: u64 [s1 + 0x108] = a3\n112373: u8 [a0 + 0x10] = a3\n112376: a3 = a2 >> 0x38\n112379: u64 [s1 + 0x88] = a3\n112383: u8 [a0 + 0xf] = a3\n112386: a3 = a2 >> 0x30\n112389: u64 [s1 + 0x80] = a3\n112393: u8 [a0 + 0xe] = a3\n112396: a3 = a2 >> 0x28\n112399: u64 [s1 + 0x78] = a3\n112402: u8 [a0 + 0xd] = a3\n112405: a3 = a2 >> 0x20\n112408: u64 [s1 + 0x70] = a3\n112411: u8 [a0 + 0xc] = a3\n112414: a3 = a2 >> 0x18\n112417: u64 [s1 + 0x68] = a3\n112420: u8 [a0 + 0xb] = a3\n112423: a3 = a2 >> 0x10\n112426: u64 [s1 + 0x60] = a3\n112429: u8 [a0 + 0xa] = a3\n112432: a3 = a2 >> 0x8\n112435: u64 [s1 + 0x58] = a3\n112438: u8 [a0 + 0x9] = a3\n112441: u64 [s1 + 0x110] = a2\n112445: u8 [a0 + 0x8] = a2\n112448: a2 = a1 >> 0x38\n112451: u64 [s1 + 0x50] = a2\n112454: u8 [a0 + 0x7] = a2\n112457: a2 = a1 >> 0x30\n112460: u64 [s1 + 0x48] = a2\n112463: u8 [a0 + 0x6] = a2\n112466: a2 = a1 >> 0x28\n112469: u64 [s1 + 0x40] = a2\n112472: u8 [a0 + 0x5] = a2\n112475: a2 = a1 >> 0x20\n112478: u64 [s1 + 0x38] = a2\n112481: u8 [a0 + 0x4] = a2\n112484: a2 = a1 >> 0x18\n112487: u64 [s1 + 0x30] = a2\n112490: u8 [a0 + 0x3] = a2\n112493: a2 = a1 >> 0x10\n112496: u64 [s1 + 0x28] = a2\n112499: u8 [a0 + 0x2] = a2\n112502: a2 = a1 >> 0x8\n112505: u64 [s1 + 0x20] = a2\n112508: u8 [a0 + 0x1] = a2\n112511: u64 [s1 + 0x118] = a1\n112515: u8 [a0] = a1\n112517: a0 = 0x20\n112520: a1 = 0x20\n112523: ra = 1236, jump @0\n      : @1349 [@dyn 618] (gas: 35)\n112530: u8 [a0 + 31] = 0x2\n112534: u8 [a0 + 30] = 0\n112537: u8 [a0 + 29] = 0\n112540: u8 [a0 + 28] = 0\n112543: u8 [a0 + 27] = 0\n112546: u8 [a0 + 26] = 0\n112549: u8 [a0 + 25] = 0\n112552: u8 [a0 + 24] = 0\n112555: u8 [a0 + 23] = 0\n112558: u8 [a0 + 22] = 0\n112561: u8 [a0 + 21] = 0\n112564: u8 [a0 + 20] = 0\n112567: u8 [a0 + 19] = 0\n112570: u8 [a0 + 18] = 0\n112573: u8 [a0 + 17] = 0\n112576: u8 [a0 + 16] = 0\n112579: u8 [a0 + 15] = 0\n112582: u8 [a0 + 14] = 0\n112585: u8 [a0 + 13] = 0\n112588: u8 [a0 + 12] = 0\n112591: u8 [a0 + 11] = 0\n112594: u8 [a0 + 10] = 0\n112597: u8 [a0 + 9] = 0\n112600: u8 [a0 + 8] = 0\n112603: u8 [a0 + 7] = 0\n112606: u8 [a0 + 6] = 0\n112609: u8 [a0 + 5] = 0\n112612: u8 [a0 + 4] = 0\n112615: u8 [a0 + 3] = 0\n112618: u8 [a0 + 2] = 0\n112621: u8 [a0 + 1] = 0\n112624: u8 [a0 + 0] = 0\n112626: a1 = 0x40\n112629: a0 = 0\n112631: ra = 1238, jump @0\n      : @1350 [@dyn 619] (gas: 32)\n112638: i32 a0 = a0 + 0\n112640: i32 a2 = s1 + 0x1e0\n112644: a1 = 0x40\n112647: ecalli 8 // 'hash_keccak_256'\n112649: a0 = u64 [s1 + 0x1f8]\n112653: a1 = u64 [s1 + 0x1f0]\n112657: a2 = u64 [s1 + 0x1e8]\n112661: a3 = u64 [s1 + 0x1e0]\n112665: a0 = reverse a0\n112667: a1 = reverse a1\n112669: a2 = reverse a2\n112671: a3 = reverse a3\n112673: u64 [s1 + 0x120] = a3\n112677: u64 [s1 + 0x1b8] = a3\n112681: u64 [s1 + 0x128] = a2\n112685: u64 [s1 + 0x1b0] = a2\n112689: u64 [s1 + 0x130] = a1\n112693: u64 [s1 + 0x1a8] = a1\n112697: u64 [s1 + 0x138] = a0\n112701: u64 [s1 + 0x1a0] = a0\n112705: u64 [s1 + 504] = 0\n112709: u64 [s1 + 496] = 0\n112713: u64 [s1 + 488] = 0\n112717: u64 [s1 + 480] = 0\n112721: u32 [s1 + 448] = 0x20\n112726: i32 a1 = s1 + 0x1a0\n112730: i32 a3 = s1 + 0x1e0\n112734: i32 a4 = s1 + 0x1c0\n112738: a2 = 0xffffffffffffffff\n112741: a0 = 0\n112743: ecalli 7 // 'get_storage'\n112745: fallthrough\n      : @1351 (gas: 39)\n112746: a4 = u64 [s1 + 0x1e8]\n112750: a2 = u64 [s1 + 0x1e0]\n112754: t0 = u64 [s1 + 0x1f8]\n112758: t2 = u64 [s1 + 0x1f0]\n112762: a5 = u64 [s1]\n112764: a5 = a5 + a4\n112767: a1 = u64 [s1 + 0x8]\n112770: a1 = a1 + a2\n112773: u64 [s1 + 0x8] = a1\n112776: a3 = a1 <u a2\n112779: a5 = a5 + a3\n112782: t1 = a5 ^ a4\n112785: u64 [s1] = a5\n112787: a4 = a5 <u a4\n112790: a5 = u64 [s1 + 0x10]\n112793: a5 = a5 + t2\n112796: a1 = u64 [s1 + 0x18]\n112799: a1 = a1 + t0\n112802: a2 = a5 <u t2\n112805: a1 = a1 + a2\n112808: a2 = a3\n112810: a2 = a4 if t1 != 0\n112813: a0 = a5 + a2\n112816: a2 = a0 <u a5\n112819: a5 = a1 + a2\n112822: a1 = a3 ^ 0x1\n112825: a2 = a4 ^ 0x1\n112828: a1 = a2 if t1 != 0\n112831: a2 = a0 <u t2\n112834: a3 = a5 ^ t0\n112837: u64 [s1 + 0x10] = a5\n112840: a4 = a5 <u t0\n112843: a4 = a2 if a3 == 0\n112846: u64 [s1 + 0x18] = a0\n112849: a0 = a0 ^ t2\n112852: a0 = a0 | a3\n112855: a2 = a4 ^ 0x1\n112858: a1 = a2 if a0 != 0\n112861: jump @1363 if a1 == 0\n      : @1352 (gas: 63)\n112865: a0 = u64 [s1 + 0x128]\n112869: u64 [s1 + 0x1b0] = a0\n112873: a0 = u64 [s1 + 0x130]\n112877: u64 [s1 + 0x1a8] = a0\n112881: a0 = u64 [s1 + 0x138]\n112885: u64 [s1 + 0x1a0] = a0\n112889: a0 = u64 [s1 + 0x120]\n112893: u64 [s1 + 0x1b8] = a0\n112897: u64 [s1 + 504] = 0\n112901: u64 [s1 + 496] = 0\n112905: u64 [s1 + 488] = 0\n112909: u64 [s1 + 480] = 0\n112913: u32 [s1 + 448] = 0x20\n112918: i32 a1 = s1 + 0x1a0\n112922: i32 a3 = s1 + 0x1e0\n112926: i32 a4 = s1 + 0x1c0\n112930: a2 = 0xffffffffffffffff\n112933: a0 = 0\n112935: ecalli 7 // 'get_storage'\n112937: a0 = u64 [s1 + 0x120]\n112941: u64 [s1 + 0x1b8] = a0\n112945: a0 = u64 [s1 + 0x128]\n112949: u64 [s1 + 0x1b0] = a0\n112953: a0 = u64 [s1 + 0x130]\n112957: u64 [s1 + 0x1a8] = a0\n112961: a0 = u64 [s1 + 0x138]\n112965: u64 [s1 + 0x1a0] = a0\n112969: a0 = u64 [s1 + 0x10]\n112972: u64 [s1 + 0x1f8] = a0\n112976: a0 = u64 [s1 + 0x18]\n112979: u64 [s1 + 0x1f0] = a0\n112983: a0 = u64 [s1]\n112985: u64 [s1 + 0x1e8] = a0\n112989: a0 = u64 [s1 + 0x8]\n112992: u64 [s1 + 0x1e0] = a0\n112996: i32 a1 = s1 + 0x1a0\n113000: i32 a3 = s1 + 0x1e0\n113004: a2 = 0xffffffffffffffff\n113007: a4 = 0x20\n113010: a0 = 0\n113012: ecalli 15 // 'set_storage'\n113014: a0 = sp + 0xffffffffffffffe0\n113017: a0 = a0 & 0xffffffffffffffe0\n113020: u64 [s1 + 0x138] = a0\n113024: sp = a0\n113026: u64 [a0 + 24] = 0\n113029: u64 [a0 + 16] = 0\n113032: u64 [a0 + 8] = 0\n113035: u64 [a0 + 0] = 0\n113037: i32 a0 = a0 + 0\n113039: ecalli 16 // 'value_transferred'\n113041: a1 = u64 [s1 + 0x138]\n113045: a0 = u64 [a1 + 0x18]\n113048: u64 [s1 + 0x18] = a0\n113051: a0 = u64 [a1 + 0x10]\n113054: u64 [s1 + 0x120] = a0\n113058: a0 = u64 [a1 + 0x8]\n113061: u64 [s1 + 0x128] = a0\n113065: a0 = u64 [a1]\n113067: u64 [s1 + 0x130] = a0\n113071: a1 = 0x20\n113074: a0 = 0\n113076: ra = 1240, jump @0\n      : @1353 [@dyn 620] (gas: 67)\n113083: a1 = u64 [s1 + 0xf8]\n113087: u8 [a0 + 0x1f] = a1\n113090: a1 = u64 [s1 + 0xf0]\n113094: u8 [a0 + 0x1e] = a1\n113097: a1 = u64 [s1 + 0xe8]\n113101: u8 [a0 + 0x1d] = a1\n113104: a1 = u64 [s1 + 0xe0]\n113108: u8 [a0 + 0x1c] = a1\n113111: a1 = u64 [s1 + 0xd8]\n113115: u8 [a0 + 0x1b] = a1\n113118: a1 = u64 [s1 + 0xd0]\n113122: u8 [a0 + 0x1a] = a1\n113125: a1 = u64 [s1 + 0xc8]\n113129: u8 [a0 + 0x19] = a1\n113132: a1 = u64 [s1 + 0xc0]\n113136: u8 [a0 + 0x17] = a1\n113139: a1 = u64 [s1 + 0xb8]\n113143: u8 [a0 + 0x16] = a1\n113146: a1 = u64 [s1 + 0xb0]\n113150: u8 [a0 + 0x15] = a1\n113153: a1 = u64 [s1 + 0xa8]\n113157: u8 [a0 + 0x14] = a1\n113160: a1 = u64 [s1 + 0xa0]\n113164: u8 [a0 + 0x13] = a1\n113167: a1 = u64 [s1 + 0x98]\n113171: u8 [a0 + 0x12] = a1\n113174: a1 = u64 [s1 + 0x90]\n113178: u8 [a0 + 0x11] = a1\n113181: a1 = u64 [s1 + 0x88]\n113185: u8 [a0 + 0xf] = a1\n113188: a1 = u64 [s1 + 0x80]\n113192: u8 [a0 + 0xe] = a1\n113195: a1 = u64 [s1 + 0x78]\n113198: u8 [a0 + 0xd] = a1\n113201: a1 = u64 [s1 + 0x70]\n113204: u8 [a0 + 0xc] = a1\n113207: a1 = u64 [s1 + 0x68]\n113210: u8 [a0 + 0xb] = a1\n113213: a1 = u64 [s1 + 0x60]\n113216: u8 [a0 + 0xa] = a1\n113219: a1 = u64 [s1 + 0x58]\n113222: u8 [a0 + 0x9] = a1\n113225: a1 = u64 [s1 + 0x50]\n113228: u8 [a0 + 0x7] = a1\n113231: a1 = u64 [s1 + 0x48]\n113234: u8 [a0 + 0x6] = a1\n113237: a1 = u64 [s1 + 0x40]\n113240: u8 [a0 + 0x5] = a1\n113243: a1 = u64 [s1 + 0x38]\n113246: u8 [a0 + 0x4] = a1\n113249: a1 = u64 [s1 + 0x30]\n113252: u8 [a0 + 0x3] = a1\n113255: a1 = u64 [s1 + 0x28]\n113258: u8 [a0 + 0x2] = a1\n113261: a1 = u64 [s1 + 0x20]\n113264: u8 [a0 + 0x1] = a1\n113267: a1 = u64 [s1 + 0x100]\n113271: u8 [a0 + 0x18] = a1\n113274: a1 = u64 [s1 + 0x108]\n113278: u8 [a0 + 0x10] = a1\n113281: a1 = u64 [s1 + 0x110]\n113285: u8 [a0 + 0x8] = a1\n113288: a1 = u64 [s1 + 0x118]\n113292: u8 [a0] = a1\n113294: a0 = 0x20\n113297: a1 = 0x20\n113300: ra = 1242, jump @0\n      : @1354 [@dyn 621] (gas: 35)\n113307: u8 [a0 + 31] = 0x2\n113311: u8 [a0 + 30] = 0\n113314: u8 [a0 + 29] = 0\n113317: u8 [a0 + 28] = 0\n113320: u8 [a0 + 27] = 0\n113323: u8 [a0 + 26] = 0\n113326: u8 [a0 + 25] = 0\n113329: u8 [a0 + 24] = 0\n113332: u8 [a0 + 23] = 0\n113335: u8 [a0 + 22] = 0\n113338: u8 [a0 + 21] = 0\n113341: u8 [a0 + 20] = 0\n113344: u8 [a0 + 19] = 0\n113347: u8 [a0 + 18] = 0\n113350: u8 [a0 + 17] = 0\n113353: u8 [a0 + 16] = 0\n113356: u8 [a0 + 15] = 0\n113359: u8 [a0 + 14] = 0\n113362: u8 [a0 + 13] = 0\n113365: u8 [a0 + 12] = 0\n113368: u8 [a0 + 11] = 0\n113371: u8 [a0 + 10] = 0\n113374: u8 [a0 + 9] = 0\n113377: u8 [a0 + 8] = 0\n113380: u8 [a0 + 7] = 0\n113383: u8 [a0 + 6] = 0\n113386: u8 [a0 + 5] = 0\n113389: u8 [a0 + 4] = 0\n113392: u8 [a0 + 3] = 0\n113395: u8 [a0 + 2] = 0\n113398: u8 [a0 + 1] = 0\n113401: u8 [a0 + 0] = 0\n113403: a1 = 0x40\n113406: a0 = 0\n113408: ra = 1244, jump @0\n      : @1355 [@dyn 622] (gas: 38)\n113415: i32 a0 = a0 + 0\n113417: i32 a2 = s1 + 0x1e0\n113421: a1 = 0x40\n113424: ecalli 8 // 'hash_keccak_256'\n113426: a0 = u64 [s1 + 0x1f8]\n113430: a1 = u64 [s1 + 0x1f0]\n113434: a2 = u64 [s1 + 0x1e8]\n113438: a3 = u64 [s1 + 0x1e0]\n113442: a0 = reverse a0\n113444: a1 = reverse a1\n113446: a2 = reverse a2\n113448: a3 = reverse a3\n113450: u64 [s1 + 0x1b8] = a3\n113454: u64 [s1 + 0x1b0] = a2\n113458: u64 [s1 + 0x1a8] = a1\n113462: u64 [s1 + 0x1a0] = a0\n113466: u64 [s1 + 504] = 0\n113470: u64 [s1 + 496] = 0\n113474: u64 [s1 + 488] = 0\n113478: u64 [s1 + 480] = 0\n113482: u32 [s1 + 448] = 0x20\n113487: i32 a1 = s1 + 0x1a0\n113491: i32 a3 = s1 + 0x1e0\n113495: i32 a4 = s1 + 0x1c0\n113499: a2 = 0xffffffffffffffff\n113502: a0 = 0\n113504: ecalli 7 // 'get_storage'\n113506: a0 = u64 [s1 + 0x1f8]\n113510: u64 [s1 + 0xc8] = a0\n113514: a0 = u64 [s1 + 0x1f0]\n113518: u64 [s1 + 0xd0] = a0\n113522: a0 = u64 [s1 + 0x1e8]\n113526: u64 [s1 + 0xd8] = a0\n113530: a0 = u64 [s1 + 0x1e0]\n113534: u64 [s1 + 0xe0] = a0\n113538: a0 = 0x40\n113541: a1 = 0x20\n113544: ra = 1246, jump @0\n      : @1356 [@dyn 623] (gas: 103)\n113551: a1 = u8 [a0 + 0x11]\n113554: a2 = u8 [a0 + 0x10]\n113557: a3 = u8 [a0 + 0x12]\n113560: a4 = u8 [a0 + 0x13]\n113563: a1 = a1 << 0x8\n113566: a1 = a1 | a2\n113569: a3 = a3 << 0x10\n113572: a4 = a4 << 0x18\n113575: a3 = a3 | a4\n113578: a1 = a1 | a3\n113581: a2 = u8 [a0 + 0x15]\n113584: a3 = u8 [a0 + 0x14]\n113587: a4 = u8 [a0 + 0x16]\n113590: a5 = u8 [a0 + 0x17]\n113593: a2 = a2 << 0x8\n113596: a2 = a2 | a3\n113599: a4 = a4 << 0x10\n113602: a5 = a5 << 0x18\n113605: a4 = a4 | a5\n113608: a2 = a2 | a4\n113611: a2 = a2 << 0x20\n113614: t0 = a2 | a1\n113617: a2 = u8 [a0 + 0x1]\n113620: a3 = u8 [a0]\n113622: a4 = u8 [a0 + 0x2]\n113625: a5 = u8 [a0 + 0x3]\n113628: a2 = a2 << 0x8\n113631: a2 = a2 | a3\n113634: a4 = a4 << 0x10\n113637: a5 = a5 << 0x18\n113640: a4 = a4 | a5\n113643: a2 = a2 | a4\n113646: a3 = u8 [a0 + 0x5]\n113649: a4 = u8 [a0 + 0x4]\n113652: a5 = u8 [a0 + 0x6]\n113655: a1 = u8 [a0 + 0x7]\n113658: a3 = a3 << 0x8\n113661: a3 = a3 | a4\n113664: a5 = a5 << 0x10\n113667: a1 = a1 << 0x18\n113670: a1 = a1 | a5\n113673: a1 = a1 | a3\n113676: a1 = a1 << 0x20\n113679: t1 = a1 | a2\n113682: a1 = u8 [a0 + 0x19]\n113685: a3 = u8 [a0 + 0x18]\n113688: a4 = u8 [a0 + 0x1a]\n113691: a5 = u8 [a0 + 0x1b]\n113694: a1 = a1 << 0x8\n113697: a1 = a1 | a3\n113700: a4 = a4 << 0x10\n113703: a5 = a5 << 0x18\n113706: a4 = a4 | a5\n113709: a1 = a1 | a4\n113712: a3 = u8 [a0 + 0x1d]\n113715: a4 = u8 [a0 + 0x1c]\n113718: a5 = u8 [a0 + 0x1e]\n113721: a2 = u8 [a0 + 0x1f]\n113724: a3 = a3 << 0x8\n113727: a3 = a3 | a4\n113730: a5 = a5 << 0x10\n113733: a2 = a2 << 0x18\n113736: a2 = a2 | a5\n113739: a2 = a2 | a3\n113742: a2 = a2 << 0x20\n113745: a3 = a2 | a1\n113748: a1 = u8 [a0 + 0x9]\n113751: a2 = u8 [a0 + 0x8]\n113754: a4 = u8 [a0 + 0xa]\n113757: a5 = u8 [a0 + 0xb]\n113760: a1 = a1 << 0x8\n113763: a1 = a1 | a2\n113766: a4 = a4 << 0x10\n113769: a5 = a5 << 0x18\n113772: a4 = a4 | a5\n113775: a1 = a1 | a4\n113778: a2 = u8 [a0 + 0xd]\n113781: a4 = u8 [a0 + 0xc]\n113784: a5 = u8 [a0 + 0xe]\n113787: a0 = u8 [a0 + 0xf]\n113790: a2 = a2 << 0x8\n113793: a2 = a2 | a4\n113796: a5 = a5 << 0x10\n113799: a0 = a0 << 0x18\n113802: a0 = a0 | a5\n113805: a0 = a0 | a2\n113808: a0 = a0 << 0x20\n113811: a0 = a0 | a1\n113814: a4 = reverse a0\n113816: a2 = reverse a3\n113818: a1 = reverse t1\n113820: a0 = reverse t0\n113822: u64 [s1 + 0xf8] = a0\n113826: u64 [s1 + 0xe8] = a1\n113830: a0 = a0 | a1\n113833: a1 = a2 | a4\n113836: a1 = a1 | a0\n113839: a1 = a1 >> 0x20\n113842: u64 [s1 + 0xf0] = a4\n113846: a0 = a0 | a4\n113849: a0 = a0 << 0x20\n113852: a0 = a0 | a1\n113855: jump @1362 if a0 != 0\n      : @1357 (gas: 5)\n113859: i32 a0 = a2 + 0\n113861: a1 = 0x20\n113864: u64 [s1 + 0x138] = a0\n113868: u64 [s1 + 0xc0] = a2\n113872: ra = 1248, jump @0\n      : @1358 [@dyn 624] (gas: 78)\n113879: a1 = u64 [s1 + 0x18]\n113882: a1 = reverse a1\n113884: a2 = u64 [s1 + 0x120]\n113888: a2 = reverse a2\n113890: a3 = u64 [s1 + 0x128]\n113894: a3 = reverse a3\n113896: a4 = u64 [s1 + 0x130]\n113900: a4 = reverse a4\n113902: a5 = a4 >> 0x38\n113905: u8 [a0 + 0x1f] = a5\n113908: a5 = a4 >> 0x30\n113911: u8 [a0 + 0x1e] = a5\n113914: a5 = a4 >> 0x28\n113917: u8 [a0 + 0x1d] = a5\n113920: a5 = a4 >> 0x20\n113923: u8 [a0 + 0x1c] = a5\n113926: a5 = a4 >> 0x18\n113929: u8 [a0 + 0x1b] = a5\n113932: a5 = a4 >> 0x10\n113935: u8 [a0 + 0x1a] = a5\n113938: a5 = a4 >> 0x8\n113941: u8 [a0 + 0x19] = a5\n113944: u8 [a0 + 0x18] = a4\n113947: u8 [a0 + 0x10] = a3\n113950: a4 = a3 >> 0x38\n113953: u8 [a0 + 0x17] = a4\n113956: a4 = a3 >> 0x30\n113959: u8 [a0 + 0x16] = a4\n113962: a4 = a3 >> 0x28\n113965: u8 [a0 + 0x15] = a4\n113968: a4 = a3 >> 0x20\n113971: u8 [a0 + 0x14] = a4\n113974: a4 = a3 >> 0x18\n113977: u8 [a0 + 0x13] = a4\n113980: a4 = a3 >> 0x10\n113983: u8 [a0 + 0x12] = a4\n113986: a3 = a3 >> 0x8\n113989: u8 [a0 + 0x11] = a3\n113992: u8 [a0 + 0x8] = a2\n113995: a3 = a2 >> 0x38\n113998: u8 [a0 + 0xf] = a3\n114001: a3 = a2 >> 0x30\n114004: u8 [a0 + 0xe] = a3\n114007: a3 = a2 >> 0x28\n114010: u8 [a0 + 0xd] = a3\n114013: a3 = a2 >> 0x20\n114016: u8 [a0 + 0xc] = a3\n114019: a3 = a2 >> 0x18\n114022: u8 [a0 + 0xb] = a3\n114025: a3 = a2 >> 0x10\n114028: u8 [a0 + 0xa] = a3\n114031: a2 = a2 >> 0x8\n114034: u8 [a0 + 0x9] = a2\n114037: u8 [a0] = a1\n114039: a2 = a1 >> 0x38\n114042: u8 [a0 + 0x7] = a2\n114045: a2 = a1 >> 0x30\n114048: u8 [a0 + 0x6] = a2\n114051: a2 = a1 >> 0x28\n114054: u8 [a0 + 0x5] = a2\n114057: a2 = a1 >> 0x20\n114060: u8 [a0 + 0x4] = a2\n114063: a2 = a1 >> 0x18\n114066: u8 [a0 + 0x3] = a2\n114069: a2 = a1 >> 0x10\n114072: u8 [a0 + 0x2] = a2\n114075: a1 = a1 >> 0x8\n114078: a2 = u64 [s1 + 0xf0]\n114082: a3 = u64 [s1 + 0xe8]\n114086: a2 = a2 | a3\n114089: a3 = 0xffffffe0\n114099: a4 = u64 [s1 + 0xc0]\n114103: a3 = a4 <u a3\n114106: a4 = u64 [s1 + 0xf8]\n114110: a3 = 0 if a4 != 0\n114112: a3 = 0 if a2 != 0\n114114: u8 [a0 + 0x1] = a1\n114117: jump @1362 if a3 == 0\n      : @1359 (gas: 4)\n114121: a0 = u64 [s1 + 0x138]\n114125: i32 a0 = a0 + 0x20\n114128: a1 = 0x20\n114131: ra = 1250, jump @0\n      : @1360 [@dyn 625] (gas: 71)\n114138: a1 = u64 [s1 + 0xc8]\n114142: a1 = reverse a1\n114144: a2 = u64 [s1 + 0xd0]\n114148: a2 = reverse a2\n114150: a3 = u64 [s1 + 0xd8]\n114154: a3 = reverse a3\n114156: a4 = u64 [s1 + 0xe0]\n114160: a4 = reverse a4\n114162: a5 = a4 >> 0x38\n114165: u8 [a0 + 0x1f] = a5\n114168: a5 = a4 >> 0x30\n114171: u8 [a0 + 0x1e] = a5\n114174: a5 = a4 >> 0x28\n114177: u8 [a0 + 0x1d] = a5\n114180: a5 = a4 >> 0x20\n114183: u8 [a0 + 0x1c] = a5\n114186: a5 = a4 >> 0x18\n114189: u8 [a0 + 0x1b] = a5\n114192: a5 = a4 >> 0x10\n114195: u8 [a0 + 0x1a] = a5\n114198: a5 = a4 >> 0x8\n114201: u8 [a0 + 0x19] = a5\n114204: u8 [a0 + 0x18] = a4\n114207: u8 [a0 + 0x10] = a3\n114210: a4 = a3 >> 0x38\n114213: u8 [a0 + 0x17] = a4\n114216: a4 = a3 >> 0x30\n114219: u8 [a0 + 0x16] = a4\n114222: a4 = a3 >> 0x28\n114225: u8 [a0 + 0x15] = a4\n114228: a4 = a3 >> 0x20\n114231: u8 [a0 + 0x14] = a4\n114234: a4 = a3 >> 0x18\n114237: u8 [a0 + 0x13] = a4\n114240: a4 = a3 >> 0x10\n114243: u8 [a0 + 0x12] = a4\n114246: a3 = a3 >> 0x8\n114249: u8 [a0 + 0x11] = a3\n114252: u8 [a0 + 0x8] = a2\n114255: a3 = a2 >> 0x38\n114258: u8 [a0 + 0xf] = a3\n114261: a3 = a2 >> 0x30\n114264: u8 [a0 + 0xe] = a3\n114267: a3 = a2 >> 0x28\n114270: u8 [a0 + 0xd] = a3\n114273: a3 = a2 >> 0x20\n114276: u8 [a0 + 0xc] = a3\n114279: a3 = a2 >> 0x18\n114282: u8 [a0 + 0xb] = a3\n114285: a3 = a2 >> 0x10\n114288: u8 [a0 + 0xa] = a3\n114291: a2 = a2 >> 0x8\n114294: u8 [a0 + 0x9] = a2\n114297: u8 [a0] = a1\n114299: a2 = a1 >> 0x38\n114302: u8 [a0 + 0x7] = a2\n114305: a2 = a1 >> 0x30\n114308: u8 [a0 + 0x6] = a2\n114311: a2 = a1 >> 0x28\n114314: u8 [a0 + 0x5] = a2\n114317: a2 = a1 >> 0x20\n114320: u8 [a0 + 0x4] = a2\n114323: a2 = a1 >> 0x18\n114326: u8 [a0 + 0x3] = a2\n114329: a2 = a1 >> 0x10\n114332: u8 [a0 + 0x2] = a2\n114335: a1 = a1 >> 0x8\n114338: u8 [a0 + 0x1] = a1\n114341: a1 = 0x40\n114344: a0 = u64 [s1 + 0x138]\n114348: ra = 1252, jump @0\n      : @1361 [@dyn 626] (gas: 27)\n114355: a1 = u64 [0x200c0]\n114360: a2 = u64 [0x200c8]\n114365: a3 = u64 [0x200d0]\n114370: a4 = u64 [0x200d8]\n114375: u64 [s1 + 0x1f8] = a1\n114379: u64 [s1 + 0x1f0] = a2\n114383: u64 [s1 + 0x1e8] = a3\n114387: u64 [s1 + 0x1e0] = a4\n114391: a1 = u64 [s1 + 0x100]\n114395: u64 [s1 + 0x218] = a1\n114399: a1 = u64 [s1 + 0x108]\n114403: u64 [s1 + 0x210] = a1\n114407: a1 = u64 [s1 + 0x110]\n114411: u64 [s1 + 0x208] = a1\n114415: a1 = u64 [s1 + 0x118]\n114419: u64 [s1 + 0x200] = a1\n114423: i32 a2 = a0 + 0\n114425: i32 a0 = s1 + 0x1e0\n114429: a1 = 0x2\n114432: a3 = 0x40\n114435: ecalli 6 // 'deposit_event'\n114437: sp = s0 + 0xfffffffffffffdc0\n114441: ra = u64 [sp + 0x238]\n114445: s0 = u64 [sp + 0x230]\n114449: s1 = u64 [sp + 0x228]\n114453: sp = sp + 0x240\n114457: ret\n      : @1362 (gas: 1)\n114459: trap\n      : @1363 (gas: 8)\n114460: u64 [s1 + 368] = 0\n114464: u64 [s1 + 360] = 0\n114468: u64 [s1 + 352] = 0\n114472: a0 = 0x4e487b7100000000\n114482: a1 = s1 + 0x160\n114486: u64 [s1 + 0x178] = a0\n114490: a0 = 0\n114492: ra = 1254, jump @23\n      : @1364 [@dyn 627] (gas: 7)\n114499: u64 [s1 + 344] = 0\n114503: u64 [s1 + 336] = 0\n114507: u64 [s1 + 320] = 0x11\n114512: a0 = 0x4\n114515: a1 = s1 + 0x140\n114519: u64 [s1 + 328] = 0\n114523: ra = 1256, jump @23\n      : @1365 [@dyn 628] (gas: 3)\n114530: a1 = 0x24\n114533: a0 = 0\n114535: ra = 1258, jump @0\n      : @1366 [@dyn 629] (gas: 6)\n114542: i32 a1 = a0 + 0\n114544: a0 = 0x1\n114547: a2 = 0x24\n114550: ra = 0x4ec\n114554: ecalli 13 // 'seal_return'\n114556: fallthrough\n      : @1367 [@dyn 630] (gas: 15)\n114557: sp = sp + 0xffffffffffffffd0\n114560: u64 [sp + 0x28] = ra\n114563: u64 [sp + 0x20] = s0\n114566: s0 = sp + 0x30\n114569: sp = sp & 0xfffffffffffffff0\n114572: a1 = u64 [a0]\n114574: a2 = u64 [a0 + 0x8]\n114577: a3 = u64 [a0 + 0x10]\n114580: a0 = u64 [a0 + 0x18]\n114583: u64 [sp + 0x18] = a0\n114586: u64 [sp + 0x10] = a3\n114589: u64 [sp + 0x8] = a2\n114592: a0 = sp\n114594: u64 [sp] = a1\n114596: ra = 1262, jump @1326\n      : @1368 [@dyn 631] (gas: 5)\n114602: sp = s0 + 0xffffffffffffffd0\n114605: ra = u64 [sp + 0x28]\n114608: s0 = u64 [sp + 0x20]\n114611: sp = sp + 0x30\n114614: ret\n      : @1369 (gas: 17)\n114616: sp = sp + 0xffffffffffffffa0\n114619: u64 [sp + 0x58] = ra\n114622: u64 [sp + 0x50] = s0\n114625: u64 [sp + 0x48] = s1\n114628: a3 = u64 [a1 + 0x18]\n114631: a4 = u64 [a1 + 0x10]\n114634: a5 = u64 [a1 + 0x8]\n114637: s1 = u64 [a1]\n114639: a1 = a5 | a3\n114642: a2 = s1 | a4\n114645: a2 = a2 | a1\n114648: a2 = a2 >> 0x20\n114651: a1 = a1 | a4\n114654: a1 = a1 << 0x20\n114657: a1 = a1 | a2\n114660: u64 [sp + 0x28] = a0\n114663: jump @1376 if a1 != 0\n      : @1370 (gas: 19)\n114667: a0 = s1 + 0x20\n114670: u64 [sp + 0x30] = a0\n114673: a0 = a0 <u s1\n114676: a1 = a5 + a0\n114679: u64 [sp + 0x40] = a1\n114682: u64 [sp + 0x8] = a5\n114685: s0 = a1 <u a5\n114688: s0 = a0 if a0 == 0\n114691: s0 = s0 + a4\n114694: u64 [sp + 0x10] = a4\n114697: a0 = s0 <u a4\n114700: u64 [sp + 0x18] = a3\n114703: a0 = a0 + a3\n114706: u64 [sp + 0x38] = a0\n114709: u64 [sp] = s1\n114711: i32 a0 = s1 + 0\n114713: a1 = 0x20\n114716: s1 = 0x20\n114719: ra = 1264, jump @0\n      : @1371 [@dyn 632] (gas: 45)\n114726: u8 [a0 + 0x1f] = s1\n114729: a1 = u64 [sp + 0x30]\n114732: s1 = a1\n114734: a1 = a1 | s0\n114737: a2 = u64 [sp + 0x40]\n114740: a4 = u64 [sp + 0x38]\n114743: a2 = a2 | a4\n114746: a1 = a1 | a2\n114749: a1 = a1 >> 0x20\n114752: u64 [sp + 0x20] = s0\n114755: a2 = a2 | s0\n114758: a2 = a2 << 0x20\n114761: a1 = a1 | a2\n114764: u8 [a0 + 30] = 0\n114767: u8 [a0 + 29] = 0\n114770: u8 [a0 + 28] = 0\n114773: u8 [a0 + 27] = 0\n114776: u8 [a0 + 26] = 0\n114779: u8 [a0 + 25] = 0\n114782: u8 [a0 + 24] = 0\n114785: u8 [a0 + 23] = 0\n114788: u8 [a0 + 22] = 0\n114791: u8 [a0 + 21] = 0\n114794: u8 [a0 + 20] = 0\n114797: u8 [a0 + 19] = 0\n114800: u8 [a0 + 18] = 0\n114803: u8 [a0 + 17] = 0\n114806: u8 [a0 + 16] = 0\n114809: u8 [a0 + 15] = 0\n114812: u8 [a0 + 14] = 0\n114815: u8 [a0 + 13] = 0\n114818: u8 [a0 + 12] = 0\n114821: u8 [a0 + 11] = 0\n114824: u8 [a0 + 10] = 0\n114827: u8 [a0 + 9] = 0\n114830: u8 [a0 + 8] = 0\n114833: u8 [a0 + 7] = 0\n114836: u8 [a0 + 6] = 0\n114839: u8 [a0 + 5] = 0\n114842: u8 [a0 + 4] = 0\n114845: u8 [a0 + 3] = 0\n114848: u8 [a0 + 2] = 0\n114851: u8 [a0 + 1] = 0\n114854: u8 [a0 + 0] = 0\n114856: jump @1376 if a1 != 0\n      : @1372 (gas: 4)\n114860: i32 s0 = s1 + 0\n114862: a1 = 0x20\n114865: a0 = s0\n114867: ra = 1266, jump @0\n      : @1373 [@dyn 633] (gas: 41)\n114874: u8 [a0 + 31] = 0x1b\n114878: u8 [a0 + 30] = 0\n114881: u8 [a0 + 29] = 0\n114884: u8 [a0 + 28] = 0\n114887: u8 [a0 + 27] = 0\n114890: u8 [a0 + 26] = 0\n114893: u8 [a0 + 25] = 0\n114896: u8 [a0 + 24] = 0\n114899: u8 [a0 + 23] = 0\n114902: u8 [a0 + 22] = 0\n114905: u8 [a0 + 21] = 0\n114908: u8 [a0 + 20] = 0\n114911: u8 [a0 + 19] = 0\n114914: u8 [a0 + 18] = 0\n114917: u8 [a0 + 17] = 0\n114920: u8 [a0 + 16] = 0\n114923: u8 [a0 + 15] = 0\n114926: u8 [a0 + 14] = 0\n114929: u8 [a0 + 13] = 0\n114932: u8 [a0 + 12] = 0\n114935: u8 [a0 + 11] = 0\n114938: u8 [a0 + 10] = 0\n114941: u8 [a0 + 9] = 0\n114944: u8 [a0 + 8] = 0\n114947: u8 [a0 + 7] = 0\n114950: u8 [a0 + 6] = 0\n114953: u8 [a0 + 5] = 0\n114956: u8 [a0 + 4] = 0\n114959: u8 [a0 + 3] = 0\n114962: u8 [a0 + 2] = 0\n114965: u8 [a0 + 1] = 0\n114968: a1 = u64 [sp + 0x20]\n114971: a2 = u64 [sp + 0x38]\n114974: a1 = a1 | a2\n114977: a2 = 0xffffffe0\n114987: a2 = s1 <u a2\n114990: a3 = u64 [sp + 0x40]\n114993: a2 = 0 if a3 != 0\n114995: a2 = 0 if a1 != 0\n114997: u8 [a0 + 0] = 0\n114999: jump @1376 if a2 == 0\n      : @1374 (gas: 3)\n115003: i32 a0 = s0 + 0x20\n115006: a1 = 0x20\n115009: ra = 1268, jump @0\n      : @1375 [@dyn 634] (gas: 54)\n115016: u8 [a0 + 23] = 0x65\n115020: u8 [a0 + 20] = 0x68\n115024: u8 [a0 + 17] = 0x75\n115028: u8 [a0 + 16] = 0x70\n115032: u8 [a0 + 26] = 0x64\n115036: u8 [a0 + 14] = 0x64\n115040: u8 [a0 + 12] = 0x6c\n115044: u8 [a0 + 21] = 0x61\n115048: u8 [a0 + 11] = 0x61\n115052: u8 [a0 + 10] = 0x76\n115056: u8 [a0 + 9] = 0x6e\n115060: u8 [a0 + 25] = 0x69\n115064: u8 [a0 + 13] = 0x69\n115068: u8 [a0 + 8] = 0x69\n115072: u8 [a0 + 31] = 0\n115075: u8 [a0 + 30] = 0\n115078: u8 [a0 + 29] = 0\n115081: u8 [a0 + 28] = 0\n115084: u8 [a0 + 27] = 0\n115087: u8 [a0 + 24] = 0x20\n115091: u8 [a0 + 15] = 0x20\n115095: u8 [a0 + 7] = 0x20\n115099: u8 [a0 + 6] = 0x3a\n115103: u8 [a0 + 5] = 0x77\n115107: u8 [a0 + 4] = 0x6f\n115111: u8 [a0 + 18] = 0x72\n115115: u8 [a0 + 3] = 0x72\n115119: u8 [a0 + 19] = 0x63\n115123: u8 [a0 + 2] = 0x63\n115127: u8 [a0 + 22] = 0x73\n115131: u8 [a0 + 1] = 0x73\n115135: u8 [a0 + 0] = 0x45\n115138: a1 = u64 [sp]\n115140: a0 = a1 + 0x60\n115143: a1 = a0 <u a1\n115146: a3 = u64 [sp + 0x8]\n115149: a2 = a3 + a1\n115152: a3 = a2 <u a3\n115155: a3 = a1 if a1 == 0\n115158: a1 = u64 [sp + 0x10]\n115161: a3 = a3 + a1\n115164: a1 = a3 <u a1\n115167: a4 = u64 [sp + 0x18]\n115170: a1 = a1 + a4\n115173: a4 = u64 [sp + 0x28]\n115176: u64 [a4] = a0\n115178: u64 [a4 + 0x8] = a2\n115181: u64 [a4 + 0x10] = a3\n115184: u64 [a4 + 0x18] = a1\n115187: ra = u64 [sp + 0x58]\n115190: s0 = u64 [sp + 0x50]\n115193: s1 = u64 [sp + 0x48]\n115196: sp = sp + 0x60\n115199: ret\n      : @1376 (gas: 1)\n115201: trap\n      : @1377 (gas: 17)\n115202: sp = sp + 0xffffffffffffff38\n115206: u64 [sp + 0xc0] = ra\n115210: u64 [sp + 0xb8] = s0\n115214: u64 [sp + 0xb0] = s1\n115218: t0 = u64 [a1 + 0x18]\n115221: s0 = u64 [a1 + 0x10]\n115224: t1 = u64 [a1 + 0x8]\n115227: s1 = u64 [a1]\n115229: a1 = t1 | t0\n115232: a5 = s1 | s0\n115235: a5 = a5 | a1\n115238: a5 = a5 >> 0x20\n115241: a1 = a1 | s0\n115244: a1 = a1 << 0x20\n115247: a1 = a1 | a5\n115250: u64 [sp + 0x30] = a0\n115253: jump @1390 if a1 != 0\n      : @1378 (gas: 43)\n115257: a0 = u64 [a4 + 0x18]\n115260: u64 [sp + 0x8] = a0\n115263: a0 = u64 [a4 + 0x10]\n115266: u64 [sp + 0x10] = a0\n115269: a0 = u64 [a4 + 0x8]\n115272: u64 [sp + 0x18] = a0\n115275: a0 = u64 [a4]\n115277: u64 [sp + 0x20] = a0\n115280: a0 = u64 [a3 + 0x18]\n115283: u64 [sp + 0x88] = a0\n115287: a0 = u64 [a3 + 0x10]\n115290: u64 [sp + 0x80] = a0\n115294: a0 = s1 + 0x40\n115297: u64 [sp + 0xa0] = a0\n115301: a0 = a0 <u s1\n115304: a1 = t1 + a0\n115307: u64 [sp + 0x98] = a1\n115311: u64 [sp + 0x40] = t1\n115314: a1 = a1 <u t1\n115317: a1 = a0 if a0 == 0\n115320: a0 = u64 [a3 + 0x8]\n115323: u64 [sp + 0x78] = a0\n115326: a0 = u64 [a3]\n115328: u64 [sp + 0xa8] = a0\n115332: a0 = u64 [a2 + 0x18]\n115335: u64 [sp + 0x60] = a0\n115338: a0 = u64 [a2 + 0x10]\n115341: u64 [sp + 0x68] = a0\n115344: a0 = u64 [a2 + 0x8]\n115347: u64 [sp + 0x58] = a0\n115350: a0 = u64 [a2]\n115352: u64 [sp + 0x70] = a0\n115355: a1 = a1 + s0\n115358: u64 [sp + 0x90] = a1\n115362: u64 [sp + 0x48] = s0\n115365: a0 = a1 <u s0\n115368: u64 [sp + 0x50] = t0\n115371: s0 = t0 + a0\n115374: u64 [sp + 0x38] = s1\n115377: i32 a0 = s1 + 0\n115379: a1 = 0x20\n115382: u64 [sp] = a0\n115384: ra = 1270, jump @0\n      : @1379 [@dyn 635] (gas: 43)\n115391: a3 = u64 [sp + 0xa0]\n115395: u8 [a0 + 31] = 0x40\n115399: a4 = u64 [sp + 0x90]\n115403: a1 = a3 | a4\n115406: a2 = u64 [sp + 0x98]\n115410: a2 = a2 | s0\n115413: a1 = a1 | a2\n115416: a1 = a1 >> 0x20\n115419: a2 = a2 | a4\n115422: a2 = a2 << 0x20\n115425: a1 = a1 | a2\n115428: u8 [a0 + 30] = 0\n115431: u8 [a0 + 29] = 0\n115434: u8 [a0 + 28] = 0\n115437: u8 [a0 + 27] = 0\n115440: u8 [a0 + 26] = 0\n115443: u8 [a0 + 25] = 0\n115446: u8 [a0 + 24] = 0\n115449: u8 [a0 + 23] = 0\n115452: u8 [a0 + 22] = 0\n115455: u8 [a0 + 21] = 0\n115458: u8 [a0 + 20] = 0\n115461: u8 [a0 + 19] = 0\n115464: u8 [a0 + 18] = 0\n115467: u8 [a0 + 17] = 0\n115470: u8 [a0 + 16] = 0\n115473: u8 [a0 + 15] = 0\n115476: u8 [a0 + 14] = 0\n115479: u8 [a0 + 13] = 0\n115482: u8 [a0 + 12] = 0\n115485: u8 [a0 + 11] = 0\n115488: u8 [a0 + 10] = 0\n115491: u8 [a0 + 9] = 0\n115494: u8 [a0 + 8] = 0\n115497: u8 [a0 + 7] = 0\n115500: u8 [a0 + 6] = 0\n115503: u8 [a0 + 5] = 0\n115506: u8 [a0 + 4] = 0\n115509: u8 [a0 + 3] = 0\n115512: u8 [a0 + 2] = 0\n115515: u8 [a0 + 1] = 0\n115518: u8 [a0 + 0] = 0\n115520: jump @1390 if a1 != 0\n      : @1380 (gas: 4)\n115524: u64 [sp + 0x28] = s0\n115527: i32 a0 = a3 + 0\n115529: a1 = 0x20\n115532: ra = 1272, jump @0\n      : @1381 [@dyn 636] (gas: 80)\n115539: t1 = u64 [sp + 0xa8]\n115543: a1 = reverse t1\n115545: a2 = a1 >> 0x38\n115548: u8 [a0 + 0x1f] = a2\n115551: a2 = a1 >> 0x30\n115554: u8 [a0 + 0x1e] = a2\n115557: a2 = a1 >> 0x28\n115560: u8 [a0 + 0x1d] = a2\n115563: a2 = a1 >> 0x20\n115566: u8 [a0 + 0x1c] = a2\n115569: a2 = a1 >> 0x18\n115572: u8 [a0 + 0x1b] = a2\n115575: a2 = a1 >> 0x10\n115578: u8 [a0 + 0x1a] = a2\n115581: a2 = a1 >> 0x8\n115584: u8 [a0 + 0x19] = a2\n115587: s1 = u64 [sp + 0x78]\n115590: a2 = reverse s1\n115592: u8 [a0 + 0x18] = a1\n115595: a1 = a2 >> 0x38\n115598: u8 [a0 + 0x17] = a1\n115601: a1 = a2 >> 0x30\n115604: u8 [a0 + 0x16] = a1\n115607: a1 = a2 >> 0x28\n115610: u8 [a0 + 0x15] = a1\n115613: a1 = a2 >> 0x20\n115616: u8 [a0 + 0x14] = a1\n115619: a1 = a2 >> 0x18\n115622: u8 [a0 + 0x13] = a1\n115625: a1 = a2 >> 0x10\n115628: u8 [a0 + 0x12] = a1\n115631: a5 = u64 [sp + 0x80]\n115635: a3 = reverse a5\n115637: u8 [a0 + 0x10] = a2\n115640: a2 = a2 >> 0x8\n115643: u8 [a0 + 0x11] = a2\n115646: a1 = a3 >> 0x38\n115649: u8 [a0 + 0xf] = a1\n115652: a1 = a3 >> 0x30\n115655: u8 [a0 + 0xe] = a1\n115658: a1 = a3 >> 0x28\n115661: u8 [a0 + 0xd] = a1\n115664: a1 = a3 >> 0x20\n115667: u8 [a0 + 0xc] = a1\n115670: a1 = a3 >> 0x18\n115673: u8 [a0 + 0xb] = a1\n115676: a1 = a3 >> 0x10\n115679: u8 [a0 + 0xa] = a1\n115682: a4 = u64 [sp + 0x88]\n115686: a1 = reverse a4\n115688: u8 [a0 + 0x8] = a3\n115691: a3 = a3 >> 0x8\n115694: u8 [a0 + 0x9] = a3\n115697: a2 = a1 >> 0x38\n115700: u8 [a0 + 0x7] = a2\n115703: a2 = a1 >> 0x30\n115706: u8 [a0 + 0x6] = a2\n115709: a2 = a1 >> 0x28\n115712: u8 [a0 + 0x5] = a2\n115715: a2 = a1 >> 0x20\n115718: u8 [a0 + 0x4] = a2\n115721: a2 = a1 >> 0x18\n115724: u8 [a0 + 0x3] = a2\n115727: a2 = a1 >> 0x10\n115730: u8 [a0 + 0x2] = a2\n115733: a2 = u64 [sp + 0x60]\n115736: s0 = u64 [sp + 0x58]\n115739: s0 = s0 | a2\n115742: t2 = u64 [sp + 0x70]\n115745: a2 = u64 [sp + 0x68]\n115748: a3 = t2 | a2\n115751: a3 = a3 | s0\n115754: a2 = a2 | s0\n115757: a3 = a3 >> 0x20\n115760: a2 = a2 << 0x20\n115763: a2 = a2 | a3\n115766: u8 [a0] = a1\n115768: a1 = a1 >> 0x8\n115771: u8 [a0 + 0x1] = a1\n115774: jump @1390 if a2 != 0\n      : @1382 (gas: 13)\n115778: a1 = a4\n115780: a0 = t1 | a5\n115783: a1 = a1 | s1\n115786: a0 = a0 | a1\n115789: a0 = a0 >> 0x20\n115792: a1 = a1 | a5\n115795: a1 = a1 << 0x20\n115798: a0 = a0 | a1\n115801: t0 = u64 [sp + 0x50]\n115804: a4 = u64 [sp + 0x48]\n115807: s0 = u64 [sp + 0x40]\n115810: a2 = u64 [sp + 0x38]\n115813: jump @1390 if a0 != 0\n      : @1383 (gas: 10)\n115817: a0 = u64 [sp + 0x90]\n115821: a1 = u64 [sp + 0x28]\n115824: a0 = a0 | a1\n115827: a1 = 0xffffffe0\n115837: a3 = u64 [sp + 0xa0]\n115841: a1 = a3 <u a1\n115844: a3 = u64 [sp + 0x98]\n115848: a1 = 0 if a3 != 0\n115850: a1 = 0 if a0 != 0\n115852: jump @1390 if a1 == 0\n      : @1384 (gas: 17)\n115856: s1 = a2 + 0x60\n115859: a0 = s1 <u a2\n115862: a1 = s0 + a0\n115865: u64 [sp + 0x98] = a1\n115869: a1 = a1 <u s0\n115872: a1 = a0 if a0 == 0\n115875: a1 = a1 + a4\n115878: u64 [sp + 0xa0] = a1\n115882: a0 = a1 <u a4\n115885: a0 = a0 + t0\n115888: u64 [sp + 0x90] = a0\n115892: i32 t2 = t2 + 0\n115894: u64 [sp + 0x70] = t2\n115897: i32 a0 = s1 + 0\n115899: i32 s0 = t1 + 0\n115901: a1 = s0\n115903: ra = 1274, jump @0\n      : @1385 [@dyn 637] (gas: 6)\n115910: i32 a0 = a0 + 0\n115912: a1 = s0\n115914: s0 = u64 [sp + 0x98]\n115918: a2 = u64 [sp + 0x70]\n115921: ecalli 2 // 'call_data_copy'\n115923: fallthrough\n      : @1386 (gas: 29)\n115924: a0 = u64 [sp + 0xa8]\n115928: a0 = a0 + s1\n115931: u64 [sp + 0x70] = s1\n115934: a1 = a0 <u s1\n115937: a2 = u64 [sp + 0x78]\n115940: a2 = a2 + s0\n115943: a2 = a2 + a1\n115946: a3 = a2 ^ s0\n115949: a4 = a2 <u s0\n115952: a4 = a1 if a3 == 0\n115955: a1 = u64 [sp + 0x80]\n115959: a5 = u64 [sp + 0xa0]\n115963: a1 = a1 + a5\n115966: a4 = a4 + a1\n115969: a3 = a4 <u a1\n115972: a1 = a1 <u a5\n115975: a5 = u64 [sp + 0x88]\n115979: s1 = u64 [sp + 0x90]\n115983: a5 = a5 + s1\n115986: a1 = a1 + a5\n115989: a1 = a1 + a3\n115992: a3 = a0 | a4\n115995: a1 = a1 | a2\n115998: a3 = a3 | a1\n116001: a3 = a3 >> 0x20\n116004: a1 = a1 | a4\n116007: a1 = a1 << 0x20\n116010: a1 = a1 | a3\n116013: jump @1390 if a1 != 0\n      : @1387 (gas: 3)\n116017: i32 a0 = a0 + 0\n116019: a1 = 0x20\n116022: ra = 1276, jump @0\n      : @1388 [@dyn 638] (gas: 53)\n116029: u8 [a0 + 31] = 0\n116032: u8 [a0 + 30] = 0\n116035: u8 [a0 + 29] = 0\n116038: u8 [a0 + 28] = 0\n116041: u8 [a0 + 27] = 0\n116044: u8 [a0 + 26] = 0\n116047: u8 [a0 + 25] = 0\n116050: u8 [a0 + 24] = 0\n116053: u8 [a0 + 23] = 0\n116056: u8 [a0 + 22] = 0\n116059: u8 [a0 + 21] = 0\n116062: u8 [a0 + 20] = 0\n116065: u8 [a0 + 19] = 0\n116068: u8 [a0 + 18] = 0\n116071: u8 [a0 + 17] = 0\n116074: u8 [a0 + 16] = 0\n116077: u8 [a0 + 15] = 0\n116080: u8 [a0 + 14] = 0\n116083: u8 [a0 + 13] = 0\n116086: u8 [a0 + 12] = 0\n116089: u8 [a0 + 11] = 0\n116092: u8 [a0 + 10] = 0\n116095: u8 [a0 + 9] = 0\n116098: u8 [a0 + 8] = 0\n116101: u8 [a0 + 7] = 0\n116104: u8 [a0 + 6] = 0\n116107: u8 [a0 + 5] = 0\n116110: u8 [a0 + 4] = 0\n116113: u8 [a0 + 3] = 0\n116116: u8 [a0 + 2] = 0\n116119: u8 [a0 + 1] = 0\n116122: u8 [a0 + 0] = 0\n116124: a0 = u64 [sp + 0xa8]\n116128: a0 = a0 + 0x1f\n116131: a1 = 0x1ffffffe0\n116141: a0 = a0 & a1\n116144: a1 = u64 [sp + 0x70]\n116147: a1 = a1 + a0\n116150: u64 [sp + 0xa8] = a1\n116154: s0 = a1 <u a0\n116157: s1 = u64 [sp + 0x98]\n116161: s1 = s1 + s0\n116164: s0 = 0 if s1 != 0\n116166: a0 = u64 [sp + 0xa0]\n116170: s0 = s0 + a0\n116173: a0 = s0 <u a0\n116176: a1 = u64 [sp + 0x90]\n116180: a0 = a0 + a1\n116183: u64 [sp + 0xa0] = a0\n116187: a0 = u64 [sp]\n116189: i32 a0 = a0 + 0x20\n116192: a1 = 0x20\n116195: ra = 1278, jump @0\n      : @1389 [@dyn 639] (gas: 80)\n116202: a1 = u64 [sp + 0x8]\n116205: a1 = reverse a1\n116207: a2 = u64 [sp + 0x10]\n116210: a2 = reverse a2\n116212: a3 = u64 [sp + 0x18]\n116215: a3 = reverse a3\n116217: a4 = u64 [sp + 0x20]\n116220: a4 = reverse a4\n116222: a5 = a4 >> 0x38\n116225: u8 [a0 + 0x1f] = a5\n116228: a5 = a4 >> 0x30\n116231: u8 [a0 + 0x1e] = a5\n116234: a5 = a4 >> 0x28\n116237: u8 [a0 + 0x1d] = a5\n116240: a5 = a4 >> 0x20\n116243: u8 [a0 + 0x1c] = a5\n116246: a5 = a4 >> 0x18\n116249: u8 [a0 + 0x1b] = a5\n116252: a5 = a4 >> 0x10\n116255: u8 [a0 + 0x1a] = a5\n116258: a5 = a4 >> 0x8\n116261: u8 [a0 + 0x19] = a5\n116264: u8 [a0 + 0x18] = a4\n116267: a4 = a3 >> 0x38\n116270: u8 [a0 + 0x17] = a4\n116273: a4 = a3 >> 0x30\n116276: u8 [a0 + 0x16] = a4\n116279: a4 = a3 >> 0x28\n116282: u8 [a0 + 0x15] = a4\n116285: a4 = a3 >> 0x20\n116288: u8 [a0 + 0x14] = a4\n116291: a4 = a3 >> 0x18\n116294: u8 [a0 + 0x13] = a4\n116297: a4 = a3 >> 0x10\n116300: u8 [a0 + 0x12] = a4\n116303: a4 = a3 >> 0x8\n116306: u8 [a0 + 0x11] = a4\n116309: u8 [a0 + 0x10] = a3\n116312: a3 = a2 >> 0x38\n116315: u8 [a0 + 0xf] = a3\n116318: a3 = a2 >> 0x30\n116321: u8 [a0 + 0xe] = a3\n116324: a3 = a2 >> 0x28\n116327: u8 [a0 + 0xd] = a3\n116330: a3 = a2 >> 0x20\n116333: u8 [a0 + 0xc] = a3\n116336: a3 = a2 >> 0x18\n116339: u8 [a0 + 0xb] = a3\n116342: a3 = a2 >> 0x10\n116345: u8 [a0 + 0xa] = a3\n116348: a3 = a2 >> 0x8\n116351: u8 [a0 + 0x9] = a3\n116354: u8 [a0 + 0x8] = a2\n116357: a2 = a1 >> 0x38\n116360: u8 [a0 + 0x7] = a2\n116363: a2 = a1 >> 0x30\n116366: u8 [a0 + 0x6] = a2\n116369: a2 = a1 >> 0x28\n116372: u8 [a0 + 0x5] = a2\n116375: a2 = a1 >> 0x20\n116378: u8 [a0 + 0x4] = a2\n116381: a2 = a1 >> 0x18\n116384: u8 [a0 + 0x3] = a2\n116387: a2 = a1 >> 0x10\n116390: u8 [a0 + 0x2] = a2\n116393: a2 = a1 >> 0x8\n116396: u8 [a0 + 0x1] = a2\n116399: u8 [a0] = a1\n116401: a0 = u64 [sp + 0x30]\n116404: a1 = u64 [sp + 0xa8]\n116408: u64 [a0] = a1\n116410: u64 [a0 + 0x8] = s1\n116413: u64 [a0 + 0x10] = s0\n116416: a1 = u64 [sp + 0xa0]\n116420: u64 [a0 + 0x18] = a1\n116423: ra = u64 [sp + 0xc0]\n116427: s0 = u64 [sp + 0xb8]\n116431: s1 = u64 [sp + 0xb0]\n116435: sp = sp + 0xc8\n116439: ret\n      : @1390 (gas: 1)\n116441: trap\n      : @1391 (gas: 18)\n116442: sp = sp + 0xfffffffffffffea0\n116446: u64 [sp + 0x158] = ra\n116450: u64 [sp + 0x150] = s0\n116454: u64 [sp + 0x148] = s1\n116458: s0 = sp + 0x160\n116462: sp = sp & 0xfffffffffffffff0\n116465: a5 = u64 [a1 + 0x10]\n116468: t0 = u64 [a1 + 0x18]\n116471: s1 = u64 [a1 + 0x8]\n116474: a4 = u64 [a1]\n116476: a1 = s1 | t0\n116479: a3 = a4 | a5\n116482: a3 = a3 | a1\n116485: a3 = a3 >> 0x20\n116488: a1 = a1 | a5\n116491: a1 = a1 << 0x20\n116494: a1 = a1 | a3\n116497: jump @1406 if a1 != 0\n      : @1392 (gas: 15)\n116501: u64 [sp + 0xb0] = s1\n116505: u64 [sp + 0xb8] = a5\n116509: u64 [sp + 0x98] = t0\n116513: u64 [sp + 0x18] = a0\n116516: a0 = u64 [a2 + 0x18]\n116519: u64 [sp + 0x88] = a0\n116523: s1 = u64 [a2 + 0x10]\n116526: a0 = u64 [a2 + 0x8]\n116529: u64 [sp + 0xc0] = a0\n116533: a0 = u64 [a2]\n116535: u64 [sp + 0x90] = a0\n116539: u64 [sp + 0xa8] = a4\n116543: i32 a0 = a4 + 0\n116545: a1 = 0x20\n116548: ra = 1280, jump @0\n      : @1393 [@dyn 640] (gas: 12)\n116555: a1 = u64 [sp + 0x90]\n116559: a1 = a1 | s1\n116562: a2 = u64 [sp + 0x88]\n116566: a3 = u64 [sp + 0xc0]\n116570: a2 = a2 | a3\n116573: a1 = a1 | a2\n116576: a1 = a1 >> 0x20\n116579: u64 [sp + 0x78] = s1\n116582: a2 = a2 | s1\n116585: a2 = a2 << 0x20\n116588: a1 = a1 | a2\n116591: jump @1406 if a1 != 0\n      : @1394 (gas: 102)\n116595: a1 = u8 [a0 + 0x19]\n116598: a2 = u8 [a0 + 0x18]\n116601: a3 = u8 [a0 + 0x1a]\n116604: a4 = u8 [a0 + 0x1b]\n116607: a1 = a1 << 0x8\n116610: a1 = a1 | a2\n116613: a3 = a3 << 0x10\n116616: a4 = a4 << 0x18\n116619: a3 = a3 | a4\n116622: a1 = a1 | a3\n116625: a2 = u8 [a0 + 0x1d]\n116628: a3 = u8 [a0 + 0x1c]\n116631: a4 = u8 [a0 + 0x1e]\n116634: a5 = u8 [a0 + 0x1f]\n116637: a2 = a2 << 0x8\n116640: a2 = a2 | a3\n116643: a4 = a4 << 0x10\n116646: a5 = a5 << 0x18\n116649: a4 = a4 | a5\n116652: a2 = a2 | a4\n116655: a2 = a2 << 0x20\n116658: t0 = a2 | a1\n116661: u64 [sp + 0xd0] = t0\n116665: a1 = u8 [a0 + 0x11]\n116668: a2 = u8 [a0 + 0x10]\n116671: a3 = u8 [a0 + 0x12]\n116674: a4 = u8 [a0 + 0x13]\n116677: a1 = a1 << 0x8\n116680: a1 = a1 | a2\n116683: a3 = a3 << 0x10\n116686: a4 = a4 << 0x18\n116689: a3 = a3 | a4\n116692: a1 = a1 | a3\n116695: a2 = u8 [a0 + 0x15]\n116698: a3 = u8 [a0 + 0x14]\n116701: a4 = u8 [a0 + 0x16]\n116704: a5 = u8 [a0 + 0x17]\n116707: a2 = a2 << 0x8\n116710: a2 = a2 | a3\n116713: a4 = a4 << 0x10\n116716: a5 = a5 << 0x18\n116719: a4 = a4 | a5\n116722: a2 = a2 | a4\n116725: a2 = a2 << 0x20\n116728: t1 = a2 | a1\n116731: u64 [sp + 0xc8] = t1\n116735: a1 = u8 [a0 + 0x9]\n116738: a2 = u8 [a0 + 0x8]\n116741: a3 = u8 [a0 + 0xa]\n116744: a4 = u8 [a0 + 0xb]\n116747: a1 = a1 << 0x8\n116750: a1 = a1 | a2\n116753: a3 = a3 << 0x10\n116756: a4 = a4 << 0x18\n116759: a3 = a3 | a4\n116762: a1 = a1 | a3\n116765: a2 = u8 [a0 + 0xd]\n116768: a3 = u8 [a0 + 0xc]\n116771: a4 = u8 [a0 + 0xe]\n116774: a5 = u8 [a0 + 0xf]\n116777: a2 = a2 << 0x8\n116780: a2 = a2 | a3\n116783: a4 = a4 << 0x10\n116786: a5 = a5 << 0x18\n116789: a4 = a4 | a5\n116792: a2 = a2 | a4\n116795: a2 = a2 << 0x20\n116798: a5 = a2 | a1\n116801: u64 [sp + 0x38] = a5\n116804: a1 = u8 [a0 + 0x1]\n116807: a2 = u8 [a0]\n116809: a3 = u8 [a0 + 0x2]\n116812: a4 = u8 [a0 + 0x3]\n116815: a1 = a1 << 0x8\n116818: a1 = a1 | a2\n116821: a3 = a3 << 0x10\n116824: a4 = a4 << 0x18\n116827: a3 = a3 | a4\n116830: a1 = a1 | a3\n116833: a2 = u8 [a0 + 0x5]\n116836: a3 = u8 [a0 + 0x4]\n116839: a4 = u8 [a0 + 0x6]\n116842: a0 = u8 [a0 + 0x7]\n116845: a2 = a2 << 0x8\n116848: a2 = a2 | a3\n116851: a4 = a4 << 0x10\n116854: a0 = a0 << 0x18\n116857: a0 = a0 | a4\n116860: a0 = a0 | a2\n116863: a0 = a0 << 0x20\n116866: s1 = a0 | a1\n116869: a0 = reverse s1\n116871: u64 [sp + 0x70] = a0\n116874: a0 = reverse a5\n116876: u64 [sp + 0x68] = a0\n116879: a0 = reverse t1\n116881: u64 [sp + 0x40] = a0\n116884: a0 = reverse t0\n116886: u64 [sp + 0x80] = a0\n116890: a0 = i32 [sp + 0x90]\n116894: a1 = 0x20\n116897: ra = 1282, jump @0\n      : @1395 [@dyn 641] (gas: 117)\n116904: a1 = u64 [sp + 0x90]\n116908: a4 = a1 + 0x20\n116911: a5 = a4 <u a1\n116914: u64 [sp + 0x58] = a5\n116917: a1 = u64 [sp + 0xc0]\n116921: a5 = a5 + a1\n116924: a1 = u64 [sp + 0x80]\n116928: a2 = a1 >> 0x3b\n116931: t1 = u64 [sp + 0x40]\n116934: a3 = t1 << 0x5\n116937: a2 = a2 | a3\n116940: a3 = a1 << 0x5\n116943: u64 [sp + 0x60] = a4\n116946: a4 = a4 + a3\n116949: u64 [sp + 0xa0] = a4\n116953: a1 = a4 <u a3\n116956: a4 = a2 + a5\n116959: a3 = a4 + a1\n116962: a4 = a3 ^ a2\n116965: u64 [sp + 0xd8] = a3\n116969: ra = a3 <u a2\n116972: ra = a1 if a4 == 0\n116975: t0 = u64 [sp + 0x38]\n116978: a3 = t0 >> 0x38\n116981: u8 [a0 + 0xf] = a3\n116984: a3 = t0 >> 0x30\n116987: u8 [a0 + 0xe] = a3\n116990: a3 = t0 >> 0x28\n116993: u8 [a0 + 0xd] = a3\n116996: a3 = t0 >> 0x20\n116999: u8 [a0 + 0xc] = a3\n117002: a3 = t0 >> 0x18\n117005: u8 [a0 + 0xb] = a3\n117008: a3 = t0 >> 0x10\n117011: u8 [a0 + 0xa] = a3\n117014: a3 = t0 >> 0x8\n117017: u8 [a0 + 0x9] = a3\n117020: a3 = s1 >> 0x38\n117023: u8 [a0 + 0x7] = a3\n117026: a3 = s1 >> 0x30\n117029: u8 [a0 + 0x6] = a3\n117032: a3 = s1 >> 0x28\n117035: u8 [a0 + 0x5] = a3\n117038: a3 = s1 >> 0x20\n117041: u8 [a0 + 0x4] = a3\n117044: a3 = s1 >> 0x18\n117047: u8 [a0 + 0x3] = a3\n117050: a3 = s1 >> 0x10\n117053: u8 [a0 + 0x2] = a3\n117056: a3 = s1 >> 0x8\n117059: u8 [a0 + 0x1] = a3\n117062: t2 = u64 [sp + 0xc8]\n117066: a3 = t2 >> 0x38\n117069: u8 [a0 + 0x17] = a3\n117072: a3 = t2 >> 0x30\n117075: u8 [a0 + 0x16] = a3\n117078: a3 = t2 >> 0x28\n117081: u8 [a0 + 0x15] = a3\n117084: a3 = t2 >> 0x20\n117087: u8 [a0 + 0x14] = a3\n117090: a3 = t2 >> 0x18\n117093: u8 [a0 + 0x13] = a3\n117096: a3 = t2 >> 0x10\n117099: u8 [a0 + 0x12] = a3\n117102: a3 = t2 >> 0x8\n117105: u8 [a0 + 0x11] = a3\n117108: a1 = u64 [sp + 0xd0]\n117112: a3 = a1 >> 0x38\n117115: u8 [a0 + 0x1f] = a3\n117118: a3 = a1 >> 0x30\n117121: u8 [a0 + 0x1e] = a3\n117124: a3 = a1 >> 0x28\n117127: u8 [a0 + 0x1d] = a3\n117130: a3 = a1 >> 0x20\n117133: u8 [a0 + 0x1c] = a3\n117136: a3 = a1 >> 0x18\n117139: u8 [a0 + 0x1b] = a3\n117142: a3 = a1 >> 0x10\n117145: u8 [a0 + 0x1a] = a3\n117148: a3 = a1 >> 0x8\n117151: u8 [a0 + 0x19] = a3\n117154: u8 [a0 + 0x10] = t2\n117157: u8 [a0 + 0x8] = t0\n117160: u8 [a0] = s1\n117162: u8 [a0 + 0x18] = a1\n117165: a2 = a1\n117167: u64 [sp + 0x50] = a5\n117170: a0 = u64 [sp + 0xc0]\n117174: a0 = a5 <u a0\n117177: a1 = u64 [sp + 0x58]\n117180: a0 = a1 if a1 == 0\n117183: a4 = u64 [sp + 0x68]\n117186: a1 = a4 >> 0x3b\n117189: a3 = u64 [sp + 0x70]\n117192: a3 = a3 << 0x5\n117195: a1 = a1 | a3\n117198: a3 = t1 >> 0x3b\n117201: a4 = a4 << 0x5\n117204: a3 = a3 | a4\n117207: a4 = u64 [sp + 0x78]\n117210: a5 = a4 + a0\n117213: a0 = a5 <u a4\n117216: t1 = u64 [sp + 0x88]\n117220: t1 = t1 + a0\n117223: a0 = a3 + a5\n117226: a3 = a0 <u a3\n117229: a1 = a1 + t1\n117232: a1 = a1 + a3\n117235: a3 = s1 | t2\n117238: a4 = t0 | a2\n117241: a3 = a3 | a4\n117244: a2 = a0 + ra\n117247: u64 [sp + 0xd0] = a2\n117251: a0 = a2 <u a0\n117254: a0 = a0 + a1\n117257: u64 [sp + 0xc8] = a0\n117261: jump @1404 if a3 == 0\n      : @1396 (gas: 242)\n117265: t2 = 0x1\n117268: a4 = u64 [sp + 0x80]\n117272: a0 = a4\n117274: t0 = u64 [sp + 0x40]\n117277: a0 = t2 if t0 == 0\n117280: a1 = maxu(a4, t2)\n117283: a1 = a0 if t0 != 0\n117286: a0 = u64 [sp + 0x68]\n117289: a3 = a0 >u 0\n117291: s1 = u64 [sp + 0x70]\n117294: a2 = s1 >u 0\n117296: a2 = a3 if s1 == 0\n117299: a4 = t2 if a2 == 0\n117302: a3 = a0 | s1\n117305: a4 = a1 if a3 == 0\n117308: u64 [sp + 0x80] = a4\n117312: a0 = t0\n117314: a0 = 0 if a2 == 0\n117316: a0 = t0 if a3 == 0\n117319: u64 [sp + 0x38] = a0\n117322: a3 = 0x100000000\n117332: a1 = u64 [sp + 0x60]\n117335: a0 = a1\n117337: a4 = u64 [sp + 0x50]\n117340: a0 = a3 if a4 == 0\n117343: a1 = maxu(a1, a3)\n117346: a1 = a0 if a4 != 0\n117349: a0 = a5 >u 0\n117351: a2 = t1 >u 0\n117353: a2 = a0 if t1 == 0\n117356: u64 [sp + 0x48] = a5\n117359: s1 = t1\n117361: u64 [sp + 0x58] = t1\n117364: t1 = u64 [sp + 0x60]\n117367: t1 = a3 if a2 == 0\n117370: s1 = s1 | a5\n117373: t1 = a1 if s1 == 0\n117376: a1 = a4\n117378: a1 = 0 if a2 == 0\n117380: a1 = a4 if s1 == 0\n117383: a0 = u64 [sp + 0x90]\n117387: a0 = a0 ^ 0xffffffffffffffff\n117390: t1 = t1 + a0\n117393: a0 = t1 <u a0\n117396: a2 = u64 [sp + 0xc0]\n117400: a2 = a2 ^ 0xffffffffffffffff\n117403: a1 = a1 + a2\n117406: a4 = a1 + a0\n117409: u64 [sp + 0x30] = a4\n117412: a1 = a4 ^ a2\n117415: t2 = a4 <u a2\n117418: t2 = a0 if a1 == 0\n117421: a2 = 0xffffffe0\n117431: t0 = u64 [sp + 0xa8]\n117435: a0 = a2 <u t0\n117438: a1 = u64 [sp + 0xb0]\n117442: a3 = a1 >u 0\n117444: a3 = a0 if a1 == 0\n117447: s1 = a1\n117449: a1 = u64 [sp + 0xb8]\n117453: a4 = -a1\n117455: ra = a4 - a3\n117458: a3 = a4 <u a3\n117461: a4 = a1 >u 0\n117463: a1 = u64 [sp + 0x98]\n117467: a4 = a4 + a1\n117470: a4 = -a4\n117472: a4 = a4 - a3\n117475: a3 = ra >u 0\n117477: a5 = a4 >u 0\n117479: a5 = a3 if a4 == 0\n117482: a3 = -s1\n117484: a3 = a3 - a0\n117487: a0 = a2 - t0\n117490: u64 [sp + 0x40] = a2\n117493: a2 = a2 <u a0\n117496: s1 = a3 >u 0\n117498: s1 = a2 if a3 == 0\n117501: a2 = ra | a4\n117504: s1 = a5 if a2 != 0\n117507: a2 = u64 [sp + 0x48]\n117510: a5 = a2\n117512: a1 = u64 [sp + 0x58]\n117515: a5 = 0 if a1 == 0\n117517: a5 = a2 if a1 == 0\n117520: a1 = u64 [sp + 0x78]\n117523: a1 = a1 ^ 0xffffffffffffffff\n117526: u64 [sp + 0x20] = a1\n117529: a1 = a1 + a5\n117532: u64 [sp + 0x10] = a1\n117535: t2 = t2 + a1\n117538: u64 [sp + 0x28] = t2\n117541: t2 = t2 << 0x3b\n117544: t0 = u64 [sp + 0x30]\n117547: a2 = t0 >> 0x5\n117550: t2 = a2 | t2\n117553: t1 = t1 >> 0x5\n117556: t0 = t0 << 0x3b\n117559: a2 = t1 | t0\n117562: a0 = 0 if s1 != 0\n117564: a5 = a0 + 0x1f\n117567: a0 = a5 <u a0\n117570: a3 = 0 if s1 != 0\n117572: t1 = a3 + a0\n117575: a3 = t1 <u a3\n117578: a3 = a0 if a0 == 0\n117581: ra = 0 if s1 != 0\n117583: a3 = a3 + ra\n117586: a0 = a3 << 0x3b\n117589: a1 = t1 >> 0x5\n117592: a1 = a1 | a0\n117595: t1 = t1 << 0x3b\n117598: a0 = a5 >> 0x5\n117601: a0 = a0 | t1\n117604: u64 [sp + 0x8] = a0\n117607: u64 [sp + 0x30] = a1\n117610: t1 = t2 ^ a1\n117613: a1 = t2 <u a1\n117616: t0 = a2 <u a0\n117619: t0 = a1 if t1 != 0\n117622: a0 = u64 [sp + 0x88]\n117626: a1 = a0 ^ 0xffffffffffffffff\n117629: a0 = u64 [sp + 0x58]\n117632: a0 = a0 + a1\n117635: a1 = u64 [sp + 0x10]\n117638: a5 = u64 [sp + 0x20]\n117641: a5 = a1 <u a5\n117644: t1 = a0 + a5\n117647: a0 = u64 [sp + 0x28]\n117650: a5 = a0 <u a1\n117653: t1 = t1 + a5\n117656: a5 = a0 >> 0x5\n117659: a1 = t1 << 0x3b\n117662: a5 = a5 | a1\n117665: a4 = 0 if s1 != 0\n117667: a1 = a3 <u ra\n117670: a1 = a1 + a4\n117673: a3 = a3 >> 0x5\n117676: a4 = a1 << 0x3b\n117679: ra = a3 | a4\n117682: a3 = t1 >> 0x5\n117685: s1 = a1 >> 0x5\n117688: t1 = a5 <u ra\n117691: a1 = a3 ^ s1\n117694: a4 = a3 <u s1\n117697: a4 = t1 if a1 == 0\n117700: a0 = a5 ^ ra\n117703: a0 = a0 | a1\n117706: a4 = t0 if a0 == 0\n117709: a0 = u64 [sp + 0x8]\n117712: a2 = a0 if a4 == 0\n117715: u64 [sp + 0x28] = a2\n117718: a0 = u64 [sp + 0x30]\n117721: t2 = a0 if a4 == 0\n117724: a5 = ra if a4 == 0\n117727: a3 = s1 if a4 == 0\n117730: a1 = u64 [sp + 0x80]\n117734: a0 = a1 <u 0x1\n117737: t0 = u64 [sp + 0x38]\n117740: t1 = t0 - a0\n117743: a4 = a1 + 0xffffffffffffffff\n117746: u64 [sp + 0x30] = a4\n117749: ra = a1\n117751: s1 = t1 ^ t2\n117754: a0 = t1 <u t2\n117757: a1 = a4 <u a2\n117760: a1 = a0 if s1 != 0\n117763: a4 = u64 [sp + 0x68]\n117766: a0 = a4\n117768: a2 = u64 [sp + 0x70]\n117771: a0 = 0 if a2 == 0\n117773: a0 = a4 if a2 == 0\n117776: s1 = ra | t0\n117779: s1 = s1 <u 0x1\n117782: ra = a0 - s1\n117785: a0 = a0 <u s1\n117788: s1 = a2 - a0\n117791: a2 = s1 ^ a3\n117794: a4 = s1 <u a3\n117797: a0 = ra <u a5\n117800: a0 = a4 if a2 != 0\n117803: a4 = ra ^ a5\n117806: a2 = a2 | a4\n117809: a1 = a0 if a2 != 0\n117812: a3 = s1 if a1 != 0\n117815: a5 = ra if a1 != 0\n117818: t2 = t1 if a1 != 0\n117821: t1 = u64 [sp + 0x60]\n117824: a2 = u64 [sp + 0x28]\n117827: a0 = u64 [sp + 0x30]\n117830: a2 = a0 if a1 != 0\n117833: t0 = u64 [sp + 0xa8]\n117837: a0 = a2 >> 0x3b\n117840: a4 = a2\n117842: a1 = t2 << 0x5\n117845: a0 = a0 | a1\n117848: a1 = t2 >> 0x3b\n117851: t2 = u64 [sp + 0x50]\n117854: a2 = a5 << 0x5\n117857: a1 = a1 | a2\n117860: a5 = a5 >> 0x3b\n117863: a3 = a3 << 0x5\n117866: a3 = a3 | a5\n117869: a2 = a4 << 0x5\n117872: a4 = u64 [sp + 0x88]\n117876: a3 = a3 + a4\n117879: a4 = u64 [sp + 0x78]\n117882: a1 = a1 + a4\n117885: a4 = a1 <u a4\n117888: a3 = a3 + a4\n117891: s1 = u64 [sp + 0xc0]\n117895: a0 = a0 + s1\n117898: a4 = u64 [sp + 0x90]\n117902: a2 = a2 + a4\n117905: a4 = a2 <u a4\n117908: a0 = a0 + a4\n117911: a5 = a0 ^ s1\n117914: s1 = a0 <u s1\n117917: s1 = a4 if a5 == 0\n117920: s1 = s1 + a1\n117923: a1 = s1 <u a1\n117926: a1 = a1 + a3\n117929: a3 = a2 + 0x40\n117932: u64 [sp + 0x38] = a3\n117935: a2 = a3 <u a2\n117938: a3 = a0 + a2\n117941: u64 [sp + 0x30] = a3\n117944: a0 = a3 <u a0\n117947: a0 = a2 if a2 == 0\n117950: a0 = a0 + s1\n117953: u64 [sp + 0x28] = a0\n117956: a0 = a0 <u s1\n117959: a5 = u64 [sp + 0xb0]\n117963: a4 = u64 [sp + 0xb8]\n117967: a0 = a0 + a1\n117970: u64 [sp + 0x20] = a0\n117973: a0 = t1\n117975: s1 = t2\n117977: a3 = u64 [sp + 0x48]\n117980: a1 = u64 [sp + 0x58]\n117983: ra = u64 [sp + 0xa0]\n117987: fallthrough\n      : @1397 (gas: 15)\n117988: u64 [sp + 0xa8] = t0\n117992: u64 [sp + 0xb0] = a5\n117996: u64 [sp + 0xb8] = a4\n118000: u64 [sp + 0xc0] = a0\n118004: a0 = a0 | a3\n118007: u64 [sp + 0x90] = a1\n118011: u64 [sp + 0x80] = s1\n118015: a1 = a1 | s1\n118018: a0 = a0 | a1\n118021: a0 = a0 >> 0x20\n118024: u64 [sp + 0x88] = a3\n118028: a1 = a1 | a3\n118031: a1 = a1 << 0x20\n118034: a0 = a0 | a1\n118037: jump @1406 if a0 != 0\n      : @1398 (gas: 27)\n118041: a0 = ra <u t1\n118044: a4 = u64 [sp + 0xd8]\n118048: a1 = a4 ^ t2\n118051: a2 = a4 <u t2\n118054: a2 = a0 if a1 == 0\n118057: a3 = u64 [sp + 0x48]\n118060: a5 = u64 [sp + 0xd0]\n118064: s1 = a5 - a3\n118067: a1 = s1 - a2\n118070: u64 [sp + 0x78] = a1\n118073: a1 = s1 <u a2\n118076: u64 [sp + 0xd0] = a5\n118080: a2 = a5 <u a3\n118083: a3 = u64 [sp + 0x58]\n118086: a5 = u64 [sp + 0xc8]\n118090: a3 = a5 - a3\n118093: a3 = a3 - a2\n118096: s1 = a3 - a1\n118099: a1 = a4 - t2\n118102: a1 = a1 - a0\n118105: u64 [sp + 0x70] = a1\n118108: u64 [sp + 0xa0] = ra\n118112: a0 = ra - t1\n118115: u64 [sp + 0x68] = a0\n118118: a0 = i32 [sp + 0xc0]\n118122: a1 = 0x20\n118125: ra = 1284, jump @0\n      : @1399 [@dyn 642] (gas: 77)\n118132: a1 = reverse s1\n118134: a2 = u64 [sp + 0x78]\n118137: a2 = reverse a2\n118139: a3 = u64 [sp + 0x70]\n118142: a3 = reverse a3\n118144: a4 = u64 [sp + 0x68]\n118147: a4 = reverse a4\n118149: u8 [a0 + 0x18] = a4\n118152: a5 = a4 >> 0x38\n118155: u8 [a0 + 0x1f] = a5\n118158: a5 = a4 >> 0x30\n118161: u8 [a0 + 0x1e] = a5\n118164: a5 = a4 >> 0x28\n118167: u8 [a0 + 0x1d] = a5\n118170: a5 = a4 >> 0x20\n118173: u8 [a0 + 0x1c] = a5\n118176: a5 = a4 >> 0x18\n118179: u8 [a0 + 0x1b] = a5\n118182: a5 = a4 >> 0x10\n118185: u8 [a0 + 0x1a] = a5\n118188: a4 = a4 >> 0x8\n118191: u8 [a0 + 0x19] = a4\n118194: u8 [a0 + 0x10] = a3\n118197: a4 = a3 >> 0x38\n118200: u8 [a0 + 0x17] = a4\n118203: a4 = a3 >> 0x30\n118206: u8 [a0 + 0x16] = a4\n118209: a4 = a3 >> 0x28\n118212: u8 [a0 + 0x15] = a4\n118215: a4 = a3 >> 0x20\n118218: u8 [a0 + 0x14] = a4\n118221: a4 = a3 >> 0x18\n118224: u8 [a0 + 0x13] = a4\n118227: a4 = a3 >> 0x10\n118230: u8 [a0 + 0x12] = a4\n118233: a3 = a3 >> 0x8\n118236: u8 [a0 + 0x11] = a3\n118239: u8 [a0 + 0x8] = a2\n118242: a3 = a2 >> 0x38\n118245: u8 [a0 + 0xf] = a3\n118248: a3 = a2 >> 0x30\n118251: u8 [a0 + 0xe] = a3\n118254: a3 = a2 >> 0x28\n118257: u8 [a0 + 0xd] = a3\n118260: a3 = a2 >> 0x20\n118263: u8 [a0 + 0xc] = a3\n118266: a3 = a2 >> 0x18\n118269: u8 [a0 + 0xb] = a3\n118272: a3 = a2 >> 0x10\n118275: u8 [a0 + 0xa] = a3\n118278: a2 = a2 >> 0x8\n118281: u8 [a0 + 0x9] = a2\n118284: u8 [a0] = a1\n118286: a2 = a1 >> 0x38\n118289: u8 [a0 + 0x7] = a2\n118292: a2 = a1 >> 0x30\n118295: u8 [a0 + 0x6] = a2\n118298: a2 = a1 >> 0x28\n118301: u8 [a0 + 0x5] = a2\n118304: a2 = a1 >> 0x20\n118307: u8 [a0 + 0x4] = a2\n118310: a2 = a1 >> 0x18\n118313: u8 [a0 + 0x3] = a2\n118316: a2 = a1 >> 0x10\n118319: u8 [a0 + 0x2] = a2\n118322: t0 = a1 >> 0x8\n118325: a4 = u64 [sp + 0x98]\n118329: a5 = u64 [sp + 0xb8]\n118333: a2 = a5 | a4\n118336: a1 = u64 [sp + 0xa8]\n118340: a3 = u64 [sp + 0x40]\n118343: a3 = a1 <u a3\n118346: s1 = u64 [sp + 0xb0]\n118350: a3 = 0 if s1 != 0\n118352: a3 = 0 if a2 != 0\n118354: u8 [a0 + 0x1] = t0\n118357: jump @1406 if a3 == 0\n      : @1400 (gas: 15)\n118361: a2 = a1 + 0x20\n118364: u64 [sp + 0x78] = a2\n118367: a0 = a2 <u a1\n118370: a1 = s1 + a0\n118373: u64 [sp + 0xa8] = a1\n118377: a1 = a1 <u s1\n118380: a1 = a0 if a0 == 0\n118383: a1 = a1 + a5\n118386: u64 [sp + 0xb0] = a1\n118390: a0 = a1 <u a5\n118393: a4 = a4 + a0\n118396: u64 [sp + 0x98] = a4\n118400: i32 a0 = a2 + 0\n118402: a1 = 0x20\n118405: ra = 1286, jump @0\n      : @1401 [@dyn 643] (gas: 108)\n118412: a1 = u8 [a0 + 0x1]\n118415: a2 = u8 [a0]\n118417: a3 = u8 [a0 + 0x2]\n118420: a4 = u8 [a0 + 0x3]\n118423: a1 = a1 << 0x8\n118426: a1 = a1 | a2\n118429: a3 = a3 << 0x10\n118432: a4 = a4 << 0x18\n118435: a3 = a3 | a4\n118438: a1 = a1 | a3\n118441: a2 = u8 [a0 + 0x5]\n118444: a3 = u8 [a0 + 0x4]\n118447: a4 = u8 [a0 + 0x6]\n118450: a5 = u8 [a0 + 0x7]\n118453: a2 = a2 << 0x8\n118456: a2 = a2 | a3\n118459: a4 = a4 << 0x10\n118462: a5 = a5 << 0x18\n118465: a4 = a4 | a5\n118468: a2 = a2 | a4\n118471: a2 = a2 << 0x20\n118474: t0 = a2 | a1\n118477: a2 = u8 [a0 + 0x9]\n118480: a3 = u8 [a0 + 0x8]\n118483: a4 = u8 [a0 + 0xa]\n118486: a5 = u8 [a0 + 0xb]\n118489: a2 = a2 << 0x8\n118492: a2 = a2 | a3\n118495: a4 = a4 << 0x10\n118498: a5 = a5 << 0x18\n118501: a4 = a4 | a5\n118504: a2 = a2 | a4\n118507: a3 = u8 [a0 + 0xd]\n118510: a4 = u8 [a0 + 0xc]\n118513: a5 = u8 [a0 + 0xe]\n118516: s1 = u8 [a0 + 0xf]\n118519: a3 = a3 << 0x8\n118522: a3 = a3 | a4\n118525: a5 = a5 << 0x10\n118528: s1 = s1 << 0x18\n118531: a5 = a5 | s1\n118534: a3 = a3 | a5\n118537: a3 = a3 << 0x20\n118540: a2 = a2 | a3\n118543: a3 = u8 [a0 + 0x11]\n118546: a4 = u8 [a0 + 0x10]\n118549: a5 = u8 [a0 + 0x12]\n118552: s1 = u8 [a0 + 0x13]\n118555: a3 = a3 << 0x8\n118558: a3 = a3 | a4\n118561: a5 = a5 << 0x10\n118564: s1 = s1 << 0x18\n118567: a5 = a5 | s1\n118570: a3 = a3 | a5\n118573: a4 = u8 [a0 + 0x15]\n118576: a5 = u8 [a0 + 0x14]\n118579: s1 = u8 [a0 + 0x16]\n118582: a1 = u8 [a0 + 0x17]\n118585: a4 = a4 << 0x8\n118588: a4 = a4 | a5\n118591: s1 = s1 << 0x10\n118594: a1 = a1 << 0x18\n118597: a1 = a1 | s1\n118600: a1 = a1 | a4\n118603: a1 = a1 << 0x20\n118606: a3 = a3 | a1\n118609: a1 = u8 [a0 + 0x19]\n118612: a4 = u8 [a0 + 0x18]\n118615: a5 = u8 [a0 + 0x1a]\n118618: s1 = u8 [a0 + 0x1b]\n118621: a1 = a1 << 0x8\n118624: a1 = a1 | a4\n118627: a5 = a5 << 0x10\n118630: s1 = s1 << 0x18\n118633: a5 = a5 | s1\n118636: a1 = a1 | a5\n118639: a4 = u8 [a0 + 0x1d]\n118642: a5 = u8 [a0 + 0x1c]\n118645: s1 = u8 [a0 + 0x1e]\n118648: a0 = u8 [a0 + 0x1f]\n118651: a4 = a4 << 0x8\n118654: a4 = a4 | a5\n118657: s1 = s1 << 0x10\n118660: a0 = a0 << 0x18\n118663: a0 = a0 | s1\n118666: a0 = a0 | a4\n118669: a0 = a0 << 0x20\n118672: a0 = a0 | a1\n118675: a4 = reverse a0\n118677: a0 = reverse a3\n118679: a1 = reverse a2\n118681: a2 = reverse t0\n118683: a3 = u64 [sp + 0xc8]\n118687: u64 [sp + 0xf8] = a3\n118691: a3 = u64 [sp + 0xd0]\n118695: u64 [sp + 0xf0] = a3\n118699: a3 = u64 [sp + 0xd8]\n118703: u64 [sp + 0xe8] = a3\n118707: a3 = u64 [sp + 0xa0]\n118711: u64 [sp + 0xe0] = a3\n118715: u64 [sp + 0x118] = a2\n118719: u64 [sp + 0x110] = a1\n118723: u64 [sp + 0x108] = a0\n118727: a0 = sp + 0x120\n118731: a1 = sp + 0x100\n118735: a2 = sp + 0xe0\n118739: u64 [sp + 0x100] = a4\n118743: ra = 1288, jump @241\n      : @1402 [@dyn 644] (gas: 36)\n118750: a0 = u64 [sp + 0x138]\n118754: u64 [sp + 0xc8] = a0\n118758: a0 = u64 [sp + 0x130]\n118762: u64 [sp + 0xd0] = a0\n118766: a0 = u64 [sp + 0x128]\n118770: u64 [sp + 0xd8] = a0\n118774: a1 = u64 [sp + 0xc0]\n118778: a0 = a1 + 0x20\n118781: a2 = a0 <u a1\n118784: a1 = u64 [sp + 0x80]\n118788: s1 = a1 + a2\n118791: a3 = s1 <u a1\n118794: a3 = a2 if a2 == 0\n118797: a1 = u64 [sp + 0x88]\n118801: a3 = a3 + a1\n118804: a2 = a3 <u a1\n118807: a1 = u64 [sp + 0x90]\n118811: a1 = a1 + a2\n118814: a2 = u64 [sp + 0x28]\n118817: a2 = a2 ^ a3\n118820: a4 = u64 [sp + 0x38]\n118823: a4 = a4 ^ a0\n118826: a2 = a2 | a4\n118829: ra = u64 [sp + 0x120]\n118833: a4 = u64 [sp + 0x20]\n118836: a4 = a4 ^ a1\n118839: a5 = u64 [sp + 0x30]\n118842: a5 = a5 ^ s1\n118845: a4 = a4 | a5\n118848: a2 = a2 | a4\n118851: t0 = u64 [sp + 0x78]\n118854: a5 = u64 [sp + 0xa8]\n118858: a4 = u64 [sp + 0xb0]\n118862: t1 = u64 [sp + 0x60]\n118865: t2 = u64 [sp + 0x50]\n118868: jump @1397 if a2 != 0\n      : @1403 (gas: 1)\n118872: jump @1405\n      : @1404 (gas: 2)\n118874: ra = u64 [sp + 0xa0]\n118878: fallthrough\n      : @1405 (gas: 14)\n118879: a0 = u64 [sp + 0x18]\n118882: u64 [a0] = ra\n118884: a1 = u64 [sp + 0xd8]\n118888: u64 [a0 + 0x8] = a1\n118891: a1 = u64 [sp + 0xd0]\n118895: u64 [a0 + 0x10] = a1\n118898: a1 = u64 [sp + 0xc8]\n118902: u64 [a0 + 0x18] = a1\n118905: sp = s0 + 0xfffffffffffffea0\n118909: ra = u64 [sp + 0x158]\n118913: s0 = u64 [sp + 0x150]\n118917: s1 = u64 [sp + 0x148]\n118921: sp = sp + 0x160\n118925: ret\n      : @1406 (gas: 1)\n118927: trap\n      : @1407 (gas: 23)\n118928: sp = sp + 0xfffffffffffffe00\n118932: u64 [sp + 0x1f8] = ra\n118936: u64 [sp + 0x1f0] = s0\n118940: u64 [sp + 0x1e8] = s1\n118944: s0 = sp + 0x200\n118948: sp = sp & 0xfffffffffffffff0\n118951: t1 = u64 [a1 + 0x18]\n118954: t2 = u64 [a1 + 0x10]\n118957: t0 = u64 [a1 + 0x8]\n118960: s1 = u64 [a1]\n118962: u64 [sp + 0xb0] = t0\n118966: u64 [sp + 0xa0] = t1\n118970: a1 = t0 | t1\n118973: u64 [sp + 0xb8] = s1\n118977: s1 = s1 | t2\n118980: s1 = s1 | a1\n118983: s1 = s1 >> 0x20\n118986: u64 [sp + 0x98] = t2\n118990: a1 = a1 | t2\n118993: a1 = a1 << 0x20\n118996: a1 = a1 | s1\n118999: u64 [sp + 0x28] = a0\n119002: jump @1421 if a1 != 0\n      : @1408 (gas: 38)\n119006: a0 = u64 [s0]\n119008: a1 = u64 [a0 + 0x18]\n119011: u64 [sp] = a1\n119013: a1 = u64 [a0 + 0x10]\n119016: u64 [sp + 0x8] = a1\n119019: a1 = u64 [a0 + 0x8]\n119022: u64 [sp + 0x10] = a1\n119025: a0 = u64 [a0]\n119027: u64 [sp + 0x18] = a0\n119030: a0 = u64 [a5 + 0x18]\n119033: u64 [sp + 0x20] = a0\n119036: a0 = u64 [a4 + 0x18]\n119039: u64 [sp + 0x48] = a0\n119042: a0 = u64 [a4 + 0x10]\n119045: u64 [sp + 0x50] = a0\n119048: a0 = u64 [a4 + 0x8]\n119051: u64 [sp + 0x58] = a0\n119054: a0 = u64 [a4]\n119056: u64 [sp + 0x60] = a0\n119059: a0 = u64 [a3 + 0x18]\n119062: u64 [sp + 0x68] = a0\n119065: a0 = u64 [a3 + 0x10]\n119068: u64 [sp + 0x70] = a0\n119071: a0 = u64 [a3 + 0x8]\n119074: u64 [sp + 0x78] = a0\n119077: a0 = u64 [a2 + 0x10]\n119080: a1 = u64 [a3]\n119082: u64 [sp + 0x80] = a1\n119086: a1 = u64 [a2 + 0x8]\n119089: u64 [sp + 0x88] = a1\n119093: a1 = u64 [a2]\n119095: u64 [sp + 0x90] = a1\n119099: a0 = a0 << 0x20\n119102: s1 = a0 >> 0x20\n119105: a0 = i32 [sp + 0xb8]\n119109: a1 = 0x20\n119112: u64 [sp + 0xa8] = a0\n119116: ra = 1290, jump @0\n      : @1409 [@dyn 645] (gas: 68)\n119123: a1 = reverse s1\n119125: a2 = u64 [sp + 0x88]\n119129: a2 = reverse a2\n119131: a3 = u64 [sp + 0x90]\n119135: a3 = reverse a3\n119137: a4 = a3 >> 0x38\n119140: u8 [a0 + 0x1f] = a4\n119143: a4 = a3 >> 0x30\n119146: u8 [a0 + 0x1e] = a4\n119149: a4 = a3 >> 0x28\n119152: u8 [a0 + 0x1d] = a4\n119155: a4 = a3 >> 0x20\n119158: u8 [a0 + 0x1c] = a4\n119161: a4 = a3 >> 0x18\n119164: u8 [a0 + 0x1b] = a4\n119167: a4 = a3 >> 0x10\n119170: u8 [a0 + 0x1a] = a4\n119173: a4 = a3 >> 0x8\n119176: u8 [a0 + 0x19] = a4\n119179: u8 [a0 + 0x18] = a3\n119182: u8 [a0 + 0x10] = a2\n119185: u8 [a0 + 11] = 0\n119188: u8 [a0 + 10] = 0\n119191: u8 [a0 + 9] = 0\n119194: u8 [a0 + 7] = 0\n119197: u8 [a0 + 6] = 0\n119200: u8 [a0 + 5] = 0\n119203: u8 [a0 + 4] = 0\n119206: u8 [a0 + 3] = 0\n119209: u8 [a0 + 2] = 0\n119212: u8 [a0 + 1] = 0\n119215: u8 [a0 + 0] = 0\n119217: a3 = a2 >> 0x38\n119220: u8 [a0 + 0x17] = a3\n119223: a3 = a2 >> 0x30\n119226: u8 [a0 + 0x16] = a3\n119229: a3 = a2 >> 0x28\n119232: u8 [a0 + 0x15] = a3\n119235: a3 = a2 >> 0x20\n119238: u8 [a0 + 0x14] = a3\n119241: a3 = a2 >> 0x18\n119244: u8 [a0 + 0x13] = a3\n119247: a3 = a2 >> 0x10\n119250: u8 [a0 + 0x12] = a3\n119253: a2 = a2 >> 0x8\n119256: u8 [a0 + 0x11] = a2\n119259: u8 [a0 + 0x8] = a1\n119262: a2 = a1 >> 0x38\n119265: u8 [a0 + 0xf] = a2\n119268: a2 = a1 >> 0x30\n119271: u8 [a0 + 0xe] = a2\n119274: a2 = a1 >> 0x28\n119277: u8 [a0 + 0xd] = a2\n119280: a1 = a1 >> 0x20\n119283: a5 = u64 [sp + 0xa0]\n119287: s1 = u64 [sp + 0x98]\n119291: a4 = s1 | a5\n119294: a2 = 0x100000000\n119304: u64 [sp + 0x88] = a2\n119308: a2 = 0xffffffe0\n119318: a3 = u64 [sp + 0xb8]\n119322: a2 = a3 <u a2\n119325: a3 = u64 [sp + 0xb0]\n119329: a2 = 0 if a3 != 0\n119331: u64 [sp + 0x90] = a4\n119335: a2 = 0 if a4 != 0\n119337: u8 [a0 + 0xc] = a1\n119340: jump @1421 if a2 == 0\n      : @1410 (gas: 18)\n119344: a4 = s1\n119346: a0 = u64 [sp + 0xb8]\n119350: a1 = a0 + 0xa0\n119354: u64 [sp + 0x40] = a1\n119357: a0 = a1 <u a0\n119360: a1 = u64 [sp + 0xb0]\n119364: a2 = a1 + a0\n119367: u64 [sp + 0x38] = a2\n119370: s1 = a2 <u a1\n119373: s1 = a0 if a0 == 0\n119376: s1 = s1 + a4\n119379: a0 = s1 <u a4\n119382: a0 = a0 + a5\n119385: u64 [sp + 0x30] = a0\n119388: a0 = u64 [sp + 0xa8]\n119392: i32 a0 = a0 + 0x20\n119395: a1 = 0x20\n119398: ra = 1292, jump @0\n      : @1411 [@dyn 646] (gas: 51)\n119405: u8 [a0 + 31] = 0xa0\n119410: u8 [a0 + 30] = 0\n119413: u8 [a0 + 29] = 0\n119416: u8 [a0 + 28] = 0\n119419: u8 [a0 + 27] = 0\n119422: u8 [a0 + 26] = 0\n119425: u8 [a0 + 25] = 0\n119428: u8 [a0 + 24] = 0\n119431: u8 [a0 + 23] = 0\n119434: u8 [a0 + 22] = 0\n119437: u8 [a0 + 21] = 0\n119440: u8 [a0 + 20] = 0\n119443: u8 [a0 + 19] = 0\n119446: u8 [a0 + 18] = 0\n119449: u8 [a0 + 17] = 0\n119452: u8 [a0 + 16] = 0\n119455: u8 [a0 + 15] = 0\n119458: u8 [a0 + 14] = 0\n119461: u8 [a0 + 13] = 0\n119464: u8 [a0 + 12] = 0\n119467: u8 [a0 + 11] = 0\n119470: u8 [a0 + 10] = 0\n119473: u8 [a0 + 9] = 0\n119476: u8 [a0 + 8] = 0\n119479: u8 [a0 + 7] = 0\n119482: u8 [a0 + 6] = 0\n119485: u8 [a0 + 5] = 0\n119488: u8 [a0 + 4] = 0\n119491: u8 [a0 + 3] = 0\n119494: u8 [a0 + 2] = 0\n119497: u8 [a0 + 1] = 0\n119500: u8 [a0 + 0] = 0\n119502: a0 = u64 [sp + 0x30]\n119505: u64 [sp + 0x198] = a0\n119509: u64 [sp + 0x190] = s1\n119513: a0 = u64 [sp + 0x38]\n119516: u64 [sp + 0x188] = a0\n119520: a0 = u64 [sp + 0x40]\n119523: u64 [sp + 0x180] = a0\n119527: a0 = u64 [sp + 0x68]\n119530: u64 [sp + 0x1b8] = a0\n119534: a0 = u64 [sp + 0x70]\n119537: u64 [sp + 0x1b0] = a0\n119541: a0 = u64 [sp + 0x78]\n119544: u64 [sp + 0x1a8] = a0\n119548: a0 = sp + 0x1c0\n119552: a1 = sp + 0x1a0\n119556: a2 = sp + 0x180\n119560: a3 = u64 [sp + 0x80]\n119564: u64 [sp + 0x1a0] = a3\n119568: ra = 1294, jump @1391\n      : @1412 [@dyn 647] (gas: 9)\n119574: a0 = u64 [sp + 0x88]\n119578: a0 = a0 + 0xffffffffffffffc0\n119581: a1 = u64 [sp + 0xb8]\n119585: a0 = a1 <u a0\n119588: a1 = u64 [sp + 0xb0]\n119592: a0 = 0 if a1 != 0\n119594: a1 = u64 [sp + 0x90]\n119598: a0 = 0 if a1 != 0\n119600: jump @1421 if a0 == 0\n      : @1413 (gas: 37)\n119604: a2 = u64 [sp + 0x1c0]\n119608: a5 = u64 [sp + 0x1c8]\n119612: a4 = u64 [sp + 0x1d8]\n119616: u64 [sp + 0x80] = a4\n119620: t0 = u64 [sp + 0x1d0]\n119624: a1 = u64 [sp + 0xb8]\n119628: ra = a2 <u a1\n119631: t2 = a2\n119633: t1 = a1\n119635: a3 = u64 [sp + 0xb0]\n119639: a1 = a5 ^ a3\n119642: a2 = a5 <u a3\n119645: u64 [sp + 0x78] = a5\n119648: s1 = a3\n119650: a2 = ra if a1 == 0\n119653: u64 [sp + 0x88] = t0\n119657: a3 = u64 [sp + 0x98]\n119661: a0 = t0 - a3\n119664: a1 = a0 - a2\n119667: u64 [sp + 0x70] = a1\n119670: a1 = a0 <u a2\n119673: a2 = t0 <u a3\n119676: a3 = u64 [sp + 0xa0]\n119680: a3 = a4 - a3\n119683: a3 = a3 - a2\n119686: a3 = a3 - a1\n119689: u64 [sp + 0x68] = a3\n119692: a1 = a5 - s1\n119695: a0 = a1 - ra\n119698: u64 [sp + 0x40] = a0\n119701: a0 = t2 - t1\n119704: u64 [sp + 0x38] = a0\n119707: s1 = t2\n119709: a0 = u64 [sp + 0xa8]\n119713: i32 a0 = a0 + 0x40\n119716: a1 = 0x20\n119719: ra = 1296, jump @0\n      : @1414 [@dyn 648] (gas: 87)\n119726: a1 = u64 [sp + 0x68]\n119729: a1 = reverse a1\n119731: a2 = u64 [sp + 0x70]\n119734: a2 = reverse a2\n119736: a3 = u64 [sp + 0x40]\n119739: a3 = reverse a3\n119741: a4 = u64 [sp + 0x38]\n119744: a4 = reverse a4\n119746: u8 [a0 + 0x18] = a4\n119749: a5 = a4 >> 0x38\n119752: u8 [a0 + 0x1f] = a5\n119755: a5 = a4 >> 0x30\n119758: u8 [a0 + 0x1e] = a5\n119761: a5 = a4 >> 0x28\n119764: u8 [a0 + 0x1d] = a5\n119767: a5 = a4 >> 0x20\n119770: u8 [a0 + 0x1c] = a5\n119773: a5 = a4 >> 0x18\n119776: u8 [a0 + 0x1b] = a5\n119779: a5 = a4 >> 0x10\n119782: u8 [a0 + 0x1a] = a5\n119785: a4 = a4 >> 0x8\n119788: u8 [a0 + 0x19] = a4\n119791: u8 [a0 + 0x10] = a3\n119794: a4 = a3 >> 0x38\n119797: u8 [a0 + 0x17] = a4\n119800: a4 = a3 >> 0x30\n119803: u8 [a0 + 0x16] = a4\n119806: a4 = a3 >> 0x28\n119809: u8 [a0 + 0x15] = a4\n119812: a4 = a3 >> 0x20\n119815: u8 [a0 + 0x14] = a4\n119818: a4 = a3 >> 0x18\n119821: u8 [a0 + 0x13] = a4\n119824: a4 = a3 >> 0x10\n119827: u8 [a0 + 0x12] = a4\n119830: a3 = a3 >> 0x8\n119833: u8 [a0 + 0x11] = a3\n119836: u8 [a0 + 0x8] = a2\n119839: a3 = a2 >> 0x38\n119842: u8 [a0 + 0xf] = a3\n119845: a3 = a2 >> 0x30\n119848: u8 [a0 + 0xe] = a3\n119851: a3 = a2 >> 0x28\n119854: u8 [a0 + 0xd] = a3\n119857: a3 = a2 >> 0x20\n119860: u8 [a0 + 0xc] = a3\n119863: a3 = a2 >> 0x18\n119866: u8 [a0 + 0xb] = a3\n119869: a3 = a2 >> 0x10\n119872: u8 [a0 + 0xa] = a3\n119875: a2 = a2 >> 0x8\n119878: u8 [a0 + 0x9] = a2\n119881: u8 [a0] = a1\n119883: a2 = a1 >> 0x38\n119886: u8 [a0 + 0x7] = a2\n119889: a2 = a1 >> 0x30\n119892: u8 [a0 + 0x6] = a2\n119895: a2 = a1 >> 0x28\n119898: u8 [a0 + 0x5] = a2\n119901: a2 = a1 >> 0x20\n119904: u8 [a0 + 0x4] = a2\n119907: a2 = a1 >> 0x18\n119910: u8 [a0 + 0x3] = a2\n119913: a2 = a1 >> 0x10\n119916: u8 [a0 + 0x2] = a2\n119919: a1 = a1 >> 0x8\n119922: u8 [a0 + 0x1] = a1\n119925: a0 = u64 [sp + 0x80]\n119929: u64 [sp + 0x138] = a0\n119933: a0 = u64 [sp + 0x88]\n119937: u64 [sp + 0x130] = a0\n119941: a0 = u64 [sp + 0x78]\n119944: u64 [sp + 0x128] = a0\n119948: u64 [sp + 0x120] = s1\n119952: a0 = u64 [sp + 0x48]\n119955: u64 [sp + 0x158] = a0\n119959: a0 = u64 [sp + 0x50]\n119962: u64 [sp + 0x150] = a0\n119966: a0 = u64 [sp + 0x58]\n119969: u64 [sp + 0x148] = a0\n119973: a0 = sp + 0x160\n119977: a1 = sp + 0x140\n119981: a2 = sp + 0x120\n119985: a3 = u64 [sp + 0x60]\n119988: u64 [sp + 0x140] = a3\n119992: ra = 1298, jump @241\n      : @1415 [@dyn 649] (gas: 10)\n119999: s1 = 0x100000000\n120009: u64 [sp + 0x70] = s1\n120012: a0 = 0xffffffa0\n120022: a1 = u64 [sp + 0xb8]\n120026: a0 = a1 <u a0\n120029: a1 = u64 [sp + 0xb0]\n120033: a0 = 0 if a1 != 0\n120035: a1 = u64 [sp + 0x90]\n120039: a0 = 0 if a1 != 0\n120041: jump @1421 if a0 == 0\n      : @1416 (gas: 15)\n120045: a0 = u64 [sp + 0x178]\n120049: u64 [sp + 0x78] = a0\n120052: a0 = u64 [sp + 0x170]\n120056: u64 [sp + 0x80] = a0\n120060: a0 = u64 [sp + 0x168]\n120064: u64 [sp + 0x88] = a0\n120068: a0 = u64 [sp + 0x160]\n120072: u64 [sp + 0x68] = a0\n120075: a0 = u64 [sp + 0x20]\n120078: a0 = a0 >> 0x20\n120081: s1 = a0 << 0x20\n120084: a0 = u64 [sp + 0xa8]\n120088: i32 a0 = a0 + 0x60\n120091: a1 = 0x20\n120094: ra = 1300, jump @0\n      : @1417 [@dyn 650] (gas: 45)\n120101: a1 = reverse s1\n120103: u8 [a0 + 31] = 0\n120106: u8 [a0 + 30] = 0\n120109: u8 [a0 + 29] = 0\n120112: u8 [a0 + 28] = 0\n120115: u8 [a0 + 27] = 0\n120118: u8 [a0 + 26] = 0\n120121: u8 [a0 + 25] = 0\n120124: u8 [a0 + 24] = 0\n120127: u8 [a0 + 23] = 0\n120130: u8 [a0 + 22] = 0\n120133: u8 [a0 + 21] = 0\n120136: u8 [a0 + 20] = 0\n120139: u8 [a0 + 19] = 0\n120142: u8 [a0 + 18] = 0\n120145: u8 [a0 + 17] = 0\n120148: u8 [a0 + 16] = 0\n120151: u8 [a0 + 15] = 0\n120154: u8 [a0 + 14] = 0\n120157: u8 [a0 + 13] = 0\n120160: u8 [a0 + 12] = 0\n120163: u8 [a0 + 11] = 0\n120166: u8 [a0 + 10] = 0\n120169: u8 [a0 + 9] = 0\n120172: u8 [a0 + 8] = 0\n120175: u8 [a0 + 7] = 0\n120178: u8 [a0 + 6] = 0\n120181: u8 [a0 + 5] = 0\n120184: u8 [a0 + 4] = 0\n120187: u8 [a0] = a1\n120189: a2 = a1 >> 0x18\n120192: u8 [a0 + 0x3] = a2\n120195: a2 = a1 >> 0x10\n120198: u8 [a0 + 0x2] = a2\n120201: a1 = a1 >> 0x8\n120204: a2 = u64 [sp + 0x70]\n120207: a2 = a2 + 0xffffffffffffff80\n120210: a3 = u64 [sp + 0xb8]\n120214: a2 = a3 <u a2\n120217: a3 = u64 [sp + 0xb0]\n120221: a2 = 0 if a3 != 0\n120223: a3 = u64 [sp + 0x90]\n120227: a2 = 0 if a3 != 0\n120229: u8 [a0 + 0x1] = a1\n120232: jump @1421 if a2 == 0\n      : @1418 (gas: 33)\n120236: t0 = u64 [sp + 0xb8]\n120240: a1 = u64 [sp + 0x68]\n120243: t2 = a1 <u t0\n120246: t1 = a1\n120248: a5 = u64 [sp + 0xb0]\n120252: a3 = u64 [sp + 0x88]\n120256: a1 = a3 ^ a5\n120259: a2 = a3 <u a5\n120262: a4 = a3\n120264: a2 = t2 if a1 == 0\n120267: a3 = u64 [sp + 0x98]\n120271: a1 = u64 [sp + 0x80]\n120275: a0 = a1 - a3\n120278: s1 = a0 - a2\n120281: u64 [sp + 0x90] = s1\n120285: s1 = a0 <u a2\n120288: a2 = a1 <u a3\n120291: a3 = u64 [sp + 0xa0]\n120295: a1 = u64 [sp + 0x78]\n120298: a3 = a1 - a3\n120301: a3 = a3 - a2\n120304: a3 = a3 - s1\n120307: u64 [sp + 0xa0] = a3\n120311: a1 = a4 - a5\n120314: a0 = a1 - t2\n120317: u64 [sp + 0xb0] = a0\n120321: a0 = t1 - t0\n120324: u64 [sp + 0xb8] = a0\n120328: s1 = t1\n120330: a0 = u64 [sp + 0xa8]\n120334: i32 a0 = a0 + 0x80\n120338: a1 = 0x20\n120341: ra = 1302, jump @0\n      : @1419 [@dyn 651] (gas: 87)\n120348: a1 = u64 [sp + 0xa0]\n120352: a1 = reverse a1\n120354: a2 = u64 [sp + 0x90]\n120358: a2 = reverse a2\n120360: a3 = u64 [sp + 0xb0]\n120364: a3 = reverse a3\n120366: a4 = u64 [sp + 0xb8]\n120370: a4 = reverse a4\n120372: u8 [a0 + 0x18] = a4\n120375: a5 = a4 >> 0x38\n120378: u8 [a0 + 0x1f] = a5\n120381: a5 = a4 >> 0x30\n120384: u8 [a0 + 0x1e] = a5\n120387: a5 = a4 >> 0x28\n120390: u8 [a0 + 0x1d] = a5\n120393: a5 = a4 >> 0x20\n120396: u8 [a0 + 0x1c] = a5\n120399: a5 = a4 >> 0x18\n120402: u8 [a0 + 0x1b] = a5\n120405: a5 = a4 >> 0x10\n120408: u8 [a0 + 0x1a] = a5\n120411: a4 = a4 >> 0x8\n120414: u8 [a0 + 0x19] = a4\n120417: u8 [a0 + 0x10] = a3\n120420: a4 = a3 >> 0x38\n120423: u8 [a0 + 0x17] = a4\n120426: a4 = a3 >> 0x30\n120429: u8 [a0 + 0x16] = a4\n120432: a4 = a3 >> 0x28\n120435: u8 [a0 + 0x15] = a4\n120438: a4 = a3 >> 0x20\n120441: u8 [a0 + 0x14] = a4\n120444: a4 = a3 >> 0x18\n120447: u8 [a0 + 0x13] = a4\n120450: a4 = a3 >> 0x10\n120453: u8 [a0 + 0x12] = a4\n120456: a3 = a3 >> 0x8\n120459: u8 [a0 + 0x11] = a3\n120462: u8 [a0 + 0x8] = a2\n120465: a3 = a2 >> 0x38\n120468: u8 [a0 + 0xf] = a3\n120471: a3 = a2 >> 0x30\n120474: u8 [a0 + 0xe] = a3\n120477: a3 = a2 >> 0x28\n120480: u8 [a0 + 0xd] = a3\n120483: a3 = a2 >> 0x20\n120486: u8 [a0 + 0xc] = a3\n120489: a3 = a2 >> 0x18\n120492: u8 [a0 + 0xb] = a3\n120495: a3 = a2 >> 0x10\n120498: u8 [a0 + 0xa] = a3\n120501: a2 = a2 >> 0x8\n120504: u8 [a0 + 0x9] = a2\n120507: u8 [a0] = a1\n120509: a2 = a1 >> 0x38\n120512: u8 [a0 + 0x7] = a2\n120515: a2 = a1 >> 0x30\n120518: u8 [a0 + 0x6] = a2\n120521: a2 = a1 >> 0x28\n120524: u8 [a0 + 0x5] = a2\n120527: a2 = a1 >> 0x20\n120530: u8 [a0 + 0x4] = a2\n120533: a2 = a1 >> 0x18\n120536: u8 [a0 + 0x3] = a2\n120539: a2 = a1 >> 0x10\n120542: u8 [a0 + 0x2] = a2\n120545: a1 = a1 >> 0x8\n120548: u8 [a0 + 0x1] = a1\n120551: a0 = u64 [sp + 0x78]\n120554: u64 [sp + 0xd8] = a0\n120558: a0 = u64 [sp + 0x80]\n120562: u64 [sp + 0xd0] = a0\n120566: a0 = u64 [sp + 0x88]\n120570: u64 [sp + 0xc8] = a0\n120574: u64 [sp + 0xc0] = s1\n120578: a0 = u64 [sp]\n120580: u64 [sp + 0xf8] = a0\n120584: a0 = u64 [sp + 0x8]\n120587: u64 [sp + 0xf0] = a0\n120591: a0 = u64 [sp + 0x10]\n120594: u64 [sp + 0xe8] = a0\n120598: a0 = sp + 0x100\n120602: a1 = sp + 0xe0\n120606: a2 = sp + 0xc0\n120610: a3 = u64 [sp + 0x18]\n120613: u64 [sp + 0xe0] = a3\n120617: ra = 1304, jump @241\n      : @1420 [@dyn 652] (gas: 15)\n120624: a0 = u64 [sp + 0x110]\n120628: a1 = u64 [sp + 0x118]\n120632: a2 = u64 [sp + 0x100]\n120636: a3 = u64 [sp + 0x108]\n120640: a4 = u64 [sp + 0x28]\n120643: u64 [a4 + 0x10] = a0\n120646: u64 [a4 + 0x18] = a1\n120649: u64 [a4] = a2\n120651: u64 [a4 + 0x8] = a3\n120654: sp = s0 + 0xfffffffffffffe00\n120658: ra = u64 [sp + 0x1f8]\n120662: s0 = u64 [sp + 0x1f0]\n120666: s1 = u64 [sp + 0x1e8]\n120670: sp = sp + 0x200\n120674: ret\n      : @1421 (gas: 1)\n120676: trap\n      : @1422 (gas: 40)\n120677: sp = sp + 0xfffffffffffff980\n120681: u64 [sp + 0x678] = ra\n120685: u64 [sp + 0x670] = s0\n120689: u64 [sp + 0x668] = s1\n120693: s0 = sp + 0x680\n120697: sp = sp & 0xffffffffffffffe0\n120700: a4 = u64 [a3 + 0x18]\n120703: u64 [sp + 0x168] = a4\n120707: a4 = u64 [a3 + 0x10]\n120710: u64 [sp + 0x170] = a4\n120714: a4 = u64 [a3 + 0x8]\n120717: u64 [sp + 0x178] = a4\n120721: a3 = u64 [a3]\n120723: u64 [sp + 0x180] = a3\n120727: a3 = u64 [a2 + 0x18]\n120730: u64 [sp + 0x188] = a3\n120734: a3 = u64 [a2 + 0x10]\n120737: u64 [sp + 0x190] = a3\n120741: a3 = u64 [a2 + 0x8]\n120744: u64 [sp + 0x198] = a3\n120748: a2 = u64 [a2]\n120750: u64 [sp + 0x1a0] = a2\n120754: a2 = u64 [a1]\n120756: u64 [sp + 0x2d8] = a2\n120760: a2 = u64 [a1 + 0x8]\n120763: u64 [sp + 0x2d0] = a2\n120767: a2 = u64 [a1 + 0x10]\n120770: u64 [sp + 0x2c8] = a2\n120774: a1 = u64 [a1 + 0x18]\n120777: u64 [sp + 0x2c0] = a1\n120781: a1 = u64 [a0]\n120783: u64 [sp + 0x2b8] = a1\n120787: a1 = u64 [a0 + 0x8]\n120790: u64 [sp + 0x2b0] = a1\n120794: a1 = u64 [a0 + 0x10]\n120797: u64 [sp + 0x2a8] = a1\n120801: s1 = u64 [a0 + 0x18]\n120804: a1 = 0x20\n120807: a0 = 0\n120809: ra = 1306, jump @0\n      : @1423 [@dyn 653] (gas: 102)\n120816: a2 = reverse s1\n120818: a1 = u64 [sp + 0x2a8]\n120822: a4 = reverse a1\n120824: a1 = u64 [sp + 0x2b0]\n120828: a5 = reverse a1\n120830: a1 = u64 [sp + 0x2b8]\n120834: a3 = reverse a1\n120836: u8 [a0 + 0x18] = a3\n120839: u8 [a0 + 0x10] = a5\n120842: u8 [a0 + 0x8] = a4\n120845: u8 [a0] = a2\n120847: a1 = a3 >> 0x38\n120850: u64 [sp + 0x298] = a1\n120854: u8 [a0 + 0x1f] = a1\n120857: a1 = a3 >> 0x30\n120860: u64 [sp + 0x288] = a1\n120864: u8 [a0 + 0x1e] = a1\n120867: a1 = a3 >> 0x28\n120870: u64 [sp + 0x280] = a1\n120874: u8 [a0 + 0x1d] = a1\n120877: a1 = a3 >> 0x20\n120880: u64 [sp + 0x270] = a1\n120884: u8 [a0 + 0x1c] = a1\n120887: a1 = a3 >> 0x18\n120890: u64 [sp + 0x268] = a1\n120894: u8 [a0 + 0x1b] = a1\n120897: a1 = a3 >> 0x10\n120900: u64 [sp + 0x260] = a1\n120904: u8 [a0 + 0x1a] = a1\n120907: u64 [sp + 0x278] = a3\n120911: a1 = a3 >> 0x8\n120914: u64 [sp + 0x2a0] = a1\n120918: u8 [a0 + 0x19] = a1\n120921: a1 = a5 >> 0x38\n120924: u64 [sp + 0x248] = a1\n120928: u8 [a0 + 0x17] = a1\n120931: a1 = a5 >> 0x30\n120934: u64 [sp + 0x240] = a1\n120938: u8 [a0 + 0x16] = a1\n120941: a1 = a5 >> 0x28\n120944: u64 [sp + 0x238] = a1\n120948: u8 [a0 + 0x15] = a1\n120951: a1 = a5 >> 0x20\n120954: u64 [sp + 0x230] = a1\n120958: u8 [a0 + 0x14] = a1\n120961: a1 = a5 >> 0x18\n120964: u64 [sp + 0x228] = a1\n120968: u8 [a0 + 0x13] = a1\n120971: a1 = a5 >> 0x10\n120974: u64 [sp + 0x220] = a1\n120978: u8 [a0 + 0x12] = a1\n120981: u64 [sp + 0x250] = a5\n120985: a5 = a5 >> 0x8\n120988: u64 [sp + 0x218] = a5\n120992: u8 [a0 + 0x11] = a5\n120995: a1 = a4 >> 0x38\n120998: u64 [sp + 0x210] = a1\n121002: u8 [a0 + 0xf] = a1\n121005: a1 = a4 >> 0x30\n121008: u64 [sp + 0x208] = a1\n121012: u8 [a0 + 0xe] = a1\n121015: a1 = a4 >> 0x28\n121018: u64 [sp + 0x200] = a1\n121022: u8 [a0 + 0xd] = a1\n121025: a1 = a4 >> 0x20\n121028: u64 [sp + 0x1f8] = a1\n121032: u8 [a0 + 0xc] = a1\n121035: a1 = a4 >> 0x18\n121038: u64 [sp + 0x1f0] = a1\n121042: u8 [a0 + 0xb] = a1\n121045: a1 = a4 >> 0x10\n121048: u64 [sp + 0x1e8] = a1\n121052: u8 [a0 + 0xa] = a1\n121055: u64 [sp + 0x258] = a4\n121059: a4 = a4 >> 0x8\n121062: u64 [sp + 0x1e0] = a4\n121066: u8 [a0 + 0x9] = a4\n121069: a1 = a2 >> 0x38\n121072: u64 [sp + 0x1d8] = a1\n121076: u8 [a0 + 0x7] = a1\n121079: a1 = a2 >> 0x30\n121082: u64 [sp + 0x1d0] = a1\n121086: u8 [a0 + 0x6] = a1\n121089: a1 = a2 >> 0x28\n121092: u64 [sp + 0x1c8] = a1\n121096: u8 [a0 + 0x5] = a1\n121099: a1 = a2 >> 0x20\n121102: u64 [sp + 0x1c0] = a1\n121106: u8 [a0 + 0x4] = a1\n121109: a1 = a2 >> 0x18\n121112: u64 [sp + 0x1b8] = a1\n121116: u8 [a0 + 0x3] = a1\n121119: a1 = a2 >> 0x10\n121122: u64 [sp + 0x1b0] = a1\n121126: u8 [a0 + 0x2] = a1\n121129: u64 [sp + 0x290] = a2\n121133: a2 = a2 >> 0x8\n121136: u64 [sp + 0x1a8] = a2\n121140: u8 [a0 + 0x1] = a2\n121143: a0 = 0x20\n121146: a1 = 0x20\n121149: ra = 1308, jump @0\n      : @1424 [@dyn 654] (gas: 35)\n121156: u8 [a0 + 31] = 0x3\n121160: u8 [a0 + 30] = 0\n121163: u8 [a0 + 29] = 0\n121166: u8 [a0 + 28] = 0\n121169: u8 [a0 + 27] = 0\n121172: u8 [a0 + 26] = 0\n121175: u8 [a0 + 25] = 0\n121178: u8 [a0 + 24] = 0\n121181: u8 [a0 + 23] = 0\n121184: u8 [a0 + 22] = 0\n121187: u8 [a0 + 21] = 0\n121190: u8 [a0 + 20] = 0\n121193: u8 [a0 + 19] = 0\n121196: u8 [a0 + 18] = 0\n121199: u8 [a0 + 17] = 0\n121202: u8 [a0 + 16] = 0\n121205: u8 [a0 + 15] = 0\n121208: u8 [a0 + 14] = 0\n121211: u8 [a0 + 13] = 0\n121214: u8 [a0 + 12] = 0\n121217: u8 [a0 + 11] = 0\n121220: u8 [a0 + 10] = 0\n121223: u8 [a0 + 9] = 0\n121226: u8 [a0 + 8] = 0\n121229: u8 [a0 + 7] = 0\n121232: u8 [a0 + 6] = 0\n121235: u8 [a0 + 5] = 0\n121238: u8 [a0 + 4] = 0\n121241: u8 [a0 + 3] = 0\n121244: u8 [a0 + 2] = 0\n121247: u8 [a0 + 1] = 0\n121250: u8 [a0 + 0] = 0\n121252: a1 = 0x40\n121255: a0 = 0\n121257: ra = 1310, jump @0\n      : @1425 [@dyn 655] (gas: 14)\n121264: i32 a0 = a0 + 0\n121266: i32 a2 = sp + 0x640\n121270: a1 = 0x40\n121273: ecalli 8 // 'hash_keccak_256'\n121275: a0 = u64 [sp + 0x640]\n121279: u64 [sp + 0x2b8] = a0\n121283: a0 = u64 [sp + 0x648]\n121287: u64 [sp + 0x2b0] = a0\n121291: a0 = u64 [sp + 0x650]\n121295: u64 [sp + 0x2a8] = a0\n121299: s1 = u64 [sp + 0x658]\n121303: a1 = 0x20\n121306: a0 = 0\n121308: ra = 1312, jump @0\n      : @1426 [@dyn 656] (gas: 103)\n121315: a1 = u64 [sp + 0x2d0]\n121319: a3 = reverse a1\n121321: a1 = u64 [sp + 0x2d8]\n121325: a2 = reverse a1\n121327: a1 = a2 >> 0x38\n121330: u64 [sp + 0x158] = a1\n121334: u8 [a0 + 0x1f] = a1\n121337: a1 = a2 >> 0x30\n121340: u64 [sp + 0x150] = a1\n121344: u8 [a0 + 0x1e] = a1\n121347: a1 = a2 >> 0x28\n121350: u64 [sp + 0x148] = a1\n121354: u8 [a0 + 0x1d] = a1\n121357: a1 = a2 >> 0x20\n121360: u64 [sp + 0x140] = a1\n121364: u8 [a0 + 0x1c] = a1\n121367: a1 = a2 >> 0x18\n121370: u64 [sp + 0x138] = a1\n121374: u8 [a0 + 0x1b] = a1\n121377: a1 = a2 >> 0x10\n121380: u64 [sp + 0x130] = a1\n121384: u8 [a0 + 0x1a] = a1\n121387: a1 = a2 >> 0x8\n121390: u64 [sp + 0x160] = a1\n121394: u8 [a0 + 0x19] = a1\n121397: u64 [sp + 0x128] = a2\n121401: u8 [a0 + 0x18] = a2\n121404: a1 = a3 >> 0x38\n121407: u64 [sp + 0x120] = a1\n121411: u8 [a0 + 0x17] = a1\n121414: a1 = a3 >> 0x30\n121417: u64 [sp + 0x110] = a1\n121421: u8 [a0 + 0x16] = a1\n121424: a1 = a3 >> 0x28\n121427: u64 [sp + 0x108] = a1\n121431: u8 [a0 + 0x15] = a1\n121434: a1 = a3 >> 0x20\n121437: u64 [sp + 0x100] = a1\n121441: u8 [a0 + 0x14] = a1\n121444: a1 = a3 >> 0x18\n121447: u64 [sp + 0xf8] = a1\n121451: u8 [a0 + 0x13] = a1\n121454: a1 = a3 >> 0x10\n121457: u64 [sp + 0xf0] = a1\n121461: u8 [a0 + 0x12] = a1\n121464: a1 = a3 >> 0x8\n121467: u64 [sp + 0xe8] = a1\n121471: u8 [a0 + 0x11] = a1\n121474: u64 [sp + 0x118] = a3\n121478: u8 [a0 + 0x10] = a3\n121481: a1 = u64 [sp + 0x2c8]\n121485: a1 = reverse a1\n121487: a2 = a1 >> 0x38\n121490: u64 [sp + 0xd0] = a2\n121494: u8 [a0 + 0xf] = a2\n121497: a2 = a1 >> 0x30\n121500: u64 [sp + 0xc8] = a2\n121504: u8 [a0 + 0xe] = a2\n121507: a2 = a1 >> 0x28\n121510: u64 [sp + 0xc0] = a2\n121514: u8 [a0 + 0xd] = a2\n121517: a2 = a1 >> 0x20\n121520: u64 [sp + 0xb8] = a2\n121524: u8 [a0 + 0xc] = a2\n121527: a2 = a1 >> 0x18\n121530: u64 [sp + 0xb0] = a2\n121534: u8 [a0 + 0xb] = a2\n121537: a2 = a1 >> 0x10\n121540: u64 [sp + 0xa8] = a2\n121544: u8 [a0 + 0xa] = a2\n121547: a2 = a1 >> 0x8\n121550: u64 [sp + 0xa0] = a2\n121554: u8 [a0 + 0x9] = a2\n121557: u64 [sp + 0xe0] = a1\n121561: u8 [a0 + 0x8] = a1\n121564: a1 = u64 [sp + 0x2c0]\n121568: a1 = reverse a1\n121570: a2 = a1 >> 0x38\n121573: u64 [sp + 0x98] = a2\n121577: u8 [a0 + 0x7] = a2\n121580: a2 = a1 >> 0x30\n121583: u64 [sp + 0x90] = a2\n121587: u8 [a0 + 0x6] = a2\n121590: a2 = a1 >> 0x28\n121593: u64 [sp + 0x88] = a2\n121597: u8 [a0 + 0x5] = a2\n121600: a2 = a1 >> 0x20\n121603: u64 [sp + 0x80] = a2\n121607: u8 [a0 + 0x4] = a2\n121610: a2 = a1 >> 0x18\n121613: u64 [sp + 0x78] = a2\n121616: u8 [a0 + 0x3] = a2\n121619: a2 = a1 >> 0x10\n121622: u64 [sp + 0x70] = a2\n121625: u8 [a0 + 0x2] = a2\n121628: a2 = a1 >> 0x8\n121631: u64 [sp + 0x68] = a2\n121634: u8 [a0 + 0x1] = a2\n121637: u64 [sp + 0xd8] = a1\n121641: u8 [a0] = a1\n121643: a0 = 0x20\n121646: a1 = 0x20\n121649: ra = 1314, jump @0\n      : @1427 [@dyn 657] (gas: 66)\n121656: a1 = s1 >> 0x38\n121659: u8 [a0 + 0x1f] = a1\n121662: a1 = s1 >> 0x30\n121665: u8 [a0 + 0x1e] = a1\n121668: a1 = s1 >> 0x28\n121671: u8 [a0 + 0x1d] = a1\n121674: a1 = s1 >> 0x20\n121677: u8 [a0 + 0x1c] = a1\n121680: a1 = s1 >> 0x18\n121683: u8 [a0 + 0x1b] = a1\n121686: a1 = s1 >> 0x10\n121689: u8 [a0 + 0x1a] = a1\n121692: a1 = s1 >> 0x8\n121695: u8 [a0 + 0x19] = a1\n121698: u8 [a0 + 0x18] = s1\n121701: a2 = u64 [sp + 0x2a8]\n121705: a1 = a2 >> 0x38\n121708: u8 [a0 + 0x17] = a1\n121711: a1 = a2 >> 0x30\n121714: u8 [a0 + 0x16] = a1\n121717: a1 = a2 >> 0x28\n121720: u8 [a0 + 0x15] = a1\n121723: a1 = a2 >> 0x20\n121726: u8 [a0 + 0x14] = a1\n121729: a1 = a2 >> 0x18\n121732: u8 [a0 + 0x13] = a1\n121735: a1 = a2 >> 0x10\n121738: u8 [a0 + 0x12] = a1\n121741: a1 = a2 >> 0x8\n121744: u8 [a0 + 0x11] = a1\n121747: u8 [a0 + 0x10] = a2\n121750: a2 = u64 [sp + 0x2b0]\n121754: a1 = a2 >> 0x38\n121757: u8 [a0 + 0xf] = a1\n121760: a1 = a2 >> 0x30\n121763: u8 [a0 + 0xe] = a1\n121766: a1 = a2 >> 0x28\n121769: u8 [a0 + 0xd] = a1\n121772: a1 = a2 >> 0x20\n121775: u8 [a0 + 0xc] = a1\n121778: a1 = a2 >> 0x18\n121781: u8 [a0 + 0xb] = a1\n121784: a1 = a2 >> 0x10\n121787: u8 [a0 + 0xa] = a1\n121790: a1 = a2 >> 0x8\n121793: u8 [a0 + 0x9] = a1\n121796: u8 [a0 + 0x8] = a2\n121799: a2 = u64 [sp + 0x2b8]\n121803: a1 = a2 >> 0x38\n121806: u8 [a0 + 0x7] = a1\n121809: a1 = a2 >> 0x30\n121812: u8 [a0 + 0x6] = a1\n121815: a1 = a2 >> 0x28\n121818: u8 [a0 + 0x5] = a1\n121821: a1 = a2 >> 0x20\n121824: u8 [a0 + 0x4] = a1\n121827: a1 = a2 >> 0x18\n121830: u8 [a0 + 0x3] = a1\n121833: a1 = a2 >> 0x10\n121836: u8 [a0 + 0x2] = a1\n121839: a1 = a2 >> 0x8\n121842: u8 [a0 + 0x1] = a1\n121845: u8 [a0] = a2\n121847: a1 = 0x40\n121850: a0 = 0\n121852: ra = 1316, jump @0\n      : @1428 [@dyn 658] (gas: 36)\n121859: i32 a0 = a0 + 0\n121861: i32 a2 = sp + 0x640\n121865: a1 = 0x40\n121868: ecalli 8 // 'hash_keccak_256'\n121870: a0 = u64 [sp + 0x640]\n121874: a1 = u64 [sp + 0x648]\n121878: a2 = u64 [sp + 0x650]\n121882: a3 = u64 [sp + 0x658]\n121886: a0 = reverse a0\n121888: a1 = reverse a1\n121890: a2 = reverse a2\n121892: a3 = reverse a3\n121894: a3 = a3 + 0x1\n121897: a4 = a3 <u 0x1\n121900: a2 = a2 + a4\n121903: a4 = a3 | a2\n121906: a4 = a4 <u 0x1\n121909: a4 = a4 + a1\n121912: a1 = a4 <u a1\n121915: a0 = a0 + a1\n121918: u64 [sp + 0x608] = a2\n121922: u64 [sp + 0x600] = a3\n121926: u64 [sp + 0x610] = a4\n121930: u64 [sp + 0x618] = a0\n121934: u64 [sp + 1624] = 0\n121938: u64 [sp + 1616] = 0\n121942: u64 [sp + 1608] = 0\n121946: u64 [sp + 1600] = 0\n121950: u32 [sp + 1568] = 0x20\n121955: i32 a1 = sp + 0x600\n121959: i32 a3 = sp + 0x640\n121963: i32 a4 = sp + 0x620\n121967: a2 = 0xffffffffffffffff\n121970: a0 = 0\n121972: ecalli 7 // 'get_storage'\n121974: fallthrough\n      : @1429 (gas: 8)\n121975: a0 = u64 [sp + 0x650]\n121979: a1 = u64 [sp + 0x658]\n121983: a2 = u64 [sp + 0x648]\n121987: a3 = u64 [sp + 0x640]\n121991: a1 = a1 | a2\n121994: a0 = a0 | a3\n121997: a0 = a0 | a1\n122000: jump @1439 if a0 != 0\n      : @1430 (gas: 3)\n122004: a0 = 0x40\n122007: a1 = 0x20\n122010: ra = 1318, jump @0\n      : @1431 [@dyn 659] (gas: 100)\n122017: a1 = u8 [a0 + 0x11]\n122020: a2 = u8 [a0 + 0x10]\n122023: a3 = u8 [a0 + 0x12]\n122026: a4 = u8 [a0 + 0x13]\n122029: a1 = a1 << 0x8\n122032: a1 = a1 | a2\n122035: a3 = a3 << 0x10\n122038: a4 = a4 << 0x18\n122041: a3 = a3 | a4\n122044: a1 = a1 | a3\n122047: a2 = u8 [a0 + 0x15]\n122050: a3 = u8 [a0 + 0x14]\n122053: a4 = u8 [a0 + 0x16]\n122056: a5 = u8 [a0 + 0x17]\n122059: a2 = a2 << 0x8\n122062: a2 = a2 | a3\n122065: a4 = a4 << 0x10\n122068: a5 = a5 << 0x18\n122071: a4 = a4 | a5\n122074: a2 = a2 | a4\n122077: a2 = a2 << 0x20\n122080: t0 = a2 | a1\n122083: a2 = u8 [a0 + 0x1]\n122086: a3 = u8 [a0]\n122088: a4 = u8 [a0 + 0x2]\n122091: a5 = u8 [a0 + 0x3]\n122094: a2 = a2 << 0x8\n122097: a2 = a2 | a3\n122100: a4 = a4 << 0x10\n122103: a5 = a5 << 0x18\n122106: a4 = a4 | a5\n122109: a2 = a2 | a4\n122112: a3 = u8 [a0 + 0x5]\n122115: a4 = u8 [a0 + 0x4]\n122118: a5 = u8 [a0 + 0x6]\n122121: s1 = u8 [a0 + 0x7]\n122124: a3 = a3 << 0x8\n122127: a3 = a3 | a4\n122130: a5 = a5 << 0x10\n122133: s1 = s1 << 0x18\n122136: a5 = a5 | s1\n122139: a3 = a3 | a5\n122142: a3 = a3 << 0x20\n122145: a2 = a2 | a3\n122148: a3 = u8 [a0 + 0x19]\n122151: a4 = u8 [a0 + 0x18]\n122154: a5 = u8 [a0 + 0x1a]\n122157: s1 = u8 [a0 + 0x1b]\n122160: a3 = a3 << 0x8\n122163: a3 = a3 | a4\n122166: a5 = a5 << 0x10\n122169: s1 = s1 << 0x18\n122172: a5 = a5 | s1\n122175: a3 = a3 | a5\n122178: a4 = u8 [a0 + 0x1d]\n122181: a5 = u8 [a0 + 0x1c]\n122184: s1 = u8 [a0 + 0x1e]\n122187: a1 = u8 [a0 + 0x1f]\n122190: a4 = a4 << 0x8\n122193: a4 = a4 | a5\n122196: s1 = s1 << 0x10\n122199: a1 = a1 << 0x18\n122202: a1 = a1 | s1\n122205: a1 = a1 | a4\n122208: a1 = a1 << 0x20\n122211: a3 = a3 | a1\n122214: a1 = u8 [a0 + 0x9]\n122217: a4 = u8 [a0 + 0x8]\n122220: a5 = u8 [a0 + 0xa]\n122223: s1 = u8 [a0 + 0xb]\n122226: a1 = a1 << 0x8\n122229: a1 = a1 | a4\n122232: a5 = a5 << 0x10\n122235: s1 = s1 << 0x18\n122238: a5 = a5 | s1\n122241: a1 = a1 | a5\n122244: a4 = u8 [a0 + 0xd]\n122247: a5 = u8 [a0 + 0xc]\n122250: s1 = u8 [a0 + 0xe]\n122253: a0 = u8 [a0 + 0xf]\n122256: a4 = a4 << 0x8\n122259: a4 = a4 | a5\n122262: s1 = s1 << 0x10\n122265: a0 = a0 << 0x18\n122268: a0 = a0 | s1\n122271: a0 = a0 | a4\n122274: a0 = a0 << 0x20\n122277: a0 = a0 | a1\n122280: s1 = reverse a0\n122282: a3 = reverse a3\n122284: a4 = reverse a2\n122286: a2 = reverse t0\n122288: a0 = a2 | a4\n122291: a1 = a3 | s1\n122294: a1 = a1 | a0\n122297: a1 = a1 >> 0x20\n122300: a0 = a0 | s1\n122303: a0 = a0 << 0x20\n122306: a0 = a0 | a1\n122309: jump @1433 if a0 == 0\n      : @1432 (gas: 1)\n122312: jump @1477\n      : @1433 (gas: 7)\n122315: i32 a0 = a3 + 0\n122317: a1 = 0x20\n122320: u64 [sp + 0x2c0] = a0\n122324: u64 [sp + 0x2c8] = a3\n122328: u64 [sp + 0x2d0] = a2\n122332: u64 [sp + 0x2d8] = a4\n122336: ra = 1320, jump @0\n      : @1434 [@dyn 660] (gas: 50)\n122343: u8 [a0 + 31] = 0\n122346: u8 [a0 + 30] = 0\n122349: u8 [a0 + 29] = 0\n122352: u8 [a0 + 28] = 0\n122355: u8 [a0 + 27] = 0\n122358: u8 [a0 + 26] = 0\n122361: u8 [a0 + 25] = 0\n122364: u8 [a0 + 24] = 0\n122367: u8 [a0 + 23] = 0\n122370: u8 [a0 + 22] = 0\n122373: u8 [a0 + 21] = 0\n122376: u8 [a0 + 20] = 0\n122379: u8 [a0 + 19] = 0\n122382: u8 [a0 + 18] = 0\n122385: u8 [a0 + 17] = 0\n122388: u8 [a0 + 16] = 0\n122391: u8 [a0 + 15] = 0\n122394: u8 [a0 + 14] = 0\n122397: u8 [a0 + 13] = 0\n122400: u8 [a0 + 12] = 0\n122403: u8 [a0 + 11] = 0\n122406: u8 [a0 + 10] = 0\n122409: u8 [a0 + 9] = 0\n122412: u8 [a0 + 8] = 0\n122415: u8 [a0 + 7] = 0\n122418: u8 [a0 + 6] = 0\n122421: u8 [a0 + 5] = 0\n122424: u8 [a0 + 4] = 0\n122427: u8 [a0 + 3] = 0xa0\n122432: u8 [a0 + 2] = 0x79\n122436: u8 [a0 + 1] = 0xc3\n122441: u8 [a0 + 0] = 0x8\n122444: a1 = u64 [sp + 0x2c8]\n122448: a0 = a1 + 0x4\n122451: a1 = a0 <u a1\n122454: a3 = u64 [sp + 0x2d0]\n122458: a2 = a3 + a1\n122461: a3 = a2 <u a3\n122464: a3 = a1 if a1 == 0\n122467: a3 = a3 + s1\n122470: a1 = a3 <u s1\n122473: a4 = u64 [sp + 0x2d8]\n122477: a4 = a4 + a1\n122480: u64 [sp + 0x2e8] = a2\n122484: u64 [sp + 0x2e0] = a0\n122488: u64 [sp + 0x2f0] = a3\n122492: a0 = sp + 0x300\n122496: a1 = sp + 0x2e0\n122500: u64 [sp + 0x2f8] = a4\n122504: ra = 1322, jump @1369\n      : @1435 [@dyn 661] (gas: 30)\n122510: a0 = u64 [sp + 0x308]\n122514: t0 = u64 [sp + 0x318]\n122518: t2 = u64 [sp + 0x300]\n122522: a3 = u64 [sp + 0x310]\n122526: a1 = u64 [sp + 0x2d0]\n122530: a4 = a0 ^ a1\n122533: a5 = a0 <u a1\n122536: t1 = a1\n122538: a2 = u64 [sp + 0x2c8]\n122542: a1 = t2 <u a2\n122545: a5 = a1 if a4 == 0\n122548: a4 = a3 - s1\n122551: a3 = a3 <u s1\n122554: s1 = u64 [sp + 0x2d8]\n122558: s1 = t0 - s1\n122561: s1 = s1 - a3\n122564: a3 = a4 <u a5\n122567: s1 = s1 - a3\n122570: a4 = a4 - a5\n122573: a0 = a0 - t1\n122576: a1 = a0 - a1\n122579: a0 = t2 - a2\n122582: a1 = a1 | s1\n122585: a2 = a0 | a4\n122588: a2 = a2 | a1\n122591: a1 = a1 | a4\n122594: a2 = a2 >> 0x20\n122597: a1 = a1 << 0x20\n122600: a1 = a1 | a2\n122603: jump @1437 if a1 == 0\n      : @1436 (gas: 1)\n122606: jump @1477\n      : @1437 (gas: 4)\n122609: i32 s1 = a0 + 0\n122611: a0 = u64 [sp + 0x2c0]\n122615: a1 = s1\n122617: ra = 1324, jump @0\n      : @1438 [@dyn 662] (gas: 5)\n122624: i32 a1 = a0 + 0\n122626: a0 = 0x1\n122629: a2 = s1\n122631: ecalli 13 // 'seal_return'\n122633: fallthrough\n      : @1439 (gas: 7)\n122634: u64 [sp + 1464] = 0\n122638: u64 [sp + 1456] = 0\n122642: u64 [sp + 1440] = 0x40\n122647: a0 = sp + 0x5c0\n122651: a1 = sp + 0x5a0\n122655: u64 [sp + 1448] = 0\n122659: ra = 1326, jump @647\n      : @1440 [@dyn 663] (gas: 12)\n122666: a4 = u64 [sp + 0x5d8]\n122670: a3 = u64 [sp + 0x5d0]\n122674: a2 = u64 [sp + 0x5c8]\n122678: s1 = u64 [sp + 0x5c0]\n122682: a0 = a2 | a4\n122685: a1 = s1 | a3\n122688: a1 = a1 | a0\n122691: a1 = a1 >> 0x20\n122694: a0 = a0 | a3\n122697: a0 = a0 << 0x20\n122700: a0 = a0 | a1\n122703: jump @1442 if a0 == 0\n      : @1441 (gas: 1)\n122706: jump @1477\n      : @1442 (gas: 7)\n122709: i32 a0 = s1 + 0\n122711: a1 = 0x20\n122714: u64 [sp + 0x60] = a0\n122717: u64 [sp + 0x2b8] = a2\n122721: u64 [sp + 0x2b0] = a3\n122725: u64 [sp + 0x2a8] = a4\n122729: ra = 1328, jump @0\n      : @1443 [@dyn 664] (gas: 41)\n122736: u8 [a0 + 31] = 0x1\n122740: a2 = u64 [sp + 0x2b0]\n122744: a3 = u64 [sp + 0x2a8]\n122748: a2 = a2 | a3\n122751: a1 = 0xffffffe0\n122761: a1 = s1 <u a1\n122764: a3 = u64 [sp + 0x2b8]\n122768: a1 = 0 if a3 != 0\n122770: a1 = 0 if a2 != 0\n122772: u8 [a0 + 30] = 0\n122775: u8 [a0 + 29] = 0\n122778: u8 [a0 + 28] = 0\n122781: u8 [a0 + 27] = 0\n122784: u8 [a0 + 26] = 0\n122787: u8 [a0 + 25] = 0\n122790: u8 [a0 + 24] = 0\n122793: u8 [a0 + 23] = 0\n122796: u8 [a0 + 22] = 0\n122799: u8 [a0 + 21] = 0\n122802: u8 [a0 + 20] = 0\n122805: u8 [a0 + 19] = 0\n122808: u8 [a0 + 18] = 0\n122811: u8 [a0 + 17] = 0\n122814: u8 [a0 + 16] = 0\n122817: u8 [a0 + 15] = 0\n122820: u8 [a0 + 14] = 0\n122823: u8 [a0 + 13] = 0\n122826: u8 [a0 + 12] = 0\n122829: u8 [a0 + 11] = 0\n122832: u8 [a0 + 10] = 0\n122835: u8 [a0 + 9] = 0\n122838: u8 [a0 + 8] = 0\n122841: u8 [a0 + 7] = 0\n122844: u8 [a0 + 6] = 0\n122847: u8 [a0 + 5] = 0\n122850: u8 [a0 + 4] = 0\n122853: u8 [a0 + 3] = 0\n122856: u8 [a0 + 2] = 0\n122859: u8 [a0 + 1] = 0\n122862: u8 [a0 + 0] = 0\n122864: jump @1445 if a1 != 0\n      : @1444 (gas: 1)\n122867: jump @1477\n      : @1445 (gas: 6)\n122870: u64 [sp + 0x30] = s1\n122873: s1 = u64 [sp + 0x60]\n122876: i32 a0 = s1 + 0x20\n122879: a1 = 0x20\n122882: u64 [sp + 0x58] = a0\n122885: ra = 1330, jump @0\n      : @1446 [@dyn 665] (gas: 35)\n122892: u8 [a0 + 31] = 0x60\n122896: u8 [a0 + 30] = 0\n122899: u8 [a0 + 29] = 0\n122902: u8 [a0 + 28] = 0\n122905: u8 [a0 + 27] = 0\n122908: u8 [a0 + 26] = 0\n122911: u8 [a0 + 25] = 0\n122914: u8 [a0 + 24] = 0\n122917: u8 [a0 + 23] = 0\n122920: u8 [a0 + 22] = 0\n122923: u8 [a0 + 21] = 0\n122926: u8 [a0 + 20] = 0\n122929: u8 [a0 + 19] = 0\n122932: u8 [a0 + 18] = 0\n122935: u8 [a0 + 17] = 0\n122938: u8 [a0 + 16] = 0\n122941: u8 [a0 + 15] = 0\n122944: u8 [a0 + 14] = 0\n122947: u8 [a0 + 13] = 0\n122950: u8 [a0 + 12] = 0\n122953: u8 [a0 + 11] = 0\n122956: u8 [a0 + 10] = 0\n122959: u8 [a0 + 9] = 0\n122962: u8 [a0 + 8] = 0\n122965: u8 [a0 + 7] = 0\n122968: u8 [a0 + 6] = 0\n122971: u8 [a0 + 5] = 0\n122974: u8 [a0 + 4] = 0\n122977: u8 [a0 + 3] = 0\n122980: u8 [a0 + 2] = 0\n122983: u8 [a0 + 1] = 0\n122986: u8 [a0 + 0] = 0\n122988: a1 = 0x20\n122991: a0 = 0\n122993: ra = 1332, jump @0\n      : @1447 [@dyn 666] (gas: 67)\n123000: a1 = u64 [sp + 0x298]\n123004: u8 [a0 + 0x1f] = a1\n123007: a1 = u64 [sp + 0x288]\n123011: u8 [a0 + 0x1e] = a1\n123014: a1 = u64 [sp + 0x280]\n123018: u8 [a0 + 0x1d] = a1\n123021: a1 = u64 [sp + 0x270]\n123025: u8 [a0 + 0x1c] = a1\n123028: a1 = u64 [sp + 0x268]\n123032: u8 [a0 + 0x1b] = a1\n123035: a1 = u64 [sp + 0x260]\n123039: u8 [a0 + 0x1a] = a1\n123042: a1 = u64 [sp + 0x2a0]\n123046: u8 [a0 + 0x19] = a1\n123049: a1 = u64 [sp + 0x278]\n123053: u8 [a0 + 0x18] = a1\n123056: a1 = u64 [sp + 0x248]\n123060: u8 [a0 + 0x17] = a1\n123063: a1 = u64 [sp + 0x240]\n123067: u8 [a0 + 0x16] = a1\n123070: a1 = u64 [sp + 0x238]\n123074: u8 [a0 + 0x15] = a1\n123077: a1 = u64 [sp + 0x230]\n123081: u8 [a0 + 0x14] = a1\n123084: a1 = u64 [sp + 0x228]\n123088: u8 [a0 + 0x13] = a1\n123091: a1 = u64 [sp + 0x220]\n123095: u8 [a0 + 0x12] = a1\n123098: a1 = u64 [sp + 0x218]\n123102: u8 [a0 + 0x11] = a1\n123105: a1 = u64 [sp + 0x250]\n123109: u8 [a0 + 0x10] = a1\n123112: a1 = u64 [sp + 0x210]\n123116: u8 [a0 + 0xf] = a1\n123119: a1 = u64 [sp + 0x208]\n123123: u8 [a0 + 0xe] = a1\n123126: a1 = u64 [sp + 0x200]\n123130: u8 [a0 + 0xd] = a1\n123133: a1 = u64 [sp + 0x1f8]\n123137: u8 [a0 + 0xc] = a1\n123140: a1 = u64 [sp + 0x1f0]\n123144: u8 [a0 + 0xb] = a1\n123147: a1 = u64 [sp + 0x1e8]\n123151: u8 [a0 + 0xa] = a1\n123154: a1 = u64 [sp + 0x1e0]\n123158: u8 [a0 + 0x9] = a1\n123161: a1 = u64 [sp + 0x258]\n123165: u8 [a0 + 0x8] = a1\n123168: a1 = u64 [sp + 0x1d8]\n123172: u8 [a0 + 0x7] = a1\n123175: a1 = u64 [sp + 0x1d0]\n123179: u8 [a0 + 0x6] = a1\n123182: a1 = u64 [sp + 0x1c8]\n123186: u8 [a0 + 0x5] = a1\n123189: a1 = u64 [sp + 0x1c0]\n123193: u8 [a0 + 0x4] = a1\n123196: a1 = u64 [sp + 0x1b8]\n123200: u8 [a0 + 0x3] = a1\n123203: a1 = u64 [sp + 0x1b0]\n123207: u8 [a0 + 0x2] = a1\n123210: a1 = u64 [sp + 0x1a8]\n123214: u8 [a0 + 0x1] = a1\n123217: a1 = u64 [sp + 0x290]\n123221: u8 [a0] = a1\n123223: a0 = 0x20\n123226: a1 = 0x20\n123229: ra = 1334, jump @0\n      : @1448 [@dyn 667] (gas: 35)\n123236: u8 [a0 + 31] = 0\n123239: u8 [a0 + 30] = 0\n123242: u8 [a0 + 29] = 0\n123245: u8 [a0 + 28] = 0\n123248: u8 [a0 + 27] = 0\n123251: u8 [a0 + 26] = 0\n123254: u8 [a0 + 25] = 0\n123257: u8 [a0 + 24] = 0\n123260: u8 [a0 + 23] = 0\n123263: u8 [a0 + 22] = 0\n123266: u8 [a0 + 21] = 0\n123269: u8 [a0 + 20] = 0\n123272: u8 [a0 + 19] = 0\n123275: u8 [a0 + 18] = 0\n123278: u8 [a0 + 17] = 0\n123281: u8 [a0 + 16] = 0\n123284: u8 [a0 + 15] = 0\n123287: u8 [a0 + 14] = 0\n123290: u8 [a0 + 13] = 0\n123293: u8 [a0 + 12] = 0\n123296: u8 [a0 + 11] = 0\n123299: u8 [a0 + 10] = 0\n123302: u8 [a0 + 9] = 0\n123305: u8 [a0 + 8] = 0\n123308: u8 [a0 + 7] = 0\n123311: u8 [a0 + 6] = 0\n123314: u8 [a0 + 5] = 0\n123317: u8 [a0 + 4] = 0\n123320: u8 [a0 + 3] = 0\n123323: u8 [a0 + 2] = 0\n123326: u8 [a0 + 1] = 0\n123329: u8 [a0 + 0] = 0\n123331: a1 = 0x40\n123334: a0 = 0\n123336: ra = 1336, jump @0\n      : @1449 [@dyn 668] (gas: 27)\n123343: i32 a0 = a0 + 0\n123345: i32 a2 = sp + 0x640\n123349: a1 = 0x40\n123352: ecalli 8 // 'hash_keccak_256'\n123354: a0 = u64 [sp + 0x640]\n123358: a1 = u64 [sp + 0x648]\n123362: a2 = u64 [sp + 0x650]\n123366: a3 = u64 [sp + 0x658]\n123370: a0 = reverse a0\n123372: a1 = reverse a1\n123374: a2 = reverse a2\n123376: a3 = reverse a3\n123378: a4 = a3 + 0x3\n123381: a3 = a4 <u a3\n123384: a5 = a2 + a3\n123387: a2 = a5 <u a2\n123390: a2 = a3 if a3 == 0\n123393: a2 = a2 + a1\n123396: a1 = a2 <u a1\n123399: a3 = a0 + a1\n123402: u64 [sp + 0x560] = a4\n123406: u64 [sp + 0x568] = a5\n123410: u64 [sp + 0x570] = a2\n123414: a0 = sp + 0x580\n123418: a1 = sp + 0x560\n123422: u64 [sp + 0x578] = a3\n123426: ra = 1338, jump @130\n      : @1450 [@dyn 669] (gas: 11)\n123433: a0 = u64 [sp + 0x598]\n123437: u64 [sp + 0x38] = a0\n123440: a0 = u64 [sp + 0x590]\n123444: u64 [sp + 0x40] = a0\n123447: a0 = u64 [sp + 0x588]\n123451: u64 [sp + 0x48] = a0\n123454: a0 = u64 [sp + 0x580]\n123458: u64 [sp + 0x50] = a0\n123461: a1 = 0x20\n123464: a0 = s1\n123466: ra = 1340, jump @0\n      : @1451 [@dyn 670] (gas: 90)\n123473: a1 = u8 [a0 + 0x11]\n123476: a2 = u8 [a0 + 0x10]\n123479: a3 = u8 [a0 + 0x12]\n123482: a4 = u8 [a0 + 0x13]\n123485: a1 = a1 << 0x8\n123488: a1 = a1 | a2\n123491: a3 = a3 << 0x10\n123494: a4 = a4 << 0x18\n123497: a3 = a3 | a4\n123500: t0 = a3 | a1\n123503: a2 = u8 [a0 + 0x1]\n123506: a3 = u8 [a0]\n123508: a4 = u8 [a0 + 0x2]\n123511: a5 = u8 [a0 + 0x3]\n123514: a2 = a2 << 0x8\n123517: a2 = a2 | a3\n123520: a4 = a4 << 0x10\n123523: a5 = a5 << 0x18\n123526: a4 = a4 | a5\n123529: t1 = a4 | a2\n123532: a3 = u8 [a0 + 0x15]\n123535: a4 = u8 [a0 + 0x14]\n123538: a5 = u8 [a0 + 0x16]\n123541: s1 = u8 [a0 + 0x17]\n123544: a3 = a3 << 0x8\n123547: a3 = a3 | a4\n123550: a5 = a5 << 0x10\n123553: s1 = s1 << 0x18\n123556: a5 = a5 | s1\n123559: t2 = a5 | a3\n123562: a4 = u8 [a0 + 0x5]\n123565: a5 = u8 [a0 + 0x4]\n123568: s1 = u8 [a0 + 0x6]\n123571: a1 = u8 [a0 + 0x7]\n123574: a4 = a4 << 0x8\n123577: a4 = a4 | a5\n123580: s1 = s1 << 0x10\n123583: a1 = a1 << 0x18\n123586: a1 = a1 | s1\n123589: ra = a1 | a4\n123592: a1 = u8 [a0 + 0x19]\n123595: a5 = u8 [a0 + 0x18]\n123598: s1 = u8 [a0 + 0x1a]\n123601: a2 = u8 [a0 + 0x1b]\n123604: a1 = a1 << 0x8\n123607: a1 = a1 | a5\n123610: s1 = s1 << 0x10\n123613: a2 = a2 << 0x18\n123616: a2 = a2 | s1\n123619: a5 = a2 | a1\n123622: a1 = u8 [a0 + 0x9]\n123625: a2 = u8 [a0 + 0x8]\n123628: s1 = u8 [a0 + 0xa]\n123631: a3 = u8 [a0 + 0xb]\n123634: a1 = a1 << 0x8\n123637: a1 = a1 | a2\n123640: s1 = s1 << 0x10\n123643: a3 = a3 << 0x18\n123646: a3 = a3 | s1\n123649: s1 = a3 | a1\n123652: a1 = u8 [a0 + 0x1d]\n123655: a2 = u8 [a0 + 0x1c]\n123658: a3 = u8 [a0 + 0x1e]\n123661: a4 = u8 [a0 + 0x1f]\n123664: a1 = a1 << 0x8\n123667: a1 = a1 | a2\n123670: a3 = a3 << 0x10\n123673: a4 = a4 << 0x18\n123676: a3 = a3 | a4\n123679: a1 = a1 | a3\n123682: a2 = u8 [a0 + 0xd]\n123685: a3 = u8 [a0 + 0xc]\n123688: a4 = u8 [a0 + 0xe]\n123691: a0 = u8 [a0 + 0xf]\n123694: a2 = a2 << 0x8\n123697: a2 = a2 | a3\n123700: a4 = a4 << 0x10\n123703: a0 = a0 << 0x18\n123706: a0 = a0 | a4\n123709: a0 = a0 | a2\n123712: a0 = a0 | a1\n123715: a0 = a0 << 0x20\n123718: a5 = a5 | s1\n123721: a0 = a0 | a5\n123724: a1 = ra | t2\n123727: a1 = a1 << 0x20\n123730: a2 = t1 | t0\n123733: a1 = a1 | a2\n123736: a0 = a0 | a1\n123739: jump @1453 if a0 != 0\n      : @1452 (gas: 1)\n123742: jump @1478\n      : @1453 (gas: 3)\n123745: a1 = 0x20\n123748: a0 = u64 [sp + 0x58]\n123751: ra = 1342, jump @0\n      : @1454 [@dyn 671] (gas: 71)\n123758: a1 = u64 [sp + 0x38]\n123761: a1 = reverse a1\n123763: a2 = u64 [sp + 0x40]\n123766: a2 = reverse a2\n123768: a3 = u64 [sp + 0x48]\n123771: a3 = reverse a3\n123773: a4 = u64 [sp + 0x50]\n123776: a4 = reverse a4\n123778: u8 [a0 + 0x18] = a4\n123781: a5 = a4 >> 0x38\n123784: u8 [a0 + 0x1f] = a5\n123787: a5 = a4 >> 0x30\n123790: u8 [a0 + 0x1e] = a5\n123793: a5 = a4 >> 0x28\n123796: u8 [a0 + 0x1d] = a5\n123799: a5 = a4 >> 0x20\n123802: u8 [a0 + 0x1c] = a5\n123805: a5 = a4 >> 0x18\n123808: u8 [a0 + 0x1b] = a5\n123811: a5 = a4 >> 0x10\n123814: u8 [a0 + 0x1a] = a5\n123817: a4 = a4 >> 0x8\n123820: u8 [a0 + 0x19] = a4\n123823: u8 [a0 + 0x10] = a3\n123826: a4 = a3 >> 0x38\n123829: u8 [a0 + 0x17] = a4\n123832: a4 = a3 >> 0x30\n123835: u8 [a0 + 0x16] = a4\n123838: a4 = a3 >> 0x28\n123841: u8 [a0 + 0x15] = a4\n123844: a4 = a3 >> 0x20\n123847: u8 [a0 + 0x14] = a4\n123850: a4 = a3 >> 0x18\n123853: u8 [a0 + 0x13] = a4\n123856: a4 = a3 >> 0x10\n123859: u8 [a0 + 0x12] = a4\n123862: a3 = a3 >> 0x8\n123865: u8 [a0 + 0x11] = a3\n123868: u8 [a0 + 0x8] = a2\n123871: a3 = a2 >> 0x38\n123874: u8 [a0 + 0xf] = a3\n123877: a3 = a2 >> 0x30\n123880: u8 [a0 + 0xe] = a3\n123883: a3 = a2 >> 0x28\n123886: u8 [a0 + 0xd] = a3\n123889: a3 = a2 >> 0x20\n123892: u8 [a0 + 0xc] = a3\n123895: a3 = a2 >> 0x18\n123898: u8 [a0 + 0xb] = a3\n123901: a3 = a2 >> 0x10\n123904: u8 [a0 + 0xa] = a3\n123907: a2 = a2 >> 0x8\n123910: u8 [a0 + 0x9] = a2\n123913: u8 [a0] = a1\n123915: a2 = a1 >> 0x38\n123918: u8 [a0 + 0x7] = a2\n123921: a2 = a1 >> 0x30\n123924: u8 [a0 + 0x6] = a2\n123927: a2 = a1 >> 0x28\n123930: u8 [a0 + 0x5] = a2\n123933: a2 = a1 >> 0x20\n123936: u8 [a0 + 0x4] = a2\n123939: a2 = a1 >> 0x18\n123942: u8 [a0 + 0x3] = a2\n123945: a2 = a1 >> 0x10\n123948: u8 [a0 + 0x2] = a2\n123951: a1 = a1 >> 0x8\n123954: u8 [a0 + 0x1] = a1\n123957: a1 = 0x20\n123960: a0 = u64 [sp + 0x60]\n123963: ra = 1344, jump @0\n      : @1455 [@dyn 672] (gas: 90)\n123970: a1 = u8 [a0 + 0x11]\n123973: a2 = u8 [a0 + 0x10]\n123976: a3 = u8 [a0 + 0x12]\n123979: a4 = u8 [a0 + 0x13]\n123982: a1 = a1 << 0x8\n123985: a1 = a1 | a2\n123988: a3 = a3 << 0x10\n123991: a4 = a4 << 0x18\n123994: a3 = a3 | a4\n123997: t0 = a3 | a1\n124000: a2 = u8 [a0 + 0x1]\n124003: a3 = u8 [a0]\n124005: a4 = u8 [a0 + 0x2]\n124008: a5 = u8 [a0 + 0x3]\n124011: a2 = a2 << 0x8\n124014: a2 = a2 | a3\n124017: a4 = a4 << 0x10\n124020: a5 = a5 << 0x18\n124023: a4 = a4 | a5\n124026: t1 = a4 | a2\n124029: a3 = u8 [a0 + 0x15]\n124032: a4 = u8 [a0 + 0x14]\n124035: a5 = u8 [a0 + 0x16]\n124038: s1 = u8 [a0 + 0x17]\n124041: a3 = a3 << 0x8\n124044: a3 = a3 | a4\n124047: a5 = a5 << 0x10\n124050: s1 = s1 << 0x18\n124053: a5 = a5 | s1\n124056: t2 = a5 | a3\n124059: a4 = u8 [a0 + 0x5]\n124062: a5 = u8 [a0 + 0x4]\n124065: s1 = u8 [a0 + 0x6]\n124068: a1 = u8 [a0 + 0x7]\n124071: a4 = a4 << 0x8\n124074: a4 = a4 | a5\n124077: s1 = s1 << 0x10\n124080: a1 = a1 << 0x18\n124083: a1 = a1 | s1\n124086: ra = a1 | a4\n124089: a1 = u8 [a0 + 0x19]\n124092: a5 = u8 [a0 + 0x18]\n124095: s1 = u8 [a0 + 0x1a]\n124098: a2 = u8 [a0 + 0x1b]\n124101: a1 = a1 << 0x8\n124104: a1 = a1 | a5\n124107: s1 = s1 << 0x10\n124110: a2 = a2 << 0x18\n124113: a2 = a2 | s1\n124116: a5 = a2 | a1\n124119: a1 = u8 [a0 + 0x9]\n124122: a2 = u8 [a0 + 0x8]\n124125: s1 = u8 [a0 + 0xa]\n124128: a3 = u8 [a0 + 0xb]\n124131: a1 = a1 << 0x8\n124134: a1 = a1 | a2\n124137: s1 = s1 << 0x10\n124140: a3 = a3 << 0x18\n124143: a3 = a3 | s1\n124146: s1 = a3 | a1\n124149: a1 = u8 [a0 + 0x1d]\n124152: a2 = u8 [a0 + 0x1c]\n124155: a3 = u8 [a0 + 0x1e]\n124158: a4 = u8 [a0 + 0x1f]\n124161: a1 = a1 << 0x8\n124164: a1 = a1 | a2\n124167: a3 = a3 << 0x10\n124170: a4 = a4 << 0x18\n124173: a3 = a3 | a4\n124176: a1 = a1 | a3\n124179: a2 = u8 [a0 + 0xd]\n124182: a3 = u8 [a0 + 0xc]\n124185: a4 = u8 [a0 + 0xe]\n124188: a0 = u8 [a0 + 0xf]\n124191: a2 = a2 << 0x8\n124194: a2 = a2 | a3\n124197: a4 = a4 << 0x10\n124200: a0 = a0 << 0x18\n124203: a0 = a0 | a4\n124206: a0 = a0 | a2\n124209: a0 = a0 | a1\n124212: a0 = a0 << 0x20\n124215: a5 = a5 | s1\n124218: a0 = a0 | a5\n124221: a1 = ra | t2\n124224: a1 = a1 << 0x20\n124227: a2 = t1 | t0\n124230: a1 = a1 | a2\n124233: a0 = a0 | a1\n124236: jump @1480 if a0 == 0\n      : @1456 (gas: 3)\n124240: a1 = 0x20\n124243: a0 = u64 [sp + 0x58]\n124246: ra = 1346, jump @0\n      : @1457 [@dyn 673] (gas: 11)\n124253: i32 a0 = sp + 0x5e0\n124257: ecalli 0 // 'address'\n124258: a0 = i32 [sp + 0x5f0]\n124262: u64 [sp + 0x40] = a0\n124265: a0 = u64 [sp + 0x5e0]\n124269: u64 [sp + 0x38] = a0\n124272: a0 = u64 [sp + 0x5e8]\n124276: u64 [sp + 0x28] = a0\n124279: a0 = 0x40\n124282: a1 = 0x20\n124285: ra = 1348, jump @0\n      : @1458 [@dyn 674] (gas: 142)\n124292: a1 = u8 [a0 + 0x19]\n124295: a2 = u8 [a0 + 0x18]\n124298: a3 = u8 [a0 + 0x1a]\n124301: a4 = u8 [a0 + 0x1b]\n124304: a1 = a1 << 0x8\n124307: a1 = a1 | a2\n124310: a3 = a3 << 0x10\n124313: a4 = a4 << 0x18\n124316: a3 = a3 | a4\n124319: a1 = a1 | a3\n124322: a2 = u8 [a0 + 0x1d]\n124325: a3 = u8 [a0 + 0x1c]\n124328: a4 = u8 [a0 + 0x1e]\n124331: a5 = u8 [a0 + 0x1f]\n124334: a2 = a2 << 0x8\n124337: a2 = a2 | a3\n124340: a4 = a4 << 0x10\n124343: a5 = a5 << 0x18\n124346: a4 = a4 | a5\n124349: a2 = a2 | a4\n124352: a2 = a2 << 0x20\n124355: t0 = a2 | a1\n124358: a2 = u8 [a0 + 0x11]\n124361: a3 = u8 [a0 + 0x10]\n124364: a4 = u8 [a0 + 0x12]\n124367: a5 = u8 [a0 + 0x13]\n124370: a2 = a2 << 0x8\n124373: a2 = a2 | a3\n124376: a4 = a4 << 0x10\n124379: a5 = a5 << 0x18\n124382: a4 = a4 | a5\n124385: a2 = a2 | a4\n124388: a3 = u8 [a0 + 0x15]\n124391: a4 = u8 [a0 + 0x14]\n124394: a5 = u8 [a0 + 0x16]\n124397: s1 = u8 [a0 + 0x17]\n124400: a3 = a3 << 0x8\n124403: a3 = a3 | a4\n124406: a5 = a5 << 0x10\n124409: s1 = s1 << 0x18\n124412: a5 = a5 | s1\n124415: a3 = a3 | a5\n124418: a3 = a3 << 0x20\n124421: a2 = a2 | a3\n124424: a3 = u8 [a0 + 0x9]\n124427: a4 = u8 [a0 + 0x8]\n124430: a5 = u8 [a0 + 0xa]\n124433: s1 = u8 [a0 + 0xb]\n124436: a3 = a3 << 0x8\n124439: a3 = a3 | a4\n124442: a5 = a5 << 0x10\n124445: s1 = s1 << 0x18\n124448: a5 = a5 | s1\n124451: a3 = a3 | a5\n124454: a4 = u8 [a0 + 0xd]\n124457: a5 = u8 [a0 + 0xc]\n124460: s1 = u8 [a0 + 0xe]\n124463: a1 = u8 [a0 + 0xf]\n124466: a4 = a4 << 0x8\n124469: a4 = a4 | a5\n124472: s1 = s1 << 0x10\n124475: a1 = a1 << 0x18\n124478: a1 = a1 | s1\n124481: a1 = a1 | a4\n124484: a1 = a1 << 0x20\n124487: a3 = a3 | a1\n124490: a1 = u8 [a0 + 0x1]\n124493: a4 = u8 [a0]\n124495: a5 = u8 [a0 + 0x2]\n124498: s1 = u8 [a0 + 0x3]\n124501: a1 = a1 << 0x8\n124504: a1 = a1 | a4\n124507: a5 = a5 << 0x10\n124510: s1 = s1 << 0x18\n124513: a5 = a5 | s1\n124516: a1 = a1 | a5\n124519: a4 = u8 [a0 + 0x5]\n124522: a5 = u8 [a0 + 0x4]\n124525: s1 = u8 [a0 + 0x6]\n124528: a0 = u8 [a0 + 0x7]\n124531: a4 = a4 << 0x8\n124534: a4 = a4 | a5\n124537: s1 = s1 << 0x10\n124540: a0 = a0 << 0x18\n124543: a0 = a0 | s1\n124546: a0 = a0 | a4\n124549: a0 = a0 << 0x20\n124552: a0 = a0 | a1\n124555: a5 = reverse a0\n124557: u64 [sp + 0x48] = a5\n124560: a3 = reverse a3\n124562: u64 [sp + 0x60] = a3\n124565: a1 = reverse a2\n124567: u64 [sp + 0x50] = a1\n124570: a0 = reverse t0\n124572: u64 [sp + 0x58] = a0\n124575: a2 = a0 + 0x20\n124578: a0 = a2 <u a0\n124581: s1 = a1 + a0\n124584: a1 = s1 <u a1\n124587: a1 = a0 if a0 == 0\n124590: a1 = a1 + a3\n124593: a0 = a1 <u a3\n124596: a5 = a5 + a0\n124599: a0 = u64 [sp + 0x2c0]\n124603: u64 [sp + 0x4d8] = a0\n124607: a0 = u64 [sp + 0x2c8]\n124611: u64 [sp + 0x4d0] = a0\n124615: a0 = u64 [sp + 0x2d0]\n124619: u64 [sp + 0x4c8] = a0\n124623: a0 = u64 [sp + 0x2d8]\n124627: u64 [sp + 0x4c0] = a0\n124631: a0 = u64 [sp + 0x168]\n124635: u64 [sp + 0x4f8] = a0\n124639: a0 = u64 [sp + 0x170]\n124643: u64 [sp + 0x4f0] = a0\n124647: a0 = u64 [sp + 0x178]\n124651: u64 [sp + 0x4e8] = a0\n124655: a0 = u64 [sp + 0x180]\n124659: u64 [sp + 0x4e0] = a0\n124663: a0 = u64 [sp + 0x188]\n124667: u64 [sp + 0x518] = a0\n124671: a0 = u64 [sp + 0x190]\n124675: u64 [sp + 0x510] = a0\n124679: a0 = u64 [sp + 0x198]\n124683: u64 [sp + 0x508] = a0\n124687: a0 = u64 [sp + 0x1a0]\n124691: u64 [sp + 0x500] = a0\n124695: u64 [sp + 0x2d0] = a2\n124699: u64 [sp + 0x520] = a2\n124703: u64 [sp + 0x2c8] = s1\n124707: u64 [sp + 0x528] = s1\n124711: u64 [sp + 0x2c0] = a1\n124715: u64 [sp + 0x530] = a1\n124719: a0 = sp + 0x540\n124723: a1 = sp + 0x520\n124727: a2 = sp + 0x500\n124731: a3 = sp + 0x4e0\n124735: a4 = sp + 0x4c0\n124739: u64 [sp + 0x1a0] = a5\n124743: u64 [sp + 0x538] = a5\n124747: ra = 1350, jump @1377\n      : @1459 [@dyn 675] (gas: 12)\n124753: a1 = u64 [sp + 0x48]\n124756: a4 = u64 [sp + 0x60]\n124759: a3 = u64 [sp + 0x58]\n124762: a0 = u64 [sp + 0x50]\n124765: a0 = a0 | a1\n124768: a1 = a3 | a4\n124771: a1 = a1 | a0\n124774: a1 = a1 >> 0x20\n124777: a0 = a0 | a4\n124780: a0 = a0 << 0x20\n124783: a0 = a0 | a1\n124786: jump @1477 if a0 != 0\n      : @1460 (gas: 36)\n124790: a0 = u64 [sp + 0x540]\n124794: u64 [sp + 0x2d8] = a0\n124798: s1 = u64 [sp + 0x548]\n124802: t0 = u64 [sp + 0x558]\n124806: u64 [sp + 0x188] = t0\n124810: a5 = u64 [sp + 0x550]\n124814: u64 [sp + 0x190] = a5\n124818: a4 = u64 [sp + 0x2d0]\n124822: t2 = a0 <u a4\n124825: t1 = u64 [sp + 0x2c8]\n124829: a1 = s1 ^ t1\n124832: a2 = s1 <u t1\n124835: a0 = s1\n124837: u64 [sp + 0x180] = s1\n124841: a2 = t2 if a1 == 0\n124844: ra = u64 [sp + 0x2c0]\n124848: s1 = a5 - ra\n124851: a1 = s1 - a2\n124854: u64 [sp + 0x198] = a1\n124858: a1 = s1 <u a2\n124861: a2 = a5 <u ra\n124864: a2 = t0 - a2\n124867: a5 = u64 [sp + 0x1a0]\n124871: a2 = a2 - a5\n124874: a2 = a2 - a1\n124877: u64 [sp + 0x2c0] = a2\n124881: a0 = a0 - t2\n124884: a0 = a0 - t1\n124887: u64 [sp + 0x2c8] = a0\n124891: a0 = u64 [sp + 0x2d8]\n124895: a0 = a0 - a4\n124898: u64 [sp + 0x2d0] = a0\n124902: i32 a0 = a3 + 0\n124904: a1 = 0x20\n124907: s1 = u64 [sp + 0x50]\n124910: ra = 1352, jump @0\n      : @1461 [@dyn 676] (gas: 124)\n124917: t0 = u64 [sp + 0x58]\n124920: a5 = u64 [sp + 0x2d8]\n124924: a2 = a5 <u t0\n124927: a4 = u64 [sp + 0x180]\n124931: a3 = a4 ^ s1\n124934: a1 = a4 <u s1\n124937: a1 = a2 if a3 == 0\n124940: a3 = a4 - s1\n124943: t2 = a3 - a2\n124946: a3 = a5 - t0\n124949: a4 = a3 + 0x1f\n124952: t1 = a4 <u a3\n124955: a4 = a4 & 0xffffffffffffffe0\n124958: a2 = a4 + t0\n124961: u64 [sp + 0x2d8] = a2\n124965: a4 = a2 <u a4\n124968: a2 = t2 + t1\n124971: a5 = a2 + s1\n124974: t0 = a5 + a4\n124977: a5 = t0 ^ a2\n124980: s1 = t0 <u a2\n124983: s1 = a4 if a5 == 0\n124986: a3 = u64 [sp + 0x48]\n124989: a4 = u64 [sp + 0x188]\n124993: a4 = a4 - a3\n124996: a3 = u64 [sp + 0x60]\n124999: ra = u64 [sp + 0x190]\n125003: a5 = ra <u a3\n125006: a4 = a4 - a5\n125009: a3 = u64 [sp + 0x60]\n125012: a5 = ra - a3\n125015: a3 = a5 <u a1\n125018: a4 = a4 - a3\n125021: a5 = a5 - a1\n125024: a1 = a2 <u t2\n125027: a1 = t1 if t1 == 0\n125030: t1 = u64 [sp + 0x50]\n125033: a1 = a1 + a5\n125036: a2 = a1 <u a5\n125039: a5 = u64 [sp + 0x48]\n125042: a4 = a4 + a5\n125045: a2 = a2 + a4\n125048: t2 = u64 [sp + 0x60]\n125051: a3 = a1 + t2\n125054: a4 = a3 + s1\n125057: a1 = a3 <u a1\n125060: s1 = a4 <u a3\n125063: a1 = a1 + a2\n125066: s1 = s1 + a1\n125069: a1 = s1 >u 0\n125071: a2 = a4 >u 0\n125073: a2 = a1 if s1 != 0\n125076: a3 = a4 | s1\n125079: a1 = t0 >u 0\n125081: a1 = a2 if a3 != 0\n125084: a2 = u64 [sp + 0x2d0]\n125088: a2 = reverse a2\n125090: a3 = a2 >> 0x38\n125093: u8 [a0 + 0x1f] = a3\n125096: a3 = a2 >> 0x30\n125099: u8 [a0 + 0x1e] = a3\n125102: a3 = a2 >> 0x28\n125105: u8 [a0 + 0x1d] = a3\n125108: a3 = a2 >> 0x20\n125111: u8 [a0 + 0x1c] = a3\n125114: a3 = a2 >> 0x18\n125117: u8 [a0 + 0x1b] = a3\n125120: a3 = a2 >> 0x10\n125123: u8 [a0 + 0x1a] = a3\n125126: a3 = u64 [sp + 0x2c8]\n125130: a3 = reverse a3\n125132: u8 [a0 + 0x18] = a2\n125135: a2 = a2 >> 0x8\n125138: u8 [a0 + 0x19] = a2\n125141: a2 = a3 >> 0x38\n125144: u8 [a0 + 0x17] = a2\n125147: a2 = a3 >> 0x30\n125150: u8 [a0 + 0x16] = a2\n125153: a2 = a3 >> 0x28\n125156: u8 [a0 + 0x15] = a2\n125159: a2 = a3 >> 0x20\n125162: u8 [a0 + 0x14] = a2\n125165: a2 = a3 >> 0x18\n125168: u8 [a0 + 0x13] = a2\n125171: a2 = a3 >> 0x10\n125174: u8 [a0 + 0x12] = a2\n125177: a2 = u64 [sp + 0x198]\n125181: a2 = reverse a2\n125183: u8 [a0 + 0x10] = a3\n125186: a3 = a3 >> 0x8\n125189: u8 [a0 + 0x11] = a3\n125192: a3 = a2 >> 0x38\n125195: u8 [a0 + 0xf] = a3\n125198: a3 = a2 >> 0x30\n125201: u8 [a0 + 0xe] = a3\n125204: a3 = a2 >> 0x28\n125207: u8 [a0 + 0xd] = a3\n125210: a3 = a2 >> 0x20\n125213: u8 [a0 + 0xc] = a3\n125216: a3 = a2 >> 0x18\n125219: u8 [a0 + 0xb] = a3\n125222: a3 = a2 >> 0x10\n125225: u8 [a0 + 0xa] = a3\n125228: a3 = u64 [sp + 0x2c0]\n125232: a3 = reverse a3\n125234: u8 [a0 + 0x8] = a2\n125237: a2 = a2 >> 0x8\n125240: u8 [a0 + 0x9] = a2\n125243: a2 = a3 >> 0x38\n125246: u8 [a0 + 0x7] = a2\n125249: a2 = a3 >> 0x30\n125252: u8 [a0 + 0x6] = a2\n125255: a2 = a3 >> 0x28\n125258: u8 [a0 + 0x5] = a2\n125261: a2 = a3 >> 0x20\n125264: u8 [a0 + 0x4] = a2\n125267: a2 = a3 >> 0x18\n125270: u8 [a0 + 0x3] = a2\n125273: a2 = a3 >> 0x10\n125276: u8 [a0 + 0x2] = a2\n125279: u8 [a0] = a3\n125281: a3 = a3 >> 0x8\n125284: u8 [a0 + 0x1] = a3\n125287: jump @1482 if a1 != 0\n      : @1462 (gas: 14)\n125291: a0 = u64 [sp + 0x2d8]\n125295: a1 = u64 [sp + 0x58]\n125298: a0 = a0 <u a1\n125301: a1 = t0 ^ t1\n125304: a2 = t0 <u t1\n125307: a2 = a0 if a1 == 0\n125310: a0 = a4 <u t2\n125313: a1 = s1 ^ a5\n125316: a3 = s1 <u a5\n125319: a3 = a0 if a1 == 0\n125322: a0 = a4 ^ t2\n125325: a0 = a0 | a1\n125328: a3 = a2 if a0 == 0\n125331: jump @1482 if a3 != 0\n      : @1463 (gas: 5)\n125335: a0 = 0x40\n125338: a1 = 0x20\n125341: u64 [sp + 0x2d0] = t0\n125345: u64 [sp + 0x2c8] = a4\n125349: ra = 1354, jump @0\n      : @1464 [@dyn 677] (gas: 70)\n125356: a1 = reverse s1\n125358: a2 = u64 [sp + 0x2c8]\n125362: a2 = reverse a2\n125364: a3 = u64 [sp + 0x2d0]\n125368: a3 = reverse a3\n125370: a4 = u64 [sp + 0x2d8]\n125374: a4 = reverse a4\n125376: u8 [a0 + 0x18] = a4\n125379: a5 = a4 >> 0x38\n125382: u8 [a0 + 0x1f] = a5\n125385: a5 = a4 >> 0x30\n125388: u8 [a0 + 0x1e] = a5\n125391: a5 = a4 >> 0x28\n125394: u8 [a0 + 0x1d] = a5\n125397: a5 = a4 >> 0x20\n125400: u8 [a0 + 0x1c] = a5\n125403: a5 = a4 >> 0x18\n125406: u8 [a0 + 0x1b] = a5\n125409: a5 = a4 >> 0x10\n125412: u8 [a0 + 0x1a] = a5\n125415: a4 = a4 >> 0x8\n125418: u8 [a0 + 0x19] = a4\n125421: u8 [a0 + 0x10] = a3\n125424: a4 = a3 >> 0x38\n125427: u8 [a0 + 0x17] = a4\n125430: a4 = a3 >> 0x30\n125433: u8 [a0 + 0x16] = a4\n125436: a4 = a3 >> 0x28\n125439: u8 [a0 + 0x15] = a4\n125442: a4 = a3 >> 0x20\n125445: u8 [a0 + 0x14] = a4\n125448: a4 = a3 >> 0x18\n125451: u8 [a0 + 0x13] = a4\n125454: a4 = a3 >> 0x10\n125457: u8 [a0 + 0x12] = a4\n125460: a3 = a3 >> 0x8\n125463: u8 [a0 + 0x11] = a3\n125466: u8 [a0 + 0x8] = a2\n125469: a3 = a2 >> 0x38\n125472: u8 [a0 + 0xf] = a3\n125475: a3 = a2 >> 0x30\n125478: u8 [a0 + 0xe] = a3\n125481: a3 = a2 >> 0x28\n125484: u8 [a0 + 0xd] = a3\n125487: a3 = a2 >> 0x20\n125490: u8 [a0 + 0xc] = a3\n125493: a3 = a2 >> 0x18\n125496: u8 [a0 + 0xb] = a3\n125499: a3 = a2 >> 0x10\n125502: u8 [a0 + 0xa] = a3\n125505: a2 = a2 >> 0x8\n125508: u8 [a0 + 0x9] = a2\n125511: u8 [a0] = a1\n125513: a2 = a1 >> 0x38\n125516: u8 [a0 + 0x7] = a2\n125519: a2 = a1 >> 0x30\n125522: u8 [a0 + 0x6] = a2\n125525: a2 = a1 >> 0x28\n125528: u8 [a0 + 0x5] = a2\n125531: a2 = a1 >> 0x20\n125534: u8 [a0 + 0x4] = a2\n125537: a2 = a1 >> 0x18\n125540: u8 [a0 + 0x3] = a2\n125543: a2 = a1 >> 0x10\n125546: u8 [a0 + 0x2] = a2\n125549: a1 = a1 >> 0x8\n125552: u8 [a0 + 0x1] = a1\n125555: a0 = 0x40\n125558: a1 = 0x20\n125561: ra = 1356, jump @0\n      : @1465 [@dyn 678] (gas: 108)\n125568: a1 = u8 [a0 + 0x19]\n125571: a2 = u8 [a0 + 0x18]\n125574: a3 = u8 [a0 + 0x1a]\n125577: a4 = u8 [a0 + 0x1b]\n125580: a1 = a1 << 0x8\n125583: a1 = a1 | a2\n125586: a3 = a3 << 0x10\n125589: a4 = a4 << 0x18\n125592: a3 = a3 | a4\n125595: a1 = a1 | a3\n125598: a2 = u8 [a0 + 0x1d]\n125601: a3 = u8 [a0 + 0x1c]\n125604: a4 = u8 [a0 + 0x1e]\n125607: a5 = u8 [a0 + 0x1f]\n125610: a2 = a2 << 0x8\n125613: a2 = a2 | a3\n125616: a4 = a4 << 0x10\n125619: a5 = a5 << 0x18\n125622: a4 = a4 | a5\n125625: a2 = a2 | a4\n125628: a2 = a2 << 0x20\n125631: t0 = a2 | a1\n125634: a2 = u8 [a0 + 0x11]\n125637: a3 = u8 [a0 + 0x10]\n125640: a4 = u8 [a0 + 0x12]\n125643: a5 = u8 [a0 + 0x13]\n125646: a2 = a2 << 0x8\n125649: a2 = a2 | a3\n125652: a4 = a4 << 0x10\n125655: a5 = a5 << 0x18\n125658: a4 = a4 | a5\n125661: a2 = a2 | a4\n125664: a3 = u8 [a0 + 0x15]\n125667: a4 = u8 [a0 + 0x14]\n125670: a5 = u8 [a0 + 0x16]\n125673: s1 = u8 [a0 + 0x17]\n125676: a3 = a3 << 0x8\n125679: a3 = a3 | a4\n125682: a5 = a5 << 0x10\n125685: s1 = s1 << 0x18\n125688: a5 = a5 | s1\n125691: a3 = a3 | a5\n125694: a3 = a3 << 0x20\n125697: a2 = a2 | a3\n125700: a3 = u8 [a0 + 0x9]\n125703: a4 = u8 [a0 + 0x8]\n125706: a5 = u8 [a0 + 0xa]\n125709: s1 = u8 [a0 + 0xb]\n125712: a3 = a3 << 0x8\n125715: a3 = a3 | a4\n125718: a5 = a5 << 0x10\n125721: s1 = s1 << 0x18\n125724: a5 = a5 | s1\n125727: a3 = a3 | a5\n125730: a4 = u8 [a0 + 0xd]\n125733: a5 = u8 [a0 + 0xc]\n125736: s1 = u8 [a0 + 0xe]\n125739: a1 = u8 [a0 + 0xf]\n125742: a4 = a4 << 0x8\n125745: a4 = a4 | a5\n125748: s1 = s1 << 0x10\n125751: a1 = a1 << 0x18\n125754: a1 = a1 | s1\n125757: a1 = a1 | a4\n125760: a1 = a1 << 0x20\n125763: a3 = a3 | a1\n125766: a1 = u8 [a0 + 0x1]\n125769: a4 = u8 [a0]\n125771: a5 = u8 [a0 + 0x2]\n125774: s1 = u8 [a0 + 0x3]\n125777: a1 = a1 << 0x8\n125780: a1 = a1 | a4\n125783: a5 = a5 << 0x10\n125786: s1 = s1 << 0x18\n125789: a5 = a5 | s1\n125792: a1 = a1 | a5\n125795: a4 = u8 [a0 + 0x5]\n125798: a5 = u8 [a0 + 0x4]\n125801: s1 = u8 [a0 + 0x6]\n125804: a0 = u8 [a0 + 0x7]\n125807: a4 = a4 << 0x8\n125810: a4 = a4 | a5\n125813: s1 = s1 << 0x10\n125816: a0 = a0 << 0x18\n125819: a0 = a0 | s1\n125822: a0 = a0 | a4\n125825: a0 = a0 << 0x20\n125828: a0 = a0 | a1\n125831: t1 = reverse a0\n125833: a4 = reverse a3\n125835: a3 = reverse a2\n125837: a2 = reverse t0\n125839: a5 = a2 + 0x20\n125842: a0 = a5 <u a2\n125845: t0 = a3 + a0\n125848: s1 = t0 <u a3\n125851: s1 = a0 if a0 == 0\n125854: s1 = s1 + a4\n125857: a0 = s1 <u a4\n125860: t2 = t1 + a0\n125863: a0 = a5 | s1\n125866: a1 = t0 | t2\n125869: a0 = a0 | a1\n125872: a0 = a0 >> 0x20\n125875: a1 = a1 | s1\n125878: a1 = a1 << 0x20\n125881: a0 = a0 | a1\n125884: jump @1477 if a0 != 0\n      : @1466 (gas: 11)\n125888: u64 [sp + 0x190] = t1\n125892: u64 [sp + 0x198] = a4\n125896: u64 [sp + 0x1a0] = a3\n125900: u64 [sp + 0x2c0] = a2\n125904: i32 a0 = a5 + 0\n125906: a1 = 0x20\n125909: u64 [sp + 0x188] = a0\n125913: u64 [sp + 0x2d0] = a5\n125917: u64 [sp + 0x2d8] = t0\n125921: u64 [sp + 0x2c8] = t2\n125925: ra = 1358, jump @0\n      : @1467 [@dyn 679] (gas: 73)\n125932: a1 = u64 [sp + 0x250]\n125936: u8 [a0 + 0x10] = a1\n125939: a1 = u64 [sp + 0x210]\n125943: u8 [a0 + 0xf] = a1\n125946: a1 = u64 [sp + 0x208]\n125950: u8 [a0 + 0xe] = a1\n125953: a1 = u64 [sp + 0x200]\n125957: u8 [a0 + 0xd] = a1\n125960: a1 = u64 [sp + 0x1f8]\n125964: u8 [a0 + 0xc] = a1\n125967: a1 = u64 [sp + 0x1f0]\n125971: u8 [a0 + 0xb] = a1\n125974: a1 = u64 [sp + 0x1e8]\n125978: u8 [a0 + 0xa] = a1\n125981: a1 = u64 [sp + 0x1e0]\n125985: u8 [a0 + 0x9] = a1\n125988: a1 = u64 [sp + 0x258]\n125992: u8 [a0 + 0x8] = a1\n125995: a1 = u64 [sp + 0x1d8]\n125999: u8 [a0 + 0x7] = a1\n126002: a1 = u64 [sp + 0x1d0]\n126006: u8 [a0 + 0x6] = a1\n126009: a1 = u64 [sp + 0x1c8]\n126013: u8 [a0 + 0x5] = a1\n126016: a1 = u64 [sp + 0x1c0]\n126020: u8 [a0 + 0x4] = a1\n126023: a1 = u64 [sp + 0x1b8]\n126027: u8 [a0 + 0x3] = a1\n126030: a1 = u64 [sp + 0x1b0]\n126034: u8 [a0 + 0x2] = a1\n126037: a1 = u64 [sp + 0x1a8]\n126041: u8 [a0 + 0x1] = a1\n126044: a1 = u64 [sp + 0x290]\n126048: u8 [a0] = a1\n126050: a1 = u64 [sp + 0x278]\n126054: u8 [a0 + 0x18] = a1\n126057: a1 = u64 [sp + 0x248]\n126061: u8 [a0 + 0x17] = a1\n126064: a1 = u64 [sp + 0x240]\n126068: u8 [a0 + 0x16] = a1\n126071: a1 = u64 [sp + 0x238]\n126075: u8 [a0 + 0x15] = a1\n126078: a1 = u64 [sp + 0x230]\n126082: u8 [a0 + 0x14] = a1\n126085: a1 = u64 [sp + 0x228]\n126089: u8 [a0 + 0x13] = a1\n126092: a1 = u64 [sp + 0x220]\n126096: u8 [a0 + 0x12] = a1\n126099: a1 = u64 [sp + 0x218]\n126103: u8 [a0 + 0x11] = a1\n126106: a1 = u64 [sp + 0x298]\n126110: u8 [a0 + 0x1f] = a1\n126113: a1 = u64 [sp + 0x288]\n126117: u8 [a0 + 0x1e] = a1\n126120: a1 = u64 [sp + 0x280]\n126124: u8 [a0 + 0x1d] = a1\n126127: a1 = u64 [sp + 0x270]\n126131: u8 [a0 + 0x1c] = a1\n126134: a1 = u64 [sp + 0x268]\n126138: u8 [a0 + 0x1b] = a1\n126141: a1 = u64 [sp + 0x260]\n126145: u8 [a0 + 0x1a] = a1\n126148: a1 = u64 [sp + 0x2c8]\n126152: a1 = a1 | s1\n126155: a2 = 0xffffffe0\n126165: a3 = u64 [sp + 0x2d0]\n126169: a2 = a3 <u a2\n126172: a3 = u64 [sp + 0x2d8]\n126176: a2 = 0 if a3 != 0\n126178: a2 = 0 if a1 != 0\n126180: a1 = u64 [sp + 0x2a0]\n126184: u8 [a0 + 0x19] = a1\n126187: jump @1477 if a2 == 0\n      : @1468 (gas: 4)\n126191: a0 = u64 [sp + 0x188]\n126195: i32 a0 = a0 + 0x20\n126198: a1 = 0x20\n126201: ra = 1360, jump @0\n      : @1469 [@dyn 680] (gas: 76)\n126208: a1 = u64 [sp + 0x118]\n126212: u8 [a0 + 0x10] = a1\n126215: a1 = u64 [sp + 0xd0]\n126219: u8 [a0 + 0xf] = a1\n126222: a1 = u64 [sp + 0xc8]\n126226: u8 [a0 + 0xe] = a1\n126229: a1 = u64 [sp + 0xc0]\n126233: u8 [a0 + 0xd] = a1\n126236: a1 = u64 [sp + 0xb8]\n126240: u8 [a0 + 0xc] = a1\n126243: a1 = u64 [sp + 0xb0]\n126247: u8 [a0 + 0xb] = a1\n126250: a1 = u64 [sp + 0xa8]\n126254: u8 [a0 + 0xa] = a1\n126257: a1 = u64 [sp + 0xa0]\n126261: u8 [a0 + 0x9] = a1\n126264: a1 = u64 [sp + 0xe0]\n126268: u8 [a0 + 0x8] = a1\n126271: a1 = u64 [sp + 0x98]\n126275: u8 [a0 + 0x7] = a1\n126278: a1 = u64 [sp + 0x90]\n126282: u8 [a0 + 0x6] = a1\n126285: a1 = u64 [sp + 0x88]\n126289: u8 [a0 + 0x5] = a1\n126292: a1 = u64 [sp + 0x80]\n126296: u8 [a0 + 0x4] = a1\n126299: a1 = u64 [sp + 0x78]\n126302: u8 [a0 + 0x3] = a1\n126305: a1 = u64 [sp + 0x70]\n126308: u8 [a0 + 0x2] = a1\n126311: a1 = u64 [sp + 0x68]\n126314: u8 [a0 + 0x1] = a1\n126317: a1 = u64 [sp + 0xd8]\n126321: u8 [a0] = a1\n126323: a1 = u64 [sp + 0x128]\n126327: u8 [a0 + 0x18] = a1\n126330: a1 = u64 [sp + 0x120]\n126334: u8 [a0 + 0x17] = a1\n126337: a1 = u64 [sp + 0x110]\n126341: u8 [a0 + 0x16] = a1\n126344: a1 = u64 [sp + 0x108]\n126348: u8 [a0 + 0x15] = a1\n126351: a1 = u64 [sp + 0x100]\n126355: u8 [a0 + 0x14] = a1\n126358: a1 = u64 [sp + 0xf8]\n126362: u8 [a0 + 0x13] = a1\n126365: a1 = u64 [sp + 0xf0]\n126369: u8 [a0 + 0x12] = a1\n126372: a1 = u64 [sp + 0xe8]\n126376: u8 [a0 + 0x11] = a1\n126379: a1 = u64 [sp + 0x158]\n126383: u8 [a0 + 0x1f] = a1\n126386: a1 = u64 [sp + 0x150]\n126390: u8 [a0 + 0x1e] = a1\n126393: a1 = u64 [sp + 0x148]\n126397: u8 [a0 + 0x1d] = a1\n126400: a1 = u64 [sp + 0x140]\n126404: u8 [a0 + 0x1c] = a1\n126407: a1 = u64 [sp + 0x138]\n126411: u8 [a0 + 0x1b] = a1\n126414: a1 = u64 [sp + 0x130]\n126418: u8 [a0 + 0x1a] = a1\n126421: a3 = u64 [sp + 0x2c0]\n126425: a5 = u64 [sp + 0x198]\n126429: a1 = a3 | a5\n126432: a4 = u64 [sp + 0x1a0]\n126436: s1 = u64 [sp + 0x190]\n126440: a2 = a4 | s1\n126443: a1 = a1 | a2\n126446: a1 = a1 >> 0x20\n126449: a2 = a2 | a5\n126452: a2 = a2 << 0x20\n126455: a1 = a1 | a2\n126458: a2 = u64 [sp + 0x160]\n126462: u8 [a0 + 0x19] = a2\n126465: jump @1477 if a1 != 0\n      : @1470 (gas: 3)\n126469: i32 a0 = a3 + 0\n126471: a1 = 0x20\n126474: ra = 1362, jump @0\n      : @1471 [@dyn 681] (gas: 50)\n126481: u8 [a0 + 31] = 0x40\n126485: u8 [a0 + 30] = 0\n126488: u8 [a0 + 29] = 0\n126491: u8 [a0 + 28] = 0\n126494: u8 [a0 + 27] = 0\n126497: u8 [a0 + 26] = 0\n126500: u8 [a0 + 25] = 0\n126503: u8 [a0 + 24] = 0\n126506: u8 [a0 + 23] = 0\n126509: u8 [a0 + 22] = 0\n126512: u8 [a0 + 21] = 0\n126515: u8 [a0 + 20] = 0\n126518: u8 [a0 + 19] = 0\n126521: u8 [a0 + 18] = 0\n126524: u8 [a0 + 17] = 0\n126527: u8 [a0 + 16] = 0\n126530: u8 [a0 + 15] = 0\n126533: u8 [a0 + 14] = 0\n126536: u8 [a0 + 13] = 0\n126539: u8 [a0 + 12] = 0\n126542: u8 [a0 + 11] = 0\n126545: u8 [a0 + 10] = 0\n126548: u8 [a0 + 9] = 0\n126551: u8 [a0 + 8] = 0\n126554: u8 [a0 + 7] = 0\n126557: u8 [a0 + 6] = 0\n126560: u8 [a0 + 5] = 0\n126563: u8 [a0 + 4] = 0\n126566: u8 [a0 + 3] = 0\n126569: u8 [a0 + 2] = 0\n126572: u8 [a0 + 1] = 0\n126575: u8 [a0 + 0] = 0\n126577: a0 = u64 [sp + 0x2c0]\n126581: a1 = a0 + 0x60\n126584: u64 [sp + 0x2d8] = a1\n126588: a0 = a1 <u a0\n126591: a1 = u64 [sp + 0x1a0]\n126595: a2 = a1 + a0\n126598: u64 [sp + 0x2d0] = a2\n126602: a1 = a2 <u a1\n126605: a1 = a0 if a0 == 0\n126608: a0 = u64 [sp + 0x198]\n126612: s1 = a0 + a1\n126615: a0 = s1 <u a0\n126618: a1 = u64 [sp + 0x190]\n126622: a0 = a0 + a1\n126625: u64 [sp + 0x2c8] = a0\n126629: a0 = 0x40\n126632: a1 = 0x20\n126635: ra = 1364, jump @0\n      : @1472 [@dyn 682] (gas: 70)\n126642: a1 = u64 [sp + 0x2c8]\n126646: a1 = reverse a1\n126648: a2 = reverse s1\n126650: a3 = u64 [sp + 0x2d0]\n126654: a3 = reverse a3\n126656: a4 = u64 [sp + 0x2d8]\n126660: a4 = reverse a4\n126662: a5 = a4 >> 0x38\n126665: u8 [a0 + 0x1f] = a5\n126668: a5 = a4 >> 0x30\n126671: u8 [a0 + 0x1e] = a5\n126674: a5 = a4 >> 0x28\n126677: u8 [a0 + 0x1d] = a5\n126680: a5 = a4 >> 0x20\n126683: u8 [a0 + 0x1c] = a5\n126686: a5 = a4 >> 0x18\n126689: u8 [a0 + 0x1b] = a5\n126692: a5 = a4 >> 0x10\n126695: u8 [a0 + 0x1a] = a5\n126698: a5 = a4 >> 0x8\n126701: u8 [a0 + 0x19] = a5\n126704: u8 [a0 + 0x18] = a4\n126707: a4 = a3 >> 0x38\n126710: u8 [a0 + 0x17] = a4\n126713: a4 = a3 >> 0x30\n126716: u8 [a0 + 0x16] = a4\n126719: a4 = a3 >> 0x28\n126722: u8 [a0 + 0x15] = a4\n126725: a4 = a3 >> 0x20\n126728: u8 [a0 + 0x14] = a4\n126731: a4 = a3 >> 0x18\n126734: u8 [a0 + 0x13] = a4\n126737: a4 = a3 >> 0x10\n126740: u8 [a0 + 0x12] = a4\n126743: a4 = a3 >> 0x8\n126746: u8 [a0 + 0x11] = a4\n126749: u8 [a0 + 0x10] = a3\n126752: u8 [a0 + 0x8] = a2\n126755: a3 = a2 >> 0x38\n126758: u8 [a0 + 0xf] = a3\n126761: a3 = a2 >> 0x30\n126764: u8 [a0 + 0xe] = a3\n126767: a3 = a2 >> 0x28\n126770: u8 [a0 + 0xd] = a3\n126773: a3 = a2 >> 0x20\n126776: u8 [a0 + 0xc] = a3\n126779: a3 = a2 >> 0x18\n126782: u8 [a0 + 0xb] = a3\n126785: a3 = a2 >> 0x10\n126788: u8 [a0 + 0xa] = a3\n126791: a2 = a2 >> 0x8\n126794: u8 [a0 + 0x9] = a2\n126797: u8 [a0] = a1\n126799: a2 = a1 >> 0x38\n126802: u8 [a0 + 0x7] = a2\n126805: a2 = a1 >> 0x30\n126808: u8 [a0 + 0x6] = a2\n126811: a2 = a1 >> 0x28\n126814: u8 [a0 + 0x5] = a2\n126817: a2 = a1 >> 0x20\n126820: u8 [a0 + 0x4] = a2\n126823: a2 = a1 >> 0x18\n126826: u8 [a0 + 0x3] = a2\n126829: a2 = a1 >> 0x10\n126832: u8 [a0 + 0x2] = a2\n126835: a1 = a1 >> 0x8\n126838: u8 [a0 + 0x1] = a1\n126841: a0 = 0x40\n126844: a1 = 0x20\n126847: ra = 1366, jump @0\n      : @1473 [@dyn 683] (gas: 100)\n126854: a1 = u8 [a0 + 0x11]\n126857: a2 = u8 [a0 + 0x10]\n126860: a3 = u8 [a0 + 0x12]\n126863: a4 = u8 [a0 + 0x13]\n126866: a1 = a1 << 0x8\n126869: a1 = a1 | a2\n126872: a3 = a3 << 0x10\n126875: a4 = a4 << 0x18\n126878: a3 = a3 | a4\n126881: a1 = a1 | a3\n126884: a2 = u8 [a0 + 0x15]\n126887: a3 = u8 [a0 + 0x14]\n126890: a4 = u8 [a0 + 0x16]\n126893: a5 = u8 [a0 + 0x17]\n126896: a2 = a2 << 0x8\n126899: a2 = a2 | a3\n126902: a4 = a4 << 0x10\n126905: a5 = a5 << 0x18\n126908: a4 = a4 | a5\n126911: a2 = a2 | a4\n126914: a2 = a2 << 0x20\n126917: t0 = a2 | a1\n126920: a2 = u8 [a0 + 0x1]\n126923: a3 = u8 [a0]\n126925: a4 = u8 [a0 + 0x2]\n126928: a5 = u8 [a0 + 0x3]\n126931: a2 = a2 << 0x8\n126934: a2 = a2 | a3\n126937: a4 = a4 << 0x10\n126940: a5 = a5 << 0x18\n126943: a4 = a4 | a5\n126946: a2 = a2 | a4\n126949: a3 = u8 [a0 + 0x5]\n126952: a4 = u8 [a0 + 0x4]\n126955: a5 = u8 [a0 + 0x6]\n126958: s1 = u8 [a0 + 0x7]\n126961: a3 = a3 << 0x8\n126964: a3 = a3 | a4\n126967: a5 = a5 << 0x10\n126970: s1 = s1 << 0x18\n126973: a5 = a5 | s1\n126976: a3 = a3 | a5\n126979: a3 = a3 << 0x20\n126982: a2 = a2 | a3\n126985: a3 = u8 [a0 + 0x19]\n126988: a4 = u8 [a0 + 0x18]\n126991: a5 = u8 [a0 + 0x1a]\n126994: s1 = u8 [a0 + 0x1b]\n126997: a3 = a3 << 0x8\n127000: a3 = a3 | a4\n127003: a5 = a5 << 0x10\n127006: s1 = s1 << 0x18\n127009: a5 = a5 | s1\n127012: a3 = a3 | a5\n127015: a4 = u8 [a0 + 0x1d]\n127018: a5 = u8 [a0 + 0x1c]\n127021: s1 = u8 [a0 + 0x1e]\n127024: a1 = u8 [a0 + 0x1f]\n127027: a4 = a4 << 0x8\n127030: a4 = a4 | a5\n127033: s1 = s1 << 0x10\n127036: a1 = a1 << 0x18\n127039: a1 = a1 | s1\n127042: a1 = a1 | a4\n127045: a1 = a1 << 0x20\n127048: a3 = a3 | a1\n127051: a1 = u8 [a0 + 0x9]\n127054: a4 = u8 [a0 + 0x8]\n127057: a5 = u8 [a0 + 0xa]\n127060: s1 = u8 [a0 + 0xb]\n127063: a1 = a1 << 0x8\n127066: a1 = a1 | a4\n127069: a5 = a5 << 0x10\n127072: s1 = s1 << 0x18\n127075: a5 = a5 | s1\n127078: a1 = a1 | a5\n127081: a4 = u8 [a0 + 0xd]\n127084: a5 = u8 [a0 + 0xc]\n127087: s1 = u8 [a0 + 0xe]\n127090: a0 = u8 [a0 + 0xf]\n127093: a4 = a4 << 0x8\n127096: a4 = a4 | a5\n127099: s1 = s1 << 0x10\n127102: a0 = a0 << 0x18\n127105: a0 = a0 | s1\n127108: a0 = a0 | a4\n127111: a0 = a0 << 0x20\n127114: a0 = a0 | a1\n127117: s1 = reverse a0\n127119: a4 = reverse a3\n127121: a3 = reverse a2\n127123: a2 = reverse t0\n127125: a0 = a2 | a3\n127128: a1 = a4 | s1\n127131: a1 = a1 | a0\n127134: a1 = a1 >> 0x20\n127137: a0 = a0 | s1\n127140: a0 = a0 << 0x20\n127143: a0 = a0 | a1\n127146: jump @1477 if a0 != 0\n      : @1474 (gas: 23)\n127150: a0 = u64 [sp + 0x28]\n127153: a0 = reverse a0\n127155: a1 = a0 >> 0x20\n127158: u64 [sp + 0x2c8] = a2\n127162: a2 = u64 [sp + 0x38]\n127165: a2 = reverse a2\n127167: u64 [sp + 0x2d8] = a3\n127171: a3 = a2 << 0x20\n127174: a1 = a1 | a3\n127177: u64 [sp + 0x2a0] = a1\n127181: a0 = a0 << 0x20\n127184: a1 = u64 [sp + 0x40]\n127187: a1 = reverse a1\n127189: a1 = a1 >> 0x20\n127192: a0 = a0 | a1\n127195: u64 [sp + 0x298] = a0\n127199: a2 = a2 >> 0x20\n127202: u64 [sp + 0x290] = a2\n127206: i32 a0 = a4 + 0\n127208: a1 = 0x20\n127211: u64 [sp + 0x288] = a0\n127215: u64 [sp + 0x2d0] = a4\n127219: ra = 1368, jump @0\n      : @1475 [@dyn 684] (gas: 92)\n127226: u8 [a0 + 31] = 0\n127229: u8 [a0 + 30] = 0\n127232: u8 [a0 + 29] = 0\n127235: u8 [a0 + 28] = 0\n127238: u8 [a0 + 27] = 0\n127241: u8 [a0 + 26] = 0\n127244: u8 [a0 + 25] = 0\n127247: u8 [a0 + 24] = 0\n127250: u8 [a0 + 23] = 0\n127253: u8 [a0 + 22] = 0\n127256: u8 [a0 + 21] = 0\n127259: u8 [a0 + 20] = 0\n127262: u8 [a0 + 19] = 0\n127265: u8 [a0 + 18] = 0\n127268: u8 [a0 + 17] = 0\n127271: u8 [a0 + 16] = 0\n127274: u8 [a0 + 15] = 0\n127277: u8 [a0 + 14] = 0\n127280: u8 [a0 + 13] = 0\n127283: u8 [a0 + 12] = 0\n127286: u8 [a0 + 11] = 0\n127289: u8 [a0 + 10] = 0\n127292: u8 [a0 + 9] = 0\n127295: u8 [a0 + 8] = 0\n127298: u8 [a0 + 7] = 0\n127301: u8 [a0 + 6] = 0\n127304: u8 [a0 + 5] = 0\n127307: u8 [a0 + 4] = 0\n127310: u8 [a0 + 3] = 0x30\n127314: u8 [a0 + 2] = 0x18\n127318: u8 [a0 + 1] = 0x6f\n127322: u8 [a0 + 0] = 0x55\n127325: a1 = u64 [sp + 0x2d0]\n127329: a0 = a1 + 0x4\n127332: a2 = a0 <u a1\n127335: a3 = u64 [sp + 0x2c8]\n127339: a1 = a3 + a2\n127342: a3 = a1 <u a3\n127345: a3 = a2 if a2 == 0\n127348: a2 = s1 + a3\n127351: t0 = a2 <u s1\n127354: a3 = u64 [sp + 0x2d8]\n127358: t0 = t0 + a3\n127361: a3 = sp + 0x3e0\n127365: u64 [sp] = a3\n127367: a3 = u64 [sp + 0x190]\n127371: u64 [sp + 0x3f8] = a3\n127375: a3 = u64 [sp + 0x198]\n127379: u64 [sp + 0x3f0] = a3\n127383: a3 = u64 [sp + 0x1a0]\n127387: u64 [sp + 0x3e8] = a3\n127391: a3 = u64 [sp + 0x2c0]\n127395: u64 [sp + 0x3e0] = a3\n127399: a3 = 0x2951448200000000\n127409: u64 [sp + 0x418] = a3\n127413: u64 [sp + 1040] = 0\n127417: u64 [sp + 1032] = 0\n127421: u64 [sp + 1024] = 0\n127425: a3 = u64 [sp + 0x48]\n127428: u64 [sp + 0x438] = a3\n127432: a3 = u64 [sp + 0x60]\n127435: u64 [sp + 0x430] = a3\n127439: a3 = u64 [sp + 0x50]\n127442: u64 [sp + 0x428] = a3\n127446: a3 = u64 [sp + 0x58]\n127449: u64 [sp + 0x420] = a3\n127453: a3 = u64 [sp + 0x2a8]\n127457: u64 [sp + 0x458] = a3\n127461: a3 = u64 [sp + 0x2b0]\n127465: u64 [sp + 0x450] = a3\n127469: a3 = u64 [sp + 0x2b8]\n127473: u64 [sp + 0x448] = a3\n127477: a3 = u64 [sp + 0x30]\n127480: u64 [sp + 0x440] = a3\n127484: u64 [sp + 1144] = 0\n127488: a3 = u64 [sp + 0x290]\n127492: u64 [sp + 0x470] = a3\n127496: a3 = u64 [sp + 0x2a0]\n127500: u64 [sp + 0x468] = a3\n127504: a3 = u64 [sp + 0x298]\n127508: u64 [sp + 0x460] = a3\n127512: u64 [sp + 0x488] = a1\n127516: u64 [sp + 0x480] = a0\n127520: u64 [sp + 0x490] = a2\n127524: a0 = sp + 0x4a0\n127528: a1 = sp + 0x480\n127532: a2 = sp + 0x460\n127536: a3 = sp + 0x440\n127540: a4 = sp + 0x420\n127544: a5 = sp + 0x400\n127548: u64 [sp + 0x498] = t0\n127552: ra = 1370, jump @1407\n      : @1476 [@dyn 685] (gas: 30)\n127558: a0 = u64 [sp + 0x4a8]\n127562: t0 = u64 [sp + 0x4b8]\n127566: t2 = u64 [sp + 0x4a0]\n127570: a3 = u64 [sp + 0x4b0]\n127574: a1 = u64 [sp + 0x2c8]\n127578: a4 = a0 ^ a1\n127581: a5 = a0 <u a1\n127584: t1 = a1\n127586: a2 = u64 [sp + 0x2d0]\n127590: a1 = t2 <u a2\n127593: a5 = a1 if a4 == 0\n127596: a4 = a3 - s1\n127599: a3 = a3 <u s1\n127602: s1 = u64 [sp + 0x2d8]\n127606: s1 = t0 - s1\n127609: s1 = s1 - a3\n127612: a3 = a4 <u a5\n127615: s1 = s1 - a3\n127618: a4 = a4 - a5\n127621: a0 = a0 - t1\n127624: a1 = a0 - a1\n127627: a0 = t2 - a2\n127630: a1 = a1 | s1\n127633: a2 = a0 | a4\n127636: a2 = a2 | a1\n127639: a1 = a1 | a4\n127642: a2 = a2 >> 0x20\n127645: a1 = a1 << 0x20\n127648: a1 = a1 | a2\n127651: jump @1486 if a1 == 0\n      : @1477 (gas: 1)\n127655: trap\n      : @1478 (gas: 8)\n127656: u64 [sp + 848] = 0\n127660: u64 [sp + 840] = 0\n127664: u64 [sp + 832] = 0\n127668: a0 = 0x4e487b7100000000\n127678: a1 = sp + 0x340\n127682: u64 [sp + 0x358] = a0\n127686: a0 = 0\n127688: ra = 1372, jump @23\n      : @1479 [@dyn 686] (gas: 8)\n127695: u64 [sp + 824] = 0\n127699: u64 [sp + 816] = 0\n127703: u64 [sp + 800] = 0x32\n127708: a0 = 0x4\n127711: a1 = sp + 0x320\n127715: u64 [sp + 808] = 0\n127719: ra = 0x562\n127723: jump @23\n      : @1480 (gas: 8)\n127727: u64 [sp + 912] = 0\n127731: u64 [sp + 904] = 0\n127735: u64 [sp + 896] = 0\n127739: a0 = 0x4e487b7100000000\n127749: a1 = sp + 0x380\n127753: u64 [sp + 0x398] = a0\n127757: a0 = 0\n127759: ra = 1374, jump @23\n      : @1481 [@dyn 687] (gas: 8)\n127766: u64 [sp + 888] = 0\n127770: u64 [sp + 880] = 0\n127774: u64 [sp + 864] = 0x32\n127779: a0 = 0x4\n127782: a1 = sp + 0x360\n127786: u64 [sp + 872] = 0\n127790: ra = 0x562\n127794: jump @23\n      : @1482 (gas: 8)\n127798: u64 [sp + 976] = 0\n127802: u64 [sp + 968] = 0\n127806: u64 [sp + 960] = 0\n127810: a0 = 0x4e487b7100000000\n127820: a1 = sp + 0x3c0\n127824: u64 [sp + 0x3d8] = a0\n127828: a0 = 0\n127830: ra = 1376, jump @23\n      : @1483 [@dyn 688] (gas: 7)\n127837: u64 [sp + 952] = 0\n127841: u64 [sp + 944] = 0\n127845: u64 [sp + 928] = 0x41\n127850: a0 = 0x4\n127853: a1 = sp + 0x3a0\n127857: u64 [sp + 936] = 0\n127861: ra = 1378, jump @23\n      : @1484 [@dyn 689] (gas: 3)\n127868: a1 = 0x24\n127871: a0 = 0\n127873: ra = 1380, jump @0\n      : @1485 [@dyn 690] (gas: 5)\n127880: i32 a1 = a0 + 0\n127882: a0 = 0x1\n127885: a2 = 0x24\n127888: ecalli 13 // 'seal_return'\n127890: fallthrough\n      : @1486 (gas: 5)\n127891: i32 s1 = a0 + 0\n127893: a0 = u64 [sp + 0x288]\n127897: a1 = s1\n127899: ra = 0x52c\n127903: jump @0\n      : @1487 (gas: 47)\n127907: sp = sp + 0xfffffffffffffe80\n127911: u64 [sp + 0x178] = ra\n127915: u64 [sp + 0x170] = s0\n127919: u64 [sp + 0x168] = s1\n127923: s0 = sp + 0x180\n127927: sp = sp & 0xffffffffffffffe0\n127930: a3 = u64 [a2 + 0x18]\n127933: u64 [sp] = a3\n127935: a3 = u64 [a2 + 0x10]\n127938: u64 [sp + 0x8] = a3\n127941: a3 = u64 [a2 + 0x8]\n127944: u64 [sp + 0x10] = a3\n127947: a2 = u64 [a2]\n127949: u64 [sp + 0x18] = a2\n127952: a2 = u64 [a1 + 0x18]\n127955: u64 [sp + 0x20] = a2\n127958: a2 = u64 [a1 + 0x10]\n127961: u64 [sp + 0x28] = a2\n127964: a2 = u64 [a1 + 0x8]\n127967: u64 [sp + 0x30] = a2\n127970: a1 = u64 [a1]\n127972: u64 [sp + 0x38] = a1\n127975: a1 = u64 [a0 + 0x18]\n127978: u64 [sp + 0x40] = a1\n127981: a1 = u64 [a0 + 0x10]\n127984: u64 [sp + 0x48] = a1\n127987: a1 = u64 [a0 + 0x8]\n127990: u64 [sp + 0x50] = a1\n127993: a0 = u64 [a0]\n127995: u64 [sp + 0x58] = a0\n127998: u64 [sp + 312] = 0\n128002: u64 [sp + 304] = 0\n128006: u64 [sp + 296] = 0\n128010: s1 = 0x5\n128013: u64 [sp + 0x120] = s1\n128017: u64 [sp + 344] = 0\n128021: u64 [sp + 336] = 0\n128025: u64 [sp + 328] = 0\n128029: u64 [sp + 320] = 0\n128033: u32 [sp + 256] = 0x20\n128038: i32 a1 = sp + 0x120\n128042: i32 a3 = sp + 0x140\n128046: i32 a4 = sp + 0x100\n128050: a2 = 0xffffffffffffffff\n128053: a0 = 0\n128055: ecalli 7 // 'get_storage'\n128057: fallthrough\n      : @1488 (gas: 9)\n128058: a0 = u64 [sp + 0x158]\n128062: a1 = u64 [sp + 0x148]\n128066: a2 = u64 [sp + 0x140]\n128070: a3 = u64 [sp + 0x150]\n128074: a0 = a0 | a1\n128077: a1 = a2 ^ 0x1\n128080: a1 = a1 | a3\n128083: a0 = a0 | a1\n128086: jump @1491 if a0 != 0\n      : @1489 (gas: 92)\n128090: u64 [sp + 312] = 0\n128094: u64 [sp + 304] = 0\n128098: u64 [sp + 296] = 0\n128102: u64 [sp + 288] = 0x5\n128107: u64 [sp + 344] = 0\n128111: u64 [sp + 336] = 0\n128115: u64 [sp + 328] = 0\n128119: u64 [sp + 320] = 0\n128123: u32 [sp + 256] = 0x20\n128128: i32 a1 = sp + 0x120\n128132: i32 a3 = sp + 0x140\n128136: i32 a4 = sp + 0x100\n128140: a2 = 0xffffffffffffffff\n128143: a0 = 0\n128145: ecalli 7 // 'get_storage'\n128147: u64 [sp + 312] = 0\n128151: u64 [sp + 304] = 0\n128155: u64 [sp + 296] = 0\n128159: u64 [sp + 288] = 0x5\n128164: u64 [sp + 344] = 0\n128168: u64 [sp + 336] = 0\n128172: u64 [sp + 328] = 0\n128176: u64 [sp + 320] = 0x2\n128181: i32 a1 = sp + 0x120\n128185: i32 a3 = sp + 0x140\n128189: a2 = 0xffffffffffffffff\n128192: a4 = 0x20\n128195: a0 = 0\n128197: ecalli 15 // 'set_storage'\n128199: a0 = u64 [sp]\n128201: u64 [sp + 0x78] = a0\n128204: a0 = u64 [sp + 0x8]\n128207: u64 [sp + 0x70] = a0\n128210: a0 = u64 [sp + 0x10]\n128213: u64 [sp + 0x68] = a0\n128216: a0 = u64 [sp + 0x18]\n128219: u64 [sp + 0x60] = a0\n128222: a0 = u64 [sp + 0x20]\n128225: u64 [sp + 0x98] = a0\n128229: a0 = u64 [sp + 0x28]\n128232: u64 [sp + 0x90] = a0\n128236: a0 = u64 [sp + 0x30]\n128239: u64 [sp + 0x88] = a0\n128243: a0 = u64 [sp + 0x38]\n128246: u64 [sp + 0x80] = a0\n128250: a0 = u64 [sp + 0x40]\n128253: u64 [sp + 0xb8] = a0\n128257: a0 = u64 [sp + 0x48]\n128260: u64 [sp + 0xb0] = a0\n128264: a0 = u64 [sp + 0x50]\n128267: u64 [sp + 0xa8] = a0\n128271: a0 = sp + 0xa0\n128275: a1 = sp + 0x80\n128279: a2 = sp + 0x60\n128282: a3 = u64 [sp + 0x58]\n128285: u64 [sp + 0xa0] = a3\n128289: ra = 0x566\n128293: sp = sp + 0xfffffffffffffb00\n128297: u64 [sp + 0x4f8] = ra\n128301: u64 [sp + 0x4f0] = s0\n128305: u64 [sp + 1256] = 0x5\n128310: s0 = sp + 0x500\n128314: sp = sp & 0xffffffffffffffe0\n128317: s1 = sp\n128319: a3 = u64 [a2 + 0x18]\n128322: u64 [s1 + 0x78] = a3\n128325: a3 = u64 [a2 + 0x10]\n128328: u64 [s1 + 0x68] = a3\n128331: a3 = u64 [a2 + 0x8]\n128334: u64 [s1 + 0x70] = a3\n128337: a2 = u64 [a2]\n128339: u64 [s1 + 0x60] = a2\n128342: a2 = u64 [a1]\n128344: u64 [s1 + 0x1d8] = a2\n128348: a2 = u64 [a1 + 0x8]\n128351: u64 [s1 + 0x1d0] = a2\n128355: a2 = u64 [a1 + 0x10]\n128358: u64 [s1 + 0x1c8] = a2\n128362: a1 = u64 [a1 + 0x18]\n128365: u64 [s1 + 0x1c0] = a1\n128369: a1 = u64 [a0]\n128371: u64 [s1 + 0x1e0] = a1\n128375: a1 = u64 [a0 + 0x8]\n128378: u64 [s1 + 0x1e8] = a1\n128382: a1 = u64 [a0 + 0x10]\n128385: u64 [s1 + 0x1f0] = a1\n128389: a0 = u64 [a0 + 0x18]\n128392: u64 [s1 + 0x1f8] = a0\n128396: a1 = 0x20\n128399: a0 = 0\n128401: ra = 0x588\n128405: jump @0\n      : @1490 [@dyn 691] (gas: 35)\n128409: u64 [sp + 312] = 0\n128413: u64 [sp + 304] = 0\n128417: u64 [sp + 296] = 0\n128421: u64 [sp + 0x120] = s1\n128425: u64 [sp + 344] = 0\n128429: u64 [sp + 336] = 0\n128433: u64 [sp + 328] = 0\n128437: u64 [sp + 320] = 0\n128441: u32 [sp + 256] = 0x20\n128446: i32 a1 = sp + 0x120\n128450: i32 a3 = sp + 0x140\n128454: i32 a4 = sp + 0x100\n128458: a2 = 0xffffffffffffffff\n128461: a0 = 0\n128463: ecalli 7 // 'get_storage'\n128465: u64 [sp + 312] = 0\n128469: u64 [sp + 304] = 0\n128473: u64 [sp + 296] = 0\n128477: u64 [sp + 0x120] = s1\n128481: u64 [sp + 344] = 0\n128485: u64 [sp + 336] = 0\n128489: u64 [sp + 328] = 0\n128493: u64 [sp + 320] = 0x1\n128498: i32 a1 = sp + 0x120\n128502: i32 a3 = sp + 0x140\n128506: a2 = 0xffffffffffffffff\n128509: a4 = 0x20\n128512: a0 = 0\n128514: ecalli 15 // 'set_storage'\n128516: sp = s0 + 0xfffffffffffffe80\n128520: ra = u64 [sp + 0x178]\n128524: s0 = u64 [sp + 0x170]\n128528: s1 = u64 [sp + 0x168]\n128532: sp = sp + 0x180\n128536: ret\n      : @1491 (gas: 3)\n128538: a0 = 0x40\n128541: a1 = 0x20\n128544: ra = 1384, jump @0\n      : @1492 [@dyn 692] (gas: 103)\n128551: a1 = u8 [a0 + 0x11]\n128554: a2 = u8 [a0 + 0x10]\n128557: a3 = u8 [a0 + 0x12]\n128560: a4 = u8 [a0 + 0x13]\n128563: a1 = a1 << 0x8\n128566: a1 = a1 | a2\n128569: a3 = a3 << 0x10\n128572: a4 = a4 << 0x18\n128575: a3 = a3 | a4\n128578: a1 = a1 | a3\n128581: a2 = u8 [a0 + 0x15]\n128584: a3 = u8 [a0 + 0x14]\n128587: a4 = u8 [a0 + 0x16]\n128590: a5 = u8 [a0 + 0x17]\n128593: a2 = a2 << 0x8\n128596: a2 = a2 | a3\n128599: a4 = a4 << 0x10\n128602: a5 = a5 << 0x18\n128605: a4 = a4 | a5\n128608: a2 = a2 | a4\n128611: a2 = a2 << 0x20\n128614: t0 = a2 | a1\n128617: a2 = u8 [a0 + 0x1]\n128620: a3 = u8 [a0]\n128622: a4 = u8 [a0 + 0x2]\n128625: a5 = u8 [a0 + 0x3]\n128628: a2 = a2 << 0x8\n128631: a2 = a2 | a3\n128634: a4 = a4 << 0x10\n128637: a5 = a5 << 0x18\n128640: a4 = a4 | a5\n128643: a2 = a2 | a4\n128646: a3 = u8 [a0 + 0x5]\n128649: a4 = u8 [a0 + 0x4]\n128652: a5 = u8 [a0 + 0x6]\n128655: s1 = u8 [a0 + 0x7]\n128658: a3 = a3 << 0x8\n128661: a3 = a3 | a4\n128664: a5 = a5 << 0x10\n128667: s1 = s1 << 0x18\n128670: a5 = a5 | s1\n128673: a3 = a3 | a5\n128676: a3 = a3 << 0x20\n128679: a2 = a2 | a3\n128682: a3 = u8 [a0 + 0x19]\n128685: a4 = u8 [a0 + 0x18]\n128688: a5 = u8 [a0 + 0x1a]\n128691: s1 = u8 [a0 + 0x1b]\n128694: a3 = a3 << 0x8\n128697: a3 = a3 | a4\n128700: a5 = a5 << 0x10\n128703: s1 = s1 << 0x18\n128706: a5 = a5 | s1\n128709: a3 = a3 | a5\n128712: a4 = u8 [a0 + 0x1d]\n128715: a5 = u8 [a0 + 0x1c]\n128718: s1 = u8 [a0 + 0x1e]\n128721: a1 = u8 [a0 + 0x1f]\n128724: a4 = a4 << 0x8\n128727: a4 = a4 | a5\n128730: s1 = s1 << 0x10\n128733: a1 = a1 << 0x18\n128736: a1 = a1 | s1\n128739: a1 = a1 | a4\n128742: a1 = a1 << 0x20\n128745: a3 = a3 | a1\n128748: a1 = u8 [a0 + 0x9]\n128751: a4 = u8 [a0 + 0x8]\n128754: a5 = u8 [a0 + 0xa]\n128757: s1 = u8 [a0 + 0xb]\n128760: a1 = a1 << 0x8\n128763: a1 = a1 | a4\n128766: a5 = a5 << 0x10\n128769: s1 = s1 << 0x18\n128772: a5 = a5 | s1\n128775: a1 = a1 | a5\n128778: a4 = u8 [a0 + 0xd]\n128781: a5 = u8 [a0 + 0xc]\n128784: s1 = u8 [a0 + 0xe]\n128787: a0 = u8 [a0 + 0xf]\n128790: a4 = a4 << 0x8\n128793: a4 = a4 | a5\n128796: s1 = s1 << 0x10\n128799: a0 = a0 << 0x18\n128802: a0 = a0 | s1\n128805: a0 = a0 | a4\n128808: a0 = a0 << 0x20\n128811: a0 = a0 | a1\n128814: s1 = reverse a0\n128816: a1 = reverse a3\n128818: a2 = reverse a2\n128820: a0 = reverse t0\n128822: u64 [sp + 0x58] = a0\n128825: u64 [sp + 0x50] = a2\n128828: a0 = a0 | a2\n128831: a2 = a1\n128833: a1 = a1 | s1\n128836: a1 = a1 | a0\n128839: a1 = a1 >> 0x20\n128842: a0 = a0 | s1\n128845: a0 = a0 << 0x20\n128848: a0 = a0 | a1\n128851: jump @1496 if a0 != 0\n      : @1493 (gas: 5)\n128855: u64 [sp + 0x48] = a2\n128858: i32 a0 = a2 + 0\n128860: a1 = 0x20\n128863: u64 [sp + 0x40] = a0\n128866: ra = 1386, jump @0\n      : @1494 [@dyn 693] (gas: 50)\n128873: u8 [a0 + 31] = 0\n128876: u8 [a0 + 30] = 0\n128879: u8 [a0 + 29] = 0\n128882: u8 [a0 + 28] = 0\n128885: u8 [a0 + 27] = 0\n128888: u8 [a0 + 26] = 0\n128891: u8 [a0 + 25] = 0\n128894: u8 [a0 + 24] = 0\n128897: u8 [a0 + 23] = 0\n128900: u8 [a0 + 22] = 0\n128903: u8 [a0 + 21] = 0\n128906: u8 [a0 + 20] = 0\n128909: u8 [a0 + 19] = 0\n128912: u8 [a0 + 18] = 0\n128915: u8 [a0 + 17] = 0\n128918: u8 [a0 + 16] = 0\n128921: u8 [a0 + 15] = 0\n128924: u8 [a0 + 14] = 0\n128927: u8 [a0 + 13] = 0\n128930: u8 [a0 + 12] = 0\n128933: u8 [a0 + 11] = 0\n128936: u8 [a0 + 10] = 0\n128939: u8 [a0 + 9] = 0\n128942: u8 [a0 + 8] = 0\n128945: u8 [a0 + 7] = 0\n128948: u8 [a0 + 6] = 0\n128951: u8 [a0 + 5] = 0\n128954: u8 [a0 + 4] = 0\n128957: u8 [a0 + 3] = 0xa0\n128962: u8 [a0 + 2] = 0x79\n128966: u8 [a0 + 1] = 0xc3\n128971: u8 [a0 + 0] = 0x8\n128974: a1 = u64 [sp + 0x48]\n128977: a0 = a1 + 0x4\n128980: a1 = a0 <u a1\n128983: a3 = u64 [sp + 0x58]\n128986: a2 = a3 + a1\n128989: a3 = a2 <u a3\n128992: a3 = a1 if a1 == 0\n128995: a3 = a3 + s1\n128998: a1 = a3 <u s1\n129001: a4 = u64 [sp + 0x50]\n129004: a4 = a4 + a1\n129007: u64 [sp + 0xc8] = a2\n129011: u64 [sp + 0xc0] = a0\n129015: u64 [sp + 0xd0] = a3\n129019: a0 = sp + 0xe0\n129023: a1 = sp + 0xc0\n129027: u64 [sp + 0xd8] = a4\n129031: ra = 1388, jump @580\n      : @1495 [@dyn 694] (gas: 30)\n129038: a0 = u64 [sp + 0xe8]\n129042: t0 = u64 [sp + 0xf8]\n129046: t1 = u64 [sp + 0xe0]\n129050: a3 = u64 [sp + 0xf0]\n129054: a1 = u64 [sp + 0x58]\n129057: a4 = a0 ^ a1\n129060: a5 = a0 <u a1\n129063: t2 = a1\n129065: a2 = u64 [sp + 0x48]\n129068: a1 = t1 <u a2\n129071: a5 = a1 if a4 == 0\n129074: a4 = a3 - s1\n129077: a3 = a3 <u s1\n129080: s1 = u64 [sp + 0x50]\n129083: s1 = t0 - s1\n129086: s1 = s1 - a3\n129089: a3 = a4 <u a5\n129092: s1 = s1 - a3\n129095: a4 = a4 - a5\n129098: a0 = a0 - t2\n129101: a1 = a0 - a1\n129104: a0 = t1 - a2\n129107: a1 = a1 | s1\n129110: a2 = a0 | a4\n129113: a2 = a2 | a1\n129116: a1 = a1 | a4\n129119: a2 = a2 >> 0x20\n129122: a1 = a1 << 0x20\n129125: a1 = a1 | a2\n129128: jump @1497 if a1 == 0\n      : @1496 (gas: 1)\n129131: trap\n      : @1497 (gas: 4)\n129132: i32 s1 = a0 + 0\n129134: a0 = u64 [sp + 0x40]\n129137: a1 = s1\n129139: ra = 1390, jump @0\n      : @1498 [@dyn 695] (gas: 6)\n129146: i32 a1 = a0 + 0\n129148: a0 = 0x1\n129151: a2 = s1\n129153: ra = 0x570\n129157: ecalli 13 // 'seal_return'\n129159: fallthrough\n      : @1499 [@dyn 696] (gas: 12)\n129160: a1 = u64 [a0 + 0x10]\n129163: a2 = u64 [a0 + 0x18]\n129166: a3 = u64 [a0 + 0x8]\n129169: a0 = u64 [a0]\n129171: a2 = a2 | a3\n129174: a3 = a0 | a1\n129177: a3 = a3 | a2\n129180: a3 = a3 >> 0x20\n129183: a1 = a1 | a2\n129186: a1 = a1 << 0x20\n129189: a1 = a1 | a3\n129192: jump @1502 if a1 != 0\n      : @1500 (gas: 7)\n129196: sp = sp + 0xfffffffffffffff0\n129199: u64 [sp + 0x8] = ra\n129202: u64 [sp] = s0\n129204: i32 a0 = a0 + 0\n129206: a1 = 0x20\n129209: s0 = 0x20\n129212: ra = 1394, jump @0\n      : @1501 [@dyn 697] (gas: 40)\n129219: u8 [a0 + 31] = 0\n129222: u8 [a0 + 30] = 0\n129225: u8 [a0 + 29] = 0\n129228: u8 [a0 + 28] = 0\n129231: u8 [a0 + 27] = 0\n129234: u8 [a0 + 26] = 0\n129237: u8 [a0 + 25] = 0\n129240: u8 [a0 + 24] = 0\n129243: u8 [a0 + 23] = 0\n129246: u8 [a0 + 22] = 0\n129249: u8 [a0 + 21] = 0\n129252: u8 [a0 + 20] = 0x65\n129256: u8 [a0 + 19] = 0x74\n129260: u8 [a0 + 18] = 0x61\n129264: u8 [a0 + 17] = 0x74\n129268: u8 [a0 + 16] = 0x73\n129272: u8 [a0 + 0xf] = s0\n129275: u8 [a0 + 14] = 0x64\n129279: a3 = 0x69\n129282: u8 [a0 + 0xd] = a3\n129285: a4 = 0x6c\n129288: u8 [a0 + 0xc] = a4\n129291: u8 [a0 + 11] = 0x61\n129295: u8 [a0 + 10] = 0x76\n129299: u8 [a0 + 9] = 0x6e\n129303: u8 [a0 + 0x8] = a3\n129306: u8 [a0 + 0x7] = s0\n129309: u8 [a0 + 6] = 0x3a\n129313: u8 [a0 + 5] = 0x77\n129317: u8 [a0 + 4] = 0x6f\n129321: u8 [a0 + 3] = 0x72\n129325: a2 = 0x63\n129328: u8 [a0 + 0x2] = a2\n129331: u8 [a0 + 1] = 0x73\n129335: a1 = 0x45\n129338: u8 [a0] = a1\n129340: ra = u64 [sp + 0x8]\n129343: s0 = u64 [sp]\n129345: sp = sp + 0x10\n129348: ret\n      : @1502 (gas: 1)\n129350: trap\n      : @1503 (gas: 17)\n129351: sp = sp + 0xffffffffffffffa0\n129354: u64 [sp + 0x58] = ra\n129357: u64 [sp + 0x50] = s0\n129360: u64 [sp + 0x48] = s1\n129363: a3 = u64 [a1 + 0x18]\n129366: a4 = u64 [a1 + 0x10]\n129369: a5 = u64 [a1 + 0x8]\n129372: s1 = u64 [a1]\n129374: a1 = a5 | a3\n129377: a2 = s1 | a4\n129380: a2 = a2 | a1\n129383: a2 = a2 >> 0x20\n129386: a1 = a1 | a4\n129389: a1 = a1 << 0x20\n129392: a1 = a1 | a2\n129395: u64 [sp + 0x28] = a0\n129398: jump @1510 if a1 != 0\n      : @1504 (gas: 19)\n129402: a0 = s1 + 0x20\n129405: u64 [sp + 0x30] = a0\n129408: a0 = a0 <u s1\n129411: a1 = a5 + a0\n129414: u64 [sp + 0x40] = a1\n129417: u64 [sp + 0x8] = a5\n129420: s0 = a1 <u a5\n129423: s0 = a0 if a0 == 0\n129426: s0 = s0 + a4\n129429: u64 [sp + 0x10] = a4\n129432: a0 = s0 <u a4\n129435: u64 [sp + 0x18] = a3\n129438: a0 = a0 + a3\n129441: u64 [sp + 0x38] = a0\n129444: u64 [sp] = s1\n129446: i32 a0 = s1 + 0\n129448: a1 = 0x20\n129451: s1 = 0x20\n129454: ra = 1396, jump @0\n      : @1505 [@dyn 698] (gas: 45)\n129461: u8 [a0 + 0x1f] = s1\n129464: a1 = u64 [sp + 0x30]\n129467: s1 = a1\n129469: a1 = a1 | s0\n129472: a2 = u64 [sp + 0x40]\n129475: a4 = u64 [sp + 0x38]\n129478: a2 = a2 | a4\n129481: a1 = a1 | a2\n129484: a1 = a1 >> 0x20\n129487: u64 [sp + 0x20] = s0\n129490: a2 = a2 | s0\n129493: a2 = a2 << 0x20\n129496: a1 = a1 | a2\n129499: u8 [a0 + 30] = 0\n129502: u8 [a0 + 29] = 0\n129505: u8 [a0 + 28] = 0\n129508: u8 [a0 + 27] = 0\n129511: u8 [a0 + 26] = 0\n129514: u8 [a0 + 25] = 0\n129517: u8 [a0 + 24] = 0\n129520: u8 [a0 + 23] = 0\n129523: u8 [a0 + 22] = 0\n129526: u8 [a0 + 21] = 0\n129529: u8 [a0 + 20] = 0\n129532: u8 [a0 + 19] = 0\n129535: u8 [a0 + 18] = 0\n129538: u8 [a0 + 17] = 0\n129541: u8 [a0 + 16] = 0\n129544: u8 [a0 + 15] = 0\n129547: u8 [a0 + 14] = 0\n129550: u8 [a0 + 13] = 0\n129553: u8 [a0 + 12] = 0\n129556: u8 [a0 + 11] = 0\n129559: u8 [a0 + 10] = 0\n129562: u8 [a0 + 9] = 0\n129565: u8 [a0 + 8] = 0\n129568: u8 [a0 + 7] = 0\n129571: u8 [a0 + 6] = 0\n129574: u8 [a0 + 5] = 0\n129577: u8 [a0 + 4] = 0\n129580: u8 [a0 + 3] = 0\n129583: u8 [a0 + 2] = 0\n129586: u8 [a0 + 1] = 0\n129589: u8 [a0 + 0] = 0\n129591: jump @1510 if a1 != 0\n      : @1506 (gas: 4)\n129595: i32 s0 = s1 + 0\n129597: a1 = 0x20\n129600: a0 = s0\n129602: ra = 1398, jump @0\n      : @1507 [@dyn 699] (gas: 41)\n129609: u8 [a0 + 31] = 0x15\n129613: u8 [a0 + 30] = 0\n129616: u8 [a0 + 29] = 0\n129619: u8 [a0 + 28] = 0\n129622: u8 [a0 + 27] = 0\n129625: u8 [a0 + 26] = 0\n129628: u8 [a0 + 25] = 0\n129631: u8 [a0 + 24] = 0\n129634: u8 [a0 + 23] = 0\n129637: u8 [a0 + 22] = 0\n129640: u8 [a0 + 21] = 0\n129643: u8 [a0 + 20] = 0\n129646: u8 [a0 + 19] = 0\n129649: u8 [a0 + 18] = 0\n129652: u8 [a0 + 17] = 0\n129655: u8 [a0 + 16] = 0\n129658: u8 [a0 + 15] = 0\n129661: u8 [a0 + 14] = 0\n129664: u8 [a0 + 13] = 0\n129667: u8 [a0 + 12] = 0\n129670: u8 [a0 + 11] = 0\n129673: u8 [a0 + 10] = 0\n129676: u8 [a0 + 9] = 0\n129679: u8 [a0 + 8] = 0\n129682: u8 [a0 + 7] = 0\n129685: u8 [a0 + 6] = 0\n129688: u8 [a0 + 5] = 0\n129691: u8 [a0 + 4] = 0\n129694: u8 [a0 + 3] = 0\n129697: u8 [a0 + 2] = 0\n129700: u8 [a0 + 1] = 0\n129703: a1 = u64 [sp + 0x20]\n129706: a2 = u64 [sp + 0x38]\n129709: a1 = a1 | a2\n129712: a2 = 0xffffffe0\n129722: a2 = s1 <u a2\n129725: a3 = u64 [sp + 0x40]\n129728: a2 = 0 if a3 != 0\n129730: a2 = 0 if a1 != 0\n129732: u8 [a0 + 0] = 0\n129734: jump @1510 if a2 == 0\n      : @1508 (gas: 3)\n129738: i32 a0 = s0 + 0x20\n129741: a1 = 0x20\n129744: ra = 1400, jump @0\n      : @1509 [@dyn 700] (gas: 55)\n129751: u8 [a0 + 31] = 0\n129754: u8 [a0 + 30] = 0\n129757: u8 [a0 + 29] = 0\n129760: u8 [a0 + 28] = 0\n129763: u8 [a0 + 27] = 0\n129766: u8 [a0 + 26] = 0\n129769: u8 [a0 + 25] = 0\n129772: u8 [a0 + 24] = 0\n129775: u8 [a0 + 23] = 0\n129778: u8 [a0 + 22] = 0\n129781: u8 [a0 + 21] = 0\n129784: u8 [a0 + 20] = 0x65\n129788: u8 [a0 + 19] = 0x74\n129792: u8 [a0 + 18] = 0x61\n129796: u8 [a0 + 17] = 0x74\n129800: u8 [a0 + 16] = 0x73\n129804: a5 = 0x20\n129807: u8 [a0 + 0xf] = a5\n129810: u8 [a0 + 14] = 0x64\n129814: u8 [a0 + 13] = 0x69\n129818: u8 [a0 + 12] = 0x6c\n129822: u8 [a0 + 11] = 0x61\n129826: u8 [a0 + 10] = 0x76\n129830: u8 [a0 + 9] = 0x6e\n129834: u8 [a0 + 8] = 0x69\n129838: u8 [a0 + 0x7] = a5\n129841: u8 [a0 + 6] = 0x3a\n129845: u8 [a0 + 5] = 0x77\n129849: u8 [a0 + 4] = 0x6f\n129853: u8 [a0 + 3] = 0x72\n129857: u8 [a0 + 2] = 0x63\n129861: u8 [a0 + 1] = 0x73\n129865: u8 [a0 + 0] = 0x45\n129868: a1 = u64 [sp]\n129870: a0 = a1 + 0x60\n129873: a1 = a0 <u a1\n129876: a3 = u64 [sp + 0x8]\n129879: a2 = a3 + a1\n129882: a3 = a2 <u a3\n129885: a3 = a1 if a1 == 0\n129888: a1 = u64 [sp + 0x10]\n129891: a3 = a3 + a1\n129894: a1 = a3 <u a1\n129897: a4 = u64 [sp + 0x18]\n129900: a1 = a1 + a4\n129903: a4 = u64 [sp + 0x28]\n129906: u64 [a4] = a0\n129908: u64 [a4 + 0x8] = a2\n129911: u64 [a4 + 0x10] = a3\n129914: u64 [a4 + 0x18] = a1\n129917: ra = u64 [sp + 0x58]\n129920: s0 = u64 [sp + 0x50]\n129923: s1 = u64 [sp + 0x48]\n129926: sp = sp + 0x60\n129929: ret\n      : @1510 (gas: 1)\n129931: trap\n      : @1511 (gas: 17)\n129932: sp = sp + 0xffffffffffffffa0\n129935: u64 [sp + 0x58] = ra\n129938: u64 [sp + 0x50] = s0\n129941: u64 [sp + 0x48] = s1\n129944: a3 = u64 [a1 + 0x18]\n129947: a4 = u64 [a1 + 0x10]\n129950: a5 = u64 [a1 + 0x8]\n129953: s1 = u64 [a1]\n129955: a1 = a5 | a3\n129958: a2 = s1 | a4\n129961: a2 = a2 | a1\n129964: a2 = a2 >> 0x20\n129967: a1 = a1 | a4\n129970: a1 = a1 << 0x20\n129973: a1 = a1 | a2\n129976: u64 [sp + 0x28] = a0\n129979: jump @1518 if a1 != 0\n      : @1512 (gas: 19)\n129983: a0 = s1 + 0x20\n129986: u64 [sp + 0x30] = a0\n129989: a0 = a0 <u s1\n129992: a1 = a5 + a0\n129995: u64 [sp + 0x40] = a1\n129998: u64 [sp + 0x8] = a5\n130001: s0 = a1 <u a5\n130004: s0 = a0 if a0 == 0\n130007: s0 = s0 + a4\n130010: u64 [sp + 0x10] = a4\n130013: a0 = s0 <u a4\n130016: u64 [sp + 0x18] = a3\n130019: a0 = a0 + a3\n130022: u64 [sp + 0x38] = a0\n130025: u64 [sp] = s1\n130027: i32 a0 = s1 + 0\n130029: a1 = 0x20\n130032: s1 = 0x20\n130035: ra = 1402, jump @0\n      : @1513 [@dyn 701] (gas: 45)\n130042: u8 [a0 + 0x1f] = s1\n130045: a1 = u64 [sp + 0x30]\n130048: s1 = a1\n130050: a1 = a1 | s0\n130053: a2 = u64 [sp + 0x40]\n130056: a4 = u64 [sp + 0x38]\n130059: a2 = a2 | a4\n130062: a1 = a1 | a2\n130065: a1 = a1 >> 0x20\n130068: u64 [sp + 0x20] = s0\n130071: a2 = a2 | s0\n130074: a2 = a2 << 0x20\n130077: a1 = a1 | a2\n130080: u8 [a0 + 30] = 0\n130083: u8 [a0 + 29] = 0\n130086: u8 [a0 + 28] = 0\n130089: u8 [a0 + 27] = 0\n130092: u8 [a0 + 26] = 0\n130095: u8 [a0 + 25] = 0\n130098: u8 [a0 + 24] = 0\n130101: u8 [a0 + 23] = 0\n130104: u8 [a0 + 22] = 0\n130107: u8 [a0 + 21] = 0\n130110: u8 [a0 + 20] = 0\n130113: u8 [a0 + 19] = 0\n130116: u8 [a0 + 18] = 0\n130119: u8 [a0 + 17] = 0\n130122: u8 [a0 + 16] = 0\n130125: u8 [a0 + 15] = 0\n130128: u8 [a0 + 14] = 0\n130131: u8 [a0 + 13] = 0\n130134: u8 [a0 + 12] = 0\n130137: u8 [a0 + 11] = 0\n130140: u8 [a0 + 10] = 0\n130143: u8 [a0 + 9] = 0\n130146: u8 [a0 + 8] = 0\n130149: u8 [a0 + 7] = 0\n130152: u8 [a0 + 6] = 0\n130155: u8 [a0 + 5] = 0\n130158: u8 [a0 + 4] = 0\n130161: u8 [a0 + 3] = 0\n130164: u8 [a0 + 2] = 0\n130167: u8 [a0 + 1] = 0\n130170: u8 [a0 + 0] = 0\n130172: jump @1518 if a1 != 0\n      : @1514 (gas: 4)\n130176: i32 s0 = s1 + 0\n130178: a1 = 0x20\n130181: a0 = s0\n130183: ra = 1404, jump @0\n      : @1515 [@dyn 702] (gas: 41)\n130190: u8 [a0 + 31] = 0x1c\n130194: u8 [a0 + 30] = 0\n130197: u8 [a0 + 29] = 0\n130200: u8 [a0 + 28] = 0\n130203: u8 [a0 + 27] = 0\n130206: u8 [a0 + 26] = 0\n130209: u8 [a0 + 25] = 0\n130212: u8 [a0 + 24] = 0\n130215: u8 [a0 + 23] = 0\n130218: u8 [a0 + 22] = 0\n130221: u8 [a0 + 21] = 0\n130224: u8 [a0 + 20] = 0\n130227: u8 [a0 + 19] = 0\n130230: u8 [a0 + 18] = 0\n130233: u8 [a0 + 17] = 0\n130236: u8 [a0 + 16] = 0\n130239: u8 [a0 + 15] = 0\n130242: u8 [a0 + 14] = 0\n130245: u8 [a0 + 13] = 0\n130248: u8 [a0 + 12] = 0\n130251: u8 [a0 + 11] = 0\n130254: u8 [a0 + 10] = 0\n130257: u8 [a0 + 9] = 0\n130260: u8 [a0 + 8] = 0\n130263: u8 [a0 + 7] = 0\n130266: u8 [a0 + 6] = 0\n130269: u8 [a0 + 5] = 0\n130272: u8 [a0 + 4] = 0\n130275: u8 [a0 + 3] = 0\n130278: u8 [a0 + 2] = 0\n130281: u8 [a0 + 1] = 0\n130284: a1 = u64 [sp + 0x20]\n130287: a2 = u64 [sp + 0x38]\n130290: a1 = a1 | a2\n130293: a2 = 0xffffffe0\n130303: a2 = s1 <u a2\n130306: a3 = u64 [sp + 0x40]\n130309: a2 = 0 if a3 != 0\n130311: a2 = 0 if a1 != 0\n130313: u8 [a0 + 0] = 0\n130315: jump @1518 if a2 == 0\n      : @1516 (gas: 3)\n130319: i32 a0 = s0 + 0x20\n130322: a1 = 0x20\n130325: ra = 1406, jump @0\n      : @1517 [@dyn 703] (gas: 54)\n130332: u8 [a0 + 25] = 0x6c\n130336: u8 [a0 + 19] = 0x64\n130340: u8 [a0 + 18] = 0x6e\n130344: u8 [a0 + 13] = 0x65\n130348: u8 [a0 + 21] = 0x74\n130352: u8 [a0 + 12] = 0x74\n130356: u8 [a0 + 11] = 0x69\n130360: u8 [a0 + 16] = 0x62\n130364: u8 [a0 + 10] = 0x62\n130368: u8 [a0 + 8] = 0x61\n130372: u8 [a0 + 31] = 0\n130375: u8 [a0 + 30] = 0\n130378: u8 [a0 + 29] = 0\n130381: u8 [a0 + 28] = 0\n130384: u8 [a0 + 24] = 0x20\n130388: u8 [a0 + 20] = 0x20\n130392: u8 [a0 + 15] = 0x20\n130396: u8 [a0 + 7] = 0x20\n130400: u8 [a0 + 6] = 0x3a\n130404: u8 [a0 + 27] = 0x77\n130408: u8 [a0 + 5] = 0x77\n130412: u8 [a0 + 26] = 0x6f\n130416: u8 [a0 + 23] = 0x6f\n130420: u8 [a0 + 22] = 0x6f\n130424: u8 [a0 + 17] = 0x6f\n130428: u8 [a0 + 4] = 0x6f\n130432: u8 [a0 + 14] = 0x72\n130436: u8 [a0 + 9] = 0x72\n130440: u8 [a0 + 3] = 0x72\n130444: u8 [a0 + 2] = 0x63\n130448: u8 [a0 + 1] = 0x73\n130452: u8 [a0 + 0] = 0x45\n130455: a1 = u64 [sp]\n130457: a0 = a1 + 0x60\n130460: a1 = a0 <u a1\n130463: a3 = u64 [sp + 0x8]\n130466: a2 = a3 + a1\n130469: a3 = a2 <u a3\n130472: a3 = a1 if a1 == 0\n130475: a1 = u64 [sp + 0x10]\n130478: a3 = a3 + a1\n130481: a1 = a3 <u a1\n130484: a4 = u64 [sp + 0x18]\n130487: a1 = a1 + a4\n130490: a4 = u64 [sp + 0x28]\n130493: u64 [a4] = a0\n130495: u64 [a4 + 0x8] = a2\n130498: u64 [a4 + 0x10] = a3\n130501: u64 [a4 + 0x18] = a1\n130504: ra = u64 [sp + 0x58]\n130507: s0 = u64 [sp + 0x50]\n130510: s1 = u64 [sp + 0x48]\n130513: sp = sp + 0x60\n130516: ret\n      : @1518 (gas: 1)\n130518: trap\n      : @1519 (gas: 17)\n130519: sp = sp + 0xffffffffffffffa0\n130522: u64 [sp + 0x58] = ra\n130525: u64 [sp + 0x50] = s0\n130528: u64 [sp + 0x48] = s1\n130531: a3 = u64 [a1 + 0x18]\n130534: a4 = u64 [a1 + 0x10]\n130537: a5 = u64 [a1 + 0x8]\n130540: s1 = u64 [a1]\n130542: a1 = a5 | a3\n130545: a2 = s1 | a4\n130548: a2 = a2 | a1\n130551: a2 = a2 >> 0x20\n130554: a1 = a1 | a4\n130557: a1 = a1 << 0x20\n130560: a1 = a1 | a2\n130563: u64 [sp + 0x20] = a0\n130566: jump @1528 if a1 != 0\n      : @1520 (gas: 19)\n130570: a0 = s1 + 0x20\n130573: u64 [sp + 0x38] = a0\n130576: a0 = a0 <u s1\n130579: a1 = a5 + a0\n130582: u64 [sp + 0x40] = a1\n130585: u64 [sp + 0x8] = a5\n130588: s0 = a1 <u a5\n130591: s0 = a0 if a0 == 0\n130594: s0 = s0 + a4\n130597: u64 [sp + 0x10] = a4\n130600: a0 = s0 <u a4\n130603: u64 [sp + 0x18] = a3\n130606: a0 = a0 + a3\n130609: u64 [sp + 0x30] = a0\n130612: u64 [sp] = s1\n130614: i32 a0 = s1 + 0\n130616: a1 = 0x20\n130619: s1 = 0x20\n130622: ra = 1408, jump @0\n      : @1521 [@dyn 704] (gas: 43)\n130629: u8 [a0 + 0x1f] = s1\n130632: a1 = u64 [sp + 0x38]\n130635: a1 = a1 | s0\n130638: a2 = u64 [sp + 0x40]\n130641: a3 = u64 [sp + 0x30]\n130644: a2 = a2 | a3\n130647: a1 = a1 | a2\n130650: a1 = a1 >> 0x20\n130653: a2 = a2 | s0\n130656: a2 = a2 << 0x20\n130659: a1 = a1 | a2\n130662: u8 [a0 + 30] = 0\n130665: u8 [a0 + 29] = 0\n130668: u8 [a0 + 28] = 0\n130671: u8 [a0 + 27] = 0\n130674: u8 [a0 + 26] = 0\n130677: u8 [a0 + 25] = 0\n130680: u8 [a0 + 24] = 0\n130683: u8 [a0 + 23] = 0\n130686: u8 [a0 + 22] = 0\n130689: u8 [a0 + 21] = 0\n130692: u8 [a0 + 20] = 0\n130695: u8 [a0 + 19] = 0\n130698: u8 [a0 + 18] = 0\n130701: u8 [a0 + 17] = 0\n130704: u8 [a0 + 16] = 0\n130707: u8 [a0 + 15] = 0\n130710: u8 [a0 + 14] = 0\n130713: u8 [a0 + 13] = 0\n130716: u8 [a0 + 12] = 0\n130719: u8 [a0 + 11] = 0\n130722: u8 [a0 + 10] = 0\n130725: u8 [a0 + 9] = 0\n130728: u8 [a0 + 8] = 0\n130731: u8 [a0 + 7] = 0\n130734: u8 [a0 + 6] = 0\n130737: u8 [a0 + 5] = 0\n130740: u8 [a0 + 4] = 0\n130743: u8 [a0 + 3] = 0\n130746: u8 [a0 + 2] = 0\n130749: u8 [a0 + 1] = 0\n130752: u8 [a0 + 0] = 0\n130754: jump @1528 if a1 != 0\n      : @1522 (gas: 6)\n130758: s1 = s0\n130760: s0 = u64 [sp + 0x38]\n130763: i32 a0 = s0 + 0\n130765: a1 = 0x20\n130768: u64 [sp + 0x28] = a0\n130771: ra = 1410, jump @0\n      : @1523 [@dyn 705] (gas: 42)\n130778: u8 [a0 + 31] = 0x23\n130782: u8 [a0 + 30] = 0\n130785: u8 [a0 + 29] = 0\n130788: u8 [a0 + 28] = 0\n130791: u8 [a0 + 27] = 0\n130794: u8 [a0 + 26] = 0\n130797: u8 [a0 + 25] = 0\n130800: u8 [a0 + 24] = 0\n130803: u8 [a0 + 23] = 0\n130806: u8 [a0 + 22] = 0\n130809: u8 [a0 + 21] = 0\n130812: u8 [a0 + 20] = 0\n130815: u8 [a0 + 19] = 0\n130818: u8 [a0 + 18] = 0\n130821: u8 [a0 + 17] = 0\n130824: u8 [a0 + 16] = 0\n130827: u8 [a0 + 15] = 0\n130830: u8 [a0 + 14] = 0\n130833: u8 [a0 + 13] = 0\n130836: u8 [a0 + 12] = 0\n130839: u8 [a0 + 11] = 0\n130842: u8 [a0 + 10] = 0\n130845: u8 [a0 + 9] = 0\n130848: u8 [a0 + 8] = 0\n130851: u8 [a0 + 7] = 0\n130854: u8 [a0 + 6] = 0\n130857: u8 [a0 + 5] = 0\n130860: u8 [a0 + 4] = 0\n130863: u8 [a0 + 3] = 0\n130866: u8 [a0 + 2] = 0\n130869: u8 [a0 + 1] = 0\n130872: a1 = u64 [sp + 0x30]\n130875: a2 = s1 | a1\n130878: s1 = 0x100000000\n130888: a1 = 0xffffffe0\n130898: a1 = s0 <u a1\n130901: s0 = a2\n130903: a2 = u64 [sp + 0x40]\n130906: a1 = 0 if a2 != 0\n130908: a1 = 0 if s0 != 0\n130910: u8 [a0 + 0] = 0\n130912: jump @1528 if a1 == 0\n      : @1524 (gas: 4)\n130916: a0 = u64 [sp + 0x28]\n130919: i32 a0 = a0 + 0x20\n130922: a1 = 0x20\n130925: ra = 1412, jump @0\n      : @1525 [@dyn 706] (gas: 41)\n130932: u8 [a0 + 28] = 0x66\n130936: u8 [a0 + 27] = 0x66\n130940: u8 [a0 + 26] = 0x75\n130944: u8 [a0 + 20] = 0x6b\n130948: u8 [a0 + 19] = 0x61\n130952: u8 [a0 + 13] = 0x64\n130956: u8 [a0 + 31] = 0x69\n130960: u8 [a0 + 29] = 0x69\n130964: u8 [a0 + 23] = 0x69\n130968: u8 [a0 + 12] = 0x69\n130972: u8 [a0 + 11] = 0x76\n130976: u8 [a0 + 8] = 0x70\n130980: u8 [a0 + 22] = 0x20\n130984: u8 [a0 + 16] = 0x20\n130988: u8 [a0 + 7] = 0x20\n130992: u8 [a0 + 6] = 0x3a\n130996: u8 [a0 + 5] = 0x77\n131000: u8 [a0 + 10] = 0x6f\n131004: u8 [a0 + 4] = 0x6f\n131008: u8 [a0 + 15] = 0x72\n131012: u8 [a0 + 9] = 0x72\n131016: u8 [a0 + 3] = 0x72\n131020: u8 [a0 + 30] = 0x63\n131024: u8 [a0 + 2] = 0x63\n131028: u8 [a0 + 25] = 0x73\n131032: u8 [a0 + 17] = 0x73\n131036: u8 [a0 + 1] = 0x73\n131040: u8 [a0 + 0] = 0x45\n131043: a1 = s1 + 0xffffffffffffffc0\n131046: a2 = u64 [sp + 0x38]\n131049: a1 = a2 <u a1\n131052: u8 [a0 + 24] = 0x6e\n131056: a2 = u64 [sp + 0x40]\n131059: a1 = 0 if a2 != 0\n131061: s1 = 0x65\n131064: u8 [a0 + 0x15] = s1\n131067: a1 = 0 if s0 != 0\n131069: s0 = 0x74\n131072: u8 [a0 + 0x12] = s0\n131075: u8 [a0 + 0xe] = s1\n131078: jump @1528 if a1 == 0\n      : @1526 (gas: 4)\n131082: a0 = u64 [sp + 0x28]\n131085: i32 a0 = a0 + 0x40\n131088: a1 = 0x20\n131091: ra = 1414, jump @0\n      : @1527 [@dyn 707] (gas: 54)\n131098: u8 [a0 + 31] = 0\n131101: u8 [a0 + 30] = 0\n131104: u8 [a0 + 29] = 0\n131107: u8 [a0 + 28] = 0\n131110: u8 [a0 + 27] = 0\n131113: u8 [a0 + 26] = 0\n131116: u8 [a0 + 25] = 0\n131119: u8 [a0 + 24] = 0\n131122: u8 [a0 + 23] = 0\n131125: u8 [a0 + 22] = 0\n131128: u8 [a0 + 21] = 0\n131131: u8 [a0 + 20] = 0\n131134: u8 [a0 + 19] = 0\n131137: u8 [a0 + 18] = 0\n131140: u8 [a0 + 17] = 0\n131143: u8 [a0 + 16] = 0\n131146: u8 [a0 + 15] = 0\n131149: u8 [a0 + 14] = 0\n131152: u8 [a0 + 13] = 0\n131155: u8 [a0 + 12] = 0\n131158: u8 [a0 + 11] = 0\n131161: u8 [a0 + 10] = 0\n131164: u8 [a0 + 9] = 0\n131167: u8 [a0 + 8] = 0\n131170: u8 [a0 + 7] = 0\n131173: u8 [a0 + 6] = 0\n131176: u8 [a0 + 5] = 0\n131179: u8 [a0 + 4] = 0\n131182: u8 [a0 + 3] = 0\n131185: u8 [a0 + 0x2] = s0\n131188: u8 [a0 + 1] = 0x6e\n131192: u8 [a0] = s1\n131194: a1 = u64 [sp]\n131196: a0 = a1 + 0x80\n131200: a1 = a0 <u a1\n131203: a3 = u64 [sp + 0x8]\n131206: a2 = a3 + a1\n131209: a3 = a2 <u a3\n131212: a3 = a1 if a1 == 0\n131215: a1 = u64 [sp + 0x10]\n131218: a3 = a3 + a1\n131221: a1 = a3 <u a1\n131224: a4 = u64 [sp + 0x18]\n131227: a1 = a1 + a4\n131230: a4 = u64 [sp + 0x20]\n131233: u64 [a4] = a0\n131235: u64 [a4 + 0x8] = a2\n131238: u64 [a4 + 0x10] = a3\n131241: u64 [a4 + 0x18] = a1\n131244: ra = u64 [sp + 0x58]\n131247: s0 = u64 [sp + 0x50]\n131250: s1 = u64 [sp + 0x48]\n131253: sp = sp + 0x60\n131256: ret\n      : @1528 (gas: 1)\n131258: trap\n      : @1529 [@dyn 708] (gas: 103)\n131259: a1 = u64 [s1 + 0x1f8]\n131263: a1 = reverse a1\n131265: u64 [s1 + 0x1f8] = a1\n131269: a2 = u64 [s1 + 0x1f0]\n131273: a2 = reverse a2\n131275: u64 [s1 + 0x1f0] = a2\n131279: a3 = u64 [s1 + 0x1e8]\n131283: a3 = reverse a3\n131285: u64 [s1 + 0x1e8] = a3\n131289: a4 = u64 [s1 + 0x1e0]\n131293: a4 = reverse a4\n131295: u64 [s1 + 0x1e0] = a4\n131299: u8 [a0 + 0x18] = a4\n131302: u8 [a0 + 0x10] = a3\n131305: u8 [a0 + 0x8] = a2\n131308: u8 [a0] = a1\n131310: a5 = a4 >> 0x38\n131313: u64 [s1 + 0x198] = a5\n131317: u8 [a0 + 0x1f] = a5\n131320: a5 = a4 >> 0x30\n131323: u64 [s1 + 0x190] = a5\n131327: u8 [a0 + 0x1e] = a5\n131330: a5 = a4 >> 0x28\n131333: u64 [s1 + 0x188] = a5\n131337: u8 [a0 + 0x1d] = a5\n131340: a5 = a4 >> 0x20\n131343: u64 [s1 + 0x180] = a5\n131347: u8 [a0 + 0x1c] = a5\n131350: a5 = a4 >> 0x18\n131353: u64 [s1 + 0x178] = a5\n131357: u8 [a0 + 0x1b] = a5\n131360: a5 = a4 >> 0x10\n131363: u64 [s1 + 0x170] = a5\n131367: u8 [a0 + 0x1a] = a5\n131370: a4 = a4 >> 0x8\n131373: u64 [s1 + 0x168] = a4\n131377: u8 [a0 + 0x19] = a4\n131380: a4 = a3 >> 0x38\n131383: u64 [s1 + 0x160] = a4\n131387: u8 [a0 + 0x17] = a4\n131390: a4 = a3 >> 0x30\n131393: u64 [s1 + 0x158] = a4\n131397: u8 [a0 + 0x16] = a4\n131400: a4 = a3 >> 0x28\n131403: u64 [s1 + 0x150] = a4\n131407: u8 [a0 + 0x15] = a4\n131410: a4 = a3 >> 0x20\n131413: u64 [s1 + 0x148] = a4\n131417: u8 [a0 + 0x14] = a4\n131420: a4 = a3 >> 0x18\n131423: u64 [s1 + 0x140] = a4\n131427: u8 [a0 + 0x13] = a4\n131430: a4 = a3 >> 0x10\n131433: u64 [s1 + 0x138] = a4\n131437: u8 [a0 + 0x12] = a4\n131440: a3 = a3 >> 0x8\n131443: u64 [s1 + 0x130] = a3\n131447: u8 [a0 + 0x11] = a3\n131450: a3 = a2 >> 0x38\n131453: u64 [s1 + 0x128] = a3\n131457: u8 [a0 + 0xf] = a3\n131460: a3 = a2 >> 0x30\n131463: u64 [s1 + 0x120] = a3\n131467: u8 [a0 + 0xe] = a3\n131470: a3 = a2 >> 0x28\n131473: u64 [s1 + 0x118] = a3\n131477: u8 [a0 + 0xd] = a3\n131480: a3 = a2 >> 0x20\n131483: u64 [s1 + 0x110] = a3\n131487: u8 [a0 + 0xc] = a3\n131490: a3 = a2 >> 0x18\n131493: u64 [s1 + 0x108] = a3\n131497: u8 [a0 + 0xb] = a3\n131500: a3 = a2 >> 0x10\n131503: u64 [s1 + 0x100] = a3\n131507: u8 [a0 + 0xa] = a3\n131510: a2 = a2 >> 0x8\n131513: u64 [s1 + 0xf8] = a2\n131517: u8 [a0 + 0x9] = a2\n131520: a2 = a1 >> 0x38\n131523: u64 [s1 + 0xf0] = a2\n131527: u8 [a0 + 0x7] = a2\n131530: a2 = a1 >> 0x30\n131533: u64 [s1 + 0xe8] = a2\n131537: u8 [a0 + 0x6] = a2\n131540: a2 = a1 >> 0x28\n131543: u64 [s1 + 0xe0] = a2\n131547: u8 [a0 + 0x5] = a2\n131550: a2 = a1 >> 0x20\n131553: u64 [s1 + 0xd8] = a2\n131557: u8 [a0 + 0x4] = a2\n131560: a2 = a1 >> 0x18\n131563: u64 [s1 + 0xd0] = a2\n131567: u8 [a0 + 0x3] = a2\n131570: a2 = a1 >> 0x10\n131573: u64 [s1 + 0xc8] = a2\n131577: u8 [a0 + 0x2] = a2\n131580: a1 = a1 >> 0x8\n131583: u64 [s1 + 0xc0] = a1\n131587: u8 [a0 + 0x1] = a1\n131590: a0 = 0x20\n131593: a1 = 0x20\n131596: ra = 1418, jump @0\n      : @1530 [@dyn 709] (gas: 35)\n131603: u8 [a0 + 31] = 0\n131606: u8 [a0 + 30] = 0\n131609: u8 [a0 + 29] = 0\n131612: u8 [a0 + 28] = 0\n131615: u8 [a0 + 27] = 0\n131618: u8 [a0 + 26] = 0\n131621: u8 [a0 + 25] = 0\n131624: u8 [a0 + 24] = 0\n131627: u8 [a0 + 23] = 0\n131630: u8 [a0 + 22] = 0\n131633: u8 [a0 + 21] = 0\n131636: u8 [a0 + 20] = 0\n131639: u8 [a0 + 19] = 0\n131642: u8 [a0 + 18] = 0\n131645: u8 [a0 + 17] = 0\n131648: u8 [a0 + 16] = 0\n131651: u8 [a0 + 15] = 0\n131654: u8 [a0 + 14] = 0\n131657: u8 [a0 + 13] = 0\n131660: u8 [a0 + 12] = 0\n131663: u8 [a0 + 11] = 0\n131666: u8 [a0 + 10] = 0\n131669: u8 [a0 + 9] = 0\n131672: u8 [a0 + 8] = 0\n131675: u8 [a0 + 7] = 0\n131678: u8 [a0 + 6] = 0\n131681: u8 [a0 + 5] = 0\n131684: u8 [a0 + 4] = 0\n131687: u8 [a0 + 3] = 0\n131690: u8 [a0 + 2] = 0\n131693: u8 [a0 + 1] = 0\n131696: u8 [a0 + 0] = 0\n131698: a1 = 0x40\n131701: a0 = 0\n131703: ra = 1420, jump @0\n      : @1531 [@dyn 710] (gas: 19)\n131710: i32 a0 = a0 + 0\n131712: i32 a2 = s1 + 0x440\n131716: a1 = 0x40\n131719: ecalli 8 // 'hash_keccak_256'\n131721: a0 = u64 [s1 + 0x458]\n131725: a1 = u64 [s1 + 0x450]\n131729: a2 = u64 [s1 + 0x448]\n131733: a3 = u64 [s1 + 0x440]\n131737: a0 = reverse a0\n131739: u64 [s1 + 0x1b8] = a0\n131743: a0 = reverse a1\n131745: u64 [s1 + 0x1b0] = a0\n131749: a0 = reverse a2\n131751: u64 [s1 + 0x1a8] = a0\n131755: a0 = reverse a3\n131757: u64 [s1 + 0x1a0] = a0\n131761: a1 = 0x20\n131764: a0 = 0\n131766: ra = 1422, jump @0\n      : @1532 [@dyn 711] (gas: 67)\n131773: a1 = u64 [s1 + 0x198]\n131777: u8 [a0 + 0x1f] = a1\n131780: a1 = u64 [s1 + 0x190]\n131784: u8 [a0 + 0x1e] = a1\n131787: a1 = u64 [s1 + 0x188]\n131791: u8 [a0 + 0x1d] = a1\n131794: a1 = u64 [s1 + 0x180]\n131798: u8 [a0 + 0x1c] = a1\n131801: a1 = u64 [s1 + 0x178]\n131805: u8 [a0 + 0x1b] = a1\n131808: a1 = u64 [s1 + 0x170]\n131812: u8 [a0 + 0x1a] = a1\n131815: a1 = u64 [s1 + 0x168]\n131819: u8 [a0 + 0x19] = a1\n131822: a1 = u64 [s1 + 0x1e0]\n131826: u8 [a0 + 0x18] = a1\n131829: a1 = u64 [s1 + 0x160]\n131833: u8 [a0 + 0x17] = a1\n131836: a1 = u64 [s1 + 0x158]\n131840: u8 [a0 + 0x16] = a1\n131843: a1 = u64 [s1 + 0x150]\n131847: u8 [a0 + 0x15] = a1\n131850: a1 = u64 [s1 + 0x148]\n131854: u8 [a0 + 0x14] = a1\n131857: a1 = u64 [s1 + 0x140]\n131861: u8 [a0 + 0x13] = a1\n131864: a1 = u64 [s1 + 0x138]\n131868: u8 [a0 + 0x12] = a1\n131871: a1 = u64 [s1 + 0x130]\n131875: u8 [a0 + 0x11] = a1\n131878: a1 = u64 [s1 + 0x1e8]\n131882: u8 [a0 + 0x10] = a1\n131885: a1 = u64 [s1 + 0x128]\n131889: u8 [a0 + 0xf] = a1\n131892: a1 = u64 [s1 + 0x120]\n131896: u8 [a0 + 0xe] = a1\n131899: a1 = u64 [s1 + 0x118]\n131903: u8 [a0 + 0xd] = a1\n131906: a1 = u64 [s1 + 0x110]\n131910: u8 [a0 + 0xc] = a1\n131913: a1 = u64 [s1 + 0x108]\n131917: u8 [a0 + 0xb] = a1\n131920: a1 = u64 [s1 + 0x100]\n131924: u8 [a0 + 0xa] = a1\n131927: a1 = u64 [s1 + 0xf8]\n131931: u8 [a0 + 0x9] = a1\n131934: a1 = u64 [s1 + 0x1f0]\n131938: u8 [a0 + 0x8] = a1\n131941: a1 = u64 [s1 + 0xf0]\n131945: u8 [a0 + 0x7] = a1\n131948: a1 = u64 [s1 + 0xe8]\n131952: u8 [a0 + 0x6] = a1\n131955: a1 = u64 [s1 + 0xe0]\n131959: u8 [a0 + 0x5] = a1\n131962: a1 = u64 [s1 + 0xd8]\n131966: u8 [a0 + 0x4] = a1\n131969: a1 = u64 [s1 + 0xd0]\n131973: u8 [a0 + 0x3] = a1\n131976: a1 = u64 [s1 + 0xc8]\n131980: u8 [a0 + 0x2] = a1\n131983: a1 = u64 [s1 + 0xc0]\n131987: u8 [a0 + 0x1] = a1\n131990: a1 = u64 [s1 + 0x1f8]\n131994: u8 [a0] = a1\n131996: a0 = 0x20\n131999: a1 = 0x20\n132002: ra = 1424, jump @0\n      : @1533 [@dyn 712] (gas: 35)\n132009: u8 [a0 + 31] = 0x3\n132013: u8 [a0 + 30] = 0\n132016: u8 [a0 + 29] = 0\n132019: u8 [a0 + 28] = 0\n132022: u8 [a0 + 27] = 0\n132025: u8 [a0 + 26] = 0\n132028: u8 [a0 + 25] = 0\n132031: u8 [a0 + 24] = 0\n132034: u8 [a0 + 23] = 0\n132037: u8 [a0 + 22] = 0\n132040: u8 [a0 + 21] = 0\n132043: u8 [a0 + 20] = 0\n132046: u8 [a0 + 19] = 0\n132049: u8 [a0 + 18] = 0\n132052: u8 [a0 + 17] = 0\n132055: u8 [a0 + 16] = 0\n132058: u8 [a0 + 15] = 0\n132061: u8 [a0 + 14] = 0\n132064: u8 [a0 + 13] = 0\n132067: u8 [a0 + 12] = 0\n132070: u8 [a0 + 11] = 0\n132073: u8 [a0 + 10] = 0\n132076: u8 [a0 + 9] = 0\n132079: u8 [a0 + 8] = 0\n132082: u8 [a0 + 7] = 0\n132085: u8 [a0 + 6] = 0\n132088: u8 [a0 + 5] = 0\n132091: u8 [a0 + 4] = 0\n132094: u8 [a0 + 3] = 0\n132097: u8 [a0 + 2] = 0\n132100: u8 [a0 + 1] = 0\n132103: u8 [a0 + 0] = 0\n132105: a1 = 0x40\n132108: a0 = 0\n132110: ra = 1426, jump @0\n      : @1534 [@dyn 713] (gas: 15)\n132117: i32 a0 = a0 + 0\n132119: i32 a2 = s1 + 0x440\n132123: a1 = 0x40\n132126: ecalli 8 // 'hash_keccak_256'\n132128: a0 = u64 [s1 + 0x440]\n132132: u64 [s1 + 0xb8] = a0\n132136: a0 = u64 [s1 + 0x448]\n132140: u64 [s1 + 0xb0] = a0\n132144: a0 = u64 [s1 + 0x450]\n132148: u64 [s1 + 0xa8] = a0\n132152: a0 = u64 [s1 + 0x458]\n132156: u64 [s1 + 0xa0] = a0\n132160: a1 = 0x20\n132163: a0 = 0\n132165: ra = 1428, jump @0\n      : @1535 [@dyn 714] (gas: 75)\n132172: a1 = u64 [s1 + 0x1c0]\n132176: a2 = reverse a1\n132178: a1 = u64 [s1 + 0x1c8]\n132182: a3 = reverse a1\n132184: a1 = u64 [s1 + 0x1d0]\n132188: a4 = reverse a1\n132190: a1 = u64 [s1 + 0x1d8]\n132194: a5 = reverse a1\n132196: a1 = a5 >> 0x38\n132199: u8 [a0 + 0x1f] = a1\n132202: a1 = a5 >> 0x30\n132205: u8 [a0 + 0x1e] = a1\n132208: a1 = a5 >> 0x28\n132211: u8 [a0 + 0x1d] = a1\n132214: a1 = a5 >> 0x20\n132217: u8 [a0 + 0x1c] = a1\n132220: a1 = a5 >> 0x18\n132223: u8 [a0 + 0x1b] = a1\n132226: a1 = a5 >> 0x10\n132229: u8 [a0 + 0x1a] = a1\n132232: a1 = a5 >> 0x8\n132235: u8 [a0 + 0x19] = a1\n132238: u64 [s1 + 0x40] = a5\n132241: u8 [a0 + 0x18] = a5\n132244: a1 = a4 >> 0x38\n132247: u8 [a0 + 0x17] = a1\n132250: a1 = a4 >> 0x30\n132253: u8 [a0 + 0x16] = a1\n132256: a1 = a4 >> 0x28\n132259: u8 [a0 + 0x15] = a1\n132262: a1 = a4 >> 0x20\n132265: u8 [a0 + 0x14] = a1\n132268: a1 = a4 >> 0x18\n132271: u8 [a0 + 0x13] = a1\n132274: a1 = a4 >> 0x10\n132277: u8 [a0 + 0x12] = a1\n132280: a1 = a4 >> 0x8\n132283: u8 [a0 + 0x11] = a1\n132286: u64 [s1 + 0x48] = a4\n132289: u8 [a0 + 0x10] = a4\n132292: a1 = a3 >> 0x38\n132295: u8 [a0 + 0xf] = a1\n132298: a1 = a3 >> 0x30\n132301: u8 [a0 + 0xe] = a1\n132304: a1 = a3 >> 0x28\n132307: u8 [a0 + 0xd] = a1\n132310: a1 = a3 >> 0x20\n132313: u8 [a0 + 0xc] = a1\n132316: a1 = a3 >> 0x18\n132319: u8 [a0 + 0xb] = a1\n132322: a1 = a3 >> 0x10\n132325: u8 [a0 + 0xa] = a1\n132328: a1 = a3 >> 0x8\n132331: u8 [a0 + 0x9] = a1\n132334: u64 [s1 + 0x50] = a3\n132337: u8 [a0 + 0x8] = a3\n132340: a1 = a2 >> 0x38\n132343: u8 [a0 + 0x7] = a1\n132346: a1 = a2 >> 0x30\n132349: u8 [a0 + 0x6] = a1\n132352: a1 = a2 >> 0x28\n132355: u8 [a0 + 0x5] = a1\n132358: a1 = a2 >> 0x20\n132361: u8 [a0 + 0x4] = a1\n132364: a1 = a2 >> 0x18\n132367: u8 [a0 + 0x3] = a1\n132370: a1 = a2 >> 0x10\n132373: u8 [a0 + 0x2] = a1\n132376: a1 = a2 >> 0x8\n132379: u8 [a0 + 0x1] = a1\n132382: u64 [s1 + 0x58] = a2\n132385: u8 [a0] = a2\n132387: a0 = 0x20\n132390: a1 = 0x20\n132393: ra = 1430, jump @0\n      : @1536 [@dyn 715] (gas: 67)\n132400: a2 = u64 [s1 + 0xa0]\n132404: a1 = a2 >> 0x38\n132407: u8 [a0 + 0x1f] = a1\n132410: a1 = a2 >> 0x30\n132413: u8 [a0 + 0x1e] = a1\n132416: a1 = a2 >> 0x28\n132419: u8 [a0 + 0x1d] = a1\n132422: a1 = a2 >> 0x20\n132425: u8 [a0 + 0x1c] = a1\n132428: a1 = a2 >> 0x18\n132431: u8 [a0 + 0x1b] = a1\n132434: a1 = a2 >> 0x10\n132437: u8 [a0 + 0x1a] = a1\n132440: a1 = a2 >> 0x8\n132443: u8 [a0 + 0x19] = a1\n132446: u8 [a0 + 0x18] = a2\n132449: a2 = u64 [s1 + 0xa8]\n132453: a1 = a2 >> 0x38\n132456: u8 [a0 + 0x17] = a1\n132459: a1 = a2 >> 0x30\n132462: u8 [a0 + 0x16] = a1\n132465: a1 = a2 >> 0x28\n132468: u8 [a0 + 0x15] = a1\n132471: a1 = a2 >> 0x20\n132474: u8 [a0 + 0x14] = a1\n132477: a1 = a2 >> 0x18\n132480: u8 [a0 + 0x13] = a1\n132483: a1 = a2 >> 0x10\n132486: u8 [a0 + 0x12] = a1\n132489: a1 = a2 >> 0x8\n132492: u8 [a0 + 0x11] = a1\n132495: u8 [a0 + 0x10] = a2\n132498: a2 = u64 [s1 + 0xb0]\n132502: a1 = a2 >> 0x38\n132505: u8 [a0 + 0xf] = a1\n132508: a1 = a2 >> 0x30\n132511: u8 [a0 + 0xe] = a1\n132514: a1 = a2 >> 0x28\n132517: u8 [a0 + 0xd] = a1\n132520: a1 = a2 >> 0x20\n132523: u8 [a0 + 0xc] = a1\n132526: a1 = a2 >> 0x18\n132529: u8 [a0 + 0xb] = a1\n132532: a1 = a2 >> 0x10\n132535: u8 [a0 + 0xa] = a1\n132538: a1 = a2 >> 0x8\n132541: u8 [a0 + 0x9] = a1\n132544: u8 [a0 + 0x8] = a2\n132547: a2 = u64 [s1 + 0xb8]\n132551: a1 = a2 >> 0x38\n132554: u8 [a0 + 0x7] = a1\n132557: a1 = a2 >> 0x30\n132560: u8 [a0 + 0x6] = a1\n132563: a1 = a2 >> 0x28\n132566: u8 [a0 + 0x5] = a1\n132569: a1 = a2 >> 0x20\n132572: u8 [a0 + 0x4] = a1\n132575: a1 = a2 >> 0x18\n132578: u8 [a0 + 0x3] = a1\n132581: a1 = a2 >> 0x10\n132584: u8 [a0 + 0x2] = a1\n132587: a1 = a2 >> 0x8\n132590: u8 [a0 + 0x1] = a1\n132593: u8 [a0] = a2\n132595: a1 = 0x40\n132598: a0 = 0\n132600: ra = 1432, jump @0\n      : @1537 [@dyn 716] (gas: 32)\n132607: i32 a0 = a0 + 0\n132609: i32 a2 = s1 + 0x440\n132613: a1 = 0x40\n132616: ecalli 8 // 'hash_keccak_256'\n132618: a0 = u64 [s1 + 0x458]\n132622: u64 [s1 + 0x1d8] = a0\n132626: a0 = u64 [s1 + 0x450]\n132630: u64 [s1 + 0x1d0] = a0\n132634: a0 = u64 [s1 + 0x448]\n132638: u64 [s1 + 0x1c8] = a0\n132642: a0 = u64 [s1 + 0x440]\n132646: u64 [s1 + 0x1c0] = a0\n132650: a0 = u64 [s1 + 0x1a0]\n132654: u64 [s1 + 0x4d8] = a0\n132658: a0 = u64 [s1 + 0x1a8]\n132662: u64 [s1 + 0x4d0] = a0\n132666: a0 = u64 [s1 + 0x1b0]\n132670: u64 [s1 + 0x4c8] = a0\n132674: a0 = u64 [s1 + 0x1b8]\n132678: u64 [s1 + 0x4c0] = a0\n132682: u64 [s1 + 1112] = 0\n132686: u64 [s1 + 1104] = 0\n132690: u64 [s1 + 1096] = 0\n132694: u64 [s1 + 1088] = 0\n132698: u32 [s1 + 1248] = 0x20\n132703: i32 a1 = s1 + 0x4c0\n132707: i32 a3 = s1 + 0x440\n132711: i32 a4 = s1 + 0x4e0\n132715: a2 = 0xffffffffffffffff\n132718: a0 = 0\n132720: ecalli 7 // 'get_storage'\n132722: fallthrough\n      : @1538 (gas: 6)\n132723: a0 = u64 [s1 + 0x440]\n132727: a1 = u32 [s1 + 0x450]\n132731: a2 = u64 [s1 + 0x448]\n132735: a0 = a0 | a1\n132738: a0 = a0 | a2\n132741: jump @1540 if a0 != 0\n      : @1539 (gas: 1)\n132744: jump @1573\n      : @1540 (gas: 40)\n132747: a0 = u64 [s1 + 0x1c0]\n132751: a2 = reverse a0\n132753: a0 = u64 [s1 + 0x1c8]\n132757: a3 = reverse a0\n132759: a0 = u64 [s1 + 0x1d0]\n132763: a1 = reverse a0\n132765: a0 = u64 [s1 + 0x1d8]\n132769: a0 = reverse a0\n132771: a4 = a0 + 0x2\n132774: u64 [s1 + 0xa0] = a0\n132778: a0 = a4 <u a0\n132781: a5 = a1 + a0\n132784: u64 [s1 + 0xa8] = a1\n132788: a1 = a5 <u a1\n132791: a1 = a0 if a0 == 0\n132794: a1 = a1 + a3\n132797: u64 [s1 + 0xb0] = a3\n132801: a0 = a1 <u a3\n132804: u64 [s1 + 0xb8] = a2\n132808: a0 = a0 + a2\n132811: u64 [s1 + 0x1d8] = a4\n132815: u64 [s1 + 0x4c0] = a4\n132819: u64 [s1 + 0x1d0] = a5\n132823: u64 [s1 + 0x4c8] = a5\n132827: u64 [s1 + 0x1c8] = a1\n132831: u64 [s1 + 0x4d0] = a1\n132835: u64 [s1 + 0x1c0] = a0\n132839: u64 [s1 + 0x4d8] = a0\n132843: u64 [s1 + 1112] = 0\n132847: u64 [s1 + 1104] = 0\n132851: u64 [s1 + 1096] = 0\n132855: u64 [s1 + 1088] = 0\n132859: u32 [s1 + 1248] = 0x20\n132864: i32 a1 = s1 + 0x4c0\n132868: i32 a3 = s1 + 0x440\n132872: i32 a4 = s1 + 0x4e0\n132876: a2 = 0xffffffffffffffff\n132879: a0 = 0\n132881: ecalli 7 // 'get_storage'\n132883: fallthrough\n      : @1541 (gas: 2)\n132884: a0 = u8 [s1 + 0x441]\n132888: jump @1568 if a0 == 0\n      : @1542 (gas: 20)\n132892: a0 = u64 [s1 + 0x1c8]\n132896: u64 [s1 + 0x4d0] = a0\n132900: a0 = u64 [s1 + 0x1d0]\n132904: u64 [s1 + 0x4c8] = a0\n132908: a0 = u64 [s1 + 0x1d8]\n132912: u64 [s1 + 0x4c0] = a0\n132916: a0 = u64 [s1 + 0x1c0]\n132920: u64 [s1 + 0x4d8] = a0\n132924: u64 [s1 + 1112] = 0\n132928: u64 [s1 + 1104] = 0\n132932: u64 [s1 + 1096] = 0\n132936: u64 [s1 + 1088] = 0\n132940: u32 [s1 + 1248] = 0x20\n132945: i32 a1 = s1 + 0x4c0\n132949: i32 a3 = s1 + 0x440\n132953: i32 a4 = s1 + 0x4e0\n132957: a2 = 0xffffffffffffffff\n132960: a0 = 0\n132962: ecalli 7 // 'get_storage'\n132964: fallthrough\n      : @1543 (gas: 2)\n132965: a0 = u8 [s1 + 0x442]\n132969: jump @1568 if a0 != 0\n      : @1544 (gas: 51)\n132973: a0 = sp + 0xffffffffffffffe0\n132976: a0 = a0 & 0xffffffffffffffe0\n132979: u64 [s1 + 0x98] = a0\n132983: sp = a0\n132985: u64 [a0 + 24] = 0\n132988: u64 [a0 + 16] = 0\n132991: u64 [a0 + 8] = 0\n132994: u64 [a0 + 0] = 0\n132996: i32 a0 = a0 + 0\n132998: ecalli 16 // 'value_transferred'\n133000: a1 = u64 [s1 + 0x98]\n133004: a0 = u64 [a1]\n133006: u64 [s1 + 0x38] = a0\n133009: a0 = u64 [a1 + 0x8]\n133012: u64 [s1 + 0x30] = a0\n133015: a0 = u64 [a1 + 0x10]\n133018: u64 [s1 + 0x28] = a0\n133021: a0 = u64 [a1 + 0x18]\n133024: u64 [s1 + 0x20] = a0\n133027: a0 = u64 [s1 + 0x1b8]\n133031: a2 = a0 + 0x1\n133034: a0 = a2 <u 0x1\n133037: a1 = u64 [s1 + 0x1b0]\n133041: a3 = a1 + a0\n133044: a0 = a2 | a3\n133047: a0 = a0 <u 0x1\n133050: a1 = u64 [s1 + 0x1a8]\n133054: a4 = a1 + a0\n133057: u32 [s1 + 1248] = 0x20\n133062: a0 = a4 <u a1\n133065: a1 = u64 [s1 + 0x1a0]\n133069: a0 = a0 + a1\n133072: u64 [s1 + 0x80] = a0\n133076: u64 [s1 + 0x4d8] = a0\n133080: u64 [s1 + 0x88] = a4\n133084: u64 [s1 + 0x4d0] = a4\n133088: u64 [s1 + 0x90] = a3\n133092: u64 [s1 + 0x4c8] = a3\n133096: u64 [s1 + 0x98] = a2\n133100: u64 [s1 + 0x4c0] = a2\n133104: u64 [s1 + 1112] = 0\n133108: u64 [s1 + 1104] = 0\n133112: u64 [s1 + 1096] = 0\n133116: u64 [s1 + 1088] = 0\n133120: i32 a1 = s1 + 0x4c0\n133124: i32 a3 = s1 + 0x440\n133128: i32 a4 = s1 + 0x4e0\n133132: a2 = 0xffffffffffffffff\n133135: a0 = 0\n133137: ecalli 7 // 'get_storage'\n133139: fallthrough\n      : @1545 (gas: 20)\n133140: a0 = u64 [s1 + 0x458]\n133144: t0 = u64 [s1 + 0x440]\n133148: a2 = u64 [s1 + 0x450]\n133152: a3 = u64 [s1 + 0x448]\n133156: a1 = u64 [s1 + 0x20]\n133159: a4 = a1 ^ a0\n133162: a1 = a1 <u a0\n133165: a0 = u64 [s1 + 0x28]\n133168: a5 = a0 <u a2\n133171: a5 = a1 if a4 != 0\n133174: a1 = u64 [s1 + 0x30]\n133177: t1 = a1 ^ a3\n133180: a3 = a1 <u a3\n133183: a1 = u64 [s1 + 0x38]\n133186: a1 = a1 <u t0\n133189: a1 = a3 if t1 != 0\n133192: a0 = a0 ^ a2\n133195: a0 = a0 | a4\n133198: a1 = a5 if a0 != 0\n133201: jump @1547 if a1 == 0\n      : @1546 (gas: 1)\n133204: jump @1578\n      : @1547 (gas: 11)\n133207: a0 = u64 [s1 + 0x68]\n133210: a1 = u64 [s1 + 0x60]\n133213: a0 = a0 | a1\n133216: a1 = u64 [s1 + 0x78]\n133219: a2 = u64 [s1 + 0x70]\n133222: a1 = a1 | a2\n133225: a0 = a0 | a1\n133228: a1 = 0xffffffff\n133238: u64 [s1 + 0x70] = a0\n133241: u64 [s1 + 0x78] = a1\n133244: jump @1561 if a0 == 0\n      : @1548 (gas: 3)\n133248: a1 = 0x20\n133251: a0 = 0\n133253: ra = 1434, jump @0\n      : @1549 [@dyn 717] (gas: 67)\n133260: a1 = u64 [s1 + 0x1e8]\n133264: u8 [a0 + 0x10] = a1\n133267: a1 = u64 [s1 + 0x128]\n133271: u8 [a0 + 0xf] = a1\n133274: a1 = u64 [s1 + 0x120]\n133278: u8 [a0 + 0xe] = a1\n133281: a1 = u64 [s1 + 0x118]\n133285: u8 [a0 + 0xd] = a1\n133288: a1 = u64 [s1 + 0x110]\n133292: u8 [a0 + 0xc] = a1\n133295: a1 = u64 [s1 + 0x108]\n133299: u8 [a0 + 0xb] = a1\n133302: a1 = u64 [s1 + 0x100]\n133306: u8 [a0 + 0xa] = a1\n133309: a1 = u64 [s1 + 0xf8]\n133313: u8 [a0 + 0x9] = a1\n133316: a1 = u64 [s1 + 0x1f0]\n133320: u8 [a0 + 0x8] = a1\n133323: a1 = u64 [s1 + 0xf0]\n133327: u8 [a0 + 0x7] = a1\n133330: a1 = u64 [s1 + 0xe8]\n133334: u8 [a0 + 0x6] = a1\n133337: a1 = u64 [s1 + 0xe0]\n133341: u8 [a0 + 0x5] = a1\n133344: a1 = u64 [s1 + 0xd8]\n133348: u8 [a0 + 0x4] = a1\n133351: a1 = u64 [s1 + 0xd0]\n133355: u8 [a0 + 0x3] = a1\n133358: a1 = u64 [s1 + 0xc8]\n133362: u8 [a0 + 0x2] = a1\n133365: a1 = u64 [s1 + 0xc0]\n133369: u8 [a0 + 0x1] = a1\n133372: a1 = u64 [s1 + 0x1f8]\n133376: u8 [a0] = a1\n133378: a1 = u64 [s1 + 0x1e0]\n133382: u8 [a0 + 0x18] = a1\n133385: a1 = u64 [s1 + 0x160]\n133389: u8 [a0 + 0x17] = a1\n133392: a1 = u64 [s1 + 0x158]\n133396: u8 [a0 + 0x16] = a1\n133399: a1 = u64 [s1 + 0x150]\n133403: u8 [a0 + 0x15] = a1\n133406: a1 = u64 [s1 + 0x148]\n133410: u8 [a0 + 0x14] = a1\n133413: a1 = u64 [s1 + 0x140]\n133417: u8 [a0 + 0x13] = a1\n133420: a1 = u64 [s1 + 0x138]\n133424: u8 [a0 + 0x12] = a1\n133427: a1 = u64 [s1 + 0x130]\n133431: u8 [a0 + 0x11] = a1\n133434: a1 = u64 [s1 + 0x198]\n133438: u8 [a0 + 0x1f] = a1\n133441: a1 = u64 [s1 + 0x190]\n133445: u8 [a0 + 0x1e] = a1\n133448: a1 = u64 [s1 + 0x188]\n133452: u8 [a0 + 0x1d] = a1\n133455: a1 = u64 [s1 + 0x180]\n133459: u8 [a0 + 0x1c] = a1\n133462: a1 = u64 [s1 + 0x178]\n133466: u8 [a0 + 0x1b] = a1\n133469: a1 = u64 [s1 + 0x170]\n133473: u8 [a0 + 0x1a] = a1\n133476: a1 = u64 [s1 + 0x168]\n133480: u8 [a0 + 0x19] = a1\n133483: a0 = 0x20\n133486: a1 = 0x20\n133489: ra = 1436, jump @0\n      : @1550 [@dyn 718] (gas: 35)\n133496: u8 [a0 + 31] = 0x2\n133500: u8 [a0 + 30] = 0\n133503: u8 [a0 + 29] = 0\n133506: u8 [a0 + 28] = 0\n133509: u8 [a0 + 27] = 0\n133512: u8 [a0 + 26] = 0\n133515: u8 [a0 + 25] = 0\n133518: u8 [a0 + 24] = 0\n133521: u8 [a0 + 23] = 0\n133524: u8 [a0 + 22] = 0\n133527: u8 [a0 + 21] = 0\n133530: u8 [a0 + 20] = 0\n133533: u8 [a0 + 19] = 0\n133536: u8 [a0 + 18] = 0\n133539: u8 [a0 + 17] = 0\n133542: u8 [a0 + 16] = 0\n133545: u8 [a0 + 15] = 0\n133548: u8 [a0 + 14] = 0\n133551: u8 [a0 + 13] = 0\n133554: u8 [a0 + 12] = 0\n133557: u8 [a0 + 11] = 0\n133560: u8 [a0 + 10] = 0\n133563: u8 [a0 + 9] = 0\n133566: u8 [a0 + 8] = 0\n133569: u8 [a0 + 7] = 0\n133572: u8 [a0 + 6] = 0\n133575: u8 [a0 + 5] = 0\n133578: u8 [a0 + 4] = 0\n133581: u8 [a0 + 3] = 0\n133584: u8 [a0 + 2] = 0\n133587: u8 [a0 + 1] = 0\n133590: u8 [a0 + 0] = 0\n133592: a1 = 0x40\n133595: a0 = 0\n133597: ra = 1438, jump @0\n      : @1551 [@dyn 719] (gas: 55)\n133604: i32 a0 = a0 + 0\n133606: i32 a2 = s1 + 0x440\n133610: a1 = 0x40\n133613: ecalli 8 // 'hash_keccak_256'\n133615: a0 = u64 [s1 + 0x458]\n133619: a1 = u64 [s1 + 0x450]\n133623: a2 = u64 [s1 + 0x448]\n133627: a3 = u64 [s1 + 0x440]\n133631: a0 = reverse a0\n133633: a1 = reverse a1\n133635: a2 = reverse a2\n133637: a3 = reverse a3\n133639: u64 [s1 + 0x4d8] = a3\n133643: u64 [s1 + 0x4d0] = a2\n133647: u64 [s1 + 0x4c8] = a1\n133651: u64 [s1 + 0x4c0] = a0\n133655: u64 [s1 + 1112] = 0\n133659: u64 [s1 + 1104] = 0\n133663: u64 [s1 + 1096] = 0\n133667: u64 [s1 + 1088] = 0\n133671: u32 [s1 + 1248] = 0x20\n133676: i32 a1 = s1 + 0x4c0\n133680: i32 a3 = s1 + 0x440\n133684: i32 a4 = s1 + 0x4e0\n133688: a2 = 0xffffffffffffffff\n133691: a0 = 0\n133693: ecalli 7 // 'get_storage'\n133695: a0 = u64 [s1 + 0x440]\n133699: u64 [s1 + 0x1b8] = a0\n133703: a0 = u64 [s1 + 0x448]\n133707: u64 [s1 + 0x1b0] = a0\n133711: a0 = u64 [s1 + 0x450]\n133715: u64 [s1 + 0x1a8] = a0\n133719: a0 = u64 [s1 + 0x458]\n133723: u64 [s1 + 0x1a0] = a0\n133727: a0 = u64 [s1 + 0x80]\n133731: u64 [s1 + 0x4d8] = a0\n133735: a0 = u64 [s1 + 0x88]\n133739: u64 [s1 + 0x4d0] = a0\n133743: a0 = u64 [s1 + 0x90]\n133747: u64 [s1 + 0x4c8] = a0\n133751: a0 = u64 [s1 + 0x98]\n133755: u64 [s1 + 0x4c0] = a0\n133759: u64 [s1 + 1112] = 0\n133763: u64 [s1 + 1104] = 0\n133767: u64 [s1 + 1096] = 0\n133771: u64 [s1 + 1088] = 0\n133775: u32 [s1 + 1248] = 0x20\n133780: i32 a1 = s1 + 0x4c0\n133784: i32 a3 = s1 + 0x440\n133788: i32 a4 = s1 + 0x4e0\n133792: a2 = 0xffffffffffffffff\n133795: a0 = 0\n133797: ecalli 7 // 'get_storage'\n133799: fallthrough\n      : @1552 (gas: 20)\n133800: a0 = u64 [s1 + 0x458]\n133804: t0 = u64 [s1 + 0x440]\n133808: a2 = u64 [s1 + 0x450]\n133812: a3 = u64 [s1 + 0x448]\n133816: a1 = u64 [s1 + 0x1a0]\n133820: a4 = a1 ^ a0\n133823: a1 = a1 <u a0\n133826: a0 = u64 [s1 + 0x1a8]\n133830: a5 = a0 <u a2\n133833: a5 = a1 if a4 != 0\n133836: a1 = u64 [s1 + 0x1b0]\n133840: t1 = a1 ^ a3\n133843: a3 = a1 <u a3\n133846: a1 = u64 [s1 + 0x1b8]\n133850: a1 = a1 <u t0\n133853: a1 = a3 if t1 != 0\n133856: a0 = a0 ^ a2\n133859: a0 = a0 | a4\n133862: a1 = a5 if a0 != 0\n133865: jump @1554 if a1 == 0\n      : @1553 (gas: 1)\n133868: jump @1583\n      : @1554 (gas: 30)\n133871: a0 = u64 [s1 + 0x88]\n133875: u64 [s1 + 0x4d0] = a0\n133879: a0 = u64 [s1 + 0x90]\n133883: u64 [s1 + 0x4c8] = a0\n133887: a0 = u64 [s1 + 0x98]\n133891: u64 [s1 + 0x4c0] = a0\n133895: a0 = u64 [s1 + 0x80]\n133899: u64 [s1 + 0x4d8] = a0\n133903: u64 [s1 + 1112] = 0\n133907: u64 [s1 + 1104] = 0\n133911: u64 [s1 + 1096] = 0\n133915: u64 [s1 + 1088] = 0\n133919: u32 [s1 + 1248] = 0x20\n133924: i32 a1 = s1 + 0x4c0\n133928: i32 a3 = s1 + 0x440\n133932: i32 a4 = s1 + 0x4e0\n133936: a2 = 0xffffffffffffffff\n133939: a0 = 0\n133941: ecalli 7 // 'get_storage'\n133943: a0 = u64 [s1 + 0x458]\n133947: u64 [s1 + 0x1a8] = a0\n133951: a0 = u64 [s1 + 0x450]\n133955: u64 [s1 + 0x98] = a0\n133959: a0 = u64 [s1 + 0x448]\n133963: u64 [s1 + 0x1b0] = a0\n133967: a0 = u64 [s1 + 0x440]\n133971: u64 [s1 + 0x1b8] = a0\n133975: a1 = 0x20\n133978: a0 = 0\n133980: ra = 1440, jump @0\n      : @1555 [@dyn 720] (gas: 67)\n133987: a1 = u64 [s1 + 0x198]\n133991: u8 [a0 + 0x1f] = a1\n133994: a1 = u64 [s1 + 0x190]\n133998: u8 [a0 + 0x1e] = a1\n134001: a1 = u64 [s1 + 0x188]\n134005: u8 [a0 + 0x1d] = a1\n134008: a1 = u64 [s1 + 0x180]\n134012: u8 [a0 + 0x1c] = a1\n134015: a1 = u64 [s1 + 0x178]\n134019: u8 [a0 + 0x1b] = a1\n134022: a1 = u64 [s1 + 0x170]\n134026: u8 [a0 + 0x1a] = a1\n134029: a1 = u64 [s1 + 0x168]\n134033: u8 [a0 + 0x19] = a1\n134036: a1 = u64 [s1 + 0x160]\n134040: u8 [a0 + 0x17] = a1\n134043: a1 = u64 [s1 + 0x158]\n134047: u8 [a0 + 0x16] = a1\n134050: a1 = u64 [s1 + 0x150]\n134054: u8 [a0 + 0x15] = a1\n134057: a1 = u64 [s1 + 0x148]\n134061: u8 [a0 + 0x14] = a1\n134064: a1 = u64 [s1 + 0x140]\n134068: u8 [a0 + 0x13] = a1\n134071: a1 = u64 [s1 + 0x138]\n134075: u8 [a0 + 0x12] = a1\n134078: a1 = u64 [s1 + 0x130]\n134082: u8 [a0 + 0x11] = a1\n134085: a1 = u64 [s1 + 0x128]\n134089: u8 [a0 + 0xf] = a1\n134092: a1 = u64 [s1 + 0x120]\n134096: u8 [a0 + 0xe] = a1\n134099: a1 = u64 [s1 + 0x118]\n134103: u8 [a0 + 0xd] = a1\n134106: a1 = u64 [s1 + 0x110]\n134110: u8 [a0 + 0xc] = a1\n134113: a1 = u64 [s1 + 0x108]\n134117: u8 [a0 + 0xb] = a1\n134120: a1 = u64 [s1 + 0x100]\n134124: u8 [a0 + 0xa] = a1\n134127: a1 = u64 [s1 + 0xf8]\n134131: u8 [a0 + 0x9] = a1\n134134: a1 = u64 [s1 + 0xf0]\n134138: u8 [a0 + 0x7] = a1\n134141: a1 = u64 [s1 + 0xe8]\n134145: u8 [a0 + 0x6] = a1\n134148: a1 = u64 [s1 + 0xe0]\n134152: u8 [a0 + 0x5] = a1\n134155: a1 = u64 [s1 + 0xd8]\n134159: u8 [a0 + 0x4] = a1\n134162: a1 = u64 [s1 + 0xd0]\n134166: u8 [a0 + 0x3] = a1\n134169: a1 = u64 [s1 + 0xc8]\n134173: u8 [a0 + 0x2] = a1\n134176: a1 = u64 [s1 + 0xc0]\n134180: u8 [a0 + 0x1] = a1\n134183: a1 = u64 [s1 + 0x1e0]\n134187: u8 [a0 + 0x18] = a1\n134190: a1 = u64 [s1 + 0x1e8]\n134194: u8 [a0 + 0x10] = a1\n134197: a1 = u64 [s1 + 0x1f0]\n134201: u8 [a0 + 0x8] = a1\n134204: a1 = u64 [s1 + 0x1f8]\n134208: u8 [a0] = a1\n134210: a0 = 0x20\n134213: a1 = 0x20\n134216: ra = 1442, jump @0\n      : @1556 [@dyn 721] (gas: 35)\n134223: u8 [a0 + 31] = 0x2\n134227: u8 [a0 + 30] = 0\n134230: u8 [a0 + 29] = 0\n134233: u8 [a0 + 28] = 0\n134236: u8 [a0 + 27] = 0\n134239: u8 [a0 + 26] = 0\n134242: u8 [a0 + 25] = 0\n134245: u8 [a0 + 24] = 0\n134248: u8 [a0 + 23] = 0\n134251: u8 [a0 + 22] = 0\n134254: u8 [a0 + 21] = 0\n134257: u8 [a0 + 20] = 0\n134260: u8 [a0 + 19] = 0\n134263: u8 [a0 + 18] = 0\n134266: u8 [a0 + 17] = 0\n134269: u8 [a0 + 16] = 0\n134272: u8 [a0 + 15] = 0\n134275: u8 [a0 + 14] = 0\n134278: u8 [a0 + 13] = 0\n134281: u8 [a0 + 12] = 0\n134284: u8 [a0 + 11] = 0\n134287: u8 [a0 + 10] = 0\n134290: u8 [a0 + 9] = 0\n134293: u8 [a0 + 8] = 0\n134296: u8 [a0 + 7] = 0\n134299: u8 [a0 + 6] = 0\n134302: u8 [a0 + 5] = 0\n134305: u8 [a0 + 4] = 0\n134308: u8 [a0 + 3] = 0\n134311: u8 [a0 + 2] = 0\n134314: u8 [a0 + 1] = 0\n134317: u8 [a0 + 0] = 0\n134319: a1 = 0x40\n134322: a0 = 0\n134324: ra = 1444, jump @0\n      : @1557 [@dyn 722] (gas: 32)\n134331: i32 a0 = a0 + 0\n134333: i32 a2 = s1 + 0x440\n134337: a1 = 0x40\n134340: ecalli 8 // 'hash_keccak_256'\n134342: a0 = u64 [s1 + 0x458]\n134346: a1 = u64 [s1 + 0x450]\n134350: a2 = u64 [s1 + 0x448]\n134354: a3 = u64 [s1 + 0x440]\n134358: a0 = reverse a0\n134360: a1 = reverse a1\n134362: a2 = reverse a2\n134364: a3 = reverse a3\n134366: u64 [s1 + 0x188] = a3\n134370: u64 [s1 + 0x4d8] = a3\n134374: u64 [s1 + 0x190] = a2\n134378: u64 [s1 + 0x4d0] = a2\n134382: u64 [s1 + 0x198] = a1\n134386: u64 [s1 + 0x4c8] = a1\n134390: u64 [s1 + 0x1a0] = a0\n134394: u64 [s1 + 0x4c0] = a0\n134398: u64 [s1 + 1112] = 0\n134402: u64 [s1 + 1104] = 0\n134406: u64 [s1 + 1096] = 0\n134410: u64 [s1 + 1088] = 0\n134414: u32 [s1 + 1248] = 0x20\n134419: i32 a1 = s1 + 0x4c0\n134423: i32 a3 = s1 + 0x440\n134427: i32 a4 = s1 + 0x4e0\n134431: a2 = 0xffffffffffffffff\n134434: a0 = 0\n134436: ecalli 7 // 'get_storage'\n134438: fallthrough\n      : @1558 (gas: 24)\n134439: t1 = u64 [s1 + 0x458]\n134443: ra = u64 [s1 + 0x450]\n134447: t0 = u64 [s1 + 0x448]\n134451: a3 = u64 [s1 + 0x440]\n134455: a0 = u64 [s1 + 0x1a8]\n134459: a4 = t1 ^ a0\n134462: a5 = t1 <u a0\n134465: a2 = u64 [s1 + 0x98]\n134469: a0 = ra <u a2\n134472: u64 [s1 + 0x170] = a0\n134476: a5 = a0 if a4 == 0\n134479: a0 = u64 [s1 + 0x1b0]\n134483: a1 = t0 ^ a0\n134486: u64 [s1 + 0x180] = a1\n134490: a0 = t0 <u a0\n134493: a1 = u64 [s1 + 0x1b8]\n134497: u64 [s1 + 0x178] = a3\n134501: t2 = a3 <u a1\n134504: a1 = u64 [s1 + 0x180]\n134508: a0 = t2 if a1 == 0\n134511: a1 = ra ^ a2\n134514: a1 = a1 | a4\n134517: a5 = a0 if a1 == 0\n134520: jump @1560 if a5 == 0\n      : @1559 (gas: 1)\n134523: jump @1590\n      : @1560 (gas: 177)\n134526: a1 = ra - a2\n134529: a2 = a1 - a0\n134532: u64 [s1 + 0x180] = a2\n134536: a0 = a1 <u a0\n134539: a1 = u64 [s1 + 0x1a8]\n134543: a1 = t1 - a1\n134546: a2 = u64 [s1 + 0x170]\n134550: a1 = a1 - a2\n134553: a1 = a1 - a0\n134556: u64 [s1 + 0x1a8] = a1\n134560: a0 = u64 [s1 + 0x1b0]\n134564: a0 = t0 - a0\n134567: a0 = a0 - t2\n134570: u64 [s1 + 0x1b0] = a0\n134574: a0 = u64 [s1 + 0x1b8]\n134578: a1 = u64 [s1 + 0x178]\n134582: a0 = a1 - a0\n134585: u64 [s1 + 0x1b8] = a0\n134589: a0 = u64 [s1 + 0x190]\n134593: u64 [s1 + 0x4d0] = a0\n134597: a0 = u64 [s1 + 0x198]\n134601: u64 [s1 + 0x4c8] = a0\n134605: a0 = u64 [s1 + 0x1a0]\n134609: u64 [s1 + 0x4c0] = a0\n134613: a0 = u64 [s1 + 0x188]\n134617: u64 [s1 + 0x4d8] = a0\n134621: u64 [s1 + 1112] = 0\n134625: u64 [s1 + 1104] = 0\n134629: u64 [s1 + 1096] = 0\n134633: u64 [s1 + 1088] = 0\n134637: u32 [s1 + 1248] = 0x20\n134642: i32 a1 = s1 + 0x4c0\n134646: i32 a3 = s1 + 0x440\n134650: i32 a4 = s1 + 0x4e0\n134654: a2 = 0xffffffffffffffff\n134657: a0 = 0\n134659: ecalli 7 // 'get_storage'\n134661: a0 = u64 [s1 + 0x188]\n134665: u64 [s1 + 0x4d8] = a0\n134669: a0 = u64 [s1 + 0x190]\n134673: u64 [s1 + 0x4d0] = a0\n134677: a0 = u64 [s1 + 0x198]\n134681: u64 [s1 + 0x4c8] = a0\n134685: a0 = u64 [s1 + 0x1a0]\n134689: u64 [s1 + 0x4c0] = a0\n134693: a0 = u64 [s1 + 0x1a8]\n134697: u64 [s1 + 0x458] = a0\n134701: a0 = u64 [s1 + 0x180]\n134705: u64 [s1 + 0x450] = a0\n134709: a0 = u64 [s1 + 0x1b0]\n134713: u64 [s1 + 0x448] = a0\n134717: a0 = u64 [s1 + 0x1b8]\n134721: u64 [s1 + 0x440] = a0\n134725: i32 a1 = s1 + 0x4c0\n134729: i32 a3 = s1 + 0x440\n134733: a2 = 0xffffffffffffffff\n134736: a4 = 0x20\n134739: a0 = 0\n134741: ecalli 15 // 'set_storage'\n134743: a0 = u64 [s1 + 0x1c0]\n134747: u64 [s1 + 0x4d8] = a0\n134751: a0 = u64 [s1 + 0x1c8]\n134755: u64 [s1 + 0x4d0] = a0\n134759: a0 = u64 [s1 + 0x1d0]\n134763: u64 [s1 + 0x4c8] = a0\n134767: a0 = u64 [s1 + 0x1d8]\n134771: u64 [s1 + 0x4c0] = a0\n134775: u64 [s1 + 1112] = 0\n134779: u64 [s1 + 1104] = 0\n134783: u64 [s1 + 1096] = 0\n134787: u64 [s1 + 1088] = 0\n134791: u32 [s1 + 1248] = 0x20\n134796: i32 a1 = s1 + 0x4c0\n134800: i32 a3 = s1 + 0x440\n134804: i32 a4 = s1 + 0x4e0\n134808: a2 = 0xffffffffffffffff\n134811: a0 = 0\n134813: ecalli 7 // 'get_storage'\n134815: a0 = u64 [s1 + 0x448]\n134819: a1 = u64 [s1 + 0x450]\n134823: a2 = u64 [s1 + 0x440]\n134827: a3 = u64 [s1 + 0x458]\n134831: a2 = a2 & 0xffffffffff00ffff\n134837: a2 = a2 | 0x10000\n134842: a4 = u64 [s1 + 0x1c0]\n134846: u64 [s1 + 0x4d8] = a4\n134850: a4 = u64 [s1 + 0x1c8]\n134854: u64 [s1 + 0x4d0] = a4\n134858: a4 = u64 [s1 + 0x1d0]\n134862: u64 [s1 + 0x4c8] = a4\n134866: a4 = u64 [s1 + 0x1d8]\n134870: u64 [s1 + 0x4c0] = a4\n134874: u64 [s1 + 0x458] = a3\n134878: u64 [s1 + 0x450] = a1\n134882: u64 [s1 + 0x448] = a0\n134886: u64 [s1 + 0x440] = a2\n134890: i32 a1 = s1 + 0x4c0\n134894: i32 a3 = s1 + 0x440\n134898: a2 = 0xffffffffffffffff\n134901: a4 = 0x20\n134904: a0 = 0\n134906: ecalli 15 // 'set_storage'\n134908: a0 = u64 [s1 + 0xb8]\n134912: u64 [s1 + 0x4d8] = a0\n134916: a0 = u64 [s1 + 0xb0]\n134920: u64 [s1 + 0x4d0] = a0\n134924: a0 = u64 [s1 + 0xa8]\n134928: u64 [s1 + 0x4c8] = a0\n134932: a0 = u64 [s1 + 0xa0]\n134936: u64 [s1 + 0x4c0] = a0\n134940: u64 [s1 + 1112] = 0\n134944: u64 [s1 + 1104] = 0\n134948: u64 [s1 + 1096] = 0\n134952: u64 [s1 + 1088] = 0\n134956: u32 [s1 + 1248] = 0x20\n134961: i32 a1 = s1 + 0x4c0\n134965: i32 a3 = s1 + 0x440\n134969: i32 a4 = s1 + 0x4e0\n134973: a2 = 0xffffffffffffffff\n134976: a0 = 0\n134978: ecalli 7 // 'get_storage'\n134980: a0 = u64 [s1 + 0x440]\n134984: a1 = u64 [s1 + 0x448]\n134988: a2 = u64 [s1 + 0x450]\n134992: a0 = a0 & 0xffffffffffffffff\n134995: u64 [s1 + 0x1d8] = a0\n134999: a1 = a1 & 0xffffffffffffffff\n135002: u64 [s1 + 0x1d0] = a1\n135006: a0 = u64 [s1 + 0x78]\n135009: a0 = a0 & a2\n135012: u64 [s1 + 0x1c8] = a0\n135016: a0 = u64 [s1 + 0xa0]\n135020: a0 = a0 + 0x1\n135023: a1 = a0 <u 0x1\n135026: a2 = u64 [s1 + 0xa8]\n135030: a1 = a1 + a2\n135033: a2 = a0 | a1\n135036: a2 = a2 <u 0x1\n135039: a3 = u64 [s1 + 0xb0]\n135043: a2 = a2 + a3\n135046: a3 = a2 <u a3\n135049: a4 = u64 [s1 + 0xb8]\n135053: a3 = a3 + a4\n135056: u64 [s1 + 0x4d8] = a3\n135060: u64 [s1 + 0x4d0] = a2\n135064: u64 [s1 + 0x4c8] = a1\n135068: u64 [s1 + 0x4c0] = a0\n135072: u64 [s1 + 1112] = 0\n135076: u64 [s1 + 1104] = 0\n135080: u64 [s1 + 1096] = 0\n135084: u64 [s1 + 1088] = 0\n135088: u32 [s1 + 1248] = 0x20\n135093: i32 a1 = s1 + 0x4c0\n135097: i32 a3 = s1 + 0x440\n135101: i32 a4 = s1 + 0x4e0\n135105: a2 = 0xffffffffffffffff\n135108: a0 = 0\n135110: ecalli 7 // 'get_storage'\n135112: a0 = u64 [s1 + 0x440]\n135116: a1 = u64 [s1 + 0x448]\n135120: a2 = u64 [s1 + 0x450]\n135124: a3 = u64 [s1 + 0x458]\n135128: u64 [s1 + 0x3d8] = a3\n135132: u64 [s1 + 0x3d0] = a2\n135136: u64 [s1 + 0x3c8] = a1\n135140: u64 [s1 + 0x3c0] = a0\n135144: u64 [s1 + 1016] = 0\n135148: a0 = u64 [s1 + 0x1c8]\n135152: u64 [s1 + 0x3f0] = a0\n135156: a0 = u64 [s1 + 0x1d0]\n135160: u64 [s1 + 0x3e8] = a0\n135164: a0 = s1 + 0x3e0\n135168: a1 = s1 + 0x3c0\n135172: a2 = u64 [s1 + 0x1d8]\n135176: u64 [s1 + 0x3e0] = a2\n135180: ra = 0x5a6\n135184: jump @1645\n      : @1561 (gas: 117)\n135187: a0 = u64 [s1 + 0x1c8]\n135191: u64 [s1 + 0x4d0] = a0\n135195: a0 = u64 [s1 + 0x1d0]\n135199: u64 [s1 + 0x4c8] = a0\n135203: a0 = u64 [s1 + 0x1d8]\n135207: u64 [s1 + 0x4c0] = a0\n135211: a0 = u64 [s1 + 0x1c0]\n135215: u64 [s1 + 0x4d8] = a0\n135219: u64 [s1 + 1112] = 0\n135223: u64 [s1 + 1104] = 0\n135227: u64 [s1 + 1096] = 0\n135231: u64 [s1 + 1088] = 0\n135235: u32 [s1 + 1248] = 0x20\n135240: i32 a1 = s1 + 0x4c0\n135244: i32 a3 = s1 + 0x440\n135248: i32 a4 = s1 + 0x4e0\n135252: a2 = 0xffffffffffffffff\n135255: a0 = 0\n135257: ecalli 7 // 'get_storage'\n135259: a0 = u64 [s1 + 0x448]\n135263: a1 = u64 [s1 + 0x450]\n135267: a2 = u64 [s1 + 0x440]\n135271: a3 = u64 [s1 + 0x458]\n135275: a2 = a2 & 0xffffffffff00ffff\n135281: a2 = a2 | 0x10000\n135286: a4 = u64 [s1 + 0x1c0]\n135290: u64 [s1 + 0x4d8] = a4\n135294: a4 = u64 [s1 + 0x1c8]\n135298: u64 [s1 + 0x4d0] = a4\n135302: a4 = u64 [s1 + 0x1d0]\n135306: u64 [s1 + 0x4c8] = a4\n135310: a4 = u64 [s1 + 0x1d8]\n135314: u64 [s1 + 0x4c0] = a4\n135318: u64 [s1 + 0x458] = a3\n135322: u64 [s1 + 0x450] = a1\n135326: u64 [s1 + 0x448] = a0\n135330: u64 [s1 + 0x440] = a2\n135334: i32 a1 = s1 + 0x4c0\n135338: i32 a3 = s1 + 0x440\n135342: a2 = 0xffffffffffffffff\n135345: a4 = 0x20\n135348: a0 = 0\n135350: ecalli 15 // 'set_storage'\n135352: a0 = u64 [s1 + 0x1a0]\n135356: u64 [s1 + 0x4d8] = a0\n135360: a0 = u64 [s1 + 0x1a8]\n135364: u64 [s1 + 0x4d0] = a0\n135368: a0 = u64 [s1 + 0x1b0]\n135372: u64 [s1 + 0x4c8] = a0\n135376: a0 = u64 [s1 + 0x1b8]\n135380: u64 [s1 + 0x4c0] = a0\n135384: u64 [s1 + 1112] = 0\n135388: u64 [s1 + 1104] = 0\n135392: u64 [s1 + 1096] = 0\n135396: u64 [s1 + 1088] = 0\n135400: u32 [s1 + 1248] = 0x20\n135405: i32 a1 = s1 + 0x4c0\n135409: i32 a3 = s1 + 0x440\n135413: i32 a4 = s1 + 0x4e0\n135417: a2 = 0xffffffffffffffff\n135420: a0 = 0\n135422: ecalli 7 // 'get_storage'\n135424: a0 = u64 [s1 + 0x440]\n135428: a1 = u64 [s1 + 0x448]\n135432: a2 = u64 [s1 + 0x450]\n135436: a0 = a0 & 0xffffffffffffffff\n135439: u64 [s1 + 0x1d8] = a0\n135443: a1 = a1 & 0xffffffffffffffff\n135446: u64 [s1 + 0x1d0] = a1\n135450: a0 = u64 [s1 + 0x78]\n135453: a0 = a0 & a2\n135456: u64 [s1 + 0x1c8] = a0\n135460: a0 = u64 [s1 + 0xa0]\n135464: a0 = a0 + 0x1\n135467: a1 = a0 <u 0x1\n135470: a2 = u64 [s1 + 0xa8]\n135474: a1 = a1 + a2\n135477: a2 = a0 | a1\n135480: a2 = a2 <u 0x1\n135483: a3 = u64 [s1 + 0xb0]\n135487: a2 = a2 + a3\n135490: a3 = a2 <u a3\n135493: a4 = u64 [s1 + 0xb8]\n135497: a3 = a3 + a4\n135500: u64 [s1 + 0x4d8] = a3\n135504: u64 [s1 + 0x4d0] = a2\n135508: u64 [s1 + 0x4c8] = a1\n135512: u64 [s1 + 0x4c0] = a0\n135516: u64 [s1 + 1112] = 0\n135520: u64 [s1 + 1104] = 0\n135524: u64 [s1 + 1096] = 0\n135528: u64 [s1 + 1088] = 0\n135532: u32 [s1 + 1248] = 0x20\n135537: i32 a1 = s1 + 0x4c0\n135541: i32 a3 = s1 + 0x440\n135545: i32 a4 = s1 + 0x4e0\n135549: a2 = 0xffffffffffffffff\n135552: a0 = 0\n135554: ecalli 7 // 'get_storage'\n135556: a0 = u64 [s1 + 0x440]\n135560: a1 = u64 [s1 + 0x448]\n135564: a2 = u64 [s1 + 0x450]\n135568: a3 = u64 [s1 + 0x458]\n135572: u64 [s1 + 0x318] = a3\n135576: u64 [s1 + 0x310] = a2\n135580: u64 [s1 + 0x308] = a1\n135584: u64 [s1 + 0x300] = a0\n135588: u64 [s1 + 824] = 0\n135592: a0 = u64 [s1 + 0x1c8]\n135596: u64 [s1 + 0x330] = a0\n135600: a0 = u64 [s1 + 0x1d0]\n135604: u64 [s1 + 0x328] = a0\n135608: a0 = s1 + 0x320\n135612: a1 = s1 + 0x300\n135616: a2 = u64 [s1 + 0x1d8]\n135620: u64 [s1 + 0x320] = a2\n135624: ra = 1446, jump @1645\n      : @1562 [@dyn 723] (gas: 47)\n135630: i32 a0 = s1 + 0x400\n135634: ecalli 5 // 'caller'\n135636: a0 = u64 [s1 + 0x408]\n135640: a1 = i32 [s1 + 0x410]\n135644: a2 = u64 [s1 + 0x400]\n135648: a0 = reverse a0\n135650: a3 = a0 << 0x20\n135653: a1 = reverse a1\n135655: a1 = a1 >> 0x20\n135658: a1 = a1 | a3\n135661: u64 [s1 + 0x1d8] = a1\n135665: a0 = a0 >> 0x20\n135668: a1 = reverse a2\n135670: a2 = a1 << 0x20\n135673: a0 = a0 | a2\n135676: u64 [s1 + 0x1d0] = a0\n135680: a1 = a1 >> 0x20\n135683: u64 [s1 + 0x1c8] = a1\n135687: a0 = sp + 0xffffffffffffffe0\n135690: a0 = a0 & 0xffffffffffffffe0\n135693: u64 [s1 + 0x1c0] = a0\n135697: sp = a0\n135699: u64 [a0 + 24] = 0\n135702: u64 [a0 + 16] = 0\n135705: u64 [a0 + 8] = 0\n135708: u64 [a0 + 0] = 0\n135710: i32 a0 = a0 + 0\n135712: ecalli 16 // 'value_transferred'\n135714: a3 = u64 [s1 + 0x1c0]\n135718: a0 = u64 [a3]\n135720: a1 = u64 [a3 + 0x8]\n135723: a2 = u64 [a3 + 0x10]\n135726: a3 = u64 [a3 + 0x18]\n135729: u64 [s1 + 0x2d8] = a3\n135733: u64 [s1 + 0x2d0] = a2\n135737: u64 [s1 + 0x2c8] = a1\n135741: u64 [s1 + 0x2c0] = a0\n135745: u64 [s1 + 760] = 0\n135749: a0 = u64 [s1 + 0x1c8]\n135753: u64 [s1 + 0x2f0] = a0\n135757: a0 = u64 [s1 + 0x1d0]\n135761: u64 [s1 + 0x2e8] = a0\n135765: a0 = s1 + 0x2e0\n135769: a1 = s1 + 0x2c0\n135773: a2 = u64 [s1 + 0x1d8]\n135777: u64 [s1 + 0x2e0] = a2\n135781: ra = 1448, jump @1645\n      : @1563 [@dyn 724] (gas: 11)\n135787: i32 a0 = s1 + 0x420\n135791: ecalli 5 // 'caller'\n135793: a0 = u32 [s1 + 0x430]\n135797: u64 [s1 + 0x1d0] = a0\n135801: a0 = u64 [s1 + 0x428]\n135805: u64 [s1 + 0x1c8] = a0\n135809: a0 = u64 [s1 + 0x420]\n135813: u64 [s1 + 0x1d8] = a0\n135817: a0 = 0x40\n135820: a1 = 0x20\n135823: ra = 1450, jump @0\n      : @1564 [@dyn 725] (gas: 100)\n135830: a1 = u8 [a0 + 0x11]\n135833: a2 = u8 [a0 + 0x10]\n135836: a3 = u8 [a0 + 0x12]\n135839: a4 = u8 [a0 + 0x13]\n135842: a1 = a1 << 0x8\n135845: a1 = a1 | a2\n135848: a3 = a3 << 0x10\n135851: a4 = a4 << 0x18\n135854: a3 = a3 | a4\n135857: a1 = a1 | a3\n135860: a2 = u8 [a0 + 0x15]\n135863: a3 = u8 [a0 + 0x14]\n135866: a4 = u8 [a0 + 0x16]\n135869: a5 = u8 [a0 + 0x17]\n135872: a2 = a2 << 0x8\n135875: a2 = a2 | a3\n135878: a4 = a4 << 0x10\n135881: a5 = a5 << 0x18\n135884: a4 = a4 | a5\n135887: a2 = a2 | a4\n135890: a2 = a2 << 0x20\n135893: t0 = a2 | a1\n135896: a2 = u8 [a0 + 0x1]\n135899: a3 = u8 [a0]\n135901: a4 = u8 [a0 + 0x2]\n135904: a5 = u8 [a0 + 0x3]\n135907: a2 = a2 << 0x8\n135910: a2 = a2 | a3\n135913: a4 = a4 << 0x10\n135916: a5 = a5 << 0x18\n135919: a4 = a4 | a5\n135922: a2 = a2 | a4\n135925: a3 = u8 [a0 + 0x5]\n135928: a4 = u8 [a0 + 0x4]\n135931: a5 = u8 [a0 + 0x6]\n135934: a1 = u8 [a0 + 0x7]\n135937: a3 = a3 << 0x8\n135940: a3 = a3 | a4\n135943: a5 = a5 << 0x10\n135946: a1 = a1 << 0x18\n135949: a1 = a1 | a5\n135952: a1 = a1 | a3\n135955: a1 = a1 << 0x20\n135958: t1 = a1 | a2\n135961: a1 = u8 [a0 + 0x19]\n135964: a3 = u8 [a0 + 0x18]\n135967: a4 = u8 [a0 + 0x1a]\n135970: a5 = u8 [a0 + 0x1b]\n135973: a1 = a1 << 0x8\n135976: a1 = a1 | a3\n135979: a4 = a4 << 0x10\n135982: a5 = a5 << 0x18\n135985: a4 = a4 | a5\n135988: a1 = a1 | a4\n135991: a3 = u8 [a0 + 0x1d]\n135994: a4 = u8 [a0 + 0x1c]\n135997: a5 = u8 [a0 + 0x1e]\n136000: a2 = u8 [a0 + 0x1f]\n136003: a3 = a3 << 0x8\n136006: a3 = a3 | a4\n136009: a5 = a5 << 0x10\n136012: a2 = a2 << 0x18\n136015: a2 = a2 | a5\n136018: a2 = a2 | a3\n136021: a2 = a2 << 0x20\n136024: a3 = a2 | a1\n136027: a1 = u8 [a0 + 0x9]\n136030: a2 = u8 [a0 + 0x8]\n136033: a4 = u8 [a0 + 0xa]\n136036: a5 = u8 [a0 + 0xb]\n136039: a1 = a1 << 0x8\n136042: a1 = a1 | a2\n136045: a4 = a4 << 0x10\n136048: a5 = a5 << 0x18\n136051: a4 = a4 | a5\n136054: a1 = a1 | a4\n136057: a2 = u8 [a0 + 0xd]\n136060: a4 = u8 [a0 + 0xc]\n136063: a5 = u8 [a0 + 0xe]\n136066: a0 = u8 [a0 + 0xf]\n136069: a2 = a2 << 0x8\n136072: a2 = a2 | a4\n136075: a5 = a5 << 0x10\n136078: a0 = a0 << 0x18\n136081: a0 = a0 | a5\n136084: a0 = a0 | a2\n136087: a0 = a0 << 0x20\n136090: a0 = a0 | a1\n136093: a1 = reverse a0\n136095: a0 = reverse a3\n136097: a2 = reverse t1\n136099: a3 = reverse t0\n136101: a2 = a2 | a3\n136104: a3 = a0 | a1\n136107: a3 = a3 | a2\n136110: a3 = a3 >> 0x20\n136113: a1 = a1 | a2\n136116: a1 = a1 << 0x20\n136119: a1 = a1 | a3\n136122: jump @1589 if a1 != 0\n      : @1565 (gas: 21)\n136126: a1 = u64 [s1 + 0x70]\n136129: a1 = a1 >u 0\n136131: u64 [s1 + 0x1c0] = a1\n136135: a1 = u64 [s1 + 0x1c8]\n136139: a1 = reverse a1\n136141: a2 = a1 << 0x20\n136144: a3 = u64 [s1 + 0x1d0]\n136148: a3 = reverse a3\n136150: a3 = a3 >> 0x20\n136153: a2 = a2 | a3\n136156: u64 [s1 + 0x1d0] = a2\n136160: a2 = u64 [s1 + 0x1d8]\n136164: a2 = reverse a2\n136166: a2 = a2 << 0x20\n136169: a1 = a1 >> 0x20\n136172: a1 = a1 | a2\n136175: u64 [s1 + 0x1c8] = a1\n136179: i32 a0 = a0 + 0\n136181: u64 [s1 + 0x1b8] = a0\n136185: a1 = 0x20\n136188: ra = 1452, jump @0\n      : @1566 [@dyn 726] (gas: 36)\n136195: u8 [a0 + 30] = 0\n136198: u8 [a0 + 29] = 0\n136201: u8 [a0 + 28] = 0\n136204: u8 [a0 + 27] = 0\n136207: u8 [a0 + 26] = 0\n136210: u8 [a0 + 25] = 0\n136213: u8 [a0 + 24] = 0\n136216: u8 [a0 + 23] = 0\n136219: u8 [a0 + 22] = 0\n136222: u8 [a0 + 21] = 0\n136225: u8 [a0 + 20] = 0\n136228: u8 [a0 + 19] = 0\n136231: u8 [a0 + 18] = 0\n136234: u8 [a0 + 17] = 0\n136237: u8 [a0 + 16] = 0\n136240: u8 [a0 + 15] = 0\n136243: u8 [a0 + 14] = 0\n136246: u8 [a0 + 13] = 0\n136249: u8 [a0 + 12] = 0\n136252: u8 [a0 + 11] = 0\n136255: u8 [a0 + 10] = 0\n136258: u8 [a0 + 9] = 0\n136261: u8 [a0 + 8] = 0\n136264: u8 [a0 + 7] = 0\n136267: u8 [a0 + 6] = 0\n136270: u8 [a0 + 5] = 0\n136273: u8 [a0 + 4] = 0\n136276: u8 [a0 + 3] = 0\n136279: u8 [a0 + 2] = 0\n136282: u8 [a0 + 1] = 0\n136285: u8 [a0 + 0] = 0\n136287: a1 = u64 [s1 + 0x1c0]\n136291: u8 [a0 + 0x1f] = a1\n136294: a1 = 0x20\n136297: a0 = u64 [s1 + 0x1b8]\n136301: ra = 1454, jump @0\n      : @1567 [@dyn 727] (gas: 45)\n136308: a1 = u64 [0x200e0]\n136313: a2 = u64 [0x200e8]\n136318: a3 = u64 [0x200f0]\n136323: a4 = u64 [0x200f8]\n136328: u64 [s1 + 0x458] = a1\n136332: u64 [s1 + 0x450] = a2\n136336: u64 [s1 + 0x448] = a3\n136340: u64 [s1 + 0x440] = a4\n136344: a1 = u64 [s1 + 0x1e0]\n136348: u64 [s1 + 0x478] = a1\n136352: a1 = u64 [s1 + 0x1e8]\n136356: u64 [s1 + 0x470] = a1\n136360: a1 = u64 [s1 + 0x1f0]\n136364: u64 [s1 + 0x468] = a1\n136368: a1 = u64 [s1 + 0x1f8]\n136372: u64 [s1 + 0x460] = a1\n136376: a1 = u64 [s1 + 0x40]\n136379: u64 [s1 + 0x498] = a1\n136383: a1 = u64 [s1 + 0x48]\n136386: u64 [s1 + 0x490] = a1\n136390: a1 = u64 [s1 + 0x50]\n136393: u64 [s1 + 0x488] = a1\n136397: a1 = u64 [s1 + 0x58]\n136400: u64 [s1 + 0x480] = a1\n136404: a1 = u64 [s1 + 0x1d0]\n136408: a1 = reverse a1\n136410: u64 [s1 + 0x4b8] = a1\n136414: a1 = u64 [s1 + 0x1c8]\n136418: a1 = reverse a1\n136420: u64 [s1 + 0x4b0] = a1\n136424: a1 = u64 [s1 + 0x1d8]\n136428: a1 = a1 << 0x20\n136431: u64 [s1 + 0x4a8] = a1\n136435: u64 [s1 + 1184] = 0\n136439: i32 a2 = a0 + 0\n136441: i32 a0 = s1 + 0x440\n136445: a1 = 0x4\n136448: a3 = 0x20\n136451: ecalli 6 // 'deposit_event'\n136453: sp = s0 + 0xfffffffffffffb00\n136457: ra = u64 [sp + 0x4f8]\n136461: s0 = u64 [sp + 0x4f0]\n136465: s1 = u64 [sp + 0x4e8]\n136469: sp = sp + 0x500\n136473: ret\n      : @1568 (gas: 3)\n136475: a0 = 0x40\n136478: a1 = 0x20\n136481: ra = 1456, jump @0\n      : @1569 [@dyn 728] (gas: 104)\n136488: a1 = u8 [a0 + 0x11]\n136491: a2 = u8 [a0 + 0x10]\n136494: a3 = u8 [a0 + 0x12]\n136497: a4 = u8 [a0 + 0x13]\n136500: a1 = a1 << 0x8\n136503: a1 = a1 | a2\n136506: a3 = a3 << 0x10\n136509: a4 = a4 << 0x18\n136512: a3 = a3 | a4\n136515: a1 = a1 | a3\n136518: a2 = u8 [a0 + 0x15]\n136521: a3 = u8 [a0 + 0x14]\n136524: a4 = u8 [a0 + 0x16]\n136527: a5 = u8 [a0 + 0x17]\n136530: a2 = a2 << 0x8\n136533: a2 = a2 | a3\n136536: a4 = a4 << 0x10\n136539: a5 = a5 << 0x18\n136542: a4 = a4 | a5\n136545: a2 = a2 | a4\n136548: a2 = a2 << 0x20\n136551: t0 = a2 | a1\n136554: a2 = u8 [a0 + 0x1]\n136557: a3 = u8 [a0]\n136559: a4 = u8 [a0 + 0x2]\n136562: a5 = u8 [a0 + 0x3]\n136565: a2 = a2 << 0x8\n136568: a2 = a2 | a3\n136571: a4 = a4 << 0x10\n136574: a5 = a5 << 0x18\n136577: a4 = a4 | a5\n136580: a2 = a2 | a4\n136583: a3 = u8 [a0 + 0x5]\n136586: a4 = u8 [a0 + 0x4]\n136589: a5 = u8 [a0 + 0x6]\n136592: a1 = u8 [a0 + 0x7]\n136595: a3 = a3 << 0x8\n136598: a3 = a3 | a4\n136601: a5 = a5 << 0x10\n136604: a1 = a1 << 0x18\n136607: a1 = a1 | a5\n136610: a1 = a1 | a3\n136613: a1 = a1 << 0x20\n136616: t1 = a1 | a2\n136619: a1 = u8 [a0 + 0x19]\n136622: a3 = u8 [a0 + 0x18]\n136625: a4 = u8 [a0 + 0x1a]\n136628: a5 = u8 [a0 + 0x1b]\n136631: a1 = a1 << 0x8\n136634: a1 = a1 | a3\n136637: a4 = a4 << 0x10\n136640: a5 = a5 << 0x18\n136643: a4 = a4 | a5\n136646: a1 = a1 | a4\n136649: a3 = u8 [a0 + 0x1d]\n136652: a4 = u8 [a0 + 0x1c]\n136655: a5 = u8 [a0 + 0x1e]\n136658: a2 = u8 [a0 + 0x1f]\n136661: a3 = a3 << 0x8\n136664: a3 = a3 | a4\n136667: a5 = a5 << 0x10\n136670: a2 = a2 << 0x18\n136673: a2 = a2 | a5\n136676: a2 = a2 | a3\n136679: a2 = a2 << 0x20\n136682: a3 = a2 | a1\n136685: a1 = u8 [a0 + 0x9]\n136688: a2 = u8 [a0 + 0x8]\n136691: a4 = u8 [a0 + 0xa]\n136694: a5 = u8 [a0 + 0xb]\n136697: a1 = a1 << 0x8\n136700: a1 = a1 | a2\n136703: a4 = a4 << 0x10\n136706: a5 = a5 << 0x18\n136709: a4 = a4 | a5\n136712: a1 = a1 | a4\n136715: a2 = u8 [a0 + 0xd]\n136718: a4 = u8 [a0 + 0xc]\n136721: a5 = u8 [a0 + 0xe]\n136724: a0 = u8 [a0 + 0xf]\n136727: a2 = a2 << 0x8\n136730: a2 = a2 | a4\n136733: a5 = a5 << 0x10\n136736: a0 = a0 << 0x18\n136739: a0 = a0 | a5\n136742: a0 = a0 | a2\n136745: a0 = a0 << 0x20\n136748: a0 = a0 | a1\n136751: a4 = reverse a0\n136753: a1 = reverse a3\n136755: a2 = reverse t1\n136757: a0 = reverse t0\n136759: u64 [s1 + 0x1f8] = a0\n136763: u64 [s1 + 0x1e8] = a2\n136767: a0 = a0 | a2\n136770: a2 = a1\n136772: a1 = a1 | a4\n136775: a1 = a1 | a0\n136778: a1 = a1 >> 0x20\n136781: u64 [s1 + 0x1f0] = a4\n136785: a0 = a0 | a4\n136788: a0 = a0 << 0x20\n136791: a0 = a0 | a1\n136794: jump @1589 if a0 != 0\n      : @1570 (gas: 5)\n136798: u64 [s1 + 0x1e0] = a2\n136802: i32 a0 = a2 + 0\n136804: a1 = 0x20\n136807: u64 [s1 + 0x1d8] = a0\n136811: ra = 1458, jump @0\n      : @1571 [@dyn 729] (gas: 51)\n136818: u8 [a0 + 31] = 0\n136821: u8 [a0 + 30] = 0\n136824: u8 [a0 + 29] = 0\n136827: u8 [a0 + 28] = 0\n136830: u8 [a0 + 27] = 0\n136833: u8 [a0 + 26] = 0\n136836: u8 [a0 + 25] = 0\n136839: u8 [a0 + 24] = 0\n136842: u8 [a0 + 23] = 0\n136845: u8 [a0 + 22] = 0\n136848: u8 [a0 + 21] = 0\n136851: u8 [a0 + 20] = 0\n136854: u8 [a0 + 19] = 0\n136857: u8 [a0 + 18] = 0\n136860: u8 [a0 + 17] = 0\n136863: u8 [a0 + 16] = 0\n136866: u8 [a0 + 15] = 0\n136869: u8 [a0 + 14] = 0\n136872: u8 [a0 + 13] = 0\n136875: u8 [a0 + 12] = 0\n136878: u8 [a0 + 11] = 0\n136881: u8 [a0 + 10] = 0\n136884: u8 [a0 + 9] = 0\n136887: u8 [a0 + 8] = 0\n136890: u8 [a0 + 7] = 0\n136893: u8 [a0 + 6] = 0\n136896: u8 [a0 + 5] = 0\n136899: u8 [a0 + 4] = 0\n136902: u8 [a0 + 3] = 0xa0\n136907: u8 [a0 + 2] = 0x79\n136911: u8 [a0 + 1] = 0xc3\n136916: u8 [a0 + 0] = 0x8\n136919: a1 = u64 [s1 + 0x1e0]\n136923: a0 = a1 + 0x4\n136926: a1 = a0 <u a1\n136929: a3 = u64 [s1 + 0x1f8]\n136933: a2 = a3 + a1\n136936: a3 = a2 <u a3\n136939: a3 = a1 if a1 == 0\n136942: a1 = u64 [s1 + 0x1f0]\n136946: a3 = a3 + a1\n136949: a1 = a3 <u a1\n136952: a4 = u64 [s1 + 0x1e8]\n136956: a4 = a4 + a1\n136959: u64 [s1 + 0x248] = a2\n136963: u64 [s1 + 0x240] = a0\n136967: u64 [s1 + 0x250] = a3\n136971: a0 = s1 + 0x260\n136975: a1 = s1 + 0x240\n136979: u64 [s1 + 0x258] = a4\n136983: ra = 1460, jump @1503\n      : @1572 [@dyn 730] (gas: 5)\n136989: a0 = u64 [s1 + 0x268]\n136993: t0 = u64 [s1 + 0x278]\n136997: t1 = u64 [s1 + 0x260]\n137001: a3 = u64 [s1 + 0x270]\n137005: jump @1588\n      : @1573 (gas: 3)\n137008: a0 = 0x40\n137011: a1 = 0x20\n137014: ra = 1462, jump @0\n      : @1574 [@dyn 731] (gas: 104)\n137021: a1 = u8 [a0 + 0x11]\n137024: a2 = u8 [a0 + 0x10]\n137027: a3 = u8 [a0 + 0x12]\n137030: a4 = u8 [a0 + 0x13]\n137033: a1 = a1 << 0x8\n137036: a1 = a1 | a2\n137039: a3 = a3 << 0x10\n137042: a4 = a4 << 0x18\n137045: a3 = a3 | a4\n137048: a1 = a1 | a3\n137051: a2 = u8 [a0 + 0x15]\n137054: a3 = u8 [a0 + 0x14]\n137057: a4 = u8 [a0 + 0x16]\n137060: a5 = u8 [a0 + 0x17]\n137063: a2 = a2 << 0x8\n137066: a2 = a2 | a3\n137069: a4 = a4 << 0x10\n137072: a5 = a5 << 0x18\n137075: a4 = a4 | a5\n137078: a2 = a2 | a4\n137081: a2 = a2 << 0x20\n137084: t0 = a2 | a1\n137087: a2 = u8 [a0 + 0x1]\n137090: a3 = u8 [a0]\n137092: a4 = u8 [a0 + 0x2]\n137095: a5 = u8 [a0 + 0x3]\n137098: a2 = a2 << 0x8\n137101: a2 = a2 | a3\n137104: a4 = a4 << 0x10\n137107: a5 = a5 << 0x18\n137110: a4 = a4 | a5\n137113: a2 = a2 | a4\n137116: a3 = u8 [a0 + 0x5]\n137119: a4 = u8 [a0 + 0x4]\n137122: a5 = u8 [a0 + 0x6]\n137125: a1 = u8 [a0 + 0x7]\n137128: a3 = a3 << 0x8\n137131: a3 = a3 | a4\n137134: a5 = a5 << 0x10\n137137: a1 = a1 << 0x18\n137140: a1 = a1 | a5\n137143: a1 = a1 | a3\n137146: a1 = a1 << 0x20\n137149: t1 = a1 | a2\n137152: a1 = u8 [a0 + 0x19]\n137155: a3 = u8 [a0 + 0x18]\n137158: a4 = u8 [a0 + 0x1a]\n137161: a5 = u8 [a0 + 0x1b]\n137164: a1 = a1 << 0x8\n137167: a1 = a1 | a3\n137170: a4 = a4 << 0x10\n137173: a5 = a5 << 0x18\n137176: a4 = a4 | a5\n137179: a1 = a1 | a4\n137182: a3 = u8 [a0 + 0x1d]\n137185: a4 = u8 [a0 + 0x1c]\n137188: a5 = u8 [a0 + 0x1e]\n137191: a2 = u8 [a0 + 0x1f]\n137194: a3 = a3 << 0x8\n137197: a3 = a3 | a4\n137200: a5 = a5 << 0x10\n137203: a2 = a2 << 0x18\n137206: a2 = a2 | a5\n137209: a2 = a2 | a3\n137212: a2 = a2 << 0x20\n137215: a3 = a2 | a1\n137218: a1 = u8 [a0 + 0x9]\n137221: a2 = u8 [a0 + 0x8]\n137224: a4 = u8 [a0 + 0xa]\n137227: a5 = u8 [a0 + 0xb]\n137230: a1 = a1 << 0x8\n137233: a1 = a1 | a2\n137236: a4 = a4 << 0x10\n137239: a5 = a5 << 0x18\n137242: a4 = a4 | a5\n137245: a1 = a1 | a4\n137248: a2 = u8 [a0 + 0xd]\n137251: a4 = u8 [a0 + 0xc]\n137254: a5 = u8 [a0 + 0xe]\n137257: a0 = u8 [a0 + 0xf]\n137260: a2 = a2 << 0x8\n137263: a2 = a2 | a4\n137266: a5 = a5 << 0x10\n137269: a0 = a0 << 0x18\n137272: a0 = a0 | a5\n137275: a0 = a0 | a2\n137278: a0 = a0 << 0x20\n137281: a0 = a0 | a1\n137284: a4 = reverse a0\n137286: a1 = reverse a3\n137288: a2 = reverse t1\n137290: a0 = reverse t0\n137292: u64 [s1 + 0x1f8] = a0\n137296: u64 [s1 + 0x1e8] = a2\n137300: a0 = a0 | a2\n137303: a2 = a1\n137305: a1 = a1 | a4\n137308: a1 = a1 | a0\n137311: a1 = a1 >> 0x20\n137314: u64 [s1 + 0x1f0] = a4\n137318: a0 = a0 | a4\n137321: a0 = a0 << 0x20\n137324: a0 = a0 | a1\n137327: jump @1589 if a0 != 0\n      : @1575 (gas: 5)\n137331: u64 [s1 + 0x1e0] = a2\n137335: i32 a0 = a2 + 0\n137337: a1 = 0x20\n137340: u64 [s1 + 0x1d8] = a0\n137344: ra = 1464, jump @0\n      : @1576 [@dyn 732] (gas: 51)\n137351: u8 [a0 + 31] = 0\n137354: u8 [a0 + 30] = 0\n137357: u8 [a0 + 29] = 0\n137360: u8 [a0 + 28] = 0\n137363: u8 [a0 + 27] = 0\n137366: u8 [a0 + 26] = 0\n137369: u8 [a0 + 25] = 0\n137372: u8 [a0 + 24] = 0\n137375: u8 [a0 + 23] = 0\n137378: u8 [a0 + 22] = 0\n137381: u8 [a0 + 21] = 0\n137384: u8 [a0 + 20] = 0\n137387: u8 [a0 + 19] = 0\n137390: u8 [a0 + 18] = 0\n137393: u8 [a0 + 17] = 0\n137396: u8 [a0 + 16] = 0\n137399: u8 [a0 + 15] = 0\n137402: u8 [a0 + 14] = 0\n137405: u8 [a0 + 13] = 0\n137408: u8 [a0 + 12] = 0\n137411: u8 [a0 + 11] = 0\n137414: u8 [a0 + 10] = 0\n137417: u8 [a0 + 9] = 0\n137420: u8 [a0 + 8] = 0\n137423: u8 [a0 + 7] = 0\n137426: u8 [a0 + 6] = 0\n137429: u8 [a0 + 5] = 0\n137432: u8 [a0 + 4] = 0\n137435: u8 [a0 + 3] = 0xa0\n137440: u8 [a0 + 2] = 0x79\n137444: u8 [a0 + 1] = 0xc3\n137449: u8 [a0 + 0] = 0x8\n137452: a1 = u64 [s1 + 0x1e0]\n137456: a0 = a1 + 0x4\n137459: a1 = a0 <u a1\n137462: a3 = u64 [s1 + 0x1f8]\n137466: a2 = a3 + a1\n137469: a3 = a2 <u a3\n137472: a3 = a1 if a1 == 0\n137475: a1 = u64 [s1 + 0x1f0]\n137479: a3 = a3 + a1\n137482: a1 = a3 <u a1\n137485: a4 = u64 [s1 + 0x1e8]\n137489: a4 = a4 + a1\n137492: u64 [s1 + 0x208] = a2\n137496: u64 [s1 + 0x200] = a0\n137500: u64 [s1 + 0x210] = a3\n137504: a0 = s1 + 0x220\n137508: a1 = s1 + 0x200\n137512: u64 [s1 + 0x218] = a4\n137516: ra = 1466, jump @1208\n      : @1577 [@dyn 733] (gas: 5)\n137523: a0 = u64 [s1 + 0x228]\n137527: t0 = u64 [s1 + 0x238]\n137531: t1 = u64 [s1 + 0x220]\n137535: a3 = u64 [s1 + 0x230]\n137539: jump @1588\n      : @1578 (gas: 3)\n137542: a0 = 0x40\n137545: a1 = 0x20\n137548: ra = 1468, jump @0\n      : @1579 [@dyn 734] (gas: 104)\n137555: a1 = u8 [a0 + 0x11]\n137558: a2 = u8 [a0 + 0x10]\n137561: a3 = u8 [a0 + 0x12]\n137564: a4 = u8 [a0 + 0x13]\n137567: a1 = a1 << 0x8\n137570: a1 = a1 | a2\n137573: a3 = a3 << 0x10\n137576: a4 = a4 << 0x18\n137579: a3 = a3 | a4\n137582: a1 = a1 | a3\n137585: a2 = u8 [a0 + 0x15]\n137588: a3 = u8 [a0 + 0x14]\n137591: a4 = u8 [a0 + 0x16]\n137594: a5 = u8 [a0 + 0x17]\n137597: a2 = a2 << 0x8\n137600: a2 = a2 | a3\n137603: a4 = a4 << 0x10\n137606: a5 = a5 << 0x18\n137609: a4 = a4 | a5\n137612: a2 = a2 | a4\n137615: a2 = a2 << 0x20\n137618: t0 = a2 | a1\n137621: a2 = u8 [a0 + 0x1]\n137624: a3 = u8 [a0]\n137626: a4 = u8 [a0 + 0x2]\n137629: a5 = u8 [a0 + 0x3]\n137632: a2 = a2 << 0x8\n137635: a2 = a2 | a3\n137638: a4 = a4 << 0x10\n137641: a5 = a5 << 0x18\n137644: a4 = a4 | a5\n137647: a2 = a2 | a4\n137650: a3 = u8 [a0 + 0x5]\n137653: a4 = u8 [a0 + 0x4]\n137656: a5 = u8 [a0 + 0x6]\n137659: a1 = u8 [a0 + 0x7]\n137662: a3 = a3 << 0x8\n137665: a3 = a3 | a4\n137668: a5 = a5 << 0x10\n137671: a1 = a1 << 0x18\n137674: a1 = a1 | a5\n137677: a1 = a1 | a3\n137680: a1 = a1 << 0x20\n137683: t1 = a1 | a2\n137686: a1 = u8 [a0 + 0x19]\n137689: a3 = u8 [a0 + 0x18]\n137692: a4 = u8 [a0 + 0x1a]\n137695: a5 = u8 [a0 + 0x1b]\n137698: a1 = a1 << 0x8\n137701: a1 = a1 | a3\n137704: a4 = a4 << 0x10\n137707: a5 = a5 << 0x18\n137710: a4 = a4 | a5\n137713: a1 = a1 | a4\n137716: a3 = u8 [a0 + 0x1d]\n137719: a4 = u8 [a0 + 0x1c]\n137722: a5 = u8 [a0 + 0x1e]\n137725: a2 = u8 [a0 + 0x1f]\n137728: a3 = a3 << 0x8\n137731: a3 = a3 | a4\n137734: a5 = a5 << 0x10\n137737: a2 = a2 << 0x18\n137740: a2 = a2 | a5\n137743: a2 = a2 | a3\n137746: a2 = a2 << 0x20\n137749: a3 = a2 | a1\n137752: a1 = u8 [a0 + 0x9]\n137755: a2 = u8 [a0 + 0x8]\n137758: a4 = u8 [a0 + 0xa]\n137761: a5 = u8 [a0 + 0xb]\n137764: a1 = a1 << 0x8\n137767: a1 = a1 | a2\n137770: a4 = a4 << 0x10\n137773: a5 = a5 << 0x18\n137776: a4 = a4 | a5\n137779: a1 = a1 | a4\n137782: a2 = u8 [a0 + 0xd]\n137785: a4 = u8 [a0 + 0xc]\n137788: a5 = u8 [a0 + 0xe]\n137791: a0 = u8 [a0 + 0xf]\n137794: a2 = a2 << 0x8\n137797: a2 = a2 | a4\n137800: a5 = a5 << 0x10\n137803: a0 = a0 << 0x18\n137806: a0 = a0 | a5\n137809: a0 = a0 | a2\n137812: a0 = a0 << 0x20\n137815: a0 = a0 | a1\n137818: a4 = reverse a0\n137820: a1 = reverse a3\n137822: a2 = reverse t1\n137824: a0 = reverse t0\n137826: u64 [s1 + 0x1f8] = a0\n137830: u64 [s1 + 0x1e8] = a2\n137834: a0 = a0 | a2\n137837: a2 = a1\n137839: a1 = a1 | a4\n137842: a1 = a1 | a0\n137845: a1 = a1 >> 0x20\n137848: u64 [s1 + 0x1f0] = a4\n137852: a0 = a0 | a4\n137855: a0 = a0 << 0x20\n137858: a0 = a0 | a1\n137861: jump @1589 if a0 != 0\n      : @1580 (gas: 5)\n137865: u64 [s1 + 0x1e0] = a2\n137869: i32 a0 = a2 + 0\n137871: a1 = 0x20\n137874: u64 [s1 + 0x1d8] = a0\n137878: ra = 1470, jump @0\n      : @1581 [@dyn 735] (gas: 51)\n137885: u8 [a0 + 31] = 0\n137888: u8 [a0 + 30] = 0\n137891: u8 [a0 + 29] = 0\n137894: u8 [a0 + 28] = 0\n137897: u8 [a0 + 27] = 0\n137900: u8 [a0 + 26] = 0\n137903: u8 [a0 + 25] = 0\n137906: u8 [a0 + 24] = 0\n137909: u8 [a0 + 23] = 0\n137912: u8 [a0 + 22] = 0\n137915: u8 [a0 + 21] = 0\n137918: u8 [a0 + 20] = 0\n137921: u8 [a0 + 19] = 0\n137924: u8 [a0 + 18] = 0\n137927: u8 [a0 + 17] = 0\n137930: u8 [a0 + 16] = 0\n137933: u8 [a0 + 15] = 0\n137936: u8 [a0 + 14] = 0\n137939: u8 [a0 + 13] = 0\n137942: u8 [a0 + 12] = 0\n137945: u8 [a0 + 11] = 0\n137948: u8 [a0 + 10] = 0\n137951: u8 [a0 + 9] = 0\n137954: u8 [a0 + 8] = 0\n137957: u8 [a0 + 7] = 0\n137960: u8 [a0 + 6] = 0\n137963: u8 [a0 + 5] = 0\n137966: u8 [a0 + 4] = 0\n137969: u8 [a0 + 3] = 0xa0\n137974: u8 [a0 + 2] = 0x79\n137978: u8 [a0 + 1] = 0xc3\n137983: u8 [a0 + 0] = 0x8\n137986: a1 = u64 [s1 + 0x1e0]\n137990: a0 = a1 + 0x4\n137993: a1 = a0 <u a1\n137996: a3 = u64 [s1 + 0x1f8]\n138000: a2 = a3 + a1\n138003: a3 = a2 <u a3\n138006: a3 = a1 if a1 == 0\n138009: a1 = u64 [s1 + 0x1f0]\n138013: a3 = a3 + a1\n138016: a1 = a3 <u a1\n138019: a4 = u64 [s1 + 0x1e8]\n138023: a4 = a4 + a1\n138026: u64 [s1 + 0x288] = a2\n138030: u64 [s1 + 0x280] = a0\n138034: u64 [s1 + 0x290] = a3\n138038: a0 = s1 + 0x2a0\n138042: a1 = s1 + 0x280\n138046: u64 [s1 + 0x298] = a4\n138050: ra = 1472, jump @1511\n      : @1582 [@dyn 736] (gas: 5)\n138056: a0 = u64 [s1 + 0x2a8]\n138060: t0 = u64 [s1 + 0x2b8]\n138064: t1 = u64 [s1 + 0x2a0]\n138068: a3 = u64 [s1 + 0x2b0]\n138072: jump @1588\n      : @1583 (gas: 3)\n138075: a0 = 0x40\n138078: a1 = 0x20\n138081: ra = 1474, jump @0\n      : @1584 [@dyn 737] (gas: 104)\n138088: a1 = u8 [a0 + 0x11]\n138091: a2 = u8 [a0 + 0x10]\n138094: a3 = u8 [a0 + 0x12]\n138097: a4 = u8 [a0 + 0x13]\n138100: a1 = a1 << 0x8\n138103: a1 = a1 | a2\n138106: a3 = a3 << 0x10\n138109: a4 = a4 << 0x18\n138112: a3 = a3 | a4\n138115: a1 = a1 | a3\n138118: a2 = u8 [a0 + 0x15]\n138121: a3 = u8 [a0 + 0x14]\n138124: a4 = u8 [a0 + 0x16]\n138127: a5 = u8 [a0 + 0x17]\n138130: a2 = a2 << 0x8\n138133: a2 = a2 | a3\n138136: a4 = a4 << 0x10\n138139: a5 = a5 << 0x18\n138142: a4 = a4 | a5\n138145: a2 = a2 | a4\n138148: a2 = a2 << 0x20\n138151: t0 = a2 | a1\n138154: a2 = u8 [a0 + 0x1]\n138157: a3 = u8 [a0]\n138159: a4 = u8 [a0 + 0x2]\n138162: a5 = u8 [a0 + 0x3]\n138165: a2 = a2 << 0x8\n138168: a2 = a2 | a3\n138171: a4 = a4 << 0x10\n138174: a5 = a5 << 0x18\n138177: a4 = a4 | a5\n138180: a2 = a2 | a4\n138183: a3 = u8 [a0 + 0x5]\n138186: a4 = u8 [a0 + 0x4]\n138189: a5 = u8 [a0 + 0x6]\n138192: a1 = u8 [a0 + 0x7]\n138195: a3 = a3 << 0x8\n138198: a3 = a3 | a4\n138201: a5 = a5 << 0x10\n138204: a1 = a1 << 0x18\n138207: a1 = a1 | a5\n138210: a1 = a1 | a3\n138213: a1 = a1 << 0x20\n138216: t1 = a1 | a2\n138219: a1 = u8 [a0 + 0x19]\n138222: a3 = u8 [a0 + 0x18]\n138225: a4 = u8 [a0 + 0x1a]\n138228: a5 = u8 [a0 + 0x1b]\n138231: a1 = a1 << 0x8\n138234: a1 = a1 | a3\n138237: a4 = a4 << 0x10\n138240: a5 = a5 << 0x18\n138243: a4 = a4 | a5\n138246: a1 = a1 | a4\n138249: a3 = u8 [a0 + 0x1d]\n138252: a4 = u8 [a0 + 0x1c]\n138255: a5 = u8 [a0 + 0x1e]\n138258: a2 = u8 [a0 + 0x1f]\n138261: a3 = a3 << 0x8\n138264: a3 = a3 | a4\n138267: a5 = a5 << 0x10\n138270: a2 = a2 << 0x18\n138273: a2 = a2 | a5\n138276: a2 = a2 | a3\n138279: a2 = a2 << 0x20\n138282: a3 = a2 | a1\n138285: a1 = u8 [a0 + 0x9]\n138288: a2 = u8 [a0 + 0x8]\n138291: a4 = u8 [a0 + 0xa]\n138294: a5 = u8 [a0 + 0xb]\n138297: a1 = a1 << 0x8\n138300: a1 = a1 | a2\n138303: a4 = a4 << 0x10\n138306: a5 = a5 << 0x18\n138309: a4 = a4 | a5\n138312: a1 = a1 | a4\n138315: a2 = u8 [a0 + 0xd]\n138318: a4 = u8 [a0 + 0xc]\n138321: a5 = u8 [a0 + 0xe]\n138324: a0 = u8 [a0 + 0xf]\n138327: a2 = a2 << 0x8\n138330: a2 = a2 | a4\n138333: a5 = a5 << 0x10\n138336: a0 = a0 << 0x18\n138339: a0 = a0 | a5\n138342: a0 = a0 | a2\n138345: a0 = a0 << 0x20\n138348: a0 = a0 | a1\n138351: a4 = reverse a0\n138353: a1 = reverse a3\n138355: a2 = reverse t1\n138357: a0 = reverse t0\n138359: u64 [s1 + 0x1f8] = a0\n138363: u64 [s1 + 0x1e8] = a2\n138367: a0 = a0 | a2\n138370: a2 = a1\n138372: a1 = a1 | a4\n138375: a1 = a1 | a0\n138378: a1 = a1 >> 0x20\n138381: u64 [s1 + 0x1f0] = a4\n138385: a0 = a0 | a4\n138388: a0 = a0 << 0x20\n138391: a0 = a0 | a1\n138394: jump @1589 if a0 != 0\n      : @1585 (gas: 5)\n138398: u64 [s1 + 0x1e0] = a2\n138402: i32 a0 = a2 + 0\n138404: a1 = 0x20\n138407: u64 [s1 + 0x1d8] = a0\n138411: ra = 1476, jump @0\n      : @1586 [@dyn 738] (gas: 51)\n138418: u8 [a0 + 31] = 0\n138421: u8 [a0 + 30] = 0\n138424: u8 [a0 + 29] = 0\n138427: u8 [a0 + 28] = 0\n138430: u8 [a0 + 27] = 0\n138433: u8 [a0 + 26] = 0\n138436: u8 [a0 + 25] = 0\n138439: u8 [a0 + 24] = 0\n138442: u8 [a0 + 23] = 0\n138445: u8 [a0 + 22] = 0\n138448: u8 [a0 + 21] = 0\n138451: u8 [a0 + 20] = 0\n138454: u8 [a0 + 19] = 0\n138457: u8 [a0 + 18] = 0\n138460: u8 [a0 + 17] = 0\n138463: u8 [a0 + 16] = 0\n138466: u8 [a0 + 15] = 0\n138469: u8 [a0 + 14] = 0\n138472: u8 [a0 + 13] = 0\n138475: u8 [a0 + 12] = 0\n138478: u8 [a0 + 11] = 0\n138481: u8 [a0 + 10] = 0\n138484: u8 [a0 + 9] = 0\n138487: u8 [a0 + 8] = 0\n138490: u8 [a0 + 7] = 0\n138493: u8 [a0 + 6] = 0\n138496: u8 [a0 + 5] = 0\n138499: u8 [a0 + 4] = 0\n138502: u8 [a0 + 3] = 0xa0\n138507: u8 [a0 + 2] = 0x79\n138511: u8 [a0 + 1] = 0xc3\n138516: u8 [a0 + 0] = 0x8\n138519: a1 = u64 [s1 + 0x1e0]\n138523: a0 = a1 + 0x4\n138526: a1 = a0 <u a1\n138529: a3 = u64 [s1 + 0x1f8]\n138533: a2 = a3 + a1\n138536: a3 = a2 <u a3\n138539: a3 = a1 if a1 == 0\n138542: a1 = u64 [s1 + 0x1f0]\n138546: a3 = a3 + a1\n138549: a1 = a3 <u a1\n138552: a4 = u64 [s1 + 0x1e8]\n138556: a4 = a4 + a1\n138559: u64 [s1 + 0x348] = a2\n138563: u64 [s1 + 0x340] = a0\n138567: u64 [s1 + 0x350] = a3\n138571: a0 = s1 + 0x360\n138575: a1 = s1 + 0x340\n138579: u64 [s1 + 0x358] = a4\n138583: ra = 1478, jump @1519\n      : @1587 [@dyn 739] (gas: 5)\n138589: a0 = u64 [s1 + 0x368]\n138593: t0 = u64 [s1 + 0x378]\n138597: t1 = u64 [s1 + 0x360]\n138601: a3 = u64 [s1 + 0x370]\n138605: fallthrough\n      : @1588 (gas: 27)\n138606: a1 = u64 [s1 + 0x1f8]\n138610: a4 = a0 ^ a1\n138613: a5 = a0 <u a1\n138616: ra = a1\n138618: t2 = u64 [s1 + 0x1e0]\n138622: a1 = t1 <u t2\n138625: a5 = a1 if a4 == 0\n138628: a2 = u64 [s1 + 0x1f0]\n138632: a4 = a3 - a2\n138635: a3 = a3 <u a2\n138638: a2 = u64 [s1 + 0x1e8]\n138642: a2 = t0 - a2\n138645: a2 = a2 - a3\n138648: a3 = a4 <u a5\n138651: a2 = a2 - a3\n138654: a4 = a4 - a5\n138657: a0 = a0 - ra\n138660: a1 = a0 - a1\n138663: a0 = t1 - t2\n138666: a1 = a1 | a2\n138669: a2 = a0 | a4\n138672: a2 = a2 | a1\n138675: a1 = a1 | a4\n138678: a2 = a2 >> 0x20\n138681: a1 = a1 << 0x20\n138684: a1 = a1 | a2\n138687: jump @1594 if a1 == 0\n      : @1589 (gas: 1)\n138690: trap\n      : @1590 (gas: 8)\n138691: u64 [s1 + 944] = 0\n138695: u64 [s1 + 936] = 0\n138699: u64 [s1 + 928] = 0\n138703: a0 = 0x4e487b7100000000\n138713: a1 = s1 + 0x3a0\n138717: u64 [s1 + 0x3b8] = a0\n138721: a0 = 0\n138723: ra = 1480, jump @23\n      : @1591 [@dyn 740] (gas: 7)\n138730: u64 [s1 + 920] = 0\n138734: u64 [s1 + 912] = 0\n138738: u64 [s1 + 896] = 0x11\n138743: a0 = 0x4\n138746: a1 = s1 + 0x380\n138750: u64 [s1 + 904] = 0\n138754: ra = 1482, jump @23\n      : @1592 [@dyn 741] (gas: 3)\n138761: a1 = 0x24\n138764: a0 = 0\n138766: ra = 1484, jump @0\n      : @1593 [@dyn 742] (gas: 5)\n138773: i32 a1 = a0 + 0\n138775: a0 = 0x1\n138778: a2 = 0x24\n138781: ecalli 13 // 'seal_return'\n138783: fallthrough\n      : @1594 (gas: 4)\n138784: i32 a1 = a0 + 0\n138786: u64 [s1 + 0x1f8] = a1\n138790: a0 = u64 [s1 + 0x1d8]\n138794: ra = 1486, jump @0\n      : @1595 [@dyn 743] (gas: 6)\n138801: i32 a1 = a0 + 0\n138803: a0 = 0x1\n138806: a2 = u64 [s1 + 0x1f8]\n138810: ra = 0x5d0\n138814: ecalli 13 // 'seal_return'\n138816: fallthrough\n      : @1596 [@dyn 744] (gas: 36)\n138817: sp = sp + 0xffffffffffffff70\n138821: u64 [sp + 0x88] = ra\n138825: u64 [sp + 0x80] = s0\n138829: u64 [sp + 0x78] = s1\n138832: s0 = sp + 0x90\n138836: sp = sp & 0xfffffffffffffff0\n138839: a3 = u64 [a0]\n138841: u64 [sp + 0x8] = a3\n138844: t1 = u64 [a0 + 0x8]\n138847: t2 = u64 [a0 + 0x10]\n138850: ra = u64 [a0 + 0x18]\n138853: t0 = u64 [a1]\n138855: a4 = u64 [a1 + 0x8]\n138858: a5 = u64 [a1 + 0x10]\n138861: a3 = u64 [a1 + 0x18]\n138864: s1 = u64 [a2]\n138866: a1 = u64 [a2 + 0x8]\n138869: a0 = u64 [a2 + 0x10]\n138872: a2 = u64 [a2 + 0x18]\n138875: u64 [sp + 0x28] = a2\n138878: u64 [sp + 0x20] = a0\n138881: u64 [sp + 0x18] = a1\n138884: u64 [sp + 0x10] = s1\n138887: u64 [sp + 0x48] = a3\n138890: u64 [sp + 0x40] = a5\n138893: u64 [sp + 0x38] = a4\n138896: u64 [sp + 0x30] = t0\n138899: u64 [sp + 0x68] = ra\n138902: u64 [sp + 0x60] = t2\n138905: u64 [sp + 0x58] = t1\n138908: a0 = sp + 0x50\n138911: a1 = sp + 0x30\n138914: a2 = sp + 0x10\n138917: a3 = u64 [sp + 0x8]\n138920: u64 [sp + 0x50] = a3\n138923: ra = 1490, jump @1487\n      : @1597 [@dyn 745] (gas: 6)\n138929: sp = s0 + 0xffffffffffffff70\n138933: ra = u64 [sp + 0x88]\n138937: s0 = u64 [sp + 0x80]\n138941: s1 = u64 [sp + 0x78]\n138944: sp = sp + 0x90\n138948: ret\n      : @1598 (gas: 43)\n138950: sp = sp + 0xfffffffffffffee0\n138954: u64 [sp + 0x118] = ra\n138958: u64 [sp + 0x110] = s0\n138962: u64 [sp + 0x108] = s1\n138966: s0 = sp + 0x120\n138970: sp = sp & 0xffffffffffffffe0\n138973: s1 = sp\n138975: a4 = u64 [a3 + 0x18]\n138978: u64 [s1 + 0x20] = a4\n138981: a4 = u64 [a3 + 0x10]\n138984: u64 [s1 + 0x28] = a4\n138987: a4 = u64 [a3 + 0x8]\n138990: u64 [s1 + 0x30] = a4\n138993: a3 = u64 [a3]\n138995: u64 [s1 + 0x38] = a3\n138998: a3 = u64 [a2 + 0x18]\n139001: u64 [s1 + 0x40] = a3\n139004: a3 = u64 [a2 + 0x10]\n139007: u64 [s1 + 0x48] = a3\n139010: a3 = u64 [a2 + 0x8]\n139013: u64 [s1 + 0x50] = a3\n139016: a2 = u64 [a2]\n139018: u64 [s1 + 0x58] = a2\n139021: a2 = u64 [a1 + 0x18]\n139024: u64 [s1 + 0x68] = a2\n139027: a2 = u64 [a1 + 0x10]\n139030: u64 [s1 + 0x70] = a2\n139033: a2 = u64 [a1 + 0x8]\n139036: u64 [s1 + 0x78] = a2\n139039: a1 = u64 [a1]\n139041: u64 [s1 + 0x80] = a1\n139045: u64 [s1 + 0x18] = a0\n139048: i32 a0 = s1 + 0xe0\n139052: ecalli 0 // 'address'\n139053: a0 = u32 [s1 + 0xf0]\n139057: u64 [s1 + 0xd0] = a0\n139061: a0 = u64 [s1 + 0xe8]\n139065: u64 [s1 + 0x98] = a0\n139069: a0 = u64 [s1 + 0xe0]\n139073: u64 [s1 + 0xc0] = a0\n139077: a0 = 0x40\n139080: a1 = 0x20\n139083: ra = 1492, jump @0\n      : @1599 [@dyn 746] (gas: 116)\n139090: a1 = u8 [a0 + 0x19]\n139093: a2 = u8 [a0 + 0x18]\n139096: a3 = u8 [a0 + 0x1a]\n139099: a4 = u8 [a0 + 0x1b]\n139102: a1 = a1 << 0x8\n139105: a1 = a1 | a2\n139108: a3 = a3 << 0x10\n139111: a4 = a4 << 0x18\n139114: a3 = a3 | a4\n139117: a1 = a1 | a3\n139120: a2 = u8 [a0 + 0x1d]\n139123: a3 = u8 [a0 + 0x1c]\n139126: a4 = u8 [a0 + 0x1e]\n139129: a5 = u8 [a0 + 0x1f]\n139132: a2 = a2 << 0x8\n139135: a2 = a2 | a3\n139138: a4 = a4 << 0x10\n139141: a5 = a5 << 0x18\n139144: a4 = a4 | a5\n139147: a2 = a2 | a4\n139150: a2 = a2 << 0x20\n139153: t0 = a2 | a1\n139156: a2 = u8 [a0 + 0x11]\n139159: a3 = u8 [a0 + 0x10]\n139162: a4 = u8 [a0 + 0x12]\n139165: a5 = u8 [a0 + 0x13]\n139168: a2 = a2 << 0x8\n139171: a2 = a2 | a3\n139174: a4 = a4 << 0x10\n139177: a5 = a5 << 0x18\n139180: a4 = a4 | a5\n139183: a2 = a2 | a4\n139186: a3 = u8 [a0 + 0x15]\n139189: a4 = u8 [a0 + 0x14]\n139192: a5 = u8 [a0 + 0x16]\n139195: a1 = u8 [a0 + 0x17]\n139198: a3 = a3 << 0x8\n139201: a3 = a3 | a4\n139204: a5 = a5 << 0x10\n139207: a1 = a1 << 0x18\n139210: a1 = a1 | a5\n139213: a1 = a1 | a3\n139216: a1 = a1 << 0x20\n139219: t1 = a1 | a2\n139222: a1 = u8 [a0 + 0x9]\n139225: a3 = u8 [a0 + 0x8]\n139228: a4 = u8 [a0 + 0xa]\n139231: a5 = u8 [a0 + 0xb]\n139234: a1 = a1 << 0x8\n139237: a1 = a1 | a3\n139240: a4 = a4 << 0x10\n139243: a5 = a5 << 0x18\n139246: a4 = a4 | a5\n139249: a1 = a1 | a4\n139252: a3 = u8 [a0 + 0xd]\n139255: a4 = u8 [a0 + 0xc]\n139258: a5 = u8 [a0 + 0xe]\n139261: a2 = u8 [a0 + 0xf]\n139264: a3 = a3 << 0x8\n139267: a3 = a3 | a4\n139270: a5 = a5 << 0x10\n139273: a2 = a2 << 0x18\n139276: a2 = a2 | a5\n139279: a2 = a2 | a3\n139282: a2 = a2 << 0x20\n139285: a3 = a2 | a1\n139288: a1 = u8 [a0 + 0x1]\n139291: a2 = u8 [a0]\n139293: a4 = u8 [a0 + 0x2]\n139296: a5 = u8 [a0 + 0x3]\n139299: a1 = a1 << 0x8\n139302: a1 = a1 | a2\n139305: a4 = a4 << 0x10\n139308: a5 = a5 << 0x18\n139311: a4 = a4 | a5\n139314: a1 = a1 | a4\n139317: a2 = u8 [a0 + 0x5]\n139320: a4 = u8 [a0 + 0x4]\n139323: a5 = u8 [a0 + 0x6]\n139326: a0 = u8 [a0 + 0x7]\n139329: a2 = a2 << 0x8\n139332: a2 = a2 | a4\n139335: a5 = a5 << 0x10\n139338: a0 = a0 << 0x18\n139341: a0 = a0 | a5\n139344: a0 = a0 | a2\n139347: a0 = a0 << 0x20\n139350: a0 = a0 | a1\n139353: a2 = reverse a0\n139355: a3 = reverse a3\n139357: a1 = reverse t1\n139359: a0 = reverse t0\n139361: a4 = a0 + 0x20\n139364: u64 [s1 + 0xa0] = a0\n139368: a0 = a4 <u a0\n139371: a5 = a1 + a0\n139374: u64 [s1 + 0xa8] = a1\n139378: a1 = a5 <u a1\n139381: a1 = a0 if a0 == 0\n139384: a1 = a1 + a3\n139387: u64 [s1 + 0xb0] = a3\n139391: a0 = a1 <u a3\n139394: u64 [s1 + 0xb8] = a2\n139398: a2 = a2 + a0\n139401: u64 [s1 + 0xd8] = a4\n139405: a0 = a4 | a1\n139408: u64 [s1 + 0xc8] = a5\n139412: u64 [s1 + 0x88] = a2\n139416: a2 = a2 | a5\n139419: a0 = a0 | a2\n139422: a0 = a0 >> 0x20\n139425: u64 [s1 + 0x90] = a1\n139429: a1 = a1 | a2\n139432: a1 = a1 << 0x20\n139435: a0 = a0 | a1\n139438: jump @1614 if a0 != 0\n      : @1600 (gas: 18)\n139442: a0 = u64 [s1 + 0xc0]\n139446: a0 = reverse a0\n139448: a0 = a0 << 0x20\n139451: a1 = u64 [s1 + 0x98]\n139455: a1 = reverse a1\n139457: a2 = a1 >> 0x20\n139460: a0 = a0 | a2\n139463: u64 [s1 + 0x98] = a0\n139467: a1 = a1 << 0x20\n139470: a0 = u64 [s1 + 0xd0]\n139474: a0 = reverse a0\n139476: a0 = a0 >> 0x20\n139479: a0 = a0 | a1\n139482: u64 [s1 + 0x60] = a0\n139485: a0 = i32 [s1 + 0xd8]\n139489: a1 = 0x20\n139492: u64 [s1 + 0xd0] = a0\n139496: ra = 1494, jump @0\n      : @1601 [@dyn 747] (gas: 67)\n139503: a1 = u64 [s1 + 0x60]\n139506: a1 = reverse a1\n139508: a2 = u64 [s1 + 0x98]\n139512: a2 = reverse a2\n139514: a4 = u64 [s1 + 0xc0]\n139518: a3 = a4 >> 0x18\n139521: u8 [a0 + 0xf] = a3\n139524: a3 = a4 >> 0x10\n139527: u8 [a0 + 0xe] = a3\n139530: a3 = a4 >> 0x8\n139533: u8 [a0 + 0xd] = a3\n139536: u8 [a0 + 0xc] = a4\n139539: u8 [a0 + 11] = 0\n139542: u8 [a0 + 10] = 0\n139545: u8 [a0 + 9] = 0\n139548: u8 [a0 + 8] = 0\n139551: u8 [a0 + 7] = 0\n139554: u8 [a0 + 6] = 0\n139557: u8 [a0 + 5] = 0\n139560: u8 [a0 + 4] = 0\n139563: u8 [a0 + 3] = 0\n139566: u8 [a0 + 2] = 0\n139569: u8 [a0 + 1] = 0\n139572: u8 [a0 + 0] = 0\n139574: u8 [a0 + 0x10] = a2\n139577: u8 [a0 + 0x18] = a1\n139580: a3 = a2 >> 0x38\n139583: u8 [a0 + 0x17] = a3\n139586: a3 = a2 >> 0x30\n139589: u8 [a0 + 0x16] = a3\n139592: a3 = a2 >> 0x28\n139595: u8 [a0 + 0x15] = a3\n139598: a3 = a2 >> 0x20\n139601: u8 [a0 + 0x14] = a3\n139604: a3 = a2 >> 0x18\n139607: u8 [a0 + 0x13] = a3\n139610: a3 = a2 >> 0x10\n139613: u8 [a0 + 0x12] = a3\n139616: a2 = a2 >> 0x8\n139619: u8 [a0 + 0x11] = a2\n139622: a2 = a1 >> 0x38\n139625: u8 [a0 + 0x1f] = a2\n139628: a2 = a1 >> 0x30\n139631: u8 [a0 + 0x1e] = a2\n139634: a2 = a1 >> 0x28\n139637: u8 [a0 + 0x1d] = a2\n139640: a2 = a1 >> 0x20\n139643: u8 [a0 + 0x1c] = a2\n139646: a2 = a1 >> 0x18\n139649: u8 [a0 + 0x1b] = a2\n139652: a2 = a1 >> 0x10\n139655: u8 [a0 + 0x1a] = a2\n139658: a1 = a1 >> 0x8\n139661: a2 = u64 [s1 + 0x90]\n139665: a4 = u64 [s1 + 0x88]\n139669: a4 = a4 | a2\n139672: a2 = 0x100000000\n139682: u64 [s1 + 0x98] = a2\n139686: a2 = 0xffffffe0\n139696: a3 = u64 [s1 + 0xd8]\n139700: a2 = a3 <u a2\n139703: a3 = u64 [s1 + 0xc8]\n139707: a2 = 0 if a3 != 0\n139709: u64 [s1 + 0xc0] = a4\n139713: a2 = 0 if a4 != 0\n139715: u8 [a0 + 0x19] = a1\n139718: jump @1614 if a2 == 0\n      : @1602 (gas: 4)\n139722: a0 = u64 [s1 + 0xd0]\n139726: i32 a0 = a0 + 0x20\n139729: a1 = 0x20\n139732: ra = 1496, jump @0\n      : @1603 [@dyn 748] (gas: 77)\n139739: a1 = u64 [s1 + 0x68]\n139742: a1 = reverse a1\n139744: a2 = u64 [s1 + 0x70]\n139747: a2 = reverse a2\n139749: a3 = u64 [s1 + 0x78]\n139752: a3 = reverse a3\n139754: a4 = u64 [s1 + 0x80]\n139758: a4 = reverse a4\n139760: a5 = a4 >> 0x38\n139763: u8 [a0 + 0x1f] = a5\n139766: a5 = a4 >> 0x30\n139769: u8 [a0 + 0x1e] = a5\n139772: a5 = a4 >> 0x28\n139775: u8 [a0 + 0x1d] = a5\n139778: a5 = a4 >> 0x20\n139781: u8 [a0 + 0x1c] = a5\n139784: a5 = a4 >> 0x18\n139787: u8 [a0 + 0x1b] = a5\n139790: a5 = a4 >> 0x10\n139793: u8 [a0 + 0x1a] = a5\n139796: a5 = a4 >> 0x8\n139799: u8 [a0 + 0x19] = a5\n139802: u8 [a0 + 0x18] = a4\n139805: u8 [a0 + 0x10] = a3\n139808: a4 = a3 >> 0x38\n139811: u8 [a0 + 0x17] = a4\n139814: a4 = a3 >> 0x30\n139817: u8 [a0 + 0x16] = a4\n139820: a4 = a3 >> 0x28\n139823: u8 [a0 + 0x15] = a4\n139826: a4 = a3 >> 0x20\n139829: u8 [a0 + 0x14] = a4\n139832: a4 = a3 >> 0x18\n139835: u8 [a0 + 0x13] = a4\n139838: a4 = a3 >> 0x10\n139841: u8 [a0 + 0x12] = a4\n139844: a3 = a3 >> 0x8\n139847: u8 [a0 + 0x11] = a3\n139850: u8 [a0 + 0x8] = a2\n139853: a3 = a2 >> 0x38\n139856: u8 [a0 + 0xf] = a3\n139859: a3 = a2 >> 0x30\n139862: u8 [a0 + 0xe] = a3\n139865: a3 = a2 >> 0x28\n139868: u8 [a0 + 0xd] = a3\n139871: a3 = a2 >> 0x20\n139874: u8 [a0 + 0xc] = a3\n139877: a3 = a2 >> 0x18\n139880: u8 [a0 + 0xb] = a3\n139883: a3 = a2 >> 0x10\n139886: u8 [a0 + 0xa] = a3\n139889: a2 = a2 >> 0x8\n139892: u8 [a0 + 0x9] = a2\n139895: u8 [a0] = a1\n139897: a2 = a1 >> 0x38\n139900: u8 [a0 + 0x7] = a2\n139903: a2 = a1 >> 0x30\n139906: u8 [a0 + 0x6] = a2\n139909: a2 = a1 >> 0x28\n139912: u8 [a0 + 0x5] = a2\n139915: a2 = a1 >> 0x20\n139918: u8 [a0 + 0x4] = a2\n139921: a2 = a1 >> 0x18\n139924: u8 [a0 + 0x3] = a2\n139927: a2 = a1 >> 0x10\n139930: u8 [a0 + 0x2] = a2\n139933: a1 = a1 >> 0x8\n139936: a2 = u64 [s1 + 0x98]\n139940: a2 = a2 + 0xffffffffffffffc0\n139943: a3 = u64 [s1 + 0xd8]\n139947: a2 = a3 <u a2\n139950: a3 = u64 [s1 + 0xc8]\n139954: a2 = 0 if a3 != 0\n139956: a3 = u64 [s1 + 0xc0]\n139960: a2 = 0 if a3 != 0\n139962: u8 [a0 + 0x1] = a1\n139965: jump @1614 if a2 == 0\n      : @1604 (gas: 4)\n139969: a0 = u64 [s1 + 0xd0]\n139973: i32 a0 = a0 + 0x40\n139976: a1 = 0x20\n139979: ra = 1498, jump @0\n      : @1605 [@dyn 749] (gas: 76)\n139986: a1 = u64 [s1 + 0x40]\n139989: a1 = reverse a1\n139991: a2 = u64 [s1 + 0x48]\n139994: a2 = reverse a2\n139996: a3 = u64 [s1 + 0x50]\n139999: a3 = reverse a3\n140001: a4 = u64 [s1 + 0x58]\n140004: a4 = reverse a4\n140006: a5 = a4 >> 0x38\n140009: u8 [a0 + 0x1f] = a5\n140012: a5 = a4 >> 0x30\n140015: u8 [a0 + 0x1e] = a5\n140018: a5 = a4 >> 0x28\n140021: u8 [a0 + 0x1d] = a5\n140024: a5 = a4 >> 0x20\n140027: u8 [a0 + 0x1c] = a5\n140030: a5 = a4 >> 0x18\n140033: u8 [a0 + 0x1b] = a5\n140036: a5 = a4 >> 0x10\n140039: u8 [a0 + 0x1a] = a5\n140042: a5 = a4 >> 0x8\n140045: u8 [a0 + 0x19] = a5\n140048: u8 [a0 + 0x18] = a4\n140051: u8 [a0 + 0x10] = a3\n140054: a4 = a3 >> 0x38\n140057: u8 [a0 + 0x17] = a4\n140060: a4 = a3 >> 0x30\n140063: u8 [a0 + 0x16] = a4\n140066: a4 = a3 >> 0x28\n140069: u8 [a0 + 0x15] = a4\n140072: a4 = a3 >> 0x20\n140075: u8 [a0 + 0x14] = a4\n140078: a4 = a3 >> 0x18\n140081: u8 [a0 + 0x13] = a4\n140084: a4 = a3 >> 0x10\n140087: u8 [a0 + 0x12] = a4\n140090: a3 = a3 >> 0x8\n140093: u8 [a0 + 0x11] = a3\n140096: u8 [a0 + 0x8] = a2\n140099: a3 = a2 >> 0x38\n140102: u8 [a0 + 0xf] = a3\n140105: a3 = a2 >> 0x30\n140108: u8 [a0 + 0xe] = a3\n140111: a3 = a2 >> 0x28\n140114: u8 [a0 + 0xd] = a3\n140117: a3 = a2 >> 0x20\n140120: u8 [a0 + 0xc] = a3\n140123: a3 = a2 >> 0x18\n140126: u8 [a0 + 0xb] = a3\n140129: a3 = a2 >> 0x10\n140132: u8 [a0 + 0xa] = a3\n140135: a2 = a2 >> 0x8\n140138: u8 [a0 + 0x9] = a2\n140141: u8 [a0] = a1\n140143: a2 = a1 >> 0x38\n140146: u8 [a0 + 0x7] = a2\n140149: a2 = a1 >> 0x30\n140152: u8 [a0 + 0x6] = a2\n140155: a2 = a1 >> 0x28\n140158: u8 [a0 + 0x5] = a2\n140161: a2 = a1 >> 0x20\n140164: u8 [a0 + 0x4] = a2\n140167: a2 = a1 >> 0x18\n140170: u8 [a0 + 0x3] = a2\n140173: a2 = a1 >> 0x10\n140176: u8 [a0 + 0x2] = a2\n140179: a1 = a1 >> 0x8\n140182: a2 = 0xffffffa0\n140192: a3 = u64 [s1 + 0xd8]\n140196: a2 = a3 <u a2\n140199: a3 = u64 [s1 + 0xc8]\n140203: a2 = 0 if a3 != 0\n140205: a3 = u64 [s1 + 0xc0]\n140209: a2 = 0 if a3 != 0\n140211: u8 [a0 + 0x1] = a1\n140214: jump @1614 if a2 == 0\n      : @1606 (gas: 4)\n140218: a0 = u64 [s1 + 0xd0]\n140222: i32 a0 = a0 + 0x60\n140225: a1 = 0x20\n140228: ra = 1500, jump @0\n      : @1607 [@dyn 750] (gas: 80)\n140235: a1 = u64 [s1 + 0x20]\n140238: a1 = reverse a1\n140240: a2 = u64 [s1 + 0x28]\n140243: a2 = reverse a2\n140245: a3 = u64 [s1 + 0x30]\n140248: a3 = reverse a3\n140250: a4 = u64 [s1 + 0x38]\n140253: a4 = reverse a4\n140255: a5 = a4 >> 0x38\n140258: u8 [a0 + 0x1f] = a5\n140261: a5 = a4 >> 0x30\n140264: u8 [a0 + 0x1e] = a5\n140267: a5 = a4 >> 0x28\n140270: u8 [a0 + 0x1d] = a5\n140273: a5 = a4 >> 0x20\n140276: u8 [a0 + 0x1c] = a5\n140279: a5 = a4 >> 0x18\n140282: u8 [a0 + 0x1b] = a5\n140285: a5 = a4 >> 0x10\n140288: u8 [a0 + 0x1a] = a5\n140291: a5 = a4 >> 0x8\n140294: u8 [a0 + 0x19] = a5\n140297: u8 [a0 + 0x18] = a4\n140300: u8 [a0 + 0x10] = a3\n140303: a4 = a3 >> 0x38\n140306: u8 [a0 + 0x17] = a4\n140309: a4 = a3 >> 0x30\n140312: u8 [a0 + 0x16] = a4\n140315: a4 = a3 >> 0x28\n140318: u8 [a0 + 0x15] = a4\n140321: a4 = a3 >> 0x20\n140324: u8 [a0 + 0x14] = a4\n140327: a4 = a3 >> 0x18\n140330: u8 [a0 + 0x13] = a4\n140333: a4 = a3 >> 0x10\n140336: u8 [a0 + 0x12] = a4\n140339: a3 = a3 >> 0x8\n140342: u8 [a0 + 0x11] = a3\n140345: u8 [a0 + 0x8] = a2\n140348: a3 = a2 >> 0x38\n140351: u8 [a0 + 0xf] = a3\n140354: a3 = a2 >> 0x30\n140357: u8 [a0 + 0xe] = a3\n140360: a3 = a2 >> 0x28\n140363: u8 [a0 + 0xd] = a3\n140366: a3 = a2 >> 0x20\n140369: u8 [a0 + 0xc] = a3\n140372: a3 = a2 >> 0x18\n140375: u8 [a0 + 0xb] = a3\n140378: a3 = a2 >> 0x10\n140381: u8 [a0 + 0xa] = a3\n140384: a2 = a2 >> 0x8\n140387: u8 [a0 + 0x9] = a2\n140390: u8 [a0] = a1\n140392: a2 = a1 >> 0x38\n140395: u8 [a0 + 0x7] = a2\n140398: a2 = a1 >> 0x30\n140401: u8 [a0 + 0x6] = a2\n140404: a2 = a1 >> 0x28\n140407: u8 [a0 + 0x5] = a2\n140410: a2 = a1 >> 0x20\n140413: u8 [a0 + 0x4] = a2\n140416: a2 = a1 >> 0x18\n140419: u8 [a0 + 0x3] = a2\n140422: a2 = a1 >> 0x10\n140425: u8 [a0 + 0x2] = a2\n140428: t0 = a1 >> 0x8\n140431: a5 = u64 [s1 + 0xb0]\n140435: a4 = u64 [s1 + 0xa0]\n140439: a2 = a4 | a5\n140442: a3 = u64 [s1 + 0xb8]\n140446: a1 = u64 [s1 + 0xa8]\n140450: a3 = a3 | a1\n140453: a2 = a2 | a3\n140456: a2 = a2 >> 0x20\n140459: a3 = a3 | a5\n140462: a3 = a3 << 0x20\n140465: a2 = a2 | a3\n140468: u8 [a0 + 0x1] = t0\n140471: jump @1614 if a2 != 0\n      : @1608 (gas: 4)\n140475: i32 a0 = a4 + 0\n140477: u64 [s1 + 0xd8] = a0\n140481: a1 = 0x20\n140484: ra = 1502, jump @0\n      : @1609 [@dyn 751] (gas: 51)\n140491: u8 [a0 + 31] = 0x80\n140496: u8 [a0 + 30] = 0\n140499: u8 [a0 + 29] = 0\n140502: u8 [a0 + 28] = 0\n140505: u8 [a0 + 27] = 0\n140508: u8 [a0 + 26] = 0\n140511: u8 [a0 + 25] = 0\n140514: u8 [a0 + 24] = 0\n140517: u8 [a0 + 23] = 0\n140520: u8 [a0 + 22] = 0\n140523: u8 [a0 + 21] = 0\n140526: u8 [a0 + 20] = 0\n140529: u8 [a0 + 19] = 0\n140532: u8 [a0 + 18] = 0\n140535: u8 [a0 + 17] = 0\n140538: u8 [a0 + 16] = 0\n140541: u8 [a0 + 15] = 0\n140544: u8 [a0 + 14] = 0\n140547: u8 [a0 + 13] = 0\n140550: u8 [a0 + 12] = 0\n140553: u8 [a0 + 11] = 0\n140556: u8 [a0 + 10] = 0\n140559: u8 [a0 + 9] = 0\n140562: u8 [a0 + 8] = 0\n140565: u8 [a0 + 7] = 0\n140568: u8 [a0 + 6] = 0\n140571: u8 [a0 + 5] = 0\n140574: u8 [a0 + 4] = 0\n140577: u8 [a0 + 3] = 0\n140580: u8 [a0 + 2] = 0\n140583: u8 [a0 + 1] = 0\n140586: u8 [a0 + 0] = 0\n140588: a0 = u64 [s1 + 0xa0]\n140592: a1 = a0 + 0xa0\n140596: u64 [s1 + 0xc8] = a1\n140600: a0 = a1 <u a0\n140603: a1 = u64 [s1 + 0xa8]\n140607: a2 = a1 + a0\n140610: u64 [s1 + 0xc0] = a2\n140614: a1 = a2 <u a1\n140617: a1 = a0 if a0 == 0\n140620: a0 = u64 [s1 + 0xb0]\n140624: a1 = a1 + a0\n140627: u64 [s1 + 0xa8] = a1\n140631: a0 = a1 <u a0\n140634: a1 = u64 [s1 + 0xb8]\n140638: a0 = a0 + a1\n140641: u64 [s1 + 0xb8] = a0\n140645: a0 = 0x40\n140648: a1 = 0x20\n140651: ra = 1504, jump @0\n      : @1610 [@dyn 752] (gas: 71)\n140658: a1 = u64 [s1 + 0xb8]\n140662: a1 = reverse a1\n140664: a2 = u64 [s1 + 0xa8]\n140668: a2 = reverse a2\n140670: a3 = u64 [s1 + 0xc0]\n140674: a3 = reverse a3\n140676: a4 = u64 [s1 + 0xc8]\n140680: a4 = reverse a4\n140682: a5 = a4 >> 0x38\n140685: u8 [a0 + 0x1f] = a5\n140688: a5 = a4 >> 0x30\n140691: u8 [a0 + 0x1e] = a5\n140694: a5 = a4 >> 0x28\n140697: u8 [a0 + 0x1d] = a5\n140700: a5 = a4 >> 0x20\n140703: u8 [a0 + 0x1c] = a5\n140706: a5 = a4 >> 0x18\n140709: u8 [a0 + 0x1b] = a5\n140712: a5 = a4 >> 0x10\n140715: u8 [a0 + 0x1a] = a5\n140718: a5 = a4 >> 0x8\n140721: u8 [a0 + 0x19] = a5\n140724: u8 [a0 + 0x18] = a4\n140727: a4 = a3 >> 0x38\n140730: u8 [a0 + 0x17] = a4\n140733: a4 = a3 >> 0x30\n140736: u8 [a0 + 0x16] = a4\n140739: a4 = a3 >> 0x28\n140742: u8 [a0 + 0x15] = a4\n140745: a4 = a3 >> 0x20\n140748: u8 [a0 + 0x14] = a4\n140751: a4 = a3 >> 0x18\n140754: u8 [a0 + 0x13] = a4\n140757: a4 = a3 >> 0x10\n140760: u8 [a0 + 0x12] = a4\n140763: a4 = a3 >> 0x8\n140766: u8 [a0 + 0x11] = a4\n140769: u8 [a0 + 0x10] = a3\n140772: u8 [a0 + 0x8] = a2\n140775: a3 = a2 >> 0x38\n140778: u8 [a0 + 0xf] = a3\n140781: a3 = a2 >> 0x30\n140784: u8 [a0 + 0xe] = a3\n140787: a3 = a2 >> 0x28\n140790: u8 [a0 + 0xd] = a3\n140793: a3 = a2 >> 0x20\n140796: u8 [a0 + 0xc] = a3\n140799: a3 = a2 >> 0x18\n140802: u8 [a0 + 0xb] = a3\n140805: a3 = a2 >> 0x10\n140808: u8 [a0 + 0xa] = a3\n140811: a2 = a2 >> 0x8\n140814: u8 [a0 + 0x9] = a2\n140817: u8 [a0] = a1\n140819: a2 = a1 >> 0x38\n140822: u8 [a0 + 0x7] = a2\n140825: a2 = a1 >> 0x30\n140828: u8 [a0 + 0x6] = a2\n140831: a2 = a1 >> 0x28\n140834: u8 [a0 + 0x5] = a2\n140837: a2 = a1 >> 0x20\n140840: u8 [a0 + 0x4] = a2\n140843: a2 = a1 >> 0x18\n140846: u8 [a0 + 0x3] = a2\n140849: a2 = a1 >> 0x10\n140852: u8 [a0 + 0x2] = a2\n140855: a1 = a1 >> 0x8\n140858: u8 [a0 + 0x1] = a1\n140861: a1 = 0x20\n140864: a0 = u64 [s1 + 0xd8]\n140868: ra = 1506, jump @0\n      : @1611 [@dyn 753] (gas: 100)\n140875: a1 = u8 [a0 + 0x11]\n140878: a2 = u8 [a0 + 0x10]\n140881: a3 = u8 [a0 + 0x12]\n140884: a4 = u8 [a0 + 0x13]\n140887: a1 = a1 << 0x8\n140890: a1 = a1 | a2\n140893: a3 = a3 << 0x10\n140896: a4 = a4 << 0x18\n140899: a3 = a3 | a4\n140902: a1 = a1 | a3\n140905: a2 = u8 [a0 + 0x15]\n140908: a3 = u8 [a0 + 0x14]\n140911: a4 = u8 [a0 + 0x16]\n140914: a5 = u8 [a0 + 0x17]\n140917: a2 = a2 << 0x8\n140920: a2 = a2 | a3\n140923: a4 = a4 << 0x10\n140926: a5 = a5 << 0x18\n140929: a4 = a4 | a5\n140932: a2 = a2 | a4\n140935: a2 = a2 << 0x20\n140938: t0 = a2 | a1\n140941: a2 = u8 [a0 + 0x1]\n140944: a3 = u8 [a0]\n140946: a4 = u8 [a0 + 0x2]\n140949: a5 = u8 [a0 + 0x3]\n140952: a2 = a2 << 0x8\n140955: a2 = a2 | a3\n140958: a4 = a4 << 0x10\n140961: a5 = a5 << 0x18\n140964: a4 = a4 | a5\n140967: a2 = a2 | a4\n140970: a3 = u8 [a0 + 0x5]\n140973: a4 = u8 [a0 + 0x4]\n140976: a5 = u8 [a0 + 0x6]\n140979: a1 = u8 [a0 + 0x7]\n140982: a3 = a3 << 0x8\n140985: a3 = a3 | a4\n140988: a5 = a5 << 0x10\n140991: a1 = a1 << 0x18\n140994: a1 = a1 | a5\n140997: a1 = a1 | a3\n141000: a1 = a1 << 0x20\n141003: t1 = a1 | a2\n141006: a1 = u8 [a0 + 0x19]\n141009: a3 = u8 [a0 + 0x18]\n141012: a4 = u8 [a0 + 0x1a]\n141015: a5 = u8 [a0 + 0x1b]\n141018: a1 = a1 << 0x8\n141021: a1 = a1 | a3\n141024: a4 = a4 << 0x10\n141027: a5 = a5 << 0x18\n141030: a4 = a4 | a5\n141033: a1 = a1 | a4\n141036: a3 = u8 [a0 + 0x1d]\n141039: a4 = u8 [a0 + 0x1c]\n141042: a5 = u8 [a0 + 0x1e]\n141045: a2 = u8 [a0 + 0x1f]\n141048: a3 = a3 << 0x8\n141051: a3 = a3 | a4\n141054: a5 = a5 << 0x10\n141057: a2 = a2 << 0x18\n141060: a2 = a2 | a5\n141063: a2 = a2 | a3\n141066: a2 = a2 << 0x20\n141069: a3 = a2 | a1\n141072: a1 = u8 [a0 + 0x9]\n141075: a2 = u8 [a0 + 0x8]\n141078: a4 = u8 [a0 + 0xa]\n141081: a5 = u8 [a0 + 0xb]\n141084: a1 = a1 << 0x8\n141087: a1 = a1 | a2\n141090: a4 = a4 << 0x10\n141093: a5 = a5 << 0x18\n141096: a4 = a4 | a5\n141099: a1 = a1 | a4\n141102: a2 = u8 [a0 + 0xd]\n141105: a4 = u8 [a0 + 0xc]\n141108: a5 = u8 [a0 + 0xe]\n141111: a0 = u8 [a0 + 0xf]\n141114: a2 = a2 << 0x8\n141117: a2 = a2 | a4\n141120: a5 = a5 << 0x10\n141123: a0 = a0 << 0x18\n141126: a0 = a0 | a5\n141129: a0 = a0 | a2\n141132: a0 = a0 << 0x20\n141135: a0 = a0 | a1\n141138: a1 = reverse a0\n141140: a0 = reverse a3\n141142: a2 = reverse t1\n141144: a3 = reverse t0\n141146: a2 = a2 | a3\n141149: a3 = a0 | a1\n141152: a3 = a3 | a2\n141155: a3 = a3 >> 0x20\n141158: a1 = a1 | a2\n141161: a1 = a1 << 0x20\n141164: a1 = a1 | a3\n141167: jump @1614 if a1 != 0\n      : @1612 (gas: 4)\n141170: i32 a1 = a0 + 0\n141172: u64 [s1 + 0xd8] = a1\n141176: a0 = u64 [s1 + 0xd0]\n141180: ra = 1508, jump @0\n      : @1613 [@dyn 754] (gas: 28)\n141187: a1 = sp + 0xffffffffffffffe0\n141190: a1 = a1 & 0xffffffffffffffe0\n141193: u64 [s1 + 0xd0] = a1\n141197: sp = a1\n141199: i32 a0 = a0 + 0\n141201: i32 a2 = a1 + 0\n141203: a1 = u64 [s1 + 0xd8]\n141207: ecalli 8 // 'hash_keccak_256'\n141209: a3 = u64 [s1 + 0xd0]\n141213: a0 = u64 [a3 + 0x18]\n141216: a1 = u64 [a3 + 0x10]\n141219: a2 = u64 [a3 + 0x8]\n141222: a3 = u64 [a3]\n141224: a0 = reverse a0\n141226: a1 = reverse a1\n141228: a2 = reverse a2\n141230: a3 = reverse a3\n141232: a4 = u64 [s1 + 0x18]\n141235: u64 [a4 + 0x18] = a3\n141238: u64 [a4 + 0x10] = a2\n141241: u64 [a4 + 0x8] = a1\n141244: u64 [a4] = a0\n141246: sp = s0 + 0xfffffffffffffee0\n141250: ra = u64 [sp + 0x118]\n141254: s0 = u64 [sp + 0x110]\n141258: s1 = u64 [sp + 0x108]\n141262: sp = sp + 0x120\n141266: ret\n      : @1614 (gas: 1)\n141268: trap\n      : @1615 (gas: 16)\n141269: sp = sp + 0xffffffffffffff20\n141273: u64 [sp + 0xd8] = ra\n141277: u64 [sp + 0xd0] = s0\n141281: u64 [sp + 0xc8] = s1\n141285: s0 = sp + 0xe0\n141289: sp = sp & 0xfffffffffffffff0\n141292: a3 = u64 [a1 + 0x18]\n141295: a2 = u64 [a1 + 0x10]\n141298: a4 = u64 [a1 + 0x8]\n141301: u64 [sp + 0x10] = a2\n141304: u64 [sp + 0x8] = a3\n141307: a2 = a2 | a3\n141310: a3 = a4 <u 0x1\n141313: a3 = 0 if a2 != 0\n141315: u64 [sp + 0x38] = a0\n141318: jump @1621 if a3 == 0\n      : @1616 (gas: 19)\n141322: s1 = u64 [a1]\n141324: a0 = s1 + 0x1f\n141327: a1 = a0 <u s1\n141330: u64 [sp + 0x18] = a4\n141333: a1 = a1 + a4\n141336: a1 = a1 & 0x1\n141339: a0 = a0 & 0xffffffffffffffe0\n141342: a2 = a0 + 0x20\n141345: a0 = a2 <u a0\n141348: a3 = a1 + a0\n141351: a4 = a3 <u a1\n141354: a4 = a0 if a0 == 0\n141357: u64 [sp + 152] = 0\n141361: u64 [sp + 0x80] = a2\n141365: u64 [sp + 0x88] = a3\n141369: a0 = sp + 0xa0\n141373: a1 = sp + 0x80\n141377: u64 [sp + 0x90] = a4\n141381: ra = 1510, jump @647\n      : @1617 [@dyn 755] (gas: 15)\n141388: a0 = u64 [sp + 0xb8]\n141392: a2 = u64 [sp + 0xb0]\n141396: a1 = u64 [sp + 0xa8]\n141400: a3 = u64 [sp + 0xa0]\n141404: u64 [sp + 0x28] = a0\n141407: u64 [sp + 0x20] = a1\n141410: a0 = a0 | a1\n141413: a1 = a3 | a2\n141416: a1 = a1 | a0\n141419: a1 = a1 >> 0x20\n141422: u64 [sp + 0x30] = a2\n141425: a0 = a0 | a2\n141428: a0 = a0 << 0x20\n141431: a0 = a0 | a1\n141434: jump @1620 if a0 != 0\n      : @1618 (gas: 4)\n141438: i32 a0 = a3 + 0\n141440: a1 = 0x20\n141443: u64 [sp] = a3\n141445: ra = 1512, jump @0\n      : @1619 [@dyn 756] (gas: 82)\n141452: a1 = u64 [sp + 0x8]\n141455: a1 = reverse a1\n141457: a2 = u64 [sp + 0x10]\n141460: a2 = reverse a2\n141462: a3 = u64 [sp + 0x18]\n141465: a3 = reverse a3\n141467: a4 = reverse s1\n141469: a5 = a4 >> 0x38\n141472: u8 [a0 + 0x1f] = a5\n141475: a5 = a4 >> 0x30\n141478: u8 [a0 + 0x1e] = a5\n141481: a5 = a4 >> 0x28\n141484: u8 [a0 + 0x1d] = a5\n141487: a5 = a4 >> 0x20\n141490: u8 [a0 + 0x1c] = a5\n141493: a5 = a4 >> 0x18\n141496: u8 [a0 + 0x1b] = a5\n141499: a5 = a4 >> 0x10\n141502: u8 [a0 + 0x1a] = a5\n141505: a5 = a4 >> 0x8\n141508: u8 [a0 + 0x19] = a5\n141511: u8 [a0 + 0x18] = a4\n141514: u8 [a0 + 0x10] = a3\n141517: a4 = a3 >> 0x38\n141520: u8 [a0 + 0x17] = a4\n141523: a4 = a3 >> 0x30\n141526: u8 [a0 + 0x16] = a4\n141529: a4 = a3 >> 0x28\n141532: u8 [a0 + 0x15] = a4\n141535: a4 = a3 >> 0x20\n141538: u8 [a0 + 0x14] = a4\n141541: a4 = a3 >> 0x18\n141544: u8 [a0 + 0x13] = a4\n141547: a4 = a3 >> 0x10\n141550: u8 [a0 + 0x12] = a4\n141553: a3 = a3 >> 0x8\n141556: u8 [a0 + 0x11] = a3\n141559: u8 [a0 + 0x8] = a2\n141562: a3 = a2 >> 0x38\n141565: u8 [a0 + 0xf] = a3\n141568: a3 = a2 >> 0x30\n141571: u8 [a0 + 0xe] = a3\n141574: a3 = a2 >> 0x28\n141577: u8 [a0 + 0xd] = a3\n141580: a3 = a2 >> 0x20\n141583: u8 [a0 + 0xc] = a3\n141586: a3 = a2 >> 0x18\n141589: u8 [a0 + 0xb] = a3\n141592: a3 = a2 >> 0x10\n141595: u8 [a0 + 0xa] = a3\n141598: a2 = a2 >> 0x8\n141601: u8 [a0 + 0x9] = a2\n141604: u8 [a0] = a1\n141606: a2 = a1 >> 0x38\n141609: u8 [a0 + 0x7] = a2\n141612: a2 = a1 >> 0x30\n141615: u8 [a0 + 0x6] = a2\n141618: a2 = a1 >> 0x28\n141621: u8 [a0 + 0x5] = a2\n141624: a2 = a1 >> 0x20\n141627: u8 [a0 + 0x4] = a2\n141630: a2 = a1 >> 0x18\n141633: u8 [a0 + 0x3] = a2\n141636: a2 = a1 >> 0x10\n141639: u8 [a0 + 0x2] = a2\n141642: a1 = a1 >> 0x8\n141645: u8 [a0 + 0x1] = a1\n141648: a0 = u64 [sp + 0x38]\n141651: a1 = u64 [sp]\n141653: u64 [a0] = a1\n141655: a1 = u64 [sp + 0x28]\n141658: u64 [a0 + 0x18] = a1\n141661: a1 = u64 [sp + 0x20]\n141664: u64 [a0 + 0x8] = a1\n141667: a1 = u64 [sp + 0x30]\n141670: u64 [a0 + 0x10] = a1\n141673: sp = s0 + 0xffffffffffffff20\n141677: ra = u64 [sp + 0xd8]\n141681: s0 = u64 [sp + 0xd0]\n141685: s1 = u64 [sp + 0xc8]\n141689: sp = sp + 0xe0\n141693: ret\n      : @1620 (gas: 1)\n141695: trap\n      : @1621 (gas: 8)\n141696: u64 [sp + 112] = 0\n141699: u64 [sp + 104] = 0\n141702: u64 [sp + 96] = 0\n141705: a0 = 0x4e487b7100000000\n141715: a1 = sp + 0x60\n141718: u64 [sp + 0x78] = a0\n141721: a0 = 0\n141723: ra = 1514, jump @23\n      : @1622 [@dyn 757] (gas: 7)\n141730: u64 [sp + 88] = 0\n141733: u64 [sp + 80] = 0\n141736: u64 [sp + 64] = 0x41\n141740: a0 = 0x4\n141743: a1 = sp + 0x40\n141746: u64 [sp + 72] = 0\n141749: ra = 1516, jump @23\n      : @1623 [@dyn 758] (gas: 3)\n141756: a1 = 0x24\n141759: a0 = 0\n141761: ra = 1518, jump @0\n      : @1624 [@dyn 759] (gas: 6)\n141768: i32 a1 = a0 + 0\n141770: a0 = 0x1\n141773: a2 = 0x24\n141776: ra = 0x5f0\n141780: ecalli 13 // 'seal_return'\n141782: fallthrough\n      : @1625 [@dyn 760] (gas: 9)\n141783: sp = sp + 0xffffffffffffff60\n141787: u64 [sp + 0x98] = ra\n141791: u64 [sp + 0x90] = s0\n141795: u64 [sp + 0x88] = s1\n141799: s0 = sp + 0xa0\n141803: sp = sp & 0xffffffffffffffe0\n141806: s1 = a0\n141808: ecalli 12 // 'return_data_size'\n141810: fallthrough\n      : @1626 (gas: 1)\n141811: jump @1635 if a0 == 0\n      : @1627 (gas: 9)\n141815: u64 [sp + 0x20] = s1\n141818: ecalli 12 // 'return_data_size'\n141820: u64 [sp + 88] = 0\n141823: u64 [sp + 80] = 0\n141826: u64 [sp + 0x40] = a0\n141829: a0 = sp + 0x60\n141832: a1 = sp + 0x40\n141835: u64 [sp + 72] = 0\n141838: ra = 1522, jump @1615\n      : @1628 [@dyn 761] (gas: 9)\n141844: a0 = u64 [sp + 0x78]\n141847: u64 [sp + 0x38] = a0\n141850: a0 = u64 [sp + 0x70]\n141853: u64 [sp + 0x30] = a0\n141856: a0 = u64 [sp + 0x68]\n141859: u64 [sp + 0x28] = a0\n141862: s1 = u64 [sp + 0x60]\n141865: ecalli 12 // 'return_data_size'\n141867: fallthrough\n      : @1629 (gas: 20)\n141868: a1 = s1 + 0x20\n141871: u64 [sp + 0x18] = s1\n141874: a2 = a1 <u s1\n141877: a4 = u64 [sp + 0x28]\n141880: a3 = a4 + a2\n141883: a4 = a3 <u a4\n141886: a4 = a2 if a2 == 0\n141889: a2 = u64 [sp + 0x30]\n141892: a4 = a4 + a2\n141895: a2 = a4 <u a2\n141898: a5 = u64 [sp + 0x38]\n141901: a2 = a2 + a5\n141904: a5 = a1 | a4\n141907: a2 = a2 | a3\n141910: a5 = a5 | a2\n141913: a5 = a5 >> 0x20\n141916: a2 = a2 | a4\n141919: a2 = a2 << 0x20\n141922: a2 = a2 | a5\n141925: jump @1634 if a2 != 0\n      : @1630 (gas: 3)\n141928: s1 = a0\n141930: a0 = a0 >> 0x20\n141933: jump @1634 if a0 != 0\n      : @1631 (gas: 4)\n141936: i32 a0 = a1 + 0\n141938: i32 a1 = s1 + 0\n141940: u64 [sp + 0x10] = a1\n141943: ra = 1524, jump @0\n      : @1632 [@dyn 762] (gas: 6)\n141950: u32 [sp + 0x80] = s1\n141954: i32 a0 = a0 + 0\n141956: i32 a1 = sp + 0x80\n141960: a2 = 0\n141962: ecalli 11 // 'return_data_copy'\n141964: fallthrough\n      : @1633 (gas: 8)\n141965: a0 = i32 [sp + 0x80]\n141969: s1 = u64 [sp + 0x20]\n141972: a1 = u64 [sp + 0x38]\n141975: a2 = u64 [sp + 0x30]\n141978: a3 = u64 [sp + 0x28]\n141981: a4 = u64 [sp + 0x18]\n141984: a5 = u64 [sp + 0x10]\n141987: jump @1636 if a0 >=u a5\n      : @1634 (gas: 1)\n141990: trap\n      : @1635 (gas: 5)\n141991: a3 = 0\n141993: a2 = 0\n141995: a1 = 0\n141997: a4 = 0x60\n142000: fallthrough\n      : @1636 (gas: 10)\n142001: u64 [s1] = a4\n142003: u64 [s1 + 0x8] = a3\n142006: u64 [s1 + 0x10] = a2\n142009: u64 [s1 + 0x18] = a1\n142012: sp = s0 + 0xffffffffffffff60\n142016: ra = u64 [sp + 0x98]\n142020: s0 = u64 [sp + 0x90]\n142024: s1 = u64 [sp + 0x88]\n142028: sp = sp + 0xa0\n142032: ret\n      : @1637 (gas: 17)\n142034: sp = sp + 0xffffffffffffffa0\n142037: u64 [sp + 0x58] = ra\n142040: u64 [sp + 0x50] = s0\n142043: u64 [sp + 0x48] = s1\n142046: a3 = u64 [a1 + 0x18]\n142049: a4 = u64 [a1 + 0x10]\n142052: a5 = u64 [a1 + 0x8]\n142055: s1 = u64 [a1]\n142057: a1 = a5 | a3\n142060: a2 = s1 | a4\n142063: a2 = a2 | a1\n142066: a2 = a2 >> 0x20\n142069: a1 = a1 | a4\n142072: a1 = a1 << 0x20\n142075: a1 = a1 | a2\n142078: u64 [sp + 0x28] = a0\n142081: jump @1644 if a1 != 0\n      : @1638 (gas: 19)\n142085: a0 = s1 + 0x20\n142088: u64 [sp + 0x30] = a0\n142091: a0 = a0 <u s1\n142094: a1 = a5 + a0\n142097: u64 [sp + 0x40] = a1\n142100: u64 [sp + 0x8] = a5\n142103: s0 = a1 <u a5\n142106: s0 = a0 if a0 == 0\n142109: s0 = s0 + a4\n142112: u64 [sp + 0x10] = a4\n142115: a0 = s0 <u a4\n142118: u64 [sp + 0x18] = a3\n142121: a0 = a0 + a3\n142124: u64 [sp + 0x38] = a0\n142127: u64 [sp] = s1\n142129: i32 a0 = s1 + 0\n142131: a1 = 0x20\n142134: s1 = 0x20\n142137: ra = 1526, jump @0\n      : @1639 [@dyn 763] (gas: 45)\n142144: u8 [a0 + 0x1f] = s1\n142147: a1 = u64 [sp + 0x30]\n142150: s1 = a1\n142152: a1 = a1 | s0\n142155: a2 = u64 [sp + 0x40]\n142158: a4 = u64 [sp + 0x38]\n142161: a2 = a2 | a4\n142164: a1 = a1 | a2\n142167: a1 = a1 >> 0x20\n142170: u64 [sp + 0x20] = s0\n142173: a2 = a2 | s0\n142176: a2 = a2 << 0x20\n142179: a1 = a1 | a2\n142182: u8 [a0 + 30] = 0\n142185: u8 [a0 + 29] = 0\n142188: u8 [a0 + 28] = 0\n142191: u8 [a0 + 27] = 0\n142194: u8 [a0 + 26] = 0\n142197: u8 [a0 + 25] = 0\n142200: u8 [a0 + 24] = 0\n142203: u8 [a0 + 23] = 0\n142206: u8 [a0 + 22] = 0\n142209: u8 [a0 + 21] = 0\n142212: u8 [a0 + 20] = 0\n142215: u8 [a0 + 19] = 0\n142218: u8 [a0 + 18] = 0\n142221: u8 [a0 + 17] = 0\n142224: u8 [a0 + 16] = 0\n142227: u8 [a0 + 15] = 0\n142230: u8 [a0 + 14] = 0\n142233: u8 [a0 + 13] = 0\n142236: u8 [a0 + 12] = 0\n142239: u8 [a0 + 11] = 0\n142242: u8 [a0 + 10] = 0\n142245: u8 [a0 + 9] = 0\n142248: u8 [a0 + 8] = 0\n142251: u8 [a0 + 7] = 0\n142254: u8 [a0 + 6] = 0\n142257: u8 [a0 + 5] = 0\n142260: u8 [a0 + 4] = 0\n142263: u8 [a0 + 3] = 0\n142266: u8 [a0 + 2] = 0\n142269: u8 [a0 + 1] = 0\n142272: u8 [a0 + 0] = 0\n142274: jump @1644 if a1 != 0\n      : @1640 (gas: 4)\n142278: i32 s0 = s1 + 0\n142280: a1 = 0x20\n142283: a0 = s0\n142285: ra = 1528, jump @0\n      : @1641 [@dyn 764] (gas: 41)\n142292: u8 [a0 + 31] = 0x1b\n142296: u8 [a0 + 30] = 0\n142299: u8 [a0 + 29] = 0\n142302: u8 [a0 + 28] = 0\n142305: u8 [a0 + 27] = 0\n142308: u8 [a0 + 26] = 0\n142311: u8 [a0 + 25] = 0\n142314: u8 [a0 + 24] = 0\n142317: u8 [a0 + 23] = 0\n142320: u8 [a0 + 22] = 0\n142323: u8 [a0 + 21] = 0\n142326: u8 [a0 + 20] = 0\n142329: u8 [a0 + 19] = 0\n142332: u8 [a0 + 18] = 0\n142335: u8 [a0 + 17] = 0\n142338: u8 [a0 + 16] = 0\n142341: u8 [a0 + 15] = 0\n142344: u8 [a0 + 14] = 0\n142347: u8 [a0 + 13] = 0\n142350: u8 [a0 + 12] = 0\n142353: u8 [a0 + 11] = 0\n142356: u8 [a0 + 10] = 0\n142359: u8 [a0 + 9] = 0\n142362: u8 [a0 + 8] = 0\n142365: u8 [a0 + 7] = 0\n142368: u8 [a0 + 6] = 0\n142371: u8 [a0 + 5] = 0\n142374: u8 [a0 + 4] = 0\n142377: u8 [a0 + 3] = 0\n142380: u8 [a0 + 2] = 0\n142383: u8 [a0 + 1] = 0\n142386: a1 = u64 [sp + 0x20]\n142389: a2 = u64 [sp + 0x38]\n142392: a1 = a1 | a2\n142395: a2 = 0xffffffe0\n142405: a2 = s1 <u a2\n142408: a3 = u64 [sp + 0x40]\n142411: a2 = 0 if a3 != 0\n142413: a2 = 0 if a1 != 0\n142415: u8 [a0 + 0] = 0\n142417: jump @1644 if a2 == 0\n      : @1642 (gas: 3)\n142421: i32 a0 = s0 + 0x20\n142424: a1 = 0x20\n142427: ra = 1530, jump @0\n      : @1643 [@dyn 765] (gas: 55)\n142434: u8 [a0 + 31] = 0\n142437: u8 [a0 + 30] = 0\n142440: u8 [a0 + 29] = 0\n142443: u8 [a0 + 28] = 0\n142446: u8 [a0 + 27] = 0\n142449: u8 [a0 + 26] = 0x64\n142453: u8 [a0 + 25] = 0x65\n142457: u8 [a0 + 24] = 0x6c\n142461: u8 [a0 + 23] = 0x69\n142465: u8 [a0 + 22] = 0x61\n142469: u8 [a0 + 21] = 0x66\n142473: a5 = 0x20\n142476: u8 [a0 + 0x14] = a5\n142479: u8 [a0 + 19] = 0x72\n142483: u8 [a0 + 18] = 0x65\n142487: u8 [a0 + 17] = 0x66\n142491: u8 [a0 + 16] = 0x73\n142495: u8 [a0 + 15] = 0x6e\n142499: u8 [a0 + 14] = 0x61\n142503: u8 [a0 + 13] = 0x72\n142507: u8 [a0 + 12] = 0x74\n142511: u8 [a0 + 0xb] = a5\n142514: u8 [a0 + 10] = 0x48\n142518: u8 [a0 + 9] = 0x54\n142522: u8 [a0 + 8] = 0x45\n142526: u8 [a0 + 0x7] = a5\n142529: u8 [a0 + 6] = 0x3a\n142533: u8 [a0 + 5] = 0x77\n142537: u8 [a0 + 4] = 0x6f\n142541: u8 [a0 + 3] = 0x72\n142545: u8 [a0 + 2] = 0x63\n142549: u8 [a0 + 1] = 0x73\n142553: u8 [a0 + 0] = 0x45\n142556: a1 = u64 [sp]\n142558: a0 = a1 + 0x60\n142561: a1 = a0 <u a1\n142564: a3 = u64 [sp + 0x8]\n142567: a2 = a3 + a1\n142570: a3 = a2 <u a3\n142573: a3 = a1 if a1 == 0\n142576: a1 = u64 [sp + 0x10]\n142579: a3 = a3 + a1\n142582: a1 = a3 <u a1\n142585: a4 = u64 [sp + 0x18]\n142588: a1 = a1 + a4\n142591: a4 = u64 [sp + 0x28]\n142594: u64 [a4] = a0\n142596: u64 [a4 + 0x8] = a2\n142599: u64 [a4 + 0x10] = a3\n142602: u64 [a4 + 0x18] = a1\n142605: ra = u64 [sp + 0x58]\n142608: s0 = u64 [sp + 0x50]\n142611: s1 = u64 [sp + 0x48]\n142614: sp = sp + 0x60\n142617: ret\n      : @1644 (gas: 1)\n142619: trap\n      : @1645 (gas: 23)\n142620: sp = sp + 0xfffffffffffffea0\n142624: u64 [sp + 0x158] = ra\n142628: u64 [sp + 0x150] = s0\n142632: u64 [sp + 0x148] = s1\n142636: s0 = sp + 0x160\n142640: sp = sp & 0xffffffffffffffe0\n142643: a2 = u64 [a1]\n142645: u64 [sp + 0x58] = a2\n142648: a2 = u64 [a1 + 0x8]\n142651: u64 [sp + 0x50] = a2\n142654: a2 = u64 [a1 + 0x10]\n142657: u64 [sp + 0x48] = a2\n142660: a1 = u64 [a1 + 0x18]\n142663: u64 [sp + 0x40] = a1\n142666: a1 = u64 [a0]\n142668: u64 [sp + 0x38] = a1\n142671: a1 = u64 [a0 + 0x10]\n142674: u64 [sp + 0x30] = a1\n142677: a0 = u64 [a0 + 0x8]\n142680: u64 [sp + 0x28] = a0\n142683: a0 = 0x40\n142686: a1 = 0x20\n142689: ra = 1532, jump @0\n      : @1646 [@dyn 766] (gas: 97)\n142696: a1 = u8 [a0 + 0x11]\n142699: a2 = u8 [a0 + 0x10]\n142702: a3 = u8 [a0 + 0x12]\n142705: a4 = u8 [a0 + 0x13]\n142708: a1 = a1 << 0x8\n142711: a1 = a1 | a2\n142714: a3 = a3 << 0x10\n142717: a4 = a4 << 0x18\n142720: a3 = a3 | a4\n142723: a1 = a1 | a3\n142726: a2 = u8 [a0 + 0x15]\n142729: a3 = u8 [a0 + 0x14]\n142732: a4 = u8 [a0 + 0x16]\n142735: a5 = u8 [a0 + 0x17]\n142738: a2 = a2 << 0x8\n142741: a2 = a2 | a3\n142744: a4 = a4 << 0x10\n142747: a5 = a5 << 0x18\n142750: a4 = a4 | a5\n142753: a2 = a2 | a4\n142756: a2 = a2 << 0x20\n142759: t0 = a2 | a1\n142762: a2 = u8 [a0 + 0x1]\n142765: a3 = u8 [a0]\n142767: a4 = u8 [a0 + 0x2]\n142770: a5 = u8 [a0 + 0x3]\n142773: a2 = a2 << 0x8\n142776: a2 = a2 | a3\n142779: a4 = a4 << 0x10\n142782: a5 = a5 << 0x18\n142785: a4 = a4 | a5\n142788: a2 = a2 | a4\n142791: a3 = u8 [a0 + 0x5]\n142794: a4 = u8 [a0 + 0x4]\n142797: a5 = u8 [a0 + 0x6]\n142800: s1 = u8 [a0 + 0x7]\n142803: a3 = a3 << 0x8\n142806: a3 = a3 | a4\n142809: a5 = a5 << 0x10\n142812: s1 = s1 << 0x18\n142815: a5 = a5 | s1\n142818: a3 = a3 | a5\n142821: a3 = a3 << 0x20\n142824: a2 = a2 | a3\n142827: a3 = u8 [a0 + 0x19]\n142830: a4 = u8 [a0 + 0x18]\n142833: a5 = u8 [a0 + 0x1a]\n142836: s1 = u8 [a0 + 0x1b]\n142839: a3 = a3 << 0x8\n142842: a3 = a3 | a4\n142845: a5 = a5 << 0x10\n142848: s1 = s1 << 0x18\n142851: a5 = a5 | s1\n142854: a3 = a3 | a5\n142857: a4 = u8 [a0 + 0x1d]\n142860: a5 = u8 [a0 + 0x1c]\n142863: s1 = u8 [a0 + 0x1e]\n142866: a1 = u8 [a0 + 0x1f]\n142869: a4 = a4 << 0x8\n142872: a4 = a4 | a5\n142875: s1 = s1 << 0x10\n142878: a1 = a1 << 0x18\n142881: a1 = a1 | s1\n142884: a1 = a1 | a4\n142887: a1 = a1 << 0x20\n142890: a3 = a3 | a1\n142893: a1 = u8 [a0 + 0x9]\n142896: a4 = u8 [a0 + 0x8]\n142899: a5 = u8 [a0 + 0xa]\n142902: s1 = u8 [a0 + 0xb]\n142905: a1 = a1 << 0x8\n142908: a1 = a1 | a4\n142911: a5 = a5 << 0x10\n142914: s1 = s1 << 0x18\n142917: a5 = a5 | s1\n142920: a1 = a1 | a5\n142923: a4 = u8 [a0 + 0xd]\n142926: a5 = u8 [a0 + 0xc]\n142929: s1 = u8 [a0 + 0xe]\n142932: a0 = u8 [a0 + 0xf]\n142935: a4 = a4 << 0x8\n142938: a4 = a4 | a5\n142941: s1 = s1 << 0x10\n142944: a0 = a0 << 0x18\n142947: a0 = a0 | s1\n142950: a0 = a0 | a4\n142953: a0 = a0 << 0x20\n142956: a0 = a0 | a1\n142959: s1 = reverse a0\n142961: a0 = reverse a3\n142963: u64 [sp + 0x10] = a0\n142966: a0 = reverse a2\n142968: u64 [sp + 0x20] = a0\n142971: a0 = reverse t0\n142973: u64 [sp + 0x18] = a0\n142976: ecalli 10 // 'ref_time_left'\n142978: fallthrough\n      : @1647 (gas: 36)\n142979: u64 [sp + 0x8] = a0\n142982: a0 = u64 [sp + 0x28]\n142985: a0 = reverse a0\n142987: a1 = u64 [sp + 0x30]\n142990: a1 = reverse a1\n142992: a1 = a1 >> 0x20\n142995: a2 = a0 << 0x20\n142998: a1 = a1 | a2\n143001: a0 = a0 >> 0x20\n143004: a2 = u64 [sp + 0x38]\n143007: a2 = reverse a2\n143009: a3 = a2 << 0x20\n143012: a0 = a0 | a3\n143015: u64 [sp + 0xc8] = a0\n143019: u64 [sp + 0xc0] = a1\n143023: a2 = a2 >> 0x20\n143026: u32 [sp + 0xd0] = a2\n143030: a2 = u64 [sp + 0x10]\n143033: a0 = u64 [sp + 0x40]\n143036: u64 [sp + 0xf8] = a0\n143040: a0 = u64 [sp + 0x48]\n143043: u64 [sp + 0xf0] = a0\n143047: a0 = u64 [sp + 0x50]\n143050: u64 [sp + 0xe8] = a0\n143054: a0 = u64 [sp + 0x20]\n143057: a1 = u64 [sp + 0x18]\n143060: a0 = a0 | a1\n143063: a1 = a2 | s1\n143066: a1 = a1 | a0\n143069: a0 = a0 | s1\n143072: a1 = a1 >> 0x20\n143075: a0 = a0 << 0x20\n143078: a0 = a0 | a1\n143081: a1 = u64 [sp + 0x58]\n143084: u64 [sp + 0xe0] = a1\n143088: jump @1658 if a0 != 0\n      : @1648 (gas: 3)\n143092: i32 a0 = a2 + 0\n143094: a1 = 0\n143096: ra = 1534, jump @0\n      : @1649 [@dyn 767] (gas: 4)\n143103: u64 [sp + 0x58] = a0\n143106: a0 = 0\n143108: a1 = 0\n143110: ra = 1536, jump @0\n      : @1650 [@dyn 768] (gas: 34)\n143117: u32 [sp + 256] = 0\n143121: a2 = u64 [sp + 0x8]\n143124: a1 = a2 >u 0x8fc\n143128: a2 = -a1\n143130: u64 [sp + 0x138] = a2\n143134: u64 [sp + 0x130] = a2\n143138: u64 [sp + 0x128] = a2\n143142: u64 [sp + 0x120] = a2\n143146: a2 = sp + 0xc0\n143150: a2 = a2 << 0x20\n143153: a2 = a2 >> 0x20\n143156: a1 = a1 << 0x23\n143159: s1 = a1 | a2\n143162: a1 = sp + 0xe0\n143166: a1 = a1 << 0x20\n143169: a1 = a1 >> 0x20\n143172: a2 = sp + 0x120\n143176: a2 = a2 << 0x20\n143179: a3 = a2 | a1\n143182: a4 = u64 [sp + 0x58]\n143185: a4 = a4 << 0x20\n143188: a4 = a4 >> 0x20\n143191: a0 = a0 << 0x20\n143194: a0 = a0 >> 0x20\n143197: a1 = sp + 0x100\n143201: a1 = a1 << 0x20\n143204: a5 = a1 | a0\n143207: a1 = 0xffffffffffffffff\n143210: a2 = 0xffffffffffffffff\n143213: a0 = s1\n143215: ecalli 1 // 'call'\n143217: s1 = a0\n143219: a0 = sp + 0xa0\n143223: ra = 1538, jump @1625\n      : @1651 [@dyn 769] (gas: 1)\n143229: jump @1653 if s1 != 0\n      : @1652 (gas: 6)\n143232: sp = s0 + 0xfffffffffffffea0\n143236: ra = u64 [sp + 0x158]\n143240: s0 = u64 [sp + 0x150]\n143244: s1 = u64 [sp + 0x148]\n143248: sp = sp + 0x160\n143252: ret\n      : @1653 (gas: 3)\n143254: a0 = 0x40\n143257: a1 = 0x20\n143260: ra = 1540, jump @0\n      : @1654 [@dyn 770] (gas: 103)\n143267: a1 = u8 [a0 + 0x11]\n143270: a2 = u8 [a0 + 0x10]\n143273: a3 = u8 [a0 + 0x12]\n143276: a4 = u8 [a0 + 0x13]\n143279: a1 = a1 << 0x8\n143282: a1 = a1 | a2\n143285: a3 = a3 << 0x10\n143288: a4 = a4 << 0x18\n143291: a3 = a3 | a4\n143294: a1 = a1 | a3\n143297: a2 = u8 [a0 + 0x15]\n143300: a3 = u8 [a0 + 0x14]\n143303: a4 = u8 [a0 + 0x16]\n143306: a5 = u8 [a0 + 0x17]\n143309: a2 = a2 << 0x8\n143312: a2 = a2 | a3\n143315: a4 = a4 << 0x10\n143318: a5 = a5 << 0x18\n143321: a4 = a4 | a5\n143324: a2 = a2 | a4\n143327: a2 = a2 << 0x20\n143330: t0 = a2 | a1\n143333: a2 = u8 [a0 + 0x1]\n143336: a3 = u8 [a0]\n143338: a4 = u8 [a0 + 0x2]\n143341: a5 = u8 [a0 + 0x3]\n143344: a2 = a2 << 0x8\n143347: a2 = a2 | a3\n143350: a4 = a4 << 0x10\n143353: a5 = a5 << 0x18\n143356: a4 = a4 | a5\n143359: a2 = a2 | a4\n143362: a3 = u8 [a0 + 0x5]\n143365: a4 = u8 [a0 + 0x4]\n143368: a5 = u8 [a0 + 0x6]\n143371: s1 = u8 [a0 + 0x7]\n143374: a3 = a3 << 0x8\n143377: a3 = a3 | a4\n143380: a5 = a5 << 0x10\n143383: s1 = s1 << 0x18\n143386: a5 = a5 | s1\n143389: a3 = a3 | a5\n143392: a3 = a3 << 0x20\n143395: a2 = a2 | a3\n143398: a3 = u8 [a0 + 0x19]\n143401: a4 = u8 [a0 + 0x18]\n143404: a5 = u8 [a0 + 0x1a]\n143407: s1 = u8 [a0 + 0x1b]\n143410: a3 = a3 << 0x8\n143413: a3 = a3 | a4\n143416: a5 = a5 << 0x10\n143419: s1 = s1 << 0x18\n143422: a5 = a5 | s1\n143425: a3 = a3 | a5\n143428: a4 = u8 [a0 + 0x1d]\n143431: a5 = u8 [a0 + 0x1c]\n143434: s1 = u8 [a0 + 0x1e]\n143437: a1 = u8 [a0 + 0x1f]\n143440: a4 = a4 << 0x8\n143443: a4 = a4 | a5\n143446: s1 = s1 << 0x10\n143449: a1 = a1 << 0x18\n143452: a1 = a1 | s1\n143455: a1 = a1 | a4\n143458: a1 = a1 << 0x20\n143461: a3 = a3 | a1\n143464: a1 = u8 [a0 + 0x9]\n143467: a4 = u8 [a0 + 0x8]\n143470: a5 = u8 [a0 + 0xa]\n143473: s1 = u8 [a0 + 0xb]\n143476: a1 = a1 << 0x8\n143479: a1 = a1 | a4\n143482: a5 = a5 << 0x10\n143485: s1 = s1 << 0x18\n143488: a5 = a5 | s1\n143491: a1 = a1 | a5\n143494: a4 = u8 [a0 + 0xd]\n143497: a5 = u8 [a0 + 0xc]\n143500: s1 = u8 [a0 + 0xe]\n143503: a0 = u8 [a0 + 0xf]\n143506: a4 = a4 << 0x8\n143509: a4 = a4 | a5\n143512: s1 = s1 << 0x10\n143515: a0 = a0 << 0x18\n143518: a0 = a0 | s1\n143521: a0 = a0 | a4\n143524: a0 = a0 << 0x20\n143527: a0 = a0 | a1\n143530: s1 = reverse a0\n143532: a1 = reverse a3\n143534: a2 = reverse a2\n143536: a0 = reverse t0\n143538: u64 [sp + 0x58] = a0\n143541: u64 [sp + 0x50] = a2\n143544: a0 = a0 | a2\n143547: a2 = a1\n143549: a1 = a1 | s1\n143552: a1 = a1 | a0\n143555: a1 = a1 >> 0x20\n143558: a0 = a0 | s1\n143561: a0 = a0 << 0x20\n143564: a0 = a0 | a1\n143567: jump @1658 if a0 != 0\n      : @1655 (gas: 5)\n143571: u64 [sp + 0x48] = a2\n143574: i32 a0 = a2 + 0\n143576: a1 = 0x20\n143579: u64 [sp + 0x40] = a0\n143582: ra = 1542, jump @0\n      : @1656 [@dyn 771] (gas: 50)\n143589: u8 [a0 + 31] = 0\n143592: u8 [a0 + 30] = 0\n143595: u8 [a0 + 29] = 0\n143598: u8 [a0 + 28] = 0\n143601: u8 [a0 + 27] = 0\n143604: u8 [a0 + 26] = 0\n143607: u8 [a0 + 25] = 0\n143610: u8 [a0 + 24] = 0\n143613: u8 [a0 + 23] = 0\n143616: u8 [a0 + 22] = 0\n143619: u8 [a0 + 21] = 0\n143622: u8 [a0 + 20] = 0\n143625: u8 [a0 + 19] = 0\n143628: u8 [a0 + 18] = 0\n143631: u8 [a0 + 17] = 0\n143634: u8 [a0 + 16] = 0\n143637: u8 [a0 + 15] = 0\n143640: u8 [a0 + 14] = 0\n143643: u8 [a0 + 13] = 0\n143646: u8 [a0 + 12] = 0\n143649: u8 [a0 + 11] = 0\n143652: u8 [a0 + 10] = 0\n143655: u8 [a0 + 9] = 0\n143658: u8 [a0 + 8] = 0\n143661: u8 [a0 + 7] = 0\n143664: u8 [a0 + 6] = 0\n143667: u8 [a0 + 5] = 0\n143670: u8 [a0 + 4] = 0\n143673: u8 [a0 + 3] = 0xa0\n143678: u8 [a0 + 2] = 0x79\n143682: u8 [a0 + 1] = 0xc3\n143687: u8 [a0 + 0] = 0x8\n143690: a1 = u64 [sp + 0x48]\n143693: a0 = a1 + 0x4\n143696: a1 = a0 <u a1\n143699: a3 = u64 [sp + 0x58]\n143702: a2 = a3 + a1\n143705: a3 = a2 <u a3\n143708: a3 = a1 if a1 == 0\n143711: a3 = a3 + s1\n143714: a1 = a3 <u s1\n143717: a4 = u64 [sp + 0x50]\n143720: a4 = a4 + a1\n143723: u64 [sp + 0x68] = a2\n143726: u64 [sp + 0x60] = a0\n143729: u64 [sp + 0x70] = a3\n143732: a0 = sp + 0x80\n143736: a1 = sp + 0x60\n143739: u64 [sp + 0x78] = a4\n143742: ra = 1544, jump @1637\n      : @1657 [@dyn 772] (gas: 30)\n143748: a0 = u64 [sp + 0x88]\n143752: t0 = u64 [sp + 0x98]\n143756: t1 = u64 [sp + 0x80]\n143760: a3 = u64 [sp + 0x90]\n143764: a1 = u64 [sp + 0x58]\n143767: a4 = a0 ^ a1\n143770: a5 = a0 <u a1\n143773: t2 = a1\n143775: a2 = u64 [sp + 0x48]\n143778: a1 = t1 <u a2\n143781: a5 = a1 if a4 == 0\n143784: a4 = a3 - s1\n143787: a3 = a3 <u s1\n143790: s1 = u64 [sp + 0x50]\n143793: s1 = t0 - s1\n143796: s1 = s1 - a3\n143799: a3 = a4 <u a5\n143802: s1 = s1 - a3\n143805: a4 = a4 - a5\n143808: a0 = a0 - t2\n143811: a1 = a0 - a1\n143814: a0 = t1 - a2\n143817: a1 = a1 | s1\n143820: a2 = a0 | a4\n143823: a2 = a2 | a1\n143826: a1 = a1 | a4\n143829: a2 = a2 >> 0x20\n143832: a1 = a1 << 0x20\n143835: a1 = a1 | a2\n143838: jump @1659 if a1 == 0\n      : @1658 (gas: 1)\n143841: trap\n      : @1659 (gas: 4)\n143842: i32 s1 = a0 + 0\n143844: a0 = u64 [sp + 0x40]\n143847: a1 = s1\n143849: ra = 1546, jump @0\n      : @1660 [@dyn 773] (gas: 6)\n143856: i32 a1 = a0 + 0\n143858: a0 = 0x1\n143861: a2 = s1\n143863: ra = 0x60c\n143867: ecalli 13 // 'seal_return'\n143869: fallthrough\n      : @1661 [@dyn 774] (gas: 38)\n143870: sp = sp + 0xffffffffffffff00\n143874: u64 [sp + 0xf8] = ra\n143878: u64 [sp + 0xf0] = s0\n143882: u64 [sp + 0xe8] = s1\n143886: s0 = sp + 0x100\n143890: sp = sp & 0xffffffffffffffe0\n143893: ra = u64 [a1]\n143895: a4 = u64 [a2 + 0x8]\n143898: t2 = u64 [a1 + 0x8]\n143901: s1 = u64 [a2]\n143903: a3 = ra + 0x1f\n143906: t1 = a3 <u ra\n143909: a5 = t2 + t1\n143912: u64 [sp + 0x20] = s1\n143915: a3 = a3 <u s1\n143918: s1 = a5 ^ a4\n143921: u64 [sp + 0x28] = a4\n143924: a4 = a5 <u a4\n143927: a4 = a3 if s1 == 0\n143930: t0 = u64 [a1 + 0x10]\n143933: u64 [sp + 0x38] = t2\n143936: a3 = a5 <u t2\n143939: a3 = t1 if t1 == 0\n143942: t1 = u64 [a2 + 0x18]\n143945: a5 = u64 [a1 + 0x18]\n143948: s1 = u64 [a2 + 0x10]\n143951: a3 = a3 + t0\n143954: a1 = a3 <u t0\n143957: u64 [sp + 0x30] = a5\n143960: a1 = a1 + a5\n143963: a2 = a1 ^ t1\n143966: a1 = a1 <s t1\n143969: a5 = a3 <u s1\n143972: a1 = a5 if a2 == 0\n143975: a3 = a3 ^ s1\n143978: a2 = a2 | a3\n143981: a4 = a1 if a2 != 0\n143984: jump @1666 if a4 == 0\n      : @1662 (gas: 14)\n143988: t2 = t0\n143990: u64 [sp + 0x8] = s1\n143993: u64 [sp + 0x10] = t1\n143996: u64 [sp + 0x18] = a0\n143999: a0 = ra | t2\n144002: a1 = u64 [sp + 0x38]\n144005: a2 = u64 [sp + 0x30]\n144008: a1 = a1 | a2\n144011: a0 = a0 | a1\n144014: a0 = a0 >> 0x20\n144017: a1 = a1 | t2\n144020: a1 = a1 << 0x20\n144023: a0 = a0 | a1\n144026: jump @1665 if a0 != 0\n      : @1663 (gas: 41)\n144030: s1 = t2\n144032: i32 a1 = ra + 0\n144034: i32 a0 = sp + 0xc0\n144038: u64 [sp] = ra\n144040: ecalli 3 // 'call_data_load'\n144042: t0 = u64 [sp + 0xc0]\n144046: t1 = u64 [sp + 0xc8]\n144050: a2 = u64 [sp + 0xd0]\n144054: a3 = u64 [sp + 0xd8]\n144058: a0 = u64 [sp]\n144060: a4 = a0 + 0x20\n144063: a5 = a4 <u a0\n144066: a1 = u64 [sp + 0x38]\n144069: a0 = a1 + a5\n144072: a1 = a0 <u a1\n144075: a1 = a5 if a5 == 0\n144078: a1 = a1 + s1\n144081: a5 = a1 <u s1\n144084: s1 = u64 [sp + 0x30]\n144087: a5 = a5 + s1\n144090: s1 = u64 [sp + 0x10]\n144093: u64 [sp + 0x58] = s1\n144096: s1 = u64 [sp + 0x8]\n144099: u64 [sp + 0x50] = s1\n144102: s1 = u64 [sp + 0x28]\n144105: u64 [sp + 0x48] = s1\n144108: s1 = u64 [sp + 0x20]\n144111: u64 [sp + 0x40] = s1\n144114: u64 [sp + 0x78] = a3\n144117: u64 [sp + 0x70] = a2\n144120: u64 [sp + 0x68] = t1\n144123: u64 [sp + 0x60] = t0\n144126: u64 [sp + 0x88] = a0\n144130: u64 [sp + 0x80] = a4\n144134: u64 [sp + 0x90] = a1\n144138: a0 = sp + 0xa0\n144142: a1 = sp + 0x80\n144146: a2 = sp + 0x60\n144149: a3 = sp + 0x40\n144152: u64 [sp + 0x98] = a5\n144156: ra = 1550, jump @671\n      : @1664 [@dyn 775] (gas: 15)\n144163: a0 = u64 [sp + 0xb0]\n144167: a1 = u64 [sp + 0xb8]\n144171: a2 = u64 [sp + 0xa0]\n144175: a3 = u64 [sp + 0xa8]\n144179: a4 = u64 [sp + 0x18]\n144182: u64 [a4 + 0x10] = a0\n144185: u64 [a4 + 0x18] = a1\n144188: u64 [a4] = a2\n144190: u64 [a4 + 0x8] = a3\n144193: sp = s0 + 0xffffffffffffff00\n144197: ra = u64 [sp + 0xf8]\n144201: s0 = u64 [sp + 0xf0]\n144205: s1 = u64 [sp + 0xe8]\n144209: sp = sp + 0x100\n144213: ret\n      : @1665 (gas: 1)\n144215: trap\n      : @1666 (gas: 3)\n144216: a0 = 0\n144218: a1 = 0\n144220: ra = 1552, jump @0\n      : @1667 [@dyn 776] (gas: 6)\n144227: i32 a1 = a0 + 0\n144229: a0 = 0x1\n144232: a2 = 0\n144234: ra = 0x612\n144238: ecalli 13 // 'seal_return'\n144240: fallthrough\n      : @1668 [@dyn 777] (gas: 6)\n144241: a1 = u64 [a1]\n144243: u64 [a0 + 24] = 0\n144246: u64 [a0 + 16] = 0\n144249: u64 [a0 + 8] = 0\n144252: u64 [a0] = a1\n144254: ret\n      : @1669 (gas: 42)\n144256: sp = sp + 0xfffffffffffffde0\n144260: u64 [sp + 0x218] = ra\n144264: u64 [sp + 0x210] = s0\n144268: u64 [sp + 0x208] = s1\n144272: s0 = sp + 0x220\n144276: sp = sp & 0xffffffffffffffe0\n144279: s1 = u64 [a2 + 0x8]\n144282: t2 = u64 [a1 + 0x8]\n144285: a5 = u64 [a2]\n144287: ra = u64 [a1]\n144289: t1 = u64 [a2 + 0x10]\n144292: a4 = s1 ^ t2\n144295: a3 = s1 <u t2\n144298: t0 = a5 <u ra\n144301: a3 = t0 if a4 == 0\n144304: u64 [sp + 0x90] = s1\n144308: a4 = s1 - t2\n144311: a4 = a4 - t0\n144314: u64 [sp + 0x88] = a5\n144318: a5 = a5 - ra\n144321: a5 = a5 <u 0x60\n144324: a5 = a5 ^ 0x1\n144327: t0 = u64 [a1 + 0x10]\n144330: s1 = a4 >u 0\n144332: a5 = s1 if a4 != 0\n144335: a4 = u64 [a2 + 0x18]\n144338: s1 = u64 [a1 + 0x18]\n144341: a1 = t1 - t0\n144344: a2 = a1 - a3\n144347: a1 = a1 <u a3\n144350: u64 [sp + 0x80] = t1\n144354: a3 = t1 <u t0\n144357: u64 [sp + 0x78] = a4\n144360: a4 = a4 - s1\n144363: a4 = a4 - a3\n144366: a4 = a4 - a1\n144369: a1 = a4 >s 0\n144371: a3 = a2 >u 0\n144373: a3 = a1 if a4 != 0\n144376: a2 = a2 | a4\n144379: a5 = a3 if a2 != 0\n144382: jump @1687 if a5 == 0\n      : @1670 (gas: 10)\n144386: a2 = ra | t0\n144389: u64 [sp + 0x98] = t2\n144393: a1 = t2 | s1\n144396: a2 = a2 | a1\n144399: a2 = a2 >> 0x20\n144402: u64 [sp + 0x70] = t0\n144405: a1 = a1 | t0\n144408: a1 = a1 << 0x20\n144411: a1 = a1 | a2\n144414: jump @1686 if a1 != 0\n      : @1671 (gas: 8)\n144418: u64 [sp + 0x68] = s1\n144421: u64 [sp + 0x38] = a0\n144424: i32 a1 = ra + 0\n144426: i32 a0 = sp + 0x1a0\n144430: u64 [sp + 0x58] = a1\n144433: s1 = ra\n144435: ecalli 3 // 'call_data_load'\n144437: fallthrough\n      : @1672 (gas: 7)\n144438: a0 = u64 [sp + 0x1b8]\n144442: a1 = u64 [sp + 0x1b0]\n144446: a2 = u64 [sp + 0x1a8]\n144450: a3 = a1 | a0\n144453: a4 = a2 <u 0x1\n144456: a4 = 0 if a3 != 0\n144458: jump @1687 if a4 == 0\n      : @1673 (gas: 43)\n144462: a3 = u64 [sp + 0x1a0]\n144466: t0 = a3 + s1\n144469: a3 = t0 <u a3\n144472: a4 = u64 [sp + 0x98]\n144476: a4 = a4 + a2\n144479: t1 = a4 + a3\n144482: a4 = t1 ^ a2\n144485: u64 [sp + 0x60] = s1\n144488: s1 = t1 <u a2\n144491: s1 = a3 if a4 == 0\n144494: a2 = u64 [sp + 0x70]\n144497: a2 = a2 + a1\n144500: s1 = s1 + a2\n144503: a3 = s1 <u a2\n144506: a1 = a2 <u a1\n144509: a2 = u64 [sp + 0x68]\n144512: a0 = a0 + a2\n144515: a0 = a0 + a1\n144518: ra = a0 + a3\n144521: a0 = t0 + 0x1f\n144524: a1 = a0 <u t0\n144527: a2 = t1 + a1\n144530: a3 = a2 <u t1\n144533: a3 = a1 if a1 == 0\n144536: t2 = s1 + a3\n144539: a1 = t2 <u s1\n144542: a1 = a1 + ra\n144545: a5 = u64 [sp + 0x90]\n144549: a4 = a2 ^ a5\n144552: a2 = a2 <u a5\n144555: a5 = u64 [sp + 0x88]\n144559: a0 = a0 <u a5\n144562: a0 = a2 if a4 != 0\n144565: a5 = u64 [sp + 0x80]\n144569: a2 = t2 <u a5\n144572: a4 = u64 [sp + 0x78]\n144575: a3 = a1 ^ a4\n144578: a1 = a1 <s a4\n144581: a1 = a2 if a3 == 0\n144584: a2 = t2 ^ a5\n144587: a2 = a2 | a3\n144590: a0 = a1 if a2 != 0\n144593: jump @1688 if a0 == 0\n      : @1674 (gas: 11)\n144597: a0 = t0 | s1\n144600: u64 [sp + 0x50] = t1\n144603: u64 [sp + 0x40] = ra\n144606: a1 = t1 | ra\n144609: a0 = a0 | a1\n144612: a0 = a0 >> 0x20\n144615: u64 [sp + 0x48] = s1\n144618: a1 = a1 | s1\n144621: a1 = a1 << 0x20\n144624: a0 = a0 | a1\n144627: jump @1686 if a0 != 0\n      : @1675 (gas: 40)\n144631: i32 a1 = t0 + 0\n144633: i32 a0 = sp + 0x1e0\n144637: s1 = t0\n144639: ecalli 3 // 'call_data_load'\n144641: t0 = u64 [sp + 0x1e0]\n144645: t1 = u64 [sp + 0x1e8]\n144649: a2 = u64 [sp + 0x1f0]\n144653: a3 = u64 [sp + 0x1f8]\n144657: a4 = s1 + 0x20\n144660: a5 = a4 <u s1\n144663: a1 = u64 [sp + 0x50]\n144666: a0 = a1 + a5\n144669: a1 = a0 <u a1\n144672: a1 = a5 if a5 == 0\n144675: a5 = u64 [sp + 0x48]\n144678: a1 = a1 + a5\n144681: a5 = a1 <u a5\n144684: s1 = u64 [sp + 0x40]\n144687: a5 = a5 + s1\n144690: s1 = u64 [sp + 0x78]\n144693: u64 [sp + 0x138] = s1\n144697: s1 = u64 [sp + 0x80]\n144701: u64 [sp + 0x130] = s1\n144705: s1 = u64 [sp + 0x90]\n144709: u64 [sp + 0x128] = s1\n144713: s1 = u64 [sp + 0x88]\n144717: u64 [sp + 0x120] = s1\n144721: u64 [sp + 0x158] = a3\n144725: u64 [sp + 0x150] = a2\n144729: u64 [sp + 0x148] = t1\n144733: u64 [sp + 0x140] = t0\n144737: u64 [sp + 0x168] = a0\n144741: u64 [sp + 0x160] = a4\n144745: u64 [sp + 0x170] = a1\n144749: a0 = sp + 0x180\n144753: a1 = sp + 0x160\n144757: a2 = sp + 0x140\n144761: a3 = sp + 0x120\n144765: u64 [sp + 0x178] = a5\n144769: ra = 1556, jump @671\n      : @1676 [@dyn 778] (gas: 10)\n144776: a0 = u64 [sp + 0x70]\n144779: s1 = u64 [sp + 0x68]\n144782: s1 = s1 | a0\n144785: a0 = 0xffffffe0\n144795: a1 = u64 [sp + 0x60]\n144798: a0 = a1 <u a0\n144801: a1 = u64 [sp + 0x98]\n144805: a0 = 0 if a1 != 0\n144807: a0 = 0 if s1 != 0\n144809: jump @1686 if a0 == 0\n      : @1677 (gas: 13)\n144813: a0 = u64 [sp + 0x198]\n144817: u64 [sp + 0x30] = a0\n144820: a0 = u64 [sp + 0x190]\n144824: u64 [sp + 0x40] = a0\n144827: a0 = u64 [sp + 0x188]\n144831: u64 [sp + 0x48] = a0\n144834: a0 = u64 [sp + 0x180]\n144838: u64 [sp + 0x50] = a0\n144841: a0 = u64 [sp + 0x58]\n144844: i32 a1 = a0 + 0x20\n144847: i32 a0 = sp + 0x1e0\n144851: ecalli 3 // 'call_data_load'\n144853: fallthrough\n      : @1678 (gas: 7)\n144854: a4 = u64 [sp + 0x1f8]\n144858: a3 = u64 [sp + 0x1f0]\n144862: a2 = u64 [sp + 0x1e8]\n144866: a0 = a3 | a4\n144869: a1 = a2 <u 0x1\n144872: a1 = 0 if a0 != 0\n144874: jump @1690 if a1 == 0\n      : @1679 (gas: 10)\n144878: u64 [sp + 0x18] = a4\n144881: u64 [sp + 0x20] = a3\n144884: u64 [sp + 0x28] = a2\n144887: a0 = 0xffffffc0\n144897: a1 = u64 [sp + 0x60]\n144900: a0 = a1 <u a0\n144903: a1 = u64 [sp + 0x98]\n144907: a0 = 0 if a1 != 0\n144909: a0 = 0 if s1 != 0\n144911: jump @1686 if a0 == 0\n      : @1680 (gas: 7)\n144915: a0 = u64 [sp + 0x1e0]\n144919: u64 [sp + 0x10] = a0\n144922: a0 = u64 [sp + 0x58]\n144925: i32 a1 = a0 + 0x40\n144928: i32 a0 = sp + 0x1c0\n144932: ecalli 3 // 'call_data_load'\n144934: fallthrough\n      : @1681 (gas: 7)\n144935: a0 = u64 [sp + 0x1d8]\n144939: a1 = u64 [sp + 0x1d0]\n144943: a2 = u64 [sp + 0x1c8]\n144947: a3 = a1 | a0\n144950: a4 = a2 <u 0x1\n144953: a4 = 0 if a3 != 0\n144955: jump @1687 if a4 == 0\n      : @1682 (gas: 43)\n144959: a3 = u64 [sp + 0x1c0]\n144963: a4 = u64 [sp + 0x60]\n144966: t0 = a3 + a4\n144969: a3 = t0 <u a3\n144972: a4 = u64 [sp + 0x98]\n144976: a4 = a4 + a2\n144979: t1 = a4 + a3\n144982: a4 = t1 ^ a2\n144985: s1 = t1 <u a2\n144988: s1 = a3 if a4 == 0\n144991: a2 = u64 [sp + 0x70]\n144994: a2 = a2 + a1\n144997: s1 = s1 + a2\n145000: a3 = s1 <u a2\n145003: a1 = a2 <u a1\n145006: a2 = u64 [sp + 0x68]\n145009: a0 = a0 + a2\n145012: a0 = a0 + a1\n145015: ra = a0 + a3\n145018: a0 = t0 + 0x1f\n145021: a1 = a0 <u t0\n145024: a2 = t1 + a1\n145027: a3 = a2 <u t1\n145030: a3 = a1 if a1 == 0\n145033: t2 = s1 + a3\n145036: a1 = t2 <u s1\n145039: a1 = a1 + ra\n145042: a5 = u64 [sp + 0x90]\n145046: a4 = a2 ^ a5\n145049: a2 = a2 <u a5\n145052: a5 = u64 [sp + 0x88]\n145056: a0 = a0 <u a5\n145059: a0 = a2 if a4 != 0\n145062: a5 = u64 [sp + 0x80]\n145066: a2 = t2 <u a5\n145069: a4 = u64 [sp + 0x78]\n145072: a3 = a1 ^ a4\n145075: a1 = a1 <u a4\n145078: a1 = a2 if a3 == 0\n145081: a2 = t2 ^ a5\n145084: a2 = a2 | a3\n145087: a0 = a1 if a2 != 0\n145090: jump @1688 if a0 == 0\n      : @1683 (gas: 11)\n145094: a0 = t0 | s1\n145097: u64 [sp + 0x98] = t1\n145101: u64 [sp + 0x68] = ra\n145104: a1 = t1 | ra\n145107: a0 = a0 | a1\n145110: a0 = a0 >> 0x20\n145113: u64 [sp + 0x70] = s1\n145116: a1 = a1 | s1\n145119: a1 = a1 << 0x20\n145122: a0 = a0 | a1\n145125: jump @1686 if a0 != 0\n      : @1684 (gas: 40)\n145129: i32 a1 = t0 + 0\n145131: i32 a0 = sp + 0x1e0\n145135: s1 = t0\n145137: ecalli 3 // 'call_data_load'\n145139: t0 = u64 [sp + 0x1e0]\n145143: t1 = u64 [sp + 0x1e8]\n145147: a2 = u64 [sp + 0x1f0]\n145151: a3 = u64 [sp + 0x1f8]\n145155: a4 = s1 + 0x20\n145158: a5 = a4 <u s1\n145161: a1 = u64 [sp + 0x98]\n145165: a0 = a1 + a5\n145168: a1 = a0 <u a1\n145171: a1 = a5 if a5 == 0\n145174: a5 = u64 [sp + 0x70]\n145177: a1 = a1 + a5\n145180: a5 = a1 <u a5\n145183: s1 = u64 [sp + 0x68]\n145186: a5 = a5 + s1\n145189: s1 = u64 [sp + 0x78]\n145192: u64 [sp + 0xb8] = s1\n145196: s1 = u64 [sp + 0x80]\n145200: u64 [sp + 0xb0] = s1\n145204: s1 = u64 [sp + 0x90]\n145208: u64 [sp + 0xa8] = s1\n145212: s1 = u64 [sp + 0x88]\n145216: u64 [sp + 0xa0] = s1\n145220: u64 [sp + 0xd8] = a3\n145224: u64 [sp + 0xd0] = a2\n145228: u64 [sp + 0xc8] = t1\n145232: u64 [sp + 0xc0] = t0\n145236: u64 [sp + 0xe8] = a0\n145240: u64 [sp + 0xe0] = a4\n145244: u64 [sp + 0xf0] = a1\n145248: a0 = sp + 0x100\n145252: a1 = sp + 0xe0\n145256: a2 = sp + 0xc0\n145260: a3 = sp + 0xa0\n145264: u64 [sp + 0xf8] = a5\n145268: ra = 1558, jump @671\n      : @1685 [@dyn 779] (gas: 31)\n145275: a0 = u64 [sp + 0x118]\n145279: a1 = u64 [sp + 0x110]\n145283: a2 = u64 [sp + 0x108]\n145287: a3 = u64 [sp + 0x100]\n145291: a4 = u64 [sp + 0x38]\n145294: u64 [a4 + 0x58] = a0\n145297: u64 [a4 + 0x50] = a1\n145300: u64 [a4 + 0x48] = a2\n145303: u64 [a4 + 0x40] = a3\n145306: a0 = u64 [sp + 0x18]\n145309: u64 [a4 + 0x38] = a0\n145312: a0 = u64 [sp + 0x20]\n145315: u64 [a4 + 0x30] = a0\n145318: a0 = u64 [sp + 0x28]\n145321: u64 [a4 + 0x28] = a0\n145324: a0 = u64 [sp + 0x10]\n145327: u64 [a4 + 0x20] = a0\n145330: a0 = u64 [sp + 0x30]\n145333: u64 [a4 + 0x18] = a0\n145336: a0 = u64 [sp + 0x40]\n145339: u64 [a4 + 0x10] = a0\n145342: a0 = u64 [sp + 0x48]\n145345: u64 [a4 + 0x8] = a0\n145348: a0 = u64 [sp + 0x50]\n145351: u64 [a4] = a0\n145353: sp = s0 + 0xfffffffffffffde0\n145357: ra = u64 [sp + 0x218]\n145361: s0 = u64 [sp + 0x210]\n145365: s1 = u64 [sp + 0x208]\n145369: sp = sp + 0x220\n145373: ret\n      : @1686 (gas: 1)\n145375: trap\n      : @1687 (gas: 4)\n145376: a0 = 0\n145378: a1 = 0\n145380: ra = 0x618\n145384: jump @0\n      : @1688 (gas: 2)\n145388: a1 = 0\n145390: ra = 1560, jump @0\n      : @1689 [@dyn 780] (gas: 7)\n145397: i32 a1 = a0 + 0\n145399: a0 = 0x1\n145402: a2 = 0\n145404: ecalli 13 // 'seal_return'\n145406: a0 = 0\n145408: ra = 0x618\n145412: jump @0\n      : @1690 (gas: 3)\n145416: a0 = 0\n145418: ra = 0x618\n145422: jump @0\n      : @1691 (gas: 17)\n145426: sp = sp + 0xffffffffffffffa0\n145429: u64 [sp + 0x58] = ra\n145432: u64 [sp + 0x50] = s0\n145435: u64 [sp + 0x48] = s1\n145438: a3 = u64 [a1 + 0x18]\n145441: a4 = u64 [a1 + 0x10]\n145444: a5 = u64 [a1 + 0x8]\n145447: s1 = u64 [a1]\n145449: a1 = a5 | a3\n145452: a2 = s1 | a4\n145455: a2 = a2 | a1\n145458: a2 = a2 >> 0x20\n145461: a1 = a1 | a4\n145464: a1 = a1 << 0x20\n145467: a1 = a1 | a2\n145470: u64 [sp + 0x20] = a0\n145473: jump @1700 if a1 != 0\n      : @1692 (gas: 19)\n145477: a0 = s1 + 0x20\n145480: u64 [sp + 0x40] = a0\n145483: a0 = a0 <u s1\n145486: a1 = a5 + a0\n145489: u64 [sp + 0x38] = a1\n145492: u64 [sp + 0x8] = a5\n145495: s0 = a1 <u a5\n145498: s0 = a0 if a0 == 0\n145501: s0 = s0 + a4\n145504: u64 [sp + 0x10] = a4\n145507: a0 = s0 <u a4\n145510: u64 [sp + 0x18] = a3\n145513: a0 = a0 + a3\n145516: u64 [sp + 0x30] = a0\n145519: u64 [sp] = s1\n145521: i32 a0 = s1 + 0\n145523: a1 = 0x20\n145526: s1 = 0x20\n145529: ra = 1562, jump @0\n      : @1693 [@dyn 781] (gas: 43)\n145536: u8 [a0 + 0x1f] = s1\n145539: a1 = u64 [sp + 0x40]\n145542: a1 = a1 | s0\n145545: a2 = u64 [sp + 0x38]\n145548: a3 = u64 [sp + 0x30]\n145551: a2 = a2 | a3\n145554: a1 = a1 | a2\n145557: a1 = a1 >> 0x20\n145560: a2 = a2 | s0\n145563: a2 = a2 << 0x20\n145566: a1 = a1 | a2\n145569: u8 [a0 + 30] = 0\n145572: u8 [a0 + 29] = 0\n145575: u8 [a0 + 28] = 0\n145578: u8 [a0 + 27] = 0\n145581: u8 [a0 + 26] = 0\n145584: u8 [a0 + 25] = 0\n145587: u8 [a0 + 24] = 0\n145590: u8 [a0 + 23] = 0\n145593: u8 [a0 + 22] = 0\n145596: u8 [a0 + 21] = 0\n145599: u8 [a0 + 20] = 0\n145602: u8 [a0 + 19] = 0\n145605: u8 [a0 + 18] = 0\n145608: u8 [a0 + 17] = 0\n145611: u8 [a0 + 16] = 0\n145614: u8 [a0 + 15] = 0\n145617: u8 [a0 + 14] = 0\n145620: u8 [a0 + 13] = 0\n145623: u8 [a0 + 12] = 0\n145626: u8 [a0 + 11] = 0\n145629: u8 [a0 + 10] = 0\n145632: u8 [a0 + 9] = 0\n145635: u8 [a0 + 8] = 0\n145638: u8 [a0 + 7] = 0\n145641: u8 [a0 + 6] = 0\n145644: u8 [a0 + 5] = 0\n145647: u8 [a0 + 4] = 0\n145650: u8 [a0 + 3] = 0\n145653: u8 [a0 + 2] = 0\n145656: u8 [a0 + 1] = 0\n145659: u8 [a0 + 0] = 0\n145661: jump @1700 if a1 != 0\n      : @1694 (gas: 6)\n145665: s1 = s0\n145667: s0 = u64 [sp + 0x40]\n145670: i32 a0 = s0 + 0\n145672: a1 = 0x20\n145675: u64 [sp + 0x28] = a0\n145678: ra = 1564, jump @0\n      : @1695 [@dyn 782] (gas: 42)\n145685: u8 [a0 + 31] = 0x24\n145689: u8 [a0 + 30] = 0\n145692: u8 [a0 + 29] = 0\n145695: u8 [a0 + 28] = 0\n145698: u8 [a0 + 27] = 0\n145701: u8 [a0 + 26] = 0\n145704: u8 [a0 + 25] = 0\n145707: u8 [a0 + 24] = 0\n145710: u8 [a0 + 23] = 0\n145713: u8 [a0 + 22] = 0\n145716: u8 [a0 + 21] = 0\n145719: u8 [a0 + 20] = 0\n145722: u8 [a0 + 19] = 0\n145725: u8 [a0 + 18] = 0\n145728: u8 [a0 + 17] = 0\n145731: u8 [a0 + 16] = 0\n145734: u8 [a0 + 15] = 0\n145737: u8 [a0 + 14] = 0\n145740: u8 [a0 + 13] = 0\n145743: u8 [a0 + 12] = 0\n145746: u8 [a0 + 11] = 0\n145749: u8 [a0 + 10] = 0\n145752: u8 [a0 + 9] = 0\n145755: u8 [a0 + 8] = 0\n145758: u8 [a0 + 7] = 0\n145761: u8 [a0 + 6] = 0\n145764: u8 [a0 + 5] = 0\n145767: u8 [a0 + 4] = 0\n145770: u8 [a0 + 3] = 0\n145773: u8 [a0 + 2] = 0\n145776: u8 [a0 + 1] = 0\n145779: a1 = u64 [sp + 0x30]\n145782: a2 = s1 | a1\n145785: s1 = 0x100000000\n145795: a1 = 0xffffffe0\n145805: a1 = s0 <u a1\n145808: s0 = u64 [sp + 0x38]\n145811: a1 = 0 if s0 != 0\n145813: u64 [sp + 0x30] = a2\n145816: a1 = 0 if a2 != 0\n145818: u8 [a0 + 0] = 0\n145820: jump @1700 if a1 == 0\n      : @1696 (gas: 4)\n145824: a0 = u64 [sp + 0x28]\n145827: i32 a0 = a0 + 0x20\n145830: a1 = 0x20\n145833: ra = 1566, jump @0\n      : @1697 [@dyn 783] (gas: 41)\n145840: u8 [a0 + 31] = 0x70\n145844: u8 [a0 + 30] = 0x78\n145848: u8 [a0 + 28] = 0x20\n145852: u8 [a0 + 18] = 0x20\n145856: u8 [a0 + 17] = 0x3a\n145860: u8 [a0 + 13] = 0x66\n145864: u8 [a0 + 9] = 0x56\n145868: u8 [a0 + 25] = 0x75\n145872: u8 [a0 + 6] = 0x75\n145876: u8 [a0 + 24] = 0x74\n145880: u8 [a0 + 5] = 0x74\n145884: u8 [a0 + 23] = 0x61\n145888: u8 [a0 + 4] = 0x61\n145892: u8 [a0 + 22] = 0x6e\n145896: u8 [a0 + 3] = 0x6e\n145900: u8 [a0 + 21] = 0x67\n145904: u8 [a0 + 2] = 0x67\n145908: u8 [a0 + 19] = 0x53\n145912: u8 [a0 + 0] = 0x53\n145915: a1 = s1 + 0xffffffffffffffc0\n145918: a2 = u64 [sp + 0x40]\n145921: a1 = a2 <u a1\n145924: s1 = 0x65\n145927: u8 [a0 + 0x1d] = s1\n145930: u8 [a0 + 0x1b] = s1\n145933: a1 = 0 if s0 != 0\n145935: u8 [a0 + 26] = 0x72\n145939: a2 = u64 [sp + 0x30]\n145942: a1 = 0 if a2 != 0\n145944: s0 = 0x69\n145947: u8 [a0 + 0x14] = s0\n145950: u8 [a0 + 16] = 0x72\n145954: u8 [a0 + 0xf] = s1\n145957: u8 [a0 + 0xe] = s0\n145960: u8 [a0 + 0xc] = s0\n145963: u8 [a0 + 11] = 0x72\n145967: u8 [a0 + 0xa] = s1\n145970: u8 [a0 + 0x8] = s1\n145973: u8 [a0 + 7] = 0x72\n145977: u8 [a0 + 0x1] = s0\n145980: jump @1700 if a1 == 0\n      : @1698 (gas: 4)\n145984: a0 = u64 [sp + 0x28]\n145987: i32 a0 = a0 + 0x40\n145990: a1 = 0x20\n145993: ra = 1568, jump @0\n      : @1699 [@dyn 784] (gas: 54)\n146000: u8 [a0 + 31] = 0\n146003: u8 [a0 + 30] = 0\n146006: u8 [a0 + 29] = 0\n146009: u8 [a0 + 28] = 0\n146012: u8 [a0 + 27] = 0\n146015: u8 [a0 + 26] = 0\n146018: u8 [a0 + 25] = 0\n146021: u8 [a0 + 24] = 0\n146024: u8 [a0 + 23] = 0\n146027: u8 [a0 + 22] = 0\n146030: u8 [a0 + 21] = 0\n146033: u8 [a0 + 20] = 0\n146036: u8 [a0 + 19] = 0\n146039: u8 [a0 + 18] = 0\n146042: u8 [a0 + 17] = 0\n146045: u8 [a0 + 16] = 0\n146048: u8 [a0 + 15] = 0\n146051: u8 [a0 + 14] = 0\n146054: u8 [a0 + 13] = 0\n146057: u8 [a0 + 12] = 0\n146060: u8 [a0 + 11] = 0\n146063: u8 [a0 + 10] = 0\n146066: u8 [a0 + 9] = 0\n146069: u8 [a0 + 8] = 0\n146072: u8 [a0 + 7] = 0\n146075: u8 [a0 + 6] = 0\n146078: u8 [a0 + 5] = 0\n146081: u8 [a0 + 4] = 0\n146084: u8 [a0 + 3] = 0x64\n146088: u8 [a0 + 0x2] = s1\n146091: u8 [a0 + 1] = 0x72\n146095: u8 [a0] = s0\n146097: a1 = u64 [sp]\n146099: a0 = a1 + 0x80\n146103: a1 = a0 <u a1\n146106: a3 = u64 [sp + 0x8]\n146109: a2 = a3 + a1\n146112: a3 = a2 <u a3\n146115: a3 = a1 if a1 == 0\n146118: a1 = u64 [sp + 0x10]\n146121: a3 = a3 + a1\n146124: a1 = a3 <u a1\n146127: a4 = u64 [sp + 0x18]\n146130: a1 = a1 + a4\n146133: a4 = u64 [sp + 0x20]\n146136: u64 [a4] = a0\n146138: u64 [a4 + 0x8] = a2\n146141: u64 [a4 + 0x10] = a3\n146144: u64 [a4 + 0x18] = a1\n146147: ra = u64 [sp + 0x58]\n146150: s0 = u64 [sp + 0x50]\n146153: s1 = u64 [sp + 0x48]\n146156: sp = sp + 0x60\n146159: ret\n      : @1700 (gas: 1)\n146161: trap\n      : @1701 [@dyn 785] (gas: 67)\n146162: a0 = u64 [sp + 0x380]\n146166: u64 [sp + 0x98] = a0\n146170: a0 = u64 [sp + 0x388]\n146174: u64 [sp + 0x90] = a0\n146178: a0 = u64 [sp + 0x390]\n146182: u64 [sp + 0x88] = a0\n146186: a0 = u64 [sp + 0x398]\n146190: u64 [sp + 0x80] = a0\n146194: a0 = u64 [sp + 0x360]\n146198: u64 [sp + 0xb8] = a0\n146202: a0 = u64 [sp + 0x368]\n146206: u64 [sp + 0x58] = a0\n146209: a0 = u64 [sp + 0x370]\n146213: u64 [sp + 0x48] = a0\n146216: a0 = u64 [sp + 0x378]\n146220: u64 [sp + 0x38] = a0\n146223: a0 = u64 [sp + 0x340]\n146227: u64 [sp + 0xa0] = a0\n146231: a0 = u64 [sp + 0x348]\n146235: u64 [sp + 0xa8] = a0\n146239: a0 = u64 [sp + 0x350]\n146243: u64 [sp + 0xb0] = a0\n146247: s1 = u64 [sp + 0x358]\n146251: i32 a0 = sp + 0x3a0\n146255: ecalli 0 // 'address'\n146256: a0 = u64 [sp + 0x3a8]\n146260: a1 = i32 [sp + 0x3b0]\n146264: a2 = u64 [sp + 0x3a0]\n146268: a0 = reverse a0\n146270: a3 = a0 << 0x20\n146273: a1 = reverse a1\n146275: a1 = a1 >> 0x20\n146278: a1 = a1 | a3\n146281: u64 [sp + 0x20] = a1\n146284: a0 = a0 >> 0x20\n146287: a1 = reverse a2\n146289: a2 = u32 [0x20114]\n146294: a3 = a1 << 0x20\n146297: a0 = a0 | a3\n146300: u64 [sp + 0x18] = a0\n146303: a1 = a1 >> 0x20\n146306: u64 [sp + 0x10] = a1\n146309: u64 [sp + 664] = 0\n146313: u64 [sp + 656] = 0\n146317: u64 [sp + 648] = 0\n146321: u64 [sp + 0x280] = a2\n146325: a0 = u64 [sp + 0x28]\n146328: u64 [sp + 0x2b8] = a0\n146332: a0 = u64 [sp + 0x30]\n146335: u64 [sp + 0x2b0] = a0\n146339: a0 = u64 [sp + 0x40]\n146342: u64 [sp + 0x2a8] = a0\n146346: a0 = u64 [sp + 0x50]\n146349: u64 [sp + 0x2a0] = a0\n146353: a0 = u64 [sp + 0x60]\n146356: u64 [sp + 0x2d8] = a0\n146360: a0 = u64 [sp + 0x68]\n146363: u64 [sp + 0x2d0] = a0\n146367: a0 = u64 [sp + 0x70]\n146370: u64 [sp + 0x2c8] = a0\n146374: a0 = sp + 0x2e0\n146378: a1 = sp + 0x2c0\n146382: a2 = sp + 0x2a0\n146386: a3 = sp + 0x280\n146390: a4 = u64 [sp + 0x78]\n146393: u64 [sp + 0x2c0] = a4\n146397: ra = 1572, jump @671\n      : @1702 [@dyn 786] (gas: 37)\n146404: a0 = u64 [sp + 0x2e0]\n146408: a1 = u64 [sp + 0x2e8]\n146412: a2 = u64 [sp + 0x2f0]\n146416: a3 = u64 [sp + 0x2f8]\n146420: u64 [sp + 0x78] = s1\n146423: u64 [sp + 0x1f8] = s1\n146427: a4 = u64 [sp + 0xb0]\n146431: u64 [sp + 0x1f0] = a4\n146435: a4 = u64 [sp + 0xa8]\n146439: u64 [sp + 0x1e8] = a4\n146443: a4 = u64 [sp + 0xa0]\n146447: u64 [sp + 0x1e0] = a4\n146451: u64 [sp + 0x218] = a3\n146455: u64 [sp + 0x210] = a2\n146459: u64 [sp + 0x208] = a1\n146463: u64 [sp + 0x200] = a0\n146467: a0 = u64 [sp + 0x38]\n146470: u64 [sp + 0x238] = a0\n146474: a0 = u64 [sp + 0x48]\n146477: u64 [sp + 0x230] = a0\n146481: a0 = u64 [sp + 0x58]\n146484: u64 [sp + 0x228] = a0\n146488: a0 = u64 [sp + 0xb8]\n146492: u64 [sp + 0x220] = a0\n146496: a0 = u64 [sp + 0x10]\n146499: u64 [sp + 0x250] = a0\n146503: a0 = u64 [sp + 0x18]\n146506: u64 [sp + 0x248] = a0\n146510: a0 = u64 [sp + 0x20]\n146513: u64 [sp + 0x240] = a0\n146517: a0 = sp + 0x260\n146521: a1 = sp + 0x240\n146525: a2 = sp + 0x220\n146529: a3 = sp + 0x200\n146533: a4 = sp + 0x1e0\n146537: u64 [sp + 600] = 0\n146541: ra = 1574, jump @1764\n      : @1703 [@dyn 787] (gas: 20)\n146547: a3 = u64 [sp + 0x260]\n146551: a0 = u64 [sp + 0x268]\n146555: a1 = u64 [sp + 0x270]\n146559: a2 = u64 [sp + 0x278]\n146563: a4 = u64 [sp + 0x80]\n146567: u64 [sp + 0x158] = a4\n146571: a4 = u64 [sp + 0x88]\n146575: u64 [sp + 0x150] = a4\n146579: a4 = u64 [sp + 0x90]\n146583: u64 [sp + 0x148] = a4\n146587: a4 = u64 [sp + 0x98]\n146591: u64 [sp + 0x140] = a4\n146595: u64 [sp + 0x178] = a2\n146599: u64 [sp + 0x170] = a1\n146603: u64 [sp + 0x168] = a0\n146607: a0 = sp + 0x180\n146611: a1 = sp + 0x160\n146615: a2 = sp + 0x140\n146619: u64 [sp + 0x160] = a3\n146623: ra = 1576, jump @1717\n      : @1704 [@dyn 788] (gas: 27)\n146629: t1 = u64 [sp + 0x1d8]\n146633: a1 = u64 [sp + 0x1d0]\n146637: a2 = u64 [sp + 0x1c8]\n146641: a3 = u64 [sp + 0x1c0]\n146645: a4 = u64 [sp + 0x1b8]\n146649: a5 = u64 [sp + 0x1b0]\n146653: s1 = u64 [sp + 0x1a8]\n146657: t0 = u64 [sp + 0x1a0]\n146661: a0 = u64 [sp + 0x198]\n146665: u64 [sp + 0x98] = a0\n146669: a0 = u64 [sp + 0x190]\n146673: u64 [sp + 0x90] = a0\n146677: a0 = u64 [sp + 0x188]\n146681: u64 [sp + 0x88] = a0\n146685: a0 = u64 [sp + 0x180]\n146689: u64 [sp + 0x80] = a0\n146693: u64 [sp + 0x118] = t1\n146697: u64 [sp + 0x110] = a1\n146701: u64 [sp + 0x108] = a2\n146705: u64 [sp + 0x100] = a3\n146709: u64 [sp + 0x138] = a4\n146713: u64 [sp + 0x130] = a5\n146717: u64 [sp + 0x128] = s1\n146721: a0 = sp + 0x120\n146725: a1 = sp + 0x100\n146729: u64 [sp + 0x120] = t0\n146733: ra = 1578, jump @1732\n      : @1705 [@dyn 789] (gas: 3)\n146739: i32 a0 = sp + 0x3c0\n146743: ecalli 9 // 'now'\n146745: fallthrough\n      : @1706 (gas: 15)\n146746: a0 = u64 [sp + 0x3d8]\n146750: a1 = u64 [sp + 0x3d0]\n146754: a2 = u64 [sp + 0x3c8]\n146758: a3 = u64 [sp + 0x3c0]\n146762: a4 = a0 <u 0x1\n146765: a5 = a1 <u 0x1\n146768: a5 = a4 if a0 != 0\n146771: a4 = u64 [sp + 0xb8]\n146775: a3 = a4 <u a3\n146778: a3 = a3 ^ 0x1\n146781: a4 = a2 <u 0x1\n146784: a4 = a3 if a2 == 0\n146787: a0 = a0 | a1\n146790: a4 = a5 if a0 != 0\n146793: jump @1708 if a4 == 0\n      : @1707 (gas: 23)\n146796: a0 = u64 [sp + 0x8]\n146799: a1 = u64 [sp + 0xa0]\n146803: u64 [a0 + 0x20] = a1\n146806: a1 = u64 [sp + 0x80]\n146810: u64 [a0] = a1\n146812: a1 = u64 [sp + 0xa8]\n146816: u64 [a0 + 0x28] = a1\n146819: a1 = u64 [sp + 0x88]\n146823: u64 [a0 + 0x8] = a1\n146826: a1 = u64 [sp + 0xb0]\n146830: u64 [a0 + 0x30] = a1\n146833: a1 = u64 [sp + 0x90]\n146837: u64 [a0 + 0x10] = a1\n146840: a1 = u64 [sp + 0x78]\n146843: u64 [a0 + 0x38] = a1\n146846: a1 = u64 [sp + 0x98]\n146850: u64 [a0 + 0x18] = a1\n146853: sp = s0 + 0xfffffffffffffc00\n146857: ra = u64 [sp + 0x3f8]\n146861: s0 = u64 [sp + 0x3f0]\n146865: s1 = u64 [sp + 0x3e8]\n146869: sp = sp + 0x400\n146873: ret\n      : @1708 (gas: 3)\n146875: a0 = 0x40\n146878: a1 = 0x20\n146881: ra = 1580, jump @0\n      : @1709 [@dyn 790] (gas: 103)\n146888: a1 = u8 [a0 + 0x11]\n146891: a2 = u8 [a0 + 0x10]\n146894: a3 = u8 [a0 + 0x12]\n146897: a4 = u8 [a0 + 0x13]\n146900: a1 = a1 << 0x8\n146903: a1 = a1 | a2\n146906: a3 = a3 << 0x10\n146909: a4 = a4 << 0x18\n146912: a3 = a3 | a4\n146915: a1 = a1 | a3\n146918: a2 = u8 [a0 + 0x15]\n146921: a3 = u8 [a0 + 0x14]\n146924: a4 = u8 [a0 + 0x16]\n146927: a5 = u8 [a0 + 0x17]\n146930: a2 = a2 << 0x8\n146933: a2 = a2 | a3\n146936: a4 = a4 << 0x10\n146939: a5 = a5 << 0x18\n146942: a4 = a4 | a5\n146945: a2 = a2 | a4\n146948: a2 = a2 << 0x20\n146951: t0 = a2 | a1\n146954: a2 = u8 [a0 + 0x1]\n146957: a3 = u8 [a0]\n146959: a4 = u8 [a0 + 0x2]\n146962: a5 = u8 [a0 + 0x3]\n146965: a2 = a2 << 0x8\n146968: a2 = a2 | a3\n146971: a4 = a4 << 0x10\n146974: a5 = a5 << 0x18\n146977: a4 = a4 | a5\n146980: a2 = a2 | a4\n146983: a3 = u8 [a0 + 0x5]\n146986: a4 = u8 [a0 + 0x4]\n146989: a5 = u8 [a0 + 0x6]\n146992: s1 = u8 [a0 + 0x7]\n146995: a3 = a3 << 0x8\n146998: a3 = a3 | a4\n147001: a5 = a5 << 0x10\n147004: s1 = s1 << 0x18\n147007: a5 = a5 | s1\n147010: a3 = a3 | a5\n147013: a3 = a3 << 0x20\n147016: a2 = a2 | a3\n147019: a3 = u8 [a0 + 0x19]\n147022: a4 = u8 [a0 + 0x18]\n147025: a5 = u8 [a0 + 0x1a]\n147028: s1 = u8 [a0 + 0x1b]\n147031: a3 = a3 << 0x8\n147034: a3 = a3 | a4\n147037: a5 = a5 << 0x10\n147040: s1 = s1 << 0x18\n147043: a5 = a5 | s1\n147046: a3 = a3 | a5\n147049: a4 = u8 [a0 + 0x1d]\n147052: a5 = u8 [a0 + 0x1c]\n147055: s1 = u8 [a0 + 0x1e]\n147058: a1 = u8 [a0 + 0x1f]\n147061: a4 = a4 << 0x8\n147064: a4 = a4 | a5\n147067: s1 = s1 << 0x10\n147070: a1 = a1 << 0x18\n147073: a1 = a1 | s1\n147076: a1 = a1 | a4\n147079: a1 = a1 << 0x20\n147082: a3 = a3 | a1\n147085: a1 = u8 [a0 + 0x9]\n147088: a4 = u8 [a0 + 0x8]\n147091: a5 = u8 [a0 + 0xa]\n147094: s1 = u8 [a0 + 0xb]\n147097: a1 = a1 << 0x8\n147100: a1 = a1 | a4\n147103: a5 = a5 << 0x10\n147106: s1 = s1 << 0x18\n147109: a5 = a5 | s1\n147112: a1 = a1 | a5\n147115: a4 = u8 [a0 + 0xd]\n147118: a5 = u8 [a0 + 0xc]\n147121: s1 = u8 [a0 + 0xe]\n147124: a0 = u8 [a0 + 0xf]\n147127: a4 = a4 << 0x8\n147130: a4 = a4 | a5\n147133: s1 = s1 << 0x10\n147136: a0 = a0 << 0x18\n147139: a0 = a0 | s1\n147142: a0 = a0 | a4\n147145: a0 = a0 << 0x20\n147148: a0 = a0 | a1\n147151: s1 = reverse a0\n147153: a1 = reverse a3\n147155: a2 = reverse a2\n147157: a0 = reverse t0\n147159: u64 [sp + 0xb8] = a0\n147163: u64 [sp + 0xb0] = a2\n147167: a0 = a0 | a2\n147170: a2 = a1\n147172: a1 = a1 | s1\n147175: a1 = a1 | a0\n147178: a1 = a1 >> 0x20\n147181: a0 = a0 | s1\n147184: a0 = a0 << 0x20\n147187: a0 = a0 | a1\n147190: jump @1713 if a0 != 0\n      : @1710 (gas: 5)\n147194: u64 [sp + 0xa8] = a2\n147198: i32 a0 = a2 + 0\n147200: a1 = 0x20\n147203: u64 [sp + 0xa0] = a0\n147207: ra = 1582, jump @0\n      : @1711 [@dyn 791] (gas: 50)\n147214: u8 [a0 + 31] = 0\n147217: u8 [a0 + 30] = 0\n147220: u8 [a0 + 29] = 0\n147223: u8 [a0 + 28] = 0\n147226: u8 [a0 + 27] = 0\n147229: u8 [a0 + 26] = 0\n147232: u8 [a0 + 25] = 0\n147235: u8 [a0 + 24] = 0\n147238: u8 [a0 + 23] = 0\n147241: u8 [a0 + 22] = 0\n147244: u8 [a0 + 21] = 0\n147247: u8 [a0 + 20] = 0\n147250: u8 [a0 + 19] = 0\n147253: u8 [a0 + 18] = 0\n147256: u8 [a0 + 17] = 0\n147259: u8 [a0 + 16] = 0\n147262: u8 [a0 + 15] = 0\n147265: u8 [a0 + 14] = 0\n147268: u8 [a0 + 13] = 0\n147271: u8 [a0 + 12] = 0\n147274: u8 [a0 + 11] = 0\n147277: u8 [a0 + 10] = 0\n147280: u8 [a0 + 9] = 0\n147283: u8 [a0 + 8] = 0\n147286: u8 [a0 + 7] = 0\n147289: u8 [a0 + 6] = 0\n147292: u8 [a0 + 5] = 0\n147295: u8 [a0 + 4] = 0\n147298: u8 [a0 + 3] = 0xa0\n147303: u8 [a0 + 2] = 0x79\n147307: u8 [a0 + 1] = 0xc3\n147312: u8 [a0 + 0] = 0x8\n147315: a1 = u64 [sp + 0xa8]\n147319: a0 = a1 + 0x4\n147322: a1 = a0 <u a1\n147325: a3 = u64 [sp + 0xb8]\n147329: a2 = a3 + a1\n147332: a3 = a2 <u a3\n147335: a3 = a1 if a1 == 0\n147338: a3 = a3 + s1\n147341: a1 = a3 <u s1\n147344: a4 = u64 [sp + 0xb0]\n147348: a4 = a4 + a1\n147351: u64 [sp + 0xc8] = a2\n147355: u64 [sp + 0xc0] = a0\n147359: u64 [sp + 0xd0] = a3\n147363: a0 = sp + 0xe0\n147367: a1 = sp + 0xc0\n147371: u64 [sp + 0xd8] = a4\n147375: ra = 1584, jump @1691\n      : @1712 [@dyn 792] (gas: 30)\n147381: a0 = u64 [sp + 0xe8]\n147385: t0 = u64 [sp + 0xf8]\n147389: t1 = u64 [sp + 0xe0]\n147393: a3 = u64 [sp + 0xf0]\n147397: a1 = u64 [sp + 0xb8]\n147401: a4 = a0 ^ a1\n147404: a5 = a0 <u a1\n147407: t2 = a1\n147409: a2 = u64 [sp + 0xa8]\n147413: a1 = t1 <u a2\n147416: a5 = a1 if a4 == 0\n147419: a4 = a3 - s1\n147422: a3 = a3 <u s1\n147425: s1 = u64 [sp + 0xb0]\n147429: s1 = t0 - s1\n147432: s1 = s1 - a3\n147435: a3 = a4 <u a5\n147438: s1 = s1 - a3\n147441: a4 = a4 - a5\n147444: a0 = a0 - t2\n147447: a1 = a0 - a1\n147450: a0 = t1 - a2\n147453: a1 = a1 | s1\n147456: a2 = a0 | a4\n147459: a2 = a2 | a1\n147462: a1 = a1 | a4\n147465: a2 = a2 >> 0x20\n147468: a1 = a1 << 0x20\n147471: a1 = a1 | a2\n147474: jump @1714 if a1 == 0\n      : @1713 (gas: 1)\n147477: trap\n      : @1714 (gas: 4)\n147478: i32 s1 = a0 + 0\n147480: a0 = u64 [sp + 0xa0]\n147484: a1 = s1\n147486: ra = 1586, jump @0\n      : @1715 [@dyn 793] (gas: 6)\n147493: i32 a1 = a0 + 0\n147495: a0 = 0x1\n147498: a2 = s1\n147500: ra = 0x634\n147504: ecalli 13 // 'seal_return'\n147506: fallthrough\n      : @1716 [@dyn 794] (gas: 5)\n147507: u64 [a0 + 24] = 0\n147510: u64 [a0 + 16] = 0\n147513: u64 [a0 + 8] = 0\n147516: u64 [a0 + 0] = 0\n147518: ret\n      : @1717 (gas: 22)\n147520: sp = sp + 0xfffffffffffffdb0\n147524: u64 [sp + 0x248] = ra\n147528: u64 [sp + 0x240] = s0\n147532: u64 [sp + 0x238] = s1\n147536: s0 = sp + 0x250\n147540: sp = sp & 0xfffffffffffffff0\n147543: a5 = u64 [a2 + 0x10]\n147546: s1 = u64 [a2 + 0x18]\n147549: a3 = u64 [a2 + 0x8]\n147552: a4 = u64 [a2]\n147554: u64 [sp + 0x130] = a3\n147558: u64 [sp + 0x120] = s1\n147562: a2 = a3 | s1\n147565: a3 = a4 | a5\n147568: a3 = a3 | a2\n147571: a3 = a3 >> 0x20\n147574: u64 [sp + 0x128] = a5\n147578: a2 = a2 | a5\n147581: a2 = a2 << 0x20\n147584: a2 = a2 | a3\n147587: u64 [sp + 0x138] = a0\n147591: jump @1731 if a2 != 0\n      : @1718 (gas: 13)\n147595: a0 = u64 [a1 + 0x18]\n147598: u64 [sp + 0x100] = a0\n147602: a0 = u64 [a1 + 0x10]\n147605: u64 [sp + 0x108] = a0\n147609: a0 = u64 [a1 + 0x8]\n147612: u64 [sp + 0x110] = a0\n147616: a0 = u64 [a1]\n147618: u64 [sp + 0x118] = a0\n147622: u64 [sp + 0x140] = a4\n147626: i32 a0 = a4 + 0\n147628: a1 = 0x20\n147631: u64 [sp + 0x148] = a0\n147635: ra = 1590, jump @0\n      : @1719 [@dyn 795] (gas: 93)\n147642: a1 = u8 [a0 + 0x9]\n147645: a2 = u8 [a0 + 0x8]\n147648: a3 = u8 [a0 + 0xa]\n147651: a4 = u8 [a0 + 0xb]\n147654: a1 = a1 << 0x8\n147657: a1 = a1 | a2\n147660: a3 = a3 << 0x10\n147663: a4 = a4 << 0x18\n147666: a3 = a3 | a4\n147669: a1 = a1 | a3\n147672: a2 = u8 [a0 + 0xd]\n147675: a3 = u8 [a0 + 0xc]\n147678: a4 = u8 [a0 + 0xe]\n147681: a5 = u8 [a0 + 0xf]\n147684: a2 = a2 << 0x8\n147687: a2 = a2 | a3\n147690: a4 = a4 << 0x10\n147693: a5 = a5 << 0x18\n147696: a4 = a4 | a5\n147699: a2 = a2 | a4\n147702: a2 = a2 << 0x20\n147705: t0 = a2 | a1\n147708: a2 = u8 [a0 + 0x19]\n147711: a3 = u8 [a0 + 0x18]\n147714: a4 = u8 [a0 + 0x1a]\n147717: a5 = u8 [a0 + 0x1b]\n147720: a2 = a2 << 0x8\n147723: a2 = a2 | a3\n147726: a4 = a4 << 0x10\n147729: a5 = a5 << 0x18\n147732: a4 = a4 | a5\n147735: a2 = a2 | a4\n147738: a3 = u8 [a0 + 0x1d]\n147741: a4 = u8 [a0 + 0x1c]\n147744: a5 = u8 [a0 + 0x1e]\n147747: a1 = u8 [a0 + 0x1f]\n147750: a3 = a3 << 0x8\n147753: a3 = a3 | a4\n147756: a5 = a5 << 0x10\n147759: a1 = a1 << 0x18\n147762: a1 = a1 | a5\n147765: a1 = a1 | a3\n147768: a1 = a1 << 0x20\n147771: t1 = a1 | a2\n147774: a1 = u8 [a0 + 0x11]\n147777: a3 = u8 [a0 + 0x10]\n147780: a4 = u8 [a0 + 0x12]\n147783: a5 = u8 [a0 + 0x13]\n147786: a1 = a1 << 0x8\n147789: a1 = a1 | a3\n147792: a4 = a4 << 0x10\n147795: a5 = a5 << 0x18\n147798: a3 = a5 | a4\n147801: a3 = a3 | a1\n147804: a1 = u8 [a0 + 0x1]\n147807: a4 = u8 [a0]\n147809: a5 = u8 [a0 + 0x2]\n147812: s1 = u8 [a0 + 0x3]\n147815: a1 = a1 << 0x8\n147818: a1 = a1 | a4\n147821: a5 = a5 << 0x10\n147824: s1 = s1 << 0x18\n147827: a4 = s1 | a5\n147830: a4 = a4 | a1\n147833: a1 = u8 [a0 + 0x15]\n147836: a5 = u8 [a0 + 0x14]\n147839: s1 = u8 [a0 + 0x16]\n147842: a2 = u8 [a0 + 0x17]\n147845: a1 = a1 << 0x8\n147848: a1 = a1 | a5\n147851: s1 = s1 << 0x10\n147854: a2 = a2 << 0x18\n147857: a2 = a2 | s1\n147860: a1 = a1 | a2\n147863: a2 = u8 [a0 + 0x5]\n147866: a5 = u8 [a0 + 0x4]\n147869: s1 = u8 [a0 + 0x6]\n147872: a0 = u8 [a0 + 0x7]\n147875: a2 = a2 << 0x8\n147878: a2 = a2 | a5\n147881: s1 = s1 << 0x10\n147884: a0 = a0 << 0x18\n147887: a0 = a0 | s1\n147890: a0 = a0 | a2\n147893: a2 = 0x4100000000000000\n147903: a2 = t1 ^ a2\n147906: a2 = t0 | a2\n147909: a0 = a0 | a1\n147912: a0 = a0 << 0x20\n147915: a3 = a3 | a4\n147918: a0 = a0 | a3\n147921: a0 = a0 | a2\n147924: jump @1728 if a0 != 0\n      : @1720 (gas: 14)\n147928: a1 = u64 [sp + 0x148]\n147932: a0 = u64 [sp + 0x128]\n147936: a2 = u64 [sp + 0x120]\n147940: a3 = a0 | a2\n147943: a0 = 0x100000000\n147953: u64 [sp + 0x120] = a0\n147957: a0 = 0xffffffe0\n147967: a2 = u64 [sp + 0x140]\n147971: a0 = a2 <u a0\n147974: s1 = u64 [sp + 0x130]\n147978: a0 = 0 if s1 != 0\n147980: u64 [sp + 0x128] = a3\n147984: a0 = 0 if a3 != 0\n147986: jump @1731 if a0 == 0\n      : @1721 (gas: 3)\n147990: i32 a0 = a1 + 0x20\n147993: a1 = 0x20\n147996: ra = 1592, jump @0\n      : @1722 [@dyn 796] (gas: 8)\n148003: a1 = u64 [sp + 0x120]\n148007: a1 = a1 + 0xffffffffffffffc0\n148010: a2 = u64 [sp + 0x140]\n148014: a1 = a2 <u a1\n148017: a1 = 0 if s1 != 0\n148019: a2 = u64 [sp + 0x128]\n148023: a1 = 0 if a2 != 0\n148025: jump @1731 if a1 == 0\n      : @1723 (gas: 68)\n148029: a1 = u8 [a0 + 0x18]\n148032: u64 [sp + 0x28] = a1\n148035: a1 = u8 [a0 + 0x19]\n148038: u64 [sp + 0x8] = a1\n148041: a1 = u8 [a0 + 0x1a]\n148044: u64 [sp + 0x18] = a1\n148047: a1 = u8 [a0 + 0x1b]\n148050: u64 [sp + 0x10] = a1\n148053: a1 = u8 [a0 + 0x1c]\n148056: u64 [sp + 0x40] = a1\n148059: a1 = u8 [a0 + 0x1d]\n148062: u64 [sp + 0x20] = a1\n148065: a1 = u8 [a0 + 0x1e]\n148068: u64 [sp + 0x38] = a1\n148071: a1 = u8 [a0 + 0x1f]\n148074: u64 [sp + 0x30] = a1\n148077: a1 = u8 [a0 + 0x10]\n148080: u64 [sp + 0x68] = a1\n148083: a1 = u8 [a0 + 0x11]\n148086: u64 [sp + 0x48] = a1\n148089: a1 = u8 [a0 + 0x12]\n148092: u64 [sp + 0x58] = a1\n148095: a1 = u8 [a0 + 0x13]\n148098: u64 [sp + 0x50] = a1\n148101: a1 = u8 [a0 + 0x14]\n148104: u64 [sp + 0x80] = a1\n148108: a1 = u8 [a0 + 0x15]\n148111: u64 [sp + 0x60] = a1\n148114: a1 = u8 [a0 + 0x16]\n148117: u64 [sp + 0x78] = a1\n148120: a1 = u8 [a0 + 0x17]\n148123: u64 [sp + 0x70] = a1\n148126: a1 = u8 [a0 + 0x8]\n148129: u64 [sp + 0xa8] = a1\n148133: a1 = u8 [a0 + 0x9]\n148136: u64 [sp + 0x88] = a1\n148140: a1 = u8 [a0 + 0xa]\n148143: u64 [sp + 0x98] = a1\n148147: a1 = u8 [a0 + 0xb]\n148150: u64 [sp + 0x90] = a1\n148154: a1 = u8 [a0 + 0xc]\n148157: u64 [sp + 0xc0] = a1\n148161: a1 = u8 [a0 + 0xd]\n148164: u64 [sp + 0xa0] = a1\n148168: a1 = u8 [a0 + 0xe]\n148171: u64 [sp + 0xb8] = a1\n148175: a1 = u8 [a0 + 0xf]\n148178: u64 [sp + 0xb0] = a1\n148182: a1 = u8 [a0]\n148184: u64 [sp + 0xe8] = a1\n148188: a1 = u8 [a0 + 0x1]\n148191: u64 [sp + 0xc8] = a1\n148195: a1 = u8 [a0 + 0x2]\n148198: u64 [sp + 0xd8] = a1\n148202: a1 = u8 [a0 + 0x3]\n148205: u64 [sp + 0xd0] = a1\n148209: a1 = u8 [a0 + 0x4]\n148212: u64 [sp + 0x120] = a1\n148216: a1 = u8 [a0 + 0x5]\n148219: u64 [sp + 0xe0] = a1\n148223: a1 = u8 [a0 + 0x6]\n148226: u64 [sp + 0xf8] = a1\n148230: a0 = u8 [a0 + 0x7]\n148233: u64 [sp + 0xf0] = a0\n148237: a0 = u64 [sp + 0x148]\n148241: i32 a0 = a0 + 0x40\n148244: a1 = 0x20\n148247: ra = 1594, jump @0\n      : @1724 [@dyn 797] (gas: 7)\n148254: a1 = 0xffffffa0\n148264: a2 = u64 [sp + 0x140]\n148268: a1 = a2 <u a1\n148271: a1 = 0 if s1 != 0\n148273: a2 = u64 [sp + 0x128]\n148277: a1 = 0 if a2 != 0\n148279: jump @1731 if a1 == 0\n      : @1725 (gas: 197)\n148283: a1 = u64 [sp + 0x8]\n148286: a1 = a1 << 0x8\n148289: a2 = u64 [sp + 0x28]\n148292: a1 = a1 | a2\n148295: a2 = u64 [sp + 0x18]\n148298: a2 = a2 << 0x10\n148301: a3 = u64 [sp + 0x10]\n148304: a3 = a3 << 0x18\n148307: a2 = a2 | a3\n148310: a1 = a1 | a2\n148313: a2 = u64 [sp + 0x20]\n148316: a2 = a2 << 0x8\n148319: a3 = u64 [sp + 0x40]\n148322: a2 = a2 | a3\n148325: a3 = u64 [sp + 0x38]\n148328: a3 = a3 << 0x10\n148331: a4 = u64 [sp + 0x30]\n148334: a4 = a4 << 0x18\n148337: a3 = a3 | a4\n148340: a2 = a2 | a3\n148343: a2 = a2 << 0x20\n148346: a1 = a1 | a2\n148349: u64 [sp + 0x140] = a1\n148353: a1 = u64 [sp + 0x48]\n148356: a1 = a1 << 0x8\n148359: a2 = u64 [sp + 0x68]\n148362: a1 = a1 | a2\n148365: a2 = u64 [sp + 0x58]\n148368: a2 = a2 << 0x10\n148371: a3 = u64 [sp + 0x50]\n148374: a3 = a3 << 0x18\n148377: a2 = a2 | a3\n148380: a1 = a1 | a2\n148383: a2 = u64 [sp + 0x60]\n148386: a2 = a2 << 0x8\n148389: a3 = u64 [sp + 0x80]\n148393: a2 = a2 | a3\n148396: a3 = u64 [sp + 0x78]\n148399: a3 = a3 << 0x10\n148402: a4 = u64 [sp + 0x70]\n148405: a4 = a4 << 0x18\n148408: a3 = a3 | a4\n148411: a2 = a2 | a3\n148414: a2 = a2 << 0x20\n148417: t1 = a2 | a1\n148420: a1 = u64 [sp + 0x88]\n148424: a1 = a1 << 0x8\n148427: a2 = u64 [sp + 0xa8]\n148431: a1 = a1 | a2\n148434: a2 = u64 [sp + 0x98]\n148438: a2 = a2 << 0x10\n148441: a3 = u64 [sp + 0x90]\n148445: a3 = a3 << 0x18\n148448: a2 = a2 | a3\n148451: a1 = a1 | a2\n148454: a2 = u64 [sp + 0xa0]\n148458: a2 = a2 << 0x8\n148461: a3 = u64 [sp + 0xc0]\n148465: a2 = a2 | a3\n148468: a3 = u64 [sp + 0xb8]\n148472: a3 = a3 << 0x10\n148475: a4 = u64 [sp + 0xb0]\n148479: a4 = a4 << 0x18\n148482: a3 = a3 | a4\n148485: a2 = a2 | a3\n148488: a2 = a2 << 0x20\n148491: t2 = a2 | a1\n148494: a1 = u64 [sp + 0xc8]\n148498: a1 = a1 << 0x8\n148501: a2 = u64 [sp + 0xe8]\n148505: a1 = a1 | a2\n148508: a2 = u64 [sp + 0xd8]\n148512: a2 = a2 << 0x10\n148515: a4 = u64 [sp + 0xd0]\n148519: a4 = a4 << 0x18\n148522: a2 = a2 | a4\n148525: a1 = a1 | a2\n148528: a2 = u64 [sp + 0xe0]\n148532: a2 = a2 << 0x8\n148535: a3 = u64 [sp + 0x120]\n148539: a2 = a2 | a3\n148542: a4 = u64 [sp + 0xf8]\n148546: a4 = a4 << 0x10\n148549: a5 = u64 [sp + 0xf0]\n148553: a5 = a5 << 0x18\n148556: a4 = a4 | a5\n148559: a2 = a2 | a4\n148562: a2 = a2 << 0x20\n148565: ra = a2 | a1\n148568: a1 = u8 [a0 + 0x1]\n148571: a2 = u8 [a0]\n148573: a5 = u8 [a0 + 0x2]\n148576: s1 = u8 [a0 + 0x3]\n148579: a1 = a1 << 0x8\n148582: a1 = a1 | a2\n148585: a5 = a5 << 0x10\n148588: s1 = s1 << 0x18\n148591: a5 = a5 | s1\n148594: a1 = a1 | a5\n148597: a2 = u8 [a0 + 0x5]\n148600: a5 = u8 [a0 + 0x4]\n148603: s1 = u8 [a0 + 0x6]\n148606: a3 = u8 [a0 + 0x7]\n148609: a2 = a2 << 0x8\n148612: a2 = a2 | a5\n148615: s1 = s1 << 0x10\n148618: a3 = a3 << 0x18\n148621: a3 = a3 | s1\n148624: a2 = a2 | a3\n148627: a2 = a2 << 0x20\n148630: t0 = a2 | a1\n148633: a1 = u8 [a0 + 0x9]\n148636: a2 = u8 [a0 + 0x8]\n148639: a3 = u8 [a0 + 0xa]\n148642: s1 = u8 [a0 + 0xb]\n148645: a1 = a1 << 0x8\n148648: a1 = a1 | a2\n148651: a3 = a3 << 0x10\n148654: s1 = s1 << 0x18\n148657: a3 = a3 | s1\n148660: a1 = a1 | a3\n148663: a2 = u8 [a0 + 0xd]\n148666: a3 = u8 [a0 + 0xc]\n148669: s1 = u8 [a0 + 0xe]\n148672: a4 = u8 [a0 + 0xf]\n148675: a2 = a2 << 0x8\n148678: a2 = a2 | a3\n148681: s1 = s1 << 0x10\n148684: a4 = a4 << 0x18\n148687: a4 = a4 | s1\n148690: a2 = a2 | a4\n148693: a2 = a2 << 0x20\n148696: a5 = a2 | a1\n148699: a2 = u8 [a0 + 0x11]\n148702: a3 = u8 [a0 + 0x10]\n148705: a4 = u8 [a0 + 0x12]\n148708: s1 = u8 [a0 + 0x13]\n148711: a2 = a2 << 0x8\n148714: a2 = a2 | a3\n148717: a4 = a4 << 0x10\n148720: s1 = s1 << 0x18\n148723: a4 = a4 | s1\n148726: a2 = a2 | a4\n148729: a3 = u8 [a0 + 0x15]\n148732: a4 = u8 [a0 + 0x14]\n148735: s1 = u8 [a0 + 0x16]\n148738: a1 = u8 [a0 + 0x17]\n148741: a3 = a3 << 0x8\n148744: a3 = a3 | a4\n148747: s1 = s1 << 0x10\n148750: a1 = a1 << 0x18\n148753: a1 = a1 | s1\n148756: a1 = a1 | a3\n148759: a1 = a1 << 0x20\n148762: a2 = a2 | a1\n148765: a1 = u8 [a0 + 0x19]\n148768: a3 = u8 [a0 + 0x18]\n148771: a4 = u8 [a0 + 0x1a]\n148774: s1 = u8 [a0 + 0x1b]\n148777: a1 = a1 << 0x8\n148780: a1 = a1 | a3\n148783: a4 = a4 << 0x10\n148786: s1 = s1 << 0x18\n148789: a4 = a4 | s1\n148792: a1 = a1 | a4\n148795: a3 = u8 [a0 + 0x1d]\n148798: a4 = u8 [a0 + 0x1c]\n148801: s1 = u8 [a0 + 0x1e]\n148804: a0 = u8 [a0 + 0x1f]\n148807: a3 = a3 << 0x8\n148810: a3 = a3 | a4\n148813: s1 = s1 << 0x10\n148816: a0 = a0 << 0x18\n148819: a0 = a0 | s1\n148822: a0 = a0 | a3\n148825: a0 = a0 << 0x20\n148828: a0 = a0 | a1\n148831: s1 = reverse ra\n148833: a1 = reverse t2\n148835: u64 [sp + 0xe8] = a1\n148839: a1 = reverse t1\n148841: u64 [sp + 0xf0] = a1\n148845: a1 = u64 [sp + 0x140]\n148849: a1 = reverse a1\n148851: u64 [sp + 0xf8] = a1\n148855: a0 = reverse a0\n148857: u64 [sp + 0x140] = a0\n148861: a0 = reverse a2\n148863: u64 [sp + 0x130] = a0\n148867: a0 = reverse a5\n148869: u64 [sp + 0x128] = a0\n148873: a0 = reverse t0\n148875: u64 [sp + 0x120] = a0\n148879: a0 = u64 [sp + 0x148]\n148883: i32 a0 = a0 + 0x60\n148886: a1 = 0x20\n148889: ra = 1596, jump @0\n      : @1726 [@dyn 798] (gas: 34)\n148896: a0 = u8 [a0]\n148898: u64 [sp + 0x188] = s1\n148902: a1 = u64 [sp + 0xe8]\n148906: u64 [sp + 0x180] = a1\n148910: a1 = u64 [sp + 0xf0]\n148914: u64 [sp + 0x178] = a1\n148918: a1 = u64 [sp + 0xf8]\n148922: u64 [sp + 0x170] = a1\n148926: u64 [sp + 0x190] = a0\n148930: u64 [sp + 424] = 0\n148934: u64 [sp + 416] = 0\n148938: u64 [sp + 408] = 0\n148942: a0 = u64 [sp + 0x100]\n148946: u64 [sp + 0x1c8] = a0\n148950: a0 = u64 [sp + 0x108]\n148954: u64 [sp + 0x1c0] = a0\n148958: a0 = u64 [sp + 0x110]\n148962: u64 [sp + 0x1b8] = a0\n148966: a0 = u64 [sp + 0x118]\n148970: u64 [sp + 0x1b0] = a0\n148974: a0 = u64 [sp + 0x120]\n148978: u64 [sp + 0x168] = a0\n148982: a0 = u64 [sp + 0x128]\n148986: u64 [sp + 0x160] = a0\n148990: a0 = u64 [sp + 0x130]\n148994: u64 [sp + 0x158] = a0\n148998: a0 = sp + 0x1d0\n149002: a1 = sp + 0x1b0\n149006: a2 = sp + 0x190\n149010: a3 = sp + 0x170\n149014: a4 = sp + 0x150\n149018: a5 = u64 [sp + 0x140]\n149022: u64 [sp + 0x150] = a5\n149026: ra = 1598, jump @1805\n      : @1727 [@dyn 799] (gas: 15)\n149032: a5 = u64 [sp + 0x1e8]\n149036: t1 = u64 [sp + 0x1e0]\n149040: s1 = u64 [sp + 0x1d8]\n149044: a0 = u64 [sp + 0x1d0]\n149048: u64 [sp + 0x148] = a0\n149052: a0 = u64 [sp + 0x208]\n149056: u64 [sp + 0x140] = a0\n149060: ra = u64 [sp + 0x200]\n149064: t2 = u64 [sp + 0x1f8]\n149068: a4 = u64 [sp + 0x1f0]\n149072: a0 = u64 [sp + 0x228]\n149076: a3 = u64 [sp + 0x220]\n149080: a2 = u64 [sp + 0x218]\n149084: t0 = u64 [sp + 0x210]\n149088: jump @1730\n      : @1728 (gas: 3)\n149091: a1 = 0x20\n149094: a0 = u64 [sp + 0x148]\n149098: ra = 1600, jump @0\n      : @1729 [@dyn 800] (gas: 103)\n149105: u64 [sp + 328] = 0\n149109: u64 [sp + 304] = 0\n149113: u64 [sp + 296] = 0\n149117: t2 = 0\n149119: ra = 0\n149121: u64 [sp + 320] = 0\n149125: a2 = u8 [a0 + 0x19]\n149128: a3 = u8 [a0 + 0x18]\n149131: a4 = u8 [a0 + 0x1a]\n149134: a5 = u8 [a0 + 0x1b]\n149137: a2 = a2 << 0x8\n149140: a2 = a2 | a3\n149143: a4 = a4 << 0x10\n149146: a5 = a5 << 0x18\n149149: a4 = a4 | a5\n149152: a2 = a2 | a4\n149155: a3 = u8 [a0 + 0x1d]\n149158: a4 = u8 [a0 + 0x1c]\n149161: a5 = u8 [a0 + 0x1e]\n149164: s1 = u8 [a0 + 0x1f]\n149167: a3 = a3 << 0x8\n149170: a3 = a3 | a4\n149173: a5 = a5 << 0x10\n149176: s1 = s1 << 0x18\n149179: a5 = a5 | s1\n149182: a3 = a3 | a5\n149185: a3 = a3 << 0x20\n149188: t0 = a3 | a2\n149191: a2 = u8 [a0 + 0x11]\n149194: a3 = u8 [a0 + 0x10]\n149197: a5 = u8 [a0 + 0x12]\n149200: s1 = u8 [a0 + 0x13]\n149203: a2 = a2 << 0x8\n149206: a2 = a2 | a3\n149209: a5 = a5 << 0x10\n149212: s1 = s1 << 0x18\n149215: a5 = a5 | s1\n149218: a2 = a2 | a5\n149221: a3 = u8 [a0 + 0x15]\n149224: a5 = u8 [a0 + 0x14]\n149227: s1 = u8 [a0 + 0x16]\n149230: a4 = u8 [a0 + 0x17]\n149233: a3 = a3 << 0x8\n149236: a3 = a3 | a5\n149239: s1 = s1 << 0x10\n149242: a4 = a4 << 0x18\n149245: a4 = a4 | s1\n149248: a3 = a3 | a4\n149251: a3 = a3 << 0x20\n149254: a2 = a2 | a3\n149257: a3 = u8 [a0 + 0x9]\n149260: a4 = u8 [a0 + 0x8]\n149263: a5 = u8 [a0 + 0xa]\n149266: s1 = u8 [a0 + 0xb]\n149269: a3 = a3 << 0x8\n149272: a3 = a3 | a4\n149275: a5 = a5 << 0x10\n149278: s1 = s1 << 0x18\n149281: a5 = a5 | s1\n149284: a3 = a3 | a5\n149287: a4 = u8 [a0 + 0xd]\n149290: a5 = u8 [a0 + 0xc]\n149293: s1 = u8 [a0 + 0xe]\n149296: t1 = u8 [a0 + 0xf]\n149299: a4 = a4 << 0x8\n149302: a4 = a4 | a5\n149305: s1 = s1 << 0x10\n149308: t1 = t1 << 0x18\n149311: a5 = t1 | s1\n149314: t1 = 0\n149316: a4 = a4 | a5\n149319: a4 = a4 << 0x20\n149322: a3 = a3 | a4\n149325: a4 = u8 [a0 + 0x1]\n149328: a5 = u8 [a0]\n149330: s1 = u8 [a0 + 0x2]\n149333: a1 = u8 [a0 + 0x3]\n149336: a4 = a4 << 0x8\n149339: a4 = a4 | a5\n149342: s1 = s1 << 0x10\n149345: a1 = a1 << 0x18\n149348: a1 = a1 | s1\n149351: a1 = a1 | a4\n149354: a4 = u8 [a0 + 0x5]\n149357: a5 = u8 [a0 + 0x4]\n149360: s1 = u8 [a0 + 0x6]\n149363: a0 = u8 [a0 + 0x7]\n149366: a4 = a4 << 0x8\n149369: a4 = a4 | a5\n149372: a5 = u64 [sp + 0x128]\n149376: s1 = s1 << 0x10\n149379: a0 = a0 << 0x18\n149382: a0 = a0 | s1\n149385: s1 = u64 [sp + 0x130]\n149389: a0 = a0 | a4\n149392: a0 = a0 << 0x20\n149395: a0 = a0 | a1\n149398: a0 = reverse a0\n149400: a3 = reverse a3\n149402: a2 = reverse a2\n149404: t0 = reverse t0\n149406: a4 = 0x2\n149409: fallthrough\n      : @1730 (gas: 21)\n149410: a1 = u64 [sp + 0x138]\n149414: u64 [a1 + 0x40] = t0\n149417: u64 [a1 + 0x20] = a4\n149420: a4 = u64 [sp + 0x148]\n149424: u64 [a1] = a4\n149426: u64 [a1 + 0x48] = a2\n149429: u64 [a1 + 0x28] = t2\n149432: u64 [a1 + 0x8] = s1\n149435: u64 [a1 + 0x50] = a3\n149438: u64 [a1 + 0x30] = ra\n149441: u64 [a1 + 0x10] = t1\n149444: u64 [a1 + 0x58] = a0\n149447: a0 = u64 [sp + 0x140]\n149451: u64 [a1 + 0x38] = a0\n149454: u64 [a1 + 0x18] = a5\n149457: sp = s0 + 0xfffffffffffffdb0\n149461: ra = u64 [sp + 0x248]\n149465: s0 = u64 [sp + 0x240]\n149469: s1 = u64 [sp + 0x238]\n149473: sp = sp + 0x250\n149477: ret\n      : @1731 (gas: 1)\n149479: trap\n      : @1732 (gas: 15)\n149480: sp = sp + 0xffffffffffffff80\n149483: u64 [sp + 0x78] = ra\n149486: u64 [sp + 0x70] = s0\n149489: u64 [sp + 0x68] = s1\n149492: s0 = sp + 0x80\n149496: sp = sp & 0xfffffffffffffff0\n149499: a3 = u64 [a0 + 0x18]\n149502: a4 = u64 [a0 + 0x10]\n149505: a2 = u64 [a0]\n149507: a0 = u64 [a0 + 0x8]\n149510: a3 = a3 | a4\n149513: a4 = a2 <u 0x4\n149516: a4 = 0 if a0 != 0\n149518: a4 = 0 if a3 != 0\n149520: jump @1735 if a4 == 0\n      : @1733 (gas: 2)\n149523: a0 = a2 & 0x3\n149526: jump @1738 if a0 != 0\n      : @1734 (gas: 6)\n149529: sp = s0 + 0xffffffffffffff80\n149532: ra = u64 [sp + 0x78]\n149535: s0 = u64 [sp + 0x70]\n149538: s1 = u64 [sp + 0x68]\n149541: sp = sp + 0x80\n149545: ret\n      : @1735 (gas: 8)\n149547: u64 [sp + 80] = 0\n149550: u64 [sp + 72] = 0\n149553: u64 [sp + 64] = 0\n149556: a0 = 0x4e487b7100000000\n149566: a1 = sp + 0x40\n149569: u64 [sp + 0x58] = a0\n149572: a0 = 0\n149574: ra = 1602, jump @23\n      : @1736 [@dyn 801] (gas: 7)\n149581: u64 [sp + 56] = 0\n149584: u64 [sp + 48] = 0\n149587: u64 [sp + 32] = 0x21\n149591: a0 = 0x4\n149594: a1 = sp + 0x20\n149597: u64 [sp + 40] = 0\n149600: ra = 1604, jump @23\n      : @1737 [@dyn 802] (gas: 1)\n149607: jump @1749\n      : @1738 (gas: 1)\n149610: jump @1742 if a0 != 1\n      : @1739 (gas: 3)\n149615: a1 = 0x20\n149618: a0 = 0\n149620: ra = 1606, jump @0\n      : @1740 [@dyn 803] (gas: 35)\n149627: u8 [a0 + 31] = 0\n149630: u8 [a0 + 30] = 0\n149633: u8 [a0 + 29] = 0\n149636: u8 [a0 + 28] = 0\n149639: u8 [a0 + 27] = 0\n149642: u8 [a0 + 26] = 0\n149645: u8 [a0 + 25] = 0\n149648: u8 [a0 + 24] = 0\n149651: u8 [a0 + 23] = 0\n149654: u8 [a0 + 22] = 0\n149657: u8 [a0 + 21] = 0\n149660: u8 [a0 + 20] = 0\n149663: u8 [a0 + 19] = 0\n149666: u8 [a0 + 18] = 0\n149669: u8 [a0 + 17] = 0\n149672: u8 [a0 + 16] = 0\n149675: u8 [a0 + 15] = 0\n149678: u8 [a0 + 14] = 0\n149681: u8 [a0 + 13] = 0\n149684: u8 [a0 + 12] = 0\n149687: u8 [a0 + 11] = 0\n149690: u8 [a0 + 10] = 0\n149693: u8 [a0 + 9] = 0\n149696: u8 [a0 + 8] = 0\n149699: u8 [a0 + 7] = 0\n149702: u8 [a0 + 6] = 0\n149705: u8 [a0 + 5] = 0\n149708: u8 [a0 + 4] = 0\n149711: u8 [a0 + 3] = 0xdf\n149716: u8 [a0 + 2] = 0xee\n149721: u8 [a0 + 1] = 0x45\n149725: u8 [a0 + 0] = 0xf6\n149729: a1 = 0x4\n149732: a0 = 0\n149734: ra = 1608, jump @0\n      : @1741 [@dyn 804] (gas: 5)\n149741: i32 a1 = a0 + 0\n149743: a0 = 0x1\n149746: a2 = 0x4\n149749: ecalli 13 // 'seal_return'\n149751: fallthrough\n      : @1742 (gas: 8)\n149752: s1 = u64 [a1 + 0x18]\n149755: a2 = u64 [a1 + 0x10]\n149758: u64 [sp + 0x8] = a2\n149761: a2 = u64 [a1 + 0x8]\n149764: u64 [sp + 0x10] = a2\n149767: a1 = u64 [a1]\n149769: u64 [sp + 0x18] = a1\n149772: jump @1745 if a0 != 2\n      : @1743 (gas: 3)\n149776: a1 = 0x20\n149779: a0 = 0\n149781: ra = 1610, jump @0\n      : @1744 [@dyn 805] (gas: 33)\n149788: u8 [a0 + 31] = 0\n149791: u8 [a0 + 30] = 0\n149794: u8 [a0 + 29] = 0\n149797: u8 [a0 + 28] = 0\n149800: u8 [a0 + 27] = 0\n149803: u8 [a0 + 26] = 0\n149806: u8 [a0 + 25] = 0\n149809: u8 [a0 + 24] = 0\n149812: u8 [a0 + 23] = 0\n149815: u8 [a0 + 22] = 0\n149818: u8 [a0 + 21] = 0\n149821: u8 [a0 + 20] = 0\n149824: u8 [a0 + 19] = 0\n149827: u8 [a0 + 18] = 0\n149830: u8 [a0 + 17] = 0\n149833: u8 [a0 + 16] = 0\n149836: u8 [a0 + 15] = 0\n149839: u8 [a0 + 14] = 0\n149842: u8 [a0 + 13] = 0\n149845: u8 [a0 + 12] = 0\n149848: u8 [a0 + 11] = 0\n149851: u8 [a0 + 10] = 0\n149854: u8 [a0 + 9] = 0\n149857: u8 [a0 + 8] = 0\n149860: u8 [a0 + 7] = 0\n149863: u8 [a0 + 6] = 0\n149866: u8 [a0 + 5] = 0\n149869: u8 [a0 + 4] = 0\n149872: u8 [a0 + 3] = 0xf7\n149877: u8 [a0 + 2] = 0x98\n149882: u8 [a0 + 1] = 0xe6\n149887: a1 = 0xfc\n149891: jump @1747\n      : @1745 (gas: 3)\n149893: a1 = 0x20\n149896: a0 = 0\n149898: ra = 1612, jump @0\n      : @1746 [@dyn 806] (gas: 33)\n149905: u8 [a0 + 31] = 0\n149908: u8 [a0 + 30] = 0\n149911: u8 [a0 + 29] = 0\n149914: u8 [a0 + 28] = 0\n149917: u8 [a0 + 27] = 0\n149920: u8 [a0 + 26] = 0\n149923: u8 [a0 + 25] = 0\n149926: u8 [a0 + 24] = 0\n149929: u8 [a0 + 23] = 0\n149932: u8 [a0 + 22] = 0\n149935: u8 [a0 + 21] = 0\n149938: u8 [a0 + 20] = 0\n149941: u8 [a0 + 19] = 0\n149944: u8 [a0 + 18] = 0\n149947: u8 [a0 + 17] = 0\n149950: u8 [a0 + 16] = 0\n149953: u8 [a0 + 15] = 0\n149956: u8 [a0 + 14] = 0\n149959: u8 [a0 + 13] = 0\n149962: u8 [a0 + 12] = 0\n149965: u8 [a0 + 11] = 0\n149968: u8 [a0 + 10] = 0\n149971: u8 [a0 + 9] = 0\n149974: u8 [a0 + 8] = 0\n149977: u8 [a0 + 7] = 0\n149980: u8 [a0 + 6] = 0\n149983: u8 [a0 + 5] = 0\n149986: u8 [a0 + 4] = 0\n149989: u8 [a0 + 3] = 0xc\n149993: u8 [a0 + 2] = 0xce\n149998: u8 [a0 + 1] = 0x8b\n150003: a1 = 0xd7\n150007: fallthrough\n      : @1747 (gas: 4)\n150008: u8 [a0] = a1\n150010: a0 = 0x4\n150013: a1 = 0x20\n150016: ra = 1614, jump @0\n      : @1748 [@dyn 807] (gas: 68)\n150023: a1 = reverse s1\n150025: a2 = u64 [sp + 0x8]\n150028: a2 = reverse a2\n150030: a3 = u64 [sp + 0x10]\n150033: a3 = reverse a3\n150035: a4 = u64 [sp + 0x18]\n150038: a4 = reverse a4\n150040: a5 = a4 >> 0x38\n150043: u8 [a0 + 0x1f] = a5\n150046: a5 = a4 >> 0x30\n150049: u8 [a0 + 0x1e] = a5\n150052: a5 = a4 >> 0x28\n150055: u8 [a0 + 0x1d] = a5\n150058: a5 = a4 >> 0x20\n150061: u8 [a0 + 0x1c] = a5\n150064: a5 = a4 >> 0x18\n150067: u8 [a0 + 0x1b] = a5\n150070: a5 = a4 >> 0x10\n150073: u8 [a0 + 0x1a] = a5\n150076: a5 = a4 >> 0x8\n150079: u8 [a0 + 0x19] = a5\n150082: u8 [a0 + 0x18] = a4\n150085: a4 = a3 >> 0x38\n150088: u8 [a0 + 0x17] = a4\n150091: a4 = a3 >> 0x30\n150094: u8 [a0 + 0x16] = a4\n150097: a4 = a3 >> 0x28\n150100: u8 [a0 + 0x15] = a4\n150103: a4 = a3 >> 0x20\n150106: u8 [a0 + 0x14] = a4\n150109: a4 = a3 >> 0x18\n150112: u8 [a0 + 0x13] = a4\n150115: a4 = a3 >> 0x10\n150118: u8 [a0 + 0x12] = a4\n150121: a4 = a3 >> 0x8\n150124: u8 [a0 + 0x11] = a4\n150127: u8 [a0 + 0x10] = a3\n150130: a3 = a2 >> 0x38\n150133: u8 [a0 + 0xf] = a3\n150136: a3 = a2 >> 0x30\n150139: u8 [a0 + 0xe] = a3\n150142: a3 = a2 >> 0x28\n150145: u8 [a0 + 0xd] = a3\n150148: a3 = a2 >> 0x20\n150151: u8 [a0 + 0xc] = a3\n150154: a3 = a2 >> 0x18\n150157: u8 [a0 + 0xb] = a3\n150160: a3 = a2 >> 0x10\n150163: u8 [a0 + 0xa] = a3\n150166: a3 = a2 >> 0x8\n150169: u8 [a0 + 0x9] = a3\n150172: u8 [a0 + 0x8] = a2\n150175: u8 [a0] = a1\n150177: a2 = a1 >> 0x38\n150180: u8 [a0 + 0x7] = a2\n150183: a2 = a1 >> 0x30\n150186: u8 [a0 + 0x6] = a2\n150189: a2 = a1 >> 0x28\n150192: u8 [a0 + 0x5] = a2\n150195: a2 = a1 >> 0x20\n150198: u8 [a0 + 0x4] = a2\n150201: a2 = a1 >> 0x18\n150204: u8 [a0 + 0x3] = a2\n150207: a2 = a1 >> 0x10\n150210: u8 [a0 + 0x2] = a2\n150213: a1 = a1 >> 0x8\n150216: u8 [a0 + 0x1] = a1\n150219: fallthrough\n      : @1749 (gas: 3)\n150220: a1 = 0x24\n150223: a0 = 0\n150225: ra = 1616, jump @0\n      : @1750 [@dyn 808] (gas: 6)\n150232: i32 a1 = a0 + 0\n150234: a0 = 0x1\n150237: a2 = 0x24\n150240: ra = 0x652\n150244: ecalli 13 // 'seal_return'\n150246: fallthrough\n      : @1751 [@dyn 809] (gas: 9)\n150247: a2 = u64 [a1 + 0x18]\n150250: a3 = u64 [a1 + 0x10]\n150253: a4 = u64 [a1 + 0x8]\n150256: a1 = u64 [a1]\n150258: u64 [a0 + 0x18] = a2\n150261: u64 [a0 + 0x10] = a3\n150264: u64 [a0 + 0x8] = a4\n150267: u64 [a0] = a1\n150269: ret\n      : @1752 (gas: 20)\n150271: sp = sp + 0xffffffffffffff50\n150275: u64 [sp + 0xa8] = ra\n150279: u64 [sp + 0xa0] = s0\n150283: u64 [sp + 0x98] = s1\n150287: s1 = u64 [a1 + 0x10]\n150290: t0 = u64 [a1 + 0x18]\n150293: s0 = u64 [a1 + 0x8]\n150296: a1 = u64 [a1]\n150298: u64 [sp + 0x88] = s0\n150302: u64 [sp + 0x70] = t0\n150305: t0 = s0 | t0\n150308: u64 [sp + 0x90] = a1\n150312: s0 = a1 | s1\n150315: s0 = s0 | t0\n150318: s0 = s0 >> 0x20\n150321: u64 [sp + 0x78] = s1\n150324: a1 = t0 | s1\n150327: a1 = a1 << 0x20\n150330: a1 = a1 | s0\n150333: jump @1763 if a1 != 0\n      : @1753 (gas: 29)\n150337: u64 [sp + 0x20] = a0\n150340: a0 = u64 [a5 + 0x18]\n150343: u64 [sp] = a0\n150345: a0 = u64 [a5 + 0x10]\n150348: u64 [sp + 0x8] = a0\n150351: a0 = u64 [a5 + 0x8]\n150354: u64 [sp + 0x10] = a0\n150357: a0 = u64 [a5]\n150359: u64 [sp + 0x18] = a0\n150362: a0 = u64 [a4 + 0x18]\n150365: u64 [sp + 0x28] = a0\n150368: a0 = u64 [a4 + 0x10]\n150371: u64 [sp + 0x30] = a0\n150374: a0 = u64 [a4 + 0x8]\n150377: u64 [sp + 0x38] = a0\n150380: a0 = u64 [a4]\n150382: u64 [sp + 0x40] = a0\n150385: a0 = u64 [a3]\n150387: u64 [sp + 0x48] = a0\n150390: a0 = u64 [a2 + 0x10]\n150393: u64 [sp + 0x60] = a0\n150396: a0 = u64 [a2 + 0x8]\n150399: u64 [sp + 0x58] = a0\n150402: a0 = u64 [a2]\n150404: u64 [sp + 0x50] = a0\n150407: s1 = i32 [sp + 0x90]\n150411: a1 = 0x20\n150414: a0 = s1\n150416: ra = 1620, jump @0\n      : @1754 [@dyn 810] (gas: 44)\n150423: u8 [a0 + 31] = 0\n150426: u8 [a0 + 30] = 0\n150429: u8 [a0 + 29] = 0\n150432: u8 [a0 + 28] = 0\n150435: u8 [a0 + 27] = 0\n150438: u8 [a0 + 26] = 0\n150441: u8 [a0 + 25] = 0\n150444: u8 [a0 + 24] = 0\n150447: u8 [a0 + 23] = 0\n150450: u8 [a0 + 22] = 0\n150453: u8 [a0 + 21] = 0\n150456: u8 [a0 + 20] = 0\n150459: u8 [a0 + 19] = 0\n150462: u8 [a0 + 18] = 0\n150465: u8 [a0 + 17] = 0\n150468: u8 [a0 + 16] = 0\n150471: u8 [a0 + 15] = 0\n150474: u8 [a0 + 14] = 0\n150477: u8 [a0 + 13] = 0\n150480: u8 [a0 + 12] = 0\n150483: u8 [a0 + 11] = 0\n150486: u8 [a0 + 10] = 0\n150489: u8 [a0 + 9] = 0\n150492: u8 [a0 + 8] = 0\n150495: u8 [a0 + 7] = 0\n150498: u8 [a0 + 6] = 0\n150501: u8 [a0 + 5] = 0\n150504: u8 [a0 + 4] = 0\n150507: u8 [a0 + 3] = 0\n150510: u8 [a0 + 2] = 0\n150513: u8 [a0 + 0] = 0x19\n150516: a1 = u64 [sp + 0x78]\n150519: a3 = u64 [sp + 0x70]\n150522: a3 = a3 | a1\n150525: s0 = 0x100000000\n150535: a1 = 0xfffffffe\n150545: a2 = u64 [sp + 0x90]\n150549: a1 = a2 <u a1\n150552: a2 = u64 [sp + 0x88]\n150556: a1 = 0 if a2 != 0\n150558: u64 [sp + 0x80] = a3\n150562: a1 = 0 if a3 != 0\n150564: u8 [a0 + 1] = 0\n150567: jump @1763 if a1 == 0\n      : @1755 (gas: 4)\n150571: u64 [sp + 0x68] = s1\n150574: i32 a0 = s1 + 0x2\n150577: a1 = 0x20\n150580: ra = 1622, jump @0\n      : @1756 [@dyn 811] (gas: 64)\n150587: a1 = u64 [sp + 0x50]\n150590: s1 = reverse a1\n150592: a1 = u64 [sp + 0x58]\n150595: a3 = reverse a1\n150597: a1 = u64 [sp + 0x60]\n150600: a2 = reverse a1\n150602: t0 = a2 >> 0x20\n150605: a4 = a3 >> 0x20\n150608: a1 = s1 >> 0x20\n150611: u8 [a0 + 31] = 0\n150614: u8 [a0 + 30] = 0\n150617: u8 [a0 + 29] = 0\n150620: u8 [a0 + 28] = 0\n150623: u8 [a0 + 27] = 0\n150626: u8 [a0 + 26] = 0\n150629: u8 [a0 + 25] = 0\n150632: u8 [a0 + 24] = 0\n150635: u8 [a0 + 23] = 0\n150638: u8 [a0 + 22] = 0\n150641: u8 [a0 + 21] = 0\n150644: u8 [a0 + 20] = 0\n150647: a5 = s1 >> 0x38\n150650: u8 [a0 + 0x13] = a5\n150653: a5 = s1 >> 0x30\n150656: u8 [a0 + 0x12] = a5\n150659: a5 = s1 >> 0x28\n150662: u8 [a0 + 0x11] = a5\n150665: u8 [a0 + 0x10] = a1\n150668: a1 = s1 >> 0x18\n150671: u8 [a0 + 0xf] = a1\n150674: a1 = s1 >> 0x10\n150677: u8 [a0 + 0xe] = a1\n150680: a1 = s1 >> 0x8\n150683: u8 [a0 + 0xd] = a1\n150686: u8 [a0 + 0xc] = s1\n150689: u8 [a0 + 0x4] = a3\n150692: a1 = a3 >> 0x38\n150695: u8 [a0 + 0xb] = a1\n150698: a1 = a3 >> 0x30\n150701: u8 [a0 + 0xa] = a1\n150704: a1 = a3 >> 0x28\n150707: u8 [a0 + 0x9] = a1\n150710: u8 [a0 + 0x8] = a4\n150713: a1 = a3 >> 0x18\n150716: u8 [a0 + 0x7] = a1\n150719: a1 = a3 >> 0x10\n150722: u8 [a0 + 0x6] = a1\n150725: a3 = a3 >> 0x8\n150728: u8 [a0 + 0x5] = a3\n150731: a1 = a2 >> 0x38\n150734: u8 [a0 + 0x3] = a1\n150737: a1 = a2 >> 0x30\n150740: u8 [a0 + 0x2] = a1\n150743: a2 = a2 >> 0x28\n150746: u8 [a0 + 0x1] = a2\n150749: s0 = s0 + 0xffffffffffffffea\n150752: a1 = u64 [sp + 0x90]\n150756: a1 = a1 <u s0\n150759: a2 = u64 [sp + 0x88]\n150763: a1 = 0 if a2 != 0\n150765: a2 = u64 [sp + 0x80]\n150769: a1 = 0 if a2 != 0\n150771: u8 [a0] = t0\n150773: jump @1763 if a1 == 0\n      : @1757 (gas: 4)\n150777: s1 = u64 [sp + 0x68]\n150780: i32 a0 = s1 + 0x16\n150783: a1 = 0x20\n150786: ra = 1624, jump @0\n      : @1758 [@dyn 812] (gas: 50)\n150793: a1 = u64 [sp + 0x48]\n150796: a1 = reverse a1\n150798: u8 [a0 + 31] = 0\n150801: u8 [a0 + 30] = 0\n150804: u8 [a0 + 29] = 0\n150807: u8 [a0 + 28] = 0\n150810: u8 [a0 + 27] = 0\n150813: u8 [a0 + 26] = 0\n150816: u8 [a0 + 25] = 0\n150819: u8 [a0 + 24] = 0\n150822: u8 [a0 + 23] = 0\n150825: u8 [a0 + 22] = 0\n150828: u8 [a0 + 21] = 0\n150831: u8 [a0 + 20] = 0\n150834: u8 [a0 + 19] = 0\n150837: u8 [a0 + 18] = 0\n150840: u8 [a0 + 17] = 0\n150843: u8 [a0 + 16] = 0\n150846: u8 [a0 + 15] = 0\n150849: u8 [a0 + 14] = 0\n150852: u8 [a0 + 13] = 0\n150855: u8 [a0 + 12] = 0\n150858: u8 [a0 + 11] = 0\n150861: u8 [a0 + 10] = 0\n150864: u8 [a0 + 9] = 0\n150867: a2 = a1 >> 0x38\n150870: u8 [a0 + 0x7] = a2\n150873: a2 = a1 >> 0x30\n150876: u8 [a0 + 0x6] = a2\n150879: a2 = a1 >> 0x28\n150882: u8 [a0 + 0x5] = a2\n150885: a2 = a1 >> 0x20\n150888: u8 [a0 + 0x4] = a2\n150891: a2 = a1 >> 0x18\n150894: u8 [a0 + 0x3] = a2\n150897: a2 = a1 >> 0x10\n150900: u8 [a0 + 0x2] = a2\n150903: a2 = a1 >> 0x8\n150906: u8 [a0 + 0x1] = a2\n150909: u8 [a0] = a1\n150911: s0 = 0x100000000\n150921: a1 = 0xffffffe2\n150931: a2 = u64 [sp + 0x90]\n150935: a1 = a2 <u a1\n150938: a2 = u64 [sp + 0x88]\n150942: a1 = 0 if a2 != 0\n150944: a2 = u64 [sp + 0x80]\n150948: a1 = 0 if a2 != 0\n150950: u8 [a0 + 8] = 0\n150953: jump @1763 if a1 == 0\n      : @1759 (gas: 3)\n150957: i32 a0 = s1 + 0x1e\n150960: a1 = 0x20\n150963: ra = 1626, jump @0\n      : @1760 [@dyn 813] (gas: 78)\n150970: a1 = u64 [sp + 0x28]\n150973: a1 = reverse a1\n150975: a2 = u64 [sp + 0x30]\n150978: a2 = reverse a2\n150980: a3 = u64 [sp + 0x38]\n150983: a3 = reverse a3\n150985: a4 = u64 [sp + 0x40]\n150988: a4 = reverse a4\n150990: a5 = a4 >> 0x38\n150993: u8 [a0 + 0x1f] = a5\n150996: a5 = a4 >> 0x30\n150999: u8 [a0 + 0x1e] = a5\n151002: a5 = a4 >> 0x28\n151005: u8 [a0 + 0x1d] = a5\n151008: a5 = a4 >> 0x20\n151011: u8 [a0 + 0x1c] = a5\n151014: a5 = a4 >> 0x18\n151017: u8 [a0 + 0x1b] = a5\n151020: a5 = a4 >> 0x10\n151023: u8 [a0 + 0x1a] = a5\n151026: a5 = a4 >> 0x8\n151029: u8 [a0 + 0x19] = a5\n151032: u8 [a0 + 0x18] = a4\n151035: u8 [a0 + 0x10] = a3\n151038: a4 = a3 >> 0x38\n151041: u8 [a0 + 0x17] = a4\n151044: a4 = a3 >> 0x30\n151047: u8 [a0 + 0x16] = a4\n151050: a4 = a3 >> 0x28\n151053: u8 [a0 + 0x15] = a4\n151056: a4 = a3 >> 0x20\n151059: u8 [a0 + 0x14] = a4\n151062: a4 = a3 >> 0x18\n151065: u8 [a0 + 0x13] = a4\n151068: a4 = a3 >> 0x10\n151071: u8 [a0 + 0x12] = a4\n151074: a3 = a3 >> 0x8\n151077: u8 [a0 + 0x11] = a3\n151080: u8 [a0 + 0x8] = a2\n151083: a3 = a2 >> 0x38\n151086: u8 [a0 + 0xf] = a3\n151089: a3 = a2 >> 0x30\n151092: u8 [a0 + 0xe] = a3\n151095: a3 = a2 >> 0x28\n151098: u8 [a0 + 0xd] = a3\n151101: a3 = a2 >> 0x20\n151104: u8 [a0 + 0xc] = a3\n151107: a3 = a2 >> 0x18\n151110: u8 [a0 + 0xb] = a3\n151113: a3 = a2 >> 0x10\n151116: u8 [a0 + 0xa] = a3\n151119: a2 = a2 >> 0x8\n151122: u8 [a0 + 0x9] = a2\n151125: u8 [a0] = a1\n151127: a2 = a1 >> 0x38\n151130: u8 [a0 + 0x7] = a2\n151133: a2 = a1 >> 0x30\n151136: u8 [a0 + 0x6] = a2\n151139: a2 = a1 >> 0x28\n151142: u8 [a0 + 0x5] = a2\n151145: a2 = a1 >> 0x20\n151148: u8 [a0 + 0x4] = a2\n151151: a2 = a1 >> 0x18\n151154: u8 [a0 + 0x3] = a2\n151157: a2 = a1 >> 0x10\n151160: u8 [a0 + 0x2] = a2\n151163: a1 = a1 >> 0x8\n151166: a2 = s0 + 0xffffffffffffffc2\n151169: a3 = u64 [sp + 0x90]\n151173: a2 = a3 <u a2\n151176: a3 = u64 [sp + 0x88]\n151180: a2 = 0 if a3 != 0\n151182: a3 = u64 [sp + 0x80]\n151186: a2 = 0 if a3 != 0\n151188: u8 [a0 + 0x1] = a1\n151191: s0 = u64 [sp + 0x78]\n151194: s1 = u64 [sp + 0x70]\n151197: jump @1763 if a2 == 0\n      : @1761 (gas: 4)\n151201: a0 = u64 [sp + 0x68]\n151204: i32 a0 = a0 + 0x3e\n151207: a1 = 0x20\n151210: ra = 1628, jump @0\n      : @1762 [@dyn 814] (gas: 88)\n151217: a1 = u64 [sp]\n151219: a1 = reverse a1\n151221: a2 = u64 [sp + 0x8]\n151224: a2 = reverse a2\n151226: a3 = u64 [sp + 0x10]\n151229: a3 = reverse a3\n151231: a4 = u64 [sp + 0x18]\n151234: a4 = reverse a4\n151236: a5 = a4 >> 0x38\n151239: u8 [a0 + 0x1f] = a5\n151242: a5 = a4 >> 0x30\n151245: u8 [a0 + 0x1e] = a5\n151248: a5 = a4 >> 0x28\n151251: u8 [a0 + 0x1d] = a5\n151254: a5 = a4 >> 0x20\n151257: u8 [a0 + 0x1c] = a5\n151260: a5 = a4 >> 0x18\n151263: u8 [a0 + 0x1b] = a5\n151266: a5 = a4 >> 0x10\n151269: u8 [a0 + 0x1a] = a5\n151272: a5 = a4 >> 0x8\n151275: u8 [a0 + 0x19] = a5\n151278: u8 [a0 + 0x18] = a4\n151281: u8 [a0 + 0x10] = a3\n151284: a4 = a3 >> 0x38\n151287: u8 [a0 + 0x17] = a4\n151290: a4 = a3 >> 0x30\n151293: u8 [a0 + 0x16] = a4\n151296: a4 = a3 >> 0x28\n151299: u8 [a0 + 0x15] = a4\n151302: a4 = a3 >> 0x20\n151305: u8 [a0 + 0x14] = a4\n151308: a4 = a3 >> 0x18\n151311: u8 [a0 + 0x13] = a4\n151314: a4 = a3 >> 0x10\n151317: u8 [a0 + 0x12] = a4\n151320: a3 = a3 >> 0x8\n151323: u8 [a0 + 0x11] = a3\n151326: u8 [a0 + 0x8] = a2\n151329: a3 = a2 >> 0x38\n151332: u8 [a0 + 0xf] = a3\n151335: a3 = a2 >> 0x30\n151338: u8 [a0 + 0xe] = a3\n151341: a3 = a2 >> 0x28\n151344: u8 [a0 + 0xd] = a3\n151347: a3 = a2 >> 0x20\n151350: u8 [a0 + 0xc] = a3\n151353: a3 = a2 >> 0x18\n151356: u8 [a0 + 0xb] = a3\n151359: a3 = a2 >> 0x10\n151362: u8 [a0 + 0xa] = a3\n151365: a2 = a2 >> 0x8\n151368: u8 [a0 + 0x9] = a2\n151371: u8 [a0] = a1\n151373: a2 = a1 >> 0x38\n151376: u8 [a0 + 0x7] = a2\n151379: a2 = a1 >> 0x30\n151382: u8 [a0 + 0x6] = a2\n151385: a2 = a1 >> 0x28\n151388: u8 [a0 + 0x5] = a2\n151391: a2 = a1 >> 0x20\n151394: u8 [a0 + 0x4] = a2\n151397: a2 = a1 >> 0x18\n151400: u8 [a0 + 0x3] = a2\n151403: a2 = a1 >> 0x10\n151406: u8 [a0 + 0x2] = a2\n151409: a1 = a1 >> 0x8\n151412: u8 [a0 + 0x1] = a1\n151415: a1 = u64 [sp + 0x90]\n151419: a0 = a1 + 0x5e\n151422: a1 = a0 <u a1\n151425: a3 = u64 [sp + 0x88]\n151429: a2 = a3 + a1\n151432: a3 = a2 <u a3\n151435: a3 = a1 if a1 == 0\n151438: a3 = a3 + s0\n151441: a1 = a3 <u s0\n151444: a1 = a1 + s1\n151447: a4 = u64 [sp + 0x20]\n151450: u64 [a4] = a0\n151452: u64 [a4 + 0x8] = a2\n151455: u64 [a4 + 0x10] = a3\n151458: u64 [a4 + 0x18] = a1\n151461: ra = u64 [sp + 0xa8]\n151465: s0 = u64 [sp + 0xa0]\n151469: s1 = u64 [sp + 0x98]\n151473: sp = sp + 0xb0\n151477: ret\n      : @1763 (gas: 1)\n151479: trap\n      : @1764 (gas: 23)\n151480: sp = sp + 0xfffffffffffffe20\n151484: u64 [sp + 0x1d8] = ra\n151488: u64 [sp + 0x1d0] = s0\n151492: u64 [sp + 0x1c8] = s1\n151496: s0 = sp + 0x1e0\n151500: sp = sp & 0xffffffffffffffe0\n151503: s1 = sp\n151505: t1 = u64 [a3 + 0x10]\n151508: t2 = u64 [a3 + 0x18]\n151511: a5 = u64 [a3 + 0x8]\n151514: t0 = u64 [a3]\n151516: u64 [s1 + 0x98] = a5\n151520: u64 [s1 + 0x88] = t2\n151524: a3 = a5 | t2\n151527: a5 = t0 | t1\n151530: a5 = a5 | a3\n151533: a5 = a5 >> 0x20\n151536: u64 [s1 + 0x90] = t1\n151540: a3 = a3 | t1\n151543: a3 = a3 << 0x20\n151546: a3 = a3 | a5\n151549: u64 [s1 + 0x30] = a0\n151552: jump @1787 if a3 != 0\n      : @1765 (gas: 29)\n151556: a0 = u64 [a4 + 0x18]\n151559: u64 [s1 + 0xa8] = a0\n151563: a0 = u64 [a4 + 0x10]\n151566: u64 [s1 + 0xa0] = a0\n151570: a0 = u64 [a4 + 0x8]\n151573: u64 [s1 + 0xb8] = a0\n151577: a0 = u64 [a4]\n151579: u64 [s1 + 0xb0] = a0\n151583: a0 = u64 [a2 + 0x18]\n151586: u64 [s1 + 0x38] = a0\n151589: a0 = u64 [a2 + 0x10]\n151592: u64 [s1 + 0x40] = a0\n151595: a0 = u64 [a2 + 0x8]\n151598: u64 [s1 + 0x48] = a0\n151601: a0 = u64 [a2]\n151603: u64 [s1 + 0x50] = a0\n151606: a0 = u64 [a1 + 0x18]\n151609: u64 [s1 + 0x58] = a0\n151612: a0 = u64 [a1 + 0x10]\n151615: u64 [s1 + 0x60] = a0\n151618: a0 = u64 [a1 + 0x8]\n151621: u64 [s1 + 0x68] = a0\n151624: a0 = u64 [a1]\n151626: u64 [s1 + 0x70] = a0\n151629: i32 a0 = t0 + 0\n151631: a1 = 0x20\n151634: u64 [s1 + 0x78] = a0\n151637: u64 [s1 + 0x80] = t0\n151641: ra = 1630, jump @0\n      : @1766 [@dyn 815] (gas: 10)\n151648: a1 = u64 [s1 + 0x90]\n151652: a2 = u64 [s1 + 0x88]\n151656: a1 = a1 | a2\n151659: a2 = 0xffffffe0\n151669: a3 = u64 [s1 + 0x80]\n151673: a2 = a3 <u a2\n151676: a3 = u64 [s1 + 0x98]\n151680: a2 = 0 if a3 != 0\n151682: a2 = 0 if a1 != 0\n151684: jump @1787 if a2 == 0\n      : @1767 (gas: 100)\n151688: a1 = u8 [a0 + 0x19]\n151691: a2 = u8 [a0 + 0x18]\n151694: a3 = u8 [a0 + 0x1a]\n151697: a4 = u8 [a0 + 0x1b]\n151700: a1 = a1 << 0x8\n151703: a1 = a1 | a2\n151706: a3 = a3 << 0x10\n151709: a4 = a4 << 0x18\n151712: a3 = a3 | a4\n151715: a1 = a1 | a3\n151718: a2 = u8 [a0 + 0x1d]\n151721: a3 = u8 [a0 + 0x1c]\n151724: a4 = u8 [a0 + 0x1e]\n151727: a5 = u8 [a0 + 0x1f]\n151730: a2 = a2 << 0x8\n151733: a2 = a2 | a3\n151736: a4 = a4 << 0x10\n151739: a5 = a5 << 0x18\n151742: a4 = a4 | a5\n151745: a2 = a2 | a4\n151748: a2 = a2 << 0x20\n151751: t0 = a2 | a1\n151754: a2 = u8 [a0 + 0x11]\n151757: a3 = u8 [a0 + 0x10]\n151760: a4 = u8 [a0 + 0x12]\n151763: a5 = u8 [a0 + 0x13]\n151766: a2 = a2 << 0x8\n151769: a2 = a2 | a3\n151772: a4 = a4 << 0x10\n151775: a5 = a5 << 0x18\n151778: a4 = a4 | a5\n151781: a2 = a2 | a4\n151784: a3 = u8 [a0 + 0x15]\n151787: a4 = u8 [a0 + 0x14]\n151790: a5 = u8 [a0 + 0x16]\n151793: a1 = u8 [a0 + 0x17]\n151796: a3 = a3 << 0x8\n151799: a3 = a3 | a4\n151802: a5 = a5 << 0x10\n151805: a1 = a1 << 0x18\n151808: a1 = a1 | a5\n151811: a1 = a1 | a3\n151814: a1 = a1 << 0x20\n151817: t1 = a1 | a2\n151820: a1 = u8 [a0 + 0x9]\n151823: a3 = u8 [a0 + 0x8]\n151826: a4 = u8 [a0 + 0xa]\n151829: a5 = u8 [a0 + 0xb]\n151832: a1 = a1 << 0x8\n151835: a1 = a1 | a3\n151838: a4 = a4 << 0x10\n151841: a5 = a5 << 0x18\n151844: a4 = a4 | a5\n151847: a1 = a1 | a4\n151850: a3 = u8 [a0 + 0xd]\n151853: a4 = u8 [a0 + 0xc]\n151856: a5 = u8 [a0 + 0xe]\n151859: a2 = u8 [a0 + 0xf]\n151862: a3 = a3 << 0x8\n151865: a3 = a3 | a4\n151868: a5 = a5 << 0x10\n151871: a2 = a2 << 0x18\n151874: a2 = a2 | a5\n151877: a2 = a2 | a3\n151880: a2 = a2 << 0x20\n151883: a3 = a2 | a1\n151886: a1 = u8 [a0 + 0x1]\n151889: a2 = u8 [a0]\n151891: a4 = u8 [a0 + 0x2]\n151894: a5 = u8 [a0 + 0x3]\n151897: a1 = a1 << 0x8\n151900: a1 = a1 | a2\n151903: a4 = a4 << 0x10\n151906: a5 = a5 << 0x18\n151909: a4 = a4 | a5\n151912: a1 = a1 | a4\n151915: a2 = u8 [a0 + 0x5]\n151918: a4 = u8 [a0 + 0x4]\n151921: a5 = u8 [a0 + 0x6]\n151924: a0 = u8 [a0 + 0x7]\n151927: a2 = a2 << 0x8\n151930: a2 = a2 | a4\n151933: a5 = a5 << 0x10\n151936: a0 = a0 << 0x18\n151939: a0 = a0 | a5\n151942: a0 = a0 | a2\n151945: a0 = a0 << 0x20\n151948: a0 = a0 | a1\n151951: a0 = reverse a0\n151953: a2 = reverse a3\n151955: a3 = reverse t1\n151957: a1 = reverse t0\n151959: a4 = a1 | a2\n151962: a0 = a0 | a3\n151965: a4 = a4 | a0\n151968: a4 = a4 >> 0x20\n151971: a0 = a0 | a2\n151974: a0 = a0 << 0x20\n151977: a0 = a0 | a4\n151980: jump @1787 if a0 != 0\n      : @1768 (gas: 5)\n151984: a0 = u64 [s1 + 0x78]\n151987: i32 a0 = a0 + 0x20\n151990: i32 a1 = a1 + 0\n151992: u64 [s1 + 0x98] = a1\n151996: ra = 1632, jump @0\n      : @1769 [@dyn 816] (gas: 9)\n152003: a1 = sp + 0xffffffffffffffe0\n152006: a1 = a1 & 0xffffffffffffffe0\n152009: sp = a1\n152011: i32 a0 = a0 + 0\n152013: u64 [s1 + 0x90] = a1\n152017: i32 a2 = a1 + 0\n152019: a1 = u64 [s1 + 0x98]\n152023: ecalli 8 // 'hash_keccak_256'\n152025: fallthrough\n      : @1770 (gas: 12)\n152026: a2 = u64 [s1 + 0xb0]\n152030: a3 = u64 [s1 + 0xa0]\n152034: a0 = a2 | a3\n152037: a1 = u64 [s1 + 0xb8]\n152041: a4 = u64 [s1 + 0xa8]\n152045: a1 = a1 | a4\n152048: a0 = a0 | a1\n152051: a0 = a0 >> 0x20\n152054: a1 = a1 | a3\n152057: a1 = a1 << 0x20\n152060: a0 = a0 | a1\n152063: jump @1787 if a0 != 0\n      : @1771 (gas: 13)\n152067: a1 = u64 [s1 + 0x90]\n152071: a0 = u64 [a1 + 0x18]\n152074: u64 [s1 + 0x98] = a0\n152078: a0 = u64 [a1 + 0x10]\n152081: u64 [s1 + 0x88] = a0\n152085: a0 = u64 [a1 + 0x8]\n152088: u64 [s1 + 0x80] = a0\n152092: a0 = u64 [a1]\n152094: u64 [s1 + 0x78] = a0\n152097: i32 a0 = a2 + 0\n152099: a1 = 0x20\n152102: u64 [s1 + 0x90] = a0\n152106: ra = 1634, jump @0\n      : @1772 [@dyn 817] (gas: 10)\n152113: a1 = u64 [s1 + 0xa0]\n152117: a2 = u64 [s1 + 0xa8]\n152121: a1 = a1 | a2\n152124: a2 = 0xffffffe0\n152134: a3 = u64 [s1 + 0xb0]\n152138: a2 = a3 <u a2\n152141: a3 = u64 [s1 + 0xb8]\n152145: a2 = 0 if a3 != 0\n152147: a2 = 0 if a1 != 0\n152149: jump @1787 if a2 == 0\n      : @1773 (gas: 100)\n152153: a1 = u8 [a0 + 0x19]\n152156: a2 = u8 [a0 + 0x18]\n152159: a3 = u8 [a0 + 0x1a]\n152162: a4 = u8 [a0 + 0x1b]\n152165: a1 = a1 << 0x8\n152168: a1 = a1 | a2\n152171: a3 = a3 << 0x10\n152174: a4 = a4 << 0x18\n152177: a3 = a3 | a4\n152180: a1 = a1 | a3\n152183: a2 = u8 [a0 + 0x1d]\n152186: a3 = u8 [a0 + 0x1c]\n152189: a4 = u8 [a0 + 0x1e]\n152192: a5 = u8 [a0 + 0x1f]\n152195: a2 = a2 << 0x8\n152198: a2 = a2 | a3\n152201: a4 = a4 << 0x10\n152204: a5 = a5 << 0x18\n152207: a4 = a4 | a5\n152210: a2 = a2 | a4\n152213: a2 = a2 << 0x20\n152216: t0 = a2 | a1\n152219: a2 = u8 [a0 + 0x11]\n152222: a3 = u8 [a0 + 0x10]\n152225: a4 = u8 [a0 + 0x12]\n152228: a5 = u8 [a0 + 0x13]\n152231: a2 = a2 << 0x8\n152234: a2 = a2 | a3\n152237: a4 = a4 << 0x10\n152240: a5 = a5 << 0x18\n152243: a4 = a4 | a5\n152246: a2 = a2 | a4\n152249: a3 = u8 [a0 + 0x15]\n152252: a4 = u8 [a0 + 0x14]\n152255: a5 = u8 [a0 + 0x16]\n152258: a1 = u8 [a0 + 0x17]\n152261: a3 = a3 << 0x8\n152264: a3 = a3 | a4\n152267: a5 = a5 << 0x10\n152270: a1 = a1 << 0x18\n152273: a1 = a1 | a5\n152276: a1 = a1 | a3\n152279: a1 = a1 << 0x20\n152282: t1 = a1 | a2\n152285: a1 = u8 [a0 + 0x9]\n152288: a3 = u8 [a0 + 0x8]\n152291: a4 = u8 [a0 + 0xa]\n152294: a5 = u8 [a0 + 0xb]\n152297: a1 = a1 << 0x8\n152300: a1 = a1 | a3\n152303: a4 = a4 << 0x10\n152306: a5 = a5 << 0x18\n152309: a4 = a4 | a5\n152312: a1 = a1 | a4\n152315: a3 = u8 [a0 + 0xd]\n152318: a4 = u8 [a0 + 0xc]\n152321: a5 = u8 [a0 + 0xe]\n152324: a2 = u8 [a0 + 0xf]\n152327: a3 = a3 << 0x8\n152330: a3 = a3 | a4\n152333: a5 = a5 << 0x10\n152336: a2 = a2 << 0x18\n152339: a2 = a2 | a5\n152342: a2 = a2 | a3\n152345: a2 = a2 << 0x20\n152348: a3 = a2 | a1\n152351: a1 = u8 [a0 + 0x1]\n152354: a2 = u8 [a0]\n152356: a4 = u8 [a0 + 0x2]\n152359: a5 = u8 [a0 + 0x3]\n152362: a1 = a1 << 0x8\n152365: a1 = a1 | a2\n152368: a4 = a4 << 0x10\n152371: a5 = a5 << 0x18\n152374: a4 = a4 | a5\n152377: a1 = a1 | a4\n152380: a2 = u8 [a0 + 0x5]\n152383: a4 = u8 [a0 + 0x4]\n152386: a5 = u8 [a0 + 0x6]\n152389: a0 = u8 [a0 + 0x7]\n152392: a2 = a2 << 0x8\n152395: a2 = a2 | a4\n152398: a5 = a5 << 0x10\n152401: a0 = a0 << 0x18\n152404: a0 = a0 | a5\n152407: a0 = a0 | a2\n152410: a0 = a0 << 0x20\n152413: a0 = a0 | a1\n152416: a0 = reverse a0\n152418: a2 = reverse a3\n152420: a3 = reverse t1\n152422: a1 = reverse t0\n152424: a4 = a1 | a2\n152427: a0 = a0 | a3\n152430: a4 = a4 | a0\n152433: a4 = a4 >> 0x20\n152436: a0 = a0 | a2\n152439: a0 = a0 << 0x20\n152442: a0 = a0 | a4\n152445: jump @1787 if a0 != 0\n      : @1774 (gas: 17)\n152449: a0 = u64 [s1 + 0x78]\n152452: a0 = reverse a0\n152454: u64 [s1 + 0x78] = a0\n152457: a0 = u64 [s1 + 0x80]\n152461: a0 = reverse a0\n152463: u64 [s1 + 0x80] = a0\n152467: a0 = u64 [s1 + 0x88]\n152471: a0 = reverse a0\n152473: u64 [s1 + 0x88] = a0\n152477: a0 = u64 [s1 + 0x98]\n152481: a0 = reverse a0\n152483: u64 [s1 + 0x98] = a0\n152487: a0 = u64 [s1 + 0x90]\n152491: i32 a0 = a0 + 0x20\n152494: i32 a1 = a1 + 0\n152496: u64 [s1 + 0xb8] = a1\n152500: ra = 1636, jump @0\n      : @1775 [@dyn 818] (gas: 24)\n152507: a1 = sp + 0xffffffffffffffe0\n152510: a1 = a1 & 0xffffffffffffffe0\n152513: u64 [s1 + 0xb0] = a1\n152517: sp = a1\n152519: i32 a0 = a0 + 0\n152521: i32 a2 = a1 + 0\n152523: a1 = u64 [s1 + 0xb8]\n152527: ecalli 8 // 'hash_keccak_256'\n152529: a3 = u64 [s1 + 0xb0]\n152533: a0 = u64 [a3 + 0x18]\n152536: a1 = u64 [a3 + 0x10]\n152539: a2 = u64 [a3 + 0x8]\n152542: a3 = u64 [a3]\n152544: a0 = reverse a0\n152546: u64 [s1 + 0x90] = a0\n152550: a0 = reverse a1\n152552: u64 [s1 + 0x28] = a0\n152555: a0 = reverse a2\n152557: u64 [s1 + 0x20] = a0\n152560: a0 = reverse a3\n152562: u64 [s1 + 0x18] = a0\n152565: a0 = 0x40\n152568: a1 = 0x20\n152571: ra = 1638, jump @0\n      : @1776 [@dyn 819] (gas: 151)\n152578: a1 = u8 [a0 + 0x19]\n152581: a2 = u8 [a0 + 0x18]\n152584: a3 = u8 [a0 + 0x1a]\n152587: a4 = u8 [a0 + 0x1b]\n152590: a1 = a1 << 0x8\n152593: a1 = a1 | a2\n152596: a3 = a3 << 0x10\n152599: a4 = a4 << 0x18\n152602: a3 = a3 | a4\n152605: a1 = a1 | a3\n152608: a2 = u8 [a0 + 0x1d]\n152611: a3 = u8 [a0 + 0x1c]\n152614: a4 = u8 [a0 + 0x1e]\n152617: a5 = u8 [a0 + 0x1f]\n152620: a2 = a2 << 0x8\n152623: a2 = a2 | a3\n152626: a4 = a4 << 0x10\n152629: a5 = a5 << 0x18\n152632: a4 = a4 | a5\n152635: a2 = a2 | a4\n152638: a2 = a2 << 0x20\n152641: t0 = a2 | a1\n152644: a2 = u8 [a0 + 0x11]\n152647: a3 = u8 [a0 + 0x10]\n152650: a4 = u8 [a0 + 0x12]\n152653: a5 = u8 [a0 + 0x13]\n152656: a2 = a2 << 0x8\n152659: a2 = a2 | a3\n152662: a4 = a4 << 0x10\n152665: a5 = a5 << 0x18\n152668: a4 = a4 | a5\n152671: a2 = a2 | a4\n152674: a3 = u8 [a0 + 0x15]\n152677: a4 = u8 [a0 + 0x14]\n152680: a5 = u8 [a0 + 0x16]\n152683: a1 = u8 [a0 + 0x17]\n152686: a3 = a3 << 0x8\n152689: a3 = a3 | a4\n152692: a5 = a5 << 0x10\n152695: a1 = a1 << 0x18\n152698: a1 = a1 | a5\n152701: a1 = a1 | a3\n152704: a1 = a1 << 0x20\n152707: t1 = a1 | a2\n152710: a1 = u8 [a0 + 0x9]\n152713: a3 = u8 [a0 + 0x8]\n152716: a4 = u8 [a0 + 0xa]\n152719: a5 = u8 [a0 + 0xb]\n152722: a1 = a1 << 0x8\n152725: a1 = a1 | a3\n152728: a4 = a4 << 0x10\n152731: a5 = a5 << 0x18\n152734: a4 = a4 | a5\n152737: a1 = a1 | a4\n152740: a3 = u8 [a0 + 0xd]\n152743: a4 = u8 [a0 + 0xc]\n152746: a5 = u8 [a0 + 0xe]\n152749: a2 = u8 [a0 + 0xf]\n152752: a3 = a3 << 0x8\n152755: a3 = a3 | a4\n152758: a5 = a5 << 0x10\n152761: a2 = a2 << 0x18\n152764: a2 = a2 | a5\n152767: a2 = a2 | a3\n152770: a2 = a2 << 0x20\n152773: a3 = a2 | a1\n152776: a1 = u8 [a0 + 0x1]\n152779: a2 = u8 [a0]\n152781: a4 = u8 [a0 + 0x2]\n152784: a5 = u8 [a0 + 0x3]\n152787: a1 = a1 << 0x8\n152790: a1 = a1 | a2\n152793: a4 = a4 << 0x10\n152796: a5 = a5 << 0x18\n152799: a4 = a4 | a5\n152802: a1 = a1 | a4\n152805: a2 = u8 [a0 + 0x5]\n152808: a4 = u8 [a0 + 0x4]\n152811: a5 = u8 [a0 + 0x6]\n152814: a0 = u8 [a0 + 0x7]\n152817: a2 = a2 << 0x8\n152820: a2 = a2 | a4\n152823: a5 = a5 << 0x10\n152826: a0 = a0 << 0x18\n152829: a0 = a0 | a5\n152832: a0 = a0 | a2\n152835: a0 = a0 << 0x20\n152838: a0 = a0 | a1\n152841: a4 = reverse a0\n152843: u64 [s1 + 0xa8] = a4\n152847: a3 = reverse a3\n152849: u64 [s1 + 0xb0] = a3\n152853: a1 = reverse t1\n152855: u64 [s1 + 0xa0] = a1\n152859: a0 = reverse t0\n152861: u64 [s1 + 0xb8] = a0\n152865: t1 = a0 + 0x20\n152868: a0 = t1 <u a0\n152871: a2 = a1 + a0\n152874: a1 = a2 <u a1\n152877: a1 = a0 if a0 == 0\n152880: a1 = a1 + a3\n152883: a0 = a1 <u a3\n152886: t0 = a4 + a0\n152889: a0 = u64 [s1 + 0x18]\n152892: u64 [s1 + 0x118] = a0\n152896: a0 = u64 [s1 + 0x20]\n152899: u64 [s1 + 0x110] = a0\n152903: a0 = u64 [s1 + 0x28]\n152906: u64 [s1 + 0x108] = a0\n152910: a0 = u64 [s1 + 0x90]\n152914: u64 [s1 + 0x100] = a0\n152918: a0 = u64 [s1 + 0x78]\n152921: u64 [s1 + 0x138] = a0\n152925: a0 = u64 [s1 + 0x80]\n152929: u64 [s1 + 0x130] = a0\n152933: a0 = u64 [s1 + 0x88]\n152937: u64 [s1 + 0x128] = a0\n152941: a0 = u64 [s1 + 0x98]\n152945: u64 [s1 + 0x120] = a0\n152949: a0 = u64 [s1 + 0x38]\n152952: u64 [s1 + 0x158] = a0\n152956: a0 = u64 [s1 + 0x40]\n152959: u64 [s1 + 0x150] = a0\n152963: a0 = u64 [s1 + 0x48]\n152966: u64 [s1 + 0x148] = a0\n152970: a0 = u64 [s1 + 0x50]\n152973: u64 [s1 + 0x140] = a0\n152977: a0 = u64 [s1 + 0x58]\n152980: u64 [s1 + 0x178] = a0\n152984: a0 = u64 [s1 + 0x60]\n152987: u64 [s1 + 0x170] = a0\n152991: a0 = u64 [s1 + 0x68]\n152994: u64 [s1 + 0x168] = a0\n152998: a0 = u64 [s1 + 0x70]\n153001: u64 [s1 + 0x160] = a0\n153005: u64 [s1 + 0x98] = t1\n153009: u64 [s1 + 0x180] = t1\n153013: u64 [s1 + 0x90] = a2\n153017: u64 [s1 + 0x188] = a2\n153021: u64 [s1 + 0x88] = a1\n153025: u64 [s1 + 0x190] = a1\n153029: a0 = s1 + 0x1a0\n153033: a1 = s1 + 0x180\n153037: a2 = s1 + 0x160\n153041: a3 = s1 + 0x140\n153045: a4 = s1 + 0x120\n153049: a5 = s1 + 0x100\n153053: u64 [s1 + 0x80] = t0\n153057: u64 [s1 + 0x198] = t0\n153061: ra = 1640, jump @1752\n      : @1777 [@dyn 820] (gas: 12)\n153067: a1 = u64 [s1 + 0xa0]\n153071: a0 = u64 [s1 + 0xa8]\n153075: a0 = a0 | a1\n153078: a2 = u64 [s1 + 0xb0]\n153082: a1 = u64 [s1 + 0xb8]\n153086: a1 = a1 | a2\n153089: a1 = a1 | a0\n153092: a1 = a1 >> 0x20\n153095: a0 = a0 | a2\n153098: a0 = a0 << 0x20\n153101: a0 = a0 | a1\n153104: jump @1787 if a0 != 0\n      : @1778 (gas: 35)\n153108: a0 = u64 [s1 + 0x1a0]\n153112: u64 [s1 + 0x78] = a0\n153115: t0 = u64 [s1 + 0x1a8]\n153119: t2 = u64 [s1 + 0x1b8]\n153123: u64 [s1 + 0x40] = t2\n153126: a4 = u64 [s1 + 0x1b0]\n153130: u64 [s1 + 0x48] = a4\n153133: a5 = u64 [s1 + 0x98]\n153137: t1 = a0 <u a5\n153140: a1 = u64 [s1 + 0x90]\n153144: ra = t0 ^ a1\n153147: a2 = t0 <u a1\n153150: u64 [s1 + 0x38] = t0\n153153: a2 = t1 if ra == 0\n153156: a0 = u64 [s1 + 0x88]\n153160: ra = a4 - a0\n153163: a3 = ra - a2\n153166: u64 [s1 + 0x60] = a3\n153169: a3 = ra <u a2\n153172: a2 = a4 <u a0\n153175: a2 = t2 - a2\n153178: a0 = u64 [s1 + 0x80]\n153182: a2 = a2 - a0\n153185: a2 = a2 - a3\n153188: u64 [s1 + 0x68] = a2\n153191: a0 = t0 - t1\n153194: a0 = a0 - a1\n153197: u64 [s1 + 0x58] = a0\n153200: a0 = u64 [s1 + 0x78]\n153203: a0 = a0 - a5\n153206: u64 [s1 + 0x50] = a0\n153209: a0 = i32 [s1 + 0xb8]\n153213: a1 = 0x20\n153216: u64 [s1 + 0x70] = a0\n153219: ra = 1642, jump @0\n      : @1779 [@dyn 821] (gas: 125)\n153226: t0 = u64 [s1 + 0x78]\n153229: a2 = u64 [s1 + 0xb8]\n153233: t1 = t0 <u a2\n153236: a5 = u64 [s1 + 0xa0]\n153240: a4 = u64 [s1 + 0x38]\n153243: a3 = a4 ^ a5\n153246: a1 = a4 <u a5\n153249: a1 = t1 if a3 == 0\n153252: a3 = a4 - a5\n153255: t1 = a3 - t1\n153258: u64 [s1 + 0x28] = t1\n153261: a3 = t0 - a2\n153264: a4 = a3 + 0x1f\n153267: t0 = a4 <u a3\n153270: u64 [s1 + 0x38] = t0\n153273: a4 = a4 & 0xffffffffffffffe0\n153276: a2 = a2 + a4\n153279: u64 [s1 + 0x78] = a2\n153282: a3 = a2 <u a4\n153285: a2 = t1 + t0\n153288: a4 = a2 + a5\n153291: t0 = a4 + a3\n153294: a4 = t0 ^ a2\n153297: ra = t0 <u a2\n153300: ra = a3 if a4 == 0\n153303: t1 = u64 [s1 + 0xa8]\n153307: a3 = u64 [s1 + 0x40]\n153310: t2 = a3 - t1\n153313: a4 = u64 [s1 + 0xb0]\n153317: a3 = u64 [s1 + 0x48]\n153320: a5 = a3 <u a4\n153323: t2 = t2 - a5\n153326: a5 = a3 - a4\n153329: a3 = a5 <u a1\n153332: a3 = t2 - a3\n153335: a5 = a5 - a1\n153338: a1 = u64 [s1 + 0x28]\n153341: a1 = a2 <u a1\n153344: a2 = u64 [s1 + 0x38]\n153347: a1 = a2 if a2 == 0\n153350: a1 = a1 + a5\n153353: a2 = a1 <u a5\n153356: a3 = a3 + t1\n153359: a2 = a2 + a3\n153362: a3 = a1 + a4\n153365: a1 = a3 <u a1\n153368: a1 = a1 + a2\n153371: ra = ra + a3\n153374: a2 = ra <u a3\n153377: a5 = a1 + a2\n153380: a1 = a5 >u 0\n153382: a2 = ra >u 0\n153384: a2 = a1 if a5 != 0\n153387: a3 = ra | a5\n153390: a1 = t0 >u 0\n153392: a1 = a2 if a3 != 0\n153395: a2 = u64 [s1 + 0x50]\n153398: a2 = reverse a2\n153400: a3 = a2 >> 0x38\n153403: u8 [a0 + 0x1f] = a3\n153406: a3 = a2 >> 0x30\n153409: u8 [a0 + 0x1e] = a3\n153412: a3 = a2 >> 0x28\n153415: u8 [a0 + 0x1d] = a3\n153418: a3 = a2 >> 0x20\n153421: u8 [a0 + 0x1c] = a3\n153424: a3 = a2 >> 0x18\n153427: u8 [a0 + 0x1b] = a3\n153430: a3 = a2 >> 0x10\n153433: u8 [a0 + 0x1a] = a3\n153436: a3 = u64 [s1 + 0x58]\n153439: a3 = reverse a3\n153441: u8 [a0 + 0x18] = a2\n153444: a2 = a2 >> 0x8\n153447: u8 [a0 + 0x19] = a2\n153450: a2 = a3 >> 0x38\n153453: u8 [a0 + 0x17] = a2\n153456: a2 = a3 >> 0x30\n153459: u8 [a0 + 0x16] = a2\n153462: a2 = a3 >> 0x28\n153465: u8 [a0 + 0x15] = a2\n153468: a2 = a3 >> 0x20\n153471: u8 [a0 + 0x14] = a2\n153474: a2 = a3 >> 0x18\n153477: u8 [a0 + 0x13] = a2\n153480: a2 = a3 >> 0x10\n153483: u8 [a0 + 0x12] = a2\n153486: a2 = u64 [s1 + 0x60]\n153489: a2 = reverse a2\n153491: u8 [a0 + 0x10] = a3\n153494: a3 = a3 >> 0x8\n153497: u8 [a0 + 0x11] = a3\n153500: a3 = a2 >> 0x38\n153503: u8 [a0 + 0xf] = a3\n153506: a3 = a2 >> 0x30\n153509: u8 [a0 + 0xe] = a3\n153512: a3 = a2 >> 0x28\n153515: u8 [a0 + 0xd] = a3\n153518: a3 = a2 >> 0x20\n153521: u8 [a0 + 0xc] = a3\n153524: a3 = a2 >> 0x18\n153527: u8 [a0 + 0xb] = a3\n153530: a3 = a2 >> 0x10\n153533: u8 [a0 + 0xa] = a3\n153536: a3 = u64 [s1 + 0x68]\n153539: a3 = reverse a3\n153541: u8 [a0 + 0x8] = a2\n153544: a2 = a2 >> 0x8\n153547: u8 [a0 + 0x9] = a2\n153550: a2 = a3 >> 0x38\n153553: u8 [a0 + 0x7] = a2\n153556: a2 = a3 >> 0x30\n153559: u8 [a0 + 0x6] = a2\n153562: a2 = a3 >> 0x28\n153565: u8 [a0 + 0x5] = a2\n153568: a2 = a3 >> 0x20\n153571: u8 [a0 + 0x4] = a2\n153574: a2 = a3 >> 0x18\n153577: u8 [a0 + 0x3] = a2\n153580: a2 = a3 >> 0x10\n153583: u8 [a0 + 0x2] = a2\n153586: u8 [a0] = a3\n153588: a3 = a3 >> 0x8\n153591: u8 [a0 + 0x1] = a3\n153594: jump @1788 if a1 != 0\n      : @1780 (gas: 17)\n153598: a0 = u64 [s1 + 0xb8]\n153602: a1 = u64 [s1 + 0x78]\n153605: a0 = a1 <u a0\n153608: a2 = u64 [s1 + 0xa0]\n153612: a1 = t0 ^ a2\n153615: a2 = t0 <u a2\n153618: a2 = a0 if a1 == 0\n153621: a4 = u64 [s1 + 0xb0]\n153625: a0 = ra <u a4\n153628: a3 = u64 [s1 + 0xa8]\n153632: a1 = a5 ^ a3\n153635: a3 = a5 <u a3\n153638: a3 = a0 if a1 == 0\n153641: a0 = ra ^ a4\n153644: a0 = a0 | a1\n153647: a3 = a2 if a0 == 0\n153650: jump @1788 if a3 != 0\n      : @1781 (gas: 6)\n153654: a0 = 0x40\n153657: a1 = 0x20\n153660: u64 [s1 + 0xb8] = t0\n153664: u64 [s1 + 0xb0] = ra\n153668: u64 [s1 + 0xa8] = a5\n153672: ra = 1644, jump @0\n      : @1782 [@dyn 822] (gas: 71)\n153679: a1 = u64 [s1 + 0xa8]\n153683: a1 = reverse a1\n153685: a2 = u64 [s1 + 0xb0]\n153689: a2 = reverse a2\n153691: a3 = u64 [s1 + 0xb8]\n153695: a3 = reverse a3\n153697: a4 = u64 [s1 + 0x78]\n153700: a4 = reverse a4\n153702: u8 [a0 + 0x18] = a4\n153705: a5 = a4 >> 0x38\n153708: u8 [a0 + 0x1f] = a5\n153711: a5 = a4 >> 0x30\n153714: u8 [a0 + 0x1e] = a5\n153717: a5 = a4 >> 0x28\n153720: u8 [a0 + 0x1d] = a5\n153723: a5 = a4 >> 0x20\n153726: u8 [a0 + 0x1c] = a5\n153729: a5 = a4 >> 0x18\n153732: u8 [a0 + 0x1b] = a5\n153735: a5 = a4 >> 0x10\n153738: u8 [a0 + 0x1a] = a5\n153741: a4 = a4 >> 0x8\n153744: u8 [a0 + 0x19] = a4\n153747: u8 [a0 + 0x10] = a3\n153750: a4 = a3 >> 0x38\n153753: u8 [a0 + 0x17] = a4\n153756: a4 = a3 >> 0x30\n153759: u8 [a0 + 0x16] = a4\n153762: a4 = a3 >> 0x28\n153765: u8 [a0 + 0x15] = a4\n153768: a4 = a3 >> 0x20\n153771: u8 [a0 + 0x14] = a4\n153774: a4 = a3 >> 0x18\n153777: u8 [a0 + 0x13] = a4\n153780: a4 = a3 >> 0x10\n153783: u8 [a0 + 0x12] = a4\n153786: a3 = a3 >> 0x8\n153789: u8 [a0 + 0x11] = a3\n153792: u8 [a0 + 0x8] = a2\n153795: a3 = a2 >> 0x38\n153798: u8 [a0 + 0xf] = a3\n153801: a3 = a2 >> 0x30\n153804: u8 [a0 + 0xe] = a3\n153807: a3 = a2 >> 0x28\n153810: u8 [a0 + 0xd] = a3\n153813: a3 = a2 >> 0x20\n153816: u8 [a0 + 0xc] = a3\n153819: a3 = a2 >> 0x18\n153822: u8 [a0 + 0xb] = a3\n153825: a3 = a2 >> 0x10\n153828: u8 [a0 + 0xa] = a3\n153831: a2 = a2 >> 0x8\n153834: u8 [a0 + 0x9] = a2\n153837: u8 [a0] = a1\n153839: a2 = a1 >> 0x38\n153842: u8 [a0 + 0x7] = a2\n153845: a2 = a1 >> 0x30\n153848: u8 [a0 + 0x6] = a2\n153851: a2 = a1 >> 0x28\n153854: u8 [a0 + 0x5] = a2\n153857: a2 = a1 >> 0x20\n153860: u8 [a0 + 0x4] = a2\n153863: a2 = a1 >> 0x18\n153866: u8 [a0 + 0x3] = a2\n153869: a2 = a1 >> 0x10\n153872: u8 [a0 + 0x2] = a2\n153875: a1 = a1 >> 0x8\n153878: u8 [a0 + 0x1] = a1\n153881: a1 = 0x20\n153884: a0 = u64 [s1 + 0x70]\n153887: ra = 1646, jump @0\n      : @1783 [@dyn 823] (gas: 12)\n153894: t2 = u64 [s1 + 0x98]\n153898: a3 = u64 [s1 + 0x88]\n153902: a1 = t2 | a3\n153905: a2 = u64 [s1 + 0x90]\n153909: a4 = u64 [s1 + 0x80]\n153913: a2 = a2 | a4\n153916: a1 = a1 | a2\n153919: a1 = a1 >> 0x20\n153922: a2 = a2 | a3\n153925: a2 = a2 << 0x20\n153928: a1 = a1 | a2\n153931: jump @1787 if a1 != 0\n      : @1784 (gas: 100)\n153935: a1 = u8 [a0 + 0x19]\n153938: a2 = u8 [a0 + 0x18]\n153941: a3 = u8 [a0 + 0x1a]\n153944: a4 = u8 [a0 + 0x1b]\n153947: a1 = a1 << 0x8\n153950: a1 = a1 | a2\n153953: a3 = a3 << 0x10\n153956: a4 = a4 << 0x18\n153959: a3 = a3 | a4\n153962: a1 = a1 | a3\n153965: a2 = u8 [a0 + 0x1d]\n153968: a3 = u8 [a0 + 0x1c]\n153971: a4 = u8 [a0 + 0x1e]\n153974: a5 = u8 [a0 + 0x1f]\n153977: a2 = a2 << 0x8\n153980: a2 = a2 | a3\n153983: a4 = a4 << 0x10\n153986: a5 = a5 << 0x18\n153989: a4 = a4 | a5\n153992: a2 = a2 | a4\n153995: a2 = a2 << 0x20\n153998: t0 = a2 | a1\n154001: a2 = u8 [a0 + 0x11]\n154004: a3 = u8 [a0 + 0x10]\n154007: a4 = u8 [a0 + 0x12]\n154010: a5 = u8 [a0 + 0x13]\n154013: a2 = a2 << 0x8\n154016: a2 = a2 | a3\n154019: a4 = a4 << 0x10\n154022: a5 = a5 << 0x18\n154025: a4 = a4 | a5\n154028: a2 = a2 | a4\n154031: a3 = u8 [a0 + 0x15]\n154034: a4 = u8 [a0 + 0x14]\n154037: a5 = u8 [a0 + 0x16]\n154040: a1 = u8 [a0 + 0x17]\n154043: a3 = a3 << 0x8\n154046: a3 = a3 | a4\n154049: a5 = a5 << 0x10\n154052: a1 = a1 << 0x18\n154055: a1 = a1 | a5\n154058: a1 = a1 | a3\n154061: a1 = a1 << 0x20\n154064: t1 = a1 | a2\n154067: a1 = u8 [a0 + 0x9]\n154070: a3 = u8 [a0 + 0x8]\n154073: a4 = u8 [a0 + 0xa]\n154076: a5 = u8 [a0 + 0xb]\n154079: a1 = a1 << 0x8\n154082: a1 = a1 | a3\n154085: a4 = a4 << 0x10\n154088: a5 = a5 << 0x18\n154091: a4 = a4 | a5\n154094: a1 = a1 | a4\n154097: a3 = u8 [a0 + 0xd]\n154100: a4 = u8 [a0 + 0xc]\n154103: a5 = u8 [a0 + 0xe]\n154106: a2 = u8 [a0 + 0xf]\n154109: a3 = a3 << 0x8\n154112: a3 = a3 | a4\n154115: a5 = a5 << 0x10\n154118: a2 = a2 << 0x18\n154121: a2 = a2 | a5\n154124: a2 = a2 | a3\n154127: a2 = a2 << 0x20\n154130: a3 = a2 | a1\n154133: a1 = u8 [a0 + 0x1]\n154136: a2 = u8 [a0]\n154138: a4 = u8 [a0 + 0x2]\n154141: a5 = u8 [a0 + 0x3]\n154144: a1 = a1 << 0x8\n154147: a1 = a1 | a2\n154150: a4 = a4 << 0x10\n154153: a5 = a5 << 0x18\n154156: a4 = a4 | a5\n154159: a1 = a1 | a4\n154162: a2 = u8 [a0 + 0x5]\n154165: a4 = u8 [a0 + 0x4]\n154168: a5 = u8 [a0 + 0x6]\n154171: a0 = u8 [a0 + 0x7]\n154174: a2 = a2 << 0x8\n154177: a2 = a2 | a4\n154180: a5 = a5 << 0x10\n154183: a0 = a0 << 0x18\n154186: a0 = a0 | a5\n154189: a0 = a0 | a2\n154192: a0 = a0 << 0x20\n154195: a0 = a0 | a1\n154198: a0 = reverse a0\n154200: a2 = reverse a3\n154202: a3 = reverse t1\n154204: a1 = reverse t0\n154206: a4 = a1 | a2\n154209: a0 = a0 | a3\n154212: a4 = a4 | a0\n154215: a4 = a4 >> 0x20\n154218: a0 = a0 | a2\n154221: a0 = a0 << 0x20\n154224: a0 = a0 | a4\n154227: jump @1787 if a0 != 0\n      : @1785 (gas: 4)\n154230: i32 a0 = t2 + 0\n154232: i32 a1 = a1 + 0\n154234: u64 [s1 + 0xb8] = a1\n154238: ra = 1648, jump @0\n      : @1786 [@dyn 824] (gas: 28)\n154245: a1 = sp + 0xffffffffffffffe0\n154248: a1 = a1 & 0xffffffffffffffe0\n154251: u64 [s1 + 0xb0] = a1\n154255: sp = a1\n154257: i32 a0 = a0 + 0\n154259: i32 a2 = a1 + 0\n154261: a1 = u64 [s1 + 0xb8]\n154265: ecalli 8 // 'hash_keccak_256'\n154267: a3 = u64 [s1 + 0xb0]\n154271: a0 = u64 [a3 + 0x18]\n154274: a1 = u64 [a3 + 0x10]\n154277: a2 = u64 [a3 + 0x8]\n154280: a3 = u64 [a3]\n154282: a0 = reverse a0\n154284: a1 = reverse a1\n154286: a2 = reverse a2\n154288: a3 = reverse a3\n154290: a4 = u64 [s1 + 0x30]\n154293: u64 [a4 + 0x18] = a3\n154296: u64 [a4 + 0x10] = a2\n154299: u64 [a4 + 0x8] = a1\n154302: u64 [a4] = a0\n154304: sp = s0 + 0xfffffffffffffe20\n154308: ra = u64 [sp + 0x1d8]\n154312: s0 = u64 [sp + 0x1d0]\n154316: s1 = u64 [sp + 0x1c8]\n154320: sp = sp + 0x1e0\n154324: ret\n      : @1787 (gas: 1)\n154326: trap\n      : @1788 (gas: 8)\n154327: u64 [s1 + 240] = 0\n154331: u64 [s1 + 232] = 0\n154335: u64 [s1 + 224] = 0\n154339: a0 = 0x4e487b7100000000\n154349: a1 = s1 + 0xe0\n154353: u64 [s1 + 0xf8] = a0\n154357: a0 = 0\n154359: ra = 1650, jump @23\n      : @1789 [@dyn 825] (gas: 7)\n154366: u64 [s1 + 216] = 0\n154370: u64 [s1 + 208] = 0\n154374: u64 [s1 + 192] = 0x41\n154379: a0 = 0x4\n154382: a1 = s1 + 0xc0\n154386: u64 [s1 + 200] = 0\n154390: ra = 1652, jump @23\n      : @1790 [@dyn 826] (gas: 3)\n154397: a1 = 0x24\n154400: a0 = 0\n154402: ra = 1654, jump @0\n      : @1791 [@dyn 827] (gas: 6)\n154409: i32 a1 = a0 + 0\n154411: a0 = 0x1\n154414: a2 = 0x24\n154417: ra = 0x678\n154421: ecalli 13 // 'seal_return'\n154423: fallthrough\n      : @1792 [@dyn 828] (gas: 9)\n154424: a2 = u64 [a1 + 0x18]\n154427: a3 = u64 [a1 + 0x10]\n154430: a4 = u64 [a1 + 0x8]\n154433: a1 = u64 [a1]\n154435: u64 [a0 + 0x18] = a2\n154438: u64 [a0 + 0x10] = a3\n154441: u64 [a0 + 0x8] = a4\n154444: u64 [a0] = a1\n154446: ret\n      : @1793 [@dyn 829] (gas: 97)\n154448: a1 = u8 [a0 + 0x11]\n154451: a2 = u8 [a0 + 0x10]\n154454: a3 = u8 [a0 + 0x12]\n154457: a4 = u8 [a0 + 0x13]\n154460: a1 = a1 << 0x8\n154463: a1 = a1 | a2\n154466: a3 = a3 << 0x10\n154469: a4 = a4 << 0x18\n154472: a3 = a3 | a4\n154475: a1 = a1 | a3\n154478: a2 = u8 [a0 + 0x15]\n154481: a3 = u8 [a0 + 0x14]\n154484: a4 = u8 [a0 + 0x16]\n154487: a5 = u8 [a0 + 0x17]\n154490: a2 = a2 << 0x8\n154493: a2 = a2 | a3\n154496: a4 = a4 << 0x10\n154499: a5 = a5 << 0x18\n154502: a4 = a4 | a5\n154505: a2 = a2 | a4\n154508: a2 = a2 << 0x20\n154511: t0 = a2 | a1\n154514: a2 = u8 [a0 + 0x1]\n154517: a3 = u8 [a0]\n154519: a4 = u8 [a0 + 0x2]\n154522: a5 = u8 [a0 + 0x3]\n154525: a2 = a2 << 0x8\n154528: a2 = a2 | a3\n154531: a4 = a4 << 0x10\n154534: a5 = a5 << 0x18\n154537: a4 = a4 | a5\n154540: a2 = a2 | a4\n154543: a3 = u8 [a0 + 0x5]\n154546: a4 = u8 [a0 + 0x4]\n154549: a5 = u8 [a0 + 0x6]\n154552: s1 = u8 [a0 + 0x7]\n154555: a3 = a3 << 0x8\n154558: a3 = a3 | a4\n154561: a5 = a5 << 0x10\n154564: s1 = s1 << 0x18\n154567: a5 = a5 | s1\n154570: a3 = a3 | a5\n154573: a3 = a3 << 0x20\n154576: a2 = a2 | a3\n154579: a3 = u8 [a0 + 0x19]\n154582: a4 = u8 [a0 + 0x18]\n154585: a5 = u8 [a0 + 0x1a]\n154588: s1 = u8 [a0 + 0x1b]\n154591: a3 = a3 << 0x8\n154594: a3 = a3 | a4\n154597: a5 = a5 << 0x10\n154600: s1 = s1 << 0x18\n154603: a5 = a5 | s1\n154606: a3 = a3 | a5\n154609: a4 = u8 [a0 + 0x1d]\n154612: a5 = u8 [a0 + 0x1c]\n154615: s1 = u8 [a0 + 0x1e]\n154618: a1 = u8 [a0 + 0x1f]\n154621: a4 = a4 << 0x8\n154624: a4 = a4 | a5\n154627: s1 = s1 << 0x10\n154630: a1 = a1 << 0x18\n154633: a1 = a1 | s1\n154636: a1 = a1 | a4\n154639: a1 = a1 << 0x20\n154642: a3 = a3 | a1\n154645: a1 = u8 [a0 + 0x9]\n154648: a4 = u8 [a0 + 0x8]\n154651: a5 = u8 [a0 + 0xa]\n154654: s1 = u8 [a0 + 0xb]\n154657: a1 = a1 << 0x8\n154660: a1 = a1 | a4\n154663: a5 = a5 << 0x10\n154666: s1 = s1 << 0x18\n154669: a5 = a5 | s1\n154672: a1 = a1 | a5\n154675: a4 = u8 [a0 + 0xd]\n154678: a5 = u8 [a0 + 0xc]\n154681: s1 = u8 [a0 + 0xe]\n154684: a0 = u8 [a0 + 0xf]\n154687: a4 = a4 << 0x8\n154690: a4 = a4 | a5\n154693: s1 = s1 << 0x10\n154696: a0 = a0 << 0x18\n154699: a0 = a0 | s1\n154702: a0 = a0 | a4\n154705: a0 = a0 << 0x20\n154708: a0 = a0 | a1\n154711: s1 = reverse a0\n154713: a0 = reverse a3\n154715: u64 [sp + 0x8] = a0\n154718: a0 = reverse a2\n154720: u64 [sp + 0x18] = a0\n154723: a0 = reverse t0\n154725: u64 [sp + 0x10] = a0\n154728: ecalli 12 // 'return_data_size'\n154730: fallthrough\n      : @1794 (gas: 11)\n154731: a3 = u64 [sp + 0x8]\n154734: a1 = u64 [sp + 0x18]\n154737: a2 = u64 [sp + 0x10]\n154740: a1 = a1 | a2\n154743: a2 = a3 | s1\n154746: a2 = a2 | a1\n154749: a2 = a2 >> 0x20\n154752: a1 = a1 | s1\n154755: a1 = a1 << 0x20\n154758: a1 = a1 | a2\n154761: jump @1801 if a1 != 0\n      : @1795 (gas: 3)\n154764: s1 = a0\n154766: a0 = a0 >> 0x20\n154769: jump @1801 if a0 != 0\n      : @1796 (gas: 5)\n154772: i32 a0 = a3 + 0\n154774: i32 a1 = s1 + 0\n154776: u64 [sp + 0x18] = a1\n154779: u64 [sp + 0x10] = a0\n154782: ra = 1660, jump @0\n      : @1797 [@dyn 830] (gas: 6)\n154789: u32 [sp + 0x20] = s1\n154792: i32 a0 = a0 + 0\n154794: i32 a1 = sp + 0x20\n154797: a2 = 0\n154799: ecalli 11 // 'return_data_copy'\n154801: fallthrough\n      : @1798 (gas: 3)\n154802: a0 = i32 [sp + 0x20]\n154805: a1 = u64 [sp + 0x18]\n154808: jump @1801 if a0 <u a1\n      : @1799 (gas: 2)\n154811: ecalli 12 // 'return_data_size'\n154813: fallthrough\n      : @1800 (gas: 2)\n154814: a1 = a0 >> 0x20\n154817: jump @1802 if a1 == 0\n      : @1801 (gas: 1)\n154820: trap\n      : @1802 (gas: 4)\n154821: i32 s1 = a0 + 0\n154823: a0 = u64 [sp + 0x10]\n154826: a1 = s1\n154828: ra = 1662, jump @0\n      : @1803 [@dyn 831] (gas: 6)\n154835: i32 a1 = a0 + 0\n154837: a0 = 0x1\n154840: a2 = s1\n154842: ra = 0x680\n154846: ecalli 13 // 'seal_return'\n154848: fallthrough\n      : @1804 [@dyn 832] (gas: 9)\n154849: a2 = u64 [a1 + 0x18]\n154852: a3 = u64 [a1 + 0x10]\n154855: a4 = u64 [a1 + 0x8]\n154858: a1 = u64 [a1]\n154860: u64 [a0 + 0x18] = a2\n154863: u64 [a0 + 0x10] = a3\n154866: u64 [a0 + 0x8] = a4\n154869: u64 [a0] = a1\n154871: ret\n      : @1805 (gas: 30)\n154873: sp = sp + 0xfffffffffffffec0\n154877: u64 [sp + 0x138] = ra\n154881: u64 [sp + 0x130] = s0\n154885: u64 [sp + 0x128] = s1\n154889: s0 = sp + 0x140\n154893: sp = sp & 0xffffffffffffffe0\n154896: t2 = u64 [a4 + 0x10]\n154899: t1 = u64 [a4]\n154901: ra = u64 [a4 + 0x8]\n154904: t0 = u64 [0x20100]\n154909: s1 = u64 [0x20108]\n154914: a5 = u64 [a4 + 0x18]\n154917: a4 = ra ^ t0\n154920: u64 [sp + 0x90] = a4\n154924: u64 [sp + 0x98] = ra\n154928: t0 = ra <u t0\n154931: u64 [sp + 0x78] = t1\n154934: s1 = t1 <u s1\n154937: a4 = u64 [sp + 0x90]\n154941: s1 = t0 if a4 != 0\n154944: a4 = 0x7fffffffffffffff\n154954: ra = a5 ^ a4\n154957: u64 [sp + 0x80] = a5\n154961: t0 = a5 <u a4\n154964: a4 = t2 <u 0xffffffffffffffff\n154967: a4 = t0 if ra != 0\n154970: t0 = t2\n154972: a5 = ra | ~t2\n154975: a4 = s1 if a5 == 0\n154978: jump @1807 if a4 != 0\n      : @1806 (gas: 8)\n154981: a3 = 0\n154983: s1 = 0\n154985: a2 = 0\n154987: a5 = 0x3\n154990: t1 = u64 [sp + 0x80]\n154994: a1 = u64 [sp + 0x78]\n154997: t2 = u64 [sp + 0x98]\n155001: jump @1823\n      : @1807 (gas: 23)\n155004: u64 [sp + 0x18] = t0\n155007: u64 [sp + 0x10] = a0\n155010: a0 = u64 [a3 + 0x18]\n155013: u64 [sp + 0x20] = a0\n155016: a0 = u64 [a3 + 0x10]\n155019: u64 [sp + 0x28] = a0\n155022: a0 = u64 [a3 + 0x8]\n155025: u64 [sp + 0x30] = a0\n155028: a0 = u64 [a3]\n155030: u64 [sp + 0x38] = a0\n155033: a0 = u64 [a2]\n155035: u64 [sp + 0x40] = a0\n155038: a0 = u64 [a1 + 0x18]\n155041: u64 [sp + 0x50] = a0\n155044: a0 = u64 [a1 + 0x10]\n155047: u64 [sp + 0x58] = a0\n155050: a0 = u64 [a1 + 0x8]\n155053: u64 [sp + 0x60] = a0\n155056: a0 = u64 [a1]\n155058: u64 [sp + 0x68] = a0\n155061: a0 = 0x40\n155064: a1 = 0x20\n155067: ra = 1666, jump @0\n      : @1808 [@dyn 833] (gas: 103)\n155074: a1 = u8 [a0 + 0x11]\n155077: a2 = u8 [a0 + 0x10]\n155080: a3 = u8 [a0 + 0x12]\n155083: a4 = u8 [a0 + 0x13]\n155086: a1 = a1 << 0x8\n155089: a1 = a1 | a2\n155092: a3 = a3 << 0x10\n155095: a4 = a4 << 0x18\n155098: a3 = a3 | a4\n155101: a1 = a1 | a3\n155104: a2 = u8 [a0 + 0x15]\n155107: a3 = u8 [a0 + 0x14]\n155110: a4 = u8 [a0 + 0x16]\n155113: a5 = u8 [a0 + 0x17]\n155116: a2 = a2 << 0x8\n155119: a2 = a2 | a3\n155122: a4 = a4 << 0x10\n155125: a5 = a5 << 0x18\n155128: a4 = a4 | a5\n155131: a2 = a2 | a4\n155134: a2 = a2 << 0x20\n155137: t0 = a2 | a1\n155140: a2 = u8 [a0 + 0x1]\n155143: a3 = u8 [a0]\n155145: a4 = u8 [a0 + 0x2]\n155148: a5 = u8 [a0 + 0x3]\n155151: a2 = a2 << 0x8\n155154: a2 = a2 | a3\n155157: a4 = a4 << 0x10\n155160: a5 = a5 << 0x18\n155163: a4 = a4 | a5\n155166: a2 = a2 | a4\n155169: a3 = u8 [a0 + 0x5]\n155172: a4 = u8 [a0 + 0x4]\n155175: a5 = u8 [a0 + 0x6]\n155178: s1 = u8 [a0 + 0x7]\n155181: a3 = a3 << 0x8\n155184: a3 = a3 | a4\n155187: a5 = a5 << 0x10\n155190: s1 = s1 << 0x18\n155193: a5 = a5 | s1\n155196: a3 = a3 | a5\n155199: a3 = a3 << 0x20\n155202: a2 = a2 | a3\n155205: a3 = u8 [a0 + 0x19]\n155208: a4 = u8 [a0 + 0x18]\n155211: a5 = u8 [a0 + 0x1a]\n155214: s1 = u8 [a0 + 0x1b]\n155217: a3 = a3 << 0x8\n155220: a3 = a3 | a4\n155223: a5 = a5 << 0x10\n155226: s1 = s1 << 0x18\n155229: a5 = a5 | s1\n155232: a3 = a3 | a5\n155235: a4 = u8 [a0 + 0x1d]\n155238: a5 = u8 [a0 + 0x1c]\n155241: s1 = u8 [a0 + 0x1e]\n155244: a1 = u8 [a0 + 0x1f]\n155247: a4 = a4 << 0x8\n155250: a4 = a4 | a5\n155253: s1 = s1 << 0x10\n155256: a1 = a1 << 0x18\n155259: a1 = a1 | s1\n155262: a1 = a1 | a4\n155265: a1 = a1 << 0x20\n155268: a3 = a3 | a1\n155271: a1 = u8 [a0 + 0x9]\n155274: a4 = u8 [a0 + 0x8]\n155277: a5 = u8 [a0 + 0xa]\n155280: s1 = u8 [a0 + 0xb]\n155283: a1 = a1 << 0x8\n155286: a1 = a1 | a4\n155289: a5 = a5 << 0x10\n155292: s1 = s1 << 0x18\n155295: a5 = a5 | s1\n155298: a1 = a1 | a5\n155301: a4 = u8 [a0 + 0xd]\n155304: a5 = u8 [a0 + 0xc]\n155307: s1 = u8 [a0 + 0xe]\n155310: a0 = u8 [a0 + 0xf]\n155313: a4 = a4 << 0x8\n155316: a4 = a4 | a5\n155319: s1 = s1 << 0x10\n155322: a0 = a0 << 0x18\n155325: a0 = a0 | s1\n155328: a0 = a0 | a4\n155331: a0 = a0 << 0x20\n155334: a0 = a0 | a1\n155337: s1 = reverse a0\n155339: a1 = reverse a3\n155341: a2 = reverse a2\n155343: a0 = reverse t0\n155345: u64 [sp + 0x70] = a0\n155348: u64 [sp + 0x48] = a2\n155351: a0 = a0 | a2\n155354: u64 [sp + 0x90] = a1\n155358: a1 = a1 | s1\n155361: a1 = a1 | a0\n155364: a1 = a1 >> 0x20\n155367: a0 = a0 | s1\n155370: a0 = a0 << 0x20\n155373: a0 = a0 | a1\n155376: jump @1824 if a0 != 0\n      : @1809 (gas: 4)\n155380: a0 = i32 [sp + 0x90]\n155384: a1 = 0x20\n155387: u64 [sp + 0x88] = a0\n155391: ra = 1668, jump @0\n      : @1810 [@dyn 834] (gas: 79)\n155398: a1 = u64 [sp + 0x50]\n155401: a1 = reverse a1\n155403: a2 = u64 [sp + 0x58]\n155406: a2 = reverse a2\n155408: a3 = u64 [sp + 0x60]\n155411: a3 = reverse a3\n155413: a4 = u64 [sp + 0x68]\n155416: a4 = reverse a4\n155418: a5 = a4 >> 0x38\n155421: u8 [a0 + 0x1f] = a5\n155424: a5 = a4 >> 0x30\n155427: u8 [a0 + 0x1e] = a5\n155430: a5 = a4 >> 0x28\n155433: u8 [a0 + 0x1d] = a5\n155436: a5 = a4 >> 0x20\n155439: u8 [a0 + 0x1c] = a5\n155442: a5 = a4 >> 0x18\n155445: u8 [a0 + 0x1b] = a5\n155448: a5 = a4 >> 0x10\n155451: u8 [a0 + 0x1a] = a5\n155454: a5 = a4 >> 0x8\n155457: u8 [a0 + 0x19] = a5\n155460: u8 [a0 + 0x18] = a4\n155463: u8 [a0 + 0x10] = a3\n155466: a4 = a3 >> 0x38\n155469: u8 [a0 + 0x17] = a4\n155472: a4 = a3 >> 0x30\n155475: u8 [a0 + 0x16] = a4\n155478: a4 = a3 >> 0x28\n155481: u8 [a0 + 0x15] = a4\n155484: a4 = a3 >> 0x20\n155487: u8 [a0 + 0x14] = a4\n155490: a4 = a3 >> 0x18\n155493: u8 [a0 + 0x13] = a4\n155496: a4 = a3 >> 0x10\n155499: u8 [a0 + 0x12] = a4\n155502: a3 = a3 >> 0x8\n155505: u8 [a0 + 0x11] = a3\n155508: u8 [a0 + 0x8] = a2\n155511: a3 = a2 >> 0x38\n155514: u8 [a0 + 0xf] = a3\n155517: a3 = a2 >> 0x30\n155520: u8 [a0 + 0xe] = a3\n155523: a3 = a2 >> 0x28\n155526: u8 [a0 + 0xd] = a3\n155529: a3 = a2 >> 0x20\n155532: u8 [a0 + 0xc] = a3\n155535: a3 = a2 >> 0x18\n155538: u8 [a0 + 0xb] = a3\n155541: a3 = a2 >> 0x10\n155544: u8 [a0 + 0xa] = a3\n155547: a2 = a2 >> 0x8\n155550: u8 [a0 + 0x9] = a2\n155553: u8 [a0] = a1\n155555: a2 = a1 >> 0x38\n155558: u8 [a0 + 0x7] = a2\n155561: a2 = a1 >> 0x30\n155564: u8 [a0 + 0x6] = a2\n155567: a2 = a1 >> 0x28\n155570: u8 [a0 + 0x5] = a2\n155573: a2 = a1 >> 0x20\n155576: u8 [a0 + 0x4] = a2\n155579: a2 = a1 >> 0x18\n155582: u8 [a0 + 0x3] = a2\n155585: a2 = a1 >> 0x10\n155588: u8 [a0 + 0x2] = a2\n155591: a1 = a1 >> 0x8\n155594: a4 = u64 [sp + 0x48]\n155597: a4 = a4 | s1\n155600: s1 = 0x100000000\n155610: a2 = 0xffffffe0\n155620: a3 = u64 [sp + 0x90]\n155624: a2 = a3 <u a2\n155627: a3 = u64 [sp + 0x70]\n155630: a2 = 0 if a3 != 0\n155632: u64 [sp + 0x68] = a4\n155635: a2 = 0 if a4 != 0\n155637: u8 [a0 + 0x1] = a1\n155640: jump @1824 if a2 == 0\n      : @1811 (gas: 4)\n155644: a0 = u64 [sp + 0x88]\n155648: i32 a0 = a0 + 0x20\n155651: a1 = 0x20\n155654: ra = 1670, jump @0\n      : @1812 [@dyn 835] (gas: 41)\n155661: a1 = u64 [sp + 0x40]\n155664: u8 [a0 + 0x1f] = a1\n155667: u8 [a0 + 30] = 0\n155670: u8 [a0 + 29] = 0\n155673: u8 [a0 + 28] = 0\n155676: u8 [a0 + 27] = 0\n155679: u8 [a0 + 26] = 0\n155682: u8 [a0 + 25] = 0\n155685: u8 [a0 + 24] = 0\n155688: u8 [a0 + 23] = 0\n155691: u8 [a0 + 22] = 0\n155694: u8 [a0 + 21] = 0\n155697: u8 [a0 + 20] = 0\n155700: u8 [a0 + 19] = 0\n155703: u8 [a0 + 18] = 0\n155706: u8 [a0 + 17] = 0\n155709: u8 [a0 + 16] = 0\n155712: u8 [a0 + 15] = 0\n155715: u8 [a0 + 14] = 0\n155718: u8 [a0 + 13] = 0\n155721: u8 [a0 + 12] = 0\n155724: u8 [a0 + 11] = 0\n155727: u8 [a0 + 10] = 0\n155730: u8 [a0 + 9] = 0\n155733: u8 [a0 + 8] = 0\n155736: u8 [a0 + 7] = 0\n155739: u8 [a0 + 6] = 0\n155742: u8 [a0 + 5] = 0\n155745: u8 [a0 + 4] = 0\n155748: u8 [a0 + 3] = 0\n155751: u8 [a0 + 2] = 0\n155754: u8 [a0 + 1] = 0\n155757: a1 = s1 + 0xffffffffffffffc0\n155760: a2 = u64 [sp + 0x90]\n155764: a1 = a2 <u a1\n155767: a2 = u64 [sp + 0x70]\n155770: a1 = 0 if a2 != 0\n155772: s1 = u64 [sp + 0x68]\n155775: a1 = 0 if s1 != 0\n155777: u8 [a0 + 0] = 0\n155779: jump @1824 if a1 == 0\n      : @1813 (gas: 4)\n155783: a0 = u64 [sp + 0x88]\n155787: i32 a0 = a0 + 0x40\n155790: a1 = 0x20\n155793: ra = 1672, jump @0\n      : @1814 [@dyn 836] (gas: 76)\n155800: a1 = u64 [sp + 0x20]\n155803: a1 = reverse a1\n155805: a2 = u64 [sp + 0x28]\n155808: a2 = reverse a2\n155810: a3 = u64 [sp + 0x30]\n155813: a3 = reverse a3\n155815: a4 = u64 [sp + 0x38]\n155818: a4 = reverse a4\n155820: a5 = a4 >> 0x38\n155823: u8 [a0 + 0x1f] = a5\n155826: a5 = a4 >> 0x30\n155829: u8 [a0 + 0x1e] = a5\n155832: a5 = a4 >> 0x28\n155835: u8 [a0 + 0x1d] = a5\n155838: a5 = a4 >> 0x20\n155841: u8 [a0 + 0x1c] = a5\n155844: a5 = a4 >> 0x18\n155847: u8 [a0 + 0x1b] = a5\n155850: a5 = a4 >> 0x10\n155853: u8 [a0 + 0x1a] = a5\n155856: a5 = a4 >> 0x8\n155859: u8 [a0 + 0x19] = a5\n155862: u8 [a0 + 0x18] = a4\n155865: u8 [a0 + 0x10] = a3\n155868: a4 = a3 >> 0x38\n155871: u8 [a0 + 0x17] = a4\n155874: a4 = a3 >> 0x30\n155877: u8 [a0 + 0x16] = a4\n155880: a4 = a3 >> 0x28\n155883: u8 [a0 + 0x15] = a4\n155886: a4 = a3 >> 0x20\n155889: u8 [a0 + 0x14] = a4\n155892: a4 = a3 >> 0x18\n155895: u8 [a0 + 0x13] = a4\n155898: a4 = a3 >> 0x10\n155901: u8 [a0 + 0x12] = a4\n155904: a3 = a3 >> 0x8\n155907: u8 [a0 + 0x11] = a3\n155910: u8 [a0 + 0x8] = a2\n155913: a3 = a2 >> 0x38\n155916: u8 [a0 + 0xf] = a3\n155919: a3 = a2 >> 0x30\n155922: u8 [a0 + 0xe] = a3\n155925: a3 = a2 >> 0x28\n155928: u8 [a0 + 0xd] = a3\n155931: a3 = a2 >> 0x20\n155934: u8 [a0 + 0xc] = a3\n155937: a3 = a2 >> 0x18\n155940: u8 [a0 + 0xb] = a3\n155943: a3 = a2 >> 0x10\n155946: u8 [a0 + 0xa] = a3\n155949: a2 = a2 >> 0x8\n155952: u8 [a0 + 0x9] = a2\n155955: u8 [a0] = a1\n155957: a2 = a1 >> 0x38\n155960: u8 [a0 + 0x7] = a2\n155963: a2 = a1 >> 0x30\n155966: u8 [a0 + 0x6] = a2\n155969: a2 = a1 >> 0x28\n155972: u8 [a0 + 0x5] = a2\n155975: a2 = a1 >> 0x20\n155978: u8 [a0 + 0x4] = a2\n155981: a2 = a1 >> 0x18\n155984: u8 [a0 + 0x3] = a2\n155987: a2 = a1 >> 0x10\n155990: u8 [a0 + 0x2] = a2\n155993: a1 = a1 >> 0x8\n155996: a2 = 0xffffffa0\n156006: a3 = u64 [sp + 0x90]\n156010: a2 = a3 <u a2\n156013: a3 = u64 [sp + 0x70]\n156016: a2 = 0 if a3 != 0\n156018: a2 = 0 if s1 != 0\n156020: u8 [a0 + 0x1] = a1\n156023: s1 = u64 [sp + 0x80]\n156027: jump @1824 if a2 == 0\n      : @1815 (gas: 4)\n156031: a0 = u64 [sp + 0x88]\n156035: i32 a0 = a0 + 0x60\n156038: a1 = 0x20\n156041: ra = 1674, jump @0\n      : @1816 [@dyn 837] (gas: 70)\n156048: a1 = reverse s1\n156050: a2 = u64 [sp + 0x18]\n156053: a2 = reverse a2\n156055: a3 = u64 [sp + 0x98]\n156059: a3 = reverse a3\n156061: a4 = u64 [sp + 0x78]\n156064: a4 = reverse a4\n156066: a5 = a4 >> 0x38\n156069: u8 [a0 + 0x1f] = a5\n156072: a5 = a4 >> 0x30\n156075: u8 [a0 + 0x1e] = a5\n156078: a5 = a4 >> 0x28\n156081: u8 [a0 + 0x1d] = a5\n156084: a5 = a4 >> 0x20\n156087: u8 [a0 + 0x1c] = a5\n156090: a5 = a4 >> 0x18\n156093: u8 [a0 + 0x1b] = a5\n156096: a5 = a4 >> 0x10\n156099: u8 [a0 + 0x1a] = a5\n156102: a5 = a4 >> 0x8\n156105: u8 [a0 + 0x19] = a5\n156108: u8 [a0 + 0x18] = a4\n156111: u8 [a0 + 0x10] = a3\n156114: a4 = a3 >> 0x38\n156117: u8 [a0 + 0x17] = a4\n156120: a4 = a3 >> 0x30\n156123: u8 [a0 + 0x16] = a4\n156126: a4 = a3 >> 0x28\n156129: u8 [a0 + 0x15] = a4\n156132: a4 = a3 >> 0x20\n156135: u8 [a0 + 0x14] = a4\n156138: a4 = a3 >> 0x18\n156141: u8 [a0 + 0x13] = a4\n156144: a4 = a3 >> 0x10\n156147: u8 [a0 + 0x12] = a4\n156150: a3 = a3 >> 0x8\n156153: u8 [a0 + 0x11] = a3\n156156: u8 [a0 + 0x8] = a2\n156159: a3 = a2 >> 0x38\n156162: u8 [a0 + 0xf] = a3\n156165: a3 = a2 >> 0x30\n156168: u8 [a0 + 0xe] = a3\n156171: a3 = a2 >> 0x28\n156174: u8 [a0 + 0xd] = a3\n156177: a3 = a2 >> 0x20\n156180: u8 [a0 + 0xc] = a3\n156183: a3 = a2 >> 0x18\n156186: u8 [a0 + 0xb] = a3\n156189: a3 = a2 >> 0x10\n156192: u8 [a0 + 0xa] = a3\n156195: a2 = a2 >> 0x8\n156198: u8 [a0 + 0x9] = a2\n156201: u8 [a0] = a1\n156203: a2 = a1 >> 0x38\n156206: u8 [a0 + 0x7] = a2\n156209: a2 = a1 >> 0x30\n156212: u8 [a0 + 0x6] = a2\n156215: a2 = a1 >> 0x28\n156218: u8 [a0 + 0x5] = a2\n156221: a2 = a1 >> 0x20\n156224: u8 [a0 + 0x4] = a2\n156227: a2 = a1 >> 0x18\n156230: u8 [a0 + 0x3] = a2\n156233: a2 = a1 >> 0x10\n156236: u8 [a0 + 0x2] = a2\n156239: a1 = a1 >> 0x8\n156242: u8 [a0 + 0x1] = a1\n156245: a1 = 0x20\n156248: a0 = 0\n156250: ra = 1676, jump @0\n      : @1817 [@dyn 838] (gas: 43)\n156257: u8 [a0 + 31] = 0\n156260: u8 [a0 + 30] = 0\n156263: u8 [a0 + 29] = 0\n156266: u8 [a0 + 28] = 0\n156269: u8 [a0 + 27] = 0\n156272: u8 [a0 + 26] = 0\n156275: u8 [a0 + 25] = 0\n156278: u8 [a0 + 24] = 0\n156281: u8 [a0 + 23] = 0\n156284: u8 [a0 + 22] = 0\n156287: u8 [a0 + 21] = 0\n156290: u8 [a0 + 20] = 0\n156293: u8 [a0 + 19] = 0\n156296: u8 [a0 + 18] = 0\n156299: u8 [a0 + 17] = 0\n156302: u8 [a0 + 16] = 0\n156305: u8 [a0 + 15] = 0\n156308: u8 [a0 + 14] = 0\n156311: u8 [a0 + 13] = 0\n156314: u8 [a0 + 12] = 0\n156317: u8 [a0 + 11] = 0\n156320: u8 [a0 + 10] = 0\n156323: u8 [a0 + 9] = 0\n156326: u8 [a0 + 8] = 0\n156329: u8 [a0 + 7] = 0\n156332: u8 [a0 + 6] = 0\n156335: u8 [a0 + 5] = 0\n156338: u8 [a0 + 4] = 0\n156341: u8 [a0 + 3] = 0\n156344: u8 [a0 + 2] = 0\n156347: u8 [a0 + 1] = 0\n156350: u8 [a0 + 0] = 0\n156352: ecalli 10 // 'ref_time_left'\n156354: u64 [sp + 168] = 0\n156358: u64 [sp + 160] = 0\n156362: u32 [sp + 176] = 0x1000000\n156370: u64 [sp + 216] = 0\n156374: u64 [sp + 208] = 0\n156378: u64 [sp + 200] = 0\n156382: u64 [sp + 192] = 0\n156386: a1 = 0x80\n156390: a0 = u64 [sp + 0x88]\n156394: ra = 1678, jump @0\n      : @1818 [@dyn 839] (gas: 4)\n156401: u64 [sp + 0x98] = a0\n156405: a1 = 0x20\n156408: a0 = 0\n156410: ra = 1680, jump @0\n      : @1819 [@dyn 840] (gas: 31)\n156417: u32 [sp + 224] = 0x20\n156422: u64 [sp + 280] = 0\n156426: u64 [sp + 272] = 0\n156430: u64 [sp + 264] = 0\n156434: u64 [sp + 256] = 0\n156438: a1 = sp + 0xa0\n156442: a1 = a1 << 0x20\n156445: a1 = a1 >> 0x20\n156448: a2 = 0x1800000000\n156458: s1 = a1 | a2\n156461: a1 = sp + 0xc0\n156465: a1 = a1 << 0x20\n156468: a1 = a1 >> 0x20\n156471: a2 = sp + 0x100\n156475: a2 = a2 << 0x20\n156478: a3 = a2 | a1\n156481: a1 = u64 [sp + 0x98]\n156485: a1 = a1 << 0x20\n156488: a1 = a1 >> 0x20\n156491: a4 = 0x8000000000\n156501: a4 = a4 | a1\n156504: a0 = a0 << 0x20\n156507: a0 = a0 >> 0x20\n156510: a1 = sp + 0xe0\n156514: a1 = a1 << 0x20\n156517: a5 = a1 | a0\n156520: a1 = 0xffffffffffffffff\n156523: a2 = 0xffffffffffffffff\n156526: a0 = s1\n156528: ecalli 1 // 'call'\n156530: fallthrough\n      : @1820 (gas: 1)\n156531: jump @1825 if a0 != 0\n      : @1821 (gas: 2)\n156535: a1 = 0x20\n156538: ra = 1682, jump @0\n      : @1822 [@dyn 841] (gas: 110)\n156545: a1 = 0\n156547: u64 [sp + 152] = 0\n156551: t0 = 0\n156553: a2 = u8 [a0 + 0x9]\n156556: a3 = u8 [a0 + 0x8]\n156559: a4 = u8 [a0 + 0xa]\n156562: a5 = u8 [a0 + 0xb]\n156565: a2 = a2 << 0x8\n156568: a2 = a2 | a3\n156571: a4 = a4 << 0x10\n156574: a5 = a5 << 0x18\n156577: a4 = a4 | a5\n156580: a2 = a2 | a4\n156583: a3 = u8 [a0 + 0xd]\n156586: a4 = u8 [a0 + 0xc]\n156589: a5 = u8 [a0 + 0xe]\n156592: s1 = u8 [a0 + 0xf]\n156595: a3 = a3 << 0x8\n156598: a3 = a3 | a4\n156601: a5 = a5 << 0x10\n156604: s1 = s1 << 0x18\n156607: a5 = a5 | s1\n156610: a3 = a3 | a5\n156613: a3 = a3 << 0x20\n156616: a2 = a2 | a3\n156619: u64 [sp + 0x90] = a2\n156623: a3 = u8 [a0 + 0x19]\n156626: a4 = u8 [a0 + 0x18]\n156629: a5 = u8 [a0 + 0x1a]\n156632: s1 = u8 [a0 + 0x1b]\n156635: a3 = a3 << 0x8\n156638: a3 = a3 | a4\n156641: a5 = a5 << 0x10\n156644: s1 = s1 << 0x18\n156647: a5 = a5 | s1\n156650: a3 = a3 | a5\n156653: a4 = u8 [a0 + 0x1d]\n156656: a5 = u8 [a0 + 0x1c]\n156659: s1 = u8 [a0 + 0x1e]\n156662: a2 = u8 [a0 + 0x1f]\n156665: a4 = a4 << 0x8\n156668: a4 = a4 | a5\n156671: s1 = s1 << 0x10\n156674: a2 = a2 << 0x18\n156677: a2 = a2 | s1\n156680: a2 = a2 | a4\n156683: a2 = a2 << 0x20\n156686: t1 = a2 | a3\n156689: a2 = u8 [a0 + 0x11]\n156692: a4 = u8 [a0 + 0x10]\n156695: a5 = u8 [a0 + 0x12]\n156698: s1 = u8 [a0 + 0x13]\n156701: a2 = a2 << 0x8\n156704: a2 = a2 | a4\n156707: a5 = a5 << 0x10\n156710: s1 = s1 << 0x18\n156713: a5 = a5 | s1\n156716: a2 = a2 | a5\n156719: a4 = u8 [a0 + 0x15]\n156722: a5 = u8 [a0 + 0x14]\n156725: s1 = u8 [a0 + 0x16]\n156728: a3 = u8 [a0 + 0x17]\n156731: a4 = a4 << 0x8\n156734: a4 = a4 | a5\n156737: s1 = s1 << 0x10\n156740: a3 = a3 << 0x18\n156743: a3 = a3 | s1\n156746: a3 = a3 | a4\n156749: a3 = a3 << 0x20\n156752: a4 = a3 | a2\n156755: a2 = u8 [a0 + 0x1]\n156758: a3 = u8 [a0]\n156760: a5 = u8 [a0 + 0x2]\n156763: s1 = u8 [a0 + 0x3]\n156766: a2 = a2 << 0x8\n156769: a2 = a2 | a3\n156772: a5 = a5 << 0x10\n156775: s1 = s1 << 0x18\n156778: a5 = a5 | s1\n156781: a2 = a2 | a5\n156784: a3 = u8 [a0 + 0x5]\n156787: a5 = u8 [a0 + 0x4]\n156790: s1 = u8 [a0 + 0x6]\n156793: a0 = u8 [a0 + 0x7]\n156796: a3 = a3 << 0x8\n156799: a3 = a3 | a5\n156802: s1 = s1 << 0x10\n156805: a0 = a0 << 0x18\n156808: a0 = a0 | s1\n156811: a0 = a0 | a3\n156814: a0 = a0 << 0x20\n156817: a5 = a0 | a2\n156820: s1 = reverse a4\n156822: a3 = reverse t1\n156824: t1 = 0\n156826: t2 = u64 [sp + 0x98]\n156830: a0 = u64 [sp + 0x90]\n156834: a2 = reverse a0\n156836: a4 = a2 << 0x20\n156839: a4 = a4 >> 0x20\n156842: a0 = a3 | s1\n156845: a0 = a0 | a4\n156848: a4 = reverse a5\n156850: a4 = 0 if a0 == 0\n156852: a2 = 0 if a0 == 0\n156854: s1 = 0 if a0 == 0\n156856: a3 = 0 if a0 == 0\n156858: a5 = a0 <u 0x1\n156861: a0 = u64 [sp + 0x10]\n156864: fallthrough\n      : @1823 (gas: 18)\n156865: u64 [a0 + 0x40] = a1\n156868: u64 [a0 + 0x20] = a5\n156871: u64 [a0] = a3\n156873: u64 [a0 + 0x48] = t2\n156876: u64 [a0 + 40] = 0\n156879: u64 [a0 + 0x8] = s1\n156882: u64 [a0 + 0x50] = t0\n156885: u64 [a0 + 48] = 0\n156888: u64 [a0 + 0x10] = a2\n156891: u64 [a0 + 0x58] = t1\n156894: u64 [a0 + 56] = 0\n156897: u64 [a0 + 0x18] = a4\n156900: sp = s0 + 0xfffffffffffffec0\n156904: ra = u64 [sp + 0x138]\n156908: s0 = u64 [sp + 0x130]\n156912: s1 = u64 [sp + 0x128]\n156916: sp = sp + 0x140\n156920: ret\n      : @1824 (gas: 1)\n156922: trap\n      : @1825 (gas: 11)\n156923: ra = 0x694\n156927: sp = sp + 0xffffffffffffffc0\n156930: u64 [sp + 0x38] = ra\n156933: u64 [sp + 0x30] = s0\n156936: u64 [sp + 0x28] = s1\n156939: s0 = sp + 0x40\n156942: sp = sp & 0xffffffffffffffe0\n156945: a0 = 0x40\n156948: a1 = 0x20\n156951: ra = 0x67a\n156955: jump @0\n      : @1826 [@dyn 842] [export #0: 'call'] (gas: 2)\n156959: a0 = 0\n156961: ra = 1686, jump @25\n      : @1827 [@dyn 843] [export #1: 'deploy'] (gas: 2)\n156968: a0 = 0x1\n156971: ra = 1688, jump @25\n      : @1828 [@dyn 844] (gas: 27)\n156978: sp = sp + 0xffffffffffffff60\n156982: u64 [sp + 0x98] = ra\n156986: u64 [sp + 0x90] = s0\n156990: u64 [sp + 0x88] = s1\n156994: s0 = sp + 0xa0\n156998: sp = sp & 0xfffffffffffffff0\n157001: t0 = u64 [a1]\n157003: t1 = u64 [a1 + 0x8]\n157006: t2 = u64 [a1 + 0x10]\n157009: a1 = u64 [a1 + 0x18]\n157012: a3 = u64 [a2]\n157014: a4 = u64 [a2 + 0x8]\n157017: a5 = u64 [a2 + 0x10]\n157020: a2 = u64 [a2 + 0x18]\n157023: s1 = a0\n157025: u64 [sp + 0x18] = a2\n157028: u64 [sp + 0x10] = a5\n157031: u64 [sp + 0x8] = a4\n157034: u64 [sp] = a3\n157036: u64 [sp + 0x38] = a1\n157039: u64 [sp + 0x30] = t2\n157042: u64 [sp + 0x28] = t1\n157045: a0 = sp + 0x40\n157048: a1 = sp + 0x20\n157051: a2 = sp\n157053: u64 [sp + 0x20] = t0\n157056: ra = 1690, jump @174\n      : @1829 [@dyn 845] (gas: 22)\n157063: t0 = u64 [sp + 0x48]\n157066: t1 = u64 [sp + 0x40]\n157069: a2 = u64 [sp + 0x58]\n157072: a3 = u64 [sp + 0x50]\n157075: a4 = u64 [sp + 0x70]\n157078: a5 = u64 [sp + 0x78]\n157081: a0 = u64 [sp + 0x60]\n157084: a1 = u64 [sp + 0x68]\n157087: u64 [s1 + 0x30] = a4\n157090: u64 [s1 + 0x38] = a5\n157093: u64 [s1 + 0x20] = a0\n157096: u64 [s1 + 0x28] = a1\n157099: u64 [s1 + 0x10] = a3\n157102: u64 [s1 + 0x18] = a2\n157105: u64 [s1] = t1\n157107: u64 [s1 + 0x8] = t0\n157110: sp = s0 + 0xffffffffffffff60\n157114: ra = u64 [sp + 0x98]\n157118: s0 = u64 [sp + 0x90]\n157122: s1 = u64 [sp + 0x88]\n157126: sp = sp + 0xa0\n157130: ret\n",
				"bytecode": {
					"object": "50564d0000c9be020000000000010700c12001c00040038110f8297946eaa0d85bcda3611585d882e72afd306c9a2cfcb4a4866d22926279c00a3b069ec43869334bd614dfc15219a3f300276ef3057e0064b42729c893e3b5882e5e1b5203ae341128e9c980c3fe833399e968ee6a9aa940b2c3af52830e86e48c2e5981ea52c85546bf5871ac1e6ac9752602b8c93bcac6228edd773ffc1621b1daee5a7f5a097e8629a8877d7df2e0d52281923ca84ff64400e1a6f13918c29b788a6582427e94bdeda6afbd83616ca4a49a928d407728e441787112329ca709adb2949dc70b8f3d67436717d4ff3477c9abb31e09a6077a7ccf44b26a4ec28550253778baf5a8c03297136da385032673554343b47ebc15360fdbc187261d50a457736e575da1201b68462fe9df0481101100000000070000000b0000001900000027000000350000003b000000480000005300000062000000650000007200000082000000920000009d000000af000000ba0000006164647265737363616c6c63616c6c5f646174615f636f707963616c6c5f646174615f6c6f616463616c6c5f646174615f73697a6563616c6c65726465706f7369745f6576656e746765745f73746f72616765686173685f6b656363616b5f3235366e6f777265665f74696d655f6c65667472657475726e5f646174615f636f707972657475726e5f646174615f73697a657365616c5f72657475726e7365745f696d6d757461626c655f646174617365745f73746f7261676576616c75655f7472616e73666572726564051302c21f650463616c6cc22865066465706c6f7906c273bc834d03c2cc65d60000be0100c30100e50100d102000204001704003b04004704006904004305006e0500c10500390600440600be07000108006408007a0800bd0800260900d00900030a00080a00360a003b0a00400a006e0a00a10a00a60a00bf0a00c60a00e70a00f40a00090b005e0d00930e00740f004510007e11006513008213008c13009a1300e913004d1400a115008f1600a21700ba1700c41700d217000d1800df1800481900811a00de1a00b21c009a1d00bf1e00681f00102000202100932100c92200682300482500d52500eb2500f82500fa25000826009a2700a82700fb2900a12a00af2a001c2b00072c00132c00452d005f2d006c2d00ba2e00c82e007d2f00892f00bb3000d53000e23000323200333300bb3300c93300293400663500c23600d23600df3600423700423800fb3800233900853a002a3b00923b00a83b00b53b00003c00cf3c00a13d00df3d00af3e001a3f00493f001c4000e340000c4400f14400fa4500ab4600804700fe48009d49007d4b000a4c00204c002d4c005f4c006d4c00fa4c00084d00b14e00ae4f00025100105100935100c05200cc5200fe53001854002554005554006c5400775400865400c155009356004257005b5700665700755700975a009e5d00ac5d00215e00c85f00eb5f001d61003461000562001362004762001663008163004264001265007d6500ec65001e6700356700066800146800d46900e26900e96a00116b00436c005a6c002c6d003a6d003a6e00466e00786f00926f009f6f00f97000627200d57300d87400f37400c47600f07600257800fb78000979006879008b7900bd7a00d47a00a57b00b37b00fb7b00097c00427c00d27d00977e00da7f00688100988200988400c184000d8600988600af8600bc8600f18600c187002d8800ef8800c089002c8a009c8a00cf8b00e78b00b98c00c78c00088d00158d00488e00648e00718e006d9000f690000491008791003292003d92004b92007592008392000193000f9300de9400ec9400389500a29500af9500e09600ed96007397000798009598001b9c00a99c00ef9d00969e00069f00149f005e9f000ba000eba0007fa10019a200bfa20062a30039a400a4a40077a6009aa600e0a70087a800f7a80005a9008ba9001faa00adaa00d9ab006dac00fbac00f6ad00a3af00b8b000d2b000deb000edb0005fb10077b10083b10092b10030b2009cb200adb300eeb300afb50024b600d7b600f6b60002b70018b70026b7008eb70029b800beb80059b900ffb900a1ba00f1bb005dbc0090bc0074bd003fbe009fbf0026c00075c000dcc00007c200ebc20056c30079c40086c400b7c50047c6008dc70034c80054c8009ac90041ca0061ca00a7cb004ecc00bfcc00cdcc00b3cd004dce0021cf008ccf00a2d000c5d00007d200abd20017d30025d30069d30018d400f9d4008ed5002ed600d6d60079d700c5d80031d900ded900c2da002edb0011dd001ddd0001de006dde00f5de0039e00039e10010e20085e200cbe30072e400fae40019e50025e5003fe5004de50094e500b8e60089e700f4e7007be90077ea00bdeb0064ec00d0ec00e9ec00f7ec00e2ed00baee0025ef0077f0009af000e0f10087f200f7f20005f300a2f30036f400c4f400f0f50083f6001ef700c7f700e5f800b7f9004dfd008efd005efe00e906013007014f07015b07016a0701da0701dc08016f0901e60a01690b01610c01610d01c70e01410f01f60f019e11017b1201e612018c13010d1401d21401ba16013f1701af1701f518019c1901bc1901021b01a91b011a1c01281c014a1d01ce1d01621e01f01e011e2001b22001402101fd2101da22014623017623015624011e25014927017a2801062901482a01ec2a010c2b014e2c01f32c01132d01552e01f92e01662f01742f01af2f01a630013a3101c83101f13201863301213401c93401e135017536010f3701b33701c738012b3b016c3b013c3c01543e01804001ca44015e4901a54901c44901d04901df4901264a01a74a01704c01754e01be4f012d5001765101e65101475401965a01b55a01c15a01d05a01e25c012d5d01a35e01e45e012460018f60014e6101c46101b06201e36301336401676501c96501ee6601a067018c6801f76801586901156a015b6a01476b01b36b01d56c017e6e01516f01087001527101fd71011d72016773011274013274017c75012876014876019277013e78015e7801a87901537a01ca7a01da7a013c7c01027d01447e01e97e01557f01637f019e7f019680012a8101b88101e482017a83010b84013a85010387010b8901f68a01d28c01998e01f18f015c9001b69101a292010e9301d39401479501319601269701c49701529801bd9801a99901159a014c9a01309b01ff9b015e9c01c39c01279e01009f01d29f011ca101c7a101e7a10131a301dca30169a40188a40194a401b0a401c0a40102a5017ea50150a60123a701fda901a8ab017cad016cae0181af019baf01a7af01b6af01ebaf0180b00154b101bfb10160b20183b201c5b30165b401d1b401dfb401a0b501bab501c6b501d5b50146b60192b701feb701bbb9019bba0107bb018fbb01d7bc01dabd01b3be0143bf0162bf016ebf017dbf01aabf0126c001bac00148c101bfc20153c301c6c4013dc501eac5014bc701a8c80174cd018cce01decf0153d1016dd20116d301aed301bfd40125d5011cd60130d701f0d70144d901b0d901e3d90138db0103dc01a1dc01e7dd018ede0100df012adf0170df010ce00178e00164e101cfe10129e20151e2016ee30142e4015de50184e50151e701f5e701ace90180ea01eceb0100ed0111ee01b2ee0186ef01faf00146f201cff20116f3015df3017cf30188f30199f50127f60169f7010ef8017af80188f801c3f801b5f90149fa01d7fa01fafb018efc011cfd0145fe01dafe0174ff011a0002bb00021302027e0202bd0202a903021504024c0402300502ff05028c0802780902e40902630b024f0c02bb0c02ce11026b12029612020314027414022815027216021d17023d17028718023319025319029d1a02481b02681b02b21c025d1d02ea1d02091e02151e02311e02411e02b11e02521f02ef2002db2102d22202cb2302cb24027225024b26028327024c28028c2802a22902bc2902c82902d72902142a027e2a02402b02d42b02622c02682d02ff2e020d2f027d2f02a32f02e53002843102f03102fe31022333026333027133028835027b3702f53702803802153902b03902503a02f23a02e43b02733c02c53c02333d02c83d020e3f02b53f02254002334002ba40022342021e4302a045022846027146024d48026748027b4802ed48021c4902914902074a02d84a02e74a02974b023b4c02094d02ba4d02b14e02605002c35102315202bb5302025402eb55028a56024f5802265902855a02fe5a021d5b02295b02385b02505b02a55c02d35c02e15c02c25d02065f020d6002986002906102616202f162020163028163021f65022865023265028765028b791052093b3309010001ae9833c8780883881f8488e0553801000128390a100102ae8a123d081001023308200102c8870732003308200102c8870732000000aa876e978a2098aa20977b2098bb20c89b0bc9ba0a979b019abbaeab20ae873751094ec87909647a017c8b95880195ac0178ab64caab9cf42836510934c87909647a017c8b95880195ac0178ab64caab9cf4281c51091a839aff01c8a80b7cbb9599ffc8a70c78cb83aaff5209f032009511d87b10207b15187b161082897b19088289087b1982851082861883773308205010022fff6f686f59821a6faa821b086fbb787b18787a10787908787898bc38787c1f98bc30787c1e98bc28787c1d98bc20787c1c98bc18787c1b98bc10787c1a98bb08787b1998ab38787b1798ab30787b1698ab28787b1598ab20787b1498ab18787b1398ab10787b1298aa08787a11989a38787a0f989a30787a0e989a28787a0d989a20787a0c989a18787a0b989a10787a0a98990878790998893878790798893078790698892878790598892078790498891878790398891078790298880878780182102082151882161095112832009511f07b10087b158475010a04013d07140102510507501004095010068902951160ff7b1098007b1590007b1688009515a0008411e033074033082050100820fe46171f800046171e46171d46171c46171b46171a46171946171846171746171646171546171446171346171246171146171046170f46170e46170d46170c46170b46170a4617094617084617074617064617054617044617034617024617014607491118490149110849111083170a1001821710821818821908821ad49808d4a707d4870752078f014911584911504911483306057b164049117849117049116849116048112020831840831a60831b203309ff33070a074911584911504911487b164049117849117049116849116001831840831a603309ff330b2033070a0f33074033082050100a34fd7c78117c79107c7a127c7b13978808d4980897aa1097bb18d4ba0ad4a8087c79157c7a147c7b167c7c17979908d4a90997bb1097cc18d4cb0bd4b909979920d489027c79017c7a7c7b027c7c03979908d4a90997bb1097cc18d4cb0bd4b9097c7a057c7b047c7c067c760797aa08d4ba0a97cc10976618d46c0cd4ca0a97aa20d4a9097c7a197c7b187c7c1a7c761b97aa08d4ba0a97cc10976618d46c0cd4ca0a7c7b1d7c7c1c7c761e7c781f97bb08d4cb0b976610978818d46808d4b808978820d48a0a7c78097c7b087c7c0a7c760b978808d4b80897cc10976618d46c0cd4c8087c7b0d7c7c0c7c760e7c770f97bb08d4cb0b976610977718d46707d4b707977720d487076f776fa66f986f29d49808d47609d48909989920d48707977720d49707510717003307330850100c03fc837833070133090a0d0183666467330850100eeefb8377330833090a0201390818010251080d330720010383770a0e0164673308501010cafb8378330733093300120a0d01951120fd7b10d8027b15d0027b16c8029515e0028411e03307403308205010149cfb46171f800046171e46171d46171c46171b46171a46171946171846171746171646171546171446171346171246171146171046170f46170e46170d46170c46170b46170a461709461708461707461703330614010246170246170146073908140102461706461705461704531804d5058317800233080a030181179c025847f57e77fa5d58471557dc19810058474af3e537850351474bf3e5377105514773d5ed4efe0452473369d2699905330016951140ff7b10b8007b15b0007b16a8009515c0008411e04911784911704911684911608317600a1028cd595a473790d3a22a023308008023985a4790842398b00251470764ee8faf045247fa488c924505501018796433080010790a5a47b60e790a4a025147f67e77fa41035247bfbbf0fa220580674921f8014921f0014921e8017b17e0014921180249211002492100020495172002951800029519e0014921080250101a548d00821720027b173882132802821430028210380282124002821c480282165002821b5802821a60028218680282197002821778027b1798017b1990017b1888017b1a80017b1bb8017b16b0017b1ca8017b12a0017b10d8017b14d0017b13c8019517c0019518a00195198001821a387b1ac00150101c70ed0133074033082050101ec1f97c78117c79107c7a127c7b13978808d4980897aa1097bb18d4ba0ad4a8087c79157c7a147c7b167c7c17979908d4a90997bb1097cc18d4cb0bd4b909979920d489027c79017c7a7c7b027c7c03979908d4a90997bb1097cc18d4cb0bd4b9097c7a057c7b047c7c067c760797aa08d4ba0a97cc10976618d46c0cd4ca0a97aa20d4a9097c7a197c7b187c7c1a7c761b97aa08d4ba0a97cc10976618d46c0cd4ca0a7c7b1d7c7c1c7c761e7c781f97bb08d4cb0b976610978818d46808d4b808978820d48a0a7c78097c7b087c7c0a7c760b978808d4b80897cc10976618d46c0cd4c8087c7b0d7c7c0c7c760e7c770f97bb08d4cb0b976610977718d46707d4b707977720d487076f786fa76f996f2ad4a909d4870ad49a0a98aa20d49808978820d4a80851086e03003308005079e85a47815279e8f10051473890d3a2bb02524788541cde23033300209511e0fe7b1018017b1510017b160801951520018411e04921f8004921f0004921e8004921e0008317e0000a1028967c8388b7feaa870e0252474fdde511e0023300229511e0fd7b1018027b1510027b160802951520028411e04921f8014921f0014921e8014921e0018317e0010a1028c92283889104aa8736025247b4ee69a29d023300249511b0fc7b1048037b1540037b163803951550038411f0380714010249210802492100024921f8017b17f0014921280249212002492110020495173002951810029519f0014921180233007e01283e6783888202aa87d80152478f66a3ea3a0250102653840051471657dc19270252478244512924023300289511a0fd7b1058027b1550027b164802951560028411e049213802492130024921280249212002831720020a1028332f4921b8024921b0024921a8024921a0028317a0020a10018217b0028218b8028219a802821aa002d49808d4a707d487075207f10180674921d8004921d0004921c8007b17c0004921f8004921f0004921e00004951700019518e0009519c0004921e80050102a518500821700017b1738821708017b1730821710017b1728821718017b1720821720017b17188210280182163001821438018213400182124801821c5001821b5801821a60018219680182187001821778017b17587b18507b19487b1a407b1b787b1c707b12687b13607b1498007b1690007b1088008217187b1780008217207b17b8008217287b17b0008217307b17a8009517a00095188000951960951a40821b387b1ba00050102c9bcd0133002e951140fd7b10b8027b15b0027b16a8029515c0028411e049217802492170024921680249216002831760020a10286b185010300d47330032951160ff7b1098007b1590007b1688009515a0008411e04911384911304911284911208317200a1028c459501034d36e501036ff62330038951160ff7b1098007b1590007b1688009515a0008411e04911384911304911284911208317200a1028387e33003a951120fd7b10d8027b15d0027b16c8029515e0028411e049219802492190024921880249218002831780020a10286e3d50103c272481680151081633003e9511f87b103307330833008e002844f533075010403ff58378330733090a0d8377330040282df583773300402825f5330733085010421ef5837833070133093300440a0d019511f07b10087b156475330740330820501046fcf47c78017c797c7a027c7b03978808d4980897aa1097bb18d4ba0ad4a8087c79057c7a047c7b067c7c07979908d4a90997bb1097cc18d4cb0bd4b909979920d489027c79097c7a087c7b0a7c7c0b979908d4a90997bb1097cc18d4cb0bd4b9097c7a0d7c7b0c7c7c0e7c780f97aa08d4ba0a97cc10978818d4c808d4a808978820d498037c78117c7a107c7b127c7c13978808d4a80897bb1097cc18d4cb0bd4b8087c7a157c7b147c7c167c791797aa08d4ba0a97cc10979918d4c909d4a909979920d4890a7c78197c79187c7b1a7c7c1b978808d4980897bb1097cc18d4cb0bd4b8087c791d7c7b1c7c7c1e7c771f979908d4b90997cc10977718d4c707d49707977720d487076f776fa86f396f2a7b5a187b59107b58087b57821008821595111032009511a0fe7b1058017b1550017b164801951560018411e07b17088297187b17b0008297107b17a8008297087b17a00082977b17b800828b18828a1082890882877b1b187b1b18017b1a207b1a10017b19687b1908017b17707b17000149213801492130014921280149212001482140012083180001831a2001831b40013309ff33070a0701821230018213280182143801821c200197273f983801d4870797483f982901d4980897393f98ca01d49a0b9849017b1c7884cc019aca84b07fd2a808d27a06dac00bd2a9097b1b5888b7207b164894677b18507b1940d49808948788c801ab7830067b1c98007b10107b1380007b1288007b1490008217b8008219a800d497078218b000821aa000d4a808d48707987720d49808978820d487075207f3058216b8008367330820501048a7f28218406f888219586f99989a38787a1f989a30787a1e989a28787a1d989a20787a1c989a18787a1b989a10787a1a989a08787a19821a486faa78791898a93878791798a93078791698a92878791598a92078791498a91878791398a9107879128219506f99787a1098aa08787a11787908989a38787a0f989a30787a0e989a28787a0d989a20787a0c989a18787a0b989a10787a0a98990878790978789889387879079889307879069889287879059889207879049889187879039889107879029888087878019567207b1760d86707821aa000c87a087b1828d8a808da77088217a800c878087b1830d878078218b000c887077b173882179800520711018217b0008218a800d487071408e0ffffff000000008219b800d8890894a894785108c204821778847600ff81176033082050104a72f1330233034921b0006f6a98ab30787b1e98ab28787b1d98ab20787b1c98ab18787b1b98ab10787b1a821880006f8b787a1898aa08787a1998ba38787a1798ba30787a1698ba28787a1598ba20787a1498ba18787a1398ba10787a12821888006f8a787b1098bb08787b1198ab38787b0f98ab30787b0e98ab28787b0d98ab20787b0c98ab18787b0b98ab10787b0a821890006f8b46171f787a0898aa08787a09787b98ba38787a0798ba30787a0698ba28787a0598ba20787a0498ba18787a0398ba10787a0298bb08787b018217108e77977005287a03330820330750104c91f08218186f888219206f99821a686faa821b706fbb98bc38787c1f98bc30787c1e98bc28787c1d98bc20787c1c98bc18787c1b98bc10787c1a98bc08787c19787b18787a1098ab38787b1798ab30787b1698ab28787b1598ab20787b1498ab18787b1398ab10787b1298aa08787a11787908989a38787a0f989a30787a0e989a28787a0d989a20787a0c989a18787a0b989a10787a0a9899087879097878988938787907988930787906988928787905988920787904988918787903988910787902988808787801330820330750104ec0ef8377831920013308200a08018217788877028218800094878218900082198800d4980894875107103300330233034921b000286a024921a8004921a00033064921b000821720018218280182193001821a38016f776f8c6f986fa4831a00017b1a20831a20017b1a18831a40017b1a10017b1c88007b1c10017b18b8007b1808017b1490007b1400017b1798007b1718014921380149213001492128014921200148214001203309ff3307821820821a18821b100a07018217608218a800c88707d88708821928821ba000c8b909c88909d3b90ad8b90bdaa80b821830c868087b168000d8680a821c388216b000c86c0cc8ca0ac88b0bd88b08c8a808d49808d4b709d48909d4b808989920978820d498085208e801821838017b1870821830017b1878821828017b186882162001837733082050105087ee6f6898893878791f98893078791e98892878791d98892078791c98891878791b98891078791a9889087879198219686f997878189898387878179898307878169898287878159898207878149898187878139898107878128218706f88821a786faa787910989908787911787a0898a93878790f98a93078790e98a92878790d98a92078790c98a91878790b98a91078790a98aa08787a097878988938787907988930787906988928787905988920787904988918787903988910787902988808787801821490009544018847018218b800c878087b18b8008217a800957020d870098217a000c89702d8720ada990a82178000c8a703d8730a821cb000c8ac0c821850d883077b17a800821958d8900b821948d39206d8920ada6b0a821940d39c077b1cb000d89c068219a800da7906d3830b8218b800d4b707d4840c88cc01821b8800c8bc0cd8bc0bdb760a82179800c8b7077b10a8007b12a0006436520ad9fd821a60c80a0ad80a07821b28c82b0bc87b0bd32b0cd82b08dac708821730c83707c87808d8780cd837078219388216b000c86909c89707c8c7078219087b9a7b9b087b98107b97189551a0fe821058018215500182164801951160013200004921f0004921e8004921e000140700000000717b484e9518e0007b17f800330750105250ed4921d8004921d0004921c000223307049518c0004921c80050105433ed330824330750105679ec83783307013309243300580a0d019511807b10787b15707b1668951580008411f08282828308828410828818829a829b08829c1082991864767b19187b1c107b1b087b1a7b18387b14307b132895174095182064197b122050105a49f8821750821858821940821a487b67107b68187b697b6a08955180821078821570821668951180003200951100ff7b10f8007b15f0007b16e800951500018411f082897b19208289087b19108289107b19088288187b187b171833074033082050105cb8eb7c78017c797c7a027c7b03978808d4980897aa1097bb18d4ba0ad4a8087c79057c7a047c7b067c7c07979908d4a90997bb1097cc18d4cb0bd4b909979920d489027c79097c7a087c7b0a7c7c0b979908d4a90997bb1097cc18d4cb0bd4b9097c7a0d7c7b0c7c7c0e7c760f97aa08d4ba0a97cc10976618d46c0cd4ca0a97aa20d4a9097c7a117c7b107c7c127c761397aa08d4ba0a97cc10976618d46c0cd4ca0a7c7b157c7c147c76167c781797bb08d4cb0b976610978818d46808d4b808978820d48a0a7c78197c7b187c7c1a7c761b978808d4b80897cc10976618d46c0cd4c8087c7b1d7c7c1c7c761e7c771f97bb08d4cb0b976610977718d46707d4b707977720d487076f7b7b1b386fa66f997b19306f287b182882177b17b8008217087b17b0008217107b17a8008217207b17a0007b1898007b1990007b1688009517c0009518a000951980007b1b800050105e91f66464821ac8008217d8007b1710821bc0008213d000d36a0cd86a08821938d89b06dac608c94a0ac96a0a7b1a08c99b0b95bc1fd8bc0bc8ba0a84cce0c84a07c8c9097b1920d8c90cc8c702d3a207d8a209da7c09821630c96307d8630c6463821028821610c90606c9c606d8870cc9c606c98707821808d88a08dabb08c87808d87807c8380ac89a0cd88a08d8ac09c80606c86707c88707c897068e678ec8db6708d46c078e29db780952093701643b821738821820d87807d34208d84209da8709d83c07d30608d8060ada870ad33c07d48707da790a520a0a013307403308207b14107b12087b1c50106076e96f6882196f99821a086faa821b206fbb787b1898bc38787c1f98bc30787c1e98bc28787c1d98bc20787c1c98bc18787c1b98bc10787c1a98bb08787b19787a1098ab38787b1798ab30787b1698ab28787b1598ab20787b1498ab18787b1398ab10787b1298aa08787a11787908989a38787a0f989a30787a0e989a28787a0d989a20787a0c989a18787a0b989a10787a0a98990878790978789889387879079889307879069889287879059889207879049889187879039889107879029888087878018217188218387b788218287b78188218107b78088218307b7810955100ff8210f8008215f0008216e800951100013200491170491168491160140700000000717b484e9518607b1778330750106213e949115849115049114041330704951840491148501064fbe8330824330750106641e883783307013309243300680a0d01951180fe7b1078017b1570017b166801951580018411e082897b1998008289087b1990008289107b1988008286187b1778330820330750106af8e76f68821988006f99821a90006faa821b98006fbb98bc38787c1f98bc30787c1e98bc28787c1d98bc20787c1c98bc18787c1b98bc10787c1a98bc08787c19787b1898ab38787b1798ab30787b1698ab28787b1598ab20787b1498ab18787b1398ab10787b1298ab08787b11787a10989a38787a0f989a30787a0e989a28787a0d989a20787a0c989a18787a0b989a10787a0a989a08787a09787908988938787907988930787906988928787905988920787904988918787903988910787902988908787901787833072033082050106c26e746171f46171e46171d46171c46171b46171a46171946171846171746171646171546171446171346171246171146171046170f46170e46170d46170c46170b46170a4617094617084617074617064617054617044617034617024617014607330840330750106ebde68377831940013308400a08821758018218500182194801821a40016f766f887b1898006f997b1988006fa77b1780007b1738017b1930017b1828017b1620017b16900049215801492150014921480149214001482160012083182001831a4001831b60013309ff33070a0795670188780182199800c89808d4870988990182168800c86909d8690a821b8000c8ba0a7b1a38017b193001821940017b19707b182801821848017b18687b172001801750017b176049215801492150014921480149214001482160012083182001831a4001831b60013309ff33070a07821740017b1758821748017b1750821750017b1748821758017b174082179000957902d87907821a9800c87a08d8a80ada770ac86a0ad86a0782168000c867077b17f8007b1af0007b18e800951700019518e0007b19e00050107096f9821700017b1738821708017b1730821710017b1728821718017b172082179000957903d87907821a9800c87a08d8a80ada770a82178800c87a0ad87a07c867077b17b8007b1ab0007b18a8009517c0009518a0007b19a00050107239f98217c0007b17188217c8007b17108217d0007b17088217d8007b1782189000958704d88708821a9800c88a09d8a90ada880a82188800c88a0ad88a08c868087b1838017b1a30017b1928017b17200149215801492150014921480149214001482160012083182001831a4001831b60013309ff33070a07801750018218480182194001821a787ba790007ba888007ba9800082177ba7788217087ba7708217107ba7688217187ba7608217207ba7588217287ba7508217307ba7488217387ba7408217407ba7388217487ba7308217507ba7288217587ba7208217607ba7108217687ba7088217707ba7492a9800491a18955180fe821078018215700182166801951180013200951160fe7b1098017b1590017b1688019515a0018411f082821882831082860882887b16b0007b12a000d426027b18b800d43806d426069866207b139800d43208978820d468087b174052083b0682578278107b18188278087b181082777b170882c7187b172082c7107b172882c7087b173082c77b173882b7187b174882b7107b175082b7087b175882b77b176082a7187b177082a7107b177882a7087b17800082971082a87b18688298087b18880082987b1890009777209876208117b8003308207b17a80050107453e36f68821988006f99821a90006faa98ab38787b1f98ab30787b1e98ab28787b1d98ab20787b1c98ab18787b1b98ab10787b1a98ab08787b19787a1878791046170b46170a4617094617074617064617054617044617034617024617014607989a38787a17989a30787a16989a28787a15989a20787a14989a18787a13989a10787a1298990878791178780898893878790f98893078790e98892878790d9888208219a000821b9800d49b0b140600000000010000001409e0ffffff00000000821ab800d89a09821ab00094a97b1b900094b978780c5109e3048217a8008377203308205010766be28218706f888219786f99821a80006faa821b686fbb98bc38787c1f98bc30787c1e98bc28787c1d98bc20787c1c98bc18787c1b98bc10787c1a98bc08787c19787b18787a1098ab38787b1798ab30787b1698ab28787b1598ab20787b1498ab18787b1398ab10787b1298aa08787a11787908989a38787a0f989a30787a0e989a28787a0d989a20787a0c989a18787a0b989a10787a0a98990878790978789889387879079889307879069889287879059889207879049889187879039889107879029888089569c0821ab800d89a09821ab00094a9821a900094a97878015109f2038217b8009578a0007b188800d878078218b000c878097b198000d88906da770682179800c87606d876078218a000c887077b17788217a80083774033082050107846e146171fa00046171e46171d46171c46171b46171a46171946171846171746171646171546171446171346171246171146171046170f46170e46170d46170c46170b46170a46170946170846170746170646170546170446170346170246170146078217787b1738017b163001821780007b172801821788007b1720018217487b1758018217507b1750018217587b174801951760019518400195192001821a607b1a400150107a6614140700000000010000007b1788001407a0ffffff000000008218b800d878078218b00094878218900094875107d70282196001821c6801821b78017b1b78821270018218b800d8890064946483821ab000d3ac08d8ac097b1c7064a7da80097b12800082169800c96208c9980a7b1a68d89808d86209821aa000c9ab0ac99a0ac98a0a7b1aa000c97c08c908077b179800c934077b176064468217a80083776033082050107cf5df8218a0006f888219686f99821a98006faa821b606fbb787b1898bc38787c1f98bc30787c1e98bc28787c1d98bc20787c1c98bc18787c1b98bc10787c1a98bb08787b19787a1098ab38787b1798ab30787b1698ab28787b1598ab20787b1498ab18787b1398ab10787b1298aa08787a11787908989a38787a0f989a30787a0e989a28787a0d989a20787a0c989a18787a0b989a10787a0a98990878790978789889387879079889307879069889287879059889207879049889187879039889107879029888087878018217787b17d800821780007b17d0008217707b17c8007b16c0008217207b17f8008217287b17f0008217307b17e800951700019518e0009519c000821a387b1ae00050107eae12821788009577808218b800d878078218b0009487821890009487510730011408ffffffff00000000821918017b19b000821910017b19b800821908017b19a000821900017b1998008219088499ff7b1990008219108497ff7b178800821618d286068217a800837780003308205020800073de6f68821988006f99821a90006faa787a1846170b46170a461709461707461706461705461704461703461702461701460798ab38787b1f98ab30787b1e98ab28787b1d98ab20787b1c98ab18787b1b98ab10787b1a98aa08787a19787910989a38787a17989a30787a16989a28787a15989a20787a14989a18787a13989a10787a1298990878791178780898893878790f98893078790e98892878790d98882078780c821740821898007b788218b0007b78188218a0007b78088218b8007b7810955160fe8210980182159001821688019511a001320000821770028218780282196802821a6002d49808d4a707d487075207470339071401025417233e03831780023308040a03821980028217880282189002821a98027b1ab8017b18b0017b17a8019517c0019518a0017b19a001502082000ff58217c0017b17b0008217c8017b17a8008217d0017b17a0008217d8017b1798008217e0017b1790008217e8017b1788008217f0017b1780008217f8017b1778821700027b1770821708027b1768821710027b1760821718027b1758821720027b1750821728027b1748821730027b1740821738027b1738821740027b1730821748027b1728821750027b1720821758027b1718330740330820502084009edc7c78017c797c7a027c7b03978808d4980897aa1097bb18d4ba0ad4a8087c79057c7a047c7b067c7c07979908d4a90997bb1097cc18d4cb0bd4b909979920d489027c79097c7a087c7b0a7c7c0b979908d4a90997bb1097cc18d4cb0bd4b9097c7a0d7c7b0c7c7c0e7c760f97aa08d4ba0a97cc10976618d46c0cd4ca0a97aa20d4a9097c7a117c7b107c7c127c761397aa08d4ba0a97cc10976618d46c0cd4ca0a7c7b157c7c147c76167c781797bb08d4cb0b976610978818d46808d4b808978820d48a0a7c78197c7b187c7c1a7c761b978808d4b80897cc10976618d46c0cd4c8087c7b1d7c7c1c7c761e7c771f97bb08d4cb0b976610977718d46707d4b707977720d487076f766faa7b1a086f987b18106f297b19b8009517c0007b178217187b17d8008217207b17d0008217287b17c8008217307b17c0008217387b17f8008217407b17f0008217487b17e8008217507b17e0008217587b1718018217607b1710018217687b1708018217707b1700018217787b173801821780007b173001821788007b172801821790007b172001821798007b1758018217a0007b1750018217a8007b1748018217b0007b1740017b1978017b1870017b1a6801951780019518600195194001951a2001951b0001951ce0007b16600150208600a3f6821b0864698217b800d4b707821610d46908d47808988820d46707977720d4870752076182178801821898017b18b0008213800182189001d3b704d8b70cd89300da400cc9680ac9ca04d8ca02d8680a8218b800821cb000c98c0cc9ac0cc92c0cc9b707c90707c99306d4c707d44608d47808d44707988820977720d4870751071800330733085020880031da837833070133090a0d0183978366646850208a001bda83783307646933008c000a0d01320083783307013309330090000a0d01951160ff7b1098007b1590007b1688009515a0008411e0828b829608828008829395ba1f7b1b58d8ba02c8200c7b1340d83a03d36c0a7b1648d86c0bdaa30b828410d80c0ada220a829218828318829610c84a0ad84a08c83808d32809d92808d86a0cda9c08d36a0ad4a909db980b510b19017b12287b16307b1738821758d447077b1318d43008d487079877207b1420d44808978820d487075207ed0064068118588317600a03018217788218708213687b1750d48707883a01947a510acb00821960821758957b20d87b07c876007b1b10c89b0b7b1958d89b02c8030cc82c0cd33c09d83c0ada920ad86009da7709821720c89704d87406821718c86707821648d36c09d8c60c821640d8b60bdb9c0bc84809d8890c8216507b1748c87606c86c0cc89a0ad89a09c8c909821628d3690cd89602821930d8a906dbc206d3a909d4c909db960b520b408219388217587b97208217107b977b93287b90087b98307b94108217507b97388217487b9718955160ff8210980082159000821688009511a00032000033073308502092006cd883783307013309330094000a0d01951160fe7b1098017b1590017b1688019515a0018411e08294088280088296828c829210d3040bd8040ad8c603dab30ac9040bc93b0b7b16707b1cb800c9c60c88cc800085cc018283108eb6dbb60c829b18828618c93208c9a809d8a8087b13a800d8320a7b1b687b16a000c96b0bc9ab0bc98b0b8fb88e9adbb80ad4b909db9a0c510c6d0264767b12787b1480008219a8008214b800d494078218a000d48008d48707987720d49808978820d487077b10b00052073a028348831760017b1898000a03018217a8008219a000d47909140700000000010000007b1788001407e0ffffff000000008218b800d878078218b00094877b19900094975107f301821778017b1758821770017b1748821768017b1760821760017b175082179800837820831760010a0301821788009577c08218b800d878078218b00094878218900094875107ab01821778017b1740821770017b1730821768017b178800821760017b173882179800837840831760010a03011407a0ffffff000000008218b800d878078218b000948782189000948751075f01821778017b1728821770017b1718821768017b179000821760017b172082179800837860831740010a0301821258018218500182194801d4280a889b0194ab510b1d01821a4001821bb800c8ab0bd8ab0a821cb000c89c0cc8ac0cd39c07d89c09da7a098217a800c88707c87909d8790ad887078218a000c88202c82707c87a0a8217707b17c000821780007b17c8007b1be0008217787b17d0008217687b17d8007b1ce8007b19f000951700019518e0009519c0007b1af8005020960013fc821208018213000182191801821a1001821b3001821c380182172001821828017b6b90007b6c98007b6780007b6888007b6a707b69787b63607b62688217187b67508217287b67588217207b6740821790007b67488217307b67308217407b67388217387b6720821788007b67288217487b67108217587b67188217507b678217607b6708955160fe8210980182159001821688019511a001320000330733085020980065d58378330701330933009a000a0d01828918828a10828b0882887b79187b7a107b7b087b7832008217f0018218f8018219e801821ae001d49808d4a707d4870752075b0238071401024921180149211001492108017b170001492138014921300149212001049517400195182001951900014921280150209c0092fc821740017b1758821748017b1750821750017b1748821758017b1740821760017b1738821768017b1730821770017b1728821778017b1720821780017b17188210880182169001821498018213a0018212a801821cb001821bb801821ac0018219c8018218d0018217d8017b17787b18707b19687b1a607b1b98007b1c90007b1288007b1380007b14b8007b16b0007b10a8008217187b17a0008217207b17d8008217287b17d0008217307b17c8008217387b17c0008217407b17f8008217487b17f0008217507b17e8009517e0009518c0009519a000951a8000951b60821c587b1ce00050209e004a6d3307403308205020a000f3d37c78117c79107c7a127c7b13978808d4980897aa1097bb18d4ba0ad4a8087c79157c7a147c7b167c7c17979908d4a90997bb1097cc18d4cb0bd4b909979920d489027c79017c7a7c7b027c7c03979908d4a90997bb1097cc18d4cb0bd4b9097c7a057c7b047c7c067c760797aa08d4ba0a97cc10976618d46c0cd4ca0a97aa20d4a9097c7a197c7b187c7c1a7c761b97aa08d4ba0a97cc10976618d46c0cd4ca0a7c7b1d7c7c1c7c761e7c781f97bb08d4cb0b976610978818d46808d4b808978820d48a0a7c78097c7b087c7c0a7c760b978808d4b80897cc10976618d46c0cd4c8087c7b0d7c7c0c7c760e7c770f97bb08d4cb0b976610977718d46707d4b707977720d487076f786fa76f996f2ad4a909d4870ad49a0a98aa20d49808978820d4a80851082000330733085020a200c1d2837833070133090a0d83773300a40028acd283775020a400a7d28378330733093300a6000a0d019511807b10787b15707b1668951580008411e0828010828c08829a088283829b7b1b28829410d3ca02d8ca06d83b0b7b1b20da2b068282188298187b1818c90409c969087b1830d86908d8040b7b1238821918c92909c9b909c98909c9ca08821a20c9a808821a28c93a0a8e8b88aa4085aa01db8b0a8f968218308e8bdb960bd49808db8b0a510abe006476d403077b1c30821838d4c808d487079877207b1028d40808978820d487075207990083388317407b18187b13200a0301821728821838d487071408e0ffffff00000000821920d88908821930949894785108678217587b17208217507b17288217487b17308217407b17388217188378208317400a03821758821850821948821a407b67387b68307b69287b6a208217207b67188217287b67108217307b67088217387b6795518082107882157082166895118000320000330733085020a8004cd1837833070133093300aa000a0d01951140ff7b10b8007b15b0007b16a8009515c0008411e04911784911704911684911608317600a1001821770821878821968821a60d49808d4a707d487075207ab013907140102541743a201831780003308040a03821780007b1718821788007b1710821790007b170882169800831780003308240a03821780008218880082199000821a98007b1a387b19307b18287b17207b16588217087b17508217107b17489517409518208219187b19405020ac00539e003307403308205020ae007dd07c78117c79107c7a127c7b13978808d4980897aa1097bb18d4ba0ad4a8087c79157c7a147c7b167c7c17979908d4a90997bb1097cc18d4cb0bd4b909979920d489027c79017c7a7c7b027c7c03979908d4a90997bb1097cc18d4cb0bd4b9097c7a057c7b047c7c067c760797aa08d4ba0a97cc10976618d46c0cd4ca0a97aa20d4a9097c7a197c7b187c7c1a7c761b97aa08d4ba0a97cc10976618d46c0cd4ca0a7c7b1d7c7c1c7c761e7c781f97bb08d4cb0b976610978818d46808d4b808978820d48a0a7c78097c7b087c7c0a7c760b978808d4b80897cc10976618d46c0cd4c8087c7b0d7c7c0c7c760e7c770f97bb08d4cb0b976610977718d46707d4b707977720d487076f786fa76f996f2ad4a909d4870ad49a0a98aa20d49808978820d4a80851082000330733085020b0004bcf837833070133090a0d83773300b2002836cf83775020b20031cf8378330733093300b4000a0d01951100fe7b10f8017b15f0017b16e801951500028411e0829608828408829c828a829210d3460bd84600d8ac03dab3007b1678c9460bc93b0b7b1c687b1a9800c9ac0c88cc4085cc018283108eb6dbb60c829b18828618c93208c90809d808007b1270d8320a64687b1b60c96b0bc9ab0bc90b0b8fb68e9adbb60ad4b909db9a0c510c4e02647682199800d439077b1490007b188000d48408d487079877207b138800d43808978820d487075207220283988317a0017b18580a03018212b8018218b0018219a801d4280a889b0194ab510bff01821aa001821b9800c8ab0bd8ab0a821c9000c89c0cc8ac0cd39c07d89c09da7a0982178800c88707c87909d8790ad8870782188000c88202c82707c87a0a8217687b1720018217787b1728017b1b40018217707b1730018217607b1738017b1c48017b1950019517600195184001951920017b1a58015020b600dcf38217880082188000d487071408e0ffffff0000000082199800d88908821990009498947851085a01821798017b1738821790017b1718821788017b1740821780017b1720821778017b1748821770017b1728821768017b1750821760017b17308217588378208317c0010a03018212d8018218d0018219c801d4280a889b0194ab510bfe00821ac001821b9800c8ab0bd8ab0a821c9000c89c0cc8ac0cd39c07d89c09da7a0982178800c88707c87909d8790ad8870782188000c88202c82707c87a0a8217687b17a0008217787b17a8007b1bc0008217707b17b0008217607b17b8007b1cc8007b19d0009517e0009518c0009519a0007b1ad8005020b800dbf28212e8008213e0008219f800821af000821b1001821c180182170001821808017b6b707b6c787b67607b68687b6a507b69587b63407b62488217187b67308217387b67388217207b67208217407b67288217287b67108217487b67188217307b678217507b6708955100fe8210f8018215f0018216e80195110002320000330733085020ba004bcc837833070133093300bc000a0d019511887b10707b15687b1660828c10828618828b088285d46b08d4c50ad48a0a98aa20d4c808978820d4a8085208f7037b16287b1c307b1b407b178297187b17588296108297087b175082977b17487b152083573308207b17085020be00ddcb821248d46208821958821a50d4a909d498089888207b1638d46909979920d498085208a2037c78197c79187c7a1a7c7b1b978808d4980897aa1097bb18d4ba0ad4a8087c791d7c7a1c7c7b1e7c7c1f979908d4a90997bb1097cc18d4cb0bd4b909979920d498087b18187c78117c79107c7a127c7b13978808d4980897aa1097bb18d4ba0ad4a8087c79157c7a147c7b167c7c17979908d4a90997bb1097cc18d4cb0bd4b909979920d498087b18107c78097c79087c7a0a7c7b0b978808d4980897aa1097bb18d4ba0ad4a8087c790d7c7a0c7c7b0e7c7c0f979908d4a90997bb1097cc18d4cb0bd4b909979920d489067c78017c797c7a027c7b03978808d4980897aa1097bb18d4ba0ad4a8087c79057c7a047c7b067c7707979908d4a90997bb10977718d4b707d49707977720d4870583273308205020c000a0ca646b82191082161882124898b83878780f98b83078780e98b82878780d98b82078780c98b81878780b98b81078780a98b80878780998583878780798583078780698582878780598582078780498581878780398581078780298580878780198983878781798983078781698982878781598982078781498981878781398981078781298980878781198683878781f98683078781e98682878781d98682078781c98681878781b98681078781a986808787819821058821438d404031408e0ffffff00000000d8820a821c5094ca943a787910787b087875787618510aab01821730821a28d4a707821a20d88a08821a4094a89478510891016f586fba6f9b6f65d4a5077b18307b1b20d4b808d487079877207b1a28d4a808978820d4870752076701952a207b1a40d82a07c87c087b1848d8c808da7708c848087b1850d84807c807077b175883a78218088388207b1838835664685020c20044c97b1718821738646864565020c40034c9647882171864595020c60067c9821740c85707d85708821b20821948c8b909c88909d3b90ad8b90bdaa80b821c28821850c8c808c88b0bd88b0ad8c808821c30821558c85c0cc8c808c8a808d4b70ad49808d48a0a98aa20d4b808978820d4a8085208b90083773308205020c800c4c846171f46171e46171d46171c46171b46171a46171946171846171746171646171546171446171346171246171146171046170f46170e46170d46170c46170b46170a461709461708461707461706461705461704461703461702461701460795671f1408e0ffffff01000000d28707821840c87808d87807821948c879099497821a50c8a707d8a70a821b58c8ba0a821b7bb87bb9087bb7107bba18821070821568821660951178320000821730028218380282192802821a2002d49808d4a707d487075207820338071401024921780149217001492168017b176001492198014921900149218001049517a0019518800195196001492188015020ca00a6f88217a0017b17588217a8017b17508217b0017b17488217b8017b17408217c0017b17388210c8018216d0018214d8018213e0018212e801821cf001821bf801821a00028219080282181002821718027b17d8007b18d0007b19c8007b1ac0007b1bf8007b1cf0007b12e8007b13e0007b1418017b1610017b1008018217387b1700018217407b1738018217487b1730018217507b172801951740019518200195190001951ae000951bc000821c587b1c20015020cc00aeac00821758017b1740821750017b1748821748017b1750821740017b17583307403308205020ce00e3c67c78117c79107c7a127c7b13978808d4980897aa1097bb18d4ba0ad4a8087c79157c7a147c7b167c7c17979908d4a90997bb1097cc18d4cb0bd4b909979920d489027c79017c7a7c7b027c7c03979908d4a90997bb1097cc18d4cb0bd4b9097c7a057c7b047c7c067c760797aa08d4ba0a97cc10976618d46c0cd4ca0a97aa20d4a9097c7a197c7b187c7c1a7c761b97aa08d4ba0a97cc10976618d46c0cd4ca0a7c7b1d7c7c1c7c761e7c781f97bb08d4cb0b976610978818d46808d4b808978820d48a0a7c78097c7b087c7c0a7c760b978808d4b80897cc10976618d46c0cd4c8087c7b0d7c7c0c7c760e7c770f97bb08d4cb0b976610977718d46707d4b707977720d487076f766faa6f9b6f29d4b907d46a08d47808988820d46707977720d487075207400195a7207b1718d8a707c879087b1808d89808da7708c868087b1810d86807c8b7077b172083a73308207b177b1a307b19287b1b385020d00081c546171f2046171e46171d46171c46171b46171a46171946171846171746171646171546171446171346171246171146171046170f46170e46170d46170c46170b46170a46170946170846170746170646170546170446170346170246170146078217087b17688217187b17608217407b1798008217487b1790008217507b1788008217587b1780008217107b17709517a00095188000951960821a207b1a785020d200a5f88217a8008212b8008213a000821ab000821828d3870bd8870c6484821930d89308dab80cc96a0bd86a0a821638c96206c9a606d8cb0ac9a606c9cb0bc94707c98708c99307d46808d4b709d48909d4b808989920978820d4980851081800330733085020d40074c4837833070133090a0d018376821764685020d6005ec48378330764693300d8000a0d019511807b10787b15707b1668951580008411e0828a7b1a30828a087b1a28828a107b1a208288187b181882987b18108298087b18088298107b188296187b173833082033075020da0006c46f6882196f99821a086faa821b106fbb98bc38787c1f98bc30787c1e98bc28787c1d98bc20787c1c98bc18787c1b98bc10787c1a98bc08787c19787b1898ab38787b1798ab30787b1698ab28787b1598ab20787b1498ab18787b1398ab10787b1298ab08787b11787a10989a38787a0f989a30787a0e989a28787a0d989a20787a0c989a18787a0b989a10787a0a989a08787a0978790898893878790798893078790698892878790598892078790498891878790398891078790298890878790178783307203308205020dc0037c38218186f888219206f99821a286faa821b306fbb98bc38787c1f98bc30787c1e98bc28787c1d98bc20787c1c98bc18787c1b98bc10787c1a98bc08787c19787b1898ab38787b1798ab30787b1698ab28787b1598ab20787b1498ab18787b1398ab10787b1298ab08787b11787a10989a38787a0f989a30787a0e989a28787a0d989a20787a0c989a18787a0b989a10787a0a989a08787a09787908988938787907988930787906988928787905988920787904988918787903988910787902988908787901787833084033075020de0065c283778319403308400a08821758821850821948821a406f776f886f996faa821b387bba187bb9107bb8087bb79551808210788215708216689511800032006f688219406f99821a486faa821b586fbb98bc38787c1f98bc30787c1e98bc28787c1d98bc20787c1c98bc18787c1b98bc10787c1a98bc08787c19787b1898ab38787b1798ab30787b1698ab28787b1598ab20787b1498ab18787b1398ab10787b1298ab08787b11787a10989a38787a0f989a30787a0e989a28787a0d989a20787a0c989a18787a0b989a10787a0a989a08787a0978790898893878790798893078790698892878790598892078790498891878790398891078790298890878790178783307203308205020e20057c146171f0346171e46171d46171c46171b46171a46171946171846171746171646171546171446171346171246171146171046170f46170e46170d46170c46170b46170a461709461708461707461706461705461704461703461702461701460733084033075020e400ecc083778319a0003308400a088217a0007b17588217a8007b17488217b0007b17408216b80033082033075020e600bdc08218606f888219686f99821a706faa821b786fbb98bc38787c1f98bc30787c1e98bc28787c1d98bc20787c1c98bc18787c1b98bc10787c1a98bc08787c19787b1898ab38787b1798ab30787b1698ab28787b1598ab20787b1498ab18787b1398ab10787b1298ab08787b11787a10989a38787a0f989a30787a0e989a28787a0d989a20787a0c989a18787a0b989a10787a0a989a08787a0978790898893878790798893078790698892878790598892078790498891878790398891078790298890878790178783307203308205020e800eabf98683878781f98683078781e98682878781d98682078781c98681878781b98681078781a98680878781978761882194098983878781798983078781698982878781598982078781498981878781398981078781298980878781178791082194898983878780f98983078780e98982878780d98982078780c98981878780b98981078780a989808787809787908821958989838787807989830787806989828787805989820787804989818787803989810787802989808787801787933084033075020ea0023bf83778319a0003308400a088217b8008218b0008219a800821aa0006f766f887b18706f997b19586fa77b17787b1798007b1990007b1888007b1680007b16604921b8004921b0004921a8004921a0004821c0002083188000831aa000831bc0003309ff33070a07956701887801821970c89808d48709889901821a58c8a909d8a90a821b78c8ba0a7b1a98007b1990008219a0007b19487b1888008218a8007b18407b1780008017b0007b17384921b8004921b0004921a8004921a0004821c0002083188000831aa000831bc0003309ff33070a078217a0007b17308217a8007b17288217b0007b17208217b8007b1718821760957802d8780764897b1868821870c8780a7b1a60d88a06da7706821758c87606d87607821878c887077b17787b1798007b1690007b1a88007b1980004921b8004921b0004921a8004921a0004821c0002083188000831aa000831bc0003309ff33070a077c17a0007b17708217787b1798007b1690008217607b1788008217687b1780004921b8004921b0004921a8004921a0004821c0002083188000831aa000831bc0003309ff33070a077c17a1007b17588217787b1798007b1690008217607b1788008217687b1780004921b8004921b0004921a8004921a0004821c0002083188000831aa000831bc0003309ff33070a077c17a2008218504928980049289000492888007b8780004918784918704918688217587b87604918584918504918488217707b87408217187b87388217207b87308217287b87288217307b87204918188217387b87108217407b87088217487b87955120ff8210d8008215d0008216c8009511e0003200951130ff7b10c8007b15c0007b16b80082851082821882860882887b16a8007b128800d426027b18b000d45806d426069866207b159000d45208978820d468087b1740520886048217d0008278187b18188278107b18088278087b181082777b1782c7187b173882c7107b172882c7087b173082c77b172082b7187b176082b7107b175082b7087b175882b77b174882a7187b177082a7107b177882a7087b17800082971082a87b18688298087b18980082969777209875208117b0003308207b17a0005020ec00fabb6f58821998006f996f6a98ab38787b1f98ab30787b1e98ab28787b1d98ab20787b1c98ab18787b1b98ab10787b1a98ab08787b19787a1878791046170b46170a4617094617074617064617054617044617034617024617014607989a38787a17989a30787a16989a28787a15989a20787a14989a18787a13989a10787a1298990878791178780898893878790f98893078790e98892878790d98882082199000821b8800d49b0b140500000000010000001409e0ffffff00000000821ab000d89a09821aa80094a97b1b980094b978780c51092e038217a0008377203308205020ee0015bb8218706f888219786f99821a80006faa821b686fbb98bc38787c1f98bc30787c1e98bc28787c1d98bc20787c1c98bc18787c1b98bc10787c1a98bc08787c19787b18787a1098ab38787b1798ab30787b1698ab28787b1598ab20787b1498ab18787b1398ab10787b1298aa08787a11787908989a38787a0f989a30787a0e989a28787a0d989a20787a0c989a18787a0b989a10787a0a98990878790978789889387879079889307879069889287879059889207879049889187879039889107879029888089559c0821ab000d89a09821aa80094a9821a980094a978780151093c02821750821848d48707821860821958d49808d487078e758217a0008377403308205020f0000cba46171e46171d46171c46171b46171a46171946171846171746171646171546171446171346171246171146171046170f46170e46170d46170c46170b46170a46170946170846170746170646170546170446170346170246170178751f140500000000010000001408a0ffffff000000008219b000d889088219a8009498821998009498460751088b01821728821820d48707821838821930d49808d487078e768217a0008377603308205020f2005bb946171e46171d46171c46171b46171a46171946171846171746171646171546171446171346171246171146171046170f46170e46170d46170c46170b46170a46170946170846170746170646170546170446170346170246170146079558808219b000d889088219a800949882199800949878761f5108eb008217b0009578a0007b189800d878078218a800c87806d88605da770582179000c87505d8750782188800c887077b17b0008217088218d48707821818821910d49808d487078e777b17a8008217a000837780003308205020f40086b846171e46171d46171c46171b46171a46171946171846171746171646171546171446171346171246171146171046170f46170e46170d46170c46170b46170a46170946170846170746170646170546170446170346170246170146078218a80078781f821740821898007b788218b0007b78187b76087b75108210c8008215c0008216b8009511d000320000821790028218980282198802821a8002d49808d4a707d487075207db033907140102541743d2038317a0023308040a038217a0027b17b8008217a8027b17b0008217b0027b17a8008216b8028317a0023308240a038217a0028218a8028219b002821ab8027b1ab8017b19b0017b18a8017b17a0017b16d8018217a8007b17d0018217b0007b17c8019517e0019518c0019519a001821ab8007b1ac0013300f600951120ff7b10d8007b15d0007b16c8009515e0008411e0829a7b1a78829a087b1a70829a107b1a688299187b196082897b19588289087b19488289107b19408286187b175033082033073300e0002805b78217e0017b17b0008217e8017b17a8008217f0017b17a0008217f8017b179800821700027b179000821708027b178800821710027b178000821718027b1778821720027b1770821728027b1768821730027b1760821738027b1758821740027b1750821748027b1748821750027b1740821758027b1738821760027b1730821768027b1728821770027b1720821778027b17183307403308205020f80069b67c78017c797c7a027c7b03978808d4980897aa1097bb18d4ba0ad4a8087c79057c7a047c7b067c7c07979908d4a90997bb1097cc18d4cb0bd4b909979920d489027c79097c7a087c7b0a7c7c0b979908d4a90997bb1097cc18d4cb0bd4b9097c7a0d7c7b0c7c7c0e7c760f97aa08d4ba0a97cc10976618d46c0cd4ca0a97aa20d4a9097c7a117c7b107c7c127c761397aa08d4ba0a97cc10976618d46c0cd4ca0a7c7b157c7c147c76167c781797bb08d4cb0b976610978818d46808d4b808978820d48a0a7c78197c7b187c7c1a7c761b978808d4b80897cc10976618d46c0cd4c8087c7b1d7c7c1c7c761e7c771f97bb08d4cb0b976610977718d46707d4b707977720d487076f766faa7b1a086f987b18106f297b19b8009517c0007b178217187b17d8008217207b17d0008217287b17c8008217307b17c0008217387b17f8008217407b17f0008217487b17e8008217507b17e0008217587b1718018217607b1710018217687b1708018217707b1700018217787b173801821780007b173001821788007b172801821790007b172001821798007b1758018217a0007b1750018217a8007b1748018217b0007b1740017b1978017b1870017b1a6801951780019518600195194001951a2001951b0001951ce0007b1660015020fa00cbf7821b0864698217b800d4b707821610d46908d47808988820d46707977720d4870752076182178801821898017b18b0008213800182189001d3b704d8b70cd89300da400cc9680ac9ca04d8ca02d8680a8218b800821cb000c98c0cc9ac0cc92c0cc9b707c90707c99306d4c707d44608d47808d44707988820977720d4870751071800330733085020fc00fcb3837833070133090a0d018397836664685020fe00e6b3837833076469330000010a0d0182781082771814090000000001000000d38909d479099888208888019478939851080532009511f87b10330750200201a7b383783307013309330004010a0d019511c07b10387b15307b16289515408411e0828910828a18828b088288d4ba0ad4980bd4ab0b98bb20d4a909979920d4b9095209506476838883170a030182171082181814090000000001000000d37909d48909987a2088aa01948a939a510a258219821a087b697b6a087b67107b68189551c082103882153082162895114032000033073308502006010cb383783307013309330008010a0d019511c0fd7b1038027b1530027b162802951540028411e0829608828208829c8283829410d3260bd8260ad83c00dab00a7b169000c9260bc90b0b7b1c8000c93c0c88cc800085cc018280108eb6dbb60c829b18828618c90408c9a809d8a8087b148800d8040a7b1b78c96b0bc9ab0bc98b0b8fb88e9adbb80ad4b909db9a0c510c710364646476d40307d44208d48707987720d40808978820d487077b12b8007b10a8007b14a000520747038338831700027b1898007b13b0000a03018217a8008218a000d478081407e0ffffff000000008219b000d879078219b80094977b1870948751070b03821718027b1768821710027b1760821708027b1750821700027b1758821798008378208317c0010a03018212d8018218d0018219c801d4280a889b0194ab510bca02821ac001821bb000c8ab0bd8ab0a821cb800c89c0cc8ac0cd39c07d89c09da7a098217a800c88707c87909d8790ad887078218a000c88202c82707c87a0a821780007b174001821790007b1748017b1b6001821788007b1750018217787b1758017b1c68017b1970019517800195186001951940017b1a780150200a015dd71407c0ffffff000000008218b000d878078218b8009487821870948751072a028217b8017b17488217b0017b17408217a8017b17388217a0017b1730821798017b1728821790017b1720821788017b1710821780017b1718821798008378408317e0010a03018212f8018218f0018219e801d4280a889b0194ab510bcd01821ae001821bb000c8ab0bd8ab0a821cb800c89c0cc8ac0cd39c07d89c09da7a098217a800c88707c87909d8790ad887078218a000c88202c82707c87a0a821780007b17c000821790007b17c8007b1be000821788007b17d0008217787b17d8007b1ce8007b19f000951700019518e0009519c0007b1af80050200c0160d6140700000000010000007b17a8001407a0ffffff000000008218b000d878078218b8009487821870948751071f01821738017b17b800821730017b17b000821728017b17a000821720017b179000821718017b178800821710017b178000821708017b1770821700017b177882179800837860831700020a030182181002821718028219a800d38909d47909988a2088aa01947a939a510ab40082190802821a00027b69a8007b6aa0008219707b69688219787b69608219107b69288219187b69208219507b69088219587b697b68b000821880007b68708218207b68308218607b68107b67b800821788007b67788217287b67388217687b6718821790007b6780008217307b67408217a0007b6788008217387b67488217b0007b6790008217407b67508217b8007b6798008217487b67589551c0fd821038028215300282162802951140023200003307330850200e0104af83783307013309330010010a0d01951180fd7b1078027b1570027b166802951580028411e049215802492150024921480249214002831740020a1001821750028218580282194802821a4002d49808d4a707d4870752079d0238071401024921580149215001492148017b1740014921780149217001492160010495178001951860019519400149216801502012017bfb821780017b1778821788017b1770821790017b1768821798017b17608217a0017b17588217a8017b17508217b0017b17488217b8017b17408217c0017b17388217c8017b17308217d0017b17288217d8017b17208217e0017b17188210e8018216f0018214f8018213000282120802821c1002821b1802821a20028219280282183002821738027b1798007b1890007b1988007b1a80007b1bb8007b1cb0007b12a8007b13a0007b14d8007b16d0007b10c8008217187b17c0008217207b17f8008217287b17f0008217307b17e8008217387b17e0008217407b1718018217487b1710018217507b1708018217587b1700018217607b1738018217687b1730018217707b17280195172001951800019519e000951ac000951ba000951c80008216787b162001502014013e9a00330740330820502016013aad7c78117c79107c7a127c7b13978808d4980897aa1097bb18d4ba0ad4a8087c79157c7a147c7b167c7c17979908d4a90997bb1097cc18d4cb0bd4b909979920d489027c79017c7a7c7b027c7c03979908d4a90997bb1097cc18d4cb0bd4b9097c7a057c7b047c7c067c760797aa08d4ba0a97cc10976618d46c0cd4ca0a97aa20d4a9097c7a197c7b187c7c1a7c761b97aa08d4ba0a97cc10976618d46c0cd4ca0a7c7b1d7c7c1c7c761e7c781f97bb08d4cb0b976610978818d46808d4b808978820d48a0a7c78097c7b087c7c0a7c760b978808d4b80897cc10976618d46c0cd4c8087c7b0d7c7c0c7c760e7c770f97bb08d4cb0b976610977718d46707d4b707977720d487076f786fa76f996f2ad4a909d4870ad49a0a98aa20d49808978820d4a80851082000330733085020180108ac837833070133090a0d837733001a0128f3ab837750201a01eeab83783307330933001c010a0d019511b07b10487b15409515508411f0491130491128491120140700000000717b484e9518207b1738330750201e0161ac4911184911104901323307046418491108502020014aac3308243307502022018fab8378330701330924330024010a0d019511a07b10587b15507b16489515608411e06476828718828910828a0882887b17187b19107b1a087b18491138491130491128491120481140208318831a20831b403309ff33070a07821738821830821928821a207b67187b68107b69087b6a9551a082105882155082164895116032009511e0fe7b1018017b1510017b160801951520018411e07b174082977b17488297087b17508297107b1758829618828b18828a1082890882877b1b187b1bb8007b1a207b1ab0007b19287b19a8007b17307b17a0004921f8004921f0004921e8004921e0004821c000208318a000831ae000831bc0003309ff33070a07018217f8008212e0008219f000821ae800d3670b7b1638d87608821758d8970cdbb80c821850d38a03d8a80a821848d82808db3a08d39707d4b707db7c0851086a0133082033075020260145aa8218186f888219206f99821a286faa821b306fbb98bc38787c1f98bc30787c1e98bc28787c1d98bc20787c1c98bc18787c1b98bc10787c1a98bc08787c19787b18787a1098ab38787b1798ab30787b1698ab28787b1598ab20787b1498ab18787b1398ab10787b1298aa08787a11787908989a38787a0f989a30787a0e989a28787a0d989a20787a0c989a18787a0b989a10787a0a989908787909787898893878790798893078790698892878790598892078790498891878790398891078790298880878780133082033075020280173a983778319e0003308200a088217e0008218e8008219f800821af0006f726f886f996faa821b50c8ab0b821c48c89c0cd89c09c89b0bd3ab06d8ab0ada690a821958c88909c89a0ad89a06821738c82707d88908c88707c867078218404918384918304918284918207b8c7b8b087b8a107b87189551e0fe821018018215100182160801951120013200492190004921880049218000140700000000717b484e951880007b179800330750202a0174a94911784911704911603233070495186049116850202c015ba9330824330750202e01a0a88378330701330924330030010a0d019511a07b10587b15507b16487b1782828293829708829a10828b188285108299188288088eb48e56dbb4068e80882c000185c401db8004d45b0bdbb60446114746114646114546114446114346114246114146114046113f46113e46113d46113c46113b46113a46113946113846113746113646113546113446113346113246113146113046112f46112e46112d46112c46112b46112a461129461128781920781a1878171078130898983878182798983078182698982878182598982078182498981878182398981078182298990878192198a83878181f98a83078181e98a82878181d98a82078181c98a81878181b98a81078181a98aa08781a1998783878181798783078181698782878181598782078181498781878181398781078181298770878171198373878170f98373078170e98372878170d98372078170c98371878170b98371078170a98370878170997273898773b951908c879097c97117c98107c9a127c9b13977708d4870797aa1097bb18d4ba0ad4a7077c98157c9a147c9b167c9c17978808d4a80897bb1097cc18d4cb0bd4b808978820d47800842a07d0a0087c97197c9b187c961a7c951b977708d4b707976610975518d46505d457077c9b1d7c961c7c951e7c9c1f97bb08d46b0b97551097cc18d45c0cd4cb0b97bb20d47b0297270185a33fcf370bd48b0b7c97097c98087c9c0a7c950b977708d4870797cc10975518d45c0cd4c7077c980d7c9c0c7c950e7c960f978808d4c808975510976618d46505d45808978820d47808d0a80797000185acffcfc00cd4c7007c97017c957c96027c9c03977708d4570797661097cc18d46c0cd4c7077c9c057c95047c96067c990797cc08d45c0c976610979918d46909d4c909979920d49707d0a707978801cf3808d48707d0a20894479440944b944882197b98187b9b107b90087b9782105882155082164895116032008213088212821718018218000182141001821a0801d3670bd87607821910d8490cdbb70cd32a07d8a20ad88308db7a08d39407d4b707db7c08510831037b136049219800492190004921880049218000017b12687b19709517a000951880009519607b16785020320166fa8217d8007b17108217d0007b17088216c8008217c0007b178217b8008218b0008219a800821aa0007b17f8007b18f0007b19e8007b1ae0004921180149211001492108014921000148212001208318e000831a0001831b20013309ff33070a078212000182190801821a1001821498473d976b03d47b0b98663d821808978703d4760698873d821c1097cc03d47c0c9747038eb888770001857301dbb8038ec88e67dbc807821b1801d46c0cdbc70346115f46115e46115d46115c46115b46115a46115946115846115746115646115546115446115346115246115146115046114f46114e46114d46114c46114b46114a461149461148461147461146461145461144461143461142461141461140781b38781a3078192878122098b73878173f98b73078173e98b72878173d98b72078173c98b71878173b98b71078173a98bb08781b3998a73878173798a73078173698a72878173598a72078173498a71878173398a71078173298aa08781a3198973878172f98973078172e98972878172d98972078172c98971878172b98971078172a98990878192998273878172798273078172698272878172598272078172498271878172398271078172298270878172184481f951720c878087c87197c89187c8a1a7c8b1b977708d4970797aa1097bb18d4ba0ad4a7077c891d7c8a1c7c8b1e7c8c1f979908d4a90997bb1097cc18d4cb0bd4b909979920d479027c87117c8a107c8b127c8c13977708d4a70797bb1097cc18d4cb0bd4b7077c8a157c8b147c8c167c861797aa08d4ba0a97cc10976618d46c0cd4ca0a97aa20d47a0a7c87097c8b087c8c0a7c860b977708d4b70797cc10976618d46c0cd4c7077c8b0d7c8c0c7c860e7c890f97bb08d4cb0b976610979918d46909d4b909979920d4790b7c87017c897c8c027c8603977708d4970797cc10976618d46c0cd4c7077c89057c8c047c86067c8807979908d4c909976610978818d46808d49808978820d487079437943b943a94328218187b82187b8a107b8b087b879551c0fe82103801821530018216280195114001320033075020340168a283783307013309330036010a0d019511a87b10507b15487b1640828a10828618828c088285d46c0bd4a508d4b808988820d4ab0b97bb20d4b8087b1738520831018297187b178297107b17088297087b171082977b17189557207b1730d85707c87c087b1828d8c808da7708c8a8087b1820d8a807c87606835733082050203801e5a182186f888219086f99821a106faa821b186fbb98bc38787c1f98bc30787c1e98bc28787c1d98bc20787c1c98bc18787c1b98bc10787c1a98bc08787c19787b18787a1098ab38787b1798ab30787b1698ab28787b1598ab20787b1498ab18787b1398ab10787b1298aa08787a11787908989a38787a0f989a30787a0e989a28787a0d989a20787a0c989a18787a0b989a10787a0a98990878790978789889387879079889307879069889287879059889207879049889187879039889107879029888087878018217388218307b788218287b78088218207b78107b7618821050821548821640951158320000821770821878821968821a60d49808d4a707d487075207f1013907140102541723e801831780003308040a03821980008217880082189000821a98007b1a387b18307b17289517409518207b192033003a019511c0fe7b1038017b1530017b162801951540018411e07b171882877b17088287087b178287107b17108286184921f8004921f0004921e8004921e000014921180149211001492108014921000148212001208318e000831a0001831b20013309ff33070a072867fa8217587b178217507b17088217487b17108217407b171833074033082050203c011ba07c78117c79107c7a127c7b13978808d4980897aa1097bb18d4ba0ad4a8087c79157c7a147c7b167c7c17979908d4a90997bb1097cc18d4cb0bd4b909979920d489027c79017c7a7c7b027c7c03979908d4a90997bb1097cc18d4cb0bd4b9097c7a057c7b047c7c067c760797aa08d4ba0a97cc10976618d46c0cd4ca0a97aa20d4a9097c7a197c7b187c7c1a7c761b97aa08d4ba0a97cc10976618d46c0cd4ca0a7c7b1d7c7c1c7c761e7c781f97bb08d4cb0b976610978818d46808d4b808978820d48a0a7c78097c7b087c7c0a7c760b978808d4b80897cc10976618d46c0cd4c8087c7b0d7c7c0c7c760e7c770f97bb08d4cb0b976610977718d46707d4b707977720d487076f786fa76f996f2ad4a909d4870ad49a0a98aa20d49808978820d4a808510818003307330850203e01e99e837833070133090a0d018376330820646750204001d29e82186f888219086f99821a106faa821b186fbb98bc38787c1f98bc30787c1e98bc28787c1d98bc20787c1c98bc18787c1b98bc10787c1a98bc08787c19787b18787a1098ab38787b1798ab30787b1698ab28787b1598ab20787b1498ab18787b1398ab10787b1298aa08787a11787908989a38787a0f989a30787a0e989a28787a0d989a20787a0c989a18787a0b989a10787a0a9899087879097878988938787907988930787906988928787905988920787904988918787903988910787902988808787801330820646750204201019e83783309203307330044010a0d019511807b10787b15707b1668951580008411e082897b19108289087b19088289107b198286187b1718330820330750204601bf9d6f6882196f99821a086faa821b106fbb98bc38787c1f98bc30787c1e98bc28787c1d98bc20787c1c98bc18787c1b98bc10787c1a98bc08787c19787b1898ab38787b1798ab30787b1698ab28787b1598ab20787b1498ab18787b1398ab10787b1298ab08787b11787a10989a38787a0f989a30787a0e989a28787a0d989a20787a0c989a18787a0b989a10787a0a989a08787a09787908988938787907988930787906988928787905988920787904988918787903988910787902988908787901787833072033082050204801f09c46171f0246171e46171d46171c46171b46171a46171946171846171746171646171546171446171346171246171146171046170f46170e46170d46170c46170b46170a4617094617084617074617064617054617044617034617024617014607330840330750204a01859c83778319403308400a08821758821850821948821a406f776f886f996faa7b1a387b19307b18287b172049115849115049114849114048116020831820831a40831b603309ff33070a07821758821850821948821a40821b187bb7187bb8107bb9087bba955180821078821570821668951180003200821730821838821928821a20d49808d4a707d48707520708033907140102541723ff028317603308040a038217607b17188217687b17108217707b1708821678330820330750204c01c49b6f688219086f99821a106faa821b186fbb98bc38787c1f98bc30787c1e98bc28787c1d98bc20787c1c98bc18787c1b98bc10787c1a98bc08787c19787b1898ab38787b1798ab30787b1698ab28787b1598ab20787b1498ab18787b1398ab10787b1298ab08787b11787a10989a38787a0f989a30787a0e989a28787a0d989a20787a0c989a18787a0b989a10787a0a989a08787a09787908988938787907988930787906988928787905988920787904988918787903988910787902988908787901787833072033082050204e01f49a46171f0246171e46171d46171c46171b46171a46171946171846171746171646171546171446171346171246171146171046170f46170e46170d46170c46170b46170a4617094617084617074617064617054617044617034617024617014607330840330750205001899a83778319603308400a08821778821870821968821a606f776f886f996faa7b1a587b19507b18487b17404911784911704911684911604821800020831840831a60831b80003309ff33070a078217787b178217707b17088217687b17108217607b1718330740330820502052011a9a7c78117c79107c7a127c7b13978808d4980897aa1097bb18d4ba0ad4a8087c79157c7a147c7b167c7c17979908d4a90997bb1097cc18d4cb0bd4b909979920d489027c79017c7a7c7b027c7c03979908d4a90997bb1097cc18d4cb0bd4b9097c7a057c7b047c7c067c760797aa08d4ba0a97cc10976618d46c0cd4ca0a97aa20d4a9097c7a197c7b187c7c1a7c761b97aa08d4ba0a97cc10976618d46c0cd4ca0a7c7b1d7c7c1c7c761e7c781f97bb08d4cb0b976610978818d46808d4b808978820d48a0a7c78097c7b087c7c0a7c760b978808d4b80897cc10976618d46c0cd4c8087c7b0d7c7c0c7c760e7c770f97bb08d4cb0b976610977718d46707d4b707977720d487076f786fa76f996f2ad4a909d4870ad49a0a98aa20d49808978820d4a808510818003307330850205401e898837833070133090a0d018376330820646750205601d19882186f888219086f99821a106faa821b186fbb98bc38787c1f98bc30787c1e98bc28787c1d98bc20787c1c98bc18787c1b98bc10787c1a98bc08787c19787b18787a1098ab38787b1798ab30787b1698ab28787b1598ab20787b1498ab18787b1398ab10787b1298aa08787a11787908989a38787a0f989a30787a0e989a28787a0d989a20787a0c989a18787a0b989a10787a0a989908787909787898893878790798893078790698892878790598892078790498891878790398891078790298880878780133082064675020580100988378330920330733005a010a0d01951160ff7b1098007b1590007b1688009515a0008411e0828210828c08829a088284829b7b1b40829010d3ca03d8ca06d84b0b7b1b38da3b068283188298187b1830c92009c969087b1848d869087b1258d8200b7b1350821930c93909c9b909c98909c9ca08821a38c9a808821a40c94a0a8e8b88aa6085aa01db8b0a8f968218488e8bdb960bd49808db8b0a510a29016476821958d494077b1c48821850d4c808d48707987720d49808978820d487075207040183488317607b18387b14400a0301821758821850d48709140700000000010000007b17501407e0ffffff00000000821840d8780782184894877b195894975107c2008217787b17188217707b17208217687b17288217607b17308217388378208317600a03018217509577c0821840d8780782184894878218589487510784008217787b17408217707b17488217687b17508217607b17588217388378408317600a03821778821870821968821a607b67587b68507b69487b6a408217407b67388217487b67308217507b67288217587b67208217187b67188217207b67108217287b67088217307b67955160ff8210980082159000821688009511a0003200003307330850205c0132968378330701330933005e010a0d019511e0fe7b1018017b1510017b160801951520018411e04921d8004921d0004921c8004921c0008317c0000a10018217d0008218d8008219c800821ac000d49808d4a707d4870752071002390714010254176307028317e0003308040a038217e0007b17388217e8007b17308217f0007b17288217f8007b17208317e0003308240a038217e0007b17188217e8007b17108217f0007b17088216f8008317e0003308440a038217e0008218e8008219f000821af8007b1a587b19507b18487b17407b16788217087b17708217107b17688217187b17608217207b1798008217287b1790008217307b1788009517a00095188000951960951a40821b387b1b800050206001e4b3018217b8007b17208217b0007b17288217a8007b17308217a0007b173833074033082050206201f5947c78117c79107c7a127c7b13978808d4980897aa1097bb18d4ba0ad4a8087c79157c7a147c7b167c7c17979908d4a90997bb1097cc18d4cb0bd4b909979920d489027c79017c7a7c7b027c7c03979908d4a90997bb1097cc18d4cb0bd4b9097c7a057c7b047c7c067c760797aa08d4ba0a97cc10976618d46c0cd4ca0a97aa20d4a9097c7a197c7b187c7c1a7c761b97aa08d4ba0a97cc10976618d46c0cd4ca0a7c7b1d7c7c1c7c761e7c781f97bb08d4cb0b976610978818d46808d4b808978820d48a0a7c78097c7b087c7c0a7c760b978808d4b80897cc10976618d46c0cd4c8087c7b0d7c7c0c7c760e7c770f97bb08d4cb0b976610977718d46707d4b707977720d487076f786fa76f996f2ad4a909d4870ad49a0a98aa20d49808978820d4a808510818003307330850206401c393837833070133090a0d018376330820646750206601ac938218206f888219286f99821a306faa821b386fbb98bc38787c1f98bc30787c1e98bc28787c1d98bc20787c1c98bc18787c1b98bc10787c1a98bc08787c19787b18787a1098ab38787b1798ab30787b1698ab28787b1598ab20787b1498ab18787b1398ab10787b1298aa08787a11787908989a38787a0f989a30787a0e989a28787a0d989a20787a0c989a18787a0b989a10787a0a9899087879097878988938787907988930787906988928787905988920787904988918787903988910787902988808787801330820646750206801da928378330920330733006a010a0d01951140ff7b10b8007b15b0007b16a8009515c0008411e04911784911704911684911608317600a1001821770821878821968821a60d49808d4a707d487075207f6013907140102541743ed01831780003308040a03821780007b1718821788007b1710821790007b170882169800831780003308240a03821780008218880082199000821a98007b1a387b19307b18287b17207b16588217087b17508217107b17489517409518208219187b194033006c019511e0fd7b1018027b1510027b160802951520028411e082897b19788289087b19708289107b19688288187b186082787b18588278087b18508278107b184882761833082033073300740328c99133074033082050206e01c0917c78117c79107c7a127c7b13978808d4980897aa1097bb18d4ba0ad4a8087c79157c7a147c7b167c7c17979908d4a90997bb1097cc18d4cb0bd4b909979920d489027c79017c7a7c7b027c7c03979908d4a90997bb1097cc18d4cb0bd4b9097c7a057c7b047c7c067c760797aa08d4ba0a97cc10976618d46c0cd4ca0a97aa20d4a9097c7a197c7b187c7c1a7c761b97aa08d4ba0a97cc10976618d46c0cd4ca0a7c7b1d7c7c1c7c761e7c781f97bb08d4cb0b976610978818d46808d4b808978820d48a0a7c78097c7b087c7c0a7c760b978808d4b80897cc10976618d46c0cd4c8087c7b0d7c7c0c7c760e7c770f97bb08d4cb0b976610977718d46707d4b707977720d487076f786fa76f996f2ad4a909d4870ad49a0a98aa20d49808978820d4a8085108200033073308502070018e90837833070133090a0d8377330072012879908377502072017490837833073309330074010a0d019511c0fc7b1038037b1530037b162803951540038411e0829608828408829c828a829210d3460bd84600d8ac03dab3007b16f000c9460bc93b0b7b1ce0007b1a1801c9ac0c88cca00085cc018283108eb6dbb60c829b18828618c93208c90809d808007b12e800d8320a64687b1bd800c96b0bc9ab0bc90b0b8fb68e9adbb60ad4b909db9a0c510ca904647682191801d439077b1410017b180001d48408d487079877207b130801d43808978820d4870752077d0483988317a0027b18f8000a03018212b8028218b0028219a802d4280a889b0194ab510b5904821aa002821b1801c8ab0bd8ab0a821c1001c89c0cc8ac0cd39c07d89c09da7a0982170801c88707c87909d8790ad8870782180001c88202c82707c87a0a8217e0007b1720028217f0007b1728027b1b40028217e8007b1730028217d8007b1738027b1c48027b1950029517600295184002951920027b1a58025020760115b58217080182190001d47909140700000000010000007b17c8001407e0ffffff0000000082181801d878078218100194877b19d000949751079e03821798027b17a800821790027b178800821788027b17b000821780027b179000821778027b17b800821770027b179800821768027b17c000821760027b17a0008217f800837820831700030a03018217c8009577c082181801d878078218100194878218d000948751073203821718037b1778821710037b1768821708037b178000821700037b17708217f8008378408317c0020a03018212d8028218d0028219c802d4280a889b0194ab510bf002821ac002821b1801c8ab0bd8ab0a821c1001c89c0cc8ac0cd39c07d89c09da7a0982170801c88707c87909d8790ad8870782180001c88202c82707c87a0a8217e0007b17a0018217f0007b17a8017b1bc0018217e8007b17b0018217d8007b17b8017b1cc8017b19d0019517e0019518c0019519a0017b1ad80150207801acb3140700000000010000007b17c8001407a0ffffff0000000082181801d878078218100194878218d000948751074002821718027b1748821710027b1728821708027b1750821700027b17308217f8017b17588217f0017b17388217e8017b17608217e0017b17408217f800837860831700030a030182191003821a18038217c800d39707d4a70798982088880194a893785108f7017b1a207b19c800140780ffffff0000000082181801d878078218100194878218d00094875107b201821708037b17d000821700037b17188217f800837880008317e0020a03018212f8028218f0028219e802d4280a889b0194ab510b7d01821ae002821b1801c8ab0bd8ab0a821c1001c89c0cc8ac0cd39c07d89c09da7a0982170801c88707c87909d8790ad8870782180001c88202c82707c87a0a8217e0007b1720018217f0007b1728017b1b40018217e8007b1730018217d8007b1738017b1c48017b1950019517600195184001951920017b1a580150207a0139b2821268018213600182197801821a7001821b9001821c980182178001821888017b6bf0007b6cf8007b67e0007b68e8007b6ad0007b69d8007b63c0007b62c8008217c8007b67b0008217207b67b8008217187b67a0008217d0007b67a8008217287b6790008217487b6798008217307b6780008217507b6788008217387b67708217587b67788217407b67608217607b67688217687b67508217787b67588217707b6740821780007b6748821788007b67308217a8007b6738821790007b67208217b0007b6728821798007b67108217b8007b67188217a0007b678217c0007b67089551c0fc821038038215300382162803951140033200003307330850207c012e8b837833070133090a0d330733007c0128198b330733007c0128108b821730027b17c800821738027b17c000821740027b17b800821748027b17b000821750027b17a800821758027b17a000821760027b179800821768027b179000821770027b178800821778027b178000821780027b1778821788027b1770821790027b1768821798027b17608217a0027b17588217a8027b17508217b0027b17488217b8027b17408217c0027b17388217c8027b17308217d0027b17288217d8027b17208217e0027b17188214e8028213f0028212f802821c0003821b0803821a10038219180382182003821728039510d0007b10109516f0007b1608951610017b167b17e8007b18e0007b19d8007b1ad0007b1b08017b1c00017b12f8007b13f0007b1428018217187b1720018217207b1718018217287b1710018217307b1748018217387b1740018217407b1738018217487b1730018217507b1768018217587b1760018217607b1758018217687b1750018217707b1788018217787b178001821780007b177801821788007b177001821790007b17a801821798007b17a0018217a0007b1798018217a8007b1790018217b0007b17c8018217b8007b17c0018217c0007b17b8019517d0019518b00195199001951a7001951b5001951c30018216c8007b16b0015020800113e4008217e8017b17b0008217e0017b17b8008217d8017b17c0008217d0017b17c8003307403308205020820116897c78117c79107c7a127c7b13978808d4980897aa1097bb18d4ba0ad4a8087c79157c7a147c7b167c7c17979908d4a90997bb1097cc18d4cb0bd4b909979920d489027c79017c7a7c7b027c7c03979908d4a90997bb1097cc18d4cb0bd4b9097c7a057c7b047c7c067c760797aa08d4ba0a97cc10976618d46c0cd4ca0a97aa20d4a9097c7a197c7b187c7c1a7c761b97aa08d4ba0a97cc10976618d46c0cd4ca0a7c7b1d7c7c1c7c761e7c781f97bb08d4cb0b976610978818d46808d4b808978820d48a0a7c78097c7b087c7c0a7c760b978808d4b80897cc10976618d46c0cd4c8087c7b0d7c7c0c7c760e7c770f97bb08d4cb0b976610977718d46707d4b707977720d487076f786fa76f996f2ad4a909d4870ad49a0a98aa20d49808978820d4a808510804008376330820646750208401e1878218b0006f888219b8006f99821ac0006faa821bc8006fbb98bc38787c1f98bc30787c1e98bc28787c1d98bc20787c1c98bc18787c1b98bc10787c1a98bc08787c19787b18787a1098ab38787b1798ab30787b1698ab28787b1598ab20787b1498ab18787b1398ab10787b1298aa08787a11787908989a38787a0f989a30787a0e989a28787a0d989a20787a0c989a18787a0b989a10787a0a98990878790978789889387879079889307879069889287879059889207879049889187879039889107879029888087878013308206467502086010b8783783309203307330088010a0d01951140ff7b10b8007b15b0007b16a8009515c0008411e039071401025417238e01831780003308040a03821780008218880082199000821a98007b1a387b19307b18287b172049115849115049114895176095192049114050208a017901018217787b178217707b17088217687b17108217607b171833074033082050208c017b867c78117c79107c7a127c7b13978808d4980897aa1097bb18d4ba0ad4a8087c79157c7a147c7b167c7c17979908d4a90997bb1097cc18d4cb0bd4b909979920d489027c79017c7a7c7b027c7c03979908d4a90997bb1097cc18d4cb0bd4b9097c7a057c7b047c7c067c760797aa08d4ba0a97cc10976618d46c0cd4ca0a97aa20d4a9097c7a197c7b187c7c1a7c761b97aa08d4ba0a97cc10976618d46c0cd4ca0a7c7b1d7c7c1c7c761e7c781f97bb08d4cb0b976610978818d46808d4b808978820d48a0a7c78097c7b087c7c0a7c760b978808d4b80897cc10976618d46c0cd4c8087c7b0d7c7c0c7c760e7c770f97bb08d4cb0b976610977718d46707d4b707977720d487076f786fa76f996f2ad4a909d4870ad49a0a98aa20d49808978820d4a808510818003307330850208e014985837833070133090a0d018376330820646750209001328582186f888219086f99821a106faa821b186fbb98bc38787c1f98bc30787c1e98bc28787c1d98bc20787c1c98bc18787c1b98bc10787c1a98bc08787c19787b18787a1098ab38787b1798ab30787b1698ab28787b1598ab20787b1498ab18787b1398ab10787b1298aa08787a11787908989a38787a0f989a30787a0e989a28787a0d989a20787a0c989a18787a0b989a10787a0a9899087879097878988938787907988930787906988928787905988920787904988918787903988910787902988808787801330820646750209201618483783309203307330094010a0d01827218828318827b10827c088289088274828a828810d3c907d8c909d84a0adb790ac9b807d8a707d8b808c92309c98909c9790957090532009511f87b1033073308502096010b8483783307013309330098010a0d01828910828a18828b088288d4ba0ad4980bd4ab0b98bb20d4a909979920d4b90952093d019511f07b10087b156475838733082050209a01c4837c78017c797c7a027c7b03978808d4980897aa1097bb18d4ba0ad4a8087c79057c7a047c7b067c7c07979908d4a90997bb1097cc18d4cb0bd4b909979920d489027c79097c7a087c7b0a7c7c0b979908d4a90997bb1097cc18d4cb0bd4b9097c7a0d7c7b0c7c7c0e7c780f97aa08d4ba0a97cc10978818d4c808d4a808978820d498037c78117c7a107c7b127c7c13978808d4a80897bb1097cc18d4cb0bd4b8087c7a157c7b147c7c167c791797aa08d4ba0a97cc10979918d4c909d4a909979920d4890a7c78197c79187c7b1a7c7c1b978808d4980897bb1097cc18d4cb0bd4b8087c791d7c7b1c7c7c1e7c771f979908d4b90997cc10977718d4c707d49707977720d487076f776fa86f396f2a7b5a187b59107b58087b578210088215951110320000951158fe7b10a0017b1598017b169001828a18828b10828c0882857b1a80017b1c5001d4ac08d4b50ad48a0a98aa207b1b7801d4b808978820d4a8087b175208ab068297187b1788018297107b1768018297087b17700182967b153801835733082033052050209c01348278751f821a6801d4a60882198801821c7001d4c909d49808988820d4a909979920d4980846171e46171d46171c46171b46171a46171946171846171746171646171546171446171346171246171146171046170f46170e46170d46170c46170b46170a46170946170846170746170646170546170446170346170246170146075208fe05646b821738019578207b186001d8780782185001c87806d88608da770882177801c88705d8750782188001c887077b1758017b1b180183b733082050209e016f8182126001d452087b16480182195801d46909d498089888207b154001d45909979920d49808520894057c78197c79187c7a1a7c7b1b978808d4980897aa1097bb18d4ba0ad4a8087c791d7c7a1c7c7b1e7c7c1f979908d4a90997bb1097cc18d4cb0bd4b909979920d498087b1828017c78117c79107c7a127c7b13978808d4980897aa1097bb18d4ba0ad4a8087c79157c7a147c7b167c7c17979908d4a90997bb1097cc18d4cb0bd4b909979920d498087b1830017c78097c79087c7a0a7c7b0b978808d4980897aa1097bb18d4ba0ad4a8087c790d7c7a0c7c7b0e7c7c0f979908d4a90997bb1097cc18d4cb0bd4b909979920d489067c78017c797c7a027c7b03978808d4980897aa1097bb18d4ba0ad4a8087c79057c7a047c7b067c7707979908d4a90997bb10977718d4b707d49707977720d4870583273308205020a0012c808219300178791098683878780f98683078780e98682878780d98682078780c98681878780b98681078780a9868087878097876089858387878079858307878069858287878059858207878049858187878039858107878029858087878017875821b2801787b18989838787817989830787816989828787815989820787814989818787813989810787812989808649c78781198b83878781f98b83078781e98b82878781d98b82078781c98b81878781b98b81078781a98b80878781982183801958440d88409821a5001c89a00d8a00ada990ad4c50964b3d46b0bd49b0b821c7801c8ca0a7b1a2001d8ca0a82128001c8a20c7b1c5001510b5603330733084921380133096f5a7b1a206f6a7b1a18821a30016faa7b1a106f3a7b1a08140be0ffffff000000007b1b288215680182127001821a180182132001017b1920017b1828017b173001821b8801d45b0b821628d86a0c7b127001942c94bc821750017b1718017b1310017b1008017b148001510c05037b15680195a7207b177801837733082064a55020a2019f7eff8218400182195801d4980882196001d86909821a480194a994895109ce0282187801d8580982187001c8980a7b1a6001d88a08da99087c797b1958017c79017b1950017c79027b1948017c79037b1940017c79047b1900017c79057b19f8007c79067b19f0007c79077b19e8007c79087b19e0007c79097b19d8007c790a7b19d0007c790b7b19c8007c790c7b19c0007c790d7b19b8007c790e7b19b0007c790f7b19a8007c79107b19a0007c79117b1998007c79127b1990007c79137b1988007c79147b1980007c79157b19787c79167b19707c79177b19687c79187b19607c79197b19587c791a7b19507c791b7b19487c791c7b19407c791d7b19387c791e7b19307c761f82156801c858087b187001d8580782188801c878087b1888018215800183573308205020a4016f7dff78761f82183078781e82183878781d82184078781c82184878781b82185078781a821858787819821860787818821868787817821870787816821878787815821880007878148218880078781382189000787812821898007878118218a0007878108218a80078780f8218b00078780e8218b80078780d8218c00078780c8218c80078780b8218d00078780a8218d8007878098218e0007878088218e8007878078218f0007878068218f800787805821800017878048218400178780382184801787802821850017878018218580178788213300195330188370182142801c87404d44307887b0182173801c87b0bd87b0782102001c87000821708d87307821910d39408d89409da8709821718d87b06821a20d3a008d8a00cda860cd3b707d478089557207b176801da890cd8570982160801c896077b173001d8670ada990a82181001c8a809d8890a82171801c87a0a7b1a50017b1b3801821a78018212600182157001821b80017b1b60017b1648017b1840017b17580164376493644882146801640982103001520cf4fc28078213200101821b7bb47bb0087bb310821750017bb7188210a00182159801821690019511a8013200008217f0008218f8008219e800821ae000d49808d4a707d487075207230239071401025417031a024921b8004921b0004921a000019517c0009518a0004921a8005020a601da26018217c0007b17388217c8007b17308217d0007b17288217d8007b17203307403308205020a801467bff7c78017c797c7a027c7b03978808d4980897aa1097bb18d4ba0ad4a8087c79057c7a047c7b067c7c07979908d4a90997bb1097cc18d4cb0bd4b909979920d489027c79097c7a087c7b0a7c7c0b979908d4a90997bb1097cc18d4cb0bd4b9097c7a0d7c7b0c7c7c0e7c760f97aa08d4ba0a97cc10976618d46c0cd4ca0a97aa20d4a9097c7a117c7b107c7c127c761397aa08d4ba0a97cc10976618d46c0cd4ca0a7c7b157c7c147c76167c781797bb08d4cb0b976610978818d46808d4b808978820d48a0a7c78197c7b187c7c1a7c761b978808d4b80897cc10976618d46c0cd4c8087c7b1d7c7c1c7c761e7c771f97bb08d4cb0b976610977718d46707d4b707977720d487076f7b7b1b086faa7b1a106f987b18186f268217207b17588217287b17508217307b17488217387b17407b16787b18707b1a68951780009518609519407b1b605020aa0160f7821b108219087b1638d46b07821618d46908d47808988820d46707977720d4870752075e82178800821898007b18308213800082189000d3b704d8b70cd89300da400cc9680ac9ca04d8ca02d8680a821838821c30c98c0cc9ac0cc92c0cc9b707c90707c99306d4c707d44608d47808d44707988820977720d4870751071900330733085020ac016f79ff837833070133090a0d018397836664685020ae015879ff8378330764693300b0010a0d019511807b10787b15707b1668951580008411e082897b19108289087b19088289107b198286187b171833082033075020b2011679ff6f6882196f99821a086faa821b106fbb98bc38787c1f98bc30787c1e98bc28787c1d98bc20787c1c98bc18787c1b98bc10787c1a98bc08787c19787b1898ab38787b1798ab30787b1698ab28787b1598ab20787b1498ab18787b1398ab10787b1298ab08787b11787a10989a38787a0f989a30787a0e989a28787a0d989a20787a0c989a18787a0b989a10787a0a989a08787a0978790898893878790798893078790698892878790598892078790498891878790398891078790298890878790178783307203308205020b4014678ff46171f0446171e46171d46171c46171b46171a46171946171846171746171646171546171446171346171246171146171046170f46170e46170d46170c46170b46170a461709461708461707461706461705461704461703461702461701460733084033075020b601da77ff83778319403308400a08821758821850821948821a406f776f886f996faa7b1a387b19307b18287b172049115849115049114849114048116020831820831a40831b603309ff33070a07821758821850821948821a40821b187bb7187bb8107bb9087bba955180821078821570821668951180003200821730821838821928821a20d49808d4a707d4870752070c03390714010254172303038317603308040a038217607b17188217687b17108217707b170882167833082033075020b8011877ff6f688219086f99821a106faa821b186fbb98bc38787c1f98bc30787c1e98bc28787c1d98bc20787c1c98bc18787c1b98bc10787c1a98bc08787c19787b1898ab38787b1798ab30787b1698ab28787b1598ab20787b1498ab18787b1398ab10787b1298ab08787b11787a10989a38787a0f989a30787a0e989a28787a0d989a20787a0c989a18787a0b989a10787a0a989a08787a0978790898893878790798893078790698892878790598892078790498891878790398891078790298890878790178783307203308205020ba014776ff46171f0446171e46171d46171c46171b46171a46171946171846171746171646171546171446171346171246171146171046170f46170e46170d46170c46170b46170a461709461708461707461706461705461704461703461702461701460733084033075020bc01db75ff83778319603308400a08821778821870821968821a606f776f886f996faa7b1a587b19507b18487b17404911784911704911684911604821800020831840831a60831b80003309ff33070a078217787b178217707b17088217687b17108217607b17183307403308205020be016b75ff7c78117c79107c7a127c7b13978808d4980897aa1097bb18d4ba0ad4a8087c79157c7a147c7b167c7c17979908d4a90997bb1097cc18d4cb0bd4b909979920d489027c79017c7a7c7b027c7c03979908d4a90997bb1097cc18d4cb0bd4b9097c7a057c7b047c7c067c760797aa08d4ba0a97cc10976618d46c0cd4ca0a97aa20d4a9097c7a197c7b187c7c1a7c761b97aa08d4ba0a97cc10976618d46c0cd4ca0a7c7b1d7c7c1c7c761e7c781f97bb08d4cb0b976610978818d46808d4b808978820d48a0a7c78097c7b087c7c0a7c760b978808d4b80897cc10976618d46c0cd4c8087c7b0d7c7c0c7c760e7c770f97bb08d4cb0b976610977718d46707d4b707977720d487076f786fa76f996f2ad4a909d4870ad49a0a98aa20d49808978820d4a80851081900330733085020c0013874ff837833070133090a0d01837633082064675020c2012074ff82186f888219086f99821a106faa821b186fbb98bc38787c1f98bc30787c1e98bc28787c1d98bc20787c1c98bc18787c1b98bc10787c1a98bc08787c19787b18787a1098ab38787b1798ab30787b1698ab28787b1598ab20787b1498ab18787b1398ab10787b1298aa08787a11787908989a38787a0f989a30787a0e989a28787a0d989a20787a0c989a18787a0b989a10787a0a989908787909787898893878790798893078790698892878790598892078790498891878790398891078790298880878780133082064675020c4014e73ff837833092033073300c6010a0d019511a07b10587b15509515608411e0390714010254172362018317203308040a03821820821728821930821a387b1a187b19107b170864177b185020c8011223013307403308205020ca01f272ff7c78117c79107c7a127c7b13978808d4980897aa1097bb18d4ba0ad4a8087c79157c7a147c7b167c7c17979908d4a90997bb1097cc18d4cb0bd4b909979920d489027c79017c7a7c7b027c7c03979908d4a90997bb1097cc18d4cb0bd4b9097c7a057c7b047c7c067c780797aa08d4ba0a97cc10978818d4c808d4a808978820d498037c78197c7a187c7b1a7c7c1b978808d4a80897bb1097cc18d4cb0bd4b8087c7a1d7c7b1c7c7c1e7c791f97aa08d4ba0a97cc10979918d4c909d4a909979920d4890a7c78097c79087c7b0a7c7c0b978808d4980897bb1097cc18d4cb0bd4b8087c790d7c7b0c7c7c0e7c770f979908d4b90997cc10977718d4c707d49707977720d487076f786fa76f396f2ad4a909d4870ad49a0a98aa20d49808978820d4a80851082200330733085020cc01bf71ff837833070133090a0d83773300ce0128a971ff83775020ce01a371ff8378330733093300d0010a0d01951180fe7b1078017b1570017b166801951580018411e08294088280088296828c829210d3040bd8040ad8c603dab30ac9040bc93b0b7b16607b1c9800c9c60c88cc6085cc018283108eb6dbb60c829b18828618c93208c9a809d8a8087b139000d8320a7b1b587b168800c96b0bc9ab0bc98b0b8fb88e9adbb80ad4b909db9a0c510cf90164767b12687b14708219900082149800d4940782188800d48008d48707987720d49808978820d487077b1080005207c7018348831740017b18780a03018217900082188800d48709140700000000010000007b17481407e0ffffff0000000082189800d878078218800094877b1950949751078301821758017b1738821750017b1728821748017b1740821740017b1730821778837820831740010a03018217489577c082189800d87807821880009487821850948751073e01821758017b1748821750017b1718821748017b1750821740017b1720821778837840831720010a0301821238018218300182192801d4280a889b0194ab510bfe00821a2001821b9800c8ab0bd8ab0a821c8000c89c0cc8ac0cd39c07d89c09da7a0982179000c88707c87909d8790ad8870782188800c88202c82707c87a0a8217607b17a0008217707b17a8007b1bc0008217687b17b0008217587b17b8007b1cc8007b19d0009517e0009518c0009519a0007b1ad8005020d201a1958212e8008213e0008219f800821af000821b1001821c180182170001821808017b6b707b6c787b67607b68687b6a507b69587b63407b62488217187b67308217487b67388217207b67208217507b67288217287b67108217387b67188217307b678217407b6708955180fe82107801821570018216680195118001320000330733085020d401116fff837833070133093300d6010a0d01951140fe7b10b8017b15b0017b16a8019515c0018411e049219801492190014921880149218001831780010a1001821790018218980182198801821a8001d49808d4a707d487075207e70038071401024921d8004921d0004921c8007b17c0004921f8004921f0004921e00004951700019518e0009519c0004921e8005020d801f0fc821700017b1738821708017b1730821710017b1728821718017b1720821720017b17188210280182143001821338018212400182164801821c5001821b5801821a60018219680182187001821778017b17587b18507b19487b1a407b1b787b1c707b16687b12607b1398007b1490007b1088008217187b1780008217207b17b8008217287b17b0008217307b17a8009517a00095188000951960951a40821b387b1ba0005020da013a4501330733085020dc01ca6dff837833070133093300de010a0d01827818827910827a827708d4980888a9029479948951090532009511f87b10330733085020e001926dff837833070133093300e2010a0d019511c07b10387b15307b16289515408411e0828910828a18828b088288d4ba0ad4980bd4ab0b98bb20d4a909979920d4b9095209406476838883170a03018217188218108219821a08d4780b889c0294ac94bc510c207b697b6a087b68107b67189551c0821038821530821628951140320000330733085020e401066dff837833070133093300e6010a0d01951160ff7b1098007b1590007b1688009515a0008411e0828210828c08829a088284829b7b1b40829010d3ca03d8ca06d84b0b7b1b38da3b068283188298187b1830c92009c969087b1848d869087b1258d8200b7b1350821930c93909c9b909c98909c9ca08821a38c9a808821a40c94a0a8e8b88aa6085aa01db8b0a8f968218488e8bdb960bd49808db8b0a510a37016476821958d494077b1c48821850d4c808d48707987720d49808978820d487075207120183488317607b18387b14400a0301821758821850d48709140700000000010000007b17501407e0ffffff00000000821840d8780782184894877b195894975107d0008217787b17308217707b17288217687b17188217607b17208217388378208317600a03018217509577c0821840d8780782184894878218589487510792008217787b17588217707b17508217687b17408217607b17488217388378408317600a0301821778821870821960821a68d4780b889c0294ac94bc510c557b6a487b69408219407b69288219487b69208219187b69088219207b697b68508218507b68308218287b68107b67588217587b67388217307b6718955160ff8210980082159000821688009511a000320000330733085020e801296bff837833070133093300ea010a0d019511d0fe7b1028017b1520017b161801951530018411f0380714010249218800492180004911787b17704921a8004921a00049219000049517b00095189000951970492198005020ec01ddfd8217b0007b17088213b8008214c0008210c8008212d000821cd800821be000821ae8008218f0008216f80082190001821708017b17287b19207b16187b18107b1a487b1b407b1c387b12307b10687b14607b1358951750951830951910821a087b1a505020ee01085e013307403308205020f001586aff7c78117c79107c7a127c7b13978808d4980897aa1097bb18d4ba0ad4a8087c79157c7a147c7b167c7c17979908d4a90997bb1097cc18d4cb0bd4b909979920d489027c79017c7a7c7b027c7c03979908d4a90997bb1097cc18d4cb0bd4b9097c7a057c7b047c7c067c760797aa08d4ba0a97cc10976618d46c0cd4ca0a97aa20d4a9097c7a197c7b187c7c1a7c761b97aa08d4ba0a97cc10976618d46c0cd4ca0a7c7b1d7c7c1c7c761e7c781f97bb08d4cb0b976610978818d46808d4b808978820d48a0a7c78097c7b087c7c0a7c760b978808d4b80897cc10976618d46c0cd4c8087c7b0d7c7c0c7c760e7c770f97bb08d4cb0b976610977718d46707d4b707977720d487076f786fa76f996f2ad4a909d4870ad49a0a98aa20d49808978820d4a8085108040083775020f2012769ff8378330733093300f4010a0d01828918828a10828b0882887b79187b7a107b7b087b7832009511a07b10587b15507b1648828a18828b10828c088286d4ac08d4b609d48909989920d4b808978820d498087b1728520816029567207b1730d86707c87c087b18407b1c08d8c805da7705c8b5057b1b10d8b5077b1a18c8a7077b17387b1683673308203306205020f6019468ff78761f8218306486d45808821940821b38d4b909d498089888207b1520d45909979920d4980846171e46171d46171c46171b46171a46171946171846171746171646171546171446171346171246171146171046170f46170e46170d46170c46170b46170a461709461708461707461706461705461704461703461702461701460752085501836533082064575020f8010068ff46171f1646171e46171d46171c46171b46171a46171946171846171746171646171546171446171346171246171146171046170f46170e46170d46170c46170b46170a461709461708461707461706461705461704461703461702461701821820821938d498081409e0ffffff00000000d89609821a4094a9948946075109c6008357203308205020fa017267ff46171f46171e46171d46171c46171b46171a4617194617184617174617164617156c4617146c4617136146171263330c20787c114617107446170f6e46170e6146170d7246170c7446170b6e46170a654617096546170872787c074617063a461705774617046f4617037246170263461701734607458218958760d88708821a08c88a09d8a90ada880a821810c88a0ad88a08821b18c8b808821b287bb77bb9087bba107bb818821058821550821648951160320000951100fe7b10f8017b15f0017b16e801951500028411e082bc187b1c82bc107b1c0882bc087b1c1082bb7b1b1882ab187b1b2082ab107b1b2882ab087b1b3082aa7b1a38829a187b1a40829a107b1a48829a087b1a5082997b19588289187b19608289107b19688289087b197082887b18788278187b1880008278107b1888008278087b18900082777b1798004921b8014921b0014921a8013306057b16a0014921d8014921d0014921c8014921c00148218001208318a001831ac001831b80013309ff33070a07018217d8018218c8018219c001821ad001d48707859801d4a808d4870752076c024921b8014921b0014921a8014921a001054921d8014921d0014921c8014921c00148218001208318a001831ac001831b80013309ff33070a074921b8014921b0014921a8014921a001054921d8014921d0014921c8014921c001028318a001831ac0013309ff330b2033070a0f82177b17b8008217087b17b0008217107b17a8008217187b17a0008217207b17d8008217287b17d0008217307b17c8008217387b17c0008217407b17f8008217487b17f0008217507b17e8008217587b17e0008217607b1718018217687b1710018217707b1708018217787b170001821780007b173801821788007b173001821790007b17280195172001951800019519e000951ac000951ba000821c98007b1c20013300fc019511e0fd7b1018027b1510024921080205951520028411e082bc187b1c880082bc107b1c6882bc087b1c4882bb7b1b2882ab187b1b800082ab107b1b5882ab087b1b3882aa7b1a18829a187b1a70829a107b1a50829a087b1a3082997b19108289187b19608289107b19408289087b192082887b180882787b18b0008278087b18b8008278107b1890008276188317a0010a058217a8018218a0018119b0016f77987a206f88978b20d4ba0a7b1aa8009777206f99989920d497077b17a0009888207b18980033082033073300140228e963ff4921b8014921b0014921a8017b16a0014921d8014921d0014921c8014921c00148218001208318a001831ac001831b80013309ff33070a074921b8014921b0014921a8017b16a0014921d8014921d0014921c8014921c001018318a001831ac0013309ff330b2033070a0f955100fe8210f8018215f0018216e8019511000232003307403308205020fe015e63ff7c78117c79107c7a127c7b13978808d4980897aa1097bb18d4ba0ad4a8087c79157c7a147c7b167c7c17979908d4a90997bb1097cc18d4cb0bd4b909979920d489027c79017c7a7c7b027c7c03979908d4a90997bb1097cc18d4cb0bd4b9097c7a057c7b047c7c067c760797aa08d4ba0a97cc10976618d46c0cd4ca0a97aa20d4a9097c7a197c7b187c7c1a7c761b97aa08d4ba0a97cc10976618d46c0cd4ca0a7c7b1d7c7c1c7c761e7c781f97bb08d4cb0b976610978818d46808d4b808978820d48a0a7c78097c7b087c7c0a7c760b978808d4b80897cc10976618d46c0cd4c8087c7b0d7c7c0c7c760e7c770f97bb08d4cb0b976610977718d46707d4b707977720d487076f766fa86f996f277b1798007b199000d497076489d46808d47808988820d46707977720d4870752071f017b19880083973308207b178000502000021862ff46171f46171e46171d46171c46171b46171a46171946171846171746171646171546171446171346171246171146171046170f46170e46170d46170c46170b46170a461709461708461707461706461705461704461703a00046170279461701c30046070882188800958704d88708821a9800c88a09d8a90ada880ac86a0ad86a08821b9000c88b0b7b1948017b1740017b1a500195176001951840017b1b58015020020275f8821768018212780182136001821a700182189800d3870bd8870c648482198800d89308dab80cc96a0bd86a0a82169000c96206c9a606d8cb0ac9a606c9cb0bc94707c98708c99307d46808d4b709d48909d4b808989920978820d49808510804008376821780006468502004020161ff83783307016469330006020a0d019511c87b10307b15287b1620827610827a1882780882797b18187b1a10d4a807d46908d47808988820d46707977720d487075207350183973308203305207b177b190850200802a960ff46171f6446171e6946171d7646171c6f46171b7246171a70787519330c65787c184617176846171674787515461714744617136f4617126e7875114617107346170f6978750e46170d72787c0c46170b6c46170a6c46170961461708637875073305724617063a461705774617046f7875034617026346170173821910d46909140ae0ffffff00000000821b08d8ab0a821b1894ba949a460745510a8300821783772033082050200a02fc5fff46171f46171e46171d46171c46171b46171a46171946171846171746171646171546171446171346171246171146171046170f46170e46170d46170c46170b46170a46170946170846170746170646170546170446170346170278750133086578788210308215288216209511383200009511a07b10587b15507b1648828a18828b10828c088286d4ac08d4b609d48909989920d4b808978820d498087b17285208b6029567207b1740d86707c87c087b18387b1c10d8c805da7705c8b5057b1b18d8b5077b1a20c8a7077b17307b1608836733082033062050200c021c5fff78761f821840d45808821938821a30d4a909d49808988820d45909979920d4980846171e46171d46171c46171b46171a46171946171846171746171646171546171446171346171246171146171046170f46170e46170d46170c46170b46170a46170946170846170746170646170546170446170346170246170146075208f901645682154083573308207b1750200e02885eff46171f2246171e46171d46171c46171b46171a46171946171846171746171646171546171446171346171246171146171046170f46170e46170d46170c46170b46170a461709461708461707461706461705461704461703461702461701821830d4860a140600000000010000001408e0ffffff00000000d8850882193894987b1a3094a8460751085b01821583572033082050201002ee5dff46171f6433026978721e46171d7646171c6f330c72787c1b46171a704617192046171865461717684617167446171520461714744617136f4617126e461711204617107378720f46170e20787c0d46170c6546170b6c46170a6c4617096146170863461707204617063a330b77787b054617046f787c0346170263461701739569c0821a40d89a09821a3894a9821a3094a94607455109b30083574033082050201202485dff46171f46171e46171d46171c46171b46171a46171946171846171746171646171546171446171346171246171146171046170f46170e46170d46170c46170b46170a4617094617084617074617064617054617044617034617024617017246076582180895878000d88708821a10c88a09d8a90ada880a821818c88a0ad88a08821b20c8b808821b287bb77bb9087bba107bb8188210588215508216489511603200007b16786f68821690006f69821ab8006faa821bb0006fbb98bc38787c1f98bc30787c1e98bc28787c1d98bc20787c1c98bc18787c1b98bc10787c1a98bc08787c19787b1898ab38787b1798ab30787b1698ab28787b1598ab20787b1498ab18787b1398ab10787b1298ab08787b11787a10989a38787a0f989a30787a0e989a28787a0d989a20787a0c989a18787a0b989a10787a0a989a08787a09787908988938787907988930787906988928787905988920787904988918787903988910787902988908787901787833072033082050201602ce5bff46171f46171e46171d46171c46171b46171a46171946171846171746171646171546171446171346171246171146171046170f46170e46170d46170c46170b46170a4617094617084617074617064617054617044617034617024617014607330840330750201802635bff83778319e0013308400a088217f8018218f0018219e801821ae0016f776f886f996faa7b1ad8017b19d0017b18c8017b17c0014921f8014921f0014921e8014921e00148210002208318c001831ae001831b00023309ff33070a07018017f0018218e0018219e801821a9800d3a707821aa000d3a808d487078218a800d39808d48707520766018217287b17c0008217187b17e0008217107b1700018217087b1720018217b0007b1740018217487b17c8008217387b17e8008217307b1708018217207b1728018217b8007b1748018217687b17d0008217587b17f0008217507b1710018217407b1730017b165001821788007b17d800821780007b17f8008217707b1718018217607b173801951740019518200195190001951ae000951bc000821c787b1c580133001a02951140fa7b10b8057b15b0057b16a8059515c0058411e082bc187b1c480182bc107b1c500182bc087b1c580182bb7b1b600182ab187b1b680182ab107b1b700182ab087b1b780182aa7b1a8001829a187b1a3801829a107b1a3001829a087b1a280182997b19200182897b19e8018289087b19f8018289107b1900028288187b18080282787b18d8018278087b18e0018278107b18f001827618330820330733006602288d59ff9551e0fd82101802821510028216080295112002320033074033082050201c026d59ff7c78117c79107c7a127c7b13978808d4980897aa1097bb18d4ba0ad4a8087c79157c7a147c7b167c7c17979908d4a90997bb1097cc18d4cb0bd4b909979920d489027c79017c7a7c7b027c7c03979908d4a90997bb1097cc18d4cb0bd4b9097c7a057c7b047c7c067c760797aa08d4ba0a97cc10976618d46c0cd4ca0a97aa20d4a9097c7a197c7b187c7c1a7c761b97aa08d4ba0a97cc10976618d46c0cd4ca0a7c7b1d7c7c1c7c761e7c781f97bb08d4cb0b976610978818d46808d4b808978820d48a0a7c78097c7b087c7c0a7c760b978808d4b80897cc10976618d46c0cd4c8087c7b0d7c7c0c7c760e7c770f97bb08d4cb0b976610977718d46707d4b707977720d487076f766fa86f996f277b17b8007b19b000d497076489d46808d47808988820d46707977720d4870752071f017b19a80083973308207b17a00050201e022758ff46171f46171e46171d46171c46171b46171a46171946171846171746171646171546171446171346171246171146171046170f46170e46170d46170c46170b46170a461709461708461707461706461705461704461703a00046170279461701c3004607088218a800958704d88708821ab800c88a09d8a90ada880ac86a0ad86a08821bb000c88b0b7b1968017b1760017b1a700195178001951860017b1b780150202002fbf7821788018212980182138001821a90018218b800d3870bd8870c64848219a800d89308dab80cc96a0bd86a0a8216b000c96206c9a606d8cb0ac9a606c9cb0bc94707c98708c99307d46808d4b709d48909d4b808989920978820d498085108040083768217a0006468502022021057ff83783307016469330024020a0d01828918828a10828b0882887b79187b7a107b7b087b7832009511a07b10587b15507b1648828a18828b10828c088286d4ac08d4b609d48909989920d4b808978820d498087b172852081e029567207b1730d86707c87c087b18407b1c08d8c805da7705c8b5057b1b10d8b5077b1a18c8a7077b17387b168367330820330620502026027c56ff78761f8218306486d45808821940821b38d4b909d498089888207b1520d45909979920d4980846171e46171d46171c46171b46171a46171946171846171746171646171546171446171346171246171146171046170f46170e46170d46170c46170b46170a461709461708461707461706461705461704461703461702461701460752085d018365330820645750202802e855ff46171f1f46171e46171d46171c46171b46171a46171946171846171746171646171546171446171346171246171146171046170f46170e46170d46170c46170b46170a461709461708461707461706461705461704461703461702461701821820821938d498081409e0ffffff00000000d89609821a4094a9948946075109ce0083572033082050202a025a55ff46171b6946171e64461715644617196c4617116c46170e7446170d6e46171d654617136546170c6546171c6d46170b6d4617167946170a7946171a614617146146171061461709614617087046171f4617172046170f20461707204617063a461705774617046f46171272461703724617186346170263461701734607458218958760d88708821a08c88a09d8a90ada880a821810c88a0ad88a08821b18c8b808821b287bb77bb9087bba107bb8188210588215508216489511603200009511a07b10587b15507b1648828a18828b10828c088286d4ac08d4b609d48909989920d4b808978820d498087b172852081d029567207b1730d86707c87c087b18407b1c08d8c805da7705c8b5057b1b10d8b5077b1a18c8a7077b17387b16836733082033062050202c022e54ff78761f8218306486d45808821940821b38d4b909d498089888207b1520d45909979920d4980846171e46171d46171c46171b46171a46171946171846171746171646171546171446171346171246171146171046170f46170e46170d46170c46170b46170a461709461708461707461706461705461704461703461702461701460752085c018365330820645750202e029a53ff46171f1e46171e46171d46171c46171b46171a46171946171846171746171646171546171446171346171246171146171046170f46170e46170d46170c46170b46170a461709461708461707461706461705461704461703461702461701821820821938d498081409e0ffffff00000000d89609821a4094a9948946075109cd00835720330820502030020c53ff46171c74461717644617156e46171869461714694617116946171d6546170f6546170d6146170c6846171b754617097546171a704617087046171f46171e461716204617132046171020461707204617063a461705774617046f46170a724617037246170b6346170263461719734617127346170e73461701734607458218958760d88708821a08c88a09d8a90ada880a821810c88a0ad88a08821b18c8b808821b287bb77bb9087bba107bb818821058821550821648951160320000951160ff7b1098007b1590007b1688009515a0008411f08289187b19308289107b19288289087b192082887b18187b1738330740330820502032021152ff7c78197c79187c7a1a7c7b1b978808d4980897aa1097bb18d4ba0ad4a8087c791d7c7a1c7c7b1e7c7c1f979908d4a90997bb1097cc18d4cb0bd4b909979920d489027c79117c7a107c7b127c7c13979908d4a90997bb1097cc18d4cb0bd4b9097c7a157c7b147c7c167c761797aa08d4ba0a97cc10976618d46c0cd4ca0a97aa20d4a9097c7a097c7b087c7c0a7c760b97aa08d4ba0a97cc10976618d46c0cd4ca0a7c7b0d7c7c0c7c760e7c780f97bb08d4cb0b976610978818d46808d4b808978820d48a0a7c78017c7b7c7c027c7603978808d4b80897cc10976618d46c0cd4c8087c7b057c7c047c76067c770797bb08d4cb0b976610977718d46707d4b707977720d487076f736fa46f966f2c82181895871fd88708821a20c88a09d8a90ada880a821828c88a0ad88a08821b30c8b8088477e0c8c7077b1c287b1710d8c70bc86909c8b90cd36c097b1630d86c07da9b07c84a0ac87a0bd8ab06d84a09c83808c89808c886068eb88e69da6809d46b087b1c088ecadb890a520a2501d84b08d33609d8360ada980ad34b08d49808db8a0752070c013307403308207b14207b13187b1b502034026450ff6f6882196f99821a086faa821b106fbb787b1898bc38787c1f98bc30787c1e98bc28787c1d98bc20787c1c98bc18787c1b98bc10787c1a98bb08787b19787a1098ab38787b1798ab30787b1698ab28787b1598ab20787b1498ab18787b1398ab10787b1298aa08787a11787908989a38787a0f989a30787a0e989a28787a0d989a20787a0c989a18787a0b989a10787a0a98990878790978789889387879079889307879069889287879059889207879049889187879039889107879029888087878018217388218287b788218187b78188218307b78088218207b7810955160ff8210980082159000821688009511a0003200491170491168491160140700000000717b484e9518607b1778330750203602ff4fff4911584911504911404133070495184049114850203802e54fff330824330750203a02294fff837833070133092433003c020a0d01828a18828b10828908d4ba0a889b0194ab510b308288958a1fd88a08c8980884880184aae095a920d8a90ac8a80bd88b08daaa084917187b797b7b087b781032009511b07b10487b15409515508411f0491130491128491120140700000000717b484e9518207b1738330750203e02584fff491118491110490141330704641849110850204002404fff330824330750204202844eff8378330701330924330044020a0d019511a87b10507b15487b1640827a10827b18827c088277d4cb0bd4a70cd4bc0c98cc20d4ba0a97aa20d4ca0a520a4b01829b18829c108295829608d4c509d4b60ad4a909989920d4ca0a97aa20d4a909520927017b16287b1c307b1b38828918828a10828c828b08d4ac087b19207b1b10d4b909d498089888207b1a18d4a909979920d498085208f10083777b170883c7835664687b1c50204602d74dff837764688219080a02018217c85707d85708821b28821910c8b909c88909d3b90ad8b90bdaa80b821c30821818c8c808c88b0bd88b0ad8c808821c38821620c86c0cc8c808c8a808d4b70ad49808d48a0a98aa20d4b808978820d4a80852087c8377330820502048026b4dff46171f46171e46171d46171c46171b46171a46171946171846171746171646171546171446171346171246171146171046170f46170e46170d46170c46170b46170a46170946170846170746170646170546170446170346170246170146078210508215488216409511583200009511e0fe7b1018017b1510017b160801951520018411f0829b18829c108296087b1b507b1c48d4cb0b886c0194bc7b17510c760382a7187b171882a7107b172082a7087b170882a77b171082998287187b17708287107b17788287087b176882877b176095971f7b1940d89708c868088488018477e0957920d87907c8780ad88a0bda770b4921d8007b19c0007b1ac8009517e0009518c0007b1bd00050204a0211fa8217f8008219f0008218e800821ae0007b17587b1830d48707d49a08d478089888207b1938d49707977720d487075207d4027b1a2883a733082050204c02194cff821440821860c84808d8480a821968c86909c8a90bd36b0cd86b09daca09821c08d3cb0ad8bc0b821c10d88c08821048821c78c80c0cdbab08d80c0a821350821b70c83b0bc8ba0ac8c909d8c90bc8ba0a821c18d3ca0bd8ac0a821220d8920cdabc0ad32909d4b909db9a086f49989a38787a1f989a30787a1e989a28787a1d989a20787a1c989a18787a1b989a10787a1a989a08787a196f6a78791898a93878791798a93078791698a92878791598a92078791498a91878791398a9107879126f09787a1098aa08787a11989a38787a0f989a30787a0e989a28787a0d989a20787a0c989a18787a0b989a10787a0a6f3a78790898990878790998a93878790798a93078790698a92878790598a92078790498a91878790398a910787902787a98aa08787a018212605208f501821978d49207821870821a68d4a808d48707987720d49808978820d48707821a5852077201d40407d43608d48707987720d40808978820d48707821938821b30821c28520750017b1678d4a9071408e0ffffff00000000d88c0894b894785108350195c620d8c607c87b087b1820d8b808da7708c898087b1868d898077b177083227b1260836783487b181850204e02584aff83778218188219600a0201821740c86707d86708821978821b20c8b909c88909d3b90ad8b90bdaa80b821848821a68c8a808c88b0bd88b02d8a808821c50821658c86c0c821a70c8ac0cc8c808c82808d4b70ad49808d48a0a98aa20d4b808978820d4a80852089b00837733082050205002e349ff46171f46171e46171d46171c46171b46171a46171946171846171746171646171546171446171346171246171146171046170f46170e46170d46170c46170b46170a461709461708461707461706461705461704461703461702461701460782178218287b787b76188218307b78088218387b78109551e0fe821018018215100182160801951120013200004921b0004921a8004921a000140700000000717b484e9518a0007b17b800330750205202e049ff49219800492190004921800041330704951880004921880050205402c149ff3308243307502056020549ff83783307013309240a0d013307330850205802ef48ff8378330701330933005a020a0d01951160ff7b1098007b1590007b1688009515a0008411f08282828308828410828018829b829a08829c10829918380814010264764911184911104911087b187b19387b1c307b1a287b1b207b10587b14507b1348951760951840951920641a7b124050205c0282fb821770821878821960821a687b67107b68187b697b6a08955160ff8210980082159000821688009511a00032009511a07b10587b15507b1648828a18828b10828c088286d4ac08d4b609d48909989920d4b808978820d498087b17205208b6029567207b1738d86707c87c087b18407b1c08d8c805da7705c8b5057b1b10d8b5077b1a18c8a7077b17307b16836733082033062050205e02de47ff78761f821838d45808821940821a30d4a909d49808988820d45909979920d4980846171e46171d46171c46171b46171a46171946171846171746171646171546171446171346171246171146171046170f46170e46170d46170c46170b46170a46170946170846170746170646170546170446170346170246170146075208fa01645682153883573308207b1728502060024947ff46171f2446171e46171d46171c46171b46171a46171946171846171746171646171546171446171346171246171146171046170f46170e46170d46170c46170b46170a461709461708461707461706461705461704461703461702461701821830d4860a140600000000010000001408e0ffffff00000000d8850882194094987b1a3094a8460751085b0182172883772033082050206202ae46ff46171b73461719644617176c461715764617134946171a20461712204617113a46170d664617095646171f61461716614617046146171e6e4617146e4617036e46171d674617026746171c694617186946170e6946170c69461701694607533305727875109568c0821938d8890833066578760f78750b78760a7876087875078219409498461706758219309498461705745108b500821728837740330820502064020846ff46171f46171e46171d46171c46171b46171a46171946171846171746171646171546171446171346171246171146171046170f46170e46170d46170c46170b46170a46170946170846170746170646170546170478760378750246170175460774821895878000d88708821a08c88a09d8a90ada880a821810c88a0ad88a08821b18c8b808821b207bb77bb9087bba107bb8188210588215508216489511603200007b1640016f688219f0016f99821ae0016fab821ad8016faa787a18787b10787908787898ac387b1c1801787c1f98ac307b1c1001787c1e98ac287b1c0801787c1d98ac207b1c0001787c1c98ac187b1cf800787c1b98ac107b1cf000787c1a7b1a980198aa087b1ae800787a1998ba387b1ae000787a1798ba307b1ad800787a1698ba287b1ad000787a1598ba207b1ac800787a1498ba187b1ac000787a1398ba107b1ab800787a127b1b900198bb087b1bb000787b11989a387b1aa800787a0f989a307b1aa000787a0e989a287b1a9800787a0d989a207b1a9000787a0c989a187b1a8800787a0b989a107b1a8000787a0a7b19a0019899087b19787879099889387b19707879079889307b19687879069889287b19607879059889207b19587879049889187b19507879039889107b19487879027b18a8019888087b1840787801330720330820502068021644ff46171f0346171e46171d46171c46171b46171a46171946171846171746171646171546171446171346171246171146171046170f46170e46170d46170c46170b46170a4617094617084617074617064617054617044617034617024617014607330840330750206a02aa43ff8377831940053308400a08821740057b171802821748057b171002821750057b17d00182165805330820330750206c027743ff821808026f89821800026f8a8218f8016f8c8218e8016f8b98b83878781f98b83078781e98b82878781d98b82078781c98b81878781b98b81078781a98b8087878197b1b28787b1898c83878781798c83078781698c82878781598c82078781498c81878781398c81078781298c8087878117b1c20787c1098a83878780f98a83078780e98a82878780d98a82078780c98a81878780b98a81078780a98a8087878097b1a30787a089898387878079898307878069898287878059898207878049898187878039898107878029898087878017b1938787933072033082050206e029342ff98683878781f98683078781e98682878781d98682078781c98681878781b98681078781a9868087878197876188219d0019898387878179898307878169898287878159898207878149898187878139898107878129898087878117879108219100298983878780f98983078780e98982878780d98982078780c98981878780b98981078780a989808787809787908821918029898387878079898307878069898287878059898207878049898187878039898107878029898087878017879330840330750207002c841ff8377831940053308400a08821740058218480582195005821a58056f7c6f8b6f986fa79579027b17b001d87907c8780a7b18b801d88a08da7708c88b067b1bc001d8b6077b1cc801c8c7077b1a10027b1a08057b1918027b1900057b1610057b17d0017b17180549215805492150054921480549214005482120052083180005831a4005831b20053309ff33070a07017c174005520767077b1688017b161005821710027b170805821718027b1700058217d0017b17180549215805492150054921480549214005482120052083180005831a4005831b20053309ff33070a07017c17410552072309821720017b1700048217e8017b1720048217d8017b174004821728017b1708048217f8017b1728048217e0017b174804821730017b171004821700027b1730048217f0017b175004821738017b171804821708027b173804951760049518400495192004951a0004821b40017b1b5804502072022e5f01821760047b170802821868047b180002821870047b18f8018216780438071401024921980349219003492188037b178003821748017b17b803821750017b17b003821758017b17a803821760017b17a003821768017b17d803821770017b17d003821778017b17c8039517e0039518c0039519a003951a8003821b80017b1bc00350207402eaf28217e0038218e8038219f003821af8037b1af8027b19f0027b18e8027b17e0027b1618038217f8017b171003821700027b17080395172003951800039519e002821a08027b1a000350207602d27f01821720037b170802801730037b170002821728037b17f801821240038217480382185003821a5803821b6003821c680382167003821978037b19b8027b16b0027b1ca8027b1ba0027b1ad8027b18d0027b17c8029517c0029518a0027b12c002502078021387018217c8017b1718058217c0017b1710058217b8017b1708058217b0017b17000549215805492150054921480549214005482120052083180005831a4005831b20053309ff33070a0701821748058018500582194005821af801d3a707821a0002d3a808821a0802d3a909d49808d48707520708091407ffffffff000000007b170802821788017b171005821710027b170805821718027b1700058216d0017b16180549215805492150054921480549214005482120052083180005831a4005831b20053309ff33070a07821740058218480582195005821a5805847700ff8677017b161805821b88017b1b1005821b10027b1b0805821b18027b1b00057b1a58057b1950057b1848057b17400583180005831a40053309ff330b2033070a0f330820330750207a02003eff8218180178781f8218100178781e8218080178781d8218000178781c8218f80078781b8218f00078781a8218e8007878198218e0007878178218d8007878168218d0007878158218c8007878148218c0007878138218b8007878128218b0007878118218a80078780f8218a00078780e8218980078780d8218900078780c8218880078780b8218800078780a82187878780982187078780782186878780682186078780582185878780482185078780382184878780282184078780182189801787818821890017878108218a0017878088218a801787833072033082050207c021c3dff46171f46171e46171d46171c46171b46171a46171946171846171746171646171546171446171346171246171146171046170f46170e46170d46170c46170b46170a4617094617084617074617064617054617044617034617024617014607330840330750207e02b13cff8377831940053308400a08821758058218500582194805821a40056f776f886f996faa7b1a18057b1910057b1808057b17000549215805492150054921480549214005482120052083180005831a4005831b20053309ff33070a078217400582184805821950058477ff7b1718028488ff7b18100282160802d296068217b0019577018878018219b801c89808d48709889901821ac001c8a909d8a90a821bc801c8ba0a7b1a18057b1910057b1808057b17000549215805492150054921480549214005482120052083180005831a4005831b20053309ff33070a07821740058218480582195005821a58057b1a38027b1930027b1828027b172002492158027b165002821710027b1748029517400295182002821918027b19400250208002aa680133074033082050208202813bff7c78117c79107c7a127c7b13978808d4980897aa1097bb18d4ba0ad4a8087c79157c7a147c7b167c7c17979908d4a90997bb1097cc18d4cb0bd4b909979920d489027c79017c7a7c7b027c7c03979908d4a90997bb1097cc18d4cb0bd4b9097c7a057c7b047c7c067c760797aa08d4ba0a97cc10976618d46c0cd4ca0a97aa20d4a9097c7a197c7b187c7c1a7c761b97aa08d4ba0a97cc10976618d46c0cd4ca0a7c7b1d7c7c1c7c761e7c781f97bb08d4cb0b976610978818d46808d4b808978820d48a0a7c78097c7b087c7c0a7c760b978808d4b80897cc10976618d46c0cd4c8087c7b0d7c7c0c7c760e7c770f97bb08d4cb0b976610977718d46707d4b707977720d487076f786fa76f996f2ad4a909d4870ad49a0a98aa20d49808978820d4a80852080507837750208402503aff3a080000023a090800023a0a1000023a0b1800027b1858057b1950057b1a48057b1b4005821890017b1870058218a0017b1868058218a8017b186005821898017b1878058218207b1890058218307b1888058218387b1880058218287b189805837983174005330803330a0a06955140fa8210b8058215b0058216a8059511c005320033074033082050208602c039ff7c78117c79107c7a127c7b13978808d4980897aa1097bb18d4ba0ad4a8087c79157c7a147c7b167c7c17979908d4a90997bb1097cc18d4cb0bd4b909979920d489027c79017c7a7c7b027c7c03979908d4a90997bb1097cc18d4cb0bd4b9097c7a057c7b047c7c067c760797aa08d4ba0a97cc10976618d46c0cd4ca0a97aa20d4a9097c7a197c7b187c7c1a7c761b97aa08d4ba0a97cc10976618d46c0cd4ca0a7c7b1d7c7c1c7c761e7c781f97bb08d4cb0b976610978818d46808d4b808978820d48a0a7c78097c7b087c7c0a7c760b978808d4b80897cc10976618d46c0cd4c8087c7b0d7c7c0c7c760e7c770f97bb08d4cb0b976610977718d46707d4b707977720d487076f766fa86f996f277b1718027b191002d497076489d46808d47808988820d46707977720d4870752073a057b19080283973308207b170002502088027a38ff46171f46171e46171d46171c46171b46171a46171946171846171746171646171546171446171346171246171146171046170f46170e46170d46170c46170b46170a461709461708461707461706461705461704461703a00046170279461701c30046070882180802958704d88708821a1802c88a09d8a90ada880ac86a0ad86a08821b1002c88b0b7b19c8047b17c0047b1ad0049517e0049518c0047b1bd80450208a02efe08217e8048212f8048213e004821af004281b0433074033082050208c02b337ff7c78117c79107c7a127c7b13978808d4980897aa1097bb18d4ba0ad4a8087c79157c7a147c7b167c7c17979908d4a90997bb1097cc18d4cb0bd4b909979920d489027c79017c7a7c7b027c7c03979908d4a90997bb1097cc18d4cb0bd4b9097c7a057c7b047c7c067c760797aa08d4ba0a97cc10976618d46c0cd4ca0a97aa20d4a9097c7a197c7b187c7c1a7c761b97aa08d4ba0a97cc10976618d46c0cd4ca0a7c7b1d7c7c1c7c761e7c781f97bb08d4cb0b976610978818d46808d4b808978820d48a0a7c78097c7b087c7c0a7c760b978808d4b80897cc10976618d46c0cd4c8087c7b0d7c7c0c7c760e7c770f97bb08d4cb0b976610977718d46707d4b707977720d487076f766fa86f996f277b1718027b191002d497076489d46808d47808988820d46707977720d4870752072d037b19080283973308207b17000250208e026d36ff46171f46171e46171d46171c46171b46171a46171946171846171746171646171546171446171346171246171146171046170f46170e46170d46170c46170b46170a461709461708461707461706461705461704461703a00046170279461701c30046070882180802958704d88708821a1802c88a09d8a90ada880ac86a0ad86a08821b1002c88b0b7b1988047b1780047b1a90049517a004951880047b1b98045020900230e18217a8048212b8048213a004821ab004280e0233074033082050209202a635ff7c78117c79107c7a127c7b13978808d4980897aa1097bb18d4ba0ad4a8087c79157c7a147c7b167c7c17979908d4a90997bb1097cc18d4cb0bd4b909979920d489027c79017c7a7c7b027c7c03979908d4a90997bb1097cc18d4cb0bd4b9097c7a057c7b047c7c067c760797aa08d4ba0a97cc10976618d46c0cd4ca0a97aa20d4a9097c7a197c7b187c7c1a7c761b97aa08d4ba0a97cc10976618d46c0cd4ca0a7c7b1d7c7c1c7c761e7c781f97bb08d4cb0b976610978818d46808d4b808978820d48a0a7c78097c7b087c7c0a7c760b978808d4b80897cc10976618d46c0cd4c8087c7b0d7c7c0c7c760e7c770f97bb08d4cb0b976610977718d46707d4b707977720d487076f766fa86f996f277b1718027b191002d497076489d46808d47808988820d46707977720d48707520720017b19080283973308207b170002502094026034ff46171f46171e46171d46171c46171b46171a46171946171846171746171646171546171446171346171246171146171046170f46170e46170d46170c46170b46170a461709461708461707461706461705461704461703a00046170279461701c30046070882180802958704d88708821a1802c88a09d8a90ada880ac86a0ad86a08821b1002c88b0b7b1968027b1760027b1a700295178002951860027b1b78025020960273eb821788028212980282138002821a90020182181802d3870bd8870c648482190802d89308dab80cc96a0bd86a0a82161002c96206c9a606d8cb0ac9a606c9cb0bc94707c98708c99307d46808d4b709d48909d4b808989920978820d49808510804008376821700026468502098024833ff8378330701646933009a020a0d019511f0fe7b1008017b1500017b16f800951510018411f0827c7b1c48827c087b1c40827c107b1c388277187b173082877b17288287087b17208287107b17188287187b171082977b170882900882961082941882a382a20882ac1082aa1882b982b80882b71082bb187b1b687b17607b18587b19507b1a88007b1c80007b12787b13707b14a8007b16a0007b1098008217087b1790008217107b17c8008217187b17c0008217207b17b8008217287b17b0008217307b17e8008217387b17e0008217407b17d8009517d0009518b00095199000951a70951b50821c487b1cd00050209c029ecb9551f0fe82100801821500018216f8009511100132009511a0fe7b1058017b1550017b164801951560018411e08289187b19288289107b19188289087b191082887b180882787b18508278087b18588278107b18308276188317e0000a058217e8008218e0008119f0006f77987a206f88978b20d4ba0a7b1a489777206f99989920d497077b17409888207b1838330820330750209e02ba31ff7b16206f688216306f69821a586faa821b506fbb98bc38787c1f98bc30787c1e98bc28787c1d98bc20787c1c98bc18787c1b98bc10787c1a98bc08787c19787b1898ab38787b1798ab30787b1698ab28787b1598ab20787b1498ab18787b1398ab10787b1298ab08787b11787a10989a38787a0f989a30787a0e989a28787a0d989a20787a0c989a18787a0b989a10787a0a989a08787a0978790898893878790798893078790698892878790598892078790498891878790398891078790298890878790178783307203308205020a002e630ff46171f46171e46171d46171c46171b46171a46171946171846171746171646171546171446171346171246171146171046170f46170e46170d46170c46170b46170a461709461708461707461706461705461704461703461702461701460733084033075020a2027b30ff8377831920013308400a08821738018218300182192801821a20016f776f886f996faa7b1a18017b1910017b1808017b17000149213801492130014921280149212001482140012083180001831a2001831b40013309ff33070a0701801730018218200182192801821a38d3a707821a40d3a808d48707821848d39808d487075207ac008217087b17608217507b1780008217107b17688217587b1788008217187b17707b1690008217287b1778951780009518608219207b1998003300a402951120fd7b10d8027b15d0027b16c8029515e0028411e082897b1958018289087b1950018289107b1948018288187b18400182787b1838018278087b1830018278107b18280182761833082033073300bc0228622fff9551a0fe8210580182155001821648019511600132003307403308205020a602422fff7c78117c79107c7a127c7b13978808d4980897aa1097bb18d4ba0ad4a8087c79157c7a147c7b167c7c17979908d4a90997bb1097cc18d4cb0bd4b909979920d489027c79017c7a7c7b027c7c03979908d4a90997bb1097cc18d4cb0bd4b9097c7a057c7b047c7c067c760797aa08d4ba0a97cc10976618d46c0cd4ca0a97aa20d4a9097c7a197c7b187c7c1a7c761b97aa08d4ba0a97cc10976618d46c0cd4ca0a7c7b1d7c7c1c7c761e7c781f97bb08d4cb0b976610978818d46808d4b808978820d48a0a7c78097c7b087c7c0a7c760b978808d4b80897cc10976618d46c0cd4c8087c7b0d7c7c0c7c760e7c770f97bb08d4cb0b976610977718d46707d4b707977720d487076f766fa86f996f277b17587b1950d497076489d46808d47808988820d46707977720d48707520717017b194883973308207b17405020a802002eff46171f46171e46171d46171c46171b46171a46171946171846171746171646171546171446171346171246171146171046170f46170e46170d46170c46170b46170a461709461708461707461706461705461704461703a00046170279461701c300460708821848958704d88708821a58c88a09d8a90ada880ac86a0ad86a08821b50c88b0b7b19a8007b17a0007b1ab0009517c0009518a0007b1bb8005020aa02d7cd8217c8008212d8008213c000821ad000821858d3870bd8870c6484821948d89308dab80cc96a0bd86a0a821650c96206c9a606d8cb0ac9a606c9cb0bc94707c98708c99307d46808d4b709d48909d4b808989920978820d4980851080400837682174064685020ac02f02cff837833070164693300ae020a0d019511d07b10287b15207b161882761082791882780882757b18107b1908d49807d46508d47808988820d46707977720d487075207320183573308207b175020b0029e2cff46171f6e46171e6146171d6c46171c6146171b6246171a20461719654617186b46171761461716744617157346171420330220461713744617126e4617116546171069330c63787c0f46170e6946170d6646170c6646170b7546170a734617096e461708697872074617063a461705774617046f46170372787c0246170173821908d46909140ae0ffffff00000000d8a50a821b1094ba949a460745510a840082178377203308205020b202ef2bff46171f46171e46171d46171c46171b46171a46171946171846171746171646171546171446171346171246171146171046170f46170e46170d46170c46170b46170a4617094617084617074617064617054617044617034617024617016533086378788210288215208216189511303200009511987b10607b15587b1650828a18828b10828c088286d4ac08d4b609d48909989920d4b808978820d498087b17305208bf029567207b1748d86707c87c087b18407b1c18d8c805da7705c8b5057b1b20d8b5077b1a28c8a7077b17387b161083673308203306205020b4020e2bff78761f821848d45808821940821a38d4a909d49808988820d45909979920d4980846171e46171d46171c46171b46171a46171946171846171746171646171546171446171346171246171146171046170f46170e46170d46170c46170b46170a461709461708461707461706461705461704461703461702461701460752080202645682154883573308207b17085020b602792aff46171f2246171e46171d46171c46171b46171a46171946171846171746171646171546171446171346171246171146171046170f46170e46170d46170c46170b46170a461709461708461707461706461705461704461703461702461701821838d4860a330601140800000000010000007b181408e0ffffff00000000d8850882194094987b1a3894a8460751085e018215088357203308205020b802d929ff46171f6e46171e6146171d6c46171c6146171b62330c20787c1a461719654617186b461717614617167446171573787c14461713744617126e461711654617106933066378760f46170e6946170d6646170c66330b75787b0b46170a734617096e46170869787c074617063a461705774617046f461703727876024617017382199599c0821a48d89a09821a4094a9821a3894a94607455109b3008357403308205020ba023129ff46171f46171e46171d46171c46171b46171a46171946171846171746171646171546171446171346171246171146171046170f46170e46170d46170c46170b46170a4617094617084617074617064617054617044617034617024617016546076382181095878000d88708821a18c88a09d8a90ada880a821820c88a0ad88a08821b28c8b808821b307bb77bb9087bba107bb8188210608215588216509511683200006f6c821828016f88821930016f99821a38016faa787a18787910787808787c98ab387b1b1801787b1f98ab307b1b1001787b1e98ab287b1b0801787b1d98ab207b1b0001787b1c98ab187b1bf800787b1b98ab107b1bf000787b1a7b1a200198aa087b1ae800787a19989a387b1ae000787a17989a307b1ad800787a16989a287b1ad000787a15989a207b1ac800787a14989a187b1ac000787a13989a107b1ab800787a127b1928019899087b19b0007879119889387b19a80078790f9889307b19a00078790e9889287b19980078790d9889207b19900078790c9889187b19880078790b9889107b19800078790a7b1830019888087b187878780998c8387b187078780798c8307b186878780698c8287b186078780598c8207b185878780498c8187b185078780398c8107b18487878027b1c380198c8087b18407878013307203308205020be024227ff46171f0246171e46171d46171c46171b46171a46171946171846171746171646171546171446171346171246171146171046170f46170e46170d46170c46170b46170a461709461708461707461706461705461704461703461702461701460733084033075020c002d626ff8377831980023308400a08821798028218900282198802821a80026f776f886f996faa7b1a58027b1950027b1848027b17400249219802492190024921880249218002482160022083184002831a8002831b60023309ff33070a0701821798028212800282199002821a880282184001d3870bd8870682174801d8790cdbb60c82185001d38a06d88a0a82185801d88208db6a08d39707d4b707db7c085208aa0833082033075020c2022926ff821828017878108218a80078780f8218a00078780e8218980078780d8218900078780c8218880078780b8218800078780a82187878780982183001787808821870787807821868787806821860787805821858787804821850787803821848787802821840787801821838017878821820017878188218e0007878178218d8007878168218d0007878158218c8007878148218c0007878138218b8007878128218b0007878118218180178781f8218100178781e8218080178781d8218000178781c8218f80078781b8218f00078781a8218e8007878193307203308205020c4024525ff46171f0246171e46171d46171c46171b46171a46171946171846171746171646171546171446171346171246171146171046170f46170e46170d46170c46170b46170a461709461708461707461706461705461704461703461702461701460733084033075020c602d924ff8377831980023308400a08821798028218900282198802821a80026f776f886f996faa7b1a207b1a58027b19287b1950027b18307b1848027b17387b17400249219802492190024921880249218002482160022083184002831a8002831b60023309ff33070a070182199802821a90028213880282188002821b4001d3b907d8b90b82124801d82a0c7b1c10da7c0b821c5001d3c304d8c306821c58017b18d8c800da4006d32a0cd4c707da760b520bf70882174801c97a07c9670a7b1a18d86707821a4001c9a909821810c98909c979097b191082175001c97307c907077b1708821758018218c978077b178217287b1750028217307b1748028217387b1740028216207b16580249219802492190024921880249218002482160022083184002831a8002831b60023309ff33070a077b1658028217287b1750028217307b1748028217387b1740028217107b1798028217187b1790028217087b17880282177b17800283184002831a80023309ff330b2033070a0f831720020a058217280281183002821920026f77977a206f88988820d48a0a9877206f98978920d49707988820821940017b19f801821948017b19f001821950017b19e801821958017b19e001492118027b1810027b170802951700029518e0017b1a00025020c80212500133082033075020ca02ea22ff8218180178781f8218100178781e8218080178781d8218000178781c8218f80078781b8218f00078781a8218e8007878198218e0007878178218d8007878168218d0007878158218c8007878148218c0007878138218b8007878128218b0007878118218a80078780f8218a00078780e8218980078780d8218900078780c8218880078780b8218800078780a8218787878098218707878078218687878068218607878058218587878048218507878038218487878028218407878018218200178781882182801787810821830017878088218380178783307203308205020cc020622ff46171f0246171e46171d46171c46171b46171a46171946171846171746171646171546171446171346171246171146171046170f46170e46170d46170c46170b46170a461709461708461707461706461705461704461703461702461701460733084033075020ce029a21ff8377831980023308400a08821798028218900282198802821a80026f776f886f996faa7b1a58027b1950027b1848027b17400249219802492190024921880249218002482160022083184002831a8002831b60023309ff33070a07821798027b17f000821790027b17f800821788027b170001821780027b1708013307403308205020d0021221ff7c78117c79107c7a127c7b13978808d4980897aa1097bb18d4ba0ad4a8087c79157c7a147c7b167c7c17979908d4a90997bb1097cc18d4cb0bd4b909979920d489027c79017c7a7c7b027c7c03979908d4a90997bb1097cc18d4cb0bd4b9097c7a057c7b047c7c067c760797aa08d4ba0a97cc10976618d46c0cd4ca0a97aa20d4a9097c7a197c7b187c7c1a7c761b97aa08d4ba0a97cc10976618d46c0cd4ca0a7c7b1d7c7c1c7c761e7c781f97bb08d4cb0b976610978818d46808d4b808978820d48a0a7c78097c7b087c7c0a7c760b978808d4b80897cc10976618d46c0cd4c8087c7b0d7c7c0c7c760e7c770f97bb08d4cb0b976610977718d46707d4b707977720d487076f766faa6f986f277b1718017b181001d48707d46a08d47808988820d46707977720d487075207b10483a73308207b17e0007b1ae8005020d202ce1fff821840016f88821948016f99821a50016faa821b58016fbb98bc38787c1f98bc30787c1e98bc28787c1d98bc20787c1c98bc18787c1b98bc10787c1a98bc08787c19787b18787a1098ab38787b1798ab30787b1698ab28787b1598ab20787b1498ab18787b1398ab10787b1298aa08787a11787908989a38787a0f989a30787a0e989a28787a0d989a20787a0c989a18787a0b989a10787a0a989908787909787898893878790798893078790698892878790598892078790498891878790398891078790298880882191001d46909140ae0ffffff00000000821be800d8ab0a821b180194ba949a787801510aae038216e0008367203308205020d402ce1eff8218f0006f888219f8006f99821a00016faa821b08016fbb98bc38787c1f98bc30787c1e98bc28787c1d98bc20787c1c98bc18787c1b98bc10787c1a98bc08787c19787b18787a1098ab38787b1798ab30787b1698ab28787b1598ab20787b1498ab18787b1398ab10787b1298aa08787a11787908989a38787a0f989a30787a0e989a28787a0d989a20787a0c989a18787a0b989a10787a0a989908787909787898893878790798893078790698892878790598892078790498891878790398891078790298880878780133084064675020d602f71dff3a082000023a092800023a0a3000023a0b3800027b1898027b1990027b1a88027b1b8002821820017b18b802821828017b18b002821830017b18a802821838017b18a002837983178002330802330a400a06955120fd8210d8028215d0028216c8029511e00232003307403308205020d802821dff7c78117c79107c7a127c7b13978808d4980897aa1097bb18d4ba0ad4a8087c79157c7a147c7b167c7c17979908d4a90997bb1097cc18d4cb0bd4b909979920d489027c79017c7a7c7b027c7c03979908d4a90997bb1097cc18d4cb0bd4b9097c7a057c7b047c7c067c760797aa08d4ba0a97cc10976618d46c0cd4ca0a97aa20d4a9097c7a197c7b187c7c1a7c761b97aa08d4ba0a97cc10976618d46c0cd4ca0a7c7b1d7c7c1c7c761e7c781f97bb08d4cb0b976610978818d46808d4b808978820d48a0a7c78097c7b087c7c0a7c760b978808d4b80897cc10976618d46c0cd4c8087c7b0d7c7c0c7c760e7c770f97bb08d4cb0b976610977718d46707d4b707977720d487076f766fa86f996f277b1758017b195001d497076489d46808d47808988820d46707977720d4870752071f017b19480183973308207b1740015020da023c1cff46171f46171e46171d46171c46171b46171a46171946171846171746171646171546171446171346171246171146171046170f46170e46170d46170c46170b46170a461709461708461707461706461705461704461703a00046170279461701c30046070882184801958704d88708821a5801c88a09d8a90ada880ac86a0ad86a08821b5001c88b0b7b1968017b1760017b1a700195178001951860017b1b78015020dc021ef0821788018212980182138001821a900182185801d3870bd8870c648482194801d89308dab80cc96a0bd86a0a82165001c96206c9a606d8cb0ac9a606c9cb0bc94707c98708c99307d46808d4b709d48909d4b808989920978820d49808510861004921d0014921c8014921c001140700000000717b484e9518c0017b17d80133075020de02bd1bff4921b8014921b0014921a001113307049518a0014921a8015020e0029e1bff33082433075020e202e21aff83783307013309240a0d0183768217400164685020e402c81aff837833070164693300e6020a0d019511b07b10487b15409515508411f08272827308827b10827718828c828908828a108288187b18187b1a107b19087b1c7b17387b1b307b132895172064187b12205020e8023be89551b082104882154095115032009511e0fd7b1018027b1510027b160802951520028411e082b30882b282b41082b0188e3b882c4085cc01db3b0c8f0b8e46db0b06d4040bdabc065106e9067b1088007b1490007b1398007b12a0007b17800082a61882ac1082ab82aa08d4cb077b16b0007b1aa800d46a0ad4a7079877207b1cb800d4ca0a97aa20d4a7075207a4068297187b17388297107b17408297087b174882977b17508287187b17588287107b17608287087b176882877b177064b683b88317e0017b18300a03018217b8008218b000d487071408e0ffffff000000007b1678d886088219a80094989478510841068217f8017b17188217f0017b17208217e8017b17288216e0018217308378208317e0010a0333082033075020ea024f19ff8218186f888219206f99821a286faa6f6b98bc38787c1f98bc30787c1e98bc28787c1d98bc20787c1c98bc18787c1b98bc10787c1a98bc08787c19787b1898ab38787b1798ab30787b1698ab28787b1598ab20787b1498ab18787b1398ab10787b1298ab08787b11787a10989a38787a0f989a30787a0e989a28787a0d989a20787a0c989a18787a0b989a10787a0a989a08787a0978790898893878790798893078790698892878790598892078790498891878790398891078790298890878790178783307203308205020ec027e18ff46171f46171e46171d46171c46171b46171a46171946171846171746171646171546171446171346171246171146171046170f46170e46170d46170c46170b46170a461709461708461707461706461705461704461703461702461701460733084033075020ee021318ff83778319e0013308400a088217e0018218e8018219f001821af8016f777b17306f877b17286f977b17206fa68217387b1718018217407b1710018217487b1708018217507b1700018217587b1738018217607b1730018217687b1728018217707b172001821788007b175801821790007b175001821798007b1748018217a0007b1740018217b0007b1778018217b8007b1770018217a8007b176801951780019518600195194001951a2001951b0001821c787b1c60013300f002951100fc7b10f8037b15f0037b16e803951500048411e07b170882a21882b41882a7107b17b00082a37b13b80082b682a00882bc0882b710c86303d86306c80c0bc86b0bd3cb0ad8cb0cdaa60cc8240a8214b000c84706d87607c8a707828a7b1a78828a087b1a70828a107b1a688288187b186082987b18508298087b18408298107b18308298187b1828c86c0cd86c08c8870a7b1300037b1238037b1430037b1028038217b8007b1720037b1b08037b1c10039517400395182003951900037b1a18033300220628094a018217b8017b17a8008217b0017b17a0008217a8017b1798008217a0017b179000956704d86708821a20c88a09d8a90ada880a821890017b18b800821828c88a0ad88a08821b30c8b808821b88017b1bb000821680017b1ad0017b19c8017b17c0017b18d80148210002204921f8014921f0014921e8014921e0018318c001831ae001831b00023309ff33070a07018217e8018218e0018219f001821ab000d3a707d36808821ab800d3a909979920989920d48707d4970752073882178000821890007b78821898007b78088218a0007b78108218a8007b78189551e0fd8210180282151002821608029511200232003307403308205020f2029015ff7c78117c79107c7a127c7b13978808d4980897aa1097bb18d4ba0ad4a8087c79157c7a147c7b167c7c17979908d4a90997bb1097cc18d4cb0bd4b909979920d489027c79017c7a7c7b027c7c03979908d4a90997bb1097cc18d4cb0bd4b9097c7a057c7b047c7c067c760797aa08d4ba0a97cc10976618d46c0cd4ca0a97aa20d4a9097c7a197c7b187c7c1a7c761b97aa08d4ba0a97cc10976618d46c0cd4ca0a7c7b1d7c7c1c7c761e7c781f97bb08d4cb0b976610978818d46808d4b808978820d48a0a7c78097c7b087c7c0a7c760b978808d4b80897cc10976618d46c0cd4c8087c7b0d7c7c0c7c760e7c770f97bb08d4cb0b976610977718d46707d4b707977720d487076f766fa86f996f277b17b8007b19b000d497076489d46808d47808988820d46707977720d4870752071f017b19a80083973308207b17a0005020f4024a14ff46171f46171e46171d46171c46171b46171a46171946171846171746171646171546171446171346171246171146171046170f46170e46170d46170c46170b46170a461709461708461707461706461705461704461703a00046170279461701c3004607088218a800958704d88708821ab800c88a09d8a90ada880ac86a0ad86a08821bb000c88b0b7b19c8007b17c0007b1ad0009517e0009518c0007b1bd8005020f6025dcb8217e8008212f8008213e000821af0008218b800d3870bd8870c64848219a800d89308dab80cc96a0bd86a0a8216b000c96206c9a606d8cb0ac9a606c9cb0bc94707c98708c99307d46808d4b709d48909d4b808989920978820d4980851081900330733085020f8023713ff837833070133090a0d0183768217a00064685020fa021e13ff837833070164693300fc020a0d019511a0fd7b1058027b1550027b164802951560028411e082c6187b16a80082c6107b16880082c6087b166082cc7b1c3882bc187b1ca00082bc107b1c7882bc087b1c5082bb7b1b2882ab187b1b900082ab107b1b6882ab087b1b4082aa7b1a18829a187b1a8000829a107b1a58829a087b1a3082997b19108289187b19708289107b19488289087b192082887b180882787b18d0008278087b18d8008278107b18b0008276188317e0010a058217e8018218e0018119f0016f77987a206f88978b20d4ba0a7b1ac8009777206f99989920d497077b17c0009888207b18b80033082033075020fe022512ff7b1698006f688216b0006f69821ad8006faa821bd0006fbb98bc38787c1f98bc30787c1e98bc28787c1d98bc20787c1c98bc18787c1b98bc10787c1a98bc08787c19787b1898ab38787b1798ab30787b1698ab28787b1598ab20787b1498ab18787b1398ab10787b1298ab08787b11787a10989a38787a0f989a30787a0e989a28787a0d989a20787a0c989a18787a0b989a10787a0a989a08787a097879089889387879079889307879069889287879059889207879049889187879039889107879029889087879017878330720330820502000034d11ff46171f46171e46171d46171c46171b46171a46171946171846171746171646171546171446171346171246171146171046170f46170e46170d46170c46170b46170a4617094617084617074617064617054617044617034617024617014607330840330750200203e210ff8377831920023308400a08821738028218300282192802821a20026f776f886f996faa7b1a18027b1910027b1808027b17000249213802492130024921280249212002482140022083180002831a2002831b40023309ff33070a0701801730028218200282192802821ab800d3a707821ac000d3a808d487078218c800d39808d487075207e5008217387b17e0008217287b1700018217187b1720018217107b1740018217087b1760018217d0007b1780018217607b17e8008217507b1708018217407b1728018217307b1748018217207b1768018217d8007b178801821788007b17f0008217787b1710018217687b1730018217587b1750018217487b1770017b1690018217a8007b17f8008217a0007b171801821790007b173801821780007b1758018217707b177801951780019518600195194001951a2001951b0001951ce000821698007b1698015020040353209551a0fd821058028215500282164802951160023200330740330820502006036d0fff7c78117c79107c7a127c7b13978808d4980897aa1097bb18d4ba0ad4a8087c79157c7a147c7b167c7c17979908d4a90997bb1097cc18d4cb0bd4b909979920d489027c79017c7a7c7b027c7c03979908d4a90997bb1097cc18d4cb0bd4b9097c7a057c7b047c7c067c760797aa08d4ba0a97cc10976618d46c0cd4ca0a97aa20d4a9097c7a197c7b187c7c1a7c761b97aa08d4ba0a97cc10976618d46c0cd4ca0a7c7b1d7c7c1c7c761e7c781f97bb08d4cb0b976610978818d46808d4b808978820d48a0a7c78097c7b087c7c0a7c760b978808d4b80897cc10976618d46c0cd4c8087c7b0d7c7c0c7c760e7c770f97bb08d4cb0b976610977718d46707d4b707977720d487076f766fa86f996f277b17d8007b19d000d497076489d46808d47808988820d46707977720d4870752071f017b19c80083973308207b17c00050200803270eff46171f46171e46171d46171c46171b46171a46171946171846171746171646171546171446171346171246171146171046170f46170e46170d46170c46170b46170a461709461708461707461706461705461704461703a00046170279461701c3004607088218c800958704d88708821ad800c88a09d8a90ada880ac86a0ad86a08821bd000c88b0b7b19a8017b17a0017b1ab0019517c0019518a0017b1bb80150200a03fbad8217c8018212d8018213c001821ad0018218d800d3870bd8870c64848219c800d89308dab80cc96a0bd86a0a8216d000c96206c9a606d8cb0ac9a606c9cb0bc94707c98708c99307d46808d4b709d48909d4b808989920978820d498085108040083768217c000646850200c03100dff8378330701646933000e030a0d018282828308828410828818829a18829b10829c0882997b7a387b7b307b7c287b79207b78187b74107b73087b7232009511a07b10587b15507b1648828a18828b10828c088286d4ac08d4b609d48909989920d4b808978820d498087b172852081e029567207b1730d86707c87c087b18407b1c08d8c805da7705c8b5057b1b10d8b5077b1a18c8a7077b17387b16836733082033062050201003650cff78761f8218306486d45808821940821b38d4b909d498089888207b1520d45909979920d4980846171e46171d46171c46171b46171a46171946171846171746171646171546171446171346171246171146171046170f46170e46170d46170c46170b46170a461709461708461707461706461705461704461703461702461701460752085d018365330820645750201203d10bff46171f1f46171e46171d46171c46171b46171a46171946171846171746171646171546171446171346171246171146171046170f46170e46170d46170c46170b46170a461709461708461707461706461705461704461703461702461701821820821938d498081409e0ffffff00000000d89609821a4094a9948946075109ce0083572033082050201403430bff46171c7046171b6d461717624617136e4617126e46171e7946170e7946171a654617186546170b6546171d744617157446170a744617116146170d61461709614617086746171f461719204617162046170f20461707204617063a46170c77461705774617146f4617046f461703724617106346170263461701734607458218958760d88708821a08c88a09d8a90ada880a821810c88a0ad88a08821b18c8b808821b287bb77bb9087bba107bb8188210588215508216489511603200009511a07b10587b15507b1648828a18828b10828c088286d4ac08d4b609d48909989920d4b808978820d498087b17205208be029567207b1740d86707c87c087b18387b1c08d8c805da7705c8b5057b1b10d8b5077b1a18c8a7077b17307b16836733082033062050201603170aff78761f821840d45808821938821a30d4a909d49808988820d45909979920d4980846171e46171d46171c46171b46171a46171946171846171746171646171546171446171346171246171146171046170f46170e46170d46170c46170b46170a46170946170846170746170646170546170446170346170246170146075208020282164083673308207b1728502018038409ff46171f2d46171e46171d46171c46171b46171a46171946171846171746171646171546171446171346171246171146171046170f46170e46170d46170c46170b46170a461709461708461707461706461705461704461703461702461701821830d4850a140500000000010000001408e0ffffff00000000d8860882193894987b1a3094a846075108650182172883772033082050201a03e908ff46171e6246171a6e4617196e4617136e4617116946170e7946171c7446170a74461712674617086746171f6546171d204617162046170f20461707204617063a46170c77461705774617176346170263460745330b6f787b1b9558c0821940d88908330c61787c188219389498330672787615461714658219309498330573787510787c0d46170b65787c09787b047876037875015108bc0082172883774033082050201c034008ff46171f46171e46171d46171c46171b46171a46171946171846171746171646171546171446171346171246171146171046170f46170e46170d78750c78750b46170a65787609461708644617076446170661461705204617046f787603461702654617017a460720821895878000d88708821a08c88a09d8a90ada880a821810c88a0ad88a08821b18c8b808821b207bb77bb9087bba107bb818821058821550821648951160320000951120ff7b10d8007b15d0007b16c8009515e0008411e0828218828c10828b828608d42c0888ba20946a948a520a49038298187b18508298107b18408298087b185882987b18208278187b188278107b18088278087b181082777b171833082033077b12287b1c487b16387b1b3050201e032207ff82186f888219086f99821a106faa821b186fbb98bc38787c1f98bc30787c1e98bc28787c1d98bc20787c1c98bc18787c1b98bc10787c1a98bc08787c19787b18787a1098ab38787b1798ab30787b1698ab28787b1598ab20787b1498ab18787b1398ab10787b1298aa08787a11787908989a38787a0f989a30787a0e989a28787a0d989a20787a0c989a18787a0b989a10787a0a98990878790978789889387879079889307879069889287879059889207879049889187879039889107879029888087878013308203307502020035006ff83778319a0003308200a080182192095981fd898076493821b58c87b0ad8ba0964b2da7709821640c869097b191897993b98ab05d4b90997aa3b988805d4a80c8838209428821ab8008213b000821750d4760b94b86fab6f369489948cc8bc0c7b1c58d8bc0cc8c60ac89a02d3620ad86200daac0082173095741fd87407821938c8790ad89a0cda770c821748c87c0c97c73b98a905d4970797aa3b984905d4a909c89b04d8b409c8960ac87a03d36307d8630ada790a821b18821740d87b07821950c8970798b905977b3bd4b909987705821ba8008216a000948994876fb86f6b7b1b50c8b707c88909d88906c86707c8090bd89b06c87606821748d87c07821928c8970798cc0597793bd4c909821c58987705c88909c8a900d88908d89009821a50c8a707c88707c8970ad33207d83208d84c09db7809d80b07d3a6087b1a40d8a60ada870ad30b07d48707db7a095109dd0064b77b14387b13307b1028017b17487b12507b1c587b1790007b1288007b1c80007b1698004921b8004921b0004921a8004921a0004811602083188000831aa000831b603309ff33070a077b1698008217487b1790008217507b1788008217587b1780004921b8004921b0004921a8004921a00083188000831aa0003309ff330b2033070a0f01821028821330821438821250821c5895cc0188c701c87202d42c07887701821848c88707d88708c88606d84c08d33209d8320ada980ad80708821b40d3b609d8b60bda980bd30708d49808da8a0b520b37ff955120ff8210d8008215d0008216c8009511e0003200951100fd7b10f8027b15f0027b16e802951500038411e0829c18829a10829b087b1a487b1c18d4ac0c7b1b4088ba017b1cb80094ca510a920a82997b19508289187b19788289107b19708289087b196082887b1868827a1082780882798277187b1a387b1ab0027b18207b18a8027b19287b19a0027b17307b17b8024921d8024921d0024921c8024921c00248218002208318a002831ac002831b80023309ff33070a07018217d0028218c8028219c002821ad802977b3f988c01d4cb0b97ac3f987701d4c70697883f989c01d4c80898a3018499019a97889201848a7fd2670cd27b0bdb980ad2370888a72094b7d48c099497ab721a0a8217507b17c0017b1ae0018217287b1700028217407b17c8017b1be8018217207b1708028217487b17d0017b1cf0018217387b1710028216187b16d8017b18f801951700029518e0019519c001821a307b1a18025020220329fb821c48821a40646b8ea7821650886820858801dba7088ec78eb9dab7098217b800da78098212386467510962028477e07b175833082033076426502024037902ff8218306f886f69821a206faa821b286fbb98bc38787c1f98bc30787c1e98bc28787c1d98bc20787c1c98bc18787c1b98bc10787c1a98bc08787c19787b18787a1098ab38787b1798ab30787b1698ab28787b1598ab20787b1498ab18787b1398ab10787b1298aa08787a11787908989a38787a0f989a30787a0e989a28787a0d989a20787a0c989a18787a0b989a10787a0a9899087879097878988938787907988930787906988928787905988920787904988918787903988910787902988808787801330820330750202603a901ff83778319c0023308200a08018217c0028218c8028219d002821ad8026f777b17b0006f846f977b17b8006fa77b17a00082175851073c04330a330b330633006447017b1080007b17a800821868c8a8087b1a9000d8a807821960c8b909c87909d3b90a7b1b8800d8b90bdaa70b821770c867077b169800d8670a821c78c80c0cc8ca0ac87b0bd87b07c8a707d49707d4b809d47909d4b707989920977720d497075207c2078388831720020a03821720028218280282193002821a3802821bb0007b1bb802821ba8007b1bb002821bb8007b1ba8028216a0007b16a0027b1ad8027b19d0027b18c8027b17c0028318a002831ac0023309ff330b2033070a0f019566018867018218b800c878087b18b8007b16a0008217b800d467078877018218a800c87804d8840a82179000957920d87907821b8800c87b02d8b20bda770b821c9800c8bc03d8c30b82188000c8b808d4830b821c58d8c90c942c94bc8217b000c8a7077b17b000649a642b643664476480520ccffe280103d4c707d4ba08d4870751078706821970821a68d49a07821878821b60d4b808d48707987720d49808978820d487075207bb0683a8831760020a03821778027b17b800821770027b17b00082146802821060024621bf014621be014621bd014621bc014621bb014621ba014621b9014621b8014621b7014621b6014621b5014621b4014621b3014621b2014621b1014621b0014621af014621ae014621ad014621ac014621ab014621aa014621a9014621a8014621a7014621a6014621a5014621a4014621a3014621a2014621a1014621a00146219f01ff0046219e01ff0046219d01ff0046219b01ff0046219801ff46219701ff0046219601ff0046219501ff0046219301ff0046219001ff46218f01ff0046218e01ff0046218d01ff0046218b01ff0046218801ff46218701ff0046218601ff0046218501ff0046218301ff0046218001ff1407ffffffff0000000078179c01140cffffffffffff0000781c9a01140bffffffffffffff00781b990178179401781c9201781b910178178c01781c8a01781b890178178401781c8201781b8101821250842b1f95178001c87b0b7cb7197cbc187cb61a7cb81b977708d4c707976610978818d46808d487077cb81d7cbc1c7cb61e7cb91f978808d4c808976610979918d46909d49808978820d478037cb7117cb8107cb9127cb613977708d48707979910976618d46909d497077cb8157cb9147cb6167cba17978808d4980897661097aa18d46a0ad4a808978820d478067cb7097cb8087cb90a7cba0b977708d4870797991097aa18d4a909d4790c7cb80d7cb90c7cba0e7cb70f978808d4980897aa10977718d4a707d48707977720d4c7077cb8017cb97cba027cbc03978808d4980897aa1097cc18d4ca0ad4a8087cb9057cba047cbc067cbb07979908d4a90997cc1097bb18d4cb0bd4b909979920d49808e08000e074098217b000e067088217b800e03707982b3f821a4097ac01d4cb0b98ac3f821a4897a601d46c0c98a63f821a1897aa01d46a0ad4a707d4c808d4b909972a01d4a00a82123828a503330933023303330001821650821a58d36a0a821c48d4ca0a821740821b18d47b0bd4ba0a510a25037b14a800821a68c89a0ad89a09821b60c82b0bc89b0bd32b0cd82b08dac908821970c83909c89808d8980cd83907821978c80909c89707c8c707d48a09d4b707d47909989920d48707977720d4970752077d0383a8831740020a03821758027b17980082135002821448028210400246217f0146217e0146217d0146217c0146217b0146217a014621790146217801462177014621760146217501462174014621730146217201462171014621700146216f0146216e0146216d0146216c0146216b0146216a014621690146216801462167014621660146216501462164014621630146216201462161014621600146215f01ff0046215e01ff0046215d01ff0046215b01ff0046215801ff46215701ff0046215601ff0046215501ff0046215301ff0046215001ff46214f01ff0046214e01ff0046214d01ff0046214b01ff0046214801ff46214701ff0046214601ff0046214501ff0046214301ff0046214001ff1407ffffffff0000000078175c01140cffffffffffff0000781c5a01140bffffffffffffff00781b590178175401781c5201781b510178174c01781c4a01781b490178174401781c4201781b4101821b5084bb1f95174001c87b0b7cb7197cbc187cb61a7cb81b977708d4c707976610978818d46808d487077cb81d7cbc1c7cb61e7cb91f978808d4c808976610979918d46909d49808978820d478027cb7117cb8107cb9127cb613977708d48707979910976618d46909d497077cb8157cb9147cb6167cba17978808d4980897661097aa18d46a0ad4a808978820d478067cb7097cb8087cb90a7cba0b977708d4870797991097aa18d4a909d4790c7cb80d7cb90c7cba0e7cb70f978808d4980897aa10977718d4a707d48707977720d4c7077cb8017cb97cba027cbc03978808d4980897aa1097cc18d4ca0ad4a8087cb9057cba047cbc067cbb07979908d4a90997cc1097bb18d4cb0bd4b909979920d49808e08008e07407e06309821a9800e02a0a821bb0007b1bb802821ba8007b1bb002821bb8007b1ba802821ba0007b1ba0027b1ad8027b19d0027b17c8027b18c0028318a002831ac0023309ff330b2033070a0f821650821c488217400198c93f821818978801d4980298783f97c901d4980898693f977a01d4a909976a0195aa01821b207b1ba802821b287b1ba002821b387b1bb002821b307b1bb8027b1ac0027b19c8027b18d0027b12d8022833330a3309330801821b207b1ba802821b287b1ba0027b12b002821b307b1bb8027b1ac0027b19c8027b18d0027b17d802018318a002831ac0023309ff330b2033070a0f955100fd8210f8028215f0028216e802951100033200004921f0004921e8004921e000140700000000717b484e9518e0007b17f800330750202803cef9fe4921d8004921d0004921c000413307049518c0004921c80033002c0328abf9fe492130014921280149212001140700000000717b484e951820017b173801330750202a0387f9fe49211801492110014921000122330704951800014921080150202c0368f9fe330824330750202e03acf8fe8378330701330924330030030a0d01951170ff7b1088007b1580007b1678951590008411f0827a7b1a088273088274108270188282828b08828c10828a1882968298088297108299187b19287b17207b18187b16107b1a487b1c407b1b387b12307b10687b14607b1358951750951830951910821a087b1a505020320327f4955170ff8210880082158000821678951190003200951100ff7b10f8007b15f0007b16e8008283188284108285088282d43508d44206d48606986620d44808978820d468087b17185208a108821700018278107b188278087b180882777b171082c7187b1780009527607b17d000d82707c875087b18c8007b15a000d85806da770682c7107b177882c7087b177082c77b17e00082b7187b172882b7107b173082b7087b172082b77b173882a7187b17c00082a7107b17b80082a7087b17b00082a77b17d8008297187b17588297107b17608297087b175082977b1768c846067b149800d846077b139000c873057b12a80083273308207b178800502034032bf7fe821ad00046171f60d46a087b15408219c800d45909d498089888207b1648d46909979920d4980846171e46171d46171c46171b46171a46171946171846171746171646171546171446171346171246171146171046170f46170e46170d46170c46170b46170a46170946170846170746170646170546170446170346170246170146075208640783a73308205020360398f6fe8215d8006f5898893878791f98893078791e98892878791d98892078791c98891878791b98891078791a9889087879198212b0006f29787818989838787817989830787816989828787815989820787814989818787813989810787812821bb8006fba78791098990878791198a83878780f98a83078780e98a82878780d98a82078780c98a81878780b98a81078780a8216c0006f68787a0898aa08787a09988938787907988930787906988928787905988920787904988918787903988910787902821958821c50d49c0c821368821960d4930ad4ca0ad4c90998aa20979920d4a90978789888087878015209680664bad4a507d46208d48707987720d4a808978820d487078219a800821aa00082129000821c980052073d06821748821840d487071408e0ffffff00000000821bd000d88b08821bc80094b8947851081706959b8000d89b07c87a06d8a608da7708c8c8087b18d000d8c807c827077b17c80083337b136883b783587b186064b55020380321f5fe83778218608219680a02018217d800c857077b1568d857088219b000c86909c88909d3690a7b16b000d8690bdaa80b8218b800821cd000c8c808c88b0bd88b0ad8c808821cc0008216c800c86c0cc8c808c8a808d4b70ad49808d48a0a98aa20d4b808978820d4a808520874051405e0ffffff01000000837733082050203a039ef4fe46171f46171e46171d46171c46171b46171a46171946171846171746171646171546171446171346171246171146171046170f46170e46170d46170c46170b46170a46170946170846170746170646170546170446170346170246170146078217d80095771f7b1560d25707821668c8670cd87c078218b000c8780a94a78218d000c8780b7b1bd800d88b078218c800c878067b16d0008219a000d39a07d89a0864a38212a800d82c05da7508821a9800c9ab07d8ab0a821b9000c8ba0ad8870bc9a60ac9ba0a7b1ac800c987077b17c000c85909c993077b17b8006436c92c077b17b00064c58217880083772033082050203c03a6f3fe8218c8006f888219c0006f99821ab8006faa821bb0006fbb787b1898bc38787c1f98bc30787c1e98bc28787c1d98bc20787c1c98bc18787c1b98bc10787c1a98bb08787b19787a1098ab38787b1798ab30787b1698ab28787b1598ab20787b1498ab18787b1398ab10787b1298aa08787a11787908989a38787a0f989a30787a0e989a28787a0d989a20787a0c989a18787a0b989a10787a0a9899087879097878988938787907988930787906988928787905988920787904988918787903988910787902988808821ad800d4a5097b16c800821bd000d46b0bd4b909989920d4ba0a97aa20d4a909787801520976037b15c000835733082050203e03a6f2fe8212e0006f2898893878791f98893078791e98892878791d98892078791c98891878791b98891078791a9889087879198213706f397878189898387878179898307878169898287878159898207878149898187878139898107878128216786f6a78791098990878791198a83878780f98a83078780e98a82878780d98a82078780c98a81878780b98a81078780a821c80006fc8787a0898aa08787a09988938787907988930787906988928787905988920787904988918787903988910787902821928821520d49505821438821930d4940ad45a0ad4590998aa20979920d4a909787898880878780152097802d46207d4c308d48707987720d46808978820d4870752075f028219d800821bd000d4b9071408e0ffffff00000000821ac000d88a08821cc80094c894785108370295a620d8a607c87c05d8c508da7708c898087b18c800d89807c8b7077b17d80083447b14d00083678118e0007b18c0005020400340f1fe83778218c0008219d0000a02018217e000c867077b16c000d86708821970c85909c88909d3590a7b15d000d8590b8215c800daa80b821878c85808c88b0bd88b0ad85808821c80008216d800c86c0cc8c808c8a808d4b70ad49808d48a0a98aa20d4b808978820d4a80852089201837733082050204203c6f0fe46171f46171e46171d46171c46171b46171a46171946171846171746171646171546171446171346171246171146171046170f46170e46170d46170c46170b46170a46170946170846170746170646170546170446170346170246170146078217e00095771f821860d287078218c000c887077b17e000d887078218d000c878097b19c000d88906da7706c85606d856078218d800c887077b17d8008217977720987520821788008377403308205020440311f0fe6f588219086f99821a106faa98ab38787b1f98ab30787b1e98ab28787b1d98ab20787b1c98ab18787b1b98ab10787b1a98ab08787b19787a18989a38787a17989a30787a16989a28787a15989a20787a14989a18787a13989a10787a12989a08787a1178791046170b46170a461709787808461707461706461705461704461703461702461701460798893878790f98893078790e98892878790d98882078780c8217188218e0007b788218c0007b78087b76108218d8007b78188210f8008215f0008216e80095110001320000951140fc7b10b8037b15b0037b16a8039515c0038411e082b21082b01882b40882bbd40403d42b06d436065106b3067b10e0007b14e8007b1bf0007b12f80082cb1082c20882c37b1b5097bb2098b6207b13d8007b12d000d4230b7b1648d46b0b510b8a0882cb187b1b4082ab187b1b7082ab107b1b7882ab087b1b800082aa7b1a8800829a187b1a9000829a107b1a9800829a087b1aa00082997b19a8008289187b19b0008289107b19b8008289087b19c00082887b18c8008276188278107b18588278087b186082777b176833082033075020460369eefe6f698218586f8a8218606f8c8218686f8b98b83878781f98b83078781e98b82878781d98b82078781c98b81878781b98b81078781a98b8087878197b1b18787b18787c1098c83878781798c83078781698c82878781598c82078781498c81878781398c8107878127b1c1098c808787811787a0898a83878780f98a83078780e98a82878780d98a82078780c98a81878780b98a81078780a7b1a2098a80878780978799898387878079898307878069898287878059898207878049898187878039898107878027b1928989808787801330720330820502048038cedfe46171f46171e46171d46171c46171b46171a46171946171846171746171646171546171446171346171246171146171046170f46170e46170d46170c46170b46170a4617094617084617074617064617054617044617034617024617014607330840330750204a0321edfe8377831960033308400a08821760038218680382197003821a78036f7b7b1b686f8c7b1c586f997b19606fa6956202d86208c88907d8970ada880ac8ca0ad8ca08c88b0b821890007b18d802821898007b18d0028218a0007b18c8028218a8007b18c0028218b0007b18f8028218b8007b18f0028218c0007b18e8028218c8007b18e0027b1200037b1708037b1a1003951700039518e0029519c0027b1b180350204c0375e8956a03d86a07821960c87908d89809da7709821758c87909d87907821b68c8b707821be0007b1b7802821bf8007b1b7002821be8007b1b6802821bf0007b1b6002821b707b1b9802821b787b1b9002821b80007b1b8802821b88007b1b80027b17b8027b19b0027b18a8029517a00295188002951960027b1aa00250204e03f4e7956804d8680764897b1838821860c8780a7b1a30d88a06da7706821758c87606d87607821868c887077b17687b1758037b1650037b1a48037b19400349217803492170034921680349216003482120032083184003831a6003831b20033309ff33070a078017740397772082187803821948d497078219687b1958037b1650038219307b1948038219387b1940037b1878037b1770038217d0007b1768038217d8007b17600383184003831a60033309ff330b2033070a0f3307403308205020500335ebfe7c78017c797c7a027c7b03978808d4980897aa1097bb18d4ba0ad4a8087c79057c7a047c7b067c7c07979908d4a90997bb1097cc18d4cb0bd4b909979920d489027c79097c7a087c7b0a7c7c0b979908d4a90997bb1097cc18d4cb0bd4b9097c7a0d7c7b0c7c7c0e7c760f97aa08d4ba0a97cc10976618d46c0cd4ca0a97aa20d4a9097c7a117c7b107c7c127c761397aa08d4ba0a97cc10976618d46c0cd4ca0a7c7b157c7c147c76167c781797bb08d4cb0b976610978818d46808d4b808978820d48a0a7c78197c7b187c7c1a7c761b978808d4b80897cc10976618d46c0cd4c8087c7b1d7c7c1c7c761e7c771f97bb08d4cb0b976610977718d46707d4b707977720d487076f737b13586fa87b18606f966f297b1968951780017b178217407b1798018217507b1790018217d0007b1788018217d8007b1780018217e0007b17b8018217f8007b17b0018217e8007b17a8018217f0007b17a0018217707b17d8018217787b17d001821780007b17c801821788007b17c001821790007b17f801821798007b17f0018217a0007b17e8018217a8007b17e0018217b0007b1718028217b8007b1710028217c0007b1708028217c8007b1700027b1938027b1630027b182802951740029518200295190002951ae001951bc001951ca0017b132002502052033bf1821960821358821768d49707d46308d47808988820d46707977720d4870752073205821748028212580282144002821a5002d3970bd8970cd83408dab80cc96a0bc9cb00d8cb0bd86a0a821c68c9c20cc9ac0cc9bc0cc99707c98707c93406d4c707d40608d47808d40707988820977720d487075207dc0483378366646850205403c8e8fe3a084000023a094800023a0a5000023a0b5800027b1878037b1970037b1a68037b1b60038218107b1890038218207b1888038218287b1880038218187b189803837983176003330802646a0a06955140fc8210b8038215b0038216a8039511c00332003307403308205020560358e8fe7c78117c79107c7a127c7b13978808d4980897aa1097bb18d4ba0ad4a8087c79157c7a147c7b167c7c17979908d4a90997bb1097cc18d4cb0bd4b909979920d489027c79017c7a7c7b027c7c03979908d4a90997bb1097cc18d4cb0bd4b9097c7a057c7b047c7c067c760797aa08d4ba0a97cc10976618d46c0cd4ca0a97aa20d4a9097c7a197c7b187c7c1a7c761b97aa08d4ba0a97cc10976618d46c0cd4ca0a7c7b1d7c7c1c7c761e7c781f97bb08d4cb0b976610978818d46808d4b808978820d48a0a7c78097c7b087c7c0a7c760b978808d4b80897cc10976618d46c0cd4c8087c7b0d7c7c0c7c760e7c770f97bb08d4cb0b976610977718d46707d4b707977720d487076f766fa86f996f277b17f8007b19f000d497076489d46808d47808988820d46707977720d4870752072d037b19e80083973308207b17e0005020580312e7fe46171f46171e46171d46171c46171b46171a46171946171846171746171646171546171446171346171246171146171046170f46170e46170d46170c46170b46170a461709461708461707461706461705461704461703a00046170279461701c3004607088218e800958704d88708821af800c88a09d8a90ada880ac86a0ad86a08821bf000c88b0b7b1908017b1700017b1a100195172001951800017b1b180150205a039ed9821728018212380182132001821a3001280e0233074033082050205c034be6fe7c78117c79107c7a127c7b13978808d4980897aa1097bb18d4ba0ad4a8087c79157c7a147c7b167c7c17979908d4a90997bb1097cc18d4cb0bd4b909979920d489027c79017c7a7c7b027c7c03979908d4a90997bb1097cc18d4cb0bd4b9097c7a057c7b047c7c067c760797aa08d4ba0a97cc10976618d46c0cd4ca0a97aa20d4a9097c7a197c7b187c7c1a7c761b97aa08d4ba0a97cc10976618d46c0cd4ca0a7c7b1d7c7c1c7c761e7c781f97bb08d4cb0b976610978818d46808d4b808978820d48a0a7c78097c7b087c7c0a7c760b978808d4b80897cc10976618d46c0cd4c8087c7b0d7c7c0c7c760e7c770f97bb08d4cb0b976610977718d46707d4b707977720d487076f766fa86f996f277b17f8007b19f000d497076489d46808d47808988820d46707977720d48707520720017b19e80083973308207b17e00050205e0305e5fe46171f46171e46171d46171c46171b46171a46171946171846171746171646171546171446171346171246171146171046170f46170e46170d46170c46170b46170a461709461708461707461706461705461704461703a00046170279461701c3004607088218e800958704d88708821af800c88a09d8a90ada880ac86a0ad86a08821bf000c88b0b7b1948017b1740017b1a500195176001951840017b1b580150206003dfd9821768018212780182136001821a7001018218f800d3870bd8870c64848219e800d89308dab80cc96a0bd86a0a8216f000c96206c9a606d8cb0ac9a606c9cb0bc94707c98708c99307d46808d4b709d48909d4b808989920978820d498085108040083768217e000646850206203ede3fe83783307016469330064030a0d019511b0fe7b1048017b1540017b163801951550018411f082767b16688276087b16608276107b16588277187b175082877b17488287087b17408287107b17388287187b173082977b17288297087b17208297107b17188297187b171082a77b170882a00882a61082a41882b382b20882ba1082bb1882c982c80882c71082cc187b1c88007b1780007b18787b19707b1ba8007b1aa0007b1298007b1390007b14c8007b16c0007b10b8008217087b17b0008217107b17e8008217187b17e0008217207b17d8008217287b17d0008217307b1708018217387b1700018217407b17f8008217487b17f0008217507b1728018217587b1720018217607b171801951710019518f0009519d000951ab000951b9000951c708216687b16100150206603b3cf9551b0fe8210480182154001821638019511500132009511a07b10587b15507b1648828a18828b10828c088286d4ac08d4b609d48909989920d4b808978820d498087b1728520820029567207b1730d86707c87c087b18407b1c08d8c805da7705c8b5057b1b10d8b5077b1a18c8a7077b17387b1683673308203306205020680339e2fe78761f8218306486d45808821940821b38d4b909d498089888207b1520d45909979920d4980846171e46171d46171c46171b46171a46171946171846171746171646171546171446171346171246171146171046170f46170e46170d46170c46170b46170a461709461708461707461706461705461704461703461702461701460752085f018365330820645750206a03a5e1fe46171f1f46171e46171d46171c46171b46171a46171946171846171746171646171546171446171346171246171146171046170f46170e46170d46170c46170b46170a461709461708461707461706461705461704461703461702461701821820821938d498081409e0ffffff00000000d89609821a4094a9948946075109d00083572033082050206c0317e1fe46171f46171e7246171d6546171c7946171b7546171a624617192046171865461717684617167446171520461714744617136f4617126e461711204617107346170f6946170e2046170d7246170c6546170b6c46170a6c4617096146170863461707204617063a330c77787c054617046f4617037246170263461701734607458218958760d88708821a08c88a09d8a90ada880a821810c88a0ad88a08821b18c8b808821b287bb77bb9087bba107bb8188210588215508216489511603200009511a07b10587b15507b1648828a18828b10828c088286d4ac08d4b609d48909989920d4b808978820d498087b172852081d029567207b1730d86707c87c087b18407b1c08d8c805da7705c8b5057b1b10d8b5077b1a18c8a7077b17387b16836733082033062050206e03e9dffe78761f8218306486d45808821940821b38d4b909d498089888207b1520d45909979920d4980846171e46171d46171c46171b46171a46171946171846171746171646171546171446171346171246171146171046170f46170e46170d46170c46170b46170a461709461708461707461706461705461704461703461702461701460752085c01836533082064575020700355dffe46171f1e46171e46171d46171c46171b46171a46171946171846171746171646171546171446171346171246171146171046170f46170e46170d46170c46170b46170a461709461708461707461706461705461704461703461702461701821820821938d498081409e0ffffff00000000d89609821a4094a9948946075109cd0083572033082050207203c7defe461716794617116c46171961461714614617106146171c654617136546170e6546170d7446170c7546170b7046171a694617096946171d64461715644617086446171f46171e4617172046170f20461707204617063a461705774617046f4617187246171272461703724617026346171b7346170a73461701734607458218958760d88708821a08c88a09d8a90ada880a821810c88a0ad88a08821b18c8b808821b287bb77bb9087bba107bb8188210588215508216489511603200006f698218486f8a8218506f8c8218586f8b787b18787c10787a08787998b83878781f98b83078781e98b82878781d98b82078781c98b81878781b98b81078781a7b1b3098b80878781998c83878781798c83078781698c82878781598c82078781498c81878781398c8107878127b1c2898c80878781198a83878780f98a83078780e98a82878780d98a82078780c98a81878780b98a81078780a7b1a3898a8087878099898387878079898307878069898287878059898207878049898187878039898107878027b1940989808787801330720330820502076032dddfe46171f0346171e46171d46171c46171b46171a46171946171846171746171646171546171446171346171246171146171046170f46170e46170d46170c46170b46170a4617094617084617074617064617054617044617034617024617014607330840330750207803c1dcfe83778319a0013308400a088217a0017b17588217a8017b17508217b0017b17488216b801330820330750207a0391dcfe8218606f898218686f8a8218706f8c8218786f8b98b83878781f98b83078781e98b82878781d98b82078781c98b81878781b98b81078781a98b8087878197b1b10787b1898c83878781798c83078781698c82878781598c82078781498c81878781398c81078781298c8087878117b1c08787c1098a83878780f98a83078780e98a82878780d98a82078780c98a81878780b98a81078780a98a8087878097b1a18787a089898387878079898307878069898287878059898207878049898187878039898107878029898087878017b1920787933072033082050207c03b1dbfe98683878781f98683078781e98682878781d98682078781c98681878781b98681078781a98680878781978761882194898983878781798983078781698982878781598982078781498981878781398981078781298980878781178791082195098983878780f98983078780e98982878780d98982078780c98981878780b98981078780a9898087878097879088219589898387878079898307878069898287878059898207878049898187878039898107878029898087878017879330840330750207e03e9dafe83778319a0013308400a088217b8018218b0018219a801821aa0016f777b17706f877b17506f977b17786fa6831740010a058217480182184001811950016f77987a206f88978b20d4ba0a7b1a689777206f99989920d497077b17609888207b18587b16487b1698018216508217787b1790017b1688018217707b1780014921b8014921b0014921a8014921a001482160012083188001831aa001831b60013309ff33070a07018017b0018218a0018219a801821a58d3a707821a60d3a808d48707821868d39808d4870752071003821770957802d87807c87609d86906da7706821778c8670a6496d87a07821948c897077b18787b1880017b1688017b1a707b1a90017b17687b1798014921b8014921b0014921a8014921a001482160012083188001831aa001831b60013309ff33070a07017c17a0015207a9048217707b1790017b1688018217787b1780018217687b1798014921b8014921b0014921a8014921a001482160012083188001831aa001831b60013309ff33070a07017c17a101520766068217707b1790017b1688017b16608217787b1780018216687b1698014921b8014921b0014921a8014921a001482160012083188001831aa001831b60013309ff33070a078217a8018218b0018219a001821ab8018499ff00ff869900017b169801821b707b1b9001821b607b1b8801821b787b1b80017b1ab8017b18b0017b17a8017b19a00183188001831aa0013309ff330b2033070a0f33074033082050208003bed8fe7c78117c79107c7a127c7b13978808d4980897aa1097bb18d4ba0ad4a8087c79157c7a147c7b167c7c17979908d4a90997bb1097cc18d4cb0bd4b909979920d489027c79017c7a7c7b027c7c03979908d4a90997bb1097cc18d4cb0bd4b9097c7a057c7b047c7c067c760797aa08d4ba0a97cc10976618d46c0cd4ca0a97aa20d4a9097c7a197c7b187c7c1a7c761b97aa08d4ba0a97cc10976618d46c0cd4ca0a7c7b1d7c7c1c7c761e7c781f97bb08d4cb0b976610978818d46808d4b808978820d48a0a7c78097c7b087c7c0a7c760b978808d4b80897cc10976618d46c0cd4c8087c7b0d7c7c0c7c760e7c770f97bb08d4cb0b976610977718d46707d4b707977720d487076f786fa76f996f2ad4a909d4870ad49a0a98aa20d49808978820d4a8085208ea068377502082038dd7fe3a086000023a096800023a0a7000023a0b7800027b18b8017b19b0017b1aa8017b1ba0018218287b18d0018218387b18c8018218407b18c0018218307b18d8018218087b18f0018218187b18e8018218207b18e0018218107b18f80183798317a001330803330a0a069551e0fd8210180282151002821608029511200232003307403308205020840301d7fe7c78117c79107c7a127c7b13978808d4980897aa1097bb18d4ba0ad4a8087c79157c7a147c7b167c7c17979908d4a90997bb1097cc18d4cb0bd4b909979920d489027c79017c7a7c7b027c7c03979908d4a90997bb1097cc18d4cb0bd4b9097c7a057c7b047c7c067c760797aa08d4ba0a97cc10976618d46c0cd4ca0a97aa20d4a9097c7a197c7b187c7c1a7c761b97aa08d4ba0a97cc10976618d46c0cd4ca0a7c7b1d7c7c1c7c761e7c781f97bb08d4cb0b976610978818d46808d4b808978820d48a0a7c78097c7b087c7c0a7c760b978808d4b80897cc10976618d46c0cd4c8087c7b0d7c7c0c7c760e7c770f97bb08d4cb0b976610977718d46707d4b707977720d487076f766fa86f996f277b17787b1970d497076489d46808d47808988820d46707977720d48707520725057b196883973308207b176050208603bfd5fe46171f46171e46171d46171c46171b46171a46171946171846171746171646171546171446171346171246171146171046170f46170e46170d46170c46170b46170a461709461708461707461706461705461704461703a00046170279461701c300460708821868958704d88708821a78c88a09d8a90ada880ac86a0ad86a08821b70c88b0b7b1908017b1700017b1a100195172001951800017b1b1801502088037af2821728018212380182132001821a3001280e0433074033082050208a03fbd4fe7c78117c79107c7a127c7b13978808d4980897aa1097bb18d4ba0ad4a8087c79157c7a147c7b167c7c17979908d4a90997bb1097cc18d4cb0bd4b909979920d489027c79017c7a7c7b027c7c03979908d4a90997bb1097cc18d4cb0bd4b9097c7a057c7b047c7c067c760797aa08d4ba0a97cc10976618d46c0cd4ca0a97aa20d4a9097c7a197c7b187c7c1a7c761b97aa08d4ba0a97cc10976618d46c0cd4ca0a7c7b1d7c7c1c7c761e7c781f97bb08d4cb0b976610978818d46808d4b808978820d48a0a7c78097c7b087c7c0a7c760b978808d4b80897cc10976618d46c0cd4c8087c7b0d7c7c0c7c760e7c770f97bb08d4cb0b976610977718d46707d4b707977720d487076f766fa86f996f277b17787b1970d497076489d46808d47808988820d46707977720d4870752071f037b196883973308207b176050208c03b9d3fe46171f46171e46171d46171c46171b46171a46171946171846171746171646171546171446171346171246171146171046170f46170e46170d46170c46170b46170a461709461708461707461706461705461704461703a00046170279461701c300460708821868958704d88708821a78c88a09d8a90ada880ac86a0ad86a08821b70c88b0b7b19c8007b17c0007b1ad0009517e0009518c0007b1bd80050208e03317cff8217e8008212f8008213e000821af00028070233074033082050209003f4d2fe7c78117c79107c7a127c7b13978808d4980897aa1097bb18d4ba0ad4a8087c79157c7a147c7b167c7c17979908d4a90997bb1097cc18d4cb0bd4b909979920d489027c79017c7a7c7b027c7c03979908d4a90997bb1097cc18d4cb0bd4b9097c7a057c7b047c7c067c760797aa08d4ba0a97cc10976618d46c0cd4ca0a97aa20d4a9097c7a197c7b187c7c1a7c761b97aa08d4ba0a97cc10976618d46c0cd4ca0a7c7b1d7c7c1c7c761e7c781f97bb08d4cb0b976610978818d46808d4b808978820d48a0a7c78097c7b087c7c0a7c760b978808d4b80897cc10976618d46c0cd4c8087c7b0d7c7c0c7c760e7c770f97bb08d4cb0b976610977718d46707d4b707977720d487076f766fa86f996f277b17787b1970d497076489d46808d47808988820d46707977720d48707520718017b196883973308207b176050209203b2d1fe46171f46171e46171d46171c46171b46171a46171946171846171746171646171546171446171346171246171146171046170f46170e46170d46170c46170b46170a461709461708461707461706461705461704461703a00046170279461701c300460708821868958704d88708821a78c88a09d8a90ada880ac86a0ad86a08821b70c88b0b7b1988007b1780007b1a90009517a000951880007b1b980050209403bdf08217a8008212b8008213a000821ab00001821878d3870bd8870c6484821968d89308dab80cc96a0bd86a0a821670c96206c9a606d8cb0ac9a606c9cb0bc94707c98708c99307d46808d4b709d48909d4b808989920978820d49808510804008376821760646850209603a1d0fe83783307016469330098030a0d01827810827918827a088277d4a909d4870ad49a0a98aa20d49808978820d4a8085208a3009511f07b10087b15837733082033052050209a0358d0fe46171f46171e46171d46171c46171b7946171a744617197033026d787218461717657875164617156546171462787513461712744617116f330b6e787b10787b0f330c61787c0e33096378790d78750c46170b6578720a787c09787b087875074617063a330a77787a054617046f4617037278790246170173330845787882100882159511103200009511a07b10587b15507b1648828a18828b10828c088286d4ac08d4b609d48909989920d4b808978820d498087b172852081b029567207b1730d86707c87c087b18407b1c08d8c805da7705c8b5057b1b10d8b5077b1a18c8a7077b17387b16836733082033062050209c0361cffe78761f8218306486d45808821940821b38d4b909d498089888207b1520d45909979920d4980846171e46171d46171c46171b46171a46171946171846171746171646171546171446171346171246171146171046170f46170e46170d46170c46170b46170a461709461708461707461706461705461704461703461702461701460752085a018365330820645750209e03cdcefe46171f1c46171e46171d46171c46171b46171a46171946171846171746171646171546171446171346171246171146171046170f46170e46170d46170c46170b46170a461709461708461707461706461705461704461703461702461701821820821938d498081409e0ffffff00000000d89609821a4094a9948946075109cb008357203308205020a0033fcefe46171b79461719704617146246171a7446171274461717654617156546170b654617186d46170a6d46170e61461709614617106e46170f6e4617086e46171f46171e46171d46171c461716204617132046170c20461707204617063a461705774617116f4617046f4617037246170d6346170263461701734607458218958760d88708821a08c88a09d8a90ada880a821810c88a0ad88a08821b18c8b808821b287bb77bb9087bba107bb8188210588215508216489511603200009511a07b10587b15507b1648828a18828b10828c088286d4ac08d4b609d48909989920d4b808978820d498087b17205208bf029567207b1738d86707c87c087b18407b1c08d8c805da7705c8b5057b1b10d8b5077b1a18c8a7077b17307b1683673308203306205020a20316cdfe78761f821838d45808821940821a30d4a909d49808988820d45909979920d4980846171e46171d46171c46171b46171a46171946171846171746171646171546171446171346171246171146171046170f46170e46170d46170c46170b46170a461709461708461707461706461705461704461703461702461701460752080302645682153883573308207b17285020a40381ccfe46171f2c46171e46171d46171c46171b46171a46171946171846171746171646171546171446171346171246171146171046170f46170e46170d46170c46170b46170a461709461708461707461706461705461704461703461702461701821830d4860a140600000000010000001408e0ffffff00000000d8850882194094987b1a3094a84607510864018217288377203308205020a603e6cbfe46171c6c4617157646170e6d46170b6b46171e614617196146170a6146171f7346171b20461718204617122046170d20461707204617063a46170577461713634617026333056578751d46171073461708734617017346074546171a749568c0821938d889083306727876177875168219409498330b6f787b1446171174821930949846170f7578750c46170974787b047876035108bc008217288377403308205020a8033ecbfe46170b64461709754617086678760678750778750446170a6e4617036e4617026f461705204617012046171f46171e46171d46171c46171b46171a46171946171846171746171646171546171446171346171246171146171046170f46170e46170d46170c460774821895878000d88708821a08c88a09d8a90ada880a821810c88a0ad88a08821b18c8b808821b207bb77bb9087bba107bb8188210588215508216489511603200009511a07b10587b15507b1648828a18828b10828c088286d4ac08d4b609d48909989920d4b808978820d498087b17285208b4029567207b1740d86707c87c087b18387b1c10d8c805da7705c8b5057b1b18d8b5077b1a20c8a7077b17307b160883673308203306205020aa0326cafe78761f821840d45808821938821a30d4a909d49808988820d45909979920d4980846171e46171d46171c46171b46171a46171946171846171746171646171546171446171346171246171146171046170f46170e46170d46170c46170b46170a46170946170846170746170646170546170446170346170246170146075208f701645682154083573308207b175020ac0392c9fe46171f2246171e46171d46171c46171b46171a46171946171846171746171646171546171446171346171246171146171046170f46170e46170d46170c46170b46170a461709461708461707461706461705461704461703461702461701821830d4860a140600000000010000001408e0ffffff00000000d8850882193894987b1a3094a846075108590182158357203308205020ae03f8c8fe46171f6b46171e6146171d7446171c2046171b7946171a6446171961330c65787c18461717724617166c4617156146171420787c134617126d461711614617106e46170f20787c0e46170d6346170c6946170b7646170a72787c0946170873461707204617063a46170577330b6f787b044617037246170263461701739569c0821a40d89a09821a3894a9821a3094a94607455109b3008357403308205020b00354c8fe46171f46171e46171d46171c46171b46171a46171946171846171746171646171546171446171346171246171146171046170f46170e46170d46170c46170b46170a4617094617084617074617064617054617044617034617024617016e46076582180895878000d88708821a10c88a09d8a90ada880a821818c88a0ad88a08821b20c8b808821b287bb77bb9087bba107bb818821058821550821648951160320000951140fd7b10b8027b15b0027b16a8029515c0028411e0828a10828918828b08828c7b1998007b1b8800d49b08d4ac09d489099899207b1a9000d4a808978820d4980852089d108278187b18408278107b18588278087b184882777b17507b1c800083c73308207b17185020b20340c7fe7c78097c79087c7a0a7c7b0b978808d4980897aa1097bb18d4ba0ad4a8087c790d7c7a0c7c7b0e7c7c0f979908d4a90997bb1097cc18d4cb0bd4b909979920d489027c78017c797c7a027c7b03978808d4980897aa1097bb18d4ba0ad4a8087c79057c7a047c7b067c7c07979908d4a90997bb1097cc18d4cb0bd4b909979920d489067c78117c79107c7a127c7b13978808d4980897aa1097bb18d4ba0ad4a8087c79157c7a147c7b167c7c17979908d4a90997bb1097cc18d4cb0bd4b909979920d498087b18606f887b16686f6a7b12706f297b19307b1a28d4a9097b18388888017b19d80094985108870f7c78187b18b8007c78197b18787c781a7b18a8007c781b7b18a0007c781c7b18d0007c781d7b18b0007c781e7b18c8007c771f7b17c00048214002208217587b1770028217487b1768028217507b1760028216407b1678024921980249219002492188024921800283186002831a8002831b40023309ff33070a0701821790028218880282198002821a9802977b3f988c01d4cb0b97ac3f9877016464d4c70697883f989c01d4c80898ac018499019a97889201848a7fd26703d27b0bdb980ad2c70888a72094b7d483099497ab72fd0e8217789777088219b800d497078219a800979910821ca00097cc18d4c909d497078219b000979908821cd000d4c909821cc80097cc108216c000976618d46c0cd4c909979920d497077b17d0006f777b17207b17e0017b1a00028217507b1720028217387b17e8017b1b08028217487b1728028217307b17f0017b1310028217587b1730028216287b16f8017b18180295172002951800029519e0017b1438025020b4034bbd821a208219388e9788a820858801db97088217308e778e69da67098217d800da7809821b40821c588216505109d80484aae07b1a1833082033075020b6039bc4fe8218406f888219586f99821a486faa6f6b98bc38787c1f98bc30787c1e98bc28787c1d98bc20787c1c98bc18787c1b98bc10787c1a98bc08787c19787b18787a1098ab38787b1798ab30787b1698ab28787b1598ab20787b1498ab18787b1398ab10787b1298aa08787a11787908989a38787a0f989a30787a0e989a28787a0d989a20787a0c989a18787a0b989a10787a0a989908787909787898893878790798893078790698892878790598892078790498891878790398891078790298880878780133082033075020b803cbc3fe8377831980023308200a0801821780028218880282199002821a98026f777b17d0006f826f977b17d8006fa77b17c0008217185107d1074921b0004921b8004921a80082108000950620d8060782148800c87409d8490ada770a82139000c83a0ad83a077b12c80082129800c872028eab8e2cda2b0c140b00000000010000006468e4b607dacb06da9b08db9807d42a08db8607649b93cbda890b64a89328da2a088549ffc89b0b850affc8a707d8a70ac8ab0bd39b0cd89b09daca09853cff7b1c78c88c0cc89c0697683b98b905d4980897bb3b987705d4b7097b19a000821b1888b7019a7a97703b95bbff98bb05c90b07d3a804d8a80bd87903db4b0382199800859bffc8b202821978d89c0bc82b0bd8c60cc8cb0b98660597bc3bd46c0c98bb0598a605c90602d82c09d36b04d86b00da4900d32c09d44909da93008219a000da0709da0a08da060bda020c98c73b97bb05d47b02821bb00098873b97cc05d47c04821cb800989a3b978805d4a807979305953a407b1a78d83a0a8216a800c8a7087b1870d87808daaa08c848087b1868d84808c828087b1860330920821ac800017b16a8007b1ac80082178000c897077b19a000d8970882198800c8b909c88909d3b90a7b1bb000d8b90bdaa80b82189000c8c8087b1cb800d8c80a821c9800c86c0cc8ca0ac88b0bd88b08c8a808d49808d4b709d48909d4b808989920978820d498085208f20a83773308205020ba03b3c1fe7c78017c797c7a027c7b03978808d4980897aa1097bb18d4ba0ad4a8087c79057c7a047c7b067c7c07979908d4a90997bb1097cc18d4cb0bd4b909979920d489027c79097c7a087c7b0a7c7c0b979908d4a90997bb1097cc18d4cb0bd4b9097c7a0d7c7b0c7c7c0e7c760f97aa08d4ba0a97cc10976618d46c0cd4ca0a97aa20d4a9097c7a117c7b107c7c127c761397aa08d4ba0a97cc10976618d46c0cd4ca0a7c7b157c7c147c76167c781797bb08d4cb0b976610978818d46808d4b808978820d48a0a7c78197c7b187c7c1a7c761b978808d4b80897cc10976618d46c0cd4c8087c7b1d7c7c1c7c761e7c771f97bb08d4cb0b976610977718d46707d4b707977720d487076f776fa86f996f2a821bd0007b1b7802821bc8007b1b7002821bd8007b1b68028216c0007b1660027b1a98027b1990027b1888027b17800283186002831a80023309ff330b2033070a0f019566018867018218d800c878087b16c0007b18d800d486078877018218c800c87802d882098217a000957820d87807821ab000c87a04d8a40ada770a821bb800c8ab07d8b70a8216a800c8a606821a68d37a0a821b78d38b0bd4ba0a821b60d36b0b821c70d3c40cd4cb0bd4ba03821ad000c89a0a7b1ad0006489644b647c642a5203bafd281d04821768821860d487078218708219d000d49808d4870751079d088217980082189000d487071408e0ffffff0000000082198000d8890882198800949894785108ca088217188377203308205020bc0387bffe7c78197c79187c7a1a7c7b1b978808d4980897aa1097bb18d4ba0ad4a8087c791d7c7a1c7c7b1e7c7c1f979908d4a90997bb1097cc18d4cb0bd4b909979920d489027c78117c79107c7a127c7b13978808d4980897aa1097bb18d4ba0ad4a8087c79157c7a147c7b167c7c17979908d4a90997bb1097cc18d4cb0bd4b909979920d498087b18d8007c78097c7a087c7b0a7c7c0b978808d4a80897bb1097cc18d4cb0bd4b8087c7a0d7c7b0c7c7c0e7c760f97aa08d4ba0a97cc10976618d46c0cd4ca0a97aa20d4a8087b18d0007c78017c7b7c7c027c7603978808d4b80897cc10976618d46c0cd4c8087c7b057c7c047c76067c770797bb08d4cb0b976610977718d46707d4b707977720d487004621df014621de014621dd014621dc014621db014621da014621d9014621d8014621d7014621d6014621d5014621d4014621d3014621d2014621d1014621d0014621cf014621ce014621cd014621cc014621cb014621ca014621c9014621c8014621c7014621c6014621c5014621c4014621c3014621c2014621c1014621c0014621bf01ff004621be01ff004621bd01ff004621bb01ff004621b801ff4621b701ff004621b601ff004621b501ff004621b301ff004621b001ff4621af01ff004621ae01ff004621ad01ff004621ab01ff004621a801ff4621a701ff004621a601ff004621a501ff004621a301ff004621a001ff1408ffffffff000000007818bc01140cffffffffffff0000781cba01140bffffffffffffff00781bb9017818b401781cb201781bb1017818ac01781caa01781ba9017818a401781ca201781ba101821420844b1f9518a001c88b0b7cb8197cbc187cb61a7cb91b978808d4c808976610979918d46909d498087cb91d7cbc1c7cb61e7cba1f979908d4c90997661097aa18d46a0ad4a909979920d489037cb8117cb9107cba127cb613978808d4980897aa10976618d46a0ad4a8087cb9157cba147cb6167cb717979908d4a909976610977718d46707d49707977720d487067cb7097cb8087cb90a7cba0b977708d4870797991097aa18d4a909d4790c7cb80d7cb90c7cba0e7cb70f978808d4980897aa10977718d4a707d48707977720d4c7087cb7017cb97cba027cbc03977708d4970797aa1097cc18d4ca0ad4a7077cb9057cba047cbc067cbb07979908d4a90997cc1097bb18d4cb0bd4b909979920d497076f29e079028217d8006f77e087096f078218d0006f88e06808e03707984b3f821a3897ac01d4cb0b98ac3f821a3097a601d46c0c98a63f821a2897aa01d46a0ad4a703d4c808d4b909974a01d4a20a821b40821c5882165028ad043304330633082001821c20821918d3c909821a30d4a909821a38821b28d4ba0ad4a909510926047b12c80082198000c88909d8890a821b8800c84b0bc8ab0bd34b0cd84b08daca08821a9000c87a0ac8a808d8a80cd87a07821a9800c86a0ac8a707c8c707d4890ad4b707d47a0a98aa20d48707977720d4a70752077c0483973308205020be033dbbfe7c78197c79187c7a1a7c7b1b978808d4980897aa1097bb18d4ba0ad4a8087c791d7c7a1c7c7b1e7c7c1f979908d4a90997bb1097cc18d4cb0bd4b909979920d498087b18b8007c78117c79107c7a127c7b13978808d4980897aa1097bb18d4ba0ad4a8087c79157c7a147c7b167c7c17979908d4a90997bb1097cc18d4cb0bd4b909979920d489037c78097c7a087c7b0a7c7c0b978808d4a80897bb1097cc18d4cb0bd4b8087c7a0d7c7b0c7c7c0e7c760f97aa08d4ba0a97cc10976618d46c0cd4ca0a97aa20d48a047c78017c7b7c7c027c7603978808d4b80897cc10976618d46c0cd4c8087c7b057c7c047c76067c770797bb08d4cb0b976610977718d46707d4b707977720d4870046219f0146219e0146219d0146219c0146219b0146219a014621990146219801462197014621960146219501462194014621930146219201462191014621900146218f0146218e0146218d0146218c0146218b0146218a014621890146218801462187014621860146218501462184014621830146218201462181014621800146217f01ff0046217e01ff0046217d01ff0046217b01ff0046217801ff46217701ff0046217601ff0046217501ff0046217301ff0046217001ff46216f01ff0046216e01ff0046216d01ff0046216b01ff0046216801ff46216701ff0046216601ff0046216501ff0046216301ff0046216001ff1408ffffffff0000000078187c01140cffffffffffff0000781c7a01140bffffffffffffff00781b790178187401781c7201781b710178186c01781c6a01781b690178186401781c6201781b6101821b2084bb1f95186001c88b0b7cb8197cbc187cb61a7cb91b978808d4c808976610979918d46909d498087cb91d7cbc1c7cb61e7cba1f979908d4c90997661097aa18d46a0ad4a909979920d489027cb8117cb9107cba127cb613978808d4980897aa10976618d46a0ad4a8087cb9157cba147cb6167cb717979908d4a909976610977718d46707d49707977720d487067cb7097cb8087cb90a7cba0b977708d4870797991097aa18d4a909d4790c7cb80d7cb90c7cba0e7cb70f978808d4980897aa10977718d4a707d48707977720d4c7087cb7017cb97cba027cbc03977708d4970797aa1097cc18d4ca0ad4a7077cb9057cba047cbc067cbb07979908d4a90997cc1097bb18d4cb0bd4b909979920d497078219b8006f99e079076f39e089086f49e069096f0ae02a0a821bd0007b1b7802821bc8007b1b7002821bd8007b1b6802821bc0007b1b60027b1a98027b1990027b1888027b17800283186002831a80023309ff330b2033070a0f821c200182193098973f821828978801d48707821a3898a83f979901d4980898c93f97aa01d4a90997ca0195aa01821b487b1b6802821b507b1b6002821b587b1b7002821b407b1b78027b1a80027b1988027b1890027b179802282f330a330933083303018217487b1768027b1660027b1c70027b1b78027b1a80027b1988027b1890027b1398020183186002831a80023309ff330b2033070a0f955140fd8210b8028215b0028216a8029511c002320000492110014921080149210001140700000000717b484e951800017b17180133075020c00359b7fe4921f8004921f0004921e000413307049518e0004921e8003300c4032836b7fe492150014921480149214001140700000000717b484e951840017b17580133075020c20312b7fe4921380149213001492120012233070495182001492128015020c403f3b6fe33082433075020c60337b6fe83783307013309243300c8030a0d019511b07b10487b15409515508411f08272827308827b10827718828c828908828a108288187b18187b1a107b19087b1c7b17387b1b307b132895172064187b12205020ca0336ee9551b08210488215409511503200951160fe7b1098017b1590017b1688019515a0018411e0828b10828c18828908828a7b19707b1c58d4c9087b1a8000d4ba09d489099899207b1b60d4b808978820d49808520808098278187b18788278107b1898008278087b18900082777b178800811780003308207b17685020cc0360b5fe7c78117c79107c7a127c7b13978808d4980897aa1097bb18d4ba0ad4a8087c79157c7a147c7b167c7c17979908d4a90997bb1097cc18d4cb0bd4b909979920d498087c79197c7a187c7b1a7c7c1b979908d4a90997bb1097cc18d4cb0bd4b9097c7a1d7c7b1c7c7c1e7c761f97aa08d4ba0a97cc10976618d46c0cd4ca0a97aa20d4a9097c7a0d7c7b0c7c7c0e7c770f97aa08d4ba0a97cc10977718d4c707d4a7076f997b19506f887b18486f769866207b16408216787b165801821798007b175001821790007b174801821788007b17400149217801492170014921680149216001482120012083184001831a6001831b20013309ff33070a078017740197772082187801821940d497077b165801821998007b195001821990007b194801821988007b1940017b1878017b1770018217487b1768018217507b17600183184001831a60013309ff330b2033070a0f01821760821958d47909140700000000010000007b17401407e0ffffff0000000082188000d8780782187094877b1960949751075707821788009579017b194888970182189000c887077b1758d4970788770182189800c887077b1750d88707821878c887077b17388217688377203308205020ce0397b3fe7c78017c797c7a027c7b03978808d4980897aa1097bb18d4ba0ad4a8087c79057c7a047c7b067c7c07979908d4a90997bb1097cc18d4cb0bd4b909979920d489027c79097c7a087c7b0a7c7c0b979908d4a90997bb1097cc18d4cb0bd4b9097c7a0d7c7b0c7c7c0e7c760f97aa08d4ba0a97cc10976618d46c0cd4ca0a97aa20d4a9097c7a117c7b107c7c127c761397aa08d4ba0a97cc10976618d46c0cd4ca0a7c7b157c7c147c76167c781797bb08d4cb0b976610978818d46808d4b808978820d48a0a7c78197c7b187c7c1a7c761b978808d4b80897cc10976618d46c0cd4c8087c7b1d7c7c1c7c761e7c771f97bb08d4cb0b976610977718d46707d4b707977720d4870748212001206f777b17306fa77b17286f977b17206f277b17188217507b1750018217587b1748018217487b1740018216387b1658014921780149217001492168014921600183184001831a6001831b20013309ff33070a077b1658018217507b1750018217587b1748018217487b1740018217187b1778018217207b1770018217287b1768018217307b17600183184001831a60013309ff330b2033070a0f018217409577c082188000d878078218709487821860948751075205821788009578027b1858d8780782189000c878097b1950d88906da770682179800c876067b1640d87607821878c887077b17488217688377403308205020d00392b1fe7c78017c797c7a027c7b03978808d4980897aa1097bb18d4ba0ad4a8087c79057c7a047c7b067c7c07979908d4a90997bb1097cc18d4cb0bd4b909979920d489027c79097c7a087c7b0a7c7c0b979908d4a90997bb1097cc18d4cb0bd4b9097c7a0d7c7b0c7c7c0e7c780f97aa08d4ba0a97cc10978818d4c808d4a808978820d489097c78117c7a107c7b127c7c13978808d4a80897bb1097cc18d4cb0bd4b8087c7a157c7b147c7c167c761797aa08d4ba0a97cc10976618d46c0cd4ca0a97aa20d48a0a7c78197c7b187c7c1a7c761b978808d4b80897cc10976618d46c0cd4c8087c7b1d7c7c1c7c761e7c771f97bb08d4cb0b976610977718d46707d4b707977720d487076f7b6fa76f986f29821a507b1a0801821a587b1a0001821a407b1a1001821a487b1a18017b19f8007b18f0007b17e800951700019518e0007b1be0005020d2039ee8140700000000010000007b17581407a0ffffff0000000082188000d878078218709487821860948751079a03821788009578037b1850d8780782189000c878097b1948d88906da770682179800c876067b1638d87607821878c887077b17408217688377603308205020d403daaffe7c78017c797c7a027c7b03978808d4980897aa1097bb18d4ba0ad4a8087c79057c7a047c7b067c7c07979908d4a90997bb1097cc18d4cb0bd4b909979920d489027c79097c7a087c7b0a7c7c0b979908d4a90997bb1097cc18d4cb0bd4b9097c7a0d7c7b0c7c7c0e7c780f97aa08d4ba0a97cc10978818d4c808d4a808978820d489097c78117c7a107c7b127c7c13978808d4a80897bb1097cc18d4cb0bd4b8087c7a157c7b147c7c167c761797aa08d4ba0a97cc10976618d46c0cd4ca0a97aa20d48a0a7c78197c7b187c7c1a7c761b978808d4b80897cc10976618d46c0cd4c8087c7b1d7c7c1c7c761e7c771f97bb08d4cb0b976610977718d46707d4b707977720d487076f7b6fa76f986f29821a487b1ac800821a507b1ac000821a387b1ad000821a407b1ad8007b19b8007b18b0007b17a8009517c0009518a0007b1ba0005020d603e6e682175895778082188000d87807821870948782186094875107f301140700000000ffffffff7b178000821788009578047b1870d8780782189000c878097b198800d88908da770882179800c878087b189000d87807821878c887077b179800821768837780003308205020d80321aefe7c78197c79187c7a1a7c7b1b978808d4980897aa1097bb18d4ba0ad4a8087c791d7c7a1c7c7b1e7c7c1f979908d4a90997bb1097cc18d4cb0bd4b909979920d498087c79117c7a107c7b127c7c13979908d4a90997bb1097cc18d4cb0bd4b9097c7a157c7b147c7c167c761797aa08d4ba0a97cc10976618d46c0cd4ca0a97aa20d4a9097c7a097c7b087c7c0a7c760b97aa08d4ba0a97cc10976618d46c0cd4ca0a7c7b0d7c7c0c7c760e7c770f97bb08d4cb0b976610977718d46707d4b707977720d4a7074821200120821a8000d2a7078499ff8488ff6f887b18786f987b18686f777b1760821790007b175001821788007b1748018217707b174001821698007b1658014921780149217001492168014921600183184001831a6001831b20013309ff33070a0782177801821870018477ff82198000d29808821960d498087b165801821990007b195001821988007b1948018219707b1940017b1778017b1870018217687b1768018217787b17600183184001831a60013309ff330b2033070a0f955160fe8210980182159001821688019511a001320000821b1802821a100282190802d4ba0788980194785108da06821700027b1758957701887801c898087b170002d487077b180802887701c8a7077b171002d8a707c8b7077b1718028217707b17e8018217787b17e0018217687b17f0018216607b16f8018318e0017b1a48831a00027b19403309ff7b1b38330b2033070a0f8217387b1758018217487b1750018217407b1748018217587b1740017b1678018217687b1770018217707b176801951780019518600195194001821a787b1a60015020da03b700ff8217b8017b17588217b0017b17488216a8018217a0017b1718821a98017b1a60821990017b1968821888017b1870821780017b17787b1af8017b19f0017b18e8017b17e001492118024921100249210802492100024821c001208318e001831a0002831bc0013309ff33070a0782191898973d976803d48707979803888800018583018e78db780398663d821848978703d4670798883d821a5897aa03d4a8088e8a8e7bdb8a0bd48707db7b03821700027b1758821708027b1748821710027b1740821718027b173846213f01ff0046213e01ff0046213d01ff0046213c01ff0046213b01ff0046213a01ff0046213901ff0046213801ff0046213701ff0046213601ff0046213501ff0046213401ff0046213301ff0046213201ff0046213101ff0046213001ff0046212f01ff0046212e01ff0046212d01ff0046212c01ff0046212b01ff0046212a01ff0046212901ff0046212801ff0046212701ff0046212601ff0046212501ff0046212401ff0046212301ff0046212201ff0046212101ff0046212001ff0046211f0146211e0146211d0146211c0146211b0146211a014621190146211801462117014621160146211501462114014621130146211201462111014621100146210f0146210e0146210d0146210c0146210b0146210a0146210901462108014621070146210601462105014621040146210301462102014621010146210001849b1f951a2001c9ba0a7ca7197ca8187cac1a7ca61b977708d4870797cc10976618d46c0cd47c027ca81d7cac1c7ca61e7ca71f978808d4c808976610977718d46707d48707977720d427077b17187ca7117ca8107cac127ca613977708d4870797cc10976618d46c0cd47c027ca8157cac147ca6167ca717978808d4c808976610977718d46707d48707977720d427077b17107ca7097ca8087cac0a7ca60b977708d4870797cc10976618d46c0cd47c097ca80d7cac0c7ca60e7ca70f978808d4c808976610977718d46707d48707977720d497007ca7017ca87ca9027ca603977708d48707979910976618d46909d497077ca8057ca9047ca6067caa07978808d4980897661097aa18d46a0ad4a808978820d478048218209887387817e7009887307817e6009887287817e5009887207817e4009887187817e3009887107817e2007818e0009887087817e1008218289887387817ef009887307817ee009887287817ed009887207817ec009887187817eb009887107817ea007818e8009887087817e9008218309887387817f7009887307817f6009887287817f5009887207817f4009887187817f3009887107817f2007818f0009887087817f1008218509887387817ff009887307817fe009887287817fd009887207817fc009887187817fb009887107817fa007818f8009887087817f9009517e000c9b70b4621df004621de004621dd004621dc004621db004621da004621d9004621d8004621d7004621d6004621d5004621d4004621d3004621d2004621d1004621d0004621cf004621ce004621cd004621cc004621cb004621ca004621c9004621c8004621c7004621c6004621c5004621c4004621c3004621c2004621c1004621c0007cb7197cb8187cb91a7cb61b977708d48707979910976618d46909d4790a7cb81d7cb91c7cb61e7cb71f978808d49808976610977718d46707d48707977720d4a7067cb7117cb8107cb9127cba13977708d4870797991097aa18d4a909d4790c7cb8157cb9147cba167cb717978808d4980897aa10977718d4a707d48707977720d4c7027cb7097cb9087cba0a7cbc0b977708d4970797aa1097cc18d4ca0ad47a087cb90d7cba0c7cbc0e7cb70f979908d4a90997cc10977718d4c707d49707977720d487077cb8017cb97cba027cbc03978808d4980897aa1097cc18d4ca0ad4a8087cb9057cba047cbc067cbb07979908d4a90997cc1097bb18d4cb0bd4b909979920d4890b94349430821c10943c8219189439943b943794329436821838e09803d26909821840e0c80ad2c20c821848e00806d20707821858e04808d24b0bd4b808d46707d4ca0ad49309821b607b1bf801821b687b1bf001821b707b1be801821b787b1be0017b1918027b1a10027b1708027b1800028318e001831a00023309ff330b2033070a0f9551c0fd8210380282153002821628029511400232004921b0004921a8004921a000140700000000717b484e9518a0007b17b80033075020dc0321a6fe4921980049219000492180004133070495188000492188005020de0302a6fe33082433075020e00346a5fe83783307013309243300e2030a0d01951180f87b1078077b1570077b166807951580078411e0641682931082941882920882997b62c8017b64c001d442027b63d8017b69d001d43909d429097b673052090628e8148257108279187b6988008252088279107b69688279087b697082777b67788227187b67800082578229107b69588229087b696082297b6990008279107b6950028279087b69b00182777b67b80182c7187b67e00182c7107b67e80182c7087b67f00182c77b67f80182b7187b673882b7107b674082b7087b674882b77b675082a7187b67000282a7107b67080282a7087b67100282a77b6718028287187b6790018287107b6798018287087b67a00182877b67a8019517e08477e07b6758026471491718491710491708490783770a1001826858028287188282828910828a0882680002d3870bd8870882670802d8790cdbb80c82681002d38a03d88a0a82681802d88208db3a08d39707d4b707db7c0851080628e6158267e8018268f801d487078268e0018269f001d49808d4870752070628dc17826750029777209879208267b8018268b001d487077b6928d4970752070628d11933071401027b67880138071401024926180649261006492608067b6700068267d8017b6730068267c8017b6728068267d0017b672006826798017b6750068267a0017b6748068267a8017b6740068267c0017b673806956760069568400695692006956a0006826b90017b6b58065020e4032f56ff82687806826a700682676806826960067b6758027b685002d48707d4a908d478089888207b6a4802d4a707977720d4870751070628a21d83973308207b6738027b6940025020e603daa2fe8268500282694802d498081409e0ffffff00000000826a4002d89a09826a580294a9948952090628641d7c78197c79187c7a1a7c7b1b978808d4980897aa1097bb18d4ba0ad4a8087c791d7c7a1c7c7b1e7c7c1f979908d4a90997bb1097cc18d4cb0bd4b909979920d489027c79117c7a107c7b127c7c13979908d4a90997bb1097cc18d4cb0bd4b9097c7a157c7b147c7c167c781797aa08d4ba0a97cc10978818d4c808d4a808978820d498037c78097c7a087c7b0a7c7c0b978808d4a80897bb1097cc18d4cb0bd4b8087c7a0d7c7b0c7c7c0e7c790f97aa08d4ba0a97cc10979918d4c909d4a909979920d4890a7c78017c797c7b027c7c03978808d4980897bb1097cc18d4cb0bd4b8087c79057c7b047c7c067c7707979908d4b90997cc10977718d4c707d49707977720d487076f776fa96f3a6f28d4980bd4a707d47b0b98bb20d49707977720d4b707510706283a1c1407ffffffff000000007b6758028267380283772083887b6850025020e80364a1fe9518e08488e07b684002648183778389826850020a08826840028287187b6748028287107b6730028287087b67380282877b67400233082033075020ea0323a1fe826948029898387b68700178781f9898307b68680178781e9898287b68600178781d9898207b68580178781c9898187b68500178781b9898107b68480178781a9898087b684001787819787918826930029898387b6838017878179898307b6830017878169898287b6828017878159898207b6820017878149898187b6818017878139898107b6810017878129898087b680801787811787910826938029898387b68000178780f9898307b68f80078780e9898287b68f00078780d9898207b68e80078780c9898187b68e00078780b9898107b68d80078780a9898087b68d000787809787908826940029898387b68c8007878079898307b68c0007878069898287b68b8007878059898207b68b0007878049898187b68a8007878039898107b68a0007878029898087b68980078780178793307203308205020ec03e39ffe46171f46171e46171d46171c46171b46171a46171946171846171746171646171546171446171346171246171146171046170f46170e46170d46170c46170b46170a461709461708461707461706461705461704461703461702461701460733084033075020ee03789ffe8377836900073308400a08826718078268100782690807826a00076f776f886f996faa7b6af8067b69f0067b68e8067b67e006492618074926100749260807492600074826c006208368e006836a0007836bc0063309ff33070a07018267080782681007826900078477ff826b5802d2b8088499ffd49808d48707510706284417836780060a05806790067b672802826788067b6720826780067b672002492698054926900549268005a0009567a00595688005492688055020f003714cff8269b805826ab0058267a8058268a0057b6750027b697801d497077b685802d4a808d478089888207b6a8001d4a707977720d48707510706283219826720026f779777208268206f88988920d497077b6720978820826728026f77987720d487077b6718816758023308207b6728025020f203439efe8268186f888269206f99826b200298ba18787a0f98ba10787a0e98ba08787a0d787b0c46170b46170a4617094617084617074617064617054617044617034617024617014607787910787818989a38787a17989a30787a16989a28787a15989a20787a14989a18787a13989a10787a1298990878791198893878791f98893078791e98892878791d98892078791c98891878791b98891078791a98880882697801826b8001d49b0b140900000000010000007b69201409e0ffffff00000000826a5802d89a09826a500294a97b6b200294b9787819520906281c18826728028377203308205020f403579dfe826800026f88826908026f99826a10026faa826b18026fbb98bc38787c1f98bc30787c1e98bc28787c1d98bc20787c1c98bc18787c1b98bc10787c1a98bc08787c19787b18787a1098ab38787b1798ab30787b1698ab28787b1598ab20787b1498ab18787b1398ab10787b1298aa08787a11787908989a38787a0f989a30787a0e989a28787a0d989a20787a0c989a18787a0b989a10787a0a9899087879097878988938787907988930787906988928988a18787a03988a10787a02988a08787a01826a880180aa7879059888207878044926180549261005492608057b6a0005826788007b6738058267687b6730058267707b6728058267787b672005826780007b6758058267587b6750058267607b674805956760059568400595692005956a0005826b90007b6b40055020f6032e4fff8267209577c082685802d8780782685002948782682002948752070628b916826778057b670002826770057b670802826768057b671002826760057b671802826728028377403308205020f803d49bfe826800026f88826908026f99826a10026faa826b18026fbb98bc38787c1f98bc30787c1e98bc28787c1d98bc20787c1c98bc18787c1b98bc10787c1a98bc08787c19787b18787a1098ab38787b1798ab30787b1698ab28787b1598ab20787b1498ab18787b1398ab10787b1298aa08787a11787908989a38787a0f989a30787a0e989a28787a0d989a20787a0c989a18787a0b989a10787a0a9899087879097878988938787907988930787906988928988a18787a03988a10787a02988a08787a01826a880180aa7879059888207878044926980449269004492688047b6a80048267e0017b67b8048267e8017b67b0048267f0017b67a8048267f8017b67a0048267387b67d8048267407b67d0048267487b67c8049567e0049568c0049569a004956a8004826b507b6bc0045020fa03aa4dff140700000000010000007b6718021407a0ffffff0000000082685802d878078268500294878268200294875207062823158267f8047b67f8018267f0047b6700028267e8047b6708028267e0047b671002826728028377603308205020fc033e9afe8268f8016f88826900026f99826a08026faa826b10026fbb98bc38787c1f98bc30787c1e98bc28787c1d98bc20787c1c98bc18787c1b98bc10787c1a98bc08787c19787b18787a1098ab38787b1798ab30787b1698ab28787b1598ab20787b1498ab18787b1398ab10787b1298aa08787a11787908989a38787a0f989a30787a0e989a28787a0d989a20787a0c989a18787a0b989a10787a0a989908787909787898893878790798893078790698892878790598892078790498891878790398891078790298880882691802959980826a5802d89a09826a500294a9826a200294a9787801520906280714826740026f777b670802826738026f777b671002826730026f777b671802826748026f777b67200282672802837780003308205020fe031999fe8268286f888269b0016f99826ab8016faa98ab38787b1f98ab30787b1e98ab28787b1d98ab20787b1c98ab18787b1b98ab10787b1a98ab08787b19787a1878791046170b46170a4617094617074617064617054617044617034617024617014607989a38787a17989a30787a16989a28787a15989a20787a14989a18787a13989a10787a1298990878791178780898893878790f98893078790e98892878790d98882078780c3308203307502000046798fe8268700178781f8268680178781e8268600178781d8268580178781c8268500178781b8268480178781a826840017878198268480278781882683801787817826830017878168268280178781582682001787814826818017878138268100178781282680801787811826830027878108268000178780f8268f80078780e8268f00078780d8268e80078780c8268e00078780b8268d80078780a8268d000787809826838027878088268c8007878078268c0007878068268b8007878058268b0007878048268a8007878038268a00078780282689800787801826840027878330720330820502002047b97fe46171f46171e46171d46171c46171b46171a46171946171846171746171646171546171446171346171246171146171046170f46170e46170d46170c46170b46170a46170946170846170746170646170546170446170346170246170146073308403307502004041097fe8377836900073308400a08826718078268100782690807826a00076f7b6f876f986fa9826a78017b6a5804826a80017b6a5004826a50027b6a4804826a58027b6a40047b6978047b6870047b67680495676004956840047b6b600450200604e2e0826708027b671804826710027b671004826718027b670804826720027b67000449263804492630044926200401956720049568000449262804330008049511c0fd7b1038027b1530027b162802951540028411e08289187b19508289107b19308289087b192882887b1820827a1882791082780882777b1a607b1af8017b19687b19f0017b18707b18e8017b17787b17e001492118024921100249210802492100024821c001208318e001831a0002831bc0013309ff33070a07286fe99517e08477e07b6700026471491718491710491708490783770a108268000282877b6758028287087b6750028287107b6728028287187b670002330820330750200a04ac95fe8268700178781f8268680178781e8268600178781d8268580178781c8268500178781b8268480178781a82684001787819826838017878178268300178781682682801787815826820017878148268180178781382681001787812826808017878118268000178780f8268f80078780e8268f00078780d8268e80078780c8268e00078780b8268d80078780a8268d0007878098268c8007878078268c0007878068268b8007878058268b0007878048268a8007878038268a0007878028268980078780182684802787818826830027878108268380278780882684002787833072033082050200c04c094fe46171f0246171e46171d46171c46171b46171a46171946171846171746171646171546171446171346171246171146171046170f46170e46170d46170c46170b46170a4617094617084617074617064617054617044617034617024617014607330840330750200e045494fe8377836900073308400a08826718078268100782690807826a00076f777b67f8016f887b68f0016f997b69e8016faa7b6ae0017b6af8067b69f0067b68e8067b67e006492618074926100749260807492600074826c006208368e006836a0007836bc0063309ff33070a078267e0017b67f8068267e8017b67f0068267f0017b67e8068267f8017b67e006826700027b671807826728027b671007826750027b670807826758027b6700078368e006836a00073309ff330b2033070a0f8367a0060a058067b0067b67b0018267a8067b6788018267a0067b6728029517e08477e07b6758026471491718491710491708490783770a108268580282877b6700028287087b67f8018287107b67f0018287187b67e801330740330820502010043293fe7c78017c797c7a027c7b03978808d4980897aa1097bb18d4ba0ad4a8087c79057c7a047c7b067c7c07979908d4a90997bb1097cc18d4cb0bd4b909979920d489027c79097c7a087c7b0a7c7c0b979908d4a90997bb1097cc18d4cb0bd4b9097c7a0d7c7b0c7c7c0e7c780f97aa08d4ba0a97cc10978818d4c808d4a808978820d498037c78117c7a107c7b127c7c13978808d4a80897bb1097cc18d4cb0bd4b8087c7a157c7b147c7c167c791797aa08d4ba0a97cc10979918d4c909d4a909979920d4890a7c78197c79187c7b1a7c7c1b978808d4980897bb1097cc18d4cb0bd4b8087c791d7c7b1c7c7c1e7c771f979908d4b90997cc10977718d4c707d49707977720d487076f7c7b6c58026fa97b69b8016f387b68e0016f2a7b6a50028267e8017b6778038267f0017b6770038267f8017b676803826700027b6760038267c0017b6798038267d8017b6790038267c8017b6788038267d0017b678003826790017b67b803826798017b67b0038267a0017b67a8038267a8017b67a0037b6ad8037b68d0037b69c8039567e0039568c0039569a003956a8003956b60037b6cc003502012048a538269b80182675002d49707826ae00182685802d4a808d47808988820d4a707977720d487075207150c64a08267e8038268f8037b6800028264e003826af003d3970bd8970c82625802d82408dab80cc90a0bc9cb03d8cb0b7b6bf801d80a0a826c5002826b0002c9cb0cc9ac0c826af801c9ac0cc99707c98707c92408d4c707d4380ad47a0ad4370798aa20977720d4a7075207a80b826728026f77977720826988016f99989a20d4a7077b6750029799208267b0016f77987720d497077b6700028167580283887b68580250201404b690fe3a088000023a098800023a0a9000023a0b9800027b6818077b6910077b6a08077b6b0007826830027b683007826838027b682807826840027b682007826848027b683807826800026f88826950026f99826a280297aa207b6a4807492640077b6950077b685807837983670007330803826a58020a06826730826808027b7818826810027b7810826818027b7808826820027b78955180f882107807821570078216680795118007320033074033082050201604ff8ffe7c78117c79107c7a127c7b13978808d4980897aa1097bb18d4ba0ad4a8087c79157c7a147c7b167c7c17979908d4a90997bb1097cc18d4cb0bd4b909979920d489027c79017c7a7c7b027c7c03979908d4a90997bb1097cc18d4cb0bd4b9097c7a057c7b047c7c067c780797aa08d4ba0a97cc10978818d4c808d4a808978820d498037c78197c7a187c7b1a7c7c1b978808d4a80897bb1097cc18d4cb0bd4b8087c7a1d7c7b1c7c7c1e7c791f97aa08d4ba0a97cc10979918d4c909d4a909979920d4890a7c78097c79087c7b0a7c7c0b978808d4980897bb1097cc18d4cb0bd4b8087c790d7c7b0c7c7c0e7c770f979908d4b90997cc10977718d4c707d49707977720d487076f7b6fa86f396f277b6758027b694802d497076489d4b808d478089888207b6b5002d4b707977720d4870752077e097b69400283973308207b67380250201804b58efe46171f46171e46171d46171c46171b46171a46171946171846171746171646171546171446171346171246171146171046170f46170e46170d46170c46170b46170a461709461708461707461706461705461704461703a00046170279461701c30046070882684002958704d88708826a5802c88a09d8a90ada880a82685002c88a0ad88a08826b4802c88b0b7b6968027b6760027b6a700295678002956860027b6b780250201a0441be826788028262980282638002826a900228570833074033082050201c04ea8dfe7c78117c79107c7a127c7b13978808d4980897aa1097bb18d4ba0ad4a8087c79157c7a147c7b167c7c17979908d4a90997bb1097cc18d4cb0bd4b909979920d489027c79017c7a7c7b027c7c03979908d4a90997bb1097cc18d4cb0bd4b9097c7a057c7b047c7c067c780797aa08d4ba0a97cc10978818d4c808d4a808978820d498037c78197c7a187c7b1a7c7c1b978808d4a80897bb1097cc18d4cb0bd4b8087c7a1d7c7b1c7c7c1e7c791f97aa08d4ba0a97cc10979918d4c909d4a909979920d4890a7c78097c79087c7b0a7c7c0b978808d4980897bb1097cc18d4cb0bd4b8087c790d7c7b0c7c7c0e7c770f979908d4b90997cc10977718d4c707d49707977720d487076f7b6fa86f396f277b6758027b694802d497076489d4b808d478089888207b6b5002d4b707977720d48707520769077b69400283973308207b67380250201e04a08cfe46171f46171e46171d46171c46171b46171a46171946171846171746171646171546171446171346171246171146171046170f46170e46170d46170c46170b46170a461709461708461707461706461705461704461703a00046170279461701c30046070882684002958704d88708826a5802c88a09d8a90ada880a82685002c88a0ad88a08826b4802c88b0b7b69a8027b67a0027b6ab0029567c0029568a0027b6bb8025020200477be8267c8028262d8028263c002826ad00228420633074033082050202204d58bfe7c78117c79107c7a127c7b13978808d4980897aa1097bb18d4ba0ad4a8087c79157c7a147c7b167c7c17979908d4a90997bb1097cc18d4cb0bd4b909979920d489027c79017c7a7c7b027c7c03979908d4a90997bb1097cc18d4cb0bd4b9097c7a057c7b047c7c067c780797aa08d4ba0a97cc10978818d4c808d4a808978820d498037c78197c7a187c7b1a7c7c1b978808d4a80897bb1097cc18d4cb0bd4b8087c7a1d7c7b1c7c7c1e7c791f97aa08d4ba0a97cc10979918d4c909d4a909979920d4890a7c78097c79087c7b0a7c7c0b978808d4980897bb1097cc18d4cb0bd4b8087c790d7c7b0c7c7c0e7c770f979908d4b90997cc10977718d4c707d49707977720d487076f7b6fa86f396f277b6758027b694802d497076489d4b808d478089888207b6b5002d4b707977720d48707520754057b69400283973308207b673802502024048b8afe46171f46171e46171d46171c46171b46171a46171946171846171746171646171546171446171346171246171146171046170f46170e46170d46170c46170b46170a461709461708461707461706461705461704461703a00046170279461701c30046070882684002958704d88708826a5802c88a09d8a90ada880a82685002c88a0ad88a08826b4802c88b0b7b69e8027b67e0027b6af002956700039568e0027b6bf80250202604137dff826708038262180382630003826a1003282c0433074033082050202804bf89fe7c78117c79107c7a127c7b13978808d4980897aa1097bb18d4ba0ad4a8087c79157c7a147c7b167c7c17979908d4a90997bb1097cc18d4cb0bd4b909979920d489027c79017c7a7c7b027c7c03979908d4a90997bb1097cc18d4cb0bd4b9097c7a057c7b047c7c067c780797aa08d4ba0a97cc10978818d4c808d4a808978820d498037c78197c7a187c7b1a7c7c1b978808d4a80897bb1097cc18d4cb0bd4b8087c7a1d7c7b1c7c7c1e7c791f97aa08d4ba0a97cc10979918d4c909d4a909979920d4890a7c78097c79087c7b0a7c7c0b978808d4980897bb1097cc18d4cb0bd4b8087c790d7c7b0c7c7c0e7c770f979908d4b90997cc10977718d4c707d49707977720d487076f7b6fa86f396f277b6758027b694802d497076489d4b808d478089888207b6b5002d4b707977720d4870752073e037b69400283973308207b67380250202a047588fe46171f46171e46171d46171c46171b46171a46171946171846171746171646171546171446171346171246171146171046170f46170e46170d46170c46170b46170a461709461708461707461706461705461704461703a00046170279461701c30046070882684002958704d88708826a5802c88a09d8a90ada880a82685002c88a0ad88a08826b4802c88b0b7b6928037b6720037b6a300395674003956820037b6b380350202c044b7dff826748038262580382634003826a500328160233074033082050202e04a987fe7c78117c79107c7a127c7b13978808d4980897aa1097bb18d4ba0ad4a8087c79157c7a147c7b167c7c17979908d4a90997bb1097cc18d4cb0bd4b909979920d489027c79017c7a7c7b027c7c03979908d4a90997bb1097cc18d4cb0bd4b9097c7a057c7b047c7c067c780797aa08d4ba0a97cc10978818d4c808d4a808978820d498037c78197c7a187c7b1a7c7c1b978808d4a80897bb1097cc18d4cb0bd4b8087c7a1d7c7b1c7c7c1e7c791f97aa08d4ba0a97cc10979918d4c909d4a909979920d4890a7c78097c79087c7b0a7c7c0b978808d4980897bb1097cc18d4cb0bd4b8087c790d7c7b0c7c7c0e7c770f979908d4b90997cc10977718d4c707d49707977720d487076f7b6fa86f396f277b6758027b694802d497076489d4b808d478089888207b6b5002d4b707977720d48707520728017b69400283973308207b673802502030045f86fe46171f46171e46171d46171c46171b46171a46171946171846171746171646171546171446171346171246171146171046170f46170e46170d46170c46170b46170a461709461708461707461706461705461704461703a00046170279461701c30046070882684002958704d88708826a5802c88a09d8a90ada880a82685002c88a0ad88a08826b4802c88b0b7b69c8057b67c0057b6ad0059567e0059568c0057b6bd8055020320425bb8267e8058262f8058263e005826af0050182685802d3870bd8870c648082644002d84308dab80c82695002c99a0bd89a0a82694802c99209c9a909d8cb0ac9a909c9cb0bc90707c98708c94307d49808d4b709d48909d4b808989920978820d498085108040083787b68580282673802502034043d85fe837833070182695802330036040a0d019511a0fe7b1058017b1550017b164801951560018411e07b17388297187b17188297107b17208297087b172882977b17304921180149211001492108013306057b160001492138014921300149212801492120014821e0002083180001831a2001831be0003309ff33070a0701821738018218280182192001821a3001d48707859801d4a808d48707520792014921180149211001492108014921000105492138014921300149212801492120014821e0002083180001831a2001831be0003309ff33070a074921180149211001492108014921000105492138014921300149212801492120010283180001831a20013309ff330b2033070a0f8217187b17588217207b17508217287b174895178000951940821a307b1a4033003804951100fc7b10f8037b15f0034921e80305951500048411e0641682987b6898018298087b6890018298107b6888018298187b6880017b6718330820330733005c0428c883fe821780007b1730821788007b1728821790007b1720821798007b17184921180149211001492108014921000105492138014921300149212801492120014821e0002083180001831a2001831be0003309ff33070a074921180149211001492108014921000105492138014921300149212801492120010183180001831a20013309ff330b2033070a0f8217388218187b78188218207b78108218287b78088218307b789551a0fe82105801821550018216480195116001320033074033082050203a040583fe7c78117c79107c7a127c7b13978808d4980897aa1097bb18d4ba0ad4a8087c79157c7a147c7b167c7c17979908d4a90997bb1097cc18d4cb0bd4b909979920d489027c79017c7a7c7b027c7c03979908d4a90997bb1097cc18d4cb0bd4b9097c7a057c7b047c7c067c760797aa08d4ba0a97cc10976618d46c0cd4ca0a97aa20d4a9097c7a197c7b187c7c1a7c761b97aa08d4ba0a97cc10976618d46c0cd4ca0a7c7b1d7c7c1c7c761e7c781f97bb08d4cb0b976610978818d46808d4b808978820d48a0a7c78097c7b087c7c0a7c760b978808d4b80897cc10976618d46c0cd4c8087c7b0d7c7c0c7c760e7c770f97bb08d4cb0b976610977718d46707d4b707977720d487076f766fa86f996f277b17387b1930d497076489d46808d47808988820d46707977720d48707520718017b192883973308207b172050203c04c381fe46171f46171e46171d46171c46171b46171a46171946171846171746171646171546171446171346171246171146171046170f46170e46170d46170c46170b46170a461709461708461707461706461705461704461703a00046170279461701c300460708821828958704d88708821a38c88a09d8a90ada880ac86a0ad86a08821b30c88b0b7b19a8007b17a0007b1ab0009517c0009518a0007b1bb80050203e042318ff8217c8008212d8008213c000821ad000821838d3870bd8870c6484821928d89308dab80cc96a0bd86a0a821630c96206c9a606d8cb0ac9a606c9cb0bc94707c98708c99307d46808d4b709d48909d4b808989920978820d49808510804008376821720646850204004b280fe83783307016469330042040a0d01827810827918827a088277d4a909d4870ad49a0a98aa20d49808978820d4a8085208a4009511f07b10087b158377330820330520502044046980fe46171f46171e46171d7446171c7346171b6946171a78461719657875184617177433096f7879164617156e78751446171373461712657879114617106478750f46170e65330c63787c0d46170c6946170b76330a72787a0a46170965461708737875074617063a330b77787b05787904787a03787c0246170173330845787882100882159511103200009511a07b10587b15507b1648828a18828b10828c088286d4ac08d4b609d48909989920d4b808978820d498087b172852081e029567207b1730d86707c87c087b18407b1c08d8c805da7705c8b5057b1b10d8b5077b1a18c8a7077b17387b16836733082033062050204604717ffe78761f8218306486d45808821940821b38d4b909d498089888207b1520d45909979920d4980846171e46171d46171c46171b46171a46171946171846171746171646171546171446171346171246171146171046170f46170e46170d46170c46170b46170a461709461708461707461706461705461704461703461702461701460752085d018365330820645750204804dd7efe46171f1e46171e46171d46171c46171b46171a46171946171846171746171646171546171446171346171246171146171046170f46170e46170d46170c46170b46170a461709461708461707461706461705461704461703461702461701821820821938d498081409e0ffffff00000000d89609821a4094a9948946075109ce0083572033082050204a044f7efe46171f46171e46171d7446171c7346171b6946171a784617196546171820461717744617166f4617156e4617142046171373461712654617116f4617106446170f2046170e65330c63787c0d46170c6946170b7646170a724617096546170873461707204617063a461705774617046f46170372787c02461701734607458218958760d88708821a08c88a09d8a90ada880a821810c88a0ad88a08821b18c8b808821b287bb77bb9087bba107bb8188210588215508216489511603200009511a07b10587b15507b1648828a18828b10828c088286d4ac08d4b609d48909989920d4b808978820d49808520824027b17109567207b1730d86707c87c087b18407b1c08d8c805da7705c8b5057b1b18d8b5077b1a20c8a7077b17387b16836733082033062050204c04237dfe821830648ad45808821940821b38d4b909d498089888207b1528d45909979920d4980878761f46171e46171d46171c46171b46171a46171946171846171746171646171546171446171346171246171146171046170f46170e46170d46170c46170b46170a46170946170846170746170646170546170446170346170246170146075208600164a683a5330820645750204e048d7cfe46171f2046171e46171d46171c46171b46171a46171946171846171746171646171546171446171346171246171146171046170f46170e46170d46170c46170b46170a461709461708461707461706461705461704461703461702461701821828821938d498081409e0ffffff00000000d89609821a4094a9948946075109cf0083572033082033052050205004fc7bfe46171d7546171b6d4617156d4617147946171a61461713614617127046171f7446171874461710744617166546170e6546171e6e4617176e4617096e461708697875197875117875074617063a4617057746171c6f46170b6f4617046f46170d7246170c724617037246170f6346170a6346170263461701734607458218958760d88708821a08c88a09d8a90ada880a821818c88a0ad88a08821b20c8b808821b107bb77bb9087bba107bb8188210588215508216489511603200009511e0fe7b1018017b1510017b160801951520018411e0828b10828c18828908828a7b19707b1c58d4c9087b1a8000d4ba09d489099899207b1b78d4b808978820d4980852088d098278187b18608278107b1888008278087b18900082777b179800811780003308207b176850205204cd7afe7c78117c79107c7a127c7b13978808d4980897aa1097bb18d4ba0ad4a8087c79157c7a147c7b167c7c17979908d4a90997bb1097cc18d4cb0bd4b909979920d498087c79197c7a187c7b1a7c7c1b979908d4a90997bb1097cc18d4cb0bd4b9097c7a1d7c7b1c7c7c1e7c761f97aa08d4ba0a97cc10976618d46c0cd4ca0a97aa20d4a9097c7a0d7c7b0c7c7c0e7c770f97aa08d4ba0a97cc10977718d4c707d4a7076f997b19506f887b18486f769866207b16408216607b16d800821788007b17d000821790007b17c800821798007b17c0004921f8004921f0004921e8004921e0004821a000208318c000831ae000831ba0003309ff33070a078017f4009777208218f800821940d497077b16d800821988007b19d000821990007b19c800821998007b19c0007b18f8007b17f0008217487b17e8008217507b17e0008318c000831ae0003309ff330b2033070a0f01821778821958d47909140700000000010000007b17401407e0ffffff0000000082188000d8780782187094877b195894975107dc07821798009579017b194888970182189000c887077b1778d4970788770182188800c887077b1750d88707821860c887077b1738821768837720330820502054040479fe7c78017c797c7a027c7b03978808d4980897aa1097bb18d4ba0ad4a8087c79057c7a047c7b067c7c07979908d4a90997bb1097cc18d4cb0bd4b909979920d489027c79097c7a087c7b0a7c7c0b979908d4a90997bb1097cc18d4cb0bd4b9097c7a0d7c7b0c7c7c0e7c760f97aa08d4ba0a97cc10976618d46c0cd4ca0a97aa20d4a9097c7a117c7b107c7c127c761397aa08d4ba0a97cc10976618d46c0cd4ca0a7c7b157c7c147c76167c781797bb08d4cb0b976610978818d46808d4b808978820d48a0a7c78197c7b187c7c1a7c761b978808d4b80897cc10976618d46c0cd4c8087c7b1d7c7c1c7c761e7c771f97bb08d4cb0b976610977718d46707d4b707977720d487074821a000206f777b17306fa77b17286f977b17206f277b17188217507b17d0008217787b17c8008217487b17c0008216387b16d8004921f8004921f0004921e8004921e0008318c000831ae000831ba0003309ff33070a077b16d8008217507b17d0008217787b17c8008217487b17c0008217187b17f8008217207b17f0008217287b17e8008217307b17e0008318c000831ae0003309ff330b2033070a0f018217409577c082188000d87807821870948782185894875107d705821798009578027b1878d8780782189000c878097b199800d88908da770882178800c878087b189000d87807821860c887077b17880082176883774033082050205604fc76fe7c78117c79107c7a127c7b13978808d4980897aa1097bb18d4ba0ad48a027c79017c7a7c7b027c7c03979908d4a90997bb1097cc18d4cb0bd49b037c7a157c7b147c7c167c761797aa08d4ba0a97cc10976618d46c0cd4ac047c7b057c7c047c76067c780797bb08d4cb0b976610978818d46808d4b8007c78197c7c187c761a7c791b978808d4c808976610979918d46909d4890c7c78097c79087c760a7c7a0b978808d4980897661097aa18d46a0ad48a067c781d7c791c7c7a1e7c7b1f978808d4980897aa1097bb18d4ba0ad4a8087c790d7c7a0c7c7b0e7c770f979908d4a90997bb10977718d4b707d49707d48707d46c0c977720d4c707d44008d42309978820d49808d487078e777b1760821788007b17d800821790007b17d000821798007b17c8008216787b16c0004921f8004921f0004921e8004921e0004821a000208318c000831ae000831ba0003309ff33070a078217e0008218e8008219f000821af800847700ff821b60d4b707821b88007b1bd800821b90007b1bd000821b98007b1bc8007b16c0007b1af8007b19f0007b18e8007b17e0008318c000831ae0003309ff330b2033070a0f01140700000000010000007b17601407a0ffffff0000000082188000d87807821870948782185894875107b603821768837760330820502058041175fe7c781d7c791c7c7a1e7c7b1f978808d4980897aa1097bb18d4ba0ad4a8087c790d7c7a0c7c7b0e7c7c0f979908d4a90997bb1097cc18d4cb0bd4b909d498089788207c79097c7a087c7b0a7c7c0b979908d4a90997bb1097cc18d4cb0bd4b9097c7a197c7b187c7c1a7c761b97aa08d4ba0a97cc10976618d46c0cd4ca0ad4a909d498087c79157c7a147c7b167c7c17979908d4a90997bb1097cc18d4cb0bd4b9097c7a057c7b047c7c067c760797aa08d4ba0a97cc10976618d46c0cd4ca0ad4a9097c7a017c7b7c7c027c760397aa08d4ba0a97cc109766187c7b11d46c0cd4ca0a7c7c1097bb087c76127c7713d4cb0b979920976610977718d46707d4b707d4a707d49707d487078e76821788007b17d800821790007b17d000821798007b17c8008217787b17c0004921f8004921f0004921e8004921e0004821a000208318c000831ae000831ba0003309ff33070a078217e8008218f0008219f800821ae00097660884aaff00ffd46a0a821b88007b1bd800821b90007b1bd000821b98007b1bc800821b787b1bc0007b19f8007b18f0007b17e8007b1ae0008318c000831ae0003309ff330b2033070a0f0182176095778082188000d87807821870948782185894875107db018217688377800033082050205a043573fe7c781d7c791c7c7a1e7c7b1f978808d4980897aa1097bb18d4ba0ad4a8087c790d7c7a0c7c7b0e7c7c0f979908d4a90997bb1097cc18d4cb0bd4b909d498089788207c79097c7a087c7b0a7c7c0b979908d4a90997bb1097cc18d4cb0bd4b9097c7a197c7b187c7c1a7c761b97aa08d4ba0a97cc10976618d46c0cd4ca0ad4a909d498087c79157c7a147c7b167c7c17979908d4a90997bb1097cc18d4cb0bd4b9097c7a057c7b047c7c067c760797aa08d4ba0a97cc10976618d46c0cd4ca0ad4a9097c7a017c7b7c7c027c760397aa08d4ba0a97cc109766187c7b11d46c0cd4ca0a7c7c1097bb087c76127c7713d4cb0b979920976610977718d46707d4b707d4a707d49707d487078e76821788007b17d800821790007b17d000821798007b17c8008217787b17c0004921f8004921f0004921e8004921e0004821a000208318c000831ae000831ba0003309ff33070a078217e8008218f0008219f800821ae00097661084aaffff00ffd46a0a821b88007b1bd800821b90007b1bd000821b98007b1bc800821b787b1bc0007b19f8007b18f0007b17e8007b1ae0008318c000831ae0003309ff330b2033070a0f9551e0fe82101801821510018216080195112001320000826880016f88826988016f99826a90016faa826b98016fbb98bc387b6c5801787c1f98bc307b6c5001787c1e98bc287b6c4801787c1d98bc207b6c4001787c1c98bc187b6c3801787c1b98bc107b6c3001787c1a98bc087b6c2801787c197b6b6801787b1898ab387b6b2001787b1798ab307b6b1801787b1698ab287b6b1001787b1598ab207b6b0801787b1498ab187b6b0001787b1398ab107b6bf800787b1298ab087b6bf000787b117b6a7001787a10989a387b6ae800787a0f989a307b6ae000787a0e989a287b6ad800787a0d989a207b6ad000787a0c989a187b6ac800787a0b989a107b6ac000787a0a989a087b6ab800787a097b6978017879089889387b69b0007879079889307b69a8007879069889287b69a0007879059889207b6998007879049889187b6990007879039889107b6988007879029889087b6980007879017b688001787833072033082050205e041670fe46171f46171e46171d46171c46171b46171a46171946171846171746171646171546171446171346171246171146171046170f46170e46170d46170c46170b46170a4617094617084617074617064617054617044617034617024617014607330840330750206004ab6ffe8377836960033308400a08826778038268700382696803826a60036f7c6f8b6f976fa87b6890017b6858037b6798017b6750037b6b88017b6b48037b6c60017b6c400349267803492670034926680349266003482620032083684003836a6003836b20033309ff33070a0701826760038068700382696803d48707d4970752070628e80e9517e08477e07b67606471491718491710491708490783770a1082686082877b67788287107b67708287087b67688287187b67608267600195770188780182698801c89808d48709889901826a9801c8a909d8a90a826b9001c8ba0a7b6a58037b6950037b6848037b67400349267803492670034926680349266003482620032083684003836a6003836b20033309ff33070a0701826778038268680382696003826a7003826b60d3b707826b68d3b808d48707826870d3a808826a78d3a909d49808d4870751070628311033082050206204516efe826870017878108268e80078780f8268e00078780e8268d80078780d8268d00078780c8268c80078780b8268c00078780a8268b800787809826878017878088268b0007878078268a8007878068268a000787805826898007878048268900078780382688800787802826880007878018268800178788268680178781882682001787817826818017878168268100178781582680801787814826800017878138268f8007878128268f0007878118268580178781f8268500178781e8268480178781d8268400178781c8268380178781b8268300178781a8268280178781933072033082050206404656dfe46171f0446171e46171d46171c46171b46171a46171946171846171746171646171546171446171346171246171146171046170f46170e46170d46170c46170b46170a4617094617084617074617064617054617044617034617024617014607330840330750206604f96cfe8377836960033308400a08826778038268700382696803826a60036f776f886f996faa7b6a60017b6a58037b6988017b6950037b6890017b6848037b6798017b67400349267803492670034926680349266003482620032083684003836a6003836b20033309ff33070a0701826760038269780382686803826a70037b6768957b0188b7017b6860c87808d48b07887701c87a0c7b6a50d8ac077b6958c897077b68707b6740d487077b6b787b6c48d4cb08d48707520706287c10826788017b675003826790017b674803826798017b674003826760017b67580349267803492670034926680349266003482620032083684003836a6003836b20033309ff33070a07826760017b675803826788017b675003826790017b674803826798017b6740038267407b6778038267487b6770038267707b6768038267787b67600383684003836a60033309ff330b2033070a0f8367e0020a058067f0027b6788018267e8027b67488267e0027b6760019517e08477e07b6798016471491718491710491708490783770a10826898018287187b67288287107b67308287087b673882877b6740492678024926700249266002a00095678002956860024926680250206804ec18ff82699802826a900282678802826880027b6790017b6970d497077b689801d4a808d478089888207b6a78d4a707977720d4870751070628380f826760016f779777208268486f88988920d497077b6748978820826788016f77987720d487077b6720816798013308207b67880150206a04c06afe8268206f888269486f99826b600198ba18787a0f98ba10787a0e98ba08787a0d787b0c46170b46170a4617094617084617074617064617054617044617034617024617014607787910787818989a38787a17989a30787a16989a28787a15989a20787a14989a18787a13989a10787a1298990878791198893878791f98893078791e98892878791d98892078791c98891878791b98891078791a988808826970826b78d49b0b140900000000010000007b69481409e0ffffff00000000826a9801d89a09826a900194a97b6b600194b978781952090628240e8267880183772033082050206c04d669fe8268286f888269306f99826a386faa826b406fbb98bc38787c1f98bc30787c1e98bc28787c1d98bc20787c1c98bc18787c1b98bc10787c1a98bc08787c19787b18787a1098ab38787b1798ab30787b1698ab28787b1598ab20787b1498ab18787b1398ab10787b1298aa08787a11787908989a38787a0f989a30787a0e989a28787a0d989a20787a0c989a18787a0b989a10787a0a98990878790978789889387879079889307879069889287879059889207879049889187879039889107879029888088269489599c0826a9801d89a09826a900194a9826a600194a97878015109300d8267880183774033082050206e04e168fe46171f46171e46171d46171c46171b46171a46171946171846171746171646171546171446171346171246171146171046170f46170e46170d46170c46170b46170a461709461708461707461706461705461704461703461702461701140800000000010000007b68481408a0ffffff0000000082699801d8890882699001949882696001949846075108920c82678801837760330820502070044368fe46171f46171e46171d46171c46171b46171a46171946171846171746171646171546171446171346171246171146171046170f46170e46170d46170c46170b46170a46170946170846170746170646170546170446170346170246170182684895888082699801d8890882699001949882696001949846075108050c826788018377800033082050207204b567fe46171f46171e46171d46171c46171b46171a46171946171846171746171646171546171446171346171246171146171046170f46170e46170d46170c46170b46170a46170946170846170746170646170546170446170346170246170146073308203307502074044a67fe8268580178781f8268500178781e8268480178781d8268400178781c8268380178781b8268300178781a8268280178781982682001787817826818017878168268100178781582680801787814826800017878138268f8007878128268f0007878118268e80078780f8268e00078780e8268d80078780d8268d00078780c8268c80078780b8268c00078780a8268b8007878098268b0007878078268a8007878068268a00078780582689800787804826890007878038268880078780282688000787801826868017878188268700178781082687801787808826880017878330720330820502076045e66fe46171f0346171e46171d46171c46171b46171a46171946171846171746171646171546171446171346171246171146171046170f46170e46170d46170c46170b46170a4617094617084617074617064617054617044617034617024617014607330840330750207804f265fe8377836960033308400a08826760037b678801826768037b676001826770037b675801826778037b675001330820330750207a04bb65fe8268586f898268506f8a8268606f8b8268686f8c98c83878781f98c83078781e98c82878781d98c82078781c98c81878781b98c81078781a98c8087878197b6c3001787c1898b83878781798b83078781698b82878781598b82078781498b81878781398b81078781298b8087878117b6b3801787b1098a83878780f98a83078780e98a82878780d98a82078780c98a81878780b98a81078780a98a8087878097b6a4001787a089898387878079898307878069898287878059898207878049898187878039898107878029898087878017b694801787933072033082050207c04d764fe8269500198983878781f98983078781e98982878781d98982078781c98981878781b98981078781a989808787819787918826958019898387878179898307878169898287878159898207878149898187878139898107878129898087878117879108269600198983878780f98983078780e98982878780d98982078780c98981878780b98981078780a989808787809787908826988019898387878079898307878069898287878059898207878049898187878039898107878029898087878017879330840330750207e040864fe8377836960033308400a08826778038268700382696803826a60036f7b6f876f986fa9826a707b6a3802826a787b6a3002826a90017b6a2802826a98017b6a20027b6958027b6850027b67480295674002956820027b6b4002502080046fe8836700030a05806710037b678801826708037b672801826700037b6798019517e08477e07b6790016471491718491710491708490783770a10826890018287187b6750018287107b6758018287087b67600182877b679001330740330820502082044463fe7c78117c79107c7a127c7b13978808d4980897aa1097bb18d4ba0ad4a8087c79157c7a147c7b167c7c17979908d4a90997bb1097cc18d4cb0bd4b909979920d489027c79017c7a7c7b027c7c03979908d4a90997bb1097cc18d4cb0bd4b9097c7a057c7b047c7c067c780797aa08d4ba0a97cc10978818d4c808d4a808978820d498037c78197c7a187c7b1a7c7c1b978808d4a80897bb1097cc18d4cb0bd4b8087c7a1d7c7b1c7c7c1e7c791f97aa08d4ba0a97cc10979918d4c909d4a909979920d4890a7c78097c79087c7b0a7c7c0b978808d4980897bb1097cc18d4cb0bd4b8087c790d7c7b0c7c7c0e7c770f979908d4b90997cc10977718d4c707d49707977720d487076f786fa76f396f2ad4a909d4870ad49a0a98aa20d49808978820d4a80852085a06826828016f88978920826a88016faa98aa20d4a9097b698801826998016f99979920988820d498087b68280183777b67200133082050208404e061fe826850016f88826958016f99826a60016faa826b90016fbb98bc38787c1f98bc30787c1e98bc28787c1d98bc20787c1c98bc18787c1b98bc10787c1a98bc08787c19787b18787a1098ab38787b1798ab30787b1698ab28787b1598ab20787b1498ab18787b1398ab10787b1298aa08787a11787908989a38787a0f989a30787a0e989a28787a0d989a20787a0c989a18787a0b989a10787a0a989908787909787898893878790798893078790698892878790598892078790498891878790398891078790298880878780133082082672001502086040761fe3a08a000023a09a800023a0ab000023a0bb800027b6878037b6970037b6a68037b6b6003826868017b689803826870017b689003826878017b688803826880017b688003826830017b68b803826838017b68b003826840017b68a803826848017b68a003826888016f887b68d803826828016f887b68d003826898019788207b68c8034926c003837983676003330804330a200a068267188268587b78188268507b78108268607b78088268687b78955100fc8210f8038215f0038216e803951100043200330740330820502088043560fe7c78117c79107c7a127c7b13978808d4980897aa1097bb18d4ba0ad4a8087c79157c7a147c7b167c7c17979908d4a90997bb1097cc18d4cb0bd4b909979920d489027c79017c7a7c7b027c7c03979908d4a90997bb1097cc18d4cb0bd4b9097c7a057c7b047c7c067c780797aa08d4ba0a97cc10978818d4c808d4a808978820d498037c78197c7a187c7b1a7c7c1b978808d4a80897bb1097cc18d4cb0bd4b8087c7a1d7c7b1c7c7c1e7c791f97aa08d4ba0a97cc10979918d4c909d4a909979920d4890a7c78097c79087c7b0a7c7c0b978808d4980897bb1097cc18d4cb0bd4b8087c790d7c7b0c7c7c0e7c770f979908d4b90997cc10977718d4c707d49707977720d487076f7b6fa86f396f277b6798017b698801d497076489d4b808d478089888207b6b9001d4b707977720d4870752073d037b69800183973308207b67780150208a04eb5efe46171f46171e46171d46171c46171b46171a46171946171846171746171646171546171446171346171246171146171046170f46170e46170d46170c46170b46170a461709461708461707461706461705461704461703a00046170279461701c30046070882688001958704d88708826a9801c88a09d8a90ada880a82689001c88a0ad88a08826b8801c88b0b7b69a8017b67a0017b6ab0019567c0019568a0017b6bb80150208c0467de8267c8018262d8018263c001826ad00128160233074033082050208e04205efe7c78117c79107c7a127c7b13978808d4980897aa1097bb18d4ba0ad4a8087c79157c7a147c7b167c7c17979908d4a90997bb1097cc18d4cb0bd4b909979920d489027c79017c7a7c7b027c7c03979908d4a90997bb1097cc18d4cb0bd4b9097c7a057c7b047c7c067c780797aa08d4ba0a97cc10978818d4c808d4a808978820d498037c78197c7a187c7b1a7c7c1b978808d4a80897bb1097cc18d4cb0bd4b8087c7a1d7c7b1c7c7c1e7c791f97aa08d4ba0a97cc10979918d4c909d4a909979920d4890a7c78097c79087c7b0a7c7c0b978808d4980897bb1097cc18d4cb0bd4b8087c790d7c7b0c7c7c0e7c770f979908d4b90997cc10977718d4c707d49707977720d487076f7b6fa86f396f277b6798017b698801d497076489d4b808d478089888207b6b9001d4b707977720d48707520728017b69800183973308207b67780150209004d65cfe46171f46171e46171d46171c46171b46171a46171946171846171746171646171546171446171346171246171146171046170f46170e46170d46170c46170b46170a461709461708461707461706461705461704461703a00046170279461701c30046070882688001958704d88708826a9801c88a09d8a90ada880a82689001c88a0ad88a08826b8801c88b0b7b69a8027b67a0027b6ab0029567c0029568a0027b6bb80250209204a0de8267c8028262d8028263c002826ad0020182689801d3870bd8870c648082648001d84308dab80c82699001c99a0bd89a0a82698801c99209c9a909d8cb0ac9a909c9cb0bc90707c98708c94307d49808d4b709d48909d4b808989920978820d4980851086100492610024926080249260002140700000000717b484e956800027b6718023307502094044e5cfe4926f8014926f0014926e001113307049568e0014926e801502096042f5cfe330824330750209804735bfe83783307013309240a0d0183787b6898018267780150209a04575bfe83783307018269980133009c040a0d019511807b10787b15707b1668951580008411f08289828a08828b1082881864767b18187b1b107b1a087b19491138491130491128951740641949112050209e04ded5821750821858821940821a487b67107b68187b697b6a08955180821078821570821668951180003200821770821878d4870782189800d46808d478089888207b1668d46707977720d4870752071d068216d8007b1680008217d0007b1790008217c8007b17608217c0007b178800811798003308205020a004895afe6f68821990006f998216606f6a821b88006fbb98bc38787c1f98bc30787c1e98bc28787c1d98bc20787c1c98bc18787c1b98bc10787c1a98bc08787c19787b18787a1098ab38787b1798ab30787b1698ab28787b1598ab20787b1498ab18787b1398ab10787b1298aa08787a11787908989a38787a0f989a30787a0e989a28787a0d989a20787a0c989a18787a0b989a10787a0a989908787909787898893878790798893078790698892878790598892078790498891878790398891078790298880878780133082033075020a204b759fe8218406f888219486f99821a506faa821b586fbb98bc38787c1f98bc30787c1e98bc28787c1d98bc20787c1c98bc18787c1b98bc10787c1a98bc08787c19787b1898ab38787b1798ab30787b1698ab28787b1598ab20787b1498ab18787b1398ab10787b1298ab08787b11787a10989a38787a0f989a30787a0e989a28787a0d989a20787a0c989a18787a0b989a10787a0a989a08787a09787908988938787907988930787906988928787905988920787904988918787903988910787902988908787901787833082033075020a404e458fe83778319c0003308200a0801821898009587207b1750d88709821878c89804d8840ada990a821968c8a90082179000821a8800d47a0a82178000d4760bd4ab0bd8900a821370c83a0a510bd6031407e0ffffff00000000821b9800d8b7067b16408e8cda860c9a96c9c6087b18588e82d8c60c8e96c836069a66c9c6068e63da620364697b1648c9b7028218789a8c821840c98c0b7b1740d827068ebcdab60c821858d49806db630c94c295271fd8270694cbc86b02d8b20bda660b94c87b1858c8b8087b1808978b3b982605d4b60397223b987b05d42b067b163882188800888b01821260c9b2077b17209589ff7b19307b1328d3370bd83703d86907dbb3077b1710d4280b88bb0182179000d8b70382188000c93808c9b70782194894c9821b08821c58d8cb0cc8c90998b305979c3bd4c303989c05d83709d3c802d8c80bda290bd33706d42606821910da690bdabc087b189000dab307821820821928dab908821930821c38dabc09989b3b978c056483d4cb0b979c05821678c8b60682189800c88c0c7b1c60d88c0bc8b606821878d38602821878d8860cda2b0c8218d0007b18880098333b977b05d43b038218c8007b18800098773b82129000972205d4720b821968821270c8b202c89303d8930bc8b202c83c0cd83c0b821870c8b202821b6095b7207b1738d8b70bc8b6077b1730d86706dabb068217c000c8c6067b1628d8c60cc82c0c7b1c20821b78821cd8006f777b179000821780006f72821788006f777b1788006fc77b178000821350017b18607b195864b6821798007b17507b1a707b10687b14787b1398007b12487b12b000821788007b17a800821780007b17a000821790007b17b8004921d8004921d0004921c8004921c0004821e000208318a000831ac000831be0003309ff33070a0701821760821858d48707821840821950d8890894689478510898018216d8008217d0007b17508217c8007b17588217c0007b1760811798003308205020a6040a56fe6f688219506f99821a586faa821b606fbb98bc38787c1f98bc30787c1e98bc28787c1d98bc20787c1c98bc18787c1b98bc10787c1a98bc08787c19787b18787a1098ab38787b1798ab30787b1698ab28787b1598ab20787b1498ab18787b1398ab10787b1298aa08787a11787908989a38787a0f989a30787a0e989a28787a0d989a20787a0c989a18787a0b989a10787a0a98990878790978789889387879079889307879069889287879059889207879049889187879039889107879029888087878018219800095990188970182188800c878087b1888007b198000d48907887b01821748c8b702d8720782189000c878087b18900082179800957320d873096476821b78c89b04d8b40ada990a821738d37606821968821c28d39c0cd46c0c821730d3b707821870821620d38606d47606c8a900d46c0cd8900ac88a0a520c1cfe280682135001821b187bb37bb4087bb0107bba18955100ff8210f8008215f0008216e80095110001320000951100ff7b10f8007b15f0007b16e800951500018411f082897b19208289087b19108289107b19088288187b187b17183307403308205020a8045f54fe7c78017c797c7a027c7b03978808d4980897aa1097bb18d4ba0ad4a8087c79057c7a047c7b067c7c07979908d4a90997bb1097cc18d4cb0bd4b909979920d489027c79097c7a087c7b0a7c7c0b979908d4a90997bb1097cc18d4cb0bd4b9097c7a0d7c7b0c7c7c0e7c760f97aa08d4ba0a97cc10976618d46c0cd4ca0a97aa20d4a9097c7a117c7b107c7c127c761397aa08d4ba0a97cc10976618d46c0cd4ca0a7c7b157c7c147c76167c781797bb08d4cb0b976610978818d46808d4b808978820d48a0a7c78197c7b187c7c1a7c761b978808d4b80897cc10976618d46c0cd4c8087c7b1d7c7c1c7c761e7c771f97bb08d4cb0b976610977718d46707d4b707977720d487076f7b7b1b386fa66f997b19306f287b182882177b17b8008217087b17b0008217107b17a8008217207b17a0007b1898007b1990007b1688009517c0009518a000951980007b1b80003300aa04951100ff7b10f8007b15f0007b16e800951500018411e07b171882961082977b1798008297187b17708297087b1778828b18828a1082890882877b1b407b1bb8007b1a487b1ab0007b19507b19a8007b17587b17a0004921d8004921d0004921c8004921c0004821e000208318a000831ac000831be0003309ff33070a0728b2f76464821ac8008217d8007b1710821bc0008213d000d36a0cd86a08821938d89b06dac608c94a0ac96a0a7b1a08c99b0b95bc1fd8bc0bc8ba0a84cce0c84a07c8c9097b1920d8c90cc8c702d3a207d8a209da7c09821630c96307d8630c6463821028821610c90606c9c606d8870cc9c606c98707821808d88a08dabb08c87808d87807c8380ac89a0cd88a08d8ac09c80606c86707c88707c897068e678ec8db6708d46c078e29db780952093901643b821738821820d87807d34208d84209da8709d83c07d30608d8060ada870ad33c07d48707da790a520a0c013307403308207b14107b12087b1c5020ac049b51fe6f6882196f99821a086faa821b206fbb787b1898bc38787c1f98bc30787c1e98bc28787c1d98bc20787c1c98bc18787c1b98bc10787c1a98bb08787b19787a1098ab38787b1798ab30787b1698ab28787b1598ab20787b1498ab18787b1398ab10787b1298aa08787a11787908989a38787a0f989a30787a0e989a28787a0d989a20787a0c989a18787a0b989a10787a0a98990878790978789889387879079889307879069889287879059889207879049889187879039889107879029888087878018217188218387b788218287b78188218107b78088218307b7810955100ff8210f8008215f0008216e800951100013200491170491168491160140700000000717b484e9518607b177833075020ae043651fe491158491150491140413307049518404911485020b0041c51fe33082433075020b2046050fe83783307013309243300b4040a0d019511a07b10587b15507b16489515608411f08289828a08828b1082881864767b18187b1b107b1a0895172064187b195020b60486fb821730821838821920821a287b67107b68187b697b6a089551a082105882155082164895116032009511e0fe7b1018017b1510017b160801951520018411e082787b18108278087b18388278107b18308276188317a0000a058217a8008218a0008119b0006f77987a206f88978b20d4ba0a7b1a289777206f99989920d497077b17209888207b181833082033075020b804874ffe7b16086f688216108219306f99821a386faa6f6b98bc38787c1f98bc30787c1e98bc28787c1d98bc20787c1c98bc18787c1b98bc10787c1a98bc08787c19787b1898ab38787b1798ab30787b1698ab28787b1598ab20787b1498ab18787b1398ab10787b1298ab08787b11787a10989a38787a0f989a30787a0e989a28787a0d989a20787a0c989a18787a0b989a10787a0a989a08787a0978790898893878790798893078790698892878790598892078790498891878790398891078790298890878790178783307203308205020ba04b34efe46171f46171e46171d46171c46171b46171a46171946171846171746171646171546171446171346171246171146171046170f46170e46170d46170c46170b46170a461709461708461707461706461705461704461703461702461701460733084033075020bc04484efe83778319e0003308400a088217f8008218f0008219e800821ae0006f776f886f996faa7b1ad8007b19d0007b18c8007b17c0004921f8004921f0004921e8004921e00048210001208318c000831ae000831b00013309ff33070a07018017f0008218e0008219e800821a18d3a707821a20d3a808d48707821828d39808d487075207377b16408217387b17488217307b17509517408218087b18585020be047b039551e0fe8210180182151001821608019511200132003307403308205020c004844dfe7c78117c79107c7a127c7b13978808d4980897aa1097bb18d4ba0ad4a8087c79157c7a147c7b167c7c17979908d4a90997bb1097cc18d4cb0bd4b909979920d489027c79017c7a7c7b027c7c03979908d4a90997bb1097cc18d4cb0bd4b9097c7a057c7b047c7c067c760797aa08d4ba0a97cc10976618d46c0cd4ca0a97aa20d4a9097c7a197c7b187c7c1a7c761b97aa08d4ba0a97cc10976618d46c0cd4ca0a7c7b1d7c7c1c7c761e7c781f97bb08d4cb0b976610978818d46808d4b808978820d48a0a7c78097c7b087c7c0a7c760b978808d4b80897cc10976618d46c0cd4c8087c7b0d7c7c0c7c760e7c770f97bb08d4cb0b976610977718d46707d4b707977720d487076f766fa86f996f277b17387b1930d497076489d46808d47808988820d46707977720d48707520713017b192883973308207b17205020c204424cfe46171f46171e46171d46171c46171b46171a46171946171846171746171646171546171446171346171246171146171046170f46170e46170d46170c46170b46170a461709461708461707461706461705461704461703a00046170279461701c300460708821828958704d88708821a38c88a09d8a90ada880ac86a0ad86a08821b30c88b0b7b19687b17607b1a70951780009518607b1b785020c4041eecfe821788008212980082138000821a9000821838d3870bd8870c6484821928d89308dab80cc96a0bd86a0a821630c96206c9a606d8cb0ac9a606c9cb0bc94707c98708c99307d46808d4b709d48909d4b808989920978820d4980851080400837682172064685020c604364bfe837833070164693300c8040a0d019511907b10687b15607b16589515708411f0828a187b1a08829b1882847b14828a08829608829c828310829210c8a609c8c404d8c40cc8c909d36900d86906da0c06c83208821c08c8bc0cd8280bc8cb0bc8680cd88c08c88b00d3a90bd8a90a8218d88406dbba06d83c02821808d3800bd8800adab20ad33c08d4b808db8a0652061f7b747b79087b7c107b70189551908210688215608216589511703200491140491138491130140700000000717b484e9518307b174833075020ca04174bfe491128491120491110113307049518104911185020cc04fd4afe33082433075020ce04414afe83783307013309243300d0040a0d019511c0fd7b1038027b1530027b162802951540028411e0641682787b6838018278087b6830018278107b6828018277187b67200149269801492690014926880149268001836780010a10826798017b6718826790017b6710826780017b6708826788017b6733082033075020d204c149fe826820016f88826928016f99826a30016faa826b38016fbb98bc387b6cf800787c1f98bc307b6cf000787c1e98bc287b6ce800787c1d98bc207b6ce000787c1c98bc187b6cd800787c1b98bc107b6cd000787c1a98bc087b6cc800787c197b6b0001787b1898ab387b6bc000787b1798ab307b6bb800787b1698ab287b6bb000787b1598ab207b6ba800787b1498ab187b6ba000787b1398ab107b6b9800787b1298ab087b6b9000787b117b6a0801787a10989a387b6a8800787a0f989a307b6a8000787a0e989a287b6a78787a0d989a207b6a70787a0c989a187b6a68787a0b989a107b6a60787a0a989a087b6a58787a097b6910017879089889387b69507879079889307b69487879069889287b69407879059889207b69387879049889187b69307879039889107b69287879029889087b69207879017b68180178783307203308205020d4047548fe46171f0246171e46171d46171c46171b46171a46171946171846171746171646171546171446171346171246171146171046170f46170e46170d46170c46170b46170a461709461708461707461706461705461704461703461702461701460733084033075020d6040948fe83778369e0013308400a088267f8018268f0018269e801826ae0016f776f886f996faa7b6a20017b6ab8017b6928017b69b0017b6830017b68a8017b6738017b67a0014926f8014926f0014926e8014926e0014826c001208368a001836ae001836bc0013309ff33070a0701826be8018269e0018262f8018264f001826cc8bc0c826808c898087b6808d8980ac8ac0cd3bc037b6cd8bc0b826c10c84c0c826818c82808d84c09c8980864a9db3b09c89c07d8c709c8980c85a80185b901db3908d84709d32c0a7b6c10d82c0bdaa90b7b6718d34707d4a70785b901db790851083f06826728017b67b001826730017b67a801826738017b67a001826720017b67b8014926f8014926f0014926e8014926e0014826c001208368a001836ae001836bc0013309ff33070a07826720017b67b801826728017b67b001826730017b67a801826738017b67a0018267107b67f8018267187b67f00182677b67e8018267087b67e0018368a001836ae0013309ff330b2033070a0f9517e08477e07b6738016471491718491710491708490783770a10826838018287187b67188287107b6720018287087b67280182877b67300133082033075020d8044c46fe8268f80078781f8268f00078781e8268e80078781d8268e00078781c8268d80078781b8268d00078781a8268c8007878198268c0007878178268b8007878168268b0007878158268a8007878148268a00078781382689800787812826890007878118268880078780f8268800078780e82687878780d82687078780c82686878780b82686078780a8268587878098268507878078268487878068268407878058268387878048268307878038268287878028268207878018268000178781882680801787810826810017878088268180178783307203308205020da046c45fe46171f0246171e46171d46171c46171b46171a46171946171846171746171646171546171446171346171246171146171046170f46170e46170d46170c46170b46170a461709461708461707461706461705461704461703461702461701460733084033075020dc040045fe83778369e0013308400a088267f8018268f0018269e801826ae0016f776f886f996faa7b6ab8017b69b0017b68a8017b67a0014926f8014926f0014926e8014926e0014826c001208368a001836ae001836bc0013309ff33070a078267f8017b67c8008267f0017b67d0008267e8017b67d8008267e0017b67e0003307403308205020de047844fe7c78117c79107c7a127c7b13978808d4980897aa1097bb18d4ba0ad4a8087c79157c7a147c7b167c7c17979908d4a90997bb1097cc18d4cb0bd4b909979920d489027c79017c7a7c7b027c7c03979908d4a90997bb1097cc18d4cb0bd4b9097c7a057c7b047c7c067c780797aa08d4ba0a97cc10978818d4c808d4a808978820d498037c78197c7a187c7b1a7c7c1b978808d4a80897bb1097cc18d4cb0bd4b8087c7a1d7c7b1c7c7c1e7c791f97aa08d4ba0a97cc10979918d4c909d4a909979920d4890a7c78097c79087c7b0a7c7c0b978808d4980897bb1097cc18d4cb0bd4b8087c790d7c7b0c7c7c0e7c770f979908d4b90997cc10977718d4c707d49707977720d487076f7b6fa96f386f277b67f8007b68e800d48707d4b908d478089888207b6bf000d4b707977720d4870752075c0283973308207b6738017b69c0005020e0043043fe8268186f88826920016f99826a28016faa826b30016fbb98bc38787c1f98bc30787c1e98bc28787c1d98bc20787c1c98bc18787c1b98bc10787c1a98bc08787c19787b18787a1098ab38787b1798ab30787b1698ab28787b1598ab20787b1498ab18787b1398ab10787b1298aa08787a11787908989a38787a0f989a30787a0e989a28787a0d989a20787a0c989a18787a0b989a10787a0a98990878790978789889387879079889307879069889287879059889207879049889187879039889107879029888088269f000826ae800d4a909140ae0ffffff00000000826bc000d8ab0a826bf80094ba949a787801510a5601826738018377203308205020e2042d42fe8268c8006f888269d0006f99826ad8006faa826be0006fbb98bc38787c1f98bc30787c1e98bc28787c1d98bc20787c1c98bc18787c1b98bc10787c1a98bc08787c19787b18787a1098ab38787b1798ab30787b1698ab28787b1598ab20787b1498ab18787b1398ab10787b1298aa08787a11787908989a38787a0f989a30787a0e989a28787a0d989a20787a0c989a18787a0b989a10787a0a9899087879097878988938787907988930787906988928787905988920787904988918787903988910787902988808787801330840826738015020e4045441fe3a08c000023a09c800023a0ad000023a0bd800027b68f8017b69f0017b6ae8017b6be001826800017b681802826808017b681002826810017b680802826818017b68000283798367e001330802330a400a069551c0fd82103802821530028216280295114002320000492670014926680149266001140700000000717b484e956860017b67780133075020e6047441fe4926580149265001492640011133070495684001492648015020e8045541fe33082433075020ea049940fe83783307013309243300ec040a0d019511d07b10287b15209515308411f08278827908827a108277187b17187b1a107b190864177b185020ee046ff09551d082102882152095113032009511a07b10587b15507b1648828a18828b10828c088286d4ac08d4b609d48909989920d4b808978820d498087b172852081a029567207b1730d86707c87c087b18407b1c08d8c805da7705c8b5057b1b10d8b5077b1a18c8a7077b17387b1683673308203306205020f004e13ffe78761f8218306486d45808821940821b38d4b909d498089888207b1520d45909979920d4980846171e46171d46171c46171b46171a46171946171846171746171646171546171446171346171246171146171046170f46170e46170d46170c46170b46170a461709461708461707461706461705461704461703461702461701460752085901836533082064575020f2044d3ffe46171f1b46171e46171d46171c46171b46171a46171946171846171746171646171546171446171346171246171146171046170f46170e46170d46170c46170b46170a461709461708461707461706461705461704461703461702461701821820821938d498081409e0ffffff00000000d89609821a4094a9948946075109ca008357203308205020f404bf3efe4617176546171468461711754617107046171a6446170e6446170c6c4617156146170b6146170a764617096e4617196946170d694617086946171f46171e46171d46171c46171b4617182046170f20461707204617063a461705774617046f4617127246170372461713634617026346171673461701734607458218958760d88708821a08c88a09d8a90ada880a821810c88a0ad88a08821b18c8b808821b287bb77bb9087bba107bb818821058821550821648951160320000951138ff7b10c0007b15b8007b16b0008282188285108283088286d42308d4560cd48c0c98cc20d45808978820d4c8087b17305208a40482b7187b170882b7107b171082b7087b171882b77b172082a7187b17880082a7107b1780009567407b17a000d86707c873087b1898007b1340d83808da770882a7087b177882a77b17a8008297187b17608297107b17688297087b175882977b1770c858087b1890007b1548d858077b1250c872057b163883673308207b175020f604483dfe821aa00046171f40821b9000d4ba0882199800d45909d49808988820d4b909979920d4980846171e46171d46171c46171b46171a46171946171846171746171646171546171446171346171246171146171046170f46170e46170d46170c46170b46170a4617094617084617074617064617054617044617034617024617014607520899037b152883a73308205020f804b43cfe8213a8006f3898893878791f98893078791e98892878791d98892078791c98891878791b98891078791a9889087879198216786f69787818989838787817989830787816989828787815989820787814989818787813989810787812821c80006fca78791098990878791198a83878780f98a83078780e98a82878780d98a82078780c98a81878780b98a81078780a821b88006fb8787a0898aa08787a09988938787907988930787906988928787905988920787904988918787903988910787902821960821558d49505821470821968d4940ad45a0ad4590998aa20979920d4a909787898880878780152099b0264b8d4c307d46808d48707987720d4c808978820d48707821250821b488215408219385207740282179000821828d487071408e0ffffff00000000821aa000d88a08821a980094a8947851084d02959660d89607c875087b189800d85808da7708c8b8087b18a000d8b807c827077b17900083447b14708367833564585020fa04413bfe83776458821598008219700a02018217a800c867077b1670d86708821978c85909c88909d3590ad8590bdaa80b82188000821ca000c8c808c88b0bd88b0ad8c808821c880082169000c86c0cc8c808c8a808d4b70ad49808d48a0a98aa20d4b808978820d4a8085208ac0183773308205020fc04ca3afe46171f46171e46171d46171c46171b46171a46171946171846171746171646171546171446171346171246171146171046170f46170e46170d46170c46170b46170a46170946170846170746170646170546170446170346170246170146078217a80095771f1408e0ffffff01000000d28707821870c878087b18a800d8780582169800c8560694658217a000c87505d8750782189000c887077b17a00082178377203308205020fe041d3afe8218086f888219106f99821a186faa821b206fbb98bc38787c1f98bc30787c1e98bc28787c1d98bc20787c1c98bc18787c1b98bc10787c1a98bc08787c19787b1898ab38787b1798ab30787b1698ab28787b1598ab20787b1498ab18787b1398ab10787b1298ab08787b11787a10989a38787a0f989a30787a0e989a28787a0d989a20787a0c989a18787a0b989a10787a0a989a08787a0978790898893878790798893078790698892878790598892078790498891878790398891078790298890878790178788217308218a8007b787b76087b75108218a0007b78188210c0008215b8008216b0009511c8003200009511a0fe7b1058017b1550017b164801951560018411f0828c10828218828608828bd42608d4cb0ad48a0a98aa20d4c808978820d4a80852087e097b16b0007b1cb8007b1298007b17188297187b1788008296108297087b17c00082977b1790007b1ba80083b733082050200005bc38fe82189000d4680882198800821ac000d4a909d498089888207b1678d46909979920d49808520820097c78197c79187c7a1a7c7b1b978808d4980897aa1097bb18d4ba0ad4a8087c791d7c7a1c7c7b1e7c7c1f979908d4a90997bb1097cc18d4cb0bd4b909979920d489027b12d0007c78117c79107c7a127c7b13978808d4980897aa1097bb18d4ba0ad4a8087c79157c7a147c7b167c7c17979908d4a90997bb1097cc18d4cb0bd4b909979920d489037b13c8007c78097c79087c7a0a7c7b0b978808d4980897aa1097bb18d4ba0ad4a8087c790d7c7a0c7c7b0e7c7c0f979908d4a90997bb1097cc18d4cb0bd4b909979920d4890c7b1c387c78017c797c7a027c7b03978808d4980897aa1097bb18d4ba0ad4a8087c79057c7a047c7b067c7707979908d4a90997bb10977718d4b707d49707977720d487066f677b17706fc77b17686f377b17406f277b17800081179000330820502002055f37fe82189000958b20d88b0c7b1c588218c000c88c0c8218800098893b821340973a05d4a909978a057b1b60c8ab0b7b1ba000d8ab08c8c90bc88b0ad39a0b7b1ad800d89a00dab800821238982a38787a0f982a30787a0e982a28787a0d982a20787a0c982a18787a0b982a10787a0a982a08787a09986a38787a07986a30787a06986a28787a05986a20787a04986a18787a03986a10787a02986a08787a018214c800984a38787a17984a30787a16984a28787a15984a20787a14984a18787a13984a10787a12984a08787a118218d000988a38787a1f988a30787a1e988a28787a1d988a20787a1c988a18787a1b988a10787a1a988a08787a19787410787208787678781864897b1c508217c000d87c07821858da8807821b6898b83b821a7097aa05d4a808983a3b97bb05d4ba0a821b78c87b0cd8bc0782138800c87303c8ca07d8a70ac83808c8a808d4460ad4920bd4ba0ac807097b19d000d87907c887077b17c800510a4d06330401821b800064b7821240da2407e44b08db27088217688e7a8216708e69da6a09da940bd4670adaa80b7b1b800064279397daa2077b1738140a00000000010000008218606487821b50daba07e4a808dbb7088ec78e39da37097b1c4864367b1358821360da9a03d4c606da680364b89398da6b08821790008577ffc87303d873078219c0008599ffc89808c8780b7b1b30d39b08d89b04da87041409e0ffffff000000008212a800d829078218b0008e8ada870a64868218b8009a8bc9ab00d8ab0a8e8b82189800c88b0b9abbc9ab0b8e0a8ebcdaba0c9a6ac97a0ac929077b1940d879098ea6daa906d4b009db9c06821948649c821858938cda890c8218788588ff7b1820c8c8087b1810c884047b142897443b821230982905d4490498330597223bd423099467957c1fd87c07946ac87a03d8a30ada770a9460c80a0a97a73b983805d4780897333b98c705d437077b17087b1830d38403d88408d87902db3802821788008578ff821758c88707821810821c20d8c80cc8c703821728d8870cc8c303987c0597383bd48c0c946bd80a08c8b80898aa05978b3bd4ba00983a05988605d80c03d36a08d86a0bda830bd30c07d48707da720b821708dab7097b1928821730dab704dab00cdab60a82188000888701821238c97203958bff7b1b306480d34306d84307d89b08db6708821b6864b78219709397da9b07d42006886601c96700d86707c97906d3a609d8a60bd8c007db9b07d3c00bd4b909db9708db860adb800cdb8304821360821928821730db87098212a80098973b649b974805d4870798483b82145097c905d4980898cc3b97aa05d4ca0a97b905821b8800c8ba0a821b78c8b808d8b80bc8ba0a8216c000c86707821b9000c8b909d8b90bc8b707d3670cd86706dacb06c88606d88608c8a808959a407b1a38d89a09c8970a7b1a30d87a07da9907c867077b1728d86707821cb000821bb800c887077b172064376446821a488218588210a000017b12a8007b1cb0007b1bb8007b17c000d4a7077b1890007b168000d46808d487079877207b1a8800d4a808978820d4870752077a03d83007821bd800d34b08d84b09da8709821a48821cd000c9ac06c996087b1878d896087b1cd000d8ac09821a58821cc800c9ac0ac99a0ac98a06c94b08c978087b18707b10a000c930077b17688117c000330820502004059332fe6f688219786f99821a706faa821b686fbb787b1898bc38787c1f98bc30787c1e98bc28787c1d98bc20787c1c98bc18787c1b98bc10787c1a98bb08787b19787a1098ab38787b1798ab30787b1698ab28787b1598ab20787b1498ab18787b1398ab10787b1298aa08787a11787908989a38787a0f989a30787a0e989a28787a0d989a20787a0c989a18787a0b989a10787a0a9899087879097878988938787907988930787906988928787905988920787904988918787903988910787902988208821b9800821cb800d4bc098218a800821a40d8a80a8216b000946a949a787201510a3a029589207b1978d88907c876087b18a800d86808da7708c8c8087b18b000d8c807c87b0b7b1b98008397330820502006057b31fe7c78017c797c7a027c7b03978808d4980897aa1097bb18d4ba0ad4a8087c79057c7a047c7b067c7c07979908d4a90997bb1097cc18d4cb0bd4b909979920d489027c79097c7a087c7b0a7c7c0b979908d4a90997bb1097cc18d4cb0bd4b9097c7a0d7c7b0c7c7c0e7c760f97aa08d4ba0a97cc10976618d46c0cd4ca0a97aa20d4a9097c7a117c7b107c7c127c761397aa08d4ba0a97cc10976618d46c0cd4ca0a7c7b157c7c147c76167c781797bb08d4cb0b976610978818d46808d4b808978820d48a0a7c78197c7b187c7c1a7c761b978808d4b80897cc10976618d46c0cd4c8087c7b1d7c7c1c7c761e7c771f97bb08d4cb0b976610977718d46707d4b707977720d487076f7b6fa76f986f29821ac8007b1af800821ad0007b1af000821ad8007b1ae800821aa0007b1ae0007b1918017b1810017b17080195172001951800019519e0007b1b000150200805f263fe821738017b17c800821730017b17d000821728017b17d8008218c000958720d8870982188000c89806d8860ada990a82188800c88a0ad88a0982189000c89808821928d3a909821b38d37b0bd4b90982102001821b20d38b0b821c30d36c0cd4cb0bd4b909821278821ca800821bb000821360821450520990fc28078210a000018217187b708218d8007b78088218d0007b78108218c8007b78189551a0fe82105801821550018216480195116001320000951100fe7b10f8017b15f0017b16e801951500028411f082831882841082820882867b12b0007b13a000d432087b16b800d44606d486069866207b149800d44808978820d468087b172852088a0682578278187b188278107b18088278087b181082777b171882c7187b172082b7187b174882b7107b175082b7087b175882b77b176082a7187b176882a7107b177082a7087b177882971082a87b1880008298087b18880082987b1890009777209876208117b8003308207b17a80050200a05b42efe6f68821988006f99821a90006faa98ab38787b1f98ab30787b1e98ab28787b1d98ab20787b1c98ab18787b1b98ab10787b1a98ab08787b19787a1878791046170b46170a4617094617074617064617054617044617034617024617014607989a38787a17989a30787a16989a28787a15989a20787a14989a18787a13989a10787a1298990878791178780898893878790f98893078790e98892878790d988820821ca00082169800d4c60b140900000000010000007b1988001409e0ffffff00000000821ab800d89a09821ab00094a97b1b900094b978780c51093805646b8217b8009578a0007b1840d878078218b000c878097b1938d88906da7706c8b606d8b607c8c7077b17308217a80083772033082050200c059a2dfe46171fa00046171e46171d46171c46171b46171a46171946171846171746171646171546171446171346171246171146171046170f46170e46170d46170c46170b46170a46170946170846170746170646170546170446170346170246170146078217307b1798017b1690018217387b1788018217407b1780018217687b17b8018217707b17b0018217787b17a8019517c0019518a00195198001821a80007b1aa00150200e05caf3821788009577c08218b800d878078218b0009487821890009487510734048219c001821cc801821bd8017b1b80008212d0018218b800d8890064946483821ab000d3ac08d8ac097b1c7864a6da80097b128800821a9800c9a207c997087b1870d89708d8a209821aa000c9ab0ac99a0ac98a0a7b1a68c96c08c908077b1740c934077b173864468217a80083774033082050201005592cfe8218686f888219706f99821a406faa821b386fbb787b1898bc38787c1f98bc30787c1e98bc28787c1d98bc20787c1c98bc18787c1b98bc10787c1a98bb08787b19787a1098ab38787b1798ab30787b1698ab28787b1598ab20787b1498ab18787b1398ab10787b1298aa08787a11787908989a38787a0f989a30787a0e989a28787a0d989a20787a0c989a18787a0b989a10787a0a9899087879097878988938787907988930787906988928787905988920787904988918787903988910787902988808787801821780007b173801821788007b1730018217787b1728017b1620018217487b1758018217507b1750018217587b174801951760019518400195192001821a607b1a400150201205115ffe140600000000010000007b16701407a0ffffff000000008218b800d878078218b000948782189000948751077b02821778017b1778821770017b178000821768017b178800821760017b17688217209877209776208217a80083776033082050201405e22afe6f6846171f46171e46171d46171c46171b46171a46171946171846171746171646171546171446171346171246171146171046170f46170e46170d46170c46170b46170a4617094617084617074617064617054617047878988918787903988910787902988808821970959980821ab800d89a09821ab00094a9821a900094a97878015109bc018212b800821868d828046483821cb000821a8800d3ca08d8ca0964abda8409821a980082188000c9a807c997067b169000d89706d8a809821aa000821878c9a80ac99a0ac96a0a7b1aa000c9cb08c948077b17b000c923077b17b80064368217a8008377800033082050201605eb29fe8218a0006f88821990006f99821ab0006faa821bb8006fbb787b1898bc38787c1f98bc30787c1e98bc28787c1d98bc20787c1c98bc18787c1b98bc10787c1a98bb08787b19787a1098ab38787b1798ab30787b1698ab28787b1598ab20787b1498ab18787b1398ab10787b1298aa08787a11787908989a38787a0f989a30787a0e989a28787a0d989a20787a0c989a18787a0b989a10787a0a98990878790978789889387879079889307879069889287879059889207879049889187879039889107879029888087878018217787b17d800821780007b17d000821788007b17c8007b16c00082177b17f8008217087b17f0008217107b17e800951700019518e0009519c000821a187b1ae00050201805a05cfe821710018218180182190001821a0801821b287bb7107bb8187bb97bba08955100fe8210f8018215f0018216e80195110002320000951180f97b1078067b1570067b166806951580068411e082ab187b1b680182ab107b1b700182ab087b1b780182aa7b1a8001829a187b1a8801829a107b1a9001829a087b1a980182997b19a00182897b19d8028289087b19d0028289107b19c8028288187b18c00282787b18b8028278087b18b0028278107b18a802827618330820330750201a051728fe6f698218a8026f8b8218b0026f8c8218b8026f8a787a18787c10787b08787998a8387b18980278781f98a8307b18880278781e98a8287b18800278781d98a8207b18700278781c98a8187b18680278781b98a8107b18600278781a7b1a780298a8087b18a00278781998c8387b18480278781798c8307b18400278781698c8287b18380278781598c8207b18300278781498c8187b18280278781398c8107b1820027878127b1c500298cc087b1c1802787c1198b8387b18100278780f98b8307b18080278780e98b8287b18000278780d98b8207b18f80178780c98b8187b18f00178780b98b8107b18e80178780a7b1b580298bb087b1be001787b099898387b18d8017878079898307b18d0017878069898287b18c8017878059898207b18c0017878049898187b18b8017878039898107b18b0017878027b1990029899087b19a80178790133072033082050201c05c326fe46171f0346171e46171d46171c46171b46171a46171946171846171746171646171546171446171346171246171146171046170f46170e46170d46170c46170b46170a4617094617084617074617064617054617044617034617024617014607330840330750201e055726fe8377831940063308400a08821740067b17b802821748067b17b002821750067b17a802821658063308203307502020052426fe8218d0026f8a8218d8026f899898387b18580178781f9898307b18500178781e9898287b18480178781d9898207b18400178781c9898187b18380178781b9898107b18300178781a9898087b1860017878197b19280178791898a8387b18200178781798a8307b18100178781698a8287b18080178781598a8207b18000178781498a8187b18f80078781398a8107b18f00078781298a8087b18e8007878117b1a1801787a108218c8026f889889387b19d00078790f9889307b19c80078790e9889287b19c00078790d9889207b19b80078790c9889187b19b00078790b9889107b19a80078790a9889087b19a0007879097b18e0007878088218c0026f889889387b1998007879079889307b1990007879069889287b1988007879059889207b1980007879049889187b19787879039889107b19707879029889087b19687879017b18d800787833072033082050202205cf24fe98683878781f98683078781e98682878781d98682078781c98681878781b98681078781a9868087878197876188219a8029898387878179898307878169898287878159898207878149898187878139898107878129898087878117879108219b00298983878780f98983078780e98982878780d98982078780c98981878780b98981078780a9898087878097879088219b80298983878780798983078780698982878780598982078780498981878780398981078780298980878780178793308403307502024050424fe8377831940063308400a08821740068218480682195006821a58066f776f886f996faa95aa0188ab01c8b909d49a0b88bb01c88b0bd88b08c887077b1908067b1a00067b1b10067b17180649215806492150064921480649214006482120062083180006831a4006831b20063309ff33070a0701821750068218580682194806821a4006d49808d4a707d4870752077a02330740330820502026056623fe7c78117c79107c7a127c7b13978808d4980897aa1097bb18d4ba0ad4a8087c79157c7a147c7b167c7c17979908d4a90997bb1097cc18d4cb0bd4b909979920d489027c79017c7a7c7b027c7c03979908d4a90997bb1097cc18d4cb0bd4b9097c7a057c7b047c7c067c760797aa08d4ba0a97cc10976618d46c0cd4ca0a97aa20d4a9097c7a197c7b187c7c1a7c761b97aa08d4ba0a97cc10976618d46c0cd4ca0a7c7b1d7c7c1c7c761e7c781f97bb08d4cb0b976610978818d46808d4b808978820d48a0a7c78097c7b087c7c0a7c760b978808d4b80897cc10976618d46c0cd4c8087c7b0d7c7c0c7c760e7c770f97bb08d4cb0b976610977718d46707d4b707977720d487076f766faa6f9b6f29d4b907d46a08d47808988820d46707977720d4870751070628df1483a73308207b17c0027b1ac8027b19d0027b1bd802502028052022fe46171f46171e46171d46171c46171b46171a46171946171846171746171646171546171446171346171246171146171046170f46170e46170d46170c46170b46170a461709461708461707461706461705461704461703a00046170279461701c3004607088218c802958704d88708821ad002c88a09d8a90ada880ac86a0ad86a08821bd802c88b0b7b19e8027b17e0027b1af002951700039518e0027b1bf80250202a0530e1821708038212180382140003821a10038218d002d3870bd8870c64838219c802d89408dab80cc96a0bd86a0a8216d802c96206c9a606d8cb0ac9a606c9cb0bc93707c98708c99407d46808d4b709d48909d4b808989920978820d4980851080628b91383768217c002646850202c050721fe837833070164690a0d014921b8054921b0054921a005409517c0059518a0054921a80550202e0595cefe821bd805821ad0058219c8058216c005d4b907d4a608d47808988820d4a707977720d4870751070628551383673308207b17607b19b8027b1ab0027b1ba802502030059720fe46171f018219b002821aa802d4a9091408e0ffffff00000000d88608821ab80294a8949846171e46171d46171c46171b46171a46171946171846171746171646171546171446171346171246171146171046170f46170e46170d46170c46170b46170a461709461708461707461706461705461704461703461702461701460752080628b4127b16308216608367203308207b175850203205fb1ffe46171f6046171e46171d46171c46171b46171a46171946171846171746171646171546171446171346171246171146171046170f46170e46170d46170c46170b46170a46170946170846170746170646170546170446170346170246170146073308203307502034058f1ffe8218980278781f8218880278781e8218800278781d8218700278781c8218680278781b8218600278781a8218a0027878198218780278781882184802787817821840027878168218380278781582183002787814821828027878138218200278781282181802787811821850027878108218100278780f8218080278780e8218000278780d8218f80178780c8218f00178780b8218e80178780a8218e001787809821858027878088218d8017878078218d0017878068218c8017878058218c0017878048218b8017878038218b0017878028218a80178780182189002787833072033082050203605a31efe46171f46171e46171d46171c46171b46171a46171946171846171746171646171546171446171346171246171146171046170f46170e46170d46170c46170b46170a4617094617084617074617064617054617044617034617024617014607330840330750203805381efe8377831940063308400a08821740068218480682195006821a58066f776f886f996faa95ab03d8ab0ac8a90cd89c09daaa09c88909d88908c8870a7b1b60057b1c68057b19700595178005951860057b1a780550203a05f031fe821798057b1738821790057b1740821788057b1748821780057b1750330820646750203c05b61dfe7c78117c79107c7a127c7b13978808d4980897aa1097bb18d4ba0ad48a027c79017c7a7c7b027c7c03979908d4a90997bb1097cc18d4cb0bd49b037c7a157c7b147c7c167c761797aa08d4ba0a97cc10976618d46c0cd4ac047c7b057c7c047c76067c780797bb08d4cb0b976610978818d46808d4b8007c78197c7c187c761a7c791b978808d4c808976610979918d46909d4890c7c78097c79087c760a7c7a0b978808d4980897661097aa18d46a0ad48a067c781d7c791c7c7a1e7c7b1f978808d4980897aa1097bb18d4ba0ad4a8087c790d7c7a0c7c7b0e7c770f979908d4a90997bb10977718d4b707d49707d48707977720d46c0cd4c707d44008978820d42309d49808d48707520706284a0f33082082175850203e05991cfe8218386f888219406f99821a486faa821b506fbb787b1898bc38787c1f98bc30787c1e98bc28787c1d98bc20787c1c98bc18787c1b98bc10787c1a98bb08787b19787a1098ab38787b1798ab30787b1698ab28787b1598ab20787b1498ab18787b1398ab10787b1298aa08787a11787908989a38787a0f989a30787a0e989a28787a0d989a20787a0c989a18787a0b989a10787a0a989908787909787898893878790798893078790698892878790598892078790498891878790398891078790298880878780133082082176050204005c51bfe7c78117c79107c7a127c7b13978808d4980897aa1097bb18d4ba0ad48a027c79017c7a7c7b027c7c03979908d4a90997bb1097cc18d4cb0bd49b037c7a157c7b147c7c167c761797aa08d4ba0a97cc10976618d46c0cd4ac047c7b057c7c047c76067c780797bb08d4cb0b976610978818d46808d4b8007c78197c7c187c761a7c791b978808d4c808976610979918d46909d4890c7c78097c79087c760a7c7a0b978808d4980897661097aa18d46a0ad48a067c781d7c791c7c7a1e7c7b1f978808d4980897aa1097bb18d4ba0ad4a8087c790d7c7a0c7c7b0e7c770f979908d4a90997bb10977718d4b707d49707d48707977720d46c0cd4c707d44008978820d42309d49808d487075107a30d33082082175850204205aa1afe8317e0050a8117f0057b17408217e0057b17388217e8057b172833074033082050204405831afe7c78197c79187c7a1a7c7b1b978808d4980897aa1097bb18d4ba0ad4a8087c791d7c7a1c7c7b1e7c7c1f979908d4a90997bb1097cc18d4cb0bd4b909979920d489027c79117c7a107c7b127c7c13979908d4a90997bb1097cc18d4cb0bd4b9097c7a157c7b147c7c167c761797aa08d4ba0a97cc10976618d46c0cd4ca0a97aa20d4a9097c7a097c7b087c7c0a7c760b97aa08d4ba0a97cc10976618d46c0cd4ca0a7c7b0d7c7c0c7c760e7c780f97bb08d4cb0b976610978818d46808d4b808978820d48a0a7c78017c7b7c7c027c7603978808d4b80897cc10976618d46c0cd4c8087c7b057c7c047c76067c770797bb08d4cb0b976610977718d46707d4b707977720d487076f7c7b1c486faa7b1a606f987b18506f277b1758957920d87907c87806d88608da7708c8a808d8a807c87c0c8217c0027b17d8048217c8027b17d0048217d0027b17c8048217d8027b17c004821768017b17f804821770017b17f004821778017b17e804821780017b17e004821788017b171805821790017b171005821798017b1708058217a0017b1700057b19d0027b1920057b16c8027b1628057b18c0027b183005951740059518200595190005951ae004951bc0047b1ca0017b1c380550204605b7da821848821b60821a58821750d48707d4ba08d47808988820d4b707977720d487075207350b821740057b17d80282164805821258057b128801821c50057b1c9001821bd002d8b7048213c802d33608d8360964677b168001da84098210c002c90c06c996087b189801d89608d80c09c99209821ca001c9c909c989097b19c002c94707c937077b17c8028217d802c9b7077b17d00283a7330820821650502048051218fe821258821cd802d82c09821b8001d36b0ad86b08daa908c96b0ac99a04c92c0a95ab1fd8ab0384bbe0c82b097b19d802d8b90bc83409c8690cc8bc02d3920cd89206dacb06821a48821b8801c9ab0b821a6082109001d8a00cc9cb0b821a60c9a00cd88c0ac9ab0bc98c0cd84908da3308821350c8c808d8c809821c48c8cb0bc8b909821460c8480ac86a0bd88a08d8ab06c89808c886068e688eb9db6809d46b0a8e28dba9088219d0026f99989a38787a1f989a30787a1e989a28787a1d989a20787a1c989a18787a1b989a10787a1a821ac8026faa78791898990878791998a93878791798a93078791698a92878791598a92078791498a91878791398a910787912821998016f99787a1098aa08787a11989a38787a0f989a30787a0e989a28787a0d989a20787a0c989a18787a0b989a10787a0a821ac0026faa78790898990878790998a93878790798a93078790698a92878790598a92078790498a91878790398a910787902787a98aa08787a015208cf098217d802821858d88707d33208d83209da8709d84b07d3c608d8c60ada870ad34b07d48707da790a520aa3093307403308207b12d0027b1bc80250204a055b16fe6f688219c8026f99821ad0026faa821bd8026fbb787b1898bc38787c1f98bc30787c1e98bc28787c1d98bc20787c1c98bc18787c1b98bc10787c1a98bb08787b19787a1098ab38787b1798ab30787b1698ab28787b1598ab20787b1498ab18787b1398ab10787b1298aa08787a11787908989a38787a0f989a30787a0e989a28787a0d989a20787a0c989a18787a0b989a10787a0a989908787909787898893878790798893078790698892878790598892078790498891878790398891078790298880878780133074033082050204c058715fe7c78197c79187c7a1a7c7b1b978808d4980897aa1097bb18d4ba0ad4a8087c791d7c7a1c7c7b1e7c7c1f979908d4a90997bb1097cc18d4cb0bd4b909979920d489027c79117c7a107c7b127c7c13979908d4a90997bb1097cc18d4cb0bd4b9097c7a157c7b147c7c167c761797aa08d4ba0a97cc10976618d46c0cd4ca0a97aa20d4a9097c7a097c7b087c7c0a7c760b97aa08d4ba0a97cc10976618d46c0cd4ca0a7c7b0d7c7c0c7c760e7c780f97bb08d4cb0b976610978818d46808d4b808978820d48a0a7c78017c7b7c7c027c7603978808d4b80897cc10976618d46c0cd4c8087c7b057c7c047c76067c770797bb08d4cb0b976610977718d46707d4b707977720d487076f736fab6f9a6f29959c20d89c07c87a02d8a206da7706c8b606d8b607c87304d46c07d44208d48707987720d46808978820d487075207eb067b1390017b1b98017b1aa0017b19c00283c73308207b1788017b1cd0027b12d8027b14c80250204e051b14fe821850027878108218100278780f8218080278780e8218000278780d8218f80178780c8218f00178780b8218e80178780a8218e001787809821858027878088218d8017878078218d0017878068218c8017878058218c0017878048218b8017878038218b0017878028218a80178780182189002787882187802787818821848027878178218400278781682183802787815821830027878148218280278781382182002787812821818027878118218980278781f8218880278781e8218800278781d8218700278781c8218680278781b8218600278781a8218c802d468081409e0ffffff00000000821ad002d89a09821ad80294a994898218a0027878195109bc0582178801837720330820502050050713fe821818017878108218d00078780f8218c80078780e8218c00078780d8218b80078780c8218b00078780b8218a80078780a8218a0007878098218e000787808821898007878078218900078780682188800787805821880007878048218787878038218707878028218687878018218d800787882182801787818821820017878178218100178781682180801787815821800017878148218f8007878138218f0007878128218e8007878118218580178781f8218500178781e8218480178781d8218400178781c8218380178781b8218300178781a821ac002821c9801d4ca08821ba00182169001d46b09d49808988820d4c909979920d49808821960017879195208a60483a733082050205205f611fe46171f4046171e46171d46171c46171b46171a46171946171846171746171646171546171446171346171246171146171046170f46170e46170d46170c46170b46170a46170946170846170746170646170546170446170346170246170146078217c0029578607b18d802d878078218a001c878097b19d002d88908da770882179801c88706d8760782189001c887077b17c802330740330820502054055511fe8218c8026f886f69821ad0026faa821bd8026fbb98bc38787c1f98bc30787c1e98bc28787c1d98bc20787c1c98bc18787c1b98bc10787c1a98bc08787c19787b1898ab38787b1798ab30787b1698ab28787b1598ab20787b1498ab18787b1398ab10787b1298ab08787b11787a10787908989a38787a0f989a30787a0e989a28787a0d989a20787a0c989a18787a0b989a10787a0a9899087879097878988938787907988930787906988928787905988920787904988918787903988910787902988808787801330740330820502056058110fe7c78117c79107c7a127c7b13978808d4980897aa1097bb18d4ba0ad4a8087c79157c7a147c7b167c7c17979908d4a90997bb1097cc18d4cb0bd4b909979920d489027c79017c7a7c7b027c7c03979908d4a90997bb1097cc18d4cb0bd4b9097c7a057c7b047c7c067c760797aa08d4ba0a97cc10976618d46c0cd4ca0a97aa20d4a9097c7a197c7b187c7c1a7c761b97aa08d4ba0a97cc10976618d46c0cd4ca0a7c7b1d7c7c1c7c761e7c781f97bb08d4cb0b976610978818d46808d4b808978820d48a0a7c78097c7b087c7c0a7c760b978808d4b80897cc10976618d46c0cd4c8087c7b0d7c7c0c7c760e7c770f97bb08d4cb0b976610977718d46707d4b707977720d487076f766fab6f9a6f29d4a907d46b08d47808988820d46707977720d487075207fd018217286f779878207b19c8028219386f997b1ad802979a20d4a8087b18a0029777208218406f88988820d487077b1798029899207b19900283b73308207b1788027b1bd002502058050d0ffe46171f46171e46171d46171c46171b46171a46171946171846171746171646171546171446171346171246171146171046170f46170e46170d46170c46170b46170a46170946170846170746170646170546170446170330461702184617016f4607558218d002958704d88709821ac802c89a08d8a80ada990ac8a609d86902821ad802c8a202951ae0037b1a821a90017b1af803821a98017b1af003821aa0017b1ae803821ac0027b1ae003140a00000000824451297b1a1804492110044921080449210004821a487b1a3804821a607b1a3004821a507b1a2804821a587b1a2004821aa8027b1a5804821ab0027b1a5004821ab8027b1a4804821a307b1a400449217804821a90027b1a7004821aa0027b1a6804821a98027b1a60047b1888047b1780047b1990049517a0049518800495196004951a4004951b2004951c00047b12980450205a0550de8217a8048212b8048214a004821ab0048218c802d3870bd8870c64838219d002d89408dab80cc96a0bd86a0a8216d802c96206c9a606d8cb0ac9a606c9cb0bc93707c98708c99407d46808d4b709d48909d4b808989920978820d498085108f00000492150034921480349214003140700000000717b484e951840037b175803330750205c05e80dfe4921380349213003492120033233070495182003492128033300620528c50dfe492190034921880349218003140700000000717b484e951880037b179803330750205e05a10dfe49217803492170034921600332330704951860034921680333006205287e0dfe4921d0034921c8034921c003140700000000717b484e9518c0037b17d8033307502060055a0dfe4921b8034921b0034921a003413307049518a0034921a803502062053b0dfe3308243307502064057f0cfe83783307013309240a0d01837682178802646833002c0528610cfe951180fe7b1078017b1570017b166801951580018411e0829a187b1a829a107b1a08829a087b1a1082997b19188289187b19208289107b19288289087b193082887b18388278187b18408278107b18488278087b185082777b17584921380149213001492128013306057b16200149215801492150014921480149214001482100012083182001831a4001831b00013309ff33070a0701821758018218480182194001821a5001d48707859801d4a808d487075207c401492138014921300149212801492120010549215801492150014921480149214001482100012083182001831a4001831b00013309ff33070a074921380149213001492128014921200105492158014921500149214801492140010283182001831a40013309ff330b2033070a0f82177b17788217087b17708217107b17688217187b17608217207b1798008217287b1790008217307b1788008217387b1780008217407b17b8008217487b17b0008217507b17a8009517a00095188000951960821a587b1aa00033006605951100fb7b10f8047b15f0044921e80405951500058411e06416829a187b6a78829a107b6a68829a087b6a7082997b696082897b69d8018289087b69d0018289107b69c8018288187b68c00182787b68e0018278087b68e8018278107b68f0018277187b67f801330820330733008805286b0afe4921380149213001492128017b16200149215801492150014921480149214001482100012083182001831a4001831b00013309ff33070a074921380149213001492128017b162001492158014921500149214801492140010183182001831a40013309ff330b2033070a0f955180fe82107801821570018216680195118001320033074033082050206805e009fe7c78117c79107c7a127c7b13978808d4980897aa1097bb18d4ba0ad4a8087c79157c7a147c7b167c7c17979908d4a90997bb1097cc18d4cb0bd4b909979920d489027c79017c7a7c7b027c7c03979908d4a90997bb1097cc18d4cb0bd4b9097c7a057c7b047c7c067c760797aa08d4ba0a97cc10976618d46c0cd4ca0a97aa20d4a9097c7a197c7b187c7c1a7c761b97aa08d4ba0a97cc10976618d46c0cd4ca0a7c7b1d7c7c1c7c761e7c781f97bb08d4cb0b976610978818d46808d4b808978820d48a0a7c78097c7b087c7c0a7c760b978808d4b80897cc10976618d46c0cd4c8087c7b0d7c7c0c7c760e7c770f97bb08d4cb0b976610977718d46707d4b707977720d487076f766fa86f996f277b17587b1950d497076489d46808d47808988820d46707977720d48707520718017b194883973308207b174050206a059e08fe46171f46171e46171d46171c46171b46171a46171946171846171746171646171546171446171346171246171146171046170f46170e46170d46170c46170b46170a461709461708461707461706461705461704461703a00046170279461701c300460708821848958704d88708821a58c88a09d8a90ada880ac86a0ad86a08821b50c88b0b7b19c8007b17c0007b1ad0009517e0009518c0007b1bd80050206c05fe9efe8217e8008212f8008213e000821af000821858d3870bd8870c6484821948d89308dab80cc96a0bd86a0a821650c96206c9a606d8cb0ac9a606c9cb0bc94707c98708c99307d46808d4b709d48909d4b808989920978820d49808510804008376821740646850206e058d07fe83783307016469330070050a0d01827810827918827a088277d4a909d4870ad49a0a98aa20d49808978820d4a80852089e009511f07b10087b158377330820330520502072054407fe46171f46171e46171d46171c46171b46171a461719461718461717461716461715461714654617137446171261461711744617107378750f46170e64330a69787a0d330b6c787b0c46170b6146170a764617096e787a087875074617063a461705774617046f4617037233096378790246170173330845787882100882159511103200009511a07b10587b15507b1648828a18828b10828c088286d4ac08d4b609d48909989920d4b808978820d498087b1728520815029567207b1730d86707c87c087b18407b1c08d8c805da7705c8b5057b1b10d8b5077b1a18c8a7077b17387b168367330820330620502074055206fe78761f8218306486d45808821940821b38d4b909d498089888207b1520d45909979920d4980846171e46171d46171c46171b46171a46171946171846171746171646171546171446171346171246171146171046170f46170e46170d46170c46170b46170a4617094617084617074617064617054617044617034617024617014607520854018365330820645750207605be05fe46171f1546171e46171d46171c46171b46171a46171946171846171746171646171546171446171346171246171146171046170f46170e46170d46170c46170b46170a461709461708461707461706461705461704461703461702461701821820821938d498081409e0ffffff00000000d89609821a4094a9948946075109c500835720330820502078053005fe46171f46171e46171d46171c46171b46171a4617194617184617174617164617154617146546171374461712614617117446171073330c20787c0f46170e6446170d6946170c6c46170b6146170a764617096e46170869787c074617063a461705774617046f4617037246170263461701734607458218958760d88708821a08c88a09d8a90ada880a821810c88a0ad88a08821b18c8b808821b287bb77bb9087bba107bb8188210588215508216489511603200009511a07b10587b15507b1648828a18828b10828c088286d4ac08d4b609d48909989920d4b808978820d498087b172852081b029567207b1730d86707c87c087b18407b1c08d8c805da7705c8b5057b1b10d8b5077b1a18c8a7077b17387b16836733082033062050207a050d04fe78761f8218306486d45808821940821b38d4b909d498089888207b1520d45909979920d4980846171e46171d46171c46171b46171a46171946171846171746171646171546171446171346171246171146171046170f46170e46170d46170c46170b46170a461709461708461707461706461705461704461703461702461701460752085a018365330820645750207c057903fe46171f1c46171e46171d46171c46171b46171a46171946171846171746171646171546171446171346171246171146171046170f46170e46170d46170c46170b46170a461709461708461707461706461705461704461703461702461701821820821938d498081409e0ffffff00000000d89609821a4094a9948946075109cb0083572033082050207e05eb02fe4617196c461713644617126e46170d654617157446170c7446170b694617106246170a624617086146171f46171e46171d46171c461718204617142046170f20461707204617063a46171b774617057746171a6f4617176f4617166f4617116f4617046f46170e72461709724617037246170263461701734607458218958760d88708821a08c88a09d8a90ada880a821810c88a0ad88a08821b18c8b808821b287bb77bb9087bba107bb8188210588215508216489511603200009511a07b10587b15507b1648828a18828b10828c088286d4ac08d4b609d48909989920d4b808978820d498087b17205208b4029567207b1738d86707c87c087b18407b1c08d8c805da7705c8b5057b1b10d8b5077b1a18c8a7077b17307b16836733082033062050208005c201fe78761f821838d45808821940821a30d4a909d49808988820d45909979920d4980846171e46171d46171c46171b46171a46171946171846171746171646171546171446171346171246171146171046170f46170e46170d46170c46170b46170a46170946170846170746170646170546170446170346170246170146075208f801645682153883573308207b1728502082052d01fe46171f2346171e46171d46171c46171b46171a46171946171846171746171646171546171446171346171246171146171046170f46170e46170d46170c46170b46170a461709461708461707461706461705461704461703461702461701821830d48609140600000000010000001408e0ffffff00000000d88508649582194094989458460751085a01821728837720330820502084059300fe46171c6646171b6646171a754617146b4617136146170d6446171f6946171d694617176946170c6946170b76461708704617162046171020461707204617063a4617057746170a6f4617046f46170f72461709724617037246171e63461702634617197346171173461701734607459568c0821938d889084617186e8219409498330665787615945833057478751278760e5108b40082172883774033082050208605edfffd46171f46171e46171d46171c46171b46171a46171946171846171746171646171546171446171346171246171146171046170f46170e46170d46170c46170b46170a4617094617084617074617064617054617044617037875024617016e7876821895878000d88708821a08c88a09d8a90ada880a821810c88a0ad88a08821b18c8b808821b207bb77bb9087bba107bb8188210588215508216489511603200008268f8016f887b68f8018269f0016f997b69f001826ae8016faa7b6ae801826be0016fbb7b6be001787b18787a10787908787898bc387b6c9801787c1f98bc307b6c9001787c1e98bc287b6c8801787c1d98bc207b6c8001787c1c98bc187b6c7801787c1b98bc107b6c7001787c1a98bb087b6b6801787b1998ab387b6b6001787b1798ab307b6b5801787b1698ab287b6b5001787b1598ab207b6b4801787b1498ab187b6b4001787b1398ab107b6b3801787b1298aa087b6a3001787a11989a387b6a2801787a0f989a307b6a2001787a0e989a287b6a1801787a0d989a207b6a1001787a0c989a187b6a0801787a0b989a107b6a0001787a0a9899087b69f8007879099889387b69f0007879079889307b69e8007879069889287b69e0007879059889207b69d8007879049889187b69d0007879039889107b69c8007879029888087b68c00078780133072033082050208a05f4fdfd46171f46171e46171d46171c46171b46171a46171946171846171746171646171546171446171346171246171146171046170f46170e46170d46170c46170b46170a4617094617084617074617064617054617044617034617024617014607330840330750208c0589fdfd8377836940043308400a08826758048268500482694804826a40046f777b67b8016f877b67b0016f977b67a8016fa77b67a001330820330750208e054afdfd8268980178781f8268900178781e8268880178781d8268800178781c8268780178781b8268700178781a826868017878198268e001787818826860017878178268580178781682685001787815826848017878148268400178781382683801787812826830017878118268e8017878108268280178780f8268200178780e8268180178780d8268100178780c8268080178780b8268000178780a8268f8007878098268f0017878088268f0007878078268e8007878068268e0007878058268d8007878048268d0007878038268c8007878028268c0007878018268f8017878330720330820502090055efcfd46171f0346171e46171d46171c46171b46171a46171946171846171746171646171546171446171346171246171146171046170f46170e46170d46170c46170b46170a4617094617084617074617064617054617044617034617024617014607330840330750209205f2fbfd8377836940043308400a08826740047b67b800826748047b67b000826750047b67a800826758047b67a000330820330750209405bbfbfd8268c0016f898268c8016f8a8268d0016f8b8268d8016f8c98c83878781f98c83078781e98c82878781d98c82078781c98c81878781b98c81078781a98c8087878197b6c40787c1898b83878781798b83078781698b82878781598b82078781498b81878781398b81078781298b8087878117b6b48787b1098a83878780f98a83078780e98a82878780d98a82078780c98a81878780b98a81078780a98a8087878097b6a50787a089898387878079898307878069898287878059898207878049898187878039898107878029898087878017b6958787933072033082050209605d7fafd8269a00098983878781f98983078781e98982878781d98982078781c98981878781b98981078781a9898087878197879188269a8009898387878179898307878169898287878159898207878149898187878139898107878129898087878117879108269b00098983878780f98983078780e98982878780d98982078780c98981878780b98981078780a9898087878097879088269b800989838787807989830787806989828787805989820787804989818787803989810787802989808787801787933084033075020980508fafd8377836940043308400a08826758047b67d801826750047b67d001826748047b67c801826740047b67c0018267a0017b67d8048267a8017b67d0048267b0017b67c8048267b8017b67c004492658044926500449264804492640044826e004208368c004836a4004836be0043309ff33070a0701826740048068500482694804d48707d4970752070628a8108267c0016f798267c8016f7a8267d0016f788267d8016f77957b027b67a000d87b07c8780c7b68a800d88c08da7708c8a8087b6ab000d8a8077b69b800c897077b6bd8017b6bc0047b6cd0017b6cc8047b68c8017b68d0047b67c0017b67d804492658044926500449264804492640044826e004208368c004836a4004836be0043309ff33070a07017c6741045107030e8267c8017b67d0048267d0017b67c8048267d8017b67c0048267c0017b67d804492658044926500449264804492640044826e004208368c004836a4004836be0043309ff33070a07017c6742045207b20d9517e08477e07b6798006471491718491710491708490783770a108268980082877b67388287087b67308287107b67288287187b67208267b8019579018897018268b001c8780ad4a9078877018268a801c8780b4826e00420d88b078268a001c887077b6780007b67d8047b6b88007b6bd0047b6a90007b6ac8047b6998007b69c004492658044926500449264804492640048368c004836a4004836be0043309ff33070a0701826758048262400482695004826a4804826820d3780bd87808826728d8970cdbb80c826830d3a803d8a80a826838d82808db3a08d39707d4b707db7c0851080628f210826768826860d48707826878826970d49808d487071408ffffffff000000007b67707b687851079707330820330750209a057bf7fd8268e8017878108268280178780f8268200178780e8268180178780d8268100178780c8268080178780b8268000178780a8268f8007878098268f0017878088268f0007878078268e8007878068268e0007878058268d8007878048268d0007878038268c8007878028268c0007878018268f80178788268e001787818826860017878178268580178781682685001787815826848017878148268400178781382683801787812826830017878118268980178781f8268900178781e8268880178781d8268800178781c8268780178781b8268700178781a8268680178781933072033082050209c058ff6fd46171f0246171e46171d46171c46171b46171a46171946171846171746171646171546171446171346171246171146171046170f46170e46170d46170c46170b46170a4617094617084617074617064617054617044617034617024617014607330840330750209e0523f6fd8377836940043308400a08826758048268500482694804826a40046f776f886f996faa7b6ad8047b69d0047b68c8047b67c004492658044926500449264804492640044826e004208368c004836a4004836be0043309ff33070a07826740047b67b801826748047b67b001826750047b67a801826758047b67a001826780007b67d804826788007b67d004826790007b67c804826798007b67c004492658044926500449264804492640044826e004208368c004836a4004836be0043309ff33070a0701826758048262400482695004826a48048268a001d3780bd878088267a801d8970cdbb80c8268b001d3a803d8a80a8268b801d82808db3a08d39707d4b707db7c08510806286f10826788007b67d004826790007b67c804826798007b67c004826780007b67d804492658044926500449264804492640044826e004208368c004836a4004836be0043309ff33070a07826758047b67a801826750047b679800826748047b67b001826740047b67b80133082033075020a005a4f4fd8268980178781f8268900178781e8268880178781d8268800178781c8268780178781b8268700178781a82686801787819826860017878178268580178781682685001787815826848017878148268400178781382683801787812826830017878118268280178780f8268200178780e8268180178780d8268100178780c8268080178780b8268000178780a8268f8007878098268f0007878078268e8007878068268e0007878058268d8007878048268d0007878038268c8007878028268c0007878018268e0017878188268e8017878108268f0017878088268f80178783307203308205020a205b8f3fd46171f0246171e46171d46171c46171b46171a46171946171846171746171646171546171446171346171246171146171046170f46170e46170d46170c46170b46170a461709461708461707461706461705461704461703461702461701460733084033075020a4054cf3fd8377836940043308400a08826758048268500482694804826a40046f776f886f996faa7b6a88017b6ad8047b6990017b69d0047b6898017b68c8047b67a0017b67c004492658044926500449264804492640044826e004208368c004836a4004836be0043309ff33070a0701826358048260500482624804826a40048267a801d3730bd8730c82699800d890077b677001dab70c8267b001d372087b688001d872078268b8017b6a7801d88a0482688001da8407d39008d4b808da870c510c06284810c99008c978097b698001d878078268a801c9830882697001c99808c978087b68a8018267b001c97207c947077b67b0018267b80182687801c978077b67b801826790017b67d004826798017b67c8048267a0017b67c004826788017b67d804492658044926500449264804492640044826e004208368c004836a4004836be0043309ff33070a07826788017b67d804826790017b67d004826798017b67c8048267a0017b67c0048267a8017b675804826780017b6750048267b0017b6748048267b8017b6740048368c004836a40043309ff330b2033070a0f8267c0017b67d8048267c8017b67d0048267d0017b67c8048267d8017b67c004492658044926500449264804492640044826e004208368c004836a4004836be0043309ff33070a07826748048268500482694004826a58048499ffff00ff8699000001826bc0017b6bd804826bc8017b6bd004826bd0017b6bc804826bd8017b6bc0047b6a58047b6850047b6748047b6940048368c004836a40043309ff330b2033070a0f8267b8007b67d8048267b0007b67d0048267a8007b67c8048267a0007b67c004492658044926500449264804492640044826e004208368c004836a4004836be0043309ff33070a078267400482684804826950048477ff7b67d8018488ff7b68d001826778d297077b67c8018267a0009577018878018269a800c89808d48709889901826ab000c8a909d8a90a826bb800c8ba0a7b6ad8047b69d0047b68c8047b67c004492658044926500449264804492640044826e004208368c004836a4004836be0043309ff33070a07826740048268480482695004826a58047b6ad8037b69d0037b68c8037b67c0034926f8038267c8017b67f0038267d0017b67e8039567e0039568c0038269d8017b69e0033300a605280c1d8267c8017b67d0048267d0017b67c8048267d8017b67c0048267c0017b67d804492658044926500449264804492640044826e004208368c004836a4004836be0043309ff33070a07826748048268500482694004826a58048499ffff00ff8699000001826bc0017b6bd804826bc8017b6bd004826bd0017b6bc804826bd8017b6bc0047b6a58047b6850047b6748047b6940048368c004836a40043309ff330b2033070a0f8267a0017b67d8048267a8017b67d0048267b0017b67c8048267b8017b67c004492658044926500449264804492640044826e004208368c004836a4004836be0043309ff33070a078267400482684804826950048477ff7b67d8018488ff7b68d001826778d297077b67c8018267a0009577018878018269a800c89808d48709889901826ab000c8a909d8a90a826bb800c8ba0a7b6ad8047b69d0047b68c8047b67c004492658044926500449264804492640044826e004208368c004836a4004836be0043309ff33070a07826740048268480482695004826a58047b6a18037b6910037b6808037b670003492638038267c8017b6730038267d0017b67280395672003956800038269d8017b6920035020a605541b836700040a058267080481681004826900046f77977a206f88988820d4a8087b68d8019877206f98978920d497077b67d0019888207b68c8019517e08477e07b67c0016471491718491710491708490783770a10826ac00182a782a80882a91082aa187b6ad8027b69d0027b68c8027b67c0024926f8028267c8017b67f0028267d0017b67e8029567e0029568c0028269d8017b69e0025020a805b71a836720040a05806730047b67d001826728047b67c801826720047b67d8013307403308205020aa0571edfd7c78117c79107c7a127c7b13978808d4980897aa1097bb18d4ba0ad4a8087c79157c7a147c7b167c7c17979908d4a90997bb1097cc18d4cb0bd4b909979920d489027c79017c7a7c7b027c7c03979908d4a90997bb1097cc18d4cb0bd4b9097c7a057c7b047c7c067c780797aa08d4ba0a97cc10978818d4c808d4a808978820d498037c78197c7a187c7b1a7c7c1b978808d4a80897bb1097cc18d4cb0bd4b8087c7a1d7c7b1c7c7c1e7c791f97aa08d4ba0a97cc10979918d4c909d4a909979920d4890a7c78097c79087c7b0a7c7c0b978808d4980897bb1097cc18d4cb0bd4b8087c790d7c7b0c7c7c0e7c770f979908d4b90997cc10977718d4c707d49707977720d487076f786fa76f396f2ad4a909d4870ad49a0a98aa20d49808978820d4a8085208080a8268708e887b68c0018268c8016f88978920826ad0016faa98aa20d4a9097b69d0018269d8016f99979920988820d498087b68c80183777b67b8013308205020ac0504ecfd46171e46171d46171c46171b46171a46171946171846171746171646171546171446171346171246171146171046170f46170e46170d46170c46170b46170a46170946170846170746170646170546170446170346170246170146078268c00178781f3308208267b8015020ae0593ebfd3a08e000023a09e800023a0af000023a0bf800027b6858047b6950047b6a48047b6b40048268e0017b6878048268e8017b6870048268f0017b6868048268f8017b6860048268407b6898048268487b6890048268507b6888048268587b6880048268d0016f887b68b8048268c8016f887b68b0048268d8019788207b68a8044926a004837983674004330804330a200a06955100fb8210f8048215f0048216e8049511000532003307403308205020b005dfeafd7c78117c79107c7a127c7b13978808d4980897aa1097bb18d4ba0ad4a8087c79157c7a147c7b167c7c17979908d4a90997bb1097cc18d4cb0bd4b909979920d489027c79017c7a7c7b027c7c03979908d4a90997bb1097cc18d4cb0bd4b9097c7a057c7b047c7c067c780797aa08d4ba0a97cc10978818d4c808d4a808978820d498037c78197c7a187c7b1a7c7c1b978808d4a80897bb1097cc18d4cb0bd4b8087c7a1d7c7b1c7c7c1e7c791f97aa08d4ba0a97cc10979918d4c909d4a909979920d4890a7c78097c79087c7b0a7c7c0b978808d4980897bb1097cc18d4cb0bd4b8087c790d7c7b0c7c7c0e7c770f979908d4b90997cc10977718d4c707d49707977720d487076f7b6fa86f396f277b67f8017b69e801d497076489d4b808d478089888207b6bf001d4b707977720d48707520768077b69e00183973308207b67d8015020b20595e9fd46171f46171e46171d46171c46171b46171a46171946171846171746171646171546171446171346171246171146171046170f46170e46170d46170c46170b46170a461709461708461707461706461705461704461703a00046170279461701c3004607088268e001958704d88708826af801c88a09d8a90ada880a8268f001c88a0ad88a08826be801c88b0b7b6948027b6740027b6a500295676002956840027b6b58025020b40530e2826768028262780282636002826a70022841063307403308205020b605cae8fd7c78117c79107c7a127c7b13978808d4980897aa1097bb18d4ba0ad4a8087c79157c7a147c7b167c7c17979908d4a90997bb1097cc18d4cb0bd4b909979920d489027c79017c7a7c7b027c7c03979908d4a90997bb1097cc18d4cb0bd4b9097c7a057c7b047c7c067c780797aa08d4ba0a97cc10978818d4c808d4a808978820d498037c78197c7a187c7b1a7c7c1b978808d4a80897bb1097cc18d4cb0bd4b8087c7a1d7c7b1c7c7c1e7c791f97aa08d4ba0a97cc10979918d4c909d4a909979920d4890a7c78097c79087c7b0a7c7c0b978808d4980897bb1097cc18d4cb0bd4b8087c790d7c7b0c7c7c0e7c770f979908d4b90997cc10977718d4c707d49707977720d487076f7b6fa86f396f277b67f8017b69e801d497076489d4b808d478089888207b6bf001d4b707977720d48707520753057b69e00183973308207b67d8015020b80580e7fd46171f46171e46171d46171c46171b46171a46171946171846171746171646171546171446171346171246171146171046170f46170e46170d46170c46170b46170a461709461708461707461706461705461704461703a00046170279461701c3004607088268e001958704d88708826af801c88a09d8a90ada880a8268f001c88a0ad88a08826be801c88b0b7b6908027b6700027b6a100295672002956800027b6b18025020ba05fc66ff826728028262380282632002826a3002282b043307403308205020bc05b4e6fd7c78117c79107c7a127c7b13978808d4980897aa1097bb18d4ba0ad4a8087c79157c7a147c7b167c7c17979908d4a90997bb1097cc18d4cb0bd4b909979920d489027c79017c7a7c7b027c7c03979908d4a90997bb1097cc18d4cb0bd4b9097c7a057c7b047c7c067c780797aa08d4ba0a97cc10978818d4c808d4a808978820d498037c78197c7a187c7b1a7c7c1b978808d4a80897bb1097cc18d4cb0bd4b8087c7a1d7c7b1c7c7c1e7c791f97aa08d4ba0a97cc10979918d4c909d4a909979920d4890a7c78097c79087c7b0a7c7c0b978808d4980897bb1097cc18d4cb0bd4b8087c790d7c7b0c7c7c0e7c770f979908d4b90997cc10977718d4c707d49707977720d487076f7b6fa86f396f277b67f8017b69e801d497076489d4b808d478089888207b6bf001d4b707977720d4870752073d037b69e00183973308207b67d8015020be056ae5fd46171f46171e46171d46171c46171b46171a46171946171846171746171646171546171446171346171246171146171046170f46170e46170d46170c46170b46170a461709461708461707461706461705461704461703a00046170279461701c3004607088268e001958704d88708826af801c88a09d8a90ada880a8268f001c88a0ad88a08826be801c88b0b7b6988027b6780027b6a90029567a002956880027b6b98025020c0054ae08267a8028262b8028263a002826ab0022816023307403308205020c2059fe4fd7c78117c79107c7a127c7b13978808d4980897aa1097bb18d4ba0ad4a8087c79157c7a147c7b167c7c17979908d4a90997bb1097cc18d4cb0bd4b909979920d489027c79017c7a7c7b027c7c03979908d4a90997bb1097cc18d4cb0bd4b9097c7a057c7b047c7c067c780797aa08d4ba0a97cc10978818d4c808d4a808978820d498037c78197c7a187c7b1a7c7c1b978808d4a80897bb1097cc18d4cb0bd4b8087c7a1d7c7b1c7c7c1e7c791f97aa08d4ba0a97cc10979918d4c909d4a909979920d4890a7c78097c79087c7b0a7c7c0b978808d4980897bb1097cc18d4cb0bd4b8087c790d7c7b0c7c7c0e7c770f979908d4b90997cc10977718d4c707d49707977720d487076f7b6fa86f396f277b67f8017b69e801d497076489d4b808d478089888207b6bf001d4b707977720d48707520728017b69e00183973308207b67d8015020c40555e3fd46171f46171e46171d46171c46171b46171a46171946171846171746171646171546171446171346171246171146171046170f46170e46170d46170c46170b46170a461709461708461707461706461705461704461703a00046170279461701c3004607088268e001958704d88708826af801c88a09d8a90ada880a8268f001c88a0ad88a08826be801c88b0b7b6948037b6740037b6a500395676003956840037b6b58035020c60580e0826768038262780382636003826a7003018268f801d3870bd8870c64808264e001d84308dab80c8269f001c99a0bd89a0a8269e801c99209c9a909d8cb0ac9a909c9cb0bc90707c98708c94307d49808d4b709d48909d4b808989920978820d49808510861004926b0034926a8034926a003140700000000717b484e9568a0037b67b80333075020c805cde2fd4926980349269003492680031133070495688003492688035020ca05aee2fd33082433075020cc05f2e1fd83783307013309240a0d0183787b68f8018267d8015020ce05d6e1fd83783307018269f8013300d0050a0d01951170ff7b1088007b1580007b1678951590008411f0827a7b1a088273088274108270188282828b08828c10828a1882968298088297108299187b19287b17207b18187b16107b1a487b1c407b1b387b12307b10687b14607b1358951750951830951910821a087b1a505020d205f8d4955170ff82108800821580008216789511900032009511e0fe7b1018017b1510017b160801951520018411e0641682ab187b6b2082ab107b6b2882ab087b6b3082aa7b6a38829a187b6a40829a107b6a48829a087b6a5082997b69588289187b69688289107b69708289087b697882887b6880007b67188367e0000a8067f0007b67d0008267e8007b6798008267e0007b67c0003307403308205020d405b5e0fd7c78197c79187c7a1a7c7b1b978808d4980897aa1097bb18d4ba0ad4a8087c791d7c7a1c7c7b1e7c7c1f979908d4a90997bb1097cc18d4cb0bd4b909979920d489027c79117c7a107c7b127c7c13979908d4a90997bb1097cc18d4cb0bd4b9097c7a157c7b147c7c167c781797aa08d4ba0a97cc10978818d4c808d4a808978820d498037c78097c7a087c7b0a7c7c0b978808d4a80897bb1097cc18d4cb0bd4b8087c7a0d7c7b0c7c7c0e7c790f97aa08d4ba0a97cc10979918d4c909d4a909979920d4890a7c78017c797c7b027c7c03978808d4980897bb1097cc18d4cb0bd4b8087c79057c7b047c7c067c7707979908d4b90997cc10977718d4c707d49707977720d487076f796faa6f386f27957b207b67a000d87b07c8780c7b68a800d88c08da7708c8a8087b6ab000d8a8077b69b800c879097b6bd800d48b077b6cc8007b698800d4c909d497079877207b689000d49808978820d48707520726078267c0006f77977720826898006f88988920d497077b6798009788208267d0006f77987720d487077b67608167d8003308207b67d0005020d60518dffd8268606f88826998006f99826bc00098ba18787a0f98ba10787a0e98ba08787a0d787b0c46170b46170a4617094617084617074617064617054617044617034617024617014607787910787818989a38787a17989a30787a16989a28787a15989a20787a14989a18787a13989a10787a1298990878791198893878791f98893078791e98892878791d98892078791c98891878791b98891078791a98880882699000826b8800d49b0b140900000000010000007b6998001409e0ffffff00000000826ad800d89a09826ac80094a97b6bc00094b978781951090e068267d0008377203308205020d8052cdefd8268686f888269706f99826a786faa826b80006fbb98bc38787c1f98bc30787c1e98bc28787c1d98bc20787c1c98bc18787c1b98bc10787c1a98bc08787c19787b18787a1098ab38787b1798ab30787b1698ab28787b1598ab20787b1498ab18787b1398ab10787b1298aa08787a11787908989a38787a0f989a30787a0e989a28787a0d989a20787a0c989a18787a0b989a10787a0a9899087879097878988938787907988930787906988928787905988920787904988918787903988910787902988808826998009599c0826ad800d89a09826ac80094a9826ac00094a9787801510917058267d0008377403308205020da0535ddfd8268406f888269486f99826a506faa826b586fbb98bc38787c1f98bc30787c1e98bc28787c1d98bc20787c1c98bc18787c1b98bc10787c1a98bc08787c19787b18787a1098ab38787b1798ab30787b1698ab28787b1598ab20787b1498ab18787b1398ab10787b1298aa08787a11787908989a38787a0f989a30787a0e989a28787a0d989a20787a0c989a18787a0b989a10787a0a98990878790978789889387879079889307879069889287879059889207879049889187879039889107879029888081409a0ffffff00000000826ad800d89a09826ac80094a9826ac00094a978780151091e048267d0008377603308205020dc053cdcfd8268206f888269286f99826a306faa826b386fbb98bc38787c1f98bc30787c1e98bc28787c1d98bc20787c1c98bc18787c1b98bc10787c1a98bc08787c19787b18787a1098ab38787b1798ab30787b1698ab28787b1598ab20787b1498ab18787b1398ab10787b1298aa08787a11787908989a38787a0f989a30787a0e989a28787a0d989a20787a0c989a18787a0b989a10787a0a9899087879097878988938787907988930787906988928787905988920787904988918787903988910787902988208826cb000826ba000d4cb09826ab8008268a800d48a0ad4a909989920d4ca0a97aa20d4a90978720152091d0383b77b67d8003308205020de053cdbfd46171f800046171e46171d46171c46171b46171a46171946171846171746171646171546171446171346171246171146171046170f46170e46170d46170c46170b46170a46170946170846170746170646170546170446170346170246170146078267a0009578a0007b68c800d878078268a800c878097b69c000d88908da77088267b000c878087b68a800d878078268b800c887077b67b8003307403308205020e00595dafd8268b8006f888269a8006f99826ac0006faa826bc8006fbb98bc38787c1f98bc30787c1e98bc28787c1d98bc20787c1c98bc18787c1b98bc10787c1a98bc08787c19787b1898ab38787b1798ab30787b1698ab28787b1598ab20787b1498ab18787b1398ab10787b1298ab08787b11787a10787908989a38787a0f989a30787a0e989a28787a0d989a20787a0c989a18787a0b989a10787a0a98990878790978789889387879079889307879069889287879059889207879049889187879039889107879029888087878013308208267d8005020e205bcd9fd7c78117c79107c7a127c7b13978808d4980897aa1097bb18d4ba0ad4a8087c79157c7a147c7b167c7c17979908d4a90997bb1097cc18d4cb0bd4b909979920d489027c79017c7a7c7b027c7c03979908d4a90997bb1097cc18d4cb0bd4b9097c7a057c7b047c7c067c780797aa08d4ba0a97cc10978818d4c808d4a808978820d498037c78197c7a187c7b1a7c7c1b978808d4a80897bb1097cc18d4cb0bd4b8087c7a1d7c7b1c7c7c1e7c791f97aa08d4ba0a97cc10979918d4c909d4a909979920d4890a7c78097c79087c7b0a7c7c0b978808d4980897bb1097cc18d4cb0bd4b8087c790d7c7b0c7c7c0e7c770f979908d4b90997cc10977718d4c707d49707977720d487076f786fa76f396f2ad4a909d4870ad49a0a98aa20d49808978820d4a80852086583787b68d8008267d0005020e40584d8fd9518e08488e07b68d0006481837783898268d8000a08826ad00082a71882a81082a90882aa6f776f886f996faa826b187bba187bb9107bb8087bb79551e0fe82101801821510018216080195112001320000951120ff7b10d8007b15d0007b16c8009515e0008411f0828a18828910828b087b19107b1a08d4a90988ba01949a7b1738510a7a01828695671fd867087b1b18c8b8088488018477e0957920d87907c8780ad88a0bda770b492198007b1980007b1a88009517a000951880007b1b90005020e6057385fe8217b8008219b0008218a800821aa0007b17287b1820d48707d49a08d478089888207b1930d49707977720d487075207050183a73308207b1a5020e8057bd7fd8218086f888219106f99821a186faa6f6b98bc38787c1f98bc30787c1e98bc28787c1d98bc20787c1c98bc18787c1b98bc10787c1a98bc08787c19787b18787a1098ab38787b1798ab30787b1698ab28787b1598ab20787b1498ab18787b1398ab10787b1298aa08787a11787908989a38787a0f989a30787a0e989a28787a0d989a20787a0c989a18787a0b989a10787a0a989908787909787898893878790798893078790698892878790598892078790498891878790398891078790298880878780182173882187b788218287b78188218207b78088218307b7810955120ff8210d8008215d0008216c8009511e000320000491170491168491160140700000000717b484e9518607b177833075020ea0515d7fd491158491150491140413307049518404911485020ec05fbd6fd33082433075020ee053fd6fd83783307013309243300f0050a0d01951160ff7b1098007b1590007b1688009515a0008411e064760a0c015107b4007b16200a0c4911584911507b17409517609518404911485020f205c7fd8217787b17388217707b17308217687b17288216600a0c019568207b1618d86809821b28c89b0ad8ba0bda990b821930c89b0bd89b09821c38c8c909d4b80cd4a909d49c0c98cc20d4b909979920d4c9095209416476987720520739838783687b18105020f40589d5fd7a16800083778318800033090a0b0181178000821620821838821930821a28821b18821c10aec70e00330a33093308330b60017b6b7b6a087b69107b6818955160ff8210980082159000821688009511a00032009511a07b10587b15507b1648828a18828b10828c088286d4ac08d4b609d48909989920d4b808978820d498087b172852081a029567207b1730d86707c87c087b18407b1c08d8c805da7705c8b5057b1b10d8b5077b1a18c8a7077b17387b1683673308203306205020f605c7d4fd78761f8218306486d45808821940821b38d4b909d498089888207b1520d45909979920d4980846171e46171d46171c46171b46171a46171946171846171746171646171546171446171346171246171146171046170f46170e46170d46170c46170b46170a461709461708461707461706461705461704461703461702461701460752085901836533082064575020f80533d4fd46171f1b46171e46171d46171c46171b46171a46171946171846171746171646171546171446171346171246171146171046170f46170e46170d46170c46170b46170a461709461708461707461706461705461704461703461702461701821820821938d498081409e0ffffff00000000d89609821a4094a9948946075109ca008357203308205020fa05a5d3fd46171f46171e46171d46171c46171b46171a64461719654617186c461717694617166146171566330c20787c144617137246171265461711664617107346170f6e46170e6146170d7246170c74787c0b46170a484617095446170845787c074617063a461705774617046f4617037246170263461701734607458218958760d88708821a08c88a09d8a90ada880a821810c88a0ad88a08821b18c8b808821b287bb77bb9087bba107bb8188210588215508216489511603200009511a0fe7b1058017b1550017b164801951560018411e082897b19588289087b19508289107b19488288187b184082787b18388278107b18308277087b17283307403308205020fc059fd2fd7c78117c79107c7a127c7b13978808d4980897aa1097bb18d4ba0ad4a8087c79157c7a147c7b167c7c17979908d4a90997bb1097cc18d4cb0bd4b909979920d489027c79017c7a7c7b027c7c03979908d4a90997bb1097cc18d4cb0bd4b9097c7a057c7b047c7c067c760797aa08d4ba0a97cc10976618d46c0cd4ca0a97aa20d4a9097c7a197c7b187c7c1a7c761b97aa08d4ba0a97cc10976618d46c0cd4ca0a7c7b1d7c7c1c7c761e7c781f97bb08d4cb0b976610978818d46808d4b808978820d48a0a7c78097c7b087c7c0a7c760b978808d4b80897cc10976618d46c0cd4c8087c7b0d7c7c0c7c760e7c770f97bb08d4cb0b976610977718d46707d4b707977720d487076f766fa77b17106f977b17206f277b17180a0a017b17088217286f778218306f88988820977920d498089877208219386f99979a20d4a7077b17c8007b18c0009899207a19d0008219108217407b17f8008217487b17f0008217507b17e800821720821818d48707d46908d47808d46707988820977720d487078218587b18e0005207f102839733085020fe0508d1fd7b17583307330850200006fad0fd482100018219088e98fc089a897b1938017b1930017b1928017b1920019519c000979920989920978823d498069518e00097882098882095192001979920d4890a821b5897bb2098bb2097772098772095180001978820d4780c3308ff3309ff64670a0164769517a0005020020660fa5206199551a0fe8210580182155001821648019511600132003307403308205020040664d0fd7c78117c79107c7a127c7b13978808d4980897aa1097bb18d4ba0ad4a8087c79157c7a147c7b167c7c17979908d4a90997bb1097cc18d4cb0bd4b909979920d489027c79017c7a7c7b027c7c03979908d4a90997bb1097cc18d4cb0bd4b9097c7a057c7b047c7c067c760797aa08d4ba0a97cc10976618d46c0cd4ca0a97aa20d4a9097c7a197c7b187c7c1a7c761b97aa08d4ba0a97cc10976618d46c0cd4ca0a7c7b1d7c7c1c7c761e7c781f97bb08d4cb0b976610978818d46808d4b808978820d48a0a7c78097c7b087c7c0a7c760b978808d4b80897cc10976618d46c0cd4c8087c7b0d7c7c0c7c760e7c770f97bb08d4cb0b976610977718d46707d4b707977720d487076f766fa86f996f277b17587b1950d497076489d46808d47808988820d46707977720d48707520712017b194883973308207b17405020060622cffd46171f46171e46171d46171c46171b46171a46171946171846171746171646171546171446171346171246171146171046170f46170e46170d46170c46170b46170a461709461708461707461706461705461704461703a00046170279461701c300460708821848958704d88708821a58c88a09d8a90ada880ac86a0ad86a08821b50c88b0b7b19687b17607b1a70951780009518607b1b785020080654f9821788008212980082138000821a9000821858d3870bd8870c6484821948d89308dab80cc96a0bd86a0a821650c96206c9a606d8cb0ac9a606c9cb0bc94707c98708c99307d46808d4b709d48909d4b808989920978820d49808510804008376821740646850200a0617cefd8378330701646933000c060a0d01951100ff7b10f8007b15f0007b16e800951500018411e08280829b088284088296950a1fd80a03c8340c7b1620d86a0ad3bc067b1b28d8bc0bda6a0b8282107b1438d84c0ada330a829318828c18829610c82a0ad82a087b1c30c8c808d33809d93808d86a0cda9c08d36a0ad4a909db980b510be80064247b16087b13107b1718d44007821838821930d49808d48707987720d44808978820d487075207bd00644683088317c0007b100a038212c0008213c8008219d000821ad8008217957b20d87b0c821838c8c807d88708dacc08c86808d8680c821630c86c0c8216107b16588216087b16508216287b16488216207b16407b1a787b19707b13687b12607b1788007b1b80007b1890009517a00095188000951960951a407b1c980050200e06ee7ffe8217b0008218b8008219a000821aa800821b187bb7107bb8187bb97bba08955100ff8210f8008215f0008216e800951100013200003307330850201006a4ccfd83783307013309330012060a0d0182884917184917104917087b7832009511e0fd7b1018027b1510027b160802951520028411e0829608828408829c8280829310d3460bd8460ad80c02dab20a7b169000c9460bc92b0b7b1c8800c90c0c88cc6085cc018282108eb6dbb60c829b18828618c92308c9a809d8a8087b138000d8230a7b1b78c96b0bc9ab0bc98b0b8fb88e9adbb80ad4b909db9a0c510ce203d420097b149800d46408d489099899207b1270d42808978820d498085208c1037b16687b173883088317a0017b185864060a03018217b8018218b0018219a801d4780a889b0194ab510b9603821aa001c86a02d8a20a821b9800c89b0bc8ab03d3930b7b1660d89306daba06821970c88909c89606d8960ad88908821968c89707c88707c8a70095271fd82708c88309d8390ada880ac8a604d86408c80808821c9000d3c90bd8c909821c8800d8c707dbb907821c8000d8c409821b78d3b80ad9b808daa908d3c409d4a909db980751071b03d462077b13507b1040d40308d487079877207b1648d46808978820d487075207ec0283288317e00164260a038212e0018213e8018219f001821af801956b20d86b0c821850c8c807d88708dacc08821c48c8c808d8c80c821640c86c0c8216787b163801821680007b163001821690007b162801821688007b1620017b1a58017b1950017b1348017b1240017b1768017b1b60017b187001951780019518600195194001951a20017b1c780150201406897dfe821770821668d476061407e0ffffff00000000821860d87807821898009487946751073602821798017b1730821790017b1740821788017b1748821780017b17508217588378208317e0010a0301821bf801821af0018219e801d4ba07889801947851081e027b1b187b1a207b19281407c0ffffff00000000821860d8780782189800948794675107d0018217e0017b17108217588378408317c0010a03018217d8018218d0018219c801d4780a889b0194ab510ba501821ac001821b60c8ba02d8a20a821b9800c89b0bc8ab03d3930bd89306daba06821970c88909c89606d8960ad88908821968c89707c88707c8a70095271fd82708c88309d8390ada880ac8a604d86408c80808821c9000d3c90bd8c909821c8800d8c707dbb907821c8000d8c409821b78d3b80ad8b808daa908d3c409d4a909db980751072a01d462077b1398007b1068d40308d487079877207b1670d46808978820d487075207fa0083288317e00164260a038212e0018213e8018219f001821af801956b20d86b0c82189800c8c807d88708dacc08821c70c8c808d8c80c821668c86c0c8216787b16b800821680007b16b000821690007b16a800821688007b16a0007b1ad8007b19d0007b13c8007b12c0007b17e8007b1be0007b18f000951700019518e0009519c000951aa0007b1cf80050201606967bfe821718018218100182190801821a0001821b387bb7587bb8507bb9487bba408217187bb7388217207bb7308217287bb7288217107bb7208217307bb7188217407bb7108217487bb7088217507bb79551e0fd8210180282151002821608029511200232000033073308330018062818c8fd33085020180612c8fd837833070133090a0d33073300180628fcc7fd33073300180628f2c7fd9511a07b10587b15507b1648828a18828b10828c088286d4ac08d4b609d48909989920d4b808978820d498087b17205208b0029567207b1740d86707c87c087b18387b1c08d8c805da7705c8b5057b1b10d8b5077b1a18c8a7077b17307b16836733082033062050201a0687c7fd78761f821840d45808821938821a30d4a909d49808988820d45909979920d4980846171e46171d46171c46171b46171a46171946171846171746171646171546171446171346171246171146171046170f46170e46170d46170c46170b46170a46170946170846170746170646170546170446170346170246170146075208f401645682154083573308207b172850201c06f2c6fd46171f2446171e46171d46171c46171b46171a46171946171846171746171646171546171446171346171246171146171046170f46170e46170d46170c46170b46170a461709461708461707461706461705461704461703461702461701821830d48609140600000000010000001408e0ffffff00000000d8850882153894587b1930949846075108550182172883772033082050201e0657c6fd46171f7046171e7846171c20461712204617113a46170d66461709564617197546170675461718744617057446171761461704614617166e4617036e4617156746170267461713534607539568c0821940d8890833066578761d78761b945846171a7282193094983305697875144617107278760f78750e78750c46170b7278760a787608461707727875015108b50082172883774033082050202006b7c5fd46171f46171e46171d46171c46171b46171a46171946171846171746171646171546171446171346171246171146171046170f46170e46170d46170c46170b46170a46170946170846170746170646170546170446170364787602461701727875821895878000d88708821a08c88a09d8a90ada880a821810c88a0ad88a08821b18c8b808821b207bb77bb9087bba107bb818821058821550821648951160320000821780037b179800821788037b179000821790037b178800821798037b178000821760037b17b800821768037b1758821770037b1748821778037b1738821740037b17a000821748037b17a800821750037b17b000821658038317a0030a8217a8038118b0038219a0036f77977a206f88988820d4a8087b18209877206f983809140102978a20d4a7077b17189888207b18104921980249219002492188027b1980028217287b17b8028217307b17b0028217407b17a8028217507b17a0028217607b17d8028217687b17d0028217707b17c8029517e0029518c0029519a002951a8002821b787b1bc002502024062d77fe8217e0028218e8028219f002821af8027b16787b16f801821bb0007b1bf001821ba8007b1be801821ba0007b1be0017b1a18027b1910027b1808027b1700028217387b1738028217487b1730028217587b1728028217b8007b1720028217107b1750028217187b1748028217207b174002951760029518400295192002951a0002951be00149215802502026064b13821a6002821768028218700282197802821b80007b1b5801821b88007b1b5001821b90007b1b4801821b98007b1b40017b1978017b1870017b1768019517800195186001951940017b1a60015020280681038213d8018218d0018219c801821ac001821bb801821cb0018216a8018212a001821798017b179800821790017b179000821788017b178800821780017b1780007b1318017b1810017b1908017b1a00017b1b38017b1c30017b16280195172001951800017b12200150202a06bb0a8317c0030a09018217d8038218d0038219c803821ac003887b01888c01db7b0c821bb800d8ab0a85aa01889b01da9a0bd48707db7c0b510b528217088218a0007b7820821880007b788218a8007b7828821888007b78088218b0007b7830821890007b78108218787b7838821898007b7818955100fc8210f8038215f0038216e80395110004320033074033082050202c063fc2fd7c78117c79107c7a127c7b13978808d4980897aa1097bb18d4ba0ad4a8087c79157c7a147c7b167c7c17979908d4a90997bb1097cc18d4cb0bd4b909979920d489027c79017c7a7c7b027c7c03979908d4a90997bb1097cc18d4cb0bd4b9097c7a057c7b047c7c067c760797aa08d4ba0a97cc10976618d46c0cd4ca0a97aa20d4a9097c7a197c7b187c7c1a7c761b97aa08d4ba0a97cc10976618d46c0cd4ca0a7c7b1d7c7c1c7c761e7c781f97bb08d4cb0b976610978818d46808d4b808978820d48a0a7c78097c7b087c7c0a7c760b978808d4b80897cc10976618d46c0cd4c8087c7b0d7c7c0c7c760e7c770f97bb08d4cb0b976610977718d46707d4b707977720d487076f766fa86f996f277b17b8007b19b000d497076489d46808d47808988820d46707977720d4870752071f017b19a80083973308207b17a00050202e06f9c0fd46171f46171e46171d46171c46171b46171a46171946171846171746171646171546171446171346171246171146171046170f46170e46170d46170c46170b46170a461709461708461707461706461705461704461703a00046170279461701c3004607088218a800958704d88708821ab800c88a09d8a90ada880ac86a0ad86a08821bb000c88b0b7b19c8007b17c0007b1ad0009517e0009518c0007b1bd8005020300663f88217e8008212f8008213e000821af0008218b800d3870bd8870c64848219a800d89308dab80cc96a0bd86a0a8216b000c96206c9a606d8cb0ac9a606c9cb0bc94707c98708c99307d46808d4b709d48909d4b808989920978820d498085108040083768217a000646850203206e2bffd83783307016469330034060a0d01491718491710491708490732009511b0fd7b1048027b1540027b163802951550028411f0829c10829618829a08829b7b1a30017b162001d46a09d4cb0ad49a0a98aa207b1c2801d4c909979920d4a9097b173801520960078287187b1700018287107b1708018287087b17100182877b1718017b1b400183b73308207b174801502036064dbffd7c78097c79087c7a0a7c7b0b978808d4980897aa1097bb18d4ba0ad4a8087c790d7c7a0c7c7b0e7c7c0f979908d4a90997bb1097cc18d4cb0bd4b909979920d489027c79197c7a187c7b1a7c7c1b979908d4a90997bb1097cc18d4cb0bd4b9097c7a1d7c7b1c7c7c1e7c781f97aa08d4ba0a97cc10978818d4c808d4a808978820d498037c78117c7a107c7b127c7c13978808d4a80897bb1097cc18d4bc0ad48a0a7c78017c7b7c7c027c7603978808d4b80897cc10976618d4c60bd48b0b7c78157c7c147c76167c7917978808d4c808976610979918d46909d498087c79057c7c047c76067c7707979908d4c909976610977718d46707d4970714090000000000000041d39309d49209d48707977720d4ba0ad4a707d4970752078f04821848018217280182192001d4970a140700000000010000007b1720011407e0ffffff0000000082194001d879078216300194677b1a280194a75107d50583872033082050203806e4bdfd821820019588c082194001d8890894688219280194985108ae057c78187b18287c78197b18087c781a7b18187c781b7b18107c781c7b18407c781d7b18207c781e7b18387c781f7b18307c78107b18687c78117b18487c78127b18587c78137b18507c78147b1880007c78157b18607c78167b18787c78177b18707c78087b18a8007c78097b1888007c780a7b1898007c780b7b1890007c780c7b18c0007c780d7b18a0007c780e7b18b8007c780f7b18b0007c787b18e8007c78017b18c8007c78027b18d8007c78037b18d0007c78047b1820017c78057b18e0007c78067b18f8007c77077b17f0008217480183774033082050203a06e9bcfd1408a0ffffff0000000082194001d8890894688219280194985108b004821808978808821928d49808821918979910821a1097aa18d4a909d49808821920979908821a40d4a909821a3897aa10821b3097bb18d4ba0ad4a909979920d498087b184001821848978808821968d49808821958979910821a5097aa18d4a909d49808821960979908821a8000d4a909821a7897aa10821b7097bb18d4ba0ad4a909979920d48903821888009788088219a800d4980882199800979910821a900097aa18d4a909d498088219a000979908821ac000d4a909821ab80097aa10821bb00097bb18d4ba0ad4a909979920d489048218c8009788088219e800d498088219d800979910821bd00097bb18d4b909d498088219e000979908821a2001d4a909821bf80097bb10821cf00097cc18d4cb0bd4b909979920d489007c78017c797c7c027c7603978808d4980897cc10976618d46c0cd4c8087c79057c7c047c76067c7a07979908d4c90997661097aa18d46a0ad4a909979920d489027c78097c79087c7a0a7c760b978808d4980897aa10976618d46a0ad4a8087c790d7c7a0c7c760e7c7b0f979908d4a90997661097bb18d46b0bd4b909979920d4890c7c79117c7a107c7b127c7613979908d4a90997bb10976618d46b0bd4b9097c7a157c7b147c76167c781797aa08d4ba0a976610978818d46808d4a808978820d489097c78197c7a187c7b1a7c761b978808d4a80897bb10976618d46b0bd4b8087c7a1d7c7b1c7c761e7c771f97aa08d4ba0a976610977718d46707d4a707977720d487076f066f487b18e8006f387b18f000821840016f887b18f8006f777b1740016f977b1730016fc77b1728016f277b1720018217480183776033082050203c0667bafd7c777b1688018218e8007b1880018218f0007b1878018218f8007b1870017b1790014921a8014921a00149219801821700017b17c801821708017b17c001821710017b17b801821718017b17b001821720017b176801821728017b176001821730017b1758019517d0019518b00195199001951a7001951b5001821c40017b1c500150203e06d716821ce8018213e0018216d8018217d0017b174801821708027b174001821000028214f801821bf00182172802821a20028219180282121002284201330820821748015020400696b9fd49214801492130014921280133043300492140017c79197c7a187c7b1a7c7c1b979908d4a90997bb1097cc18d4cb0bd4b9097c7a1d7c7b1c7c7c1e7c761f97aa08d4ba0a97cc10976618d46c0cd4ca0a97aa20d49a027c79117c7a107c7c127c7613979908d4a90997cc10976618d46c0cd4c9097c7a157c7c147c76167c7b1797aa08d4ca0a97661097bb18d46b0bd4ba0a97aa20d4a9097c7a097c7b087c7c0a7c760b97aa08d4ba0a97cc10976618d46c0cd4ca0a7c7b0d7c7c0c7c760e7c730f97bb08d4cb0b976610973318d4630c3303d4cb0b97bb20d4ba0a7c7b017c7c7c76027c780397bb08d4cb0b976610978818d46808d4b8087c7b057c7c047c76067c770797bb08d4cb0b821c2801976610977718d4670782163001d4b707977720d487076f776faa6f996f22330b0201821838017b82407b8b20821b48017b8b7b89487b84287b86087b8a507b80307b83107b8758821740017b87387b8c189551b0fd821048028215400282163802951150023200009511807b10787b15707b1668951580008411f0827a18827b108279827708d4ba0a889b04947b94ab510b1b849703520754955180821078821570821668951180003200491150491148491140140700000000717b484e9518407b17583307502042066ab8fd491138491130491120213307049518204911285020440650b8fd2865025217018e003308203307502046068cb7fd46171f46171e46171d46171c46171b46171a46171946171846171746171646171546171446171346171246171146171046170f46170e46170d46170c46170b46170a461709461708461707461706461705461704461703df00461702ee00461701454607f6003308043307502048061ab7fd83783307013309040a0d018286188289107b19088289087b191082887b181852170279330820330750204a06ebb6fd46171f46171e46171d46171c46171b46171a46171946171846171746171646171546171446171346171246171146171046170f46170e46170d46170c46170b46170a461709461708461707461706461705461704461703f7004617029800461701e6003308fc002875330820330750204c0676b6fd46171f46171e46171d46171c46171b46171a46171946171846171746171646171546171446171346171246171146171046170f46170e46170d46170c46170b46170a4617094617084617074617064617054617044617030c461702ce004617018b003308d70001787833070433082050204e0600b6fd6f688219086f99821a106faa821b186fbb98bc38787c1f98bc30787c1e98bc28787c1d98bc20787c1c98bc18787c1b98bc10787c1a98bc08787c19787b1898ab38787b1798ab30787b1698ab28787b1598ab20787b1498ab18787b1398ab10787b1298ab08787b11787a10989a38787a0f989a30787a0e989a28787a0d989a20787a0c989a18787a0b989a10787a0a989a08787a097879087878988938787907988930787906988928787905988920787904988918787903988910787902988808787801013308243307502050062fb5fd8378330701330924330052060a0d01828918828a10828b0882887b79187b7a107b7b087b783200951150ff7b10a8007b15a0007b16980082861082821882850882887b1588007b1270d425027b189000d46805d425059855207b1678d46208978820d4580852087a047b172082c7187b1782c7107b170882c7087b171082c77b171882b7187b172882b7107b173082b7087b173882b77b174082a77b17488297107b17608297087b175882977b17508116900033082064675020540670b4fd46171f46171e46171d46171c46171b46171a46171946171846171746171646171546171446171346171246171146171046170f46170e46170d46170c46170b46170a461709461708461707461706461705461704461703461702460719821878821a70d48a0a140500000000010000001408feffffff0000000082199000d889088219880094987b1a800094a8461701510890037b166883670233082050205606ccb3fd8218506f868218586f8a8218606f8998922098ab2098682046171f46171e46171d46171c46171b46171a461719461718461717461716461715461714986c38787c13986c30787c12986c28787c1178781098681878780f98681078780e98680878780d78760c787a0498a83878780b98a83078780a98a828787809787b0898a81878780798a81078780698aa08787a059898387878039898307878029899287879019555ea82189000d8580882198800949882198000949878725108c20282166883671633082050205806feb2fd8218486f8846171f46171e46171d46171c46171b46171a46171946171846171746171646171546171446171346171246171146171046170f46170e46170d46170c46170b46170a4617099889387879079889307879069889287879059889207879049889187879039889107879029889087879017878140500000000010000001408e2ffffff0000000082199000d8890882198800949882198000949846170851080e0283671e33082050205a064db2fd8218286f888219306f99821a386faa821b406fbb98bc38787c1f98bc30787c1e98bc28787c1d98bc20787c1c98bc18787c1b98bc10787c1a98bc08787c19787b18787a1098ab38787b1798ab30787b1698ab28787b1598ab20787b1498ab18787b1398ab10787b1298aa08787a11787908989a38787a0f989a30787a0e989a28787a0d989a20787a0c989a18787a0b989a10787a0a98990878790978789889387879079889307879069889287879059889207879049889187879039889107879029888089559c2821a9000d89a09821a880094a9821a800094a978780182157882167051091a0182176883773e33082050205c0656b1fd82186f888219086f99821a106faa821b186fbb98bc38787c1f98bc30787c1e98bc28787c1d98bc20787c1c98bc18787c1b98bc10787c1a98bc08787c19787b18787a1098ab38787b1798ab30787b1698ab28787b1598ab20787b1498ab18787b1398ab10787b1298aa08787a11787908989a38787a0f989a30787a0e989a28787a0d989a20787a0c989a18787a0b989a10787a0a98990878790978789889387879079889307879069889287879059889207879049889187879039889107879029888087878018218900095875ed88708821a8800c88a09d8a90ada880ac85a0ad85a08c86808821b207bb77bb9087bba107bb8188210a8008215a000821698009511b000320000951120fe7b10d8017b15d0017b16c8019515e0018411e0641682a31082a41882ac0882a27b6c98007b648800d44c0ad4320cd4ac0c98cc207b639000d43a0a97aa20d4ca0a7b6730520ad60a82b7187b67a80082b7107b67a00082b7087b67b80082b77b67b0008297187b67388297107b67408297087b674882977b67508287187b67588287107b67608287087b676882877b677083273308207b67787b62800050205e06a7affd8268900082698800d498081409e0ffffff00000000826a8000d89a09826a980094a994895109520a7c78197c79187c7a1a7c7b1b978808d4980897aa1097bb18d4ba0ad4a8087c791d7c7a1c7c7b1e7c7c1f979908d4a90997bb1097cc18d4cb0bd4b909979920d489027c79117c7a107c7b127c7c13979908d4a90997bb1097cc18d4cb0bd4b9097c7a157c7b147c7c167c781797aa08d4ba0a97cc10978818d4c808d4a808978820d498037c78097c7a087c7b0a7c7c0b978808d4a80897bb1097cc18d4cb0bd4b8087c7a0d7c7b0c7c7c0e7c790f97aa08d4ba0a97cc10979918d4c909d4a909979920d4890a7c78017c797c7b027c7c03978808d4980897bb1097cc18d4cb0bd4b8087c79057c7b047c7c067c7707979908d4b90997cc10977718d4c707d49707977720d487076f776fa96f3a6f28d4980bd4a707d47b0b98bb20d49707977720d4b70752072a0982677883772083887b6898005020600644aefd9518e08488e0648183777b6890008389826898000a08018269b000826aa000d4a9078268b800826ba800d4b808d48707987720d4a808978820d487075207d708826890008287187b6798008287107b6788008287087b67800082877b677883973308207b67900050206206d6adfd8268a0008269a800d498081409e0ffffff00000000826ab000d89a09826ab80094a99489510981087c78197c79187c7a1a7c7b1b978808d4980897aa1097bb18d4ba0ad4a8087c791d7c7a1c7c7b1e7c7c1f979908d4a90997bb1097cc18d4cb0bd4b909979920d489027c79117c7a107c7b127c7c13979908d4a90997bb1097cc18d4cb0bd4b9097c7a157c7b147c7c167c781797aa08d4ba0a97cc10978818d4c808d4a808978820d498037c78097c7a087c7b0a7c7c0b978808d4a80897bb1097cc18d4cb0bd4b8087c7a0d7c7b0c7c7c0e7c790f97aa08d4ba0a97cc10979918d4c909d4a909979920d4890a7c78017c797c7b027c7c03978808d4980897bb1097cc18d4cb0bd4b8087c79057c7b047c7c067c7707979908d4b90997cc10977718d4c707d49707977720d487076f776fa96f3a6f28d4980bd4a707d47b0b98bb20d49707977720d4b707520759078267786f777b6778826780006f777b678000826788006f777b678800826798006f777b6798008267900083772083887b68b800502064064cacfd9518e08488e07b68b0006481837783898268b8000a08826ab00082a71882a81082a90882aa6f777b6790006f877b67286f977b67206fa77b67183307403308205020660605acfd7c78197c79187c7a1a7c7b1b978808d4980897aa1097bb18d4ba0ad4a8087c791d7c7a1c7c7b1e7c7c1f979908d4a90997bb1097cc18d4cb0bd4b909979920d489027c79117c7a107c7b127c7c13979908d4a90997bb1097cc18d4cb0bd4b9097c7a157c7b147c7c167c781797aa08d4ba0a97cc10978818d4c808d4a808978820d498037c78097c7a087c7b0a7c7c0b978808d4a80897bb1097cc18d4cb0bd4b8087c7a0d7c7b0c7c7c0e7c790f97aa08d4ba0a97cc10979918d4c909d4a909979920d4890a7c78017c797c7b027c7c03978808d4980897bb1097cc18d4cb0bd4b8087c79057c7b047c7c067c7707979908d4b90997cc10977718d4c707d49707977720d487076f7b7b6ba8006faa7b6ab0006f387b68a0006f277b67b800957320d87307c87809d88908da7708c8a808d8a807c87b028267187b6718018267207b6710018267287b670801826790007b6700018267787b673801826780007b673001826788007b672801826798007b6720018267387b6758018267407b6750018267487b6748018267507b6740018267587b6778018267607b6770018267687b6768018267707b6760017b6398007b6380017b6990007b6988017b6888007b6890019567a0019568800195696001956a4001956b2001956c00017b6280007b629801502068061af58268a0008267a800d487078269b0008268b800d49808d47808988820d49707977720d487075207c6048267a0017b67788262a8018264b8017b6440826bb0017b6b48826c9800d8c70382689000d38200d882097b6238da030982678800c97b00c9900a7b6a60d8900ad87b09c9940982678000c97909c9a9097b6968c93207c987077b6758826778c9c7077b67508167b8003308207b677050206a067da9fd8262788269b800d89203826ca000826b38d3cb0ad8cb08daa308c9cb0ac93a037b6328c9920a95ab1fd8ab027b623884bbe0c8b9097b6978d8b90ac82309c8c90bc8ab02d3920bd89200daba008263a800826a40c93a04826bb000826a48d8ba0cc9c404c9ba0cd88c0ac9a40ac98c0c826828d88908826938da9908c8c808d8c809c83a0ac8a909c8b80ad88a08c89808c8a000d8a009c8980c8ec88e09dbc809d4c00a8e28dba9088269506f99989a38787a1f989a30787a1e989a28787a1d989a20787a1c989a18787a1b989a10787a1a826a586faa78791898990878791998a93878791798a93078791698a92878791598a92078791498a91878791398a9107879128269606f99787a1098aa08787a11989a38787a0f989a30787a0e989a28787a0d989a20787a0c989a18787a0b989a10787a0a826a686faa78790898990878790998a93878790798a93078790698a92878790598a92078790498a91878790398a910787902787a98aa08787a015208dd028267b800826878d878078269a000d39208d89209da8709826bb000d8b007826aa800d3ac08d8ac0ada870ad3b007d48707da790a520aa5023307403308207b62b8007b60b0007b6ca80050206c06b8a7fd8268a8006f888269b0006f99826ab8006faa826b786fbb787b1898bc38787c1f98bc30787c1e98bc28787c1d98bc20787c1c98bc18787c1b98bc10787c1a98bb08787b19787a1098ab38787b1798ab30787b1698ab28787b1598ab20787b1498ab18787b1398ab10787b1298aa08787a11787908989a38787a0f989a30787a0e989a28787a0d989a20787a0c989a18787a0b989a10787a0a989908787909787898893878790798893078790698892878790598892078790498891878790398891078790298880878780133082082677050206e06e1a6fd82649800826a8800d4a40882699000826b8000d4b909d49808988820d4a909979920d4980852088b017c78197c79187c7a1a7c7b1b978808d4980897aa1097bb18d4ba0ad4a8087c791d7c7a1c7c7b1e7c7c1f979908d4a90997bb1097cc18d4cb0bd4b909979920d489027c79117c7a107c7b127c7c13979908d4a90997bb1097cc18d4cb0bd4b9097c7a157c7b147c7c167c781797aa08d4ba0a97cc10978818d4c808d4a808978820d498037c78097c7a087c7b0a7c7c0b978808d4a80897bb1097cc18d4cb0bd4b8087c7a0d7c7b0c7c7c0e7c790f97aa08d4ba0a97cc10979918d4c909d4a909979920d4890a7c78017c797c7b027c7c03978808d4980897bb1097cc18d4cb0bd4b8087c79057c7b047c7c067c7707979908d4b90997cc10977718d4c707d49707977720d487076f776fa96f3a6f28d4980bd4a707d47b0b98bb20d49707977720d4b707520763834783887b68b8005020700682a5fd9518e08488e07b68b0006481837783898268b8000a08826ab00082a71882a81082a90882aa6f776f886f996faa826b307bba187bb9107bb8087bb7955120fe8210d8018215d0018216c8019511e0013200004926f0004926e8004926e000140700000000717b484e9568e0007b67f800330750207206b9a5fd4926d8004926d0004926c000413307049568c0004926c800502074069aa5fd330824330750207606dea4fd8378330701330924330078060a0d01828918828a10828b0882887b79187b7a107b7b087b7832007c78117c79107c7a127c7b13978808d4980897aa1097bb18d4ba0ad4a8087c79157c7a147c7b167c7c17979908d4a90997bb1097cc18d4cb0bd4b909979920d489027c79017c7a7c7b027c7c03979908d4a90997bb1097cc18d4cb0bd4b9097c7a057c7b047c7c067c760797aa08d4ba0a97cc10976618d46c0cd4ca0a97aa20d4a9097c7a197c7b187c7c1a7c761b97aa08d4ba0a97cc10976618d46c0cd4ca0a7c7b1d7c7c1c7c761e7c781f97bb08d4cb0b976610978818d46808d4b808978820d48a0a7c78097c7b087c7c0a7c760b978808d4b80897cc10976618d46c0cd4c8087c7b0d7c7c0c7c760e7c770f97bb08d4cb0b976610977718d46707d4b707977720d487076f766fa77b17086f977b17186f277b17100a0c01821a08821818821910d49808d46a09d48909989920d46808978820d4980852083b647698772052073383a783687b18187b171050207c0662a3fd7a1620837783182033090a0b01811720821818ac870c0a0c01987820510804008376821710646850207e0634a3fd83783307016469330080060a0d01828918828a10828b0882887b79187b7a107b7b087b7832009511c0fe7b1038017b1530017b162801951540018411e082b41082b382b0083a020001023a0608010282bc18d3200b7b1b90007b109800d820027b1378d86306821b9000dbb206140bffffffffffffff7fd3bc007b1c8000d8bc02884bffdb020b6442e1400cdac60b520b1a330a33063309330c0382138000821878821498002848077b12187b171082a7187b172082a7107b172882a7087b173082a77b173882977b17408287187b17508287107b17588287087b176082877b17683307403308205020820645a2fd7c78117c79107c7a127c7b13978808d4980897aa1097bb18d4ba0ad4a8087c79157c7a147c7b167c7c17979908d4a90997bb1097cc18d4cb0bd4b909979920d489027c79017c7a7c7b027c7c03979908d4a90997bb1097cc18d4cb0bd4b9097c7a057c7b047c7c067c760797aa08d4ba0a97cc10976618d46c0cd4ca0a97aa20d4a9097c7a197c7b187c7c1a7c761b97aa08d4ba0a97cc10976618d46c0cd4ca0a7c7b1d7c7c1c7c761e7c781f97bb08d4cb0b976610978818d46808d4b808978820d48a0a7c78097c7b087c7c0a7c760b978808d4b80897cc10976618d46c0cd4c8087c7b0d7c7c0c7c760e7c770f97bb08d4cb0b976610977718d46707d4b707977720d487076f766fa86f996f277b17707b1948d497077b189000d46808d47808988820d46707977720d4870752070a06811790003308207b1788005020840601a1fd8218506f888219586f99821a606faa821b686fbb98bc38787c1f98bc30787c1e98bc28787c1d98bc20787c1c98bc18787c1b98bc10787c1a98bc08787c19787b18787a1098ab38787b1798ab30787b1698ab28787b1598ab20787b1498ab18787b1398ab10787b1298aa08787a11787908989a38787a0f989a30787a0e989a28787a0d989a20787a0c989a18787a0b989a10787a0a9899087879097878988938787907988930787906988928787905988920787904988918787903988910787902988808821b48d46b0b140600000000010000001409e0ffffff00000000821a9000d89a09821a7094a97b1b6894b9787801510902058217880083772033082050208606fa9ffd82184078781f46171e46171d46171c46171b46171a46171946171846171746171646171546171446171346171246171146171046170f46170e46170d46170c46170b46170a4617094617084617074617064617054617044617034617024617019568c082199000d889088219709498821668946846075108770482178800837740330820502088066f9ffd8218206f888219286f99821a306faa821b386fbb98bc38787c1f98bc30787c1e98bc28787c1d98bc20787c1c98bc18787c1b98bc10787c1a98bc08787c19787b18787a1098ab38787b1798ab30787b1698ab28787b1598ab20787b1498ab18787b1398ab10787b1298aa08787a11787908989a38787a0f989a30787a0e989a28787a0d989a20787a0c989a18787a0b989a10787a0a98990878790978789889387879079889307879069889287879059889207879049889187879039889107879029888081409a0ffffff00000000821a9000d89a09821a7094a994697878018216800051097f038217880083776033082050208a06779efd6f688219186f99821a98006faa821b786fbb98bc38787c1f98bc30787c1e98bc28787c1d98bc20787c1c98bc18787c1b98bc10787c1a98bc08787c19787b18787a1098ab38787b1798ab30787b1698ab28787b1598ab20787b1498ab18787b1398ab10787b1298aa08787a11787908989a38787a0f989a30787a0e989a28787a0d989a20787a0c989a18787a0b989a10787a0a9899087879097878988938787907988930787906988928787905988920787904988918787903988910787902988808787801330820330750208c06a69dfd46171f46171e46171d46171c46171b46171a46171946171846171746171646171546171446171346171246171146171046170f46170e46170d46170c46170b46170a46170946170846170746170646170546170446170346170246170146070a0a4921a8004921a0004821b000000000014921d8004921d0004921c8004921c000330880008217880050208e06169dfd7b179800330820330750209006069dfd4821e00020492118014921100149210801492100019518a00097882098882014090000000018000000d498069518c00097882098882095190001979920d4890a82189800978820988820140b0000000080000000d48b0b9777209877209518e000978820d4780c3308ff3309ff64670a01015207880133082050209206869cfd33084921980033027c79097c7a087c7b0a7c7c0b979908d4a90997bb1097cc18d4cb0bd4b9097c7a0d7c7b0c7c7c0e7c760f97aa08d4ba0a97cc10976618d46c0cd4ca0a97aa20d4a9097b1990007c7a197c7b187c7c1a7c761b97aa08d4ba0a97cc10976618d46c0cd4ca0a7c7b1d7c7c1c7c761e7c791f97bb08d4cb0b976610979918d46909d4b909979920d4a9037c79117c7b107c7c127c7613979908d4b90997cc10976618d46c0cd4c9097c7b157c7c147c76167c7a1797bb08d4cb0b97661097aa18d46a0ad4ba0a97aa20d49a0b7c79017c7a7c7c027c7603979908d4a90997cc10976618d46c0cd4c9097c7a057c7c047c76067c770797aa08d4ca0a976610977718d46707d4a707977720d4970c6fb66f3a330382149800821790006f79979b2098bb20d46a07d4b7076fcb937b93799376937a887c01821710017b78407b7c207b7a7b74484917287b76087b72504917307b79107b73584917387b7b189551c0fe82103801821530018216280195114001320000330094069511c07b10387b15307b16289515408411e033074033082033007a0628e59afd330750209606839cfd33070150209806799cfd951160ff7b1098007b1590007b1688009515a0008411f08282828308828410828818829a829b08829c1082991864767b19187b1c107b1b087b1a7b18387b14307b132895174095182064197b122050209a0688c0fd821248821340821958821a50821b70821c788217608218687b6b307b6c387b67207b68287b6a107b69187b637b6208955160ff8210980082159000821688009511a000320049489220248414d249922425494b2a252da9944c49494952525242554a52922449922449922449922449922449922449922449929494864488888824212449922449922449922449524a6a92924492244922492a499244925412922449922449922449499224499224499224499224499224499224499224499224554992242b945a85aa21a156a8d2888848124292244992244992244942524812a246202020202020111191244909080202024210101050444444888808221111111111111111111111119108929024499224499224494a9224499224499224499224499224499224499224499224a94a9224310808084844442422224a444022222211115122021211110911111121222212111004042422221211112522221a1191248a8888081111412412894422222222222249922422128944222249048988884444440989888824494a0889888824494a222222111151429354914255494985529a541252922449922449922449922449922449922449922449922449922449922449922455494a29222292442251242991482422224244a4464424499224494992242529118988884424491251424a4992244992a424499224494a9224499224494a9224499224492449248924222201442a1249a82849922489922449922449942449922449a22429499224499294a490524a4992244992244992244992244992244992922449922449a148932822a58a441411115591486444444444444448499a481249922492489224499288442251424992244992a424499224494a49922449922449499224499244128948224924912492244922914492481289289224499224492449492222a21111404421222422a450922649a42425294949921292242949124544444a92a424212549922449922449922449922449922449922449922449922449922449922449522aa5482412111111118a48449224499224499224494992244992244952498992244992249124852aa52449922449922449922449922449922449499224499224254912111125092029249124a450924644448a442249a1288a9224499224499224499224499224499224499224499294842449922449922449922449520a458a88a8288a888888880811914a2249249188484422121111222215894422914492241211111122914824924812492222224224128922892491242222222244442a221211254992244992244992244991888828222292a4884492489228494a922425499292248994449144221445499224499224499224494992244992244992442480002251948824a414a52449922449922449922449922449922449499224499244a22811118944124924918490244992244992244992244989888848241211910801440091288a8848442a9294882449248924922209518a5292244992244992244992244992244992a424499224491211894824121191089148144500111111114924914424288a92244992942449922449922449922449922449a248241211118d88481221448a888888880822222222222222229148241289442291482492042949922449922449922449922449922449922449922449922449922449922449924a29a244229148241289442291484444444444444444444444440429922449121111499224114992244992aca0d42aa8a295a2111191929224499224499224499248922449924449932429922449922449922449922449922449922449929224492222a21594a2111191a492244922919424492491a4924489884492241145342201440091288a48241289442391288a4824221289061089a288442222916844244544124992489248928888442222222288888888888848922449224992449224251111d10a4ad12425a9888824112222224244441089442291482412898888888888248988888844229148241289888824822448922449922449922425499224499224499224499224499224499224499224499254254992aca05491822a9a24912495244992244992244992929492444992244994a449024852499224495292244992242949a21594a21111912449932449841029128944a4888824499224492009922449922449922449499224499224499224499224499224499224499224499224554992242b2855a4a08a464444924a9224492449499224254925892211492249146944244544124992489248924844221111111144248048544422914824128924d188488a882492249124912491884422222222888888884892244992244992944444442b2845932449499224929424292909922449924492244992244992244992244992244992244992244992244992a42449922449922429414992244992244992244992244992244992244992244992049054522249928aaa2449922492244992a42415241594822449922449922449922489122449922449922449922449921240922425492a4992342222498488888810111144229148242222222222222222222222914824222222118844229124489224499224499224254992244992244992244992244992244992244992244992542549924892244992529220922449922449922449922429491289442289481244442429499224499224499215945a055534492225499292a42405554a499224499224499224499224499224499224499224494a8294524a922449922449922449922449922449922449922449520a4a4a92aa242949a2524a499224499224499224499224499224499224499224494a824892244992244992244992a41414291289440a524a2949922449922449922449922449922449922449922449499024499224499224499224499224499224499224499224492928524444a59488884444848848254992248988442422111121225291482492a424499224898888880811918a24229188880811918a24229188880811918a44442449922449922449921411114544242922912492242249924a92a4244952922491922889445054922449922449922449529224499224499224110920804814252209528a5292244992244992244992244992244992a42449922449225194489224451224499224499224499224499200028844519124498a244892244992244992244992a444a2281111892491442225498a880449922449922449922449921449144922221a11912442881411111191222222222222222222222222529224294992a44844444444444444241289442291482412894492202549922449922449922449922449922449922449922449922449922449922449522945944824128944229148241289888888888888888888888888204592244922222249922422499224499215945a0555340920492aa5825234499224254992544d0248924a294992a41594a2111191a4922491442229499248925492a824491211514434220144a214914824128946445244249124892489241111119188888808028844292291482412894422d188488a88249224912491242222221211111141001140244a111111111111118944a2119124151111499224498a4892442449229288242289482222a21594a2111191888868444492081111112122228844229148241289442291484444444444444444444444229148241289442291484444442402499024499224499224494a9224499224499224499224499224499224499224499224a94a92245941a92205553449922480a420494a908292689224252949491225a924495292a48888484a92244989442211111122223522224992244992440a524a294992244992244992244992244992244952922449922429285244445592244992244992242949444414110144142491244841493449aa24492a4592244992244992244992244992244992244992244992244992244992244992244992244992244992244992244992244992244992244992244992244992244992244952922449922449922449aa4a529294222292244992241211218948824824a28888888888881011a98828499224498aa41249922449922449922449922449922449922449922449922449922449922449922449922449922449922449922449922449922449922449922449922449529224499224499254254911115141299a24494a92248994242549922449092aa59424499224499224499224499224499224294992244992a424499234499244089122229224898888484a4a121121222244442a2949922448922449922449922425499224499224499224499224499224499224499224499254254992aca0d4525029a524499224499224499224499224499224494992244992a4a0144d9248495292822aa52449922449922449922449922449922449922449922425412449922449922449922449520a4a4a92aa24499248924a92242949a224491221242549921494524a9224499224499224499224499224499224499224495212449224499224499224499224a5a0a424a94a92240949a4529224499024499224499224494a9224499224499224499224499224499224499224499224a94a92245941a9a5a0524a499224499224499224499224499224499292244992244941291a1111495249922449922449922449494a49a2244992244ad22401248024a548922449d2244929922449929424499224499224498a888856508a4644442222a21111492284489148241229128944a48888244992248944222249042291482409922449922449922449499224499224499224499224499224499224499224499224554992242b28b514a4945292244992244992244992244992244992a4244992244952508a46444492244d92241142a448241291222292244992241111112949929424498a24419224499224499224294992244992244992244992244992244992244992244992a42a49926405a58a1454d1888848524992482212494992448a2495248a44248924514423222922924892449244928888888888888808221240041089a2888888888888888888442391288a48242212894644524424912489248924111111111111111104100144a2282291482412894422d18848928a440091288a88484434229222228924492449248988888888888888202222222222222222229188482412892449922449229148241289449188886805a58a14898888888888888888888844229148241289442291484444444444225144444444241289442291482412894422222222222222222222222222221011111191044992244992244992a4244992244992244992244992244992244992244992244992aa244992a5208aa2284992244992244992244992244992244952922449922429284523222221448a8848922449022949922448922449922449922425499224499224499224499224499224499224499224499254254992aca0d4525029a524499224499224499224499224499224494992244992a4a0144d925492244992942a28459394244922a912a42449922449922449922449922449922449922449922449922449922449922449aa9294d28888244524492429128944511224129124499224499224499224499224459148248924125182484492481249922449922449924492244992244992249124499224499224494a92244992244992124492244992244992244992244592244992242549922449924822494a2291484445a5442901242262444492a888888848940211894445241249914824128944229148241289442291482412499224499224499248241251024992244992244992482412894422914824128944229148241289228924914492244992244924914822894444444444545144b1924844442322924408112122029148249204529224499224499224499224499224499224499224499224499224499224499224a59492244992449220499224492212912449922449922449b202a556812a9a249192a42405aa9492244992244992244992244992244992244992244992940422499224499224499224499252a0a424a94a92248924a924499292244a922411425292244981524a499224499224499224499224499224499224499224494a029124499224499224499224492950529254254992842452294992249024499224499224494a9224499224499224499224499224499224499224499224a94a92245981524b814a2925499224499224499224499224499224494a9224499224054ad1244908494992a4024920499224499224499294244992244992244992244992244992244992244992244952952449b202a58a2850452322224925499244929424492491a49244494422499288228d4800092012a588442291249a44a214914824924423222922924892449244924422128988888820222222224992244992244952121111ad40291a1111898888464424891011111122228248241289444444444444922449442412894444920854a0144d4a522955a0144d922449499224559392544a922469054ad1888848924a9224499224499224494a524a12254992245192260920012429459224499226494a91244992a449925492244952922449121111ad40291a111109114944884804918888888888489224499224092481244992244992244952922449922449922449922449922449922449922449922449559224c902553449492a49929424491249922449925412484a9224499224499224499224499224294a81489224499224499224499224490049154920499224898848222222222211111129499224494a92248d8888a4242949929424494a922425914814119188880811911a119124111121222244442a2242448488a48a442291482412894422914824121111111111111111112289242989242949929424494a9148248a8852122989448a888888880811918a8888881091544444940492244992244992244949922449922449922449922449922449922449922449922455112949928812812449922449922449922409111249244922111111414444244592449224499224c9a240299a24494a9224499494404444449288444422128988482222114900492a511248922449922449922449922429499a24494a9224892449922449521248922449922449922449922449922449514a81489224499224499224499224092080a45494042289482222222222229188888848221149524a24812449922449922449922449228924499224254992a6288a9224499224499224499224499224499224499224499294049224499224499224499224492950a48888aa888888881011a9111189249248241289884422918848241289888848242222221111119144225124128922914814452291281289a48888882809244992244992244992922449922449922449922449922449922449922449922449aa225292241125024992244992244992244912222492489244222222828888488a24892449922449924581523449492a49929424491249922449925412484a9224499224499224499224499224294a8148922449922449922449922449004915492022222222222222222212111111111129499224494a92244d92242549924492244992249504929224499224499224499224499224498a522092244992244992244992244912405245128888888888888848222222222222222225499224494992a411119124494a92409224499224499224499224499224499224499224499224499292244992244992a42a49922449922449922449924a52224992449214a8524a9224499224499224499224499224499294244992244952922411115192009202492409a440493449524a9224495252922449004981242981142889264992922449242549924492a42449922451aa02959624499224499224499224259024499224499224499224494a92464444922449459224a524494a922449928888882022224992248994409224499224499224499224499294244992244949922449929224499224494992244992a42491244992249224499248024845922449522a8192264992244992244992244912259024499224499224499224492a25492222a21111404481889088400a94b402a5684444a42425092529499224294192242522224a9224254992449224499224950492244992244992244992244992244952949240244992244992244992244992041040522a92042222222222222222222222224992244952a48824812449922449922449922449224592244992922449a3288a92944822892492482291482289249248228944228924924822892412499224499224499248920422499224499224499224499252a04811111191025114454992244992244992244992244992244992244992244992a4249024499224492249922449924492244992248924499224494a812245445425924812894444444444448888d4888888888888881011a9111111111111111111111111111111818888880811111111111111111111111141444444444444444444202222222222222222222222221011111111111122223522229148120144444444444444888854444424222222222222924a8148241289442291482412894422914824124992244992248944225112489224499224499224499224a540912222aa222222224244a42222918844124922894444444484884845444444444444440492409224499224499224294992244992244992244992244992244992244992244992a42a4992448110428888888888884824128922151111258124499224499224495292244992244992244992244992244992244992244992244955444a9224a244204992244992244992244942844412499248444444101191249024499224499224494a9224499224499224499224499224499224499224499224a98a48499244940824499224499224499224498890482249128988880822229204922449922449922449499224499224499224499224499224499224499224499224551129499288128124499224499224499224091112492449221111114144c4488a2489244992244992458152342222529224294992942425294992442411914824128944221111492288888822222249929492248922a2942425495220a5949224499224499224499224499224499224499224499294049224499224499224499224492950a48888aa888888881011a91191244912492249249144121111112912894491482445444444492049922449922449929424499224499224499224499224499224499224499224495295a4244922258124499224499224499224091192244992242222228888485292244992244992244b815234499294244992280522222222222212119144444444222212490049254a024992244992244992244992444a92264992922449224992244992940492244992244992244992244992244952949240244992244992244992244992248002484a459240444424111191888824229288484444a2242925924092244992244992244992249144922449929224498ba228498924924822892412892492482289249248249248228924924822912449922449922489244920922449922449922449922429058a14115115111111112222352222924822892449a44024128944229124922449922449148944229148241289442291482409449224499224499224499224a540912222aa12894422222244446a444424912492284912912491248924514a24128988881011a94824128944a288482a8a88529292444444444444440452201289442291482412894422914824128944922449922449229148940422499224499224499224499252a0481111551111111121225211111111492049922449922449929424499224499224499224499224499224499224499224495215912449a24404a2288a92244992244992244992244992244992242549922449220144a2129104a2288a922449922449922449922449922449922425499224499202218410111111111151244544444920499224499224499294244992244992244992244992244992244992244992244952159192248928114892244992244992244992102191449224121111114444445224492449922449928c8800220a4484440452a0a445815234495292922429494a90244544445252924a1211119194442489249124494992a454a4110920898a48241249940229a59224499224499224499224499224499224499224499294049224499224499224499224492950a48888524a89442291482412111111111111111111918888884892445192244992485292242949922489888888888888888888884892242249121111112122222252232292489224a24824121111258124499224499224495292244992244992244992244992244992244992244992244955444a9224a244204992244992244992244942844412499248444444101111499124912449922449b202a516054ad188884822919444929444929444929424494a9148248a8852122989440a44511425499224499224499224499224499224499224499224290924499224499224499224499252a048111155111111112122522322124924914824128988442291484444241289444444444424222222228288882809244992244992244992922449922449922449922449922449922449922449922449aa225292241125024992244992244992244912222492489244222222828888488a2489244992244992458152b424494a92249524494a92248924499224492a092425499224499224499224499224499214a5402449922449922449922449922480a48a241011111111111111118988888888888894244992242549922649929224492249922449924a02499224499224499224499224499224295212882449922449922449922449920002484a459240444444444444444444449224494a222589248924812449922449922449242222129122499224494992a4111191a424154992949424252549a0524a499224499224499224499224499224499292244992244981224d52929224499214915495244992244992244992244992244922aa9224499224499224499224499224519249222222222222a9482412111111494d9224499224499224492222228a88882449924451922429494924128988881011a91111499224494a9224a5484422118944241211118920a924a9445224a9402aa524499224499224499224499224499224494992244992a440914644141545a2aa114924492249224992244992288a8888888888888888486a12898824924822492491241589aa2249224992244914454444444444444444444444444444444444440441108420088210044110822008420011400410111111119144922449922449922449922449922449922449922449922449929424499224499224492492244992244992a46a922449229224499224499224491245111111111111111111111111111111111111110441108220084210044108822008014400114044444444441249922449922449922449922449922449922449922449922449529224499224499224894444444444444424956492244992241289444444d5442212111123928a88884644001105224222222222808802112111811428894644222549494a922449922449124444a288882425499244a4a4241249449224459224259148144992944422512210914492244992244992244992244992a4288128499224499228499224491225499224499228499224499224499224298992244944442409201215912489244aa5404923492489242249229224499208a004922449922449922449922449912449a44824129114492491249148a2449104a2288a922449922449922449922449922449922425499224492211499224a204a22449922449529224499224254992244992284992244992244992242989244912110920121549924412451181221a8924492492248948922449a20492244992244992244992244991241289449244a224924029254992244992244992244992244992a424499244914422221a11114952928888484a129124922449148944a24824124592a4a44029a524499224499224499224499224499224499292244992244912489224499224499224499224a5409122224a2925499244444444444444444444444490244992242222222291888888888888202949922449222222224244a4229124229188888888482a09a424499224499224499224499224499224499224499224499224499224499224494aa944894444444444444422111111111111111111111111111111112449922411119124499224499224495481104288884824128922151111258124499224499224495292244992244992244992244992244992244992244992244955444a9224a244204992244992244992244942844412499248444444101191249024499224499224494a9224499224499224499224499224499224499224499224a98a4849924494082449922449922449922449889048224912898888082222465224492449922449922c0a94a21111919224494992a42449529294a42411494444442412894422914824128944444424114444444992a42449924892244992a4924052922449922449922449922449922449510a449224499224499224499224490248aa48028988888888888888888888888824222225499224494992a44992a42449924892244992a4924052922449922449922449922449922449510a449224499224499224499224490248aa4802111111111111111149444444444444a424499224294992b4945292922449922449922449922449922449922449922449922409449224499224499224499224a54091229148a4404a2925499224499224499224499224499224499224499224499292409224499224499224499224499224499224499224499224a5409122224a294511514a92922489242211111122223522922449224992a42489482422224244a44624229188880811911a918824121111212252111121229148444444249504922449922449922449499224499224499224499224499224499224499224499224554992240a841042444422914824128944918a888892409224499224499224294992244992244992244992244992244992244992244992a42a494992444a024992244992244992244912222449922449444444101191249024499224499224494a9224499224499224499224499224499224499224499224a94a52922491924092244992244992244992840849922449121111118888481248922449922449922425499224499224499224499224499224499224499224499254252949924849204992244992244992244942842449922489888808222226294992244992244992a540299aa424491249258124898824129188244992489248221229a54992a42449924892244992a4924052922449922449922449922449922449510a449224499224499224499224490248aa480211111111111111912411111111111129499224494a92244d9224254992449224499224950492244992244992244992244992244952949240244992244992244992244992041040522a9204222222222222222222898844922429891489249204222249444424499224499224498a24499224254992264992922449224992244992940492244992244992244992244992244952945220922449922449922449922449020820291525818888884822221211918888444424119124a54412489224499224499224499224924892244952922469444424491149124922499212258124499224499224495292244992244992244992244992244992524a9244914812894422910889442211111111a911114992922429499294228944224924128924499488442212894824222222484a924a2449242990522a499224499224499224499224499224495292244992242950a4111145459188884822492411a904509224954a92244992244992484a92248924499224499224892449124922499244922449122322914812492412499224491225909224499224499224499224499224499224499224499224499224499224499224a98a888888888888486a128948228924924412499224491289aa489244121109201215490249922449922449922449922449922449124992244992244992444a922449922449928888888888888888888888888888888820088210044110822008421004410820028800222222222292489224499224499224499224499224499224499224499224499292244992244992a444294a9224499224499224954992248988249224912491244992440924499224499224491249922449922449922449922449922449929224499224499224222222222222222222222222222222220882200441108420088210044110028800228088888888882492244992244992244992244992244992244992244992244992a42449922449922489524a89888888888888482a9324499224492412898888aa262222226244521111d1880820a240444844444404105120222422900225d12449494a92a42429419214111149529248922491241245248124499224499224499224499224499224499224494a2949444444444484884845228988888888442222a9490248009194229244924492244902294992244992244992244992244992244992244992244992244992244992244992504a2989442211111111a94824128944221191d42492524492489248922449202549922449922449922449922449922449922449922449922449922449922449529548241211111141000920925244924892489224492025499224499224499224499224499224499224499224499224499224499224495295482412111111411249290288481289241249229140922449922449922449922449922449922449922449922449122249292522221111111111a98844928888484424121149454444232229224922914412894422118924a944229188442222128148242291482412111111112222952489942449924a12894422411004411004411004411004411004411004411004411004111111111111111111111111111111118924499224499224499224499224499224499224499224499224494a922449922449922412894422118924128944221189241289442211892412894422118948444444444444444444444444444444449224499224499224499224499224499224499224499224499292244992244992a452aa4a922449922449241289888888a42222a2880820a24044484420054aa21111919214918824491249929228498a44a2482412459224259148148944a248a224d548492491441249922422114912494492244488888888888888888888888808444444244924494a4420220144a292244992244992244992244992244992244992244992244992242549922449922449559224490288481148a28a22914814291089249248228924924822914412492491441249249248228924924822894412492491441249a4249024499224499224499224494a8122454454454444448488488d88449224514424222288884044444422492449a2a4248992442290522449922449922425499224499224499224492212400288445192480251144549922449922449922449922449922449929224499244492222221289444422111111114822519444444444441288a2284a9224499224499224499224499224499294244992244a12111111111191482422221281002280481425111111119104a2288a922449922449922449922449922449922425499224492291284a12451451441191408aa2244992244992244992a424499224499224499202914824128944229148241289442291482412894422914824128944a2249024499224499224499224494a8122454454454444444444440411111111112122222222922449495222914844448488482589925451241289148844229148241289442291482412894422914824128944229148241225814892244992244992244992a414285244445114454444444488885444444444444444444452514444441225a9a24824124920254992244992244992244992244992244992244992244992244992244992244952144511111111111111111111111111111111114144229224892222228924492422892449922411254a22511251044208212222222222228a22111145a24422912822224a024992244992244992a4244992244992244992244992244992244992244992244992aa889424924494082449922449922449922449889048224924918888882022224920499224499224499294244992244992244992244992244992244992244992244952159192449288128124499224499224499224091112492489241211111144442409244992244992244992922449922449922449922449922449922449922449922449aa2252924812512290244992244992244992242142228924914422222202111149024992244992244992a4244992244992244992244992244992244992244992244992aa8894249244940824499224499224499224498890482249249188888840444492409224499224499224294992244992244992244992244992244992244992244992a42a22258924112502499224499224499224491222249248124924222222888818499144124992244992248b08948846444492244989884444448888d4888824898808111121225211112222442495244924898808918a4422911411894422111122224244a42222444488482a4992a488882809244992244992244992922449922449922449922449922449922449922449922449aa92942449a4249024499224499224499224214292244992444444042222929424499224499224c952a0144d52922489a4924012111189241291482411494422491229a54992a42449924892244992a4924052922449922449922449922449922449510a449224499224499224499224490248aa48024944444444444444441211111111914849922449529224699224294992449224499224a9249092244992244992244992244992244952540a449224499224499224499224490248aa48128888888888888888481211111111119192244992a42449d288884892924492248924912822092449922449922449922449922449922449922449524a4922222222222244442a124944444444241211494d12400288a414912492249224491248499224499224499224499224499224499224499224499224499224499224499284524a49241289888888484522914824128988a4269194229244228944924812489224495292244992244992244992244992244992244992244992244992244992a44444442422224244a422222289888888888888a406900022294592409224499224499224499224499224499224499224499224495292244992244992244544442422224244a422221212111191888888486a12492912092449922449922449922449922449922449922449922449922425499224499224495244444422222244442a2222412222221211111149454444a3288a124924914412492491482289249248228924124924914412492491442289249248228924924894049224499224499224499224492950a48888aa8888888888881011a9119124494a52a524491249248924121111111122223522224992244992402412894422914824128944229148148944229148241289442291482409449224499224499224499224a540912222aa2222222222224244a4464424499224499224492222222222224244a4222222221289442222a9282212914449aa4892a44404111188888824922449122525499424128194224992244992242949922449922449922449922480041089a2249104524a2949922449922449922449922449922449529224499224894451229240922449922449922449922409200144a2a888249024499224499224499224499248141511092449922449922449922449925220128944229148241289442291482412894422914824128944229148940422499224499224499224499252a048111111112990524a4992244992449224499224892449922449124992244992244a029124499224492249922449924492244992248924499224494a81224544542512111111111141141111914449aa4824124512489224499224499224254992244992244992244992244992244992244992244992542549928812251125892281288aa2244992244992244992244992244992244949922449922402218410111111111111111111114514918822294992a488882809244992244992244992922449922449922449922449922449922449922449922449aa22529248125122902449922449922449922421422289249144222222828888248124499224499224495292244992244992244992244992244992244992244992244955444a1249224a04922449922449922449922444482491249248444444101131922289249224499224494644001105224222022950d2220225a249122949494a921224495292244a12499224222222119140518a92244992244992244992244992244992242549922449920229a594244992244992244992244992244992244992244992a41428d248922449442249120144524a4a29a5242549495252929224499248922449922412494a922449922449244992a42489244992442489482449922449922449244912451445914991249188888888880811919a24494544229148a0945292244992244992244992244992244992a4244992244922894424492211494992244992244912654a1211118d88889424494902294992244992244992244992244992244992244992244992244992244992244992522945229188888888888888244592242991482422224244a45244229224499224499224494a922449922449924a4a942449922489242950a59424499224499224499224499224499224294992244992a424492222a2240124059248124881926892242529492a4892a424498a88889424491411a52429499202292995244992244992244992244992244992244992244992a4249024499224499224499224494a8122454454454444448488488d8824499224499204111151124892244992244992242549922449922449922449922449922449922449922449925425294992484920499224499224499224494284244992244912492022224949922449922449922c054ad1244992545292244992244992922449929424495292009202492409a44049342222529148242222a2482412a5401445512289249248228924124924914412492491442289249224499224492249922449922449922809449224499224499224499224a540912222aa2222222222224244a446449424494a9224254992244992242222222222224244a4222222221289221191541225a92249248a14884422914824128944229148241249922449922449922489442251128824499224499224499224494a812245445445444444848848454444442481244992244992244952922449922449922449922449922449922449922449922449554492449228118114455192244992244992244992244992244992a424499224494402884425220944511425499224499224499224499224499224494a922449922411082184888888888888222922221a1101441488088908a4404934495292241524494992a42449924892244992a4924052922449922449922449922449922449510a449224499224499224499224490248aa48021111111111111149928888888888889424499224254992464424294992249224298944228924499124494924494a81884824499224499224499224499224499112889224499224494992244992284992244992444992244992244992244949942449922422092012154922492451aa40451a49922489489288244992244a20499224499224499224499214092049245224912809a494529224499224499224499224499224499224499224499212259188884644449294244922229248a28812884424499248922449922449922492244992244992248924499224499224499292244992244992a4945244029124124992249224922449922449922449922449244992244912499224499224a54492244992249124499248221225494a491295049092a4929224954812499224804894a2a448a9942425492949922449929494a4244992244924499224494a922449922449924492a4244929499224499224492225499224912489449224499224499288a492181191882491241249124912492449124924504a294992244992244992244992244992244952922449922422914425922492441225909224499224499224499224499224499224499224499224499224499224499224a98a8888888888888840444444249124924892249224494412c51489442222a21111912445249244924429494a92244949922445a2482211288a9224499224499224499292244992244992248948001140248a124524912449124920244992244992244992244952221289442211111141241245111111918a24252249124992242992404a2925499224499224499224499224499224494a9224499224222211894422221281001240248a22121111491249a02449922449922449922429499244a228114911498948228924892412452410455194244992244992244992244992244992242949922449924444441489444424021111494a44443422229248248a442251148944a248249202455194a444124924914412894412492491441249241249249144124924914824914412492491442291241049922449922449922449929402458a8888881488a244124924914412492492482289249248228944a2441249249144124924122592482289244992244a024992244992249224499224492449922449924892244992a4142852444455922449444444448888d4888824910492244992244992244949922449922449922449922449922449922449922449922455499224291111812449922449922449922409111249244922111111414444244592449224499224498a02a5468488084444244992a4242202119100129524499224499224499224494992241049922449922449922449929402914824128944229148241289442291482412894422914824128944a2249024499224499224499224494a81224544542549924444440422914824059224499294244992244992244992244992244992244992244992244992244992244992404a2925499224499224499224499224499224494a9224499224092449922429499224499224499224499224499224499224499224499224499224491249204622912490244992244992244992244992244992244992244992244992a42449922449922429a59424499288888888888888888888888888888888888808922449924444444444222912492489249288444920914892244922499224924892244992244992a492122549922449942449922449a2244992244912254992244992928824499224892422501445499224499224499224499224499224499292244992244902499224499224499224499224499224499224499224499224494a92244992244992aa2449922449121111252222108944229148241289442291482412452291482412894422914824120920121589480291482412894422914824124992248a4422914824128944229148242211499244a204224992244992244992244992229148249144220944455192244992244992244992244992244992a4244992244992409224499224499224294992244992244992244992244992244992244992244992a42a4992444aa4482229894489082449922449922449922449442492489244a2888888880022221289442222222211111111111111111141444424459244922449922489111140448188908888880820a2404448444444041051202224229002252d8a888888a4242949929424494a442422224244a446442449444488880811918a8810112122a99224492291482412898824222242a424494a9148248a44229122222222224244a42222222244241511112581244992244992244952922449922449922449922449922449922449922449922449559292248994049224499224499224499224444892244992888888404444929224499224499224590a94a2494a922491541248922449121111892489882422228994d22449529224492449922449524920294992244992244992244992244992a42805224992244992244992244992240124552481244992241111914444444422222252922449929424499a24494a92248924499224492a092425499224499224499224499224499214a5402449922449922449922449922480a48a241011111111912411111111111111119192244992a42449d22449529224492449922449524920499224499224499224499224499224452909449224499224499224499224490001a454912410111111111111111111111111114912292949240924499224499224499224491215499224494a92248d228a28a24852228924924822892492482289249248228924924822892492482289249248228924924812489224499224499224499224a5409122228aa2285220128944229148241289442291482412894422914824128944229148940422499224499224499224499252a04811111111291045519424499224499224499224499224499224499224499224494a029124499224492249922449924492244992248924499224494a8122454444444444444444448488488d882489a2284a249124128988888888880811911a111111111111112222352289925451922489249244422211111111111111911a11912449922449922449124012291089442291482412894422914824124522914824128944229148241249029124499224499224499224492950a48888aa888888881011a9888888888888888888881011a91111914412492449928888888888881011a988888888148844229148241289442291482412894422914824128944229148241225814892244992244992244992a41428524444554444444444448888d48888482291482422912449128944129144442222222222222244442a222222222222222222a98888888888881011a9888820444444444444442415111111111111222215118944129144924822111111112122521111111111111111118988888888880811918a880842444444444444445211111111111121225211914824114924892412111111112222151111111111111111411411a524521289244a524549222222222222228822222292409224499224499224294992244992244992244992244992244992244992244992a42a4992448a285112519228124892244992244992244992a448221042081111111111118944221145149188222922224a024992244992244992a4244992244992244992244992244992244992244992244992aa8894249244940824499224499224499224498890482249249188888820222249204992244992244992942449922449922449922449922449922449922449922449521591924492881281244992244992244992240911124924892412111111888848124892244992244992242549922449922449922449922449922449922449922449925445a4249124a24420499224499224499224494284441249228944444404111149024992244992244992a4244992244992244992244992244992244992244992244992aa88942492449408244992244992244992244988904822492491888888202262244512492449922449928c8800220a4484440452a0a445044a4423229192a42425499224499224092222514444a424494a9224254992223122222209244992244992244992244992244992244992244992244992242949922449922449aa12492489442211492249448992489424128114459224499224495292244992244992244992242201440091284a441248294549922449922449922449922449922449929224499224914814252209a4945292244992244992244992244992244992a424499224490091284a44124829a5244992244992244992244992244992244949922449928844244992281208499224499224499224499214118944128944220944511425499224499224499224499224499224494a92244992241148922449922449922425499224499224499224499224499224499224499224499254254992141148a28a224955495244443422229224494a9424499224222222101191244992442990522a49922449922449922449922449922449529224499224a924492222a24902480a249124900225d18888488d9424499024499a2449922449922425954014359224c92a4b1211112549929224492249922449924a02494992244992244992244992244992244529104992244992244992244992240920a9220924492222229288888888444422222252922449929424491a1111294992942449024992244992244992a42449922449922449922449922449922449922449922449924a294d4a499292884412894492244912518154201245444492441249922492a48a2011115112489224499224499224254992244992244992244992244992244992244992244992542529499248492049922449922449922449428424499224491249101191a424499224499224499602a5684444a4a42449922449922449922451922449924445454494244992244992244944442411888848522222a21528454b52111191a4922491449294244924492a492492244924456a442445249124499224499224492289249224492249922489a22222922449922422222222222222222202490248a2221289449268442445920092a88824d188488a4812499224499224499244124924499244224992248a8a88482249922411111111111111111111888848922449922449922222a21551a05411452449929224492249922449924a02499224499224499224499224499224294a4920922449922449922449922449020820291549021111111111111111114992a448492489241249024992244992244992244912898a2449922425499246444444444422918888888811514a92429224222291482412894444442210119188888888884824121189442222222288888888888888888888202222222222222222222222222288464424892449924814894422492422224a024992244992244992a4244992244992244992244992244992244992244992244992aa8894244944894092244992244992244992840889249224918888882022229222492249922449926451a0144d5211119124452449248948241245940824499224499224499224499224499224499224499292244992244992244992248024491211910022804814451288448a22499224499224499224912449229148241289449148241289442292400091a24892244992244992249224499224922449128944224924128924492412892491482492242949922449922449922449922449922449922449922449922449922449922449928a228aa2288a4802454444444444444444444444444444440411111111111111490422a22249922449922449922449922449922449922449922449929424254992244912492249554612254992482222a24912494a524992244a1240522089248184144892244992244992244992102252a0a449921229902449922449922449922421842805922449922449922449922442882581524a49922449922449922449922449922449929224499224990225d12425a988882445124992249292a42449524a92944881244992244992244992244992248000225194481248292549922449922449922449922449922449922491282a92045292244992244992244992244992a400028844512209a4945292244992244992244992244992244992a424499224492251942492042aa5942449922449922449922449922449922429499224499248224992942422a21111919214912491249148248a24494a9224a524021109201215499224499224499224499224499224499224499224499224494a92244992244992aa2449124911482a8a4624224992884422514a04221240242a9224499224499224499224499224499224499224499224499294244992244992245549922452a288228a481148a28a2249452925092449922449922449922449922449922449922449922449922429499224499224498aa2289224491289444422222222914824128944222222222222222288484492241189482412491249924492244922092412499224499224499248224992244992244952494949922449929224499224494a9224499224294992244992944424912412499244121181288a5292244992244992244992244992244992a4244992244992404422922489244992244992244992244992244992244992244992244992242549922449922449559224494520892a8a245525491111d1880820a24044484420054aa2494a524992244992244992a42449922449922449922449922449922449922449922449924a294d92244952524920a52669b21428459394a422222229212411492201249294a44a24922449524a92242509244992244992244992922449922449922449922449922449922449922449922449aa924492241189404a2925499224499224499224499224499224494a9224499224010410492911492049922449922449922449922491948a480229a59424499224499224499224499224499224294992244912402495884802a52825499224499224499224499224499224494a922449922405922449922449922449922449450444444404220542444424012492482209204924498d048a922449922449922489244992244992244992244992244992244949922449922449524594245525939224491211118d2449928802094444444a5292929424298124499224494a44440400"
				},
				"methodIdentifiers": {
					"buyService(bytes32)": "a2d39038",
					"ccipCallback(bytes,bytes)": "29514482",
					"checkDelivery(bytes32,uint256,bytes)": "fa777ef6",
					"claimDigest(bytes32,uint256,bytes32)": "928c48fa",
					"claimPayment(bytes32,uint256,bytes32,bytes)": "11e5dd4f",
					"createService(string,uint256,string,address,string)": "a269eeb4",
					"listServices()": "de1c5488",
					"nextPurchaseIds(bytes32)": "e8795282",
					"purchases(bytes32,uint256)": "37e5f34b",
					"raiseDispute(bytes32,uint256)": "98238491",
					"resolveDispute(bytes32,uint256,bool)": "faf0bbbf",
					"serviceIds(uint256)": "69d26933",
					"services(bytes32)": "0a790eb7",
					"stakes(bytes32)": "8fee6407",
					"topUpStake(bytes32)": "eaa3668f",
					"updateService(bytes32,string,string,address)": "4eedd573",
					"withdrawStake(bytes32,uint256)": "19dc5716"
				}
			},
			"hash": "f2d554c988bc0087dadde777a79cd3391ae39037f8ab65e8b06a1946c8ae5392",
			"factoryDependencies": {}
		}
	}
}