{
	"EscroDot.sol": {
		"EscroDotFactory": {
			"abi": [
				{
					"anonymous": false,
					"inputs": [
						{
							"indexed": true,
							"internalType": "bytes32",
							"name": "serviceId",
							"type": "bytes32"
						},
						{
							"indexed": true,
							"internalType": "uint256",
							"name": "purchaseId",
							"type": "uint256"
						},
						{
							"indexed": false,
							"internalType": "bool",
							"name": "refunded",
							"type": "bool"
						},
						{
							"indexed": true,
							"internalType": "address",
							"name": "arbiter",
							"type": "address"
						}
					],
					"name": "DisputeResolved",
					"type": "event"
				},
				{
					"anonymous": false,
					"inputs": [
						{
							"indexed": true,
							"internalType": "bytes32",
							"name": "serviceId",
							"type": "bytes32"
						},
						{
							"indexed": false,
							"internalType": "string",
							"name": "name",
							"type": "string"
						},
						{
							"indexed": false,
							"internalType": "address",
							"name": "escrow",
							"type": "address"
						},
						{
							"indexed": true,
							"internalType": "address",
							"name": "provider",
							"type": "address"
						},
						{
							"indexed": false,
							"internalType": "uint256",
							"name": "stake",
							"type": "uint256"
						}
					],
					"name": "ServiceDeployed",
					"type": "event"
				},
				{
					"anonymous": false,
					"inputs": [
						{
							"indexed": true,
							"internalType": "bytes32",
							"name": "serviceId",
							"type": "bytes32"
						},
						{
							"indexed": false,
							"internalType": "uint256",
							"name": "amount",
							"type": "uint256"
						},
						{
							"indexed": false,
							"internalType": "uint256",
							"name": "newTotal",
							"type": "uint256"
						}
					],
					"name": "StakeToppedUp",
					"type": "event"
				},
				{
					"anonymous": false,
					"inputs": [
						{
							"indexed": true,
							"internalType": "bytes32",
							"name": "serviceId",
							"type": "bytes32"
						},
						{
							"indexed": false,
							"internalType": "uint256",
							"name": "amount",
							"type": "uint256"
						},
						{
							"indexed": false,
							"internalType": "uint256",
							"name": "newTotal",
							"type": "uint256"
						}
					],
					"name": "StakeWithdrawn",
					"type": "event"
				},
				{
					"inputs": [
						{
							"internalType": "string",
							"name": "name",
							"type": "string"
						},
						{
							"internalType": "uint256",
							"name": "price",
							"type": "uint256"
						},
						{
							"internalType": "string",
							"name": "gateway",
							"type": "string"
						},
						{
							"internalType": "address",
							"name": "gatewaySigner",
							"type": "address"
						},
						{
							"internalType": "string",
							"name": "description",
							"type": "string"
						}
					],
					"name": "createService",
					"outputs": [
						{
							"internalType": "address",
							"name": "escrow",
							"type": "address"
						}
					],
					"stateMutability": "payable",
					"type": "function"
				},
				{
					"inputs": [],
					"name": "listServices",
					"outputs": [
						{
							"internalType": "bytes32[]",
							"name": "ids",
							"type": "bytes32[]"
						},
						{
							"internalType": "address[]",
							"name": "escrows",
							"type": "address[]"
						}
					],
					"stateMutability": "view",
					"type": "function"
				},
				{
					"inputs": [
						{
							"internalType": "bytes32",
							"name": "serviceId",
							"type": "bytes32"
						},
						{
							"internalType": "uint256",
							"name": "purchaseId",
							"type": "uint256"
						},
						{
							"internalType": "bool",
							"name": "refundBuyer",
							"type": "bool"
						}
					],
					"name": "resolveDispute",
					"outputs": [],
					"stateMutability": "payable",
					"type": "function"
				},
				{
					"inputs": [
						{
							"internalType": "uint256",
							"name": "",
							"type": "uint256"
						}
					],
					"name": "serviceIds",
					"outputs": [
						{
							"internalType": "bytes32",
							"name": "",
							"type": "bytes32"
						}
					],
					"stateMutability": "view",
					"type": "function"
				},
				{
					"inputs": [
						{
							"internalType": "bytes32",
							"name": "",
							"type": "bytes32"
						}
					],
					"name": "services",
					"outputs": [
						{
							"internalType": "address",
							"name": "",
							"type": "address"
						}
					],
					"stateMutability": "view",
					"type": "function"
				},
				{
					"inputs": [
						{
							"internalType": "bytes32",
							"name": "",
							"type": "bytes32"
						}
					],
					"name": "stakes",
					"outputs": [
						{
							"internalType": "uint256",
							"name": "",
							"type": "uint256"
						}
					],
					"stateMutability": "view",
					"type": "function"
				},
				{
					"inputs": [
						{
							"internalType": "bytes32",
							"name": "serviceId",
							"type": "bytes32"
						}
					],
					"name": "topUpStake",
					"outputs": [],
					"stateMutability": "payable",
					"type": "function"
				},
				{
					"inputs": [
						{
							"internalType": "bytes32",
							"name": "serviceId",
							"type": "bytes32"
						},
						{
							"internalType": "uint256",
							"name": "amount",
							"type": "uint256"
						}
					],
					"name": "withdrawStake",
					"outputs": [],
					"stateMutability": "nonpayable",
					"type": "function"
				},
				{
					"stateMutability": "payable",
					"type": "receive"
				}
			],
			"devdoc": {
				"kind": "dev",
				"methods": {
					"createService(string,uint256,string,address,string)": {
						"params": {
							"description": "IPFS CID or text description. `msg.value` – initial stake (must be ≥ `price`).",
							"gateway": "CCIP‑Read endpoint.",
							"name": "Human‑readable service name (unique).",
							"price": "Fixed price in wei."
						}
					},
					"listServices()": {
						"returns": {
							"escrows": "    Parallel array of escrow contract addresses.",
							"ids": "        Array of all service IDs."
						}
					},
					"resolveDispute(bytes32,uint256,bool)": {
						"params": {
							"purchaseId": "Identifier within the ServiceEscrow contract.",
							"refundBuyer": "If true, refund buyer; otherwise release to provider.",
							"serviceId": "Service identifier."
						}
					}
				},
				"title": "EscroDotFactory",
				"version": 1
			},
			"userdoc": {
				"events": {
					"DisputeResolved(bytes32,uint256,bool,address)": {
						"notice": "Dispute resolved by an arbiter."
					},
					"ServiceDeployed(bytes32,string,address,address,uint256)": {
						"notice": "New service deployed."
					},
					"StakeToppedUp(bytes32,uint256,uint256)": {
						"notice": "Provider topped up their stake."
					},
					"StakeWithdrawn(bytes32,uint256,uint256)": {
						"notice": "Provider withdrew part of their stake."
					}
				},
				"kind": "user",
				"methods": {
					"resolveDispute(bytes32,uint256,bool)": {
						"notice": "Resolve a dispute. Anyone can act as arbiter by bonding ≥ price."
					},
					"serviceIds(uint256)": {
						"notice": "List of all serviceIds (for off‑chain pagination)."
					},
					"services(bytes32)": {
						"notice": "Map: serviceId ⇒ ServiceEscrow contract address."
					},
					"stakes(bytes32)": {
						"notice": "Map: serviceId ⇒ provider's collateral (held by factory)."
					},
					"topUpStake(bytes32)": {
						"notice": "Increase stake for a service. "
					},
					"withdrawStake(bytes32,uint256)": {
						"notice": "Withdraw unused stake (cannot exceed balance held by factory)."
					}
				},
				"notice": "Deploys ServiceEscrow contracts and manages provider stakes & arbitration.",
				"version": 1
			},
			"storageLayout": {
				"storage": [
					{
						"astId": 1058,
						"contract": "EscroDot.sol:EscroDotFactory",
						"label": "services",
						"offset": 0,
						"slot": "0",
						"type": "t_mapping(t_bytes32,t_address)"
					},
					{
						"astId": 1062,
						"contract": "EscroDot.sol:EscroDotFactory",
						"label": "serviceIds",
						"offset": 0,
						"slot": "1",
						"type": "t_array(t_bytes32)dyn_storage"
					},
					{
						"astId": 1067,
						"contract": "EscroDot.sol:EscroDotFactory",
						"label": "stakes",
						"offset": 0,
						"slot": "2",
						"type": "t_mapping(t_bytes32,t_uint256)"
					}
				],
				"types": {
					"t_address": {
						"encoding": "inplace",
						"label": "address",
						"numberOfBytes": "20"
					},
					"t_array(t_bytes32)dyn_storage": {
						"base": "t_bytes32",
						"encoding": "dynamic_array",
						"label": "bytes32[]",
						"numberOfBytes": "32"
					},
					"t_bytes32": {
						"encoding": "inplace",
						"label": "bytes32",
						"numberOfBytes": "32"
					},
					"t_mapping(t_bytes32,t_address)": {
						"encoding": "mapping",
						"key": "t_bytes32",
						"label": "mapping(bytes32 => address)",
						"numberOfBytes": "32",
						"value": "t_address"
					},
					"t_mapping(t_bytes32,t_uint256)": {
						"encoding": "mapping",
						"key": "t_bytes32",
						"label": "mapping(bytes32 => uint256)",
						"numberOfBytes": "32",
						"value": "t_uint256"
					},
					"t_uint256": {
						"encoding": "inplace",
						"label": "uint256",
						"numberOfBytes": "32"
					}
				}
			},
			"evm": {
				"assembly": "// RO data = 0/0 bytes\n// RW data = 128/65680 bytes\n// Stack size = 16384 bytes\n\n// Instructions = 23584\n// Code size = 75031 bytes\n\n      : @0 (gas: 2)\n     0: i32 a2 = a0 >> 0x10\n     3: jump @6 if a2 != 0\n      : @1 (gas: 2)\n     6: a2 = 0x10001\n    11: jump @6 if a1 >=u a2\n      : @2 (gas: 4)\n    14: a1 = a1 + a0\n    17: i32 a1 = a1 + 0x1f\n    20: a1 = a1 & 0xffffffffffffffe0\n    23: jump @7 if a1 >=u 65537\n      : @3 (gas: 2)\n    29: a3 = i32 [0x20080]\n    34: jump @5 if a3 >=u a1\n      : @4 (gas: 4)\n    37: u32 [0x20080] = a1\n    42: a1 = 0x20090\n    47: a0 = a0 + a1\n    50: ret\n      : @5 (gas: 3)\n    52: a1 = 0x20090\n    57: a0 = a0 + a1\n    60: ret\n      : @6 (gas: 1)\n    62: trap\n      : @7 (gas: 1)\n    63: trap\n      : @8 (gas: 13)\n    64: sp = sp + 0xffffffffffffffd8\n    67: u64 [sp + 0x20] = ra\n    70: u64 [sp + 0x18] = s0\n    73: u64 [sp + 0x10] = s1\n    76: a2 = u64 [a1]\n    78: u64 [sp + 0x8] = a2\n    81: a2 = u64 [a1 + 0x8]\n    84: u64 [sp] = a2\n    86: s0 = u64 [a1 + 0x10]\n    89: s1 = u64 [a1 + 0x18]\n    92: i32 a0 = a0 + 0\n    94: a1 = 0x20\n    97: ra = 2, jump @0\n      : @9 [@dyn 1] (gas: 71)\n   101: a1 = reverse s1\n   103: a2 = reverse s0\n   105: a3 = u64 [sp]\n   107: a3 = reverse a3\n   109: a4 = u64 [sp + 0x8]\n   112: a4 = reverse a4\n   114: u8 [a0 + 0x18] = a4\n   117: u8 [a0 + 0x10] = a3\n   120: u8 [a0 + 0x8] = a2\n   123: u8 [a0] = a1\n   125: a5 = a4 >> 0x38\n   128: u8 [a0 + 0x1f] = a5\n   131: a5 = a4 >> 0x30\n   134: u8 [a0 + 0x1e] = a5\n   137: a5 = a4 >> 0x28\n   140: u8 [a0 + 0x1d] = a5\n   143: a5 = a4 >> 0x20\n   146: u8 [a0 + 0x1c] = a5\n   149: a5 = a4 >> 0x18\n   152: u8 [a0 + 0x1b] = a5\n   155: a5 = a4 >> 0x10\n   158: u8 [a0 + 0x1a] = a5\n   161: a4 = a4 >> 0x8\n   164: u8 [a0 + 0x19] = a4\n   167: a4 = a3 >> 0x38\n   170: u8 [a0 + 0x17] = a4\n   173: a4 = a3 >> 0x30\n   176: u8 [a0 + 0x16] = a4\n   179: a4 = a3 >> 0x28\n   182: u8 [a0 + 0x15] = a4\n   185: a4 = a3 >> 0x20\n   188: u8 [a0 + 0x14] = a4\n   191: a4 = a3 >> 0x18\n   194: u8 [a0 + 0x13] = a4\n   197: a4 = a3 >> 0x10\n   200: u8 [a0 + 0x12] = a4\n   203: a3 = a3 >> 0x8\n   206: u8 [a0 + 0x11] = a3\n   209: a3 = a2 >> 0x38\n   212: u8 [a0 + 0xf] = a3\n   215: a3 = a2 >> 0x30\n   218: u8 [a0 + 0xe] = a3\n   221: a3 = a2 >> 0x28\n   224: u8 [a0 + 0xd] = a3\n   227: a3 = a2 >> 0x20\n   230: u8 [a0 + 0xc] = a3\n   233: a3 = a2 >> 0x18\n   236: u8 [a0 + 0xb] = a3\n   239: a3 = a2 >> 0x10\n   242: u8 [a0 + 0xa] = a3\n   245: a2 = a2 >> 0x8\n   248: u8 [a0 + 0x9] = a2\n   251: a2 = a1 >> 0x38\n   254: u8 [a0 + 0x7] = a2\n   257: a2 = a1 >> 0x30\n   260: u8 [a0 + 0x6] = a2\n   263: a2 = a1 >> 0x28\n   266: u8 [a0 + 0x5] = a2\n   269: a2 = a1 >> 0x20\n   272: u8 [a0 + 0x4] = a2\n   275: a2 = a1 >> 0x18\n   278: u8 [a0 + 0x3] = a2\n   281: a2 = a1 >> 0x10\n   284: u8 [a0 + 0x2] = a2\n   287: a1 = a1 >> 0x8\n   290: u8 [a0 + 0x1] = a1\n   293: ra = u64 [sp + 0x20]\n   296: s0 = u64 [sp + 0x18]\n   299: s1 = u64 [sp + 0x10]\n   302: sp = sp + 0x28\n   305: ret\n      : @10 (gas: 6)\n   307: sp = sp + 0xfffffffffffffff0\n   310: u64 [sp + 0x8] = ra\n   313: u64 [sp] = s0\n   315: s0 = a0 & 0x1\n   318: ecalli 4 // 'call_data_size'\n   320: fallthrough\n      : @11 (gas: 2)\n   321: u32 [0x20084] = a0\n   326: jump @13 if s0 == 0\n      : @12 (gas: 1)\n   329: ra = 4, jump @14\n      : @13 [@dyn 2] (gas: 1)\n   333: ra = 6, jump @28\n      : @14 [@dyn 3] (gas: 9)\n   338: sp = sp + 0xffffffffffffffc0\n   341: u64 [sp + 0x38] = ra\n   344: u64 [sp + 0x30] = s0\n   347: u64 [sp + 0x28] = s1\n   350: s0 = sp + 0x40\n   353: sp = sp & 0xffffffffffffffe0\n   356: a0 = 0x40\n   359: a1 = 0x20\n   362: ra = 8, jump @0\n      : @15 [@dyn 4] (gas: 39)\n   367: u8 [a0 + 31] = 0x80\n   372: u8 [a0 + 30] = 0\n   375: u8 [a0 + 29] = 0\n   378: u8 [a0 + 28] = 0\n   381: u8 [a0 + 27] = 0\n   384: u8 [a0 + 26] = 0\n   387: u8 [a0 + 25] = 0\n   390: u8 [a0 + 24] = 0\n   393: u8 [a0 + 23] = 0\n   396: u8 [a0 + 22] = 0\n   399: u8 [a0 + 21] = 0\n   402: u8 [a0 + 20] = 0\n   405: u8 [a0 + 19] = 0\n   408: u8 [a0 + 18] = 0\n   411: u8 [a0 + 17] = 0\n   414: u8 [a0 + 16] = 0\n   417: u8 [a0 + 15] = 0\n   420: u8 [a0 + 14] = 0\n   423: u8 [a0 + 13] = 0\n   426: u8 [a0 + 12] = 0\n   429: u8 [a0 + 11] = 0\n   432: u8 [a0 + 10] = 0\n   435: u8 [a0 + 9] = 0\n   438: u8 [a0 + 8] = 0\n   441: u8 [a0 + 7] = 0\n   444: u8 [a0 + 6] = 0\n   447: u8 [a0 + 5] = 0\n   450: u8 [a0 + 4] = 0\n   453: u8 [a0 + 3] = 0\n   456: u8 [a0 + 2] = 0\n   459: u8 [a0 + 1] = 0\n   462: u8 [a0 + 0] = 0\n   464: u64 [sp + 24] = 0\n   467: u64 [sp + 0] = 0\n   469: u64 [sp + 8] = 0\n   472: u64 [sp + 16] = 0\n   475: i32 a0 = sp + 0\n   477: ecalli 17 // 'value_transferred'\n   479: fallthrough\n      : @16 (gas: 8)\n   480: a0 = u64 [sp + 0x10]\n   483: a1 = u64 [sp + 0x18]\n   486: a2 = u64 [sp + 0x8]\n   489: a3 = u64 [sp]\n   491: a1 = a1 | a2\n   494: a0 = a0 | a3\n   497: a0 = a0 | a1\n   500: jump @20 if a0 != 0\n      : @17 (gas: 3)\n   504: a0 = 0x40\n   507: a1 = 0x20\n   510: ra = 10, jump @0\n      : @18 [@dyn 5] (gas: 100)\n   515: a1 = u8 [a0 + 0x11]\n   518: a2 = u8 [a0 + 0x10]\n   521: a3 = u8 [a0 + 0x12]\n   524: a4 = u8 [a0 + 0x13]\n   527: a1 = a1 << 0x8\n   530: a1 = a1 | a2\n   533: a3 = a3 << 0x10\n   536: a4 = a4 << 0x18\n   539: a3 = a3 | a4\n   542: a1 = a1 | a3\n   545: a2 = u8 [a0 + 0x15]\n   548: a3 = u8 [a0 + 0x14]\n   551: a4 = u8 [a0 + 0x16]\n   554: a5 = u8 [a0 + 0x17]\n   557: a2 = a2 << 0x8\n   560: a2 = a2 | a3\n   563: a4 = a4 << 0x10\n   566: a5 = a5 << 0x18\n   569: a4 = a4 | a5\n   572: a2 = a2 | a4\n   575: a2 = a2 << 0x20\n   578: t0 = a2 | a1\n   581: a2 = u8 [a0 + 0x1]\n   584: a3 = u8 [a0]\n   586: a4 = u8 [a0 + 0x2]\n   589: a5 = u8 [a0 + 0x3]\n   592: a2 = a2 << 0x8\n   595: a2 = a2 | a3\n   598: a4 = a4 << 0x10\n   601: a5 = a5 << 0x18\n   604: a4 = a4 | a5\n   607: a2 = a2 | a4\n   610: a3 = u8 [a0 + 0x5]\n   613: a4 = u8 [a0 + 0x4]\n   616: a5 = u8 [a0 + 0x6]\n   619: s1 = u8 [a0 + 0x7]\n   622: a3 = a3 << 0x8\n   625: a3 = a3 | a4\n   628: a5 = a5 << 0x10\n   631: s1 = s1 << 0x18\n   634: a5 = a5 | s1\n   637: a3 = a3 | a5\n   640: a3 = a3 << 0x20\n   643: a2 = a2 | a3\n   646: a3 = u8 [a0 + 0x19]\n   649: a4 = u8 [a0 + 0x18]\n   652: a5 = u8 [a0 + 0x1a]\n   655: s1 = u8 [a0 + 0x1b]\n   658: a3 = a3 << 0x8\n   661: a3 = a3 | a4\n   664: a5 = a5 << 0x10\n   667: s1 = s1 << 0x18\n   670: a5 = a5 | s1\n   673: a3 = a3 | a5\n   676: a4 = u8 [a0 + 0x1d]\n   679: a5 = u8 [a0 + 0x1c]\n   682: s1 = u8 [a0 + 0x1e]\n   685: a1 = u8 [a0 + 0x1f]\n   688: a4 = a4 << 0x8\n   691: a4 = a4 | a5\n   694: s1 = s1 << 0x10\n   697: a1 = a1 << 0x18\n   700: a1 = a1 | s1\n   703: a1 = a1 | a4\n   706: a1 = a1 << 0x20\n   709: a3 = a3 | a1\n   712: a1 = u8 [a0 + 0x9]\n   715: a4 = u8 [a0 + 0x8]\n   718: a5 = u8 [a0 + 0xa]\n   721: s1 = u8 [a0 + 0xb]\n   724: a1 = a1 << 0x8\n   727: a1 = a1 | a4\n   730: a5 = a5 << 0x10\n   733: s1 = s1 << 0x18\n   736: a5 = a5 | s1\n   739: a1 = a1 | a5\n   742: a4 = u8 [a0 + 0xd]\n   745: a5 = u8 [a0 + 0xc]\n   748: s1 = u8 [a0 + 0xe]\n   751: a0 = u8 [a0 + 0xf]\n   754: a4 = a4 << 0x8\n   757: a4 = a4 | a5\n   760: s1 = s1 << 0x10\n   763: a0 = a0 << 0x18\n   766: a0 = a0 | s1\n   769: a0 = a0 | a4\n   772: a0 = a0 << 0x20\n   775: a0 = a0 | a1\n   778: a0 = reverse a0\n   780: s1 = reverse a3\n   782: a1 = reverse a2\n   784: a2 = reverse t0\n   786: a1 = a1 | a2\n   789: a2 = s1 | a0\n   792: a2 = a2 | a1\n   795: a2 = a2 >> 0x20\n   798: a0 = a0 | a1\n   801: a0 = a0 << 0x20\n   804: a0 = a0 | a2\n   807: jump @22 if a0 == 0\n      : @19 (gas: 1)\n   810: trap\n      : @20 (gas: 3)\n   811: a0 = 0\n   813: a1 = 0\n   815: ra = 12, jump @0\n      : @21 [@dyn 6] (gas: 5)\n   820: i32 a1 = a0 + 0\n   822: a0 = 0x1\n   825: a2 = 0\n   827: ecalli 14 // 'seal_return'\n   829: fallthrough\n      : @22 (gas: 4)\n   830: i32 s1 = s1 + 0\n   832: a0 = s1\n   834: a1 = 0\n   836: ra = 14, jump @0\n      : @23 [@dyn 7] (gas: 5)\n   841: i32 a0 = a0 + 0\n   843: a1 = 0\n   845: a2 = 0\n   847: ecalli 2 // 'call_data_copy'\n   849: fallthrough\n      : @24 (gas: 2)\n   850: a1 = i32 [0x20088]\n   855: jump @26 if a1 == 0\n      : @25 (gas: 4)\n   858: a0 = 0x30090\n   863: i32 a0 = a0 + 0\n   865: ecalli 15 // 'set_immutable_data'\n   867: fallthrough\n      : @26 (gas: 3)\n   868: a0 = s1\n   870: a1 = 0\n   872: ra = 16, jump @0\n      : @27 [@dyn 8] (gas: 6)\n   877: i32 a1 = a0 + 0\n   879: a0 = 0\n   881: a2 = 0\n   883: ra = 0x12\n   886: ecalli 14 // 'seal_return'\n   888: fallthrough\n      : @28 [@dyn 9] (gas: 9)\n   889: sp = sp + 0xfffffffffffffea0\n   893: u64 [sp + 0x158] = ra\n   897: u64 [sp + 0x150] = s0\n   901: u64 [sp + 0x148] = s1\n   905: s0 = sp + 0x160\n   909: sp = sp & 0xffffffffffffffe0\n   912: a0 = 0x40\n   915: a1 = 0x20\n   918: ra = 20, jump @0\n      : @29 [@dyn 10] (gas: 35)\n   923: u8 [a0 + 31] = 0x80\n   928: u8 [a0 + 30] = 0\n   931: u8 [a0 + 29] = 0\n   934: u8 [a0 + 28] = 0\n   937: u8 [a0 + 27] = 0\n   940: u8 [a0 + 26] = 0\n   943: u8 [a0 + 25] = 0\n   946: u8 [a0 + 24] = 0\n   949: u8 [a0 + 23] = 0\n   952: u8 [a0 + 22] = 0\n   955: u8 [a0 + 21] = 0\n   958: u8 [a0 + 20] = 0\n   961: u8 [a0 + 19] = 0\n   964: u8 [a0 + 18] = 0\n   967: u8 [a0 + 17] = 0\n   970: u8 [a0 + 16] = 0\n   973: u8 [a0 + 15] = 0\n   976: u8 [a0 + 14] = 0\n   979: u8 [a0 + 13] = 0\n   982: u8 [a0 + 12] = 0\n   985: u8 [a0 + 11] = 0\n   988: u8 [a0 + 10] = 0\n   991: u8 [a0 + 9] = 0\n   994: u8 [a0 + 8] = 0\n   997: u8 [a0 + 7] = 0\n  1000: u8 [a0 + 3] = 0\n  1003: s1 = 0x20084\n  1008: u8 [a0 + 2] = 0\n  1011: u8 [a0 + 1] = 0\n  1014: u8 [a0 + 0] = 0\n  1016: a1 = i32 [0x20084]\n  1021: u8 [a0 + 6] = 0\n  1024: u8 [a0 + 5] = 0\n  1027: u8 [a0 + 4] = 0\n  1030: jump @55 if a1 <u 4\n      : @30 (gas: 4)\n  1035: i32 a0 = sp + 0x120\n  1039: a1 = 0\n  1041: ecalli 3 // 'call_data_load'\n  1043: fallthrough\n      : @31 (gas: 2)\n  1044: a0 = i32 [sp + 0x13c]\n  1048: jump @36 if a0 >s 4210080702\n      : @32 (gas: 2)\n  1055: a1 = 0xffffffffde1c5000\n  1061: jump @40 if a0 >s 3726398599\n      : @33 (gas: 1)\n  1069: jump @46 if a0 == 2414765063\n      : @34 (gas: 1)\n  1077: jump @54 if a0 != 2724851380\n      : @35 (gas: 21)\n  1085: ra = 0x16\n  1088: sp = sp + 0xfffffffffffffcb0\n  1092: u64 [sp + 0x348] = ra\n  1096: u64 [sp + 0x340] = s0\n  1100: u64 [sp + 0x338] = s1\n  1104: s0 = sp + 0x350\n  1108: sp = sp & 0xfffffffffffffff0\n  1111: a0 = u32 [0x20084]\n  1116: u64 [sp + 520] = 0\n  1120: u64 [sp + 512] = 0\n  1124: u64 [sp + 504] = 0\n  1128: u64 [sp + 0x1f0] = a0\n  1132: u64 [sp + 552] = 0\n  1136: u64 [sp + 544] = 0\n  1140: u64 [sp + 528] = 0x4\n  1145: a0 = sp + 0x230\n  1149: a1 = sp + 0x210\n  1153: a2 = sp + 0x1f0\n  1157: u64 [sp + 536] = 0\n  1161: ra = 0x9a\n  1165: jump @155\n      : @36 [@dyn 11] (gas: 2)\n  1168: a1 = 0x19dc5000\n  1174: jump @43 if a0 >s 433870613\n      : @37 (gas: 1)\n  1181: jump @47 if a0 == 4210080703\n      : @38 (gas: 1)\n  1189: jump @54 if a0 != 175705783\n      : @39 (gas: 14)\n  1197: ra = 0x18\n  1200: sp = sp + 0xffffffffffffff60\n  1204: u64 [sp + 0x98] = ra\n  1208: u64 [sp + 0x90] = s0\n  1212: u64 [sp + 0x88] = s1\n  1216: s0 = sp + 0xa0\n  1220: sp = sp & 0xffffffffffffffe0\n  1223: u64 [sp + 56] = 0\n  1226: u64 [sp + 48] = 0\n  1229: u64 [sp + 40] = 0\n  1232: u64 [sp + 32] = 0\n  1235: i32 a0 = sp + 0x20\n  1238: ecalli 17 // 'value_transferred'\n  1240: jump @62\n      : @40 [@dyn 12] (gas: 2)\n  1243: i32 a1 = a1 + 0x488\n  1247: jump @52 if a0 == a1\n      : @41 (gas: 1)\n  1251: jump @54 if a0 != 3936577167\n      : @42 (gas: 1)\n  1259: ra = 26, jump @242\n      : @43 [@dyn 13] (gas: 2)\n  1264: i32 a1 = a1 + 0x716\n  1268: jump @53 if a0 == a1\n      : @44 (gas: 1)\n  1272: jump @54 if a0 != 1775397171\n      : @45 (gas: 14)\n  1280: ra = 0x1c\n  1283: sp = sp + 0xffffffffffffff40\n  1287: u64 [sp + 0xb8] = ra\n  1291: u64 [sp + 0xb0] = s0\n  1295: u64 [sp + 0xa8] = s1\n  1299: s0 = sp + 0xc0\n  1303: sp = sp & 0xffffffffffffffe0\n  1306: u64 [sp + 120] = 0\n  1309: u64 [sp + 112] = 0\n  1312: u64 [sp + 104] = 0\n  1315: u64 [sp + 96] = 0\n  1318: i32 a0 = sp + 0x60\n  1321: ecalli 17 // 'value_transferred'\n  1323: jump @110\n      : @46 [@dyn 14] (gas: 14)\n  1326: ra = 0x1e\n  1329: sp = sp + 0xffffffffffffff60\n  1333: u64 [sp + 0x98] = ra\n  1337: u64 [sp + 0x90] = s0\n  1341: u64 [sp + 0x88] = s1\n  1345: s0 = sp + 0xa0\n  1349: sp = sp & 0xffffffffffffffe0\n  1352: u64 [sp + 56] = 0\n  1355: u64 [sp + 48] = 0\n  1358: u64 [sp + 40] = 0\n  1361: u64 [sp + 32] = 0\n  1364: i32 a0 = sp + 0x20\n  1367: ecalli 17 // 'value_transferred'\n  1369: jump @122\n      : @47 [@dyn 15] (gas: 13)\n  1372: a0 = u32 [s1]\n  1374: u64 [sp + 152] = 0\n  1378: u64 [sp + 144] = 0\n  1382: u64 [sp + 136] = 0\n  1386: u64 [sp + 0x80] = a0\n  1390: u64 [sp + 184] = 0\n  1394: u64 [sp + 176] = 0\n  1398: u64 [sp + 160] = 0x4\n  1403: a0 = sp + 0xc0\n  1407: a1 = sp + 0xa0\n  1411: a2 = sp + 0x80\n  1415: u64 [sp + 168] = 0\n  1419: ra = 32, jump @252\n      : @48 [@dyn 16] (gas: 30)\n  1424: a0 = u64 [sp + 0xc0]\n  1428: u64 [sp + 0x18] = a0\n  1431: t1 = u64 [sp + 0xc8]\n  1435: t2 = u64 [sp + 0xd0]\n  1439: ra = u64 [sp + 0xd8]\n  1443: t0 = u64 [sp + 0xe0]\n  1447: a5 = u64 [sp + 0xe8]\n  1451: s1 = u64 [sp + 0xf0]\n  1455: a4 = u64 [sp + 0xf8]\n  1459: a3 = u64 [sp + 0x100]\n  1463: a1 = u64 [sp + 0x108]\n  1467: a2 = u64 [sp + 0x110]\n  1471: a0 = u64 [sp + 0x118]\n  1475: u64 [sp + 0x38] = a0\n  1478: u64 [sp + 0x30] = a2\n  1481: u64 [sp + 0x28] = a1\n  1484: u64 [sp + 0x20] = a3\n  1487: u64 [sp + 0x58] = a4\n  1490: u64 [sp + 0x50] = s1\n  1493: u64 [sp + 0x48] = a5\n  1496: u64 [sp + 0x40] = t0\n  1499: u64 [sp + 0x78] = ra\n  1502: u64 [sp + 0x70] = t2\n  1505: u64 [sp + 0x68] = t1\n  1508: a0 = sp + 0x60\n  1511: a1 = sp + 0x40\n  1514: a2 = sp + 0x20\n  1517: a3 = u64 [sp + 0x18]\n  1520: u64 [sp + 0x60] = a3\n  1523: ra = 34, jump @774\n      : @49 [@dyn 17] (gas: 3)\n  1529: a0 = 0x40\n  1532: a1 = 0x20\n  1535: ra = 36, jump @0\n      : @50 [@dyn 18] (gas: 100)\n  1540: a1 = u8 [a0 + 0x11]\n  1543: a2 = u8 [a0 + 0x10]\n  1546: a3 = u8 [a0 + 0x12]\n  1549: a4 = u8 [a0 + 0x13]\n  1552: a1 = a1 << 0x8\n  1555: a1 = a1 | a2\n  1558: a3 = a3 << 0x10\n  1561: a4 = a4 << 0x18\n  1564: a3 = a3 | a4\n  1567: a1 = a1 | a3\n  1570: a2 = u8 [a0 + 0x15]\n  1573: a3 = u8 [a0 + 0x14]\n  1576: a4 = u8 [a0 + 0x16]\n  1579: a5 = u8 [a0 + 0x17]\n  1582: a2 = a2 << 0x8\n  1585: a2 = a2 | a3\n  1588: a4 = a4 << 0x10\n  1591: a5 = a5 << 0x18\n  1594: a4 = a4 | a5\n  1597: a2 = a2 | a4\n  1600: a2 = a2 << 0x20\n  1603: t0 = a2 | a1\n  1606: a2 = u8 [a0 + 0x1]\n  1609: a3 = u8 [a0]\n  1611: a4 = u8 [a0 + 0x2]\n  1614: a5 = u8 [a0 + 0x3]\n  1617: a2 = a2 << 0x8\n  1620: a2 = a2 | a3\n  1623: a4 = a4 << 0x10\n  1626: a5 = a5 << 0x18\n  1629: a4 = a4 | a5\n  1632: a2 = a2 | a4\n  1635: a3 = u8 [a0 + 0x5]\n  1638: a4 = u8 [a0 + 0x4]\n  1641: a5 = u8 [a0 + 0x6]\n  1644: s1 = u8 [a0 + 0x7]\n  1647: a3 = a3 << 0x8\n  1650: a3 = a3 | a4\n  1653: a5 = a5 << 0x10\n  1656: s1 = s1 << 0x18\n  1659: a5 = a5 | s1\n  1662: a3 = a3 | a5\n  1665: a3 = a3 << 0x20\n  1668: a2 = a2 | a3\n  1671: a3 = u8 [a0 + 0x19]\n  1674: a4 = u8 [a0 + 0x18]\n  1677: a5 = u8 [a0 + 0x1a]\n  1680: s1 = u8 [a0 + 0x1b]\n  1683: a3 = a3 << 0x8\n  1686: a3 = a3 | a4\n  1689: a5 = a5 << 0x10\n  1692: s1 = s1 << 0x18\n  1695: a5 = a5 | s1\n  1698: a3 = a3 | a5\n  1701: a4 = u8 [a0 + 0x1d]\n  1704: a5 = u8 [a0 + 0x1c]\n  1707: s1 = u8 [a0 + 0x1e]\n  1710: a1 = u8 [a0 + 0x1f]\n  1713: a4 = a4 << 0x8\n  1716: a4 = a4 | a5\n  1719: s1 = s1 << 0x10\n  1722: a1 = a1 << 0x18\n  1725: a1 = a1 | s1\n  1728: a1 = a1 | a4\n  1731: a1 = a1 << 0x20\n  1734: a3 = a3 | a1\n  1737: a1 = u8 [a0 + 0x9]\n  1740: a4 = u8 [a0 + 0x8]\n  1743: a5 = u8 [a0 + 0xa]\n  1746: s1 = u8 [a0 + 0xb]\n  1749: a1 = a1 << 0x8\n  1752: a1 = a1 | a4\n  1755: a5 = a5 << 0x10\n  1758: s1 = s1 << 0x18\n  1761: a5 = a5 | s1\n  1764: a1 = a1 | a5\n  1767: a4 = u8 [a0 + 0xd]\n  1770: a5 = u8 [a0 + 0xc]\n  1773: s1 = u8 [a0 + 0xe]\n  1776: a0 = u8 [a0 + 0xf]\n  1779: a4 = a4 << 0x8\n  1782: a4 = a4 | a5\n  1785: s1 = s1 << 0x10\n  1788: a0 = a0 << 0x18\n  1791: a0 = a0 | s1\n  1794: a0 = a0 | a4\n  1797: a0 = a0 << 0x20\n  1800: a0 = a0 | a1\n  1803: a1 = reverse a0\n  1805: a0 = reverse a3\n  1807: a2 = reverse a2\n  1809: a3 = reverse t0\n  1811: a2 = a2 | a3\n  1814: a3 = a0 | a1\n  1817: a3 = a3 | a2\n  1820: a3 = a3 >> 0x20\n  1823: a1 = a1 | a2\n  1826: a1 = a1 << 0x20\n  1829: a1 = a1 | a3\n  1832: jump @58 if a1 == 0\n      : @51 (gas: 1)\n  1836: trap\n      : @52 (gas: 14)\n  1837: ra = 0x26\n  1840: sp = sp + 0xfffffffffffffea0\n  1844: u64 [sp + 0x158] = ra\n  1848: u64 [sp + 0x150] = s0\n  1852: u64 [sp + 0x148] = s1\n  1856: s0 = sp + 0x160\n  1860: sp = sp & 0xffffffffffffffe0\n  1863: u64 [sp + 312] = 0\n  1867: u64 [sp + 304] = 0\n  1871: u64 [sp + 296] = 0\n  1875: u64 [sp + 288] = 0\n  1879: i32 a0 = sp + 0x120\n  1883: ecalli 17 // 'value_transferred'\n  1885: jump @230\n      : @53 [@dyn 19] (gas: 14)\n  1888: ra = 0x28\n  1891: sp = sp + 0xffffffffffffff40\n  1895: u64 [sp + 0xb8] = ra\n  1899: u64 [sp + 0xb0] = s0\n  1903: u64 [sp + 0xa8] = s1\n  1907: s0 = sp + 0xc0\n  1911: sp = sp & 0xffffffffffffffe0\n  1914: u64 [sp + 120] = 0\n  1917: u64 [sp + 112] = 0\n  1920: u64 [sp + 104] = 0\n  1923: u64 [sp + 96] = 0\n  1926: i32 a0 = sp + 0x60\n  1929: ecalli 17 // 'value_transferred'\n  1931: jump @76\n      : @54 [@dyn 20] (gas: 2)\n  1934: a1 = i32 [s1]\n  1936: fallthrough\n      : @55 (gas: 1)\n  1937: jump @57 if a1 != 0\n      : @56 (gas: 9)\n  1940: ra = 0x2a\n  1943: sp = sp + 0xffffffffffffffc8\n  1946: u64 [sp + 0x30] = ra\n  1949: u64 [sp + 0x28] = s0\n  1952: u64 [sp + 0x20] = s1\n  1955: a0 = 0x40\n  1958: a1 = 0x20\n  1961: ra = 0x346\n  1965: jump @0\n      : @57 [@dyn 21] (gas: 7)\n  1968: ra = 0x2c\n  1971: sp = sp + 0xfffffffffffffff8\n  1974: u64 [sp] = ra\n  1976: a0 = 0\n  1978: a1 = 0\n  1980: ra = 0xee\n  1984: jump @0\n      : @58 [@dyn 22] (gas: 2)\n  1987: i32 a0 = a0 + 0\n  1989: ra = 46, jump @0\n      : @59 [@dyn 23] (gas: 6)\n  1994: i32 a1 = a0 + 0\n  1996: a0 = 0\n  1998: a2 = 0\n  2000: ra = 0x30\n  2003: ecalli 14 // 'seal_return'\n  2005: fallthrough\n      : @60 [@dyn 24] (gas: 7)\n  2006: sp = sp + 0xfffffffffffffff0\n  2009: u64 [sp + 0x8] = ra\n  2012: u64 [sp] = s0\n  2014: s0 = a0\n  2016: a0 = 0x40\n  2019: a1 = 0x20\n  2022: ra = 50, jump @0\n      : @61 [@dyn 25] (gas: 100)\n  2027: a1 = u8 [a0 + 0x1]\n  2030: a2 = u8 [a0]\n  2032: a3 = u8 [a0 + 0x2]\n  2035: a4 = u8 [a0 + 0x3]\n  2038: a1 = a1 << 0x8\n  2041: a1 = a1 | a2\n  2044: a3 = a3 << 0x10\n  2047: a4 = a4 << 0x18\n  2050: a3 = a3 | a4\n  2053: a1 = a1 | a3\n  2056: a2 = u8 [a0 + 0x5]\n  2059: a3 = u8 [a0 + 0x4]\n  2062: a4 = u8 [a0 + 0x6]\n  2065: a5 = u8 [a0 + 0x7]\n  2068: a2 = a2 << 0x8\n  2071: a2 = a2 | a3\n  2074: a4 = a4 << 0x10\n  2077: a5 = a5 << 0x18\n  2080: a4 = a4 | a5\n  2083: a2 = a2 | a4\n  2086: a2 = a2 << 0x20\n  2089: t0 = a2 | a1\n  2092: a2 = u8 [a0 + 0x9]\n  2095: a3 = u8 [a0 + 0x8]\n  2098: a4 = u8 [a0 + 0xa]\n  2101: a5 = u8 [a0 + 0xb]\n  2104: a2 = a2 << 0x8\n  2107: a2 = a2 | a3\n  2110: a4 = a4 << 0x10\n  2113: a5 = a5 << 0x18\n  2116: a4 = a4 | a5\n  2119: a2 = a2 | a4\n  2122: a3 = u8 [a0 + 0xd]\n  2125: a4 = u8 [a0 + 0xc]\n  2128: a5 = u8 [a0 + 0xe]\n  2131: a1 = u8 [a0 + 0xf]\n  2134: a3 = a3 << 0x8\n  2137: a3 = a3 | a4\n  2140: a5 = a5 << 0x10\n  2143: a1 = a1 << 0x18\n  2146: a1 = a1 | a5\n  2149: a1 = a1 | a3\n  2152: a1 = a1 << 0x20\n  2155: t1 = a1 | a2\n  2158: a1 = u8 [a0 + 0x11]\n  2161: a3 = u8 [a0 + 0x10]\n  2164: a4 = u8 [a0 + 0x12]\n  2167: a5 = u8 [a0 + 0x13]\n  2170: a1 = a1 << 0x8\n  2173: a1 = a1 | a3\n  2176: a4 = a4 << 0x10\n  2179: a5 = a5 << 0x18\n  2182: a4 = a4 | a5\n  2185: a1 = a1 | a4\n  2188: a3 = u8 [a0 + 0x15]\n  2191: a4 = u8 [a0 + 0x14]\n  2194: a5 = u8 [a0 + 0x16]\n  2197: a2 = u8 [a0 + 0x17]\n  2200: a3 = a3 << 0x8\n  2203: a3 = a3 | a4\n  2206: a5 = a5 << 0x10\n  2209: a2 = a2 << 0x18\n  2212: a2 = a2 | a5\n  2215: a2 = a2 | a3\n  2218: a2 = a2 << 0x20\n  2221: a3 = a2 | a1\n  2224: a1 = u8 [a0 + 0x19]\n  2227: a2 = u8 [a0 + 0x18]\n  2230: a4 = u8 [a0 + 0x1a]\n  2233: a5 = u8 [a0 + 0x1b]\n  2236: a1 = a1 << 0x8\n  2239: a1 = a1 | a2\n  2242: a4 = a4 << 0x10\n  2245: a5 = a5 << 0x18\n  2248: a4 = a4 | a5\n  2251: a1 = a1 | a4\n  2254: a2 = u8 [a0 + 0x1d]\n  2257: a4 = u8 [a0 + 0x1c]\n  2260: a5 = u8 [a0 + 0x1e]\n  2263: a0 = u8 [a0 + 0x1f]\n  2266: a2 = a2 << 0x8\n  2269: a2 = a2 | a4\n  2272: a5 = a5 << 0x10\n  2275: a0 = a0 << 0x18\n  2278: a0 = a0 | a5\n  2281: a0 = a0 | a2\n  2284: a0 = a0 << 0x20\n  2287: a0 = a0 | a1\n  2290: a0 = reverse a0\n  2292: a1 = reverse a3\n  2294: a2 = reverse t1\n  2296: a3 = reverse t0\n  2298: u64 [s0 + 0x18] = a3\n  2301: u64 [s0 + 0x10] = a2\n  2304: u64 [s0 + 0x8] = a1\n  2307: u64 [s0] = a0\n  2309: ra = u64 [sp + 0x8]\n  2312: s0 = u64 [sp]\n  2314: sp = sp + 0x10\n  2317: ret\n      : @62 (gas: 8)\n  2319: a0 = u64 [sp + 0x30]\n  2322: a1 = u64 [sp + 0x38]\n  2325: a2 = u64 [sp + 0x28]\n  2328: a3 = u64 [sp + 0x20]\n  2331: a1 = a1 | a2\n  2334: a0 = a0 | a3\n  2337: a0 = a0 | a1\n  2340: jump @70 if a0 != 0\n      : @63 (gas: 2)\n  2344: a0 = i32 [0x20084]\n  2349: jump @70 if a0 <=u 35\n      : @64 (gas: 13)\n  2354: i32 a0 = sp + 0x60\n  2357: a1 = 0x4\n  2360: ecalli 3 // 'call_data_load'\n  2362: a0 = u64 [sp + 0x60]\n  2365: u64 [sp + 0x18] = a0\n  2368: a0 = u64 [sp + 0x68]\n  2371: u64 [sp + 0x10] = a0\n  2374: a0 = u64 [sp + 0x70]\n  2377: u64 [sp + 0x8] = a0\n  2380: s1 = u64 [sp + 0x78]\n  2383: a1 = 0x20\n  2386: a0 = 0\n  2388: ra = 52, jump @0\n      : @65 [@dyn 26] (gas: 70)\n  2393: a1 = reverse s1\n  2395: a2 = u64 [sp + 0x8]\n  2398: a2 = reverse a2\n  2400: a3 = u64 [sp + 0x10]\n  2403: a3 = reverse a3\n  2405: a4 = u64 [sp + 0x18]\n  2408: a4 = reverse a4\n  2410: a5 = a4 >> 0x38\n  2413: u8 [a0 + 0x1f] = a5\n  2416: a5 = a4 >> 0x30\n  2419: u8 [a0 + 0x1e] = a5\n  2422: a5 = a4 >> 0x28\n  2425: u8 [a0 + 0x1d] = a5\n  2428: a5 = a4 >> 0x20\n  2431: u8 [a0 + 0x1c] = a5\n  2434: a5 = a4 >> 0x18\n  2437: u8 [a0 + 0x1b] = a5\n  2440: a5 = a4 >> 0x10\n  2443: u8 [a0 + 0x1a] = a5\n  2446: a5 = a4 >> 0x8\n  2449: u8 [a0 + 0x19] = a5\n  2452: u8 [a0 + 0x18] = a4\n  2455: a4 = a3 >> 0x38\n  2458: u8 [a0 + 0x17] = a4\n  2461: a4 = a3 >> 0x30\n  2464: u8 [a0 + 0x16] = a4\n  2467: a4 = a3 >> 0x28\n  2470: u8 [a0 + 0x15] = a4\n  2473: a4 = a3 >> 0x20\n  2476: u8 [a0 + 0x14] = a4\n  2479: a4 = a3 >> 0x18\n  2482: u8 [a0 + 0x13] = a4\n  2485: a4 = a3 >> 0x10\n  2488: u8 [a0 + 0x12] = a4\n  2491: a4 = a3 >> 0x8\n  2494: u8 [a0 + 0x11] = a4\n  2497: u8 [a0 + 0x10] = a3\n  2500: a3 = a2 >> 0x38\n  2503: u8 [a0 + 0xf] = a3\n  2506: a3 = a2 >> 0x30\n  2509: u8 [a0 + 0xe] = a3\n  2512: a3 = a2 >> 0x28\n  2515: u8 [a0 + 0xd] = a3\n  2518: a3 = a2 >> 0x20\n  2521: u8 [a0 + 0xc] = a3\n  2524: a3 = a2 >> 0x18\n  2527: u8 [a0 + 0xb] = a3\n  2530: a3 = a2 >> 0x10\n  2533: u8 [a0 + 0xa] = a3\n  2536: a3 = a2 >> 0x8\n  2539: u8 [a0 + 0x9] = a3\n  2542: u8 [a0 + 0x8] = a2\n  2545: a2 = a1 >> 0x38\n  2548: u8 [a0 + 0x7] = a2\n  2551: a2 = a1 >> 0x30\n  2554: u8 [a0 + 0x6] = a2\n  2557: a2 = a1 >> 0x28\n  2560: u8 [a0 + 0x5] = a2\n  2563: a2 = a1 >> 0x20\n  2566: u8 [a0 + 0x4] = a2\n  2569: a2 = a1 >> 0x18\n  2572: u8 [a0 + 0x3] = a2\n  2575: a2 = a1 >> 0x10\n  2578: u8 [a0 + 0x2] = a2\n  2581: a2 = a1 >> 0x8\n  2584: u8 [a0 + 0x1] = a2\n  2587: u8 [a0] = a1\n  2589: a0 = 0x20\n  2592: a1 = 0x20\n  2595: ra = 54, jump @0\n      : @66 [@dyn 27] (gas: 35)\n  2600: u8 [a0 + 31] = 0\n  2603: u8 [a0 + 30] = 0\n  2606: u8 [a0 + 29] = 0\n  2609: u8 [a0 + 28] = 0\n  2612: u8 [a0 + 27] = 0\n  2615: u8 [a0 + 26] = 0\n  2618: u8 [a0 + 25] = 0\n  2621: u8 [a0 + 24] = 0\n  2624: u8 [a0 + 23] = 0\n  2627: u8 [a0 + 22] = 0\n  2630: u8 [a0 + 21] = 0\n  2633: u8 [a0 + 20] = 0\n  2636: u8 [a0 + 19] = 0\n  2639: u8 [a0 + 18] = 0\n  2642: u8 [a0 + 17] = 0\n  2645: u8 [a0 + 16] = 0\n  2648: u8 [a0 + 15] = 0\n  2651: u8 [a0 + 14] = 0\n  2654: u8 [a0 + 13] = 0\n  2657: u8 [a0 + 12] = 0\n  2660: u8 [a0 + 11] = 0\n  2663: u8 [a0 + 10] = 0\n  2666: u8 [a0 + 9] = 0\n  2669: u8 [a0 + 8] = 0\n  2672: u8 [a0 + 7] = 0\n  2675: u8 [a0 + 6] = 0\n  2678: u8 [a0 + 5] = 0\n  2681: u8 [a0 + 4] = 0\n  2684: u8 [a0 + 3] = 0\n  2687: u8 [a0 + 2] = 0\n  2690: u8 [a0 + 1] = 0\n  2693: u8 [a0 + 0] = 0\n  2695: a1 = 0x40\n  2698: a0 = 0\n  2700: ra = 56, jump @0\n      : @67 [@dyn 28] (gas: 36)\n  2705: i32 a0 = a0 + 0\n  2707: i32 a2 = sp + 0x60\n  2710: a1 = 0x40\n  2713: ecalli 9 // 'hash_keccak_256'\n  2715: a0 = u64 [sp + 0x78]\n  2718: a1 = u64 [sp + 0x70]\n  2721: a2 = u64 [sp + 0x68]\n  2724: a3 = u64 [sp + 0x60]\n  2727: a0 = reverse a0\n  2729: a1 = reverse a1\n  2731: a2 = reverse a2\n  2733: a3 = reverse a3\n  2735: u64 [sp + 0x58] = a3\n  2738: u64 [sp + 0x50] = a2\n  2741: u64 [sp + 0x48] = a1\n  2744: u64 [sp + 0x40] = a0\n  2747: u64 [sp + 120] = 0\n  2750: u64 [sp + 112] = 0\n  2753: u64 [sp + 104] = 0\n  2756: u64 [sp + 96] = 0\n  2759: u32 [sp + 128] = 0x20\n  2764: i32 a1 = sp + 0x40\n  2767: i32 a3 = sp + 0x60\n  2770: i32 a4 = sp + 0x80\n  2774: a2 = 0xffffffffffffffff\n  2777: a0 = 0\n  2779: ecalli 8 // 'get_storage'\n  2781: a0 = u64 [sp + 0x70]\n  2784: u64 [sp + 0x8] = a0\n  2787: a0 = u64 [sp + 0x68]\n  2790: u64 [sp + 0x10] = a0\n  2793: a0 = u64 [sp + 0x60]\n  2796: u64 [sp + 0x18] = a0\n  2799: a0 = 0x40\n  2802: a1 = 0x20\n  2805: ra = 58, jump @0\n      : @68 [@dyn 29] (gas: 100)\n  2810: a1 = u8 [a0 + 0x11]\n  2813: a2 = u8 [a0 + 0x10]\n  2816: a3 = u8 [a0 + 0x12]\n  2819: a4 = u8 [a0 + 0x13]\n  2822: a1 = a1 << 0x8\n  2825: a1 = a1 | a2\n  2828: a3 = a3 << 0x10\n  2831: a4 = a4 << 0x18\n  2834: a3 = a3 | a4\n  2837: a1 = a1 | a3\n  2840: a2 = u8 [a0 + 0x15]\n  2843: a3 = u8 [a0 + 0x14]\n  2846: a4 = u8 [a0 + 0x16]\n  2849: a5 = u8 [a0 + 0x17]\n  2852: a2 = a2 << 0x8\n  2855: a2 = a2 | a3\n  2858: a4 = a4 << 0x10\n  2861: a5 = a5 << 0x18\n  2864: a4 = a4 | a5\n  2867: a2 = a2 | a4\n  2870: a2 = a2 << 0x20\n  2873: t0 = a2 | a1\n  2876: a2 = u8 [a0 + 0x1]\n  2879: a3 = u8 [a0]\n  2881: a4 = u8 [a0 + 0x2]\n  2884: a5 = u8 [a0 + 0x3]\n  2887: a2 = a2 << 0x8\n  2890: a2 = a2 | a3\n  2893: a4 = a4 << 0x10\n  2896: a5 = a5 << 0x18\n  2899: a4 = a4 | a5\n  2902: a2 = a2 | a4\n  2905: a3 = u8 [a0 + 0x5]\n  2908: a4 = u8 [a0 + 0x4]\n  2911: a5 = u8 [a0 + 0x6]\n  2914: s1 = u8 [a0 + 0x7]\n  2917: a3 = a3 << 0x8\n  2920: a3 = a3 | a4\n  2923: a5 = a5 << 0x10\n  2926: s1 = s1 << 0x18\n  2929: a5 = a5 | s1\n  2932: a3 = a3 | a5\n  2935: a3 = a3 << 0x20\n  2938: a2 = a2 | a3\n  2941: a3 = u8 [a0 + 0x19]\n  2944: a4 = u8 [a0 + 0x18]\n  2947: a5 = u8 [a0 + 0x1a]\n  2950: s1 = u8 [a0 + 0x1b]\n  2953: a3 = a3 << 0x8\n  2956: a3 = a3 | a4\n  2959: a5 = a5 << 0x10\n  2962: s1 = s1 << 0x18\n  2965: a5 = a5 | s1\n  2968: a3 = a3 | a5\n  2971: a4 = u8 [a0 + 0x1d]\n  2974: a5 = u8 [a0 + 0x1c]\n  2977: s1 = u8 [a0 + 0x1e]\n  2980: a1 = u8 [a0 + 0x1f]\n  2983: a4 = a4 << 0x8\n  2986: a4 = a4 | a5\n  2989: s1 = s1 << 0x10\n  2992: a1 = a1 << 0x18\n  2995: a1 = a1 | s1\n  2998: a1 = a1 | a4\n  3001: a1 = a1 << 0x20\n  3004: a3 = a3 | a1\n  3007: a1 = u8 [a0 + 0x9]\n  3010: a4 = u8 [a0 + 0x8]\n  3013: a5 = u8 [a0 + 0xa]\n  3016: s1 = u8 [a0 + 0xb]\n  3019: a1 = a1 << 0x8\n  3022: a1 = a1 | a4\n  3025: a5 = a5 << 0x10\n  3028: s1 = s1 << 0x18\n  3031: a5 = a5 | s1\n  3034: a1 = a1 | a5\n  3037: a4 = u8 [a0 + 0xd]\n  3040: a5 = u8 [a0 + 0xc]\n  3043: s1 = u8 [a0 + 0xe]\n  3046: a0 = u8 [a0 + 0xf]\n  3049: a4 = a4 << 0x8\n  3052: a4 = a4 | a5\n  3055: s1 = s1 << 0x10\n  3058: a0 = a0 << 0x18\n  3061: a0 = a0 | s1\n  3064: a0 = a0 | a4\n  3067: a0 = a0 << 0x20\n  3070: a0 = a0 | a1\n  3073: a1 = reverse a0\n  3075: a0 = reverse a3\n  3077: a2 = reverse a2\n  3079: a3 = reverse t0\n  3081: a2 = a2 | a3\n  3084: a3 = a0 | a1\n  3087: a3 = a3 | a2\n  3090: a3 = a3 >> 0x20\n  3093: a1 = a1 | a2\n  3096: a1 = a1 << 0x20\n  3099: a1 = a1 | a3\n  3102: jump @72 if a1 == 0\n      : @69 (gas: 1)\n  3105: trap\n      : @70 (gas: 3)\n  3106: a0 = 0\n  3108: a1 = 0\n  3110: ra = 60, jump @0\n      : @71 [@dyn 30] (gas: 5)\n  3115: i32 a1 = a0 + 0\n  3117: a0 = 0x1\n  3120: a2 = 0\n  3122: ecalli 14 // 'seal_return'\n  3124: fallthrough\n      : @72 (gas: 7)\n  3125: a1 = u64 [sp + 0x8]\n  3128: a1 = a1 << 0x20\n  3131: s1 = a1 >> 0x20\n  3134: i32 a0 = a0 + 0\n  3136: u64 [sp + 0x8] = a0\n  3139: a1 = 0x20\n  3142: ra = 62, jump @0\n      : @73 [@dyn 31] (gas: 58)\n  3147: a1 = reverse s1\n  3149: a2 = u64 [sp + 0x10]\n  3152: a2 = reverse a2\n  3154: a3 = u64 [sp + 0x18]\n  3157: a3 = reverse a3\n  3159: a4 = a3 >> 0x38\n  3162: u8 [a0 + 0x1f] = a4\n  3165: a4 = a3 >> 0x30\n  3168: u8 [a0 + 0x1e] = a4\n  3171: a4 = a3 >> 0x28\n  3174: u8 [a0 + 0x1d] = a4\n  3177: a4 = a3 >> 0x20\n  3180: u8 [a0 + 0x1c] = a4\n  3183: a4 = a3 >> 0x18\n  3186: u8 [a0 + 0x1b] = a4\n  3189: a4 = a3 >> 0x10\n  3192: u8 [a0 + 0x1a] = a4\n  3195: a4 = a3 >> 0x8\n  3198: u8 [a0 + 0x19] = a4\n  3201: u8 [a0 + 0x18] = a3\n  3204: u8 [a0 + 0x10] = a2\n  3207: u8 [a0 + 11] = 0\n  3210: u8 [a0 + 10] = 0\n  3213: u8 [a0 + 9] = 0\n  3216: u8 [a0 + 7] = 0\n  3219: u8 [a0 + 6] = 0\n  3222: u8 [a0 + 5] = 0\n  3225: u8 [a0 + 4] = 0\n  3228: u8 [a0 + 3] = 0\n  3231: u8 [a0 + 2] = 0\n  3234: u8 [a0 + 1] = 0\n  3237: u8 [a0 + 0] = 0\n  3239: a3 = a2 >> 0x38\n  3242: u8 [a0 + 0x17] = a3\n  3245: a3 = a2 >> 0x30\n  3248: u8 [a0 + 0x16] = a3\n  3251: a3 = a2 >> 0x28\n  3254: u8 [a0 + 0x15] = a3\n  3257: a3 = a2 >> 0x20\n  3260: u8 [a0 + 0x14] = a3\n  3263: a3 = a2 >> 0x18\n  3266: u8 [a0 + 0x13] = a3\n  3269: a3 = a2 >> 0x10\n  3272: u8 [a0 + 0x12] = a3\n  3275: a2 = a2 >> 0x8\n  3278: u8 [a0 + 0x11] = a2\n  3281: u8 [a0 + 0x8] = a1\n  3284: a2 = a1 >> 0x38\n  3287: u8 [a0 + 0xf] = a2\n  3290: a2 = a1 >> 0x30\n  3293: u8 [a0 + 0xe] = a2\n  3296: a2 = a1 >> 0x28\n  3299: u8 [a0 + 0xd] = a2\n  3302: a1 = a1 >> 0x20\n  3305: u8 [a0 + 0xc] = a1\n  3308: a1 = 0x20\n  3311: a0 = u64 [sp + 0x8]\n  3314: ra = 64, jump @0\n      : @74 [@dyn 32] (gas: 6)\n  3319: i32 a1 = a0 + 0\n  3321: a2 = 0x20\n  3324: a0 = 0\n  3326: ra = 0x42\n  3329: ecalli 14 // 'seal_return'\n  3331: fallthrough\n      : @75 [@dyn 33] (gas: 9)\n  3332: a2 = u64 [a1 + 0x18]\n  3335: a3 = u64 [a1 + 0x10]\n  3338: a4 = u64 [a1 + 0x8]\n  3341: a1 = u64 [a1]\n  3343: u64 [a0 + 0x18] = a2\n  3346: u64 [a0 + 0x10] = a3\n  3349: u64 [a0 + 0x8] = a4\n  3352: u64 [a0] = a1\n  3354: ret\n      : @76 (gas: 8)\n  3356: a0 = u64 [sp + 0x70]\n  3359: a1 = u64 [sp + 0x78]\n  3362: a2 = u64 [sp + 0x68]\n  3365: a3 = u64 [sp + 0x60]\n  3368: a1 = a1 | a2\n  3371: a0 = a0 | a3\n  3374: a0 = a0 | a1\n  3377: jump @82 if a0 != 0\n      : @77 (gas: 2)\n  3381: a0 = i32 [0x20084]\n  3386: jump @82 if a0 <=u 67\n      : @78 (gas: 56)\n  3391: i32 a0 = sp + 0x80\n  3395: a1 = 0x4\n  3398: ecalli 3 // 'call_data_load'\n  3400: a0 = u64 [sp + 0x80]\n  3404: u64 [sp + 0x18] = a0\n  3407: a0 = u64 [sp + 0x88]\n  3411: u64 [sp + 0x10] = a0\n  3414: a0 = u64 [sp + 0x90]\n  3418: u64 [sp + 0x8] = a0\n  3421: s1 = u64 [sp + 0x98]\n  3425: i32 a0 = sp + 0x80\n  3429: a1 = 0x24\n  3432: ecalli 3 // 'call_data_load'\n  3434: a0 = u64 [sp + 0x80]\n  3438: a1 = u64 [sp + 0x88]\n  3442: a2 = u64 [sp + 0x90]\n  3446: a3 = u64 [sp + 0x98]\n  3450: u64 [sp + 0x38] = a3\n  3453: u64 [sp + 0x30] = a2\n  3456: u64 [sp + 0x28] = a1\n  3459: u64 [sp + 0x20] = a0\n  3462: u64 [sp + 0x58] = s1\n  3465: a0 = u64 [sp + 0x8]\n  3468: u64 [sp + 0x50] = a0\n  3471: a0 = u64 [sp + 0x10]\n  3474: u64 [sp + 0x48] = a0\n  3477: a0 = sp + 0x40\n  3480: a1 = sp + 0x20\n  3483: a2 = u64 [sp + 0x18]\n  3486: u64 [sp + 0x40] = a2\n  3489: ra = 0x44\n  3492: sp = sp + 0xfffffffffffffba0\n  3496: u64 [sp + 0x458] = ra\n  3500: u64 [sp + 0x450] = s0\n  3504: u64 [sp + 0x448] = s1\n  3508: s0 = sp + 0x460\n  3512: sp = sp & 0xffffffffffffffe0\n  3515: a2 = u64 [a1 + 0x18]\n  3518: u64 [sp + 0x168] = a2\n  3522: a2 = u64 [a1 + 0x10]\n  3525: u64 [sp + 0x160] = a2\n  3529: a2 = u64 [a1 + 0x8]\n  3532: u64 [sp + 0x170] = a2\n  3536: a1 = u64 [a1]\n  3538: u64 [sp + 0x178] = a1\n  3542: a1 = u64 [a0]\n  3544: u64 [sp + 0x158] = a1\n  3548: a1 = u64 [a0 + 0x8]\n  3551: u64 [sp + 0x150] = a1\n  3555: a1 = u64 [a0 + 0x10]\n  3558: u64 [sp + 0x148] = a1\n  3562: s1 = u64 [a0 + 0x18]\n  3565: a1 = 0x20\n  3568: a0 = 0\n  3570: ra = 0x10a\n  3574: jump @0\n      : @79 [@dyn 34] (gas: 3)\n  3577: a0 = 0x40\n  3580: a1 = 0x20\n  3583: ra = 70, jump @0\n      : @80 [@dyn 35] (gas: 100)\n  3588: a1 = u8 [a0 + 0x11]\n  3591: a2 = u8 [a0 + 0x10]\n  3594: a3 = u8 [a0 + 0x12]\n  3597: a4 = u8 [a0 + 0x13]\n  3600: a1 = a1 << 0x8\n  3603: a1 = a1 | a2\n  3606: a3 = a3 << 0x10\n  3609: a4 = a4 << 0x18\n  3612: a3 = a3 | a4\n  3615: a1 = a1 | a3\n  3618: a2 = u8 [a0 + 0x15]\n  3621: a3 = u8 [a0 + 0x14]\n  3624: a4 = u8 [a0 + 0x16]\n  3627: a5 = u8 [a0 + 0x17]\n  3630: a2 = a2 << 0x8\n  3633: a2 = a2 | a3\n  3636: a4 = a4 << 0x10\n  3639: a5 = a5 << 0x18\n  3642: a4 = a4 | a5\n  3645: a2 = a2 | a4\n  3648: a2 = a2 << 0x20\n  3651: t0 = a2 | a1\n  3654: a2 = u8 [a0 + 0x1]\n  3657: a3 = u8 [a0]\n  3659: a4 = u8 [a0 + 0x2]\n  3662: a5 = u8 [a0 + 0x3]\n  3665: a2 = a2 << 0x8\n  3668: a2 = a2 | a3\n  3671: a4 = a4 << 0x10\n  3674: a5 = a5 << 0x18\n  3677: a4 = a4 | a5\n  3680: a2 = a2 | a4\n  3683: a3 = u8 [a0 + 0x5]\n  3686: a4 = u8 [a0 + 0x4]\n  3689: a5 = u8 [a0 + 0x6]\n  3692: s1 = u8 [a0 + 0x7]\n  3695: a3 = a3 << 0x8\n  3698: a3 = a3 | a4\n  3701: a5 = a5 << 0x10\n  3704: s1 = s1 << 0x18\n  3707: a5 = a5 | s1\n  3710: a3 = a3 | a5\n  3713: a3 = a3 << 0x20\n  3716: a2 = a2 | a3\n  3719: a3 = u8 [a0 + 0x19]\n  3722: a4 = u8 [a0 + 0x18]\n  3725: a5 = u8 [a0 + 0x1a]\n  3728: s1 = u8 [a0 + 0x1b]\n  3731: a3 = a3 << 0x8\n  3734: a3 = a3 | a4\n  3737: a5 = a5 << 0x10\n  3740: s1 = s1 << 0x18\n  3743: a5 = a5 | s1\n  3746: a3 = a3 | a5\n  3749: a4 = u8 [a0 + 0x1d]\n  3752: a5 = u8 [a0 + 0x1c]\n  3755: s1 = u8 [a0 + 0x1e]\n  3758: a1 = u8 [a0 + 0x1f]\n  3761: a4 = a4 << 0x8\n  3764: a4 = a4 | a5\n  3767: s1 = s1 << 0x10\n  3770: a1 = a1 << 0x18\n  3773: a1 = a1 | s1\n  3776: a1 = a1 | a4\n  3779: a1 = a1 << 0x20\n  3782: a3 = a3 | a1\n  3785: a1 = u8 [a0 + 0x9]\n  3788: a4 = u8 [a0 + 0x8]\n  3791: a5 = u8 [a0 + 0xa]\n  3794: s1 = u8 [a0 + 0xb]\n  3797: a1 = a1 << 0x8\n  3800: a1 = a1 | a4\n  3803: a5 = a5 << 0x10\n  3806: s1 = s1 << 0x18\n  3809: a5 = a5 | s1\n  3812: a1 = a1 | a5\n  3815: a4 = u8 [a0 + 0xd]\n  3818: a5 = u8 [a0 + 0xc]\n  3821: s1 = u8 [a0 + 0xe]\n  3824: a0 = u8 [a0 + 0xf]\n  3827: a4 = a4 << 0x8\n  3830: a4 = a4 | a5\n  3833: s1 = s1 << 0x10\n  3836: a0 = a0 << 0x18\n  3839: a0 = a0 | s1\n  3842: a0 = a0 | a4\n  3845: a0 = a0 << 0x20\n  3848: a0 = a0 | a1\n  3851: a1 = reverse a0\n  3853: a0 = reverse a3\n  3855: a2 = reverse a2\n  3857: a3 = reverse t0\n  3859: a2 = a2 | a3\n  3862: a3 = a0 | a1\n  3865: a3 = a3 | a2\n  3868: a3 = a3 >> 0x20\n  3871: a1 = a1 | a2\n  3874: a1 = a1 << 0x20\n  3877: a1 = a1 | a3\n  3880: jump @84 if a1 == 0\n      : @81 (gas: 1)\n  3883: trap\n      : @82 (gas: 3)\n  3884: a0 = 0\n  3886: a1 = 0\n  3888: ra = 72, jump @0\n      : @83 [@dyn 36] (gas: 7)\n  3893: i32 a1 = a0 + 0\n  3895: a0 = 0x1\n  3898: a2 = 0\n  3900: ecalli 14 // 'seal_return'\n  3902: i32 a0 = a0 + 0\n  3904: ra = 0x4a\n  3907: jump @0\n      : @84 (gas: 2)\n  3910: i32 a0 = a0 + 0\n  3912: ra = 74, jump @0\n      : @85 [@dyn 37] (gas: 6)\n  3917: i32 a1 = a0 + 0\n  3919: a0 = 0\n  3921: a2 = 0\n  3923: ra = 0x4c\n  3926: ecalli 14 // 'seal_return'\n  3928: fallthrough\n      : @86 [@dyn 38] (gas: 13)\n  3929: sp = sp + 0xffffffffffffffb0\n  3932: u64 [sp + 0x48] = ra\n  3935: u64 [sp + 0x40] = s0\n  3938: s0 = sp + 0x50\n  3941: sp = sp & 0xfffffffffffffff0\n  3944: u64 [sp + 48] = 0\n  3947: u64 [sp + 40] = 0\n  3950: u64 [sp + 32] = 0\n  3953: a0 = 0x4e487b7100000000\n  3963: a1 = sp + 0x20\n  3966: u64 [sp + 0x38] = a0\n  3969: a0 = 0\n  3971: ra = 78, jump @8\n      : @87 [@dyn 39] (gas: 7)\n  3976: u64 [sp + 24] = 0\n  3979: u64 [sp + 16] = 0\n  3982: u64 [sp + 0] = 0x32\n  3985: a0 = 0x4\n  3988: a1 = sp\n  3990: u64 [sp + 8] = 0\n  3993: ra = 80, jump @8\n      : @88 [@dyn 40] (gas: 3)\n  3998: a1 = 0x24\n  4001: a0 = 0\n  4003: ra = 82, jump @0\n      : @89 [@dyn 41] (gas: 6)\n  4008: i32 a1 = a0 + 0\n  4010: a0 = 0x1\n  4013: a2 = 0x24\n  4016: ra = 0x54\n  4019: ecalli 14 // 'seal_return'\n  4021: fallthrough\n      : @90 [@dyn 42] (gas: 40)\n  4022: sp = sp + 0xffffffffffffffa0\n  4025: u64 [sp + 0x58] = ra\n  4028: u64 [sp + 0x50] = s0\n  4031: u64 [sp + 0x48] = s1\n  4034: s0 = sp + 0x60\n  4037: sp = sp & 0xffffffffffffffe0\n  4040: s1 = a0\n  4042: a0 = u64 [a1 + 0x18]\n  4045: a2 = u64 [a1 + 0x10]\n  4048: a3 = u64 [a1 + 0x8]\n  4051: a1 = u64 [a1]\n  4053: u64 [sp + 0x18] = a0\n  4056: u64 [sp + 0x10] = a2\n  4059: u64 [sp + 0x8] = a3\n  4062: u64 [sp] = a1\n  4064: u64 [sp + 56] = 0\n  4067: u64 [sp + 48] = 0\n  4070: u64 [sp + 40] = 0\n  4073: u64 [sp + 32] = 0\n  4076: u32 [sp + 64] = 0x20\n  4080: i32 a1 = sp + 0\n  4082: i32 a3 = sp + 0x20\n  4085: i32 a4 = sp + 0x40\n  4088: a2 = 0xffffffffffffffff\n  4091: a0 = 0\n  4093: ecalli 8 // 'get_storage'\n  4095: a0 = u64 [sp + 0x38]\n  4098: a1 = u64 [sp + 0x30]\n  4101: a2 = u64 [sp + 0x28]\n  4104: a3 = u64 [sp + 0x20]\n  4107: u64 [s1 + 0x18] = a0\n  4110: u64 [s1 + 0x10] = a1\n  4113: u64 [s1 + 0x8] = a2\n  4116: u64 [s1] = a3\n  4118: sp = s0 + 0xffffffffffffffa0\n  4121: ra = u64 [sp + 0x58]\n  4124: s0 = u64 [sp + 0x50]\n  4127: s1 = u64 [sp + 0x48]\n  4130: sp = sp + 0x60\n  4133: ret\n      : @91 (gas: 38)\n  4135: sp = sp + 0xfffffffffffffee0\n  4139: u64 [sp + 0x118] = ra\n  4143: u64 [sp + 0x110] = s0\n  4147: u64 [sp + 0x108] = s1\n  4151: s0 = sp + 0x120\n  4155: sp = sp & 0xffffffffffffffe0\n  4158: u64 [sp + 0x40] = a0\n  4161: a0 = u64 [a2]\n  4163: u64 [sp + 0x48] = a0\n  4166: a0 = u64 [a2 + 0x8]\n  4169: u64 [sp + 0x50] = a0\n  4172: a0 = u64 [a2 + 0x10]\n  4175: u64 [sp + 0x58] = a0\n  4178: s1 = u64 [a2 + 0x18]\n  4181: a4 = u64 [a1 + 0x18]\n  4184: a3 = u64 [a1 + 0x10]\n  4187: a2 = u64 [a1 + 0x8]\n  4190: a0 = u64 [a1]\n  4192: u64 [sp + 0x18] = a4\n  4195: u64 [sp + 0xb8] = a4\n  4199: u64 [sp + 0x20] = a3\n  4202: u64 [sp + 0xb0] = a3\n  4206: u64 [sp + 0x28] = a2\n  4209: u64 [sp + 0xa8] = a2\n  4213: u64 [sp + 0x30] = a0\n  4216: u64 [sp + 0xa0] = a0\n  4220: u64 [sp + 248] = 0\n  4224: u64 [sp + 240] = 0\n  4228: u64 [sp + 232] = 0\n  4232: u64 [sp + 224] = 0\n  4236: u32 [sp + 192] = 0x20\n  4241: i32 a1 = sp + 0xa0\n  4245: i32 a3 = sp + 0xe0\n  4249: i32 a4 = sp + 0xc0\n  4253: a2 = 0xffffffffffffffff\n  4256: a0 = 0\n  4258: ecalli 8 // 'get_storage'\n  4260: fallthrough\n      : @92 (gas: 20)\n  4261: a0 = u64 [sp + 0xf8]\n  4265: t0 = u64 [sp + 0xe0]\n  4269: a2 = u64 [sp + 0xf0]\n  4273: a3 = u64 [sp + 0xe8]\n  4277: a4 = a0 ^ s1\n  4280: u64 [sp + 0x38] = s1\n  4283: a1 = s1 <u a0\n  4286: a0 = u64 [sp + 0x58]\n  4289: a5 = a0 <u a2\n  4292: a5 = a1 if a4 != 0\n  4295: a1 = u64 [sp + 0x50]\n  4298: t1 = a3 ^ a1\n  4301: a3 = a1 <u a3\n  4304: a1 = u64 [sp + 0x48]\n  4307: a1 = a1 <u t0\n  4310: a1 = a3 if t1 != 0\n  4313: a0 = a0 ^ a2\n  4316: a0 = a0 | a4\n  4319: a1 = a5 if a0 != 0\n  4322: jump @96 if a1 == 0\n      : @93 (gas: 3)\n  4326: a1 = 0x20\n  4329: a0 = 0\n  4331: ra = 86, jump @0\n      : @94 [@dyn 43] (gas: 71)\n  4336: a1 = u64 [sp + 0x18]\n  4339: a1 = reverse a1\n  4341: a2 = u64 [sp + 0x20]\n  4344: a2 = reverse a2\n  4346: a3 = u64 [sp + 0x28]\n  4349: a3 = reverse a3\n  4351: a4 = u64 [sp + 0x30]\n  4354: a4 = reverse a4\n  4356: a5 = a4 >> 0x38\n  4359: u8 [a0 + 0x1f] = a5\n  4362: a5 = a4 >> 0x30\n  4365: u8 [a0 + 0x1e] = a5\n  4368: a5 = a4 >> 0x28\n  4371: u8 [a0 + 0x1d] = a5\n  4374: a5 = a4 >> 0x20\n  4377: u8 [a0 + 0x1c] = a5\n  4380: a5 = a4 >> 0x18\n  4383: u8 [a0 + 0x1b] = a5\n  4386: a5 = a4 >> 0x10\n  4389: u8 [a0 + 0x1a] = a5\n  4392: a5 = a4 >> 0x8\n  4395: u8 [a0 + 0x19] = a5\n  4398: u8 [a0 + 0x18] = a4\n  4401: u8 [a0 + 0x10] = a3\n  4404: a4 = a3 >> 0x38\n  4407: u8 [a0 + 0x17] = a4\n  4410: a4 = a3 >> 0x30\n  4413: u8 [a0 + 0x16] = a4\n  4416: a4 = a3 >> 0x28\n  4419: u8 [a0 + 0x15] = a4\n  4422: a4 = a3 >> 0x20\n  4425: u8 [a0 + 0x14] = a4\n  4428: a4 = a3 >> 0x18\n  4431: u8 [a0 + 0x13] = a4\n  4434: a4 = a3 >> 0x10\n  4437: u8 [a0 + 0x12] = a4\n  4440: a3 = a3 >> 0x8\n  4443: u8 [a0 + 0x11] = a3\n  4446: u8 [a0 + 0x8] = a2\n  4449: a3 = a2 >> 0x38\n  4452: u8 [a0 + 0xf] = a3\n  4455: a3 = a2 >> 0x30\n  4458: u8 [a0 + 0xe] = a3\n  4461: a3 = a2 >> 0x28\n  4464: u8 [a0 + 0xd] = a3\n  4467: a3 = a2 >> 0x20\n  4470: u8 [a0 + 0xc] = a3\n  4473: a3 = a2 >> 0x18\n  4476: u8 [a0 + 0xb] = a3\n  4479: a3 = a2 >> 0x10\n  4482: u8 [a0 + 0xa] = a3\n  4485: a2 = a2 >> 0x8\n  4488: u8 [a0 + 0x9] = a2\n  4491: u8 [a0] = a1\n  4493: a2 = a1 >> 0x38\n  4496: u8 [a0 + 0x7] = a2\n  4499: a2 = a1 >> 0x30\n  4502: u8 [a0 + 0x6] = a2\n  4505: a2 = a1 >> 0x28\n  4508: u8 [a0 + 0x5] = a2\n  4511: a2 = a1 >> 0x20\n  4514: u8 [a0 + 0x4] = a2\n  4517: a2 = a1 >> 0x18\n  4520: u8 [a0 + 0x3] = a2\n  4523: a2 = a1 >> 0x10\n  4526: u8 [a0 + 0x2] = a2\n  4529: a1 = a1 >> 0x8\n  4532: u8 [a0 + 0x1] = a1\n  4535: a1 = 0x20\n  4538: a0 = 0\n  4540: ra = 88, jump @0\n      : @95 [@dyn 44] (gas: 45)\n  4545: i32 a0 = a0 + 0\n  4547: i32 a2 = sp + 0xe0\n  4551: a1 = 0x20\n  4554: ecalli 9 // 'hash_keccak_256'\n  4556: a0 = u64 [sp + 0xe0]\n  4560: a1 = u64 [sp + 0xe8]\n  4564: a2 = u64 [sp + 0xf8]\n  4568: a3 = u64 [sp + 0xf0]\n  4572: t0 = reverse a0\n  4574: a1 = reverse a1\n  4576: a2 = reverse a2\n  4578: a3 = reverse a3\n  4580: a4 = u64 [sp + 0x50]\n  4583: a4 = a4 + a3\n  4586: a5 = u64 [sp + 0x48]\n  4589: a5 = a5 + a2\n  4592: a2 = a5 <u a2\n  4595: a4 = a4 + a2\n  4598: s1 = a4 ^ a3\n  4601: a3 = a4 <u a3\n  4604: a3 = a2 if s1 == 0\n  4607: a2 = u64 [sp + 0x58]\n  4610: a2 = a2 + a1\n  4613: a3 = a3 + a2\n  4616: s1 = a3 <u a2\n  4619: a0 = u64 [sp + 0x38]\n  4622: a0 = a0 + t0\n  4625: a1 = a2 <u a1\n  4628: a0 = a0 + a1\n  4631: a0 = a0 + s1\n  4634: a1 = u64 [sp + 0x40]\n  4637: u64 [a1 + 56] = 0\n  4640: u64 [a1 + 48] = 0\n  4643: u64 [a1 + 40] = 0\n  4646: u64 [a1 + 32] = 0\n  4649: u64 [a1] = a5\n  4651: u64 [a1 + 0x8] = a4\n  4654: u64 [a1 + 0x10] = a3\n  4657: u64 [a1 + 0x18] = a0\n  4660: sp = s0 + 0xfffffffffffffee0\n  4664: ra = u64 [sp + 0x118]\n  4668: s0 = u64 [sp + 0x110]\n  4672: s1 = u64 [sp + 0x108]\n  4676: sp = sp + 0x120\n  4680: ret\n      : @96 (gas: 8)\n  4682: u64 [sp + 144] = 0\n  4686: u64 [sp + 136] = 0\n  4690: u64 [sp + 128] = 0\n  4694: a0 = 0x4e487b7100000000\n  4704: a1 = sp + 0x80\n  4708: u64 [sp + 0x98] = a0\n  4712: a0 = 0\n  4714: ra = 90, jump @8\n      : @97 [@dyn 45] (gas: 7)\n  4719: u64 [sp + 120] = 0\n  4722: u64 [sp + 112] = 0\n  4725: u64 [sp + 96] = 0x32\n  4729: a0 = 0x4\n  4732: a1 = sp + 0x60\n  4735: u64 [sp + 104] = 0\n  4738: ra = 92, jump @8\n      : @98 [@dyn 46] (gas: 3)\n  4743: a1 = 0x24\n  4746: a0 = 0\n  4748: ra = 94, jump @0\n      : @99 [@dyn 47] (gas: 6)\n  4753: i32 a1 = a0 + 0\n  4755: a0 = 0x1\n  4758: a2 = 0x24\n  4761: ra = 0x60\n  4764: ecalli 14 // 'seal_return'\n  4766: fallthrough\n      : @100 [@dyn 48] (gas: 9)\n  4767: a2 = u64 [a1 + 0x18]\n  4770: a3 = u64 [a1 + 0x10]\n  4773: a4 = u64 [a1 + 0x8]\n  4776: a1 = u64 [a1]\n  4778: u64 [a0 + 0x18] = a2\n  4781: u64 [a0 + 0x10] = a3\n  4784: u64 [a0 + 0x8] = a4\n  4787: u64 [a0] = a1\n  4789: ret\n      : @101 (gas: 19)\n  4791: t1 = u64 [sp + 0x8]\n  4794: t0 = u64 [sp]\n  4796: a0 = u64 [sp + 0x118]\n  4800: a1 = u64 [sp + 0x100]\n  4804: t2 = u64 [sp + 0x110]\n  4808: a3 = u64 [sp + 0x108]\n  4812: a4 = a0 ^ s1\n  4815: a0 = s1 <u a0\n  4818: a2 = u64 [sp + 0x10]\n  4821: a5 = a2 <u t2\n  4824: a5 = a0 if a4 != 0\n  4827: a0 = a3 ^ t0\n  4830: a3 = t0 <u a3\n  4833: a1 = t1 <u a1\n  4836: a1 = a3 if a0 != 0\n  4839: a0 = t2 ^ a2\n  4842: a0 = a0 | a4\n  4845: a1 = a5 if a0 != 0\n  4848: jump @104 if a1 == 0\n      : @102 (gas: 12)\n  4852: u64 [sp + 0x60] = t1\n  4855: u64 [sp + 152] = 0\n  4859: u64 [sp + 144] = 0\n  4863: u64 [sp + 136] = 0\n  4867: u64 [sp + 128] = 0x1\n  4872: u64 [sp + 0x68] = t0\n  4875: u64 [sp + 0x70] = a2\n  4878: a0 = sp + 0xa0\n  4882: a1 = sp + 0x80\n  4886: a2 = sp + 0x60\n  4889: u64 [sp + 0x78] = s1\n  4892: ra = 98, jump @91\n      : @103 [@dyn 49] (gas: 250)\n  4897: a0 = u64 [sp + 0xd8]\n  4901: u64 [sp + 0x10] = a0\n  4904: a0 = u64 [sp + 0xd0]\n  4908: u64 [sp + 0x8] = a0\n  4911: s1 = u64 [sp + 0xc8]\n  4915: a0 = u64 [sp + 0xc0]\n  4919: u64 [sp] = a0\n  4921: a0 = u64 [sp + 0xb8]\n  4925: a1 = u64 [sp + 0xb0]\n  4929: a2 = u64 [sp + 0xa8]\n  4933: a3 = u64 [sp + 0xa0]\n  4937: u64 [sp + 0xf8] = a0\n  4941: u64 [sp + 0xf0] = a1\n  4945: u64 [sp + 0xe8] = a2\n  4949: u64 [sp + 0xe0] = a3\n  4953: u64 [sp + 280] = 0\n  4957: u64 [sp + 272] = 0\n  4961: u64 [sp + 264] = 0\n  4965: u64 [sp + 256] = 0\n  4969: u32 [sp + 288] = 0x20\n  4974: i32 a1 = sp + 0xe0\n  4978: i32 a3 = sp + 0x100\n  4982: i32 a4 = sp + 0x120\n  4986: a2 = 0xffffffffffffffff\n  4989: a0 = 0\n  4991: ecalli 8 // 'get_storage'\n  4993: t0 = u64 [sp + 0x100]\n  4997: a2 = u64 [sp + 0x108]\n  5001: a3 = u64 [sp + 0x110]\n  5005: t2 = u64 [sp]\n  5007: a0 = t2 >> 0x3d\n  5010: a4 = s1 << 0x3\n  5013: a4 = a4 | a0\n  5016: s1 = s1 >> 0x3d\n  5019: a1 = u64 [sp + 0x8]\n  5022: a0 = a1 << 0x3\n  5025: s1 = s1 | a0\n  5028: a0 = a1 >> 0x3d\n  5031: a5 = u64 [sp + 0x10]\n  5034: a5 = a5 << 0x3\n  5037: a5 = a5 | a0\n  5040: a0 = t2 << 0x3\n  5043: a1 = a4 >u 0\n  5045: a0 = a0 <u 0x100\n  5049: t1 = a0 ^ 0x1\n  5052: t1 = a1 if a4 != 0\n  5055: a1 = a5 >u 0\n  5057: a0 = s1 >u 0\n  5059: a0 = a1 if a5 != 0\n  5062: a4 = u64 [sp + 0x118]\n  5066: a5 = a5 | s1\n  5069: t1 = a0 if a5 != 0\n  5072: u8 [sp + 95] = 0\n  5075: u8 [sp + 94] = 0\n  5078: u8 [sp + 93] = 0\n  5081: u8 [sp + 92] = 0\n  5084: u8 [sp + 91] = 0\n  5087: u8 [sp + 90] = 0\n  5090: u8 [sp + 89] = 0\n  5093: u8 [sp + 88] = 0\n  5096: u8 [sp + 87] = 0\n  5099: u8 [sp + 86] = 0\n  5102: u8 [sp + 85] = 0\n  5105: u8 [sp + 84] = 0\n  5108: u8 [sp + 83] = 0\n  5111: u8 [sp + 82] = 0\n  5114: u8 [sp + 81] = 0\n  5117: u8 [sp + 80] = 0\n  5120: u8 [sp + 79] = 0\n  5123: u8 [sp + 78] = 0\n  5126: u8 [sp + 77] = 0\n  5129: u8 [sp + 76] = 0\n  5132: u8 [sp + 75] = 0\n  5135: u8 [sp + 74] = 0\n  5138: u8 [sp + 73] = 0\n  5141: u8 [sp + 72] = 0\n  5144: u8 [sp + 71] = 0\n  5147: u8 [sp + 70] = 0\n  5150: u8 [sp + 69] = 0\n  5153: u8 [sp + 68] = 0\n  5156: u8 [sp + 67] = 0\n  5159: u8 [sp + 66] = 0\n  5162: u8 [sp + 65] = 0\n  5165: u8 [sp + 64] = 0\n  5168: u8 [sp + 0x38] = a4\n  5171: u8 [sp + 0x30] = a3\n  5174: u8 [sp + 0x28] = a2\n  5177: u8 [sp + 0x20] = t0\n  5180: a0 = a4 >> 0x38\n  5183: u8 [sp + 0x3f] = a0\n  5186: a0 = a4 >> 0x30\n  5189: u8 [sp + 0x3e] = a0\n  5192: a0 = a4 >> 0x28\n  5195: u8 [sp + 0x3d] = a0\n  5198: a0 = a4 >> 0x20\n  5201: u8 [sp + 0x3c] = a0\n  5204: a0 = a4 >> 0x18\n  5207: u8 [sp + 0x3b] = a0\n  5210: a0 = a4 >> 0x10\n  5213: u8 [sp + 0x3a] = a0\n  5216: a4 = a4 >> 0x8\n  5219: u8 [sp + 0x39] = a4\n  5222: a0 = a3 >> 0x38\n  5225: u8 [sp + 0x37] = a0\n  5228: a0 = a3 >> 0x30\n  5231: u8 [sp + 0x36] = a0\n  5234: a0 = a3 >> 0x28\n  5237: u8 [sp + 0x35] = a0\n  5240: a0 = a3 >> 0x20\n  5243: u8 [sp + 0x34] = a0\n  5246: a0 = a3 >> 0x18\n  5249: u8 [sp + 0x33] = a0\n  5252: a0 = a3 >> 0x10\n  5255: u8 [sp + 0x32] = a0\n  5258: a3 = a3 >> 0x8\n  5261: u8 [sp + 0x31] = a3\n  5264: a0 = a2 >> 0x38\n  5267: u8 [sp + 0x2f] = a0\n  5270: a0 = a2 >> 0x30\n  5273: u8 [sp + 0x2e] = a0\n  5276: a0 = a2 >> 0x28\n  5279: u8 [sp + 0x2d] = a0\n  5282: a0 = a2 >> 0x20\n  5285: u8 [sp + 0x2c] = a0\n  5288: a0 = a2 >> 0x18\n  5291: u8 [sp + 0x2b] = a0\n  5294: a0 = a2 >> 0x10\n  5297: u8 [sp + 0x2a] = a0\n  5300: a2 = a2 >> 0x8\n  5303: u8 [sp + 0x29] = a2\n  5306: a0 = t0 >> 0x38\n  5309: u8 [sp + 0x27] = a0\n  5312: a0 = t0 >> 0x30\n  5315: u8 [sp + 0x26] = a0\n  5318: a0 = t0 >> 0x28\n  5321: u8 [sp + 0x25] = a0\n  5324: a0 = t0 >> 0x20\n  5327: u8 [sp + 0x24] = a0\n  5330: a0 = t0 >> 0x18\n  5333: u8 [sp + 0x23] = a0\n  5336: a0 = t0 >> 0x10\n  5339: u8 [sp + 0x22] = a0\n  5342: a0 = t0 >> 0x8\n  5345: u8 [sp + 0x21] = a0\n  5348: a1 = t2 & 0x1f\n  5351: a0 = sp + 0x20\n  5354: a1 = a1 + a0\n  5357: a0 = u8 [a1 + 0x19]\n  5360: a2 = u8 [a1 + 0x18]\n  5363: a3 = u8 [a1 + 0x1a]\n  5366: a4 = u8 [a1 + 0x1b]\n  5369: a0 = a0 << 0x8\n  5372: a0 = a0 | a2\n  5375: a3 = a3 << 0x10\n  5378: a4 = a4 << 0x18\n  5381: a3 = a3 | a4\n  5384: a0 = a0 | a3\n  5387: a2 = u8 [a1 + 0x1d]\n  5390: a3 = u8 [a1 + 0x1c]\n  5393: a4 = u8 [a1 + 0x1e]\n  5396: a5 = u8 [a1 + 0x1f]\n  5399: a2 = a2 << 0x8\n  5402: a2 = a2 | a3\n  5405: a4 = a4 << 0x10\n  5408: a5 = a5 << 0x18\n  5411: a4 = a4 | a5\n  5414: a2 = a2 | a4\n  5417: a2 = a2 << 0x20\n  5420: t0 = a2 | a0\n  5423: a0 = u8 [a1 + 0x11]\n  5426: a3 = u8 [a1 + 0x10]\n  5429: a4 = u8 [a1 + 0x12]\n  5432: a5 = u8 [a1 + 0x13]\n  5435: a0 = a0 << 0x8\n  5438: a0 = a0 | a3\n  5441: a4 = a4 << 0x10\n  5444: a5 = a5 << 0x18\n  5447: a4 = a4 | a5\n  5450: a0 = a0 | a4\n  5453: a3 = u8 [a1 + 0x15]\n  5456: a4 = u8 [a1 + 0x14]\n  5459: a5 = u8 [a1 + 0x16]\n  5462: s1 = u8 [a1 + 0x17]\n  5465: a3 = a3 << 0x8\n  5468: a3 = a3 | a4\n  5471: a5 = a5 << 0x10\n  5474: s1 = s1 << 0x18\n  5477: a5 = a5 | s1\n  5480: a3 = a3 | a5\n  5483: a3 = a3 << 0x20\n  5486: a3 = a3 | a0\n  5489: a0 = u8 [a1 + 0x9]\n  5492: a4 = u8 [a1 + 0x8]\n  5495: a5 = u8 [a1 + 0xa]\n  5498: s1 = u8 [a1 + 0xb]\n  5501: a0 = a0 << 0x8\n  5504: a0 = a0 | a4\n  5507: a5 = a5 << 0x10\n  5510: s1 = s1 << 0x18\n  5513: a5 = a5 | s1\n  5516: a0 = a0 | a5\n  5519: a4 = u8 [a1 + 0xd]\n  5522: a5 = u8 [a1 + 0xc]\n  5525: s1 = u8 [a1 + 0xe]\n  5528: a2 = u8 [a1 + 0xf]\n  5531: a4 = a4 << 0x8\n  5534: a4 = a4 | a5\n  5537: s1 = s1 << 0x10\n  5540: a2 = a2 << 0x18\n  5543: a2 = a2 | s1\n  5546: a2 = a2 | a4\n  5549: a2 = a2 << 0x20\n  5552: a4 = a2 | a0\n  5555: a0 = u8 [a1 + 0x1]\n  5558: a2 = u8 [a1]\n  5560: a5 = u8 [a1 + 0x2]\n  5563: s1 = u8 [a1 + 0x3]\n  5566: a0 = a0 << 0x8\n  5569: a0 = a0 | a2\n  5572: a5 = a5 << 0x10\n  5575: s1 = s1 << 0x18\n  5578: a5 = a5 | s1\n  5581: a0 = a0 | a5\n  5584: a2 = u8 [a1 + 0x5]\n  5587: a5 = u8 [a1 + 0x4]\n  5590: s1 = u8 [a1 + 0x6]\n  5593: a1 = u8 [a1 + 0x7]\n  5596: a2 = a2 << 0x8\n  5599: a2 = a2 | a5\n  5602: s1 = s1 << 0x10\n  5605: a1 = a1 << 0x18\n  5608: a1 = a1 | s1\n  5611: a1 = a1 | a2\n  5614: a1 = a1 << 0x20\n  5617: a0 = a0 | a1\n  5620: a0 = 0 if t1 != 0\n  5622: a4 = 0 if t1 != 0\n  5624: a3 = 0 if t1 != 0\n  5626: t0 = 0 if t1 != 0\n  5628: a1 = u64 [sp + 0x18]\n  5631: u64 [a1 + 0x18] = t0\n  5634: u64 [a1 + 0x10] = a3\n  5637: u64 [a1 + 0x8] = a4\n  5640: u64 [a1] = a0\n  5642: sp = s0 + 0xfffffffffffffec0\n  5646: ra = u64 [sp + 0x138]\n  5650: s0 = u64 [sp + 0x130]\n  5654: s1 = u64 [sp + 0x128]\n  5658: sp = sp + 0x140\n  5662: ret\n      : @104 (gas: 2)\n  5664: a0 = 0\n  5666: ra = 100, jump @0\n      : @105 [@dyn 50] (gas: 6)\n  5671: i32 a1 = a0 + 0\n  5673: a0 = 0x1\n  5676: a2 = 0\n  5678: ra = 0x66\n  5681: ecalli 14 // 'seal_return'\n  5683: fallthrough\n      : @106 [@dyn 51] (gas: 17)\n  5684: sp = sp + 0xffffffffffffffa8\n  5687: u64 [sp + 0x50] = ra\n  5690: u64 [sp + 0x48] = s0\n  5693: u64 [sp + 0x40] = s1\n  5696: a3 = u64 [a1 + 0x10]\n  5699: s1 = u64 [a1 + 0x18]\n  5702: a5 = u64 [a1 + 0x8]\n  5705: s0 = u64 [a1]\n  5707: a4 = a5 | s1\n  5710: a1 = s0 | a3\n  5713: a1 = a1 | a4\n  5716: a1 = a1 >> 0x20\n  5719: a4 = a4 | a3\n  5722: a4 = a4 << 0x20\n  5725: a1 = a1 | a4\n  5728: u64 [sp + 0x38] = a0\n  5731: jump @109 if a1 != 0\n      : @107 (gas: 22)\n  5735: a0 = u64 [a2 + 0x18]\n  5738: u64 [sp] = a0\n  5740: a0 = u64 [a2 + 0x10]\n  5743: u64 [sp + 0x8] = a0\n  5746: a0 = u64 [a2 + 0x8]\n  5749: u64 [sp + 0x10] = a0\n  5752: a0 = u64 [a2]\n  5754: u64 [sp + 0x18] = a0\n  5757: a0 = s0 + 0x20\n  5760: u64 [sp + 0x30] = a0\n  5763: a0 = a0 <u s0\n  5766: a1 = a5 + a0\n  5769: u64 [sp + 0x28] = a1\n  5772: a1 = a1 <u a5\n  5775: a1 = a0 if a0 == 0\n  5778: a1 = a1 + a3\n  5781: u64 [sp + 0x20] = a1\n  5784: a0 = a1 <u a3\n  5787: s1 = s1 + a0\n  5790: i32 a0 = s0 + 0\n  5792: a1 = 0x20\n  5795: ra = 104, jump @0\n      : @108 [@dyn 52] (gas: 81)\n  5800: a1 = u64 [sp]\n  5802: a1 = reverse a1\n  5804: a2 = u64 [sp + 0x8]\n  5807: a2 = reverse a2\n  5809: a3 = u64 [sp + 0x10]\n  5812: a3 = reverse a3\n  5814: a4 = u64 [sp + 0x18]\n  5817: a4 = reverse a4\n  5819: a5 = a4 >> 0x38\n  5822: u8 [a0 + 0x1f] = a5\n  5825: a5 = a4 >> 0x30\n  5828: u8 [a0 + 0x1e] = a5\n  5831: a5 = a4 >> 0x28\n  5834: u8 [a0 + 0x1d] = a5\n  5837: a5 = a4 >> 0x20\n  5840: u8 [a0 + 0x1c] = a5\n  5843: a5 = a4 >> 0x18\n  5846: u8 [a0 + 0x1b] = a5\n  5849: a5 = a4 >> 0x10\n  5852: u8 [a0 + 0x1a] = a5\n  5855: a5 = a4 >> 0x8\n  5858: u8 [a0 + 0x19] = a5\n  5861: u8 [a0 + 0x18] = a4\n  5864: u8 [a0 + 0x10] = a3\n  5867: a4 = a3 >> 0x38\n  5870: u8 [a0 + 0x17] = a4\n  5873: a4 = a3 >> 0x30\n  5876: u8 [a0 + 0x16] = a4\n  5879: a4 = a3 >> 0x28\n  5882: u8 [a0 + 0x15] = a4\n  5885: a4 = a3 >> 0x20\n  5888: u8 [a0 + 0x14] = a4\n  5891: a4 = a3 >> 0x18\n  5894: u8 [a0 + 0x13] = a4\n  5897: a4 = a3 >> 0x10\n  5900: u8 [a0 + 0x12] = a4\n  5903: a3 = a3 >> 0x8\n  5906: u8 [a0 + 0x11] = a3\n  5909: u8 [a0 + 0x8] = a2\n  5912: a3 = a2 >> 0x38\n  5915: u8 [a0 + 0xf] = a3\n  5918: a3 = a2 >> 0x30\n  5921: u8 [a0 + 0xe] = a3\n  5924: a3 = a2 >> 0x28\n  5927: u8 [a0 + 0xd] = a3\n  5930: a3 = a2 >> 0x20\n  5933: u8 [a0 + 0xc] = a3\n  5936: a3 = a2 >> 0x18\n  5939: u8 [a0 + 0xb] = a3\n  5942: a3 = a2 >> 0x10\n  5945: u8 [a0 + 0xa] = a3\n  5948: a2 = a2 >> 0x8\n  5951: u8 [a0 + 0x9] = a2\n  5954: u8 [a0] = a1\n  5956: a2 = a1 >> 0x38\n  5959: u8 [a0 + 0x7] = a2\n  5962: a2 = a1 >> 0x30\n  5965: u8 [a0 + 0x6] = a2\n  5968: a2 = a1 >> 0x28\n  5971: u8 [a0 + 0x5] = a2\n  5974: a2 = a1 >> 0x20\n  5977: u8 [a0 + 0x4] = a2\n  5980: a2 = a1 >> 0x18\n  5983: u8 [a0 + 0x3] = a2\n  5986: a2 = a1 >> 0x10\n  5989: u8 [a0 + 0x2] = a2\n  5992: a1 = a1 >> 0x8\n  5995: u8 [a0 + 0x1] = a1\n  5998: a0 = u64 [sp + 0x38]\n  6001: a1 = u64 [sp + 0x30]\n  6004: u64 [a0] = a1\n  6006: a1 = u64 [sp + 0x28]\n  6009: u64 [a0 + 0x8] = a1\n  6012: a1 = u64 [sp + 0x20]\n  6015: u64 [a0 + 0x10] = a1\n  6018: u64 [a0 + 0x18] = s1\n  6021: ra = u64 [sp + 0x50]\n  6024: s0 = u64 [sp + 0x48]\n  6027: s1 = u64 [sp + 0x40]\n  6030: sp = sp + 0x58\n  6033: ret\n      : @109 (gas: 1)\n  6035: trap\n      : @110 (gas: 8)\n  6036: a0 = u64 [sp + 0x70]\n  6039: a1 = u64 [sp + 0x78]\n  6042: a2 = u64 [sp + 0x68]\n  6045: a3 = u64 [sp + 0x60]\n  6048: a1 = a1 | a2\n  6051: a0 = a0 | a3\n  6054: a0 = a0 | a1\n  6057: jump @116 if a0 != 0\n      : @111 (gas: 2)\n  6061: a0 = i32 [0x20084]\n  6066: jump @116 if a0 <=u 35\n      : @112 (gas: 44)\n  6071: i32 a0 = sp + 0x80\n  6075: a1 = 0x4\n  6078: ecalli 3 // 'call_data_load'\n  6080: a2 = u64 [sp + 0x80]\n  6084: a0 = u64 [sp + 0x88]\n  6088: a1 = u64 [sp + 0x90]\n  6092: a3 = u64 [sp + 0x98]\n  6096: u64 [sp + 0x38] = a3\n  6099: u64 [sp + 0x30] = a1\n  6102: u64 [sp + 0x28] = a0\n  6105: a0 = sp + 0x40\n  6108: a1 = sp + 0x20\n  6111: u64 [sp + 0x20] = a2\n  6114: ra = 0x6a\n  6117: sp = sp + 0xfffffffffffffec0\n  6121: u64 [sp + 0x138] = ra\n  6125: u64 [sp + 0x130] = s0\n  6129: u64 [sp + 0x128] = s1\n  6133: s0 = sp + 0x140\n  6137: sp = sp & 0xffffffffffffffe0\n  6140: u64 [sp + 0x18] = a0\n  6143: a0 = u64 [a1]\n  6145: u64 [sp + 0x8] = a0\n  6148: a0 = u64 [a1 + 0x8]\n  6151: u64 [sp] = a0\n  6153: a0 = u64 [a1 + 0x10]\n  6156: u64 [sp + 0x10] = a0\n  6159: s1 = u64 [a1 + 0x18]\n  6162: u64 [sp + 248] = 0\n  6166: u64 [sp + 240] = 0\n  6170: u64 [sp + 232] = 0\n  6174: u64 [sp + 224] = 0x1\n  6179: u64 [sp + 280] = 0\n  6183: u64 [sp + 272] = 0\n  6187: u64 [sp + 264] = 0\n  6191: u64 [sp + 256] = 0\n  6195: u32 [sp + 288] = 0x20\n  6200: i32 a1 = sp + 0xe0\n  6204: i32 a3 = sp + 0x100\n  6208: i32 a4 = sp + 0x120\n  6212: a2 = 0xffffffffffffffff\n  6215: a0 = 0\n  6217: ecalli 8 // 'get_storage'\n  6219: jump @101\n      : @113 [@dyn 53] (gas: 11)\n  6222: a0 = u64 [sp + 0x58]\n  6225: u64 [sp] = a0\n  6227: a0 = u64 [sp + 0x50]\n  6230: u64 [sp + 0x8] = a0\n  6233: a0 = u64 [sp + 0x48]\n  6236: u64 [sp + 0x10] = a0\n  6239: a0 = u64 [sp + 0x40]\n  6242: u64 [sp + 0x18] = a0\n  6245: a0 = 0x40\n  6248: a1 = 0x20\n  6251: ra = 108, jump @0\n      : @114 [@dyn 54] (gas: 100)\n  6256: a1 = u8 [a0 + 0x11]\n  6259: a2 = u8 [a0 + 0x10]\n  6262: a3 = u8 [a0 + 0x12]\n  6265: a4 = u8 [a0 + 0x13]\n  6268: a1 = a1 << 0x8\n  6271: a1 = a1 | a2\n  6274: a3 = a3 << 0x10\n  6277: a4 = a4 << 0x18\n  6280: a3 = a3 | a4\n  6283: a1 = a1 | a3\n  6286: a2 = u8 [a0 + 0x15]\n  6289: a3 = u8 [a0 + 0x14]\n  6292: a4 = u8 [a0 + 0x16]\n  6295: a5 = u8 [a0 + 0x17]\n  6298: a2 = a2 << 0x8\n  6301: a2 = a2 | a3\n  6304: a4 = a4 << 0x10\n  6307: a5 = a5 << 0x18\n  6310: a4 = a4 | a5\n  6313: a2 = a2 | a4\n  6316: a2 = a2 << 0x20\n  6319: t0 = a2 | a1\n  6322: a2 = u8 [a0 + 0x1]\n  6325: a3 = u8 [a0]\n  6327: a4 = u8 [a0 + 0x2]\n  6330: a5 = u8 [a0 + 0x3]\n  6333: a2 = a2 << 0x8\n  6336: a2 = a2 | a3\n  6339: a4 = a4 << 0x10\n  6342: a5 = a5 << 0x18\n  6345: a4 = a4 | a5\n  6348: a2 = a2 | a4\n  6351: a3 = u8 [a0 + 0x5]\n  6354: a4 = u8 [a0 + 0x4]\n  6357: a5 = u8 [a0 + 0x6]\n  6360: s1 = u8 [a0 + 0x7]\n  6363: a3 = a3 << 0x8\n  6366: a3 = a3 | a4\n  6369: a5 = a5 << 0x10\n  6372: s1 = s1 << 0x18\n  6375: a5 = a5 | s1\n  6378: a3 = a3 | a5\n  6381: a3 = a3 << 0x20\n  6384: a2 = a2 | a3\n  6387: a3 = u8 [a0 + 0x19]\n  6390: a4 = u8 [a0 + 0x18]\n  6393: a5 = u8 [a0 + 0x1a]\n  6396: s1 = u8 [a0 + 0x1b]\n  6399: a3 = a3 << 0x8\n  6402: a3 = a3 | a4\n  6405: a5 = a5 << 0x10\n  6408: s1 = s1 << 0x18\n  6411: a5 = a5 | s1\n  6414: a3 = a3 | a5\n  6417: a4 = u8 [a0 + 0x1d]\n  6420: a5 = u8 [a0 + 0x1c]\n  6423: s1 = u8 [a0 + 0x1e]\n  6426: a1 = u8 [a0 + 0x1f]\n  6429: a4 = a4 << 0x8\n  6432: a4 = a4 | a5\n  6435: s1 = s1 << 0x10\n  6438: a1 = a1 << 0x18\n  6441: a1 = a1 | s1\n  6444: a1 = a1 | a4\n  6447: a1 = a1 << 0x20\n  6450: a3 = a3 | a1\n  6453: a1 = u8 [a0 + 0x9]\n  6456: a4 = u8 [a0 + 0x8]\n  6459: a5 = u8 [a0 + 0xa]\n  6462: s1 = u8 [a0 + 0xb]\n  6465: a1 = a1 << 0x8\n  6468: a1 = a1 | a4\n  6471: a5 = a5 << 0x10\n  6474: s1 = s1 << 0x18\n  6477: a5 = a5 | s1\n  6480: a1 = a1 | a5\n  6483: a4 = u8 [a0 + 0xd]\n  6486: a5 = u8 [a0 + 0xc]\n  6489: s1 = u8 [a0 + 0xe]\n  6492: a0 = u8 [a0 + 0xf]\n  6495: a4 = a4 << 0x8\n  6498: a4 = a4 | a5\n  6501: s1 = s1 << 0x10\n  6504: a0 = a0 << 0x18\n  6507: a0 = a0 | s1\n  6510: a0 = a0 | a4\n  6513: a0 = a0 << 0x20\n  6516: a0 = a0 | a1\n  6519: a1 = reverse a0\n  6521: a0 = reverse a3\n  6523: a2 = reverse a2\n  6525: a3 = reverse t0\n  6527: a2 = a2 | a3\n  6530: a3 = a0 | a1\n  6533: a3 = a3 | a2\n  6536: a3 = a3 >> 0x20\n  6539: a1 = a1 | a2\n  6542: a1 = a1 << 0x20\n  6545: a1 = a1 | a3\n  6548: jump @118 if a1 == 0\n      : @115 (gas: 1)\n  6551: trap\n      : @116 (gas: 3)\n  6552: a0 = 0\n  6554: a1 = 0\n  6556: ra = 110, jump @0\n      : @117 [@dyn 55] (gas: 5)\n  6561: i32 a1 = a0 + 0\n  6563: a0 = 0x1\n  6566: a2 = 0\n  6568: ecalli 14 // 'seal_return'\n  6570: fallthrough\n      : @118 (gas: 4)\n  6571: i32 s1 = a0 + 0\n  6573: a1 = 0x20\n  6576: a0 = s1\n  6578: ra = 112, jump @0\n      : @119 [@dyn 56] (gas: 71)\n  6583: a1 = u64 [sp]\n  6585: a1 = reverse a1\n  6587: a2 = u64 [sp + 0x8]\n  6590: a2 = reverse a2\n  6592: a3 = u64 [sp + 0x10]\n  6595: a3 = reverse a3\n  6597: a4 = u64 [sp + 0x18]\n  6600: a4 = reverse a4\n  6602: a5 = a4 >> 0x38\n  6605: u8 [a0 + 0x1f] = a5\n  6608: a5 = a4 >> 0x30\n  6611: u8 [a0 + 0x1e] = a5\n  6614: a5 = a4 >> 0x28\n  6617: u8 [a0 + 0x1d] = a5\n  6620: a5 = a4 >> 0x20\n  6623: u8 [a0 + 0x1c] = a5\n  6626: a5 = a4 >> 0x18\n  6629: u8 [a0 + 0x1b] = a5\n  6632: a5 = a4 >> 0x10\n  6635: u8 [a0 + 0x1a] = a5\n  6638: a5 = a4 >> 0x8\n  6641: u8 [a0 + 0x19] = a5\n  6644: u8 [a0 + 0x18] = a4\n  6647: u8 [a0 + 0x10] = a3\n  6650: a4 = a3 >> 0x38\n  6653: u8 [a0 + 0x17] = a4\n  6656: a4 = a3 >> 0x30\n  6659: u8 [a0 + 0x16] = a4\n  6662: a4 = a3 >> 0x28\n  6665: u8 [a0 + 0x15] = a4\n  6668: a4 = a3 >> 0x20\n  6671: u8 [a0 + 0x14] = a4\n  6674: a4 = a3 >> 0x18\n  6677: u8 [a0 + 0x13] = a4\n  6680: a4 = a3 >> 0x10\n  6683: u8 [a0 + 0x12] = a4\n  6686: a3 = a3 >> 0x8\n  6689: u8 [a0 + 0x11] = a3\n  6692: u8 [a0 + 0x8] = a2\n  6695: a3 = a2 >> 0x38\n  6698: u8 [a0 + 0xf] = a3\n  6701: a3 = a2 >> 0x30\n  6704: u8 [a0 + 0xe] = a3\n  6707: a3 = a2 >> 0x28\n  6710: u8 [a0 + 0xd] = a3\n  6713: a3 = a2 >> 0x20\n  6716: u8 [a0 + 0xc] = a3\n  6719: a3 = a2 >> 0x18\n  6722: u8 [a0 + 0xb] = a3\n  6725: a3 = a2 >> 0x10\n  6728: u8 [a0 + 0xa] = a3\n  6731: a2 = a2 >> 0x8\n  6734: u8 [a0 + 0x9] = a2\n  6737: u8 [a0] = a1\n  6739: a2 = a1 >> 0x38\n  6742: u8 [a0 + 0x7] = a2\n  6745: a2 = a1 >> 0x30\n  6748: u8 [a0 + 0x6] = a2\n  6751: a2 = a1 >> 0x28\n  6754: u8 [a0 + 0x5] = a2\n  6757: a2 = a1 >> 0x20\n  6760: u8 [a0 + 0x4] = a2\n  6763: a2 = a1 >> 0x18\n  6766: u8 [a0 + 0x3] = a2\n  6769: a2 = a1 >> 0x10\n  6772: u8 [a0 + 0x2] = a2\n  6775: a1 = a1 >> 0x8\n  6778: u8 [a0 + 0x1] = a1\n  6781: a1 = 0x20\n  6784: a0 = s1\n  6786: ra = 114, jump @0\n      : @120 [@dyn 57] (gas: 6)\n  6791: i32 a1 = a0 + 0\n  6793: a2 = 0x20\n  6796: a0 = 0\n  6798: ra = 0x74\n  6801: ecalli 14 // 'seal_return'\n  6803: fallthrough\n      : @121 [@dyn 58] (gas: 9)\n  6804: a2 = u64 [a1 + 0x18]\n  6807: a3 = u64 [a1 + 0x10]\n  6810: a4 = u64 [a1 + 0x8]\n  6813: a1 = u64 [a1]\n  6815: u64 [a0 + 0x18] = a2\n  6818: u64 [a0 + 0x10] = a3\n  6821: u64 [a0 + 0x8] = a4\n  6824: u64 [a0] = a1\n  6826: ret\n      : @122 (gas: 8)\n  6828: a0 = u64 [sp + 0x30]\n  6831: a1 = u64 [sp + 0x38]\n  6834: a2 = u64 [sp + 0x28]\n  6837: a3 = u64 [sp + 0x20]\n  6840: a1 = a1 | a2\n  6843: a0 = a0 | a3\n  6846: a0 = a0 | a1\n  6849: jump @130 if a0 != 0\n      : @123 (gas: 2)\n  6853: a0 = i32 [0x20084]\n  6858: jump @130 if a0 <=u 35\n      : @124 (gas: 13)\n  6863: i32 a0 = sp + 0x60\n  6866: a1 = 0x4\n  6869: ecalli 3 // 'call_data_load'\n  6871: a0 = u64 [sp + 0x60]\n  6874: u64 [sp + 0x18] = a0\n  6877: a0 = u64 [sp + 0x68]\n  6880: u64 [sp + 0x10] = a0\n  6883: a0 = u64 [sp + 0x70]\n  6886: u64 [sp + 0x8] = a0\n  6889: s1 = u64 [sp + 0x78]\n  6892: a1 = 0x20\n  6895: a0 = 0\n  6897: ra = 118, jump @0\n      : @125 [@dyn 59] (gas: 70)\n  6902: a1 = reverse s1\n  6904: a2 = u64 [sp + 0x8]\n  6907: a2 = reverse a2\n  6909: a3 = u64 [sp + 0x10]\n  6912: a3 = reverse a3\n  6914: a4 = u64 [sp + 0x18]\n  6917: a4 = reverse a4\n  6919: a5 = a4 >> 0x38\n  6922: u8 [a0 + 0x1f] = a5\n  6925: a5 = a4 >> 0x30\n  6928: u8 [a0 + 0x1e] = a5\n  6931: a5 = a4 >> 0x28\n  6934: u8 [a0 + 0x1d] = a5\n  6937: a5 = a4 >> 0x20\n  6940: u8 [a0 + 0x1c] = a5\n  6943: a5 = a4 >> 0x18\n  6946: u8 [a0 + 0x1b] = a5\n  6949: a5 = a4 >> 0x10\n  6952: u8 [a0 + 0x1a] = a5\n  6955: a5 = a4 >> 0x8\n  6958: u8 [a0 + 0x19] = a5\n  6961: u8 [a0 + 0x18] = a4\n  6964: a4 = a3 >> 0x38\n  6967: u8 [a0 + 0x17] = a4\n  6970: a4 = a3 >> 0x30\n  6973: u8 [a0 + 0x16] = a4\n  6976: a4 = a3 >> 0x28\n  6979: u8 [a0 + 0x15] = a4\n  6982: a4 = a3 >> 0x20\n  6985: u8 [a0 + 0x14] = a4\n  6988: a4 = a3 >> 0x18\n  6991: u8 [a0 + 0x13] = a4\n  6994: a4 = a3 >> 0x10\n  6997: u8 [a0 + 0x12] = a4\n  7000: a4 = a3 >> 0x8\n  7003: u8 [a0 + 0x11] = a4\n  7006: u8 [a0 + 0x10] = a3\n  7009: a3 = a2 >> 0x38\n  7012: u8 [a0 + 0xf] = a3\n  7015: a3 = a2 >> 0x30\n  7018: u8 [a0 + 0xe] = a3\n  7021: a3 = a2 >> 0x28\n  7024: u8 [a0 + 0xd] = a3\n  7027: a3 = a2 >> 0x20\n  7030: u8 [a0 + 0xc] = a3\n  7033: a3 = a2 >> 0x18\n  7036: u8 [a0 + 0xb] = a3\n  7039: a3 = a2 >> 0x10\n  7042: u8 [a0 + 0xa] = a3\n  7045: a3 = a2 >> 0x8\n  7048: u8 [a0 + 0x9] = a3\n  7051: u8 [a0 + 0x8] = a2\n  7054: a2 = a1 >> 0x38\n  7057: u8 [a0 + 0x7] = a2\n  7060: a2 = a1 >> 0x30\n  7063: u8 [a0 + 0x6] = a2\n  7066: a2 = a1 >> 0x28\n  7069: u8 [a0 + 0x5] = a2\n  7072: a2 = a1 >> 0x20\n  7075: u8 [a0 + 0x4] = a2\n  7078: a2 = a1 >> 0x18\n  7081: u8 [a0 + 0x3] = a2\n  7084: a2 = a1 >> 0x10\n  7087: u8 [a0 + 0x2] = a2\n  7090: a2 = a1 >> 0x8\n  7093: u8 [a0 + 0x1] = a2\n  7096: u8 [a0] = a1\n  7098: a0 = 0x20\n  7101: a1 = 0x20\n  7104: ra = 120, jump @0\n      : @126 [@dyn 60] (gas: 35)\n  7109: u8 [a0 + 31] = 0x2\n  7113: u8 [a0 + 30] = 0\n  7116: u8 [a0 + 29] = 0\n  7119: u8 [a0 + 28] = 0\n  7122: u8 [a0 + 27] = 0\n  7125: u8 [a0 + 26] = 0\n  7128: u8 [a0 + 25] = 0\n  7131: u8 [a0 + 24] = 0\n  7134: u8 [a0 + 23] = 0\n  7137: u8 [a0 + 22] = 0\n  7140: u8 [a0 + 21] = 0\n  7143: u8 [a0 + 20] = 0\n  7146: u8 [a0 + 19] = 0\n  7149: u8 [a0 + 18] = 0\n  7152: u8 [a0 + 17] = 0\n  7155: u8 [a0 + 16] = 0\n  7158: u8 [a0 + 15] = 0\n  7161: u8 [a0 + 14] = 0\n  7164: u8 [a0 + 13] = 0\n  7167: u8 [a0 + 12] = 0\n  7170: u8 [a0 + 11] = 0\n  7173: u8 [a0 + 10] = 0\n  7176: u8 [a0 + 9] = 0\n  7179: u8 [a0 + 8] = 0\n  7182: u8 [a0 + 7] = 0\n  7185: u8 [a0 + 6] = 0\n  7188: u8 [a0 + 5] = 0\n  7191: u8 [a0 + 4] = 0\n  7194: u8 [a0 + 3] = 0\n  7197: u8 [a0 + 2] = 0\n  7200: u8 [a0 + 1] = 0\n  7203: u8 [a0 + 0] = 0\n  7205: a1 = 0x40\n  7208: a0 = 0\n  7210: ra = 122, jump @0\n      : @127 [@dyn 61] (gas: 38)\n  7215: i32 a0 = a0 + 0\n  7217: i32 a2 = sp + 0x60\n  7220: a1 = 0x40\n  7223: ecalli 9 // 'hash_keccak_256'\n  7225: a0 = u64 [sp + 0x78]\n  7228: a1 = u64 [sp + 0x70]\n  7231: a2 = u64 [sp + 0x68]\n  7234: a3 = u64 [sp + 0x60]\n  7237: a0 = reverse a0\n  7239: a1 = reverse a1\n  7241: a2 = reverse a2\n  7243: a3 = reverse a3\n  7245: u64 [sp + 0x58] = a3\n  7248: u64 [sp + 0x50] = a2\n  7251: u64 [sp + 0x48] = a1\n  7254: u64 [sp + 0x40] = a0\n  7257: u64 [sp + 120] = 0\n  7260: u64 [sp + 112] = 0\n  7263: u64 [sp + 104] = 0\n  7266: u64 [sp + 96] = 0\n  7269: u32 [sp + 128] = 0x20\n  7274: i32 a1 = sp + 0x40\n  7277: i32 a3 = sp + 0x60\n  7280: i32 a4 = sp + 0x80\n  7284: a2 = 0xffffffffffffffff\n  7287: a0 = 0\n  7289: ecalli 8 // 'get_storage'\n  7291: a0 = u64 [sp + 0x78]\n  7294: u64 [sp] = a0\n  7296: a0 = u64 [sp + 0x70]\n  7299: u64 [sp + 0x8] = a0\n  7302: a0 = u64 [sp + 0x68]\n  7305: u64 [sp + 0x10] = a0\n  7308: a0 = u64 [sp + 0x60]\n  7311: u64 [sp + 0x18] = a0\n  7314: a0 = 0x40\n  7317: a1 = 0x20\n  7320: ra = 124, jump @0\n      : @128 [@dyn 62] (gas: 100)\n  7325: a1 = u8 [a0 + 0x11]\n  7328: a2 = u8 [a0 + 0x10]\n  7331: a3 = u8 [a0 + 0x12]\n  7334: a4 = u8 [a0 + 0x13]\n  7337: a1 = a1 << 0x8\n  7340: a1 = a1 | a2\n  7343: a3 = a3 << 0x10\n  7346: a4 = a4 << 0x18\n  7349: a3 = a3 | a4\n  7352: a1 = a1 | a3\n  7355: a2 = u8 [a0 + 0x15]\n  7358: a3 = u8 [a0 + 0x14]\n  7361: a4 = u8 [a0 + 0x16]\n  7364: a5 = u8 [a0 + 0x17]\n  7367: a2 = a2 << 0x8\n  7370: a2 = a2 | a3\n  7373: a4 = a4 << 0x10\n  7376: a5 = a5 << 0x18\n  7379: a4 = a4 | a5\n  7382: a2 = a2 | a4\n  7385: a2 = a2 << 0x20\n  7388: t0 = a2 | a1\n  7391: a2 = u8 [a0 + 0x1]\n  7394: a3 = u8 [a0]\n  7396: a4 = u8 [a0 + 0x2]\n  7399: a5 = u8 [a0 + 0x3]\n  7402: a2 = a2 << 0x8\n  7405: a2 = a2 | a3\n  7408: a4 = a4 << 0x10\n  7411: a5 = a5 << 0x18\n  7414: a4 = a4 | a5\n  7417: a2 = a2 | a4\n  7420: a3 = u8 [a0 + 0x5]\n  7423: a4 = u8 [a0 + 0x4]\n  7426: a5 = u8 [a0 + 0x6]\n  7429: s1 = u8 [a0 + 0x7]\n  7432: a3 = a3 << 0x8\n  7435: a3 = a3 | a4\n  7438: a5 = a5 << 0x10\n  7441: s1 = s1 << 0x18\n  7444: a5 = a5 | s1\n  7447: a3 = a3 | a5\n  7450: a3 = a3 << 0x20\n  7453: a2 = a2 | a3\n  7456: a3 = u8 [a0 + 0x19]\n  7459: a4 = u8 [a0 + 0x18]\n  7462: a5 = u8 [a0 + 0x1a]\n  7465: s1 = u8 [a0 + 0x1b]\n  7468: a3 = a3 << 0x8\n  7471: a3 = a3 | a4\n  7474: a5 = a5 << 0x10\n  7477: s1 = s1 << 0x18\n  7480: a5 = a5 | s1\n  7483: a3 = a3 | a5\n  7486: a4 = u8 [a0 + 0x1d]\n  7489: a5 = u8 [a0 + 0x1c]\n  7492: s1 = u8 [a0 + 0x1e]\n  7495: a1 = u8 [a0 + 0x1f]\n  7498: a4 = a4 << 0x8\n  7501: a4 = a4 | a5\n  7504: s1 = s1 << 0x10\n  7507: a1 = a1 << 0x18\n  7510: a1 = a1 | s1\n  7513: a1 = a1 | a4\n  7516: a1 = a1 << 0x20\n  7519: a3 = a3 | a1\n  7522: a1 = u8 [a0 + 0x9]\n  7525: a4 = u8 [a0 + 0x8]\n  7528: a5 = u8 [a0 + 0xa]\n  7531: s1 = u8 [a0 + 0xb]\n  7534: a1 = a1 << 0x8\n  7537: a1 = a1 | a4\n  7540: a5 = a5 << 0x10\n  7543: s1 = s1 << 0x18\n  7546: a5 = a5 | s1\n  7549: a1 = a1 | a5\n  7552: a4 = u8 [a0 + 0xd]\n  7555: a5 = u8 [a0 + 0xc]\n  7558: s1 = u8 [a0 + 0xe]\n  7561: a0 = u8 [a0 + 0xf]\n  7564: a4 = a4 << 0x8\n  7567: a4 = a4 | a5\n  7570: s1 = s1 << 0x10\n  7573: a0 = a0 << 0x18\n  7576: a0 = a0 | s1\n  7579: a0 = a0 | a4\n  7582: a0 = a0 << 0x20\n  7585: a0 = a0 | a1\n  7588: a1 = reverse a0\n  7590: a0 = reverse a3\n  7592: a2 = reverse a2\n  7594: a3 = reverse t0\n  7596: a2 = a2 | a3\n  7599: a3 = a0 | a1\n  7602: a3 = a3 | a2\n  7605: a3 = a3 >> 0x20\n  7608: a1 = a1 | a2\n  7611: a1 = a1 << 0x20\n  7614: a1 = a1 | a3\n  7617: jump @132 if a1 == 0\n      : @129 (gas: 1)\n  7620: trap\n      : @130 (gas: 3)\n  7621: a0 = 0\n  7623: a1 = 0\n  7625: ra = 126, jump @0\n      : @131 [@dyn 63] (gas: 5)\n  7630: i32 a1 = a0 + 0\n  7632: a0 = 0x1\n  7635: a2 = 0\n  7637: ecalli 14 // 'seal_return'\n  7639: fallthrough\n      : @132 (gas: 4)\n  7640: i32 s1 = a0 + 0\n  7642: a1 = 0x20\n  7645: a0 = s1\n  7647: ra = 128, jump @0\n      : @133 [@dyn 64] (gas: 71)\n  7653: a1 = u64 [sp]\n  7655: a1 = reverse a1\n  7657: a2 = u64 [sp + 0x8]\n  7660: a2 = reverse a2\n  7662: a3 = u64 [sp + 0x10]\n  7665: a3 = reverse a3\n  7667: a4 = u64 [sp + 0x18]\n  7670: a4 = reverse a4\n  7672: a5 = a4 >> 0x38\n  7675: u8 [a0 + 0x1f] = a5\n  7678: a5 = a4 >> 0x30\n  7681: u8 [a0 + 0x1e] = a5\n  7684: a5 = a4 >> 0x28\n  7687: u8 [a0 + 0x1d] = a5\n  7690: a5 = a4 >> 0x20\n  7693: u8 [a0 + 0x1c] = a5\n  7696: a5 = a4 >> 0x18\n  7699: u8 [a0 + 0x1b] = a5\n  7702: a5 = a4 >> 0x10\n  7705: u8 [a0 + 0x1a] = a5\n  7708: a5 = a4 >> 0x8\n  7711: u8 [a0 + 0x19] = a5\n  7714: u8 [a0 + 0x18] = a4\n  7717: u8 [a0 + 0x10] = a3\n  7720: a4 = a3 >> 0x38\n  7723: u8 [a0 + 0x17] = a4\n  7726: a4 = a3 >> 0x30\n  7729: u8 [a0 + 0x16] = a4\n  7732: a4 = a3 >> 0x28\n  7735: u8 [a0 + 0x15] = a4\n  7738: a4 = a3 >> 0x20\n  7741: u8 [a0 + 0x14] = a4\n  7744: a4 = a3 >> 0x18\n  7747: u8 [a0 + 0x13] = a4\n  7750: a4 = a3 >> 0x10\n  7753: u8 [a0 + 0x12] = a4\n  7756: a3 = a3 >> 0x8\n  7759: u8 [a0 + 0x11] = a3\n  7762: u8 [a0 + 0x8] = a2\n  7765: a3 = a2 >> 0x38\n  7768: u8 [a0 + 0xf] = a3\n  7771: a3 = a2 >> 0x30\n  7774: u8 [a0 + 0xe] = a3\n  7777: a3 = a2 >> 0x28\n  7780: u8 [a0 + 0xd] = a3\n  7783: a3 = a2 >> 0x20\n  7786: u8 [a0 + 0xc] = a3\n  7789: a3 = a2 >> 0x18\n  7792: u8 [a0 + 0xb] = a3\n  7795: a3 = a2 >> 0x10\n  7798: u8 [a0 + 0xa] = a3\n  7801: a2 = a2 >> 0x8\n  7804: u8 [a0 + 0x9] = a2\n  7807: u8 [a0] = a1\n  7809: a2 = a1 >> 0x38\n  7812: u8 [a0 + 0x7] = a2\n  7815: a2 = a1 >> 0x30\n  7818: u8 [a0 + 0x6] = a2\n  7821: a2 = a1 >> 0x28\n  7824: u8 [a0 + 0x5] = a2\n  7827: a2 = a1 >> 0x20\n  7830: u8 [a0 + 0x4] = a2\n  7833: a2 = a1 >> 0x18\n  7836: u8 [a0 + 0x3] = a2\n  7839: a2 = a1 >> 0x10\n  7842: u8 [a0 + 0x2] = a2\n  7845: a1 = a1 >> 0x8\n  7848: u8 [a0 + 0x1] = a1\n  7851: a1 = 0x20\n  7854: a0 = s1\n  7856: ra = 130, jump @0\n      : @134 [@dyn 65] (gas: 6)\n  7862: i32 a1 = a0 + 0\n  7864: a2 = 0x20\n  7867: a0 = 0\n  7869: ra = 0x84\n  7873: ecalli 14 // 'seal_return'\n  7875: fallthrough\n      : @135 [@dyn 66] (gas: 37)\n  7876: sp = sp + 0xffffffffffffff60\n  7880: u64 [sp + 0x98] = ra\n  7884: u64 [sp + 0x90] = s0\n  7888: u64 [sp + 0x88] = s1\n  7892: s0 = sp + 0xa0\n  7896: sp = sp & 0xffffffffffffffe0\n  7899: a4 = u64 [a1]\n  7901: s1 = u64 [a2 + 0x8]\n  7904: ra = u64 [a1 + 0x8]\n  7907: t1 = u64 [a2]\n  7909: a3 = a4 + 0x1f\n  7912: u64 [sp + 0x58] = a4\n  7915: t0 = a3 <u a4\n  7918: a5 = ra + t0\n  7921: u64 [sp + 0x40] = t1\n  7924: t1 = a3 <u t1\n  7927: a3 = a5 ^ s1\n  7930: u64 [sp + 0x48] = s1\n  7933: a4 = a5 <u s1\n  7936: a4 = t1 if a3 == 0\n  7939: t2 = u64 [a1 + 0x10]\n  7942: a3 = a5 <u ra\n  7945: a3 = t0 if t0 == 0\n  7948: t0 = u64 [a2 + 0x18]\n  7951: t1 = u64 [a1 + 0x18]\n  7954: s1 = u64 [a2 + 0x10]\n  7957: a3 = a3 + t2\n  7960: a1 = a3 <u t2\n  7963: a1 = a1 + t1\n  7966: a2 = a1 ^ t0\n  7969: a1 = a1 <s t0\n  7972: a5 = a3 <u s1\n  7975: a1 = a5 if a2 == 0\n  7978: a3 = a3 ^ s1\n  7981: a2 = a2 | a3\n  7984: a4 = a1 if a2 != 0\n  7987: jump @142 if a4 == 0\n      : @136 (gas: 14)\n  7991: u64 [sp + 0x28] = t0\n  7994: u64 [sp + 0x30] = s1\n  7997: u64 [sp + 0x38] = a0\n  8000: a0 = u64 [sp + 0x58]\n  8003: a0 = a0 | t2\n  8006: u64 [sp + 0x18] = t1\n  8009: a1 = ra | t1\n  8012: a0 = a0 | a1\n  8015: a0 = a0 >> 0x20\n  8018: u64 [sp + 0x20] = t2\n  8021: a1 = a1 | t2\n  8024: a1 = a1 << 0x20\n  8027: a0 = a0 | a1\n  8030: jump @141 if a0 != 0\n      : @137 (gas: 5)\n  8034: s1 = ra\n  8036: a1 = i32 [sp + 0x58]\n  8039: i32 a0 = sp + 0x60\n  8042: ecalli 3 // 'call_data_load'\n  8044: fallthrough\n      : @138 (gas: 8)\n  8045: a0 = u64 [sp + 0x78]\n  8048: a1 = u64 [sp + 0x70]\n  8051: t1 = u64 [sp + 0x68]\n  8054: u64 [sp + 0x50] = a0\n  8057: a0 = a0 | a1\n  8060: a3 = t1 <u 0x1\n  8063: a3 = 0 if a0 != 0\n  8065: jump @142 if a3 == 0\n      : @139 (gas: 46)\n  8069: a2 = u64 [sp + 0x60]\n  8072: a0 = u64 [sp + 0x58]\n  8075: a4 = a0 + 0x20\n  8078: a0 = a4 <u a0\n  8081: ra = s1 + a0\n  8084: u64 [sp + 0x10] = a4\n  8087: a4 = a4 + a2\n  8090: u64 [sp + 0x58] = a2\n  8093: t0 = a4 <u a2\n  8096: a5 = t1 + ra\n  8099: a5 = a5 + t0\n  8102: a2 = a5 ^ t1\n  8105: a3 = a5 <u t1\n  8108: a3 = t0 if a2 == 0\n  8111: a2 = ra <u s1\n  8114: a2 = a0 if a0 == 0\n  8117: a0 = u64 [sp + 0x20]\n  8120: t2 = a0 + a2\n  8123: s1 = t2 <u a0\n  8126: a0 = u64 [sp + 0x18]\n  8129: a0 = a0 + s1\n  8132: s1 = u64 [sp + 0x48]\n  8135: a2 = a5 ^ s1\n  8138: a5 = s1 <u a5\n  8141: s1 = u64 [sp + 0x40]\n  8144: a4 = s1 <u a4\n  8147: a4 = a5 if a2 != 0\n  8150: a2 = a1 + t2\n  8153: a5 = a2 <u a1\n  8156: s1 = u64 [sp + 0x50]\n  8159: u64 [sp + 0x48] = a0\n  8162: s1 = s1 + a0\n  8165: a5 = a5 + s1\n  8168: a3 = a3 + a2\n  8171: a2 = a3 <u a2\n  8174: a2 = a2 + a5\n  8177: s1 = u64 [sp + 0x28]\n  8180: a5 = a2 ^ s1\n  8183: t0 = s1 <u a2\n  8186: a2 = u64 [sp + 0x30]\n  8189: s1 = a2 <u a3\n  8192: s1 = t0 if a5 != 0\n  8195: a2 = a2 ^ a3\n  8198: a2 = a2 | a5\n  8201: a4 = s1 if a2 != 0\n  8204: jump @142 if a4 != 0\n      : @140 (gas: 19)\n  8207: a2 = u64 [sp + 0x38]\n  8210: a0 = u64 [sp + 0x58]\n  8213: u64 [a2 + 0x20] = a0\n  8216: a0 = u64 [sp + 0x10]\n  8219: u64 [a2] = a0\n  8221: u64 [a2 + 0x28] = t1\n  8224: u64 [a2 + 0x8] = ra\n  8227: u64 [a2 + 0x30] = a1\n  8230: u64 [a2 + 0x10] = t2\n  8233: a0 = u64 [sp + 0x50]\n  8236: u64 [a2 + 0x38] = a0\n  8239: a0 = u64 [sp + 0x48]\n  8242: u64 [a2 + 0x18] = a0\n  8245: sp = s0 + 0xffffffffffffff60\n  8249: ra = u64 [sp + 0x98]\n  8253: s0 = u64 [sp + 0x90]\n  8257: s1 = u64 [sp + 0x88]\n  8261: sp = sp + 0xa0\n  8265: ret\n      : @141 (gas: 1)\n  8267: trap\n      : @142 (gas: 3)\n  8268: a0 = 0\n  8270: a1 = 0\n  8272: ra = 134, jump @0\n      : @143 [@dyn 67] (gas: 6)\n  8278: i32 a1 = a0 + 0\n  8280: a0 = 0x1\n  8283: a2 = 0\n  8285: ra = 0x88\n  8289: ecalli 14 // 'seal_return'\n  8291: fallthrough\n      : @144 [@dyn 68] (gas: 10)\n  8292: a1 = u64 [a0 + 0x10]\n  8295: a0 = u64 [a0 + 0x18]\n  8298: a2 = 0x100000000\n  8308: a2 = a2 ^ a1\n  8311: a2 = a2 | a0\n  8314: a1 = a1 >> 0x20\n  8317: a1 = a1 <u 0x1\n  8320: a1 = 0 if a0 != 0\n  8322: a1 = 0 if a2 == 0\n  8324: jump @146 if a1 == 0\n      : @145 (gas: 1)\n  8327: ret\n      : @146 (gas: 4)\n  8329: sp = sp + 0xfffffffffffffff8\n  8332: u64 [sp] = ra\n  8334: a0 = 0\n  8336: ra = 138, jump @0\n      : @147 [@dyn 69] (gas: 6)\n  8342: i32 a1 = a0 + 0\n  8344: a0 = 0x1\n  8347: a2 = 0\n  8349: ra = 0x8c\n  8353: ecalli 14 // 'seal_return'\n  8355: fallthrough\n      : @148 [@dyn 70] (gas: 18)\n  8356: sp = sp + 0xffffffffffffffc0\n  8359: u64 [sp + 0x38] = ra\n  8362: u64 [sp + 0x30] = s0\n  8365: u64 [sp + 0x28] = s1\n  8368: s0 = sp + 0x40\n  8371: sp = sp & 0xffffffffffffffe0\n  8374: a2 = u64 [a1 + 0x10]\n  8377: a3 = u64 [a1 + 0x18]\n  8380: a4 = u64 [a1 + 0x8]\n  8383: a1 = u64 [a1]\n  8385: a3 = a3 | a4\n  8388: a4 = a1 | a2\n  8391: a4 = a4 | a3\n  8394: a4 = a4 >> 0x20\n  8397: a2 = a2 | a3\n  8400: a2 = a2 << 0x20\n  8403: a2 = a2 | a4\n  8406: jump @152 if a2 != 0\n      : @149 (gas: 5)\n  8409: s1 = a0\n  8411: i32 a1 = a1 + 0\n  8413: i32 a0 = sp + 0\n  8415: ecalli 3 // 'call_data_load'\n  8417: fallthrough\n      : @150 (gas: 10)\n  8418: a0 = u64 [sp + 0x10]\n  8421: a1 = u64 [sp + 0x18]\n  8424: a2 = 0x100000000\n  8434: a2 = a2 ^ a0\n  8437: a2 = a2 | a1\n  8440: a3 = a0 >> 0x20\n  8443: a3 = a3 <u 0x1\n  8446: a3 = 0 if a1 != 0\n  8448: a3 = 0 if a2 == 0\n  8450: jump @153 if a3 == 0\n      : @151 (gas: 12)\n  8453: a2 = u64 [sp]\n  8455: a3 = u64 [sp + 0x8]\n  8458: u64 [s1] = a2\n  8460: u64 [s1 + 0x8] = a3\n  8463: u64 [s1 + 0x10] = a0\n  8466: u64 [s1 + 0x18] = a1\n  8469: sp = s0 + 0xffffffffffffffc0\n  8472: ra = u64 [sp + 0x38]\n  8475: s0 = u64 [sp + 0x30]\n  8478: s1 = u64 [sp + 0x28]\n  8481: sp = sp + 0x40\n  8484: ret\n      : @152 (gas: 1)\n  8486: trap\n      : @153 (gas: 3)\n  8487: a0 = 0\n  8489: a1 = 0\n  8491: ra = 142, jump @0\n      : @154 [@dyn 71] (gas: 6)\n  8497: i32 a1 = a0 + 0\n  8499: a0 = 0x1\n  8502: a2 = 0\n  8504: ra = 0x90\n  8508: ecalli 14 // 'seal_return'\n  8510: fallthrough\n      : @155 [@dyn 72] (gas: 44)\n  8511: sp = sp + 0xfffffffffffffcc0\n  8515: u64 [sp + 0x338] = ra\n  8519: u64 [sp + 0x330] = s0\n  8523: u64 [sp + 0x328] = s1\n  8527: s0 = sp + 0x340\n  8531: sp = sp & 0xffffffffffffffe0\n  8534: s1 = u64 [a2 + 0x8]\n  8537: t2 = u64 [a1 + 0x8]\n  8540: a5 = u64 [a2]\n  8542: a3 = u64 [a1]\n  8544: t0 = u64 [a2 + 0x10]\n  8547: a4 = s1 ^ t2\n  8550: ra = s1 <u t2\n  8553: t1 = a5 <u a3\n  8556: ra = t1 if a4 == 0\n  8559: u64 [sp + 0xf0] = s1\n  8563: a4 = s1 - t2\n  8566: a4 = a4 - t1\n  8569: u64 [sp + 0xe0] = a5\n  8573: u64 [sp + 0x118] = a3\n  8577: a5 = a5 - a3\n  8580: a5 = a5 <u 0xa0\n  8584: a5 = a5 ^ 0x1\n  8587: t1 = u64 [a1 + 0x10]\n  8590: s1 = a4 >u 0\n  8592: a5 = s1 if a4 != 0\n  8595: a4 = u64 [a2 + 0x18]\n  8598: s1 = u64 [a1 + 0x18]\n  8601: a1 = t0 - t1\n  8604: a2 = a1 - ra\n  8607: ra = a1 <u ra\n  8610: u64 [sp + 0xe8] = t0\n  8614: a3 = t0 <u t1\n  8617: a1 = s1\n  8619: u64 [sp + 0xd8] = a4\n  8623: a4 = a4 - s1\n  8626: a4 = a4 - a3\n  8629: a4 = a4 - ra\n  8632: s1 = a4 >s 0\n  8634: a3 = a2 >u 0\n  8636: a3 = s1 if a4 != 0\n  8639: a2 = a2 | a4\n  8642: a5 = a3 if a2 != 0\n  8645: jump @175 if a5 == 0\n      : @156 (gas: 13)\n  8649: s1 = a0\n  8651: a2 = u64 [sp + 0x118]\n  8655: a0 = a2 | t1\n  8658: u64 [sp + 0x110] = t2\n  8662: u64 [sp + 0x100] = a1\n  8666: a1 = t2 | a1\n  8669: a0 = a0 | a1\n  8672: a0 = a0 >> 0x20\n  8675: u64 [sp + 0x108] = t1\n  8679: a1 = a1 | t1\n  8682: a1 = a1 << 0x20\n  8685: a0 = a0 | a1\n  8688: jump @174 if a0 != 0\n      : @157 (gas: 5)\n  8692: i32 a1 = a2 + 0\n  8694: i32 a0 = sp + 0x2a0\n  8698: u64 [sp + 0xf8] = a1\n  8702: ecalli 3 // 'call_data_load'\n  8704: fallthrough\n      : @158 (gas: 7)\n  8705: t0 = u64 [sp + 0x2b8]\n  8709: a1 = u64 [sp + 0x2b0]\n  8713: a2 = u64 [sp + 0x2a8]\n  8717: a3 = a1 | t0\n  8720: a4 = a2 <u 0x1\n  8723: a4 = 0 if a3 != 0\n  8725: jump @175 if a4 == 0\n      : @159 (gas: 35)\n  8729: a3 = u64 [sp + 0x2a0]\n  8733: a4 = u64 [sp + 0x118]\n  8737: a4 = a4 + a3\n  8740: a3 = a4 <u a3\n  8743: a5 = u64 [sp + 0x110]\n  8747: a5 = a5 + a2\n  8750: a5 = a5 + a3\n  8753: a0 = a5 ^ a2\n  8756: a2 = a5 <u a2\n  8759: a2 = a3 if a0 == 0\n  8762: a0 = u64 [sp + 0x108]\n  8766: a0 = a0 + a1\n  8769: a2 = a2 + a0\n  8772: a3 = a2 <u a0\n  8775: a0 = a0 <u a1\n  8778: a1 = u64 [sp + 0x100]\n  8782: t0 = t0 + a1\n  8785: a0 = a0 + t0\n  8788: a3 = a3 + a0\n  8791: a0 = u64 [sp + 0xe0]\n  8795: u64 [sp + 0x220] = a0\n  8799: a0 = u64 [sp + 0xf0]\n  8803: u64 [sp + 0x228] = a0\n  8807: u64 [sp + 0x240] = a4\n  8811: a0 = u64 [sp + 0xe8]\n  8815: u64 [sp + 0x230] = a0\n  8819: a0 = u64 [sp + 0xd8]\n  8823: u64 [sp + 0x238] = a0\n  8827: u64 [sp + 0x248] = a5\n  8831: u64 [sp + 0x250] = a2\n  8835: a0 = sp + 0x260\n  8839: a1 = sp + 0x240\n  8843: a2 = sp + 0x220\n  8847: u64 [sp + 0x258] = a3\n  8851: ra = 146, jump @135\n      : @160 [@dyn 73] (gas: 13)\n  8857: a0 = u64 [sp + 0x108]\n  8861: a2 = u64 [sp + 0x100]\n  8865: a2 = a2 | a0\n  8868: a0 = 0x100000000\n  8878: u64 [sp + 0xc8] = a0\n  8882: a0 = 0xffffffe0\n  8892: a1 = u64 [sp + 0x118]\n  8896: a0 = a1 <u a0\n  8899: a1 = u64 [sp + 0x110]\n  8903: a0 = 0 if a1 != 0\n  8905: u64 [sp + 0xd0] = a2\n  8909: a0 = 0 if a2 != 0\n  8911: jump @174 if a0 == 0\n      : @161 (gas: 21)\n  8915: a0 = u64 [sp + 0x298]\n  8919: u64 [sp + 0xa8] = a0\n  8923: a0 = u64 [sp + 0x290]\n  8927: u64 [sp + 0x88] = a0\n  8931: a0 = u64 [sp + 0x288]\n  8935: u64 [sp + 0xb0] = a0\n  8939: a0 = u64 [sp + 0x280]\n  8943: u64 [sp + 0x90] = a0\n  8947: a0 = u64 [sp + 0x278]\n  8951: u64 [sp + 0xb8] = a0\n  8955: a0 = u64 [sp + 0x270]\n  8959: u64 [sp + 0x98] = a0\n  8963: a0 = u64 [sp + 0x268]\n  8967: u64 [sp + 0xc0] = a0\n  8971: a0 = u64 [sp + 0x260]\n  8975: u64 [sp + 0xa0] = a0\n  8979: a0 = u64 [sp + 0xf8]\n  8983: i32 a1 = a0 + 0x20\n  8986: i32 a0 = sp + 0x300\n  8990: ecalli 3 // 'call_data_load'\n  8992: fallthrough\n      : @162 (gas: 9)\n  8993: a0 = u64 [sp + 0xc8]\n  8997: a0 = a0 + 0xffffffffffffffc0\n  9000: a1 = u64 [sp + 0x118]\n  9004: a0 = a1 <u a0\n  9007: a1 = u64 [sp + 0x110]\n  9011: a0 = 0 if a1 != 0\n  9013: a1 = u64 [sp + 0xd0]\n  9017: a0 = 0 if a1 != 0\n  9019: jump @174 if a0 == 0\n      : @163 (gas: 13)\n  9023: a0 = u64 [sp + 0x318]\n  9027: u64 [sp + 0x78] = a0\n  9030: a0 = u64 [sp + 0x310]\n  9034: u64 [sp + 0x68] = a0\n  9037: a0 = u64 [sp + 0x308]\n  9041: u64 [sp + 0x80] = a0\n  9045: a0 = u64 [sp + 0x300]\n  9049: u64 [sp + 0x70] = a0\n  9052: a0 = u64 [sp + 0xf8]\n  9056: i32 a1 = a0 + 0x40\n  9059: i32 a0 = sp + 0x2c0\n  9063: ecalli 3 // 'call_data_load'\n  9065: fallthrough\n      : @164 (gas: 7)\n  9066: t0 = u64 [sp + 0x2d8]\n  9070: a1 = u64 [sp + 0x2d0]\n  9074: a2 = u64 [sp + 0x2c8]\n  9078: a3 = a1 | t0\n  9081: a4 = a2 <u 0x1\n  9084: a4 = 0 if a3 != 0\n  9086: jump @175 if a4 == 0\n      : @165 (gas: 35)\n  9090: a3 = u64 [sp + 0x2c0]\n  9094: a4 = u64 [sp + 0x118]\n  9098: a4 = a4 + a3\n  9101: a3 = a4 <u a3\n  9104: a5 = u64 [sp + 0x110]\n  9108: a5 = a5 + a2\n  9111: a5 = a5 + a3\n  9114: a0 = a5 ^ a2\n  9117: a2 = a5 <u a2\n  9120: a2 = a3 if a0 == 0\n  9123: a0 = u64 [sp + 0x108]\n  9127: a0 = a0 + a1\n  9130: a2 = a2 + a0\n  9133: a3 = a2 <u a0\n  9136: a0 = a0 <u a1\n  9139: a1 = u64 [sp + 0x100]\n  9143: t0 = t0 + a1\n  9146: a0 = a0 + t0\n  9149: a3 = a3 + a0\n  9152: a0 = u64 [sp + 0xe0]\n  9156: u64 [sp + 0x1a0] = a0\n  9160: a0 = u64 [sp + 0xf0]\n  9164: u64 [sp + 0x1a8] = a0\n  9168: u64 [sp + 0x1c0] = a4\n  9172: a0 = u64 [sp + 0xe8]\n  9176: u64 [sp + 0x1b0] = a0\n  9180: a0 = u64 [sp + 0xd8]\n  9184: u64 [sp + 0x1b8] = a0\n  9188: u64 [sp + 0x1c8] = a5\n  9192: u64 [sp + 0x1d0] = a2\n  9196: a0 = sp + 0x1e0\n  9200: a1 = sp + 0x1c0\n  9204: a2 = sp + 0x1a0\n  9208: u64 [sp + 0x1d8] = a3\n  9212: ra = 148, jump @135\n      : @166 [@dyn 74] (gas: 10)\n  9218: a0 = 0x100000000\n  9228: u64 [sp + 0xc8] = a0\n  9232: a0 = 0xffffffa0\n  9242: a1 = u64 [sp + 0x118]\n  9246: a0 = a1 <u a0\n  9249: a1 = u64 [sp + 0x110]\n  9253: a0 = 0 if a1 != 0\n  9255: a1 = u64 [sp + 0xd0]\n  9259: a0 = 0 if a1 != 0\n  9261: jump @174 if a0 == 0\n      : @167 (gas: 21)\n  9265: a0 = u64 [sp + 0x218]\n  9269: u64 [sp + 0x48] = a0\n  9272: a0 = u64 [sp + 0x210]\n  9276: u64 [sp + 0x28] = a0\n  9279: a0 = u64 [sp + 0x208]\n  9283: u64 [sp + 0x50] = a0\n  9286: a0 = u64 [sp + 0x200]\n  9290: u64 [sp + 0x30] = a0\n  9293: a0 = u64 [sp + 0x1f8]\n  9297: u64 [sp + 0x58] = a0\n  9300: a0 = u64 [sp + 0x1f0]\n  9304: u64 [sp + 0x38] = a0\n  9307: a0 = u64 [sp + 0x1e8]\n  9311: u64 [sp + 0x60] = a0\n  9314: a0 = u64 [sp + 0x1e0]\n  9318: u64 [sp + 0x40] = a0\n  9321: a0 = u64 [sp + 0xf8]\n  9325: i32 a1 = a0 + 0x60\n  9328: i32 a0 = sp + 0x300\n  9332: ecalli 3 // 'call_data_load'\n  9334: fallthrough\n      : @168 (gas: 10)\n  9335: a2 = u64 [sp + 0x310]\n  9339: a3 = u64 [sp + 0x318]\n  9343: a0 = u64 [sp + 0xc8]\n  9347: a0 = a0 ^ a2\n  9350: a0 = a0 | a3\n  9353: a1 = a2 >> 0x20\n  9356: a1 = a1 <u 0x1\n  9359: a1 = 0 if a3 != 0\n  9361: a1 = 0 if a0 == 0\n  9363: jump @177 if a1 == 0\n      : @169 (gas: 10)\n  9367: u64 [sp + 0x20] = a3\n  9370: u64 [sp + 0xc8] = a2\n  9374: a0 = 0xffffff80\n  9384: a1 = u64 [sp + 0x118]\n  9388: a0 = a1 <u a0\n  9391: a1 = u64 [sp + 0x110]\n  9395: a0 = 0 if a1 != 0\n  9397: a1 = u64 [sp + 0xd0]\n  9401: a0 = 0 if a1 != 0\n  9403: jump @174 if a0 == 0\n      : @170 (gas: 9)\n  9407: a0 = u64 [sp + 0x308]\n  9411: u64 [sp + 0xd0] = a0\n  9415: a0 = u64 [sp + 0x300]\n  9419: u64 [sp + 0x18] = a0\n  9422: a0 = u64 [sp + 0xf8]\n  9426: i32 a1 = a0 + 0x80\n  9430: i32 a0 = sp + 0x2e0\n  9434: ecalli 3 // 'call_data_load'\n  9436: fallthrough\n      : @171 (gas: 7)\n  9437: t0 = u64 [sp + 0x2f8]\n  9441: a1 = u64 [sp + 0x2f0]\n  9445: a2 = u64 [sp + 0x2e8]\n  9449: a3 = a1 | t0\n  9452: a4 = a2 <u 0x1\n  9455: a4 = 0 if a3 != 0\n  9457: jump @175 if a4 == 0\n      : @172 (gas: 35)\n  9461: a3 = u64 [sp + 0x2e0]\n  9465: a4 = u64 [sp + 0x118]\n  9469: a4 = a4 + a3\n  9472: a3 = a4 <u a3\n  9475: a5 = u64 [sp + 0x110]\n  9479: a5 = a5 + a2\n  9482: a5 = a5 + a3\n  9485: a0 = a5 ^ a2\n  9488: a2 = a5 <u a2\n  9491: a2 = a3 if a0 == 0\n  9494: a0 = u64 [sp + 0x108]\n  9498: a0 = a0 + a1\n  9501: a2 = a2 + a0\n  9504: a3 = a2 <u a0\n  9507: a0 = a0 <u a1\n  9510: a1 = u64 [sp + 0x100]\n  9514: t0 = t0 + a1\n  9517: a0 = a0 + t0\n  9520: a3 = a3 + a0\n  9523: a0 = u64 [sp + 0xe0]\n  9527: u64 [sp + 0x120] = a0\n  9531: a0 = u64 [sp + 0xf0]\n  9535: u64 [sp + 0x128] = a0\n  9539: u64 [sp + 0x140] = a4\n  9543: a0 = u64 [sp + 0xe8]\n  9547: u64 [sp + 0x130] = a0\n  9551: a0 = u64 [sp + 0xd8]\n  9555: u64 [sp + 0x138] = a0\n  9559: u64 [sp + 0x148] = a5\n  9563: u64 [sp + 0x150] = a2\n  9567: a0 = sp + 0x160\n  9571: a1 = sp + 0x140\n  9575: a2 = sp + 0x120\n  9579: u64 [sp + 0x158] = a3\n  9583: ra = 150, jump @135\n      : @173 [@dyn 75] (gas: 70)\n  9589: t0 = u64 [sp + 0x168]\n  9593: t1 = u64 [sp + 0x160]\n  9597: a2 = u64 [sp + 0x178]\n  9601: a3 = u64 [sp + 0x170]\n  9605: a4 = u64 [sp + 0x190]\n  9609: a5 = u64 [sp + 0x198]\n  9613: a0 = u64 [sp + 0x180]\n  9617: a1 = u64 [sp + 0x188]\n  9621: u64 [s1 + 0xf0] = a4\n  9625: u64 [s1 + 0xf8] = a5\n  9629: u64 [s1 + 0xe0] = a0\n  9633: u64 [s1 + 0xe8] = a1\n  9637: u64 [s1 + 0xd0] = a3\n  9641: u64 [s1 + 0xd8] = a2\n  9645: u64 [s1 + 0xc0] = t1\n  9649: u64 [s1 + 0xc8] = t0\n  9653: a0 = u64 [sp + 0xc8]\n  9657: u64 [s1 + 0xb0] = a0\n  9661: a0 = u64 [sp + 0x20]\n  9664: u64 [s1 + 0xb8] = a0\n  9668: a0 = u64 [sp + 0x18]\n  9671: u64 [s1 + 0xa0] = a0\n  9675: a0 = u64 [sp + 0xd0]\n  9679: u64 [s1 + 0xa8] = a0\n  9683: a0 = u64 [sp + 0x28]\n  9686: u64 [s1 + 0x90] = a0\n  9690: a0 = u64 [sp + 0x48]\n  9693: u64 [s1 + 0x98] = a0\n  9697: a0 = u64 [sp + 0x30]\n  9700: u64 [s1 + 0x80] = a0\n  9704: a0 = u64 [sp + 0x50]\n  9707: u64 [s1 + 0x88] = a0\n  9711: a0 = u64 [sp + 0x38]\n  9714: u64 [s1 + 0x70] = a0\n  9717: a0 = u64 [sp + 0x58]\n  9720: u64 [s1 + 0x78] = a0\n  9723: a0 = u64 [sp + 0x40]\n  9726: u64 [s1 + 0x60] = a0\n  9729: a0 = u64 [sp + 0x60]\n  9732: u64 [s1 + 0x68] = a0\n  9735: a0 = u64 [sp + 0x68]\n  9738: u64 [s1 + 0x50] = a0\n  9741: a0 = u64 [sp + 0x78]\n  9744: u64 [s1 + 0x58] = a0\n  9747: a0 = u64 [sp + 0x70]\n  9750: u64 [s1 + 0x40] = a0\n  9753: a0 = u64 [sp + 0x80]\n  9757: u64 [s1 + 0x48] = a0\n  9760: a0 = u64 [sp + 0x88]\n  9764: u64 [s1 + 0x30] = a0\n  9767: a0 = u64 [sp + 0xa8]\n  9771: u64 [s1 + 0x38] = a0\n  9774: a0 = u64 [sp + 0x90]\n  9778: u64 [s1 + 0x20] = a0\n  9781: a0 = u64 [sp + 0xb0]\n  9785: u64 [s1 + 0x28] = a0\n  9788: a0 = u64 [sp + 0x98]\n  9792: u64 [s1 + 0x10] = a0\n  9795: a0 = u64 [sp + 0xb8]\n  9799: u64 [s1 + 0x18] = a0\n  9802: a0 = u64 [sp + 0xa0]\n  9806: u64 [s1] = a0\n  9808: a0 = u64 [sp + 0xc0]\n  9812: u64 [s1 + 0x8] = a0\n  9815: sp = s0 + 0xfffffffffffffcc0\n  9819: ra = u64 [sp + 0x338]\n  9823: s0 = u64 [sp + 0x330]\n  9827: s1 = u64 [sp + 0x328]\n  9831: sp = sp + 0x340\n  9835: ret\n      : @174 (gas: 1)\n  9837: trap\n      : @175 (gas: 3)\n  9838: a0 = 0\n  9840: a1 = 0\n  9842: ra = 152, jump @0\n      : @176 [@dyn 76] (gas: 7)\n  9848: i32 a1 = a0 + 0\n  9850: a0 = 0x1\n  9853: a2 = 0\n  9855: ecalli 14 // 'seal_return'\n  9857: a0 = 0\n  9859: ra = 0x98\n  9863: jump @0\n      : @177 (gas: 3)\n  9866: a0 = 0\n  9868: ra = 0x98\n  9872: jump @0\n      : @178 [@dyn 77] (gas: 123)\n  9875: a0 = u64 [sp + 0x230]\n  9879: u64 [sp + 0xc8] = a0\n  9883: a0 = u64 [sp + 0x238]\n  9887: u64 [sp + 0xc0] = a0\n  9891: a0 = u64 [sp + 0x240]\n  9895: u64 [sp + 0xb8] = a0\n  9899: a0 = u64 [sp + 0x248]\n  9903: u64 [sp + 0xb0] = a0\n  9907: a0 = u64 [sp + 0x250]\n  9911: u64 [sp + 0xa8] = a0\n  9915: a0 = u64 [sp + 0x258]\n  9919: u64 [sp + 0xa0] = a0\n  9923: a0 = u64 [sp + 0x260]\n  9927: u64 [sp + 0x98] = a0\n  9931: a0 = u64 [sp + 0x268]\n  9935: u64 [sp + 0x90] = a0\n  9939: a0 = u64 [sp + 0x270]\n  9943: u64 [sp + 0x88] = a0\n  9947: a0 = u64 [sp + 0x278]\n  9951: u64 [sp + 0x80] = a0\n  9955: a0 = u64 [sp + 0x280]\n  9959: u64 [sp + 0x78] = a0\n  9962: a0 = u64 [sp + 0x288]\n  9966: u64 [sp + 0x70] = a0\n  9969: a0 = u64 [sp + 0x290]\n  9973: u64 [sp + 0x68] = a0\n  9976: a0 = u64 [sp + 0x298]\n  9980: u64 [sp + 0x60] = a0\n  9983: a0 = u64 [sp + 0x2a0]\n  9987: u64 [sp + 0x58] = a0\n  9990: a0 = u64 [sp + 0x2a8]\n  9994: u64 [sp + 0x50] = a0\n  9997: a0 = u64 [sp + 0x2b0]\n 10001: u64 [sp + 0x48] = a0\n 10004: a0 = u64 [sp + 0x2b8]\n 10008: u64 [sp + 0x40] = a0\n 10011: a0 = u64 [sp + 0x2c0]\n 10015: u64 [sp + 0x38] = a0\n 10018: a0 = u64 [sp + 0x2c8]\n 10022: u64 [sp + 0x30] = a0\n 10025: a0 = u64 [sp + 0x2d0]\n 10029: u64 [sp + 0x28] = a0\n 10032: a0 = u64 [sp + 0x2d8]\n 10036: u64 [sp + 0x20] = a0\n 10039: a0 = u64 [sp + 0x2e0]\n 10043: u64 [sp + 0x18] = a0\n 10046: t2 = u64 [sp + 0x2e8]\n 10050: t1 = u64 [sp + 0x2f0]\n 10054: t0 = u64 [sp + 0x2f8]\n 10058: a5 = u64 [sp + 0x300]\n 10062: a4 = u64 [sp + 0x308]\n 10066: a3 = u64 [sp + 0x310]\n 10070: a2 = u64 [sp + 0x318]\n 10074: a1 = u64 [sp + 0x320]\n 10078: a0 = u64 [sp + 0x328]\n 10082: ra = sp + 0xd0\n 10086: u64 [sp + 0x10] = ra\n 10089: s1 = sp + 0xf0\n 10093: u64 [sp + 0x8] = s1\n 10096: s1 = sp + 0x110\n 10100: u64 [sp] = s1\n 10102: u64 [sp + 0xe8] = a0\n 10106: u64 [sp + 0xe0] = a1\n 10110: u64 [sp + 0xd8] = a2\n 10114: u64 [sp + 0xd0] = a3\n 10118: u64 [sp + 0x108] = a4\n 10122: u64 [sp + 0x100] = a5\n 10126: u64 [sp + 0xf8] = t0\n 10130: u64 [sp + 0xf0] = t1\n 10134: u64 [sp + 0x128] = t2\n 10138: a0 = u64 [sp + 0x18]\n 10141: u64 [sp + 0x120] = a0\n 10145: a0 = u64 [sp + 0x20]\n 10148: u64 [sp + 0x118] = a0\n 10152: a0 = u64 [sp + 0x28]\n 10155: u64 [sp + 0x110] = a0\n 10159: a0 = u64 [sp + 0x30]\n 10162: u64 [sp + 0x148] = a0\n 10166: a0 = u64 [sp + 0x38]\n 10169: u64 [sp + 0x140] = a0\n 10173: a0 = u64 [sp + 0x40]\n 10176: u64 [sp + 0x138] = a0\n 10180: a0 = u64 [sp + 0x48]\n 10183: u64 [sp + 0x130] = a0\n 10187: a0 = u64 [sp + 0x50]\n 10190: u64 [sp + 0x168] = a0\n 10194: a0 = u64 [sp + 0x58]\n 10197: u64 [sp + 0x160] = a0\n 10201: a0 = u64 [sp + 0x60]\n 10204: u64 [sp + 0x158] = a0\n 10208: a0 = u64 [sp + 0x68]\n 10211: u64 [sp + 0x150] = a0\n 10215: a0 = u64 [sp + 0x70]\n 10218: u64 [sp + 0x188] = a0\n 10222: a0 = u64 [sp + 0x78]\n 10225: u64 [sp + 0x180] = a0\n 10229: a0 = u64 [sp + 0x80]\n 10233: u64 [sp + 0x178] = a0\n 10237: a0 = u64 [sp + 0x88]\n 10241: u64 [sp + 0x170] = a0\n 10245: a0 = u64 [sp + 0x90]\n 10249: u64 [sp + 0x1a8] = a0\n 10253: a0 = u64 [sp + 0x98]\n 10257: u64 [sp + 0x1a0] = a0\n 10261: a0 = u64 [sp + 0xa0]\n 10265: u64 [sp + 0x198] = a0\n 10269: a0 = u64 [sp + 0xa8]\n 10273: u64 [sp + 0x190] = a0\n 10277: a0 = u64 [sp + 0xb0]\n 10281: u64 [sp + 0x1c8] = a0\n 10285: a0 = u64 [sp + 0xb8]\n 10289: u64 [sp + 0x1c0] = a0\n 10293: a0 = u64 [sp + 0xc0]\n 10297: u64 [sp + 0x1b8] = a0\n 10301: a0 = sp + 0x1d0\n 10305: a1 = sp + 0x1b0\n 10309: a2 = sp + 0x190\n 10313: a3 = sp + 0x170\n 10317: a4 = sp + 0x150\n 10321: a5 = sp + 0x130\n 10325: s1 = u64 [sp + 0xc8]\n 10329: u64 [sp + 0x1b0] = s1\n 10333: ra = 156, jump @520\n      : @179 [@dyn 78] (gas: 11)\n 10339: a0 = u64 [sp + 0x1e8]\n 10343: u64 [sp + 0xb0] = a0\n 10347: a0 = u64 [sp + 0x1e0]\n 10351: u64 [sp + 0xb8] = a0\n 10355: a0 = u64 [sp + 0x1d8]\n 10359: u64 [sp + 0xc0] = a0\n 10363: a0 = u64 [sp + 0x1d0]\n 10367: u64 [sp + 0xc8] = a0\n 10371: a0 = 0x40\n 10374: a1 = 0x20\n 10377: ra = 158, jump @0\n      : @180 [@dyn 79] (gas: 100)\n 10383: a1 = u8 [a0 + 0x11]\n 10386: a2 = u8 [a0 + 0x10]\n 10389: a3 = u8 [a0 + 0x12]\n 10392: a4 = u8 [a0 + 0x13]\n 10395: a1 = a1 << 0x8\n 10398: a1 = a1 | a2\n 10401: a3 = a3 << 0x10\n 10404: a4 = a4 << 0x18\n 10407: a3 = a3 | a4\n 10410: a1 = a1 | a3\n 10413: a2 = u8 [a0 + 0x15]\n 10416: a3 = u8 [a0 + 0x14]\n 10419: a4 = u8 [a0 + 0x16]\n 10422: a5 = u8 [a0 + 0x17]\n 10425: a2 = a2 << 0x8\n 10428: a2 = a2 | a3\n 10431: a4 = a4 << 0x10\n 10434: a5 = a5 << 0x18\n 10437: a4 = a4 | a5\n 10440: a2 = a2 | a4\n 10443: a2 = a2 << 0x20\n 10446: t0 = a2 | a1\n 10449: a2 = u8 [a0 + 0x1]\n 10452: a3 = u8 [a0]\n 10454: a4 = u8 [a0 + 0x2]\n 10457: a5 = u8 [a0 + 0x3]\n 10460: a2 = a2 << 0x8\n 10463: a2 = a2 | a3\n 10466: a4 = a4 << 0x10\n 10469: a5 = a5 << 0x18\n 10472: a4 = a4 | a5\n 10475: a2 = a2 | a4\n 10478: a3 = u8 [a0 + 0x5]\n 10481: a4 = u8 [a0 + 0x4]\n 10484: a5 = u8 [a0 + 0x6]\n 10487: s1 = u8 [a0 + 0x7]\n 10490: a3 = a3 << 0x8\n 10493: a3 = a3 | a4\n 10496: a5 = a5 << 0x10\n 10499: s1 = s1 << 0x18\n 10502: a5 = a5 | s1\n 10505: a3 = a3 | a5\n 10508: a3 = a3 << 0x20\n 10511: a2 = a2 | a3\n 10514: a3 = u8 [a0 + 0x19]\n 10517: a4 = u8 [a0 + 0x18]\n 10520: a5 = u8 [a0 + 0x1a]\n 10523: s1 = u8 [a0 + 0x1b]\n 10526: a3 = a3 << 0x8\n 10529: a3 = a3 | a4\n 10532: a5 = a5 << 0x10\n 10535: s1 = s1 << 0x18\n 10538: a5 = a5 | s1\n 10541: a3 = a3 | a5\n 10544: a4 = u8 [a0 + 0x1d]\n 10547: a5 = u8 [a0 + 0x1c]\n 10550: s1 = u8 [a0 + 0x1e]\n 10553: a1 = u8 [a0 + 0x1f]\n 10556: a4 = a4 << 0x8\n 10559: a4 = a4 | a5\n 10562: s1 = s1 << 0x10\n 10565: a1 = a1 << 0x18\n 10568: a1 = a1 | s1\n 10571: a1 = a1 | a4\n 10574: a1 = a1 << 0x20\n 10577: a3 = a3 | a1\n 10580: a1 = u8 [a0 + 0x9]\n 10583: a4 = u8 [a0 + 0x8]\n 10586: a5 = u8 [a0 + 0xa]\n 10589: s1 = u8 [a0 + 0xb]\n 10592: a1 = a1 << 0x8\n 10595: a1 = a1 | a4\n 10598: a5 = a5 << 0x10\n 10601: s1 = s1 << 0x18\n 10604: a5 = a5 | s1\n 10607: a1 = a1 | a5\n 10610: a4 = u8 [a0 + 0xd]\n 10613: a5 = u8 [a0 + 0xc]\n 10616: s1 = u8 [a0 + 0xe]\n 10619: a0 = u8 [a0 + 0xf]\n 10622: a4 = a4 << 0x8\n 10625: a4 = a4 | a5\n 10628: s1 = s1 << 0x10\n 10631: a0 = a0 << 0x18\n 10634: a0 = a0 | s1\n 10637: a0 = a0 | a4\n 10640: a0 = a0 << 0x20\n 10643: a0 = a0 | a1\n 10646: a1 = reverse a0\n 10648: a0 = reverse a3\n 10650: a2 = reverse a2\n 10652: a3 = reverse t0\n 10654: a2 = a2 | a3\n 10657: a3 = a0 | a1\n 10660: a3 = a3 | a2\n 10663: a3 = a3 >> 0x20\n 10666: a1 = a1 | a2\n 10669: a1 = a1 << 0x20\n 10672: a1 = a1 | a3\n 10675: jump @182 if a1 == 0\n      : @181 (gas: 1)\n 10678: trap\n      : @182 (gas: 4)\n 10679: i32 s1 = a0 + 0\n 10681: a1 = 0x20\n 10684: a0 = s1\n 10686: ra = 160, jump @0\n      : @183 [@dyn 80] (gas: 71)\n 10692: a1 = u64 [sp + 0xb0]\n 10696: a1 = reverse a1\n 10698: a2 = u64 [sp + 0xb8]\n 10702: a2 = reverse a2\n 10704: a3 = u64 [sp + 0xc0]\n 10708: a3 = reverse a3\n 10710: a4 = u64 [sp + 0xc8]\n 10714: a4 = reverse a4\n 10716: a5 = a4 >> 0x38\n 10719: u8 [a0 + 0x1f] = a5\n 10722: a5 = a4 >> 0x30\n 10725: u8 [a0 + 0x1e] = a5\n 10728: a5 = a4 >> 0x28\n 10731: u8 [a0 + 0x1d] = a5\n 10734: a5 = a4 >> 0x20\n 10737: u8 [a0 + 0x1c] = a5\n 10740: a5 = a4 >> 0x18\n 10743: u8 [a0 + 0x1b] = a5\n 10746: a5 = a4 >> 0x10\n 10749: u8 [a0 + 0x1a] = a5\n 10752: a5 = a4 >> 0x8\n 10755: u8 [a0 + 0x19] = a5\n 10758: u8 [a0 + 0x18] = a4\n 10761: u8 [a0 + 0x10] = a3\n 10764: a4 = a3 >> 0x38\n 10767: u8 [a0 + 0x17] = a4\n 10770: a4 = a3 >> 0x30\n 10773: u8 [a0 + 0x16] = a4\n 10776: a4 = a3 >> 0x28\n 10779: u8 [a0 + 0x15] = a4\n 10782: a4 = a3 >> 0x20\n 10785: u8 [a0 + 0x14] = a4\n 10788: a4 = a3 >> 0x18\n 10791: u8 [a0 + 0x13] = a4\n 10794: a4 = a3 >> 0x10\n 10797: u8 [a0 + 0x12] = a4\n 10800: a3 = a3 >> 0x8\n 10803: u8 [a0 + 0x11] = a3\n 10806: u8 [a0 + 0x8] = a2\n 10809: a3 = a2 >> 0x38\n 10812: u8 [a0 + 0xf] = a3\n 10815: a3 = a2 >> 0x30\n 10818: u8 [a0 + 0xe] = a3\n 10821: a3 = a2 >> 0x28\n 10824: u8 [a0 + 0xd] = a3\n 10827: a3 = a2 >> 0x20\n 10830: u8 [a0 + 0xc] = a3\n 10833: a3 = a2 >> 0x18\n 10836: u8 [a0 + 0xb] = a3\n 10839: a3 = a2 >> 0x10\n 10842: u8 [a0 + 0xa] = a3\n 10845: a2 = a2 >> 0x8\n 10848: u8 [a0 + 0x9] = a2\n 10851: u8 [a0] = a1\n 10853: a2 = a1 >> 0x38\n 10856: u8 [a0 + 0x7] = a2\n 10859: a2 = a1 >> 0x30\n 10862: u8 [a0 + 0x6] = a2\n 10865: a2 = a1 >> 0x28\n 10868: u8 [a0 + 0x5] = a2\n 10871: a2 = a1 >> 0x20\n 10874: u8 [a0 + 0x4] = a2\n 10877: a2 = a1 >> 0x18\n 10880: u8 [a0 + 0x3] = a2\n 10883: a2 = a1 >> 0x10\n 10886: u8 [a0 + 0x2] = a2\n 10889: a1 = a1 >> 0x8\n 10892: u8 [a0 + 0x1] = a1\n 10895: a1 = 0x20\n 10898: a0 = s1\n 10900: ra = 162, jump @0\n      : @184 [@dyn 81] (gas: 6)\n 10906: i32 a1 = a0 + 0\n 10908: a2 = 0x20\n 10911: a0 = 0\n 10913: ra = 0xa4\n 10917: ecalli 14 // 'seal_return'\n 10919: fallthrough\n      : @185 [@dyn 82] (gas: 19)\n 10920: t0 = u64 [a0 + 0x18]\n 10923: t1 = u64 [a1 + 0x18]\n 10926: a4 = u64 [a0 + 0x10]\n 10929: a5 = u64 [a0 + 0x8]\n 10932: a2 = u64 [a1 + 0x8]\n 10935: t2 = u64 [a0]\n 10937: a3 = u64 [a1]\n 10939: a1 = u64 [a1 + 0x10]\n 10942: a0 = a2 ^ a5\n 10945: a2 = a2 <u a5\n 10948: a3 = a3 <u t2\n 10951: a3 = a2 if a0 != 0\n 10954: a0 = a1 - a4\n 10957: a0 = a0 <u a3\n 10960: a1 = a1 <u a4\n 10963: a2 = t1 - t0\n 10966: a2 = a2 - a1\n 10969: a2 = a2 - a0\n 10972: jump @187 if a2 <s 0\n      : @186 (gas: 1)\n 10975: ret\n      : @187 (gas: 5)\n 10977: sp = sp + 0xfffffffffffffff8\n 10980: u64 [sp] = ra\n 10982: a0 = 0\n 10984: a1 = 0\n 10986: ra = 166, jump @0\n      : @188 [@dyn 83] (gas: 6)\n 10992: i32 a1 = a0 + 0\n 10994: a0 = 0x1\n 10997: a2 = 0\n 10999: ra = 0xa8\n 11003: ecalli 14 // 'seal_return'\n 11005: fallthrough\n      : @189 [@dyn 84] (gas: 12)\n 11006: a2 = u64 [a1 + 0x10]\n 11009: a3 = u64 [a1 + 0x18]\n 11012: a4 = u64 [a1 + 0x8]\n 11015: a1 = u64 [a1]\n 11017: a3 = a3 | a4\n 11020: a4 = a1 | a2\n 11023: a4 = a4 | a3\n 11026: a4 = a4 >> 0x20\n 11029: a2 = a2 | a3\n 11032: a2 = a2 << 0x20\n 11035: a2 = a2 | a4\n 11038: jump @192 if a2 != 0\n      : @190 (gas: 13)\n 11042: sp = sp + 0xffffffffffffffd8\n 11045: u64 [sp + 0x20] = ra\n 11048: u64 [sp + 0x18] = s0\n 11051: u64 [sp + 0x10] = s1\n 11054: s0 = u64 [a0 + 0x18]\n 11057: s1 = u64 [a0 + 0x10]\n 11060: a2 = u64 [a0 + 0x8]\n 11063: u64 [sp] = a2\n 11065: a0 = u64 [a0]\n 11067: u64 [sp + 0x8] = a0\n 11070: i32 a0 = a1 + 0\n 11072: a1 = 0x20\n 11075: ra = 170, jump @0\n      : @191 [@dyn 85] (gas: 71)\n 11081: a1 = reverse s0\n 11083: a2 = reverse s1\n 11085: a3 = u64 [sp]\n 11087: a3 = reverse a3\n 11089: a4 = u64 [sp + 0x8]\n 11092: a4 = reverse a4\n 11094: a5 = a4 >> 0x38\n 11097: u8 [a0 + 0x1f] = a5\n 11100: a5 = a4 >> 0x30\n 11103: u8 [a0 + 0x1e] = a5\n 11106: a5 = a4 >> 0x28\n 11109: u8 [a0 + 0x1d] = a5\n 11112: a5 = a4 >> 0x20\n 11115: u8 [a0 + 0x1c] = a5\n 11118: a5 = a4 >> 0x18\n 11121: u8 [a0 + 0x1b] = a5\n 11124: a5 = a4 >> 0x10\n 11127: u8 [a0 + 0x1a] = a5\n 11130: a5 = a4 >> 0x8\n 11133: u8 [a0 + 0x19] = a5\n 11136: u8 [a0 + 0x18] = a4\n 11139: u8 [a0 + 0x10] = a3\n 11142: a4 = a3 >> 0x38\n 11145: u8 [a0 + 0x17] = a4\n 11148: a4 = a3 >> 0x30\n 11151: u8 [a0 + 0x16] = a4\n 11154: a4 = a3 >> 0x28\n 11157: u8 [a0 + 0x15] = a4\n 11160: a4 = a3 >> 0x20\n 11163: u8 [a0 + 0x14] = a4\n 11166: a4 = a3 >> 0x18\n 11169: u8 [a0 + 0x13] = a4\n 11172: a4 = a3 >> 0x10\n 11175: u8 [a0 + 0x12] = a4\n 11178: a3 = a3 >> 0x8\n 11181: u8 [a0 + 0x11] = a3\n 11184: u8 [a0 + 0x8] = a2\n 11187: a3 = a2 >> 0x38\n 11190: u8 [a0 + 0xf] = a3\n 11193: a3 = a2 >> 0x30\n 11196: u8 [a0 + 0xe] = a3\n 11199: a3 = a2 >> 0x28\n 11202: u8 [a0 + 0xd] = a3\n 11205: a3 = a2 >> 0x20\n 11208: u8 [a0 + 0xc] = a3\n 11211: a3 = a2 >> 0x18\n 11214: u8 [a0 + 0xb] = a3\n 11217: a3 = a2 >> 0x10\n 11220: u8 [a0 + 0xa] = a3\n 11223: a2 = a2 >> 0x8\n 11226: u8 [a0 + 0x9] = a2\n 11229: u8 [a0] = a1\n 11231: a2 = a1 >> 0x38\n 11234: u8 [a0 + 0x7] = a2\n 11237: a2 = a1 >> 0x30\n 11240: u8 [a0 + 0x6] = a2\n 11243: a2 = a1 >> 0x28\n 11246: u8 [a0 + 0x5] = a2\n 11249: a2 = a1 >> 0x20\n 11252: u8 [a0 + 0x4] = a2\n 11255: a2 = a1 >> 0x18\n 11258: u8 [a0 + 0x3] = a2\n 11261: a2 = a1 >> 0x10\n 11264: u8 [a0 + 0x2] = a2\n 11267: a1 = a1 >> 0x8\n 11270: u8 [a0 + 0x1] = a1\n 11273: ra = u64 [sp + 0x20]\n 11276: s0 = u64 [sp + 0x18]\n 11279: s1 = u64 [sp + 0x10]\n 11282: sp = sp + 0x28\n 11285: ret\n      : @192 (gas: 1)\n 11287: trap\n      : @193 (gas: 20)\n 11288: sp = sp + 0xffffffffffffffb0\n 11291: u64 [sp + 0x48] = ra\n 11294: u64 [sp + 0x40] = s0\n 11297: u64 [sp + 0x38] = s1\n 11300: a4 = u64 [a1 + 0x10]\n 11303: a3 = u64 [a1 + 0x18]\n 11306: a5 = u64 [a1 + 0x8]\n 11309: s0 = u64 [a1]\n 11311: u64 [sp + 0x28] = a3\n 11314: u64 [sp + 0x20] = a5\n 11317: a1 = a5 | a3\n 11320: a3 = s0 | a4\n 11323: a3 = a3 | a1\n 11326: a3 = a3 >> 0x20\n 11329: u64 [sp + 0x30] = a4\n 11332: a1 = a1 | a4\n 11335: a1 = a1 << 0x20\n 11338: a1 = a1 | a3\n 11341: u64 [sp + 0x18] = a0\n 11344: jump @196 if a1 != 0\n      : @194 (gas: 10)\n 11348: a0 = u64 [a2 + 0x18]\n 11351: u64 [sp] = a0\n 11353: s1 = u64 [a2 + 0x10]\n 11356: a0 = u64 [a2 + 0x8]\n 11359: u64 [sp + 0x8] = a0\n 11362: a0 = u64 [a2]\n 11364: u64 [sp + 0x10] = a0\n 11367: i32 a0 = s0 + 0\n 11369: a1 = 0x20\n 11372: ra = 172, jump @0\n      : @195 [@dyn 86] (gas: 88)\n 11378: a1 = u64 [sp]\n 11380: a1 = reverse a1\n 11382: a2 = reverse s1\n 11384: a3 = u64 [sp + 0x8]\n 11387: a3 = reverse a3\n 11389: a4 = u64 [sp + 0x10]\n 11392: a4 = reverse a4\n 11394: a5 = a4 >> 0x38\n 11397: u8 [a0 + 0x1f] = a5\n 11400: a5 = a4 >> 0x30\n 11403: u8 [a0 + 0x1e] = a5\n 11406: a5 = a4 >> 0x28\n 11409: u8 [a0 + 0x1d] = a5\n 11412: a5 = a4 >> 0x20\n 11415: u8 [a0 + 0x1c] = a5\n 11418: a5 = a4 >> 0x18\n 11421: u8 [a0 + 0x1b] = a5\n 11424: a5 = a4 >> 0x10\n 11427: u8 [a0 + 0x1a] = a5\n 11430: a5 = a4 >> 0x8\n 11433: u8 [a0 + 0x19] = a5\n 11436: u8 [a0 + 0x18] = a4\n 11439: u8 [a0 + 0x10] = a3\n 11442: a4 = a3 >> 0x38\n 11445: u8 [a0 + 0x17] = a4\n 11448: a4 = a3 >> 0x30\n 11451: u8 [a0 + 0x16] = a4\n 11454: a4 = a3 >> 0x28\n 11457: u8 [a0 + 0x15] = a4\n 11460: a4 = a3 >> 0x20\n 11463: u8 [a0 + 0x14] = a4\n 11466: a4 = a3 >> 0x18\n 11469: u8 [a0 + 0x13] = a4\n 11472: a4 = a3 >> 0x10\n 11475: u8 [a0 + 0x12] = a4\n 11478: a3 = a3 >> 0x8\n 11481: u8 [a0 + 0x11] = a3\n 11484: u8 [a0 + 0x8] = a2\n 11487: a3 = a2 >> 0x38\n 11490: u8 [a0 + 0xf] = a3\n 11493: a3 = a2 >> 0x30\n 11496: u8 [a0 + 0xe] = a3\n 11499: a3 = a2 >> 0x28\n 11502: u8 [a0 + 0xd] = a3\n 11505: a3 = a2 >> 0x20\n 11508: u8 [a0 + 0xc] = a3\n 11511: a3 = a2 >> 0x18\n 11514: u8 [a0 + 0xb] = a3\n 11517: a3 = a2 >> 0x10\n 11520: u8 [a0 + 0xa] = a3\n 11523: a2 = a2 >> 0x8\n 11526: u8 [a0 + 0x9] = a2\n 11529: u8 [a0] = a1\n 11531: a2 = a1 >> 0x38\n 11534: u8 [a0 + 0x7] = a2\n 11537: a2 = a1 >> 0x30\n 11540: u8 [a0 + 0x6] = a2\n 11543: a2 = a1 >> 0x28\n 11546: u8 [a0 + 0x5] = a2\n 11549: a2 = a1 >> 0x20\n 11552: u8 [a0 + 0x4] = a2\n 11555: a2 = a1 >> 0x18\n 11558: u8 [a0 + 0x3] = a2\n 11561: a2 = a1 >> 0x10\n 11564: u8 [a0 + 0x2] = a2\n 11567: a1 = a1 >> 0x8\n 11570: u8 [a0 + 0x1] = a1\n 11573: a0 = s0 + 0x20\n 11576: a1 = a0 <u s0\n 11579: a3 = u64 [sp + 0x20]\n 11582: a2 = a3 + a1\n 11585: a3 = a2 <u a3\n 11588: a3 = a1 if a1 == 0\n 11591: a1 = u64 [sp + 0x30]\n 11594: a3 = a3 + a1\n 11597: a1 = a3 <u a1\n 11600: a4 = u64 [sp + 0x28]\n 11603: a1 = a1 + a4\n 11606: a4 = u64 [sp + 0x18]\n 11609: u64 [a4] = a0\n 11611: u64 [a4 + 0x8] = a2\n 11614: u64 [a4 + 0x10] = a3\n 11617: u64 [a4 + 0x18] = a1\n 11620: ra = u64 [sp + 0x48]\n 11623: s0 = u64 [sp + 0x40]\n 11626: s1 = u64 [sp + 0x38]\n 11629: sp = sp + 0x50\n 11632: ret\n      : @196 (gas: 1)\n 11634: trap\n      : @197 (gas: 18)\n 11635: sp = sp + 0xfffffffffffffeb0\n 11639: u64 [sp + 0x148] = ra\n 11643: u64 [sp + 0x140] = s0\n 11647: u64 [sp + 0x138] = s1\n 11651: a4 = u64 [a1 + 0x10]\n 11654: a3 = u64 [a1 + 0x18]\n 11657: a5 = u64 [a1 + 0x8]\n 11660: s0 = u64 [a1]\n 11662: u64 [sp + 0xf0] = a5\n 11666: u64 [sp + 0x130] = a3\n 11670: a1 = a5 | a3\n 11673: a3 = s0 | a4\n 11676: a3 = a3 | a1\n 11679: a3 = a3 >> 0x20\n 11682: a1 = a1 | a4\n 11685: a1 = a1 << 0x20\n 11688: a1 = a1 | a3\n 11691: jump @209 if a1 != 0\n      : @198 (gas: 13)\n 11695: u64 [sp + 0xe8] = a4\n 11699: u64 [sp] = a0\n 11701: a0 = u64 [a2 + 0x18]\n 11704: u64 [sp + 0x110] = a0\n 11708: s1 = u64 [a2 + 0x10]\n 11711: a1 = u64 [a2 + 0x8]\n 11714: a0 = u64 [a2]\n 11716: u64 [sp + 0x118] = a0\n 11720: u64 [sp + 0xd8] = s0\n 11724: i32 a0 = s0 + 0\n 11726: s0 = a1\n 11728: a1 = 0x20\n 11731: ra = 174, jump @0\n      : @199 [@dyn 87] (gas: 12)\n 11737: t0 = u64 [sp + 0x118]\n 11741: a1 = t0 | s1\n 11744: u64 [sp + 0x108] = s0\n 11748: a2 = u64 [sp + 0x110]\n 11752: a2 = a2 | s0\n 11755: a1 = a1 | a2\n 11758: a1 = a1 >> 0x20\n 11761: u64 [sp + 0x100] = s1\n 11765: a2 = a2 | s1\n 11768: a2 = a2 << 0x20\n 11771: a1 = a1 | a2\n 11774: jump @209 if a1 != 0\n      : @200 (gas: 93)\n 11778: a1 = u8 [a0 + 0x19]\n 11781: a2 = u8 [a0 + 0x18]\n 11784: a3 = u8 [a0 + 0x1a]\n 11787: a4 = u8 [a0 + 0x1b]\n 11790: a1 = a1 << 0x8\n 11793: a1 = a1 | a2\n 11796: a3 = a3 << 0x10\n 11799: a4 = a4 << 0x18\n 11802: a3 = a3 | a4\n 11805: a1 = a1 | a3\n 11808: a2 = u8 [a0 + 0x1d]\n 11811: a3 = u8 [a0 + 0x1c]\n 11814: a4 = u8 [a0 + 0x1e]\n 11817: a5 = u8 [a0 + 0x1f]\n 11820: a2 = a2 << 0x8\n 11823: a2 = a2 | a3\n 11826: a4 = a4 << 0x10\n 11829: a5 = a5 << 0x18\n 11832: a4 = a4 | a5\n 11835: a2 = a2 | a4\n 11838: a2 = a2 << 0x20\n 11841: a1 = a1 | a2\n 11844: u64 [sp + 0x120] = a1\n 11848: a1 = u8 [a0 + 0x11]\n 11851: a2 = u8 [a0 + 0x10]\n 11854: a3 = u8 [a0 + 0x12]\n 11857: a4 = u8 [a0 + 0x13]\n 11860: a1 = a1 << 0x8\n 11863: a1 = a1 | a2\n 11866: a3 = a3 << 0x10\n 11869: a4 = a4 << 0x18\n 11872: a3 = a3 | a4\n 11875: a1 = a1 | a3\n 11878: a2 = u8 [a0 + 0x15]\n 11881: a3 = u8 [a0 + 0x14]\n 11884: a4 = u8 [a0 + 0x16]\n 11887: a5 = u8 [a0 + 0x17]\n 11890: a2 = a2 << 0x8\n 11893: a2 = a2 | a3\n 11896: a4 = a4 << 0x10\n 11899: a5 = a5 << 0x18\n 11902: a4 = a4 | a5\n 11905: a2 = a2 | a4\n 11908: a2 = a2 << 0x20\n 11911: a1 = a1 | a2\n 11914: u64 [sp + 0x128] = a1\n 11918: a1 = u8 [a0 + 0x9]\n 11921: a2 = u8 [a0 + 0x8]\n 11924: a3 = u8 [a0 + 0xa]\n 11927: a4 = u8 [a0 + 0xb]\n 11930: a1 = a1 << 0x8\n 11933: a1 = a1 | a2\n 11936: a3 = a3 << 0x10\n 11939: a4 = a4 << 0x18\n 11942: a3 = a3 | a4\n 11945: a1 = a1 | a3\n 11948: a2 = u8 [a0 + 0xd]\n 11951: a3 = u8 [a0 + 0xc]\n 11954: a4 = u8 [a0 + 0xe]\n 11957: a5 = u8 [a0 + 0xf]\n 11960: a2 = a2 << 0x8\n 11963: a2 = a2 | a3\n 11966: a4 = a4 << 0x10\n 11969: a5 = a5 << 0x18\n 11972: a4 = a4 | a5\n 11975: a2 = a2 | a4\n 11978: a2 = a2 << 0x20\n 11981: s0 = a2 | a1\n 11984: a1 = u8 [a0 + 0x1]\n 11987: a2 = u8 [a0]\n 11989: a3 = u8 [a0 + 0x2]\n 11992: a4 = u8 [a0 + 0x3]\n 11995: a1 = a1 << 0x8\n 11998: a1 = a1 | a2\n 12001: a3 = a3 << 0x10\n 12004: a4 = a4 << 0x18\n 12007: a3 = a3 | a4\n 12010: a1 = a1 | a3\n 12013: a2 = u8 [a0 + 0x5]\n 12016: a3 = u8 [a0 + 0x4]\n 12019: a4 = u8 [a0 + 0x6]\n 12022: a0 = u8 [a0 + 0x7]\n 12025: a2 = a2 << 0x8\n 12028: a2 = a2 | a3\n 12031: a4 = a4 << 0x10\n 12034: a0 = a0 << 0x18\n 12037: a0 = a0 | a4\n 12040: a0 = a0 | a2\n 12043: a0 = a0 << 0x20\n 12046: s1 = a0 | a1\n 12049: i32 a0 = t0 + 0\n 12051: a1 = 0x20\n 12054: ra = 176, jump @0\n      : @201 [@dyn 88] (gas: 82)\n 12060: a2 = u64 [sp + 0x128]\n 12064: u8 [a0 + 0x10] = a2\n 12067: a1 = s0 >> 0x38\n 12070: u8 [a0 + 0xf] = a1\n 12073: a1 = s0 >> 0x30\n 12076: u8 [a0 + 0xe] = a1\n 12079: a1 = s0 >> 0x28\n 12082: u8 [a0 + 0xd] = a1\n 12085: a1 = s0 >> 0x20\n 12088: u8 [a0 + 0xc] = a1\n 12091: a1 = s0 >> 0x18\n 12094: u8 [a0 + 0xb] = a1\n 12097: a1 = s0 >> 0x10\n 12100: u8 [a0 + 0xa] = a1\n 12103: a1 = s0 >> 0x8\n 12106: u8 [a0 + 0x9] = a1\n 12109: u8 [a0 + 0x8] = s0\n 12112: a1 = s1 >> 0x38\n 12115: u8 [a0 + 0x7] = a1\n 12118: a1 = s1 >> 0x30\n 12121: u8 [a0 + 0x6] = a1\n 12124: a1 = s1 >> 0x28\n 12127: u8 [a0 + 0x5] = a1\n 12130: a1 = s1 >> 0x20\n 12133: u8 [a0 + 0x4] = a1\n 12136: a1 = s1 >> 0x18\n 12139: u8 [a0 + 0x3] = a1\n 12142: a1 = s1 >> 0x10\n 12145: u8 [a0 + 0x2] = a1\n 12148: a1 = s1 >> 0x8\n 12151: u8 [a0 + 0x1] = a1\n 12154: u8 [a0] = s1\n 12156: a3 = u64 [sp + 0x120]\n 12160: u8 [a0 + 0x18] = a3\n 12163: a1 = a2 >> 0x38\n 12166: u8 [a0 + 0x17] = a1\n 12169: a1 = a2 >> 0x30\n 12172: u8 [a0 + 0x16] = a1\n 12175: a1 = a2 >> 0x28\n 12178: u8 [a0 + 0x15] = a1\n 12181: a1 = a2 >> 0x20\n 12184: u8 [a0 + 0x14] = a1\n 12187: a1 = a2 >> 0x18\n 12190: u8 [a0 + 0x13] = a1\n 12193: a1 = a2 >> 0x10\n 12196: u8 [a0 + 0x12] = a1\n 12199: a1 = a2 >> 0x8\n 12202: a4 = a2\n 12204: u8 [a0 + 0x11] = a1\n 12207: a1 = a3 >> 0x38\n 12210: u8 [a0 + 0x1f] = a1\n 12213: a1 = a3 >> 0x30\n 12216: u8 [a0 + 0x1e] = a1\n 12219: a1 = a3 >> 0x28\n 12222: u8 [a0 + 0x1d] = a1\n 12225: a1 = a3 >> 0x20\n 12228: u8 [a0 + 0x1c] = a1\n 12231: a1 = a3 >> 0x18\n 12234: u8 [a0 + 0x1b] = a1\n 12237: a1 = a3 >> 0x10\n 12240: u8 [a0 + 0x1a] = a1\n 12243: a1 = a3 >> 0x8\n 12246: u8 [a0 + 0x19] = a1\n 12249: a0 = u64 [sp + 0x118]\n 12253: t1 = a0 + 0x20\n 12256: a2 = t1 <u a0\n 12259: a0 = a3\n 12261: a3 = u64 [sp + 0x108]\n 12265: t2 = a3 + a2\n 12268: a3 = t2 <u a3\n 12271: a3 = a2 if a2 == 0\n 12274: a5 = u64 [sp + 0x100]\n 12278: ra = a5 + a3\n 12281: a3 = s1 | a4\n 12284: u64 [sp + 0xd0] = s0\n 12288: a4 = s0 | a0\n 12291: a4 = a4 | a3\n 12294: a3 = ra <u a5\n 12297: t0 = u64 [sp + 0x110]\n 12301: a5 = t0 + a3\n 12304: u64 [sp + 0xf8] = a5\n 12308: jump @208 if a4 == 0\n      : @202 (gas: 21)\n 12312: a0 = 0\n 12314: a1 = 0\n 12316: u64 [sp + 224] = 0\n 12320: a2 = 0\n 12322: a3 = reverse s1\n 12324: u64 [sp + 0x20] = a3\n 12327: a3 = u64 [sp + 0xd0]\n 12331: a3 = reverse a3\n 12333: u64 [sp + 0x18] = a3\n 12336: a3 = u64 [sp + 0x128]\n 12340: a3 = reverse a3\n 12342: u64 [sp + 0x10] = a3\n 12345: a3 = u64 [sp + 0x120]\n 12349: a3 = reverse a3\n 12351: u64 [sp + 0x8] = a3\n 12354: a4 = 0xffffffe0\n 12364: u64 [sp + 0x28] = a4\n 12367: t0 = u64 [sp + 0xe8]\n 12371: a3 = u64 [sp + 0xf0]\n 12375: s0 = u64 [sp + 0xd8]\n 12379: fallthrough\n      : @203 (gas: 16)\n 12380: u64 [sp + 0xc8] = a2\n 12384: u64 [sp + 0xd0] = a1\n 12388: u64 [sp + 0xd8] = a0\n 12392: a4 = u64 [sp + 0x130]\n 12396: a4 = t0 | a4\n 12399: s1 = u64 [sp + 0x28]\n 12402: a5 = s0 <u s1\n 12405: u64 [sp + 0xf0] = a3\n 12409: a5 = 0 if a3 != 0\n 12411: a5 = 0 if a4 != 0\n 12413: a0 = u64 [sp + 0xf8]\n 12417: u64 [sp + 0xc0] = a0\n 12421: u64 [sp + 0xb8] = ra\n 12425: u64 [sp + 0xb0] = t2\n 12429: u64 [sp + 0x128] = t1\n 12433: jump @209 if a5 == 0\n      : @204 (gas: 6)\n 12437: u64 [sp + 0xe8] = t0\n 12441: a0 = s0 + 0x20\n 12444: u64 [sp + 0x120] = a0\n 12448: i32 a0 = a0 + 0\n 12450: a1 = 0x20\n 12453: ra = 178, jump @0\n      : @205 [@dyn 89] (gas: 9)\n 12459: a1 = u64 [sp + 0x100]\n 12463: a2 = u64 [sp + 0x110]\n 12467: a1 = a1 | a2\n 12470: a2 = u64 [sp + 0x118]\n 12474: a2 = a2 <u s1\n 12477: a3 = u64 [sp + 0x108]\n 12481: a2 = 0 if a3 != 0\n 12483: a2 = 0 if a1 != 0\n 12485: jump @209 if a2 == 0\n      : @206 (gas: 58)\n 12489: a1 = u64 [sp + 0x120]\n 12493: a2 = a1 <u s0\n 12496: s0 = u64 [sp + 0xf0]\n 12500: a1 = s0 + a2\n 12503: u64 [sp + 0x118] = a1\n 12507: a1 = a1 <u s0\n 12510: a1 = a2 if a2 == 0\n 12513: a2 = u8 [a0 + 0xc]\n 12516: u64 [sp + 0x108] = a2\n 12520: a2 = u8 [a0 + 0xd]\n 12523: u64 [sp + 0x100] = a2\n 12527: a2 = u8 [a0 + 0xe]\n 12530: u64 [sp + 0xf8] = a2\n 12534: a2 = u8 [a0 + 0xf]\n 12537: u64 [sp + 0xf0] = a2\n 12541: a2 = u8 [a0 + 0x10]\n 12544: u64 [sp + 0xa8] = a2\n 12548: a2 = u8 [a0 + 0x11]\n 12551: u64 [sp + 0xa0] = a2\n 12555: a2 = u8 [a0 + 0x12]\n 12558: u64 [sp + 0x98] = a2\n 12562: a2 = u8 [a0 + 0x13]\n 12565: u64 [sp + 0x90] = a2\n 12569: a2 = u8 [a0 + 0x14]\n 12572: u64 [sp + 0x88] = a2\n 12576: a2 = u8 [a0 + 0x15]\n 12579: u64 [sp + 0x80] = a2\n 12583: a2 = u8 [a0 + 0x16]\n 12586: u64 [sp + 0x78] = a2\n 12589: a2 = u8 [a0 + 0x17]\n 12592: u64 [sp + 0x70] = a2\n 12595: a2 = u8 [a0 + 0x18]\n 12598: u64 [sp + 0x68] = a2\n 12601: a2 = u8 [a0 + 0x19]\n 12604: u64 [sp + 0x60] = a2\n 12607: a2 = u8 [a0 + 0x1a]\n 12610: u64 [sp + 0x58] = a2\n 12613: a2 = u8 [a0 + 0x1b]\n 12616: u64 [sp + 0x50] = a2\n 12619: a2 = u8 [a0 + 0x1c]\n 12622: u64 [sp + 0x48] = a2\n 12625: a2 = u8 [a0 + 0x1d]\n 12628: u64 [sp + 0x40] = a2\n 12631: a2 = u8 [a0 + 0x1e]\n 12634: u64 [sp + 0x38] = a2\n 12637: a0 = u8 [a0 + 0x1f]\n 12640: u64 [sp + 0x30] = a0\n 12643: s1 = u64 [sp + 0xe8]\n 12647: a1 = a1 + s1\n 12650: u64 [sp + 0x110] = a1\n 12654: a0 = a1 <u s1\n 12657: a1 = u64 [sp + 0x130]\n 12661: a1 = a1 + a0\n 12664: u64 [sp + 0x130] = a1\n 12668: s0 = u64 [sp + 0x128]\n 12672: i32 a0 = s0 + 0\n 12674: a1 = 0x20\n 12677: ra = 180, jump @0\n      : @207 [@dyn 90] (gas: 110)\n 12683: a1 = u64 [sp + 0x30]\n 12686: u8 [a0 + 0x1f] = a1\n 12689: a1 = u64 [sp + 0x38]\n 12692: u8 [a0 + 0x1e] = a1\n 12695: a1 = u64 [sp + 0x40]\n 12698: u8 [a0 + 0x1d] = a1\n 12701: a1 = u64 [sp + 0x48]\n 12704: u8 [a0 + 0x1c] = a1\n 12707: a1 = u64 [sp + 0x50]\n 12710: u8 [a0 + 0x1b] = a1\n 12713: a1 = u64 [sp + 0x58]\n 12716: u8 [a0 + 0x1a] = a1\n 12719: a1 = u64 [sp + 0x60]\n 12722: u8 [a0 + 0x19] = a1\n 12725: a1 = u64 [sp + 0x68]\n 12728: u8 [a0 + 0x18] = a1\n 12731: a1 = u64 [sp + 0x70]\n 12734: u8 [a0 + 0x17] = a1\n 12737: a1 = u64 [sp + 0x78]\n 12740: u8 [a0 + 0x16] = a1\n 12743: a1 = u64 [sp + 0x80]\n 12747: u8 [a0 + 0x15] = a1\n 12750: a1 = u64 [sp + 0x88]\n 12754: u8 [a0 + 0x14] = a1\n 12757: a1 = u64 [sp + 0x90]\n 12761: u8 [a0 + 0x13] = a1\n 12764: a1 = u64 [sp + 0x98]\n 12768: u8 [a0 + 0x12] = a1\n 12771: a1 = u64 [sp + 0xa0]\n 12775: u8 [a0 + 0x11] = a1\n 12778: a1 = u64 [sp + 0xa8]\n 12782: u8 [a0 + 0x10] = a1\n 12785: a1 = u64 [sp + 0xf0]\n 12789: u8 [a0 + 0xf] = a1\n 12792: a1 = u64 [sp + 0xf8]\n 12796: u8 [a0 + 0xe] = a1\n 12799: a1 = u64 [sp + 0x100]\n 12803: u8 [a0 + 0xd] = a1\n 12806: a1 = u64 [sp + 0x108]\n 12810: u8 [a0 + 0xc] = a1\n 12813: u8 [a0 + 11] = 0\n 12816: u8 [a0 + 10] = 0\n 12819: u8 [a0 + 9] = 0\n 12822: u8 [a0 + 8] = 0\n 12825: u8 [a0 + 7] = 0\n 12828: u8 [a0 + 6] = 0\n 12831: u8 [a0 + 5] = 0\n 12834: u8 [a0 + 4] = 0\n 12837: u8 [a0 + 3] = 0\n 12840: u8 [a0 + 2] = 0\n 12843: u8 [a0 + 1] = 0\n 12846: u8 [a0 + 0] = 0\n 12848: t1 = u64 [sp + 0xd8]\n 12852: t1 = t1 + 0x1\n 12855: a0 = t1 <u 0x1\n 12858: t2 = u64 [sp + 0xd0]\n 12862: t2 = t2 + a0\n 12865: a0 = t1 | t2\n 12868: a4 = a0 <u 0x1\n 12871: a0 = u64 [sp + 0xe0]\n 12875: a4 = a4 + a0\n 12878: a0 = a4 <u a0\n 12881: ra = u64 [sp + 0xc8]\n 12885: ra = ra + a0\n 12888: a0 = u64 [sp + 0x8]\n 12891: a0 = t1 <u a0\n 12894: a2 = u64 [sp + 0x10]\n 12897: a1 = t2 ^ a2\n 12900: a2 = t2 <u a2\n 12903: a2 = a0 if a1 == 0\n 12906: a0 = u64 [sp + 0x18]\n 12909: s1 = a4 <u a0\n 12912: a3 = u64 [sp + 0x20]\n 12915: a1 = ra ^ a3\n 12918: a5 = ra <u a3\n 12921: a5 = s1 if a1 == 0\n 12924: a0 = a0 ^ a4\n 12927: a1 = a1 | a0\n 12930: a0 = s0 + 0x20\n 12933: u64 [sp + 0xf0] = a0\n 12937: a5 = a2 if a1 == 0\n 12940: a2 = a0 <u s0\n 12943: s1 = u64 [sp + 0xb0]\n 12947: a0 = s1 + a2\n 12950: u64 [sp + 0xe8] = a0\n 12954: a3 = a0 <u s1\n 12957: a3 = a2 if a2 == 0\n 12960: a1 = u64 [sp + 0xb8]\n 12964: a3 = a3 + a1\n 12967: u64 [sp + 0xd8] = a3\n 12971: a3 = a3 <u a1\n 12974: a0 = u64 [sp + 0xc0]\n 12978: a3 = a3 + a0\n 12981: u64 [sp + 0xf8] = a3\n 12985: u64 [sp + 0xe0] = a4\n 12989: s0 = u64 [sp + 0x120]\n 12993: a3 = u64 [sp + 0x118]\n 12997: t0 = u64 [sp + 0x110]\n 13001: a2 = u64 [sp + 0x128]\n 13005: u64 [sp + 0x118] = a2\n 13009: u64 [sp + 0x108] = s1\n 13013: u64 [sp + 0x100] = a1\n 13017: u64 [sp + 0x110] = a0\n 13021: a0 = t1\n 13023: t1 = u64 [sp + 0xf0]\n 13027: a1 = t2\n 13029: t2 = u64 [sp + 0xe8]\n 13033: a2 = ra\n 13035: ra = u64 [sp + 0xd8]\n 13039: jump @203 if a5 != 0\n      : @208 (gas: 11)\n 13043: a4 = u64 [sp]\n 13045: u64 [a4] = t1\n 13047: u64 [a4 + 0x8] = t2\n 13050: u64 [a4 + 0x10] = ra\n 13053: a0 = u64 [sp + 0xf8]\n 13057: u64 [a4 + 0x18] = a0\n 13060: ra = u64 [sp + 0x148]\n 13064: s0 = u64 [sp + 0x140]\n 13068: s1 = u64 [sp + 0x138]\n 13072: sp = sp + 0x150\n 13076: ret\n      : @209 (gas: 1)\n 13078: trap\n      : @210 (gas: 22)\n 13079: sp = sp + 0xfffffffffffffda0\n 13083: u64 [sp + 0x258] = ra\n 13087: u64 [sp + 0x250] = s0\n 13091: u64 [sp + 0x248] = s1\n 13095: s0 = sp + 0x260\n 13099: sp = sp & 0xfffffffffffffff0\n 13102: a5 = u64 [a1 + 0x18]\n 13105: s1 = u64 [a1 + 0x10]\n 13108: a4 = u64 [a1 + 0x8]\n 13111: t0 = u64 [a1]\n 13113: u64 [sp + 0x40] = a4\n 13116: u64 [sp + 0x48] = a5\n 13119: a1 = a4 | a5\n 13122: a4 = t0 | s1\n 13125: a4 = a4 | a1\n 13128: a4 = a4 >> 0x20\n 13131: u64 [sp + 0x38] = s1\n 13134: a1 = a1 | s1\n 13137: a1 = a1 << 0x20\n 13140: a1 = a1 | a4\n 13143: u64 [sp + 0x28] = a0\n 13146: jump @229 if a1 != 0\n      : @211 (gas: 20)\n 13150: a0 = u64 [a3 + 0x18]\n 13153: u64 [sp + 0x8] = a0\n 13156: a0 = u64 [a3 + 0x10]\n 13159: u64 [sp + 0x10] = a0\n 13162: a0 = u64 [a3 + 0x8]\n 13165: u64 [sp + 0x18] = a0\n 13168: a0 = u64 [a3]\n 13170: u64 [sp + 0x20] = a0\n 13173: a0 = u64 [a2 + 0x18]\n 13176: u64 [sp + 0x1b8] = a0\n 13180: a0 = u64 [a2 + 0x10]\n 13183: u64 [sp + 0x1c8] = a0\n 13187: a0 = u64 [a2 + 0x8]\n 13190: u64 [sp + 0x1c0] = a0\n 13194: s1 = u64 [a2]\n 13196: i32 a0 = t0 + 0\n 13198: a1 = 0x20\n 13201: u64 [sp] = a0\n 13203: u64 [sp + 0x30] = t0\n 13206: ra = 182, jump @0\n      : @212 [@dyn 91] (gas: 43)\n 13212: u8 [a0 + 31] = 0x40\n 13216: a4 = u64 [sp + 0x1c8]\n 13220: a1 = s1 | a4\n 13223: a2 = u64 [sp + 0x1b8]\n 13227: a5 = u64 [sp + 0x1c0]\n 13231: a2 = a2 | a5\n 13234: a1 = a1 | a2\n 13237: a1 = a1 >> 0x20\n 13240: a2 = a2 | a4\n 13243: a2 = a2 << 0x20\n 13246: a1 = a1 | a2\n 13249: u8 [a0 + 30] = 0\n 13252: u8 [a0 + 29] = 0\n 13255: u8 [a0 + 28] = 0\n 13258: u8 [a0 + 27] = 0\n 13261: u8 [a0 + 26] = 0\n 13264: u8 [a0 + 25] = 0\n 13267: u8 [a0 + 24] = 0\n 13270: u8 [a0 + 23] = 0\n 13273: u8 [a0 + 22] = 0\n 13276: u8 [a0 + 21] = 0\n 13279: u8 [a0 + 20] = 0\n 13282: u8 [a0 + 19] = 0\n 13285: u8 [a0 + 18] = 0\n 13288: u8 [a0 + 17] = 0\n 13291: u8 [a0 + 16] = 0\n 13294: u8 [a0 + 15] = 0\n 13297: u8 [a0 + 14] = 0\n 13300: u8 [a0 + 13] = 0\n 13303: u8 [a0 + 12] = 0\n 13306: u8 [a0 + 11] = 0\n 13309: u8 [a0 + 10] = 0\n 13312: u8 [a0 + 9] = 0\n 13315: u8 [a0 + 8] = 0\n 13318: u8 [a0 + 7] = 0\n 13321: u8 [a0 + 6] = 0\n 13324: u8 [a0 + 5] = 0\n 13327: u8 [a0 + 4] = 0\n 13330: u8 [a0 + 3] = 0\n 13333: u8 [a0 + 2] = 0\n 13336: u8 [a0 + 1] = 0\n 13339: u8 [a0 + 0] = 0\n 13341: jump @229 if a1 != 0\n      : @213 (gas: 20)\n 13345: a3 = s1\n 13347: a0 = u64 [sp + 0x30]\n 13350: a1 = a0 + 0x40\n 13353: u64 [sp + 0x1a8] = a1\n 13357: a0 = a1 <u a0\n 13360: a1 = u64 [sp + 0x40]\n 13363: a2 = a1 + a0\n 13366: u64 [sp + 0x1a0] = a2\n 13370: a1 = a2 <u a1\n 13373: a1 = a0 if a0 == 0\n 13376: a0 = u64 [sp + 0x38]\n 13379: s1 = a0 + a1\n 13382: a0 = s1 <u a0\n 13385: a1 = u64 [sp + 0x48]\n 13388: a0 = a0 + a1\n 13391: u64 [sp + 0x198] = a0\n 13395: u64 [sp + 0x170] = a3\n 13399: i32 a0 = a3 + 0\n 13401: a1 = 0x20\n 13404: ra = 184, jump @0\n      : @214 [@dyn 92] (gas: 12)\n 13410: t0 = u64 [sp + 0x1a8]\n 13414: a1 = t0 | s1\n 13417: a2 = u64 [sp + 0x1a0]\n 13421: a3 = u64 [sp + 0x198]\n 13425: a2 = a2 | a3\n 13428: a1 = a1 | a2\n 13431: a1 = a1 >> 0x20\n 13434: u64 [sp + 0x190] = s1\n 13438: a2 = a2 | s1\n 13441: a2 = a2 << 0x20\n 13444: a1 = a1 | a2\n 13447: jump @229 if a1 != 0\n      : @215 (gas: 94)\n 13451: a1 = u8 [a0 + 0x19]\n 13454: a2 = u8 [a0 + 0x18]\n 13457: a3 = u8 [a0 + 0x1a]\n 13460: a4 = u8 [a0 + 0x1b]\n 13463: a1 = a1 << 0x8\n 13466: a1 = a1 | a2\n 13469: a3 = a3 << 0x10\n 13472: a4 = a4 << 0x18\n 13475: a3 = a3 | a4\n 13478: a1 = a1 | a3\n 13481: a2 = u8 [a0 + 0x1d]\n 13484: a3 = u8 [a0 + 0x1c]\n 13487: a4 = u8 [a0 + 0x1e]\n 13490: a5 = u8 [a0 + 0x1f]\n 13493: a2 = a2 << 0x8\n 13496: a2 = a2 | a3\n 13499: a4 = a4 << 0x10\n 13502: a5 = a5 << 0x18\n 13505: a4 = a4 | a5\n 13508: a2 = a2 | a4\n 13511: a2 = a2 << 0x20\n 13514: a1 = a1 | a2\n 13517: u64 [sp + 0x1d8] = a1\n 13521: a1 = u8 [a0 + 0x11]\n 13524: a2 = u8 [a0 + 0x10]\n 13527: a3 = u8 [a0 + 0x12]\n 13530: a4 = u8 [a0 + 0x13]\n 13533: a1 = a1 << 0x8\n 13536: a1 = a1 | a2\n 13539: a3 = a3 << 0x10\n 13542: a4 = a4 << 0x18\n 13545: a3 = a3 | a4\n 13548: a1 = a1 | a3\n 13551: a2 = u8 [a0 + 0x15]\n 13554: a3 = u8 [a0 + 0x14]\n 13557: a4 = u8 [a0 + 0x16]\n 13560: a5 = u8 [a0 + 0x17]\n 13563: a2 = a2 << 0x8\n 13566: a2 = a2 | a3\n 13569: a4 = a4 << 0x10\n 13572: a5 = a5 << 0x18\n 13575: a4 = a4 | a5\n 13578: a2 = a2 | a4\n 13581: a2 = a2 << 0x20\n 13584: a1 = a1 | a2\n 13587: u64 [sp + 0x1d0] = a1\n 13591: a1 = u8 [a0 + 0x9]\n 13594: a2 = u8 [a0 + 0x8]\n 13597: a3 = u8 [a0 + 0xa]\n 13600: a4 = u8 [a0 + 0xb]\n 13603: a1 = a1 << 0x8\n 13606: a1 = a1 | a2\n 13609: a3 = a3 << 0x10\n 13612: a4 = a4 << 0x18\n 13615: a3 = a3 | a4\n 13618: a1 = a1 | a3\n 13621: a2 = u8 [a0 + 0xd]\n 13624: a3 = u8 [a0 + 0xc]\n 13627: a4 = u8 [a0 + 0xe]\n 13630: a5 = u8 [a0 + 0xf]\n 13633: a2 = a2 << 0x8\n 13636: a2 = a2 | a3\n 13639: a4 = a4 << 0x10\n 13642: a5 = a5 << 0x18\n 13645: a4 = a4 | a5\n 13648: a2 = a2 | a4\n 13651: a2 = a2 << 0x20\n 13654: a1 = a1 | a2\n 13657: u64 [sp + 0x188] = a1\n 13661: a1 = u8 [a0 + 0x1]\n 13664: a2 = u8 [a0]\n 13666: a3 = u8 [a0 + 0x2]\n 13669: a4 = u8 [a0 + 0x3]\n 13672: a1 = a1 << 0x8\n 13675: a1 = a1 | a2\n 13678: a3 = a3 << 0x10\n 13681: a4 = a4 << 0x18\n 13684: a3 = a3 | a4\n 13687: a1 = a1 | a3\n 13690: a2 = u8 [a0 + 0x5]\n 13693: a3 = u8 [a0 + 0x4]\n 13696: a4 = u8 [a0 + 0x6]\n 13699: a0 = u8 [a0 + 0x7]\n 13702: a2 = a2 << 0x8\n 13705: a2 = a2 | a3\n 13708: a4 = a4 << 0x10\n 13711: a0 = a0 << 0x18\n 13714: a0 = a0 | a4\n 13717: a0 = a0 | a2\n 13720: a0 = a0 << 0x20\n 13723: s1 = a0 | a1\n 13726: i32 a0 = t0 + 0\n 13728: a1 = 0x20\n 13731: ra = 186, jump @0\n      : @216 [@dyn 93] (gas: 82)\n 13737: a4 = u64 [sp + 0x1d8]\n 13741: t2 = u64 [sp + 0x188]\n 13745: a3 = u64 [sp + 0x1d0]\n 13749: u8 [a0 + 0x10] = a3\n 13752: a1 = t2 >> 0x38\n 13755: u8 [a0 + 0xf] = a1\n 13758: a1 = t2 >> 0x30\n 13761: u8 [a0 + 0xe] = a1\n 13764: a1 = t2 >> 0x28\n 13767: u8 [a0 + 0xd] = a1\n 13770: a1 = t2 >> 0x20\n 13773: u8 [a0 + 0xc] = a1\n 13776: a1 = t2 >> 0x18\n 13779: u8 [a0 + 0xb] = a1\n 13782: a1 = t2 >> 0x10\n 13785: u8 [a0 + 0xa] = a1\n 13788: a1 = t2 >> 0x8\n 13791: u8 [a0 + 0x9] = a1\n 13794: u8 [a0 + 0x8] = t2\n 13797: a1 = s1 >> 0x38\n 13800: u8 [a0 + 0x7] = a1\n 13803: a1 = s1 >> 0x30\n 13806: u8 [a0 + 0x6] = a1\n 13809: a1 = s1 >> 0x28\n 13812: u8 [a0 + 0x5] = a1\n 13815: a1 = s1 >> 0x20\n 13818: u8 [a0 + 0x4] = a1\n 13821: a1 = s1 >> 0x18\n 13824: u8 [a0 + 0x3] = a1\n 13827: a1 = s1 >> 0x10\n 13830: u8 [a0 + 0x2] = a1\n 13833: a1 = s1 >> 0x8\n 13836: u8 [a0 + 0x1] = a1\n 13839: u8 [a0] = s1\n 13841: u8 [a0 + 0x18] = a4\n 13844: a1 = a3 >> 0x38\n 13847: u8 [a0 + 0x17] = a1\n 13850: a1 = a3 >> 0x30\n 13853: u8 [a0 + 0x16] = a1\n 13856: a1 = a3 >> 0x28\n 13859: u8 [a0 + 0x15] = a1\n 13862: a1 = a3 >> 0x20\n 13865: u8 [a0 + 0x14] = a1\n 13868: a1 = a3 >> 0x18\n 13871: u8 [a0 + 0x13] = a1\n 13874: a1 = a3 >> 0x10\n 13877: u8 [a0 + 0x12] = a1\n 13880: a1 = a3 >> 0x8\n 13883: u8 [a0 + 0x11] = a1\n 13886: a1 = a4 >> 0x38\n 13889: u8 [a0 + 0x1f] = a1\n 13892: a1 = a4 >> 0x30\n 13895: u8 [a0 + 0x1e] = a1\n 13898: a1 = a4 >> 0x28\n 13901: u8 [a0 + 0x1d] = a1\n 13904: a1 = a4 >> 0x20\n 13907: u8 [a0 + 0x1c] = a1\n 13910: a1 = a4 >> 0x18\n 13913: u8 [a0 + 0x1b] = a1\n 13916: a1 = a4 >> 0x10\n 13919: u8 [a0 + 0x1a] = a1\n 13922: a1 = a4 >> 0x8\n 13925: u8 [a0 + 0x19] = a1\n 13928: a0 = u64 [sp + 0x30]\n 13931: a1 = a0 + 0x60\n 13934: u64 [sp + 0x1b0] = a1\n 13938: a0 = a1 <u a0\n 13941: a1 = u64 [sp + 0x40]\n 13944: a2 = a1 + a0\n 13947: t0 = a2\n 13949: a1 = a2 <u a1\n 13952: a1 = a0 if a0 == 0\n 13955: a2 = u64 [sp + 0x38]\n 13958: t1 = a2 + a1\n 13961: u64 [sp + 0x168] = s1\n 13965: a0 = s1 | a3\n 13968: a1 = t2 | a4\n 13971: a0 = a0 | a1\n 13974: a1 = t1 <u a2\n 13977: a2 = u64 [sp + 0x48]\n 13980: ra = a2 + a1\n 13983: jump @225 if a0 == 0\n      : @217 (gas: 21)\n 13987: s1 = a4\n 13989: a4 = 0\n 13991: a5 = 0\n 13993: u64 [sp + 376] = 0\n 13997: u64 [sp + 384] = 0\n 14001: a0 = u64 [sp + 0x168]\n 14005: a0 = reverse a0\n 14007: u64 [sp + 0x68] = a0\n 14010: a0 = reverse t2\n 14012: u64 [sp + 0x60] = a0\n 14015: a0 = reverse a3\n 14017: u64 [sp + 0x58] = a0\n 14020: a0 = reverse s1\n 14022: u64 [sp + 0x50] = a0\n 14025: a0 = 0xffffffe0\n 14035: u64 [sp + 0x188] = a0\n 14039: s1 = u64 [sp + 0x1b8]\n 14043: a0 = u64 [sp + 0x1c8]\n 14047: a2 = u64 [sp + 0x1c0]\n 14051: a3 = u64 [sp + 0x170]\n 14055: fallthrough\n      : @218 (gas: 15)\n 14056: u64 [sp + 0x168] = a5\n 14060: u64 [sp + 0x170] = a4\n 14064: u64 [sp + 0x1c8] = a0\n 14068: a0 = a0 | s1\n 14071: a1 = u64 [sp + 0x188]\n 14075: a1 = a3 <u a1\n 14078: u64 [sp + 0x1c0] = a2\n 14082: a1 = 0 if a2 != 0\n 14084: a1 = 0 if a0 != 0\n 14086: u64 [sp + 0x160] = ra\n 14090: u64 [sp + 0x158] = t1\n 14094: u64 [sp + 0x150] = t0\n 14098: a0 = u64 [sp + 0x1b0]\n 14102: u64 [sp + 0x1d8] = a0\n 14106: jump @229 if a1 == 0\n      : @219 (gas: 7)\n 14110: u64 [sp + 0x1b8] = s1\n 14114: a0 = a3 + 0x20\n 14117: u64 [sp + 0x1d0] = a0\n 14121: i32 a0 = a0 + 0\n 14123: a1 = 0x20\n 14126: s1 = a3\n 14128: ra = 188, jump @0\n      : @220 [@dyn 94] (gas: 10)\n 14134: a1 = u64 [sp + 0x190]\n 14138: a2 = u64 [sp + 0x198]\n 14142: a1 = a1 | a2\n 14145: a2 = u64 [sp + 0x1a8]\n 14149: a3 = u64 [sp + 0x188]\n 14153: a2 = a2 <u a3\n 14156: a3 = u64 [sp + 0x1a0]\n 14160: a2 = 0 if a3 != 0\n 14162: a2 = 0 if a1 != 0\n 14164: jump @229 if a2 == 0\n      : @221 (gas: 80)\n 14168: a1 = u64 [sp + 0x1d0]\n 14172: a2 = a1 <u s1\n 14175: a1 = u64 [sp + 0x1c0]\n 14179: a3 = a1 + a2\n 14182: u64 [sp + 0x1a8] = a3\n 14186: a1 = a3 <u a1\n 14189: a1 = a2 if a2 == 0\n 14192: a2 = u8 [a0]\n 14194: u64 [sp + 0x1c0] = a2\n 14198: a2 = u8 [a0 + 0x1]\n 14201: u64 [sp + 0x1b0] = a2\n 14205: a2 = u8 [a0 + 0x2]\n 14208: u64 [sp + 0x198] = a2\n 14212: a2 = u8 [a0 + 0x3]\n 14215: u64 [sp + 0x190] = a2\n 14219: a2 = u8 [a0 + 0x4]\n 14222: u64 [sp + 0x148] = a2\n 14226: a2 = u8 [a0 + 0x5]\n 14229: u64 [sp + 0x140] = a2\n 14233: a2 = u8 [a0 + 0x6]\n 14236: u64 [sp + 0x138] = a2\n 14240: a2 = u8 [a0 + 0x7]\n 14243: u64 [sp + 0x130] = a2\n 14247: a2 = u8 [a0 + 0x8]\n 14250: u64 [sp + 0x128] = a2\n 14254: a2 = u8 [a0 + 0x9]\n 14257: u64 [sp + 0x120] = a2\n 14261: a2 = u8 [a0 + 0xa]\n 14264: u64 [sp + 0x118] = a2\n 14268: a2 = u8 [a0 + 0xb]\n 14271: u64 [sp + 0x110] = a2\n 14275: a2 = u8 [a0 + 0xc]\n 14278: u64 [sp + 0x108] = a2\n 14282: a2 = u8 [a0 + 0xd]\n 14285: u64 [sp + 0x100] = a2\n 14289: a2 = u8 [a0 + 0xe]\n 14292: u64 [sp + 0xf8] = a2\n 14296: a2 = u8 [a0 + 0xf]\n 14299: u64 [sp + 0xf0] = a2\n 14303: a2 = u8 [a0 + 0x10]\n 14306: u64 [sp + 0xe8] = a2\n 14310: a2 = u8 [a0 + 0x11]\n 14313: u64 [sp + 0xe0] = a2\n 14317: a2 = u8 [a0 + 0x12]\n 14320: u64 [sp + 0xd8] = a2\n 14324: a2 = u8 [a0 + 0x13]\n 14327: u64 [sp + 0xd0] = a2\n 14331: a2 = u8 [a0 + 0x14]\n 14334: u64 [sp + 0xc8] = a2\n 14338: a2 = u8 [a0 + 0x15]\n 14341: u64 [sp + 0xc0] = a2\n 14345: a2 = u8 [a0 + 0x16]\n 14348: u64 [sp + 0xb8] = a2\n 14352: a2 = u8 [a0 + 0x17]\n 14355: u64 [sp + 0xb0] = a2\n 14359: a2 = u8 [a0 + 0x18]\n 14362: u64 [sp + 0xa8] = a2\n 14366: a2 = u8 [a0 + 0x19]\n 14369: u64 [sp + 0xa0] = a2\n 14373: a2 = u8 [a0 + 0x1a]\n 14376: u64 [sp + 0x98] = a2\n 14380: a2 = u8 [a0 + 0x1b]\n 14383: u64 [sp + 0x90] = a2\n 14387: a2 = u8 [a0 + 0x1c]\n 14390: u64 [sp + 0x88] = a2\n 14394: a2 = u8 [a0 + 0x1d]\n 14397: u64 [sp + 0x80] = a2\n 14401: a2 = u8 [a0 + 0x1e]\n 14404: u64 [sp + 0x78] = a2\n 14407: a0 = u8 [a0 + 0x1f]\n 14410: u64 [sp + 0x70] = a0\n 14413: a0 = u64 [sp + 0x1c8]\n 14417: a1 = a1 + a0\n 14420: u64 [sp + 0x1a0] = a1\n 14424: a0 = a1 <u a0\n 14427: s1 = u64 [sp + 0x1b8]\n 14431: s1 = s1 + a0\n 14434: a0 = i32 [sp + 0x1d8]\n 14438: a1 = 0x20\n 14441: ra = 190, jump @0\n      : @222 [@dyn 95] (gas: 123)\n 14447: a1 = u64 [sp + 0x70]\n 14450: u8 [a0 + 0x1f] = a1\n 14453: a1 = u64 [sp + 0x78]\n 14456: u8 [a0 + 0x1e] = a1\n 14459: a1 = u64 [sp + 0x80]\n 14463: u8 [a0 + 0x1d] = a1\n 14466: a1 = u64 [sp + 0x88]\n 14470: u8 [a0 + 0x1c] = a1\n 14473: a1 = u64 [sp + 0x90]\n 14477: u8 [a0 + 0x1b] = a1\n 14480: a1 = u64 [sp + 0x98]\n 14484: u8 [a0 + 0x1a] = a1\n 14487: a1 = u64 [sp + 0xa0]\n 14491: u8 [a0 + 0x19] = a1\n 14494: a1 = u64 [sp + 0xa8]\n 14498: u8 [a0 + 0x18] = a1\n 14501: a1 = u64 [sp + 0xb0]\n 14505: u8 [a0 + 0x17] = a1\n 14508: a1 = u64 [sp + 0xb8]\n 14512: u8 [a0 + 0x16] = a1\n 14515: a1 = u64 [sp + 0xc0]\n 14519: u8 [a0 + 0x15] = a1\n 14522: a1 = u64 [sp + 0xc8]\n 14526: u8 [a0 + 0x14] = a1\n 14529: a1 = u64 [sp + 0xd0]\n 14533: u8 [a0 + 0x13] = a1\n 14536: a1 = u64 [sp + 0xd8]\n 14540: u8 [a0 + 0x12] = a1\n 14543: a1 = u64 [sp + 0xe0]\n 14547: u8 [a0 + 0x11] = a1\n 14550: a1 = u64 [sp + 0xe8]\n 14554: u8 [a0 + 0x10] = a1\n 14557: a1 = u64 [sp + 0xf0]\n 14561: u8 [a0 + 0xf] = a1\n 14564: a1 = u64 [sp + 0xf8]\n 14568: u8 [a0 + 0xe] = a1\n 14571: a1 = u64 [sp + 0x100]\n 14575: u8 [a0 + 0xd] = a1\n 14578: a1 = u64 [sp + 0x108]\n 14582: u8 [a0 + 0xc] = a1\n 14585: a1 = u64 [sp + 0x110]\n 14589: u8 [a0 + 0xb] = a1\n 14592: a1 = u64 [sp + 0x118]\n 14596: u8 [a0 + 0xa] = a1\n 14599: a1 = u64 [sp + 0x120]\n 14603: u8 [a0 + 0x9] = a1\n 14606: a1 = u64 [sp + 0x128]\n 14610: u8 [a0 + 0x8] = a1\n 14613: a1 = u64 [sp + 0x130]\n 14617: u8 [a0 + 0x7] = a1\n 14620: a1 = u64 [sp + 0x138]\n 14624: u8 [a0 + 0x6] = a1\n 14627: a1 = u64 [sp + 0x140]\n 14631: u8 [a0 + 0x5] = a1\n 14634: a1 = u64 [sp + 0x148]\n 14638: u8 [a0 + 0x4] = a1\n 14641: a1 = u64 [sp + 0x190]\n 14645: u8 [a0 + 0x3] = a1\n 14648: a1 = u64 [sp + 0x198]\n 14652: u8 [a0 + 0x2] = a1\n 14655: a1 = u64 [sp + 0x1b0]\n 14659: u8 [a0 + 0x1] = a1\n 14662: a1 = u64 [sp + 0x1c0]\n 14666: u8 [a0] = a1\n 14668: ra = u64 [sp + 0x170]\n 14672: ra = ra + 0x1\n 14675: a0 = ra <u 0x1\n 14678: t1 = u64 [sp + 0x168]\n 14682: t1 = t1 + a0\n 14685: a0 = ra | t1\n 14688: a0 = a0 <u 0x1\n 14691: a1 = u64 [sp + 0x178]\n 14695: a0 = a0 + a1\n 14698: a1 = a0 <u a1\n 14701: a5 = u64 [sp + 0x180]\n 14705: a5 = a5 + a1\n 14708: a1 = u64 [sp + 0x50]\n 14711: a1 = ra <u a1\n 14714: a3 = u64 [sp + 0x58]\n 14717: a2 = t1 ^ a3\n 14720: a3 = t1 <u a3\n 14723: a3 = a1 if a2 == 0\n 14726: a2 = u64 [sp + 0x60]\n 14729: t0 = a0 <u a2\n 14732: a1 = u64 [sp + 0x68]\n 14735: a4 = a5 ^ a1\n 14738: u64 [sp + 0x180] = a5\n 14742: a1 = a5 <u a1\n 14745: a1 = t0 if a4 == 0\n 14748: a2 = a2 ^ a0\n 14751: a2 = a2 | a4\n 14754: a1 = a3 if a2 == 0\n 14757: a3 = u64 [sp + 0x1d8]\n 14761: a2 = a3 + 0x20\n 14764: u64 [sp + 0x1b0] = a2\n 14768: a2 = a2 <u a3\n 14771: t0 = u64 [sp + 0x150]\n 14775: a3 = t0 + a2\n 14778: u64 [sp + 0x1c8] = a3\n 14782: a3 = a3 <u t0\n 14785: a3 = a2 if a2 == 0\n 14788: a5 = u64 [sp + 0x158]\n 14792: a3 = a3 + a5\n 14795: u64 [sp + 0x1c0] = a3\n 14799: a2 = a3 <u a5\n 14802: a4 = u64 [sp + 0x160]\n 14806: a2 = a2 + a4\n 14809: u64 [sp + 0x1b8] = a2\n 14813: u64 [sp + 0x178] = a0\n 14817: a3 = u64 [sp + 0x1d0]\n 14821: a2 = u64 [sp + 0x1a8]\n 14825: a0 = u64 [sp + 0x1a0]\n 14829: t2 = u64 [sp + 0x1d8]\n 14833: u64 [sp + 0x1a8] = t2\n 14837: u64 [sp + 0x1a0] = t0\n 14841: t0 = u64 [sp + 0x1c8]\n 14845: u64 [sp + 0x190] = a5\n 14849: u64 [sp + 0x198] = a4\n 14853: a4 = ra\n 14855: ra = u64 [sp + 0x1b8]\n 14859: a5 = t1\n 14861: t1 = u64 [sp + 0x1c0]\n 14865: jump @218 if a1 != 0\n      : @223 (gas: 10)\n 14869: a0 = u64 [sp + 0x38]\n 14872: a2 = u64 [sp + 0x48]\n 14875: a2 = a2 | a0\n 14878: a1 = 0xffffffe0\n 14888: a3 = u64 [sp + 0x30]\n 14891: a1 = a3 <u a1\n 14894: s1 = u64 [sp + 0x40]\n 14897: a1 = 0 if s1 != 0\n 14899: a1 = 0 if a2 != 0\n 14901: jump @229 if a1 == 0\n      : @224 (gas: 21)\n 14905: a4 = u64 [sp + 0x1b0]\n 14909: a5 = a4 <u a3\n 14912: a1 = t0 ^ s1\n 14915: a2 = t0 <u s1\n 14918: a2 = a5 if a1 == 0\n 14921: t2 = t1 - a0\n 14924: a1 = t2 - a2\n 14927: u64 [sp + 0x1d8] = a1\n 14931: a1 = t2 <u a2\n 14934: a2 = t1 <u a0\n 14937: a1 = a1 + a2\n 14940: a0 = u64 [sp + 0x48]\n 14943: a2 = ra - a0\n 14946: a2 = a2 - a1\n 14949: u64 [sp + 0x1a8] = a2\n 14953: a1 = t0 - s1\n 14956: a1 = a1 - a5\n 14959: u64 [sp + 0x1d0] = a1\n 14963: s1 = a4 - a3\n 14966: a0 = u64 [sp]\n 14968: jump @226\n      : @225 (gas: 9)\n 14970: u64 [sp + 464] = 0\n 14974: u64 [sp + 472] = 0\n 14978: u64 [sp + 424] = 0\n 14982: s1 = 0x60\n 14985: a0 = u64 [sp]\n 14987: u64 [sp + 0x1c8] = t0\n 14991: u64 [sp + 0x1c0] = t1\n 14995: u64 [sp + 0x1b8] = ra\n 14999: fallthrough\n      : @226 (gas: 3)\n 15000: i32 a0 = a0 + 0x20\n 15003: a1 = 0x20\n 15006: ra = 192, jump @0\n      : @227 [@dyn 96] (gas: 87)\n 15012: a1 = u64 [sp + 0x1a8]\n 15016: a1 = reverse a1\n 15018: a2 = u64 [sp + 0x1d8]\n 15022: a2 = reverse a2\n 15024: a3 = u64 [sp + 0x1d0]\n 15028: a3 = reverse a3\n 15030: a4 = reverse s1\n 15032: a5 = a4 >> 0x38\n 15035: u8 [a0 + 0x1f] = a5\n 15038: a5 = a4 >> 0x30\n 15041: u8 [a0 + 0x1e] = a5\n 15044: a5 = a4 >> 0x28\n 15047: u8 [a0 + 0x1d] = a5\n 15050: a5 = a4 >> 0x20\n 15053: u8 [a0 + 0x1c] = a5\n 15056: a5 = a4 >> 0x18\n 15059: u8 [a0 + 0x1b] = a5\n 15062: a5 = a4 >> 0x10\n 15065: u8 [a0 + 0x1a] = a5\n 15068: a5 = a4 >> 0x8\n 15071: u8 [a0 + 0x19] = a5\n 15074: u8 [a0 + 0x18] = a4\n 15077: u8 [a0 + 0x10] = a3\n 15080: a4 = a3 >> 0x38\n 15083: u8 [a0 + 0x17] = a4\n 15086: a4 = a3 >> 0x30\n 15089: u8 [a0 + 0x16] = a4\n 15092: a4 = a3 >> 0x28\n 15095: u8 [a0 + 0x15] = a4\n 15098: a4 = a3 >> 0x20\n 15101: u8 [a0 + 0x14] = a4\n 15104: a4 = a3 >> 0x18\n 15107: u8 [a0 + 0x13] = a4\n 15110: a4 = a3 >> 0x10\n 15113: u8 [a0 + 0x12] = a4\n 15116: a3 = a3 >> 0x8\n 15119: u8 [a0 + 0x11] = a3\n 15122: u8 [a0 + 0x8] = a2\n 15125: a3 = a2 >> 0x38\n 15128: u8 [a0 + 0xf] = a3\n 15131: a3 = a2 >> 0x30\n 15134: u8 [a0 + 0xe] = a3\n 15137: a3 = a2 >> 0x28\n 15140: u8 [a0 + 0xd] = a3\n 15143: a3 = a2 >> 0x20\n 15146: u8 [a0 + 0xc] = a3\n 15149: a3 = a2 >> 0x18\n 15152: u8 [a0 + 0xb] = a3\n 15155: a3 = a2 >> 0x10\n 15158: u8 [a0 + 0xa] = a3\n 15161: a2 = a2 >> 0x8\n 15164: u8 [a0 + 0x9] = a2\n 15167: u8 [a0] = a1\n 15169: a2 = a1 >> 0x38\n 15172: u8 [a0 + 0x7] = a2\n 15175: a2 = a1 >> 0x30\n 15178: u8 [a0 + 0x6] = a2\n 15181: a2 = a1 >> 0x28\n 15184: u8 [a0 + 0x5] = a2\n 15187: a2 = a1 >> 0x20\n 15190: u8 [a0 + 0x4] = a2\n 15193: a2 = a1 >> 0x18\n 15196: u8 [a0 + 0x3] = a2\n 15199: a2 = a1 >> 0x10\n 15202: u8 [a0 + 0x2] = a2\n 15205: a1 = a1 >> 0x8\n 15208: u8 [a0 + 0x1] = a1\n 15211: a0 = u64 [sp + 0x1b8]\n 15215: u64 [sp + 0x1f8] = a0\n 15219: a0 = u64 [sp + 0x1c0]\n 15223: u64 [sp + 0x1f0] = a0\n 15227: a0 = u64 [sp + 0x1c8]\n 15231: u64 [sp + 0x1e8] = a0\n 15235: a0 = u64 [sp + 0x1b0]\n 15239: u64 [sp + 0x1e0] = a0\n 15243: a0 = u64 [sp + 0x8]\n 15246: u64 [sp + 0x218] = a0\n 15250: a0 = u64 [sp + 0x10]\n 15253: u64 [sp + 0x210] = a0\n 15257: a0 = u64 [sp + 0x18]\n 15260: u64 [sp + 0x208] = a0\n 15264: a0 = sp + 0x220\n 15268: a1 = sp + 0x200\n 15272: a2 = sp + 0x1e0\n 15276: a3 = u64 [sp + 0x20]\n 15279: u64 [sp + 0x200] = a3\n 15283: ra = 194, jump @197\n      : @228 [@dyn 97] (gas: 15)\n 15289: a0 = u64 [sp + 0x230]\n 15293: a1 = u64 [sp + 0x238]\n 15297: a2 = u64 [sp + 0x220]\n 15301: a3 = u64 [sp + 0x228]\n 15305: a4 = u64 [sp + 0x28]\n 15308: u64 [a4 + 0x10] = a0\n 15311: u64 [a4 + 0x18] = a1\n 15314: u64 [a4] = a2\n 15316: u64 [a4 + 0x8] = a3\n 15319: sp = s0 + 0xfffffffffffffda0\n 15323: ra = u64 [sp + 0x258]\n 15327: s0 = u64 [sp + 0x250]\n 15331: s1 = u64 [sp + 0x248]\n 15335: sp = sp + 0x260\n 15339: ret\n      : @229 (gas: 1)\n 15341: trap\n      : @230 (gas: 8)\n 15342: a0 = u64 [sp + 0x130]\n 15346: a1 = u64 [sp + 0x138]\n 15350: a2 = u64 [sp + 0x128]\n 15354: a3 = u64 [sp + 0x120]\n 15358: a1 = a1 | a2\n 15361: a0 = a0 | a3\n 15364: a0 = a0 | a1\n 15367: jump @238 if a0 != 0\n      : @231 (gas: 2)\n 15371: a0 = i32 [0x20084]\n 15376: jump @238 if a0 <=u 3\n      : @232 (gas: 17)\n 15381: a0 = sp + 0xe0\n 15385: ra = 0xc4\n 15389: sp = sp + 0xfffffffffffffcc0\n 15393: u64 [sp + 0x338] = ra\n 15397: u64 [sp + 0x330] = s0\n 15401: u64 [sp + 0x328] = s1\n 15405: s0 = sp + 0x340\n 15409: sp = sp & 0xffffffffffffffe0\n 15412: u64 [sp + 0x8] = a0\n 15415: u64 [sp + 696] = 0\n 15419: u64 [sp + 688] = 0\n 15423: u64 [sp + 672] = 0x1\n 15428: a0 = sp + 0x2c0\n 15432: a1 = sp + 0x2a0\n 15436: u64 [sp + 680] = 0\n 15440: ra = 0x250\n 15444: jump @606\n      : @233 [@dyn 98] (gas: 19)\n 15447: a0 = u64 [sp + 0xe0]\n 15451: u64 [sp + 0x58] = a0\n 15454: a0 = u64 [sp + 0xe8]\n 15458: u64 [sp + 0x50] = a0\n 15461: a0 = u64 [sp + 0xf0]\n 15465: u64 [sp + 0x48] = a0\n 15468: a0 = u64 [sp + 0xf8]\n 15472: u64 [sp + 0x40] = a0\n 15475: a0 = u64 [sp + 0x100]\n 15479: u64 [sp + 0x38] = a0\n 15482: a0 = u64 [sp + 0x108]\n 15486: u64 [sp + 0x30] = a0\n 15489: a0 = u64 [sp + 0x110]\n 15493: u64 [sp + 0x28] = a0\n 15496: a0 = u64 [sp + 0x118]\n 15500: u64 [sp + 0x20] = a0\n 15503: a0 = 0x40\n 15506: a1 = 0x20\n 15509: ra = 198, jump @0\n      : @234 [@dyn 99] (gas: 120)\n 15515: a1 = u8 [a0 + 0x1]\n 15518: a2 = u8 [a0]\n 15520: a3 = u8 [a0 + 0x2]\n 15523: a4 = u8 [a0 + 0x3]\n 15526: a1 = a1 << 0x8\n 15529: a1 = a1 | a2\n 15532: a3 = a3 << 0x10\n 15535: a4 = a4 << 0x18\n 15538: a3 = a3 | a4\n 15541: a1 = a1 | a3\n 15544: a2 = u8 [a0 + 0x5]\n 15547: a3 = u8 [a0 + 0x4]\n 15550: a4 = u8 [a0 + 0x6]\n 15553: a5 = u8 [a0 + 0x7]\n 15556: a2 = a2 << 0x8\n 15559: a2 = a2 | a3\n 15562: a4 = a4 << 0x10\n 15565: a5 = a5 << 0x18\n 15568: a4 = a4 | a5\n 15571: a2 = a2 | a4\n 15574: a2 = a2 << 0x20\n 15577: t0 = a2 | a1\n 15580: a2 = u8 [a0 + 0x9]\n 15583: a3 = u8 [a0 + 0x8]\n 15586: a4 = u8 [a0 + 0xa]\n 15589: a5 = u8 [a0 + 0xb]\n 15592: a2 = a2 << 0x8\n 15595: a2 = a2 | a3\n 15598: a4 = a4 << 0x10\n 15601: a5 = a5 << 0x18\n 15604: a4 = a4 | a5\n 15607: a2 = a2 | a4\n 15610: a3 = u8 [a0 + 0xd]\n 15613: a4 = u8 [a0 + 0xc]\n 15616: a5 = u8 [a0 + 0xe]\n 15619: s1 = u8 [a0 + 0xf]\n 15622: a3 = a3 << 0x8\n 15625: a3 = a3 | a4\n 15628: a5 = a5 << 0x10\n 15631: s1 = s1 << 0x18\n 15634: a5 = a5 | s1\n 15637: a3 = a3 | a5\n 15640: a3 = a3 << 0x20\n 15643: a2 = a2 | a3\n 15646: a3 = u8 [a0 + 0x11]\n 15649: a4 = u8 [a0 + 0x10]\n 15652: a5 = u8 [a0 + 0x12]\n 15655: s1 = u8 [a0 + 0x13]\n 15658: a3 = a3 << 0x8\n 15661: a3 = a3 | a4\n 15664: a5 = a5 << 0x10\n 15667: s1 = s1 << 0x18\n 15670: a5 = a5 | s1\n 15673: a3 = a3 | a5\n 15676: a4 = u8 [a0 + 0x15]\n 15679: a5 = u8 [a0 + 0x14]\n 15682: s1 = u8 [a0 + 0x16]\n 15685: a1 = u8 [a0 + 0x17]\n 15688: a4 = a4 << 0x8\n 15691: a4 = a4 | a5\n 15694: s1 = s1 << 0x10\n 15697: a1 = a1 << 0x18\n 15700: a1 = a1 | s1\n 15703: a1 = a1 | a4\n 15706: a1 = a1 << 0x20\n 15709: a3 = a3 | a1\n 15712: a1 = u8 [a0 + 0x19]\n 15715: a4 = u8 [a0 + 0x18]\n 15718: a5 = u8 [a0 + 0x1a]\n 15721: s1 = u8 [a0 + 0x1b]\n 15724: a1 = a1 << 0x8\n 15727: a1 = a1 | a4\n 15730: a5 = a5 << 0x10\n 15733: s1 = s1 << 0x18\n 15736: a5 = a5 | s1\n 15739: a1 = a1 | a5\n 15742: a4 = u8 [a0 + 0x1d]\n 15745: a5 = u8 [a0 + 0x1c]\n 15748: s1 = u8 [a0 + 0x1e]\n 15751: a0 = u8 [a0 + 0x1f]\n 15754: a4 = a4 << 0x8\n 15757: a4 = a4 | a5\n 15760: s1 = s1 << 0x10\n 15763: a0 = a0 << 0x18\n 15766: a0 = a0 | s1\n 15769: a0 = a0 | a4\n 15772: a0 = a0 << 0x20\n 15775: a0 = a0 | a1\n 15778: a4 = reverse a0\n 15780: u64 [sp + 0x8] = a4\n 15783: a3 = reverse a3\n 15785: u64 [sp + 0x10] = a3\n 15788: a1 = reverse a2\n 15790: u64 [sp + 0x18] = a1\n 15793: s1 = reverse t0\n 15795: a0 = u64 [sp + 0x20]\n 15798: u64 [sp + 0x78] = a0\n 15801: a0 = u64 [sp + 0x28]\n 15804: u64 [sp + 0x70] = a0\n 15807: a0 = u64 [sp + 0x30]\n 15810: u64 [sp + 0x68] = a0\n 15813: a0 = u64 [sp + 0x38]\n 15816: u64 [sp + 0x60] = a0\n 15819: a0 = u64 [sp + 0x40]\n 15822: u64 [sp + 0x98] = a0\n 15826: a0 = u64 [sp + 0x48]\n 15829: u64 [sp + 0x90] = a0\n 15833: a0 = u64 [sp + 0x50]\n 15836: u64 [sp + 0x88] = a0\n 15840: a0 = u64 [sp + 0x58]\n 15843: u64 [sp + 0x80] = a0\n 15847: u64 [sp + 0xb8] = s1\n 15851: u64 [sp + 0xb0] = a1\n 15855: u64 [sp + 0xa8] = a3\n 15859: a0 = sp + 0xc0\n 15863: a1 = sp + 0xa0\n 15867: a2 = sp + 0x80\n 15871: a3 = sp + 0x60\n 15874: u64 [sp + 0xa0] = a4\n 15878: ra = 200, jump @210\n      : @235 [@dyn 100] (gas: 12)\n 15884: a4 = u64 [sp + 0x10]\n 15887: a2 = u64 [sp + 0x8]\n 15890: u64 [sp + 0x58] = s1\n 15893: a0 = a4 | s1\n 15896: s1 = u64 [sp + 0x18]\n 15899: a1 = a2 | s1\n 15902: a1 = a1 | a0\n 15905: a1 = a1 >> 0x20\n 15908: a0 = a0 | s1\n 15911: a0 = a0 << 0x20\n 15914: a0 = a0 | a1\n 15917: jump @237 if a0 != 0\n      : @236 (gas: 29)\n 15920: a0 = u64 [sp + 0xc8]\n 15924: a1 = u64 [sp + 0xd8]\n 15928: u64 [sp + 0x50] = a1\n 15931: t1 = u64 [sp + 0xc0]\n 15935: a1 = u64 [sp + 0xd0]\n 15939: t2 = a0 ^ a4\n 15942: a5 = a0 <u a4\n 15945: ra = t1 <u a2\n 15948: a5 = ra if t2 == 0\n 15951: a3 = a1 - s1\n 15954: t2 = a3 - a5\n 15957: t0 = a3 <u a5\n 15960: a3 = a1 <u s1\n 15963: a1 = u64 [sp + 0x58]\n 15966: a5 = u64 [sp + 0x50]\n 15969: a5 = a5 - a1\n 15972: a5 = a5 - a3\n 15975: a5 = a5 - t0\n 15978: a0 = a0 - a4\n 15981: a0 = a0 - ra\n 15984: s1 = t1 - a2\n 15987: a0 = a0 | a5\n 15990: a1 = s1 | t2\n 15993: a1 = a1 | a0\n 15996: a0 = a0 | t2\n 15999: a1 = a1 >> 0x20\n 16002: a0 = a0 << 0x20\n 16005: a0 = a0 | a1\n 16008: jump @240 if a0 == 0\n      : @237 (gas: 1)\n 16011: trap\n      : @238 (gas: 3)\n 16012: a0 = 0\n 16014: a1 = 0\n 16016: ra = 202, jump @0\n      : @239 [@dyn 101] (gas: 5)\n 16022: i32 a1 = a0 + 0\n 16024: a0 = 0x1\n 16027: a2 = 0\n 16029: ecalli 14 // 'seal_return'\n 16031: fallthrough\n      : @240 (gas: 4)\n 16032: i32 a0 = a2 + 0\n 16034: i32 s1 = s1 + 0\n 16036: a1 = s1\n 16038: ra = 204, jump @0\n      : @241 [@dyn 102] (gas: 6)\n 16044: i32 a1 = a0 + 0\n 16046: a0 = 0\n 16048: a2 = s1\n 16050: ra = 0xce\n 16054: ecalli 14 // 'seal_return'\n 16056: fallthrough\n      : @242 [@dyn 103] (gas: 7)\n 16057: sp = sp + 0xffffffffffffffa0\n 16060: u64 [sp + 0x58] = ra\n 16063: u64 [sp + 0x50] = s0\n 16066: s0 = sp + 0x60\n 16069: sp = sp & 0xffffffffffffffe0\n 16072: a0 = i32 [0x20084]\n 16077: jump @247 if a0 <=u 35\n      : @243 (gas: 13)\n 16082: i32 a0 = sp + 0x20\n 16085: a1 = 0x4\n 16088: ecalli 3 // 'call_data_load'\n 16090: a1 = u64 [sp + 0x20]\n 16093: a0 = u64 [sp + 0x28]\n 16096: a2 = u64 [sp + 0x30]\n 16099: a3 = u64 [sp + 0x38]\n 16102: u64 [sp + 0x18] = a3\n 16105: u64 [sp + 0x10] = a2\n 16108: u64 [sp + 0x8] = a0\n 16111: a0 = sp\n 16113: u64 [sp] = a1\n 16115: ra = 208, jump @690\n      : @244 [@dyn 104] (gas: 3)\n 16122: a0 = 0x40\n 16125: a1 = 0x20\n 16128: ra = 210, jump @0\n      : @245 [@dyn 105] (gas: 100)\n 16134: a1 = u8 [a0 + 0x11]\n 16137: a2 = u8 [a0 + 0x10]\n 16140: a3 = u8 [a0 + 0x12]\n 16143: a4 = u8 [a0 + 0x13]\n 16146: a1 = a1 << 0x8\n 16149: a1 = a1 | a2\n 16152: a3 = a3 << 0x10\n 16155: a4 = a4 << 0x18\n 16158: a3 = a3 | a4\n 16161: a1 = a1 | a3\n 16164: a2 = u8 [a0 + 0x15]\n 16167: a3 = u8 [a0 + 0x14]\n 16170: a4 = u8 [a0 + 0x16]\n 16173: a5 = u8 [a0 + 0x17]\n 16176: a2 = a2 << 0x8\n 16179: a2 = a2 | a3\n 16182: a4 = a4 << 0x10\n 16185: a5 = a5 << 0x18\n 16188: a4 = a4 | a5\n 16191: a2 = a2 | a4\n 16194: a2 = a2 << 0x20\n 16197: t0 = a2 | a1\n 16200: a2 = u8 [a0 + 0x1]\n 16203: a3 = u8 [a0]\n 16205: a4 = u8 [a0 + 0x2]\n 16208: a5 = u8 [a0 + 0x3]\n 16211: a2 = a2 << 0x8\n 16214: a2 = a2 | a3\n 16217: a4 = a4 << 0x10\n 16220: a5 = a5 << 0x18\n 16223: a4 = a4 | a5\n 16226: a2 = a2 | a4\n 16229: a3 = u8 [a0 + 0x5]\n 16232: a4 = u8 [a0 + 0x4]\n 16235: a5 = u8 [a0 + 0x6]\n 16238: a1 = u8 [a0 + 0x7]\n 16241: a3 = a3 << 0x8\n 16244: a3 = a3 | a4\n 16247: a5 = a5 << 0x10\n 16250: a1 = a1 << 0x18\n 16253: a1 = a1 | a5\n 16256: a1 = a1 | a3\n 16259: a1 = a1 << 0x20\n 16262: t1 = a1 | a2\n 16265: a1 = u8 [a0 + 0x19]\n 16268: a3 = u8 [a0 + 0x18]\n 16271: a4 = u8 [a0 + 0x1a]\n 16274: a5 = u8 [a0 + 0x1b]\n 16277: a1 = a1 << 0x8\n 16280: a1 = a1 | a3\n 16283: a4 = a4 << 0x10\n 16286: a5 = a5 << 0x18\n 16289: a4 = a4 | a5\n 16292: a1 = a1 | a4\n 16295: a3 = u8 [a0 + 0x1d]\n 16298: a4 = u8 [a0 + 0x1c]\n 16301: a5 = u8 [a0 + 0x1e]\n 16304: a2 = u8 [a0 + 0x1f]\n 16307: a3 = a3 << 0x8\n 16310: a3 = a3 | a4\n 16313: a5 = a5 << 0x10\n 16316: a2 = a2 << 0x18\n 16319: a2 = a2 | a5\n 16322: a2 = a2 | a3\n 16325: a2 = a2 << 0x20\n 16328: a3 = a2 | a1\n 16331: a1 = u8 [a0 + 0x9]\n 16334: a2 = u8 [a0 + 0x8]\n 16337: a4 = u8 [a0 + 0xa]\n 16340: a5 = u8 [a0 + 0xb]\n 16343: a1 = a1 << 0x8\n 16346: a1 = a1 | a2\n 16349: a4 = a4 << 0x10\n 16352: a5 = a5 << 0x18\n 16355: a4 = a4 | a5\n 16358: a1 = a1 | a4\n 16361: a2 = u8 [a0 + 0xd]\n 16364: a4 = u8 [a0 + 0xc]\n 16367: a5 = u8 [a0 + 0xe]\n 16370: a0 = u8 [a0 + 0xf]\n 16373: a2 = a2 << 0x8\n 16376: a2 = a2 | a4\n 16379: a5 = a5 << 0x10\n 16382: a0 = a0 << 0x18\n 16385: a0 = a0 | a5\n 16388: a0 = a0 | a2\n 16391: a0 = a0 << 0x20\n 16394: a0 = a0 | a1\n 16397: a1 = reverse a0\n 16399: a0 = reverse a3\n 16401: a2 = reverse t1\n 16403: a3 = reverse t0\n 16405: a2 = a2 | a3\n 16408: a3 = a0 | a1\n 16411: a3 = a3 | a2\n 16414: a3 = a3 >> 0x20\n 16417: a1 = a1 | a2\n 16420: a1 = a1 << 0x20\n 16423: a1 = a1 | a3\n 16426: jump @249 if a1 == 0\n      : @246 (gas: 1)\n 16429: trap\n      : @247 (gas: 3)\n 16430: a0 = 0\n 16432: a1 = 0\n 16434: ra = 212, jump @0\n      : @248 [@dyn 106] (gas: 7)\n 16440: i32 a1 = a0 + 0\n 16442: a0 = 0x1\n 16445: a2 = 0\n 16447: ecalli 14 // 'seal_return'\n 16449: i32 a0 = a0 + 0\n 16451: ra = 0xd6\n 16455: jump @0\n      : @249 (gas: 2)\n 16458: i32 a0 = a0 + 0\n 16460: ra = 214, jump @0\n      : @250 [@dyn 107] (gas: 6)\n 16466: i32 a1 = a0 + 0\n 16468: a0 = 0\n 16470: a2 = 0\n 16472: ra = 0xd8\n 16476: ecalli 14 // 'seal_return'\n 16478: fallthrough\n      : @251 [@dyn 108] (gas: 13)\n 16479: a2 = u64 [a1 + 0x10]\n 16482: a3 = u64 [a1 + 0x18]\n 16485: a4 = u64 [a1 + 0x8]\n 16488: a1 = u64 [a1]\n 16490: a3 = a3 | a4\n 16493: a1 = a1 | a2\n 16496: a1 = a1 | a3\n 16499: a1 = a1 >u 0\n 16501: u64 [a0 + 24] = 0\n 16504: u64 [a0 + 16] = 0\n 16507: u64 [a0 + 8] = 0\n 16510: u64 [a0] = a1\n 16512: ret\n      : @252 (gas: 48)\n 16514: sp = sp + 0xffffffffffffff60\n 16518: u64 [sp + 0x98] = ra\n 16522: u64 [sp + 0x90] = s0\n 16526: u64 [sp + 0x88] = s1\n 16530: s0 = sp + 0xa0\n 16534: sp = sp & 0xffffffffffffffe0\n 16537: t0 = u64 [a1 + 0x10]\n 16540: a5 = u64 [a1 + 0x8]\n 16543: a3 = u64 [a2 + 0x8]\n 16546: t2 = u64 [a1]\n 16548: a4 = u64 [a2]\n 16550: u64 [sp + 0x40] = a4\n 16553: ra = u64 [a2 + 0x10]\n 16556: t1 = a3 ^ a5\n 16559: s1 = a3 <u a5\n 16562: a4 = a4 <u t2\n 16565: u64 [sp + 0x38] = a4\n 16568: s1 = a4 if t1 == 0\n 16571: t1 = u64 [a1 + 0x18]\n 16574: a1 = u64 [a2 + 0x18]\n 16577: u64 [sp + 0x30] = a1\n 16580: a2 = ra - t0\n 16583: a1 = a2 - s1\n 16586: u64 [sp + 0x48] = a1\n 16589: a1 = a2 <u s1\n 16592: u64 [sp + 0x58] = t0\n 16595: a4 = ra <u t0\n 16598: u64 [sp + 0x50] = t1\n 16601: a2 = u64 [sp + 0x30]\n 16604: a2 = a2 - t1\n 16607: a2 = a2 - a4\n 16610: a2 = a2 - a1\n 16613: a1 = a3 - a5\n 16616: a3 = u64 [sp + 0x38]\n 16619: a1 = a1 - a3\n 16622: a3 = u64 [sp + 0x40]\n 16625: a3 = a3 - t2\n 16628: a4 = a1 >u 0\n 16630: a3 = a3 <u 0x60\n 16633: a3 = a3 ^ 0x1\n 16636: a3 = a4 if a1 != 0\n 16639: s1 = a2 >s 0\n 16641: a1 = u64 [sp + 0x48]\n 16644: a4 = a1 >u 0\n 16646: a4 = s1 if a2 != 0\n 16649: a1 = a1 | a2\n 16652: a3 = a4 if a1 != 0\n 16655: jump @262 if a3 == 0\n      : @253 (gas: 12)\n 16659: s1 = a0\n 16661: a2 = u64 [sp + 0x58]\n 16664: a0 = t2 | a2\n 16667: u64 [sp + 0x48] = a5\n 16670: a1 = u64 [sp + 0x50]\n 16673: a1 = a1 | a5\n 16676: a0 = a0 | a1\n 16679: a0 = a0 >> 0x20\n 16682: a1 = a1 | a2\n 16685: a1 = a1 << 0x20\n 16688: a0 = a0 | a1\n 16691: jump @261 if a0 != 0\n      : @254 (gas: 6)\n 16695: i32 a1 = t2 + 0\n 16697: i32 a0 = sp + 0x60\n 16700: u64 [sp + 0x38] = a1\n 16703: u64 [sp + 0x40] = t2\n 16706: ecalli 3 // 'call_data_load'\n 16708: fallthrough\n      : @255 (gas: 13)\n 16709: a0 = u64 [sp + 0x58]\n 16712: a1 = u64 [sp + 0x50]\n 16715: a2 = a0 | a1\n 16718: a0 = 0x100000000\n 16728: u64 [sp + 0x50] = a0\n 16731: a0 = 0xffffffe0\n 16741: a1 = u64 [sp + 0x40]\n 16744: a0 = a1 <u a0\n 16747: a1 = u64 [sp + 0x48]\n 16750: a0 = 0 if a1 != 0\n 16752: u64 [sp + 0x58] = a2\n 16755: a0 = 0 if a2 != 0\n 16757: jump @261 if a0 == 0\n      : @256 (gas: 13)\n 16761: a0 = u64 [sp + 0x78]\n 16764: u64 [sp + 0x30] = a0\n 16767: a0 = u64 [sp + 0x70]\n 16770: u64 [sp + 0x28] = a0\n 16773: a0 = u64 [sp + 0x68]\n 16776: u64 [sp + 0x18] = a0\n 16779: a0 = u64 [sp + 0x60]\n 16782: u64 [sp + 0x20] = a0\n 16785: a0 = u64 [sp + 0x38]\n 16788: i32 a1 = a0 + 0x20\n 16791: i32 a0 = sp + 0x60\n 16794: ecalli 3 // 'call_data_load'\n 16796: fallthrough\n      : @257 (gas: 9)\n 16797: a0 = u64 [sp + 0x50]\n 16800: a0 = a0 + 0xffffffffffffffc0\n 16803: a1 = u64 [sp + 0x40]\n 16806: a0 = a1 <u a0\n 16809: a1 = u64 [sp + 0x48]\n 16812: a0 = 0 if a1 != 0\n 16814: a1 = u64 [sp + 0x58]\n 16817: a0 = 0 if a1 != 0\n 16819: jump @261 if a0 == 0\n      : @258 (gas: 13)\n 16823: a0 = u64 [sp + 0x78]\n 16826: u64 [sp + 0x58] = a0\n 16829: a0 = u64 [sp + 0x70]\n 16832: u64 [sp + 0x50] = a0\n 16835: a0 = u64 [sp + 0x68]\n 16838: u64 [sp + 0x40] = a0\n 16841: a0 = u64 [sp + 0x60]\n 16844: u64 [sp + 0x48] = a0\n 16847: a0 = u64 [sp + 0x38]\n 16850: i32 a1 = a0 + 0x40\n 16853: i32 a0 = sp + 0x60\n 16856: ecalli 3 // 'call_data_load'\n 16858: fallthrough\n      : @259 (gas: 9)\n 16859: a0 = u64 [sp + 0x78]\n 16862: a1 = u64 [sp + 0x70]\n 16865: a2 = u64 [sp + 0x60]\n 16868: a3 = u64 [sp + 0x68]\n 16871: a4 = a1 | a0\n 16874: a5 = a2 <u 0x2\n 16877: a5 = 0 if a3 != 0\n 16879: a5 = 0 if a4 != 0\n 16881: jump @262 if a5 == 0\n      : @260 (gas: 26)\n 16884: u64 [s1 + 0x48] = a3\n 16887: u64 [s1 + 0x40] = a2\n 16890: a2 = u64 [sp + 0x40]\n 16893: u64 [s1 + 0x28] = a2\n 16896: a2 = u64 [sp + 0x48]\n 16899: u64 [s1 + 0x20] = a2\n 16902: a2 = u64 [sp + 0x18]\n 16905: u64 [s1 + 0x8] = a2\n 16908: a2 = u64 [sp + 0x20]\n 16911: u64 [s1] = a2\n 16913: u64 [s1 + 0x50] = a1\n 16916: a1 = u64 [sp + 0x50]\n 16919: u64 [s1 + 0x30] = a1\n 16922: a1 = u64 [sp + 0x28]\n 16925: u64 [s1 + 0x10] = a1\n 16928: u64 [s1 + 0x58] = a0\n 16931: a0 = u64 [sp + 0x58]\n 16934: u64 [s1 + 0x38] = a0\n 16937: a0 = u64 [sp + 0x30]\n 16940: u64 [s1 + 0x18] = a0\n 16943: sp = s0 + 0xffffffffffffff60\n 16947: ra = u64 [sp + 0x98]\n 16951: s0 = u64 [sp + 0x90]\n 16955: s1 = u64 [sp + 0x88]\n 16959: sp = sp + 0xa0\n 16963: ret\n      : @261 (gas: 1)\n 16965: trap\n      : @262 (gas: 3)\n 16966: a0 = 0\n 16968: a1 = 0\n 16970: ra = 218, jump @0\n      : @263 [@dyn 109] (gas: 6)\n 16976: i32 a1 = a0 + 0\n 16978: a0 = 0x1\n 16981: a2 = 0\n 16983: ra = 0xdc\n 16987: ecalli 14 // 'seal_return'\n 16989: fallthrough\n      : @264 [@dyn 110] (gas: 19)\n 16990: sp = sp + 0xfffffffffffffed0\n 16994: u64 [sp + 0x128] = ra\n 16998: u64 [sp + 0x120] = s0\n 17002: u64 [sp + 0x118] = s1\n 17006: s0 = sp + 0x130\n 17010: sp = sp & 0xfffffffffffffff0\n 17013: a0 = u32 [0x20084]\n 17018: u64 [sp + 136] = 0\n 17022: u64 [sp + 128] = 0\n 17026: u64 [sp + 120] = 0\n 17029: u64 [sp + 0x70] = a0\n 17032: u64 [sp + 168] = 0\n 17036: u64 [sp + 160] = 0\n 17040: u64 [sp + 144] = 0x4\n 17045: a0 = sp + 0xb0\n 17049: a1 = sp + 0x90\n 17053: a2 = sp + 0x70\n 17056: u64 [sp + 152] = 0\n 17060: ra = 222, jump @252\n      : @265 [@dyn 111] (gas: 30)\n 17066: a0 = u64 [sp + 0xb0]\n 17070: u64 [sp + 0x8] = a0\n 17073: t1 = u64 [sp + 0xb8]\n 17077: t2 = u64 [sp + 0xc0]\n 17081: ra = u64 [sp + 0xc8]\n 17085: t0 = u64 [sp + 0xd0]\n 17089: a5 = u64 [sp + 0xd8]\n 17093: a4 = u64 [sp + 0xe0]\n 17097: a3 = u64 [sp + 0xe8]\n 17101: a1 = u64 [sp + 0xf0]\n 17105: s1 = u64 [sp + 0xf8]\n 17109: a2 = u64 [sp + 0x100]\n 17113: a0 = u64 [sp + 0x108]\n 17117: u64 [sp + 0x28] = a0\n 17120: u64 [sp + 0x20] = a2\n 17123: u64 [sp + 0x18] = s1\n 17126: u64 [sp + 0x10] = a1\n 17129: u64 [sp + 0x48] = a3\n 17132: u64 [sp + 0x40] = a4\n 17135: u64 [sp + 0x38] = a5\n 17138: u64 [sp + 0x30] = t0\n 17141: u64 [sp + 0x68] = ra\n 17144: u64 [sp + 0x60] = t2\n 17147: u64 [sp + 0x58] = t1\n 17150: a0 = sp + 0x50\n 17153: a1 = sp + 0x30\n 17156: a2 = sp + 0x10\n 17159: a3 = u64 [sp + 0x8]\n 17162: u64 [sp + 0x50] = a3\n 17165: ra = 224, jump @774\n      : @266 [@dyn 112] (gas: 3)\n 17172: a0 = 0x40\n 17175: a1 = 0x20\n 17178: ra = 226, jump @0\n      : @267 [@dyn 113] (gas: 100)\n 17184: a1 = u8 [a0 + 0x11]\n 17187: a2 = u8 [a0 + 0x10]\n 17190: a3 = u8 [a0 + 0x12]\n 17193: a4 = u8 [a0 + 0x13]\n 17196: a1 = a1 << 0x8\n 17199: a1 = a1 | a2\n 17202: a3 = a3 << 0x10\n 17205: a4 = a4 << 0x18\n 17208: a3 = a3 | a4\n 17211: a1 = a1 | a3\n 17214: a2 = u8 [a0 + 0x15]\n 17217: a3 = u8 [a0 + 0x14]\n 17220: a4 = u8 [a0 + 0x16]\n 17223: a5 = u8 [a0 + 0x17]\n 17226: a2 = a2 << 0x8\n 17229: a2 = a2 | a3\n 17232: a4 = a4 << 0x10\n 17235: a5 = a5 << 0x18\n 17238: a4 = a4 | a5\n 17241: a2 = a2 | a4\n 17244: a2 = a2 << 0x20\n 17247: t0 = a2 | a1\n 17250: a2 = u8 [a0 + 0x1]\n 17253: a3 = u8 [a0]\n 17255: a4 = u8 [a0 + 0x2]\n 17258: a5 = u8 [a0 + 0x3]\n 17261: a2 = a2 << 0x8\n 17264: a2 = a2 | a3\n 17267: a4 = a4 << 0x10\n 17270: a5 = a5 << 0x18\n 17273: a4 = a4 | a5\n 17276: a2 = a2 | a4\n 17279: a3 = u8 [a0 + 0x5]\n 17282: a4 = u8 [a0 + 0x4]\n 17285: a5 = u8 [a0 + 0x6]\n 17288: s1 = u8 [a0 + 0x7]\n 17291: a3 = a3 << 0x8\n 17294: a3 = a3 | a4\n 17297: a5 = a5 << 0x10\n 17300: s1 = s1 << 0x18\n 17303: a5 = a5 | s1\n 17306: a3 = a3 | a5\n 17309: a3 = a3 << 0x20\n 17312: a2 = a2 | a3\n 17315: a3 = u8 [a0 + 0x19]\n 17318: a4 = u8 [a0 + 0x18]\n 17321: a5 = u8 [a0 + 0x1a]\n 17324: s1 = u8 [a0 + 0x1b]\n 17327: a3 = a3 << 0x8\n 17330: a3 = a3 | a4\n 17333: a5 = a5 << 0x10\n 17336: s1 = s1 << 0x18\n 17339: a5 = a5 | s1\n 17342: a3 = a3 | a5\n 17345: a4 = u8 [a0 + 0x1d]\n 17348: a5 = u8 [a0 + 0x1c]\n 17351: s1 = u8 [a0 + 0x1e]\n 17354: a1 = u8 [a0 + 0x1f]\n 17357: a4 = a4 << 0x8\n 17360: a4 = a4 | a5\n 17363: s1 = s1 << 0x10\n 17366: a1 = a1 << 0x18\n 17369: a1 = a1 | s1\n 17372: a1 = a1 | a4\n 17375: a1 = a1 << 0x20\n 17378: a3 = a3 | a1\n 17381: a1 = u8 [a0 + 0x9]\n 17384: a4 = u8 [a0 + 0x8]\n 17387: a5 = u8 [a0 + 0xa]\n 17390: s1 = u8 [a0 + 0xb]\n 17393: a1 = a1 << 0x8\n 17396: a1 = a1 | a4\n 17399: a5 = a5 << 0x10\n 17402: s1 = s1 << 0x18\n 17405: a5 = a5 | s1\n 17408: a1 = a1 | a5\n 17411: a4 = u8 [a0 + 0xd]\n 17414: a5 = u8 [a0 + 0xc]\n 17417: s1 = u8 [a0 + 0xe]\n 17420: a0 = u8 [a0 + 0xf]\n 17423: a4 = a4 << 0x8\n 17426: a4 = a4 | a5\n 17429: s1 = s1 << 0x10\n 17432: a0 = a0 << 0x18\n 17435: a0 = a0 | s1\n 17438: a0 = a0 | a4\n 17441: a0 = a0 << 0x20\n 17444: a0 = a0 | a1\n 17447: a1 = reverse a0\n 17449: a0 = reverse a3\n 17451: a2 = reverse a2\n 17453: a3 = reverse t0\n 17455: a2 = a2 | a3\n 17458: a3 = a0 | a1\n 17461: a3 = a3 | a2\n 17464: a3 = a3 >> 0x20\n 17467: a1 = a1 | a2\n 17470: a1 = a1 << 0x20\n 17473: a1 = a1 | a3\n 17476: jump @269 if a1 == 0\n      : @268 (gas: 1)\n 17479: trap\n      : @269 (gas: 2)\n 17480: i32 a0 = a0 + 0\n 17482: ra = 228, jump @0\n      : @270 [@dyn 114] (gas: 6)\n 17488: i32 a1 = a0 + 0\n 17490: a0 = 0\n 17492: a2 = 0\n 17494: ra = 0xe6\n 17498: ecalli 14 // 'seal_return'\n 17500: fallthrough\n      : @271 [@dyn 115] (gas: 9)\n 17501: a2 = u64 [a1 + 0x18]\n 17504: a3 = u64 [a1 + 0x10]\n 17507: a4 = u64 [a1 + 0x8]\n 17510: a1 = u64 [a1]\n 17512: u64 [a0 + 0x18] = a2\n 17515: u64 [a0 + 0x10] = a3\n 17518: u64 [a0 + 0x8] = a4\n 17521: u64 [a0] = a1\n 17523: ret\n      : @272 (gas: 17)\n 17525: sp = sp + 0xffffffffffffffa0\n 17528: u64 [sp + 0x58] = ra\n 17531: u64 [sp + 0x50] = s0\n 17534: u64 [sp + 0x48] = s1\n 17537: a3 = u64 [a1 + 0x18]\n 17540: a4 = u64 [a1 + 0x10]\n 17543: a5 = u64 [a1 + 0x8]\n 17546: s1 = u64 [a1]\n 17548: a1 = a5 | a3\n 17551: a2 = s1 | a4\n 17554: a2 = a2 | a1\n 17557: a2 = a2 >> 0x20\n 17560: a1 = a1 | a4\n 17563: a1 = a1 << 0x20\n 17566: a1 = a1 | a2\n 17569: u64 [sp + 0x28] = a0\n 17572: jump @279 if a1 != 0\n      : @273 (gas: 19)\n 17576: a0 = s1 + 0x20\n 17579: u64 [sp + 0x30] = a0\n 17582: a0 = a0 <u s1\n 17585: a1 = a5 + a0\n 17588: u64 [sp + 0x40] = a1\n 17591: u64 [sp + 0x8] = a5\n 17594: s0 = a1 <u a5\n 17597: s0 = a0 if a0 == 0\n 17600: s0 = s0 + a4\n 17603: u64 [sp + 0x10] = a4\n 17606: a0 = s0 <u a4\n 17609: u64 [sp + 0x18] = a3\n 17612: a0 = a0 + a3\n 17615: u64 [sp + 0x38] = a0\n 17618: u64 [sp] = s1\n 17620: i32 a0 = s1 + 0\n 17622: a1 = 0x20\n 17625: s1 = 0x20\n 17628: ra = 232, jump @0\n      : @274 [@dyn 116] (gas: 45)\n 17634: u8 [a0 + 0x1f] = s1\n 17637: a1 = u64 [sp + 0x30]\n 17640: s1 = a1\n 17642: a1 = a1 | s0\n 17645: a2 = u64 [sp + 0x40]\n 17648: a4 = u64 [sp + 0x38]\n 17651: a2 = a2 | a4\n 17654: a1 = a1 | a2\n 17657: a1 = a1 >> 0x20\n 17660: u64 [sp + 0x20] = s0\n 17663: a2 = a2 | s0\n 17666: a2 = a2 << 0x20\n 17669: a1 = a1 | a2\n 17672: u8 [a0 + 30] = 0\n 17675: u8 [a0 + 29] = 0\n 17678: u8 [a0 + 28] = 0\n 17681: u8 [a0 + 27] = 0\n 17684: u8 [a0 + 26] = 0\n 17687: u8 [a0 + 25] = 0\n 17690: u8 [a0 + 24] = 0\n 17693: u8 [a0 + 23] = 0\n 17696: u8 [a0 + 22] = 0\n 17699: u8 [a0 + 21] = 0\n 17702: u8 [a0 + 20] = 0\n 17705: u8 [a0 + 19] = 0\n 17708: u8 [a0 + 18] = 0\n 17711: u8 [a0 + 17] = 0\n 17714: u8 [a0 + 16] = 0\n 17717: u8 [a0 + 15] = 0\n 17720: u8 [a0 + 14] = 0\n 17723: u8 [a0 + 13] = 0\n 17726: u8 [a0 + 12] = 0\n 17729: u8 [a0 + 11] = 0\n 17732: u8 [a0 + 10] = 0\n 17735: u8 [a0 + 9] = 0\n 17738: u8 [a0 + 8] = 0\n 17741: u8 [a0 + 7] = 0\n 17744: u8 [a0 + 6] = 0\n 17747: u8 [a0 + 5] = 0\n 17750: u8 [a0 + 4] = 0\n 17753: u8 [a0 + 3] = 0\n 17756: u8 [a0 + 2] = 0\n 17759: u8 [a0 + 1] = 0\n 17762: u8 [a0 + 0] = 0\n 17764: jump @279 if a1 != 0\n      : @275 (gas: 4)\n 17768: i32 s0 = s1 + 0\n 17770: a1 = 0x20\n 17773: a0 = s0\n 17775: ra = 234, jump @0\n      : @276 [@dyn 117] (gas: 41)\n 17781: u8 [a0 + 31] = 0x18\n 17785: u8 [a0 + 30] = 0\n 17788: u8 [a0 + 29] = 0\n 17791: u8 [a0 + 28] = 0\n 17794: u8 [a0 + 27] = 0\n 17797: u8 [a0 + 26] = 0\n 17800: u8 [a0 + 25] = 0\n 17803: u8 [a0 + 24] = 0\n 17806: u8 [a0 + 23] = 0\n 17809: u8 [a0 + 22] = 0\n 17812: u8 [a0 + 21] = 0\n 17815: u8 [a0 + 20] = 0\n 17818: u8 [a0 + 19] = 0\n 17821: u8 [a0 + 18] = 0\n 17824: u8 [a0 + 17] = 0\n 17827: u8 [a0 + 16] = 0\n 17830: u8 [a0 + 15] = 0\n 17833: u8 [a0 + 14] = 0\n 17836: u8 [a0 + 13] = 0\n 17839: u8 [a0 + 12] = 0\n 17842: u8 [a0 + 11] = 0\n 17845: u8 [a0 + 10] = 0\n 17848: u8 [a0 + 9] = 0\n 17851: u8 [a0 + 8] = 0\n 17854: u8 [a0 + 7] = 0\n 17857: u8 [a0 + 6] = 0\n 17860: u8 [a0 + 5] = 0\n 17863: u8 [a0 + 4] = 0\n 17866: u8 [a0 + 3] = 0\n 17869: u8 [a0 + 2] = 0\n 17872: u8 [a0 + 1] = 0\n 17875: a1 = u64 [sp + 0x20]\n 17878: a2 = u64 [sp + 0x38]\n 17881: a1 = a1 | a2\n 17884: a2 = 0xffffffe0\n 17894: a2 = s1 <u a2\n 17897: a3 = u64 [sp + 0x40]\n 17900: a2 = 0 if a3 != 0\n 17902: a2 = 0 if a1 != 0\n 17904: u8 [a0 + 0] = 0\n 17906: jump @279 if a2 == 0\n      : @277 (gas: 3)\n 17910: i32 a0 = s0 + 0x20\n 17913: a1 = 0x20\n 17916: ra = 236, jump @0\n      : @278 [@dyn 118] (gas: 55)\n 17922: u8 [a0 + 31] = 0\n 17925: u8 [a0 + 30] = 0\n 17928: u8 [a0 + 29] = 0\n 17931: u8 [a0 + 28] = 0\n 17934: u8 [a0 + 27] = 0\n 17937: u8 [a0 + 26] = 0\n 17940: u8 [a0 + 25] = 0\n 17943: u8 [a0 + 24] = 0\n 17946: u8 [a0 + 23] = 0x65\n 17950: u8 [a0 + 22] = 0x63\n 17954: u8 [a0 + 21] = 0x69\n 17958: u8 [a0 + 20] = 0x76\n 17962: u8 [a0 + 19] = 0x72\n 17966: u8 [a0 + 18] = 0x65\n 17970: u8 [a0 + 17] = 0x73\n 17974: u8 [a0 + 16] = 0x20\n 17978: u8 [a0 + 15] = 0x6e\n 17982: u8 [a0 + 14] = 0x77\n 17986: u8 [a0 + 13] = 0x6f\n 17990: u8 [a0 + 12] = 0x6e\n 17994: a5 = 0x6b\n 17997: u8 [a0 + 0xb] = a5\n 18000: u8 [a0 + 10] = 0x6e\n 18004: u8 [a0 + 9] = 0x75\n 18008: u8 [a0 + 8] = 0x20\n 18012: u8 [a0 + 7] = 0x3a\n 18016: u8 [a0 + 6] = 0x79\n 18020: u8 [a0 + 5] = 0x72\n 18024: u8 [a0 + 4] = 0x6f\n 18028: u8 [a0 + 3] = 0x74\n 18032: u8 [a0 + 2] = 0x63\n 18036: u8 [a0 + 1] = 0x61\n 18040: u8 [a0 + 0] = 0x46\n 18043: a1 = u64 [sp]\n 18045: a0 = a1 + 0x60\n 18048: a1 = a0 <u a1\n 18051: a3 = u64 [sp + 0x8]\n 18054: a2 = a3 + a1\n 18057: a3 = a2 <u a3\n 18060: a3 = a1 if a1 == 0\n 18063: a1 = u64 [sp + 0x10]\n 18066: a3 = a3 + a1\n 18069: a1 = a3 <u a1\n 18072: a4 = u64 [sp + 0x18]\n 18075: a1 = a1 + a4\n 18078: a4 = u64 [sp + 0x28]\n 18081: u64 [a4] = a0\n 18083: u64 [a4 + 0x8] = a2\n 18086: u64 [a4 + 0x10] = a3\n 18089: u64 [a4 + 0x18] = a1\n 18092: ra = u64 [sp + 0x58]\n 18095: s0 = u64 [sp + 0x50]\n 18098: s1 = u64 [sp + 0x48]\n 18101: sp = sp + 0x60\n 18104: ret\n      : @279 (gas: 1)\n 18106: trap\n      : @280 [@dyn 119] (gas: 6)\n 18107: i32 a1 = a0 + 0\n 18109: a0 = 0x1\n 18112: a2 = 0\n 18114: ra = 0xf0\n 18118: ecalli 14 // 'seal_return'\n 18120: fallthrough\n      : @281 [@dyn 120] (gas: 18)\n 18121: a2 = u64 [a1]\n 18123: t0 = u64 [a1 + 0x18]\n 18126: a4 = u64 [a1 + 0x8]\n 18129: a1 = u64 [a1 + 0x10]\n 18132: a5 = a2 + 0x1f\n 18135: a2 = a5 <u a2\n 18138: a3 = a4 + a2\n 18141: a4 = a3 <u a4\n 18144: a4 = a2 if a2 == 0\n 18147: a4 = a4 + a1\n 18150: a1 = a4 <u a1\n 18153: a1 = a1 + t0\n 18156: a5 = a5 & 0xffffffffffffffe0\n 18159: u64 [a0] = a5\n 18161: u64 [a0 + 0x8] = a3\n 18164: u64 [a0 + 0x10] = a4\n 18167: u64 [a0 + 0x18] = a1\n 18170: ret\n      : @282 (gas: 9)\n 18172: sp = sp + 0xffffffffffffffc0\n 18175: u64 [sp + 0x38] = ra\n 18178: u64 [sp + 0x30] = s0\n 18181: u64 [sp + 0x28] = s1\n 18184: s0 = sp + 0x40\n 18187: sp = sp & 0xffffffffffffffe0\n 18190: a0 = 0x40\n 18193: a1 = 0x20\n 18196: ra = 242, jump @0\n      : @283 [@dyn 121] (gas: 97)\n 18202: a1 = u8 [a0 + 0x11]\n 18205: a2 = u8 [a0 + 0x10]\n 18208: a3 = u8 [a0 + 0x12]\n 18211: a4 = u8 [a0 + 0x13]\n 18214: a1 = a1 << 0x8\n 18217: a1 = a1 | a2\n 18220: a3 = a3 << 0x10\n 18223: a4 = a4 << 0x18\n 18226: a3 = a3 | a4\n 18229: a1 = a1 | a3\n 18232: a2 = u8 [a0 + 0x15]\n 18235: a3 = u8 [a0 + 0x14]\n 18238: a4 = u8 [a0 + 0x16]\n 18241: a5 = u8 [a0 + 0x17]\n 18244: a2 = a2 << 0x8\n 18247: a2 = a2 | a3\n 18250: a4 = a4 << 0x10\n 18253: a5 = a5 << 0x18\n 18256: a4 = a4 | a5\n 18259: a2 = a2 | a4\n 18262: a2 = a2 << 0x20\n 18265: t0 = a2 | a1\n 18268: a2 = u8 [a0 + 0x1]\n 18271: a3 = u8 [a0]\n 18273: a4 = u8 [a0 + 0x2]\n 18276: a5 = u8 [a0 + 0x3]\n 18279: a2 = a2 << 0x8\n 18282: a2 = a2 | a3\n 18285: a4 = a4 << 0x10\n 18288: a5 = a5 << 0x18\n 18291: a4 = a4 | a5\n 18294: a2 = a2 | a4\n 18297: a3 = u8 [a0 + 0x5]\n 18300: a4 = u8 [a0 + 0x4]\n 18303: a5 = u8 [a0 + 0x6]\n 18306: s1 = u8 [a0 + 0x7]\n 18309: a3 = a3 << 0x8\n 18312: a3 = a3 | a4\n 18315: a5 = a5 << 0x10\n 18318: s1 = s1 << 0x18\n 18321: a5 = a5 | s1\n 18324: a3 = a3 | a5\n 18327: a3 = a3 << 0x20\n 18330: a2 = a2 | a3\n 18333: a3 = u8 [a0 + 0x19]\n 18336: a4 = u8 [a0 + 0x18]\n 18339: a5 = u8 [a0 + 0x1a]\n 18342: s1 = u8 [a0 + 0x1b]\n 18345: a3 = a3 << 0x8\n 18348: a3 = a3 | a4\n 18351: a5 = a5 << 0x10\n 18354: s1 = s1 << 0x18\n 18357: a5 = a5 | s1\n 18360: a3 = a3 | a5\n 18363: a4 = u8 [a0 + 0x1d]\n 18366: a5 = u8 [a0 + 0x1c]\n 18369: s1 = u8 [a0 + 0x1e]\n 18372: a1 = u8 [a0 + 0x1f]\n 18375: a4 = a4 << 0x8\n 18378: a4 = a4 | a5\n 18381: s1 = s1 << 0x10\n 18384: a1 = a1 << 0x18\n 18387: a1 = a1 | s1\n 18390: a1 = a1 | a4\n 18393: a1 = a1 << 0x20\n 18396: a3 = a3 | a1\n 18399: a1 = u8 [a0 + 0x9]\n 18402: a4 = u8 [a0 + 0x8]\n 18405: a5 = u8 [a0 + 0xa]\n 18408: s1 = u8 [a0 + 0xb]\n 18411: a1 = a1 << 0x8\n 18414: a1 = a1 | a4\n 18417: a5 = a5 << 0x10\n 18420: s1 = s1 << 0x18\n 18423: a5 = a5 | s1\n 18426: a1 = a1 | a5\n 18429: a4 = u8 [a0 + 0xd]\n 18432: a5 = u8 [a0 + 0xc]\n 18435: s1 = u8 [a0 + 0xe]\n 18438: a0 = u8 [a0 + 0xf]\n 18441: a4 = a4 << 0x8\n 18444: a4 = a4 | a5\n 18447: s1 = s1 << 0x10\n 18450: a0 = a0 << 0x18\n 18453: a0 = a0 | s1\n 18456: a0 = a0 | a4\n 18459: a0 = a0 << 0x20\n 18462: a0 = a0 | a1\n 18465: s1 = reverse a0\n 18467: a0 = reverse a3\n 18469: u64 [sp + 0x8] = a0\n 18472: a0 = reverse a2\n 18474: u64 [sp + 0x18] = a0\n 18477: a0 = reverse t0\n 18479: u64 [sp + 0x10] = a0\n 18482: ecalli 13 // 'return_data_size'\n 18484: fallthrough\n      : @284 (gas: 11)\n 18485: a3 = u64 [sp + 0x8]\n 18488: a1 = u64 [sp + 0x18]\n 18491: a2 = u64 [sp + 0x10]\n 18494: a1 = a1 | a2\n 18497: a2 = a3 | s1\n 18500: a2 = a2 | a1\n 18503: a2 = a2 >> 0x20\n 18506: a1 = a1 | s1\n 18509: a1 = a1 << 0x20\n 18512: a1 = a1 | a2\n 18515: jump @291 if a1 != 0\n      : @285 (gas: 3)\n 18518: s1 = a0\n 18520: a0 = a0 >> 0x20\n 18523: jump @291 if a0 != 0\n      : @286 (gas: 5)\n 18526: i32 a0 = a3 + 0\n 18528: i32 a1 = s1 + 0\n 18530: u64 [sp + 0x18] = a1\n 18533: u64 [sp + 0x10] = a0\n 18536: ra = 244, jump @0\n      : @287 [@dyn 122] (gas: 6)\n 18542: u32 [sp + 0x20] = s1\n 18545: i32 a0 = a0 + 0\n 18547: i32 a1 = sp + 0x20\n 18550: a2 = 0\n 18552: ecalli 12 // 'return_data_copy'\n 18554: fallthrough\n      : @288 (gas: 3)\n 18555: a0 = i32 [sp + 0x20]\n 18558: a1 = u64 [sp + 0x18]\n 18561: jump @291 if a0 <u a1\n      : @289 (gas: 2)\n 18564: ecalli 13 // 'return_data_size'\n 18566: fallthrough\n      : @290 (gas: 2)\n 18567: a1 = a0 >> 0x20\n 18570: jump @292 if a1 == 0\n      : @291 (gas: 1)\n 18573: trap\n      : @292 (gas: 4)\n 18574: i32 s1 = a0 + 0\n 18576: a0 = u64 [sp + 0x10]\n 18579: a1 = s1\n 18581: ra = 246, jump @0\n      : @293 [@dyn 123] (gas: 6)\n 18587: i32 a1 = a0 + 0\n 18589: a0 = 0x1\n 18592: a2 = s1\n 18594: ra = 0xf8\n 18598: ecalli 14 // 'seal_return'\n 18600: fallthrough\n      : @294 [@dyn 124] (gas: 12)\n 18601: a1 = u64 [a0 + 0x10]\n 18604: a2 = u64 [a0 + 0x18]\n 18607: a3 = u64 [a0 + 0x8]\n 18610: a0 = u64 [a0]\n 18612: a2 = a2 | a3\n 18615: a3 = a0 | a1\n 18618: a3 = a3 | a2\n 18621: a3 = a3 >> 0x20\n 18624: a1 = a1 | a2\n 18627: a1 = a1 << 0x20\n 18630: a1 = a1 | a3\n 18633: jump @297 if a1 != 0\n      : @295 (gas: 7)\n 18637: sp = sp + 0xfffffffffffffff0\n 18640: u64 [sp + 0x8] = ra\n 18643: u64 [sp] = s0\n 18645: i32 a0 = a0 + 0\n 18647: a1 = 0x20\n 18650: s0 = 0x20\n 18653: ra = 250, jump @0\n      : @296 [@dyn 125] (gas: 42)\n 18659: u8 [a0 + 31] = 0\n 18662: u8 [a0 + 30] = 0x72\n 18666: u8 [a0 + 29] = 0x65\n 18670: u8 [a0 + 28] = 0x64\n 18674: u8 [a0 + 27] = 0x69\n 18678: u8 [a0 + 26] = 0x76\n 18682: a2 = 0x6f\n 18685: u8 [a0 + 0x19] = a2\n 18688: u8 [a0 + 24] = 0x72\n 18692: u8 [a0 + 23] = 0x70\n 18696: u8 [a0 + 0x16] = s0\n 18699: t0 = 0x74\n 18702: u8 [a0 + 0x15] = t0\n 18705: u8 [a0 + 0x14] = a2\n 18708: u8 [a0 + 19] = 0x6e\n 18712: u8 [a0 + 0x12] = s0\n 18715: u8 [a0 + 17] = 0x73\n 18719: u8 [a0 + 16] = 0x69\n 18723: u8 [a0 + 0xf] = s0\n 18726: u8 [a0 + 14] = 0x72\n 18730: u8 [a0 + 13] = 0x65\n 18734: u8 [a0 + 12] = 0x6c\n 18738: u8 [a0 + 11] = 0x6c\n 18742: a3 = 0x61\n 18745: u8 [a0 + 0xa] = a3\n 18748: a4 = 0x63\n 18751: u8 [a0 + 0x9] = a4\n 18754: u8 [a0 + 0x8] = s0\n 18757: u8 [a0 + 7] = 0x3a\n 18761: a5 = 0x79\n 18764: u8 [a0 + 0x6] = a5\n 18767: u8 [a0 + 5] = 0x72\n 18771: u8 [a0 + 0x4] = a2\n 18774: u8 [a0 + 0x3] = t0\n 18777: u8 [a0 + 0x2] = a4\n 18780: u8 [a0 + 0x1] = a3\n 18783: a1 = 0x46\n 18786: u8 [a0] = a1\n 18788: ra = u64 [sp + 0x8]\n 18791: s0 = u64 [sp]\n 18793: sp = sp + 0x10\n 18796: ret\n      : @297 (gas: 1)\n 18798: trap\n      : @298 (gas: 17)\n 18799: sp = sp + 0xffffffffffffffa0\n 18802: u64 [sp + 0x58] = ra\n 18805: u64 [sp + 0x50] = s0\n 18808: u64 [sp + 0x48] = s1\n 18811: a3 = u64 [a1 + 0x18]\n 18814: a4 = u64 [a1 + 0x10]\n 18817: a5 = u64 [a1 + 0x8]\n 18820: s1 = u64 [a1]\n 18822: a1 = a5 | a3\n 18825: a2 = s1 | a4\n 18828: a2 = a2 | a1\n 18831: a2 = a2 >> 0x20\n 18834: a1 = a1 | a4\n 18837: a1 = a1 << 0x20\n 18840: a1 = a1 | a2\n 18843: u64 [sp + 0x28] = a0\n 18846: jump @305 if a1 != 0\n      : @299 (gas: 19)\n 18850: a0 = s1 + 0x20\n 18853: u64 [sp + 0x30] = a0\n 18856: a0 = a0 <u s1\n 18859: a1 = a5 + a0\n 18862: u64 [sp + 0x40] = a1\n 18865: u64 [sp + 0x8] = a5\n 18868: s0 = a1 <u a5\n 18871: s0 = a0 if a0 == 0\n 18874: s0 = s0 + a4\n 18877: u64 [sp + 0x10] = a4\n 18880: a0 = s0 <u a4\n 18883: u64 [sp + 0x18] = a3\n 18886: a0 = a0 + a3\n 18889: u64 [sp + 0x38] = a0\n 18892: u64 [sp] = s1\n 18894: i32 a0 = s1 + 0\n 18896: a1 = 0x20\n 18899: s1 = 0x20\n 18902: ra = 252, jump @0\n      : @300 [@dyn 126] (gas: 45)\n 18908: u8 [a0 + 0x1f] = s1\n 18911: a1 = u64 [sp + 0x30]\n 18914: s1 = a1\n 18916: a1 = a1 | s0\n 18919: a2 = u64 [sp + 0x40]\n 18922: a4 = u64 [sp + 0x38]\n 18925: a2 = a2 | a4\n 18928: a1 = a1 | a2\n 18931: a1 = a1 >> 0x20\n 18934: u64 [sp + 0x20] = s0\n 18937: a2 = a2 | s0\n 18940: a2 = a2 << 0x20\n 18943: a1 = a1 | a2\n 18946: u8 [a0 + 30] = 0\n 18949: u8 [a0 + 29] = 0\n 18952: u8 [a0 + 28] = 0\n 18955: u8 [a0 + 27] = 0\n 18958: u8 [a0 + 26] = 0\n 18961: u8 [a0 + 25] = 0\n 18964: u8 [a0 + 24] = 0\n 18967: u8 [a0 + 23] = 0\n 18970: u8 [a0 + 22] = 0\n 18973: u8 [a0 + 21] = 0\n 18976: u8 [a0 + 20] = 0\n 18979: u8 [a0 + 19] = 0\n 18982: u8 [a0 + 18] = 0\n 18985: u8 [a0 + 17] = 0\n 18988: u8 [a0 + 16] = 0\n 18991: u8 [a0 + 15] = 0\n 18994: u8 [a0 + 14] = 0\n 18997: u8 [a0 + 13] = 0\n 19000: u8 [a0 + 12] = 0\n 19003: u8 [a0 + 11] = 0\n 19006: u8 [a0 + 10] = 0\n 19009: u8 [a0 + 9] = 0\n 19012: u8 [a0 + 8] = 0\n 19015: u8 [a0 + 7] = 0\n 19018: u8 [a0 + 6] = 0\n 19021: u8 [a0 + 5] = 0\n 19024: u8 [a0 + 4] = 0\n 19027: u8 [a0 + 3] = 0\n 19030: u8 [a0 + 2] = 0\n 19033: u8 [a0 + 1] = 0\n 19036: u8 [a0 + 0] = 0\n 19038: jump @305 if a1 != 0\n      : @301 (gas: 4)\n 19042: i32 s0 = s1 + 0\n 19044: a1 = 0x20\n 19047: a0 = s0\n 19049: ra = 254, jump @0\n      : @302 [@dyn 127] (gas: 41)\n 19055: u8 [a0 + 31] = 0x1f\n 19059: u8 [a0 + 30] = 0\n 19062: u8 [a0 + 29] = 0\n 19065: u8 [a0 + 28] = 0\n 19068: u8 [a0 + 27] = 0\n 19071: u8 [a0 + 26] = 0\n 19074: u8 [a0 + 25] = 0\n 19077: u8 [a0 + 24] = 0\n 19080: u8 [a0 + 23] = 0\n 19083: u8 [a0 + 22] = 0\n 19086: u8 [a0 + 21] = 0\n 19089: u8 [a0 + 20] = 0\n 19092: u8 [a0 + 19] = 0\n 19095: u8 [a0 + 18] = 0\n 19098: u8 [a0 + 17] = 0\n 19101: u8 [a0 + 16] = 0\n 19104: u8 [a0 + 15] = 0\n 19107: u8 [a0 + 14] = 0\n 19110: u8 [a0 + 13] = 0\n 19113: u8 [a0 + 12] = 0\n 19116: u8 [a0 + 11] = 0\n 19119: u8 [a0 + 10] = 0\n 19122: u8 [a0 + 9] = 0\n 19125: u8 [a0 + 8] = 0\n 19128: u8 [a0 + 7] = 0\n 19131: u8 [a0 + 6] = 0\n 19134: u8 [a0 + 5] = 0\n 19137: u8 [a0 + 4] = 0\n 19140: u8 [a0 + 3] = 0\n 19143: u8 [a0 + 2] = 0\n 19146: u8 [a0 + 1] = 0\n 19149: a1 = u64 [sp + 0x20]\n 19152: a2 = u64 [sp + 0x38]\n 19155: a1 = a1 | a2\n 19158: a2 = 0xffffffe0\n 19168: a2 = s1 <u a2\n 19171: a3 = u64 [sp + 0x40]\n 19174: a2 = 0 if a3 != 0\n 19176: a2 = 0 if a1 != 0\n 19178: u8 [a0 + 0] = 0\n 19180: jump @305 if a2 == 0\n      : @303 (gas: 3)\n 19184: i32 a0 = s0 + 0x20\n 19187: a1 = 0x20\n 19190: ra = 256, jump @0\n      : @304 [@dyn 128] (gas: 54)\n 19196: u8 [a0 + 28] = 0x64\n 19200: u8 [a0 + 26] = 0x76\n 19204: u8 [a0 + 23] = 0x70\n 19208: u8 [a0 + 19] = 0x6e\n 19212: u8 [a0 + 17] = 0x73\n 19216: u8 [a0 + 27] = 0x69\n 19220: u8 [a0 + 16] = 0x69\n 19224: u8 [a0 + 29] = 0x65\n 19228: u8 [a0 + 13] = 0x65\n 19232: u8 [a0 + 12] = 0x6c\n 19236: u8 [a0 + 11] = 0x6c\n 19240: u8 [a0 + 31] = 0\n 19243: u8 [a0 + 22] = 0x20\n 19247: u8 [a0 + 18] = 0x20\n 19251: u8 [a0 + 15] = 0x20\n 19255: u8 [a0 + 8] = 0x20\n 19259: u8 [a0 + 7] = 0x3a\n 19263: u8 [a0 + 6] = 0x79\n 19267: u8 [a0 + 30] = 0x72\n 19271: u8 [a0 + 24] = 0x72\n 19275: u8 [a0 + 14] = 0x72\n 19279: u8 [a0 + 5] = 0x72\n 19283: u8 [a0 + 25] = 0x6f\n 19287: u8 [a0 + 20] = 0x6f\n 19291: u8 [a0 + 4] = 0x6f\n 19295: u8 [a0 + 21] = 0x74\n 19299: u8 [a0 + 3] = 0x74\n 19303: u8 [a0 + 9] = 0x63\n 19307: u8 [a0 + 2] = 0x63\n 19311: u8 [a0 + 10] = 0x61\n 19315: u8 [a0 + 1] = 0x61\n 19319: u8 [a0 + 0] = 0x46\n 19322: a1 = u64 [sp]\n 19324: a0 = a1 + 0x60\n 19327: a1 = a0 <u a1\n 19330: a3 = u64 [sp + 0x8]\n 19333: a2 = a3 + a1\n 19336: a3 = a2 <u a3\n 19339: a3 = a1 if a1 == 0\n 19342: a1 = u64 [sp + 0x10]\n 19345: a3 = a3 + a1\n 19348: a1 = a3 <u a1\n 19351: a4 = u64 [sp + 0x18]\n 19354: a1 = a1 + a4\n 19357: a4 = u64 [sp + 0x28]\n 19360: u64 [a4] = a0\n 19362: u64 [a4 + 0x8] = a2\n 19365: u64 [a4 + 0x10] = a3\n 19368: u64 [a4 + 0x18] = a1\n 19371: ra = u64 [sp + 0x58]\n 19374: s0 = u64 [sp + 0x50]\n 19377: s1 = u64 [sp + 0x48]\n 19380: sp = sp + 0x60\n 19383: ret\n      : @305 (gas: 1)\n 19385: trap\n      : @306 (gas: 17)\n 19386: sp = sp + 0xffffffffffffffa0\n 19389: u64 [sp + 0x58] = ra\n 19392: u64 [sp + 0x50] = s0\n 19395: u64 [sp + 0x48] = s1\n 19398: a3 = u64 [a1 + 0x18]\n 19401: a4 = u64 [a1 + 0x10]\n 19404: a5 = u64 [a1 + 0x8]\n 19407: s1 = u64 [a1]\n 19409: a1 = a5 | a3\n 19412: a2 = s1 | a4\n 19415: a2 = a2 | a1\n 19418: a2 = a2 >> 0x20\n 19421: a1 = a1 | a4\n 19424: a1 = a1 << 0x20\n 19427: a1 = a1 | a2\n 19430: u64 [sp + 0x20] = a0\n 19433: jump @315 if a1 != 0\n      : @307 (gas: 19)\n 19437: a0 = s1 + 0x20\n 19440: u64 [sp + 0x38] = a0\n 19443: a0 = a0 <u s1\n 19446: a1 = a5 + a0\n 19449: u64 [sp + 0x40] = a1\n 19452: u64 [sp + 0x8] = a5\n 19455: s0 = a1 <u a5\n 19458: s0 = a0 if a0 == 0\n 19461: s0 = s0 + a4\n 19464: u64 [sp + 0x10] = a4\n 19467: a0 = s0 <u a4\n 19470: u64 [sp + 0x18] = a3\n 19473: a0 = a0 + a3\n 19476: u64 [sp + 0x30] = a0\n 19479: u64 [sp] = s1\n 19481: i32 a0 = s1 + 0\n 19483: a1 = 0x20\n 19486: s1 = 0x20\n 19489: ra = 258, jump @0\n      : @308 [@dyn 129] (gas: 43)\n 19495: u8 [a0 + 0x1f] = s1\n 19498: a1 = u64 [sp + 0x38]\n 19501: a1 = a1 | s0\n 19504: a2 = u64 [sp + 0x40]\n 19507: a3 = u64 [sp + 0x30]\n 19510: a2 = a2 | a3\n 19513: a1 = a1 | a2\n 19516: a1 = a1 >> 0x20\n 19519: a2 = a2 | s0\n 19522: a2 = a2 << 0x20\n 19525: a1 = a1 | a2\n 19528: u8 [a0 + 30] = 0\n 19531: u8 [a0 + 29] = 0\n 19534: u8 [a0 + 28] = 0\n 19537: u8 [a0 + 27] = 0\n 19540: u8 [a0 + 26] = 0\n 19543: u8 [a0 + 25] = 0\n 19546: u8 [a0 + 24] = 0\n 19549: u8 [a0 + 23] = 0\n 19552: u8 [a0 + 22] = 0\n 19555: u8 [a0 + 21] = 0\n 19558: u8 [a0 + 20] = 0\n 19561: u8 [a0 + 19] = 0\n 19564: u8 [a0 + 18] = 0\n 19567: u8 [a0 + 17] = 0\n 19570: u8 [a0 + 16] = 0\n 19573: u8 [a0 + 15] = 0\n 19576: u8 [a0 + 14] = 0\n 19579: u8 [a0 + 13] = 0\n 19582: u8 [a0 + 12] = 0\n 19585: u8 [a0 + 11] = 0\n 19588: u8 [a0 + 10] = 0\n 19591: u8 [a0 + 9] = 0\n 19594: u8 [a0 + 8] = 0\n 19597: u8 [a0 + 7] = 0\n 19600: u8 [a0 + 6] = 0\n 19603: u8 [a0 + 5] = 0\n 19606: u8 [a0 + 4] = 0\n 19609: u8 [a0 + 3] = 0\n 19612: u8 [a0 + 2] = 0\n 19615: u8 [a0 + 1] = 0\n 19618: u8 [a0 + 0] = 0\n 19620: jump @315 if a1 != 0\n      : @309 (gas: 6)\n 19624: s1 = s0\n 19626: s0 = u64 [sp + 0x38]\n 19629: i32 a0 = s0 + 0\n 19631: a1 = 0x20\n 19634: u64 [sp + 0x28] = a0\n 19637: ra = 260, jump @0\n      : @310 [@dyn 130] (gas: 42)\n 19643: u8 [a0 + 31] = 0x23\n 19647: u8 [a0 + 30] = 0\n 19650: u8 [a0 + 29] = 0\n 19653: u8 [a0 + 28] = 0\n 19656: u8 [a0 + 27] = 0\n 19659: u8 [a0 + 26] = 0\n 19662: u8 [a0 + 25] = 0\n 19665: u8 [a0 + 24] = 0\n 19668: u8 [a0 + 23] = 0\n 19671: u8 [a0 + 22] = 0\n 19674: u8 [a0 + 21] = 0\n 19677: u8 [a0 + 20] = 0\n 19680: u8 [a0 + 19] = 0\n 19683: u8 [a0 + 18] = 0\n 19686: u8 [a0 + 17] = 0\n 19689: u8 [a0 + 16] = 0\n 19692: u8 [a0 + 15] = 0\n 19695: u8 [a0 + 14] = 0\n 19698: u8 [a0 + 13] = 0\n 19701: u8 [a0 + 12] = 0\n 19704: u8 [a0 + 11] = 0\n 19707: u8 [a0 + 10] = 0\n 19710: u8 [a0 + 9] = 0\n 19713: u8 [a0 + 8] = 0\n 19716: u8 [a0 + 7] = 0\n 19719: u8 [a0 + 6] = 0\n 19722: u8 [a0 + 5] = 0\n 19725: u8 [a0 + 4] = 0\n 19728: u8 [a0 + 3] = 0\n 19731: u8 [a0 + 2] = 0\n 19734: u8 [a0 + 1] = 0\n 19737: a1 = u64 [sp + 0x30]\n 19740: a2 = s1 | a1\n 19743: s1 = 0x100000000\n 19753: a1 = 0xffffffe0\n 19763: a1 = s0 <u a1\n 19766: s0 = a2\n 19768: a2 = u64 [sp + 0x40]\n 19771: a1 = 0 if a2 != 0\n 19773: a1 = 0 if s0 != 0\n 19775: u8 [a0 + 0] = 0\n 19777: jump @315 if a1 == 0\n      : @311 (gas: 4)\n 19781: a0 = u64 [sp + 0x28]\n 19784: i32 a0 = a0 + 0x20\n 19787: a1 = 0x20\n 19790: ra = 262, jump @0\n      : @312 [@dyn 131] (gas: 41)\n 19796: u8 [a0 + 30] = 0x6c\n 19800: u8 [a0 + 28] = 0x62\n 19804: u8 [a0 + 25] = 0x6b\n 19808: u8 [a0 + 14] = 0x66\n 19812: u8 [a0 + 13] = 0x66\n 19816: u8 [a0 + 12] = 0x75\n 19820: u8 [a0 + 22] = 0x73\n 19824: u8 [a0 + 11] = 0x73\n 19828: u8 [a0 + 17] = 0x69\n 19832: u8 [a0 + 15] = 0x69\n 19836: u8 [a0 + 9] = 0x69\n 19840: u8 [a0 + 27] = 0x20\n 19844: u8 [a0 + 21] = 0x20\n 19848: u8 [a0 + 8] = 0x20\n 19852: u8 [a0 + 7] = 0x3a\n 19856: u8 [a0 + 6] = 0x79\n 19860: u8 [a0 + 5] = 0x72\n 19864: u8 [a0 + 4] = 0x6f\n 19868: u8 [a0 + 23] = 0x74\n 19872: u8 [a0 + 20] = 0x74\n 19876: u8 [a0 + 3] = 0x74\n 19880: u8 [a0 + 31] = 0x61\n 19884: u8 [a0 + 29] = 0x61\n 19888: u8 [a0 + 24] = 0x61\n 19892: u8 [a0 + 1] = 0x61\n 19896: u8 [a0 + 0] = 0x46\n 19899: a1 = s1 + 0xffffffffffffffc0\n 19902: a2 = u64 [sp + 0x38]\n 19905: a1 = a2 <u a1\n 19908: u8 [a0 + 26] = 0x65\n 19912: a2 = u64 [sp + 0x40]\n 19915: a1 = 0 if a2 != 0\n 19917: s1 = 0x6e\n 19920: u8 [a0 + 0x13] = s1\n 19923: u8 [a0 + 18] = 0x65\n 19927: a1 = 0 if s0 != 0\n 19929: s0 = 0x63\n 19932: u8 [a0 + 0x10] = s0\n 19935: u8 [a0 + 0xa] = s1\n 19938: u8 [a0 + 0x2] = s0\n 19941: jump @315 if a1 == 0\n      : @313 (gas: 4)\n 19945: a0 = u64 [sp + 0x28]\n 19948: i32 a0 = a0 + 0x40\n 19951: a1 = 0x20\n 19954: ra = 264, jump @0\n      : @314 [@dyn 132] (gas: 54)\n 19960: u8 [a0 + 31] = 0\n 19963: u8 [a0 + 30] = 0\n 19966: u8 [a0 + 29] = 0\n 19969: u8 [a0 + 28] = 0\n 19972: u8 [a0 + 27] = 0\n 19975: u8 [a0 + 26] = 0\n 19978: u8 [a0 + 25] = 0\n 19981: u8 [a0 + 24] = 0\n 19984: u8 [a0 + 23] = 0\n 19987: u8 [a0 + 22] = 0\n 19990: u8 [a0 + 21] = 0\n 19993: u8 [a0 + 20] = 0\n 19996: u8 [a0 + 19] = 0\n 19999: u8 [a0 + 18] = 0\n 20002: u8 [a0 + 17] = 0\n 20005: u8 [a0 + 16] = 0\n 20008: u8 [a0 + 15] = 0\n 20011: u8 [a0 + 14] = 0\n 20014: u8 [a0 + 13] = 0\n 20017: u8 [a0 + 12] = 0\n 20020: u8 [a0 + 11] = 0\n 20023: u8 [a0 + 10] = 0\n 20026: u8 [a0 + 9] = 0\n 20029: u8 [a0 + 8] = 0\n 20032: u8 [a0 + 7] = 0\n 20035: u8 [a0 + 6] = 0\n 20038: u8 [a0 + 5] = 0\n 20041: u8 [a0 + 4] = 0\n 20044: u8 [a0 + 3] = 0\n 20047: u8 [a0 + 2] = 0x65\n 20051: u8 [a0 + 0x1] = s0\n 20054: u8 [a0] = s1\n 20056: a1 = u64 [sp]\n 20058: a0 = a1 + 0x80\n 20062: a1 = a0 <u a1\n 20065: a3 = u64 [sp + 0x8]\n 20068: a2 = a3 + a1\n 20071: a3 = a2 <u a3\n 20074: a3 = a1 if a1 == 0\n 20077: a1 = u64 [sp + 0x10]\n 20080: a3 = a3 + a1\n 20083: a1 = a3 <u a1\n 20086: a4 = u64 [sp + 0x18]\n 20089: a1 = a1 + a4\n 20092: a4 = u64 [sp + 0x20]\n 20095: u64 [a4] = a0\n 20097: u64 [a4 + 0x8] = a2\n 20100: u64 [a4 + 0x10] = a3\n 20103: u64 [a4 + 0x18] = a1\n 20106: ra = u64 [sp + 0x58]\n 20109: s0 = u64 [sp + 0x50]\n 20112: s1 = u64 [sp + 0x48]\n 20115: sp = sp + 0x60\n 20118: ret\n      : @315 (gas: 1)\n 20120: trap\n      : @316 [@dyn 133] (gas: 102)\n 20121: a1 = reverse s1\n 20123: a2 = u64 [sp + 0x148]\n 20127: a2 = reverse a2\n 20129: a3 = u64 [sp + 0x150]\n 20133: a3 = reverse a3\n 20135: a4 = u64 [sp + 0x158]\n 20139: a4 = reverse a4\n 20141: u8 [a0 + 0x18] = a4\n 20144: u8 [a0 + 0x10] = a3\n 20147: u8 [a0 + 0x8] = a2\n 20150: u8 [a0] = a1\n 20152: a5 = a4 >> 0x38\n 20155: u64 [sp + 0x138] = a5\n 20159: u8 [a0 + 0x1f] = a5\n 20162: a5 = a4 >> 0x30\n 20165: u64 [sp + 0x130] = a5\n 20169: u8 [a0 + 0x1e] = a5\n 20172: a5 = a4 >> 0x28\n 20175: u64 [sp + 0x128] = a5\n 20179: u8 [a0 + 0x1d] = a5\n 20182: a5 = a4 >> 0x20\n 20185: u64 [sp + 0x120] = a5\n 20189: u8 [a0 + 0x1c] = a5\n 20192: a5 = a4 >> 0x18\n 20195: u64 [sp + 0x118] = a5\n 20199: u8 [a0 + 0x1b] = a5\n 20202: a5 = a4 >> 0x10\n 20205: u64 [sp + 0x110] = a5\n 20209: u8 [a0 + 0x1a] = a5\n 20212: u64 [sp + 0x140] = a4\n 20216: a4 = a4 >> 0x8\n 20219: u64 [sp + 0x108] = a4\n 20223: u8 [a0 + 0x19] = a4\n 20226: a4 = a3 >> 0x38\n 20229: u64 [sp + 0x100] = a4\n 20233: u8 [a0 + 0x17] = a4\n 20236: a4 = a3 >> 0x30\n 20239: u64 [sp + 0xf8] = a4\n 20243: u8 [a0 + 0x16] = a4\n 20246: a4 = a3 >> 0x28\n 20249: u64 [sp + 0xf0] = a4\n 20253: u8 [a0 + 0x15] = a4\n 20256: a4 = a3 >> 0x20\n 20259: u64 [sp + 0xe8] = a4\n 20263: u8 [a0 + 0x14] = a4\n 20266: a4 = a3 >> 0x18\n 20269: u64 [sp + 0xe0] = a4\n 20273: u8 [a0 + 0x13] = a4\n 20276: a4 = a3 >> 0x10\n 20279: u64 [sp + 0xd8] = a4\n 20283: u8 [a0 + 0x12] = a4\n 20286: u64 [sp + 0x148] = a3\n 20290: a3 = a3 >> 0x8\n 20293: u64 [sp + 0xd0] = a3\n 20297: u8 [a0 + 0x11] = a3\n 20300: a3 = a2 >> 0x38\n 20303: u64 [sp + 0xc8] = a3\n 20307: u8 [a0 + 0xf] = a3\n 20310: a3 = a2 >> 0x30\n 20313: u64 [sp + 0xc0] = a3\n 20317: u8 [a0 + 0xe] = a3\n 20320: a3 = a2 >> 0x28\n 20323: u64 [sp + 0xb8] = a3\n 20327: u8 [a0 + 0xd] = a3\n 20330: a3 = a2 >> 0x20\n 20333: u64 [sp + 0xb0] = a3\n 20337: u8 [a0 + 0xc] = a3\n 20340: a3 = a2 >> 0x18\n 20343: u64 [sp + 0xa8] = a3\n 20347: u8 [a0 + 0xb] = a3\n 20350: a3 = a2 >> 0x10\n 20353: u64 [sp + 0xa0] = a3\n 20357: u8 [a0 + 0xa] = a3\n 20360: u64 [sp + 0x150] = a2\n 20364: a2 = a2 >> 0x8\n 20367: u64 [sp + 0x98] = a2\n 20371: u8 [a0 + 0x9] = a2\n 20374: a2 = a1 >> 0x38\n 20377: u64 [sp + 0x90] = a2\n 20381: u8 [a0 + 0x7] = a2\n 20384: a2 = a1 >> 0x30\n 20387: u64 [sp + 0x88] = a2\n 20391: u8 [a0 + 0x6] = a2\n 20394: a2 = a1 >> 0x28\n 20397: u64 [sp + 0x80] = a2\n 20401: u8 [a0 + 0x5] = a2\n 20404: a2 = a1 >> 0x20\n 20407: u64 [sp + 0x78] = a2\n 20410: u8 [a0 + 0x4] = a2\n 20413: a2 = a1 >> 0x18\n 20416: u64 [sp + 0x70] = a2\n 20419: u8 [a0 + 0x3] = a2\n 20422: a2 = a1 >> 0x10\n 20425: u64 [sp + 0x68] = a2\n 20428: u8 [a0 + 0x2] = a2\n 20431: u64 [sp + 0x158] = a1\n 20435: a1 = a1 >> 0x8\n 20438: u64 [sp + 0x60] = a1\n 20441: u8 [a0 + 0x1] = a1\n 20444: a0 = 0x20\n 20447: a1 = 0x20\n 20450: ra = 268, jump @0\n      : @317 [@dyn 134] (gas: 35)\n 20456: u8 [a0 + 31] = 0\n 20459: u8 [a0 + 30] = 0\n 20462: u8 [a0 + 29] = 0\n 20465: u8 [a0 + 28] = 0\n 20468: u8 [a0 + 27] = 0\n 20471: u8 [a0 + 26] = 0\n 20474: u8 [a0 + 25] = 0\n 20477: u8 [a0 + 24] = 0\n 20480: u8 [a0 + 23] = 0\n 20483: u8 [a0 + 22] = 0\n 20486: u8 [a0 + 21] = 0\n 20489: u8 [a0 + 20] = 0\n 20492: u8 [a0 + 19] = 0\n 20495: u8 [a0 + 18] = 0\n 20498: u8 [a0 + 17] = 0\n 20501: u8 [a0 + 16] = 0\n 20504: u8 [a0 + 15] = 0\n 20507: u8 [a0 + 14] = 0\n 20510: u8 [a0 + 13] = 0\n 20513: u8 [a0 + 12] = 0\n 20516: u8 [a0 + 11] = 0\n 20519: u8 [a0 + 10] = 0\n 20522: u8 [a0 + 9] = 0\n 20525: u8 [a0 + 8] = 0\n 20528: u8 [a0 + 7] = 0\n 20531: u8 [a0 + 6] = 0\n 20534: u8 [a0 + 5] = 0\n 20537: u8 [a0 + 4] = 0\n 20540: u8 [a0 + 3] = 0\n 20543: u8 [a0 + 2] = 0\n 20546: u8 [a0 + 1] = 0\n 20549: u8 [a0 + 0] = 0\n 20551: a1 = 0x40\n 20554: a0 = 0\n 20556: ra = 270, jump @0\n      : @318 [@dyn 135] (gas: 28)\n 20562: i32 a0 = a0 + 0\n 20564: i32 a2 = sp + 0x400\n 20568: a1 = 0x40\n 20571: ecalli 9 // 'hash_keccak_256'\n 20573: a0 = u64 [sp + 0x418]\n 20577: a1 = u64 [sp + 0x410]\n 20581: a2 = u64 [sp + 0x408]\n 20585: a3 = u64 [sp + 0x400]\n 20589: a0 = reverse a0\n 20591: a1 = reverse a1\n 20593: a2 = reverse a2\n 20595: a3 = reverse a3\n 20597: u64 [sp + 0x3d8] = a3\n 20601: u64 [sp + 0x3d0] = a2\n 20605: u64 [sp + 0x3c8] = a1\n 20609: u64 [sp + 0x3c0] = a0\n 20613: u64 [sp + 1048] = 0\n 20617: u64 [sp + 1040] = 0\n 20621: u64 [sp + 1032] = 0\n 20625: u64 [sp + 1024] = 0\n 20629: u32 [sp + 992] = 0x20\n 20634: i32 a1 = sp + 0x3c0\n 20638: i32 a3 = sp + 0x400\n 20642: i32 a4 = sp + 0x3e0\n 20646: a2 = 0xffffffffffffffff\n 20649: a0 = 0\n 20651: ecalli 8 // 'get_storage'\n 20653: fallthrough\n      : @319 (gas: 11)\n 20654: a0 = u64 [sp + 0x410]\n 20658: a2 = u64 [sp + 0x408]\n 20662: a1 = u64 [sp + 0x400]\n 20666: u64 [sp + 0x50] = a0\n 20669: a0 = a0 << 0x20\n 20672: a0 = a0 >> 0x20\n 20675: u64 [sp + 0x58] = a1\n 20678: u64 [sp + 0x48] = a2\n 20681: a1 = a1 | a2\n 20684: a0 = a0 | a1\n 20687: jump @321 if a0 != 0\n      : @320 (gas: 1)\n 20690: jump @363\n      : @321 (gas: 11)\n 20693: i32 a0 = sp + 0x300\n 20697: ecalli 5 // 'caller'\n 20699: a0 = u32 [sp + 0x310]\n 20703: u64 [sp + 0x40] = a0\n 20706: a0 = u64 [sp + 0x308]\n 20710: u64 [sp + 0x38] = a0\n 20713: a0 = u64 [sp + 0x300]\n 20717: u64 [sp + 0x30] = a0\n 20720: a0 = 0x40\n 20723: a1 = 0x20\n 20726: ra = 272, jump @0\n      : @322 [@dyn 136] (gas: 103)\n 20732: a1 = u8 [a0 + 0x11]\n 20735: a2 = u8 [a0 + 0x10]\n 20738: a3 = u8 [a0 + 0x12]\n 20741: a4 = u8 [a0 + 0x13]\n 20744: a1 = a1 << 0x8\n 20747: a1 = a1 | a2\n 20750: a3 = a3 << 0x10\n 20753: a4 = a4 << 0x18\n 20756: a3 = a3 | a4\n 20759: a1 = a1 | a3\n 20762: a2 = u8 [a0 + 0x15]\n 20765: a3 = u8 [a0 + 0x14]\n 20768: a4 = u8 [a0 + 0x16]\n 20771: a5 = u8 [a0 + 0x17]\n 20774: a2 = a2 << 0x8\n 20777: a2 = a2 | a3\n 20780: a4 = a4 << 0x10\n 20783: a5 = a5 << 0x18\n 20786: a4 = a4 | a5\n 20789: a2 = a2 | a4\n 20792: a2 = a2 << 0x20\n 20795: t0 = a2 | a1\n 20798: a2 = u8 [a0 + 0x1]\n 20801: a3 = u8 [a0]\n 20803: a4 = u8 [a0 + 0x2]\n 20806: a5 = u8 [a0 + 0x3]\n 20809: a2 = a2 << 0x8\n 20812: a2 = a2 | a3\n 20815: a4 = a4 << 0x10\n 20818: a5 = a5 << 0x18\n 20821: a4 = a4 | a5\n 20824: a2 = a2 | a4\n 20827: a3 = u8 [a0 + 0x5]\n 20830: a4 = u8 [a0 + 0x4]\n 20833: a5 = u8 [a0 + 0x6]\n 20836: s1 = u8 [a0 + 0x7]\n 20839: a3 = a3 << 0x8\n 20842: a3 = a3 | a4\n 20845: a5 = a5 << 0x10\n 20848: s1 = s1 << 0x18\n 20851: a5 = a5 | s1\n 20854: a3 = a3 | a5\n 20857: a3 = a3 << 0x20\n 20860: a2 = a2 | a3\n 20863: a3 = u8 [a0 + 0x19]\n 20866: a4 = u8 [a0 + 0x18]\n 20869: a5 = u8 [a0 + 0x1a]\n 20872: s1 = u8 [a0 + 0x1b]\n 20875: a3 = a3 << 0x8\n 20878: a3 = a3 | a4\n 20881: a5 = a5 << 0x10\n 20884: s1 = s1 << 0x18\n 20887: a5 = a5 | s1\n 20890: a3 = a3 | a5\n 20893: a4 = u8 [a0 + 0x1d]\n 20896: a5 = u8 [a0 + 0x1c]\n 20899: s1 = u8 [a0 + 0x1e]\n 20902: a1 = u8 [a0 + 0x1f]\n 20905: a4 = a4 << 0x8\n 20908: a4 = a4 | a5\n 20911: s1 = s1 << 0x10\n 20914: a1 = a1 << 0x18\n 20917: a1 = a1 | s1\n 20920: a1 = a1 | a4\n 20923: a1 = a1 << 0x20\n 20926: a3 = a3 | a1\n 20929: a1 = u8 [a0 + 0x9]\n 20932: a4 = u8 [a0 + 0x8]\n 20935: a5 = u8 [a0 + 0xa]\n 20938: s1 = u8 [a0 + 0xb]\n 20941: a1 = a1 << 0x8\n 20944: a1 = a1 | a4\n 20947: a5 = a5 << 0x10\n 20950: s1 = s1 << 0x18\n 20953: a5 = a5 | s1\n 20956: a1 = a1 | a5\n 20959: a4 = u8 [a0 + 0xd]\n 20962: a5 = u8 [a0 + 0xc]\n 20965: s1 = u8 [a0 + 0xe]\n 20968: a0 = u8 [a0 + 0xf]\n 20971: a4 = a4 << 0x8\n 20974: a4 = a4 | a5\n 20977: s1 = s1 << 0x10\n 20980: a0 = a0 << 0x18\n 20983: a0 = a0 | s1\n 20986: a0 = a0 | a4\n 20989: a0 = a0 << 0x20\n 20992: a0 = a0 | a1\n 20995: a4 = reverse a0\n 20997: a3 = reverse a3\n 20999: a0 = reverse a2\n 21001: a1 = reverse t0\n 21003: u64 [sp + 0x20] = a0\n 21006: u64 [sp + 0x18] = a1\n 21009: a0 = a0 | a1\n 21012: a1 = a3 | a4\n 21015: a1 = a1 | a0\n 21018: a1 = a1 >> 0x20\n 21021: u64 [sp + 0x28] = a4\n 21024: a0 = a0 | a4\n 21027: a0 = a0 << 0x20\n 21030: a0 = a0 | a1\n 21033: jump @324 if a0 == 0\n      : @323 (gas: 1)\n 21036: jump @380\n      : @324 (gas: 5)\n 21039: u64 [sp + 0x10] = a3\n 21042: i32 s1 = a3 + 0\n 21044: a1 = 0x20\n 21047: a0 = s1\n 21049: ra = 274, jump @0\n      : @325 [@dyn 137] (gas: 56)\n 21055: u8 [a0 + 31] = 0\n 21058: u8 [a0 + 30] = 0\n 21061: u8 [a0 + 29] = 0\n 21064: u8 [a0 + 28] = 0\n 21067: u8 [a0 + 27] = 0\n 21070: u8 [a0 + 26] = 0\n 21073: u8 [a0 + 25] = 0\n 21076: u8 [a0 + 24] = 0\n 21079: u8 [a0 + 23] = 0\n 21082: u8 [a0 + 22] = 0\n 21085: u8 [a0 + 21] = 0\n 21088: u8 [a0 + 20] = 0\n 21091: u8 [a0 + 19] = 0\n 21094: u8 [a0 + 18] = 0\n 21097: u8 [a0 + 17] = 0\n 21100: u8 [a0 + 16] = 0\n 21103: u8 [a0 + 15] = 0\n 21106: u8 [a0 + 14] = 0\n 21109: u8 [a0 + 13] = 0\n 21112: u8 [a0 + 12] = 0\n 21115: u8 [a0 + 11] = 0\n 21118: u8 [a0 + 10] = 0\n 21121: u8 [a0 + 9] = 0\n 21124: u8 [a0 + 8] = 0\n 21127: u8 [a0 + 7] = 0\n 21130: u8 [a0 + 6] = 0\n 21133: u8 [a0 + 5] = 0\n 21136: u8 [a0 + 4] = 0\n 21139: u8 [a0 + 3] = 0x83\n 21144: u8 [a0 + 2] = 0x48\n 21148: u8 [a0 + 1] = 0x5d\n 21152: u8 [a0 + 0] = 0x8\n 21155: ecalli 11 // 'ref_time_left'\n 21157: a0 = u64 [sp + 0x48]\n 21160: a0 = reverse a0\n 21162: a1 = a0 << 0x20\n 21165: a2 = u64 [sp + 0x50]\n 21168: a2 = reverse a2\n 21170: a2 = a2 >> 0x20\n 21173: a1 = a1 | a2\n 21176: a2 = u64 [sp + 0x58]\n 21179: a2 = reverse a2\n 21181: a3 = a2 << 0x20\n 21184: a0 = a0 >> 0x20\n 21187: a0 = a0 | a3\n 21190: a2 = a2 >> 0x20\n 21193: u64 [sp + 0x328] = a0\n 21197: u64 [sp + 0x320] = a1\n 21201: u32 [sp + 0x330] = a2\n 21205: u64 [sp + 856] = 0\n 21209: u64 [sp + 848] = 0\n 21213: u64 [sp + 840] = 0\n 21217: u64 [sp + 832] = 0\n 21221: a1 = 0x4\n 21224: a0 = s1\n 21226: ra = 276, jump @0\n      : @326 [@dyn 138] (gas: 5)\n 21232: u64 [sp + 0x58] = a0\n 21235: a1 = 0x20\n 21238: u64 [sp + 0x50] = s1\n 21241: a0 = s1\n 21243: ra = 278, jump @0\n      : @327 [@dyn 139] (gas: 31)\n 21249: u32 [sp + 864] = 0x20\n 21254: u64 [sp + 920] = 0\n 21258: u64 [sp + 912] = 0\n 21262: u64 [sp + 904] = 0\n 21266: u64 [sp + 896] = 0\n 21270: a1 = sp + 0x320\n 21274: a1 = a1 << 0x20\n 21277: a1 = a1 >> 0x20\n 21280: a2 = 0x1800000000\n 21290: s1 = a1 | a2\n 21293: a1 = sp + 0x340\n 21297: a1 = a1 << 0x20\n 21300: a1 = a1 >> 0x20\n 21303: a2 = sp + 0x380\n 21307: a2 = a2 << 0x20\n 21310: a3 = a2 | a1\n 21313: a1 = u64 [sp + 0x58]\n 21316: a1 = a1 << 0x20\n 21319: a1 = a1 >> 0x20\n 21322: a2 = 0x400000000\n 21332: a4 = a1 | a2\n 21335: a0 = a0 << 0x20\n 21338: a0 = a0 >> 0x20\n 21341: a1 = sp + 0x360\n 21345: a1 = a1 << 0x20\n 21348: a5 = a1 | a0\n 21351: a1 = 0xffffffffffffffff\n 21354: a2 = 0xffffffffffffffff\n 21357: a0 = s1\n 21359: ecalli 1 // 'call'\n 21361: fallthrough\n      : @328 (gas: 1)\n 21362: jump @330 if a0 == 0\n      : @329 (gas: 1)\n 21365: jump @368\n      : @330 (gas: 2)\n 21368: ecalli 13 // 'return_data_size'\n 21370: fallthrough\n      : @331 (gas: 2)\n 21371: a1 = 0x20\n 21374: jump @333 if a0 >=u a1\n      : @332 (gas: 3)\n 21377: ecalli 13 // 'return_data_size'\n 21379: a1 = a0\n 21381: fallthrough\n      : @333 (gas: 28)\n 21382: a5 = 0\n 21384: a3 = u64 [sp + 0x28]\n 21387: a4 = u64 [sp + 0x20]\n 21390: a2 = u64 [sp + 0x10]\n 21393: s1 = u64 [sp + 0x18]\n 21396: a0 = a1 + 0x1f\n 21399: u64 [sp + 0x48] = a1\n 21402: a1 = a0 <u a1\n 21405: u64 [sp + 88] = 0\n 21408: a1 = a1 & 0x1\n 21411: a0 = a0 & 0xffffffffffffffe0\n 21414: a2 = a2 + a0\n 21417: u64 [sp + 0x28] = a2\n 21420: a0 = a2 <u a0\n 21423: s1 = s1 + a1\n 21426: s1 = s1 + a0\n 21429: a2 = s1 ^ a1\n 21432: a1 = s1 <u a1\n 21435: a1 = a0 if a2 == 0\n 21438: a1 = a1 + a3\n 21441: a0 = a1 <u a3\n 21444: a0 = a0 + a4\n 21447: u64 [sp + 0x20] = a1\n 21450: u64 [sp + 0x18] = a0\n 21453: a0 = a0 | a1\n 21456: a1 = s1 <u 0x1\n 21459: a1 = 0 if a0 != 0\n 21461: jump @335 if a1 != 0\n      : @334 (gas: 1)\n 21464: jump @383\n      : @335 (gas: 3)\n 21467: a0 = 0x40\n 21470: a1 = 0x20\n 21473: ra = 280, jump @0\n      : @336 [@dyn 140] (gas: 79)\n 21479: a1 = u64 [sp + 0x18]\n 21482: a1 = reverse a1\n 21484: a2 = u64 [sp + 0x20]\n 21487: a2 = reverse a2\n 21489: a3 = reverse s1\n 21491: a4 = u64 [sp + 0x28]\n 21494: a4 = reverse a4\n 21496: u8 [a0 + 0x18] = a4\n 21499: a5 = a4 >> 0x38\n 21502: u8 [a0 + 0x1f] = a5\n 21505: a5 = a4 >> 0x30\n 21508: u8 [a0 + 0x1e] = a5\n 21511: a5 = a4 >> 0x28\n 21514: u8 [a0 + 0x1d] = a5\n 21517: a5 = a4 >> 0x20\n 21520: u8 [a0 + 0x1c] = a5\n 21523: a5 = a4 >> 0x18\n 21526: u8 [a0 + 0x1b] = a5\n 21529: a5 = a4 >> 0x10\n 21532: u8 [a0 + 0x1a] = a5\n 21535: a4 = a4 >> 0x8\n 21538: u8 [a0 + 0x19] = a4\n 21541: u8 [a0 + 0x10] = a3\n 21544: a4 = a3 >> 0x38\n 21547: u8 [a0 + 0x17] = a4\n 21550: a4 = a3 >> 0x30\n 21553: u8 [a0 + 0x16] = a4\n 21556: a4 = a3 >> 0x28\n 21559: u8 [a0 + 0x15] = a4\n 21562: a4 = a3 >> 0x20\n 21565: u8 [a0 + 0x14] = a4\n 21568: a4 = a3 >> 0x18\n 21571: u8 [a0 + 0x13] = a4\n 21574: a4 = a3 >> 0x10\n 21577: u8 [a0 + 0x12] = a4\n 21580: a3 = a3 >> 0x8\n 21583: u8 [a0 + 0x11] = a3\n 21586: u8 [a0 + 0x8] = a2\n 21589: a3 = a2 >> 0x38\n 21592: u8 [a0 + 0xf] = a3\n 21595: a3 = a2 >> 0x30\n 21598: u8 [a0 + 0xe] = a3\n 21601: a3 = a2 >> 0x28\n 21604: u8 [a0 + 0xd] = a3\n 21607: a3 = a2 >> 0x20\n 21610: u8 [a0 + 0xc] = a3\n 21613: a3 = a2 >> 0x18\n 21616: u8 [a0 + 0xb] = a3\n 21619: a3 = a2 >> 0x10\n 21622: u8 [a0 + 0xa] = a3\n 21625: a2 = a2 >> 0x8\n 21628: u8 [a0 + 0x9] = a2\n 21631: u8 [a0] = a1\n 21633: a2 = a1 >> 0x38\n 21636: u8 [a0 + 0x7] = a2\n 21639: a2 = a1 >> 0x30\n 21642: u8 [a0 + 0x6] = a2\n 21645: a2 = a1 >> 0x28\n 21648: u8 [a0 + 0x5] = a2\n 21651: a2 = a1 >> 0x20\n 21654: u8 [a0 + 0x4] = a2\n 21657: a2 = a1 >> 0x18\n 21660: u8 [a0 + 0x3] = a2\n 21663: a2 = a1 >> 0x10\n 21666: u8 [a0 + 0x2] = a2\n 21669: a1 = a1 >> 0x8\n 21672: a5 = u64 [sp + 0x58]\n 21675: a2 = a5 >u 0\n 21677: a3 = u64 [sp + 0x48]\n 21680: a3 = a3 <u 0x20\n 21683: a3 = a3 ^ 0x1\n 21686: a3 = a2 if a5 != 0\n 21689: a2 = a5 >u 0\n 21691: a4 = a5 >u 0\n 21693: a4 = a2 if a5 == 0\n 21696: a2 = a5 | a5\n 21699: a4 = a3 if a2 == 0\n 21702: u8 [a0 + 0x1] = a1\n 21705: jump @338 if a4 != 0\n      : @337 (gas: 1)\n 21708: jump @381\n      : @338 (gas: 3)\n 21711: a1 = 0x20\n 21714: a0 = u64 [sp + 0x50]\n 21717: ra = 282, jump @0\n      : @339 [@dyn 141] (gas: 54)\n 21723: a1 = u8 [a0 + 0x9]\n 21726: a2 = u8 [a0 + 0x8]\n 21729: a3 = u8 [a0 + 0xa]\n 21732: a4 = u8 [a0 + 0xb]\n 21735: a1 = a1 << 0x8\n 21738: a1 = a1 | a2\n 21741: a3 = a3 << 0x10\n 21744: a4 = a4 << 0x18\n 21747: a3 = a3 | a4\n 21750: a1 = a1 | a3\n 21753: a2 = u8 [a0 + 0xd]\n 21756: a3 = u8 [a0 + 0xc]\n 21759: a4 = u8 [a0 + 0xe]\n 21762: a5 = u8 [a0 + 0xf]\n 21765: a2 = a2 << 0x8\n 21768: a2 = a2 | a3\n 21771: a4 = a4 << 0x10\n 21774: a5 = a5 << 0x18\n 21777: a4 = a4 | a5\n 21780: a2 = a2 | a4\n 21783: a2 = a2 << 0x20\n 21786: a2 = a2 | a1\n 21789: a1 = u8 [a0 + 0x1]\n 21792: a3 = u8 [a0]\n 21794: a4 = u8 [a0 + 0x2]\n 21797: a5 = u8 [a0 + 0x3]\n 21800: a1 = a1 << 0x8\n 21803: a1 = a1 | a3\n 21806: a4 = a4 << 0x10\n 21809: a5 = a5 << 0x18\n 21812: a4 = a4 | a5\n 21815: a1 = a1 | a4\n 21818: a3 = u8 [a0 + 0x5]\n 21821: a4 = u8 [a0 + 0x4]\n 21824: a5 = u8 [a0 + 0x6]\n 21827: s1 = u8 [a0 + 0x7]\n 21830: a3 = a3 << 0x8\n 21833: a3 = a3 | a4\n 21836: a5 = a5 << 0x10\n 21839: s1 = s1 << 0x18\n 21842: a5 = a5 | s1\n 21845: a3 = a3 | a5\n 21848: a3 = a3 << 0x20\n 21851: a1 = a1 | a3\n 21854: t0 = reverse a1\n 21856: a2 = reverse a2\n 21858: a3 = 0x100000000\n 21868: a3 = a3 ^ a2\n 21871: a3 = a3 | t0\n 21874: a4 = a2 >> 0x20\n 21877: a4 = a4 <u 0x1\n 21880: a4 = 0 if t0 != 0\n 21882: a4 = 0 if a3 == 0\n 21884: jump @341 if a4 != 0\n      : @340 (gas: 1)\n 21887: jump @381\n      : @341 (gas: 66)\n 21890: a3 = u8 [a0 + 0x19]\n 21893: a4 = u8 [a0 + 0x18]\n 21896: a5 = u8 [a0 + 0x1a]\n 21899: s1 = u8 [a0 + 0x1b]\n 21902: a3 = a3 << 0x8\n 21905: a3 = a3 | a4\n 21908: a5 = a5 << 0x10\n 21911: s1 = s1 << 0x18\n 21914: a5 = a5 | s1\n 21917: a3 = a3 | a5\n 21920: a4 = u8 [a0 + 0x1d]\n 21923: a5 = u8 [a0 + 0x1c]\n 21926: s1 = u8 [a0 + 0x1e]\n 21929: a1 = u8 [a0 + 0x1f]\n 21932: a4 = a4 << 0x8\n 21935: a4 = a4 | a5\n 21938: s1 = s1 << 0x10\n 21941: a1 = a1 << 0x18\n 21944: a1 = a1 | s1\n 21947: a1 = a1 | a4\n 21950: a1 = a1 << 0x20\n 21953: a3 = a3 | a1\n 21956: a1 = u8 [a0 + 0x11]\n 21959: a4 = u8 [a0 + 0x10]\n 21962: a5 = u8 [a0 + 0x12]\n 21965: s1 = u8 [a0 + 0x13]\n 21968: a1 = a1 << 0x8\n 21971: a1 = a1 | a4\n 21974: a5 = a5 << 0x10\n 21977: s1 = s1 << 0x18\n 21980: a5 = a5 | s1\n 21983: a1 = a1 | a5\n 21986: a4 = u8 [a0 + 0x15]\n 21989: a5 = u8 [a0 + 0x14]\n 21992: s1 = u8 [a0 + 0x16]\n 21995: a0 = u8 [a0 + 0x17]\n 21998: a4 = a4 << 0x8\n 22001: a4 = a4 | a5\n 22004: s1 = s1 << 0x10\n 22007: a0 = a0 << 0x18\n 22010: a0 = a0 | s1\n 22013: a0 = a0 | a4\n 22016: a0 = a0 << 0x20\n 22019: a0 = a0 | a1\n 22022: a0 = reverse a0\n 22024: a1 = reverse a3\n 22026: a3 = u64 [sp + 0x30]\n 22029: a3 = reverse a3\n 22031: a4 = a3 << 0x20\n 22034: a5 = u64 [sp + 0x38]\n 22037: s1 = reverse a5\n 22039: a5 = s1 >> 0x20\n 22042: a4 = a4 | a5\n 22045: s1 = s1 << 0x20\n 22048: a5 = u64 [sp + 0x40]\n 22051: a5 = reverse a5\n 22053: a5 = a5 >> 0x20\n 22056: a5 = a5 | s1\n 22059: a3 = a3 >> 0x20\n 22062: a2 = a2 ^ a3\n 22065: a1 = a1 ^ a5\n 22068: a1 = a1 | a2\n 22071: a0 = a0 ^ a4\n 22074: a0 = a0 | t0\n 22077: a0 = a0 | a1\n 22080: jump @369 if a0 != 0\n      : @342 (gas: 3)\n 22084: a1 = 0x20\n 22087: s1 = 0x20\n 22090: ra = 284, jump @0\n      : @343 [@dyn 142] (gas: 67)\n 22096: a1 = u64 [sp + 0x148]\n 22100: u8 [a0 + 0x10] = a1\n 22103: a1 = u64 [sp + 0xc8]\n 22107: u8 [a0 + 0xf] = a1\n 22110: a1 = u64 [sp + 0xc0]\n 22114: u8 [a0 + 0xe] = a1\n 22117: a1 = u64 [sp + 0xb8]\n 22121: u8 [a0 + 0xd] = a1\n 22124: a1 = u64 [sp + 0xb0]\n 22128: u8 [a0 + 0xc] = a1\n 22131: a1 = u64 [sp + 0xa8]\n 22135: u8 [a0 + 0xb] = a1\n 22138: a1 = u64 [sp + 0xa0]\n 22142: u8 [a0 + 0xa] = a1\n 22145: a1 = u64 [sp + 0x98]\n 22149: u8 [a0 + 0x9] = a1\n 22152: a1 = u64 [sp + 0x150]\n 22156: u8 [a0 + 0x8] = a1\n 22159: a1 = u64 [sp + 0x90]\n 22163: u8 [a0 + 0x7] = a1\n 22166: a1 = u64 [sp + 0x88]\n 22170: u8 [a0 + 0x6] = a1\n 22173: a1 = u64 [sp + 0x80]\n 22177: u8 [a0 + 0x5] = a1\n 22180: a1 = u64 [sp + 0x78]\n 22183: u8 [a0 + 0x4] = a1\n 22186: a1 = u64 [sp + 0x70]\n 22189: u8 [a0 + 0x3] = a1\n 22192: a1 = u64 [sp + 0x68]\n 22195: u8 [a0 + 0x2] = a1\n 22198: a1 = u64 [sp + 0x60]\n 22201: u8 [a0 + 0x1] = a1\n 22204: a1 = u64 [sp + 0x158]\n 22208: u8 [a0] = a1\n 22210: a1 = u64 [sp + 0x140]\n 22214: u8 [a0 + 0x18] = a1\n 22217: a1 = u64 [sp + 0x100]\n 22221: u8 [a0 + 0x17] = a1\n 22224: a1 = u64 [sp + 0xf8]\n 22228: u8 [a0 + 0x16] = a1\n 22231: a1 = u64 [sp + 0xf0]\n 22235: u8 [a0 + 0x15] = a1\n 22238: a1 = u64 [sp + 0xe8]\n 22242: u8 [a0 + 0x14] = a1\n 22245: a1 = u64 [sp + 0xe0]\n 22249: u8 [a0 + 0x13] = a1\n 22252: a1 = u64 [sp + 0xd8]\n 22256: u8 [a0 + 0x12] = a1\n 22259: a1 = u64 [sp + 0xd0]\n 22263: u8 [a0 + 0x11] = a1\n 22266: a1 = u64 [sp + 0x138]\n 22270: u8 [a0 + 0x1f] = a1\n 22273: a1 = u64 [sp + 0x130]\n 22277: u8 [a0 + 0x1e] = a1\n 22280: a1 = u64 [sp + 0x128]\n 22284: u8 [a0 + 0x1d] = a1\n 22287: a1 = u64 [sp + 0x120]\n 22291: u8 [a0 + 0x1c] = a1\n 22294: a1 = u64 [sp + 0x118]\n 22298: u8 [a0 + 0x1b] = a1\n 22301: a1 = u64 [sp + 0x110]\n 22305: u8 [a0 + 0x1a] = a1\n 22308: a1 = u64 [sp + 0x108]\n 22312: u8 [a0 + 0x19] = a1\n 22315: a0 = 0x20\n 22318: a1 = 0x20\n 22321: ra = 286, jump @0\n      : @344 [@dyn 143] (gas: 35)\n 22327: u8 [a0 + 31] = 0x2\n 22331: u8 [a0 + 30] = 0\n 22334: u8 [a0 + 29] = 0\n 22337: u8 [a0 + 28] = 0\n 22340: u8 [a0 + 27] = 0\n 22343: u8 [a0 + 26] = 0\n 22346: u8 [a0 + 25] = 0\n 22349: u8 [a0 + 24] = 0\n 22352: u8 [a0 + 23] = 0\n 22355: u8 [a0 + 22] = 0\n 22358: u8 [a0 + 21] = 0\n 22361: u8 [a0 + 20] = 0\n 22364: u8 [a0 + 19] = 0\n 22367: u8 [a0 + 18] = 0\n 22370: u8 [a0 + 17] = 0\n 22373: u8 [a0 + 16] = 0\n 22376: u8 [a0 + 15] = 0\n 22379: u8 [a0 + 14] = 0\n 22382: u8 [a0 + 13] = 0\n 22385: u8 [a0 + 12] = 0\n 22388: u8 [a0 + 11] = 0\n 22391: u8 [a0 + 10] = 0\n 22394: u8 [a0 + 9] = 0\n 22397: u8 [a0 + 8] = 0\n 22400: u8 [a0 + 7] = 0\n 22403: u8 [a0 + 6] = 0\n 22406: u8 [a0 + 5] = 0\n 22409: u8 [a0 + 4] = 0\n 22412: u8 [a0 + 3] = 0\n 22415: u8 [a0 + 2] = 0\n 22418: u8 [a0 + 1] = 0\n 22421: u8 [a0 + 0] = 0\n 22423: a1 = 0x40\n 22426: a0 = 0\n 22428: ra = 288, jump @0\n      : @345 [@dyn 144] (gas: 28)\n 22434: i32 a0 = a0 + 0\n 22436: i32 a2 = sp + 0x400\n 22440: a1 = 0x40\n 22443: ecalli 9 // 'hash_keccak_256'\n 22445: a0 = u64 [sp + 0x418]\n 22449: a1 = u64 [sp + 0x410]\n 22453: a2 = u64 [sp + 0x408]\n 22457: a3 = u64 [sp + 0x400]\n 22461: a0 = reverse a0\n 22463: a1 = reverse a1\n 22465: a2 = reverse a2\n 22467: a3 = reverse a3\n 22469: u64 [sp + 0x3d8] = a3\n 22473: u64 [sp + 0x3d0] = a2\n 22477: u64 [sp + 0x3c8] = a1\n 22481: u64 [sp + 0x3c0] = a0\n 22485: u64 [sp + 1048] = 0\n 22489: u64 [sp + 1040] = 0\n 22493: u64 [sp + 1032] = 0\n 22497: u64 [sp + 1024] = 0\n 22501: u32 [sp + 0x3e0] = s1\n 22505: i32 a1 = sp + 0x3c0\n 22509: i32 a3 = sp + 0x400\n 22513: i32 a4 = sp + 0x3e0\n 22517: a2 = 0xffffffffffffffff\n 22520: a0 = 0\n 22522: ecalli 8 // 'get_storage'\n 22524: fallthrough\n      : @346 (gas: 20)\n 22525: a0 = u64 [sp + 0x418]\n 22529: a1 = u64 [sp + 0x400]\n 22533: a2 = u64 [sp + 0x410]\n 22537: a3 = u64 [sp + 0x408]\n 22541: a5 = u64 [sp + 0x168]\n 22545: a4 = a0 ^ a5\n 22548: a0 = a0 <u a5\n 22551: s1 = u64 [sp + 0x160]\n 22555: a5 = a2 <u s1\n 22558: a5 = a0 if a4 != 0\n 22561: a0 = u64 [sp + 0x170]\n 22565: t0 = a3 ^ a0\n 22568: a3 = a3 <u a0\n 22571: a0 = u64 [sp + 0x178]\n 22575: a1 = a1 <u a0\n 22578: a1 = a3 if t0 != 0\n 22581: a0 = a2 ^ s1\n 22584: a0 = a0 | a4\n 22587: a1 = a5 if a0 != 0\n 22590: jump @374 if a1 != 0\n      : @347 (gas: 3)\n 22594: a1 = 0x20\n 22597: a0 = 0\n 22599: ra = 290, jump @0\n      : @348 [@dyn 145] (gas: 67)\n 22605: a1 = u64 [sp + 0x148]\n 22609: u8 [a0 + 0x10] = a1\n 22612: a1 = u64 [sp + 0xc8]\n 22616: u8 [a0 + 0xf] = a1\n 22619: a1 = u64 [sp + 0xc0]\n 22623: u8 [a0 + 0xe] = a1\n 22626: a1 = u64 [sp + 0xb8]\n 22630: u8 [a0 + 0xd] = a1\n 22633: a1 = u64 [sp + 0xb0]\n 22637: u8 [a0 + 0xc] = a1\n 22640: a1 = u64 [sp + 0xa8]\n 22644: u8 [a0 + 0xb] = a1\n 22647: a1 = u64 [sp + 0xa0]\n 22651: u8 [a0 + 0xa] = a1\n 22654: a1 = u64 [sp + 0x98]\n 22658: u8 [a0 + 0x9] = a1\n 22661: a1 = u64 [sp + 0x150]\n 22665: u8 [a0 + 0x8] = a1\n 22668: a1 = u64 [sp + 0x90]\n 22672: u8 [a0 + 0x7] = a1\n 22675: a1 = u64 [sp + 0x88]\n 22679: u8 [a0 + 0x6] = a1\n 22682: a1 = u64 [sp + 0x80]\n 22686: u8 [a0 + 0x5] = a1\n 22689: a1 = u64 [sp + 0x78]\n 22692: u8 [a0 + 0x4] = a1\n 22695: a1 = u64 [sp + 0x70]\n 22698: u8 [a0 + 0x3] = a1\n 22701: a1 = u64 [sp + 0x68]\n 22704: u8 [a0 + 0x2] = a1\n 22707: a1 = u64 [sp + 0x60]\n 22710: u8 [a0 + 0x1] = a1\n 22713: a1 = u64 [sp + 0x158]\n 22717: u8 [a0] = a1\n 22719: a1 = u64 [sp + 0x140]\n 22723: u8 [a0 + 0x18] = a1\n 22726: a1 = u64 [sp + 0x100]\n 22730: u8 [a0 + 0x17] = a1\n 22733: a1 = u64 [sp + 0xf8]\n 22737: u8 [a0 + 0x16] = a1\n 22740: a1 = u64 [sp + 0xf0]\n 22744: u8 [a0 + 0x15] = a1\n 22747: a1 = u64 [sp + 0xe8]\n 22751: u8 [a0 + 0x14] = a1\n 22754: a1 = u64 [sp + 0xe0]\n 22758: u8 [a0 + 0x13] = a1\n 22761: a1 = u64 [sp + 0xd8]\n 22765: u8 [a0 + 0x12] = a1\n 22768: a1 = u64 [sp + 0xd0]\n 22772: u8 [a0 + 0x11] = a1\n 22775: a1 = u64 [sp + 0x138]\n 22779: u8 [a0 + 0x1f] = a1\n 22782: a1 = u64 [sp + 0x130]\n 22786: u8 [a0 + 0x1e] = a1\n 22789: a1 = u64 [sp + 0x128]\n 22793: u8 [a0 + 0x1d] = a1\n 22796: a1 = u64 [sp + 0x120]\n 22800: u8 [a0 + 0x1c] = a1\n 22803: a1 = u64 [sp + 0x118]\n 22807: u8 [a0 + 0x1b] = a1\n 22810: a1 = u64 [sp + 0x110]\n 22814: u8 [a0 + 0x1a] = a1\n 22817: a1 = u64 [sp + 0x108]\n 22821: u8 [a0 + 0x19] = a1\n 22824: a0 = 0x20\n 22827: a1 = 0x20\n 22830: ra = 292, jump @0\n      : @349 [@dyn 146] (gas: 35)\n 22836: u8 [a0 + 31] = 0x2\n 22840: u8 [a0 + 30] = 0\n 22843: u8 [a0 + 29] = 0\n 22846: u8 [a0 + 28] = 0\n 22849: u8 [a0 + 27] = 0\n 22852: u8 [a0 + 26] = 0\n 22855: u8 [a0 + 25] = 0\n 22858: u8 [a0 + 24] = 0\n 22861: u8 [a0 + 23] = 0\n 22864: u8 [a0 + 22] = 0\n 22867: u8 [a0 + 21] = 0\n 22870: u8 [a0 + 20] = 0\n 22873: u8 [a0 + 19] = 0\n 22876: u8 [a0 + 18] = 0\n 22879: u8 [a0 + 17] = 0\n 22882: u8 [a0 + 16] = 0\n 22885: u8 [a0 + 15] = 0\n 22888: u8 [a0 + 14] = 0\n 22891: u8 [a0 + 13] = 0\n 22894: u8 [a0 + 12] = 0\n 22897: u8 [a0 + 11] = 0\n 22900: u8 [a0 + 10] = 0\n 22903: u8 [a0 + 9] = 0\n 22906: u8 [a0 + 8] = 0\n 22909: u8 [a0 + 7] = 0\n 22912: u8 [a0 + 6] = 0\n 22915: u8 [a0 + 5] = 0\n 22918: u8 [a0 + 4] = 0\n 22921: u8 [a0 + 3] = 0\n 22924: u8 [a0 + 2] = 0\n 22927: u8 [a0 + 1] = 0\n 22930: u8 [a0 + 0] = 0\n 22932: a1 = 0x40\n 22935: a0 = 0\n 22937: ra = 294, jump @0\n      : @350 [@dyn 147] (gas: 32)\n 22943: i32 a0 = a0 + 0\n 22945: i32 a2 = sp + 0x400\n 22949: a1 = 0x40\n 22952: ecalli 9 // 'hash_keccak_256'\n 22954: a0 = u64 [sp + 0x418]\n 22958: a1 = u64 [sp + 0x410]\n 22962: a2 = u64 [sp + 0x408]\n 22966: a3 = u64 [sp + 0x400]\n 22970: a0 = reverse a0\n 22972: a1 = reverse a1\n 22974: a2 = reverse a2\n 22976: a3 = reverse a3\n 22978: u64 [sp + 0x40] = a3\n 22981: u64 [sp + 0x3d8] = a3\n 22985: u64 [sp + 0x48] = a2\n 22988: u64 [sp + 0x3d0] = a2\n 22992: u64 [sp + 0x50] = a1\n 22995: u64 [sp + 0x3c8] = a1\n 22999: u64 [sp + 0x58] = a0\n 23002: u64 [sp + 0x3c0] = a0\n 23006: u64 [sp + 1048] = 0\n 23010: u64 [sp + 1040] = 0\n 23014: u64 [sp + 1032] = 0\n 23018: u64 [sp + 1024] = 0\n 23022: u32 [sp + 992] = 0x20\n 23027: i32 a1 = sp + 0x3c0\n 23031: i32 a3 = sp + 0x400\n 23035: i32 a4 = sp + 0x3e0\n 23039: a2 = 0xffffffffffffffff\n 23042: a0 = 0\n 23044: ecalli 8 // 'get_storage'\n 23046: fallthrough\n      : @351 (gas: 22)\n 23047: a2 = u64 [sp + 0x418]\n 23051: a3 = u64 [sp + 0x410]\n 23055: t1 = u64 [sp + 0x408]\n 23059: a1 = u64 [sp + 0x400]\n 23063: a4 = u64 [sp + 0x168]\n 23067: a0 = a2 ^ a4\n 23070: a4 = a2 <u a4\n 23073: t0 = u64 [sp + 0x160]\n 23077: a5 = a3 <u t0\n 23080: u64 [sp + 0x30] = a5\n 23083: a4 = a5 if a0 == 0\n 23086: a5 = u64 [sp + 0x170]\n 23090: t2 = t1 ^ a5\n 23093: s1 = t1 <u a5\n 23096: a5 = u64 [sp + 0x178]\n 23100: u64 [sp + 0x20] = a1\n 23103: ra = a1 <u a5\n 23106: s1 = ra if t2 == 0\n 23109: a5 = a3 ^ t0\n 23112: a0 = a0 | a5\n 23115: a4 = s1 if a0 == 0\n 23118: jump @385 if a4 != 0\n      : @352 (gas: 88)\n 23122: a0 = a3 - t0\n 23125: a3 = a0 - s1\n 23128: u64 [sp + 0x38] = a3\n 23131: a0 = a0 <u s1\n 23134: a3 = u64 [sp + 0x168]\n 23138: a2 = a2 - a3\n 23141: a1 = u64 [sp + 0x30]\n 23144: a2 = a2 - a1\n 23147: a2 = a2 - a0\n 23150: u64 [sp + 0x30] = a2\n 23153: a0 = u64 [sp + 0x170]\n 23157: a0 = t1 - a0\n 23160: a0 = a0 - ra\n 23163: u64 [sp + 0x28] = a0\n 23166: a0 = u64 [sp + 0x178]\n 23170: a1 = u64 [sp + 0x20]\n 23173: a0 = a1 - a0\n 23176: u64 [sp + 0x20] = a0\n 23179: a0 = u64 [sp + 0x48]\n 23182: u64 [sp + 0x3d0] = a0\n 23186: a0 = u64 [sp + 0x50]\n 23189: u64 [sp + 0x3c8] = a0\n 23193: a0 = u64 [sp + 0x58]\n 23196: u64 [sp + 0x3c0] = a0\n 23200: s1 = u64 [sp + 0x40]\n 23203: u64 [sp + 0x3d8] = s1\n 23207: u64 [sp + 1048] = 0\n 23211: u64 [sp + 1040] = 0\n 23215: u64 [sp + 1032] = 0\n 23219: u64 [sp + 1024] = 0\n 23223: u32 [sp + 992] = 0x20\n 23228: i32 a1 = sp + 0x3c0\n 23232: i32 a3 = sp + 0x400\n 23236: i32 a4 = sp + 0x3e0\n 23240: a2 = 0xffffffffffffffff\n 23243: a0 = 0\n 23245: ecalli 8 // 'get_storage'\n 23247: u64 [sp + 0x3d8] = s1\n 23251: a0 = u64 [sp + 0x48]\n 23254: u64 [sp + 0x3d0] = a0\n 23258: a0 = u64 [sp + 0x50]\n 23261: u64 [sp + 0x3c8] = a0\n 23265: a0 = u64 [sp + 0x58]\n 23268: u64 [sp + 0x3c0] = a0\n 23272: a0 = u64 [sp + 0x30]\n 23275: u64 [sp + 0x418] = a0\n 23279: a0 = u64 [sp + 0x38]\n 23282: u64 [sp + 0x410] = a0\n 23286: a0 = u64 [sp + 0x28]\n 23289: u64 [sp + 0x408] = a0\n 23293: a0 = u64 [sp + 0x20]\n 23296: u64 [sp + 0x400] = a0\n 23300: i32 a1 = sp + 0x3c0\n 23304: i32 a3 = sp + 0x400\n 23308: a2 = 0xffffffffffffffff\n 23311: a4 = 0x20\n 23314: a0 = 0\n 23316: ecalli 16 // 'set_storage'\n 23318: i32 a0 = sp + 0x3a0\n 23322: ecalli 5 // 'caller'\n 23324: a0 = u64 [sp + 0x3a8]\n 23328: a1 = i32 [sp + 0x3b0]\n 23332: a2 = u64 [sp + 0x3a0]\n 23336: a0 = reverse a0\n 23338: a3 = a0 << 0x20\n 23341: a1 = reverse a1\n 23343: a1 = a1 >> 0x20\n 23346: a3 = a3 | a1\n 23349: a0 = a0 >> 0x20\n 23352: a1 = reverse a2\n 23354: a2 = a1 << 0x20\n 23357: a0 = a0 | a2\n 23360: a1 = a1 >> 0x20\n 23363: a2 = u64 [sp + 0x168]\n 23367: u64 [sp + 0x298] = a2\n 23371: a2 = u64 [sp + 0x160]\n 23375: u64 [sp + 0x290] = a2\n 23379: a2 = u64 [sp + 0x170]\n 23383: u64 [sp + 0x288] = a2\n 23387: a2 = u64 [sp + 0x178]\n 23391: u64 [sp + 0x280] = a2\n 23395: u64 [sp + 696] = 0\n 23399: u64 [sp + 0x2b0] = a1\n 23403: u64 [sp + 0x2a8] = a0\n 23407: a0 = sp + 0x2a0\n 23411: a1 = sp + 0x280\n 23415: u64 [sp + 0x2a0] = a3\n 23419: ra = 296, jump @961\n      : @353 [@dyn 148] (gas: 3)\n 23426: a1 = 0x20\n 23429: a0 = 0\n 23431: ra = 298, jump @0\n      : @354 [@dyn 149] (gas: 67)\n 23437: a1 = u64 [sp + 0x138]\n 23441: u8 [a0 + 0x1f] = a1\n 23444: a1 = u64 [sp + 0x130]\n 23448: u8 [a0 + 0x1e] = a1\n 23451: a1 = u64 [sp + 0x128]\n 23455: u8 [a0 + 0x1d] = a1\n 23458: a1 = u64 [sp + 0x120]\n 23462: u8 [a0 + 0x1c] = a1\n 23465: a1 = u64 [sp + 0x118]\n 23469: u8 [a0 + 0x1b] = a1\n 23472: a1 = u64 [sp + 0x110]\n 23476: u8 [a0 + 0x1a] = a1\n 23479: a1 = u64 [sp + 0x108]\n 23483: u8 [a0 + 0x19] = a1\n 23486: a1 = u64 [sp + 0x100]\n 23490: u8 [a0 + 0x17] = a1\n 23493: a1 = u64 [sp + 0xf8]\n 23497: u8 [a0 + 0x16] = a1\n 23500: a1 = u64 [sp + 0xf0]\n 23504: u8 [a0 + 0x15] = a1\n 23507: a1 = u64 [sp + 0xe8]\n 23511: u8 [a0 + 0x14] = a1\n 23514: a1 = u64 [sp + 0xe0]\n 23518: u8 [a0 + 0x13] = a1\n 23521: a1 = u64 [sp + 0xd8]\n 23525: u8 [a0 + 0x12] = a1\n 23528: a1 = u64 [sp + 0xd0]\n 23532: u8 [a0 + 0x11] = a1\n 23535: a1 = u64 [sp + 0xc8]\n 23539: u8 [a0 + 0xf] = a1\n 23542: a1 = u64 [sp + 0xc0]\n 23546: u8 [a0 + 0xe] = a1\n 23549: a1 = u64 [sp + 0xb8]\n 23553: u8 [a0 + 0xd] = a1\n 23556: a1 = u64 [sp + 0xb0]\n 23560: u8 [a0 + 0xc] = a1\n 23563: a1 = u64 [sp + 0xa8]\n 23567: u8 [a0 + 0xb] = a1\n 23570: a1 = u64 [sp + 0xa0]\n 23574: u8 [a0 + 0xa] = a1\n 23577: a1 = u64 [sp + 0x98]\n 23581: u8 [a0 + 0x9] = a1\n 23584: a1 = u64 [sp + 0x90]\n 23588: u8 [a0 + 0x7] = a1\n 23591: a1 = u64 [sp + 0x88]\n 23595: u8 [a0 + 0x6] = a1\n 23598: a1 = u64 [sp + 0x80]\n 23602: u8 [a0 + 0x5] = a1\n 23605: a1 = u64 [sp + 0x78]\n 23608: u8 [a0 + 0x4] = a1\n 23611: a1 = u64 [sp + 0x70]\n 23614: u8 [a0 + 0x3] = a1\n 23617: a1 = u64 [sp + 0x68]\n 23620: u8 [a0 + 0x2] = a1\n 23623: a1 = u64 [sp + 0x60]\n 23626: u8 [a0 + 0x1] = a1\n 23629: a1 = u64 [sp + 0x140]\n 23633: u8 [a0 + 0x18] = a1\n 23636: a1 = u64 [sp + 0x148]\n 23640: u8 [a0 + 0x10] = a1\n 23643: a1 = u64 [sp + 0x150]\n 23647: u8 [a0 + 0x8] = a1\n 23650: a1 = u64 [sp + 0x158]\n 23654: u8 [a0] = a1\n 23656: a0 = 0x20\n 23659: a1 = 0x20\n 23662: ra = 300, jump @0\n      : @355 [@dyn 150] (gas: 35)\n 23668: u8 [a0 + 31] = 0x2\n 23672: u8 [a0 + 30] = 0\n 23675: u8 [a0 + 29] = 0\n 23678: u8 [a0 + 28] = 0\n 23681: u8 [a0 + 27] = 0\n 23684: u8 [a0 + 26] = 0\n 23687: u8 [a0 + 25] = 0\n 23690: u8 [a0 + 24] = 0\n 23693: u8 [a0 + 23] = 0\n 23696: u8 [a0 + 22] = 0\n 23699: u8 [a0 + 21] = 0\n 23702: u8 [a0 + 20] = 0\n 23705: u8 [a0 + 19] = 0\n 23708: u8 [a0 + 18] = 0\n 23711: u8 [a0 + 17] = 0\n 23714: u8 [a0 + 16] = 0\n 23717: u8 [a0 + 15] = 0\n 23720: u8 [a0 + 14] = 0\n 23723: u8 [a0 + 13] = 0\n 23726: u8 [a0 + 12] = 0\n 23729: u8 [a0 + 11] = 0\n 23732: u8 [a0 + 10] = 0\n 23735: u8 [a0 + 9] = 0\n 23738: u8 [a0 + 8] = 0\n 23741: u8 [a0 + 7] = 0\n 23744: u8 [a0 + 6] = 0\n 23747: u8 [a0 + 5] = 0\n 23750: u8 [a0 + 4] = 0\n 23753: u8 [a0 + 3] = 0\n 23756: u8 [a0 + 2] = 0\n 23759: u8 [a0 + 1] = 0\n 23762: u8 [a0 + 0] = 0\n 23764: a1 = 0x40\n 23767: a0 = 0\n 23769: ra = 302, jump @0\n      : @356 [@dyn 151] (gas: 38)\n 23775: i32 a0 = a0 + 0\n 23777: i32 a2 = sp + 0x400\n 23781: a1 = 0x40\n 23784: ecalli 9 // 'hash_keccak_256'\n 23786: a0 = u64 [sp + 0x418]\n 23790: a1 = u64 [sp + 0x410]\n 23794: a2 = u64 [sp + 0x408]\n 23798: a3 = u64 [sp + 0x400]\n 23802: a0 = reverse a0\n 23804: a1 = reverse a1\n 23806: a2 = reverse a2\n 23808: a3 = reverse a3\n 23810: u64 [sp + 0x3d8] = a3\n 23814: u64 [sp + 0x3d0] = a2\n 23818: u64 [sp + 0x3c8] = a1\n 23822: u64 [sp + 0x3c0] = a0\n 23826: u64 [sp + 1048] = 0\n 23830: u64 [sp + 1040] = 0\n 23834: u64 [sp + 1032] = 0\n 23838: u64 [sp + 1024] = 0\n 23842: u32 [sp + 992] = 0x20\n 23847: i32 a1 = sp + 0x3c0\n 23851: i32 a3 = sp + 0x400\n 23855: i32 a4 = sp + 0x3e0\n 23859: a2 = 0xffffffffffffffff\n 23862: a0 = 0\n 23864: ecalli 8 // 'get_storage'\n 23866: a0 = u64 [sp + 0x418]\n 23870: u64 [sp + 0x110] = a0\n 23874: a0 = u64 [sp + 0x410]\n 23878: u64 [sp + 0x118] = a0\n 23882: a0 = u64 [sp + 0x408]\n 23886: u64 [sp + 0x120] = a0\n 23890: a0 = u64 [sp + 0x400]\n 23894: u64 [sp + 0x128] = a0\n 23898: a0 = 0x40\n 23901: a1 = 0x20\n 23904: ra = 304, jump @0\n      : @357 [@dyn 152] (gas: 102)\n 23910: a1 = u8 [a0 + 0x11]\n 23913: a2 = u8 [a0 + 0x10]\n 23916: a3 = u8 [a0 + 0x12]\n 23919: a4 = u8 [a0 + 0x13]\n 23922: a1 = a1 << 0x8\n 23925: a1 = a1 | a2\n 23928: a3 = a3 << 0x10\n 23931: a4 = a4 << 0x18\n 23934: a3 = a3 | a4\n 23937: a1 = a1 | a3\n 23940: a2 = u8 [a0 + 0x15]\n 23943: a3 = u8 [a0 + 0x14]\n 23946: a4 = u8 [a0 + 0x16]\n 23949: a5 = u8 [a0 + 0x17]\n 23952: a2 = a2 << 0x8\n 23955: a2 = a2 | a3\n 23958: a4 = a4 << 0x10\n 23961: a5 = a5 << 0x18\n 23964: a4 = a4 | a5\n 23967: a2 = a2 | a4\n 23970: a2 = a2 << 0x20\n 23973: t0 = a2 | a1\n 23976: a2 = u8 [a0 + 0x1]\n 23979: a3 = u8 [a0]\n 23981: a4 = u8 [a0 + 0x2]\n 23984: a5 = u8 [a0 + 0x3]\n 23987: a2 = a2 << 0x8\n 23990: a2 = a2 | a3\n 23993: a4 = a4 << 0x10\n 23996: a5 = a5 << 0x18\n 23999: a4 = a4 | a5\n 24002: a2 = a2 | a4\n 24005: a3 = u8 [a0 + 0x5]\n 24008: a4 = u8 [a0 + 0x4]\n 24011: a5 = u8 [a0 + 0x6]\n 24014: s1 = u8 [a0 + 0x7]\n 24017: a3 = a3 << 0x8\n 24020: a3 = a3 | a4\n 24023: a5 = a5 << 0x10\n 24026: s1 = s1 << 0x18\n 24029: a5 = a5 | s1\n 24032: a3 = a3 | a5\n 24035: a3 = a3 << 0x20\n 24038: a2 = a2 | a3\n 24041: a3 = u8 [a0 + 0x19]\n 24044: a4 = u8 [a0 + 0x18]\n 24047: a5 = u8 [a0 + 0x1a]\n 24050: s1 = u8 [a0 + 0x1b]\n 24053: a3 = a3 << 0x8\n 24056: a3 = a3 | a4\n 24059: a5 = a5 << 0x10\n 24062: s1 = s1 << 0x18\n 24065: a5 = a5 | s1\n 24068: a3 = a3 | a5\n 24071: a4 = u8 [a0 + 0x1d]\n 24074: a5 = u8 [a0 + 0x1c]\n 24077: s1 = u8 [a0 + 0x1e]\n 24080: a1 = u8 [a0 + 0x1f]\n 24083: a4 = a4 << 0x8\n 24086: a4 = a4 | a5\n 24089: s1 = s1 << 0x10\n 24092: a1 = a1 << 0x18\n 24095: a1 = a1 | s1\n 24098: a1 = a1 | a4\n 24101: a1 = a1 << 0x20\n 24104: a3 = a3 | a1\n 24107: a1 = u8 [a0 + 0x9]\n 24110: a4 = u8 [a0 + 0x8]\n 24113: a5 = u8 [a0 + 0xa]\n 24116: s1 = u8 [a0 + 0xb]\n 24119: a1 = a1 << 0x8\n 24122: a1 = a1 | a4\n 24125: a5 = a5 << 0x10\n 24128: s1 = s1 << 0x18\n 24131: a5 = a5 | s1\n 24134: a1 = a1 | a5\n 24137: a4 = u8 [a0 + 0xd]\n 24140: a5 = u8 [a0 + 0xc]\n 24143: s1 = u8 [a0 + 0xe]\n 24146: a0 = u8 [a0 + 0xf]\n 24149: a4 = a4 << 0x8\n 24152: a4 = a4 | a5\n 24155: s1 = s1 << 0x10\n 24158: a0 = a0 << 0x18\n 24161: a0 = a0 | s1\n 24164: a0 = a0 | a4\n 24167: a0 = a0 << 0x20\n 24170: a0 = a0 | a1\n 24173: s1 = reverse a0\n 24175: a3 = reverse a3\n 24177: a1 = reverse a2\n 24179: a0 = reverse t0\n 24181: u64 [sp + 0x138] = a0\n 24185: u64 [sp + 0x130] = a1\n 24189: a0 = a0 | a1\n 24192: a1 = a3 | s1\n 24195: a1 = a1 | a0\n 24198: a1 = a1 >> 0x20\n 24201: a0 = a0 | s1\n 24204: a0 = a0 << 0x20\n 24207: a0 = a0 | a1\n 24210: jump @380 if a0 != 0\n      : @358 (gas: 5)\n 24214: i32 a0 = a3 + 0\n 24216: a1 = 0x20\n 24219: u64 [sp + 0x100] = a0\n 24223: u64 [sp + 0x108] = a3\n 24227: ra = 306, jump @0\n      : @359 [@dyn 153] (gas: 77)\n 24233: a1 = u64 [sp + 0x168]\n 24237: a1 = reverse a1\n 24239: a2 = u64 [sp + 0x160]\n 24243: a2 = reverse a2\n 24245: a3 = u64 [sp + 0x170]\n 24249: a3 = reverse a3\n 24251: a4 = u64 [sp + 0x178]\n 24255: a4 = reverse a4\n 24257: a5 = a4 >> 0x38\n 24260: u8 [a0 + 0x1f] = a5\n 24263: a5 = a4 >> 0x30\n 24266: u8 [a0 + 0x1e] = a5\n 24269: a5 = a4 >> 0x28\n 24272: u8 [a0 + 0x1d] = a5\n 24275: a5 = a4 >> 0x20\n 24278: u8 [a0 + 0x1c] = a5\n 24281: a5 = a4 >> 0x18\n 24284: u8 [a0 + 0x1b] = a5\n 24287: a5 = a4 >> 0x10\n 24290: u8 [a0 + 0x1a] = a5\n 24293: a5 = a4 >> 0x8\n 24296: u8 [a0 + 0x19] = a5\n 24299: u8 [a0 + 0x18] = a4\n 24302: u8 [a0 + 0x10] = a3\n 24305: a4 = a3 >> 0x38\n 24308: u8 [a0 + 0x17] = a4\n 24311: a4 = a3 >> 0x30\n 24314: u8 [a0 + 0x16] = a4\n 24317: a4 = a3 >> 0x28\n 24320: u8 [a0 + 0x15] = a4\n 24323: a4 = a3 >> 0x20\n 24326: u8 [a0 + 0x14] = a4\n 24329: a4 = a3 >> 0x18\n 24332: u8 [a0 + 0x13] = a4\n 24335: a4 = a3 >> 0x10\n 24338: u8 [a0 + 0x12] = a4\n 24341: a3 = a3 >> 0x8\n 24344: u8 [a0 + 0x11] = a3\n 24347: u8 [a0 + 0x8] = a2\n 24350: a3 = a2 >> 0x38\n 24353: u8 [a0 + 0xf] = a3\n 24356: a3 = a2 >> 0x30\n 24359: u8 [a0 + 0xe] = a3\n 24362: a3 = a2 >> 0x28\n 24365: u8 [a0 + 0xd] = a3\n 24368: a3 = a2 >> 0x20\n 24371: u8 [a0 + 0xc] = a3\n 24374: a3 = a2 >> 0x18\n 24377: u8 [a0 + 0xb] = a3\n 24380: a3 = a2 >> 0x10\n 24383: u8 [a0 + 0xa] = a3\n 24386: a2 = a2 >> 0x8\n 24389: u8 [a0 + 0x9] = a2\n 24392: u8 [a0] = a1\n 24394: a2 = a1 >> 0x38\n 24397: u8 [a0 + 0x7] = a2\n 24400: a2 = a1 >> 0x30\n 24403: u8 [a0 + 0x6] = a2\n 24406: a2 = a1 >> 0x28\n 24409: u8 [a0 + 0x5] = a2\n 24412: a2 = a1 >> 0x20\n 24415: u8 [a0 + 0x4] = a2\n 24418: a2 = a1 >> 0x18\n 24421: u8 [a0 + 0x3] = a2\n 24424: a2 = a1 >> 0x10\n 24427: u8 [a0 + 0x2] = a2\n 24430: a1 = a1 >> 0x8\n 24433: a2 = u64 [sp + 0x130]\n 24437: a2 = a2 | s1\n 24440: a3 = 0xffffffe0\n 24450: a4 = u64 [sp + 0x108]\n 24454: a3 = a4 <u a3\n 24457: a4 = u64 [sp + 0x138]\n 24461: a3 = 0 if a4 != 0\n 24463: a3 = 0 if a2 != 0\n 24465: u8 [a0 + 0x1] = a1\n 24468: jump @380 if a3 == 0\n      : @360 (gas: 4)\n 24472: s1 = u64 [sp + 0x100]\n 24476: i32 a0 = s1 + 0x20\n 24479: a1 = 0x20\n 24482: ra = 308, jump @0\n      : @361 [@dyn 154] (gas: 71)\n 24488: a1 = u64 [sp + 0x110]\n 24492: a1 = reverse a1\n 24494: a2 = u64 [sp + 0x118]\n 24498: a2 = reverse a2\n 24500: a3 = u64 [sp + 0x120]\n 24504: a3 = reverse a3\n 24506: a4 = u64 [sp + 0x128]\n 24510: a4 = reverse a4\n 24512: a5 = a4 >> 0x38\n 24515: u8 [a0 + 0x1f] = a5\n 24518: a5 = a4 >> 0x30\n 24521: u8 [a0 + 0x1e] = a5\n 24524: a5 = a4 >> 0x28\n 24527: u8 [a0 + 0x1d] = a5\n 24530: a5 = a4 >> 0x20\n 24533: u8 [a0 + 0x1c] = a5\n 24536: a5 = a4 >> 0x18\n 24539: u8 [a0 + 0x1b] = a5\n 24542: a5 = a4 >> 0x10\n 24545: u8 [a0 + 0x1a] = a5\n 24548: a5 = a4 >> 0x8\n 24551: u8 [a0 + 0x19] = a5\n 24554: u8 [a0 + 0x18] = a4\n 24557: u8 [a0 + 0x10] = a3\n 24560: a4 = a3 >> 0x38\n 24563: u8 [a0 + 0x17] = a4\n 24566: a4 = a3 >> 0x30\n 24569: u8 [a0 + 0x16] = a4\n 24572: a4 = a3 >> 0x28\n 24575: u8 [a0 + 0x15] = a4\n 24578: a4 = a3 >> 0x20\n 24581: u8 [a0 + 0x14] = a4\n 24584: a4 = a3 >> 0x18\n 24587: u8 [a0 + 0x13] = a4\n 24590: a4 = a3 >> 0x10\n 24593: u8 [a0 + 0x12] = a4\n 24596: a3 = a3 >> 0x8\n 24599: u8 [a0 + 0x11] = a3\n 24602: u8 [a0 + 0x8] = a2\n 24605: a3 = a2 >> 0x38\n 24608: u8 [a0 + 0xf] = a3\n 24611: a3 = a2 >> 0x30\n 24614: u8 [a0 + 0xe] = a3\n 24617: a3 = a2 >> 0x28\n 24620: u8 [a0 + 0xd] = a3\n 24623: a3 = a2 >> 0x20\n 24626: u8 [a0 + 0xc] = a3\n 24629: a3 = a2 >> 0x18\n 24632: u8 [a0 + 0xb] = a3\n 24635: a3 = a2 >> 0x10\n 24638: u8 [a0 + 0xa] = a3\n 24641: a2 = a2 >> 0x8\n 24644: u8 [a0 + 0x9] = a2\n 24647: u8 [a0] = a1\n 24649: a2 = a1 >> 0x38\n 24652: u8 [a0 + 0x7] = a2\n 24655: a2 = a1 >> 0x30\n 24658: u8 [a0 + 0x6] = a2\n 24661: a2 = a1 >> 0x28\n 24664: u8 [a0 + 0x5] = a2\n 24667: a2 = a1 >> 0x20\n 24670: u8 [a0 + 0x4] = a2\n 24673: a2 = a1 >> 0x18\n 24676: u8 [a0 + 0x3] = a2\n 24679: a2 = a1 >> 0x10\n 24682: u8 [a0 + 0x2] = a2\n 24685: a1 = a1 >> 0x8\n 24688: u8 [a0 + 0x1] = a1\n 24691: a1 = 0x40\n 24694: a0 = s1\n 24696: ra = 310, jump @0\n      : @362 [@dyn 155] (gas: 27)\n 24702: a1 = u64 [0x20000]\n 24707: a2 = u64 [0x20008]\n 24712: a3 = u64 [0x20010]\n 24717: a4 = u64 [0x20018]\n 24722: u64 [sp + 0x418] = a1\n 24726: u64 [sp + 0x410] = a2\n 24730: u64 [sp + 0x408] = a3\n 24734: u64 [sp + 0x400] = a4\n 24738: a1 = u64 [sp + 0x140]\n 24742: u64 [sp + 0x438] = a1\n 24746: a1 = u64 [sp + 0x148]\n 24750: u64 [sp + 0x430] = a1\n 24754: a1 = u64 [sp + 0x150]\n 24758: u64 [sp + 0x428] = a1\n 24762: a1 = u64 [sp + 0x158]\n 24766: u64 [sp + 0x420] = a1\n 24770: i32 a2 = a0 + 0\n 24772: i32 a0 = sp + 0x400\n 24776: a1 = 0x2\n 24779: a3 = 0x40\n 24782: ecalli 7 // 'deposit_event'\n 24784: sp = s0 + 0xfffffffffffffba0\n 24788: ra = u64 [sp + 0x458]\n 24792: s0 = u64 [sp + 0x450]\n 24796: s1 = u64 [sp + 0x448]\n 24800: sp = sp + 0x460\n 24804: ret\n      : @363 (gas: 3)\n 24806: a0 = 0x40\n 24809: a1 = 0x20\n 24812: ra = 312, jump @0\n      : @364 [@dyn 156] (gas: 103)\n 24818: a1 = u8 [a0 + 0x11]\n 24821: a2 = u8 [a0 + 0x10]\n 24824: a3 = u8 [a0 + 0x12]\n 24827: a4 = u8 [a0 + 0x13]\n 24830: a1 = a1 << 0x8\n 24833: a1 = a1 | a2\n 24836: a3 = a3 << 0x10\n 24839: a4 = a4 << 0x18\n 24842: a3 = a3 | a4\n 24845: a1 = a1 | a3\n 24848: a2 = u8 [a0 + 0x15]\n 24851: a3 = u8 [a0 + 0x14]\n 24854: a4 = u8 [a0 + 0x16]\n 24857: a5 = u8 [a0 + 0x17]\n 24860: a2 = a2 << 0x8\n 24863: a2 = a2 | a3\n 24866: a4 = a4 << 0x10\n 24869: a5 = a5 << 0x18\n 24872: a4 = a4 | a5\n 24875: a2 = a2 | a4\n 24878: a2 = a2 << 0x20\n 24881: t0 = a2 | a1\n 24884: a2 = u8 [a0 + 0x1]\n 24887: a3 = u8 [a0]\n 24889: a4 = u8 [a0 + 0x2]\n 24892: a5 = u8 [a0 + 0x3]\n 24895: a2 = a2 << 0x8\n 24898: a2 = a2 | a3\n 24901: a4 = a4 << 0x10\n 24904: a5 = a5 << 0x18\n 24907: a4 = a4 | a5\n 24910: a2 = a2 | a4\n 24913: a3 = u8 [a0 + 0x5]\n 24916: a4 = u8 [a0 + 0x4]\n 24919: a5 = u8 [a0 + 0x6]\n 24922: s1 = u8 [a0 + 0x7]\n 24925: a3 = a3 << 0x8\n 24928: a3 = a3 | a4\n 24931: a5 = a5 << 0x10\n 24934: s1 = s1 << 0x18\n 24937: a5 = a5 | s1\n 24940: a3 = a3 | a5\n 24943: a3 = a3 << 0x20\n 24946: a2 = a2 | a3\n 24949: a3 = u8 [a0 + 0x19]\n 24952: a4 = u8 [a0 + 0x18]\n 24955: a5 = u8 [a0 + 0x1a]\n 24958: s1 = u8 [a0 + 0x1b]\n 24961: a3 = a3 << 0x8\n 24964: a3 = a3 | a4\n 24967: a5 = a5 << 0x10\n 24970: s1 = s1 << 0x18\n 24973: a5 = a5 | s1\n 24976: a3 = a3 | a5\n 24979: a4 = u8 [a0 + 0x1d]\n 24982: a5 = u8 [a0 + 0x1c]\n 24985: s1 = u8 [a0 + 0x1e]\n 24988: a1 = u8 [a0 + 0x1f]\n 24991: a4 = a4 << 0x8\n 24994: a4 = a4 | a5\n 24997: s1 = s1 << 0x10\n 25000: a1 = a1 << 0x18\n 25003: a1 = a1 | s1\n 25006: a1 = a1 | a4\n 25009: a1 = a1 << 0x20\n 25012: a3 = a3 | a1\n 25015: a1 = u8 [a0 + 0x9]\n 25018: a4 = u8 [a0 + 0x8]\n 25021: a5 = u8 [a0 + 0xa]\n 25024: s1 = u8 [a0 + 0xb]\n 25027: a1 = a1 << 0x8\n 25030: a1 = a1 | a4\n 25033: a5 = a5 << 0x10\n 25036: s1 = s1 << 0x18\n 25039: a5 = a5 | s1\n 25042: a1 = a1 | a5\n 25045: a4 = u8 [a0 + 0xd]\n 25048: a5 = u8 [a0 + 0xc]\n 25051: s1 = u8 [a0 + 0xe]\n 25054: a0 = u8 [a0 + 0xf]\n 25057: a4 = a4 << 0x8\n 25060: a4 = a4 | a5\n 25063: s1 = s1 << 0x10\n 25066: a0 = a0 << 0x18\n 25069: a0 = a0 | s1\n 25072: a0 = a0 | a4\n 25075: a0 = a0 << 0x20\n 25078: a0 = a0 | a1\n 25081: s1 = reverse a0\n 25083: a1 = reverse a3\n 25085: a2 = reverse a2\n 25087: a0 = reverse t0\n 25089: u64 [sp + 0x178] = a0\n 25093: u64 [sp + 0x170] = a2\n 25097: a0 = a0 | a2\n 25100: a2 = a1\n 25102: a1 = a1 | s1\n 25105: a1 = a1 | a0\n 25108: a1 = a1 >> 0x20\n 25111: a0 = a0 | s1\n 25114: a0 = a0 << 0x20\n 25117: a0 = a0 | a1\n 25120: jump @380 if a0 != 0\n      : @365 (gas: 5)\n 25124: u64 [sp + 0x168] = a2\n 25128: i32 a0 = a2 + 0\n 25130: a1 = 0x20\n 25133: u64 [sp + 0x160] = a0\n 25137: ra = 314, jump @0\n      : @366 [@dyn 157] (gas: 50)\n 25143: u8 [a0 + 31] = 0\n 25146: u8 [a0 + 30] = 0\n 25149: u8 [a0 + 29] = 0\n 25152: u8 [a0 + 28] = 0\n 25155: u8 [a0 + 27] = 0\n 25158: u8 [a0 + 26] = 0\n 25161: u8 [a0 + 25] = 0\n 25164: u8 [a0 + 24] = 0\n 25167: u8 [a0 + 23] = 0\n 25170: u8 [a0 + 22] = 0\n 25173: u8 [a0 + 21] = 0\n 25176: u8 [a0 + 20] = 0\n 25179: u8 [a0 + 19] = 0\n 25182: u8 [a0 + 18] = 0\n 25185: u8 [a0 + 17] = 0\n 25188: u8 [a0 + 16] = 0\n 25191: u8 [a0 + 15] = 0\n 25194: u8 [a0 + 14] = 0\n 25197: u8 [a0 + 13] = 0\n 25200: u8 [a0 + 12] = 0\n 25203: u8 [a0 + 11] = 0\n 25206: u8 [a0 + 10] = 0\n 25209: u8 [a0 + 9] = 0\n 25212: u8 [a0 + 8] = 0\n 25215: u8 [a0 + 7] = 0\n 25218: u8 [a0 + 6] = 0\n 25221: u8 [a0 + 5] = 0\n 25224: u8 [a0 + 4] = 0\n 25227: u8 [a0 + 3] = 0xa0\n 25232: u8 [a0 + 2] = 0x79\n 25236: u8 [a0 + 1] = 0xc3\n 25241: u8 [a0 + 0] = 0x8\n 25244: a1 = u64 [sp + 0x168]\n 25248: a0 = a1 + 0x4\n 25251: a1 = a0 <u a1\n 25254: a3 = u64 [sp + 0x178]\n 25258: a2 = a3 + a1\n 25261: a3 = a2 <u a3\n 25264: a3 = a1 if a1 == 0\n 25267: a3 = a3 + s1\n 25270: a1 = a3 <u s1\n 25273: a4 = u64 [sp + 0x170]\n 25277: a4 = a4 + a1\n 25280: u64 [sp + 0x188] = a2\n 25284: u64 [sp + 0x180] = a0\n 25288: u64 [sp + 0x190] = a3\n 25292: a0 = sp + 0x1a0\n 25296: a1 = sp + 0x180\n 25300: u64 [sp + 0x198] = a4\n 25304: ra = 316, jump @272\n      : @367 [@dyn 158] (gas: 5)\n 25310: a0 = u64 [sp + 0x1a8]\n 25314: t0 = u64 [sp + 0x1b8]\n 25318: t1 = u64 [sp + 0x1a0]\n 25322: a3 = u64 [sp + 0x1b0]\n 25326: jump @379\n      : @368 (gas: 1)\n 25329: ra = 318, jump @282\n      : @369 [@dyn 159] (gas: 3)\n 25335: a0 = 0x40\n 25338: a1 = 0x20\n 25341: ra = 320, jump @0\n      : @370 [@dyn 160] (gas: 103)\n 25347: a1 = u8 [a0 + 0x11]\n 25350: a2 = u8 [a0 + 0x10]\n 25353: a3 = u8 [a0 + 0x12]\n 25356: a4 = u8 [a0 + 0x13]\n 25359: a1 = a1 << 0x8\n 25362: a1 = a1 | a2\n 25365: a3 = a3 << 0x10\n 25368: a4 = a4 << 0x18\n 25371: a3 = a3 | a4\n 25374: a1 = a1 | a3\n 25377: a2 = u8 [a0 + 0x15]\n 25380: a3 = u8 [a0 + 0x14]\n 25383: a4 = u8 [a0 + 0x16]\n 25386: a5 = u8 [a0 + 0x17]\n 25389: a2 = a2 << 0x8\n 25392: a2 = a2 | a3\n 25395: a4 = a4 << 0x10\n 25398: a5 = a5 << 0x18\n 25401: a4 = a4 | a5\n 25404: a2 = a2 | a4\n 25407: a2 = a2 << 0x20\n 25410: t0 = a2 | a1\n 25413: a2 = u8 [a0 + 0x1]\n 25416: a3 = u8 [a0]\n 25418: a4 = u8 [a0 + 0x2]\n 25421: a5 = u8 [a0 + 0x3]\n 25424: a2 = a2 << 0x8\n 25427: a2 = a2 | a3\n 25430: a4 = a4 << 0x10\n 25433: a5 = a5 << 0x18\n 25436: a4 = a4 | a5\n 25439: a2 = a2 | a4\n 25442: a3 = u8 [a0 + 0x5]\n 25445: a4 = u8 [a0 + 0x4]\n 25448: a5 = u8 [a0 + 0x6]\n 25451: s1 = u8 [a0 + 0x7]\n 25454: a3 = a3 << 0x8\n 25457: a3 = a3 | a4\n 25460: a5 = a5 << 0x10\n 25463: s1 = s1 << 0x18\n 25466: a5 = a5 | s1\n 25469: a3 = a3 | a5\n 25472: a3 = a3 << 0x20\n 25475: a2 = a2 | a3\n 25478: a3 = u8 [a0 + 0x19]\n 25481: a4 = u8 [a0 + 0x18]\n 25484: a5 = u8 [a0 + 0x1a]\n 25487: s1 = u8 [a0 + 0x1b]\n 25490: a3 = a3 << 0x8\n 25493: a3 = a3 | a4\n 25496: a5 = a5 << 0x10\n 25499: s1 = s1 << 0x18\n 25502: a5 = a5 | s1\n 25505: a3 = a3 | a5\n 25508: a4 = u8 [a0 + 0x1d]\n 25511: a5 = u8 [a0 + 0x1c]\n 25514: s1 = u8 [a0 + 0x1e]\n 25517: a1 = u8 [a0 + 0x1f]\n 25520: a4 = a4 << 0x8\n 25523: a4 = a4 | a5\n 25526: s1 = s1 << 0x10\n 25529: a1 = a1 << 0x18\n 25532: a1 = a1 | s1\n 25535: a1 = a1 | a4\n 25538: a1 = a1 << 0x20\n 25541: a3 = a3 | a1\n 25544: a1 = u8 [a0 + 0x9]\n 25547: a4 = u8 [a0 + 0x8]\n 25550: a5 = u8 [a0 + 0xa]\n 25553: s1 = u8 [a0 + 0xb]\n 25556: a1 = a1 << 0x8\n 25559: a1 = a1 | a4\n 25562: a5 = a5 << 0x10\n 25565: s1 = s1 << 0x18\n 25568: a5 = a5 | s1\n 25571: a1 = a1 | a5\n 25574: a4 = u8 [a0 + 0xd]\n 25577: a5 = u8 [a0 + 0xc]\n 25580: s1 = u8 [a0 + 0xe]\n 25583: a0 = u8 [a0 + 0xf]\n 25586: a4 = a4 << 0x8\n 25589: a4 = a4 | a5\n 25592: s1 = s1 << 0x10\n 25595: a0 = a0 << 0x18\n 25598: a0 = a0 | s1\n 25601: a0 = a0 | a4\n 25604: a0 = a0 << 0x20\n 25607: a0 = a0 | a1\n 25610: s1 = reverse a0\n 25612: a1 = reverse a3\n 25614: a2 = reverse a2\n 25616: a0 = reverse t0\n 25618: u64 [sp + 0x178] = a0\n 25622: u64 [sp + 0x170] = a2\n 25626: a0 = a0 | a2\n 25629: a2 = a1\n 25631: a1 = a1 | s1\n 25634: a1 = a1 | a0\n 25637: a1 = a1 >> 0x20\n 25640: a0 = a0 | s1\n 25643: a0 = a0 << 0x20\n 25646: a0 = a0 | a1\n 25649: jump @380 if a0 != 0\n      : @371 (gas: 5)\n 25653: u64 [sp + 0x168] = a2\n 25657: i32 a0 = a2 + 0\n 25659: a1 = 0x20\n 25662: u64 [sp + 0x160] = a0\n 25666: ra = 322, jump @0\n      : @372 [@dyn 161] (gas: 50)\n 25672: u8 [a0 + 31] = 0\n 25675: u8 [a0 + 30] = 0\n 25678: u8 [a0 + 29] = 0\n 25681: u8 [a0 + 28] = 0\n 25684: u8 [a0 + 27] = 0\n 25687: u8 [a0 + 26] = 0\n 25690: u8 [a0 + 25] = 0\n 25693: u8 [a0 + 24] = 0\n 25696: u8 [a0 + 23] = 0\n 25699: u8 [a0 + 22] = 0\n 25702: u8 [a0 + 21] = 0\n 25705: u8 [a0 + 20] = 0\n 25708: u8 [a0 + 19] = 0\n 25711: u8 [a0 + 18] = 0\n 25714: u8 [a0 + 17] = 0\n 25717: u8 [a0 + 16] = 0\n 25720: u8 [a0 + 15] = 0\n 25723: u8 [a0 + 14] = 0\n 25726: u8 [a0 + 13] = 0\n 25729: u8 [a0 + 12] = 0\n 25732: u8 [a0 + 11] = 0\n 25735: u8 [a0 + 10] = 0\n 25738: u8 [a0 + 9] = 0\n 25741: u8 [a0 + 8] = 0\n 25744: u8 [a0 + 7] = 0\n 25747: u8 [a0 + 6] = 0\n 25750: u8 [a0 + 5] = 0\n 25753: u8 [a0 + 4] = 0\n 25756: u8 [a0 + 3] = 0xa0\n 25761: u8 [a0 + 2] = 0x79\n 25765: u8 [a0 + 1] = 0xc3\n 25770: u8 [a0 + 0] = 0x8\n 25773: a1 = u64 [sp + 0x168]\n 25777: a0 = a1 + 0x4\n 25780: a1 = a0 <u a1\n 25783: a3 = u64 [sp + 0x178]\n 25787: a2 = a3 + a1\n 25790: a3 = a2 <u a3\n 25793: a3 = a1 if a1 == 0\n 25796: a3 = a3 + s1\n 25799: a1 = a3 <u s1\n 25802: a4 = u64 [sp + 0x170]\n 25806: a4 = a4 + a1\n 25809: u64 [sp + 0x2c8] = a2\n 25813: u64 [sp + 0x2c0] = a0\n 25817: u64 [sp + 0x2d0] = a3\n 25821: a0 = sp + 0x2e0\n 25825: a1 = sp + 0x2c0\n 25829: u64 [sp + 0x2d8] = a4\n 25833: ra = 324, jump @298\n      : @373 [@dyn 162] (gas: 5)\n 25839: a0 = u64 [sp + 0x2e8]\n 25843: t0 = u64 [sp + 0x2f8]\n 25847: t1 = u64 [sp + 0x2e0]\n 25851: a3 = u64 [sp + 0x2f0]\n 25855: jump @379\n      : @374 (gas: 3)\n 25858: a0 = 0x40\n 25861: a1 = 0x20\n 25864: ra = 326, jump @0\n      : @375 [@dyn 163] (gas: 103)\n 25870: a1 = u8 [a0 + 0x11]\n 25873: a2 = u8 [a0 + 0x10]\n 25876: a3 = u8 [a0 + 0x12]\n 25879: a4 = u8 [a0 + 0x13]\n 25882: a1 = a1 << 0x8\n 25885: a1 = a1 | a2\n 25888: a3 = a3 << 0x10\n 25891: a4 = a4 << 0x18\n 25894: a3 = a3 | a4\n 25897: a1 = a1 | a3\n 25900: a2 = u8 [a0 + 0x15]\n 25903: a3 = u8 [a0 + 0x14]\n 25906: a4 = u8 [a0 + 0x16]\n 25909: a5 = u8 [a0 + 0x17]\n 25912: a2 = a2 << 0x8\n 25915: a2 = a2 | a3\n 25918: a4 = a4 << 0x10\n 25921: a5 = a5 << 0x18\n 25924: a4 = a4 | a5\n 25927: a2 = a2 | a4\n 25930: a2 = a2 << 0x20\n 25933: t0 = a2 | a1\n 25936: a2 = u8 [a0 + 0x1]\n 25939: a3 = u8 [a0]\n 25941: a4 = u8 [a0 + 0x2]\n 25944: a5 = u8 [a0 + 0x3]\n 25947: a2 = a2 << 0x8\n 25950: a2 = a2 | a3\n 25953: a4 = a4 << 0x10\n 25956: a5 = a5 << 0x18\n 25959: a4 = a4 | a5\n 25962: a2 = a2 | a4\n 25965: a3 = u8 [a0 + 0x5]\n 25968: a4 = u8 [a0 + 0x4]\n 25971: a5 = u8 [a0 + 0x6]\n 25974: s1 = u8 [a0 + 0x7]\n 25977: a3 = a3 << 0x8\n 25980: a3 = a3 | a4\n 25983: a5 = a5 << 0x10\n 25986: s1 = s1 << 0x18\n 25989: a5 = a5 | s1\n 25992: a3 = a3 | a5\n 25995: a3 = a3 << 0x20\n 25998: a2 = a2 | a3\n 26001: a3 = u8 [a0 + 0x19]\n 26004: a4 = u8 [a0 + 0x18]\n 26007: a5 = u8 [a0 + 0x1a]\n 26010: s1 = u8 [a0 + 0x1b]\n 26013: a3 = a3 << 0x8\n 26016: a3 = a3 | a4\n 26019: a5 = a5 << 0x10\n 26022: s1 = s1 << 0x18\n 26025: a5 = a5 | s1\n 26028: a3 = a3 | a5\n 26031: a4 = u8 [a0 + 0x1d]\n 26034: a5 = u8 [a0 + 0x1c]\n 26037: s1 = u8 [a0 + 0x1e]\n 26040: a1 = u8 [a0 + 0x1f]\n 26043: a4 = a4 << 0x8\n 26046: a4 = a4 | a5\n 26049: s1 = s1 << 0x10\n 26052: a1 = a1 << 0x18\n 26055: a1 = a1 | s1\n 26058: a1 = a1 | a4\n 26061: a1 = a1 << 0x20\n 26064: a3 = a3 | a1\n 26067: a1 = u8 [a0 + 0x9]\n 26070: a4 = u8 [a0 + 0x8]\n 26073: a5 = u8 [a0 + 0xa]\n 26076: s1 = u8 [a0 + 0xb]\n 26079: a1 = a1 << 0x8\n 26082: a1 = a1 | a4\n 26085: a5 = a5 << 0x10\n 26088: s1 = s1 << 0x18\n 26091: a5 = a5 | s1\n 26094: a1 = a1 | a5\n 26097: a4 = u8 [a0 + 0xd]\n 26100: a5 = u8 [a0 + 0xc]\n 26103: s1 = u8 [a0 + 0xe]\n 26106: a0 = u8 [a0 + 0xf]\n 26109: a4 = a4 << 0x8\n 26112: a4 = a4 | a5\n 26115: s1 = s1 << 0x10\n 26118: a0 = a0 << 0x18\n 26121: a0 = a0 | s1\n 26124: a0 = a0 | a4\n 26127: a0 = a0 << 0x20\n 26130: a0 = a0 | a1\n 26133: s1 = reverse a0\n 26135: a1 = reverse a3\n 26137: a2 = reverse a2\n 26139: a0 = reverse t0\n 26141: u64 [sp + 0x178] = a0\n 26145: u64 [sp + 0x170] = a2\n 26149: a0 = a0 | a2\n 26152: a2 = a1\n 26154: a1 = a1 | s1\n 26157: a1 = a1 | a0\n 26160: a1 = a1 >> 0x20\n 26163: a0 = a0 | s1\n 26166: a0 = a0 << 0x20\n 26169: a0 = a0 | a1\n 26172: jump @380 if a0 != 0\n      : @376 (gas: 5)\n 26176: u64 [sp + 0x168] = a2\n 26180: i32 a0 = a2 + 0\n 26182: a1 = 0x20\n 26185: u64 [sp + 0x160] = a0\n 26189: ra = 328, jump @0\n      : @377 [@dyn 164] (gas: 50)\n 26195: u8 [a0 + 31] = 0\n 26198: u8 [a0 + 30] = 0\n 26201: u8 [a0 + 29] = 0\n 26204: u8 [a0 + 28] = 0\n 26207: u8 [a0 + 27] = 0\n 26210: u8 [a0 + 26] = 0\n 26213: u8 [a0 + 25] = 0\n 26216: u8 [a0 + 24] = 0\n 26219: u8 [a0 + 23] = 0\n 26222: u8 [a0 + 22] = 0\n 26225: u8 [a0 + 21] = 0\n 26228: u8 [a0 + 20] = 0\n 26231: u8 [a0 + 19] = 0\n 26234: u8 [a0 + 18] = 0\n 26237: u8 [a0 + 17] = 0\n 26240: u8 [a0 + 16] = 0\n 26243: u8 [a0 + 15] = 0\n 26246: u8 [a0 + 14] = 0\n 26249: u8 [a0 + 13] = 0\n 26252: u8 [a0 + 12] = 0\n 26255: u8 [a0 + 11] = 0\n 26258: u8 [a0 + 10] = 0\n 26261: u8 [a0 + 9] = 0\n 26264: u8 [a0 + 8] = 0\n 26267: u8 [a0 + 7] = 0\n 26270: u8 [a0 + 6] = 0\n 26273: u8 [a0 + 5] = 0\n 26276: u8 [a0 + 4] = 0\n 26279: u8 [a0 + 3] = 0xa0\n 26284: u8 [a0 + 2] = 0x79\n 26288: u8 [a0 + 1] = 0xc3\n 26293: u8 [a0 + 0] = 0x8\n 26296: a1 = u64 [sp + 0x168]\n 26300: a0 = a1 + 0x4\n 26303: a1 = a0 <u a1\n 26306: a3 = u64 [sp + 0x178]\n 26310: a2 = a3 + a1\n 26313: a3 = a2 <u a3\n 26316: a3 = a1 if a1 == 0\n 26319: a3 = a3 + s1\n 26322: a1 = a3 <u s1\n 26325: a4 = u64 [sp + 0x170]\n 26329: a4 = a4 + a1\n 26332: u64 [sp + 0x208] = a2\n 26336: u64 [sp + 0x200] = a0\n 26340: u64 [sp + 0x210] = a3\n 26344: a0 = sp + 0x220\n 26348: a1 = sp + 0x200\n 26352: u64 [sp + 0x218] = a4\n 26356: ra = 330, jump @306\n      : @378 [@dyn 165] (gas: 5)\n 26362: a0 = u64 [sp + 0x228]\n 26366: t0 = u64 [sp + 0x238]\n 26370: t1 = u64 [sp + 0x220]\n 26374: a3 = u64 [sp + 0x230]\n 26378: fallthrough\n      : @379 (gas: 26)\n 26379: a1 = u64 [sp + 0x178]\n 26383: a4 = a0 ^ a1\n 26386: a5 = a0 <u a1\n 26389: t2 = a1\n 26391: a2 = u64 [sp + 0x168]\n 26395: a1 = t1 <u a2\n 26398: a5 = a1 if a4 == 0\n 26401: a4 = a3 - s1\n 26404: a3 = a3 <u s1\n 26407: s1 = u64 [sp + 0x170]\n 26411: s1 = t0 - s1\n 26414: s1 = s1 - a3\n 26417: a3 = a4 <u a5\n 26420: s1 = s1 - a3\n 26423: a4 = a4 - a5\n 26426: a0 = a0 - t2\n 26429: a1 = a0 - a1\n 26432: a0 = t1 - a2\n 26435: a1 = a1 | s1\n 26438: a2 = a0 | a4\n 26441: a2 = a2 | a1\n 26444: a1 = a1 | a4\n 26447: a2 = a2 >> 0x20\n 26450: a1 = a1 << 0x20\n 26453: a1 = a1 | a2\n 26456: jump @389 if a1 == 0\n      : @380 (gas: 1)\n 26460: trap\n      : @381 (gas: 3)\n 26461: a0 = 0\n 26463: a1 = 0\n 26465: ra = 332, jump @0\n      : @382 [@dyn 166] (gas: 5)\n 26471: i32 a1 = a0 + 0\n 26473: a0 = 0x1\n 26476: a2 = 0\n 26478: ecalli 14 // 'seal_return'\n 26480: fallthrough\n      : @383 (gas: 8)\n 26481: u64 [sp + 496] = 0\n 26485: u64 [sp + 488] = 0\n 26489: u64 [sp + 480] = 0\n 26493: a0 = 0x4e487b7100000000\n 26503: a1 = sp + 0x1e0\n 26507: u64 [sp + 0x1f8] = a0\n 26511: a0 = 0\n 26513: ra = 334, jump @8\n      : @384 [@dyn 167] (gas: 8)\n 26519: u64 [sp + 472] = 0\n 26523: u64 [sp + 464] = 0\n 26527: u64 [sp + 448] = 0x41\n 26532: a0 = 0x4\n 26535: a1 = sp + 0x1c0\n 26539: u64 [sp + 456] = 0\n 26543: ra = 0x152\n 26547: jump @8\n      : @385 (gas: 8)\n 26550: u64 [sp + 624] = 0\n 26554: u64 [sp + 616] = 0\n 26558: u64 [sp + 608] = 0\n 26562: a0 = 0x4e487b7100000000\n 26572: a1 = sp + 0x260\n 26576: u64 [sp + 0x278] = a0\n 26580: a0 = 0\n 26582: ra = 336, jump @8\n      : @386 [@dyn 168] (gas: 7)\n 26588: u64 [sp + 600] = 0\n 26592: u64 [sp + 592] = 0\n 26596: u64 [sp + 576] = 0x11\n 26601: a0 = 0x4\n 26604: a1 = sp + 0x240\n 26608: u64 [sp + 584] = 0\n 26612: ra = 338, jump @8\n      : @387 [@dyn 169] (gas: 3)\n 26618: a1 = 0x24\n 26621: a0 = 0\n 26623: ra = 340, jump @0\n      : @388 [@dyn 170] (gas: 5)\n 26629: i32 a1 = a0 + 0\n 26631: a0 = 0x1\n 26634: a2 = 0x24\n 26637: ecalli 14 // 'seal_return'\n 26639: fallthrough\n      : @389 (gas: 4)\n 26640: i32 s1 = a0 + 0\n 26642: a0 = u64 [sp + 0x160]\n 26646: a1 = s1\n 26648: ra = 342, jump @0\n      : @390 [@dyn 171] (gas: 6)\n 26654: i32 a1 = a0 + 0\n 26656: a0 = 0x1\n 26659: a2 = s1\n 26661: ra = 0x158\n 26665: ecalli 14 // 'seal_return'\n 26667: fallthrough\n      : @391 [@dyn 172] (gas: 5)\n 26668: u64 [a0 + 24] = 0\n 26671: u64 [a0 + 16] = 0\n 26674: u64 [a0 + 8] = 0\n 26677: u64 [a0 + 0] = 0\n 26679: ret\n      : @392 (gas: 17)\n 26681: sp = sp + 0xffffffffffffffa0\n 26684: u64 [sp + 0x58] = ra\n 26687: u64 [sp + 0x50] = s0\n 26690: u64 [sp + 0x48] = s1\n 26693: a3 = u64 [a1 + 0x18]\n 26696: a4 = u64 [a1 + 0x10]\n 26699: a5 = u64 [a1 + 0x8]\n 26702: s1 = u64 [a1]\n 26704: a1 = a5 | a3\n 26707: a2 = s1 | a4\n 26710: a2 = a2 | a1\n 26713: a2 = a2 >> 0x20\n 26716: a1 = a1 | a4\n 26719: a1 = a1 << 0x20\n 26722: a1 = a1 | a2\n 26725: u64 [sp + 0x28] = a0\n 26728: jump @399 if a1 != 0\n      : @393 (gas: 19)\n 26732: a0 = s1 + 0x20\n 26735: u64 [sp + 0x30] = a0\n 26738: a0 = a0 <u s1\n 26741: a1 = a5 + a0\n 26744: u64 [sp + 0x40] = a1\n 26747: u64 [sp + 0x8] = a5\n 26750: s0 = a1 <u a5\n 26753: s0 = a0 if a0 == 0\n 26756: s0 = s0 + a4\n 26759: u64 [sp + 0x10] = a4\n 26762: a0 = s0 <u a4\n 26765: u64 [sp + 0x18] = a3\n 26768: a0 = a0 + a3\n 26771: u64 [sp + 0x38] = a0\n 26774: u64 [sp] = s1\n 26776: i32 a0 = s1 + 0\n 26778: a1 = 0x20\n 26781: s1 = 0x20\n 26784: ra = 346, jump @0\n      : @394 [@dyn 173] (gas: 45)\n 26790: u8 [a0 + 0x1f] = s1\n 26793: a1 = u64 [sp + 0x30]\n 26796: s1 = a1\n 26798: a1 = a1 | s0\n 26801: a2 = u64 [sp + 0x40]\n 26804: a4 = u64 [sp + 0x38]\n 26807: a2 = a2 | a4\n 26810: a1 = a1 | a2\n 26813: a1 = a1 >> 0x20\n 26816: u64 [sp + 0x20] = s0\n 26819: a2 = a2 | s0\n 26822: a2 = a2 << 0x20\n 26825: a1 = a1 | a2\n 26828: u8 [a0 + 30] = 0\n 26831: u8 [a0 + 29] = 0\n 26834: u8 [a0 + 28] = 0\n 26837: u8 [a0 + 27] = 0\n 26840: u8 [a0 + 26] = 0\n 26843: u8 [a0 + 25] = 0\n 26846: u8 [a0 + 24] = 0\n 26849: u8 [a0 + 23] = 0\n 26852: u8 [a0 + 22] = 0\n 26855: u8 [a0 + 21] = 0\n 26858: u8 [a0 + 20] = 0\n 26861: u8 [a0 + 19] = 0\n 26864: u8 [a0 + 18] = 0\n 26867: u8 [a0 + 17] = 0\n 26870: u8 [a0 + 16] = 0\n 26873: u8 [a0 + 15] = 0\n 26876: u8 [a0 + 14] = 0\n 26879: u8 [a0 + 13] = 0\n 26882: u8 [a0 + 12] = 0\n 26885: u8 [a0 + 11] = 0\n 26888: u8 [a0 + 10] = 0\n 26891: u8 [a0 + 9] = 0\n 26894: u8 [a0 + 8] = 0\n 26897: u8 [a0 + 7] = 0\n 26900: u8 [a0 + 6] = 0\n 26903: u8 [a0 + 5] = 0\n 26906: u8 [a0 + 4] = 0\n 26909: u8 [a0 + 3] = 0\n 26912: u8 [a0 + 2] = 0\n 26915: u8 [a0 + 1] = 0\n 26918: u8 [a0 + 0] = 0\n 26920: jump @399 if a1 != 0\n      : @395 (gas: 4)\n 26924: i32 s0 = s1 + 0\n 26926: a1 = 0x20\n 26929: a0 = s0\n 26931: ra = 348, jump @0\n      : @396 [@dyn 174] (gas: 41)\n 26937: u8 [a0 + 31] = 0x1d\n 26941: u8 [a0 + 30] = 0\n 26944: u8 [a0 + 29] = 0\n 26947: u8 [a0 + 28] = 0\n 26950: u8 [a0 + 27] = 0\n 26953: u8 [a0 + 26] = 0\n 26956: u8 [a0 + 25] = 0\n 26959: u8 [a0 + 24] = 0\n 26962: u8 [a0 + 23] = 0\n 26965: u8 [a0 + 22] = 0\n 26968: u8 [a0 + 21] = 0\n 26971: u8 [a0 + 20] = 0\n 26974: u8 [a0 + 19] = 0\n 26977: u8 [a0 + 18] = 0\n 26980: u8 [a0 + 17] = 0\n 26983: u8 [a0 + 16] = 0\n 26986: u8 [a0 + 15] = 0\n 26989: u8 [a0 + 14] = 0\n 26992: u8 [a0 + 13] = 0\n 26995: u8 [a0 + 12] = 0\n 26998: u8 [a0 + 11] = 0\n 27001: u8 [a0 + 10] = 0\n 27004: u8 [a0 + 9] = 0\n 27007: u8 [a0 + 8] = 0\n 27010: u8 [a0 + 7] = 0\n 27013: u8 [a0 + 6] = 0\n 27016: u8 [a0 + 5] = 0\n 27019: u8 [a0 + 4] = 0\n 27022: u8 [a0 + 3] = 0\n 27025: u8 [a0 + 2] = 0\n 27028: u8 [a0 + 1] = 0\n 27031: a1 = u64 [sp + 0x20]\n 27034: a2 = u64 [sp + 0x38]\n 27037: a1 = a1 | a2\n 27040: a2 = 0xffffffe0\n 27050: a2 = s1 <u a2\n 27053: a3 = u64 [sp + 0x40]\n 27056: a2 = 0 if a3 != 0\n 27058: a2 = 0 if a1 != 0\n 27060: u8 [a0 + 0] = 0\n 27062: jump @399 if a2 == 0\n      : @397 (gas: 3)\n 27066: i32 a0 = s0 + 0x20\n 27069: a1 = 0x20\n 27072: ra = 350, jump @0\n      : @398 [@dyn 175] (gas: 54)\n 27078: u8 [a0 + 26] = 0x70\n 27082: u8 [a0 + 21] = 0x62\n 27086: u8 [a0 + 24] = 0x65\n 27090: u8 [a0 + 22] = 0x65\n 27094: u8 [a0 + 12] = 0x65\n 27098: u8 [a0 + 25] = 0x6d\n 27102: u8 [a0 + 11] = 0x6d\n 27106: u8 [a0 + 17] = 0x6e\n 27110: u8 [a0 + 16] = 0x6e\n 27114: u8 [a0 + 9] = 0x6e\n 27118: u8 [a0 + 31] = 0\n 27121: u8 [a0 + 30] = 0\n 27124: u8 [a0 + 29] = 0\n 27127: u8 [a0 + 23] = 0x20\n 27131: u8 [a0 + 20] = 0x20\n 27135: u8 [a0 + 13] = 0x20\n 27139: u8 [a0 + 8] = 0x20\n 27143: u8 [a0 + 7] = 0x3a\n 27147: u8 [a0 + 28] = 0x79\n 27151: u8 [a0 + 6] = 0x79\n 27155: u8 [a0 + 5] = 0x72\n 27159: u8 [a0 + 18] = 0x6f\n 27163: u8 [a0 + 4] = 0x6f\n 27167: u8 [a0 + 27] = 0x74\n 27171: u8 [a0 + 19] = 0x74\n 27175: u8 [a0 + 3] = 0x74\n 27179: u8 [a0 + 14] = 0x63\n 27183: u8 [a0 + 2] = 0x63\n 27187: u8 [a0 + 15] = 0x61\n 27191: u8 [a0 + 10] = 0x61\n 27195: u8 [a0 + 1] = 0x61\n 27199: u8 [a0 + 0] = 0x46\n 27202: a1 = u64 [sp]\n 27204: a0 = a1 + 0x60\n 27207: a1 = a0 <u a1\n 27210: a3 = u64 [sp + 0x8]\n 27213: a2 = a3 + a1\n 27216: a3 = a2 <u a3\n 27219: a3 = a1 if a1 == 0\n 27222: a1 = u64 [sp + 0x10]\n 27225: a3 = a3 + a1\n 27228: a1 = a3 <u a1\n 27231: a4 = u64 [sp + 0x18]\n 27234: a1 = a1 + a4\n 27237: a4 = u64 [sp + 0x28]\n 27240: u64 [a4] = a0\n 27242: u64 [a4 + 0x8] = a2\n 27245: u64 [a4 + 0x10] = a3\n 27248: u64 [a4 + 0x18] = a1\n 27251: ra = u64 [sp + 0x58]\n 27254: s0 = u64 [sp + 0x50]\n 27257: s1 = u64 [sp + 0x48]\n 27260: sp = sp + 0x60\n 27263: ret\n      : @399 (gas: 1)\n 27265: trap\n      : @400 (gas: 17)\n 27266: sp = sp + 0xffffffffffffff98\n 27269: u64 [sp + 0x60] = ra\n 27272: u64 [sp + 0x58] = s0\n 27275: u64 [sp + 0x50] = s1\n 27278: a3 = u64 [a1 + 0x18]\n 27281: a4 = u64 [a1 + 0x10]\n 27284: a5 = u64 [a1 + 0x8]\n 27287: s1 = u64 [a1]\n 27289: a1 = a5 | a3\n 27292: a2 = s1 | a4\n 27295: a2 = a2 | a1\n 27298: a2 = a2 >> 0x20\n 27301: a1 = a1 | a4\n 27304: a1 = a1 << 0x20\n 27307: a1 = a1 | a2\n 27310: u64 [sp + 0x28] = a0\n 27313: jump @409 if a1 != 0\n      : @401 (gas: 19)\n 27317: a0 = s1 + 0x20\n 27320: u64 [sp + 0x40] = a0\n 27323: a0 = a0 <u s1\n 27326: a1 = a5 + a0\n 27329: u64 [sp + 0x48] = a1\n 27332: u64 [sp + 0x10] = a5\n 27335: s0 = a1 <u a5\n 27338: s0 = a0 if a0 == 0\n 27341: s0 = s0 + a4\n 27344: u64 [sp + 0x18] = a4\n 27347: a0 = s0 <u a4\n 27350: u64 [sp + 0x20] = a3\n 27353: a0 = a0 + a3\n 27356: u64 [sp + 0x38] = a0\n 27359: u64 [sp + 0x8] = s1\n 27362: i32 a0 = s1 + 0\n 27364: a1 = 0x20\n 27367: s1 = 0x20\n 27370: ra = 352, jump @0\n      : @402 [@dyn 176] (gas: 43)\n 27376: u8 [a0 + 0x1f] = s1\n 27379: a1 = u64 [sp + 0x40]\n 27382: a1 = a1 | s0\n 27385: a2 = u64 [sp + 0x48]\n 27388: a3 = u64 [sp + 0x38]\n 27391: a2 = a2 | a3\n 27394: a1 = a1 | a2\n 27397: a1 = a1 >> 0x20\n 27400: a2 = a2 | s0\n 27403: a2 = a2 << 0x20\n 27406: a1 = a1 | a2\n 27409: u8 [a0 + 30] = 0\n 27412: u8 [a0 + 29] = 0\n 27415: u8 [a0 + 28] = 0\n 27418: u8 [a0 + 27] = 0\n 27421: u8 [a0 + 26] = 0\n 27424: u8 [a0 + 25] = 0\n 27427: u8 [a0 + 24] = 0\n 27430: u8 [a0 + 23] = 0\n 27433: u8 [a0 + 22] = 0\n 27436: u8 [a0 + 21] = 0\n 27439: u8 [a0 + 20] = 0\n 27442: u8 [a0 + 19] = 0\n 27445: u8 [a0 + 18] = 0\n 27448: u8 [a0 + 17] = 0\n 27451: u8 [a0 + 16] = 0\n 27454: u8 [a0 + 15] = 0\n 27457: u8 [a0 + 14] = 0\n 27460: u8 [a0 + 13] = 0\n 27463: u8 [a0 + 12] = 0\n 27466: u8 [a0 + 11] = 0\n 27469: u8 [a0 + 10] = 0\n 27472: u8 [a0 + 9] = 0\n 27475: u8 [a0 + 8] = 0\n 27478: u8 [a0 + 7] = 0\n 27481: u8 [a0 + 6] = 0\n 27484: u8 [a0 + 5] = 0\n 27487: u8 [a0 + 4] = 0\n 27490: u8 [a0 + 3] = 0\n 27493: u8 [a0 + 2] = 0\n 27496: u8 [a0 + 1] = 0\n 27499: u8 [a0 + 0] = 0\n 27501: jump @409 if a1 != 0\n      : @403 (gas: 5)\n 27505: s1 = u64 [sp + 0x40]\n 27508: i32 a0 = s1 + 0\n 27510: a1 = 0x20\n 27513: u64 [sp + 0x30] = a0\n 27516: ra = 354, jump @0\n      : @404 [@dyn 177] (gas: 44)\n 27522: u8 [a0 + 31] = 0x2d\n 27526: u8 [a0 + 30] = 0\n 27529: u8 [a0 + 29] = 0\n 27532: u8 [a0 + 28] = 0\n 27535: u8 [a0 + 27] = 0\n 27538: u8 [a0 + 26] = 0\n 27541: u8 [a0 + 25] = 0\n 27544: u8 [a0 + 24] = 0\n 27547: u8 [a0 + 23] = 0\n 27550: u8 [a0 + 22] = 0\n 27553: u8 [a0 + 21] = 0\n 27556: u8 [a0 + 20] = 0\n 27559: u8 [a0 + 19] = 0\n 27562: u8 [a0 + 18] = 0\n 27565: u8 [a0 + 17] = 0\n 27568: u8 [a0 + 16] = 0\n 27571: u8 [a0 + 15] = 0\n 27574: u8 [a0 + 14] = 0\n 27577: u8 [a0 + 13] = 0\n 27580: u8 [a0 + 12] = 0\n 27583: u8 [a0 + 11] = 0\n 27586: u8 [a0 + 10] = 0\n 27589: u8 [a0 + 9] = 0\n 27592: u8 [a0 + 8] = 0\n 27595: u8 [a0 + 7] = 0\n 27598: u8 [a0 + 6] = 0\n 27601: u8 [a0 + 5] = 0\n 27604: u8 [a0 + 4] = 0\n 27607: u8 [a0 + 3] = 0\n 27610: u8 [a0 + 2] = 0\n 27613: u8 [a0 + 1] = 0\n 27616: a1 = u64 [sp + 0x38]\n 27619: a3 = s0 | a1\n 27622: s0 = 0x1\n 27625: a1 = 0x100000000\n 27635: u64 [sp] = a1\n 27637: a1 = 0xffffffe0\n 27647: a1 = s1 <u a1\n 27650: a2 = u64 [sp + 0x48]\n 27653: a1 = 0 if a2 != 0\n 27655: u64 [sp + 0x38] = a3\n 27658: a1 = 0 if a3 != 0\n 27660: u8 [a0 + 0] = 0\n 27662: jump @409 if a1 == 0\n      : @405 (gas: 4)\n 27666: a0 = u64 [sp + 0x30]\n 27669: i32 a0 = a0 + 0x20\n 27672: a1 = 0x20\n 27675: ra = 356, jump @0\n      : @406 [@dyn 178] (gas: 44)\n 27681: u8 [a0 + 31] = 0x61\n 27685: u8 [a0 + 29] = 0x6c\n 27689: u8 [a0 + 22] = 0x76\n 27693: u8 [a0 + 15] = 0x6d\n 27697: u8 [a0 + 12] = 0x6b\n 27701: u8 [a0 + 30] = 0x65\n 27705: u8 [a0 + 28] = 0x20\n 27709: u8 [a0 + 25] = 0x20\n 27713: u8 [a0 + 19] = 0x20\n 27717: u8 [a0 + 14] = 0x20\n 27721: u8 [a0 + 8] = 0x20\n 27725: u8 [a0 + 7] = 0x3a\n 27729: u8 [a0 + 6] = 0x79\n 27733: u8 [a0 + 20] = 0x63\n 27737: u8 [a0 + 2] = 0x63\n 27741: u8 [a0 + 27] = 0x74\n 27745: u8 [a0 + 26] = 0x61\n 27749: u8 [a0 + 11] = 0x61\n 27753: u8 [a0 + 1] = 0x61\n 27757: u8 [a0 + 0] = 0x46\n 27760: u8 [a0 + 24] = 0x72\n 27764: u8 [a0 + 23] = 0x65\n 27768: a1 = u64 [sp]\n 27770: a1 = a1 + 0xffffffffffffffc0\n 27773: a2 = u64 [sp + 0x40]\n 27776: a1 = a2 <u a1\n 27779: a5 = 0x6f\n 27782: u8 [a0 + 0x15] = a5\n 27785: u8 [a0 + 18] = 0x74\n 27789: a2 = u64 [sp + 0x48]\n 27792: a1 = 0 if a2 != 0\n 27794: a4 = 0x73\n 27797: u8 [a0 + 0x11] = a4\n 27800: a2 = u64 [sp + 0x38]\n 27803: a1 = 0 if a2 != 0\n 27805: u8 [a0 + 16] = 0x75\n 27809: u8 [a0 + 13] = 0x65\n 27813: u8 [a0 + 10] = 0x74\n 27817: u8 [a0 + 0x9] = a4\n 27820: u8 [a0 + 5] = 0x72\n 27824: s1 = 0x74\n 27827: u8 [a0 + 0x4] = a5\n 27830: u8 [a0 + 0x3] = s1\n 27833: jump @409 if a1 == 0\n      : @407 (gas: 5)\n 27837: a0 = u64 [sp + 0x30]\n 27840: i32 a0 = a0 + 0x40\n 27843: a1 = 0x20\n 27846: s0 = 0x20\n 27849: ra = 358, jump @0\n      : @408 [@dyn 179] (gas: 54)\n 27855: u8 [a0 + 12] = 0x64\n 27859: u8 [a0 + 10] = 0x75\n 27863: u8 [a0 + 9] = 0x66\n 27867: u8 [a0 + 7] = 0x72\n 27871: u8 [a0 + 8] = 0x65\n 27875: u8 [a0 + 5] = 0x65\n 27879: u8 [a0 + 11] = 0x6e\n 27883: u8 [a0 + 4] = 0x6e\n 27887: u8 [a0 + 3] = 0x6f\n 27891: u8 [a0 + 0x6] = s0\n 27894: u8 [a0 + 0x2] = s0\n 27897: u8 [a0 + 0x1] = s1\n 27900: u8 [a0 + 31] = 0\n 27903: u8 [a0 + 30] = 0\n 27906: u8 [a0 + 29] = 0\n 27909: u8 [a0 + 28] = 0\n 27912: u8 [a0 + 27] = 0\n 27915: u8 [a0 + 26] = 0\n 27918: u8 [a0 + 25] = 0\n 27921: u8 [a0 + 24] = 0\n 27924: u8 [a0 + 23] = 0\n 27927: u8 [a0 + 22] = 0\n 27930: u8 [a0 + 21] = 0\n 27933: u8 [a0 + 20] = 0\n 27936: u8 [a0 + 19] = 0\n 27939: u8 [a0 + 18] = 0\n 27942: u8 [a0 + 17] = 0\n 27945: u8 [a0 + 16] = 0\n 27948: u8 [a0 + 15] = 0\n 27951: u8 [a0 + 14] = 0\n 27954: u8 [a0 + 13] = 0\n 27957: u8 [a0 + 0] = 0x73\n 27960: a1 = u64 [sp + 0x8]\n 27963: a0 = a1 + 0x80\n 27967: a1 = a0 <u a1\n 27970: a3 = u64 [sp + 0x10]\n 27973: a2 = a3 + a1\n 27976: a3 = a2 <u a3\n 27979: a3 = a1 if a1 == 0\n 27982: a1 = u64 [sp + 0x18]\n 27985: a3 = a3 + a1\n 27988: a1 = a3 <u a1\n 27991: a4 = u64 [sp + 0x20]\n 27994: a1 = a1 + a4\n 27997: a4 = u64 [sp + 0x28]\n 28000: u64 [a4] = a0\n 28002: u64 [a4 + 0x8] = a2\n 28005: u64 [a4 + 0x10] = a3\n 28008: u64 [a4 + 0x18] = a1\n 28011: ra = u64 [sp + 0x60]\n 28014: s0 = u64 [sp + 0x58]\n 28017: s1 = u64 [sp + 0x50]\n 28020: sp = sp + 0x68\n 28023: ret\n      : @409 (gas: 1)\n 28025: trap\n      : @410 (gas: 18)\n 28026: sp = sp + 0xffffffffffffff60\n 28030: u64 [sp + 0x98] = ra\n 28034: u64 [sp + 0x90] = s0\n 28038: u64 [sp + 0x88] = s1\n 28042: s0 = sp + 0xa0\n 28046: sp = sp & 0xfffffffffffffff0\n 28049: a2 = u64 [a1 + 0x18]\n 28052: u64 [sp + 0x30] = a2\n 28055: a2 = u64 [a1 + 0x10]\n 28058: u64 [sp + 0x28] = a2\n 28061: a2 = u64 [a1 + 0x8]\n 28064: u64 [sp + 0x20] = a2\n 28067: a1 = u64 [a1]\n 28069: u64 [sp + 0x18] = a1\n 28072: u64 [sp + 0x38] = a0\n 28075: a0 = 0x40\n 28078: a1 = 0x20\n 28081: ra = 360, jump @0\n      : @411 [@dyn 180] (gas: 130)\n 28087: a1 = u8 [a0 + 0x19]\n 28090: a2 = u8 [a0 + 0x18]\n 28093: a3 = u8 [a0 + 0x1a]\n 28096: a4 = u8 [a0 + 0x1b]\n 28099: a1 = a1 << 0x8\n 28102: a1 = a1 | a2\n 28105: a3 = a3 << 0x10\n 28108: a4 = a4 << 0x18\n 28111: a3 = a3 | a4\n 28114: a1 = a1 | a3\n 28117: a2 = u8 [a0 + 0x1d]\n 28120: a3 = u8 [a0 + 0x1c]\n 28123: a4 = u8 [a0 + 0x1e]\n 28126: a5 = u8 [a0 + 0x1f]\n 28129: a2 = a2 << 0x8\n 28132: a2 = a2 | a3\n 28135: a4 = a4 << 0x10\n 28138: a5 = a5 << 0x18\n 28141: a4 = a4 | a5\n 28144: a2 = a2 | a4\n 28147: a2 = a2 << 0x20\n 28150: t0 = a2 | a1\n 28153: a2 = u8 [a0 + 0x11]\n 28156: a3 = u8 [a0 + 0x10]\n 28159: a4 = u8 [a0 + 0x12]\n 28162: a5 = u8 [a0 + 0x13]\n 28165: a2 = a2 << 0x8\n 28168: a2 = a2 | a3\n 28171: a4 = a4 << 0x10\n 28174: a5 = a5 << 0x18\n 28177: a4 = a4 | a5\n 28180: a2 = a2 | a4\n 28183: a3 = u8 [a0 + 0x15]\n 28186: a4 = u8 [a0 + 0x14]\n 28189: a5 = u8 [a0 + 0x16]\n 28192: s1 = u8 [a0 + 0x17]\n 28195: a3 = a3 << 0x8\n 28198: a3 = a3 | a4\n 28201: a5 = a5 << 0x10\n 28204: s1 = s1 << 0x18\n 28207: a5 = a5 | s1\n 28210: a3 = a3 | a5\n 28213: a3 = a3 << 0x20\n 28216: a2 = a2 | a3\n 28219: a3 = u8 [a0 + 0x9]\n 28222: a4 = u8 [a0 + 0x8]\n 28225: a5 = u8 [a0 + 0xa]\n 28228: s1 = u8 [a0 + 0xb]\n 28231: a3 = a3 << 0x8\n 28234: a3 = a3 | a4\n 28237: a5 = a5 << 0x10\n 28240: s1 = s1 << 0x18\n 28243: a5 = a5 | s1\n 28246: a3 = a3 | a5\n 28249: a4 = u8 [a0 + 0xd]\n 28252: a5 = u8 [a0 + 0xc]\n 28255: s1 = u8 [a0 + 0xe]\n 28258: a1 = u8 [a0 + 0xf]\n 28261: a4 = a4 << 0x8\n 28264: a4 = a4 | a5\n 28267: s1 = s1 << 0x10\n 28270: a1 = a1 << 0x18\n 28273: a1 = a1 | s1\n 28276: a1 = a1 | a4\n 28279: a1 = a1 << 0x20\n 28282: a3 = a3 | a1\n 28285: a1 = u8 [a0 + 0x1]\n 28288: a4 = u8 [a0]\n 28290: a5 = u8 [a0 + 0x2]\n 28293: s1 = u8 [a0 + 0x3]\n 28296: a1 = a1 << 0x8\n 28299: a1 = a1 | a4\n 28302: a5 = a5 << 0x10\n 28305: s1 = s1 << 0x18\n 28308: a5 = a5 | s1\n 28311: a1 = a1 | a5\n 28314: a4 = u8 [a0 + 0x5]\n 28317: a5 = u8 [a0 + 0x4]\n 28320: s1 = u8 [a0 + 0x6]\n 28323: a0 = u8 [a0 + 0x7]\n 28326: a4 = a4 << 0x8\n 28329: a4 = a4 | a5\n 28332: s1 = s1 << 0x10\n 28335: a0 = a0 << 0x18\n 28338: a0 = a0 | s1\n 28341: a0 = a0 | a4\n 28344: a0 = a0 << 0x20\n 28347: a0 = a0 | a1\n 28350: t1 = reverse a0\n 28352: t2 = reverse a3\n 28354: s1 = reverse a2\n 28356: a5 = reverse t0\n 28358: a1 = u64 [sp + 0x18]\n 28361: a0 = a1 + 0x1f\n 28364: a1 = a0 <u a1\n 28367: a3 = u64 [sp + 0x20]\n 28370: a2 = a3 + a1\n 28373: a3 = a2 <u a3\n 28376: a3 = a1 if a1 == 0\n 28379: a1 = u64 [sp + 0x28]\n 28382: a3 = a3 + a1\n 28385: a1 = a3 <u a1\n 28388: a4 = u64 [sp + 0x30]\n 28391: a1 = a1 + a4\n 28394: a0 = a0 & 0xffffffffffffffe0\n 28397: a0 = a0 + a5\n 28400: u64 [sp + 0x28] = a5\n 28403: u64 [sp + 0x10] = a0\n 28406: a4 = a0 <u a5\n 28409: a2 = a2 + s1\n 28412: a5 = a2 + a4\n 28415: a2 = a5 ^ s1\n 28418: u64 [sp + 0x30] = s1\n 28421: a0 = a5 <u s1\n 28424: a0 = a4 if a2 == 0\n 28427: a3 = a3 + t2\n 28430: a4 = a3 + a0\n 28433: s1 = a4 <u a3\n 28436: a2 = a3 <u t2\n 28439: a1 = a1 + t1\n 28442: a1 = a1 + a2\n 28445: s1 = s1 + a1\n 28448: a1 = a4 >u 0\n 28450: a2 = s1 >u 0\n 28452: a2 = a1 if s1 == 0\n 28455: a1 = a4 | s1\n 28458: u64 [sp + 0x8] = a5\n 28461: a3 = a5 >u 0\n 28463: a3 = a2 if a1 != 0\n 28466: jump @415 if a3 != 0\n      : @412 (gas: 8)\n 28470: a1 = a4 <u t2\n 28473: a2 = s1 ^ t1\n 28476: a3 = s1 <u t1\n 28479: a3 = a1 if a2 == 0\n 28482: a1 = a4 ^ t2\n 28485: a1 = a1 | a2\n 28488: a0 = a3 if a1 != 0\n 28491: jump @415 if a0 != 0\n      : @413 (gas: 6)\n 28495: a0 = 0x40\n 28498: a1 = 0x20\n 28501: u64 [sp + 0x20] = t2\n 28504: u64 [sp + 0x18] = t1\n 28507: u64 [sp] = a4\n 28509: ra = 362, jump @0\n      : @414 [@dyn 181] (gas: 82)\n 28515: a1 = reverse s1\n 28517: a2 = u64 [sp]\n 28519: a2 = reverse a2\n 28521: a3 = u64 [sp + 0x8]\n 28524: a3 = reverse a3\n 28526: a4 = u64 [sp + 0x10]\n 28529: a4 = reverse a4\n 28531: u8 [a0 + 0x18] = a4\n 28534: a5 = a4 >> 0x38\n 28537: u8 [a0 + 0x1f] = a5\n 28540: a5 = a4 >> 0x30\n 28543: u8 [a0 + 0x1e] = a5\n 28546: a5 = a4 >> 0x28\n 28549: u8 [a0 + 0x1d] = a5\n 28552: a5 = a4 >> 0x20\n 28555: u8 [a0 + 0x1c] = a5\n 28558: a5 = a4 >> 0x18\n 28561: u8 [a0 + 0x1b] = a5\n 28564: a5 = a4 >> 0x10\n 28567: u8 [a0 + 0x1a] = a5\n 28570: a4 = a4 >> 0x8\n 28573: u8 [a0 + 0x19] = a4\n 28576: u8 [a0 + 0x10] = a3\n 28579: a4 = a3 >> 0x38\n 28582: u8 [a0 + 0x17] = a4\n 28585: a4 = a3 >> 0x30\n 28588: u8 [a0 + 0x16] = a4\n 28591: a4 = a3 >> 0x28\n 28594: u8 [a0 + 0x15] = a4\n 28597: a4 = a3 >> 0x20\n 28600: u8 [a0 + 0x14] = a4\n 28603: a4 = a3 >> 0x18\n 28606: u8 [a0 + 0x13] = a4\n 28609: a4 = a3 >> 0x10\n 28612: u8 [a0 + 0x12] = a4\n 28615: a3 = a3 >> 0x8\n 28618: u8 [a0 + 0x11] = a3\n 28621: u8 [a0 + 0x8] = a2\n 28624: a3 = a2 >> 0x38\n 28627: u8 [a0 + 0xf] = a3\n 28630: a3 = a2 >> 0x30\n 28633: u8 [a0 + 0xe] = a3\n 28636: a3 = a2 >> 0x28\n 28639: u8 [a0 + 0xd] = a3\n 28642: a3 = a2 >> 0x20\n 28645: u8 [a0 + 0xc] = a3\n 28648: a3 = a2 >> 0x18\n 28651: u8 [a0 + 0xb] = a3\n 28654: a3 = a2 >> 0x10\n 28657: u8 [a0 + 0xa] = a3\n 28660: a2 = a2 >> 0x8\n 28663: u8 [a0 + 0x9] = a2\n 28666: u8 [a0] = a1\n 28668: a2 = a1 >> 0x38\n 28671: u8 [a0 + 0x7] = a2\n 28674: a2 = a1 >> 0x30\n 28677: u8 [a0 + 0x6] = a2\n 28680: a2 = a1 >> 0x28\n 28683: u8 [a0 + 0x5] = a2\n 28686: a2 = a1 >> 0x20\n 28689: u8 [a0 + 0x4] = a2\n 28692: a2 = a1 >> 0x18\n 28695: u8 [a0 + 0x3] = a2\n 28698: a2 = a1 >> 0x10\n 28701: u8 [a0 + 0x2] = a2\n 28704: a1 = a1 >> 0x8\n 28707: u8 [a0 + 0x1] = a1\n 28710: a0 = u64 [sp + 0x38]\n 28713: a1 = u64 [sp + 0x28]\n 28716: u64 [a0] = a1\n 28718: a1 = u64 [sp + 0x18]\n 28721: u64 [a0 + 0x18] = a1\n 28724: a1 = u64 [sp + 0x30]\n 28727: u64 [a0 + 0x8] = a1\n 28730: a1 = u64 [sp + 0x20]\n 28733: u64 [a0 + 0x10] = a1\n 28736: sp = s0 + 0xffffffffffffff60\n 28740: ra = u64 [sp + 0x98]\n 28744: s0 = u64 [sp + 0x90]\n 28748: s1 = u64 [sp + 0x88]\n 28752: sp = sp + 0xa0\n 28756: ret\n      : @415 (gas: 8)\n 28758: u64 [sp + 112] = 0\n 28761: u64 [sp + 104] = 0\n 28764: u64 [sp + 96] = 0\n 28767: a0 = 0x4e487b7100000000\n 28777: a1 = sp + 0x60\n 28780: u64 [sp + 0x78] = a0\n 28783: a0 = 0\n 28785: ra = 364, jump @8\n      : @416 [@dyn 182] (gas: 7)\n 28791: u64 [sp + 88] = 0\n 28794: u64 [sp + 80] = 0\n 28797: u64 [sp + 64] = 0x41\n 28801: a0 = 0x4\n 28804: a1 = sp + 0x40\n 28807: u64 [sp + 72] = 0\n 28810: ra = 366, jump @8\n      : @417 [@dyn 183] (gas: 3)\n 28816: a1 = 0x24\n 28819: a0 = 0\n 28821: ra = 368, jump @0\n      : @418 [@dyn 184] (gas: 6)\n 28827: i32 a1 = a0 + 0\n 28829: a0 = 0x1\n 28832: a2 = 0x24\n 28835: ra = 0x172\n 28839: ecalli 14 // 'seal_return'\n 28841: fallthrough\n      : @419 [@dyn 185] (gas: 7)\n 28842: a3 = u64 [a1 + 0x18]\n 28845: a4 = u64 [a1 + 0x10]\n 28848: a2 = u64 [a1 + 0x8]\n 28851: a3 = a3 | a4\n 28854: a4 = a2 <u 0x1\n 28857: a4 = 0 if a3 != 0\n 28859: jump @421 if a4 == 0\n      : @420 (gas: 16)\n 28862: a1 = u64 [a1]\n 28864: a3 = a1 + 0x1f\n 28867: a1 = a3 <u a1\n 28870: a1 = a1 + a2\n 28873: a1 = a1 & 0x1\n 28876: a3 = a3 & 0xffffffffffffffe0\n 28879: a2 = a3 + 0x20\n 28882: a3 = a2 <u a3\n 28885: a4 = a1 + a3\n 28888: a1 = a4 <u a1\n 28891: a1 = a3 if a3 == 0\n 28894: u64 [a0 + 24] = 0\n 28897: u64 [a0] = a2\n 28899: u64 [a0 + 0x8] = a4\n 28902: u64 [a0 + 0x10] = a1\n 28905: ret\n      : @421 (gas: 13)\n 28907: sp = sp + 0xffffffffffffffb0\n 28910: u64 [sp + 0x48] = ra\n 28913: u64 [sp + 0x40] = s0\n 28916: s0 = sp + 0x50\n 28919: sp = sp & 0xfffffffffffffff0\n 28922: u64 [sp + 48] = 0\n 28925: u64 [sp + 40] = 0\n 28928: u64 [sp + 32] = 0\n 28931: a0 = 0x4e487b7100000000\n 28941: a1 = sp + 0x20\n 28944: u64 [sp + 0x38] = a0\n 28947: a0 = 0\n 28949: ra = 372, jump @8\n      : @422 [@dyn 186] (gas: 7)\n 28955: u64 [sp + 24] = 0\n 28958: u64 [sp + 16] = 0\n 28961: u64 [sp + 0] = 0x41\n 28964: a0 = 0x4\n 28967: a1 = sp\n 28969: u64 [sp + 8] = 0\n 28972: ra = 374, jump @8\n      : @423 [@dyn 187] (gas: 3)\n 28978: a1 = 0x24\n 28981: a0 = 0\n 28983: ra = 376, jump @0\n      : @424 [@dyn 188] (gas: 6)\n 28989: i32 a1 = a0 + 0\n 28991: a0 = 0x1\n 28994: a2 = 0x24\n 28997: ra = 0x17a\n 29001: ecalli 14 // 'seal_return'\n 29003: fallthrough\n      : @425 [@dyn 189] (gas: 16)\n 29004: sp = sp + 0xffffffffffffffa8\n 29007: u64 [sp + 0x50] = ra\n 29010: u64 [sp + 0x48] = s0\n 29013: u64 [sp + 0x40] = s1\n 29016: a3 = u64 [a0 + 0x10]\n 29019: a4 = u64 [a0 + 0x18]\n 29022: a5 = u64 [a0 + 0x8]\n 29025: a0 = u64 [a0]\n 29027: a4 = a4 | a5\n 29030: a5 = a0 | a3\n 29033: a5 = a5 | a4\n 29036: a5 = a5 >> 0x20\n 29039: a3 = a3 | a4\n 29042: a3 = a3 << 0x20\n 29045: a3 = a3 | a5\n 29048: jump @433 if a3 != 0\n      : @426 (gas: 12)\n 29052: a4 = u64 [a2 + 0x18]\n 29055: a5 = u64 [a2 + 0x10]\n 29058: s0 = u64 [a2]\n 29060: s1 = u64 [a2 + 0x8]\n 29063: a2 = s0 | a5\n 29066: a3 = s1 | a4\n 29069: a2 = a2 | a3\n 29072: a2 = a2 >> 0x20\n 29075: a3 = a3 | a5\n 29078: a3 = a3 << 0x20\n 29081: a2 = a2 | a3\n 29084: jump @433 if a2 != 0\n      : @427 (gas: 18)\n 29088: u64 [sp + 0x28] = s1\n 29091: u64 [sp + 0x30] = a5\n 29094: u64 [sp + 0x38] = a4\n 29097: a2 = u64 [a1 + 0x18]\n 29100: a3 = u64 [a1 + 0x10]\n 29103: a5 = u64 [a1]\n 29105: a4 = u64 [a1 + 0x8]\n 29108: a1 = a5 | a3\n 29111: u64 [sp + 0x20] = a2\n 29114: u64 [sp + 0x10] = a4\n 29117: a2 = a2 | a4\n 29120: a1 = a1 | a2\n 29123: a1 = a1 >> 0x20\n 29126: u64 [sp + 0x18] = a3\n 29129: a2 = a2 | a3\n 29132: a2 = a2 << 0x20\n 29135: a1 = a1 | a2\n 29138: jump @433 if a1 != 0\n      : @428 (gas: 7)\n 29142: i32 a0 = a0 + 0\n 29144: u64 [sp + 0x8] = a0\n 29147: i32 a0 = a5 + 0\n 29149: i32 s1 = s0 + 0\n 29151: a1 = s1\n 29153: u64 [sp] = a5\n 29155: ra = 380, jump @0\n      : @429 [@dyn 190] (gas: 5)\n 29161: i32 a0 = a0 + 0\n 29163: a1 = s1\n 29165: a2 = u64 [sp + 0x8]\n 29168: ecalli 2 // 'call_data_copy'\n 29170: fallthrough\n      : @430 (gas: 29)\n 29171: a0 = u64 [sp]\n 29173: a0 = a0 + s0\n 29176: a1 = a0 <u s0\n 29179: a4 = u64 [sp + 0x28]\n 29182: a2 = u64 [sp + 0x10]\n 29185: a2 = a2 + a4\n 29188: a2 = a2 + a1\n 29191: a3 = a2 ^ a4\n 29194: a4 = a2 <u a4\n 29197: a4 = a1 if a3 == 0\n 29200: a5 = u64 [sp + 0x30]\n 29203: a1 = u64 [sp + 0x18]\n 29206: a1 = a1 + a5\n 29209: a4 = a4 + a1\n 29212: a3 = a4 <u a1\n 29215: a1 = a1 <u a5\n 29218: a5 = u64 [sp + 0x38]\n 29221: s1 = u64 [sp + 0x20]\n 29224: a5 = a5 + s1\n 29227: a1 = a1 + a5\n 29230: a1 = a1 + a3\n 29233: a3 = a0 | a4\n 29236: a1 = a1 | a2\n 29239: a3 = a3 | a1\n 29242: a3 = a3 >> 0x20\n 29245: a1 = a1 | a4\n 29248: a1 = a1 << 0x20\n 29251: a1 = a1 | a3\n 29254: jump @433 if a1 != 0\n      : @431 (gas: 3)\n 29257: i32 a0 = a0 + 0\n 29259: a1 = 0x20\n 29262: ra = 382, jump @0\n      : @432 [@dyn 191] (gas: 37)\n 29268: u8 [a0 + 31] = 0\n 29271: u8 [a0 + 30] = 0\n 29274: u8 [a0 + 29] = 0\n 29277: u8 [a0 + 28] = 0\n 29280: u8 [a0 + 27] = 0\n 29283: u8 [a0 + 26] = 0\n 29286: u8 [a0 + 25] = 0\n 29289: u8 [a0 + 24] = 0\n 29292: u8 [a0 + 23] = 0\n 29295: u8 [a0 + 22] = 0\n 29298: u8 [a0 + 21] = 0\n 29301: u8 [a0 + 20] = 0\n 29304: u8 [a0 + 19] = 0\n 29307: u8 [a0 + 18] = 0\n 29310: u8 [a0 + 17] = 0\n 29313: u8 [a0 + 16] = 0\n 29316: u8 [a0 + 15] = 0\n 29319: u8 [a0 + 14] = 0\n 29322: u8 [a0 + 13] = 0\n 29325: u8 [a0 + 12] = 0\n 29328: u8 [a0 + 11] = 0\n 29331: u8 [a0 + 10] = 0\n 29334: u8 [a0 + 9] = 0\n 29337: u8 [a0 + 8] = 0\n 29340: u8 [a0 + 7] = 0\n 29343: u8 [a0 + 6] = 0\n 29346: u8 [a0 + 5] = 0\n 29349: u8 [a0 + 4] = 0\n 29352: u8 [a0 + 3] = 0\n 29355: u8 [a0 + 2] = 0\n 29358: u8 [a0 + 1] = 0\n 29361: u8 [a0 + 0] = 0\n 29363: ra = u64 [sp + 0x50]\n 29366: s0 = u64 [sp + 0x48]\n 29369: s1 = u64 [sp + 0x40]\n 29372: sp = sp + 0x58\n 29375: ret\n      : @433 (gas: 1)\n 29377: trap\n      : @434 (gas: 16)\n 29378: sp = sp + 0xfffffffffffffee0\n 29382: u64 [sp + 0x118] = ra\n 29386: u64 [sp + 0x110] = s0\n 29390: u64 [sp + 0x108] = s1\n 29394: s0 = sp + 0x120\n 29398: sp = sp & 0xfffffffffffffff0\n 29401: a4 = u64 [a2 + 0x18]\n 29404: a5 = u64 [a2 + 0x10]\n 29407: s1 = u64 [a2 + 0x8]\n 29410: u64 [sp + 0x50] = a4\n 29413: u64 [sp + 0x48] = a5\n 29416: a4 = a4 | a5\n 29419: a5 = s1 <u 0x1\n 29422: a5 = 0 if a4 != 0\n 29424: u64 [sp] = a0\n 29426: jump @448 if a5 == 0\n      : @435 (gas: 35)\n 29430: a0 = u64 [a3 + 0x18]\n 29433: u64 [sp + 0x18] = a0\n 29436: a0 = u64 [a3 + 0x10]\n 29439: u64 [sp + 0x20] = a0\n 29442: a0 = u64 [a3 + 0x8]\n 29445: u64 [sp + 0x8] = a0\n 29448: a0 = u64 [a3]\n 29450: u64 [sp + 0x10] = a0\n 29453: a2 = u64 [a2]\n 29455: a0 = u64 [a1 + 0x18]\n 29458: u64 [sp + 0x70] = a0\n 29461: a0 = u64 [a1 + 0x10]\n 29464: u64 [sp + 0x78] = a0\n 29467: a0 = u64 [a1 + 0x8]\n 29470: u64 [sp + 0x68] = a0\n 29473: a0 = u64 [a1]\n 29475: u64 [sp + 0x60] = a0\n 29478: a0 = a2 + 0x1f\n 29481: u64 [sp + 0x40] = a2\n 29484: a1 = a0 <u a2\n 29487: a1 = a1 + s1\n 29490: a1 = a1 & 0x1\n 29493: a0 = a0 & 0xffffffffffffffe0\n 29496: a2 = a0 + 0x20\n 29499: a0 = a2 <u a0\n 29502: a3 = a1 + a0\n 29505: a4 = a3 <u a1\n 29508: a4 = a0 if a0 == 0\n 29511: u64 [sp + 216] = 0\n 29515: u64 [sp + 0xc0] = a2\n 29519: u64 [sp + 0xc8] = a3\n 29523: a0 = sp + 0xe0\n 29527: a1 = sp + 0xc0\n 29531: u64 [sp + 0xd0] = a4\n 29535: ra = 384, jump @410\n      : @436 [@dyn 192] (gas: 15)\n 29541: a0 = u64 [sp + 0xf8]\n 29545: a2 = u64 [sp + 0xf0]\n 29549: a1 = u64 [sp + 0xe8]\n 29553: a3 = u64 [sp + 0xe0]\n 29557: u64 [sp + 0x58] = a0\n 29560: u64 [sp + 0x30] = a1\n 29563: a0 = a0 | a1\n 29566: a1 = a3 | a2\n 29569: a1 = a1 | a0\n 29572: a1 = a1 >> 0x20\n 29575: u64 [sp + 0x38] = a2\n 29578: a0 = a0 | a2\n 29581: a0 = a0 << 0x20\n 29584: a0 = a0 | a1\n 29587: jump @447 if a0 != 0\n      : @437 (gas: 4)\n 29591: u64 [sp + 0x28] = a3\n 29594: i32 a0 = a3 + 0\n 29596: a1 = 0x20\n 29599: ra = 386, jump @0\n      : @438 [@dyn 193] (gas: 102)\n 29605: t2 = u64 [sp + 0x40]\n 29608: a1 = u64 [sp + 0x60]\n 29611: a1 = a1 + t2\n 29614: a3 = a1 <u t2\n 29617: a2 = u64 [sp + 0x68]\n 29620: a2 = a2 + s1\n 29623: a4 = a2 + a3\n 29626: a5 = a4 ^ s1\n 29629: a2 = a4 <u s1\n 29632: a2 = a3 if a5 == 0\n 29635: a5 = u64 [sp + 0x8]\n 29638: a3 = a4 ^ a5\n 29641: a4 = a5 <u a4\n 29644: a5 = u64 [sp + 0x10]\n 29647: a1 = a5 <u a1\n 29650: ra = u64 [sp + 0x48]\n 29653: a5 = u64 [sp + 0x78]\n 29656: a5 = a5 + ra\n 29659: a1 = a4 if a3 != 0\n 29662: a3 = a5 <u ra\n 29665: t1 = u64 [sp + 0x50]\n 29668: a4 = u64 [sp + 0x70]\n 29671: a4 = a4 + t1\n 29674: a3 = a3 + a4\n 29677: a2 = a2 + a5\n 29680: a4 = a2 <u a5\n 29683: a3 = a3 + a4\n 29686: a5 = u64 [sp + 0x18]\n 29689: a4 = a3 ^ a5\n 29692: a3 = a5 <u a3\n 29695: t0 = u64 [sp + 0x20]\n 29698: a5 = t0 <u a2\n 29701: a3 = a5 if a4 == 0\n 29704: a2 = a2 ^ t0\n 29707: a2 = a2 | a4\n 29710: a1 = a3 if a2 != 0\n 29713: a2 = reverse t2\n 29715: a3 = a2 >> 0x38\n 29718: u8 [a0 + 0x1f] = a3\n 29721: a3 = a2 >> 0x30\n 29724: u8 [a0 + 0x1e] = a3\n 29727: a3 = a2 >> 0x28\n 29730: u8 [a0 + 0x1d] = a3\n 29733: a3 = a2 >> 0x20\n 29736: u8 [a0 + 0x1c] = a3\n 29739: a3 = a2 >> 0x18\n 29742: u8 [a0 + 0x1b] = a3\n 29745: a3 = a2 >> 0x10\n 29748: u8 [a0 + 0x1a] = a3\n 29751: a3 = a2 >> 0x8\n 29754: u8 [a0 + 0x19] = a3\n 29757: a3 = reverse s1\n 29759: u8 [a0 + 0x18] = a2\n 29762: a2 = a3 >> 0x38\n 29765: u8 [a0 + 0x17] = a2\n 29768: a2 = a3 >> 0x30\n 29771: u8 [a0 + 0x16] = a2\n 29774: a2 = a3 >> 0x28\n 29777: u8 [a0 + 0x15] = a2\n 29780: a2 = a3 >> 0x20\n 29783: u8 [a0 + 0x14] = a2\n 29786: a2 = a3 >> 0x18\n 29789: u8 [a0 + 0x13] = a2\n 29792: a2 = a3 >> 0x10\n 29795: u8 [a0 + 0x12] = a2\n 29798: a2 = reverse ra\n 29800: u8 [a0 + 0x10] = a3\n 29803: a3 = a3 >> 0x8\n 29806: u8 [a0 + 0x11] = a3\n 29809: a3 = a2 >> 0x38\n 29812: u8 [a0 + 0xf] = a3\n 29815: a3 = a2 >> 0x30\n 29818: u8 [a0 + 0xe] = a3\n 29821: a3 = a2 >> 0x28\n 29824: u8 [a0 + 0xd] = a3\n 29827: a3 = a2 >> 0x20\n 29830: u8 [a0 + 0xc] = a3\n 29833: a3 = a2 >> 0x18\n 29836: u8 [a0 + 0xb] = a3\n 29839: a3 = a2 >> 0x10\n 29842: u8 [a0 + 0xa] = a3\n 29845: a3 = reverse t1\n 29847: u8 [a0 + 0x8] = a2\n 29850: a2 = a2 >> 0x8\n 29853: u8 [a0 + 0x9] = a2\n 29856: a2 = a3 >> 0x38\n 29859: u8 [a0 + 0x7] = a2\n 29862: a2 = a3 >> 0x30\n 29865: u8 [a0 + 0x6] = a2\n 29868: a2 = a3 >> 0x28\n 29871: u8 [a0 + 0x5] = a2\n 29874: a2 = a3 >> 0x20\n 29877: u8 [a0 + 0x4] = a2\n 29880: a2 = a3 >> 0x18\n 29883: u8 [a0 + 0x3] = a2\n 29886: a2 = a3 >> 0x10\n 29889: u8 [a0 + 0x2] = a2\n 29892: u8 [a0] = a3\n 29894: a3 = a3 >> 0x8\n 29897: u8 [a0 + 0x1] = a3\n 29900: t0 = u64 [sp + 0x60]\n 29903: jump @452 if a1 != 0\n      : @439 (gas: 12)\n 29907: a2 = u64 [sp + 0x78]\n 29910: a0 = t0 | a2\n 29913: a1 = u64 [sp + 0x70]\n 29916: a3 = u64 [sp + 0x68]\n 29919: a1 = a1 | a3\n 29922: a0 = a0 | a1\n 29925: a0 = a0 >> 0x20\n 29928: a1 = a1 | a2\n 29931: a1 = a1 << 0x20\n 29934: a0 = a0 | a1\n 29937: a3 = u64 [sp + 0x58]\n 29940: jump @447 if a0 != 0\n      : @440 (gas: 11)\n 29944: a0 = t2 | ra\n 29947: a1 = s1 | t1\n 29950: a0 = a0 | a1\n 29953: a0 = a0 >> 0x20\n 29956: a1 = a1 | ra\n 29959: a1 = a1 << 0x20\n 29962: a0 = a0 | a1\n 29965: a2 = u64 [sp + 0x38]\n 29968: a4 = u64 [sp + 0x30]\n 29971: a5 = u64 [sp + 0x28]\n 29974: jump @447 if a0 != 0\n      : @441 (gas: 7)\n 29978: u64 [sp + 0x78] = s1\n 29981: a0 = a2 | a3\n 29984: a1 = 0xffffffe0\n 29994: a1 = a5 <u a1\n 29997: a1 = 0 if a4 != 0\n 29999: a1 = 0 if a0 != 0\n 30001: jump @447 if a1 == 0\n      : @442 (gas: 16)\n 30005: s1 = a5 + 0x20\n 30008: a0 = s1 <u a5\n 30011: a1 = a4 + a0\n 30014: u64 [sp + 0x20] = a1\n 30017: a1 = a1 <u a4\n 30020: a1 = a0 if a0 == 0\n 30023: a1 = a1 + a2\n 30026: u64 [sp + 0x68] = a1\n 30029: a0 = a1 <u a2\n 30032: u64 [sp + 0x70] = a0\n 30035: i32 t0 = t0 + 0\n 30037: u64 [sp + 0x60] = t0\n 30040: i32 a0 = s1 + 0\n 30042: i32 a1 = t2 + 0\n 30044: u64 [sp + 0x18] = a1\n 30047: ra = 388, jump @0\n      : @443 [@dyn 194] (gas: 5)\n 30053: i32 a0 = a0 + 0\n 30055: a1 = u64 [sp + 0x18]\n 30058: a2 = u64 [sp + 0x60]\n 30061: ecalli 2 // 'call_data_copy'\n 30063: fallthrough\n      : @444 (gas: 31)\n 30064: a0 = u64 [sp + 0x40]\n 30067: a0 = a0 + s1\n 30070: a1 = a0 <u s1\n 30073: a2 = u64 [sp + 0x78]\n 30076: a4 = u64 [sp + 0x20]\n 30079: a2 = a2 + a4\n 30082: a2 = a2 + a1\n 30085: a3 = a2 ^ a4\n 30088: a4 = a2 <u a4\n 30091: a4 = a1 if a3 == 0\n 30094: a1 = u64 [sp + 0x48]\n 30097: a3 = u64 [sp + 0x68]\n 30100: a1 = a1 + a3\n 30103: a4 = a4 + a1\n 30106: t0 = a4 <u a1\n 30109: a1 = a1 <u a3\n 30112: a5 = u64 [sp + 0x50]\n 30115: s1 = u64 [sp + 0x58]\n 30118: a5 = a5 + s1\n 30121: a3 = u64 [sp + 0x70]\n 30124: a5 = a5 + a3\n 30127: a1 = a1 + a5\n 30130: a1 = a1 + t0\n 30133: a3 = a0 | a4\n 30136: a1 = a1 | a2\n 30139: a3 = a3 | a1\n 30142: a3 = a3 >> 0x20\n 30145: a1 = a1 | a4\n 30148: a1 = a1 << 0x20\n 30151: a1 = a1 | a3\n 30154: jump @447 if a1 != 0\n      : @445 (gas: 3)\n 30158: i32 a0 = a0 + 0\n 30160: a1 = 0x20\n 30163: ra = 390, jump @0\n      : @446 [@dyn 195] (gas: 46)\n 30169: u8 [a0 + 31] = 0\n 30172: u8 [a0 + 30] = 0\n 30175: u8 [a0 + 29] = 0\n 30178: u8 [a0 + 28] = 0\n 30181: u8 [a0 + 27] = 0\n 30184: u8 [a0 + 26] = 0\n 30187: u8 [a0 + 25] = 0\n 30190: u8 [a0 + 24] = 0\n 30193: u8 [a0 + 23] = 0\n 30196: u8 [a0 + 22] = 0\n 30199: u8 [a0 + 21] = 0\n 30202: u8 [a0 + 20] = 0\n 30205: u8 [a0 + 19] = 0\n 30208: u8 [a0 + 18] = 0\n 30211: u8 [a0 + 17] = 0\n 30214: u8 [a0 + 16] = 0\n 30217: u8 [a0 + 15] = 0\n 30220: u8 [a0 + 14] = 0\n 30223: u8 [a0 + 13] = 0\n 30226: u8 [a0 + 12] = 0\n 30229: u8 [a0 + 11] = 0\n 30232: u8 [a0 + 10] = 0\n 30235: u8 [a0 + 9] = 0\n 30238: u8 [a0 + 8] = 0\n 30241: u8 [a0 + 7] = 0\n 30244: u8 [a0 + 6] = 0\n 30247: u8 [a0 + 5] = 0\n 30250: u8 [a0 + 4] = 0\n 30253: u8 [a0 + 3] = 0\n 30256: u8 [a0 + 2] = 0\n 30259: u8 [a0 + 1] = 0\n 30262: u8 [a0 + 0] = 0\n 30264: a0 = u64 [sp]\n 30266: a1 = u64 [sp + 0x28]\n 30269: u64 [a0] = a1\n 30271: u64 [a0 + 0x18] = s1\n 30274: a1 = u64 [sp + 0x30]\n 30277: u64 [a0 + 0x8] = a1\n 30280: a1 = u64 [sp + 0x38]\n 30283: u64 [a0 + 0x10] = a1\n 30286: sp = s0 + 0xfffffffffffffee0\n 30290: ra = u64 [sp + 0x118]\n 30294: s0 = u64 [sp + 0x110]\n 30298: s1 = u64 [sp + 0x108]\n 30302: sp = sp + 0x120\n 30306: ret\n      : @447 (gas: 1)\n 30308: trap\n      : @448 (gas: 8)\n 30309: u64 [sp + 176] = 0\n 30313: u64 [sp + 168] = 0\n 30317: u64 [sp + 160] = 0\n 30321: a0 = 0x4e487b7100000000\n 30331: a1 = sp + 0xa0\n 30335: u64 [sp + 0xb8] = a0\n 30339: a0 = 0\n 30341: ra = 392, jump @8\n      : @449 [@dyn 196] (gas: 7)\n 30347: u64 [sp + 152] = 0\n 30351: u64 [sp + 144] = 0\n 30355: u64 [sp + 128] = 0x41\n 30360: a0 = 0x4\n 30363: a1 = sp + 0x80\n 30367: u64 [sp + 136] = 0\n 30371: ra = 394, jump @8\n      : @450 [@dyn 197] (gas: 3)\n 30377: a1 = 0x24\n 30380: a0 = 0\n 30382: ra = 396, jump @0\n      : @451 [@dyn 198] (gas: 5)\n 30388: i32 a1 = a0 + 0\n 30390: a0 = 0x1\n 30393: a2 = 0x24\n 30396: ecalli 14 // 'seal_return'\n 30398: fallthrough\n      : @452 (gas: 3)\n 30399: a0 = 0\n 30401: a1 = 0\n 30403: ra = 398, jump @0\n      : @453 [@dyn 199] (gas: 6)\n 30409: i32 a1 = a0 + 0\n 30411: a0 = 0x1\n 30414: a2 = 0\n 30416: ra = 0x190\n 30420: ecalli 14 // 'seal_return'\n 30422: fallthrough\n      : @454 [@dyn 200] (gas: 33)\n 30423: sp = sp + 0xffffffffffffff60\n 30427: u64 [sp + 0x98] = ra\n 30431: u64 [sp + 0x90] = s0\n 30435: u64 [sp + 0x88] = s1\n 30439: s0 = sp + 0xa0\n 30443: sp = sp & 0xfffffffffffffff0\n 30446: t0 = u64 [a1]\n 30448: t1 = u64 [a1 + 0x8]\n 30451: t2 = u64 [a1 + 0x10]\n 30454: ra = u64 [a1 + 0x18]\n 30457: a4 = u64 [a2]\n 30459: a3 = u64 [a2 + 0x8]\n 30462: a5 = u64 [a2 + 0x10]\n 30465: a2 = u64 [a2 + 0x18]\n 30468: a1 = u32 [0x20084]\n 30473: s1 = a0\n 30475: u64 [sp + 24] = 0\n 30478: u64 [sp + 16] = 0\n 30481: u64 [sp + 8] = 0\n 30484: u64 [sp] = a1\n 30486: u64 [sp + 0x38] = a2\n 30489: u64 [sp + 0x30] = a5\n 30492: u64 [sp + 0x28] = a3\n 30495: u64 [sp + 0x20] = a4\n 30498: u64 [sp + 0x58] = ra\n 30501: u64 [sp + 0x50] = t2\n 30504: u64 [sp + 0x48] = t1\n 30507: a0 = sp + 0x60\n 30510: a1 = sp + 0x40\n 30513: a2 = sp + 0x20\n 30516: a3 = sp\n 30518: u64 [sp + 0x40] = t0\n 30521: ra = 402, jump @434\n      : @455 [@dyn 201] (gas: 14)\n 30527: a0 = u64 [sp + 0x70]\n 30530: a1 = u64 [sp + 0x78]\n 30533: a2 = u64 [sp + 0x60]\n 30536: a3 = u64 [sp + 0x68]\n 30539: u64 [s1 + 0x10] = a0\n 30542: u64 [s1 + 0x18] = a1\n 30545: u64 [s1] = a2\n 30547: u64 [s1 + 0x8] = a3\n 30550: sp = s0 + 0xffffffffffffff60\n 30554: ra = u64 [sp + 0x98]\n 30558: s0 = u64 [sp + 0x90]\n 30562: s1 = u64 [sp + 0x88]\n 30566: sp = sp + 0xa0\n 30570: ret\n      : @456 (gas: 17)\n 30572: sp = sp + 0xffffffffffffffa0\n 30575: u64 [sp + 0x58] = ra\n 30578: u64 [sp + 0x50] = s0\n 30581: u64 [sp + 0x48] = s1\n 30584: a3 = u64 [a1 + 0x18]\n 30587: a4 = u64 [a1 + 0x10]\n 30590: a5 = u64 [a1 + 0x8]\n 30593: s1 = u64 [a1]\n 30595: a1 = a5 | a3\n 30598: a2 = s1 | a4\n 30601: a2 = a2 | a1\n 30604: a2 = a2 >> 0x20\n 30607: a1 = a1 | a4\n 30610: a1 = a1 << 0x20\n 30613: a1 = a1 | a2\n 30616: u64 [sp + 0x20] = a0\n 30619: jump @465 if a1 != 0\n      : @457 (gas: 19)\n 30623: a0 = s1 + 0x20\n 30626: u64 [sp + 0x40] = a0\n 30629: a0 = a0 <u s1\n 30632: a1 = a5 + a0\n 30635: u64 [sp + 0x38] = a1\n 30638: u64 [sp + 0x8] = a5\n 30641: s0 = a1 <u a5\n 30644: s0 = a0 if a0 == 0\n 30647: s0 = s0 + a4\n 30650: u64 [sp + 0x10] = a4\n 30653: a0 = s0 <u a4\n 30656: u64 [sp + 0x18] = a3\n 30659: a0 = a0 + a3\n 30662: u64 [sp + 0x30] = a0\n 30665: u64 [sp] = s1\n 30667: i32 a0 = s1 + 0\n 30669: a1 = 0x20\n 30672: s1 = 0x20\n 30675: ra = 404, jump @0\n      : @458 [@dyn 202] (gas: 43)\n 30681: u8 [a0 + 0x1f] = s1\n 30684: a1 = u64 [sp + 0x40]\n 30687: a1 = a1 | s0\n 30690: a2 = u64 [sp + 0x38]\n 30693: a3 = u64 [sp + 0x30]\n 30696: a2 = a2 | a3\n 30699: a1 = a1 | a2\n 30702: a1 = a1 >> 0x20\n 30705: a2 = a2 | s0\n 30708: a2 = a2 << 0x20\n 30711: a1 = a1 | a2\n 30714: u8 [a0 + 30] = 0\n 30717: u8 [a0 + 29] = 0\n 30720: u8 [a0 + 28] = 0\n 30723: u8 [a0 + 27] = 0\n 30726: u8 [a0 + 26] = 0\n 30729: u8 [a0 + 25] = 0\n 30732: u8 [a0 + 24] = 0\n 30735: u8 [a0 + 23] = 0\n 30738: u8 [a0 + 22] = 0\n 30741: u8 [a0 + 21] = 0\n 30744: u8 [a0 + 20] = 0\n 30747: u8 [a0 + 19] = 0\n 30750: u8 [a0 + 18] = 0\n 30753: u8 [a0 + 17] = 0\n 30756: u8 [a0 + 16] = 0\n 30759: u8 [a0 + 15] = 0\n 30762: u8 [a0 + 14] = 0\n 30765: u8 [a0 + 13] = 0\n 30768: u8 [a0 + 12] = 0\n 30771: u8 [a0 + 11] = 0\n 30774: u8 [a0 + 10] = 0\n 30777: u8 [a0 + 9] = 0\n 30780: u8 [a0 + 8] = 0\n 30783: u8 [a0 + 7] = 0\n 30786: u8 [a0 + 6] = 0\n 30789: u8 [a0 + 5] = 0\n 30792: u8 [a0 + 4] = 0\n 30795: u8 [a0 + 3] = 0\n 30798: u8 [a0 + 2] = 0\n 30801: u8 [a0 + 1] = 0\n 30804: u8 [a0 + 0] = 0\n 30806: jump @465 if a1 != 0\n      : @459 (gas: 6)\n 30810: s1 = s0\n 30812: s0 = u64 [sp + 0x40]\n 30815: i32 a0 = s0 + 0\n 30817: a1 = 0x20\n 30820: u64 [sp + 0x28] = a0\n 30823: ra = 406, jump @0\n      : @460 [@dyn 203] (gas: 42)\n 30829: u8 [a0 + 31] = 0x23\n 30833: u8 [a0 + 30] = 0\n 30836: u8 [a0 + 29] = 0\n 30839: u8 [a0 + 28] = 0\n 30842: u8 [a0 + 27] = 0\n 30845: u8 [a0 + 26] = 0\n 30848: u8 [a0 + 25] = 0\n 30851: u8 [a0 + 24] = 0\n 30854: u8 [a0 + 23] = 0\n 30857: u8 [a0 + 22] = 0\n 30860: u8 [a0 + 21] = 0\n 30863: u8 [a0 + 20] = 0\n 30866: u8 [a0 + 19] = 0\n 30869: u8 [a0 + 18] = 0\n 30872: u8 [a0 + 17] = 0\n 30875: u8 [a0 + 16] = 0\n 30878: u8 [a0 + 15] = 0\n 30881: u8 [a0 + 14] = 0\n 30884: u8 [a0 + 13] = 0\n 30887: u8 [a0 + 12] = 0\n 30890: u8 [a0 + 11] = 0\n 30893: u8 [a0 + 10] = 0\n 30896: u8 [a0 + 9] = 0\n 30899: u8 [a0 + 8] = 0\n 30902: u8 [a0 + 7] = 0\n 30905: u8 [a0 + 6] = 0\n 30908: u8 [a0 + 5] = 0\n 30911: u8 [a0 + 4] = 0\n 30914: u8 [a0 + 3] = 0\n 30917: u8 [a0 + 2] = 0\n 30920: u8 [a0 + 1] = 0\n 30923: a1 = u64 [sp + 0x30]\n 30926: a2 = s1 | a1\n 30929: s1 = 0x100000000\n 30939: a1 = 0xffffffe0\n 30949: a1 = s0 <u a1\n 30952: s0 = a2\n 30954: a2 = u64 [sp + 0x38]\n 30957: a1 = 0 if a2 != 0\n 30959: a1 = 0 if s0 != 0\n 30961: u8 [a0 + 0] = 0\n 30963: jump @465 if a1 == 0\n      : @461 (gas: 4)\n 30967: a0 = u64 [sp + 0x28]\n 30970: i32 a0 = a0 + 0x20\n 30973: a1 = 0x20\n 30976: ra = 408, jump @0\n      : @462 [@dyn 204] (gas: 41)\n 30982: u8 [a0 + 27] = 0x64\n 30986: u8 [a0 + 23] = 0x6c\n 30990: u8 [a0 + 19] = 0x6d\n 30994: u8 [a0 + 13] = 0x69\n 30998: u8 [a0 + 12] = 0x76\n 31002: u8 [a0 + 9] = 0x73\n 31006: u8 [a0 + 29] = 0x20\n 31010: u8 [a0 + 21] = 0x20\n 31014: u8 [a0 + 16] = 0x20\n 31018: u8 [a0 + 8] = 0x20\n 31022: u8 [a0 + 7] = 0x3a\n 31026: u8 [a0 + 28] = 0x79\n 31030: u8 [a0 + 6] = 0x79\n 31034: u8 [a0 + 24] = 0x72\n 31038: u8 [a0 + 11] = 0x72\n 31042: u8 [a0 + 5] = 0x72\n 31046: u8 [a0 + 4] = 0x6f\n 31050: u8 [a0 + 30] = 0x74\n 31054: u8 [a0 + 3] = 0x74\n 31058: u8 [a0 + 14] = 0x63\n 31062: u8 [a0 + 2] = 0x63\n 31066: u8 [a0 + 31] = 0x61\n 31070: u8 [a0 + 26] = 0x61\n 31074: u8 [a0 + 22] = 0x61\n 31078: u8 [a0 + 18] = 0x61\n 31082: u8 [a0 + 1] = 0x61\n 31086: u8 [a0 + 0] = 0x46\n 31089: a1 = s1 + 0xffffffffffffffc0\n 31092: a2 = u64 [sp + 0x40]\n 31095: a1 = a2 <u a1\n 31098: a2 = u64 [sp + 0x38]\n 31101: a1 = 0 if a2 != 0\n 31103: s1 = 0x65\n 31106: u8 [a0 + 0x19] = s1\n 31109: u8 [a0 + 0x14] = s1\n 31112: a1 = 0 if s0 != 0\n 31114: s0 = 0x6e\n 31117: u8 [a0 + 0x11] = s0\n 31120: u8 [a0 + 0xf] = s1\n 31123: u8 [a0 + 0xa] = s1\n 31126: jump @465 if a1 == 0\n      : @463 (gas: 4)\n 31130: a0 = u64 [sp + 0x28]\n 31133: i32 a0 = a0 + 0x40\n 31136: a1 = 0x20\n 31139: ra = 410, jump @0\n      : @464 [@dyn 205] (gas: 54)\n 31145: u8 [a0 + 31] = 0\n 31148: u8 [a0 + 30] = 0\n 31151: u8 [a0 + 29] = 0\n 31154: u8 [a0 + 28] = 0\n 31157: u8 [a0 + 27] = 0\n 31160: u8 [a0 + 26] = 0\n 31163: u8 [a0 + 25] = 0\n 31166: u8 [a0 + 24] = 0\n 31169: u8 [a0 + 23] = 0\n 31172: u8 [a0 + 22] = 0\n 31175: u8 [a0 + 21] = 0\n 31178: u8 [a0 + 20] = 0\n 31181: u8 [a0 + 19] = 0\n 31184: u8 [a0 + 18] = 0\n 31187: u8 [a0 + 17] = 0\n 31190: u8 [a0 + 16] = 0\n 31193: u8 [a0 + 15] = 0\n 31196: u8 [a0 + 14] = 0\n 31199: u8 [a0 + 13] = 0\n 31202: u8 [a0 + 12] = 0\n 31205: u8 [a0 + 11] = 0\n 31208: u8 [a0 + 10] = 0\n 31211: u8 [a0 + 9] = 0\n 31214: u8 [a0 + 8] = 0\n 31217: u8 [a0 + 7] = 0\n 31220: u8 [a0 + 6] = 0\n 31223: u8 [a0 + 5] = 0\n 31226: u8 [a0 + 4] = 0\n 31229: u8 [a0 + 3] = 0\n 31232: u8 [a0 + 0x2] = s0\n 31235: u8 [a0 + 0x1] = s1\n 31238: u8 [a0 + 0] = 0x6b\n 31241: a1 = u64 [sp]\n 31243: a0 = a1 + 0x80\n 31247: a1 = a0 <u a1\n 31250: a3 = u64 [sp + 0x8]\n 31253: a2 = a3 + a1\n 31256: a3 = a2 <u a3\n 31259: a3 = a1 if a1 == 0\n 31262: a1 = u64 [sp + 0x10]\n 31265: a3 = a3 + a1\n 31268: a1 = a3 <u a1\n 31271: a4 = u64 [sp + 0x18]\n 31274: a1 = a1 + a4\n 31277: a4 = u64 [sp + 0x20]\n 31280: u64 [a4] = a0\n 31282: u64 [a4 + 0x8] = a2\n 31285: u64 [a4 + 0x10] = a3\n 31288: u64 [a4 + 0x18] = a1\n 31291: ra = u64 [sp + 0x58]\n 31294: s0 = u64 [sp + 0x50]\n 31297: s1 = u64 [sp + 0x48]\n 31300: sp = sp + 0x60\n 31303: ret\n      : @465 (gas: 1)\n 31305: trap\n      : @466 (gas: 20)\n 31306: sp = sp + 0xfffffffffffffec0\n 31310: u64 [sp + 0x138] = ra\n 31314: u64 [sp + 0x130] = s0\n 31318: u64 [sp + 0x128] = s1\n 31322: t1 = u64 [a1 + 0x18]\n 31325: s0 = u64 [a1 + 0x10]\n 31328: s1 = u64 [a1 + 0x8]\n 31331: t0 = u64 [a1]\n 31333: u64 [sp + 0x120] = s1\n 31337: u64 [sp + 0x100] = t1\n 31341: a1 = s1 | t1\n 31344: s1 = t0 | s0\n 31347: s1 = s1 | a1\n 31350: s1 = s1 >> 0x20\n 31353: u64 [sp + 0x110] = s0\n 31357: a1 = a1 | s0\n 31360: a1 = a1 << 0x20\n 31363: a1 = a1 | s1\n 31366: u64 [sp] = a0\n 31368: jump @497 if a1 != 0\n      : @467 (gas: 76)\n 31372: a0 = u64 [sp + 0x160]\n 31376: a1 = u64 [a0 + 0x18]\n 31379: u64 [sp + 0xc0] = a1\n 31383: a1 = u64 [sp + 0x158]\n 31387: s1 = u64 [a0 + 0x10]\n 31390: u64 [sp + 0xb8] = s1\n 31394: s1 = u64 [a0 + 0x8]\n 31397: u64 [sp + 0xb0] = s1\n 31401: a0 = u64 [a0]\n 31403: u64 [sp + 0xf8] = a0\n 31407: a0 = u64 [a1 + 0x18]\n 31410: u64 [sp + 0x10] = a0\n 31413: a0 = u64 [a1 + 0x10]\n 31416: u64 [sp + 0x18] = a0\n 31419: a0 = u64 [sp + 0x150]\n 31423: s1 = u64 [a1 + 0x8]\n 31426: u64 [sp + 0x8] = s1\n 31429: a1 = u64 [a1]\n 31431: u64 [sp + 0x20] = a1\n 31434: a1 = u64 [sp + 0x148]\n 31438: s1 = u64 [a0 + 0x10]\n 31441: u64 [sp + 0x38] = s1\n 31444: s1 = u64 [a0 + 0x8]\n 31447: u64 [sp + 0x30] = s1\n 31450: a0 = u64 [a0]\n 31452: u64 [sp + 0x28] = a0\n 31455: a0 = u64 [a1 + 0x18]\n 31458: u64 [sp + 0xe0] = a0\n 31462: a0 = u64 [sp + 0x140]\n 31466: s1 = u64 [a1 + 0x10]\n 31469: u64 [sp + 0xd8] = s1\n 31473: s1 = u64 [a1 + 0x8]\n 31476: u64 [sp + 0xd0] = s1\n 31480: a1 = u64 [a1]\n 31482: u64 [sp + 0xe8] = a1\n 31486: a1 = u64 [a0 + 0x18]\n 31489: u64 [sp + 0x48] = a1\n 31492: a1 = u64 [a0 + 0x10]\n 31495: u64 [sp + 0x50] = a1\n 31498: a1 = u64 [a0 + 0x8]\n 31501: u64 [sp + 0x40] = a1\n 31504: a0 = u64 [a0]\n 31506: u64 [sp + 0x58] = a0\n 31509: a0 = u64 [a5 + 0x18]\n 31512: u64 [sp + 0x60] = a0\n 31515: a0 = u64 [a5 + 0x10]\n 31518: u64 [sp + 0x68] = a0\n 31521: a0 = u64 [a5 + 0x8]\n 31524: u64 [sp + 0x70] = a0\n 31527: a0 = u64 [a5]\n 31529: u64 [sp + 0x78] = a0\n 31532: a0 = u64 [a4 + 0x10]\n 31535: u64 [sp + 0x90] = a0\n 31539: a0 = u64 [a4 + 0x8]\n 31542: u64 [sp + 0x88] = a0\n 31546: a0 = u64 [a4]\n 31548: u64 [sp + 0x80] = a0\n 31552: a0 = u64 [a3 + 0x18]\n 31555: u64 [sp + 0xa0] = a0\n 31559: a0 = u64 [a3 + 0x10]\n 31562: u64 [sp + 0xa8] = a0\n 31566: a0 = u64 [a3 + 0x8]\n 31569: u64 [sp + 0xc8] = a0\n 31573: a0 = u64 [a2 + 0x10]\n 31576: a1 = u64 [a3]\n 31578: u64 [sp + 0x98] = a1\n 31582: a1 = u64 [a2 + 0x8]\n 31585: u64 [sp + 0xf0] = a1\n 31589: s1 = u64 [a2]\n 31591: a0 = a0 << 0x20\n 31594: s0 = a0 >> 0x20\n 31597: i32 a0 = t0 + 0\n 31599: a1 = 0x20\n 31602: u64 [sp + 0x118] = a0\n 31606: u64 [sp + 0x108] = t0\n 31610: ra = 412, jump @0\n      : @468 [@dyn 206] (gas: 66)\n 31616: a1 = reverse s0\n 31618: a2 = u64 [sp + 0xf0]\n 31622: a2 = reverse a2\n 31624: a3 = reverse s1\n 31626: a4 = a3 >> 0x38\n 31629: u8 [a0 + 0x1f] = a4\n 31632: a4 = a3 >> 0x30\n 31635: u8 [a0 + 0x1e] = a4\n 31638: a4 = a3 >> 0x28\n 31641: u8 [a0 + 0x1d] = a4\n 31644: a4 = a3 >> 0x20\n 31647: u8 [a0 + 0x1c] = a4\n 31650: a4 = a3 >> 0x18\n 31653: u8 [a0 + 0x1b] = a4\n 31656: a4 = a3 >> 0x10\n 31659: u8 [a0 + 0x1a] = a4\n 31662: a4 = a3 >> 0x8\n 31665: u8 [a0 + 0x19] = a4\n 31668: u8 [a0 + 0x18] = a3\n 31671: u8 [a0 + 0x10] = a2\n 31674: u8 [a0 + 11] = 0\n 31677: u8 [a0 + 10] = 0\n 31680: u8 [a0 + 9] = 0\n 31683: u8 [a0 + 7] = 0\n 31686: u8 [a0 + 6] = 0\n 31689: u8 [a0 + 5] = 0\n 31692: u8 [a0 + 4] = 0\n 31695: u8 [a0 + 3] = 0\n 31698: u8 [a0 + 2] = 0\n 31701: u8 [a0 + 1] = 0\n 31704: u8 [a0 + 0] = 0\n 31706: a3 = a2 >> 0x38\n 31709: u8 [a0 + 0x17] = a3\n 31712: a3 = a2 >> 0x30\n 31715: u8 [a0 + 0x16] = a3\n 31718: a3 = a2 >> 0x28\n 31721: u8 [a0 + 0x15] = a3\n 31724: a3 = a2 >> 0x20\n 31727: u8 [a0 + 0x14] = a3\n 31730: a3 = a2 >> 0x18\n 31733: u8 [a0 + 0x13] = a3\n 31736: a3 = a2 >> 0x10\n 31739: u8 [a0 + 0x12] = a3\n 31742: a2 = a2 >> 0x8\n 31745: u8 [a0 + 0x11] = a2\n 31748: u8 [a0 + 0x8] = a1\n 31751: a2 = a1 >> 0x38\n 31754: u8 [a0 + 0xf] = a2\n 31757: a2 = a1 >> 0x30\n 31760: u8 [a0 + 0xe] = a2\n 31763: a2 = a1 >> 0x28\n 31766: u8 [a0 + 0xd] = a2\n 31769: a1 = a1 >> 0x20\n 31772: a2 = u64 [sp + 0x100]\n 31776: a4 = u64 [sp + 0x110]\n 31780: a4 = a4 | a2\n 31783: s1 = 0x100000000\n 31793: a2 = 0xffffffe0\n 31803: s0 = u64 [sp + 0x108]\n 31807: a2 = s0 <u a2\n 31810: a3 = u64 [sp + 0x120]\n 31814: a2 = 0 if a3 != 0\n 31816: u64 [sp + 0xf0] = a4\n 31820: a2 = 0 if a4 != 0\n 31822: u8 [a0 + 0xc] = a1\n 31825: jump @497 if a2 == 0\n      : @469 (gas: 4)\n 31829: a0 = u64 [sp + 0x118]\n 31833: i32 a0 = a0 + 0x20\n 31836: a1 = 0x20\n 31839: ra = 414, jump @0\n      : @470 [@dyn 207] (gas: 75)\n 31845: a1 = u64 [sp + 0xa0]\n 31849: a1 = reverse a1\n 31851: a2 = u64 [sp + 0xa8]\n 31855: a2 = reverse a2\n 31857: a3 = u64 [sp + 0xc8]\n 31861: a3 = reverse a3\n 31863: a4 = u64 [sp + 0x98]\n 31867: a4 = reverse a4\n 31869: a5 = a4 >> 0x38\n 31872: u8 [a0 + 0x1f] = a5\n 31875: a5 = a4 >> 0x30\n 31878: u8 [a0 + 0x1e] = a5\n 31881: a5 = a4 >> 0x28\n 31884: u8 [a0 + 0x1d] = a5\n 31887: a5 = a4 >> 0x20\n 31890: u8 [a0 + 0x1c] = a5\n 31893: a5 = a4 >> 0x18\n 31896: u8 [a0 + 0x1b] = a5\n 31899: a5 = a4 >> 0x10\n 31902: u8 [a0 + 0x1a] = a5\n 31905: a5 = a4 >> 0x8\n 31908: u8 [a0 + 0x19] = a5\n 31911: u8 [a0 + 0x18] = a4\n 31914: u8 [a0 + 0x10] = a3\n 31917: a4 = a3 >> 0x38\n 31920: u8 [a0 + 0x17] = a4\n 31923: a4 = a3 >> 0x30\n 31926: u8 [a0 + 0x16] = a4\n 31929: a4 = a3 >> 0x28\n 31932: u8 [a0 + 0x15] = a4\n 31935: a4 = a3 >> 0x20\n 31938: u8 [a0 + 0x14] = a4\n 31941: a4 = a3 >> 0x18\n 31944: u8 [a0 + 0x13] = a4\n 31947: a4 = a3 >> 0x10\n 31950: u8 [a0 + 0x12] = a4\n 31953: a3 = a3 >> 0x8\n 31956: u8 [a0 + 0x11] = a3\n 31959: u8 [a0 + 0x8] = a2\n 31962: a3 = a2 >> 0x38\n 31965: u8 [a0 + 0xf] = a3\n 31968: a3 = a2 >> 0x30\n 31971: u8 [a0 + 0xe] = a3\n 31974: a3 = a2 >> 0x28\n 31977: u8 [a0 + 0xd] = a3\n 31980: a3 = a2 >> 0x20\n 31983: u8 [a0 + 0xc] = a3\n 31986: a3 = a2 >> 0x18\n 31989: u8 [a0 + 0xb] = a3\n 31992: a3 = a2 >> 0x10\n 31995: u8 [a0 + 0xa] = a3\n 31998: a2 = a2 >> 0x8\n 32001: u8 [a0 + 0x9] = a2\n 32004: u8 [a0] = a1\n 32006: a2 = a1 >> 0x38\n 32009: u8 [a0 + 0x7] = a2\n 32012: a2 = a1 >> 0x30\n 32015: u8 [a0 + 0x6] = a2\n 32018: a2 = a1 >> 0x28\n 32021: u8 [a0 + 0x5] = a2\n 32024: a2 = a1 >> 0x20\n 32027: u8 [a0 + 0x4] = a2\n 32030: a2 = a1 >> 0x18\n 32033: u8 [a0 + 0x3] = a2\n 32036: a2 = a1 >> 0x10\n 32039: u8 [a0 + 0x2] = a2\n 32042: a1 = a1 >> 0x8\n 32045: a2 = s1 + 0xffffffffffffffc0\n 32048: a2 = s0 <u a2\n 32051: a3 = u64 [sp + 0x120]\n 32055: a2 = 0 if a3 != 0\n 32057: a3 = u64 [sp + 0xf0]\n 32061: a2 = 0 if a3 != 0\n 32063: u8 [a0 + 0x1] = a1\n 32066: jump @497 if a2 == 0\n      : @471 (gas: 13)\n 32070: a1 = 0xffffffff\n 32080: a2 = u64 [sp + 0x80]\n 32084: a2 = a2 & 0xffffffffffffffff\n 32087: u64 [sp + 0xc8] = a2\n 32091: s0 = u64 [sp + 0x88]\n 32095: s0 = s0 & 0xffffffffffffffff\n 32098: u64 [sp + 0xa8] = a1\n 32102: s1 = u64 [sp + 0x90]\n 32106: s1 = s1 & a1\n 32109: a0 = u64 [sp + 0x118]\n 32113: i32 a0 = a0 + 0x40\n 32116: a1 = 0x20\n 32119: ra = 416, jump @0\n      : @472 [@dyn 208] (gas: 63)\n 32125: a1 = reverse s1\n 32127: a2 = reverse s0\n 32129: a3 = u64 [sp + 0xc8]\n 32133: a3 = reverse a3\n 32135: u8 [a0 + 0x18] = a3\n 32138: u8 [a0 + 11] = 0\n 32141: u8 [a0 + 10] = 0\n 32144: u8 [a0 + 9] = 0\n 32147: u8 [a0 + 7] = 0\n 32150: u8 [a0 + 6] = 0\n 32153: u8 [a0 + 5] = 0\n 32156: u8 [a0 + 4] = 0\n 32159: u8 [a0 + 3] = 0\n 32162: u8 [a0 + 2] = 0\n 32165: u8 [a0 + 1] = 0\n 32168: u8 [a0 + 0] = 0\n 32170: a4 = a3 >> 0x38\n 32173: u8 [a0 + 0x1f] = a4\n 32176: a4 = a3 >> 0x30\n 32179: u8 [a0 + 0x1e] = a4\n 32182: a4 = a3 >> 0x28\n 32185: u8 [a0 + 0x1d] = a4\n 32188: a4 = a3 >> 0x20\n 32191: u8 [a0 + 0x1c] = a4\n 32194: a4 = a3 >> 0x18\n 32197: u8 [a0 + 0x1b] = a4\n 32200: a4 = a3 >> 0x10\n 32203: u8 [a0 + 0x1a] = a4\n 32206: a3 = a3 >> 0x8\n 32209: u8 [a0 + 0x19] = a3\n 32212: u8 [a0 + 0x10] = a2\n 32215: a3 = a2 >> 0x38\n 32218: u8 [a0 + 0x17] = a3\n 32221: a3 = a2 >> 0x30\n 32224: u8 [a0 + 0x16] = a3\n 32227: a3 = a2 >> 0x28\n 32230: u8 [a0 + 0x15] = a3\n 32233: a3 = a2 >> 0x20\n 32236: u8 [a0 + 0x14] = a3\n 32239: a3 = a2 >> 0x18\n 32242: u8 [a0 + 0x13] = a3\n 32245: a3 = a2 >> 0x10\n 32248: u8 [a0 + 0x12] = a3\n 32251: a2 = a2 >> 0x8\n 32254: u8 [a0 + 0x11] = a2\n 32257: u8 [a0 + 0x8] = a1\n 32260: a2 = a1 >> 0x38\n 32263: u8 [a0 + 0xf] = a2\n 32266: a2 = a1 >> 0x30\n 32269: u8 [a0 + 0xe] = a2\n 32272: a2 = a1 >> 0x28\n 32275: u8 [a0 + 0xd] = a2\n 32278: a1 = a1 >> 0x20\n 32281: s1 = 0x100000000\n 32291: a2 = 0xffffffa0\n 32301: s0 = u64 [sp + 0x108]\n 32305: a2 = s0 <u a2\n 32308: a3 = u64 [sp + 0x120]\n 32312: a2 = 0 if a3 != 0\n 32314: a3 = u64 [sp + 0xf0]\n 32318: a2 = 0 if a3 != 0\n 32320: u8 [a0 + 0xc] = a1\n 32323: jump @497 if a2 == 0\n      : @473 (gas: 4)\n 32327: a0 = u64 [sp + 0x118]\n 32331: i32 a0 = a0 + 0x60\n 32334: a1 = 0x20\n 32337: ra = 418, jump @0\n      : @474 [@dyn 209] (gas: 75)\n 32343: a1 = u64 [sp + 0x60]\n 32346: a1 = reverse a1\n 32348: a2 = u64 [sp + 0x68]\n 32351: a2 = reverse a2\n 32353: a3 = u64 [sp + 0x70]\n 32356: a3 = reverse a3\n 32358: a4 = u64 [sp + 0x78]\n 32361: a4 = reverse a4\n 32363: a5 = a4 >> 0x38\n 32366: u8 [a0 + 0x1f] = a5\n 32369: a5 = a4 >> 0x30\n 32372: u8 [a0 + 0x1e] = a5\n 32375: a5 = a4 >> 0x28\n 32378: u8 [a0 + 0x1d] = a5\n 32381: a5 = a4 >> 0x20\n 32384: u8 [a0 + 0x1c] = a5\n 32387: a5 = a4 >> 0x18\n 32390: u8 [a0 + 0x1b] = a5\n 32393: a5 = a4 >> 0x10\n 32396: u8 [a0 + 0x1a] = a5\n 32399: a5 = a4 >> 0x8\n 32402: u8 [a0 + 0x19] = a5\n 32405: u8 [a0 + 0x18] = a4\n 32408: u8 [a0 + 0x10] = a3\n 32411: a4 = a3 >> 0x38\n 32414: u8 [a0 + 0x17] = a4\n 32417: a4 = a3 >> 0x30\n 32420: u8 [a0 + 0x16] = a4\n 32423: a4 = a3 >> 0x28\n 32426: u8 [a0 + 0x15] = a4\n 32429: a4 = a3 >> 0x20\n 32432: u8 [a0 + 0x14] = a4\n 32435: a4 = a3 >> 0x18\n 32438: u8 [a0 + 0x13] = a4\n 32441: a4 = a3 >> 0x10\n 32444: u8 [a0 + 0x12] = a4\n 32447: a3 = a3 >> 0x8\n 32450: u8 [a0 + 0x11] = a3\n 32453: u8 [a0 + 0x8] = a2\n 32456: a3 = a2 >> 0x38\n 32459: u8 [a0 + 0xf] = a3\n 32462: a3 = a2 >> 0x30\n 32465: u8 [a0 + 0xe] = a3\n 32468: a3 = a2 >> 0x28\n 32471: u8 [a0 + 0xd] = a3\n 32474: a3 = a2 >> 0x20\n 32477: u8 [a0 + 0xc] = a3\n 32480: a3 = a2 >> 0x18\n 32483: u8 [a0 + 0xb] = a3\n 32486: a3 = a2 >> 0x10\n 32489: u8 [a0 + 0xa] = a3\n 32492: a2 = a2 >> 0x8\n 32495: u8 [a0 + 0x9] = a2\n 32498: u8 [a0] = a1\n 32500: a2 = a1 >> 0x38\n 32503: u8 [a0 + 0x7] = a2\n 32506: a2 = a1 >> 0x30\n 32509: u8 [a0 + 0x6] = a2\n 32512: a2 = a1 >> 0x28\n 32515: u8 [a0 + 0x5] = a2\n 32518: a2 = a1 >> 0x20\n 32521: u8 [a0 + 0x4] = a2\n 32524: a2 = a1 >> 0x18\n 32527: u8 [a0 + 0x3] = a2\n 32530: a2 = a1 >> 0x10\n 32533: u8 [a0 + 0x2] = a2\n 32536: a1 = a1 >> 0x8\n 32539: a2 = s1 + 0xffffffffffffff80\n 32542: a2 = s0 <u a2\n 32545: a3 = u64 [sp + 0x120]\n 32549: a2 = 0 if a3 != 0\n 32551: a4 = u64 [sp + 0xf0]\n 32555: a2 = 0 if a4 != 0\n 32557: u8 [a0 + 0x1] = a1\n 32560: jump @497 if a2 == 0\n      : @475 (gas: 17)\n 32564: a0 = s0\n 32566: s0 = s0 + 0xe0\n 32570: a0 = s0 <u a0\n 32573: a2 = a3 + a0\n 32576: u64 [sp + 0xf0] = a2\n 32580: s1 = a2 <u a3\n 32583: s1 = a0 if a0 == 0\n 32586: a0 = u64 [sp + 0x110]\n 32590: s1 = s1 + a0\n 32593: a0 = s1 <u a0\n 32596: a1 = u64 [sp + 0x100]\n 32600: a0 = a0 + a1\n 32603: u64 [sp + 0xc8] = a0\n 32607: a0 = u64 [sp + 0x118]\n 32611: i32 a0 = a0 + 0x80\n 32615: a1 = 0x20\n 32618: ra = 420, jump @0\n      : @476 [@dyn 210] (gas: 43)\n 32624: u8 [a0 + 31] = 0xe0\n 32629: a1 = s0 | s1\n 32632: a2 = u64 [sp + 0xf0]\n 32636: a4 = u64 [sp + 0xc8]\n 32640: a2 = a2 | a4\n 32643: a1 = a1 | a2\n 32646: a1 = a1 >> 0x20\n 32649: u64 [sp + 0xa0] = s1\n 32653: a2 = a2 | s1\n 32656: a2 = a2 << 0x20\n 32659: a1 = a1 | a2\n 32662: u8 [a0 + 30] = 0\n 32665: u8 [a0 + 29] = 0\n 32668: u8 [a0 + 28] = 0\n 32671: u8 [a0 + 27] = 0\n 32674: u8 [a0 + 26] = 0\n 32677: u8 [a0 + 25] = 0\n 32680: u8 [a0 + 24] = 0\n 32683: u8 [a0 + 23] = 0\n 32686: u8 [a0 + 22] = 0\n 32689: u8 [a0 + 21] = 0\n 32692: u8 [a0 + 20] = 0\n 32695: u8 [a0 + 19] = 0\n 32698: u8 [a0 + 18] = 0\n 32701: u8 [a0 + 17] = 0\n 32704: u8 [a0 + 16] = 0\n 32707: u8 [a0 + 15] = 0\n 32710: u8 [a0 + 14] = 0\n 32713: u8 [a0 + 13] = 0\n 32716: u8 [a0 + 12] = 0\n 32719: u8 [a0 + 11] = 0\n 32722: u8 [a0 + 10] = 0\n 32725: u8 [a0 + 9] = 0\n 32728: u8 [a0 + 8] = 0\n 32731: u8 [a0 + 7] = 0\n 32734: u8 [a0 + 6] = 0\n 32737: u8 [a0 + 5] = 0\n 32740: u8 [a0 + 4] = 0\n 32743: u8 [a0 + 3] = 0\n 32746: u8 [a0 + 2] = 0\n 32749: u8 [a0 + 1] = 0\n 32752: u8 [a0 + 0] = 0\n 32754: jump @497 if a1 != 0\n      : @477 (gas: 4)\n 32758: u64 [sp + 0x98] = s0\n 32762: i32 a0 = s0 + 0\n 32764: a1 = 0x20\n 32767: ra = 422, jump @0\n      : @478 [@dyn 211] (gas: 80)\n 32773: t1 = u64 [sp + 0xe8]\n 32777: a1 = reverse t1\n 32779: a2 = a1 >> 0x38\n 32782: u8 [a0 + 0x1f] = a2\n 32785: a2 = a1 >> 0x30\n 32788: u8 [a0 + 0x1e] = a2\n 32791: a2 = a1 >> 0x28\n 32794: u8 [a0 + 0x1d] = a2\n 32797: a2 = a1 >> 0x20\n 32800: u8 [a0 + 0x1c] = a2\n 32803: a2 = a1 >> 0x18\n 32806: u8 [a0 + 0x1b] = a2\n 32809: a2 = a1 >> 0x10\n 32812: u8 [a0 + 0x1a] = a2\n 32815: a2 = a1 >> 0x8\n 32818: u8 [a0 + 0x19] = a2\n 32821: t0 = u64 [sp + 0xd0]\n 32825: a2 = reverse t0\n 32827: u8 [a0 + 0x18] = a1\n 32830: a1 = a2 >> 0x38\n 32833: u8 [a0 + 0x17] = a1\n 32836: a1 = a2 >> 0x30\n 32839: u8 [a0 + 0x16] = a1\n 32842: a1 = a2 >> 0x28\n 32845: u8 [a0 + 0x15] = a1\n 32848: a1 = a2 >> 0x20\n 32851: u8 [a0 + 0x14] = a1\n 32854: a1 = a2 >> 0x18\n 32857: u8 [a0 + 0x13] = a1\n 32860: a1 = a2 >> 0x10\n 32863: u8 [a0 + 0x12] = a1\n 32866: s0 = u64 [sp + 0xd8]\n 32870: a3 = reverse s0\n 32872: u8 [a0 + 0x10] = a2\n 32875: a2 = a2 >> 0x8\n 32878: u8 [a0 + 0x11] = a2\n 32881: a1 = a3 >> 0x38\n 32884: u8 [a0 + 0xf] = a1\n 32887: a1 = a3 >> 0x30\n 32890: u8 [a0 + 0xe] = a1\n 32893: a1 = a3 >> 0x28\n 32896: u8 [a0 + 0xd] = a1\n 32899: a1 = a3 >> 0x20\n 32902: u8 [a0 + 0xc] = a1\n 32905: a1 = a3 >> 0x18\n 32908: u8 [a0 + 0xb] = a1\n 32911: a1 = a3 >> 0x10\n 32914: u8 [a0 + 0xa] = a1\n 32917: a5 = u64 [sp + 0xe0]\n 32921: a1 = reverse a5\n 32923: u8 [a0 + 0x8] = a3\n 32926: a3 = a3 >> 0x8\n 32929: u8 [a0 + 0x9] = a3\n 32932: a2 = a1 >> 0x38\n 32935: u8 [a0 + 0x7] = a2\n 32938: a2 = a1 >> 0x30\n 32941: u8 [a0 + 0x6] = a2\n 32944: a2 = a1 >> 0x28\n 32947: u8 [a0 + 0x5] = a2\n 32950: a2 = a1 >> 0x20\n 32953: u8 [a0 + 0x4] = a2\n 32956: a2 = a1 >> 0x18\n 32959: u8 [a0 + 0x3] = a2\n 32962: a2 = a1 >> 0x10\n 32965: u8 [a0 + 0x2] = a2\n 32968: a2 = u64 [sp + 0x48]\n 32971: a4 = u64 [sp + 0x40]\n 32974: a4 = a4 | a2\n 32977: t2 = u64 [sp + 0x58]\n 32980: a2 = u64 [sp + 0x50]\n 32983: a3 = t2 | a2\n 32986: a3 = a3 | a4\n 32989: a2 = a2 | a4\n 32992: a3 = a3 >> 0x20\n 32995: a2 = a2 << 0x20\n 32998: a2 = a2 | a3\n 33001: u8 [a0] = a1\n 33003: a1 = a1 >> 0x8\n 33006: u8 [a0 + 0x1] = a1\n 33009: jump @497 if a2 != 0\n      : @479 (gas: 9)\n 33013: a0 = t1 | s0\n 33016: a1 = t0 | a5\n 33019: a0 = a0 | a1\n 33022: a0 = a0 >> 0x20\n 33025: a1 = a1 | s0\n 33028: a1 = a1 << 0x20\n 33031: a0 = a0 | a1\n 33034: a3 = u64 [sp + 0x110]\n 33038: jump @497 if a0 != 0\n      : @480 (gas: 11)\n 33042: a0 = u64 [sp + 0xa0]\n 33046: a1 = u64 [sp + 0xc8]\n 33050: a0 = a0 | a1\n 33053: a1 = 0xffffffe0\n 33063: a2 = u64 [sp + 0x98]\n 33067: a1 = a2 <u a1\n 33070: a2 = u64 [sp + 0xf0]\n 33074: a1 = 0 if a2 != 0\n 33076: a1 = 0 if a0 != 0\n 33078: a2 = u64 [sp + 0x100]\n 33082: jump @497 if a1 == 0\n      : @481 (gas: 18)\n 33086: a0 = u64 [sp + 0x108]\n 33090: s1 = a0 + 0x100\n 33094: a0 = s1 <u a0\n 33097: a1 = u64 [sp + 0x120]\n 33101: s0 = a1 + a0\n 33104: a1 = s0 <u a1\n 33107: a1 = a0 if a0 == 0\n 33110: a1 = a1 + a3\n 33113: u64 [sp + 0xc8] = a1\n 33117: a0 = a1 <u a3\n 33120: a0 = a0 + a2\n 33123: u64 [sp + 0xa0] = a0\n 33127: i32 t2 = t2 + 0\n 33129: u64 [sp + 0xf0] = t2\n 33133: i32 a0 = s1 + 0\n 33135: i32 a1 = t1 + 0\n 33137: u64 [sp + 0x98] = a1\n 33141: ra = 424, jump @0\n      : @482 [@dyn 212] (gas: 5)\n 33148: i32 a0 = a0 + 0\n 33150: a1 = u64 [sp + 0x98]\n 33154: a2 = u64 [sp + 0xf0]\n 33158: ecalli 2 // 'call_data_copy'\n 33160: fallthrough\n      : @483 (gas: 30)\n 33161: a0 = u64 [sp + 0xe8]\n 33165: a0 = a0 + s1\n 33168: u64 [sp + 0x98] = s1\n 33172: a1 = a0 <u s1\n 33175: s1 = u64 [sp + 0xa0]\n 33179: a2 = u64 [sp + 0xd0]\n 33183: a2 = a2 + s0\n 33186: a2 = a2 + a1\n 33189: a3 = a2 ^ s0\n 33192: u64 [sp + 0xf0] = s0\n 33196: a4 = a2 <u s0\n 33199: a4 = a1 if a3 == 0\n 33202: a1 = u64 [sp + 0xd8]\n 33206: a5 = u64 [sp + 0xc8]\n 33210: a1 = a1 + a5\n 33213: a4 = a4 + a1\n 33216: a3 = a4 <u a1\n 33219: a1 = a1 <u a5\n 33222: a5 = u64 [sp + 0xe0]\n 33226: a5 = a5 + s1\n 33229: a1 = a1 + a5\n 33232: a1 = a1 + a3\n 33235: a3 = a0 | a4\n 33238: a1 = a1 | a2\n 33241: a3 = a3 | a1\n 33244: a3 = a3 >> 0x20\n 33247: a1 = a1 | a4\n 33250: a1 = a1 << 0x20\n 33253: a1 = a1 | a3\n 33256: jump @497 if a1 != 0\n      : @484 (gas: 4)\n 33260: s0 = 0x1ffffffe0\n 33270: i32 a0 = a0 + 0\n 33272: a1 = 0x20\n 33275: ra = 426, jump @0\n      : @485 [@dyn 213] (gas: 62)\n 33282: u8 [a0 + 31] = 0\n 33285: u8 [a0 + 30] = 0\n 33288: u8 [a0 + 29] = 0\n 33291: u8 [a0 + 28] = 0\n 33294: u8 [a0 + 27] = 0\n 33297: u8 [a0 + 26] = 0\n 33300: u8 [a0 + 25] = 0\n 33303: u8 [a0 + 24] = 0\n 33306: u8 [a0 + 23] = 0\n 33309: u8 [a0 + 22] = 0\n 33312: u8 [a0 + 21] = 0\n 33315: u8 [a0 + 20] = 0\n 33318: u8 [a0 + 19] = 0\n 33321: u8 [a0 + 18] = 0\n 33324: u8 [a0 + 17] = 0\n 33327: u8 [a0 + 16] = 0\n 33330: u8 [a0 + 15] = 0\n 33333: u8 [a0 + 14] = 0\n 33336: u8 [a0 + 13] = 0\n 33339: u8 [a0 + 12] = 0\n 33342: u8 [a0 + 11] = 0\n 33345: u8 [a0 + 10] = 0\n 33348: u8 [a0 + 9] = 0\n 33351: u8 [a0 + 8] = 0\n 33354: u8 [a0 + 7] = 0\n 33357: u8 [a0 + 6] = 0\n 33360: u8 [a0 + 5] = 0\n 33363: u8 [a0 + 4] = 0\n 33366: u8 [a0 + 3] = 0\n 33369: u8 [a0 + 2] = 0\n 33372: u8 [a0 + 1] = 0\n 33375: u8 [a0 + 0] = 0\n 33377: a0 = u64 [sp + 0xe8]\n 33381: a0 = a0 + 0x1f\n 33384: u64 [sp + 0x90] = s0\n 33388: a0 = a0 & s0\n 33391: a1 = u64 [sp + 0x98]\n 33395: a1 = a1 + a0\n 33398: u64 [sp + 0xd8] = a1\n 33402: a0 = a1 <u a0\n 33405: a1 = u64 [sp + 0xf0]\n 33409: a1 = a1 + a0\n 33412: u64 [sp + 0xf0] = a1\n 33416: a0 = 0 if a1 != 0\n 33418: a1 = u64 [sp + 0xc8]\n 33422: a0 = a0 + a1\n 33425: u64 [sp + 0xe8] = a0\n 33429: a0 = a0 <u a1\n 33432: a0 = a0 + s1\n 33435: u64 [sp + 0xe0] = a0\n 33439: a0 = u64 [sp + 0x28]\n 33442: s1 = a0 & 0xffffffffffffffff\n 33445: a0 = u64 [sp + 0x30]\n 33448: s0 = a0 & 0xffffffffffffffff\n 33451: a0 = u64 [sp + 0x38]\n 33454: a1 = u64 [sp + 0xa8]\n 33458: a0 = a0 & a1\n 33461: u64 [sp + 0xd0] = a0\n 33465: a0 = u64 [sp + 0x118]\n 33469: i32 a0 = a0 + 0xa0\n 33473: a1 = 0x20\n 33476: ra = 428, jump @0\n      : @486 [@dyn 214] (gas: 84)\n 33483: a1 = reverse s1\n 33485: a2 = a1 >> 0x38\n 33488: u8 [a0 + 0x1f] = a2\n 33491: a2 = a1 >> 0x30\n 33494: u8 [a0 + 0x1e] = a2\n 33497: a2 = a1 >> 0x28\n 33500: u8 [a0 + 0x1d] = a2\n 33503: a2 = a1 >> 0x20\n 33506: u8 [a0 + 0x1c] = a2\n 33509: a2 = a1 >> 0x18\n 33512: u8 [a0 + 0x1b] = a2\n 33515: a2 = a1 >> 0x10\n 33518: u8 [a0 + 0x1a] = a2\n 33521: a2 = a1 >> 0x8\n 33524: u8 [a0 + 0x19] = a2\n 33527: a2 = reverse s0\n 33529: u8 [a0 + 0x18] = a1\n 33532: a1 = a2 >> 0x38\n 33535: u8 [a0 + 0x17] = a1\n 33538: a1 = a2 >> 0x30\n 33541: u8 [a0 + 0x16] = a1\n 33544: a1 = a2 >> 0x28\n 33547: u8 [a0 + 0x15] = a1\n 33550: a1 = a2 >> 0x20\n 33553: u8 [a0 + 0x14] = a1\n 33556: a1 = a2 >> 0x18\n 33559: u8 [a0 + 0x13] = a1\n 33562: a1 = a2 >> 0x10\n 33565: u8 [a0 + 0x12] = a1\n 33568: a1 = a2 >> 0x8\n 33571: u8 [a0 + 0x11] = a1\n 33574: a1 = u64 [sp + 0xd0]\n 33578: a1 = reverse a1\n 33580: u8 [a0 + 0x10] = a2\n 33583: a2 = a1 >> 0x38\n 33586: u8 [a0 + 0xf] = a2\n 33589: a2 = a1 >> 0x30\n 33592: u8 [a0 + 0xe] = a2\n 33595: a2 = a1 >> 0x28\n 33598: u8 [a0 + 0xd] = a2\n 33601: a2 = a1 >> 0x20\n 33604: u8 [a0 + 0xc] = a2\n 33607: u8 [a0 + 11] = 0\n 33610: u8 [a0 + 10] = 0\n 33613: u8 [a0 + 9] = 0\n 33616: u8 [a0 + 0x8] = a1\n 33619: u8 [a0 + 7] = 0\n 33622: u8 [a0 + 6] = 0\n 33625: u8 [a0 + 5] = 0\n 33628: u8 [a0 + 4] = 0\n 33631: u8 [a0 + 3] = 0\n 33634: u8 [a0 + 2] = 0\n 33637: u8 [a0 + 1] = 0\n 33640: u8 [a0 + 0] = 0\n 33642: a2 = u64 [sp + 0x120]\n 33646: a3 = u64 [sp + 0xf0]\n 33650: a0 = a3 ^ a2\n 33653: a1 = a3 <u a2\n 33656: a5 = a3\n 33658: t1 = u64 [sp + 0x108]\n 33662: s1 = u64 [sp + 0xd8]\n 33666: s0 = s1 <u t1\n 33669: a1 = s0 if a0 == 0\n 33672: a3 = u64 [sp + 0x110]\n 33676: a4 = u64 [sp + 0xe8]\n 33680: a0 = a4 - a3\n 33683: a3 = a4 <u a3\n 33686: a4 = u64 [sp + 0x100]\n 33690: t0 = a4 + a3\n 33693: a4 = a0 <u a1\n 33696: a3 = u64 [sp + 0xe0]\n 33700: a3 = a3 - t0\n 33703: a3 = a3 - a4\n 33706: u64 [sp + 0x110] = a3\n 33710: a0 = a0 - a1\n 33713: u64 [sp + 0x100] = a0\n 33717: a2 = a2 + s0\n 33720: s0 = a5 - a2\n 33723: a0 = s1 - t1\n 33726: u64 [sp + 0x120] = a0\n 33730: a0 = u64 [sp + 0x118]\n 33734: i32 a0 = a0 + 0xc0\n 33738: a1 = 0x20\n 33741: ra = 430, jump @0\n      : @487 [@dyn 215] (gas: 79)\n 33748: a1 = u64 [sp + 0x110]\n 33752: a1 = reverse a1\n 33754: a2 = u64 [sp + 0x100]\n 33758: a2 = reverse a2\n 33760: a3 = reverse s0\n 33762: a4 = u64 [sp + 0x120]\n 33766: a4 = reverse a4\n 33768: a5 = a4 >> 0x38\n 33771: u8 [a0 + 0x1f] = a5\n 33774: a5 = a4 >> 0x30\n 33777: u8 [a0 + 0x1e] = a5\n 33780: a5 = a4 >> 0x28\n 33783: u8 [a0 + 0x1d] = a5\n 33786: a5 = a4 >> 0x20\n 33789: u8 [a0 + 0x1c] = a5\n 33792: a5 = a4 >> 0x18\n 33795: u8 [a0 + 0x1b] = a5\n 33798: a5 = a4 >> 0x10\n 33801: u8 [a0 + 0x1a] = a5\n 33804: a5 = a4 >> 0x8\n 33807: u8 [a0 + 0x19] = a5\n 33810: u8 [a0 + 0x18] = a4\n 33813: u8 [a0 + 0x10] = a3\n 33816: a4 = a3 >> 0x38\n 33819: u8 [a0 + 0x17] = a4\n 33822: a4 = a3 >> 0x30\n 33825: u8 [a0 + 0x16] = a4\n 33828: a4 = a3 >> 0x28\n 33831: u8 [a0 + 0x15] = a4\n 33834: a4 = a3 >> 0x20\n 33837: u8 [a0 + 0x14] = a4\n 33840: a4 = a3 >> 0x18\n 33843: u8 [a0 + 0x13] = a4\n 33846: a4 = a3 >> 0x10\n 33849: u8 [a0 + 0x12] = a4\n 33852: a4 = s1\n 33854: a3 = a3 >> 0x8\n 33857: u8 [a0 + 0x11] = a3\n 33860: u8 [a0 + 0x8] = a2\n 33863: a3 = a2 >> 0x38\n 33866: u8 [a0 + 0xf] = a3\n 33869: a3 = a2 >> 0x30\n 33872: u8 [a0 + 0xe] = a3\n 33875: a3 = a2 >> 0x28\n 33878: u8 [a0 + 0xd] = a3\n 33881: a3 = a2 >> 0x20\n 33884: u8 [a0 + 0xc] = a3\n 33887: a3 = a2 >> 0x18\n 33890: u8 [a0 + 0xb] = a3\n 33893: a3 = a2 >> 0x10\n 33896: u8 [a0 + 0xa] = a3\n 33899: a2 = a2 >> 0x8\n 33902: u8 [a0 + 0x9] = a2\n 33905: u8 [a0] = a1\n 33907: a2 = a1 >> 0x38\n 33910: u8 [a0 + 0x7] = a2\n 33913: a2 = a1 >> 0x30\n 33916: u8 [a0 + 0x6] = a2\n 33919: a2 = a1 >> 0x28\n 33922: u8 [a0 + 0x5] = a2\n 33925: a2 = a1 >> 0x20\n 33928: u8 [a0 + 0x4] = a2\n 33931: a2 = a1 >> 0x18\n 33934: u8 [a0 + 0x3] = a2\n 33937: a2 = a1 >> 0x10\n 33940: u8 [a0 + 0x2] = a2\n 33943: a1 = a1 >> 0x8\n 33946: s1 = u64 [sp + 0xe8]\n 33950: a2 = a4 | s1\n 33953: a3 = u64 [sp + 0xe0]\n 33957: a5 = u64 [sp + 0xf0]\n 33961: a3 = a3 | a5\n 33964: a2 = a2 | a3\n 33967: a2 = a2 >> 0x20\n 33970: a3 = a3 | s1\n 33973: a3 = a3 << 0x20\n 33976: a2 = a2 | a3\n 33979: u8 [a0 + 0x1] = a1\n 33982: jump @497 if a2 != 0\n      : @488 (gas: 3)\n 33986: i32 a0 = a4 + 0\n 33988: a1 = 0x20\n 33991: ra = 432, jump @0\n      : @489 [@dyn 216] (gas: 80)\n 33998: t0 = u64 [sp + 0xf8]\n 34002: a1 = reverse t0\n 34004: a2 = a1 >> 0x38\n 34007: u8 [a0 + 0x1f] = a2\n 34010: a2 = a1 >> 0x30\n 34013: u8 [a0 + 0x1e] = a2\n 34016: a2 = a1 >> 0x28\n 34019: u8 [a0 + 0x1d] = a2\n 34022: a2 = a1 >> 0x20\n 34025: u8 [a0 + 0x1c] = a2\n 34028: a2 = a1 >> 0x18\n 34031: u8 [a0 + 0x1b] = a2\n 34034: a2 = a1 >> 0x10\n 34037: u8 [a0 + 0x1a] = a2\n 34040: a2 = a1 >> 0x8\n 34043: u8 [a0 + 0x19] = a2\n 34046: t1 = u64 [sp + 0xb0]\n 34050: a2 = reverse t1\n 34052: u8 [a0 + 0x18] = a1\n 34055: a1 = a2 >> 0x38\n 34058: u8 [a0 + 0x17] = a1\n 34061: a1 = a2 >> 0x30\n 34064: u8 [a0 + 0x16] = a1\n 34067: a1 = a2 >> 0x28\n 34070: u8 [a0 + 0x15] = a1\n 34073: a1 = a2 >> 0x20\n 34076: u8 [a0 + 0x14] = a1\n 34079: a1 = a2 >> 0x18\n 34082: u8 [a0 + 0x13] = a1\n 34085: a1 = a2 >> 0x10\n 34088: u8 [a0 + 0x12] = a1\n 34091: s1 = u64 [sp + 0xb8]\n 34095: a3 = reverse s1\n 34097: u8 [a0 + 0x10] = a2\n 34100: a2 = a2 >> 0x8\n 34103: u8 [a0 + 0x11] = a2\n 34106: a1 = a3 >> 0x38\n 34109: u8 [a0 + 0xf] = a1\n 34112: a1 = a3 >> 0x30\n 34115: u8 [a0 + 0xe] = a1\n 34118: a1 = a3 >> 0x28\n 34121: u8 [a0 + 0xd] = a1\n 34124: a1 = a3 >> 0x20\n 34127: u8 [a0 + 0xc] = a1\n 34130: a1 = a3 >> 0x18\n 34133: u8 [a0 + 0xb] = a1\n 34136: a1 = a3 >> 0x10\n 34139: u8 [a0 + 0xa] = a1\n 34142: a5 = u64 [sp + 0xc0]\n 34146: a1 = reverse a5\n 34148: u8 [a0 + 0x8] = a3\n 34151: a3 = a3 >> 0x8\n 34154: u8 [a0 + 0x9] = a3\n 34157: a2 = a1 >> 0x38\n 34160: u8 [a0 + 0x7] = a2\n 34163: a2 = a1 >> 0x30\n 34166: u8 [a0 + 0x6] = a2\n 34169: a2 = a1 >> 0x28\n 34172: u8 [a0 + 0x5] = a2\n 34175: a2 = a1 >> 0x20\n 34178: u8 [a0 + 0x4] = a2\n 34181: a2 = a1 >> 0x18\n 34184: u8 [a0 + 0x3] = a2\n 34187: a2 = a1 >> 0x10\n 34190: u8 [a0 + 0x2] = a2\n 34193: a2 = u64 [sp + 0x10]\n 34196: a4 = u64 [sp + 0x8]\n 34199: a4 = a4 | a2\n 34202: t2 = u64 [sp + 0x20]\n 34205: a2 = u64 [sp + 0x18]\n 34208: a3 = t2 | a2\n 34211: a3 = a3 | a4\n 34214: a2 = a2 | a4\n 34217: a3 = a3 >> 0x20\n 34220: a2 = a2 << 0x20\n 34223: a2 = a2 | a3\n 34226: u8 [a0] = a1\n 34228: a1 = a1 >> 0x8\n 34231: u8 [a0 + 0x1] = a1\n 34234: jump @497 if a2 != 0\n      : @490 (gas: 9)\n 34238: a0 = t0 | s1\n 34241: a1 = t1 | a5\n 34244: a0 = a0 | a1\n 34247: a0 = a0 >> 0x20\n 34250: a1 = a1 | s1\n 34253: a1 = a1 << 0x20\n 34256: a0 = a0 | a1\n 34259: a4 = u64 [sp + 0xf0]\n 34263: jump @497 if a0 != 0\n      : @491 (gas: 9)\n 34267: a2 = u64 [sp + 0xe8]\n 34271: a5 = u64 [sp + 0xe0]\n 34275: a0 = a2 | a5\n 34278: a1 = 0xffffffe0\n 34288: a3 = u64 [sp + 0xd8]\n 34292: a1 = a3 <u a1\n 34295: a1 = 0 if a4 != 0\n 34297: a1 = 0 if a0 != 0\n 34299: jump @497 if a1 == 0\n      : @492 (gas: 18)\n 34303: a1 = a3 + 0x20\n 34306: a0 = a1 <u a3\n 34309: a3 = a1\n 34311: u64 [sp + 0x118] = a1\n 34315: s1 = a4 + a0\n 34318: a1 = s1 <u a4\n 34321: a1 = a0 if a0 == 0\n 34324: a1 = a1 + a2\n 34327: u64 [sp + 0x110] = a1\n 34331: a0 = a1 <u a2\n 34334: a0 = a0 + a5\n 34337: u64 [sp + 0x120] = a0\n 34341: i32 t2 = t2 + 0\n 34343: u64 [sp + 0x108] = t2\n 34347: i32 a0 = a3 + 0\n 34349: s0 = i32 [sp + 0xf8]\n 34353: a1 = s0\n 34355: ra = 434, jump @0\n      : @493 [@dyn 217] (gas: 6)\n 34362: i32 a0 = a0 + 0\n 34364: a1 = s0\n 34366: a2 = u64 [sp + 0x108]\n 34370: s0 = u64 [sp + 0x118]\n 34374: ecalli 2 // 'call_data_copy'\n 34376: fallthrough\n      : @494 (gas: 29)\n 34377: a0 = u64 [sp + 0xf8]\n 34381: a0 = a0 + s0\n 34384: a1 = a0 <u s0\n 34387: a2 = u64 [sp + 0xb0]\n 34391: a2 = a2 + s1\n 34394: a2 = a2 + a1\n 34397: a3 = a2 ^ s1\n 34400: u64 [sp + 0x108] = s1\n 34404: a4 = a2 <u s1\n 34407: s1 = u64 [sp + 0x110]\n 34411: a4 = a1 if a3 == 0\n 34414: a1 = u64 [sp + 0xb8]\n 34418: a1 = a1 + s1\n 34421: a4 = a4 + a1\n 34424: a3 = a4 <u a1\n 34427: a1 = a1 <u s1\n 34430: a5 = u64 [sp + 0xc0]\n 34434: s0 = u64 [sp + 0x120]\n 34438: a5 = a5 + s0\n 34441: a1 = a1 + a5\n 34444: a1 = a1 + a3\n 34447: a3 = a0 | a4\n 34450: a1 = a1 | a2\n 34453: a3 = a3 | a1\n 34456: a3 = a3 >> 0x20\n 34459: a1 = a1 | a4\n 34462: a1 = a1 << 0x20\n 34465: a1 = a1 | a3\n 34468: jump @497 if a1 != 0\n      : @495 (gas: 3)\n 34472: i32 a0 = a0 + 0\n 34474: a1 = 0x20\n 34477: ra = 436, jump @0\n      : @496 [@dyn 218] (gas: 56)\n 34484: u8 [a0 + 31] = 0\n 34487: u8 [a0 + 30] = 0\n 34490: u8 [a0 + 29] = 0\n 34493: u8 [a0 + 28] = 0\n 34496: u8 [a0 + 27] = 0\n 34499: u8 [a0 + 26] = 0\n 34502: u8 [a0 + 25] = 0\n 34505: u8 [a0 + 24] = 0\n 34508: u8 [a0 + 23] = 0\n 34511: u8 [a0 + 22] = 0\n 34514: u8 [a0 + 21] = 0\n 34517: u8 [a0 + 20] = 0\n 34520: u8 [a0 + 19] = 0\n 34523: u8 [a0 + 18] = 0\n 34526: u8 [a0 + 17] = 0\n 34529: u8 [a0 + 16] = 0\n 34532: u8 [a0 + 15] = 0\n 34535: u8 [a0 + 14] = 0\n 34538: u8 [a0 + 13] = 0\n 34541: u8 [a0 + 12] = 0\n 34544: u8 [a0 + 11] = 0\n 34547: u8 [a0 + 10] = 0\n 34550: u8 [a0 + 9] = 0\n 34553: u8 [a0 + 8] = 0\n 34556: u8 [a0 + 7] = 0\n 34559: u8 [a0 + 6] = 0\n 34562: u8 [a0 + 5] = 0\n 34565: u8 [a0 + 4] = 0\n 34568: u8 [a0 + 3] = 0\n 34571: u8 [a0 + 2] = 0\n 34574: u8 [a0 + 1] = 0\n 34577: u8 [a0 + 0] = 0\n 34579: a0 = u64 [sp + 0xf8]\n 34583: a0 = a0 + 0x1f\n 34586: a1 = u64 [sp + 0x90]\n 34590: a0 = a0 & a1\n 34593: a1 = u64 [sp + 0x118]\n 34597: a1 = a1 + a0\n 34600: a0 = a1 <u a0\n 34603: a2 = u64 [sp + 0x108]\n 34607: a2 = a2 + a0\n 34610: a0 = 0 if a2 != 0\n 34612: a0 = a0 + s1\n 34615: a3 = a0 <u s1\n 34618: a4 = u64 [sp + 0x120]\n 34622: a3 = a3 + a4\n 34625: a4 = u64 [sp]\n 34627: u64 [a4] = a1\n 34629: u64 [a4 + 0x8] = a2\n 34632: u64 [a4 + 0x10] = a0\n 34635: u64 [a4 + 0x18] = a3\n 34638: ra = u64 [sp + 0x138]\n 34642: s0 = u64 [sp + 0x130]\n 34646: s1 = u64 [sp + 0x128]\n 34650: sp = sp + 0x140\n 34654: ret\n      : @497 (gas: 1)\n 34656: trap\n      : @498 (gas: 7)\n 34657: a4 = u64 [sp + 0x218]\n 34661: a3 = u64 [sp + 0x210]\n 34665: a2 = u64 [sp + 0x208]\n 34669: a0 = a3 | a4\n 34672: a1 = a2 <u 0x1\n 34675: a1 = 0 if a0 != 0\n 34677: jump @501 if a1 == 0\n      : @499 (gas: 50)\n 34681: a0 = u64 [sp + 0x200]\n 34685: u64 [sp + 0x58] = a0\n 34688: a0 = a0 + 0x1\n 34691: a1 = a0 <u 0x1\n 34694: a1 = a1 + a2\n 34697: u64 [sp + 0x200] = a0\n 34701: a0 = a0 | a1\n 34704: u64 [sp + 0x208] = a1\n 34708: a0 = a0 <u 0x1\n 34711: a0 = a0 + a3\n 34714: u64 [sp + 0x210] = a0\n 34718: a0 = a0 <u a3\n 34721: a0 = a0 + a4\n 34724: u64 [sp + 0x218] = a0\n 34728: a0 = u64 [sp + 0x70]\n 34731: u64 [sp + 0x1e8] = a0\n 34735: a0 = u64 [sp + 0x78]\n 34738: u64 [sp + 0x1e0] = a0\n 34742: a0 = u64 [sp + 0x68]\n 34745: u64 [sp + 0x1f0] = a0\n 34749: s1 = u64 [sp + 0x60]\n 34752: u64 [sp + 0x1f8] = s1\n 34756: i32 a1 = sp + 0x1e0\n 34760: u64 [sp + 0x48] = a3\n 34763: i32 a3 = sp + 0x200\n 34767: u64 [sp + 0x40] = a2\n 34770: a2 = 0xffffffffffffffff\n 34773: u64 [sp + 0x38] = a4\n 34776: a4 = 0x20\n 34779: a0 = 0\n 34781: ecalli 16 // 'set_storage'\n 34783: a0 = u64 [sp + 0x38]\n 34786: u64 [sp + 0x158] = a0\n 34790: a0 = u64 [sp + 0x48]\n 34793: u64 [sp + 0x150] = a0\n 34797: a0 = u64 [sp + 0x40]\n 34800: u64 [sp + 0x148] = a0\n 34804: a0 = u64 [sp + 0x58]\n 34807: u64 [sp + 0x140] = a0\n 34811: u64 [sp + 0x178] = s1\n 34815: a0 = u64 [sp + 0x68]\n 34818: u64 [sp + 0x170] = a0\n 34822: a0 = u64 [sp + 0x70]\n 34825: u64 [sp + 0x168] = a0\n 34829: a0 = sp + 0x180\n 34833: a1 = sp + 0x160\n 34837: a2 = sp + 0x140\n 34841: a3 = u64 [sp + 0x78]\n 34844: u64 [sp + 0x160] = a3\n 34848: ra = 438, jump @91\n      : @500 [@dyn 219] (gas: 453)\n 34854: a0 = u64 [sp + 0x1b8]\n 34858: u64 [sp + 0x58] = a0\n 34861: a0 = u64 [sp + 0x1b0]\n 34865: u64 [sp + 0x48] = a0\n 34868: s1 = u64 [sp + 0x1a8]\n 34872: a0 = u64 [sp + 0x1a0]\n 34876: u64 [sp + 0x18] = a0\n 34879: a3 = u64 [sp + 0x198]\n 34883: u64 [sp + 0x60] = a3\n 34886: a2 = u64 [sp + 0x190]\n 34890: u64 [sp + 0x68] = a2\n 34893: a1 = u64 [sp + 0x188]\n 34897: u64 [sp + 0x70] = a1\n 34900: a0 = u64 [sp + 0x180]\n 34904: u64 [sp + 0x78] = a0\n 34907: u64 [sp + 0x1f8] = a3\n 34911: u64 [sp + 0x1f0] = a2\n 34915: u64 [sp + 0x1e8] = a1\n 34919: u64 [sp + 0x1e0] = a0\n 34923: u64 [sp + 536] = 0\n 34927: u64 [sp + 528] = 0\n 34931: u64 [sp + 520] = 0\n 34935: u64 [sp + 512] = 0\n 34939: u32 [sp + 448] = 0x20\n 34944: i32 a1 = sp + 0x1e0\n 34948: i32 a3 = sp + 0x200\n 34952: i32 a4 = sp + 0x1c0\n 34956: a2 = 0xffffffffffffffff\n 34959: a0 = 0\n 34961: ecalli 8 // 'get_storage'\n 34963: a2 = u64 [sp + 0x18]\n 34966: a0 = a2 >> 0x3d\n 34969: a1 = s1 << 0x3\n 34972: a0 = a0 | a1\n 34975: a1 = a2 << 0x3\n 34978: a1 = a1 <u 0x100\n 34982: t1 = a1 ^ 0x1\n 34985: a1 = a0 >u 0\n 34987: t1 = a1 if a0 != 0\n 34990: s1 = s1 >> 0x3d\n 34993: a1 = u64 [sp + 0x48]\n 34996: a0 = a1 << 0x3\n 34999: a0 = a0 | s1\n 35002: a1 = a1 >> 0x3d\n 35005: a3 = u64 [sp + 0x58]\n 35008: a3 = a3 << 0x3\n 35011: a1 = a1 | a3\n 35014: a3 = a1 >u 0\n 35016: a4 = a0 >u 0\n 35018: a4 = a3 if a1 != 0\n 35021: a0 = a0 | a1\n 35024: t1 = a4 if a0 != 0\n 35027: a0 = u64 [sp + 0x200]\n 35031: u64 [sp + 0x58] = a0\n 35034: a0 = u64 [sp + 0x208]\n 35038: u64 [sp + 0x48] = a0\n 35041: a0 = u64 [sp + 0x210]\n 35045: u64 [sp + 0x40] = a0\n 35048: a0 = u64 [sp + 0x218]\n 35052: u64 [sp + 0x38] = a0\n 35055: u8 [sp + 319] = 0xff\n 35061: u8 [sp + 318] = 0xff\n 35067: u8 [sp + 317] = 0xff\n 35073: u8 [sp + 316] = 0xff\n 35079: u8 [sp + 315] = 0xff\n 35085: u8 [sp + 314] = 0xff\n 35091: u8 [sp + 313] = 0xff\n 35097: u8 [sp + 312] = 0xff\n 35103: u8 [sp + 311] = 0xff\n 35109: u8 [sp + 310] = 0xff\n 35115: u8 [sp + 309] = 0xff\n 35121: u8 [sp + 308] = 0xff\n 35127: u8 [sp + 307] = 0xff\n 35133: u8 [sp + 306] = 0xff\n 35139: u8 [sp + 305] = 0xff\n 35145: u8 [sp + 304] = 0xff\n 35151: u8 [sp + 303] = 0xff\n 35157: u8 [sp + 302] = 0xff\n 35163: u8 [sp + 301] = 0xff\n 35169: u8 [sp + 300] = 0xff\n 35175: u8 [sp + 299] = 0xff\n 35181: u8 [sp + 298] = 0xff\n 35187: u8 [sp + 297] = 0xff\n 35193: u8 [sp + 296] = 0xff\n 35199: u8 [sp + 295] = 0xff\n 35205: u8 [sp + 294] = 0xff\n 35211: u8 [sp + 293] = 0xff\n 35217: u8 [sp + 292] = 0xff\n 35223: u8 [sp + 291] = 0xff\n 35229: u8 [sp + 290] = 0xff\n 35235: u8 [sp + 289] = 0xff\n 35241: u8 [sp + 288] = 0xff\n 35247: u8 [sp + 287] = 0\n 35251: u8 [sp + 286] = 0\n 35255: u8 [sp + 285] = 0\n 35259: u8 [sp + 284] = 0\n 35263: u8 [sp + 283] = 0\n 35267: u8 [sp + 282] = 0\n 35271: u8 [sp + 281] = 0\n 35275: u8 [sp + 280] = 0\n 35279: u8 [sp + 279] = 0\n 35283: u8 [sp + 278] = 0\n 35287: u8 [sp + 277] = 0\n 35291: u8 [sp + 276] = 0\n 35295: u8 [sp + 275] = 0\n 35299: u8 [sp + 274] = 0\n 35303: u8 [sp + 273] = 0\n 35307: u8 [sp + 272] = 0\n 35311: u8 [sp + 271] = 0\n 35315: u8 [sp + 270] = 0\n 35319: u8 [sp + 269] = 0\n 35323: u8 [sp + 268] = 0\n 35327: u8 [sp + 267] = 0\n 35331: u8 [sp + 266] = 0\n 35335: u8 [sp + 265] = 0\n 35339: u8 [sp + 264] = 0\n 35343: u8 [sp + 263] = 0\n 35347: u8 [sp + 262] = 0\n 35351: u8 [sp + 261] = 0\n 35355: u8 [sp + 260] = 0\n 35359: u8 [sp + 259] = 0\n 35363: u8 [sp + 258] = 0\n 35367: u8 [sp + 257] = 0\n 35371: u8 [sp + 256] = 0\n 35375: a4 = a2 & 0x1f\n 35378: a3 = sp + 0x120\n 35382: a3 = a3 - a4\n 35385: a0 = u8 [a3 + 0x19]\n 35388: a1 = u8 [a3 + 0x18]\n 35391: a5 = u8 [a3 + 0x1a]\n 35394: s1 = u8 [a3 + 0x1b]\n 35397: a0 = a0 << 0x8\n 35400: a0 = a0 | a1\n 35403: a5 = a5 << 0x10\n 35406: s1 = s1 << 0x18\n 35409: a5 = a5 | s1\n 35412: t0 = a5 | a0\n 35415: a1 = u8 [a3 + 0x1d]\n 35418: a5 = u8 [a3 + 0x1c]\n 35421: s1 = u8 [a3 + 0x1e]\n 35424: a0 = u8 [a3 + 0x1f]\n 35427: a1 = a1 << 0x8\n 35430: a1 = a1 | a5\n 35433: s1 = s1 << 0x10\n 35436: a0 = a0 << 0x18\n 35439: a0 = a0 | s1\n 35442: a0 = a0 | a1\n 35445: a0 = a0 << 0x20\n 35448: a0 = a0 | t0\n 35451: u64 [sp + 0x18] = a0\n 35454: a0 = u8 [a3 + 0x11]\n 35457: a1 = u8 [a3 + 0x10]\n 35460: a5 = u8 [a3 + 0x12]\n 35463: s1 = u8 [a3 + 0x13]\n 35466: a0 = a0 << 0x8\n 35469: a0 = a0 | a1\n 35472: a5 = a5 << 0x10\n 35475: s1 = s1 << 0x18\n 35478: a5 = a5 | s1\n 35481: t0 = a5 | a0\n 35484: a1 = u8 [a3 + 0x15]\n 35487: a5 = u8 [a3 + 0x14]\n 35490: s1 = u8 [a3 + 0x16]\n 35493: a0 = u8 [a3 + 0x17]\n 35496: a1 = a1 << 0x8\n 35499: a1 = a1 | a5\n 35502: s1 = s1 << 0x10\n 35505: a0 = a0 << 0x18\n 35508: a0 = a0 | s1\n 35511: a0 = a0 | a1\n 35514: a0 = a0 << 0x20\n 35517: a0 = a0 | t0\n 35520: u64 [sp + 0x10] = a0\n 35523: a0 = u8 [a3 + 0x9]\n 35526: a1 = u8 [a3 + 0x8]\n 35529: a5 = u8 [a3 + 0xa]\n 35532: s1 = u8 [a3 + 0xb]\n 35535: a0 = a0 << 0x8\n 35538: a0 = a0 | a1\n 35541: a5 = a5 << 0x10\n 35544: s1 = s1 << 0x18\n 35547: a5 = a5 | s1\n 35550: a2 = a5 | a0\n 35553: a1 = u8 [a3 + 0xd]\n 35556: a5 = u8 [a3 + 0xc]\n 35559: s1 = u8 [a3 + 0xe]\n 35562: a0 = u8 [a3 + 0xf]\n 35565: a1 = a1 << 0x8\n 35568: a1 = a1 | a5\n 35571: s1 = s1 << 0x10\n 35574: a0 = a0 << 0x18\n 35577: a0 = a0 | s1\n 35580: a0 = a0 | a1\n 35583: a0 = a0 << 0x20\n 35586: ra = a0 | a2\n 35589: a0 = u8 [a3 + 0x1]\n 35592: a1 = u8 [a3]\n 35594: a2 = u8 [a3 + 0x2]\n 35597: s1 = u8 [a3 + 0x3]\n 35600: a0 = a0 << 0x8\n 35603: a0 = a0 | a1\n 35606: a2 = a2 << 0x10\n 35609: s1 = s1 << 0x18\n 35612: a2 = a2 | s1\n 35615: a0 = a0 | a2\n 35618: a1 = u8 [a3 + 0x5]\n 35621: a2 = u8 [a3 + 0x4]\n 35624: s1 = u8 [a3 + 0x6]\n 35627: a3 = u8 [a3 + 0x7]\n 35630: a1 = a1 << 0x8\n 35633: a1 = a1 | a2\n 35636: s1 = s1 << 0x10\n 35639: a3 = a3 << 0x18\n 35642: a3 = a3 | s1\n 35645: a1 = a1 | a3\n 35648: a1 = a1 << 0x20\n 35651: t2 = a1 | a0\n 35654: a1 = u64 [sp + 0x20]\n 35657: a0 = a1 >> 0x38\n 35660: u8 [sp + 0xe7] = a0\n 35664: a0 = a1 >> 0x30\n 35667: u8 [sp + 0xe6] = a0\n 35671: a0 = a1 >> 0x28\n 35674: u8 [sp + 0xe5] = a0\n 35678: a0 = a1 >> 0x20\n 35681: u8 [sp + 0xe4] = a0\n 35685: a0 = a1 >> 0x18\n 35688: u8 [sp + 0xe3] = a0\n 35692: a0 = a1 >> 0x10\n 35695: u8 [sp + 0xe2] = a0\n 35699: u8 [sp + 0xe0] = a1\n 35703: a0 = a1 >> 0x8\n 35706: u8 [sp + 0xe1] = a0\n 35710: a1 = u64 [sp + 0x28]\n 35713: a0 = a1 >> 0x38\n 35716: u8 [sp + 0xef] = a0\n 35720: a0 = a1 >> 0x30\n 35723: u8 [sp + 0xee] = a0\n 35727: a0 = a1 >> 0x28\n 35730: u8 [sp + 0xed] = a0\n 35734: a0 = a1 >> 0x20\n 35737: u8 [sp + 0xec] = a0\n 35741: a0 = a1 >> 0x18\n 35744: u8 [sp + 0xeb] = a0\n 35748: a0 = a1 >> 0x10\n 35751: u8 [sp + 0xea] = a0\n 35755: u8 [sp + 0xe8] = a1\n 35759: a0 = a1 >> 0x8\n 35762: u8 [sp + 0xe9] = a0\n 35766: a1 = u64 [sp + 0x30]\n 35769: a0 = a1 >> 0x38\n 35772: u8 [sp + 0xf7] = a0\n 35776: a0 = a1 >> 0x30\n 35779: u8 [sp + 0xf6] = a0\n 35783: a0 = a1 >> 0x28\n 35786: u8 [sp + 0xf5] = a0\n 35790: a0 = a1 >> 0x20\n 35793: u8 [sp + 0xf4] = a0\n 35797: a0 = a1 >> 0x18\n 35800: u8 [sp + 0xf3] = a0\n 35804: a0 = a1 >> 0x10\n 35807: u8 [sp + 0xf2] = a0\n 35811: u8 [sp + 0xf0] = a1\n 35815: a0 = a1 >> 0x8\n 35818: u8 [sp + 0xf1] = a0\n 35822: a1 = u64 [sp + 0x50]\n 35825: a0 = a1 >> 0x38\n 35828: u8 [sp + 0xff] = a0\n 35832: a0 = a1 >> 0x30\n 35835: u8 [sp + 0xfe] = a0\n 35839: a0 = a1 >> 0x28\n 35842: u8 [sp + 0xfd] = a0\n 35846: a0 = a1 >> 0x20\n 35849: u8 [sp + 0xfc] = a0\n 35853: a0 = a1 >> 0x18\n 35856: u8 [sp + 0xfb] = a0\n 35860: a0 = a1 >> 0x10\n 35863: u8 [sp + 0xfa] = a0\n 35867: u8 [sp + 0xf8] = a1\n 35871: a0 = a1 >> 0x8\n 35874: u8 [sp + 0xf9] = a0\n 35878: a0 = sp + 0xe0\n 35882: a4 = a0 - a4\n 35885: u8 [sp + 223] = 0\n 35889: u8 [sp + 222] = 0\n 35893: u8 [sp + 221] = 0\n 35897: u8 [sp + 220] = 0\n 35901: u8 [sp + 219] = 0\n 35905: u8 [sp + 218] = 0\n 35909: u8 [sp + 217] = 0\n 35913: u8 [sp + 216] = 0\n 35917: u8 [sp + 215] = 0\n 35921: u8 [sp + 214] = 0\n 35925: u8 [sp + 213] = 0\n 35929: u8 [sp + 212] = 0\n 35933: u8 [sp + 211] = 0\n 35937: u8 [sp + 210] = 0\n 35941: u8 [sp + 209] = 0\n 35945: u8 [sp + 208] = 0\n 35949: u8 [sp + 207] = 0\n 35953: u8 [sp + 206] = 0\n 35957: u8 [sp + 205] = 0\n 35961: u8 [sp + 204] = 0\n 35965: u8 [sp + 203] = 0\n 35969: u8 [sp + 202] = 0\n 35973: u8 [sp + 201] = 0\n 35977: u8 [sp + 200] = 0\n 35981: u8 [sp + 199] = 0\n 35985: u8 [sp + 198] = 0\n 35989: u8 [sp + 197] = 0\n 35993: u8 [sp + 196] = 0\n 35997: u8 [sp + 195] = 0\n 36001: u8 [sp + 194] = 0\n 36005: u8 [sp + 193] = 0\n 36009: u8 [sp + 192] = 0\n 36013: a0 = u8 [a4 + 0x19]\n 36016: a1 = u8 [a4 + 0x18]\n 36019: a2 = u8 [a4 + 0x1a]\n 36022: s1 = u8 [a4 + 0x1b]\n 36025: a0 = a0 << 0x8\n 36028: a0 = a0 | a1\n 36031: a2 = a2 << 0x10\n 36034: s1 = s1 << 0x18\n 36037: a2 = a2 | s1\n 36040: a3 = a2 | a0\n 36043: a1 = u8 [a4 + 0x1d]\n 36046: a2 = u8 [a4 + 0x1c]\n 36049: s1 = u8 [a4 + 0x1e]\n 36052: a0 = u8 [a4 + 0x1f]\n 36055: a1 = a1 << 0x8\n 36058: a1 = a1 | a2\n 36061: s1 = s1 << 0x10\n 36064: a0 = a0 << 0x18\n 36067: a0 = a0 | s1\n 36070: a0 = a0 | a1\n 36073: a0 = a0 << 0x20\n 36076: s1 = a0 | a3\n 36079: a0 = u8 [a4 + 0x11]\n 36082: a1 = u8 [a4 + 0x10]\n 36085: a2 = u8 [a4 + 0x12]\n 36088: a3 = u8 [a4 + 0x13]\n 36091: a0 = a0 << 0x8\n 36094: a0 = a0 | a1\n 36097: a2 = a2 << 0x10\n 36100: a3 = a3 << 0x18\n 36103: a2 = a2 | a3\n 36106: a5 = a2 | a0\n 36109: a1 = u8 [a4 + 0x15]\n 36112: a2 = u8 [a4 + 0x14]\n 36115: a3 = u8 [a4 + 0x16]\n 36118: a0 = u8 [a4 + 0x17]\n 36121: a1 = a1 << 0x8\n 36124: a1 = a1 | a2\n 36127: a3 = a3 << 0x10\n 36130: a0 = a0 << 0x18\n 36133: a0 = a0 | a3\n 36136: a0 = a0 | a1\n 36139: a0 = a0 << 0x20\n 36142: t0 = a0 | a5\n 36145: a0 = u8 [a4 + 0x9]\n 36148: a2 = u8 [a4 + 0x8]\n 36151: a3 = u8 [a4 + 0xa]\n 36154: a5 = u8 [a4 + 0xb]\n 36157: a0 = a0 << 0x8\n 36160: a0 = a0 | a2\n 36163: a3 = a3 << 0x10\n 36166: a5 = a5 << 0x18\n 36169: a3 = a3 | a5\n 36172: a1 = a3 | a0\n 36175: a2 = u8 [a4 + 0xd]\n 36178: a3 = u8 [a4 + 0xc]\n 36181: a5 = u8 [a4 + 0xe]\n 36184: a0 = u8 [a4 + 0xf]\n 36187: a2 = a2 << 0x8\n 36190: a2 = a2 | a3\n 36193: a5 = a5 << 0x10\n 36196: a0 = a0 << 0x18\n 36199: a0 = a0 | a5\n 36202: a0 = a0 | a2\n 36205: a0 = a0 << 0x20\n 36208: a0 = a0 | a1\n 36211: a1 = u8 [a4 + 0x1]\n 36214: a2 = u8 [a4]\n 36216: a3 = u8 [a4 + 0x2]\n 36219: a5 = u8 [a4 + 0x3]\n 36222: a1 = a1 << 0x8\n 36225: a1 = a1 | a2\n 36228: a3 = a3 << 0x10\n 36231: a5 = a5 << 0x18\n 36234: a3 = a3 | a5\n 36237: a1 = a1 | a3\n 36240: a2 = u8 [a4 + 0x5]\n 36243: a3 = u8 [a4 + 0x4]\n 36246: a5 = u8 [a4 + 0x6]\n 36249: a4 = u8 [a4 + 0x7]\n 36252: a2 = a2 << 0x8\n 36255: a2 = a2 | a3\n 36258: a5 = a5 << 0x10\n 36261: a4 = a4 << 0x18\n 36264: a4 = a4 | a5\n 36267: a2 = a2 | a4\n 36270: a2 = a2 << 0x20\n 36273: a4 = a2 | a1\n 36276: t2 = 0 if t1 != 0\n 36278: ra = 0 if t1 != 0\n 36280: a5 = u64 [sp + 0x10]\n 36283: a5 = 0 if t1 != 0\n 36285: a2 = u64 [sp + 0x18]\n 36288: a2 = 0 if t1 != 0\n 36290: a4 = 0 if t1 != 0\n 36292: a0 = 0 if t1 != 0\n 36294: t0 = 0 if t1 != 0\n 36296: s1 = 0 if t1 != 0\n 36298: a1 = u64 [sp + 0x38]\n 36301: t1 = a1 & ~a2\n 36304: a2 = a2 & s1\n 36307: a1 = u64 [sp + 0x40]\n 36310: a3 = a1 & ~a5\n 36313: a5 = t0 & a5\n 36316: a1 = u64 [sp + 0x48]\n 36319: s1 = a1 & ~ra\n 36322: a0 = a0 & ra\n 36325: a1 = u64 [sp + 0x58]\n 36328: a1 = a1 & ~t2\n 36331: a4 = a4 & t2\n 36334: a1 = a1 | a4\n 36337: a0 = a0 | s1\n 36340: a3 = a3 | a5\n 36343: a2 = t1 | a2\n 36346: a4 = u64 [sp + 0x60]\n 36349: u64 [sp + 0x1f8] = a4\n 36353: a4 = u64 [sp + 0x68]\n 36356: u64 [sp + 0x1f0] = a4\n 36360: a4 = u64 [sp + 0x70]\n 36363: u64 [sp + 0x1e8] = a4\n 36367: a4 = u64 [sp + 0x78]\n 36370: u64 [sp + 0x1e0] = a4\n 36374: u64 [sp + 0x218] = a2\n 36378: u64 [sp + 0x210] = a3\n 36382: u64 [sp + 0x208] = a0\n 36386: u64 [sp + 0x200] = a1\n 36390: i32 a1 = sp + 0x1e0\n 36394: i32 a3 = sp + 0x200\n 36398: a2 = 0xffffffffffffffff\n 36401: a4 = 0x20\n 36404: a0 = 0\n 36406: ecalli 16 // 'set_storage'\n 36408: sp = s0 + 0xfffffffffffffdc0\n 36412: ra = u64 [sp + 0x238]\n 36416: s0 = u64 [sp + 0x230]\n 36420: s1 = u64 [sp + 0x228]\n 36424: sp = sp + 0x240\n 36428: ret\n      : @501 (gas: 8)\n 36430: u64 [sp + 176] = 0\n 36434: u64 [sp + 168] = 0\n 36438: u64 [sp + 160] = 0\n 36442: a0 = 0x4e487b7100000000\n 36452: a1 = sp + 0xa0\n 36456: u64 [sp + 0xb8] = a0\n 36460: a0 = 0\n 36462: ra = 440, jump @8\n      : @502 [@dyn 220] (gas: 7)\n 36469: u64 [sp + 152] = 0\n 36473: u64 [sp + 144] = 0\n 36477: u64 [sp + 128] = 0x41\n 36482: a0 = 0x4\n 36485: a1 = sp + 0x80\n 36489: u64 [sp + 136] = 0\n 36493: ra = 442, jump @8\n      : @503 [@dyn 221] (gas: 3)\n 36500: a1 = 0x24\n 36503: a0 = 0\n 36505: ra = 444, jump @0\n      : @504 [@dyn 222] (gas: 6)\n 36512: i32 a1 = a0 + 0\n 36514: a0 = 0x1\n 36517: a2 = 0x24\n 36520: ra = 0x1be\n 36524: ecalli 14 // 'seal_return'\n 36526: fallthrough\n      : @505 [@dyn 223] (gas: 17)\n 36527: sp = sp + 0xffffffffffffff20\n 36531: u64 [sp + 0xd8] = ra\n 36535: u64 [sp + 0xd0] = s0\n 36539: u64 [sp + 0xc8] = s1\n 36543: t0 = u64 [a1 + 0x18]\n 36546: t1 = u64 [a1 + 0x10]\n 36549: s1 = u64 [a1 + 0x8]\n 36552: t2 = u64 [a1]\n 36554: a1 = s1 | t0\n 36557: s0 = t2 | t1\n 36560: s0 = s0 | a1\n 36563: s0 = s0 >> 0x20\n 36566: a1 = a1 | t1\n 36569: a1 = a1 << 0x20\n 36572: a1 = a1 | s0\n 36575: u64 [sp + 0x48] = a0\n 36578: jump @519 if a1 != 0\n      : @506 (gas: 48)\n 36582: a0 = u64 [a5 + 0x18]\n 36585: u64 [sp + 0x20] = a0\n 36588: a0 = u64 [a5 + 0x10]\n 36591: u64 [sp + 0x28] = a0\n 36594: a0 = u64 [a5 + 0x8]\n 36597: u64 [sp + 0x30] = a0\n 36600: a0 = u64 [a5]\n 36602: u64 [sp + 0x38] = a0\n 36605: a0 = u64 [a4 + 0x10]\n 36608: u64 [sp + 0x10] = a0\n 36611: s0 = t2 + 0x60\n 36614: a0 = s0 <u t2\n 36617: a1 = s1 + a0\n 36620: u64 [sp + 0xb8] = a1\n 36624: u64 [sp + 0x60] = s1\n 36627: a1 = a1 <u s1\n 36630: a1 = a0 if a0 == 0\n 36633: a0 = u64 [a4 + 0x8]\n 36636: u64 [sp] = a0\n 36638: a0 = u64 [a4]\n 36640: u64 [sp + 0x8] = a0\n 36643: a0 = u64 [a3 + 0x18]\n 36646: u64 [sp + 0xa8] = a0\n 36650: a0 = u64 [a3 + 0x10]\n 36653: u64 [sp + 0xa0] = a0\n 36657: a0 = u64 [a3 + 0x8]\n 36660: u64 [sp + 0x98] = a0\n 36664: a0 = u64 [a3]\n 36666: u64 [sp + 0xc0] = a0\n 36670: a0 = u64 [a2 + 0x18]\n 36673: u64 [sp + 0x80] = a0\n 36677: a0 = u64 [a2 + 0x10]\n 36680: u64 [sp + 0x88] = a0\n 36684: a0 = u64 [a2 + 0x8]\n 36687: u64 [sp + 0x78] = a0\n 36690: a0 = u64 [a2]\n 36692: u64 [sp + 0x90] = a0\n 36696: s1 = t1 + a1\n 36699: u64 [sp + 0x68] = t1\n 36702: a0 = s1 <u t1\n 36705: u64 [sp + 0x70] = t0\n 36708: a0 = a0 + t0\n 36711: u64 [sp + 0xb0] = a0\n 36715: u64 [sp + 0x58] = t2\n 36718: i32 a0 = t2 + 0\n 36720: a1 = 0x20\n 36723: u64 [sp + 0x18] = a0\n 36726: ra = 448, jump @0\n      : @507 [@dyn 224] (gas: 43)\n 36733: u8 [a0 + 31] = 0x60\n 36737: a1 = s0 | s1\n 36740: a2 = u64 [sp + 0xb8]\n 36744: a4 = u64 [sp + 0xb0]\n 36748: a2 = a2 | a4\n 36751: a1 = a1 | a2\n 36754: a1 = a1 >> 0x20\n 36757: u64 [sp + 0x50] = s1\n 36760: a2 = a2 | s1\n 36763: a2 = a2 << 0x20\n 36766: a1 = a1 | a2\n 36769: u8 [a0 + 30] = 0\n 36772: u8 [a0 + 29] = 0\n 36775: u8 [a0 + 28] = 0\n 36778: u8 [a0 + 27] = 0\n 36781: u8 [a0 + 26] = 0\n 36784: u8 [a0 + 25] = 0\n 36787: u8 [a0 + 24] = 0\n 36790: u8 [a0 + 23] = 0\n 36793: u8 [a0 + 22] = 0\n 36796: u8 [a0 + 21] = 0\n 36799: u8 [a0 + 20] = 0\n 36802: u8 [a0 + 19] = 0\n 36805: u8 [a0 + 18] = 0\n 36808: u8 [a0 + 17] = 0\n 36811: u8 [a0 + 16] = 0\n 36814: u8 [a0 + 15] = 0\n 36817: u8 [a0 + 14] = 0\n 36820: u8 [a0 + 13] = 0\n 36823: u8 [a0 + 12] = 0\n 36826: u8 [a0 + 11] = 0\n 36829: u8 [a0 + 10] = 0\n 36832: u8 [a0 + 9] = 0\n 36835: u8 [a0 + 8] = 0\n 36838: u8 [a0 + 7] = 0\n 36841: u8 [a0 + 6] = 0\n 36844: u8 [a0 + 5] = 0\n 36847: u8 [a0 + 4] = 0\n 36850: u8 [a0 + 3] = 0\n 36853: u8 [a0 + 2] = 0\n 36856: u8 [a0 + 1] = 0\n 36859: u8 [a0 + 0] = 0\n 36861: jump @519 if a1 != 0\n      : @508 (gas: 4)\n 36865: u64 [sp + 0x40] = s0\n 36868: i32 a0 = s0 + 0\n 36870: a1 = 0x20\n 36873: ra = 450, jump @0\n      : @509 [@dyn 225] (gas: 80)\n 36880: t0 = u64 [sp + 0xc0]\n 36884: a1 = reverse t0\n 36886: a2 = a1 >> 0x38\n 36889: u8 [a0 + 0x1f] = a2\n 36892: a2 = a1 >> 0x30\n 36895: u8 [a0 + 0x1e] = a2\n 36898: a2 = a1 >> 0x28\n 36901: u8 [a0 + 0x1d] = a2\n 36904: a2 = a1 >> 0x20\n 36907: u8 [a0 + 0x1c] = a2\n 36910: a2 = a1 >> 0x18\n 36913: u8 [a0 + 0x1b] = a2\n 36916: a2 = a1 >> 0x10\n 36919: u8 [a0 + 0x1a] = a2\n 36922: a2 = a1 >> 0x8\n 36925: u8 [a0 + 0x19] = a2\n 36928: a5 = u64 [sp + 0x98]\n 36932: a2 = reverse a5\n 36934: u8 [a0 + 0x18] = a1\n 36937: a1 = a2 >> 0x38\n 36940: u8 [a0 + 0x17] = a1\n 36943: a1 = a2 >> 0x30\n 36946: u8 [a0 + 0x16] = a1\n 36949: a1 = a2 >> 0x28\n 36952: u8 [a0 + 0x15] = a1\n 36955: a1 = a2 >> 0x20\n 36958: u8 [a0 + 0x14] = a1\n 36961: a1 = a2 >> 0x18\n 36964: u8 [a0 + 0x13] = a1\n 36967: a1 = a2 >> 0x10\n 36970: u8 [a0 + 0x12] = a1\n 36973: a4 = u64 [sp + 0xa0]\n 36977: a3 = reverse a4\n 36979: u8 [a0 + 0x10] = a2\n 36982: a2 = a2 >> 0x8\n 36985: u8 [a0 + 0x11] = a2\n 36988: a1 = a3 >> 0x38\n 36991: u8 [a0 + 0xf] = a1\n 36994: a1 = a3 >> 0x30\n 36997: u8 [a0 + 0xe] = a1\n 37000: a1 = a3 >> 0x28\n 37003: u8 [a0 + 0xd] = a1\n 37006: a1 = a3 >> 0x20\n 37009: u8 [a0 + 0xc] = a1\n 37012: a1 = a3 >> 0x18\n 37015: u8 [a0 + 0xb] = a1\n 37018: a1 = a3 >> 0x10\n 37021: u8 [a0 + 0xa] = a1\n 37024: s1 = u64 [sp + 0xa8]\n 37028: a1 = reverse s1\n 37030: u8 [a0 + 0x8] = a3\n 37033: a3 = a3 >> 0x8\n 37036: u8 [a0 + 0x9] = a3\n 37039: a2 = a1 >> 0x38\n 37042: u8 [a0 + 0x7] = a2\n 37045: a2 = a1 >> 0x30\n 37048: u8 [a0 + 0x6] = a2\n 37051: a2 = a1 >> 0x28\n 37054: u8 [a0 + 0x5] = a2\n 37057: a2 = a1 >> 0x20\n 37060: u8 [a0 + 0x4] = a2\n 37063: a2 = a1 >> 0x18\n 37066: u8 [a0 + 0x3] = a2\n 37069: a2 = a1 >> 0x10\n 37072: u8 [a0 + 0x2] = a2\n 37075: a2 = u64 [sp + 0x80]\n 37079: s0 = u64 [sp + 0x78]\n 37082: s0 = s0 | a2\n 37085: t2 = u64 [sp + 0x90]\n 37089: a2 = u64 [sp + 0x88]\n 37093: a3 = t2 | a2\n 37096: a3 = a3 | s0\n 37099: a2 = a2 | s0\n 37102: a3 = a3 >> 0x20\n 37105: a2 = a2 << 0x20\n 37108: a2 = a2 | a3\n 37111: u8 [a0] = a1\n 37113: a1 = a1 >> 0x8\n 37116: u8 [a0 + 0x1] = a1\n 37119: jump @519 if a2 != 0\n      : @510 (gas: 13)\n 37123: a3 = a4\n 37125: a0 = t0 | a3\n 37128: a1 = a5 | s1\n 37131: a0 = a0 | a1\n 37134: a0 = a0 >> 0x20\n 37137: a1 = a1 | a3\n 37140: a1 = a1 << 0x20\n 37143: a0 = a0 | a1\n 37146: t1 = u64 [sp + 0x70]\n 37149: a2 = u64 [sp + 0x68]\n 37152: a5 = u64 [sp + 0x60]\n 37155: a4 = u64 [sp + 0x58]\n 37158: jump @519 if a0 != 0\n      : @511 (gas: 10)\n 37162: a0 = u64 [sp + 0x50]\n 37165: a1 = u64 [sp + 0xb0]\n 37169: a0 = a0 | a1\n 37172: a1 = 0xffffffe0\n 37182: a3 = u64 [sp + 0x40]\n 37185: a1 = a3 <u a1\n 37188: a3 = u64 [sp + 0xb8]\n 37192: a1 = 0 if a3 != 0\n 37194: a1 = 0 if a0 != 0\n 37196: jump @519 if a1 == 0\n      : @512 (gas: 17)\n 37200: s1 = a4 + 0x80\n 37204: a0 = s1 <u a4\n 37207: a1 = a5 + a0\n 37210: u64 [sp + 0xb0] = a1\n 37214: a1 = a1 <u a5\n 37217: a1 = a0 if a0 == 0\n 37220: a1 = a1 + a2\n 37223: u64 [sp + 0xb8] = a1\n 37227: a0 = a1 <u a2\n 37230: a0 = a0 + t1\n 37233: u64 [sp + 0x88] = a0\n 37237: i32 t2 = t2 + 0\n 37239: u64 [sp + 0x90] = t2\n 37243: i32 a0 = s1 + 0\n 37245: i32 s0 = t0 + 0\n 37247: a1 = s0\n 37249: ra = 452, jump @0\n      : @513 [@dyn 226] (gas: 6)\n 37256: i32 a0 = a0 + 0\n 37258: a1 = s0\n 37260: s0 = u64 [sp + 0xb0]\n 37264: a2 = u64 [sp + 0x90]\n 37268: ecalli 2 // 'call_data_copy'\n 37270: fallthrough\n      : @514 (gas: 29)\n 37271: a0 = u64 [sp + 0xc0]\n 37275: a0 = a0 + s1\n 37278: u64 [sp + 0x90] = s1\n 37282: a1 = a0 <u s1\n 37285: s1 = u64 [sp + 0x88]\n 37289: a2 = u64 [sp + 0x98]\n 37293: a2 = a2 + s0\n 37296: a2 = a2 + a1\n 37299: a3 = a2 ^ s0\n 37302: a4 = a2 <u s0\n 37305: a4 = a1 if a3 == 0\n 37308: a1 = u64 [sp + 0xa0]\n 37312: a5 = u64 [sp + 0xb8]\n 37316: a1 = a1 + a5\n 37319: a4 = a4 + a1\n 37322: a3 = a4 <u a1\n 37325: a1 = a1 <u a5\n 37328: a5 = u64 [sp + 0xa8]\n 37332: a5 = a5 + s1\n 37335: a1 = a1 + a5\n 37338: a1 = a1 + a3\n 37341: a3 = a0 | a4\n 37344: a1 = a1 | a2\n 37347: a3 = a3 | a1\n 37350: a3 = a3 >> 0x20\n 37353: a1 = a1 | a4\n 37356: a1 = a1 << 0x20\n 37359: a1 = a1 | a3\n 37362: jump @519 if a1 != 0\n      : @515 (gas: 3)\n 37366: i32 a0 = a0 + 0\n 37368: a1 = 0x20\n 37371: ra = 454, jump @0\n      : @516 [@dyn 227] (gas: 57)\n 37378: u8 [a0 + 31] = 0\n 37381: u8 [a0 + 30] = 0\n 37384: u8 [a0 + 29] = 0\n 37387: u8 [a0 + 28] = 0\n 37390: u8 [a0 + 27] = 0\n 37393: u8 [a0 + 26] = 0\n 37396: u8 [a0 + 25] = 0\n 37399: u8 [a0 + 24] = 0\n 37402: u8 [a0 + 23] = 0\n 37405: u8 [a0 + 22] = 0\n 37408: u8 [a0 + 21] = 0\n 37411: u8 [a0 + 20] = 0\n 37414: u8 [a0 + 19] = 0\n 37417: u8 [a0 + 18] = 0\n 37420: u8 [a0 + 17] = 0\n 37423: u8 [a0 + 16] = 0\n 37426: u8 [a0 + 15] = 0\n 37429: u8 [a0 + 14] = 0\n 37432: u8 [a0 + 13] = 0\n 37435: u8 [a0 + 12] = 0\n 37438: u8 [a0 + 11] = 0\n 37441: u8 [a0 + 10] = 0\n 37444: u8 [a0 + 9] = 0\n 37447: u8 [a0 + 8] = 0\n 37450: u8 [a0 + 7] = 0\n 37453: u8 [a0 + 6] = 0\n 37456: u8 [a0 + 5] = 0\n 37459: u8 [a0 + 4] = 0\n 37462: u8 [a0 + 3] = 0\n 37465: u8 [a0 + 2] = 0\n 37468: u8 [a0 + 1] = 0\n 37471: u8 [a0 + 0] = 0\n 37473: a0 = u64 [sp + 0xc0]\n 37477: a0 = a0 + 0x1f\n 37480: a1 = 0x1ffffffe0\n 37490: a0 = a0 & a1\n 37493: a1 = u64 [sp + 0x90]\n 37497: a1 = a1 + a0\n 37500: u64 [sp + 0xc0] = a1\n 37504: s0 = a1 <u a0\n 37507: a0 = u64 [sp + 0xb0]\n 37511: a0 = a0 + s0\n 37514: u64 [sp + 0xb0] = a0\n 37518: s0 = 0 if a0 != 0\n 37520: a0 = u64 [sp + 0xb8]\n 37524: s0 = s0 + a0\n 37527: u64 [sp + 0xa8] = s0\n 37531: a0 = s0 <u a0\n 37534: a0 = a0 + s1\n 37537: u64 [sp + 0xb8] = a0\n 37541: a0 = u64 [sp + 0x10]\n 37544: a0 = a0 << 0x20\n 37547: s1 = a0 >> 0x20\n 37550: s0 = u64 [sp + 0x18]\n 37553: i32 a0 = s0 + 0x20\n 37556: a1 = 0x20\n 37559: ra = 456, jump @0\n      : @517 [@dyn 228] (gas: 58)\n 37566: a1 = reverse s1\n 37568: a2 = u64 [sp]\n 37570: a2 = reverse a2\n 37572: a3 = u64 [sp + 0x8]\n 37575: a3 = reverse a3\n 37577: a4 = a3 >> 0x38\n 37580: u8 [a0 + 0x1f] = a4\n 37583: a4 = a3 >> 0x30\n 37586: u8 [a0 + 0x1e] = a4\n 37589: a4 = a3 >> 0x28\n 37592: u8 [a0 + 0x1d] = a4\n 37595: a4 = a3 >> 0x20\n 37598: u8 [a0 + 0x1c] = a4\n 37601: a4 = a3 >> 0x18\n 37604: u8 [a0 + 0x1b] = a4\n 37607: a4 = a3 >> 0x10\n 37610: u8 [a0 + 0x1a] = a4\n 37613: a4 = a3 >> 0x8\n 37616: u8 [a0 + 0x19] = a4\n 37619: u8 [a0 + 0x18] = a3\n 37622: a3 = a2 >> 0x38\n 37625: u8 [a0 + 0x17] = a3\n 37628: a3 = a2 >> 0x30\n 37631: u8 [a0 + 0x16] = a3\n 37634: a3 = a2 >> 0x28\n 37637: u8 [a0 + 0x15] = a3\n 37640: a3 = a2 >> 0x20\n 37643: u8 [a0 + 0x14] = a3\n 37646: a3 = a2 >> 0x18\n 37649: u8 [a0 + 0x13] = a3\n 37652: a3 = a2 >> 0x10\n 37655: u8 [a0 + 0x12] = a3\n 37658: a3 = a2 >> 0x8\n 37661: u8 [a0 + 0x11] = a3\n 37664: u8 [a0 + 0x10] = a2\n 37667: u8 [a0 + 11] = 0\n 37670: u8 [a0 + 10] = 0\n 37673: u8 [a0 + 9] = 0\n 37676: u8 [a0 + 0x8] = a1\n 37679: u8 [a0 + 7] = 0\n 37682: u8 [a0 + 6] = 0\n 37685: u8 [a0 + 5] = 0\n 37688: u8 [a0 + 4] = 0\n 37691: u8 [a0 + 3] = 0\n 37694: u8 [a0 + 2] = 0\n 37697: u8 [a0 + 1] = 0\n 37700: u8 [a0 + 0] = 0\n 37702: a2 = a1 >> 0x38\n 37705: u8 [a0 + 0xf] = a2\n 37708: a2 = a1 >> 0x30\n 37711: u8 [a0 + 0xe] = a2\n 37714: a2 = a1 >> 0x28\n 37717: u8 [a0 + 0xd] = a2\n 37720: a1 = a1 >> 0x20\n 37723: u8 [a0 + 0xc] = a1\n 37726: i32 a0 = s0 + 0x40\n 37729: a1 = 0x20\n 37732: ra = 458, jump @0\n      : @518 [@dyn 229] (gas: 82)\n 37739: a1 = u64 [sp + 0x20]\n 37742: a1 = reverse a1\n 37744: a2 = u64 [sp + 0x28]\n 37747: a2 = reverse a2\n 37749: a3 = u64 [sp + 0x30]\n 37752: a3 = reverse a3\n 37754: a4 = u64 [sp + 0x38]\n 37757: a4 = reverse a4\n 37759: a5 = a4 >> 0x38\n 37762: u8 [a0 + 0x1f] = a5\n 37765: a5 = a4 >> 0x30\n 37768: u8 [a0 + 0x1e] = a5\n 37771: a5 = a4 >> 0x28\n 37774: u8 [a0 + 0x1d] = a5\n 37777: a5 = a4 >> 0x20\n 37780: u8 [a0 + 0x1c] = a5\n 37783: a5 = a4 >> 0x18\n 37786: u8 [a0 + 0x1b] = a5\n 37789: a5 = a4 >> 0x10\n 37792: u8 [a0 + 0x1a] = a5\n 37795: a5 = a4 >> 0x8\n 37798: u8 [a0 + 0x19] = a5\n 37801: u8 [a0 + 0x18] = a4\n 37804: a4 = a3 >> 0x38\n 37807: u8 [a0 + 0x17] = a4\n 37810: a4 = a3 >> 0x30\n 37813: u8 [a0 + 0x16] = a4\n 37816: a4 = a3 >> 0x28\n 37819: u8 [a0 + 0x15] = a4\n 37822: a4 = a3 >> 0x20\n 37825: u8 [a0 + 0x14] = a4\n 37828: a4 = a3 >> 0x18\n 37831: u8 [a0 + 0x13] = a4\n 37834: a4 = a3 >> 0x10\n 37837: u8 [a0 + 0x12] = a4\n 37840: a4 = a3 >> 0x8\n 37843: u8 [a0 + 0x11] = a4\n 37846: u8 [a0 + 0x10] = a3\n 37849: a3 = a2 >> 0x38\n 37852: u8 [a0 + 0xf] = a3\n 37855: a3 = a2 >> 0x30\n 37858: u8 [a0 + 0xe] = a3\n 37861: a3 = a2 >> 0x28\n 37864: u8 [a0 + 0xd] = a3\n 37867: a3 = a2 >> 0x20\n 37870: u8 [a0 + 0xc] = a3\n 37873: a3 = a2 >> 0x18\n 37876: u8 [a0 + 0xb] = a3\n 37879: a3 = a2 >> 0x10\n 37882: u8 [a0 + 0xa] = a3\n 37885: a3 = a2 >> 0x8\n 37888: u8 [a0 + 0x9] = a3\n 37891: u8 [a0 + 0x8] = a2\n 37894: a2 = a1 >> 0x38\n 37897: u8 [a0 + 0x7] = a2\n 37900: a2 = a1 >> 0x30\n 37903: u8 [a0 + 0x6] = a2\n 37906: a2 = a1 >> 0x28\n 37909: u8 [a0 + 0x5] = a2\n 37912: a2 = a1 >> 0x20\n 37915: u8 [a0 + 0x4] = a2\n 37918: a2 = a1 >> 0x18\n 37921: u8 [a0 + 0x3] = a2\n 37924: a2 = a1 >> 0x10\n 37927: u8 [a0 + 0x2] = a2\n 37930: a2 = a1 >> 0x8\n 37933: u8 [a0 + 0x1] = a2\n 37936: u8 [a0] = a1\n 37938: a0 = u64 [sp + 0x48]\n 37941: a1 = u64 [sp + 0xc0]\n 37945: u64 [a0] = a1\n 37947: a1 = u64 [sp + 0xb8]\n 37951: u64 [a0 + 0x18] = a1\n 37954: a1 = u64 [sp + 0xb0]\n 37958: u64 [a0 + 0x8] = a1\n 37961: a1 = u64 [sp + 0xa8]\n 37965: u64 [a0 + 0x10] = a1\n 37968: ra = u64 [sp + 0xd8]\n 37972: s0 = u64 [sp + 0xd0]\n 37976: s1 = u64 [sp + 0xc8]\n 37980: sp = sp + 0xe0\n 37984: ret\n      : @519 (gas: 1)\n 37986: trap\n      : @520 (gas: 21)\n 37987: sp = sp + 0xfffffffffffffe10\n 37991: u64 [sp + 0x1e8] = ra\n 37995: u64 [sp + 0x1e0] = s0\n 37999: u64 [sp + 0x1d8] = s1\n 38003: s0 = sp + 0x1f0\n 38007: sp = sp + 0xfffffffffffff9d0\n 38011: sp = sp & 0xffffffffffffffe0\n 38014: s1 = sp\n 38016: t1 = u64 [a2 + 0x10]\n 38019: t2 = u64 [a2 + 0x18]\n 38022: t0 = u64 [a2 + 0x8]\n 38025: a2 = u64 [a2]\n 38027: u64 [s1 + 0x268] = t0\n 38031: u64 [s1 + 0x260] = t2\n 38035: t0 = t0 | t2\n 38038: u64 [s1 + 0x278] = t1\n 38042: u64 [s1 + 0x270] = a2\n 38046: a2 = a2 | t1\n 38049: a2 = a2 | t0\n 38052: u64 [s1 + 0x98] = a0\n 38056: jump @522 if a2 != 0\n      : @521 (gas: 1)\n 38059: jump @566\n      : @522 (gas: 70)\n 38062: a0 = u64 [s0 + 0x10]\n 38065: a2 = u64 [a0 + 0x18]\n 38068: u64 [s1 + 0x138] = a2\n 38072: t0 = u64 [s0 + 0x8]\n 38075: a2 = u64 [a0 + 0x10]\n 38078: u64 [s1 + 0x118] = a2\n 38082: a2 = u64 [a0 + 0x8]\n 38085: u64 [s1 + 0x120] = a2\n 38089: a0 = u64 [a0]\n 38091: u64 [s1 + 0x128] = a0\n 38095: a0 = u64 [t0 + 0x18]\n 38098: u64 [s1 + 0x130] = a0\n 38102: a0 = u64 [s0]\n 38104: a2 = u64 [t0 + 0x10]\n 38107: u64 [s1 + 0xa0] = a2\n 38111: a2 = u64 [t0 + 0x8]\n 38114: u64 [s1 + 0xa8] = a2\n 38118: a2 = u64 [t0]\n 38120: u64 [s1 + 0xb0] = a2\n 38124: a2 = u64 [a0 + 0x18]\n 38127: u64 [s1 + 0xb8] = a2\n 38131: a2 = u64 [a0 + 0x10]\n 38134: u64 [s1 + 0xc0] = a2\n 38138: a2 = u64 [a0 + 0x8]\n 38141: u64 [s1 + 0xc8] = a2\n 38145: a0 = u64 [a0]\n 38147: u64 [s1 + 0xd0] = a0\n 38151: a0 = u64 [a5 + 0x18]\n 38154: u64 [s1 + 0xd8] = a0\n 38158: a0 = u64 [a5 + 0x10]\n 38161: u64 [s1 + 0xe0] = a0\n 38165: a0 = u64 [a5 + 0x8]\n 38168: u64 [s1 + 0xe8] = a0\n 38172: a0 = u64 [a5]\n 38174: u64 [s1 + 0xf0] = a0\n 38178: a0 = u64 [a4 + 0x18]\n 38181: u64 [s1 + 0xf8] = a0\n 38185: a0 = u64 [a4 + 0x10]\n 38188: u64 [s1 + 0x100] = a0\n 38192: a0 = u64 [a4 + 0x8]\n 38195: u64 [s1 + 0x108] = a0\n 38199: a0 = u64 [a4]\n 38201: u64 [s1 + 0x110] = a0\n 38205: a0 = u64 [a3 + 0x18]\n 38208: u64 [s1 + 0x280] = a0\n 38212: a0 = u64 [a3 + 0x10]\n 38215: u64 [s1 + 0x288] = a0\n 38219: a0 = u64 [a3 + 0x8]\n 38222: u64 [s1 + 0x290] = a0\n 38226: a0 = u64 [a3]\n 38228: u64 [s1 + 0x298] = a0\n 38232: a0 = u64 [a1 + 0x18]\n 38235: u64 [s1 + 0x240] = a0\n 38239: a0 = u64 [a1 + 0x10]\n 38242: u64 [s1 + 0x248] = a0\n 38246: a0 = u64 [a1 + 0x8]\n 38249: u64 [s1 + 0x250] = a0\n 38253: a0 = u64 [a1]\n 38255: u64 [s1 + 0x258] = a0\n 38259: a0 = sp + 0xffffffffffffffe0\n 38262: a0 = a0 & 0xffffffffffffffe0\n 38265: u64 [s1 + 0x2b8] = a0\n 38269: sp = a0\n 38271: u64 [a0 + 24] = 0\n 38274: u64 [a0 + 16] = 0\n 38277: u64 [a0 + 8] = 0\n 38280: u64 [a0 + 0] = 0\n 38282: i32 a0 = a0 + 0\n 38284: ecalli 17 // 'value_transferred'\n 38286: fallthrough\n      : @523 (gas: 21)\n 38287: a1 = u64 [s1 + 0x2b8]\n 38291: a0 = u64 [a1 + 0x18]\n 38294: t0 = u64 [a1]\n 38296: a2 = u64 [a1 + 0x10]\n 38299: a3 = u64 [a1 + 0x8]\n 38302: a1 = u64 [s1 + 0x280]\n 38306: a4 = a0 ^ a1\n 38309: a1 = a0 <u a1\n 38312: a0 = u64 [s1 + 0x288]\n 38316: a5 = a2 <u a0\n 38319: a5 = a1 if a4 != 0\n 38322: a1 = u64 [s1 + 0x290]\n 38326: t1 = a3 ^ a1\n 38329: a3 = a3 <u a1\n 38332: a1 = u64 [s1 + 0x298]\n 38336: a1 = t0 <u a1\n 38339: a1 = a3 if t1 != 0\n 38342: a0 = a0 ^ a2\n 38345: a0 = a0 | a4\n 38348: a1 = a5 if a0 != 0\n 38351: jump @525 if a1 == 0\n      : @524 (gas: 1)\n 38354: jump @571\n      : @525 (gas: 26)\n 38357: a0 = u32 [0x20084]\n 38362: u64 [s1 + 1592] = 0\n 38366: u64 [s1 + 1584] = 0\n 38370: u64 [s1 + 1576] = 0\n 38374: u64 [s1 + 0x620] = a0\n 38378: a0 = u64 [s1 + 0x278]\n 38382: u64 [s1 + 0x650] = a0\n 38386: a0 = u64 [s1 + 0x268]\n 38390: u64 [s1 + 0x648] = a0\n 38394: a0 = u64 [s1 + 0x270]\n 38398: u64 [s1 + 0x640] = a0\n 38402: a0 = u64 [s1 + 0x248]\n 38406: u64 [s1 + 0x670] = a0\n 38410: a0 = u64 [s1 + 0x250]\n 38414: u64 [s1 + 0x668] = a0\n 38418: a0 = u64 [s1 + 0x258]\n 38422: u64 [s1 + 0x660] = a0\n 38426: a0 = u64 [s1 + 0x260]\n 38430: u64 [s1 + 0x658] = a0\n 38434: a0 = s1 + 0x680\n 38438: a1 = s1 + 0x660\n 38442: a2 = s1 + 0x640\n 38446: a3 = s1 + 0x620\n 38450: a4 = u64 [s1 + 0x240]\n 38454: u64 [s1 + 0x678] = a4\n 38458: ra = 460, jump @434\n      : @526 [@dyn 230] (gas: 15)\n 38464: a1 = u64 [s1 + 0x698]\n 38468: a3 = u64 [s1 + 0x690]\n 38472: a0 = u64 [s1 + 0x688]\n 38476: a2 = u64 [s1 + 0x680]\n 38480: u64 [s1 + 0x2b8] = a0\n 38484: u64 [s1 + 0x2b0] = a1\n 38488: a0 = a0 | a1\n 38491: a1 = a2 | a3\n 38494: a1 = a1 | a0\n 38497: a1 = a1 >> 0x20\n 38500: u64 [s1 + 0x2a8] = a3\n 38504: a0 = a0 | a3\n 38507: a0 = a0 << 0x20\n 38510: a0 = a0 | a1\n 38513: jump @528 if a0 == 0\n      : @527 (gas: 1)\n 38516: jump @582\n      : @528 (gas: 5)\n 38519: i32 a0 = a2 + 0\n 38521: a1 = 0x20\n 38524: u64 [s1 + 0x238] = a0\n 38528: u64 [s1 + 0x2a0] = a2\n 38532: ra = 462, jump @0\n      : @529 [@dyn 231] (gas: 10)\n 38539: a1 = u64 [s1 + 0x2b0]\n 38543: a2 = u64 [s1 + 0x2a8]\n 38547: a1 = a1 | a2\n 38550: a2 = 0xffffffe0\n 38560: a3 = u64 [s1 + 0x2a0]\n 38564: a2 = a3 <u a2\n 38567: a3 = u64 [s1 + 0x2b8]\n 38571: a2 = 0 if a3 != 0\n 38573: a2 = 0 if a1 != 0\n 38575: jump @531 if a2 != 0\n      : @530 (gas: 1)\n 38578: jump @582\n      : @531 (gas: 100)\n 38581: a1 = u8 [a0 + 0x19]\n 38584: a2 = u8 [a0 + 0x18]\n 38587: a3 = u8 [a0 + 0x1a]\n 38590: a4 = u8 [a0 + 0x1b]\n 38593: a1 = a1 << 0x8\n 38596: a1 = a1 | a2\n 38599: a3 = a3 << 0x10\n 38602: a4 = a4 << 0x18\n 38605: a3 = a3 | a4\n 38608: a1 = a1 | a3\n 38611: a2 = u8 [a0 + 0x1d]\n 38614: a3 = u8 [a0 + 0x1c]\n 38617: a4 = u8 [a0 + 0x1e]\n 38620: a5 = u8 [a0 + 0x1f]\n 38623: a2 = a2 << 0x8\n 38626: a2 = a2 | a3\n 38629: a4 = a4 << 0x10\n 38632: a5 = a5 << 0x18\n 38635: a4 = a4 | a5\n 38638: a2 = a2 | a4\n 38641: a2 = a2 << 0x20\n 38644: t0 = a2 | a1\n 38647: a2 = u8 [a0 + 0x11]\n 38650: a3 = u8 [a0 + 0x10]\n 38653: a4 = u8 [a0 + 0x12]\n 38656: a5 = u8 [a0 + 0x13]\n 38659: a2 = a2 << 0x8\n 38662: a2 = a2 | a3\n 38665: a4 = a4 << 0x10\n 38668: a5 = a5 << 0x18\n 38671: a4 = a4 | a5\n 38674: a2 = a2 | a4\n 38677: a3 = u8 [a0 + 0x15]\n 38680: a4 = u8 [a0 + 0x14]\n 38683: a5 = u8 [a0 + 0x16]\n 38686: a1 = u8 [a0 + 0x17]\n 38689: a3 = a3 << 0x8\n 38692: a3 = a3 | a4\n 38695: a5 = a5 << 0x10\n 38698: a1 = a1 << 0x18\n 38701: a1 = a1 | a5\n 38704: a1 = a1 | a3\n 38707: a1 = a1 << 0x20\n 38710: t1 = a1 | a2\n 38713: a1 = u8 [a0 + 0x9]\n 38716: a3 = u8 [a0 + 0x8]\n 38719: a4 = u8 [a0 + 0xa]\n 38722: a5 = u8 [a0 + 0xb]\n 38725: a1 = a1 << 0x8\n 38728: a1 = a1 | a3\n 38731: a4 = a4 << 0x10\n 38734: a5 = a5 << 0x18\n 38737: a4 = a4 | a5\n 38740: a1 = a1 | a4\n 38743: a3 = u8 [a0 + 0xd]\n 38746: a4 = u8 [a0 + 0xc]\n 38749: a5 = u8 [a0 + 0xe]\n 38752: a2 = u8 [a0 + 0xf]\n 38755: a3 = a3 << 0x8\n 38758: a3 = a3 | a4\n 38761: a5 = a5 << 0x10\n 38764: a2 = a2 << 0x18\n 38767: a2 = a2 | a5\n 38770: a2 = a2 | a3\n 38773: a2 = a2 << 0x20\n 38776: a3 = a2 | a1\n 38779: a1 = u8 [a0 + 0x1]\n 38782: a2 = u8 [a0]\n 38784: a4 = u8 [a0 + 0x2]\n 38787: a5 = u8 [a0 + 0x3]\n 38790: a1 = a1 << 0x8\n 38793: a1 = a1 | a2\n 38796: a4 = a4 << 0x10\n 38799: a5 = a5 << 0x18\n 38802: a4 = a4 | a5\n 38805: a1 = a1 | a4\n 38808: a2 = u8 [a0 + 0x5]\n 38811: a4 = u8 [a0 + 0x4]\n 38814: a5 = u8 [a0 + 0x6]\n 38817: a0 = u8 [a0 + 0x7]\n 38820: a2 = a2 << 0x8\n 38823: a2 = a2 | a4\n 38826: a5 = a5 << 0x10\n 38829: a0 = a0 << 0x18\n 38832: a0 = a0 | a5\n 38835: a0 = a0 | a2\n 38838: a0 = a0 << 0x20\n 38841: a0 = a0 | a1\n 38844: a0 = reverse a0\n 38846: a2 = reverse a3\n 38848: a3 = reverse t1\n 38850: a1 = reverse t0\n 38852: a4 = a1 | a2\n 38855: a0 = a0 | a3\n 38858: a4 = a4 | a0\n 38861: a4 = a4 >> 0x20\n 38864: a0 = a0 | a2\n 38867: a0 = a0 << 0x20\n 38870: a0 = a0 | a4\n 38873: jump @533 if a0 == 0\n      : @532 (gas: 1)\n 38876: jump @582\n      : @533 (gas: 5)\n 38879: a0 = u64 [s1 + 0x238]\n 38883: i32 a0 = a0 + 0x20\n 38886: i32 a1 = a1 + 0\n 38888: u64 [s1 + 0x2b8] = a1\n 38892: ra = 464, jump @0\n      : @534 [@dyn 232] (gas: 20)\n 38899: a1 = sp + 0xffffffffffffffe0\n 38902: a1 = a1 & 0xffffffffffffffe0\n 38905: u64 [s1 + 0x2b0] = a1\n 38909: sp = a1\n 38911: i32 a0 = a0 + 0\n 38913: i32 a2 = a1 + 0\n 38915: a1 = u64 [s1 + 0x2b8]\n 38919: ecalli 9 // 'hash_keccak_256'\n 38921: a1 = u64 [s1 + 0x2b0]\n 38925: a0 = u64 [a1 + 0x18]\n 38928: u64 [s1 + 0x2b8] = a0\n 38932: a0 = u64 [a1 + 0x10]\n 38935: u64 [s1 + 0x2a0] = a0\n 38939: a0 = u64 [a1 + 0x8]\n 38942: u64 [s1 + 0x2a8] = a0\n 38946: a0 = u64 [a1]\n 38948: u64 [s1 + 0x2b0] = a0\n 38952: a1 = 0x20\n 38955: a0 = 0\n 38957: ra = 466, jump @0\n      : @535 [@dyn 233] (gas: 95)\n 38964: a2 = u64 [s1 + 0x2b8]\n 38968: a1 = a2 >> 0x38\n 38971: u64 [s1 + 0x238] = a1\n 38975: u8 [a0 + 0x1f] = a1\n 38978: a1 = a2 >> 0x30\n 38981: u64 [s1 + 0x230] = a1\n 38985: u8 [a0 + 0x1e] = a1\n 38988: a1 = a2 >> 0x28\n 38991: u64 [s1 + 0x228] = a1\n 38995: u8 [a0 + 0x1d] = a1\n 38998: a1 = a2 >> 0x20\n 39001: u64 [s1 + 0x220] = a1\n 39005: u8 [a0 + 0x1c] = a1\n 39008: a1 = a2 >> 0x18\n 39011: u64 [s1 + 0x218] = a1\n 39015: u8 [a0 + 0x1b] = a1\n 39018: a1 = a2 >> 0x10\n 39021: u64 [s1 + 0x210] = a1\n 39025: u8 [a0 + 0x1a] = a1\n 39028: a1 = a2 >> 0x8\n 39031: u64 [s1 + 0x208] = a1\n 39035: u8 [a0 + 0x19] = a1\n 39038: u8 [a0 + 0x18] = a2\n 39041: a2 = u64 [s1 + 0x2a0]\n 39045: a1 = a2 >> 0x38\n 39048: u64 [s1 + 0x200] = a1\n 39052: u8 [a0 + 0x17] = a1\n 39055: a1 = a2 >> 0x30\n 39058: u64 [s1 + 0x1f8] = a1\n 39062: u8 [a0 + 0x16] = a1\n 39065: a1 = a2 >> 0x28\n 39068: u64 [s1 + 0x1f0] = a1\n 39072: u8 [a0 + 0x15] = a1\n 39075: a1 = a2 >> 0x20\n 39078: u64 [s1 + 0x1e8] = a1\n 39082: u8 [a0 + 0x14] = a1\n 39085: a1 = a2 >> 0x18\n 39088: u64 [s1 + 0x1e0] = a1\n 39092: u8 [a0 + 0x13] = a1\n 39095: a1 = a2 >> 0x10\n 39098: u64 [s1 + 0x1d8] = a1\n 39102: u8 [a0 + 0x12] = a1\n 39105: a1 = a2 >> 0x8\n 39108: u64 [s1 + 0x1d0] = a1\n 39112: u8 [a0 + 0x11] = a1\n 39115: u8 [a0 + 0x10] = a2\n 39118: a2 = u64 [s1 + 0x2a8]\n 39122: a1 = a2 >> 0x38\n 39125: u64 [s1 + 0x1c8] = a1\n 39129: u8 [a0 + 0xf] = a1\n 39132: a1 = a2 >> 0x30\n 39135: u64 [s1 + 0x1c0] = a1\n 39139: u8 [a0 + 0xe] = a1\n 39142: a1 = a2 >> 0x28\n 39145: u64 [s1 + 0x1b8] = a1\n 39149: u8 [a0 + 0xd] = a1\n 39152: a1 = a2 >> 0x20\n 39155: u64 [s1 + 0x1b0] = a1\n 39159: u8 [a0 + 0xc] = a1\n 39162: a1 = a2 >> 0x18\n 39165: u64 [s1 + 0x1a8] = a1\n 39169: u8 [a0 + 0xb] = a1\n 39172: a1 = a2 >> 0x10\n 39175: u64 [s1 + 0x1a0] = a1\n 39179: u8 [a0 + 0xa] = a1\n 39182: a1 = a2 >> 0x8\n 39185: u64 [s1 + 0x198] = a1\n 39189: u8 [a0 + 0x9] = a1\n 39192: u8 [a0 + 0x8] = a2\n 39195: a2 = u64 [s1 + 0x2b0]\n 39199: a1 = a2 >> 0x38\n 39202: u64 [s1 + 0x190] = a1\n 39206: u8 [a0 + 0x7] = a1\n 39209: a1 = a2 >> 0x30\n 39212: u64 [s1 + 0x188] = a1\n 39216: u8 [a0 + 0x6] = a1\n 39219: a1 = a2 >> 0x28\n 39222: u64 [s1 + 0x180] = a1\n 39226: u8 [a0 + 0x5] = a1\n 39229: a1 = a2 >> 0x20\n 39232: u64 [s1 + 0x178] = a1\n 39236: u8 [a0 + 0x4] = a1\n 39239: a1 = a2 >> 0x18\n 39242: u64 [s1 + 0x170] = a1\n 39246: u8 [a0 + 0x3] = a1\n 39249: a1 = a2 >> 0x10\n 39252: u64 [s1 + 0x168] = a1\n 39256: u8 [a0 + 0x2] = a1\n 39259: a1 = a2 >> 0x8\n 39262: u64 [s1 + 0x160] = a1\n 39266: u8 [a0 + 0x1] = a1\n 39269: u8 [a0] = a2\n 39271: a0 = 0x20\n 39274: a1 = 0x20\n 39277: ra = 468, jump @0\n      : @536 [@dyn 234] (gas: 35)\n 39284: u8 [a0 + 31] = 0\n 39287: u8 [a0 + 30] = 0\n 39290: u8 [a0 + 29] = 0\n 39293: u8 [a0 + 28] = 0\n 39296: u8 [a0 + 27] = 0\n 39299: u8 [a0 + 26] = 0\n 39302: u8 [a0 + 25] = 0\n 39305: u8 [a0 + 24] = 0\n 39308: u8 [a0 + 23] = 0\n 39311: u8 [a0 + 22] = 0\n 39314: u8 [a0 + 21] = 0\n 39317: u8 [a0 + 20] = 0\n 39320: u8 [a0 + 19] = 0\n 39323: u8 [a0 + 18] = 0\n 39326: u8 [a0 + 17] = 0\n 39329: u8 [a0 + 16] = 0\n 39332: u8 [a0 + 15] = 0\n 39335: u8 [a0 + 14] = 0\n 39338: u8 [a0 + 13] = 0\n 39341: u8 [a0 + 12] = 0\n 39344: u8 [a0 + 11] = 0\n 39347: u8 [a0 + 10] = 0\n 39350: u8 [a0 + 9] = 0\n 39353: u8 [a0 + 8] = 0\n 39356: u8 [a0 + 7] = 0\n 39359: u8 [a0 + 6] = 0\n 39362: u8 [a0 + 5] = 0\n 39365: u8 [a0 + 4] = 0\n 39368: u8 [a0 + 3] = 0\n 39371: u8 [a0 + 2] = 0\n 39374: u8 [a0 + 1] = 0\n 39377: u8 [a0 + 0] = 0\n 39379: a1 = 0x40\n 39382: a0 = 0\n 39384: ra = 470, jump @0\n      : @537 [@dyn 235] (gas: 28)\n 39391: i32 a0 = a0 + 0\n 39393: i32 a2 = s1 + 0x7a0\n 39397: a1 = 0x40\n 39400: ecalli 9 // 'hash_keccak_256'\n 39402: a0 = u64 [s1 + 0x7b8]\n 39406: a1 = u64 [s1 + 0x7b0]\n 39410: a2 = u64 [s1 + 0x7a8]\n 39414: a3 = u64 [s1 + 0x7a0]\n 39418: a0 = reverse a0\n 39420: a1 = reverse a1\n 39422: a2 = reverse a2\n 39424: a3 = reverse a3\n 39426: u64 [s1 + 0x798] = a3\n 39430: u64 [s1 + 0x790] = a2\n 39434: u64 [s1 + 0x788] = a1\n 39438: u64 [s1 + 0x780] = a0\n 39442: u64 [s1 + 1976] = 0\n 39446: u64 [s1 + 1968] = 0\n 39450: u64 [s1 + 1960] = 0\n 39454: u64 [s1 + 1952] = 0\n 39458: u32 [s1 + 1888] = 0x20\n 39463: i32 a1 = s1 + 0x780\n 39467: i32 a3 = s1 + 0x7a0\n 39471: i32 a4 = s1 + 0x760\n 39475: a2 = 0xffffffffffffffff\n 39478: a0 = 0\n 39480: ecalli 8 // 'get_storage'\n 39482: fallthrough\n      : @538 (gas: 6)\n 39483: a0 = u64 [s1 + 0x7a0]\n 39487: a1 = u32 [s1 + 0x7b0]\n 39491: a2 = u64 [s1 + 0x7a8]\n 39495: a0 = a0 | a1\n 39498: a0 = a0 | a2\n 39501: jump @540 if a0 == 0\n      : @539 (gas: 1)\n 39504: jump @576\n      : @540 (gas: 19)\n 39507: i32 a0 = s1 + 0x6a0\n 39511: ecalli 0 // 'address'\n 39512: a0 = i32 [s1 + 0x6b0]\n 39516: u64 [s1 + 0x150] = a0\n 39520: a0 = u64 [s1 + 0x6a0]\n 39524: u64 [s1 + 0x140] = a0\n 39528: a0 = u64 [s1 + 0x6a8]\n 39532: u64 [s1 + 0x88] = a0\n 39536: i32 a0 = s1 + 0x6c0\n 39540: ecalli 5 // 'caller'\n 39542: a0 = i32 [s1 + 0x6d0]\n 39546: u64 [s1 + 0x158] = a0\n 39550: a0 = u64 [s1 + 0x6c0]\n 39554: u64 [s1 + 0x148] = a0\n 39558: a0 = u64 [s1 + 0x6c8]\n 39562: u64 [s1 + 0x90] = a0\n 39566: a0 = 0x40\n 39569: a1 = 0x20\n 39572: ra = 472, jump @0\n      : @541 [@dyn 236] (gas: 97)\n 39579: a1 = u8 [a0 + 0x19]\n 39582: a2 = u8 [a0 + 0x18]\n 39585: a3 = u8 [a0 + 0x1a]\n 39588: a4 = u8 [a0 + 0x1b]\n 39591: a1 = a1 << 0x8\n 39594: a1 = a1 | a2\n 39597: a3 = a3 << 0x10\n 39600: a4 = a4 << 0x18\n 39603: a3 = a3 | a4\n 39606: a1 = a1 | a3\n 39609: a2 = u8 [a0 + 0x1d]\n 39612: a3 = u8 [a0 + 0x1c]\n 39615: a4 = u8 [a0 + 0x1e]\n 39618: a5 = u8 [a0 + 0x1f]\n 39621: a2 = a2 << 0x8\n 39624: a2 = a2 | a3\n 39627: a4 = a4 << 0x10\n 39630: a5 = a5 << 0x18\n 39633: a4 = a4 | a5\n 39636: a2 = a2 | a4\n 39639: a2 = a2 << 0x20\n 39642: t0 = a2 | a1\n 39645: a2 = u8 [a0 + 0x11]\n 39648: a3 = u8 [a0 + 0x10]\n 39651: a4 = u8 [a0 + 0x12]\n 39654: a5 = u8 [a0 + 0x13]\n 39657: a2 = a2 << 0x8\n 39660: a2 = a2 | a3\n 39663: a4 = a4 << 0x10\n 39666: a5 = a5 << 0x18\n 39669: a4 = a4 | a5\n 39672: a2 = a2 | a4\n 39675: a3 = u8 [a0 + 0x15]\n 39678: a4 = u8 [a0 + 0x14]\n 39681: a5 = u8 [a0 + 0x16]\n 39684: a1 = u8 [a0 + 0x17]\n 39687: a3 = a3 << 0x8\n 39690: a3 = a3 | a4\n 39693: a5 = a5 << 0x10\n 39696: a1 = a1 << 0x18\n 39699: a1 = a1 | a5\n 39702: a1 = a1 | a3\n 39705: a1 = a1 << 0x20\n 39708: t1 = a1 | a2\n 39711: a1 = u8 [a0 + 0x9]\n 39714: a3 = u8 [a0 + 0x8]\n 39717: a4 = u8 [a0 + 0xa]\n 39720: a5 = u8 [a0 + 0xb]\n 39723: a1 = a1 << 0x8\n 39726: a1 = a1 | a3\n 39729: a4 = a4 << 0x10\n 39732: a5 = a5 << 0x18\n 39735: a4 = a4 | a5\n 39738: a1 = a1 | a4\n 39741: a3 = u8 [a0 + 0xd]\n 39744: a4 = u8 [a0 + 0xc]\n 39747: a5 = u8 [a0 + 0xe]\n 39750: a2 = u8 [a0 + 0xf]\n 39753: a3 = a3 << 0x8\n 39756: a3 = a3 | a4\n 39759: a5 = a5 << 0x10\n 39762: a2 = a2 << 0x18\n 39765: a2 = a2 | a5\n 39768: a2 = a2 | a3\n 39771: a2 = a2 << 0x20\n 39774: a3 = a2 | a1\n 39777: a1 = u8 [a0 + 0x1]\n 39780: a2 = u8 [a0]\n 39782: a4 = u8 [a0 + 0x2]\n 39785: a5 = u8 [a0 + 0x3]\n 39788: a1 = a1 << 0x8\n 39791: a1 = a1 | a2\n 39794: a4 = a4 << 0x10\n 39797: a5 = a5 << 0x18\n 39800: a4 = a4 | a5\n 39803: a1 = a1 | a4\n 39806: a2 = u8 [a0 + 0x5]\n 39809: a4 = u8 [a0 + 0x4]\n 39812: a5 = u8 [a0 + 0x6]\n 39815: a0 = u8 [a0 + 0x7]\n 39818: a2 = a2 << 0x8\n 39821: a2 = a2 | a4\n 39824: a5 = a5 << 0x10\n 39827: a0 = a0 << 0x18\n 39830: a0 = a0 | a5\n 39833: a0 = a0 | a2\n 39836: a0 = a0 << 0x20\n 39839: a0 = a0 | a1\n 39842: t2 = reverse a0\n 39844: a5 = reverse a3\n 39846: t1 = reverse t1\n 39848: a4 = reverse t0\n 39850: a0 = a5 | t2\n 39853: a1 = a4 <u 0xffffffffffffffe0\n 39856: a1 = 0 if t1 != 0\n 39858: a1 = 0 if a0 != 0\n 39860: jump @543 if a1 != 0\n      : @542 (gas: 1)\n 39863: jump @584\n      : @543 (gas: 8)\n 39866: a0 = a4 | a5\n 39869: a1 = t1 | t2\n 39872: a0 = a0 | a1\n 39875: a0 = a0 >> 0x20\n 39878: a1 = a1 | a5\n 39881: a1 = a1 << 0x20\n 39884: a0 = a0 | a1\n 39887: jump @545 if a0 == 0\n      : @544 (gas: 1)\n 39890: jump @582\n      : @545 (gas: 64)\n 39893: a0 = u64 [s1 + 0x88]\n 39897: a0 = reverse a0\n 39899: a1 = a0 >> 0x20\n 39902: a2 = u64 [s1 + 0x140]\n 39906: a2 = reverse a2\n 39908: a3 = a2 << 0x20\n 39911: a1 = a1 | a3\n 39914: u64 [s1 + 0x80] = a1\n 39918: a0 = a0 << 0x20\n 39921: a1 = u64 [s1 + 0x150]\n 39925: a1 = reverse a1\n 39927: a1 = a1 >> 0x20\n 39930: a0 = a0 | a1\n 39933: u64 [s1 + 0x78] = a0\n 39936: a2 = a2 >> 0x20\n 39939: u64 [s1 + 0x60] = a2\n 39942: a0 = u64 [s1 + 0x90]\n 39946: a0 = reverse a0\n 39948: a1 = a0 >> 0x20\n 39951: a2 = u64 [s1 + 0x148]\n 39955: a2 = reverse a2\n 39957: a3 = a2 << 0x20\n 39960: a1 = a1 | a3\n 39963: u64 [s1 + 0x48] = a1\n 39966: a0 = a0 << 0x20\n 39969: a1 = u64 [s1 + 0x158]\n 39973: a1 = reverse a1\n 39975: a1 = a1 >> 0x20\n 39978: a0 = a0 | a1\n 39981: u64 [s1 + 0x38] = a0\n 39984: a2 = a2 >> 0x20\n 39987: u64 [s1 + 0x28] = a2\n 39990: a0 = a4 + 0x20\n 39993: u64 [s1 + 0x88] = a0\n 39997: a0 = a0 <u a4\n 40000: a1 = t1 + a0\n 40003: u64 [s1 + 0x50] = a1\n 40006: a1 = a1 <u t1\n 40009: a1 = a0 if a0 == 0\n 40012: a1 = a1 + a5\n 40015: u64 [s1 + 0x40] = a1\n 40018: a0 = a1 <u a5\n 40021: a0 = a0 + t2\n 40024: u64 [s1 + 0x30] = a0\n 40027: a0 = u64 [s1 + 0x2b0]\n 40031: a0 = reverse a0\n 40033: u64 [s1 + 0x140] = a0\n 40037: a0 = u64 [s1 + 0x2a8]\n 40041: a0 = reverse a0\n 40043: u64 [s1 + 0x148] = a0\n 40047: a0 = u64 [s1 + 0x2a0]\n 40051: a0 = reverse a0\n 40053: u64 [s1 + 0x150] = a0\n 40057: a0 = u64 [s1 + 0x2b8]\n 40061: a0 = reverse a0\n 40063: u64 [s1 + 0x158] = a0\n 40067: i32 a0 = a4 + 0\n 40069: a1 = 0x20\n 40072: u64 [s1 + 0x20] = a0\n 40075: u64 [s1 + 0x68] = a4\n 40078: u64 [s1 + 0x58] = t1\n 40081: u64 [s1 + 0x90] = t2\n 40085: u64 [s1 + 0x70] = a5\n 40088: ra = 474, jump @0\n      : @546 [@dyn 237] (gas: 128)\n 40095: u8 [a0 + 31] = 0x35\n 40099: u8 [a0 + 30] = 0xa\n 40103: u8 [a0 + 29] = 0x41\n 40107: u8 [a0 + 28] = 0xf8\n 40112: u8 [a0 + 27] = 0x47\n 40116: u8 [a0 + 26] = 0x3a\n 40120: u8 [a0 + 25] = 0x41\n 40124: u8 [a0 + 24] = 0xfb\n 40129: u8 [a0 + 23] = 0x25\n 40133: u8 [a0 + 22] = 0x95\n 40138: u8 [a0 + 21] = 0xa8\n 40143: u8 [a0 + 20] = 0x1e\n 40147: u8 [a0 + 19] = 0xe5\n 40152: u8 [a0 + 18] = 0x61\n 40156: u8 [a0 + 17] = 0x5f\n 40160: u8 [a0 + 16] = 0x50\n 40164: u8 [a0 + 15] = 0x9\n 40168: u8 [a0 + 14] = 0x17\n 40172: u8 [a0 + 13] = 0x77\n 40176: u8 [a0 + 12] = 0xbe\n 40181: u8 [a0 + 11] = 0x46\n 40185: u8 [a0 + 10] = 0x6b\n 40189: u8 [a0 + 9] = 0x58\n 40193: u8 [a0 + 8] = 0x89\n 40198: u8 [a0 + 7] = 0x19\n 40202: u8 [a0 + 6] = 0x95\n 40207: u8 [a0 + 5] = 0x1b\n 40211: u8 [a0 + 4] = 0x8f\n 40216: u8 [a0 + 3] = 0xa\n 40220: u8 [a0 + 2] = 0x6d\n 40224: u8 [a0 + 1] = 0xe9\n 40229: u8 [a0 + 0] = 0xf9\n 40233: sp = sp + 0xffffffffffffffd8\n 40236: a0 = s1 + 0x480\n 40240: u64 [sp + 0x20] = a0\n 40243: a0 = s1 + 0x4a0\n 40247: u64 [sp + 0x18] = a0\n 40250: a0 = s1 + 0x4c0\n 40254: u64 [sp + 0x10] = a0\n 40257: a0 = s1 + 0x4e0\n 40261: u64 [sp + 0x8] = a0\n 40264: a0 = s1 + 0x500\n 40268: u64 [sp] = a0\n 40270: a0 = u64 [s1 + 0x138]\n 40274: u64 [s1 + 0x498] = a0\n 40278: a0 = u64 [s1 + 0x118]\n 40282: u64 [s1 + 0x490] = a0\n 40286: a0 = u64 [s1 + 0x120]\n 40290: u64 [s1 + 0x488] = a0\n 40294: a0 = u64 [s1 + 0x128]\n 40298: u64 [s1 + 0x480] = a0\n 40302: a0 = u64 [s1 + 0x130]\n 40306: u64 [s1 + 0x4b8] = a0\n 40310: a0 = u64 [s1 + 0xa0]\n 40314: u64 [s1 + 0x4b0] = a0\n 40318: a0 = u64 [s1 + 0xa8]\n 40322: u64 [s1 + 0x4a8] = a0\n 40326: a0 = u64 [s1 + 0xb0]\n 40330: u64 [s1 + 0x4a0] = a0\n 40334: a0 = u64 [s1 + 0xb8]\n 40338: u64 [s1 + 0x4d8] = a0\n 40342: a0 = u64 [s1 + 0xc0]\n 40346: u64 [s1 + 0x4d0] = a0\n 40350: a0 = u64 [s1 + 0xc8]\n 40354: u64 [s1 + 0x4c8] = a0\n 40358: a0 = u64 [s1 + 0xd0]\n 40362: u64 [s1 + 0x4c0] = a0\n 40366: a0 = u64 [s1 + 0xd8]\n 40370: u64 [s1 + 0x4f8] = a0\n 40374: a0 = u64 [s1 + 0xe0]\n 40378: u64 [s1 + 0x4f0] = a0\n 40382: a0 = u64 [s1 + 0xe8]\n 40386: u64 [s1 + 0x4e8] = a0\n 40390: a0 = u64 [s1 + 0xf0]\n 40394: u64 [s1 + 0x4e0] = a0\n 40398: a0 = u64 [s1 + 0xf8]\n 40402: u64 [s1 + 0x518] = a0\n 40406: a0 = u64 [s1 + 0x100]\n 40410: u64 [s1 + 0x510] = a0\n 40414: a0 = u64 [s1 + 0x108]\n 40418: u64 [s1 + 0x508] = a0\n 40422: a0 = u64 [s1 + 0x110]\n 40426: u64 [s1 + 0x500] = a0\n 40430: a0 = u64 [s1 + 0x280]\n 40434: u64 [s1 + 0x538] = a0\n 40438: a0 = u64 [s1 + 0x288]\n 40442: u64 [s1 + 0x530] = a0\n 40446: a0 = u64 [s1 + 0x290]\n 40450: u64 [s1 + 0x528] = a0\n 40454: a0 = u64 [s1 + 0x298]\n 40458: u64 [s1 + 0x520] = a0\n 40462: a0 = u64 [s1 + 0x28]\n 40465: u64 [s1 + 0x550] = a0\n 40469: a0 = u64 [s1 + 0x48]\n 40472: u64 [s1 + 0x548] = a0\n 40476: a0 = u64 [s1 + 0x38]\n 40479: u64 [s1 + 0x540] = a0\n 40483: u64 [s1 + 1368] = 0\n 40487: a0 = u64 [s1 + 0x140]\n 40491: u64 [s1 + 0x578] = a0\n 40495: a0 = u64 [s1 + 0x148]\n 40499: u64 [s1 + 0x570] = a0\n 40503: a0 = u64 [s1 + 0x150]\n 40507: u64 [s1 + 0x568] = a0\n 40511: a0 = u64 [s1 + 0x158]\n 40515: u64 [s1 + 0x560] = a0\n 40519: u64 [s1 + 1432] = 0\n 40523: a0 = u64 [s1 + 0x60]\n 40526: u64 [s1 + 0x590] = a0\n 40530: a0 = u64 [s1 + 0x80]\n 40534: u64 [s1 + 0x588] = a0\n 40538: a0 = u64 [s1 + 0x78]\n 40541: u64 [s1 + 0x580] = a0\n 40545: a0 = u64 [s1 + 0x30]\n 40548: u64 [s1 + 0x5b8] = a0\n 40552: a0 = u64 [s1 + 0x40]\n 40555: u64 [s1 + 0x5b0] = a0\n 40559: a0 = u64 [s1 + 0x50]\n 40562: u64 [s1 + 0x5a8] = a0\n 40566: a0 = s1 + 0x5c0\n 40570: a1 = s1 + 0x5a0\n 40574: a2 = s1 + 0x580\n 40578: a3 = s1 + 0x560\n 40582: a4 = s1 + 0x540\n 40586: a5 = s1 + 0x520\n 40590: t0 = u64 [s1 + 0x88]\n 40594: u64 [s1 + 0x5a0] = t0\n 40598: ra = 476, jump @466\n      : @547 [@dyn 238] (gas: 32)\n 40604: sp = sp + 0x28\n 40607: a0 = u64 [s1 + 0x5c8]\n 40611: t0 = u64 [s1 + 0x5d8]\n 40615: t1 = u64 [s1 + 0x5c0]\n 40619: a3 = u64 [s1 + 0x5d0]\n 40623: a1 = u64 [s1 + 0x58]\n 40626: a4 = a0 ^ a1\n 40629: a5 = a0 <u a1\n 40632: ra = a1\n 40634: t2 = u64 [s1 + 0x68]\n 40637: a1 = t1 <u t2\n 40640: a5 = a1 if a4 == 0\n 40643: a2 = u64 [s1 + 0x70]\n 40646: a4 = a3 - a2\n 40649: a3 = a3 <u a2\n 40652: a2 = u64 [s1 + 0x90]\n 40656: a2 = t0 - a2\n 40659: a2 = a2 - a3\n 40662: a3 = a4 <u a5\n 40665: a2 = a2 - a3\n 40668: a4 = a4 - a5\n 40671: a0 = a0 - ra\n 40674: a0 = a0 - a1\n 40677: a3 = t1 - t2\n 40680: a0 = a0 | a2\n 40683: a1 = a3 | a4\n 40686: a1 = a1 | a0\n 40689: a0 = a0 | a4\n 40692: a1 = a1 >> 0x20\n 40695: a0 = a0 << 0x20\n 40698: a0 = a0 | a1\n 40701: jump @549 if a0 == 0\n      : @548 (gas: 1)\n 40704: jump @582\n      : @549 (gas: 4)\n 40707: i32 a1 = a3 + 0\n 40709: a0 = u64 [s1 + 0x20]\n 40712: u64 [s1 + 0x298] = a3\n 40716: ra = 478, jump @0\n      : @550 [@dyn 239] (gas: 32)\n 40723: u64 [s1 + 1784] = 0\n 40727: u64 [s1 + 1776] = 0\n 40731: u64 [s1 + 1768] = 0\n 40735: u64 [s1 + 1760] = 0\n 40739: u64 [s1 + 1816] = 0\n 40743: u64 [s1 + 1808] = 0\n 40747: u64 [s1 + 1800] = 0\n 40751: u64 [s1 + 1792] = 0\n 40755: u64 [s1 + 1848] = 0xffffffffffffffff\n 40760: u64 [s1 + 1840] = 0xffffffffffffffff\n 40765: u64 [s1 + 1832] = 0xffffffffffffffff\n 40770: u64 [s1 + 1824] = 0xffffffffffffffff\n 40775: a2 = s1 + 0x6e0\n 40779: a2 = a2 << 0x20\n 40782: a2 = a2 >> 0x20\n 40785: a3 = s1 + 0x720\n 40789: a3 = a3 << 0x20\n 40792: a2 = a2 | a3\n 40795: a0 = a0 << 0x20\n 40798: a0 = a0 >> 0x20\n 40801: a3 = u64 [s1 + 0x298]\n 40805: a3 = a3 << 0x20\n 40808: a3 = a3 | a0\n 40811: a0 = s1 + 0x700\n 40815: a0 = a0 << 0x20\n 40818: a1 = 0xffffffff\n 40828: a5 = a0 | a1\n 40831: a0 = 0xffffffffffffffff\n 40834: a1 = 0xffffffffffffffff\n 40837: a4 = 0xffffffffffffffff\n 40840: ecalli 10 // 'instantiate'\n 40842: fallthrough\n      : @551 (gas: 6)\n 40843: a0 = u32 [s1 + 0x710]\n 40847: a1 = u64 [s1 + 0x700]\n 40851: a2 = u64 [s1 + 0x708]\n 40855: a3 = a1 | a0\n 40858: a3 = a3 | a2\n 40861: jump @553 if a3 != 0\n      : @552 (gas: 1)\n 40864: jump @583\n      : @553 (gas: 16)\n 40867: a2 = reverse a2\n 40869: a3 = a2 >> 0x20\n 40872: a1 = reverse a1\n 40874: a4 = a1 << 0x20\n 40877: a3 = a3 | a4\n 40880: u64 [s1 + 0x298] = a3\n 40884: a2 = a2 << 0x20\n 40887: a0 = reverse a0\n 40889: a0 = a0 >> 0x20\n 40892: a0 = a0 | a2\n 40895: u64 [s1 + 0x290] = a0\n 40899: a1 = a1 >> 0x20\n 40902: u64 [s1 + 0x288] = a1\n 40906: a1 = 0x20\n 40909: a0 = 0\n 40911: ra = 480, jump @0\n      : @554 [@dyn 240] (gas: 67)\n 40918: a1 = u64 [s1 + 0x2a0]\n 40922: u8 [a0 + 0x10] = a1\n 40925: a1 = u64 [s1 + 0x1c8]\n 40929: u8 [a0 + 0xf] = a1\n 40932: a1 = u64 [s1 + 0x1c0]\n 40936: u8 [a0 + 0xe] = a1\n 40939: a1 = u64 [s1 + 0x1b8]\n 40943: u8 [a0 + 0xd] = a1\n 40946: a1 = u64 [s1 + 0x1b0]\n 40950: u8 [a0 + 0xc] = a1\n 40953: a1 = u64 [s1 + 0x1a8]\n 40957: u8 [a0 + 0xb] = a1\n 40960: a1 = u64 [s1 + 0x1a0]\n 40964: u8 [a0 + 0xa] = a1\n 40967: a1 = u64 [s1 + 0x198]\n 40971: u8 [a0 + 0x9] = a1\n 40974: a1 = u64 [s1 + 0x2a8]\n 40978: u8 [a0 + 0x8] = a1\n 40981: a1 = u64 [s1 + 0x190]\n 40985: u8 [a0 + 0x7] = a1\n 40988: a1 = u64 [s1 + 0x188]\n 40992: u8 [a0 + 0x6] = a1\n 40995: a1 = u64 [s1 + 0x180]\n 40999: u8 [a0 + 0x5] = a1\n 41002: a1 = u64 [s1 + 0x178]\n 41006: u8 [a0 + 0x4] = a1\n 41009: a1 = u64 [s1 + 0x170]\n 41013: u8 [a0 + 0x3] = a1\n 41016: a1 = u64 [s1 + 0x168]\n 41020: u8 [a0 + 0x2] = a1\n 41023: a1 = u64 [s1 + 0x160]\n 41027: u8 [a0 + 0x1] = a1\n 41030: a1 = u64 [s1 + 0x2b0]\n 41034: u8 [a0] = a1\n 41036: a1 = u64 [s1 + 0x2b8]\n 41040: u8 [a0 + 0x18] = a1\n 41043: a1 = u64 [s1 + 0x200]\n 41047: u8 [a0 + 0x17] = a1\n 41050: a1 = u64 [s1 + 0x1f8]\n 41054: u8 [a0 + 0x16] = a1\n 41057: a1 = u64 [s1 + 0x1f0]\n 41061: u8 [a0 + 0x15] = a1\n 41064: a1 = u64 [s1 + 0x1e8]\n 41068: u8 [a0 + 0x14] = a1\n 41071: a1 = u64 [s1 + 0x1e0]\n 41075: u8 [a0 + 0x13] = a1\n 41078: a1 = u64 [s1 + 0x1d8]\n 41082: u8 [a0 + 0x12] = a1\n 41085: a1 = u64 [s1 + 0x1d0]\n 41089: u8 [a0 + 0x11] = a1\n 41092: a1 = u64 [s1 + 0x238]\n 41096: u8 [a0 + 0x1f] = a1\n 41099: a1 = u64 [s1 + 0x230]\n 41103: u8 [a0 + 0x1e] = a1\n 41106: a1 = u64 [s1 + 0x228]\n 41110: u8 [a0 + 0x1d] = a1\n 41113: a1 = u64 [s1 + 0x220]\n 41117: u8 [a0 + 0x1c] = a1\n 41120: a1 = u64 [s1 + 0x218]\n 41124: u8 [a0 + 0x1b] = a1\n 41127: a1 = u64 [s1 + 0x210]\n 41131: u8 [a0 + 0x1a] = a1\n 41134: a1 = u64 [s1 + 0x208]\n 41138: u8 [a0 + 0x19] = a1\n 41141: a0 = 0x20\n 41144: a1 = 0x20\n 41147: ra = 482, jump @0\n      : @555 [@dyn 241] (gas: 35)\n 41154: u8 [a0 + 31] = 0\n 41157: u8 [a0 + 30] = 0\n 41160: u8 [a0 + 29] = 0\n 41163: u8 [a0 + 28] = 0\n 41166: u8 [a0 + 27] = 0\n 41169: u8 [a0 + 26] = 0\n 41172: u8 [a0 + 25] = 0\n 41175: u8 [a0 + 24] = 0\n 41178: u8 [a0 + 23] = 0\n 41181: u8 [a0 + 22] = 0\n 41184: u8 [a0 + 21] = 0\n 41187: u8 [a0 + 20] = 0\n 41190: u8 [a0 + 19] = 0\n 41193: u8 [a0 + 18] = 0\n 41196: u8 [a0 + 17] = 0\n 41199: u8 [a0 + 16] = 0\n 41202: u8 [a0 + 15] = 0\n 41205: u8 [a0 + 14] = 0\n 41208: u8 [a0 + 13] = 0\n 41211: u8 [a0 + 12] = 0\n 41214: u8 [a0 + 11] = 0\n 41217: u8 [a0 + 10] = 0\n 41220: u8 [a0 + 9] = 0\n 41223: u8 [a0 + 8] = 0\n 41226: u8 [a0 + 7] = 0\n 41229: u8 [a0 + 6] = 0\n 41232: u8 [a0 + 5] = 0\n 41235: u8 [a0 + 4] = 0\n 41238: u8 [a0 + 3] = 0\n 41241: u8 [a0 + 2] = 0\n 41244: u8 [a0 + 1] = 0\n 41247: u8 [a0 + 0] = 0\n 41249: a1 = 0x40\n 41252: a0 = 0\n 41254: ra = 484, jump @0\n      : @556 [@dyn 242] (gas: 109)\n 41261: i32 a0 = a0 + 0\n 41263: i32 a2 = s1 + 0x7a0\n 41267: a1 = 0x40\n 41270: ecalli 9 // 'hash_keccak_256'\n 41272: a0 = u64 [s1 + 0x7b8]\n 41276: a1 = u64 [s1 + 0x7b0]\n 41280: a2 = u64 [s1 + 0x7a8]\n 41284: a3 = u64 [s1 + 0x7a0]\n 41288: a0 = reverse a0\n 41290: u64 [s1 + 0x280] = a0\n 41294: a1 = reverse a1\n 41296: u64 [s1 + 0x138] = a1\n 41300: a2 = reverse a2\n 41302: u64 [s1 + 0x130] = a2\n 41306: a3 = reverse a3\n 41308: u64 [s1 + 0x128] = a3\n 41312: u64 [s1 + 0x798] = a3\n 41316: u64 [s1 + 0x790] = a2\n 41320: u64 [s1 + 0x788] = a1\n 41324: u64 [s1 + 0x780] = a0\n 41328: u64 [s1 + 1976] = 0\n 41332: u64 [s1 + 1968] = 0\n 41336: u64 [s1 + 1960] = 0\n 41340: u64 [s1 + 1952] = 0\n 41344: u32 [s1 + 1888] = 0x20\n 41349: i32 a1 = s1 + 0x780\n 41353: i32 a3 = s1 + 0x7a0\n 41357: i32 a4 = s1 + 0x760\n 41361: a2 = 0xffffffffffffffff\n 41364: a0 = 0\n 41366: ecalli 8 // 'get_storage'\n 41368: a0 = u32 [s1 + 0x7b4]\n 41372: a0 = a0 << 0x20\n 41375: a1 = u64 [s1 + 0x7b8]\n 41379: a2 = u64 [s1 + 0x288]\n 41383: a0 = a0 | a2\n 41386: a2 = u64 [s1 + 0x128]\n 41390: u64 [s1 + 0x798] = a2\n 41394: a2 = u64 [s1 + 0x130]\n 41398: u64 [s1 + 0x790] = a2\n 41402: a2 = u64 [s1 + 0x138]\n 41406: u64 [s1 + 0x788] = a2\n 41410: a2 = u64 [s1 + 0x280]\n 41414: u64 [s1 + 0x780] = a2\n 41418: u64 [s1 + 0x7b8] = a1\n 41422: u64 [s1 + 0x7b0] = a0\n 41426: a0 = u64 [s1 + 0x298]\n 41430: u64 [s1 + 0x7a8] = a0\n 41434: a0 = u64 [s1 + 0x290]\n 41438: u64 [s1 + 0x7a0] = a0\n 41442: i32 a1 = s1 + 0x780\n 41446: i32 a3 = s1 + 0x7a0\n 41450: a2 = 0xffffffffffffffff\n 41453: a4 = 0x20\n 41456: a0 = 0\n 41458: ecalli 16 // 'set_storage'\n 41460: a0 = u64 [s1 + 0x140]\n 41464: u64 [s1 + 0x458] = a0\n 41468: a0 = u64 [s1 + 0x148]\n 41472: u64 [s1 + 0x450] = a0\n 41476: a0 = u64 [s1 + 0x150]\n 41480: u64 [s1 + 0x448] = a0\n 41484: a0 = u64 [s1 + 0x158]\n 41488: u64 [s1 + 0x440] = a0\n 41492: u64 [s1 + 1144] = 0\n 41496: u64 [s1 + 1136] = 0\n 41500: u64 [s1 + 1128] = 0\n 41504: a0 = s1 + 0x460\n 41508: a1 = s1 + 0x440\n 41512: u64 [s1 + 1120] = 0x1\n 41517: ra = 0x1e6\n 41521: sp = sp + 0xfffffffffffffdc0\n 41525: u64 [sp + 0x238] = ra\n 41529: u64 [sp + 0x230] = s0\n 41533: u64 [sp + 0x228] = s1\n 41537: s0 = sp + 0x240\n 41541: sp = sp & 0xffffffffffffffe0\n 41544: a2 = u64 [a1 + 0x18]\n 41547: u64 [sp + 0x50] = a2\n 41550: a2 = u64 [a1 + 0x10]\n 41553: u64 [sp + 0x30] = a2\n 41556: a2 = u64 [a1 + 0x8]\n 41559: u64 [sp + 0x28] = a2\n 41562: a1 = u64 [a1]\n 41564: u64 [sp + 0x20] = a1\n 41567: a3 = u64 [a0 + 0x18]\n 41570: a2 = u64 [a0 + 0x10]\n 41573: a1 = u64 [a0 + 0x8]\n 41576: a0 = u64 [a0]\n 41578: u64 [sp + 0x60] = a3\n 41581: u64 [sp + 0x1f8] = a3\n 41585: u64 [sp + 0x68] = a2\n 41588: u64 [sp + 0x1f0] = a2\n 41592: u64 [sp + 0x70] = a1\n 41595: u64 [sp + 0x1e8] = a1\n 41599: u64 [sp + 0x78] = a0\n 41602: u64 [sp + 0x1e0] = a0\n 41606: u64 [sp + 536] = 0\n 41610: u64 [sp + 528] = 0\n 41614: u64 [sp + 520] = 0\n 41618: u64 [sp + 512] = 0\n 41622: u32 [sp + 448] = 0x20\n 41627: i32 a1 = sp + 0x1e0\n 41631: i32 a3 = sp + 0x200\n 41635: i32 a4 = sp + 0x1c0\n 41639: a2 = 0xffffffffffffffff\n 41642: a0 = 0\n 41644: ecalli 8 // 'get_storage'\n 41646: jump @498\n      : @557 [@dyn 243] (gas: 22)\n 41649: a0 = sp + 0xffffffffffffffe0\n 41652: a0 = a0 & 0xffffffffffffffe0\n 41655: u64 [s1 + 0x148] = a0\n 41659: sp = a0\n 41661: u64 [a0 + 24] = 0\n 41664: u64 [a0 + 16] = 0\n 41667: u64 [a0 + 8] = 0\n 41670: u64 [a0 + 0] = 0\n 41672: i32 a0 = a0 + 0\n 41674: ecalli 17 // 'value_transferred'\n 41676: a1 = u64 [s1 + 0x148]\n 41680: a0 = u64 [a1]\n 41682: u64 [s1 + 0x280] = a0\n 41686: a0 = u64 [a1 + 0x8]\n 41689: u64 [s1 + 0x158] = a0\n 41693: a0 = u64 [a1 + 0x10]\n 41696: u64 [s1 + 0x150] = a0\n 41700: a0 = u64 [a1 + 0x18]\n 41703: u64 [s1 + 0x148] = a0\n 41707: a1 = 0x20\n 41710: a0 = 0\n 41712: ra = 488, jump @0\n      : @558 [@dyn 244] (gas: 67)\n 41719: a1 = u64 [s1 + 0x238]\n 41723: u8 [a0 + 0x1f] = a1\n 41726: a1 = u64 [s1 + 0x230]\n 41730: u8 [a0 + 0x1e] = a1\n 41733: a1 = u64 [s1 + 0x228]\n 41737: u8 [a0 + 0x1d] = a1\n 41740: a1 = u64 [s1 + 0x220]\n 41744: u8 [a0 + 0x1c] = a1\n 41747: a1 = u64 [s1 + 0x218]\n 41751: u8 [a0 + 0x1b] = a1\n 41754: a1 = u64 [s1 + 0x210]\n 41758: u8 [a0 + 0x1a] = a1\n 41761: a1 = u64 [s1 + 0x208]\n 41765: u8 [a0 + 0x19] = a1\n 41768: a1 = u64 [s1 + 0x200]\n 41772: u8 [a0 + 0x17] = a1\n 41775: a1 = u64 [s1 + 0x1f8]\n 41779: u8 [a0 + 0x16] = a1\n 41782: a1 = u64 [s1 + 0x1f0]\n 41786: u8 [a0 + 0x15] = a1\n 41789: a1 = u64 [s1 + 0x1e8]\n 41793: u8 [a0 + 0x14] = a1\n 41796: a1 = u64 [s1 + 0x1e0]\n 41800: u8 [a0 + 0x13] = a1\n 41803: a1 = u64 [s1 + 0x1d8]\n 41807: u8 [a0 + 0x12] = a1\n 41810: a1 = u64 [s1 + 0x1d0]\n 41814: u8 [a0 + 0x11] = a1\n 41817: a1 = u64 [s1 + 0x1c8]\n 41821: u8 [a0 + 0xf] = a1\n 41824: a1 = u64 [s1 + 0x1c0]\n 41828: u8 [a0 + 0xe] = a1\n 41831: a1 = u64 [s1 + 0x1b8]\n 41835: u8 [a0 + 0xd] = a1\n 41838: a1 = u64 [s1 + 0x1b0]\n 41842: u8 [a0 + 0xc] = a1\n 41845: a1 = u64 [s1 + 0x1a8]\n 41849: u8 [a0 + 0xb] = a1\n 41852: a1 = u64 [s1 + 0x1a0]\n 41856: u8 [a0 + 0xa] = a1\n 41859: a1 = u64 [s1 + 0x198]\n 41863: u8 [a0 + 0x9] = a1\n 41866: a1 = u64 [s1 + 0x190]\n 41870: u8 [a0 + 0x7] = a1\n 41873: a1 = u64 [s1 + 0x188]\n 41877: u8 [a0 + 0x6] = a1\n 41880: a1 = u64 [s1 + 0x180]\n 41884: u8 [a0 + 0x5] = a1\n 41887: a1 = u64 [s1 + 0x178]\n 41891: u8 [a0 + 0x4] = a1\n 41894: a1 = u64 [s1 + 0x170]\n 41898: u8 [a0 + 0x3] = a1\n 41901: a1 = u64 [s1 + 0x168]\n 41905: u8 [a0 + 0x2] = a1\n 41908: a1 = u64 [s1 + 0x160]\n 41912: u8 [a0 + 0x1] = a1\n 41915: a1 = u64 [s1 + 0x2b8]\n 41919: u8 [a0 + 0x18] = a1\n 41922: a1 = u64 [s1 + 0x2a0]\n 41926: u8 [a0 + 0x10] = a1\n 41929: a1 = u64 [s1 + 0x2a8]\n 41933: u8 [a0 + 0x8] = a1\n 41936: a1 = u64 [s1 + 0x2b0]\n 41940: u8 [a0] = a1\n 41942: a0 = 0x20\n 41945: a1 = 0x20\n 41948: ra = 490, jump @0\n      : @559 [@dyn 245] (gas: 35)\n 41955: u8 [a0 + 31] = 0x2\n 41959: u8 [a0 + 30] = 0\n 41962: u8 [a0 + 29] = 0\n 41965: u8 [a0 + 28] = 0\n 41968: u8 [a0 + 27] = 0\n 41971: u8 [a0 + 26] = 0\n 41974: u8 [a0 + 25] = 0\n 41977: u8 [a0 + 24] = 0\n 41980: u8 [a0 + 23] = 0\n 41983: u8 [a0 + 22] = 0\n 41986: u8 [a0 + 21] = 0\n 41989: u8 [a0 + 20] = 0\n 41992: u8 [a0 + 19] = 0\n 41995: u8 [a0 + 18] = 0\n 41998: u8 [a0 + 17] = 0\n 42001: u8 [a0 + 16] = 0\n 42004: u8 [a0 + 15] = 0\n 42007: u8 [a0 + 14] = 0\n 42010: u8 [a0 + 13] = 0\n 42013: u8 [a0 + 12] = 0\n 42016: u8 [a0 + 11] = 0\n 42019: u8 [a0 + 10] = 0\n 42022: u8 [a0 + 9] = 0\n 42025: u8 [a0 + 8] = 0\n 42028: u8 [a0 + 7] = 0\n 42031: u8 [a0 + 6] = 0\n 42034: u8 [a0 + 5] = 0\n 42037: u8 [a0 + 4] = 0\n 42040: u8 [a0 + 3] = 0\n 42043: u8 [a0 + 2] = 0\n 42046: u8 [a0 + 1] = 0\n 42049: u8 [a0 + 0] = 0\n 42051: a1 = 0x40\n 42054: a0 = 0\n 42056: ra = 492, jump @0\n      : @560 [@dyn 246] (gas: 83)\n 42063: i32 a0 = a0 + 0\n 42065: i32 a2 = s1 + 0x7a0\n 42069: a1 = 0x40\n 42072: ecalli 9 // 'hash_keccak_256'\n 42074: a0 = u64 [s1 + 0x7b8]\n 42078: a1 = u64 [s1 + 0x7b0]\n 42082: a2 = u64 [s1 + 0x7a8]\n 42086: a3 = u64 [s1 + 0x7a0]\n 42090: a0 = reverse a0\n 42092: u64 [s1 + 0x238] = a0\n 42096: a1 = reverse a1\n 42098: u64 [s1 + 0x230] = a1\n 42102: a2 = reverse a2\n 42104: u64 [s1 + 0x228] = a2\n 42108: a3 = reverse a3\n 42110: u64 [s1 + 0x220] = a3\n 42114: u64 [s1 + 0x798] = a3\n 42118: u64 [s1 + 0x790] = a2\n 42122: u64 [s1 + 0x788] = a1\n 42126: u64 [s1 + 0x780] = a0\n 42130: u64 [s1 + 1976] = 0\n 42134: u64 [s1 + 1968] = 0\n 42138: u64 [s1 + 1960] = 0\n 42142: u64 [s1 + 1952] = 0\n 42146: u32 [s1 + 1888] = 0x20\n 42151: i32 a1 = s1 + 0x780\n 42155: i32 a3 = s1 + 0x7a0\n 42159: i32 a4 = s1 + 0x760\n 42163: a2 = 0xffffffffffffffff\n 42166: a0 = 0\n 42168: ecalli 8 // 'get_storage'\n 42170: a0 = u64 [s1 + 0x220]\n 42174: u64 [s1 + 0x798] = a0\n 42178: a0 = u64 [s1 + 0x228]\n 42182: u64 [s1 + 0x790] = a0\n 42186: a0 = u64 [s1 + 0x230]\n 42190: u64 [s1 + 0x788] = a0\n 42194: a0 = u64 [s1 + 0x238]\n 42198: u64 [s1 + 0x780] = a0\n 42202: a0 = u64 [s1 + 0x148]\n 42206: u64 [s1 + 0x7b8] = a0\n 42210: a0 = u64 [s1 + 0x150]\n 42214: u64 [s1 + 0x7b0] = a0\n 42218: a0 = u64 [s1 + 0x158]\n 42222: u64 [s1 + 0x7a8] = a0\n 42226: a0 = u64 [s1 + 0x280]\n 42230: u64 [s1 + 0x7a0] = a0\n 42234: i32 a1 = s1 + 0x780\n 42238: i32 a3 = s1 + 0x7a0\n 42242: a2 = 0xffffffffffffffff\n 42245: a4 = 0x20\n 42248: a0 = 0\n 42250: ecalli 16 // 'set_storage'\n 42252: i32 a0 = s1 + 0x740\n 42256: ecalli 5 // 'caller'\n 42258: a0 = u32 [s1 + 0x750]\n 42262: u64 [s1 + 0x1f8] = a0\n 42266: a0 = u64 [s1 + 0x748]\n 42270: u64 [s1 + 0x1f0] = a0\n 42274: a0 = u64 [s1 + 0x740]\n 42278: u64 [s1 + 0x230] = a0\n 42282: a0 = sp + 0xffffffffffffffe0\n 42285: a0 = a0 & 0xffffffffffffffe0\n 42288: u64 [s1 + 0x280] = a0\n 42292: sp = a0\n 42294: u64 [a0 + 24] = 0\n 42297: u64 [a0 + 16] = 0\n 42300: u64 [a0 + 8] = 0\n 42303: u64 [a0 + 0] = 0\n 42305: i32 a0 = a0 + 0\n 42307: ecalli 17 // 'value_transferred'\n 42309: a1 = u64 [s1 + 0x280]\n 42313: a0 = u64 [a1]\n 42315: u64 [s1 + 0x228] = a0\n 42319: a0 = u64 [a1 + 0x8]\n 42322: u64 [s1 + 0x220] = a0\n 42326: a0 = u64 [a1 + 0x10]\n 42329: u64 [s1 + 0x218] = a0\n 42333: a0 = u64 [a1 + 0x18]\n 42336: u64 [s1 + 0x210] = a0\n 42340: a0 = 0x40\n 42343: a1 = 0x20\n 42346: ra = 494, jump @0\n      : @561 [@dyn 247] (gas: 138)\n 42353: a1 = u8 [a0 + 0x1]\n 42356: a2 = u8 [a0]\n 42358: a3 = u8 [a0 + 0x2]\n 42361: a4 = u8 [a0 + 0x3]\n 42364: a1 = a1 << 0x8\n 42367: a1 = a1 | a2\n 42370: a3 = a3 << 0x10\n 42373: a4 = a4 << 0x18\n 42376: a3 = a3 | a4\n 42379: a1 = a1 | a3\n 42382: a2 = u8 [a0 + 0x5]\n 42385: a3 = u8 [a0 + 0x4]\n 42388: a4 = u8 [a0 + 0x6]\n 42391: a5 = u8 [a0 + 0x7]\n 42394: a2 = a2 << 0x8\n 42397: a2 = a2 | a3\n 42400: a4 = a4 << 0x10\n 42403: a5 = a5 << 0x18\n 42406: a4 = a4 | a5\n 42409: a2 = a2 | a4\n 42412: a2 = a2 << 0x20\n 42415: t0 = a2 | a1\n 42418: a2 = u8 [a0 + 0x9]\n 42421: a3 = u8 [a0 + 0x8]\n 42424: a4 = u8 [a0 + 0xa]\n 42427: a5 = u8 [a0 + 0xb]\n 42430: a2 = a2 << 0x8\n 42433: a2 = a2 | a3\n 42436: a4 = a4 << 0x10\n 42439: a5 = a5 << 0x18\n 42442: a4 = a4 | a5\n 42445: a2 = a2 | a4\n 42448: a3 = u8 [a0 + 0xd]\n 42451: a4 = u8 [a0 + 0xc]\n 42454: a5 = u8 [a0 + 0xe]\n 42457: a1 = u8 [a0 + 0xf]\n 42460: a3 = a3 << 0x8\n 42463: a3 = a3 | a4\n 42466: a5 = a5 << 0x10\n 42469: a1 = a1 << 0x18\n 42472: a1 = a1 | a5\n 42475: a1 = a1 | a3\n 42478: a1 = a1 << 0x20\n 42481: t1 = a1 | a2\n 42484: a1 = u8 [a0 + 0x11]\n 42487: a3 = u8 [a0 + 0x10]\n 42490: a4 = u8 [a0 + 0x12]\n 42493: a5 = u8 [a0 + 0x13]\n 42496: a1 = a1 << 0x8\n 42499: a1 = a1 | a3\n 42502: a4 = a4 << 0x10\n 42505: a5 = a5 << 0x18\n 42508: a4 = a4 | a5\n 42511: a1 = a1 | a4\n 42514: a3 = u8 [a0 + 0x15]\n 42517: a4 = u8 [a0 + 0x14]\n 42520: a5 = u8 [a0 + 0x16]\n 42523: a2 = u8 [a0 + 0x17]\n 42526: a3 = a3 << 0x8\n 42529: a3 = a3 | a4\n 42532: a5 = a5 << 0x10\n 42535: a2 = a2 << 0x18\n 42538: a2 = a2 | a5\n 42541: a2 = a2 | a3\n 42544: a2 = a2 << 0x20\n 42547: a3 = a2 | a1\n 42550: a1 = u8 [a0 + 0x19]\n 42553: a2 = u8 [a0 + 0x18]\n 42556: a4 = u8 [a0 + 0x1a]\n 42559: a5 = u8 [a0 + 0x1b]\n 42562: a1 = a1 << 0x8\n 42565: a1 = a1 | a2\n 42568: a4 = a4 << 0x10\n 42571: a5 = a5 << 0x18\n 42574: a4 = a4 | a5\n 42577: a1 = a1 | a4\n 42580: a2 = u8 [a0 + 0x1d]\n 42583: a4 = u8 [a0 + 0x1c]\n 42586: a5 = u8 [a0 + 0x1e]\n 42589: a0 = u8 [a0 + 0x1f]\n 42592: a2 = a2 << 0x8\n 42595: a2 = a2 | a4\n 42598: a5 = a5 << 0x10\n 42601: a0 = a0 << 0x18\n 42604: a0 = a0 | a5\n 42607: a0 = a0 | a2\n 42610: a0 = a0 << 0x20\n 42613: a0 = a0 | a1\n 42616: t2 = reverse a0\n 42618: u64 [s1 + 0x280] = t2\n 42622: a2 = reverse a3\n 42624: u64 [s1 + 0x200] = a2\n 42628: a1 = reverse t1\n 42630: u64 [s1 + 0x208] = a1\n 42634: a3 = reverse t0\n 42636: u64 [s1 + 0x238] = a3\n 42640: a0 = u64 [s1 + 0x210]\n 42644: u64 [s1 + 0x398] = a0\n 42648: a0 = u64 [s1 + 0x218]\n 42652: u64 [s1 + 0x390] = a0\n 42656: a0 = u64 [s1 + 0x220]\n 42660: u64 [s1 + 0x388] = a0\n 42664: a0 = u64 [s1 + 0x228]\n 42668: u64 [s1 + 0x380] = a0\n 42672: u64 [s1 + 952] = 0\n 42676: a0 = u64 [s1 + 0x288]\n 42680: u64 [s1 + 0x3b0] = a0\n 42684: a0 = u64 [s1 + 0x298]\n 42688: u64 [s1 + 0x3a8] = a0\n 42692: a0 = u64 [s1 + 0x290]\n 42696: u64 [s1 + 0x3a0] = a0\n 42700: a0 = u64 [s1 + 0x260]\n 42704: u64 [s1 + 0x3d8] = a0\n 42708: a0 = u64 [s1 + 0x278]\n 42712: u64 [s1 + 0x3d0] = a0\n 42716: a0 = u64 [s1 + 0x268]\n 42720: u64 [s1 + 0x3c8] = a0\n 42724: a0 = u64 [s1 + 0x270]\n 42728: u64 [s1 + 0x3c0] = a0\n 42732: a0 = u64 [s1 + 0x240]\n 42736: u64 [s1 + 0x3f8] = a0\n 42740: a0 = u64 [s1 + 0x248]\n 42744: u64 [s1 + 0x3f0] = a0\n 42748: a0 = u64 [s1 + 0x250]\n 42752: u64 [s1 + 0x3e8] = a0\n 42756: a0 = u64 [s1 + 0x258]\n 42760: u64 [s1 + 0x3e0] = a0\n 42764: u64 [s1 + 0x418] = a3\n 42768: u64 [s1 + 0x410] = a1\n 42772: u64 [s1 + 0x408] = a2\n 42776: a0 = s1 + 0x420\n 42780: a1 = s1 + 0x400\n 42784: a2 = s1 + 0x3e0\n 42788: a3 = s1 + 0x3c0\n 42792: a4 = s1 + 0x3a0\n 42796: a5 = s1 + 0x380\n 42800: u64 [s1 + 0x400] = t2\n 42804: ra = 496, jump @505\n      : @562 [@dyn 248] (gas: 12)\n 42810: a2 = u64 [s1 + 0x200]\n 42814: a0 = u64 [s1 + 0x238]\n 42818: a0 = a0 | a2\n 42821: a3 = u64 [s1 + 0x208]\n 42825: a1 = u64 [s1 + 0x280]\n 42829: a1 = a1 | a3\n 42832: a1 = a1 | a0\n 42835: a1 = a1 >> 0x20\n 42838: a0 = a0 | a3\n 42841: a0 = a0 << 0x20\n 42844: a0 = a0 | a1\n 42847: jump @582 if a0 != 0\n      : @563 (gas: 33)\n 42851: ra = a3\n 42853: a0 = u64 [s1 + 0x428]\n 42857: a1 = u64 [s1 + 0x438]\n 42861: u64 [s1 + 0x278] = a1\n 42865: t2 = u64 [s1 + 0x420]\n 42869: a3 = u64 [s1 + 0x430]\n 42873: a4 = a0 ^ a2\n 42876: a5 = a0 <u a2\n 42879: t0 = u64 [s1 + 0x280]\n 42883: a1 = t2 <u t0\n 42886: a5 = a1 if a4 == 0\n 42889: a4 = a3 - ra\n 42892: t1 = a4 - a5\n 42895: a4 = a4 <u a5\n 42898: u64 [s1 + 0x270] = a4\n 42902: a3 = a3 <u ra\n 42905: a5 = u64 [s1 + 0x238]\n 42909: a4 = u64 [s1 + 0x278]\n 42913: a5 = a4 - a5\n 42916: a5 = a5 - a3\n 42919: a3 = u64 [s1 + 0x270]\n 42923: a5 = a5 - a3\n 42926: a0 = a0 - a2\n 42929: a0 = a0 - a1\n 42932: a1 = t2 - t0\n 42935: a0 = a0 | a5\n 42938: a3 = a1 | t1\n 42941: a3 = a3 | a0\n 42944: a0 = a0 | t1\n 42947: a3 = a3 >> 0x20\n 42950: a0 = a0 << 0x20\n 42953: a0 = a0 | a3\n 42956: jump @582 if a0 != 0\n      : @564 (gas: 18)\n 42960: a0 = u64 [s1 + 0x230]\n 42964: a0 = reverse a0\n 42966: a0 = a0 << 0x20\n 42969: a2 = u64 [s1 + 0x1f0]\n 42973: a2 = reverse a2\n 42975: a3 = a2 >> 0x20\n 42978: a0 = a0 | a3\n 42981: u64 [s1 + 0x278] = a0\n 42985: a2 = a2 << 0x20\n 42988: a0 = u64 [s1 + 0x1f8]\n 42992: a0 = reverse a0\n 42994: a0 = a0 >> 0x20\n 42997: a0 = a0 | a2\n 43000: u64 [s1 + 0x270] = a0\n 43004: a0 = i32 [s1 + 0x280]\n 43008: i32 a1 = a1 + 0\n 43010: u64 [s1 + 0x280] = a1\n 43014: ra = 498, jump @0\n      : @565 [@dyn 249] (gas: 47)\n 43021: a1 = u64 [0x20020]\n 43026: a2 = u64 [0x20028]\n 43031: a3 = u64 [0x20030]\n 43036: a4 = u64 [0x20038]\n 43041: u64 [s1 + 0x7b8] = a1\n 43045: u64 [s1 + 0x7b0] = a2\n 43049: u64 [s1 + 0x7a8] = a3\n 43053: u64 [s1 + 0x7a0] = a4\n 43057: a1 = u64 [s1 + 0x2a0]\n 43061: u64 [s1 + 0x7d0] = a1\n 43065: a1 = u64 [s1 + 0x2a8]\n 43069: u64 [s1 + 0x7c8] = a1\n 43073: a1 = u64 [s1 + 0x2b0]\n 43077: u64 [s1 + 0x7c0] = a1\n 43081: a1 = u64 [s1 + 0x2b8]\n 43085: u64 [s1 + 0x7d8] = a1\n 43089: a1 = u64 [s1 + 0x270]\n 43093: a1 = reverse a1\n 43095: a2 = u64 [s1 + 0x278]\n 43099: a2 = reverse a2\n 43101: a3 = u64 [s1 + 0x230]\n 43105: a3 = a3 << 0x20\n 43108: u64 [s1 + 0x7e8] = a3\n 43112: u64 [s1 + 2016] = 0\n 43116: u64 [s1 + 0x7f0] = a2\n 43120: u64 [s1 + 0x7f8] = a1\n 43124: i32 a2 = a0 + 0\n 43126: i32 a0 = s1 + 0x7a0\n 43130: a1 = 0x3\n 43133: a3 = u64 [s1 + 0x280]\n 43137: ecalli 7 // 'deposit_event'\n 43139: a0 = u64 [s1 + 0x98]\n 43143: u64 [a0 + 24] = 0\n 43146: a1 = u64 [s1 + 0x288]\n 43150: u64 [a0 + 0x10] = a1\n 43153: a1 = u64 [s1 + 0x298]\n 43157: u64 [a0 + 0x8] = a1\n 43160: a1 = u64 [s1 + 0x290]\n 43164: u64 [a0] = a1\n 43166: sp = s0 + 0xfffffffffffff800\n 43170: sp = sp + 0xffffffffffffffe0\n 43173: sp = sp + 0x630\n 43177: ra = u64 [sp + 0x1e8]\n 43181: s0 = u64 [sp + 0x1e0]\n 43185: s1 = u64 [sp + 0x1d8]\n 43189: sp = sp + 0x1f0\n 43193: ret\n      : @566 (gas: 3)\n 43195: a0 = 0x40\n 43198: a1 = 0x20\n 43201: ra = 500, jump @0\n      : @567 [@dyn 250] (gas: 104)\n 43208: a1 = u8 [a0 + 0x11]\n 43211: a2 = u8 [a0 + 0x10]\n 43214: a3 = u8 [a0 + 0x12]\n 43217: a4 = u8 [a0 + 0x13]\n 43220: a1 = a1 << 0x8\n 43223: a1 = a1 | a2\n 43226: a3 = a3 << 0x10\n 43229: a4 = a4 << 0x18\n 43232: a3 = a3 | a4\n 43235: a1 = a1 | a3\n 43238: a2 = u8 [a0 + 0x15]\n 43241: a3 = u8 [a0 + 0x14]\n 43244: a4 = u8 [a0 + 0x16]\n 43247: a5 = u8 [a0 + 0x17]\n 43250: a2 = a2 << 0x8\n 43253: a2 = a2 | a3\n 43256: a4 = a4 << 0x10\n 43259: a5 = a5 << 0x18\n 43262: a4 = a4 | a5\n 43265: a2 = a2 | a4\n 43268: a2 = a2 << 0x20\n 43271: t0 = a2 | a1\n 43274: a2 = u8 [a0 + 0x1]\n 43277: a3 = u8 [a0]\n 43279: a4 = u8 [a0 + 0x2]\n 43282: a5 = u8 [a0 + 0x3]\n 43285: a2 = a2 << 0x8\n 43288: a2 = a2 | a3\n 43291: a4 = a4 << 0x10\n 43294: a5 = a5 << 0x18\n 43297: a4 = a4 | a5\n 43300: a2 = a2 | a4\n 43303: a3 = u8 [a0 + 0x5]\n 43306: a4 = u8 [a0 + 0x4]\n 43309: a5 = u8 [a0 + 0x6]\n 43312: a1 = u8 [a0 + 0x7]\n 43315: a3 = a3 << 0x8\n 43318: a3 = a3 | a4\n 43321: a5 = a5 << 0x10\n 43324: a1 = a1 << 0x18\n 43327: a1 = a1 | a5\n 43330: a1 = a1 | a3\n 43333: a1 = a1 << 0x20\n 43336: t1 = a1 | a2\n 43339: a1 = u8 [a0 + 0x19]\n 43342: a3 = u8 [a0 + 0x18]\n 43345: a4 = u8 [a0 + 0x1a]\n 43348: a5 = u8 [a0 + 0x1b]\n 43351: a1 = a1 << 0x8\n 43354: a1 = a1 | a3\n 43357: a4 = a4 << 0x10\n 43360: a5 = a5 << 0x18\n 43363: a4 = a4 | a5\n 43366: a1 = a1 | a4\n 43369: a3 = u8 [a0 + 0x1d]\n 43372: a4 = u8 [a0 + 0x1c]\n 43375: a5 = u8 [a0 + 0x1e]\n 43378: a2 = u8 [a0 + 0x1f]\n 43381: a3 = a3 << 0x8\n 43384: a3 = a3 | a4\n 43387: a5 = a5 << 0x10\n 43390: a2 = a2 << 0x18\n 43393: a2 = a2 | a5\n 43396: a2 = a2 | a3\n 43399: a2 = a2 << 0x20\n 43402: a3 = a2 | a1\n 43405: a1 = u8 [a0 + 0x9]\n 43408: a2 = u8 [a0 + 0x8]\n 43411: a4 = u8 [a0 + 0xa]\n 43414: a5 = u8 [a0 + 0xb]\n 43417: a1 = a1 << 0x8\n 43420: a1 = a1 | a2\n 43423: a4 = a4 << 0x10\n 43426: a5 = a5 << 0x18\n 43429: a4 = a4 | a5\n 43432: a1 = a1 | a4\n 43435: a2 = u8 [a0 + 0xd]\n 43438: a4 = u8 [a0 + 0xc]\n 43441: a5 = u8 [a0 + 0xe]\n 43444: a0 = u8 [a0 + 0xf]\n 43447: a2 = a2 << 0x8\n 43450: a2 = a2 | a4\n 43453: a5 = a5 << 0x10\n 43456: a0 = a0 << 0x18\n 43459: a0 = a0 | a5\n 43462: a0 = a0 | a2\n 43465: a0 = a0 << 0x20\n 43468: a0 = a0 | a1\n 43471: a4 = reverse a0\n 43473: a1 = reverse a3\n 43475: a2 = reverse t1\n 43477: a0 = reverse t0\n 43479: u64 [s1 + 0x2b8] = a0\n 43483: u64 [s1 + 0x2a8] = a2\n 43487: a0 = a0 | a2\n 43490: a2 = a1\n 43492: a1 = a1 | a4\n 43495: a1 = a1 | a0\n 43498: a1 = a1 >> 0x20\n 43501: u64 [s1 + 0x2b0] = a4\n 43505: a0 = a0 | a4\n 43508: a0 = a0 << 0x20\n 43511: a0 = a0 | a1\n 43514: jump @582 if a0 != 0\n      : @568 (gas: 5)\n 43518: u64 [s1 + 0x2a0] = a2\n 43522: i32 a0 = a2 + 0\n 43524: a1 = 0x20\n 43527: u64 [s1 + 0x298] = a0\n 43531: ra = 502, jump @0\n      : @569 [@dyn 251] (gas: 51)\n 43538: u8 [a0 + 31] = 0\n 43541: u8 [a0 + 30] = 0\n 43544: u8 [a0 + 29] = 0\n 43547: u8 [a0 + 28] = 0\n 43550: u8 [a0 + 27] = 0\n 43553: u8 [a0 + 26] = 0\n 43556: u8 [a0 + 25] = 0\n 43559: u8 [a0 + 24] = 0\n 43562: u8 [a0 + 23] = 0\n 43565: u8 [a0 + 22] = 0\n 43568: u8 [a0 + 21] = 0\n 43571: u8 [a0 + 20] = 0\n 43574: u8 [a0 + 19] = 0\n 43577: u8 [a0 + 18] = 0\n 43580: u8 [a0 + 17] = 0\n 43583: u8 [a0 + 16] = 0\n 43586: u8 [a0 + 15] = 0\n 43589: u8 [a0 + 14] = 0\n 43592: u8 [a0 + 13] = 0\n 43595: u8 [a0 + 12] = 0\n 43598: u8 [a0 + 11] = 0\n 43601: u8 [a0 + 10] = 0\n 43604: u8 [a0 + 9] = 0\n 43607: u8 [a0 + 8] = 0\n 43610: u8 [a0 + 7] = 0\n 43613: u8 [a0 + 6] = 0\n 43616: u8 [a0 + 5] = 0\n 43619: u8 [a0 + 4] = 0\n 43622: u8 [a0 + 3] = 0xa0\n 43627: u8 [a0 + 2] = 0x79\n 43631: u8 [a0 + 1] = 0xc3\n 43636: u8 [a0 + 0] = 0x8\n 43639: a1 = u64 [s1 + 0x2a0]\n 43643: a0 = a1 + 0x4\n 43646: a1 = a0 <u a1\n 43649: a3 = u64 [s1 + 0x2b8]\n 43653: a2 = a3 + a1\n 43656: a3 = a2 <u a3\n 43659: a3 = a1 if a1 == 0\n 43662: a1 = u64 [s1 + 0x2b0]\n 43666: a3 = a3 + a1\n 43669: a1 = a3 <u a1\n 43672: a4 = u64 [s1 + 0x2a8]\n 43676: a4 = a4 + a1\n 43679: u64 [s1 + 0x2c8] = a2\n 43683: u64 [s1 + 0x2c0] = a0\n 43687: u64 [s1 + 0x2d0] = a3\n 43691: a0 = s1 + 0x2e0\n 43695: a1 = s1 + 0x2c0\n 43699: u64 [s1 + 0x2d8] = a4\n 43703: ra = 504, jump @392\n      : @570 [@dyn 252] (gas: 5)\n 43709: a0 = u64 [s1 + 0x2e8]\n 43713: t0 = u64 [s1 + 0x2f8]\n 43717: t1 = u64 [s1 + 0x2e0]\n 43721: a3 = u64 [s1 + 0x2f0]\n 43725: jump @581\n      : @571 (gas: 3)\n 43728: a0 = 0x40\n 43731: a1 = 0x20\n 43734: ra = 506, jump @0\n      : @572 [@dyn 253] (gas: 104)\n 43741: a1 = u8 [a0 + 0x11]\n 43744: a2 = u8 [a0 + 0x10]\n 43747: a3 = u8 [a0 + 0x12]\n 43750: a4 = u8 [a0 + 0x13]\n 43753: a1 = a1 << 0x8\n 43756: a1 = a1 | a2\n 43759: a3 = a3 << 0x10\n 43762: a4 = a4 << 0x18\n 43765: a3 = a3 | a4\n 43768: a1 = a1 | a3\n 43771: a2 = u8 [a0 + 0x15]\n 43774: a3 = u8 [a0 + 0x14]\n 43777: a4 = u8 [a0 + 0x16]\n 43780: a5 = u8 [a0 + 0x17]\n 43783: a2 = a2 << 0x8\n 43786: a2 = a2 | a3\n 43789: a4 = a4 << 0x10\n 43792: a5 = a5 << 0x18\n 43795: a4 = a4 | a5\n 43798: a2 = a2 | a4\n 43801: a2 = a2 << 0x20\n 43804: t0 = a2 | a1\n 43807: a2 = u8 [a0 + 0x1]\n 43810: a3 = u8 [a0]\n 43812: a4 = u8 [a0 + 0x2]\n 43815: a5 = u8 [a0 + 0x3]\n 43818: a2 = a2 << 0x8\n 43821: a2 = a2 | a3\n 43824: a4 = a4 << 0x10\n 43827: a5 = a5 << 0x18\n 43830: a4 = a4 | a5\n 43833: a2 = a2 | a4\n 43836: a3 = u8 [a0 + 0x5]\n 43839: a4 = u8 [a0 + 0x4]\n 43842: a5 = u8 [a0 + 0x6]\n 43845: a1 = u8 [a0 + 0x7]\n 43848: a3 = a3 << 0x8\n 43851: a3 = a3 | a4\n 43854: a5 = a5 << 0x10\n 43857: a1 = a1 << 0x18\n 43860: a1 = a1 | a5\n 43863: a1 = a1 | a3\n 43866: a1 = a1 << 0x20\n 43869: t1 = a1 | a2\n 43872: a1 = u8 [a0 + 0x19]\n 43875: a3 = u8 [a0 + 0x18]\n 43878: a4 = u8 [a0 + 0x1a]\n 43881: a5 = u8 [a0 + 0x1b]\n 43884: a1 = a1 << 0x8\n 43887: a1 = a1 | a3\n 43890: a4 = a4 << 0x10\n 43893: a5 = a5 << 0x18\n 43896: a4 = a4 | a5\n 43899: a1 = a1 | a4\n 43902: a3 = u8 [a0 + 0x1d]\n 43905: a4 = u8 [a0 + 0x1c]\n 43908: a5 = u8 [a0 + 0x1e]\n 43911: a2 = u8 [a0 + 0x1f]\n 43914: a3 = a3 << 0x8\n 43917: a3 = a3 | a4\n 43920: a5 = a5 << 0x10\n 43923: a2 = a2 << 0x18\n 43926: a2 = a2 | a5\n 43929: a2 = a2 | a3\n 43932: a2 = a2 << 0x20\n 43935: a3 = a2 | a1\n 43938: a1 = u8 [a0 + 0x9]\n 43941: a2 = u8 [a0 + 0x8]\n 43944: a4 = u8 [a0 + 0xa]\n 43947: a5 = u8 [a0 + 0xb]\n 43950: a1 = a1 << 0x8\n 43953: a1 = a1 | a2\n 43956: a4 = a4 << 0x10\n 43959: a5 = a5 << 0x18\n 43962: a4 = a4 | a5\n 43965: a1 = a1 | a4\n 43968: a2 = u8 [a0 + 0xd]\n 43971: a4 = u8 [a0 + 0xc]\n 43974: a5 = u8 [a0 + 0xe]\n 43977: a0 = u8 [a0 + 0xf]\n 43980: a2 = a2 << 0x8\n 43983: a2 = a2 | a4\n 43986: a5 = a5 << 0x10\n 43989: a0 = a0 << 0x18\n 43992: a0 = a0 | a5\n 43995: a0 = a0 | a2\n 43998: a0 = a0 << 0x20\n 44001: a0 = a0 | a1\n 44004: a4 = reverse a0\n 44006: a1 = reverse a3\n 44008: a2 = reverse t1\n 44010: a0 = reverse t0\n 44012: u64 [s1 + 0x2b8] = a0\n 44016: u64 [s1 + 0x2a8] = a2\n 44020: a0 = a0 | a2\n 44023: a2 = a1\n 44025: a1 = a1 | a4\n 44028: a1 = a1 | a0\n 44031: a1 = a1 >> 0x20\n 44034: u64 [s1 + 0x2b0] = a4\n 44038: a0 = a0 | a4\n 44041: a0 = a0 << 0x20\n 44044: a0 = a0 | a1\n 44047: jump @582 if a0 != 0\n      : @573 (gas: 5)\n 44051: u64 [s1 + 0x2a0] = a2\n 44055: i32 a0 = a2 + 0\n 44057: a1 = 0x20\n 44060: u64 [s1 + 0x298] = a0\n 44064: ra = 508, jump @0\n      : @574 [@dyn 254] (gas: 51)\n 44071: u8 [a0 + 31] = 0\n 44074: u8 [a0 + 30] = 0\n 44077: u8 [a0 + 29] = 0\n 44080: u8 [a0 + 28] = 0\n 44083: u8 [a0 + 27] = 0\n 44086: u8 [a0 + 26] = 0\n 44089: u8 [a0 + 25] = 0\n 44092: u8 [a0 + 24] = 0\n 44095: u8 [a0 + 23] = 0\n 44098: u8 [a0 + 22] = 0\n 44101: u8 [a0 + 21] = 0\n 44104: u8 [a0 + 20] = 0\n 44107: u8 [a0 + 19] = 0\n 44110: u8 [a0 + 18] = 0\n 44113: u8 [a0 + 17] = 0\n 44116: u8 [a0 + 16] = 0\n 44119: u8 [a0 + 15] = 0\n 44122: u8 [a0 + 14] = 0\n 44125: u8 [a0 + 13] = 0\n 44128: u8 [a0 + 12] = 0\n 44131: u8 [a0 + 11] = 0\n 44134: u8 [a0 + 10] = 0\n 44137: u8 [a0 + 9] = 0\n 44140: u8 [a0 + 8] = 0\n 44143: u8 [a0 + 7] = 0\n 44146: u8 [a0 + 6] = 0\n 44149: u8 [a0 + 5] = 0\n 44152: u8 [a0 + 4] = 0\n 44155: u8 [a0 + 3] = 0xa0\n 44160: u8 [a0 + 2] = 0x79\n 44164: u8 [a0 + 1] = 0xc3\n 44169: u8 [a0 + 0] = 0x8\n 44172: a1 = u64 [s1 + 0x2a0]\n 44176: a0 = a1 + 0x4\n 44179: a1 = a0 <u a1\n 44182: a3 = u64 [s1 + 0x2b8]\n 44186: a2 = a3 + a1\n 44189: a3 = a2 <u a3\n 44192: a3 = a1 if a1 == 0\n 44195: a1 = u64 [s1 + 0x2b0]\n 44199: a3 = a3 + a1\n 44202: a1 = a3 <u a1\n 44205: a4 = u64 [s1 + 0x2a8]\n 44209: a4 = a4 + a1\n 44212: u64 [s1 + 0x308] = a2\n 44216: u64 [s1 + 0x300] = a0\n 44220: u64 [s1 + 0x310] = a3\n 44224: a0 = s1 + 0x320\n 44228: a1 = s1 + 0x300\n 44232: u64 [s1 + 0x318] = a4\n 44236: ra = 510, jump @400\n      : @575 [@dyn 255] (gas: 5)\n 44242: a0 = u64 [s1 + 0x328]\n 44246: t0 = u64 [s1 + 0x338]\n 44250: t1 = u64 [s1 + 0x320]\n 44254: a3 = u64 [s1 + 0x330]\n 44258: jump @581\n      : @576 (gas: 3)\n 44261: a0 = 0x40\n 44264: a1 = 0x20\n 44267: ra = 512, jump @0\n      : @577 [@dyn 256] (gas: 104)\n 44274: a1 = u8 [a0 + 0x11]\n 44277: a2 = u8 [a0 + 0x10]\n 44280: a3 = u8 [a0 + 0x12]\n 44283: a4 = u8 [a0 + 0x13]\n 44286: a1 = a1 << 0x8\n 44289: a1 = a1 | a2\n 44292: a3 = a3 << 0x10\n 44295: a4 = a4 << 0x18\n 44298: a3 = a3 | a4\n 44301: a1 = a1 | a3\n 44304: a2 = u8 [a0 + 0x15]\n 44307: a3 = u8 [a0 + 0x14]\n 44310: a4 = u8 [a0 + 0x16]\n 44313: a5 = u8 [a0 + 0x17]\n 44316: a2 = a2 << 0x8\n 44319: a2 = a2 | a3\n 44322: a4 = a4 << 0x10\n 44325: a5 = a5 << 0x18\n 44328: a4 = a4 | a5\n 44331: a2 = a2 | a4\n 44334: a2 = a2 << 0x20\n 44337: t0 = a2 | a1\n 44340: a2 = u8 [a0 + 0x1]\n 44343: a3 = u8 [a0]\n 44345: a4 = u8 [a0 + 0x2]\n 44348: a5 = u8 [a0 + 0x3]\n 44351: a2 = a2 << 0x8\n 44354: a2 = a2 | a3\n 44357: a4 = a4 << 0x10\n 44360: a5 = a5 << 0x18\n 44363: a4 = a4 | a5\n 44366: a2 = a2 | a4\n 44369: a3 = u8 [a0 + 0x5]\n 44372: a4 = u8 [a0 + 0x4]\n 44375: a5 = u8 [a0 + 0x6]\n 44378: a1 = u8 [a0 + 0x7]\n 44381: a3 = a3 << 0x8\n 44384: a3 = a3 | a4\n 44387: a5 = a5 << 0x10\n 44390: a1 = a1 << 0x18\n 44393: a1 = a1 | a5\n 44396: a1 = a1 | a3\n 44399: a1 = a1 << 0x20\n 44402: t1 = a1 | a2\n 44405: a1 = u8 [a0 + 0x19]\n 44408: a3 = u8 [a0 + 0x18]\n 44411: a4 = u8 [a0 + 0x1a]\n 44414: a5 = u8 [a0 + 0x1b]\n 44417: a1 = a1 << 0x8\n 44420: a1 = a1 | a3\n 44423: a4 = a4 << 0x10\n 44426: a5 = a5 << 0x18\n 44429: a4 = a4 | a5\n 44432: a1 = a1 | a4\n 44435: a3 = u8 [a0 + 0x1d]\n 44438: a4 = u8 [a0 + 0x1c]\n 44441: a5 = u8 [a0 + 0x1e]\n 44444: a2 = u8 [a0 + 0x1f]\n 44447: a3 = a3 << 0x8\n 44450: a3 = a3 | a4\n 44453: a5 = a5 << 0x10\n 44456: a2 = a2 << 0x18\n 44459: a2 = a2 | a5\n 44462: a2 = a2 | a3\n 44465: a2 = a2 << 0x20\n 44468: a3 = a2 | a1\n 44471: a1 = u8 [a0 + 0x9]\n 44474: a2 = u8 [a0 + 0x8]\n 44477: a4 = u8 [a0 + 0xa]\n 44480: a5 = u8 [a0 + 0xb]\n 44483: a1 = a1 << 0x8\n 44486: a1 = a1 | a2\n 44489: a4 = a4 << 0x10\n 44492: a5 = a5 << 0x18\n 44495: a4 = a4 | a5\n 44498: a1 = a1 | a4\n 44501: a2 = u8 [a0 + 0xd]\n 44504: a4 = u8 [a0 + 0xc]\n 44507: a5 = u8 [a0 + 0xe]\n 44510: a0 = u8 [a0 + 0xf]\n 44513: a2 = a2 << 0x8\n 44516: a2 = a2 | a4\n 44519: a5 = a5 << 0x10\n 44522: a0 = a0 << 0x18\n 44525: a0 = a0 | a5\n 44528: a0 = a0 | a2\n 44531: a0 = a0 << 0x20\n 44534: a0 = a0 | a1\n 44537: a4 = reverse a0\n 44539: a1 = reverse a3\n 44541: a2 = reverse t1\n 44543: a0 = reverse t0\n 44545: u64 [s1 + 0x2b8] = a0\n 44549: u64 [s1 + 0x2a8] = a2\n 44553: a0 = a0 | a2\n 44556: a2 = a1\n 44558: a1 = a1 | a4\n 44561: a1 = a1 | a0\n 44564: a1 = a1 >> 0x20\n 44567: u64 [s1 + 0x2b0] = a4\n 44571: a0 = a0 | a4\n 44574: a0 = a0 << 0x20\n 44577: a0 = a0 | a1\n 44580: jump @582 if a0 != 0\n      : @578 (gas: 5)\n 44584: u64 [s1 + 0x2a0] = a2\n 44588: i32 a0 = a2 + 0\n 44590: a1 = 0x20\n 44593: u64 [s1 + 0x298] = a0\n 44597: ra = 514, jump @0\n      : @579 [@dyn 257] (gas: 51)\n 44604: u8 [a0 + 31] = 0\n 44607: u8 [a0 + 30] = 0\n 44610: u8 [a0 + 29] = 0\n 44613: u8 [a0 + 28] = 0\n 44616: u8 [a0 + 27] = 0\n 44619: u8 [a0 + 26] = 0\n 44622: u8 [a0 + 25] = 0\n 44625: u8 [a0 + 24] = 0\n 44628: u8 [a0 + 23] = 0\n 44631: u8 [a0 + 22] = 0\n 44634: u8 [a0 + 21] = 0\n 44637: u8 [a0 + 20] = 0\n 44640: u8 [a0 + 19] = 0\n 44643: u8 [a0 + 18] = 0\n 44646: u8 [a0 + 17] = 0\n 44649: u8 [a0 + 16] = 0\n 44652: u8 [a0 + 15] = 0\n 44655: u8 [a0 + 14] = 0\n 44658: u8 [a0 + 13] = 0\n 44661: u8 [a0 + 12] = 0\n 44664: u8 [a0 + 11] = 0\n 44667: u8 [a0 + 10] = 0\n 44670: u8 [a0 + 9] = 0\n 44673: u8 [a0 + 8] = 0\n 44676: u8 [a0 + 7] = 0\n 44679: u8 [a0 + 6] = 0\n 44682: u8 [a0 + 5] = 0\n 44685: u8 [a0 + 4] = 0\n 44688: u8 [a0 + 3] = 0xa0\n 44693: u8 [a0 + 2] = 0x79\n 44697: u8 [a0 + 1] = 0xc3\n 44702: u8 [a0 + 0] = 0x8\n 44705: a1 = u64 [s1 + 0x2a0]\n 44709: a0 = a1 + 0x4\n 44712: a1 = a0 <u a1\n 44715: a3 = u64 [s1 + 0x2b8]\n 44719: a2 = a3 + a1\n 44722: a3 = a2 <u a3\n 44725: a3 = a1 if a1 == 0\n 44728: a1 = u64 [s1 + 0x2b0]\n 44732: a3 = a3 + a1\n 44735: a1 = a3 <u a1\n 44738: a4 = u64 [s1 + 0x2a8]\n 44742: a4 = a4 + a1\n 44745: u64 [s1 + 0x5e8] = a2\n 44749: u64 [s1 + 0x5e0] = a0\n 44753: u64 [s1 + 0x5f0] = a3\n 44757: a0 = s1 + 0x600\n 44761: a1 = s1 + 0x5e0\n 44765: u64 [s1 + 0x5f8] = a4\n 44769: ra = 516, jump @456\n      : @580 [@dyn 258] (gas: 5)\n 44775: a0 = u64 [s1 + 0x608]\n 44779: t0 = u64 [s1 + 0x618]\n 44783: t1 = u64 [s1 + 0x600]\n 44787: a3 = u64 [s1 + 0x610]\n 44791: fallthrough\n      : @581 (gas: 27)\n 44792: a1 = u64 [s1 + 0x2b8]\n 44796: a4 = a0 ^ a1\n 44799: a5 = a0 <u a1\n 44802: ra = a1\n 44804: t2 = u64 [s1 + 0x2a0]\n 44808: a1 = t1 <u t2\n 44811: a5 = a1 if a4 == 0\n 44814: a2 = u64 [s1 + 0x2b0]\n 44818: a4 = a3 - a2\n 44821: a3 = a3 <u a2\n 44824: a2 = u64 [s1 + 0x2a8]\n 44828: a2 = t0 - a2\n 44831: a2 = a2 - a3\n 44834: a3 = a4 <u a5\n 44837: a2 = a2 - a3\n 44840: a4 = a4 - a5\n 44843: a0 = a0 - ra\n 44846: a1 = a0 - a1\n 44849: a0 = t1 - t2\n 44852: a1 = a1 | a2\n 44855: a2 = a0 | a4\n 44858: a2 = a2 | a1\n 44861: a1 = a1 | a4\n 44864: a2 = a2 >> 0x20\n 44867: a1 = a1 << 0x20\n 44870: a1 = a1 | a2\n 44873: jump @588 if a1 == 0\n      : @582 (gas: 1)\n 44876: trap\n      : @583 (gas: 1)\n 44877: ra = 518, jump @282\n      : @584 [@dyn 259] (gas: 8)\n 44883: u64 [s1 + 880] = 0\n 44887: u64 [s1 + 872] = 0\n 44891: u64 [s1 + 864] = 0\n 44895: a0 = 0x4e487b7100000000\n 44905: a1 = s1 + 0x360\n 44909: u64 [s1 + 0x378] = a0\n 44913: a0 = 0\n 44915: ra = 520, jump @8\n      : @585 [@dyn 260] (gas: 7)\n 44922: u64 [s1 + 856] = 0\n 44926: u64 [s1 + 848] = 0\n 44930: u64 [s1 + 832] = 0x41\n 44935: a0 = 0x4\n 44938: a1 = s1 + 0x340\n 44942: u64 [s1 + 840] = 0\n 44946: ra = 522, jump @8\n      : @586 [@dyn 261] (gas: 3)\n 44953: a1 = 0x24\n 44956: a0 = 0\n 44958: ra = 524, jump @0\n      : @587 [@dyn 262] (gas: 5)\n 44965: i32 a1 = a0 + 0\n 44967: a0 = 0x1\n 44970: a2 = 0x24\n 44973: ecalli 14 // 'seal_return'\n 44975: fallthrough\n      : @588 (gas: 4)\n 44976: i32 a1 = a0 + 0\n 44978: u64 [s1 + 0x2b8] = a1\n 44982: a0 = u64 [s1 + 0x298]\n 44986: ra = 526, jump @0\n      : @589 [@dyn 263] (gas: 6)\n 44993: i32 a1 = a0 + 0\n 44995: a0 = 0x1\n 44998: a2 = u64 [s1 + 0x2b8]\n 45002: ra = 0x210\n 45006: ecalli 14 // 'seal_return'\n 45008: fallthrough\n      : @590 [@dyn 264] (gas: 6)\n 45009: u64 [a0 + 24] = 0\n 45012: u64 [a0 + 16] = 0\n 45015: u64 [a0 + 8] = 0\n 45018: a1 = 0x60\n 45021: u64 [a0] = a1\n 45023: ret\n      : @591 (gas: 12)\n 45025: a0 = u64 [sp + 0x70]\n 45028: a1 = u64 [sp + 0x78]\n 45031: a0 = a0 | a1\n 45034: a1 = u64 [sp + 0x98]\n 45038: a1 = a1 | s1\n 45041: a1 = a1 | a0\n 45044: a1 = a1 >> 0x20\n 45047: u64 [sp + 0x68] = s1\n 45050: a0 = a0 | s1\n 45053: a0 = a0 << 0x20\n 45056: a0 = a0 | a1\n 45059: jump @605 if a0 != 0\n      : @592 (gas: 11)\n 45063: s1 = u64 [sp + 0xd8]\n 45067: u64 [sp + 0x80] = s1\n 45071: a0 = u64 [sp + 0xd0]\n 45075: u64 [sp + 0x90] = a0\n 45079: a0 = u64 [sp + 0xc8]\n 45083: u64 [sp + 0x60] = a0\n 45086: a0 = u64 [sp + 0xc0]\n 45090: u64 [sp + 0x88] = a0\n 45094: a0 = i32 [sp + 0x98]\n 45098: a1 = 0x20\n 45101: ra = 530, jump @0\n      : @593 [@dyn 265] (gas: 70)\n 45108: a1 = reverse s1\n 45110: a2 = u64 [sp + 0x90]\n 45114: a2 = reverse a2\n 45116: s1 = u64 [sp + 0x60]\n 45119: a3 = reverse s1\n 45121: a4 = u64 [sp + 0x88]\n 45125: a4 = reverse a4\n 45127: a5 = a4 >> 0x38\n 45130: u8 [a0 + 0x1f] = a5\n 45133: a5 = a4 >> 0x30\n 45136: u8 [a0 + 0x1e] = a5\n 45139: a5 = a4 >> 0x28\n 45142: u8 [a0 + 0x1d] = a5\n 45145: a5 = a4 >> 0x20\n 45148: u8 [a0 + 0x1c] = a5\n 45151: a5 = a4 >> 0x18\n 45154: u8 [a0 + 0x1b] = a5\n 45157: a5 = a4 >> 0x10\n 45160: u8 [a0 + 0x1a] = a5\n 45163: a5 = a4 >> 0x8\n 45166: u8 [a0 + 0x19] = a5\n 45169: u8 [a0 + 0x18] = a4\n 45172: u8 [a0 + 0x10] = a3\n 45175: a4 = a3 >> 0x38\n 45178: u8 [a0 + 0x17] = a4\n 45181: a4 = a3 >> 0x30\n 45184: u8 [a0 + 0x16] = a4\n 45187: a4 = a3 >> 0x28\n 45190: u8 [a0 + 0x15] = a4\n 45193: a4 = a3 >> 0x20\n 45196: u8 [a0 + 0x14] = a4\n 45199: a4 = a3 >> 0x18\n 45202: u8 [a0 + 0x13] = a4\n 45205: a4 = a3 >> 0x10\n 45208: u8 [a0 + 0x12] = a4\n 45211: a3 = a3 >> 0x8\n 45214: u8 [a0 + 0x11] = a3\n 45217: u8 [a0 + 0x8] = a2\n 45220: a3 = a2 >> 0x38\n 45223: u8 [a0 + 0xf] = a3\n 45226: a3 = a2 >> 0x30\n 45229: u8 [a0 + 0xe] = a3\n 45232: a3 = a2 >> 0x28\n 45235: u8 [a0 + 0xd] = a3\n 45238: a3 = a2 >> 0x20\n 45241: u8 [a0 + 0xc] = a3\n 45244: a3 = a2 >> 0x18\n 45247: u8 [a0 + 0xb] = a3\n 45250: a3 = a2 >> 0x10\n 45253: u8 [a0 + 0xa] = a3\n 45256: a2 = a2 >> 0x8\n 45259: u8 [a0 + 0x9] = a2\n 45262: u8 [a0] = a1\n 45264: a2 = a1 >> 0x38\n 45267: u8 [a0 + 0x7] = a2\n 45270: a2 = a1 >> 0x30\n 45273: u8 [a0 + 0x6] = a2\n 45276: a2 = a1 >> 0x28\n 45279: u8 [a0 + 0x5] = a2\n 45282: a2 = a1 >> 0x20\n 45285: u8 [a0 + 0x4] = a2\n 45288: a2 = a1 >> 0x18\n 45291: u8 [a0 + 0x3] = a2\n 45294: a2 = a1 >> 0x10\n 45297: u8 [a0 + 0x2] = a2\n 45300: a1 = a1 >> 0x8\n 45303: u8 [a0 + 0x1] = a1\n 45306: a1 = 0x20\n 45309: a0 = 0\n 45311: ra = 532, jump @0\n      : @594 [@dyn 266] (gas: 71)\n 45318: a1 = u64 [sp + 0x40]\n 45321: a1 = reverse a1\n 45323: a2 = u64 [sp + 0x48]\n 45326: a2 = reverse a2\n 45328: a3 = u64 [sp + 0x50]\n 45331: a3 = reverse a3\n 45333: a4 = u64 [sp + 0x58]\n 45336: a4 = reverse a4\n 45338: a5 = a4 >> 0x38\n 45341: u8 [a0 + 0x1f] = a5\n 45344: a5 = a4 >> 0x30\n 45347: u8 [a0 + 0x1e] = a5\n 45350: a5 = a4 >> 0x28\n 45353: u8 [a0 + 0x1d] = a5\n 45356: a5 = a4 >> 0x20\n 45359: u8 [a0 + 0x1c] = a5\n 45362: a5 = a4 >> 0x18\n 45365: u8 [a0 + 0x1b] = a5\n 45368: a5 = a4 >> 0x10\n 45371: u8 [a0 + 0x1a] = a5\n 45374: a5 = a4 >> 0x8\n 45377: u8 [a0 + 0x19] = a5\n 45380: u8 [a0 + 0x18] = a4\n 45383: a4 = a3 >> 0x38\n 45386: u8 [a0 + 0x17] = a4\n 45389: a4 = a3 >> 0x30\n 45392: u8 [a0 + 0x16] = a4\n 45395: a4 = a3 >> 0x28\n 45398: u8 [a0 + 0x15] = a4\n 45401: a4 = a3 >> 0x20\n 45404: u8 [a0 + 0x14] = a4\n 45407: a4 = a3 >> 0x18\n 45410: u8 [a0 + 0x13] = a4\n 45413: a4 = a3 >> 0x10\n 45416: u8 [a0 + 0x12] = a4\n 45419: a4 = a3 >> 0x8\n 45422: u8 [a0 + 0x11] = a4\n 45425: u8 [a0 + 0x10] = a3\n 45428: a3 = a2 >> 0x38\n 45431: u8 [a0 + 0xf] = a3\n 45434: a3 = a2 >> 0x30\n 45437: u8 [a0 + 0xe] = a3\n 45440: a3 = a2 >> 0x28\n 45443: u8 [a0 + 0xd] = a3\n 45446: a3 = a2 >> 0x20\n 45449: u8 [a0 + 0xc] = a3\n 45452: a3 = a2 >> 0x18\n 45455: u8 [a0 + 0xb] = a3\n 45458: a3 = a2 >> 0x10\n 45461: u8 [a0 + 0xa] = a3\n 45464: a3 = a2 >> 0x8\n 45467: u8 [a0 + 0x9] = a3\n 45470: u8 [a0 + 0x8] = a2\n 45473: a2 = a1 >> 0x38\n 45476: u8 [a0 + 0x7] = a2\n 45479: a2 = a1 >> 0x30\n 45482: u8 [a0 + 0x6] = a2\n 45485: a2 = a1 >> 0x28\n 45488: u8 [a0 + 0x5] = a2\n 45491: a2 = a1 >> 0x20\n 45494: u8 [a0 + 0x4] = a2\n 45497: a2 = a1 >> 0x18\n 45500: u8 [a0 + 0x3] = a2\n 45503: a2 = a1 >> 0x10\n 45506: u8 [a0 + 0x2] = a2\n 45509: a2 = a1 >> 0x8\n 45512: u8 [a0 + 0x1] = a2\n 45515: u8 [a0] = a1\n 45517: a1 = 0x20\n 45520: a0 = 0\n 45522: ra = 534, jump @0\n      : @595 [@dyn 267] (gas: 5)\n 45529: i32 a0 = a0 + 0\n 45531: i32 a2 = sp + 0xc0\n 45535: a1 = 0x20\n 45538: ecalli 9 // 'hash_keccak_256'\n 45540: fallthrough\n      : @596 (gas: 20)\n 45541: a1 = u64 [sp + 0x98]\n 45545: a0 = a1 + 0x20\n 45548: u64 [sp + 0x50] = a0\n 45551: a2 = a0 <u a1\n 45554: a1 = u64 [sp + 0x78]\n 45557: t2 = a1 + a2\n 45560: a3 = t2 <u a1\n 45563: a3 = a2 if a2 == 0\n 45566: a2 = u64 [sp + 0x68]\n 45569: ra = a2 + a3\n 45572: a0 = u64 [sp + 0x90]\n 45576: a3 = u64 [sp + 0x88]\n 45580: a3 = a3 | a0\n 45583: a0 = u64 [sp + 0x80]\n 45587: a4 = s1 | a0\n 45590: a4 = a4 | a3\n 45593: a3 = ra <u a2\n 45596: t1 = u64 [sp + 0x70]\n 45599: a3 = a3 + t1\n 45602: jump @603 if a4 == 0\n      : @597 (gas: 161)\n 45606: a0 = 0xffffffe0\n 45616: a4 = u64 [sp + 0x98]\n 45620: s1 = a0 <u a4\n 45623: u64 [sp + 0x40] = s1\n 45626: a5 = a1 >u 0\n 45628: a5 = s1 if a1 == 0\n 45631: s1 = -a2\n 45633: a1 = s1 - a5\n 45636: u64 [sp + 0x58] = a1\n 45639: t0 = a1 >u 0\n 45641: a5 = s1 <u a5\n 45644: s1 = a2 >u 0\n 45646: s1 = s1 + t1\n 45649: s1 = -s1\n 45651: s1 = s1 - a5\n 45654: t1 = s1 >u 0\n 45656: t1 = t0 if s1 == 0\n 45659: a2 = s1\n 45661: u64 [sp + 0x48] = s1\n 45664: t0 = a0 - a4\n 45667: a1 = u64 [sp + 0x78]\n 45670: a5 = -a1\n 45672: a1 = u64 [sp + 0x40]\n 45675: a4 = a5 - a1\n 45678: u64 [sp + 0x40] = a0\n 45681: s1 = a0 <u t0\n 45684: a5 = a4 >u 0\n 45686: a5 = s1 if a4 == 0\n 45689: a1 = u64 [sp + 0x58]\n 45692: s1 = a1 | a2\n 45695: a5 = t1 if s1 != 0\n 45698: t0 = 0 if a5 != 0\n 45700: a0 = t0 + 0x1f\n 45703: s1 = a0 <u t0\n 45706: a4 = 0 if a5 != 0\n 45708: t0 = a4 + s1\n 45711: a4 = t0 <u a4\n 45714: a4 = s1 if s1 == 0\n 45717: a1 = 0 if a5 != 0\n 45719: u64 [sp + 0x58] = a1\n 45722: a1 = a1 + a4\n 45725: u64 [sp + 0x8] = a1\n 45728: a4 = a1 << 0x3b\n 45731: s1 = t0 >> 0x5\n 45734: t1 = s1 | a4\n 45737: t0 = t0 << 0x3b\n 45740: a4 = a0 >> 0x5\n 45743: s1 = a4 | t0\n 45746: u64 [sp + 0x38] = s1\n 45749: a1 = u64 [sp + 0x88]\n 45753: a4 = a1 <u 0x1\n 45756: t0 = u64 [sp + 0x60]\n 45759: a0 = t0 - a4\n 45762: u64 [sp + 0x20] = a0\n 45765: a2 = a1 + 0xffffffffffffffff\n 45768: u64 [sp + 0x30] = a2\n 45771: u64 [sp + 0x28] = t1\n 45774: a4 = a0 ^ t1\n 45777: t1 = a0 <u t1\n 45780: a0 = a2 <u s1\n 45783: a0 = t1 if a4 != 0\n 45786: u64 [sp + 0x10] = a0\n 45789: a4 = a1 | t0\n 45792: a4 = a4 <u 0x1\n 45795: a0 = u64 [sp + 0x90]\n 45799: t1 = a0 <u a4\n 45802: a1 = u64 [sp + 0x80]\n 45806: a1 = a1 - t1\n 45809: a0 = a0 - a4\n 45812: a2 = u64 [sp + 0x48]\n 45815: a2 = 0 if a5 != 0\n 45817: a4 = u64 [sp + 0x8]\n 45820: a5 = u64 [sp + 0x58]\n 45823: a5 = a4 <u a5\n 45826: a2 = a2 + a5\n 45829: t1 = a4 >> 0x5\n 45832: a5 = a2 << 0x3b\n 45835: t1 = t1 | a5\n 45838: a5 = a2 >> 0x5\n 45841: a2 = a0 <u t1\n 45844: t0 = a1 ^ a5\n 45847: a4 = a1 <u a5\n 45850: a4 = a2 if t0 == 0\n 45853: s1 = a0 ^ t1\n 45856: s1 = s1 | t0\n 45859: a2 = u64 [sp + 0x10]\n 45862: a4 = a2 if s1 == 0\n 45865: a1 = a5 if a4 == 0\n 45868: u64 [sp + 0x90] = a1\n 45872: a0 = t1 if a4 == 0\n 45875: a1 = u64 [sp + 0x20]\n 45878: a2 = u64 [sp + 0x28]\n 45881: a1 = a2 if a4 == 0\n 45884: a2 = u64 [sp + 0x30]\n 45887: a5 = u64 [sp + 0x38]\n 45890: a2 = a5 if a4 == 0\n 45893: a4 = a2 >> 0x3b\n 45896: a5 = a1 << 0x5\n 45899: t1 = a1\n 45901: a4 = a4 | a5\n 45904: a5 = a2 << 0x5\n 45907: s1 = u64 [sp + 0x78]\n 45910: s1 = s1 + a4\n 45913: a1 = u64 [sp + 0x98]\n 45917: a5 = a5 + a1\n 45920: u64 [sp + 0x60] = a5\n 45923: a4 = a5 <u a1\n 45926: s1 = s1 + a4\n 45929: a1 = u64 [sp + 0x78]\n 45932: t0 = s1 ^ a1\n 45935: a1 = u64 [sp + 0x78]\n 45938: a5 = s1 <u a1\n 45941: a5 = a4 if t0 == 0\n 45944: a1 = u64 [sp + 0xd0]\n 45948: u64 [sp + 0x88] = a1\n 45952: t1 = t1 >> 0x3b\n 45955: a4 = a0 << 0x5\n 45958: t1 = a4 | t1\n 45961: a1 = u64 [sp + 0xc8]\n 45965: u64 [sp + 0x80] = a1\n 45969: a0 = a0 >> 0x3b\n 45972: t0 = u64 [sp + 0x90]\n 45976: t0 = t0 << 0x5\n 45979: a4 = t0 | a0\n 45982: a2 = u64 [sp + 0x68]\n 45985: t0 = u64 [sp + 0x70]\n 45988: t0 = t0 + a4\n 45991: t1 = t1 + a2\n 45994: a4 = t1 <u a2\n 45997: t0 = t0 + a4\n 46000: a5 = a5 + t1\n 46003: a4 = a5 <u t1\n 46006: a1 = u64 [sp + 0x70]\n 46009: t0 = t0 + a4\n 46012: a4 = u64 [sp + 0x60]\n 46015: a0 = a4 + 0x20\n 46018: u64 [sp + 0x38] = a0\n 46021: a4 = a0 <u a4\n 46024: a0 = s1 + a4\n 46027: u64 [sp + 0x30] = a0\n 46030: s1 = a0 <u s1\n 46033: s1 = a4 if a4 == 0\n 46036: a0 = u64 [sp + 0xc0]\n 46040: s1 = s1 + a5\n 46043: u64 [sp + 0x28] = s1\n 46046: a5 = s1 <u a5\n 46049: a5 = a5 + t0\n 46052: u64 [sp + 0x20] = a5\n 46055: a4 = u64 [sp + 0x78]\n 46058: a5 = u64 [sp + 0xd8]\n 46062: a0 = reverse a0\n 46064: u64 [sp + 0x90] = a0\n 46068: a0 = u64 [sp + 0x80]\n 46072: t0 = reverse a0\n 46074: a0 = u64 [sp + 0x88]\n 46078: a0 = reverse a0\n 46080: u64 [sp + 0x88] = a0\n 46084: a0 = reverse a5\n 46086: u64 [sp + 0x80] = a0\n 46090: t1 = u64 [sp + 0x50]\n 46093: fallthrough\n      : @598 (gas: 29)\n 46094: u64 [sp + 0x60] = a1\n 46097: u64 [sp + 0x58] = a2\n 46100: s1 = a4\n 46102: a0 = u64 [sp + 0x98]\n 46106: u64 [sp + 0x50] = a0\n 46109: u64 [sp + 0x70] = a3\n 46112: u64 [sp + 0x68] = ra\n 46115: u64 [sp + 0x78] = t2\n 46118: u64 [sp + 0x98] = t1\n 46122: u64 [sp + 0x48] = t0\n 46125: u64 [sp + 0xb0] = t0\n 46129: a0 = u64 [sp + 0x88]\n 46133: u64 [sp + 0xa8] = a0\n 46137: a0 = u64 [sp + 0x80]\n 46141: u64 [sp + 0xa0] = a0\n 46145: a0 = u64 [sp + 0x90]\n 46149: u64 [sp + 0xb8] = a0\n 46153: u64 [sp + 216] = 0\n 46157: u64 [sp + 208] = 0\n 46161: u64 [sp + 200] = 0\n 46165: u64 [sp + 192] = 0\n 46169: u32 [sp + 224] = 0x20\n 46174: i32 a1 = sp + 0xa0\n 46178: i32 a3 = sp + 0xc0\n 46182: i32 a4 = sp + 0xe0\n 46186: a2 = 0xffffffffffffffff\n 46189: a0 = 0\n 46191: ecalli 8 // 'get_storage'\n 46193: fallthrough\n      : @599 (gas: 9)\n 46194: a0 = u64 [sp + 0x60]\n 46197: a1 = u64 [sp + 0x58]\n 46200: a0 = a0 | a1\n 46203: a1 = u64 [sp + 0x40]\n 46206: a2 = u64 [sp + 0x50]\n 46209: a1 = a2 <u a1\n 46212: a1 = 0 if s1 != 0\n 46214: a1 = 0 if a0 != 0\n 46216: jump @605 if a1 == 0\n      : @600 (gas: 10)\n 46220: s1 = u64 [sp + 0xd8]\n 46224: a0 = u64 [sp + 0xd0]\n 46228: u64 [sp + 0x50] = a0\n 46231: a0 = u64 [sp + 0xc8]\n 46235: u64 [sp + 0x58] = a0\n 46238: a0 = u64 [sp + 0xc0]\n 46242: u64 [sp + 0x60] = a0\n 46245: a0 = i32 [sp + 0x98]\n 46249: a1 = 0x20\n 46252: ra = 536, jump @0\n      : @601 [@dyn 268] (gas: 107)\n 46259: a1 = reverse s1\n 46261: a2 = u64 [sp + 0x50]\n 46264: a2 = reverse a2\n 46266: a3 = u64 [sp + 0x58]\n 46269: a3 = reverse a3\n 46271: a4 = u64 [sp + 0x60]\n 46274: a4 = reverse a4\n 46276: a5 = a4 >> 0x38\n 46279: u8 [a0 + 0x1f] = a5\n 46282: a5 = a4 >> 0x30\n 46285: u8 [a0 + 0x1e] = a5\n 46288: a5 = a4 >> 0x28\n 46291: u8 [a0 + 0x1d] = a5\n 46294: a5 = a4 >> 0x20\n 46297: u8 [a0 + 0x1c] = a5\n 46300: a5 = a4 >> 0x18\n 46303: u8 [a0 + 0x1b] = a5\n 46306: a5 = a4 >> 0x10\n 46309: u8 [a0 + 0x1a] = a5\n 46312: a5 = a4 >> 0x8\n 46315: u8 [a0 + 0x19] = a5\n 46318: u8 [a0 + 0x18] = a4\n 46321: u8 [a0 + 0x10] = a3\n 46324: a4 = a3 >> 0x38\n 46327: u8 [a0 + 0x17] = a4\n 46330: a4 = a3 >> 0x30\n 46333: u8 [a0 + 0x16] = a4\n 46336: a4 = a3 >> 0x28\n 46339: u8 [a0 + 0x15] = a4\n 46342: a4 = a3 >> 0x20\n 46345: u8 [a0 + 0x14] = a4\n 46348: a4 = a3 >> 0x18\n 46351: u8 [a0 + 0x13] = a4\n 46354: a4 = a3 >> 0x10\n 46357: u8 [a0 + 0x12] = a4\n 46360: a3 = a3 >> 0x8\n 46363: u8 [a0 + 0x11] = a3\n 46366: u8 [a0 + 0x8] = a2\n 46369: a3 = a2 >> 0x38\n 46372: u8 [a0 + 0xf] = a3\n 46375: a3 = a2 >> 0x30\n 46378: u8 [a0 + 0xe] = a3\n 46381: a3 = a2 >> 0x28\n 46384: u8 [a0 + 0xd] = a3\n 46387: a3 = a2 >> 0x20\n 46390: u8 [a0 + 0xc] = a3\n 46393: a3 = a2 >> 0x18\n 46396: u8 [a0 + 0xb] = a3\n 46399: a3 = a2 >> 0x10\n 46402: u8 [a0 + 0xa] = a3\n 46405: a2 = a2 >> 0x8\n 46408: u8 [a0 + 0x9] = a2\n 46411: u8 [a0] = a1\n 46413: a2 = a1 >> 0x38\n 46416: u8 [a0 + 0x7] = a2\n 46419: a2 = a1 >> 0x30\n 46422: u8 [a0 + 0x6] = a2\n 46425: a2 = a1 >> 0x28\n 46428: u8 [a0 + 0x5] = a2\n 46431: a2 = a1 >> 0x20\n 46434: u8 [a0 + 0x4] = a2\n 46437: a2 = a1 >> 0x18\n 46440: u8 [a0 + 0x3] = a2\n 46443: a2 = a1 >> 0x10\n 46446: u8 [a0 + 0x2] = a2\n 46449: a1 = a1 >> 0x8\n 46452: u8 [a0 + 0x1] = a1\n 46455: a2 = u64 [sp + 0x80]\n 46459: a2 = a2 + 0x1\n 46462: a0 = a2 <u 0x1\n 46465: a1 = u64 [sp + 0x88]\n 46469: a1 = a1 + a0\n 46472: u64 [sp + 0x88] = a1\n 46476: u64 [sp + 0x80] = a2\n 46480: a0 = a2 | a1\n 46483: a4 = a0 <u 0x1\n 46486: a0 = u64 [sp + 0x48]\n 46489: t0 = a0 + a4\n 46492: a0 = t0 <u a0\n 46495: a1 = u64 [sp + 0x90]\n 46499: a1 = a1 + a0\n 46502: u64 [sp + 0x90] = a1\n 46506: a0 = u64 [sp + 0x98]\n 46510: t1 = a0 + 0x20\n 46513: a2 = t1 <u a0\n 46516: s1 = a0\n 46518: a4 = u64 [sp + 0x78]\n 46521: t2 = a4 + a2\n 46524: a3 = t2 <u a4\n 46527: a3 = a2 if a2 == 0\n 46530: a0 = u64 [sp + 0x38]\n 46533: s1 = s1 ^ a0\n 46536: a2 = u64 [sp + 0x68]\n 46539: a5 = u64 [sp + 0x28]\n 46542: a5 = a5 ^ a2\n 46545: a5 = a5 | s1\n 46548: a0 = u64 [sp + 0x30]\n 46551: a0 = a0 ^ a4\n 46554: a1 = u64 [sp + 0x70]\n 46557: s1 = u64 [sp + 0x20]\n 46560: s1 = s1 ^ a1\n 46563: s1 = s1 | a0\n 46566: ra = a2 + a3\n 46569: a5 = a5 | s1\n 46572: a3 = ra <u a2\n 46575: a3 = a3 + a1\n 46578: jump @598 if a5 != 0\n      : @602 (gas: 1)\n 46582: jump @604\n      : @603 (gas: 2)\n 46584: t1 = u64 [sp + 0x50]\n 46587: fallthrough\n      : @604 (gas: 11)\n 46588: a4 = u64 [sp + 0x18]\n 46591: u64 [a4] = t1\n 46593: u64 [a4 + 0x8] = t2\n 46596: u64 [a4 + 0x10] = ra\n 46599: u64 [a4 + 0x18] = a3\n 46602: sp = s0 + 0xffffffffffffff00\n 46606: ra = u64 [sp + 0xf8]\n 46610: s0 = u64 [sp + 0xf0]\n 46614: s1 = u64 [sp + 0xe8]\n 46618: sp = sp + 0x100\n 46622: ret\n      : @605 (gas: 1)\n 46624: trap\n      : @606 (gas: 18)\n 46625: sp = sp + 0xffffffffffffff00\n 46629: u64 [sp + 0xf8] = ra\n 46633: u64 [sp + 0xf0] = s0\n 46637: u64 [sp + 0xe8] = s1\n 46641: s0 = sp + 0x100\n 46645: sp = sp & 0xfffffffffffffff0\n 46648: a2 = u64 [a1]\n 46650: u64 [sp + 0x20] = a2\n 46653: a2 = u64 [a1 + 0x8]\n 46656: u64 [sp + 0x10] = a2\n 46659: a2 = u64 [a1 + 0x10]\n 46662: u64 [sp + 0x8] = a2\n 46665: a1 = u64 [a1 + 0x18]\n 46668: u64 [sp] = a1\n 46670: u64 [sp + 0x18] = a0\n 46673: a0 = 0x40\n 46676: a1 = 0x20\n 46679: ra = 538, jump @0\n      : @607 [@dyn 269] (gas: 149)\n 46686: a1 = u8 [a0 + 0x1]\n 46689: a2 = u8 [a0]\n 46691: a3 = u8 [a0 + 0x2]\n 46694: a4 = u8 [a0 + 0x3]\n 46697: a1 = a1 << 0x8\n 46700: a1 = a1 | a2\n 46703: a3 = a3 << 0x10\n 46706: a4 = a4 << 0x18\n 46709: a3 = a3 | a4\n 46712: a1 = a1 | a3\n 46715: a2 = u8 [a0 + 0x5]\n 46718: a3 = u8 [a0 + 0x4]\n 46721: a4 = u8 [a0 + 0x6]\n 46724: a5 = u8 [a0 + 0x7]\n 46727: a2 = a2 << 0x8\n 46730: a2 = a2 | a3\n 46733: a4 = a4 << 0x10\n 46736: a5 = a5 << 0x18\n 46739: a4 = a4 | a5\n 46742: a2 = a2 | a4\n 46745: a2 = a2 << 0x20\n 46748: t0 = a2 | a1\n 46751: a2 = u8 [a0 + 0x9]\n 46754: a3 = u8 [a0 + 0x8]\n 46757: a4 = u8 [a0 + 0xa]\n 46760: a5 = u8 [a0 + 0xb]\n 46763: a2 = a2 << 0x8\n 46766: a2 = a2 | a3\n 46769: a4 = a4 << 0x10\n 46772: a5 = a5 << 0x18\n 46775: a4 = a4 | a5\n 46778: a2 = a2 | a4\n 46781: a3 = u8 [a0 + 0xd]\n 46784: a4 = u8 [a0 + 0xc]\n 46787: a5 = u8 [a0 + 0xe]\n 46790: s1 = u8 [a0 + 0xf]\n 46793: a3 = a3 << 0x8\n 46796: a3 = a3 | a4\n 46799: a5 = a5 << 0x10\n 46802: s1 = s1 << 0x18\n 46805: a5 = a5 | s1\n 46808: a3 = a3 | a5\n 46811: a3 = a3 << 0x20\n 46814: a2 = a2 | a3\n 46817: a3 = u8 [a0 + 0x11]\n 46820: a4 = u8 [a0 + 0x10]\n 46823: a5 = u8 [a0 + 0x12]\n 46826: s1 = u8 [a0 + 0x13]\n 46829: a3 = a3 << 0x8\n 46832: a3 = a3 | a4\n 46835: a5 = a5 << 0x10\n 46838: s1 = s1 << 0x18\n 46841: a5 = a5 | s1\n 46844: a3 = a3 | a5\n 46847: a4 = u8 [a0 + 0x15]\n 46850: a5 = u8 [a0 + 0x14]\n 46853: s1 = u8 [a0 + 0x16]\n 46856: a1 = u8 [a0 + 0x17]\n 46859: a4 = a4 << 0x8\n 46862: a4 = a4 | a5\n 46865: s1 = s1 << 0x10\n 46868: a1 = a1 << 0x18\n 46871: a1 = a1 | s1\n 46874: a1 = a1 | a4\n 46877: a1 = a1 << 0x20\n 46880: a3 = a3 | a1\n 46883: a1 = u8 [a0 + 0x19]\n 46886: a4 = u8 [a0 + 0x18]\n 46889: a5 = u8 [a0 + 0x1a]\n 46892: s1 = u8 [a0 + 0x1b]\n 46895: a1 = a1 << 0x8\n 46898: a1 = a1 | a4\n 46901: a5 = a5 << 0x10\n 46904: s1 = s1 << 0x18\n 46907: a5 = a5 | s1\n 46910: a1 = a1 | a5\n 46913: a4 = u8 [a0 + 0x1d]\n 46916: a5 = u8 [a0 + 0x1c]\n 46919: s1 = u8 [a0 + 0x1e]\n 46922: a0 = u8 [a0 + 0x1f]\n 46925: a4 = a4 << 0x8\n 46928: a4 = a4 | a5\n 46931: s1 = s1 << 0x10\n 46934: a0 = a0 << 0x18\n 46937: a0 = a0 | s1\n 46940: a0 = a0 | a4\n 46943: a0 = a0 << 0x20\n 46946: a0 = a0 | a1\n 46949: a4 = reverse a0\n 46951: u64 [sp + 0x38] = a4\n 46954: s1 = reverse a3\n 46956: a2 = reverse a2\n 46958: u64 [sp + 0x30] = a2\n 46961: a1 = reverse t0\n 46963: u64 [sp + 0x28] = a1\n 46966: a0 = u64 [sp]\n 46968: u64 [sp + 0xb8] = a0\n 46972: a0 = u64 [sp + 0x8]\n 46975: u64 [sp + 0xb0] = a0\n 46979: a0 = u64 [sp + 0x10]\n 46982: u64 [sp + 0xa8] = a0\n 46986: a0 = u64 [sp + 0x20]\n 46989: u64 [sp + 0xa0] = a0\n 46993: u64 [sp + 0x98] = a1\n 46997: u64 [sp + 0x90] = a2\n 47001: u64 [sp + 0x88] = s1\n 47005: a0 = sp + 0xc0\n 47009: a1 = sp + 0xa0\n 47013: a2 = sp + 0x80\n 47017: u64 [sp + 0x80] = a4\n 47021: ra = 0x21c\n 47025: sp = sp + 0xffffffffffffff00\n 47029: u64 [sp + 0xf8] = ra\n 47033: u64 [sp + 0xf0] = s0\n 47037: u64 [sp + 0xe8] = s1\n 47041: s0 = sp + 0x100\n 47045: sp = sp & 0xffffffffffffffe0\n 47048: u64 [sp + 0x18] = a0\n 47051: s1 = u64 [a2 + 0x10]\n 47054: a0 = u64 [a2]\n 47056: u64 [sp + 0x98] = a0\n 47060: a0 = u64 [a2 + 0x18]\n 47063: u64 [sp + 0x70] = a0\n 47066: a0 = u64 [a2 + 0x8]\n 47069: u64 [sp + 0x78] = a0\n 47072: a4 = u64 [a1 + 0x18]\n 47075: a3 = u64 [a1 + 0x10]\n 47078: a2 = u64 [a1 + 0x8]\n 47081: a0 = u64 [a1]\n 47083: u64 [sp + 0x40] = a4\n 47086: u64 [sp + 0xb8] = a4\n 47090: u64 [sp + 0x48] = a3\n 47093: u64 [sp + 0xb0] = a3\n 47097: u64 [sp + 0x50] = a2\n 47100: u64 [sp + 0xa8] = a2\n 47104: u64 [sp + 0x58] = a0\n 47107: u64 [sp + 0xa0] = a0\n 47111: u64 [sp + 216] = 0\n 47115: u64 [sp + 208] = 0\n 47119: u64 [sp + 200] = 0\n 47123: u64 [sp + 192] = 0\n 47127: u32 [sp + 224] = 0x20\n 47132: i32 a1 = sp + 0xa0\n 47136: i32 a3 = sp + 0xc0\n 47140: i32 a4 = sp + 0xe0\n 47144: a2 = 0xffffffffffffffff\n 47147: a0 = 0\n 47149: ecalli 8 // 'get_storage'\n 47151: jump @591\n      : @608 [@dyn 270] (gas: 58)\n 47154: t2 = s1\n 47156: a3 = u64 [sp + 0xc8]\n 47160: a0 = u64 [sp + 0xd8]\n 47164: u64 [sp + 0x10] = a0\n 47167: a4 = u64 [sp + 0xc0]\n 47171: t1 = u64 [sp + 0xd0]\n 47175: a5 = a3 ^ s1\n 47178: a1 = a3 <u s1\n 47181: a2 = u64 [sp + 0x38]\n 47184: s1 = a4 <u a2\n 47187: a1 = s1 if a5 == 0\n 47190: a3 = a3 - t2\n 47193: a3 = a3 - s1\n 47196: u64 [sp + 0x8] = a3\n 47199: a4 = a4 - a2\n 47202: a5 = a4 + 0x1f\n 47205: a4 = a5 <u a4\n 47208: a3 = a3 + a4\n 47211: a5 = a5 & 0xffffffffffffffe0\n 47214: a0 = a3 + t2\n 47217: a2 = a2 + a5\n 47220: u64 [sp + 0x20] = a2\n 47223: a5 = a2 <u a5\n 47226: t0 = a0 + a5\n 47229: a0 = t0 ^ a3\n 47232: a2 = t0 <u a3\n 47235: a2 = a5 if a0 == 0\n 47238: s1 = u64 [sp + 0x30]\n 47241: a0 = t1 - s1\n 47244: a5 = t1 <u s1\n 47247: t1 = s1\n 47249: ra = u64 [sp + 0x28]\n 47252: s1 = u64 [sp + 0x10]\n 47255: s1 = s1 - ra\n 47258: s1 = s1 - a5\n 47261: a5 = a0 <u a1\n 47264: s1 = s1 - a5\n 47267: a0 = a0 - a1\n 47270: a1 = u64 [sp + 0x8]\n 47273: a1 = a3 <u a1\n 47276: a1 = a4 if a4 == 0\n 47279: a1 = a1 + a0\n 47282: a0 = a1 <u a0\n 47285: a3 = a1 + t1\n 47288: a5 = a3 + a2\n 47291: a1 = a3 <u a1\n 47294: a2 = a5 <u a3\n 47297: s1 = s1 + ra\n 47300: a0 = a0 + s1\n 47303: a0 = a0 + a1\n 47306: s1 = a0 + a2\n 47309: a0 = s1 >u 0\n 47311: a1 = a5 >u 0\n 47313: a1 = a0 if s1 != 0\n 47316: a0 = a5 | s1\n 47319: a2 = t0 >u 0\n 47321: a2 = a1 if a0 != 0\n 47324: jump @612 if a2 != 0\n      : @609 (gas: 15)\n 47328: a4 = t1\n 47330: a0 = u64 [sp + 0x38]\n 47333: a1 = u64 [sp + 0x20]\n 47336: a0 = a1 <u a0\n 47339: a1 = t0 ^ t2\n 47342: a2 = t0 <u t2\n 47345: a2 = a0 if a1 == 0\n 47348: a0 = a5 <u t1\n 47351: a1 = s1 ^ ra\n 47354: a3 = s1 <u ra\n 47357: a3 = a0 if a1 == 0\n 47360: a0 = a5 ^ t1\n 47363: a0 = a0 | a1\n 47366: a3 = a2 if a0 == 0\n 47369: jump @612 if a3 != 0\n      : @610 (gas: 6)\n 47373: a0 = 0x40\n 47376: a1 = 0x20\n 47379: u64 [sp + 0x10] = t2\n 47382: u64 [sp + 0x8] = t0\n 47385: u64 [sp] = a5\n 47387: ra = 542, jump @0\n      : @611 [@dyn 271] (gas: 82)\n 47394: a1 = reverse s1\n 47396: a2 = u64 [sp]\n 47398: a2 = reverse a2\n 47400: a3 = u64 [sp + 0x8]\n 47403: a3 = reverse a3\n 47405: a4 = u64 [sp + 0x20]\n 47408: a4 = reverse a4\n 47410: u8 [a0 + 0x18] = a4\n 47413: a5 = a4 >> 0x38\n 47416: u8 [a0 + 0x1f] = a5\n 47419: a5 = a4 >> 0x30\n 47422: u8 [a0 + 0x1e] = a5\n 47425: a5 = a4 >> 0x28\n 47428: u8 [a0 + 0x1d] = a5\n 47431: a5 = a4 >> 0x20\n 47434: u8 [a0 + 0x1c] = a5\n 47437: a5 = a4 >> 0x18\n 47440: u8 [a0 + 0x1b] = a5\n 47443: a5 = a4 >> 0x10\n 47446: u8 [a0 + 0x1a] = a5\n 47449: a4 = a4 >> 0x8\n 47452: u8 [a0 + 0x19] = a4\n 47455: u8 [a0 + 0x10] = a3\n 47458: a4 = a3 >> 0x38\n 47461: u8 [a0 + 0x17] = a4\n 47464: a4 = a3 >> 0x30\n 47467: u8 [a0 + 0x16] = a4\n 47470: a4 = a3 >> 0x28\n 47473: u8 [a0 + 0x15] = a4\n 47476: a4 = a3 >> 0x20\n 47479: u8 [a0 + 0x14] = a4\n 47482: a4 = a3 >> 0x18\n 47485: u8 [a0 + 0x13] = a4\n 47488: a4 = a3 >> 0x10\n 47491: u8 [a0 + 0x12] = a4\n 47494: a3 = a3 >> 0x8\n 47497: u8 [a0 + 0x11] = a3\n 47500: u8 [a0 + 0x8] = a2\n 47503: a3 = a2 >> 0x38\n 47506: u8 [a0 + 0xf] = a3\n 47509: a3 = a2 >> 0x30\n 47512: u8 [a0 + 0xe] = a3\n 47515: a3 = a2 >> 0x28\n 47518: u8 [a0 + 0xd] = a3\n 47521: a3 = a2 >> 0x20\n 47524: u8 [a0 + 0xc] = a3\n 47527: a3 = a2 >> 0x18\n 47530: u8 [a0 + 0xb] = a3\n 47533: a3 = a2 >> 0x10\n 47536: u8 [a0 + 0xa] = a3\n 47539: a2 = a2 >> 0x8\n 47542: u8 [a0 + 0x9] = a2\n 47545: u8 [a0] = a1\n 47547: a2 = a1 >> 0x38\n 47550: u8 [a0 + 0x7] = a2\n 47553: a2 = a1 >> 0x30\n 47556: u8 [a0 + 0x6] = a2\n 47559: a2 = a1 >> 0x28\n 47562: u8 [a0 + 0x5] = a2\n 47565: a2 = a1 >> 0x20\n 47568: u8 [a0 + 0x4] = a2\n 47571: a2 = a1 >> 0x18\n 47574: u8 [a0 + 0x3] = a2\n 47577: a2 = a1 >> 0x10\n 47580: u8 [a0 + 0x2] = a2\n 47583: a1 = a1 >> 0x8\n 47586: u8 [a0 + 0x1] = a1\n 47589: a0 = u64 [sp + 0x18]\n 47592: a1 = u64 [sp + 0x38]\n 47595: u64 [a0] = a1\n 47597: a1 = u64 [sp + 0x28]\n 47600: u64 [a0 + 0x18] = a1\n 47603: a1 = u64 [sp + 0x10]\n 47606: u64 [a0 + 0x8] = a1\n 47609: a1 = u64 [sp + 0x30]\n 47612: u64 [a0 + 0x10] = a1\n 47615: sp = s0 + 0xffffffffffffff00\n 47619: ra = u64 [sp + 0xf8]\n 47623: s0 = u64 [sp + 0xf0]\n 47627: s1 = u64 [sp + 0xe8]\n 47631: sp = sp + 0x100\n 47635: ret\n      : @612 (gas: 8)\n 47637: u64 [sp + 112] = 0\n 47640: u64 [sp + 104] = 0\n 47643: u64 [sp + 96] = 0\n 47646: a0 = 0x4e487b7100000000\n 47656: a1 = sp + 0x60\n 47659: u64 [sp + 0x78] = a0\n 47662: a0 = 0\n 47664: ra = 544, jump @8\n      : @613 [@dyn 272] (gas: 7)\n 47671: u64 [sp + 88] = 0\n 47674: u64 [sp + 80] = 0\n 47677: u64 [sp + 64] = 0x41\n 47681: a0 = 0x4\n 47684: a1 = sp + 0x40\n 47687: u64 [sp + 72] = 0\n 47690: ra = 546, jump @8\n      : @614 [@dyn 273] (gas: 3)\n 47697: a1 = 0x24\n 47700: a0 = 0\n 47702: ra = 548, jump @0\n      : @615 [@dyn 274] (gas: 6)\n 47709: i32 a1 = a0 + 0\n 47711: a0 = 0x1\n 47714: a2 = 0x24\n 47717: ra = 0x226\n 47721: ecalli 14 // 'seal_return'\n 47723: fallthrough\n      : @616 [@dyn 275] (gas: 18)\n 47724: sp = sp + 0xffffffffffffffa0\n 47727: u64 [sp + 0x58] = ra\n 47730: u64 [sp + 0x50] = s0\n 47733: u64 [sp + 0x48] = s1\n 47736: s0 = sp + 0x60\n 47739: sp = sp & 0xfffffffffffffff0\n 47742: a2 = u64 [a1]\n 47744: a3 = u64 [a1 + 0x8]\n 47747: a4 = u64 [a1 + 0x10]\n 47750: a1 = u64 [a1 + 0x18]\n 47753: s1 = a0\n 47755: u64 [sp + 0x18] = a1\n 47758: u64 [sp + 0x10] = a4\n 47761: u64 [sp + 0x8] = a3\n 47764: a0 = sp + 0x20\n 47767: a1 = sp\n 47769: u64 [sp] = a2\n 47771: ra = 552, jump @606\n      : @617 [@dyn 276] (gas: 14)\n 47777: a0 = u64 [sp + 0x30]\n 47780: a1 = u64 [sp + 0x38]\n 47783: a2 = u64 [sp + 0x20]\n 47786: a3 = u64 [sp + 0x28]\n 47789: u64 [s1 + 0x10] = a0\n 47792: u64 [s1 + 0x18] = a1\n 47795: u64 [s1] = a2\n 47797: u64 [s1 + 0x8] = a3\n 47800: sp = s0 + 0xffffffffffffffa0\n 47803: ra = u64 [sp + 0x58]\n 47806: s0 = u64 [sp + 0x50]\n 47809: s1 = u64 [sp + 0x48]\n 47812: sp = sp + 0x60\n 47815: ret\n      : @618 (gas: 14)\n 47817: sp = sp + 0xffffffffffffff10\n 47821: u64 [sp + 0xe8] = ra\n 47825: u64 [sp + 0xe0] = s0\n 47829: u64 [sp + 0xd8] = s1\n 47833: s0 = sp + 0xf0\n 47837: sp = sp & 0xfffffffffffffff0\n 47840: a2 = u64 [a1 + 0x18]\n 47843: a4 = u64 [a1 + 0x10]\n 47846: a5 = u64 [a1 + 0x8]\n 47849: s1 = a4 | a2\n 47852: a3 = a5 <u 0x1\n 47855: a3 = 0 if s1 != 0\n 47857: u64 [sp + 0x48] = a0\n 47860: jump @624 if a3 == 0\n      : @619 (gas: 30)\n 47864: s1 = u64 [a1]\n 47866: a0 = a4 >> 0x3b\n 47869: u64 [sp + 0x20] = a2\n 47872: a1 = a2 << 0x5\n 47875: a0 = a0 | a1\n 47878: a1 = a5 >> 0x3b\n 47881: u64 [sp + 0x28] = a4\n 47884: a2 = a4 << 0x5\n 47887: a1 = a1 | a2\n 47890: a2 = s1 >> 0x3b\n 47893: u64 [sp + 0x10] = a5\n 47896: a3 = a5 << 0x5\n 47899: a2 = a2 | a3\n 47902: u64 [sp + 0x18] = s1\n 47905: a3 = s1 << 0x5\n 47908: a4 = a3 + 0x20\n 47911: a3 = a4 <u a3\n 47914: a5 = a2 + a3\n 47917: a2 = a5 <u a2\n 47920: a2 = a3 if a3 == 0\n 47923: a2 = a2 + a1\n 47926: a1 = a2 <u a1\n 47929: a3 = a0 + a1\n 47932: u64 [sp + 0x90] = a4\n 47936: u64 [sp + 0x98] = a5\n 47940: u64 [sp + 0xa0] = a2\n 47944: a0 = sp + 0xb0\n 47948: a1 = sp + 0x90\n 47952: u64 [sp + 0xa8] = a3\n 47956: ra = 554, jump @410\n      : @620 [@dyn 277] (gas: 15)\n 47962: a0 = u64 [sp + 0xc8]\n 47966: a2 = u64 [sp + 0xc0]\n 47970: a1 = u64 [sp + 0xb8]\n 47974: a3 = u64 [sp + 0xb0]\n 47978: u64 [sp + 0x38] = a0\n 47981: u64 [sp + 0x30] = a1\n 47984: a0 = a0 | a1\n 47987: a1 = a3 | a2\n 47990: a1 = a1 | a0\n 47993: a1 = a1 >> 0x20\n 47996: u64 [sp + 0x40] = a2\n 47999: a0 = a0 | a2\n 48002: a0 = a0 << 0x20\n 48005: a0 = a0 | a1\n 48008: jump @623 if a0 != 0\n      : @621 (gas: 4)\n 48012: i32 a0 = a3 + 0\n 48014: a1 = 0x20\n 48017: u64 [sp + 0x8] = a3\n 48020: ra = 556, jump @0\n      : @622 [@dyn 278] (gas: 83)\n 48027: a1 = u64 [sp + 0x20]\n 48030: a1 = reverse a1\n 48032: a2 = u64 [sp + 0x28]\n 48035: a2 = reverse a2\n 48037: a3 = u64 [sp + 0x10]\n 48040: a3 = reverse a3\n 48042: a4 = u64 [sp + 0x18]\n 48045: a4 = reverse a4\n 48047: a5 = a4 >> 0x38\n 48050: u8 [a0 + 0x1f] = a5\n 48053: a5 = a4 >> 0x30\n 48056: u8 [a0 + 0x1e] = a5\n 48059: a5 = a4 >> 0x28\n 48062: u8 [a0 + 0x1d] = a5\n 48065: a5 = a4 >> 0x20\n 48068: u8 [a0 + 0x1c] = a5\n 48071: a5 = a4 >> 0x18\n 48074: u8 [a0 + 0x1b] = a5\n 48077: a5 = a4 >> 0x10\n 48080: u8 [a0 + 0x1a] = a5\n 48083: a5 = a4 >> 0x8\n 48086: u8 [a0 + 0x19] = a5\n 48089: u8 [a0 + 0x18] = a4\n 48092: u8 [a0 + 0x10] = a3\n 48095: a4 = a3 >> 0x38\n 48098: u8 [a0 + 0x17] = a4\n 48101: a4 = a3 >> 0x30\n 48104: u8 [a0 + 0x16] = a4\n 48107: a4 = a3 >> 0x28\n 48110: u8 [a0 + 0x15] = a4\n 48113: a4 = a3 >> 0x20\n 48116: u8 [a0 + 0x14] = a4\n 48119: a4 = a3 >> 0x18\n 48122: u8 [a0 + 0x13] = a4\n 48125: a4 = a3 >> 0x10\n 48128: u8 [a0 + 0x12] = a4\n 48131: a3 = a3 >> 0x8\n 48134: u8 [a0 + 0x11] = a3\n 48137: u8 [a0 + 0x8] = a2\n 48140: a3 = a2 >> 0x38\n 48143: u8 [a0 + 0xf] = a3\n 48146: a3 = a2 >> 0x30\n 48149: u8 [a0 + 0xe] = a3\n 48152: a3 = a2 >> 0x28\n 48155: u8 [a0 + 0xd] = a3\n 48158: a3 = a2 >> 0x20\n 48161: u8 [a0 + 0xc] = a3\n 48164: a3 = a2 >> 0x18\n 48167: u8 [a0 + 0xb] = a3\n 48170: a3 = a2 >> 0x10\n 48173: u8 [a0 + 0xa] = a3\n 48176: a2 = a2 >> 0x8\n 48179: u8 [a0 + 0x9] = a2\n 48182: u8 [a0] = a1\n 48184: a2 = a1 >> 0x38\n 48187: u8 [a0 + 0x7] = a2\n 48190: a2 = a1 >> 0x30\n 48193: u8 [a0 + 0x6] = a2\n 48196: a2 = a1 >> 0x28\n 48199: u8 [a0 + 0x5] = a2\n 48202: a2 = a1 >> 0x20\n 48205: u8 [a0 + 0x4] = a2\n 48208: a2 = a1 >> 0x18\n 48211: u8 [a0 + 0x3] = a2\n 48214: a2 = a1 >> 0x10\n 48217: u8 [a0 + 0x2] = a2\n 48220: a1 = a1 >> 0x8\n 48223: u8 [a0 + 0x1] = a1\n 48226: a0 = u64 [sp + 0x48]\n 48229: a1 = u64 [sp + 0x8]\n 48232: u64 [a0] = a1\n 48234: a1 = u64 [sp + 0x38]\n 48237: u64 [a0 + 0x18] = a1\n 48240: a1 = u64 [sp + 0x30]\n 48243: u64 [a0 + 0x8] = a1\n 48246: a1 = u64 [sp + 0x40]\n 48249: u64 [a0 + 0x10] = a1\n 48252: sp = s0 + 0xffffffffffffff10\n 48256: ra = u64 [sp + 0xe8]\n 48260: s0 = u64 [sp + 0xe0]\n 48264: s1 = u64 [sp + 0xd8]\n 48268: sp = sp + 0xf0\n 48272: ret\n      : @623 (gas: 1)\n 48274: trap\n      : @624 (gas: 8)\n 48275: u64 [sp + 128] = 0\n 48279: u64 [sp + 120] = 0\n 48282: u64 [sp + 112] = 0\n 48285: a0 = 0x4e487b7100000000\n 48295: a1 = sp + 0x70\n 48298: u64 [sp + 0x88] = a0\n 48302: a0 = 0\n 48304: ra = 558, jump @8\n      : @625 [@dyn 279] (gas: 7)\n 48311: u64 [sp + 104] = 0\n 48314: u64 [sp + 96] = 0\n 48317: u64 [sp + 80] = 0x41\n 48321: a0 = 0x4\n 48324: a1 = sp + 0x50\n 48327: u64 [sp + 88] = 0\n 48330: ra = 560, jump @8\n      : @626 [@dyn 280] (gas: 3)\n 48337: a1 = 0x24\n 48340: a0 = 0\n 48342: ra = 562, jump @0\n      : @627 [@dyn 281] (gas: 6)\n 48349: i32 a1 = a0 + 0\n 48351: a0 = 0x1\n 48354: a2 = 0x24\n 48357: ra = 0x234\n 48361: ecalli 14 // 'seal_return'\n 48363: fallthrough\n      : @628 [@dyn 282] (gas: 16)\n 48364: sp = sp + 0xffffffffffffffe8\n 48367: u64 [sp + 0x10] = ra\n 48370: u64 [sp + 0x8] = s0\n 48373: u64 [sp] = s1\n 48375: a2 = u64 [a1 + 0x10]\n 48378: a3 = u64 [a1 + 0x18]\n 48381: a4 = u64 [a1 + 0x8]\n 48384: s1 = u64 [a1]\n 48386: a3 = a3 | a4\n 48389: a1 = s1 | a2\n 48392: a1 = a1 | a3\n 48395: a1 = a1 >> 0x20\n 48398: a2 = a2 | a3\n 48401: a2 = a2 << 0x20\n 48404: a1 = a1 | a2\n 48407: jump @632 if a1 != 0\n      : @629 (gas: 12)\n 48410: a2 = u64 [a0 + 0x18]\n 48413: a3 = u64 [a0 + 0x10]\n 48416: a1 = u64 [a0]\n 48418: a0 = u64 [a0 + 0x8]\n 48421: a4 = a1 | a3\n 48424: a0 = a0 | a2\n 48427: a4 = a4 | a0\n 48430: a4 = a4 >> 0x20\n 48433: a0 = a0 | a3\n 48436: a0 = a0 << 0x20\n 48439: a0 = a0 | a4\n 48442: jump @632 if a0 != 0\n      : @630 (gas: 5)\n 48445: s0 = i32 [0x20084]\n 48450: i32 a0 = a1 + 0\n 48452: i32 s1 = s1 + 0\n 48454: a1 = s1\n 48456: ra = 566, jump @0\n      : @631 [@dyn 283] (gas: 9)\n 48463: i32 a0 = a0 + 0\n 48465: a1 = s1\n 48467: a2 = s0\n 48469: ra = u64 [sp + 0x10]\n 48472: s0 = u64 [sp + 0x8]\n 48475: s1 = u64 [sp]\n 48477: sp = sp + 0x18\n 48480: ecalli 2 // 'call_data_copy'\n 48482: ret\n      : @632 (gas: 1)\n 48484: trap\n      : @633 [@dyn 284] (gas: 6)\n 48485: a3 = u64 [sp + 0x30]\n 48488: a2 = u64 [sp + 0x28]\n 48491: a0 = s1 | a3\n 48494: a1 = a2 <u 0x1\n 48497: a1 = 0 if a0 != 0\n 48499: jump @639 if a1 == 0\n      : @634 (gas: 9)\n 48503: a5 = u64 [sp + 0x38]\n 48506: a0 = a5 | s1\n 48509: a1 = a2 | a3\n 48512: a0 = a0 | a1\n 48515: a0 = a0 >> 0x1b\n 48518: a1 = a1 | s1\n 48521: a1 = a1 << 0x25\n 48524: a0 = a0 | a1\n 48527: jump @638 if a0 != 0\n      : @635 (gas: 24)\n 48531: a1 = u64 [sp + 0xa0]\n 48535: a4 = u64 [sp + 0xb8]\n 48539: a3 = u64 [sp + 0xa8]\n 48543: s1 = u64 [sp + 0xb0]\n 48547: a0 = a1 + 0x20\n 48550: u64 [sp + 0x30] = a1\n 48553: a1 = a0 <u a1\n 48556: a2 = a3 + a1\n 48559: u64 [sp + 0x28] = a3\n 48562: a3 = a2 <u a3\n 48565: a3 = a1 if a1 == 0\n 48568: a3 = a3 + s1\n 48571: u64 [sp + 0x10] = s1\n 48574: a1 = a3 <u s1\n 48577: u64 [sp + 0x18] = a4\n 48580: a1 = a1 + a4\n 48583: a4 = a0 | a3\n 48586: a1 = a1 | a2\n 48589: a4 = a4 | a1\n 48592: a4 = a4 >> 0x20\n 48595: a1 = a1 | a3\n 48598: a1 = a1 << 0x20\n 48601: a1 = a1 | a4\n 48604: jump @638 if a1 != 0\n      : @636 (gas: 6)\n 48607: a1 = i32 [0x20084]\n 48612: u64 [sp + 0x8] = a1\n 48615: i32 s1 = a5 << 0x5\n 48618: i32 a0 = a0 + 0\n 48620: a1 = s1\n 48622: ra = 570, jump @0\n      : @637 [@dyn 285] (gas: 19)\n 48629: i32 a0 = a0 + 0\n 48631: a1 = s1\n 48633: a2 = u64 [sp + 0x8]\n 48636: ecalli 2 // 'call_data_copy'\n 48638: a0 = u64 [sp + 0x20]\n 48641: a1 = u64 [sp + 0x18]\n 48644: u64 [a0 + 0x18] = a1\n 48647: a1 = u64 [sp + 0x10]\n 48650: u64 [a0 + 0x10] = a1\n 48653: a1 = u64 [sp + 0x28]\n 48656: u64 [a0 + 0x8] = a1\n 48659: a1 = u64 [sp + 0x30]\n 48662: u64 [a0] = a1\n 48664: sp = s0 + 0xffffffffffffff20\n 48668: ra = u64 [sp + 0xd8]\n 48672: s0 = u64 [sp + 0xd0]\n 48676: s1 = u64 [sp + 0xc8]\n 48680: sp = sp + 0xe0\n 48684: ret\n      : @638 (gas: 1)\n 48686: trap\n      : @639 (gas: 8)\n 48687: u64 [sp + 112] = 0\n 48690: u64 [sp + 104] = 0\n 48693: u64 [sp + 96] = 0\n 48696: a0 = 0x4e487b7100000000\n 48706: a1 = sp + 0x60\n 48709: u64 [sp + 0x78] = a0\n 48712: a0 = 0\n 48714: ra = 572, jump @8\n      : @640 [@dyn 286] (gas: 7)\n 48721: u64 [sp + 88] = 0\n 48724: u64 [sp + 80] = 0\n 48727: u64 [sp + 64] = 0x41\n 48731: a0 = 0x4\n 48734: a1 = sp + 0x40\n 48737: u64 [sp + 72] = 0\n 48740: ra = 574, jump @8\n      : @641 [@dyn 287] (gas: 3)\n 48747: a1 = 0x24\n 48750: a0 = 0\n 48752: ra = 576, jump @0\n      : @642 [@dyn 288] (gas: 6)\n 48759: i32 a1 = a0 + 0\n 48761: a0 = 0x1\n 48764: a2 = 0x24\n 48767: ra = 0x242\n 48771: ecalli 14 // 'seal_return'\n 48773: fallthrough\n      : @643 [@dyn 289] (gas: 22)\n 48774: sp = sp + 0xffffffffffffff50\n 48778: u64 [sp + 0xa8] = ra\n 48782: u64 [sp + 0xa0] = s0\n 48786: u64 [sp + 0x98] = s1\n 48790: s0 = sp + 0xb0\n 48794: sp = sp & 0xfffffffffffffff0\n 48797: a4 = u64 [a1 + 0x10]\n 48800: a3 = u64 [a1 + 0x18]\n 48803: a5 = u64 [a1 + 0x8]\n 48806: s1 = u64 [a1]\n 48808: u64 [sp + 0x38] = a3\n 48811: u64 [sp + 0x30] = a5\n 48814: a1 = a5 | a3\n 48817: a3 = s1 | a4\n 48820: a3 = a3 | a1\n 48823: a3 = a3 >> 0x20\n 48826: u64 [sp + 0x40] = a4\n 48829: a1 = a1 | a4\n 48832: a1 = a1 << 0x20\n 48835: a1 = a1 | a3\n 48838: u64 [sp + 0x48] = a0\n 48841: jump @647 if a1 != 0\n      : @644 (gas: 12)\n 48845: a0 = u64 [a2 + 0x18]\n 48848: u64 [sp + 0x20] = a0\n 48851: a0 = u64 [a2 + 0x10]\n 48854: u64 [sp + 0x10] = a0\n 48857: a0 = u64 [a2 + 0x8]\n 48860: u64 [sp + 0x8] = a0\n 48863: a0 = u64 [a2]\n 48865: u64 [sp + 0x18] = a0\n 48868: u64 [sp + 0x28] = s1\n 48871: i32 a0 = s1 + 0\n 48873: a1 = 0x20\n 48876: ra = 580, jump @0\n      : @645 [@dyn 290] (gas: 108)\n 48883: t2 = u64 [sp + 0x8]\n 48886: a1 = u8 [a0 + 0x1]\n 48889: a2 = u8 [a0]\n 48891: a3 = u8 [a0 + 0x2]\n 48894: a4 = u8 [a0 + 0x3]\n 48897: a1 = a1 << 0x8\n 48900: a1 = a1 | a2\n 48903: a3 = a3 << 0x10\n 48906: a4 = a4 << 0x18\n 48909: a3 = a3 | a4\n 48912: a1 = a1 | a3\n 48915: a2 = u8 [a0 + 0x5]\n 48918: a3 = u8 [a0 + 0x4]\n 48921: a4 = u8 [a0 + 0x6]\n 48924: a5 = u8 [a0 + 0x7]\n 48927: a2 = a2 << 0x8\n 48930: a2 = a2 | a3\n 48933: a4 = a4 << 0x10\n 48936: a5 = a5 << 0x18\n 48939: a4 = a4 | a5\n 48942: a2 = a2 | a4\n 48945: a2 = a2 << 0x20\n 48948: t0 = a2 | a1\n 48951: a2 = u8 [a0 + 0x9]\n 48954: a3 = u8 [a0 + 0x8]\n 48957: a4 = u8 [a0 + 0xa]\n 48960: a5 = u8 [a0 + 0xb]\n 48963: a2 = a2 << 0x8\n 48966: a2 = a2 | a3\n 48969: a4 = a4 << 0x10\n 48972: a5 = a5 << 0x18\n 48975: a4 = a4 | a5\n 48978: a2 = a2 | a4\n 48981: a3 = u8 [a0 + 0xd]\n 48984: a4 = u8 [a0 + 0xc]\n 48987: a5 = u8 [a0 + 0xe]\n 48990: a1 = u8 [a0 + 0xf]\n 48993: a3 = a3 << 0x8\n 48996: a3 = a3 | a4\n 48999: a5 = a5 << 0x10\n 49002: a1 = a1 << 0x18\n 49005: a1 = a1 | a5\n 49008: a1 = a1 | a3\n 49011: a1 = a1 << 0x20\n 49014: t1 = a1 | a2\n 49017: a1 = u8 [a0 + 0x11]\n 49020: a3 = u8 [a0 + 0x10]\n 49023: a4 = u8 [a0 + 0x12]\n 49026: a5 = u8 [a0 + 0x13]\n 49029: a1 = a1 << 0x8\n 49032: a1 = a1 | a3\n 49035: a4 = a4 << 0x10\n 49038: a5 = a5 << 0x18\n 49041: a4 = a4 | a5\n 49044: a1 = a1 | a4\n 49047: a3 = u8 [a0 + 0x15]\n 49050: a4 = u8 [a0 + 0x14]\n 49053: a5 = u8 [a0 + 0x16]\n 49056: a2 = u8 [a0 + 0x17]\n 49059: a3 = a3 << 0x8\n 49062: a3 = a3 | a4\n 49065: a5 = a5 << 0x10\n 49068: a2 = a2 << 0x18\n 49071: a2 = a2 | a5\n 49074: a2 = a2 | a3\n 49077: a2 = a2 << 0x20\n 49080: a3 = a2 | a1\n 49083: a1 = u8 [a0 + 0x19]\n 49086: a2 = u8 [a0 + 0x18]\n 49089: a4 = u8 [a0 + 0x1a]\n 49092: a5 = u8 [a0 + 0x1b]\n 49095: a1 = a1 << 0x8\n 49098: a1 = a1 | a2\n 49101: a4 = a4 << 0x10\n 49104: a5 = a5 << 0x18\n 49107: a4 = a4 | a5\n 49110: a1 = a1 | a4\n 49113: a2 = u8 [a0 + 0x1d]\n 49116: a4 = u8 [a0 + 0x1c]\n 49119: a5 = u8 [a0 + 0x1e]\n 49122: a0 = u8 [a0 + 0x1f]\n 49125: a2 = a2 << 0x8\n 49128: a2 = a2 | a4\n 49131: a5 = a5 << 0x10\n 49134: a0 = a0 << 0x18\n 49137: a0 = a0 | a5\n 49140: a0 = a0 | a2\n 49143: a0 = a0 << 0x20\n 49146: a0 = a0 | a1\n 49149: ra = reverse a0\n 49151: s1 = reverse a3\n 49153: a2 = reverse t1\n 49155: t1 = u64 [sp + 0x18]\n 49158: a3 = reverse t0\n 49160: a1 = u64 [sp + 0x20]\n 49163: a4 = a3 ^ a1\n 49166: a0 = a1 <u a3\n 49169: a3 = u64 [sp + 0x10]\n 49172: a5 = a3 <u a2\n 49175: a5 = a0 if a4 != 0\n 49178: t0 = s1 ^ t2\n 49181: s1 = t2 <u s1\n 49184: a0 = t1 <u ra\n 49187: a0 = s1 if t0 != 0\n 49190: a2 = a2 ^ a3\n 49193: a2 = a2 | a4\n 49196: a0 = a5 if a2 != 0\n 49199: jump @648 if a0 == 0\n      : @646 (gas: 48)\n 49203: s1 = a3\n 49205: a0 = s1 >> 0x3b\n 49208: a1 = a1 << 0x5\n 49211: t0 = a1 | a0\n 49214: a1 = t2 >> 0x3b\n 49217: s1 = s1 << 0x5\n 49220: a1 = a1 | s1\n 49223: a2 = t1 >> 0x3b\n 49226: a3 = t2 << 0x5\n 49229: a2 = a2 | a3\n 49232: a3 = t1 << 0x5\n 49235: a0 = u64 [sp + 0x28]\n 49238: a3 = a3 + a0\n 49241: a4 = a3 <u a0\n 49244: a5 = u64 [sp + 0x30]\n 49247: a2 = a2 + a5\n 49250: a2 = a2 + a4\n 49253: a0 = a2 ^ a5\n 49256: s1 = a2 <u a5\n 49259: s1 = a4 if a0 == 0\n 49262: a5 = u64 [sp + 0x40]\n 49265: a1 = a1 + a5\n 49268: s1 = s1 + a1\n 49271: a4 = s1 <u a1\n 49274: a1 = a1 <u a5\n 49277: a5 = u64 [sp + 0x38]\n 49280: a0 = a5 + t0\n 49283: a0 = a0 + a1\n 49286: a0 = a0 + a4\n 49289: a1 = a3 + 0x20\n 49292: a3 = a1 <u a3\n 49295: a4 = a2 + a3\n 49298: a2 = a4 <u a2\n 49301: a2 = a3 if a3 == 0\n 49304: a2 = a2 + s1\n 49307: a3 = a2 <u s1\n 49310: a0 = a0 + a3\n 49313: a3 = u64 [sp + 0x48]\n 49316: u64 [a3] = a1\n 49318: u64 [a3 + 0x8] = a4\n 49321: u64 [a3 + 0x10] = a2\n 49324: u64 [a3 + 0x18] = a0\n 49327: sp = s0 + 0xffffffffffffff50\n 49331: ra = u64 [sp + 0xa8]\n 49335: s0 = u64 [sp + 0xa0]\n 49339: s1 = u64 [sp + 0x98]\n 49343: sp = sp + 0xb0\n 49347: ret\n      : @647 (gas: 1)\n 49349: trap\n      : @648 (gas: 8)\n 49350: u64 [sp + 128] = 0\n 49354: u64 [sp + 120] = 0\n 49357: u64 [sp + 112] = 0\n 49360: a0 = 0x4e487b7100000000\n 49370: a1 = sp + 0x70\n 49373: u64 [sp + 0x88] = a0\n 49377: a0 = 0\n 49379: ra = 582, jump @8\n      : @649 [@dyn 291] (gas: 7)\n 49386: u64 [sp + 104] = 0\n 49389: u64 [sp + 96] = 0\n 49392: u64 [sp + 80] = 0x32\n 49396: a0 = 0x4\n 49399: a1 = sp + 0x50\n 49402: u64 [sp + 88] = 0\n 49405: ra = 584, jump @8\n      : @650 [@dyn 292] (gas: 3)\n 49412: a1 = 0x24\n 49415: a0 = 0\n 49417: ra = 586, jump @0\n      : @651 [@dyn 293] (gas: 6)\n 49424: i32 a1 = a0 + 0\n 49426: a0 = 0x1\n 49429: a2 = 0x24\n 49432: ra = 0x24c\n 49436: ecalli 14 // 'seal_return'\n 49438: fallthrough\n      : @652 [@dyn 294] (gas: 12)\n 49439: a2 = u64 [a0 + 0x10]\n 49442: a3 = u64 [a0 + 0x18]\n 49445: a4 = u64 [a0 + 0x8]\n 49448: a0 = u64 [a0]\n 49450: a3 = a3 | a4\n 49453: a4 = a0 | a2\n 49456: a4 = a4 | a3\n 49459: a4 = a4 >> 0x20\n 49462: a2 = a2 | a3\n 49465: a2 = a2 << 0x20\n 49468: a2 = a2 | a4\n 49471: jump @655 if a2 != 0\n      : @653 (gas: 13)\n 49475: sp = sp + 0xffffffffffffffe0\n 49478: u64 [sp + 0x18] = ra\n 49481: u64 [sp + 0x10] = s0\n 49484: u64 [sp + 0x8] = s1\n 49487: a2 = u64 [a1 + 0x10]\n 49490: a3 = u64 [a1 + 0x8]\n 49493: u64 [sp] = a3\n 49495: s1 = u64 [a1]\n 49497: a2 = a2 << 0x20\n 49500: s0 = a2 >> 0x20\n 49503: i32 a0 = a0 + 0\n 49505: a1 = 0x20\n 49508: ra = 590, jump @0\n      : @654 [@dyn 295] (gas: 59)\n 49515: a1 = reverse s0\n 49517: a2 = u64 [sp]\n 49519: a2 = reverse a2\n 49521: a3 = reverse s1\n 49523: a4 = a3 >> 0x38\n 49526: u8 [a0 + 0x1f] = a4\n 49529: a4 = a3 >> 0x30\n 49532: u8 [a0 + 0x1e] = a4\n 49535: a4 = a3 >> 0x28\n 49538: u8 [a0 + 0x1d] = a4\n 49541: a4 = a3 >> 0x20\n 49544: u8 [a0 + 0x1c] = a4\n 49547: a4 = a3 >> 0x18\n 49550: u8 [a0 + 0x1b] = a4\n 49553: a4 = a3 >> 0x10\n 49556: u8 [a0 + 0x1a] = a4\n 49559: a4 = a3 >> 0x8\n 49562: u8 [a0 + 0x19] = a4\n 49565: u8 [a0 + 0x18] = a3\n 49568: u8 [a0 + 0x10] = a2\n 49571: u8 [a0 + 11] = 0\n 49574: u8 [a0 + 10] = 0\n 49577: u8 [a0 + 9] = 0\n 49580: u8 [a0 + 7] = 0\n 49583: u8 [a0 + 6] = 0\n 49586: u8 [a0 + 5] = 0\n 49589: u8 [a0 + 4] = 0\n 49592: u8 [a0 + 3] = 0\n 49595: u8 [a0 + 2] = 0\n 49598: u8 [a0 + 1] = 0\n 49601: u8 [a0 + 0] = 0\n 49603: a3 = a2 >> 0x38\n 49606: u8 [a0 + 0x17] = a3\n 49609: a3 = a2 >> 0x30\n 49612: u8 [a0 + 0x16] = a3\n 49615: a3 = a2 >> 0x28\n 49618: u8 [a0 + 0x15] = a3\n 49621: a3 = a2 >> 0x20\n 49624: u8 [a0 + 0x14] = a3\n 49627: a3 = a2 >> 0x18\n 49630: u8 [a0 + 0x13] = a3\n 49633: a3 = a2 >> 0x10\n 49636: u8 [a0 + 0x12] = a3\n 49639: a2 = a2 >> 0x8\n 49642: u8 [a0 + 0x11] = a2\n 49645: u8 [a0 + 0x8] = a1\n 49648: a2 = a1 >> 0x38\n 49651: u8 [a0 + 0xf] = a2\n 49654: a2 = a1 >> 0x30\n 49657: u8 [a0 + 0xe] = a2\n 49660: a2 = a1 >> 0x28\n 49663: u8 [a0 + 0xd] = a2\n 49666: a1 = a1 >> 0x20\n 49669: u8 [a0 + 0xc] = a1\n 49672: ra = u64 [sp + 0x18]\n 49675: s0 = u64 [sp + 0x10]\n 49678: s1 = u64 [sp + 0x8]\n 49681: sp = sp + 0x20\n 49684: ret\n      : @655 (gas: 1)\n 49686: trap\n      : @656 [@dyn 296] (gas: 15)\n 49687: a0 = u64 [sp + 0x2d8]\n 49691: a3 = u64 [sp + 0x2d0]\n 49695: a1 = u64 [sp + 0x2c8]\n 49699: a2 = u64 [sp + 0x2c0]\n 49703: u64 [sp + 0x28] = a0\n 49706: u64 [sp + 0x18] = a1\n 49709: a0 = a0 | a1\n 49712: a1 = a2 | a3\n 49715: a1 = a1 | a0\n 49718: a1 = a1 >> 0x20\n 49721: u64 [sp + 0x20] = a3\n 49724: a0 = a0 | a3\n 49727: a0 = a0 << 0x20\n 49730: a0 = a0 | a1\n 49733: jump @677 if a0 != 0\n      : @657 (gas: 5)\n 49737: i32 a0 = a2 + 0\n 49739: u64 [sp + 0x98] = a0\n 49743: a1 = 0x20\n 49746: u64 [sp + 0x10] = a2\n 49749: ra = 594, jump @0\n      : @658 [@dyn 297] (gas: 122)\n 49756: a1 = u8 [a0 + 0x1]\n 49759: a2 = u8 [a0]\n 49761: a3 = u8 [a0 + 0x2]\n 49764: a4 = u8 [a0 + 0x3]\n 49767: a1 = a1 << 0x8\n 49770: a1 = a1 | a2\n 49773: a3 = a3 << 0x10\n 49776: a4 = a4 << 0x18\n 49779: a3 = a3 | a4\n 49782: a1 = a1 | a3\n 49785: a2 = u8 [a0 + 0x5]\n 49788: a3 = u8 [a0 + 0x4]\n 49791: a4 = u8 [a0 + 0x6]\n 49794: a5 = u8 [a0 + 0x7]\n 49797: a2 = a2 << 0x8\n 49800: a2 = a2 | a3\n 49803: a4 = a4 << 0x10\n 49806: a5 = a5 << 0x18\n 49809: a4 = a4 | a5\n 49812: a2 = a2 | a4\n 49815: a2 = a2 << 0x20\n 49818: t0 = a2 | a1\n 49821: a2 = u8 [a0 + 0x9]\n 49824: a3 = u8 [a0 + 0x8]\n 49827: a4 = u8 [a0 + 0xa]\n 49830: a5 = u8 [a0 + 0xb]\n 49833: a2 = a2 << 0x8\n 49836: a2 = a2 | a3\n 49839: a4 = a4 << 0x10\n 49842: a5 = a5 << 0x18\n 49845: a4 = a4 | a5\n 49848: a2 = a2 | a4\n 49851: a3 = u8 [a0 + 0xd]\n 49854: a4 = u8 [a0 + 0xc]\n 49857: a5 = u8 [a0 + 0xe]\n 49860: s1 = u8 [a0 + 0xf]\n 49863: a3 = a3 << 0x8\n 49866: a3 = a3 | a4\n 49869: a5 = a5 << 0x10\n 49872: s1 = s1 << 0x18\n 49875: a5 = a5 | s1\n 49878: a3 = a3 | a5\n 49881: a3 = a3 << 0x20\n 49884: a2 = a2 | a3\n 49887: a3 = u8 [a0 + 0x11]\n 49890: a4 = u8 [a0 + 0x10]\n 49893: a5 = u8 [a0 + 0x12]\n 49896: s1 = u8 [a0 + 0x13]\n 49899: a3 = a3 << 0x8\n 49902: a3 = a3 | a4\n 49905: a5 = a5 << 0x10\n 49908: s1 = s1 << 0x18\n 49911: a5 = a5 | s1\n 49914: a3 = a3 | a5\n 49917: a4 = u8 [a0 + 0x15]\n 49920: a5 = u8 [a0 + 0x14]\n 49923: s1 = u8 [a0 + 0x16]\n 49926: a1 = u8 [a0 + 0x17]\n 49929: a4 = a4 << 0x8\n 49932: a4 = a4 | a5\n 49935: s1 = s1 << 0x10\n 49938: a1 = a1 << 0x18\n 49941: a1 = a1 | s1\n 49944: a1 = a1 | a4\n 49947: a1 = a1 << 0x20\n 49950: a3 = a3 | a1\n 49953: a1 = u8 [a0 + 0x19]\n 49956: a4 = u8 [a0 + 0x18]\n 49959: a5 = u8 [a0 + 0x1a]\n 49962: s1 = u8 [a0 + 0x1b]\n 49965: a1 = a1 << 0x8\n 49968: a1 = a1 | a4\n 49971: a5 = a5 << 0x10\n 49974: s1 = s1 << 0x18\n 49977: a5 = a5 | s1\n 49980: a1 = a1 | a5\n 49983: a4 = u8 [a0 + 0x1d]\n 49986: a5 = u8 [a0 + 0x1c]\n 49989: s1 = u8 [a0 + 0x1e]\n 49992: a0 = u8 [a0 + 0x1f]\n 49995: a4 = a4 << 0x8\n 49998: a4 = a4 | a5\n 50001: s1 = s1 << 0x10\n 50004: a0 = a0 << 0x18\n 50007: a0 = a0 | s1\n 50010: s1 = u64 [sp + 0x98]\n 50014: a0 = a0 | a4\n 50017: a0 = a0 << 0x20\n 50020: a0 = a0 | a1\n 50023: a4 = reverse a0\n 50025: a0 = reverse a3\n 50027: a1 = reverse a2\n 50029: a2 = reverse t0\n 50031: u64 [sp + 0x278] = a2\n 50035: u64 [sp + 0x270] = a1\n 50039: u64 [sp + 0x268] = a0\n 50043: a0 = sp + 0x280\n 50047: a1 = sp + 0x260\n 50051: u64 [sp + 0x260] = a4\n 50055: ra = 0x254\n 50059: sp = sp + 0xffffffffffffff20\n 50063: u64 [sp + 0xd8] = ra\n 50067: u64 [sp + 0xd0] = s0\n 50071: u64 [sp + 0xc8] = s1\n 50075: s0 = sp + 0xe0\n 50079: sp = sp & 0xfffffffffffffff0\n 50082: a2 = u64 [a1]\n 50084: a3 = u64 [a1 + 0x8]\n 50087: u64 [sp + 0x28] = a3\n 50090: s1 = u64 [a1 + 0x10]\n 50093: a1 = u64 [a1 + 0x18]\n 50096: u64 [sp + 0x30] = a1\n 50099: u64 [sp + 0x20] = a0\n 50102: u64 [sp + 0x98] = a1\n 50106: u64 [sp + 0x90] = s1\n 50110: u64 [sp + 0x88] = a3\n 50114: a0 = sp + 0xa0\n 50118: a1 = sp + 0x80\n 50122: u64 [sp + 0x38] = a2\n 50125: u64 [sp + 0x80] = a2\n 50129: ra = 0x238\n 50133: jump @618\n      : @659 [@dyn 298] (gas: 43)\n 50136: u64 [sp + 472] = 0\n 50140: u64 [sp + 464] = 0\n 50144: u64 [sp + 448] = 0\n 50148: u64 [sp + 456] = 0\n 50152: a2 = u64 [sp + 0x288]\n 50156: a3 = u64 [sp + 0x280]\n 50160: a1 = u64 [sp + 0x10]\n 50163: a0 = a1 + 0x20\n 50166: u64 [sp + 0x70] = a0\n 50169: a0 = a0 <u a1\n 50172: a4 = u64 [sp + 0x18]\n 50175: a1 = a4 + a0\n 50178: u64 [sp + 0x68] = a1\n 50181: a1 = a1 <u a4\n 50184: a1 = a0 if a0 == 0\n 50187: a0 = a3 + 0x20\n 50190: u64 [sp + 0x50] = a0\n 50193: a0 = a0 <u a3\n 50196: a4 = a2 + a0\n 50199: u64 [sp + 0x90] = a2\n 50203: u64 [sp + 0x48] = a4\n 50206: a2 = a4 <u a2\n 50209: a2 = a0 if a0 == 0\n 50212: a5 = u64 [sp + 0x20]\n 50215: a0 = a5 + a1\n 50218: a4 = u64 [sp + 0x290]\n 50222: a1 = u64 [sp + 0x298]\n 50226: u64 [sp + 0x60] = a0\n 50229: a0 = a0 <u a5\n 50232: a5 = u64 [sp + 0x28]\n 50235: a0 = a0 + a5\n 50238: u64 [sp + 0x58] = a0\n 50241: a2 = a2 + a4\n 50244: u64 [sp + 0x78] = a4\n 50247: u64 [sp + 0x40] = a2\n 50250: a0 = a2 <u a4\n 50253: u64 [sp + 0x80] = a1\n 50257: a0 = a0 + a1\n 50260: u64 [sp + 0x38] = a0\n 50263: u64 [sp + 0x88] = a3\n 50267: i32 a3 = a3 + 0\n 50269: u64 [sp + 0x30] = a3\n 50272: fallthrough\n      : @660 (gas: 3)\n 50273: a1 = 0x20\n 50276: a0 = s1\n 50278: ra = 598, jump @0\n      : @661 [@dyn 299] (gas: 109)\n 50285: a1 = u8 [a0 + 0x1]\n 50288: a2 = u8 [a0]\n 50290: a3 = u8 [a0 + 0x2]\n 50293: a4 = u8 [a0 + 0x3]\n 50296: a1 = a1 << 0x8\n 50299: a1 = a1 | a2\n 50302: a3 = a3 << 0x10\n 50305: a4 = a4 << 0x18\n 50308: a3 = a3 | a4\n 50311: a1 = a1 | a3\n 50314: a2 = u8 [a0 + 0x5]\n 50317: a3 = u8 [a0 + 0x4]\n 50320: a4 = u8 [a0 + 0x6]\n 50323: a5 = u8 [a0 + 0x7]\n 50326: a2 = a2 << 0x8\n 50329: a2 = a2 | a3\n 50332: a4 = a4 << 0x10\n 50335: a5 = a5 << 0x18\n 50338: a4 = a4 | a5\n 50341: a2 = a2 | a4\n 50344: a2 = a2 << 0x20\n 50347: t0 = a2 | a1\n 50350: a2 = u8 [a0 + 0x9]\n 50353: a3 = u8 [a0 + 0x8]\n 50356: a4 = u8 [a0 + 0xa]\n 50359: a5 = u8 [a0 + 0xb]\n 50362: a2 = a2 << 0x8\n 50365: a2 = a2 | a3\n 50368: a4 = a4 << 0x10\n 50371: a5 = a5 << 0x18\n 50374: a4 = a4 | a5\n 50377: a2 = a2 | a4\n 50380: a3 = u8 [a0 + 0xd]\n 50383: a4 = u8 [a0 + 0xc]\n 50386: a5 = u8 [a0 + 0xe]\n 50389: t1 = s1\n 50391: s1 = u8 [a0 + 0xf]\n 50394: a3 = a3 << 0x8\n 50397: a3 = a3 | a4\n 50400: a5 = a5 << 0x10\n 50403: s1 = s1 << 0x18\n 50406: a5 = a5 | s1\n 50409: a3 = a3 | a5\n 50412: a3 = a3 << 0x20\n 50415: a2 = a2 | a3\n 50418: a3 = u8 [a0 + 0x11]\n 50421: a4 = u8 [a0 + 0x10]\n 50424: a5 = u8 [a0 + 0x12]\n 50427: s1 = u8 [a0 + 0x13]\n 50430: a3 = a3 << 0x8\n 50433: a3 = a3 | a4\n 50436: a5 = a5 << 0x10\n 50439: s1 = s1 << 0x18\n 50442: a5 = a5 | s1\n 50445: a3 = a3 | a5\n 50448: a4 = u8 [a0 + 0x15]\n 50451: a5 = u8 [a0 + 0x14]\n 50454: s1 = u8 [a0 + 0x16]\n 50457: a1 = u8 [a0 + 0x17]\n 50460: a4 = a4 << 0x8\n 50463: a4 = a4 | a5\n 50466: s1 = s1 << 0x10\n 50469: a1 = a1 << 0x18\n 50472: a1 = a1 | s1\n 50475: a1 = a1 | a4\n 50478: a1 = a1 << 0x20\n 50481: a3 = a3 | a1\n 50484: a1 = u8 [a0 + 0x19]\n 50487: a4 = u8 [a0 + 0x18]\n 50490: a5 = u8 [a0 + 0x1a]\n 50493: s1 = u8 [a0 + 0x1b]\n 50496: a1 = a1 << 0x8\n 50499: a1 = a1 | a4\n 50502: a5 = a5 << 0x10\n 50505: s1 = s1 << 0x18\n 50508: a5 = a5 | s1\n 50511: a1 = a1 | a5\n 50514: a4 = u8 [a0 + 0x1d]\n 50517: a5 = u8 [a0 + 0x1c]\n 50520: s1 = u8 [a0 + 0x1e]\n 50523: a0 = u8 [a0 + 0x1f]\n 50526: a4 = a4 << 0x8\n 50529: a4 = a4 | a5\n 50532: s1 = s1 << 0x10\n 50535: a0 = a0 << 0x18\n 50538: a0 = a0 | s1\n 50541: a0 = a0 | a4\n 50544: a0 = a0 << 0x20\n 50547: a0 = a0 | a1\n 50550: a0 = reverse a0\n 50552: a1 = reverse a3\n 50554: t2 = reverse a2\n 50556: a3 = reverse t0\n 50558: a4 = u64 [sp + 0x1c8]\n 50562: a2 = a4 ^ a3\n 50565: a3 = a4 <u a3\n 50568: a4 = u64 [sp + 0x1c0]\n 50572: a5 = a4 <u t2\n 50575: a5 = a3 if a2 != 0\n 50578: a3 = u64 [sp + 0x1d0]\n 50582: t0 = a3 ^ a1\n 50585: a1 = a3 <u a1\n 50588: s1 = u64 [sp + 0x1d8]\n 50592: a0 = s1 <u a0\n 50595: a0 = a1 if t0 != 0\n 50598: a1 = a4 ^ t2\n 50601: a1 = a1 | a2\n 50604: a0 = a5 if a1 != 0\n 50607: jump @676 if a0 == 0\n      : @662 (gas: 3)\n 50611: a1 = 0x20\n 50614: a0 = t1\n 50616: ra = 600, jump @0\n      : @663 [@dyn 300] (gas: 108)\n 50623: ra = u64 [sp + 0x1c0]\n 50627: t2 = u64 [sp + 0x1c8]\n 50631: a1 = u8 [a0 + 0x1]\n 50634: a2 = u8 [a0]\n 50636: a3 = u8 [a0 + 0x2]\n 50639: a4 = u8 [a0 + 0x3]\n 50642: a1 = a1 << 0x8\n 50645: a1 = a1 | a2\n 50648: a3 = a3 << 0x10\n 50651: a4 = a4 << 0x18\n 50654: a3 = a3 | a4\n 50657: a1 = a1 | a3\n 50660: a2 = u8 [a0 + 0x5]\n 50663: a3 = u8 [a0 + 0x4]\n 50666: a4 = u8 [a0 + 0x6]\n 50669: a5 = u8 [a0 + 0x7]\n 50672: a2 = a2 << 0x8\n 50675: a2 = a2 | a3\n 50678: a4 = a4 << 0x10\n 50681: a5 = a5 << 0x18\n 50684: a4 = a4 | a5\n 50687: a2 = a2 | a4\n 50690: a2 = a2 << 0x20\n 50693: t0 = a2 | a1\n 50696: a2 = u8 [a0 + 0x9]\n 50699: a3 = u8 [a0 + 0x8]\n 50702: a4 = u8 [a0 + 0xa]\n 50705: a5 = u8 [a0 + 0xb]\n 50708: a2 = a2 << 0x8\n 50711: a2 = a2 | a3\n 50714: a4 = a4 << 0x10\n 50717: a5 = a5 << 0x18\n 50720: a4 = a4 | a5\n 50723: a2 = a2 | a4\n 50726: a3 = u8 [a0 + 0xd]\n 50729: a4 = u8 [a0 + 0xc]\n 50732: a5 = u8 [a0 + 0xe]\n 50735: s1 = u8 [a0 + 0xf]\n 50738: a3 = a3 << 0x8\n 50741: a3 = a3 | a4\n 50744: a5 = a5 << 0x10\n 50747: s1 = s1 << 0x18\n 50750: a5 = a5 | s1\n 50753: a3 = a3 | a5\n 50756: a3 = a3 << 0x20\n 50759: a2 = a2 | a3\n 50762: a3 = u8 [a0 + 0x11]\n 50765: a4 = u8 [a0 + 0x10]\n 50768: a5 = u8 [a0 + 0x12]\n 50771: s1 = u8 [a0 + 0x13]\n 50774: a3 = a3 << 0x8\n 50777: a3 = a3 | a4\n 50780: a5 = a5 << 0x10\n 50783: s1 = s1 << 0x18\n 50786: a5 = a5 | s1\n 50789: a3 = a3 | a5\n 50792: a4 = u8 [a0 + 0x15]\n 50795: a5 = u8 [a0 + 0x14]\n 50798: s1 = u8 [a0 + 0x16]\n 50801: a1 = u8 [a0 + 0x17]\n 50804: a4 = a4 << 0x8\n 50807: a4 = a4 | a5\n 50810: s1 = s1 << 0x10\n 50813: a1 = a1 << 0x18\n 50816: a1 = a1 | s1\n 50819: a1 = a1 | a4\n 50822: a1 = a1 << 0x20\n 50825: a3 = a3 | a1\n 50828: a1 = u8 [a0 + 0x19]\n 50831: a4 = u8 [a0 + 0x18]\n 50834: a5 = u8 [a0 + 0x1a]\n 50837: s1 = u8 [a0 + 0x1b]\n 50840: a1 = a1 << 0x8\n 50843: a1 = a1 | a4\n 50846: a5 = a5 << 0x10\n 50849: s1 = s1 << 0x18\n 50852: a5 = a5 | s1\n 50855: a1 = a1 | a5\n 50858: a4 = u8 [a0 + 0x1d]\n 50861: a5 = u8 [a0 + 0x1c]\n 50864: s1 = u8 [a0 + 0x1e]\n 50867: a0 = u8 [a0 + 0x1f]\n 50870: a4 = a4 << 0x8\n 50873: a4 = a4 | a5\n 50876: s1 = s1 << 0x10\n 50879: a0 = a0 << 0x18\n 50882: a0 = a0 | s1\n 50885: a0 = a0 | a4\n 50888: a0 = a0 << 0x20\n 50891: a0 = a0 | a1\n 50894: t1 = reverse a0\n 50896: a1 = reverse a3\n 50898: a2 = reverse a2\n 50900: a5 = reverse t0\n 50902: a3 = u64 [sp + 0x1d0]\n 50906: s1 = u64 [sp + 0x1d8]\n 50910: a4 = a5 ^ t2\n 50913: a0 = t2 <u a5\n 50916: a5 = ra <u a2\n 50919: a5 = a0 if a4 != 0\n 50922: t0 = a1 ^ a3\n 50925: a1 = a3 <u a1\n 50928: a0 = s1 <u t1\n 50931: a0 = a1 if t0 != 0\n 50934: a1 = a2 ^ ra\n 50937: a1 = a1 | a4\n 50940: a0 = a5 if a1 != 0\n 50943: jump @678 if a0 == 0\n      : @664 (gas: 40)\n 50947: a0 = ra >> 0x3b\n 50950: a1 = t2 << 0x5\n 50953: t0 = a1 | a0\n 50956: a0 = a3 >> 0x3b\n 50959: a1 = ra << 0x5\n 50962: a5 = a1 | a0\n 50965: a0 = s1 >> 0x3b\n 50968: a1 = a3 << 0x5\n 50971: a2 = a1 | a0\n 50974: a0 = s1 << 0x5\n 50977: a1 = u64 [sp + 0x70]\n 50980: u64 [sp + 0x1a0] = a0\n 50984: a0 = a0 + a1\n 50987: a1 = a0 <u a1\n 50990: a4 = u64 [sp + 0x68]\n 50993: u64 [sp + 0x1a8] = a2\n 50997: a2 = a2 + a4\n 51000: a2 = a2 + a1\n 51003: a3 = a2 ^ a4\n 51006: a4 = a2 <u a4\n 51009: a4 = a1 if a3 == 0\n 51012: a3 = u64 [sp + 0x60]\n 51015: u64 [sp + 0x1b0] = a5\n 51019: a1 = a3 + a5\n 51022: a3 = a1 <u a3\n 51025: a5 = u64 [sp + 0x58]\n 51028: u64 [sp + 0x1b8] = t0\n 51032: a5 = a5 + t0\n 51035: a3 = a3 + a5\n 51038: a4 = a4 + a1\n 51041: a1 = a4 <u a1\n 51044: a1 = a1 + a3\n 51047: a1 = a1 | a2\n 51050: a2 = a0 | a4\n 51053: a2 = a2 | a1\n 51056: a1 = a1 | a4\n 51059: a2 = a2 >> 0x20\n 51062: a1 = a1 << 0x20\n 51065: a1 = a1 | a2\n 51068: jump @677 if a1 != 0\n      : @665 (gas: 15)\n 51072: a1 = u64 [sp + 0x88]\n 51076: a4 = u64 [sp + 0x78]\n 51079: a1 = a1 | a4\n 51082: a2 = u64 [sp + 0x90]\n 51086: a3 = u64 [sp + 0x80]\n 51090: a2 = a2 | a3\n 51093: a1 = a1 | a2\n 51096: a1 = a1 >> 0x20\n 51099: a2 = a2 | a4\n 51102: a2 = a2 << 0x20\n 51105: a1 = a1 | a2\n 51108: u64 [sp + 0x198] = a1\n 51112: i32 a0 = a0 + 0\n 51114: a1 = 0x20\n 51117: ra = 602, jump @0\n      : @666 [@dyn 301] (gas: 66)\n 51124: a1 = u8 [a0]\n 51126: u64 [sp + 0x190] = a1\n 51130: a1 = u8 [a0 + 0x1]\n 51133: u64 [sp + 0x188] = a1\n 51137: a1 = u8 [a0 + 0x2]\n 51140: u64 [sp + 0x180] = a1\n 51144: a1 = u8 [a0 + 0x3]\n 51147: u64 [sp + 0x178] = a1\n 51151: a1 = u8 [a0 + 0x4]\n 51154: u64 [sp + 0x170] = a1\n 51158: a1 = u8 [a0 + 0x5]\n 51161: u64 [sp + 0x168] = a1\n 51165: a1 = u8 [a0 + 0x6]\n 51168: u64 [sp + 0x160] = a1\n 51172: a1 = u8 [a0 + 0x7]\n 51175: u64 [sp + 0x158] = a1\n 51179: a1 = u8 [a0 + 0x8]\n 51182: u64 [sp + 0x150] = a1\n 51186: a1 = u8 [a0 + 0x9]\n 51189: u64 [sp + 0x148] = a1\n 51193: a1 = u8 [a0 + 0xa]\n 51196: u64 [sp + 0x140] = a1\n 51200: a1 = u8 [a0 + 0xb]\n 51203: u64 [sp + 0x138] = a1\n 51207: a1 = u8 [a0 + 0xc]\n 51210: u64 [sp + 0x130] = a1\n 51214: a1 = u8 [a0 + 0xd]\n 51217: u64 [sp + 0x128] = a1\n 51221: a1 = u8 [a0 + 0xe]\n 51224: u64 [sp + 0x120] = a1\n 51228: a1 = u8 [a0 + 0xf]\n 51231: u64 [sp + 0x118] = a1\n 51235: a1 = u8 [a0 + 0x10]\n 51238: u64 [sp + 0x110] = a1\n 51242: a1 = u8 [a0 + 0x11]\n 51245: u64 [sp + 0x108] = a1\n 51249: a1 = u8 [a0 + 0x12]\n 51252: u64 [sp + 0x100] = a1\n 51256: a1 = u8 [a0 + 0x13]\n 51259: u64 [sp + 0xf8] = a1\n 51263: a1 = u8 [a0 + 0x14]\n 51266: u64 [sp + 0xf0] = a1\n 51270: a1 = u8 [a0 + 0x15]\n 51273: u64 [sp + 0xe8] = a1\n 51277: a1 = u8 [a0 + 0x16]\n 51280: u64 [sp + 0xe0] = a1\n 51284: a1 = u8 [a0 + 0x17]\n 51287: u64 [sp + 0xd8] = a1\n 51291: a1 = u8 [a0 + 0x18]\n 51294: u64 [sp + 0xd0] = a1\n 51298: a1 = u8 [a0 + 0x19]\n 51301: u64 [sp + 0xc8] = a1\n 51305: a1 = u8 [a0 + 0x1a]\n 51308: u64 [sp + 0xc0] = a1\n 51312: a1 = u8 [a0 + 0x1b]\n 51315: u64 [sp + 0xb8] = a1\n 51319: a1 = u8 [a0 + 0x1c]\n 51322: u64 [sp + 0xb0] = a1\n 51326: a1 = u8 [a0 + 0x1d]\n 51329: u64 [sp + 0xa8] = a1\n 51333: a1 = u8 [a0 + 0x1e]\n 51336: u64 [sp + 0xa0] = a1\n 51340: s1 = u8 [a0 + 0x1f]\n 51343: a1 = 0x20\n 51346: a0 = 0\n 51348: ra = 604, jump @0\n      : @667 [@dyn 302] (gas: 66)\n 51355: u8 [a0 + 0x1f] = s1\n 51358: a1 = u64 [sp + 0xa0]\n 51362: u8 [a0 + 0x1e] = a1\n 51365: a1 = u64 [sp + 0xa8]\n 51369: u8 [a0 + 0x1d] = a1\n 51372: a1 = u64 [sp + 0xb0]\n 51376: u8 [a0 + 0x1c] = a1\n 51379: a1 = u64 [sp + 0xb8]\n 51383: u8 [a0 + 0x1b] = a1\n 51386: a1 = u64 [sp + 0xc0]\n 51390: u8 [a0 + 0x1a] = a1\n 51393: a1 = u64 [sp + 0xc8]\n 51397: u8 [a0 + 0x19] = a1\n 51400: a1 = u64 [sp + 0xd0]\n 51404: u8 [a0 + 0x18] = a1\n 51407: a1 = u64 [sp + 0xd8]\n 51411: u8 [a0 + 0x17] = a1\n 51414: a1 = u64 [sp + 0xe0]\n 51418: u8 [a0 + 0x16] = a1\n 51421: a1 = u64 [sp + 0xe8]\n 51425: u8 [a0 + 0x15] = a1\n 51428: a1 = u64 [sp + 0xf0]\n 51432: u8 [a0 + 0x14] = a1\n 51435: a1 = u64 [sp + 0xf8]\n 51439: u8 [a0 + 0x13] = a1\n 51442: a1 = u64 [sp + 0x100]\n 51446: u8 [a0 + 0x12] = a1\n 51449: a1 = u64 [sp + 0x108]\n 51453: u8 [a0 + 0x11] = a1\n 51456: a1 = u64 [sp + 0x110]\n 51460: u8 [a0 + 0x10] = a1\n 51463: a1 = u64 [sp + 0x118]\n 51467: u8 [a0 + 0xf] = a1\n 51470: a1 = u64 [sp + 0x120]\n 51474: u8 [a0 + 0xe] = a1\n 51477: a1 = u64 [sp + 0x128]\n 51481: u8 [a0 + 0xd] = a1\n 51484: a1 = u64 [sp + 0x130]\n 51488: u8 [a0 + 0xc] = a1\n 51491: a1 = u64 [sp + 0x138]\n 51495: u8 [a0 + 0xb] = a1\n 51498: a1 = u64 [sp + 0x140]\n 51502: u8 [a0 + 0xa] = a1\n 51505: a1 = u64 [sp + 0x148]\n 51509: u8 [a0 + 0x9] = a1\n 51512: a1 = u64 [sp + 0x150]\n 51516: u8 [a0 + 0x8] = a1\n 51519: a1 = u64 [sp + 0x158]\n 51523: u8 [a0 + 0x7] = a1\n 51526: a1 = u64 [sp + 0x160]\n 51530: u8 [a0 + 0x6] = a1\n 51533: a1 = u64 [sp + 0x168]\n 51537: u8 [a0 + 0x5] = a1\n 51540: a1 = u64 [sp + 0x170]\n 51544: u8 [a0 + 0x4] = a1\n 51547: a1 = u64 [sp + 0x178]\n 51551: u8 [a0 + 0x3] = a1\n 51554: a1 = u64 [sp + 0x180]\n 51558: u8 [a0 + 0x2] = a1\n 51561: a1 = u64 [sp + 0x188]\n 51565: u8 [a0 + 0x1] = a1\n 51568: a1 = u64 [sp + 0x190]\n 51572: u8 [a0] = a1\n 51574: a0 = 0x20\n 51577: a1 = 0x20\n 51580: ra = 606, jump @0\n      : @668 [@dyn 303] (gas: 35)\n 51587: u8 [a0 + 31] = 0\n 51590: u8 [a0 + 30] = 0\n 51593: u8 [a0 + 29] = 0\n 51596: u8 [a0 + 28] = 0\n 51599: u8 [a0 + 27] = 0\n 51602: u8 [a0 + 26] = 0\n 51605: u8 [a0 + 25] = 0\n 51608: u8 [a0 + 24] = 0\n 51611: u8 [a0 + 23] = 0\n 51614: u8 [a0 + 22] = 0\n 51617: u8 [a0 + 21] = 0\n 51620: u8 [a0 + 20] = 0\n 51623: u8 [a0 + 19] = 0\n 51626: u8 [a0 + 18] = 0\n 51629: u8 [a0 + 17] = 0\n 51632: u8 [a0 + 16] = 0\n 51635: u8 [a0 + 15] = 0\n 51638: u8 [a0 + 14] = 0\n 51641: u8 [a0 + 13] = 0\n 51644: u8 [a0 + 12] = 0\n 51647: u8 [a0 + 11] = 0\n 51650: u8 [a0 + 10] = 0\n 51653: u8 [a0 + 9] = 0\n 51656: u8 [a0 + 8] = 0\n 51659: u8 [a0 + 7] = 0\n 51662: u8 [a0 + 6] = 0\n 51665: u8 [a0 + 5] = 0\n 51668: u8 [a0 + 4] = 0\n 51671: u8 [a0 + 3] = 0\n 51674: u8 [a0 + 2] = 0\n 51677: u8 [a0 + 1] = 0\n 51680: u8 [a0 + 0] = 0\n 51682: a1 = 0x40\n 51685: a0 = 0\n 51687: ra = 608, jump @0\n      : @669 [@dyn 304] (gas: 28)\n 51694: i32 a0 = a0 + 0\n 51696: i32 a2 = sp + 0x300\n 51700: a1 = 0x40\n 51703: ecalli 9 // 'hash_keccak_256'\n 51705: a0 = u64 [sp + 0x318]\n 51709: a1 = u64 [sp + 0x310]\n 51713: a2 = u64 [sp + 0x308]\n 51717: a3 = u64 [sp + 0x300]\n 51721: a0 = reverse a0\n 51723: a1 = reverse a1\n 51725: a2 = reverse a2\n 51727: a3 = reverse a3\n 51729: u64 [sp + 0x2f8] = a3\n 51733: u64 [sp + 0x2f0] = a2\n 51737: u64 [sp + 0x2e8] = a1\n 51741: u64 [sp + 0x2e0] = a0\n 51745: u64 [sp + 792] = 0\n 51749: u64 [sp + 784] = 0\n 51753: u64 [sp + 776] = 0\n 51757: u64 [sp + 768] = 0\n 51761: u32 [sp + 800] = 0x20\n 51766: i32 a1 = sp + 0x2e0\n 51770: i32 a3 = sp + 0x300\n 51774: i32 a4 = sp + 0x320\n 51778: a2 = 0xffffffffffffffff\n 51781: a0 = 0\n 51783: ecalli 8 // 'get_storage'\n 51785: fallthrough\n      : @670 (gas: 2)\n 51786: a0 = u64 [sp + 0x198]\n 51790: jump @677 if a0 != 0\n      : @671 (gas: 9)\n 51794: a0 = u64 [sp + 0x308]\n 51798: u64 [sp + 0x190] = a0\n 51802: a0 = u64 [sp + 0x300]\n 51806: u64 [sp + 0x198] = a0\n 51810: a0 = u32 [sp + 0x310]\n 51814: u64 [sp + 0x188] = a0\n 51818: a1 = 0x20\n 51821: a0 = u64 [sp + 0x30]\n 51824: ra = 610, jump @0\n      : @672 [@dyn 305] (gas: 108)\n 51831: a1 = u8 [a0 + 0x1]\n 51834: a2 = u8 [a0]\n 51836: a3 = u8 [a0 + 0x2]\n 51839: a4 = u8 [a0 + 0x3]\n 51842: a1 = a1 << 0x8\n 51845: a1 = a1 | a2\n 51848: a3 = a3 << 0x10\n 51851: a4 = a4 << 0x18\n 51854: a3 = a3 | a4\n 51857: a1 = a1 | a3\n 51860: a2 = u8 [a0 + 0x5]\n 51863: a3 = u8 [a0 + 0x4]\n 51866: a4 = u8 [a0 + 0x6]\n 51869: a5 = u8 [a0 + 0x7]\n 51872: a2 = a2 << 0x8\n 51875: a2 = a2 | a3\n 51878: a4 = a4 << 0x10\n 51881: a5 = a5 << 0x18\n 51884: a4 = a4 | a5\n 51887: a2 = a2 | a4\n 51890: a2 = a2 << 0x20\n 51893: t0 = a2 | a1\n 51896: a2 = u8 [a0 + 0x9]\n 51899: a3 = u8 [a0 + 0x8]\n 51902: a4 = u8 [a0 + 0xa]\n 51905: a5 = u8 [a0 + 0xb]\n 51908: a2 = a2 << 0x8\n 51911: a2 = a2 | a3\n 51914: a4 = a4 << 0x10\n 51917: a5 = a5 << 0x18\n 51920: a4 = a4 | a5\n 51923: a2 = a2 | a4\n 51926: a3 = u8 [a0 + 0xd]\n 51929: a4 = u8 [a0 + 0xc]\n 51932: a5 = u8 [a0 + 0xe]\n 51935: a1 = u8 [a0 + 0xf]\n 51938: a3 = a3 << 0x8\n 51941: a3 = a3 | a4\n 51944: a5 = a5 << 0x10\n 51947: a1 = a1 << 0x18\n 51950: a1 = a1 | a5\n 51953: a1 = a1 | a3\n 51956: a1 = a1 << 0x20\n 51959: a2 = a2 | a1\n 51962: a1 = u8 [a0 + 0x11]\n 51965: a3 = u8 [a0 + 0x10]\n 51968: a4 = u8 [a0 + 0x12]\n 51971: a5 = u8 [a0 + 0x13]\n 51974: a1 = a1 << 0x8\n 51977: a1 = a1 | a3\n 51980: a4 = a4 << 0x10\n 51983: a5 = a5 << 0x18\n 51986: a4 = a4 | a5\n 51989: a1 = a1 | a4\n 51992: a3 = u8 [a0 + 0x15]\n 51995: a4 = u8 [a0 + 0x14]\n 51998: a5 = u8 [a0 + 0x16]\n 52001: s1 = u8 [a0 + 0x17]\n 52004: a3 = a3 << 0x8\n 52007: a3 = a3 | a4\n 52010: a5 = a5 << 0x10\n 52013: s1 = s1 << 0x18\n 52016: a5 = a5 | s1\n 52019: a3 = a3 | a5\n 52022: a3 = a3 << 0x20\n 52025: a3 = a3 | a1\n 52028: a1 = u8 [a0 + 0x19]\n 52031: a4 = u8 [a0 + 0x18]\n 52034: a5 = u8 [a0 + 0x1a]\n 52037: s1 = u8 [a0 + 0x1b]\n 52040: a1 = a1 << 0x8\n 52043: a1 = a1 | a4\n 52046: a5 = a5 << 0x10\n 52049: s1 = s1 << 0x18\n 52052: a5 = a5 | s1\n 52055: a1 = a1 | a5\n 52058: a4 = u8 [a0 + 0x1d]\n 52061: a5 = u8 [a0 + 0x1c]\n 52064: s1 = u8 [a0 + 0x1e]\n 52067: a0 = u8 [a0 + 0x1f]\n 52070: a4 = a4 << 0x8\n 52073: a4 = a4 | a5\n 52076: s1 = s1 << 0x10\n 52079: a0 = a0 << 0x18\n 52082: a0 = a0 | s1\n 52085: a0 = a0 | a4\n 52088: a0 = a0 << 0x20\n 52091: a0 = a0 | a1\n 52094: a0 = reverse a0\n 52096: s1 = reverse a3\n 52098: a2 = reverse a2\n 52100: a3 = reverse t0\n 52102: a5 = u64 [sp + 0x1c8]\n 52106: a4 = a3 ^ a5\n 52109: a3 = a5 <u a3\n 52112: a1 = u64 [sp + 0x1c0]\n 52116: a5 = a1 <u a2\n 52119: a5 = a3 if a4 != 0\n 52122: a3 = u64 [sp + 0x1d0]\n 52126: t0 = s1 ^ a3\n 52129: a3 = a3 <u s1\n 52132: s1 = u64 [sp + 0x1d8]\n 52136: a0 = s1 <u a0\n 52139: a0 = a3 if t0 != 0\n 52142: a1 = a1 ^ a2\n 52145: a1 = a1 | a4\n 52148: a0 = a5 if a1 != 0\n 52151: jump @680 if a0 == 0\n      : @673 (gas: 31)\n 52155: a1 = u64 [sp + 0x50]\n 52158: a0 = u64 [sp + 0x1a0]\n 52162: a0 = a0 + a1\n 52165: a1 = a0 <u a1\n 52168: a4 = u64 [sp + 0x48]\n 52171: a2 = u64 [sp + 0x1a8]\n 52175: a2 = a2 + a4\n 52178: a2 = a2 + a1\n 52181: a3 = a2 ^ a4\n 52184: a4 = a2 <u a4\n 52187: a4 = a1 if a3 == 0\n 52190: a5 = u64 [sp + 0x40]\n 52193: a1 = u64 [sp + 0x1b0]\n 52197: a1 = a1 + a5\n 52200: a4 = a4 + a1\n 52203: a3 = a4 <u a1\n 52206: a1 = a1 <u a5\n 52209: a5 = u64 [sp + 0x38]\n 52212: s1 = u64 [sp + 0x1b8]\n 52216: a5 = a5 + s1\n 52219: a1 = a1 + a5\n 52222: a1 = a1 + a3\n 52225: a3 = a0 | a4\n 52228: a1 = a1 | a2\n 52231: a3 = a3 | a1\n 52234: a3 = a3 >> 0x20\n 52237: a1 = a1 | a4\n 52240: a1 = a1 << 0x20\n 52243: a1 = a1 | a3\n 52246: s1 = u64 [sp + 0x98]\n 52250: jump @677 if a1 != 0\n      : @674 (gas: 3)\n 52254: i32 a0 = a0 + 0\n 52256: a1 = 0x20\n 52259: ra = 612, jump @0\n      : @675 [@dyn 306] (gas: 73)\n 52266: a1 = u64 [sp + 0x188]\n 52270: a1 = reverse a1\n 52272: a2 = u64 [sp + 0x190]\n 52276: a2 = reverse a2\n 52278: a3 = u64 [sp + 0x198]\n 52282: a3 = reverse a3\n 52284: a4 = a3 >> 0x38\n 52287: u8 [a0 + 0x1f] = a4\n 52290: a4 = a3 >> 0x30\n 52293: u8 [a0 + 0x1e] = a4\n 52296: a4 = a3 >> 0x28\n 52299: u8 [a0 + 0x1d] = a4\n 52302: a4 = a3 >> 0x20\n 52305: u8 [a0 + 0x1c] = a4\n 52308: a4 = a3 >> 0x18\n 52311: u8 [a0 + 0x1b] = a4\n 52314: a4 = a3 >> 0x10\n 52317: u8 [a0 + 0x1a] = a4\n 52320: a4 = a3 >> 0x8\n 52323: u8 [a0 + 0x19] = a4\n 52326: u8 [a0 + 0x18] = a3\n 52329: u8 [a0 + 0x10] = a2\n 52332: u8 [a0 + 11] = 0\n 52335: u8 [a0 + 10] = 0\n 52338: u8 [a0 + 9] = 0\n 52341: u8 [a0 + 7] = 0\n 52344: u8 [a0 + 6] = 0\n 52347: u8 [a0 + 5] = 0\n 52350: u8 [a0 + 4] = 0\n 52353: u8 [a0 + 3] = 0\n 52356: u8 [a0 + 2] = 0\n 52359: u8 [a0 + 1] = 0\n 52362: u8 [a0 + 0] = 0\n 52364: a3 = a2 >> 0x38\n 52367: u8 [a0 + 0x17] = a3\n 52370: a3 = a2 >> 0x30\n 52373: u8 [a0 + 0x16] = a3\n 52376: a3 = a2 >> 0x28\n 52379: u8 [a0 + 0x15] = a3\n 52382: a3 = a2 >> 0x20\n 52385: u8 [a0 + 0x14] = a3\n 52388: a3 = a2 >> 0x18\n 52391: u8 [a0 + 0x13] = a3\n 52394: a3 = a2 >> 0x10\n 52397: u8 [a0 + 0x12] = a3\n 52400: a2 = a2 >> 0x8\n 52403: u8 [a0 + 0x11] = a2\n 52406: u8 [a0 + 0x8] = a1\n 52409: a2 = a1 >> 0x38\n 52412: u8 [a0 + 0xf] = a2\n 52415: a2 = a1 >> 0x30\n 52418: u8 [a0 + 0xe] = a2\n 52421: a2 = a1 >> 0x28\n 52424: u8 [a0 + 0xd] = a2\n 52427: a1 = a1 >> 0x20\n 52430: u8 [a0 + 0xc] = a1\n 52433: a1 = u64 [sp + 0x1d8]\n 52437: a1 = a1 + 0x1\n 52440: a0 = a1 <u 0x1\n 52443: a2 = u64 [sp + 0x1d0]\n 52447: a2 = a2 + a0\n 52450: u64 [sp + 0x1d8] = a1\n 52454: u64 [sp + 0x1d0] = a2\n 52458: a0 = a1 | a2\n 52461: a0 = a0 <u 0x1\n 52464: a1 = u64 [sp + 0x1c0]\n 52468: a0 = a0 + a1\n 52471: a1 = a0 <u a1\n 52474: a2 = u64 [sp + 0x1c8]\n 52478: a2 = a2 + a1\n 52481: u64 [sp + 0x1c8] = a2\n 52485: u64 [sp + 0x1c0] = a0\n 52489: jump @660\n      : @676 (gas: 23)\n 52492: a0 = u64 [sp + 0x8]\n 52495: a1 = u64 [sp + 0x88]\n 52499: u64 [a0 + 0x20] = a1\n 52502: a1 = u64 [sp + 0x10]\n 52505: u64 [a0] = a1\n 52507: a1 = u64 [sp + 0x90]\n 52511: u64 [a0 + 0x28] = a1\n 52514: a1 = u64 [sp + 0x18]\n 52517: u64 [a0 + 0x8] = a1\n 52520: a1 = u64 [sp + 0x78]\n 52523: u64 [a0 + 0x30] = a1\n 52526: a1 = u64 [sp + 0x20]\n 52529: u64 [a0 + 0x10] = a1\n 52532: a1 = u64 [sp + 0x80]\n 52536: u64 [a0 + 0x38] = a1\n 52539: a1 = u64 [sp + 0x28]\n 52542: u64 [a0 + 0x18] = a1\n 52545: sp = s0 + 0xfffffffffffffcc0\n 52549: ra = u64 [sp + 0x338]\n 52553: s0 = u64 [sp + 0x330]\n 52557: s1 = u64 [sp + 0x328]\n 52561: sp = sp + 0x340\n 52565: ret\n      : @677 (gas: 1)\n 52567: trap\n      : @678 (gas: 8)\n 52568: u64 [sp + 592] = 0\n 52572: u64 [sp + 584] = 0\n 52576: u64 [sp + 576] = 0\n 52580: a0 = 0x4e487b7100000000\n 52590: a1 = sp + 0x240\n 52594: u64 [sp + 0x258] = a0\n 52598: a0 = 0\n 52600: ra = 614, jump @8\n      : @679 [@dyn 307] (gas: 8)\n 52607: u64 [sp + 568] = 0\n 52611: u64 [sp + 560] = 0\n 52615: u64 [sp + 544] = 0x32\n 52620: a0 = 0x4\n 52623: a1 = sp + 0x220\n 52627: u64 [sp + 552] = 0\n 52631: ra = 0x26a\n 52635: jump @8\n      : @680 (gas: 8)\n 52639: u64 [sp + 528] = 0\n 52643: u64 [sp + 520] = 0\n 52647: u64 [sp + 512] = 0\n 52651: a0 = 0x4e487b7100000000\n 52661: a1 = sp + 0x200\n 52665: u64 [sp + 0x218] = a0\n 52669: a0 = 0\n 52671: ra = 616, jump @8\n      : @681 [@dyn 308] (gas: 7)\n 52678: u64 [sp + 504] = 0\n 52682: u64 [sp + 496] = 0\n 52686: u64 [sp + 480] = 0x32\n 52691: a0 = 0x4\n 52694: a1 = sp + 0x1e0\n 52698: u64 [sp + 488] = 0\n 52702: ra = 618, jump @8\n      : @682 [@dyn 309] (gas: 3)\n 52709: a1 = 0x24\n 52712: a0 = 0\n 52714: ra = 620, jump @0\n      : @683 [@dyn 310] (gas: 6)\n 52721: i32 a1 = a0 + 0\n 52723: a0 = 0x1\n 52726: a2 = 0x24\n 52729: ra = 0x26e\n 52733: ecalli 14 // 'seal_return'\n 52735: fallthrough\n      : @684 [@dyn 311] (gas: 45)\n 52736: sp = sp + 0xffffffffffffff90\n 52739: u64 [sp + 0x68] = ra\n 52742: u64 [sp + 0x60] = s0\n 52745: u64 [sp + 0x58] = s1\n 52748: s0 = sp + 0x70\n 52751: sp = sp & 0xfffffffffffffff0\n 52754: a3 = u64 [a1 + 0x18]\n 52757: u64 [sp + 0x8] = a3\n 52760: a4 = u64 [a2 + 0x18]\n 52763: t2 = u64 [a1]\n 52765: u64 [sp] = t2\n 52767: a3 = u64 [a1 + 0x8]\n 52770: s1 = u64 [a2 + 0x8]\n 52773: a5 = u64 [a2]\n 52775: t1 = u64 [a1 + 0x10]\n 52778: t0 = u64 [a2 + 0x10]\n 52781: a2 = s1 + a3\n 52784: t2 = t2 + a5\n 52787: a5 = t2 <u a5\n 52790: a2 = a2 + a5\n 52793: ra = a2 ^ s1\n 52796: s1 = a2 <u s1\n 52799: s1 = a5 if ra == 0\n 52802: a1 = t0 + t1\n 52805: a5 = u64 [sp + 0x8]\n 52808: a5 = a5 + a4\n 52811: a4 = a1 <u t0\n 52814: a4 = a4 + a5\n 52817: a5 = a1 + s1\n 52820: a1 = a5 <u a1\n 52823: ra = a4 + a1\n 52826: a4 = a2 ^ a3\n 52829: a3 = a2 <u a3\n 52832: a1 = u64 [sp]\n 52834: s1 = t2 <u a1\n 52837: s1 = a3 if a4 != 0\n 52840: t0 = a5 <u t1\n 52843: a1 = u64 [sp + 0x8]\n 52846: a4 = ra ^ a1\n 52849: a3 = ra <u a1\n 52852: a3 = t0 if a4 == 0\n 52855: a1 = a5 ^ t1\n 52858: a1 = a1 | a4\n 52861: s1 = a3 if a1 != 0\n 52864: jump @686 if s1 != 0\n      : @685 (gas: 10)\n 52867: u64 [a0] = t2\n 52869: u64 [a0 + 0x8] = a2\n 52872: u64 [a0 + 0x10] = a5\n 52875: u64 [a0 + 0x18] = ra\n 52878: sp = s0 + 0xffffffffffffff90\n 52881: ra = u64 [sp + 0x68]\n 52884: s0 = u64 [sp + 0x60]\n 52887: s1 = u64 [sp + 0x58]\n 52890: sp = sp + 0x70\n 52893: ret\n      : @686 (gas: 8)\n 52895: u64 [sp + 64] = 0\n 52898: u64 [sp + 56] = 0\n 52901: u64 [sp + 48] = 0\n 52904: a0 = 0x4e487b7100000000\n 52914: a1 = sp + 0x30\n 52917: u64 [sp + 0x48] = a0\n 52920: a0 = 0\n 52922: ra = 624, jump @8\n      : @687 [@dyn 312] (gas: 7)\n 52929: u64 [sp + 40] = 0\n 52932: u64 [sp + 32] = 0\n 52935: u64 [sp + 16] = 0x11\n 52939: a0 = 0x4\n 52942: a1 = sp + 0x10\n 52945: u64 [sp + 24] = 0\n 52948: ra = 626, jump @8\n      : @688 [@dyn 313] (gas: 3)\n 52955: a1 = 0x24\n 52958: a0 = 0\n 52960: ra = 628, jump @0\n      : @689 [@dyn 314] (gas: 6)\n 52967: i32 a1 = a0 + 0\n 52969: a0 = 0x1\n 52972: a2 = 0x24\n 52975: ra = 0x276\n 52979: ecalli 14 // 'seal_return'\n 52981: fallthrough\n      : @690 [@dyn 315] (gas: 18)\n 52982: sp = sp + 0xfffffffffffffc60\n 52986: u64 [sp + 0x398] = ra\n 52990: u64 [sp + 0x390] = s0\n 52994: u64 [sp + 0x388] = s1\n 52998: s0 = sp + 0x3a0\n 53002: sp = sp & 0xffffffffffffffe0\n 53005: s1 = sp\n 53007: a1 = u64 [a0]\n 53009: u64 [s1 + 0x158] = a1\n 53013: a1 = u64 [a0 + 0x8]\n 53016: u64 [s1 + 0x150] = a1\n 53020: a1 = u64 [a0 + 0x10]\n 53023: u64 [s1 + 0x148] = a1\n 53027: a0 = u64 [a0 + 0x18]\n 53030: u64 [s1 + 0x140] = a0\n 53034: a1 = 0x20\n 53037: a0 = 0\n 53039: ra = 632, jump @0\n      : @691 [@dyn 316] (gas: 103)\n 53046: a1 = u64 [s1 + 0x140]\n 53050: a1 = reverse a1\n 53052: a2 = u64 [s1 + 0x148]\n 53056: a2 = reverse a2\n 53058: a3 = u64 [s1 + 0x150]\n 53062: a3 = reverse a3\n 53064: a4 = u64 [s1 + 0x158]\n 53068: a4 = reverse a4\n 53070: u8 [a0 + 0x18] = a4\n 53073: u8 [a0 + 0x10] = a3\n 53076: u8 [a0 + 0x8] = a2\n 53079: u8 [a0] = a1\n 53081: a5 = a4 >> 0x38\n 53084: u64 [s1 + 0x130] = a5\n 53088: u8 [a0 + 0x1f] = a5\n 53091: a5 = a4 >> 0x30\n 53094: u64 [s1 + 0x128] = a5\n 53098: u8 [a0 + 0x1e] = a5\n 53101: a5 = a4 >> 0x28\n 53104: u64 [s1 + 0x120] = a5\n 53108: u8 [a0 + 0x1d] = a5\n 53111: a5 = a4 >> 0x20\n 53114: u64 [s1 + 0x118] = a5\n 53118: u8 [a0 + 0x1c] = a5\n 53121: a5 = a4 >> 0x18\n 53124: u64 [s1 + 0x110] = a5\n 53128: u8 [a0 + 0x1b] = a5\n 53131: a5 = a4 >> 0x10\n 53134: u64 [s1 + 0x108] = a5\n 53138: u8 [a0 + 0x1a] = a5\n 53141: u64 [s1 + 0x138] = a4\n 53145: a4 = a4 >> 0x8\n 53148: u64 [s1 + 0x100] = a4\n 53152: u8 [a0 + 0x19] = a4\n 53155: a4 = a3 >> 0x38\n 53158: u64 [s1 + 0xf8] = a4\n 53162: u8 [a0 + 0x17] = a4\n 53165: a4 = a3 >> 0x30\n 53168: u64 [s1 + 0xf0] = a4\n 53172: u8 [a0 + 0x16] = a4\n 53175: a4 = a3 >> 0x28\n 53178: u64 [s1 + 0xe8] = a4\n 53182: u8 [a0 + 0x15] = a4\n 53185: a4 = a3 >> 0x20\n 53188: u64 [s1 + 0xe0] = a4\n 53192: u8 [a0 + 0x14] = a4\n 53195: a4 = a3 >> 0x18\n 53198: u64 [s1 + 0xd8] = a4\n 53202: u8 [a0 + 0x13] = a4\n 53205: a4 = a3 >> 0x10\n 53208: u64 [s1 + 0xd0] = a4\n 53212: u8 [a0 + 0x12] = a4\n 53215: u64 [s1 + 0x140] = a3\n 53219: a3 = a3 >> 0x8\n 53222: u64 [s1 + 0xc8] = a3\n 53226: u8 [a0 + 0x11] = a3\n 53229: a3 = a2 >> 0x38\n 53232: u64 [s1 + 0xc0] = a3\n 53236: u8 [a0 + 0xf] = a3\n 53239: a3 = a2 >> 0x30\n 53242: u64 [s1 + 0xb8] = a3\n 53246: u8 [a0 + 0xe] = a3\n 53249: a3 = a2 >> 0x28\n 53252: u64 [s1 + 0xb0] = a3\n 53256: u8 [a0 + 0xd] = a3\n 53259: a3 = a2 >> 0x20\n 53262: u64 [s1 + 0xa8] = a3\n 53266: u8 [a0 + 0xc] = a3\n 53269: a3 = a2 >> 0x18\n 53272: u64 [s1 + 0xa0] = a3\n 53276: u8 [a0 + 0xb] = a3\n 53279: a3 = a2 >> 0x10\n 53282: u64 [s1 + 0x98] = a3\n 53286: u8 [a0 + 0xa] = a3\n 53289: u64 [s1 + 0x148] = a2\n 53293: a2 = a2 >> 0x8\n 53296: u64 [s1 + 0x90] = a2\n 53300: u8 [a0 + 0x9] = a2\n 53303: a2 = a1 >> 0x38\n 53306: u64 [s1 + 0x88] = a2\n 53310: u8 [a0 + 0x7] = a2\n 53313: a2 = a1 >> 0x30\n 53316: u64 [s1 + 0x80] = a2\n 53320: u8 [a0 + 0x6] = a2\n 53323: a2 = a1 >> 0x28\n 53326: u64 [s1 + 0x78] = a2\n 53329: u8 [a0 + 0x5] = a2\n 53332: a2 = a1 >> 0x20\n 53335: u64 [s1 + 0x70] = a2\n 53338: u8 [a0 + 0x4] = a2\n 53341: a2 = a1 >> 0x18\n 53344: u64 [s1 + 0x68] = a2\n 53347: u8 [a0 + 0x3] = a2\n 53350: a2 = a1 >> 0x10\n 53353: u64 [s1 + 0x60] = a2\n 53356: u8 [a0 + 0x2] = a2\n 53359: u64 [s1 + 0x150] = a1\n 53363: a1 = a1 >> 0x8\n 53366: u64 [s1 + 0x58] = a1\n 53369: u8 [a0 + 0x1] = a1\n 53372: a0 = 0x20\n 53375: a1 = 0x20\n 53378: ra = 634, jump @0\n      : @692 [@dyn 317] (gas: 35)\n 53385: u8 [a0 + 31] = 0\n 53388: u8 [a0 + 30] = 0\n 53391: u8 [a0 + 29] = 0\n 53394: u8 [a0 + 28] = 0\n 53397: u8 [a0 + 27] = 0\n 53400: u8 [a0 + 26] = 0\n 53403: u8 [a0 + 25] = 0\n 53406: u8 [a0 + 24] = 0\n 53409: u8 [a0 + 23] = 0\n 53412: u8 [a0 + 22] = 0\n 53415: u8 [a0 + 21] = 0\n 53418: u8 [a0 + 20] = 0\n 53421: u8 [a0 + 19] = 0\n 53424: u8 [a0 + 18] = 0\n 53427: u8 [a0 + 17] = 0\n 53430: u8 [a0 + 16] = 0\n 53433: u8 [a0 + 15] = 0\n 53436: u8 [a0 + 14] = 0\n 53439: u8 [a0 + 13] = 0\n 53442: u8 [a0 + 12] = 0\n 53445: u8 [a0 + 11] = 0\n 53448: u8 [a0 + 10] = 0\n 53451: u8 [a0 + 9] = 0\n 53454: u8 [a0 + 8] = 0\n 53457: u8 [a0 + 7] = 0\n 53460: u8 [a0 + 6] = 0\n 53463: u8 [a0 + 5] = 0\n 53466: u8 [a0 + 4] = 0\n 53469: u8 [a0 + 3] = 0\n 53472: u8 [a0 + 2] = 0\n 53475: u8 [a0 + 1] = 0\n 53478: u8 [a0 + 0] = 0\n 53480: a1 = 0x40\n 53483: a0 = 0\n 53485: ra = 636, jump @0\n      : @693 [@dyn 318] (gas: 28)\n 53492: i32 a0 = a0 + 0\n 53494: i32 a2 = s1 + 0x340\n 53498: a1 = 0x40\n 53501: ecalli 9 // 'hash_keccak_256'\n 53503: a0 = u64 [s1 + 0x358]\n 53507: a1 = u64 [s1 + 0x350]\n 53511: a2 = u64 [s1 + 0x348]\n 53515: a3 = u64 [s1 + 0x340]\n 53519: a0 = reverse a0\n 53521: a1 = reverse a1\n 53523: a2 = reverse a2\n 53525: a3 = reverse a3\n 53527: u64 [s1 + 0x318] = a3\n 53531: u64 [s1 + 0x310] = a2\n 53535: u64 [s1 + 0x308] = a1\n 53539: u64 [s1 + 0x300] = a0\n 53543: u64 [s1 + 856] = 0\n 53547: u64 [s1 + 848] = 0\n 53551: u64 [s1 + 840] = 0\n 53555: u64 [s1 + 832] = 0\n 53559: u32 [s1 + 800] = 0x20\n 53564: i32 a1 = s1 + 0x300\n 53568: i32 a3 = s1 + 0x340\n 53572: i32 a4 = s1 + 0x320\n 53576: a2 = 0xffffffffffffffff\n 53579: a0 = 0\n 53581: ecalli 8 // 'get_storage'\n 53583: fallthrough\n      : @694 (gas: 11)\n 53584: a0 = u64 [s1 + 0x350]\n 53588: a2 = u64 [s1 + 0x348]\n 53592: a1 = u64 [s1 + 0x340]\n 53596: u64 [s1 + 0x48] = a0\n 53599: a0 = a0 << 0x20\n 53602: a0 = a0 >> 0x20\n 53605: u64 [s1 + 0x50] = a1\n 53608: u64 [s1 + 0x40] = a2\n 53611: a1 = a1 | a2\n 53614: a0 = a0 | a1\n 53617: jump @729 if a0 == 0\n      : @695 (gas: 11)\n 53621: i32 a0 = s1 + 0x260\n 53625: ecalli 5 // 'caller'\n 53627: a0 = u32 [s1 + 0x270]\n 53631: u64 [s1 + 0x38] = a0\n 53634: a0 = u64 [s1 + 0x268]\n 53638: u64 [s1 + 0x30] = a0\n 53641: a0 = u64 [s1 + 0x260]\n 53645: u64 [s1 + 0x28] = a0\n 53648: a0 = 0x40\n 53651: a1 = 0x20\n 53654: ra = 638, jump @0\n      : @696 [@dyn 319] (gas: 103)\n 53661: a1 = u8 [a0 + 0x11]\n 53664: a2 = u8 [a0 + 0x10]\n 53667: a3 = u8 [a0 + 0x12]\n 53670: a4 = u8 [a0 + 0x13]\n 53673: a1 = a1 << 0x8\n 53676: a1 = a1 | a2\n 53679: a3 = a3 << 0x10\n 53682: a4 = a4 << 0x18\n 53685: a3 = a3 | a4\n 53688: a1 = a1 | a3\n 53691: a2 = u8 [a0 + 0x15]\n 53694: a3 = u8 [a0 + 0x14]\n 53697: a4 = u8 [a0 + 0x16]\n 53700: a5 = u8 [a0 + 0x17]\n 53703: a2 = a2 << 0x8\n 53706: a2 = a2 | a3\n 53709: a4 = a4 << 0x10\n 53712: a5 = a5 << 0x18\n 53715: a4 = a4 | a5\n 53718: a2 = a2 | a4\n 53721: a2 = a2 << 0x20\n 53724: t0 = a2 | a1\n 53727: a2 = u8 [a0 + 0x1]\n 53730: a3 = u8 [a0]\n 53732: a4 = u8 [a0 + 0x2]\n 53735: a5 = u8 [a0 + 0x3]\n 53738: a2 = a2 << 0x8\n 53741: a2 = a2 | a3\n 53744: a4 = a4 << 0x10\n 53747: a5 = a5 << 0x18\n 53750: a4 = a4 | a5\n 53753: a2 = a2 | a4\n 53756: a3 = u8 [a0 + 0x5]\n 53759: a4 = u8 [a0 + 0x4]\n 53762: a5 = u8 [a0 + 0x6]\n 53765: a1 = u8 [a0 + 0x7]\n 53768: a3 = a3 << 0x8\n 53771: a3 = a3 | a4\n 53774: a5 = a5 << 0x10\n 53777: a1 = a1 << 0x18\n 53780: a1 = a1 | a5\n 53783: a1 = a1 | a3\n 53786: a1 = a1 << 0x20\n 53789: t1 = a1 | a2\n 53792: a1 = u8 [a0 + 0x19]\n 53795: a3 = u8 [a0 + 0x18]\n 53798: a4 = u8 [a0 + 0x1a]\n 53801: a5 = u8 [a0 + 0x1b]\n 53804: a1 = a1 << 0x8\n 53807: a1 = a1 | a3\n 53810: a4 = a4 << 0x10\n 53813: a5 = a5 << 0x18\n 53816: a4 = a4 | a5\n 53819: a1 = a1 | a4\n 53822: a3 = u8 [a0 + 0x1d]\n 53825: a4 = u8 [a0 + 0x1c]\n 53828: a5 = u8 [a0 + 0x1e]\n 53831: a2 = u8 [a0 + 0x1f]\n 53834: a3 = a3 << 0x8\n 53837: a3 = a3 | a4\n 53840: a5 = a5 << 0x10\n 53843: a2 = a2 << 0x18\n 53846: a2 = a2 | a5\n 53849: a2 = a2 | a3\n 53852: a2 = a2 << 0x20\n 53855: a3 = a2 | a1\n 53858: a1 = u8 [a0 + 0x9]\n 53861: a2 = u8 [a0 + 0x8]\n 53864: a4 = u8 [a0 + 0xa]\n 53867: a5 = u8 [a0 + 0xb]\n 53870: a1 = a1 << 0x8\n 53873: a1 = a1 | a2\n 53876: a4 = a4 << 0x10\n 53879: a5 = a5 << 0x18\n 53882: a4 = a4 | a5\n 53885: a1 = a1 | a4\n 53888: a2 = u8 [a0 + 0xd]\n 53891: a4 = u8 [a0 + 0xc]\n 53894: a5 = u8 [a0 + 0xe]\n 53897: a0 = u8 [a0 + 0xf]\n 53900: a2 = a2 << 0x8\n 53903: a2 = a2 | a4\n 53906: a5 = a5 << 0x10\n 53909: a0 = a0 << 0x18\n 53912: a0 = a0 | a5\n 53915: a0 = a0 | a2\n 53918: a0 = a0 << 0x20\n 53921: a0 = a0 | a1\n 53924: a2 = reverse a0\n 53926: a3 = reverse a3\n 53928: a0 = reverse t1\n 53930: a1 = reverse t0\n 53932: u64 [s1 + 0x18] = a0\n 53935: u64 [s1 + 0x10] = a1\n 53938: a0 = a0 | a1\n 53941: a1 = a3 | a2\n 53944: a1 = a1 | a0\n 53947: a1 = a1 >> 0x20\n 53950: u64 [s1 + 0x20] = a2\n 53953: a0 = a0 | a2\n 53956: a0 = a0 << 0x20\n 53959: a0 = a0 | a1\n 53962: jump @698 if a0 == 0\n      : @697 (gas: 1)\n 53965: jump @741\n      : @698 (gas: 5)\n 53968: u64 [s1 + 0x8] = a3\n 53971: i32 a0 = a3 + 0\n 53973: u64 [s1 + 0x158] = a0\n 53977: a1 = 0x20\n 53980: ra = 640, jump @0\n      : @699 [@dyn 320] (gas: 56)\n 53987: u8 [a0 + 31] = 0\n 53990: u8 [a0 + 30] = 0\n 53993: u8 [a0 + 29] = 0\n 53996: u8 [a0 + 28] = 0\n 53999: u8 [a0 + 27] = 0\n 54002: u8 [a0 + 26] = 0\n 54005: u8 [a0 + 25] = 0\n 54008: u8 [a0 + 24] = 0\n 54011: u8 [a0 + 23] = 0\n 54014: u8 [a0 + 22] = 0\n 54017: u8 [a0 + 21] = 0\n 54020: u8 [a0 + 20] = 0\n 54023: u8 [a0 + 19] = 0\n 54026: u8 [a0 + 18] = 0\n 54029: u8 [a0 + 17] = 0\n 54032: u8 [a0 + 16] = 0\n 54035: u8 [a0 + 15] = 0\n 54038: u8 [a0 + 14] = 0\n 54041: u8 [a0 + 13] = 0\n 54044: u8 [a0 + 12] = 0\n 54047: u8 [a0 + 11] = 0\n 54050: u8 [a0 + 10] = 0\n 54053: u8 [a0 + 9] = 0\n 54056: u8 [a0 + 8] = 0\n 54059: u8 [a0 + 7] = 0\n 54062: u8 [a0 + 6] = 0\n 54065: u8 [a0 + 5] = 0\n 54068: u8 [a0 + 4] = 0\n 54071: u8 [a0 + 3] = 0x83\n 54076: u8 [a0 + 2] = 0x48\n 54080: u8 [a0 + 1] = 0x5d\n 54084: u8 [a0 + 0] = 0x8\n 54087: ecalli 11 // 'ref_time_left'\n 54089: a0 = u64 [s1 + 0x40]\n 54092: a0 = reverse a0\n 54094: a1 = a0 << 0x20\n 54097: a2 = u64 [s1 + 0x48]\n 54100: a2 = reverse a2\n 54102: a2 = a2 >> 0x20\n 54105: a1 = a1 | a2\n 54108: a2 = u64 [s1 + 0x50]\n 54111: a2 = reverse a2\n 54113: a3 = a2 << 0x20\n 54116: a0 = a0 >> 0x20\n 54119: a0 = a0 | a3\n 54122: a2 = a2 >> 0x20\n 54125: u64 [s1 + 0x288] = a0\n 54129: u64 [s1 + 0x280] = a1\n 54133: u32 [s1 + 0x290] = a2\n 54137: u64 [s1 + 696] = 0\n 54141: u64 [s1 + 688] = 0\n 54145: u64 [s1 + 680] = 0\n 54149: u64 [s1 + 672] = 0\n 54153: a1 = 0x4\n 54156: a0 = u64 [s1 + 0x158]\n 54160: ra = 642, jump @0\n      : @700 [@dyn 321] (gas: 4)\n 54167: u64 [s1 + 0x50] = a0\n 54170: a1 = 0x20\n 54173: a0 = u64 [s1 + 0x158]\n 54177: ra = 644, jump @0\n      : @701 [@dyn 322] (gas: 31)\n 54184: u32 [s1 + 704] = 0x20\n 54189: u64 [s1 + 760] = 0\n 54193: u64 [s1 + 752] = 0\n 54197: u64 [s1 + 744] = 0\n 54201: u64 [s1 + 736] = 0\n 54205: a1 = s1 + 0x280\n 54209: a1 = a1 << 0x20\n 54212: a1 = a1 >> 0x20\n 54215: a2 = 0x1800000000\n 54225: t0 = a1 | a2\n 54228: a1 = s1 + 0x2a0\n 54232: a1 = a1 << 0x20\n 54235: a1 = a1 >> 0x20\n 54238: a2 = s1 + 0x2e0\n 54242: a2 = a2 << 0x20\n 54245: a3 = a2 | a1\n 54248: a1 = u64 [s1 + 0x50]\n 54251: a1 = a1 << 0x20\n 54254: a1 = a1 >> 0x20\n 54257: a2 = 0x400000000\n 54267: a4 = a1 | a2\n 54270: a0 = a0 << 0x20\n 54273: a0 = a0 >> 0x20\n 54276: a1 = s1 + 0x2c0\n 54280: a1 = a1 << 0x20\n 54283: a5 = a1 | a0\n 54286: a1 = 0xffffffffffffffff\n 54289: a2 = 0xffffffffffffffff\n 54292: a0 = t0\n 54294: ecalli 1 // 'call'\n 54296: fallthrough\n      : @702 (gas: 1)\n 54297: jump @734 if a0 != 0\n      : @703 (gas: 2)\n 54301: ecalli 13 // 'return_data_size'\n 54303: fallthrough\n      : @704 (gas: 2)\n 54304: a1 = 0x20\n 54307: jump @706 if a0 >=u a1\n      : @705 (gas: 3)\n 54310: ecalli 13 // 'return_data_size'\n 54312: a1 = a0\n 54314: fallthrough\n      : @706 (gas: 28)\n 54315: a3 = u64 [s1 + 0x20]\n 54318: t0 = u64 [s1 + 0x18]\n 54321: a2 = u64 [s1 + 0x8]\n 54324: a5 = u64 [s1 + 0x10]\n 54327: a0 = a1 + 0x1f\n 54330: u64 [s1 + 0x48] = a1\n 54333: a1 = a0 <u a1\n 54336: u64 [s1 + 80] = 0\n 54339: a1 = a1 & 0x1\n 54342: a0 = a0 & 0xffffffffffffffe0\n 54345: a2 = a2 + a0\n 54348: u64 [s1 + 0x40] = a2\n 54351: a0 = a2 <u a0\n 54354: a2 = a1 + a5\n 54357: a4 = a2 + a0\n 54360: a2 = a4 ^ a1\n 54363: a1 = a4 <u a1\n 54366: a1 = a0 if a2 == 0\n 54369: a1 = a1 + a3\n 54372: a0 = a1 <u a3\n 54375: a0 = a0 + t0\n 54378: u64 [s1 + 0x18] = a1\n 54381: u64 [s1 + 0x10] = a0\n 54384: a0 = a0 | a1\n 54387: u64 [s1 + 0x20] = a4\n 54390: a1 = a4 <u 0x1\n 54393: a1 = 0 if a0 != 0\n 54395: jump @708 if a1 != 0\n      : @707 (gas: 1)\n 54398: jump @744\n      : @708 (gas: 3)\n 54401: a0 = 0x40\n 54404: a1 = 0x20\n 54407: ra = 646, jump @0\n      : @709 [@dyn 323] (gas: 80)\n 54414: a1 = u64 [s1 + 0x10]\n 54417: a1 = reverse a1\n 54419: a2 = u64 [s1 + 0x18]\n 54422: a2 = reverse a2\n 54424: a3 = u64 [s1 + 0x20]\n 54427: a3 = reverse a3\n 54429: a4 = u64 [s1 + 0x40]\n 54432: a4 = reverse a4\n 54434: u8 [a0 + 0x18] = a4\n 54437: a5 = a4 >> 0x38\n 54440: u8 [a0 + 0x1f] = a5\n 54443: a5 = a4 >> 0x30\n 54446: u8 [a0 + 0x1e] = a5\n 54449: a5 = a4 >> 0x28\n 54452: u8 [a0 + 0x1d] = a5\n 54455: a5 = a4 >> 0x20\n 54458: u8 [a0 + 0x1c] = a5\n 54461: a5 = a4 >> 0x18\n 54464: u8 [a0 + 0x1b] = a5\n 54467: a5 = a4 >> 0x10\n 54470: u8 [a0 + 0x1a] = a5\n 54473: a4 = a4 >> 0x8\n 54476: u8 [a0 + 0x19] = a4\n 54479: u8 [a0 + 0x10] = a3\n 54482: a4 = a3 >> 0x38\n 54485: u8 [a0 + 0x17] = a4\n 54488: a4 = a3 >> 0x30\n 54491: u8 [a0 + 0x16] = a4\n 54494: a4 = a3 >> 0x28\n 54497: u8 [a0 + 0x15] = a4\n 54500: a4 = a3 >> 0x20\n 54503: u8 [a0 + 0x14] = a4\n 54506: a4 = a3 >> 0x18\n 54509: u8 [a0 + 0x13] = a4\n 54512: a4 = a3 >> 0x10\n 54515: u8 [a0 + 0x12] = a4\n 54518: a3 = a3 >> 0x8\n 54521: u8 [a0 + 0x11] = a3\n 54524: u8 [a0 + 0x8] = a2\n 54527: a3 = a2 >> 0x38\n 54530: u8 [a0 + 0xf] = a3\n 54533: a3 = a2 >> 0x30\n 54536: u8 [a0 + 0xe] = a3\n 54539: a3 = a2 >> 0x28\n 54542: u8 [a0 + 0xd] = a3\n 54545: a3 = a2 >> 0x20\n 54548: u8 [a0 + 0xc] = a3\n 54551: a3 = a2 >> 0x18\n 54554: u8 [a0 + 0xb] = a3\n 54557: a3 = a2 >> 0x10\n 54560: u8 [a0 + 0xa] = a3\n 54563: a2 = a2 >> 0x8\n 54566: u8 [a0 + 0x9] = a2\n 54569: u8 [a0] = a1\n 54571: a2 = a1 >> 0x38\n 54574: u8 [a0 + 0x7] = a2\n 54577: a2 = a1 >> 0x30\n 54580: u8 [a0 + 0x6] = a2\n 54583: a2 = a1 >> 0x28\n 54586: u8 [a0 + 0x5] = a2\n 54589: a2 = a1 >> 0x20\n 54592: u8 [a0 + 0x4] = a2\n 54595: a2 = a1 >> 0x18\n 54598: u8 [a0 + 0x3] = a2\n 54601: a2 = a1 >> 0x10\n 54604: u8 [a0 + 0x2] = a2\n 54607: a1 = a1 >> 0x8\n 54610: a5 = u64 [s1 + 0x50]\n 54613: a2 = a5 >u 0\n 54615: a3 = u64 [s1 + 0x48]\n 54618: a3 = a3 <u 0x20\n 54621: a3 = a3 ^ 0x1\n 54624: a3 = a2 if a5 != 0\n 54627: a2 = a5 >u 0\n 54629: a4 = a5 >u 0\n 54631: a4 = a2 if a5 == 0\n 54634: a2 = a5 | a5\n 54637: a4 = a3 if a2 == 0\n 54640: u8 [a0 + 0x1] = a1\n 54643: jump @711 if a4 != 0\n      : @710 (gas: 1)\n 54646: jump @742\n      : @711 (gas: 3)\n 54649: a1 = 0x20\n 54652: a0 = u64 [s1 + 0x158]\n 54656: ra = 648, jump @0\n      : @712 [@dyn 324] (gas: 54)\n 54663: a1 = u8 [a0 + 0x9]\n 54666: a2 = u8 [a0 + 0x8]\n 54669: a3 = u8 [a0 + 0xa]\n 54672: a4 = u8 [a0 + 0xb]\n 54675: a1 = a1 << 0x8\n 54678: a1 = a1 | a2\n 54681: a3 = a3 << 0x10\n 54684: a4 = a4 << 0x18\n 54687: a3 = a3 | a4\n 54690: a1 = a1 | a3\n 54693: a2 = u8 [a0 + 0xd]\n 54696: a3 = u8 [a0 + 0xc]\n 54699: a4 = u8 [a0 + 0xe]\n 54702: a5 = u8 [a0 + 0xf]\n 54705: a2 = a2 << 0x8\n 54708: a2 = a2 | a3\n 54711: a4 = a4 << 0x10\n 54714: a5 = a5 << 0x18\n 54717: a4 = a4 | a5\n 54720: a2 = a2 | a4\n 54723: a2 = a2 << 0x20\n 54726: t0 = a2 | a1\n 54729: a1 = u8 [a0 + 0x1]\n 54732: a3 = u8 [a0]\n 54734: a4 = u8 [a0 + 0x2]\n 54737: a5 = u8 [a0 + 0x3]\n 54740: a1 = a1 << 0x8\n 54743: a1 = a1 | a3\n 54746: a4 = a4 << 0x10\n 54749: a5 = a5 << 0x18\n 54752: a4 = a4 | a5\n 54755: a1 = a1 | a4\n 54758: a3 = u8 [a0 + 0x5]\n 54761: a4 = u8 [a0 + 0x4]\n 54764: a5 = u8 [a0 + 0x6]\n 54767: a2 = u8 [a0 + 0x7]\n 54770: a3 = a3 << 0x8\n 54773: a3 = a3 | a4\n 54776: a5 = a5 << 0x10\n 54779: a2 = a2 << 0x18\n 54782: a2 = a2 | a5\n 54785: a2 = a2 | a3\n 54788: a2 = a2 << 0x20\n 54791: a1 = a1 | a2\n 54794: t1 = reverse a1\n 54796: t0 = reverse t0\n 54798: a3 = 0x100000000\n 54808: a3 = t0 ^ a3\n 54811: a3 = a3 | t1\n 54814: a4 = t0 >> 0x20\n 54817: a4 = a4 <u 0x1\n 54820: a4 = 0 if t1 != 0\n 54822: a4 = 0 if a3 == 0\n 54824: jump @742 if a4 == 0\n      : @713 (gas: 66)\n 54828: a3 = u8 [a0 + 0x19]\n 54831: a4 = u8 [a0 + 0x18]\n 54834: a5 = u8 [a0 + 0x1a]\n 54837: a1 = u8 [a0 + 0x1b]\n 54840: a3 = a3 << 0x8\n 54843: a3 = a3 | a4\n 54846: a5 = a5 << 0x10\n 54849: a1 = a1 << 0x18\n 54852: a1 = a1 | a5\n 54855: a1 = a1 | a3\n 54858: a3 = u8 [a0 + 0x1d]\n 54861: a4 = u8 [a0 + 0x1c]\n 54864: a5 = u8 [a0 + 0x1e]\n 54867: a2 = u8 [a0 + 0x1f]\n 54870: a3 = a3 << 0x8\n 54873: a3 = a3 | a4\n 54876: a5 = a5 << 0x10\n 54879: a2 = a2 << 0x18\n 54882: a2 = a2 | a5\n 54885: a2 = a2 | a3\n 54888: a2 = a2 << 0x20\n 54891: a3 = a2 | a1\n 54894: a1 = u8 [a0 + 0x11]\n 54897: a2 = u8 [a0 + 0x10]\n 54900: a4 = u8 [a0 + 0x12]\n 54903: a5 = u8 [a0 + 0x13]\n 54906: a1 = a1 << 0x8\n 54909: a1 = a1 | a2\n 54912: a4 = a4 << 0x10\n 54915: a5 = a5 << 0x18\n 54918: a4 = a4 | a5\n 54921: a1 = a1 | a4\n 54924: a2 = u8 [a0 + 0x15]\n 54927: a4 = u8 [a0 + 0x14]\n 54930: a5 = u8 [a0 + 0x16]\n 54933: a0 = u8 [a0 + 0x17]\n 54936: a2 = a2 << 0x8\n 54939: a2 = a2 | a4\n 54942: a5 = a5 << 0x10\n 54945: a0 = a0 << 0x18\n 54948: a0 = a0 | a5\n 54951: a0 = a0 | a2\n 54954: a0 = a0 << 0x20\n 54957: a0 = a0 | a1\n 54960: a0 = reverse a0\n 54962: a1 = reverse a3\n 54964: a2 = u64 [s1 + 0x28]\n 54967: a2 = reverse a2\n 54969: a3 = a2 << 0x20\n 54972: a4 = u64 [s1 + 0x30]\n 54975: a4 = reverse a4\n 54977: a5 = a4 >> 0x20\n 54980: a3 = a3 | a5\n 54983: a4 = a4 << 0x20\n 54986: a5 = u64 [s1 + 0x38]\n 54989: a5 = reverse a5\n 54991: a5 = a5 >> 0x20\n 54994: a4 = a4 | a5\n 54997: a2 = a2 >> 0x20\n 55000: a2 = t0 ^ a2\n 55003: a1 = a1 ^ a4\n 55006: a1 = a1 | a2\n 55009: a0 = a0 ^ a3\n 55012: a0 = a0 | t1\n 55015: a0 = a0 | a1\n 55018: jump @735 if a0 != 0\n      : @714 (gas: 22)\n 55022: a0 = sp + 0xffffffffffffffe0\n 55025: a0 = a0 & 0xffffffffffffffe0\n 55028: u64 [s1 + 0x158] = a0\n 55032: sp = a0\n 55034: u64 [a0 + 24] = 0\n 55037: u64 [a0 + 16] = 0\n 55040: u64 [a0 + 8] = 0\n 55043: u64 [a0 + 0] = 0\n 55045: i32 a0 = a0 + 0\n 55047: ecalli 17 // 'value_transferred'\n 55049: a1 = u64 [s1 + 0x158]\n 55053: a0 = u64 [a1 + 0x18]\n 55056: u64 [s1 + 0x38] = a0\n 55059: a0 = u64 [a1 + 0x10]\n 55062: u64 [s1 + 0x30] = a0\n 55065: a0 = u64 [a1]\n 55067: u64 [s1 + 0x28] = a0\n 55070: a0 = u64 [a1 + 0x8]\n 55073: u64 [s1 + 0x20] = a0\n 55076: a1 = 0x20\n 55079: a0 = 0\n 55081: ra = 650, jump @0\n      : @715 [@dyn 325] (gas: 67)\n 55088: a1 = u64 [s1 + 0x130]\n 55092: u8 [a0 + 0x1f] = a1\n 55095: a1 = u64 [s1 + 0x128]\n 55099: u8 [a0 + 0x1e] = a1\n 55102: a1 = u64 [s1 + 0x120]\n 55106: u8 [a0 + 0x1d] = a1\n 55109: a1 = u64 [s1 + 0x118]\n 55113: u8 [a0 + 0x1c] = a1\n 55116: a1 = u64 [s1 + 0x110]\n 55120: u8 [a0 + 0x1b] = a1\n 55123: a1 = u64 [s1 + 0x108]\n 55127: u8 [a0 + 0x1a] = a1\n 55130: a1 = u64 [s1 + 0x100]\n 55134: u8 [a0 + 0x19] = a1\n 55137: a1 = u64 [s1 + 0x138]\n 55141: u8 [a0 + 0x18] = a1\n 55144: a1 = u64 [s1 + 0xf8]\n 55148: u8 [a0 + 0x17] = a1\n 55151: a1 = u64 [s1 + 0xf0]\n 55155: u8 [a0 + 0x16] = a1\n 55158: a1 = u64 [s1 + 0xe8]\n 55162: u8 [a0 + 0x15] = a1\n 55165: a1 = u64 [s1 + 0xe0]\n 55169: u8 [a0 + 0x14] = a1\n 55172: a1 = u64 [s1 + 0xd8]\n 55176: u8 [a0 + 0x13] = a1\n 55179: a1 = u64 [s1 + 0xd0]\n 55183: u8 [a0 + 0x12] = a1\n 55186: a1 = u64 [s1 + 0xc8]\n 55190: u8 [a0 + 0x11] = a1\n 55193: a1 = u64 [s1 + 0x140]\n 55197: u8 [a0 + 0x10] = a1\n 55200: a1 = u64 [s1 + 0xc0]\n 55204: u8 [a0 + 0xf] = a1\n 55207: a1 = u64 [s1 + 0xb8]\n 55211: u8 [a0 + 0xe] = a1\n 55214: a1 = u64 [s1 + 0xb0]\n 55218: u8 [a0 + 0xd] = a1\n 55221: a1 = u64 [s1 + 0xa8]\n 55225: u8 [a0 + 0xc] = a1\n 55228: a1 = u64 [s1 + 0xa0]\n 55232: u8 [a0 + 0xb] = a1\n 55235: a1 = u64 [s1 + 0x98]\n 55239: u8 [a0 + 0xa] = a1\n 55242: a1 = u64 [s1 + 0x90]\n 55246: u8 [a0 + 0x9] = a1\n 55249: a1 = u64 [s1 + 0x148]\n 55253: u8 [a0 + 0x8] = a1\n 55256: a1 = u64 [s1 + 0x88]\n 55260: u8 [a0 + 0x7] = a1\n 55263: a1 = u64 [s1 + 0x80]\n 55267: u8 [a0 + 0x6] = a1\n 55270: a1 = u64 [s1 + 0x78]\n 55273: u8 [a0 + 0x5] = a1\n 55276: a1 = u64 [s1 + 0x70]\n 55279: u8 [a0 + 0x4] = a1\n 55282: a1 = u64 [s1 + 0x68]\n 55285: u8 [a0 + 0x3] = a1\n 55288: a1 = u64 [s1 + 0x60]\n 55291: u8 [a0 + 0x2] = a1\n 55294: a1 = u64 [s1 + 0x58]\n 55297: u8 [a0 + 0x1] = a1\n 55300: a1 = u64 [s1 + 0x150]\n 55304: u8 [a0] = a1\n 55306: a0 = 0x20\n 55309: a1 = 0x20\n 55312: ra = 652, jump @0\n      : @716 [@dyn 326] (gas: 35)\n 55319: u8 [a0 + 31] = 0x2\n 55323: u8 [a0 + 30] = 0\n 55326: u8 [a0 + 29] = 0\n 55329: u8 [a0 + 28] = 0\n 55332: u8 [a0 + 27] = 0\n 55335: u8 [a0 + 26] = 0\n 55338: u8 [a0 + 25] = 0\n 55341: u8 [a0 + 24] = 0\n 55344: u8 [a0 + 23] = 0\n 55347: u8 [a0 + 22] = 0\n 55350: u8 [a0 + 21] = 0\n 55353: u8 [a0 + 20] = 0\n 55356: u8 [a0 + 19] = 0\n 55359: u8 [a0 + 18] = 0\n 55362: u8 [a0 + 17] = 0\n 55365: u8 [a0 + 16] = 0\n 55368: u8 [a0 + 15] = 0\n 55371: u8 [a0 + 14] = 0\n 55374: u8 [a0 + 13] = 0\n 55377: u8 [a0 + 12] = 0\n 55380: u8 [a0 + 11] = 0\n 55383: u8 [a0 + 10] = 0\n 55386: u8 [a0 + 9] = 0\n 55389: u8 [a0 + 8] = 0\n 55392: u8 [a0 + 7] = 0\n 55395: u8 [a0 + 6] = 0\n 55398: u8 [a0 + 5] = 0\n 55401: u8 [a0 + 4] = 0\n 55404: u8 [a0 + 3] = 0\n 55407: u8 [a0 + 2] = 0\n 55410: u8 [a0 + 1] = 0\n 55413: u8 [a0 + 0] = 0\n 55415: a1 = 0x40\n 55418: a0 = 0\n 55420: ra = 654, jump @0\n      : @717 [@dyn 327] (gas: 32)\n 55427: i32 a0 = a0 + 0\n 55429: i32 a2 = s1 + 0x340\n 55433: a1 = 0x40\n 55436: ecalli 9 // 'hash_keccak_256'\n 55438: a0 = u64 [s1 + 0x358]\n 55442: a1 = u64 [s1 + 0x350]\n 55446: a2 = u64 [s1 + 0x348]\n 55450: a3 = u64 [s1 + 0x340]\n 55454: a0 = reverse a0\n 55456: a1 = reverse a1\n 55458: a2 = reverse a2\n 55460: a3 = reverse a3\n 55462: u64 [s1 + 0x40] = a3\n 55465: u64 [s1 + 0x318] = a3\n 55469: u64 [s1 + 0x48] = a2\n 55472: u64 [s1 + 0x310] = a2\n 55476: u64 [s1 + 0x50] = a1\n 55479: u64 [s1 + 0x308] = a1\n 55483: u64 [s1 + 0x158] = a0\n 55487: u64 [s1 + 0x300] = a0\n 55491: u64 [s1 + 856] = 0\n 55495: u64 [s1 + 848] = 0\n 55499: u64 [s1 + 840] = 0\n 55503: u64 [s1 + 832] = 0\n 55507: u32 [s1 + 800] = 0x20\n 55512: i32 a1 = s1 + 0x300\n 55516: i32 a3 = s1 + 0x340\n 55520: i32 a4 = s1 + 0x320\n 55524: a2 = 0xffffffffffffffff\n 55527: a0 = 0\n 55529: ecalli 8 // 'get_storage'\n 55531: fallthrough\n      : @718 (gas: 39)\n 55532: a4 = u64 [s1 + 0x348]\n 55536: a2 = u64 [s1 + 0x340]\n 55540: t0 = u64 [s1 + 0x358]\n 55544: t2 = u64 [s1 + 0x350]\n 55548: a5 = u64 [s1 + 0x20]\n 55551: a5 = a5 + a4\n 55554: a1 = u64 [s1 + 0x28]\n 55557: a1 = a1 + a2\n 55560: u64 [s1 + 0x28] = a1\n 55563: a3 = a1 <u a2\n 55566: a5 = a5 + a3\n 55569: t1 = a5 ^ a4\n 55572: u64 [s1 + 0x20] = a5\n 55575: a4 = a5 <u a4\n 55578: a5 = u64 [s1 + 0x30]\n 55581: a5 = a5 + t2\n 55584: a1 = u64 [s1 + 0x38]\n 55587: a1 = a1 + t0\n 55590: a2 = a5 <u t2\n 55593: a1 = a1 + a2\n 55596: a2 = a3\n 55598: a2 = a4 if t1 != 0\n 55601: a0 = a5 + a2\n 55604: a2 = a0 <u a5\n 55607: a5 = a1 + a2\n 55610: a1 = a3 ^ 0x1\n 55613: a2 = a4 ^ 0x1\n 55616: a1 = a2 if t1 != 0\n 55619: a2 = a0 <u t2\n 55622: a3 = a5 ^ t0\n 55625: u64 [s1 + 0x30] = a5\n 55628: a4 = a5 <u t0\n 55631: a4 = a2 if a3 == 0\n 55634: u64 [s1 + 0x38] = a0\n 55637: a0 = a0 ^ t2\n 55640: a0 = a0 | a3\n 55643: a2 = a4 ^ 0x1\n 55646: a1 = a2 if a0 != 0\n 55649: jump @746 if a1 == 0\n      : @719 (gas: 63)\n 55653: a0 = u64 [s1 + 0x48]\n 55656: u64 [s1 + 0x310] = a0\n 55660: a0 = u64 [s1 + 0x50]\n 55663: u64 [s1 + 0x308] = a0\n 55667: a0 = u64 [s1 + 0x158]\n 55671: u64 [s1 + 0x300] = a0\n 55675: a0 = u64 [s1 + 0x40]\n 55678: u64 [s1 + 0x318] = a0\n 55682: u64 [s1 + 856] = 0\n 55686: u64 [s1 + 848] = 0\n 55690: u64 [s1 + 840] = 0\n 55694: u64 [s1 + 832] = 0\n 55698: u32 [s1 + 800] = 0x20\n 55703: i32 a1 = s1 + 0x300\n 55707: i32 a3 = s1 + 0x340\n 55711: i32 a4 = s1 + 0x320\n 55715: a2 = 0xffffffffffffffff\n 55718: a0 = 0\n 55720: ecalli 8 // 'get_storage'\n 55722: a0 = u64 [s1 + 0x40]\n 55725: u64 [s1 + 0x318] = a0\n 55729: a0 = u64 [s1 + 0x48]\n 55732: u64 [s1 + 0x310] = a0\n 55736: a0 = u64 [s1 + 0x50]\n 55739: u64 [s1 + 0x308] = a0\n 55743: a0 = u64 [s1 + 0x158]\n 55747: u64 [s1 + 0x300] = a0\n 55751: a0 = u64 [s1 + 0x30]\n 55754: u64 [s1 + 0x358] = a0\n 55758: a0 = u64 [s1 + 0x38]\n 55761: u64 [s1 + 0x350] = a0\n 55765: a0 = u64 [s1 + 0x20]\n 55768: u64 [s1 + 0x348] = a0\n 55772: a0 = u64 [s1 + 0x28]\n 55775: u64 [s1 + 0x340] = a0\n 55779: i32 a1 = s1 + 0x300\n 55783: i32 a3 = s1 + 0x340\n 55787: a2 = 0xffffffffffffffff\n 55790: a4 = 0x20\n 55793: a0 = 0\n 55795: ecalli 16 // 'set_storage'\n 55797: a0 = sp + 0xffffffffffffffe0\n 55800: a0 = a0 & 0xffffffffffffffe0\n 55803: u64 [s1 + 0x158] = a0\n 55807: sp = a0\n 55809: u64 [a0 + 24] = 0\n 55812: u64 [a0 + 16] = 0\n 55815: u64 [a0 + 8] = 0\n 55818: u64 [a0 + 0] = 0\n 55820: i32 a0 = a0 + 0\n 55822: ecalli 17 // 'value_transferred'\n 55824: a1 = u64 [s1 + 0x158]\n 55828: a0 = u64 [a1 + 0x18]\n 55831: u64 [s1 + 0x38] = a0\n 55834: a0 = u64 [a1 + 0x10]\n 55837: u64 [s1 + 0x40] = a0\n 55840: a0 = u64 [a1 + 0x8]\n 55843: u64 [s1 + 0x48] = a0\n 55846: a0 = u64 [a1]\n 55848: u64 [s1 + 0x50] = a0\n 55851: a1 = 0x20\n 55854: a0 = 0\n 55856: ra = 656, jump @0\n      : @720 [@dyn 328] (gas: 67)\n 55863: a1 = u64 [s1 + 0x130]\n 55867: u8 [a0 + 0x1f] = a1\n 55870: a1 = u64 [s1 + 0x128]\n 55874: u8 [a0 + 0x1e] = a1\n 55877: a1 = u64 [s1 + 0x120]\n 55881: u8 [a0 + 0x1d] = a1\n 55884: a1 = u64 [s1 + 0x118]\n 55888: u8 [a0 + 0x1c] = a1\n 55891: a1 = u64 [s1 + 0x110]\n 55895: u8 [a0 + 0x1b] = a1\n 55898: a1 = u64 [s1 + 0x108]\n 55902: u8 [a0 + 0x1a] = a1\n 55905: a1 = u64 [s1 + 0x100]\n 55909: u8 [a0 + 0x19] = a1\n 55912: a1 = u64 [s1 + 0xf8]\n 55916: u8 [a0 + 0x17] = a1\n 55919: a1 = u64 [s1 + 0xf0]\n 55923: u8 [a0 + 0x16] = a1\n 55926: a1 = u64 [s1 + 0xe8]\n 55930: u8 [a0 + 0x15] = a1\n 55933: a1 = u64 [s1 + 0xe0]\n 55937: u8 [a0 + 0x14] = a1\n 55940: a1 = u64 [s1 + 0xd8]\n 55944: u8 [a0 + 0x13] = a1\n 55947: a1 = u64 [s1 + 0xd0]\n 55951: u8 [a0 + 0x12] = a1\n 55954: a1 = u64 [s1 + 0xc8]\n 55958: u8 [a0 + 0x11] = a1\n 55961: a1 = u64 [s1 + 0xc0]\n 55965: u8 [a0 + 0xf] = a1\n 55968: a1 = u64 [s1 + 0xb8]\n 55972: u8 [a0 + 0xe] = a1\n 55975: a1 = u64 [s1 + 0xb0]\n 55979: u8 [a0 + 0xd] = a1\n 55982: a1 = u64 [s1 + 0xa8]\n 55986: u8 [a0 + 0xc] = a1\n 55989: a1 = u64 [s1 + 0xa0]\n 55993: u8 [a0 + 0xb] = a1\n 55996: a1 = u64 [s1 + 0x98]\n 56000: u8 [a0 + 0xa] = a1\n 56003: a1 = u64 [s1 + 0x90]\n 56007: u8 [a0 + 0x9] = a1\n 56010: a1 = u64 [s1 + 0x88]\n 56014: u8 [a0 + 0x7] = a1\n 56017: a1 = u64 [s1 + 0x80]\n 56021: u8 [a0 + 0x6] = a1\n 56024: a1 = u64 [s1 + 0x78]\n 56027: u8 [a0 + 0x5] = a1\n 56030: a1 = u64 [s1 + 0x70]\n 56033: u8 [a0 + 0x4] = a1\n 56036: a1 = u64 [s1 + 0x68]\n 56039: u8 [a0 + 0x3] = a1\n 56042: a1 = u64 [s1 + 0x60]\n 56045: u8 [a0 + 0x2] = a1\n 56048: a1 = u64 [s1 + 0x58]\n 56051: u8 [a0 + 0x1] = a1\n 56054: a1 = u64 [s1 + 0x138]\n 56058: u8 [a0 + 0x18] = a1\n 56061: a1 = u64 [s1 + 0x140]\n 56065: u8 [a0 + 0x10] = a1\n 56068: a1 = u64 [s1 + 0x148]\n 56072: u8 [a0 + 0x8] = a1\n 56075: a1 = u64 [s1 + 0x150]\n 56079: u8 [a0] = a1\n 56081: a0 = 0x20\n 56084: a1 = 0x20\n 56087: ra = 658, jump @0\n      : @721 [@dyn 329] (gas: 35)\n 56094: u8 [a0 + 31] = 0x2\n 56098: u8 [a0 + 30] = 0\n 56101: u8 [a0 + 29] = 0\n 56104: u8 [a0 + 28] = 0\n 56107: u8 [a0 + 27] = 0\n 56110: u8 [a0 + 26] = 0\n 56113: u8 [a0 + 25] = 0\n 56116: u8 [a0 + 24] = 0\n 56119: u8 [a0 + 23] = 0\n 56122: u8 [a0 + 22] = 0\n 56125: u8 [a0 + 21] = 0\n 56128: u8 [a0 + 20] = 0\n 56131: u8 [a0 + 19] = 0\n 56134: u8 [a0 + 18] = 0\n 56137: u8 [a0 + 17] = 0\n 56140: u8 [a0 + 16] = 0\n 56143: u8 [a0 + 15] = 0\n 56146: u8 [a0 + 14] = 0\n 56149: u8 [a0 + 13] = 0\n 56152: u8 [a0 + 12] = 0\n 56155: u8 [a0 + 11] = 0\n 56158: u8 [a0 + 10] = 0\n 56161: u8 [a0 + 9] = 0\n 56164: u8 [a0 + 8] = 0\n 56167: u8 [a0 + 7] = 0\n 56170: u8 [a0 + 6] = 0\n 56173: u8 [a0 + 5] = 0\n 56176: u8 [a0 + 4] = 0\n 56179: u8 [a0 + 3] = 0\n 56182: u8 [a0 + 2] = 0\n 56185: u8 [a0 + 1] = 0\n 56188: u8 [a0 + 0] = 0\n 56190: a1 = 0x40\n 56193: a0 = 0\n 56195: ra = 660, jump @0\n      : @722 [@dyn 330] (gas: 38)\n 56202: i32 a0 = a0 + 0\n 56204: i32 a2 = s1 + 0x340\n 56208: a1 = 0x40\n 56211: ecalli 9 // 'hash_keccak_256'\n 56213: a0 = u64 [s1 + 0x358]\n 56217: a1 = u64 [s1 + 0x350]\n 56221: a2 = u64 [s1 + 0x348]\n 56225: a3 = u64 [s1 + 0x340]\n 56229: a0 = reverse a0\n 56231: a1 = reverse a1\n 56233: a2 = reverse a2\n 56235: a3 = reverse a3\n 56237: u64 [s1 + 0x318] = a3\n 56241: u64 [s1 + 0x310] = a2\n 56245: u64 [s1 + 0x308] = a1\n 56249: u64 [s1 + 0x300] = a0\n 56253: u64 [s1 + 856] = 0\n 56257: u64 [s1 + 848] = 0\n 56261: u64 [s1 + 840] = 0\n 56265: u64 [s1 + 832] = 0\n 56269: u32 [s1 + 800] = 0x20\n 56274: i32 a1 = s1 + 0x300\n 56278: i32 a3 = s1 + 0x340\n 56282: i32 a4 = s1 + 0x320\n 56286: a2 = 0xffffffffffffffff\n 56289: a0 = 0\n 56291: ecalli 8 // 'get_storage'\n 56293: a0 = u64 [s1 + 0x358]\n 56297: u64 [s1 + 0x100] = a0\n 56301: a0 = u64 [s1 + 0x350]\n 56305: u64 [s1 + 0x108] = a0\n 56309: a0 = u64 [s1 + 0x348]\n 56313: u64 [s1 + 0x110] = a0\n 56317: a0 = u64 [s1 + 0x340]\n 56321: u64 [s1 + 0x118] = a0\n 56325: a0 = 0x40\n 56328: a1 = 0x20\n 56331: ra = 662, jump @0\n      : @723 [@dyn 331] (gas: 103)\n 56338: a1 = u8 [a0 + 0x11]\n 56341: a2 = u8 [a0 + 0x10]\n 56344: a3 = u8 [a0 + 0x12]\n 56347: a4 = u8 [a0 + 0x13]\n 56350: a1 = a1 << 0x8\n 56353: a1 = a1 | a2\n 56356: a3 = a3 << 0x10\n 56359: a4 = a4 << 0x18\n 56362: a3 = a3 | a4\n 56365: a1 = a1 | a3\n 56368: a2 = u8 [a0 + 0x15]\n 56371: a3 = u8 [a0 + 0x14]\n 56374: a4 = u8 [a0 + 0x16]\n 56377: a5 = u8 [a0 + 0x17]\n 56380: a2 = a2 << 0x8\n 56383: a2 = a2 | a3\n 56386: a4 = a4 << 0x10\n 56389: a5 = a5 << 0x18\n 56392: a4 = a4 | a5\n 56395: a2 = a2 | a4\n 56398: a2 = a2 << 0x20\n 56401: t0 = a2 | a1\n 56404: a2 = u8 [a0 + 0x1]\n 56407: a3 = u8 [a0]\n 56409: a4 = u8 [a0 + 0x2]\n 56412: a5 = u8 [a0 + 0x3]\n 56415: a2 = a2 << 0x8\n 56418: a2 = a2 | a3\n 56421: a4 = a4 << 0x10\n 56424: a5 = a5 << 0x18\n 56427: a4 = a4 | a5\n 56430: a2 = a2 | a4\n 56433: a3 = u8 [a0 + 0x5]\n 56436: a4 = u8 [a0 + 0x4]\n 56439: a5 = u8 [a0 + 0x6]\n 56442: a1 = u8 [a0 + 0x7]\n 56445: a3 = a3 << 0x8\n 56448: a3 = a3 | a4\n 56451: a5 = a5 << 0x10\n 56454: a1 = a1 << 0x18\n 56457: a1 = a1 | a5\n 56460: a1 = a1 | a3\n 56463: a1 = a1 << 0x20\n 56466: t1 = a1 | a2\n 56469: a1 = u8 [a0 + 0x19]\n 56472: a3 = u8 [a0 + 0x18]\n 56475: a4 = u8 [a0 + 0x1a]\n 56478: a5 = u8 [a0 + 0x1b]\n 56481: a1 = a1 << 0x8\n 56484: a1 = a1 | a3\n 56487: a4 = a4 << 0x10\n 56490: a5 = a5 << 0x18\n 56493: a4 = a4 | a5\n 56496: a1 = a1 | a4\n 56499: a3 = u8 [a0 + 0x1d]\n 56502: a4 = u8 [a0 + 0x1c]\n 56505: a5 = u8 [a0 + 0x1e]\n 56508: a2 = u8 [a0 + 0x1f]\n 56511: a3 = a3 << 0x8\n 56514: a3 = a3 | a4\n 56517: a5 = a5 << 0x10\n 56520: a2 = a2 << 0x18\n 56523: a2 = a2 | a5\n 56526: a2 = a2 | a3\n 56529: a2 = a2 << 0x20\n 56532: a3 = a2 | a1\n 56535: a1 = u8 [a0 + 0x9]\n 56538: a2 = u8 [a0 + 0x8]\n 56541: a4 = u8 [a0 + 0xa]\n 56544: a5 = u8 [a0 + 0xb]\n 56547: a1 = a1 << 0x8\n 56550: a1 = a1 | a2\n 56553: a4 = a4 << 0x10\n 56556: a5 = a5 << 0x18\n 56559: a4 = a4 | a5\n 56562: a1 = a1 | a4\n 56565: a2 = u8 [a0 + 0xd]\n 56568: a4 = u8 [a0 + 0xc]\n 56571: a5 = u8 [a0 + 0xe]\n 56574: a0 = u8 [a0 + 0xf]\n 56577: a2 = a2 << 0x8\n 56580: a2 = a2 | a4\n 56583: a5 = a5 << 0x10\n 56586: a0 = a0 << 0x18\n 56589: a0 = a0 | a5\n 56592: a0 = a0 | a2\n 56595: a0 = a0 << 0x20\n 56598: a0 = a0 | a1\n 56601: a4 = reverse a0\n 56603: a2 = reverse a3\n 56605: a1 = reverse t1\n 56607: a0 = reverse t0\n 56609: u64 [s1 + 0x130] = a0\n 56613: u64 [s1 + 0x120] = a1\n 56617: a0 = a0 | a1\n 56620: a1 = a2 | a4\n 56623: a1 = a1 | a0\n 56626: a1 = a1 >> 0x20\n 56629: u64 [s1 + 0x128] = a4\n 56633: a0 = a0 | a4\n 56636: a0 = a0 << 0x20\n 56639: a0 = a0 | a1\n 56642: jump @741 if a0 != 0\n      : @724 (gas: 5)\n 56646: i32 a0 = a2 + 0\n 56648: a1 = 0x20\n 56651: u64 [s1 + 0x158] = a0\n 56655: u64 [s1 + 0xf8] = a2\n 56659: ra = 664, jump @0\n      : @725 [@dyn 332] (gas: 78)\n 56666: a1 = u64 [s1 + 0x38]\n 56669: a1 = reverse a1\n 56671: a2 = u64 [s1 + 0x40]\n 56674: a2 = reverse a2\n 56676: a3 = u64 [s1 + 0x48]\n 56679: a3 = reverse a3\n 56681: a4 = u64 [s1 + 0x50]\n 56684: a4 = reverse a4\n 56686: a5 = a4 >> 0x38\n 56689: u8 [a0 + 0x1f] = a5\n 56692: a5 = a4 >> 0x30\n 56695: u8 [a0 + 0x1e] = a5\n 56698: a5 = a4 >> 0x28\n 56701: u8 [a0 + 0x1d] = a5\n 56704: a5 = a4 >> 0x20\n 56707: u8 [a0 + 0x1c] = a5\n 56710: a5 = a4 >> 0x18\n 56713: u8 [a0 + 0x1b] = a5\n 56716: a5 = a4 >> 0x10\n 56719: u8 [a0 + 0x1a] = a5\n 56722: a5 = a4 >> 0x8\n 56725: u8 [a0 + 0x19] = a5\n 56728: u8 [a0 + 0x18] = a4\n 56731: u8 [a0 + 0x10] = a3\n 56734: a4 = a3 >> 0x38\n 56737: u8 [a0 + 0x17] = a4\n 56740: a4 = a3 >> 0x30\n 56743: u8 [a0 + 0x16] = a4\n 56746: a4 = a3 >> 0x28\n 56749: u8 [a0 + 0x15] = a4\n 56752: a4 = a3 >> 0x20\n 56755: u8 [a0 + 0x14] = a4\n 56758: a4 = a3 >> 0x18\n 56761: u8 [a0 + 0x13] = a4\n 56764: a4 = a3 >> 0x10\n 56767: u8 [a0 + 0x12] = a4\n 56770: a3 = a3 >> 0x8\n 56773: u8 [a0 + 0x11] = a3\n 56776: u8 [a0 + 0x8] = a2\n 56779: a3 = a2 >> 0x38\n 56782: u8 [a0 + 0xf] = a3\n 56785: a3 = a2 >> 0x30\n 56788: u8 [a0 + 0xe] = a3\n 56791: a3 = a2 >> 0x28\n 56794: u8 [a0 + 0xd] = a3\n 56797: a3 = a2 >> 0x20\n 56800: u8 [a0 + 0xc] = a3\n 56803: a3 = a2 >> 0x18\n 56806: u8 [a0 + 0xb] = a3\n 56809: a3 = a2 >> 0x10\n 56812: u8 [a0 + 0xa] = a3\n 56815: a2 = a2 >> 0x8\n 56818: u8 [a0 + 0x9] = a2\n 56821: u8 [a0] = a1\n 56823: a2 = a1 >> 0x38\n 56826: u8 [a0 + 0x7] = a2\n 56829: a2 = a1 >> 0x30\n 56832: u8 [a0 + 0x6] = a2\n 56835: a2 = a1 >> 0x28\n 56838: u8 [a0 + 0x5] = a2\n 56841: a2 = a1 >> 0x20\n 56844: u8 [a0 + 0x4] = a2\n 56847: a2 = a1 >> 0x18\n 56850: u8 [a0 + 0x3] = a2\n 56853: a2 = a1 >> 0x10\n 56856: u8 [a0 + 0x2] = a2\n 56859: a1 = a1 >> 0x8\n 56862: a2 = u64 [s1 + 0x128]\n 56866: a3 = u64 [s1 + 0x120]\n 56870: a2 = a2 | a3\n 56873: a3 = 0xffffffe0\n 56883: a4 = u64 [s1 + 0xf8]\n 56887: a3 = a4 <u a3\n 56890: a4 = u64 [s1 + 0x130]\n 56894: a3 = 0 if a4 != 0\n 56896: a3 = 0 if a2 != 0\n 56898: u8 [a0 + 0x1] = a1\n 56901: jump @741 if a3 == 0\n      : @726 (gas: 4)\n 56905: a0 = u64 [s1 + 0x158]\n 56909: i32 a0 = a0 + 0x20\n 56912: a1 = 0x20\n 56915: ra = 666, jump @0\n      : @727 [@dyn 333] (gas: 71)\n 56922: a1 = u64 [s1 + 0x100]\n 56926: a1 = reverse a1\n 56928: a2 = u64 [s1 + 0x108]\n 56932: a2 = reverse a2\n 56934: a3 = u64 [s1 + 0x110]\n 56938: a3 = reverse a3\n 56940: a4 = u64 [s1 + 0x118]\n 56944: a4 = reverse a4\n 56946: a5 = a4 >> 0x38\n 56949: u8 [a0 + 0x1f] = a5\n 56952: a5 = a4 >> 0x30\n 56955: u8 [a0 + 0x1e] = a5\n 56958: a5 = a4 >> 0x28\n 56961: u8 [a0 + 0x1d] = a5\n 56964: a5 = a4 >> 0x20\n 56967: u8 [a0 + 0x1c] = a5\n 56970: a5 = a4 >> 0x18\n 56973: u8 [a0 + 0x1b] = a5\n 56976: a5 = a4 >> 0x10\n 56979: u8 [a0 + 0x1a] = a5\n 56982: a5 = a4 >> 0x8\n 56985: u8 [a0 + 0x19] = a5\n 56988: u8 [a0 + 0x18] = a4\n 56991: u8 [a0 + 0x10] = a3\n 56994: a4 = a3 >> 0x38\n 56997: u8 [a0 + 0x17] = a4\n 57000: a4 = a3 >> 0x30\n 57003: u8 [a0 + 0x16] = a4\n 57006: a4 = a3 >> 0x28\n 57009: u8 [a0 + 0x15] = a4\n 57012: a4 = a3 >> 0x20\n 57015: u8 [a0 + 0x14] = a4\n 57018: a4 = a3 >> 0x18\n 57021: u8 [a0 + 0x13] = a4\n 57024: a4 = a3 >> 0x10\n 57027: u8 [a0 + 0x12] = a4\n 57030: a3 = a3 >> 0x8\n 57033: u8 [a0 + 0x11] = a3\n 57036: u8 [a0 + 0x8] = a2\n 57039: a3 = a2 >> 0x38\n 57042: u8 [a0 + 0xf] = a3\n 57045: a3 = a2 >> 0x30\n 57048: u8 [a0 + 0xe] = a3\n 57051: a3 = a2 >> 0x28\n 57054: u8 [a0 + 0xd] = a3\n 57057: a3 = a2 >> 0x20\n 57060: u8 [a0 + 0xc] = a3\n 57063: a3 = a2 >> 0x18\n 57066: u8 [a0 + 0xb] = a3\n 57069: a3 = a2 >> 0x10\n 57072: u8 [a0 + 0xa] = a3\n 57075: a2 = a2 >> 0x8\n 57078: u8 [a0 + 0x9] = a2\n 57081: u8 [a0] = a1\n 57083: a2 = a1 >> 0x38\n 57086: u8 [a0 + 0x7] = a2\n 57089: a2 = a1 >> 0x30\n 57092: u8 [a0 + 0x6] = a2\n 57095: a2 = a1 >> 0x28\n 57098: u8 [a0 + 0x5] = a2\n 57101: a2 = a1 >> 0x20\n 57104: u8 [a0 + 0x4] = a2\n 57107: a2 = a1 >> 0x18\n 57110: u8 [a0 + 0x3] = a2\n 57113: a2 = a1 >> 0x10\n 57116: u8 [a0 + 0x2] = a2\n 57119: a1 = a1 >> 0x8\n 57122: u8 [a0 + 0x1] = a1\n 57125: a1 = 0x40\n 57128: a0 = u64 [s1 + 0x158]\n 57132: ra = 668, jump @0\n      : @728 [@dyn 334] (gas: 27)\n 57139: a1 = u64 [0x20040]\n 57144: a2 = u64 [0x20048]\n 57149: a3 = u64 [0x20050]\n 57154: a4 = u64 [0x20058]\n 57159: u64 [s1 + 0x358] = a1\n 57163: u64 [s1 + 0x350] = a2\n 57167: u64 [s1 + 0x348] = a3\n 57171: u64 [s1 + 0x340] = a4\n 57175: a1 = u64 [s1 + 0x138]\n 57179: u64 [s1 + 0x378] = a1\n 57183: a1 = u64 [s1 + 0x140]\n 57187: u64 [s1 + 0x370] = a1\n 57191: a1 = u64 [s1 + 0x148]\n 57195: u64 [s1 + 0x368] = a1\n 57199: a1 = u64 [s1 + 0x150]\n 57203: u64 [s1 + 0x360] = a1\n 57207: i32 a2 = a0 + 0\n 57209: i32 a0 = s1 + 0x340\n 57213: a1 = 0x2\n 57216: a3 = 0x40\n 57219: ecalli 7 // 'deposit_event'\n 57221: sp = s0 + 0xfffffffffffffc60\n 57225: ra = u64 [sp + 0x398]\n 57229: s0 = u64 [sp + 0x390]\n 57233: s1 = u64 [sp + 0x388]\n 57237: sp = sp + 0x3a0\n 57241: ret\n      : @729 (gas: 3)\n 57243: a0 = 0x40\n 57246: a1 = 0x20\n 57249: ra = 670, jump @0\n      : @730 [@dyn 335] (gas: 104)\n 57256: a1 = u8 [a0 + 0x11]\n 57259: a2 = u8 [a0 + 0x10]\n 57262: a3 = u8 [a0 + 0x12]\n 57265: a4 = u8 [a0 + 0x13]\n 57268: a1 = a1 << 0x8\n 57271: a1 = a1 | a2\n 57274: a3 = a3 << 0x10\n 57277: a4 = a4 << 0x18\n 57280: a3 = a3 | a4\n 57283: a1 = a1 | a3\n 57286: a2 = u8 [a0 + 0x15]\n 57289: a3 = u8 [a0 + 0x14]\n 57292: a4 = u8 [a0 + 0x16]\n 57295: a5 = u8 [a0 + 0x17]\n 57298: a2 = a2 << 0x8\n 57301: a2 = a2 | a3\n 57304: a4 = a4 << 0x10\n 57307: a5 = a5 << 0x18\n 57310: a4 = a4 | a5\n 57313: a2 = a2 | a4\n 57316: a2 = a2 << 0x20\n 57319: t0 = a2 | a1\n 57322: a2 = u8 [a0 + 0x1]\n 57325: a3 = u8 [a0]\n 57327: a4 = u8 [a0 + 0x2]\n 57330: a5 = u8 [a0 + 0x3]\n 57333: a2 = a2 << 0x8\n 57336: a2 = a2 | a3\n 57339: a4 = a4 << 0x10\n 57342: a5 = a5 << 0x18\n 57345: a4 = a4 | a5\n 57348: a2 = a2 | a4\n 57351: a3 = u8 [a0 + 0x5]\n 57354: a4 = u8 [a0 + 0x4]\n 57357: a5 = u8 [a0 + 0x6]\n 57360: a1 = u8 [a0 + 0x7]\n 57363: a3 = a3 << 0x8\n 57366: a3 = a3 | a4\n 57369: a5 = a5 << 0x10\n 57372: a1 = a1 << 0x18\n 57375: a1 = a1 | a5\n 57378: a1 = a1 | a3\n 57381: a1 = a1 << 0x20\n 57384: t1 = a1 | a2\n 57387: a1 = u8 [a0 + 0x19]\n 57390: a3 = u8 [a0 + 0x18]\n 57393: a4 = u8 [a0 + 0x1a]\n 57396: a5 = u8 [a0 + 0x1b]\n 57399: a1 = a1 << 0x8\n 57402: a1 = a1 | a3\n 57405: a4 = a4 << 0x10\n 57408: a5 = a5 << 0x18\n 57411: a4 = a4 | a5\n 57414: a1 = a1 | a4\n 57417: a3 = u8 [a0 + 0x1d]\n 57420: a4 = u8 [a0 + 0x1c]\n 57423: a5 = u8 [a0 + 0x1e]\n 57426: a2 = u8 [a0 + 0x1f]\n 57429: a3 = a3 << 0x8\n 57432: a3 = a3 | a4\n 57435: a5 = a5 << 0x10\n 57438: a2 = a2 << 0x18\n 57441: a2 = a2 | a5\n 57444: a2 = a2 | a3\n 57447: a2 = a2 << 0x20\n 57450: a3 = a2 | a1\n 57453: a1 = u8 [a0 + 0x9]\n 57456: a2 = u8 [a0 + 0x8]\n 57459: a4 = u8 [a0 + 0xa]\n 57462: a5 = u8 [a0 + 0xb]\n 57465: a1 = a1 << 0x8\n 57468: a1 = a1 | a2\n 57471: a4 = a4 << 0x10\n 57474: a5 = a5 << 0x18\n 57477: a4 = a4 | a5\n 57480: a1 = a1 | a4\n 57483: a2 = u8 [a0 + 0xd]\n 57486: a4 = u8 [a0 + 0xc]\n 57489: a5 = u8 [a0 + 0xe]\n 57492: a0 = u8 [a0 + 0xf]\n 57495: a2 = a2 << 0x8\n 57498: a2 = a2 | a4\n 57501: a5 = a5 << 0x10\n 57504: a0 = a0 << 0x18\n 57507: a0 = a0 | a5\n 57510: a0 = a0 | a2\n 57513: a0 = a0 << 0x20\n 57516: a0 = a0 | a1\n 57519: a4 = reverse a0\n 57521: a1 = reverse a3\n 57523: a2 = reverse t1\n 57525: a0 = reverse t0\n 57527: u64 [s1 + 0x158] = a0\n 57531: u64 [s1 + 0x148] = a2\n 57535: a0 = a0 | a2\n 57538: a2 = a1\n 57540: a1 = a1 | a4\n 57543: a1 = a1 | a0\n 57546: a1 = a1 >> 0x20\n 57549: u64 [s1 + 0x150] = a4\n 57553: a0 = a0 | a4\n 57556: a0 = a0 << 0x20\n 57559: a0 = a0 | a1\n 57562: jump @741 if a0 != 0\n      : @731 (gas: 5)\n 57566: u64 [s1 + 0x140] = a2\n 57570: i32 a0 = a2 + 0\n 57572: a1 = 0x20\n 57575: u64 [s1 + 0x138] = a0\n 57579: ra = 672, jump @0\n      : @732 [@dyn 336] (gas: 51)\n 57586: u8 [a0 + 31] = 0\n 57589: u8 [a0 + 30] = 0\n 57592: u8 [a0 + 29] = 0\n 57595: u8 [a0 + 28] = 0\n 57598: u8 [a0 + 27] = 0\n 57601: u8 [a0 + 26] = 0\n 57604: u8 [a0 + 25] = 0\n 57607: u8 [a0 + 24] = 0\n 57610: u8 [a0 + 23] = 0\n 57613: u8 [a0 + 22] = 0\n 57616: u8 [a0 + 21] = 0\n 57619: u8 [a0 + 20] = 0\n 57622: u8 [a0 + 19] = 0\n 57625: u8 [a0 + 18] = 0\n 57628: u8 [a0 + 17] = 0\n 57631: u8 [a0 + 16] = 0\n 57634: u8 [a0 + 15] = 0\n 57637: u8 [a0 + 14] = 0\n 57640: u8 [a0 + 13] = 0\n 57643: u8 [a0 + 12] = 0\n 57646: u8 [a0 + 11] = 0\n 57649: u8 [a0 + 10] = 0\n 57652: u8 [a0 + 9] = 0\n 57655: u8 [a0 + 8] = 0\n 57658: u8 [a0 + 7] = 0\n 57661: u8 [a0 + 6] = 0\n 57664: u8 [a0 + 5] = 0\n 57667: u8 [a0 + 4] = 0\n 57670: u8 [a0 + 3] = 0xa0\n 57675: u8 [a0 + 2] = 0x79\n 57679: u8 [a0 + 1] = 0xc3\n 57684: u8 [a0 + 0] = 0x8\n 57687: a1 = u64 [s1 + 0x140]\n 57691: a0 = a1 + 0x4\n 57694: a1 = a0 <u a1\n 57697: a3 = u64 [s1 + 0x158]\n 57701: a2 = a3 + a1\n 57704: a3 = a2 <u a3\n 57707: a3 = a1 if a1 == 0\n 57710: a1 = u64 [s1 + 0x150]\n 57714: a3 = a3 + a1\n 57717: a1 = a3 <u a1\n 57720: a4 = u64 [s1 + 0x148]\n 57724: a4 = a4 + a1\n 57727: u64 [s1 + 0x168] = a2\n 57731: u64 [s1 + 0x160] = a0\n 57735: u64 [s1 + 0x170] = a3\n 57739: a0 = s1 + 0x180\n 57743: a1 = s1 + 0x160\n 57747: u64 [s1 + 0x178] = a4\n 57751: ra = 674, jump @272\n      : @733 [@dyn 337] (gas: 5)\n 57758: a0 = u64 [s1 + 0x188]\n 57762: t0 = u64 [s1 + 0x198]\n 57766: t1 = u64 [s1 + 0x180]\n 57770: a3 = u64 [s1 + 0x190]\n 57774: jump @740\n      : @734 (gas: 1)\n 57777: ra = 676, jump @282\n      : @735 [@dyn 338] (gas: 3)\n 57784: a0 = 0x40\n 57787: a1 = 0x20\n 57790: ra = 678, jump @0\n      : @736 [@dyn 339] (gas: 104)\n 57797: a1 = u8 [a0 + 0x11]\n 57800: a2 = u8 [a0 + 0x10]\n 57803: a3 = u8 [a0 + 0x12]\n 57806: a4 = u8 [a0 + 0x13]\n 57809: a1 = a1 << 0x8\n 57812: a1 = a1 | a2\n 57815: a3 = a3 << 0x10\n 57818: a4 = a4 << 0x18\n 57821: a3 = a3 | a4\n 57824: a1 = a1 | a3\n 57827: a2 = u8 [a0 + 0x15]\n 57830: a3 = u8 [a0 + 0x14]\n 57833: a4 = u8 [a0 + 0x16]\n 57836: a5 = u8 [a0 + 0x17]\n 57839: a2 = a2 << 0x8\n 57842: a2 = a2 | a3\n 57845: a4 = a4 << 0x10\n 57848: a5 = a5 << 0x18\n 57851: a4 = a4 | a5\n 57854: a2 = a2 | a4\n 57857: a2 = a2 << 0x20\n 57860: t0 = a2 | a1\n 57863: a2 = u8 [a0 + 0x1]\n 57866: a3 = u8 [a0]\n 57868: a4 = u8 [a0 + 0x2]\n 57871: a5 = u8 [a0 + 0x3]\n 57874: a2 = a2 << 0x8\n 57877: a2 = a2 | a3\n 57880: a4 = a4 << 0x10\n 57883: a5 = a5 << 0x18\n 57886: a4 = a4 | a5\n 57889: a2 = a2 | a4\n 57892: a3 = u8 [a0 + 0x5]\n 57895: a4 = u8 [a0 + 0x4]\n 57898: a5 = u8 [a0 + 0x6]\n 57901: a1 = u8 [a0 + 0x7]\n 57904: a3 = a3 << 0x8\n 57907: a3 = a3 | a4\n 57910: a5 = a5 << 0x10\n 57913: a1 = a1 << 0x18\n 57916: a1 = a1 | a5\n 57919: a1 = a1 | a3\n 57922: a1 = a1 << 0x20\n 57925: t1 = a1 | a2\n 57928: a1 = u8 [a0 + 0x19]\n 57931: a3 = u8 [a0 + 0x18]\n 57934: a4 = u8 [a0 + 0x1a]\n 57937: a5 = u8 [a0 + 0x1b]\n 57940: a1 = a1 << 0x8\n 57943: a1 = a1 | a3\n 57946: a4 = a4 << 0x10\n 57949: a5 = a5 << 0x18\n 57952: a4 = a4 | a5\n 57955: a1 = a1 | a4\n 57958: a3 = u8 [a0 + 0x1d]\n 57961: a4 = u8 [a0 + 0x1c]\n 57964: a5 = u8 [a0 + 0x1e]\n 57967: a2 = u8 [a0 + 0x1f]\n 57970: a3 = a3 << 0x8\n 57973: a3 = a3 | a4\n 57976: a5 = a5 << 0x10\n 57979: a2 = a2 << 0x18\n 57982: a2 = a2 | a5\n 57985: a2 = a2 | a3\n 57988: a2 = a2 << 0x20\n 57991: a3 = a2 | a1\n 57994: a1 = u8 [a0 + 0x9]\n 57997: a2 = u8 [a0 + 0x8]\n 58000: a4 = u8 [a0 + 0xa]\n 58003: a5 = u8 [a0 + 0xb]\n 58006: a1 = a1 << 0x8\n 58009: a1 = a1 | a2\n 58012: a4 = a4 << 0x10\n 58015: a5 = a5 << 0x18\n 58018: a4 = a4 | a5\n 58021: a1 = a1 | a4\n 58024: a2 = u8 [a0 + 0xd]\n 58027: a4 = u8 [a0 + 0xc]\n 58030: a5 = u8 [a0 + 0xe]\n 58033: a0 = u8 [a0 + 0xf]\n 58036: a2 = a2 << 0x8\n 58039: a2 = a2 | a4\n 58042: a5 = a5 << 0x10\n 58045: a0 = a0 << 0x18\n 58048: a0 = a0 | a5\n 58051: a0 = a0 | a2\n 58054: a0 = a0 << 0x20\n 58057: a0 = a0 | a1\n 58060: a4 = reverse a0\n 58062: a1 = reverse a3\n 58064: a2 = reverse t1\n 58066: a0 = reverse t0\n 58068: u64 [s1 + 0x158] = a0\n 58072: u64 [s1 + 0x148] = a2\n 58076: a0 = a0 | a2\n 58079: a2 = a1\n 58081: a1 = a1 | a4\n 58084: a1 = a1 | a0\n 58087: a1 = a1 >> 0x20\n 58090: u64 [s1 + 0x150] = a4\n 58094: a0 = a0 | a4\n 58097: a0 = a0 << 0x20\n 58100: a0 = a0 | a1\n 58103: jump @741 if a0 != 0\n      : @737 (gas: 5)\n 58107: u64 [s1 + 0x140] = a2\n 58111: i32 a0 = a2 + 0\n 58113: a1 = 0x20\n 58116: u64 [s1 + 0x138] = a0\n 58120: ra = 680, jump @0\n      : @738 [@dyn 340] (gas: 51)\n 58127: u8 [a0 + 31] = 0\n 58130: u8 [a0 + 30] = 0\n 58133: u8 [a0 + 29] = 0\n 58136: u8 [a0 + 28] = 0\n 58139: u8 [a0 + 27] = 0\n 58142: u8 [a0 + 26] = 0\n 58145: u8 [a0 + 25] = 0\n 58148: u8 [a0 + 24] = 0\n 58151: u8 [a0 + 23] = 0\n 58154: u8 [a0 + 22] = 0\n 58157: u8 [a0 + 21] = 0\n 58160: u8 [a0 + 20] = 0\n 58163: u8 [a0 + 19] = 0\n 58166: u8 [a0 + 18] = 0\n 58169: u8 [a0 + 17] = 0\n 58172: u8 [a0 + 16] = 0\n 58175: u8 [a0 + 15] = 0\n 58178: u8 [a0 + 14] = 0\n 58181: u8 [a0 + 13] = 0\n 58184: u8 [a0 + 12] = 0\n 58187: u8 [a0 + 11] = 0\n 58190: u8 [a0 + 10] = 0\n 58193: u8 [a0 + 9] = 0\n 58196: u8 [a0 + 8] = 0\n 58199: u8 [a0 + 7] = 0\n 58202: u8 [a0 + 6] = 0\n 58205: u8 [a0 + 5] = 0\n 58208: u8 [a0 + 4] = 0\n 58211: u8 [a0 + 3] = 0xa0\n 58216: u8 [a0 + 2] = 0x79\n 58220: u8 [a0 + 1] = 0xc3\n 58225: u8 [a0 + 0] = 0x8\n 58228: a1 = u64 [s1 + 0x140]\n 58232: a0 = a1 + 0x4\n 58235: a1 = a0 <u a1\n 58238: a3 = u64 [s1 + 0x158]\n 58242: a2 = a3 + a1\n 58245: a3 = a2 <u a3\n 58248: a3 = a1 if a1 == 0\n 58251: a1 = u64 [s1 + 0x150]\n 58255: a3 = a3 + a1\n 58258: a1 = a3 <u a1\n 58261: a4 = u64 [s1 + 0x148]\n 58265: a4 = a4 + a1\n 58268: u64 [s1 + 0x228] = a2\n 58272: u64 [s1 + 0x220] = a0\n 58276: u64 [s1 + 0x230] = a3\n 58280: a0 = s1 + 0x240\n 58284: a1 = s1 + 0x220\n 58288: u64 [s1 + 0x238] = a4\n 58292: ra = 682, jump @298\n      : @739 [@dyn 341] (gas: 5)\n 58299: a0 = u64 [s1 + 0x248]\n 58303: t0 = u64 [s1 + 0x258]\n 58307: t1 = u64 [s1 + 0x240]\n 58311: a3 = u64 [s1 + 0x250]\n 58315: fallthrough\n      : @740 (gas: 27)\n 58316: a1 = u64 [s1 + 0x158]\n 58320: a4 = a0 ^ a1\n 58323: a5 = a0 <u a1\n 58326: ra = a1\n 58328: t2 = u64 [s1 + 0x140]\n 58332: a1 = t1 <u t2\n 58335: a5 = a1 if a4 == 0\n 58338: a2 = u64 [s1 + 0x150]\n 58342: a4 = a3 - a2\n 58345: a3 = a3 <u a2\n 58348: a2 = u64 [s1 + 0x148]\n 58352: a2 = t0 - a2\n 58355: a2 = a2 - a3\n 58358: a3 = a4 <u a5\n 58361: a2 = a2 - a3\n 58364: a4 = a4 - a5\n 58367: a0 = a0 - ra\n 58370: a1 = a0 - a1\n 58373: a0 = t1 - t2\n 58376: a1 = a1 | a2\n 58379: a2 = a0 | a4\n 58382: a2 = a2 | a1\n 58385: a1 = a1 | a4\n 58388: a2 = a2 >> 0x20\n 58391: a1 = a1 << 0x20\n 58394: a1 = a1 | a2\n 58397: jump @750 if a1 == 0\n      : @741 (gas: 1)\n 58401: trap\n      : @742 (gas: 3)\n 58402: a0 = 0\n 58404: a1 = 0\n 58406: ra = 684, jump @0\n      : @743 [@dyn 342] (gas: 5)\n 58413: i32 a1 = a0 + 0\n 58415: a0 = 0x1\n 58418: a2 = 0\n 58420: ecalli 14 // 'seal_return'\n 58422: fallthrough\n      : @744 (gas: 8)\n 58423: u64 [s1 + 464] = 0\n 58427: u64 [s1 + 456] = 0\n 58431: u64 [s1 + 448] = 0\n 58435: a0 = 0x4e487b7100000000\n 58445: a1 = s1 + 0x1c0\n 58449: u64 [s1 + 0x1d8] = a0\n 58453: a0 = 0\n 58455: ra = 686, jump @8\n      : @745 [@dyn 343] (gas: 8)\n 58462: u64 [s1 + 440] = 0\n 58466: u64 [s1 + 432] = 0\n 58470: u64 [s1 + 416] = 0x41\n 58475: a0 = 0x4\n 58478: a1 = s1 + 0x1a0\n 58482: u64 [s1 + 424] = 0\n 58486: ra = 0x2b2\n 58490: jump @8\n      : @746 (gas: 8)\n 58494: u64 [s1 + 528] = 0\n 58498: u64 [s1 + 520] = 0\n 58502: u64 [s1 + 512] = 0\n 58506: a0 = 0x4e487b7100000000\n 58516: a1 = s1 + 0x200\n 58520: u64 [s1 + 0x218] = a0\n 58524: a0 = 0\n 58526: ra = 688, jump @8\n      : @747 [@dyn 344] (gas: 7)\n 58533: u64 [s1 + 504] = 0\n 58537: u64 [s1 + 496] = 0\n 58541: u64 [s1 + 480] = 0x11\n 58546: a0 = 0x4\n 58549: a1 = s1 + 0x1e0\n 58553: u64 [s1 + 488] = 0\n 58557: ra = 690, jump @8\n      : @748 [@dyn 345] (gas: 3)\n 58564: a1 = 0x24\n 58567: a0 = 0\n 58569: ra = 692, jump @0\n      : @749 [@dyn 346] (gas: 5)\n 58576: i32 a1 = a0 + 0\n 58578: a0 = 0x1\n 58581: a2 = 0x24\n 58584: ecalli 14 // 'seal_return'\n 58586: fallthrough\n      : @750 (gas: 4)\n 58587: i32 a1 = a0 + 0\n 58589: u64 [s1 + 0x158] = a1\n 58593: a0 = u64 [s1 + 0x138]\n 58597: ra = 694, jump @0\n      : @751 [@dyn 347] (gas: 6)\n 58604: i32 a1 = a0 + 0\n 58606: a0 = 0x1\n 58609: a2 = u64 [s1 + 0x158]\n 58613: ra = 0x2b8\n 58617: ecalli 14 // 'seal_return'\n 58619: fallthrough\n      : @752 [@dyn 348] (gas: 12)\n 58620: a2 = u64 [a1 + 0x10]\n 58623: a3 = u64 [a1 + 0x18]\n 58626: a4 = u64 [a1 + 0x8]\n 58629: a1 = u64 [a1]\n 58631: a3 = a3 | a4\n 58634: a4 = a1 | a2\n 58637: a4 = a4 | a3\n 58640: a4 = a4 >> 0x20\n 58643: a2 = a2 | a3\n 58646: a2 = a2 << 0x20\n 58649: a2 = a2 | a4\n 58652: jump @755 if a2 != 0\n      : @753 (gas: 7)\n 58656: sp = sp + 0xfffffffffffffff0\n 58659: u64 [sp + 0x8] = ra\n 58662: u64 [sp] = s0\n 58664: s0 = a0\n 58666: i32 a0 = a1 + 0\n 58668: a1 = 0x20\n 58671: ra = 698, jump @0\n      : @754 [@dyn 349] (gas: 100)\n 58678: a1 = u8 [a0 + 0x1]\n 58681: a2 = u8 [a0]\n 58683: a3 = u8 [a0 + 0x2]\n 58686: a4 = u8 [a0 + 0x3]\n 58689: a1 = a1 << 0x8\n 58692: a1 = a1 | a2\n 58695: a3 = a3 << 0x10\n 58698: a4 = a4 << 0x18\n 58701: a3 = a3 | a4\n 58704: a1 = a1 | a3\n 58707: a2 = u8 [a0 + 0x5]\n 58710: a3 = u8 [a0 + 0x4]\n 58713: a4 = u8 [a0 + 0x6]\n 58716: a5 = u8 [a0 + 0x7]\n 58719: a2 = a2 << 0x8\n 58722: a2 = a2 | a3\n 58725: a4 = a4 << 0x10\n 58728: a5 = a5 << 0x18\n 58731: a4 = a4 | a5\n 58734: a2 = a2 | a4\n 58737: a2 = a2 << 0x20\n 58740: t0 = a2 | a1\n 58743: a2 = u8 [a0 + 0x9]\n 58746: a3 = u8 [a0 + 0x8]\n 58749: a4 = u8 [a0 + 0xa]\n 58752: a5 = u8 [a0 + 0xb]\n 58755: a2 = a2 << 0x8\n 58758: a2 = a2 | a3\n 58761: a4 = a4 << 0x10\n 58764: a5 = a5 << 0x18\n 58767: a4 = a4 | a5\n 58770: a2 = a2 | a4\n 58773: a3 = u8 [a0 + 0xd]\n 58776: a4 = u8 [a0 + 0xc]\n 58779: a5 = u8 [a0 + 0xe]\n 58782: a1 = u8 [a0 + 0xf]\n 58785: a3 = a3 << 0x8\n 58788: a3 = a3 | a4\n 58791: a5 = a5 << 0x10\n 58794: a1 = a1 << 0x18\n 58797: a1 = a1 | a5\n 58800: a1 = a1 | a3\n 58803: a1 = a1 << 0x20\n 58806: t1 = a1 | a2\n 58809: a1 = u8 [a0 + 0x11]\n 58812: a3 = u8 [a0 + 0x10]\n 58815: a4 = u8 [a0 + 0x12]\n 58818: a5 = u8 [a0 + 0x13]\n 58821: a1 = a1 << 0x8\n 58824: a1 = a1 | a3\n 58827: a4 = a4 << 0x10\n 58830: a5 = a5 << 0x18\n 58833: a4 = a4 | a5\n 58836: a1 = a1 | a4\n 58839: a3 = u8 [a0 + 0x15]\n 58842: a4 = u8 [a0 + 0x14]\n 58845: a5 = u8 [a0 + 0x16]\n 58848: a2 = u8 [a0 + 0x17]\n 58851: a3 = a3 << 0x8\n 58854: a3 = a3 | a4\n 58857: a5 = a5 << 0x10\n 58860: a2 = a2 << 0x18\n 58863: a2 = a2 | a5\n 58866: a2 = a2 | a3\n 58869: a2 = a2 << 0x20\n 58872: a3 = a2 | a1\n 58875: a1 = u8 [a0 + 0x19]\n 58878: a2 = u8 [a0 + 0x18]\n 58881: a4 = u8 [a0 + 0x1a]\n 58884: a5 = u8 [a0 + 0x1b]\n 58887: a1 = a1 << 0x8\n 58890: a1 = a1 | a2\n 58893: a4 = a4 << 0x10\n 58896: a5 = a5 << 0x18\n 58899: a4 = a4 | a5\n 58902: a1 = a1 | a4\n 58905: a2 = u8 [a0 + 0x1d]\n 58908: a4 = u8 [a0 + 0x1c]\n 58911: a5 = u8 [a0 + 0x1e]\n 58914: a0 = u8 [a0 + 0x1f]\n 58917: a2 = a2 << 0x8\n 58920: a2 = a2 | a4\n 58923: a5 = a5 << 0x10\n 58926: a0 = a0 << 0x18\n 58929: a0 = a0 | a5\n 58932: a0 = a0 | a2\n 58935: a0 = a0 << 0x20\n 58938: a0 = a0 | a1\n 58941: a0 = reverse a0\n 58943: a1 = reverse a3\n 58945: a2 = reverse t1\n 58947: a3 = reverse t0\n 58949: u64 [s0 + 0x18] = a3\n 58952: u64 [s0 + 0x10] = a2\n 58955: u64 [s0 + 0x8] = a1\n 58958: u64 [s0] = a0\n 58960: ra = u64 [sp + 0x8]\n 58963: s0 = u64 [sp]\n 58965: sp = sp + 0x10\n 58968: ret\n      : @755 (gas: 1)\n 58970: trap\n      : @756 (gas: 17)\n 58971: sp = sp + 0xffffffffffffffa0\n 58974: u64 [sp + 0x58] = ra\n 58977: u64 [sp + 0x50] = s0\n 58980: u64 [sp + 0x48] = s1\n 58983: a3 = u64 [a1 + 0x18]\n 58986: a4 = u64 [a1 + 0x10]\n 58989: a5 = u64 [a1 + 0x8]\n 58992: s1 = u64 [a1]\n 58994: a1 = a5 | a3\n 58997: a2 = s1 | a4\n 59000: a2 = a2 | a1\n 59003: a2 = a2 >> 0x20\n 59006: a1 = a1 | a4\n 59009: a1 = a1 << 0x20\n 59012: a1 = a1 | a2\n 59015: u64 [sp + 0x28] = a0\n 59018: jump @763 if a1 != 0\n      : @757 (gas: 19)\n 59022: a0 = s1 + 0x20\n 59025: u64 [sp + 0x30] = a0\n 59028: a0 = a0 <u s1\n 59031: a1 = a5 + a0\n 59034: u64 [sp + 0x40] = a1\n 59037: u64 [sp + 0x8] = a5\n 59040: s0 = a1 <u a5\n 59043: s0 = a0 if a0 == 0\n 59046: s0 = s0 + a4\n 59049: u64 [sp + 0x10] = a4\n 59052: a0 = s0 <u a4\n 59055: u64 [sp + 0x18] = a3\n 59058: a0 = a0 + a3\n 59061: u64 [sp + 0x38] = a0\n 59064: u64 [sp] = s1\n 59066: i32 a0 = s1 + 0\n 59068: a1 = 0x20\n 59071: s1 = 0x20\n 59074: ra = 700, jump @0\n      : @758 [@dyn 350] (gas: 45)\n 59081: u8 [a0 + 0x1f] = s1\n 59084: a1 = u64 [sp + 0x30]\n 59087: s1 = a1\n 59089: a1 = a1 | s0\n 59092: a2 = u64 [sp + 0x40]\n 59095: a4 = u64 [sp + 0x38]\n 59098: a2 = a2 | a4\n 59101: a1 = a1 | a2\n 59104: a1 = a1 >> 0x20\n 59107: u64 [sp + 0x20] = s0\n 59110: a2 = a2 | s0\n 59113: a2 = a2 << 0x20\n 59116: a1 = a1 | a2\n 59119: u8 [a0 + 30] = 0\n 59122: u8 [a0 + 29] = 0\n 59125: u8 [a0 + 28] = 0\n 59128: u8 [a0 + 27] = 0\n 59131: u8 [a0 + 26] = 0\n 59134: u8 [a0 + 25] = 0\n 59137: u8 [a0 + 24] = 0\n 59140: u8 [a0 + 23] = 0\n 59143: u8 [a0 + 22] = 0\n 59146: u8 [a0 + 21] = 0\n 59149: u8 [a0 + 20] = 0\n 59152: u8 [a0 + 19] = 0\n 59155: u8 [a0 + 18] = 0\n 59158: u8 [a0 + 17] = 0\n 59161: u8 [a0 + 16] = 0\n 59164: u8 [a0 + 15] = 0\n 59167: u8 [a0 + 14] = 0\n 59170: u8 [a0 + 13] = 0\n 59173: u8 [a0 + 12] = 0\n 59176: u8 [a0 + 11] = 0\n 59179: u8 [a0 + 10] = 0\n 59182: u8 [a0 + 9] = 0\n 59185: u8 [a0 + 8] = 0\n 59188: u8 [a0 + 7] = 0\n 59191: u8 [a0 + 6] = 0\n 59194: u8 [a0 + 5] = 0\n 59197: u8 [a0 + 4] = 0\n 59200: u8 [a0 + 3] = 0\n 59203: u8 [a0 + 2] = 0\n 59206: u8 [a0 + 1] = 0\n 59209: u8 [a0 + 0] = 0\n 59211: jump @763 if a1 != 0\n      : @759 (gas: 4)\n 59215: i32 s0 = s1 + 0\n 59217: a1 = 0x20\n 59220: a0 = s0\n 59222: ra = 702, jump @0\n      : @760 [@dyn 351] (gas: 41)\n 59229: u8 [a0 + 31] = 0x1d\n 59233: u8 [a0 + 30] = 0\n 59236: u8 [a0 + 29] = 0\n 59239: u8 [a0 + 28] = 0\n 59242: u8 [a0 + 27] = 0\n 59245: u8 [a0 + 26] = 0\n 59248: u8 [a0 + 25] = 0\n 59251: u8 [a0 + 24] = 0\n 59254: u8 [a0 + 23] = 0\n 59257: u8 [a0 + 22] = 0\n 59260: u8 [a0 + 21] = 0\n 59263: u8 [a0 + 20] = 0\n 59266: u8 [a0 + 19] = 0\n 59269: u8 [a0 + 18] = 0\n 59272: u8 [a0 + 17] = 0\n 59275: u8 [a0 + 16] = 0\n 59278: u8 [a0 + 15] = 0\n 59281: u8 [a0 + 14] = 0\n 59284: u8 [a0 + 13] = 0\n 59287: u8 [a0 + 12] = 0\n 59290: u8 [a0 + 11] = 0\n 59293: u8 [a0 + 10] = 0\n 59296: u8 [a0 + 9] = 0\n 59299: u8 [a0 + 8] = 0\n 59302: u8 [a0 + 7] = 0\n 59305: u8 [a0 + 6] = 0\n 59308: u8 [a0 + 5] = 0\n 59311: u8 [a0 + 4] = 0\n 59314: u8 [a0 + 3] = 0\n 59317: u8 [a0 + 2] = 0\n 59320: u8 [a0 + 1] = 0\n 59323: a1 = u64 [sp + 0x20]\n 59326: a2 = u64 [sp + 0x38]\n 59329: a1 = a1 | a2\n 59332: a2 = 0xffffffe0\n 59342: a2 = s1 <u a2\n 59345: a3 = u64 [sp + 0x40]\n 59348: a2 = 0 if a3 != 0\n 59350: a2 = 0 if a1 != 0\n 59352: u8 [a0 + 0] = 0\n 59354: jump @763 if a2 == 0\n      : @761 (gas: 3)\n 59358: i32 a0 = s0 + 0x20\n 59361: a1 = 0x20\n 59364: ra = 704, jump @0\n      : @762 [@dyn 352] (gas: 55)\n 59371: u8 [a0 + 31] = 0\n 59374: u8 [a0 + 30] = 0\n 59377: u8 [a0 + 29] = 0\n 59380: u8 [a0 + 28] = 0x77\n 59384: u8 [a0 + 27] = 0x6f\n 59388: u8 [a0 + 26] = 0x6c\n 59392: u8 [a0 + 25] = 0x20\n 59396: u8 [a0 + 24] = 0x6f\n 59400: u8 [a0 + 23] = 0x6f\n 59404: u8 [a0 + 22] = 0x74\n 59408: u8 [a0 + 21] = 0x20\n 59412: u8 [a0 + 20] = 0x64\n 59416: u8 [a0 + 19] = 0x6e\n 59420: u8 [a0 + 18] = 0x6f\n 59424: u8 [a0 + 17] = 0x62\n 59428: u8 [a0 + 16] = 0x20\n 59432: u8 [a0 + 15] = 0x72\n 59436: u8 [a0 + 14] = 0x65\n 59440: u8 [a0 + 13] = 0x74\n 59444: u8 [a0 + 12] = 0x69\n 59448: u8 [a0 + 11] = 0x62\n 59452: u8 [a0 + 10] = 0x72\n 59456: u8 [a0 + 9] = 0x61\n 59460: u8 [a0 + 8] = 0x20\n 59464: u8 [a0 + 7] = 0x3a\n 59468: a5 = 0x79\n 59471: u8 [a0 + 0x6] = a5\n 59474: u8 [a0 + 5] = 0x72\n 59478: u8 [a0 + 4] = 0x6f\n 59482: u8 [a0 + 3] = 0x74\n 59486: u8 [a0 + 2] = 0x63\n 59490: u8 [a0 + 1] = 0x61\n 59494: u8 [a0 + 0] = 0x46\n 59497: a1 = u64 [sp]\n 59499: a0 = a1 + 0x60\n 59502: a1 = a0 <u a1\n 59505: a3 = u64 [sp + 0x8]\n 59508: a2 = a3 + a1\n 59511: a3 = a2 <u a3\n 59514: a3 = a1 if a1 == 0\n 59517: a1 = u64 [sp + 0x10]\n 59520: a3 = a3 + a1\n 59523: a1 = a3 <u a1\n 59526: a4 = u64 [sp + 0x18]\n 59529: a1 = a1 + a4\n 59532: a4 = u64 [sp + 0x28]\n 59535: u64 [a4] = a0\n 59537: u64 [a4 + 0x8] = a2\n 59540: u64 [a4 + 0x10] = a3\n 59543: u64 [a4 + 0x18] = a1\n 59546: ra = u64 [sp + 0x58]\n 59549: s0 = u64 [sp + 0x50]\n 59552: s1 = u64 [sp + 0x48]\n 59555: sp = sp + 0x60\n 59558: ret\n      : @763 (gas: 1)\n 59560: trap\n      : @764 (gas: 17)\n 59561: sp = sp + 0xffffffffffffffa0\n 59564: u64 [sp + 0x58] = ra\n 59567: u64 [sp + 0x50] = s0\n 59570: u64 [sp + 0x48] = s1\n 59573: a3 = u64 [a1 + 0x18]\n 59576: a4 = u64 [a1 + 0x10]\n 59579: a5 = u64 [a1 + 0x8]\n 59582: s1 = u64 [a1]\n 59584: a1 = a5 | a3\n 59587: a2 = s1 | a4\n 59590: a2 = a2 | a1\n 59593: a2 = a2 >> 0x20\n 59596: a1 = a1 | a4\n 59599: a1 = a1 << 0x20\n 59602: a1 = a1 | a2\n 59605: u64 [sp + 0x20] = a0\n 59608: jump @773 if a1 != 0\n      : @765 (gas: 19)\n 59612: a0 = s1 + 0x20\n 59615: u64 [sp + 0x38] = a0\n 59618: a0 = a0 <u s1\n 59621: a1 = a5 + a0\n 59624: u64 [sp + 0x40] = a1\n 59627: u64 [sp + 0x8] = a5\n 59630: s0 = a1 <u a5\n 59633: s0 = a0 if a0 == 0\n 59636: s0 = s0 + a4\n 59639: u64 [sp + 0x10] = a4\n 59642: a0 = s0 <u a4\n 59645: u64 [sp + 0x18] = a3\n 59648: a0 = a0 + a3\n 59651: u64 [sp + 0x30] = a0\n 59654: u64 [sp] = s1\n 59656: i32 a0 = s1 + 0\n 59658: a1 = 0x20\n 59661: s1 = 0x20\n 59664: ra = 706, jump @0\n      : @766 [@dyn 353] (gas: 43)\n 59671: u8 [a0 + 0x1f] = s1\n 59674: a1 = u64 [sp + 0x38]\n 59677: a1 = a1 | s0\n 59680: a2 = u64 [sp + 0x40]\n 59683: a3 = u64 [sp + 0x30]\n 59686: a2 = a2 | a3\n 59689: a1 = a1 | a2\n 59692: a1 = a1 >> 0x20\n 59695: a2 = a2 | s0\n 59698: a2 = a2 << 0x20\n 59701: a1 = a1 | a2\n 59704: u8 [a0 + 30] = 0\n 59707: u8 [a0 + 29] = 0\n 59710: u8 [a0 + 28] = 0\n 59713: u8 [a0 + 27] = 0\n 59716: u8 [a0 + 26] = 0\n 59719: u8 [a0 + 25] = 0\n 59722: u8 [a0 + 24] = 0\n 59725: u8 [a0 + 23] = 0\n 59728: u8 [a0 + 22] = 0\n 59731: u8 [a0 + 21] = 0\n 59734: u8 [a0 + 20] = 0\n 59737: u8 [a0 + 19] = 0\n 59740: u8 [a0 + 18] = 0\n 59743: u8 [a0 + 17] = 0\n 59746: u8 [a0 + 16] = 0\n 59749: u8 [a0 + 15] = 0\n 59752: u8 [a0 + 14] = 0\n 59755: u8 [a0 + 13] = 0\n 59758: u8 [a0 + 12] = 0\n 59761: u8 [a0 + 11] = 0\n 59764: u8 [a0 + 10] = 0\n 59767: u8 [a0 + 9] = 0\n 59770: u8 [a0 + 8] = 0\n 59773: u8 [a0 + 7] = 0\n 59776: u8 [a0 + 6] = 0\n 59779: u8 [a0 + 5] = 0\n 59782: u8 [a0 + 4] = 0\n 59785: u8 [a0 + 3] = 0\n 59788: u8 [a0 + 2] = 0\n 59791: u8 [a0 + 1] = 0\n 59794: u8 [a0 + 0] = 0\n 59796: jump @773 if a1 != 0\n      : @767 (gas: 6)\n 59800: s1 = s0\n 59802: s0 = u64 [sp + 0x38]\n 59805: i32 a0 = s0 + 0\n 59807: a1 = 0x20\n 59810: u64 [sp + 0x28] = a0\n 59813: ra = 708, jump @0\n      : @768 [@dyn 354] (gas: 42)\n 59820: u8 [a0 + 31] = 0x24\n 59824: u8 [a0 + 30] = 0\n 59827: u8 [a0 + 29] = 0\n 59830: u8 [a0 + 28] = 0\n 59833: u8 [a0 + 27] = 0\n 59836: u8 [a0 + 26] = 0\n 59839: u8 [a0 + 25] = 0\n 59842: u8 [a0 + 24] = 0\n 59845: u8 [a0 + 23] = 0\n 59848: u8 [a0 + 22] = 0\n 59851: u8 [a0 + 21] = 0\n 59854: u8 [a0 + 20] = 0\n 59857: u8 [a0 + 19] = 0\n 59860: u8 [a0 + 18] = 0\n 59863: u8 [a0 + 17] = 0\n 59866: u8 [a0 + 16] = 0\n 59869: u8 [a0 + 15] = 0\n 59872: u8 [a0 + 14] = 0\n 59875: u8 [a0 + 13] = 0\n 59878: u8 [a0 + 12] = 0\n 59881: u8 [a0 + 11] = 0\n 59884: u8 [a0 + 10] = 0\n 59887: u8 [a0 + 9] = 0\n 59890: u8 [a0 + 8] = 0\n 59893: u8 [a0 + 7] = 0\n 59896: u8 [a0 + 6] = 0\n 59899: u8 [a0 + 5] = 0\n 59902: u8 [a0 + 4] = 0\n 59905: u8 [a0 + 3] = 0\n 59908: u8 [a0 + 2] = 0\n 59911: u8 [a0 + 1] = 0\n 59914: a1 = u64 [sp + 0x30]\n 59917: a3 = s1 | a1\n 59920: s1 = 0x100000000\n 59930: a1 = 0xffffffe0\n 59940: a1 = s0 <u a1\n 59943: a2 = u64 [sp + 0x40]\n 59946: a1 = 0 if a2 != 0\n 59948: u64 [sp + 0x30] = a3\n 59951: a1 = 0 if a3 != 0\n 59953: u8 [a0 + 0] = 0\n 59955: jump @773 if a1 == 0\n      : @769 (gas: 4)\n 59959: a0 = u64 [sp + 0x28]\n 59962: i32 a0 = a0 + 0x20\n 59965: a1 = 0x20\n 59968: ra = 710, jump @0\n      : @770 [@dyn 355] (gas: 42)\n 59975: u8 [a0 + 29] = 0x66\n 59979: u8 [a0 + 28] = 0x66\n 59983: u8 [a0 + 27] = 0x75\n 59987: u8 [a0 + 21] = 0x6b\n 59991: u8 [a0 + 26] = 0x73\n 59995: u8 [a0 + 18] = 0x73\n 59999: u8 [a0 + 14] = 0x64\n 60003: u8 [a0 + 12] = 0x76\n 60007: u8 [a0 + 9] = 0x70\n 60011: u8 [a0 + 23] = 0x20\n 60015: u8 [a0 + 17] = 0x20\n 60019: u8 [a0 + 8] = 0x20\n 60023: u8 [a0 + 7] = 0x3a\n 60027: u8 [a0 + 6] = 0x79\n 60031: u8 [a0 + 16] = 0x72\n 60035: u8 [a0 + 10] = 0x72\n 60039: u8 [a0 + 5] = 0x72\n 60043: u8 [a0 + 11] = 0x6f\n 60047: u8 [a0 + 4] = 0x6f\n 60051: u8 [a0 + 31] = 0x63\n 60055: u8 [a0 + 2] = 0x63\n 60059: u8 [a0 + 20] = 0x61\n 60063: u8 [a0 + 1] = 0x61\n 60067: u8 [a0 + 0] = 0x46\n 60070: s0 = 0x69\n 60073: u8 [a0 + 0x1e] = s0\n 60076: a1 = s1 + 0xffffffffffffffc0\n 60079: a2 = u64 [sp + 0x38]\n 60082: a1 = a2 <u a1\n 60085: u8 [a0 + 25] = 0x6e\n 60089: u8 [a0 + 0x18] = s0\n 60092: a2 = u64 [sp + 0x40]\n 60095: a1 = 0 if a2 != 0\n 60097: u8 [a0 + 22] = 0x65\n 60101: a2 = u64 [sp + 0x30]\n 60104: a1 = 0 if a2 != 0\n 60106: s1 = 0x74\n 60109: u8 [a0 + 0x13] = s1\n 60112: u8 [a0 + 15] = 0x65\n 60116: u8 [a0 + 0xd] = s0\n 60119: u8 [a0 + 0x3] = s1\n 60122: jump @773 if a1 == 0\n      : @771 (gas: 4)\n 60126: a0 = u64 [sp + 0x28]\n 60129: i32 a0 = a0 + 0x40\n 60132: a1 = 0x20\n 60135: ra = 712, jump @0\n      : @772 [@dyn 356] (gas: 54)\n 60142: u8 [a0 + 31] = 0\n 60145: u8 [a0 + 30] = 0\n 60148: u8 [a0 + 29] = 0\n 60151: u8 [a0 + 28] = 0\n 60154: u8 [a0 + 27] = 0\n 60157: u8 [a0 + 26] = 0\n 60160: u8 [a0 + 25] = 0\n 60163: u8 [a0 + 24] = 0\n 60166: u8 [a0 + 23] = 0\n 60169: u8 [a0 + 22] = 0\n 60172: u8 [a0 + 21] = 0\n 60175: u8 [a0 + 20] = 0\n 60178: u8 [a0 + 19] = 0\n 60181: u8 [a0 + 18] = 0\n 60184: u8 [a0 + 17] = 0\n 60187: u8 [a0 + 16] = 0\n 60190: u8 [a0 + 15] = 0\n 60193: u8 [a0 + 14] = 0\n 60196: u8 [a0 + 13] = 0\n 60199: u8 [a0 + 12] = 0\n 60202: u8 [a0 + 11] = 0\n 60205: u8 [a0 + 10] = 0\n 60208: u8 [a0 + 9] = 0\n 60211: u8 [a0 + 8] = 0\n 60214: u8 [a0 + 7] = 0\n 60217: u8 [a0 + 6] = 0\n 60220: u8 [a0 + 5] = 0\n 60223: u8 [a0 + 4] = 0\n 60226: u8 [a0 + 0x3] = s1\n 60229: u8 [a0 + 2] = 0x6e\n 60233: u8 [a0 + 1] = 0x65\n 60237: u8 [a0] = s0\n 60239: a1 = u64 [sp]\n 60241: a0 = a1 + 0x80\n 60245: a1 = a0 <u a1\n 60248: a3 = u64 [sp + 0x8]\n 60251: a2 = a3 + a1\n 60254: a3 = a2 <u a3\n 60257: a3 = a1 if a1 == 0\n 60260: a1 = u64 [sp + 0x10]\n 60263: a3 = a3 + a1\n 60266: a1 = a3 <u a1\n 60269: a4 = u64 [sp + 0x18]\n 60272: a1 = a1 + a4\n 60275: a4 = u64 [sp + 0x20]\n 60278: u64 [a4] = a0\n 60280: u64 [a4 + 0x8] = a2\n 60283: u64 [a4 + 0x10] = a3\n 60286: u64 [a4 + 0x18] = a1\n 60289: ra = u64 [sp + 0x58]\n 60292: s0 = u64 [sp + 0x50]\n 60295: s1 = u64 [sp + 0x48]\n 60298: sp = sp + 0x60\n 60301: ret\n      : @773 (gas: 1)\n 60303: trap\n      : @774 (gas: 34)\n 60304: sp = sp + 0xfffffffffffff840\n 60308: u64 [sp + 0x7b8] = ra\n 60312: u64 [sp + 0x7b0] = s0\n 60316: u64 [sp + 0x7a8] = s1\n 60320: s0 = sp + 0x7c0\n 60324: sp = sp & 0xffffffffffffffe0\n 60327: s1 = sp\n 60329: a3 = u64 [a2 + 0x18]\n 60332: u64 [s1 + 0x188] = a3\n 60336: a3 = u64 [a2 + 0x10]\n 60339: u64 [s1 + 0x78] = a3\n 60342: a3 = u64 [a2 + 0x8]\n 60345: u64 [s1 + 0x80] = a3\n 60349: a2 = u64 [a2]\n 60351: u64 [s1 + 0x70] = a2\n 60354: a2 = u64 [a1 + 0x18]\n 60357: u64 [s1 + 0x88] = a2\n 60361: a2 = u64 [a1 + 0x10]\n 60364: u64 [s1 + 0x170] = a2\n 60368: a2 = u64 [a1 + 0x8]\n 60371: u64 [s1 + 0x180] = a2\n 60375: a1 = u64 [a1]\n 60377: u64 [s1 + 0x178] = a1\n 60381: a1 = u64 [a0]\n 60383: u64 [s1 + 0x1d8] = a1\n 60387: a1 = u64 [a0 + 0x8]\n 60390: u64 [s1 + 0x1d0] = a1\n 60394: a1 = u64 [a0 + 0x10]\n 60397: u64 [s1 + 0x1c8] = a1\n 60401: a0 = u64 [a0 + 0x18]\n 60404: u64 [s1 + 0x1c0] = a0\n 60408: a1 = 0x20\n 60411: a0 = 0\n 60413: ra = 714, jump @0\n      : @775 [@dyn 357] (gas: 103)\n 60420: a1 = u64 [s1 + 0x1c0]\n 60424: a1 = reverse a1\n 60426: a2 = u64 [s1 + 0x1c8]\n 60430: a2 = reverse a2\n 60432: a3 = u64 [s1 + 0x1d0]\n 60436: a3 = reverse a3\n 60438: a4 = u64 [s1 + 0x1d8]\n 60442: a4 = reverse a4\n 60444: u8 [a0 + 0x18] = a4\n 60447: u8 [a0 + 0x10] = a3\n 60450: u8 [a0 + 0x8] = a2\n 60453: u8 [a0] = a1\n 60455: a5 = a4 >> 0x38\n 60458: u64 [s1 + 0x168] = a5\n 60462: u8 [a0 + 0x1f] = a5\n 60465: a5 = a4 >> 0x30\n 60468: u64 [s1 + 0x160] = a5\n 60472: u8 [a0 + 0x1e] = a5\n 60475: a5 = a4 >> 0x28\n 60478: u64 [s1 + 0x158] = a5\n 60482: u8 [a0 + 0x1d] = a5\n 60485: a5 = a4 >> 0x20\n 60488: u64 [s1 + 0x150] = a5\n 60492: u8 [a0 + 0x1c] = a5\n 60495: a5 = a4 >> 0x18\n 60498: u64 [s1 + 0x148] = a5\n 60502: u8 [a0 + 0x1b] = a5\n 60505: a5 = a4 >> 0x10\n 60508: u64 [s1 + 0x140] = a5\n 60512: u8 [a0 + 0x1a] = a5\n 60515: u64 [s1 + 0x190] = a4\n 60519: a4 = a4 >> 0x8\n 60522: u64 [s1 + 0x138] = a4\n 60526: u8 [a0 + 0x19] = a4\n 60529: a4 = a3 >> 0x38\n 60532: u64 [s1 + 0x130] = a4\n 60536: u8 [a0 + 0x17] = a4\n 60539: a4 = a3 >> 0x30\n 60542: u64 [s1 + 0x128] = a4\n 60546: u8 [a0 + 0x16] = a4\n 60549: a4 = a3 >> 0x28\n 60552: u64 [s1 + 0x120] = a4\n 60556: u8 [a0 + 0x15] = a4\n 60559: a4 = a3 >> 0x20\n 60562: u64 [s1 + 0x118] = a4\n 60566: u8 [a0 + 0x14] = a4\n 60569: a4 = a3 >> 0x18\n 60572: u64 [s1 + 0x110] = a4\n 60576: u8 [a0 + 0x13] = a4\n 60579: a4 = a3 >> 0x10\n 60582: u64 [s1 + 0x108] = a4\n 60586: u8 [a0 + 0x12] = a4\n 60589: u64 [s1 + 0x198] = a3\n 60593: a3 = a3 >> 0x8\n 60596: u64 [s1 + 0x100] = a3\n 60600: u8 [a0 + 0x11] = a3\n 60603: a3 = a2 >> 0x38\n 60606: u64 [s1 + 0xf8] = a3\n 60610: u8 [a0 + 0xf] = a3\n 60613: a3 = a2 >> 0x30\n 60616: u64 [s1 + 0xf0] = a3\n 60620: u8 [a0 + 0xe] = a3\n 60623: a3 = a2 >> 0x28\n 60626: u64 [s1 + 0xe8] = a3\n 60630: u8 [a0 + 0xd] = a3\n 60633: a3 = a2 >> 0x20\n 60636: u64 [s1 + 0xe0] = a3\n 60640: u8 [a0 + 0xc] = a3\n 60643: a3 = a2 >> 0x18\n 60646: u64 [s1 + 0xd8] = a3\n 60650: u8 [a0 + 0xb] = a3\n 60653: a3 = a2 >> 0x10\n 60656: u64 [s1 + 0xd0] = a3\n 60660: u8 [a0 + 0xa] = a3\n 60663: u64 [s1 + 0x1a0] = a2\n 60667: a2 = a2 >> 0x8\n 60670: u64 [s1 + 0xc8] = a2\n 60674: u8 [a0 + 0x9] = a2\n 60677: a2 = a1 >> 0x38\n 60680: u64 [s1 + 0xc0] = a2\n 60684: u8 [a0 + 0x7] = a2\n 60687: a2 = a1 >> 0x30\n 60690: u64 [s1 + 0xb8] = a2\n 60694: u8 [a0 + 0x6] = a2\n 60697: a2 = a1 >> 0x28\n 60700: u64 [s1 + 0xb0] = a2\n 60704: u8 [a0 + 0x5] = a2\n 60707: a2 = a1 >> 0x20\n 60710: u64 [s1 + 0xa8] = a2\n 60714: u8 [a0 + 0x4] = a2\n 60717: a2 = a1 >> 0x18\n 60720: u64 [s1 + 0xa0] = a2\n 60724: u8 [a0 + 0x3] = a2\n 60727: a2 = a1 >> 0x10\n 60730: u64 [s1 + 0x98] = a2\n 60734: u8 [a0 + 0x2] = a2\n 60737: u64 [s1 + 0x1a8] = a1\n 60741: a1 = a1 >> 0x8\n 60744: u64 [s1 + 0x90] = a1\n 60748: u8 [a0 + 0x1] = a1\n 60751: a0 = 0x20\n 60754: a1 = 0x20\n 60757: ra = 716, jump @0\n      : @776 [@dyn 358] (gas: 35)\n 60764: u8 [a0 + 31] = 0\n 60767: u8 [a0 + 30] = 0\n 60770: u8 [a0 + 29] = 0\n 60773: u8 [a0 + 28] = 0\n 60776: u8 [a0 + 27] = 0\n 60779: u8 [a0 + 26] = 0\n 60782: u8 [a0 + 25] = 0\n 60785: u8 [a0 + 24] = 0\n 60788: u8 [a0 + 23] = 0\n 60791: u8 [a0 + 22] = 0\n 60794: u8 [a0 + 21] = 0\n 60797: u8 [a0 + 20] = 0\n 60800: u8 [a0 + 19] = 0\n 60803: u8 [a0 + 18] = 0\n 60806: u8 [a0 + 17] = 0\n 60809: u8 [a0 + 16] = 0\n 60812: u8 [a0 + 15] = 0\n 60815: u8 [a0 + 14] = 0\n 60818: u8 [a0 + 13] = 0\n 60821: u8 [a0 + 12] = 0\n 60824: u8 [a0 + 11] = 0\n 60827: u8 [a0 + 10] = 0\n 60830: u8 [a0 + 9] = 0\n 60833: u8 [a0 + 8] = 0\n 60836: u8 [a0 + 7] = 0\n 60839: u8 [a0 + 6] = 0\n 60842: u8 [a0 + 5] = 0\n 60845: u8 [a0 + 4] = 0\n 60848: u8 [a0 + 3] = 0\n 60851: u8 [a0 + 2] = 0\n 60854: u8 [a0 + 1] = 0\n 60857: u8 [a0 + 0] = 0\n 60859: a1 = 0x40\n 60862: a0 = 0\n 60864: ra = 718, jump @0\n      : @777 [@dyn 359] (gas: 28)\n 60871: i32 a0 = a0 + 0\n 60873: i32 a2 = s1 + 0x6e0\n 60877: a1 = 0x40\n 60880: ecalli 9 // 'hash_keccak_256'\n 60882: a0 = u64 [s1 + 0x6f8]\n 60886: a1 = u64 [s1 + 0x6f0]\n 60890: a2 = u64 [s1 + 0x6e8]\n 60894: a3 = u64 [s1 + 0x6e0]\n 60898: a0 = reverse a0\n 60900: a1 = reverse a1\n 60902: a2 = reverse a2\n 60904: a3 = reverse a3\n 60906: u64 [s1 + 0x798] = a3\n 60910: u64 [s1 + 0x790] = a2\n 60914: u64 [s1 + 0x788] = a1\n 60918: u64 [s1 + 0x780] = a0\n 60922: u64 [s1 + 1784] = 0\n 60926: u64 [s1 + 1776] = 0\n 60930: u64 [s1 + 1768] = 0\n 60934: u64 [s1 + 1760] = 0\n 60938: u32 [s1 + 1888] = 0x20\n 60943: i32 a1 = s1 + 0x780\n 60947: i32 a3 = s1 + 0x6e0\n 60951: i32 a4 = s1 + 0x760\n 60955: a2 = 0xffffffffffffffff\n 60958: a0 = 0\n 60960: ecalli 8 // 'get_storage'\n 60962: fallthrough\n      : @778 (gas: 11)\n 60963: a0 = u64 [s1 + 0x6f0]\n 60967: a2 = u64 [s1 + 0x6e8]\n 60971: a1 = u64 [s1 + 0x6e0]\n 60975: u64 [s1 + 0x1d0] = a0\n 60979: a0 = a0 << 0x20\n 60982: a0 = a0 >> 0x20\n 60985: u64 [s1 + 0x1d8] = a1\n 60989: u64 [s1 + 0x1c8] = a2\n 60993: a1 = a1 | a2\n 60996: a0 = a0 | a1\n 60999: jump @780 if a0 != 0\n      : @779 (gas: 1)\n 61002: jump @882\n      : @780 (gas: 22)\n 61005: a0 = sp + 0xffffffffffffffe0\n 61008: a0 = a0 & 0xffffffffffffffe0\n 61011: u64 [s1 + 0x1c0] = a0\n 61015: sp = a0\n 61017: u64 [a0 + 24] = 0\n 61020: u64 [a0 + 16] = 0\n 61023: u64 [a0 + 8] = 0\n 61026: u64 [a0 + 0] = 0\n 61028: i32 a0 = a0 + 0\n 61030: ecalli 17 // 'value_transferred'\n 61032: a1 = u64 [s1 + 0x1c0]\n 61036: a0 = u64 [a1 + 0x18]\n 61039: u64 [s1 + 0x60] = a0\n 61042: a0 = u64 [a1 + 0x10]\n 61045: u64 [s1 + 0x68] = a0\n 61048: a0 = u64 [a1 + 0x8]\n 61051: u64 [s1 + 0x50] = a0\n 61054: a0 = u64 [a1]\n 61056: u64 [s1 + 0x58] = a0\n 61059: a0 = 0x40\n 61062: a1 = 0x20\n 61065: ra = 720, jump @0\n      : @781 [@dyn 360] (gas: 103)\n 61072: a1 = u8 [a0 + 0x11]\n 61075: a2 = u8 [a0 + 0x10]\n 61078: a3 = u8 [a0 + 0x12]\n 61081: a4 = u8 [a0 + 0x13]\n 61084: a1 = a1 << 0x8\n 61087: a1 = a1 | a2\n 61090: a3 = a3 << 0x10\n 61093: a4 = a4 << 0x18\n 61096: a3 = a3 | a4\n 61099: a1 = a1 | a3\n 61102: a2 = u8 [a0 + 0x15]\n 61105: a3 = u8 [a0 + 0x14]\n 61108: a4 = u8 [a0 + 0x16]\n 61111: a5 = u8 [a0 + 0x17]\n 61114: a2 = a2 << 0x8\n 61117: a2 = a2 | a3\n 61120: a4 = a4 << 0x10\n 61123: a5 = a5 << 0x18\n 61126: a4 = a4 | a5\n 61129: a2 = a2 | a4\n 61132: a2 = a2 << 0x20\n 61135: t0 = a2 | a1\n 61138: a2 = u8 [a0 + 0x1]\n 61141: a3 = u8 [a0]\n 61143: a4 = u8 [a0 + 0x2]\n 61146: a5 = u8 [a0 + 0x3]\n 61149: a2 = a2 << 0x8\n 61152: a2 = a2 | a3\n 61155: a4 = a4 << 0x10\n 61158: a5 = a5 << 0x18\n 61161: a4 = a4 | a5\n 61164: a2 = a2 | a4\n 61167: a3 = u8 [a0 + 0x5]\n 61170: a4 = u8 [a0 + 0x4]\n 61173: a5 = u8 [a0 + 0x6]\n 61176: a1 = u8 [a0 + 0x7]\n 61179: a3 = a3 << 0x8\n 61182: a3 = a3 | a4\n 61185: a5 = a5 << 0x10\n 61188: a1 = a1 << 0x18\n 61191: a1 = a1 | a5\n 61194: a1 = a1 | a3\n 61197: a1 = a1 << 0x20\n 61200: t1 = a1 | a2\n 61203: a1 = u8 [a0 + 0x19]\n 61206: a3 = u8 [a0 + 0x18]\n 61209: a4 = u8 [a0 + 0x1a]\n 61212: a5 = u8 [a0 + 0x1b]\n 61215: a1 = a1 << 0x8\n 61218: a1 = a1 | a3\n 61221: a4 = a4 << 0x10\n 61224: a5 = a5 << 0x18\n 61227: a4 = a4 | a5\n 61230: a1 = a1 | a4\n 61233: a3 = u8 [a0 + 0x1d]\n 61236: a4 = u8 [a0 + 0x1c]\n 61239: a5 = u8 [a0 + 0x1e]\n 61242: a2 = u8 [a0 + 0x1f]\n 61245: a3 = a3 << 0x8\n 61248: a3 = a3 | a4\n 61251: a5 = a5 << 0x10\n 61254: a2 = a2 << 0x18\n 61257: a2 = a2 | a5\n 61260: a2 = a2 | a3\n 61263: a2 = a2 << 0x20\n 61266: a3 = a2 | a1\n 61269: a1 = u8 [a0 + 0x9]\n 61272: a2 = u8 [a0 + 0x8]\n 61275: a4 = u8 [a0 + 0xa]\n 61278: a5 = u8 [a0 + 0xb]\n 61281: a1 = a1 << 0x8\n 61284: a1 = a1 | a2\n 61287: a4 = a4 << 0x10\n 61290: a5 = a5 << 0x18\n 61293: a4 = a4 | a5\n 61296: a1 = a1 | a4\n 61299: a2 = u8 [a0 + 0xd]\n 61302: a4 = u8 [a0 + 0xc]\n 61305: a5 = u8 [a0 + 0xe]\n 61308: a0 = u8 [a0 + 0xf]\n 61311: a2 = a2 << 0x8\n 61314: a2 = a2 | a4\n 61317: a5 = a5 << 0x10\n 61320: a0 = a0 << 0x18\n 61323: a0 = a0 | a5\n 61326: a0 = a0 | a2\n 61329: a0 = a0 << 0x20\n 61332: a0 = a0 | a1\n 61335: a2 = reverse a0\n 61337: a3 = reverse a3\n 61339: a0 = reverse t1\n 61341: a1 = reverse t0\n 61343: u64 [s1 + 0x40] = a0\n 61346: u64 [s1 + 0x38] = a1\n 61349: a0 = a0 | a1\n 61352: a1 = a3 | a2\n 61355: a1 = a1 | a0\n 61358: a1 = a1 >> 0x20\n 61361: u64 [s1 + 0x48] = a2\n 61364: a0 = a0 | a2\n 61367: a0 = a0 << 0x20\n 61370: a0 = a0 | a1\n 61373: jump @783 if a0 == 0\n      : @782 (gas: 1)\n 61376: jump @899\n      : @783 (gas: 9)\n 61379: a0 = 0x1800000000\n 61389: u64 [s1 + 0x1b0] = a0\n 61393: a0 = 0x400000000\n 61403: u64 [s1 + 0x1b8] = a0\n 61407: u64 [s1 + 0x28] = a3\n 61410: i32 a0 = a3 + 0\n 61412: u64 [s1 + 0x1c0] = a0\n 61416: a1 = 0x20\n 61419: ra = 722, jump @0\n      : @784 [@dyn 361] (gas: 59)\n 61426: u8 [a0 + 31] = 0\n 61429: u8 [a0 + 30] = 0\n 61432: u8 [a0 + 29] = 0\n 61435: u8 [a0 + 28] = 0\n 61438: u8 [a0 + 27] = 0\n 61441: u8 [a0 + 26] = 0\n 61444: u8 [a0 + 25] = 0\n 61447: u8 [a0 + 24] = 0\n 61450: u8 [a0 + 23] = 0\n 61453: u8 [a0 + 22] = 0\n 61456: u8 [a0 + 21] = 0\n 61459: u8 [a0 + 20] = 0\n 61462: u8 [a0 + 19] = 0\n 61465: u8 [a0 + 18] = 0\n 61468: u8 [a0 + 17] = 0\n 61471: u8 [a0 + 16] = 0\n 61474: u8 [a0 + 15] = 0\n 61477: u8 [a0 + 14] = 0\n 61480: u8 [a0 + 13] = 0\n 61483: u8 [a0 + 12] = 0\n 61486: u8 [a0 + 11] = 0\n 61489: u8 [a0 + 10] = 0\n 61492: u8 [a0 + 9] = 0\n 61495: u8 [a0 + 8] = 0\n 61498: u8 [a0 + 7] = 0\n 61501: u8 [a0 + 6] = 0\n 61504: u8 [a0 + 5] = 0\n 61507: u8 [a0 + 4] = 0\n 61510: u8 [a0 + 3] = 0xfe\n 61515: u8 [a0 + 2] = 0xb1\n 61520: u8 [a0 + 1] = 0x35\n 61524: u8 [a0 + 0] = 0xa0\n 61528: ecalli 11 // 'ref_time_left'\n 61530: a0 = u64 [s1 + 0x1c8]\n 61534: a0 = reverse a0\n 61536: a1 = a0 << 0x20\n 61539: a2 = u64 [s1 + 0x1d0]\n 61543: a2 = reverse a2\n 61545: a2 = a2 >> 0x20\n 61548: a3 = a2 | a1\n 61551: a1 = u64 [s1 + 0x1d8]\n 61555: a1 = reverse a1\n 61557: a2 = a1 << 0x20\n 61560: a0 = a0 >> 0x20\n 61563: a0 = a0 | a2\n 61566: a1 = a1 >> 0x20\n 61569: u64 [s1 + 0x1c8] = a0\n 61573: u64 [s1 + 0x3e8] = a0\n 61577: u64 [s1 + 0x1d8] = a3\n 61581: u64 [s1 + 0x3e0] = a3\n 61585: u64 [s1 + 0x1d0] = a1\n 61589: u32 [s1 + 0x3f0] = a1\n 61593: u64 [s1 + 1048] = 0\n 61597: u64 [s1 + 1040] = 0\n 61601: u64 [s1 + 1032] = 0\n 61605: u64 [s1 + 1024] = 0\n 61609: a1 = 0x4\n 61612: a0 = u64 [s1 + 0x1c0]\n 61616: ra = 724, jump @0\n      : @785 [@dyn 362] (gas: 4)\n 61623: u64 [s1 + 0x30] = a0\n 61626: a1 = 0x20\n 61629: a0 = u64 [s1 + 0x1c0]\n 61633: ra = 726, jump @0\n      : @786 [@dyn 363] (gas: 31)\n 61640: u32 [s1 + 1056] = 0x20\n 61645: u64 [s1 + 1112] = 0\n 61649: u64 [s1 + 1104] = 0\n 61653: u64 [s1 + 1096] = 0\n 61657: u64 [s1 + 1088] = 0\n 61661: a1 = s1 + 0x3e0\n 61665: a1 = a1 << 0x20\n 61668: a1 = a1 >> 0x20\n 61671: a2 = u64 [s1 + 0x1b0]\n 61675: t0 = a1 | a2\n 61678: a1 = s1 + 0x400\n 61682: a1 = a1 << 0x20\n 61685: a1 = a1 >> 0x20\n 61688: a2 = s1 + 0x440\n 61692: a2 = a2 << 0x20\n 61695: a3 = a2 | a1\n 61698: a1 = u64 [s1 + 0x30]\n 61701: a1 = a1 << 0x20\n 61704: a1 = a1 >> 0x20\n 61707: a4 = u64 [s1 + 0x1b8]\n 61711: a4 = a4 | a1\n 61714: a0 = a0 << 0x20\n 61717: a0 = a0 >> 0x20\n 61720: a1 = s1 + 0x420\n 61724: a1 = a1 << 0x20\n 61727: a5 = a1 | a0\n 61730: a1 = 0xffffffffffffffff\n 61733: a2 = 0xffffffffffffffff\n 61736: a0 = t0\n 61738: ecalli 1 // 'call'\n 61740: fallthrough\n      : @787 (gas: 1)\n 61741: jump @789 if a0 == 0\n      : @788 (gas: 1)\n 61744: jump @881\n      : @789 (gas: 2)\n 61747: ecalli 13 // 'return_data_size'\n 61749: fallthrough\n      : @790 (gas: 2)\n 61750: a1 = 0x20\n 61753: jump @792 if a0 >=u a1\n      : @791 (gas: 3)\n 61756: ecalli 13 // 'return_data_size'\n 61758: a1 = a0\n 61760: fallthrough\n      : @792 (gas: 28)\n 61761: a3 = u64 [s1 + 0x48]\n 61764: t0 = u64 [s1 + 0x40]\n 61767: a2 = u64 [s1 + 0x28]\n 61770: a5 = u64 [s1 + 0x38]\n 61773: a0 = a1 + 0x1f\n 61776: u64 [s1 + 0x40] = a1\n 61779: a1 = a0 <u a1\n 61782: u64 [s1 + 72] = 0\n 61785: a1 = a1 & 0x1\n 61788: a0 = a0 & 0xffffffffffffffe0\n 61791: a2 = a2 + a0\n 61794: u64 [s1 + 0x38] = a2\n 61797: a0 = a2 <u a0\n 61800: a2 = a1 + a5\n 61803: a4 = a2 + a0\n 61806: a2 = a4 ^ a1\n 61809: a1 = a4 <u a1\n 61812: a1 = a0 if a2 == 0\n 61815: a1 = a1 + a3\n 61818: a0 = a1 <u a3\n 61821: a0 = a0 + t0\n 61824: u64 [s1 + 0x28] = a1\n 61827: u64 [s1 + 0x20] = a0\n 61830: a0 = a0 | a1\n 61833: u64 [s1 + 0x30] = a4\n 61836: a1 = a4 <u 0x1\n 61839: a1 = 0 if a0 != 0\n 61841: jump @794 if a1 != 0\n      : @793 (gas: 1)\n 61844: jump @903\n      : @794 (gas: 3)\n 61847: a0 = 0x40\n 61850: a1 = 0x20\n 61853: ra = 728, jump @0\n      : @795 [@dyn 364] (gas: 80)\n 61860: a1 = u64 [s1 + 0x20]\n 61863: a1 = reverse a1\n 61865: a2 = u64 [s1 + 0x28]\n 61868: a2 = reverse a2\n 61870: a3 = u64 [s1 + 0x30]\n 61873: a3 = reverse a3\n 61875: a4 = u64 [s1 + 0x38]\n 61878: a4 = reverse a4\n 61880: u8 [a0 + 0x18] = a4\n 61883: a5 = a4 >> 0x38\n 61886: u8 [a0 + 0x1f] = a5\n 61889: a5 = a4 >> 0x30\n 61892: u8 [a0 + 0x1e] = a5\n 61895: a5 = a4 >> 0x28\n 61898: u8 [a0 + 0x1d] = a5\n 61901: a5 = a4 >> 0x20\n 61904: u8 [a0 + 0x1c] = a5\n 61907: a5 = a4 >> 0x18\n 61910: u8 [a0 + 0x1b] = a5\n 61913: a5 = a4 >> 0x10\n 61916: u8 [a0 + 0x1a] = a5\n 61919: a4 = a4 >> 0x8\n 61922: u8 [a0 + 0x19] = a4\n 61925: u8 [a0 + 0x10] = a3\n 61928: a4 = a3 >> 0x38\n 61931: u8 [a0 + 0x17] = a4\n 61934: a4 = a3 >> 0x30\n 61937: u8 [a0 + 0x16] = a4\n 61940: a4 = a3 >> 0x28\n 61943: u8 [a0 + 0x15] = a4\n 61946: a4 = a3 >> 0x20\n 61949: u8 [a0 + 0x14] = a4\n 61952: a4 = a3 >> 0x18\n 61955: u8 [a0 + 0x13] = a4\n 61958: a4 = a3 >> 0x10\n 61961: u8 [a0 + 0x12] = a4\n 61964: a3 = a3 >> 0x8\n 61967: u8 [a0 + 0x11] = a3\n 61970: u8 [a0 + 0x8] = a2\n 61973: a3 = a2 >> 0x38\n 61976: u8 [a0 + 0xf] = a3\n 61979: a3 = a2 >> 0x30\n 61982: u8 [a0 + 0xe] = a3\n 61985: a3 = a2 >> 0x28\n 61988: u8 [a0 + 0xd] = a3\n 61991: a3 = a2 >> 0x20\n 61994: u8 [a0 + 0xc] = a3\n 61997: a3 = a2 >> 0x18\n 62000: u8 [a0 + 0xb] = a3\n 62003: a3 = a2 >> 0x10\n 62006: u8 [a0 + 0xa] = a3\n 62009: a2 = a2 >> 0x8\n 62012: u8 [a0 + 0x9] = a2\n 62015: u8 [a0] = a1\n 62017: a2 = a1 >> 0x38\n 62020: u8 [a0 + 0x7] = a2\n 62023: a2 = a1 >> 0x30\n 62026: u8 [a0 + 0x6] = a2\n 62029: a2 = a1 >> 0x28\n 62032: u8 [a0 + 0x5] = a2\n 62035: a2 = a1 >> 0x20\n 62038: u8 [a0 + 0x4] = a2\n 62041: a2 = a1 >> 0x18\n 62044: u8 [a0 + 0x3] = a2\n 62047: a2 = a1 >> 0x10\n 62050: u8 [a0 + 0x2] = a2\n 62053: a1 = a1 >> 0x8\n 62056: a5 = u64 [s1 + 0x48]\n 62059: a2 = a5 >u 0\n 62061: a3 = u64 [s1 + 0x40]\n 62064: a3 = a3 <u 0x20\n 62067: a3 = a3 ^ 0x1\n 62070: a3 = a2 if a5 != 0\n 62073: a2 = a5 >u 0\n 62075: a4 = a5 >u 0\n 62077: a4 = a2 if a5 == 0\n 62080: a2 = a5 | a5\n 62083: a4 = a3 if a2 == 0\n 62086: u8 [a0 + 0x1] = a1\n 62089: jump @797 if a4 != 0\n      : @796 (gas: 1)\n 62092: jump @900\n      : @797 (gas: 3)\n 62095: a1 = 0x20\n 62098: a0 = u64 [s1 + 0x1c0]\n 62102: ra = 730, jump @0\n      : @798 [@dyn 365] (gas: 108)\n 62109: a1 = u8 [a0 + 0x1]\n 62112: a2 = u8 [a0]\n 62114: a3 = u8 [a0 + 0x2]\n 62117: a4 = u8 [a0 + 0x3]\n 62120: a1 = a1 << 0x8\n 62123: a1 = a1 | a2\n 62126: a3 = a3 << 0x10\n 62129: a4 = a4 << 0x18\n 62132: a3 = a3 | a4\n 62135: a1 = a1 | a3\n 62138: a2 = u8 [a0 + 0x5]\n 62141: a3 = u8 [a0 + 0x4]\n 62144: a4 = u8 [a0 + 0x6]\n 62147: a5 = u8 [a0 + 0x7]\n 62150: a2 = a2 << 0x8\n 62153: a2 = a2 | a3\n 62156: a4 = a4 << 0x10\n 62159: a5 = a5 << 0x18\n 62162: a4 = a4 | a5\n 62165: a2 = a2 | a4\n 62168: a2 = a2 << 0x20\n 62171: t0 = a2 | a1\n 62174: a2 = u8 [a0 + 0x9]\n 62177: a3 = u8 [a0 + 0x8]\n 62180: a4 = u8 [a0 + 0xa]\n 62183: a5 = u8 [a0 + 0xb]\n 62186: a2 = a2 << 0x8\n 62189: a2 = a2 | a3\n 62192: a4 = a4 << 0x10\n 62195: a5 = a5 << 0x18\n 62198: a4 = a4 | a5\n 62201: t1 = a4 | a2\n 62204: a3 = u8 [a0 + 0x11]\n 62207: a4 = u8 [a0 + 0x10]\n 62210: a5 = u8 [a0 + 0x12]\n 62213: a1 = u8 [a0 + 0x13]\n 62216: a3 = a3 << 0x8\n 62219: a3 = a3 | a4\n 62222: a5 = a5 << 0x10\n 62225: a1 = a1 << 0x18\n 62228: a1 = a1 | a5\n 62231: a1 = a1 | a3\n 62234: a3 = u8 [a0 + 0x15]\n 62237: a4 = u8 [a0 + 0x14]\n 62240: a5 = u8 [a0 + 0x16]\n 62243: a2 = u8 [a0 + 0x17]\n 62246: a3 = a3 << 0x8\n 62249: a3 = a3 | a4\n 62252: a5 = a5 << 0x10\n 62255: a2 = a2 << 0x18\n 62258: a2 = a2 | a5\n 62261: a2 = a2 | a3\n 62264: a2 = a2 << 0x20\n 62267: t2 = a2 | a1\n 62270: a1 = u8 [a0 + 0x19]\n 62273: a2 = u8 [a0 + 0x18]\n 62276: a4 = u8 [a0 + 0x1a]\n 62279: a5 = u8 [a0 + 0x1b]\n 62282: a1 = a1 << 0x8\n 62285: a1 = a1 | a2\n 62288: a4 = a4 << 0x10\n 62291: a5 = a5 << 0x18\n 62294: a4 = a4 | a5\n 62297: a1 = a1 | a4\n 62300: a2 = u8 [a0 + 0x1d]\n 62303: a4 = u8 [a0 + 0x1c]\n 62306: a5 = u8 [a0 + 0x1e]\n 62309: a3 = u8 [a0 + 0x1f]\n 62312: a2 = a2 << 0x8\n 62315: a2 = a2 | a4\n 62318: a5 = a5 << 0x10\n 62321: a3 = a3 << 0x18\n 62324: a3 = a3 | a5\n 62327: a2 = a2 | a3\n 62330: a2 = a2 << 0x20\n 62333: a1 = a1 | a2\n 62336: a2 = reverse t2\n 62338: a3 = u64 [s1 + 0x50]\n 62341: a4 = a3 ^ a2\n 62344: a2 = a3 <u a2\n 62347: a1 = reverse a1\n 62349: a3 = u64 [s1 + 0x58]\n 62352: a3 = a3 <u a1\n 62355: a1 = u8 [a0 + 0xd]\n 62358: a3 = a2 if a4 != 0\n 62361: a2 = u8 [a0 + 0xc]\n 62364: a4 = u8 [a0 + 0xe]\n 62367: a0 = u8 [a0 + 0xf]\n 62370: a1 = a1 << 0x8\n 62373: a1 = a1 | a2\n 62376: a4 = a4 << 0x10\n 62379: a0 = a0 << 0x18\n 62382: a0 = a0 | a4\n 62385: a0 = a0 | a1\n 62388: a0 = a0 << 0x20\n 62391: a0 = a0 | t1\n 62394: a0 = reverse a0\n 62396: a1 = reverse t0\n 62398: a4 = u64 [s1 + 0x60]\n 62401: a2 = a4 ^ a1\n 62404: a1 = a4 <u a1\n 62407: a5 = u64 [s1 + 0x68]\n 62410: a4 = a5 <u a0\n 62413: a4 = a1 if a2 != 0\n 62416: a0 = a0 ^ a5\n 62419: a0 = a0 | a2\n 62422: a3 = a4 if a0 != 0\n 62425: jump @800 if a3 == 0\n      : @799 (gas: 1)\n 62428: jump @887\n      : @800 (gas: 21)\n 62431: a0 = u64 [s1 + 0x78]\n 62434: a1 = u64 [s1 + 0x70]\n 62437: a0 = a0 | a1\n 62440: a1 = u64 [s1 + 0x188]\n 62444: a2 = u64 [s1 + 0x80]\n 62448: a1 = a1 | a2\n 62451: a1 = a1 | a0\n 62454: a0 = u64 [s1 + 0x88]\n 62458: a0 = reverse a0\n 62460: u64 [s1 + 0x1c0] = a0\n 62464: a0 = u64 [s1 + 0x170]\n 62468: a0 = reverse a0\n 62470: u64 [s1 + 0x188] = a0\n 62474: a0 = u64 [s1 + 0x180]\n 62478: a0 = reverse a0\n 62480: u64 [s1 + 0x180] = a0\n 62484: a0 = u64 [s1 + 0x178]\n 62488: a0 = reverse a0\n 62490: u64 [s1 + 0x178] = a0\n 62494: u64 [s1 + 0x88] = a1\n 62498: jump @802 if a1 != 0\n      : @801 (gas: 1)\n 62501: jump @862\n      : @802 (gas: 3)\n 62504: a1 = 0x20\n 62507: a0 = 0\n 62509: ra = 732, jump @0\n      : @803 [@dyn 366] (gas: 67)\n 62516: a1 = u64 [s1 + 0x198]\n 62520: u8 [a0 + 0x10] = a1\n 62523: a1 = u64 [s1 + 0xf8]\n 62527: u8 [a0 + 0xf] = a1\n 62530: a1 = u64 [s1 + 0xf0]\n 62534: u8 [a0 + 0xe] = a1\n 62537: a1 = u64 [s1 + 0xe8]\n 62541: u8 [a0 + 0xd] = a1\n 62544: a1 = u64 [s1 + 0xe0]\n 62548: u8 [a0 + 0xc] = a1\n 62551: a1 = u64 [s1 + 0xd8]\n 62555: u8 [a0 + 0xb] = a1\n 62558: a1 = u64 [s1 + 0xd0]\n 62562: u8 [a0 + 0xa] = a1\n 62565: a1 = u64 [s1 + 0xc8]\n 62569: u8 [a0 + 0x9] = a1\n 62572: a1 = u64 [s1 + 0x1a0]\n 62576: u8 [a0 + 0x8] = a1\n 62579: a1 = u64 [s1 + 0xc0]\n 62583: u8 [a0 + 0x7] = a1\n 62586: a1 = u64 [s1 + 0xb8]\n 62590: u8 [a0 + 0x6] = a1\n 62593: a1 = u64 [s1 + 0xb0]\n 62597: u8 [a0 + 0x5] = a1\n 62600: a1 = u64 [s1 + 0xa8]\n 62604: u8 [a0 + 0x4] = a1\n 62607: a1 = u64 [s1 + 0xa0]\n 62611: u8 [a0 + 0x3] = a1\n 62614: a1 = u64 [s1 + 0x98]\n 62618: u8 [a0 + 0x2] = a1\n 62621: a1 = u64 [s1 + 0x90]\n 62625: u8 [a0 + 0x1] = a1\n 62628: a1 = u64 [s1 + 0x1a8]\n 62632: u8 [a0] = a1\n 62634: a1 = u64 [s1 + 0x190]\n 62638: u8 [a0 + 0x18] = a1\n 62641: a1 = u64 [s1 + 0x130]\n 62645: u8 [a0 + 0x17] = a1\n 62648: a1 = u64 [s1 + 0x128]\n 62652: u8 [a0 + 0x16] = a1\n 62655: a1 = u64 [s1 + 0x120]\n 62659: u8 [a0 + 0x15] = a1\n 62662: a1 = u64 [s1 + 0x118]\n 62666: u8 [a0 + 0x14] = a1\n 62669: a1 = u64 [s1 + 0x110]\n 62673: u8 [a0 + 0x13] = a1\n 62676: a1 = u64 [s1 + 0x108]\n 62680: u8 [a0 + 0x12] = a1\n 62683: a1 = u64 [s1 + 0x100]\n 62687: u8 [a0 + 0x11] = a1\n 62690: a1 = u64 [s1 + 0x168]\n 62694: u8 [a0 + 0x1f] = a1\n 62697: a1 = u64 [s1 + 0x160]\n 62701: u8 [a0 + 0x1e] = a1\n 62704: a1 = u64 [s1 + 0x158]\n 62708: u8 [a0 + 0x1d] = a1\n 62711: a1 = u64 [s1 + 0x150]\n 62715: u8 [a0 + 0x1c] = a1\n 62718: a1 = u64 [s1 + 0x148]\n 62722: u8 [a0 + 0x1b] = a1\n 62725: a1 = u64 [s1 + 0x140]\n 62729: u8 [a0 + 0x1a] = a1\n 62732: a1 = u64 [s1 + 0x138]\n 62736: u8 [a0 + 0x19] = a1\n 62739: a0 = 0x20\n 62742: a1 = 0x20\n 62745: ra = 734, jump @0\n      : @804 [@dyn 367] (gas: 35)\n 62752: u8 [a0 + 31] = 0x2\n 62756: u8 [a0 + 30] = 0\n 62759: u8 [a0 + 29] = 0\n 62762: u8 [a0 + 28] = 0\n 62765: u8 [a0 + 27] = 0\n 62768: u8 [a0 + 26] = 0\n 62771: u8 [a0 + 25] = 0\n 62774: u8 [a0 + 24] = 0\n 62777: u8 [a0 + 23] = 0\n 62780: u8 [a0 + 22] = 0\n 62783: u8 [a0 + 21] = 0\n 62786: u8 [a0 + 20] = 0\n 62789: u8 [a0 + 19] = 0\n 62792: u8 [a0 + 18] = 0\n 62795: u8 [a0 + 17] = 0\n 62798: u8 [a0 + 16] = 0\n 62801: u8 [a0 + 15] = 0\n 62804: u8 [a0 + 14] = 0\n 62807: u8 [a0 + 13] = 0\n 62810: u8 [a0 + 12] = 0\n 62813: u8 [a0 + 11] = 0\n 62816: u8 [a0 + 10] = 0\n 62819: u8 [a0 + 9] = 0\n 62822: u8 [a0 + 8] = 0\n 62825: u8 [a0 + 7] = 0\n 62828: u8 [a0 + 6] = 0\n 62831: u8 [a0 + 5] = 0\n 62834: u8 [a0 + 4] = 0\n 62837: u8 [a0 + 3] = 0\n 62840: u8 [a0 + 2] = 0\n 62843: u8 [a0 + 1] = 0\n 62846: u8 [a0 + 0] = 0\n 62848: a1 = 0x40\n 62851: a0 = 0\n 62853: ra = 736, jump @0\n      : @805 [@dyn 368] (gas: 38)\n 62860: i32 a0 = a0 + 0\n 62862: i32 a2 = s1 + 0x6e0\n 62866: a1 = 0x40\n 62869: ecalli 9 // 'hash_keccak_256'\n 62871: a0 = u64 [s1 + 0x6f8]\n 62875: a1 = u64 [s1 + 0x6f0]\n 62879: a2 = u64 [s1 + 0x6e8]\n 62883: a3 = u64 [s1 + 0x6e0]\n 62887: a0 = reverse a0\n 62889: a1 = reverse a1\n 62891: a2 = reverse a2\n 62893: a3 = reverse a3\n 62895: u64 [s1 + 0x798] = a3\n 62899: u64 [s1 + 0x790] = a2\n 62903: u64 [s1 + 0x788] = a1\n 62907: u64 [s1 + 0x780] = a0\n 62911: u64 [s1 + 1784] = 0\n 62915: u64 [s1 + 1776] = 0\n 62919: u64 [s1 + 1768] = 0\n 62923: u64 [s1 + 1760] = 0\n 62927: u32 [s1 + 1888] = 0x20\n 62932: i32 a1 = s1 + 0x780\n 62936: i32 a3 = s1 + 0x6e0\n 62940: i32 a4 = s1 + 0x760\n 62944: a2 = 0xffffffffffffffff\n 62947: a0 = 0\n 62949: ecalli 8 // 'get_storage'\n 62951: a0 = u64 [s1 + 0x6f8]\n 62955: u64 [s1 + 0x78] = a0\n 62958: a0 = u64 [s1 + 0x6f0]\n 62962: u64 [s1 + 0x80] = a0\n 62966: a0 = u64 [s1 + 0x6e8]\n 62970: u64 [s1 + 0x68] = a0\n 62973: a0 = u64 [s1 + 0x6e0]\n 62977: u64 [s1 + 0x70] = a0\n 62980: a0 = 0x40\n 62983: a1 = 0x20\n 62986: ra = 738, jump @0\n      : @806 [@dyn 369] (gas: 103)\n 62993: a1 = u8 [a0 + 0x11]\n 62996: a2 = u8 [a0 + 0x10]\n 62999: a3 = u8 [a0 + 0x12]\n 63002: a4 = u8 [a0 + 0x13]\n 63005: a1 = a1 << 0x8\n 63008: a1 = a1 | a2\n 63011: a3 = a3 << 0x10\n 63014: a4 = a4 << 0x18\n 63017: a3 = a3 | a4\n 63020: a1 = a1 | a3\n 63023: a2 = u8 [a0 + 0x15]\n 63026: a3 = u8 [a0 + 0x14]\n 63029: a4 = u8 [a0 + 0x16]\n 63032: a5 = u8 [a0 + 0x17]\n 63035: a2 = a2 << 0x8\n 63038: a2 = a2 | a3\n 63041: a4 = a4 << 0x10\n 63044: a5 = a5 << 0x18\n 63047: a4 = a4 | a5\n 63050: a2 = a2 | a4\n 63053: a2 = a2 << 0x20\n 63056: t0 = a2 | a1\n 63059: a2 = u8 [a0 + 0x1]\n 63062: a3 = u8 [a0]\n 63064: a4 = u8 [a0 + 0x2]\n 63067: a5 = u8 [a0 + 0x3]\n 63070: a2 = a2 << 0x8\n 63073: a2 = a2 | a3\n 63076: a4 = a4 << 0x10\n 63079: a5 = a5 << 0x18\n 63082: a4 = a4 | a5\n 63085: a2 = a2 | a4\n 63088: a3 = u8 [a0 + 0x5]\n 63091: a4 = u8 [a0 + 0x4]\n 63094: a5 = u8 [a0 + 0x6]\n 63097: a1 = u8 [a0 + 0x7]\n 63100: a3 = a3 << 0x8\n 63103: a3 = a3 | a4\n 63106: a5 = a5 << 0x10\n 63109: a1 = a1 << 0x18\n 63112: a1 = a1 | a5\n 63115: a1 = a1 | a3\n 63118: a1 = a1 << 0x20\n 63121: t1 = a1 | a2\n 63124: a1 = u8 [a0 + 0x19]\n 63127: a3 = u8 [a0 + 0x18]\n 63130: a4 = u8 [a0 + 0x1a]\n 63133: a5 = u8 [a0 + 0x1b]\n 63136: a1 = a1 << 0x8\n 63139: a1 = a1 | a3\n 63142: a4 = a4 << 0x10\n 63145: a5 = a5 << 0x18\n 63148: a4 = a4 | a5\n 63151: a1 = a1 | a4\n 63154: a3 = u8 [a0 + 0x1d]\n 63157: a4 = u8 [a0 + 0x1c]\n 63160: a5 = u8 [a0 + 0x1e]\n 63163: a2 = u8 [a0 + 0x1f]\n 63166: a3 = a3 << 0x8\n 63169: a3 = a3 | a4\n 63172: a5 = a5 << 0x10\n 63175: a2 = a2 << 0x18\n 63178: a2 = a2 | a5\n 63181: a2 = a2 | a3\n 63184: a2 = a2 << 0x20\n 63187: a3 = a2 | a1\n 63190: a1 = u8 [a0 + 0x9]\n 63193: a2 = u8 [a0 + 0x8]\n 63196: a4 = u8 [a0 + 0xa]\n 63199: a5 = u8 [a0 + 0xb]\n 63202: a1 = a1 << 0x8\n 63205: a1 = a1 | a2\n 63208: a4 = a4 << 0x10\n 63211: a5 = a5 << 0x18\n 63214: a4 = a4 | a5\n 63217: a1 = a1 | a4\n 63220: a2 = u8 [a0 + 0xd]\n 63223: a4 = u8 [a0 + 0xc]\n 63226: a5 = u8 [a0 + 0xe]\n 63229: a0 = u8 [a0 + 0xf]\n 63232: a2 = a2 << 0x8\n 63235: a2 = a2 | a4\n 63238: a5 = a5 << 0x10\n 63241: a0 = a0 << 0x18\n 63244: a0 = a0 | a5\n 63247: a0 = a0 | a2\n 63250: a0 = a0 << 0x20\n 63253: a0 = a0 | a1\n 63256: a2 = reverse a0\n 63258: a3 = reverse a3\n 63260: a0 = reverse t1\n 63262: a1 = reverse t0\n 63264: u64 [s1 + 0x58] = a0\n 63267: u64 [s1 + 0x50] = a1\n 63270: a0 = a0 | a1\n 63273: a1 = a3 | a2\n 63276: a1 = a1 | a0\n 63279: a1 = a1 >> 0x20\n 63282: u64 [s1 + 0x60] = a2\n 63285: a0 = a0 | a2\n 63288: a0 = a0 << 0x20\n 63291: a0 = a0 | a1\n 63294: jump @808 if a0 == 0\n      : @807 (gas: 1)\n 63297: jump @899\n      : @808 (gas: 5)\n 63300: u64 [s1 + 0x40] = a3\n 63303: i32 a0 = a3 + 0\n 63305: u64 [s1 + 0x170] = a0\n 63309: a1 = 0x20\n 63312: ra = 740, jump @0\n      : @809 [@dyn 370] (gas: 46)\n 63319: u8 [a0 + 31] = 0\n 63322: u8 [a0 + 30] = 0\n 63325: u8 [a0 + 29] = 0\n 63328: u8 [a0 + 28] = 0\n 63331: u8 [a0 + 27] = 0\n 63334: u8 [a0 + 26] = 0\n 63337: u8 [a0 + 25] = 0\n 63340: u8 [a0 + 24] = 0\n 63343: u8 [a0 + 23] = 0\n 63346: u8 [a0 + 22] = 0\n 63349: u8 [a0 + 21] = 0\n 63352: u8 [a0 + 20] = 0\n 63355: u8 [a0 + 19] = 0\n 63358: u8 [a0 + 18] = 0\n 63361: u8 [a0 + 17] = 0\n 63364: u8 [a0 + 16] = 0\n 63367: u8 [a0 + 15] = 0\n 63370: u8 [a0 + 14] = 0\n 63373: u8 [a0 + 13] = 0\n 63376: u8 [a0 + 12] = 0\n 63379: u8 [a0 + 11] = 0\n 63382: u8 [a0 + 10] = 0\n 63385: u8 [a0 + 9] = 0\n 63388: u8 [a0 + 8] = 0\n 63391: u8 [a0 + 7] = 0\n 63394: u8 [a0 + 6] = 0\n 63397: u8 [a0 + 5] = 0\n 63400: u8 [a0 + 4] = 0\n 63403: u8 [a0 + 3] = 0xfe\n 63408: u8 [a0 + 2] = 0xb1\n 63413: u8 [a0 + 1] = 0x35\n 63417: u8 [a0 + 0] = 0xa0\n 63421: ecalli 11 // 'ref_time_left'\n 63423: a0 = u64 [s1 + 0x1c8]\n 63427: u64 [s1 + 0x508] = a0\n 63431: a0 = u64 [s1 + 0x1d8]\n 63435: u64 [s1 + 0x500] = a0\n 63439: a0 = u64 [s1 + 0x1d0]\n 63443: u32 [s1 + 0x510] = a0\n 63447: u64 [s1 + 1336] = 0\n 63451: u64 [s1 + 1328] = 0\n 63455: u64 [s1 + 1320] = 0\n 63459: u64 [s1 + 1312] = 0\n 63463: a1 = 0x4\n 63466: a0 = u64 [s1 + 0x170]\n 63470: ra = 742, jump @0\n      : @810 [@dyn 371] (gas: 4)\n 63477: u64 [s1 + 0x48] = a0\n 63480: a1 = 0x20\n 63483: a0 = u64 [s1 + 0x170]\n 63487: ra = 744, jump @0\n      : @811 [@dyn 372] (gas: 31)\n 63494: u32 [s1 + 1344] = 0x20\n 63499: u64 [s1 + 1400] = 0\n 63503: u64 [s1 + 1392] = 0\n 63507: u64 [s1 + 1384] = 0\n 63511: u64 [s1 + 1376] = 0\n 63515: a1 = s1 + 0x500\n 63519: a1 = a1 << 0x20\n 63522: a1 = a1 >> 0x20\n 63525: a2 = u64 [s1 + 0x1b0]\n 63529: t0 = a1 | a2\n 63532: a1 = s1 + 0x520\n 63536: a1 = a1 << 0x20\n 63539: a1 = a1 >> 0x20\n 63542: a2 = s1 + 0x560\n 63546: a2 = a2 << 0x20\n 63549: a3 = a2 | a1\n 63552: a1 = u64 [s1 + 0x48]\n 63555: a1 = a1 << 0x20\n 63558: a1 = a1 >> 0x20\n 63561: a4 = u64 [s1 + 0x1b8]\n 63565: a4 = a4 | a1\n 63568: a0 = a0 << 0x20\n 63571: a0 = a0 >> 0x20\n 63574: a1 = s1 + 0x540\n 63578: a1 = a1 << 0x20\n 63581: a5 = a1 | a0\n 63584: a1 = 0xffffffffffffffff\n 63587: a2 = 0xffffffffffffffff\n 63590: a0 = t0\n 63592: ecalli 1 // 'call'\n 63594: fallthrough\n      : @812 (gas: 1)\n 63595: jump @814 if a0 == 0\n      : @813 (gas: 1)\n 63598: jump @881\n      : @814 (gas: 2)\n 63601: ecalli 13 // 'return_data_size'\n 63603: fallthrough\n      : @815 (gas: 2)\n 63604: a1 = 0x20\n 63607: jump @817 if a0 >=u a1\n      : @816 (gas: 3)\n 63610: ecalli 13 // 'return_data_size'\n 63612: a1 = a0\n 63614: fallthrough\n      : @817 (gas: 28)\n 63615: a3 = u64 [s1 + 0x60]\n 63618: t0 = u64 [s1 + 0x58]\n 63621: a5 = u64 [s1 + 0x40]\n 63624: a4 = u64 [s1 + 0x50]\n 63627: a0 = a1 + 0x1f\n 63630: u64 [s1 + 0x58] = a1\n 63633: a1 = a0 <u a1\n 63636: u64 [s1 + 96] = 0\n 63639: a1 = a1 & 0x1\n 63642: a0 = a0 & 0xffffffffffffffe0\n 63645: a5 = a5 + a0\n 63648: u64 [s1 + 0x50] = a5\n 63651: a0 = a5 <u a0\n 63654: a2 = a1 + a4\n 63657: a4 = a2 + a0\n 63660: a2 = a4 ^ a1\n 63663: a1 = a4 <u a1\n 63666: a1 = a0 if a2 == 0\n 63669: a1 = a1 + a3\n 63672: a0 = a1 <u a3\n 63675: a0 = a0 + t0\n 63678: u64 [s1 + 0x40] = a1\n 63681: u64 [s1 + 0x38] = a0\n 63684: a0 = a0 | a1\n 63687: u64 [s1 + 0x48] = a4\n 63690: a1 = a4 <u 0x1\n 63693: a1 = 0 if a0 != 0\n 63695: jump @819 if a1 != 0\n      : @818 (gas: 1)\n 63698: jump @905\n      : @819 (gas: 3)\n 63701: a0 = 0x40\n 63704: a1 = 0x20\n 63707: ra = 746, jump @0\n      : @820 [@dyn 373] (gas: 80)\n 63714: a1 = u64 [s1 + 0x38]\n 63717: a1 = reverse a1\n 63719: a2 = u64 [s1 + 0x40]\n 63722: a2 = reverse a2\n 63724: a3 = u64 [s1 + 0x48]\n 63727: a3 = reverse a3\n 63729: a4 = u64 [s1 + 0x50]\n 63732: a4 = reverse a4\n 63734: u8 [a0 + 0x18] = a4\n 63737: a5 = a4 >> 0x38\n 63740: u8 [a0 + 0x1f] = a5\n 63743: a5 = a4 >> 0x30\n 63746: u8 [a0 + 0x1e] = a5\n 63749: a5 = a4 >> 0x28\n 63752: u8 [a0 + 0x1d] = a5\n 63755: a5 = a4 >> 0x20\n 63758: u8 [a0 + 0x1c] = a5\n 63761: a5 = a4 >> 0x18\n 63764: u8 [a0 + 0x1b] = a5\n 63767: a5 = a4 >> 0x10\n 63770: u8 [a0 + 0x1a] = a5\n 63773: a4 = a4 >> 0x8\n 63776: u8 [a0 + 0x19] = a4\n 63779: u8 [a0 + 0x10] = a3\n 63782: a4 = a3 >> 0x38\n 63785: u8 [a0 + 0x17] = a4\n 63788: a4 = a3 >> 0x30\n 63791: u8 [a0 + 0x16] = a4\n 63794: a4 = a3 >> 0x28\n 63797: u8 [a0 + 0x15] = a4\n 63800: a4 = a3 >> 0x20\n 63803: u8 [a0 + 0x14] = a4\n 63806: a4 = a3 >> 0x18\n 63809: u8 [a0 + 0x13] = a4\n 63812: a4 = a3 >> 0x10\n 63815: u8 [a0 + 0x12] = a4\n 63818: a3 = a3 >> 0x8\n 63821: u8 [a0 + 0x11] = a3\n 63824: u8 [a0 + 0x8] = a2\n 63827: a3 = a2 >> 0x38\n 63830: u8 [a0 + 0xf] = a3\n 63833: a3 = a2 >> 0x30\n 63836: u8 [a0 + 0xe] = a3\n 63839: a3 = a2 >> 0x28\n 63842: u8 [a0 + 0xd] = a3\n 63845: a3 = a2 >> 0x20\n 63848: u8 [a0 + 0xc] = a3\n 63851: a3 = a2 >> 0x18\n 63854: u8 [a0 + 0xb] = a3\n 63857: a3 = a2 >> 0x10\n 63860: u8 [a0 + 0xa] = a3\n 63863: a2 = a2 >> 0x8\n 63866: u8 [a0 + 0x9] = a2\n 63869: u8 [a0] = a1\n 63871: a2 = a1 >> 0x38\n 63874: u8 [a0 + 0x7] = a2\n 63877: a2 = a1 >> 0x30\n 63880: u8 [a0 + 0x6] = a2\n 63883: a2 = a1 >> 0x28\n 63886: u8 [a0 + 0x5] = a2\n 63889: a2 = a1 >> 0x20\n 63892: u8 [a0 + 0x4] = a2\n 63895: a2 = a1 >> 0x18\n 63898: u8 [a0 + 0x3] = a2\n 63901: a2 = a1 >> 0x10\n 63904: u8 [a0 + 0x2] = a2\n 63907: a1 = a1 >> 0x8\n 63910: a5 = u64 [s1 + 0x60]\n 63913: a2 = a5 >u 0\n 63915: a3 = u64 [s1 + 0x58]\n 63918: a3 = a3 <u 0x20\n 63921: a3 = a3 ^ 0x1\n 63924: a3 = a2 if a5 != 0\n 63927: a2 = a5 >u 0\n 63929: a4 = a5 >u 0\n 63931: a4 = a2 if a5 == 0\n 63934: a2 = a5 | a5\n 63937: a4 = a3 if a2 == 0\n 63940: u8 [a0 + 0x1] = a1\n 63943: jump @822 if a4 != 0\n      : @821 (gas: 1)\n 63946: jump @900\n      : @822 (gas: 3)\n 63949: a1 = 0x20\n 63952: a0 = u64 [s1 + 0x170]\n 63956: ra = 748, jump @0\n      : @823 [@dyn 374] (gas: 112)\n 63963: a1 = u8 [a0 + 0x1]\n 63966: a2 = u8 [a0]\n 63968: a3 = u8 [a0 + 0x2]\n 63971: a4 = u8 [a0 + 0x3]\n 63974: a1 = a1 << 0x8\n 63977: a1 = a1 | a2\n 63980: a3 = a3 << 0x10\n 63983: a4 = a4 << 0x18\n 63986: a3 = a3 | a4\n 63989: a1 = a1 | a3\n 63992: a2 = u8 [a0 + 0x5]\n 63995: a3 = u8 [a0 + 0x4]\n 63998: a4 = u8 [a0 + 0x6]\n 64001: a5 = u8 [a0 + 0x7]\n 64004: a2 = a2 << 0x8\n 64007: a2 = a2 | a3\n 64010: a4 = a4 << 0x10\n 64013: a5 = a5 << 0x18\n 64016: a4 = a4 | a5\n 64019: a2 = a2 | a4\n 64022: a2 = a2 << 0x20\n 64025: t0 = a2 | a1\n 64028: a2 = u8 [a0 + 0x9]\n 64031: a3 = u8 [a0 + 0x8]\n 64034: a4 = u8 [a0 + 0xa]\n 64037: a5 = u8 [a0 + 0xb]\n 64040: a2 = a2 << 0x8\n 64043: a2 = a2 | a3\n 64046: a4 = a4 << 0x10\n 64049: a5 = a5 << 0x18\n 64052: a4 = a4 | a5\n 64055: t1 = a4 | a2\n 64058: a3 = u8 [a0 + 0x11]\n 64061: a4 = u8 [a0 + 0x10]\n 64064: a5 = u8 [a0 + 0x12]\n 64067: a1 = u8 [a0 + 0x13]\n 64070: a3 = a3 << 0x8\n 64073: a3 = a3 | a4\n 64076: a5 = a5 << 0x10\n 64079: a1 = a1 << 0x18\n 64082: a1 = a1 | a5\n 64085: a1 = a1 | a3\n 64088: a3 = u8 [a0 + 0x15]\n 64091: a4 = u8 [a0 + 0x14]\n 64094: a5 = u8 [a0 + 0x16]\n 64097: a2 = u8 [a0 + 0x17]\n 64100: a3 = a3 << 0x8\n 64103: a3 = a3 | a4\n 64106: a5 = a5 << 0x10\n 64109: a2 = a2 << 0x18\n 64112: a2 = a2 | a5\n 64115: a2 = a2 | a3\n 64118: a2 = a2 << 0x20\n 64121: t2 = a2 | a1\n 64124: a1 = u8 [a0 + 0x19]\n 64127: a2 = u8 [a0 + 0x18]\n 64130: a4 = u8 [a0 + 0x1a]\n 64133: a5 = u8 [a0 + 0x1b]\n 64136: a1 = a1 << 0x8\n 64139: a1 = a1 | a2\n 64142: a4 = a4 << 0x10\n 64145: a5 = a5 << 0x18\n 64148: a4 = a4 | a5\n 64151: a1 = a1 | a4\n 64154: a2 = u8 [a0 + 0x1d]\n 64157: a4 = u8 [a0 + 0x1c]\n 64160: a5 = u8 [a0 + 0x1e]\n 64163: a3 = u8 [a0 + 0x1f]\n 64166: a2 = a2 << 0x8\n 64169: a2 = a2 | a4\n 64172: a5 = a5 << 0x10\n 64175: a3 = a3 << 0x18\n 64178: a3 = a3 | a5\n 64181: a2 = a2 | a3\n 64184: a2 = a2 << 0x20\n 64187: a1 = a1 | a2\n 64190: a2 = reverse t2\n 64192: a4 = u64 [s1 + 0x68]\n 64195: a3 = a4 ^ a2\n 64198: a2 = a4 <u a2\n 64201: a1 = reverse a1\n 64203: a4 = u64 [s1 + 0x70]\n 64206: a4 = a4 <u a1\n 64209: a1 = u8 [a0 + 0xd]\n 64212: a4 = a2 if a3 != 0\n 64215: a5 = a4\n 64217: a2 = u8 [a0 + 0xc]\n 64220: a3 = u8 [a0 + 0xe]\n 64223: a0 = u8 [a0 + 0xf]\n 64226: a1 = a1 << 0x8\n 64229: a1 = a1 | a2\n 64232: a3 = a3 << 0x10\n 64235: a0 = a0 << 0x18\n 64238: a0 = a0 | a3\n 64241: a0 = a0 | a1\n 64244: a0 = a0 << 0x20\n 64247: a0 = a0 | t1\n 64250: a0 = reverse a0\n 64252: a1 = reverse t0\n 64254: a3 = u64 [s1 + 0x78]\n 64257: a2 = a3 ^ a1\n 64260: a1 = a3 <u a1\n 64263: a4 = u64 [s1 + 0x80]\n 64267: a3 = a4 <u a0\n 64270: a3 = a1 if a2 != 0\n 64273: a0 = a0 ^ a4\n 64276: a0 = a0 | a2\n 64279: a5 = a3 if a0 != 0\n 64282: u64 [s1 + 0x170] = a5\n 64286: a0 = 0x40\n 64289: a1 = 0x20\n 64292: ra = 750, jump @0\n      : @824 [@dyn 375] (gas: 98)\n 64299: a1 = u8 [a0 + 0x19]\n 64302: a2 = u8 [a0 + 0x18]\n 64305: a3 = u8 [a0 + 0x1a]\n 64308: a4 = u8 [a0 + 0x1b]\n 64311: a1 = a1 << 0x8\n 64314: a1 = a1 | a2\n 64317: a3 = a3 << 0x10\n 64320: a4 = a4 << 0x18\n 64323: a3 = a3 | a4\n 64326: a1 = a1 | a3\n 64329: a2 = u8 [a0 + 0x1d]\n 64332: a3 = u8 [a0 + 0x1c]\n 64335: a4 = u8 [a0 + 0x1e]\n 64338: a5 = u8 [a0 + 0x1f]\n 64341: a2 = a2 << 0x8\n 64344: a2 = a2 | a3\n 64347: a4 = a4 << 0x10\n 64350: a5 = a5 << 0x18\n 64353: a4 = a4 | a5\n 64356: a2 = a2 | a4\n 64359: a2 = a2 << 0x20\n 64362: t0 = a2 | a1\n 64365: a2 = u8 [a0 + 0x11]\n 64368: a3 = u8 [a0 + 0x10]\n 64371: a4 = u8 [a0 + 0x12]\n 64374: a5 = u8 [a0 + 0x13]\n 64377: a2 = a2 << 0x8\n 64380: a2 = a2 | a3\n 64383: a4 = a4 << 0x10\n 64386: a5 = a5 << 0x18\n 64389: a4 = a4 | a5\n 64392: a2 = a2 | a4\n 64395: a3 = u8 [a0 + 0x15]\n 64398: a4 = u8 [a0 + 0x14]\n 64401: a5 = u8 [a0 + 0x16]\n 64404: a1 = u8 [a0 + 0x17]\n 64407: a3 = a3 << 0x8\n 64410: a3 = a3 | a4\n 64413: a5 = a5 << 0x10\n 64416: a1 = a1 << 0x18\n 64419: a1 = a1 | a5\n 64422: a1 = a1 | a3\n 64425: a1 = a1 << 0x20\n 64428: t1 = a1 | a2\n 64431: a1 = u8 [a0 + 0x9]\n 64434: a3 = u8 [a0 + 0x8]\n 64437: a4 = u8 [a0 + 0xa]\n 64440: a5 = u8 [a0 + 0xb]\n 64443: a1 = a1 << 0x8\n 64446: a1 = a1 | a3\n 64449: a4 = a4 << 0x10\n 64452: a5 = a5 << 0x18\n 64455: a4 = a4 | a5\n 64458: a1 = a1 | a4\n 64461: a3 = u8 [a0 + 0xd]\n 64464: a4 = u8 [a0 + 0xc]\n 64467: a5 = u8 [a0 + 0xe]\n 64470: a2 = u8 [a0 + 0xf]\n 64473: a3 = a3 << 0x8\n 64476: a3 = a3 | a4\n 64479: a5 = a5 << 0x10\n 64482: a2 = a2 << 0x18\n 64485: a2 = a2 | a5\n 64488: a2 = a2 | a3\n 64491: a2 = a2 << 0x20\n 64494: a3 = a2 | a1\n 64497: a1 = u8 [a0 + 0x1]\n 64500: a2 = u8 [a0]\n 64502: a4 = u8 [a0 + 0x2]\n 64505: a5 = u8 [a0 + 0x3]\n 64508: a1 = a1 << 0x8\n 64511: a1 = a1 | a2\n 64514: a4 = a4 << 0x10\n 64517: a5 = a5 << 0x18\n 64520: a4 = a4 | a5\n 64523: a1 = a1 | a4\n 64526: a2 = u8 [a0 + 0x5]\n 64529: a4 = u8 [a0 + 0x4]\n 64532: a5 = u8 [a0 + 0x6]\n 64535: a0 = u8 [a0 + 0x7]\n 64538: a2 = a2 << 0x8\n 64541: a2 = a2 | a4\n 64544: a5 = a5 << 0x10\n 64547: a0 = a0 << 0x18\n 64550: a0 = a0 | a5\n 64553: a0 = a0 | a2\n 64556: a0 = a0 << 0x20\n 64559: a0 = a0 | a1\n 64562: a1 = reverse a0\n 64564: a2 = reverse a3\n 64566: a3 = reverse t1\n 64568: a4 = reverse t0\n 64570: a0 = u64 [s1 + 0x170]\n 64574: u64 [s1 + 0x80] = a1\n 64578: u64 [s1 + 0x78] = a2\n 64581: u64 [s1 + 0x70] = a3\n 64584: u64 [s1 + 0x68] = a4\n 64587: jump @826 if a0 == 0\n      : @825 (gas: 1)\n 64590: jump @895\n      : @826 (gas: 8)\n 64593: a0 = a4 | a2\n 64596: a1 = a1 | a3\n 64599: a0 = a0 | a1\n 64602: a0 = a0 >> 0x20\n 64605: a1 = a1 | a2\n 64608: a1 = a1 << 0x20\n 64611: a0 = a0 | a1\n 64614: jump @828 if a0 == 0\n      : @827 (gas: 1)\n 64617: jump @899\n      : @828 (gas: 4)\n 64620: i32 a0 = a4 + 0\n 64622: u64 [s1 + 0x170] = a0\n 64626: a1 = 0x20\n 64629: ra = 752, jump @0\n      : @829 [@dyn 376] (gas: 46)\n 64636: u8 [a0 + 31] = 0\n 64639: u8 [a0 + 30] = 0\n 64642: u8 [a0 + 29] = 0\n 64645: u8 [a0 + 28] = 0\n 64648: u8 [a0 + 27] = 0\n 64651: u8 [a0 + 26] = 0\n 64654: u8 [a0 + 25] = 0\n 64657: u8 [a0 + 24] = 0\n 64660: u8 [a0 + 23] = 0\n 64663: u8 [a0 + 22] = 0\n 64666: u8 [a0 + 21] = 0\n 64669: u8 [a0 + 20] = 0\n 64672: u8 [a0 + 19] = 0\n 64675: u8 [a0 + 18] = 0\n 64678: u8 [a0 + 17] = 0\n 64681: u8 [a0 + 16] = 0\n 64684: u8 [a0 + 15] = 0\n 64687: u8 [a0 + 14] = 0\n 64690: u8 [a0 + 13] = 0\n 64693: u8 [a0 + 12] = 0\n 64696: u8 [a0 + 11] = 0\n 64699: u8 [a0 + 10] = 0\n 64702: u8 [a0 + 9] = 0\n 64705: u8 [a0 + 8] = 0\n 64708: u8 [a0 + 7] = 0\n 64711: u8 [a0 + 6] = 0\n 64714: u8 [a0 + 5] = 0\n 64717: u8 [a0 + 4] = 0\n 64720: u8 [a0 + 3] = 0xfe\n 64725: u8 [a0 + 2] = 0xb1\n 64730: u8 [a0 + 1] = 0x35\n 64734: u8 [a0 + 0] = 0xa0\n 64738: ecalli 11 // 'ref_time_left'\n 64740: a0 = u64 [s1 + 0x1c8]\n 64744: u64 [s1 + 0x588] = a0\n 64748: a0 = u64 [s1 + 0x1d8]\n 64752: u64 [s1 + 0x580] = a0\n 64756: a0 = u64 [s1 + 0x1d0]\n 64760: u32 [s1 + 0x590] = a0\n 64764: u64 [s1 + 1464] = 0\n 64768: u64 [s1 + 1456] = 0\n 64772: u64 [s1 + 1448] = 0\n 64776: u64 [s1 + 1440] = 0\n 64780: a1 = 0x4\n 64783: a0 = u64 [s1 + 0x170]\n 64787: ra = 754, jump @0\n      : @830 [@dyn 377] (gas: 4)\n 64794: u64 [s1 + 0x60] = a0\n 64797: a1 = 0x20\n 64800: a0 = u64 [s1 + 0x170]\n 64804: ra = 756, jump @0\n      : @831 [@dyn 378] (gas: 31)\n 64811: u32 [s1 + 1472] = 0x20\n 64816: u64 [s1 + 1528] = 0\n 64820: u64 [s1 + 1520] = 0\n 64824: u64 [s1 + 1512] = 0\n 64828: u64 [s1 + 1504] = 0\n 64832: a1 = s1 + 0x580\n 64836: a1 = a1 << 0x20\n 64839: a1 = a1 >> 0x20\n 64842: a2 = u64 [s1 + 0x1b0]\n 64846: t0 = a1 | a2\n 64849: a1 = s1 + 0x5a0\n 64853: a1 = a1 << 0x20\n 64856: a1 = a1 >> 0x20\n 64859: a2 = s1 + 0x5e0\n 64863: a2 = a2 << 0x20\n 64866: a3 = a2 | a1\n 64869: a1 = u64 [s1 + 0x60]\n 64872: a1 = a1 << 0x20\n 64875: a1 = a1 >> 0x20\n 64878: a4 = u64 [s1 + 0x1b8]\n 64882: a4 = a4 | a1\n 64885: a0 = a0 << 0x20\n 64888: a0 = a0 >> 0x20\n 64891: a1 = s1 + 0x5c0\n 64895: a1 = a1 << 0x20\n 64898: a5 = a1 | a0\n 64901: a1 = 0xffffffffffffffff\n 64904: a2 = 0xffffffffffffffff\n 64907: a0 = t0\n 64909: ecalli 1 // 'call'\n 64911: fallthrough\n      : @832 (gas: 1)\n 64912: jump @834 if a0 == 0\n      : @833 (gas: 1)\n 64915: jump @881\n      : @834 (gas: 2)\n 64918: ecalli 13 // 'return_data_size'\n 64920: fallthrough\n      : @835 (gas: 2)\n 64921: a1 = 0x20\n 64924: jump @837 if a0 >=u a1\n      : @836 (gas: 3)\n 64927: ecalli 13 // 'return_data_size'\n 64929: a1 = a0\n 64931: fallthrough\n      : @837 (gas: 28)\n 64932: t0 = u64 [s1 + 0x80]\n 64936: a4 = u64 [s1 + 0x78]\n 64939: a5 = u64 [s1 + 0x70]\n 64942: a3 = u64 [s1 + 0x68]\n 64945: a0 = a1 + 0x1f\n 64948: u64 [s1 + 0x1b0] = a1\n 64952: a1 = a0 <u a1\n 64955: u64 [s1 + 440] = 0\n 64959: a1 = a1 & 0x1\n 64962: a0 = a0 & 0xffffffffffffffe0\n 64965: a3 = a3 + a0\n 64968: u64 [s1 + 0x68] = a3\n 64971: a0 = a3 <u a0\n 64974: a2 = a1 + a5\n 64977: a3 = a2 + a0\n 64980: a2 = a3 ^ a1\n 64983: a1 = a3 <u a1\n 64986: a1 = a0 if a2 == 0\n 64989: a1 = a1 + a4\n 64992: a0 = a1 <u a4\n 64995: a0 = a0 + t0\n 64998: u64 [s1 + 0x78] = a1\n 65001: u64 [s1 + 0x70] = a0\n 65004: a0 = a0 | a1\n 65007: u64 [s1 + 0x80] = a3\n 65011: a1 = a3 <u 0x1\n 65014: a1 = 0 if a0 != 0\n 65016: jump @839 if a1 != 0\n      : @838 (gas: 1)\n 65019: jump @907\n      : @839 (gas: 3)\n 65022: a0 = 0x40\n 65025: a1 = 0x20\n 65028: ra = 758, jump @0\n      : @840 [@dyn 379] (gas: 80)\n 65035: a1 = u64 [s1 + 0x70]\n 65038: a1 = reverse a1\n 65040: a2 = u64 [s1 + 0x78]\n 65043: a2 = reverse a2\n 65045: a3 = u64 [s1 + 0x80]\n 65049: a3 = reverse a3\n 65051: a4 = u64 [s1 + 0x68]\n 65054: a4 = reverse a4\n 65056: u8 [a0 + 0x18] = a4\n 65059: a5 = a4 >> 0x38\n 65062: u8 [a0 + 0x1f] = a5\n 65065: a5 = a4 >> 0x30\n 65068: u8 [a0 + 0x1e] = a5\n 65071: a5 = a4 >> 0x28\n 65074: u8 [a0 + 0x1d] = a5\n 65077: a5 = a4 >> 0x20\n 65080: u8 [a0 + 0x1c] = a5\n 65083: a5 = a4 >> 0x18\n 65086: u8 [a0 + 0x1b] = a5\n 65089: a5 = a4 >> 0x10\n 65092: u8 [a0 + 0x1a] = a5\n 65095: a4 = a4 >> 0x8\n 65098: u8 [a0 + 0x19] = a4\n 65101: u8 [a0 + 0x10] = a3\n 65104: a4 = a3 >> 0x38\n 65107: u8 [a0 + 0x17] = a4\n 65110: a4 = a3 >> 0x30\n 65113: u8 [a0 + 0x16] = a4\n 65116: a4 = a3 >> 0x28\n 65119: u8 [a0 + 0x15] = a4\n 65122: a4 = a3 >> 0x20\n 65125: u8 [a0 + 0x14] = a4\n 65128: a4 = a3 >> 0x18\n 65131: u8 [a0 + 0x13] = a4\n 65134: a4 = a3 >> 0x10\n 65137: u8 [a0 + 0x12] = a4\n 65140: a3 = a3 >> 0x8\n 65143: u8 [a0 + 0x11] = a3\n 65146: u8 [a0 + 0x8] = a2\n 65149: a3 = a2 >> 0x38\n 65152: u8 [a0 + 0xf] = a3\n 65155: a3 = a2 >> 0x30\n 65158: u8 [a0 + 0xe] = a3\n 65161: a3 = a2 >> 0x28\n 65164: u8 [a0 + 0xd] = a3\n 65167: a3 = a2 >> 0x20\n 65170: u8 [a0 + 0xc] = a3\n 65173: a3 = a2 >> 0x18\n 65176: u8 [a0 + 0xb] = a3\n 65179: a3 = a2 >> 0x10\n 65182: u8 [a0 + 0xa] = a3\n 65185: a2 = a2 >> 0x8\n 65188: u8 [a0 + 0x9] = a2\n 65191: u8 [a0] = a1\n 65193: a2 = a1 >> 0x38\n 65196: u8 [a0 + 0x7] = a2\n 65199: a2 = a1 >> 0x30\n 65202: u8 [a0 + 0x6] = a2\n 65205: a2 = a1 >> 0x28\n 65208: u8 [a0 + 0x5] = a2\n 65211: a2 = a1 >> 0x20\n 65214: u8 [a0 + 0x4] = a2\n 65217: a2 = a1 >> 0x18\n 65220: u8 [a0 + 0x3] = a2\n 65223: a2 = a1 >> 0x10\n 65226: u8 [a0 + 0x2] = a2\n 65229: a1 = a1 >> 0x8\n 65232: a5 = u64 [s1 + 0x1b8]\n 65236: a2 = a5 >u 0\n 65238: a3 = u64 [s1 + 0x1b0]\n 65242: a3 = a3 <u 0x20\n 65245: a3 = a3 ^ 0x1\n 65248: a3 = a2 if a5 != 0\n 65251: a2 = a5 >u 0\n 65253: a4 = a5 >u 0\n 65255: a4 = a2 if a5 == 0\n 65258: a2 = a5 | a5\n 65261: a4 = a3 if a2 == 0\n 65264: u8 [a0 + 0x1] = a1\n 65267: jump @842 if a4 != 0\n      : @841 (gas: 1)\n 65270: jump @900\n      : @842 (gas: 3)\n 65273: a1 = 0x20\n 65276: a0 = u64 [s1 + 0x170]\n 65280: ra = 760, jump @0\n      : @843 [@dyn 380] (gas: 99)\n 65287: a1 = u8 [a0 + 0x1]\n 65290: a2 = u8 [a0]\n 65292: a3 = u8 [a0 + 0x2]\n 65295: a4 = u8 [a0 + 0x3]\n 65298: a1 = a1 << 0x8\n 65301: a1 = a1 | a2\n 65304: a3 = a3 << 0x10\n 65307: a4 = a4 << 0x18\n 65310: a3 = a3 | a4\n 65313: a1 = a1 | a3\n 65316: a2 = u8 [a0 + 0x5]\n 65319: a3 = u8 [a0 + 0x4]\n 65322: a4 = u8 [a0 + 0x6]\n 65325: a5 = u8 [a0 + 0x7]\n 65328: a2 = a2 << 0x8\n 65331: a2 = a2 | a3\n 65334: a4 = a4 << 0x10\n 65337: a5 = a5 << 0x18\n 65340: a4 = a4 | a5\n 65343: a2 = a2 | a4\n 65346: a2 = a2 << 0x20\n 65349: t0 = a2 | a1\n 65352: a2 = u8 [a0 + 0x9]\n 65355: a3 = u8 [a0 + 0x8]\n 65358: a4 = u8 [a0 + 0xa]\n 65361: a5 = u8 [a0 + 0xb]\n 65364: a2 = a2 << 0x8\n 65367: a2 = a2 | a3\n 65370: a4 = a4 << 0x10\n 65373: a5 = a5 << 0x18\n 65376: a4 = a4 | a5\n 65379: a2 = a2 | a4\n 65382: a3 = u8 [a0 + 0xd]\n 65385: a4 = u8 [a0 + 0xc]\n 65388: a5 = u8 [a0 + 0xe]\n 65391: a1 = u8 [a0 + 0xf]\n 65394: a3 = a3 << 0x8\n 65397: a3 = a3 | a4\n 65400: a5 = a5 << 0x10\n 65403: a1 = a1 << 0x18\n 65406: a1 = a1 | a5\n 65409: a1 = a1 | a3\n 65412: a1 = a1 << 0x20\n 65415: t1 = a1 | a2\n 65418: a1 = u8 [a0 + 0x11]\n 65421: a3 = u8 [a0 + 0x10]\n 65424: a4 = u8 [a0 + 0x12]\n 65427: a5 = u8 [a0 + 0x13]\n 65430: a1 = a1 << 0x8\n 65433: a1 = a1 | a3\n 65436: a4 = a4 << 0x10\n 65439: a5 = a5 << 0x18\n 65442: a4 = a4 | a5\n 65445: a1 = a1 | a4\n 65448: a3 = u8 [a0 + 0x15]\n 65451: a4 = u8 [a0 + 0x14]\n 65454: a5 = u8 [a0 + 0x16]\n 65457: a2 = u8 [a0 + 0x17]\n 65460: a3 = a3 << 0x8\n 65463: a3 = a3 | a4\n 65466: a5 = a5 << 0x10\n 65469: a2 = a2 << 0x18\n 65472: a2 = a2 | a5\n 65475: a2 = a2 | a3\n 65478: a2 = a2 << 0x20\n 65481: a3 = a2 | a1\n 65484: a1 = u8 [a0 + 0x19]\n 65487: a2 = u8 [a0 + 0x18]\n 65490: a4 = u8 [a0 + 0x1a]\n 65493: a5 = u8 [a0 + 0x1b]\n 65496: a1 = a1 << 0x8\n 65499: a1 = a1 | a2\n 65502: a4 = a4 << 0x10\n 65505: a5 = a5 << 0x18\n 65508: a4 = a4 | a5\n 65511: a1 = a1 | a4\n 65514: a2 = u8 [a0 + 0x1d]\n 65517: a4 = u8 [a0 + 0x1c]\n 65520: a5 = u8 [a0 + 0x1e]\n 65523: a0 = u8 [a0 + 0x1f]\n 65526: a2 = a2 << 0x8\n 65529: a2 = a2 | a4\n 65532: a5 = a5 << 0x10\n 65535: a0 = a0 << 0x18\n 65538: a0 = a0 | a5\n 65541: a0 = a0 | a2\n 65544: a0 = a0 << 0x20\n 65547: a0 = a0 | a1\n 65550: a0 = reverse a0\n 65552: u64 [s1 + 0x1b8] = a0\n 65556: a0 = reverse a3\n 65558: u64 [s1 + 0x1b0] = a0\n 65562: a0 = reverse t1\n 65564: u64 [s1 + 0x80] = a0\n 65568: a0 = reverse t0\n 65570: u64 [s1 + 0x170] = a0\n 65574: a1 = 0x20\n 65577: a0 = 0\n 65579: ra = 762, jump @0\n      : @844 [@dyn 381] (gas: 67)\n 65586: a1 = u64 [s1 + 0x168]\n 65590: u8 [a0 + 0x1f] = a1\n 65593: a1 = u64 [s1 + 0x160]\n 65597: u8 [a0 + 0x1e] = a1\n 65600: a1 = u64 [s1 + 0x158]\n 65604: u8 [a0 + 0x1d] = a1\n 65607: a1 = u64 [s1 + 0x150]\n 65611: u8 [a0 + 0x1c] = a1\n 65614: a1 = u64 [s1 + 0x148]\n 65618: u8 [a0 + 0x1b] = a1\n 65621: a1 = u64 [s1 + 0x140]\n 65625: u8 [a0 + 0x1a] = a1\n 65628: a1 = u64 [s1 + 0x138]\n 65632: u8 [a0 + 0x19] = a1\n 65635: a1 = u64 [s1 + 0x130]\n 65639: u8 [a0 + 0x17] = a1\n 65642: a1 = u64 [s1 + 0x128]\n 65646: u8 [a0 + 0x16] = a1\n 65649: a1 = u64 [s1 + 0x120]\n 65653: u8 [a0 + 0x15] = a1\n 65656: a1 = u64 [s1 + 0x118]\n 65660: u8 [a0 + 0x14] = a1\n 65663: a1 = u64 [s1 + 0x110]\n 65667: u8 [a0 + 0x13] = a1\n 65670: a1 = u64 [s1 + 0x108]\n 65674: u8 [a0 + 0x12] = a1\n 65677: a1 = u64 [s1 + 0x100]\n 65681: u8 [a0 + 0x11] = a1\n 65684: a1 = u64 [s1 + 0xf8]\n 65688: u8 [a0 + 0xf] = a1\n 65691: a1 = u64 [s1 + 0xf0]\n 65695: u8 [a0 + 0xe] = a1\n 65698: a1 = u64 [s1 + 0xe8]\n 65702: u8 [a0 + 0xd] = a1\n 65705: a1 = u64 [s1 + 0xe0]\n 65709: u8 [a0 + 0xc] = a1\n 65712: a1 = u64 [s1 + 0xd8]\n 65716: u8 [a0 + 0xb] = a1\n 65719: a1 = u64 [s1 + 0xd0]\n 65723: u8 [a0 + 0xa] = a1\n 65726: a1 = u64 [s1 + 0xc8]\n 65730: u8 [a0 + 0x9] = a1\n 65733: a1 = u64 [s1 + 0xc0]\n 65737: u8 [a0 + 0x7] = a1\n 65740: a1 = u64 [s1 + 0xb8]\n 65744: u8 [a0 + 0x6] = a1\n 65747: a1 = u64 [s1 + 0xb0]\n 65751: u8 [a0 + 0x5] = a1\n 65754: a1 = u64 [s1 + 0xa8]\n 65758: u8 [a0 + 0x4] = a1\n 65761: a1 = u64 [s1 + 0xa0]\n 65765: u8 [a0 + 0x3] = a1\n 65768: a1 = u64 [s1 + 0x98]\n 65772: u8 [a0 + 0x2] = a1\n 65775: a1 = u64 [s1 + 0x90]\n 65779: u8 [a0 + 0x1] = a1\n 65782: a1 = u64 [s1 + 0x190]\n 65786: u8 [a0 + 0x18] = a1\n 65789: a1 = u64 [s1 + 0x198]\n 65793: u8 [a0 + 0x10] = a1\n 65796: a1 = u64 [s1 + 0x1a0]\n 65800: u8 [a0 + 0x8] = a1\n 65803: a1 = u64 [s1 + 0x1a8]\n 65807: u8 [a0] = a1\n 65809: a0 = 0x20\n 65812: a1 = 0x20\n 65815: ra = 764, jump @0\n      : @845 [@dyn 382] (gas: 35)\n 65822: u8 [a0 + 31] = 0x2\n 65826: u8 [a0 + 30] = 0\n 65829: u8 [a0 + 29] = 0\n 65832: u8 [a0 + 28] = 0\n 65835: u8 [a0 + 27] = 0\n 65838: u8 [a0 + 26] = 0\n 65841: u8 [a0 + 25] = 0\n 65844: u8 [a0 + 24] = 0\n 65847: u8 [a0 + 23] = 0\n 65850: u8 [a0 + 22] = 0\n 65853: u8 [a0 + 21] = 0\n 65856: u8 [a0 + 20] = 0\n 65859: u8 [a0 + 19] = 0\n 65862: u8 [a0 + 18] = 0\n 65865: u8 [a0 + 17] = 0\n 65868: u8 [a0 + 16] = 0\n 65871: u8 [a0 + 15] = 0\n 65874: u8 [a0 + 14] = 0\n 65877: u8 [a0 + 13] = 0\n 65880: u8 [a0 + 12] = 0\n 65883: u8 [a0 + 11] = 0\n 65886: u8 [a0 + 10] = 0\n 65889: u8 [a0 + 9] = 0\n 65892: u8 [a0 + 8] = 0\n 65895: u8 [a0 + 7] = 0\n 65898: u8 [a0 + 6] = 0\n 65901: u8 [a0 + 5] = 0\n 65904: u8 [a0 + 4] = 0\n 65907: u8 [a0 + 3] = 0\n 65910: u8 [a0 + 2] = 0\n 65913: u8 [a0 + 1] = 0\n 65916: u8 [a0 + 0] = 0\n 65918: a1 = 0x40\n 65921: a0 = 0\n 65923: ra = 766, jump @0\n      : @846 [@dyn 383] (gas: 32)\n 65930: i32 a0 = a0 + 0\n 65932: i32 a2 = s1 + 0x6e0\n 65936: a1 = 0x40\n 65939: ecalli 9 // 'hash_keccak_256'\n 65941: a0 = u64 [s1 + 0x6f8]\n 65945: a1 = u64 [s1 + 0x6f0]\n 65949: a2 = u64 [s1 + 0x6e8]\n 65953: a3 = u64 [s1 + 0x6e0]\n 65957: a0 = reverse a0\n 65959: a1 = reverse a1\n 65961: a2 = reverse a2\n 65963: a3 = reverse a3\n 65965: u64 [s1 + 0x150] = a3\n 65969: u64 [s1 + 0x798] = a3\n 65973: u64 [s1 + 0x158] = a2\n 65977: u64 [s1 + 0x790] = a2\n 65981: u64 [s1 + 0x160] = a1\n 65985: u64 [s1 + 0x788] = a1\n 65989: u64 [s1 + 0x168] = a0\n 65993: u64 [s1 + 0x780] = a0\n 65997: u64 [s1 + 1784] = 0\n 66001: u64 [s1 + 1776] = 0\n 66005: u64 [s1 + 1768] = 0\n 66009: u64 [s1 + 1760] = 0\n 66013: u32 [s1 + 1888] = 0x20\n 66018: i32 a1 = s1 + 0x780\n 66022: i32 a3 = s1 + 0x6e0\n 66026: i32 a4 = s1 + 0x760\n 66030: a2 = 0xffffffffffffffff\n 66033: a0 = 0\n 66035: ecalli 8 // 'get_storage'\n 66037: fallthrough\n      : @847 (gas: 24)\n 66038: t1 = u64 [s1 + 0x6f8]\n 66042: ra = u64 [s1 + 0x6f0]\n 66046: t0 = u64 [s1 + 0x6e8]\n 66050: a3 = u64 [s1 + 0x6e0]\n 66054: a0 = u64 [s1 + 0x170]\n 66058: a4 = t1 ^ a0\n 66061: a5 = t1 <u a0\n 66064: a2 = u64 [s1 + 0x80]\n 66068: a0 = ra <u a2\n 66071: u64 [s1 + 0x138] = a0\n 66075: a5 = a0 if a4 == 0\n 66078: a0 = u64 [s1 + 0x1b0]\n 66082: a1 = t0 ^ a0\n 66085: u64 [s1 + 0x148] = a1\n 66089: a0 = t0 <u a0\n 66092: a1 = u64 [s1 + 0x1b8]\n 66096: u64 [s1 + 0x140] = a3\n 66100: t2 = a3 <u a1\n 66103: a1 = u64 [s1 + 0x148]\n 66107: a0 = t2 if a1 == 0\n 66110: a1 = ra ^ a2\n 66113: a1 = a1 | a4\n 66116: a5 = a0 if a1 == 0\n 66119: jump @849 if a5 == 0\n      : @848 (gas: 1)\n 66122: jump @909\n      : @849 (gas: 68)\n 66125: a3 = ra - a2\n 66128: a1 = a3 - a0\n 66131: u64 [s1 + 0x148] = a1\n 66135: a0 = a3 <u a0\n 66138: a1 = u64 [s1 + 0x170]\n 66142: a2 = t1 - a1\n 66145: a1 = u64 [s1 + 0x138]\n 66149: a2 = a2 - a1\n 66152: a2 = a2 - a0\n 66155: u64 [s1 + 0x170] = a2\n 66159: a0 = u64 [s1 + 0x1b0]\n 66163: a0 = t0 - a0\n 66166: a0 = a0 - t2\n 66169: u64 [s1 + 0x1b0] = a0\n 66173: a0 = u64 [s1 + 0x1b8]\n 66177: a1 = u64 [s1 + 0x140]\n 66181: a0 = a1 - a0\n 66184: u64 [s1 + 0x1b8] = a0\n 66188: u32 [s1 + 1888] = 0x20\n 66193: a0 = u64 [s1 + 0x158]\n 66197: u64 [s1 + 0x790] = a0\n 66201: a0 = u64 [s1 + 0x160]\n 66205: u64 [s1 + 0x788] = a0\n 66209: a0 = u64 [s1 + 0x168]\n 66213: u64 [s1 + 0x780] = a0\n 66217: a0 = u64 [s1 + 0x150]\n 66221: u64 [s1 + 0x798] = a0\n 66225: u64 [s1 + 1784] = 0\n 66229: u64 [s1 + 1776] = 0\n 66233: u64 [s1 + 1768] = 0\n 66237: u64 [s1 + 1760] = 0\n 66241: i32 a1 = s1 + 0x780\n 66245: i32 a3 = s1 + 0x6e0\n 66249: i32 a4 = s1 + 0x760\n 66253: a2 = 0xffffffffffffffff\n 66256: a0 = 0\n 66258: ecalli 8 // 'get_storage'\n 66260: a0 = u64 [s1 + 0x150]\n 66264: u64 [s1 + 0x798] = a0\n 66268: a0 = u64 [s1 + 0x158]\n 66272: u64 [s1 + 0x790] = a0\n 66276: a0 = u64 [s1 + 0x160]\n 66280: u64 [s1 + 0x788] = a0\n 66284: a0 = u64 [s1 + 0x168]\n 66288: u64 [s1 + 0x780] = a0\n 66292: a0 = u64 [s1 + 0x170]\n 66296: u64 [s1 + 0x6f8] = a0\n 66300: a0 = u64 [s1 + 0x148]\n 66304: u64 [s1 + 0x6f0] = a0\n 66308: a0 = u64 [s1 + 0x1b0]\n 66312: u64 [s1 + 0x6e8] = a0\n 66316: a0 = u64 [s1 + 0x1b8]\n 66320: u64 [s1 + 0x6e0] = a0\n 66324: i32 a1 = s1 + 0x780\n 66328: i32 a3 = s1 + 0x6e0\n 66332: a2 = 0xffffffffffffffff\n 66335: a4 = 0x20\n 66338: a0 = 0\n 66340: ecalli 16 // 'set_storage'\n 66342: a0 = u64 [s1 + 0x1c8]\n 66346: u64 [s1 + 0x608] = a0\n 66350: a0 = u64 [s1 + 0x1d8]\n 66354: u64 [s1 + 0x600] = a0\n 66358: a0 = u64 [s1 + 0x1d0]\n 66362: u32 [s1 + 0x610] = a0\n 66366: i32 a0 = s1 + 0x600\n 66370: ecalli 6 // 'code_size'\n 66372: fallthrough\n      : @850 (gas: 1)\n 66373: jump @852 if a0 != 0\n      : @851 (gas: 1)\n 66376: jump @901\n      : @852 (gas: 3)\n 66379: a0 = 0x40\n 66382: a1 = 0x20\n 66385: ra = 768, jump @0\n      : @853 [@dyn 384] (gas: 107)\n 66392: a1 = u8 [a0 + 0x11]\n 66395: a2 = u8 [a0 + 0x10]\n 66398: a3 = u8 [a0 + 0x12]\n 66401: a4 = u8 [a0 + 0x13]\n 66404: a1 = a1 << 0x8\n 66407: a1 = a1 | a2\n 66410: a3 = a3 << 0x10\n 66413: a4 = a4 << 0x18\n 66416: a3 = a3 | a4\n 66419: a1 = a1 | a3\n 66422: a2 = u8 [a0 + 0x15]\n 66425: a3 = u8 [a0 + 0x14]\n 66428: a4 = u8 [a0 + 0x16]\n 66431: a5 = u8 [a0 + 0x17]\n 66434: a2 = a2 << 0x8\n 66437: a2 = a2 | a3\n 66440: a4 = a4 << 0x10\n 66443: a5 = a5 << 0x18\n 66446: a4 = a4 | a5\n 66449: a2 = a2 | a4\n 66452: a2 = a2 << 0x20\n 66455: t0 = a2 | a1\n 66458: a1 = u8 [a0 + 0x1]\n 66461: a2 = u8 [a0]\n 66463: a3 = u8 [a0 + 0x2]\n 66466: a4 = u8 [a0 + 0x3]\n 66469: a1 = a1 << 0x8\n 66472: a1 = a1 | a2\n 66475: a3 = a3 << 0x10\n 66478: a4 = a4 << 0x18\n 66481: a3 = a3 | a4\n 66484: a1 = a1 | a3\n 66487: a2 = u8 [a0 + 0x5]\n 66490: a3 = u8 [a0 + 0x4]\n 66493: a4 = u8 [a0 + 0x6]\n 66496: a5 = u8 [a0 + 0x7]\n 66499: a2 = a2 << 0x8\n 66502: a2 = a2 | a3\n 66505: a4 = a4 << 0x10\n 66508: a5 = a5 << 0x18\n 66511: a4 = a4 | a5\n 66514: a2 = a2 | a4\n 66517: a2 = a2 << 0x20\n 66520: t1 = a2 | a1\n 66523: a1 = u8 [a0 + 0x19]\n 66526: a2 = u8 [a0 + 0x18]\n 66529: a3 = u8 [a0 + 0x1a]\n 66532: a4 = u8 [a0 + 0x1b]\n 66535: a1 = a1 << 0x8\n 66538: a1 = a1 | a2\n 66541: a3 = a3 << 0x10\n 66544: a4 = a4 << 0x18\n 66547: a3 = a3 | a4\n 66550: a1 = a1 | a3\n 66553: a2 = u8 [a0 + 0x1d]\n 66556: a3 = u8 [a0 + 0x1c]\n 66559: a4 = u8 [a0 + 0x1e]\n 66562: a5 = u8 [a0 + 0x1f]\n 66565: a2 = a2 << 0x8\n 66568: a2 = a2 | a3\n 66571: a4 = a4 << 0x10\n 66574: a5 = a5 << 0x18\n 66577: a4 = a4 | a5\n 66580: a2 = a2 | a4\n 66583: a2 = a2 << 0x20\n 66586: a5 = a2 | a1\n 66589: a1 = u8 [a0 + 0x9]\n 66592: a2 = u8 [a0 + 0x8]\n 66595: a3 = u8 [a0 + 0xa]\n 66598: a4 = u8 [a0 + 0xb]\n 66601: a1 = a1 << 0x8\n 66604: a1 = a1 | a2\n 66607: a3 = a3 << 0x10\n 66610: a4 = a4 << 0x18\n 66613: a3 = a3 | a4\n 66616: a1 = a1 | a3\n 66619: a2 = u8 [a0 + 0xd]\n 66622: a3 = u8 [a0 + 0xc]\n 66625: a4 = u8 [a0 + 0xe]\n 66628: a0 = u8 [a0 + 0xf]\n 66631: a2 = a2 << 0x8\n 66634: a2 = a2 | a3\n 66637: a4 = a4 << 0x10\n 66640: a0 = a0 << 0x18\n 66643: a0 = a0 | a4\n 66646: a0 = a0 | a2\n 66649: a0 = a0 << 0x20\n 66652: a0 = a0 | a1\n 66655: u64 [s1 + 0x160] = a0\n 66659: a3 = reverse a0\n 66661: u64 [s1 + 0x168] = a5\n 66665: a2 = reverse a5\n 66667: u64 [s1 + 0x170] = t1\n 66671: a1 = reverse t1\n 66673: u64 [s1 + 0x1b0] = t0\n 66677: a0 = reverse t0\n 66679: u64 [s1 + 0x158] = a0\n 66683: u64 [s1 + 0x148] = a1\n 66687: a0 = a0 | a1\n 66690: a1 = a2 | a3\n 66693: a1 = a1 | a0\n 66696: a1 = a1 >> 0x20\n 66699: u64 [s1 + 0x150] = a3\n 66703: a0 = a0 | a3\n 66706: a0 = a0 << 0x20\n 66709: a0 = a0 | a1\n 66712: jump @855 if a0 == 0\n      : @854 (gas: 1)\n 66715: jump @899\n      : @855 (gas: 5)\n 66718: i32 a0 = a2 + 0\n 66720: a1 = 0x20\n 66723: u64 [s1 + 0x1b8] = a0\n 66727: u64 [s1 + 0x140] = a2\n 66731: ra = 770, jump @0\n      : @856 [@dyn 385] (gas: 42)\n 66738: u8 [a0 + 31] = 0\n 66741: u8 [a0 + 30] = 0\n 66744: u8 [a0 + 29] = 0\n 66747: u8 [a0 + 28] = 0\n 66750: u8 [a0 + 27] = 0\n 66753: u8 [a0 + 26] = 0\n 66756: u8 [a0 + 25] = 0\n 66759: u8 [a0 + 24] = 0\n 66762: u8 [a0 + 23] = 0\n 66765: u8 [a0 + 22] = 0\n 66768: u8 [a0 + 21] = 0\n 66771: u8 [a0 + 20] = 0\n 66774: u8 [a0 + 19] = 0\n 66777: u8 [a0 + 18] = 0\n 66780: u8 [a0 + 17] = 0\n 66783: u8 [a0 + 16] = 0\n 66786: u8 [a0 + 15] = 0\n 66789: u8 [a0 + 14] = 0\n 66792: u8 [a0 + 13] = 0\n 66795: u8 [a0 + 12] = 0\n 66798: u8 [a0 + 11] = 0\n 66801: u8 [a0 + 10] = 0\n 66804: u8 [a0 + 9] = 0\n 66807: u8 [a0 + 8] = 0\n 66810: u8 [a0 + 7] = 0\n 66813: u8 [a0 + 6] = 0\n 66816: u8 [a0 + 5] = 0\n 66819: u8 [a0 + 4] = 0\n 66822: u8 [a0 + 3] = 0xc5\n 66827: u8 [a0 + 2] = 0x5e\n 66831: u8 [a0 + 1] = 0x98\n 66836: a1 = u64 [s1 + 0x150]\n 66840: a2 = u64 [s1 + 0x148]\n 66844: a1 = a1 | a2\n 66847: a2 = 0xfffffffc\n 66857: a3 = u64 [s1 + 0x140]\n 66861: a2 = a3 <u a2\n 66864: a4 = u64 [s1 + 0x158]\n 66868: a2 = 0 if a4 != 0\n 66870: a2 = 0 if a1 != 0\n 66872: u8 [a0 + 0] = 0x88\n 66876: jump @858 if a2 != 0\n      : @857 (gas: 1)\n 66879: jump @899\n      : @858 (gas: 4)\n 66882: a0 = u64 [s1 + 0x1b8]\n 66886: i32 a0 = a0 + 0x4\n 66889: a1 = 0x20\n 66892: ra = 772, jump @0\n      : @859 [@dyn 386] (gas: 78)\n 66899: a2 = u64 [s1 + 0x178]\n 66903: a1 = a2 >> 0x38\n 66906: u8 [a0 + 0x1f] = a1\n 66909: a1 = a2 >> 0x30\n 66912: u8 [a0 + 0x1e] = a1\n 66915: a1 = a2 >> 0x28\n 66918: u8 [a0 + 0x1d] = a1\n 66921: a1 = a2 >> 0x20\n 66924: u8 [a0 + 0x1c] = a1\n 66927: a1 = a2 >> 0x18\n 66930: u8 [a0 + 0x1b] = a1\n 66933: a1 = a2 >> 0x10\n 66936: u8 [a0 + 0x1a] = a1\n 66939: a1 = a2 >> 0x8\n 66942: u8 [a0 + 0x19] = a1\n 66945: u8 [a0 + 0x18] = a2\n 66948: a2 = u64 [s1 + 0x180]\n 66952: u8 [a0 + 0x10] = a2\n 66955: a1 = a2 >> 0x38\n 66958: u8 [a0 + 0x17] = a1\n 66961: a1 = a2 >> 0x30\n 66964: u8 [a0 + 0x16] = a1\n 66967: a1 = a2 >> 0x28\n 66970: u8 [a0 + 0x15] = a1\n 66973: a1 = a2 >> 0x20\n 66976: u8 [a0 + 0x14] = a1\n 66979: a1 = a2 >> 0x18\n 66982: u8 [a0 + 0x13] = a1\n 66985: a1 = a2 >> 0x10\n 66988: u8 [a0 + 0x12] = a1\n 66991: a1 = a2 >> 0x8\n 66994: u8 [a0 + 0x11] = a1\n 66997: a2 = u64 [s1 + 0x188]\n 67001: u8 [a0 + 0x8] = a2\n 67004: a1 = a2 >> 0x38\n 67007: u8 [a0 + 0xf] = a1\n 67010: a1 = a2 >> 0x30\n 67013: u8 [a0 + 0xe] = a1\n 67016: a1 = a2 >> 0x28\n 67019: u8 [a0 + 0xd] = a1\n 67022: a1 = a2 >> 0x20\n 67025: u8 [a0 + 0xc] = a1\n 67028: a1 = a2 >> 0x18\n 67031: u8 [a0 + 0xb] = a1\n 67034: a1 = a2 >> 0x10\n 67037: u8 [a0 + 0xa] = a1\n 67040: a1 = a2 >> 0x8\n 67043: u8 [a0 + 0x9] = a1\n 67046: a2 = u64 [s1 + 0x1c0]\n 67050: u8 [a0] = a2\n 67052: a1 = a2 >> 0x38\n 67055: u8 [a0 + 0x7] = a1\n 67058: a1 = a2 >> 0x30\n 67061: u8 [a0 + 0x6] = a1\n 67064: a1 = a2 >> 0x28\n 67067: u8 [a0 + 0x5] = a1\n 67070: a1 = a2 >> 0x20\n 67073: u8 [a0 + 0x4] = a1\n 67076: a1 = a2 >> 0x18\n 67079: u8 [a0 + 0x3] = a1\n 67082: a1 = a2 >> 0x10\n 67085: u8 [a0 + 0x2] = a1\n 67088: a1 = a2 >> 0x8\n 67091: u8 [a0 + 0x1] = a1\n 67094: ecalli 11 // 'ref_time_left'\n 67096: a0 = u64 [s1 + 0x1c8]\n 67100: u64 [s1 + 0x628] = a0\n 67104: a0 = u64 [s1 + 0x1d8]\n 67108: u64 [s1 + 0x620] = a0\n 67112: a0 = u64 [s1 + 0x1d0]\n 67116: u32 [s1 + 0x630] = a0\n 67120: u64 [s1 + 1624] = 0\n 67124: u64 [s1 + 1616] = 0\n 67128: u64 [s1 + 1608] = 0\n 67132: u64 [s1 + 1600] = 0\n 67136: a1 = 0x24\n 67139: a0 = u64 [s1 + 0x1b8]\n 67143: ra = 774, jump @0\n      : @860 [@dyn 387] (gas: 4)\n 67150: u64 [s1 + 0x1d8] = a0\n 67154: a0 = u64 [s1 + 0x1b8]\n 67158: a1 = 0\n 67160: ra = 776, jump @0\n      : @861 [@dyn 388] (gas: 25)\n 67167: u32 [s1 + 1632] = 0\n 67171: u64 [s1 + 1688] = 0xffffffffffffffff\n 67176: u64 [s1 + 1680] = 0xffffffffffffffff\n 67181: u64 [s1 + 1672] = 0xffffffffffffffff\n 67186: u64 [s1 + 1664] = 0xffffffffffffffff\n 67191: a1 = s1 + 0x620\n 67195: a1 = a1 << 0x20\n 67198: a1 = a1 >> 0x20\n 67201: a2 = 0x800000000\n 67211: t0 = a1 | a2\n 67214: a1 = s1 + 0x640\n 67218: a1 = a1 << 0x20\n 67221: a1 = a1 >> 0x20\n 67224: a2 = s1 + 0x680\n 67228: a2 = a2 << 0x20\n 67231: a3 = a2 | a1\n 67234: a1 = u64 [s1 + 0x1d8]\n 67238: a1 = a1 << 0x20\n 67241: a1 = a1 >> 0x20\n 67244: a2 = 0x2400000000\n 67254: a4 = a1 | a2\n 67257: a0 = a0 << 0x20\n 67260: a0 = a0 >> 0x20\n 67263: a1 = s1 + 0x660\n 67267: jump @872\n      : @862 (gas: 9)\n 67270: a0 = u64 [s1 + 0x1d8]\n 67274: u64 [s1 + 0x460] = a0\n 67278: a0 = u64 [s1 + 0x1c8]\n 67282: u64 [s1 + 0x468] = a0\n 67286: a0 = u64 [s1 + 0x1d0]\n 67290: u32 [s1 + 0x470] = a0\n 67294: i32 a0 = s1 + 0x460\n 67298: ecalli 6 // 'code_size'\n 67300: fallthrough\n      : @863 (gas: 1)\n 67301: jump @901 if a0 == 0\n      : @864 (gas: 3)\n 67305: a0 = 0x40\n 67308: a1 = 0x20\n 67311: ra = 778, jump @0\n      : @865 [@dyn 389] (gas: 107)\n 67318: a1 = u8 [a0 + 0x11]\n 67321: a2 = u8 [a0 + 0x10]\n 67324: a3 = u8 [a0 + 0x12]\n 67327: a4 = u8 [a0 + 0x13]\n 67330: a1 = a1 << 0x8\n 67333: a1 = a1 | a2\n 67336: a3 = a3 << 0x10\n 67339: a4 = a4 << 0x18\n 67342: a3 = a3 | a4\n 67345: a1 = a1 | a3\n 67348: a2 = u8 [a0 + 0x15]\n 67351: a3 = u8 [a0 + 0x14]\n 67354: a4 = u8 [a0 + 0x16]\n 67357: a5 = u8 [a0 + 0x17]\n 67360: a2 = a2 << 0x8\n 67363: a2 = a2 | a3\n 67366: a4 = a4 << 0x10\n 67369: a5 = a5 << 0x18\n 67372: a4 = a4 | a5\n 67375: a2 = a2 | a4\n 67378: a2 = a2 << 0x20\n 67381: t0 = a2 | a1\n 67384: a1 = u8 [a0 + 0x1]\n 67387: a2 = u8 [a0]\n 67389: a3 = u8 [a0 + 0x2]\n 67392: a4 = u8 [a0 + 0x3]\n 67395: a1 = a1 << 0x8\n 67398: a1 = a1 | a2\n 67401: a3 = a3 << 0x10\n 67404: a4 = a4 << 0x18\n 67407: a3 = a3 | a4\n 67410: a1 = a1 | a3\n 67413: a2 = u8 [a0 + 0x5]\n 67416: a3 = u8 [a0 + 0x4]\n 67419: a4 = u8 [a0 + 0x6]\n 67422: a5 = u8 [a0 + 0x7]\n 67425: a2 = a2 << 0x8\n 67428: a2 = a2 | a3\n 67431: a4 = a4 << 0x10\n 67434: a5 = a5 << 0x18\n 67437: a4 = a4 | a5\n 67440: a2 = a2 | a4\n 67443: a2 = a2 << 0x20\n 67446: t1 = a2 | a1\n 67449: a1 = u8 [a0 + 0x19]\n 67452: a2 = u8 [a0 + 0x18]\n 67455: a3 = u8 [a0 + 0x1a]\n 67458: a4 = u8 [a0 + 0x1b]\n 67461: a1 = a1 << 0x8\n 67464: a1 = a1 | a2\n 67467: a3 = a3 << 0x10\n 67470: a4 = a4 << 0x18\n 67473: a3 = a3 | a4\n 67476: a1 = a1 | a3\n 67479: a2 = u8 [a0 + 0x1d]\n 67482: a3 = u8 [a0 + 0x1c]\n 67485: a4 = u8 [a0 + 0x1e]\n 67488: a5 = u8 [a0 + 0x1f]\n 67491: a2 = a2 << 0x8\n 67494: a2 = a2 | a3\n 67497: a4 = a4 << 0x10\n 67500: a5 = a5 << 0x18\n 67503: a4 = a4 | a5\n 67506: a2 = a2 | a4\n 67509: a2 = a2 << 0x20\n 67512: a5 = a2 | a1\n 67515: a1 = u8 [a0 + 0x9]\n 67518: a2 = u8 [a0 + 0x8]\n 67521: a3 = u8 [a0 + 0xa]\n 67524: a4 = u8 [a0 + 0xb]\n 67527: a1 = a1 << 0x8\n 67530: a1 = a1 | a2\n 67533: a3 = a3 << 0x10\n 67536: a4 = a4 << 0x18\n 67539: a3 = a3 | a4\n 67542: a1 = a1 | a3\n 67545: a2 = u8 [a0 + 0xd]\n 67548: a3 = u8 [a0 + 0xc]\n 67551: a4 = u8 [a0 + 0xe]\n 67554: a0 = u8 [a0 + 0xf]\n 67557: a2 = a2 << 0x8\n 67560: a2 = a2 | a3\n 67563: a4 = a4 << 0x10\n 67566: a0 = a0 << 0x18\n 67569: a0 = a0 | a4\n 67572: a0 = a0 | a2\n 67575: a0 = a0 << 0x20\n 67578: a0 = a0 | a1\n 67581: u64 [s1 + 0x160] = a0\n 67585: a3 = reverse a0\n 67587: u64 [s1 + 0x168] = a5\n 67591: a2 = reverse a5\n 67593: u64 [s1 + 0x170] = t1\n 67597: a1 = reverse t1\n 67599: u64 [s1 + 0x1b0] = t0\n 67603: a0 = reverse t0\n 67605: u64 [s1 + 0x158] = a0\n 67609: u64 [s1 + 0x148] = a1\n 67613: a0 = a0 | a1\n 67616: a1 = a2 | a3\n 67619: a1 = a1 | a0\n 67622: a1 = a1 >> 0x20\n 67625: u64 [s1 + 0x150] = a3\n 67629: a0 = a0 | a3\n 67632: a0 = a0 << 0x20\n 67635: a0 = a0 | a1\n 67638: jump @899 if a0 != 0\n      : @866 (gas: 5)\n 67642: i32 a0 = a2 + 0\n 67644: a1 = 0x20\n 67647: u64 [s1 + 0x1b8] = a0\n 67651: u64 [s1 + 0x140] = a2\n 67655: ra = 780, jump @0\n      : @867 [@dyn 390] (gas: 42)\n 67662: u8 [a0 + 31] = 0\n 67665: u8 [a0 + 30] = 0\n 67668: u8 [a0 + 29] = 0\n 67671: u8 [a0 + 28] = 0\n 67674: u8 [a0 + 27] = 0\n 67677: u8 [a0 + 26] = 0\n 67680: u8 [a0 + 25] = 0\n 67683: u8 [a0 + 24] = 0\n 67686: u8 [a0 + 23] = 0\n 67689: u8 [a0 + 22] = 0\n 67692: u8 [a0 + 21] = 0\n 67695: u8 [a0 + 20] = 0\n 67698: u8 [a0 + 19] = 0\n 67701: u8 [a0 + 18] = 0\n 67704: u8 [a0 + 17] = 0\n 67707: u8 [a0 + 16] = 0\n 67710: u8 [a0 + 15] = 0\n 67713: u8 [a0 + 14] = 0\n 67716: u8 [a0 + 13] = 0\n 67719: u8 [a0 + 12] = 0\n 67722: u8 [a0 + 11] = 0\n 67725: u8 [a0 + 10] = 0\n 67728: u8 [a0 + 9] = 0\n 67731: u8 [a0 + 8] = 0\n 67734: u8 [a0 + 7] = 0\n 67737: u8 [a0 + 6] = 0\n 67740: u8 [a0 + 5] = 0\n 67743: u8 [a0 + 4] = 0\n 67746: u8 [a0 + 3] = 0xed\n 67751: u8 [a0 + 2] = 0x6d\n 67755: u8 [a0 + 1] = 0x68\n 67759: a1 = u64 [s1 + 0x150]\n 67763: a2 = u64 [s1 + 0x148]\n 67767: a1 = a1 | a2\n 67770: a2 = 0xfffffffc\n 67780: a3 = u64 [s1 + 0x140]\n 67784: a2 = a3 <u a2\n 67787: a4 = u64 [s1 + 0x158]\n 67791: a2 = 0 if a4 != 0\n 67793: a2 = 0 if a1 != 0\n 67795: u8 [a0 + 0] = 0xdf\n 67799: jump @899 if a2 == 0\n      : @868 (gas: 4)\n 67803: a0 = u64 [s1 + 0x1b8]\n 67807: i32 a0 = a0 + 0x4\n 67810: a1 = 0x20\n 67813: ra = 782, jump @0\n      : @869 [@dyn 391] (gas: 78)\n 67820: a2 = u64 [s1 + 0x178]\n 67824: a1 = a2 >> 0x38\n 67827: u8 [a0 + 0x1f] = a1\n 67830: a1 = a2 >> 0x30\n 67833: u8 [a0 + 0x1e] = a1\n 67836: a1 = a2 >> 0x28\n 67839: u8 [a0 + 0x1d] = a1\n 67842: a1 = a2 >> 0x20\n 67845: u8 [a0 + 0x1c] = a1\n 67848: a1 = a2 >> 0x18\n 67851: u8 [a0 + 0x1b] = a1\n 67854: a1 = a2 >> 0x10\n 67857: u8 [a0 + 0x1a] = a1\n 67860: a1 = a2 >> 0x8\n 67863: u8 [a0 + 0x19] = a1\n 67866: u8 [a0 + 0x18] = a2\n 67869: a2 = u64 [s1 + 0x180]\n 67873: u8 [a0 + 0x10] = a2\n 67876: a1 = a2 >> 0x38\n 67879: u8 [a0 + 0x17] = a1\n 67882: a1 = a2 >> 0x30\n 67885: u8 [a0 + 0x16] = a1\n 67888: a1 = a2 >> 0x28\n 67891: u8 [a0 + 0x15] = a1\n 67894: a1 = a2 >> 0x20\n 67897: u8 [a0 + 0x14] = a1\n 67900: a1 = a2 >> 0x18\n 67903: u8 [a0 + 0x13] = a1\n 67906: a1 = a2 >> 0x10\n 67909: u8 [a0 + 0x12] = a1\n 67912: a1 = a2 >> 0x8\n 67915: u8 [a0 + 0x11] = a1\n 67918: a2 = u64 [s1 + 0x188]\n 67922: u8 [a0 + 0x8] = a2\n 67925: a1 = a2 >> 0x38\n 67928: u8 [a0 + 0xf] = a1\n 67931: a1 = a2 >> 0x30\n 67934: u8 [a0 + 0xe] = a1\n 67937: a1 = a2 >> 0x28\n 67940: u8 [a0 + 0xd] = a1\n 67943: a1 = a2 >> 0x20\n 67946: u8 [a0 + 0xc] = a1\n 67949: a1 = a2 >> 0x18\n 67952: u8 [a0 + 0xb] = a1\n 67955: a1 = a2 >> 0x10\n 67958: u8 [a0 + 0xa] = a1\n 67961: a1 = a2 >> 0x8\n 67964: u8 [a0 + 0x9] = a1\n 67967: a2 = u64 [s1 + 0x1c0]\n 67971: u8 [a0] = a2\n 67973: a1 = a2 >> 0x38\n 67976: u8 [a0 + 0x7] = a1\n 67979: a1 = a2 >> 0x30\n 67982: u8 [a0 + 0x6] = a1\n 67985: a1 = a2 >> 0x28\n 67988: u8 [a0 + 0x5] = a1\n 67991: a1 = a2 >> 0x20\n 67994: u8 [a0 + 0x4] = a1\n 67997: a1 = a2 >> 0x18\n 68000: u8 [a0 + 0x3] = a1\n 68003: a1 = a2 >> 0x10\n 68006: u8 [a0 + 0x2] = a1\n 68009: a1 = a2 >> 0x8\n 68012: u8 [a0 + 0x1] = a1\n 68015: ecalli 11 // 'ref_time_left'\n 68017: a0 = u64 [s1 + 0x1c8]\n 68021: u64 [s1 + 0x488] = a0\n 68025: a0 = u64 [s1 + 0x1d8]\n 68029: u64 [s1 + 0x480] = a0\n 68033: a0 = u64 [s1 + 0x1d0]\n 68037: u32 [s1 + 0x490] = a0\n 68041: u64 [s1 + 1208] = 0\n 68045: u64 [s1 + 1200] = 0\n 68049: u64 [s1 + 1192] = 0\n 68053: u64 [s1 + 1184] = 0\n 68057: a1 = 0x24\n 68060: a0 = u64 [s1 + 0x1b8]\n 68064: ra = 784, jump @0\n      : @870 [@dyn 392] (gas: 4)\n 68071: u64 [s1 + 0x1d8] = a0\n 68075: a0 = u64 [s1 + 0x1b8]\n 68079: a1 = 0\n 68081: ra = 786, jump @0\n      : @871 [@dyn 393] (gas: 25)\n 68088: u32 [s1 + 1216] = 0\n 68092: u64 [s1 + 1272] = 0xffffffffffffffff\n 68097: u64 [s1 + 1264] = 0xffffffffffffffff\n 68102: u64 [s1 + 1256] = 0xffffffffffffffff\n 68107: u64 [s1 + 1248] = 0xffffffffffffffff\n 68112: a1 = s1 + 0x480\n 68116: a1 = a1 << 0x20\n 68119: a1 = a1 >> 0x20\n 68122: a2 = 0x800000000\n 68132: t0 = a1 | a2\n 68135: a1 = s1 + 0x4a0\n 68139: a1 = a1 << 0x20\n 68142: a1 = a1 >> 0x20\n 68145: a2 = s1 + 0x4e0\n 68149: a2 = a2 << 0x20\n 68152: a3 = a2 | a1\n 68155: a1 = u64 [s1 + 0x1d8]\n 68159: a1 = a1 << 0x20\n 68162: a1 = a1 >> 0x20\n 68165: a2 = 0x2400000000\n 68175: a4 = a1 | a2\n 68178: a0 = a0 << 0x20\n 68181: a0 = a0 >> 0x20\n 68184: a1 = s1 + 0x4c0\n 68188: fallthrough\n      : @872 (gas: 7)\n 68189: a1 = a1 << 0x20\n 68192: a5 = a1 | a0\n 68195: a1 = 0xffffffffffffffff\n 68198: a2 = 0xffffffffffffffff\n 68201: a0 = t0\n 68203: ecalli 1 // 'call'\n 68205: fallthrough\n      : @873 (gas: 1)\n 68206: jump @881 if a0 != 0\n      : @874 (gas: 4)\n 68210: ecalli 13 // 'return_data_size'\n 68212: a0 = 0x40\n 68215: a1 = 0x20\n 68218: ra = 788, jump @0\n      : @875 [@dyn 394] (gas: 111)\n 68225: a3 = u64 [s1 + 0x168]\n 68229: u8 [a0 + 0x18] = a3\n 68232: a2 = u64 [s1 + 0x1b0]\n 68236: a1 = a2 >> 0x38\n 68239: u8 [a0 + 0x17] = a1\n 68242: a1 = a2 >> 0x30\n 68245: u8 [a0 + 0x16] = a1\n 68248: a1 = a2 >> 0x28\n 68251: u8 [a0 + 0x15] = a1\n 68254: a1 = a2 >> 0x20\n 68257: u8 [a0 + 0x14] = a1\n 68260: a1 = a2 >> 0x18\n 68263: u8 [a0 + 0x13] = a1\n 68266: a1 = a2 >> 0x10\n 68269: u8 [a0 + 0x12] = a1\n 68272: a1 = a2 >> 0x8\n 68275: u8 [a0 + 0x11] = a1\n 68278: u8 [a0 + 0x10] = a2\n 68281: a2 = u64 [s1 + 0x160]\n 68285: a1 = a2 >> 0x38\n 68288: u8 [a0 + 0xf] = a1\n 68291: a1 = a2 >> 0x30\n 68294: u8 [a0 + 0xe] = a1\n 68297: a1 = a2 >> 0x28\n 68300: u8 [a0 + 0xd] = a1\n 68303: a1 = a2 >> 0x20\n 68306: u8 [a0 + 0xc] = a1\n 68309: a1 = a2 >> 0x18\n 68312: u8 [a0 + 0xb] = a1\n 68315: a1 = a2 >> 0x10\n 68318: u8 [a0 + 0xa] = a1\n 68321: a1 = a2 >> 0x8\n 68324: u8 [a0 + 0x9] = a1\n 68327: u8 [a0 + 0x8] = a2\n 68330: a2 = u64 [s1 + 0x170]\n 68334: a1 = a2 >> 0x38\n 68337: u8 [a0 + 0x7] = a1\n 68340: a1 = a2 >> 0x30\n 68343: u8 [a0 + 0x6] = a1\n 68346: a1 = a2 >> 0x28\n 68349: u8 [a0 + 0x5] = a1\n 68352: a1 = a2 >> 0x20\n 68355: u8 [a0 + 0x4] = a1\n 68358: a1 = a2 >> 0x18\n 68361: u8 [a0 + 0x3] = a1\n 68364: a1 = a2 >> 0x10\n 68367: u8 [a0 + 0x2] = a1\n 68370: a1 = a2 >> 0x8\n 68373: u8 [a0 + 0x1] = a1\n 68376: u8 [a0] = a2\n 68378: a1 = a3 >> 0x38\n 68381: u8 [a0 + 0x1f] = a1\n 68384: a1 = a3 >> 0x30\n 68387: u8 [a0 + 0x1e] = a1\n 68390: a1 = a3 >> 0x28\n 68393: u8 [a0 + 0x1d] = a1\n 68396: a1 = a3 >> 0x20\n 68399: u8 [a0 + 0x1c] = a1\n 68402: a1 = a3 >> 0x18\n 68405: u8 [a0 + 0x1b] = a1\n 68408: a1 = a3 >> 0x10\n 68411: u8 [a0 + 0x1a] = a1\n 68414: a1 = a3 >> 0x8\n 68417: u8 [a0 + 0x19] = a1\n 68420: i32 a0 = s1 + 0x6a0\n 68424: ecalli 5 // 'caller'\n 68426: a0 = u64 [s1 + 0x6a8]\n 68430: a1 = i32 [s1 + 0x6b0]\n 68434: a2 = u64 [s1 + 0x6a0]\n 68438: a0 = reverse a0\n 68440: a3 = a0 << 0x20\n 68443: a1 = reverse a1\n 68445: a1 = a1 >> 0x20\n 68448: a1 = a1 | a3\n 68451: u64 [s1 + 0x1d8] = a1\n 68455: a0 = a0 >> 0x20\n 68458: a1 = reverse a2\n 68460: a2 = a1 << 0x20\n 68463: a0 = a0 | a2\n 68466: u64 [s1 + 0x1d0] = a0\n 68470: a1 = a1 >> 0x20\n 68473: u64 [s1 + 0x1c8] = a1\n 68477: a0 = sp + 0xffffffffffffffe0\n 68480: a0 = a0 & 0xffffffffffffffe0\n 68483: u64 [s1 + 0x1b8] = a0\n 68487: sp = a0\n 68489: u64 [a0 + 24] = 0\n 68492: u64 [a0 + 16] = 0\n 68495: u64 [a0 + 8] = 0\n 68498: u64 [a0 + 0] = 0\n 68500: i32 a0 = a0 + 0\n 68502: ecalli 17 // 'value_transferred'\n 68504: a3 = u64 [s1 + 0x1b8]\n 68508: a0 = u64 [a3]\n 68510: a1 = u64 [a3 + 0x8]\n 68513: a2 = u64 [a3 + 0x10]\n 68516: a3 = u64 [a3 + 0x18]\n 68519: u64 [s1 + 0x2b8] = a3\n 68523: u64 [s1 + 0x2b0] = a2\n 68527: u64 [s1 + 0x2a8] = a1\n 68531: u64 [s1 + 0x2a0] = a0\n 68535: u64 [s1 + 728] = 0\n 68539: a0 = u64 [s1 + 0x1c8]\n 68543: u64 [s1 + 0x2d0] = a0\n 68547: a0 = u64 [s1 + 0x1d0]\n 68551: u64 [s1 + 0x2c8] = a0\n 68555: a0 = s1 + 0x2c0\n 68559: a1 = s1 + 0x2a0\n 68563: a2 = u64 [s1 + 0x1d8]\n 68567: u64 [s1 + 0x2c0] = a2\n 68571: ra = 790, jump @961\n      : @876 [@dyn 395] (gas: 11)\n 68577: i32 a0 = s1 + 0x6c0\n 68581: ecalli 5 // 'caller'\n 68583: a0 = u32 [s1 + 0x6d0]\n 68587: u64 [s1 + 0x1d0] = a0\n 68591: a0 = u64 [s1 + 0x6c8]\n 68595: u64 [s1 + 0x1c8] = a0\n 68599: a0 = u64 [s1 + 0x6c0]\n 68603: u64 [s1 + 0x1d8] = a0\n 68607: a0 = 0x40\n 68610: a1 = 0x20\n 68613: ra = 792, jump @0\n      : @877 [@dyn 396] (gas: 100)\n 68620: a1 = u8 [a0 + 0x11]\n 68623: a2 = u8 [a0 + 0x10]\n 68626: a3 = u8 [a0 + 0x12]\n 68629: a4 = u8 [a0 + 0x13]\n 68632: a1 = a1 << 0x8\n 68635: a1 = a1 | a2\n 68638: a3 = a3 << 0x10\n 68641: a4 = a4 << 0x18\n 68644: a3 = a3 | a4\n 68647: a1 = a1 | a3\n 68650: a2 = u8 [a0 + 0x15]\n 68653: a3 = u8 [a0 + 0x14]\n 68656: a4 = u8 [a0 + 0x16]\n 68659: a5 = u8 [a0 + 0x17]\n 68662: a2 = a2 << 0x8\n 68665: a2 = a2 | a3\n 68668: a4 = a4 << 0x10\n 68671: a5 = a5 << 0x18\n 68674: a4 = a4 | a5\n 68677: a2 = a2 | a4\n 68680: a2 = a2 << 0x20\n 68683: t0 = a2 | a1\n 68686: a2 = u8 [a0 + 0x1]\n 68689: a3 = u8 [a0]\n 68691: a4 = u8 [a0 + 0x2]\n 68694: a5 = u8 [a0 + 0x3]\n 68697: a2 = a2 << 0x8\n 68700: a2 = a2 | a3\n 68703: a4 = a4 << 0x10\n 68706: a5 = a5 << 0x18\n 68709: a4 = a4 | a5\n 68712: a2 = a2 | a4\n 68715: a3 = u8 [a0 + 0x5]\n 68718: a4 = u8 [a0 + 0x4]\n 68721: a5 = u8 [a0 + 0x6]\n 68724: a1 = u8 [a0 + 0x7]\n 68727: a3 = a3 << 0x8\n 68730: a3 = a3 | a4\n 68733: a5 = a5 << 0x10\n 68736: a1 = a1 << 0x18\n 68739: a1 = a1 | a5\n 68742: a1 = a1 | a3\n 68745: a1 = a1 << 0x20\n 68748: t1 = a1 | a2\n 68751: a1 = u8 [a0 + 0x19]\n 68754: a3 = u8 [a0 + 0x18]\n 68757: a4 = u8 [a0 + 0x1a]\n 68760: a5 = u8 [a0 + 0x1b]\n 68763: a1 = a1 << 0x8\n 68766: a1 = a1 | a3\n 68769: a4 = a4 << 0x10\n 68772: a5 = a5 << 0x18\n 68775: a4 = a4 | a5\n 68778: a1 = a1 | a4\n 68781: a3 = u8 [a0 + 0x1d]\n 68784: a4 = u8 [a0 + 0x1c]\n 68787: a5 = u8 [a0 + 0x1e]\n 68790: a2 = u8 [a0 + 0x1f]\n 68793: a3 = a3 << 0x8\n 68796: a3 = a3 | a4\n 68799: a5 = a5 << 0x10\n 68802: a2 = a2 << 0x18\n 68805: a2 = a2 | a5\n 68808: a2 = a2 | a3\n 68811: a2 = a2 << 0x20\n 68814: a3 = a2 | a1\n 68817: a1 = u8 [a0 + 0x9]\n 68820: a2 = u8 [a0 + 0x8]\n 68823: a4 = u8 [a0 + 0xa]\n 68826: a5 = u8 [a0 + 0xb]\n 68829: a1 = a1 << 0x8\n 68832: a1 = a1 | a2\n 68835: a4 = a4 << 0x10\n 68838: a5 = a5 << 0x18\n 68841: a4 = a4 | a5\n 68844: a1 = a1 | a4\n 68847: a2 = u8 [a0 + 0xd]\n 68850: a4 = u8 [a0 + 0xc]\n 68853: a5 = u8 [a0 + 0xe]\n 68856: a0 = u8 [a0 + 0xf]\n 68859: a2 = a2 << 0x8\n 68862: a2 = a2 | a4\n 68865: a5 = a5 << 0x10\n 68868: a0 = a0 << 0x18\n 68871: a0 = a0 | a5\n 68874: a0 = a0 | a2\n 68877: a0 = a0 << 0x20\n 68880: a0 = a0 | a1\n 68883: a1 = reverse a0\n 68885: a0 = reverse a3\n 68887: a2 = reverse t1\n 68889: a3 = reverse t0\n 68891: a2 = a2 | a3\n 68894: a3 = a0 | a1\n 68897: a3 = a3 | a2\n 68900: a3 = a3 >> 0x20\n 68903: a1 = a1 | a2\n 68906: a1 = a1 << 0x20\n 68909: a1 = a1 | a3\n 68912: jump @899 if a1 != 0\n      : @878 (gas: 21)\n 68916: a1 = u64 [s1 + 0x88]\n 68920: a1 = a1 >u 0\n 68922: u64 [s1 + 0x1b8] = a1\n 68926: a1 = u64 [s1 + 0x1c8]\n 68930: a1 = reverse a1\n 68932: a2 = a1 << 0x20\n 68935: a3 = u64 [s1 + 0x1d0]\n 68939: a3 = reverse a3\n 68941: a3 = a3 >> 0x20\n 68944: a2 = a2 | a3\n 68947: u64 [s1 + 0x1d0] = a2\n 68951: a2 = u64 [s1 + 0x1d8]\n 68955: a2 = reverse a2\n 68957: a2 = a2 << 0x20\n 68960: a1 = a1 >> 0x20\n 68963: a1 = a1 | a2\n 68966: u64 [s1 + 0x1c8] = a1\n 68970: i32 a0 = a0 + 0\n 68972: u64 [s1 + 0x1b0] = a0\n 68976: a1 = 0x20\n 68979: ra = 794, jump @0\n      : @879 [@dyn 397] (gas: 36)\n 68986: u8 [a0 + 30] = 0\n 68989: u8 [a0 + 29] = 0\n 68992: u8 [a0 + 28] = 0\n 68995: u8 [a0 + 27] = 0\n 68998: u8 [a0 + 26] = 0\n 69001: u8 [a0 + 25] = 0\n 69004: u8 [a0 + 24] = 0\n 69007: u8 [a0 + 23] = 0\n 69010: u8 [a0 + 22] = 0\n 69013: u8 [a0 + 21] = 0\n 69016: u8 [a0 + 20] = 0\n 69019: u8 [a0 + 19] = 0\n 69022: u8 [a0 + 18] = 0\n 69025: u8 [a0 + 17] = 0\n 69028: u8 [a0 + 16] = 0\n 69031: u8 [a0 + 15] = 0\n 69034: u8 [a0 + 14] = 0\n 69037: u8 [a0 + 13] = 0\n 69040: u8 [a0 + 12] = 0\n 69043: u8 [a0 + 11] = 0\n 69046: u8 [a0 + 10] = 0\n 69049: u8 [a0 + 9] = 0\n 69052: u8 [a0 + 8] = 0\n 69055: u8 [a0 + 7] = 0\n 69058: u8 [a0 + 6] = 0\n 69061: u8 [a0 + 5] = 0\n 69064: u8 [a0 + 4] = 0\n 69067: u8 [a0 + 3] = 0\n 69070: u8 [a0 + 2] = 0\n 69073: u8 [a0 + 1] = 0\n 69076: u8 [a0 + 0] = 0\n 69078: a1 = u64 [s1 + 0x1b8]\n 69082: u8 [a0 + 0x1f] = a1\n 69085: a1 = 0x20\n 69088: a0 = u64 [s1 + 0x1b0]\n 69092: ra = 796, jump @0\n      : @880 [@dyn 398] (gas: 45)\n 69099: a1 = u64 [0x20060]\n 69104: a2 = u64 [0x20068]\n 69109: a3 = u64 [0x20070]\n 69114: a4 = u64 [0x20078]\n 69119: u64 [s1 + 0x6f8] = a1\n 69123: u64 [s1 + 0x6f0] = a2\n 69127: u64 [s1 + 0x6e8] = a3\n 69131: u64 [s1 + 0x6e0] = a4\n 69135: a1 = u64 [s1 + 0x190]\n 69139: u64 [s1 + 0x718] = a1\n 69143: a1 = u64 [s1 + 0x198]\n 69147: u64 [s1 + 0x710] = a1\n 69151: a1 = u64 [s1 + 0x1a0]\n 69155: u64 [s1 + 0x708] = a1\n 69159: a1 = u64 [s1 + 0x1a8]\n 69163: u64 [s1 + 0x700] = a1\n 69167: a1 = u64 [s1 + 0x178]\n 69171: u64 [s1 + 0x738] = a1\n 69175: a1 = u64 [s1 + 0x180]\n 69179: u64 [s1 + 0x730] = a1\n 69183: a1 = u64 [s1 + 0x188]\n 69187: u64 [s1 + 0x728] = a1\n 69191: a1 = u64 [s1 + 0x1c0]\n 69195: u64 [s1 + 0x720] = a1\n 69199: a1 = u64 [s1 + 0x1d0]\n 69203: a1 = reverse a1\n 69205: u64 [s1 + 0x758] = a1\n 69209: a1 = u64 [s1 + 0x1c8]\n 69213: a1 = reverse a1\n 69215: u64 [s1 + 0x750] = a1\n 69219: a1 = u64 [s1 + 0x1d8]\n 69223: a1 = a1 << 0x20\n 69226: u64 [s1 + 0x748] = a1\n 69230: u64 [s1 + 1856] = 0\n 69234: i32 a2 = a0 + 0\n 69236: i32 a0 = s1 + 0x6e0\n 69240: a1 = 0x4\n 69243: a3 = 0x20\n 69246: ecalli 7 // 'deposit_event'\n 69248: sp = s0 + 0xfffffffffffff840\n 69252: ra = u64 [sp + 0x7b8]\n 69256: s0 = u64 [sp + 0x7b0]\n 69260: s1 = u64 [sp + 0x7a8]\n 69264: sp = sp + 0x7c0\n 69268: ret\n      : @881 (gas: 1)\n 69270: ra = 798, jump @282\n      : @882 [@dyn 399] (gas: 3)\n 69277: a0 = 0x40\n 69280: a1 = 0x20\n 69283: ra = 800, jump @0\n      : @883 [@dyn 400] (gas: 104)\n 69290: a1 = u8 [a0 + 0x11]\n 69293: a2 = u8 [a0 + 0x10]\n 69296: a3 = u8 [a0 + 0x12]\n 69299: a4 = u8 [a0 + 0x13]\n 69302: a1 = a1 << 0x8\n 69305: a1 = a1 | a2\n 69308: a3 = a3 << 0x10\n 69311: a4 = a4 << 0x18\n 69314: a3 = a3 | a4\n 69317: a1 = a1 | a3\n 69320: a2 = u8 [a0 + 0x15]\n 69323: a3 = u8 [a0 + 0x14]\n 69326: a4 = u8 [a0 + 0x16]\n 69329: a5 = u8 [a0 + 0x17]\n 69332: a2 = a2 << 0x8\n 69335: a2 = a2 | a3\n 69338: a4 = a4 << 0x10\n 69341: a5 = a5 << 0x18\n 69344: a4 = a4 | a5\n 69347: a2 = a2 | a4\n 69350: a2 = a2 << 0x20\n 69353: t0 = a2 | a1\n 69356: a2 = u8 [a0 + 0x1]\n 69359: a3 = u8 [a0]\n 69361: a4 = u8 [a0 + 0x2]\n 69364: a5 = u8 [a0 + 0x3]\n 69367: a2 = a2 << 0x8\n 69370: a2 = a2 | a3\n 69373: a4 = a4 << 0x10\n 69376: a5 = a5 << 0x18\n 69379: a4 = a4 | a5\n 69382: a2 = a2 | a4\n 69385: a3 = u8 [a0 + 0x5]\n 69388: a4 = u8 [a0 + 0x4]\n 69391: a5 = u8 [a0 + 0x6]\n 69394: a1 = u8 [a0 + 0x7]\n 69397: a3 = a3 << 0x8\n 69400: a3 = a3 | a4\n 69403: a5 = a5 << 0x10\n 69406: a1 = a1 << 0x18\n 69409: a1 = a1 | a5\n 69412: a1 = a1 | a3\n 69415: a1 = a1 << 0x20\n 69418: t1 = a1 | a2\n 69421: a1 = u8 [a0 + 0x19]\n 69424: a3 = u8 [a0 + 0x18]\n 69427: a4 = u8 [a0 + 0x1a]\n 69430: a5 = u8 [a0 + 0x1b]\n 69433: a1 = a1 << 0x8\n 69436: a1 = a1 | a3\n 69439: a4 = a4 << 0x10\n 69442: a5 = a5 << 0x18\n 69445: a4 = a4 | a5\n 69448: a1 = a1 | a4\n 69451: a3 = u8 [a0 + 0x1d]\n 69454: a4 = u8 [a0 + 0x1c]\n 69457: a5 = u8 [a0 + 0x1e]\n 69460: a2 = u8 [a0 + 0x1f]\n 69463: a3 = a3 << 0x8\n 69466: a3 = a3 | a4\n 69469: a5 = a5 << 0x10\n 69472: a2 = a2 << 0x18\n 69475: a2 = a2 | a5\n 69478: a2 = a2 | a3\n 69481: a2 = a2 << 0x20\n 69484: a3 = a2 | a1\n 69487: a1 = u8 [a0 + 0x9]\n 69490: a2 = u8 [a0 + 0x8]\n 69493: a4 = u8 [a0 + 0xa]\n 69496: a5 = u8 [a0 + 0xb]\n 69499: a1 = a1 << 0x8\n 69502: a1 = a1 | a2\n 69505: a4 = a4 << 0x10\n 69508: a5 = a5 << 0x18\n 69511: a4 = a4 | a5\n 69514: a1 = a1 | a4\n 69517: a2 = u8 [a0 + 0xd]\n 69520: a4 = u8 [a0 + 0xc]\n 69523: a5 = u8 [a0 + 0xe]\n 69526: a0 = u8 [a0 + 0xf]\n 69529: a2 = a2 << 0x8\n 69532: a2 = a2 | a4\n 69535: a5 = a5 << 0x10\n 69538: a0 = a0 << 0x18\n 69541: a0 = a0 | a5\n 69544: a0 = a0 | a2\n 69547: a0 = a0 << 0x20\n 69550: a0 = a0 | a1\n 69553: a4 = reverse a0\n 69555: a1 = reverse a3\n 69557: a2 = reverse t1\n 69559: a0 = reverse t0\n 69561: u64 [s1 + 0x1d8] = a0\n 69565: u64 [s1 + 0x1c8] = a2\n 69569: a0 = a0 | a2\n 69572: a2 = a1\n 69574: a1 = a1 | a4\n 69577: a1 = a1 | a0\n 69580: a1 = a1 >> 0x20\n 69583: u64 [s1 + 0x1d0] = a4\n 69587: a0 = a0 | a4\n 69590: a0 = a0 << 0x20\n 69593: a0 = a0 | a1\n 69596: jump @899 if a0 != 0\n      : @884 (gas: 5)\n 69600: u64 [s1 + 0x1c0] = a2\n 69604: i32 a0 = a2 + 0\n 69606: a1 = 0x20\n 69609: u64 [s1 + 0x1b8] = a0\n 69613: ra = 802, jump @0\n      : @885 [@dyn 401] (gas: 51)\n 69620: u8 [a0 + 31] = 0\n 69623: u8 [a0 + 30] = 0\n 69626: u8 [a0 + 29] = 0\n 69629: u8 [a0 + 28] = 0\n 69632: u8 [a0 + 27] = 0\n 69635: u8 [a0 + 26] = 0\n 69638: u8 [a0 + 25] = 0\n 69641: u8 [a0 + 24] = 0\n 69644: u8 [a0 + 23] = 0\n 69647: u8 [a0 + 22] = 0\n 69650: u8 [a0 + 21] = 0\n 69653: u8 [a0 + 20] = 0\n 69656: u8 [a0 + 19] = 0\n 69659: u8 [a0 + 18] = 0\n 69662: u8 [a0 + 17] = 0\n 69665: u8 [a0 + 16] = 0\n 69668: u8 [a0 + 15] = 0\n 69671: u8 [a0 + 14] = 0\n 69674: u8 [a0 + 13] = 0\n 69677: u8 [a0 + 12] = 0\n 69680: u8 [a0 + 11] = 0\n 69683: u8 [a0 + 10] = 0\n 69686: u8 [a0 + 9] = 0\n 69689: u8 [a0 + 8] = 0\n 69692: u8 [a0 + 7] = 0\n 69695: u8 [a0 + 6] = 0\n 69698: u8 [a0 + 5] = 0\n 69701: u8 [a0 + 4] = 0\n 69704: u8 [a0 + 3] = 0xa0\n 69709: u8 [a0 + 2] = 0x79\n 69713: u8 [a0 + 1] = 0xc3\n 69718: u8 [a0 + 0] = 0x8\n 69721: a1 = u64 [s1 + 0x1c0]\n 69725: a0 = a1 + 0x4\n 69728: a1 = a0 <u a1\n 69731: a3 = u64 [s1 + 0x1d8]\n 69735: a2 = a3 + a1\n 69738: a3 = a2 <u a3\n 69741: a3 = a1 if a1 == 0\n 69744: a1 = u64 [s1 + 0x1d0]\n 69748: a3 = a3 + a1\n 69751: a1 = a3 <u a1\n 69754: a4 = u64 [s1 + 0x1c8]\n 69758: a4 = a4 + a1\n 69761: u64 [s1 + 0x1e8] = a2\n 69765: u64 [s1 + 0x1e0] = a0\n 69769: u64 [s1 + 0x1f0] = a3\n 69773: a0 = s1 + 0x200\n 69777: a1 = s1 + 0x1e0\n 69781: u64 [s1 + 0x1f8] = a4\n 69785: ra = 804, jump @272\n      : @886 [@dyn 402] (gas: 5)\n 69792: a0 = u64 [s1 + 0x208]\n 69796: t0 = u64 [s1 + 0x218]\n 69800: t1 = u64 [s1 + 0x200]\n 69804: a3 = u64 [s1 + 0x210]\n 69808: jump @892\n      : @887 (gas: 3)\n 69811: a0 = 0x40\n 69814: a1 = 0x20\n 69817: ra = 806, jump @0\n      : @888 [@dyn 403] (gas: 104)\n 69824: a1 = u8 [a0 + 0x11]\n 69827: a2 = u8 [a0 + 0x10]\n 69830: a3 = u8 [a0 + 0x12]\n 69833: a4 = u8 [a0 + 0x13]\n 69836: a1 = a1 << 0x8\n 69839: a1 = a1 | a2\n 69842: a3 = a3 << 0x10\n 69845: a4 = a4 << 0x18\n 69848: a3 = a3 | a4\n 69851: a1 = a1 | a3\n 69854: a2 = u8 [a0 + 0x15]\n 69857: a3 = u8 [a0 + 0x14]\n 69860: a4 = u8 [a0 + 0x16]\n 69863: a5 = u8 [a0 + 0x17]\n 69866: a2 = a2 << 0x8\n 69869: a2 = a2 | a3\n 69872: a4 = a4 << 0x10\n 69875: a5 = a5 << 0x18\n 69878: a4 = a4 | a5\n 69881: a2 = a2 | a4\n 69884: a2 = a2 << 0x20\n 69887: t0 = a2 | a1\n 69890: a2 = u8 [a0 + 0x1]\n 69893: a3 = u8 [a0]\n 69895: a4 = u8 [a0 + 0x2]\n 69898: a5 = u8 [a0 + 0x3]\n 69901: a2 = a2 << 0x8\n 69904: a2 = a2 | a3\n 69907: a4 = a4 << 0x10\n 69910: a5 = a5 << 0x18\n 69913: a4 = a4 | a5\n 69916: a2 = a2 | a4\n 69919: a3 = u8 [a0 + 0x5]\n 69922: a4 = u8 [a0 + 0x4]\n 69925: a5 = u8 [a0 + 0x6]\n 69928: a1 = u8 [a0 + 0x7]\n 69931: a3 = a3 << 0x8\n 69934: a3 = a3 | a4\n 69937: a5 = a5 << 0x10\n 69940: a1 = a1 << 0x18\n 69943: a1 = a1 | a5\n 69946: a1 = a1 | a3\n 69949: a1 = a1 << 0x20\n 69952: t1 = a1 | a2\n 69955: a1 = u8 [a0 + 0x19]\n 69958: a3 = u8 [a0 + 0x18]\n 69961: a4 = u8 [a0 + 0x1a]\n 69964: a5 = u8 [a0 + 0x1b]\n 69967: a1 = a1 << 0x8\n 69970: a1 = a1 | a3\n 69973: a4 = a4 << 0x10\n 69976: a5 = a5 << 0x18\n 69979: a4 = a4 | a5\n 69982: a1 = a1 | a4\n 69985: a3 = u8 [a0 + 0x1d]\n 69988: a4 = u8 [a0 + 0x1c]\n 69991: a5 = u8 [a0 + 0x1e]\n 69994: a2 = u8 [a0 + 0x1f]\n 69997: a3 = a3 << 0x8\n 70000: a3 = a3 | a4\n 70003: a5 = a5 << 0x10\n 70006: a2 = a2 << 0x18\n 70009: a2 = a2 | a5\n 70012: a2 = a2 | a3\n 70015: a2 = a2 << 0x20\n 70018: a3 = a2 | a1\n 70021: a1 = u8 [a0 + 0x9]\n 70024: a2 = u8 [a0 + 0x8]\n 70027: a4 = u8 [a0 + 0xa]\n 70030: a5 = u8 [a0 + 0xb]\n 70033: a1 = a1 << 0x8\n 70036: a1 = a1 | a2\n 70039: a4 = a4 << 0x10\n 70042: a5 = a5 << 0x18\n 70045: a4 = a4 | a5\n 70048: a1 = a1 | a4\n 70051: a2 = u8 [a0 + 0xd]\n 70054: a4 = u8 [a0 + 0xc]\n 70057: a5 = u8 [a0 + 0xe]\n 70060: a0 = u8 [a0 + 0xf]\n 70063: a2 = a2 << 0x8\n 70066: a2 = a2 | a4\n 70069: a5 = a5 << 0x10\n 70072: a0 = a0 << 0x18\n 70075: a0 = a0 | a5\n 70078: a0 = a0 | a2\n 70081: a0 = a0 << 0x20\n 70084: a0 = a0 | a1\n 70087: a4 = reverse a0\n 70089: a1 = reverse a3\n 70091: a2 = reverse t1\n 70093: a0 = reverse t0\n 70095: u64 [s1 + 0x1d8] = a0\n 70099: u64 [s1 + 0x1c8] = a2\n 70103: a0 = a0 | a2\n 70106: a2 = a1\n 70108: a1 = a1 | a4\n 70111: a1 = a1 | a0\n 70114: a1 = a1 >> 0x20\n 70117: u64 [s1 + 0x1d0] = a4\n 70121: a0 = a0 | a4\n 70124: a0 = a0 << 0x20\n 70127: a0 = a0 | a1\n 70130: jump @899 if a0 != 0\n      : @889 (gas: 5)\n 70134: u64 [s1 + 0x1c0] = a2\n 70138: i32 a0 = a2 + 0\n 70140: a1 = 0x20\n 70143: u64 [s1 + 0x1b8] = a0\n 70147: ra = 808, jump @0\n      : @890 [@dyn 404] (gas: 51)\n 70154: u8 [a0 + 31] = 0\n 70157: u8 [a0 + 30] = 0\n 70160: u8 [a0 + 29] = 0\n 70163: u8 [a0 + 28] = 0\n 70166: u8 [a0 + 27] = 0\n 70169: u8 [a0 + 26] = 0\n 70172: u8 [a0 + 25] = 0\n 70175: u8 [a0 + 24] = 0\n 70178: u8 [a0 + 23] = 0\n 70181: u8 [a0 + 22] = 0\n 70184: u8 [a0 + 21] = 0\n 70187: u8 [a0 + 20] = 0\n 70190: u8 [a0 + 19] = 0\n 70193: u8 [a0 + 18] = 0\n 70196: u8 [a0 + 17] = 0\n 70199: u8 [a0 + 16] = 0\n 70202: u8 [a0 + 15] = 0\n 70205: u8 [a0 + 14] = 0\n 70208: u8 [a0 + 13] = 0\n 70211: u8 [a0 + 12] = 0\n 70214: u8 [a0 + 11] = 0\n 70217: u8 [a0 + 10] = 0\n 70220: u8 [a0 + 9] = 0\n 70223: u8 [a0 + 8] = 0\n 70226: u8 [a0 + 7] = 0\n 70229: u8 [a0 + 6] = 0\n 70232: u8 [a0 + 5] = 0\n 70235: u8 [a0 + 4] = 0\n 70238: u8 [a0 + 3] = 0xa0\n 70243: u8 [a0 + 2] = 0x79\n 70247: u8 [a0 + 1] = 0xc3\n 70252: u8 [a0 + 0] = 0x8\n 70255: a1 = u64 [s1 + 0x1c0]\n 70259: a0 = a1 + 0x4\n 70262: a1 = a0 <u a1\n 70265: a3 = u64 [s1 + 0x1d8]\n 70269: a2 = a3 + a1\n 70272: a3 = a2 <u a3\n 70275: a3 = a1 if a1 == 0\n 70278: a1 = u64 [s1 + 0x1d0]\n 70282: a3 = a3 + a1\n 70285: a1 = a3 <u a1\n 70288: a4 = u64 [s1 + 0x1c8]\n 70292: a4 = a4 + a1\n 70295: u64 [s1 + 0x268] = a2\n 70299: u64 [s1 + 0x260] = a0\n 70303: u64 [s1 + 0x270] = a3\n 70307: a0 = s1 + 0x280\n 70311: a1 = s1 + 0x260\n 70315: u64 [s1 + 0x278] = a4\n 70319: ra = 810, jump @756\n      : @891 [@dyn 405] (gas: 5)\n 70325: a0 = u64 [s1 + 0x288]\n 70329: t0 = u64 [s1 + 0x298]\n 70333: t1 = u64 [s1 + 0x280]\n 70337: a3 = u64 [s1 + 0x290]\n 70341: fallthrough\n      : @892 (gas: 27)\n 70342: a1 = u64 [s1 + 0x1d8]\n 70346: a4 = a0 ^ a1\n 70349: a5 = a0 <u a1\n 70352: ra = a1\n 70354: t2 = u64 [s1 + 0x1c0]\n 70358: a1 = t1 <u t2\n 70361: a5 = a1 if a4 == 0\n 70364: a2 = u64 [s1 + 0x1d0]\n 70368: a4 = a3 - a2\n 70371: a3 = a3 <u a2\n 70374: a2 = u64 [s1 + 0x1c8]\n 70378: a2 = t0 - a2\n 70381: a2 = a2 - a3\n 70384: a3 = a4 <u a5\n 70387: a2 = a2 - a3\n 70390: a4 = a4 - a5\n 70393: a0 = a0 - ra\n 70396: a1 = a0 - a1\n 70399: a0 = t1 - t2\n 70402: a1 = a1 | a2\n 70405: a2 = a0 | a4\n 70408: a2 = a2 | a1\n 70411: a1 = a1 | a4\n 70414: a2 = a2 >> 0x20\n 70417: a1 = a1 << 0x20\n 70420: a1 = a1 | a2\n 70423: jump @899 if a1 != 0\n      : @893 (gas: 4)\n 70427: i32 a1 = a0 + 0\n 70429: u64 [s1 + 0x1d8] = a1\n 70433: a0 = u64 [s1 + 0x1b8]\n 70437: ra = 812, jump @0\n      : @894 [@dyn 406] (gas: 5)\n 70444: i32 a1 = a0 + 0\n 70446: a0 = 0x1\n 70449: a2 = u64 [s1 + 0x1d8]\n 70453: ecalli 14 // 'seal_return'\n 70455: fallthrough\n      : @895 (gas: 8)\n 70456: a0 = a4 | a2\n 70459: a1 = a1 | a3\n 70462: a0 = a0 | a1\n 70465: a0 = a0 >> 0x20\n 70468: a1 = a1 | a2\n 70471: a1 = a1 << 0x20\n 70474: a0 = a0 | a1\n 70477: jump @899 if a0 != 0\n      : @896 (gas: 4)\n 70481: i32 a0 = a4 + 0\n 70483: a1 = 0x20\n 70486: u64 [s1 + 0x1d8] = a0\n 70490: ra = 814, jump @0\n      : @897 [@dyn 407] (gas: 51)\n 70497: u8 [a0 + 31] = 0\n 70500: u8 [a0 + 30] = 0\n 70503: u8 [a0 + 29] = 0\n 70506: u8 [a0 + 28] = 0\n 70509: u8 [a0 + 27] = 0\n 70512: u8 [a0 + 26] = 0\n 70515: u8 [a0 + 25] = 0\n 70518: u8 [a0 + 24] = 0\n 70521: u8 [a0 + 23] = 0\n 70524: u8 [a0 + 22] = 0\n 70527: u8 [a0 + 21] = 0\n 70530: u8 [a0 + 20] = 0\n 70533: u8 [a0 + 19] = 0\n 70536: u8 [a0 + 18] = 0\n 70539: u8 [a0 + 17] = 0\n 70542: u8 [a0 + 16] = 0\n 70545: u8 [a0 + 15] = 0\n 70548: u8 [a0 + 14] = 0\n 70551: u8 [a0 + 13] = 0\n 70554: u8 [a0 + 12] = 0\n 70557: u8 [a0 + 11] = 0\n 70560: u8 [a0 + 10] = 0\n 70563: u8 [a0 + 9] = 0\n 70566: u8 [a0 + 8] = 0\n 70569: u8 [a0 + 7] = 0\n 70572: u8 [a0 + 6] = 0\n 70575: u8 [a0 + 5] = 0\n 70578: u8 [a0 + 4] = 0\n 70581: u8 [a0 + 3] = 0xa0\n 70586: u8 [a0 + 2] = 0x79\n 70590: u8 [a0 + 1] = 0xc3\n 70595: u8 [a0 + 0] = 0x8\n 70598: a1 = u64 [s1 + 0x68]\n 70601: a0 = a1 + 0x4\n 70604: a1 = a0 <u a1\n 70607: a3 = u64 [s1 + 0x70]\n 70610: a2 = a3 + a1\n 70613: a3 = a2 <u a3\n 70616: a3 = a1 if a1 == 0\n 70619: a1 = u64 [s1 + 0x78]\n 70622: a3 = a3 + a1\n 70625: a1 = a3 <u a1\n 70628: a4 = u64 [s1 + 0x80]\n 70632: a4 = a4 + a1\n 70635: u64 [s1 + 0x328] = a2\n 70639: u64 [s1 + 0x320] = a0\n 70643: u64 [s1 + 0x330] = a3\n 70647: a0 = s1 + 0x340\n 70651: a1 = s1 + 0x320\n 70655: u64 [s1 + 0x338] = a4\n 70659: ra = 816, jump @764\n      : @898 [@dyn 408] (gas: 31)\n 70665: a0 = u64 [s1 + 0x348]\n 70669: t0 = u64 [s1 + 0x358]\n 70673: t1 = u64 [s1 + 0x340]\n 70677: a3 = u64 [s1 + 0x350]\n 70681: a1 = u64 [s1 + 0x70]\n 70684: a4 = a0 ^ a1\n 70687: a5 = a0 <u a1\n 70690: ra = a1\n 70692: t2 = u64 [s1 + 0x68]\n 70695: a1 = t1 <u t2\n 70698: a5 = a1 if a4 == 0\n 70701: a2 = u64 [s1 + 0x78]\n 70704: a4 = a3 - a2\n 70707: a3 = a3 <u a2\n 70710: a2 = u64 [s1 + 0x80]\n 70714: a2 = t0 - a2\n 70717: a2 = a2 - a3\n 70720: a3 = a4 <u a5\n 70723: a2 = a2 - a3\n 70726: a4 = a4 - a5\n 70729: a0 = a0 - ra\n 70732: a1 = a0 - a1\n 70735: a0 = t1 - t2\n 70738: a1 = a1 | a2\n 70741: a2 = a0 | a4\n 70744: a2 = a2 | a1\n 70747: a1 = a1 | a4\n 70750: a2 = a2 >> 0x20\n 70753: a1 = a1 << 0x20\n 70756: a1 = a1 | a2\n 70759: jump @913 if a1 == 0\n      : @899 (gas: 1)\n 70763: trap\n      : @900 (gas: 4)\n 70764: a0 = 0\n 70766: a1 = 0\n 70768: ra = 0x332\n 70772: jump @0\n      : @901 (gas: 2)\n 70776: a1 = 0\n 70778: ra = 818, jump @0\n      : @902 [@dyn 409] (gas: 5)\n 70785: i32 a1 = a0 + 0\n 70787: a0 = 0x1\n 70790: a2 = 0\n 70792: ecalli 14 // 'seal_return'\n 70794: fallthrough\n      : @903 (gas: 8)\n 70795: u64 [s1 + 592] = 0\n 70799: u64 [s1 + 584] = 0\n 70803: u64 [s1 + 576] = 0\n 70807: a0 = 0x4e487b7100000000\n 70817: a1 = s1 + 0x240\n 70821: u64 [s1 + 0x258] = a0\n 70825: a0 = 0\n 70827: ra = 820, jump @8\n      : @904 [@dyn 410] (gas: 8)\n 70834: u64 [s1 + 568] = 0\n 70838: u64 [s1 + 560] = 0\n 70842: u64 [s1 + 544] = 0x41\n 70847: a0 = 0x4\n 70850: a1 = s1 + 0x220\n 70854: u64 [s1 + 552] = 0\n 70858: ra = 0x33c\n 70862: jump @8\n      : @905 (gas: 8)\n 70866: u64 [s1 + 784] = 0\n 70870: u64 [s1 + 776] = 0\n 70874: u64 [s1 + 768] = 0\n 70878: a0 = 0x4e487b7100000000\n 70888: a1 = s1 + 0x300\n 70892: u64 [s1 + 0x318] = a0\n 70896: a0 = 0\n 70898: ra = 822, jump @8\n      : @906 [@dyn 411] (gas: 8)\n 70905: u64 [s1 + 760] = 0\n 70909: u64 [s1 + 752] = 0\n 70913: u64 [s1 + 736] = 0x41\n 70918: a0 = 0x4\n 70921: a1 = s1 + 0x2e0\n 70925: u64 [s1 + 744] = 0\n 70929: ra = 0x33c\n 70933: jump @8\n      : @907 (gas: 8)\n 70937: u64 [s1 + 912] = 0\n 70941: u64 [s1 + 904] = 0\n 70945: u64 [s1 + 896] = 0\n 70949: a0 = 0x4e487b7100000000\n 70959: a1 = s1 + 0x380\n 70963: u64 [s1 + 0x398] = a0\n 70967: a0 = 0\n 70969: ra = 824, jump @8\n      : @908 [@dyn 412] (gas: 8)\n 70976: u64 [s1 + 888] = 0\n 70980: u64 [s1 + 880] = 0\n 70984: u64 [s1 + 864] = 0x41\n 70989: a0 = 0x4\n 70992: a1 = s1 + 0x360\n 70996: u64 [s1 + 872] = 0\n 71000: ra = 0x33c\n 71004: jump @8\n      : @909 (gas: 8)\n 71008: u64 [s1 + 976] = 0\n 71012: u64 [s1 + 968] = 0\n 71016: u64 [s1 + 960] = 0\n 71020: a0 = 0x4e487b7100000000\n 71030: a1 = s1 + 0x3c0\n 71034: u64 [s1 + 0x3d8] = a0\n 71038: a0 = 0\n 71040: ra = 826, jump @8\n      : @910 [@dyn 413] (gas: 7)\n 71047: u64 [s1 + 952] = 0\n 71051: u64 [s1 + 944] = 0\n 71055: u64 [s1 + 928] = 0x11\n 71060: a0 = 0x4\n 71063: a1 = s1 + 0x3a0\n 71067: u64 [s1 + 936] = 0\n 71071: ra = 828, jump @8\n      : @911 [@dyn 414] (gas: 3)\n 71078: a1 = 0x24\n 71081: a0 = 0\n 71083: ra = 830, jump @0\n      : @912 [@dyn 415] (gas: 5)\n 71090: i32 a1 = a0 + 0\n 71092: a0 = 0x1\n 71095: a2 = 0x24\n 71098: ecalli 14 // 'seal_return'\n 71100: fallthrough\n      : @913 (gas: 4)\n 71101: i32 a1 = a0 + 0\n 71103: u64 [s1 + 0x1d0] = a1\n 71107: a0 = u64 [s1 + 0x1d8]\n 71111: ra = 832, jump @0\n      : @914 [@dyn 416] (gas: 6)\n 71118: i32 a1 = a0 + 0\n 71120: a0 = 0x1\n 71123: a2 = u64 [s1 + 0x1d0]\n 71127: ra = 0x342\n 71131: ecalli 14 // 'seal_return'\n 71133: fallthrough\n      : @915 [@dyn 417] (gas: 12)\n 71134: a1 = u64 [a0 + 0x10]\n 71137: a2 = u64 [a0 + 0x18]\n 71140: a3 = u64 [a0 + 0x8]\n 71143: a0 = u64 [a0]\n 71145: a2 = a2 | a3\n 71148: a3 = a0 | a1\n 71151: a3 = a3 | a2\n 71154: a3 = a3 >> 0x20\n 71157: a1 = a1 | a2\n 71160: a1 = a1 << 0x20\n 71163: a1 = a1 | a3\n 71166: jump @918 if a1 != 0\n      : @916 (gas: 7)\n 71170: sp = sp + 0xfffffffffffffff0\n 71173: u64 [sp + 0x8] = ra\n 71176: u64 [sp] = s0\n 71178: i32 a0 = a0 + 0\n 71180: a1 = 0x20\n 71183: s0 = 0x20\n 71186: ra = 836, jump @0\n      : @917 [@dyn 418] (gas: 43)\n 71193: t0 = 0x64\n 71196: u8 [a0 + 0x1f] = t0\n 71199: u8 [a0 + 30] = 0x65\n 71203: u8 [a0 + 29] = 0x74\n 71207: u8 [a0 + 28] = 0x70\n 71211: u8 [a0 + 27] = 0x65\n 71215: a3 = 0x63\n 71218: u8 [a0 + 0x1a] = a3\n 71221: u8 [a0 + 0x19] = a3\n 71224: t1 = 0x61\n 71227: u8 [a0 + 0x18] = t1\n 71230: u8 [a0 + 0x17] = s0\n 71233: u8 [a0 + 22] = 0x74\n 71237: a2 = 0x6f\n 71240: u8 [a0 + 0x15] = a2\n 71243: u8 [a0 + 20] = 0x6e\n 71247: u8 [a0 + 0x13] = s0\n 71250: u8 [a0 + 18] = 0x48\n 71254: u8 [a0 + 17] = 0x54\n 71258: u8 [a0 + 16] = 0x45\n 71262: u8 [a0 + 0xf] = s0\n 71265: u8 [a0 + 14] = 0x74\n 71269: u8 [a0 + 0xd] = a3\n 71272: u8 [a0 + 12] = 0x65\n 71276: a4 = 0x72\n 71279: u8 [a0 + 0xb] = a4\n 71282: u8 [a0 + 10] = 0x69\n 71286: u8 [a0 + 0x9] = t0\n 71289: u8 [a0 + 0x8] = s0\n 71292: u8 [a0 + 7] = 0x3a\n 71296: a5 = 0x79\n 71299: u8 [a0 + 0x6] = a5\n 71302: u8 [a0 + 0x5] = a4\n 71305: u8 [a0 + 0x4] = a2\n 71308: u8 [a0 + 3] = 0x74\n 71312: u8 [a0 + 0x2] = a3\n 71315: u8 [a0 + 0x1] = t1\n 71318: a1 = 0x46\n 71321: u8 [a0] = a1\n 71323: ra = u64 [sp + 0x8]\n 71326: s0 = u64 [sp]\n 71328: sp = sp + 0x10\n 71331: ret\n      : @918 (gas: 1)\n 71333: trap\n      : @919 [@dyn 419] (gas: 100)\n 71334: a1 = u8 [a0 + 0x11]\n 71337: a2 = u8 [a0 + 0x10]\n 71340: a3 = u8 [a0 + 0x12]\n 71343: a4 = u8 [a0 + 0x13]\n 71346: a1 = a1 << 0x8\n 71349: a1 = a1 | a2\n 71352: a3 = a3 << 0x10\n 71355: a4 = a4 << 0x18\n 71358: a3 = a3 | a4\n 71361: a1 = a1 | a3\n 71364: a2 = u8 [a0 + 0x15]\n 71367: a3 = u8 [a0 + 0x14]\n 71370: a4 = u8 [a0 + 0x16]\n 71373: a5 = u8 [a0 + 0x17]\n 71376: a2 = a2 << 0x8\n 71379: a2 = a2 | a3\n 71382: a4 = a4 << 0x10\n 71385: a5 = a5 << 0x18\n 71388: a4 = a4 | a5\n 71391: a2 = a2 | a4\n 71394: a2 = a2 << 0x20\n 71397: a1 = a1 | a2\n 71400: a2 = u8 [a0 + 0x1]\n 71403: a3 = u8 [a0]\n 71405: a4 = u8 [a0 + 0x2]\n 71408: a5 = u8 [a0 + 0x3]\n 71411: a2 = a2 << 0x8\n 71414: a2 = a2 | a3\n 71417: a4 = a4 << 0x10\n 71420: a5 = a5 << 0x18\n 71423: a4 = a4 | a5\n 71426: a2 = a2 | a4\n 71429: a3 = u8 [a0 + 0x5]\n 71432: a4 = u8 [a0 + 0x4]\n 71435: a5 = u8 [a0 + 0x6]\n 71438: s1 = u8 [a0 + 0x7]\n 71441: a3 = a3 << 0x8\n 71444: a3 = a3 | a4\n 71447: a5 = a5 << 0x10\n 71450: s1 = s1 << 0x18\n 71453: a5 = a5 | s1\n 71456: a3 = a3 | a5\n 71459: a3 = a3 << 0x20\n 71462: a2 = a2 | a3\n 71465: a3 = u8 [a0 + 0x19]\n 71468: a4 = u8 [a0 + 0x18]\n 71471: a5 = u8 [a0 + 0x1a]\n 71474: s1 = u8 [a0 + 0x1b]\n 71477: a3 = a3 << 0x8\n 71480: a3 = a3 | a4\n 71483: a5 = a5 << 0x10\n 71486: s1 = s1 << 0x18\n 71489: a5 = a5 | s1\n 71492: a3 = a3 | a5\n 71495: a4 = u8 [a0 + 0x1d]\n 71498: a5 = u8 [a0 + 0x1c]\n 71501: s1 = u8 [a0 + 0x1e]\n 71504: s0 = u8 [a0 + 0x1f]\n 71507: a4 = a4 << 0x8\n 71510: a4 = a4 | a5\n 71513: s1 = s1 << 0x10\n 71516: s0 = s0 << 0x18\n 71519: s0 = s0 | s1\n 71522: a4 = a4 | s0\n 71525: a4 = a4 << 0x20\n 71528: a3 = a3 | a4\n 71531: a4 = u8 [a0 + 0x9]\n 71534: a5 = u8 [a0 + 0x8]\n 71537: s1 = u8 [a0 + 0xa]\n 71540: s0 = u8 [a0 + 0xb]\n 71543: a4 = a4 << 0x8\n 71546: a4 = a4 | a5\n 71549: s1 = s1 << 0x10\n 71552: s0 = s0 << 0x18\n 71555: s0 = s0 | s1\n 71558: a4 = a4 | s0\n 71561: a5 = u8 [a0 + 0xd]\n 71564: s1 = u8 [a0 + 0xc]\n 71567: s0 = u8 [a0 + 0xe]\n 71570: a0 = u8 [a0 + 0xf]\n 71573: a5 = a5 << 0x8\n 71576: a5 = a5 | s1\n 71579: s0 = s0 << 0x10\n 71582: a0 = a0 << 0x18\n 71585: a0 = a0 | s0\n 71588: a0 = a0 | a5\n 71591: a0 = a0 << 0x20\n 71594: a0 = a0 | a4\n 71597: s1 = reverse a0\n 71599: a3 = reverse a3\n 71601: s0 = reverse a2\n 71603: a2 = reverse a1\n 71605: a0 = a2 | s0\n 71608: a1 = a3 | s1\n 71611: a1 = a1 | a0\n 71614: a1 = a1 >> 0x20\n 71617: a0 = a0 | s1\n 71620: a0 = a0 << 0x20\n 71623: a0 = a0 | a1\n 71626: jump @926 if a0 != 0\n      : @920 (gas: 6)\n 71630: i32 a0 = a3 + 0\n 71632: a1 = 0x20\n 71635: u64 [sp + 0x8] = a0\n 71638: u64 [sp + 0x18] = a2\n 71641: u64 [sp + 0x10] = a3\n 71644: ra = 840, jump @0\n      : @921 [@dyn 420] (gas: 41)\n 71651: u8 [a0 + 31] = 0\n 71654: u8 [a0 + 30] = 0\n 71657: u8 [a0 + 29] = 0\n 71660: u8 [a0 + 28] = 0\n 71663: u8 [a0 + 27] = 0\n 71666: u8 [a0 + 26] = 0\n 71669: u8 [a0 + 25] = 0\n 71672: u8 [a0 + 24] = 0\n 71675: u8 [a0 + 23] = 0\n 71678: u8 [a0 + 22] = 0\n 71681: u8 [a0 + 21] = 0\n 71684: u8 [a0 + 20] = 0\n 71687: u8 [a0 + 19] = 0\n 71690: u8 [a0 + 18] = 0\n 71693: u8 [a0 + 17] = 0\n 71696: u8 [a0 + 16] = 0\n 71699: u8 [a0 + 15] = 0\n 71702: u8 [a0 + 14] = 0\n 71705: u8 [a0 + 13] = 0\n 71708: u8 [a0 + 12] = 0\n 71711: u8 [a0 + 11] = 0\n 71714: u8 [a0 + 10] = 0\n 71717: u8 [a0 + 9] = 0\n 71720: u8 [a0 + 8] = 0\n 71723: u8 [a0 + 7] = 0\n 71726: u8 [a0 + 6] = 0\n 71729: u8 [a0 + 5] = 0\n 71732: u8 [a0 + 3] = 0xa0\n 71737: u8 [a0 + 2] = 0x79\n 71741: u8 [a0 + 1] = 0xc3\n 71746: u8 [a0 + 0] = 0x8\n 71749: s1 = s1 | s0\n 71752: s0 = 0x100000000\n 71762: a1 = 0xfffffffc\n 71772: a2 = u64 [sp + 0x10]\n 71775: a1 = a2 <u a1\n 71778: a2 = u64 [sp + 0x18]\n 71781: a1 = 0 if a2 != 0\n 71783: a1 = 0 if s1 != 0\n 71785: u8 [a0 + 4] = 0\n 71788: jump @926 if a1 == 0\n      : @922 (gas: 4)\n 71792: a0 = u64 [sp + 0x8]\n 71795: i32 a0 = a0 + 0x4\n 71798: a1 = 0x20\n 71801: ra = 842, jump @0\n      : @923 [@dyn 421] (gas: 39)\n 71808: a3 = u64 [sp + 0x10]\n 71811: a2 = u64 [sp + 0x18]\n 71814: u8 [a0 + 31] = 0x20\n 71818: u8 [a0 + 30] = 0\n 71821: u8 [a0 + 29] = 0\n 71824: u8 [a0 + 28] = 0\n 71827: u8 [a0 + 27] = 0\n 71830: u8 [a0 + 26] = 0\n 71833: u8 [a0 + 25] = 0\n 71836: u8 [a0 + 24] = 0\n 71839: u8 [a0 + 23] = 0\n 71842: u8 [a0 + 22] = 0\n 71845: u8 [a0 + 21] = 0\n 71848: u8 [a0 + 20] = 0\n 71851: u8 [a0 + 19] = 0\n 71854: u8 [a0 + 18] = 0\n 71857: u8 [a0 + 17] = 0\n 71860: u8 [a0 + 16] = 0\n 71863: u8 [a0 + 15] = 0\n 71866: u8 [a0 + 14] = 0\n 71869: u8 [a0 + 13] = 0\n 71872: u8 [a0 + 12] = 0\n 71875: u8 [a0 + 11] = 0\n 71878: u8 [a0 + 10] = 0\n 71881: u8 [a0 + 9] = 0\n 71884: u8 [a0 + 8] = 0\n 71887: u8 [a0 + 7] = 0\n 71890: u8 [a0 + 6] = 0\n 71893: u8 [a0 + 5] = 0\n 71896: u8 [a0 + 4] = 0\n 71899: u8 [a0 + 3] = 0\n 71902: u8 [a0 + 2] = 0\n 71905: u8 [a0 + 1] = 0\n 71908: a1 = s0 + 0xffffffffffffffdc\n 71911: a1 = a3 <u a1\n 71914: a1 = 0 if a2 != 0\n 71916: a1 = 0 if s1 != 0\n 71918: u8 [a0 + 0] = 0\n 71920: jump @926 if a1 == 0\n      : @924 (gas: 7)\n 71924: a4 = s1\n 71926: s1 = u64 [sp + 0x8]\n 71929: i32 a0 = s1 + 0x24\n 71932: a1 = 0x20\n 71935: s0 = a3\n 71937: u64 [sp] = a4\n 71939: ra = 844, jump @0\n      : @925 [@dyn 422] (gas: 39)\n 71946: a1 = 0xffffffbc\n 71956: a1 = s0 <u a1\n 71959: u8 [a0 + 31] = 0x20\n 71963: u8 [a0 + 30] = 0\n 71966: u8 [a0 + 29] = 0\n 71969: u8 [a0 + 28] = 0\n 71972: u8 [a0 + 27] = 0\n 71975: u8 [a0 + 26] = 0\n 71978: u8 [a0 + 25] = 0\n 71981: u8 [a0 + 24] = 0\n 71984: u8 [a0 + 23] = 0\n 71987: u8 [a0 + 22] = 0\n 71990: u8 [a0 + 21] = 0\n 71993: u8 [a0 + 20] = 0\n 71996: u8 [a0 + 19] = 0\n 71999: u8 [a0 + 18] = 0\n 72002: u8 [a0 + 17] = 0\n 72005: u8 [a0 + 16] = 0\n 72008: u8 [a0 + 15] = 0\n 72011: u8 [a0 + 14] = 0\n 72014: u8 [a0 + 13] = 0\n 72017: u8 [a0 + 12] = 0\n 72020: u8 [a0 + 11] = 0\n 72023: u8 [a0 + 10] = 0\n 72026: u8 [a0 + 9] = 0\n 72029: u8 [a0 + 8] = 0\n 72032: u8 [a0 + 7] = 0\n 72035: u8 [a0 + 6] = 0\n 72038: u8 [a0 + 5] = 0\n 72041: u8 [a0 + 4] = 0\n 72044: u8 [a0 + 3] = 0\n 72047: u8 [a0 + 2] = 0\n 72050: u8 [a0 + 1] = 0\n 72053: a2 = u64 [sp + 0x18]\n 72056: a1 = 0 if a2 != 0\n 72058: a2 = u64 [sp]\n 72060: a1 = 0 if a2 != 0\n 72062: u8 [a0 + 0] = 0\n 72064: jump @927 if a1 != 0\n      : @926 (gas: 1)\n 72067: trap\n      : @927 (gas: 3)\n 72068: i32 a0 = s1 + 0x44\n 72071: a1 = 0x20\n 72074: ra = 846, jump @0\n      : @928 [@dyn 423] (gas: 41)\n 72081: t1 = 0x64\n 72084: u8 [a0 + 0x1f] = t1\n 72087: u8 [a0 + 30] = 0x65\n 72091: u8 [a0 + 29] = 0x74\n 72095: u8 [a0 + 28] = 0x70\n 72099: u8 [a0 + 27] = 0x65\n 72103: u8 [a0 + 26] = 0x63\n 72107: u8 [a0 + 25] = 0x63\n 72111: t0 = 0x61\n 72114: u8 [a0 + 0x18] = t0\n 72117: u8 [a0 + 23] = 0x20\n 72121: u8 [a0 + 22] = 0x74\n 72125: a4 = s1\n 72127: s1 = 0x6f\n 72130: u8 [a0 + 0x15] = s1\n 72133: u8 [a0 + 20] = 0x6e\n 72137: u8 [a0 + 19] = 0x20\n 72141: u8 [a0 + 18] = 0x48\n 72145: u8 [a0 + 17] = 0x54\n 72149: u8 [a0 + 16] = 0x45\n 72153: u8 [a0 + 15] = 0x20\n 72157: u8 [a0 + 14] = 0x74\n 72161: u8 [a0 + 13] = 0x63\n 72165: u8 [a0 + 12] = 0x65\n 72169: a5 = 0x72\n 72172: u8 [a0 + 0xb] = a5\n 72175: s0 = 0x69\n 72178: u8 [a0 + 0xa] = s0\n 72181: u8 [a0 + 0x9] = t1\n 72184: u8 [a0 + 8] = 0x20\n 72188: u8 [a0 + 7] = 0x3a\n 72192: u8 [a0 + 6] = 0x79\n 72196: u8 [a0 + 0x5] = a5\n 72199: u8 [a0 + 0x4] = s1\n 72202: u8 [a0 + 3] = 0x74\n 72206: u8 [a0 + 2] = 0x63\n 72210: u8 [a0 + 0x1] = t0\n 72213: u8 [a0 + 0] = 0x46\n 72216: a1 = 0x64\n 72219: a0 = a4\n 72221: ra = 848, jump @0\n      : @929 [@dyn 424] (gas: 6)\n 72228: i32 a1 = a0 + 0\n 72230: a0 = 0x1\n 72233: a2 = 0x64\n 72236: ra = 0x352\n 72240: ecalli 14 // 'seal_return'\n 72242: fallthrough\n      : @930 [@dyn 425] (gas: 9)\n 72243: a2 = u64 [a1 + 0x18]\n 72246: a3 = u64 [a1 + 0x10]\n 72249: a4 = u64 [a1 + 0x8]\n 72252: a1 = u64 [a1]\n 72254: u64 [a0 + 0x18] = a2\n 72257: u64 [a0 + 0x10] = a3\n 72260: u64 [a0 + 0x8] = a4\n 72263: u64 [a0] = a1\n 72265: ret\n      : @931 (gas: 16)\n 72267: sp = sp + 0xffffffffffffff20\n 72271: u64 [sp + 0xd8] = ra\n 72275: u64 [sp + 0xd0] = s0\n 72279: u64 [sp + 0xc8] = s1\n 72283: s0 = sp + 0xe0\n 72287: sp = sp & 0xfffffffffffffff0\n 72290: a3 = u64 [a1 + 0x18]\n 72293: a2 = u64 [a1 + 0x10]\n 72296: a4 = u64 [a1 + 0x8]\n 72299: u64 [sp + 0x10] = a2\n 72302: u64 [sp + 0x8] = a3\n 72305: a2 = a2 | a3\n 72308: a3 = a4 <u 0x1\n 72311: a3 = 0 if a2 != 0\n 72313: u64 [sp + 0x38] = a0\n 72316: jump @937 if a3 == 0\n      : @932 (gas: 19)\n 72320: s1 = u64 [a1]\n 72322: a0 = s1 + 0x1f\n 72325: a1 = a0 <u s1\n 72328: u64 [sp + 0x18] = a4\n 72331: a1 = a1 + a4\n 72334: a1 = a1 & 0x1\n 72337: a0 = a0 & 0xffffffffffffffe0\n 72340: a2 = a0 + 0x20\n 72343: a0 = a2 <u a0\n 72346: a3 = a1 + a0\n 72349: a4 = a3 <u a1\n 72352: a4 = a0 if a0 == 0\n 72355: u64 [sp + 152] = 0\n 72359: u64 [sp + 0x80] = a2\n 72363: u64 [sp + 0x88] = a3\n 72367: a0 = sp + 0xa0\n 72371: a1 = sp + 0x80\n 72375: u64 [sp + 0x90] = a4\n 72379: ra = 852, jump @410\n      : @933 [@dyn 426] (gas: 15)\n 72386: a0 = u64 [sp + 0xb8]\n 72390: a2 = u64 [sp + 0xb0]\n 72394: a1 = u64 [sp + 0xa8]\n 72398: a3 = u64 [sp + 0xa0]\n 72402: u64 [sp + 0x28] = a0\n 72405: u64 [sp + 0x20] = a1\n 72408: a0 = a0 | a1\n 72411: a1 = a3 | a2\n 72414: a1 = a1 | a0\n 72417: a1 = a1 >> 0x20\n 72420: u64 [sp + 0x30] = a2\n 72423: a0 = a0 | a2\n 72426: a0 = a0 << 0x20\n 72429: a0 = a0 | a1\n 72432: jump @936 if a0 != 0\n      : @934 (gas: 4)\n 72436: i32 a0 = a3 + 0\n 72438: a1 = 0x20\n 72441: u64 [sp] = a3\n 72443: ra = 854, jump @0\n      : @935 [@dyn 427] (gas: 82)\n 72450: a1 = u64 [sp + 0x8]\n 72453: a1 = reverse a1\n 72455: a2 = u64 [sp + 0x10]\n 72458: a2 = reverse a2\n 72460: a3 = u64 [sp + 0x18]\n 72463: a3 = reverse a3\n 72465: a4 = reverse s1\n 72467: a5 = a4 >> 0x38\n 72470: u8 [a0 + 0x1f] = a5\n 72473: a5 = a4 >> 0x30\n 72476: u8 [a0 + 0x1e] = a5\n 72479: a5 = a4 >> 0x28\n 72482: u8 [a0 + 0x1d] = a5\n 72485: a5 = a4 >> 0x20\n 72488: u8 [a0 + 0x1c] = a5\n 72491: a5 = a4 >> 0x18\n 72494: u8 [a0 + 0x1b] = a5\n 72497: a5 = a4 >> 0x10\n 72500: u8 [a0 + 0x1a] = a5\n 72503: a5 = a4 >> 0x8\n 72506: u8 [a0 + 0x19] = a5\n 72509: u8 [a0 + 0x18] = a4\n 72512: u8 [a0 + 0x10] = a3\n 72515: a4 = a3 >> 0x38\n 72518: u8 [a0 + 0x17] = a4\n 72521: a4 = a3 >> 0x30\n 72524: u8 [a0 + 0x16] = a4\n 72527: a4 = a3 >> 0x28\n 72530: u8 [a0 + 0x15] = a4\n 72533: a4 = a3 >> 0x20\n 72536: u8 [a0 + 0x14] = a4\n 72539: a4 = a3 >> 0x18\n 72542: u8 [a0 + 0x13] = a4\n 72545: a4 = a3 >> 0x10\n 72548: u8 [a0 + 0x12] = a4\n 72551: a3 = a3 >> 0x8\n 72554: u8 [a0 + 0x11] = a3\n 72557: u8 [a0 + 0x8] = a2\n 72560: a3 = a2 >> 0x38\n 72563: u8 [a0 + 0xf] = a3\n 72566: a3 = a2 >> 0x30\n 72569: u8 [a0 + 0xe] = a3\n 72572: a3 = a2 >> 0x28\n 72575: u8 [a0 + 0xd] = a3\n 72578: a3 = a2 >> 0x20\n 72581: u8 [a0 + 0xc] = a3\n 72584: a3 = a2 >> 0x18\n 72587: u8 [a0 + 0xb] = a3\n 72590: a3 = a2 >> 0x10\n 72593: u8 [a0 + 0xa] = a3\n 72596: a2 = a2 >> 0x8\n 72599: u8 [a0 + 0x9] = a2\n 72602: u8 [a0] = a1\n 72604: a2 = a1 >> 0x38\n 72607: u8 [a0 + 0x7] = a2\n 72610: a2 = a1 >> 0x30\n 72613: u8 [a0 + 0x6] = a2\n 72616: a2 = a1 >> 0x28\n 72619: u8 [a0 + 0x5] = a2\n 72622: a2 = a1 >> 0x20\n 72625: u8 [a0 + 0x4] = a2\n 72628: a2 = a1 >> 0x18\n 72631: u8 [a0 + 0x3] = a2\n 72634: a2 = a1 >> 0x10\n 72637: u8 [a0 + 0x2] = a2\n 72640: a1 = a1 >> 0x8\n 72643: u8 [a0 + 0x1] = a1\n 72646: a0 = u64 [sp + 0x38]\n 72649: a1 = u64 [sp]\n 72651: u64 [a0] = a1\n 72653: a1 = u64 [sp + 0x28]\n 72656: u64 [a0 + 0x18] = a1\n 72659: a1 = u64 [sp + 0x20]\n 72662: u64 [a0 + 0x8] = a1\n 72665: a1 = u64 [sp + 0x30]\n 72668: u64 [a0 + 0x10] = a1\n 72671: sp = s0 + 0xffffffffffffff20\n 72675: ra = u64 [sp + 0xd8]\n 72679: s0 = u64 [sp + 0xd0]\n 72683: s1 = u64 [sp + 0xc8]\n 72687: sp = sp + 0xe0\n 72691: ret\n      : @936 (gas: 1)\n 72693: trap\n      : @937 (gas: 8)\n 72694: u64 [sp + 112] = 0\n 72697: u64 [sp + 104] = 0\n 72700: u64 [sp + 96] = 0\n 72703: a0 = 0x4e487b7100000000\n 72713: a1 = sp + 0x60\n 72716: u64 [sp + 0x78] = a0\n 72719: a0 = 0\n 72721: ra = 856, jump @8\n      : @938 [@dyn 428] (gas: 7)\n 72728: u64 [sp + 88] = 0\n 72731: u64 [sp + 80] = 0\n 72734: u64 [sp + 64] = 0x41\n 72738: a0 = 0x4\n 72741: a1 = sp + 0x40\n 72744: u64 [sp + 72] = 0\n 72747: ra = 858, jump @8\n      : @939 [@dyn 429] (gas: 3)\n 72754: a1 = 0x24\n 72757: a0 = 0\n 72759: ra = 860, jump @0\n      : @940 [@dyn 430] (gas: 6)\n 72766: i32 a1 = a0 + 0\n 72768: a0 = 0x1\n 72771: a2 = 0x24\n 72774: ra = 0x35e\n 72778: ecalli 14 // 'seal_return'\n 72780: fallthrough\n      : @941 [@dyn 431] (gas: 6)\n 72781: u64 [a0 + 24] = 0\n 72784: u64 [a0 + 16] = 0\n 72787: u64 [a0 + 8] = 0\n 72790: a1 = 0x60\n 72793: u64 [a0] = a1\n 72795: ret\n      : @942 (gas: 1)\n 72797: jump @951 if a0 == 0\n      : @943 (gas: 9)\n 72801: u64 [sp + 0x20] = s1\n 72804: ecalli 13 // 'return_data_size'\n 72806: u64 [sp + 88] = 0\n 72809: u64 [sp + 80] = 0\n 72812: u64 [sp + 0x40] = a0\n 72815: a0 = sp + 0x60\n 72818: a1 = sp + 0x40\n 72821: u64 [sp + 72] = 0\n 72824: ra = 864, jump @931\n      : @944 [@dyn 432] (gas: 9)\n 72830: a0 = u64 [sp + 0x78]\n 72833: u64 [sp + 0x38] = a0\n 72836: a0 = u64 [sp + 0x70]\n 72839: u64 [sp + 0x30] = a0\n 72842: a0 = u64 [sp + 0x68]\n 72845: u64 [sp + 0x28] = a0\n 72848: s1 = u64 [sp + 0x60]\n 72851: ecalli 13 // 'return_data_size'\n 72853: fallthrough\n      : @945 (gas: 20)\n 72854: a1 = s1 + 0x20\n 72857: u64 [sp + 0x18] = s1\n 72860: a2 = a1 <u s1\n 72863: a4 = u64 [sp + 0x28]\n 72866: a3 = a4 + a2\n 72869: a4 = a3 <u a4\n 72872: a4 = a2 if a2 == 0\n 72875: a2 = u64 [sp + 0x30]\n 72878: a4 = a4 + a2\n 72881: a2 = a4 <u a2\n 72884: a5 = u64 [sp + 0x38]\n 72887: a2 = a2 + a5\n 72890: a5 = a1 | a4\n 72893: a2 = a2 | a3\n 72896: a5 = a5 | a2\n 72899: a5 = a5 >> 0x20\n 72902: a2 = a2 | a4\n 72905: a2 = a2 << 0x20\n 72908: a2 = a2 | a5\n 72911: jump @950 if a2 != 0\n      : @946 (gas: 3)\n 72914: s1 = a0\n 72916: a0 = a0 >> 0x20\n 72919: jump @950 if a0 != 0\n      : @947 (gas: 4)\n 72922: i32 a0 = a1 + 0\n 72924: i32 a1 = s1 + 0\n 72926: u64 [sp + 0x10] = a1\n 72929: ra = 866, jump @0\n      : @948 [@dyn 433] (gas: 6)\n 72936: u32 [sp + 0x80] = s1\n 72940: i32 a0 = a0 + 0\n 72942: i32 a1 = sp + 0x80\n 72946: a2 = 0\n 72948: ecalli 12 // 'return_data_copy'\n 72950: fallthrough\n      : @949 (gas: 8)\n 72951: a0 = i32 [sp + 0x80]\n 72955: s1 = u64 [sp + 0x20]\n 72958: a1 = u64 [sp + 0x38]\n 72961: a2 = u64 [sp + 0x30]\n 72964: a3 = u64 [sp + 0x28]\n 72967: a4 = u64 [sp + 0x18]\n 72970: a5 = u64 [sp + 0x10]\n 72973: jump @952 if a0 >=u a5\n      : @950 (gas: 1)\n 72976: trap\n      : @951 (gas: 5)\n 72977: a3 = 0\n 72979: a2 = 0\n 72981: a1 = 0\n 72983: a4 = 0x60\n 72986: fallthrough\n      : @952 (gas: 10)\n 72987: u64 [s1] = a4\n 72989: u64 [s1 + 0x8] = a3\n 72992: u64 [s1 + 0x10] = a2\n 72995: u64 [s1 + 0x18] = a1\n 72998: sp = s0 + 0xffffffffffffff60\n 73002: ra = u64 [sp + 0x98]\n 73006: s0 = u64 [sp + 0x90]\n 73010: s1 = u64 [sp + 0x88]\n 73014: sp = sp + 0xa0\n 73018: ret\n      : @953 (gas: 17)\n 73020: sp = sp + 0xffffffffffffffa0\n 73023: u64 [sp + 0x58] = ra\n 73026: u64 [sp + 0x50] = s0\n 73029: u64 [sp + 0x48] = s1\n 73032: a3 = u64 [a1 + 0x18]\n 73035: a4 = u64 [a1 + 0x10]\n 73038: a5 = u64 [a1 + 0x8]\n 73041: s1 = u64 [a1]\n 73043: a1 = a5 | a3\n 73046: a2 = s1 | a4\n 73049: a2 = a2 | a1\n 73052: a2 = a2 >> 0x20\n 73055: a1 = a1 | a4\n 73058: a1 = a1 << 0x20\n 73061: a1 = a1 | a2\n 73064: u64 [sp + 0x28] = a0\n 73067: jump @960 if a1 != 0\n      : @954 (gas: 19)\n 73071: a0 = s1 + 0x20\n 73074: u64 [sp + 0x30] = a0\n 73077: a0 = a0 <u s1\n 73080: a1 = a5 + a0\n 73083: u64 [sp + 0x40] = a1\n 73086: u64 [sp + 0x8] = a5\n 73089: s0 = a1 <u a5\n 73092: s0 = a0 if a0 == 0\n 73095: s0 = s0 + a4\n 73098: u64 [sp + 0x10] = a4\n 73101: a0 = s0 <u a4\n 73104: u64 [sp + 0x18] = a3\n 73107: a0 = a0 + a3\n 73110: u64 [sp + 0x38] = a0\n 73113: u64 [sp] = s1\n 73115: i32 a0 = s1 + 0\n 73117: a1 = 0x20\n 73120: s1 = 0x20\n 73123: ra = 868, jump @0\n      : @955 [@dyn 434] (gas: 45)\n 73130: u8 [a0 + 0x1f] = s1\n 73133: a1 = u64 [sp + 0x30]\n 73136: s1 = a1\n 73138: a1 = a1 | s0\n 73141: a2 = u64 [sp + 0x40]\n 73144: a4 = u64 [sp + 0x38]\n 73147: a2 = a2 | a4\n 73150: a1 = a1 | a2\n 73153: a1 = a1 >> 0x20\n 73156: u64 [sp + 0x20] = s0\n 73159: a2 = a2 | s0\n 73162: a2 = a2 << 0x20\n 73165: a1 = a1 | a2\n 73168: u8 [a0 + 30] = 0\n 73171: u8 [a0 + 29] = 0\n 73174: u8 [a0 + 28] = 0\n 73177: u8 [a0 + 27] = 0\n 73180: u8 [a0 + 26] = 0\n 73183: u8 [a0 + 25] = 0\n 73186: u8 [a0 + 24] = 0\n 73189: u8 [a0 + 23] = 0\n 73192: u8 [a0 + 22] = 0\n 73195: u8 [a0 + 21] = 0\n 73198: u8 [a0 + 20] = 0\n 73201: u8 [a0 + 19] = 0\n 73204: u8 [a0 + 18] = 0\n 73207: u8 [a0 + 17] = 0\n 73210: u8 [a0 + 16] = 0\n 73213: u8 [a0 + 15] = 0\n 73216: u8 [a0 + 14] = 0\n 73219: u8 [a0 + 13] = 0\n 73222: u8 [a0 + 12] = 0\n 73225: u8 [a0 + 11] = 0\n 73228: u8 [a0 + 10] = 0\n 73231: u8 [a0 + 9] = 0\n 73234: u8 [a0 + 8] = 0\n 73237: u8 [a0 + 7] = 0\n 73240: u8 [a0 + 6] = 0\n 73243: u8 [a0 + 5] = 0\n 73246: u8 [a0 + 4] = 0\n 73249: u8 [a0 + 3] = 0\n 73252: u8 [a0 + 2] = 0\n 73255: u8 [a0 + 1] = 0\n 73258: u8 [a0 + 0] = 0\n 73260: jump @960 if a1 != 0\n      : @956 (gas: 4)\n 73264: i32 s0 = s1 + 0\n 73266: a1 = 0x20\n 73269: a0 = s0\n 73271: ra = 870, jump @0\n      : @957 [@dyn 435] (gas: 41)\n 73278: u8 [a0 + 31] = 0x1c\n 73282: u8 [a0 + 30] = 0\n 73285: u8 [a0 + 29] = 0\n 73288: u8 [a0 + 28] = 0\n 73291: u8 [a0 + 27] = 0\n 73294: u8 [a0 + 26] = 0\n 73297: u8 [a0 + 25] = 0\n 73300: u8 [a0 + 24] = 0\n 73303: u8 [a0 + 23] = 0\n 73306: u8 [a0 + 22] = 0\n 73309: u8 [a0 + 21] = 0\n 73312: u8 [a0 + 20] = 0\n 73315: u8 [a0 + 19] = 0\n 73318: u8 [a0 + 18] = 0\n 73321: u8 [a0 + 17] = 0\n 73324: u8 [a0 + 16] = 0\n 73327: u8 [a0 + 15] = 0\n 73330: u8 [a0 + 14] = 0\n 73333: u8 [a0 + 13] = 0\n 73336: u8 [a0 + 12] = 0\n 73339: u8 [a0 + 11] = 0\n 73342: u8 [a0 + 10] = 0\n 73345: u8 [a0 + 9] = 0\n 73348: u8 [a0 + 8] = 0\n 73351: u8 [a0 + 7] = 0\n 73354: u8 [a0 + 6] = 0\n 73357: u8 [a0 + 5] = 0\n 73360: u8 [a0 + 4] = 0\n 73363: u8 [a0 + 3] = 0\n 73366: u8 [a0 + 2] = 0\n 73369: u8 [a0 + 1] = 0\n 73372: a1 = u64 [sp + 0x20]\n 73375: a2 = u64 [sp + 0x38]\n 73378: a1 = a1 | a2\n 73381: a2 = 0xffffffe0\n 73391: a2 = s1 <u a2\n 73394: a3 = u64 [sp + 0x40]\n 73397: a2 = 0 if a3 != 0\n 73399: a2 = 0 if a1 != 0\n 73401: u8 [a0 + 0] = 0\n 73403: jump @960 if a2 == 0\n      : @958 (gas: 3)\n 73407: i32 a0 = s0 + 0x20\n 73410: a1 = 0x20\n 73413: ra = 872, jump @0\n      : @959 [@dyn 436] (gas: 55)\n 73420: u8 [a0 + 31] = 0\n 73423: u8 [a0 + 30] = 0\n 73426: u8 [a0 + 29] = 0\n 73429: u8 [a0 + 28] = 0\n 73432: u8 [a0 + 27] = 0x64\n 73436: u8 [a0 + 26] = 0x65\n 73440: u8 [a0 + 25] = 0x6c\n 73444: u8 [a0 + 24] = 0x69\n 73448: u8 [a0 + 23] = 0x61\n 73452: u8 [a0 + 22] = 0x66\n 73456: a5 = 0x20\n 73459: u8 [a0 + 0x15] = a5\n 73462: u8 [a0 + 20] = 0x72\n 73466: u8 [a0 + 19] = 0x65\n 73470: u8 [a0 + 18] = 0x66\n 73474: u8 [a0 + 17] = 0x73\n 73478: u8 [a0 + 16] = 0x6e\n 73482: u8 [a0 + 15] = 0x61\n 73486: u8 [a0 + 14] = 0x72\n 73490: u8 [a0 + 13] = 0x74\n 73494: u8 [a0 + 0xc] = a5\n 73497: u8 [a0 + 11] = 0x48\n 73501: u8 [a0 + 10] = 0x54\n 73505: u8 [a0 + 9] = 0x45\n 73509: u8 [a0 + 0x8] = a5\n 73512: u8 [a0 + 7] = 0x3a\n 73516: u8 [a0 + 6] = 0x79\n 73520: u8 [a0 + 5] = 0x72\n 73524: u8 [a0 + 4] = 0x6f\n 73528: u8 [a0 + 3] = 0x74\n 73532: u8 [a0 + 2] = 0x63\n 73536: u8 [a0 + 1] = 0x61\n 73540: u8 [a0 + 0] = 0x46\n 73543: a1 = u64 [sp]\n 73545: a0 = a1 + 0x60\n 73548: a1 = a0 <u a1\n 73551: a3 = u64 [sp + 0x8]\n 73554: a2 = a3 + a1\n 73557: a3 = a2 <u a3\n 73560: a3 = a1 if a1 == 0\n 73563: a1 = u64 [sp + 0x10]\n 73566: a3 = a3 + a1\n 73569: a1 = a3 <u a1\n 73572: a4 = u64 [sp + 0x18]\n 73575: a1 = a1 + a4\n 73578: a4 = u64 [sp + 0x28]\n 73581: u64 [a4] = a0\n 73583: u64 [a4 + 0x8] = a2\n 73586: u64 [a4 + 0x10] = a3\n 73589: u64 [a4 + 0x18] = a1\n 73592: ra = u64 [sp + 0x58]\n 73595: s0 = u64 [sp + 0x50]\n 73598: s1 = u64 [sp + 0x48]\n 73601: sp = sp + 0x60\n 73604: ret\n      : @960 (gas: 1)\n 73606: trap\n      : @961 (gas: 23)\n 73607: sp = sp + 0xfffffffffffffea0\n 73611: u64 [sp + 0x158] = ra\n 73615: u64 [sp + 0x150] = s0\n 73619: u64 [sp + 0x148] = s1\n 73623: s0 = sp + 0x160\n 73627: sp = sp & 0xffffffffffffffe0\n 73630: a2 = u64 [a1]\n 73632: u64 [sp + 0x58] = a2\n 73635: a2 = u64 [a1 + 0x8]\n 73638: u64 [sp + 0x50] = a2\n 73641: a2 = u64 [a1 + 0x10]\n 73644: u64 [sp + 0x48] = a2\n 73647: a1 = u64 [a1 + 0x18]\n 73650: u64 [sp + 0x40] = a1\n 73653: a1 = u64 [a0]\n 73655: u64 [sp + 0x38] = a1\n 73658: a1 = u64 [a0 + 0x10]\n 73661: u64 [sp + 0x30] = a1\n 73664: a0 = u64 [a0 + 0x8]\n 73667: u64 [sp + 0x28] = a0\n 73670: a0 = 0x40\n 73673: a1 = 0x20\n 73676: ra = 874, jump @0\n      : @962 [@dyn 437] (gas: 97)\n 73683: a1 = u8 [a0 + 0x11]\n 73686: a2 = u8 [a0 + 0x10]\n 73689: a3 = u8 [a0 + 0x12]\n 73692: a4 = u8 [a0 + 0x13]\n 73695: a1 = a1 << 0x8\n 73698: a1 = a1 | a2\n 73701: a3 = a3 << 0x10\n 73704: a4 = a4 << 0x18\n 73707: a3 = a3 | a4\n 73710: a1 = a1 | a3\n 73713: a2 = u8 [a0 + 0x15]\n 73716: a3 = u8 [a0 + 0x14]\n 73719: a4 = u8 [a0 + 0x16]\n 73722: a5 = u8 [a0 + 0x17]\n 73725: a2 = a2 << 0x8\n 73728: a2 = a2 | a3\n 73731: a4 = a4 << 0x10\n 73734: a5 = a5 << 0x18\n 73737: a4 = a4 | a5\n 73740: a2 = a2 | a4\n 73743: a2 = a2 << 0x20\n 73746: t0 = a2 | a1\n 73749: a2 = u8 [a0 + 0x1]\n 73752: a3 = u8 [a0]\n 73754: a4 = u8 [a0 + 0x2]\n 73757: a5 = u8 [a0 + 0x3]\n 73760: a2 = a2 << 0x8\n 73763: a2 = a2 | a3\n 73766: a4 = a4 << 0x10\n 73769: a5 = a5 << 0x18\n 73772: a4 = a4 | a5\n 73775: a2 = a2 | a4\n 73778: a3 = u8 [a0 + 0x5]\n 73781: a4 = u8 [a0 + 0x4]\n 73784: a5 = u8 [a0 + 0x6]\n 73787: s1 = u8 [a0 + 0x7]\n 73790: a3 = a3 << 0x8\n 73793: a3 = a3 | a4\n 73796: a5 = a5 << 0x10\n 73799: s1 = s1 << 0x18\n 73802: a5 = a5 | s1\n 73805: a3 = a3 | a5\n 73808: a3 = a3 << 0x20\n 73811: a2 = a2 | a3\n 73814: a3 = u8 [a0 + 0x19]\n 73817: a4 = u8 [a0 + 0x18]\n 73820: a5 = u8 [a0 + 0x1a]\n 73823: s1 = u8 [a0 + 0x1b]\n 73826: a3 = a3 << 0x8\n 73829: a3 = a3 | a4\n 73832: a5 = a5 << 0x10\n 73835: s1 = s1 << 0x18\n 73838: a5 = a5 | s1\n 73841: a3 = a3 | a5\n 73844: a4 = u8 [a0 + 0x1d]\n 73847: a5 = u8 [a0 + 0x1c]\n 73850: s1 = u8 [a0 + 0x1e]\n 73853: a1 = u8 [a0 + 0x1f]\n 73856: a4 = a4 << 0x8\n 73859: a4 = a4 | a5\n 73862: s1 = s1 << 0x10\n 73865: a1 = a1 << 0x18\n 73868: a1 = a1 | s1\n 73871: a1 = a1 | a4\n 73874: a1 = a1 << 0x20\n 73877: a3 = a3 | a1\n 73880: a1 = u8 [a0 + 0x9]\n 73883: a4 = u8 [a0 + 0x8]\n 73886: a5 = u8 [a0 + 0xa]\n 73889: s1 = u8 [a0 + 0xb]\n 73892: a1 = a1 << 0x8\n 73895: a1 = a1 | a4\n 73898: a5 = a5 << 0x10\n 73901: s1 = s1 << 0x18\n 73904: a5 = a5 | s1\n 73907: a1 = a1 | a5\n 73910: a4 = u8 [a0 + 0xd]\n 73913: a5 = u8 [a0 + 0xc]\n 73916: s1 = u8 [a0 + 0xe]\n 73919: a0 = u8 [a0 + 0xf]\n 73922: a4 = a4 << 0x8\n 73925: a4 = a4 | a5\n 73928: s1 = s1 << 0x10\n 73931: a0 = a0 << 0x18\n 73934: a0 = a0 | s1\n 73937: a0 = a0 | a4\n 73940: a0 = a0 << 0x20\n 73943: a0 = a0 | a1\n 73946: s1 = reverse a0\n 73948: a0 = reverse a3\n 73950: u64 [sp + 0x10] = a0\n 73953: a0 = reverse a2\n 73955: u64 [sp + 0x20] = a0\n 73958: a0 = reverse t0\n 73960: u64 [sp + 0x18] = a0\n 73963: ecalli 11 // 'ref_time_left'\n 73965: fallthrough\n      : @963 (gas: 36)\n 73966: u64 [sp + 0x8] = a0\n 73969: a0 = u64 [sp + 0x28]\n 73972: a0 = reverse a0\n 73974: a1 = u64 [sp + 0x30]\n 73977: a1 = reverse a1\n 73979: a1 = a1 >> 0x20\n 73982: a2 = a0 << 0x20\n 73985: a1 = a1 | a2\n 73988: a0 = a0 >> 0x20\n 73991: a2 = u64 [sp + 0x38]\n 73994: a2 = reverse a2\n 73996: a3 = a2 << 0x20\n 73999: a0 = a0 | a3\n 74002: u64 [sp + 0xc8] = a0\n 74006: u64 [sp + 0xc0] = a1\n 74010: a2 = a2 >> 0x20\n 74013: u32 [sp + 0xd0] = a2\n 74017: a2 = u64 [sp + 0x10]\n 74020: a0 = u64 [sp + 0x40]\n 74023: u64 [sp + 0xf8] = a0\n 74027: a0 = u64 [sp + 0x48]\n 74030: u64 [sp + 0xf0] = a0\n 74034: a0 = u64 [sp + 0x50]\n 74037: u64 [sp + 0xe8] = a0\n 74041: a0 = u64 [sp + 0x20]\n 74044: a1 = u64 [sp + 0x18]\n 74047: a0 = a0 | a1\n 74050: a1 = a2 | s1\n 74053: a1 = a1 | a0\n 74056: a0 = a0 | s1\n 74059: a1 = a1 >> 0x20\n 74062: a0 = a0 << 0x20\n 74065: a0 = a0 | a1\n 74068: a1 = u64 [sp + 0x58]\n 74071: u64 [sp + 0xe0] = a1\n 74075: jump @974 if a0 != 0\n      : @964 (gas: 3)\n 74079: i32 a0 = a2 + 0\n 74081: a1 = 0\n 74083: ra = 876, jump @0\n      : @965 [@dyn 438] (gas: 4)\n 74090: u64 [sp + 0x58] = a0\n 74093: a0 = 0\n 74095: a1 = 0\n 74097: ra = 878, jump @0\n      : @966 [@dyn 439] (gas: 43)\n 74104: u32 [sp + 256] = 0\n 74108: a2 = u64 [sp + 0x8]\n 74111: a1 = a2 >u 0x8fc\n 74115: a2 = -a1\n 74117: u64 [sp + 0x138] = a2\n 74121: u64 [sp + 0x130] = a2\n 74125: u64 [sp + 0x128] = a2\n 74129: u64 [sp + 0x120] = a2\n 74133: a2 = sp + 0xc0\n 74137: a2 = a2 << 0x20\n 74140: a2 = a2 >> 0x20\n 74143: a1 = a1 << 0x23\n 74146: s1 = a1 | a2\n 74149: a1 = sp + 0xe0\n 74153: a1 = a1 << 0x20\n 74156: a1 = a1 >> 0x20\n 74159: a2 = sp + 0x120\n 74163: a2 = a2 << 0x20\n 74166: a3 = a2 | a1\n 74169: a4 = u64 [sp + 0x58]\n 74172: a4 = a4 << 0x20\n 74175: a4 = a4 >> 0x20\n 74178: a0 = a0 << 0x20\n 74181: a0 = a0 >> 0x20\n 74184: a1 = sp + 0x100\n 74188: a1 = a1 << 0x20\n 74191: a5 = a1 | a0\n 74194: a1 = 0xffffffffffffffff\n 74197: a2 = 0xffffffffffffffff\n 74200: a0 = s1\n 74202: ecalli 1 // 'call'\n 74204: s1 = a0\n 74206: a0 = sp + 0xa0\n 74210: ra = 0x370\n 74214: sp = sp + 0xffffffffffffff60\n 74218: u64 [sp + 0x98] = ra\n 74222: u64 [sp + 0x90] = s0\n 74226: u64 [sp + 0x88] = s1\n 74230: s0 = sp + 0xa0\n 74234: sp = sp & 0xffffffffffffffe0\n 74237: s1 = a0\n 74239: ecalli 13 // 'return_data_size'\n 74241: jump @942\n      : @967 [@dyn 440] (gas: 1)\n 74244: jump @969 if s1 != 0\n      : @968 (gas: 6)\n 74247: sp = s0 + 0xfffffffffffffea0\n 74251: ra = u64 [sp + 0x158]\n 74255: s0 = u64 [sp + 0x150]\n 74259: s1 = u64 [sp + 0x148]\n 74263: sp = sp + 0x160\n 74267: ret\n      : @969 (gas: 3)\n 74269: a0 = 0x40\n 74272: a1 = 0x20\n 74275: ra = 882, jump @0\n      : @970 [@dyn 441] (gas: 103)\n 74282: a1 = u8 [a0 + 0x11]\n 74285: a2 = u8 [a0 + 0x10]\n 74288: a3 = u8 [a0 + 0x12]\n 74291: a4 = u8 [a0 + 0x13]\n 74294: a1 = a1 << 0x8\n 74297: a1 = a1 | a2\n 74300: a3 = a3 << 0x10\n 74303: a4 = a4 << 0x18\n 74306: a3 = a3 | a4\n 74309: a1 = a1 | a3\n 74312: a2 = u8 [a0 + 0x15]\n 74315: a3 = u8 [a0 + 0x14]\n 74318: a4 = u8 [a0 + 0x16]\n 74321: a5 = u8 [a0 + 0x17]\n 74324: a2 = a2 << 0x8\n 74327: a2 = a2 | a3\n 74330: a4 = a4 << 0x10\n 74333: a5 = a5 << 0x18\n 74336: a4 = a4 | a5\n 74339: a2 = a2 | a4\n 74342: a2 = a2 << 0x20\n 74345: t0 = a2 | a1\n 74348: a2 = u8 [a0 + 0x1]\n 74351: a3 = u8 [a0]\n 74353: a4 = u8 [a0 + 0x2]\n 74356: a5 = u8 [a0 + 0x3]\n 74359: a2 = a2 << 0x8\n 74362: a2 = a2 | a3\n 74365: a4 = a4 << 0x10\n 74368: a5 = a5 << 0x18\n 74371: a4 = a4 | a5\n 74374: a2 = a2 | a4\n 74377: a3 = u8 [a0 + 0x5]\n 74380: a4 = u8 [a0 + 0x4]\n 74383: a5 = u8 [a0 + 0x6]\n 74386: s1 = u8 [a0 + 0x7]\n 74389: a3 = a3 << 0x8\n 74392: a3 = a3 | a4\n 74395: a5 = a5 << 0x10\n 74398: s1 = s1 << 0x18\n 74401: a5 = a5 | s1\n 74404: a3 = a3 | a5\n 74407: a3 = a3 << 0x20\n 74410: a2 = a2 | a3\n 74413: a3 = u8 [a0 + 0x19]\n 74416: a4 = u8 [a0 + 0x18]\n 74419: a5 = u8 [a0 + 0x1a]\n 74422: s1 = u8 [a0 + 0x1b]\n 74425: a3 = a3 << 0x8\n 74428: a3 = a3 | a4\n 74431: a5 = a5 << 0x10\n 74434: s1 = s1 << 0x18\n 74437: a5 = a5 | s1\n 74440: a3 = a3 | a5\n 74443: a4 = u8 [a0 + 0x1d]\n 74446: a5 = u8 [a0 + 0x1c]\n 74449: s1 = u8 [a0 + 0x1e]\n 74452: a1 = u8 [a0 + 0x1f]\n 74455: a4 = a4 << 0x8\n 74458: a4 = a4 | a5\n 74461: s1 = s1 << 0x10\n 74464: a1 = a1 << 0x18\n 74467: a1 = a1 | s1\n 74470: a1 = a1 | a4\n 74473: a1 = a1 << 0x20\n 74476: a3 = a3 | a1\n 74479: a1 = u8 [a0 + 0x9]\n 74482: a4 = u8 [a0 + 0x8]\n 74485: a5 = u8 [a0 + 0xa]\n 74488: s1 = u8 [a0 + 0xb]\n 74491: a1 = a1 << 0x8\n 74494: a1 = a1 | a4\n 74497: a5 = a5 << 0x10\n 74500: s1 = s1 << 0x18\n 74503: a5 = a5 | s1\n 74506: a1 = a1 | a5\n 74509: a4 = u8 [a0 + 0xd]\n 74512: a5 = u8 [a0 + 0xc]\n 74515: s1 = u8 [a0 + 0xe]\n 74518: a0 = u8 [a0 + 0xf]\n 74521: a4 = a4 << 0x8\n 74524: a4 = a4 | a5\n 74527: s1 = s1 << 0x10\n 74530: a0 = a0 << 0x18\n 74533: a0 = a0 | s1\n 74536: a0 = a0 | a4\n 74539: a0 = a0 << 0x20\n 74542: a0 = a0 | a1\n 74545: s1 = reverse a0\n 74547: a1 = reverse a3\n 74549: a2 = reverse a2\n 74551: a0 = reverse t0\n 74553: u64 [sp + 0x58] = a0\n 74556: u64 [sp + 0x50] = a2\n 74559: a0 = a0 | a2\n 74562: a2 = a1\n 74564: a1 = a1 | s1\n 74567: a1 = a1 | a0\n 74570: a1 = a1 >> 0x20\n 74573: a0 = a0 | s1\n 74576: a0 = a0 << 0x20\n 74579: a0 = a0 | a1\n 74582: jump @974 if a0 != 0\n      : @971 (gas: 5)\n 74586: u64 [sp + 0x48] = a2\n 74589: i32 a0 = a2 + 0\n 74591: a1 = 0x20\n 74594: u64 [sp + 0x40] = a0\n 74597: ra = 884, jump @0\n      : @972 [@dyn 442] (gas: 50)\n 74604: u8 [a0 + 31] = 0\n 74607: u8 [a0 + 30] = 0\n 74610: u8 [a0 + 29] = 0\n 74613: u8 [a0 + 28] = 0\n 74616: u8 [a0 + 27] = 0\n 74619: u8 [a0 + 26] = 0\n 74622: u8 [a0 + 25] = 0\n 74625: u8 [a0 + 24] = 0\n 74628: u8 [a0 + 23] = 0\n 74631: u8 [a0 + 22] = 0\n 74634: u8 [a0 + 21] = 0\n 74637: u8 [a0 + 20] = 0\n 74640: u8 [a0 + 19] = 0\n 74643: u8 [a0 + 18] = 0\n 74646: u8 [a0 + 17] = 0\n 74649: u8 [a0 + 16] = 0\n 74652: u8 [a0 + 15] = 0\n 74655: u8 [a0 + 14] = 0\n 74658: u8 [a0 + 13] = 0\n 74661: u8 [a0 + 12] = 0\n 74664: u8 [a0 + 11] = 0\n 74667: u8 [a0 + 10] = 0\n 74670: u8 [a0 + 9] = 0\n 74673: u8 [a0 + 8] = 0\n 74676: u8 [a0 + 7] = 0\n 74679: u8 [a0 + 6] = 0\n 74682: u8 [a0 + 5] = 0\n 74685: u8 [a0 + 4] = 0\n 74688: u8 [a0 + 3] = 0xa0\n 74693: u8 [a0 + 2] = 0x79\n 74697: u8 [a0 + 1] = 0xc3\n 74702: u8 [a0 + 0] = 0x8\n 74705: a1 = u64 [sp + 0x48]\n 74708: a0 = a1 + 0x4\n 74711: a1 = a0 <u a1\n 74714: a3 = u64 [sp + 0x58]\n 74717: a2 = a3 + a1\n 74720: a3 = a2 <u a3\n 74723: a3 = a1 if a1 == 0\n 74726: a3 = a3 + s1\n 74729: a1 = a3 <u s1\n 74732: a4 = u64 [sp + 0x50]\n 74735: a4 = a4 + a1\n 74738: u64 [sp + 0x68] = a2\n 74741: u64 [sp + 0x60] = a0\n 74744: u64 [sp + 0x70] = a3\n 74747: a0 = sp + 0x80\n 74751: a1 = sp + 0x60\n 74754: u64 [sp + 0x78] = a4\n 74757: ra = 886, jump @953\n      : @973 [@dyn 443] (gas: 30)\n 74763: a0 = u64 [sp + 0x88]\n 74767: t0 = u64 [sp + 0x98]\n 74771: t1 = u64 [sp + 0x80]\n 74775: a3 = u64 [sp + 0x90]\n 74779: a1 = u64 [sp + 0x58]\n 74782: a4 = a0 ^ a1\n 74785: a5 = a0 <u a1\n 74788: t2 = a1\n 74790: a2 = u64 [sp + 0x48]\n 74793: a1 = t1 <u a2\n 74796: a5 = a1 if a4 == 0\n 74799: a4 = a3 - s1\n 74802: a3 = a3 <u s1\n 74805: s1 = u64 [sp + 0x50]\n 74808: s1 = t0 - s1\n 74811: s1 = s1 - a3\n 74814: a3 = a4 <u a5\n 74817: s1 = s1 - a3\n 74820: a4 = a4 - a5\n 74823: a0 = a0 - t2\n 74826: a1 = a0 - a1\n 74829: a0 = t1 - a2\n 74832: a1 = a1 | s1\n 74835: a2 = a0 | a4\n 74838: a2 = a2 | a1\n 74841: a1 = a1 | a4\n 74844: a2 = a2 >> 0x20\n 74847: a1 = a1 << 0x20\n 74850: a1 = a1 | a2\n 74853: jump @975 if a1 == 0\n      : @974 (gas: 1)\n 74856: trap\n      : @975 (gas: 4)\n 74857: i32 s1 = a0 + 0\n 74859: a0 = u64 [sp + 0x40]\n 74862: a1 = s1\n 74864: ra = 888, jump @0\n      : @976 [@dyn 444] (gas: 7)\n 74871: i32 a1 = a0 + 0\n 74873: a0 = 0x1\n 74876: a2 = s1\n 74878: ecalli 14 // 'seal_return'\n 74880: a0 = 0\n 74882: ra = 0x37a\n 74886: jump @10\n      : @977 [export #0: 'call'] (gas: 2)\n 74890: a0 = 0\n 74892: ra = 890, jump @10\n      : @978 [@dyn 445] [export #1: 'deploy'] (gas: 2)\n 74899: a0 = 0x1\n 74902: ra = 892, jump @10\n      : @979 [@dyn 446] (gas: 27)\n 74909: sp = sp + 0xffffffffffffff80\n 74912: u64 [sp + 0x78] = ra\n 74915: u64 [sp + 0x70] = s0\n 74918: u64 [sp + 0x68] = s1\n 74921: s0 = sp + 0x80\n 74925: sp = sp & 0xfffffffffffffff0\n 74928: t0 = u64 [a1]\n 74930: t1 = u64 [a1 + 0x8]\n 74933: t2 = u64 [a1 + 0x10]\n 74936: a1 = u64 [a1 + 0x18]\n 74939: a3 = u64 [a2]\n 74941: a4 = u64 [a2 + 0x8]\n 74944: a5 = u64 [a2 + 0x10]\n 74947: a2 = u64 [a2 + 0x18]\n 74950: s1 = a0\n 74952: u64 [sp + 0x18] = a2\n 74955: u64 [sp + 0x10] = a5\n 74958: u64 [sp + 0x8] = a4\n 74961: u64 [sp] = a3\n 74963: u64 [sp + 0x38] = a1\n 74966: u64 [sp + 0x30] = t2\n 74969: u64 [sp + 0x28] = t1\n 74972: a0 = sp + 0x40\n 74975: a1 = sp + 0x20\n 74978: a2 = sp\n 74980: u64 [sp + 0x20] = t0\n 74983: ra = 894, jump @193\n      : @980 [@dyn 447] (gas: 14)\n 74990: a0 = u64 [sp + 0x50]\n 74993: a1 = u64 [sp + 0x58]\n 74996: a2 = u64 [sp + 0x40]\n 74999: a3 = u64 [sp + 0x48]\n 75002: u64 [s1 + 0x10] = a0\n 75005: u64 [s1 + 0x18] = a1\n 75008: u64 [s1] = a2\n 75010: u64 [s1 + 0x8] = a3\n 75013: sp = s0 + 0xffffffffffffff80\n 75016: ra = u64 [sp + 0x78]\n 75019: s0 = u64 [sp + 0x70]\n 75022: s1 = u64 [sp + 0x68]\n 75025: sp = sp + 0x80\n 75029: ret\n",
				"bytecode": {
					"object": "50564d0000d850010000000000010700c19000c000400380800a3b069ec43869334bd614dfc15219a3f300276ef3057e0064b42729c893e3b5d351d4076f9bac4d79246493b4da24a6aefc7e9c394e92ac55617356247c187da709adb2949dc70b8f3d67436717d4ff3477c9abb31e09a6077a7ccf44b26a4ec28550253778baf5a8c03297136da385032673554343b47ebc15360fdbc187260481251200000000070000000b0000001900000027000000350000003b00000044000000510000005c0000006b000000760000008300000093000000a3000000ae000000c0000000cb0000006164647265737363616c6c63616c6c5f646174615f636f707963616c6c5f646174615f6c6f616463616c6c5f646174615f73697a6563616c6c6572636f64655f73697a656465706f7369745f6576656e746765745f73746f72616765686173685f6b656363616b5f323536696e7374616e74696174657265665f74696d655f6c65667472657475726e5f646174615f636f707972657475726e5f646174615f73697a657365616c5f72657475726e7365745f696d6d757461626c655f646174617365745f73746f7261676576616c75655f7472616e73666572726564051302c18a240463616c6cc19324066465706c6f7906c1fd4e81bf03c117256500004d01005201006f01000302003403004903006d03007903009b0300900400db0400f004002e05005c0500900500f905000406006007008e0700b00700c30700ca0700d60700eb0700590900280a00910a00fa0a002b0c004b0c00f70c00040d00f90d00040e00350f004d0f00590f00880f009e0f00a80f00b60f00f01000c111006f12008712009112009f1200211300271600341600a816004e1800701800a11900b71900871a00941a00f61a00c51b002f1c009d1c00ce1d00e51d00b61e00c41e00562000642000962000a420003121003f21009922000224007525007826009326006328008f2800c429009a2a00a82a00f02a00fe2a00492b00722c00d92d001c2f00ab30008b31009c3300623400a935003637006f3800a43a00b93b00573c009b3c000c3e00963e00ac3e00b93e00fa3e00063f003840005240005f40005042005e4200aa42001443002043005044005d4400e24400754500024600bb4600c946001a47006e48009b4800a94800e34800dc49006f4a00fc4a00274c00bb4c00544d00f84d00994e00e84f00525000fc50003f5200f05200015300e75300db5400505600375700a257004d58003459009f5900825b008d5b00745c00df5c00665d00a95e00a85f007e6000f26000376200de6200f76200036300486400ef64000e6500536600fa6600676700976700dc6700fa67000568001e68002c6800a66800396900c66900f06a00826b00216c00cf6c00b76d00636f007770009070009b7000aa70001b71003271003d71004c7100e97100547200657300a57300657500d975008b7600a97600b47600c97600d776003f7700d977006d7800067900a97900807b00657c007d7d00577e00707f000580007c8100028200cb8200d48300ce84003a8600b48600268800758e00948e00a08e00af8e007d8f00109000889100029200be92006b93004096008b9600f39700349800749900df99009b9a009f9c009c9e00139f00d69f00c2a0002da100b1a200f7a200e3a3004fa40071a5003aa7000da800c8a80012aa00bdaa00ddaa0027ac00d2ac00f2ac003cae00e7ae0053af007aaf0099af00a5af00c1af00d1af0034b00006b100d9b100b3b4005eb60032b80022b90037ba0051ba005dba006cba00a1ba005abb009bbb00b7bc00d1bc00ddbc00ecbc004fbd0065bd00f5bd0051be006bbe0077be0086be00f3be00eac00004c10010c1001fc1006bc10017c2005cc200d8c3006dc400bfc500b4c7009bc80083c900eec90077ca002acc007fcd00c6cd00e5cd00f1cd0000ce00c1ce00dbce00e7ce00f6ce0036cf0089d000f4d0009dd100e3d20097d300a8d3008ed40087d50030d70017d80083d80037da001edb008adb0012dc005add005ade0033df00a8df00f2e0009ee100b8e100c5e1000fe300bbe3002de4005ee400a5e400c4e400d0e400ece400fce40036e500c9e6005de700ebe70017e900ace90047ea00eeea0004ec005ced00c7ed0090ee00f2ef00b7f000c8f000a4f1009df20034f40020f5008cf50011f60057f700f5f70006f800e2f800dbf9002bfb007cfc001afd002bfd000bfe0007ff003200011e01018a0101580301b204015305014e06015f0601f606014e0801ec0801e70901f80901810a01e10b010c0c017a0d01eb0d019d0e01aa0e01f40f01a01001c010010a1201b512012c1301611301091401811401b21401f91401401501871501a61501b21501ce1501de1501191601a61601e317018018010a1901911901241a01331a01c21a01021b01181c01321c013e1c014d1c017e1c01e81c01aa1d013e1e01cc1e01d31f016a21017821010422012a22016c23010b24017724019324019d2401ee24018b791052093b3309010001ae9833c8780883881f8488e0553801000128390a800002ae8a123d088000023308900002c8870732003308900002c88707320000009511d87b10207b15187b161082897b19088289087b1982851082861883773308205010029f6f686f59821a6faa821b086fbb787b18787a10787908787898bc38787c1f98bc30787c1e98bc28787c1d98bc20787c1c98bc18787c1b98bc10787c1a98bb08787b1998ab38787b1798ab30787b1698ab28787b1598ab20787b1498ab18787b1398ab10787b1298aa08787a11989a38787a0f989a30787a0e989a28787a0d989a20787a0c989a18787a0b989a10787a0a98990878790998893878790798893078790698892878790598892078790498891878790398891078790298880878780182102082151882161095112832009511f07b10087b158475010a04013d07840002510507501004095010062c029511c07b10387b15307b16289515408411e033074033082050100896fe46171f800046171e46171d46171c46171b46171a46171946171846171746171646171546171446171346171246171146171046170f46170e46170d46170c46170b46170a4617094617084617074617064617054617044617034617024617014607491118490149110849111083170a1101821710821818821908821ad49808d4a707d487075207370133074033082050100a02fe7c78117c79107c7a127c7b13978808d4980897aa1097bb18d4ba0ad4a8087c79157c7a147c7b167c7c17979908d4a90997bb1097cc18d4cb0bd4b909979920d489027c79017c7a7c7b027c7c03979908d4a90997bb1097cc18d4cb0bd4b9097c7a057c7b047c7c067c760797aa08d4ba0a97cc10976618d46c0cd4ca0a97aa20d4a9097c7a197c7b187c7c1a7c761b97aa08d4ba0a97cc10976618d46c0cd4ca0a7c7b1d7c7c1c7c761e7c781f97bb08d4cb0b976610978818d46808d4b808978820d48a0a7c78097c7b087c7c0a7c760b978808d4b80897cc10976618d46c0cd4c8087c7b0d7c7c0c7c760e7c770f97bb08d4cb0b976610977718d46707d4b707977720d487076f776fa66f986f29d49808d47609d48909989920d48707977720d49707510717003307330850100cd1fc837833070133090a0e0183666467330850100ebcfc8377330833090a0201390888000251080d330790000383770a0f016467330850101098fc8378330733093300120a0e019511a0fe7b1058017b1550017b164801951560018411e03307403308205010146afc46171f800046171e46171d46171c46171b46171a46171946171846171746171646171546171446171346171246171146171046170f46170e46170d46170c46170b46170a4617094617084617074617033306840002461702461701460739088400024617064617054617045318048b038317200133080a030181173c015a47bebbf0fa78330800501cde5a4787541cdeb60051470764ee8f01015247b4ee69a259033300169511b0fc7b1048037b1540037b163803951550038411f0380784000249210802492100024921f8017b17f0014921280249212002492110020495173002951810029519f0014921180233009a0028b21c33080050dc195a471557dc195a5147bfbbf0fabf005247b70e790ae902330018951160ff7b1098007b1590007b1688009515a0008411e04911384911304911284911208317200a1128370483888804aa874e0252478f66a3eaab0250101ace3983881607aa876c0252473369d269960233001c951140ff7b10b8007b15b0007b16a8009515c0008411e04911784911704911684911608317600a1128691233001e951160ff7b1098007b1590007b1688009515a0008411e04911384911304911284911208317200a1128531580674921980049219000492188007b1780004921b8004921b0004921a000049517c0009518a000951980004921a800501020f73a8217c0007b17188213c8008214d0008210d8008212e000821ce8008216f000821bf800821a00018218080182191001821718017b17387b19307b18287b1a207b1b587b16507b1c487b12407b10787b14707b1368951760951840951920821a187b1a605010229de50033074033082050102401fa7c78117c79107c7a127c7b13978808d4980897aa1097bb18d4ba0ad4a8087c79157c7a147c7b167c7c17979908d4a90997bb1097cc18d4cb0bd4b909979920d489027c79017c7a7c7b027c7c03979908d4a90997bb1097cc18d4cb0bd4b9097c7a057c7b047c7c067c760797aa08d4ba0a97cc10976618d46c0cd4ca0a97aa20d4a9097c7a197c7b187c7c1a7c761b97aa08d4ba0a97cc10976618d46c0cd4ca0a7c7b1d7c7c1c7c761e7c781f97bb08d4cb0b976610978818d46808d4b808978820d48a0a7c78097c7b087c7c0a7c760b978808d4b80897cc10976618d46c0cd4c8087c7b0d7c7c0c7c760e7c770f97bb08d4cb0b976610977718d46707d4b707977720d487076f786fa76f996f2ad4a909d4870ad49a0a98aa20d49808978820d4a80851089b00003300269511a0fe7b1058017b1550017b164801951560018411e049213801492130014921280149212001831720010a11289134330028951140ff7b10b8007b15b0007b16a8009515c0008411e04911784911704911684911608317600a1128910581680152081f33002a9511c87b10307b15287b1620330740330820330046032853f833002c9511f87b10330733083300ee002840f8837750102e3bf88378330733093300300a0e019511f07b10087b1564753307403308205010321af87c78017c797c7a027c7b03978808d4980897aa1097bb18d4ba0ad4a8087c79057c7a047c7b067c7c07979908d4a90997bb1097cc18d4cb0bd4b909979920d489027c79097c7a087c7b0a7c7c0b979908d4a90997bb1097cc18d4cb0bd4b9097c7a0d7c7b0c7c7c0e7c780f97aa08d4ba0a97cc10978818d4c808d4a808978820d498037c78117c7a107c7b127c7c13978808d4a80897bb1097cc18d4cb0bd4b8087c7a157c7b147c7c167c791797aa08d4ba0a97cc10979918d4c909d4a909979920d4890a7c78197c79187c7b1a7c7c1b978808d4980897bb1097cc18d4cb0bd4b8087c791d7c7b1c7c7c1e7c771f979908d4b90997cc10977718d4c707d49707977720d487076f776fa86f396f2a7b5a187b59107b58087b5782100882159511103200821730821838821928821a20d49808d4a707d487075207fe023907840002541723f5028317603308040a038217607b17188217687b17108217707b17088216783308203307501034acf66f688219086f99821a106faa821b186fbb98bc38787c1f98bc30787c1e98bc28787c1d98bc20787c1c98bc18787c1b98bc10787c1a98bc08787c19787b1898ab38787b1798ab30787b1698ab28787b1598ab20787b1498ab18787b1398ab10787b1298ab08787b11787a10989a38787a0f989a30787a0e989a28787a0d989a20787a0c989a18787a0b989a10787a0a989a08787a097879089889387879079889307879069889287879059889207879049889187879039889107879029889087879017878330720330820501036ddf546171f46171e46171d46171c46171b46171a46171946171846171746171646171546171446171346171246171146171046170f46170e46170d46170c46170b46170a4617094617084617074617064617054617044617034617024617014607330840330750103874f583778319603308400a09821778821870821968821a606f776f886f996faa7b1a587b19507b18487b17404911784911704911684911604821800020831840831a60831b80003309ff33070a088217707b17088217687b17108217607b171833074033082050103a0bf57c78117c79107c7a127c7b13978808d4980897aa1097bb18d4ba0ad4a8087c79157c7a147c7b167c7c17979908d4a90997bb1097cc18d4cb0bd4b909979920d489027c79017c7a7c7b027c7c03979908d4a90997bb1097cc18d4cb0bd4b9097c7a057c7b047c7c067c760797aa08d4ba0a97cc10976618d46c0cd4ca0a97aa20d4a9097c7a197c7b187c7c1a7c761b97aa08d4ba0a97cc10976618d46c0cd4ca0a7c7b1d7c7c1c7c761e7c781f97bb08d4cb0b976610978818d46808d4b808978820d48a0a7c78097c7b087c7c0a7c760b978808d4b80897cc10976618d46c0cd4c8087c7b0d7c7c0c7c760e7c770f97bb08d4cb0b976610977718d46707d4b707977720d487076f786fa76f996f2ad4a909d4870ad49a0a98aa20d49808978820d4a808510817003307330850103cdaf3837833070133090a0e0182180897882098862083777b170833082050103ebaf36f688219106f99821a186faa98ab38787b1f98ab30787b1e98ab28787b1d98ab20787b1c98ab18787b1b98ab10787b1a98ab08787b19787a1878791046170b46170a4617094617074617064617054617044617034617024617014607989a38787a17989a30787a16989a28787a15989a20787a14989a18787a13989a10787a1298990878791178780898893878790f98893078790e98892878790d98882078780c3308208217085010400ef3837833092033073300420a0e01828918828a10828b0882887b79187b7a107b7b087b783200821770821878821968821a60d49808d4a707d487075207fb013907840002541743f201831780003308040a03821780007b1718821788007b1710821790007b170882169800831780003308240a03821780008218880082199000821a98007b1a387b19307b18287b17207b16588217087b17508217107b17489517409518208219187b19403300449511a0fb7b1058047b1550047b164804951560048411e08289187b1968018289107b1960018289087b19700182887b18780182787b1858018278087b1850018278107b184801827618330820330733000a01280af233074033082050104601f27c78117c79107c7a127c7b13978808d4980897aa1097bb18d4ba0ad4a8087c79157c7a147c7b167c7c17979908d4a90997bb1097cc18d4cb0bd4b909979920d489027c79017c7a7c7b027c7c03979908d4a90997bb1097cc18d4cb0bd4b9097c7a057c7b047c7c067c760797aa08d4ba0a97cc10976618d46c0cd4ca0a97aa20d4a9097c7a197c7b187c7c1a7c761b97aa08d4ba0a97cc10976618d46c0cd4ca0a7c7b1d7c7c1c7c761e7c781f97bb08d4cb0b976610978818d46808d4b808978820d48a0a7c78097c7b087c7c0a7c760b978808d4b80897cc10976618d46c0cd4c8087c7b0d7c7c0c7c760e7c770f97bb08d4cb0b976610977718d46707d4b707977720d487076f786fa76f996f2ad4a909d4870ad49a0a98aa20d49808978820d4a80851081e0033073308501048d0f0837833070133090a0e837733004a28bdf0837750104ab8f083783307330933004c0a0e019511b07b10487b15409515508411f0491130491128491120140700000000717b484e9518207b1738330750104ebdf04911184911104901323307046418491108501050a7f033082433075010525df083783307013309243300540a0e019511a07b10587b15507b16489515608411e06476828718828910828a0882887b17187b19107b1a087b18491138491130491128491120481140208318831a20831b403309ff33070a08821738821830821928821a207b67187b68107b69087b6a9551a082105882155082164895116032009511e0fe7b1018017b1510017b160801951520018411e07b174082977b17488297087b17508297107b1758829618828b18828a1082890882877b1b187b1bb8007b1a207b1ab0007b19287b19a8007b17307b17a0004921f8004921f0004921e8004921e0004821c000208318a000831ae000831bc0003309ff33070a08018217f8008212e0008219f000821ae800d3670b7b1638d87608821758d8970cdbb80c821850d38a03d8a80a821848d82808db3a08d39707d4b707db7c0851086801330820330750105615ef8218186f888219206f99821a286faa821b306fbb98bc38787c1f98bc30787c1e98bc28787c1d98bc20787c1c98bc18787c1b98bc10787c1a98bc08787c19787b18787a1098ab38787b1798ab30787b1698ab28787b1598ab20787b1498ab18787b1398ab10787b1298aa08787a11787908989a38787a0f989a30787a0e989a28787a0d989a20787a0c989a18787a0b989a10787a0a9899087879097878988938787907988930787906988928787905988920787904988918787903988910787902988808787801330820330750105844ee83778319e0003308200a098217e0008218e8008219f800821af0006f726f886f996faa821b50c8ab0b821c48c89c0cd89c09c89b0bd3ab06d8ab0ada690a821958c88909c89a0ad89a06821738c82707d88908c88707c867078218404918384918304918284918207b8c7b8b087b8a107b87189551e0fe821018018215100182160801951120013200492190004921880049218000140700000000717b484e951880007b179800330750105ad6ed4911784911704911603233070495186049116850105cbeed330824330750105e74ed83783307013309243300600a0e01828918828a10828b0882887b79187b7a107b7b087b7832008213088212821718018218000182141001821a0801d3670bd87607821910d8490cdbb70cd32a07d8a20ad88308db7a08d39407d4b707db7c08510830037b136049219800492190004921880049218000017b12687b19709517a000951880009519607b16785010620bfd8217d8007b17108217d0007b17088216c8008217c0007b178217b8008218b0008219a800821aa0007b17f8007b18f0007b19e8007b1ae0004921180149211001492108014921000148212001208318e000831a0001831b20013309ff33070a088212000182190801821a1001821498473d976b03d47b0b98663d821808978703d4760698873d821c1097cc03d47c0c9747038eb888770001857301dbb8038ec88e67dbc807821b1801d46c0cdbc70346115f46115e46115d46115c46115b46115a46115946115846115746115646115546115446115346115246115146115046114f46114e46114d46114c46114b46114a461149461148461147461146461145461144461143461142461141461140781b38781a3078192878122098b73878173f98b73078173e98b72878173d98b72078173c98b71878173b98b71078173a98bb08781b3998a73878173798a73078173698a72878173598a72078173498a71878173398a71078173298aa08781a3198973878172f98973078172e98972878172d98972078172c98971878172b98971078172a98990878192998273878172798273078172698272878172598272078172498271878172398271078172298270878172184481f951720c878087c87197c89187c8a1a7c8b1b977708d4970797aa1097bb18d4ba0ad4a7077c891d7c8a1c7c8b1e7c8c1f979908d4a90997bb1097cc18d4cb0bd4b909979920d479027c87117c8a107c8b127c8c13977708d4a70797bb1097cc18d4cb0bd4b7077c8a157c8b147c8c167c861797aa08d4ba0a97cc10976618d46c0cd4ca0a97aa20d47a0a7c87097c8b087c8c0a7c860b977708d4b70797cc10976618d46c0cd4c7077c8b0d7c8c0c7c860e7c890f97bb08d4cb0b976610979918d46909d4b909979920d4790b7c87017c897c8c027c8603977708d4970797cc10976618d46c0cd4c7077c89057c8c047c86067c8807979908d4c909976610978818d46808d49808978820d487079437943b943a94328218187b82187b8a107b8b087b879551c0fe8210380182153001821628019511400132003307501064dee9837833070133093300660a0e019511a87b10507b15487b1640828a10828618828c088285d46c0bd4a508d4b808988820d4ab0b97bb20d4b8087b1738520830018297187b178297107b17088297087b171082977b17189557207b1730d85707c87c087b1828d8c808da7708c8a8087b1820d8a807c8760683573308205010685de982186f888219086f99821a106faa821b186fbb98bc38787c1f98bc30787c1e98bc28787c1d98bc20787c1c98bc18787c1b98bc10787c1a98bc08787c19787b18787a1098ab38787b1798ab30787b1698ab28787b1598ab20787b1498ab18787b1398ab10787b1298aa08787a11787908989a38787a0f989a30787a0e989a28787a0d989a20787a0c989a18787a0b989a10787a0a98990878790978789889387879079889307879069889287879059889207879049889187879039889107879029888087878018217388218307b788218287b78088218207b78107b7618821050821548821640951158320000821770821878821968821a60d49808d4a707d487075207ef013907840002541723e601831780003308040a03821980008217880082189000821a98007b1a387b18307b17289517409518207b192033006a9511c0fe7b1038017b1530017b162801951540018411e07b171882877b17088287087b178287107b17108286184921f8004921f0004921e8004921e000014921180149211001492108014921000148212001208318e000831a0001831b20013309ff33070a08286cfa8217587b178217507b17088217487b17108217407b171833074033082050106c95e77c78117c79107c7a127c7b13978808d4980897aa1097bb18d4ba0ad4a8087c79157c7a147c7b167c7c17979908d4a90997bb1097cc18d4cb0bd4b909979920d489027c79017c7a7c7b027c7c03979908d4a90997bb1097cc18d4cb0bd4b9097c7a057c7b047c7c067c760797aa08d4ba0a97cc10976618d46c0cd4ca0a97aa20d4a9097c7a197c7b187c7c1a7c761b97aa08d4ba0a97cc10976618d46c0cd4ca0a7c7b1d7c7c1c7c761e7c781f97bb08d4cb0b976610978818d46808d4b808978820d48a0a7c78097c7b087c7c0a7c760b978808d4b80897cc10976618d46c0cd4c8087c7b0d7c7c0c7c760e7c770f97bb08d4cb0b976610977718d46707d4b707977720d487076f786fa76f996f2ad4a909d4870ad49a0a98aa20d49808978820d4a808510817003307330850106e64e6837833070133090a0e01837633082064675010704ee682186f888219086f99821a106faa821b186fbb98bc38787c1f98bc30787c1e98bc28787c1d98bc20787c1c98bc18787c1b98bc10787c1a98bc08787c19787b18787a1098ab38787b1798ab30787b1698ab28787b1598ab20787b1498ab18787b1398ab10787b1298aa08787a11787908989a38787a0f989a30787a0e989a28787a0d989a20787a0c989a18787a0b989a10787a0a989908787909787898893878790798893078790698892878790598892078790498891878790398891078790298880878780133082064675010727ee5837833092033073300740a0e01828918828a10828b0882887b79187b7a107b7b087b783200821730821838821928821a20d49808d4a707d48707520704033907840002541723fb028317603308040a038217607b17188217687b17108217707b170882167833082033075010760fe56f688219086f99821a106faa821b186fbb98bc38787c1f98bc30787c1e98bc28787c1d98bc20787c1c98bc18787c1b98bc10787c1a98bc08787c19787b1898ab38787b1798ab30787b1698ab28787b1598ab20787b1498ab18787b1398ab10787b1298ab08787b11787a10989a38787a0f989a30787a0e989a28787a0d989a20787a0c989a18787a0b989a10787a0a989a08787a09787908988938787907988930787906988928787905988920787904988918787903988910787902988908787901787833072033082050107840e446171f0246171e46171d46171c46171b46171a46171946171846171746171646171546171446171346171246171146171046170f46170e46170d46170c46170b46170a4617094617084617074617064617054617044617034617024617014607330840330750107ad6e383778319603308400a09821778821870821968821a606f776f886f996faa7b1a587b19507b18487b17404911784911704911684911604821800020831840831a60831b80003309ff33070a088217787b178217707b17088217687b17108217607b171833074033082050107c68e37c78117c79107c7a127c7b13978808d4980897aa1097bb18d4ba0ad4a8087c79157c7a147c7b167c7c17979908d4a90997bb1097cc18d4cb0bd4b909979920d489027c79017c7a7c7b027c7c03979908d4a90997bb1097cc18d4cb0bd4b9097c7a057c7b047c7c067c760797aa08d4ba0a97cc10976618d46c0cd4ca0a97aa20d4a9097c7a197c7b187c7c1a7c761b97aa08d4ba0a97cc10976618d46c0cd4ca0a7c7b1d7c7c1c7c761e7c781f97bb08d4cb0b976610978818d46808d4b808978820d48a0a7c78097c7b087c7c0a7c760b978808d4b80897cc10976618d46c0cd4c8087c7b0d7c7c0c7c760e7c770f97bb08d4cb0b976610977718d46707d4b707977720d487076f786fa76f996f2ad4a909d4870ad49a0a98aa20d49808978820d4a808510817003307330850107e37e2837833070133090a0e01837633082064675020800021e282186f888219086f99821a106faa821b186fbb98bc38787c1f98bc30787c1e98bc28787c1d98bc20787c1c98bc18787c1b98bc10787c1a98bc08787c19787b18787a1098ab38787b1798ab30787b1698ab28787b1598ab20787b1498ab18787b1398ab10787b1298aa08787a11787908989a38787a0f989a30787a0e989a28787a0d989a20787a0c989a18787a0b989a10787a0a989908787909787898893878790798893078790698892878790598892078790498891878790398891078790298880878780133082064675020820050e183783309203307330084000a0e01951160ff7b1098007b1590007b1688009515a0008411e0828b829608828008829395ba1f7b1b58d8ba02c8200c7b1340d83a03d36c0a7b1648d86c0bdaa30b828410d80c0ada220a829218828318829610c84a0ad84a08c83808d32809d92808d86a0cda9c08d36a0ad4a909db980b510b19017b12287b16307b1738821758d447077b1318d43008d487079877207b1420d44808978820d487075207ed0064068118588317600a03018217788218708213687b1750d48707883a01947a510acb00821960821758957b20d87b07c876007b1b10c89b0b7b1958d89b02c8030cc82c0cd33c09d83c0ada920ad86009da7709821720c89704d87406821718c86707821648d36c09d8c60c821640d8b60bdb9c0bc84809d8890c8216507b1748c87606c86c0cc89a0ad89a09c8c909821628d3690cd89602821930d8a906dbc206d3a909d4c909db960b520b408219388217587b97208217107b977b93287b90087b98307b94108217507b97388217487b9718955160ff8210980082159000821688009511a0003200003307330850208600b0df83783307013309330088000a0e0182781082771814090000000001000000d38909d479099888208888019478939851080532009511f87b10330750208a0070df8378330701330933008c000a0e019511c07b10387b15307b16289515408411e0828910828a18828b088288d4ba0ad4980bd4ab0b98bb20d4a909979920d4b9095209506476838883170a030182171082181814090000000001000000d37909d48909987a2088aa01948a939a510a258219821a087b697b6a087b67107b68189551c08210388215308216289511403200003307330850208e00d5de83783307013309330090000a0e019511c0fc7b1038037b1530037b162803951540038411e0829608828408829c828a829210d3460bd84600d8ac03dab3007b16f000c9460bc93b0b7b1ce0007b1a1801c9ac0c88cca00085cc018283108eb6dbb60c829b18828618c93208c90809d808007b12e800d8320a64687b1bd800c96b0bc9ab0bc90b0b8fb68e9adbb60ad4b909db9a0c510ca904647682191801d439077b1410017b180001d48408d487079877207b130801d43808978820d4870752077d0483988317a0027b18f8000a03018212b8028218b0028219a802d4280a889b0194ab510b5904821aa002821b1801c8ab0bd8ab0a821c1001c89c0cc8ac0cd39c07d89c09da7a0982170801c88707c87909d8790ad8870782180001c88202c82707c87a0a8217e0007b1720028217f0007b1728027b1b40028217e8007b1730028217d8007b1738027b1c48027b1950029517600295184002951920027b1a58025020920031fc8217080182190001d47909140700000000010000007b17c8001407e0ffffff0000000082181801d878078218100194877b19d000949751079e03821798027b17a800821790027b178800821788027b17b000821780027b179000821778027b17b800821770027b179800821768027b17c000821760027b17a0008217f800837820831700030a03018217c8009577c082181801d878078218100194878218d000948751073203821718037b1778821710037b1768821708037b178000821700037b17708217f8008378408317c0020a03018212d8028218d0028219c802d4280a889b0194ab510bf002821ac002821b1801c8ab0bd8ab0a821c1001c89c0cc8ac0cd39c07d89c09da7a0982170801c88707c87909d8790ad8870782180001c88202c82707c87a0a8217e0007b17a0018217f0007b17a8017b1bc0018217e8007b17b0018217d8007b17b8017b1cc8017b19d0019517e0019518c0019519a0017b1ad80150209400c8fa140700000000010000007b17c8001407a0ffffff0000000082181801d878078218100194878218d000948751074002821718027b1748821710027b1728821708027b1750821700027b17308217f8017b17588217f0017b17388217e8017b17608217e0017b17408217f800837860831700030a030182191003821a18038217c800d39707d4a70798982088880194a893785108f7017b1a207b19c800140780ffffff0000000082181801d878078218100194878218d00094875107b201821708037b17d000821700037b17188217f800837880008317e0020a03018212f8028218f0028219e802d4280a889b0194ab510b7d01821ae002821b1801c8ab0bd8ab0a821c1001c89c0cc8ac0cd39c07d89c09da7a0982170801c88707c87909d8790ad8870782180001c88202c82707c87a0a8217e0007b1720018217f0007b1728017b1b40018217e8007b1730018217d8007b1738017b1c48017b1950019517600195184001951920017b1a58015020960055f9821268018213600182197801821a7001821b9001821c980182178001821888017b6bf0007b6cf8007b67e0007b68e8007b6ad0007b69d8007b63c0007b62c8008217c8007b67b0008217207b67b8008217187b67a0008217d0007b67a8008217287b6790008217487b6798008217307b6780008217507b6788008217387b67708217587b67788217407b67608217607b67688217687b67508217787b67588217707b6740821780007b6748821788007b67308217a8007b6738821790007b67208217b0007b6728821798007b67108217b8007b67188217a0007b678217c0007b67089551c0fc8210380382153003821628039511400332000033073308502098008ed9837833070133090a0e3307330098002879d93307330098002870d9821730027b17c800821738027b17c000821740027b17b800821748027b17b000821750027b17a800821758027b17a000821760027b179800821768027b179000821770027b178800821778027b178000821780027b1778821788027b1770821790027b1768821798027b17608217a0027b17588217a8027b17508217b0027b17488217b8027b17408217c0027b17388217c8027b17308217d0027b17288217d8027b17208217e0027b17188214e8028213f0028212f802821c0003821b0803821a10038219180382182003821728039510d0007b10109516f0007b1608951610017b167b17e8007b18e0007b19d8007b1ad0007b1b08017b1c00017b12f8007b13f0007b1428018217187b1720018217207b1718018217287b1710018217307b1748018217387b1740018217407b1738018217487b1730018217507b1768018217587b1760018217607b1758018217687b1750018217707b1788018217787b178001821780007b177801821788007b177001821790007b17a801821798007b17a0018217a0007b1798018217a8007b1790018217b0007b17c8018217b8007b17c0018217c0007b17b8019517d0019518b00195199001951a7001951b5001951c30018216c8007b16b00150209c00066c8217e8017b17b0008217e0017b17b8008217d8017b17c0008217d0017b17c80033074033082050209e0077d77c78117c79107c7a127c7b13978808d4980897aa1097bb18d4ba0ad4a8087c79157c7a147c7b167c7c17979908d4a90997bb1097cc18d4cb0bd4b909979920d489027c79017c7a7c7b027c7c03979908d4a90997bb1097cc18d4cb0bd4b9097c7a057c7b047c7c067c760797aa08d4ba0a97cc10976618d46c0cd4ca0a97aa20d4a9097c7a197c7b187c7c1a7c761b97aa08d4ba0a97cc10976618d46c0cd4ca0a7c7b1d7c7c1c7c761e7c781f97bb08d4cb0b976610978818d46808d4b808978820d48a0a7c78097c7b087c7c0a7c760b978808d4b80897cc10976618d46c0cd4c8087c7b0d7c7c0c7c760e7c770f97bb08d4cb0b976610977718d46707d4b707977720d487076f786fa76f996f2ad4a909d4870ad49a0a98aa20d49808978820d4a80851080400837633082064675020a00042d68218b0006f888219b8006f99821ac0006faa821bc8006fbb98bc38787c1f98bc30787c1e98bc28787c1d98bc20787c1c98bc18787c1b98bc10787c1a98bc08787c19787b18787a1098ab38787b1798ab30787b1698ab28787b1598ab20787b1498ab18787b1398ab10787b1298aa08787a11787908989a38787a0f989a30787a0e989a28787a0d989a20787a0c989a18787a0b989a10787a0a989908787909787898893878790798893078790698892878790598892078790498891878790398891078790298880878780133082064675020a2006cd5837833092033073300a4000a0e01827218828318827b10827c088289088274828a828810d3c907d8c909d84a0adb790ac9b807d8a707d8b808c92309c98909c9790957090532009511f87b10330733085020a60016d5837833070133093300a8000a0e01828910828a18828b088288d4ba0ad4980bd4ab0b98bb20d4a909979920d4b9095209f9009511d87b10207b15187b16108275188276108279087b1982777b170883873308205020aa00bdd46f586f69821a6faa821b086fbb98bc38787c1f98bc30787c1e98bc28787c1d98bc20787c1c98bc18787c1b98bc10787c1a98bc08787c19787b18787a1098ab38787b1798ab30787b1698ab28787b1598ab20787b1498ab18787b1398ab10787b1298aa08787a11787908989a38787a0f989a30787a0e989a28787a0d989a20787a0c989a18787a0b989a10787a0a98990878790978789889387879079889307879069889287879059889207879049889187879039889107879029888087878018210208215188216109511283200009511b07b10487b15407b1638828b10828a18828c0882857b1a287b1c20d4ac08d4b50ad48a0a98aa207b1b30d4b808978820d4a8087b1718520822018297187b178296108297087b170882977b171083573308205020ac0094d382186f886f69821a086faa821b106fbb98bc38787c1f98bc30787c1e98bc28787c1d98bc20787c1c98bc18787c1b98bc10787c1a98bc08787c19787b18787a1098ab38787b1798ab30787b1698ab28787b1598ab20787b1498ab18787b1398ab10787b1298aa08787a11787908989a38787a0f989a30787a0e989a28787a0d989a20787a0c989a18787a0b989a10787a0a9899087879097878988938787907988930787906988928787905988920787904988918787903988910787902988808787801955720d85708821a20c88a09d8a90ada880a821830c88a0ad88a08821b28c8b808821b187bb77bb9087bba107bb8188210488215408216389511503200009511b0fe7b1048017b1540017b163801828b10828a18828c0882857b1cf0007b1a3001d4ac08d4b50ad48a0a98aa20d4b808978820d4a80852086b057b1be8007b178297187b17100182961082980882977b1718017b15d800835764853308205020ae002dd282121801d462087b15080182191001d45909d498089888207b160001d46909979920d49808520818057c78197c79187c7a1a7c7b1b978808d4980897aa1097bb18d4ba0ad4a8087c791d7c7a1c7c7b1e7c7c1f979908d4a90997bb1097cc18d4cb0bd4b909979920d498087b1820017c78117c79107c7a127c7b13978808d4980897aa1097bb18d4ba0ad4a8087c79157c7a147c7b167c7c17979908d4a90997bb1097cc18d4cb0bd4b909979920d498087b1828017c78097c79087c7a0a7c7b0b978808d4980897aa1097bb18d4ba0ad4a8087c790d7c7a0c7c7b0e7c7c0f979908d4a90997bb1097cc18d4cb0bd4b909979920d489057c78017c797c7a027c7b03978808d4980897aa1097bb18d4ba0ad4a8087c79057c7a047c7b067c7707979908d4a90997bb10977718d4b707d49707977720d4870683273308205020b000ead08219280178791098583878780f98583078780e98582878780d98582078780c98581878780b98581078780a9858087878097875089868387878079868307878069868287878059868207878049868187878039868107878029868087878017876821a2001787a18989838787817989830787816989828787815989820787814989818787813989810787812989808649b78781198a83878781f98a83078781e98a82878781d98a82078781c98a81878781b98a81078781a98a80878781982171801957320d8730964a7821a0801c89a04d8a40ada990a821c0001c8ac00d4b60a7b15d000d4750bd4ab0bd8c00a82121001c8a20c7b1cf800510bdf02330733084921e00033096f6a7b1a20821ad0006faa7b1a18821a28016faa7b1a10821a20016faa7b1a08140be0ffffff000000007b1b288212e800821af0008215d800017b19c8007b18d0007b17d800821b3001d4b20b821628d8650c7b1af00094ac94bc8217f8007b17c0007b10b8007b14b0007b132801510c85027b12e8009557207b17200183773308205020b2005bcf8218000182191001d4980882191801d86909821a080194a994895109510282182001d858098215f000c895087b181801d85808da99087c790c7b1908017c790d7b1900017c790e7b19f8007c790f7b19f0007c79107b19a8007c79117b19a0007c79127b1998007c79137b1990007c79147b1988007c79157b1980007c79167b19787c79177b19707c79187b19687c79197b19607c791a7b19587c791b7b19507c791c7b19487c791d7b19407c791e7b19387c771f7b17308216e800c868087b181001d8680782183001c878087b1830018215280183573308205020b4007bce82183078781f82183878781e82184078781d82184878781c82185078781b82185878781a821860787819821868787818821870787817821878787816821880007878158218880078781482189000787813821898007878128218a0007878118218a8007878108218f00078780f8218f80078780e8218000178780d8218080178780c46170b46170a46170946170846170746170646170546170446170346170246170146078213d8009533018837018214d000c87404d44307887b018217e000c87b0bd87b078210c800c87000821708d87307821910d39408d89409da8709821718d87b06821a20d3a008d8a00cda860cd3b707d478089557207b17f000da890cd857098216b000c896077b17e800d8670ada990a8218b800c88a0a7b1ad800d88a0a8217c000c87a0a7b1af8007b1be00082152001821a180182121001821928017b1918017b1608017b1800017b17100164378213f00064488214e80064098210d800520c6dfd821b7bb37bb4087bb0108217f8007bb718821048018215400182163801951150013200009511a0fd7b1058027b1550027b164802951560028411f0828c18828610828b0882827b1b407b1c48d4cb08d4620bd48b0b98bb207b1638d46808978820d4b8087b17285208930882a7187b170882a7107b171082a7087b171882a77b17208297187b17b8018297107b17c8018297087b17c001829683273308207b177b12305020b6006acc46171f40821bc801d4b6088219b801821cc001d4c909d49808988820d4b909979920d4980846171e46171d46171c46171b46171a46171946171846171746171646171546171446171346171246171146171046170f46170e46170d46170c46170b46170a46170946170846170746170646170546170446170346170246170146075208d007646a8217309578407b18a801d87807821840c878097b19a001d88908da7708821738c88706d87607821848c887077b1798017b1a700183a73308205020b800a4cb8212a801d462088219a001821a9801d4a909d498089888207b169001d46909979920d49808520866077c78197c79187c7a1a7c7b1b978808d4980897aa1097bb18d4ba0ad4a8087c791d7c7a1c7c7b1e7c7c1f979908d4a90997bb1097cc18d4cb0bd4b909979920d498087b18d8017c78117c79107c7a127c7b13978808d4980897aa1097bb18d4ba0ad4a8087c79157c7a147c7b167c7c17979908d4a90997bb1097cc18d4cb0bd4b909979920d498087b18d0017c78097c79087c7a0a7c7b0b978808d4980897aa1097bb18d4ba0ad4a8087c790d7c7a0c7c7b0e7c7c0f979908d4a90997bb1097cc18d4cb0bd4b909979920d498087b1888017c78017c797c7a027c7b03978808d4980897aa1097bb18d4ba0ad4a8087c79057c7a047c7b067c7707979908d4a90997bb10977718d4b707d49707977720d4870683273308205020ba005dca821bd80182148801821ad001787a1098483878780f98483078780e98482878780d98482078780c98481878780b98481078780a9848087878097874089868387878079868307878069868287878059868207878049868187878039868107878029868087878017876787b1898a83878781798a83078781698a82878781598a82078781498a81878781398a81078781298a80878781198b83878781f98b83078781e98b82878781d98b82078781c98b81878781b98b81078781a98b8087878198217309578607b18b001d87807821840c878096492d88908da7708821938c889037b166801d4a607d4b408d48707d89308821948c889005107db0364b6330b330c4921780149218001821768016f777b17686f477b17606fa77b17586f677b17501407e0ffffff000000007b1788018216b8018217c8018219c001821a7001017b1c68017b1b70017b17c801d4670782188801d88a087b19c001949894787b1060017b1358017b1250018217b0017b17d8015108d3047b16b80195a7207b17d001837733082064a65020bc00d0c88218900182199801d498088219a801821a8801d8a909821aa00194a99489510999048218d001d868098218c001c8980a7b1aa801d88a08da99087c797b19c0017c79017b19b0017c79027b1998017c79037b1990017c79047b1948017c79057b1940017c79067b1938017c79077b1930017c79087b1928017c79097b1920017c790a7b1918017c790b7b1910017c790c7b1908017c790d7b1900017c790e7b19f8007c790f7b19f0007c79107b19e8007c79117b19e0007c79127b19d8007c79137b19d0007c79147b19c8007c79157b19c0007c79167b19b8007c79177b19b0007c79187b19a8007c79197b19a0007c791a7b1998007c791b7b1990007c791c7b1988007c791d7b1980007c791e7b19787c771f7b17708217c801c878087b18a001d878078216b801c876068117d8013308205020be0097c782187078781f82187878781e8218800078781d8218880078781c8218900078781b8218980078781a8218a0007878198218a8007878188218b0007878178218b8007878168218c0007878158218c8007878148218d0007878138218d8007878128218e0007878118218e8007878108218f00078780f8218f80078780e8218000178780d8218080178780c8218100178780b8218180178780a82182001787809821828017878088218300178780782183801787806821840017878058218480178780482189001787803821898017878028218b0017878018218c00178788210700195000188070182136801c87303d4300788770182187801c88707d88708821c8001c88c0c821850d88008821a58d3a309d8a30ada980a821960d89702821868d38c0b7b1c8001d88c08dab208d37909d4b909da9a08821ad80195a9207b19b001d8a90982125001c8920a7b1ac801d82a0ada990a821c5801c8ca0a7b1ac001d8ca09821b6001c8b9097b19b8017b177801821ad0018219a8018217a0018214d8017b14a8017b12a0018212c8017b1c90017b1b9801640b8210b801643c8213c0015208d7fc821738821948d479091408e0ffffff00000000821a30d88a08821640946894985108b801821bb001d8ab0cd36208d86209da8c09c97304c994087b18d801d89408d87309c89808821748c97009c989097b19a801c96208c9c8087b18d001c9ab06821728204921d0014921d8014921a80133066082177b12c8017b13c0017b10b801018377203308205020c00062c58218a8016f888219d8016f99821ad0016faa6f6b98bc38787c1f98bc30787c1e98bc28787c1d98bc20787c1c98bc18787c1b98bc10787c1a98bc08787c19787b18787a1098ab38787b1798ab30787b1698ab28787b1598ab20787b1498ab18787b1398ab10787b1298aa08787a11787908989a38787a0f989a30787a0e989a28787a0d989a20787a0c989a18787a0b989a10787a0a98990878790978789889387879079889307879069889287879059889207879049889187879039889107879029888087878018217b8017b17f8018217c0017b17f0018217c8017b17e8018217b0017b17e0018217087b1718028217107b1710028217187b17080295172002951800029519e001821a207b1a00025020c200c0f1821730028218380282192002821a2802821b287bb7107bb8187bb97bba089551a0fd82105802821550028216480295116002320000821730018218380182192801821a2001d49808d4a707d487075207850239078400025417037c029517e0003300c4009511c0fc7b1038037b1530037b162803951540038411e07b17084921b8024921b0024921a002019517c0029518a0024921a8023300500228cd798217e0007b17588217e8007b17508217f0007b17488217f8007b1740821700017b1738821708017b1730821710017b1728821718017b17203307403308205020c6006bc37c78017c797c7a027c7b03978808d4980897aa1097bb18d4ba0ad4a8087c79057c7a047c7b067c7c07979908d4a90997bb1097cc18d4cb0bd4b909979920d489027c79097c7a087c7b0a7c7c0b979908d4a90997bb1097cc18d4cb0bd4b9097c7a0d7c7b0c7c7c0e7c760f97aa08d4ba0a97cc10976618d46c0cd4ca0a97aa20d4a9097c7a117c7b107c7c127c761397aa08d4ba0a97cc10976618d46c0cd4ca0a7c7b157c7c147c76167c781797bb08d4cb0b976610978818d46808d4b808978820d48a0a7c78197c7b187c7c1a7c761b978808d4b80897cc10976618d46c0cd4c8087c7b1d7c7c1c7c761e7c771f97bb08d4cb0b976610977718d46707d4b707977720d487076f7b7b1b086faa7b1a106f987b18186f268217207b17788217287b17708217307b17688217387b17608217407b1798008217487b1790008217507b1788008217587b1780007b16b8007b18b0007b1aa8009517c0009518a00095198000951a607b1ba0005020c80011f5821b108219087b1658d46b07821618d46908d47808988820d46707977720d4870752075e8217c8008218d8007b18508213c0008218d000d3b704d8b70cd89300da400cc9680ac9ca04d8ca02d8680a821858821c50c98c0cc9ac0cc92c0cc9b707c90707c99306d4c707d44608d47808d44707988820977720d4870751071800330733085020ca0070c1837833070133090a0e018397836664685020cc005ac18378330764693300ce000a0e019511a07b10587b15509515608411e0390784000254172361018317203308040a03821820821728821930821a387b1a187b19107b170864177b185020d0000390003307403308205020d20000c17c78117c79107c7a127c7b13978808d4980897aa1097bb18d4ba0ad4a8087c79157c7a147c7b167c7c17979908d4a90997bb1097cc18d4cb0bd4b909979920d489027c79017c7a7c7b027c7c03979908d4a90997bb1097cc18d4cb0bd4b9097c7a057c7b047c7c067c780797aa08d4ba0a97cc10978818d4c808d4a808978820d498037c78197c7a187c7b1a7c7c1b978808d4a80897bb1097cc18d4cb0bd4b8087c7a1d7c7b1c7c7c1e7c791f97aa08d4ba0a97cc10979918d4c909d4a909979920d4890a7c78097c79087c7b0a7c7c0b978808d4980897bb1097cc18d4cb0bd4b8087c790d7c7b0c7c7c0e7c770f979908d4b90997cc10977718d4c707d49707977720d487076f786fa76f396f2ad4a909d4870ad49a0a98aa20d49808978820d4a80851082000330733085020d400cebf837833070133090a0e83773300d60028b9bf83775020d600b4bf8378330733093300d8000a0e01828910828a18828b088288d4ba0ad49808d4a8088e884917184917104917087b783200951160ff7b1098007b1590007b1688009515a0008411e0828210828c08829a088284829b7b1b40829010d3ca03d8ca06d84b0b7b1b38da3b068283188298187b1830c92009c969087b1848d869087b1258d8200b7b1350821930c93909c9b909c98909c9ca08821a38c9a808821a40c94a0a8e8b88aa6085aa01db8b0a8f968218488e8bdb960bd49808db8b0a510a37016476821958d494077b1c48821850d4c808d48707987720d49808978820d487075207120183488317607b18387b14400a0301821758821850d48709140700000000010000007b17501407e0ffffff00000000821840d8780782184894877b195894975107d0008217787b17308217707b17288217687b17188217607b17208217388378208317600a03018217509577c0821840d8780782184894878218589487510792008217787b17588217707b17508217687b17408217607b17488217388378408317600a0301821778821870821960821a68d4780b889c0294ac94bc510c557b6a487b69408219407b69288219487b69208219187b69088219207b697b68508218507b68308218287b68107b67588217587b67388217307b6718955160ff8210980082159000821688009511a000320000330733085020da00b6bd837833070133093300dc000a0e019511d0fe7b1028017b1520017b161801951530018411f0380784000249218800492180004911787b17704921a8004921a00049219000049517b00095189000951970492198005020de00defd8217b0007b17088213b8008214c0008210c8008212d000821cd800821be000821ae8008218f0008216f80082190001821708017b17287b19207b16187b18107b1a487b1b407b1c387b12307b10687b14607b1358951750951830951910821a087b1a505020e00083a8003307403308205020e200e6bc7c78117c79107c7a127c7b13978808d4980897aa1097bb18d4ba0ad4a8087c79157c7a147c7b167c7c17979908d4a90997bb1097cc18d4cb0bd4b909979920d489027c79017c7a7c7b027c7c03979908d4a90997bb1097cc18d4cb0bd4b9097c7a057c7b047c7c067c760797aa08d4ba0a97cc10976618d46c0cd4ca0a97aa20d4a9097c7a197c7b187c7c1a7c761b97aa08d4ba0a97cc10976618d46c0cd4ca0a7c7b1d7c7c1c7c761e7c781f97bb08d4cb0b976610978818d46808d4b808978820d48a0a7c78097c7b087c7c0a7c760b978808d4b80897cc10976618d46c0cd4c8087c7b0d7c7c0c7c760e7c770f97bb08d4cb0b976610977718d46707d4b707977720d487076f786fa76f996f2ad4a909d4870ad49a0a98aa20d49808978820d4a8085108040083775020e400b6bb8378330733093300e6000a0e01828918828a10828b0882887b79187b7a107b7b087b7832009511a07b10587b15507b1648828a18828b10828c088286d4ac08d4b609d48909989920d4b808978820d498087b1728520816029567207b1730d86707c87c087b18407b1c08d8c805da7705c8b5057b1b10d8b5077b1a18c8a7077b17387b1683673308203306205020e80024bb78761f8218306486d45808821940821b38d4b909d498089888207b1520d45909979920d4980846171e46171d46171c46171b46171a46171946171846171746171646171546171446171346171246171146171046170f46170e46170d46170c46170b46170a461709461708461707461706461705461704461703461702461701460752085601836533082064575020ea0091ba46171f1846171e46171d46171c46171b46171a46171946171846171746171646171546171446171346171246171146171046170f46170e46170d46170c46170b46170a461709461708461707461706461705461704461703461702461701821820821938d498081409e0ffffff00000000d89609821a4094a9948946075109c8008357203308205020ec0004ba46171f46171e46171d46171c46171b46171a461719461718461717654617166346171569461714764617137246171265461711734617102046170f6e46170e7746170d6f46170c6e330c6b787c0b46170a6e46170975461708204617073a46170679461705724617046f4617037446170263461701614607468218958760d88708821a08c88a09d8a90ada880a821810c88a0ad88a08821b18c8b808821b287bb77bb9087bba107bb818821058821550821648951160320000837833070133093300f0000a0e018289828218828b08828810959c1fd89c09c89b0ad8ba0bda990bc88b0bd88b08c8280884cce07b7c7b7a087b7b107b781832009511c07b10387b15307b16289515408411e03307403308205020f200ecb87c78117c79107c7a127c7b13978808d4980897aa1097bb18d4ba0ad4a8087c79157c7a147c7b167c7c17979908d4a90997bb1097cc18d4cb0bd4b909979920d489027c79017c7a7c7b027c7c03979908d4a90997bb1097cc18d4cb0bd4b9097c7a057c7b047c7c067c760797aa08d4ba0a97cc10976618d46c0cd4ca0a97aa20d4a9097c7a197c7b187c7c1a7c761b97aa08d4ba0a97cc10976618d46c0cd4ca0a7c7b1d7c7c1c7c761e7c781f97bb08d4cb0b976610978818d46808d4b808978820d48a0a7c78097c7b087c7c0a7c760b978808d4b80897cc10976618d46c0cd4c8087c7b0d7c7c0c7c760e7c770f97bb08d4cb0b976610977718d46707d4b707977720d487076f766fa77b17086f977b17186f277b17100a0d01821a08821818821910d49808d46a09d48909989920d46808978820d4980852083a647698772052073283a783687b18187b17105020f40098b77a1620837783182033090a0c01811720821818ac870c0a0d0198782051080400837682171064685020f6006bb7837833070164693300f8000a0e01827810827918827a088277d4a909d4870ad49a0a98aa20d49808978820d4a8085208a5009511f07b10087b1583773308203305205020fa0023b746171f46171e7246171d6546171c6446171b6946171a7633096f78791946171872461717707875163302747872157879144617136e787512461711734617106978750f46170e7246170d6546170c6c46170b6c330a61787a0a330b63787b097875084617073a330c79787c0646170572787904787203787b02787a01330846787882100882159511103200009511a07b10587b15507b1648828a18828b10828c088286d4ac08d4b609d48909989920d4b808978820d498087b172852081b029567207b1730d86707c87c087b18407b1c08d8c805da7705c8b5057b1b10d8b5077b1a18c8a7077b17387b1683673308203306205020fc002ab678761f8218306486d45808821940821b38d4b909d498089888207b1520d45909979920d4980846171e46171d46171c46171b46171a46171946171846171746171646171546171446171346171246171146171046170f46170e46170d46170c46170b46170a461709461708461707461706461705461704461703461702461701460752085b01836533082064575020fe0097b546171f1f46171e46171d46171c46171b46171a46171946171846171746171646171546171446171346171246171146171046170f46170e46170d46170c46170b46170a461709461708461707461706461705461704461703461702461701821820821938d498081409e0ffffff00000000d89609821a4094a9948946075109cd00835720330820502000010ab546171c6446171a76461717704617136e4617117346171b694617106946171d6546170d6546170c6c46170b6c46171f461716204617122046170f20461708204617073a4617067946171e724617187246170e72461705724617196f4617146f4617046f4617157446170374461709634617026346170a61461701614607468218958760d88708821a08c88a09d8a90ada880a821810c88a0ad88a08821b18c8b808821b287bb77bb9087bba107bb8188210588215508216489511603200009511a07b10587b15507b1648828a18828b10828c088286d4ac08d4b609d48909989920d4b808978820d498087b17205208af029567207b1738d86707c87c087b18407b1c08d8c805da7705c8b5057b1b10d8b5077b1a18c8a7077b17307b16836733082033062050200201dfb378761f821838d45808821940821a30d4a909d49808988820d45909979920d4980846171e46171d46171c46171b46171a46171946171846171746171646171546171446171346171246171146171046170f46170e46170d46170c46170b46170a46170946170846170746170646170546170446170346170246170146075208f401645682153883573308207b1728502004014bb346171f2346171e46171d46171c46171b46171a46171946171846171746171646171546171446171346171246171146171046170f46170e46170d46170c46170b46170a461709461708461707461706461705461704461703461702461701821830d48609140600000000010000001408e0ffffff00000000d8850864958219409498945846075108570182172883772033082050200601b2b246171e6c46171c624617196b46170e6646170d6646170c754617167346170b734617116946170f694617096946171b2046171520461708204617073a46170679461705724617046f46171774461714744617037446171f6146171d6146171861461701614607469568c0821938d8890846171a65821940949833066e78761346171265945833056378751078760a7875025108b300821728837740330820502008010eb246171f46171e46171d46171c46171b46171a46171946171846171746171646171546171446171346171246171146171046170f46170e46170d46170c46170b46170a461709461708461707461706461705461704461703461702657875017876821895878000d88708821a08c88a09d8a90ada880a821810c88a0ad88a08821b18c8b808821b207bb77bb9087bba107bb8188210588215508216489511603200006f68821948016f99821a50016faa821b58016fbb787b18787a10787908787898bc387b1c3801787c1f98bc307b1c3001787c1e98bc287b1c2801787c1d98bc207b1c2001787c1c98bc187b1c1801787c1b98bc107b1c1001787c1a7b1b400198bb087b1b0801787b1998ab387b1b0001787b1798ab307b1bf800787b1698ab287b1bf000787b1598ab207b1be800787b1498ab187b1be000787b1398ab107b1bd800787b127b1a480198aa087b1ad000787a11989a387b1ac800787a0f989a307b1ac000787a0e989a287b1ab800787a0d989a207b1ab000787a0c989a187b1aa800787a0b989a107b1aa000787a0a7b1950019899087b1998007879099889387b1990007879079889307b1988007879069889287b1980007879059889207b19787879049889187b19707879039889107b19687879027b1858019888087b186078780133072033082050200c011eb046171f46171e46171d46171c46171b46171a46171946171846171746171646171546171446171346171246171146171046170f46170e46170d46170c46170b46170a4617094617084617074617064617054617044617034617024617014607330840330750200e01b4af8377831900043308400a09821718048218100482190804821a00046f776f886f996faa7b1ad8037b19d0037b18c8037b17c003492118044921100449210804492100044821e003208318c003831a0004831be0033309ff33070a08018217100482190804821800047b17509777209877207b18587b1948d49808d48707520706281410831700030a05801710037b1740821708037b1738821700037b1730330740330820502010010aaf7c78117c79107c7a127c7b13978808d4980897aa1097bb18d4ba0ad4a8087c79157c7a147c7b167c7c17979908d4a90997bb1097cc18d4cb0bd4b909979920d489027c79017c7a7c7b027c7c03979908d4a90997bb1097cc18d4cb0bd4b9097c7a057c7b047c7c067c760797aa08d4ba0a97cc10976618d46c0cd4ca0a97aa20d4a9097c7a197c7b187c7c1a7c761b97aa08d4ba0a97cc10976618d46c0cd4ca0a7c7b1d7c7c1c7c761e7c781f97bb08d4cb0b976610978818d46808d4b808978820d48a0a7c78097c7b087c7c0a7c760b978808d4b80897cc10976618d46c0cd4c8087c7b0d7c7c0c7c760e7c770f97bb08d4cb0b976610977718d46707d4b707977720d487076f7b6faa6f976f287b17207b1818d48707d4ba08d478089888207b1b28d4b707977720d487075107062830157b1a1083a6330820646750201201c7ad46171f46171e46171d46171c46171b46171a46171946171846171746171646171546171446171346171246171146171046170f46170e46170d46170c46170b46170a4617094617084617074617064617054617044617038300461702484617015d4607080a0b8217486f779778208219506f99989920d498088219586f99979a20987720d4a7079899207b1728037b1820037a1930034921580349215003492148034921400333080464675020140116ad7b17583308207b165064675020160105ad4821600320492198034921900349218803492180039518200397882098882014090000000018000000d498069518400397882098882095198003979920d4890a82185897882098882014090000000004000000d4980b97772098772095186003978820d4780c3308ff3309ff64670a0101510706287c0f0a0d01330820ae87080a0d647801330c821a28821b2082191082161895871f7b1848d887084911588488018477e0c879097b1928d87907c88606c87606d38609d88608da9708c8a808d8a807c8b7077b18207b1718d487078868019478520806289913330740330820502018011fac8218186f888219206f996f6a821b286fbb787b1898bc38787c1f98bc30787c1e98bc28787c1d98bc20787c1c98bc18787c1b98bc10787c1a98bb08787b19787a1098ab38787b1798ab30787b1698ab28787b1598ab20787b1498ab18787b1398ab10787b1298aa08787a11787908989a38787a0f989a30787a0e989a28787a0d989a20787a0c989a18787a0b989a10787a0a9899087879097878988938787907988930787906988928787905988920787904988918787903988910787902988808821c588ec9821a4888aa2085aa01dbc90a8ec98ecbdac90bd4cc09da9a0b787801520b0628911233082082175050201a012bab7c78097c79087c7a0a7c7b0b978808d4980897aa1097bb18d4ba0ad4a8087c790d7c7a0c7c7b0e7c7c0f979908d4a90997bb1097cc18d4cb0bd4b909979920d489097c78017c7a7c7b027c7c03978808d4a80897bb1097cc18d4cb0bd4b8087c7a057c7b047c7c067c760797aa08d4ba0a97cc10976618d46c0cd4ca0a97aa20d4a8086f826f99140a0000000001000000d39a0ad42a0a989b2088bb01942b93ab520b0628de117c7a197c7b187c7c1a7c761b97aa08d4ba0a97cc10976618d46c0cd4ca0a7c7b1d7c7c1c7c761e7c781f97bb08d4cb0b976610978818d46808d4b808978820d48a0a7c78117c7b107c7c127c7613978808d4b80897cc10976618d46c0cd4c8087c7b157c7c147c76167c771797bb08d4cb0b976610977718d46707d4b707977720d487076f776fa8821a306faa97ab20821c386fc6986c20d4cb0b976620821c406fcc98cc20d46c0c98aa20d3a909d3c808d49808d3b707d42707d487075207b70c33082033062050201c01b6a9821848017878108218c80078780f8218c00078780e8218b80078780d8218b00078780c8218a80078780b8218a00078780a821898007878098218500178780882189000787807821888007878068218800078780582187878780482187078780382186878780282186078780182185801787882184001787818821800017878178218f8007878168218f0007878158218e8007878148218e0007878138218d8007878128218d0007878118218380178781f8218300178781e8218280178781d8218200178781c8218180178781b8218100178781a8218080178781933072033082050201e01cfa846171f0246171e46171d46171c46171b46171a46171946171846171746171646171546171446171346171246171146171046170f46170e46170d46170c46170b46170a461709461708461707461706461705461704461703461702461701460733084033075020200164a88377831900043308400a09821718048218100482190804821a00046f776f886f996faa7b1ad8037b19d0037b18c8037b17c003492118044921100449210804492100047a16e0038318c003831a0004831be0033309ff33070a0801821718048218000482191004821a0804821c6801d3c70bd8c70782166001d8690cdbb70c82177001d37a02d87a0a82177801d87808db2a08d36907d4b707db7c085208c40c330820330750202201b9a7821848017878108218c80078780f8218c00078780e8218b80078780d8218b00078780c8218a80078780b8218a00078780a821898007878098218500178780882189000787807821888007878068218800078780582187878780482187078780382186878780282186078780182185801787882184001787818821800017878178218f8007878168218f0007878158218e8007878148218e0007878138218d8007878128218d0007878118218380178781f8218300178781e8218280178781d8218200178781c8218180178781b8218100178781a8218080178781933072033082050202401d2a646171f0246171e46171d46171c46171b46171a46171946171846171746171646171546171446171346171246171146171046170f46170e46170d46170c46170b46170a461709461708461707461706461705461704461703461702461701460733084033075020260167a68377831900043308400a09821718048218100482190804821a00046f776f886f996faa7b1a407b1ad8037b19487b19d0037b18507b18c8037b17587b17c003492118044921100449210804492100044821e003208318c003831a0004831be0033309ff33070a080182191804821a10048213080482180004821b6801d3b907d8b90b82126001d82a0c7b1c30da7c0b821c7001d3c304d8c306821c78017b1820d8c800da4006d32a0cd4c707da760b520b680dc92a07c9670a7b1a38d86707821a6801c9a909821830c98909c979097b193082177001c97307c907077b172882177801821820c978077b17208217487b17d0038217507b17c8038217587b17c0038216407b16d803492118044921100449210804492100044821e003208318c003831a0004831be0033309ff33070a087b16d8038217487b17d0038217507b17c8038217587b17c0038217307b1718048217387b1710048217287b1708048217207b1700048318c003831a00043309ff330b2033070a108317a0030a058217a8038118b0038219a0036f77977a206f88988820d48a0a9877206f98978920d49707988820821968017b199802821960017b199002821970017b198802821978017b1980024921b8027b18b0027b17a8029517a002951880027b1aa002502028010cc400330820330750202a0179a48218380178781f8218300178781e8218280178781d8218200178781c8218180178781b8218100178781a82180801787819821800017878178218f8007878168218f0007878158218e8007878148218e0007878138218d8007878128218d0007878118218c80078780f8218c00078780e8218b80078780d8218b00078780c8218a80078780b8218a00078780a8218980078780982189000787807821888007878068218800078780582187878780482187078780382186878780282186078780182184001787818821848017878108218500178780882185801787833072033082050202c0192a346171f0246171e46171d46171c46171b46171a46171946171846171746171646171546171446171346171246171146171046170f46170e46170d46170c46170b46170a4617094617084617074617064617054617044617034617024617014607330840330750202e0127a38377831900043308400a09821718048218100482190804821a00046f776f886f996faa7b1ad8037b19d0037b18c8037b17c003492118044921100449210804492100044821e003208318c003831a0004831be0033309ff33070a08821718047b171001821710047b171801821708047b172001821700047b17280133074033082050203001a0a27c78117c79107c7a127c7b13978808d4980897aa1097bb18d4ba0ad4a8087c79157c7a147c7b167c7c17979908d4a90997bb1097cc18d4cb0bd4b909979920d489027c79017c7a7c7b027c7c03979908d4a90997bb1097cc18d4cb0bd4b9097c7a057c7b047c7c067c760797aa08d4ba0a97cc10976618d46c0cd4ca0a97aa20d4a9097c7a197c7b187c7c1a7c761b97aa08d4ba0a97cc10976618d46c0cd4ca0a7c7b1d7c7c1c7c761e7c781f97bb08d4cb0b976610978818d46808d4b808978820d48a0a7c78097c7b087c7c0a7c760b978808d4b80897cc10976618d46c0cd4c8087c7b0d7c7c0c7c760e7c770f97bb08d4cb0b976610977718d46707d4b707977720d487076f766faa6f986f277b1738017b183001d48707d46a08d47808988820d46707977720d487075207ca0883a73308207b1700017b1a0801502032015da1821868016f88821960016f99821a70016faa821b78016fbb98bc38787c1f98bc30787c1e98bc28787c1d98bc20787c1c98bc18787c1b98bc10787c1a98bc08787c19787b18787a1098ab38787b1798ab30787b1698ab28787b1598ab20787b1498ab18787b1398ab10787b1298aa08787a11787908989a38787a0f989a30787a0e989a28787a0d989a20787a0c989a18787a0b989a10787a0a989908787909787898893878790798893078790698892878790598892078790498891878790398891078790298880882193001d46909140ae0ffffff00000000821b0801d8ab0a821b380194ba949a787801510ac80782160001836720330820502034015ea0821810016f88821918016f99821a20016faa821b28016fbb98bc38787c1f98bc30787c1e98bc28787c1d98bc20787c1c98bc18787c1b98bc10787c1a98bc08787c19787b18787a1098ab38787b1798ab30787b1698ab28787b1598ab20787b1498ab18787b1398ab10787b1298aa08787a11787908989a38787a0f989a30787a0e989a28787a0d989a20787a0c989a18787a0b989a10787a0a9899087879097878988938787907988930787906988928787905988920787904988918787903988910787902988808787801330840646750203601889f3a080000023a090800023a0a1000023a0b1800027b1818047b1910047b1a08047b1b0004821840017b183804821848017b183004821850017b182804821858017b182004837983170004330802330a400a079551a0fb82105804821550048216480495116004320033074033082050203801149f7c78117c79107c7a127c7b13978808d4980897aa1097bb18d4ba0ad4a8087c79157c7a147c7b167c7c17979908d4a90997bb1097cc18d4cb0bd4b909979920d489027c79017c7a7c7b027c7c03979908d4a90997bb1097cc18d4cb0bd4b9097c7a057c7b047c7c067c760797aa08d4ba0a97cc10976618d46c0cd4ca0a97aa20d4a9097c7a197c7b187c7c1a7c761b97aa08d4ba0a97cc10976618d46c0cd4ca0a7c7b1d7c7c1c7c761e7c781f97bb08d4cb0b976610978818d46808d4b808978820d48a0a7c78097c7b087c7c0a7c760b978808d4b80897cc10976618d46c0cd4c8087c7b0d7c7c0c7c760e7c770f97bb08d4cb0b976610977718d46707d4b707977720d487076f766fa86f996f277b1778017b197001d497076489d46808d47808988820d46707977720d4870752073c057b19680183973308207b17600150203a01cf9d46171f46171e46171d46171c46171b46171a46171946171846171746171646171546171446171346171246171146171046170f46170e46170d46170c46170b46170a461709461708461707461706461705461704461703a00046170279461701c30046070882186801958704d88708821a7801c88a09d8a90ada880ac86a0ad86a08821b7001c88b0b7b1988017b1780017b1a90019517a001951880017b1b980150203c019de18217a8018212b8018213a001821ab001281d0450203e010be433074033082050204001039d7c78117c79107c7a127c7b13978808d4980897aa1097bb18d4ba0ad4a8087c79157c7a147c7b167c7c17979908d4a90997bb1097cc18d4cb0bd4b909979920d489027c79017c7a7c7b027c7c03979908d4a90997bb1097cc18d4cb0bd4b9097c7a057c7b047c7c067c760797aa08d4ba0a97cc10976618d46c0cd4ca0a97aa20d4a9097c7a197c7b187c7c1a7c761b97aa08d4ba0a97cc10976618d46c0cd4ca0a7c7b1d7c7c1c7c761e7c781f97bb08d4cb0b976610978818d46808d4b808978820d48a0a7c78097c7b087c7c0a7c760b978808d4b80897cc10976618d46c0cd4c8087c7b0d7c7c0c7c760e7c770f97bb08d4cb0b976610977718d46707d4b707977720d487076f766fa86f996f277b1778017b197001d497076489d46808d47808988820d46707977720d4870752072b037b19680183973308207b17600150204201be9b46171f46171e46171d46171c46171b46171a46171946171846171746171646171546171446171346171246171146171046170f46170e46170d46170c46170b46170a461709461708461707461706461705461704461703a00046170279461701c30046070882186801958704d88708821a7801c88a09d8a90ada880ac86a0ad86a08821b7001c88b0b7b19c8027b17c0027b1ad0029517e0029518c0027b1bd8025020440186e48217e8028212f8028213e002821af002280c0233074033082050204601f89a7c78117c79107c7a127c7b13978808d4980897aa1097bb18d4ba0ad4a8087c79157c7a147c7b167c7c17979908d4a90997bb1097cc18d4cb0bd4b909979920d489027c79017c7a7c7b027c7c03979908d4a90997bb1097cc18d4cb0bd4b9097c7a057c7b047c7c067c760797aa08d4ba0a97cc10976618d46c0cd4ca0a97aa20d4a9097c7a197c7b187c7c1a7c761b97aa08d4ba0a97cc10976618d46c0cd4ca0a7c7b1d7c7c1c7c761e7c781f97bb08d4cb0b976610978818d46808d4b808978820d48a0a7c78097c7b087c7c0a7c760b978808d4b80897cc10976618d46c0cd4c8087c7b0d7c7c0c7c760e7c770f97bb08d4cb0b976610977718d46707d4b707977720d487076f766fa86f996f277b1778017b197001d497076489d46808d47808988820d46707977720d48707520720017b19680183973308207b17600150204801b39946171f46171e46171d46171c46171b46171a46171946171846171746171646171546171446171346171246171146171046170f46170e46170d46170c46170b46170a461709461708461707461706461705461704461703a00046170279461701c30046070882186801958704d88708821a7801c88a09d8a90ada880ac86a0ad86a08821b7001c88b0b7b1908027b1700027b1a100295172002951800027b1b180250204a01c6e4821728028212380282132002821a30020182187801d3870bd8870c648482196801d89308dab80cc96a0bd86a0a82167001c96206c9a606d8cb0ac9a606c9cb0bc94707c98708c99307d46808d4b709d48909d4b808989920978820d498085108b800003307330850204c019f98837833070133090a0e014921f0014921e8014921e001140700000000717b484e9518e0017b17f801330750204e01af984921d8014921d0014921c001413307049518c0014921c80133005201288d98492170024921680249216002140700000000717b484e951860027b1778023307502050016a98492158024921500249214002113307049518400249214802502052014c98330824330750205401019883783307013309240a0e01837682176001646850205601e89783783307016469330058010a0e01491718491710491708490732009511a07b10587b15507b1648828a18828b10828c088286d4ac08d4b609d48909989920d4b808978820d498087b1728520819029567207b1730d86707c87c087b18407b1c08d8c805da7705c8b5057b1b10d8b5077b1a18c8a7077b17387b16836733082033062050205a01609778761f8218306486d45808821940821b38d4b909d498089888207b1520d45909979920d4980846171e46171d46171c46171b46171a46171946171846171746171646171546171446171346171246171146171046170f46170e46170d46170c46170b46170a4617094617084617074617064617054617044617034617024617014607520859018365330820645750205c01cd9646171f1d46171e46171d46171c46171b46171a46171946171846171746171646171546171446171346171246171146171046170f46170e46170d46170c46170b46170a461709461708461707461706461705461704461703461702461701821820821938d498081409e0ffffff00000000d89609821a4094a9948946075109cb0083572033082050205e01409646171a7046171562461718654617166546170c654617196d46170b6d4617116e4617106e4617096e46171f46171e46171d461717204617142046170d20461708204617073a46171c7946170679461705724617126f4617046f46171b74461713744617037446170e634617026346170f6146170a61461701614607468218958760d88708821a08c88a09d8a90ada880a821810c88a0ad88a08821b18c8b808821b287bb77bb9087bba107bb8188210588215508216489511603200009511987b10607b15587b1650828a18828b10828c088286d4ac08d4b609d48909989920d4b808978820d498087b17285208c8029567207b1740d86707c87c087b18487b1c10d8c805da7705c8b5057b1b18d8b5077b1a20c8a7077b17387b1608836733082033062050206001169578761f821840d45808821948821a38d4a909d49808988820d45909979920d4980846171e46171d46171c46171b46171a46171946171846171746171646171546171446171346171246171146171046170f46170e46170d46170c46170b46170a461709461708461707461706461705461704461703461702461701460752080c0282164083673308207b173050206201849446171f2d46171e46171d46171c46171b46171a46171946171846171746171646171546171446171346171246171146171046170f46170e46170d46170c46170b46170a461709461708461707461706461705461704461703461702461701821838d4850a330501140800000000010000007b181408e0ffffff00000000d8860882194894987b1a3894a8460751086b0182173083772033082050206401e59346171f6146171d6c4617167646170f6d46170c6b46171e6546171c20461719204617132046170e20461708204617073a46170679461714634617026346171b7446171a6146170b6146170161460746461718724617176582189588c0821940d88908330c6f787c15461712748219489498330b73787b1182193894984617107546170d6546170a74787b0946170572330674787c047876035108c00082173083774033082033052050206601379346170c6446170a754617096646170772461708654617056546170b6e4617046e4617036f78750678750278760146171f46171e46171d46171c46171b46171a46171946171846171746171646171546171446171346171246171146171046170f46170e46170d46077382180895878000d88708821a10c88a09d8a90ada880a821818c88a0ad88a08821b20c8b808821b287bb77bb9087bba107bb818821060821558821650951168320000951160ff7b1098007b1590007b1688009515a0008411f08289187b19308289107b19288289087b192082887b18187b1738330740330820502068014f927c78197c79187c7a1a7c7b1b978808d4980897aa1097bb18d4ba0ad4a8087c791d7c7a1c7c7b1e7c7c1f979908d4a90997bb1097cc18d4cb0bd4b909979920d489027c79117c7a107c7b127c7c13979908d4a90997bb1097cc18d4cb0bd4b9097c7a157c7b147c7c167c761797aa08d4ba0a97cc10976618d46c0cd4ca0a97aa20d4a9097c7a097c7b087c7c0a7c760b97aa08d4ba0a97cc10976618d46c0cd4ca0a7c7b0d7c7c0c7c760e7c780f97bb08d4cb0b976610978818d46808d4b808978820d48a0a7c78017c7b7c7c027c7603978808d4b80897cc10976618d46c0cd4c8087c7b057c7c047c76067c770797bb08d4cb0b976610977718d46707d4b707977720d487076f736fa46f966f2c82181895871fd88708821a20c88a09d8a90ada880a821828c88a0ad88a08821b30c8b8088477e0c8c7077b1c287b1710d8c70bc86909c8b90cd36c097b1630d86c07da9b07c84a0ac87a0bd8ab06d84a09c83808c89808c886068eb88e69da6809d46b087b1c088ecadb890a520a2401d84b08d33609d8360ada980ad34b08d49808db8a0752070b013307403308207b14207b13187b1b50206a01a3906f6882196f99821a086faa821b106fbb787b1898bc38787c1f98bc30787c1e98bc28787c1d98bc20787c1c98bc18787c1b98bc10787c1a98bb08787b19787a1098ab38787b1798ab30787b1698ab28787b1598ab20787b1498ab18787b1398ab10787b1298aa08787a11787908989a38787a0f989a30787a0e989a28787a0d989a20787a0c989a18787a0b989a10787a0a98990878790978789889387879079889307879069889287879059889207879049889187879039889107879029888087878018217388218287b788218187b78188218307b78088218207b7810955160ff8210980082159000821688009511a0003200491170491168491160140700000000717b484e9518607b1778330750206c01cf8f4911584911504911404133070495184049114850206e01b68f3308243307502070016b8f8378330701330924330072010a0e01828a18828b10828908d4ba0a889b0194ab510b308288958a1fd88a08c8980884880184aae095a920d8a90ac8a80bd88b08daaa084917187b797b7b087b781032009511b07b10487b15409515508411f0491130491128491120140700000000717b484e9518207b17383307502074012b8f491118491110490141330704641849110850207601148f330824330750207801c98e837833070133092433007a010a0e019511a87b10507b15487b1640827a10827b18827c088277d4cb0bd4a70cd4bc0c98cc20d4ba0a97aa20d4ca0a520a4901829b18829c108295829608d4c509d4b60ad4a909989920d4ca0a97aa20d4a909520925017b16287b1c307b1b38828918828a10828c828b08d4ac087b19207b1b10d4b909d498089888207b1a18d4a909979920d498085208ef0083777b170883c7835664687b1c50207c011d8e837764688219080a02018217c85707d85708821b28821910c8b909c88909d3b90ad8b90bdaa80b821c30821818c8c808c88b0bd88b0ad8c808821c38821620c86c0cc8c808c8a808d4b70ad49808d48a0a98aa20d4b808978820d4a80852087b837733082050207e01b28d46171f46171e46171d46171c46171b46171a46171946171846171746171646171546171446171346171246171146171046170f46170e46170d46170c46170b46170a46170946170846170746170646170546170446170346170246170146078210508215488216409511583200009511e0fe7b1018017b1510017b160801951520018411f0829b18829c108296087b1b507b1c48d4cb0b886c0194bc7b17510c730382a7187b171882a7107b172082a7087b170882a77b171082998287187b17708287107b17788287087b176882877b176095971f7b1940d89708c868088488018477e0957920d87907c8780ad88a0bda770b4921d8007b19c0007b1ac8009517e0009518c0007b1bd000502080011bfa8217f8008219f0008218e800821ae0007b17587b1830d48707d49a08d478089888207b1938d49707977720d487075207d1027b1a2883a733082050208201618c821440821860c84808d8480a821968c86909c8a90bd36b0cd86b09daca09821c08d3cb0ad8bc0b821c10d88c08821048821c78c80c0cdbab08d80c0a821350821b70c83b0bc8ba0ac8c909d8c90bc8ba0a821c18d3ca0bd8ac0a821220d8920cdabc0ad32909d4b909db9a086f49989a38787a1f989a30787a1e989a28787a1d989a20787a1c989a18787a1b989a10787a1a989a08787a196f6a78791898a93878791798a93078791698a92878791598a92078791498a91878791398a9107879126f09787a1098aa08787a11989a38787a0f989a30787a0e989a28787a0d989a20787a0c989a18787a0b989a10787a0a6f3a78790898990878790998a93878790798a93078790698a92878790598a92078790498a91878790398a910787902787a98aa08787a018212605208f001821978d49207821870821a68d4a808d48707987720d49808978820d48707821a5852077001d40407d43608d48707987720d40808978820d48707821938821b30821c2852074e017b1678d4a9071408e0ffffff00000000d88c0894b894785108330195c620d8c607c87b087b1820d8b808da7708c898087b1868d898077b177083227b1260836783487b181850208401a18a83778218188219600a0201821740c86707d86708821978821b20c8b909c88909d3b90ad8b90bdaa80b821848821a68c8a808c88b0bd88b02d8a808821c50821658c86c0c821a70c8ac0cc8c808c82808d4b70ad49808d48a0a98aa20d4b808978820d4a80852089a008377330820502086012d8a46171f46171e46171d46171c46171b46171a46171946171846171746171646171546171446171346171246171146171046170f46170e46170d46170c46170b46170a461709461708461707461706461705461704461703461702461701460782178218287b787b76188218307b78088218387b78109551e0fe821018018215100182160801951120013200004921b0004921a8004921a000140700000000717b484e9518a0007b17b800330750208801bb8949219800492190004921800041330704951880004921880050208a019d89330824330750208c01528983783307013309240a0e013307330850208e013d8983783307013309330090010a0e01951160ff7b1098007b1590007b1688009515a0008411f08282828308828410828018829b829a08829c10829918380884000264764911184911104911087b187b19387b1c307b1a287b1b207b10587b14507b1348951760951840951920641a7b12405020920189fb821770821878821960821a687b67107b68187b697b6a08955160ff8210980082159000821688009511a00032009511a07b10587b15507b1648828a18828b10828c088286d4ac08d4b609d48909989920d4b808978820d498087b17205208ae029567207b1740d86707c87c087b18387b1c08d8c805da7705c8b5057b1b10d8b5077b1a18c8a7077b17307b168367330820330620502094012d8878761f821840d45808821938821a30d4a909d49808988820d45909979920d4980846171e46171d46171c46171b46171a46171946171846171746171646171546171446171346171246171146171046170f46170e46170d46170c46170b46170a46170946170846170746170646170546170446170346170246170146075208f301645682154083573308207b172850209601998746171f2346171e46171d46171c46171b46171a46171946171846171746171646171546171446171346171246171146171046170f46170e46170d46170c46170b46170a461709461708461707461706461705461704461703461702461701821830d48609140600000000010000001408e0ffffff00000000d8850864958219389498945846075108560182172883772033082050209801008746171b644617176c4617136d46170d6946170c764617097346171d204617152046171020461708204617073a46171c79461706794617187246170b72461705724617046f46171e744617037446170e634617026346171f6146171a614617166146171261461701614607469568c0821940d889088219389498330665787619787614945833056e78751178760f78760a5108b30082172883774033082050209a015d8646171f46171e46171d46171c46171b46171a46171946171846171746171646171546171446171346171246171146171046170f46170e46170d46170c46170b46170a46170946170846170746170646170546170446170378750278760146076b821895878000d88708821a08c88a09d8a90ada880a821810c88a0ad88a08821b18c8b808821b207bb77bb9087bba107bb8188210588215508216489511603200009511c0fe7b1038017b1530017b16280182831882851082860882827b1620017b130001d43608d45206d486069866207b151001d45808978820d468087b175208d80c821760018278187b18c000821858018276107b16b8008276087b16b00082777b17f8008287187b17108287107b1718821750018286087b160882887b1820821848018276107b16388276087b163082777b17288287187b17e000821740018286107b16d8008286087b16d00082887b18e8008278187b18488278107b18508278087b184082777b175882c7187b176082c7107b176882c7087b177082c77b177882b7107b17900082b7087b17880082b77b17800082a7187b17a00082a7107b17a80082a7087b17c80082971082a87b1898008298087b18f000829697772098752083273308207b1718017b12080150209c0186846f588219f0006f996f6a98ab38787b1f98ab30787b1e98ab28787b1d98ab20787b1c98ab18787b1b98ab10787b1a98ab08787b19787a1878791046170b46170a4617094617074617064617054617044617034617024617014607989a38787a17989a30787a16989a28787a15989a20787a14989a18787a13989a10787a1298990878791178780898893878790f98893078790e98892878790d98882082190001821b1001d49b0b140600000000010000001409e0ffffff0000000082150801d89509821a200194a97b1bf00094b978780c51090f0b8217180183772033082050209e01a1838218a0006f888219a8006f99821ac8006faa821b98006fbb98bc38787c1f98bc30787c1e98bc28787c1d98bc20787c1c98bc18787c1b98bc10787c1a98bc08787c19787b18787a1098ab38787b1798ab30787b1698ab28787b1598ab20787b1498ab18787b1398ab10787b1298aa08787a11787908989a38787a0f989a30787a0e989a28787a0d989a20787a0c989a18787a0b989a10787a0a98990878790978789889387879079889307879069889287879059889207879049889187879039889107879029888089569c0d89509821a200194a9821af00094a978780151091e0a1408ffffffff00000000821980008499ff7b19c800821588008455ff7b18a80082169000d28606821718018377403308205020a00189826f686f59821ac8006faa787a1846170b46170a461709461707461706461705461704461703461702461701460798ab38787b1f98ab30787b1e98ab28787b1d98ab20787b1c98ab18787b1b98ab10787b1a98aa08787a19787910989a38787a17989a30787a16989a28787a15989a20787a14989a18787a13989a10787a1298990878791178780898893878790f98893078790e98892878790d988820140600000000010000001409a0ffffff0000000082150801d89509821a200194a9821af00094a978780c51091d09821718018377603308205020a201af818218606f888219686f99821a706faa821b786fbb98bc38787c1f98bc30787c1e98bc28787c1d98bc20787c1c98bc18787c1b98bc10787c1a98bc08787c19787b18787a1098ab38787b1798ab30787b1698ab28787b1598ab20787b1498ab18787b1398ab10787b1298aa08787a11787908989a38787a0f989a30787a0e989a28787a0d989a20787a0c989a18787a0b989a10787a0a9899087879097878988938787907988930787906988928787905988920787904988918787903988910787902988808956980d89509821a200194a9821bf00094b97878015109300864579555e000d87507c87a097b19f000d8a906da770682171001c87606d8760782180001c887077b17c80082171801837780003308205020a401968046171fe000d465088219f000821bc800d4b909d498089888207b16a000d46909979920d4980846171e46171d46171c46171b46171a46171946171846171746171646171546171446171346171246171146171046170f46170e46170d46170c46170b46170a461709461708461707461706461705461704461703461702461701460752086e077b15980083573308205020a60101808213e8006f3898893878791f98893078791e98892878791d98892078791c98891878791b98891078791a9889087879198212d0006f297878189898387878179898307878169898287878159898207878149898187878139898107878128215d8006f5a78791098990878791198a83878780f98a83078780e98a82878780d98a82078780c98a81878780b98a81078780a821ce0006fc8787a0898aa08787a09988938787907988930787906988928787905988920787904988918787903988910787902821948821b40d49b0b821458821950d4940ad4ba0ad4b90998aa20979920d4a909787898880878780152096f06d45307d4c208d48707987720d45808978820d48707821a1001520752068217a0008218c800d487071408e0ffffff0000000082199800d889088219f0009498947882190001510826068217080195760001d8760782182001c87805d88508da7708c8a8087b18c800d8a807c897077b17a00083447b14f000836783387b1898005020a8018b7eff8377821898008219f0000a02018217e800c867077b169800d867088216a0008219d000c85909c88909d3590a7b15f000d8590bdaa80b8218d800821cc800c8c808c88b0bd88b0ad8c808821ce000c86c0cc8c808c8a808d4b70ad49808d48a0a98aa20d4b808978820d4a808520878051405e0ffffff0100000083773308205020aa01057eff46171f46171e46171d46171c46171b46171a46171946171846171746171646171546171446171346171246171146171046170f46170e46170d46170c46170b46170a46170946170846170746170646170546170446170346170246170146078217e80095771f7b159000d2570782189800c878087b18d800d878078218f000c878087b18f00094878218c800c887077b17e800d88707c867077b17e0008217288476ff8217308475ff8217388218a800d287077b17d000821718018377a0003308205020ac013c7dff6f6898893878791f98893078791e98892878791d98892078791c98891878791b98891078791a9889087879196f597878189898387878179898307878169898287878159898207878149898187878139898107878129898087878118218d0006f8878791098893878790f98893078790e98892878790d98892078790c46170b46170a461709787808461707461706461705461704461703461702461701460782192001821af000d39a07d89a0864ac821308018216d800d83605da7508821a1001821be800c9ab07d8ab0a821b0001c8ab02d8870b821ae000c92a0ac9ba0a7b1a1001c987077b170001c85909c99c05c936077b172001821718018377c0003308205020ae01337cff821810016f88821900016f996f5a821b20016fbb98bc38787c1f98bc30787c1e98bc28787c1d98bc20787c1c98bc18787c1b98bc10787c1a98bc08787c19787b18787a1098ab38787b1798ab30787b1698ab28787b1598ab20787b1498ab18787b1398ab10787b12646b98aa08787a11787908989a38787a0f989a30787a0e989a28787a0d989a20787a0c989a18787a0b989a10787a0a98990878790978789889387879079889307879069889287879059889207879049889187879039889107879029888088216e800d46b09821ae000821cf000d4ca0ad4a909989920d46a0a97aa20d4a9097878015209a20283b73308205020b001397bff8212f8006f2898893878791f98893078791e98892878791d98892078791c98891878791b98891078791a9889087879198213b0006f397878189898387878179898307878169898287878159898207878149898187878139898107878128216b8006f6a78791098990878791198a83878780f98a83078780e98a82878780d98a82078780c98a81878780b98a81078780a821cc0006fc8787a0898aa08787a09988938787907988930787906988928787905988920787904988918787903988910787902821910821b08d49b0b821420821918d4940ad4ba0ad4b90998aa20979920d4a90978789888087878015209a601d46207d4c308d48707987720d46808978820d48707821bf000520789018219e800821ce000d4c9071408e0ffffff00000000821ad800d88a0894b894785108650195a820d8a807648a7b181801c87b06d8b608da7708c898087b181001d89807c8c7077b17200183447b14080183a78115f80064585020b201cd79ff8377645882190801821518010a02018217f800c85707d857088219b000c86909c88909d3690a7b160801d8690b82161001daa80b8218b800c86808c88b0bd88b0ad86808821cc00082152001c85c0cc8c808c8a808d4b70ad49808d48a0a98aa20d4b808978820d4a8085208bc0083773308205020b4015379ff46171f46171e46171d46171c46171b46171a46171946171846171746171646171546171446171346171246171146171046170f46170e46170d46170c46170b46170a46170946170846170746170646170546170446170346170246170146078217f80095771f82189000d2870782181801c87808d8780782190801c879099497c86707d8670a821b2001c8ba0a821b7bb87bb9087bb7107bba1882103801821530018216280195114001320000821b1802821a100282190802d4ba0788980194785108d906821700027b1758957701887801c898087b170002d487077b180802887701c8a7077b171002d8a707c8b7077b1718028217707b17e8018217787b17e0018217687b17f0018216607b16f8018318e0017b1a48831a00027b19403309ff7b1b38330b2033070a108217387b1758018217487b1750018217407b1748018217587b1740017b1678018217687b1770018217707b176801951780019518600195194001821a787b1a60015020b60107888217b8017b17588217b0017b17488216a8018217a0017b1718821a98017b1a60821990017b1968821888017b1870821780017b17787b1af8017b19f0017b18e8017b17e001492118024921100249210802492100024821c001208318e001831a0002831bc0013309ff33070a0882191898973d976803d48707979803888800018583018e78db780398663d821848978703d4670798883d821a5897aa03d4a8088e8a8e7bdb8a0bd48707db7b03821700027b1758821708027b1748821710027b1740821718027b173846213f01ff0046213e01ff0046213d01ff0046213c01ff0046213b01ff0046213a01ff0046213901ff0046213801ff0046213701ff0046213601ff0046213501ff0046213401ff0046213301ff0046213201ff0046213101ff0046213001ff0046212f01ff0046212e01ff0046212d01ff0046212c01ff0046212b01ff0046212a01ff0046212901ff0046212801ff0046212701ff0046212601ff0046212501ff0046212401ff0046212301ff0046212201ff0046212101ff0046212001ff0046211f0146211e0146211d0146211c0146211b0146211a014621190146211801462117014621160146211501462114014621130146211201462111014621100146210f0146210e0146210d0146210c0146210b0146210a0146210901462108014621070146210601462105014621040146210301462102014621010146210001849b1f951a2001c9ba0a7ca7197ca8187cac1a7ca61b977708d4870797cc10976618d46c0cd47c027ca81d7cac1c7ca61e7ca71f978808d4c808976610977718d46707d48707977720d427077b17187ca7117ca8107cac127ca613977708d4870797cc10976618d46c0cd47c027ca8157cac147ca6167ca717978808d4c808976610977718d46707d48707977720d427077b17107ca7097ca8087cac0a7ca60b977708d4870797cc10976618d46c0cd47c097ca80d7cac0c7ca60e7ca70f978808d4c808976610977718d46707d48707977720d497007ca7017ca87ca9027ca603977708d48707979910976618d46909d497077ca8057ca9047ca6067caa07978808d4980897661097aa18d46a0ad4a808978820d478048218209887387817e7009887307817e6009887287817e5009887207817e4009887187817e3009887107817e2007818e0009887087817e1008218289887387817ef009887307817ee009887287817ed009887207817ec009887187817eb009887107817ea007818e8009887087817e9008218309887387817f7009887307817f6009887287817f5009887207817f4009887187817f3009887107817f2007818f0009887087817f1008218509887387817ff009887307817fe009887287817fd009887207817fc009887187817fb009887107817fa007818f8009887087817f9009517e000c9b70b4621df004621de004621dd004621dc004621db004621da004621d9004621d8004621d7004621d6004621d5004621d4004621d3004621d2004621d1004621d0004621cf004621ce004621cd004621cc004621cb004621ca004621c9004621c8004621c7004621c6004621c5004621c4004621c3004621c2004621c1004621c0007cb7197cb8187cb91a7cb61b977708d48707979910976618d46909d4790a7cb81d7cb91c7cb61e7cb71f978808d49808976610977718d46707d48707977720d4a7067cb7117cb8107cb9127cba13977708d4870797991097aa18d4a909d4790c7cb8157cb9147cba167cb717978808d4980897aa10977718d4a707d48707977720d4c7027cb7097cb9087cba0a7cbc0b977708d4970797aa1097cc18d4ca0ad47a087cb90d7cba0c7cbc0e7cb70f979908d4a90997cc10977718d4c707d49707977720d487077cb8017cb97cba027cbc03978808d4980897aa1097cc18d4ca0ad4a8087cb9057cba047cbc067cbb07979908d4a90997cc1097bb18d4cb0bd4b909979920d4890b94349430821c10943c8219189439943b943794329436821838e09803d26909821840e0c80ad2c20c821848e00806d20707821858e04808d24b0bd4b808d46707d4ca0ad49309821b607b1bf801821b687b1bf001821b707b1be801821b787b1be0017b1918027b1a10027b1708027b1800028318e001831a00023309ff330b2033070a109551c0fd8210380282153002821628029511400232004921b0004921a8004921a000140700000000717b484e9518a0007b17b80033075020b801d271ff4921980049219000492180004133070495188000492188005020ba01b371ff33082433075020bc016771ff83783307013309243300be010a0e01951120ff7b10d8007b15d0007b16c8008282188283108286088284d42608d43405d48505985520d43808978820d458087b17485208800582c7187b172082c7107b172882c7087b173082c77b173882b7107b1710954560d84507c876087b18b8007b1660d86808da770882b7087b1782b77b170882a7187b17a80082a7107b17a00082a7087b17980082a77b17c0008297187b1780008297107b1788008297087b177882977b179000c883067b1368d836077b1270c827077b17b0007b145883473308207b17185020c0018a70ff46171f60d465088219b800821bb000d4b909d498089888207b1650d46909979920d4980846171e46171d46171c46171b46171a46171946171846171746171646171546171446171346171246171146171046170f46170e46170d46170c46170b46170a4617094617084617074617064617054617044617034617024617014607520865047b154083573308205020c201f76fff8212c0006f2898893878791f98893078791e98892878791d98892078791c98891878791b98891078791a988908787919821c98006fc9787818989838787817989830787816989828787815989820787814989818787813989810787812821ba0006fba78791098990878791198a83878780f98a83078780e98a82878780d98a82078780c98a81878780b98a81078780a8216a8006f68787a0898aa08787a0998893878790798893078790698892878790598892078790498891878790398891078790282198000821578d495058214900082198800d4940ad45a0ad4590998aa20979920d4a90978789888087878015209630364bad4a207d46c08d48707987720d4a808978820d48707821370821968821c60821b5852073c038217508218b000d487071408e0ffffff00000000821a40d88a08821ab80094a894785108160395b68000d8b607c87c087b18b000d8c808da7708c898087b18b800d89807c837077b17880083447b1490008367832564585020c4017f6eff837764588215b000821990000a02018217c000c867077b169000d867088216880082199800c85909c88909d3590ad8590bdaa80b8218a000821cb800c8c808c88b0bd88b0ad8c808821ca800c86c0cc8c808c8a808d4b70ad49808d48a0a98aa20d4b808978820d4a8085208700283773308205020c601056eff46171f46171e46171d46171c46171b46171a46171946171846171746171646171546171446171346171246171146171046170f46170e46170d46170c46170b46170a46170946170846170746170646170546170446170346170246170146078217c00095771f1408e0ffffff01000000d2870782189000c878087b18c000d878058217b000c857077b17b00094758217b800c875057b15a800d87507c867077b17b8008217109777209876208215188357203308205020c801496dff6f6882196f99821a086faa98ab38787b1f98ab30787b1e98ab28787b1d98ab20787b1c98ab18787b1b98ab10787b1a98ab08787b19787a18989a38787a17989a30787a16989a28787a15989a20787a14989a18787a13989a10787a12989a08787a1178791046170b46170a461709787808461707461706461705461704461703461702461701460798893878790f98893078790e98892878790d98882078780c8357403308205020ca019c6cff8218206f888219286f99821a306faa821b386fbb98bc38787c1f98bc30787c1e98bc28787c1d98bc20787c1c98bc18787c1b98bc10787c1a98bc08787c19787b1898ab38787b1798ab30787b1698ab28787b1598ab20787b1498ab18787b1398ab10787b1298ab08787b11787a10989a38787a0f989a30787a0e989a28787a0d989a20787a0c989a18787a0b989a10787a0a989a08787a0978790898893878790798893078790698892878790598892078790498891878790398891078790298890878790178788217488218c0007b788218b8007b78188218b0007b78088218a8007b78108210d8008215d0008216c8009511e000320000951110fe7b10e8017b15e0017b16d8019515f0019511d0f98411e0641682931082941882920882997b6268027b646002d442027b6378027b697002d43909d429097b6798005209062810148257108279187b6938018252088279107b6918018279087b69200182777b6728018227187b67300182578229107b69a0008229087b69a80082297b69b0008279187b69b8008279107b69c0008279087b69c80082777b67d00082c7187b67d80082c7107b67e00082c7087b67e80082c77b67f00082b7187b67f80082b7107b67000182b7087b67080182b77b67100182a7187b67800282a7107b67880282a7087b67900282a77b6798028287187b6740028287107b6748028287087b67500282877b6758029517e08477e07b67b8026471491718491710491708490783770a11018268b8028287188282828910828a0882688002d3870bd8870882678802d8790cdbb80c82689002d38a03d88a0a82689802d88208db3a08d39707d4b707db7c0851080628fe1438078400024926380649263006492628067b672006826778027b675006826768027b674806826770027b674006826748027b677006826750027b676806826758027b676006826760027b675806956780069568600695694006956a2006826b40027b6b78065020cc0188dc82689806826a900682678806826980067b67b8027b68b002d48707d4a908d478089888207b6aa802d4a707977720d4870751070628d81883973308207b6738027b69a0025020ce017c69ff8268b0028269a802d498081409e0ffffff00000000826aa002d89a09826ab80294a99489520906289a187c78197c79187c7a1a7c7b1b978808d4980897aa1097bb18d4ba0ad4a8087c791d7c7a1c7c7b1e7c7c1f979908d4a90997bb1097cc18d4cb0bd4b909979920d489027c79117c7a107c7b127c7c13979908d4a90997bb1097cc18d4cb0bd4b9097c7a157c7b147c7c167c781797aa08d4ba0a97cc10978818d4c808d4a808978820d498037c78097c7a087c7b0a7c7c0b978808d4a80897bb1097cc18d4cb0bd4b8087c7a0d7c7b0c7c7c0e7c790f97aa08d4ba0a97cc10979918d4c909d4a909979920d4890a7c78017c797c7b027c7c03978808d4980897bb1097cc18d4cb0bd4b8087c79057c7b047c7c067c7707979908d4b90997cc10977718d4c707d49707977720d487076f776fa96f3a6f28d4980bd4a707d47b0b98bb20d49707977720d4b7075107062870178267380283772083887b68b8025020d0011468ff9518e08488e07b68b0026481837783898268b8020a098268b0028287187b67b8028287107b67a0028287087b67a80282877b67b00233082033075020d201d367ff8269b8029898387b68380278781f9898307b68300278781e9898287b68280278781d9898207b68200278781c9898187b68180278781b9898107b68100278781a9898087b6808027878197879188269a0029898387b6800027878179898307b68f8017878169898287b68f0017878159898207b68e8017878149898187b68e0017878139898107b68d8017878129898087b68d0017878117879108269a8029898387b68c80178780f9898307b68c00178780e9898287b68b80178780d9898207b68b00178780c9898187b68a80178780b9898107b68a00178780a9898087b6898017878097879088269b0029898387b6890017878079898307b6888017878069898287b6880017878059898207b6878017878049898187b6870017878039898107b6868017878029898087b68600178780178793307203308205020d4019366ff46171f46171e46171d46171c46171b46171a46171946171846171746171646171546171446171346171246171146171046170f46170e46170d46170c46170b46170a461709461708461707461706461705461704461703461702461701460733084033075020d6012866ff83778369a0073308400a098267b8078268b0078269a807826aa0076f776f886f996faa7b6a98077b6990077b6888077b6780074926b8074926b0074926a8074926a007482660072083688007836aa007836b60073309ff33070a08018267a0078068b0078269a807d48707d497075107062895128367a0060a8167b0067b6750018267a0067b6740018267a8067b6788008367c0060a058167d0067b6758018267c0067b6748018267c8067b6790003307403308205020d8016c65ff7c78197c79187c7a1a7c7b1b978808d4980897aa1097bb18d4ba0ad4a8087c791d7c7a1c7c7b1e7c7c1f979908d4a90997bb1097cc18d4cb0bd4b909979920d489027c79117c7a107c7b127c7c13979908d4a90997bb1097cc18d4cb0bd4b9097c7a157c7b147c7c167c781797aa08d4ba0a97cc10978818d4c808d4a808978820d498037c78097c7a087c7b0a7c7c0b978808d4a80897bb1097cc18d4cb0bd4b8087c7a0d7c7b0c7c7c0e7c790f97aa08d4ba0a97cc10979918d4c909d4a909979920d4890a7c78017c797c7b027c7c03978808d4980897bb1097cc18d4cb0bd4b8087c79057c7b047c7c067c7707979908d4b90997cc10977718d4c707d49707977720d487076f746fac6f336f2bd44c0788b8e094389478520806289c13d4cb07d44308d48707987720d4c808978820d48707510706287a13826788006f77987820826940016f99979a20d4a8087b688000977720826850016f88988820d487077b67789899207b6960826790006f77987820826948016f99979a20d4a8087b6848977720826858016f88988820d487077b67389899207b692895b7207b678800d8b707c873087b6850d83808da7708c8c8087b6840d8c807c847077b67308267b0026f777b6740018267a8026f777b6748018267a0026f777b6750018267b8026f777b67580183b73308207b67207b6b687b63587b6490007b6c705020da016863ff46171f3546171e0a46171d4146171cf80046171b4746171a3a46171941461718fb00461717254617169500461715a8004617141e461713e500461712614617115f4617105046170f0946170e1746170d7746170cbe0046170b4646170a6b4617095846170889004617071946170695004617051b4617048f004617030a4617026d461701e9004607f9009511d8956780047b17209567a0047b17189567c0047b17109567e0047b1708956700057b17826738017b679804826718017b679004826720017b678804826728017b678004826730017b67b8048267a0007b67b0048267a8007b67a8048267b0007b67a0048267b8007b67d8048267c0007b67d0048267c8007b67c8048267d0007b67c0048267d8007b67f8048267e0007b67f0048267e8007b67e8048267f0007b67e0048267f8007b671805826700017b671005826708017b670805826710017b670005826780027b673805826788027b673005826790027b672805826798027b6720058267287b6750058267487b6748058267387b67400549265805826740017b677805826748017b677005826750017b676805826758017b676005492698058267607b679005826780007b6788058267787b6780058267307b67b8058267407b67b0058267507b67a8059567c0059568a00595698005956a6005956b4005956c2005826288007b62a0055020dc01b4db9511288267c8058262d8058263c005826ad005826858d3870bd8870c6480826468d84308dab80c826970c99a0bd89a0a82699000c99209c9a909d8cb0ac9a909c9cb0bc90707c98707c9430ad49707d4ba08d47808d4b707988820977720d48707510706284c1083a88267207b6a98025020de01f460ff4926f8064926f0064926e8064926e0064926180749261007492608074926000749263807ff49263007ff49262807ff49262007ff9569e006979920989920956a200797aa20d4a909977720987720826a980297aa20d47a0a956700079777201408ffffffff00000000d4870c3307ff3308ff330bff0a0a01806710078268000782690807d4780ad49a0a520a0628ad0f6f99989a206f88978b20d4ba0a7b6a98029799206f77987720d497077b6790029888207b68880233082033075020e0013160ff8268a0027878108268c80178780f8268c00178780e8268b80178780d8268b00178780c8268a80178780b8268a00178780a826898017878098268a802787808826890017878078268880178780682688001787805826878017878048268700178780382686801787802826860017878018268b00278788268b802787818826800027878178268f8017878168268f0017878158268e8017878148268e0017878138268d8017878128268d0017878118268380278781f8268300278781e8268280278781d8268200278781c8268180278781b8268100278781a826808027878193307203308205020e201455fff46171f46171e46171d46171c46171b46171a46171946171846171746171646171546171446171346171246171146171046170f46170e46170d46170c46170b46170a461709461708461707461706461705461704461703461702461701460733084033075020e401da5eff83778369a0073308400a098267b8078268b0078269a807826aa0076f777b6780026f887b6838016f997b6930016faa7b6a28017b6a98077b6990077b6888077b6780074926b8074926b0074926a8074926a007482660072083688007836aa007836b60073309ff33070a088067b4079777208268b80782698802d49707826928017b699807826930017b699007826938017b698807826980027b6980077b68b8077b67b007826798027b67a807826790027b67a00783688007836aa0073309ff330b2033070a10826740017b675804826748017b675004826750017b674804826758017b674004492678044926700449266804956760049568400449266004013300e6019511c0fd7b1038027b1530027b162802951540028411e08289187b19508289107b19308289087b192882887b1820827a1882791082780882777b1a607b1af8017b19687b19f0017b18707b18e8017b17787b17e001492118024921100249210802492100024821c001208318e001831a0002831bc0013309ff33070a0828b3e49517e08477e07b6748016471491718491710491708490783770a118268480182877b6780028287087b6758018287107b6750018287187b67480133082033075020e801105dff8268380278781f8268300278781e8268280278781d8268200278781c8268180278781b8268100278781a82680802787819826800027878178268f8017878168268f0017878158268e8017878148268e0017878138268d8017878128268d0017878118268c80178780f8268c00178780e8268b80178780d8268b00178780c8268a80178780b8268a00178780a82689801787809826890017878078268880178780682688001787805826878017878048268700178780382686801787802826860017878018268b8027878188268a0027878108268a8027878088268b00278783307203308205020ea01245cff46171f0246171e46171d46171c46171b46171a46171946171846171746171646171546171446171346171246171146171046170f46170e46170d46170c46170b46170a461709461708461707461706461705461704461703461702461701460733084033075020ec01b85bff83778369a0073308400a098267b8078268b0078269a807826aa0076f777b6738026f887b6830026f997b6928026faa7b6a20027b6a98077b6990077b6888077b6780074926b8074926b0074926a8074926a007482660072083688007836aa007836b60073309ff33070a08826720027b679807826728027b679007826730027b678807826738027b678007826748017b67b807826750017b67b007826758017b67a807826780027b67a00783688007836aa0073309ff330b2033070a10836740070a05806750077b67f801826748077b67f001826740077b6730029517e08477e07b6780026471491718491710491708490783770a118268800282877b6728028287087b6720028287107b6718028287187b6710023307403308205020ee01965aff7c78017c797c7a027c7b03978808d4980897aa1097bb18d4ba0ad4a8087c79057c7a047c7b067c7c07979908d4a90997bb1097cc18d4cb0bd4b909979920d489027c79097c7a087c7b0a7c7c0b979908d4a90997bb1097cc18d4cb0bd4b9097c7a0d7c7b0c7c7c0e7c780f97aa08d4ba0a97cc10978818d4c808d4a808978820d498037c78117c7a107c7b127c7c13978808d4a80897bb1097cc18d4cb0bd4b8087c7a157c7b147c7c167c791797aa08d4ba0a97cc10979918d4c909d4a909979920d4890a7c78197c79187c7b1a7c7c1b978808d4980897bb1097cc18d4cb0bd4b8087c791d7c7b1c7c7c1e7c771f979908d4b90997cc10977718d4c707d49707977720d487076f747b6480026fa97b6900026f387b6808026f2a7b6a3802826710027b679803826718027b679003826720027b678803826728027b6780034926b803826788027b67b003826798027b67a803826790027b67a003826760027b67d803826778027b67d003826768027b67c803826770027b67c003826740027b67f803826748027b67f003826750027b67e803826758027b67e0037b6a18047b6810047b69080495672004956800049569e003956ac003956ba003956c80037b6400045020f0017be78269000282673802d49707826a080282688002d4a808d47808988820d4a707977720d487075207ed0764a082672804826838047b68780282642004826a3004d3970bd8970c82628002d82408dab80cc90a0bc9cb03d8cb0b7b6b7002d80a0a826c3802826b7802c9cb0cc9ac0c826a7002c9ac0cc99707c98707c92408d4c707d4380ad47a0ad4370798aa20977720d4a70752078007826730026f779777208269f0016f99989a20d4a7077b6778029799208267f8016f77987720d497077b6770028167800283887b6880025020f201fa57ff3a082000023a092800023a0a3000023a0b3800027b68b8077b69b0077b6aa8077b6ba0078268a0027b68d0078268a8027b68c8078268b0027b68c0078268b8027b68d807826870026f88826978026f99826a300297aa207b6ae8074926e0077b69f0077b68f80783798367a007330803826a80020a0782679800491718826888027b7810826898027b7808826890027b78955100f89511e0951130068210e8018215e0018216d8019511f00132003307403308205020f4013f57ff7c78117c79107c7a127c7b13978808d4980897aa1097bb18d4ba0ad4a8087c79157c7a147c7b167c7c17979908d4a90997bb1097cc18d4cb0bd4b909979920d489027c79017c7a7c7b027c7c03979908d4a90997bb1097cc18d4cb0bd4b9097c7a057c7b047c7c067c780797aa08d4ba0a97cc10978818d4c808d4a808978820d498037c78197c7a187c7b1a7c7c1b978808d4a80897bb1097cc18d4cb0bd4b8087c7a1d7c7b1c7c7c1e7c791f97aa08d4ba0a97cc10979918d4c909d4a909979920d4890a7c78097c79087c7b0a7c7c0b978808d4980897bb1097cc18d4cb0bd4b8087c790d7c7b0c7c7c0e7c770f979908d4b90997cc10977718d4c707d49707977720d487076f7b6fa86f396f277b67b8027b69a802d497076489d4b808d478089888207b6bb002d4b707977720d48707520752057b69a00283973308207b6798025020f601f555ff46171f46171e46171d46171c46171b46171a46171946171846171746171646171546171446171346171246171146171046170f46170e46170d46170c46170b46170a461709461708461707461706461705461704461703a00046170279461701c3004607088268a002958704d88708826ab802c88a09d8a90ada880a8268b002c88a0ad88a08826ba802c88b0b7b69c8027b67c0027b6ad0029567e0029568c0027b6bd8025020f80182bd8267e8028262f8028263e002826af002282b043307403308205020fa012a55ff7c78117c79107c7a127c7b13978808d4980897aa1097bb18d4ba0ad4a8087c79157c7a147c7b167c7c17979908d4a90997bb1097cc18d4cb0bd4b909979920d489027c79017c7a7c7b027c7c03979908d4a90997bb1097cc18d4cb0bd4b9097c7a057c7b047c7c067c780797aa08d4ba0a97cc10978818d4c808d4a808978820d498037c78197c7a187c7b1a7c7c1b978808d4a80897bb1097cc18d4cb0bd4b8087c7a1d7c7b1c7c7c1e7c791f97aa08d4ba0a97cc10979918d4c909d4a909979920d4890a7c78097c79087c7b0a7c7c0b978808d4980897bb1097cc18d4cb0bd4b8087c790d7c7b0c7c7c0e7c770f979908d4b90997cc10977718d4c707d49707977720d487076f7b6fa86f396f277b67b8027b69a802d497076489d4b808d478089888207b6bb002d4b707977720d4870752073d037b69a00283973308207b6798025020fc01e053ff46171f46171e46171d46171c46171b46171a46171946171846171746171646171546171446171346171246171146171046170f46170e46170d46170c46170b46170a461709461708461707461706461705461704461703a00046170279461701c3004607088268a002958704d88708826ab802c88a09d8a90ada880a8268b002c88a0ad88a08826ba802c88b0b7b6908037b6700037b6a100395672003956800037b6b18035020fe01b6bd826728038262380382632003826a3003281602330740330820502000021553ff7c78117c79107c7a127c7b13978808d4980897aa1097bb18d4ba0ad4a8087c79157c7a147c7b167c7c17979908d4a90997bb1097cc18d4cb0bd4b909979920d489027c79017c7a7c7b027c7c03979908d4a90997bb1097cc18d4cb0bd4b9097c7a057c7b047c7c067c780797aa08d4ba0a97cc10978818d4c808d4a808978820d498037c78197c7a187c7b1a7c7c1b978808d4a80897bb1097cc18d4cb0bd4b8087c7a1d7c7b1c7c7c1e7c791f97aa08d4ba0a97cc10979918d4c909d4a909979920d4890a7c78097c79087c7b0a7c7c0b978808d4980897bb1097cc18d4cb0bd4b8087c790d7c7b0c7c7c0e7c770f979908d4b90997cc10977718d4c707d49707977720d487076f7b6fa86f396f277b67b8027b69a802d497076489d4b808d478089888207b6bb002d4b707977720d48707520728017b69a00283973308207b67980250200202cb51ff46171f46171e46171d46171c46171b46171a46171946171846171746171646171546171446171346171246171146171046170f46170e46170d46170c46170b46170a461709461708461707461706461705461704461703a00046170279461701c3004607088268a002958704d88708826ab802c88a09d8a90ada880a8268b002c88a0ad88a08826ba802c88b0b7b69e8057b67e0057b6af005956700069568e0057b6bf805502004028bc8826708068262180682630006826a1006018268b802d3870bd8870c64808264a002d84308dab80c8269b002c99a0bd89a0a8269a802c99209c9a909d8cb0ac9a909c9cb0bc90707c98708c94307d49808d4b709d48909d4b808989920978820d498085108670050200602af97492670034926680349266003140700000000717b484e956860037b677803330750200802cd50ff49265803492650034926400341330704956840034926480350200a02ae50ff330824330750200c026250ff83783307013309240a0e0183787b68b8028267980250200e024650ff83783307018269b802330010020a0e014917184917104917083308607b783200821770821878d4870782189800d46808d478089888207b1668d46707977720d4870752071d068216d8007b1680008217d0007b1790008217c8007b17608217c0007b1788008117980033082050201202d34fff6f68821990006f998216606f6a821b88006fbb98bc38787c1f98bc30787c1e98bc28787c1d98bc20787c1c98bc18787c1b98bc10787c1a98bc08787c19787b18787a1098ab38787b1798ab30787b1698ab28787b1598ab20787b1498ab18787b1398ab10787b1298aa08787a11787908989a38787a0f989a30787a0e989a28787a0d989a20787a0c989a18787a0b989a10787a0a9899087879097878988938787907988930787906988928787905988920787904988918787903988910787902988808787801330820330750201402014fff8218406f888219486f99821a506faa821b586fbb98bc38787c1f98bc30787c1e98bc28787c1d98bc20787c1c98bc18787c1b98bc10787c1a98bc08787c19787b1898ab38787b1798ab30787b1698ab28787b1598ab20787b1498ab18787b1398ab10787b1298ab08787b11787a10989a38787a0f989a30787a0e989a28787a0d989a20787a0c989a18787a0b989a10787a0a989a08787a0978790898893878790798893078790698892878790598892078790498891878790398891078790298890878790178783308203307502016022e4eff83778319c0003308200a0901821898009587207b1750d88709821878c89804d8840ada990a821968c8a90082179000821a8800d47a0a82178000d4760bd4ab0bd8900a821370c83a0a510bd6031407e0ffffff00000000821b9800d8b7067b16408e8cda860c9a96c9c6087b18588e82d8c60c8e96c836069a66c9c6068e63da620364697b1648c9b7028218789a8c821840c98c0b7b1740d827068ebcdab60c821858d49806db630c94c295271fd8270694cbc86b02d8b20bda660b94c87b1858c8b8087b1808978b3b982605d4b60397223b987b05d42b067b163882188800888b01821260c9b2077b17209589ff7b19307b1328d3370bd83703d86907dbb3077b1710d4280b88bb0182179000d8b70382188000c93808c9b70782194894c9821b08821c58d8cb0cc8c90998b305979c3bd4c303989c05d83709d3c802d8c80bda290bd33706d42606821910da690bdabc087b189000dab307821820821928dab908821930821c38dabc09989b3b978c056483d4cb0b979c05821678c8b60682189800c88c0c7b1c60d88c0bc8b606821878d38602821878d8860cda2b0c8218d0007b18880098333b977b05d43b038218c8007b18800098773b82129000972205d4720b821968821270c8b202c89303d8930bc8b202c83c0cd83c0b821870c8b202821b6095b7207b1738d8b70bc8b6077b1730d86706dabb068217c000c8c6067b1628d8c60cc82c0c7b1c20821b78821cd8006f777b179000821780006f72821788006f777b1788006fc77b178000821350017b18607b195864b6821798007b17507b1a707b10687b14787b1398007b12487b12b000821788007b17a800821780007b17a000821790007b17b8004921d8004921d0004921c8004921c0004821e000208318a000831ac000831be0003309ff33070a0801821760821858d48707821840821950d8890894689478510898018216d8008217d0007b17508217c8007b17588217c0007b17608117980033082050201802544bff6f688219506f99821a586faa821b606fbb98bc38787c1f98bc30787c1e98bc28787c1d98bc20787c1c98bc18787c1b98bc10787c1a98bc08787c19787b18787a1098ab38787b1798ab30787b1698ab28787b1598ab20787b1498ab18787b1398ab10787b1298aa08787a11787908989a38787a0f989a30787a0e989a28787a0d989a20787a0c989a18787a0b989a10787a0a98990878790978789889387879079889307879069889287879059889207879049889187879039889107879029888087878018219800095990188970182188800c878087b1888007b198000d48907887b01821748c8b702d8720782189000c878087b18900082179800957320d873096476821b78c89b04d8b40ada990a821738d37606821968821c28d39c0cd46c0c821730d3b707821870821620d38606d47606c8a900d46c0cd8900ac88a0a520c1cfe280682135001821b187bb37bb4087bb0107bba18955100ff8210f8008215f0008216e80095110001320000951100ff7b10f8007b15f0007b16e800951500018411f082897b19208289087b19108289107b19088288187b187b171833074033082050201a02a949ff7c78017c797c7a027c7b03978808d4980897aa1097bb18d4ba0ad4a8087c79057c7a047c7b067c7c07979908d4a90997bb1097cc18d4cb0bd4b909979920d489027c79097c7a087c7b0a7c7c0b979908d4a90997bb1097cc18d4cb0bd4b9097c7a0d7c7b0c7c7c0e7c760f97aa08d4ba0a97cc10976618d46c0cd4ca0a97aa20d4a9097c7a117c7b107c7c127c761397aa08d4ba0a97cc10976618d46c0cd4ca0a7c7b157c7c147c76167c781797bb08d4cb0b976610978818d46808d4b808978820d48a0a7c78197c7b187c7c1a7c761b978808d4b80897cc10976618d46c0cd4c8087c7b1d7c7c1c7c761e7c771f97bb08d4cb0b976610977718d46707d4b707977720d487076f7b7b1b386fa66f997b19306f287b182882177b17b8008217087b17b0008217107b17a8008217207b17a0007b1898007b1990007b1688009517c0009518a000951980007b1b800033001c02951100ff7b10f8007b15f0007b16e800951500018411e07b171882961082977b1798008297187b17708297087b1778828b18828a1082890882877b1b407b1bb8007b1a487b1ab0007b19507b19a8007b17587b17a0004921d8004921d0004921c8004921c0004821e000208318a000831ac000831be0003309ff33070a0828b2f76464821ac8008217d8007b1710821bc0008213d000d36a0cd86a08821938d89b06dac608c94a0ac96a0a7b1a08c99b0b95bc1fd8bc0bc8ba0a84cce0c84a07c8c9097b1920d8c90cc8c702d3a207d8a209da7c09821630c96307d8630c6463821028821610c90606c9c606d8870cc9c606c98707821808d88a08dabb08c87808d87807c8380ac89a0cd88a08d8ac09c80606c86707c88707c897068e678ec8db6708d46c078e29db780952093901643b821738821820d87807d34208d84209da8709d83c07d30608d8060ada870ad33c07d48707da790a520a0c013307403308207b14107b12087b1c50201e02e546ff6f6882196f99821a086faa821b206fbb787b1898bc38787c1f98bc30787c1e98bc28787c1d98bc20787c1c98bc18787c1b98bc10787c1a98bb08787b19787a1098ab38787b1798ab30787b1698ab28787b1598ab20787b1498ab18787b1398ab10787b1298aa08787a11787908989a38787a0f989a30787a0e989a28787a0d989a20787a0c989a18787a0b989a10787a0a98990878790978789889387879079889307879069889287879059889207879049889187879039889107879029888087878018217188218387b788218287b78188218107b78088218307b7810955100ff8210f8008215f0008216e800951100013200491170491168491160140700000000717b484e9518607b17783307502020021046ff4911584911504911404133070495184049114850202202f645ff330824330750202402aa45ff8378330701330924330026020a0e019511a07b10587b15507b16489515608411f08289828a08828b1082881864767b18187b1b107b1a0895172064187b195020280286fb821730821838821920821a287b67107b68187b697b6a089551a08210588215508216489511603200951110ff7b10e8007b15e0007b16d8009515f0008411f0828918828b10828c08d49b0688ca01946a7b1748510a9f01828698b73b7b1920979805d4870798c83b7b1b2897b905d4980898693b7b1c1097ca05d4a9097b1618976a0595ab20d8ab0ac8a90cd89c09daaa09c88909d88908c8870a7b1b90007b1c98007b19a0009517b000951890007b1aa80050202a0226b28217c8008219c0008218b800821ab0007b17387b1830d48707d49a08d478089888207b1940d49707977720d4870752070a0183a73308207b1a0850202c026c44ff8218206f888219286f99821a106faa821b186fbb98bc38787c1f98bc30787c1e98bc28787c1d98bc20787c1c98bc18787c1b98bc10787c1a98bc08787c19787b18787a1098ab38787b1798ab30787b1698ab28787b1598ab20787b1498ab18787b1398ab10787b1298aa08787a11787908989a38787a0f989a30787a0e989a28787a0d989a20787a0c989a18787a0b989a10787a0a98990878790978789889387879079889307879069889287879059889207879049889187879039889107879029888087878018217488218087b788218387b78188218307b78088218407b7810955110ff8210e8008215e0008216d8009511f00032000049218000491178491170140700000000717b484e9518707b178800330750202e029043ff49116849116049115041330704951850491158502030027643ff3308243307502032022a43ff8378330701330924330034020a0e019511e87b10107b15087b16828910828a18828b088286d4ba0ad49608d4a808988820d4a909979920d4980852084d827918827a108278827708d4a80bd49707d47b0b98bb20d4a707977720d4b70752072a390584000283878366646850203602b842ff83776468645982101082150882169511180a02320000821a30821928d4a60788980194785108bc00821c38d46c07d4a908d4870798771bd46808978825d4870752079f008218a000821bb800821aa8008216b0009587207b1830d88708c88a097b1a28d8a90ada880ac86a0a7b1610d86a087b1b18c8b808d4a70bd49808d48b0b98bb20d4a808978820d4b80852085239088400027b18088ac6058377646850203a021242ff837764688219080a028217208218187b78188218107b78108218287b78088218307b78955120ff8210d8008215d0008216c8009511e000320000491170491168491160140700000000717b484e9518607b1778330750203c02f641ff4911584911504911404133070495184049114850203e02dc41ff3308243307502040029041ff8378330701330924330042020a0e01951150ff7b10a8007b15a0007b1698009515b0008411f0828b10828a18828c0882867b1a387b1c30d4ac08d4b60ad48a0a98aa207b1b40d4b808978820d4a8087b17485208fc018297187b17208297107b17108297087b170882977b17187b16288367330820502044021441ff8214087c78017c797c7a027c7b03978808d4980897aa1097bb18d4ba0ad4a8087c79057c7a047c7b067c7c07979908d4a90997bb1097cc18d4cb0bd4b909979920d489027c79097c7a087c7b0a7c7c0b979908d4a90997bb1097cc18d4cb0bd4b9097c7a0d7c7b0c7c7c0e7c780f97aa08d4ba0a97cc10978818d4c808d4a808978820d498037c78117c7a107c7b127c7c13978808d4a80897bb1097cc18d4cb0bd4b8087c7a157c7b147c7c167c791797aa08d4ba0a97cc10979918d4c909d4a909979920d4890a7c78197c79187c7b1a7c7c1b978808d4980897bb1097cc18d4cb0bd4b8087c791d7c7b1c7c7c1e7c771f979908d4b90997cc10977718d4c707d49707977720d487076f706fa66f398213186f2a821820d38a0bd8a807821a10d89a0cdbb70cd34602d86406d80307db2607d3a909d4b909db9c075107970064a698673b978805d4780298483b976605d4680898393b974a05d4a909973a05821728c87a0ad87a0b821c30c8c909c8b909d3c907d8c906da7b06821c40c8c808c88606d8860bd8c808821c38c82c07c88707c8b70795a820d8a80ac8a90bd89b09daaa09c86909d8690ac8a707821a487ba87bab087ba9107ba718955150ff8210a8008215a000821698009511b00032000049218000491178491170140700000000717b484e9518707b1788003307502046025d3fff4911684911604911503233070495185049115850204802433fff330824330750204a02f73eff837833070133092433004c020a0e01827910827a18827b088277d4ba0ad4970bd4ab0b98bb20d4a909979920d4b9095209d7009511e07b10187b15107b1608828910828a087b1a8286979920989520837733082050204e029c3eff6f5882196f996f6a98ab38787b1f98ab30787b1e98ab28787b1d98ab20787b1c98ab18787b1b98ab10787b1a98ab08787b19787a1878791046170b46170a4617094617074617064617054617044617034617024617014607989a38787a17989a30787a16989a28787a15989a20787a14989a18787a13989a10787a1298990878791178780898893878790f98893078790e98892878790d98882078780c8210188215108216089511203200008217d802821ad0028218c8028219c0027b17287b1818d48707d4a908d478089888207b1a20d4a707977720d487075207120b83977b1798003308207b191050205202ab3dff7c78017c797c7a027c7b03978808d4980897aa1097bb18d4ba0ad4a8087c79057c7a047c7b067c7c07979908d4a90997bb1097cc18d4cb0bd4b909979920d489027c79097c7a087c7b0a7c7c0b979908d4a90997bb1097cc18d4cb0bd4b9097c7a0d7c7b0c7c7c0e7c760f97aa08d4ba0a97cc10976618d46c0cd4ca0a97aa20d4a9097c7a117c7b107c7c127c761397aa08d4ba0a97cc10976618d46c0cd4ca0a7c7b157c7c147c76167c781797bb08d4cb0b976610978818d46808d4b808978820d48a0a7c78197c7b187c7c1a7c761b978808d4b80897cc10976618d46c0cd4c8087c7b1d7c7c1c7c761e7c771f97bb08d4cb0b976610977718d4670782169800d4b707977720d487076f7b6fa76f986f297b1978027b1870027b17680295178002951860027b1b600233005402951120ff7b10d8007b15d0007b16c8009515e0008411f08289828a087b1a288286108288187b18307b17207b1898007b1690007b1a88009517a000951880007b19387b1980003300380228f4f64921d8014921d0014921c0014921c80182198802821a80028218109587207b1770d88707821b18c87b087b1868d8b808da770895a7207b1750d8a707c8790b7b1990007b1b48d89b09da7709821c20c88c07821b9002821898027b1760d8c707821c28c8c7077b1758c8b9097b1b787b1940d8b9077b188000c887077b17387b1a880083aa7b1a30013308206467502056029a3bff7c78017c797c7a027c7b03978808d4980897aa1097bb18d4ba0ad4a8087c79057c7a047c7b067c7c07979908d4a90997bb1097cc18d4cb0bd4b909979920d489027c79097c7a087c7b0a7c7c0b979908d4a90997bb1097cc18d4cb0bd4b9097c7a0d7c7b0c7c7c0e64637c760f97aa08d4ba0a97cc10976618d46c0cd4ca0a97aa20d4a9097c7a117c7b107c7c127c761397aa08d4ba0a97cc10976618d46c0cd4ca0a7c7b157c7c147c76167c781797bb08d4cb0b976610978818d46808d4b808978820d48a0a7c78197c7b187c7c1a7c761b978808d4b80897cc10976618d46c0cd4c8087c7b1d7c7c1c7c761e7c771f97bb08d4cb0b976610977718d46707d4b707977720d487076f776fa86f946f2a821bc801d3ab09d8ab0a821bc001d84b0cdb9a0c821ad001d38a02d88a088216d801d87607db2807d34b08d49808db8c0751075d07330820643750205802483aff8210c0018214c8017c78017c797c7a027c7b03978808d4980897aa1097bb18d4ba0ad4a8087c79057c7a047c7b067c7c07979908d4a90997bb1097cc18d4cb0bd4b909979920d489027c79097c7a087c7b0a7c7c0b979908d4a90997bb1097cc18d4cb0bd4b9097c7a0d7c7b0c7c7c0e7c760f97aa08d4ba0a97cc10976618d46c0cd4ca0a97aa20d4a9097c7a117c7b107c7c127c761397aa08d4ba0a97cc10976618d46c0cd4ca0a7c7b157c7c147c76167c781797bb08d4cb0b976610978818d46808d4b808978820d48a0a7c78197c7b187c7c1a7c761b978808d4b80897cc10976618d46c0cd4c8087c7b1d7c7c1c7c761e7c771f97bb08d4cb0b976610977718d46707d4b707977720d487076f736fa86f996f2c821ad0018216d801d34c0bd8c407d8900cdbb70cd3a802d88a08d83607db2807d30908d4b808db8c075107590698073b974805d4780298a73b970805d4780c98673b97a805d478099767058218707b17a001c88707d88708821b687b19a801c8b909c88909d3b90ad8b90bdaa80b821a607b1cb001c8ca08d8a80a821c587b12b801c82c0cc8ca0ac88b0bd88b08c8a808d49808d4b709d48909d4b808989920978820d498085208db0582188800821b78d4b80882199000821a8000d4a909d49808988820d4b909979920d498087b189801837733082050205a025338ff7c787b1890017c78017b1888017c78027b1880017c78037b1878017c78047b1870017c78057b1868017c78067b1860017c78077b1858017c78087b1850017c78097b1848017c780a7b1840017c780b7b1838017c780c7b1830017c780d7b1828017c780e7b1820017c780f7b1818017c78107b1810017c78117b1808017c78127b1800017c78137b18f8007c78147b18f0007c78157b18e8007c78167b18e0007c78177b18d8007c78187b18d0007c78197b18c8007c781a7b18c0007c781b7b18b8007c781c7b18b0007c781d7b18a8007c781e7b18a0007c761f330820330750205c026c37ff78761f8218a00078781e8218a80078781d8218b00078781c8218b80078781b8218c00078781a8218c8007878198218d0007878188218d8007878178218e0007878168218e8007878158218f0007878148218f8007878138218000178781282180801787811821810017878108218180178780f8218200178780e8218280178780d8218300178780c8218380178780b8218400178780a82184801787809821850017878088218580178780782186001787806821868017878058218700178780482187801787803821880017878028218880178780182189001787833072033082050205e028436ff46171f46171e46171d46171c46171b46171a46171946171846171746171646171546171446171346171246171146171046170f46170e46170d46170c46170b46170a46170946170846170746170646170546170446170346170246170146073308403307502060021936ff8377831900033308400a09821718038218100382190803821a00036f776f886f996faa7b1af8027b19f0027b18e8027b17e0024921180349211003492108034921000348212003208318e002831a0003831b20033309ff33070a08018217980152070903821708037b179001821700037b179801801710037b178801330820821730502062029035ff7c78017c797c7a027c7b03978808d4980897aa1097bb18d4ba0ad4a8087c79057c7a047c7b067c7c07979908d4a90997bb1097cc18d4cb0bd4b909979920d489027c79097c7a087c7b0a7c7c0b979908d4a90997bb1097cc18d4cb0bd4b9097c7a0d7c7b0c7c7c0e7c780f97aa08d4ba0a97cc10978818d4c808d4a808978820d489097c78117c7a107c7b127c7c13978808d4a80897bb1097cc18d4cb0bd4b8087c7a157c7b147c7c167c761797aa08d4ba0a97cc10976618d46c0cd4ca0a97aa20d48a0a7c78197c7b187c7c1a7c761b978808d4b80897cc10976618d46c0cd4c8087c7b1d7c7c1c7c761e7c771f97bb08d4cb0b976610977718d46707d4b707977720d487076f776fa66f996f2a821cc801d3ca0bd8ac0a8218c001d8980cdbba0c821ad001d3a602d86a0a8216d801d87607db2a07d39808d4b808db8c075107e8018218508217a001c88707d88708821b488219a801c8b909c88909d3b90ad8b90bdaa80b821c408218b001c8c808c88b0bd88b0ad8c808821c388216b801c86c0cc8c808c8a808d4b70ad49808d48a0a98aa20d4b808978820d4a8088216980052083d01837733082050206402dd33ff821888016f88821990016f99821a98016faa98ab38787b1f98ab30787b1e98ab28787b1d98ab20787b1c98ab18787b1b98ab10787b1a98ab08787b19787a1878791046170b46170a4617094617074617064617054617044617034617024617014607989a38787a17989a30787a16989a28787a15989a20787a14989a18787a13989a10787a1298990878791178780898893878790f98893078790e98892878790d98882078780c8218d8019588018887018219d001c879097b18d8017b19d001d498078877018218c001c88707d887088219c801c889097b19c8017b17c0012858f7821708821888007b78208218107b78821890007b78288218187b78088218787b78308218207b7810821880007b78388218287b78189551c0fc82103803821530038216280395114003320000492150024921480249214002140700000000717b484e951840027b175802330750206602c832ff49213802492130024921200232330704951820024921280233006a0228a532ff492110024921080249210002140700000000717b484e951800027b1718023307502068028132ff4921f8014921f0014921e001323307049518e0014921e80150206a026232ff330824330750206c021632ff837833070133092433006e020a0e019511907b10687b15607b16589515708411f0828a187b1a08829b1882847b14828a08829608829c828310829210c8a609c8c404d8c40cc8c909d36900d86906da0c06c83208821c08c8bc0cd8280bc8cb0bc8680cd88c08c88b00d3a90bd8a90a8218d88406dbba06d83c02821808d3800bd8800adab20ad33c08d4b808db8a0652061f7b747b79087b7c107b70189551908210688215608216589511703200491140491138491130140700000000717b484e9518307b17483307502070028631ff49112849112049111011330704951810491118502072026c31ff3308243307502074022031ff8378330701330924330076020a0e01951160fc7b1098037b1590037b1688039515a0038411e0641682787b6858018278087b6850018278107b6848018277187b674001330820330750207802d130ff826840016f88826948016f99826a50016faa826b58016fbb787b18787a10787908787898bc387b6c3001787c1f98bc307b6c2801787c1e98bc287b6c2001787c1d98bc207b6c1801787c1c98bc187b6c1001787c1b98bc107b6c0801787c1a7b6b380198bb087b6b0001787b1998ab387b6bf800787b1798ab307b6bf000787b1698ab287b6be800787b1598ab207b6be000787b1498ab187b6bd800787b1398ab107b6bd000787b127b6a400198aa087b6ac800787a11989a387b6ac000787a0f989a307b6ab800787a0e989a287b6ab000787a0d989a207b6aa800787a0c989a187b6aa000787a0b989a107b6a9800787a0a7b6948019899087b6990007879099889387b6988007879079889307b6980007879069889287b69787879059889207b69707879049889187b69687879039889107b69607879027b6850019888087b685878780133072033082050207a027e2fff46171f46171e46171d46171c46171b46171a46171946171846171746171646171546171446171346171246171146171046170f46170e46170d46170c46170b46170a4617094617084617074617064617054617044617034617024617014607330840330750207c02132fff8377836940033308400a09826758038268500382694803826a40036f776f886f996faa7b6a18037b6910037b6808037b67000349265803492650034926480349264003482620032083680003836a4003836b20033309ff33070a08018267500382694803826840037b67489777209877207b68507b6940d49808d4870751072a0e836760020a05806770027b6738826768027b6730826760027b672833074033082050207e026a2eff7c78117c79107c7a127c7b13978808d4980897aa1097bb18d4ba0ad4a8087c79157c7a147c7b167c7c17979908d4a90997bb1097cc18d4cb0bd4b909979920d489027c79017c7a7c7b027c7c03979908d4a90997bb1097cc18d4cb0bd4b9097c7a057c7b047c7c067c780797aa08d4ba0a97cc10978818d4c808d4a808978820d498037c78197c7a187c7b1a7c7c1b978808d4a80897bb1097cc18d4cb0bd4b8087c7a1d7c7b1c7c7c1e7c791f97aa08d4ba0a97cc10979918d4c909d4a909979920d4890a7c78097c79087c7b0a7c7c0b978808d4980897bb1097cc18d4cb0bd4b8087c790d7c7b0c7c7c0e7c770f979908d4b90997cc10977718d4c707d49707977720d487076f796faa6f376f287b67187b6810d48707d49a08d478089888207b6920d49707977720d487075107062854117b6a0883a77b67580133082050208002242dff46171f46171e46171d46171c46171b46171a46171946171846171746171646171546171446171346171246171146171046170f46170e46170d46170c46170b46170a4617094617084617074617064617054617044617038300461702484617015d4607080a0b8267406f779778208269486f99989920d498088269506f99979a20987720d4a7079899207b6788027b6880027a6990024926b8024926b0024926a8024926a0023308048267580150208202702cff7b675033082082675801502084025f2cff4826c002204926f8024926f0024926e8024926e0029568800297882098882014090000000018000000d498029568a0029788209888209569e002979920d4890a82685097882098882014090000000004000000d4980b9777209877209568c002978820d4780c3308ff3309ff64270a01015207980d0a0d01330820ae87080a0d647801826a20826218826908826c1095871f7b6848d887084916508488018477e0c879097b6940d87907c8c809c8790bd38b09d88b08da9708c8a808d8a807c827077b68187b6710d487077b6b2088b801947852080628b90f33074033082050208602792bff8268106f888269186f99826a206faa826b406fbb787b1898bc38787c1f98bc30787c1e98bc28787c1d98bc20787c1c98bc18787c1b98bc10787c1a98bb08787b19787a1098ab38787b1798ab30787b1698ab28787b1598ab20787b1498ab18787b1398ab10787b1298aa08787a11787908989a38787a0f989a30787a0e989a28787a0d989a20787a0c989a18787a0b989a10787a0a9899087879097878988938787907988930787906988928787905988920787904988918787903988910787902988808826c508ec9826a4888aa2085aa01dbc90a8ec98ecbdac90bd4cc09da9a0b787801520b0628ac0e3308208267580150208802802aff7c78097c79087c7a0a7c7b0b978808d4980897aa1097bb18d4ba0ad4a8087c790d7c7a0c7c7b0e7c7c0f979908d4a90997bb1097cc18d4cb0bd4b909979920d489027c78017c7a7c7b027c7c03978808d4a80897bb1097cc18d4cb0bd4b8087c7a057c7b047c7c067c790797aa08d4ba0a97cc10979918d4c909d4a909979920d498086f836f22140a0000000001000000d3a20ad43a0a982b2088bb01943b93ab510bfa0d7c7a197c7b187c7c1a7c781b97aa08d4ba0a97cc10978818d4c808d4a8087c7a1d7c7b1c7c7c1e7c791f97aa08d4ba0a97cc10979918d4c909d4a909979920d4890a7c78117c79107c7b127c7c13978808d4980897bb1097cc18d4cb0bd4b8087c79157c7b147c7c167c7717979908d4b90997cc10977718d4c707d49707977720d487076f776fa88269286f99979a20826b306fbb98bc20d4ca0a97bb20826c386fcc98cc20d4cb0b989920d39209d3b808d49808d3a707d43707d487075207ce0a9517e08477e07b6758016471491718491710491708490783770a11826858018287187b67388287107b673082877b67288287087b6720330820330750208a02d728ff8268300178781f8268280178781e8268200178781d8268180178781c8268100178781b8268080178781a82680001787819826838017878188268f8007878178268f0007878168268e8007878158268e0007878148268d8007878138268d0007878128268c800787811826840017878108268c00078780f8268b80078780e8268b00078780d8268a80078780c8268a00078780b8268980078780a8268900078780982684801787808826888007878078268800078780682687878780582687078780482686878780382686078780282685878780182685001787833072033082050208c02f027ff46171f0246171e46171d46171c46171b46171a46171946171846171746171646171546171446171346171246171146171046170f46170e46170d46170c46170b46170a4617094617084617074617064617054617044617034617024617014607330840330750208e028427ff8377836940033308400a09826758038268500382694803826a40036f776f886f996faa7b6a407b6a18037b69487b6910037b68507b6808037b6758017b67000349265803492650034926480349264003482620032083680003836a4003836b20033309ff33070a0801826b4803826940038262580382645003826c20c8bc0c826828c898087b6828d8980ac8ac0cd3bc037b6c20d8bc0b826c30c84c0c826838c82808d84c09c8980864a9db3b09c89c07d8c709c8980c85a80185b901db3908d84709d32c0a7b6c30d82c0bdaa90b7b6738d34707d4a70785b901db790851081d0b8267487b6710038267507b670803826758017b6700038267407b67180349265803492650034926480349264003482620032083680003836a4003836b20033309ff33070a088267407b6718038267487b6710038267507b670803826758017b6700038267307b6758038267387b6750038267207b6748038267287b67400383680003836a40033309ff330b2033070a109517e08477e07b6758016471491718491710491708490783770a11826858018287187b67388287107b67408287087b674882877b6750330820330750209002d025ff8268300178781f8268280178781e8268200178781d8268180178781c8268100178781b8268080178781a826800017878198268f8007878178268f0007878168268e8007878158268e0007878148268d8007878138268d0007878128268c8007878118268c00078780f8268b80078780e8268b00078780d8268a80078780c8268a00078780b8268980078780a82689000787809826888007878078268800078780682687878780582687078780482686878780382686078780282685878780182683801787818826840017878108268480178780882685001787833072033082050209202e924ff46171f0246171e46171d46171c46171b46171a46171946171846171746171646171546171446171346171246171146171046170f46170e46170d46170c46170b46170a46170946170846170746170646170546170446170346170246170146073308403307502094027d24ff8377836940033308400a09826758038268500382694803826a40036f776f886f996faa7b6a18037b6910037b6808037b67000349265803492650034926480349264003482620032083680003836a4003836b20033309ff33070a08826758037b670001826750037b670801826748037b671001826740037b67180133074033082050209602f523ff7c78117c79107c7a127c7b13978808d4980897aa1097bb18d4ba0ad4a8087c79157c7a147c7b167c7c17979908d4a90997bb1097cc18d4cb0bd4b909979920d489027c79017c7a7c7b027c7c03979908d4a90997bb1097cc18d4cb0bd4b9097c7a057c7b047c7c067c780797aa08d4ba0a97cc10978818d4c808d4a808978820d498037c78197c7a187c7b1a7c7c1b978808d4a80897bb1097cc18d4cb0bd4b8087c7a1d7c7b1c7c7c1e7c791f97aa08d4ba0a97cc10979918d4c909d4a909979920d4890a7c78097c79087c7b0a7c7c0b978808d4980897bb1097cc18d4cb0bd4b8087c790d7c7b0c7c7c0e7c770f979908d4b90997cc10977718d4c707d49707977720d487076f7b6fa96f386f277b6730017b682001d48707d4b908d478089888207b6b2801d4b707977720d487075207df0683973308207b6758017b69f80050209802ad22ff8268386f888269406f99826a486faa826b506fbb98bc38787c1f98bc30787c1e98bc28787c1d98bc20787c1c98bc18787c1b98bc10787c1a98bc08787c19787b18787a1098ab38787b1798ab30787b1698ab28787b1598ab20787b1498ab18787b1398ab10787b1298aa08787a11787908989a38787a0f989a30787a0e989a28787a0d989a20787a0c989a18787a0b989a10787a0a989908787909787898893878790798893078790698892878790598892078790498891878790398891078790298880882692801826a2001d4a909140ae0ffffff00000000826bf800d8ab0a826b300194ba949a787801510adc058267580183772033082050209a02ad21ff826800016f88826908016f99826a10016faa826b18016fbb98bc38787c1f98bc30787c1e98bc28787c1d98bc20787c1c98bc18787c1b98bc10787c1a98bc08787c19787b18787a1098ab38787b1798ab30787b1698ab28787b1598ab20787b1498ab18787b1398ab10787b1298aa08787a11787908989a38787a0f989a30787a0e989a28787a0d989a20787a0c989a18787a0b989a10787a0a98990878790978789889387879079889307879069889287879059889207879049889187879039889107879029888087878013308408267580150209c02d420ff3a084000023a094800023a0a5000023a0b5800027b6858037b6950037b6a48037b6b4003826838017b687803826840017b687003826848017b686803826850017b686003837983674003330802330a400a07955160fc8210980382159003821688039511a003320033074033082050209e025f20ff7c78117c79107c7a127c7b13978808d4980897aa1097bb18d4ba0ad4a8087c79157c7a147c7b167c7c17979908d4a90997bb1097cc18d4cb0bd4b909979920d489027c79017c7a7c7b027c7c03979908d4a90997bb1097cc18d4cb0bd4b9097c7a057c7b047c7c067c780797aa08d4ba0a97cc10978818d4c808d4a808978820d498037c78197c7a187c7b1a7c7c1b978808d4a80897bb1097cc18d4cb0bd4b8087c7a1d7c7b1c7c7c1e7c791f97aa08d4ba0a97cc10979918d4c909d4a909979920d4890a7c78097c79087c7b0a7c7c0b978808d4980897bb1097cc18d4cb0bd4b8087c790d7c7b0c7c7c0e7c770f979908d4b90997cc10977718d4c707d49707977720d487076f7b6fa86f396f277b6758017b694801d497076489d4b808d478089888207b6b5001d4b707977720d48707520747037b69400183973308207b6738015020a002151fff46171f46171e46171d46171c46171b46171a46171946171846171746171646171546171446171346171246171146171046170f46170e46170d46170c46170b46170a461709461708461707461706461705461704461703a00046170279461701c30046070882684001958704d88708826a5801c88a09d8a90ada880a82685001c88a0ad88a08826b4801c88b0b7b6968017b6760017b6a700195678001956860017b6b78015020a202de62ff826788018262980182638001826a9001281e025020a4024b65ff3307403308205020a602421eff7c78117c79107c7a127c7b13978808d4980897aa1097bb18d4ba0ad4a8087c79157c7a147c7b167c7c17979908d4a90997bb1097cc18d4cb0bd4b909979920d489027c79017c7a7c7b027c7c03979908d4a90997bb1097cc18d4cb0bd4b9097c7a057c7b047c7c067c780797aa08d4ba0a97cc10978818d4c808d4a808978820d498037c78197c7a187c7b1a7c7c1b978808d4a80897bb1097cc18d4cb0bd4b8087c7a1d7c7b1c7c7c1e7c791f97aa08d4ba0a97cc10979918d4c909d4a909979920d4890a7c78097c79087c7b0a7c7c0b978808d4980897bb1097cc18d4cb0bd4b8087c790d7c7b0c7c7c0e7c770f979908d4b90997cc10977718d4c707d49707977720d487076f7b6fa86f396f277b6758017b694801d497076489d4b808d478089888207b6b5001d4b707977720d4870752072a017b69400183973308207b6738015020a802f81cff46171f46171e46171d46171c46171b46171a46171946171846171746171646171546171446171346171246171146171046170f46170e46170d46170c46170b46170a461709461708461707461706461705461704461703a00046170279461701c30046070882684001958704d88708826a5801c88a09d8a90ada880a82685001c88a0ad88a08826b4801c88b0b7b6928027b6720027b6a300295674002956820027b6b38025020aa02bb65ff826748028262580282634002826a50020182685801d3870bd8870c648082644001d84308dab80c82695001c99a0bd89a0a82694801c99209c9a909d8cb0ac9a909c9cb0bc90707c98708c94307d49808d4b709d48909d4b808989920978820d498085108be0000330733085020ac02da1bff837833070133090a0e014926d0014926c8014926c001140700000000717b484e9568c0017b67d80133075020ae02e91bff4926b8014926b0014926a001413307049568a0014926a8013300b20228c61bff492610024926080249260002140700000000717b484e956800027b67180233075020b002a21bff4926f8014926f0014926e001113307049568e0014926e8015020b202831bff33082433075020b402371bff83783307013309240a0e0183787b685801826738015020b6021b1bff8378330701826958013300b8020a0e01828910828a18828b088288d4ba0ad4980bd4ab0b98bb20d4a909979920d4b90952093e019511f07b10087b15647583873308205020ba02d11aff7c78017c797c7a027c7b03978808d4980897aa1097bb18d4ba0ad4a8087c79057c7a047c7b067c7c07979908d4a90997bb1097cc18d4cb0bd4b909979920d489027c79097c7a087c7b0a7c7c0b979908d4a90997bb1097cc18d4cb0bd4b9097c7a0d7c7b0c7c7c0e7c780f97aa08d4ba0a97cc10978818d4c808d4a808978820d498037c78117c7a107c7b127c7c13978808d4a80897bb1097cc18d4cb0bd4b8087c7a157c7b147c7c167c791797aa08d4ba0a97cc10979918d4c909d4a909979920d4890a7c78197c79187c7b1a7c7c1b978808d4980897bb1097cc18d4cb0bd4b8087c791d7c7b1c7c7c1e7c771f979908d4b90997cc10977718d4c707d49707977720d487076f776fa86f396f2a7b5a187b59107b58087b5782100882159511103200009511a07b10587b15507b1648828a18828b10828c088286d4ac08d4b609d48909989920d4b808978820d498087b172852081e029567207b1730d86707c87c087b18407b1c08d8c805da7705c8b5057b1b10d8b5077b1a18c8a7077b17387b1683673308203306205020bc023e19ff78761f8218306486d45808821940821b38d4b909d498089888207b1520d45909979920d4980846171e46171d46171c46171b46171a46171946171846171746171646171546171446171346171246171146171046170f46170e46170d46170c46170b46170a461709461708461707461706461705461704461703461702461701460752085d01836533082064575020be02aa18ff46171f1d46171e46171d46171c46171b46171a46171946171846171746171646171546171446171346171246171146171046170f46170e46170d46170c46170b46170a461709461708461707461706461705461704461703461702461701821820821938d498081409e0ffffff00000000d89609821a4094a9948946075109ce008357203308205020c0021c18ff46171f46171e46171d46171c7746171b6f46171a6c461719204617186f4617176f4617167446171520461714644617136e4617126f461711624617102046170f7246170e6546170d7446170c6946170b6246170a7246170961461708204617073a330c79787c06461705724617046f4617037446170263461701614607468218958760d88708821a08c88a09d8a90ada880a821810c88a0ad88a08821b18c8b808821b287bb77bb9087bba107bb8188210588215508216489511603200009511a07b10587b15507b1648828a18828b10828c088286d4ac08d4b609d48909989920d4b808978820d498087b17205208b7029567207b1738d86707c87c087b18407b1c08d8c805da7705c8b5057b1b10d8b5077b1a18c8a7077b17307b1683673308203306205020c202f016ff78761f821838d45808821940821a30d4a909d49808988820d45909979920d4980846171e46171d46171c46171b46171a46171946171846171746171646171546171446171346171246171146171046170f46170e46170d46170c46170b46170a46170946170846170746170646170546170446170346170246170146075208fb01645682153883573308207b17285020c4025b16ff46171f2446171e46171d46171c46171b46171a46171946171846171746171646171546171446171346171246171146171046170f46170e46170d46170c46170b46170a461709461708461707461706461705461704461703461702461701821830d4860a140600000000010000001408e0ffffff00000000d8850882194094987b1a3094a8460751085c018217288377203308205020c602c015ff46171d6646171c6646171b754617156b46171a734617127346170e6446170c76461709704617172046171120461708204617073a461706794617107246170a724617057246170b6f4617046f46171f6346170263461714614617016146074633056978751e9568c0821938d889084617196e787518821940949846171665821930949833067478761346170f6578750d7876035108b5008217288377403308205020c8021915ff46171f46171e46171d46171c46171b46171a46171946171846171746171646171546171446171346171246171146171046170f46170e46170d46170c46170b46170a4617094617084617074617064617054617047876034617026e461701657875821895878000d88708821a08c88a09d8a90ada880a821810c88a0ad88a08821b18c8b808821b207bb77bb9087bba107bb818821058821550821648951160320000951140f87b10b8077b15b0077b16a8079515c0078411e06416829a187b6a8801829a107b6a78829a087b6a800082997b69708289187b6988008289107b6970018289087b69800182887b68780182787b68d8018278087b68d0018278107b68c8018277187b67c00133082033075020ca020314ff8268c0016f888269c8016f99826ad0016faa826bd8016fbb787b18787a10787908787898bc387b6c6801787c1f98bc307b6c6001787c1e98bc287b6c5801787c1d98bc207b6c5001787c1c98bc187b6c4801787c1b98bc107b6c4001787c1a7b6b900198bb087b6b3801787b1998ab387b6b3001787b1798ab307b6b2801787b1698ab287b6b2001787b1598ab207b6b1801787b1498ab187b6b1001787b1398ab107b6b0801787b127b6a980198aa087b6a0001787a11989a387b6af800787a0f989a307b6af000787a0e989a287b6ae800787a0d989a207b6ae000787a0c989a187b6ad800787a0b989a107b6ad000787a0a7b69a0019899087b69c8007879099889387b69c0007879079889307b69b8007879069889287b69b0007879059889207b69a8007879049889187b69a0007879039889107b6998007879027b68a8019888087b6890007878013307203308205020cc02ab12ff46171f46171e46171d46171c46171b46171a46171946171846171746171646171546171446171346171246171146171046170f46170e46170d46170c46170b46170a461709461708461707461706461705461704461703461702461701460733084033075020ce024012ff83778369e0063308400a098267f8068268f0068269e806826ae0066f776f886f996faa7b6a98077b6990077b6888077b6780074926f8064926f0064926e8064926e006482660072083688007836ae006836b60073309ff33070a08018267f0068269e8068268e0067b67d0019777209877207b68d8017b69c801d49808d487075207062853209517e08477e07b67c0016471491718491710491708490783770a118268c0018287187b67608287107b67688287087b675082877b67583307403308205020d0027711ff7c78117c79107c7a127c7b13978808d4980897aa1097bb18d4ba0ad4a8087c79157c7a147c7b167c7c17979908d4a90997bb1097cc18d4cb0bd4b909979920d489027c79017c7a7c7b027c7c03979908d4a90997bb1097cc18d4cb0bd4b9097c7a057c7b047c7c067c780797aa08d4ba0a97cc10978818d4c808d4a808978820d498037c78197c7a187c7b1a7c7c1b978808d4a80897bb1097cc18d4cb0bd4b8087c7a1d7c7b1c7c7c1e7c791f97aa08d4ba0a97cc10979918d4c909d4a909979920d4890a7c78097c79087c7b0a7c7c0b978808d4980897bb1097cc18d4cb0bd4b8087c790d7c7b0c7c7c0e7c770f979908d4b90997cc10977718d4c707d49707977720d487076f796faa6f376f287b67407b6838d48707d49a08d478089888207b6948d49707977720d4870751070628ab24140700000000180000007b67b001140700000000040000007b67b8017b6a2883a77b67c0013308205020d2021510ff46171f46171e46171d46171c46171b46171a46171946171846171746171646171546171446171346171246171146171046170f46170e46170d46170c46170b46170a461709461708461707461706461705461704461703fe00461702b100461701354607a0000a0b8267c8016f779778208269d0016f99989920d4890a8268d8016f88978920987720d497079888207b67c8017b67e8037b6ad8017b6ae0037b68d0017a68f003492618044926100449260804492600043308048267c0015020d402500fff7b67303308208267c0015020d6023f0fff4826200420492658044926500449264804492640049568e0039788209888208269b001d498029568000497882098882095694004979920d4890a826830978820988820826bb801d48b0b97772098772095682004978820d4780c3308ff3309ff64270a010151070628661d0a0d01330820ae87080a0d647801826a48826240826928826c3895871f7b6840d887084916488488018477e0c879097b6938d87907c8c809c8790bd38b09d88b08da9708c8a808d8a807c827077b68287b6720d487077b6b3088b801947852080628f7223307403308205020d802630eff8268206f888269286f99826a306faa826b386fbb787b1898bc38787c1f98bc30787c1e98bc28787c1d98bc20787c1c98bc18787c1b98bc10787c1a98bb08787b19787a1098ab38787b1798ab30787b1698ab28787b1598ab20787b1498ab18787b1398ab10787b1298aa08787a11787908989a38787a0f989a30787a0e989a28787a0d989a20787a0c989a18787a0b989a10787a0a9899087879097878988938787907988930787906988928787905988920787904988918787903988910787902988808826c488ec9826a4088aa2085aa01dbc90a8ec98ecbdac90bd4cc09da9a0b787801520b0628e0213308208267c0015020da026a0dff7c78017c797c7a027c7b03978808d4980897aa1097bb18d4ba0ad4a8087c79057c7a047c7b067c7c07979908d4a90997bb1097cc18d4cb0bd4b909979920d489027c79097c7a087c7b0a7c7c0b979908d4a90997bb1097cc18d4cb0bd49b037c7a117c7b107c7c127c781397aa08d4ba0a97cc10978818d4c808d4a8087c7a157c7b147c7c167c791797aa08d4ba0a97cc10979918d4c909d4a909979920d489047c78197c79187c7b1a7c7c1b978808d4980897bb1097cc18d4cb0bd4b8087c791d7c7b1c7c7c1e7c7a1f979908d4b90997cc1097aa18d4ca0ad4a909979920d498086f49826a50d39a0bd89a096f88826a58d88a0a7c780ddbb90a7c790c7c7b0e7c770f978808d4980897bb10977718d4b707d48707977720d437076f776f28826b60d38b09d88b08826c68d87c0bdb980bd3c707d49707db7b0a510a0628d71c826778826870d487078268880182698000d49808d47808826788006f777b67c001826770016f777b678801826780016f777b678001826778016f777b6778017b68880052080628a11233082033075020dc02d30bff826898017878108268f80078780f8268f00078780e8268e80078780d8268e00078780c8268d80078780b8268d00078780a8268c8007878098268a0017878088268c0007878078268b8007878068268b0007878058268a8007878048268a00078780382689800787802826890007878018268a801787882689001787818826830017878178268280178781682682001787815826818017878148268100178781382680801787812826800017878118268680178781f8268600178781e8268580178781d8268500178781c8268480178781b8268400178781a826838017878193307203308205020de02e70aff46171f0246171e46171d46171c46171b46171a46171946171846171746171646171546171446171346171246171146171046170f46170e46170d46170c46170b46170a461709461708461707461706461705461704461703461702461701460733084033075020e0027b0aff83778369e0063308400a098267f8068268f0068269e806826ae0066f776f886f996faa7b6a98077b6990077b6888077b6780074926f8064926f0064926e8064926e006482660072083688007836ae006836b60073309ff33070a088267f8067b67788267f0067b6780008267e8067b67688267e0067b67703307403308205020e202f609ff7c78117c79107c7a127c7b13978808d4980897aa1097bb18d4ba0ad4a8087c79157c7a147c7b167c7c17979908d4a90997bb1097cc18d4cb0bd4b909979920d489027c79017c7a7c7b027c7c03979908d4a90997bb1097cc18d4cb0bd4b9097c7a057c7b047c7c067c780797aa08d4ba0a97cc10978818d4c808d4a808978820d498037c78197c7a187c7b1a7c7c1b978808d4a80897bb1097cc18d4cb0bd4b8087c7a1d7c7b1c7c7c1e7c791f97aa08d4ba0a97cc10979918d4c909d4a909979920d4890a7c78097c79087c7b0a7c7c0b978808d4980897bb1097cc18d4cb0bd4b8087c790d7c7b0c7c7c0e7c770f979908d4b90997cc10977718d4c707d49707977720d487076f796faa6f376f287b67587b6850d48707d49a08d478089888207b6960d49707977720d48707510706282a1d7b6a4083a77b6770013308205020e402b008ff46171f46171e46171d46171c46171b46171a46171946171846171746171646171546171446171346171246171146171046170f46170e46170d46170c46170b46170a461709461708461707461706461705461704461703fe00461702b100461701354607a0000a0b8267c8017b6708058267d8017b6700058267d0017a67100549263805492630054926280549262005330804826770015020e6021208ff7b6748330820826770015020e8020108ff482640052049267805492670054926680549266005956800059788209888208269b001d498029568200597882098882095696005979920d4890a826848978820988820826bb801d48b0b97772098772095684005978820d4780c3308ff3309ff64270a01015107062828160a0d01330820ae87080a0d647801826a60826258826c40826b5095871f7b6858d887084916608488018477e0c87c0c7b6c50d87c07c8b809c8790bd38b09d88b08da9708c8a808d8a807c827077b68407b6738d487077b6b4888b801947852080628001c3307403308205020ea022507ff8268386f888269406f99826a486faa826b506fbb787b1898bc38787c1f98bc30787c1e98bc28787c1d98bc20787c1c98bc18787c1b98bc10787c1a98bb08787b19787a1098ab38787b1798ab30787b1698ab28787b1598ab20787b1498ab18787b1398ab10787b1298aa08787a11787908989a38787a0f989a30787a0e989a28787a0d989a20787a0c989a18787a0b989a10787a0a9899087879097878988938787907988930787906988928787905988920787904988918787903988910787902988808826c608ec9826a5888aa2085aa01dbc90a8ec98ecbdac90bd4cc09da9a0b787801520b0628a21a330820826770015020ec022c06ff7c78017c797c7a027c7b03978808d4980897aa1097bb18d4ba0ad4a8087c79057c7a047c7b067c7c07979908d4a90997bb1097cc18d4cb0bd4b909979920d489027c79097c7a087c7b0a7c7c0b979908d4a90997bb1097cc18d4cb0bd49b037c7a117c7b107c7c127c781397aa08d4ba0a97cc10978818d4c808d4a8087c7a157c7b147c7c167c791797aa08d4ba0a97cc10979918d4c909d4a909979920d489047c78197c79187c7b1a7c7c1b978808d4980897bb1097cc18d4cb0bd4b8087c791d7c7b1c7c7c1e7c7a1f979908d4b90997cc1097aa18d4ca0ad4a909979920d498086f49826b68d39b0ad89b096f88826b70d88b0b7c780ddba90b64bc7c790c7c7a0e7c770f978808d4980897aa10977718d4a707d48707977720d437076f776f28826a78d38a09d88a08826b8000d87b0adb980ad3b707d49707db7a0c7b6c70013307403308205020ee02dc04ff7c78197c79187c7a1a7c7b1b978808d4980897aa1097bb18d4ba0ad4a8087c791d7c7a1c7c7b1e7c7c1f979908d4a90997bb1097cc18d4cb0bd4b909979920d489027c79117c7a107c7b127c7c13979908d4a90997bb1097cc18d4cb0bd4b9097c7a157c7b147c7c167c781797aa08d4ba0a97cc10978818d4c808d4a808978820d498037c78097c7a087c7b0a7c7c0b978808d4a80897bb1097cc18d4cb0bd4b8087c7a0d7c7b0c7c7c0e7c790f97aa08d4ba0a97cc10979918d4c909d4a909979920d4890a7c78017c797c7b027c7c03978808d4980897bb1097cc18d4cb0bd4b8087c79057c7b047c7c067c7707979908d4b90997cc10977718d4c707d49707977720d487076f786fa96f3a6f2b826770017b6880007b69787b6a707b6b6851070628ea16d49b07d4a808d48707987720d49808978820d4870751070628021883b77b6770013308205020f0028b03ff46171f46171e46171d46171c46171b46171a46171946171846171746171646171546171446171346171246171146171046170f46170e46170d46170c46170b46170a461709461708461707461706461705461704461703fe00461702b100461701354607a0000a0b8267c8017b6788058267d8017b6780058267d0017a6790054926b8054926b0054926a8054926a005330804826770015020f202ed02ff7b6760330820826770015020f402dc02ff4826c005204926f8054926f0054926e8054926e005956880059788209888208269b001d498029568a0059788209888209569e005979920d4890a826860978820988820826bb801d48b0b9777209877209568c005978820d4780c3308ff3309ff64270a01015107062803110a0d01330820ae87080a0d64780182628000826b78826c70826a6895871f7b68b001d887084926b8018488018477e0c87a0a7b6a68d87a07c8c809c8790ad38a09d88a08da9708c8b808d8b807c827077b68787b6770d487077b6a800088a8019478520806281e173307403308205020f602fc01ff8268706f888269786f99826a80006faa826b686fbb787b1898bc38787c1f98bc30787c1e98bc28787c1d98bc20787c1c98bc18787c1b98bc10787c1a98bb08787b19787a1098ab38787b1798ab30787b1698ab28787b1598ab20787b1498ab18787b1398ab10787b1298aa08787a11787908989a38787a0f989a30787a0e989a28787a0d989a20787a0c989a18787a0b989a10787a0a9899087879097878988938787907988930787906988928787905988920787904988918787903988910787902988808826cb8018ec9826ab00188aa2085aa01dbc90a8ec98ecbdac90bd4cc09da9a0b787801520b06287615330820826770015020f8020001ff7c78017c797c7a027c7b03978808d4980897aa1097bb18d4ba0ad4a8087c79057c7a047c7b067c7c07979908d4a90997bb1097cc18d4cb0bd4b909979920d489027c79097c7a087c7b0a7c7c0b979908d4a90997bb1097cc18d4cb0bd4b9097c7a0d7c7b0c7c7c0e7c780f97aa08d4ba0a97cc10978818d4c808d4a808978820d498037c78117c7a107c7b127c7c13978808d4a80897bb1097cc18d4cb0bd4b8087c7a157c7b147c7c167c791797aa08d4ba0a97cc10979918d4c909d4a909979920d4890a7c78197c79187c7b1a7c7c1b978808d4980897bb1097cc18d4cb0bd4b8087c791d7c7b1c7c7c1e7c771f979908d4b90997cc10977718d4c707d49707977720d487076f777b67b8016fa77b67b0016f377b6780006f277b67700133082033075020fa02d5fffe8268680178781f8268600178781e8268580178781d8268500178781c8268480178781b8268400178781a82683801787819826830017878178268280178781682682001787815826818017878148268100178781382680801787812826800017878118268f80078780f8268f00078780e8268e80078780d8268e00078780c8268d80078780b8268d00078780a8268c8007878098268c0007878078268b8007878068268b0007878058268a8007878048268a000787803826898007878028268900078780182689001787818826898017878108268a0017878088268a80178783307203308205020fc02e9fefe46171f0246171e46171d46171c46171b46171a46171946171846171746171646171546171446171346171246171146171046170f46170e46170d46170c46170b46170a461709461708461707461706461705461704461703461702461701460733084033075020fe027dfefe83778369e0063308400a098267f8068268f0068269e806826ae0066f776f886f996faa7b6a50017b6a98077b6958017b6990077b6860017b6888077b6768017b6780074926f8064926f0064926e8064926e006482660072083688007836ae006836b60073309ff33070a08018263f8068260f0068262e806826ae00682677001d3730bd8730c82698000d890077b673801dab70c8267b001d372087b684801d872078268b8017b6a4001d88a0482684801da8407d39008d4b808da870c510c06281613c9900ac97a087b684801d87a0782687001c9830982683801c98909c979097b6970018267b001c97207c947077b67b0018267b80182684001c978077b67b8014826600720826758017b679007826760017b678807826768017b678007826750017b6798074926f8064926f0064926e8064926e00683688007836ae006836b60073309ff33070a08826750017b679807826758017b679007826760017b678807826768017b678007826770017b67f806826748017b67f0068267b0017b67e8068267b8017b67e00683688007836ae0063309ff330b2033070a108267c8017b6708068267d8017b6700068267d0017a671006836700060a060152070628301133074033082050200003affcfe7c78117c79107c7a127c7b13978808d4980897aa1097bb18d4ba0ad4a8087c79157c7a147c7b167c7c17979908d4a90997bb1097cc18d4cb0bd4b909979920d489027c78017c797c7a027c7b03978808d4980897aa1097bb18d4ba0ad4a8087c79057c7a047c7b067c7c07979908d4a90997bb1097cc18d4cb0bd4b909979920d489037c78197c79187c7a1a7c7b1b978808d4980897aa1097bb18d4ba0ad4a8087c791d7c7a1c7c7b1e7c7c1f979908d4a90997bb1097cc18d4cb0bd4b909979920d4890c7c78097c79087c7a0a7c7b0b978808d4980897aa1097bb18d4ba0ad4a8087c790d7c7a0c7c7b0e7c770f979908d4a90997bb10977718d4b707d49707977720d487077b6760016f7a7b6c68016fc97b6370016f387b62b0016f277b6758017b684801d48707d4a908d478089888207b6a5001d4a707977720d4870751070628d00f83973308207b67b8017b6940015020020355fbfe46171f46171e46171d46171c46171b46171a46171946171846171746171646171546171446171346171246171146171046170f46170e46170d46170c46170b46170a461709461708461707461706461705461704461703c5004617025e46170198008268500182694801d498081409fcffffff00000000826a4001d89a09826b580194b9948946078800520906282c0f8267b80183770433082050200403b4fafe8269780198983878781f98983078781e98982878781d98982078781c98981878781b98981078781a989808787819787918826980017879109898387878179898307878169898287878159898207878149898187878139898107878129898087878118269880178790898983878780f98983078780e98982878780d98982078780c98981878780b98981078780a9898087878098269c00178799898387878079898307878069898287878059898207878049898187878039898107878029898087878010a0b8267c8017b6728068267d8017b6720068267d0017a673006492658064926500649264806492640063308248267b80150200603b9f9fe7b67d8018267b801330850200803a8f9fe4826600649269806ff49269006ff49268806ff49268006ff9568200697882098882014090000000008000000d498029568400697882098882095698006979920d4890a8268d80197882098882014090000000024000000d4980b97772098772095686006289a038267d8017b6760048267c8017b6768048267d0017a677004836760040a06015107930d33074033082050200a0311f9fe7c78117c79107c7a127c7b13978808d4980897aa1097bb18d4ba0ad4a8087c79157c7a147c7b167c7c17979908d4a90997bb1097cc18d4cb0bd4b909979920d489027c78017c797c7a027c7b03978808d4980897aa1097bb18d4ba0ad4a8087c79057c7a047c7b067c7c07979908d4a90997bb1097cc18d4cb0bd4b909979920d489037c78197c79187c7a1a7c7b1b978808d4980897aa1097bb18d4ba0ad4a8087c791d7c7a1c7c7b1e7c7c1f979908d4a90997bb1097cc18d4cb0bd4b909979920d4890c7c78097c79087c7a0a7c7b0b978808d4980897aa1097bb18d4ba0ad4a8087c790d7c7a0c7c7b0e7c770f979908d4a90997bb10977718d4b707d49707977720d487077b6760016f7a7b6c68016fc97b6370016f387b62b0016f277b6758017b684801d48707d4a908d478089888207b6a5001d4a707977720d487075207350c83973308207b67b8017b69400150200c03b9f7fe46171f46171e46171d46171c46171b46171a46171946171846171746171646171546171446171346171246171146171046170f46170e46170d46170c46170b46170a461709461708461707461706461705461704461703ed004617026d461701688268500182694801d498081409fcffffff00000000826a4001d89a09826b580194b994894607df005109940b8267b80183770433082050200e031bf7fe8269780198983878781f98983078781e98982878781d98982078781c98981878781b98981078781a989808787819787918826980017879109898387878179898307878169898287878159898207878149898187878139898107878129898087878118269880178790898983878780f98983078780e98982878780d98982078780c98981878780b98981078780a9898087878098269c00178799898387878079898307878069898287878059898207878049898187878039898107878029898087878010a0b8267c8017b6788048267d8017b6780048267d0017a6790044926b8044926b0044926a8044926a0043308248267b8015020100320f6fe7b67d8018267b8013308502012030ff6fe4826c0044926f804ff4926f004ff4926e804ff4926e004ff9568800497882098882014090000000008000000d498029568a0049788209888209569e004979920d4890a8268d80197882098882014090000000024000000d4980b9777209877209568c00401978820d4780c3308ff3309ff64270a0101520728040a0d3307403308205020140386f5fe826a6801787a188269b0019898387878179898307878169898287878159898207878149898187878139898107878129898087878117879108269600198983878780f98983078780e98982878780d98982078780c98981878780b98981078780a98980878780978790882697001989838787807989830787806989828787805989820787804989818787803989810787802989808787801787998a83878781f98a83078781e98a82878781d98a82078781c98a81878781b98a81078781a98a8087878198367a0060a058267a8068168b0068269a0066f77977a206f88988820d4a8087b68d8019877206f98978920d497077b67d0019888207b68c8019517e08477e07b67b8016471491718491710491708490783770a11826ab80182a782a80882a91082aa187b6ab8027b69b0027b68a8027b67a0024926d8028267c8017b67d0028267d0017b67c8029567c0029568a0028269d8017b69c00250201603ac138367c0060a058067d0067b67d0018267c8067b67c8018267c0067b67d80133074033082050201803fbf3fe7c78117c79107c7a127c7b13978808d4980897aa1097bb18d4ba0ad4a8087c79157c7a147c7b167c7c17979908d4a90997bb1097cc18d4cb0bd4b909979920d489027c79017c7a7c7b027c7c03979908d4a90997bb1097cc18d4cb0bd4b9097c7a057c7b047c7c067c780797aa08d4ba0a97cc10978818d4c808d4a808978820d498037c78197c7a187c7b1a7c7c1b978808d4a80897bb1097cc18d4cb0bd4b8087c7a1d7c7b1c7c7c1e7c791f97aa08d4ba0a97cc10979918d4c909d4a909979920d4890a7c78097c79087c7b0a7c7c0b978808d4980897bb1097cc18d4cb0bd4b8087c790d7c7b0c7c7c0e7c770f979908d4b90997cc10977718d4c707d49707977720d487076f786fa76f396f2ad4a909d4870ad49a0a98aa20d49808978820d4a80852083b07826888008e887b68b8018268c8016f88978920826ad0016faa98aa20d4a9097b69d0018269d8016f99979920988820d498087b68c80183777b67b00133082050201a038df2fe46171e46171d46171c46171b46171a46171946171846171746171646171546171446171346171246171146171046170f46170e46170d46170c46170b46170a46170946170846170746170646170546170446170346170246170146078268b80178781f3308208267b00150201c031cf2fe3a086000023a096800023a0a7000023a0b7800027b68f8067b69f0067b6ae8067b6be006826890017b681807826898017b6810078268a0017b6808078268a8017b680007826878017b683807826880017b683007826888017b6828078268c0017b6820078268d0016f887b6858078268c8016f887b6850078268d8019788207b6848074926400783798367e006330804330a200a07955140f88210b8078215b0078216a8079511c007320050201e036638ff330740330820502020035df1fe7c78117c79107c7a127c7b13978808d4980897aa1097bb18d4ba0ad4a8087c79157c7a147c7b167c7c17979908d4a90997bb1097cc18d4cb0bd4b909979920d489027c79017c7a7c7b027c7c03979908d4a90997bb1097cc18d4cb0bd4b9097c7a057c7b047c7c067c780797aa08d4ba0a97cc10978818d4c808d4a808978820d498037c78197c7a187c7b1a7c7c1b978808d4a80897bb1097cc18d4cb0bd4b8087c7a1d7c7b1c7c7c1e7c791f97aa08d4ba0a97cc10979918d4c909d4a909979920d4890a7c78097c79087c7b0a7c7c0b978808d4980897bb1097cc18d4cb0bd4b8087c790d7c7b0c7c7c0e7c770f979908d4b90997cc10977718d4c707d49707977720d487076f7b6fa86f396f277b67d8017b69c801d497076489d4b808d478089888207b6bd001d4b707977720d4870752078f047b69c00183973308207b67b8015020220313f0fe46171f46171e46171d46171c46171b46171a46171946171846171746171646171546171446171346171246171146171046170f46170e46170d46170c46170b46170a461709461708461707461706461705461704461703a00046170279461701c3004607088268c001958704d88708826ad801c88a09d8a90ada880a8268d001c88a0ad88a08826bc801c88b0b7b69e8017b67e0017b6af001956700029568e0017b6bf80150202403dc33ff826708028262180282630002826a10022816023307403308205020260347effe7c78117c79107c7a127c7b13978808d4980897aa1097bb18d4ba0ad4a8087c79157c7a147c7b167c7c17979908d4a90997bb1097cc18d4cb0bd4b909979920d489027c79017c7a7c7b027c7c03979908d4a90997bb1097cc18d4cb0bd4b9097c7a057c7b047c7c067c780797aa08d4ba0a97cc10978818d4c808d4a808978820d498037c78197c7a187c7b1a7c7c1b978808d4a80897bb1097cc18d4cb0bd4b8087c7a1d7c7b1c7c7c1e7c791f97aa08d4ba0a97cc10979918d4c909d4a909979920d4890a7c78097c79087c7b0a7c7c0b978808d4980897bb1097cc18d4cb0bd4b8087c790d7c7b0c7c7c0e7c770f979908d4b90997cc10977718d4c707d49707977720d487076f7b6fa86f396f277b67d8017b69c801d497076489d4b808d478089888207b6bd001d4b707977720d48707520779027b69c00183973308207b67b80150202803fdedfe46171f46171e46171d46171c46171b46171a46171946171846171746171646171546171446171346171246171146171046170f46170e46170d46170c46170b46170a461709461708461707461706461705461704461703a00046170279461701c3004607088268c001958704d88708826ad801c88a09d8a90ada880a8268d001c88a0ad88a08826bc801c88b0b7b6968027b6760027b6a700295678002956860027b6b780250202a03acd3826788028262980282638002826a9002018268d801d3870bd8870c64808264c001d84308dab80c8269d001c99a0bd89a0a8269c801c99209c9a909d8cb0ac9a909c9cb0bc90707c98708c94307d49808d4b709d48909d4b808989920978820d498085208540183787b68d8018267b80150202c03dbecfe83783307018269d8010a0e01d49b07d4a808d48707987720d49808978820d4870752071e0183b73308207b67d80150202e03a6ecfe46171f46171e46171d46171c46171b46171a46171946171846171746171646171546171446171346171246171146171046170f46170e46170d46170c46170b46170a461709461708461707461706461705461704461703a00046170279461701c300460708826868958704d88708826a70c88a09d8a90ada880a826878c88a0ad88a08826b8000c88b0b7b6928037b6720037b6a300395674003956820037b6b380350203003a6d4826748038262580382634003826a5003826870d3870bd8870c6480826468d84308dab80c826978c99a0bd89a0a82698000c99209c9a909d8cb0ac9a909c9cb0bc90707c98708c94307d49808d4b709d48909d4b808989920978820d4980851085601003307330833003203288cebfe33085020320386ebfe837833070133090a0e01492650024926480249264002140700000000717b484e956840027b67580233075020340395ebfe49263802492630024926200241330704956820024926280233003c032872ebfe492610034926080349260003140700000000717b484e956800037b6718033307502036034eebfe4926f8024926f0024926e002413307049568e0024926e80233003c03282bebfe492690034926880349268003140700000000717b484e956880037b67980333075020380307ebfe49267803492670034926600341330704956860034926680333003c0328e4eafe4926d0034926c8034926c003140700000000717b484e9568c0037b67d803330750203a03c0eafe4926b8034926b0034926a003113307049568a0034926a80350203c03a1eafe330824330750203e0355eafe83783307013309240a0e0183787b68d0018267d8015020400339eafe83783307018269d001330042030a0e01827810827918827a088277d4a909d4870ad49a0a98aa20d49808978820d4a8085208a7009511f07b10087b15837733082033052050204403eee9fe33026478721f46171e6546171d7446171c7046171b65330a63787a1a787a193303617873187875174617167433096f7879154617146e78751346171248461711544617104578750f46170e74787a0d46170c65330b72787b0b46170a697872097875084617073a330c79787c06787b0578790446170374787a02787301330846787882100882159511103200007c78117c79107c7a127c7b13978808d4980897aa1097bb18d4ba0ad4a8087c79157c7a147c7b167c7c17979908d4a90997bb1097cc18d4cb0bd4b909979920d498087c79017c7a7c7b027c7c03979908d4a90997bb1097cc18d4cb0bd4b9097c7a057c7b047c7c067c760797aa08d4ba0a97cc10976618d46c0cd4ca0a97aa20d4a9097c7a197c7b187c7c1a7c761b97aa08d4ba0a97cc10976618d46c0cd4ca0a7c7b1d7c7c1c7c761e7c751f97bb08d4cb0b976610975518d46505d45b0b97bb20d4ba0a7c7b097c7c087c760a7c750b97bb08d4cb0b976610975518d46505d45b0b7c7c0d7c760c7c750e7c770f97cc08d46c0c975510977718d45707d4c707977720d4b7076f766faa6f956f89d45907d46a08d47808988820d46707977720d487075207b90183a73308207b17087b19187b1a105020480324e8fe46171f46171e46171d46171c46171b46171a46171946171846171746171646171546171446171346171246171146171046170f46170e46170d46170c46170b46170a461709461708461707461706461705461703a00046170279461701c300460708d45606140500000000010000001408fcffffff00000000821910d88908821918949894684617045108170182170883770433082050204a0387e7fe821a1082191846171f2046171e46171d46171c46171b46171a46171946171846171746171646171546171446171346171246171146171046170f46170e46170d46170c46170b46170a4617094617084617074617064617054617044617034617024617019558dcd88a0894989468460751089300646b82160883672433082064a57b1b50204c03fde6fe1408bcffffff00000000d8850846171f2046171e46171d46171c46171b46171a46171946171846171746171646171546171446171346171246171146171046170f46170e46170d46170c46170b46170a46170946170846170746170646170546170446170346170246170182191894988219949846075208040083674433082050204e0376e6fe33036478731f46171e6546171d7446171c7046171b6546171a63461719633302617872184617172046171674646b33066f7876154617146e4617132046171248461711544617104546170f2046170e7446170d6346170c65330c72787c0b33056978750a787309461708204617073a46170679787c05787604461703744617026378720146074633086464b750205003e3e5fe8378330701330964330052030a0e01828918828a10828b0882887b79187b7a107b7b087b783200951120ff7b10d8007b15d0007b16c8009515e0008411f0828a18828910828b087b19107b1a08d4a90988ba01949a7b1738510a7a01828695671fd867087b1b18c8b8088488018477e0957920d87907c8780ad88a0bda770b492198007b1980007b1a88009517a000951880007b1b900050205403bf52ff8217b8008219b0008218a800821aa0007b17287b1820d48707d49a08d478089888207b1930d49707977720d487075207050183a73308207b1a5020560305e5fe8218086f888219106f99821a186faa6f6b98bc38787c1f98bc30787c1e98bc28787c1d98bc20787c1c98bc18787c1b98bc10787c1a98bc08787c19787b18787a1098ab38787b1798ab30787b1698ab28787b1598ab20787b1498ab18787b1398ab10787b1298aa08787a11787908989a38787a0f989a30787a0e989a28787a0d989a20787a0c989a18787a0b989a10787a0a989908787909787898893878790798893078790698892878790598892078790498891878790398891078790298880878780182173882187b788218287b78188218207b78088218307b7810955120ff8210d8008215d0008216c8009511e000320000491170491168491160140700000000717b484e9518607b17783307502058032fe4fe4911584911504911404133070495184049114850205a0315e4fe330824330750205c03c9e3fe837833070133092433005e030a0e014917184917104917083308607b7832005107b4007b16200a0d4911584911507b174095176095184049114850206003d3fd8217787b17388217707b17308217687b17288216600a0d019568207b1618d86809821b28c89b0ad8ba0bda990b821930c89b0bd89b09821c38c8c909d4b80cd4a909d49c0c98cc20d4b909979920d4c9095209416476987720520739838783687b1810502062031fe3fe7a16800083778318800033090a0c0181178000821620821838821930821a28821b18821c10aec70e00330a33093308330b60017b6b7b6a087b69107b6818955160ff8210980082159000821688009511a00032009511a07b10587b15507b1648828a18828b10828c088286d4ac08d4b609d48909989920d4b808978820d498087b172852081b029567207b1730d86707c87c087b18407b1c08d8c805da7705c8b5057b1b10d8b5077b1a18c8a7077b17387b168367330820330620502064035de2fe78761f8218306486d45808821940821b38d4b909d498089888207b1520d45909979920d4980846171e46171d46171c46171b46171a46171946171846171746171646171546171446171346171246171146171046170f46170e46170d46170c46170b46170a461709461708461707461706461705461704461703461702461701460752085a018365330820645750206603c9e1fe46171f1c46171e46171d46171c46171b46171a46171946171846171746171646171546171446171346171246171146171046170f46170e46170d46170c46170b46170a461709461708461707461706461705461704461703461702461701821820821938d498081409e0ffffff00000000d89609821a4094a9948946075109cb00835720330820502068033be1fe46171f46171e46171d46171c46171b6446171a654617196c461718694617176146171666330c20787c15461714724617136546171266461711734617106e46170f6146170e7246170d74787c0c46170b4846170a5446170945787c084617073a46170679461705724617046f4617037446170263461701614607468218958760d88708821a08c88a09d8a90ada880a821810c88a0ad88a08821b18c8b808821b287bb77bb9087bba107bb8188210588215508216489511603200009511a0fe7b1058017b1550017b164801951560018411e082897b19588289087b19508289107b19488288187b184082787b18388278107b18308277087b172833074033082050206a0334e0fe7c78117c79107c7a127c7b13978808d4980897aa1097bb18d4ba0ad4a8087c79157c7a147c7b167c7c17979908d4a90997bb1097cc18d4cb0bd4b909979920d489027c79017c7a7c7b027c7c03979908d4a90997bb1097cc18d4cb0bd4b9097c7a057c7b047c7c067c760797aa08d4ba0a97cc10976618d46c0cd4ca0a97aa20d4a9097c7a197c7b187c7c1a7c761b97aa08d4ba0a97cc10976618d46c0cd4ca0a7c7b1d7c7c1c7c761e7c781f97bb08d4cb0b976610978818d46808d4b808978820d48a0a7c78097c7b087c7c0a7c760b978808d4b80897cc10976618d46c0cd4c8087c7b0d7c7c0c7c760e7c770f97bb08d4cb0b976610977718d46707d4b707977720d487076f766fa77b17106f977b17206f277b17180a0b017b17088217286f778218306f88988820977920d498089877208219386f99979a20d4a7077b17c8007b18c0009899207a19d0008219108217407b17f8008217487b17f0008217507b17e800821720821818d48707d46908d47808d46707988820977720d487078218587b18e00052070d038397330850206c039ddefe7b17583307330850206e038fdefe482100018219088e98fc089a897b1938017b1930017b1928017b1920019519c000979920989920978823d498069518e00097882098882095192001979920d4890a821b5897bb2098bb2097772098772095180001978820d4780c3308ff3309ff64670a0164769517a00033007003951160ff7b1098007b1590007b1688009515a0008411e064760a0d285cfa5206199551a0fe82105801821550018216480195116001320033074033082050207203ddddfe7c78117c79107c7a127c7b13978808d4980897aa1097bb18d4ba0ad4a8087c79157c7a147c7b167c7c17979908d4a90997bb1097cc18d4cb0bd4b909979920d489027c79017c7a7c7b027c7c03979908d4a90997bb1097cc18d4cb0bd4b9097c7a057c7b047c7c067c760797aa08d4ba0a97cc10976618d46c0cd4ca0a97aa20d4a9097c7a197c7b187c7c1a7c761b97aa08d4ba0a97cc10976618d46c0cd4ca0a7c7b1d7c7c1c7c761e7c781f97bb08d4cb0b976610978818d46808d4b808978820d48a0a7c78097c7b087c7c0a7c760b978808d4b80897cc10976618d46c0cd4c8087c7b0d7c7c0c7c760e7c770f97bb08d4cb0b976610977718d46707d4b707977720d487076f766fa86f996f277b17587b1950d497076489d46808d47808988820d46707977720d48707520712017b194883973308207b1740502074039bdcfe46171f46171e46171d46171c46171b46171a46171946171846171746171646171546171446171346171246171146171046170f46170e46170d46170c46170b46170a461709461708461707461706461705461704461703a00046170279461701c300460708821848958704d88708821a58c88a09d8a90ada880ac86a0ad86a08821b50c88b0b7b19687b17607b1a70951780009518607b1b785020760337f9821788008212980082138000821a9000821858d3870bd8870c6484821948d89308dab80cc96a0bd86a0a821650c96206c9a606d8cb0ac9a606c9cb0bc94707c98708c99307d46808d4b709d48909d4b808989920978820d4980851080400837682174064685020780390dbfe837833070164690a0e330733007a0328addcfe330750207a03a7dcfe33070150207c039ddcfe9511807b10787b15707b1668951580008411f08282828308828410828818829a829b08829c1082991864767b19187b1c107b1b087b1a7b18387b14307b132895174095182064197b122050207e033107ff821750821858821940821a487b67107b68187b697b6a0895518082107882157082166895118000320049489220248414d249525252a22a2529499224499224499224499224499224499224499224494a4a43222449928490244992244992244992244929a9494a124948922449922449922425499224499224499224499224499224499224499224499254254992ac506a15aa86845aa14a232222490849922449922449922409492149881a812020202011119110111111222222412020201111912449890808110189888824494a22222249925244444488880891888888888848922449922409929024499224499224494a9224499224499224499224499224499224499224499224a94a92243111119188882889888824494a9324492249152954695249484992244992244992244992244992244992244992244992244992244992244992542529a52449122124254992144a292549922449922449922449922449922449922449922429094992244992244992244992a4144a4a92aa24499290442a499224244992244992244992922449922449922449922449922449922449922449922449aa922449562835494928a5244992244992244992a424499224499224499284529aa42495244922844891482422454424499224491211114924124591482445929024499224499224494a9224499224499224499224499224499224499224499224a94a922459a15449a14a93244902480a4952420a25699224252949491225a924495292a48888484a92244989442211111122223522224992244992440a29a59424499224499224499224499224499224294992244992148a1411519524499224499224494a1211114544001185249284144ad22425a9141191244992249188084944122291882222222222224244a422a22449922429924a24499224499224499224499224499224499224499224499224499224499224499224499224499224499224499224499224499224499224499224499224494992244992244952952445444485529a24494a922489942425499224490995524a92244992244992244992244992244992942449922449529224499a244922844811114992242222929292444488880811914a4a9224094992244992244992a4244992244992244992244992244992244992244992244992aa244992154a2d854a2925499224499224499224499224499224494a922449922485529aa4249524492284a42449924229a5244992244992244992244992244992244992244992242521922449922449922449922429859292a42a49922424914a49922421499224499224499294244992244992244992244992244992244992244992244952952449b242a9a5a0524a499224499224499224499224499224499292244992244941291a1111292949922449922449922489244992244994344992224992244992244992244992244992244992242949922422225a41299a049024955241299a244992922449aa26012449a5942449d20a4ad1888848524992482212494992448a2495248a44248924514423222922924892449244928888888888888808221240041089a2888888888888888888442391288a48242212894644524424912489248924111111111111111104100144a2282291482412894422d18848928a440091288a88484434229222228924492449248988888888888888202222222222222222229188482412892449922449229148241289449188886805a58a1489888888888888888888884422914824128944229148444444444422514444444424128944229148241289442222222222222222222222222222888888884882244992244992244952922449922449922449922449922449922449922449922449559224c95210455194244992244992244992244992244992242949922449921494a249924a922449925205a568929224492449924a09aa5292244992244992244992244992244992a4244992244992a44992a42449922491929412542925499224499224499224499224499224494a9224499224499224494a92248d8848524492248928911451092211492249244992244992244912499224499224499244922449922449922429499224499224494a104992244992244992244992144992244992942449922449222992441249221115952851a2049088181191242a22222212258848242a229148128944229148241289244992244992248944221125489224499224499248241289442291482449922449914492482249922449922492482491482422222222a2288aa8241211d18888489292244992449224259148544a10918824499224499224499224499224294a22492449928812442292449248922449922449922492244992244992248924499224499224492225499224499224490922224992244992244992244992922449922449922449922449242949224992a822a294520288888811914854444444244a414422121591482445229148241289442291482412894422914824128944229148249224128944822489442291482412894422914824128944229148241289442291481449248924922449924492241289441289442222222222a228224900492a224992489224924845448a884910455149922449922449922449922449922449929224499224898888884824121191082222929488886844449208212222229288101191482412894422912448499224499224499224499224499224499224499224499224499224499224499294524a92244924128988888844902449922411894892244992244992245941a9555045932421242549920a24419224499224499224294992244992244992244992244992244992244992244992a42a49926405a58a1454d12425294945444492549224499224499224495292529228499224899234490009204929922449923449528a244992244d92a4922449929224499288886805a5684444244424112122114422222222222249922449922490044992244992244992a4244992244992244992244992244992244992244992244992aa24499205553449492a499294244912499224499254122425499224499224499224499224499214a520922449922449922449922449124052451224499244444444444424111111111129499224494a92242d454b9224499292942449122449922449922449929224499224499224499224499224499224499224499224492aa534499224494925414a4dd2642928459394244922a9244844442411491289484444922492489294d2244952922449244992244952499094244992244992244992244992244952948248922449922449922449922449004915491011111111118988888888888888888894244992242549922649929224492249922449924a8224499224499224499224499224499214a52488244992244992244992244992000248a9224910111111111111111111111111491229899224920449922449922449922449924845922449929224498ba2284989249248228924128924924822892492482492482289249248229148228924922449924892044992244992244992244992a414142922a22a2222222244446a44244992248a4422499024499224499224494a9224499224499224499224499224499224499224499224a94a92244992948224499224499224499224091129252529492222222205490a42444424012492489204902492a4264d6a499224499224499224294982944a4992244992244992244992244992244992922449922429492a4992244892244992244992242549922449922449059024952449922449922449922449922449922449a5a42429499224910491482412894422914824922449124522914824128944229148241249824892244992244992244992a414142922a22a222222222222352222924822892449a42012894422914824128944922449a248241289442291482412894422491049922449922449922449929482224544542512894444448888d4888848224924912449244924492249244924128988881011a94824128944221191541411a524258988888888888808a42012894422914824128944229148241289442291482449922412894449104992244992244992244992948222454454454444448488484544444424419224499224499224294992244992244992244992244992244992244992244992a42a224992448908a2288a92244992244992244992244992244992242549922449220144a21291045114454992244992244992244992244992244992922449922449410821444444444444144911115112244992244992244992922449922449922449922449922449922449922449922449aa22529224112582244992244992244992240911124924492211111141444482244892244992244992242549922449922449922449922449922449922449922449925445a42449224a04499224499224499224491222249248924422222282888824419224499224499224294992244992244992244992244992244992244992244992a42a22254912512248922449922449922449921021914492241211111144448ca44892489224499224b182522322808882889088484404105110111211a4a0a44541299aa4922449499224912449922449254152922449922449922449922449922449510a2249922449922449922449922401245524414444444444928888888888888888889424499224254992264992922449224992244992940449922449922449922449922449922429521244922449922449922449922449022880a454240922222222222222222222112549222529221249224982888888884892244992244992248924499224254992464444922429498224499224499224499224499224499224499224499224499224254992244992244955922449922449922449922495a4449224892429a8524a922449922449922449922449922449929424499224495292241111519200928224920429288926494a499224494a4a9224092029489212a4a0249a24494a9224919424491249929224499244a90a2a2d499224499224499224494a9024499224499224499224494a92464444922449459224a524494a92244992888888202222499224899420499224499224499224499224494a92244992a424499224494992244992a4244992244952924892244912499224492401a4224992242995a0a449922449922449922449924409922449922449922449922449a5244944443422028828880889085250d20a4ad1888848494a124a52922449528224494a44449424494a92248924499224492a0992244992244992244992244992244952949220922449922449922449922449020820a58a24414444444444444444444444444492a424254924099224499224499224499224498a244992242549924644242922492249118948248a2489a444929444241245922425499292481489442245a2a4440445254992244992244992242549922449922449129100028844512292208aa2284992244992244992244992244992244952922449922489a244009188442492a0a2244992242549922449922449922449922449020820124589488294524a92244992244992244992244992244992942449922449a2285124914412898804211149224992244992244992244992244594204a92244992244a92244992444992244992244a9224499224499224494a224992444424804854444422492289a22250442391882491442449244992241140092449922449922449922449922291482412452289244924221228499224499292244992244994244992244992244524452411492491442249442410454549922449922449922449529224499224494a9224499244229224499440942449922449942449922489922449922449942449922449922449929444922489884800918aa4489248a2280a5444238924914824494492244912259024499224499224499224498a44228994442a494444232229224922914412894422118924a9442291884422221241241291482412898888880811914a92444a9224492589442291200882200882200882200882200882200882200882200882888888888888888888888888888888884492244992244992244992244992244992244992244992244992242549922449922449128944229188441289442291884412894422918844128944229188442422222222222222222222222222222222499224499224499224499224499224499224499224499224494992244992244952295525499224499224128944444444521111514404105120222422900225d188882425499244922425491249524924124522911449924849201291244992244992244992244992242952025192244992245192244992244a92244992245192244992248924224992922849922449241240121591449248a2a80215d1482422491291249124499244092449922449922449922449922201241289449148224992409592244992244992244992244992244952922449124829a524499224499224499224499224499224499224499224258a442211118d888848498a484412491249248a4489449148248a442251241289229148148944a248a224d54849249144124992244444444444444444444444440411111149124992121188480091a82449922449922449922449922449922449922449922449922449499224499224495295244992481148a28a22914814291089249248228924924822914412492491441249249248228924924822894412492491441249a4249024499224499224499224494a8122454454454444448488488d8824891111115144444412489224499224499224499224499224499224499224499224495292244992244992542595244992244a9444a22449942849a224492249922489228a28a2284922818808111122840811111121224284081121128944225144444444444444444444444444444444444444444444444422918888888888484424128944444444449088882425491249922449922429118888888808218448224922890490248d88242925919248a440241289442291482412894422914814894422914824128944229148240924499224499224499224499252a048111145511411111111212252918844444444444444442415111111111111212222224992942425128944444488885492284915452291488148241289442291482412894422914824128944229148241289442251128824499224499224499224494a812245441445514444444484884845444444444444444424154544442451922a8a442291045292244992244992244992244992244992244992244992244992244992244992244551141111111111111111111111111111111111111111114424224992282222924892442292489224491251a22412251145208410222222222222a228121151248a4422512422224a024992244992244992a4244992244992244992244992244992244992244992244992aa889424924494082449922449922449922449889048224924918888882022224920499224499224499294244992244992244992244992244992244992244992244952159192449288128124499224499224499224091112492489241211111144442409244992244992244992922449922449922449922449922449922449922449922449aa225292481251229024499224499224499224214222892491442222228288889114492491244992244932888800220a4484440452a0a445044a4493a4924492248988884844245094a224499224499224499224499224499224494992244992a4404a292549922449922449922449922449922449922449922429058a34922449129148924400919492524a29494952929494a424499224922449922489449292244992244912499224294922499224114922124992244992244912499244114551645224492422222222224244a4264952119148241228a5942449922449922449922449922449922429499224499248221149924844529224499224499244999244444423222225495292404a92244992244992244992244992244992244992244992244992244992244992a4544a91482422222222222222499124494a24128988881011a914918824499224499224499292244992244992a49212254992244922490a542925499224499224499224499224499224494a92244992242949928888284900498124920452a0249a2449494a920a922429499222222249921225499224499224491211111144442449922451124829a5244992244992244992244992244992244949922449922425491211118d2480448124920452a0249aa424254992242549922454812a2935498a244992888848922449922449929054a0529224491111d1240124059248124881926844442449499224492249929212484a92244992244992244992244992244992244992244992244992244992244992a44a4992244992284992244992244992244992244952928888682401240a249124900225d1242549924892a49212a84a9224499224499224494a922449922449922449d28888244992248a2490922449922449922449922449922449922449922449922449922449922449924492aa8888888888889424494444242211111149922449924892442449922492285320254992244992244992244992a42449922449922449922449922449922449922449552491441249924881889424499224499224499224499224499224499224499224499224499224499224495544922449924892244912492249924812499224491291442449122550241289442291482412894422914824128944229148241289442291144824128944229148241289442291482412894422914824128944225112489224499224499224499224a540912222aa222222224244a44644444424819424499224499224499224499224499224499224499224499224499224499224495524914412499248248924492249124992244944094451942449922449922449929424499224499224492289442491442292488a244912492222a2111140448188908888880820a24044484420054aa2499224a9a42449922449922425499224294992a424012405924812488192684444a4229148a4401445519212492491441249241249249144124924914824914412492491442291441249922449924892049224499224499224499224492950a48888aa888888881011a911912449228a4422492049922449922449929424499224499224499224499224499224499224499224495295244992242912489224499224499224499210915252929224222222128124022122229200124924490248124952a3494d9224499224499224494a92404a2925499224499224499224499224499224494a92244992a424a92449128124499224499224495292244992244992540049529124499224499224499224499224499224959292a4244992441225a922494a920291482412894422914824128944229148241289442291489224491225814892244992244992244992a414285244445522918888880811911a11912449922449529224499224492291884844448488482512898844229188482a899254912449498148241289442291482412894422914824128944224992244924128992402449922449922449922449520a142922a22a2222222244442a2222222209244992244992244992922449922449922449922449922449922449922449922449aa22922492448908a4945292244992244992244992244992244992a424499224494402884425220944511425499224499224499224499224499224494a922449922411082184888888888888222922224a024992244992244992a4244992244992244992244992244992244992244992244992aa8894249244940824499224499224499224498890482249249188888840444402492049922449922449929424499224499224499224499224499224499224499224495215919244928812812449922449922449922409111249248924121111118888184991441249922449922456a0d4880820a2404448444444041051202224229002252d2250229aa42449124995404a92244992244992244992244992244992244992244992244992244992244992a42a49294d92242549924492244992249504929224499224499224499224499224498a52209224499224499224499224491240524512481211111111111111111111914444444a92244992922449932449499224912449922449258124499224499224499224499224499214a52410499224499224499224499224010490948a24818888888888888888888888489224922225914492409224499224499224499224a222499224494992a41111911249a2241289a24824122910455194a444124924914412894412492491441249241249249144124924914824914412492491442291249024499224499224499224494a8122454454454444448488488d884822922489925491244949024992244992244992a4244992244992244992244992244992244992244992244992aa2449922409200288140924499224499224499224490811458992284922222222221281240221222292482491248924912435695293244992244992244992922490524a4992244992244992244992244992244992922449922429492a4992442025499224499224499224499224499224499224499224499224499224252949922449925492244992241149145144114524291089442291482412894422914824124522914824128944229148241249029124499224499224499224492950a48888aa888888881011a948442492049224499224499224494992244992244992244992244992244992244992244992245549922449922281244992244992244992240921a28888888888442089408888882412492449224924494d9ad4244992244992244992a42409a4945292244992244992244992244992244992a424499224494a924a9224114849922449922449922449922449922449922449922449922449922449494a929224499254924892441248922449922449922449922449922449922449922449922449529224499224499254452449922449522490244992244992244992242144141111111191082411081111914422892449248924a949931a49128924499224499248491248294a499224499224499224499224499224499292244992245124a9244912819424499224499224499224499224499224499224499224499224499224499224495114450a4422914824128944229148241289442291482412894422914824128992402449922449922449922449520a142922a22a22222222222244446a44442491482412914892248944228948222211222222222222222215111111111111111191544444443449024992244992244992a4244992244992244992244992244992244992244992244992288aa288248924498908244992244992244992244988109100225191441288244992244912499224499224922449922449942449922449111111111189404481082184480248249144124092484444443492409224499224499224294992244992244992244992244992244992244992244992248aa22822492249948840922449922449922449928488880410898a88241049922449922492244992244924499224499228499224499222222222221281880211420891049048228924802431496a94042291244992244922499224499244922449922425499224491245442989944422899254519288888888888808a2888888249024499224499224494a9224499224499224499224499224499224499224499224a94a922411459428892849140924499224499224499224495224110821848888888888888888888828a2884414491111512009244992244992244992922449922449922449922449922449922449922449922449aa2252924812512290244992244992244992242142228924914422222202111149024992244992244992a4244992244992244992244992244992244992244992244992aa8894249244940824499224499224499224498890482249249188888820226224451249244992244992282250a24992244a049224499224499224499224444892244912898888082222929424492449922449925811054a8d8800220a448444444444001105224222222222808802112111111111404481889088400a94b48840896892922449249504928888244922894444229144124912494a699224499224499224294992244992244992244992244992244992244992244992a42a499244491248922449922449922449122224010490a4124902492449922449922449922449925451920a04904892244992244992244992245599049288888824a224222222229224119144242950124d52928a8888244992122549922489888808444424499224510aa4944a922449922449922449922449922449929424499224492a499288886892009202492409a4404934492a529224419224699224499224499294540251d4489224ab2c4944449424494a92248924499224492a092425499224499224499224499224499214a5402449922449922449922449922480a48a249024111111494444444422221111119192244992a42449d28888484992a4244912489224499224499224254992244992244992244992244992244992244992244992544a69524a9294442492482492244992880aa40291282222922492489224912455444444a49288882809244992244992244992922449922449922449922449922449922449922449922449aa92942449a42490244992244992244992242142922449922489248888485292244992244992244b8152451448204922252949494a929440922425492200"
				},
				"methodIdentifiers": {
					"createService(string,uint256,string,address,string)": "a269eeb4",
					"listServices()": "de1c5488",
					"resolveDispute(bytes32,uint256,bool)": "faf0bbbf",
					"serviceIds(uint256)": "69d26933",
					"services(bytes32)": "0a790eb7",
					"stakes(bytes32)": "8fee6407",
					"topUpStake(bytes32)": "eaa3668f",
					"withdrawStake(bytes32,uint256)": "19dc5716"
				}
			},
			"hash": "2a1e02d4cb8bf54c1d7364c7b927de41188d3df0e5e07675d21c32ae088b2c81",
			"factoryDependencies": {
				"f9e96d0a8f1b951989586b46be771709505f61e51ea89525fb413a47f8410a35": "EscroDot.sol:ServiceEscrow"
			}
		}
	}
}