{
	"EscroDot.sol": {
		"ServiceEscrow": {
			"abi": [
				{
					"inputs": [
						{
							"internalType": "address",
							"name": "_factory",
							"type": "address"
						},
						{
							"internalType": "bytes32",
							"name": "_serviceId",
							"type": "bytes32"
						},
						{
							"internalType": "address",
							"name": "_provider",
							"type": "address"
						},
						{
							"internalType": "uint256",
							"name": "_price",
							"type": "uint256"
						},
						{
							"internalType": "string",
							"name": "_gateway",
							"type": "string"
						},
						{
							"internalType": "address",
							"name": "_gatewaySigner",
							"type": "address"
						},
						{
							"internalType": "string",
							"name": "_description",
							"type": "string"
						}
					],
					"stateMutability": "nonpayable",
					"type": "constructor"
				},
				{
					"inputs": [],
					"name": "ECDSAInvalidSignature",
					"type": "error"
				},
				{
					"inputs": [
						{
							"internalType": "uint256",
							"name": "length",
							"type": "uint256"
						}
					],
					"name": "ECDSAInvalidSignatureLength",
					"type": "error"
				},
				{
					"inputs": [
						{
							"internalType": "bytes32",
							"name": "s",
							"type": "bytes32"
						}
					],
					"name": "ECDSAInvalidSignatureS",
					"type": "error"
				},
				{
					"inputs": [
						{
							"internalType": "address",
							"name": "sender",
							"type": "address"
						},
						{
							"internalType": "string[]",
							"name": "urls",
							"type": "string[]"
						},
						{
							"internalType": "bytes",
							"name": "callData",
							"type": "bytes"
						},
						{
							"internalType": "bytes4",
							"name": "callbackFunction",
							"type": "bytes4"
						},
						{
							"internalType": "bytes",
							"name": "extraData",
							"type": "bytes"
						}
					],
					"name": "OffchainLookup",
					"type": "error"
				},
				{
					"anonymous": false,
					"inputs": [
						{
							"indexed": true,
							"internalType": "uint256",
							"name": "purchaseId",
							"type": "uint256"
						}
					],
					"name": "DisputeRaised",
					"type": "event"
				},
				{
					"anonymous": false,
					"inputs": [
						{
							"indexed": true,
							"internalType": "uint256",
							"name": "purchaseId",
							"type": "uint256"
						},
						{
							"indexed": false,
							"internalType": "bytes32",
							"name": "deliverableHash",
							"type": "bytes32"
						}
					],
					"name": "OffchainDelivery",
					"type": "event"
				},
				{
					"anonymous": false,
					"inputs": [
						{
							"indexed": true,
							"internalType": "uint256",
							"name": "purchaseId",
							"type": "uint256"
						}
					],
					"name": "PaymentClaimed",
					"type": "event"
				},
				{
					"anonymous": false,
					"inputs": [
						{
							"indexed": true,
							"internalType": "uint256",
							"name": "purchaseId",
							"type": "uint256"
						},
						{
							"indexed": true,
							"internalType": "address",
							"name": "buyer",
							"type": "address"
						},
						{
							"indexed": false,
							"internalType": "uint256",
							"name": "amount",
							"type": "uint256"
						}
					],
					"name": "ServicePurchased",
					"type": "event"
				},
				{
					"inputs": [],
					"name": "buyService",
					"outputs": [
						{
							"internalType": "uint256",
							"name": "purchaseId",
							"type": "uint256"
						}
					],
					"stateMutability": "payable",
					"type": "function"
				},
				{
					"inputs": [
						{
							"internalType": "bytes",
							"name": "response",
							"type": "bytes"
						},
						{
							"internalType": "bytes",
							"name": "extraData",
							"type": "bytes"
						}
					],
					"name": "ccipCallback",
					"outputs": [
						{
							"internalType": "bytes",
							"name": "",
							"type": "bytes"
						}
					],
					"stateMutability": "view",
					"type": "function"
				},
				{
					"inputs": [
						{
							"internalType": "uint256",
							"name": "purchaseId",
							"type": "uint256"
						},
						{
							"internalType": "bytes",
							"name": "userInput",
							"type": "bytes"
						}
					],
					"name": "checkDelivery",
					"outputs": [],
					"stateMutability": "view",
					"type": "function"
				},
				{
					"inputs": [
						{
							"internalType": "uint256",
							"name": "purchaseId",
							"type": "uint256"
						},
						{
							"internalType": "bytes32",
							"name": "deliverableHash",
							"type": "bytes32"
						}
					],
					"name": "claimDigest",
					"outputs": [
						{
							"internalType": "bytes32",
							"name": "",
							"type": "bytes32"
						}
					],
					"stateMutability": "view",
					"type": "function"
				},
				{
					"inputs": [
						{
							"internalType": "uint256",
							"name": "purchaseId",
							"type": "uint256"
						},
						{
							"internalType": "bytes32",
							"name": "deliverableHash",
							"type": "bytes32"
						},
						{
							"internalType": "bytes",
							"name": "buyerSignature",
							"type": "bytes"
						}
					],
					"name": "claimPayment",
					"outputs": [],
					"stateMutability": "nonpayable",
					"type": "function"
				},
				{
					"inputs": [],
					"name": "description",
					"outputs": [
						{
							"internalType": "string",
							"name": "",
							"type": "string"
						}
					],
					"stateMutability": "view",
					"type": "function"
				},
				{
					"inputs": [],
					"name": "factory",
					"outputs": [
						{
							"internalType": "address",
							"name": "",
							"type": "address"
						}
					],
					"stateMutability": "view",
					"type": "function"
				},
				{
					"inputs": [
						{
							"internalType": "uint256",
							"name": "purchaseId",
							"type": "uint256"
						}
					],
					"name": "factoryRefundBuyer",
					"outputs": [],
					"stateMutability": "nonpayable",
					"type": "function"
				},
				{
					"inputs": [
						{
							"internalType": "uint256",
							"name": "purchaseId",
							"type": "uint256"
						}
					],
					"name": "factoryReleaseToProvider",
					"outputs": [],
					"stateMutability": "nonpayable",
					"type": "function"
				},
				{
					"inputs": [],
					"name": "gateway",
					"outputs": [
						{
							"internalType": "string",
							"name": "",
							"type": "string"
						}
					],
					"stateMutability": "view",
					"type": "function"
				},
				{
					"inputs": [],
					"name": "gatewaySigner",
					"outputs": [
						{
							"internalType": "address",
							"name": "",
							"type": "address"
						}
					],
					"stateMutability": "view",
					"type": "function"
				},
				{
					"inputs": [],
					"name": "nextPurchaseId",
					"outputs": [
						{
							"internalType": "uint256",
							"name": "",
							"type": "uint256"
						}
					],
					"stateMutability": "view",
					"type": "function"
				},
				{
					"inputs": [],
					"name": "price",
					"outputs": [
						{
							"internalType": "uint256",
							"name": "",
							"type": "uint256"
						}
					],
					"stateMutability": "view",
					"type": "function"
				},
				{
					"inputs": [],
					"name": "provider",
					"outputs": [
						{
							"internalType": "address",
							"name": "",
							"type": "address"
						}
					],
					"stateMutability": "view",
					"type": "function"
				},
				{
					"inputs": [
						{
							"internalType": "uint256",
							"name": "",
							"type": "uint256"
						}
					],
					"name": "purchases",
					"outputs": [
						{
							"internalType": "address",
							"name": "buyer",
							"type": "address"
						},
						{
							"internalType": "uint256",
							"name": "amount",
							"type": "uint256"
						},
						{
							"internalType": "bool",
							"name": "claimed",
							"type": "bool"
						},
						{
							"internalType": "bool",
							"name": "disputed",
							"type": "bool"
						},
						{
							"internalType": "bool",
							"name": "resolved",
							"type": "bool"
						}
					],
					"stateMutability": "view",
					"type": "function"
				},
				{
					"inputs": [
						{
							"internalType": "uint256",
							"name": "purchaseId",
							"type": "uint256"
						}
					],
					"name": "raiseDispute",
					"outputs": [],
					"stateMutability": "nonpayable",
					"type": "function"
				},
				{
					"inputs": [],
					"name": "serviceId",
					"outputs": [
						{
							"internalType": "bytes32",
							"name": "",
							"type": "bytes32"
						}
					],
					"stateMutability": "view",
					"type": "function"
				},
				{
					"inputs": [
						{
							"internalType": "string",
							"name": "newDescription",
							"type": "string"
						}
					],
					"name": "updateDescription",
					"outputs": [],
					"stateMutability": "nonpayable",
					"type": "function"
				},
				{
					"inputs": [
						{
							"internalType": "string",
							"name": "newGateway",
							"type": "string"
						}
					],
					"name": "updateGateway",
					"outputs": [],
					"stateMutability": "nonpayable",
					"type": "function"
				},
				{
					"inputs": [
						{
							"internalType": "address",
							"name": "newSigner",
							"type": "address"
						}
					],
					"name": "updateGatewaySigner",
					"outputs": [],
					"stateMutability": "nonpayable",
					"type": "function"
				},
				{
					"stateMutability": "payable",
					"type": "receive"
				}
			],
			"devdoc": {
				"author": "Mike Liu (mikelxc) /**",
				"errors": {
					"ECDSAInvalidSignature()": [
						{
							"details": "The signature derives the `address(0)`."
						}
					],
					"ECDSAInvalidSignatureLength(uint256)": [
						{
							"details": "The signature has an invalid length."
						}
					],
					"ECDSAInvalidSignatureS(bytes32)": [
						{
							"details": "The signature has an S value that is in the upper half order."
						}
					],
					"OffchainLookup(address,string[],bytes,bytes4,bytes)": [
						{
							"details": "See EIP‑3668 for parameter semantics."
						}
					]
				},
				"kind": "dev",
				"methods": {
					"buyService()": {
						"returns": {
							"purchaseId": " A unique identifier for this purchase."
						}
					},
					"ccipCallback(bytes,bytes)": {
						"details": "No state change other than the event emission so the provider can later claim."
					},
					"checkDelivery(uint256,bytes)": {
						"params": {
							"purchaseId": "Identifier of the purchase to query.",
							"userInput": "Arbitrary payload forwarded to the gateway (e.g., API key, prompt). The caller MUST handle the OffchainLookup error, perform the HTTPS request(s) to the provided `gateway`, then call `ccipCallback` with the ABI‑encoded response."
						}
					},
					"claimDigest(uint256,bytes32)": {
						"details": "Compute the digest that a buyer must sign to authorise payment."
					},
					"claimPayment(uint256,bytes32,bytes)": {
						"params": {
							"buyerSignature": "ECDSA signature of the buyer over the claim digest.",
							"deliverableHash": "Hash returned by the CCIP gateway (buyer has inspected).",
							"purchaseId": "Identifier of the purchase to claim."
						}
					},
					"constructor": {
						"params": {
							"_description": "Short text or IPFS CID describing the service.",
							"_factory": "Address of the EscroDotFactory contract.",
							"_gateway": "HTTPS/IPFS URL implementing the CCIP‑Read spec.",
							"_gatewaySigner": "Address of the CCIP‑Read gateway signer.",
							"_price": "Fixed price per purchase (wei).",
							"_provider": "Owner of the service.",
							"_serviceId": "keccak256 hash of the chosen service name."
						}
					},
					"factoryRefundBuyer(uint256)": {
						"details": "Refunds the buyer – callable only by the factory after successful arbitration."
					},
					"factoryReleaseToProvider(uint256)": {
						"details": "Releases funds to the provider – callable only by the factory."
					}
				},
				"stateVariables": {
					"nextPurchaseId": {
						"details": "Incremental identifier for purchases."
					}
				},
				"title": "EscroDot – minimal escrow & staking framework for AI‑agent servicesEscroDot – AI‑Agent Escrow (v0.4 – CCIP‑Read + Buyer‑Signed Claim + Open Arbiter) • Off‑chain delivery (ERC‑3668): `checkDelivery()` triggers CCIP‑Read. Gateway returns the   AI result. The buyer inspects the output off‑chain and, if satisfied, signs a message that   lets the provider claim funds. • Buyer‑signed claim: `claimPayment()` is called by the provider, supplying the buyer's   signature. Contract verifies and releases payment. • Open Dispute Resolution: Any address can become an arbiter – it just needs to deposit a   stake ≥ purchase value when calling `resolveDispute()`. (For brevity we return the stake in   the same tx; extend with lock‑and‑slash logic in later versions.)",
				"version": 1
			},
			"userdoc": {
				"events": {
					"DisputeRaised(uint256)": {
						"notice": "Buyer flagged the purchase for dispute."
					},
					"OffchainDelivery(uint256,bytes32)": {
						"notice": "Off‑chain gateway supplied a deliverable hash for a purchase."
					},
					"PaymentClaimed(uint256)": {
						"notice": "Provider claimed the locked payment (buyer signature verified)."
					},
					"ServicePurchased(uint256,address,uint256)": {
						"notice": "Buyer successfully paid for the service."
					}
				},
				"kind": "user",
				"methods": {
					"buyService()": {
						"notice": "Purchase the service by locking `price` ETH in this contract."
					},
					"ccipCallback(bytes,bytes)": {
						"notice": "CCIP‑Read callback that simply logs the deliverable hash off‑chain."
					},
					"checkDelivery(uint256,bytes)": {
						"notice": "Trigger an ERC‑3668 OffchainLookup so that a gateway can return the deliverable."
					},
					"claimPayment(uint256,bytes32,bytes)": {
						"notice": "Provider claims funds by presenting a buyer‑signed message."
					},
					"description()": {
						"notice": "Human‑readable description or IPFS CID (mutable by provider)."
					},
					"factory()": {
						"notice": "Address of the factory that deployed this contract."
					},
					"gateway()": {
						"notice": "CCIP‑Read gateway URL (mutable by provider)."
					},
					"gatewaySigner()": {
						"notice": "CCIP‑Read gateway signer address (mutable by provider)."
					},
					"price()": {
						"notice": "Fixed price (in wei) per purchase."
					},
					"provider()": {
						"notice": "Wallet address that owns the service and receives payments."
					},
					"serviceId()": {
						"notice": "Deterministic service identifier = keccak256(serviceName)."
					},
					"updateDescription(string)": {
						"notice": "Update the human‑readable description."
					},
					"updateGateway(string)": {
						"notice": "Update the CCIP gateway URL."
					},
					"updateGatewaySigner(address)": {
						"notice": "Update the CCIP gateway signer address."
					}
				},
				"version": 1
			},
			"storageLayout": {
				"storage": [
					{
						"astId": 370,
						"contract": "EscroDot.sol:ServiceEscrow",
						"label": "description",
						"offset": 0,
						"slot": "0",
						"type": "t_string_storage"
					},
					{
						"astId": 373,
						"contract": "EscroDot.sol:ServiceEscrow",
						"label": "gateway",
						"offset": 0,
						"slot": "1",
						"type": "t_string_storage"
					},
					{
						"astId": 376,
						"contract": "EscroDot.sol:ServiceEscrow",
						"label": "gatewaySigner",
						"offset": 0,
						"slot": "2",
						"type": "t_address"
					},
					{
						"astId": 379,
						"contract": "EscroDot.sol:ServiceEscrow",
						"label": "nextPurchaseId",
						"offset": 0,
						"slot": "3",
						"type": "t_uint256"
					},
					{
						"astId": 396,
						"contract": "EscroDot.sol:ServiceEscrow",
						"label": "purchases",
						"offset": 0,
						"slot": "4",
						"type": "t_mapping(t_uint256,t_struct(Purchase)391_storage)"
					},
					{
						"astId": 465,
						"contract": "EscroDot.sol:ServiceEscrow",
						"label": "_locked",
						"offset": 0,
						"slot": "5",
						"type": "t_uint256"
					}
				],
				"types": {
					"t_address": {
						"encoding": "inplace",
						"label": "address",
						"numberOfBytes": "20"
					},
					"t_bool": {
						"encoding": "inplace",
						"label": "bool",
						"numberOfBytes": "1"
					},
					"t_mapping(t_uint256,t_struct(Purchase)391_storage)": {
						"encoding": "mapping",
						"key": "t_uint256",
						"label": "mapping(uint256 => struct ServiceEscrow.Purchase)",
						"numberOfBytes": "32",
						"value": "t_struct(Purchase)391_storage"
					},
					"t_string_storage": {
						"encoding": "bytes",
						"label": "string",
						"numberOfBytes": "32"
					},
					"t_struct(Purchase)391_storage": {
						"encoding": "inplace",
						"label": "struct ServiceEscrow.Purchase",
						"members": [
							{
								"astId": 382,
								"contract": "EscroDot.sol:ServiceEscrow",
								"label": "buyer",
								"offset": 0,
								"slot": "0",
								"type": "t_address"
							},
							{
								"astId": 384,
								"contract": "EscroDot.sol:ServiceEscrow",
								"label": "amount",
								"offset": 0,
								"slot": "1",
								"type": "t_uint256"
							},
							{
								"astId": 386,
								"contract": "EscroDot.sol:ServiceEscrow",
								"label": "claimed",
								"offset": 0,
								"slot": "2",
								"type": "t_bool"
							},
							{
								"astId": 388,
								"contract": "EscroDot.sol:ServiceEscrow",
								"label": "disputed",
								"offset": 1,
								"slot": "2",
								"type": "t_bool"
							},
							{
								"astId": 390,
								"contract": "EscroDot.sol:ServiceEscrow",
								"label": "resolved",
								"offset": 2,
								"slot": "2",
								"type": "t_bool"
							}
						],
						"numberOfBytes": "96"
					},
					"t_uint256": {
						"encoding": "inplace",
						"label": "uint256",
						"numberOfBytes": "32"
					}
				}
			},
			"evm": {
				"assembly": "// RO data = 0/0 bytes\n// RW data = 116/65792 bytes\n// Stack size = 16384 bytes\n\n// Instructions = 38168\n// Code size = 121276 bytes\n\n      : @0 (gas: 2)\n     0: i32 a2 = a0 >> 0x10\n     3: jump @6 if a2 != 0\n      : @1 (gas: 2)\n     6: a2 = 0x10001\n    11: jump @6 if a1 >=u a2\n      : @2 (gas: 4)\n    14: a1 = a1 + a0\n    17: i32 a1 = a1 + 0x1f\n    20: a1 = a1 & 0xffffffffffffffe0\n    23: jump @7 if a1 >=u 65537\n      : @3 (gas: 2)\n    29: a3 = i32 [0x20074]\n    34: jump @5 if a3 >=u a1\n      : @4 (gas: 4)\n    37: u32 [0x20074] = a1\n    42: a1 = 0x20080\n    47: a0 = a0 + a1\n    50: ret\n      : @5 (gas: 3)\n    52: a1 = 0x20080\n    57: a0 = a0 + a1\n    60: ret\n      : @6 (gas: 1)\n    62: trap\n      : @7 (gas: 1)\n    63: trap\n      : @8 (gas: 1)\n    64: jump @22 if a0 == a1\n      : @9 (gas: 9)\n    67: a3 = a1 << 0x20\n    70: a3 = a3 >> 0x20\n    73: a4 = a0 << 0x20\n    76: a4 = a4 >> 0x20\n    79: a4 = a4 + a2\n    82: a3 = a3 - a4\n    85: a4 = a2 << 0x1\n    88: a4 = -a4\n    90: jump @15 if a4 >=u a3\n      : @10 (gas: 1)\n    93: jump @19 if a0 >=u a1\n      : @11 (gas: 1)\n    96: jump @22 if a2 == 0\n      : @12 (gas: 3)\n    99: a2 = a2 + a0\n   102: a3 = a0\n   104: fallthrough\n      : @13 (gas: 6)\n   105: a4 = u8 [a1]\n   107: a1 = a1 + 0x1\n   110: a5 = a3 + 0x1\n   113: u8 [a3] = a4\n   115: a3 = a5\n   117: jump @13 if a5 != a2\n      : @14 (gas: 1)\n   120: jump @22\n      : @15 (gas: 1)\n   122: jump @22 if a2 == 0\n      : @16 (gas: 3)\n   125: a2 = a2 + a0\n   128: a3 = a0\n   130: fallthrough\n      : @17 (gas: 6)\n   131: a4 = u8 [a1]\n   133: a1 = a1 + 0x1\n   136: a5 = a3 + 0x1\n   139: u8 [a3] = a4\n   141: a3 = a5\n   143: jump @17 if a5 != a2\n      : @18 (gas: 1)\n   146: jump @22\n      : @19 (gas: 1)\n   148: jump @22 if a2 == 0\n      : @20 (gas: 2)\n   151: i32 a3 = a2 + 0xffffffffffffffff\n   154: fallthrough\n      : @21 (gas: 7)\n   155: a4 = a1 + a3\n   158: a4 = u8 [a4]\n   160: a2 = a2 + 0xffffffffffffffff\n   163: a5 = a0 + a3\n   166: u8 [a5] = a4\n   168: i32 a3 = a3 + 0xffffffffffffffff\n   171: jump @21 if a2 != 0\n      : @22 (gas: 1)\n   174: ret\n      : @23 (gas: 13)\n   176: sp = sp + 0xffffffffffffffd8\n   179: u64 [sp + 0x20] = ra\n   182: u64 [sp + 0x18] = s0\n   185: u64 [sp + 0x10] = s1\n   188: a2 = u64 [a1]\n   190: u64 [sp + 0x8] = a2\n   193: a2 = u64 [a1 + 0x8]\n   196: u64 [sp] = a2\n   198: s0 = u64 [a1 + 0x10]\n   201: s1 = u64 [a1 + 0x18]\n   204: i32 a0 = a0 + 0\n   206: a1 = 0x20\n   209: ra = 2, jump @0\n      : @24 [@dyn 1] (gas: 71)\n   214: a1 = reverse s1\n   216: a2 = reverse s0\n   218: a3 = u64 [sp]\n   220: a3 = reverse a3\n   222: a4 = u64 [sp + 0x8]\n   225: a4 = reverse a4\n   227: u8 [a0 + 0x18] = a4\n   230: u8 [a0 + 0x10] = a3\n   233: u8 [a0 + 0x8] = a2\n   236: u8 [a0] = a1\n   238: a5 = a4 >> 0x38\n   241: u8 [a0 + 0x1f] = a5\n   244: a5 = a4 >> 0x30\n   247: u8 [a0 + 0x1e] = a5\n   250: a5 = a4 >> 0x28\n   253: u8 [a0 + 0x1d] = a5\n   256: a5 = a4 >> 0x20\n   259: u8 [a0 + 0x1c] = a5\n   262: a5 = a4 >> 0x18\n   265: u8 [a0 + 0x1b] = a5\n   268: a5 = a4 >> 0x10\n   271: u8 [a0 + 0x1a] = a5\n   274: a4 = a4 >> 0x8\n   277: u8 [a0 + 0x19] = a4\n   280: a4 = a3 >> 0x38\n   283: u8 [a0 + 0x17] = a4\n   286: a4 = a3 >> 0x30\n   289: u8 [a0 + 0x16] = a4\n   292: a4 = a3 >> 0x28\n   295: u8 [a0 + 0x15] = a4\n   298: a4 = a3 >> 0x20\n   301: u8 [a0 + 0x14] = a4\n   304: a4 = a3 >> 0x18\n   307: u8 [a0 + 0x13] = a4\n   310: a4 = a3 >> 0x10\n   313: u8 [a0 + 0x12] = a4\n   316: a3 = a3 >> 0x8\n   319: u8 [a0 + 0x11] = a3\n   322: a3 = a2 >> 0x38\n   325: u8 [a0 + 0xf] = a3\n   328: a3 = a2 >> 0x30\n   331: u8 [a0 + 0xe] = a3\n   334: a3 = a2 >> 0x28\n   337: u8 [a0 + 0xd] = a3\n   340: a3 = a2 >> 0x20\n   343: u8 [a0 + 0xc] = a3\n   346: a3 = a2 >> 0x18\n   349: u8 [a0 + 0xb] = a3\n   352: a3 = a2 >> 0x10\n   355: u8 [a0 + 0xa] = a3\n   358: a2 = a2 >> 0x8\n   361: u8 [a0 + 0x9] = a2\n   364: a2 = a1 >> 0x38\n   367: u8 [a0 + 0x7] = a2\n   370: a2 = a1 >> 0x30\n   373: u8 [a0 + 0x6] = a2\n   376: a2 = a1 >> 0x28\n   379: u8 [a0 + 0x5] = a2\n   382: a2 = a1 >> 0x20\n   385: u8 [a0 + 0x4] = a2\n   388: a2 = a1 >> 0x18\n   391: u8 [a0 + 0x3] = a2\n   394: a2 = a1 >> 0x10\n   397: u8 [a0 + 0x2] = a2\n   400: a1 = a1 >> 0x8\n   403: u8 [a0 + 0x1] = a1\n   406: ra = u64 [sp + 0x20]\n   409: s0 = u64 [sp + 0x18]\n   412: s1 = u64 [sp + 0x10]\n   415: sp = sp + 0x28\n   418: ret\n      : @25 (gas: 6)\n   420: sp = sp + 0xfffffffffffffff0\n   423: u64 [sp + 0x8] = ra\n   426: u64 [sp] = s0\n   428: s0 = a0 & 0x1\n   431: ecalli 4 // 'call_data_size'\n   433: fallthrough\n      : @26 (gas: 2)\n   434: u32 [0x20078] = a0\n   439: jump @28 if s0 == 0\n      : @27 (gas: 1)\n   442: ra = 4, jump @29\n      : @28 [@dyn 2] (gas: 1)\n   446: ra = 6, jump @51\n      : @29 [@dyn 3] (gas: 9)\n   451: sp = sp + 0xfffffffffffffce0\n   455: u64 [sp + 0x318] = ra\n   459: u64 [sp + 0x310] = s0\n   463: u64 [sp + 0x308] = s1\n   467: s0 = sp + 0x320\n   471: sp = sp & 0xffffffffffffffe0\n   474: a0 = 0x40\n   477: a1 = 0x20\n   480: ra = 8, jump @0\n      : @30 [@dyn 4] (gas: 39)\n   485: u8 [a0 + 31] = 0\n   488: u8 [a0 + 30] = 0x1\n   492: u8 [a0 + 29] = 0\n   495: u8 [a0 + 28] = 0\n   498: u8 [a0 + 27] = 0\n   501: u8 [a0 + 26] = 0\n   504: u8 [a0 + 25] = 0\n   507: u8 [a0 + 24] = 0\n   510: u8 [a0 + 23] = 0\n   513: u8 [a0 + 22] = 0\n   516: u8 [a0 + 21] = 0\n   519: u8 [a0 + 20] = 0\n   522: u8 [a0 + 19] = 0\n   525: u8 [a0 + 18] = 0\n   528: u8 [a0 + 17] = 0\n   531: u8 [a0 + 16] = 0\n   534: u8 [a0 + 15] = 0\n   537: u8 [a0 + 14] = 0\n   540: u8 [a0 + 13] = 0\n   543: u8 [a0 + 12] = 0\n   546: u8 [a0 + 11] = 0\n   549: u8 [a0 + 10] = 0\n   552: u8 [a0 + 9] = 0\n   555: u8 [a0 + 8] = 0\n   558: u8 [a0 + 7] = 0\n   561: u8 [a0 + 6] = 0\n   564: u8 [a0 + 5] = 0\n   567: u8 [a0 + 4] = 0\n   570: u8 [a0 + 3] = 0\n   573: u8 [a0 + 2] = 0\n   576: u8 [a0 + 1] = 0\n   579: u8 [a0 + 0] = 0\n   581: u64 [sp + 760] = 0\n   585: u64 [sp + 736] = 0\n   589: u64 [sp + 744] = 0\n   593: u64 [sp + 752] = 0\n   597: i32 a0 = sp + 0x2e0\n   601: ecalli 17 // 'value_transferred'\n   603: fallthrough\n      : @31 (gas: 8)\n   604: a0 = u64 [sp + 0x2f0]\n   608: a1 = u64 [sp + 0x2f8]\n   612: a2 = u64 [sp + 0x2e8]\n   616: a3 = u64 [sp + 0x2e0]\n   620: a1 = a1 | a2\n   623: a0 = a0 | a3\n   626: a0 = a0 | a1\n   629: jump @40 if a0 != 0\n      : @32 (gas: 12)\n   633: a0 = i32 [0x20078]\n   638: u64 [sp + 0x98] = a0\n   642: a0 = a0 << 0x20\n   645: a2 = a0 >> 0x20\n   648: u64 [sp + 696] = 0\n   652: u64 [sp + 688] = 0\n   656: u64 [sp + 680] = 0\n   660: a0 = sp + 0x2c0\n   664: a1 = sp + 0x2a0\n   668: u64 [sp + 0x90] = a2\n   672: u64 [sp + 0x2a0] = a2\n   676: ra = 10, jump @113\n      : @33 [@dyn 5] (gas: 12)\n   681: a4 = u64 [sp + 0x2d8]\n   685: s1 = u64 [sp + 0x2d0]\n   689: a3 = u64 [sp + 0x2c8]\n   693: a2 = u64 [sp + 0x2c0]\n   697: a0 = a3 | a4\n   700: a1 = a2 | s1\n   703: a1 = a1 | a0\n   706: a1 = a1 >> 0x20\n   709: a0 = a0 | s1\n   712: a0 = a0 << 0x20\n   715: a0 = a0 | a1\n   718: jump @39 if a0 != 0\n      : @34 (gas: 6)\n   722: i32 a0 = a2 + 0\n   724: a1 = u64 [sp + 0x98]\n   728: u64 [sp + 0x78] = a2\n   731: u64 [sp + 0x80] = a3\n   735: u64 [sp + 0x88] = a4\n   739: ra = 12, jump @0\n      : @35 [@dyn 6] (gas: 29)\n   744: i32 a0 = a0 + 0\n   746: a1 = u64 [sp + 0x98]\n   750: a2 = 0\n   752: ecalli 2 // 'call_data_copy'\n   754: a0 = u64 [sp + 0x90]\n   758: a2 = u64 [sp + 0x78]\n   761: a0 = a0 + a2\n   764: a1 = a0 <u a2\n   767: t1 = a2\n   769: a4 = u64 [sp + 0x80]\n   773: a2 = a4 + a1\n   776: a3 = a2 <u a4\n   779: a3 = a1 if a1 == 0\n   782: a3 = a3 + s1\n   785: a1 = a3 <u s1\n   788: a5 = u64 [sp + 0x88]\n   792: t0 = a5 + a1\n   795: u64 [sp + 0x188] = a2\n   799: u64 [sp + 0x180] = a0\n   803: u64 [sp + 0x1b8] = a5\n   807: u64 [sp + 0x1b0] = s1\n   811: u64 [sp + 0x1a8] = a4\n   815: u64 [sp + 0x1a0] = t1\n   819: u64 [sp + 0x190] = a3\n   823: a0 = sp + 0x1c0\n   827: a1 = sp + 0x1a0\n   831: a2 = sp + 0x180\n   835: u64 [sp + 0x198] = t0\n   839: ra = 14, jump @152\n      : @36 [@dyn 7] (gas: 191)\n   844: a0 = u64 [sp + 0x1c0]\n   848: u64 [sp + 0x98] = a0\n   852: a0 = u64 [sp + 0x1c8]\n   856: u64 [sp + 0x90] = a0\n   860: a0 = u64 [sp + 0x1d0]\n   864: u64 [sp + 0x88] = a0\n   868: a0 = u64 [sp + 0x1d8]\n   872: u64 [sp + 0x80] = a0\n   876: a0 = u64 [sp + 0x1e0]\n   880: u64 [sp + 0x78] = a0\n   883: a0 = u64 [sp + 0x1e8]\n   887: u64 [sp + 0x70] = a0\n   890: a0 = u64 [sp + 0x1f0]\n   894: u64 [sp + 0x68] = a0\n   897: a0 = u64 [sp + 0x1f8]\n   901: u64 [sp + 0x60] = a0\n   904: a0 = u64 [sp + 0x200]\n   908: u64 [sp + 0x58] = a0\n   911: a0 = u64 [sp + 0x208]\n   915: u64 [sp + 0x50] = a0\n   918: a0 = u64 [sp + 0x210]\n   922: u64 [sp + 0x48] = a0\n   925: a0 = u64 [sp + 0x218]\n   929: u64 [sp + 0x40] = a0\n   932: a0 = u64 [sp + 0x220]\n   936: u64 [sp + 0x38] = a0\n   939: a0 = u64 [sp + 0x228]\n   943: u64 [sp + 0x30] = a0\n   946: a0 = u64 [sp + 0x230]\n   950: u64 [sp + 0x28] = a0\n   953: a0 = u64 [sp + 0x238]\n   957: u64 [sp + 0x20] = a0\n   960: a0 = u64 [sp + 0x240]\n   964: u64 [sp + 0x18] = a0\n   967: a0 = u64 [sp + 0x248]\n   971: u64 [sp + 0x10] = a0\n   974: s1 = u64 [sp + 0x250]\n   978: t2 = u64 [sp + 0x258]\n   982: t1 = u64 [sp + 0x260]\n   986: t0 = u64 [sp + 0x268]\n   990: a5 = u64 [sp + 0x270]\n   994: a4 = u64 [sp + 0x278]\n   998: a3 = u64 [sp + 0x280]\n  1002: a2 = u64 [sp + 0x288]\n  1006: a1 = u64 [sp + 0x290]\n  1010: a0 = u64 [sp + 0x298]\n  1014: ra = sp + 0xa0\n  1018: u64 [sp] = ra\n  1020: u64 [sp + 0xb8] = a0\n  1024: u64 [sp + 0xb0] = a1\n  1028: u64 [sp + 0xa8] = a2\n  1032: u64 [sp + 0xa0] = a3\n  1036: u64 [sp + 0xd8] = a4\n  1040: u64 [sp + 0xd0] = a5\n  1044: u64 [sp + 0xc8] = t0\n  1048: u64 [sp + 0xc0] = t1\n  1052: u64 [sp + 0xf8] = t2\n  1056: u64 [sp + 0xf0] = s1\n  1060: a0 = u64 [sp + 0x10]\n  1063: u64 [sp + 0xe8] = a0\n  1067: a0 = u64 [sp + 0x18]\n  1070: u64 [sp + 0xe0] = a0\n  1074: a0 = u64 [sp + 0x20]\n  1077: u64 [sp + 0x118] = a0\n  1081: a0 = u64 [sp + 0x28]\n  1084: u64 [sp + 0x110] = a0\n  1088: a0 = u64 [sp + 0x30]\n  1091: u64 [sp + 0x108] = a0\n  1095: a0 = u64 [sp + 0x38]\n  1098: u64 [sp + 0x100] = a0\n  1102: a0 = u64 [sp + 0x40]\n  1105: u64 [sp + 0x138] = a0\n  1109: a0 = u64 [sp + 0x48]\n  1112: u64 [sp + 0x130] = a0\n  1116: a0 = u64 [sp + 0x50]\n  1119: u64 [sp + 0x128] = a0\n  1123: a0 = u64 [sp + 0x58]\n  1126: u64 [sp + 0x120] = a0\n  1130: a0 = u64 [sp + 0x60]\n  1133: u64 [sp + 0x158] = a0\n  1137: a0 = u64 [sp + 0x68]\n  1140: u64 [sp + 0x150] = a0\n  1144: a0 = u64 [sp + 0x70]\n  1147: u64 [sp + 0x148] = a0\n  1151: a0 = u64 [sp + 0x78]\n  1154: u64 [sp + 0x140] = a0\n  1158: a0 = u64 [sp + 0x80]\n  1162: u64 [sp + 0x178] = a0\n  1166: a0 = u64 [sp + 0x88]\n  1170: u64 [sp + 0x170] = a0\n  1174: a0 = u64 [sp + 0x90]\n  1178: u64 [sp + 0x168] = a0\n  1182: a0 = sp + 0x160\n  1186: a1 = sp + 0x140\n  1190: a2 = sp + 0x120\n  1194: a3 = sp + 0x100\n  1198: a4 = sp + 0xe0\n  1202: a5 = sp + 0xc0\n  1206: s1 = u64 [sp + 0x98]\n  1210: u64 [sp + 0x160] = s1\n  1214: ra = 0x10\n  1217: sp = sp + 0xfffffffffffffce0\n  1221: u64 [sp + 0x318] = ra\n  1225: u64 [sp + 0x310] = s0\n  1229: u64 [sp + 0x308] = s1\n  1233: s0 = sp + 0x320\n  1237: sp = sp & 0xffffffffffffffe0\n  1240: t0 = u64 [s0]\n  1242: s1 = u64 [t0 + 0x18]\n  1245: u64 [sp + 0x40] = s1\n  1248: s1 = u64 [t0 + 0x10]\n  1251: u64 [sp + 0x48] = s1\n  1254: s1 = u64 [t0 + 0x8]\n  1257: u64 [sp + 0x50] = s1\n  1260: s1 = u64 [t0]\n  1262: u64 [sp + 0x58] = s1\n  1265: s1 = u64 [a5 + 0x10]\n  1268: u64 [sp + 0x70] = s1\n  1271: s1 = u64 [a5 + 0x8]\n  1274: u64 [sp + 0x60] = s1\n  1277: a5 = u64 [a5]\n  1279: u64 [sp + 0x68] = a5\n  1282: a5 = u64 [a4 + 0x18]\n  1285: u64 [sp + 0x78] = a5\n  1288: a5 = u64 [a4 + 0x10]\n  1291: u64 [sp + 0x80] = a5\n  1295: a5 = u64 [a4 + 0x8]\n  1298: u64 [sp + 0x88] = a5\n  1302: a4 = u64 [a4]\n  1304: u64 [sp + 0xb0] = a4\n  1308: a4 = u64 [a3 + 0x18]\n  1311: u64 [sp + 0x90] = a4\n  1315: a4 = u64 [a3 + 0x10]\n  1318: u64 [sp + 0x98] = a4\n  1322: a4 = u64 [a3 + 0x8]\n  1325: u64 [sp + 0xa0] = a4\n  1329: a3 = u64 [a3]\n  1331: u64 [sp + 0xa8] = a3\n  1335: a3 = u64 [a2 + 0x18]\n  1338: u64 [sp + 0x38] = a3\n  1341: a3 = u64 [a2 + 0x10]\n  1344: u64 [sp + 0xb8] = a3\n  1348: a3 = u64 [a2 + 0x8]\n  1351: u64 [sp + 0xc0] = a3\n  1355: a2 = u64 [a2]\n  1357: u64 [sp + 0xc8] = a2\n  1361: a2 = u64 [a1 + 0x18]\n  1364: u64 [sp + 0x18] = a2\n  1367: a2 = u64 [a1 + 0x10]\n  1370: u64 [sp + 0x20] = a2\n  1373: a2 = u64 [a1 + 0x8]\n  1376: u64 [sp + 0x28] = a2\n  1379: a1 = u64 [a1]\n  1381: u64 [sp + 0x30] = a1\n  1384: a1 = u64 [a0 + 0x18]\n  1387: u64 [sp + 0x10] = a1\n  1390: a1 = u64 [a0 + 0x8]\n  1393: u64 [sp + 0xd0] = a1\n  1397: a1 = u64 [a0]\n  1399: u64 [sp + 0xd8] = a1\n  1403: s1 = u64 [a0 + 0x10]\n  1406: u32 [sp + 672] = 0x20\n  1411: u64 [sp + 728] = 0\n  1415: u64 [sp + 720] = 0\n  1419: u64 [sp + 712] = 0\n  1423: u64 [sp + 704] = 0x5\n  1428: u64 [sp + 760] = 0\n  1432: u64 [sp + 752] = 0\n  1436: u64 [sp + 744] = 0\n  1440: u64 [sp + 736] = 0\n  1444: i32 a1 = sp + 0x2c0\n  1448: i32 a3 = sp + 0x2e0\n  1452: i32 a4 = sp + 0x2a0\n  1456: a2 = 0xffffffffffffffff\n  1459: a0 = 0\n  1461: ecalli 8 // 'get_storage'\n  1463: u64 [sp + 728] = 0\n  1467: u64 [sp + 720] = 0\n  1471: u64 [sp + 712] = 0\n  1475: u64 [sp + 704] = 0x5\n  1480: u64 [sp + 760] = 0\n  1484: u64 [sp + 752] = 0\n  1488: u64 [sp + 744] = 0\n  1492: u64 [sp + 736] = 0x1\n  1497: i32 a1 = sp + 0x2c0\n  1501: i32 a3 = sp + 0x2e0\n  1505: a2 = 0xffffffffffffffff\n  1508: a4 = 0x20\n  1511: a0 = 0\n  1513: ecalli 16 // 'set_storage'\n  1515: jump @285\n      : @37 [@dyn 8] (gas: 3)\n  1518: a0 = 0x40\n  1521: a1 = 0x20\n  1524: ra = 18, jump @0\n      : @38 [@dyn 9] (gas: 100)\n  1529: a1 = u8 [a0 + 0x11]\n  1532: a2 = u8 [a0 + 0x10]\n  1535: a3 = u8 [a0 + 0x12]\n  1538: a4 = u8 [a0 + 0x13]\n  1541: a1 = a1 << 0x8\n  1544: a1 = a1 | a2\n  1547: a3 = a3 << 0x10\n  1550: a4 = a4 << 0x18\n  1553: a3 = a3 | a4\n  1556: a1 = a1 | a3\n  1559: a2 = u8 [a0 + 0x15]\n  1562: a3 = u8 [a0 + 0x14]\n  1565: a4 = u8 [a0 + 0x16]\n  1568: a5 = u8 [a0 + 0x17]\n  1571: a2 = a2 << 0x8\n  1574: a2 = a2 | a3\n  1577: a4 = a4 << 0x10\n  1580: a5 = a5 << 0x18\n  1583: a4 = a4 | a5\n  1586: a2 = a2 | a4\n  1589: a2 = a2 << 0x20\n  1592: t0 = a2 | a1\n  1595: a2 = u8 [a0 + 0x1]\n  1598: a3 = u8 [a0]\n  1600: a4 = u8 [a0 + 0x2]\n  1603: a5 = u8 [a0 + 0x3]\n  1606: a2 = a2 << 0x8\n  1609: a2 = a2 | a3\n  1612: a4 = a4 << 0x10\n  1615: a5 = a5 << 0x18\n  1618: a4 = a4 | a5\n  1621: a2 = a2 | a4\n  1624: a3 = u8 [a0 + 0x5]\n  1627: a4 = u8 [a0 + 0x4]\n  1630: a5 = u8 [a0 + 0x6]\n  1633: s1 = u8 [a0 + 0x7]\n  1636: a3 = a3 << 0x8\n  1639: a3 = a3 | a4\n  1642: a5 = a5 << 0x10\n  1645: s1 = s1 << 0x18\n  1648: a5 = a5 | s1\n  1651: a3 = a3 | a5\n  1654: a3 = a3 << 0x20\n  1657: a2 = a2 | a3\n  1660: a3 = u8 [a0 + 0x19]\n  1663: a4 = u8 [a0 + 0x18]\n  1666: a5 = u8 [a0 + 0x1a]\n  1669: s1 = u8 [a0 + 0x1b]\n  1672: a3 = a3 << 0x8\n  1675: a3 = a3 | a4\n  1678: a5 = a5 << 0x10\n  1681: s1 = s1 << 0x18\n  1684: a5 = a5 | s1\n  1687: a3 = a3 | a5\n  1690: a4 = u8 [a0 + 0x1d]\n  1693: a5 = u8 [a0 + 0x1c]\n  1696: s1 = u8 [a0 + 0x1e]\n  1699: a1 = u8 [a0 + 0x1f]\n  1702: a4 = a4 << 0x8\n  1705: a4 = a4 | a5\n  1708: s1 = s1 << 0x10\n  1711: a1 = a1 << 0x18\n  1714: a1 = a1 | s1\n  1717: a1 = a1 | a4\n  1720: a1 = a1 << 0x20\n  1723: a3 = a3 | a1\n  1726: a1 = u8 [a0 + 0x9]\n  1729: a4 = u8 [a0 + 0x8]\n  1732: a5 = u8 [a0 + 0xa]\n  1735: s1 = u8 [a0 + 0xb]\n  1738: a1 = a1 << 0x8\n  1741: a1 = a1 | a4\n  1744: a5 = a5 << 0x10\n  1747: s1 = s1 << 0x18\n  1750: a5 = a5 | s1\n  1753: a1 = a1 | a5\n  1756: a4 = u8 [a0 + 0xd]\n  1759: a5 = u8 [a0 + 0xc]\n  1762: s1 = u8 [a0 + 0xe]\n  1765: a0 = u8 [a0 + 0xf]\n  1768: a4 = a4 << 0x8\n  1771: a4 = a4 | a5\n  1774: s1 = s1 << 0x10\n  1777: a0 = a0 << 0x18\n  1780: a0 = a0 | s1\n  1783: a0 = a0 | a4\n  1786: a0 = a0 << 0x20\n  1789: a0 = a0 | a1\n  1792: a1 = reverse a0\n  1794: a0 = reverse a3\n  1796: a2 = reverse a2\n  1798: a3 = reverse t0\n  1800: a2 = a2 | a3\n  1803: a3 = a0 | a1\n  1806: a3 = a3 | a2\n  1809: a3 = a3 >> 0x20\n  1812: a1 = a1 | a2\n  1815: a1 = a1 << 0x20\n  1818: a1 = a1 | a3\n  1821: jump @42 if a1 == 0\n      : @39 (gas: 1)\n  1824: trap\n      : @40 (gas: 3)\n  1825: a0 = 0\n  1827: a1 = 0\n  1829: ra = 20, jump @0\n      : @41 [@dyn 10] (gas: 5)\n  1834: i32 a1 = a0 + 0\n  1836: a0 = 0x1\n  1839: a2 = 0\n  1841: ecalli 14 // 'seal_return'\n  1843: fallthrough\n      : @42 (gas: 3)\n  1844: i32 a0 = a0 + 0\n  1846: u64 [sp + 0x98] = a0\n  1850: ra = 22, jump @0\n      : @43 [@dyn 11] (gas: 7)\n  1855: i32 a0 = a0 + 0\n  1857: a1 = 0\n  1859: a2 = 0\n  1861: ecalli 2 // 'call_data_copy'\n  1863: a0 = 0x80\n  1867: a1 = 0x20\n  1870: ra = 24, jump @0\n      : @44 [@dyn 12] (gas: 100)\n  1875: a1 = u8 [a0 + 0x1]\n  1878: a2 = u8 [a0]\n  1880: a3 = u8 [a0 + 0x2]\n  1883: a4 = u8 [a0 + 0x3]\n  1886: a1 = a1 << 0x8\n  1889: a1 = a1 | a2\n  1892: a3 = a3 << 0x10\n  1895: a4 = a4 << 0x18\n  1898: a3 = a3 | a4\n  1901: a1 = a1 | a3\n  1904: a2 = u8 [a0 + 0x5]\n  1907: a3 = u8 [a0 + 0x4]\n  1910: a4 = u8 [a0 + 0x6]\n  1913: a5 = u8 [a0 + 0x7]\n  1916: a2 = a2 << 0x8\n  1919: a2 = a2 | a3\n  1922: a4 = a4 << 0x10\n  1925: a5 = a5 << 0x18\n  1928: a4 = a4 | a5\n  1931: a2 = a2 | a4\n  1934: a2 = a2 << 0x20\n  1937: t0 = a2 | a1\n  1940: a2 = u8 [a0 + 0x19]\n  1943: a3 = u8 [a0 + 0x18]\n  1946: a4 = u8 [a0 + 0x1a]\n  1949: a5 = u8 [a0 + 0x1b]\n  1952: a2 = a2 << 0x8\n  1955: a2 = a2 | a3\n  1958: a4 = a4 << 0x10\n  1961: a5 = a5 << 0x18\n  1964: a4 = a4 | a5\n  1967: a2 = a2 | a4\n  1970: a3 = u8 [a0 + 0x1d]\n  1973: a4 = u8 [a0 + 0x1c]\n  1976: a5 = u8 [a0 + 0x1e]\n  1979: s1 = u8 [a0 + 0x1f]\n  1982: a3 = a3 << 0x8\n  1985: a3 = a3 | a4\n  1988: a5 = a5 << 0x10\n  1991: s1 = s1 << 0x18\n  1994: a5 = a5 | s1\n  1997: a3 = a3 | a5\n  2000: a3 = a3 << 0x20\n  2003: a2 = a2 | a3\n  2006: a3 = u8 [a0 + 0x11]\n  2009: a4 = u8 [a0 + 0x10]\n  2012: a5 = u8 [a0 + 0x12]\n  2015: s1 = u8 [a0 + 0x13]\n  2018: a3 = a3 << 0x8\n  2021: a3 = a3 | a4\n  2024: a5 = a5 << 0x10\n  2027: s1 = s1 << 0x18\n  2030: a5 = a5 | s1\n  2033: a3 = a3 | a5\n  2036: a4 = u8 [a0 + 0x15]\n  2039: a5 = u8 [a0 + 0x14]\n  2042: s1 = u8 [a0 + 0x16]\n  2045: a1 = u8 [a0 + 0x17]\n  2048: a4 = a4 << 0x8\n  2051: a4 = a4 | a5\n  2054: s1 = s1 << 0x10\n  2057: a1 = a1 << 0x18\n  2060: a1 = a1 | s1\n  2063: a1 = a1 | a4\n  2066: a1 = a1 << 0x20\n  2069: a3 = a3 | a1\n  2072: a1 = u8 [a0 + 0x9]\n  2075: a4 = u8 [a0 + 0x8]\n  2078: a5 = u8 [a0 + 0xa]\n  2081: s1 = u8 [a0 + 0xb]\n  2084: a1 = a1 << 0x8\n  2087: a1 = a1 | a4\n  2090: a5 = a5 << 0x10\n  2093: s1 = s1 << 0x18\n  2096: a5 = a5 | s1\n  2099: a1 = a1 | a5\n  2102: a4 = u8 [a0 + 0xd]\n  2105: a5 = u8 [a0 + 0xc]\n  2108: s1 = u8 [a0 + 0xe]\n  2111: a0 = u8 [a0 + 0xf]\n  2114: a4 = a4 << 0x8\n  2117: a4 = a4 | a5\n  2120: s1 = s1 << 0x10\n  2123: a0 = a0 << 0x18\n  2126: a0 = a0 | s1\n  2129: a0 = a0 | a4\n  2132: a0 = a0 << 0x20\n  2135: a0 = a0 | a1\n  2138: a0 = reverse a0\n  2140: s1 = 0x30080\n  2145: a1 = reverse a3\n  2147: a2 = reverse a2\n  2149: a3 = reverse t0\n  2151: u64 [0x30098] = a3\n  2156: u64 [0x30080] = a2\n  2161: u64 [0x30088] = a1\n  2166: u64 [0x30090] = a0\n  2171: a0 = 0xa0\n  2175: a1 = 0x20\n  2178: ra = 26, jump @0\n      : @45 [@dyn 13] (gas: 99)\n  2183: a1 = u8 [a0 + 0x1]\n  2186: a2 = u8 [a0]\n  2188: a3 = u8 [a0 + 0x2]\n  2191: a4 = u8 [a0 + 0x3]\n  2194: a1 = a1 << 0x8\n  2197: a1 = a1 | a2\n  2200: a3 = a3 << 0x10\n  2203: a4 = a4 << 0x18\n  2206: a3 = a3 | a4\n  2209: a1 = a1 | a3\n  2212: a2 = u8 [a0 + 0x5]\n  2215: a3 = u8 [a0 + 0x4]\n  2218: a4 = u8 [a0 + 0x6]\n  2221: a5 = u8 [a0 + 0x7]\n  2224: a2 = a2 << 0x8\n  2227: a2 = a2 | a3\n  2230: a4 = a4 << 0x10\n  2233: a5 = a5 << 0x18\n  2236: a4 = a4 | a5\n  2239: a2 = a2 | a4\n  2242: a2 = a2 << 0x20\n  2245: t0 = a2 | a1\n  2248: a2 = u8 [a0 + 0x19]\n  2251: a3 = u8 [a0 + 0x18]\n  2254: a4 = u8 [a0 + 0x1a]\n  2257: a5 = u8 [a0 + 0x1b]\n  2260: a2 = a2 << 0x8\n  2263: a2 = a2 | a3\n  2266: a4 = a4 << 0x10\n  2269: a5 = a5 << 0x18\n  2272: a4 = a4 | a5\n  2275: a2 = a2 | a4\n  2278: a3 = u8 [a0 + 0x1d]\n  2281: a4 = u8 [a0 + 0x1c]\n  2284: a5 = u8 [a0 + 0x1e]\n  2287: a1 = u8 [a0 + 0x1f]\n  2290: a3 = a3 << 0x8\n  2293: a3 = a3 | a4\n  2296: a5 = a5 << 0x10\n  2299: a1 = a1 << 0x18\n  2302: a1 = a1 | a5\n  2305: a1 = a1 | a3\n  2308: a1 = a1 << 0x20\n  2311: t1 = a1 | a2\n  2314: a1 = u8 [a0 + 0x11]\n  2317: a3 = u8 [a0 + 0x10]\n  2320: a4 = u8 [a0 + 0x12]\n  2323: a5 = u8 [a0 + 0x13]\n  2326: a1 = a1 << 0x8\n  2329: a1 = a1 | a3\n  2332: a4 = a4 << 0x10\n  2335: a5 = a5 << 0x18\n  2338: a4 = a4 | a5\n  2341: a1 = a1 | a4\n  2344: a3 = u8 [a0 + 0x15]\n  2347: a4 = u8 [a0 + 0x14]\n  2350: a5 = u8 [a0 + 0x16]\n  2353: a2 = u8 [a0 + 0x17]\n  2356: a3 = a3 << 0x8\n  2359: a3 = a3 | a4\n  2362: a5 = a5 << 0x10\n  2365: a2 = a2 << 0x18\n  2368: a2 = a2 | a5\n  2371: a2 = a2 | a3\n  2374: a2 = a2 << 0x20\n  2377: a3 = a2 | a1\n  2380: a1 = u8 [a0 + 0x9]\n  2383: a2 = u8 [a0 + 0x8]\n  2386: a4 = u8 [a0 + 0xa]\n  2389: a5 = u8 [a0 + 0xb]\n  2392: a1 = a1 << 0x8\n  2395: a1 = a1 | a2\n  2398: a4 = a4 << 0x10\n  2401: a5 = a5 << 0x18\n  2404: a4 = a4 | a5\n  2407: a1 = a1 | a4\n  2410: a2 = u8 [a0 + 0xd]\n  2413: a4 = u8 [a0 + 0xc]\n  2416: a5 = u8 [a0 + 0xe]\n  2419: a0 = u8 [a0 + 0xf]\n  2422: a2 = a2 << 0x8\n  2425: a2 = a2 | a4\n  2428: a5 = a5 << 0x10\n  2431: a0 = a0 << 0x18\n  2434: a0 = a0 | a5\n  2437: a0 = a0 | a2\n  2440: a0 = a0 << 0x20\n  2443: a0 = a0 | a1\n  2446: a0 = reverse a0\n  2448: a1 = reverse a3\n  2450: a2 = reverse t1\n  2452: a3 = reverse t0\n  2454: u64 [s1 + 0x38] = a3\n  2457: u64 [s1 + 0x20] = a2\n  2460: u64 [s1 + 0x28] = a1\n  2463: u64 [s1 + 0x30] = a0\n  2466: a0 = 0xc0\n  2470: a1 = 0x20\n  2473: ra = 28, jump @0\n      : @46 [@dyn 14] (gas: 99)\n  2478: a1 = u8 [a0 + 0x1]\n  2481: a2 = u8 [a0]\n  2483: a3 = u8 [a0 + 0x2]\n  2486: a4 = u8 [a0 + 0x3]\n  2489: a1 = a1 << 0x8\n  2492: a1 = a1 | a2\n  2495: a3 = a3 << 0x10\n  2498: a4 = a4 << 0x18\n  2501: a3 = a3 | a4\n  2504: a1 = a1 | a3\n  2507: a2 = u8 [a0 + 0x5]\n  2510: a3 = u8 [a0 + 0x4]\n  2513: a4 = u8 [a0 + 0x6]\n  2516: a5 = u8 [a0 + 0x7]\n  2519: a2 = a2 << 0x8\n  2522: a2 = a2 | a3\n  2525: a4 = a4 << 0x10\n  2528: a5 = a5 << 0x18\n  2531: a4 = a4 | a5\n  2534: a2 = a2 | a4\n  2537: a2 = a2 << 0x20\n  2540: t0 = a2 | a1\n  2543: a2 = u8 [a0 + 0x19]\n  2546: a3 = u8 [a0 + 0x18]\n  2549: a4 = u8 [a0 + 0x1a]\n  2552: a5 = u8 [a0 + 0x1b]\n  2555: a2 = a2 << 0x8\n  2558: a2 = a2 | a3\n  2561: a4 = a4 << 0x10\n  2564: a5 = a5 << 0x18\n  2567: a4 = a4 | a5\n  2570: a2 = a2 | a4\n  2573: a3 = u8 [a0 + 0x1d]\n  2576: a4 = u8 [a0 + 0x1c]\n  2579: a5 = u8 [a0 + 0x1e]\n  2582: a1 = u8 [a0 + 0x1f]\n  2585: a3 = a3 << 0x8\n  2588: a3 = a3 | a4\n  2591: a5 = a5 << 0x10\n  2594: a1 = a1 << 0x18\n  2597: a1 = a1 | a5\n  2600: a1 = a1 | a3\n  2603: a1 = a1 << 0x20\n  2606: t1 = a1 | a2\n  2609: a1 = u8 [a0 + 0x11]\n  2612: a3 = u8 [a0 + 0x10]\n  2615: a4 = u8 [a0 + 0x12]\n  2618: a5 = u8 [a0 + 0x13]\n  2621: a1 = a1 << 0x8\n  2624: a1 = a1 | a3\n  2627: a4 = a4 << 0x10\n  2630: a5 = a5 << 0x18\n  2633: a4 = a4 | a5\n  2636: a1 = a1 | a4\n  2639: a3 = u8 [a0 + 0x15]\n  2642: a4 = u8 [a0 + 0x14]\n  2645: a5 = u8 [a0 + 0x16]\n  2648: a2 = u8 [a0 + 0x17]\n  2651: a3 = a3 << 0x8\n  2654: a3 = a3 | a4\n  2657: a5 = a5 << 0x10\n  2660: a2 = a2 << 0x18\n  2663: a2 = a2 | a5\n  2666: a2 = a2 | a3\n  2669: a2 = a2 << 0x20\n  2672: a3 = a2 | a1\n  2675: a1 = u8 [a0 + 0x9]\n  2678: a2 = u8 [a0 + 0x8]\n  2681: a4 = u8 [a0 + 0xa]\n  2684: a5 = u8 [a0 + 0xb]\n  2687: a1 = a1 << 0x8\n  2690: a1 = a1 | a2\n  2693: a4 = a4 << 0x10\n  2696: a5 = a5 << 0x18\n  2699: a4 = a4 | a5\n  2702: a1 = a1 | a4\n  2705: a2 = u8 [a0 + 0xd]\n  2708: a4 = u8 [a0 + 0xc]\n  2711: a5 = u8 [a0 + 0xe]\n  2714: a0 = u8 [a0 + 0xf]\n  2717: a2 = a2 << 0x8\n  2720: a2 = a2 | a4\n  2723: a5 = a5 << 0x10\n  2726: a0 = a0 << 0x18\n  2729: a0 = a0 | a5\n  2732: a0 = a0 | a2\n  2735: a0 = a0 << 0x20\n  2738: a0 = a0 | a1\n  2741: a0 = reverse a0\n  2743: a1 = reverse a3\n  2745: a2 = reverse t1\n  2747: a3 = reverse t0\n  2749: u64 [s1 + 0x58] = a3\n  2752: u64 [s1 + 0x40] = a2\n  2755: u64 [s1 + 0x48] = a1\n  2758: u64 [s1 + 0x50] = a0\n  2761: a0 = 0xe0\n  2765: a1 = 0x20\n  2768: ra = 30, jump @0\n      : @47 [@dyn 15] (gas: 98)\n  2773: a1 = u8 [a0 + 0x1]\n  2776: a2 = u8 [a0]\n  2778: a3 = u8 [a0 + 0x2]\n  2781: a4 = u8 [a0 + 0x3]\n  2784: a1 = a1 << 0x8\n  2787: a1 = a1 | a2\n  2790: a3 = a3 << 0x10\n  2793: a4 = a4 << 0x18\n  2796: a3 = a3 | a4\n  2799: a1 = a1 | a3\n  2802: a2 = u8 [a0 + 0x5]\n  2805: a3 = u8 [a0 + 0x4]\n  2808: a4 = u8 [a0 + 0x6]\n  2811: a5 = u8 [a0 + 0x7]\n  2814: a2 = a2 << 0x8\n  2817: a2 = a2 | a3\n  2820: a4 = a4 << 0x10\n  2823: a5 = a5 << 0x18\n  2826: a4 = a4 | a5\n  2829: a2 = a2 | a4\n  2832: a2 = a2 << 0x20\n  2835: t0 = a2 | a1\n  2838: a2 = u8 [a0 + 0x19]\n  2841: a3 = u8 [a0 + 0x18]\n  2844: a4 = u8 [a0 + 0x1a]\n  2847: a5 = u8 [a0 + 0x1b]\n  2850: a2 = a2 << 0x8\n  2853: a2 = a2 | a3\n  2856: a4 = a4 << 0x10\n  2859: a5 = a5 << 0x18\n  2862: a4 = a4 | a5\n  2865: a2 = a2 | a4\n  2868: a3 = u8 [a0 + 0x1d]\n  2871: a4 = u8 [a0 + 0x1c]\n  2874: a5 = u8 [a0 + 0x1e]\n  2877: a1 = u8 [a0 + 0x1f]\n  2880: a3 = a3 << 0x8\n  2883: a3 = a3 | a4\n  2886: a5 = a5 << 0x10\n  2889: a1 = a1 << 0x18\n  2892: a1 = a1 | a5\n  2895: a1 = a1 | a3\n  2898: a1 = a1 << 0x20\n  2901: t1 = a1 | a2\n  2904: a1 = u8 [a0 + 0x11]\n  2907: a3 = u8 [a0 + 0x10]\n  2910: a4 = u8 [a0 + 0x12]\n  2913: a5 = u8 [a0 + 0x13]\n  2916: a1 = a1 << 0x8\n  2919: a1 = a1 | a3\n  2922: a4 = a4 << 0x10\n  2925: a5 = a5 << 0x18\n  2928: a4 = a4 | a5\n  2931: a1 = a1 | a4\n  2934: a3 = u8 [a0 + 0x15]\n  2937: a4 = u8 [a0 + 0x14]\n  2940: a5 = u8 [a0 + 0x16]\n  2943: a2 = u8 [a0 + 0x17]\n  2946: a3 = a3 << 0x8\n  2949: a3 = a3 | a4\n  2952: a5 = a5 << 0x10\n  2955: a2 = a2 << 0x18\n  2958: a2 = a2 | a5\n  2961: a2 = a2 | a3\n  2964: a2 = a2 << 0x20\n  2967: a3 = a2 | a1\n  2970: a1 = u8 [a0 + 0x9]\n  2973: a2 = u8 [a0 + 0x8]\n  2976: a4 = u8 [a0 + 0xa]\n  2979: a5 = u8 [a0 + 0xb]\n  2982: a1 = a1 << 0x8\n  2985: a1 = a1 | a2\n  2988: a4 = a4 << 0x10\n  2991: a5 = a5 << 0x18\n  2994: a4 = a4 | a5\n  2997: a1 = a1 | a4\n  3000: a2 = u8 [a0 + 0xd]\n  3003: a4 = u8 [a0 + 0xc]\n  3006: a5 = u8 [a0 + 0xe]\n  3009: a0 = u8 [a0 + 0xf]\n  3012: a2 = a2 << 0x8\n  3015: a2 = a2 | a4\n  3018: a5 = a5 << 0x10\n  3021: a0 = a0 << 0x18\n  3024: a0 = a0 | a5\n  3027: a0 = a0 | a2\n  3030: a0 = a0 << 0x20\n  3033: a0 = a0 | a1\n  3036: a0 = reverse a0\n  3038: a2 = reverse a3\n  3040: a3 = reverse t1\n  3042: a4 = reverse t0\n  3044: a1 = i32 [0x20070]\n  3049: u64 [s1 + 0x78] = a4\n  3052: u64 [s1 + 0x60] = a3\n  3055: u64 [s1 + 0x68] = a2\n  3058: u64 [s1 + 0x70] = a0\n  3061: jump @49 if a1 == 0\n      : @48 (gas: 3)\n  3064: i32 a0 = s1 + 0\n  3066: ecalli 15 // 'set_immutable_data'\n  3068: fallthrough\n      : @49 (gas: 3)\n  3069: a0 = u64 [sp + 0x98]\n  3073: a1 = 0\n  3075: ra = 32, jump @0\n      : @50 [@dyn 16] (gas: 6)\n  3080: i32 a1 = a0 + 0\n  3082: a0 = 0\n  3084: a2 = 0\n  3086: ra = 0x22\n  3089: ecalli 14 // 'seal_return'\n  3091: fallthrough\n      : @51 [@dyn 17] (gas: 9)\n  3092: sp = sp + 0xfffffffffffffe80\n  3096: u64 [sp + 0x178] = ra\n  3100: u64 [sp + 0x170] = s0\n  3104: u64 [sp + 0x168] = s1\n  3108: s0 = sp + 0x180\n  3112: sp = sp & 0xffffffffffffffe0\n  3115: a0 = 0x40\n  3118: a1 = 0x20\n  3121: ra = 36, jump @0\n      : @52 [@dyn 18] (gas: 35)\n  3126: u8 [a0 + 31] = 0x80\n  3131: u8 [a0 + 30] = 0\n  3134: u8 [a0 + 29] = 0\n  3137: u8 [a0 + 28] = 0\n  3140: u8 [a0 + 27] = 0\n  3143: u8 [a0 + 26] = 0\n  3146: u8 [a0 + 25] = 0\n  3149: u8 [a0 + 24] = 0\n  3152: u8 [a0 + 23] = 0\n  3155: u8 [a0 + 22] = 0\n  3158: u8 [a0 + 21] = 0\n  3161: u8 [a0 + 20] = 0\n  3164: u8 [a0 + 19] = 0\n  3167: u8 [a0 + 18] = 0\n  3170: u8 [a0 + 17] = 0\n  3173: u8 [a0 + 16] = 0\n  3176: u8 [a0 + 15] = 0\n  3179: u8 [a0 + 14] = 0\n  3182: u8 [a0 + 13] = 0\n  3185: u8 [a0 + 12] = 0\n  3188: u8 [a0 + 11] = 0\n  3191: u8 [a0 + 10] = 0\n  3194: u8 [a0 + 9] = 0\n  3197: u8 [a0 + 8] = 0\n  3200: u8 [a0 + 7] = 0\n  3203: u8 [a0 + 3] = 0\n  3206: s1 = 0x20078\n  3211: u8 [a0 + 2] = 0\n  3214: u8 [a0 + 1] = 0\n  3217: u8 [a0 + 0] = 0\n  3219: a1 = i32 [0x20078]\n  3224: u8 [a0 + 6] = 0\n  3227: u8 [a0 + 5] = 0\n  3230: u8 [a0 + 4] = 0\n  3233: jump @105 if a1 <u 4\n      : @53 (gas: 4)\n  3238: i32 a0 = sp + 0x120\n  3242: a1 = 0\n  3244: ecalli 3 // 'call_data_load'\n  3246: fallthrough\n      : @54 (gas: 2)\n  3247: a0 = i32 [sp + 0x13c]\n  3251: jump @61 if a0 >s 140331138\n      : @55 (gas: 1)\n  3258: jump @67 if a0 >s 3659590761\n      : @56 (gas: 1)\n  3266: jump @77 if a0 <=s 2687873533\n      : @57 (gas: 1)\n  3274: jump @93 if a0 == 2687873534\n      : @58 (gas: 1)\n  3282: jump @89 if a0 == 2780915534\n      : @59 (gas: 1)\n  3290: jump @104 if a0 != 3294232917\n      : @60 (gas: 14)\n  3298: ra = 0x26\n  3301: sp = sp + 0xffffffffffffffa0\n  3304: u64 [sp + 0x58] = ra\n  3307: u64 [sp + 0x50] = s0\n  3310: u64 [sp + 0x48] = s1\n  3313: s0 = sp + 0x60\n  3316: sp = sp & 0xffffffffffffffe0\n  3319: u64 [sp + 56] = 0\n  3322: u64 [sp + 48] = 0\n  3325: u64 [sp + 40] = 0\n  3328: u64 [sp + 32] = 0\n  3331: i32 a0 = sp + 0x20\n  3334: ecalli 17 // 'value_transferred'\n  3336: jump @653\n      : @61 [@dyn 19] (gas: 1)\n  3340: jump @72 if a0 >s 1435413322\n      : @62 (gas: 1)\n  3348: jump @80 if a0 <=s 296549180\n      : @63 (gas: 1)\n  3356: jump @94 if a0 == 296549181\n      : @64 (gas: 1)\n  3364: jump @90 if a0 == 599041955\n      : @65 (gas: 1)\n  3372: jump @104 if a0 != 693191810\n      : @66 (gas: 14)\n  3380: ra = 0x28\n  3383: sp = sp + 0xfffffffffffffda0\n  3387: u64 [sp + 0x258] = ra\n  3391: u64 [sp + 0x250] = s0\n  3395: u64 [sp + 0x248] = s1\n  3399: s0 = sp + 0x260\n  3403: sp = sp & 0xffffffffffffffe0\n  3406: u64 [sp + 568] = 0\n  3410: u64 [sp + 560] = 0\n  3414: u64 [sp + 552] = 0\n  3418: u64 [sp + 544] = 0\n  3422: i32 a0 = sp + 0x220\n  3426: ecalli 17 // 'value_transferred'\n  3428: jump @482\n      : @67 [@dyn 20] (gas: 1)\n  3431: jump @83 if a0 <=s 3878033030\n      : @68 (gas: 1)\n  3439: jump @95 if a0 == 3878033031\n      : @69 (gas: 1)\n  3447: jump @91 if a0 == 3879056522\n      : @70 (gas: 1)\n  3455: jump @104 if a0 != 4079303779\n      : @71 (gas: 14)\n  3463: ra = 0x2a\n  3466: sp = sp + 0xffffffffffffff60\n  3470: u64 [sp + 0x98] = ra\n  3474: u64 [sp + 0x90] = s0\n  3478: u64 [sp + 0x88] = s1\n  3482: s0 = sp + 0xa0\n  3486: sp = sp & 0xffffffffffffffe0\n  3489: u64 [sp + 56] = 0\n  3492: u64 [sp + 48] = 0\n  3495: u64 [sp + 40] = 0\n  3498: u64 [sp + 32] = 0\n  3501: i32 a0 = sp + 0x20\n  3504: ecalli 17 // 'value_transferred'\n  3506: jump @727\n      : @72 [@dyn 21] (gas: 1)\n  3510: jump @86 if a0 <=s 1590259572\n      : @73 (gas: 1)\n  3518: jump @96 if a0 == 1590259573\n      : @74 (gas: 1)\n  3526: jump @92 if a0 == 1616468681\n      : @75 (gas: 1)\n  3534: jump @104 if a0 != 1921311766\n      : @76 (gas: 14)\n  3542: ra = 0x2c\n  3545: sp = sp + 0xfffffffffffffec0\n  3549: u64 [sp + 0x138] = ra\n  3553: u64 [sp + 0x130] = s0\n  3557: u64 [sp + 0x128] = s1\n  3561: s0 = sp + 0x140\n  3565: sp = sp & 0xffffffffffffffe0\n  3568: u64 [sp + 280] = 0\n  3572: u64 [sp + 272] = 0\n  3576: u64 [sp + 264] = 0\n  3580: u64 [sp + 256] = 0\n  3584: i32 a0 = sp + 0x100\n  3588: ecalli 17 // 'value_transferred'\n  3590: jump @561\n      : @77 [@dyn 22] (gas: 1)\n  3594: jump @97 if a0 == 2207448625\n      : @78 (gas: 1)\n  3602: jump @104 if a0 != 2291687109\n      : @79 (gas: 1)\n  3610: ra = 46, jump @608\n      : @80 [@dyn 23] (gas: 1)\n  3616: jump @98 if a0 == 140331139\n      : @81 (gas: 1)\n  3624: jump @104 if a0 != 291606966\n      : @82 (gas: 14)\n  3632: ra = 0x30\n  3635: sp = sp + 0xfffffffffffffec0\n  3639: u64 [sp + 0x138] = ra\n  3643: u64 [sp + 0x130] = s0\n  3647: u64 [sp + 0x128] = s1\n  3651: s0 = sp + 0x140\n  3655: sp = sp & 0xffffffffffffffe0\n  3658: u64 [sp + 280] = 0\n  3662: u64 [sp + 272] = 0\n  3666: u64 [sp + 264] = 0\n  3670: u64 [sp + 256] = 0\n  3674: i32 a0 = sp + 0x100\n  3678: ecalli 17 // 'value_transferred'\n  3680: jump @392\n      : @83 [@dyn 24] (gas: 1)\n  3683: jump @99 if a0 == 3659590762\n      : @84 (gas: 1)\n  3691: jump @104 if a0 != 3748163053\n      : @85 (gas: 1)\n  3699: ra = 50, jump @684\n      : @86 [@dyn 25] (gas: 1)\n  3705: jump @100 if a0 == 1435413323\n      : @87 (gas: 1)\n  3713: jump @104 if a0 != 1550084954\n      : @88 (gas: 1)\n  3721: ra = 52, jump @513\n      : @89 [@dyn 26] (gas: 1)\n  3726: ra = 54, jump @637\n      : @90 [@dyn 27] (gas: 14)\n  3732: ra = 0x38\n  3735: sp = sp + 0xffffffffffffff60\n  3739: u64 [sp + 0x98] = ra\n  3743: u64 [sp + 0x90] = s0\n  3747: u64 [sp + 0x88] = s1\n  3751: s0 = sp + 0xa0\n  3755: sp = sp & 0xffffffffffffffe0\n  3758: u64 [sp + 56] = 0\n  3761: u64 [sp + 48] = 0\n  3764: u64 [sp + 40] = 0\n  3767: u64 [sp + 32] = 0\n  3770: i32 a0 = sp + 0x20\n  3773: ecalli 17 // 'value_transferred'\n  3775: jump @434\n      : @91 [@dyn 28] (gas: 1)\n  3778: ra = 58, jump @715\n      : @92 [@dyn 29] (gas: 1)\n  3784: ra = 60, jump @548\n      : @93 [@dyn 30] (gas: 14)\n  3790: ra = 0x3e\n  3793: sp = sp + 0xffffffffffffffa0\n  3796: u64 [sp + 0x58] = ra\n  3799: u64 [sp + 0x50] = s0\n  3802: u64 [sp + 0x48] = s1\n  3805: s0 = sp + 0x60\n  3808: sp = sp & 0xffffffffffffffe0\n  3811: u64 [sp + 56] = 0\n  3814: u64 [sp + 48] = 0\n  3817: u64 [sp + 40] = 0\n  3820: u64 [sp + 32] = 0\n  3823: i32 a0 = sp + 0x20\n  3826: ecalli 17 // 'value_transferred'\n  3828: jump @624\n      : @94 [@dyn 31] (gas: 13)\n  3832: ra = 0x40\n  3835: sp = sp + 0xffffffffffffff80\n  3838: u64 [sp + 0x78] = ra\n  3841: u64 [sp + 0x70] = s0\n  3844: s0 = sp + 0x80\n  3848: sp = sp & 0xffffffffffffffe0\n  3851: u64 [sp + 56] = 0\n  3854: u64 [sp + 48] = 0\n  3857: u64 [sp + 40] = 0\n  3860: u64 [sp + 32] = 0\n  3863: i32 a0 = sp + 0x20\n  3866: ecalli 17 // 'value_transferred'\n  3868: jump @421\n      : @95 [@dyn 32] (gas: 1)\n  3871: ra = 66, jump @704\n      : @96 [@dyn 33] (gas: 14)\n  3877: ra = 0x44\n  3880: sp = sp + 0xffffffffffffff20\n  3884: u64 [sp + 0xd8] = ra\n  3888: u64 [sp + 0xd0] = s0\n  3892: u64 [sp + 0xc8] = s1\n  3896: s0 = sp + 0xe0\n  3900: sp = sp & 0xffffffffffffffe0\n  3903: u64 [sp + 152] = 0\n  3907: u64 [sp + 144] = 0\n  3911: u64 [sp + 136] = 0\n  3915: u64 [sp + 128] = 0\n  3919: i32 a0 = sp + 0x80\n  3923: ecalli 17 // 'value_transferred'\n  3925: jump @524\n      : @97 [@dyn 34] (gas: 14)\n  3929: ra = 0x46\n  3932: sp = sp + 0xfffffffffffffd40\n  3936: u64 [sp + 0x2b8] = ra\n  3940: u64 [sp + 0x2b0] = s0\n  3944: u64 [sp + 0x2a8] = s1\n  3948: s0 = sp + 0x2c0\n  3952: sp = sp & 0xffffffffffffffe0\n  3955: u64 [sp + 632] = 0\n  3959: u64 [sp + 624] = 0\n  3963: u64 [sp + 616] = 0\n  3967: u64 [sp + 608] = 0\n  3971: i32 a0 = sp + 0x260\n  3975: ecalli 17 // 'value_transferred'\n  3977: jump @596\n      : @98 [@dyn 35] (gas: 14)\n  3981: ra = 0x48\n  3984: sp = sp + 0xffffffffffffffa0\n  3987: u64 [sp + 0x58] = ra\n  3990: u64 [sp + 0x50] = s0\n  3993: u64 [sp + 0x48] = s1\n  3996: s0 = sp + 0x60\n  3999: sp = sp & 0xffffffffffffffe0\n  4002: u64 [sp + 56] = 0\n  4005: u64 [sp + 48] = 0\n  4008: u64 [sp + 40] = 0\n  4011: u64 [sp + 32] = 0\n  4014: i32 a0 = sp + 0x20\n  4017: ecalli 17 // 'value_transferred'\n  4019: jump @330\n      : @99 [@dyn 36] (gas: 14)\n  4022: ra = 0x4a\n  4025: sp = sp + 0xffffffffffffffa0\n  4028: u64 [sp + 0x58] = ra\n  4031: u64 [sp + 0x50] = s0\n  4034: u64 [sp + 0x48] = s1\n  4037: s0 = sp + 0x60\n  4040: sp = sp & 0xffffffffffffffe0\n  4043: u64 [sp + 56] = 0\n  4046: u64 [sp + 48] = 0\n  4049: u64 [sp + 40] = 0\n  4052: u64 [sp + 32] = 0\n  4055: i32 a0 = sp + 0x20\n  4058: ecalli 17 // 'value_transferred'\n  4060: jump @671\n      : @100 [@dyn 37] (gas: 7)\n  4064: u64 [sp + 344] = 0\n  4068: u64 [sp + 336] = 0\n  4072: u64 [sp + 328] = 0\n  4076: u64 [sp + 320] = 0\n  4080: i32 a0 = sp + 0x140\n  4084: ecalli 17 // 'value_transferred'\n  4086: fallthrough\n      : @101 (gas: 8)\n  4087: a0 = u64 [sp + 0x150]\n  4091: a1 = u64 [sp + 0x158]\n  4095: a2 = u64 [sp + 0x148]\n  4099: a3 = u64 [sp + 0x140]\n  4103: a1 = a1 | a2\n  4106: a0 = a0 | a3\n  4109: a0 = a0 | a1\n  4112: jump @109 if a0 != 0\n      : @102 (gas: 13)\n  4116: a0 = u32 [s1]\n  4118: u64 [sp + 152] = 0\n  4122: u64 [sp + 144] = 0\n  4126: u64 [sp + 136] = 0\n  4130: u64 [sp + 0x80] = a0\n  4134: u64 [sp + 184] = 0\n  4138: u64 [sp + 176] = 0\n  4142: u64 [sp + 160] = 0x4\n  4147: a0 = sp + 0xc0\n  4151: a1 = sp + 0xa0\n  4155: a2 = sp + 0x80\n  4159: u64 [sp + 168] = 0\n  4163: ra = 76, jump @496\n      : @103 [@dyn 38] (gas: 30)\n  4168: a0 = u64 [sp + 0xc0]\n  4172: u64 [sp + 0x18] = a0\n  4175: t1 = u64 [sp + 0xc8]\n  4179: t2 = u64 [sp + 0xd0]\n  4183: ra = u64 [sp + 0xd8]\n  4187: t0 = u64 [sp + 0xe0]\n  4191: a5 = u64 [sp + 0xe8]\n  4195: s1 = u64 [sp + 0xf0]\n  4199: a4 = u64 [sp + 0xf8]\n  4203: a3 = u64 [sp + 0x100]\n  4207: a1 = u64 [sp + 0x108]\n  4211: a2 = u64 [sp + 0x110]\n  4215: a0 = u64 [sp + 0x118]\n  4219: u64 [sp + 0x38] = a0\n  4222: u64 [sp + 0x30] = a2\n  4225: u64 [sp + 0x28] = a1\n  4228: u64 [sp + 0x20] = a3\n  4231: u64 [sp + 0x58] = a4\n  4234: u64 [sp + 0x50] = s1\n  4237: u64 [sp + 0x48] = a5\n  4240: u64 [sp + 0x40] = t0\n  4243: u64 [sp + 0x78] = ra\n  4246: u64 [sp + 0x70] = t2\n  4249: u64 [sp + 0x68] = t1\n  4252: a0 = sp + 0x60\n  4255: a1 = sp + 0x40\n  4258: a2 = sp + 0x20\n  4261: a3 = u64 [sp + 0x18]\n  4264: u64 [sp + 0x60] = a3\n  4267: ra = 78, jump @866\n      : @104 [@dyn 39] (gas: 2)\n  4273: a1 = i32 [s1]\n  4275: fallthrough\n      : @105 (gas: 1)\n  4276: jump @107 if a1 == 0\n      : @106 (gas: 1)\n  4279: ra = 80, jump @444\n      : @107 [@dyn 40] (gas: 2)\n  4284: a0 = 0\n  4286: ra = 82, jump @0\n      : @108 [@dyn 41] (gas: 5)\n  4291: i32 a1 = a0 + 0\n  4293: a0 = 0\n  4295: a2 = 0\n  4297: ecalli 14 // 'seal_return'\n  4299: fallthrough\n      : @109 (gas: 3)\n  4300: a0 = 0\n  4302: a1 = 0\n  4304: ra = 84, jump @0\n      : @110 [@dyn 42] (gas: 6)\n  4309: i32 a1 = a0 + 0\n  4311: a0 = 0x1\n  4314: a2 = 0\n  4316: ra = 0x56\n  4319: ecalli 14 // 'seal_return'\n  4321: fallthrough\n      : @111 [@dyn 43] (gas: 7)\n  4322: sp = sp + 0xfffffffffffffff0\n  4325: u64 [sp + 0x8] = ra\n  4328: u64 [sp] = s0\n  4330: s0 = a0\n  4332: a0 = 0x40\n  4335: a1 = 0x20\n  4338: ra = 88, jump @0\n      : @112 [@dyn 44] (gas: 100)\n  4343: a1 = u8 [a0 + 0x1]\n  4346: a2 = u8 [a0]\n  4348: a3 = u8 [a0 + 0x2]\n  4351: a4 = u8 [a0 + 0x3]\n  4354: a1 = a1 << 0x8\n  4357: a1 = a1 | a2\n  4360: a3 = a3 << 0x10\n  4363: a4 = a4 << 0x18\n  4366: a3 = a3 | a4\n  4369: a1 = a1 | a3\n  4372: a2 = u8 [a0 + 0x5]\n  4375: a3 = u8 [a0 + 0x4]\n  4378: a4 = u8 [a0 + 0x6]\n  4381: a5 = u8 [a0 + 0x7]\n  4384: a2 = a2 << 0x8\n  4387: a2 = a2 | a3\n  4390: a4 = a4 << 0x10\n  4393: a5 = a5 << 0x18\n  4396: a4 = a4 | a5\n  4399: a2 = a2 | a4\n  4402: a2 = a2 << 0x20\n  4405: t0 = a2 | a1\n  4408: a2 = u8 [a0 + 0x9]\n  4411: a3 = u8 [a0 + 0x8]\n  4414: a4 = u8 [a0 + 0xa]\n  4417: a5 = u8 [a0 + 0xb]\n  4420: a2 = a2 << 0x8\n  4423: a2 = a2 | a3\n  4426: a4 = a4 << 0x10\n  4429: a5 = a5 << 0x18\n  4432: a4 = a4 | a5\n  4435: a2 = a2 | a4\n  4438: a3 = u8 [a0 + 0xd]\n  4441: a4 = u8 [a0 + 0xc]\n  4444: a5 = u8 [a0 + 0xe]\n  4447: a1 = u8 [a0 + 0xf]\n  4450: a3 = a3 << 0x8\n  4453: a3 = a3 | a4\n  4456: a5 = a5 << 0x10\n  4459: a1 = a1 << 0x18\n  4462: a1 = a1 | a5\n  4465: a1 = a1 | a3\n  4468: a1 = a1 << 0x20\n  4471: t1 = a1 | a2\n  4474: a1 = u8 [a0 + 0x11]\n  4477: a3 = u8 [a0 + 0x10]\n  4480: a4 = u8 [a0 + 0x12]\n  4483: a5 = u8 [a0 + 0x13]\n  4486: a1 = a1 << 0x8\n  4489: a1 = a1 | a3\n  4492: a4 = a4 << 0x10\n  4495: a5 = a5 << 0x18\n  4498: a4 = a4 | a5\n  4501: a1 = a1 | a4\n  4504: a3 = u8 [a0 + 0x15]\n  4507: a4 = u8 [a0 + 0x14]\n  4510: a5 = u8 [a0 + 0x16]\n  4513: a2 = u8 [a0 + 0x17]\n  4516: a3 = a3 << 0x8\n  4519: a3 = a3 | a4\n  4522: a5 = a5 << 0x10\n  4525: a2 = a2 << 0x18\n  4528: a2 = a2 | a5\n  4531: a2 = a2 | a3\n  4534: a2 = a2 << 0x20\n  4537: a3 = a2 | a1\n  4540: a1 = u8 [a0 + 0x19]\n  4543: a2 = u8 [a0 + 0x18]\n  4546: a4 = u8 [a0 + 0x1a]\n  4549: a5 = u8 [a0 + 0x1b]\n  4552: a1 = a1 << 0x8\n  4555: a1 = a1 | a2\n  4558: a4 = a4 << 0x10\n  4561: a5 = a5 << 0x18\n  4564: a4 = a4 | a5\n  4567: a1 = a1 | a4\n  4570: a2 = u8 [a0 + 0x1d]\n  4573: a4 = u8 [a0 + 0x1c]\n  4576: a5 = u8 [a0 + 0x1e]\n  4579: a0 = u8 [a0 + 0x1f]\n  4582: a2 = a2 << 0x8\n  4585: a2 = a2 | a4\n  4588: a5 = a5 << 0x10\n  4591: a0 = a0 << 0x18\n  4594: a0 = a0 | a5\n  4597: a0 = a0 | a2\n  4600: a0 = a0 << 0x20\n  4603: a0 = a0 | a1\n  4606: a0 = reverse a0\n  4608: a1 = reverse a3\n  4610: a2 = reverse t1\n  4612: a3 = reverse t0\n  4614: u64 [s0 + 0x18] = a3\n  4617: u64 [s0 + 0x10] = a2\n  4620: u64 [s0 + 0x8] = a1\n  4623: u64 [s0] = a0\n  4625: ra = u64 [sp + 0x8]\n  4628: s0 = u64 [sp]\n  4630: sp = sp + 0x10\n  4633: ret\n      : @113 (gas: 18)\n  4635: sp = sp + 0xffffffffffffff60\n  4639: u64 [sp + 0x98] = ra\n  4643: u64 [sp + 0x90] = s0\n  4647: u64 [sp + 0x88] = s1\n  4651: s0 = sp + 0xa0\n  4655: sp = sp & 0xfffffffffffffff0\n  4658: a2 = u64 [a1 + 0x18]\n  4661: u64 [sp + 0x30] = a2\n  4664: a2 = u64 [a1 + 0x10]\n  4667: u64 [sp + 0x28] = a2\n  4670: a2 = u64 [a1 + 0x8]\n  4673: u64 [sp + 0x20] = a2\n  4676: a1 = u64 [a1]\n  4678: u64 [sp + 0x18] = a1\n  4681: u64 [sp + 0x38] = a0\n  4684: a0 = 0x40\n  4687: a1 = 0x20\n  4690: ra = 90, jump @0\n      : @114 [@dyn 45] (gas: 130)\n  4695: a1 = u8 [a0 + 0x19]\n  4698: a2 = u8 [a0 + 0x18]\n  4701: a3 = u8 [a0 + 0x1a]\n  4704: a4 = u8 [a0 + 0x1b]\n  4707: a1 = a1 << 0x8\n  4710: a1 = a1 | a2\n  4713: a3 = a3 << 0x10\n  4716: a4 = a4 << 0x18\n  4719: a3 = a3 | a4\n  4722: a1 = a1 | a3\n  4725: a2 = u8 [a0 + 0x1d]\n  4728: a3 = u8 [a0 + 0x1c]\n  4731: a4 = u8 [a0 + 0x1e]\n  4734: a5 = u8 [a0 + 0x1f]\n  4737: a2 = a2 << 0x8\n  4740: a2 = a2 | a3\n  4743: a4 = a4 << 0x10\n  4746: a5 = a5 << 0x18\n  4749: a4 = a4 | a5\n  4752: a2 = a2 | a4\n  4755: a2 = a2 << 0x20\n  4758: t0 = a2 | a1\n  4761: a2 = u8 [a0 + 0x11]\n  4764: a3 = u8 [a0 + 0x10]\n  4767: a4 = u8 [a0 + 0x12]\n  4770: a5 = u8 [a0 + 0x13]\n  4773: a2 = a2 << 0x8\n  4776: a2 = a2 | a3\n  4779: a4 = a4 << 0x10\n  4782: a5 = a5 << 0x18\n  4785: a4 = a4 | a5\n  4788: a2 = a2 | a4\n  4791: a3 = u8 [a0 + 0x15]\n  4794: a4 = u8 [a0 + 0x14]\n  4797: a5 = u8 [a0 + 0x16]\n  4800: s1 = u8 [a0 + 0x17]\n  4803: a3 = a3 << 0x8\n  4806: a3 = a3 | a4\n  4809: a5 = a5 << 0x10\n  4812: s1 = s1 << 0x18\n  4815: a5 = a5 | s1\n  4818: a3 = a3 | a5\n  4821: a3 = a3 << 0x20\n  4824: a2 = a2 | a3\n  4827: a3 = u8 [a0 + 0x9]\n  4830: a4 = u8 [a0 + 0x8]\n  4833: a5 = u8 [a0 + 0xa]\n  4836: s1 = u8 [a0 + 0xb]\n  4839: a3 = a3 << 0x8\n  4842: a3 = a3 | a4\n  4845: a5 = a5 << 0x10\n  4848: s1 = s1 << 0x18\n  4851: a5 = a5 | s1\n  4854: a3 = a3 | a5\n  4857: a4 = u8 [a0 + 0xd]\n  4860: a5 = u8 [a0 + 0xc]\n  4863: s1 = u8 [a0 + 0xe]\n  4866: a1 = u8 [a0 + 0xf]\n  4869: a4 = a4 << 0x8\n  4872: a4 = a4 | a5\n  4875: s1 = s1 << 0x10\n  4878: a1 = a1 << 0x18\n  4881: a1 = a1 | s1\n  4884: a1 = a1 | a4\n  4887: a1 = a1 << 0x20\n  4890: a3 = a3 | a1\n  4893: a1 = u8 [a0 + 0x1]\n  4896: a4 = u8 [a0]\n  4898: a5 = u8 [a0 + 0x2]\n  4901: s1 = u8 [a0 + 0x3]\n  4904: a1 = a1 << 0x8\n  4907: a1 = a1 | a4\n  4910: a5 = a5 << 0x10\n  4913: s1 = s1 << 0x18\n  4916: a5 = a5 | s1\n  4919: a1 = a1 | a5\n  4922: a4 = u8 [a0 + 0x5]\n  4925: a5 = u8 [a0 + 0x4]\n  4928: s1 = u8 [a0 + 0x6]\n  4931: a0 = u8 [a0 + 0x7]\n  4934: a4 = a4 << 0x8\n  4937: a4 = a4 | a5\n  4940: s1 = s1 << 0x10\n  4943: a0 = a0 << 0x18\n  4946: a0 = a0 | s1\n  4949: a0 = a0 | a4\n  4952: a0 = a0 << 0x20\n  4955: a0 = a0 | a1\n  4958: t1 = reverse a0\n  4960: t2 = reverse a3\n  4962: s1 = reverse a2\n  4964: a5 = reverse t0\n  4966: a1 = u64 [sp + 0x18]\n  4969: a0 = a1 + 0x1f\n  4972: a1 = a0 <u a1\n  4975: a3 = u64 [sp + 0x20]\n  4978: a2 = a3 + a1\n  4981: a3 = a2 <u a3\n  4984: a3 = a1 if a1 == 0\n  4987: a1 = u64 [sp + 0x28]\n  4990: a3 = a3 + a1\n  4993: a1 = a3 <u a1\n  4996: a4 = u64 [sp + 0x30]\n  4999: a1 = a1 + a4\n  5002: a0 = a0 & 0xffffffffffffffe0\n  5005: a0 = a0 + a5\n  5008: u64 [sp + 0x28] = a5\n  5011: u64 [sp + 0x10] = a0\n  5014: a4 = a0 <u a5\n  5017: a2 = a2 + s1\n  5020: a5 = a2 + a4\n  5023: a2 = a5 ^ s1\n  5026: u64 [sp + 0x30] = s1\n  5029: a0 = a5 <u s1\n  5032: a0 = a4 if a2 == 0\n  5035: a3 = a3 + t2\n  5038: a4 = a3 + a0\n  5041: s1 = a4 <u a3\n  5044: a2 = a3 <u t2\n  5047: a1 = a1 + t1\n  5050: a1 = a1 + a2\n  5053: s1 = s1 + a1\n  5056: a1 = a4 >u 0\n  5058: a2 = s1 >u 0\n  5060: a2 = a1 if s1 == 0\n  5063: a1 = a4 | s1\n  5066: u64 [sp + 0x8] = a5\n  5069: a3 = a5 >u 0\n  5071: a3 = a2 if a1 != 0\n  5074: jump @118 if a3 != 0\n      : @115 (gas: 8)\n  5078: a1 = a4 <u t2\n  5081: a2 = s1 ^ t1\n  5084: a3 = s1 <u t1\n  5087: a3 = a1 if a2 == 0\n  5090: a1 = a4 ^ t2\n  5093: a1 = a1 | a2\n  5096: a0 = a3 if a1 != 0\n  5099: jump @118 if a0 != 0\n      : @116 (gas: 6)\n  5103: a0 = 0x40\n  5106: a1 = 0x20\n  5109: u64 [sp + 0x20] = t2\n  5112: u64 [sp + 0x18] = t1\n  5115: u64 [sp] = a4\n  5117: ra = 92, jump @0\n      : @117 [@dyn 46] (gas: 82)\n  5122: a1 = reverse s1\n  5124: a2 = u64 [sp]\n  5126: a2 = reverse a2\n  5128: a3 = u64 [sp + 0x8]\n  5131: a3 = reverse a3\n  5133: a4 = u64 [sp + 0x10]\n  5136: a4 = reverse a4\n  5138: u8 [a0 + 0x18] = a4\n  5141: a5 = a4 >> 0x38\n  5144: u8 [a0 + 0x1f] = a5\n  5147: a5 = a4 >> 0x30\n  5150: u8 [a0 + 0x1e] = a5\n  5153: a5 = a4 >> 0x28\n  5156: u8 [a0 + 0x1d] = a5\n  5159: a5 = a4 >> 0x20\n  5162: u8 [a0 + 0x1c] = a5\n  5165: a5 = a4 >> 0x18\n  5168: u8 [a0 + 0x1b] = a5\n  5171: a5 = a4 >> 0x10\n  5174: u8 [a0 + 0x1a] = a5\n  5177: a4 = a4 >> 0x8\n  5180: u8 [a0 + 0x19] = a4\n  5183: u8 [a0 + 0x10] = a3\n  5186: a4 = a3 >> 0x38\n  5189: u8 [a0 + 0x17] = a4\n  5192: a4 = a3 >> 0x30\n  5195: u8 [a0 + 0x16] = a4\n  5198: a4 = a3 >> 0x28\n  5201: u8 [a0 + 0x15] = a4\n  5204: a4 = a3 >> 0x20\n  5207: u8 [a0 + 0x14] = a4\n  5210: a4 = a3 >> 0x18\n  5213: u8 [a0 + 0x13] = a4\n  5216: a4 = a3 >> 0x10\n  5219: u8 [a0 + 0x12] = a4\n  5222: a3 = a3 >> 0x8\n  5225: u8 [a0 + 0x11] = a3\n  5228: u8 [a0 + 0x8] = a2\n  5231: a3 = a2 >> 0x38\n  5234: u8 [a0 + 0xf] = a3\n  5237: a3 = a2 >> 0x30\n  5240: u8 [a0 + 0xe] = a3\n  5243: a3 = a2 >> 0x28\n  5246: u8 [a0 + 0xd] = a3\n  5249: a3 = a2 >> 0x20\n  5252: u8 [a0 + 0xc] = a3\n  5255: a3 = a2 >> 0x18\n  5258: u8 [a0 + 0xb] = a3\n  5261: a3 = a2 >> 0x10\n  5264: u8 [a0 + 0xa] = a3\n  5267: a2 = a2 >> 0x8\n  5270: u8 [a0 + 0x9] = a2\n  5273: u8 [a0] = a1\n  5275: a2 = a1 >> 0x38\n  5278: u8 [a0 + 0x7] = a2\n  5281: a2 = a1 >> 0x30\n  5284: u8 [a0 + 0x6] = a2\n  5287: a2 = a1 >> 0x28\n  5290: u8 [a0 + 0x5] = a2\n  5293: a2 = a1 >> 0x20\n  5296: u8 [a0 + 0x4] = a2\n  5299: a2 = a1 >> 0x18\n  5302: u8 [a0 + 0x3] = a2\n  5305: a2 = a1 >> 0x10\n  5308: u8 [a0 + 0x2] = a2\n  5311: a1 = a1 >> 0x8\n  5314: u8 [a0 + 0x1] = a1\n  5317: a0 = u64 [sp + 0x38]\n  5320: a1 = u64 [sp + 0x28]\n  5323: u64 [a0] = a1\n  5325: a1 = u64 [sp + 0x18]\n  5328: u64 [a0 + 0x18] = a1\n  5331: a1 = u64 [sp + 0x30]\n  5334: u64 [a0 + 0x8] = a1\n  5337: a1 = u64 [sp + 0x20]\n  5340: u64 [a0 + 0x10] = a1\n  5343: sp = s0 + 0xffffffffffffff60\n  5347: ra = u64 [sp + 0x98]\n  5351: s0 = u64 [sp + 0x90]\n  5355: s1 = u64 [sp + 0x88]\n  5359: sp = sp + 0xa0\n  5363: ret\n      : @118 (gas: 8)\n  5365: u64 [sp + 112] = 0\n  5368: u64 [sp + 104] = 0\n  5371: u64 [sp + 96] = 0\n  5374: a0 = 0x4e487b7100000000\n  5384: a1 = sp + 0x60\n  5387: u64 [sp + 0x78] = a0\n  5390: a0 = 0\n  5392: ra = 94, jump @23\n      : @119 [@dyn 47] (gas: 7)\n  5397: u64 [sp + 88] = 0\n  5400: u64 [sp + 80] = 0\n  5403: u64 [sp + 64] = 0x41\n  5407: a0 = 0x4\n  5410: a1 = sp + 0x40\n  5413: u64 [sp + 72] = 0\n  5416: ra = 96, jump @23\n      : @120 [@dyn 48] (gas: 3)\n  5421: a1 = 0x24\n  5424: a0 = 0\n  5426: ra = 98, jump @0\n      : @121 [@dyn 49] (gas: 6)\n  5431: i32 a1 = a0 + 0\n  5433: a0 = 0x1\n  5436: a2 = 0x24\n  5439: ra = 0x64\n  5442: ecalli 14 // 'seal_return'\n  5444: fallthrough\n      : @122 [@dyn 50] (gas: 8)\n  5445: a2 = u32 [a1 + 0x10]\n  5448: a3 = u64 [a1 + 0x8]\n  5451: a1 = u64 [a1]\n  5453: u64 [a0 + 24] = 0\n  5456: u64 [a0 + 0x10] = a2\n  5459: u64 [a0 + 0x8] = a3\n  5462: u64 [a0] = a1\n  5464: ret\n      : @123 (gas: 16)\n  5466: sp = sp + 0xfffffffffffffed0\n  5470: u64 [sp + 0x128] = ra\n  5474: u64 [sp + 0x120] = s0\n  5478: u64 [sp + 0x118] = s1\n  5482: s0 = sp + 0x130\n  5486: sp = sp & 0xfffffffffffffff0\n  5489: a4 = u64 [a2 + 0x18]\n  5492: a5 = u64 [a2 + 0x10]\n  5495: s1 = u64 [a2 + 0x8]\n  5498: u64 [sp + 0x80] = a4\n  5502: u64 [sp + 0x58] = a5\n  5505: a4 = a4 | a5\n  5508: a5 = s1 <u 0x1\n  5511: a5 = 0 if a4 != 0\n  5513: u64 [sp + 0x8] = a0\n  5516: jump @138 if a5 == 0\n      : @124 (gas: 36)\n  5520: a0 = u64 [a3 + 0x18]\n  5523: u64 [sp + 0x20] = a0\n  5526: a0 = u64 [a3 + 0x10]\n  5529: u64 [sp + 0x28] = a0\n  5532: a0 = u64 [a3 + 0x8]\n  5535: u64 [sp + 0x10] = a0\n  5538: a0 = u64 [a3]\n  5540: u64 [sp + 0x18] = a0\n  5543: a2 = u64 [a2]\n  5545: a0 = u64 [a1 + 0x18]\n  5548: u64 [sp + 0x68] = a0\n  5551: a0 = u64 [a1 + 0x10]\n  5554: u64 [sp + 0x70] = a0\n  5557: a0 = u64 [a1 + 0x8]\n  5560: u64 [sp + 0x60] = a0\n  5563: a0 = u64 [a1]\n  5565: u64 [sp + 0x88] = a0\n  5569: a0 = a2 + 0x1f\n  5572: u64 [sp + 0x50] = a2\n  5575: a1 = a0 <u a2\n  5578: a1 = a1 + s1\n  5581: a1 = a1 & 0x1\n  5584: a0 = a0 & 0xffffffffffffffe0\n  5587: a2 = a0 + 0x20\n  5590: a0 = a2 <u a0\n  5593: a3 = a1 + a0\n  5596: a4 = a3 <u a1\n  5599: a4 = a0 if a0 == 0\n  5602: u64 [sp + 232] = 0\n  5606: u64 [sp + 0xd0] = a2\n  5610: u64 [sp + 0xd8] = a3\n  5614: a0 = sp + 0xf0\n  5618: a1 = sp + 0xd0\n  5622: u64 [sp + 0xe0] = a4\n  5626: u64 [sp + 0x48] = s1\n  5629: ra = 102, jump @113\n      : @125 [@dyn 51] (gas: 15)\n  5634: a0 = u64 [sp + 0x108]\n  5638: a2 = u64 [sp + 0x100]\n  5642: a1 = u64 [sp + 0xf8]\n  5646: a3 = u64 [sp + 0xf0]\n  5650: u64 [sp + 0x78] = a0\n  5653: u64 [sp + 0x38] = a1\n  5656: a0 = a0 | a1\n  5659: a1 = a3 | a2\n  5662: a1 = a1 | a0\n  5665: a1 = a1 >> 0x20\n  5668: u64 [sp + 0x40] = a2\n  5671: a0 = a0 | a2\n  5674: a0 = a0 << 0x20\n  5677: a0 = a0 | a1\n  5680: jump @137 if a0 != 0\n      : @126 (gas: 4)\n  5684: i32 a0 = a3 + 0\n  5686: a1 = 0x20\n  5689: u64 [sp + 0x30] = a3\n  5692: ra = 104, jump @0\n      : @127 [@dyn 52] (gas: 105)\n  5697: ra = u64 [sp + 0x50]\n  5700: a1 = u64 [sp + 0x88]\n  5704: a1 = a1 + ra\n  5707: a3 = a1 <u ra\n  5710: s1 = u64 [sp + 0x48]\n  5713: a2 = u64 [sp + 0x60]\n  5716: a2 = a2 + s1\n  5719: a4 = a2 + a3\n  5722: a5 = a4 ^ s1\n  5725: a2 = a4 <u s1\n  5728: a2 = a3 if a5 == 0\n  5731: a5 = u64 [sp + 0x10]\n  5734: t1 = a4 ^ a5\n  5737: a4 = a5 <u a4\n  5740: a5 = u64 [sp + 0x18]\n  5743: t0 = a5 <u a1\n  5746: a1 = u64 [sp + 0x58]\n  5749: a5 = u64 [sp + 0x70]\n  5752: a5 = a5 + a1\n  5755: t0 = a4 if t1 != 0\n  5758: a3 = a5 <u a1\n  5761: t2 = u64 [sp + 0x80]\n  5765: a4 = u64 [sp + 0x68]\n  5768: a4 = a4 + t2\n  5771: a3 = a3 + a4\n  5774: a2 = a2 + a5\n  5777: a4 = a2 <u a5\n  5780: a3 = a3 + a4\n  5783: a5 = u64 [sp + 0x20]\n  5786: a4 = a3 ^ a5\n  5789: a3 = a5 <u a3\n  5792: t1 = u64 [sp + 0x28]\n  5795: a5 = t1 <u a2\n  5798: a3 = a5 if a4 == 0\n  5801: a2 = a2 ^ t1\n  5804: a2 = a2 | a4\n  5807: t0 = a3 if a2 != 0\n  5810: a2 = reverse ra\n  5812: a3 = a2 >> 0x38\n  5815: u8 [a0 + 0x1f] = a3\n  5818: a3 = a2 >> 0x30\n  5821: u8 [a0 + 0x1e] = a3\n  5824: a3 = a2 >> 0x28\n  5827: u8 [a0 + 0x1d] = a3\n  5830: a3 = a2 >> 0x20\n  5833: u8 [a0 + 0x1c] = a3\n  5836: a3 = a2 >> 0x18\n  5839: u8 [a0 + 0x1b] = a3\n  5842: a3 = a2 >> 0x10\n  5845: u8 [a0 + 0x1a] = a3\n  5848: a3 = a2 >> 0x8\n  5851: u8 [a0 + 0x19] = a3\n  5854: a3 = reverse s1\n  5856: u8 [a0 + 0x18] = a2\n  5859: a2 = a3 >> 0x38\n  5862: u8 [a0 + 0x17] = a2\n  5865: a2 = a3 >> 0x30\n  5868: u8 [a0 + 0x16] = a2\n  5871: a2 = a3 >> 0x28\n  5874: u8 [a0 + 0x15] = a2\n  5877: a2 = a3 >> 0x20\n  5880: u8 [a0 + 0x14] = a2\n  5883: a2 = a3 >> 0x18\n  5886: u8 [a0 + 0x13] = a2\n  5889: a2 = a3 >> 0x10\n  5892: u8 [a0 + 0x12] = a2\n  5895: a2 = reverse a1\n  5897: u8 [a0 + 0x10] = a3\n  5900: a3 = a3 >> 0x8\n  5903: u8 [a0 + 0x11] = a3\n  5906: a3 = a2 >> 0x38\n  5909: u8 [a0 + 0xf] = a3\n  5912: a3 = a2 >> 0x30\n  5915: u8 [a0 + 0xe] = a3\n  5918: a3 = a2 >> 0x28\n  5921: u8 [a0 + 0xd] = a3\n  5924: a3 = a2 >> 0x20\n  5927: u8 [a0 + 0xc] = a3\n  5930: a3 = a2 >> 0x18\n  5933: u8 [a0 + 0xb] = a3\n  5936: a3 = a2 >> 0x10\n  5939: u8 [a0 + 0xa] = a3\n  5942: a3 = reverse t2\n  5944: u8 [a0 + 0x8] = a2\n  5947: a2 = a2 >> 0x8\n  5950: u8 [a0 + 0x9] = a2\n  5953: a2 = a3 >> 0x38\n  5956: u8 [a0 + 0x7] = a2\n  5959: a2 = a3 >> 0x30\n  5962: u8 [a0 + 0x6] = a2\n  5965: a2 = a3 >> 0x28\n  5968: u8 [a0 + 0x5] = a2\n  5971: a2 = a3 >> 0x20\n  5974: u8 [a0 + 0x4] = a2\n  5977: a2 = a3 >> 0x18\n  5980: u8 [a0 + 0x3] = a2\n  5983: a2 = a3 >> 0x10\n  5986: u8 [a0 + 0x2] = a2\n  5989: u8 [a0] = a3\n  5991: a3 = a3 >> 0x8\n  5994: u8 [a0 + 0x1] = a3\n  5997: t2 = s1\n  5999: s1 = u64 [sp + 0x88]\n  6003: a5 = u64 [sp + 0x70]\n  6006: jump @142 if t0 != 0\n      : @128 (gas: 11)\n  6010: t1 = a1\n  6012: a2 = u64 [sp + 0x40]\n  6015: a0 = u64 [sp + 0x78]\n  6018: a0 = a0 | a2\n  6021: a1 = 0xffffffe0\n  6031: a4 = u64 [sp + 0x30]\n  6034: a1 = a4 <u a1\n  6037: a3 = u64 [sp + 0x38]\n  6040: a1 = 0 if a3 != 0\n  6042: a1 = 0 if a0 != 0\n  6044: jump @137 if a1 == 0\n      : @129 (gas: 10)\n  6048: a0 = s1 | a5\n  6051: a1 = u64 [sp + 0x68]\n  6054: t0 = u64 [sp + 0x60]\n  6057: a1 = t0 | a1\n  6060: a0 = a0 | a1\n  6063: a0 = a0 >> 0x20\n  6066: a1 = a1 | a5\n  6069: a1 = a1 << 0x20\n  6072: a0 = a0 | a1\n  6075: jump @137 if a0 != 0\n      : @130 (gas: 9)\n  6079: a0 = ra | t1\n  6082: a1 = u64 [sp + 0x80]\n  6086: a1 = t2 | a1\n  6089: a0 = a0 | a1\n  6092: a0 = a0 >> 0x20\n  6095: a1 = a1 | t1\n  6098: a1 = a1 << 0x20\n  6101: a0 = a0 | a1\n  6104: jump @137 if a0 != 0\n      : @131 (gas: 15)\n  6108: a5 = a4 + 0x20\n  6111: u64 [sp + 0x28] = a5\n  6114: a0 = a5 <u a4\n  6117: a1 = a3 + a0\n  6120: u64 [sp + 0x60] = a1\n  6123: a1 = a1 <u a3\n  6126: a1 = a0 if a0 == 0\n  6129: a1 = a1 + a2\n  6132: u64 [sp + 0x68] = a1\n  6135: a0 = a1 <u a2\n  6138: u64 [sp + 0x70] = a0\n  6141: i32 a0 = a5 + 0\n  6143: i32 s1 = ra + 0\n  6145: a1 = s1\n  6147: ra = 106, jump @0\n      : @132 [@dyn 53] (gas: 4)\n  6152: u64 [sp + 0x20] = a0\n  6155: a0 = i32 [sp + 0x88]\n  6159: a1 = s1\n  6161: ra = 108, jump @0\n      : @133 [@dyn 54] (gas: 5)\n  6166: a1 = a0\n  6168: a0 = u64 [sp + 0x20]\n  6171: s1 = u64 [sp + 0x50]\n  6174: a2 = s1\n  6176: ra = 110, jump @8\n      : @134 [@dyn 55] (gas: 31)\n  6181: a1 = u64 [sp + 0x28]\n  6184: a0 = a1 + s1\n  6187: a1 = a0 <u a1\n  6190: a2 = u64 [sp + 0x48]\n  6193: a4 = u64 [sp + 0x60]\n  6196: a2 = a2 + a4\n  6199: a2 = a2 + a1\n  6202: a3 = a2 ^ a4\n  6205: a4 = a2 <u a4\n  6208: a4 = a1 if a3 == 0\n  6211: a1 = u64 [sp + 0x58]\n  6214: a5 = u64 [sp + 0x68]\n  6217: a1 = a1 + a5\n  6220: a4 = a4 + a1\n  6223: a3 = a4 <u a1\n  6226: a1 = a1 <u a5\n  6229: a5 = u64 [sp + 0x80]\n  6233: s1 = u64 [sp + 0x78]\n  6236: a5 = a5 + s1\n  6239: s1 = u64 [sp + 0x70]\n  6242: a5 = a5 + s1\n  6245: a1 = a1 + a5\n  6248: a1 = a1 + a3\n  6251: a3 = a0 | a4\n  6254: a1 = a1 | a2\n  6257: a3 = a3 | a1\n  6260: a3 = a3 >> 0x20\n  6263: a1 = a1 | a4\n  6266: a1 = a1 << 0x20\n  6269: a1 = a1 | a3\n  6272: jump @137 if a1 != 0\n      : @135 (gas: 3)\n  6276: i32 a0 = a0 + 0\n  6278: a1 = 0x20\n  6281: ra = 112, jump @0\n      : @136 [@dyn 56] (gas: 47)\n  6286: u8 [a0 + 31] = 0\n  6289: u8 [a0 + 30] = 0\n  6292: u8 [a0 + 29] = 0\n  6295: u8 [a0 + 28] = 0\n  6298: u8 [a0 + 27] = 0\n  6301: u8 [a0 + 26] = 0\n  6304: u8 [a0 + 25] = 0\n  6307: u8 [a0 + 24] = 0\n  6310: u8 [a0 + 23] = 0\n  6313: u8 [a0 + 22] = 0\n  6316: u8 [a0 + 21] = 0\n  6319: u8 [a0 + 20] = 0\n  6322: u8 [a0 + 19] = 0\n  6325: u8 [a0 + 18] = 0\n  6328: u8 [a0 + 17] = 0\n  6331: u8 [a0 + 16] = 0\n  6334: u8 [a0 + 15] = 0\n  6337: u8 [a0 + 14] = 0\n  6340: u8 [a0 + 13] = 0\n  6343: u8 [a0 + 12] = 0\n  6346: u8 [a0 + 11] = 0\n  6349: u8 [a0 + 10] = 0\n  6352: u8 [a0 + 9] = 0\n  6355: u8 [a0 + 8] = 0\n  6358: u8 [a0 + 7] = 0\n  6361: u8 [a0 + 6] = 0\n  6364: u8 [a0 + 5] = 0\n  6367: u8 [a0 + 4] = 0\n  6370: u8 [a0 + 3] = 0\n  6373: u8 [a0 + 2] = 0\n  6376: u8 [a0 + 1] = 0\n  6379: u8 [a0 + 0] = 0\n  6381: a0 = u64 [sp + 0x8]\n  6384: a1 = u64 [sp + 0x30]\n  6387: u64 [a0] = a1\n  6389: a1 = u64 [sp + 0x78]\n  6392: u64 [a0 + 0x18] = a1\n  6395: a1 = u64 [sp + 0x38]\n  6398: u64 [a0 + 0x8] = a1\n  6401: a1 = u64 [sp + 0x40]\n  6404: u64 [a0 + 0x10] = a1\n  6407: sp = s0 + 0xfffffffffffffed0\n  6411: ra = u64 [sp + 0x128]\n  6415: s0 = u64 [sp + 0x120]\n  6419: s1 = u64 [sp + 0x118]\n  6423: sp = sp + 0x130\n  6427: ret\n      : @137 (gas: 1)\n  6429: trap\n      : @138 (gas: 8)\n  6430: u64 [sp + 192] = 0\n  6434: u64 [sp + 184] = 0\n  6438: u64 [sp + 176] = 0\n  6442: a0 = 0x4e487b7100000000\n  6452: a1 = sp + 0xb0\n  6456: u64 [sp + 0xc8] = a0\n  6460: a0 = 0\n  6462: ra = 114, jump @23\n      : @139 [@dyn 57] (gas: 7)\n  6467: u64 [sp + 168] = 0\n  6471: u64 [sp + 160] = 0\n  6475: u64 [sp + 144] = 0x41\n  6480: a0 = 0x4\n  6483: a1 = sp + 0x90\n  6487: u64 [sp + 152] = 0\n  6491: ra = 116, jump @23\n      : @140 [@dyn 58] (gas: 3)\n  6496: a1 = 0x24\n  6499: a0 = 0\n  6501: ra = 118, jump @0\n      : @141 [@dyn 59] (gas: 5)\n  6506: i32 a1 = a0 + 0\n  6508: a0 = 0x1\n  6511: a2 = 0x24\n  6514: ecalli 14 // 'seal_return'\n  6516: fallthrough\n      : @142 (gas: 3)\n  6517: a0 = 0\n  6519: a1 = 0\n  6521: ra = 120, jump @0\n      : @143 [@dyn 60] (gas: 6)\n  6526: i32 a1 = a0 + 0\n  6528: a0 = 0x1\n  6531: a2 = 0\n  6533: ra = 0x7a\n  6536: ecalli 14 // 'seal_return'\n  6538: fallthrough\n      : @144 [@dyn 61] (gas: 37)\n  6539: sp = sp + 0xffffffffffffff20\n  6543: u64 [sp + 0xd8] = ra\n  6547: u64 [sp + 0xd0] = s0\n  6551: u64 [sp + 0xc8] = s1\n  6555: s0 = sp + 0xe0\n  6559: sp = sp & 0xfffffffffffffff0\n  6562: ra = u64 [a1]\n  6564: t1 = u64 [a2 + 0x8]\n  6567: t2 = u64 [a1 + 0x8]\n  6570: a4 = u64 [a2]\n  6572: a3 = ra + 0x1f\n  6575: t0 = a3 <u ra\n  6578: a5 = t2 + t0\n  6581: u64 [sp + 0x20] = a4\n  6584: a3 = a3 <u a4\n  6587: s1 = a5 ^ t1\n  6590: a4 = a5 <u t1\n  6593: a4 = a3 if s1 == 0\n  6596: s1 = u64 [a1 + 0x10]\n  6599: u64 [sp + 0x38] = t2\n  6602: a3 = a5 <u t2\n  6605: a3 = t0 if t0 == 0\n  6608: t0 = u64 [a2 + 0x18]\n  6611: a5 = u64 [a1 + 0x18]\n  6614: t2 = u64 [a2 + 0x10]\n  6617: a3 = a3 + s1\n  6620: a1 = a3 <u s1\n  6623: u64 [sp + 0x30] = a5\n  6626: a1 = a1 + a5\n  6629: a2 = a1 ^ t0\n  6632: a1 = a1 <s t0\n  6635: a5 = a3 <u t2\n  6638: a1 = a5 if a2 == 0\n  6641: a3 = a3 ^ t2\n  6644: a2 = a2 | a3\n  6647: a4 = a1 if a2 != 0\n  6650: jump @150 if a4 == 0\n      : @145 (gas: 15)\n  6654: u64 [sp] = t2\n  6656: u64 [sp + 0x8] = t0\n  6659: u64 [sp + 0x18] = a0\n  6662: u64 [sp + 0x28] = t1\n  6665: a0 = ra | s1\n  6668: a1 = u64 [sp + 0x38]\n  6671: a2 = u64 [sp + 0x30]\n  6674: a1 = a1 | a2\n  6677: a0 = a0 | a1\n  6680: a0 = a0 >> 0x20\n  6683: u64 [sp + 0x10] = s1\n  6686: a1 = a1 | s1\n  6689: a1 = a1 << 0x20\n  6692: a0 = a0 | a1\n  6695: jump @149 if a0 != 0\n      : @146 (gas: 4)\n  6699: i32 a0 = ra + 0\n  6701: a1 = 0x20\n  6704: s1 = ra\n  6706: ra = 124, jump @0\n      : @147 [@dyn 62] (gas: 124)\n  6711: a1 = u8 [a0 + 0x1]\n  6714: a2 = u8 [a0]\n  6716: a3 = u8 [a0 + 0x2]\n  6719: a4 = u8 [a0 + 0x3]\n  6722: a1 = a1 << 0x8\n  6725: a1 = a1 | a2\n  6728: a3 = a3 << 0x10\n  6731: a4 = a4 << 0x18\n  6734: a3 = a3 | a4\n  6737: a1 = a1 | a3\n  6740: a2 = u8 [a0 + 0x5]\n  6743: a3 = u8 [a0 + 0x4]\n  6746: a4 = u8 [a0 + 0x6]\n  6749: a5 = u8 [a0 + 0x7]\n  6752: a2 = a2 << 0x8\n  6755: a2 = a2 | a3\n  6758: a4 = a4 << 0x10\n  6761: a5 = a5 << 0x18\n  6764: a4 = a4 | a5\n  6767: a2 = a2 | a4\n  6770: a2 = a2 << 0x20\n  6773: t0 = a2 | a1\n  6776: a2 = u8 [a0 + 0x9]\n  6779: a3 = u8 [a0 + 0x8]\n  6782: a4 = u8 [a0 + 0xa]\n  6785: a5 = u8 [a0 + 0xb]\n  6788: a2 = a2 << 0x8\n  6791: a2 = a2 | a3\n  6794: a4 = a4 << 0x10\n  6797: a5 = a5 << 0x18\n  6800: a4 = a4 | a5\n  6803: a2 = a2 | a4\n  6806: a3 = u8 [a0 + 0xd]\n  6809: a4 = u8 [a0 + 0xc]\n  6812: a5 = u8 [a0 + 0xe]\n  6815: a1 = u8 [a0 + 0xf]\n  6818: a3 = a3 << 0x8\n  6821: a3 = a3 | a4\n  6824: a5 = a5 << 0x10\n  6827: a1 = a1 << 0x18\n  6830: a1 = a1 | a5\n  6833: a1 = a1 | a3\n  6836: a1 = a1 << 0x20\n  6839: t1 = a1 | a2\n  6842: a1 = u8 [a0 + 0x11]\n  6845: a3 = u8 [a0 + 0x10]\n  6848: a4 = u8 [a0 + 0x12]\n  6851: a5 = u8 [a0 + 0x13]\n  6854: a1 = a1 << 0x8\n  6857: a1 = a1 | a3\n  6860: a4 = a4 << 0x10\n  6863: a5 = a5 << 0x18\n  6866: a4 = a4 | a5\n  6869: a1 = a1 | a4\n  6872: a3 = u8 [a0 + 0x15]\n  6875: a4 = u8 [a0 + 0x14]\n  6878: a5 = u8 [a0 + 0x16]\n  6881: a2 = u8 [a0 + 0x17]\n  6884: a3 = a3 << 0x8\n  6887: a3 = a3 | a4\n  6890: a5 = a5 << 0x10\n  6893: a2 = a2 << 0x18\n  6896: a2 = a2 | a5\n  6899: a2 = a2 | a3\n  6902: a2 = a2 << 0x20\n  6905: a3 = a2 | a1\n  6908: a1 = u8 [a0 + 0x19]\n  6911: a2 = u8 [a0 + 0x18]\n  6914: a4 = u8 [a0 + 0x1a]\n  6917: a5 = u8 [a0 + 0x1b]\n  6920: a1 = a1 << 0x8\n  6923: a1 = a1 | a2\n  6926: a4 = a4 << 0x10\n  6929: a5 = a5 << 0x18\n  6932: a4 = a4 | a5\n  6935: a1 = a1 | a4\n  6938: a2 = u8 [a0 + 0x1d]\n  6941: a4 = u8 [a0 + 0x1c]\n  6944: a5 = u8 [a0 + 0x1e]\n  6947: a0 = u8 [a0 + 0x1f]\n  6950: a2 = a2 << 0x8\n  6953: a2 = a2 | a4\n  6956: a5 = a5 << 0x10\n  6959: a0 = a0 << 0x18\n  6962: a0 = a0 | a5\n  6965: a0 = a0 | a2\n  6968: a0 = a0 << 0x20\n  6971: a0 = a0 | a1\n  6974: t2 = reverse a0\n  6976: ra = reverse a3\n  6978: a1 = reverse t1\n  6980: a2 = reverse t0\n  6982: a3 = s1 + 0x20\n  6985: a5 = a3 <u s1\n  6988: a0 = u64 [sp + 0x38]\n  6991: a4 = a0 + a5\n  6994: s1 = a4 <u a0\n  6997: s1 = a5 if a5 == 0\n  7000: a0 = u64 [sp + 0x10]\n  7003: s1 = s1 + a0\n  7006: a5 = s1 <u a0\n  7009: a0 = u64 [sp + 0x30]\n  7012: a5 = a5 + a0\n  7015: a0 = u64 [sp + 0x8]\n  7018: u64 [sp + 0x58] = a0\n  7021: a0 = u64 [sp]\n  7023: u64 [sp + 0x50] = a0\n  7026: a0 = u64 [sp + 0x28]\n  7029: u64 [sp + 0x48] = a0\n  7032: a0 = u64 [sp + 0x20]\n  7035: u64 [sp + 0x40] = a0\n  7038: u64 [sp + 0x88] = a4\n  7042: u64 [sp + 0x80] = a3\n  7046: u64 [sp + 0x90] = s1\n  7050: u64 [sp + 0x98] = a5\n  7054: u64 [sp + 0x78] = a2\n  7057: u64 [sp + 0x70] = a1\n  7060: u64 [sp + 0x68] = ra\n  7063: a0 = sp + 0xa0\n  7067: a1 = sp + 0x80\n  7071: a2 = sp + 0x60\n  7074: a3 = sp + 0x40\n  7077: u64 [sp + 0x60] = t2\n  7080: ra = 126, jump @123\n      : @148 [@dyn 63] (gas: 15)\n  7085: a0 = u64 [sp + 0xb0]\n  7089: a1 = u64 [sp + 0xb8]\n  7093: a2 = u64 [sp + 0xa0]\n  7097: a3 = u64 [sp + 0xa8]\n  7101: a4 = u64 [sp + 0x18]\n  7104: u64 [a4 + 0x10] = a0\n  7107: u64 [a4 + 0x18] = a1\n  7110: u64 [a4] = a2\n  7112: u64 [a4 + 0x8] = a3\n  7115: sp = s0 + 0xffffffffffffff20\n  7119: ra = u64 [sp + 0xd8]\n  7123: s0 = u64 [sp + 0xd0]\n  7127: s1 = u64 [sp + 0xc8]\n  7131: sp = sp + 0xe0\n  7135: ret\n      : @149 (gas: 1)\n  7137: trap\n      : @150 (gas: 3)\n  7138: a0 = 0\n  7140: a1 = 0\n  7142: ra = 128, jump @0\n      : @151 [@dyn 64] (gas: 6)\n  7148: i32 a1 = a0 + 0\n  7150: a0 = 0x1\n  7153: a2 = 0\n  7155: ra = 0x82\n  7159: ecalli 14 // 'seal_return'\n  7161: fallthrough\n      : @152 [@dyn 65] (gas: 42)\n  7162: sp = sp + 0xfffffffffffffab0\n  7166: u64 [sp + 0x548] = ra\n  7170: u64 [sp + 0x540] = s0\n  7174: u64 [sp + 0x538] = s1\n  7178: s0 = sp + 0x550\n  7182: sp = sp & 0xfffffffffffffff0\n  7185: s1 = u64 [a2 + 0x8]\n  7188: t2 = u64 [a1 + 0x8]\n  7191: a5 = u64 [a2]\n  7193: ra = u64 [a1]\n  7195: t1 = u64 [a2 + 0x10]\n  7198: a4 = s1 ^ t2\n  7201: a3 = s1 <u t2\n  7204: t0 = a5 <u ra\n  7207: a3 = t0 if a4 == 0\n  7210: u64 [sp + 0x408] = s1\n  7214: a4 = s1 - t2\n  7217: a4 = a4 - t0\n  7220: u64 [sp + 0x400] = a5\n  7224: a5 = a5 - ra\n  7227: a5 = a5 <u 0xe0\n  7231: a5 = a5 ^ 0x1\n  7234: t0 = u64 [a1 + 0x10]\n  7237: s1 = a4 >u 0\n  7239: a5 = s1 if a4 != 0\n  7242: a4 = u64 [a2 + 0x18]\n  7245: s1 = u64 [a1 + 0x18]\n  7248: a1 = t1 - t0\n  7251: a2 = a1 - a3\n  7254: a1 = a1 <u a3\n  7257: u64 [sp + 0x3f8] = t1\n  7261: a3 = t1 <u t0\n  7264: u64 [sp + 0x3f0] = a4\n  7268: a4 = a4 - s1\n  7271: a4 = a4 - a3\n  7274: a4 = a4 - a1\n  7277: a1 = a4 >s 0\n  7279: a3 = a2 >u 0\n  7281: a3 = a1 if a4 != 0\n  7284: a2 = a2 | a4\n  7287: a5 = a3 if a2 != 0\n  7290: jump @154 if a5 != 0\n      : @153 (gas: 1)\n  7293: jump @186\n      : @154 (gas: 12)\n  7296: u64 [sp + 0x3d0] = a0\n  7300: a0 = ra | t0\n  7303: u64 [sp + 0x420] = t2\n  7307: u64 [sp + 0x3e0] = s1\n  7311: a1 = t2 | s1\n  7314: a0 = a0 | a1\n  7317: a0 = a0 >> 0x20\n  7320: u64 [sp + 0x3e8] = t0\n  7324: a1 = a1 | t0\n  7327: a1 = a1 << 0x20\n  7330: a0 = a0 | a1\n  7333: jump @156 if a0 == 0\n      : @155 (gas: 1)\n  7336: jump @185\n      : @156 (gas: 5)\n  7339: i32 a0 = ra + 0\n  7341: a1 = 0x20\n  7344: u64 [sp + 0x418] = a0\n  7348: u64 [sp + 0x428] = ra\n  7352: ra = 132, jump @0\n      : @157 [@dyn 66] (gas: 54)\n  7358: a1 = u8 [a0 + 0x9]\n  7361: a2 = u8 [a0 + 0x8]\n  7364: a3 = u8 [a0 + 0xa]\n  7367: a4 = u8 [a0 + 0xb]\n  7370: a1 = a1 << 0x8\n  7373: a1 = a1 | a2\n  7376: a3 = a3 << 0x10\n  7379: a4 = a4 << 0x18\n  7382: a3 = a3 | a4\n  7385: a1 = a1 | a3\n  7388: a2 = u8 [a0 + 0xd]\n  7391: a3 = u8 [a0 + 0xc]\n  7394: a4 = u8 [a0 + 0xe]\n  7397: a5 = u8 [a0 + 0xf]\n  7400: a2 = a2 << 0x8\n  7403: a2 = a2 | a3\n  7406: a4 = a4 << 0x10\n  7409: a5 = a5 << 0x18\n  7412: a4 = a4 | a5\n  7415: a2 = a2 | a4\n  7418: a2 = a2 << 0x20\n  7421: a1 = a1 | a2\n  7424: a2 = u8 [a0 + 0x1]\n  7427: a3 = u8 [a0]\n  7429: a4 = u8 [a0 + 0x2]\n  7432: a5 = u8 [a0 + 0x3]\n  7435: a2 = a2 << 0x8\n  7438: a2 = a2 | a3\n  7441: a4 = a4 << 0x10\n  7444: a5 = a5 << 0x18\n  7447: a4 = a4 | a5\n  7450: a2 = a2 | a4\n  7453: a3 = u8 [a0 + 0x5]\n  7456: a4 = u8 [a0 + 0x4]\n  7459: a5 = u8 [a0 + 0x6]\n  7462: s1 = u8 [a0 + 0x7]\n  7465: a3 = a3 << 0x8\n  7468: a3 = a3 | a4\n  7471: a5 = a5 << 0x10\n  7474: s1 = s1 << 0x18\n  7477: a5 = a5 | s1\n  7480: a3 = a3 | a5\n  7483: a3 = a3 << 0x20\n  7486: a2 = a2 | a3\n  7489: a4 = reverse a2\n  7491: a5 = reverse a1\n  7493: a1 = 0x100000000\n  7503: a2 = a5 ^ a1\n  7506: a2 = a2 | a4\n  7509: a3 = a5 >> 0x20\n  7512: a3 = a3 <u 0x1\n  7515: a3 = 0 if a4 != 0\n  7517: a3 = 0 if a2 == 0\n  7519: jump @159 if a3 != 0\n      : @158 (gas: 1)\n  7522: jump @186\n      : @159 (gas: 13)\n  7525: u64 [sp + 0x3c0] = a5\n  7529: u64 [sp + 0x3c8] = a4\n  7533: a2 = u64 [sp + 0x3e8]\n  7537: a3 = u64 [sp + 0x3e0]\n  7541: a3 = a3 | a2\n  7544: a1 = 0xffffffe0\n  7554: a2 = u64 [sp + 0x428]\n  7558: a1 = a2 <u a1\n  7561: a2 = u64 [sp + 0x420]\n  7565: a1 = 0 if a2 != 0\n  7567: u64 [sp + 0x410] = a3\n  7571: a1 = 0 if a3 != 0\n  7573: jump @161 if a1 != 0\n      : @160 (gas: 1)\n  7576: jump @185\n      : @161 (gas: 36)\n  7579: a1 = u8 [a0 + 0x18]\n  7582: u64 [sp + 0x360] = a1\n  7586: a1 = u8 [a0 + 0x19]\n  7589: u64 [sp + 0x340] = a1\n  7593: a1 = u8 [a0 + 0x1a]\n  7596: u64 [sp + 0x350] = a1\n  7600: a1 = u8 [a0 + 0x1b]\n  7603: u64 [sp + 0x348] = a1\n  7607: a1 = u8 [a0 + 0x1c]\n  7610: u64 [sp + 0x378] = a1\n  7614: a1 = u8 [a0 + 0x1d]\n  7617: u64 [sp + 0x358] = a1\n  7621: a1 = u8 [a0 + 0x1e]\n  7624: u64 [sp + 0x370] = a1\n  7628: a1 = u8 [a0 + 0x1f]\n  7631: u64 [sp + 0x368] = a1\n  7635: a1 = u8 [a0 + 0x10]\n  7638: u64 [sp + 0x3a0] = a1\n  7642: a1 = u8 [a0 + 0x11]\n  7645: u64 [sp + 0x380] = a1\n  7649: a1 = u8 [a0 + 0x12]\n  7652: u64 [sp + 0x390] = a1\n  7656: a1 = u8 [a0 + 0x13]\n  7659: u64 [sp + 0x388] = a1\n  7663: a1 = u8 [a0 + 0x14]\n  7666: u64 [sp + 0x3b8] = a1\n  7670: a1 = u8 [a0 + 0x15]\n  7673: u64 [sp + 0x398] = a1\n  7677: a1 = u8 [a0 + 0x16]\n  7680: u64 [sp + 0x3b0] = a1\n  7684: a0 = u8 [a0 + 0x17]\n  7687: u64 [sp + 0x3a8] = a0\n  7691: a0 = u64 [sp + 0x418]\n  7695: i32 a0 = a0 + 0x20\n  7698: a1 = 0x20\n  7701: ra = 134, jump @0\n      : @162 [@dyn 67] (gas: 10)\n  7707: s1 = 0x100000000\n  7717: u64 [sp + 0x3d8] = s1\n  7721: a1 = 0xffffffc0\n  7731: a2 = u64 [sp + 0x428]\n  7735: a1 = a2 <u a1\n  7738: a2 = u64 [sp + 0x420]\n  7742: a1 = 0 if a2 != 0\n  7744: a2 = u64 [sp + 0x410]\n  7748: a1 = 0 if a2 != 0\n  7750: jump @185 if a1 == 0\n      : @163 (gas: 68)\n  7754: a1 = u8 [a0 + 0x18]\n  7757: u64 [sp + 0x240] = a1\n  7761: a1 = u8 [a0 + 0x19]\n  7764: u64 [sp + 0x220] = a1\n  7768: a1 = u8 [a0 + 0x1a]\n  7771: u64 [sp + 0x230] = a1\n  7775: a1 = u8 [a0 + 0x1b]\n  7778: u64 [sp + 0x228] = a1\n  7782: a1 = u8 [a0 + 0x1c]\n  7785: u64 [sp + 0x258] = a1\n  7789: a1 = u8 [a0 + 0x1d]\n  7792: u64 [sp + 0x238] = a1\n  7796: a1 = u8 [a0 + 0x1e]\n  7799: u64 [sp + 0x250] = a1\n  7803: a1 = u8 [a0 + 0x1f]\n  7806: u64 [sp + 0x248] = a1\n  7810: a1 = u8 [a0 + 0x10]\n  7813: u64 [sp + 0x280] = a1\n  7817: a1 = u8 [a0 + 0x11]\n  7820: u64 [sp + 0x260] = a1\n  7824: a1 = u8 [a0 + 0x12]\n  7827: u64 [sp + 0x270] = a1\n  7831: a1 = u8 [a0 + 0x13]\n  7834: u64 [sp + 0x268] = a1\n  7838: a1 = u8 [a0 + 0x14]\n  7841: u64 [sp + 0x298] = a1\n  7845: a1 = u8 [a0 + 0x15]\n  7848: u64 [sp + 0x278] = a1\n  7852: a1 = u8 [a0 + 0x16]\n  7855: u64 [sp + 0x290] = a1\n  7859: a1 = u8 [a0 + 0x17]\n  7862: u64 [sp + 0x288] = a1\n  7866: a1 = u8 [a0 + 0x8]\n  7869: u64 [sp + 0x2c0] = a1\n  7873: a1 = u8 [a0 + 0x9]\n  7876: u64 [sp + 0x2a0] = a1\n  7880: a1 = u8 [a0 + 0xa]\n  7883: u64 [sp + 0x2b0] = a1\n  7887: a1 = u8 [a0 + 0xb]\n  7890: u64 [sp + 0x2a8] = a1\n  7894: a1 = u8 [a0 + 0xc]\n  7897: u64 [sp + 0x2d8] = a1\n  7901: a1 = u8 [a0 + 0xd]\n  7904: u64 [sp + 0x2b8] = a1\n  7908: a1 = u8 [a0 + 0xe]\n  7911: u64 [sp + 0x2d0] = a1\n  7915: a1 = u8 [a0 + 0xf]\n  7918: u64 [sp + 0x2c8] = a1\n  7922: a1 = u8 [a0]\n  7924: u64 [sp + 0x300] = a1\n  7928: a1 = u8 [a0 + 0x1]\n  7931: u64 [sp + 0x2e0] = a1\n  7935: a1 = u8 [a0 + 0x2]\n  7938: u64 [sp + 0x2f0] = a1\n  7942: a1 = u8 [a0 + 0x3]\n  7945: u64 [sp + 0x2e8] = a1\n  7949: a1 = u8 [a0 + 0x4]\n  7952: u64 [sp + 0x318] = a1\n  7956: a1 = u8 [a0 + 0x5]\n  7959: u64 [sp + 0x2f8] = a1\n  7963: a1 = u8 [a0 + 0x6]\n  7966: u64 [sp + 0x310] = a1\n  7970: a0 = u8 [a0 + 0x7]\n  7973: u64 [sp + 0x308] = a0\n  7977: a0 = u64 [sp + 0x418]\n  7981: i32 a0 = a0 + 0x40\n  7984: a1 = 0x20\n  7987: ra = 136, jump @0\n      : @164 [@dyn 68] (gas: 54)\n  7993: a1 = u8 [a0 + 0x9]\n  7996: a2 = u8 [a0 + 0x8]\n  7999: a3 = u8 [a0 + 0xa]\n  8002: a4 = u8 [a0 + 0xb]\n  8005: a1 = a1 << 0x8\n  8008: a1 = a1 | a2\n  8011: a3 = a3 << 0x10\n  8014: a4 = a4 << 0x18\n  8017: a3 = a3 | a4\n  8020: a1 = a1 | a3\n  8023: a2 = u8 [a0 + 0xd]\n  8026: a3 = u8 [a0 + 0xc]\n  8029: a4 = u8 [a0 + 0xe]\n  8032: a5 = u8 [a0 + 0xf]\n  8035: a2 = a2 << 0x8\n  8038: a2 = a2 | a3\n  8041: a4 = a4 << 0x10\n  8044: a5 = a5 << 0x18\n  8047: a4 = a4 | a5\n  8050: a2 = a2 | a4\n  8053: a2 = a2 << 0x20\n  8056: a1 = a1 | a2\n  8059: a2 = u8 [a0 + 0x1]\n  8062: a3 = u8 [a0]\n  8064: a4 = u8 [a0 + 0x2]\n  8067: a5 = u8 [a0 + 0x3]\n  8070: a2 = a2 << 0x8\n  8073: a2 = a2 | a3\n  8076: a4 = a4 << 0x10\n  8079: a5 = a5 << 0x18\n  8082: a4 = a4 | a5\n  8085: a2 = a2 | a4\n  8088: a3 = u8 [a0 + 0x5]\n  8091: a4 = u8 [a0 + 0x4]\n  8094: a5 = u8 [a0 + 0x6]\n  8097: s1 = u8 [a0 + 0x7]\n  8100: a3 = a3 << 0x8\n  8103: a3 = a3 | a4\n  8106: a5 = a5 << 0x10\n  8109: s1 = s1 << 0x18\n  8112: a5 = a5 | s1\n  8115: a3 = a3 | a5\n  8118: a3 = a3 << 0x20\n  8121: a2 = a2 | a3\n  8124: a3 = reverse a2\n  8126: a4 = reverse a1\n  8128: a1 = u64 [sp + 0x3d8]\n  8132: a1 = a1 ^ a4\n  8135: a1 = a1 | a3\n  8138: a2 = a4 >> 0x20\n  8141: a2 = a2 <u 0x1\n  8144: a2 = 0 if a3 != 0\n  8146: a2 = 0 if a1 == 0\n  8148: jump @186 if a2 == 0\n      : @165 (gas: 12)\n  8152: u64 [sp + 0x320] = a4\n  8156: u64 [sp + 0x328] = a3\n  8160: s1 = 0x100000000\n  8170: u64 [sp + 0x3d8] = s1\n  8174: a1 = 0xffffffa0\n  8184: a2 = u64 [sp + 0x428]\n  8188: a1 = a2 <u a1\n  8191: s1 = u64 [sp + 0x420]\n  8195: a1 = 0 if s1 != 0\n  8197: a2 = u64 [sp + 0x410]\n  8201: a1 = 0 if a2 != 0\n  8203: jump @185 if a1 == 0\n      : @166 (gas: 36)\n  8207: a1 = u8 [a0 + 0x18]\n  8210: u64 [sp + 0x1c0] = a1\n  8214: a1 = u8 [a0 + 0x19]\n  8217: u64 [sp + 0x1a0] = a1\n  8221: a1 = u8 [a0 + 0x1a]\n  8224: u64 [sp + 0x1b0] = a1\n  8228: a1 = u8 [a0 + 0x1b]\n  8231: u64 [sp + 0x1a8] = a1\n  8235: a1 = u8 [a0 + 0x1c]\n  8238: u64 [sp + 0x1d8] = a1\n  8242: a1 = u8 [a0 + 0x1d]\n  8245: u64 [sp + 0x1b8] = a1\n  8249: a1 = u8 [a0 + 0x1e]\n  8252: u64 [sp + 0x1d0] = a1\n  8256: a1 = u8 [a0 + 0x1f]\n  8259: u64 [sp + 0x1c8] = a1\n  8263: a1 = u8 [a0 + 0x10]\n  8266: u64 [sp + 0x200] = a1\n  8270: a1 = u8 [a0 + 0x11]\n  8273: u64 [sp + 0x1e0] = a1\n  8277: a1 = u8 [a0 + 0x12]\n  8280: u64 [sp + 0x1f0] = a1\n  8284: a1 = u8 [a0 + 0x13]\n  8287: u64 [sp + 0x1e8] = a1\n  8291: a1 = u8 [a0 + 0x14]\n  8294: u64 [sp + 0x218] = a1\n  8298: a1 = u8 [a0 + 0x15]\n  8301: u64 [sp + 0x1f8] = a1\n  8305: a1 = u8 [a0 + 0x16]\n  8308: u64 [sp + 0x210] = a1\n  8312: a0 = u8 [a0 + 0x17]\n  8315: u64 [sp + 0x208] = a0\n  8319: a0 = u64 [sp + 0x418]\n  8323: i32 a0 = a0 + 0x60\n  8326: a1 = 0x20\n  8329: ra = 138, jump @0\n      : @167 [@dyn 69] (gas: 8)\n  8335: a1 = u64 [sp + 0x3d8]\n  8339: a1 = a1 + 0xffffffffffffff80\n  8342: a2 = u64 [sp + 0x428]\n  8346: a1 = a2 <u a1\n  8349: a1 = 0 if s1 != 0\n  8351: a2 = u64 [sp + 0x410]\n  8355: a1 = 0 if a2 != 0\n  8357: jump @185 if a1 == 0\n      : @168 (gas: 68)\n  8361: a1 = u8 [a0 + 0x18]\n  8364: u64 [sp + 0xc0] = a1\n  8368: a1 = u8 [a0 + 0x19]\n  8371: u64 [sp + 0xa0] = a1\n  8375: a1 = u8 [a0 + 0x1a]\n  8378: u64 [sp + 0xb0] = a1\n  8382: a1 = u8 [a0 + 0x1b]\n  8385: u64 [sp + 0xa8] = a1\n  8389: a1 = u8 [a0 + 0x1c]\n  8392: u64 [sp + 0xd8] = a1\n  8396: a1 = u8 [a0 + 0x1d]\n  8399: u64 [sp + 0xb8] = a1\n  8403: a1 = u8 [a0 + 0x1e]\n  8406: u64 [sp + 0xd0] = a1\n  8410: a1 = u8 [a0 + 0x1f]\n  8413: u64 [sp + 0xc8] = a1\n  8417: a1 = u8 [a0 + 0x10]\n  8420: u64 [sp + 0x100] = a1\n  8424: a1 = u8 [a0 + 0x11]\n  8427: u64 [sp + 0xe0] = a1\n  8431: a1 = u8 [a0 + 0x12]\n  8434: u64 [sp + 0xf0] = a1\n  8438: a1 = u8 [a0 + 0x13]\n  8441: u64 [sp + 0xe8] = a1\n  8445: a1 = u8 [a0 + 0x14]\n  8448: u64 [sp + 0x118] = a1\n  8452: a1 = u8 [a0 + 0x15]\n  8455: u64 [sp + 0xf8] = a1\n  8459: a1 = u8 [a0 + 0x16]\n  8462: u64 [sp + 0x110] = a1\n  8466: a1 = u8 [a0 + 0x17]\n  8469: u64 [sp + 0x108] = a1\n  8473: a1 = u8 [a0 + 0x8]\n  8476: u64 [sp + 0x140] = a1\n  8480: a1 = u8 [a0 + 0x9]\n  8483: u64 [sp + 0x120] = a1\n  8487: a1 = u8 [a0 + 0xa]\n  8490: u64 [sp + 0x130] = a1\n  8494: a1 = u8 [a0 + 0xb]\n  8497: u64 [sp + 0x128] = a1\n  8501: a1 = u8 [a0 + 0xc]\n  8504: u64 [sp + 0x158] = a1\n  8508: a1 = u8 [a0 + 0xd]\n  8511: u64 [sp + 0x138] = a1\n  8515: a1 = u8 [a0 + 0xe]\n  8518: u64 [sp + 0x150] = a1\n  8522: a1 = u8 [a0 + 0xf]\n  8525: u64 [sp + 0x148] = a1\n  8529: a1 = u8 [a0]\n  8531: u64 [sp + 0x180] = a1\n  8535: a1 = u8 [a0 + 0x1]\n  8538: u64 [sp + 0x160] = a1\n  8542: a1 = u8 [a0 + 0x2]\n  8545: u64 [sp + 0x170] = a1\n  8549: a1 = u8 [a0 + 0x3]\n  8552: u64 [sp + 0x168] = a1\n  8556: a1 = u8 [a0 + 0x4]\n  8559: u64 [sp + 0x198] = a1\n  8563: a1 = u8 [a0 + 0x5]\n  8566: u64 [sp + 0x178] = a1\n  8570: a1 = u8 [a0 + 0x6]\n  8573: u64 [sp + 0x190] = a1\n  8577: a0 = u8 [a0 + 0x7]\n  8580: u64 [sp + 0x188] = a0\n  8584: a0 = u64 [sp + 0x418]\n  8588: i32 a0 = a0 + 0x80\n  8592: a1 = 0x20\n  8595: ra = 140, jump @0\n      : @169 [@dyn 70] (gas: 73)\n  8601: a1 = u8 [a0 + 0x9]\n  8604: a2 = u8 [a0 + 0x8]\n  8607: a3 = u8 [a0 + 0xa]\n  8610: a4 = u8 [a0 + 0xb]\n  8613: a1 = a1 << 0x8\n  8616: a1 = a1 | a2\n  8619: a3 = a3 << 0x10\n  8622: a4 = a4 << 0x18\n  8625: a3 = a3 | a4\n  8628: a1 = a1 | a3\n  8631: a2 = u8 [a0 + 0xd]\n  8634: a3 = u8 [a0 + 0xc]\n  8637: a4 = u8 [a0 + 0xe]\n  8640: a5 = u8 [a0 + 0xf]\n  8643: a2 = a2 << 0x8\n  8646: a2 = a2 | a3\n  8649: a4 = a4 << 0x10\n  8652: a5 = a5 << 0x18\n  8655: a4 = a4 | a5\n  8658: a2 = a2 | a4\n  8661: a2 = a2 << 0x20\n  8664: t0 = a2 | a1\n  8667: a2 = u8 [a0 + 0x1]\n  8670: a3 = u8 [a0]\n  8672: a4 = u8 [a0 + 0x2]\n  8675: a5 = u8 [a0 + 0x3]\n  8678: a2 = a2 << 0x8\n  8681: a2 = a2 | a3\n  8684: a4 = a4 << 0x10\n  8687: a5 = a5 << 0x18\n  8690: a4 = a4 | a5\n  8693: a2 = a2 | a4\n  8696: a3 = u8 [a0 + 0x5]\n  8699: a4 = u8 [a0 + 0x4]\n  8702: a5 = u8 [a0 + 0x6]\n  8705: s1 = u8 [a0 + 0x7]\n  8708: a3 = a3 << 0x8\n  8711: a3 = a3 | a4\n  8714: a5 = a5 << 0x10\n  8717: s1 = s1 << 0x18\n  8720: a5 = a5 | s1\n  8723: a3 = a3 | a5\n  8726: a3 = a3 << 0x20\n  8729: a2 = a2 | a3\n  8732: a3 = u8 [a0 + 0x11]\n  8735: a4 = u8 [a0 + 0x10]\n  8738: a5 = u8 [a0 + 0x12]\n  8741: s1 = u8 [a0 + 0x13]\n  8744: a3 = a3 << 0x8\n  8747: a3 = a3 | a4\n  8750: a5 = a5 << 0x10\n  8753: s1 = s1 << 0x18\n  8756: a5 = a5 | s1\n  8759: a3 = a3 | a5\n  8762: a4 = u8 [a0 + 0x15]\n  8765: a5 = u8 [a0 + 0x14]\n  8768: s1 = u8 [a0 + 0x16]\n  8771: a1 = u8 [a0 + 0x17]\n  8774: a4 = a4 << 0x8\n  8777: a4 = a4 | a5\n  8780: s1 = s1 << 0x10\n  8783: a1 = a1 << 0x18\n  8786: a1 = a1 | s1\n  8789: a1 = a1 | a4\n  8792: a1 = a1 << 0x20\n  8795: a1 = a1 | a3\n  8798: a3 = reverse a1\n  8800: t1 = reverse a2\n  8802: a1 = reverse t0\n  8804: a4 = a1 | t1\n  8807: a5 = a3 <u 0x1\n  8810: a5 = 0 if a4 != 0\n  8812: jump @186 if a5 == 0\n      : @170 (gas: 65)\n  8816: a4 = u8 [a0 + 0x19]\n  8819: a5 = u8 [a0 + 0x18]\n  8822: s1 = u8 [a0 + 0x1a]\n  8825: a2 = u8 [a0 + 0x1b]\n  8828: a4 = a4 << 0x8\n  8831: a4 = a4 | a5\n  8834: s1 = s1 << 0x10\n  8837: a2 = a2 << 0x18\n  8840: a2 = a2 | s1\n  8843: a2 = a2 | a4\n  8846: a4 = u8 [a0 + 0x1d]\n  8849: a5 = u8 [a0 + 0x1c]\n  8852: s1 = u8 [a0 + 0x1e]\n  8855: a0 = u8 [a0 + 0x1f]\n  8858: a4 = a4 << 0x8\n  8861: a4 = a4 | a5\n  8864: s1 = s1 << 0x10\n  8867: a0 = a0 << 0x18\n  8870: a0 = a0 | s1\n  8873: a0 = a0 | a4\n  8876: a0 = a0 << 0x20\n  8879: a0 = a0 | a2\n  8882: a0 = reverse a0\n  8884: a2 = u64 [sp + 0x428]\n  8888: t0 = a0 + a2\n  8891: a0 = t0 <u a0\n  8894: a2 = u64 [sp + 0x420]\n  8898: a2 = a2 + a3\n  8901: t2 = a2 + a0\n  8904: a2 = t2 ^ a3\n  8907: s1 = t2 <u a3\n  8910: s1 = a0 if a2 == 0\n  8913: a0 = u64 [sp + 0x3e8]\n  8917: a0 = a0 + a1\n  8920: s1 = s1 + a0\n  8923: a2 = s1 <u a0\n  8926: a0 = a0 <u a1\n  8929: a1 = u64 [sp + 0x3e0]\n  8933: t1 = t1 + a1\n  8936: a0 = a0 + t1\n  8939: ra = a0 + a2\n  8942: a0 = t0 + 0x1f\n  8945: a1 = a0 <u t0\n  8948: a2 = t2 + a1\n  8951: a3 = a2 <u t2\n  8954: a3 = a1 if a1 == 0\n  8957: t1 = s1 + a3\n  8960: a1 = t1 <u s1\n  8963: a1 = a1 + ra\n  8966: a5 = u64 [sp + 0x408]\n  8970: a4 = a2 ^ a5\n  8973: a2 = a2 <u a5\n  8976: a5 = u64 [sp + 0x400]\n  8980: a0 = a0 <u a5\n  8983: a0 = a2 if a4 != 0\n  8986: a5 = u64 [sp + 0x3f8]\n  8990: a2 = t1 <u a5\n  8993: a4 = u64 [sp + 0x3f0]\n  8997: a3 = a1 ^ a4\n  9000: a1 = a1 <s a4\n  9003: a1 = a2 if a3 == 0\n  9006: a2 = t1 ^ a5\n  9009: a2 = a2 | a3\n  9012: a0 = a1 if a2 != 0\n  9015: jump @187 if a0 == 0\n      : @171 (gas: 11)\n  9019: a0 = t0 | s1\n  9022: u64 [sp + 0x3d8] = t2\n  9026: u64 [sp + 0x330] = ra\n  9030: a1 = t2 | ra\n  9033: a0 = a0 | a1\n  9036: a0 = a0 >> 0x20\n  9039: u64 [sp + 0x338] = s1\n  9043: a1 = a1 | s1\n  9046: a1 = a1 << 0x20\n  9049: a0 = a0 | a1\n  9052: jump @185 if a0 != 0\n      : @172 (gas: 4)\n  9056: i32 a0 = t0 + 0\n  9058: a1 = 0x20\n  9061: s1 = t0\n  9063: ra = 142, jump @0\n      : @173 [@dyn 71] (gas: 124)\n  9069: a1 = u8 [a0 + 0x1]\n  9072: a2 = u8 [a0]\n  9074: a3 = u8 [a0 + 0x2]\n  9077: a4 = u8 [a0 + 0x3]\n  9080: a1 = a1 << 0x8\n  9083: a1 = a1 | a2\n  9086: a3 = a3 << 0x10\n  9089: a4 = a4 << 0x18\n  9092: a3 = a3 | a4\n  9095: a1 = a1 | a3\n  9098: a2 = u8 [a0 + 0x5]\n  9101: a3 = u8 [a0 + 0x4]\n  9104: a4 = u8 [a0 + 0x6]\n  9107: a5 = u8 [a0 + 0x7]\n  9110: a2 = a2 << 0x8\n  9113: a2 = a2 | a3\n  9116: a4 = a4 << 0x10\n  9119: a5 = a5 << 0x18\n  9122: a4 = a4 | a5\n  9125: a2 = a2 | a4\n  9128: a2 = a2 << 0x20\n  9131: t0 = a2 | a1\n  9134: a2 = u8 [a0 + 0x9]\n  9137: a3 = u8 [a0 + 0x8]\n  9140: a4 = u8 [a0 + 0xa]\n  9143: a5 = u8 [a0 + 0xb]\n  9146: a2 = a2 << 0x8\n  9149: a2 = a2 | a3\n  9152: a4 = a4 << 0x10\n  9155: a5 = a5 << 0x18\n  9158: a4 = a4 | a5\n  9161: a2 = a2 | a4\n  9164: a3 = u8 [a0 + 0xd]\n  9167: a4 = u8 [a0 + 0xc]\n  9170: a5 = u8 [a0 + 0xe]\n  9173: a1 = u8 [a0 + 0xf]\n  9176: a3 = a3 << 0x8\n  9179: a3 = a3 | a4\n  9182: a5 = a5 << 0x10\n  9185: a1 = a1 << 0x18\n  9188: a1 = a1 | a5\n  9191: a1 = a1 | a3\n  9194: a1 = a1 << 0x20\n  9197: t1 = a1 | a2\n  9200: a1 = u8 [a0 + 0x11]\n  9203: a3 = u8 [a0 + 0x10]\n  9206: a4 = u8 [a0 + 0x12]\n  9209: a5 = u8 [a0 + 0x13]\n  9212: a1 = a1 << 0x8\n  9215: a1 = a1 | a3\n  9218: a4 = a4 << 0x10\n  9221: a5 = a5 << 0x18\n  9224: a4 = a4 | a5\n  9227: a1 = a1 | a4\n  9230: a3 = u8 [a0 + 0x15]\n  9233: a4 = u8 [a0 + 0x14]\n  9236: a5 = u8 [a0 + 0x16]\n  9239: a2 = u8 [a0 + 0x17]\n  9242: a3 = a3 << 0x8\n  9245: a3 = a3 | a4\n  9248: a5 = a5 << 0x10\n  9251: a2 = a2 << 0x18\n  9254: a2 = a2 | a5\n  9257: a2 = a2 | a3\n  9260: a2 = a2 << 0x20\n  9263: a3 = a2 | a1\n  9266: a1 = u8 [a0 + 0x19]\n  9269: a2 = u8 [a0 + 0x18]\n  9272: a4 = u8 [a0 + 0x1a]\n  9275: a5 = u8 [a0 + 0x1b]\n  9278: a1 = a1 << 0x8\n  9281: a1 = a1 | a2\n  9284: a4 = a4 << 0x10\n  9287: a5 = a5 << 0x18\n  9290: a4 = a4 | a5\n  9293: a1 = a1 | a4\n  9296: a2 = u8 [a0 + 0x1d]\n  9299: a4 = u8 [a0 + 0x1c]\n  9302: a5 = u8 [a0 + 0x1e]\n  9305: a0 = u8 [a0 + 0x1f]\n  9308: a2 = a2 << 0x8\n  9311: a2 = a2 | a4\n  9314: a5 = a5 << 0x10\n  9317: a0 = a0 << 0x18\n  9320: a0 = a0 | a5\n  9323: a0 = a0 | a2\n  9326: a0 = a0 << 0x20\n  9329: a0 = a0 | a1\n  9332: t2 = reverse a0\n  9334: ra = reverse a3\n  9336: a1 = reverse t1\n  9338: a2 = reverse t0\n  9340: a3 = s1 + 0x20\n  9343: a5 = a3 <u s1\n  9346: a0 = u64 [sp + 0x3d8]\n  9350: a4 = a0 + a5\n  9353: s1 = a4 <u a0\n  9356: s1 = a5 if a5 == 0\n  9359: a0 = u64 [sp + 0x338]\n  9363: s1 = s1 + a0\n  9366: a5 = s1 <u a0\n  9369: a0 = u64 [sp + 0x330]\n  9373: a5 = a5 + a0\n  9376: a0 = u64 [sp + 0x3f0]\n  9380: u64 [sp + 0x4c8] = a0\n  9384: a0 = u64 [sp + 0x3f8]\n  9388: u64 [sp + 0x4c0] = a0\n  9392: a0 = u64 [sp + 0x408]\n  9396: u64 [sp + 0x4b8] = a0\n  9400: a0 = u64 [sp + 0x400]\n  9404: u64 [sp + 0x4b0] = a0\n  9408: u64 [sp + 0x4f8] = a4\n  9412: u64 [sp + 0x4f0] = a3\n  9416: u64 [sp + 0x500] = s1\n  9420: u64 [sp + 0x508] = a5\n  9424: u64 [sp + 0x4e8] = a2\n  9428: u64 [sp + 0x4e0] = a1\n  9432: u64 [sp + 0x4d8] = ra\n  9436: a0 = sp + 0x510\n  9440: a1 = sp + 0x4f0\n  9444: a2 = sp + 0x4d0\n  9448: a3 = sp + 0x4b0\n  9452: u64 [sp + 0x4d0] = t2\n  9456: ra = 144, jump @123\n      : @174 [@dyn 72] (gas: 10)\n  9462: s1 = 0x100000000\n  9472: u64 [sp + 0x3d8] = s1\n  9476: a0 = 0xffffff60\n  9486: a1 = u64 [sp + 0x428]\n  9490: a0 = a1 <u a0\n  9493: a1 = u64 [sp + 0x420]\n  9497: a0 = 0 if a1 != 0\n  9499: a1 = u64 [sp + 0x410]\n  9503: a0 = 0 if a1 != 0\n  9505: jump @185 if a0 == 0\n      : @175 (gas: 12)\n  9509: a0 = u64 [sp + 0x528]\n  9513: u64 [sp + 0x330] = a0\n  9517: a0 = u64 [sp + 0x520]\n  9521: u64 [sp + 0x90] = a0\n  9525: a0 = u64 [sp + 0x518]\n  9529: u64 [sp + 0x338] = a0\n  9533: a0 = u64 [sp + 0x510]\n  9537: u64 [sp + 0x98] = a0\n  9541: a0 = u64 [sp + 0x418]\n  9545: i32 a0 = a0 + 0xa0\n  9549: a1 = 0x20\n  9552: ra = 146, jump @0\n      : @176 [@dyn 73] (gas: 54)\n  9558: a1 = u8 [a0 + 0x9]\n  9561: a2 = u8 [a0 + 0x8]\n  9564: a3 = u8 [a0 + 0xa]\n  9567: a4 = u8 [a0 + 0xb]\n  9570: a1 = a1 << 0x8\n  9573: a1 = a1 | a2\n  9576: a3 = a3 << 0x10\n  9579: a4 = a4 << 0x18\n  9582: a3 = a3 | a4\n  9585: a1 = a1 | a3\n  9588: a2 = u8 [a0 + 0xd]\n  9591: a3 = u8 [a0 + 0xc]\n  9594: a4 = u8 [a0 + 0xe]\n  9597: a5 = u8 [a0 + 0xf]\n  9600: a2 = a2 << 0x8\n  9603: a2 = a2 | a3\n  9606: a4 = a4 << 0x10\n  9609: a5 = a5 << 0x18\n  9612: a4 = a4 | a5\n  9615: a2 = a2 | a4\n  9618: a2 = a2 << 0x20\n  9621: a1 = a1 | a2\n  9624: a2 = u8 [a0 + 0x1]\n  9627: a3 = u8 [a0]\n  9629: a4 = u8 [a0 + 0x2]\n  9632: a5 = u8 [a0 + 0x3]\n  9635: a2 = a2 << 0x8\n  9638: a2 = a2 | a3\n  9641: a4 = a4 << 0x10\n  9644: a5 = a5 << 0x18\n  9647: a4 = a4 | a5\n  9650: a2 = a2 | a4\n  9653: a3 = u8 [a0 + 0x5]\n  9656: a4 = u8 [a0 + 0x4]\n  9659: a5 = u8 [a0 + 0x6]\n  9662: s1 = u8 [a0 + 0x7]\n  9665: a3 = a3 << 0x8\n  9668: a3 = a3 | a4\n  9671: a5 = a5 << 0x10\n  9674: s1 = s1 << 0x18\n  9677: a5 = a5 | s1\n  9680: a3 = a3 | a5\n  9683: a3 = a3 << 0x20\n  9686: a2 = a2 | a3\n  9689: a3 = reverse a2\n  9691: a4 = reverse a1\n  9693: a1 = u64 [sp + 0x3d8]\n  9697: a1 = a1 ^ a4\n  9700: a1 = a1 | a3\n  9703: a2 = a4 >> 0x20\n  9706: a2 = a2 <u 0x1\n  9709: a2 = 0 if a3 != 0\n  9711: a2 = 0 if a1 == 0\n  9713: jump @186 if a2 == 0\n      : @177 (gas: 10)\n  9717: u64 [sp + 0x88] = a4\n  9721: u64 [sp + 0x3d8] = a3\n  9725: a1 = 0xffffff40\n  9735: a2 = u64 [sp + 0x428]\n  9739: a1 = a2 <u a1\n  9742: a2 = u64 [sp + 0x420]\n  9746: a1 = 0 if a2 != 0\n  9748: a2 = u64 [sp + 0x410]\n  9752: a1 = 0 if a2 != 0\n  9754: jump @185 if a1 == 0\n      : @178 (gas: 36)\n  9758: a1 = u8 [a0 + 0x18]\n  9761: u64 [sp + 0x28] = a1\n  9764: a1 = u8 [a0 + 0x19]\n  9767: u64 [sp + 0x8] = a1\n  9770: a1 = u8 [a0 + 0x1a]\n  9773: u64 [sp + 0x18] = a1\n  9776: a1 = u8 [a0 + 0x1b]\n  9779: u64 [sp + 0x10] = a1\n  9782: a1 = u8 [a0 + 0x1c]\n  9785: u64 [sp + 0x40] = a1\n  9788: a1 = u8 [a0 + 0x1d]\n  9791: u64 [sp + 0x20] = a1\n  9794: a1 = u8 [a0 + 0x1e]\n  9797: u64 [sp + 0x38] = a1\n  9800: a1 = u8 [a0 + 0x1f]\n  9803: u64 [sp + 0x30] = a1\n  9806: a1 = u8 [a0 + 0x10]\n  9809: u64 [sp + 0x68] = a1\n  9812: a1 = u8 [a0 + 0x11]\n  9815: u64 [sp + 0x48] = a1\n  9818: a1 = u8 [a0 + 0x12]\n  9821: u64 [sp + 0x58] = a1\n  9824: a1 = u8 [a0 + 0x13]\n  9827: u64 [sp + 0x50] = a1\n  9830: a1 = u8 [a0 + 0x14]\n  9833: u64 [sp + 0x80] = a1\n  9837: a1 = u8 [a0 + 0x15]\n  9840: u64 [sp + 0x60] = a1\n  9843: a1 = u8 [a0 + 0x16]\n  9846: u64 [sp + 0x78] = a1\n  9849: a0 = u8 [a0 + 0x17]\n  9852: u64 [sp + 0x70] = a0\n  9855: a0 = u64 [sp + 0x418]\n  9859: i32 a0 = a0 + 0xc0\n  9863: a1 = 0x20\n  9866: ra = 148, jump @0\n      : @179 [@dyn 74] (gas: 73)\n  9872: a1 = u8 [a0 + 0x9]\n  9875: a2 = u8 [a0 + 0x8]\n  9878: a3 = u8 [a0 + 0xa]\n  9881: a4 = u8 [a0 + 0xb]\n  9884: a1 = a1 << 0x8\n  9887: a1 = a1 | a2\n  9890: a3 = a3 << 0x10\n  9893: a4 = a4 << 0x18\n  9896: a3 = a3 | a4\n  9899: a1 = a1 | a3\n  9902: a2 = u8 [a0 + 0xd]\n  9905: a3 = u8 [a0 + 0xc]\n  9908: a4 = u8 [a0 + 0xe]\n  9911: a5 = u8 [a0 + 0xf]\n  9914: a2 = a2 << 0x8\n  9917: a2 = a2 | a3\n  9920: a4 = a4 << 0x10\n  9923: a5 = a5 << 0x18\n  9926: a4 = a4 | a5\n  9929: a2 = a2 | a4\n  9932: a2 = a2 << 0x20\n  9935: t0 = a2 | a1\n  9938: a2 = u8 [a0 + 0x1]\n  9941: a3 = u8 [a0]\n  9943: a4 = u8 [a0 + 0x2]\n  9946: a5 = u8 [a0 + 0x3]\n  9949: a2 = a2 << 0x8\n  9952: a2 = a2 | a3\n  9955: a4 = a4 << 0x10\n  9958: a5 = a5 << 0x18\n  9961: a4 = a4 | a5\n  9964: a2 = a2 | a4\n  9967: a3 = u8 [a0 + 0x5]\n  9970: a4 = u8 [a0 + 0x4]\n  9973: a5 = u8 [a0 + 0x6]\n  9976: s1 = u8 [a0 + 0x7]\n  9979: a3 = a3 << 0x8\n  9982: a3 = a3 | a4\n  9985: a5 = a5 << 0x10\n  9988: s1 = s1 << 0x18\n  9991: a5 = a5 | s1\n  9994: a3 = a3 | a5\n  9997: a3 = a3 << 0x20\n 10000: a2 = a2 | a3\n 10003: a3 = u8 [a0 + 0x11]\n 10006: a4 = u8 [a0 + 0x10]\n 10009: a5 = u8 [a0 + 0x12]\n 10012: s1 = u8 [a0 + 0x13]\n 10015: a3 = a3 << 0x8\n 10018: a3 = a3 | a4\n 10021: a5 = a5 << 0x10\n 10024: s1 = s1 << 0x18\n 10027: a5 = a5 | s1\n 10030: a3 = a3 | a5\n 10033: a4 = u8 [a0 + 0x15]\n 10036: a5 = u8 [a0 + 0x14]\n 10039: s1 = u8 [a0 + 0x16]\n 10042: a1 = u8 [a0 + 0x17]\n 10045: a4 = a4 << 0x8\n 10048: a4 = a4 | a5\n 10051: s1 = s1 << 0x10\n 10054: a1 = a1 << 0x18\n 10057: a1 = a1 | s1\n 10060: a1 = a1 | a4\n 10063: a1 = a1 << 0x20\n 10066: a1 = a1 | a3\n 10069: a3 = reverse a1\n 10071: t1 = reverse a2\n 10073: a1 = reverse t0\n 10075: a4 = a1 | t1\n 10078: a5 = a3 <u 0x1\n 10081: a5 = 0 if a4 != 0\n 10083: jump @186 if a5 == 0\n      : @180 (gas: 65)\n 10087: a4 = u8 [a0 + 0x19]\n 10090: a5 = u8 [a0 + 0x18]\n 10093: s1 = u8 [a0 + 0x1a]\n 10096: a2 = u8 [a0 + 0x1b]\n 10099: a4 = a4 << 0x8\n 10102: a4 = a4 | a5\n 10105: s1 = s1 << 0x10\n 10108: a2 = a2 << 0x18\n 10111: a2 = a2 | s1\n 10114: a2 = a2 | a4\n 10117: a4 = u8 [a0 + 0x1d]\n 10120: a5 = u8 [a0 + 0x1c]\n 10123: s1 = u8 [a0 + 0x1e]\n 10126: a0 = u8 [a0 + 0x1f]\n 10129: a4 = a4 << 0x8\n 10132: a4 = a4 | a5\n 10135: s1 = s1 << 0x10\n 10138: a0 = a0 << 0x18\n 10141: a0 = a0 | s1\n 10144: a0 = a0 | a4\n 10147: a0 = a0 << 0x20\n 10150: a0 = a0 | a2\n 10153: a0 = reverse a0\n 10155: a2 = u64 [sp + 0x428]\n 10159: t0 = a0 + a2\n 10162: a0 = t0 <u a0\n 10165: a2 = u64 [sp + 0x420]\n 10169: a2 = a2 + a3\n 10172: t2 = a2 + a0\n 10175: a2 = t2 ^ a3\n 10178: a3 = t2 <u a3\n 10181: a3 = a0 if a2 == 0\n 10184: a0 = u64 [sp + 0x3e8]\n 10188: a0 = a0 + a1\n 10191: s1 = a0 + a3\n 10194: a2 = s1 <u a0\n 10197: a0 = a0 <u a1\n 10200: a1 = u64 [sp + 0x3e0]\n 10204: t1 = t1 + a1\n 10207: a0 = a0 + t1\n 10210: ra = a0 + a2\n 10213: a0 = t0 + 0x1f\n 10216: a1 = a0 <u t0\n 10219: a2 = t2 + a1\n 10222: a3 = a2 <u t2\n 10225: a3 = a1 if a1 == 0\n 10228: t1 = s1 + a3\n 10231: a1 = t1 <u s1\n 10234: a1 = a1 + ra\n 10237: a5 = u64 [sp + 0x408]\n 10241: a4 = a2 ^ a5\n 10244: a2 = a2 <u a5\n 10247: a5 = u64 [sp + 0x400]\n 10251: a0 = a0 <u a5\n 10254: a0 = a2 if a4 != 0\n 10257: a5 = u64 [sp + 0x3f8]\n 10261: a2 = t1 <u a5\n 10264: a4 = u64 [sp + 0x3f0]\n 10268: a3 = a1 ^ a4\n 10271: a1 = a1 <u a4\n 10274: a1 = a2 if a3 == 0\n 10277: a2 = t1 ^ a5\n 10280: a2 = a2 | a3\n 10283: a0 = a1 if a2 != 0\n 10286: jump @187 if a0 == 0\n      : @181 (gas: 12)\n 10290: u64 [sp + 0x428] = t0\n 10294: a0 = t0 | s1\n 10297: u64 [sp + 0x420] = t2\n 10301: u64 [sp + 0x410] = ra\n 10305: a1 = t2 | ra\n 10308: a0 = a0 | a1\n 10311: a0 = a0 >> 0x20\n 10314: u64 [sp + 0x418] = s1\n 10318: a1 = a1 | s1\n 10321: a1 = a1 << 0x20\n 10324: a0 = a0 | a1\n 10327: jump @185 if a0 != 0\n      : @182 (gas: 351)\n 10331: a0 = u64 [sp + 0x340]\n 10335: a0 = a0 << 0x8\n 10338: a1 = u64 [sp + 0x360]\n 10342: a0 = a0 | a1\n 10345: a1 = u64 [sp + 0x350]\n 10349: a1 = a1 << 0x10\n 10352: a2 = u64 [sp + 0x348]\n 10356: a2 = a2 << 0x18\n 10359: a1 = a1 | a2\n 10362: a0 = a0 | a1\n 10365: a1 = u64 [sp + 0x358]\n 10369: a1 = a1 << 0x8\n 10372: a2 = u64 [sp + 0x378]\n 10376: a1 = a1 | a2\n 10379: a2 = u64 [sp + 0x370]\n 10383: a2 = a2 << 0x10\n 10386: a3 = u64 [sp + 0x368]\n 10390: a3 = a3 << 0x18\n 10393: a2 = a2 | a3\n 10396: a1 = a1 | a2\n 10399: a1 = a1 << 0x20\n 10402: a0 = a0 | a1\n 10405: u64 [sp + 0x3e0] = a0\n 10409: a0 = u64 [sp + 0x380]\n 10413: a0 = a0 << 0x8\n 10416: a1 = u64 [sp + 0x3a0]\n 10420: a0 = a0 | a1\n 10423: a1 = u64 [sp + 0x390]\n 10427: a1 = a1 << 0x10\n 10430: a2 = u64 [sp + 0x388]\n 10434: a2 = a2 << 0x18\n 10437: a1 = a1 | a2\n 10440: a0 = a0 | a1\n 10443: a1 = u64 [sp + 0x398]\n 10447: a1 = a1 << 0x8\n 10450: a2 = u64 [sp + 0x3b8]\n 10454: a1 = a1 | a2\n 10457: a2 = u64 [sp + 0x3b0]\n 10461: a2 = a2 << 0x10\n 10464: a3 = u64 [sp + 0x3a8]\n 10468: a3 = a3 << 0x18\n 10471: a2 = a2 | a3\n 10474: a1 = a1 | a2\n 10477: a1 = a1 << 0x20\n 10480: a0 = a0 | a1\n 10483: u64 [sp + 0x3e8] = a0\n 10487: a0 = u64 [sp + 0x220]\n 10491: a0 = a0 << 0x8\n 10494: a1 = u64 [sp + 0x240]\n 10498: a0 = a0 | a1\n 10501: a1 = u64 [sp + 0x230]\n 10505: a1 = a1 << 0x10\n 10508: a2 = u64 [sp + 0x228]\n 10512: a2 = a2 << 0x18\n 10515: a1 = a1 | a2\n 10518: a0 = a0 | a1\n 10521: a1 = u64 [sp + 0x238]\n 10525: a1 = a1 << 0x8\n 10528: a2 = u64 [sp + 0x258]\n 10532: a1 = a1 | a2\n 10535: a2 = u64 [sp + 0x250]\n 10539: a2 = a2 << 0x10\n 10542: a3 = u64 [sp + 0x248]\n 10546: a3 = a3 << 0x18\n 10549: a2 = a2 | a3\n 10552: a1 = a1 | a2\n 10555: a1 = a1 << 0x20\n 10558: a0 = a0 | a1\n 10561: u64 [sp + 0x3a0] = a0\n 10565: a0 = u64 [sp + 0x260]\n 10569: a0 = a0 << 0x8\n 10572: a1 = u64 [sp + 0x280]\n 10576: a0 = a0 | a1\n 10579: a1 = u64 [sp + 0x270]\n 10583: a1 = a1 << 0x10\n 10586: a2 = u64 [sp + 0x268]\n 10590: a2 = a2 << 0x18\n 10593: a1 = a1 | a2\n 10596: a0 = a0 | a1\n 10599: a1 = u64 [sp + 0x278]\n 10603: a1 = a1 << 0x8\n 10606: a2 = u64 [sp + 0x298]\n 10610: a1 = a1 | a2\n 10613: a2 = u64 [sp + 0x290]\n 10617: a2 = a2 << 0x10\n 10620: a3 = u64 [sp + 0x288]\n 10624: a3 = a3 << 0x18\n 10627: a2 = a2 | a3\n 10630: a1 = a1 | a2\n 10633: a1 = a1 << 0x20\n 10636: a0 = a0 | a1\n 10639: u64 [sp + 0x3a8] = a0\n 10643: a0 = u64 [sp + 0x2a0]\n 10647: a0 = a0 << 0x8\n 10650: a1 = u64 [sp + 0x2c0]\n 10654: a0 = a0 | a1\n 10657: a1 = u64 [sp + 0x2b0]\n 10661: a1 = a1 << 0x10\n 10664: a2 = u64 [sp + 0x2a8]\n 10668: a2 = a2 << 0x18\n 10671: a1 = a1 | a2\n 10674: a0 = a0 | a1\n 10677: a1 = u64 [sp + 0x2b8]\n 10681: a1 = a1 << 0x8\n 10684: a2 = u64 [sp + 0x2d8]\n 10688: a1 = a1 | a2\n 10691: a2 = u64 [sp + 0x2d0]\n 10695: a2 = a2 << 0x10\n 10698: a3 = u64 [sp + 0x2c8]\n 10702: a3 = a3 << 0x18\n 10705: a2 = a2 | a3\n 10708: a1 = a1 | a2\n 10711: a1 = a1 << 0x20\n 10714: a0 = a0 | a1\n 10717: u64 [sp + 0x380] = a0\n 10721: a0 = u64 [sp + 0x2e0]\n 10725: a0 = a0 << 0x8\n 10728: a1 = u64 [sp + 0x300]\n 10732: a0 = a0 | a1\n 10735: a1 = u64 [sp + 0x2f0]\n 10739: a1 = a1 << 0x10\n 10742: a2 = u64 [sp + 0x2e8]\n 10746: a2 = a2 << 0x18\n 10749: a1 = a1 | a2\n 10752: a0 = a0 | a1\n 10755: a1 = u64 [sp + 0x2f8]\n 10759: a1 = a1 << 0x8\n 10762: a2 = u64 [sp + 0x318]\n 10766: a1 = a1 | a2\n 10769: a2 = u64 [sp + 0x310]\n 10773: a2 = a2 << 0x10\n 10776: a3 = u64 [sp + 0x308]\n 10780: a3 = a3 << 0x18\n 10783: a2 = a2 | a3\n 10786: a1 = a1 | a2\n 10789: a1 = a1 << 0x20\n 10792: a0 = a0 | a1\n 10795: u64 [sp + 0x390] = a0\n 10799: a0 = u64 [sp + 0x1a0]\n 10803: a0 = a0 << 0x8\n 10806: a1 = u64 [sp + 0x1c0]\n 10810: a0 = a0 | a1\n 10813: a1 = u64 [sp + 0x1b0]\n 10817: a1 = a1 << 0x10\n 10820: a2 = u64 [sp + 0x1a8]\n 10824: a2 = a2 << 0x18\n 10827: a1 = a1 | a2\n 10830: a0 = a0 | a1\n 10833: a1 = u64 [sp + 0x1b8]\n 10837: a1 = a1 << 0x8\n 10840: a2 = u64 [sp + 0x1d8]\n 10844: a1 = a1 | a2\n 10847: a2 = u64 [sp + 0x1d0]\n 10851: a2 = a2 << 0x10\n 10854: a3 = u64 [sp + 0x1c8]\n 10858: a3 = a3 << 0x18\n 10861: a2 = a2 | a3\n 10864: a1 = a1 | a2\n 10867: a1 = a1 << 0x20\n 10870: ra = a1 | a0\n 10873: a0 = u64 [sp + 0x1e0]\n 10877: a0 = a0 << 0x8\n 10880: a1 = u64 [sp + 0x200]\n 10884: a0 = a0 | a1\n 10887: a1 = u64 [sp + 0x1f0]\n 10891: a1 = a1 << 0x10\n 10894: a2 = u64 [sp + 0x1e8]\n 10898: a2 = a2 << 0x18\n 10901: a1 = a1 | a2\n 10904: a0 = a0 | a1\n 10907: a1 = u64 [sp + 0x1f8]\n 10911: a1 = a1 << 0x8\n 10914: a2 = u64 [sp + 0x218]\n 10918: a1 = a1 | a2\n 10921: a2 = u64 [sp + 0x210]\n 10925: a2 = a2 << 0x10\n 10928: a3 = u64 [sp + 0x208]\n 10932: a3 = a3 << 0x18\n 10935: a2 = a2 | a3\n 10938: a1 = a1 | a2\n 10941: a1 = a1 << 0x20\n 10944: t2 = a1 | a0\n 10947: a0 = u64 [sp + 0xa0]\n 10951: a0 = a0 << 0x8\n 10954: a1 = u64 [sp + 0xc0]\n 10958: a0 = a0 | a1\n 10961: a1 = u64 [sp + 0xb0]\n 10965: a1 = a1 << 0x10\n 10968: a2 = u64 [sp + 0xa8]\n 10972: a2 = a2 << 0x18\n 10975: a1 = a1 | a2\n 10978: a0 = a0 | a1\n 10981: a1 = u64 [sp + 0xb8]\n 10985: a1 = a1 << 0x8\n 10988: a2 = u64 [sp + 0xd8]\n 10992: a1 = a1 | a2\n 10995: a2 = u64 [sp + 0xd0]\n 10999: a2 = a2 << 0x10\n 11002: a3 = u64 [sp + 0xc8]\n 11006: a3 = a3 << 0x18\n 11009: a2 = a2 | a3\n 11012: a1 = a1 | a2\n 11015: a1 = a1 << 0x20\n 11018: t0 = a1 | a0\n 11021: a0 = u64 [sp + 0xe0]\n 11025: a0 = a0 << 0x8\n 11028: a1 = u64 [sp + 0x100]\n 11032: a0 = a0 | a1\n 11035: a2 = u64 [sp + 0xf0]\n 11039: a2 = a2 << 0x10\n 11042: a3 = u64 [sp + 0xe8]\n 11046: a3 = a3 << 0x18\n 11049: a2 = a2 | a3\n 11052: a0 = a0 | a2\n 11055: a2 = u64 [sp + 0xf8]\n 11059: a2 = a2 << 0x8\n 11062: a1 = u64 [sp + 0x118]\n 11066: a2 = a2 | a1\n 11069: a3 = u64 [sp + 0x110]\n 11073: a3 = a3 << 0x10\n 11076: t1 = u64 [sp + 0x108]\n 11080: t1 = t1 << 0x18\n 11083: a3 = t1 | a3\n 11086: a2 = a2 | a3\n 11089: a2 = a2 << 0x20\n 11092: t1 = a2 | a0\n 11095: a0 = u64 [sp + 0x120]\n 11099: a0 = a0 << 0x8\n 11102: a1 = u64 [sp + 0x140]\n 11106: a0 = a0 | a1\n 11109: a3 = u64 [sp + 0x130]\n 11113: a3 = a3 << 0x10\n 11116: a5 = u64 [sp + 0x128]\n 11120: a5 = a5 << 0x18\n 11123: a3 = a3 | a5\n 11126: a0 = a0 | a3\n 11129: a3 = u64 [sp + 0x138]\n 11133: a3 = a3 << 0x8\n 11136: a1 = u64 [sp + 0x158]\n 11140: a3 = a3 | a1\n 11143: a5 = u64 [sp + 0x150]\n 11147: a5 = a5 << 0x10\n 11150: s1 = u64 [sp + 0x148]\n 11154: s1 = s1 << 0x18\n 11157: a5 = a5 | s1\n 11160: a3 = a3 | a5\n 11163: a3 = a3 << 0x20\n 11166: a3 = a3 | a0\n 11169: a0 = u64 [sp + 0x160]\n 11173: a0 = a0 << 0x8\n 11176: a1 = u64 [sp + 0x180]\n 11180: a0 = a0 | a1\n 11183: a5 = u64 [sp + 0x170]\n 11187: a5 = a5 << 0x10\n 11190: s1 = u64 [sp + 0x168]\n 11194: s1 = s1 << 0x18\n 11197: a5 = a5 | s1\n 11200: a0 = a0 | a5\n 11203: a5 = u64 [sp + 0x178]\n 11207: a5 = a5 << 0x8\n 11210: a1 = u64 [sp + 0x198]\n 11214: a5 = a5 | a1\n 11217: s1 = u64 [sp + 0x190]\n 11221: s1 = s1 << 0x10\n 11224: a4 = u64 [sp + 0x188]\n 11228: a4 = a4 << 0x18\n 11231: a4 = a4 | s1\n 11234: a4 = a4 | a5\n 11237: a4 = a4 << 0x20\n 11240: a0 = a0 | a4\n 11243: a4 = u64 [sp + 0x8]\n 11246: a4 = a4 << 0x8\n 11249: a1 = u64 [sp + 0x28]\n 11252: a4 = a4 | a1\n 11255: a5 = u64 [sp + 0x18]\n 11258: a5 = a5 << 0x10\n 11261: s1 = u64 [sp + 0x10]\n 11264: s1 = s1 << 0x18\n 11267: a5 = a5 | s1\n 11270: a4 = a4 | a5\n 11273: a5 = u64 [sp + 0x20]\n 11276: a5 = a5 << 0x8\n 11279: a1 = u64 [sp + 0x40]\n 11282: a5 = a5 | a1\n 11285: s1 = u64 [sp + 0x38]\n 11288: s1 = s1 << 0x10\n 11291: a1 = u64 [sp + 0x30]\n 11294: a1 = a1 << 0x18\n 11297: a1 = a1 | s1\n 11300: a1 = a1 | a5\n 11303: a1 = a1 << 0x20\n 11306: a1 = a1 | a4\n 11309: a4 = u64 [sp + 0x48]\n 11312: a4 = a4 << 0x8\n 11315: a2 = u64 [sp + 0x68]\n 11318: a4 = a4 | a2\n 11321: a5 = u64 [sp + 0x58]\n 11324: a5 = a5 << 0x10\n 11327: s1 = u64 [sp + 0x50]\n 11330: s1 = s1 << 0x18\n 11333: a5 = a5 | s1\n 11336: a4 = a4 | a5\n 11339: a5 = u64 [sp + 0x60]\n 11342: a5 = a5 << 0x8\n 11345: a2 = u64 [sp + 0x80]\n 11349: a5 = a5 | a2\n 11352: s1 = u64 [sp + 0x78]\n 11355: s1 = s1 << 0x10\n 11358: a2 = u64 [sp + 0x70]\n 11361: a2 = a2 << 0x18\n 11364: a2 = a2 | s1\n 11367: a2 = a2 | a5\n 11370: a2 = a2 << 0x20\n 11373: a2 = a2 | a4\n 11376: a4 = u64 [sp + 0x3e8]\n 11380: a4 = reverse a4\n 11382: u64 [sp + 0x3e8] = a4\n 11386: a4 = u64 [sp + 0x3e0]\n 11390: a4 = reverse a4\n 11392: u64 [sp + 0x3e0] = a4\n 11396: a4 = reverse t2\n 11398: u64 [sp + 0x3b8] = a4\n 11402: a4 = reverse ra\n 11404: u64 [sp + 0x3b0] = a4\n 11408: a2 = reverse a2\n 11410: u64 [sp + 0x370] = a2\n 11414: a1 = reverse a1\n 11416: u64 [sp + 0x360] = a1\n 11420: a1 = reverse t1\n 11422: u64 [sp + 0x398] = a1\n 11426: a1 = reverse t0\n 11428: u64 [sp + 0x388] = a1\n 11432: a0 = reverse a0\n 11434: u64 [sp + 0x378] = a0\n 11438: a0 = reverse a3\n 11440: u64 [sp + 0x368] = a0\n 11444: a0 = u64 [sp + 0x3a8]\n 11448: a0 = reverse a0\n 11450: u64 [sp + 0x3a8] = a0\n 11454: a0 = u64 [sp + 0x3a0]\n 11458: a0 = reverse a0\n 11460: u64 [sp + 0x3a0] = a0\n 11464: a0 = u64 [sp + 0x390]\n 11468: a0 = reverse a0\n 11470: u64 [sp + 0x390] = a0\n 11474: a0 = u64 [sp + 0x380]\n 11478: a0 = reverse a0\n 11480: u64 [sp + 0x380] = a0\n 11484: a0 = i32 [sp + 0x428]\n 11488: a1 = 0x20\n 11491: ra = 150, jump @0\n      : @183 [@dyn 75] (gas: 125)\n 11497: a1 = u8 [a0 + 0x1]\n 11500: a2 = u8 [a0]\n 11502: a3 = u8 [a0 + 0x2]\n 11505: a4 = u8 [a0 + 0x3]\n 11508: a1 = a1 << 0x8\n 11511: a1 = a1 | a2\n 11514: a3 = a3 << 0x10\n 11517: a4 = a4 << 0x18\n 11520: a3 = a3 | a4\n 11523: a1 = a1 | a3\n 11526: a2 = u8 [a0 + 0x5]\n 11529: a3 = u8 [a0 + 0x4]\n 11532: a4 = u8 [a0 + 0x6]\n 11535: a5 = u8 [a0 + 0x7]\n 11538: a2 = a2 << 0x8\n 11541: a2 = a2 | a3\n 11544: a4 = a4 << 0x10\n 11547: a5 = a5 << 0x18\n 11550: a4 = a4 | a5\n 11553: a2 = a2 | a4\n 11556: a2 = a2 << 0x20\n 11559: t0 = a2 | a1\n 11562: a2 = u8 [a0 + 0x9]\n 11565: a3 = u8 [a0 + 0x8]\n 11568: a4 = u8 [a0 + 0xa]\n 11571: a5 = u8 [a0 + 0xb]\n 11574: a2 = a2 << 0x8\n 11577: a2 = a2 | a3\n 11580: a4 = a4 << 0x10\n 11583: a5 = a5 << 0x18\n 11586: a4 = a4 | a5\n 11589: a2 = a2 | a4\n 11592: a3 = u8 [a0 + 0xd]\n 11595: a4 = u8 [a0 + 0xc]\n 11598: a5 = u8 [a0 + 0xe]\n 11601: s1 = u8 [a0 + 0xf]\n 11604: a3 = a3 << 0x8\n 11607: a3 = a3 | a4\n 11610: a5 = a5 << 0x10\n 11613: s1 = s1 << 0x18\n 11616: a5 = a5 | s1\n 11619: a3 = a3 | a5\n 11622: a3 = a3 << 0x20\n 11625: a2 = a2 | a3\n 11628: a3 = u8 [a0 + 0x11]\n 11631: a4 = u8 [a0 + 0x10]\n 11634: a5 = u8 [a0 + 0x12]\n 11637: s1 = u8 [a0 + 0x13]\n 11640: a3 = a3 << 0x8\n 11643: a3 = a3 | a4\n 11646: a5 = a5 << 0x10\n 11649: s1 = s1 << 0x18\n 11652: a5 = a5 | s1\n 11655: a3 = a3 | a5\n 11658: a4 = u8 [a0 + 0x15]\n 11661: a5 = u8 [a0 + 0x14]\n 11664: s1 = u8 [a0 + 0x16]\n 11667: a1 = u8 [a0 + 0x17]\n 11670: a4 = a4 << 0x8\n 11673: a4 = a4 | a5\n 11676: s1 = s1 << 0x10\n 11679: a1 = a1 << 0x18\n 11682: a1 = a1 | s1\n 11685: a1 = a1 | a4\n 11688: a1 = a1 << 0x20\n 11691: a3 = a3 | a1\n 11694: a1 = u8 [a0 + 0x19]\n 11697: a4 = u8 [a0 + 0x18]\n 11700: a5 = u8 [a0 + 0x1a]\n 11703: s1 = u8 [a0 + 0x1b]\n 11706: a1 = a1 << 0x8\n 11709: a1 = a1 | a4\n 11712: a5 = a5 << 0x10\n 11715: s1 = s1 << 0x18\n 11718: a5 = a5 | s1\n 11721: a1 = a1 | a5\n 11724: a4 = u8 [a0 + 0x1d]\n 11727: a5 = u8 [a0 + 0x1c]\n 11730: s1 = u8 [a0 + 0x1e]\n 11733: a0 = u8 [a0 + 0x1f]\n 11736: a4 = a4 << 0x8\n 11739: a4 = a4 | a5\n 11742: s1 = s1 << 0x10\n 11745: a0 = a0 << 0x18\n 11748: a0 = a0 | s1\n 11751: a0 = a0 | a4\n 11754: a0 = a0 << 0x20\n 11757: a0 = a0 | a1\n 11760: t1 = reverse a0\n 11762: t2 = reverse a3\n 11764: a1 = reverse a2\n 11766: a2 = reverse t0\n 11768: a0 = u64 [sp + 0x428]\n 11772: a3 = a0 + 0x20\n 11775: a5 = a3 <u a0\n 11778: a0 = u64 [sp + 0x420]\n 11782: s1 = a0 + a5\n 11785: a4 = s1 <u a0\n 11788: a4 = a5 if a5 == 0\n 11791: a0 = u64 [sp + 0x418]\n 11795: a4 = a4 + a0\n 11798: a5 = a4 <u a0\n 11801: a0 = u64 [sp + 0x410]\n 11805: a5 = a5 + a0\n 11808: a0 = u64 [sp + 0x3f0]\n 11812: u64 [sp + 0x448] = a0\n 11816: a0 = u64 [sp + 0x3f8]\n 11820: u64 [sp + 0x440] = a0\n 11824: a0 = u64 [sp + 0x408]\n 11828: u64 [sp + 0x438] = a0\n 11832: a0 = u64 [sp + 0x400]\n 11836: u64 [sp + 0x430] = a0\n 11840: u64 [sp + 0x478] = s1\n 11844: u64 [sp + 0x470] = a3\n 11848: u64 [sp + 0x480] = a4\n 11852: u64 [sp + 0x488] = a5\n 11856: u64 [sp + 0x468] = a2\n 11860: u64 [sp + 0x460] = a1\n 11864: u64 [sp + 0x458] = t2\n 11868: a0 = sp + 0x490\n 11872: a1 = sp + 0x470\n 11876: a2 = sp + 0x450\n 11880: a3 = sp + 0x430\n 11884: u64 [sp + 0x450] = t1\n 11888: ra = 152, jump @123\n      : @184 [@dyn 76] (gas: 63)\n 11894: a0 = u64 [sp + 0x4a0]\n 11898: a1 = u64 [sp + 0x4a8]\n 11902: a2 = u64 [sp + 0x490]\n 11906: a3 = u64 [sp + 0x498]\n 11910: a4 = u64 [sp + 0x3d0]\n 11914: u64 [a4 + 0xd0] = a0\n 11918: u64 [a4 + 0xd8] = a1\n 11922: u64 [a4 + 0xc0] = a2\n 11926: u64 [a4 + 0xc8] = a3\n 11930: a0 = u64 [sp + 0x88]\n 11934: u64 [a4 + 0xb0] = a0\n 11938: a0 = u64 [sp + 0x3d8]\n 11942: u64 [a4 + 0xb8] = a0\n 11946: a0 = u64 [sp + 0x360]\n 11950: u64 [a4 + 0xa0] = a0\n 11954: a0 = u64 [sp + 0x370]\n 11958: u64 [a4 + 0xa8] = a0\n 11962: a0 = u64 [sp + 0x90]\n 11966: u64 [a4 + 0x90] = a0\n 11970: a0 = u64 [sp + 0x330]\n 11974: u64 [a4 + 0x98] = a0\n 11978: a0 = u64 [sp + 0x98]\n 11982: u64 [a4 + 0x80] = a0\n 11986: a0 = u64 [sp + 0x338]\n 11990: u64 [a4 + 0x88] = a0\n 11994: a0 = u64 [sp + 0x368]\n 11998: u64 [a4 + 0x70] = a0\n 12001: a0 = u64 [sp + 0x378]\n 12005: u64 [a4 + 0x78] = a0\n 12008: a0 = u64 [sp + 0x388]\n 12012: u64 [a4 + 0x60] = a0\n 12015: a0 = u64 [sp + 0x398]\n 12019: u64 [a4 + 0x68] = a0\n 12022: a0 = u64 [sp + 0x320]\n 12026: u64 [a4 + 0x50] = a0\n 12029: a0 = u64 [sp + 0x328]\n 12033: u64 [a4 + 0x58] = a0\n 12036: a0 = u64 [sp + 0x3b0]\n 12040: u64 [a4 + 0x40] = a0\n 12043: a0 = u64 [sp + 0x3b8]\n 12047: u64 [a4 + 0x48] = a0\n 12050: a0 = u64 [sp + 0x380]\n 12054: u64 [a4 + 0x30] = a0\n 12057: a0 = u64 [sp + 0x390]\n 12061: u64 [a4 + 0x38] = a0\n 12064: a0 = u64 [sp + 0x3a0]\n 12068: u64 [a4 + 0x20] = a0\n 12071: a0 = u64 [sp + 0x3a8]\n 12075: u64 [a4 + 0x28] = a0\n 12078: a0 = u64 [sp + 0x3c0]\n 12082: u64 [a4 + 0x10] = a0\n 12085: a0 = u64 [sp + 0x3c8]\n 12089: u64 [a4 + 0x18] = a0\n 12092: a0 = u64 [sp + 0x3e0]\n 12096: u64 [a4] = a0\n 12098: a0 = u64 [sp + 0x3e8]\n 12102: u64 [a4 + 0x8] = a0\n 12105: sp = s0 + 0xfffffffffffffab0\n 12109: ra = u64 [sp + 0x548]\n 12113: s0 = u64 [sp + 0x540]\n 12117: s1 = u64 [sp + 0x538]\n 12121: sp = sp + 0x550\n 12125: ret\n      : @185 (gas: 1)\n 12127: trap\n      : @186 (gas: 4)\n 12128: a0 = 0\n 12130: a1 = 0\n 12132: ra = 0x9a\n 12136: jump @0\n      : @187 (gas: 2)\n 12139: a1 = 0\n 12141: ra = 154, jump @0\n      : @188 [@dyn 77] (gas: 6)\n 12147: i32 a1 = a0 + 0\n 12149: a0 = 0x1\n 12152: a2 = 0\n 12154: ra = 0x9c\n 12158: ecalli 14 // 'seal_return'\n 12160: fallthrough\n      : @189 [@dyn 78] (gas: 19)\n 12161: sp = sp + 0xfffffffffffffdf0\n 12165: u64 [sp + 0x208] = ra\n 12169: u64 [sp + 0x200] = s0\n 12173: u64 [sp + 0x1f8] = s1\n 12177: s0 = sp + 0x210\n 12181: sp = sp & 0xfffffffffffffff0\n 12184: a1 = i32 [0x20078]\n 12189: s1 = a0\n 12191: u64 [sp + 0x88] = a1\n 12195: a0 = a1 << 0x20\n 12198: a2 = a0 >> 0x20\n 12201: u64 [sp + 456] = 0\n 12205: u64 [sp + 448] = 0\n 12209: u64 [sp + 440] = 0\n 12213: a0 = sp + 0x1d0\n 12217: a1 = sp + 0x1b0\n 12221: u64 [sp + 0x80] = a2\n 12225: u64 [sp + 0x1b0] = a2\n 12229: ra = 158, jump @113\n      : @190 [@dyn 79] (gas: 15)\n 12235: a1 = u64 [sp + 0x1e8]\n 12239: a3 = u64 [sp + 0x1e0]\n 12243: a0 = u64 [sp + 0x1d8]\n 12247: a2 = u64 [sp + 0x1d0]\n 12251: u64 [sp + 0x78] = a0\n 12254: u64 [sp + 0x68] = a1\n 12257: a0 = a0 | a1\n 12260: a1 = a2 | a3\n 12263: a1 = a1 | a0\n 12266: a1 = a1 >> 0x20\n 12269: u64 [sp + 0x70] = a3\n 12272: a0 = a0 | a3\n 12275: a0 = a0 << 0x20\n 12278: a0 = a0 | a1\n 12281: jump @194 if a0 != 0\n      : @191 (gas: 4)\n 12285: i32 a0 = a2 + 0\n 12287: a1 = u64 [sp + 0x88]\n 12291: u64 [sp + 0x60] = a2\n 12294: ra = 160, jump @0\n      : @192 [@dyn 80] (gas: 30)\n 12300: i32 a0 = a0 + 0\n 12302: a1 = u64 [sp + 0x88]\n 12306: a2 = 0\n 12308: ecalli 2 // 'call_data_copy'\n 12310: a0 = u64 [sp + 0x80]\n 12314: a2 = u64 [sp + 0x60]\n 12317: t1 = a2 + a0\n 12320: a1 = t1 <u a2\n 12323: t2 = a2\n 12325: a5 = u64 [sp + 0x78]\n 12328: a2 = a5 + a1\n 12331: a3 = a2 <u a5\n 12334: a3 = a1 if a1 == 0\n 12337: a4 = u64 [sp + 0x70]\n 12340: a3 = a3 + a4\n 12343: a1 = a3 <u a4\n 12346: a0 = u64 [sp + 0x68]\n 12349: t0 = a0 + a1\n 12352: u64 [sp + 0x98] = a2\n 12356: u64 [sp + 0x90] = t1\n 12360: u64 [sp + 0xc8] = a0\n 12364: u64 [sp + 0xc0] = a4\n 12368: u64 [sp + 0xb8] = a5\n 12372: u64 [sp + 0xb0] = t2\n 12376: u64 [sp + 0xa0] = a3\n 12380: a0 = sp + 0xd0\n 12384: a1 = sp + 0xb0\n 12388: a2 = sp + 0x90\n 12392: u64 [sp + 0xa8] = t0\n 12396: ra = 162, jump @152\n      : @193 [@dyn 81] (gas: 98)\n 12402: a0 = u64 [sp + 0xd0]\n 12406: u64 [sp + 0x88] = a0\n 12410: a0 = u64 [sp + 0xd8]\n 12414: u64 [sp + 0x80] = a0\n 12418: a0 = u64 [sp + 0xe0]\n 12422: u64 [sp + 0x78] = a0\n 12425: a0 = u64 [sp + 0xe8]\n 12429: u64 [sp + 0x70] = a0\n 12432: a0 = u64 [sp + 0xf0]\n 12436: u64 [sp + 0x68] = a0\n 12439: a0 = u64 [sp + 0xf8]\n 12443: u64 [sp + 0x60] = a0\n 12446: a0 = u64 [sp + 0x100]\n 12450: u64 [sp + 0x58] = a0\n 12453: a0 = u64 [sp + 0x108]\n 12457: u64 [sp + 0x50] = a0\n 12460: a0 = u64 [sp + 0x110]\n 12464: u64 [sp + 0x48] = a0\n 12467: a0 = u64 [sp + 0x118]\n 12471: u64 [sp + 0x40] = a0\n 12474: a0 = u64 [sp + 0x120]\n 12478: u64 [sp + 0x38] = a0\n 12481: a0 = u64 [sp + 0x128]\n 12485: u64 [sp + 0x30] = a0\n 12488: a0 = u64 [sp + 0x130]\n 12492: u64 [sp + 0x28] = a0\n 12495: a0 = u64 [sp + 0x138]\n 12499: u64 [sp + 0x20] = a0\n 12502: a0 = u64 [sp + 0x140]\n 12506: u64 [sp + 0x18] = a0\n 12509: a0 = u64 [sp + 0x148]\n 12513: u64 [sp + 0x10] = a0\n 12516: a0 = u64 [sp + 0x150]\n 12520: u64 [sp + 0x8] = a0\n 12523: a0 = u64 [sp + 0x158]\n 12527: u64 [sp] = a0\n 12529: ra = u64 [sp + 0x160]\n 12533: t2 = u64 [sp + 0x168]\n 12537: t1 = u64 [sp + 0x170]\n 12541: t0 = u64 [sp + 0x178]\n 12545: a5 = u64 [sp + 0x180]\n 12549: a4 = u64 [sp + 0x188]\n 12553: a0 = u64 [sp + 0x1a8]\n 12557: a1 = u64 [sp + 0x1a0]\n 12561: a2 = u64 [sp + 0x198]\n 12565: a3 = u64 [sp + 0x190]\n 12569: u64 [s1 + 0xd8] = a0\n 12573: u64 [s1 + 0xd0] = a1\n 12577: u64 [s1 + 0xc8] = a2\n 12581: u64 [s1 + 0xc0] = a3\n 12585: u64 [s1 + 0xb8] = a4\n 12589: u64 [s1 + 0xb0] = a5\n 12593: u64 [s1 + 0xa8] = t0\n 12597: u64 [s1 + 0xa0] = t1\n 12601: u64 [s1 + 0x98] = t2\n 12605: u64 [s1 + 0x90] = ra\n 12609: a0 = u64 [sp]\n 12611: u64 [s1 + 0x88] = a0\n 12615: a0 = u64 [sp + 0x8]\n 12618: u64 [s1 + 0x80] = a0\n 12622: a0 = u64 [sp + 0x10]\n 12625: u64 [s1 + 0x78] = a0\n 12628: a0 = u64 [sp + 0x18]\n 12631: u64 [s1 + 0x70] = a0\n 12634: a0 = u64 [sp + 0x20]\n 12637: u64 [s1 + 0x68] = a0\n 12640: a0 = u64 [sp + 0x28]\n 12643: u64 [s1 + 0x60] = a0\n 12646: a0 = u64 [sp + 0x30]\n 12649: u64 [s1 + 0x58] = a0\n 12652: a0 = u64 [sp + 0x38]\n 12655: u64 [s1 + 0x50] = a0\n 12658: a0 = u64 [sp + 0x40]\n 12661: u64 [s1 + 0x48] = a0\n 12664: a0 = u64 [sp + 0x48]\n 12667: u64 [s1 + 0x40] = a0\n 12670: a0 = u64 [sp + 0x50]\n 12673: u64 [s1 + 0x38] = a0\n 12676: a0 = u64 [sp + 0x58]\n 12679: u64 [s1 + 0x30] = a0\n 12682: a0 = u64 [sp + 0x60]\n 12685: u64 [s1 + 0x28] = a0\n 12688: a0 = u64 [sp + 0x68]\n 12691: u64 [s1 + 0x20] = a0\n 12694: a0 = u64 [sp + 0x70]\n 12697: u64 [s1 + 0x18] = a0\n 12700: a0 = u64 [sp + 0x78]\n 12703: u64 [s1 + 0x10] = a0\n 12706: a0 = u64 [sp + 0x80]\n 12710: u64 [s1 + 0x8] = a0\n 12713: a0 = u64 [sp + 0x88]\n 12717: u64 [s1] = a0\n 12719: sp = s0 + 0xfffffffffffffdf0\n 12723: ra = u64 [sp + 0x208]\n 12727: s0 = u64 [sp + 0x200]\n 12731: s1 = u64 [sp + 0x1f8]\n 12735: sp = sp + 0x210\n 12739: ret\n      : @194 (gas: 1)\n 12741: trap\n      : @195 (gas: 17)\n 12742: sp = sp + 0xffffffffffffffa0\n 12745: u64 [sp + 0x58] = ra\n 12748: u64 [sp + 0x50] = s0\n 12751: u64 [sp + 0x48] = s1\n 12754: a3 = u64 [a1 + 0x18]\n 12757: a4 = u64 [a1 + 0x10]\n 12760: a5 = u64 [a1 + 0x8]\n 12763: s1 = u64 [a1]\n 12765: a1 = a5 | a3\n 12768: a2 = s1 | a4\n 12771: a2 = a2 | a1\n 12774: a2 = a2 >> 0x20\n 12777: a1 = a1 | a4\n 12780: a1 = a1 << 0x20\n 12783: a1 = a1 | a2\n 12786: u64 [sp + 0x28] = a0\n 12789: jump @202 if a1 != 0\n      : @196 (gas: 19)\n 12793: a0 = s1 + 0x20\n 12796: u64 [sp + 0x30] = a0\n 12799: a0 = a0 <u s1\n 12802: a1 = a5 + a0\n 12805: u64 [sp + 0x40] = a1\n 12808: u64 [sp + 0x8] = a5\n 12811: s0 = a1 <u a5\n 12814: s0 = a0 if a0 == 0\n 12817: s0 = s0 + a4\n 12820: u64 [sp + 0x10] = a4\n 12823: a0 = s0 <u a4\n 12826: u64 [sp + 0x18] = a3\n 12829: a0 = a0 + a3\n 12832: u64 [sp + 0x38] = a0\n 12835: u64 [sp] = s1\n 12837: i32 a0 = s1 + 0\n 12839: a1 = 0x20\n 12842: s1 = 0x20\n 12845: ra = 164, jump @0\n      : @197 [@dyn 82] (gas: 45)\n 12851: u8 [a0 + 0x1f] = s1\n 12854: a1 = u64 [sp + 0x30]\n 12857: s1 = a1\n 12859: a1 = a1 | s0\n 12862: a2 = u64 [sp + 0x40]\n 12865: a4 = u64 [sp + 0x38]\n 12868: a2 = a2 | a4\n 12871: a1 = a1 | a2\n 12874: a1 = a1 >> 0x20\n 12877: u64 [sp + 0x20] = s0\n 12880: a2 = a2 | s0\n 12883: a2 = a2 << 0x20\n 12886: a1 = a1 | a2\n 12889: u8 [a0 + 30] = 0\n 12892: u8 [a0 + 29] = 0\n 12895: u8 [a0 + 28] = 0\n 12898: u8 [a0 + 27] = 0\n 12901: u8 [a0 + 26] = 0\n 12904: u8 [a0 + 25] = 0\n 12907: u8 [a0 + 24] = 0\n 12910: u8 [a0 + 23] = 0\n 12913: u8 [a0 + 22] = 0\n 12916: u8 [a0 + 21] = 0\n 12919: u8 [a0 + 20] = 0\n 12922: u8 [a0 + 19] = 0\n 12925: u8 [a0 + 18] = 0\n 12928: u8 [a0 + 17] = 0\n 12931: u8 [a0 + 16] = 0\n 12934: u8 [a0 + 15] = 0\n 12937: u8 [a0 + 14] = 0\n 12940: u8 [a0 + 13] = 0\n 12943: u8 [a0 + 12] = 0\n 12946: u8 [a0 + 11] = 0\n 12949: u8 [a0 + 10] = 0\n 12952: u8 [a0 + 9] = 0\n 12955: u8 [a0 + 8] = 0\n 12958: u8 [a0 + 7] = 0\n 12961: u8 [a0 + 6] = 0\n 12964: u8 [a0 + 5] = 0\n 12967: u8 [a0 + 4] = 0\n 12970: u8 [a0 + 3] = 0\n 12973: u8 [a0 + 2] = 0\n 12976: u8 [a0 + 1] = 0\n 12979: u8 [a0 + 0] = 0\n 12981: jump @202 if a1 != 0\n      : @198 (gas: 4)\n 12985: i32 s0 = s1 + 0\n 12987: a1 = 0x20\n 12990: a0 = s0\n 12992: ra = 166, jump @0\n      : @199 [@dyn 83] (gas: 41)\n 12998: u8 [a0 + 31] = 0x1f\n 13002: u8 [a0 + 30] = 0\n 13005: u8 [a0 + 29] = 0\n 13008: u8 [a0 + 28] = 0\n 13011: u8 [a0 + 27] = 0\n 13014: u8 [a0 + 26] = 0\n 13017: u8 [a0 + 25] = 0\n 13020: u8 [a0 + 24] = 0\n 13023: u8 [a0 + 23] = 0\n 13026: u8 [a0 + 22] = 0\n 13029: u8 [a0 + 21] = 0\n 13032: u8 [a0 + 20] = 0\n 13035: u8 [a0 + 19] = 0\n 13038: u8 [a0 + 18] = 0\n 13041: u8 [a0 + 17] = 0\n 13044: u8 [a0 + 16] = 0\n 13047: u8 [a0 + 15] = 0\n 13050: u8 [a0 + 14] = 0\n 13053: u8 [a0 + 13] = 0\n 13056: u8 [a0 + 12] = 0\n 13059: u8 [a0 + 11] = 0\n 13062: u8 [a0 + 10] = 0\n 13065: u8 [a0 + 9] = 0\n 13068: u8 [a0 + 8] = 0\n 13071: u8 [a0 + 7] = 0\n 13074: u8 [a0 + 6] = 0\n 13077: u8 [a0 + 5] = 0\n 13080: u8 [a0 + 4] = 0\n 13083: u8 [a0 + 3] = 0\n 13086: u8 [a0 + 2] = 0\n 13089: u8 [a0 + 1] = 0\n 13092: a1 = u64 [sp + 0x20]\n 13095: a2 = u64 [sp + 0x38]\n 13098: a1 = a1 | a2\n 13101: a2 = 0xffffffe0\n 13111: a2 = s1 <u a2\n 13114: a3 = u64 [sp + 0x40]\n 13117: a2 = 0 if a3 != 0\n 13119: a2 = 0 if a1 != 0\n 13121: u8 [a0 + 0] = 0\n 13123: jump @202 if a2 == 0\n      : @200 (gas: 3)\n 13127: i32 a0 = s0 + 0x20\n 13130: a1 = 0x20\n 13133: ra = 168, jump @0\n      : @201 [@dyn 84] (gas: 55)\n 13139: u8 [a0 + 31] = 0\n 13142: u8 [a0 + 30] = 0x73\n 13146: u8 [a0 + 29] = 0x73\n 13150: u8 [a0 + 28] = 0x65\n 13154: u8 [a0 + 27] = 0x72\n 13158: u8 [a0 + 26] = 0x64\n 13162: u8 [a0 + 25] = 0x64\n 13166: u8 [a0 + 24] = 0x61\n 13170: u8 [a0 + 23] = 0x20\n 13174: u8 [a0 + 22] = 0x6f\n 13178: u8 [a0 + 21] = 0x72\n 13182: u8 [a0 + 20] = 0x65\n 13186: u8 [a0 + 19] = 0x7a\n 13190: u8 [a0 + 18] = 0x20\n 13194: u8 [a0 + 17] = 0x73\n 13198: u8 [a0 + 16] = 0x69\n 13202: u8 [a0 + 15] = 0x20\n 13206: u8 [a0 + 14] = 0x79\n 13210: u8 [a0 + 13] = 0x72\n 13214: u8 [a0 + 12] = 0x6f\n 13218: u8 [a0 + 11] = 0x74\n 13222: u8 [a0 + 10] = 0x63\n 13226: u8 [a0 + 9] = 0x61\n 13230: u8 [a0 + 8] = 0x66\n 13234: u8 [a0 + 7] = 0x20\n 13238: u8 [a0 + 6] = 0x3a\n 13242: a5 = 0x77\n 13245: u8 [a0 + 0x5] = a5\n 13248: u8 [a0 + 4] = 0x6f\n 13252: u8 [a0 + 3] = 0x72\n 13256: u8 [a0 + 2] = 0x63\n 13260: u8 [a0 + 1] = 0x73\n 13264: u8 [a0 + 0] = 0x45\n 13267: a1 = u64 [sp]\n 13269: a0 = a1 + 0x60\n 13272: a1 = a0 <u a1\n 13275: a3 = u64 [sp + 0x8]\n 13278: a2 = a3 + a1\n 13281: a3 = a2 <u a3\n 13284: a3 = a1 if a1 == 0\n 13287: a1 = u64 [sp + 0x10]\n 13290: a3 = a3 + a1\n 13293: a1 = a3 <u a1\n 13296: a4 = u64 [sp + 0x18]\n 13299: a1 = a1 + a4\n 13302: a4 = u64 [sp + 0x28]\n 13305: u64 [a4] = a0\n 13307: u64 [a4 + 0x8] = a2\n 13310: u64 [a4 + 0x10] = a3\n 13313: u64 [a4 + 0x18] = a1\n 13316: ra = u64 [sp + 0x58]\n 13319: s0 = u64 [sp + 0x50]\n 13322: s1 = u64 [sp + 0x48]\n 13325: sp = sp + 0x60\n 13328: ret\n      : @202 (gas: 1)\n 13330: trap\n      : @203 (gas: 16)\n 13331: sp = sp + 0xffffffffffffffa0\n 13334: u64 [sp + 0x58] = ra\n 13337: u64 [sp + 0x50] = s0\n 13340: u64 [sp + 0x48] = s1\n 13343: a3 = u64 [a1 + 0x18]\n 13346: a4 = u64 [a1 + 0x10]\n 13349: a5 = u64 [a1 + 0x8]\n 13352: s1 = u64 [a1]\n 13354: a1 = a5 | a3\n 13357: a2 = s1 | a4\n 13360: a2 = a2 | a1\n 13363: a2 = a2 >> 0x20\n 13366: a1 = a1 | a4\n 13369: a1 = a1 << 0x20\n 13372: a1 = a1 | a2\n 13375: jump @210 if a1 != 0\n      : @204 (gas: 20)\n 13379: u64 [sp + 0x10] = a0\n 13382: a0 = s1 + 0x20\n 13385: u64 [sp + 0x30] = a0\n 13388: a0 = a0 <u s1\n 13391: a1 = a5 + a0\n 13394: u64 [sp + 0x40] = a1\n 13397: u64 [sp + 0x8] = a5\n 13400: s0 = a1 <u a5\n 13403: s0 = a0 if a0 == 0\n 13406: s0 = s0 + a4\n 13409: u64 [sp + 0x18] = a4\n 13412: a0 = s0 <u a4\n 13415: u64 [sp + 0x20] = a3\n 13418: a0 = a0 + a3\n 13421: u64 [sp + 0x38] = a0\n 13424: u64 [sp] = s1\n 13426: i32 a0 = s1 + 0\n 13428: a1 = 0x20\n 13431: s1 = 0x20\n 13434: ra = 170, jump @0\n      : @205 [@dyn 85] (gas: 45)\n 13440: a1 = u64 [sp + 0x30]\n 13443: a3 = a1\n 13445: a1 = a1 | s0\n 13448: a2 = u64 [sp + 0x40]\n 13451: a4 = u64 [sp + 0x38]\n 13454: a2 = a2 | a4\n 13457: a1 = a1 | a2\n 13460: a1 = a1 >> 0x20\n 13463: u64 [sp + 0x28] = s0\n 13466: a2 = a2 | s0\n 13469: a2 = a2 << 0x20\n 13472: a1 = a1 | a2\n 13475: u8 [a0 + 0x1f] = s1\n 13478: u8 [a0 + 30] = 0\n 13481: u8 [a0 + 29] = 0\n 13484: u8 [a0 + 28] = 0\n 13487: u8 [a0 + 27] = 0\n 13490: u8 [a0 + 26] = 0\n 13493: u8 [a0 + 25] = 0\n 13496: u8 [a0 + 24] = 0\n 13499: u8 [a0 + 23] = 0\n 13502: u8 [a0 + 22] = 0\n 13505: u8 [a0 + 21] = 0\n 13508: u8 [a0 + 20] = 0\n 13511: u8 [a0 + 19] = 0\n 13514: u8 [a0 + 18] = 0\n 13517: u8 [a0 + 17] = 0\n 13520: u8 [a0 + 16] = 0\n 13523: u8 [a0 + 15] = 0\n 13526: u8 [a0 + 14] = 0\n 13529: u8 [a0 + 13] = 0\n 13532: u8 [a0 + 12] = 0\n 13535: u8 [a0 + 11] = 0\n 13538: u8 [a0 + 10] = 0\n 13541: u8 [a0 + 9] = 0\n 13544: u8 [a0 + 8] = 0\n 13547: u8 [a0 + 7] = 0\n 13550: u8 [a0 + 6] = 0\n 13553: u8 [a0 + 5] = 0\n 13556: u8 [a0 + 4] = 0\n 13559: u8 [a0 + 3] = 0\n 13562: u8 [a0 + 2] = 0\n 13565: u8 [a0 + 1] = 0\n 13568: u8 [a0 + 0] = 0\n 13570: jump @210 if a1 != 0\n      : @206 (gas: 5)\n 13574: s1 = a3\n 13576: i32 s0 = a3 + 0\n 13578: a1 = 0x20\n 13581: a0 = s0\n 13583: ra = 172, jump @0\n      : @207 [@dyn 86] (gas: 41)\n 13589: u8 [a0 + 31] = 0x20\n 13593: u8 [a0 + 30] = 0\n 13596: u8 [a0 + 29] = 0\n 13599: u8 [a0 + 28] = 0\n 13602: u8 [a0 + 27] = 0\n 13605: u8 [a0 + 26] = 0\n 13608: u8 [a0 + 25] = 0\n 13611: u8 [a0 + 24] = 0\n 13614: u8 [a0 + 23] = 0\n 13617: u8 [a0 + 22] = 0\n 13620: u8 [a0 + 21] = 0\n 13623: u8 [a0 + 20] = 0\n 13626: u8 [a0 + 19] = 0\n 13629: u8 [a0 + 18] = 0\n 13632: u8 [a0 + 17] = 0\n 13635: u8 [a0 + 16] = 0\n 13638: u8 [a0 + 15] = 0\n 13641: u8 [a0 + 14] = 0\n 13644: u8 [a0 + 13] = 0\n 13647: u8 [a0 + 12] = 0\n 13650: u8 [a0 + 11] = 0\n 13653: u8 [a0 + 10] = 0\n 13656: u8 [a0 + 9] = 0\n 13659: u8 [a0 + 8] = 0\n 13662: u8 [a0 + 7] = 0\n 13665: u8 [a0 + 6] = 0\n 13668: u8 [a0 + 5] = 0\n 13671: u8 [a0 + 4] = 0\n 13674: u8 [a0 + 3] = 0\n 13677: u8 [a0 + 2] = 0\n 13680: u8 [a0 + 1] = 0\n 13683: a1 = u64 [sp + 0x28]\n 13686: a2 = u64 [sp + 0x38]\n 13689: a1 = a1 | a2\n 13692: a2 = 0xffffffe0\n 13702: a2 = s1 <u a2\n 13705: a3 = u64 [sp + 0x40]\n 13708: a2 = 0 if a3 != 0\n 13710: a2 = 0 if a1 != 0\n 13712: u8 [a0 + 0] = 0\n 13714: jump @210 if a2 == 0\n      : @208 (gas: 4)\n 13718: i32 a0 = s0 + 0x20\n 13721: a1 = 0x20\n 13724: s0 = 0x20\n 13727: ra = 174, jump @0\n      : @209 [@dyn 87] (gas: 54)\n 13733: u8 [a0 + 25] = 0x61\n 13737: u8 [a0 + 20] = 0x7a\n 13741: u8 [a0 + 29] = 0x65\n 13745: u8 [a0 + 21] = 0x65\n 13749: u8 [a0 + 14] = 0x65\n 13753: u8 [a0 + 27] = 0x64\n 13757: u8 [a0 + 26] = 0x64\n 13761: u8 [a0 + 13] = 0x64\n 13765: u8 [a0 + 17] = 0x69\n 13769: u8 [a0 + 12] = 0x69\n 13773: u8 [a0 + 11] = 0x76\n 13777: u8 [a0 + 8] = 0x70\n 13781: u8 [a0 + 0x18] = s0\n 13784: u8 [a0 + 0x13] = s0\n 13787: u8 [a0 + 0x10] = s0\n 13790: u8 [a0 + 0x7] = s0\n 13793: u8 [a0 + 6] = 0x3a\n 13797: u8 [a0 + 5] = 0x77\n 13801: u8 [a0 + 23] = 0x6f\n 13805: u8 [a0 + 10] = 0x6f\n 13809: u8 [a0 + 4] = 0x6f\n 13813: u8 [a0 + 28] = 0x72\n 13817: u8 [a0 + 22] = 0x72\n 13821: u8 [a0 + 15] = 0x72\n 13825: u8 [a0 + 9] = 0x72\n 13829: u8 [a0 + 3] = 0x72\n 13833: u8 [a0 + 2] = 0x63\n 13837: u8 [a0 + 31] = 0x73\n 13841: u8 [a0 + 30] = 0x73\n 13845: u8 [a0 + 18] = 0x73\n 13849: u8 [a0 + 1] = 0x73\n 13853: u8 [a0 + 0] = 0x45\n 13856: a1 = u64 [sp]\n 13858: a0 = a1 + 0x60\n 13861: a1 = a0 <u a1\n 13864: a3 = u64 [sp + 0x8]\n 13867: a2 = a3 + a1\n 13870: a3 = a2 <u a3\n 13873: a3 = a1 if a1 == 0\n 13876: a1 = u64 [sp + 0x18]\n 13879: a3 = a3 + a1\n 13882: a1 = a3 <u a1\n 13885: a4 = u64 [sp + 0x20]\n 13888: a1 = a1 + a4\n 13891: a4 = u64 [sp + 0x10]\n 13894: u64 [a4] = a0\n 13896: u64 [a4 + 0x8] = a2\n 13899: u64 [a4 + 0x10] = a3\n 13902: u64 [a4 + 0x18] = a1\n 13905: ra = u64 [sp + 0x58]\n 13908: s0 = u64 [sp + 0x50]\n 13911: s1 = u64 [sp + 0x48]\n 13914: sp = sp + 0x60\n 13917: ret\n      : @210 (gas: 1)\n 13919: trap\n      : @211 (gas: 17)\n 13920: sp = sp + 0xffffffffffffffa0\n 13923: u64 [sp + 0x58] = ra\n 13926: u64 [sp + 0x50] = s0\n 13929: u64 [sp + 0x48] = s1\n 13932: a3 = u64 [a1 + 0x18]\n 13935: a4 = u64 [a1 + 0x10]\n 13938: a5 = u64 [a1 + 0x8]\n 13941: s1 = u64 [a1]\n 13943: a1 = a5 | a3\n 13946: a2 = s1 | a4\n 13949: a2 = a2 | a1\n 13952: a2 = a2 >> 0x20\n 13955: a1 = a1 | a4\n 13958: a1 = a1 << 0x20\n 13961: a1 = a1 | a2\n 13964: u64 [sp + 0x28] = a0\n 13967: jump @218 if a1 != 0\n      : @212 (gas: 19)\n 13971: a0 = s1 + 0x20\n 13974: u64 [sp + 0x30] = a0\n 13977: a0 = a0 <u s1\n 13980: a1 = a5 + a0\n 13983: u64 [sp + 0x40] = a1\n 13986: u64 [sp + 0x8] = a5\n 13989: s0 = a1 <u a5\n 13992: s0 = a0 if a0 == 0\n 13995: s0 = s0 + a4\n 13998: u64 [sp + 0x10] = a4\n 14001: a0 = s0 <u a4\n 14004: u64 [sp + 0x18] = a3\n 14007: a0 = a0 + a3\n 14010: u64 [sp + 0x38] = a0\n 14013: u64 [sp] = s1\n 14015: i32 a0 = s1 + 0\n 14017: a1 = 0x20\n 14020: s1 = 0x20\n 14023: ra = 176, jump @0\n      : @213 [@dyn 88] (gas: 45)\n 14029: u8 [a0 + 0x1f] = s1\n 14032: a1 = u64 [sp + 0x30]\n 14035: s1 = a1\n 14037: a1 = a1 | s0\n 14040: a2 = u64 [sp + 0x40]\n 14043: a4 = u64 [sp + 0x38]\n 14046: a2 = a2 | a4\n 14049: a1 = a1 | a2\n 14052: a1 = a1 >> 0x20\n 14055: u64 [sp + 0x20] = s0\n 14058: a2 = a2 | s0\n 14061: a2 = a2 << 0x20\n 14064: a1 = a1 | a2\n 14067: u8 [a0 + 30] = 0\n 14070: u8 [a0 + 29] = 0\n 14073: u8 [a0 + 28] = 0\n 14076: u8 [a0 + 27] = 0\n 14079: u8 [a0 + 26] = 0\n 14082: u8 [a0 + 25] = 0\n 14085: u8 [a0 + 24] = 0\n 14088: u8 [a0 + 23] = 0\n 14091: u8 [a0 + 22] = 0\n 14094: u8 [a0 + 21] = 0\n 14097: u8 [a0 + 20] = 0\n 14100: u8 [a0 + 19] = 0\n 14103: u8 [a0 + 18] = 0\n 14106: u8 [a0 + 17] = 0\n 14109: u8 [a0 + 16] = 0\n 14112: u8 [a0 + 15] = 0\n 14115: u8 [a0 + 14] = 0\n 14118: u8 [a0 + 13] = 0\n 14121: u8 [a0 + 12] = 0\n 14124: u8 [a0 + 11] = 0\n 14127: u8 [a0 + 10] = 0\n 14130: u8 [a0 + 9] = 0\n 14133: u8 [a0 + 8] = 0\n 14136: u8 [a0 + 7] = 0\n 14139: u8 [a0 + 6] = 0\n 14142: u8 [a0 + 5] = 0\n 14145: u8 [a0 + 4] = 0\n 14148: u8 [a0 + 3] = 0\n 14151: u8 [a0 + 2] = 0\n 14154: u8 [a0 + 1] = 0\n 14157: u8 [a0 + 0] = 0\n 14159: jump @218 if a1 != 0\n      : @214 (gas: 4)\n 14163: i32 s0 = s1 + 0\n 14165: a1 = 0x20\n 14168: a0 = s0\n 14170: ra = 178, jump @0\n      : @215 [@dyn 89] (gas: 41)\n 14176: u8 [a0 + 31] = 0x19\n 14180: u8 [a0 + 30] = 0\n 14183: u8 [a0 + 29] = 0\n 14186: u8 [a0 + 28] = 0\n 14189: u8 [a0 + 27] = 0\n 14192: u8 [a0 + 26] = 0\n 14195: u8 [a0 + 25] = 0\n 14198: u8 [a0 + 24] = 0\n 14201: u8 [a0 + 23] = 0\n 14204: u8 [a0 + 22] = 0\n 14207: u8 [a0 + 21] = 0\n 14210: u8 [a0 + 20] = 0\n 14213: u8 [a0 + 19] = 0\n 14216: u8 [a0 + 18] = 0\n 14219: u8 [a0 + 17] = 0\n 14222: u8 [a0 + 16] = 0\n 14225: u8 [a0 + 15] = 0\n 14228: u8 [a0 + 14] = 0\n 14231: u8 [a0 + 13] = 0\n 14234: u8 [a0 + 12] = 0\n 14237: u8 [a0 + 11] = 0\n 14240: u8 [a0 + 10] = 0\n 14243: u8 [a0 + 9] = 0\n 14246: u8 [a0 + 8] = 0\n 14249: u8 [a0 + 7] = 0\n 14252: u8 [a0 + 6] = 0\n 14255: u8 [a0 + 5] = 0\n 14258: u8 [a0 + 4] = 0\n 14261: u8 [a0 + 3] = 0\n 14264: u8 [a0 + 2] = 0\n 14267: u8 [a0 + 1] = 0\n 14270: a1 = u64 [sp + 0x20]\n 14273: a2 = u64 [sp + 0x38]\n 14276: a1 = a1 | a2\n 14279: a2 = 0xffffffe0\n 14289: a2 = s1 <u a2\n 14292: a3 = u64 [sp + 0x40]\n 14295: a2 = 0 if a3 != 0\n 14297: a2 = 0 if a1 != 0\n 14299: u8 [a0 + 0] = 0\n 14301: jump @218 if a2 == 0\n      : @216 (gas: 3)\n 14305: i32 a0 = s0 + 0x20\n 14308: a1 = 0x20\n 14311: ra = 180, jump @0\n      : @217 [@dyn 90] (gas: 55)\n 14317: u8 [a0 + 31] = 0\n 14320: u8 [a0 + 30] = 0\n 14323: u8 [a0 + 29] = 0\n 14326: u8 [a0 + 28] = 0\n 14329: u8 [a0 + 27] = 0\n 14332: u8 [a0 + 26] = 0\n 14335: u8 [a0 + 25] = 0\n 14338: u8 [a0 + 24] = 0x30\n 14342: a5 = 0x20\n 14345: u8 [a0 + 0x17] = a5\n 14348: u8 [a0 + 22] = 0x3e\n 14352: u8 [a0 + 0x15] = a5\n 14355: u8 [a0 + 20] = 0x65\n 14359: u8 [a0 + 19] = 0x62\n 14363: u8 [a0 + 0x12] = a5\n 14366: u8 [a0 + 17] = 0x74\n 14370: u8 [a0 + 16] = 0x73\n 14374: u8 [a0 + 15] = 0x75\n 14378: u8 [a0 + 14] = 0x6d\n 14382: u8 [a0 + 0xd] = a5\n 14385: u8 [a0 + 12] = 0x65\n 14389: u8 [a0 + 11] = 0x63\n 14393: u8 [a0 + 10] = 0x69\n 14397: u8 [a0 + 9] = 0x72\n 14401: u8 [a0 + 8] = 0x70\n 14405: u8 [a0 + 0x7] = a5\n 14408: u8 [a0 + 6] = 0x3a\n 14412: u8 [a0 + 5] = 0x77\n 14416: u8 [a0 + 4] = 0x6f\n 14420: u8 [a0 + 3] = 0x72\n 14424: u8 [a0 + 2] = 0x63\n 14428: u8 [a0 + 1] = 0x73\n 14432: u8 [a0 + 0] = 0x45\n 14435: a1 = u64 [sp]\n 14437: a0 = a1 + 0x60\n 14440: a1 = a0 <u a1\n 14443: a3 = u64 [sp + 0x8]\n 14446: a2 = a3 + a1\n 14449: a3 = a2 <u a3\n 14452: a3 = a1 if a1 == 0\n 14455: a1 = u64 [sp + 0x10]\n 14458: a3 = a3 + a1\n 14461: a1 = a3 <u a1\n 14464: a4 = u64 [sp + 0x18]\n 14467: a1 = a1 + a4\n 14470: a4 = u64 [sp + 0x28]\n 14473: u64 [a4] = a0\n 14475: u64 [a4 + 0x8] = a2\n 14478: u64 [a4 + 0x10] = a3\n 14481: u64 [a4 + 0x18] = a1\n 14484: ra = u64 [sp + 0x58]\n 14487: s0 = u64 [sp + 0x50]\n 14490: s1 = u64 [sp + 0x48]\n 14493: sp = sp + 0x60\n 14496: ret\n      : @218 (gas: 1)\n 14498: trap\n      : @219 (gas: 17)\n 14499: sp = sp + 0xffffffffffffffa0\n 14502: u64 [sp + 0x58] = ra\n 14505: u64 [sp + 0x50] = s0\n 14508: u64 [sp + 0x48] = s1\n 14511: a3 = u64 [a1 + 0x18]\n 14514: a4 = u64 [a1 + 0x10]\n 14517: a5 = u64 [a1 + 0x8]\n 14520: s1 = u64 [a1]\n 14522: a1 = a5 | a3\n 14525: a2 = s1 | a4\n 14528: a2 = a2 | a1\n 14531: a2 = a2 >> 0x20\n 14534: a1 = a1 | a4\n 14537: a1 = a1 << 0x20\n 14540: a1 = a1 | a2\n 14543: u64 [sp + 0x28] = a0\n 14546: jump @226 if a1 != 0\n      : @220 (gas: 19)\n 14550: a0 = s1 + 0x20\n 14553: u64 [sp + 0x30] = a0\n 14556: a0 = a0 <u s1\n 14559: a1 = a5 + a0\n 14562: u64 [sp + 0x40] = a1\n 14565: u64 [sp + 0x8] = a5\n 14568: s0 = a1 <u a5\n 14571: s0 = a0 if a0 == 0\n 14574: s0 = s0 + a4\n 14577: u64 [sp + 0x10] = a4\n 14580: a0 = s0 <u a4\n 14583: u64 [sp + 0x18] = a3\n 14586: a0 = a0 + a3\n 14589: u64 [sp + 0x38] = a0\n 14592: u64 [sp] = s1\n 14594: i32 a0 = s1 + 0\n 14596: a1 = 0x20\n 14599: s1 = 0x20\n 14602: ra = 182, jump @0\n      : @221 [@dyn 91] (gas: 45)\n 14608: u8 [a0 + 0x1f] = s1\n 14611: a1 = u64 [sp + 0x30]\n 14614: s1 = a1\n 14616: a1 = a1 | s0\n 14619: a2 = u64 [sp + 0x40]\n 14622: a4 = u64 [sp + 0x38]\n 14625: a2 = a2 | a4\n 14628: a1 = a1 | a2\n 14631: a1 = a1 >> 0x20\n 14634: u64 [sp + 0x20] = s0\n 14637: a2 = a2 | s0\n 14640: a2 = a2 << 0x20\n 14643: a1 = a1 | a2\n 14646: u8 [a0 + 30] = 0\n 14649: u8 [a0 + 29] = 0\n 14652: u8 [a0 + 28] = 0\n 14655: u8 [a0 + 27] = 0\n 14658: u8 [a0 + 26] = 0\n 14661: u8 [a0 + 25] = 0\n 14664: u8 [a0 + 24] = 0\n 14667: u8 [a0 + 23] = 0\n 14670: u8 [a0 + 22] = 0\n 14673: u8 [a0 + 21] = 0\n 14676: u8 [a0 + 20] = 0\n 14679: u8 [a0 + 19] = 0\n 14682: u8 [a0 + 18] = 0\n 14685: u8 [a0 + 17] = 0\n 14688: u8 [a0 + 16] = 0\n 14691: u8 [a0 + 15] = 0\n 14694: u8 [a0 + 14] = 0\n 14697: u8 [a0 + 13] = 0\n 14700: u8 [a0 + 12] = 0\n 14703: u8 [a0 + 11] = 0\n 14706: u8 [a0 + 10] = 0\n 14709: u8 [a0 + 9] = 0\n 14712: u8 [a0 + 8] = 0\n 14715: u8 [a0 + 7] = 0\n 14718: u8 [a0 + 6] = 0\n 14721: u8 [a0 + 5] = 0\n 14724: u8 [a0 + 4] = 0\n 14727: u8 [a0 + 3] = 0\n 14730: u8 [a0 + 2] = 0\n 14733: u8 [a0 + 1] = 0\n 14736: u8 [a0 + 0] = 0\n 14738: jump @226 if a1 != 0\n      : @222 (gas: 4)\n 14742: i32 s0 = s1 + 0\n 14744: a1 = 0x20\n 14747: a0 = s0\n 14749: ra = 184, jump @0\n      : @223 [@dyn 92] (gas: 41)\n 14755: u8 [a0 + 31] = 0x1f\n 14759: u8 [a0 + 30] = 0\n 14762: u8 [a0 + 29] = 0\n 14765: u8 [a0 + 28] = 0\n 14768: u8 [a0 + 27] = 0\n 14771: u8 [a0 + 26] = 0\n 14774: u8 [a0 + 25] = 0\n 14777: u8 [a0 + 24] = 0\n 14780: u8 [a0 + 23] = 0\n 14783: u8 [a0 + 22] = 0\n 14786: u8 [a0 + 21] = 0\n 14789: u8 [a0 + 20] = 0\n 14792: u8 [a0 + 19] = 0\n 14795: u8 [a0 + 18] = 0\n 14798: u8 [a0 + 17] = 0\n 14801: u8 [a0 + 16] = 0\n 14804: u8 [a0 + 15] = 0\n 14807: u8 [a0 + 14] = 0\n 14810: u8 [a0 + 13] = 0\n 14813: u8 [a0 + 12] = 0\n 14816: u8 [a0 + 11] = 0\n 14819: u8 [a0 + 10] = 0\n 14822: u8 [a0 + 9] = 0\n 14825: u8 [a0 + 8] = 0\n 14828: u8 [a0 + 7] = 0\n 14831: u8 [a0 + 6] = 0\n 14834: u8 [a0 + 5] = 0\n 14837: u8 [a0 + 4] = 0\n 14840: u8 [a0 + 3] = 0\n 14843: u8 [a0 + 2] = 0\n 14846: u8 [a0 + 1] = 0\n 14849: a1 = u64 [sp + 0x20]\n 14852: a2 = u64 [sp + 0x38]\n 14855: a1 = a1 | a2\n 14858: a2 = 0xffffffe0\n 14868: a2 = s1 <u a2\n 14871: a3 = u64 [sp + 0x40]\n 14874: a2 = 0 if a3 != 0\n 14876: a2 = 0 if a1 != 0\n 14878: u8 [a0 + 0] = 0\n 14880: jump @226 if a2 == 0\n      : @224 (gas: 3)\n 14884: i32 a0 = s0 + 0x20\n 14887: a1 = 0x20\n 14890: ra = 186, jump @0\n      : @225 [@dyn 93] (gas: 54)\n 14896: u8 [a0 + 28] = 0x70\n 14900: u8 [a0 + 27] = 0x6d\n 14904: u8 [a0 + 23] = 0x62\n 14908: u8 [a0 + 19] = 0x6e\n 14912: u8 [a0 + 18] = 0x6e\n 14916: u8 [a0 + 30] = 0x79\n 14920: u8 [a0 + 14] = 0x79\n 14924: u8 [a0 + 26] = 0x65\n 14928: u8 [a0 + 24] = 0x65\n 14932: u8 [a0 + 11] = 0x65\n 14936: u8 [a0 + 29] = 0x74\n 14940: u8 [a0 + 21] = 0x74\n 14944: u8 [a0 + 10] = 0x74\n 14948: u8 [a0 + 17] = 0x61\n 14952: u8 [a0 + 13] = 0x61\n 14956: u8 [a0 + 9] = 0x61\n 14960: u8 [a0 + 8] = 0x67\n 14964: u8 [a0 + 31] = 0\n 14967: u8 [a0 + 25] = 0x20\n 14971: u8 [a0 + 22] = 0x20\n 14975: u8 [a0 + 15] = 0x20\n 14979: u8 [a0 + 7] = 0x20\n 14983: u8 [a0 + 6] = 0x3a\n 14987: u8 [a0 + 12] = 0x77\n 14991: u8 [a0 + 5] = 0x77\n 14995: u8 [a0 + 20] = 0x6f\n 14999: u8 [a0 + 4] = 0x6f\n 15003: u8 [a0 + 3] = 0x72\n 15007: u8 [a0 + 16] = 0x63\n 15011: u8 [a0 + 2] = 0x63\n 15015: u8 [a0 + 1] = 0x73\n 15019: u8 [a0 + 0] = 0x45\n 15022: a1 = u64 [sp]\n 15024: a0 = a1 + 0x60\n 15027: a1 = a0 <u a1\n 15030: a3 = u64 [sp + 0x8]\n 15033: a2 = a3 + a1\n 15036: a3 = a2 <u a3\n 15039: a3 = a1 if a1 == 0\n 15042: a1 = u64 [sp + 0x10]\n 15045: a3 = a3 + a1\n 15048: a1 = a3 <u a1\n 15051: a4 = u64 [sp + 0x18]\n 15054: a1 = a1 + a4\n 15057: a4 = u64 [sp + 0x28]\n 15060: u64 [a4] = a0\n 15062: u64 [a4 + 0x8] = a2\n 15065: u64 [a4 + 0x10] = a3\n 15068: u64 [a4 + 0x18] = a1\n 15071: ra = u64 [sp + 0x58]\n 15074: s0 = u64 [sp + 0x50]\n 15077: s1 = u64 [sp + 0x48]\n 15080: sp = sp + 0x60\n 15083: ret\n      : @226 (gas: 1)\n 15085: trap\n      : @227 (gas: 17)\n 15086: sp = sp + 0xffffffffffffffa0\n 15089: u64 [sp + 0x58] = ra\n 15092: u64 [sp + 0x50] = s0\n 15095: u64 [sp + 0x48] = s1\n 15098: a3 = u64 [a1 + 0x18]\n 15101: a4 = u64 [a1 + 0x10]\n 15104: a5 = u64 [a1 + 0x8]\n 15107: s1 = u64 [a1]\n 15109: a1 = a5 | a3\n 15112: a2 = s1 | a4\n 15115: a2 = a2 | a1\n 15118: a2 = a2 >> 0x20\n 15121: a1 = a1 | a4\n 15124: a1 = a1 << 0x20\n 15127: a1 = a1 | a2\n 15130: u64 [sp + 0x20] = a0\n 15133: jump @236 if a1 != 0\n      : @228 (gas: 19)\n 15137: a0 = s1 + 0x20\n 15140: u64 [sp + 0x40] = a0\n 15143: a0 = a0 <u s1\n 15146: a1 = a5 + a0\n 15149: u64 [sp + 0x38] = a1\n 15152: u64 [sp + 0x8] = a5\n 15155: s0 = a1 <u a5\n 15158: s0 = a0 if a0 == 0\n 15161: s0 = s0 + a4\n 15164: u64 [sp + 0x10] = a4\n 15167: a0 = s0 <u a4\n 15170: u64 [sp + 0x18] = a3\n 15173: a0 = a0 + a3\n 15176: u64 [sp + 0x30] = a0\n 15179: u64 [sp] = s1\n 15181: i32 a0 = s1 + 0\n 15183: a1 = 0x20\n 15186: s1 = 0x20\n 15189: ra = 188, jump @0\n      : @229 [@dyn 94] (gas: 43)\n 15195: u8 [a0 + 0x1f] = s1\n 15198: a1 = u64 [sp + 0x40]\n 15201: a1 = a1 | s0\n 15204: a2 = u64 [sp + 0x38]\n 15207: a3 = u64 [sp + 0x30]\n 15210: a2 = a2 | a3\n 15213: a1 = a1 | a2\n 15216: a1 = a1 >> 0x20\n 15219: a2 = a2 | s0\n 15222: a2 = a2 << 0x20\n 15225: a1 = a1 | a2\n 15228: u8 [a0 + 30] = 0\n 15231: u8 [a0 + 29] = 0\n 15234: u8 [a0 + 28] = 0\n 15237: u8 [a0 + 27] = 0\n 15240: u8 [a0 + 26] = 0\n 15243: u8 [a0 + 25] = 0\n 15246: u8 [a0 + 24] = 0\n 15249: u8 [a0 + 23] = 0\n 15252: u8 [a0 + 22] = 0\n 15255: u8 [a0 + 21] = 0\n 15258: u8 [a0 + 20] = 0\n 15261: u8 [a0 + 19] = 0\n 15264: u8 [a0 + 18] = 0\n 15267: u8 [a0 + 17] = 0\n 15270: u8 [a0 + 16] = 0\n 15273: u8 [a0 + 15] = 0\n 15276: u8 [a0 + 14] = 0\n 15279: u8 [a0 + 13] = 0\n 15282: u8 [a0 + 12] = 0\n 15285: u8 [a0 + 11] = 0\n 15288: u8 [a0 + 10] = 0\n 15291: u8 [a0 + 9] = 0\n 15294: u8 [a0 + 8] = 0\n 15297: u8 [a0 + 7] = 0\n 15300: u8 [a0 + 6] = 0\n 15303: u8 [a0 + 5] = 0\n 15306: u8 [a0 + 4] = 0\n 15309: u8 [a0 + 3] = 0\n 15312: u8 [a0 + 2] = 0\n 15315: u8 [a0 + 1] = 0\n 15318: u8 [a0 + 0] = 0\n 15320: jump @236 if a1 != 0\n      : @230 (gas: 5)\n 15324: s1 = u64 [sp + 0x40]\n 15327: i32 a0 = s1 + 0\n 15329: a1 = 0x20\n 15332: u64 [sp + 0x28] = a0\n 15335: ra = 190, jump @0\n      : @231 [@dyn 95] (gas: 42)\n 15341: u8 [a0 + 31] = 0x2d\n 15345: u8 [a0 + 30] = 0\n 15348: u8 [a0 + 29] = 0\n 15351: u8 [a0 + 28] = 0\n 15354: u8 [a0 + 27] = 0\n 15357: u8 [a0 + 26] = 0\n 15360: u8 [a0 + 25] = 0\n 15363: u8 [a0 + 24] = 0\n 15366: u8 [a0 + 23] = 0\n 15369: u8 [a0 + 22] = 0\n 15372: u8 [a0 + 21] = 0\n 15375: u8 [a0 + 20] = 0\n 15378: u8 [a0 + 19] = 0\n 15381: u8 [a0 + 18] = 0\n 15384: u8 [a0 + 17] = 0\n 15387: u8 [a0 + 16] = 0\n 15390: u8 [a0 + 15] = 0\n 15393: u8 [a0 + 14] = 0\n 15396: u8 [a0 + 13] = 0\n 15399: u8 [a0 + 12] = 0\n 15402: u8 [a0 + 11] = 0\n 15405: u8 [a0 + 10] = 0\n 15408: u8 [a0 + 9] = 0\n 15411: u8 [a0 + 8] = 0\n 15414: u8 [a0 + 7] = 0\n 15417: u8 [a0 + 6] = 0\n 15420: u8 [a0 + 5] = 0\n 15423: u8 [a0 + 4] = 0\n 15426: u8 [a0 + 3] = 0\n 15429: u8 [a0 + 2] = 0\n 15432: u8 [a0 + 1] = 0\n 15435: a1 = u64 [sp + 0x30]\n 15438: a3 = s0 | a1\n 15441: s0 = 0x100000000\n 15451: a1 = 0xffffffe0\n 15461: a1 = s1 <u a1\n 15464: a2 = u64 [sp + 0x38]\n 15467: a1 = 0 if a2 != 0\n 15469: u64 [sp + 0x30] = a3\n 15472: a1 = 0 if a3 != 0\n 15474: u8 [a0 + 0] = 0\n 15476: jump @236 if a1 == 0\n      : @232 (gas: 4)\n 15480: a0 = u64 [sp + 0x28]\n 15483: i32 a0 = a0 + 0x20\n 15486: a1 = 0x20\n 15489: ra = 192, jump @0\n      : @233 [@dyn 96] (gas: 44)\n 15495: u8 [a0 + 30] = 0x62\n 15499: u8 [a0 + 26] = 0x6e\n 15503: u8 [a0 + 25] = 0x6e\n 15507: u8 [a0 + 19] = 0x6e\n 15511: u8 [a0 + 17] = 0x69\n 15515: u8 [a0 + 14] = 0x79\n 15519: u8 [a0 + 28] = 0x74\n 15523: u8 [a0 + 10] = 0x74\n 15527: u8 [a0 + 18] = 0x67\n 15531: u8 [a0 + 8] = 0x67\n 15535: u8 [a0 + 31] = 0x65\n 15539: u8 [a0 + 29] = 0x20\n 15543: u8 [a0 + 22] = 0x20\n 15547: u8 [a0 + 15] = 0x20\n 15551: u8 [a0 + 7] = 0x20\n 15555: u8 [a0 + 6] = 0x3a\n 15559: u8 [a0 + 12] = 0x77\n 15563: u8 [a0 + 5] = 0x77\n 15567: u8 [a0 + 23] = 0x63\n 15571: u8 [a0 + 2] = 0x63\n 15575: u8 [a0 + 0] = 0x45\n 15578: a4 = 0x6f\n 15581: u8 [a0 + 0x1b] = a4\n 15584: a1 = s0 + 0xffffffffffffffc0\n 15587: a2 = u64 [sp + 0x40]\n 15590: a1 = a2 <u a1\n 15593: a5 = 0x61\n 15596: u8 [a0 + 0x18] = a5\n 15599: a2 = u64 [sp + 0x38]\n 15602: a1 = 0 if a2 != 0\n 15604: s1 = 0x72\n 15607: u8 [a0 + 0x15] = s1\n 15610: u8 [a0 + 20] = 0x65\n 15614: a2 = u64 [sp + 0x30]\n 15617: a1 = 0 if a2 != 0\n 15619: s0 = 0x73\n 15622: u8 [a0 + 0x10] = s0\n 15625: u8 [a0 + 0xd] = a5\n 15628: u8 [a0 + 11] = 0x65\n 15632: u8 [a0 + 0x9] = a5\n 15635: u8 [a0 + 0x4] = a4\n 15638: u8 [a0 + 0x3] = s1\n 15641: u8 [a0 + 0x1] = s0\n 15644: jump @236 if a1 == 0\n      : @234 (gas: 4)\n 15648: a0 = u64 [sp + 0x28]\n 15651: i32 a0 = a0 + 0x40\n 15654: a1 = 0x20\n 15657: ra = 194, jump @0\n      : @235 [@dyn 97] (gas: 54)\n 15663: u8 [a0 + 31] = 0\n 15666: u8 [a0 + 30] = 0\n 15669: u8 [a0 + 29] = 0\n 15672: u8 [a0 + 28] = 0\n 15675: u8 [a0 + 27] = 0\n 15678: u8 [a0 + 26] = 0\n 15681: u8 [a0 + 25] = 0\n 15684: u8 [a0 + 24] = 0\n 15687: u8 [a0 + 23] = 0\n 15690: u8 [a0 + 22] = 0\n 15693: u8 [a0 + 21] = 0\n 15696: u8 [a0 + 20] = 0\n 15699: u8 [a0 + 19] = 0\n 15702: u8 [a0 + 18] = 0\n 15705: u8 [a0 + 17] = 0\n 15708: u8 [a0 + 16] = 0\n 15711: u8 [a0 + 15] = 0\n 15714: u8 [a0 + 14] = 0\n 15717: u8 [a0 + 13] = 0\n 15720: u8 [a0 + 0xc] = s0\n 15723: u8 [a0 + 0xb] = s0\n 15726: u8 [a0 + 10] = 0x65\n 15730: u8 [a0 + 0x9] = s1\n 15733: u8 [a0 + 8] = 0x64\n 15737: u8 [a0 + 7] = 0x64\n 15741: u8 [a0 + 6] = 0x61\n 15745: u8 [a0 + 5] = 0x20\n 15749: u8 [a0 + 4] = 0x6f\n 15753: u8 [a0 + 0x3] = s1\n 15756: u8 [a0 + 2] = 0x65\n 15760: u8 [a0 + 1] = 0x7a\n 15764: u8 [a0 + 0] = 0x20\n 15767: a1 = u64 [sp]\n 15769: a0 = a1 + 0x80\n 15773: a1 = a0 <u a1\n 15776: a3 = u64 [sp + 0x8]\n 15779: a2 = a3 + a1\n 15782: a3 = a2 <u a3\n 15785: a3 = a1 if a1 == 0\n 15788: a1 = u64 [sp + 0x10]\n 15791: a3 = a3 + a1\n 15794: a1 = a3 <u a1\n 15797: a4 = u64 [sp + 0x18]\n 15800: a1 = a1 + a4\n 15803: a4 = u64 [sp + 0x20]\n 15806: u64 [a4] = a0\n 15808: u64 [a4 + 0x8] = a2\n 15811: u64 [a4 + 0x10] = a3\n 15814: u64 [a4 + 0x18] = a1\n 15817: ra = u64 [sp + 0x58]\n 15820: s0 = u64 [sp + 0x50]\n 15823: s1 = u64 [sp + 0x48]\n 15826: sp = sp + 0x60\n 15829: ret\n      : @236 (gas: 1)\n 15831: trap\n      : @237 (gas: 15)\n 15832: sp = sp + 0xffffffffffffff20\n 15836: u64 [sp + 0xd8] = ra\n 15840: u64 [sp + 0xd0] = s0\n 15844: u64 [sp + 0xc8] = s1\n 15848: s0 = sp + 0xe0\n 15852: sp = sp & 0xffffffffffffffe0\n 15855: t0 = u64 [a1 + 0x18]\n 15858: a5 = u64 [a1 + 0x10]\n 15861: a4 = u64 [a1]\n 15863: s1 = u64 [a1 + 0x8]\n 15866: a1 = a5 | t0\n 15869: a3 = a4 <u 0x20\n 15872: a3 = 0 if s1 != 0\n 15874: a3 = 0 if a1 != 0\n 15876: jump @245 if a3 != 0\n      : @238 (gas: 23)\n 15880: a1 = u64 [a2 + 0x18]\n 15883: u64 [sp + 0x50] = a1\n 15886: a1 = u64 [a2 + 0x10]\n 15889: u64 [sp + 0x40] = a1\n 15892: a1 = u64 [a2 + 0x8]\n 15895: u64 [sp + 0x58] = a1\n 15898: a1 = u64 [a2]\n 15900: u64 [sp + 0x20] = a1\n 15903: a1 = u64 [a0 + 0x18]\n 15906: u64 [sp] = a1\n 15908: a1 = u64 [a0 + 0x10]\n 15911: u64 [sp + 0x8] = a1\n 15914: a1 = u64 [a0 + 0x8]\n 15917: u64 [sp + 0x10] = a1\n 15920: a0 = u64 [a0]\n 15922: u64 [sp + 0x18] = a0\n 15925: a1 = 0x20\n 15928: a0 = 0\n 15930: u64 [sp + 0x28] = t0\n 15933: u64 [sp + 0x48] = a5\n 15936: u64 [sp + 0x38] = s1\n 15939: u64 [sp + 0x30] = a4\n 15942: ra = 196, jump @0\n      : @239 [@dyn 98] (gas: 71)\n 15948: a1 = u64 [sp]\n 15950: a1 = reverse a1\n 15952: a2 = u64 [sp + 0x8]\n 15955: a2 = reverse a2\n 15957: a3 = u64 [sp + 0x10]\n 15960: a3 = reverse a3\n 15962: a4 = u64 [sp + 0x18]\n 15965: a4 = reverse a4\n 15967: a5 = a4 >> 0x38\n 15970: u8 [a0 + 0x1f] = a5\n 15973: a5 = a4 >> 0x30\n 15976: u8 [a0 + 0x1e] = a5\n 15979: a5 = a4 >> 0x28\n 15982: u8 [a0 + 0x1d] = a5\n 15985: a5 = a4 >> 0x20\n 15988: u8 [a0 + 0x1c] = a5\n 15991: a5 = a4 >> 0x18\n 15994: u8 [a0 + 0x1b] = a5\n 15997: a5 = a4 >> 0x10\n 16000: u8 [a0 + 0x1a] = a5\n 16003: a5 = a4 >> 0x8\n 16006: u8 [a0 + 0x19] = a5\n 16009: u8 [a0 + 0x18] = a4\n 16012: u8 [a0 + 0x10] = a3\n 16015: a4 = a3 >> 0x38\n 16018: u8 [a0 + 0x17] = a4\n 16021: a4 = a3 >> 0x30\n 16024: u8 [a0 + 0x16] = a4\n 16027: a4 = a3 >> 0x28\n 16030: u8 [a0 + 0x15] = a4\n 16033: a4 = a3 >> 0x20\n 16036: u8 [a0 + 0x14] = a4\n 16039: a4 = a3 >> 0x18\n 16042: u8 [a0 + 0x13] = a4\n 16045: a4 = a3 >> 0x10\n 16048: u8 [a0 + 0x12] = a4\n 16051: a3 = a3 >> 0x8\n 16054: u8 [a0 + 0x11] = a3\n 16057: u8 [a0 + 0x8] = a2\n 16060: a3 = a2 >> 0x38\n 16063: u8 [a0 + 0xf] = a3\n 16066: a3 = a2 >> 0x30\n 16069: u8 [a0 + 0xe] = a3\n 16072: a3 = a2 >> 0x28\n 16075: u8 [a0 + 0xd] = a3\n 16078: a3 = a2 >> 0x20\n 16081: u8 [a0 + 0xc] = a3\n 16084: a3 = a2 >> 0x18\n 16087: u8 [a0 + 0xb] = a3\n 16090: a3 = a2 >> 0x10\n 16093: u8 [a0 + 0xa] = a3\n 16096: a2 = a2 >> 0x8\n 16099: u8 [a0 + 0x9] = a2\n 16102: u8 [a0] = a1\n 16104: a2 = a1 >> 0x38\n 16107: u8 [a0 + 0x7] = a2\n 16110: a2 = a1 >> 0x30\n 16113: u8 [a0 + 0x6] = a2\n 16116: a2 = a1 >> 0x28\n 16119: u8 [a0 + 0x5] = a2\n 16122: a2 = a1 >> 0x20\n 16125: u8 [a0 + 0x4] = a2\n 16128: a2 = a1 >> 0x18\n 16131: u8 [a0 + 0x3] = a2\n 16134: a2 = a1 >> 0x10\n 16137: u8 [a0 + 0x2] = a2\n 16140: a1 = a1 >> 0x8\n 16143: u8 [a0 + 0x1] = a1\n 16146: a1 = 0x20\n 16149: a0 = 0\n 16151: ra = 198, jump @0\n      : @240 [@dyn 99] (gas: 5)\n 16157: i32 a0 = a0 + 0\n 16159: i32 a2 = sp + 0xa0\n 16163: a1 = 0x20\n 16166: ecalli 9 // 'hash_keccak_256'\n 16168: fallthrough\n      : @241 (gas: 112)\n 16169: a2 = u64 [sp + 0x20]\n 16172: a1 = a2 + 0x1f\n 16175: a0 = a1 <u a2\n 16178: t1 = a2\n 16180: a4 = u64 [sp + 0x58]\n 16183: a3 = a4 + a0\n 16186: a2 = a3 <u a4\n 16189: t0 = a4\n 16191: a2 = a0 if a0 == 0\n 16194: s1 = u64 [sp + 0x40]\n 16197: a2 = a2 + s1\n 16200: u64 [sp + 0x18] = a2\n 16203: a2 = a2 << 0x3b\n 16206: a4 = a3 >> 0x5\n 16209: a2 = a2 | a4\n 16212: a3 = a3 << 0x3b\n 16215: a1 = a1 >> 0x5\n 16218: a5 = a1 | a3\n 16221: a1 = t1 <u 0x20\n 16224: a1 = 0 if t0 != 0\n 16226: a3 = u64 [sp + 0xb8]\n 16230: t1 = u64 [sp + 0xb0]\n 16234: a0 = u64 [sp + 0x50]\n 16237: a4 = s1 | a0\n 16240: a1 = 0 if a4 != 0\n 16242: a4 = reverse a3\n 16244: s1 = reverse t1\n 16246: a2 = 0 if a1 != 0\n 16248: a5 = 0 if a1 != 0\n 16250: a5 = a5 + a4\n 16253: u64 [sp + 0x58] = a5\n 16256: a5 = a5 <u a4\n 16259: a3 = s1 + a5\n 16262: t0 = a3 + a2\n 16265: a3 = t0 ^ s1\n 16268: ra = t0 <u s1\n 16271: ra = a5 if a3 == 0\n 16274: a0 = u64 [sp + 0x30]\n 16277: t2 = a0 + 0x1f\n 16280: a0 = t2 <u a0\n 16283: a2 = u64 [sp + 0x38]\n 16286: a3 = a2 + a0\n 16289: a5 = a3 <u a2\n 16292: a5 = a0 if a0 == 0\n 16295: a0 = u64 [sp + 0x48]\n 16298: a5 = a5 + a0\n 16301: a0 = a5 << 0x3b\n 16304: a2 = a3 >> 0x5\n 16307: a0 = a0 | a2\n 16310: a3 = a3 << 0x3b\n 16313: a2 = t2 >> 0x5\n 16316: a2 = a2 | a3\n 16319: t2 = a4 + a2\n 16322: a2 = t2 <u a4\n 16325: a3 = s1 + a2\n 16328: t1 = a3 + a0\n 16331: a0 = t1 ^ s1\n 16334: a3 = t1 <u s1\n 16337: a3 = a2 if a0 == 0\n 16340: a4 = u64 [sp + 0x18]\n 16343: a0 = u64 [sp + 0x40]\n 16346: a0 = a4 <u a0\n 16349: a2 = u64 [sp + 0x50]\n 16352: a0 = a0 + a2\n 16355: a2 = a4 >> 0x5\n 16358: a4 = a0 << 0x3b\n 16361: a2 = a2 | a4\n 16364: a0 = a0 >> 0x5\n 16367: a4 = u64 [sp + 0xa8]\n 16371: s1 = u64 [sp + 0xa0]\n 16375: a2 = 0 if a1 != 0\n 16377: a0 = 0 if a1 != 0\n 16379: a1 = reverse a4\n 16381: a4 = reverse s1\n 16383: u64 [sp + 0x50] = a4\n 16386: a0 = a0 + a4\n 16389: a2 = a2 + a1\n 16392: s1 = a2 <u a1\n 16395: a0 = a0 + s1\n 16398: a4 = a2 + ra\n 16401: s1 = a4 <u a2\n 16404: s1 = s1 + a0\n 16407: a0 = u64 [sp + 0x48]\n 16410: a0 = a5 <u a0\n 16413: a2 = u64 [sp + 0x28]\n 16416: a0 = a0 + a2\n 16419: a5 = a5 >> 0x5\n 16422: a2 = a0 << 0x3b\n 16425: a2 = a2 | a5\n 16428: a5 = u64 [sp + 0x58]\n 16431: a0 = a0 >> 0x5\n 16434: a2 = a2 + a1\n 16437: ra = a2 + a3\n 16440: a1 = a2 <u a1\n 16443: a2 = ra <u a2\n 16446: a3 = u64 [sp + 0x50]\n 16449: a0 = a0 + a3\n 16452: a0 = a0 + a1\n 16455: a3 = a0 + a2\n 16458: a0 = t0 ^ t1\n 16461: a1 = t0 <u t1\n 16464: a2 = a5 <u t2\n 16467: a2 = a1 if a0 != 0\n 16470: a0 = a4 <u ra\n 16473: a1 = s1 ^ a3\n 16476: u64 [sp + 0x40] = a3\n 16479: a3 = s1 <u a3\n 16482: a3 = a0 if a1 == 0\n 16485: a0 = a4 ^ ra\n 16488: a0 = a0 | a1\n 16491: a2 = a3 if a0 != 0\n 16494: jump @245 if a2 == 0\n      : @242 (gas: 5)\n 16498: a0 = a4\n 16500: u64 [sp + 0x38] = t2\n 16503: u64 [sp + 0x30] = t1\n 16506: u64 [sp + 0x28] = ra\n 16509: fallthrough\n      : @243 (gas: 36)\n 16510: u64 [sp + 0x48] = a0\n 16513: u64 [sp + 0x50] = t0\n 16516: u64 [sp + 0x58] = a5\n 16519: u64 [sp + 0x90] = a0\n 16523: u64 [sp + 0x88] = t0\n 16527: u64 [sp + 0x80] = a5\n 16531: u64 [sp + 0x98] = s1\n 16535: u64 [sp + 184] = 0\n 16539: u64 [sp + 176] = 0\n 16543: u64 [sp + 168] = 0\n 16547: u64 [sp + 160] = 0\n 16551: u32 [sp + 96] = 0x20\n 16555: i32 a1 = sp + 0x80\n 16559: i32 a3 = sp + 0xa0\n 16563: i32 a4 = sp + 0x60\n 16566: a2 = 0xffffffffffffffff\n 16569: a0 = 0\n 16571: ecalli 8 // 'get_storage'\n 16573: u64 [sp + 0x98] = s1\n 16577: a0 = u64 [sp + 0x48]\n 16580: u64 [sp + 0x90] = a0\n 16584: a0 = u64 [sp + 0x50]\n 16587: u64 [sp + 0x88] = a0\n 16591: a0 = u64 [sp + 0x58]\n 16594: u64 [sp + 0x80] = a0\n 16598: u64 [sp + 184] = 0\n 16602: u64 [sp + 176] = 0\n 16606: u64 [sp + 168] = 0\n 16610: u64 [sp + 160] = 0\n 16614: i32 a1 = sp + 0x80\n 16618: i32 a3 = sp + 0xa0\n 16622: a2 = 0xffffffffffffffff\n 16625: a4 = 0x20\n 16628: a0 = 0\n 16630: ecalli 16 // 'set_storage'\n 16632: fallthrough\n      : @244 (gas: 27)\n 16633: ra = u64 [sp + 0x28]\n 16636: t1 = u64 [sp + 0x30]\n 16639: t2 = u64 [sp + 0x38]\n 16642: t0 = u64 [sp + 0x50]\n 16645: a5 = u64 [sp + 0x58]\n 16648: a5 = a5 + 0x1\n 16651: a0 = a5 <u 0x1\n 16654: t0 = t0 + a0\n 16657: a0 = a5 | t0\n 16660: a0 = a0 <u 0x1\n 16663: a1 = u64 [sp + 0x48]\n 16666: a0 = a0 + a1\n 16669: a1 = a0 <u a1\n 16672: s1 = s1 + a1\n 16675: a1 = a5 <u t2\n 16678: a2 = t0 ^ t1\n 16681: a3 = t0 <u t1\n 16684: a3 = a1 if a2 == 0\n 16687: a1 = a0 <u ra\n 16690: a4 = u64 [sp + 0x40]\n 16693: a2 = s1 ^ a4\n 16696: a4 = s1 <u a4\n 16699: a4 = a1 if a2 == 0\n 16702: a1 = a0 ^ ra\n 16705: a1 = a1 | a2\n 16708: a4 = a3 if a1 == 0\n 16711: jump @243 if a4 != 0\n      : @245 (gas: 6)\n 16715: sp = s0 + 0xffffffffffffff20\n 16719: ra = u64 [sp + 0xd8]\n 16723: s0 = u64 [sp + 0xd0]\n 16727: s1 = u64 [sp + 0xc8]\n 16731: sp = sp + 0xe0\n 16735: ret\n      : @246 (gas: 21)\n 16737: sp = sp + 0xfffffffffffffd40\n 16741: u64 [sp + 0x2b8] = ra\n 16745: u64 [sp + 0x2b0] = s0\n 16749: u64 [sp + 0x2a8] = s1\n 16753: s0 = sp + 0x2c0\n 16757: sp = sp & 0xffffffffffffffe0\n 16760: a3 = u64 [a1 + 0x10]\n 16763: a2 = u64 [a1 + 0x18]\n 16766: a4 = u64 [a1 + 0x8]\n 16769: a5 = u64 [a1]\n 16771: u64 [sp + 0x98] = a2\n 16775: u64 [sp + 0x88] = a4\n 16779: a1 = a4 | a2\n 16782: a2 = a5 | a3\n 16785: a2 = a2 | a1\n 16788: a2 = a2 >> 0x20\n 16791: u64 [sp + 0x90] = a3\n 16795: a1 = a1 | a3\n 16798: a1 = a1 << 0x20\n 16801: a1 = a1 | a2\n 16804: jump @276 if a1 != 0\n      : @247 (gas: 13)\n 16808: a1 = u64 [a0 + 0x18]\n 16811: u64 [sp + 0x40] = a1\n 16814: a1 = u64 [a0 + 0x10]\n 16817: u64 [sp + 0x58] = a1\n 16820: a1 = u64 [a0 + 0x8]\n 16823: u64 [sp + 0x48] = a1\n 16826: a0 = u64 [a0]\n 16828: u64 [sp + 0x50] = a0\n 16831: u64 [sp + 0x80] = a5\n 16835: i32 a0 = a5 + 0\n 16837: a1 = 0x20\n 16840: u64 [sp + 0x18] = a0\n 16843: ra = 200, jump @0\n      : @248 [@dyn 100] (gas: 80)\n 16849: a1 = u8 [a0 + 0x9]\n 16852: a2 = u8 [a0 + 0x8]\n 16855: a3 = u8 [a0 + 0xa]\n 16858: a4 = u8 [a0 + 0xb]\n 16861: a1 = a1 << 0x8\n 16864: a1 = a1 | a2\n 16867: a3 = a3 << 0x10\n 16870: a4 = a4 << 0x18\n 16873: a3 = a3 | a4\n 16876: a1 = a1 | a3\n 16879: a2 = u8 [a0 + 0xd]\n 16882: a3 = u8 [a0 + 0xc]\n 16885: a4 = u8 [a0 + 0xe]\n 16888: a5 = u8 [a0 + 0xf]\n 16891: a2 = a2 << 0x8\n 16894: a2 = a2 | a3\n 16897: a4 = a4 << 0x10\n 16900: a5 = a5 << 0x18\n 16903: a4 = a4 | a5\n 16906: a2 = a2 | a4\n 16909: a2 = a2 << 0x20\n 16912: t0 = a2 | a1\n 16915: a1 = u8 [a0 + 0x1]\n 16918: a2 = u8 [a0]\n 16920: a3 = u8 [a0 + 0x2]\n 16923: a4 = u8 [a0 + 0x3]\n 16926: a1 = a1 << 0x8\n 16929: a1 = a1 | a2\n 16932: a3 = a3 << 0x10\n 16935: a4 = a4 << 0x18\n 16938: a3 = a3 | a4\n 16941: a1 = a1 | a3\n 16944: a2 = u8 [a0 + 0x5]\n 16947: a3 = u8 [a0 + 0x4]\n 16950: a4 = u8 [a0 + 0x6]\n 16953: a5 = u8 [a0 + 0x7]\n 16956: a2 = a2 << 0x8\n 16959: a2 = a2 | a3\n 16962: a4 = a4 << 0x10\n 16965: a5 = a5 << 0x18\n 16968: a4 = a4 | a5\n 16971: a2 = a2 | a4\n 16974: a2 = a2 << 0x20\n 16977: s1 = a2 | a1\n 16980: a1 = u8 [a0 + 0x11]\n 16983: a2 = u8 [a0 + 0x10]\n 16986: a3 = u8 [a0 + 0x12]\n 16989: a4 = u8 [a0 + 0x13]\n 16992: a1 = a1 << 0x8\n 16995: a1 = a1 | a2\n 16998: a3 = a3 << 0x10\n 17001: a4 = a4 << 0x18\n 17004: a3 = a3 | a4\n 17007: a1 = a1 | a3\n 17010: a2 = u8 [a0 + 0x15]\n 17013: a3 = u8 [a0 + 0x14]\n 17016: a4 = u8 [a0 + 0x16]\n 17019: a5 = u8 [a0 + 0x17]\n 17022: a2 = a2 << 0x8\n 17025: a2 = a2 | a3\n 17028: a4 = a4 << 0x10\n 17031: a5 = a5 << 0x18\n 17034: a4 = a4 | a5\n 17037: a2 = a2 | a4\n 17040: a2 = a2 << 0x20\n 17043: a1 = a1 | a2\n 17046: u64 [sp + 0x60] = a1\n 17049: a1 = reverse a1\n 17051: u64 [sp + 0x68] = s1\n 17054: a3 = reverse s1\n 17056: u64 [sp + 0x70] = t0\n 17059: a2 = reverse t0\n 17061: u64 [sp + 0x30] = a2\n 17064: u64 [sp + 0x28] = a3\n 17067: a2 = a2 | a3\n 17070: u64 [sp + 0x38] = a1\n 17073: a1 = a1 <u 0x1\n 17076: u64 [sp + 0xd8] = a2\n 17080: a1 = 0 if a2 != 0\n 17082: jump @277 if a1 == 0\n      : @249 (gas: 36)\n 17086: a1 = u8 [a0 + 0x18]\n 17089: u64 [sp + 0xb8] = a1\n 17093: a1 = u8 [a0 + 0x19]\n 17096: u64 [sp + 0x78] = a1\n 17099: a1 = u8 [a0 + 0x1a]\n 17102: u64 [sp + 0xa8] = a1\n 17106: a1 = u8 [a0 + 0x1b]\n 17109: u64 [sp + 0xa0] = a1\n 17113: a1 = u8 [a0 + 0x1c]\n 17116: u64 [sp + 0xd0] = a1\n 17120: a1 = u8 [a0 + 0x1d]\n 17123: u64 [sp + 0xb0] = a1\n 17127: a1 = u8 [a0 + 0x1e]\n 17130: u64 [sp + 0xc8] = a1\n 17134: a0 = u8 [a0 + 0x1f]\n 17137: u64 [sp + 0xc0] = a0\n 17141: u32 [sp + 576] = 0x20\n 17146: a0 = u64 [sp + 0x58]\n 17149: u64 [sp + 0x270] = a0\n 17153: a0 = u64 [sp + 0x48]\n 17156: u64 [sp + 0x268] = a0\n 17160: a0 = u64 [sp + 0x50]\n 17163: u64 [sp + 0x260] = a0\n 17167: s1 = u64 [sp + 0x40]\n 17170: u64 [sp + 0x278] = s1\n 17174: u64 [sp + 664] = 0\n 17178: u64 [sp + 656] = 0\n 17182: u64 [sp + 648] = 0\n 17186: u64 [sp + 640] = 0\n 17190: i32 a1 = sp + 0x260\n 17194: i32 a3 = sp + 0x280\n 17198: i32 a4 = sp + 0x240\n 17202: a2 = 0xffffffffffffffff\n 17205: a0 = 0\n 17207: ecalli 8 // 'get_storage'\n 17209: fallthrough\n      : @250 (gas: 28)\n 17210: a0 = u64 [sp + 0x290]\n 17214: a1 = u64 [sp + 0x288]\n 17218: a2 = u64 [sp + 0x280]\n 17222: a3 = u64 [sp + 0x298]\n 17226: a4 = a0 << 0x3f\n 17229: a5 = a1 >> 0x1\n 17232: a4 = a4 | a5\n 17235: a5 = a3 << 0x3f\n 17238: a0 = a0 >> 0x1\n 17241: t2 = s1\n 17243: s1 = a0 | a5\n 17246: a1 = a1 << 0x3f\n 17249: a5 = a2 >> 0x1\n 17252: a1 = a1 | a5\n 17255: a5 = a3 >> 0x1\n 17258: a2 = a2 & 0x1\n 17261: a0 = -a2\n 17263: t0 = a2 <u 0x1\n 17266: a3 = a1 & 0x7f\n 17269: t1 = a0 & s1\n 17272: a4 = a4 & a0\n 17275: a3 = a1 if a2 != 0\n 17278: a1 = a0 & a5\n 17281: a0 = a3 <u 0x20\n 17284: a0 = 0 if a4 != 0\n 17286: a2 = t1 | a1\n 17289: a0 = 0 if a2 != 0\n 17291: jump @279 if t0 != a0\n      : @251 (gas: 47)\n 17295: a0 = u64 [sp + 0x78]\n 17298: a0 = a0 << 0x8\n 17301: a2 = u64 [sp + 0xb8]\n 17305: a0 = a0 | a2\n 17308: a2 = u64 [sp + 0xa8]\n 17312: a2 = a2 << 0x10\n 17315: a5 = u64 [sp + 0xa0]\n 17319: a5 = a5 << 0x18\n 17322: a2 = a2 | a5\n 17325: a0 = a0 | a2\n 17328: a2 = u64 [sp + 0xb0]\n 17332: a2 = a2 << 0x8\n 17335: a5 = u64 [sp + 0xd0]\n 17339: a2 = a2 | a5\n 17342: a5 = u64 [sp + 0xc8]\n 17346: a5 = a5 << 0x10\n 17349: s1 = u64 [sp + 0xc0]\n 17353: s1 = s1 << 0x18\n 17356: a5 = a5 | s1\n 17359: a2 = a2 | a5\n 17362: a2 = a2 << 0x20\n 17365: a0 = a0 | a2\n 17368: u64 [sp + 0xd0] = a0\n 17372: a0 = reverse a0\n 17374: u64 [sp + 0x20] = a0\n 17377: u64 [sp + 0x1e0] = a0\n 17381: u64 [sp + 0x200] = a3\n 17385: a0 = u64 [sp + 0x50]\n 17388: u64 [sp + 0x220] = a0\n 17392: a0 = u64 [sp + 0x38]\n 17395: u64 [sp + 0x1e8] = a0\n 17399: u64 [sp + 0x208] = a4\n 17403: a0 = u64 [sp + 0x48]\n 17406: u64 [sp + 0x228] = a0\n 17410: a0 = u64 [sp + 0x30]\n 17413: u64 [sp + 0x1f0] = a0\n 17417: u64 [sp + 0x210] = t1\n 17421: a0 = u64 [sp + 0x58]\n 17424: u64 [sp + 0x230] = a0\n 17428: s1 = u64 [sp + 0x28]\n 17431: u64 [sp + 0x1f8] = s1\n 17435: u64 [sp + 0x218] = a1\n 17439: a0 = sp + 0x220\n 17443: a1 = sp + 0x200\n 17447: a2 = sp + 0x1e0\n 17451: u64 [sp + 0x238] = t2\n 17455: ra = 202, jump @237\n      : @252 [@dyn 101] (gas: 16)\n 17461: a3 = u64 [sp + 0x20]\n 17464: a2 = u64 [sp + 0x38]\n 17467: a0 = a2 >u 0\n 17469: a1 = a3 <u 0x20\n 17472: a1 = a1 ^ 0x1\n 17475: a1 = a0 if a2 != 0\n 17478: a0 = u64 [sp + 0x30]\n 17481: a0 = a0 >u 0\n 17483: a2 = s1 >u 0\n 17485: a2 = a0 if s1 == 0\n 17488: a0 = u64 [sp + 0xd8]\n 17492: a2 = a1 if a0 == 0\n 17495: a4 = u64 [sp + 0x40]\n 17498: a5 = u64 [sp + 0x58]\n 17501: s1 = u64 [sp + 0x50]\n 17504: jump @263 if a2 == 0\n      : @253 (gas: 5)\n 17508: a3 = a3 & 0xffffffffffffffe0\n 17511: u64 [sp + 0x18] = a3\n 17514: a1 = 0x20\n 17517: a0 = 0\n 17519: ra = 204, jump @0\n      : @254 [@dyn 102] (gas: 70)\n 17525: a1 = u64 [sp + 0x40]\n 17528: a1 = reverse a1\n 17530: a2 = u64 [sp + 0x58]\n 17533: a2 = reverse a2\n 17535: a3 = u64 [sp + 0x48]\n 17538: a3 = reverse a3\n 17540: a4 = reverse s1\n 17542: a5 = a4 >> 0x38\n 17545: u8 [a0 + 0x1f] = a5\n 17548: a5 = a4 >> 0x30\n 17551: u8 [a0 + 0x1e] = a5\n 17554: a5 = a4 >> 0x28\n 17557: u8 [a0 + 0x1d] = a5\n 17560: a5 = a4 >> 0x20\n 17563: u8 [a0 + 0x1c] = a5\n 17566: a5 = a4 >> 0x18\n 17569: u8 [a0 + 0x1b] = a5\n 17572: a5 = a4 >> 0x10\n 17575: u8 [a0 + 0x1a] = a5\n 17578: a5 = a4 >> 0x8\n 17581: u8 [a0 + 0x19] = a5\n 17584: u8 [a0 + 0x18] = a4\n 17587: u8 [a0 + 0x10] = a3\n 17590: a4 = a3 >> 0x38\n 17593: u8 [a0 + 0x17] = a4\n 17596: a4 = a3 >> 0x30\n 17599: u8 [a0 + 0x16] = a4\n 17602: a4 = a3 >> 0x28\n 17605: u8 [a0 + 0x15] = a4\n 17608: a4 = a3 >> 0x20\n 17611: u8 [a0 + 0x14] = a4\n 17614: a4 = a3 >> 0x18\n 17617: u8 [a0 + 0x13] = a4\n 17620: a4 = a3 >> 0x10\n 17623: u8 [a0 + 0x12] = a4\n 17626: a3 = a3 >> 0x8\n 17629: u8 [a0 + 0x11] = a3\n 17632: u8 [a0 + 0x8] = a2\n 17635: a3 = a2 >> 0x38\n 17638: u8 [a0 + 0xf] = a3\n 17641: a3 = a2 >> 0x30\n 17644: u8 [a0 + 0xe] = a3\n 17647: a3 = a2 >> 0x28\n 17650: u8 [a0 + 0xd] = a3\n 17653: a3 = a2 >> 0x20\n 17656: u8 [a0 + 0xc] = a3\n 17659: a3 = a2 >> 0x18\n 17662: u8 [a0 + 0xb] = a3\n 17665: a3 = a2 >> 0x10\n 17668: u8 [a0 + 0xa] = a3\n 17671: a2 = a2 >> 0x8\n 17674: u8 [a0 + 0x9] = a2\n 17677: u8 [a0] = a1\n 17679: a2 = a1 >> 0x38\n 17682: u8 [a0 + 0x7] = a2\n 17685: a2 = a1 >> 0x30\n 17688: u8 [a0 + 0x6] = a2\n 17691: a2 = a1 >> 0x28\n 17694: u8 [a0 + 0x5] = a2\n 17697: a2 = a1 >> 0x20\n 17700: u8 [a0 + 0x4] = a2\n 17703: a2 = a1 >> 0x18\n 17706: u8 [a0 + 0x3] = a2\n 17709: a2 = a1 >> 0x10\n 17712: u8 [a0 + 0x2] = a2\n 17715: a1 = a1 >> 0x8\n 17718: u8 [a0 + 0x1] = a1\n 17721: a1 = 0x20\n 17724: a0 = 0\n 17726: ra = 206, jump @0\n      : @255 [@dyn 103] (gas: 5)\n 17732: i32 a0 = a0 + 0\n 17734: i32 a2 = sp + 0x280\n 17738: a1 = 0x20\n 17741: ecalli 9 // 'hash_keccak_256'\n 17743: fallthrough\n      : @256 (gas: 13)\n 17744: a0 = u64 [sp + 0x280]\n 17748: a1 = u64 [sp + 0x288]\n 17752: a2 = u64 [sp + 0x290]\n 17756: a3 = u64 [sp + 0x298]\n 17760: a0 = reverse a0\n 17762: u64 [sp + 0xd0] = a0\n 17766: t0 = reverse a1\n 17768: a0 = reverse a2\n 17770: u64 [sp + 0xd8] = a0\n 17774: a0 = reverse a3\n 17776: u64 [sp + 0xc0] = a0\n 17780: a0 = u64 [sp + 0x18]\n 17783: jump @267 if a0 == 0\n      : @257 (gas: 118)\n 17787: u64 [sp + 176] = 0\n 17791: u64 [sp + 184] = 0\n 17795: u64 [sp + 168] = 0\n 17799: ra = u64 [sp + 0x80]\n 17803: s1 = ra + 0x20\n 17806: a0 = s1 <u ra\n 17809: t2 = u64 [sp + 0x88]\n 17813: a2 = t2 + a0\n 17816: a3 = a2 <u t2\n 17819: a3 = a0 if a0 == 0\n 17822: t1 = u64 [sp + 0x90]\n 17826: a3 = a3 + t1\n 17829: a0 = a3 <u t1\n 17832: u64 [sp + 0xc8] = t0\n 17836: t0 = u64 [sp + 0x98]\n 17840: t0 = t0 + a0\n 17843: a4 = a3 >u 0\n 17845: a5 = t0 >u 0\n 17847: a5 = a4 if t0 == 0\n 17850: a4 = 0x100000000\n 17860: a1 = s1\n 17862: a0 = maxu(s1, a4)\n 17865: s1 = a4 if a5 == 0\n 17868: a1 = a4 if a2 == 0\n 17871: a0 = a1 if a2 != 0\n 17874: a1 = a3 | t0\n 17877: a0 = s1 if a1 != 0\n 17880: a4 = a2\n 17882: a4 = 0 if a5 == 0\n 17884: a4 = a2 if a1 == 0\n 17887: a1 = a3\n 17889: a1 = 0 if t0 == 0\n 17891: a1 = a3 if t0 == 0\n 17894: a2 = t2 ^ 0xffffffffffffffff\n 17897: a4 = a4 + a2\n 17900: a3 = ra ^ 0xffffffffffffffff\n 17903: a0 = a0 + a3\n 17906: a3 = a0 <u a3\n 17909: a4 = a4 + a3\n 17912: a5 = a4 ^ a2\n 17915: a2 = a4 <u a2\n 17918: a2 = a3 if a5 == 0\n 17921: a5 = t1 ^ 0xffffffffffffffff\n 17924: u64 [sp + 0x78] = a5\n 17927: a5 = a5 + a1\n 17930: s1 = a5 + a2\n 17933: a1 = s1 << 0x3b\n 17936: a2 = a4 >> 0x5\n 17939: a1 = a1 | a2\n 17942: a4 = a4 << 0x3b\n 17945: a0 = a0 >> 0x5\n 17948: a2 = a0 | a4\n 17951: u64 [sp + 0xa0] = a2\n 17955: a4 = u64 [sp + 0x18]\n 17958: a0 = a4 <u 0x1\n 17961: a3 = -a0\n 17963: ra = a0 << 0x3b\n 17966: a4 = a4 + 0xffffffffffffffff\n 17969: a4 = a4 >> 0x5\n 17972: a0 = a4 - ra\n 17975: t2 = a1 ^ a3\n 17978: a4 = a1 <u a3\n 17981: t1 = a2 <u a0\n 17984: t1 = a4 if t2 != 0\n 17987: a2 = u64 [sp + 0x98]\n 17991: a4 = a2 ^ 0xffffffffffffffff\n 17994: t0 = t0 + a4\n 17997: a2 = u64 [sp + 0x78]\n 18000: a4 = a5 <u a2\n 18003: a4 = a4 + t0\n 18006: a5 = s1 <u a5\n 18009: a4 = a4 + a5\n 18012: s1 = s1 >> 0x5\n 18015: a5 = a4 << 0x3b\n 18018: a5 = a5 | s1\n 18021: a4 = a4 >> 0x5\n 18024: s1 = a3 >> 0x5\n 18027: t0 = s1 - ra\n 18030: a2 = a5 <u t0\n 18033: t2 = a4 ^ s1\n 18036: ra = a4 <u s1\n 18039: ra = a2 if t2 == 0\n 18042: a2 = a5 ^ t0\n 18045: a2 = a2 | t2\n 18048: ra = t1 if a2 == 0\n 18051: a2 = u64 [sp + 0xa0]\n 18055: a2 = a0 if ra == 0\n 18058: a1 = a3 if ra == 0\n 18061: a4 = s1 if ra == 0\n 18064: a5 = t0 if ra == 0\n 18067: a0 = a5 >> 0x3b\n 18070: a4 = a4 << 0x5\n 18073: t0 = a4 | a0\n 18076: a4 = u64 [sp + 0xb0]\n 18080: a0 = a1 >> 0x3b\n 18083: a5 = a5 << 0x5\n 18086: t2 = a5 | a0\n 18089: a5 = u64 [sp + 0xb8]\n 18093: a3 = a2 >> 0x3b\n 18096: a1 = a1 << 0x5\n 18099: a0 = a1 | a3\n 18102: t1 = a2 << 0x5\n 18105: a3 = t1 + 0x40\n 18108: u64 [sp + 0x78] = a3\n 18111: a3 = a3 <u t1\n 18114: s1 = u64 [sp + 0xa8]\n 18118: a1 = a0 + a3\n 18121: u64 [sp + 0x70] = a1\n 18124: a1 = a1 <u a0\n 18127: a1 = a3 if a3 == 0\n 18130: a1 = a1 + t2\n 18133: u64 [sp + 0x68] = a1\n 18136: a1 = a1 <u t2\n 18139: a1 = a1 + t0\n 18142: u64 [sp + 0x60] = a1\n 18145: a2 = 0x20\n 18148: a3 = u64 [sp + 0xc8]\n 18152: fallthrough\n      : @258 (gas: 31)\n 18153: u64 [sp + 0xa8] = s1\n 18157: u64 [sp + 0xc8] = a3\n 18161: a0 = u64 [sp + 0x80]\n 18165: a0 = a0 + a2\n 18168: u64 [sp + 0xa0] = a2\n 18172: a1 = a0 <u a2\n 18175: a2 = u64 [sp + 0x88]\n 18179: a2 = a2 + a4\n 18182: a2 = a2 + a1\n 18185: a3 = a2 ^ a4\n 18188: u64 [sp + 0xb0] = a4\n 18192: a4 = a2 <u a4\n 18195: a4 = a1 if a3 == 0\n 18198: a1 = u64 [sp + 0x90]\n 18202: a1 = a1 + a5\n 18205: u64 [sp + 0xb8] = a5\n 18209: a3 = a1 <u a5\n 18212: a5 = u64 [sp + 0x98]\n 18216: a5 = a5 + s1\n 18219: a3 = a3 + a5\n 18222: a4 = a4 + a1\n 18225: a1 = a4 <u a1\n 18228: a1 = a1 + a3\n 18231: a1 = a1 | a2\n 18234: a2 = a0 | a4\n 18237: a2 = a2 | a1\n 18240: a1 = a1 | a4\n 18243: a2 = a2 >> 0x20\n 18246: a1 = a1 << 0x20\n 18249: a1 = a1 | a2\n 18252: jump @276 if a1 != 0\n      : @259 (gas: 3)\n 18256: i32 a0 = a0 + 0\n 18258: a1 = 0x20\n 18261: ra = 208, jump @0\n      : @260 [@dyn 104] (gas: 111)\n 18267: a1 = u8 [a0 + 0x1]\n 18270: a2 = u8 [a0]\n 18272: a3 = u8 [a0 + 0x2]\n 18275: a4 = u8 [a0 + 0x3]\n 18278: a1 = a1 << 0x8\n 18281: a1 = a1 | a2\n 18284: a3 = a3 << 0x10\n 18287: a4 = a4 << 0x18\n 18290: a3 = a3 | a4\n 18293: a1 = a1 | a3\n 18296: a2 = u8 [a0 + 0x5]\n 18299: a3 = u8 [a0 + 0x4]\n 18302: a4 = u8 [a0 + 0x6]\n 18305: a5 = u8 [a0 + 0x7]\n 18308: a2 = a2 << 0x8\n 18311: a2 = a2 | a3\n 18314: a4 = a4 << 0x10\n 18317: a5 = a5 << 0x18\n 18320: a4 = a4 | a5\n 18323: a2 = a2 | a4\n 18326: a2 = a2 << 0x20\n 18329: t0 = a2 | a1\n 18332: a2 = u8 [a0 + 0x9]\n 18335: a3 = u8 [a0 + 0x8]\n 18338: a4 = u8 [a0 + 0xa]\n 18341: a5 = u8 [a0 + 0xb]\n 18344: a2 = a2 << 0x8\n 18347: a2 = a2 | a3\n 18350: a4 = a4 << 0x10\n 18353: a5 = a5 << 0x18\n 18356: a4 = a4 | a5\n 18359: a2 = a2 | a4\n 18362: a3 = u8 [a0 + 0xd]\n 18365: a4 = u8 [a0 + 0xc]\n 18368: a5 = u8 [a0 + 0xe]\n 18371: s1 = u8 [a0 + 0xf]\n 18374: a3 = a3 << 0x8\n 18377: a3 = a3 | a4\n 18380: a5 = a5 << 0x10\n 18383: s1 = s1 << 0x18\n 18386: a5 = a5 | s1\n 18389: a3 = a3 | a5\n 18392: a3 = a3 << 0x20\n 18395: a2 = a2 | a3\n 18398: a3 = u8 [a0 + 0x11]\n 18401: a4 = u8 [a0 + 0x10]\n 18404: a5 = u8 [a0 + 0x12]\n 18407: s1 = u8 [a0 + 0x13]\n 18410: a3 = a3 << 0x8\n 18413: a3 = a3 | a4\n 18416: a5 = a5 << 0x10\n 18419: s1 = s1 << 0x18\n 18422: a5 = a5 | s1\n 18425: a3 = a3 | a5\n 18428: a4 = u8 [a0 + 0x15]\n 18431: a5 = u8 [a0 + 0x14]\n 18434: s1 = u8 [a0 + 0x16]\n 18437: a1 = u8 [a0 + 0x17]\n 18440: a4 = a4 << 0x8\n 18443: a4 = a4 | a5\n 18446: s1 = s1 << 0x10\n 18449: a1 = a1 << 0x18\n 18452: a1 = a1 | s1\n 18455: a1 = a1 | a4\n 18458: a1 = a1 << 0x20\n 18461: a3 = a3 | a1\n 18464: a1 = u8 [a0 + 0x19]\n 18467: a4 = u8 [a0 + 0x18]\n 18470: a5 = u8 [a0 + 0x1a]\n 18473: s1 = u8 [a0 + 0x1b]\n 18476: a1 = a1 << 0x8\n 18479: a1 = a1 | a4\n 18482: a5 = a5 << 0x10\n 18485: s1 = s1 << 0x18\n 18488: a5 = a5 | s1\n 18491: a1 = a1 | a5\n 18494: a4 = u8 [a0 + 0x1d]\n 18497: a5 = u8 [a0 + 0x1c]\n 18500: s1 = u8 [a0 + 0x1e]\n 18503: a0 = u8 [a0 + 0x1f]\n 18506: a4 = a4 << 0x8\n 18509: a4 = a4 | a5\n 18512: s1 = s1 << 0x10\n 18515: a0 = a0 << 0x18\n 18518: a0 = a0 | s1\n 18521: a0 = a0 | a4\n 18524: a0 = a0 << 0x20\n 18527: a0 = a0 | a1\n 18530: a0 = reverse a0\n 18532: a1 = reverse a3\n 18534: a2 = reverse a2\n 18536: a3 = reverse t0\n 18538: a4 = u64 [sp + 0xd0]\n 18542: u64 [sp + 0x278] = a4\n 18546: a4 = u64 [sp + 0xc8]\n 18550: u64 [sp + 0x270] = a4\n 18554: a4 = u64 [sp + 0xd8]\n 18558: u64 [sp + 0x268] = a4\n 18562: s1 = u64 [sp + 0xc0]\n 18566: u64 [sp + 0x260] = s1\n 18570: u64 [sp + 0x298] = a3\n 18574: u64 [sp + 0x290] = a2\n 18578: u64 [sp + 0x288] = a1\n 18582: u64 [sp + 0x280] = a0\n 18586: i32 a1 = sp + 0x260\n 18590: i32 a3 = sp + 0x280\n 18594: a2 = 0xffffffffffffffff\n 18597: a4 = 0x20\n 18600: a0 = 0\n 18602: ecalli 16 // 'set_storage'\n 18604: fallthrough\n      : @261 (gas: 42)\n 18605: s1 = s1 + 0x1\n 18608: a0 = s1 <u 0x1\n 18611: a1 = u64 [sp + 0xd8]\n 18615: a1 = a1 + a0\n 18618: u64 [sp + 0xc0] = s1\n 18622: u64 [sp + 0xd8] = a1\n 18626: a0 = s1 | a1\n 18629: a0 = a0 <u 0x1\n 18632: a1 = u64 [sp + 0xc8]\n 18636: t0 = a1 + a0\n 18639: a2 = t0 <u a1\n 18642: a0 = u64 [sp + 0xa0]\n 18646: a1 = a0 + 0x20\n 18649: a0 = a1 <u a0\n 18652: a3 = u64 [sp + 0xb0]\n 18656: t2 = a3 + a0\n 18659: a3 = t2 <u a3\n 18662: a3 = a0 if a0 == 0\n 18665: a4 = u64 [sp + 0xb8]\n 18669: a0 = a4 + a3\n 18672: a3 = a0 <u a4\n 18675: s1 = u64 [sp + 0xa8]\n 18679: s1 = s1 + a3\n 18682: a3 = u64 [sp + 0x68]\n 18685: a3 = a3 ^ a0\n 18688: a4 = u64 [sp + 0x78]\n 18691: a4 = a4 ^ a1\n 18694: a3 = a3 | a4\n 18697: a4 = u64 [sp + 0x60]\n 18700: a4 = a4 ^ s1\n 18703: a5 = u64 [sp + 0x70]\n 18706: a5 = t2 ^ a5\n 18709: a4 = a4 | a5\n 18712: t1 = a3 | a4\n 18715: a3 = u64 [sp + 0xd0]\n 18719: a3 = a3 + a2\n 18722: u64 [sp + 0xd0] = a3\n 18726: a2 = a1\n 18728: a4 = t2\n 18730: a5 = a0\n 18732: a3 = t0\n 18734: jump @258 if t1 != 0\n      : @262 (gas: 1)\n 18738: jump @268\n      : @263 (gas: 8)\n 18741: a0 = u64 [sp + 0x68]\n 18744: a1 = u64 [sp + 0x60]\n 18747: a0 = a0 | a1\n 18750: a1 = u64 [sp + 0x70]\n 18753: a2 = u64 [sp + 0xd0]\n 18757: a1 = a1 | a2\n 18760: a0 = a0 | a1\n 18763: jump @273 if a0 == 0\n      : @264 (gas: 10)\n 18767: a0 = u64 [sp + 0x98]\n 18771: a1 = u64 [sp + 0x90]\n 18775: a0 = a0 | a1\n 18778: a1 = 0xffffffe0\n 18788: a2 = u64 [sp + 0x80]\n 18792: a1 = a2 <u a1\n 18795: a2 = u64 [sp + 0x88]\n 18799: a1 = 0 if a2 != 0\n 18801: a1 = 0 if a0 != 0\n 18803: jump @276 if a1 == 0\n      : @265 (gas: 4)\n 18807: a0 = u64 [sp + 0x18]\n 18810: i32 a0 = a0 + 0x20\n 18813: a1 = 0x20\n 18816: ra = 210, jump @0\n      : @266 [@dyn 105] (gas: 280)\n 18822: a1 = u8 [a0 + 0x19]\n 18825: a2 = u8 [a0 + 0x18]\n 18828: a3 = u8 [a0 + 0x1a]\n 18831: a4 = u8 [a0 + 0x1b]\n 18834: a1 = a1 << 0x8\n 18837: a1 = a1 | a2\n 18840: a3 = a3 << 0x10\n 18843: a4 = a4 << 0x18\n 18846: a3 = a3 | a4\n 18849: a1 = a1 | a3\n 18852: a2 = u8 [a0 + 0x1d]\n 18855: a3 = u8 [a0 + 0x1c]\n 18858: a4 = u8 [a0 + 0x1e]\n 18861: a5 = u8 [a0 + 0x1f]\n 18864: a2 = a2 << 0x8\n 18867: a2 = a2 | a3\n 18870: a4 = a4 << 0x10\n 18873: a5 = a5 << 0x18\n 18876: a4 = a4 | a5\n 18879: a2 = a2 | a4\n 18882: a2 = a2 << 0x20\n 18885: t0 = a2 | a1\n 18888: a1 = u8 [a0 + 0x11]\n 18891: a2 = u8 [a0 + 0x10]\n 18894: a3 = u8 [a0 + 0x12]\n 18897: a4 = u8 [a0 + 0x13]\n 18900: a1 = a1 << 0x8\n 18903: a1 = a1 | a2\n 18906: a3 = a3 << 0x10\n 18909: a4 = a4 << 0x18\n 18912: a3 = a3 | a4\n 18915: a1 = a1 | a3\n 18918: a2 = u8 [a0 + 0x15]\n 18921: a3 = u8 [a0 + 0x14]\n 18924: a4 = u8 [a0 + 0x16]\n 18927: a5 = u8 [a0 + 0x17]\n 18930: a2 = a2 << 0x8\n 18933: a2 = a2 | a3\n 18936: a4 = a4 << 0x10\n 18939: a5 = a5 << 0x18\n 18942: a4 = a4 | a5\n 18945: a2 = a2 | a4\n 18948: a2 = a2 << 0x20\n 18951: a1 = a1 | a2\n 18954: u64 [sp + 0xd8] = a1\n 18958: a1 = u8 [a0 + 0x9]\n 18961: a3 = u8 [a0 + 0x8]\n 18964: a4 = u8 [a0 + 0xa]\n 18967: a5 = u8 [a0 + 0xb]\n 18970: a1 = a1 << 0x8\n 18973: a1 = a1 | a3\n 18976: a4 = a4 << 0x10\n 18979: a5 = a5 << 0x18\n 18982: a4 = a4 | a5\n 18985: a1 = a1 | a4\n 18988: a3 = u8 [a0 + 0xd]\n 18991: a4 = u8 [a0 + 0xc]\n 18994: a5 = u8 [a0 + 0xe]\n 18997: s1 = u8 [a0 + 0xf]\n 19000: a3 = a3 << 0x8\n 19003: a3 = a3 | a4\n 19006: a5 = a5 << 0x10\n 19009: s1 = s1 << 0x18\n 19012: a5 = a5 | s1\n 19015: a3 = a3 | a5\n 19018: a3 = a3 << 0x20\n 19021: a1 = a1 | a3\n 19024: u64 [sp + 0xd0] = a1\n 19028: a1 = u8 [a0 + 0x1]\n 19031: a4 = u8 [a0]\n 19033: a5 = u8 [a0 + 0x2]\n 19036: s1 = u8 [a0 + 0x3]\n 19039: a1 = a1 << 0x8\n 19042: a1 = a1 | a4\n 19045: a5 = a5 << 0x10\n 19048: s1 = s1 << 0x18\n 19051: a5 = a5 | s1\n 19054: a1 = a1 | a5\n 19057: a4 = u8 [a0 + 0x5]\n 19060: a5 = u8 [a0 + 0x4]\n 19063: s1 = u8 [a0 + 0x6]\n 19066: a0 = u8 [a0 + 0x7]\n 19069: a4 = a4 << 0x8\n 19072: a4 = a4 | a5\n 19075: s1 = s1 << 0x10\n 19078: a0 = a0 << 0x18\n 19081: a0 = a0 | s1\n 19084: a0 = a0 | a4\n 19087: a0 = a0 << 0x20\n 19090: ra = a0 | a1\n 19093: u8 [sp + 479] = 0\n 19097: u8 [sp + 478] = 0\n 19101: u8 [sp + 477] = 0\n 19105: u8 [sp + 476] = 0\n 19109: u8 [sp + 475] = 0\n 19113: u8 [sp + 474] = 0\n 19117: u8 [sp + 473] = 0\n 19121: u8 [sp + 472] = 0\n 19125: u8 [sp + 471] = 0\n 19129: u8 [sp + 470] = 0\n 19133: u8 [sp + 469] = 0\n 19137: u8 [sp + 468] = 0\n 19141: u8 [sp + 467] = 0\n 19145: u8 [sp + 466] = 0\n 19149: u8 [sp + 465] = 0\n 19153: u8 [sp + 464] = 0\n 19157: u8 [sp + 463] = 0\n 19161: u8 [sp + 462] = 0\n 19165: u8 [sp + 461] = 0\n 19169: u8 [sp + 460] = 0\n 19173: u8 [sp + 459] = 0\n 19177: u8 [sp + 458] = 0\n 19181: u8 [sp + 457] = 0\n 19185: u8 [sp + 456] = 0\n 19189: u8 [sp + 455] = 0\n 19193: u8 [sp + 454] = 0\n 19197: u8 [sp + 453] = 0\n 19201: u8 [sp + 452] = 0\n 19205: u8 [sp + 451] = 0\n 19209: u8 [sp + 450] = 0\n 19213: u8 [sp + 449] = 0\n 19217: u8 [sp + 448] = 0\n 19221: u8 [sp + 447] = 0xff\n 19227: u8 [sp + 446] = 0xff\n 19233: u8 [sp + 445] = 0xff\n 19239: u8 [sp + 443] = 0xff\n 19245: u8 [sp + 440] = 0xffffffffffffffff\n 19250: u8 [sp + 439] = 0xff\n 19256: u8 [sp + 438] = 0xff\n 19262: u8 [sp + 437] = 0xff\n 19268: u8 [sp + 435] = 0xff\n 19274: u8 [sp + 432] = 0xffffffffffffffff\n 19279: u8 [sp + 431] = 0xff\n 19285: u8 [sp + 430] = 0xff\n 19291: u8 [sp + 429] = 0xff\n 19297: u8 [sp + 427] = 0xff\n 19303: u8 [sp + 424] = 0xffffffffffffffff\n 19308: u8 [sp + 423] = 0xff\n 19314: u8 [sp + 422] = 0xff\n 19320: u8 [sp + 421] = 0xff\n 19326: u8 [sp + 419] = 0xff\n 19332: u8 [sp + 416] = 0xffffffffffffffff\n 19337: a1 = 0xffffffff\n 19347: u8 [sp + 0x1bc] = a1\n 19351: a5 = 0xffffffffffff\n 19361: u8 [sp + 0x1ba] = a5\n 19365: a4 = 0xffffffffffffff\n 19375: u8 [sp + 0x1b9] = a4\n 19379: u8 [sp + 0x1b4] = a1\n 19383: u8 [sp + 0x1b2] = a5\n 19387: u8 [sp + 0x1b1] = a4\n 19391: u8 [sp + 0x1ac] = a1\n 19395: u8 [sp + 0x1aa] = a5\n 19399: u8 [sp + 0x1a9] = a4\n 19403: u8 [sp + 0x1a4] = a1\n 19407: u8 [sp + 0x1a2] = a5\n 19411: u8 [sp + 0x1a1] = a4\n 19415: t2 = u64 [sp + 0x20]\n 19418: a4 = t2 & 0x1f\n 19421: a1 = sp + 0x1a0\n 19425: a4 = a4 + a1\n 19428: a1 = u8 [a4 + 0x19]\n 19431: a5 = u8 [a4 + 0x18]\n 19434: s1 = u8 [a4 + 0x1a]\n 19437: a2 = u8 [a4 + 0x1b]\n 19440: a1 = a1 << 0x8\n 19443: a1 = a1 | a5\n 19446: s1 = s1 << 0x10\n 19449: a2 = a2 << 0x18\n 19452: a2 = a2 | s1\n 19455: a1 = a1 | a2\n 19458: a2 = u8 [a4 + 0x1d]\n 19461: a5 = u8 [a4 + 0x1c]\n 19464: s1 = u8 [a4 + 0x1e]\n 19467: a3 = u8 [a4 + 0x1f]\n 19470: a2 = a2 << 0x8\n 19473: a2 = a2 | a5\n 19476: s1 = s1 << 0x10\n 19479: a3 = a3 << 0x18\n 19482: a3 = a3 | s1\n 19485: a2 = a2 | a3\n 19488: a2 = a2 << 0x20\n 19491: t1 = a2 | a1\n 19494: a1 = u8 [a4 + 0x11]\n 19497: a2 = u8 [a4 + 0x10]\n 19500: a3 = u8 [a4 + 0x12]\n 19503: s1 = u8 [a4 + 0x13]\n 19506: a1 = a1 << 0x8\n 19509: a1 = a1 | a2\n 19512: a3 = a3 << 0x10\n 19515: s1 = s1 << 0x18\n 19518: a3 = a3 | s1\n 19521: a1 = a1 | a3\n 19524: a2 = u8 [a4 + 0x15]\n 19527: a3 = u8 [a4 + 0x14]\n 19530: s1 = u8 [a4 + 0x16]\n 19533: a0 = u8 [a4 + 0x17]\n 19536: a2 = a2 << 0x8\n 19539: a2 = a2 | a3\n 19542: s1 = s1 << 0x10\n 19545: a0 = a0 << 0x18\n 19548: a0 = a0 | s1\n 19551: a0 = a0 | a2\n 19554: a0 = a0 << 0x20\n 19557: s1 = a0 | a1\n 19560: a0 = u8 [a4 + 0x9]\n 19563: a1 = u8 [a4 + 0x8]\n 19566: a2 = u8 [a4 + 0xa]\n 19569: a3 = u8 [a4 + 0xb]\n 19572: a0 = a0 << 0x8\n 19575: a0 = a0 | a1\n 19578: a2 = a2 << 0x10\n 19581: a3 = a3 << 0x18\n 19584: a2 = a2 | a3\n 19587: a5 = a2 | a0\n 19590: a1 = u8 [a4 + 0xd]\n 19593: a2 = u8 [a4 + 0xc]\n 19596: a3 = u8 [a4 + 0xe]\n 19599: a0 = u8 [a4 + 0xf]\n 19602: a1 = a1 << 0x8\n 19605: a1 = a1 | a2\n 19608: a3 = a3 << 0x10\n 19611: a0 = a0 << 0x18\n 19614: a0 = a0 | a3\n 19617: a0 = a0 | a1\n 19620: a0 = a0 << 0x20\n 19623: a1 = a0 | a5\n 19626: a0 = u8 [a4 + 0x1]\n 19629: a2 = u8 [a4]\n 19631: a3 = u8 [a4 + 0x2]\n 19634: a5 = u8 [a4 + 0x3]\n 19637: a0 = a0 << 0x8\n 19640: a0 = a0 | a2\n 19643: a3 = a3 << 0x10\n 19646: a5 = a5 << 0x18\n 19649: a3 = a3 | a5\n 19652: a0 = a0 | a3\n 19655: a2 = u8 [a4 + 0x5]\n 19658: a3 = u8 [a4 + 0x4]\n 19661: a5 = u8 [a4 + 0x6]\n 19664: a4 = u8 [a4 + 0x7]\n 19667: a2 = a2 << 0x8\n 19670: a2 = a2 | a3\n 19673: a5 = a5 << 0x10\n 19676: a4 = a4 << 0x18\n 19679: a4 = a4 | a5\n 19682: a2 = a2 | a4\n 19685: a2 = a2 << 0x20\n 19688: a0 = a0 | a2\n 19691: a2 = reverse t0\n 19693: t0 = a2 & ~a0\n 19696: a0 = u64 [sp + 0xd8]\n 19700: a0 = reverse a0\n 19702: a2 = a0 & ~a1\n 19705: a0 = reverse ra\n 19707: a1 = u64 [sp + 0xd0]\n 19711: a1 = reverse a1\n 19713: a1 = a1 & ~s1\n 19716: a0 = a0 & ~t1\n 19719: a4 = t2 >> 0x3f\n 19722: a3 = u64 [sp + 0x38]\n 19725: a5 = a3 << 0x1\n 19728: a4 = a4 | a5\n 19731: a5 = a3 >> 0x3f\n 19734: a3 = u64 [sp + 0x30]\n 19737: s1 = a3 << 0x1\n 19740: a5 = a5 | s1\n 19743: s1 = a3 >> 0x3f\n 19746: a3 = u64 [sp + 0x28]\n 19749: a3 = a3 << 0x1\n 19752: a3 = a3 | s1\n 19755: t1 = a0 | a3\n 19758: a1 = a1 | a5\n 19761: a2 = a2 | a4\n 19764: a3 = t2 << 0x1\n 19767: a3 = t0 | a3\n 19770: a4 = u64 [sp + 0x40]\n 19773: a5 = u64 [sp + 0x58]\n 19776: s1 = u64 [sp + 0x50]\n 19779: jump @274\n      : @267 (gas: 4)\n 19782: t2 = 0\n 19784: s1 = 0\n 19786: a1 = 0x20\n 19789: fallthrough\n      : @268 (gas: 10)\n 19790: a5 = u64 [sp + 0x20]\n 19793: a2 = u64 [sp + 0x18]\n 19796: a2 = a2 ^ a5\n 19799: a3 = u64 [sp + 0x30]\n 19802: a2 = a2 | a3\n 19805: a3 = u64 [sp + 0x38]\n 19808: a4 = u64 [sp + 0x28]\n 19811: a3 = a3 | a4\n 19814: a2 = a2 | a3\n 19817: jump @272 if a2 == 0\n      : @269 (gas: 27)\n 19821: u64 [sp + 0xc8] = t0\n 19825: a2 = u64 [sp + 0x80]\n 19829: a2 = a2 + a1\n 19832: a3 = a2 <u a1\n 19835: a4 = u64 [sp + 0x88]\n 19839: a4 = a4 + t2\n 19842: a4 = a4 + a3\n 19845: a5 = a4 ^ t2\n 19848: a1 = a4 <u t2\n 19851: a1 = a3 if a5 == 0\n 19854: a3 = u64 [sp + 0x90]\n 19858: a3 = a3 + a0\n 19861: a1 = a1 + a3\n 19864: a5 = a1 <u a3\n 19867: a0 = a3 <u a0\n 19870: a3 = u64 [sp + 0x98]\n 19874: a3 = a3 + s1\n 19877: a0 = a0 + a3\n 19880: a0 = a0 + a5\n 19883: a3 = a2 | a1\n 19886: a0 = a0 | a4\n 19889: a3 = a3 | a0\n 19892: a3 = a3 >> 0x20\n 19895: a0 = a0 | a1\n 19898: a0 = a0 << 0x20\n 19901: a0 = a0 | a3\n 19904: jump @276 if a0 != 0\n      : @270 (gas: 3)\n 19908: i32 a0 = a2 + 0\n 19910: a1 = 0x20\n 19913: ra = 212, jump @0\n      : @271 [@dyn 106] (gas: 277)\n 19919: a1 = u8 [a0 + 0x19]\n 19922: a2 = u8 [a0 + 0x18]\n 19925: a3 = u8 [a0 + 0x1a]\n 19928: a4 = u8 [a0 + 0x1b]\n 19931: a1 = a1 << 0x8\n 19934: a1 = a1 | a2\n 19937: a3 = a3 << 0x10\n 19940: a4 = a4 << 0x18\n 19943: a3 = a3 | a4\n 19946: a1 = a1 | a3\n 19949: a2 = u8 [a0 + 0x1d]\n 19952: a3 = u8 [a0 + 0x1c]\n 19955: a4 = u8 [a0 + 0x1e]\n 19958: a5 = u8 [a0 + 0x1f]\n 19961: a2 = a2 << 0x8\n 19964: a2 = a2 | a3\n 19967: a4 = a4 << 0x10\n 19970: a5 = a5 << 0x18\n 19973: a4 = a4 | a5\n 19976: a2 = a2 | a4\n 19979: a2 = a2 << 0x20\n 19982: a1 = a1 | a2\n 19985: u64 [sp + 0xb8] = a1\n 19989: a1 = u8 [a0 + 0x11]\n 19992: a2 = u8 [a0 + 0x10]\n 19995: a3 = u8 [a0 + 0x12]\n 19998: a4 = u8 [a0 + 0x13]\n 20001: a1 = a1 << 0x8\n 20004: a1 = a1 | a2\n 20007: a3 = a3 << 0x10\n 20010: a4 = a4 << 0x18\n 20013: a3 = a3 | a4\n 20016: a1 = a1 | a3\n 20019: a2 = u8 [a0 + 0x15]\n 20022: a3 = u8 [a0 + 0x14]\n 20025: a4 = u8 [a0 + 0x16]\n 20028: a5 = u8 [a0 + 0x17]\n 20031: a2 = a2 << 0x8\n 20034: a2 = a2 | a3\n 20037: a4 = a4 << 0x10\n 20040: a5 = a5 << 0x18\n 20043: a4 = a4 | a5\n 20046: a2 = a2 | a4\n 20049: a2 = a2 << 0x20\n 20052: t1 = a2 | a1\n 20055: a1 = u8 [a0 + 0x9]\n 20058: a3 = u8 [a0 + 0x8]\n 20061: a4 = u8 [a0 + 0xa]\n 20064: a5 = u8 [a0 + 0xb]\n 20067: a1 = a1 << 0x8\n 20070: a1 = a1 | a3\n 20073: a4 = a4 << 0x10\n 20076: a5 = a5 << 0x18\n 20079: a4 = a4 | a5\n 20082: a1 = a1 | a4\n 20085: a3 = u8 [a0 + 0xd]\n 20088: a4 = u8 [a0 + 0xc]\n 20091: a5 = u8 [a0 + 0xe]\n 20094: s1 = u8 [a0 + 0xf]\n 20097: a3 = a3 << 0x8\n 20100: a3 = a3 | a4\n 20103: a5 = a5 << 0x10\n 20106: s1 = s1 << 0x18\n 20109: a5 = a5 | s1\n 20112: a3 = a3 | a5\n 20115: a3 = a3 << 0x20\n 20118: t2 = a3 | a1\n 20121: a1 = u8 [a0 + 0x1]\n 20124: a4 = u8 [a0]\n 20126: a5 = u8 [a0 + 0x2]\n 20129: s1 = u8 [a0 + 0x3]\n 20132: a1 = a1 << 0x8\n 20135: a1 = a1 | a4\n 20138: a5 = a5 << 0x10\n 20141: s1 = s1 << 0x18\n 20144: a5 = a5 | s1\n 20147: a1 = a1 | a5\n 20150: a4 = u8 [a0 + 0x5]\n 20153: a5 = u8 [a0 + 0x4]\n 20156: s1 = u8 [a0 + 0x6]\n 20159: a0 = u8 [a0 + 0x7]\n 20162: a4 = a4 << 0x8\n 20165: a4 = a4 | a5\n 20168: s1 = s1 << 0x10\n 20171: a0 = a0 << 0x18\n 20174: a0 = a0 | s1\n 20177: a0 = a0 | a4\n 20180: a0 = a0 << 0x20\n 20183: ra = a0 | a1\n 20186: u8 [sp + 415] = 0\n 20190: u8 [sp + 414] = 0\n 20194: u8 [sp + 413] = 0\n 20198: u8 [sp + 412] = 0\n 20202: u8 [sp + 411] = 0\n 20206: u8 [sp + 410] = 0\n 20210: u8 [sp + 409] = 0\n 20214: u8 [sp + 408] = 0\n 20218: u8 [sp + 407] = 0\n 20222: u8 [sp + 406] = 0\n 20226: u8 [sp + 405] = 0\n 20230: u8 [sp + 404] = 0\n 20234: u8 [sp + 403] = 0\n 20238: u8 [sp + 402] = 0\n 20242: u8 [sp + 401] = 0\n 20246: u8 [sp + 400] = 0\n 20250: u8 [sp + 399] = 0\n 20254: u8 [sp + 398] = 0\n 20258: u8 [sp + 397] = 0\n 20262: u8 [sp + 396] = 0\n 20266: u8 [sp + 395] = 0\n 20270: u8 [sp + 394] = 0\n 20274: u8 [sp + 393] = 0\n 20278: u8 [sp + 392] = 0\n 20282: u8 [sp + 391] = 0\n 20286: u8 [sp + 390] = 0\n 20290: u8 [sp + 389] = 0\n 20294: u8 [sp + 388] = 0\n 20298: u8 [sp + 387] = 0\n 20302: u8 [sp + 386] = 0\n 20306: u8 [sp + 385] = 0\n 20310: u8 [sp + 384] = 0\n 20314: u8 [sp + 383] = 0xff\n 20320: u8 [sp + 382] = 0xff\n 20326: u8 [sp + 381] = 0xff\n 20332: u8 [sp + 379] = 0xff\n 20338: u8 [sp + 376] = 0xffffffffffffffff\n 20343: u8 [sp + 375] = 0xff\n 20349: u8 [sp + 374] = 0xff\n 20355: u8 [sp + 373] = 0xff\n 20361: u8 [sp + 371] = 0xff\n 20367: u8 [sp + 368] = 0xffffffffffffffff\n 20372: u8 [sp + 367] = 0xff\n 20378: u8 [sp + 366] = 0xff\n 20384: u8 [sp + 365] = 0xff\n 20390: u8 [sp + 363] = 0xff\n 20396: u8 [sp + 360] = 0xffffffffffffffff\n 20401: u8 [sp + 359] = 0xff\n 20407: u8 [sp + 358] = 0xff\n 20413: u8 [sp + 357] = 0xff\n 20419: u8 [sp + 355] = 0xff\n 20425: u8 [sp + 352] = 0xffffffffffffffff\n 20430: a1 = 0xffffffff\n 20440: u8 [sp + 0x17c] = a1\n 20444: a5 = 0xffffffffffff\n 20454: u8 [sp + 0x17a] = a5\n 20458: a4 = 0xffffffffffffff\n 20468: u8 [sp + 0x179] = a4\n 20472: u8 [sp + 0x174] = a1\n 20476: u8 [sp + 0x172] = a5\n 20480: u8 [sp + 0x171] = a4\n 20484: u8 [sp + 0x16c] = a1\n 20488: u8 [sp + 0x16a] = a5\n 20492: u8 [sp + 0x169] = a4\n 20496: u8 [sp + 0x164] = a1\n 20500: u8 [sp + 0x162] = a5\n 20504: u8 [sp + 0x161] = a4\n 20508: a4 = u64 [sp + 0x20]\n 20511: a4 = a4 & 0x1f\n 20514: a1 = sp + 0x160\n 20518: a4 = a4 + a1\n 20521: a1 = u8 [a4 + 0x19]\n 20524: a5 = u8 [a4 + 0x18]\n 20527: s1 = u8 [a4 + 0x1a]\n 20530: a2 = u8 [a4 + 0x1b]\n 20533: a1 = a1 << 0x8\n 20536: a1 = a1 | a5\n 20539: s1 = s1 << 0x10\n 20542: a2 = a2 << 0x18\n 20545: a2 = a2 | s1\n 20548: a1 = a1 | a2\n 20551: a2 = u8 [a4 + 0x1d]\n 20554: a5 = u8 [a4 + 0x1c]\n 20557: s1 = u8 [a4 + 0x1e]\n 20560: a3 = u8 [a4 + 0x1f]\n 20563: a2 = a2 << 0x8\n 20566: a2 = a2 | a5\n 20569: s1 = s1 << 0x10\n 20572: a3 = a3 << 0x18\n 20575: a3 = a3 | s1\n 20578: a2 = a2 | a3\n 20581: a2 = a2 << 0x20\n 20584: t0 = a2 | a1\n 20587: a1 = u8 [a4 + 0x11]\n 20590: a2 = u8 [a4 + 0x10]\n 20593: a3 = u8 [a4 + 0x12]\n 20596: s1 = u8 [a4 + 0x13]\n 20599: a1 = a1 << 0x8\n 20602: a1 = a1 | a2\n 20605: a3 = a3 << 0x10\n 20608: s1 = s1 << 0x18\n 20611: a3 = a3 | s1\n 20614: a1 = a1 | a3\n 20617: a2 = u8 [a4 + 0x15]\n 20620: a3 = u8 [a4 + 0x14]\n 20623: s1 = u8 [a4 + 0x16]\n 20626: a0 = u8 [a4 + 0x17]\n 20629: a2 = a2 << 0x8\n 20632: a2 = a2 | a3\n 20635: s1 = s1 << 0x10\n 20638: a0 = a0 << 0x18\n 20641: a0 = a0 | s1\n 20644: a0 = a0 | a2\n 20647: a0 = a0 << 0x20\n 20650: s1 = a0 | a1\n 20653: a0 = u8 [a4 + 0x9]\n 20656: a1 = u8 [a4 + 0x8]\n 20659: a2 = u8 [a4 + 0xa]\n 20662: a3 = u8 [a4 + 0xb]\n 20665: a0 = a0 << 0x8\n 20668: a0 = a0 | a1\n 20671: a2 = a2 << 0x10\n 20674: a3 = a3 << 0x18\n 20677: a2 = a2 | a3\n 20680: a5 = a2 | a0\n 20683: a1 = u8 [a4 + 0xd]\n 20686: a2 = u8 [a4 + 0xc]\n 20689: a3 = u8 [a4 + 0xe]\n 20692: a0 = u8 [a4 + 0xf]\n 20695: a1 = a1 << 0x8\n 20698: a1 = a1 | a2\n 20701: a3 = a3 << 0x10\n 20704: a0 = a0 << 0x18\n 20707: a0 = a0 | a3\n 20710: a0 = a0 | a1\n 20713: a0 = a0 << 0x20\n 20716: a1 = a0 | a5\n 20719: a0 = u8 [a4 + 0x1]\n 20722: a2 = u8 [a4]\n 20724: a3 = u8 [a4 + 0x2]\n 20727: a5 = u8 [a4 + 0x3]\n 20730: a0 = a0 << 0x8\n 20733: a0 = a0 | a2\n 20736: a3 = a3 << 0x10\n 20739: a5 = a5 << 0x18\n 20742: a3 = a3 | a5\n 20745: a0 = a0 | a3\n 20748: a2 = u8 [a4 + 0x5]\n 20751: a3 = u8 [a4 + 0x4]\n 20754: a5 = u8 [a4 + 0x6]\n 20757: a4 = u8 [a4 + 0x7]\n 20760: a2 = a2 << 0x8\n 20763: a2 = a2 | a3\n 20766: a5 = a5 << 0x10\n 20769: a4 = a4 << 0x18\n 20772: a4 = a4 | a5\n 20775: a2 = a2 | a4\n 20778: a2 = a2 << 0x20\n 20781: a0 = a0 | a2\n 20784: a2 = u64 [sp + 0xb8]\n 20788: a2 = reverse a2\n 20790: a0 = a2 & ~a0\n 20793: a2 = reverse t1\n 20795: a1 = a2 & ~a1\n 20798: a2 = reverse t2\n 20800: a2 = a2 & ~s1\n 20803: a3 = reverse ra\n 20805: a3 = a3 & ~t0\n 20808: a4 = u64 [sp + 0xd0]\n 20812: u64 [sp + 0x278] = a4\n 20816: a4 = u64 [sp + 0xc8]\n 20820: u64 [sp + 0x270] = a4\n 20824: a4 = u64 [sp + 0xd8]\n 20828: u64 [sp + 0x268] = a4\n 20832: a4 = u64 [sp + 0xc0]\n 20836: u64 [sp + 0x260] = a4\n 20840: u64 [sp + 0x298] = a3\n 20844: u64 [sp + 0x290] = a2\n 20848: u64 [sp + 0x288] = a1\n 20852: u64 [sp + 0x280] = a0\n 20856: i32 a1 = sp + 0x260\n 20860: i32 a3 = sp + 0x280\n 20864: a2 = 0xffffffffffffffff\n 20867: a4 = 0x20\n 20870: a0 = 0\n 20872: ecalli 16 // 'set_storage'\n 20874: a5 = u64 [sp + 0x20]\n 20877: fallthrough\n      : @272 (gas: 27)\n 20878: a2 = u64 [sp + 0x30]\n 20881: a0 = a2 >> 0x3f\n 20884: a1 = u64 [sp + 0x28]\n 20887: a1 = a1 << 0x1\n 20890: a0 = a0 | a1\n 20893: a3 = u64 [sp + 0x38]\n 20896: a1 = a3 >> 0x3f\n 20899: a2 = a2 << 0x1\n 20902: a1 = a1 | a2\n 20905: a2 = a5 >> 0x3f\n 20908: a3 = a3 << 0x1\n 20911: a2 = a2 | a3\n 20914: a3 = a5 << 0x1\n 20917: a3 = a3 + 0x1\n 20920: a4 = u64 [sp + 0x48]\n 20923: u64 [sp + 0x268] = a4\n 20927: a4 = u64 [sp + 0x50]\n 20930: u64 [sp + 0x260] = a4\n 20934: a4 = u64 [sp + 0x58]\n 20937: u64 [sp + 0x270] = a4\n 20941: a4 = u64 [sp + 0x40]\n 20944: u64 [sp + 0x278] = a4\n 20948: u64 [sp + 0x280] = a3\n 20952: u64 [sp + 0x288] = a2\n 20956: u64 [sp + 0x290] = a1\n 20960: u64 [sp + 0x298] = a0\n 20964: jump @275\n      : @273 (gas: 5)\n 20966: a3 = 0\n 20968: a2 = 0\n 20970: a1 = 0\n 20972: t1 = 0\n 20974: fallthrough\n      : @274 (gas: 10)\n 20975: a0 = u64 [sp + 0x48]\n 20978: u64 [sp + 0x268] = a0\n 20982: u64 [sp + 0x260] = s1\n 20986: u64 [sp + 0x270] = a5\n 20990: u64 [sp + 0x278] = a4\n 20994: u64 [sp + 0x280] = a3\n 20998: u64 [sp + 0x288] = a2\n 21002: u64 [sp + 0x290] = a1\n 21006: u64 [sp + 0x298] = t1\n 21010: fallthrough\n      : @275 (gas: 12)\n 21011: i32 a1 = sp + 0x260\n 21015: i32 a3 = sp + 0x280\n 21019: a2 = 0xffffffffffffffff\n 21022: a4 = 0x20\n 21025: a0 = 0\n 21027: ecalli 16 // 'set_storage'\n 21029: sp = s0 + 0xfffffffffffffd40\n 21033: ra = u64 [sp + 0x2b8]\n 21037: s0 = u64 [sp + 0x2b0]\n 21041: s1 = u64 [sp + 0x2a8]\n 21045: sp = sp + 0x2c0\n 21049: ret\n      : @276 (gas: 1)\n 21051: trap\n      : @277 (gas: 8)\n 21052: u64 [sp + 272] = 0\n 21056: u64 [sp + 264] = 0\n 21060: u64 [sp + 256] = 0\n 21064: a0 = 0x4e487b7100000000\n 21074: a1 = sp + 0x100\n 21078: u64 [sp + 0x118] = a0\n 21082: a0 = 0\n 21084: ra = 214, jump @23\n      : @278 [@dyn 107] (gas: 8)\n 21090: u64 [sp + 248] = 0\n 21094: u64 [sp + 240] = 0\n 21098: u64 [sp + 224] = 0x41\n 21103: a0 = 0x4\n 21106: a1 = sp + 0xe0\n 21110: u64 [sp + 232] = 0\n 21114: ra = 0xda\n 21118: jump @23\n      : @279 (gas: 8)\n 21121: u64 [sp + 336] = 0\n 21125: u64 [sp + 328] = 0\n 21129: u64 [sp + 320] = 0\n 21133: a0 = 0x4e487b7100000000\n 21143: a1 = sp + 0x140\n 21147: u64 [sp + 0x158] = a0\n 21151: a0 = 0\n 21153: ra = 216, jump @23\n      : @280 [@dyn 108] (gas: 7)\n 21159: u64 [sp + 312] = 0\n 21163: u64 [sp + 304] = 0\n 21167: u64 [sp + 288] = 0x22\n 21172: a0 = 0x4\n 21175: a1 = sp + 0x120\n 21179: u64 [sp + 296] = 0\n 21183: ra = 218, jump @23\n      : @281 [@dyn 109] (gas: 3)\n 21189: a1 = 0x24\n 21192: a0 = 0\n 21194: ra = 220, jump @0\n      : @282 [@dyn 110] (gas: 6)\n 21200: i32 a1 = a0 + 0\n 21202: a0 = 0x1\n 21205: a2 = 0x24\n 21208: ra = 0xde\n 21212: ecalli 14 // 'seal_return'\n 21214: fallthrough\n      : @283 [@dyn 111] (gas: 24)\n 21215: sp = sp + 0xffffffffffffffb0\n 21218: u64 [sp + 0x48] = ra\n 21221: u64 [sp + 0x40] = s0\n 21224: s0 = sp + 0x50\n 21227: sp = sp & 0xfffffffffffffff0\n 21230: t0 = u64 [a0]\n 21232: t1 = u64 [a0 + 0x8]\n 21235: a4 = u64 [a0 + 0x10]\n 21238: a0 = u64 [a0 + 0x18]\n 21241: a5 = u64 [a1]\n 21243: a2 = u64 [a1 + 0x8]\n 21246: a3 = u64 [a1 + 0x10]\n 21249: a1 = u64 [a1 + 0x18]\n 21252: u64 [sp + 0x18] = a1\n 21255: u64 [sp + 0x10] = a3\n 21258: u64 [sp + 0x8] = a2\n 21261: u64 [sp] = a5\n 21263: u64 [sp + 0x38] = a0\n 21266: u64 [sp + 0x30] = a4\n 21269: u64 [sp + 0x28] = t1\n 21272: a0 = sp + 0x20\n 21275: a1 = sp\n 21277: u64 [sp + 0x20] = t0\n 21280: ra = 224, jump @246\n      : @284 [@dyn 112] (gas: 5)\n 21286: sp = s0 + 0xffffffffffffffb0\n 21289: ra = u64 [sp + 0x48]\n 21292: s0 = u64 [sp + 0x40]\n 21295: sp = sp + 0x50\n 21298: ret\n      : @285 (gas: 8)\n 21300: u64 [sp + 0x8] = s1\n 21303: a0 = s1 << 0x20\n 21306: a0 = a0 >> 0x20\n 21309: a1 = u64 [sp + 0xd0]\n 21313: a2 = u64 [sp + 0xd8]\n 21317: a1 = a1 | a2\n 21320: a0 = a0 | a1\n 21323: jump @300 if a0 == 0\n      : @286 (gas: 10)\n 21327: s1 = 0xffffffff\n 21337: a0 = u64 [sp + 0xc0]\n 21341: a0 = a0 & 0xffffffffffffffff\n 21344: a1 = u64 [sp + 0xc8]\n 21348: a1 = a1 & 0xffffffffffffffff\n 21351: a2 = u64 [sp + 0xb8]\n 21355: a2 = a2 & s1\n 21358: a1 = a1 | a2\n 21361: a0 = a0 | a1\n 21364: jump @305 if a0 == 0\n      : @287 (gas: 9)\n 21368: a0 = u64 [sp + 0xa8]\n 21372: a1 = u64 [sp + 0x98]\n 21376: a0 = a0 | a1\n 21379: a1 = u64 [sp + 0xa0]\n 21383: a2 = u64 [sp + 0x90]\n 21387: a1 = a1 | a2\n 21390: a0 = a0 | a1\n 21393: a2 = u64 [sp + 0xb0]\n 21397: jump @310 if a0 == 0\n      : @288 (gas: 12)\n 21401: u64 [sp] = s1\n 21403: a3 = u64 [sp + 0x80]\n 21407: a0 = a2 | a3\n 21410: a1 = u64 [sp + 0x88]\n 21414: a4 = u64 [sp + 0x78]\n 21417: a1 = a1 | a4\n 21420: a0 = a0 | a1\n 21423: a0 = a0 >> 0x20\n 21426: a1 = a1 | a3\n 21429: a1 = a1 << 0x20\n 21432: a0 = a0 | a1\n 21435: jump @290 if a0 == 0\n      : @289 (gas: 1)\n 21438: jump @326\n      : @290 (gas: 3)\n 21441: i32 a0 = a2 + 0\n 21443: a1 = 0x20\n 21446: ra = 226, jump @0\n      : @291 [@dyn 113] (gas: 90)\n 21452: a1 = u8 [a0 + 0x11]\n 21455: a2 = u8 [a0 + 0x10]\n 21458: a3 = u8 [a0 + 0x12]\n 21461: a4 = u8 [a0 + 0x13]\n 21464: a1 = a1 << 0x8\n 21467: a1 = a1 | a2\n 21470: a3 = a3 << 0x10\n 21473: a4 = a4 << 0x18\n 21476: a3 = a3 | a4\n 21479: t0 = a3 | a1\n 21482: a1 = u8 [a0 + 0x1]\n 21485: a2 = u8 [a0]\n 21487: a3 = u8 [a0 + 0x2]\n 21490: a4 = u8 [a0 + 0x3]\n 21493: a1 = a1 << 0x8\n 21496: a1 = a1 | a2\n 21499: a3 = a3 << 0x10\n 21502: a4 = a4 << 0x18\n 21505: a2 = a4 | a3\n 21508: t1 = a2 | a1\n 21511: a1 = u8 [a0 + 0x15]\n 21514: a3 = u8 [a0 + 0x14]\n 21517: a4 = u8 [a0 + 0x16]\n 21520: a5 = u8 [a0 + 0x17]\n 21523: a1 = a1 << 0x8\n 21526: a1 = a1 | a3\n 21529: a4 = a4 << 0x10\n 21532: a5 = a5 << 0x18\n 21535: a3 = a5 | a4\n 21538: t2 = a3 | a1\n 21541: a1 = u8 [a0 + 0x5]\n 21544: a4 = u8 [a0 + 0x4]\n 21547: a5 = u8 [a0 + 0x6]\n 21550: s1 = u8 [a0 + 0x7]\n 21553: a1 = a1 << 0x8\n 21556: a1 = a1 | a4\n 21559: a5 = a5 << 0x10\n 21562: s1 = s1 << 0x18\n 21565: a4 = s1 | a5\n 21568: ra = a4 | a1\n 21571: a1 = u8 [a0 + 0x19]\n 21574: a5 = u8 [a0 + 0x18]\n 21577: s1 = u8 [a0 + 0x1a]\n 21580: a2 = u8 [a0 + 0x1b]\n 21583: a1 = a1 << 0x8\n 21586: a1 = a1 | a5\n 21589: s1 = s1 << 0x10\n 21592: a2 = a2 << 0x18\n 21595: a2 = a2 | s1\n 21598: a5 = a2 | a1\n 21601: a1 = u8 [a0 + 0x9]\n 21604: a2 = u8 [a0 + 0x8]\n 21607: s1 = u8 [a0 + 0xa]\n 21610: a3 = u8 [a0 + 0xb]\n 21613: a1 = a1 << 0x8\n 21616: a1 = a1 | a2\n 21619: s1 = s1 << 0x10\n 21622: a3 = a3 << 0x18\n 21625: a3 = a3 | s1\n 21628: a1 = a1 | a3\n 21631: a2 = u8 [a0 + 0x1d]\n 21634: a3 = u8 [a0 + 0x1c]\n 21637: s1 = u8 [a0 + 0x1e]\n 21640: a4 = u8 [a0 + 0x1f]\n 21643: a2 = a2 << 0x8\n 21646: a2 = a2 | a3\n 21649: s1 = s1 << 0x10\n 21652: a4 = a4 << 0x18\n 21655: a4 = a4 | s1\n 21658: a2 = a2 | a4\n 21661: a3 = u8 [a0 + 0xd]\n 21664: a4 = u8 [a0 + 0xc]\n 21667: s1 = u8 [a0 + 0xe]\n 21670: a0 = u8 [a0 + 0xf]\n 21673: a3 = a3 << 0x8\n 21676: a3 = a3 | a4\n 21679: s1 = s1 << 0x10\n 21682: a0 = a0 << 0x18\n 21685: a0 = a0 | s1\n 21688: a0 = a0 | a3\n 21691: a0 = a0 | a2\n 21694: a0 = a0 << 0x20\n 21697: a1 = a1 | a5\n 21700: a0 = a0 | a1\n 21703: a1 = ra | t2\n 21706: a1 = a1 << 0x20\n 21709: a2 = t1 | t0\n 21712: a1 = a1 | a2\n 21715: a0 = a0 | a1\n 21718: jump @315 if a0 == 0\n      : @292 (gas: 13)\n 21722: a0 = u64 [sp + 0x60]\n 21725: a1 = a0 & 0xffffffffffffffff\n 21728: a0 = u64 [sp + 0x68]\n 21731: a0 = a0 & 0xffffffffffffffff\n 21734: a2 = u64 [sp + 0x70]\n 21737: a3 = u64 [sp]\n 21739: a2 = a2 & a3\n 21742: u64 [sp + 0x70] = a0\n 21745: u64 [sp + 0x60] = a2\n 21748: a0 = a0 | a2\n 21751: u64 [sp + 0x68] = a1\n 21754: a0 = a0 | a1\n 21757: jump @320 if a0 == 0\n      : @293 (gas: 3)\n 21761: a0 = 0x80\n 21765: a1 = 0x20\n 21768: ra = 228, jump @0\n      : @294 [@dyn 114] (gas: 71)\n 21774: a1 = u64 [sp + 0x10]\n 21777: a1 = reverse a1\n 21779: a2 = u64 [sp + 0x8]\n 21782: a2 = reverse a2\n 21784: a3 = u64 [sp + 0xd0]\n 21788: a3 = reverse a3\n 21790: a4 = u64 [sp + 0xd8]\n 21794: a4 = reverse a4\n 21796: u8 [a0 + 0x18] = a4\n 21799: a5 = a4 >> 0x38\n 21802: u8 [a0 + 0x1f] = a5\n 21805: a5 = a4 >> 0x30\n 21808: u8 [a0 + 0x1e] = a5\n 21811: a5 = a4 >> 0x28\n 21814: u8 [a0 + 0x1d] = a5\n 21817: a5 = a4 >> 0x20\n 21820: u8 [a0 + 0x1c] = a5\n 21823: a5 = a4 >> 0x18\n 21826: u8 [a0 + 0x1b] = a5\n 21829: a5 = a4 >> 0x10\n 21832: u8 [a0 + 0x1a] = a5\n 21835: a4 = a4 >> 0x8\n 21838: u8 [a0 + 0x19] = a4\n 21841: u8 [a0 + 0x10] = a3\n 21844: a4 = a3 >> 0x38\n 21847: u8 [a0 + 0x17] = a4\n 21850: a4 = a3 >> 0x30\n 21853: u8 [a0 + 0x16] = a4\n 21856: a4 = a3 >> 0x28\n 21859: u8 [a0 + 0x15] = a4\n 21862: a4 = a3 >> 0x20\n 21865: u8 [a0 + 0x14] = a4\n 21868: a4 = a3 >> 0x18\n 21871: u8 [a0 + 0x13] = a4\n 21874: a4 = a3 >> 0x10\n 21877: u8 [a0 + 0x12] = a4\n 21880: a3 = a3 >> 0x8\n 21883: u8 [a0 + 0x11] = a3\n 21886: u8 [a0 + 0x8] = a2\n 21889: a3 = a2 >> 0x38\n 21892: u8 [a0 + 0xf] = a3\n 21895: a3 = a2 >> 0x30\n 21898: u8 [a0 + 0xe] = a3\n 21901: a3 = a2 >> 0x28\n 21904: u8 [a0 + 0xd] = a3\n 21907: a3 = a2 >> 0x20\n 21910: u8 [a0 + 0xc] = a3\n 21913: a3 = a2 >> 0x18\n 21916: u8 [a0 + 0xb] = a3\n 21919: a3 = a2 >> 0x10\n 21922: u8 [a0 + 0xa] = a3\n 21925: a2 = a2 >> 0x8\n 21928: u8 [a0 + 0x9] = a2\n 21931: u8 [a0] = a1\n 21933: a2 = a1 >> 0x38\n 21936: u8 [a0 + 0x7] = a2\n 21939: a2 = a1 >> 0x30\n 21942: u8 [a0 + 0x6] = a2\n 21945: a2 = a1 >> 0x28\n 21948: u8 [a0 + 0x5] = a2\n 21951: a2 = a1 >> 0x20\n 21954: u8 [a0 + 0x4] = a2\n 21957: a2 = a1 >> 0x18\n 21960: u8 [a0 + 0x3] = a2\n 21963: a2 = a1 >> 0x10\n 21966: u8 [a0 + 0x2] = a2\n 21969: a1 = a1 >> 0x8\n 21972: u8 [a0 + 0x1] = a1\n 21975: a0 = 0xa0\n 21979: a1 = 0x20\n 21982: ra = 230, jump @0\n      : @295 [@dyn 115] (gas: 71)\n 21988: a1 = u64 [sp + 0x18]\n 21991: a1 = reverse a1\n 21993: a2 = u64 [sp + 0x20]\n 21996: a2 = reverse a2\n 21998: a3 = u64 [sp + 0x28]\n 22001: a3 = reverse a3\n 22003: a4 = u64 [sp + 0x30]\n 22006: a4 = reverse a4\n 22008: a5 = a4 >> 0x38\n 22011: u8 [a0 + 0x1f] = a5\n 22014: a5 = a4 >> 0x30\n 22017: u8 [a0 + 0x1e] = a5\n 22020: a5 = a4 >> 0x28\n 22023: u8 [a0 + 0x1d] = a5\n 22026: a5 = a4 >> 0x20\n 22029: u8 [a0 + 0x1c] = a5\n 22032: a5 = a4 >> 0x18\n 22035: u8 [a0 + 0x1b] = a5\n 22038: a5 = a4 >> 0x10\n 22041: u8 [a0 + 0x1a] = a5\n 22044: a5 = a4 >> 0x8\n 22047: u8 [a0 + 0x19] = a5\n 22050: u8 [a0 + 0x18] = a4\n 22053: a4 = a3 >> 0x38\n 22056: u8 [a0 + 0x17] = a4\n 22059: a4 = a3 >> 0x30\n 22062: u8 [a0 + 0x16] = a4\n 22065: a4 = a3 >> 0x28\n 22068: u8 [a0 + 0x15] = a4\n 22071: a4 = a3 >> 0x20\n 22074: u8 [a0 + 0x14] = a4\n 22077: a4 = a3 >> 0x18\n 22080: u8 [a0 + 0x13] = a4\n 22083: a4 = a3 >> 0x10\n 22086: u8 [a0 + 0x12] = a4\n 22089: a4 = a3 >> 0x8\n 22092: u8 [a0 + 0x11] = a4\n 22095: u8 [a0 + 0x10] = a3\n 22098: a3 = a2 >> 0x38\n 22101: u8 [a0 + 0xf] = a3\n 22104: a3 = a2 >> 0x30\n 22107: u8 [a0 + 0xe] = a3\n 22110: a3 = a2 >> 0x28\n 22113: u8 [a0 + 0xd] = a3\n 22116: a3 = a2 >> 0x20\n 22119: u8 [a0 + 0xc] = a3\n 22122: a3 = a2 >> 0x18\n 22125: u8 [a0 + 0xb] = a3\n 22128: a3 = a2 >> 0x10\n 22131: u8 [a0 + 0xa] = a3\n 22134: a3 = a2 >> 0x8\n 22137: u8 [a0 + 0x9] = a3\n 22140: u8 [a0 + 0x8] = a2\n 22143: a2 = a1 >> 0x38\n 22146: u8 [a0 + 0x7] = a2\n 22149: a2 = a1 >> 0x30\n 22152: u8 [a0 + 0x6] = a2\n 22155: a2 = a1 >> 0x28\n 22158: u8 [a0 + 0x5] = a2\n 22161: a2 = a1 >> 0x20\n 22164: u8 [a0 + 0x4] = a2\n 22167: a2 = a1 >> 0x18\n 22170: u8 [a0 + 0x3] = a2\n 22173: a2 = a1 >> 0x10\n 22176: u8 [a0 + 0x2] = a2\n 22179: a2 = a1 >> 0x8\n 22182: u8 [a0 + 0x1] = a2\n 22185: u8 [a0] = a1\n 22187: a0 = 0xc0\n 22191: a1 = 0x20\n 22194: ra = 232, jump @0\n      : @296 [@dyn 116] (gas: 71)\n 22200: a1 = u64 [sp + 0x38]\n 22203: a1 = reverse a1\n 22205: a2 = u64 [sp + 0xb8]\n 22209: a2 = reverse a2\n 22211: a3 = u64 [sp + 0xc0]\n 22215: a3 = reverse a3\n 22217: a4 = u64 [sp + 0xc8]\n 22221: a4 = reverse a4\n 22223: a5 = a4 >> 0x38\n 22226: u8 [a0 + 0x1f] = a5\n 22229: a5 = a4 >> 0x30\n 22232: u8 [a0 + 0x1e] = a5\n 22235: a5 = a4 >> 0x28\n 22238: u8 [a0 + 0x1d] = a5\n 22241: a5 = a4 >> 0x20\n 22244: u8 [a0 + 0x1c] = a5\n 22247: a5 = a4 >> 0x18\n 22250: u8 [a0 + 0x1b] = a5\n 22253: a5 = a4 >> 0x10\n 22256: u8 [a0 + 0x1a] = a5\n 22259: a5 = a4 >> 0x8\n 22262: u8 [a0 + 0x19] = a5\n 22265: u8 [a0 + 0x18] = a4\n 22268: a4 = a3 >> 0x38\n 22271: u8 [a0 + 0x17] = a4\n 22274: a4 = a3 >> 0x30\n 22277: u8 [a0 + 0x16] = a4\n 22280: a4 = a3 >> 0x28\n 22283: u8 [a0 + 0x15] = a4\n 22286: a4 = a3 >> 0x20\n 22289: u8 [a0 + 0x14] = a4\n 22292: a4 = a3 >> 0x18\n 22295: u8 [a0 + 0x13] = a4\n 22298: a4 = a3 >> 0x10\n 22301: u8 [a0 + 0x12] = a4\n 22304: a4 = a3 >> 0x8\n 22307: u8 [a0 + 0x11] = a4\n 22310: u8 [a0 + 0x10] = a3\n 22313: a3 = a2 >> 0x38\n 22316: u8 [a0 + 0xf] = a3\n 22319: a3 = a2 >> 0x30\n 22322: u8 [a0 + 0xe] = a3\n 22325: a3 = a2 >> 0x28\n 22328: u8 [a0 + 0xd] = a3\n 22331: a3 = a2 >> 0x20\n 22334: u8 [a0 + 0xc] = a3\n 22337: a3 = a2 >> 0x18\n 22340: u8 [a0 + 0xb] = a3\n 22343: a3 = a2 >> 0x10\n 22346: u8 [a0 + 0xa] = a3\n 22349: a3 = a2 >> 0x8\n 22352: u8 [a0 + 0x9] = a3\n 22355: u8 [a0 + 0x8] = a2\n 22358: a2 = a1 >> 0x38\n 22361: u8 [a0 + 0x7] = a2\n 22364: a2 = a1 >> 0x30\n 22367: u8 [a0 + 0x6] = a2\n 22370: a2 = a1 >> 0x28\n 22373: u8 [a0 + 0x5] = a2\n 22376: a2 = a1 >> 0x20\n 22379: u8 [a0 + 0x4] = a2\n 22382: a2 = a1 >> 0x18\n 22385: u8 [a0 + 0x3] = a2\n 22388: a2 = a1 >> 0x10\n 22391: u8 [a0 + 0x2] = a2\n 22394: a2 = a1 >> 0x8\n 22397: u8 [a0 + 0x1] = a2\n 22400: u8 [a0] = a1\n 22402: a0 = 0xe0\n 22406: a1 = 0x20\n 22409: ra = 234, jump @0\n      : @297 [@dyn 117] (gas: 83)\n 22415: a1 = u64 [sp + 0x90]\n 22419: a1 = reverse a1\n 22421: a2 = u64 [sp + 0x98]\n 22425: a2 = reverse a2\n 22427: a3 = u64 [sp + 0xa0]\n 22431: a3 = reverse a3\n 22433: a4 = u64 [sp + 0xa8]\n 22437: a4 = reverse a4\n 22439: a5 = a4 >> 0x38\n 22442: u8 [a0 + 0x1f] = a5\n 22445: a5 = a4 >> 0x30\n 22448: u8 [a0 + 0x1e] = a5\n 22451: a5 = a4 >> 0x28\n 22454: u8 [a0 + 0x1d] = a5\n 22457: a5 = a4 >> 0x20\n 22460: u8 [a0 + 0x1c] = a5\n 22463: a5 = a4 >> 0x18\n 22466: u8 [a0 + 0x1b] = a5\n 22469: a5 = a4 >> 0x10\n 22472: u8 [a0 + 0x1a] = a5\n 22475: a5 = a4 >> 0x8\n 22478: u8 [a0 + 0x19] = a5\n 22481: u8 [a0 + 0x18] = a4\n 22484: a4 = a3 >> 0x38\n 22487: u8 [a0 + 0x17] = a4\n 22490: a4 = a3 >> 0x30\n 22493: u8 [a0 + 0x16] = a4\n 22496: a4 = a3 >> 0x28\n 22499: u8 [a0 + 0x15] = a4\n 22502: a4 = a3 >> 0x20\n 22505: u8 [a0 + 0x14] = a4\n 22508: a4 = a3 >> 0x18\n 22511: u8 [a0 + 0x13] = a4\n 22514: a4 = a3 >> 0x10\n 22517: u8 [a0 + 0x12] = a4\n 22520: a4 = a3 >> 0x8\n 22523: u8 [a0 + 0x11] = a4\n 22526: u8 [a0 + 0x10] = a3\n 22529: a3 = a2 >> 0x38\n 22532: u8 [a0 + 0xf] = a3\n 22535: a3 = a2 >> 0x30\n 22538: u8 [a0 + 0xe] = a3\n 22541: a3 = a2 >> 0x28\n 22544: u8 [a0 + 0xd] = a3\n 22547: a3 = a2 >> 0x20\n 22550: u8 [a0 + 0xc] = a3\n 22553: a3 = a2 >> 0x18\n 22556: u8 [a0 + 0xb] = a3\n 22559: a3 = a2 >> 0x10\n 22562: u8 [a0 + 0xa] = a3\n 22565: a3 = a2 >> 0x8\n 22568: u8 [a0 + 0x9] = a3\n 22571: u8 [a0 + 0x8] = a2\n 22574: a2 = a1 >> 0x38\n 22577: u8 [a0 + 0x7] = a2\n 22580: a2 = a1 >> 0x30\n 22583: u8 [a0 + 0x6] = a2\n 22586: a2 = a1 >> 0x28\n 22589: u8 [a0 + 0x5] = a2\n 22592: a2 = a1 >> 0x20\n 22595: u8 [a0 + 0x4] = a2\n 22598: a2 = a1 >> 0x18\n 22601: u8 [a0 + 0x3] = a2\n 22604: a2 = a1 >> 0x10\n 22607: u8 [a0 + 0x2] = a2\n 22610: a2 = a1 >> 0x8\n 22613: u8 [a0 + 0x1] = a2\n 22616: u8 [a0] = a1\n 22618: a0 = u64 [sp + 0x78]\n 22621: u64 [sp + 0x278] = a0\n 22625: a0 = u64 [sp + 0x80]\n 22629: u64 [sp + 0x270] = a0\n 22633: a0 = u64 [sp + 0x88]\n 22637: u64 [sp + 0x268] = a0\n 22641: a0 = u64 [sp + 0xb0]\n 22645: u64 [sp + 0x260] = a0\n 22649: u64 [sp + 664] = 0\n 22653: u64 [sp + 656] = 0\n 22657: u64 [sp + 648] = 0\n 22661: a0 = sp + 0x280\n 22665: a1 = sp + 0x260\n 22669: u64 [sp + 640] = 0x1\n 22674: ra = 236, jump @246\n      : @298 [@dyn 118] (gas: 52)\n 22680: u64 [sp + 728] = 0\n 22684: u64 [sp + 720] = 0\n 22688: u64 [sp + 712] = 0\n 22692: s1 = 0x2\n 22695: u64 [sp + 0x2c0] = s1\n 22699: u64 [sp + 760] = 0\n 22703: u64 [sp + 752] = 0\n 22707: u64 [sp + 744] = 0\n 22711: u64 [sp + 736] = 0\n 22715: u32 [sp + 672] = 0x20\n 22720: i32 a1 = sp + 0x2c0\n 22724: i32 a3 = sp + 0x2e0\n 22728: i32 a4 = sp + 0x2a0\n 22732: a2 = 0xffffffffffffffff\n 22735: a0 = 0\n 22737: ecalli 8 // 'get_storage'\n 22739: a0 = u32 [sp + 0x2f4]\n 22743: a0 = a0 << 0x20\n 22746: a1 = u64 [sp + 0x2f8]\n 22750: a2 = u64 [sp + 0x60]\n 22753: a0 = a0 | a2\n 22756: u64 [sp + 728] = 0\n 22760: u64 [sp + 720] = 0\n 22764: u64 [sp + 712] = 0\n 22768: u64 [sp + 0x2c0] = s1\n 22772: u64 [sp + 0x2f8] = a1\n 22776: u64 [sp + 0x2f0] = a0\n 22780: a0 = u64 [sp + 0x68]\n 22783: u64 [sp + 0x2e8] = a0\n 22787: a0 = u64 [sp + 0x70]\n 22790: u64 [sp + 0x2e0] = a0\n 22794: i32 a1 = sp + 0x2c0\n 22798: i32 a3 = sp + 0x2e0\n 22802: a2 = 0xffffffffffffffff\n 22805: a4 = 0x20\n 22808: a0 = 0\n 22810: ecalli 16 // 'set_storage'\n 22812: a0 = u64 [sp + 0x40]\n 22815: u64 [sp + 0x238] = a0\n 22819: a0 = u64 [sp + 0x48]\n 22822: u64 [sp + 0x230] = a0\n 22826: a0 = u64 [sp + 0x50]\n 22829: u64 [sp + 0x228] = a0\n 22833: a0 = u64 [sp + 0x58]\n 22836: u64 [sp + 0x220] = a0\n 22840: u64 [sp + 600] = 0\n 22844: u64 [sp + 592] = 0\n 22848: u64 [sp + 584] = 0\n 22852: a0 = sp + 0x240\n 22856: a1 = sp + 0x220\n 22860: u64 [sp + 576] = 0\n 22864: ra = 238, jump @246\n      : @299 [@dyn 119] (gas: 6)\n 22870: sp = s0 + 0xfffffffffffffce0\n 22874: ra = u64 [sp + 0x318]\n 22878: s0 = u64 [sp + 0x310]\n 22882: s1 = u64 [sp + 0x308]\n 22886: sp = sp + 0x320\n 22890: ret\n      : @300 (gas: 3)\n 22892: a0 = 0x40\n 22895: a1 = 0x20\n 22898: ra = 240, jump @0\n      : @301 [@dyn 120] (gas: 103)\n 22904: a1 = u8 [a0 + 0x11]\n 22907: a2 = u8 [a0 + 0x10]\n 22910: a3 = u8 [a0 + 0x12]\n 22913: a4 = u8 [a0 + 0x13]\n 22916: a1 = a1 << 0x8\n 22919: a1 = a1 | a2\n 22922: a3 = a3 << 0x10\n 22925: a4 = a4 << 0x18\n 22928: a3 = a3 | a4\n 22931: a1 = a1 | a3\n 22934: a2 = u8 [a0 + 0x15]\n 22937: a3 = u8 [a0 + 0x14]\n 22940: a4 = u8 [a0 + 0x16]\n 22943: a5 = u8 [a0 + 0x17]\n 22946: a2 = a2 << 0x8\n 22949: a2 = a2 | a3\n 22952: a4 = a4 << 0x10\n 22955: a5 = a5 << 0x18\n 22958: a4 = a4 | a5\n 22961: a2 = a2 | a4\n 22964: a2 = a2 << 0x20\n 22967: t0 = a2 | a1\n 22970: a2 = u8 [a0 + 0x1]\n 22973: a3 = u8 [a0]\n 22975: a4 = u8 [a0 + 0x2]\n 22978: a5 = u8 [a0 + 0x3]\n 22981: a2 = a2 << 0x8\n 22984: a2 = a2 | a3\n 22987: a4 = a4 << 0x10\n 22990: a5 = a5 << 0x18\n 22993: a4 = a4 | a5\n 22996: a2 = a2 | a4\n 22999: a3 = u8 [a0 + 0x5]\n 23002: a4 = u8 [a0 + 0x4]\n 23005: a5 = u8 [a0 + 0x6]\n 23008: s1 = u8 [a0 + 0x7]\n 23011: a3 = a3 << 0x8\n 23014: a3 = a3 | a4\n 23017: a5 = a5 << 0x10\n 23020: s1 = s1 << 0x18\n 23023: a5 = a5 | s1\n 23026: a3 = a3 | a5\n 23029: a3 = a3 << 0x20\n 23032: a2 = a2 | a3\n 23035: a3 = u8 [a0 + 0x19]\n 23038: a4 = u8 [a0 + 0x18]\n 23041: a5 = u8 [a0 + 0x1a]\n 23044: s1 = u8 [a0 + 0x1b]\n 23047: a3 = a3 << 0x8\n 23050: a3 = a3 | a4\n 23053: a5 = a5 << 0x10\n 23056: s1 = s1 << 0x18\n 23059: a5 = a5 | s1\n 23062: a3 = a3 | a5\n 23065: a4 = u8 [a0 + 0x1d]\n 23068: a5 = u8 [a0 + 0x1c]\n 23071: s1 = u8 [a0 + 0x1e]\n 23074: a1 = u8 [a0 + 0x1f]\n 23077: a4 = a4 << 0x8\n 23080: a4 = a4 | a5\n 23083: s1 = s1 << 0x10\n 23086: a1 = a1 << 0x18\n 23089: a1 = a1 | s1\n 23092: a1 = a1 | a4\n 23095: a1 = a1 << 0x20\n 23098: a3 = a3 | a1\n 23101: a1 = u8 [a0 + 0x9]\n 23104: a4 = u8 [a0 + 0x8]\n 23107: a5 = u8 [a0 + 0xa]\n 23110: s1 = u8 [a0 + 0xb]\n 23113: a1 = a1 << 0x8\n 23116: a1 = a1 | a4\n 23119: a5 = a5 << 0x10\n 23122: s1 = s1 << 0x18\n 23125: a5 = a5 | s1\n 23128: a1 = a1 | a5\n 23131: a4 = u8 [a0 + 0xd]\n 23134: a5 = u8 [a0 + 0xc]\n 23137: s1 = u8 [a0 + 0xe]\n 23140: a0 = u8 [a0 + 0xf]\n 23143: a4 = a4 << 0x8\n 23146: a4 = a4 | a5\n 23149: s1 = s1 << 0x10\n 23152: a0 = a0 << 0x18\n 23155: a0 = a0 | s1\n 23158: a0 = a0 | a4\n 23161: a0 = a0 << 0x20\n 23164: a0 = a0 | a1\n 23167: s1 = reverse a0\n 23169: a1 = reverse a3\n 23171: a2 = reverse a2\n 23173: a0 = reverse t0\n 23175: u64 [sp + 0xd8] = a0\n 23179: u64 [sp + 0xd0] = a2\n 23183: a0 = a0 | a2\n 23186: a2 = a1\n 23188: a1 = a1 | s1\n 23191: a1 = a1 | a0\n 23194: a1 = a1 >> 0x20\n 23197: a0 = a0 | s1\n 23200: a0 = a0 << 0x20\n 23203: a0 = a0 | a1\n 23206: jump @326 if a0 != 0\n      : @302 (gas: 5)\n 23210: u64 [sp + 0xc8] = a2\n 23214: i32 a0 = a2 + 0\n 23216: a1 = 0x20\n 23219: u64 [sp + 0xc0] = a0\n 23223: ra = 242, jump @0\n      : @303 [@dyn 121] (gas: 50)\n 23229: u8 [a0 + 31] = 0\n 23232: u8 [a0 + 30] = 0\n 23235: u8 [a0 + 29] = 0\n 23238: u8 [a0 + 28] = 0\n 23241: u8 [a0 + 27] = 0\n 23244: u8 [a0 + 26] = 0\n 23247: u8 [a0 + 25] = 0\n 23250: u8 [a0 + 24] = 0\n 23253: u8 [a0 + 23] = 0\n 23256: u8 [a0 + 22] = 0\n 23259: u8 [a0 + 21] = 0\n 23262: u8 [a0 + 20] = 0\n 23265: u8 [a0 + 19] = 0\n 23268: u8 [a0 + 18] = 0\n 23271: u8 [a0 + 17] = 0\n 23274: u8 [a0 + 16] = 0\n 23277: u8 [a0 + 15] = 0\n 23280: u8 [a0 + 14] = 0\n 23283: u8 [a0 + 13] = 0\n 23286: u8 [a0 + 12] = 0\n 23289: u8 [a0 + 11] = 0\n 23292: u8 [a0 + 10] = 0\n 23295: u8 [a0 + 9] = 0\n 23298: u8 [a0 + 8] = 0\n 23301: u8 [a0 + 7] = 0\n 23304: u8 [a0 + 6] = 0\n 23307: u8 [a0 + 5] = 0\n 23310: u8 [a0 + 4] = 0\n 23313: u8 [a0 + 3] = 0xa0\n 23318: u8 [a0 + 2] = 0x79\n 23322: u8 [a0 + 1] = 0xc3\n 23327: u8 [a0 + 0] = 0x8\n 23330: a1 = u64 [sp + 0xc8]\n 23334: a0 = a1 + 0x4\n 23337: a1 = a0 <u a1\n 23340: a3 = u64 [sp + 0xd8]\n 23344: a2 = a3 + a1\n 23347: a3 = a2 <u a3\n 23350: a3 = a1 if a1 == 0\n 23353: a3 = a3 + s1\n 23356: a1 = a3 <u s1\n 23359: a4 = u64 [sp + 0xd0]\n 23363: a4 = a4 + a1\n 23366: u64 [sp + 0xe8] = a2\n 23370: u64 [sp + 0xe0] = a0\n 23374: u64 [sp + 0xf0] = a3\n 23378: a0 = sp + 0x100\n 23382: a1 = sp + 0xe0\n 23386: u64 [sp + 0xf8] = a4\n 23390: ra = 244, jump @195\n      : @304 [@dyn 122] (gas: 5)\n 23396: a0 = u64 [sp + 0x108]\n 23400: t0 = u64 [sp + 0x118]\n 23404: t1 = u64 [sp + 0x100]\n 23408: a3 = u64 [sp + 0x110]\n 23412: jump @325\n      : @305 (gas: 3)\n 23415: a0 = 0x40\n 23418: a1 = 0x20\n 23421: ra = 246, jump @0\n      : @306 [@dyn 123] (gas: 103)\n 23427: a1 = u8 [a0 + 0x11]\n 23430: a2 = u8 [a0 + 0x10]\n 23433: a3 = u8 [a0 + 0x12]\n 23436: a4 = u8 [a0 + 0x13]\n 23439: a1 = a1 << 0x8\n 23442: a1 = a1 | a2\n 23445: a3 = a3 << 0x10\n 23448: a4 = a4 << 0x18\n 23451: a3 = a3 | a4\n 23454: a1 = a1 | a3\n 23457: a2 = u8 [a0 + 0x15]\n 23460: a3 = u8 [a0 + 0x14]\n 23463: a4 = u8 [a0 + 0x16]\n 23466: a5 = u8 [a0 + 0x17]\n 23469: a2 = a2 << 0x8\n 23472: a2 = a2 | a3\n 23475: a4 = a4 << 0x10\n 23478: a5 = a5 << 0x18\n 23481: a4 = a4 | a5\n 23484: a2 = a2 | a4\n 23487: a2 = a2 << 0x20\n 23490: t0 = a2 | a1\n 23493: a2 = u8 [a0 + 0x1]\n 23496: a3 = u8 [a0]\n 23498: a4 = u8 [a0 + 0x2]\n 23501: a5 = u8 [a0 + 0x3]\n 23504: a2 = a2 << 0x8\n 23507: a2 = a2 | a3\n 23510: a4 = a4 << 0x10\n 23513: a5 = a5 << 0x18\n 23516: a4 = a4 | a5\n 23519: a2 = a2 | a4\n 23522: a3 = u8 [a0 + 0x5]\n 23525: a4 = u8 [a0 + 0x4]\n 23528: a5 = u8 [a0 + 0x6]\n 23531: s1 = u8 [a0 + 0x7]\n 23534: a3 = a3 << 0x8\n 23537: a3 = a3 | a4\n 23540: a5 = a5 << 0x10\n 23543: s1 = s1 << 0x18\n 23546: a5 = a5 | s1\n 23549: a3 = a3 | a5\n 23552: a3 = a3 << 0x20\n 23555: a2 = a2 | a3\n 23558: a3 = u8 [a0 + 0x19]\n 23561: a4 = u8 [a0 + 0x18]\n 23564: a5 = u8 [a0 + 0x1a]\n 23567: s1 = u8 [a0 + 0x1b]\n 23570: a3 = a3 << 0x8\n 23573: a3 = a3 | a4\n 23576: a5 = a5 << 0x10\n 23579: s1 = s1 << 0x18\n 23582: a5 = a5 | s1\n 23585: a3 = a3 | a5\n 23588: a4 = u8 [a0 + 0x1d]\n 23591: a5 = u8 [a0 + 0x1c]\n 23594: s1 = u8 [a0 + 0x1e]\n 23597: a1 = u8 [a0 + 0x1f]\n 23600: a4 = a4 << 0x8\n 23603: a4 = a4 | a5\n 23606: s1 = s1 << 0x10\n 23609: a1 = a1 << 0x18\n 23612: a1 = a1 | s1\n 23615: a1 = a1 | a4\n 23618: a1 = a1 << 0x20\n 23621: a3 = a3 | a1\n 23624: a1 = u8 [a0 + 0x9]\n 23627: a4 = u8 [a0 + 0x8]\n 23630: a5 = u8 [a0 + 0xa]\n 23633: s1 = u8 [a0 + 0xb]\n 23636: a1 = a1 << 0x8\n 23639: a1 = a1 | a4\n 23642: a5 = a5 << 0x10\n 23645: s1 = s1 << 0x18\n 23648: a5 = a5 | s1\n 23651: a1 = a1 | a5\n 23654: a4 = u8 [a0 + 0xd]\n 23657: a5 = u8 [a0 + 0xc]\n 23660: s1 = u8 [a0 + 0xe]\n 23663: a0 = u8 [a0 + 0xf]\n 23666: a4 = a4 << 0x8\n 23669: a4 = a4 | a5\n 23672: s1 = s1 << 0x10\n 23675: a0 = a0 << 0x18\n 23678: a0 = a0 | s1\n 23681: a0 = a0 | a4\n 23684: a0 = a0 << 0x20\n 23687: a0 = a0 | a1\n 23690: s1 = reverse a0\n 23692: a1 = reverse a3\n 23694: a2 = reverse a2\n 23696: a0 = reverse t0\n 23698: u64 [sp + 0xd8] = a0\n 23702: u64 [sp + 0xd0] = a2\n 23706: a0 = a0 | a2\n 23709: a2 = a1\n 23711: a1 = a1 | s1\n 23714: a1 = a1 | a0\n 23717: a1 = a1 >> 0x20\n 23720: a0 = a0 | s1\n 23723: a0 = a0 << 0x20\n 23726: a0 = a0 | a1\n 23729: jump @326 if a0 != 0\n      : @307 (gas: 5)\n 23733: u64 [sp + 0xc8] = a2\n 23737: i32 a0 = a2 + 0\n 23739: a1 = 0x20\n 23742: u64 [sp + 0xc0] = a0\n 23746: ra = 248, jump @0\n      : @308 [@dyn 124] (gas: 50)\n 23752: u8 [a0 + 31] = 0\n 23755: u8 [a0 + 30] = 0\n 23758: u8 [a0 + 29] = 0\n 23761: u8 [a0 + 28] = 0\n 23764: u8 [a0 + 27] = 0\n 23767: u8 [a0 + 26] = 0\n 23770: u8 [a0 + 25] = 0\n 23773: u8 [a0 + 24] = 0\n 23776: u8 [a0 + 23] = 0\n 23779: u8 [a0 + 22] = 0\n 23782: u8 [a0 + 21] = 0\n 23785: u8 [a0 + 20] = 0\n 23788: u8 [a0 + 19] = 0\n 23791: u8 [a0 + 18] = 0\n 23794: u8 [a0 + 17] = 0\n 23797: u8 [a0 + 16] = 0\n 23800: u8 [a0 + 15] = 0\n 23803: u8 [a0 + 14] = 0\n 23806: u8 [a0 + 13] = 0\n 23809: u8 [a0 + 12] = 0\n 23812: u8 [a0 + 11] = 0\n 23815: u8 [a0 + 10] = 0\n 23818: u8 [a0 + 9] = 0\n 23821: u8 [a0 + 8] = 0\n 23824: u8 [a0 + 7] = 0\n 23827: u8 [a0 + 6] = 0\n 23830: u8 [a0 + 5] = 0\n 23833: u8 [a0 + 4] = 0\n 23836: u8 [a0 + 3] = 0xa0\n 23841: u8 [a0 + 2] = 0x79\n 23845: u8 [a0 + 1] = 0xc3\n 23850: u8 [a0 + 0] = 0x8\n 23853: a1 = u64 [sp + 0xc8]\n 23857: a0 = a1 + 0x4\n 23860: a1 = a0 <u a1\n 23863: a3 = u64 [sp + 0xd8]\n 23867: a2 = a3 + a1\n 23870: a3 = a2 <u a3\n 23873: a3 = a1 if a1 == 0\n 23876: a3 = a3 + s1\n 23879: a1 = a3 <u s1\n 23882: a4 = u64 [sp + 0xd0]\n 23886: a4 = a4 + a1\n 23889: u64 [sp + 0x128] = a2\n 23893: u64 [sp + 0x120] = a0\n 23897: u64 [sp + 0x130] = a3\n 23901: a0 = sp + 0x140\n 23905: a1 = sp + 0x120\n 23909: u64 [sp + 0x138] = a4\n 23913: ra = 250, jump @203\n      : @309 [@dyn 125] (gas: 5)\n 23919: a0 = u64 [sp + 0x148]\n 23923: t0 = u64 [sp + 0x158]\n 23927: t1 = u64 [sp + 0x140]\n 23931: a3 = u64 [sp + 0x150]\n 23935: jump @325\n      : @310 (gas: 3)\n 23938: a0 = 0x40\n 23941: a1 = 0x20\n 23944: ra = 252, jump @0\n      : @311 [@dyn 126] (gas: 103)\n 23950: a1 = u8 [a0 + 0x11]\n 23953: a2 = u8 [a0 + 0x10]\n 23956: a3 = u8 [a0 + 0x12]\n 23959: a4 = u8 [a0 + 0x13]\n 23962: a1 = a1 << 0x8\n 23965: a1 = a1 | a2\n 23968: a3 = a3 << 0x10\n 23971: a4 = a4 << 0x18\n 23974: a3 = a3 | a4\n 23977: a1 = a1 | a3\n 23980: a2 = u8 [a0 + 0x15]\n 23983: a3 = u8 [a0 + 0x14]\n 23986: a4 = u8 [a0 + 0x16]\n 23989: a5 = u8 [a0 + 0x17]\n 23992: a2 = a2 << 0x8\n 23995: a2 = a2 | a3\n 23998: a4 = a4 << 0x10\n 24001: a5 = a5 << 0x18\n 24004: a4 = a4 | a5\n 24007: a2 = a2 | a4\n 24010: a2 = a2 << 0x20\n 24013: t0 = a2 | a1\n 24016: a2 = u8 [a0 + 0x1]\n 24019: a3 = u8 [a0]\n 24021: a4 = u8 [a0 + 0x2]\n 24024: a5 = u8 [a0 + 0x3]\n 24027: a2 = a2 << 0x8\n 24030: a2 = a2 | a3\n 24033: a4 = a4 << 0x10\n 24036: a5 = a5 << 0x18\n 24039: a4 = a4 | a5\n 24042: a2 = a2 | a4\n 24045: a3 = u8 [a0 + 0x5]\n 24048: a4 = u8 [a0 + 0x4]\n 24051: a5 = u8 [a0 + 0x6]\n 24054: s1 = u8 [a0 + 0x7]\n 24057: a3 = a3 << 0x8\n 24060: a3 = a3 | a4\n 24063: a5 = a5 << 0x10\n 24066: s1 = s1 << 0x18\n 24069: a5 = a5 | s1\n 24072: a3 = a3 | a5\n 24075: a3 = a3 << 0x20\n 24078: a2 = a2 | a3\n 24081: a3 = u8 [a0 + 0x19]\n 24084: a4 = u8 [a0 + 0x18]\n 24087: a5 = u8 [a0 + 0x1a]\n 24090: s1 = u8 [a0 + 0x1b]\n 24093: a3 = a3 << 0x8\n 24096: a3 = a3 | a4\n 24099: a5 = a5 << 0x10\n 24102: s1 = s1 << 0x18\n 24105: a5 = a5 | s1\n 24108: a3 = a3 | a5\n 24111: a4 = u8 [a0 + 0x1d]\n 24114: a5 = u8 [a0 + 0x1c]\n 24117: s1 = u8 [a0 + 0x1e]\n 24120: a1 = u8 [a0 + 0x1f]\n 24123: a4 = a4 << 0x8\n 24126: a4 = a4 | a5\n 24129: s1 = s1 << 0x10\n 24132: a1 = a1 << 0x18\n 24135: a1 = a1 | s1\n 24138: a1 = a1 | a4\n 24141: a1 = a1 << 0x20\n 24144: a3 = a3 | a1\n 24147: a1 = u8 [a0 + 0x9]\n 24150: a4 = u8 [a0 + 0x8]\n 24153: a5 = u8 [a0 + 0xa]\n 24156: s1 = u8 [a0 + 0xb]\n 24159: a1 = a1 << 0x8\n 24162: a1 = a1 | a4\n 24165: a5 = a5 << 0x10\n 24168: s1 = s1 << 0x18\n 24171: a5 = a5 | s1\n 24174: a1 = a1 | a5\n 24177: a4 = u8 [a0 + 0xd]\n 24180: a5 = u8 [a0 + 0xc]\n 24183: s1 = u8 [a0 + 0xe]\n 24186: a0 = u8 [a0 + 0xf]\n 24189: a4 = a4 << 0x8\n 24192: a4 = a4 | a5\n 24195: s1 = s1 << 0x10\n 24198: a0 = a0 << 0x18\n 24201: a0 = a0 | s1\n 24204: a0 = a0 | a4\n 24207: a0 = a0 << 0x20\n 24210: a0 = a0 | a1\n 24213: s1 = reverse a0\n 24215: a1 = reverse a3\n 24217: a2 = reverse a2\n 24219: a0 = reverse t0\n 24221: u64 [sp + 0xd8] = a0\n 24225: u64 [sp + 0xd0] = a2\n 24229: a0 = a0 | a2\n 24232: a2 = a1\n 24234: a1 = a1 | s1\n 24237: a1 = a1 | a0\n 24240: a1 = a1 >> 0x20\n 24243: a0 = a0 | s1\n 24246: a0 = a0 << 0x20\n 24249: a0 = a0 | a1\n 24252: jump @326 if a0 != 0\n      : @312 (gas: 5)\n 24256: u64 [sp + 0xc8] = a2\n 24260: i32 a0 = a2 + 0\n 24262: a1 = 0x20\n 24265: u64 [sp + 0xc0] = a0\n 24269: ra = 254, jump @0\n      : @313 [@dyn 127] (gas: 50)\n 24275: u8 [a0 + 31] = 0\n 24278: u8 [a0 + 30] = 0\n 24281: u8 [a0 + 29] = 0\n 24284: u8 [a0 + 28] = 0\n 24287: u8 [a0 + 27] = 0\n 24290: u8 [a0 + 26] = 0\n 24293: u8 [a0 + 25] = 0\n 24296: u8 [a0 + 24] = 0\n 24299: u8 [a0 + 23] = 0\n 24302: u8 [a0 + 22] = 0\n 24305: u8 [a0 + 21] = 0\n 24308: u8 [a0 + 20] = 0\n 24311: u8 [a0 + 19] = 0\n 24314: u8 [a0 + 18] = 0\n 24317: u8 [a0 + 17] = 0\n 24320: u8 [a0 + 16] = 0\n 24323: u8 [a0 + 15] = 0\n 24326: u8 [a0 + 14] = 0\n 24329: u8 [a0 + 13] = 0\n 24332: u8 [a0 + 12] = 0\n 24335: u8 [a0 + 11] = 0\n 24338: u8 [a0 + 10] = 0\n 24341: u8 [a0 + 9] = 0\n 24344: u8 [a0 + 8] = 0\n 24347: u8 [a0 + 7] = 0\n 24350: u8 [a0 + 6] = 0\n 24353: u8 [a0 + 5] = 0\n 24356: u8 [a0 + 4] = 0\n 24359: u8 [a0 + 3] = 0xa0\n 24364: u8 [a0 + 2] = 0x79\n 24368: u8 [a0 + 1] = 0xc3\n 24373: u8 [a0 + 0] = 0x8\n 24376: a1 = u64 [sp + 0xc8]\n 24380: a0 = a1 + 0x4\n 24383: a1 = a0 <u a1\n 24386: a3 = u64 [sp + 0xd8]\n 24390: a2 = a3 + a1\n 24393: a3 = a2 <u a3\n 24396: a3 = a1 if a1 == 0\n 24399: a3 = a3 + s1\n 24402: a1 = a3 <u s1\n 24405: a4 = u64 [sp + 0xd0]\n 24409: a4 = a4 + a1\n 24412: u64 [sp + 0x168] = a2\n 24416: u64 [sp + 0x160] = a0\n 24420: u64 [sp + 0x170] = a3\n 24424: a0 = sp + 0x180\n 24428: a1 = sp + 0x160\n 24432: u64 [sp + 0x178] = a4\n 24436: ra = 256, jump @211\n      : @314 [@dyn 128] (gas: 5)\n 24442: a0 = u64 [sp + 0x188]\n 24446: t0 = u64 [sp + 0x198]\n 24450: t1 = u64 [sp + 0x180]\n 24454: a3 = u64 [sp + 0x190]\n 24458: jump @325\n      : @315 (gas: 3)\n 24461: a0 = 0x40\n 24464: a1 = 0x20\n 24467: ra = 258, jump @0\n      : @316 [@dyn 129] (gas: 103)\n 24473: a1 = u8 [a0 + 0x11]\n 24476: a2 = u8 [a0 + 0x10]\n 24479: a3 = u8 [a0 + 0x12]\n 24482: a4 = u8 [a0 + 0x13]\n 24485: a1 = a1 << 0x8\n 24488: a1 = a1 | a2\n 24491: a3 = a3 << 0x10\n 24494: a4 = a4 << 0x18\n 24497: a3 = a3 | a4\n 24500: a1 = a1 | a3\n 24503: a2 = u8 [a0 + 0x15]\n 24506: a3 = u8 [a0 + 0x14]\n 24509: a4 = u8 [a0 + 0x16]\n 24512: a5 = u8 [a0 + 0x17]\n 24515: a2 = a2 << 0x8\n 24518: a2 = a2 | a3\n 24521: a4 = a4 << 0x10\n 24524: a5 = a5 << 0x18\n 24527: a4 = a4 | a5\n 24530: a2 = a2 | a4\n 24533: a2 = a2 << 0x20\n 24536: t0 = a2 | a1\n 24539: a2 = u8 [a0 + 0x1]\n 24542: a3 = u8 [a0]\n 24544: a4 = u8 [a0 + 0x2]\n 24547: a5 = u8 [a0 + 0x3]\n 24550: a2 = a2 << 0x8\n 24553: a2 = a2 | a3\n 24556: a4 = a4 << 0x10\n 24559: a5 = a5 << 0x18\n 24562: a4 = a4 | a5\n 24565: a2 = a2 | a4\n 24568: a3 = u8 [a0 + 0x5]\n 24571: a4 = u8 [a0 + 0x4]\n 24574: a5 = u8 [a0 + 0x6]\n 24577: s1 = u8 [a0 + 0x7]\n 24580: a3 = a3 << 0x8\n 24583: a3 = a3 | a4\n 24586: a5 = a5 << 0x10\n 24589: s1 = s1 << 0x18\n 24592: a5 = a5 | s1\n 24595: a3 = a3 | a5\n 24598: a3 = a3 << 0x20\n 24601: a2 = a2 | a3\n 24604: a3 = u8 [a0 + 0x19]\n 24607: a4 = u8 [a0 + 0x18]\n 24610: a5 = u8 [a0 + 0x1a]\n 24613: s1 = u8 [a0 + 0x1b]\n 24616: a3 = a3 << 0x8\n 24619: a3 = a3 | a4\n 24622: a5 = a5 << 0x10\n 24625: s1 = s1 << 0x18\n 24628: a5 = a5 | s1\n 24631: a3 = a3 | a5\n 24634: a4 = u8 [a0 + 0x1d]\n 24637: a5 = u8 [a0 + 0x1c]\n 24640: s1 = u8 [a0 + 0x1e]\n 24643: a1 = u8 [a0 + 0x1f]\n 24646: a4 = a4 << 0x8\n 24649: a4 = a4 | a5\n 24652: s1 = s1 << 0x10\n 24655: a1 = a1 << 0x18\n 24658: a1 = a1 | s1\n 24661: a1 = a1 | a4\n 24664: a1 = a1 << 0x20\n 24667: a3 = a3 | a1\n 24670: a1 = u8 [a0 + 0x9]\n 24673: a4 = u8 [a0 + 0x8]\n 24676: a5 = u8 [a0 + 0xa]\n 24679: s1 = u8 [a0 + 0xb]\n 24682: a1 = a1 << 0x8\n 24685: a1 = a1 | a4\n 24688: a5 = a5 << 0x10\n 24691: s1 = s1 << 0x18\n 24694: a5 = a5 | s1\n 24697: a1 = a1 | a5\n 24700: a4 = u8 [a0 + 0xd]\n 24703: a5 = u8 [a0 + 0xc]\n 24706: s1 = u8 [a0 + 0xe]\n 24709: a0 = u8 [a0 + 0xf]\n 24712: a4 = a4 << 0x8\n 24715: a4 = a4 | a5\n 24718: s1 = s1 << 0x10\n 24721: a0 = a0 << 0x18\n 24724: a0 = a0 | s1\n 24727: a0 = a0 | a4\n 24730: a0 = a0 << 0x20\n 24733: a0 = a0 | a1\n 24736: s1 = reverse a0\n 24738: a1 = reverse a3\n 24740: a2 = reverse a2\n 24742: a0 = reverse t0\n 24744: u64 [sp + 0xd8] = a0\n 24748: u64 [sp + 0xd0] = a2\n 24752: a0 = a0 | a2\n 24755: a2 = a1\n 24757: a1 = a1 | s1\n 24760: a1 = a1 | a0\n 24763: a1 = a1 >> 0x20\n 24766: a0 = a0 | s1\n 24769: a0 = a0 << 0x20\n 24772: a0 = a0 | a1\n 24775: jump @326 if a0 != 0\n      : @317 (gas: 5)\n 24779: u64 [sp + 0xc8] = a2\n 24783: i32 a0 = a2 + 0\n 24785: a1 = 0x20\n 24788: u64 [sp + 0xc0] = a0\n 24792: ra = 260, jump @0\n      : @318 [@dyn 130] (gas: 50)\n 24798: u8 [a0 + 31] = 0\n 24801: u8 [a0 + 30] = 0\n 24804: u8 [a0 + 29] = 0\n 24807: u8 [a0 + 28] = 0\n 24810: u8 [a0 + 27] = 0\n 24813: u8 [a0 + 26] = 0\n 24816: u8 [a0 + 25] = 0\n 24819: u8 [a0 + 24] = 0\n 24822: u8 [a0 + 23] = 0\n 24825: u8 [a0 + 22] = 0\n 24828: u8 [a0 + 21] = 0\n 24831: u8 [a0 + 20] = 0\n 24834: u8 [a0 + 19] = 0\n 24837: u8 [a0 + 18] = 0\n 24840: u8 [a0 + 17] = 0\n 24843: u8 [a0 + 16] = 0\n 24846: u8 [a0 + 15] = 0\n 24849: u8 [a0 + 14] = 0\n 24852: u8 [a0 + 13] = 0\n 24855: u8 [a0 + 12] = 0\n 24858: u8 [a0 + 11] = 0\n 24861: u8 [a0 + 10] = 0\n 24864: u8 [a0 + 9] = 0\n 24867: u8 [a0 + 8] = 0\n 24870: u8 [a0 + 7] = 0\n 24873: u8 [a0 + 6] = 0\n 24876: u8 [a0 + 5] = 0\n 24879: u8 [a0 + 4] = 0\n 24882: u8 [a0 + 3] = 0xa0\n 24887: u8 [a0 + 2] = 0x79\n 24891: u8 [a0 + 1] = 0xc3\n 24896: u8 [a0 + 0] = 0x8\n 24899: a1 = u64 [sp + 0xc8]\n 24903: a0 = a1 + 0x4\n 24906: a1 = a0 <u a1\n 24909: a3 = u64 [sp + 0xd8]\n 24913: a2 = a3 + a1\n 24916: a3 = a2 <u a3\n 24919: a3 = a1 if a1 == 0\n 24922: a3 = a3 + s1\n 24925: a1 = a3 <u s1\n 24928: a4 = u64 [sp + 0xd0]\n 24932: a4 = a4 + a1\n 24935: u64 [sp + 0x1a8] = a2\n 24939: u64 [sp + 0x1a0] = a0\n 24943: u64 [sp + 0x1b0] = a3\n 24947: a0 = sp + 0x1c0\n 24951: a1 = sp + 0x1a0\n 24955: u64 [sp + 0x1b8] = a4\n 24959: ra = 262, jump @219\n      : @319 [@dyn 131] (gas: 5)\n 24965: a0 = u64 [sp + 0x1c8]\n 24969: t0 = u64 [sp + 0x1d8]\n 24973: t1 = u64 [sp + 0x1c0]\n 24977: a3 = u64 [sp + 0x1d0]\n 24981: jump @325\n      : @320 (gas: 3)\n 24984: a0 = 0x40\n 24987: a1 = 0x20\n 24990: ra = 264, jump @0\n      : @321 [@dyn 132] (gas: 103)\n 24996: a1 = u8 [a0 + 0x11]\n 24999: a2 = u8 [a0 + 0x10]\n 25002: a3 = u8 [a0 + 0x12]\n 25005: a4 = u8 [a0 + 0x13]\n 25008: a1 = a1 << 0x8\n 25011: a1 = a1 | a2\n 25014: a3 = a3 << 0x10\n 25017: a4 = a4 << 0x18\n 25020: a3 = a3 | a4\n 25023: a1 = a1 | a3\n 25026: a2 = u8 [a0 + 0x15]\n 25029: a3 = u8 [a0 + 0x14]\n 25032: a4 = u8 [a0 + 0x16]\n 25035: a5 = u8 [a0 + 0x17]\n 25038: a2 = a2 << 0x8\n 25041: a2 = a2 | a3\n 25044: a4 = a4 << 0x10\n 25047: a5 = a5 << 0x18\n 25050: a4 = a4 | a5\n 25053: a2 = a2 | a4\n 25056: a2 = a2 << 0x20\n 25059: t0 = a2 | a1\n 25062: a2 = u8 [a0 + 0x1]\n 25065: a3 = u8 [a0]\n 25067: a4 = u8 [a0 + 0x2]\n 25070: a5 = u8 [a0 + 0x3]\n 25073: a2 = a2 << 0x8\n 25076: a2 = a2 | a3\n 25079: a4 = a4 << 0x10\n 25082: a5 = a5 << 0x18\n 25085: a4 = a4 | a5\n 25088: a2 = a2 | a4\n 25091: a3 = u8 [a0 + 0x5]\n 25094: a4 = u8 [a0 + 0x4]\n 25097: a5 = u8 [a0 + 0x6]\n 25100: s1 = u8 [a0 + 0x7]\n 25103: a3 = a3 << 0x8\n 25106: a3 = a3 | a4\n 25109: a5 = a5 << 0x10\n 25112: s1 = s1 << 0x18\n 25115: a5 = a5 | s1\n 25118: a3 = a3 | a5\n 25121: a3 = a3 << 0x20\n 25124: a2 = a2 | a3\n 25127: a3 = u8 [a0 + 0x19]\n 25130: a4 = u8 [a0 + 0x18]\n 25133: a5 = u8 [a0 + 0x1a]\n 25136: s1 = u8 [a0 + 0x1b]\n 25139: a3 = a3 << 0x8\n 25142: a3 = a3 | a4\n 25145: a5 = a5 << 0x10\n 25148: s1 = s1 << 0x18\n 25151: a5 = a5 | s1\n 25154: a3 = a3 | a5\n 25157: a4 = u8 [a0 + 0x1d]\n 25160: a5 = u8 [a0 + 0x1c]\n 25163: s1 = u8 [a0 + 0x1e]\n 25166: a1 = u8 [a0 + 0x1f]\n 25169: a4 = a4 << 0x8\n 25172: a4 = a4 | a5\n 25175: s1 = s1 << 0x10\n 25178: a1 = a1 << 0x18\n 25181: a1 = a1 | s1\n 25184: a1 = a1 | a4\n 25187: a1 = a1 << 0x20\n 25190: a3 = a3 | a1\n 25193: a1 = u8 [a0 + 0x9]\n 25196: a4 = u8 [a0 + 0x8]\n 25199: a5 = u8 [a0 + 0xa]\n 25202: s1 = u8 [a0 + 0xb]\n 25205: a1 = a1 << 0x8\n 25208: a1 = a1 | a4\n 25211: a5 = a5 << 0x10\n 25214: s1 = s1 << 0x18\n 25217: a5 = a5 | s1\n 25220: a1 = a1 | a5\n 25223: a4 = u8 [a0 + 0xd]\n 25226: a5 = u8 [a0 + 0xc]\n 25229: s1 = u8 [a0 + 0xe]\n 25232: a0 = u8 [a0 + 0xf]\n 25235: a4 = a4 << 0x8\n 25238: a4 = a4 | a5\n 25241: s1 = s1 << 0x10\n 25244: a0 = a0 << 0x18\n 25247: a0 = a0 | s1\n 25250: a0 = a0 | a4\n 25253: a0 = a0 << 0x20\n 25256: a0 = a0 | a1\n 25259: s1 = reverse a0\n 25261: a1 = reverse a3\n 25263: a2 = reverse a2\n 25265: a0 = reverse t0\n 25267: u64 [sp + 0xd8] = a0\n 25271: u64 [sp + 0xd0] = a2\n 25275: a0 = a0 | a2\n 25278: a2 = a1\n 25280: a1 = a1 | s1\n 25283: a1 = a1 | a0\n 25286: a1 = a1 >> 0x20\n 25289: a0 = a0 | s1\n 25292: a0 = a0 << 0x20\n 25295: a0 = a0 | a1\n 25298: jump @326 if a0 != 0\n      : @322 (gas: 5)\n 25302: u64 [sp + 0xc8] = a2\n 25306: i32 a0 = a2 + 0\n 25308: a1 = 0x20\n 25311: u64 [sp + 0xc0] = a0\n 25315: ra = 266, jump @0\n      : @323 [@dyn 133] (gas: 50)\n 25321: u8 [a0 + 31] = 0\n 25324: u8 [a0 + 30] = 0\n 25327: u8 [a0 + 29] = 0\n 25330: u8 [a0 + 28] = 0\n 25333: u8 [a0 + 27] = 0\n 25336: u8 [a0 + 26] = 0\n 25339: u8 [a0 + 25] = 0\n 25342: u8 [a0 + 24] = 0\n 25345: u8 [a0 + 23] = 0\n 25348: u8 [a0 + 22] = 0\n 25351: u8 [a0 + 21] = 0\n 25354: u8 [a0 + 20] = 0\n 25357: u8 [a0 + 19] = 0\n 25360: u8 [a0 + 18] = 0\n 25363: u8 [a0 + 17] = 0\n 25366: u8 [a0 + 16] = 0\n 25369: u8 [a0 + 15] = 0\n 25372: u8 [a0 + 14] = 0\n 25375: u8 [a0 + 13] = 0\n 25378: u8 [a0 + 12] = 0\n 25381: u8 [a0 + 11] = 0\n 25384: u8 [a0 + 10] = 0\n 25387: u8 [a0 + 9] = 0\n 25390: u8 [a0 + 8] = 0\n 25393: u8 [a0 + 7] = 0\n 25396: u8 [a0 + 6] = 0\n 25399: u8 [a0 + 5] = 0\n 25402: u8 [a0 + 4] = 0\n 25405: u8 [a0 + 3] = 0xa0\n 25410: u8 [a0 + 2] = 0x79\n 25414: u8 [a0 + 1] = 0xc3\n 25419: u8 [a0 + 0] = 0x8\n 25422: a1 = u64 [sp + 0xc8]\n 25426: a0 = a1 + 0x4\n 25429: a1 = a0 <u a1\n 25432: a3 = u64 [sp + 0xd8]\n 25436: a2 = a3 + a1\n 25439: a3 = a2 <u a3\n 25442: a3 = a1 if a1 == 0\n 25445: a3 = a3 + s1\n 25448: a1 = a3 <u s1\n 25451: a4 = u64 [sp + 0xd0]\n 25455: a4 = a4 + a1\n 25458: u64 [sp + 0x1e8] = a2\n 25462: u64 [sp + 0x1e0] = a0\n 25466: u64 [sp + 0x1f0] = a3\n 25470: a0 = sp + 0x200\n 25474: a1 = sp + 0x1e0\n 25478: u64 [sp + 0x1f8] = a4\n 25482: ra = 268, jump @227\n      : @324 [@dyn 134] (gas: 5)\n 25488: a0 = u64 [sp + 0x208]\n 25492: t0 = u64 [sp + 0x218]\n 25496: t1 = u64 [sp + 0x200]\n 25500: a3 = u64 [sp + 0x210]\n 25504: fallthrough\n      : @325 (gas: 26)\n 25505: a1 = u64 [sp + 0xd8]\n 25509: a4 = a0 ^ a1\n 25512: a5 = a0 <u a1\n 25515: t2 = a1\n 25517: a2 = u64 [sp + 0xc8]\n 25521: a1 = t1 <u a2\n 25524: a5 = a1 if a4 == 0\n 25527: a4 = a3 - s1\n 25530: a3 = a3 <u s1\n 25533: s1 = u64 [sp + 0xd0]\n 25537: s1 = t0 - s1\n 25540: s1 = s1 - a3\n 25543: a3 = a4 <u a5\n 25546: s1 = s1 - a3\n 25549: a4 = a4 - a5\n 25552: a0 = a0 - t2\n 25555: a1 = a0 - a1\n 25558: a0 = t1 - a2\n 25561: a1 = a1 | s1\n 25564: a2 = a0 | a4\n 25567: a2 = a2 | a1\n 25570: a1 = a1 | a4\n 25573: a2 = a2 >> 0x20\n 25576: a1 = a1 << 0x20\n 25579: a1 = a1 | a2\n 25582: jump @327 if a1 == 0\n      : @326 (gas: 1)\n 25585: trap\n      : @327 (gas: 4)\n 25586: i32 s1 = a0 + 0\n 25588: a0 = u64 [sp + 0xc0]\n 25592: a1 = s1\n 25594: ra = 270, jump @0\n      : @328 [@dyn 135] (gas: 6)\n 25600: i32 a1 = a0 + 0\n 25602: a0 = 0x1\n 25605: a2 = s1\n 25607: ra = 0x110\n 25611: ecalli 14 // 'seal_return'\n 25613: fallthrough\n      : @329 [@dyn 136] (gas: 6)\n 25614: a1 = u32 [a1 + 0x1c]\n 25617: u64 [a0 + 24] = 0\n 25620: u64 [a0 + 16] = 0\n 25623: u64 [a0 + 8] = 0\n 25626: u64 [a0] = a1\n 25628: ret\n      : @330 (gas: 8)\n 25630: a0 = u64 [sp + 0x30]\n 25633: a1 = u64 [sp + 0x38]\n 25636: a2 = u64 [sp + 0x28]\n 25639: a3 = u64 [sp + 0x20]\n 25642: a1 = a1 | a2\n 25645: a0 = a0 | a3\n 25648: a0 = a0 | a1\n 25651: jump @338 if a0 != 0\n      : @331 (gas: 2)\n 25655: a0 = i32 [0x20078]\n 25660: jump @338 if a0 <=u 3\n      : @332 (gas: 3)\n 25665: s1 = 0x20070\n 25670: a0 = i32 [0x20070]\n 25675: jump @335 if a0 == 0\n      : @333 (gas: 6)\n 25678: u64 [sp + 0x18] = a0\n 25681: a0 = 0x30080\n 25686: i32 a0 = a0 + 0\n 25688: i32 a1 = s1 + 0\n 25690: ecalli 7 // 'get_immutable_data'\n 25692: fallthrough\n      : @334 (gas: 4)\n 25693: a0 = i32 [0x20070]\n 25698: u32 [0x20070] = 0\n 25703: a1 = u64 [sp + 0x18]\n 25706: jump @337 if a0 <u a1\n      : @335 (gas: 9)\n 25710: a1 = u64 [0x300d0]\n 25715: u64 [sp + 0x8] = a1\n 25718: a1 = u64 [0x300c8]\n 25723: u64 [sp + 0x10] = a1\n 25726: a0 = u64 [0x300c0]\n 25731: u64 [sp + 0x18] = a0\n 25734: a0 = 0x40\n 25737: a1 = 0x20\n 25740: ra = 274, jump @0\n      : @336 [@dyn 137] (gas: 100)\n 25746: a1 = u8 [a0 + 0x11]\n 25749: a2 = u8 [a0 + 0x10]\n 25752: a3 = u8 [a0 + 0x12]\n 25755: a4 = u8 [a0 + 0x13]\n 25758: a1 = a1 << 0x8\n 25761: a1 = a1 | a2\n 25764: a3 = a3 << 0x10\n 25767: a4 = a4 << 0x18\n 25770: a3 = a3 | a4\n 25773: a1 = a1 | a3\n 25776: a2 = u8 [a0 + 0x15]\n 25779: a3 = u8 [a0 + 0x14]\n 25782: a4 = u8 [a0 + 0x16]\n 25785: a5 = u8 [a0 + 0x17]\n 25788: a2 = a2 << 0x8\n 25791: a2 = a2 | a3\n 25794: a4 = a4 << 0x10\n 25797: a5 = a5 << 0x18\n 25800: a4 = a4 | a5\n 25803: a2 = a2 | a4\n 25806: a2 = a2 << 0x20\n 25809: t0 = a2 | a1\n 25812: a2 = u8 [a0 + 0x1]\n 25815: a3 = u8 [a0]\n 25817: a4 = u8 [a0 + 0x2]\n 25820: a5 = u8 [a0 + 0x3]\n 25823: a2 = a2 << 0x8\n 25826: a2 = a2 | a3\n 25829: a4 = a4 << 0x10\n 25832: a5 = a5 << 0x18\n 25835: a4 = a4 | a5\n 25838: a2 = a2 | a4\n 25841: a3 = u8 [a0 + 0x5]\n 25844: a4 = u8 [a0 + 0x4]\n 25847: a5 = u8 [a0 + 0x6]\n 25850: s1 = u8 [a0 + 0x7]\n 25853: a3 = a3 << 0x8\n 25856: a3 = a3 | a4\n 25859: a5 = a5 << 0x10\n 25862: s1 = s1 << 0x18\n 25865: a5 = a5 | s1\n 25868: a3 = a3 | a5\n 25871: a3 = a3 << 0x20\n 25874: a2 = a2 | a3\n 25877: a3 = u8 [a0 + 0x19]\n 25880: a4 = u8 [a0 + 0x18]\n 25883: a5 = u8 [a0 + 0x1a]\n 25886: s1 = u8 [a0 + 0x1b]\n 25889: a3 = a3 << 0x8\n 25892: a3 = a3 | a4\n 25895: a5 = a5 << 0x10\n 25898: s1 = s1 << 0x18\n 25901: a5 = a5 | s1\n 25904: a3 = a3 | a5\n 25907: a4 = u8 [a0 + 0x1d]\n 25910: a5 = u8 [a0 + 0x1c]\n 25913: s1 = u8 [a0 + 0x1e]\n 25916: a1 = u8 [a0 + 0x1f]\n 25919: a4 = a4 << 0x8\n 25922: a4 = a4 | a5\n 25925: s1 = s1 << 0x10\n 25928: a1 = a1 << 0x18\n 25931: a1 = a1 | s1\n 25934: a1 = a1 | a4\n 25937: a1 = a1 << 0x20\n 25940: a3 = a3 | a1\n 25943: a1 = u8 [a0 + 0x9]\n 25946: a4 = u8 [a0 + 0x8]\n 25949: a5 = u8 [a0 + 0xa]\n 25952: s1 = u8 [a0 + 0xb]\n 25955: a1 = a1 << 0x8\n 25958: a1 = a1 | a4\n 25961: a5 = a5 << 0x10\n 25964: s1 = s1 << 0x18\n 25967: a5 = a5 | s1\n 25970: a1 = a1 | a5\n 25973: a4 = u8 [a0 + 0xd]\n 25976: a5 = u8 [a0 + 0xc]\n 25979: s1 = u8 [a0 + 0xe]\n 25982: a0 = u8 [a0 + 0xf]\n 25985: a4 = a4 << 0x8\n 25988: a4 = a4 | a5\n 25991: s1 = s1 << 0x10\n 25994: a0 = a0 << 0x18\n 25997: a0 = a0 | s1\n 26000: a0 = a0 | a4\n 26003: a0 = a0 << 0x20\n 26006: a0 = a0 | a1\n 26009: a1 = reverse a0\n 26011: a0 = reverse a3\n 26013: a2 = reverse a2\n 26015: a3 = reverse t0\n 26017: a2 = a2 | a3\n 26020: a3 = a0 | a1\n 26023: a3 = a3 | a2\n 26026: a3 = a3 >> 0x20\n 26029: a1 = a1 | a2\n 26032: a1 = a1 << 0x20\n 26035: a1 = a1 | a3\n 26038: jump @340 if a1 == 0\n      : @337 (gas: 1)\n 26041: trap\n      : @338 (gas: 3)\n 26042: a0 = 0\n 26044: a1 = 0\n 26046: ra = 276, jump @0\n      : @339 [@dyn 138] (gas: 5)\n 26052: i32 a1 = a0 + 0\n 26054: a0 = 0x1\n 26057: a2 = 0\n 26059: ecalli 14 // 'seal_return'\n 26061: fallthrough\n      : @340 (gas: 7)\n 26062: a1 = u64 [sp + 0x8]\n 26065: a1 = a1 << 0x20\n 26068: s1 = a1 >> 0x20\n 26071: i32 a0 = a0 + 0\n 26073: u64 [sp + 0x8] = a0\n 26076: a1 = 0x20\n 26079: ra = 278, jump @0\n      : @341 [@dyn 139] (gas: 58)\n 26085: a1 = reverse s1\n 26087: a2 = u64 [sp + 0x10]\n 26090: a2 = reverse a2\n 26092: a3 = u64 [sp + 0x18]\n 26095: a3 = reverse a3\n 26097: a4 = a3 >> 0x38\n 26100: u8 [a0 + 0x1f] = a4\n 26103: a4 = a3 >> 0x30\n 26106: u8 [a0 + 0x1e] = a4\n 26109: a4 = a3 >> 0x28\n 26112: u8 [a0 + 0x1d] = a4\n 26115: a4 = a3 >> 0x20\n 26118: u8 [a0 + 0x1c] = a4\n 26121: a4 = a3 >> 0x18\n 26124: u8 [a0 + 0x1b] = a4\n 26127: a4 = a3 >> 0x10\n 26130: u8 [a0 + 0x1a] = a4\n 26133: a4 = a3 >> 0x8\n 26136: u8 [a0 + 0x19] = a4\n 26139: u8 [a0 + 0x18] = a3\n 26142: u8 [a0 + 0x10] = a2\n 26145: u8 [a0 + 11] = 0\n 26148: u8 [a0 + 10] = 0\n 26151: u8 [a0 + 9] = 0\n 26154: u8 [a0 + 7] = 0\n 26157: u8 [a0 + 6] = 0\n 26160: u8 [a0 + 5] = 0\n 26163: u8 [a0 + 4] = 0\n 26166: u8 [a0 + 3] = 0\n 26169: u8 [a0 + 2] = 0\n 26172: u8 [a0 + 1] = 0\n 26175: u8 [a0 + 0] = 0\n 26177: a3 = a2 >> 0x38\n 26180: u8 [a0 + 0x17] = a3\n 26183: a3 = a2 >> 0x30\n 26186: u8 [a0 + 0x16] = a3\n 26189: a3 = a2 >> 0x28\n 26192: u8 [a0 + 0x15] = a3\n 26195: a3 = a2 >> 0x20\n 26198: u8 [a0 + 0x14] = a3\n 26201: a3 = a2 >> 0x18\n 26204: u8 [a0 + 0x13] = a3\n 26207: a3 = a2 >> 0x10\n 26210: u8 [a0 + 0x12] = a3\n 26213: a2 = a2 >> 0x8\n 26216: u8 [a0 + 0x11] = a2\n 26219: u8 [a0 + 0x8] = a1\n 26222: a2 = a1 >> 0x38\n 26225: u8 [a0 + 0xf] = a2\n 26228: a2 = a1 >> 0x30\n 26231: u8 [a0 + 0xe] = a2\n 26234: a2 = a1 >> 0x28\n 26237: u8 [a0 + 0xd] = a2\n 26240: a1 = a1 >> 0x20\n 26243: u8 [a0 + 0xc] = a1\n 26246: a1 = 0x20\n 26249: a0 = u64 [sp + 0x8]\n 26252: ra = 280, jump @0\n      : @342 [@dyn 140] (gas: 6)\n 26258: i32 a1 = a0 + 0\n 26260: a2 = 0x20\n 26263: a0 = 0\n 26265: ra = 0x11a\n 26269: ecalli 14 // 'seal_return'\n 26271: fallthrough\n      : @343 [@dyn 141] (gas: 13)\n 26272: sp = sp + 0xffffffffffffffb0\n 26275: u64 [sp + 0x48] = ra\n 26278: u64 [sp + 0x40] = s0\n 26281: s0 = sp + 0x50\n 26284: sp = sp & 0xfffffffffffffff0\n 26287: u64 [sp + 48] = 0\n 26290: u64 [sp + 40] = 0\n 26293: u64 [sp + 32] = 0\n 26296: a0 = 0x4e487b7100000000\n 26306: a1 = sp + 0x20\n 26309: u64 [sp + 0x38] = a0\n 26312: a0 = 0\n 26314: ra = 284, jump @23\n      : @344 [@dyn 142] (gas: 7)\n 26320: u64 [sp + 24] = 0\n 26323: u64 [sp + 16] = 0\n 26326: u64 [sp + 8] = 0\n 26329: a0 = 0x4\n 26332: a1 = sp\n 26334: u64 [sp + 0] = 0\n 26336: ra = 286, jump @23\n      : @345 [@dyn 143] (gas: 3)\n 26342: a1 = 0x24\n 26345: a0 = 0\n 26347: ra = 288, jump @0\n      : @346 [@dyn 144] (gas: 6)\n 26353: i32 a1 = a0 + 0\n 26355: a0 = 0x1\n 26358: a2 = 0x24\n 26361: ra = 0x122\n 26365: ecalli 14 // 'seal_return'\n 26367: fallthrough\n      : @347 [@dyn 145] (gas: 39)\n 26368: sp = sp + 0xfffffffffffffea0\n 26372: u64 [sp + 0x158] = ra\n 26376: u64 [sp + 0x150] = s0\n 26380: u64 [sp + 0x148] = s1\n 26384: s0 = sp + 0x160\n 26388: sp = sp & 0xffffffffffffffe0\n 26391: u64 [sp + 0x8] = a0\n 26394: a0 = u64 [a2 + 0x18]\n 26397: u64 [sp + 0xb0] = a0\n 26401: a0 = u64 [a2 + 0x10]\n 26404: u64 [sp + 0xa8] = a0\n 26408: a0 = u64 [a2 + 0x8]\n 26411: u64 [sp + 0xa0] = a0\n 26415: a0 = u64 [a2]\n 26417: u64 [sp + 0xb8] = a0\n 26421: a4 = u64 [a1 + 0x18]\n 26424: a3 = u64 [a1 + 0x10]\n 26427: a2 = u64 [a1 + 0x8]\n 26430: a0 = u64 [a1]\n 26432: u64 [sp + 0x18] = a4\n 26435: u64 [sp + 0x118] = a4\n 26439: u64 [sp + 0x20] = a3\n 26442: u64 [sp + 0x110] = a3\n 26446: u64 [sp + 0x68] = a2\n 26449: u64 [sp + 0x108] = a2\n 26453: u64 [sp + 0x70] = a0\n 26456: u64 [sp + 0x100] = a0\n 26460: u64 [sp + 312] = 0\n 26464: u64 [sp + 304] = 0\n 26468: u64 [sp + 296] = 0\n 26472: u64 [sp + 288] = 0\n 26476: u32 [sp + 320] = 0x20\n 26481: i32 a1 = sp + 0x100\n 26485: i32 a3 = sp + 0x120\n 26489: i32 a4 = sp + 0x140\n 26493: a2 = 0xffffffffffffffff\n 26496: a0 = 0\n 26498: ecalli 8 // 'get_storage'\n 26500: fallthrough\n      : @348 (gas: 32)\n 26501: t0 = u64 [sp + 0x130]\n 26505: t1 = u64 [sp + 0x128]\n 26509: t2 = u64 [sp + 0x138]\n 26513: a5 = u64 [sp + 0x120]\n 26517: a0 = t0 << 0x3f\n 26520: a1 = t1 >> 0x1\n 26523: a0 = a0 | a1\n 26526: a1 = t2 << 0x3f\n 26529: a2 = t0 >> 0x1\n 26532: a1 = a1 | a2\n 26535: a2 = t1 << 0x3f\n 26538: a3 = a5 >> 0x1\n 26541: a4 = a3 | a2\n 26544: a2 = t2 >> 0x1\n 26547: u64 [sp + 0x78] = a5\n 26550: a5 = a5 & 0x1\n 26553: a3 = -a5\n 26555: ra = a4 & 0x7f\n 26558: a1 = a1 & a3\n 26561: s1 = a3 & a0\n 26564: a4 = ra if a5 == 0\n 26567: a2 = a2 & a3\n 26570: u64 [sp + 0x58] = a4\n 26573: a0 = a4 <u 0x20\n 26576: u64 [sp + 0x48] = s1\n 26579: a0 = 0 if s1 != 0\n 26581: u64 [sp + 0x50] = a1\n 26584: u64 [sp + 0x40] = a2\n 26587: a1 = a1 | a2\n 26590: a0 = 0 if a1 != 0\n 26592: a1 = a5 <u 0x1\n 26595: jump @367 if a1 != a0\n      : @349 (gas: 17)\n 26599: u64 [sp + 0x98] = a5\n 26603: u64 [sp + 0x10] = ra\n 26606: u64 [sp + 0x80] = t1\n 26610: u64 [sp + 0x88] = t0\n 26614: u64 [sp + 0x90] = t2\n 26618: a0 = u64 [sp + 0xb8]\n 26622: a2 = u64 [sp + 0xa8]\n 26626: a0 = a0 | a2\n 26629: a1 = u64 [sp + 0xb0]\n 26633: a3 = u64 [sp + 0xa0]\n 26637: a1 = a1 | a3\n 26640: a0 = a0 | a1\n 26643: a0 = a0 >> 0x20\n 26646: a1 = a1 | a2\n 26649: a1 = a1 << 0x20\n 26652: a0 = a0 | a1\n 26655: jump @366 if a0 != 0\n      : @350 (gas: 4)\n 26659: s1 = u64 [sp + 0xb8]\n 26663: i32 a0 = s1 + 0\n 26665: a1 = 0x20\n 26668: ra = 292, jump @0\n      : @351 [@dyn 146] (gas: 85)\n 26674: a1 = u64 [sp + 0x40]\n 26677: a1 = reverse a1\n 26679: a2 = u64 [sp + 0x58]\n 26682: a2 = reverse a2\n 26684: a3 = a2 >> 0x38\n 26687: u8 [a0 + 0x1f] = a3\n 26690: a3 = a2 >> 0x30\n 26693: u8 [a0 + 0x1e] = a3\n 26696: a3 = a2 >> 0x28\n 26699: u8 [a0 + 0x1d] = a3\n 26702: a3 = a2 >> 0x20\n 26705: u8 [a0 + 0x1c] = a3\n 26708: a3 = a2 >> 0x18\n 26711: u8 [a0 + 0x1b] = a3\n 26714: a3 = a2 >> 0x10\n 26717: u8 [a0 + 0x1a] = a3\n 26720: a3 = a2 >> 0x8\n 26723: u8 [a0 + 0x19] = a3\n 26726: a3 = u64 [sp + 0x48]\n 26729: a3 = reverse a3\n 26731: u8 [a0 + 0x18] = a2\n 26734: a2 = a3 >> 0x38\n 26737: u8 [a0 + 0x17] = a2\n 26740: a2 = a3 >> 0x30\n 26743: u8 [a0 + 0x16] = a2\n 26746: a2 = a3 >> 0x28\n 26749: u8 [a0 + 0x15] = a2\n 26752: a2 = a3 >> 0x20\n 26755: u8 [a0 + 0x14] = a2\n 26758: a2 = a3 >> 0x18\n 26761: u8 [a0 + 0x13] = a2\n 26764: a2 = a3 >> 0x10\n 26767: u8 [a0 + 0x12] = a2\n 26770: a2 = u64 [sp + 0x50]\n 26773: a2 = reverse a2\n 26775: u8 [a0 + 0x10] = a3\n 26778: a3 = a3 >> 0x8\n 26781: u8 [a0 + 0x11] = a3\n 26784: u8 [a0 + 0x8] = a2\n 26787: a3 = a2 >> 0x38\n 26790: u8 [a0 + 0xf] = a3\n 26793: a3 = a2 >> 0x30\n 26796: u8 [a0 + 0xe] = a3\n 26799: a3 = a2 >> 0x28\n 26802: u8 [a0 + 0xd] = a3\n 26805: a3 = a2 >> 0x20\n 26808: u8 [a0 + 0xc] = a3\n 26811: a3 = a2 >> 0x18\n 26814: u8 [a0 + 0xb] = a3\n 26817: a3 = a2 >> 0x10\n 26820: u8 [a0 + 0xa] = a3\n 26823: a2 = a2 >> 0x8\n 26826: u8 [a0 + 0x9] = a2\n 26829: u8 [a0] = a1\n 26831: a2 = a1 >> 0x38\n 26834: u8 [a0 + 0x7] = a2\n 26837: a2 = a1 >> 0x30\n 26840: u8 [a0 + 0x6] = a2\n 26843: a2 = a1 >> 0x28\n 26846: u8 [a0 + 0x5] = a2\n 26849: a2 = a1 >> 0x20\n 26852: u8 [a0 + 0x4] = a2\n 26855: a2 = a1 >> 0x18\n 26858: u8 [a0 + 0x3] = a2\n 26861: a2 = a1 >> 0x10\n 26864: u8 [a0 + 0x2] = a2\n 26867: a1 = a1 >> 0x8\n 26870: u8 [a0 + 0x1] = a1\n 26873: a0 = s1 + 0x20\n 26876: u64 [sp + 0x60] = a0\n 26879: a0 = a0 <u s1\n 26882: a3 = u64 [sp + 0xa0]\n 26886: a1 = a3 + a0\n 26889: u64 [sp + 0x28] = a1\n 26892: a1 = a1 <u a3\n 26895: a1 = a0 if a0 == 0\n 26898: a0 = u64 [sp + 0xa8]\n 26902: a1 = a1 + a0\n 26905: u64 [sp + 0x30] = a1\n 26908: a0 = a1 <u a0\n 26911: a1 = u64 [sp + 0xb0]\n 26915: a0 = a0 + a1\n 26918: u64 [sp + 0x38] = a0\n 26921: a0 = u64 [sp + 0x98]\n 26925: jump @355 if a0 != 0\n      : @352 (gas: 9)\n 26929: a0 = u64 [sp + 0xb0]\n 26933: a1 = u64 [sp + 0xa8]\n 26937: a0 = a0 | a1\n 26940: a1 = 0xffffffe0\n 26950: a2 = u64 [sp + 0xb8]\n 26954: a1 = a2 <u a1\n 26957: a1 = 0 if a3 != 0\n 26959: a1 = 0 if a0 != 0\n 26961: jump @366 if a1 == 0\n      : @353 (gas: 5)\n 26965: a0 = u64 [sp + 0x78]\n 26968: s1 = a0 & 0xffffffffffffff00\n 26972: a0 = i32 [sp + 0x60]\n 26975: a1 = 0x20\n 26978: ra = 294, jump @0\n      : @354 [@dyn 147] (gas: 73)\n 26984: t0 = 0\n 26986: t1 = 0\n 26988: u64 [sp + 176] = 0\n 26992: a3 = reverse s1\n 26994: a4 = a3 >> 0x30\n 26997: u8 [a0 + 0x1e] = a4\n 27000: a4 = a3 >> 0x28\n 27003: u8 [a0 + 0x1d] = a4\n 27006: a4 = a3 >> 0x20\n 27009: u8 [a0 + 0x1c] = a4\n 27012: a4 = a3 >> 0x18\n 27015: u8 [a0 + 0x1b] = a4\n 27018: a4 = a3 >> 0x10\n 27021: u8 [a0 + 0x1a] = a4\n 27024: a1 = u64 [sp + 0x80]\n 27028: a4 = reverse a1\n 27030: u8 [a0 + 0x18] = a3\n 27033: a3 = a3 >> 0x8\n 27036: u8 [a0 + 0x19] = a3\n 27039: a3 = a4 >> 0x38\n 27042: u8 [a0 + 0x17] = a3\n 27045: a3 = a4 >> 0x30\n 27048: u8 [a0 + 0x16] = a3\n 27051: a3 = a4 >> 0x28\n 27054: u8 [a0 + 0x15] = a3\n 27057: a3 = a4 >> 0x20\n 27060: u8 [a0 + 0x14] = a3\n 27063: a3 = a4 >> 0x18\n 27066: u8 [a0 + 0x13] = a3\n 27069: a3 = a4 >> 0x10\n 27072: u8 [a0 + 0x12] = a3\n 27075: a1 = u64 [sp + 0x88]\n 27079: a3 = reverse a1\n 27081: u8 [a0 + 0x10] = a4\n 27084: a4 = a4 >> 0x8\n 27087: u8 [a0 + 0x11] = a4\n 27090: a4 = a3 >> 0x38\n 27093: u8 [a0 + 0xf] = a4\n 27096: a4 = a3 >> 0x30\n 27099: u8 [a0 + 0xe] = a4\n 27102: a4 = a3 >> 0x28\n 27105: u8 [a0 + 0xd] = a4\n 27108: a4 = a3 >> 0x20\n 27111: u8 [a0 + 0xc] = a4\n 27114: a4 = a3 >> 0x18\n 27117: u8 [a0 + 0xb] = a4\n 27120: a4 = a3 >> 0x10\n 27123: u8 [a0 + 0xa] = a4\n 27126: a1 = u64 [sp + 0x90]\n 27130: a4 = reverse a1\n 27132: u8 [a0 + 31] = 0\n 27135: u8 [a0 + 0x8] = a3\n 27138: a3 = a3 >> 0x8\n 27141: u8 [a0 + 0x9] = a3\n 27144: u8 [a0] = a4\n 27146: a3 = a4 >> 0x38\n 27149: u8 [a0 + 0x7] = a3\n 27152: a3 = a4 >> 0x30\n 27155: u8 [a0 + 0x6] = a3\n 27158: a3 = a4 >> 0x28\n 27161: u8 [a0 + 0x5] = a3\n 27164: a3 = a4 >> 0x20\n 27167: u8 [a0 + 0x4] = a3\n 27170: a3 = a4 >> 0x18\n 27173: u8 [a0 + 0x3] = a3\n 27176: a3 = a4 >> 0x10\n 27179: u8 [a0 + 0x2] = a3\n 27182: a4 = a4 >> 0x8\n 27185: u8 [a0 + 0x1] = a4\n 27188: a0 = u64 [sp + 0x10]\n 27191: a0 = a0 >u 0\n 27193: ra = a0 << 0x5\n 27196: jump @365\n      : @355 (gas: 3)\n 27199: a1 = 0x20\n 27202: a0 = 0\n 27204: ra = 296, jump @0\n      : @356 [@dyn 148] (gas: 71)\n 27210: a1 = u64 [sp + 0x18]\n 27213: a1 = reverse a1\n 27215: a2 = u64 [sp + 0x20]\n 27218: a2 = reverse a2\n 27220: a3 = u64 [sp + 0x68]\n 27223: a3 = reverse a3\n 27225: a4 = u64 [sp + 0x70]\n 27228: a4 = reverse a4\n 27230: a5 = a4 >> 0x38\n 27233: u8 [a0 + 0x1f] = a5\n 27236: a5 = a4 >> 0x30\n 27239: u8 [a0 + 0x1e] = a5\n 27242: a5 = a4 >> 0x28\n 27245: u8 [a0 + 0x1d] = a5\n 27248: a5 = a4 >> 0x20\n 27251: u8 [a0 + 0x1c] = a5\n 27254: a5 = a4 >> 0x18\n 27257: u8 [a0 + 0x1b] = a5\n 27260: a5 = a4 >> 0x10\n 27263: u8 [a0 + 0x1a] = a5\n 27266: a5 = a4 >> 0x8\n 27269: u8 [a0 + 0x19] = a5\n 27272: u8 [a0 + 0x18] = a4\n 27275: u8 [a0 + 0x10] = a3\n 27278: a4 = a3 >> 0x38\n 27281: u8 [a0 + 0x17] = a4\n 27284: a4 = a3 >> 0x30\n 27287: u8 [a0 + 0x16] = a4\n 27290: a4 = a3 >> 0x28\n 27293: u8 [a0 + 0x15] = a4\n 27296: a4 = a3 >> 0x20\n 27299: u8 [a0 + 0x14] = a4\n 27302: a4 = a3 >> 0x18\n 27305: u8 [a0 + 0x13] = a4\n 27308: a4 = a3 >> 0x10\n 27311: u8 [a0 + 0x12] = a4\n 27314: a3 = a3 >> 0x8\n 27317: u8 [a0 + 0x11] = a3\n 27320: u8 [a0 + 0x8] = a2\n 27323: a3 = a2 >> 0x38\n 27326: u8 [a0 + 0xf] = a3\n 27329: a3 = a2 >> 0x30\n 27332: u8 [a0 + 0xe] = a3\n 27335: a3 = a2 >> 0x28\n 27338: u8 [a0 + 0xd] = a3\n 27341: a3 = a2 >> 0x20\n 27344: u8 [a0 + 0xc] = a3\n 27347: a3 = a2 >> 0x18\n 27350: u8 [a0 + 0xb] = a3\n 27353: a3 = a2 >> 0x10\n 27356: u8 [a0 + 0xa] = a3\n 27359: a2 = a2 >> 0x8\n 27362: u8 [a0 + 0x9] = a2\n 27365: u8 [a0] = a1\n 27367: a2 = a1 >> 0x38\n 27370: u8 [a0 + 0x7] = a2\n 27373: a2 = a1 >> 0x30\n 27376: u8 [a0 + 0x6] = a2\n 27379: a2 = a1 >> 0x28\n 27382: u8 [a0 + 0x5] = a2\n 27385: a2 = a1 >> 0x20\n 27388: u8 [a0 + 0x4] = a2\n 27391: a2 = a1 >> 0x18\n 27394: u8 [a0 + 0x3] = a2\n 27397: a2 = a1 >> 0x10\n 27400: u8 [a0 + 0x2] = a2\n 27403: a1 = a1 >> 0x8\n 27406: u8 [a0 + 0x1] = a1\n 27409: a1 = 0x20\n 27412: a0 = 0\n 27414: ra = 298, jump @0\n      : @357 [@dyn 149] (gas: 5)\n 27420: i32 a0 = a0 + 0\n 27422: i32 a2 = sp + 0x120\n 27426: a1 = 0x20\n 27429: ecalli 9 // 'hash_keccak_256'\n 27431: fallthrough\n      : @358 (gas: 9)\n 27432: a0 = u64 [sp + 0x78]\n 27435: a0 = a0 <u 0x2\n 27438: a1 = u64 [sp + 0x80]\n 27442: a0 = 0 if a1 != 0\n 27444: a1 = u64 [sp + 0x90]\n 27448: a2 = u64 [sp + 0x88]\n 27452: a1 = a1 | a2\n 27455: a0 = 0 if a1 != 0\n 27457: jump @360 if a0 == 0\n      : @359 (gas: 5)\n 27460: ra = 0\n 27462: t0 = 0\n 27464: t1 = 0\n 27466: u64 [sp + 176] = 0\n 27470: jump @365\n      : @360 (gas: 19)\n 27473: u64 [sp + 168] = 0\n 27477: u64 [sp + 160] = 0\n 27481: s1 = 0\n 27483: u64 [sp + 176] = 0\n 27487: a0 = u64 [sp + 0x120]\n 27491: a1 = u64 [sp + 0x128]\n 27495: a2 = u64 [sp + 0x130]\n 27499: a3 = u64 [sp + 0x138]\n 27503: a0 = reverse a0\n 27505: a5 = reverse a1\n 27507: a1 = reverse a2\n 27509: t2 = reverse a3\n 27511: i32 a3 = sp + 0x100\n 27515: u64 [sp + 0x20] = a3\n 27518: i32 a3 = sp + 0x120\n 27522: u64 [sp + 0x18] = a3\n 27525: i32 a3 = sp + 0x140\n 27529: u64 [sp + 0x10] = a3\n 27532: fallthrough\n      : @361 (gas: 20)\n 27533: u64 [sp + 0x88] = a5\n 27537: u64 [sp + 0x110] = a5\n 27541: u64 [sp + 0xb8] = a1\n 27545: u64 [sp + 0x108] = a1\n 27549: u64 [sp + 0x90] = t2\n 27553: u64 [sp + 0x100] = t2\n 27557: u64 [sp + 0x98] = a0\n 27561: u64 [sp + 0x118] = a0\n 27565: u64 [sp + 312] = 0\n 27569: u64 [sp + 304] = 0\n 27573: u64 [sp + 296] = 0\n 27577: u64 [sp + 288] = 0\n 27581: u32 [sp + 320] = 0x20\n 27586: a2 = 0xffffffffffffffff\n 27589: a0 = 0\n 27591: a1 = u64 [sp + 0x20]\n 27594: a3 = u64 [sp + 0x18]\n 27597: a4 = u64 [sp + 0x10]\n 27600: ecalli 8 // 'get_storage'\n 27602: fallthrough\n      : @362 (gas: 30)\n 27603: a0 = u64 [sp + 0x60]\n 27606: a1 = u64 [sp + 0xa8]\n 27610: a0 = a0 + a1\n 27613: a1 = a0 <u a1\n 27616: a2 = u64 [sp + 0x28]\n 27619: a4 = u64 [sp + 0xa0]\n 27623: a2 = a2 + a4\n 27626: a2 = a2 + a1\n 27629: a3 = a2 ^ a4\n 27632: a4 = a2 <u a4\n 27635: a4 = a1 if a3 == 0\n 27638: a1 = u64 [sp + 0x30]\n 27641: a1 = a1 + s1\n 27644: u64 [sp + 0x80] = s1\n 27648: a3 = a1 <u s1\n 27651: a5 = u64 [sp + 0x38]\n 27654: s1 = u64 [sp + 0xb0]\n 27658: a5 = a5 + s1\n 27661: a3 = a3 + a5\n 27664: a4 = a4 + a1\n 27667: a1 = a4 <u a1\n 27670: a1 = a1 + a3\n 27673: a1 = a1 | a2\n 27676: a2 = a0 | a4\n 27679: a2 = a2 | a1\n 27682: a1 = a1 | a4\n 27685: a2 = a2 >> 0x20\n 27688: a1 = a1 << 0x20\n 27691: a1 = a1 | a2\n 27694: jump @366 if a1 != 0\n      : @363 (gas: 10)\n 27698: a1 = u64 [sp + 0x138]\n 27702: u64 [sp + 0x70] = a1\n 27705: a1 = u64 [sp + 0x130]\n 27709: u64 [sp + 0x78] = a1\n 27712: a1 = u64 [sp + 0x128]\n 27716: u64 [sp + 0x68] = a1\n 27719: s1 = u64 [sp + 0x120]\n 27723: i32 a0 = a0 + 0\n 27725: a1 = 0x20\n 27728: ra = 300, jump @0\n      : @364 [@dyn 150] (gas: 115)\n 27734: a1 = reverse s1\n 27736: a2 = a1 >> 0x38\n 27739: u8 [a0 + 0x1f] = a2\n 27742: a2 = a1 >> 0x30\n 27745: u8 [a0 + 0x1e] = a2\n 27748: a2 = a1 >> 0x28\n 27751: u8 [a0 + 0x1d] = a2\n 27754: a2 = a1 >> 0x20\n 27757: u8 [a0 + 0x1c] = a2\n 27760: a2 = a1 >> 0x18\n 27763: u8 [a0 + 0x1b] = a2\n 27766: a2 = a1 >> 0x10\n 27769: u8 [a0 + 0x1a] = a2\n 27772: a2 = a1 >> 0x8\n 27775: u8 [a0 + 0x19] = a2\n 27778: a2 = u64 [sp + 0x68]\n 27781: a2 = reverse a2\n 27783: u8 [a0 + 0x18] = a1\n 27786: a1 = a2 >> 0x38\n 27789: u8 [a0 + 0x17] = a1\n 27792: a1 = a2 >> 0x30\n 27795: u8 [a0 + 0x16] = a1\n 27798: a1 = a2 >> 0x28\n 27801: u8 [a0 + 0x15] = a1\n 27804: a1 = a2 >> 0x20\n 27807: u8 [a0 + 0x14] = a1\n 27810: a1 = a2 >> 0x18\n 27813: u8 [a0 + 0x13] = a1\n 27816: a1 = a2 >> 0x10\n 27819: u8 [a0 + 0x12] = a1\n 27822: a1 = u64 [sp + 0x70]\n 27825: a1 = reverse a1\n 27827: a3 = u64 [sp + 0x78]\n 27830: a3 = reverse a3\n 27832: u8 [a0 + 0x10] = a2\n 27835: a2 = a2 >> 0x8\n 27838: u8 [a0 + 0x11] = a2\n 27841: u8 [a0 + 0x8] = a3\n 27844: a2 = a3 >> 0x38\n 27847: u8 [a0 + 0xf] = a2\n 27850: a2 = a3 >> 0x30\n 27853: u8 [a0 + 0xe] = a2\n 27856: a2 = a3 >> 0x28\n 27859: u8 [a0 + 0xd] = a2\n 27862: a2 = a3 >> 0x20\n 27865: u8 [a0 + 0xc] = a2\n 27868: a2 = a3 >> 0x18\n 27871: u8 [a0 + 0xb] = a2\n 27874: a2 = a3 >> 0x10\n 27877: u8 [a0 + 0xa] = a2\n 27880: a3 = a3 >> 0x8\n 27883: u8 [a0 + 0x9] = a3\n 27886: u8 [a0] = a1\n 27888: a2 = a1 >> 0x38\n 27891: u8 [a0 + 0x7] = a2\n 27894: a2 = a1 >> 0x30\n 27897: u8 [a0 + 0x6] = a2\n 27900: a2 = a1 >> 0x28\n 27903: u8 [a0 + 0x5] = a2\n 27906: a2 = a1 >> 0x20\n 27909: u8 [a0 + 0x4] = a2\n 27912: a2 = a1 >> 0x18\n 27915: u8 [a0 + 0x3] = a2\n 27918: a2 = a1 >> 0x10\n 27921: u8 [a0 + 0x2] = a2\n 27924: a1 = a1 >> 0x8\n 27927: u8 [a0 + 0x1] = a1\n 27930: t2 = u64 [sp + 0x90]\n 27934: t2 = t2 + 0x1\n 27937: a0 = t2 <u 0x1\n 27940: a1 = u64 [sp + 0xb8]\n 27944: a1 = a1 + a0\n 27947: u64 [sp + 0xb8] = a1\n 27951: a0 = u64 [sp + 0xa8]\n 27955: ra = a0 + 0x20\n 27958: a2 = ra <u a0\n 27961: a0 = u64 [sp + 0xa0]\n 27965: t0 = a0 + a2\n 27968: a3 = t0 <u a0\n 27971: a3 = a2 if a2 == 0\n 27974: a0 = u64 [sp + 0x80]\n 27978: t1 = a0 + a3\n 27981: a3 = t1 <u a0\n 27984: a5 = u64 [sp + 0xb0]\n 27988: a5 = a5 + a3\n 27991: a1 = u64 [sp + 0x50]\n 27994: a0 = t1 <u a1\n 27997: u64 [sp + 0xa8] = a0\n 28001: a2 = u64 [sp + 0x58]\n 28004: a4 = ra <u a2\n 28007: a2 = u64 [sp + 0x48]\n 28010: s1 = t0 ^ a2\n 28013: a3 = t0 <u a2\n 28016: a3 = a4 if s1 == 0\n 28019: a2 = u64 [sp + 0x40]\n 28022: a0 = a5 ^ a2\n 28025: u64 [sp + 0xb0] = a5\n 28029: s1 = a5 <u a2\n 28032: a2 = u64 [sp + 0xa8]\n 28036: s1 = a2 if a0 == 0\n 28039: a4 = t1 ^ a1\n 28042: a1 = u64 [sp + 0xb8]\n 28046: a0 = a0 | a4\n 28049: a5 = t2 | a1\n 28052: a5 = a5 <u 0x1\n 28055: a4 = u64 [sp + 0x88]\n 28059: a5 = a5 + a4\n 28062: a4 = a5 <u a4\n 28065: a3 = s1 if a0 != 0\n 28068: a0 = u64 [sp + 0x98]\n 28072: a0 = a0 + a4\n 28075: u64 [sp + 0xa8] = ra\n 28079: u64 [sp + 0xa0] = t0\n 28083: s1 = t1\n 28085: jump @361 if a3 != 0\n      : @365 (gas: 30)\n 28089: a3 = u64 [sp + 0x60]\n 28092: a3 = a3 + ra\n 28095: a0 = a3 <u ra\n 28098: a4 = u64 [sp + 0x28]\n 28101: a4 = a4 + t0\n 28104: a4 = a4 + a0\n 28107: a5 = a4 ^ t0\n 28110: a1 = a4 <u t0\n 28113: a1 = a0 if a5 == 0\n 28116: a0 = u64 [sp + 0x30]\n 28119: a0 = a0 + t1\n 28122: a1 = a1 + a0\n 28125: a5 = a1 <u a0\n 28128: a0 = a0 <u t1\n 28131: a2 = u64 [sp + 0x38]\n 28134: s1 = u64 [sp + 0xb0]\n 28138: a2 = a2 + s1\n 28141: a0 = a0 + a2\n 28144: a0 = a0 + a5\n 28147: a2 = u64 [sp + 0x8]\n 28150: u64 [a2] = a3\n 28152: u64 [a2 + 0x8] = a4\n 28155: u64 [a2 + 0x10] = a1\n 28158: u64 [a2 + 0x18] = a0\n 28161: sp = s0 + 0xfffffffffffffea0\n 28165: ra = u64 [sp + 0x158]\n 28169: s0 = u64 [sp + 0x150]\n 28173: s1 = u64 [sp + 0x148]\n 28177: sp = sp + 0x160\n 28181: ret\n      : @366 (gas: 1)\n 28183: trap\n      : @367 (gas: 8)\n 28184: u64 [sp + 240] = 0\n 28188: u64 [sp + 232] = 0\n 28192: u64 [sp + 224] = 0\n 28196: a0 = 0x4e487b7100000000\n 28206: a1 = sp + 0xe0\n 28210: u64 [sp + 0xf8] = a0\n 28214: a0 = 0\n 28216: ra = 302, jump @23\n      : @368 [@dyn 151] (gas: 7)\n 28222: u64 [sp + 216] = 0\n 28226: u64 [sp + 208] = 0\n 28230: u64 [sp + 192] = 0x22\n 28235: a0 = 0x4\n 28238: a1 = sp + 0xc0\n 28242: u64 [sp + 200] = 0\n 28246: ra = 304, jump @23\n      : @369 [@dyn 152] (gas: 3)\n 28252: a1 = 0x24\n 28255: a0 = 0\n 28257: ra = 306, jump @0\n      : @370 [@dyn 153] (gas: 6)\n 28263: i32 a1 = a0 + 0\n 28265: a0 = 0x1\n 28268: a2 = 0x24\n 28271: ra = 0x134\n 28275: ecalli 14 // 'seal_return'\n 28277: fallthrough\n      : @371 [@dyn 154] (gas: 27)\n 28278: sp = sp + 0xffffffffffffff80\n 28281: u64 [sp + 0x78] = ra\n 28284: u64 [sp + 0x70] = s0\n 28287: u64 [sp + 0x68] = s1\n 28290: s0 = sp + 0x80\n 28294: sp = sp & 0xfffffffffffffff0\n 28297: t0 = u64 [a1]\n 28299: t1 = u64 [a1 + 0x8]\n 28302: t2 = u64 [a1 + 0x10]\n 28305: a1 = u64 [a1 + 0x18]\n 28308: a3 = u64 [a2]\n 28310: a4 = u64 [a2 + 0x8]\n 28313: a5 = u64 [a2 + 0x10]\n 28316: a2 = u64 [a2 + 0x18]\n 28319: s1 = a0\n 28321: u64 [sp + 0x18] = a2\n 28324: u64 [sp + 0x10] = a5\n 28327: u64 [sp + 0x8] = a4\n 28330: u64 [sp] = a3\n 28332: u64 [sp + 0x38] = a1\n 28335: u64 [sp + 0x30] = t2\n 28338: u64 [sp + 0x28] = t1\n 28341: a0 = sp + 0x40\n 28344: a1 = sp + 0x20\n 28347: a2 = sp\n 28349: u64 [sp + 0x20] = t0\n 28352: ra = 310, jump @347\n      : @372 [@dyn 155] (gas: 14)\n 28358: a0 = u64 [sp + 0x50]\n 28361: a1 = u64 [sp + 0x58]\n 28364: a2 = u64 [sp + 0x40]\n 28367: a3 = u64 [sp + 0x48]\n 28370: u64 [s1 + 0x10] = a0\n 28373: u64 [s1 + 0x18] = a1\n 28376: u64 [s1] = a2\n 28378: u64 [s1 + 0x8] = a3\n 28381: sp = s0 + 0xffffffffffffff80\n 28384: ra = u64 [sp + 0x78]\n 28387: s0 = u64 [sp + 0x70]\n 28390: s1 = u64 [sp + 0x68]\n 28393: sp = sp + 0x80\n 28397: ret\n      : @373 (gas: 18)\n 28399: sp = sp + 0xffffffffffffff00\n 28403: u64 [sp + 0xf8] = ra\n 28407: u64 [sp + 0xf0] = s0\n 28411: u64 [sp + 0xe8] = s1\n 28415: s0 = sp + 0x100\n 28419: sp = sp & 0xfffffffffffffff0\n 28422: a2 = u64 [a1]\n 28424: u64 [sp + 0x20] = a2\n 28427: a2 = u64 [a1 + 0x8]\n 28430: u64 [sp + 0x10] = a2\n 28433: a2 = u64 [a1 + 0x10]\n 28436: u64 [sp + 0x8] = a2\n 28439: a1 = u64 [a1 + 0x18]\n 28442: u64 [sp] = a1\n 28444: u64 [sp + 0x18] = a0\n 28447: a0 = 0x40\n 28450: a1 = 0x20\n 28453: ra = 312, jump @0\n      : @374 [@dyn 156] (gas: 111)\n 28459: a1 = u8 [a0 + 0x1]\n 28462: a2 = u8 [a0]\n 28464: a3 = u8 [a0 + 0x2]\n 28467: a4 = u8 [a0 + 0x3]\n 28470: a1 = a1 << 0x8\n 28473: a1 = a1 | a2\n 28476: a3 = a3 << 0x10\n 28479: a4 = a4 << 0x18\n 28482: a3 = a3 | a4\n 28485: a1 = a1 | a3\n 28488: a2 = u8 [a0 + 0x5]\n 28491: a3 = u8 [a0 + 0x4]\n 28494: a4 = u8 [a0 + 0x6]\n 28497: a5 = u8 [a0 + 0x7]\n 28500: a2 = a2 << 0x8\n 28503: a2 = a2 | a3\n 28506: a4 = a4 << 0x10\n 28509: a5 = a5 << 0x18\n 28512: a4 = a4 | a5\n 28515: a2 = a2 | a4\n 28518: a2 = a2 << 0x20\n 28521: t0 = a2 | a1\n 28524: a2 = u8 [a0 + 0x9]\n 28527: a3 = u8 [a0 + 0x8]\n 28530: a4 = u8 [a0 + 0xa]\n 28533: a5 = u8 [a0 + 0xb]\n 28536: a2 = a2 << 0x8\n 28539: a2 = a2 | a3\n 28542: a4 = a4 << 0x10\n 28545: a5 = a5 << 0x18\n 28548: a4 = a4 | a5\n 28551: a2 = a2 | a4\n 28554: a3 = u8 [a0 + 0xd]\n 28557: a4 = u8 [a0 + 0xc]\n 28560: a5 = u8 [a0 + 0xe]\n 28563: s1 = u8 [a0 + 0xf]\n 28566: a3 = a3 << 0x8\n 28569: a3 = a3 | a4\n 28572: a5 = a5 << 0x10\n 28575: s1 = s1 << 0x18\n 28578: a5 = a5 | s1\n 28581: a3 = a3 | a5\n 28584: a3 = a3 << 0x20\n 28587: a2 = a2 | a3\n 28590: a3 = u8 [a0 + 0x11]\n 28593: a4 = u8 [a0 + 0x10]\n 28596: a5 = u8 [a0 + 0x12]\n 28599: s1 = u8 [a0 + 0x13]\n 28602: a3 = a3 << 0x8\n 28605: a3 = a3 | a4\n 28608: a5 = a5 << 0x10\n 28611: s1 = s1 << 0x18\n 28614: a5 = a5 | s1\n 28617: a3 = a3 | a5\n 28620: a4 = u8 [a0 + 0x15]\n 28623: a5 = u8 [a0 + 0x14]\n 28626: s1 = u8 [a0 + 0x16]\n 28629: a1 = u8 [a0 + 0x17]\n 28632: a4 = a4 << 0x8\n 28635: a4 = a4 | a5\n 28638: s1 = s1 << 0x10\n 28641: a1 = a1 << 0x18\n 28644: a1 = a1 | s1\n 28647: a1 = a1 | a4\n 28650: a1 = a1 << 0x20\n 28653: a3 = a3 | a1\n 28656: a1 = u8 [a0 + 0x19]\n 28659: a4 = u8 [a0 + 0x18]\n 28662: a5 = u8 [a0 + 0x1a]\n 28665: s1 = u8 [a0 + 0x1b]\n 28668: a1 = a1 << 0x8\n 28671: a1 = a1 | a4\n 28674: a5 = a5 << 0x10\n 28677: s1 = s1 << 0x18\n 28680: a5 = a5 | s1\n 28683: a1 = a1 | a5\n 28686: a4 = u8 [a0 + 0x1d]\n 28689: a5 = u8 [a0 + 0x1c]\n 28692: s1 = u8 [a0 + 0x1e]\n 28695: a0 = u8 [a0 + 0x1f]\n 28698: a4 = a4 << 0x8\n 28701: a4 = a4 | a5\n 28704: s1 = s1 << 0x10\n 28707: a0 = a0 << 0x18\n 28710: a0 = a0 | s1\n 28713: a0 = a0 | a4\n 28716: a0 = a0 << 0x20\n 28719: a0 = a0 | a1\n 28722: a4 = reverse a0\n 28724: u64 [sp + 0x38] = a4\n 28727: s1 = reverse a3\n 28729: a2 = reverse a2\n 28731: u64 [sp + 0x30] = a2\n 28734: a1 = reverse t0\n 28736: u64 [sp + 0x28] = a1\n 28739: a0 = u64 [sp]\n 28741: u64 [sp + 0xb8] = a0\n 28745: a0 = u64 [sp + 0x8]\n 28748: u64 [sp + 0xb0] = a0\n 28752: a0 = u64 [sp + 0x10]\n 28755: u64 [sp + 0xa8] = a0\n 28759: a0 = u64 [sp + 0x20]\n 28762: u64 [sp + 0xa0] = a0\n 28766: u64 [sp + 0x98] = a1\n 28770: u64 [sp + 0x90] = a2\n 28774: u64 [sp + 0x88] = s1\n 28778: a0 = sp + 0xc0\n 28782: a1 = sp + 0xa0\n 28786: a2 = sp + 0x80\n 28790: u64 [sp + 0x80] = a4\n 28794: ra = 314, jump @347\n      : @375 [@dyn 157] (gas: 58)\n 28800: t2 = s1\n 28802: a3 = u64 [sp + 0xc8]\n 28806: a0 = u64 [sp + 0xd8]\n 28810: u64 [sp + 0x10] = a0\n 28813: a4 = u64 [sp + 0xc0]\n 28817: t1 = u64 [sp + 0xd0]\n 28821: a5 = a3 ^ s1\n 28824: a1 = a3 <u s1\n 28827: a2 = u64 [sp + 0x38]\n 28830: s1 = a4 <u a2\n 28833: a1 = s1 if a5 == 0\n 28836: a3 = a3 - t2\n 28839: a3 = a3 - s1\n 28842: u64 [sp + 0x8] = a3\n 28845: a4 = a4 - a2\n 28848: a5 = a4 + 0x1f\n 28851: a4 = a5 <u a4\n 28854: a3 = a3 + a4\n 28857: a5 = a5 & 0xffffffffffffffe0\n 28860: a0 = a3 + t2\n 28863: a2 = a2 + a5\n 28866: u64 [sp + 0x20] = a2\n 28869: a5 = a2 <u a5\n 28872: t0 = a0 + a5\n 28875: a0 = t0 ^ a3\n 28878: a2 = t0 <u a3\n 28881: a2 = a5 if a0 == 0\n 28884: s1 = u64 [sp + 0x30]\n 28887: a0 = t1 - s1\n 28890: a5 = t1 <u s1\n 28893: t1 = s1\n 28895: ra = u64 [sp + 0x28]\n 28898: s1 = u64 [sp + 0x10]\n 28901: s1 = s1 - ra\n 28904: s1 = s1 - a5\n 28907: a5 = a0 <u a1\n 28910: s1 = s1 - a5\n 28913: a0 = a0 - a1\n 28916: a1 = u64 [sp + 0x8]\n 28919: a1 = a3 <u a1\n 28922: a1 = a4 if a4 == 0\n 28925: a1 = a1 + a0\n 28928: a0 = a1 <u a0\n 28931: a3 = a1 + t1\n 28934: a5 = a3 + a2\n 28937: a1 = a3 <u a1\n 28940: a2 = a5 <u a3\n 28943: s1 = s1 + ra\n 28946: a0 = a0 + s1\n 28949: a0 = a0 + a1\n 28952: s1 = a0 + a2\n 28955: a0 = s1 >u 0\n 28957: a1 = a5 >u 0\n 28959: a1 = a0 if s1 != 0\n 28962: a0 = a5 | s1\n 28965: a2 = t0 >u 0\n 28967: a2 = a1 if a0 != 0\n 28970: jump @379 if a2 != 0\n      : @376 (gas: 15)\n 28974: a4 = t1\n 28976: a0 = u64 [sp + 0x38]\n 28979: a1 = u64 [sp + 0x20]\n 28982: a0 = a1 <u a0\n 28985: a1 = t0 ^ t2\n 28988: a2 = t0 <u t2\n 28991: a2 = a0 if a1 == 0\n 28994: a0 = a5 <u t1\n 28997: a1 = s1 ^ ra\n 29000: a3 = s1 <u ra\n 29003: a3 = a0 if a1 == 0\n 29006: a0 = a5 ^ t1\n 29009: a0 = a0 | a1\n 29012: a3 = a2 if a0 == 0\n 29015: jump @379 if a3 != 0\n      : @377 (gas: 6)\n 29019: a0 = 0x40\n 29022: a1 = 0x20\n 29025: u64 [sp + 0x10] = t2\n 29028: u64 [sp + 0x8] = t0\n 29031: u64 [sp] = a5\n 29033: ra = 316, jump @0\n      : @378 [@dyn 158] (gas: 82)\n 29039: a1 = reverse s1\n 29041: a2 = u64 [sp]\n 29043: a2 = reverse a2\n 29045: a3 = u64 [sp + 0x8]\n 29048: a3 = reverse a3\n 29050: a4 = u64 [sp + 0x20]\n 29053: a4 = reverse a4\n 29055: u8 [a0 + 0x18] = a4\n 29058: a5 = a4 >> 0x38\n 29061: u8 [a0 + 0x1f] = a5\n 29064: a5 = a4 >> 0x30\n 29067: u8 [a0 + 0x1e] = a5\n 29070: a5 = a4 >> 0x28\n 29073: u8 [a0 + 0x1d] = a5\n 29076: a5 = a4 >> 0x20\n 29079: u8 [a0 + 0x1c] = a5\n 29082: a5 = a4 >> 0x18\n 29085: u8 [a0 + 0x1b] = a5\n 29088: a5 = a4 >> 0x10\n 29091: u8 [a0 + 0x1a] = a5\n 29094: a4 = a4 >> 0x8\n 29097: u8 [a0 + 0x19] = a4\n 29100: u8 [a0 + 0x10] = a3\n 29103: a4 = a3 >> 0x38\n 29106: u8 [a0 + 0x17] = a4\n 29109: a4 = a3 >> 0x30\n 29112: u8 [a0 + 0x16] = a4\n 29115: a4 = a3 >> 0x28\n 29118: u8 [a0 + 0x15] = a4\n 29121: a4 = a3 >> 0x20\n 29124: u8 [a0 + 0x14] = a4\n 29127: a4 = a3 >> 0x18\n 29130: u8 [a0 + 0x13] = a4\n 29133: a4 = a3 >> 0x10\n 29136: u8 [a0 + 0x12] = a4\n 29139: a3 = a3 >> 0x8\n 29142: u8 [a0 + 0x11] = a3\n 29145: u8 [a0 + 0x8] = a2\n 29148: a3 = a2 >> 0x38\n 29151: u8 [a0 + 0xf] = a3\n 29154: a3 = a2 >> 0x30\n 29157: u8 [a0 + 0xe] = a3\n 29160: a3 = a2 >> 0x28\n 29163: u8 [a0 + 0xd] = a3\n 29166: a3 = a2 >> 0x20\n 29169: u8 [a0 + 0xc] = a3\n 29172: a3 = a2 >> 0x18\n 29175: u8 [a0 + 0xb] = a3\n 29178: a3 = a2 >> 0x10\n 29181: u8 [a0 + 0xa] = a3\n 29184: a2 = a2 >> 0x8\n 29187: u8 [a0 + 0x9] = a2\n 29190: u8 [a0] = a1\n 29192: a2 = a1 >> 0x38\n 29195: u8 [a0 + 0x7] = a2\n 29198: a2 = a1 >> 0x30\n 29201: u8 [a0 + 0x6] = a2\n 29204: a2 = a1 >> 0x28\n 29207: u8 [a0 + 0x5] = a2\n 29210: a2 = a1 >> 0x20\n 29213: u8 [a0 + 0x4] = a2\n 29216: a2 = a1 >> 0x18\n 29219: u8 [a0 + 0x3] = a2\n 29222: a2 = a1 >> 0x10\n 29225: u8 [a0 + 0x2] = a2\n 29228: a1 = a1 >> 0x8\n 29231: u8 [a0 + 0x1] = a1\n 29234: a0 = u64 [sp + 0x18]\n 29237: a1 = u64 [sp + 0x38]\n 29240: u64 [a0] = a1\n 29242: a1 = u64 [sp + 0x28]\n 29245: u64 [a0 + 0x18] = a1\n 29248: a1 = u64 [sp + 0x10]\n 29251: u64 [a0 + 0x8] = a1\n 29254: a1 = u64 [sp + 0x30]\n 29257: u64 [a0 + 0x10] = a1\n 29260: sp = s0 + 0xffffffffffffff00\n 29264: ra = u64 [sp + 0xf8]\n 29268: s0 = u64 [sp + 0xf0]\n 29272: s1 = u64 [sp + 0xe8]\n 29276: sp = sp + 0x100\n 29280: ret\n      : @379 (gas: 8)\n 29282: u64 [sp + 112] = 0\n 29285: u64 [sp + 104] = 0\n 29288: u64 [sp + 96] = 0\n 29291: a0 = 0x4e487b7100000000\n 29301: a1 = sp + 0x60\n 29304: u64 [sp + 0x78] = a0\n 29307: a0 = 0\n 29309: ra = 318, jump @23\n      : @380 [@dyn 159] (gas: 7)\n 29315: u64 [sp + 88] = 0\n 29318: u64 [sp + 80] = 0\n 29321: u64 [sp + 64] = 0x41\n 29325: a0 = 0x4\n 29328: a1 = sp + 0x40\n 29331: u64 [sp + 72] = 0\n 29334: ra = 320, jump @23\n      : @381 [@dyn 160] (gas: 3)\n 29340: a1 = 0x24\n 29343: a0 = 0\n 29345: ra = 322, jump @0\n      : @382 [@dyn 161] (gas: 6)\n 29351: i32 a1 = a0 + 0\n 29353: a0 = 0x1\n 29356: a2 = 0x24\n 29359: ra = 0x144\n 29363: ecalli 14 // 'seal_return'\n 29365: fallthrough\n      : @383 [@dyn 162] (gas: 14)\n 29366: sp = sp + 0xffffffffffffff60\n 29370: u64 [sp + 0x98] = ra\n 29374: u64 [sp + 0x90] = s0\n 29378: u64 [sp + 0x88] = s1\n 29382: s0 = sp + 0xa0\n 29386: sp = sp & 0xfffffffffffffff0\n 29389: a3 = u64 [a2 + 0x10]\n 29392: a4 = u64 [a2 + 0x18]\n 29395: a5 = u64 [a2 + 0x8]\n 29398: a2 = u64 [a2]\n 29400: a4 = a4 | a5\n 29403: a2 = a2 | a3\n 29406: a2 = a2 | a4\n 29409: jump @386 if a2 != 0\n      : @384 (gas: 12)\n 29412: s1 = a0\n 29414: a2 = u64 [a1 + 0x18]\n 29417: a0 = u64 [a1 + 0x10]\n 29420: a3 = u64 [a1 + 0x8]\n 29423: a1 = u64 [a1]\n 29425: u64 [sp] = a1\n 29427: u64 [sp + 0x8] = a3\n 29430: u64 [sp + 0x10] = a0\n 29433: a0 = sp + 0x20\n 29436: a1 = sp\n 29438: u64 [sp + 0x18] = a2\n 29441: ra = 326, jump @373\n      : @385 [@dyn 163] (gas: 14)\n 29447: a0 = u64 [sp + 0x30]\n 29450: a1 = u64 [sp + 0x38]\n 29453: a2 = u64 [sp + 0x20]\n 29456: a3 = u64 [sp + 0x28]\n 29459: u64 [s1 + 0x10] = a0\n 29462: u64 [s1 + 0x18] = a1\n 29465: u64 [s1] = a2\n 29467: u64 [s1 + 0x8] = a3\n 29470: sp = s0 + 0xffffffffffffff60\n 29474: ra = u64 [sp + 0x98]\n 29478: s0 = u64 [sp + 0x90]\n 29482: s1 = u64 [sp + 0x88]\n 29486: sp = sp + 0xa0\n 29490: ret\n      : @386 (gas: 8)\n 29492: u64 [sp + 112] = 0\n 29495: u64 [sp + 104] = 0\n 29498: u64 [sp + 96] = 0\n 29501: a0 = 0x4e487b7100000000\n 29511: a1 = sp + 0x60\n 29514: u64 [sp + 0x78] = a0\n 29517: a0 = 0\n 29519: ra = 328, jump @23\n      : @387 [@dyn 164] (gas: 7)\n 29525: u64 [sp + 88] = 0\n 29528: u64 [sp + 80] = 0\n 29531: u64 [sp + 72] = 0\n 29534: a0 = 0x4\n 29537: a1 = sp + 0x40\n 29540: u64 [sp + 64] = 0\n 29543: ra = 330, jump @23\n      : @388 [@dyn 165] (gas: 3)\n 29549: a1 = 0x24\n 29552: a0 = 0\n 29554: ra = 332, jump @0\n      : @389 [@dyn 166] (gas: 6)\n 29560: i32 a1 = a0 + 0\n 29562: a0 = 0x1\n 29565: a2 = 0x24\n 29568: ra = 0x14e\n 29572: ecalli 14 // 'seal_return'\n 29574: fallthrough\n      : @390 [@dyn 167] (gas: 14)\n 29575: sp = sp + 0xffffffffffffffa0\n 29578: u64 [sp + 0x58] = ra\n 29581: u64 [sp + 0x50] = s0\n 29584: u64 [sp + 0x48] = s1\n 29587: s0 = sp + 0x60\n 29590: sp = sp & 0xfffffffffffffff0\n 29593: s1 = a0\n 29595: u64 [sp + 24] = 0\n 29598: u64 [sp + 16] = 0\n 29601: u64 [sp + 0] = 0x1\n 29604: a0 = sp + 0x20\n 29607: a1 = sp\n 29609: u64 [sp + 8] = 0\n 29612: ra = 336, jump @373\n      : @391 [@dyn 168] (gas: 14)\n 29618: a0 = u64 [sp + 0x30]\n 29621: a1 = u64 [sp + 0x38]\n 29624: a2 = u64 [sp + 0x20]\n 29627: a3 = u64 [sp + 0x28]\n 29630: u64 [s1 + 0x10] = a0\n 29633: u64 [s1 + 0x18] = a1\n 29636: u64 [s1] = a2\n 29638: u64 [s1 + 0x8] = a3\n 29641: sp = s0 + 0xffffffffffffffa0\n 29644: ra = u64 [sp + 0x58]\n 29647: s0 = u64 [sp + 0x50]\n 29650: s1 = u64 [sp + 0x48]\n 29653: sp = sp + 0x60\n 29656: ret\n      : @392 (gas: 8)\n 29658: a0 = u64 [sp + 0x110]\n 29662: a1 = u64 [sp + 0x118]\n 29666: a2 = u64 [sp + 0x108]\n 29670: a3 = u64 [sp + 0x100]\n 29674: a1 = a1 | a2\n 29677: a0 = a0 | a3\n 29680: a0 = a0 | a1\n 29683: jump @401 if a0 != 0\n      : @393 (gas: 2)\n 29687: a0 = i32 [0x20078]\n 29692: jump @401 if a0 <=u 3\n      : @394 (gas: 7)\n 29697: u64 [sp + 216] = 0\n 29701: u64 [sp + 208] = 0\n 29705: u64 [sp + 192] = 0x1\n 29710: a0 = sp + 0xe0\n 29714: a1 = sp + 0xc0\n 29718: u64 [sp + 200] = 0\n 29722: ra = 338, jump @373\n      : @395 [@dyn 169] (gas: 11)\n 29728: a0 = u64 [sp + 0xf8]\n 29732: u64 [sp + 0x40] = a0\n 29735: a0 = u64 [sp + 0xf0]\n 29739: u64 [sp + 0x48] = a0\n 29742: a0 = u64 [sp + 0xe8]\n 29746: u64 [sp + 0x50] = a0\n 29749: a0 = u64 [sp + 0xe0]\n 29753: u64 [sp + 0x58] = a0\n 29756: a0 = 0x40\n 29759: a1 = 0x20\n 29762: ra = 340, jump @0\n      : @396 [@dyn 170] (gas: 100)\n 29768: a1 = u8 [a0 + 0x11]\n 29771: a2 = u8 [a0 + 0x10]\n 29774: a3 = u8 [a0 + 0x12]\n 29777: a4 = u8 [a0 + 0x13]\n 29780: a1 = a1 << 0x8\n 29783: a1 = a1 | a2\n 29786: a3 = a3 << 0x10\n 29789: a4 = a4 << 0x18\n 29792: a3 = a3 | a4\n 29795: a1 = a1 | a3\n 29798: a2 = u8 [a0 + 0x15]\n 29801: a3 = u8 [a0 + 0x14]\n 29804: a4 = u8 [a0 + 0x16]\n 29807: a5 = u8 [a0 + 0x17]\n 29810: a2 = a2 << 0x8\n 29813: a2 = a2 | a3\n 29816: a4 = a4 << 0x10\n 29819: a5 = a5 << 0x18\n 29822: a4 = a4 | a5\n 29825: a2 = a2 | a4\n 29828: a2 = a2 << 0x20\n 29831: t0 = a2 | a1\n 29834: a2 = u8 [a0 + 0x1]\n 29837: a3 = u8 [a0]\n 29839: a4 = u8 [a0 + 0x2]\n 29842: a5 = u8 [a0 + 0x3]\n 29845: a2 = a2 << 0x8\n 29848: a2 = a2 | a3\n 29851: a4 = a4 << 0x10\n 29854: a5 = a5 << 0x18\n 29857: a4 = a4 | a5\n 29860: a2 = a2 | a4\n 29863: a3 = u8 [a0 + 0x5]\n 29866: a4 = u8 [a0 + 0x4]\n 29869: a5 = u8 [a0 + 0x6]\n 29872: s1 = u8 [a0 + 0x7]\n 29875: a3 = a3 << 0x8\n 29878: a3 = a3 | a4\n 29881: a5 = a5 << 0x10\n 29884: s1 = s1 << 0x18\n 29887: a5 = a5 | s1\n 29890: a3 = a3 | a5\n 29893: a3 = a3 << 0x20\n 29896: a2 = a2 | a3\n 29899: a3 = u8 [a0 + 0x19]\n 29902: a4 = u8 [a0 + 0x18]\n 29905: a5 = u8 [a0 + 0x1a]\n 29908: s1 = u8 [a0 + 0x1b]\n 29911: a3 = a3 << 0x8\n 29914: a3 = a3 | a4\n 29917: a5 = a5 << 0x10\n 29920: s1 = s1 << 0x18\n 29923: a5 = a5 | s1\n 29926: a3 = a3 | a5\n 29929: a4 = u8 [a0 + 0x1d]\n 29932: a5 = u8 [a0 + 0x1c]\n 29935: s1 = u8 [a0 + 0x1e]\n 29938: a1 = u8 [a0 + 0x1f]\n 29941: a4 = a4 << 0x8\n 29944: a4 = a4 | a5\n 29947: s1 = s1 << 0x10\n 29950: a1 = a1 << 0x18\n 29953: a1 = a1 | s1\n 29956: a1 = a1 | a4\n 29959: a1 = a1 << 0x20\n 29962: a3 = a3 | a1\n 29965: a1 = u8 [a0 + 0x9]\n 29968: a4 = u8 [a0 + 0x8]\n 29971: a5 = u8 [a0 + 0xa]\n 29974: s1 = u8 [a0 + 0xb]\n 29977: a1 = a1 << 0x8\n 29980: a1 = a1 | a4\n 29983: a5 = a5 << 0x10\n 29986: s1 = s1 << 0x18\n 29989: a5 = a5 | s1\n 29992: a1 = a1 | a5\n 29995: a4 = u8 [a0 + 0xd]\n 29998: a5 = u8 [a0 + 0xc]\n 30001: s1 = u8 [a0 + 0xe]\n 30004: a0 = u8 [a0 + 0xf]\n 30007: a4 = a4 << 0x8\n 30010: a4 = a4 | a5\n 30013: s1 = s1 << 0x10\n 30016: a0 = a0 << 0x18\n 30019: a0 = a0 | s1\n 30022: a0 = a0 | a4\n 30025: a0 = a0 << 0x20\n 30028: a0 = a0 | a1\n 30031: s1 = reverse a0\n 30033: a3 = reverse a3\n 30035: a4 = reverse a2\n 30037: a2 = reverse t0\n 30039: a0 = a2 | a4\n 30042: a1 = a3 | s1\n 30045: a1 = a1 | a0\n 30048: a1 = a1 >> 0x20\n 30051: a0 = a0 | s1\n 30054: a0 = a0 << 0x20\n 30057: a0 = a0 | a1\n 30060: jump @400 if a0 != 0\n      : @397 (gas: 19)\n 30064: a0 = a3 + 0x20\n 30067: u64 [sp + 0x18] = a0\n 30070: a0 = a0 <u a3\n 30073: a1 = a2 + a0\n 30076: u64 [sp + 0x8] = a1\n 30079: a1 = a1 <u a2\n 30082: a1 = a0 if a0 == 0\n 30085: a1 = a1 + s1\n 30088: u64 [sp + 0x10] = a1\n 30091: a0 = a1 <u s1\n 30094: a0 = a0 + a4\n 30097: u64 [sp + 0x20] = a0\n 30100: i32 a0 = a3 + 0\n 30102: a1 = 0x20\n 30105: u64 [sp] = a0\n 30107: u64 [sp + 0x30] = a3\n 30110: u64 [sp + 0x28] = a2\n 30113: u64 [sp + 0x38] = a4\n 30116: ra = 342, jump @0\n      : @398 [@dyn 171] (gas: 52)\n 30122: u8 [a0 + 31] = 0x20\n 30126: u8 [a0 + 30] = 0\n 30129: u8 [a0 + 29] = 0\n 30132: u8 [a0 + 28] = 0\n 30135: u8 [a0 + 27] = 0\n 30138: u8 [a0 + 26] = 0\n 30141: u8 [a0 + 25] = 0\n 30144: u8 [a0 + 24] = 0\n 30147: u8 [a0 + 23] = 0\n 30150: u8 [a0 + 22] = 0\n 30153: u8 [a0 + 21] = 0\n 30156: u8 [a0 + 20] = 0\n 30159: u8 [a0 + 19] = 0\n 30162: u8 [a0 + 18] = 0\n 30165: u8 [a0 + 17] = 0\n 30168: u8 [a0 + 16] = 0\n 30171: u8 [a0 + 15] = 0\n 30174: u8 [a0 + 14] = 0\n 30177: u8 [a0 + 13] = 0\n 30180: u8 [a0 + 12] = 0\n 30183: u8 [a0 + 11] = 0\n 30186: u8 [a0 + 10] = 0\n 30189: u8 [a0 + 9] = 0\n 30192: u8 [a0 + 8] = 0\n 30195: u8 [a0 + 7] = 0\n 30198: u8 [a0 + 6] = 0\n 30201: u8 [a0 + 5] = 0\n 30204: u8 [a0 + 4] = 0\n 30207: u8 [a0 + 3] = 0\n 30210: u8 [a0 + 2] = 0\n 30213: u8 [a0 + 1] = 0\n 30216: u8 [a0 + 0] = 0\n 30218: a0 = u64 [sp + 0x8]\n 30221: u64 [sp + 0x68] = a0\n 30224: a0 = u64 [sp + 0x18]\n 30227: u64 [sp + 0x60] = a0\n 30230: a0 = u64 [sp + 0x40]\n 30233: u64 [sp + 0x98] = a0\n 30237: a0 = u64 [sp + 0x48]\n 30240: u64 [sp + 0x90] = a0\n 30244: a0 = u64 [sp + 0x50]\n 30247: u64 [sp + 0x88] = a0\n 30251: a0 = u64 [sp + 0x58]\n 30254: u64 [sp + 0x80] = a0\n 30258: a0 = u64 [sp + 0x10]\n 30261: u64 [sp + 0x70] = a0\n 30264: a0 = sp + 0xa0\n 30268: a1 = sp + 0x80\n 30272: a2 = sp + 0x60\n 30275: a3 = u64 [sp + 0x20]\n 30278: u64 [sp + 0x78] = a3\n 30281: ra = 344, jump @468\n      : @399 [@dyn 172] (gas: 30)\n 30287: a0 = u64 [sp + 0xa8]\n 30291: t0 = u64 [sp + 0xb8]\n 30295: t1 = u64 [sp + 0xa0]\n 30299: a3 = u64 [sp + 0xb0]\n 30303: a1 = u64 [sp + 0x28]\n 30306: a4 = a0 ^ a1\n 30309: a5 = a0 <u a1\n 30312: t2 = a1\n 30314: a2 = u64 [sp + 0x30]\n 30317: a1 = t1 <u a2\n 30320: a5 = a1 if a4 == 0\n 30323: a4 = a3 - s1\n 30326: a3 = a3 <u s1\n 30329: s1 = u64 [sp + 0x38]\n 30332: s1 = t0 - s1\n 30335: s1 = s1 - a3\n 30338: a3 = a4 <u a5\n 30341: s1 = s1 - a3\n 30344: a4 = a4 - a5\n 30347: a0 = a0 - t2\n 30350: a1 = a0 - a1\n 30353: a0 = t1 - a2\n 30356: a1 = a1 | s1\n 30359: a2 = a0 | a4\n 30362: a2 = a2 | a1\n 30365: a1 = a1 | a4\n 30368: a2 = a2 >> 0x20\n 30371: a1 = a1 << 0x20\n 30374: a1 = a1 | a2\n 30377: jump @403 if a1 == 0\n      : @400 (gas: 1)\n 30380: trap\n      : @401 (gas: 3)\n 30381: a0 = 0\n 30383: a1 = 0\n 30385: ra = 346, jump @0\n      : @402 [@dyn 173] (gas: 5)\n 30391: i32 a1 = a0 + 0\n 30393: a0 = 0x1\n 30396: a2 = 0\n 30398: ecalli 14 // 'seal_return'\n 30400: fallthrough\n      : @403 (gas: 4)\n 30401: i32 s1 = a0 + 0\n 30403: a0 = u64 [sp]\n 30405: a1 = s1\n 30407: ra = 348, jump @0\n      : @404 [@dyn 174] (gas: 6)\n 30413: i32 a1 = a0 + 0\n 30415: a0 = 0\n 30417: a2 = s1\n 30419: ra = 0x15e\n 30423: ecalli 14 // 'seal_return'\n 30425: fallthrough\n      : @405 [@dyn 175] (gas: 18)\n 30426: sp = sp + 0xffffffffffffffc0\n 30429: u64 [sp + 0x38] = ra\n 30432: u64 [sp + 0x30] = s0\n 30435: u64 [sp + 0x28] = s1\n 30438: s0 = sp + 0x40\n 30441: sp = sp & 0xffffffffffffffe0\n 30444: a2 = u64 [a1 + 0x10]\n 30447: a3 = u64 [a1 + 0x18]\n 30450: a4 = u64 [a1 + 0x8]\n 30453: a1 = u64 [a1]\n 30455: a3 = a3 | a4\n 30458: a4 = a1 | a2\n 30461: a4 = a4 | a3\n 30464: a4 = a4 >> 0x20\n 30467: a2 = a2 | a3\n 30470: a2 = a2 << 0x20\n 30473: a2 = a2 | a4\n 30476: jump @409 if a2 != 0\n      : @406 (gas: 5)\n 30479: s1 = a0\n 30481: i32 a1 = a1 + 0\n 30483: i32 a0 = sp + 0\n 30485: ecalli 3 // 'call_data_load'\n 30487: fallthrough\n      : @407 (gas: 10)\n 30488: a0 = u64 [sp + 0x10]\n 30491: a1 = u64 [sp + 0x18]\n 30494: a2 = 0x100000000\n 30504: a2 = a2 ^ a0\n 30507: a2 = a2 | a1\n 30510: a3 = a0 >> 0x20\n 30513: a3 = a3 <u 0x1\n 30516: a3 = 0 if a1 != 0\n 30518: a3 = 0 if a2 == 0\n 30520: jump @410 if a3 == 0\n      : @408 (gas: 12)\n 30523: a2 = u64 [sp]\n 30525: a3 = u64 [sp + 0x8]\n 30528: u64 [s1] = a2\n 30530: u64 [s1 + 0x8] = a3\n 30533: u64 [s1 + 0x10] = a0\n 30536: u64 [s1 + 0x18] = a1\n 30539: sp = s0 + 0xffffffffffffffc0\n 30542: ra = u64 [sp + 0x38]\n 30545: s0 = u64 [sp + 0x30]\n 30548: s1 = u64 [sp + 0x28]\n 30551: sp = sp + 0x40\n 30554: ret\n      : @409 (gas: 1)\n 30556: trap\n      : @410 (gas: 3)\n 30557: a0 = 0\n 30559: a1 = 0\n 30561: ra = 352, jump @0\n      : @411 [@dyn 176] (gas: 6)\n 30567: i32 a1 = a0 + 0\n 30569: a0 = 0x1\n 30572: a2 = 0\n 30574: ra = 0x162\n 30578: ecalli 14 // 'seal_return'\n 30580: fallthrough\n      : @412 [@dyn 177] (gas: 52)\n 30581: sp = sp + 0xffffffffffffff80\n 30584: u64 [sp + 0x78] = ra\n 30587: u64 [sp + 0x70] = s0\n 30590: u64 [sp + 0x68] = s1\n 30593: s0 = sp + 0x80\n 30597: sp = sp & 0xffffffffffffffe0\n 30600: t2 = u64 [a1 + 0x10]\n 30603: a5 = u64 [a1 + 0x8]\n 30606: t0 = u64 [a2 + 0x8]\n 30609: s1 = u64 [a1]\n 30611: u64 [sp + 0x10] = s1\n 30614: a4 = u64 [a2]\n 30616: u64 [sp + 0x18] = a4\n 30619: ra = u64 [a2 + 0x10]\n 30622: a3 = t0 ^ a5\n 30625: u64 [sp + 0x38] = a3\n 30628: a3 = t0 <u a5\n 30631: a4 = a4 <u s1\n 30634: t1 = u64 [sp + 0x38]\n 30637: a3 = a4 if t1 == 0\n 30640: t1 = a4\n 30642: a1 = u64 [a1 + 0x18]\n 30645: u64 [sp + 0x38] = a1\n 30648: a1 = u64 [a2 + 0x18]\n 30651: u64 [sp + 0x20] = a1\n 30654: a1 = ra - t2\n 30657: a2 = a1 - a3\n 30660: u64 [sp + 0x28] = a2\n 30663: a2 = a1 <u a3\n 30666: u64 [sp + 0x30] = t2\n 30669: a3 = ra <u t2\n 30672: a1 = u64 [sp + 0x38]\n 30675: a4 = u64 [sp + 0x20]\n 30678: a1 = a4 - a1\n 30681: a1 = a1 - a3\n 30684: t2 = a1 - a2\n 30687: s1 = t0 - a5\n 30690: a2 = s1 - t1\n 30693: t0 = u64 [sp + 0x10]\n 30696: a1 = u64 [sp + 0x18]\n 30699: a3 = a1 - t0\n 30702: a4 = a2 >u 0\n 30704: a3 = a3 <u 0x20\n 30707: a3 = a3 ^ 0x1\n 30710: a3 = a4 if a2 != 0\n 30713: a2 = t2 >s 0\n 30715: a1 = u64 [sp + 0x28]\n 30718: a4 = a1 >u 0\n 30720: a4 = a2 if t2 != 0\n 30723: a1 = a1 | t2\n 30726: a3 = a4 if a1 != 0\n 30729: jump @418 if a3 == 0\n      : @413 (gas: 11)\n 30732: s1 = a0\n 30734: a2 = u64 [sp + 0x30]\n 30737: a0 = t0 | a2\n 30740: a1 = u64 [sp + 0x38]\n 30743: a1 = a1 | a5\n 30746: a0 = a0 | a1\n 30749: a0 = a0 >> 0x20\n 30752: a1 = a1 | a2\n 30755: a1 = a1 << 0x20\n 30758: a0 = a0 | a1\n 30761: jump @417 if a0 != 0\n      : @414 (gas: 4)\n 30764: i32 a1 = t0 + 0\n 30766: i32 a0 = sp + 0x40\n 30769: ecalli 3 // 'call_data_load'\n 30771: fallthrough\n      : @415 (gas: 10)\n 30772: a0 = u64 [sp + 0x50]\n 30775: a1 = u64 [sp + 0x58]\n 30778: a2 = 0x100000000\n 30788: a2 = a2 ^ a0\n 30791: a2 = a2 | a1\n 30794: a3 = a0 >> 0x20\n 30797: a3 = a3 <u 0x1\n 30800: a3 = 0 if a1 != 0\n 30802: a3 = 0 if a2 == 0\n 30804: jump @418 if a3 == 0\n      : @416 (gas: 12)\n 30807: a2 = u64 [sp + 0x48]\n 30810: a3 = u64 [sp + 0x40]\n 30813: u64 [s1 + 0x8] = a2\n 30816: u64 [s1] = a3\n 30818: u64 [s1 + 0x10] = a0\n 30821: u64 [s1 + 0x18] = a1\n 30824: sp = s0 + 0xffffffffffffff80\n 30827: ra = u64 [sp + 0x78]\n 30830: s0 = u64 [sp + 0x70]\n 30833: s1 = u64 [sp + 0x68]\n 30836: sp = sp + 0x80\n 30840: ret\n      : @417 (gas: 1)\n 30842: trap\n      : @418 (gas: 3)\n 30843: a0 = 0\n 30845: a1 = 0\n 30847: ra = 356, jump @0\n      : @419 [@dyn 178] (gas: 6)\n 30853: i32 a1 = a0 + 0\n 30855: a0 = 0x1\n 30858: a2 = 0\n 30860: ra = 0x166\n 30864: ecalli 14 // 'seal_return'\n 30866: fallthrough\n      : @420 [@dyn 179] (gas: 9)\n 30867: a2 = u64 [a1 + 0x18]\n 30870: a3 = u64 [a1 + 0x10]\n 30873: a4 = u64 [a1 + 0x8]\n 30876: a1 = u64 [a1]\n 30878: u64 [a0 + 0x18] = a2\n 30881: u64 [a0 + 0x10] = a3\n 30884: u64 [a0 + 0x8] = a4\n 30887: u64 [a0] = a1\n 30889: ret\n      : @421 (gas: 8)\n 30891: a0 = u64 [sp + 0x30]\n 30894: a1 = u64 [sp + 0x38]\n 30897: a2 = u64 [sp + 0x28]\n 30900: a3 = u64 [sp + 0x20]\n 30903: a1 = a1 | a2\n 30906: a0 = a0 | a3\n 30909: a0 = a0 | a1\n 30912: jump @429 if a0 != 0\n      : @422 (gas: 2)\n 30916: a0 = i32 [0x20078]\n 30921: jump @429 if a0 <=u 35\n      : @423 (gas: 4)\n 30926: i32 a0 = sp + 0x40\n 30929: a1 = 0x4\n 30932: ecalli 3 // 'call_data_load'\n 30934: fallthrough\n      : @424 (gas: 10)\n 30935: a0 = u64 [sp + 0x50]\n 30938: a1 = u64 [sp + 0x58]\n 30941: a2 = 0x100000000\n 30951: a2 = a2 ^ a0\n 30954: a2 = a2 | a1\n 30957: a3 = a0 >> 0x20\n 30960: a3 = a3 <u 0x1\n 30963: a3 = 0 if a1 != 0\n 30965: a3 = 0 if a2 == 0\n 30967: jump @429 if a3 == 0\n      : @425 (gas: 8)\n 30971: a2 = u64 [sp + 0x48]\n 30974: a3 = u64 [sp + 0x40]\n 30977: u64 [sp + 0x8] = a2\n 30980: u64 [sp] = a3\n 30982: u64 [sp + 0x10] = a0\n 30985: a0 = sp\n 30987: u64 [sp + 0x18] = a1\n 30990: ra = 360, jump @753\n      : @426 [@dyn 180] (gas: 3)\n 30996: a0 = 0x40\n 30999: a1 = 0x20\n 31002: ra = 362, jump @0\n      : @427 [@dyn 181] (gas: 100)\n 31008: a1 = u8 [a0 + 0x11]\n 31011: a2 = u8 [a0 + 0x10]\n 31014: a3 = u8 [a0 + 0x12]\n 31017: a4 = u8 [a0 + 0x13]\n 31020: a1 = a1 << 0x8\n 31023: a1 = a1 | a2\n 31026: a3 = a3 << 0x10\n 31029: a4 = a4 << 0x18\n 31032: a3 = a3 | a4\n 31035: a1 = a1 | a3\n 31038: a2 = u8 [a0 + 0x15]\n 31041: a3 = u8 [a0 + 0x14]\n 31044: a4 = u8 [a0 + 0x16]\n 31047: a5 = u8 [a0 + 0x17]\n 31050: a2 = a2 << 0x8\n 31053: a2 = a2 | a3\n 31056: a4 = a4 << 0x10\n 31059: a5 = a5 << 0x18\n 31062: a4 = a4 | a5\n 31065: a2 = a2 | a4\n 31068: a2 = a2 << 0x20\n 31071: t0 = a2 | a1\n 31074: a2 = u8 [a0 + 0x1]\n 31077: a3 = u8 [a0]\n 31079: a4 = u8 [a0 + 0x2]\n 31082: a5 = u8 [a0 + 0x3]\n 31085: a2 = a2 << 0x8\n 31088: a2 = a2 | a3\n 31091: a4 = a4 << 0x10\n 31094: a5 = a5 << 0x18\n 31097: a4 = a4 | a5\n 31100: a2 = a2 | a4\n 31103: a3 = u8 [a0 + 0x5]\n 31106: a4 = u8 [a0 + 0x4]\n 31109: a5 = u8 [a0 + 0x6]\n 31112: a1 = u8 [a0 + 0x7]\n 31115: a3 = a3 << 0x8\n 31118: a3 = a3 | a4\n 31121: a5 = a5 << 0x10\n 31124: a1 = a1 << 0x18\n 31127: a1 = a1 | a5\n 31130: a1 = a1 | a3\n 31133: a1 = a1 << 0x20\n 31136: t1 = a1 | a2\n 31139: a1 = u8 [a0 + 0x19]\n 31142: a3 = u8 [a0 + 0x18]\n 31145: a4 = u8 [a0 + 0x1a]\n 31148: a5 = u8 [a0 + 0x1b]\n 31151: a1 = a1 << 0x8\n 31154: a1 = a1 | a3\n 31157: a4 = a4 << 0x10\n 31160: a5 = a5 << 0x18\n 31163: a4 = a4 | a5\n 31166: a1 = a1 | a4\n 31169: a3 = u8 [a0 + 0x1d]\n 31172: a4 = u8 [a0 + 0x1c]\n 31175: a5 = u8 [a0 + 0x1e]\n 31178: a2 = u8 [a0 + 0x1f]\n 31181: a3 = a3 << 0x8\n 31184: a3 = a3 | a4\n 31187: a5 = a5 << 0x10\n 31190: a2 = a2 << 0x18\n 31193: a2 = a2 | a5\n 31196: a2 = a2 | a3\n 31199: a2 = a2 << 0x20\n 31202: a3 = a2 | a1\n 31205: a1 = u8 [a0 + 0x9]\n 31208: a2 = u8 [a0 + 0x8]\n 31211: a4 = u8 [a0 + 0xa]\n 31214: a5 = u8 [a0 + 0xb]\n 31217: a1 = a1 << 0x8\n 31220: a1 = a1 | a2\n 31223: a4 = a4 << 0x10\n 31226: a5 = a5 << 0x18\n 31229: a4 = a4 | a5\n 31232: a1 = a1 | a4\n 31235: a2 = u8 [a0 + 0xd]\n 31238: a4 = u8 [a0 + 0xc]\n 31241: a5 = u8 [a0 + 0xe]\n 31244: a0 = u8 [a0 + 0xf]\n 31247: a2 = a2 << 0x8\n 31250: a2 = a2 | a4\n 31253: a5 = a5 << 0x10\n 31256: a0 = a0 << 0x18\n 31259: a0 = a0 | a5\n 31262: a0 = a0 | a2\n 31265: a0 = a0 << 0x20\n 31268: a0 = a0 | a1\n 31271: a1 = reverse a0\n 31273: a0 = reverse a3\n 31275: a2 = reverse t1\n 31277: a3 = reverse t0\n 31279: a2 = a2 | a3\n 31282: a3 = a0 | a1\n 31285: a3 = a3 | a2\n 31288: a3 = a3 >> 0x20\n 31291: a1 = a1 | a2\n 31294: a1 = a1 << 0x20\n 31297: a1 = a1 | a3\n 31300: jump @431 if a1 == 0\n      : @428 (gas: 1)\n 31303: trap\n      : @429 (gas: 3)\n 31304: a0 = 0\n 31306: a1 = 0\n 31308: ra = 364, jump @0\n      : @430 [@dyn 182] (gas: 7)\n 31314: i32 a1 = a0 + 0\n 31316: a0 = 0x1\n 31319: a2 = 0\n 31321: ecalli 14 // 'seal_return'\n 31323: i32 a0 = a0 + 0\n 31325: ra = 0x16e\n 31329: jump @0\n      : @431 (gas: 2)\n 31332: i32 a0 = a0 + 0\n 31334: ra = 366, jump @0\n      : @432 [@dyn 183] (gas: 6)\n 31340: i32 a1 = a0 + 0\n 31342: a0 = 0\n 31344: a2 = 0\n 31346: ra = 0x170\n 31350: ecalli 14 // 'seal_return'\n 31352: fallthrough\n      : @433 [@dyn 184] (gas: 9)\n 31353: a2 = u64 [a1 + 0x18]\n 31356: a3 = u64 [a1 + 0x10]\n 31359: a4 = u64 [a1 + 0x8]\n 31362: a1 = u64 [a1]\n 31364: u64 [a0 + 0x18] = a2\n 31367: u64 [a0 + 0x10] = a3\n 31370: u64 [a0 + 0x8] = a4\n 31373: u64 [a0] = a1\n 31375: ret\n      : @434 (gas: 8)\n 31377: a0 = u64 [sp + 0x30]\n 31380: a1 = u64 [sp + 0x38]\n 31383: a2 = u64 [sp + 0x28]\n 31386: a3 = u64 [sp + 0x20]\n 31389: a1 = a1 | a2\n 31392: a0 = a0 | a3\n 31395: a0 = a0 | a1\n 31398: jump @439 if a0 != 0\n      : @435 (gas: 2)\n 31402: a1 = i32 [0x20078]\n 31407: jump @439 if a1 <=u 3\n      : @436 (gas: 26)\n 31412: u64 [sp + 88] = 0\n 31415: u64 [sp + 80] = 0\n 31418: u64 [sp + 72] = 0\n 31421: u64 [sp + 64] = 0x3\n 31425: u64 [sp + 120] = 0\n 31428: u64 [sp + 112] = 0\n 31431: u64 [sp + 104] = 0\n 31434: u64 [sp + 96] = 0\n 31437: u32 [sp + 128] = 0x20\n 31442: i32 a1 = sp + 0x40\n 31445: i32 a3 = sp + 0x60\n 31448: i32 a4 = sp + 0x80\n 31452: a2 = 0xffffffffffffffff\n 31455: a0 = 0\n 31457: ecalli 8 // 'get_storage'\n 31459: a0 = u64 [sp + 0x78]\n 31462: u64 [sp] = a0\n 31464: a0 = u64 [sp + 0x70]\n 31467: u64 [sp + 0x8] = a0\n 31470: a0 = u64 [sp + 0x68]\n 31473: u64 [sp + 0x10] = a0\n 31476: a0 = u64 [sp + 0x60]\n 31479: u64 [sp + 0x18] = a0\n 31482: a0 = 0x40\n 31485: a1 = 0x20\n 31488: ra = 370, jump @0\n      : @437 [@dyn 185] (gas: 100)\n 31494: a1 = u8 [a0 + 0x11]\n 31497: a2 = u8 [a0 + 0x10]\n 31500: a3 = u8 [a0 + 0x12]\n 31503: a4 = u8 [a0 + 0x13]\n 31506: a1 = a1 << 0x8\n 31509: a1 = a1 | a2\n 31512: a3 = a3 << 0x10\n 31515: a4 = a4 << 0x18\n 31518: a3 = a3 | a4\n 31521: a1 = a1 | a3\n 31524: a2 = u8 [a0 + 0x15]\n 31527: a3 = u8 [a0 + 0x14]\n 31530: a4 = u8 [a0 + 0x16]\n 31533: a5 = u8 [a0 + 0x17]\n 31536: a2 = a2 << 0x8\n 31539: a2 = a2 | a3\n 31542: a4 = a4 << 0x10\n 31545: a5 = a5 << 0x18\n 31548: a4 = a4 | a5\n 31551: a2 = a2 | a4\n 31554: a2 = a2 << 0x20\n 31557: t0 = a2 | a1\n 31560: a2 = u8 [a0 + 0x1]\n 31563: a3 = u8 [a0]\n 31565: a4 = u8 [a0 + 0x2]\n 31568: a5 = u8 [a0 + 0x3]\n 31571: a2 = a2 << 0x8\n 31574: a2 = a2 | a3\n 31577: a4 = a4 << 0x10\n 31580: a5 = a5 << 0x18\n 31583: a4 = a4 | a5\n 31586: a2 = a2 | a4\n 31589: a3 = u8 [a0 + 0x5]\n 31592: a4 = u8 [a0 + 0x4]\n 31595: a5 = u8 [a0 + 0x6]\n 31598: s1 = u8 [a0 + 0x7]\n 31601: a3 = a3 << 0x8\n 31604: a3 = a3 | a4\n 31607: a5 = a5 << 0x10\n 31610: s1 = s1 << 0x18\n 31613: a5 = a5 | s1\n 31616: a3 = a3 | a5\n 31619: a3 = a3 << 0x20\n 31622: a2 = a2 | a3\n 31625: a3 = u8 [a0 + 0x19]\n 31628: a4 = u8 [a0 + 0x18]\n 31631: a5 = u8 [a0 + 0x1a]\n 31634: s1 = u8 [a0 + 0x1b]\n 31637: a3 = a3 << 0x8\n 31640: a3 = a3 | a4\n 31643: a5 = a5 << 0x10\n 31646: s1 = s1 << 0x18\n 31649: a5 = a5 | s1\n 31652: a3 = a3 | a5\n 31655: a4 = u8 [a0 + 0x1d]\n 31658: a5 = u8 [a0 + 0x1c]\n 31661: s1 = u8 [a0 + 0x1e]\n 31664: a1 = u8 [a0 + 0x1f]\n 31667: a4 = a4 << 0x8\n 31670: a4 = a4 | a5\n 31673: s1 = s1 << 0x10\n 31676: a1 = a1 << 0x18\n 31679: a1 = a1 | s1\n 31682: a1 = a1 | a4\n 31685: a1 = a1 << 0x20\n 31688: a3 = a3 | a1\n 31691: a1 = u8 [a0 + 0x9]\n 31694: a4 = u8 [a0 + 0x8]\n 31697: a5 = u8 [a0 + 0xa]\n 31700: s1 = u8 [a0 + 0xb]\n 31703: a1 = a1 << 0x8\n 31706: a1 = a1 | a4\n 31709: a5 = a5 << 0x10\n 31712: s1 = s1 << 0x18\n 31715: a5 = a5 | s1\n 31718: a1 = a1 | a5\n 31721: a4 = u8 [a0 + 0xd]\n 31724: a5 = u8 [a0 + 0xc]\n 31727: s1 = u8 [a0 + 0xe]\n 31730: a0 = u8 [a0 + 0xf]\n 31733: a4 = a4 << 0x8\n 31736: a4 = a4 | a5\n 31739: s1 = s1 << 0x10\n 31742: a0 = a0 << 0x18\n 31745: a0 = a0 | s1\n 31748: a0 = a0 | a4\n 31751: a0 = a0 << 0x20\n 31754: a0 = a0 | a1\n 31757: a1 = reverse a0\n 31759: a0 = reverse a3\n 31761: a2 = reverse a2\n 31763: a3 = reverse t0\n 31765: a2 = a2 | a3\n 31768: a3 = a0 | a1\n 31771: a3 = a3 | a2\n 31774: a3 = a3 >> 0x20\n 31777: a1 = a1 | a2\n 31780: a1 = a1 << 0x20\n 31783: a1 = a1 | a3\n 31786: jump @441 if a1 == 0\n      : @438 (gas: 1)\n 31789: trap\n      : @439 (gas: 3)\n 31790: a0 = 0\n 31792: a1 = 0\n 31794: ra = 372, jump @0\n      : @440 [@dyn 186] (gas: 5)\n 31800: i32 a1 = a0 + 0\n 31802: a0 = 0x1\n 31805: a2 = 0\n 31807: ecalli 14 // 'seal_return'\n 31809: fallthrough\n      : @441 (gas: 4)\n 31810: i32 s1 = a0 + 0\n 31812: a1 = 0x20\n 31815: a0 = s1\n 31817: ra = 374, jump @0\n      : @442 [@dyn 187] (gas: 71)\n 31823: a1 = u64 [sp]\n 31825: a1 = reverse a1\n 31827: a2 = u64 [sp + 0x8]\n 31830: a2 = reverse a2\n 31832: a3 = u64 [sp + 0x10]\n 31835: a3 = reverse a3\n 31837: a4 = u64 [sp + 0x18]\n 31840: a4 = reverse a4\n 31842: a5 = a4 >> 0x38\n 31845: u8 [a0 + 0x1f] = a5\n 31848: a5 = a4 >> 0x30\n 31851: u8 [a0 + 0x1e] = a5\n 31854: a5 = a4 >> 0x28\n 31857: u8 [a0 + 0x1d] = a5\n 31860: a5 = a4 >> 0x20\n 31863: u8 [a0 + 0x1c] = a5\n 31866: a5 = a4 >> 0x18\n 31869: u8 [a0 + 0x1b] = a5\n 31872: a5 = a4 >> 0x10\n 31875: u8 [a0 + 0x1a] = a5\n 31878: a5 = a4 >> 0x8\n 31881: u8 [a0 + 0x19] = a5\n 31884: u8 [a0 + 0x18] = a4\n 31887: u8 [a0 + 0x10] = a3\n 31890: a4 = a3 >> 0x38\n 31893: u8 [a0 + 0x17] = a4\n 31896: a4 = a3 >> 0x30\n 31899: u8 [a0 + 0x16] = a4\n 31902: a4 = a3 >> 0x28\n 31905: u8 [a0 + 0x15] = a4\n 31908: a4 = a3 >> 0x20\n 31911: u8 [a0 + 0x14] = a4\n 31914: a4 = a3 >> 0x18\n 31917: u8 [a0 + 0x13] = a4\n 31920: a4 = a3 >> 0x10\n 31923: u8 [a0 + 0x12] = a4\n 31926: a3 = a3 >> 0x8\n 31929: u8 [a0 + 0x11] = a3\n 31932: u8 [a0 + 0x8] = a2\n 31935: a3 = a2 >> 0x38\n 31938: u8 [a0 + 0xf] = a3\n 31941: a3 = a2 >> 0x30\n 31944: u8 [a0 + 0xe] = a3\n 31947: a3 = a2 >> 0x28\n 31950: u8 [a0 + 0xd] = a3\n 31953: a3 = a2 >> 0x20\n 31956: u8 [a0 + 0xc] = a3\n 31959: a3 = a2 >> 0x18\n 31962: u8 [a0 + 0xb] = a3\n 31965: a3 = a2 >> 0x10\n 31968: u8 [a0 + 0xa] = a3\n 31971: a2 = a2 >> 0x8\n 31974: u8 [a0 + 0x9] = a2\n 31977: u8 [a0] = a1\n 31979: a2 = a1 >> 0x38\n 31982: u8 [a0 + 0x7] = a2\n 31985: a2 = a1 >> 0x30\n 31988: u8 [a0 + 0x6] = a2\n 31991: a2 = a1 >> 0x28\n 31994: u8 [a0 + 0x5] = a2\n 31997: a2 = a1 >> 0x20\n 32000: u8 [a0 + 0x4] = a2\n 32003: a2 = a1 >> 0x18\n 32006: u8 [a0 + 0x3] = a2\n 32009: a2 = a1 >> 0x10\n 32012: u8 [a0 + 0x2] = a2\n 32015: a1 = a1 >> 0x8\n 32018: u8 [a0 + 0x1] = a1\n 32021: a1 = 0x20\n 32024: a0 = s1\n 32026: ra = 376, jump @0\n      : @443 [@dyn 188] (gas: 6)\n 32032: i32 a1 = a0 + 0\n 32034: a2 = 0x20\n 32037: a0 = 0\n 32039: ra = 0x17a\n 32043: ecalli 14 // 'seal_return'\n 32045: fallthrough\n      : @444 [@dyn 189] (gas: 5)\n 32046: sp = sp + 0xfffffffffffffff8\n 32049: u64 [sp] = ra\n 32051: a0 = 0\n 32053: a1 = 0\n 32055: ra = 380, jump @0\n      : @445 [@dyn 190] (gas: 6)\n 32061: i32 a1 = a0 + 0\n 32063: a0 = 0x1\n 32066: a2 = 0\n 32068: ra = 0x17e\n 32072: ecalli 14 // 'seal_return'\n 32074: fallthrough\n      : @446 [@dyn 191] (gas: 37)\n 32075: sp = sp + 0xffffffffffffff60\n 32079: u64 [sp + 0x98] = ra\n 32083: u64 [sp + 0x90] = s0\n 32087: u64 [sp + 0x88] = s1\n 32091: s0 = sp + 0xa0\n 32095: sp = sp & 0xffffffffffffffe0\n 32098: a4 = u64 [a1]\n 32100: s1 = u64 [a2 + 0x8]\n 32103: ra = u64 [a1 + 0x8]\n 32106: t1 = u64 [a2]\n 32108: a3 = a4 + 0x1f\n 32111: u64 [sp + 0x58] = a4\n 32114: t0 = a3 <u a4\n 32117: a5 = ra + t0\n 32120: u64 [sp + 0x40] = t1\n 32123: t1 = a3 <u t1\n 32126: a3 = a5 ^ s1\n 32129: u64 [sp + 0x48] = s1\n 32132: a4 = a5 <u s1\n 32135: a4 = t1 if a3 == 0\n 32138: t2 = u64 [a1 + 0x10]\n 32141: a3 = a5 <u ra\n 32144: a3 = t0 if t0 == 0\n 32147: t0 = u64 [a2 + 0x18]\n 32150: t1 = u64 [a1 + 0x18]\n 32153: s1 = u64 [a2 + 0x10]\n 32156: a3 = a3 + t2\n 32159: a1 = a3 <u t2\n 32162: a1 = a1 + t1\n 32165: a2 = a1 ^ t0\n 32168: a1 = a1 <s t0\n 32171: a5 = a3 <u s1\n 32174: a1 = a5 if a2 == 0\n 32177: a3 = a3 ^ s1\n 32180: a2 = a2 | a3\n 32183: a4 = a1 if a2 != 0\n 32186: jump @453 if a4 == 0\n      : @447 (gas: 14)\n 32190: u64 [sp + 0x28] = t0\n 32193: u64 [sp + 0x30] = s1\n 32196: u64 [sp + 0x38] = a0\n 32199: a0 = u64 [sp + 0x58]\n 32202: a0 = a0 | t2\n 32205: u64 [sp + 0x18] = t1\n 32208: a1 = ra | t1\n 32211: a0 = a0 | a1\n 32214: a0 = a0 >> 0x20\n 32217: u64 [sp + 0x20] = t2\n 32220: a1 = a1 | t2\n 32223: a1 = a1 << 0x20\n 32226: a0 = a0 | a1\n 32229: jump @452 if a0 != 0\n      : @448 (gas: 5)\n 32233: s1 = ra\n 32235: a1 = i32 [sp + 0x58]\n 32238: i32 a0 = sp + 0x60\n 32241: ecalli 3 // 'call_data_load'\n 32243: fallthrough\n      : @449 (gas: 8)\n 32244: a0 = u64 [sp + 0x78]\n 32247: a1 = u64 [sp + 0x70]\n 32250: t1 = u64 [sp + 0x68]\n 32253: u64 [sp + 0x50] = a0\n 32256: a0 = a0 | a1\n 32259: a3 = t1 <u 0x1\n 32262: a3 = 0 if a0 != 0\n 32264: jump @453 if a3 == 0\n      : @450 (gas: 46)\n 32268: a2 = u64 [sp + 0x60]\n 32271: a0 = u64 [sp + 0x58]\n 32274: a4 = a0 + 0x20\n 32277: a0 = a4 <u a0\n 32280: ra = s1 + a0\n 32283: u64 [sp + 0x10] = a4\n 32286: a4 = a4 + a2\n 32289: u64 [sp + 0x58] = a2\n 32292: t0 = a4 <u a2\n 32295: a5 = t1 + ra\n 32298: a5 = a5 + t0\n 32301: a2 = a5 ^ t1\n 32304: a3 = a5 <u t1\n 32307: a3 = t0 if a2 == 0\n 32310: a2 = ra <u s1\n 32313: a2 = a0 if a0 == 0\n 32316: a0 = u64 [sp + 0x20]\n 32319: t2 = a0 + a2\n 32322: s1 = t2 <u a0\n 32325: a0 = u64 [sp + 0x18]\n 32328: a0 = a0 + s1\n 32331: s1 = u64 [sp + 0x48]\n 32334: a2 = a5 ^ s1\n 32337: a5 = s1 <u a5\n 32340: s1 = u64 [sp + 0x40]\n 32343: a4 = s1 <u a4\n 32346: a4 = a5 if a2 != 0\n 32349: a2 = a1 + t2\n 32352: a5 = a2 <u a1\n 32355: s1 = u64 [sp + 0x50]\n 32358: u64 [sp + 0x48] = a0\n 32361: s1 = s1 + a0\n 32364: a5 = a5 + s1\n 32367: a3 = a3 + a2\n 32370: a2 = a3 <u a2\n 32373: a2 = a2 + a5\n 32376: s1 = u64 [sp + 0x28]\n 32379: a5 = a2 ^ s1\n 32382: t0 = s1 <u a2\n 32385: a2 = u64 [sp + 0x30]\n 32388: s1 = a2 <u a3\n 32391: s1 = t0 if a5 != 0\n 32394: a2 = a2 ^ a3\n 32397: a2 = a2 | a5\n 32400: a4 = s1 if a2 != 0\n 32403: jump @453 if a4 != 0\n      : @451 (gas: 19)\n 32406: a2 = u64 [sp + 0x38]\n 32409: a0 = u64 [sp + 0x58]\n 32412: u64 [a2 + 0x20] = a0\n 32415: a0 = u64 [sp + 0x10]\n 32418: u64 [a2] = a0\n 32420: u64 [a2 + 0x28] = t1\n 32423: u64 [a2 + 0x8] = ra\n 32426: u64 [a2 + 0x30] = a1\n 32429: u64 [a2 + 0x10] = t2\n 32432: a0 = u64 [sp + 0x50]\n 32435: u64 [a2 + 0x38] = a0\n 32438: a0 = u64 [sp + 0x48]\n 32441: u64 [a2 + 0x18] = a0\n 32444: sp = s0 + 0xffffffffffffff60\n 32448: ra = u64 [sp + 0x98]\n 32452: s0 = u64 [sp + 0x90]\n 32456: s1 = u64 [sp + 0x88]\n 32460: sp = sp + 0xa0\n 32464: ret\n      : @452 (gas: 1)\n 32466: trap\n      : @453 (gas: 3)\n 32467: a0 = 0\n 32469: a1 = 0\n 32471: ra = 384, jump @0\n      : @454 [@dyn 192] (gas: 6)\n 32477: i32 a1 = a0 + 0\n 32479: a0 = 0x1\n 32482: a2 = 0\n 32484: ra = 0x182\n 32488: ecalli 14 // 'seal_return'\n 32490: fallthrough\n      : @455 [@dyn 193] (gas: 44)\n 32491: sp = sp + 0xfffffffffffffe00\n 32495: u64 [sp + 0x1f8] = ra\n 32499: u64 [sp + 0x1f0] = s0\n 32503: u64 [sp + 0x1e8] = s1\n 32507: s0 = sp + 0x200\n 32511: sp = sp & 0xffffffffffffffe0\n 32514: s1 = u64 [a2 + 0x8]\n 32517: t2 = u64 [a1 + 0x8]\n 32520: a5 = u64 [a2]\n 32522: a3 = u64 [a1]\n 32524: t0 = u64 [a2 + 0x10]\n 32527: a4 = s1 ^ t2\n 32530: ra = s1 <u t2\n 32533: t1 = a5 <u a3\n 32536: ra = t1 if a4 == 0\n 32539: u64 [sp + 0x78] = s1\n 32542: a4 = s1 - t2\n 32545: a4 = a4 - t1\n 32548: u64 [sp + 0x68] = a5\n 32551: u64 [sp + 0x98] = a3\n 32555: a5 = a5 - a3\n 32558: a5 = a5 <u 0x40\n 32561: a5 = a5 ^ 0x1\n 32564: t1 = u64 [a1 + 0x10]\n 32567: s1 = a4 >u 0\n 32569: a5 = s1 if a4 != 0\n 32572: a4 = u64 [a2 + 0x18]\n 32575: s1 = u64 [a1 + 0x18]\n 32578: a1 = t0 - t1\n 32581: a2 = a1 - ra\n 32584: ra = a1 <u ra\n 32587: u64 [sp + 0x70] = t0\n 32590: a3 = t0 <u t1\n 32593: a1 = s1\n 32595: u64 [sp + 0x60] = a4\n 32598: a4 = a4 - s1\n 32601: a4 = a4 - a3\n 32604: a4 = a4 - ra\n 32607: s1 = a4 >s 0\n 32609: a3 = a2 >u 0\n 32611: a3 = s1 if a4 != 0\n 32614: a2 = a2 | a4\n 32617: a5 = a3 if a2 != 0\n 32620: jump @466 if a5 == 0\n      : @456 (gas: 13)\n 32624: s1 = a0\n 32626: a2 = u64 [sp + 0x98]\n 32630: a0 = a2 | t1\n 32633: u64 [sp + 0x90] = t2\n 32637: u64 [sp + 0x80] = a1\n 32641: a1 = t2 | a1\n 32644: a0 = a0 | a1\n 32647: a0 = a0 >> 0x20\n 32650: u64 [sp + 0x88] = t1\n 32654: a1 = a1 | t1\n 32657: a1 = a1 << 0x20\n 32660: a0 = a0 | a1\n 32663: jump @465 if a0 != 0\n      : @457 (gas: 5)\n 32667: i32 a1 = a2 + 0\n 32669: i32 a0 = sp + 0x1a0\n 32673: u64 [sp + 0x58] = a1\n 32676: ecalli 3 // 'call_data_load'\n 32678: fallthrough\n      : @458 (gas: 7)\n 32679: t0 = u64 [sp + 0x1b8]\n 32683: a1 = u64 [sp + 0x1b0]\n 32687: a2 = u64 [sp + 0x1a8]\n 32691: a3 = a1 | t0\n 32694: a4 = a2 <u 0x1\n 32697: a4 = 0 if a3 != 0\n 32699: jump @466 if a4 == 0\n      : @459 (gas: 35)\n 32703: a3 = u64 [sp + 0x1a0]\n 32707: a4 = u64 [sp + 0x98]\n 32711: a4 = a4 + a3\n 32714: a3 = a4 <u a3\n 32717: a5 = u64 [sp + 0x90]\n 32721: a5 = a5 + a2\n 32724: a5 = a5 + a3\n 32727: a0 = a5 ^ a2\n 32730: a2 = a5 <u a2\n 32733: a2 = a3 if a0 == 0\n 32736: a0 = u64 [sp + 0x88]\n 32740: a0 = a0 + a1\n 32743: a2 = a2 + a0\n 32746: a3 = a2 <u a0\n 32749: a0 = a0 <u a1\n 32752: a1 = u64 [sp + 0x80]\n 32756: t0 = t0 + a1\n 32759: a0 = a0 + t0\n 32762: a3 = a3 + a0\n 32765: a0 = u64 [sp + 0x68]\n 32768: u64 [sp + 0x120] = a0\n 32772: a0 = u64 [sp + 0x78]\n 32775: u64 [sp + 0x128] = a0\n 32779: u64 [sp + 0x140] = a4\n 32783: a0 = u64 [sp + 0x70]\n 32786: u64 [sp + 0x130] = a0\n 32790: a0 = u64 [sp + 0x60]\n 32793: u64 [sp + 0x138] = a0\n 32797: u64 [sp + 0x148] = a5\n 32801: u64 [sp + 0x150] = a2\n 32805: a0 = sp + 0x160\n 32809: a1 = sp + 0x140\n 32813: a2 = sp + 0x120\n 32817: u64 [sp + 0x158] = a3\n 32821: ra = 388, jump @446\n      : @460 [@dyn 194] (gas: 10)\n 32827: a0 = u64 [sp + 0x88]\n 32831: a1 = u64 [sp + 0x80]\n 32835: a0 = a0 | a1\n 32838: a1 = 0xffffffe0\n 32848: a2 = u64 [sp + 0x98]\n 32852: a1 = a2 <u a1\n 32855: a2 = u64 [sp + 0x90]\n 32859: a1 = 0 if a2 != 0\n 32861: a1 = 0 if a0 != 0\n 32863: jump @465 if a1 == 0\n      : @461 (gas: 21)\n 32867: a0 = u64 [sp + 0x198]\n 32871: u64 [sp + 0x38] = a0\n 32874: a0 = u64 [sp + 0x190]\n 32878: u64 [sp + 0x18] = a0\n 32881: a0 = u64 [sp + 0x188]\n 32885: u64 [sp + 0x40] = a0\n 32888: a0 = u64 [sp + 0x180]\n 32892: u64 [sp + 0x20] = a0\n 32895: a0 = u64 [sp + 0x178]\n 32899: u64 [sp + 0x48] = a0\n 32902: a0 = u64 [sp + 0x170]\n 32906: u64 [sp + 0x28] = a0\n 32909: a0 = u64 [sp + 0x168]\n 32913: u64 [sp + 0x50] = a0\n 32916: a0 = u64 [sp + 0x160]\n 32920: u64 [sp + 0x30] = a0\n 32923: a0 = u64 [sp + 0x58]\n 32926: i32 a1 = a0 + 0x20\n 32929: i32 a0 = sp + 0x1c0\n 32933: ecalli 3 // 'call_data_load'\n 32935: fallthrough\n      : @462 (gas: 7)\n 32936: t0 = u64 [sp + 0x1d8]\n 32940: a1 = u64 [sp + 0x1d0]\n 32944: a2 = u64 [sp + 0x1c8]\n 32948: a3 = a1 | t0\n 32951: a4 = a2 <u 0x1\n 32954: a4 = 0 if a3 != 0\n 32956: jump @466 if a4 == 0\n      : @463 (gas: 35)\n 32960: a3 = u64 [sp + 0x1c0]\n 32964: a4 = u64 [sp + 0x98]\n 32968: a4 = a4 + a3\n 32971: a3 = a4 <u a3\n 32974: a5 = u64 [sp + 0x90]\n 32978: a5 = a5 + a2\n 32981: a5 = a5 + a3\n 32984: a0 = a5 ^ a2\n 32987: a2 = a5 <u a2\n 32990: a2 = a3 if a0 == 0\n 32993: a0 = u64 [sp + 0x88]\n 32997: a0 = a0 + a1\n 33000: a2 = a2 + a0\n 33003: a3 = a2 <u a0\n 33006: a0 = a0 <u a1\n 33009: a1 = u64 [sp + 0x80]\n 33013: t0 = t0 + a1\n 33016: a0 = a0 + t0\n 33019: a3 = a3 + a0\n 33022: a0 = u64 [sp + 0x68]\n 33025: u64 [sp + 0xa0] = a0\n 33029: a0 = u64 [sp + 0x78]\n 33032: u64 [sp + 0xa8] = a0\n 33036: u64 [sp + 0xc0] = a4\n 33040: a0 = u64 [sp + 0x70]\n 33043: u64 [sp + 0xb0] = a0\n 33047: a0 = u64 [sp + 0x60]\n 33050: u64 [sp + 0xb8] = a0\n 33054: u64 [sp + 0xc8] = a5\n 33058: u64 [sp + 0xd0] = a2\n 33062: a0 = sp + 0xe0\n 33066: a1 = sp + 0xc0\n 33070: a2 = sp + 0xa0\n 33074: u64 [sp + 0xd8] = a3\n 33078: ra = 390, jump @446\n      : @464 [@dyn 195] (gas: 38)\n 33084: t0 = u64 [sp + 0xe8]\n 33088: t1 = u64 [sp + 0xe0]\n 33092: a2 = u64 [sp + 0xf8]\n 33096: a3 = u64 [sp + 0xf0]\n 33100: a4 = u64 [sp + 0x110]\n 33104: a5 = u64 [sp + 0x118]\n 33108: a0 = u64 [sp + 0x100]\n 33112: a1 = u64 [sp + 0x108]\n 33116: u64 [s1 + 0x70] = a4\n 33119: u64 [s1 + 0x78] = a5\n 33122: u64 [s1 + 0x60] = a0\n 33125: u64 [s1 + 0x68] = a1\n 33128: u64 [s1 + 0x50] = a3\n 33131: u64 [s1 + 0x58] = a2\n 33134: u64 [s1 + 0x40] = t1\n 33137: u64 [s1 + 0x48] = t0\n 33140: a0 = u64 [sp + 0x18]\n 33143: u64 [s1 + 0x30] = a0\n 33146: a0 = u64 [sp + 0x38]\n 33149: u64 [s1 + 0x38] = a0\n 33152: a0 = u64 [sp + 0x20]\n 33155: u64 [s1 + 0x20] = a0\n 33158: a0 = u64 [sp + 0x40]\n 33161: u64 [s1 + 0x28] = a0\n 33164: a0 = u64 [sp + 0x28]\n 33167: u64 [s1 + 0x10] = a0\n 33170: a0 = u64 [sp + 0x48]\n 33173: u64 [s1 + 0x18] = a0\n 33176: a0 = u64 [sp + 0x30]\n 33179: u64 [s1] = a0\n 33181: a0 = u64 [sp + 0x50]\n 33184: u64 [s1 + 0x8] = a0\n 33187: sp = s0 + 0xfffffffffffffe00\n 33191: ra = u64 [sp + 0x1f8]\n 33195: s0 = u64 [sp + 0x1f0]\n 33199: s1 = u64 [sp + 0x1e8]\n 33203: sp = sp + 0x200\n 33207: ret\n      : @465 (gas: 1)\n 33209: trap\n      : @466 (gas: 3)\n 33210: a0 = 0\n 33212: a1 = 0\n 33214: ra = 392, jump @0\n      : @467 [@dyn 196] (gas: 6)\n 33221: i32 a1 = a0 + 0\n 33223: a0 = 0x1\n 33226: a2 = 0\n 33228: ra = 0x18a\n 33232: ecalli 14 // 'seal_return'\n 33234: fallthrough\n      : @468 [@dyn 197] (gas: 16)\n 33235: sp = sp + 0xffffffffffffff88\n 33238: u64 [sp + 0x70] = ra\n 33241: u64 [sp + 0x68] = s0\n 33244: u64 [sp + 0x60] = s1\n 33247: a5 = u64 [a1 + 0x10]\n 33250: s1 = u64 [a1 + 0x18]\n 33253: a4 = u64 [a1 + 0x8]\n 33256: s0 = u64 [a1]\n 33258: a1 = a4 | s1\n 33261: a3 = s0 | a5\n 33264: a3 = a3 | a1\n 33267: a3 = a3 >> 0x20\n 33270: a1 = a1 | a5\n 33273: a1 = a1 << 0x20\n 33276: a1 = a1 | a3\n 33279: jump @481 if a1 != 0\n      : @469 (gas: 16)\n 33283: u64 [sp + 0x28] = s1\n 33286: u64 [sp + 0x30] = a5\n 33289: u64 [sp + 0x40] = a4\n 33292: u64 [sp] = a0\n 33294: a0 = u64 [a2 + 0x18]\n 33297: u64 [sp + 0x58] = a0\n 33300: s1 = u64 [a2 + 0x10]\n 33303: a0 = u64 [a2 + 0x8]\n 33306: u64 [sp + 0x50] = a0\n 33309: a0 = u64 [a2]\n 33311: u64 [sp + 0x48] = a0\n 33314: u64 [sp + 0x20] = s0\n 33317: i32 a0 = s0 + 0\n 33319: a1 = 0x20\n 33322: u64 [sp + 0x8] = a0\n 33325: ra = 396, jump @0\n      : @470 [@dyn 198] (gas: 12)\n 33332: t0 = u64 [sp + 0x48]\n 33335: a1 = t0 | s1\n 33338: a2 = u64 [sp + 0x58]\n 33341: a3 = u64 [sp + 0x50]\n 33344: a2 = a2 | a3\n 33347: a1 = a1 | a2\n 33350: a1 = a1 >> 0x20\n 33353: u64 [sp + 0x38] = s1\n 33356: a2 = a2 | s1\n 33359: a2 = a2 << 0x20\n 33362: a1 = a1 | a2\n 33365: jump @481 if a1 != 0\n      : @471 (gas: 93)\n 33369: a1 = u8 [a0 + 0x19]\n 33372: a2 = u8 [a0 + 0x18]\n 33375: a3 = u8 [a0 + 0x1a]\n 33378: a4 = u8 [a0 + 0x1b]\n 33381: a1 = a1 << 0x8\n 33384: a1 = a1 | a2\n 33387: a3 = a3 << 0x10\n 33390: a4 = a4 << 0x18\n 33393: a3 = a3 | a4\n 33396: a1 = a1 | a3\n 33399: a2 = u8 [a0 + 0x1d]\n 33402: a3 = u8 [a0 + 0x1c]\n 33405: a4 = u8 [a0 + 0x1e]\n 33408: a5 = u8 [a0 + 0x1f]\n 33411: a2 = a2 << 0x8\n 33414: a2 = a2 | a3\n 33417: a4 = a4 << 0x10\n 33420: a5 = a5 << 0x18\n 33423: a4 = a4 | a5\n 33426: a2 = a2 | a4\n 33429: a2 = a2 << 0x20\n 33432: a1 = a1 | a2\n 33435: u64 [sp + 0x18] = a1\n 33438: a1 = u8 [a0 + 0x11]\n 33441: a2 = u8 [a0 + 0x10]\n 33444: a3 = u8 [a0 + 0x12]\n 33447: a4 = u8 [a0 + 0x13]\n 33450: a1 = a1 << 0x8\n 33453: a1 = a1 | a2\n 33456: a3 = a3 << 0x10\n 33459: a4 = a4 << 0x18\n 33462: a3 = a3 | a4\n 33465: a1 = a1 | a3\n 33468: a2 = u8 [a0 + 0x15]\n 33471: a3 = u8 [a0 + 0x14]\n 33474: a4 = u8 [a0 + 0x16]\n 33477: a5 = u8 [a0 + 0x17]\n 33480: a2 = a2 << 0x8\n 33483: a2 = a2 | a3\n 33486: a4 = a4 << 0x10\n 33489: a5 = a5 << 0x18\n 33492: a4 = a4 | a5\n 33495: a2 = a2 | a4\n 33498: a2 = a2 << 0x20\n 33501: a1 = a1 | a2\n 33504: u64 [sp + 0x10] = a1\n 33507: a1 = u8 [a0 + 0x9]\n 33510: a2 = u8 [a0 + 0x8]\n 33513: a3 = u8 [a0 + 0xa]\n 33516: a4 = u8 [a0 + 0xb]\n 33519: a1 = a1 << 0x8\n 33522: a1 = a1 | a2\n 33525: a3 = a3 << 0x10\n 33528: a4 = a4 << 0x18\n 33531: a3 = a3 | a4\n 33534: a1 = a1 | a3\n 33537: a2 = u8 [a0 + 0xd]\n 33540: a3 = u8 [a0 + 0xc]\n 33543: a4 = u8 [a0 + 0xe]\n 33546: a5 = u8 [a0 + 0xf]\n 33549: a2 = a2 << 0x8\n 33552: a2 = a2 | a3\n 33555: a4 = a4 << 0x10\n 33558: a5 = a5 << 0x18\n 33561: a4 = a4 | a5\n 33564: a2 = a2 | a4\n 33567: a2 = a2 << 0x20\n 33570: s1 = a2 | a1\n 33573: a1 = u8 [a0 + 0x1]\n 33576: a2 = u8 [a0]\n 33578: a3 = u8 [a0 + 0x2]\n 33581: a4 = u8 [a0 + 0x3]\n 33584: a1 = a1 << 0x8\n 33587: a1 = a1 | a2\n 33590: a3 = a3 << 0x10\n 33593: a4 = a4 << 0x18\n 33596: a3 = a3 | a4\n 33599: a1 = a1 | a3\n 33602: a2 = u8 [a0 + 0x5]\n 33605: a3 = u8 [a0 + 0x4]\n 33608: a4 = u8 [a0 + 0x6]\n 33611: a0 = u8 [a0 + 0x7]\n 33614: a2 = a2 << 0x8\n 33617: a2 = a2 | a3\n 33620: a4 = a4 << 0x10\n 33623: a0 = a0 << 0x18\n 33626: a0 = a0 | a4\n 33629: a0 = a0 | a2\n 33632: a0 = a0 << 0x20\n 33635: s0 = a0 | a1\n 33638: i32 a0 = t0 + 0\n 33640: a1 = 0x20\n 33643: ra = 398, jump @0\n      : @472 [@dyn 199] (gas: 73)\n 33650: a4 = s1\n 33652: a2 = u64 [sp + 0x10]\n 33655: s1 = u64 [sp + 0x18]\n 33658: t0 = u64 [sp + 0x48]\n 33661: a1 = a4 >> 0x38\n 33664: u8 [a0 + 0xf] = a1\n 33667: a1 = a4 >> 0x30\n 33670: u8 [a0 + 0xe] = a1\n 33673: a1 = a4 >> 0x28\n 33676: u8 [a0 + 0xd] = a1\n 33679: a1 = a4 >> 0x20\n 33682: u8 [a0 + 0xc] = a1\n 33685: a1 = a4 >> 0x18\n 33688: u8 [a0 + 0xb] = a1\n 33691: a1 = a4 >> 0x10\n 33694: u8 [a0 + 0xa] = a1\n 33697: a1 = a4 >> 0x8\n 33700: u8 [a0 + 0x9] = a1\n 33703: a1 = s0 >> 0x38\n 33706: u8 [a0 + 0x7] = a1\n 33709: a1 = s0 >> 0x30\n 33712: u8 [a0 + 0x6] = a1\n 33715: a1 = s0 >> 0x28\n 33718: u8 [a0 + 0x5] = a1\n 33721: a1 = s0 >> 0x20\n 33724: u8 [a0 + 0x4] = a1\n 33727: a1 = s0 >> 0x18\n 33730: u8 [a0 + 0x3] = a1\n 33733: a1 = s0 >> 0x10\n 33736: u8 [a0 + 0x2] = a1\n 33739: a1 = s0 >> 0x8\n 33742: u8 [a0 + 0x1] = a1\n 33745: a1 = a2 >> 0x38\n 33748: u8 [a0 + 0x17] = a1\n 33751: a1 = a2 >> 0x30\n 33754: u8 [a0 + 0x16] = a1\n 33757: a1 = a2 >> 0x28\n 33760: u8 [a0 + 0x15] = a1\n 33763: a1 = a2 >> 0x20\n 33766: u8 [a0 + 0x14] = a1\n 33769: a1 = a2 >> 0x18\n 33772: u8 [a0 + 0x13] = a1\n 33775: a1 = a2 >> 0x10\n 33778: u8 [a0 + 0x12] = a1\n 33781: a1 = a2 >> 0x8\n 33784: u8 [a0 + 0x11] = a1\n 33787: a1 = s1 >> 0x38\n 33790: u8 [a0 + 0x1f] = a1\n 33793: a1 = s1 >> 0x30\n 33796: u8 [a0 + 0x1e] = a1\n 33799: a1 = s1 >> 0x28\n 33802: u8 [a0 + 0x1d] = a1\n 33805: a1 = s1 >> 0x20\n 33808: u8 [a0 + 0x1c] = a1\n 33811: a1 = s1 >> 0x18\n 33814: u8 [a0 + 0x1b] = a1\n 33817: a1 = s1 >> 0x10\n 33820: u8 [a0 + 0x1a] = a1\n 33823: a1 = s1 >> 0x8\n 33826: u8 [a0 + 0x19] = a1\n 33829: ra = u64 [sp + 0x58]\n 33832: t2 = u64 [sp + 0x38]\n 33835: t1 = t2 | ra\n 33838: a1 = 0xffffffe0\n 33848: a3 = t0 <u a1\n 33851: a5 = u64 [sp + 0x50]\n 33854: a3 = 0 if a5 != 0\n 33856: a3 = 0 if t1 != 0\n 33858: u8 [a0 + 0x10] = a2\n 33861: u8 [a0 + 0x8] = a4\n 33864: u8 [a0] = s0\n 33866: u8 [a0 + 0x18] = s1\n 33869: jump @481 if a3 == 0\n      : @473 (gas: 9)\n 33873: a0 = u64 [sp + 0x30]\n 33876: a3 = u64 [sp + 0x28]\n 33879: a0 = a0 | a3\n 33882: a3 = u64 [sp + 0x20]\n 33885: a1 = a3 <u a1\n 33888: a3 = u64 [sp + 0x40]\n 33891: a1 = 0 if a3 != 0\n 33893: a1 = 0 if a0 != 0\n 33895: jump @481 if a1 == 0\n      : @474 (gas: 15)\n 33899: a1 = reverse s0\n 33901: a3 = reverse a4\n 33903: a4 = reverse a2\n 33905: s0 = reverse s1\n 33907: a0 = s0 | a3\n 33910: u64 [sp + 0x30] = a1\n 33913: u64 [sp + 0x20] = a4\n 33916: a1 = a1 | a4\n 33919: a0 = a0 | a1\n 33922: a0 = a0 >> 0x20\n 33925: u64 [sp + 0x28] = a3\n 33928: a1 = a1 | a3\n 33931: a1 = a1 << 0x20\n 33934: a0 = a0 | a1\n 33937: jump @481 if a0 != 0\n      : @475 (gas: 19)\n 33941: a3 = t0 + 0x20\n 33944: u64 [sp + 0x40] = a3\n 33947: a0 = a3 <u t0\n 33950: a1 = a5 + a0\n 33953: u64 [sp + 0x48] = a1\n 33956: a1 = a1 <u a5\n 33959: a1 = a0 if a0 == 0\n 33962: a1 = a1 + t2\n 33965: u64 [sp + 0x50] = a1\n 33968: a0 = a1 <u t2\n 33971: a0 = a0 + ra\n 33974: u64 [sp + 0x58] = a0\n 33977: i32 a0 = a3 + 0\n 33979: a1 = u64 [sp + 0x8]\n 33982: i32 a1 = a1 + 0x20\n 33985: u64 [sp + 0x38] = a1\n 33988: i32 s1 = s0 + 0\n 33990: a1 = s1\n 33992: ra = 400, jump @0\n      : @476 [@dyn 200] (gas: 5)\n 33999: u64 [sp + 0x18] = a0\n 34002: a0 = u64 [sp + 0x38]\n 34005: a1 = s1\n 34007: s1 = s0\n 34009: ra = 402, jump @0\n      : @477 [@dyn 201] (gas: 4)\n 34016: a1 = a0\n 34018: a0 = u64 [sp + 0x18]\n 34021: a2 = s0\n 34023: ra = 404, jump @8\n      : @478 [@dyn 202] (gas: 29)\n 34030: a0 = u64 [sp + 0x40]\n 34033: a0 = a0 + s0\n 34036: a1 = a0 <u s0\n 34039: a4 = u64 [sp + 0x20]\n 34042: a2 = u64 [sp + 0x48]\n 34045: a2 = a2 + a4\n 34048: a2 = a2 + a1\n 34051: a3 = a2 ^ a4\n 34054: a4 = a2 <u a4\n 34057: a4 = a1 if a3 == 0\n 34060: a5 = u64 [sp + 0x28]\n 34063: a1 = u64 [sp + 0x50]\n 34066: a1 = a1 + a5\n 34069: a4 = a4 + a1\n 34072: a3 = a4 <u a1\n 34075: a1 = a1 <u a5\n 34078: a5 = u64 [sp + 0x30]\n 34081: s0 = u64 [sp + 0x58]\n 34084: a5 = a5 + s0\n 34087: a1 = a1 + a5\n 34090: a1 = a1 + a3\n 34093: a3 = a0 | a4\n 34096: a1 = a1 | a2\n 34099: a3 = a3 | a1\n 34102: a3 = a3 >> 0x20\n 34105: a1 = a1 | a4\n 34108: a1 = a1 << 0x20\n 34111: a1 = a1 | a3\n 34114: jump @481 if a1 != 0\n      : @479 (gas: 3)\n 34118: i32 a0 = a0 + 0\n 34120: a1 = 0x20\n 34123: ra = 406, jump @0\n      : @480 [@dyn 203] (gas: 56)\n 34130: u8 [a0 + 31] = 0\n 34133: u8 [a0 + 30] = 0\n 34136: u8 [a0 + 29] = 0\n 34139: u8 [a0 + 28] = 0\n 34142: u8 [a0 + 27] = 0\n 34145: u8 [a0 + 26] = 0\n 34148: u8 [a0 + 25] = 0\n 34151: u8 [a0 + 24] = 0\n 34154: u8 [a0 + 23] = 0\n 34157: u8 [a0 + 22] = 0\n 34160: u8 [a0 + 21] = 0\n 34163: u8 [a0 + 20] = 0\n 34166: u8 [a0 + 19] = 0\n 34169: u8 [a0 + 18] = 0\n 34172: u8 [a0 + 17] = 0\n 34175: u8 [a0 + 16] = 0\n 34178: u8 [a0 + 15] = 0\n 34181: u8 [a0 + 14] = 0\n 34184: u8 [a0 + 13] = 0\n 34187: u8 [a0 + 12] = 0\n 34190: u8 [a0 + 11] = 0\n 34193: u8 [a0 + 10] = 0\n 34196: u8 [a0 + 9] = 0\n 34199: u8 [a0 + 8] = 0\n 34202: u8 [a0 + 7] = 0\n 34205: u8 [a0 + 6] = 0\n 34208: u8 [a0 + 5] = 0\n 34211: u8 [a0 + 4] = 0\n 34214: u8 [a0 + 3] = 0\n 34217: u8 [a0 + 2] = 0\n 34220: u8 [a0 + 1] = 0\n 34223: u8 [a0 + 0] = 0\n 34225: a0 = s1 + 0x1f\n 34228: a1 = 0x1ffffffe0\n 34238: a0 = a0 & a1\n 34241: a1 = u64 [sp + 0x40]\n 34244: a1 = a1 + a0\n 34247: a0 = a1 <u a0\n 34250: a2 = u64 [sp + 0x48]\n 34253: a2 = a2 + a0\n 34256: a0 = 0 if a2 != 0\n 34258: a3 = u64 [sp + 0x50]\n 34261: a0 = a0 + a3\n 34264: a3 = a0 <u a3\n 34267: a4 = u64 [sp + 0x58]\n 34270: a3 = a3 + a4\n 34273: a4 = u64 [sp]\n 34275: u64 [a4] = a1\n 34277: u64 [a4 + 0x8] = a2\n 34280: u64 [a4 + 0x10] = a0\n 34283: u64 [a4 + 0x18] = a3\n 34286: ra = u64 [sp + 0x70]\n 34289: s0 = u64 [sp + 0x68]\n 34292: s1 = u64 [sp + 0x60]\n 34295: sp = sp + 0x78\n 34298: ret\n      : @481 (gas: 1)\n 34300: trap\n      : @482 (gas: 8)\n 34301: a0 = u64 [sp + 0x230]\n 34305: a1 = u64 [sp + 0x238]\n 34309: a2 = u64 [sp + 0x228]\n 34313: a3 = u64 [sp + 0x220]\n 34317: a1 = a1 | a2\n 34320: a0 = a0 | a3\n 34323: a0 = a0 | a1\n 34326: jump @491 if a0 != 0\n      : @483 (gas: 13)\n 34330: a0 = u32 [0x20078]\n 34335: u64 [sp + 376] = 0\n 34339: u64 [sp + 368] = 0\n 34343: u64 [sp + 360] = 0\n 34347: u64 [sp + 0x160] = a0\n 34351: u64 [sp + 408] = 0\n 34355: u64 [sp + 400] = 0\n 34359: u64 [sp + 384] = 0x4\n 34364: a0 = sp + 0x1a0\n 34368: a1 = sp + 0x180\n 34372: a2 = sp + 0x160\n 34376: u64 [sp + 392] = 0\n 34380: ra = 408, jump @455\n      : @484 [@dyn 204] (gas: 169)\n 34386: a0 = u64 [sp + 0x1a0]\n 34390: u64 [sp + 0x58] = a0\n 34393: a0 = u64 [sp + 0x1a8]\n 34397: u64 [sp + 0x50] = a0\n 34400: a0 = u64 [sp + 0x1b0]\n 34404: u64 [sp + 0x48] = a0\n 34407: a0 = u64 [sp + 0x1b8]\n 34411: u64 [sp + 0x40] = a0\n 34414: a0 = u64 [sp + 0x1c0]\n 34418: u64 [sp + 0x38] = a0\n 34421: ra = u64 [sp + 0x1c8]\n 34425: s1 = u64 [sp + 0x1d0]\n 34429: t2 = u64 [sp + 0x1d8]\n 34433: t1 = u64 [sp + 0x1e0]\n 34437: t0 = u64 [sp + 0x1e8]\n 34441: a5 = u64 [sp + 0x1f0]\n 34445: a4 = u64 [sp + 0x1f8]\n 34449: a3 = u64 [sp + 0x200]\n 34453: a2 = u64 [sp + 0x208]\n 34457: a1 = u64 [sp + 0x210]\n 34461: a0 = u64 [sp + 0x218]\n 34465: u64 [sp + 0xd8] = a0\n 34469: u64 [sp + 0xd0] = a1\n 34473: u64 [sp + 0xc8] = a2\n 34477: u64 [sp + 0xc0] = a3\n 34481: u64 [sp + 0xf8] = a4\n 34485: u64 [sp + 0xf0] = a5\n 34489: u64 [sp + 0xe8] = t0\n 34493: u64 [sp + 0xe0] = t1\n 34497: u64 [sp + 0x118] = t2\n 34501: u64 [sp + 0x110] = s1\n 34505: u64 [sp + 0x108] = ra\n 34509: a0 = u64 [sp + 0x38]\n 34512: u64 [sp + 0x100] = a0\n 34516: a0 = u64 [sp + 0x40]\n 34519: u64 [sp + 0x138] = a0\n 34523: a0 = u64 [sp + 0x48]\n 34526: u64 [sp + 0x130] = a0\n 34530: a0 = u64 [sp + 0x50]\n 34533: u64 [sp + 0x128] = a0\n 34537: a0 = sp + 0x140\n 34541: a1 = sp + 0x120\n 34545: a2 = sp + 0x100\n 34549: a3 = sp + 0xe0\n 34553: a4 = sp + 0xc0\n 34557: a5 = u64 [sp + 0x58]\n 34560: u64 [sp + 0x120] = a5\n 34564: ra = 0x19a\n 34568: sp = sp + 0xfffffffffffffe60\n 34572: u64 [sp + 0x198] = ra\n 34576: u64 [sp + 0x190] = s0\n 34580: u64 [sp + 0x188] = s1\n 34584: s0 = sp + 0x1a0\n 34588: sp = sp & 0xffffffffffffffe0\n 34591: a5 = u64 [a3]\n 34593: u64 [sp + 0x38] = a5\n 34596: a5 = u64 [a3 + 0x8]\n 34599: u64 [sp + 0x30] = a5\n 34602: a5 = u64 [a3 + 0x10]\n 34605: u64 [sp + 0x28] = a5\n 34608: a3 = u64 [a3 + 0x18]\n 34611: u64 [sp + 0x20] = a3\n 34614: a3 = u64 [a4]\n 34616: u64 [sp + 0x18] = a3\n 34619: a3 = u64 [a4 + 0x8]\n 34622: u64 [sp + 0x10] = a3\n 34625: a3 = u64 [a4 + 0x10]\n 34628: u64 [sp + 0x8] = a3\n 34631: a4 = u64 [a4 + 0x18]\n 34634: t1 = u64 [a1]\n 34636: t2 = u64 [a1 + 0x8]\n 34639: ra = u64 [a1 + 0x10]\n 34642: a1 = u64 [a1 + 0x18]\n 34645: a5 = u64 [a2]\n 34647: a3 = u64 [a2 + 0x8]\n 34650: t0 = u64 [a2 + 0x10]\n 34653: a2 = u64 [a2 + 0x18]\n 34656: s1 = a0\n 34658: u64 [sp + 0x98] = a2\n 34662: u64 [sp + 0x90] = t0\n 34666: u64 [sp + 0x88] = a3\n 34670: u64 [sp + 0x80] = a5\n 34674: u64 [sp + 0xb8] = a1\n 34678: u64 [sp + 0xb0] = ra\n 34682: u64 [sp + 0xa8] = t2\n 34686: u64 [sp + 0xa0] = t1\n 34690: u64 [sp + 0xd8] = a4\n 34694: a0 = u64 [sp + 0x8]\n 34697: u64 [sp + 0xd0] = a0\n 34701: a0 = u64 [sp + 0x10]\n 34704: u64 [sp + 0xc8] = a0\n 34708: a0 = u64 [sp + 0x18]\n 34711: u64 [sp + 0xc0] = a0\n 34715: a0 = u64 [sp + 0x20]\n 34718: u64 [sp + 0xf8] = a0\n 34722: a0 = u64 [sp + 0x28]\n 34725: u64 [sp + 0xf0] = a0\n 34729: a0 = u64 [sp + 0x30]\n 34732: u64 [sp + 0xe8] = a0\n 34736: a0 = sp + 0x100\n 34740: a1 = sp + 0xe0\n 34744: a2 = sp + 0xc0\n 34748: a3 = sp + 0xa0\n 34752: a4 = sp + 0x80\n 34756: a5 = u64 [sp + 0x38]\n 34759: u64 [sp + 0xe0] = a5\n 34763: ra = 0x2a8\n 34767: sp = sp + 0xfffffffffffffc00\n 34771: u64 [sp + 0x3f8] = ra\n 34775: u64 [sp + 0x3f0] = s0\n 34779: u64 [sp + 0x3e8] = s1\n 34783: s0 = sp + 0x400\n 34787: sp = sp & 0xffffffffffffffe0\n 34790: u64 [sp + 0x8] = a0\n 34793: t0 = u64 [a3 + 0x18]\n 34796: t2 = u64 [a4 + 0x18]\n 34799: a0 = u64 [a3 + 0x10]\n 34802: u64 [sp + 0xb0] = a0\n 34806: t1 = u64 [a3]\n 34808: u64 [sp + 0xb8] = t1\n 34812: s1 = u64 [a4]\n 34814: ra = u64 [a3 + 0x8]\n 34817: a5 = u64 [a4 + 0x8]\n 34820: a0 = u64 [a4 + 0x10]\n 34823: t1 = t1 + s1\n 34826: s1 = t1 <u s1\n 34829: a4 = a5 + ra\n 34832: a4 = a4 + s1\n 34835: a3 = a4 ^ a5\n 34838: a5 = a4 <u a5\n 34841: a5 = s1 if a3 == 0\n 34844: a3 = t2 + t0\n 34847: t2 = u64 [sp + 0xb0]\n 34851: s1 = a0 + t2\n 34854: a0 = s1 <u a0\n 34857: a0 = a0 + a3\n 34860: a3 = u64 [a1]\n 34862: u64 [sp + 0x78] = a3\n 34865: a3 = u64 [a1 + 0x8]\n 34868: u64 [sp + 0x70] = a3\n 34871: a3 = u64 [a1 + 0x10]\n 34874: u64 [sp + 0x68] = a3\n 34877: a1 = u64 [a1 + 0x18]\n 34880: u64 [sp + 0x60] = a1\n 34883: a1 = u64 [a2]\n 34885: u64 [sp + 0x50] = a1\n 34888: a1 = u64 [a2 + 0x8]\n 34891: u64 [sp + 0x40] = a1\n 34894: a1 = u64 [a2 + 0x10]\n 34897: u64 [sp + 0x30] = a1\n 34900: a1 = u64 [a2 + 0x18]\n 34903: u64 [sp + 0x28] = a1\n 34906: a5 = a5 + s1\n 34909: a1 = a5 <u s1\n 34912: a3 = a0 + a1\n 34915: u64 [sp + 0x300] = t1\n 34919: u64 [sp + 0x338] = t0\n 34923: u64 [sp + 0x330] = t2\n 34927: u64 [sp + 0x328] = ra\n 34931: a0 = u64 [sp + 0xb8]\n 34935: u64 [sp + 0x320] = a0\n 34939: u64 [sp + 0x308] = a4\n 34943: u64 [sp + 0x310] = a5\n 34947: a0 = sp + 0x340\n 34951: a1 = sp + 0x320\n 34955: a2 = sp + 0x300\n 34959: u64 [sp + 0x318] = a3\n 34963: ra = 0x4ac\n 34967: jump @1363\n      : @485 [@dyn 205] (gas: 11)\n 34971: a0 = u64 [sp + 0x158]\n 34975: u64 [sp + 0x40] = a0\n 34978: a0 = u64 [sp + 0x150]\n 34982: u64 [sp + 0x48] = a0\n 34985: a0 = u64 [sp + 0x148]\n 34989: u64 [sp + 0x50] = a0\n 34992: a0 = u64 [sp + 0x140]\n 34996: u64 [sp + 0x58] = a0\n 34999: a0 = 0x40\n 35002: a1 = 0x20\n 35005: ra = 412, jump @0\n      : @486 [@dyn 206] (gas: 100)\n 35012: a1 = u8 [a0 + 0x11]\n 35015: a2 = u8 [a0 + 0x10]\n 35018: a3 = u8 [a0 + 0x12]\n 35021: a4 = u8 [a0 + 0x13]\n 35024: a1 = a1 << 0x8\n 35027: a1 = a1 | a2\n 35030: a3 = a3 << 0x10\n 35033: a4 = a4 << 0x18\n 35036: a3 = a3 | a4\n 35039: a1 = a1 | a3\n 35042: a2 = u8 [a0 + 0x15]\n 35045: a3 = u8 [a0 + 0x14]\n 35048: a4 = u8 [a0 + 0x16]\n 35051: a5 = u8 [a0 + 0x17]\n 35054: a2 = a2 << 0x8\n 35057: a2 = a2 | a3\n 35060: a4 = a4 << 0x10\n 35063: a5 = a5 << 0x18\n 35066: a4 = a4 | a5\n 35069: a2 = a2 | a4\n 35072: a2 = a2 << 0x20\n 35075: t0 = a2 | a1\n 35078: a2 = u8 [a0 + 0x1]\n 35081: a3 = u8 [a0]\n 35083: a4 = u8 [a0 + 0x2]\n 35086: a5 = u8 [a0 + 0x3]\n 35089: a2 = a2 << 0x8\n 35092: a2 = a2 | a3\n 35095: a4 = a4 << 0x10\n 35098: a5 = a5 << 0x18\n 35101: a4 = a4 | a5\n 35104: a2 = a2 | a4\n 35107: a3 = u8 [a0 + 0x5]\n 35110: a4 = u8 [a0 + 0x4]\n 35113: a5 = u8 [a0 + 0x6]\n 35116: s1 = u8 [a0 + 0x7]\n 35119: a3 = a3 << 0x8\n 35122: a3 = a3 | a4\n 35125: a5 = a5 << 0x10\n 35128: s1 = s1 << 0x18\n 35131: a5 = a5 | s1\n 35134: a3 = a3 | a5\n 35137: a3 = a3 << 0x20\n 35140: a2 = a2 | a3\n 35143: a3 = u8 [a0 + 0x19]\n 35146: a4 = u8 [a0 + 0x18]\n 35149: a5 = u8 [a0 + 0x1a]\n 35152: s1 = u8 [a0 + 0x1b]\n 35155: a3 = a3 << 0x8\n 35158: a3 = a3 | a4\n 35161: a5 = a5 << 0x10\n 35164: s1 = s1 << 0x18\n 35167: a5 = a5 | s1\n 35170: a3 = a3 | a5\n 35173: a4 = u8 [a0 + 0x1d]\n 35176: a5 = u8 [a0 + 0x1c]\n 35179: s1 = u8 [a0 + 0x1e]\n 35182: a1 = u8 [a0 + 0x1f]\n 35185: a4 = a4 << 0x8\n 35188: a4 = a4 | a5\n 35191: s1 = s1 << 0x10\n 35194: a1 = a1 << 0x18\n 35197: a1 = a1 | s1\n 35200: a1 = a1 | a4\n 35203: a1 = a1 << 0x20\n 35206: a3 = a3 | a1\n 35209: a1 = u8 [a0 + 0x9]\n 35212: a4 = u8 [a0 + 0x8]\n 35215: a5 = u8 [a0 + 0xa]\n 35218: s1 = u8 [a0 + 0xb]\n 35221: a1 = a1 << 0x8\n 35224: a1 = a1 | a4\n 35227: a5 = a5 << 0x10\n 35230: s1 = s1 << 0x18\n 35233: a5 = a5 | s1\n 35236: a1 = a1 | a5\n 35239: a4 = u8 [a0 + 0xd]\n 35242: a5 = u8 [a0 + 0xc]\n 35245: s1 = u8 [a0 + 0xe]\n 35248: a0 = u8 [a0 + 0xf]\n 35251: a4 = a4 << 0x8\n 35254: a4 = a4 | a5\n 35257: s1 = s1 << 0x10\n 35260: a0 = a0 << 0x18\n 35263: a0 = a0 | s1\n 35266: a0 = a0 | a4\n 35269: a0 = a0 << 0x20\n 35272: a0 = a0 | a1\n 35275: s1 = reverse a0\n 35277: a3 = reverse a3\n 35279: a4 = reverse a2\n 35281: a2 = reverse t0\n 35283: a0 = a2 | a4\n 35286: a1 = a3 | s1\n 35289: a1 = a1 | a0\n 35292: a1 = a1 >> 0x20\n 35295: a0 = a0 | s1\n 35298: a0 = a0 << 0x20\n 35301: a0 = a0 | a1\n 35304: jump @490 if a0 != 0\n      : @487 (gas: 19)\n 35308: a0 = a3 + 0x20\n 35311: u64 [sp + 0x18] = a0\n 35314: a0 = a0 <u a3\n 35317: a1 = a2 + a0\n 35320: u64 [sp + 0x8] = a1\n 35323: a1 = a1 <u a2\n 35326: a1 = a0 if a0 == 0\n 35329: a1 = a1 + s1\n 35332: u64 [sp + 0x10] = a1\n 35335: a0 = a1 <u s1\n 35338: a0 = a0 + a4\n 35341: u64 [sp + 0x20] = a0\n 35344: i32 a0 = a3 + 0\n 35346: a1 = 0x20\n 35349: u64 [sp] = a0\n 35351: u64 [sp + 0x30] = a3\n 35354: u64 [sp + 0x28] = a2\n 35357: u64 [sp + 0x38] = a4\n 35360: ra = 414, jump @0\n      : @488 [@dyn 207] (gas: 52)\n 35367: u8 [a0 + 31] = 0x20\n 35371: u8 [a0 + 30] = 0\n 35374: u8 [a0 + 29] = 0\n 35377: u8 [a0 + 28] = 0\n 35380: u8 [a0 + 27] = 0\n 35383: u8 [a0 + 26] = 0\n 35386: u8 [a0 + 25] = 0\n 35389: u8 [a0 + 24] = 0\n 35392: u8 [a0 + 23] = 0\n 35395: u8 [a0 + 22] = 0\n 35398: u8 [a0 + 21] = 0\n 35401: u8 [a0 + 20] = 0\n 35404: u8 [a0 + 19] = 0\n 35407: u8 [a0 + 18] = 0\n 35410: u8 [a0 + 17] = 0\n 35413: u8 [a0 + 16] = 0\n 35416: u8 [a0 + 15] = 0\n 35419: u8 [a0 + 14] = 0\n 35422: u8 [a0 + 13] = 0\n 35425: u8 [a0 + 12] = 0\n 35428: u8 [a0 + 11] = 0\n 35431: u8 [a0 + 10] = 0\n 35434: u8 [a0 + 9] = 0\n 35437: u8 [a0 + 8] = 0\n 35440: u8 [a0 + 7] = 0\n 35443: u8 [a0 + 6] = 0\n 35446: u8 [a0 + 5] = 0\n 35449: u8 [a0 + 4] = 0\n 35452: u8 [a0 + 3] = 0\n 35455: u8 [a0 + 2] = 0\n 35458: u8 [a0 + 1] = 0\n 35461: u8 [a0 + 0] = 0\n 35463: a0 = u64 [sp + 0x8]\n 35466: u64 [sp + 0x68] = a0\n 35469: a0 = u64 [sp + 0x18]\n 35472: u64 [sp + 0x60] = a0\n 35475: a0 = u64 [sp + 0x40]\n 35478: u64 [sp + 0x98] = a0\n 35482: a0 = u64 [sp + 0x48]\n 35485: u64 [sp + 0x90] = a0\n 35489: a0 = u64 [sp + 0x50]\n 35492: u64 [sp + 0x88] = a0\n 35496: a0 = u64 [sp + 0x58]\n 35499: u64 [sp + 0x80] = a0\n 35503: a0 = u64 [sp + 0x10]\n 35506: u64 [sp + 0x70] = a0\n 35509: a0 = sp + 0xa0\n 35513: a1 = sp + 0x80\n 35517: a2 = sp + 0x60\n 35520: a3 = u64 [sp + 0x20]\n 35523: u64 [sp + 0x78] = a3\n 35526: ra = 416, jump @468\n      : @489 [@dyn 208] (gas: 30)\n 35532: a0 = u64 [sp + 0xa8]\n 35536: t0 = u64 [sp + 0xb8]\n 35540: t1 = u64 [sp + 0xa0]\n 35544: a3 = u64 [sp + 0xb0]\n 35548: a1 = u64 [sp + 0x28]\n 35551: a4 = a0 ^ a1\n 35554: a5 = a0 <u a1\n 35557: t2 = a1\n 35559: a2 = u64 [sp + 0x30]\n 35562: a1 = t1 <u a2\n 35565: a5 = a1 if a4 == 0\n 35568: a4 = a3 - s1\n 35571: a3 = a3 <u s1\n 35574: s1 = u64 [sp + 0x38]\n 35577: s1 = t0 - s1\n 35580: s1 = s1 - a3\n 35583: a3 = a4 <u a5\n 35586: s1 = s1 - a3\n 35589: a4 = a4 - a5\n 35592: a0 = a0 - t2\n 35595: a1 = a0 - a1\n 35598: a0 = t1 - a2\n 35601: a1 = a1 | s1\n 35604: a2 = a0 | a4\n 35607: a2 = a2 | a1\n 35610: a1 = a1 | a4\n 35613: a2 = a2 >> 0x20\n 35616: a1 = a1 << 0x20\n 35619: a1 = a1 | a2\n 35622: jump @493 if a1 == 0\n      : @490 (gas: 1)\n 35625: trap\n      : @491 (gas: 3)\n 35626: a0 = 0\n 35628: a1 = 0\n 35630: ra = 418, jump @0\n      : @492 [@dyn 209] (gas: 5)\n 35637: i32 a1 = a0 + 0\n 35639: a0 = 0x1\n 35642: a2 = 0\n 35644: ecalli 14 // 'seal_return'\n 35646: fallthrough\n      : @493 (gas: 4)\n 35647: i32 s1 = a0 + 0\n 35649: a0 = u64 [sp]\n 35651: a1 = s1\n 35653: ra = 420, jump @0\n      : @494 [@dyn 210] (gas: 6)\n 35660: i32 a1 = a0 + 0\n 35662: a0 = 0\n 35664: a2 = s1\n 35666: ra = 0x1a6\n 35670: ecalli 14 // 'seal_return'\n 35672: fallthrough\n      : @495 [@dyn 211] (gas: 1)\n 35673: ret\n      : @496 (gas: 43)\n 35675: sp = sp + 0xfffffffffffffea0\n 35679: u64 [sp + 0x158] = ra\n 35683: u64 [sp + 0x150] = s0\n 35687: u64 [sp + 0x148] = s1\n 35691: s0 = sp + 0x160\n 35695: sp = sp & 0xffffffffffffffe0\n 35698: t2 = u64 [a2 + 0x8]\n 35701: ra = u64 [a1 + 0x8]\n 35704: s1 = u64 [a2]\n 35706: a5 = u64 [a1]\n 35708: t0 = u64 [a2 + 0x10]\n 35711: a4 = t2 ^ ra\n 35714: a3 = t2 <u ra\n 35717: t1 = s1 <u a5\n 35720: a3 = t1 if a4 == 0\n 35723: a4 = t2 - ra\n 35726: a4 = a4 - t1\n 35729: u64 [sp + 0x48] = s1\n 35732: u64 [sp + 0x78] = a5\n 35735: a5 = s1 - a5\n 35738: a5 = a5 <u 0x40\n 35741: a5 = a5 ^ 0x1\n 35744: t1 = u64 [a1 + 0x10]\n 35747: s1 = a4 >u 0\n 35749: a5 = s1 if a4 != 0\n 35752: a4 = u64 [a2 + 0x18]\n 35755: s1 = u64 [a1 + 0x18]\n 35758: a1 = t0 - t1\n 35761: a2 = a1 - a3\n 35764: a1 = a1 <u a3\n 35767: u64 [sp + 0x70] = t1\n 35770: a3 = t0 <u t1\n 35773: u64 [sp + 0x40] = a4\n 35776: u64 [sp + 0x68] = s1\n 35779: a4 = a4 - s1\n 35782: a4 = a4 - a3\n 35785: a4 = a4 - a1\n 35788: a1 = a4 >s 0\n 35790: a3 = a2 >u 0\n 35792: a3 = a1 if a4 != 0\n 35795: a2 = a2 | a4\n 35798: a5 = a3 if a2 != 0\n 35801: jump @505 if a5 == 0\n      : @497 (gas: 15)\n 35805: s1 = a0\n 35807: u64 [sp + 0x50] = t0\n 35810: u64 [sp + 0x58] = t2\n 35813: a2 = u64 [sp + 0x70]\n 35816: t2 = u64 [sp + 0x78]\n 35819: a0 = t2 | a2\n 35822: a1 = u64 [sp + 0x68]\n 35825: a1 = ra | a1\n 35828: a0 = a0 | a1\n 35831: a0 = a0 >> 0x20\n 35834: a1 = a1 | a2\n 35837: a1 = a1 << 0x20\n 35840: a0 = a0 | a1\n 35843: u64 [sp + 0x60] = ra\n 35846: jump @504 if a0 != 0\n      : @498 (gas: 5)\n 35850: i32 a1 = t2 + 0\n 35852: i32 a0 = sp + 0x120\n 35856: u64 [sp + 0x38] = a1\n 35859: ecalli 3 // 'call_data_load'\n 35861: fallthrough\n      : @499 (gas: 10)\n 35862: a0 = u64 [sp + 0x70]\n 35865: a1 = u64 [sp + 0x68]\n 35868: a0 = a0 | a1\n 35871: a1 = 0xffffffe0\n 35881: a2 = u64 [sp + 0x78]\n 35884: a1 = a2 <u a1\n 35887: a2 = u64 [sp + 0x60]\n 35890: a1 = 0 if a2 != 0\n 35892: a1 = 0 if a0 != 0\n 35894: jump @504 if a1 == 0\n      : @500 (gas: 13)\n 35898: a0 = u64 [sp + 0x138]\n 35902: u64 [sp + 0x28] = a0\n 35905: a0 = u64 [sp + 0x130]\n 35909: u64 [sp + 0x18] = a0\n 35912: a0 = u64 [sp + 0x128]\n 35916: u64 [sp + 0x30] = a0\n 35919: a0 = u64 [sp + 0x120]\n 35923: u64 [sp + 0x20] = a0\n 35926: a0 = u64 [sp + 0x38]\n 35929: i32 a1 = a0 + 0x20\n 35932: i32 a0 = sp + 0x100\n 35936: ecalli 3 // 'call_data_load'\n 35938: fallthrough\n      : @501 (gas: 7)\n 35939: t0 = u64 [sp + 0x118]\n 35943: a1 = u64 [sp + 0x110]\n 35947: a2 = u64 [sp + 0x108]\n 35951: a3 = a1 | t0\n 35954: a4 = a2 <u 0x1\n 35957: a4 = 0 if a3 != 0\n 35959: jump @505 if a4 == 0\n      : @502 (gas: 35)\n 35963: a3 = u64 [sp + 0x100]\n 35967: a4 = u64 [sp + 0x78]\n 35970: a4 = a4 + a3\n 35973: a3 = a4 <u a3\n 35976: a5 = u64 [sp + 0x60]\n 35979: a5 = a5 + a2\n 35982: a5 = a5 + a3\n 35985: a0 = a5 ^ a2\n 35988: a2 = a5 <u a2\n 35991: a2 = a3 if a0 == 0\n 35994: a0 = u64 [sp + 0x70]\n 35997: a0 = a0 + a1\n 36000: a2 = a2 + a0\n 36003: a3 = a2 <u a0\n 36006: a0 = a0 <u a1\n 36009: a1 = u64 [sp + 0x68]\n 36012: t0 = t0 + a1\n 36015: a0 = a0 + t0\n 36018: a3 = a3 + a0\n 36021: a0 = u64 [sp + 0x48]\n 36024: u64 [sp + 0x80] = a0\n 36028: a0 = u64 [sp + 0x58]\n 36031: u64 [sp + 0x88] = a0\n 36035: u64 [sp + 0xa0] = a4\n 36039: a0 = u64 [sp + 0x50]\n 36042: u64 [sp + 0x90] = a0\n 36046: a0 = u64 [sp + 0x40]\n 36049: u64 [sp + 0x98] = a0\n 36053: u64 [sp + 0xa8] = a5\n 36057: u64 [sp + 0xb0] = a2\n 36061: a0 = sp + 0xc0\n 36065: a1 = sp + 0xa0\n 36069: a2 = sp + 0x80\n 36073: u64 [sp + 0xb8] = a3\n 36077: ra = 424, jump @446\n      : @503 [@dyn 212] (gas: 30)\n 36083: t0 = u64 [sp + 0xc8]\n 36087: t1 = u64 [sp + 0xc0]\n 36091: a2 = u64 [sp + 0xd8]\n 36095: a3 = u64 [sp + 0xd0]\n 36099: a4 = u64 [sp + 0xf0]\n 36103: a5 = u64 [sp + 0xf8]\n 36107: a0 = u64 [sp + 0xe0]\n 36111: a1 = u64 [sp + 0xe8]\n 36115: u64 [s1 + 0x50] = a4\n 36118: u64 [s1 + 0x58] = a5\n 36121: u64 [s1 + 0x40] = a0\n 36124: u64 [s1 + 0x48] = a1\n 36127: u64 [s1 + 0x30] = a3\n 36130: u64 [s1 + 0x38] = a2\n 36133: u64 [s1 + 0x20] = t1\n 36136: u64 [s1 + 0x28] = t0\n 36139: a0 = u64 [sp + 0x18]\n 36142: u64 [s1 + 0x10] = a0\n 36145: a0 = u64 [sp + 0x28]\n 36148: u64 [s1 + 0x18] = a0\n 36151: a0 = u64 [sp + 0x20]\n 36154: u64 [s1] = a0\n 36156: a0 = u64 [sp + 0x30]\n 36159: u64 [s1 + 0x8] = a0\n 36162: sp = s0 + 0xfffffffffffffea0\n 36166: ra = u64 [sp + 0x158]\n 36170: s0 = u64 [sp + 0x150]\n 36174: s1 = u64 [sp + 0x148]\n 36178: sp = sp + 0x160\n 36182: ret\n      : @504 (gas: 1)\n 36184: trap\n      : @505 (gas: 3)\n 36185: a0 = 0\n 36187: a1 = 0\n 36189: ra = 426, jump @0\n      : @506 [@dyn 213] (gas: 6)\n 36196: i32 a1 = a0 + 0\n 36198: a0 = 0x1\n 36201: a2 = 0\n 36203: ra = 0x1ac\n 36207: ecalli 14 // 'seal_return'\n 36209: fallthrough\n      : @507 [@dyn 214] (gas: 13)\n 36210: sp = sp + 0xfffffffffffffea0\n 36214: u64 [sp + 0x158] = ra\n 36218: u64 [sp + 0x150] = s0\n 36222: u64 [sp + 0x148] = s1\n 36226: s0 = sp + 0x160\n 36230: sp = sp & 0xffffffffffffffe0\n 36233: u64 [sp + 312] = 0\n 36237: u64 [sp + 304] = 0\n 36241: u64 [sp + 296] = 0\n 36245: u64 [sp + 288] = 0\n 36249: i32 a0 = sp + 0x120\n 36253: ecalli 17 // 'value_transferred'\n 36255: fallthrough\n      : @508 (gas: 8)\n 36256: a0 = u64 [sp + 0x130]\n 36260: a1 = u64 [sp + 0x138]\n 36264: a2 = u64 [sp + 0x128]\n 36268: a3 = u64 [sp + 0x120]\n 36272: a1 = a1 | a2\n 36275: a0 = a0 | a3\n 36278: a0 = a0 | a1\n 36281: jump @511 if a0 != 0\n      : @509 (gas: 13)\n 36285: a0 = u32 [0x20078]\n 36290: u64 [sp + 152] = 0\n 36294: u64 [sp + 144] = 0\n 36298: u64 [sp + 136] = 0\n 36302: u64 [sp + 0x80] = a0\n 36306: u64 [sp + 184] = 0\n 36310: u64 [sp + 176] = 0\n 36314: u64 [sp + 160] = 0x4\n 36319: a0 = sp + 0xc0\n 36323: a1 = sp + 0xa0\n 36327: a2 = sp + 0x80\n 36331: u64 [sp + 168] = 0\n 36335: ra = 430, jump @496\n      : @510 [@dyn 215] (gas: 30)\n 36341: a0 = u64 [sp + 0xc0]\n 36345: u64 [sp + 0x18] = a0\n 36348: t1 = u64 [sp + 0xc8]\n 36352: t2 = u64 [sp + 0xd0]\n 36356: ra = u64 [sp + 0xd8]\n 36360: t0 = u64 [sp + 0xe0]\n 36364: a5 = u64 [sp + 0xe8]\n 36368: a4 = u64 [sp + 0xf0]\n 36372: a3 = u64 [sp + 0xf8]\n 36376: a1 = u64 [sp + 0x100]\n 36380: s1 = u64 [sp + 0x108]\n 36384: a2 = u64 [sp + 0x110]\n 36388: a0 = u64 [sp + 0x118]\n 36392: u64 [sp + 0x38] = a0\n 36395: u64 [sp + 0x30] = a2\n 36398: u64 [sp + 0x28] = s1\n 36401: u64 [sp + 0x20] = a1\n 36404: u64 [sp + 0x58] = a3\n 36407: u64 [sp + 0x50] = a4\n 36410: u64 [sp + 0x48] = a5\n 36413: u64 [sp + 0x40] = t0\n 36416: u64 [sp + 0x78] = ra\n 36419: u64 [sp + 0x70] = t2\n 36422: u64 [sp + 0x68] = t1\n 36425: a0 = sp + 0x60\n 36428: a1 = sp + 0x40\n 36431: a2 = sp + 0x20\n 36434: a3 = u64 [sp + 0x18]\n 36437: u64 [sp + 0x60] = a3\n 36440: ra = 432, jump @866\n      : @511 [@dyn 216] (gas: 3)\n 36446: a0 = 0\n 36448: a1 = 0\n 36450: ra = 434, jump @0\n      : @512 [@dyn 217] (gas: 6)\n 36457: i32 a1 = a0 + 0\n 36459: a0 = 0x1\n 36462: a2 = 0\n 36464: ra = 0x1b4\n 36468: ecalli 14 // 'seal_return'\n 36470: fallthrough\n      : @513 [@dyn 218] (gas: 8)\n 36471: sp = sp + 0xffffffffffffff80\n 36474: u64 [sp + 0x78] = ra\n 36477: u64 [sp + 0x70] = s0\n 36480: u64 [sp + 0x68] = s1\n 36483: s0 = sp + 0x80\n 36487: sp = sp & 0xfffffffffffffff0\n 36490: a0 = i32 [0x20078]\n 36495: jump @518 if a0 <=u 3\n      : @514 (gas: 6)\n 36500: u64 [sp + 56] = 0\n 36503: u64 [sp + 48] = 0\n 36506: u64 [sp + 40] = 0\n 36509: a0 = sp + 0x40\n 36512: u64 [sp + 32] = 0\n 36515: ra = 438, jump @930\n      : @515 [@dyn 219] (gas: 11)\n 36521: a0 = u64 [sp + 0x58]\n 36524: u64 [sp] = a0\n 36526: a0 = u64 [sp + 0x50]\n 36529: u64 [sp + 0x8] = a0\n 36532: a0 = u64 [sp + 0x48]\n 36535: u64 [sp + 0x10] = a0\n 36538: a0 = u64 [sp + 0x40]\n 36541: u64 [sp + 0x18] = a0\n 36544: a0 = 0x40\n 36547: a1 = 0x20\n 36550: ra = 440, jump @0\n      : @516 [@dyn 220] (gas: 100)\n 36557: a1 = u8 [a0 + 0x11]\n 36560: a2 = u8 [a0 + 0x10]\n 36563: a3 = u8 [a0 + 0x12]\n 36566: a4 = u8 [a0 + 0x13]\n 36569: a1 = a1 << 0x8\n 36572: a1 = a1 | a2\n 36575: a3 = a3 << 0x10\n 36578: a4 = a4 << 0x18\n 36581: a3 = a3 | a4\n 36584: a1 = a1 | a3\n 36587: a2 = u8 [a0 + 0x15]\n 36590: a3 = u8 [a0 + 0x14]\n 36593: a4 = u8 [a0 + 0x16]\n 36596: a5 = u8 [a0 + 0x17]\n 36599: a2 = a2 << 0x8\n 36602: a2 = a2 | a3\n 36605: a4 = a4 << 0x10\n 36608: a5 = a5 << 0x18\n 36611: a4 = a4 | a5\n 36614: a2 = a2 | a4\n 36617: a2 = a2 << 0x20\n 36620: t0 = a2 | a1\n 36623: a2 = u8 [a0 + 0x1]\n 36626: a3 = u8 [a0]\n 36628: a4 = u8 [a0 + 0x2]\n 36631: a5 = u8 [a0 + 0x3]\n 36634: a2 = a2 << 0x8\n 36637: a2 = a2 | a3\n 36640: a4 = a4 << 0x10\n 36643: a5 = a5 << 0x18\n 36646: a4 = a4 | a5\n 36649: a2 = a2 | a4\n 36652: a3 = u8 [a0 + 0x5]\n 36655: a4 = u8 [a0 + 0x4]\n 36658: a5 = u8 [a0 + 0x6]\n 36661: s1 = u8 [a0 + 0x7]\n 36664: a3 = a3 << 0x8\n 36667: a3 = a3 | a4\n 36670: a5 = a5 << 0x10\n 36673: s1 = s1 << 0x18\n 36676: a5 = a5 | s1\n 36679: a3 = a3 | a5\n 36682: a3 = a3 << 0x20\n 36685: a2 = a2 | a3\n 36688: a3 = u8 [a0 + 0x19]\n 36691: a4 = u8 [a0 + 0x18]\n 36694: a5 = u8 [a0 + 0x1a]\n 36697: s1 = u8 [a0 + 0x1b]\n 36700: a3 = a3 << 0x8\n 36703: a3 = a3 | a4\n 36706: a5 = a5 << 0x10\n 36709: s1 = s1 << 0x18\n 36712: a5 = a5 | s1\n 36715: a3 = a3 | a5\n 36718: a4 = u8 [a0 + 0x1d]\n 36721: a5 = u8 [a0 + 0x1c]\n 36724: s1 = u8 [a0 + 0x1e]\n 36727: a1 = u8 [a0 + 0x1f]\n 36730: a4 = a4 << 0x8\n 36733: a4 = a4 | a5\n 36736: s1 = s1 << 0x10\n 36739: a1 = a1 << 0x18\n 36742: a1 = a1 | s1\n 36745: a1 = a1 | a4\n 36748: a1 = a1 << 0x20\n 36751: a3 = a3 | a1\n 36754: a1 = u8 [a0 + 0x9]\n 36757: a4 = u8 [a0 + 0x8]\n 36760: a5 = u8 [a0 + 0xa]\n 36763: s1 = u8 [a0 + 0xb]\n 36766: a1 = a1 << 0x8\n 36769: a1 = a1 | a4\n 36772: a5 = a5 << 0x10\n 36775: s1 = s1 << 0x18\n 36778: a5 = a5 | s1\n 36781: a1 = a1 | a5\n 36784: a4 = u8 [a0 + 0xd]\n 36787: a5 = u8 [a0 + 0xc]\n 36790: s1 = u8 [a0 + 0xe]\n 36793: a0 = u8 [a0 + 0xf]\n 36796: a4 = a4 << 0x8\n 36799: a4 = a4 | a5\n 36802: s1 = s1 << 0x10\n 36805: a0 = a0 << 0x18\n 36808: a0 = a0 | s1\n 36811: a0 = a0 | a4\n 36814: a0 = a0 << 0x20\n 36817: a0 = a0 | a1\n 36820: a1 = reverse a0\n 36822: a0 = reverse a3\n 36824: a2 = reverse a2\n 36826: a3 = reverse t0\n 36828: a2 = a2 | a3\n 36831: a3 = a0 | a1\n 36834: a3 = a3 | a2\n 36837: a3 = a3 >> 0x20\n 36840: a1 = a1 | a2\n 36843: a1 = a1 << 0x20\n 36846: a1 = a1 | a3\n 36849: jump @520 if a1 == 0\n      : @517 (gas: 1)\n 36852: trap\n      : @518 (gas: 3)\n 36853: a0 = 0\n 36855: a1 = 0\n 36857: ra = 442, jump @0\n      : @519 [@dyn 221] (gas: 5)\n 36864: i32 a1 = a0 + 0\n 36866: a0 = 0x1\n 36869: a2 = 0\n 36871: ecalli 14 // 'seal_return'\n 36873: fallthrough\n      : @520 (gas: 4)\n 36874: i32 s1 = a0 + 0\n 36876: a1 = 0x20\n 36879: a0 = s1\n 36881: ra = 444, jump @0\n      : @521 [@dyn 222] (gas: 71)\n 36888: a1 = u64 [sp]\n 36890: a1 = reverse a1\n 36892: a2 = u64 [sp + 0x8]\n 36895: a2 = reverse a2\n 36897: a3 = u64 [sp + 0x10]\n 36900: a3 = reverse a3\n 36902: a4 = u64 [sp + 0x18]\n 36905: a4 = reverse a4\n 36907: a5 = a4 >> 0x38\n 36910: u8 [a0 + 0x1f] = a5\n 36913: a5 = a4 >> 0x30\n 36916: u8 [a0 + 0x1e] = a5\n 36919: a5 = a4 >> 0x28\n 36922: u8 [a0 + 0x1d] = a5\n 36925: a5 = a4 >> 0x20\n 36928: u8 [a0 + 0x1c] = a5\n 36931: a5 = a4 >> 0x18\n 36934: u8 [a0 + 0x1b] = a5\n 36937: a5 = a4 >> 0x10\n 36940: u8 [a0 + 0x1a] = a5\n 36943: a5 = a4 >> 0x8\n 36946: u8 [a0 + 0x19] = a5\n 36949: u8 [a0 + 0x18] = a4\n 36952: u8 [a0 + 0x10] = a3\n 36955: a4 = a3 >> 0x38\n 36958: u8 [a0 + 0x17] = a4\n 36961: a4 = a3 >> 0x30\n 36964: u8 [a0 + 0x16] = a4\n 36967: a4 = a3 >> 0x28\n 36970: u8 [a0 + 0x15] = a4\n 36973: a4 = a3 >> 0x20\n 36976: u8 [a0 + 0x14] = a4\n 36979: a4 = a3 >> 0x18\n 36982: u8 [a0 + 0x13] = a4\n 36985: a4 = a3 >> 0x10\n 36988: u8 [a0 + 0x12] = a4\n 36991: a3 = a3 >> 0x8\n 36994: u8 [a0 + 0x11] = a3\n 36997: u8 [a0 + 0x8] = a2\n 37000: a3 = a2 >> 0x38\n 37003: u8 [a0 + 0xf] = a3\n 37006: a3 = a2 >> 0x30\n 37009: u8 [a0 + 0xe] = a3\n 37012: a3 = a2 >> 0x28\n 37015: u8 [a0 + 0xd] = a3\n 37018: a3 = a2 >> 0x20\n 37021: u8 [a0 + 0xc] = a3\n 37024: a3 = a2 >> 0x18\n 37027: u8 [a0 + 0xb] = a3\n 37030: a3 = a2 >> 0x10\n 37033: u8 [a0 + 0xa] = a3\n 37036: a2 = a2 >> 0x8\n 37039: u8 [a0 + 0x9] = a2\n 37042: u8 [a0] = a1\n 37044: a2 = a1 >> 0x38\n 37047: u8 [a0 + 0x7] = a2\n 37050: a2 = a1 >> 0x30\n 37053: u8 [a0 + 0x6] = a2\n 37056: a2 = a1 >> 0x28\n 37059: u8 [a0 + 0x5] = a2\n 37062: a2 = a1 >> 0x20\n 37065: u8 [a0 + 0x4] = a2\n 37068: a2 = a1 >> 0x18\n 37071: u8 [a0 + 0x3] = a2\n 37074: a2 = a1 >> 0x10\n 37077: u8 [a0 + 0x2] = a2\n 37080: a1 = a1 >> 0x8\n 37083: u8 [a0 + 0x1] = a1\n 37086: a1 = 0x20\n 37089: a0 = s1\n 37091: ra = 446, jump @0\n      : @522 [@dyn 223] (gas: 6)\n 37098: i32 a1 = a0 + 0\n 37100: a2 = 0x20\n 37103: a0 = 0\n 37105: ra = 0x1c0\n 37109: ecalli 14 // 'seal_return'\n 37111: fallthrough\n      : @523 [@dyn 224] (gas: 9)\n 37112: a2 = u64 [a1 + 0x18]\n 37115: a3 = u64 [a1 + 0x10]\n 37118: a4 = u64 [a1 + 0x8]\n 37121: a1 = u64 [a1]\n 37123: u64 [a0 + 0x18] = a2\n 37126: u64 [a0 + 0x10] = a3\n 37129: u64 [a0 + 0x8] = a4\n 37132: u64 [a0] = a1\n 37134: ret\n      : @524 (gas: 8)\n 37136: a0 = u64 [sp + 0x90]\n 37140: a1 = u64 [sp + 0x98]\n 37144: a2 = u64 [sp + 0x88]\n 37148: a3 = u64 [sp + 0x80]\n 37152: a1 = a1 | a2\n 37155: a0 = a0 | a3\n 37158: a0 = a0 | a1\n 37161: jump @530 if a0 != 0\n      : @525 (gas: 2)\n 37165: a0 = i32 [0x20078]\n 37170: jump @530 if a0 <=u 67\n      : @526 (gas: 32)\n 37175: i32 a0 = sp + 0xa0\n 37179: a1 = 0x4\n 37182: ecalli 3 // 'call_data_load'\n 37184: a0 = u64 [sp + 0xa0]\n 37188: u64 [sp + 0x18] = a0\n 37191: a0 = u64 [sp + 0xa8]\n 37195: u64 [sp + 0x10] = a0\n 37198: a0 = u64 [sp + 0xb0]\n 37202: u64 [sp + 0x8] = a0\n 37205: s1 = u64 [sp + 0xb8]\n 37209: i32 a0 = sp + 0xa0\n 37213: a1 = 0x24\n 37216: ecalli 3 // 'call_data_load'\n 37218: a0 = u64 [sp + 0xa0]\n 37222: a1 = u64 [sp + 0xa8]\n 37226: a2 = u64 [sp + 0xb0]\n 37230: a3 = u64 [sp + 0xb8]\n 37234: u64 [sp + 0x38] = a3\n 37237: u64 [sp + 0x30] = a2\n 37240: u64 [sp + 0x28] = a1\n 37243: u64 [sp + 0x20] = a0\n 37246: u64 [sp + 0x58] = s1\n 37249: a0 = u64 [sp + 0x8]\n 37252: u64 [sp + 0x50] = a0\n 37255: a0 = u64 [sp + 0x10]\n 37258: u64 [sp + 0x48] = a0\n 37261: a0 = sp + 0x60\n 37264: a1 = sp + 0x40\n 37267: a2 = sp + 0x20\n 37270: a3 = u64 [sp + 0x18]\n 37273: u64 [sp + 0x40] = a3\n 37276: ra = 450, jump @1418\n      : @527 [@dyn 225] (gas: 11)\n 37283: a0 = u64 [sp + 0x78]\n 37286: u64 [sp] = a0\n 37288: a0 = u64 [sp + 0x70]\n 37291: u64 [sp + 0x8] = a0\n 37294: a0 = u64 [sp + 0x68]\n 37297: u64 [sp + 0x10] = a0\n 37300: a0 = u64 [sp + 0x60]\n 37303: u64 [sp + 0x18] = a0\n 37306: a0 = 0x40\n 37309: a1 = 0x20\n 37312: ra = 452, jump @0\n      : @528 [@dyn 226] (gas: 100)\n 37319: a1 = u8 [a0 + 0x11]\n 37322: a2 = u8 [a0 + 0x10]\n 37325: a3 = u8 [a0 + 0x12]\n 37328: a4 = u8 [a0 + 0x13]\n 37331: a1 = a1 << 0x8\n 37334: a1 = a1 | a2\n 37337: a3 = a3 << 0x10\n 37340: a4 = a4 << 0x18\n 37343: a3 = a3 | a4\n 37346: a1 = a1 | a3\n 37349: a2 = u8 [a0 + 0x15]\n 37352: a3 = u8 [a0 + 0x14]\n 37355: a4 = u8 [a0 + 0x16]\n 37358: a5 = u8 [a0 + 0x17]\n 37361: a2 = a2 << 0x8\n 37364: a2 = a2 | a3\n 37367: a4 = a4 << 0x10\n 37370: a5 = a5 << 0x18\n 37373: a4 = a4 | a5\n 37376: a2 = a2 | a4\n 37379: a2 = a2 << 0x20\n 37382: t0 = a2 | a1\n 37385: a2 = u8 [a0 + 0x1]\n 37388: a3 = u8 [a0]\n 37390: a4 = u8 [a0 + 0x2]\n 37393: a5 = u8 [a0 + 0x3]\n 37396: a2 = a2 << 0x8\n 37399: a2 = a2 | a3\n 37402: a4 = a4 << 0x10\n 37405: a5 = a5 << 0x18\n 37408: a4 = a4 | a5\n 37411: a2 = a2 | a4\n 37414: a3 = u8 [a0 + 0x5]\n 37417: a4 = u8 [a0 + 0x4]\n 37420: a5 = u8 [a0 + 0x6]\n 37423: s1 = u8 [a0 + 0x7]\n 37426: a3 = a3 << 0x8\n 37429: a3 = a3 | a4\n 37432: a5 = a5 << 0x10\n 37435: s1 = s1 << 0x18\n 37438: a5 = a5 | s1\n 37441: a3 = a3 | a5\n 37444: a3 = a3 << 0x20\n 37447: a2 = a2 | a3\n 37450: a3 = u8 [a0 + 0x19]\n 37453: a4 = u8 [a0 + 0x18]\n 37456: a5 = u8 [a0 + 0x1a]\n 37459: s1 = u8 [a0 + 0x1b]\n 37462: a3 = a3 << 0x8\n 37465: a3 = a3 | a4\n 37468: a5 = a5 << 0x10\n 37471: s1 = s1 << 0x18\n 37474: a5 = a5 | s1\n 37477: a3 = a3 | a5\n 37480: a4 = u8 [a0 + 0x1d]\n 37483: a5 = u8 [a0 + 0x1c]\n 37486: s1 = u8 [a0 + 0x1e]\n 37489: a1 = u8 [a0 + 0x1f]\n 37492: a4 = a4 << 0x8\n 37495: a4 = a4 | a5\n 37498: s1 = s1 << 0x10\n 37501: a1 = a1 << 0x18\n 37504: a1 = a1 | s1\n 37507: a1 = a1 | a4\n 37510: a1 = a1 << 0x20\n 37513: a3 = a3 | a1\n 37516: a1 = u8 [a0 + 0x9]\n 37519: a4 = u8 [a0 + 0x8]\n 37522: a5 = u8 [a0 + 0xa]\n 37525: s1 = u8 [a0 + 0xb]\n 37528: a1 = a1 << 0x8\n 37531: a1 = a1 | a4\n 37534: a5 = a5 << 0x10\n 37537: s1 = s1 << 0x18\n 37540: a5 = a5 | s1\n 37543: a1 = a1 | a5\n 37546: a4 = u8 [a0 + 0xd]\n 37549: a5 = u8 [a0 + 0xc]\n 37552: s1 = u8 [a0 + 0xe]\n 37555: a0 = u8 [a0 + 0xf]\n 37558: a4 = a4 << 0x8\n 37561: a4 = a4 | a5\n 37564: s1 = s1 << 0x10\n 37567: a0 = a0 << 0x18\n 37570: a0 = a0 | s1\n 37573: a0 = a0 | a4\n 37576: a0 = a0 << 0x20\n 37579: a0 = a0 | a1\n 37582: a1 = reverse a0\n 37584: a0 = reverse a3\n 37586: a2 = reverse a2\n 37588: a3 = reverse t0\n 37590: a2 = a2 | a3\n 37593: a3 = a0 | a1\n 37596: a3 = a3 | a2\n 37599: a3 = a3 >> 0x20\n 37602: a1 = a1 | a2\n 37605: a1 = a1 << 0x20\n 37608: a1 = a1 | a3\n 37611: jump @532 if a1 == 0\n      : @529 (gas: 1)\n 37614: trap\n      : @530 (gas: 3)\n 37615: a0 = 0\n 37617: a1 = 0\n 37619: ra = 454, jump @0\n      : @531 [@dyn 227] (gas: 5)\n 37626: i32 a1 = a0 + 0\n 37628: a0 = 0x1\n 37631: a2 = 0\n 37633: ecalli 14 // 'seal_return'\n 37635: fallthrough\n      : @532 (gas: 4)\n 37636: i32 s1 = a0 + 0\n 37638: a1 = 0x20\n 37641: a0 = s1\n 37643: ra = 456, jump @0\n      : @533 [@dyn 228] (gas: 71)\n 37650: a1 = u64 [sp]\n 37652: a1 = reverse a1\n 37654: a2 = u64 [sp + 0x8]\n 37657: a2 = reverse a2\n 37659: a3 = u64 [sp + 0x10]\n 37662: a3 = reverse a3\n 37664: a4 = u64 [sp + 0x18]\n 37667: a4 = reverse a4\n 37669: a5 = a4 >> 0x38\n 37672: u8 [a0 + 0x1f] = a5\n 37675: a5 = a4 >> 0x30\n 37678: u8 [a0 + 0x1e] = a5\n 37681: a5 = a4 >> 0x28\n 37684: u8 [a0 + 0x1d] = a5\n 37687: a5 = a4 >> 0x20\n 37690: u8 [a0 + 0x1c] = a5\n 37693: a5 = a4 >> 0x18\n 37696: u8 [a0 + 0x1b] = a5\n 37699: a5 = a4 >> 0x10\n 37702: u8 [a0 + 0x1a] = a5\n 37705: a5 = a4 >> 0x8\n 37708: u8 [a0 + 0x19] = a5\n 37711: u8 [a0 + 0x18] = a4\n 37714: u8 [a0 + 0x10] = a3\n 37717: a4 = a3 >> 0x38\n 37720: u8 [a0 + 0x17] = a4\n 37723: a4 = a3 >> 0x30\n 37726: u8 [a0 + 0x16] = a4\n 37729: a4 = a3 >> 0x28\n 37732: u8 [a0 + 0x15] = a4\n 37735: a4 = a3 >> 0x20\n 37738: u8 [a0 + 0x14] = a4\n 37741: a4 = a3 >> 0x18\n 37744: u8 [a0 + 0x13] = a4\n 37747: a4 = a3 >> 0x10\n 37750: u8 [a0 + 0x12] = a4\n 37753: a3 = a3 >> 0x8\n 37756: u8 [a0 + 0x11] = a3\n 37759: u8 [a0 + 0x8] = a2\n 37762: a3 = a2 >> 0x38\n 37765: u8 [a0 + 0xf] = a3\n 37768: a3 = a2 >> 0x30\n 37771: u8 [a0 + 0xe] = a3\n 37774: a3 = a2 >> 0x28\n 37777: u8 [a0 + 0xd] = a3\n 37780: a3 = a2 >> 0x20\n 37783: u8 [a0 + 0xc] = a3\n 37786: a3 = a2 >> 0x18\n 37789: u8 [a0 + 0xb] = a3\n 37792: a3 = a2 >> 0x10\n 37795: u8 [a0 + 0xa] = a3\n 37798: a2 = a2 >> 0x8\n 37801: u8 [a0 + 0x9] = a2\n 37804: u8 [a0] = a1\n 37806: a2 = a1 >> 0x38\n 37809: u8 [a0 + 0x7] = a2\n 37812: a2 = a1 >> 0x30\n 37815: u8 [a0 + 0x6] = a2\n 37818: a2 = a1 >> 0x28\n 37821: u8 [a0 + 0x5] = a2\n 37824: a2 = a1 >> 0x20\n 37827: u8 [a0 + 0x4] = a2\n 37830: a2 = a1 >> 0x18\n 37833: u8 [a0 + 0x3] = a2\n 37836: a2 = a1 >> 0x10\n 37839: u8 [a0 + 0x2] = a2\n 37842: a1 = a1 >> 0x8\n 37845: u8 [a0 + 0x1] = a1\n 37848: a1 = 0x20\n 37851: a0 = s1\n 37853: ra = 458, jump @0\n      : @534 [@dyn 229] (gas: 6)\n 37860: i32 a1 = a0 + 0\n 37862: a2 = 0x20\n 37865: a0 = 0\n 37867: ra = 0x1cc\n 37871: ecalli 14 // 'seal_return'\n 37873: fallthrough\n      : @535 [@dyn 230] (gas: 43)\n 37874: sp = sp + 0xfffffffffffffe80\n 37878: u64 [sp + 0x178] = ra\n 37882: u64 [sp + 0x170] = s0\n 37886: u64 [sp + 0x168] = s1\n 37890: s0 = sp + 0x180\n 37894: sp = sp & 0xffffffffffffffe0\n 37897: t2 = u64 [a2 + 0x8]\n 37900: ra = u64 [a1 + 0x8]\n 37903: s1 = u64 [a2]\n 37905: a5 = u64 [a1]\n 37907: t0 = u64 [a2 + 0x10]\n 37910: a4 = t2 ^ ra\n 37913: a3 = t2 <u ra\n 37916: t1 = s1 <u a5\n 37919: a3 = t1 if a4 == 0\n 37922: a4 = t2 - ra\n 37925: a4 = a4 - t1\n 37928: u64 [sp + 0x60] = s1\n 37931: u64 [sp + 0x98] = a5\n 37935: a5 = s1 - a5\n 37938: a5 = a5 <u 0x60\n 37941: a5 = a5 ^ 0x1\n 37944: t1 = u64 [a1 + 0x10]\n 37947: s1 = a4 >u 0\n 37949: a5 = s1 if a4 != 0\n 37952: a4 = u64 [a2 + 0x18]\n 37955: s1 = u64 [a1 + 0x18]\n 37958: a1 = t0 - t1\n 37961: a2 = a1 - a3\n 37964: a1 = a1 <u a3\n 37967: u64 [sp + 0x90] = t1\n 37971: a3 = t0 <u t1\n 37974: u64 [sp + 0x58] = a4\n 37977: u64 [sp + 0x88] = s1\n 37981: a4 = a4 - s1\n 37984: a4 = a4 - a3\n 37987: a4 = a4 - a1\n 37990: a1 = a4 >s 0\n 37992: a3 = a2 >u 0\n 37994: a3 = a1 if a4 != 0\n 37997: a2 = a2 | a4\n 38000: a5 = a3 if a2 != 0\n 38003: jump @546 if a5 == 0\n      : @536 (gas: 15)\n 38007: s1 = a0\n 38009: u64 [sp + 0x68] = t0\n 38012: u64 [sp + 0x70] = t2\n 38015: a2 = u64 [sp + 0x90]\n 38019: t2 = u64 [sp + 0x98]\n 38023: a0 = t2 | a2\n 38026: a1 = u64 [sp + 0x88]\n 38030: a1 = ra | a1\n 38033: a0 = a0 | a1\n 38036: a0 = a0 >> 0x20\n 38039: a1 = a1 | a2\n 38042: a1 = a1 << 0x20\n 38045: a0 = a0 | a1\n 38048: u64 [sp + 0x80] = ra\n 38052: jump @545 if a0 != 0\n      : @537 (gas: 5)\n 38056: i32 a1 = t2 + 0\n 38058: i32 a0 = sp + 0x140\n 38062: u64 [sp + 0x78] = a1\n 38065: ecalli 3 // 'call_data_load'\n 38067: fallthrough\n      : @538 (gas: 13)\n 38068: a0 = u64 [sp + 0x90]\n 38072: a1 = u64 [sp + 0x88]\n 38076: a2 = a0 | a1\n 38079: a0 = 0x100000000\n 38089: u64 [sp + 0x48] = a0\n 38092: a0 = 0xffffffe0\n 38102: a1 = u64 [sp + 0x98]\n 38106: a0 = a1 <u a0\n 38109: a1 = u64 [sp + 0x80]\n 38113: a0 = 0 if a1 != 0\n 38115: u64 [sp + 0x50] = a2\n 38118: a0 = 0 if a2 != 0\n 38120: jump @545 if a0 == 0\n      : @539 (gas: 13)\n 38124: a0 = u64 [sp + 0x158]\n 38128: u64 [sp + 0x38] = a0\n 38131: a0 = u64 [sp + 0x150]\n 38135: u64 [sp + 0x28] = a0\n 38138: a0 = u64 [sp + 0x148]\n 38142: u64 [sp + 0x40] = a0\n 38145: a0 = u64 [sp + 0x140]\n 38149: u64 [sp + 0x30] = a0\n 38152: a0 = u64 [sp + 0x78]\n 38155: i32 a1 = a0 + 0x20\n 38158: i32 a0 = sp + 0x140\n 38162: ecalli 3 // 'call_data_load'\n 38164: fallthrough\n      : @540 (gas: 9)\n 38165: a0 = u64 [sp + 0x48]\n 38168: a0 = a0 + 0xffffffffffffffc0\n 38171: a1 = u64 [sp + 0x98]\n 38175: a0 = a1 <u a0\n 38178: a1 = u64 [sp + 0x80]\n 38182: a0 = 0 if a1 != 0\n 38184: a1 = u64 [sp + 0x50]\n 38187: a0 = 0 if a1 != 0\n 38189: jump @545 if a0 == 0\n      : @541 (gas: 13)\n 38193: a0 = u64 [sp + 0x158]\n 38197: u64 [sp + 0x48] = a0\n 38200: a0 = u64 [sp + 0x150]\n 38204: u64 [sp + 0x18] = a0\n 38207: a0 = u64 [sp + 0x148]\n 38211: u64 [sp + 0x50] = a0\n 38214: a0 = u64 [sp + 0x140]\n 38218: u64 [sp + 0x20] = a0\n 38221: a0 = u64 [sp + 0x78]\n 38224: i32 a1 = a0 + 0x40\n 38227: i32 a0 = sp + 0x120\n 38231: ecalli 3 // 'call_data_load'\n 38233: fallthrough\n      : @542 (gas: 7)\n 38234: t0 = u64 [sp + 0x138]\n 38238: a1 = u64 [sp + 0x130]\n 38242: a2 = u64 [sp + 0x128]\n 38246: a3 = a1 | t0\n 38249: a4 = a2 <u 0x1\n 38252: a4 = 0 if a3 != 0\n 38254: jump @546 if a4 == 0\n      : @543 (gas: 35)\n 38258: a3 = u64 [sp + 0x120]\n 38262: a4 = u64 [sp + 0x98]\n 38266: a4 = a4 + a3\n 38269: a3 = a4 <u a3\n 38272: a5 = u64 [sp + 0x80]\n 38276: a5 = a5 + a2\n 38279: a5 = a5 + a3\n 38282: a0 = a5 ^ a2\n 38285: a2 = a5 <u a2\n 38288: a2 = a3 if a0 == 0\n 38291: a0 = u64 [sp + 0x90]\n 38295: a0 = a0 + a1\n 38298: a2 = a2 + a0\n 38301: a3 = a2 <u a0\n 38304: a0 = a0 <u a1\n 38307: a1 = u64 [sp + 0x88]\n 38311: t0 = t0 + a1\n 38314: a0 = a0 + t0\n 38317: a3 = a3 + a0\n 38320: a0 = u64 [sp + 0x60]\n 38323: u64 [sp + 0xa0] = a0\n 38327: a0 = u64 [sp + 0x70]\n 38330: u64 [sp + 0xa8] = a0\n 38334: u64 [sp + 0xc0] = a4\n 38338: a0 = u64 [sp + 0x68]\n 38341: u64 [sp + 0xb0] = a0\n 38345: a0 = u64 [sp + 0x58]\n 38348: u64 [sp + 0xb8] = a0\n 38352: u64 [sp + 0xc8] = a5\n 38356: u64 [sp + 0xd0] = a2\n 38360: a0 = sp + 0xe0\n 38364: a1 = sp + 0xc0\n 38368: a2 = sp + 0xa0\n 38372: u64 [sp + 0xd8] = a3\n 38376: ra = 462, jump @446\n      : @544 [@dyn 231] (gas: 38)\n 38382: t0 = u64 [sp + 0xe8]\n 38386: t1 = u64 [sp + 0xe0]\n 38390: a2 = u64 [sp + 0xf8]\n 38394: a3 = u64 [sp + 0xf0]\n 38398: a4 = u64 [sp + 0x110]\n 38402: a5 = u64 [sp + 0x118]\n 38406: a0 = u64 [sp + 0x100]\n 38410: a1 = u64 [sp + 0x108]\n 38414: u64 [s1 + 0x70] = a4\n 38417: u64 [s1 + 0x78] = a5\n 38420: u64 [s1 + 0x60] = a0\n 38423: u64 [s1 + 0x68] = a1\n 38426: u64 [s1 + 0x50] = a3\n 38429: u64 [s1 + 0x58] = a2\n 38432: u64 [s1 + 0x40] = t1\n 38435: u64 [s1 + 0x48] = t0\n 38438: a0 = u64 [sp + 0x18]\n 38441: u64 [s1 + 0x30] = a0\n 38444: a0 = u64 [sp + 0x48]\n 38447: u64 [s1 + 0x38] = a0\n 38450: a0 = u64 [sp + 0x20]\n 38453: u64 [s1 + 0x20] = a0\n 38456: a0 = u64 [sp + 0x50]\n 38459: u64 [s1 + 0x28] = a0\n 38462: a0 = u64 [sp + 0x28]\n 38465: u64 [s1 + 0x10] = a0\n 38468: a0 = u64 [sp + 0x38]\n 38471: u64 [s1 + 0x18] = a0\n 38474: a0 = u64 [sp + 0x30]\n 38477: u64 [s1] = a0\n 38479: a0 = u64 [sp + 0x40]\n 38482: u64 [s1 + 0x8] = a0\n 38485: sp = s0 + 0xfffffffffffffe80\n 38489: ra = u64 [sp + 0x178]\n 38493: s0 = u64 [sp + 0x170]\n 38497: s1 = u64 [sp + 0x168]\n 38501: sp = sp + 0x180\n 38505: ret\n      : @545 (gas: 1)\n 38507: trap\n      : @546 (gas: 3)\n 38508: a0 = 0\n 38510: a1 = 0\n 38512: ra = 464, jump @0\n      : @547 [@dyn 232] (gas: 6)\n 38519: i32 a1 = a0 + 0\n 38521: a0 = 0x1\n 38524: a2 = 0\n 38526: ra = 0x1d2\n 38530: ecalli 14 // 'seal_return'\n 38532: fallthrough\n      : @548 [@dyn 233] (gas: 13)\n 38533: sp = sp + 0xfffffffffffffe40\n 38537: u64 [sp + 0x1b8] = ra\n 38541: u64 [sp + 0x1b0] = s0\n 38545: u64 [sp + 0x1a8] = s1\n 38549: s0 = sp + 0x1c0\n 38553: sp = sp & 0xffffffffffffffe0\n 38556: u64 [sp + 408] = 0\n 38560: u64 [sp + 400] = 0\n 38564: u64 [sp + 392] = 0\n 38568: u64 [sp + 384] = 0\n 38572: i32 a0 = sp + 0x180\n 38576: ecalli 17 // 'value_transferred'\n 38578: fallthrough\n      : @549 (gas: 8)\n 38579: a0 = u64 [sp + 0x190]\n 38583: a1 = u64 [sp + 0x198]\n 38587: a2 = u64 [sp + 0x188]\n 38591: a3 = u64 [sp + 0x180]\n 38595: a1 = a1 | a2\n 38598: a0 = a0 | a3\n 38601: a0 = a0 | a1\n 38604: jump @555 if a0 != 0\n      : @550 (gas: 13)\n 38608: a0 = u32 [0x20078]\n 38613: u64 [sp + 216] = 0\n 38617: u64 [sp + 208] = 0\n 38621: u64 [sp + 200] = 0\n 38625: u64 [sp + 0xc0] = a0\n 38629: u64 [sp + 248] = 0\n 38633: u64 [sp + 240] = 0\n 38637: u64 [sp + 224] = 0x4\n 38642: a0 = sp + 0x100\n 38646: a1 = sp + 0xe0\n 38650: a2 = sp + 0xc0\n 38654: u64 [sp + 232] = 0\n 38658: ra = 468, jump @535\n      : @551 [@dyn 234] (gas: 47)\n 38664: a0 = u64 [sp + 0x100]\n 38668: u64 [sp + 0x38] = a0\n 38671: a0 = u64 [sp + 0x108]\n 38675: u64 [sp + 0x30] = a0\n 38678: a0 = u64 [sp + 0x110]\n 38682: u64 [sp + 0x28] = a0\n 38685: a0 = u64 [sp + 0x118]\n 38689: u64 [sp + 0x20] = a0\n 38692: a0 = u64 [sp + 0x120]\n 38696: u64 [sp + 0x18] = a0\n 38699: ra = u64 [sp + 0x128]\n 38703: t2 = u64 [sp + 0x130]\n 38707: t1 = u64 [sp + 0x138]\n 38711: t0 = u64 [sp + 0x140]\n 38715: s1 = u64 [sp + 0x148]\n 38719: a5 = u64 [sp + 0x150]\n 38723: a4 = u64 [sp + 0x158]\n 38727: a3 = u64 [sp + 0x160]\n 38731: a2 = u64 [sp + 0x168]\n 38735: a1 = u64 [sp + 0x170]\n 38739: a0 = u64 [sp + 0x178]\n 38743: u64 [sp + 0x58] = a0\n 38746: u64 [sp + 0x50] = a1\n 38749: u64 [sp + 0x48] = a2\n 38752: u64 [sp + 0x40] = a3\n 38755: u64 [sp + 0x78] = a4\n 38758: u64 [sp + 0x70] = a5\n 38761: u64 [sp + 0x68] = s1\n 38764: u64 [sp + 0x60] = t0\n 38767: u64 [sp + 0x98] = t1\n 38771: u64 [sp + 0x90] = t2\n 38775: u64 [sp + 0x88] = ra\n 38779: a0 = u64 [sp + 0x18]\n 38782: u64 [sp + 0x80] = a0\n 38786: a0 = u64 [sp + 0x20]\n 38789: u64 [sp + 0xb8] = a0\n 38793: a0 = u64 [sp + 0x28]\n 38796: u64 [sp + 0xb0] = a0\n 38800: a0 = u64 [sp + 0x30]\n 38803: u64 [sp + 0xa8] = a0\n 38807: a0 = sp + 0xa0\n 38811: a1 = sp + 0x80\n 38815: a2 = sp + 0x60\n 38818: a3 = sp + 0x40\n 38821: a4 = u64 [sp + 0x38]\n 38824: u64 [sp + 0xa0] = a4\n 38828: ra = 470, jump @1010\n      : @552 [@dyn 235] (gas: 3)\n 38835: a0 = 0x40\n 38838: a1 = 0x20\n 38841: ra = 472, jump @0\n      : @553 [@dyn 236] (gas: 100)\n 38848: a1 = u8 [a0 + 0x11]\n 38851: a2 = u8 [a0 + 0x10]\n 38854: a3 = u8 [a0 + 0x12]\n 38857: a4 = u8 [a0 + 0x13]\n 38860: a1 = a1 << 0x8\n 38863: a1 = a1 | a2\n 38866: a3 = a3 << 0x10\n 38869: a4 = a4 << 0x18\n 38872: a3 = a3 | a4\n 38875: a1 = a1 | a3\n 38878: a2 = u8 [a0 + 0x15]\n 38881: a3 = u8 [a0 + 0x14]\n 38884: a4 = u8 [a0 + 0x16]\n 38887: a5 = u8 [a0 + 0x17]\n 38890: a2 = a2 << 0x8\n 38893: a2 = a2 | a3\n 38896: a4 = a4 << 0x10\n 38899: a5 = a5 << 0x18\n 38902: a4 = a4 | a5\n 38905: a2 = a2 | a4\n 38908: a2 = a2 << 0x20\n 38911: t0 = a2 | a1\n 38914: a2 = u8 [a0 + 0x1]\n 38917: a3 = u8 [a0]\n 38919: a4 = u8 [a0 + 0x2]\n 38922: a5 = u8 [a0 + 0x3]\n 38925: a2 = a2 << 0x8\n 38928: a2 = a2 | a3\n 38931: a4 = a4 << 0x10\n 38934: a5 = a5 << 0x18\n 38937: a4 = a4 | a5\n 38940: a2 = a2 | a4\n 38943: a3 = u8 [a0 + 0x5]\n 38946: a4 = u8 [a0 + 0x4]\n 38949: a5 = u8 [a0 + 0x6]\n 38952: s1 = u8 [a0 + 0x7]\n 38955: a3 = a3 << 0x8\n 38958: a3 = a3 | a4\n 38961: a5 = a5 << 0x10\n 38964: s1 = s1 << 0x18\n 38967: a5 = a5 | s1\n 38970: a3 = a3 | a5\n 38973: a3 = a3 << 0x20\n 38976: a2 = a2 | a3\n 38979: a3 = u8 [a0 + 0x19]\n 38982: a4 = u8 [a0 + 0x18]\n 38985: a5 = u8 [a0 + 0x1a]\n 38988: s1 = u8 [a0 + 0x1b]\n 38991: a3 = a3 << 0x8\n 38994: a3 = a3 | a4\n 38997: a5 = a5 << 0x10\n 39000: s1 = s1 << 0x18\n 39003: a5 = a5 | s1\n 39006: a3 = a3 | a5\n 39009: a4 = u8 [a0 + 0x1d]\n 39012: a5 = u8 [a0 + 0x1c]\n 39015: s1 = u8 [a0 + 0x1e]\n 39018: a1 = u8 [a0 + 0x1f]\n 39021: a4 = a4 << 0x8\n 39024: a4 = a4 | a5\n 39027: s1 = s1 << 0x10\n 39030: a1 = a1 << 0x18\n 39033: a1 = a1 | s1\n 39036: a1 = a1 | a4\n 39039: a1 = a1 << 0x20\n 39042: a3 = a3 | a1\n 39045: a1 = u8 [a0 + 0x9]\n 39048: a4 = u8 [a0 + 0x8]\n 39051: a5 = u8 [a0 + 0xa]\n 39054: s1 = u8 [a0 + 0xb]\n 39057: a1 = a1 << 0x8\n 39060: a1 = a1 | a4\n 39063: a5 = a5 << 0x10\n 39066: s1 = s1 << 0x18\n 39069: a5 = a5 | s1\n 39072: a1 = a1 | a5\n 39075: a4 = u8 [a0 + 0xd]\n 39078: a5 = u8 [a0 + 0xc]\n 39081: s1 = u8 [a0 + 0xe]\n 39084: a0 = u8 [a0 + 0xf]\n 39087: a4 = a4 << 0x8\n 39090: a4 = a4 | a5\n 39093: s1 = s1 << 0x10\n 39096: a0 = a0 << 0x18\n 39099: a0 = a0 | s1\n 39102: a0 = a0 | a4\n 39105: a0 = a0 << 0x20\n 39108: a0 = a0 | a1\n 39111: a1 = reverse a0\n 39113: a0 = reverse a3\n 39115: a2 = reverse a2\n 39117: a3 = reverse t0\n 39119: a2 = a2 | a3\n 39122: a3 = a0 | a1\n 39125: a3 = a3 | a2\n 39128: a3 = a3 >> 0x20\n 39131: a1 = a1 | a2\n 39134: a1 = a1 << 0x20\n 39137: a1 = a1 | a3\n 39140: jump @557 if a1 == 0\n      : @554 (gas: 1)\n 39143: trap\n      : @555 (gas: 3)\n 39144: a0 = 0\n 39146: a1 = 0\n 39148: ra = 474, jump @0\n      : @556 [@dyn 237] (gas: 7)\n 39155: i32 a1 = a0 + 0\n 39157: a0 = 0x1\n 39160: a2 = 0\n 39162: ecalli 14 // 'seal_return'\n 39164: i32 a0 = a0 + 0\n 39166: ra = 0x1dc\n 39170: jump @0\n      : @557 (gas: 2)\n 39174: i32 a0 = a0 + 0\n 39176: ra = 476, jump @0\n      : @558 [@dyn 238] (gas: 6)\n 39183: i32 a1 = a0 + 0\n 39185: a0 = 0\n 39187: a2 = 0\n 39189: ra = 0x1de\n 39193: ecalli 14 // 'seal_return'\n 39195: fallthrough\n      : @559 [@dyn 239] (gas: 14)\n 39196: sp = sp + 0xffffffffffffffa0\n 39199: u64 [sp + 0x58] = ra\n 39202: u64 [sp + 0x50] = s0\n 39205: u64 [sp + 0x48] = s1\n 39208: s0 = sp + 0x60\n 39211: sp = sp & 0xfffffffffffffff0\n 39214: s1 = a0\n 39216: u64 [sp + 24] = 0\n 39219: u64 [sp + 16] = 0\n 39222: u64 [sp + 8] = 0\n 39225: a0 = sp + 0x20\n 39228: a1 = sp\n 39230: u64 [sp + 0] = 0\n 39232: ra = 480, jump @373\n      : @560 [@dyn 240] (gas: 14)\n 39238: a0 = u64 [sp + 0x30]\n 39241: a1 = u64 [sp + 0x38]\n 39244: a2 = u64 [sp + 0x20]\n 39247: a3 = u64 [sp + 0x28]\n 39250: u64 [s1 + 0x10] = a0\n 39253: u64 [s1 + 0x18] = a1\n 39256: u64 [s1] = a2\n 39258: u64 [s1 + 0x8] = a3\n 39261: sp = s0 + 0xffffffffffffffa0\n 39264: ra = u64 [sp + 0x58]\n 39267: s0 = u64 [sp + 0x50]\n 39270: s1 = u64 [sp + 0x48]\n 39273: sp = sp + 0x60\n 39276: ret\n      : @561 (gas: 8)\n 39278: a0 = u64 [sp + 0x110]\n 39282: a1 = u64 [sp + 0x118]\n 39286: a2 = u64 [sp + 0x108]\n 39290: a3 = u64 [sp + 0x100]\n 39294: a1 = a1 | a2\n 39297: a0 = a0 | a3\n 39300: a0 = a0 | a1\n 39303: jump @570 if a0 != 0\n      : @562 (gas: 2)\n 39307: a0 = i32 [0x20078]\n 39312: jump @570 if a0 <=u 3\n      : @563 (gas: 7)\n 39317: u64 [sp + 216] = 0\n 39321: u64 [sp + 208] = 0\n 39325: u64 [sp + 200] = 0\n 39329: a0 = sp + 0xe0\n 39333: a1 = sp + 0xc0\n 39337: u64 [sp + 192] = 0\n 39341: ra = 482, jump @373\n      : @564 [@dyn 241] (gas: 11)\n 39347: a0 = u64 [sp + 0xf8]\n 39351: u64 [sp + 0x40] = a0\n 39354: a0 = u64 [sp + 0xf0]\n 39358: u64 [sp + 0x48] = a0\n 39361: a0 = u64 [sp + 0xe8]\n 39365: u64 [sp + 0x50] = a0\n 39368: a0 = u64 [sp + 0xe0]\n 39372: u64 [sp + 0x58] = a0\n 39375: a0 = 0x40\n 39378: a1 = 0x20\n 39381: ra = 484, jump @0\n      : @565 [@dyn 242] (gas: 100)\n 39388: a1 = u8 [a0 + 0x11]\n 39391: a2 = u8 [a0 + 0x10]\n 39394: a3 = u8 [a0 + 0x12]\n 39397: a4 = u8 [a0 + 0x13]\n 39400: a1 = a1 << 0x8\n 39403: a1 = a1 | a2\n 39406: a3 = a3 << 0x10\n 39409: a4 = a4 << 0x18\n 39412: a3 = a3 | a4\n 39415: a1 = a1 | a3\n 39418: a2 = u8 [a0 + 0x15]\n 39421: a3 = u8 [a0 + 0x14]\n 39424: a4 = u8 [a0 + 0x16]\n 39427: a5 = u8 [a0 + 0x17]\n 39430: a2 = a2 << 0x8\n 39433: a2 = a2 | a3\n 39436: a4 = a4 << 0x10\n 39439: a5 = a5 << 0x18\n 39442: a4 = a4 | a5\n 39445: a2 = a2 | a4\n 39448: a2 = a2 << 0x20\n 39451: t0 = a2 | a1\n 39454: a2 = u8 [a0 + 0x1]\n 39457: a3 = u8 [a0]\n 39459: a4 = u8 [a0 + 0x2]\n 39462: a5 = u8 [a0 + 0x3]\n 39465: a2 = a2 << 0x8\n 39468: a2 = a2 | a3\n 39471: a4 = a4 << 0x10\n 39474: a5 = a5 << 0x18\n 39477: a4 = a4 | a5\n 39480: a2 = a2 | a4\n 39483: a3 = u8 [a0 + 0x5]\n 39486: a4 = u8 [a0 + 0x4]\n 39489: a5 = u8 [a0 + 0x6]\n 39492: s1 = u8 [a0 + 0x7]\n 39495: a3 = a3 << 0x8\n 39498: a3 = a3 | a4\n 39501: a5 = a5 << 0x10\n 39504: s1 = s1 << 0x18\n 39507: a5 = a5 | s1\n 39510: a3 = a3 | a5\n 39513: a3 = a3 << 0x20\n 39516: a2 = a2 | a3\n 39519: a3 = u8 [a0 + 0x19]\n 39522: a4 = u8 [a0 + 0x18]\n 39525: a5 = u8 [a0 + 0x1a]\n 39528: s1 = u8 [a0 + 0x1b]\n 39531: a3 = a3 << 0x8\n 39534: a3 = a3 | a4\n 39537: a5 = a5 << 0x10\n 39540: s1 = s1 << 0x18\n 39543: a5 = a5 | s1\n 39546: a3 = a3 | a5\n 39549: a4 = u8 [a0 + 0x1d]\n 39552: a5 = u8 [a0 + 0x1c]\n 39555: s1 = u8 [a0 + 0x1e]\n 39558: a1 = u8 [a0 + 0x1f]\n 39561: a4 = a4 << 0x8\n 39564: a4 = a4 | a5\n 39567: s1 = s1 << 0x10\n 39570: a1 = a1 << 0x18\n 39573: a1 = a1 | s1\n 39576: a1 = a1 | a4\n 39579: a1 = a1 << 0x20\n 39582: a3 = a3 | a1\n 39585: a1 = u8 [a0 + 0x9]\n 39588: a4 = u8 [a0 + 0x8]\n 39591: a5 = u8 [a0 + 0xa]\n 39594: s1 = u8 [a0 + 0xb]\n 39597: a1 = a1 << 0x8\n 39600: a1 = a1 | a4\n 39603: a5 = a5 << 0x10\n 39606: s1 = s1 << 0x18\n 39609: a5 = a5 | s1\n 39612: a1 = a1 | a5\n 39615: a4 = u8 [a0 + 0xd]\n 39618: a5 = u8 [a0 + 0xc]\n 39621: s1 = u8 [a0 + 0xe]\n 39624: a0 = u8 [a0 + 0xf]\n 39627: a4 = a4 << 0x8\n 39630: a4 = a4 | a5\n 39633: s1 = s1 << 0x10\n 39636: a0 = a0 << 0x18\n 39639: a0 = a0 | s1\n 39642: a0 = a0 | a4\n 39645: a0 = a0 << 0x20\n 39648: a0 = a0 | a1\n 39651: s1 = reverse a0\n 39653: a3 = reverse a3\n 39655: a4 = reverse a2\n 39657: a2 = reverse t0\n 39659: a0 = a2 | a4\n 39662: a1 = a3 | s1\n 39665: a1 = a1 | a0\n 39668: a1 = a1 >> 0x20\n 39671: a0 = a0 | s1\n 39674: a0 = a0 << 0x20\n 39677: a0 = a0 | a1\n 39680: jump @569 if a0 != 0\n      : @566 (gas: 19)\n 39684: a0 = a3 + 0x20\n 39687: u64 [sp + 0x18] = a0\n 39690: a0 = a0 <u a3\n 39693: a1 = a2 + a0\n 39696: u64 [sp + 0x8] = a1\n 39699: a1 = a1 <u a2\n 39702: a1 = a0 if a0 == 0\n 39705: a1 = a1 + s1\n 39708: u64 [sp + 0x10] = a1\n 39711: a0 = a1 <u s1\n 39714: a0 = a0 + a4\n 39717: u64 [sp + 0x20] = a0\n 39720: i32 a0 = a3 + 0\n 39722: a1 = 0x20\n 39725: u64 [sp] = a0\n 39727: u64 [sp + 0x30] = a3\n 39730: u64 [sp + 0x28] = a2\n 39733: u64 [sp + 0x38] = a4\n 39736: ra = 486, jump @0\n      : @567 [@dyn 243] (gas: 52)\n 39743: u8 [a0 + 31] = 0x20\n 39747: u8 [a0 + 30] = 0\n 39750: u8 [a0 + 29] = 0\n 39753: u8 [a0 + 28] = 0\n 39756: u8 [a0 + 27] = 0\n 39759: u8 [a0 + 26] = 0\n 39762: u8 [a0 + 25] = 0\n 39765: u8 [a0 + 24] = 0\n 39768: u8 [a0 + 23] = 0\n 39771: u8 [a0 + 22] = 0\n 39774: u8 [a0 + 21] = 0\n 39777: u8 [a0 + 20] = 0\n 39780: u8 [a0 + 19] = 0\n 39783: u8 [a0 + 18] = 0\n 39786: u8 [a0 + 17] = 0\n 39789: u8 [a0 + 16] = 0\n 39792: u8 [a0 + 15] = 0\n 39795: u8 [a0 + 14] = 0\n 39798: u8 [a0 + 13] = 0\n 39801: u8 [a0 + 12] = 0\n 39804: u8 [a0 + 11] = 0\n 39807: u8 [a0 + 10] = 0\n 39810: u8 [a0 + 9] = 0\n 39813: u8 [a0 + 8] = 0\n 39816: u8 [a0 + 7] = 0\n 39819: u8 [a0 + 6] = 0\n 39822: u8 [a0 + 5] = 0\n 39825: u8 [a0 + 4] = 0\n 39828: u8 [a0 + 3] = 0\n 39831: u8 [a0 + 2] = 0\n 39834: u8 [a0 + 1] = 0\n 39837: u8 [a0 + 0] = 0\n 39839: a0 = u64 [sp + 0x8]\n 39842: u64 [sp + 0x68] = a0\n 39845: a0 = u64 [sp + 0x18]\n 39848: u64 [sp + 0x60] = a0\n 39851: a0 = u64 [sp + 0x40]\n 39854: u64 [sp + 0x98] = a0\n 39858: a0 = u64 [sp + 0x48]\n 39861: u64 [sp + 0x90] = a0\n 39865: a0 = u64 [sp + 0x50]\n 39868: u64 [sp + 0x88] = a0\n 39872: a0 = u64 [sp + 0x58]\n 39875: u64 [sp + 0x80] = a0\n 39879: a0 = u64 [sp + 0x10]\n 39882: u64 [sp + 0x70] = a0\n 39885: a0 = sp + 0xa0\n 39889: a1 = sp + 0x80\n 39893: a2 = sp + 0x60\n 39896: a3 = u64 [sp + 0x20]\n 39899: u64 [sp + 0x78] = a3\n 39902: ra = 488, jump @468\n      : @568 [@dyn 244] (gas: 30)\n 39908: a0 = u64 [sp + 0xa8]\n 39912: t0 = u64 [sp + 0xb8]\n 39916: t1 = u64 [sp + 0xa0]\n 39920: a3 = u64 [sp + 0xb0]\n 39924: a1 = u64 [sp + 0x28]\n 39927: a4 = a0 ^ a1\n 39930: a5 = a0 <u a1\n 39933: t2 = a1\n 39935: a2 = u64 [sp + 0x30]\n 39938: a1 = t1 <u a2\n 39941: a5 = a1 if a4 == 0\n 39944: a4 = a3 - s1\n 39947: a3 = a3 <u s1\n 39950: s1 = u64 [sp + 0x38]\n 39953: s1 = t0 - s1\n 39956: s1 = s1 - a3\n 39959: a3 = a4 <u a5\n 39962: s1 = s1 - a3\n 39965: a4 = a4 - a5\n 39968: a0 = a0 - t2\n 39971: a1 = a0 - a1\n 39974: a0 = t1 - a2\n 39977: a1 = a1 | s1\n 39980: a2 = a0 | a4\n 39983: a2 = a2 | a1\n 39986: a1 = a1 | a4\n 39989: a2 = a2 >> 0x20\n 39992: a1 = a1 << 0x20\n 39995: a1 = a1 | a2\n 39998: jump @572 if a1 == 0\n      : @569 (gas: 1)\n 40001: trap\n      : @570 (gas: 3)\n 40002: a0 = 0\n 40004: a1 = 0\n 40006: ra = 490, jump @0\n      : @571 [@dyn 245] (gas: 5)\n 40013: i32 a1 = a0 + 0\n 40015: a0 = 0x1\n 40018: a2 = 0\n 40020: ecalli 14 // 'seal_return'\n 40022: fallthrough\n      : @572 (gas: 4)\n 40023: i32 s1 = a0 + 0\n 40025: a0 = u64 [sp]\n 40027: a1 = s1\n 40029: ra = 492, jump @0\n      : @573 [@dyn 246] (gas: 6)\n 40036: i32 a1 = a0 + 0\n 40038: a0 = 0\n 40040: a2 = s1\n 40042: ra = 0x1ee\n 40046: ecalli 14 // 'seal_return'\n 40048: fallthrough\n      : @574 [@dyn 247] (gas: 52)\n 40049: sp = sp + 0xffffffffffffff80\n 40052: u64 [sp + 0x78] = ra\n 40055: u64 [sp + 0x70] = s0\n 40058: u64 [sp + 0x68] = s1\n 40061: s0 = sp + 0x80\n 40065: sp = sp & 0xffffffffffffffe0\n 40068: t2 = u64 [a1 + 0x10]\n 40071: a5 = u64 [a1 + 0x8]\n 40074: t0 = u64 [a2 + 0x8]\n 40077: s1 = u64 [a1]\n 40079: u64 [sp + 0x10] = s1\n 40082: a4 = u64 [a2]\n 40084: u64 [sp + 0x18] = a4\n 40087: ra = u64 [a2 + 0x10]\n 40090: a3 = t0 ^ a5\n 40093: u64 [sp + 0x38] = a3\n 40096: a3 = t0 <u a5\n 40099: a4 = a4 <u s1\n 40102: t1 = u64 [sp + 0x38]\n 40105: a3 = a4 if t1 == 0\n 40108: t1 = a4\n 40110: a1 = u64 [a1 + 0x18]\n 40113: u64 [sp + 0x38] = a1\n 40116: a1 = u64 [a2 + 0x18]\n 40119: u64 [sp + 0x20] = a1\n 40122: a1 = ra - t2\n 40125: a2 = a1 - a3\n 40128: u64 [sp + 0x28] = a2\n 40131: a2 = a1 <u a3\n 40134: u64 [sp + 0x30] = t2\n 40137: a3 = ra <u t2\n 40140: a1 = u64 [sp + 0x38]\n 40143: a4 = u64 [sp + 0x20]\n 40146: a1 = a4 - a1\n 40149: a1 = a1 - a3\n 40152: t2 = a1 - a2\n 40155: s1 = t0 - a5\n 40158: a2 = s1 - t1\n 40161: t0 = u64 [sp + 0x10]\n 40164: a1 = u64 [sp + 0x18]\n 40167: a3 = a1 - t0\n 40170: a4 = a2 >u 0\n 40172: a3 = a3 <u 0x20\n 40175: a3 = a3 ^ 0x1\n 40178: a3 = a4 if a2 != 0\n 40181: a2 = t2 >s 0\n 40183: a1 = u64 [sp + 0x28]\n 40186: a4 = a1 >u 0\n 40188: a4 = a2 if t2 != 0\n 40191: a1 = a1 | t2\n 40194: a3 = a4 if a1 != 0\n 40197: jump @578 if a3 == 0\n      : @575 (gas: 11)\n 40200: s1 = a0\n 40202: a2 = u64 [sp + 0x30]\n 40205: a0 = t0 | a2\n 40208: a1 = u64 [sp + 0x38]\n 40211: a1 = a1 | a5\n 40214: a0 = a0 | a1\n 40217: a0 = a0 >> 0x20\n 40220: a1 = a1 | a2\n 40223: a1 = a1 << 0x20\n 40226: a0 = a0 | a1\n 40229: jump @577 if a0 != 0\n      : @576 (gas: 17)\n 40232: i32 a1 = t0 + 0\n 40234: i32 a0 = sp + 0x40\n 40237: ecalli 3 // 'call_data_load'\n 40239: a0 = u64 [sp + 0x58]\n 40242: a1 = u64 [sp + 0x50]\n 40245: a2 = u64 [sp + 0x48]\n 40248: a3 = u64 [sp + 0x40]\n 40251: u64 [s1 + 0x18] = a0\n 40254: u64 [s1 + 0x10] = a1\n 40257: u64 [s1 + 0x8] = a2\n 40260: u64 [s1] = a3\n 40262: sp = s0 + 0xffffffffffffff80\n 40265: ra = u64 [sp + 0x78]\n 40268: s0 = u64 [sp + 0x70]\n 40271: s1 = u64 [sp + 0x68]\n 40274: sp = sp + 0x80\n 40278: ret\n      : @577 (gas: 1)\n 40280: trap\n      : @578 (gas: 3)\n 40281: a0 = 0\n 40283: a1 = 0\n 40285: ra = 496, jump @0\n      : @579 [@dyn 248] (gas: 6)\n 40292: i32 a1 = a0 + 0\n 40294: a0 = 0x1\n 40297: a2 = 0\n 40299: ra = 0x1f2\n 40303: ecalli 14 // 'seal_return'\n 40305: fallthrough\n      : @580 [@dyn 249] (gas: 9)\n 40306: a2 = u64 [a1 + 0x18]\n 40309: a3 = u64 [a1 + 0x10]\n 40312: a4 = u64 [a1 + 0x8]\n 40315: a1 = u64 [a1]\n 40317: u64 [a0 + 0x18] = a2\n 40320: u64 [a0 + 0x10] = a3\n 40323: u64 [a0 + 0x8] = a4\n 40326: u64 [a0] = a1\n 40328: ret\n      : @581 [@dyn 250] (gas: 70)\n 40330: a1 = reverse s1\n 40332: a2 = u64 [sp + 0x68]\n 40335: a2 = reverse a2\n 40337: a3 = u64 [sp + 0x70]\n 40340: a3 = reverse a3\n 40342: a4 = u64 [sp + 0x78]\n 40345: a4 = reverse a4\n 40347: a5 = a4 >> 0x38\n 40350: u8 [a0 + 0x1f] = a5\n 40353: a5 = a4 >> 0x30\n 40356: u8 [a0 + 0x1e] = a5\n 40359: a5 = a4 >> 0x28\n 40362: u8 [a0 + 0x1d] = a5\n 40365: a5 = a4 >> 0x20\n 40368: u8 [a0 + 0x1c] = a5\n 40371: a5 = a4 >> 0x18\n 40374: u8 [a0 + 0x1b] = a5\n 40377: a5 = a4 >> 0x10\n 40380: u8 [a0 + 0x1a] = a5\n 40383: a5 = a4 >> 0x8\n 40386: u8 [a0 + 0x19] = a5\n 40389: u8 [a0 + 0x18] = a4\n 40392: a4 = a3 >> 0x38\n 40395: u8 [a0 + 0x17] = a4\n 40398: a4 = a3 >> 0x30\n 40401: u8 [a0 + 0x16] = a4\n 40404: a4 = a3 >> 0x28\n 40407: u8 [a0 + 0x15] = a4\n 40410: a4 = a3 >> 0x20\n 40413: u8 [a0 + 0x14] = a4\n 40416: a4 = a3 >> 0x18\n 40419: u8 [a0 + 0x13] = a4\n 40422: a4 = a3 >> 0x10\n 40425: u8 [a0 + 0x12] = a4\n 40428: a4 = a3 >> 0x8\n 40431: u8 [a0 + 0x11] = a4\n 40434: u8 [a0 + 0x10] = a3\n 40437: a3 = a2 >> 0x38\n 40440: u8 [a0 + 0xf] = a3\n 40443: a3 = a2 >> 0x30\n 40446: u8 [a0 + 0xe] = a3\n 40449: a3 = a2 >> 0x28\n 40452: u8 [a0 + 0xd] = a3\n 40455: a3 = a2 >> 0x20\n 40458: u8 [a0 + 0xc] = a3\n 40461: a3 = a2 >> 0x18\n 40464: u8 [a0 + 0xb] = a3\n 40467: a3 = a2 >> 0x10\n 40470: u8 [a0 + 0xa] = a3\n 40473: a3 = a2 >> 0x8\n 40476: u8 [a0 + 0x9] = a3\n 40479: u8 [a0 + 0x8] = a2\n 40482: a2 = a1 >> 0x38\n 40485: u8 [a0 + 0x7] = a2\n 40488: a2 = a1 >> 0x30\n 40491: u8 [a0 + 0x6] = a2\n 40494: a2 = a1 >> 0x28\n 40497: u8 [a0 + 0x5] = a2\n 40500: a2 = a1 >> 0x20\n 40503: u8 [a0 + 0x4] = a2\n 40506: a2 = a1 >> 0x18\n 40509: u8 [a0 + 0x3] = a2\n 40512: a2 = a1 >> 0x10\n 40515: u8 [a0 + 0x2] = a2\n 40518: a2 = a1 >> 0x8\n 40521: u8 [a0 + 0x1] = a2\n 40524: u8 [a0] = a1\n 40526: a0 = 0x20\n 40529: a1 = 0x20\n 40532: ra = 502, jump @0\n      : @582 [@dyn 251] (gas: 35)\n 40539: u8 [a0 + 31] = 0x4\n 40543: u8 [a0 + 30] = 0\n 40546: u8 [a0 + 29] = 0\n 40549: u8 [a0 + 28] = 0\n 40552: u8 [a0 + 27] = 0\n 40555: u8 [a0 + 26] = 0\n 40558: u8 [a0 + 25] = 0\n 40561: u8 [a0 + 24] = 0\n 40564: u8 [a0 + 23] = 0\n 40567: u8 [a0 + 22] = 0\n 40570: u8 [a0 + 21] = 0\n 40573: u8 [a0 + 20] = 0\n 40576: u8 [a0 + 19] = 0\n 40579: u8 [a0 + 18] = 0\n 40582: u8 [a0 + 17] = 0\n 40585: u8 [a0 + 16] = 0\n 40588: u8 [a0 + 15] = 0\n 40591: u8 [a0 + 14] = 0\n 40594: u8 [a0 + 13] = 0\n 40597: u8 [a0 + 12] = 0\n 40600: u8 [a0 + 11] = 0\n 40603: u8 [a0 + 10] = 0\n 40606: u8 [a0 + 9] = 0\n 40609: u8 [a0 + 8] = 0\n 40612: u8 [a0 + 7] = 0\n 40615: u8 [a0 + 6] = 0\n 40618: u8 [a0 + 5] = 0\n 40621: u8 [a0 + 4] = 0\n 40624: u8 [a0 + 3] = 0\n 40627: u8 [a0 + 2] = 0\n 40630: u8 [a0 + 1] = 0\n 40633: u8 [a0 + 0] = 0\n 40635: a1 = 0x40\n 40638: a0 = 0\n 40640: ra = 504, jump @0\n      : @583 [@dyn 252] (gas: 179)\n 40647: i32 a0 = a0 + 0\n 40649: i32 a2 = sp + 0xa0\n 40653: a1 = 0x40\n 40656: ecalli 9 // 'hash_keccak_256'\n 40658: a0 = u64 [sp + 0xb8]\n 40662: a1 = u64 [sp + 0xb0]\n 40666: a2 = u64 [sp + 0xa8]\n 40670: a3 = u64 [sp + 0xa0]\n 40674: s1 = reverse a0\n 40676: a1 = reverse a1\n 40678: u64 [sp + 0x70] = a1\n 40681: a2 = reverse a2\n 40683: u64 [sp + 0x58] = a2\n 40686: a0 = reverse a3\n 40688: u64 [sp + 0x78] = a0\n 40691: u64 [sp + 0x98] = a0\n 40695: u64 [sp + 0x90] = a2\n 40699: u64 [sp + 0x88] = a1\n 40703: u64 [sp + 0x80] = s1\n 40707: u64 [sp + 0x60] = s1\n 40710: u64 [sp + 184] = 0\n 40714: u64 [sp + 176] = 0\n 40718: u64 [sp + 168] = 0\n 40722: u64 [sp + 160] = 0\n 40726: u32 [sp + 192] = 0x20\n 40731: i32 a1 = sp + 0x80\n 40735: i32 a3 = sp + 0xa0\n 40739: i32 a4 = sp + 0xc0\n 40743: a2 = 0xffffffffffffffff\n 40746: a0 = 0\n 40748: ecalli 8 // 'get_storage'\n 40750: a0 = s1 + 0x1\n 40753: a1 = a0 <u 0x1\n 40756: a2 = u64 [sp + 0x70]\n 40759: a1 = a1 + a2\n 40762: a2 = a0 | a1\n 40765: a2 = a2 <u 0x1\n 40768: a3 = u64 [sp + 0x58]\n 40771: a2 = a2 + a3\n 40774: a3 = a2 <u a3\n 40777: a4 = u64 [sp + 0x78]\n 40780: a3 = a3 + a4\n 40783: u64 [sp + 0x98] = a3\n 40787: u64 [sp + 0x90] = a2\n 40791: a2 = u64 [sp + 0xa0]\n 40795: u64 [sp + 0x48] = a2\n 40798: u64 [sp + 0x88] = a1\n 40802: a1 = u64 [sp + 0xa8]\n 40806: u64 [sp + 0x40] = a1\n 40809: u64 [sp + 0x80] = a0\n 40813: a0 = u32 [sp + 0xb0]\n 40817: u64 [sp + 0x38] = a0\n 40820: u64 [sp + 184] = 0\n 40824: u64 [sp + 176] = 0\n 40828: u64 [sp + 168] = 0\n 40832: u64 [sp + 160] = 0\n 40836: u32 [sp + 192] = 0x20\n 40841: i32 a1 = sp + 0x80\n 40845: i32 a3 = sp + 0xa0\n 40849: i32 a4 = sp + 0xc0\n 40853: a2 = 0xffffffffffffffff\n 40856: a0 = 0\n 40858: ecalli 8 // 'get_storage'\n 40860: a0 = u64 [sp + 0xa0]\n 40864: u64 [sp + 0x30] = a0\n 40867: a0 = u64 [sp + 0xa8]\n 40871: u64 [sp + 0x28] = a0\n 40874: a0 = u64 [sp + 0xb0]\n 40878: u64 [sp + 0x20] = a0\n 40881: a0 = u64 [sp + 0xb8]\n 40885: u64 [sp + 0x18] = a0\n 40888: a0 = u64 [sp + 0x60]\n 40891: a1 = a0 + 0x2\n 40894: a0 = a1 <u a0\n 40897: a2 = a1\n 40899: u64 [sp + 0x68] = a1\n 40902: a1 = u64 [sp + 0x70]\n 40905: a3 = a1 + a0\n 40908: u64 [sp + 0x60] = a3\n 40911: s1 = a3 <u a1\n 40914: s1 = a0 if a0 == 0\n 40917: a0 = u64 [sp + 0x58]\n 40920: s1 = s1 + a0\n 40923: a0 = s1 <u a0\n 40926: a1 = u64 [sp + 0x78]\n 40929: a0 = a0 + a1\n 40932: u64 [sp + 0x78] = a0\n 40935: u64 [sp + 0x98] = a0\n 40939: u64 [sp + 0x90] = s1\n 40943: u64 [sp + 0x88] = a3\n 40947: u64 [sp + 0x80] = a2\n 40951: u64 [sp + 184] = 0\n 40955: u64 [sp + 176] = 0\n 40959: u64 [sp + 168] = 0\n 40963: u64 [sp + 160] = 0\n 40967: u32 [sp + 192] = 0x20\n 40972: i32 a1 = sp + 0x80\n 40976: i32 a3 = sp + 0xa0\n 40980: i32 a4 = sp + 0xc0\n 40984: a2 = 0xffffffffffffffff\n 40987: a0 = 0\n 40989: ecalli 8 // 'get_storage'\n 40991: a0 = u8 [sp + 0xa0]\n 40995: u64 [sp + 0x70] = a0\n 40998: a0 = u64 [sp + 0x78]\n 41001: u64 [sp + 0x98] = a0\n 41005: u64 [sp + 0x90] = s1\n 41009: a0 = u64 [sp + 0x60]\n 41012: u64 [sp + 0x88] = a0\n 41016: a0 = u64 [sp + 0x68]\n 41019: u64 [sp + 0x80] = a0\n 41023: u64 [sp + 184] = 0\n 41027: u64 [sp + 176] = 0\n 41031: u64 [sp + 168] = 0\n 41035: u64 [sp + 160] = 0\n 41039: u32 [sp + 192] = 0x20\n 41044: i32 a1 = sp + 0x80\n 41048: i32 a3 = sp + 0xa0\n 41052: i32 a4 = sp + 0xc0\n 41056: a2 = 0xffffffffffffffff\n 41059: a0 = 0\n 41061: ecalli 8 // 'get_storage'\n 41063: a0 = u8 [sp + 0xa1]\n 41067: u64 [sp + 0x58] = a0\n 41070: a0 = u64 [sp + 0x78]\n 41073: u64 [sp + 0x98] = a0\n 41077: u64 [sp + 0x90] = s1\n 41081: a0 = u64 [sp + 0x60]\n 41084: u64 [sp + 0x88] = a0\n 41088: a0 = u64 [sp + 0x68]\n 41091: u64 [sp + 0x80] = a0\n 41095: u64 [sp + 184] = 0\n 41099: u64 [sp + 176] = 0\n 41103: u64 [sp + 168] = 0\n 41107: u64 [sp + 160] = 0\n 41111: u32 [sp + 192] = 0x20\n 41116: i32 a1 = sp + 0x80\n 41120: i32 a3 = sp + 0xa0\n 41124: i32 a4 = sp + 0xc0\n 41128: a2 = 0xffffffffffffffff\n 41131: a0 = 0\n 41133: ecalli 8 // 'get_storage'\n 41135: a0 = u8 [sp + 0xa2]\n 41139: a1 = u64 [sp + 0x50]\n 41142: u64 [a1 + 152] = 0\n 41146: u64 [a1 + 144] = 0\n 41150: u64 [a1 + 136] = 0\n 41154: u64 [a1 + 0x80] = a0\n 41158: u64 [a1 + 120] = 0\n 41161: u64 [a1 + 112] = 0\n 41164: u64 [a1 + 104] = 0\n 41167: a0 = u64 [sp + 0x58]\n 41170: u64 [a1 + 0x60] = a0\n 41173: u64 [a1 + 88] = 0\n 41176: u64 [a1 + 80] = 0\n 41179: u64 [a1 + 72] = 0\n 41182: a0 = u64 [sp + 0x70]\n 41185: u64 [a1 + 0x40] = a0\n 41188: a0 = u64 [sp + 0x18]\n 41191: u64 [a1 + 0x38] = a0\n 41194: a0 = u64 [sp + 0x20]\n 41197: u64 [a1 + 0x30] = a0\n 41200: a0 = u64 [sp + 0x28]\n 41203: u64 [a1 + 0x28] = a0\n 41206: a0 = u64 [sp + 0x30]\n 41209: u64 [a1 + 0x20] = a0\n 41212: u64 [a1 + 24] = 0\n 41215: a0 = u64 [sp + 0x38]\n 41218: u64 [a1 + 0x10] = a0\n 41221: a0 = u64 [sp + 0x40]\n 41224: u64 [a1 + 0x8] = a0\n 41227: a0 = u64 [sp + 0x48]\n 41230: u64 [a1] = a0\n 41232: sp = s0 + 0xffffffffffffff20\n 41236: ra = u64 [sp + 0xd8]\n 41240: s0 = u64 [sp + 0xd0]\n 41244: s1 = u64 [sp + 0xc8]\n 41248: sp = sp + 0xe0\n 41252: ret\n      : @584 (gas: 21)\n 41254: sp = sp + 0xffffffffffffff30\n 41258: u64 [sp + 0xc8] = ra\n 41262: u64 [sp + 0xc0] = s0\n 41266: u64 [sp + 0xb8] = s1\n 41270: s0 = u64 [a1 + 0x10]\n 41273: t0 = u64 [a1 + 0x18]\n 41276: s1 = u64 [a1 + 0x8]\n 41279: a1 = u64 [a1]\n 41281: u64 [sp + 0xa8] = s1\n 41285: u64 [sp + 0x88] = t0\n 41289: t0 = s1 | t0\n 41292: u64 [sp + 0xb0] = a1\n 41296: s1 = a1 | s0\n 41299: s1 = s1 | t0\n 41302: s1 = s1 >> 0x20\n 41305: u64 [sp + 0x90] = s0\n 41309: a1 = t0 | s0\n 41312: a1 = a1 << 0x20\n 41315: a1 = a1 | s1\n 41318: u64 [sp + 0x40] = a0\n 41321: jump @595 if a1 != 0\n      : @585 (gas: 43)\n 41325: a0 = u64 [sp + 0xd0]\n 41329: a1 = u64 [a0 + 0x18]\n 41332: u64 [sp + 0x18] = a1\n 41335: a1 = u64 [a0 + 0x10]\n 41338: u64 [sp + 0x8] = a1\n 41341: a1 = u64 [a0 + 0x8]\n 41344: u64 [sp + 0x10] = a1\n 41347: a0 = u64 [a0]\n 41349: u64 [sp] = a0\n 41351: a0 = u64 [a5 + 0x18]\n 41354: u64 [sp + 0x38] = a0\n 41357: a0 = u64 [a5 + 0x10]\n 41360: u64 [sp + 0x28] = a0\n 41363: a0 = u64 [a5 + 0x8]\n 41366: u64 [sp + 0x30] = a0\n 41369: a0 = u64 [a5]\n 41371: u64 [sp + 0x20] = a0\n 41374: a0 = u64 [a4 + 0x18]\n 41377: u64 [sp + 0x60] = a0\n 41380: a0 = u64 [a4 + 0x10]\n 41383: u64 [sp + 0x50] = a0\n 41386: a0 = u64 [a4 + 0x8]\n 41389: u64 [sp + 0x58] = a0\n 41392: a0 = u64 [a4]\n 41394: u64 [sp + 0x48] = a0\n 41397: a0 = u64 [a3 + 0x18]\n 41400: u64 [sp + 0x70] = a0\n 41403: a0 = u64 [a3 + 0x10]\n 41406: u64 [sp + 0x78] = a0\n 41409: a0 = u64 [a3 + 0x8]\n 41412: u64 [sp + 0x80] = a0\n 41416: a0 = u64 [a2 + 0x10]\n 41419: a1 = u64 [a3]\n 41421: u64 [sp + 0x68] = a1\n 41424: a1 = u64 [a2 + 0x8]\n 41427: u64 [sp + 0x98] = a1\n 41431: s1 = u64 [a2]\n 41433: a0 = a0 << 0x20\n 41436: s0 = a0 >> 0x20\n 41439: a0 = i32 [sp + 0xb0]\n 41443: a1 = 0x20\n 41446: u64 [sp + 0xa0] = a0\n 41450: ra = 506, jump @0\n      : @586 [@dyn 253] (gas: 66)\n 41457: a1 = reverse s0\n 41459: a2 = u64 [sp + 0x98]\n 41463: a2 = reverse a2\n 41465: a3 = reverse s1\n 41467: a4 = a3 >> 0x38\n 41470: u8 [a0 + 0x1f] = a4\n 41473: a4 = a3 >> 0x30\n 41476: u8 [a0 + 0x1e] = a4\n 41479: a4 = a3 >> 0x28\n 41482: u8 [a0 + 0x1d] = a4\n 41485: a4 = a3 >> 0x20\n 41488: u8 [a0 + 0x1c] = a4\n 41491: a4 = a3 >> 0x18\n 41494: u8 [a0 + 0x1b] = a4\n 41497: a4 = a3 >> 0x10\n 41500: u8 [a0 + 0x1a] = a4\n 41503: a4 = a3 >> 0x8\n 41506: u8 [a0 + 0x19] = a4\n 41509: u8 [a0 + 0x18] = a3\n 41512: u8 [a0 + 0x10] = a2\n 41515: u8 [a0 + 11] = 0\n 41518: u8 [a0 + 10] = 0\n 41521: u8 [a0 + 9] = 0\n 41524: u8 [a0 + 7] = 0\n 41527: u8 [a0 + 6] = 0\n 41530: u8 [a0 + 5] = 0\n 41533: u8 [a0 + 4] = 0\n 41536: u8 [a0 + 3] = 0\n 41539: u8 [a0 + 2] = 0\n 41542: u8 [a0 + 1] = 0\n 41545: u8 [a0 + 0] = 0\n 41547: a3 = a2 >> 0x38\n 41550: u8 [a0 + 0x17] = a3\n 41553: a3 = a2 >> 0x30\n 41556: u8 [a0 + 0x16] = a3\n 41559: a3 = a2 >> 0x28\n 41562: u8 [a0 + 0x15] = a3\n 41565: a3 = a2 >> 0x20\n 41568: u8 [a0 + 0x14] = a3\n 41571: a3 = a2 >> 0x18\n 41574: u8 [a0 + 0x13] = a3\n 41577: a3 = a2 >> 0x10\n 41580: u8 [a0 + 0x12] = a3\n 41583: a2 = a2 >> 0x8\n 41586: u8 [a0 + 0x11] = a2\n 41589: u8 [a0 + 0x8] = a1\n 41592: a2 = a1 >> 0x38\n 41595: u8 [a0 + 0xf] = a2\n 41598: a2 = a1 >> 0x30\n 41601: u8 [a0 + 0xe] = a2\n 41604: a2 = a1 >> 0x28\n 41607: u8 [a0 + 0xd] = a2\n 41610: a1 = a1 >> 0x20\n 41613: a2 = u64 [sp + 0x90]\n 41617: a4 = u64 [sp + 0x88]\n 41621: a4 = a4 | a2\n 41624: s0 = 0x100000000\n 41634: a2 = 0xffffffe0\n 41644: a3 = u64 [sp + 0xb0]\n 41648: a2 = a3 <u a2\n 41651: a3 = u64 [sp + 0xa8]\n 41655: a2 = 0 if a3 != 0\n 41657: u64 [sp + 0x98] = a4\n 41661: a2 = 0 if a4 != 0\n 41663: u8 [a0 + 0xc] = a1\n 41666: jump @595 if a2 == 0\n      : @587 (gas: 4)\n 41670: a0 = u64 [sp + 0xa0]\n 41674: i32 a0 = a0 + 0x20\n 41677: a1 = 0x20\n 41680: ra = 508, jump @0\n      : @588 [@dyn 254] (gas: 76)\n 41687: a1 = u64 [sp + 0x70]\n 41690: a1 = reverse a1\n 41692: a2 = u64 [sp + 0x78]\n 41695: a2 = reverse a2\n 41697: a3 = u64 [sp + 0x80]\n 41701: a3 = reverse a3\n 41703: a4 = u64 [sp + 0x68]\n 41706: a4 = reverse a4\n 41708: a5 = a4 >> 0x38\n 41711: u8 [a0 + 0x1f] = a5\n 41714: a5 = a4 >> 0x30\n 41717: u8 [a0 + 0x1e] = a5\n 41720: a5 = a4 >> 0x28\n 41723: u8 [a0 + 0x1d] = a5\n 41726: a5 = a4 >> 0x20\n 41729: u8 [a0 + 0x1c] = a5\n 41732: a5 = a4 >> 0x18\n 41735: u8 [a0 + 0x1b] = a5\n 41738: a5 = a4 >> 0x10\n 41741: u8 [a0 + 0x1a] = a5\n 41744: a5 = a4 >> 0x8\n 41747: u8 [a0 + 0x19] = a5\n 41750: u8 [a0 + 0x18] = a4\n 41753: u8 [a0 + 0x10] = a3\n 41756: a4 = a3 >> 0x38\n 41759: u8 [a0 + 0x17] = a4\n 41762: a4 = a3 >> 0x30\n 41765: u8 [a0 + 0x16] = a4\n 41768: a4 = a3 >> 0x28\n 41771: u8 [a0 + 0x15] = a4\n 41774: a4 = a3 >> 0x20\n 41777: u8 [a0 + 0x14] = a4\n 41780: a4 = a3 >> 0x18\n 41783: u8 [a0 + 0x13] = a4\n 41786: a4 = a3 >> 0x10\n 41789: u8 [a0 + 0x12] = a4\n 41792: a3 = a3 >> 0x8\n 41795: u8 [a0 + 0x11] = a3\n 41798: u8 [a0 + 0x8] = a2\n 41801: a3 = a2 >> 0x38\n 41804: u8 [a0 + 0xf] = a3\n 41807: a3 = a2 >> 0x30\n 41810: u8 [a0 + 0xe] = a3\n 41813: a3 = a2 >> 0x28\n 41816: u8 [a0 + 0xd] = a3\n 41819: a3 = a2 >> 0x20\n 41822: u8 [a0 + 0xc] = a3\n 41825: a3 = a2 >> 0x18\n 41828: u8 [a0 + 0xb] = a3\n 41831: a3 = a2 >> 0x10\n 41834: u8 [a0 + 0xa] = a3\n 41837: a2 = a2 >> 0x8\n 41840: u8 [a0 + 0x9] = a2\n 41843: u8 [a0] = a1\n 41845: a2 = a1 >> 0x38\n 41848: u8 [a0 + 0x7] = a2\n 41851: a2 = a1 >> 0x30\n 41854: u8 [a0 + 0x6] = a2\n 41857: a2 = a1 >> 0x28\n 41860: u8 [a0 + 0x5] = a2\n 41863: a2 = a1 >> 0x20\n 41866: u8 [a0 + 0x4] = a2\n 41869: a2 = a1 >> 0x18\n 41872: u8 [a0 + 0x3] = a2\n 41875: a2 = a1 >> 0x10\n 41878: u8 [a0 + 0x2] = a2\n 41881: a1 = a1 >> 0x8\n 41884: a2 = s0 + 0xffffffffffffffc0\n 41887: a3 = u64 [sp + 0xb0]\n 41891: a2 = a3 <u a2\n 41894: a3 = u64 [sp + 0xa8]\n 41898: a2 = 0 if a3 != 0\n 41900: a3 = u64 [sp + 0x98]\n 41904: a2 = 0 if a3 != 0\n 41906: u8 [a0 + 0x1] = a1\n 41909: jump @595 if a2 == 0\n      : @589 (gas: 12)\n 41913: a0 = u64 [sp + 0x50]\n 41916: a1 = u64 [sp + 0x48]\n 41919: a0 = a0 | a1\n 41922: a1 = u64 [sp + 0x60]\n 41925: a2 = u64 [sp + 0x58]\n 41928: a1 = a1 | a2\n 41931: a0 = a0 | a1\n 41934: s0 = a0 >u 0\n 41936: a0 = u64 [sp + 0xa0]\n 41940: i32 a0 = a0 + 0x40\n 41943: a1 = 0x20\n 41946: ra = 510, jump @0\n      : @590 [@dyn 255] (gas: 41)\n 41953: u8 [a0 + 30] = 0\n 41956: u8 [a0 + 29] = 0\n 41959: u8 [a0 + 28] = 0\n 41962: u8 [a0 + 27] = 0\n 41965: u8 [a0 + 26] = 0\n 41968: u8 [a0 + 25] = 0\n 41971: u8 [a0 + 24] = 0\n 41974: u8 [a0 + 23] = 0\n 41977: u8 [a0 + 22] = 0\n 41980: u8 [a0 + 21] = 0\n 41983: u8 [a0 + 20] = 0\n 41986: u8 [a0 + 19] = 0\n 41989: u8 [a0 + 18] = 0\n 41992: u8 [a0 + 17] = 0\n 41995: u8 [a0 + 16] = 0\n 41998: u8 [a0 + 15] = 0\n 42001: u8 [a0 + 14] = 0\n 42004: u8 [a0 + 13] = 0\n 42007: u8 [a0 + 12] = 0\n 42010: u8 [a0 + 11] = 0\n 42013: u8 [a0 + 10] = 0\n 42016: u8 [a0 + 9] = 0\n 42019: u8 [a0 + 8] = 0\n 42022: u8 [a0 + 7] = 0\n 42025: u8 [a0 + 6] = 0\n 42028: u8 [a0 + 5] = 0\n 42031: u8 [a0 + 4] = 0\n 42034: u8 [a0 + 3] = 0\n 42037: u8 [a0 + 2] = 0\n 42040: u8 [a0 + 1] = 0\n 42043: u8 [a0 + 0x1f] = s0\n 42046: s0 = 0x100000000\n 42056: a1 = 0xffffffa0\n 42066: a2 = u64 [sp + 0xb0]\n 42070: a1 = a2 <u a1\n 42073: a2 = u64 [sp + 0xa8]\n 42077: a1 = 0 if a2 != 0\n 42079: a2 = u64 [sp + 0x98]\n 42083: a1 = 0 if a2 != 0\n 42085: u8 [a0 + 0] = 0\n 42087: jump @595 if a1 == 0\n      : @591 (gas: 12)\n 42091: a0 = u64 [sp + 0x28]\n 42094: a1 = u64 [sp + 0x20]\n 42097: a0 = a0 | a1\n 42100: a1 = u64 [sp + 0x38]\n 42103: a2 = u64 [sp + 0x30]\n 42106: a1 = a1 | a2\n 42109: a0 = a0 | a1\n 42112: s1 = a0 >u 0\n 42114: a0 = u64 [sp + 0xa0]\n 42118: i32 a0 = a0 + 0x60\n 42121: a1 = 0x20\n 42124: ra = 512, jump @0\n      : @592 [@dyn 256] (gas: 40)\n 42131: u8 [a0 + 30] = 0\n 42134: u8 [a0 + 29] = 0\n 42137: u8 [a0 + 28] = 0\n 42140: u8 [a0 + 27] = 0\n 42143: u8 [a0 + 26] = 0\n 42146: u8 [a0 + 25] = 0\n 42149: u8 [a0 + 24] = 0\n 42152: u8 [a0 + 23] = 0\n 42155: u8 [a0 + 22] = 0\n 42158: u8 [a0 + 21] = 0\n 42161: u8 [a0 + 20] = 0\n 42164: u8 [a0 + 19] = 0\n 42167: u8 [a0 + 18] = 0\n 42170: u8 [a0 + 17] = 0\n 42173: u8 [a0 + 16] = 0\n 42176: u8 [a0 + 15] = 0\n 42179: u8 [a0 + 14] = 0\n 42182: u8 [a0 + 13] = 0\n 42185: u8 [a0 + 12] = 0\n 42188: u8 [a0 + 11] = 0\n 42191: u8 [a0 + 10] = 0\n 42194: u8 [a0 + 9] = 0\n 42197: u8 [a0 + 8] = 0\n 42200: u8 [a0 + 7] = 0\n 42203: u8 [a0 + 6] = 0\n 42206: u8 [a0 + 5] = 0\n 42209: u8 [a0 + 4] = 0\n 42212: u8 [a0 + 3] = 0\n 42215: u8 [a0 + 2] = 0\n 42218: u8 [a0 + 1] = 0\n 42221: u8 [a0 + 0] = 0\n 42223: a1 = s0 + 0xffffffffffffff80\n 42226: a2 = u64 [sp + 0xb0]\n 42230: a1 = a2 <u a1\n 42233: a2 = u64 [sp + 0xa8]\n 42237: a1 = 0 if a2 != 0\n 42239: a2 = u64 [sp + 0x98]\n 42243: a1 = 0 if a2 != 0\n 42245: u8 [a0 + 0x1f] = s1\n 42248: jump @595 if a1 == 0\n      : @593 (gas: 27)\n 42252: a0 = u64 [sp + 0xb0]\n 42256: a1 = a0 + 0xa0\n 42260: u64 [sp + 0x98] = a1\n 42264: a0 = a1 <u a0\n 42267: a1 = u64 [sp + 0xa8]\n 42271: s1 = a1 + a0\n 42274: s0 = s1 <u a1\n 42277: s0 = a0 if a0 == 0\n 42280: a0 = u64 [sp + 0x90]\n 42284: s0 = s0 + a0\n 42287: a0 = s0 <u a0\n 42290: a1 = u64 [sp + 0x88]\n 42294: a0 = a0 + a1\n 42297: u64 [sp + 0xb0] = a0\n 42301: a0 = u64 [sp + 0x8]\n 42304: a1 = u64 [sp]\n 42306: a0 = a0 | a1\n 42309: a1 = u64 [sp + 0x18]\n 42312: a2 = u64 [sp + 0x10]\n 42315: a1 = a1 | a2\n 42318: a0 = a0 | a1\n 42321: a0 = a0 >u 0\n 42323: u64 [sp + 0xa8] = a0\n 42327: a0 = u64 [sp + 0xa0]\n 42331: i32 a0 = a0 + 0x80\n 42335: a1 = 0x20\n 42338: ra = 514, jump @0\n      : @594 [@dyn 257] (gas: 45)\n 42345: u8 [a0 + 30] = 0\n 42348: u8 [a0 + 29] = 0\n 42351: u8 [a0 + 28] = 0\n 42354: u8 [a0 + 27] = 0\n 42357: u8 [a0 + 26] = 0\n 42360: u8 [a0 + 25] = 0\n 42363: u8 [a0 + 24] = 0\n 42366: u8 [a0 + 23] = 0\n 42369: u8 [a0 + 22] = 0\n 42372: u8 [a0 + 21] = 0\n 42375: u8 [a0 + 20] = 0\n 42378: u8 [a0 + 19] = 0\n 42381: u8 [a0 + 18] = 0\n 42384: u8 [a0 + 17] = 0\n 42387: u8 [a0 + 16] = 0\n 42390: u8 [a0 + 15] = 0\n 42393: u8 [a0 + 14] = 0\n 42396: u8 [a0 + 13] = 0\n 42399: u8 [a0 + 12] = 0\n 42402: u8 [a0 + 11] = 0\n 42405: u8 [a0 + 10] = 0\n 42408: u8 [a0 + 9] = 0\n 42411: u8 [a0 + 8] = 0\n 42414: u8 [a0 + 7] = 0\n 42417: u8 [a0 + 6] = 0\n 42420: u8 [a0 + 5] = 0\n 42423: u8 [a0 + 4] = 0\n 42426: u8 [a0 + 3] = 0\n 42429: u8 [a0 + 2] = 0\n 42432: u8 [a0 + 1] = 0\n 42435: u8 [a0 + 0] = 0\n 42437: a1 = u64 [sp + 0xa8]\n 42441: u8 [a0 + 0x1f] = a1\n 42444: a0 = u64 [sp + 0x40]\n 42447: a1 = u64 [sp + 0x98]\n 42451: u64 [a0] = a1\n 42453: a1 = u64 [sp + 0xb0]\n 42457: u64 [a0 + 0x18] = a1\n 42460: u64 [a0 + 0x8] = s1\n 42463: u64 [a0 + 0x10] = s0\n 42466: ra = u64 [sp + 0xc8]\n 42470: s0 = u64 [sp + 0xc0]\n 42474: s1 = u64 [sp + 0xb8]\n 42478: sp = sp + 0xd0\n 42482: ret\n      : @595 (gas: 1)\n 42484: trap\n      : @596 (gas: 8)\n 42485: a0 = u64 [sp + 0x270]\n 42489: a1 = u64 [sp + 0x278]\n 42493: a2 = u64 [sp + 0x268]\n 42497: a3 = u64 [sp + 0x260]\n 42501: a1 = a1 | a2\n 42504: a0 = a0 | a3\n 42507: a0 = a0 | a1\n 42510: jump @604 if a0 != 0\n      : @597 (gas: 2)\n 42514: a0 = i32 [0x20078]\n 42519: jump @604 if a0 <=u 35\n      : @598 (gas: 32)\n 42524: i32 a0 = sp + 0x280\n 42528: a1 = 0x4\n 42531: ecalli 3 // 'call_data_load'\n 42533: a2 = u64 [sp + 0x280]\n 42537: a0 = u64 [sp + 0x288]\n 42541: a1 = u64 [sp + 0x290]\n 42545: a3 = u64 [sp + 0x298]\n 42549: u64 [sp + 0x1b8] = a3\n 42553: u64 [sp + 0x1b0] = a1\n 42557: u64 [sp + 0x1a8] = a0\n 42561: a0 = sp + 0x1c0\n 42565: a1 = sp + 0x1a0\n 42569: u64 [sp + 0x1a0] = a2\n 42573: ra = 0x204\n 42577: sp = sp + 0xffffffffffffff20\n 42581: u64 [sp + 0xd8] = ra\n 42585: u64 [sp + 0xd0] = s0\n 42589: u64 [sp + 0xc8] = s1\n 42593: s0 = sp + 0xe0\n 42597: sp = sp & 0xffffffffffffffe0\n 42600: a2 = u64 [a1]\n 42602: u64 [sp + 0x78] = a2\n 42605: a2 = u64 [a1 + 0x8]\n 42608: u64 [sp + 0x70] = a2\n 42611: a2 = u64 [a1 + 0x10]\n 42614: u64 [sp + 0x68] = a2\n 42617: s1 = u64 [a1 + 0x18]\n 42620: u64 [sp + 0x50] = a0\n 42623: a1 = 0x20\n 42626: a0 = 0\n 42628: ra = 0x1f4\n 42632: jump @0\n      : @599 [@dyn 258] (gas: 43)\n 42636: a0 = u64 [sp + 0x1c0]\n 42640: u64 [sp + 0xb0] = a0\n 42644: a0 = u64 [sp + 0x1c8]\n 42648: u64 [sp + 0xa8] = a0\n 42652: a0 = u64 [sp + 0x1d0]\n 42656: u64 [sp + 0xa0] = a0\n 42660: a0 = u64 [sp + 0x1d8]\n 42664: u64 [sp + 0x98] = a0\n 42668: a0 = u64 [sp + 0x1e0]\n 42672: u64 [sp + 0x90] = a0\n 42676: a0 = u64 [sp + 0x1e8]\n 42680: u64 [sp + 0x88] = a0\n 42684: a0 = u64 [sp + 0x1f0]\n 42688: u64 [sp + 0x80] = a0\n 42692: a0 = u64 [sp + 0x1f8]\n 42696: u64 [sp + 0x78] = a0\n 42699: a0 = u64 [sp + 0x200]\n 42703: u64 [sp + 0x70] = a0\n 42706: a0 = u64 [sp + 0x208]\n 42710: u64 [sp + 0x68] = a0\n 42713: a0 = u64 [sp + 0x210]\n 42717: u64 [sp + 0x60] = a0\n 42720: a0 = u64 [sp + 0x218]\n 42724: u64 [sp + 0x58] = a0\n 42727: a0 = u64 [sp + 0x220]\n 42731: u64 [sp + 0x50] = a0\n 42734: a0 = u64 [sp + 0x228]\n 42738: u64 [sp + 0x48] = a0\n 42741: a0 = u64 [sp + 0x230]\n 42745: u64 [sp + 0x40] = a0\n 42748: a0 = u64 [sp + 0x238]\n 42752: u64 [sp + 0x38] = a0\n 42755: a0 = u64 [sp + 0x240]\n 42759: u64 [sp + 0x30] = a0\n 42762: a0 = u64 [sp + 0x248]\n 42766: u64 [sp + 0x28] = a0\n 42769: a0 = u64 [sp + 0x250]\n 42773: u64 [sp + 0x20] = a0\n 42776: a0 = u64 [sp + 0x258]\n 42780: u64 [sp + 0x18] = a0\n 42783: a0 = 0x40\n 42786: a1 = 0x20\n 42789: ra = 518, jump @0\n      : @600 [@dyn 259] (gas: 148)\n 42796: a1 = u8 [a0 + 0x1]\n 42799: a2 = u8 [a0]\n 42801: a3 = u8 [a0 + 0x2]\n 42804: a4 = u8 [a0 + 0x3]\n 42807: a1 = a1 << 0x8\n 42810: a1 = a1 | a2\n 42813: a3 = a3 << 0x10\n 42816: a4 = a4 << 0x18\n 42819: a3 = a3 | a4\n 42822: a1 = a1 | a3\n 42825: a2 = u8 [a0 + 0x5]\n 42828: a3 = u8 [a0 + 0x4]\n 42831: a4 = u8 [a0 + 0x6]\n 42834: a5 = u8 [a0 + 0x7]\n 42837: a2 = a2 << 0x8\n 42840: a2 = a2 | a3\n 42843: a4 = a4 << 0x10\n 42846: a5 = a5 << 0x18\n 42849: a4 = a4 | a5\n 42852: a2 = a2 | a4\n 42855: a2 = a2 << 0x20\n 42858: t0 = a2 | a1\n 42861: a2 = u8 [a0 + 0x9]\n 42864: a3 = u8 [a0 + 0x8]\n 42867: a4 = u8 [a0 + 0xa]\n 42870: a5 = u8 [a0 + 0xb]\n 42873: a2 = a2 << 0x8\n 42876: a2 = a2 | a3\n 42879: a4 = a4 << 0x10\n 42882: a5 = a5 << 0x18\n 42885: a4 = a4 | a5\n 42888: a2 = a2 | a4\n 42891: a3 = u8 [a0 + 0xd]\n 42894: a4 = u8 [a0 + 0xc]\n 42897: a5 = u8 [a0 + 0xe]\n 42900: s1 = u8 [a0 + 0xf]\n 42903: a3 = a3 << 0x8\n 42906: a3 = a3 | a4\n 42909: a5 = a5 << 0x10\n 42912: s1 = s1 << 0x18\n 42915: a5 = a5 | s1\n 42918: a3 = a3 | a5\n 42921: a3 = a3 << 0x20\n 42924: a2 = a2 | a3\n 42927: a3 = u8 [a0 + 0x11]\n 42930: a4 = u8 [a0 + 0x10]\n 42933: a5 = u8 [a0 + 0x12]\n 42936: s1 = u8 [a0 + 0x13]\n 42939: a3 = a3 << 0x8\n 42942: a3 = a3 | a4\n 42945: a5 = a5 << 0x10\n 42948: s1 = s1 << 0x18\n 42951: a5 = a5 | s1\n 42954: a3 = a3 | a5\n 42957: a4 = u8 [a0 + 0x15]\n 42960: a5 = u8 [a0 + 0x14]\n 42963: s1 = u8 [a0 + 0x16]\n 42966: a1 = u8 [a0 + 0x17]\n 42969: a4 = a4 << 0x8\n 42972: a4 = a4 | a5\n 42975: s1 = s1 << 0x10\n 42978: a1 = a1 << 0x18\n 42981: a1 = a1 | s1\n 42984: a1 = a1 | a4\n 42987: a1 = a1 << 0x20\n 42990: a3 = a3 | a1\n 42993: a1 = u8 [a0 + 0x19]\n 42996: a4 = u8 [a0 + 0x18]\n 42999: a5 = u8 [a0 + 0x1a]\n 43002: s1 = u8 [a0 + 0x1b]\n 43005: a1 = a1 << 0x8\n 43008: a1 = a1 | a4\n 43011: a5 = a5 << 0x10\n 43014: s1 = s1 << 0x18\n 43017: a5 = a5 | s1\n 43020: a1 = a1 | a5\n 43023: a4 = u8 [a0 + 0x1d]\n 43026: a5 = u8 [a0 + 0x1c]\n 43029: s1 = u8 [a0 + 0x1e]\n 43032: a0 = u8 [a0 + 0x1f]\n 43035: a4 = a4 << 0x8\n 43038: a4 = a4 | a5\n 43041: s1 = s1 << 0x10\n 43044: a0 = a0 << 0x18\n 43047: a0 = a0 | s1\n 43050: a0 = a0 | a4\n 43053: a0 = a0 << 0x20\n 43056: a0 = a0 | a1\n 43059: s1 = reverse a0\n 43061: a3 = reverse a3\n 43063: u64 [sp + 0x8] = a3\n 43066: a1 = reverse a2\n 43068: u64 [sp + 0x10] = a1\n 43071: a2 = reverse t0\n 43073: u64 [sp + 0xb8] = a2\n 43077: a0 = sp + 0xc0\n 43081: u64 [sp] = a0\n 43083: a0 = u64 [sp + 0x18]\n 43086: u64 [sp + 0xd8] = a0\n 43090: a0 = u64 [sp + 0x20]\n 43093: u64 [sp + 0xd0] = a0\n 43097: a0 = u64 [sp + 0x28]\n 43100: u64 [sp + 0xc8] = a0\n 43104: a0 = u64 [sp + 0x30]\n 43107: u64 [sp + 0xc0] = a0\n 43111: a0 = u64 [sp + 0x38]\n 43114: u64 [sp + 0xf8] = a0\n 43118: a0 = u64 [sp + 0x40]\n 43121: u64 [sp + 0xf0] = a0\n 43125: a0 = u64 [sp + 0x48]\n 43128: u64 [sp + 0xe8] = a0\n 43132: a0 = u64 [sp + 0x50]\n 43135: u64 [sp + 0xe0] = a0\n 43139: a0 = u64 [sp + 0x58]\n 43142: u64 [sp + 0x118] = a0\n 43146: a0 = u64 [sp + 0x60]\n 43149: u64 [sp + 0x110] = a0\n 43153: a0 = u64 [sp + 0x68]\n 43156: u64 [sp + 0x108] = a0\n 43160: a0 = u64 [sp + 0x70]\n 43163: u64 [sp + 0x100] = a0\n 43167: a0 = u64 [sp + 0x78]\n 43170: u64 [sp + 0x138] = a0\n 43174: a0 = u64 [sp + 0x80]\n 43178: u64 [sp + 0x130] = a0\n 43182: a0 = u64 [sp + 0x88]\n 43186: u64 [sp + 0x128] = a0\n 43190: a0 = u64 [sp + 0x90]\n 43194: u64 [sp + 0x120] = a0\n 43198: a0 = u64 [sp + 0x98]\n 43202: u64 [sp + 0x158] = a0\n 43206: a0 = u64 [sp + 0xa0]\n 43210: u64 [sp + 0x150] = a0\n 43214: a0 = u64 [sp + 0xa8]\n 43218: u64 [sp + 0x148] = a0\n 43222: a0 = u64 [sp + 0xb0]\n 43226: u64 [sp + 0x140] = a0\n 43230: u64 [sp + 0x178] = a2\n 43234: u64 [sp + 0x170] = a1\n 43238: u64 [sp + 0x168] = a3\n 43242: a0 = sp + 0x180\n 43246: a1 = sp + 0x160\n 43250: a2 = sp + 0x140\n 43254: a3 = sp + 0x120\n 43258: a4 = sp + 0x100\n 43262: a5 = sp + 0xe0\n 43266: u64 [sp + 0x160] = s1\n 43270: ra = 520, jump @584\n      : @601 [@dyn 260] (gas: 12)\n 43276: a4 = u64 [sp + 0x8]\n 43279: a2 = s1\n 43281: a0 = u64 [sp + 0xb8]\n 43285: a0 = a0 | a4\n 43288: s1 = u64 [sp + 0x10]\n 43291: a1 = a2 | s1\n 43294: a1 = a1 | a0\n 43297: a1 = a1 >> 0x20\n 43300: a0 = a0 | s1\n 43303: a0 = a0 << 0x20\n 43306: a0 = a0 | a1\n 43309: jump @603 if a0 != 0\n      : @602 (gas: 29)\n 43312: a0 = u64 [sp + 0x188]\n 43316: a1 = u64 [sp + 0x198]\n 43320: u64 [sp + 0xb0] = a1\n 43324: t1 = u64 [sp + 0x180]\n 43328: a1 = u64 [sp + 0x190]\n 43332: t2 = a0 ^ a4\n 43335: a5 = a0 <u a4\n 43338: ra = t1 <u a2\n 43341: a5 = ra if t2 == 0\n 43344: a3 = a1 - s1\n 43347: t2 = a3 - a5\n 43350: t0 = a3 <u a5\n 43353: a3 = a1 <u s1\n 43356: a1 = u64 [sp + 0xb8]\n 43360: a5 = u64 [sp + 0xb0]\n 43364: a5 = a5 - a1\n 43367: a5 = a5 - a3\n 43370: a5 = a5 - t0\n 43373: a0 = a0 - a4\n 43376: a0 = a0 - ra\n 43379: s1 = t1 - a2\n 43382: a0 = a0 | a5\n 43385: a1 = s1 | t2\n 43388: a1 = a1 | a0\n 43391: a0 = a0 | t2\n 43394: a1 = a1 >> 0x20\n 43397: a0 = a0 << 0x20\n 43400: a0 = a0 | a1\n 43403: jump @606 if a0 == 0\n      : @603 (gas: 1)\n 43406: trap\n      : @604 (gas: 3)\n 43407: a0 = 0\n 43409: a1 = 0\n 43411: ra = 522, jump @0\n      : @605 [@dyn 261] (gas: 5)\n 43418: i32 a1 = a0 + 0\n 43420: a0 = 0x1\n 43423: a2 = 0\n 43425: ecalli 14 // 'seal_return'\n 43427: fallthrough\n      : @606 (gas: 4)\n 43428: i32 a0 = a2 + 0\n 43430: i32 s1 = s1 + 0\n 43432: a1 = s1\n 43434: ra = 524, jump @0\n      : @607 [@dyn 262] (gas: 6)\n 43441: i32 a1 = a0 + 0\n 43443: a0 = 0\n 43445: a2 = s1\n 43447: ra = 0x20e\n 43451: ecalli 14 // 'seal_return'\n 43453: fallthrough\n      : @608 [@dyn 263] (gas: 12)\n 43454: sp = sp + 0xffffffffffffff80\n 43457: u64 [sp + 0x78] = ra\n 43460: u64 [sp + 0x70] = s0\n 43463: s0 = sp + 0x80\n 43467: sp = sp & 0xffffffffffffffe0\n 43470: u64 [sp + 56] = 0\n 43473: u64 [sp + 48] = 0\n 43476: u64 [sp + 40] = 0\n 43479: u64 [sp + 32] = 0\n 43482: i32 a0 = sp + 0x20\n 43485: ecalli 17 // 'value_transferred'\n 43487: fallthrough\n      : @609 (gas: 8)\n 43488: a0 = u64 [sp + 0x30]\n 43491: a1 = u64 [sp + 0x38]\n 43494: a2 = u64 [sp + 0x28]\n 43497: a3 = u64 [sp + 0x20]\n 43500: a1 = a1 | a2\n 43503: a0 = a0 | a3\n 43506: a0 = a0 | a1\n 43509: jump @615 if a0 != 0\n      : @610 (gas: 2)\n 43513: a0 = i32 [0x20078]\n 43518: jump @615 if a0 <=u 35\n      : @611 (gas: 13)\n 43523: i32 a0 = sp + 0x40\n 43526: a1 = 0x4\n 43529: ecalli 3 // 'call_data_load'\n 43531: a1 = u64 [sp + 0x40]\n 43534: a0 = u64 [sp + 0x48]\n 43537: a2 = u64 [sp + 0x50]\n 43540: a3 = u64 [sp + 0x58]\n 43543: u64 [sp + 0x18] = a3\n 43546: u64 [sp + 0x10] = a2\n 43549: u64 [sp + 0x8] = a0\n 43552: a0 = sp\n 43554: u64 [sp] = a1\n 43556: ra = 528, jump @1128\n      : @612 [@dyn 264] (gas: 3)\n 43563: a0 = 0x40\n 43566: a1 = 0x20\n 43569: ra = 530, jump @0\n      : @613 [@dyn 265] (gas: 100)\n 43576: a1 = u8 [a0 + 0x11]\n 43579: a2 = u8 [a0 + 0x10]\n 43582: a3 = u8 [a0 + 0x12]\n 43585: a4 = u8 [a0 + 0x13]\n 43588: a1 = a1 << 0x8\n 43591: a1 = a1 | a2\n 43594: a3 = a3 << 0x10\n 43597: a4 = a4 << 0x18\n 43600: a3 = a3 | a4\n 43603: a1 = a1 | a3\n 43606: a2 = u8 [a0 + 0x15]\n 43609: a3 = u8 [a0 + 0x14]\n 43612: a4 = u8 [a0 + 0x16]\n 43615: a5 = u8 [a0 + 0x17]\n 43618: a2 = a2 << 0x8\n 43621: a2 = a2 | a3\n 43624: a4 = a4 << 0x10\n 43627: a5 = a5 << 0x18\n 43630: a4 = a4 | a5\n 43633: a2 = a2 | a4\n 43636: a2 = a2 << 0x20\n 43639: t0 = a2 | a1\n 43642: a2 = u8 [a0 + 0x1]\n 43645: a3 = u8 [a0]\n 43647: a4 = u8 [a0 + 0x2]\n 43650: a5 = u8 [a0 + 0x3]\n 43653: a2 = a2 << 0x8\n 43656: a2 = a2 | a3\n 43659: a4 = a4 << 0x10\n 43662: a5 = a5 << 0x18\n 43665: a4 = a4 | a5\n 43668: a2 = a2 | a4\n 43671: a3 = u8 [a0 + 0x5]\n 43674: a4 = u8 [a0 + 0x4]\n 43677: a5 = u8 [a0 + 0x6]\n 43680: a1 = u8 [a0 + 0x7]\n 43683: a3 = a3 << 0x8\n 43686: a3 = a3 | a4\n 43689: a5 = a5 << 0x10\n 43692: a1 = a1 << 0x18\n 43695: a1 = a1 | a5\n 43698: a1 = a1 | a3\n 43701: a1 = a1 << 0x20\n 43704: t1 = a1 | a2\n 43707: a1 = u8 [a0 + 0x19]\n 43710: a3 = u8 [a0 + 0x18]\n 43713: a4 = u8 [a0 + 0x1a]\n 43716: a5 = u8 [a0 + 0x1b]\n 43719: a1 = a1 << 0x8\n 43722: a1 = a1 | a3\n 43725: a4 = a4 << 0x10\n 43728: a5 = a5 << 0x18\n 43731: a4 = a4 | a5\n 43734: a1 = a1 | a4\n 43737: a3 = u8 [a0 + 0x1d]\n 43740: a4 = u8 [a0 + 0x1c]\n 43743: a5 = u8 [a0 + 0x1e]\n 43746: a2 = u8 [a0 + 0x1f]\n 43749: a3 = a3 << 0x8\n 43752: a3 = a3 | a4\n 43755: a5 = a5 << 0x10\n 43758: a2 = a2 << 0x18\n 43761: a2 = a2 | a5\n 43764: a2 = a2 | a3\n 43767: a2 = a2 << 0x20\n 43770: a3 = a2 | a1\n 43773: a1 = u8 [a0 + 0x9]\n 43776: a2 = u8 [a0 + 0x8]\n 43779: a4 = u8 [a0 + 0xa]\n 43782: a5 = u8 [a0 + 0xb]\n 43785: a1 = a1 << 0x8\n 43788: a1 = a1 | a2\n 43791: a4 = a4 << 0x10\n 43794: a5 = a5 << 0x18\n 43797: a4 = a4 | a5\n 43800: a1 = a1 | a4\n 43803: a2 = u8 [a0 + 0xd]\n 43806: a4 = u8 [a0 + 0xc]\n 43809: a5 = u8 [a0 + 0xe]\n 43812: a0 = u8 [a0 + 0xf]\n 43815: a2 = a2 << 0x8\n 43818: a2 = a2 | a4\n 43821: a5 = a5 << 0x10\n 43824: a0 = a0 << 0x18\n 43827: a0 = a0 | a5\n 43830: a0 = a0 | a2\n 43833: a0 = a0 << 0x20\n 43836: a0 = a0 | a1\n 43839: a1 = reverse a0\n 43841: a0 = reverse a3\n 43843: a2 = reverse t1\n 43845: a3 = reverse t0\n 43847: a2 = a2 | a3\n 43850: a3 = a0 | a1\n 43853: a3 = a3 | a2\n 43856: a3 = a3 >> 0x20\n 43859: a1 = a1 | a2\n 43862: a1 = a1 << 0x20\n 43865: a1 = a1 | a3\n 43868: jump @617 if a1 == 0\n      : @614 (gas: 1)\n 43871: trap\n      : @615 (gas: 3)\n 43872: a0 = 0\n 43874: a1 = 0\n 43876: ra = 532, jump @0\n      : @616 [@dyn 266] (gas: 7)\n 43883: i32 a1 = a0 + 0\n 43885: a0 = 0x1\n 43888: a2 = 0\n 43890: ecalli 14 // 'seal_return'\n 43892: i32 a0 = a0 + 0\n 43894: ra = 0x216\n 43898: jump @0\n      : @617 (gas: 2)\n 43902: i32 a0 = a0 + 0\n 43904: ra = 534, jump @0\n      : @618 [@dyn 267] (gas: 6)\n 43911: i32 a1 = a0 + 0\n 43913: a0 = 0\n 43915: a2 = 0\n 43917: ra = 0x218\n 43921: ecalli 14 // 'seal_return'\n 43923: fallthrough\n      : @619 [@dyn 268] (gas: 8)\n 43924: sp = sp + 0xffffffffffffffe0\n 43927: u64 [sp + 0x18] = ra\n 43930: u64 [sp + 0x10] = s0\n 43933: u64 [sp + 0x8] = s1\n 43936: s1 = 0x20070\n 43941: a1 = i32 [0x20070]\n 43946: s0 = a0\n 43948: jump @622 if a1 == 0\n      : @620 (gas: 6)\n 43951: a0 = 0x30080\n 43956: i32 a0 = a0 + 0\n 43958: u64 [sp] = a1\n 43960: i32 a1 = s1 + 0\n 43962: ecalli 7 // 'get_immutable_data'\n 43964: fallthrough\n      : @621 (gas: 4)\n 43965: a0 = i32 [0x20070]\n 43970: u32 [0x20070] = 0\n 43975: a1 = u64 [sp]\n 43977: jump @623 if a0 <u a1\n      : @622 (gas: 13)\n 43980: a1 = u64 [0x300f8]\n 43985: a2 = u64 [0x300f0]\n 43990: a3 = u64 [0x300e8]\n 43995: a0 = u64 [0x300e0]\n 44000: u64 [s0 + 0x18] = a1\n 44003: u64 [s0 + 0x10] = a2\n 44006: u64 [s0 + 0x8] = a3\n 44009: u64 [s0] = a0\n 44011: ra = u64 [sp + 0x18]\n 44014: s0 = u64 [sp + 0x10]\n 44017: s1 = u64 [sp + 0x8]\n 44020: sp = sp + 0x20\n 44023: ret\n      : @623 (gas: 1)\n 44025: trap\n      : @624 (gas: 8)\n 44026: a0 = u64 [sp + 0x30]\n 44029: a1 = u64 [sp + 0x38]\n 44032: a2 = u64 [sp + 0x28]\n 44035: a3 = u64 [sp + 0x20]\n 44038: a1 = a1 | a2\n 44041: a0 = a0 | a3\n 44044: a0 = a0 | a1\n 44047: jump @632 if a0 != 0\n      : @625 (gas: 2)\n 44051: a0 = i32 [0x20078]\n 44056: jump @632 if a0 <=u 3\n      : @626 (gas: 3)\n 44061: s1 = 0x20070\n 44066: a0 = i32 [0x20070]\n 44071: jump @629 if a0 == 0\n      : @627 (gas: 6)\n 44074: u64 [sp + 0x18] = a0\n 44077: a0 = 0x30080\n 44082: i32 a0 = a0 + 0\n 44084: i32 a1 = s1 + 0\n 44086: ecalli 7 // 'get_immutable_data'\n 44088: fallthrough\n      : @628 (gas: 4)\n 44089: a0 = i32 [0x20070]\n 44094: u32 [0x20070] = 0\n 44099: a1 = u64 [sp + 0x18]\n 44102: jump @631 if a0 <u a1\n      : @629 (gas: 11)\n 44106: a1 = u64 [0x300f8]\n 44111: u64 [sp] = a1\n 44113: a1 = u64 [0x300f0]\n 44118: u64 [sp + 0x8] = a1\n 44121: a1 = u64 [0x300e8]\n 44126: u64 [sp + 0x10] = a1\n 44129: a0 = u64 [0x300e0]\n 44134: u64 [sp + 0x18] = a0\n 44137: a0 = 0x40\n 44140: a1 = 0x20\n 44143: ra = 538, jump @0\n      : @630 [@dyn 269] (gas: 100)\n 44150: a1 = u8 [a0 + 0x11]\n 44153: a2 = u8 [a0 + 0x10]\n 44156: a3 = u8 [a0 + 0x12]\n 44159: a4 = u8 [a0 + 0x13]\n 44162: a1 = a1 << 0x8\n 44165: a1 = a1 | a2\n 44168: a3 = a3 << 0x10\n 44171: a4 = a4 << 0x18\n 44174: a3 = a3 | a4\n 44177: a1 = a1 | a3\n 44180: a2 = u8 [a0 + 0x15]\n 44183: a3 = u8 [a0 + 0x14]\n 44186: a4 = u8 [a0 + 0x16]\n 44189: a5 = u8 [a0 + 0x17]\n 44192: a2 = a2 << 0x8\n 44195: a2 = a2 | a3\n 44198: a4 = a4 << 0x10\n 44201: a5 = a5 << 0x18\n 44204: a4 = a4 | a5\n 44207: a2 = a2 | a4\n 44210: a2 = a2 << 0x20\n 44213: t0 = a2 | a1\n 44216: a2 = u8 [a0 + 0x1]\n 44219: a3 = u8 [a0]\n 44221: a4 = u8 [a0 + 0x2]\n 44224: a5 = u8 [a0 + 0x3]\n 44227: a2 = a2 << 0x8\n 44230: a2 = a2 | a3\n 44233: a4 = a4 << 0x10\n 44236: a5 = a5 << 0x18\n 44239: a4 = a4 | a5\n 44242: a2 = a2 | a4\n 44245: a3 = u8 [a0 + 0x5]\n 44248: a4 = u8 [a0 + 0x4]\n 44251: a5 = u8 [a0 + 0x6]\n 44254: s1 = u8 [a0 + 0x7]\n 44257: a3 = a3 << 0x8\n 44260: a3 = a3 | a4\n 44263: a5 = a5 << 0x10\n 44266: s1 = s1 << 0x18\n 44269: a5 = a5 | s1\n 44272: a3 = a3 | a5\n 44275: a3 = a3 << 0x20\n 44278: a2 = a2 | a3\n 44281: a3 = u8 [a0 + 0x19]\n 44284: a4 = u8 [a0 + 0x18]\n 44287: a5 = u8 [a0 + 0x1a]\n 44290: s1 = u8 [a0 + 0x1b]\n 44293: a3 = a3 << 0x8\n 44296: a3 = a3 | a4\n 44299: a5 = a5 << 0x10\n 44302: s1 = s1 << 0x18\n 44305: a5 = a5 | s1\n 44308: a3 = a3 | a5\n 44311: a4 = u8 [a0 + 0x1d]\n 44314: a5 = u8 [a0 + 0x1c]\n 44317: s1 = u8 [a0 + 0x1e]\n 44320: a1 = u8 [a0 + 0x1f]\n 44323: a4 = a4 << 0x8\n 44326: a4 = a4 | a5\n 44329: s1 = s1 << 0x10\n 44332: a1 = a1 << 0x18\n 44335: a1 = a1 | s1\n 44338: a1 = a1 | a4\n 44341: a1 = a1 << 0x20\n 44344: a3 = a3 | a1\n 44347: a1 = u8 [a0 + 0x9]\n 44350: a4 = u8 [a0 + 0x8]\n 44353: a5 = u8 [a0 + 0xa]\n 44356: s1 = u8 [a0 + 0xb]\n 44359: a1 = a1 << 0x8\n 44362: a1 = a1 | a4\n 44365: a5 = a5 << 0x10\n 44368: s1 = s1 << 0x18\n 44371: a5 = a5 | s1\n 44374: a1 = a1 | a5\n 44377: a4 = u8 [a0 + 0xd]\n 44380: a5 = u8 [a0 + 0xc]\n 44383: s1 = u8 [a0 + 0xe]\n 44386: a0 = u8 [a0 + 0xf]\n 44389: a4 = a4 << 0x8\n 44392: a4 = a4 | a5\n 44395: s1 = s1 << 0x10\n 44398: a0 = a0 << 0x18\n 44401: a0 = a0 | s1\n 44404: a0 = a0 | a4\n 44407: a0 = a0 << 0x20\n 44410: a0 = a0 | a1\n 44413: a1 = reverse a0\n 44415: a0 = reverse a3\n 44417: a2 = reverse a2\n 44419: a3 = reverse t0\n 44421: a2 = a2 | a3\n 44424: a3 = a0 | a1\n 44427: a3 = a3 | a2\n 44430: a3 = a3 >> 0x20\n 44433: a1 = a1 | a2\n 44436: a1 = a1 << 0x20\n 44439: a1 = a1 | a3\n 44442: jump @634 if a1 == 0\n      : @631 (gas: 1)\n 44445: trap\n      : @632 (gas: 3)\n 44446: a0 = 0\n 44448: a1 = 0\n 44450: ra = 540, jump @0\n      : @633 [@dyn 270] (gas: 5)\n 44457: i32 a1 = a0 + 0\n 44459: a0 = 0x1\n 44462: a2 = 0\n 44464: ecalli 14 // 'seal_return'\n 44466: fallthrough\n      : @634 (gas: 4)\n 44467: i32 s1 = a0 + 0\n 44469: a1 = 0x20\n 44472: a0 = s1\n 44474: ra = 542, jump @0\n      : @635 [@dyn 271] (gas: 71)\n 44481: a1 = u64 [sp]\n 44483: a1 = reverse a1\n 44485: a2 = u64 [sp + 0x8]\n 44488: a2 = reverse a2\n 44490: a3 = u64 [sp + 0x10]\n 44493: a3 = reverse a3\n 44495: a4 = u64 [sp + 0x18]\n 44498: a4 = reverse a4\n 44500: a5 = a4 >> 0x38\n 44503: u8 [a0 + 0x1f] = a5\n 44506: a5 = a4 >> 0x30\n 44509: u8 [a0 + 0x1e] = a5\n 44512: a5 = a4 >> 0x28\n 44515: u8 [a0 + 0x1d] = a5\n 44518: a5 = a4 >> 0x20\n 44521: u8 [a0 + 0x1c] = a5\n 44524: a5 = a4 >> 0x18\n 44527: u8 [a0 + 0x1b] = a5\n 44530: a5 = a4 >> 0x10\n 44533: u8 [a0 + 0x1a] = a5\n 44536: a5 = a4 >> 0x8\n 44539: u8 [a0 + 0x19] = a5\n 44542: u8 [a0 + 0x18] = a4\n 44545: u8 [a0 + 0x10] = a3\n 44548: a4 = a3 >> 0x38\n 44551: u8 [a0 + 0x17] = a4\n 44554: a4 = a3 >> 0x30\n 44557: u8 [a0 + 0x16] = a4\n 44560: a4 = a3 >> 0x28\n 44563: u8 [a0 + 0x15] = a4\n 44566: a4 = a3 >> 0x20\n 44569: u8 [a0 + 0x14] = a4\n 44572: a4 = a3 >> 0x18\n 44575: u8 [a0 + 0x13] = a4\n 44578: a4 = a3 >> 0x10\n 44581: u8 [a0 + 0x12] = a4\n 44584: a3 = a3 >> 0x8\n 44587: u8 [a0 + 0x11] = a3\n 44590: u8 [a0 + 0x8] = a2\n 44593: a3 = a2 >> 0x38\n 44596: u8 [a0 + 0xf] = a3\n 44599: a3 = a2 >> 0x30\n 44602: u8 [a0 + 0xe] = a3\n 44605: a3 = a2 >> 0x28\n 44608: u8 [a0 + 0xd] = a3\n 44611: a3 = a2 >> 0x20\n 44614: u8 [a0 + 0xc] = a3\n 44617: a3 = a2 >> 0x18\n 44620: u8 [a0 + 0xb] = a3\n 44623: a3 = a2 >> 0x10\n 44626: u8 [a0 + 0xa] = a3\n 44629: a2 = a2 >> 0x8\n 44632: u8 [a0 + 0x9] = a2\n 44635: u8 [a0] = a1\n 44637: a2 = a1 >> 0x38\n 44640: u8 [a0 + 0x7] = a2\n 44643: a2 = a1 >> 0x30\n 44646: u8 [a0 + 0x6] = a2\n 44649: a2 = a1 >> 0x28\n 44652: u8 [a0 + 0x5] = a2\n 44655: a2 = a1 >> 0x20\n 44658: u8 [a0 + 0x4] = a2\n 44661: a2 = a1 >> 0x18\n 44664: u8 [a0 + 0x3] = a2\n 44667: a2 = a1 >> 0x10\n 44670: u8 [a0 + 0x2] = a2\n 44673: a1 = a1 >> 0x8\n 44676: u8 [a0 + 0x1] = a1\n 44679: a1 = 0x20\n 44682: a0 = s1\n 44684: ra = 544, jump @0\n      : @636 [@dyn 272] (gas: 6)\n 44691: i32 a1 = a0 + 0\n 44693: a2 = 0x20\n 44696: a0 = 0\n 44698: ra = 0x222\n 44702: ecalli 14 // 'seal_return'\n 44704: fallthrough\n      : @637 [@dyn 273] (gas: 12)\n 44705: sp = sp + 0xffffffffffffff80\n 44708: u64 [sp + 0x78] = ra\n 44711: u64 [sp + 0x70] = s0\n 44714: s0 = sp + 0x80\n 44718: sp = sp & 0xffffffffffffffe0\n 44721: u64 [sp + 56] = 0\n 44724: u64 [sp + 48] = 0\n 44727: u64 [sp + 40] = 0\n 44730: u64 [sp + 32] = 0\n 44733: i32 a0 = sp + 0x20\n 44736: ecalli 17 // 'value_transferred'\n 44738: fallthrough\n      : @638 (gas: 8)\n 44739: a0 = u64 [sp + 0x30]\n 44742: a1 = u64 [sp + 0x38]\n 44745: a2 = u64 [sp + 0x28]\n 44748: a3 = u64 [sp + 0x20]\n 44751: a1 = a1 | a2\n 44754: a0 = a0 | a3\n 44757: a0 = a0 | a1\n 44760: jump @644 if a0 != 0\n      : @639 (gas: 2)\n 44764: a0 = i32 [0x20078]\n 44769: jump @644 if a0 <=u 35\n      : @640 (gas: 30)\n 44774: i32 a0 = sp + 0x40\n 44777: a1 = 0x4\n 44780: ecalli 3 // 'call_data_load'\n 44782: a1 = u64 [sp + 0x40]\n 44785: a0 = u64 [sp + 0x48]\n 44788: a2 = u64 [sp + 0x50]\n 44791: a3 = u64 [sp + 0x58]\n 44794: u64 [sp + 0x18] = a3\n 44797: u64 [sp + 0x10] = a2\n 44800: u64 [sp + 0x8] = a0\n 44803: a0 = sp\n 44805: u64 [sp] = a1\n 44807: ra = 0x224\n 44811: sp = sp + 0xfffffffffffffe20\n 44815: u64 [sp + 0x1d8] = ra\n 44819: u64 [sp + 0x1d0] = s0\n 44823: u64 [sp + 0x1c8] = s1\n 44827: s0 = sp + 0x1e0\n 44831: sp = sp & 0xffffffffffffffe0\n 44834: a1 = u64 [a0]\n 44836: u64 [sp + 0x58] = a1\n 44839: a1 = u64 [a0 + 0x8]\n 44842: u64 [sp + 0x50] = a1\n 44845: a1 = u64 [a0 + 0x10]\n 44848: u64 [sp + 0x48] = a1\n 44851: s1 = u64 [a0 + 0x18]\n 44854: a1 = 0x20\n 44857: a0 = 0\n 44859: ra = 0x418\n 44863: jump @0\n      : @641 [@dyn 274] (gas: 3)\n 44867: a0 = 0x40\n 44870: a1 = 0x20\n 44873: ra = 550, jump @0\n      : @642 [@dyn 275] (gas: 100)\n 44880: a1 = u8 [a0 + 0x11]\n 44883: a2 = u8 [a0 + 0x10]\n 44886: a3 = u8 [a0 + 0x12]\n 44889: a4 = u8 [a0 + 0x13]\n 44892: a1 = a1 << 0x8\n 44895: a1 = a1 | a2\n 44898: a3 = a3 << 0x10\n 44901: a4 = a4 << 0x18\n 44904: a3 = a3 | a4\n 44907: a1 = a1 | a3\n 44910: a2 = u8 [a0 + 0x15]\n 44913: a3 = u8 [a0 + 0x14]\n 44916: a4 = u8 [a0 + 0x16]\n 44919: a5 = u8 [a0 + 0x17]\n 44922: a2 = a2 << 0x8\n 44925: a2 = a2 | a3\n 44928: a4 = a4 << 0x10\n 44931: a5 = a5 << 0x18\n 44934: a4 = a4 | a5\n 44937: a2 = a2 | a4\n 44940: a2 = a2 << 0x20\n 44943: t0 = a2 | a1\n 44946: a2 = u8 [a0 + 0x1]\n 44949: a3 = u8 [a0]\n 44951: a4 = u8 [a0 + 0x2]\n 44954: a5 = u8 [a0 + 0x3]\n 44957: a2 = a2 << 0x8\n 44960: a2 = a2 | a3\n 44963: a4 = a4 << 0x10\n 44966: a5 = a5 << 0x18\n 44969: a4 = a4 | a5\n 44972: a2 = a2 | a4\n 44975: a3 = u8 [a0 + 0x5]\n 44978: a4 = u8 [a0 + 0x4]\n 44981: a5 = u8 [a0 + 0x6]\n 44984: a1 = u8 [a0 + 0x7]\n 44987: a3 = a3 << 0x8\n 44990: a3 = a3 | a4\n 44993: a5 = a5 << 0x10\n 44996: a1 = a1 << 0x18\n 44999: a1 = a1 | a5\n 45002: a1 = a1 | a3\n 45005: a1 = a1 << 0x20\n 45008: t1 = a1 | a2\n 45011: a1 = u8 [a0 + 0x19]\n 45014: a3 = u8 [a0 + 0x18]\n 45017: a4 = u8 [a0 + 0x1a]\n 45020: a5 = u8 [a0 + 0x1b]\n 45023: a1 = a1 << 0x8\n 45026: a1 = a1 | a3\n 45029: a4 = a4 << 0x10\n 45032: a5 = a5 << 0x18\n 45035: a4 = a4 | a5\n 45038: a1 = a1 | a4\n 45041: a3 = u8 [a0 + 0x1d]\n 45044: a4 = u8 [a0 + 0x1c]\n 45047: a5 = u8 [a0 + 0x1e]\n 45050: a2 = u8 [a0 + 0x1f]\n 45053: a3 = a3 << 0x8\n 45056: a3 = a3 | a4\n 45059: a5 = a5 << 0x10\n 45062: a2 = a2 << 0x18\n 45065: a2 = a2 | a5\n 45068: a2 = a2 | a3\n 45071: a2 = a2 << 0x20\n 45074: a3 = a2 | a1\n 45077: a1 = u8 [a0 + 0x9]\n 45080: a2 = u8 [a0 + 0x8]\n 45083: a4 = u8 [a0 + 0xa]\n 45086: a5 = u8 [a0 + 0xb]\n 45089: a1 = a1 << 0x8\n 45092: a1 = a1 | a2\n 45095: a4 = a4 << 0x10\n 45098: a5 = a5 << 0x18\n 45101: a4 = a4 | a5\n 45104: a1 = a1 | a4\n 45107: a2 = u8 [a0 + 0xd]\n 45110: a4 = u8 [a0 + 0xc]\n 45113: a5 = u8 [a0 + 0xe]\n 45116: a0 = u8 [a0 + 0xf]\n 45119: a2 = a2 << 0x8\n 45122: a2 = a2 | a4\n 45125: a5 = a5 << 0x10\n 45128: a0 = a0 << 0x18\n 45131: a0 = a0 | a5\n 45134: a0 = a0 | a2\n 45137: a0 = a0 << 0x20\n 45140: a0 = a0 | a1\n 45143: a1 = reverse a0\n 45145: a0 = reverse a3\n 45147: a2 = reverse t1\n 45149: a3 = reverse t0\n 45151: a2 = a2 | a3\n 45154: a3 = a0 | a1\n 45157: a3 = a3 | a2\n 45160: a3 = a3 >> 0x20\n 45163: a1 = a1 | a2\n 45166: a1 = a1 << 0x20\n 45169: a1 = a1 | a3\n 45172: jump @646 if a1 == 0\n      : @643 (gas: 1)\n 45175: trap\n      : @644 (gas: 3)\n 45176: a0 = 0\n 45178: a1 = 0\n 45180: ra = 552, jump @0\n      : @645 [@dyn 276] (gas: 7)\n 45187: i32 a1 = a0 + 0\n 45189: a0 = 0x1\n 45192: a2 = 0\n 45194: ecalli 14 // 'seal_return'\n 45196: i32 a0 = a0 + 0\n 45198: ra = 0x22a\n 45202: jump @0\n      : @646 (gas: 2)\n 45206: i32 a0 = a0 + 0\n 45208: ra = 554, jump @0\n      : @647 [@dyn 277] (gas: 6)\n 45215: i32 a1 = a0 + 0\n 45217: a0 = 0\n 45219: a2 = 0\n 45221: ra = 0x22c\n 45225: ecalli 14 // 'seal_return'\n 45227: fallthrough\n      : @648 [@dyn 278] (gas: 8)\n 45228: sp = sp + 0xffffffffffffffe0\n 45231: u64 [sp + 0x18] = ra\n 45234: u64 [sp + 0x10] = s0\n 45237: u64 [sp + 0x8] = s1\n 45240: s1 = 0x20070\n 45245: a1 = i32 [0x20070]\n 45250: s0 = a0\n 45252: jump @651 if a1 == 0\n      : @649 (gas: 6)\n 45255: a0 = 0x30080\n 45260: i32 a0 = a0 + 0\n 45262: u64 [sp] = a1\n 45264: i32 a1 = s1 + 0\n 45266: ecalli 7 // 'get_immutable_data'\n 45268: fallthrough\n      : @650 (gas: 4)\n 45269: a0 = i32 [0x20070]\n 45274: u32 [0x20070] = 0\n 45279: a1 = u64 [sp]\n 45281: jump @652 if a0 <u a1\n      : @651 (gas: 13)\n 45284: a1 = u64 [0x30098]\n 45289: a2 = u64 [0x30090]\n 45294: a3 = u64 [0x30088]\n 45299: a0 = u64 [0x30080]\n 45304: u64 [s0 + 0x18] = a1\n 45307: u64 [s0 + 0x10] = a2\n 45310: u64 [s0 + 0x8] = a3\n 45313: u64 [s0] = a0\n 45315: ra = u64 [sp + 0x18]\n 45318: s0 = u64 [sp + 0x10]\n 45321: s1 = u64 [sp + 0x8]\n 45324: sp = sp + 0x20\n 45327: ret\n      : @652 (gas: 1)\n 45329: trap\n      : @653 (gas: 8)\n 45330: a0 = u64 [sp + 0x30]\n 45333: a1 = u64 [sp + 0x38]\n 45336: a2 = u64 [sp + 0x28]\n 45339: a3 = u64 [sp + 0x20]\n 45342: a1 = a1 | a2\n 45345: a0 = a0 | a3\n 45348: a0 = a0 | a1\n 45351: jump @661 if a0 != 0\n      : @654 (gas: 2)\n 45355: a0 = i32 [0x20078]\n 45360: jump @661 if a0 <=u 3\n      : @655 (gas: 3)\n 45365: s1 = 0x20070\n 45370: a0 = i32 [0x20070]\n 45375: jump @658 if a0 == 0\n      : @656 (gas: 6)\n 45378: u64 [sp + 0x18] = a0\n 45381: a0 = 0x30080\n 45386: i32 a0 = a0 + 0\n 45388: i32 a1 = s1 + 0\n 45390: ecalli 7 // 'get_immutable_data'\n 45392: fallthrough\n      : @657 (gas: 4)\n 45393: a0 = i32 [0x20070]\n 45398: u32 [0x20070] = 0\n 45403: a1 = u64 [sp + 0x18]\n 45406: jump @660 if a0 <u a1\n      : @658 (gas: 9)\n 45410: a1 = u64 [0x30090]\n 45415: u64 [sp + 0x8] = a1\n 45418: a1 = u64 [0x30088]\n 45423: u64 [sp + 0x10] = a1\n 45426: a0 = u64 [0x30080]\n 45431: u64 [sp + 0x18] = a0\n 45434: a0 = 0x40\n 45437: a1 = 0x20\n 45440: ra = 558, jump @0\n      : @659 [@dyn 279] (gas: 100)\n 45447: a1 = u8 [a0 + 0x11]\n 45450: a2 = u8 [a0 + 0x10]\n 45453: a3 = u8 [a0 + 0x12]\n 45456: a4 = u8 [a0 + 0x13]\n 45459: a1 = a1 << 0x8\n 45462: a1 = a1 | a2\n 45465: a3 = a3 << 0x10\n 45468: a4 = a4 << 0x18\n 45471: a3 = a3 | a4\n 45474: a1 = a1 | a3\n 45477: a2 = u8 [a0 + 0x15]\n 45480: a3 = u8 [a0 + 0x14]\n 45483: a4 = u8 [a0 + 0x16]\n 45486: a5 = u8 [a0 + 0x17]\n 45489: a2 = a2 << 0x8\n 45492: a2 = a2 | a3\n 45495: a4 = a4 << 0x10\n 45498: a5 = a5 << 0x18\n 45501: a4 = a4 | a5\n 45504: a2 = a2 | a4\n 45507: a2 = a2 << 0x20\n 45510: t0 = a2 | a1\n 45513: a2 = u8 [a0 + 0x1]\n 45516: a3 = u8 [a0]\n 45518: a4 = u8 [a0 + 0x2]\n 45521: a5 = u8 [a0 + 0x3]\n 45524: a2 = a2 << 0x8\n 45527: a2 = a2 | a3\n 45530: a4 = a4 << 0x10\n 45533: a5 = a5 << 0x18\n 45536: a4 = a4 | a5\n 45539: a2 = a2 | a4\n 45542: a3 = u8 [a0 + 0x5]\n 45545: a4 = u8 [a0 + 0x4]\n 45548: a5 = u8 [a0 + 0x6]\n 45551: s1 = u8 [a0 + 0x7]\n 45554: a3 = a3 << 0x8\n 45557: a3 = a3 | a4\n 45560: a5 = a5 << 0x10\n 45563: s1 = s1 << 0x18\n 45566: a5 = a5 | s1\n 45569: a3 = a3 | a5\n 45572: a3 = a3 << 0x20\n 45575: a2 = a2 | a3\n 45578: a3 = u8 [a0 + 0x19]\n 45581: a4 = u8 [a0 + 0x18]\n 45584: a5 = u8 [a0 + 0x1a]\n 45587: s1 = u8 [a0 + 0x1b]\n 45590: a3 = a3 << 0x8\n 45593: a3 = a3 | a4\n 45596: a5 = a5 << 0x10\n 45599: s1 = s1 << 0x18\n 45602: a5 = a5 | s1\n 45605: a3 = a3 | a5\n 45608: a4 = u8 [a0 + 0x1d]\n 45611: a5 = u8 [a0 + 0x1c]\n 45614: s1 = u8 [a0 + 0x1e]\n 45617: a1 = u8 [a0 + 0x1f]\n 45620: a4 = a4 << 0x8\n 45623: a4 = a4 | a5\n 45626: s1 = s1 << 0x10\n 45629: a1 = a1 << 0x18\n 45632: a1 = a1 | s1\n 45635: a1 = a1 | a4\n 45638: a1 = a1 << 0x20\n 45641: a3 = a3 | a1\n 45644: a1 = u8 [a0 + 0x9]\n 45647: a4 = u8 [a0 + 0x8]\n 45650: a5 = u8 [a0 + 0xa]\n 45653: s1 = u8 [a0 + 0xb]\n 45656: a1 = a1 << 0x8\n 45659: a1 = a1 | a4\n 45662: a5 = a5 << 0x10\n 45665: s1 = s1 << 0x18\n 45668: a5 = a5 | s1\n 45671: a1 = a1 | a5\n 45674: a4 = u8 [a0 + 0xd]\n 45677: a5 = u8 [a0 + 0xc]\n 45680: s1 = u8 [a0 + 0xe]\n 45683: a0 = u8 [a0 + 0xf]\n 45686: a4 = a4 << 0x8\n 45689: a4 = a4 | a5\n 45692: s1 = s1 << 0x10\n 45695: a0 = a0 << 0x18\n 45698: a0 = a0 | s1\n 45701: a0 = a0 | a4\n 45704: a0 = a0 << 0x20\n 45707: a0 = a0 | a1\n 45710: a1 = reverse a0\n 45712: a0 = reverse a3\n 45714: a2 = reverse a2\n 45716: a3 = reverse t0\n 45718: a2 = a2 | a3\n 45721: a3 = a0 | a1\n 45724: a3 = a3 | a2\n 45727: a3 = a3 >> 0x20\n 45730: a1 = a1 | a2\n 45733: a1 = a1 << 0x20\n 45736: a1 = a1 | a3\n 45739: jump @663 if a1 == 0\n      : @660 (gas: 1)\n 45742: trap\n      : @661 (gas: 3)\n 45743: a0 = 0\n 45745: a1 = 0\n 45747: ra = 560, jump @0\n      : @662 [@dyn 280] (gas: 5)\n 45754: i32 a1 = a0 + 0\n 45756: a0 = 0x1\n 45759: a2 = 0\n 45761: ecalli 14 // 'seal_return'\n 45763: fallthrough\n      : @663 (gas: 7)\n 45764: a1 = u64 [sp + 0x8]\n 45767: a1 = a1 << 0x20\n 45770: s1 = a1 >> 0x20\n 45773: i32 a0 = a0 + 0\n 45775: u64 [sp + 0x8] = a0\n 45778: a1 = 0x20\n 45781: ra = 562, jump @0\n      : @664 [@dyn 281] (gas: 58)\n 45788: a1 = reverse s1\n 45790: a2 = u64 [sp + 0x10]\n 45793: a2 = reverse a2\n 45795: a3 = u64 [sp + 0x18]\n 45798: a3 = reverse a3\n 45800: a4 = a3 >> 0x38\n 45803: u8 [a0 + 0x1f] = a4\n 45806: a4 = a3 >> 0x30\n 45809: u8 [a0 + 0x1e] = a4\n 45812: a4 = a3 >> 0x28\n 45815: u8 [a0 + 0x1d] = a4\n 45818: a4 = a3 >> 0x20\n 45821: u8 [a0 + 0x1c] = a4\n 45824: a4 = a3 >> 0x18\n 45827: u8 [a0 + 0x1b] = a4\n 45830: a4 = a3 >> 0x10\n 45833: u8 [a0 + 0x1a] = a4\n 45836: a4 = a3 >> 0x8\n 45839: u8 [a0 + 0x19] = a4\n 45842: u8 [a0 + 0x18] = a3\n 45845: u8 [a0 + 0x10] = a2\n 45848: u8 [a0 + 11] = 0\n 45851: u8 [a0 + 10] = 0\n 45854: u8 [a0 + 9] = 0\n 45857: u8 [a0 + 7] = 0\n 45860: u8 [a0 + 6] = 0\n 45863: u8 [a0 + 5] = 0\n 45866: u8 [a0 + 4] = 0\n 45869: u8 [a0 + 3] = 0\n 45872: u8 [a0 + 2] = 0\n 45875: u8 [a0 + 1] = 0\n 45878: u8 [a0 + 0] = 0\n 45880: a3 = a2 >> 0x38\n 45883: u8 [a0 + 0x17] = a3\n 45886: a3 = a2 >> 0x30\n 45889: u8 [a0 + 0x16] = a3\n 45892: a3 = a2 >> 0x28\n 45895: u8 [a0 + 0x15] = a3\n 45898: a3 = a2 >> 0x20\n 45901: u8 [a0 + 0x14] = a3\n 45904: a3 = a2 >> 0x18\n 45907: u8 [a0 + 0x13] = a3\n 45910: a3 = a2 >> 0x10\n 45913: u8 [a0 + 0x12] = a3\n 45916: a2 = a2 >> 0x8\n 45919: u8 [a0 + 0x11] = a2\n 45922: u8 [a0 + 0x8] = a1\n 45925: a2 = a1 >> 0x38\n 45928: u8 [a0 + 0xf] = a2\n 45931: a2 = a1 >> 0x30\n 45934: u8 [a0 + 0xe] = a2\n 45937: a2 = a1 >> 0x28\n 45940: u8 [a0 + 0xd] = a2\n 45943: a1 = a1 >> 0x20\n 45946: u8 [a0 + 0xc] = a1\n 45949: a1 = 0x20\n 45952: a0 = u64 [sp + 0x8]\n 45955: ra = 564, jump @0\n      : @665 [@dyn 282] (gas: 6)\n 45962: i32 a1 = a0 + 0\n 45964: a2 = 0x20\n 45967: a0 = 0\n 45969: ra = 0x236\n 45973: ecalli 14 // 'seal_return'\n 45975: fallthrough\n      : @666 [@dyn 283] (gas: 8)\n 45976: sp = sp + 0xffffffffffffffe0\n 45979: u64 [sp + 0x18] = ra\n 45982: u64 [sp + 0x10] = s0\n 45985: u64 [sp + 0x8] = s1\n 45988: s1 = 0x20070\n 45993: a1 = i32 [0x20070]\n 45998: s0 = a0\n 46000: jump @669 if a1 == 0\n      : @667 (gas: 6)\n 46003: a0 = 0x30080\n 46008: i32 a0 = a0 + 0\n 46010: u64 [sp] = a1\n 46012: i32 a1 = s1 + 0\n 46014: ecalli 7 // 'get_immutable_data'\n 46016: fallthrough\n      : @668 (gas: 4)\n 46017: a0 = i32 [0x20070]\n 46022: u32 [0x20070] = 0\n 46027: a1 = u64 [sp]\n 46029: jump @670 if a0 <u a1\n      : @669 (gas: 13)\n 46032: a1 = u64 [0x300b8]\n 46037: a2 = u64 [0x300b0]\n 46042: a3 = u64 [0x300a8]\n 46047: a0 = u64 [0x300a0]\n 46052: u64 [s0 + 0x18] = a1\n 46055: u64 [s0 + 0x10] = a2\n 46058: u64 [s0 + 0x8] = a3\n 46061: u64 [s0] = a0\n 46063: ra = u64 [sp + 0x18]\n 46066: s0 = u64 [sp + 0x10]\n 46069: s1 = u64 [sp + 0x8]\n 46072: sp = sp + 0x20\n 46075: ret\n      : @670 (gas: 1)\n 46077: trap\n      : @671 (gas: 8)\n 46078: a0 = u64 [sp + 0x30]\n 46081: a1 = u64 [sp + 0x38]\n 46084: a2 = u64 [sp + 0x28]\n 46087: a3 = u64 [sp + 0x20]\n 46090: a1 = a1 | a2\n 46093: a0 = a0 | a3\n 46096: a0 = a0 | a1\n 46099: jump @679 if a0 != 0\n      : @672 (gas: 2)\n 46103: a0 = i32 [0x20078]\n 46108: jump @679 if a0 <=u 3\n      : @673 (gas: 3)\n 46113: s1 = 0x20070\n 46118: a0 = i32 [0x20070]\n 46123: jump @676 if a0 == 0\n      : @674 (gas: 6)\n 46126: u64 [sp + 0x18] = a0\n 46129: a0 = 0x30080\n 46134: i32 a0 = a0 + 0\n 46136: i32 a1 = s1 + 0\n 46138: ecalli 7 // 'get_immutable_data'\n 46140: fallthrough\n      : @675 (gas: 4)\n 46141: a0 = i32 [0x20070]\n 46146: u32 [0x20070] = 0\n 46151: a1 = u64 [sp + 0x18]\n 46154: jump @678 if a0 <u a1\n      : @676 (gas: 11)\n 46158: a1 = u64 [0x300b8]\n 46163: u64 [sp] = a1\n 46165: a1 = u64 [0x300b0]\n 46170: u64 [sp + 0x8] = a1\n 46173: a1 = u64 [0x300a8]\n 46178: u64 [sp + 0x10] = a1\n 46181: a0 = u64 [0x300a0]\n 46186: u64 [sp + 0x18] = a0\n 46189: a0 = 0x40\n 46192: a1 = 0x20\n 46195: ra = 568, jump @0\n      : @677 [@dyn 284] (gas: 100)\n 46202: a1 = u8 [a0 + 0x11]\n 46205: a2 = u8 [a0 + 0x10]\n 46208: a3 = u8 [a0 + 0x12]\n 46211: a4 = u8 [a0 + 0x13]\n 46214: a1 = a1 << 0x8\n 46217: a1 = a1 | a2\n 46220: a3 = a3 << 0x10\n 46223: a4 = a4 << 0x18\n 46226: a3 = a3 | a4\n 46229: a1 = a1 | a3\n 46232: a2 = u8 [a0 + 0x15]\n 46235: a3 = u8 [a0 + 0x14]\n 46238: a4 = u8 [a0 + 0x16]\n 46241: a5 = u8 [a0 + 0x17]\n 46244: a2 = a2 << 0x8\n 46247: a2 = a2 | a3\n 46250: a4 = a4 << 0x10\n 46253: a5 = a5 << 0x18\n 46256: a4 = a4 | a5\n 46259: a2 = a2 | a4\n 46262: a2 = a2 << 0x20\n 46265: t0 = a2 | a1\n 46268: a2 = u8 [a0 + 0x1]\n 46271: a3 = u8 [a0]\n 46273: a4 = u8 [a0 + 0x2]\n 46276: a5 = u8 [a0 + 0x3]\n 46279: a2 = a2 << 0x8\n 46282: a2 = a2 | a3\n 46285: a4 = a4 << 0x10\n 46288: a5 = a5 << 0x18\n 46291: a4 = a4 | a5\n 46294: a2 = a2 | a4\n 46297: a3 = u8 [a0 + 0x5]\n 46300: a4 = u8 [a0 + 0x4]\n 46303: a5 = u8 [a0 + 0x6]\n 46306: s1 = u8 [a0 + 0x7]\n 46309: a3 = a3 << 0x8\n 46312: a3 = a3 | a4\n 46315: a5 = a5 << 0x10\n 46318: s1 = s1 << 0x18\n 46321: a5 = a5 | s1\n 46324: a3 = a3 | a5\n 46327: a3 = a3 << 0x20\n 46330: a2 = a2 | a3\n 46333: a3 = u8 [a0 + 0x19]\n 46336: a4 = u8 [a0 + 0x18]\n 46339: a5 = u8 [a0 + 0x1a]\n 46342: s1 = u8 [a0 + 0x1b]\n 46345: a3 = a3 << 0x8\n 46348: a3 = a3 | a4\n 46351: a5 = a5 << 0x10\n 46354: s1 = s1 << 0x18\n 46357: a5 = a5 | s1\n 46360: a3 = a3 | a5\n 46363: a4 = u8 [a0 + 0x1d]\n 46366: a5 = u8 [a0 + 0x1c]\n 46369: s1 = u8 [a0 + 0x1e]\n 46372: a1 = u8 [a0 + 0x1f]\n 46375: a4 = a4 << 0x8\n 46378: a4 = a4 | a5\n 46381: s1 = s1 << 0x10\n 46384: a1 = a1 << 0x18\n 46387: a1 = a1 | s1\n 46390: a1 = a1 | a4\n 46393: a1 = a1 << 0x20\n 46396: a3 = a3 | a1\n 46399: a1 = u8 [a0 + 0x9]\n 46402: a4 = u8 [a0 + 0x8]\n 46405: a5 = u8 [a0 + 0xa]\n 46408: s1 = u8 [a0 + 0xb]\n 46411: a1 = a1 << 0x8\n 46414: a1 = a1 | a4\n 46417: a5 = a5 << 0x10\n 46420: s1 = s1 << 0x18\n 46423: a5 = a5 | s1\n 46426: a1 = a1 | a5\n 46429: a4 = u8 [a0 + 0xd]\n 46432: a5 = u8 [a0 + 0xc]\n 46435: s1 = u8 [a0 + 0xe]\n 46438: a0 = u8 [a0 + 0xf]\n 46441: a4 = a4 << 0x8\n 46444: a4 = a4 | a5\n 46447: s1 = s1 << 0x10\n 46450: a0 = a0 << 0x18\n 46453: a0 = a0 | s1\n 46456: a0 = a0 | a4\n 46459: a0 = a0 << 0x20\n 46462: a0 = a0 | a1\n 46465: a1 = reverse a0\n 46467: a0 = reverse a3\n 46469: a2 = reverse a2\n 46471: a3 = reverse t0\n 46473: a2 = a2 | a3\n 46476: a3 = a0 | a1\n 46479: a3 = a3 | a2\n 46482: a3 = a3 >> 0x20\n 46485: a1 = a1 | a2\n 46488: a1 = a1 << 0x20\n 46491: a1 = a1 | a3\n 46494: jump @681 if a1 == 0\n      : @678 (gas: 1)\n 46497: trap\n      : @679 (gas: 3)\n 46498: a0 = 0\n 46500: a1 = 0\n 46502: ra = 570, jump @0\n      : @680 [@dyn 285] (gas: 5)\n 46509: i32 a1 = a0 + 0\n 46511: a0 = 0x1\n 46514: a2 = 0\n 46516: ecalli 14 // 'seal_return'\n 46518: fallthrough\n      : @681 (gas: 4)\n 46519: i32 s1 = a0 + 0\n 46521: a1 = 0x20\n 46524: a0 = s1\n 46526: ra = 572, jump @0\n      : @682 [@dyn 286] (gas: 71)\n 46533: a1 = u64 [sp]\n 46535: a1 = reverse a1\n 46537: a2 = u64 [sp + 0x8]\n 46540: a2 = reverse a2\n 46542: a3 = u64 [sp + 0x10]\n 46545: a3 = reverse a3\n 46547: a4 = u64 [sp + 0x18]\n 46550: a4 = reverse a4\n 46552: a5 = a4 >> 0x38\n 46555: u8 [a0 + 0x1f] = a5\n 46558: a5 = a4 >> 0x30\n 46561: u8 [a0 + 0x1e] = a5\n 46564: a5 = a4 >> 0x28\n 46567: u8 [a0 + 0x1d] = a5\n 46570: a5 = a4 >> 0x20\n 46573: u8 [a0 + 0x1c] = a5\n 46576: a5 = a4 >> 0x18\n 46579: u8 [a0 + 0x1b] = a5\n 46582: a5 = a4 >> 0x10\n 46585: u8 [a0 + 0x1a] = a5\n 46588: a5 = a4 >> 0x8\n 46591: u8 [a0 + 0x19] = a5\n 46594: u8 [a0 + 0x18] = a4\n 46597: u8 [a0 + 0x10] = a3\n 46600: a4 = a3 >> 0x38\n 46603: u8 [a0 + 0x17] = a4\n 46606: a4 = a3 >> 0x30\n 46609: u8 [a0 + 0x16] = a4\n 46612: a4 = a3 >> 0x28\n 46615: u8 [a0 + 0x15] = a4\n 46618: a4 = a3 >> 0x20\n 46621: u8 [a0 + 0x14] = a4\n 46624: a4 = a3 >> 0x18\n 46627: u8 [a0 + 0x13] = a4\n 46630: a4 = a3 >> 0x10\n 46633: u8 [a0 + 0x12] = a4\n 46636: a3 = a3 >> 0x8\n 46639: u8 [a0 + 0x11] = a3\n 46642: u8 [a0 + 0x8] = a2\n 46645: a3 = a2 >> 0x38\n 46648: u8 [a0 + 0xf] = a3\n 46651: a3 = a2 >> 0x30\n 46654: u8 [a0 + 0xe] = a3\n 46657: a3 = a2 >> 0x28\n 46660: u8 [a0 + 0xd] = a3\n 46663: a3 = a2 >> 0x20\n 46666: u8 [a0 + 0xc] = a3\n 46669: a3 = a2 >> 0x18\n 46672: u8 [a0 + 0xb] = a3\n 46675: a3 = a2 >> 0x10\n 46678: u8 [a0 + 0xa] = a3\n 46681: a2 = a2 >> 0x8\n 46684: u8 [a0 + 0x9] = a2\n 46687: u8 [a0] = a1\n 46689: a2 = a1 >> 0x38\n 46692: u8 [a0 + 0x7] = a2\n 46695: a2 = a1 >> 0x30\n 46698: u8 [a0 + 0x6] = a2\n 46701: a2 = a1 >> 0x28\n 46704: u8 [a0 + 0x5] = a2\n 46707: a2 = a1 >> 0x20\n 46710: u8 [a0 + 0x4] = a2\n 46713: a2 = a1 >> 0x18\n 46716: u8 [a0 + 0x3] = a2\n 46719: a2 = a1 >> 0x10\n 46722: u8 [a0 + 0x2] = a2\n 46725: a1 = a1 >> 0x8\n 46728: u8 [a0 + 0x1] = a1\n 46731: a1 = 0x20\n 46734: a0 = s1\n 46736: ra = 574, jump @0\n      : @683 [@dyn 287] (gas: 6)\n 46743: i32 a1 = a0 + 0\n 46745: a2 = 0x20\n 46748: a0 = 0\n 46750: ra = 0x240\n 46754: ecalli 14 // 'seal_return'\n 46756: fallthrough\n      : @684 [@dyn 288] (gas: 12)\n 46757: sp = sp + 0xffffffffffffff80\n 46760: u64 [sp + 0x78] = ra\n 46763: u64 [sp + 0x70] = s0\n 46766: s0 = sp + 0x80\n 46770: sp = sp & 0xffffffffffffffe0\n 46773: u64 [sp + 56] = 0\n 46776: u64 [sp + 48] = 0\n 46779: u64 [sp + 40] = 0\n 46782: u64 [sp + 32] = 0\n 46785: i32 a0 = sp + 0x20\n 46788: ecalli 17 // 'value_transferred'\n 46790: fallthrough\n      : @685 (gas: 8)\n 46791: a0 = u64 [sp + 0x30]\n 46794: a1 = u64 [sp + 0x38]\n 46797: a2 = u64 [sp + 0x28]\n 46800: a3 = u64 [sp + 0x20]\n 46803: a1 = a1 | a2\n 46806: a0 = a0 | a3\n 46809: a0 = a0 | a1\n 46812: jump @691 if a0 != 0\n      : @686 (gas: 2)\n 46816: a0 = i32 [0x20078]\n 46821: jump @691 if a0 <=u 35\n      : @687 (gas: 13)\n 46826: i32 a0 = sp + 0x40\n 46829: a1 = 0x4\n 46832: ecalli 3 // 'call_data_load'\n 46834: a1 = u64 [sp + 0x40]\n 46837: a0 = u64 [sp + 0x48]\n 46840: a2 = u64 [sp + 0x50]\n 46843: a3 = u64 [sp + 0x58]\n 46846: u64 [sp + 0x18] = a3\n 46849: u64 [sp + 0x10] = a2\n 46852: u64 [sp + 0x8] = a0\n 46855: a0 = sp\n 46857: u64 [sp] = a1\n 46859: ra = 578, jump @1232\n      : @688 [@dyn 289] (gas: 3)\n 46866: a0 = 0x40\n 46869: a1 = 0x20\n 46872: ra = 580, jump @0\n      : @689 [@dyn 290] (gas: 100)\n 46879: a1 = u8 [a0 + 0x11]\n 46882: a2 = u8 [a0 + 0x10]\n 46885: a3 = u8 [a0 + 0x12]\n 46888: a4 = u8 [a0 + 0x13]\n 46891: a1 = a1 << 0x8\n 46894: a1 = a1 | a2\n 46897: a3 = a3 << 0x10\n 46900: a4 = a4 << 0x18\n 46903: a3 = a3 | a4\n 46906: a1 = a1 | a3\n 46909: a2 = u8 [a0 + 0x15]\n 46912: a3 = u8 [a0 + 0x14]\n 46915: a4 = u8 [a0 + 0x16]\n 46918: a5 = u8 [a0 + 0x17]\n 46921: a2 = a2 << 0x8\n 46924: a2 = a2 | a3\n 46927: a4 = a4 << 0x10\n 46930: a5 = a5 << 0x18\n 46933: a4 = a4 | a5\n 46936: a2 = a2 | a4\n 46939: a2 = a2 << 0x20\n 46942: t0 = a2 | a1\n 46945: a2 = u8 [a0 + 0x1]\n 46948: a3 = u8 [a0]\n 46950: a4 = u8 [a0 + 0x2]\n 46953: a5 = u8 [a0 + 0x3]\n 46956: a2 = a2 << 0x8\n 46959: a2 = a2 | a3\n 46962: a4 = a4 << 0x10\n 46965: a5 = a5 << 0x18\n 46968: a4 = a4 | a5\n 46971: a2 = a2 | a4\n 46974: a3 = u8 [a0 + 0x5]\n 46977: a4 = u8 [a0 + 0x4]\n 46980: a5 = u8 [a0 + 0x6]\n 46983: a1 = u8 [a0 + 0x7]\n 46986: a3 = a3 << 0x8\n 46989: a3 = a3 | a4\n 46992: a5 = a5 << 0x10\n 46995: a1 = a1 << 0x18\n 46998: a1 = a1 | a5\n 47001: a1 = a1 | a3\n 47004: a1 = a1 << 0x20\n 47007: t1 = a1 | a2\n 47010: a1 = u8 [a0 + 0x19]\n 47013: a3 = u8 [a0 + 0x18]\n 47016: a4 = u8 [a0 + 0x1a]\n 47019: a5 = u8 [a0 + 0x1b]\n 47022: a1 = a1 << 0x8\n 47025: a1 = a1 | a3\n 47028: a4 = a4 << 0x10\n 47031: a5 = a5 << 0x18\n 47034: a4 = a4 | a5\n 47037: a1 = a1 | a4\n 47040: a3 = u8 [a0 + 0x1d]\n 47043: a4 = u8 [a0 + 0x1c]\n 47046: a5 = u8 [a0 + 0x1e]\n 47049: a2 = u8 [a0 + 0x1f]\n 47052: a3 = a3 << 0x8\n 47055: a3 = a3 | a4\n 47058: a5 = a5 << 0x10\n 47061: a2 = a2 << 0x18\n 47064: a2 = a2 | a5\n 47067: a2 = a2 | a3\n 47070: a2 = a2 << 0x20\n 47073: a3 = a2 | a1\n 47076: a1 = u8 [a0 + 0x9]\n 47079: a2 = u8 [a0 + 0x8]\n 47082: a4 = u8 [a0 + 0xa]\n 47085: a5 = u8 [a0 + 0xb]\n 47088: a1 = a1 << 0x8\n 47091: a1 = a1 | a2\n 47094: a4 = a4 << 0x10\n 47097: a5 = a5 << 0x18\n 47100: a4 = a4 | a5\n 47103: a1 = a1 | a4\n 47106: a2 = u8 [a0 + 0xd]\n 47109: a4 = u8 [a0 + 0xc]\n 47112: a5 = u8 [a0 + 0xe]\n 47115: a0 = u8 [a0 + 0xf]\n 47118: a2 = a2 << 0x8\n 47121: a2 = a2 | a4\n 47124: a5 = a5 << 0x10\n 47127: a0 = a0 << 0x18\n 47130: a0 = a0 | a5\n 47133: a0 = a0 | a2\n 47136: a0 = a0 << 0x20\n 47139: a0 = a0 | a1\n 47142: a1 = reverse a0\n 47144: a0 = reverse a3\n 47146: a2 = reverse t1\n 47148: a3 = reverse t0\n 47150: a2 = a2 | a3\n 47153: a3 = a0 | a1\n 47156: a3 = a3 | a2\n 47159: a3 = a3 >> 0x20\n 47162: a1 = a1 | a2\n 47165: a1 = a1 << 0x20\n 47168: a1 = a1 | a3\n 47171: jump @693 if a1 == 0\n      : @690 (gas: 1)\n 47174: trap\n      : @691 (gas: 3)\n 47175: a0 = 0\n 47177: a1 = 0\n 47179: ra = 582, jump @0\n      : @692 [@dyn 291] (gas: 7)\n 47186: i32 a1 = a0 + 0\n 47188: a0 = 0x1\n 47191: a2 = 0\n 47193: ecalli 14 // 'seal_return'\n 47195: i32 a0 = a0 + 0\n 47197: ra = 0x248\n 47201: jump @0\n      : @693 (gas: 2)\n 47205: i32 a0 = a0 + 0\n 47207: ra = 584, jump @0\n      : @694 [@dyn 292] (gas: 6)\n 47214: i32 a1 = a0 + 0\n 47216: a0 = 0\n 47218: a2 = 0\n 47220: ra = 0x24a\n 47224: ecalli 14 // 'seal_return'\n 47226: fallthrough\n      : @695 [@dyn 293] (gas: 42)\n 47227: sp = sp + 0xfffffffffffffee0\n 47231: u64 [sp + 0x118] = ra\n 47235: u64 [sp + 0x110] = s0\n 47239: u64 [sp + 0x108] = s1\n 47243: s0 = sp + 0x120\n 47247: sp = sp & 0xffffffffffffffe0\n 47250: t2 = a1\n 47252: t0 = u64 [a2 + 0x8]\n 47255: ra = u64 [a1 + 0x8]\n 47258: a1 = u64 [a2]\n 47260: s1 = u64 [t2]\n 47262: t1 = u64 [a2 + 0x10]\n 47265: a4 = t0 ^ ra\n 47268: a3 = t0 <u ra\n 47271: a5 = a1 <u s1\n 47274: a3 = a5 if a4 == 0\n 47277: a4 = t0 - ra\n 47280: a4 = a4 - a5\n 47283: u64 [sp + 0x58] = s1\n 47286: u64 [sp + 0x40] = a1\n 47289: a5 = a1 - s1\n 47292: a5 = a5 <u 0x20\n 47295: a5 = a5 ^ 0x1\n 47298: a1 = u64 [t2 + 0x10]\n 47301: s1 = a4 >u 0\n 47303: a5 = s1 if a4 != 0\n 47306: a4 = u64 [a2 + 0x18]\n 47309: s1 = u64 [t2 + 0x18]\n 47312: a2 = t1 - a1\n 47315: t2 = a2 - a3\n 47318: a2 = a2 <u a3\n 47321: a3 = t1 <u a1\n 47324: u64 [sp + 0x30] = a4\n 47327: a4 = a4 - s1\n 47330: a4 = a4 - a3\n 47333: a4 = a4 - a2\n 47336: a2 = a4 >s 0\n 47338: a3 = t2 >u 0\n 47340: a3 = a2 if a4 != 0\n 47343: a2 = t2 | a4\n 47346: a5 = a3 if a2 != 0\n 47349: jump @702 if a5 == 0\n      : @696 (gas: 15)\n 47353: u64 [sp + 0x18] = a0\n 47356: u64 [sp + 0x48] = t1\n 47359: u64 [sp + 0x50] = t0\n 47362: a0 = u64 [sp + 0x58]\n 47365: a0 = a0 | a1\n 47368: u64 [sp + 0x38] = ra\n 47371: u64 [sp + 0x20] = s1\n 47374: a2 = ra | s1\n 47377: a0 = a0 | a2\n 47380: a0 = a0 >> 0x20\n 47383: u64 [sp + 0x28] = a1\n 47386: a1 = a1 | a2\n 47389: a1 = a1 << 0x20\n 47392: a0 = a0 | a1\n 47395: jump @701 if a0 != 0\n      : @697 (gas: 4)\n 47399: a1 = i32 [sp + 0x58]\n 47402: i32 a0 = sp + 0xe0\n 47406: ecalli 3 // 'call_data_load'\n 47408: fallthrough\n      : @698 (gas: 7)\n 47409: t0 = u64 [sp + 0xf8]\n 47413: a1 = u64 [sp + 0xf0]\n 47417: a2 = u64 [sp + 0xe8]\n 47421: a3 = a1 | t0\n 47424: a4 = a2 <u 0x1\n 47427: a4 = 0 if a3 != 0\n 47429: jump @702 if a4 == 0\n      : @699 (gas: 35)\n 47433: a3 = u64 [sp + 0xe0]\n 47437: a4 = u64 [sp + 0x58]\n 47440: a4 = a4 + a3\n 47443: a3 = a4 <u a3\n 47446: a5 = u64 [sp + 0x38]\n 47449: a5 = a5 + a2\n 47452: a5 = a5 + a3\n 47455: a0 = a5 ^ a2\n 47458: a2 = a5 <u a2\n 47461: a2 = a3 if a0 == 0\n 47464: a0 = u64 [sp + 0x28]\n 47467: a0 = a0 + a1\n 47470: a2 = a2 + a0\n 47473: a3 = a2 <u a0\n 47476: a0 = a0 <u a1\n 47479: a1 = u64 [sp + 0x20]\n 47482: t0 = t0 + a1\n 47485: a0 = a0 + t0\n 47488: a3 = a3 + a0\n 47491: a0 = u64 [sp + 0x40]\n 47494: u64 [sp + 0x60] = a0\n 47497: a0 = u64 [sp + 0x50]\n 47500: u64 [sp + 0x68] = a0\n 47503: u64 [sp + 0x80] = a4\n 47507: a0 = u64 [sp + 0x48]\n 47510: u64 [sp + 0x70] = a0\n 47513: a0 = u64 [sp + 0x30]\n 47516: u64 [sp + 0x78] = a0\n 47519: u64 [sp + 0x88] = a5\n 47523: u64 [sp + 0x90] = a2\n 47527: a0 = sp + 0xa0\n 47531: a1 = sp + 0x80\n 47535: a2 = sp + 0x60\n 47538: u64 [sp + 0x98] = a3\n 47542: ra = 588, jump @446\n      : @700 [@dyn 294] (gas: 23)\n 47548: t0 = u64 [sp + 0xa8]\n 47552: t1 = u64 [sp + 0xa0]\n 47556: a2 = u64 [sp + 0xb8]\n 47560: a3 = u64 [sp + 0xb0]\n 47564: a4 = u64 [sp + 0xd0]\n 47568: a5 = u64 [sp + 0xd8]\n 47572: a0 = u64 [sp + 0xc0]\n 47576: a1 = u64 [sp + 0xc8]\n 47580: s1 = u64 [sp + 0x18]\n 47583: u64 [s1 + 0x30] = a4\n 47586: u64 [s1 + 0x38] = a5\n 47589: u64 [s1 + 0x20] = a0\n 47592: u64 [s1 + 0x28] = a1\n 47595: u64 [s1 + 0x10] = a3\n 47598: u64 [s1 + 0x18] = a2\n 47601: u64 [s1] = t1\n 47603: u64 [s1 + 0x8] = t0\n 47606: sp = s0 + 0xfffffffffffffee0\n 47610: ra = u64 [sp + 0x118]\n 47614: s0 = u64 [sp + 0x110]\n 47618: s1 = u64 [sp + 0x108]\n 47622: sp = sp + 0x120\n 47626: ret\n      : @701 (gas: 1)\n 47628: trap\n      : @702 (gas: 3)\n 47629: a0 = 0\n 47631: a1 = 0\n 47633: ra = 590, jump @0\n      : @703 [@dyn 295] (gas: 6)\n 47640: i32 a1 = a0 + 0\n 47642: a0 = 0x1\n 47645: a2 = 0\n 47647: ra = 0x250\n 47651: ecalli 14 // 'seal_return'\n 47653: fallthrough\n      : @704 [@dyn 296] (gas: 12)\n 47654: sp = sp + 0xffffffffffffff00\n 47658: u64 [sp + 0xf8] = ra\n 47662: u64 [sp + 0xf0] = s0\n 47666: s0 = sp + 0x100\n 47670: sp = sp & 0xffffffffffffffe0\n 47673: u64 [sp + 216] = 0\n 47677: u64 [sp + 208] = 0\n 47681: u64 [sp + 200] = 0\n 47685: u64 [sp + 192] = 0\n 47689: i32 a0 = sp + 0xc0\n 47693: ecalli 17 // 'value_transferred'\n 47695: fallthrough\n      : @705 (gas: 8)\n 47696: a0 = u64 [sp + 0xd0]\n 47700: a1 = u64 [sp + 0xd8]\n 47704: a2 = u64 [sp + 0xc8]\n 47708: a3 = u64 [sp + 0xc0]\n 47712: a1 = a1 | a2\n 47715: a0 = a0 | a3\n 47718: a0 = a0 | a1\n 47721: jump @711 if a0 != 0\n      : @706 (gas: 13)\n 47725: a0 = u32 [0x20078]\n 47730: u64 [sp + 88] = 0\n 47733: u64 [sp + 80] = 0\n 47736: u64 [sp + 72] = 0\n 47739: u64 [sp + 0x40] = a0\n 47742: u64 [sp + 120] = 0\n 47745: u64 [sp + 112] = 0\n 47748: u64 [sp + 96] = 0x4\n 47752: a0 = sp + 0x80\n 47756: a1 = sp + 0x60\n 47759: a2 = sp + 0x40\n 47762: u64 [sp + 104] = 0\n 47765: ra = 594, jump @695\n      : @707 [@dyn 297] (gas: 19)\n 47771: t0 = u64 [sp + 0x80]\n 47775: t1 = u64 [sp + 0x88]\n 47779: a1 = u64 [sp + 0x90]\n 47783: a3 = u64 [sp + 0x98]\n 47787: a4 = u64 [sp + 0xa0]\n 47791: a5 = u64 [sp + 0xa8]\n 47795: a2 = u64 [sp + 0xb0]\n 47799: a0 = u64 [sp + 0xb8]\n 47803: u64 [sp + 0x18] = a0\n 47806: u64 [sp + 0x10] = a2\n 47809: u64 [sp + 0x8] = a5\n 47812: u64 [sp] = a4\n 47814: u64 [sp + 0x38] = a3\n 47817: u64 [sp + 0x30] = a1\n 47820: u64 [sp + 0x28] = t1\n 47823: a0 = sp + 0x20\n 47826: a1 = sp\n 47828: u64 [sp + 0x20] = t0\n 47831: ra = 596, jump @1284\n      : @708 [@dyn 298] (gas: 3)\n 47838: a0 = 0x40\n 47841: a1 = 0x20\n 47844: ra = 598, jump @0\n      : @709 [@dyn 299] (gas: 100)\n 47851: a1 = u8 [a0 + 0x11]\n 47854: a2 = u8 [a0 + 0x10]\n 47857: a3 = u8 [a0 + 0x12]\n 47860: a4 = u8 [a0 + 0x13]\n 47863: a1 = a1 << 0x8\n 47866: a1 = a1 | a2\n 47869: a3 = a3 << 0x10\n 47872: a4 = a4 << 0x18\n 47875: a3 = a3 | a4\n 47878: a1 = a1 | a3\n 47881: a2 = u8 [a0 + 0x15]\n 47884: a3 = u8 [a0 + 0x14]\n 47887: a4 = u8 [a0 + 0x16]\n 47890: a5 = u8 [a0 + 0x17]\n 47893: a2 = a2 << 0x8\n 47896: a2 = a2 | a3\n 47899: a4 = a4 << 0x10\n 47902: a5 = a5 << 0x18\n 47905: a4 = a4 | a5\n 47908: a2 = a2 | a4\n 47911: a2 = a2 << 0x20\n 47914: t0 = a2 | a1\n 47917: a2 = u8 [a0 + 0x1]\n 47920: a3 = u8 [a0]\n 47922: a4 = u8 [a0 + 0x2]\n 47925: a5 = u8 [a0 + 0x3]\n 47928: a2 = a2 << 0x8\n 47931: a2 = a2 | a3\n 47934: a4 = a4 << 0x10\n 47937: a5 = a5 << 0x18\n 47940: a4 = a4 | a5\n 47943: a2 = a2 | a4\n 47946: a3 = u8 [a0 + 0x5]\n 47949: a4 = u8 [a0 + 0x4]\n 47952: a5 = u8 [a0 + 0x6]\n 47955: a1 = u8 [a0 + 0x7]\n 47958: a3 = a3 << 0x8\n 47961: a3 = a3 | a4\n 47964: a5 = a5 << 0x10\n 47967: a1 = a1 << 0x18\n 47970: a1 = a1 | a5\n 47973: a1 = a1 | a3\n 47976: a1 = a1 << 0x20\n 47979: t1 = a1 | a2\n 47982: a1 = u8 [a0 + 0x19]\n 47985: a3 = u8 [a0 + 0x18]\n 47988: a4 = u8 [a0 + 0x1a]\n 47991: a5 = u8 [a0 + 0x1b]\n 47994: a1 = a1 << 0x8\n 47997: a1 = a1 | a3\n 48000: a4 = a4 << 0x10\n 48003: a5 = a5 << 0x18\n 48006: a4 = a4 | a5\n 48009: a1 = a1 | a4\n 48012: a3 = u8 [a0 + 0x1d]\n 48015: a4 = u8 [a0 + 0x1c]\n 48018: a5 = u8 [a0 + 0x1e]\n 48021: a2 = u8 [a0 + 0x1f]\n 48024: a3 = a3 << 0x8\n 48027: a3 = a3 | a4\n 48030: a5 = a5 << 0x10\n 48033: a2 = a2 << 0x18\n 48036: a2 = a2 | a5\n 48039: a2 = a2 | a3\n 48042: a2 = a2 << 0x20\n 48045: a3 = a2 | a1\n 48048: a1 = u8 [a0 + 0x9]\n 48051: a2 = u8 [a0 + 0x8]\n 48054: a4 = u8 [a0 + 0xa]\n 48057: a5 = u8 [a0 + 0xb]\n 48060: a1 = a1 << 0x8\n 48063: a1 = a1 | a2\n 48066: a4 = a4 << 0x10\n 48069: a5 = a5 << 0x18\n 48072: a4 = a4 | a5\n 48075: a1 = a1 | a4\n 48078: a2 = u8 [a0 + 0xd]\n 48081: a4 = u8 [a0 + 0xc]\n 48084: a5 = u8 [a0 + 0xe]\n 48087: a0 = u8 [a0 + 0xf]\n 48090: a2 = a2 << 0x8\n 48093: a2 = a2 | a4\n 48096: a5 = a5 << 0x10\n 48099: a0 = a0 << 0x18\n 48102: a0 = a0 | a5\n 48105: a0 = a0 | a2\n 48108: a0 = a0 << 0x20\n 48111: a0 = a0 | a1\n 48114: a1 = reverse a0\n 48116: a0 = reverse a3\n 48118: a2 = reverse t1\n 48120: a3 = reverse t0\n 48122: a2 = a2 | a3\n 48125: a3 = a0 | a1\n 48128: a3 = a3 | a2\n 48131: a3 = a3 >> 0x20\n 48134: a1 = a1 | a2\n 48137: a1 = a1 << 0x20\n 48140: a1 = a1 | a3\n 48143: jump @713 if a1 == 0\n      : @710 (gas: 1)\n 48146: trap\n      : @711 (gas: 3)\n 48147: a0 = 0\n 48149: a1 = 0\n 48151: ra = 600, jump @0\n      : @712 [@dyn 300] (gas: 7)\n 48158: i32 a1 = a0 + 0\n 48160: a0 = 0x1\n 48163: a2 = 0\n 48165: ecalli 14 // 'seal_return'\n 48167: i32 a0 = a0 + 0\n 48169: ra = 0x25a\n 48173: jump @0\n      : @713 (gas: 2)\n 48177: i32 a0 = a0 + 0\n 48179: ra = 602, jump @0\n      : @714 [@dyn 301] (gas: 6)\n 48186: i32 a1 = a0 + 0\n 48188: a0 = 0\n 48190: a2 = 0\n 48192: ra = 0x25c\n 48196: ecalli 14 // 'seal_return'\n 48198: fallthrough\n      : @715 [@dyn 302] (gas: 12)\n 48199: sp = sp + 0xffffffffffffff00\n 48203: u64 [sp + 0xf8] = ra\n 48207: u64 [sp + 0xf0] = s0\n 48211: s0 = sp + 0x100\n 48215: sp = sp & 0xffffffffffffffe0\n 48218: u64 [sp + 216] = 0\n 48222: u64 [sp + 208] = 0\n 48226: u64 [sp + 200] = 0\n 48230: u64 [sp + 192] = 0\n 48234: i32 a0 = sp + 0xc0\n 48238: ecalli 17 // 'value_transferred'\n 48240: fallthrough\n      : @716 (gas: 8)\n 48241: a0 = u64 [sp + 0xd0]\n 48245: a1 = u64 [sp + 0xd8]\n 48249: a2 = u64 [sp + 0xc8]\n 48253: a3 = u64 [sp + 0xc0]\n 48257: a1 = a1 | a2\n 48260: a0 = a0 | a3\n 48263: a0 = a0 | a1\n 48266: jump @722 if a0 != 0\n      : @717 (gas: 13)\n 48270: a0 = u32 [0x20078]\n 48275: u64 [sp + 88] = 0\n 48278: u64 [sp + 80] = 0\n 48281: u64 [sp + 72] = 0\n 48284: u64 [sp + 0x40] = a0\n 48287: u64 [sp + 120] = 0\n 48290: u64 [sp + 112] = 0\n 48293: u64 [sp + 96] = 0x4\n 48297: a0 = sp + 0x80\n 48301: a1 = sp + 0x60\n 48304: a2 = sp + 0x40\n 48307: u64 [sp + 104] = 0\n 48310: ra = 606, jump @695\n      : @718 [@dyn 303] (gas: 44)\n 48316: t0 = u64 [sp + 0x80]\n 48320: t1 = u64 [sp + 0x88]\n 48324: a1 = u64 [sp + 0x90]\n 48328: a3 = u64 [sp + 0x98]\n 48332: a4 = u64 [sp + 0xa0]\n 48336: a5 = u64 [sp + 0xa8]\n 48340: a2 = u64 [sp + 0xb0]\n 48344: a0 = u64 [sp + 0xb8]\n 48348: u64 [sp + 0x18] = a0\n 48351: u64 [sp + 0x10] = a2\n 48354: u64 [sp + 0x8] = a5\n 48357: u64 [sp] = a4\n 48359: u64 [sp + 0x38] = a3\n 48362: u64 [sp + 0x30] = a1\n 48365: u64 [sp + 0x28] = t1\n 48368: a0 = sp + 0x20\n 48371: a1 = sp\n 48373: u64 [sp + 0x20] = t0\n 48376: ra = 0x260\n 48380: sp = sp + 0xfffffffffffffec0\n 48384: u64 [sp + 0x138] = ra\n 48388: u64 [sp + 0x130] = s0\n 48392: u64 [sp + 0x128] = s1\n 48396: s0 = sp + 0x140\n 48400: sp = sp & 0xffffffffffffffe0\n 48403: a2 = u64 [a1 + 0x18]\n 48406: u64 [sp + 0x50] = a2\n 48409: a2 = u64 [a1 + 0x10]\n 48412: u64 [sp + 0x48] = a2\n 48415: a2 = u64 [a1 + 0x8]\n 48418: u64 [sp + 0x38] = a2\n 48421: a1 = u64 [a1]\n 48423: u64 [sp + 0x28] = a1\n 48426: a1 = u64 [a0 + 0x18]\n 48429: u64 [sp + 0x58] = a1\n 48432: a1 = u64 [a0 + 0x10]\n 48435: u64 [sp + 0x40] = a1\n 48438: a1 = u64 [a0 + 0x8]\n 48441: u64 [sp + 0x30] = a1\n 48444: a0 = u64 [a0]\n 48446: u64 [sp + 0x20] = a0\n 48449: i32 a0 = sp + 0x100\n 48453: ecalli 5 // 'caller'\n 48455: jump @1347\n      : @719 [@dyn 304] (gas: 3)\n 48459: a0 = 0x40\n 48462: a1 = 0x20\n 48465: ra = 610, jump @0\n      : @720 [@dyn 305] (gas: 100)\n 48472: a1 = u8 [a0 + 0x11]\n 48475: a2 = u8 [a0 + 0x10]\n 48478: a3 = u8 [a0 + 0x12]\n 48481: a4 = u8 [a0 + 0x13]\n 48484: a1 = a1 << 0x8\n 48487: a1 = a1 | a2\n 48490: a3 = a3 << 0x10\n 48493: a4 = a4 << 0x18\n 48496: a3 = a3 | a4\n 48499: a1 = a1 | a3\n 48502: a2 = u8 [a0 + 0x15]\n 48505: a3 = u8 [a0 + 0x14]\n 48508: a4 = u8 [a0 + 0x16]\n 48511: a5 = u8 [a0 + 0x17]\n 48514: a2 = a2 << 0x8\n 48517: a2 = a2 | a3\n 48520: a4 = a4 << 0x10\n 48523: a5 = a5 << 0x18\n 48526: a4 = a4 | a5\n 48529: a2 = a2 | a4\n 48532: a2 = a2 << 0x20\n 48535: t0 = a2 | a1\n 48538: a2 = u8 [a0 + 0x1]\n 48541: a3 = u8 [a0]\n 48543: a4 = u8 [a0 + 0x2]\n 48546: a5 = u8 [a0 + 0x3]\n 48549: a2 = a2 << 0x8\n 48552: a2 = a2 | a3\n 48555: a4 = a4 << 0x10\n 48558: a5 = a5 << 0x18\n 48561: a4 = a4 | a5\n 48564: a2 = a2 | a4\n 48567: a3 = u8 [a0 + 0x5]\n 48570: a4 = u8 [a0 + 0x4]\n 48573: a5 = u8 [a0 + 0x6]\n 48576: a1 = u8 [a0 + 0x7]\n 48579: a3 = a3 << 0x8\n 48582: a3 = a3 | a4\n 48585: a5 = a5 << 0x10\n 48588: a1 = a1 << 0x18\n 48591: a1 = a1 | a5\n 48594: a1 = a1 | a3\n 48597: a1 = a1 << 0x20\n 48600: t1 = a1 | a2\n 48603: a1 = u8 [a0 + 0x19]\n 48606: a3 = u8 [a0 + 0x18]\n 48609: a4 = u8 [a0 + 0x1a]\n 48612: a5 = u8 [a0 + 0x1b]\n 48615: a1 = a1 << 0x8\n 48618: a1 = a1 | a3\n 48621: a4 = a4 << 0x10\n 48624: a5 = a5 << 0x18\n 48627: a4 = a4 | a5\n 48630: a1 = a1 | a4\n 48633: a3 = u8 [a0 + 0x1d]\n 48636: a4 = u8 [a0 + 0x1c]\n 48639: a5 = u8 [a0 + 0x1e]\n 48642: a2 = u8 [a0 + 0x1f]\n 48645: a3 = a3 << 0x8\n 48648: a3 = a3 | a4\n 48651: a5 = a5 << 0x10\n 48654: a2 = a2 << 0x18\n 48657: a2 = a2 | a5\n 48660: a2 = a2 | a3\n 48663: a2 = a2 << 0x20\n 48666: a3 = a2 | a1\n 48669: a1 = u8 [a0 + 0x9]\n 48672: a2 = u8 [a0 + 0x8]\n 48675: a4 = u8 [a0 + 0xa]\n 48678: a5 = u8 [a0 + 0xb]\n 48681: a1 = a1 << 0x8\n 48684: a1 = a1 | a2\n 48687: a4 = a4 << 0x10\n 48690: a5 = a5 << 0x18\n 48693: a4 = a4 | a5\n 48696: a1 = a1 | a4\n 48699: a2 = u8 [a0 + 0xd]\n 48702: a4 = u8 [a0 + 0xc]\n 48705: a5 = u8 [a0 + 0xe]\n 48708: a0 = u8 [a0 + 0xf]\n 48711: a2 = a2 << 0x8\n 48714: a2 = a2 | a4\n 48717: a5 = a5 << 0x10\n 48720: a0 = a0 << 0x18\n 48723: a0 = a0 | a5\n 48726: a0 = a0 | a2\n 48729: a0 = a0 << 0x20\n 48732: a0 = a0 | a1\n 48735: a1 = reverse a0\n 48737: a0 = reverse a3\n 48739: a2 = reverse t1\n 48741: a3 = reverse t0\n 48743: a2 = a2 | a3\n 48746: a3 = a0 | a1\n 48749: a3 = a3 | a2\n 48752: a3 = a3 >> 0x20\n 48755: a1 = a1 | a2\n 48758: a1 = a1 << 0x20\n 48761: a1 = a1 | a3\n 48764: jump @724 if a1 == 0\n      : @721 (gas: 1)\n 48767: trap\n      : @722 (gas: 3)\n 48768: a0 = 0\n 48770: a1 = 0\n 48772: ra = 612, jump @0\n      : @723 [@dyn 306] (gas: 7)\n 48779: i32 a1 = a0 + 0\n 48781: a0 = 0x1\n 48784: a2 = 0\n 48786: ecalli 14 // 'seal_return'\n 48788: i32 a0 = a0 + 0\n 48790: ra = 0x266\n 48794: jump @0\n      : @724 (gas: 2)\n 48798: i32 a0 = a0 + 0\n 48800: ra = 614, jump @0\n      : @725 [@dyn 307] (gas: 6)\n 48807: i32 a1 = a0 + 0\n 48809: a0 = 0\n 48811: a2 = 0\n 48813: ra = 0x268\n 48817: ecalli 14 // 'seal_return'\n 48819: fallthrough\n      : @726 [@dyn 308] (gas: 194)\n 48820: sp = sp + 0xffffffffffffffa0\n 48823: u64 [sp + 0x58] = ra\n 48826: u64 [sp + 0x50] = s0\n 48829: u64 [sp + 0x48] = s1\n 48832: u64 [sp] = a0\n 48834: t1 = u64 [a1]\n 48836: ra = u64 [a1 + 0x8]\n 48839: a4 = u64 [a1 + 0x10]\n 48842: a1 = u64 [a1 + 0x18]\n 48845: t0 = u64 [a2]\n 48847: a3 = u64 [a2 + 0x8]\n 48850: t2 = u64 [a2 + 0x18]\n 48853: a2 = u64 [a2 + 0x10]\n 48856: s0 = t0 >> 0x3d\n 48859: s1 = a3 << 0x3\n 48862: s0 = s0 | s1\n 48865: a3 = a3 >> 0x3d\n 48868: s1 = a2 << 0x3\n 48871: a3 = a3 | s1\n 48874: a2 = a2 >> 0x3d\n 48877: t2 = t2 << 0x3\n 48880: s1 = t2 | a2\n 48883: t2 = t0 << 0x3\n 48886: a2 = s1 >u 0\n 48888: a5 = a3 >u 0\n 48890: a5 = a2 if s1 != 0\n 48893: a0 = s0 >u 0\n 48895: a2 = t2 <u 0x100\n 48899: t2 = a2 ^ 0x1\n 48902: t2 = a0 if s0 != 0\n 48905: a3 = a3 | s1\n 48908: t2 = a5 if a3 != 0\n 48911: u8 [sp + 71] = 0\n 48914: u8 [sp + 70] = 0\n 48917: u8 [sp + 69] = 0\n 48920: u8 [sp + 68] = 0\n 48923: u8 [sp + 67] = 0\n 48926: u8 [sp + 66] = 0\n 48929: u8 [sp + 65] = 0\n 48932: u8 [sp + 64] = 0\n 48935: u8 [sp + 63] = 0\n 48938: u8 [sp + 62] = 0\n 48941: u8 [sp + 61] = 0\n 48944: u8 [sp + 60] = 0\n 48947: u8 [sp + 59] = 0\n 48950: u8 [sp + 58] = 0\n 48953: u8 [sp + 57] = 0\n 48956: u8 [sp + 56] = 0\n 48959: u8 [sp + 55] = 0\n 48962: u8 [sp + 54] = 0\n 48965: u8 [sp + 53] = 0\n 48968: u8 [sp + 52] = 0\n 48971: u8 [sp + 51] = 0\n 48974: u8 [sp + 50] = 0\n 48977: u8 [sp + 49] = 0\n 48980: u8 [sp + 48] = 0\n 48983: u8 [sp + 47] = 0\n 48986: u8 [sp + 46] = 0\n 48989: u8 [sp + 45] = 0\n 48992: u8 [sp + 44] = 0\n 48995: u8 [sp + 43] = 0\n 48998: u8 [sp + 42] = 0\n 49001: u8 [sp + 41] = 0\n 49004: u8 [sp + 40] = 0\n 49007: u8 [sp + 0x20] = a1\n 49010: u8 [sp + 0x18] = a4\n 49013: u8 [sp + 0x10] = ra\n 49016: u8 [sp + 0x8] = t1\n 49019: a0 = a1 >> 0x38\n 49022: u8 [sp + 0x27] = a0\n 49025: a0 = a1 >> 0x30\n 49028: u8 [sp + 0x26] = a0\n 49031: a0 = a1 >> 0x28\n 49034: u8 [sp + 0x25] = a0\n 49037: a0 = a1 >> 0x20\n 49040: u8 [sp + 0x24] = a0\n 49043: a0 = a1 >> 0x18\n 49046: u8 [sp + 0x23] = a0\n 49049: a0 = a1 >> 0x10\n 49052: u8 [sp + 0x22] = a0\n 49055: a1 = a1 >> 0x8\n 49058: u8 [sp + 0x21] = a1\n 49061: a0 = a4 >> 0x38\n 49064: u8 [sp + 0x1f] = a0\n 49067: a0 = a4 >> 0x30\n 49070: u8 [sp + 0x1e] = a0\n 49073: a0 = a4 >> 0x28\n 49076: u8 [sp + 0x1d] = a0\n 49079: a0 = a4 >> 0x20\n 49082: u8 [sp + 0x1c] = a0\n 49085: a0 = a4 >> 0x18\n 49088: u8 [sp + 0x1b] = a0\n 49091: a0 = a4 >> 0x10\n 49094: u8 [sp + 0x1a] = a0\n 49097: a4 = a4 >> 0x8\n 49100: u8 [sp + 0x19] = a4\n 49103: a0 = ra >> 0x38\n 49106: u8 [sp + 0x17] = a0\n 49109: a0 = ra >> 0x30\n 49112: u8 [sp + 0x16] = a0\n 49115: a0 = ra >> 0x28\n 49118: u8 [sp + 0x15] = a0\n 49121: a0 = ra >> 0x20\n 49124: u8 [sp + 0x14] = a0\n 49127: a0 = ra >> 0x18\n 49130: u8 [sp + 0x13] = a0\n 49133: a0 = ra >> 0x10\n 49136: u8 [sp + 0x12] = a0\n 49139: a0 = ra >> 0x8\n 49142: u8 [sp + 0x11] = a0\n 49145: a0 = t1 >> 0x38\n 49148: u8 [sp + 0xf] = a0\n 49151: a0 = t1 >> 0x30\n 49154: u8 [sp + 0xe] = a0\n 49157: a0 = t1 >> 0x28\n 49160: u8 [sp + 0xd] = a0\n 49163: a0 = t1 >> 0x20\n 49166: u8 [sp + 0xc] = a0\n 49169: a0 = t1 >> 0x18\n 49172: u8 [sp + 0xb] = a0\n 49175: a0 = t1 >> 0x10\n 49178: u8 [sp + 0xa] = a0\n 49181: a0 = t1 >> 0x8\n 49184: u8 [sp + 0x9] = a0\n 49187: a1 = t0 & 0x1f\n 49190: a0 = sp + 0x8\n 49193: a1 = a1 + a0\n 49196: a0 = u8 [a1 + 0x9]\n 49199: a2 = u8 [a1 + 0x8]\n 49202: a3 = u8 [a1 + 0xa]\n 49205: a4 = u8 [a1 + 0xb]\n 49208: a0 = a0 << 0x8\n 49211: a0 = a0 | a2\n 49214: a3 = a3 << 0x10\n 49217: a4 = a4 << 0x18\n 49220: a3 = a3 | a4\n 49223: a0 = a0 | a3\n 49226: a2 = u8 [a1 + 0xd]\n 49229: a3 = u8 [a1 + 0xc]\n 49232: a4 = u8 [a1 + 0xe]\n 49235: a5 = u8 [a1 + 0xf]\n 49238: a2 = a2 << 0x8\n 49241: a2 = a2 | a3\n 49244: a4 = a4 << 0x10\n 49247: a5 = a5 << 0x18\n 49250: a4 = a4 | a5\n 49253: a2 = a2 | a4\n 49256: a2 = a2 << 0x20\n 49259: a3 = a2 | a0\n 49262: a0 = u8 [a1 + 0x1]\n 49265: a2 = u8 [a1]\n 49267: a4 = u8 [a1 + 0x2]\n 49270: a5 = u8 [a1 + 0x3]\n 49273: a0 = a0 << 0x8\n 49276: a0 = a0 | a2\n 49279: a4 = a4 << 0x10\n 49282: a5 = a5 << 0x18\n 49285: a4 = a4 | a5\n 49288: a0 = a0 | a4\n 49291: a2 = u8 [a1 + 0x5]\n 49294: a4 = u8 [a1 + 0x4]\n 49297: a5 = u8 [a1 + 0x6]\n 49300: s1 = u8 [a1 + 0x7]\n 49303: a2 = a2 << 0x8\n 49306: a2 = a2 | a4\n 49309: a5 = a5 << 0x10\n 49312: s1 = s1 << 0x18\n 49315: a5 = a5 | s1\n 49318: a2 = a2 | a5\n 49321: a2 = a2 << 0x20\n 49324: a0 = a0 | a2\n 49327: a2 = u8 [a1 + 0x11]\n 49330: a4 = u8 [a1 + 0x10]\n 49333: a5 = u8 [a1 + 0x12]\n 49336: a1 = u8 [a1 + 0x13]\n 49339: a2 = a2 << 0x8\n 49342: a2 = a2 | a4\n 49345: a5 = a5 << 0x10\n 49348: a1 = a1 << 0x18\n 49351: a1 = a1 | a5\n 49354: a1 = a1 | a2\n 49357: a0 = 0 if t2 != 0\n 49359: a3 = 0 if t2 != 0\n 49361: a1 = 0 if t2 != 0\n 49363: a2 = u64 [sp]\n 49365: u64 [a2 + 24] = 0\n 49368: u64 [a2 + 0x10] = a1\n 49371: u64 [a2 + 0x8] = a3\n 49374: u64 [a2] = a0\n 49376: ra = u64 [sp + 0x58]\n 49379: s0 = u64 [sp + 0x50]\n 49382: s1 = u64 [sp + 0x48]\n 49385: sp = sp + 0x60\n 49388: ret\n      : @727 (gas: 8)\n 49390: a0 = u64 [sp + 0x30]\n 49393: a1 = u64 [sp + 0x38]\n 49396: a2 = u64 [sp + 0x28]\n 49399: a3 = u64 [sp + 0x20]\n 49402: a1 = a1 | a2\n 49405: a0 = a0 | a3\n 49408: a0 = a0 | a1\n 49411: jump @732 if a0 != 0\n      : @728 (gas: 2)\n 49415: a0 = i32 [0x20078]\n 49420: jump @732 if a0 <=u 3\n      : @729 (gas: 24)\n 49425: u64 [sp + 88] = 0\n 49428: u64 [sp + 80] = 0\n 49431: u64 [sp + 72] = 0\n 49434: u64 [sp + 64] = 0x2\n 49438: u64 [sp + 120] = 0\n 49441: u64 [sp + 112] = 0\n 49444: u64 [sp + 104] = 0\n 49447: u64 [sp + 96] = 0\n 49450: u32 [sp + 128] = 0x20\n 49455: i32 a1 = sp + 0x40\n 49458: i32 a3 = sp + 0x60\n 49461: i32 a4 = sp + 0x80\n 49465: a2 = 0xffffffffffffffff\n 49468: a0 = 0\n 49470: ecalli 8 // 'get_storage'\n 49472: a0 = u64 [sp + 0x70]\n 49475: u64 [sp + 0x8] = a0\n 49478: a0 = u64 [sp + 0x68]\n 49481: u64 [sp + 0x10] = a0\n 49484: a0 = u64 [sp + 0x60]\n 49487: u64 [sp + 0x18] = a0\n 49490: a0 = 0x40\n 49493: a1 = 0x20\n 49496: ra = 618, jump @0\n      : @730 [@dyn 309] (gas: 100)\n 49503: a1 = u8 [a0 + 0x11]\n 49506: a2 = u8 [a0 + 0x10]\n 49509: a3 = u8 [a0 + 0x12]\n 49512: a4 = u8 [a0 + 0x13]\n 49515: a1 = a1 << 0x8\n 49518: a1 = a1 | a2\n 49521: a3 = a3 << 0x10\n 49524: a4 = a4 << 0x18\n 49527: a3 = a3 | a4\n 49530: a1 = a1 | a3\n 49533: a2 = u8 [a0 + 0x15]\n 49536: a3 = u8 [a0 + 0x14]\n 49539: a4 = u8 [a0 + 0x16]\n 49542: a5 = u8 [a0 + 0x17]\n 49545: a2 = a2 << 0x8\n 49548: a2 = a2 | a3\n 49551: a4 = a4 << 0x10\n 49554: a5 = a5 << 0x18\n 49557: a4 = a4 | a5\n 49560: a2 = a2 | a4\n 49563: a2 = a2 << 0x20\n 49566: t0 = a2 | a1\n 49569: a2 = u8 [a0 + 0x1]\n 49572: a3 = u8 [a0]\n 49574: a4 = u8 [a0 + 0x2]\n 49577: a5 = u8 [a0 + 0x3]\n 49580: a2 = a2 << 0x8\n 49583: a2 = a2 | a3\n 49586: a4 = a4 << 0x10\n 49589: a5 = a5 << 0x18\n 49592: a4 = a4 | a5\n 49595: a2 = a2 | a4\n 49598: a3 = u8 [a0 + 0x5]\n 49601: a4 = u8 [a0 + 0x4]\n 49604: a5 = u8 [a0 + 0x6]\n 49607: s1 = u8 [a0 + 0x7]\n 49610: a3 = a3 << 0x8\n 49613: a3 = a3 | a4\n 49616: a5 = a5 << 0x10\n 49619: s1 = s1 << 0x18\n 49622: a5 = a5 | s1\n 49625: a3 = a3 | a5\n 49628: a3 = a3 << 0x20\n 49631: a2 = a2 | a3\n 49634: a3 = u8 [a0 + 0x19]\n 49637: a4 = u8 [a0 + 0x18]\n 49640: a5 = u8 [a0 + 0x1a]\n 49643: s1 = u8 [a0 + 0x1b]\n 49646: a3 = a3 << 0x8\n 49649: a3 = a3 | a4\n 49652: a5 = a5 << 0x10\n 49655: s1 = s1 << 0x18\n 49658: a5 = a5 | s1\n 49661: a3 = a3 | a5\n 49664: a4 = u8 [a0 + 0x1d]\n 49667: a5 = u8 [a0 + 0x1c]\n 49670: s1 = u8 [a0 + 0x1e]\n 49673: a1 = u8 [a0 + 0x1f]\n 49676: a4 = a4 << 0x8\n 49679: a4 = a4 | a5\n 49682: s1 = s1 << 0x10\n 49685: a1 = a1 << 0x18\n 49688: a1 = a1 | s1\n 49691: a1 = a1 | a4\n 49694: a1 = a1 << 0x20\n 49697: a3 = a3 | a1\n 49700: a1 = u8 [a0 + 0x9]\n 49703: a4 = u8 [a0 + 0x8]\n 49706: a5 = u8 [a0 + 0xa]\n 49709: s1 = u8 [a0 + 0xb]\n 49712: a1 = a1 << 0x8\n 49715: a1 = a1 | a4\n 49718: a5 = a5 << 0x10\n 49721: s1 = s1 << 0x18\n 49724: a5 = a5 | s1\n 49727: a1 = a1 | a5\n 49730: a4 = u8 [a0 + 0xd]\n 49733: a5 = u8 [a0 + 0xc]\n 49736: s1 = u8 [a0 + 0xe]\n 49739: a0 = u8 [a0 + 0xf]\n 49742: a4 = a4 << 0x8\n 49745: a4 = a4 | a5\n 49748: s1 = s1 << 0x10\n 49751: a0 = a0 << 0x18\n 49754: a0 = a0 | s1\n 49757: a0 = a0 | a4\n 49760: a0 = a0 << 0x20\n 49763: a0 = a0 | a1\n 49766: a1 = reverse a0\n 49768: a0 = reverse a3\n 49770: a2 = reverse a2\n 49772: a3 = reverse t0\n 49774: a2 = a2 | a3\n 49777: a3 = a0 | a1\n 49780: a3 = a3 | a2\n 49783: a3 = a3 >> 0x20\n 49786: a1 = a1 | a2\n 49789: a1 = a1 << 0x20\n 49792: a1 = a1 | a3\n 49795: jump @734 if a1 == 0\n      : @731 (gas: 1)\n 49798: trap\n      : @732 (gas: 3)\n 49799: a0 = 0\n 49801: a1 = 0\n 49803: ra = 620, jump @0\n      : @733 [@dyn 310] (gas: 5)\n 49810: i32 a1 = a0 + 0\n 49812: a0 = 0x1\n 49815: a2 = 0\n 49817: ecalli 14 // 'seal_return'\n 49819: fallthrough\n      : @734 (gas: 7)\n 49820: a1 = u64 [sp + 0x8]\n 49823: a1 = a1 << 0x20\n 49826: s1 = a1 >> 0x20\n 49829: i32 a0 = a0 + 0\n 49831: u64 [sp + 0x8] = a0\n 49834: a1 = 0x20\n 49837: ra = 622, jump @0\n      : @735 [@dyn 311] (gas: 58)\n 49844: a1 = reverse s1\n 49846: a2 = u64 [sp + 0x10]\n 49849: a2 = reverse a2\n 49851: a3 = u64 [sp + 0x18]\n 49854: a3 = reverse a3\n 49856: a4 = a3 >> 0x38\n 49859: u8 [a0 + 0x1f] = a4\n 49862: a4 = a3 >> 0x30\n 49865: u8 [a0 + 0x1e] = a4\n 49868: a4 = a3 >> 0x28\n 49871: u8 [a0 + 0x1d] = a4\n 49874: a4 = a3 >> 0x20\n 49877: u8 [a0 + 0x1c] = a4\n 49880: a4 = a3 >> 0x18\n 49883: u8 [a0 + 0x1b] = a4\n 49886: a4 = a3 >> 0x10\n 49889: u8 [a0 + 0x1a] = a4\n 49892: a4 = a3 >> 0x8\n 49895: u8 [a0 + 0x19] = a4\n 49898: u8 [a0 + 0x18] = a3\n 49901: u8 [a0 + 0x10] = a2\n 49904: u8 [a0 + 11] = 0\n 49907: u8 [a0 + 10] = 0\n 49910: u8 [a0 + 9] = 0\n 49913: u8 [a0 + 7] = 0\n 49916: u8 [a0 + 6] = 0\n 49919: u8 [a0 + 5] = 0\n 49922: u8 [a0 + 4] = 0\n 49925: u8 [a0 + 3] = 0\n 49928: u8 [a0 + 2] = 0\n 49931: u8 [a0 + 1] = 0\n 49934: u8 [a0 + 0] = 0\n 49936: a3 = a2 >> 0x38\n 49939: u8 [a0 + 0x17] = a3\n 49942: a3 = a2 >> 0x30\n 49945: u8 [a0 + 0x16] = a3\n 49948: a3 = a2 >> 0x28\n 49951: u8 [a0 + 0x15] = a3\n 49954: a3 = a2 >> 0x20\n 49957: u8 [a0 + 0x14] = a3\n 49960: a3 = a2 >> 0x18\n 49963: u8 [a0 + 0x13] = a3\n 49966: a3 = a2 >> 0x10\n 49969: u8 [a0 + 0x12] = a3\n 49972: a2 = a2 >> 0x8\n 49975: u8 [a0 + 0x11] = a2\n 49978: u8 [a0 + 0x8] = a1\n 49981: a2 = a1 >> 0x38\n 49984: u8 [a0 + 0xf] = a2\n 49987: a2 = a1 >> 0x30\n 49990: u8 [a0 + 0xe] = a2\n 49993: a2 = a1 >> 0x28\n 49996: u8 [a0 + 0xd] = a2\n 49999: a1 = a1 >> 0x20\n 50002: u8 [a0 + 0xc] = a1\n 50005: a1 = 0x20\n 50008: a0 = u64 [sp + 0x8]\n 50011: ra = 624, jump @0\n      : @736 [@dyn 312] (gas: 6)\n 50018: i32 a1 = a0 + 0\n 50020: a2 = 0x20\n 50023: a0 = 0\n 50025: ra = 0x272\n 50029: ecalli 14 // 'seal_return'\n 50031: fallthrough\n      : @737 [@dyn 313] (gas: 18)\n 50032: sp = sp + 0xffffffffffffffc8\n 50035: u64 [sp + 0x30] = ra\n 50038: u64 [sp + 0x28] = s0\n 50041: u64 [sp + 0x20] = s1\n 50044: s1 = u64 [a0 + 0x10]\n 50047: a3 = u64 [a0 + 0x18]\n 50050: a1 = u64 [a0 + 0x8]\n 50053: a2 = u64 [a0]\n 50055: u64 [sp + 0x18] = a1\n 50058: u64 [sp + 0x10] = a3\n 50061: a0 = a1 | a3\n 50064: a1 = a2 | s1\n 50067: a1 = a1 | a0\n 50070: a1 = a1 >> 0x20\n 50073: a0 = a0 | s1\n 50076: a0 = a0 << 0x20\n 50079: a0 = a0 | a1\n 50082: jump @742 if a0 != 0\n      : @738 (gas: 6)\n 50086: i32 a0 = a2 + 0\n 50088: a1 = 0x20\n 50091: s0 = 0x20\n 50094: u64 [sp] = a0\n 50096: u64 [sp + 0x8] = a2\n 50099: ra = 628, jump @0\n      : @739 [@dyn 314] (gas: 43)\n 50106: u8 [a0 + 31] = 0x64\n 50110: u8 [a0 + 30] = 0x69\n 50114: u8 [a0 + 29] = 0x76\n 50118: u8 [a0 + 28] = 0x6f\n 50122: u8 [a0 + 27] = 0x72\n 50126: u8 [a0 + 26] = 0x70\n 50130: u8 [a0 + 0x19] = s0\n 50133: a5 = 0x65\n 50136: u8 [a0 + 0x18] = a5\n 50139: u8 [a0 + 23] = 0x68\n 50143: u8 [a0 + 22] = 0x74\n 50147: u8 [a0 + 0x15] = s0\n 50150: u8 [a0 + 20] = 0x74\n 50154: u8 [a0 + 19] = 0x6f\n 50158: u8 [a0 + 18] = 0x6e\n 50162: u8 [a0 + 0x11] = s0\n 50165: u8 [a0 + 16] = 0x73\n 50169: u8 [a0 + 15] = 0x69\n 50173: u8 [a0 + 0xe] = s0\n 50176: u8 [a0 + 13] = 0x72\n 50180: u8 [a0 + 0xc] = a5\n 50183: u8 [a0 + 11] = 0x6c\n 50187: u8 [a0 + 10] = 0x6c\n 50191: u8 [a0 + 9] = 0x61\n 50195: u8 [a0 + 8] = 0x63\n 50199: u8 [a0 + 0x7] = s0\n 50202: s0 = 0x72\n 50205: u8 [a0 + 6] = 0x3a\n 50209: u8 [a0 + 5] = 0x77\n 50213: u8 [a0 + 4] = 0x6f\n 50217: u8 [a0 + 0x3] = s0\n 50220: u8 [a0 + 2] = 0x63\n 50224: u8 [a0 + 1] = 0x73\n 50228: a2 = u64 [sp + 0x10]\n 50231: a2 = a2 | s1\n 50234: a3 = 0xffffffe0\n 50244: a4 = u64 [sp + 0x8]\n 50247: a3 = a4 <u a3\n 50250: a4 = u64 [sp + 0x18]\n 50253: a3 = 0 if a4 != 0\n 50255: a3 = 0 if a2 != 0\n 50257: u8 [a0 + 0] = 0x45\n 50260: jump @742 if a3 == 0\n      : @740 (gas: 4)\n 50264: a0 = u64 [sp]\n 50266: i32 a0 = a0 + 0x20\n 50269: a1 = 0x20\n 50272: ra = 630, jump @0\n      : @741 [@dyn 315] (gas: 38)\n 50279: u8 [a0 + 31] = 0\n 50282: u8 [a0 + 30] = 0\n 50285: u8 [a0 + 29] = 0\n 50288: u8 [a0 + 28] = 0\n 50291: u8 [a0 + 27] = 0\n 50294: u8 [a0 + 26] = 0\n 50297: u8 [a0 + 25] = 0\n 50300: u8 [a0 + 24] = 0\n 50303: u8 [a0 + 23] = 0\n 50306: u8 [a0 + 22] = 0\n 50309: u8 [a0 + 21] = 0\n 50312: u8 [a0 + 20] = 0\n 50315: u8 [a0 + 19] = 0\n 50318: u8 [a0 + 18] = 0\n 50321: u8 [a0 + 17] = 0\n 50324: u8 [a0 + 16] = 0\n 50327: u8 [a0 + 15] = 0\n 50330: u8 [a0 + 14] = 0\n 50333: u8 [a0 + 13] = 0\n 50336: u8 [a0 + 12] = 0\n 50339: u8 [a0 + 11] = 0\n 50342: u8 [a0 + 10] = 0\n 50345: u8 [a0 + 9] = 0\n 50348: u8 [a0 + 8] = 0\n 50351: u8 [a0 + 7] = 0\n 50354: u8 [a0 + 6] = 0\n 50357: u8 [a0 + 5] = 0\n 50360: u8 [a0 + 4] = 0\n 50363: u8 [a0 + 3] = 0\n 50366: u8 [a0 + 2] = 0\n 50369: u8 [a0 + 0x1] = s0\n 50372: a1 = 0x65\n 50375: u8 [a0] = a1\n 50377: ra = u64 [sp + 0x30]\n 50380: s0 = u64 [sp + 0x28]\n 50383: s1 = u64 [sp + 0x20]\n 50386: sp = sp + 0x38\n 50389: ret\n      : @742 (gas: 1)\n 50391: trap\n      : @743 (gas: 17)\n 50392: sp = sp + 0xffffffffffffffa0\n 50395: u64 [sp + 0x58] = ra\n 50398: u64 [sp + 0x50] = s0\n 50401: u64 [sp + 0x48] = s1\n 50404: a3 = u64 [a1 + 0x18]\n 50407: a4 = u64 [a1 + 0x10]\n 50410: a5 = u64 [a1 + 0x8]\n 50413: s1 = u64 [a1]\n 50415: a1 = a5 | a3\n 50418: a2 = s1 | a4\n 50421: a2 = a2 | a1\n 50424: a2 = a2 >> 0x20\n 50427: a1 = a1 | a4\n 50430: a1 = a1 << 0x20\n 50433: a1 = a1 | a2\n 50436: u64 [sp + 0x28] = a0\n 50439: jump @752 if a1 != 0\n      : @744 (gas: 19)\n 50443: a0 = s1 + 0x20\n 50446: u64 [sp + 0x40] = a0\n 50449: a0 = a0 <u s1\n 50452: a1 = a5 + a0\n 50455: u64 [sp + 0x38] = a1\n 50458: u64 [sp + 0x10] = a5\n 50461: s0 = a1 <u a5\n 50464: s0 = a0 if a0 == 0\n 50467: s0 = s0 + a4\n 50470: u64 [sp + 0x18] = a4\n 50473: a0 = s0 <u a4\n 50476: u64 [sp + 0x20] = a3\n 50479: a0 = a0 + a3\n 50482: u64 [sp + 0x30] = a0\n 50485: u64 [sp + 0x8] = s1\n 50488: i32 a0 = s1 + 0\n 50490: a1 = 0x20\n 50493: s1 = 0x20\n 50496: ra = 632, jump @0\n      : @745 [@dyn 316] (gas: 43)\n 50503: u8 [a0 + 0x1f] = s1\n 50506: a1 = u64 [sp + 0x40]\n 50509: a1 = a1 | s0\n 50512: a2 = u64 [sp + 0x38]\n 50515: a3 = u64 [sp + 0x30]\n 50518: a2 = a2 | a3\n 50521: a1 = a1 | a2\n 50524: a1 = a1 >> 0x20\n 50527: a2 = a2 | s0\n 50530: a2 = a2 << 0x20\n 50533: a1 = a1 | a2\n 50536: u8 [a0 + 30] = 0\n 50539: u8 [a0 + 29] = 0\n 50542: u8 [a0 + 28] = 0\n 50545: u8 [a0 + 27] = 0\n 50548: u8 [a0 + 26] = 0\n 50551: u8 [a0 + 25] = 0\n 50554: u8 [a0 + 24] = 0\n 50557: u8 [a0 + 23] = 0\n 50560: u8 [a0 + 22] = 0\n 50563: u8 [a0 + 21] = 0\n 50566: u8 [a0 + 20] = 0\n 50569: u8 [a0 + 19] = 0\n 50572: u8 [a0 + 18] = 0\n 50575: u8 [a0 + 17] = 0\n 50578: u8 [a0 + 16] = 0\n 50581: u8 [a0 + 15] = 0\n 50584: u8 [a0 + 14] = 0\n 50587: u8 [a0 + 13] = 0\n 50590: u8 [a0 + 12] = 0\n 50593: u8 [a0 + 11] = 0\n 50596: u8 [a0 + 10] = 0\n 50599: u8 [a0 + 9] = 0\n 50602: u8 [a0 + 8] = 0\n 50605: u8 [a0 + 7] = 0\n 50608: u8 [a0 + 6] = 0\n 50611: u8 [a0 + 5] = 0\n 50614: u8 [a0 + 4] = 0\n 50617: u8 [a0 + 3] = 0\n 50620: u8 [a0 + 2] = 0\n 50623: u8 [a0 + 1] = 0\n 50626: u8 [a0 + 0] = 0\n 50628: jump @752 if a1 != 0\n      : @746 (gas: 6)\n 50632: s1 = s0\n 50634: s0 = u64 [sp + 0x40]\n 50637: i32 a0 = s0 + 0\n 50639: a1 = 0x20\n 50642: u64 [sp] = a0\n 50644: ra = 634, jump @0\n      : @747 [@dyn 317] (gas: 42)\n 50651: u8 [a0 + 31] = 0x22\n 50655: u8 [a0 + 30] = 0\n 50658: u8 [a0 + 29] = 0\n 50661: u8 [a0 + 28] = 0\n 50664: u8 [a0 + 27] = 0\n 50667: u8 [a0 + 26] = 0\n 50670: u8 [a0 + 25] = 0\n 50673: u8 [a0 + 24] = 0\n 50676: u8 [a0 + 23] = 0\n 50679: u8 [a0 + 22] = 0\n 50682: u8 [a0 + 21] = 0\n 50685: u8 [a0 + 20] = 0\n 50688: u8 [a0 + 19] = 0\n 50691: u8 [a0 + 18] = 0\n 50694: u8 [a0 + 17] = 0\n 50697: u8 [a0 + 16] = 0\n 50700: u8 [a0 + 15] = 0\n 50703: u8 [a0 + 14] = 0\n 50706: u8 [a0 + 13] = 0\n 50709: u8 [a0 + 12] = 0\n 50712: u8 [a0 + 11] = 0\n 50715: u8 [a0 + 10] = 0\n 50718: u8 [a0 + 9] = 0\n 50721: u8 [a0 + 8] = 0\n 50724: u8 [a0 + 7] = 0\n 50727: u8 [a0 + 6] = 0\n 50730: u8 [a0 + 5] = 0\n 50733: u8 [a0 + 4] = 0\n 50736: u8 [a0 + 3] = 0\n 50739: u8 [a0 + 2] = 0\n 50742: u8 [a0 + 1] = 0\n 50745: a1 = u64 [sp + 0x30]\n 50748: a3 = s1 | a1\n 50751: s1 = 0x100000000\n 50761: a1 = 0xffffffe0\n 50771: a1 = s0 <u a1\n 50774: a2 = u64 [sp + 0x38]\n 50777: a1 = 0 if a2 != 0\n 50779: u64 [sp + 0x30] = a3\n 50782: a1 = 0 if a3 != 0\n 50784: u8 [a0 + 0] = 0\n 50786: jump @752 if a1 == 0\n      : @748 (gas: 4)\n 50790: s0 = u64 [sp]\n 50792: i32 a0 = s0 + 0x20\n 50795: a1 = 0x20\n 50798: ra = 636, jump @0\n      : @749 [@dyn 318] (gas: 43)\n 50805: u8 [a0 + 31] = 0x64\n 50809: t0 = 0x69\n 50812: u8 [a0 + 0x1e] = t0\n 50815: u8 [a0 + 29] = 0x76\n 50819: u8 [a0 + 28] = 0x6f\n 50823: a5 = 0x72\n 50826: u8 [a0 + 0x1b] = a5\n 50829: u8 [a0 + 26] = 0x70\n 50833: u8 [a0 + 25] = 0x20\n 50837: u8 [a0 + 24] = 0x65\n 50841: u8 [a0 + 23] = 0x68\n 50845: u8 [a0 + 22] = 0x74\n 50849: u8 [a0 + 21] = 0x20\n 50853: u8 [a0 + 20] = 0x74\n 50857: u8 [a0 + 19] = 0x6f\n 50861: u8 [a0 + 18] = 0x6e\n 50865: u8 [a0 + 17] = 0x20\n 50869: u8 [a0 + 16] = 0x73\n 50873: u8 [a0 + 0xf] = t0\n 50876: u8 [a0 + 14] = 0x20\n 50880: u8 [a0 + 0xd] = a5\n 50883: u8 [a0 + 12] = 0x65\n 50887: u8 [a0 + 11] = 0x6c\n 50891: u8 [a0 + 10] = 0x6c\n 50895: u8 [a0 + 9] = 0x61\n 50899: u8 [a0 + 8] = 0x63\n 50903: u8 [a0 + 7] = 0x20\n 50907: u8 [a0 + 6] = 0x3a\n 50911: a4 = 0x77\n 50914: u8 [a0 + 0x5] = a4\n 50917: u8 [a0 + 4] = 0x6f\n 50921: u8 [a0 + 0x3] = a5\n 50924: u8 [a0 + 2] = 0x63\n 50928: u8 [a0 + 1] = 0x73\n 50932: a2 = s1 + 0xffffffffffffffc0\n 50935: a3 = u64 [sp + 0x40]\n 50938: a2 = a3 <u a2\n 50941: a3 = u64 [sp + 0x38]\n 50944: a2 = 0 if a3 != 0\n 50946: a3 = u64 [sp + 0x30]\n 50949: a2 = 0 if a3 != 0\n 50951: u8 [a0 + 0] = 0x45\n 50954: jump @752 if a2 == 0\n      : @750 (gas: 3)\n 50958: i32 a0 = s0 + 0x40\n 50961: a1 = 0x20\n 50964: ra = 638, jump @0\n      : @751 [@dyn 319] (gas: 54)\n 50971: u8 [a0 + 31] = 0\n 50974: u8 [a0 + 30] = 0\n 50977: u8 [a0 + 29] = 0\n 50980: u8 [a0 + 28] = 0\n 50983: u8 [a0 + 27] = 0\n 50986: u8 [a0 + 26] = 0\n 50989: u8 [a0 + 25] = 0\n 50992: u8 [a0 + 24] = 0\n 50995: u8 [a0 + 23] = 0\n 50998: u8 [a0 + 22] = 0\n 51001: u8 [a0 + 21] = 0\n 51004: u8 [a0 + 20] = 0\n 51007: u8 [a0 + 19] = 0\n 51010: u8 [a0 + 18] = 0\n 51013: u8 [a0 + 17] = 0\n 51016: u8 [a0 + 16] = 0\n 51019: u8 [a0 + 15] = 0\n 51022: u8 [a0 + 14] = 0\n 51025: u8 [a0 + 13] = 0\n 51028: u8 [a0 + 12] = 0\n 51031: u8 [a0 + 11] = 0\n 51034: u8 [a0 + 10] = 0\n 51037: u8 [a0 + 9] = 0\n 51040: u8 [a0 + 8] = 0\n 51043: u8 [a0 + 7] = 0\n 51046: u8 [a0 + 6] = 0\n 51049: u8 [a0 + 5] = 0\n 51052: u8 [a0 + 4] = 0\n 51055: u8 [a0 + 3] = 0\n 51058: u8 [a0 + 2] = 0\n 51061: u8 [a0 + 1] = 0x72\n 51065: u8 [a0 + 0] = 0x65\n 51068: a1 = u64 [sp + 0x8]\n 51071: a0 = a1 + 0x80\n 51075: a1 = a0 <u a1\n 51078: a3 = u64 [sp + 0x10]\n 51081: a2 = a3 + a1\n 51084: a3 = a2 <u a3\n 51087: a3 = a1 if a1 == 0\n 51090: a1 = u64 [sp + 0x18]\n 51093: a3 = a3 + a1\n 51096: a1 = a3 <u a1\n 51099: a4 = u64 [sp + 0x20]\n 51102: a1 = a1 + a4\n 51105: a4 = u64 [sp + 0x28]\n 51108: u64 [a4] = a0\n 51110: u64 [a4 + 0x8] = a2\n 51113: u64 [a4 + 0x10] = a3\n 51116: u64 [a4 + 0x18] = a1\n 51119: ra = u64 [sp + 0x58]\n 51122: s0 = u64 [sp + 0x50]\n 51125: s1 = u64 [sp + 0x48]\n 51128: sp = sp + 0x60\n 51131: ret\n      : @752 (gas: 1)\n 51133: trap\n      : @753 (gas: 17)\n 51134: sp = sp + 0xffffffffffffff20\n 51138: u64 [sp + 0xd8] = ra\n 51142: u64 [sp + 0xd0] = s0\n 51146: u64 [sp + 0xc8] = s1\n 51150: s0 = sp + 0xe0\n 51154: sp = sp & 0xffffffffffffffe0\n 51157: a1 = u64 [a0 + 0x18]\n 51160: u64 [sp + 0x38] = a1\n 51163: a1 = u64 [a0 + 0x10]\n 51166: u64 [sp + 0x30] = a1\n 51169: a1 = u64 [a0 + 0x8]\n 51172: u64 [sp + 0x28] = a1\n 51175: a0 = u64 [a0]\n 51177: u64 [sp + 0x20] = a0\n 51180: i32 a0 = sp + 0xa0\n 51184: ecalli 5 // 'caller'\n 51186: fallthrough\n      : @754 (gas: 6)\n 51187: s1 = 0x20070\n 51192: a4 = i32 [sp + 0xb0]\n 51196: a2 = u64 [sp + 0xa0]\n 51200: a0 = i32 [0x20070]\n 51205: a1 = u64 [sp + 0xa8]\n 51209: jump @757 if a0 == 0\n      : @755 (gas: 9)\n 51212: u64 [sp] = a0\n 51214: a0 = 0x30080\n 51219: i32 a0 = a0 + 0\n 51221: u64 [sp + 0x8] = a1\n 51224: i32 a1 = s1 + 0\n 51226: u64 [sp + 0x18] = a4\n 51229: u64 [sp + 0x10] = a2\n 51232: ecalli 7 // 'get_immutable_data'\n 51234: fallthrough\n      : @756 (gas: 7)\n 51235: a1 = u64 [sp + 0x8]\n 51238: a2 = u64 [sp + 0x10]\n 51241: a4 = u64 [sp + 0x18]\n 51244: a0 = i32 [0x20070]\n 51249: u32 [0x20070] = 0\n 51254: a3 = u64 [sp]\n 51256: jump @765 if a0 <u a3\n      : @757 (gas: 19)\n 51260: a0 = reverse a1\n 51262: a1 = a0 >> 0x20\n 51265: a2 = reverse a2\n 51267: a3 = a2 << 0x20\n 51270: a1 = a1 | a3\n 51273: a0 = a0 << 0x20\n 51276: a4 = reverse a4\n 51278: a4 = a4 >> 0x20\n 51281: a0 = a0 | a4\n 51284: a4 = u64 [0x300c0]\n 51289: a5 = u32 [0x300d0]\n 51294: a2 = a2 >> 0x20\n 51297: a3 = u64 [0x300c8]\n 51302: a0 = a0 ^ a4\n 51305: a2 = a2 ^ a5\n 51308: a0 = a0 | a2\n 51311: a1 = a1 ^ a3\n 51314: a0 = a0 | a1\n 51317: jump @760 if a0 != 0\n      : @758 (gas: 10)\n 51320: a0 = u64 [sp + 0x20]\n 51323: u64 [sp + 0x40] = a0\n 51326: a0 = u64 [sp + 0x28]\n 51329: u64 [sp + 0x48] = a0\n 51332: a0 = u64 [sp + 0x30]\n 51335: u64 [sp + 0x50] = a0\n 51338: a0 = sp + 0x40\n 51341: a1 = u64 [sp + 0x38]\n 51344: u64 [sp + 0x58] = a1\n 51347: ra = 640, jump @779\n      : @759 [@dyn 320] (gas: 6)\n 51353: sp = s0 + 0xffffffffffffff20\n 51357: ra = u64 [sp + 0xd8]\n 51361: s0 = u64 [sp + 0xd0]\n 51365: s1 = u64 [sp + 0xc8]\n 51369: sp = sp + 0xe0\n 51373: ret\n      : @760 (gas: 3)\n 51375: a0 = 0x40\n 51378: a1 = 0x20\n 51381: ra = 642, jump @0\n      : @761 [@dyn 321] (gas: 103)\n 51388: a1 = u8 [a0 + 0x11]\n 51391: a2 = u8 [a0 + 0x10]\n 51394: a3 = u8 [a0 + 0x12]\n 51397: a4 = u8 [a0 + 0x13]\n 51400: a1 = a1 << 0x8\n 51403: a1 = a1 | a2\n 51406: a3 = a3 << 0x10\n 51409: a4 = a4 << 0x18\n 51412: a3 = a3 | a4\n 51415: a1 = a1 | a3\n 51418: a2 = u8 [a0 + 0x15]\n 51421: a3 = u8 [a0 + 0x14]\n 51424: a4 = u8 [a0 + 0x16]\n 51427: a5 = u8 [a0 + 0x17]\n 51430: a2 = a2 << 0x8\n 51433: a2 = a2 | a3\n 51436: a4 = a4 << 0x10\n 51439: a5 = a5 << 0x18\n 51442: a4 = a4 | a5\n 51445: a2 = a2 | a4\n 51448: a2 = a2 << 0x20\n 51451: t0 = a2 | a1\n 51454: a2 = u8 [a0 + 0x1]\n 51457: a3 = u8 [a0]\n 51459: a4 = u8 [a0 + 0x2]\n 51462: a5 = u8 [a0 + 0x3]\n 51465: a2 = a2 << 0x8\n 51468: a2 = a2 | a3\n 51471: a4 = a4 << 0x10\n 51474: a5 = a5 << 0x18\n 51477: a4 = a4 | a5\n 51480: a2 = a2 | a4\n 51483: a3 = u8 [a0 + 0x5]\n 51486: a4 = u8 [a0 + 0x4]\n 51489: a5 = u8 [a0 + 0x6]\n 51492: s1 = u8 [a0 + 0x7]\n 51495: a3 = a3 << 0x8\n 51498: a3 = a3 | a4\n 51501: a5 = a5 << 0x10\n 51504: s1 = s1 << 0x18\n 51507: a5 = a5 | s1\n 51510: a3 = a3 | a5\n 51513: a3 = a3 << 0x20\n 51516: a2 = a2 | a3\n 51519: a3 = u8 [a0 + 0x19]\n 51522: a4 = u8 [a0 + 0x18]\n 51525: a5 = u8 [a0 + 0x1a]\n 51528: s1 = u8 [a0 + 0x1b]\n 51531: a3 = a3 << 0x8\n 51534: a3 = a3 | a4\n 51537: a5 = a5 << 0x10\n 51540: s1 = s1 << 0x18\n 51543: a5 = a5 | s1\n 51546: a3 = a3 | a5\n 51549: a4 = u8 [a0 + 0x1d]\n 51552: a5 = u8 [a0 + 0x1c]\n 51555: s1 = u8 [a0 + 0x1e]\n 51558: a1 = u8 [a0 + 0x1f]\n 51561: a4 = a4 << 0x8\n 51564: a4 = a4 | a5\n 51567: s1 = s1 << 0x10\n 51570: a1 = a1 << 0x18\n 51573: a1 = a1 | s1\n 51576: a1 = a1 | a4\n 51579: a1 = a1 << 0x20\n 51582: a3 = a3 | a1\n 51585: a1 = u8 [a0 + 0x9]\n 51588: a4 = u8 [a0 + 0x8]\n 51591: a5 = u8 [a0 + 0xa]\n 51594: s1 = u8 [a0 + 0xb]\n 51597: a1 = a1 << 0x8\n 51600: a1 = a1 | a4\n 51603: a5 = a5 << 0x10\n 51606: s1 = s1 << 0x18\n 51609: a5 = a5 | s1\n 51612: a1 = a1 | a5\n 51615: a4 = u8 [a0 + 0xd]\n 51618: a5 = u8 [a0 + 0xc]\n 51621: s1 = u8 [a0 + 0xe]\n 51624: a0 = u8 [a0 + 0xf]\n 51627: a4 = a4 << 0x8\n 51630: a4 = a4 | a5\n 51633: s1 = s1 << 0x10\n 51636: a0 = a0 << 0x18\n 51639: a0 = a0 | s1\n 51642: a0 = a0 | a4\n 51645: a0 = a0 << 0x20\n 51648: a0 = a0 | a1\n 51651: s1 = reverse a0\n 51653: a1 = reverse a3\n 51655: a2 = reverse a2\n 51657: a0 = reverse t0\n 51659: u64 [sp + 0x38] = a0\n 51662: u64 [sp + 0x30] = a2\n 51665: a0 = a0 | a2\n 51668: a2 = a1\n 51670: a1 = a1 | s1\n 51673: a1 = a1 | a0\n 51676: a1 = a1 >> 0x20\n 51679: a0 = a0 | s1\n 51682: a0 = a0 << 0x20\n 51685: a0 = a0 | a1\n 51688: jump @765 if a0 != 0\n      : @762 (gas: 5)\n 51692: u64 [sp + 0x28] = a2\n 51695: i32 a0 = a2 + 0\n 51697: a1 = 0x20\n 51700: u64 [sp + 0x20] = a0\n 51703: ra = 644, jump @0\n      : @763 [@dyn 322] (gas: 50)\n 51710: u8 [a0 + 31] = 0\n 51713: u8 [a0 + 30] = 0\n 51716: u8 [a0 + 29] = 0\n 51719: u8 [a0 + 28] = 0\n 51722: u8 [a0 + 27] = 0\n 51725: u8 [a0 + 26] = 0\n 51728: u8 [a0 + 25] = 0\n 51731: u8 [a0 + 24] = 0\n 51734: u8 [a0 + 23] = 0\n 51737: u8 [a0 + 22] = 0\n 51740: u8 [a0 + 21] = 0\n 51743: u8 [a0 + 20] = 0\n 51746: u8 [a0 + 19] = 0\n 51749: u8 [a0 + 18] = 0\n 51752: u8 [a0 + 17] = 0\n 51755: u8 [a0 + 16] = 0\n 51758: u8 [a0 + 15] = 0\n 51761: u8 [a0 + 14] = 0\n 51764: u8 [a0 + 13] = 0\n 51767: u8 [a0 + 12] = 0\n 51770: u8 [a0 + 11] = 0\n 51773: u8 [a0 + 10] = 0\n 51776: u8 [a0 + 9] = 0\n 51779: u8 [a0 + 8] = 0\n 51782: u8 [a0 + 7] = 0\n 51785: u8 [a0 + 6] = 0\n 51788: u8 [a0 + 5] = 0\n 51791: u8 [a0 + 4] = 0\n 51794: u8 [a0 + 3] = 0xa0\n 51799: u8 [a0 + 2] = 0x79\n 51803: u8 [a0 + 1] = 0xc3\n 51808: u8 [a0 + 0] = 0x8\n 51811: a1 = u64 [sp + 0x28]\n 51814: a0 = a1 + 0x4\n 51817: a1 = a0 <u a1\n 51820: a3 = u64 [sp + 0x38]\n 51823: a2 = a3 + a1\n 51826: a3 = a2 <u a3\n 51829: a3 = a1 if a1 == 0\n 51832: a3 = a3 + s1\n 51835: a1 = a3 <u s1\n 51838: a4 = u64 [sp + 0x30]\n 51841: a4 = a4 + a1\n 51844: u64 [sp + 0x68] = a2\n 51847: u64 [sp + 0x60] = a0\n 51850: u64 [sp + 0x70] = a3\n 51853: a0 = sp + 0x80\n 51857: a1 = sp + 0x60\n 51860: u64 [sp + 0x78] = a4\n 51863: ra = 646, jump @743\n      : @764 [@dyn 323] (gas: 30)\n 51869: a0 = u64 [sp + 0x88]\n 51873: t0 = u64 [sp + 0x98]\n 51877: t1 = u64 [sp + 0x80]\n 51881: a3 = u64 [sp + 0x90]\n 51885: a1 = u64 [sp + 0x38]\n 51888: a4 = a0 ^ a1\n 51891: a5 = a0 <u a1\n 51894: t2 = a1\n 51896: a2 = u64 [sp + 0x28]\n 51899: a1 = t1 <u a2\n 51902: a5 = a1 if a4 == 0\n 51905: a4 = a3 - s1\n 51908: a3 = a3 <u s1\n 51911: s1 = u64 [sp + 0x30]\n 51914: s1 = t0 - s1\n 51917: s1 = s1 - a3\n 51920: a3 = a4 <u a5\n 51923: s1 = s1 - a3\n 51926: a4 = a4 - a5\n 51929: a0 = a0 - t2\n 51932: a1 = a0 - a1\n 51935: a0 = t1 - a2\n 51938: a1 = a1 | s1\n 51941: a2 = a0 | a4\n 51944: a2 = a2 | a1\n 51947: a1 = a1 | a4\n 51950: a2 = a2 >> 0x20\n 51953: a1 = a1 << 0x20\n 51956: a1 = a1 | a2\n 51959: jump @766 if a1 == 0\n      : @765 (gas: 1)\n 51962: trap\n      : @766 (gas: 4)\n 51963: i32 s1 = a0 + 0\n 51965: a0 = u64 [sp + 0x20]\n 51968: a1 = s1\n 51970: ra = 648, jump @0\n      : @767 [@dyn 324] (gas: 6)\n 51977: i32 a1 = a0 + 0\n 51979: a0 = 0x1\n 51982: a2 = s1\n 51984: ra = 0x28a\n 51988: ecalli 14 // 'seal_return'\n 51990: fallthrough\n      : @768 [@dyn 325] (gas: 9)\n 51991: a2 = u64 [a1 + 0x18]\n 51994: a3 = u64 [a1 + 0x10]\n 51997: a4 = u64 [a1 + 0x8]\n 52000: a1 = u64 [a1]\n 52002: u64 [a0 + 0x18] = a2\n 52005: u64 [a0 + 0x10] = a3\n 52008: u64 [a0 + 0x8] = a4\n 52011: u64 [a0] = a1\n 52013: ret\n      : @769 (gas: 17)\n 52015: sp = sp + 0xffffffffffffffa0\n 52018: u64 [sp + 0x58] = ra\n 52021: u64 [sp + 0x50] = s0\n 52024: u64 [sp + 0x48] = s1\n 52027: a3 = u64 [a1 + 0x18]\n 52030: a4 = u64 [a1 + 0x10]\n 52033: a5 = u64 [a1 + 0x8]\n 52036: s1 = u64 [a1]\n 52038: a1 = a5 | a3\n 52041: a2 = s1 | a4\n 52044: a2 = a2 | a1\n 52047: a2 = a2 >> 0x20\n 52050: a1 = a1 | a4\n 52053: a1 = a1 << 0x20\n 52056: a1 = a1 | a2\n 52059: u64 [sp + 0x28] = a0\n 52062: jump @778 if a1 != 0\n      : @770 (gas: 19)\n 52066: a0 = s1 + 0x20\n 52069: u64 [sp + 0x40] = a0\n 52072: a0 = a0 <u s1\n 52075: a1 = a5 + a0\n 52078: u64 [sp + 0x38] = a1\n 52081: u64 [sp + 0x10] = a5\n 52084: s0 = a1 <u a5\n 52087: s0 = a0 if a0 == 0\n 52090: s0 = s0 + a4\n 52093: u64 [sp + 0x18] = a4\n 52096: a0 = s0 <u a4\n 52099: u64 [sp + 0x20] = a3\n 52102: a0 = a0 + a3\n 52105: u64 [sp + 0x30] = a0\n 52108: u64 [sp + 0x8] = s1\n 52111: i32 a0 = s1 + 0\n 52113: a1 = 0x20\n 52116: s1 = 0x20\n 52119: ra = 652, jump @0\n      : @771 [@dyn 326] (gas: 43)\n 52126: u8 [a0 + 0x1f] = s1\n 52129: a1 = u64 [sp + 0x40]\n 52132: a1 = a1 | s0\n 52135: a2 = u64 [sp + 0x38]\n 52138: a3 = u64 [sp + 0x30]\n 52141: a2 = a2 | a3\n 52144: a1 = a1 | a2\n 52147: a1 = a1 >> 0x20\n 52150: a2 = a2 | s0\n 52153: a2 = a2 << 0x20\n 52156: a1 = a1 | a2\n 52159: u8 [a0 + 30] = 0\n 52162: u8 [a0 + 29] = 0\n 52165: u8 [a0 + 28] = 0\n 52168: u8 [a0 + 27] = 0\n 52171: u8 [a0 + 26] = 0\n 52174: u8 [a0 + 25] = 0\n 52177: u8 [a0 + 24] = 0\n 52180: u8 [a0 + 23] = 0\n 52183: u8 [a0 + 22] = 0\n 52186: u8 [a0 + 21] = 0\n 52189: u8 [a0 + 20] = 0\n 52192: u8 [a0 + 19] = 0\n 52195: u8 [a0 + 18] = 0\n 52198: u8 [a0 + 17] = 0\n 52201: u8 [a0 + 16] = 0\n 52204: u8 [a0 + 15] = 0\n 52207: u8 [a0 + 14] = 0\n 52210: u8 [a0 + 13] = 0\n 52213: u8 [a0 + 12] = 0\n 52216: u8 [a0 + 11] = 0\n 52219: u8 [a0 + 10] = 0\n 52222: u8 [a0 + 9] = 0\n 52225: u8 [a0 + 8] = 0\n 52228: u8 [a0 + 7] = 0\n 52231: u8 [a0 + 6] = 0\n 52234: u8 [a0 + 5] = 0\n 52237: u8 [a0 + 4] = 0\n 52240: u8 [a0 + 3] = 0\n 52243: u8 [a0 + 2] = 0\n 52246: u8 [a0 + 1] = 0\n 52249: u8 [a0 + 0] = 0\n 52251: jump @778 if a1 != 0\n      : @772 (gas: 6)\n 52255: s1 = s0\n 52257: s0 = u64 [sp + 0x40]\n 52260: i32 a0 = s0 + 0\n 52262: a1 = 0x20\n 52265: u64 [sp] = a0\n 52267: ra = 654, jump @0\n      : @773 [@dyn 327] (gas: 42)\n 52274: u8 [a0 + 31] = 0x25\n 52278: u8 [a0 + 30] = 0\n 52281: u8 [a0 + 29] = 0\n 52284: u8 [a0 + 28] = 0\n 52287: u8 [a0 + 27] = 0\n 52290: u8 [a0 + 26] = 0\n 52293: u8 [a0 + 25] = 0\n 52296: u8 [a0 + 24] = 0\n 52299: u8 [a0 + 23] = 0\n 52302: u8 [a0 + 22] = 0\n 52305: u8 [a0 + 21] = 0\n 52308: u8 [a0 + 20] = 0\n 52311: u8 [a0 + 19] = 0\n 52314: u8 [a0 + 18] = 0\n 52317: u8 [a0 + 17] = 0\n 52320: u8 [a0 + 16] = 0\n 52323: u8 [a0 + 15] = 0\n 52326: u8 [a0 + 14] = 0\n 52329: u8 [a0 + 13] = 0\n 52332: u8 [a0 + 12] = 0\n 52335: u8 [a0 + 11] = 0\n 52338: u8 [a0 + 10] = 0\n 52341: u8 [a0 + 9] = 0\n 52344: u8 [a0 + 8] = 0\n 52347: u8 [a0 + 7] = 0\n 52350: u8 [a0 + 6] = 0\n 52353: u8 [a0 + 5] = 0\n 52356: u8 [a0 + 4] = 0\n 52359: u8 [a0 + 3] = 0\n 52362: u8 [a0 + 2] = 0\n 52365: u8 [a0 + 1] = 0\n 52368: a1 = u64 [sp + 0x30]\n 52371: a3 = s1 | a1\n 52374: s1 = 0x100000000\n 52384: a1 = 0xffffffe0\n 52394: a1 = s0 <u a1\n 52397: a2 = u64 [sp + 0x38]\n 52400: a1 = 0 if a2 != 0\n 52402: u64 [sp + 0x30] = a3\n 52405: a1 = 0 if a3 != 0\n 52407: u8 [a0 + 0] = 0\n 52409: jump @778 if a1 == 0\n      : @774 (gas: 4)\n 52413: s0 = u64 [sp]\n 52415: i32 a0 = s0 + 0x20\n 52418: a1 = 0x20\n 52421: ra = 656, jump @0\n      : @775 [@dyn 328] (gas: 43)\n 52428: u8 [a0 + 31] = 0x64\n 52432: u8 [a0 + 30] = 0x61\n 52436: a4 = 0x20\n 52439: u8 [a0 + 0x1d] = a4\n 52442: t0 = 0x6f\n 52445: u8 [a0 + 0x1c] = t0\n 52448: a5 = 0x72\n 52451: u8 [a0 + 0x1b] = a5\n 52454: u8 [a0 + 26] = 0x65\n 52458: u8 [a0 + 25] = 0x7a\n 52462: u8 [a0 + 0x18] = a4\n 52465: u8 [a0 + 23] = 0x65\n 52469: u8 [a0 + 22] = 0x62\n 52473: u8 [a0 + 0x15] = a4\n 52476: u8 [a0 + 20] = 0x74\n 52480: u8 [a0 + 0x13] = t0\n 52483: u8 [a0 + 18] = 0x6e\n 52487: u8 [a0 + 17] = 0x6e\n 52491: u8 [a0 + 16] = 0x61\n 52495: u8 [a0 + 15] = 0x63\n 52499: u8 [a0 + 0xe] = a4\n 52502: u8 [a0 + 0xd] = a5\n 52505: u8 [a0 + 12] = 0x65\n 52509: u8 [a0 + 11] = 0x6e\n 52513: u8 [a0 + 10] = 0x67\n 52517: u8 [a0 + 9] = 0x69\n 52521: u8 [a0 + 8] = 0x73\n 52525: u8 [a0 + 0x7] = a4\n 52528: u8 [a0 + 6] = 0x3a\n 52532: u8 [a0 + 5] = 0x77\n 52536: u8 [a0 + 0x4] = t0\n 52539: u8 [a0 + 0x3] = a5\n 52542: u8 [a0 + 2] = 0x63\n 52546: u8 [a0 + 1] = 0x73\n 52550: a2 = s1 + 0xffffffffffffffc0\n 52553: a3 = u64 [sp + 0x40]\n 52556: a2 = a3 <u a2\n 52559: a3 = u64 [sp + 0x38]\n 52562: a2 = 0 if a3 != 0\n 52564: a3 = u64 [sp + 0x30]\n 52567: a2 = 0 if a3 != 0\n 52569: u8 [a0 + 0] = 0x45\n 52572: jump @778 if a2 == 0\n      : @776 (gas: 3)\n 52576: i32 a0 = s0 + 0x40\n 52579: a1 = 0x20\n 52582: ra = 658, jump @0\n      : @777 [@dyn 329] (gas: 54)\n 52589: u8 [a0 + 31] = 0\n 52592: u8 [a0 + 30] = 0\n 52595: u8 [a0 + 29] = 0\n 52598: u8 [a0 + 28] = 0\n 52601: u8 [a0 + 27] = 0\n 52604: u8 [a0 + 26] = 0\n 52607: u8 [a0 + 25] = 0\n 52610: u8 [a0 + 24] = 0\n 52613: u8 [a0 + 23] = 0\n 52616: u8 [a0 + 22] = 0\n 52619: u8 [a0 + 21] = 0\n 52622: u8 [a0 + 20] = 0\n 52625: u8 [a0 + 19] = 0\n 52628: u8 [a0 + 18] = 0\n 52631: u8 [a0 + 17] = 0\n 52634: u8 [a0 + 16] = 0\n 52637: u8 [a0 + 15] = 0\n 52640: u8 [a0 + 14] = 0\n 52643: u8 [a0 + 13] = 0\n 52646: u8 [a0 + 12] = 0\n 52649: u8 [a0 + 11] = 0\n 52652: u8 [a0 + 10] = 0\n 52655: u8 [a0 + 9] = 0\n 52658: u8 [a0 + 8] = 0\n 52661: u8 [a0 + 7] = 0\n 52664: u8 [a0 + 6] = 0\n 52667: u8 [a0 + 5] = 0\n 52670: u8 [a0 + 4] = 0x73\n 52674: u8 [a0 + 3] = 0x73\n 52678: u8 [a0 + 2] = 0x65\n 52682: u8 [a0 + 1] = 0x72\n 52686: u8 [a0 + 0] = 0x64\n 52689: a1 = u64 [sp + 0x8]\n 52692: a0 = a1 + 0x80\n 52696: a1 = a0 <u a1\n 52699: a3 = u64 [sp + 0x10]\n 52702: a2 = a3 + a1\n 52705: a3 = a2 <u a3\n 52708: a3 = a1 if a1 == 0\n 52711: a1 = u64 [sp + 0x18]\n 52714: a3 = a3 + a1\n 52717: a1 = a3 <u a1\n 52720: a4 = u64 [sp + 0x20]\n 52723: a1 = a1 + a4\n 52726: a4 = u64 [sp + 0x28]\n 52729: u64 [a4] = a0\n 52731: u64 [a4 + 0x8] = a2\n 52734: u64 [a4 + 0x10] = a3\n 52737: u64 [a4 + 0x18] = a1\n 52740: ra = u64 [sp + 0x58]\n 52743: s0 = u64 [sp + 0x50]\n 52746: s1 = u64 [sp + 0x48]\n 52749: sp = sp + 0x60\n 52752: ret\n      : @778 (gas: 1)\n 52754: trap\n      : @779 (gas: 14)\n 52755: sp = sp + 0xffffffffffffff20\n 52759: u64 [sp + 0xd8] = ra\n 52763: u64 [sp + 0xd0] = s0\n 52767: u64 [sp + 0xc8] = s1\n 52771: s0 = sp + 0xe0\n 52775: sp = sp & 0xffffffffffffffe0\n 52778: s1 = u32 [a0 + 0x10]\n 52781: a1 = u64 [a0]\n 52783: a2 = u64 [a0 + 0x8]\n 52786: u64 [sp + 0x18] = a1\n 52789: a0 = a1 | s1\n 52792: u64 [sp + 0x10] = a2\n 52795: a0 = a0 | a2\n 52798: jump @781 if a0 == 0\n      : @780 (gas: 41)\n 52802: u64 [sp + 152] = 0\n 52806: u64 [sp + 144] = 0\n 52810: u64 [sp + 136] = 0\n 52814: u64 [sp + 128] = 0x2\n 52819: u64 [sp + 184] = 0\n 52823: u64 [sp + 176] = 0\n 52827: u64 [sp + 168] = 0\n 52831: u64 [sp + 160] = 0\n 52835: u32 [sp + 96] = 0x20\n 52839: i32 a1 = sp + 0x80\n 52843: i32 a3 = sp + 0xa0\n 52847: i32 a4 = sp + 0x60\n 52850: a2 = 0xffffffffffffffff\n 52853: a0 = 0\n 52855: ecalli 8 // 'get_storage'\n 52857: a0 = u32 [sp + 0xb4]\n 52861: a0 = a0 << 0x20\n 52864: a1 = u64 [sp + 0xb8]\n 52868: a0 = a0 | s1\n 52871: u64 [sp + 152] = 0\n 52875: u64 [sp + 144] = 0\n 52879: u64 [sp + 136] = 0\n 52883: u64 [sp + 128] = 0x2\n 52888: u64 [sp + 0xb8] = a1\n 52892: u64 [sp + 0xb0] = a0\n 52896: a0 = u64 [sp + 0x10]\n 52899: u64 [sp + 0xa8] = a0\n 52903: a0 = u64 [sp + 0x18]\n 52906: u64 [sp + 0xa0] = a0\n 52910: i32 a1 = sp + 0x80\n 52914: i32 a3 = sp + 0xa0\n 52918: a2 = 0xffffffffffffffff\n 52921: a4 = 0x20\n 52924: a0 = 0\n 52926: ecalli 16 // 'set_storage'\n 52928: sp = s0 + 0xffffffffffffff20\n 52932: ra = u64 [sp + 0xd8]\n 52936: s0 = u64 [sp + 0xd0]\n 52940: s1 = u64 [sp + 0xc8]\n 52944: sp = sp + 0xe0\n 52948: ret\n      : @781 (gas: 3)\n 52950: a0 = 0x40\n 52953: a1 = 0x20\n 52956: ra = 660, jump @0\n      : @782 [@dyn 330] (gas: 103)\n 52963: a1 = u8 [a0 + 0x11]\n 52966: a2 = u8 [a0 + 0x10]\n 52969: a3 = u8 [a0 + 0x12]\n 52972: a4 = u8 [a0 + 0x13]\n 52975: a1 = a1 << 0x8\n 52978: a1 = a1 | a2\n 52981: a3 = a3 << 0x10\n 52984: a4 = a4 << 0x18\n 52987: a3 = a3 | a4\n 52990: a1 = a1 | a3\n 52993: a2 = u8 [a0 + 0x15]\n 52996: a3 = u8 [a0 + 0x14]\n 52999: a4 = u8 [a0 + 0x16]\n 53002: a5 = u8 [a0 + 0x17]\n 53005: a2 = a2 << 0x8\n 53008: a2 = a2 | a3\n 53011: a4 = a4 << 0x10\n 53014: a5 = a5 << 0x18\n 53017: a4 = a4 | a5\n 53020: a2 = a2 | a4\n 53023: a2 = a2 << 0x20\n 53026: t0 = a2 | a1\n 53029: a2 = u8 [a0 + 0x1]\n 53032: a3 = u8 [a0]\n 53034: a4 = u8 [a0 + 0x2]\n 53037: a5 = u8 [a0 + 0x3]\n 53040: a2 = a2 << 0x8\n 53043: a2 = a2 | a3\n 53046: a4 = a4 << 0x10\n 53049: a5 = a5 << 0x18\n 53052: a4 = a4 | a5\n 53055: a2 = a2 | a4\n 53058: a3 = u8 [a0 + 0x5]\n 53061: a4 = u8 [a0 + 0x4]\n 53064: a5 = u8 [a0 + 0x6]\n 53067: s1 = u8 [a0 + 0x7]\n 53070: a3 = a3 << 0x8\n 53073: a3 = a3 | a4\n 53076: a5 = a5 << 0x10\n 53079: s1 = s1 << 0x18\n 53082: a5 = a5 | s1\n 53085: a3 = a3 | a5\n 53088: a3 = a3 << 0x20\n 53091: a2 = a2 | a3\n 53094: a3 = u8 [a0 + 0x19]\n 53097: a4 = u8 [a0 + 0x18]\n 53100: a5 = u8 [a0 + 0x1a]\n 53103: s1 = u8 [a0 + 0x1b]\n 53106: a3 = a3 << 0x8\n 53109: a3 = a3 | a4\n 53112: a5 = a5 << 0x10\n 53115: s1 = s1 << 0x18\n 53118: a5 = a5 | s1\n 53121: a3 = a3 | a5\n 53124: a4 = u8 [a0 + 0x1d]\n 53127: a5 = u8 [a0 + 0x1c]\n 53130: s1 = u8 [a0 + 0x1e]\n 53133: a1 = u8 [a0 + 0x1f]\n 53136: a4 = a4 << 0x8\n 53139: a4 = a4 | a5\n 53142: s1 = s1 << 0x10\n 53145: a1 = a1 << 0x18\n 53148: a1 = a1 | s1\n 53151: a1 = a1 | a4\n 53154: a1 = a1 << 0x20\n 53157: a3 = a3 | a1\n 53160: a1 = u8 [a0 + 0x9]\n 53163: a4 = u8 [a0 + 0x8]\n 53166: a5 = u8 [a0 + 0xa]\n 53169: s1 = u8 [a0 + 0xb]\n 53172: a1 = a1 << 0x8\n 53175: a1 = a1 | a4\n 53178: a5 = a5 << 0x10\n 53181: s1 = s1 << 0x18\n 53184: a5 = a5 | s1\n 53187: a1 = a1 | a5\n 53190: a4 = u8 [a0 + 0xd]\n 53193: a5 = u8 [a0 + 0xc]\n 53196: s1 = u8 [a0 + 0xe]\n 53199: a0 = u8 [a0 + 0xf]\n 53202: a4 = a4 << 0x8\n 53205: a4 = a4 | a5\n 53208: s1 = s1 << 0x10\n 53211: a0 = a0 << 0x18\n 53214: a0 = a0 | s1\n 53217: a0 = a0 | a4\n 53220: a0 = a0 << 0x20\n 53223: a0 = a0 | a1\n 53226: s1 = reverse a0\n 53228: a1 = reverse a3\n 53230: a2 = reverse a2\n 53232: a0 = reverse t0\n 53234: u64 [sp + 0x18] = a0\n 53237: u64 [sp + 0x10] = a2\n 53240: a0 = a0 | a2\n 53243: a2 = a1\n 53245: a1 = a1 | s1\n 53248: a1 = a1 | a0\n 53251: a1 = a1 >> 0x20\n 53254: a0 = a0 | s1\n 53257: a0 = a0 << 0x20\n 53260: a0 = a0 | a1\n 53263: jump @786 if a0 != 0\n      : @783 (gas: 5)\n 53267: u64 [sp + 0x8] = a2\n 53270: i32 a0 = a2 + 0\n 53272: a1 = 0x20\n 53275: u64 [sp] = a0\n 53277: ra = 662, jump @0\n      : @784 [@dyn 331] (gas: 50)\n 53284: u8 [a0 + 31] = 0\n 53287: u8 [a0 + 30] = 0\n 53290: u8 [a0 + 29] = 0\n 53293: u8 [a0 + 28] = 0\n 53296: u8 [a0 + 27] = 0\n 53299: u8 [a0 + 26] = 0\n 53302: u8 [a0 + 25] = 0\n 53305: u8 [a0 + 24] = 0\n 53308: u8 [a0 + 23] = 0\n 53311: u8 [a0 + 22] = 0\n 53314: u8 [a0 + 21] = 0\n 53317: u8 [a0 + 20] = 0\n 53320: u8 [a0 + 19] = 0\n 53323: u8 [a0 + 18] = 0\n 53326: u8 [a0 + 17] = 0\n 53329: u8 [a0 + 16] = 0\n 53332: u8 [a0 + 15] = 0\n 53335: u8 [a0 + 14] = 0\n 53338: u8 [a0 + 13] = 0\n 53341: u8 [a0 + 12] = 0\n 53344: u8 [a0 + 11] = 0\n 53347: u8 [a0 + 10] = 0\n 53350: u8 [a0 + 9] = 0\n 53353: u8 [a0 + 8] = 0\n 53356: u8 [a0 + 7] = 0\n 53359: u8 [a0 + 6] = 0\n 53362: u8 [a0 + 5] = 0\n 53365: u8 [a0 + 4] = 0\n 53368: u8 [a0 + 3] = 0xa0\n 53373: u8 [a0 + 2] = 0x79\n 53377: u8 [a0 + 1] = 0xc3\n 53382: u8 [a0 + 0] = 0x8\n 53385: a1 = u64 [sp + 0x8]\n 53388: a0 = a1 + 0x4\n 53391: a1 = a0 <u a1\n 53394: a3 = u64 [sp + 0x18]\n 53397: a2 = a3 + a1\n 53400: a3 = a2 <u a3\n 53403: a3 = a1 if a1 == 0\n 53406: a3 = a3 + s1\n 53409: a1 = a3 <u s1\n 53412: a4 = u64 [sp + 0x10]\n 53415: a4 = a4 + a1\n 53418: u64 [sp + 0x28] = a2\n 53421: u64 [sp + 0x20] = a0\n 53424: u64 [sp + 0x30] = a3\n 53427: a0 = sp + 0x40\n 53430: a1 = sp + 0x20\n 53433: u64 [sp + 0x38] = a4\n 53436: ra = 664, jump @769\n      : @785 [@dyn 332] (gas: 30)\n 53442: a0 = u64 [sp + 0x48]\n 53445: t0 = u64 [sp + 0x58]\n 53448: t1 = u64 [sp + 0x40]\n 53451: a3 = u64 [sp + 0x50]\n 53454: a1 = u64 [sp + 0x18]\n 53457: a4 = a0 ^ a1\n 53460: a5 = a0 <u a1\n 53463: t2 = a1\n 53465: a2 = u64 [sp + 0x8]\n 53468: a1 = t1 <u a2\n 53471: a5 = a1 if a4 == 0\n 53474: a4 = a3 - s1\n 53477: a3 = a3 <u s1\n 53480: s1 = u64 [sp + 0x10]\n 53483: s1 = t0 - s1\n 53486: s1 = s1 - a3\n 53489: a3 = a4 <u a5\n 53492: s1 = s1 - a3\n 53495: a4 = a4 - a5\n 53498: a0 = a0 - t2\n 53501: a1 = a0 - a1\n 53504: a0 = t1 - a2\n 53507: a1 = a1 | s1\n 53510: a2 = a0 | a4\n 53513: a2 = a2 | a1\n 53516: a1 = a1 | a4\n 53519: a2 = a2 >> 0x20\n 53522: a1 = a1 << 0x20\n 53525: a1 = a1 | a2\n 53528: jump @787 if a1 == 0\n      : @786 (gas: 1)\n 53531: trap\n      : @787 (gas: 4)\n 53532: i32 s1 = a0 + 0\n 53534: a0 = u64 [sp]\n 53536: a1 = s1\n 53538: ra = 666, jump @0\n      : @788 [@dyn 333] (gas: 6)\n 53545: i32 a1 = a0 + 0\n 53547: a0 = 0x1\n 53550: a2 = s1\n 53552: ra = 0x29c\n 53556: ecalli 14 // 'seal_return'\n 53558: fallthrough\n      : @789 [@dyn 334] (gas: 15)\n 53559: sp = sp + 0xffffffffffffffd0\n 53562: u64 [sp + 0x28] = ra\n 53565: u64 [sp + 0x20] = s0\n 53568: s0 = sp + 0x30\n 53571: sp = sp & 0xfffffffffffffff0\n 53574: a1 = u64 [a0]\n 53576: a2 = u64 [a0 + 0x8]\n 53579: a3 = u64 [a0 + 0x10]\n 53582: a0 = u64 [a0 + 0x18]\n 53585: u64 [sp + 0x18] = a0\n 53588: u64 [sp + 0x10] = a3\n 53591: u64 [sp + 0x8] = a2\n 53594: a0 = sp\n 53596: u64 [sp] = a1\n 53598: ra = 670, jump @753\n      : @790 [@dyn 335] (gas: 5)\n 53604: sp = s0 + 0xffffffffffffffd0\n 53607: ra = u64 [sp + 0x28]\n 53610: s0 = u64 [sp + 0x20]\n 53613: sp = sp + 0x30\n 53616: ret\n      : @791 (gas: 17)\n 53618: sp = sp + 0xffffffffffffffa0\n 53621: u64 [sp + 0x58] = ra\n 53624: u64 [sp + 0x50] = s0\n 53627: u64 [sp + 0x48] = s1\n 53630: a3 = u64 [a1 + 0x18]\n 53633: a4 = u64 [a1 + 0x10]\n 53636: a5 = u64 [a1 + 0x8]\n 53639: s1 = u64 [a1]\n 53641: a1 = a5 | a3\n 53644: a2 = s1 | a4\n 53647: a2 = a2 | a1\n 53650: a2 = a2 >> 0x20\n 53653: a1 = a1 | a4\n 53656: a1 = a1 << 0x20\n 53659: a1 = a1 | a2\n 53662: u64 [sp + 0x20] = a0\n 53665: jump @800 if a1 != 0\n      : @792 (gas: 19)\n 53669: a0 = s1 + 0x20\n 53672: u64 [sp + 0x38] = a0\n 53675: a0 = a0 <u s1\n 53678: a1 = a5 + a0\n 53681: u64 [sp + 0x40] = a1\n 53684: u64 [sp + 0x8] = a5\n 53687: s0 = a1 <u a5\n 53690: s0 = a0 if a0 == 0\n 53693: s0 = s0 + a4\n 53696: u64 [sp + 0x10] = a4\n 53699: a0 = s0 <u a4\n 53702: u64 [sp + 0x18] = a3\n 53705: a0 = a0 + a3\n 53708: u64 [sp + 0x30] = a0\n 53711: u64 [sp] = s1\n 53713: i32 a0 = s1 + 0\n 53715: a1 = 0x20\n 53718: s1 = 0x20\n 53721: ra = 672, jump @0\n      : @793 [@dyn 336] (gas: 43)\n 53728: u8 [a0 + 0x1f] = s1\n 53731: a1 = u64 [sp + 0x38]\n 53734: a1 = a1 | s0\n 53737: a2 = u64 [sp + 0x40]\n 53740: a3 = u64 [sp + 0x30]\n 53743: a2 = a2 | a3\n 53746: a1 = a1 | a2\n 53749: a1 = a1 >> 0x20\n 53752: a2 = a2 | s0\n 53755: a2 = a2 << 0x20\n 53758: a1 = a1 | a2\n 53761: u8 [a0 + 30] = 0\n 53764: u8 [a0 + 29] = 0\n 53767: u8 [a0 + 28] = 0\n 53770: u8 [a0 + 27] = 0\n 53773: u8 [a0 + 26] = 0\n 53776: u8 [a0 + 25] = 0\n 53779: u8 [a0 + 24] = 0\n 53782: u8 [a0 + 23] = 0\n 53785: u8 [a0 + 22] = 0\n 53788: u8 [a0 + 21] = 0\n 53791: u8 [a0 + 20] = 0\n 53794: u8 [a0 + 19] = 0\n 53797: u8 [a0 + 18] = 0\n 53800: u8 [a0 + 17] = 0\n 53803: u8 [a0 + 16] = 0\n 53806: u8 [a0 + 15] = 0\n 53809: u8 [a0 + 14] = 0\n 53812: u8 [a0 + 13] = 0\n 53815: u8 [a0 + 12] = 0\n 53818: u8 [a0 + 11] = 0\n 53821: u8 [a0 + 10] = 0\n 53824: u8 [a0 + 9] = 0\n 53827: u8 [a0 + 8] = 0\n 53830: u8 [a0 + 7] = 0\n 53833: u8 [a0 + 6] = 0\n 53836: u8 [a0 + 5] = 0\n 53839: u8 [a0 + 4] = 0\n 53842: u8 [a0 + 3] = 0\n 53845: u8 [a0 + 2] = 0\n 53848: u8 [a0 + 1] = 0\n 53851: u8 [a0 + 0] = 0\n 53853: jump @800 if a1 != 0\n      : @794 (gas: 6)\n 53857: s1 = s0\n 53859: s0 = u64 [sp + 0x38]\n 53862: i32 a0 = s0 + 0\n 53864: a1 = 0x20\n 53867: u64 [sp + 0x28] = a0\n 53870: ra = 674, jump @0\n      : @795 [@dyn 337] (gas: 42)\n 53877: u8 [a0 + 31] = 0x24\n 53881: u8 [a0 + 30] = 0\n 53884: u8 [a0 + 29] = 0\n 53887: u8 [a0 + 28] = 0\n 53890: u8 [a0 + 27] = 0\n 53893: u8 [a0 + 26] = 0\n 53896: u8 [a0 + 25] = 0\n 53899: u8 [a0 + 24] = 0\n 53902: u8 [a0 + 23] = 0\n 53905: u8 [a0 + 22] = 0\n 53908: u8 [a0 + 21] = 0\n 53911: u8 [a0 + 20] = 0\n 53914: u8 [a0 + 19] = 0\n 53917: u8 [a0 + 18] = 0\n 53920: u8 [a0 + 17] = 0\n 53923: u8 [a0 + 16] = 0\n 53926: u8 [a0 + 15] = 0\n 53929: u8 [a0 + 14] = 0\n 53932: u8 [a0 + 13] = 0\n 53935: u8 [a0 + 12] = 0\n 53938: u8 [a0 + 11] = 0\n 53941: u8 [a0 + 10] = 0\n 53944: u8 [a0 + 9] = 0\n 53947: u8 [a0 + 8] = 0\n 53950: u8 [a0 + 7] = 0\n 53953: u8 [a0 + 6] = 0\n 53956: u8 [a0 + 5] = 0\n 53959: u8 [a0 + 4] = 0\n 53962: u8 [a0 + 3] = 0\n 53965: u8 [a0 + 2] = 0\n 53968: u8 [a0 + 1] = 0\n 53971: a1 = u64 [sp + 0x30]\n 53974: a3 = s1 | a1\n 53977: s1 = 0x100000000\n 53987: a1 = 0xffffffe0\n 53997: a1 = s0 <u a1\n 54000: a2 = u64 [sp + 0x40]\n 54003: a1 = 0 if a2 != 0\n 54005: u64 [sp + 0x30] = a3\n 54008: a1 = 0 if a3 != 0\n 54010: u8 [a0 + 0] = 0\n 54012: jump @800 if a1 == 0\n      : @796 (gas: 4)\n 54016: a0 = u64 [sp + 0x28]\n 54019: i32 a0 = a0 + 0x20\n 54022: a1 = 0x20\n 54025: ra = 676, jump @0\n      : @797 [@dyn 338] (gas: 42)\n 54032: u8 [a0 + 27] = 0x73\n 54036: u8 [a0 + 25] = 0x64\n 54040: u8 [a0 + 23] = 0x6c\n 54044: u8 [a0 + 21] = 0x76\n 54048: u8 [a0 + 19] = 0x49\n 54052: u8 [a0 + 26] = 0x20\n 54056: u8 [a0 + 18] = 0x20\n 54060: u8 [a0 + 17] = 0x3a\n 54064: u8 [a0 + 13] = 0x66\n 54068: u8 [a0 + 9] = 0x56\n 54072: u8 [a0 + 31] = 0x61\n 54076: u8 [a0 + 22] = 0x61\n 54080: u8 [a0 + 4] = 0x61\n 54084: u8 [a0 + 30] = 0x6e\n 54088: u8 [a0 + 20] = 0x6e\n 54092: u8 [a0 + 3] = 0x6e\n 54096: u8 [a0 + 29] = 0x67\n 54100: u8 [a0 + 2] = 0x67\n 54104: u8 [a0 + 28] = 0x69\n 54108: u8 [a0 + 24] = 0x69\n 54112: u8 [a0 + 14] = 0x69\n 54116: u8 [a0 + 12] = 0x69\n 54120: u8 [a0 + 1] = 0x69\n 54124: u8 [a0 + 0] = 0x53\n 54127: s0 = 0x72\n 54130: u8 [a0 + 0x10] = s0\n 54133: a1 = s1 + 0xffffffffffffffc0\n 54136: a2 = u64 [sp + 0x38]\n 54139: a1 = a2 <u a1\n 54142: s1 = 0x65\n 54145: u8 [a0 + 0xf] = s1\n 54148: u8 [a0 + 0xb] = s0\n 54151: u8 [a0 + 0xa] = s1\n 54154: u8 [a0 + 0x8] = s1\n 54157: u8 [a0 + 0x7] = s0\n 54160: a2 = u64 [sp + 0x40]\n 54163: a1 = 0 if a2 != 0\n 54165: u8 [a0 + 6] = 0x75\n 54169: a2 = u64 [sp + 0x30]\n 54172: a1 = 0 if a2 != 0\n 54174: u8 [a0 + 5] = 0x74\n 54178: jump @800 if a1 == 0\n      : @798 (gas: 4)\n 54182: a0 = u64 [sp + 0x28]\n 54185: i32 a0 = a0 + 0x40\n 54188: a1 = 0x20\n 54191: ra = 678, jump @0\n      : @799 [@dyn 339] (gas: 54)\n 54198: u8 [a0 + 31] = 0\n 54201: u8 [a0 + 30] = 0\n 54204: u8 [a0 + 29] = 0\n 54207: u8 [a0 + 28] = 0\n 54210: u8 [a0 + 27] = 0\n 54213: u8 [a0 + 26] = 0\n 54216: u8 [a0 + 25] = 0\n 54219: u8 [a0 + 24] = 0\n 54222: u8 [a0 + 23] = 0\n 54225: u8 [a0 + 22] = 0\n 54228: u8 [a0 + 21] = 0\n 54231: u8 [a0 + 20] = 0\n 54234: u8 [a0 + 19] = 0\n 54237: u8 [a0 + 18] = 0\n 54240: u8 [a0 + 17] = 0\n 54243: u8 [a0 + 16] = 0\n 54246: u8 [a0 + 15] = 0\n 54249: u8 [a0 + 14] = 0\n 54252: u8 [a0 + 13] = 0\n 54255: u8 [a0 + 12] = 0\n 54258: u8 [a0 + 11] = 0\n 54261: u8 [a0 + 10] = 0\n 54264: u8 [a0 + 9] = 0\n 54267: u8 [a0 + 8] = 0\n 54270: u8 [a0 + 7] = 0\n 54273: u8 [a0 + 6] = 0\n 54276: u8 [a0 + 5] = 0\n 54279: u8 [a0 + 4] = 0\n 54282: u8 [a0 + 0x3] = s1\n 54285: u8 [a0 + 0x2] = s0\n 54288: u8 [a0 + 1] = 0x75\n 54292: u8 [a0 + 0] = 0x74\n 54295: a1 = u64 [sp]\n 54297: a0 = a1 + 0x80\n 54301: a1 = a0 <u a1\n 54304: a3 = u64 [sp + 0x8]\n 54307: a2 = a3 + a1\n 54310: a3 = a2 <u a3\n 54313: a3 = a1 if a1 == 0\n 54316: a1 = u64 [sp + 0x10]\n 54319: a3 = a3 + a1\n 54322: a1 = a3 <u a1\n 54325: a4 = u64 [sp + 0x18]\n 54328: a1 = a1 + a4\n 54331: a4 = u64 [sp + 0x20]\n 54334: u64 [a4] = a0\n 54336: u64 [a4 + 0x8] = a2\n 54339: u64 [a4 + 0x10] = a3\n 54342: u64 [a4 + 0x18] = a1\n 54345: ra = u64 [sp + 0x58]\n 54348: s0 = u64 [sp + 0x50]\n 54351: s1 = u64 [sp + 0x48]\n 54354: sp = sp + 0x60\n 54357: ret\n      : @800 (gas: 1)\n 54359: trap\n      : @801 [@dyn 340] (gas: 30)\n 54360: a0 = u64 [sp + 0x138]\n 54364: u64 [sp + 0x20] = a0\n 54367: a0 = u64 [sp + 0x130]\n 54371: u64 [sp + 0x18] = a0\n 54374: a0 = u64 [sp + 0x128]\n 54378: u64 [sp + 0x10] = a0\n 54381: a0 = u64 [sp + 0x120]\n 54385: u64 [sp + 0x8] = a0\n 54388: a0 = u64 [sp + 0x110]\n 54392: u64 [sp + 0x38] = a0\n 54395: a0 = u64 [sp + 0x108]\n 54399: u64 [sp + 0x28] = a0\n 54402: a0 = u64 [sp + 0x100]\n 54406: u64 [sp + 0x30] = a0\n 54409: u64 [sp + 344] = 0\n 54413: u64 [sp + 336] = 0\n 54417: u64 [sp + 328] = 0\n 54421: u64 [sp + 320] = 0x2\n 54426: u64 [sp + 376] = 0\n 54430: u64 [sp + 368] = 0\n 54434: u64 [sp + 360] = 0\n 54438: u64 [sp + 352] = 0\n 54442: u32 [sp + 384] = 0x20\n 54447: i32 a1 = sp + 0x140\n 54451: i32 a3 = sp + 0x160\n 54455: i32 a4 = sp + 0x180\n 54459: a2 = 0xffffffffffffffff\n 54462: a0 = 0\n 54464: ecalli 8 // 'get_storage'\n 54466: fallthrough\n      : @802 (gas: 14)\n 54467: a0 = u64 [sp + 0x168]\n 54471: a1 = u64 [sp + 0x160]\n 54475: a2 = u64 [sp + 0x170]\n 54479: a3 = u64 [sp + 0x28]\n 54482: a0 = a0 ^ a3\n 54485: a3 = u64 [sp + 0x30]\n 54488: a1 = a1 ^ a3\n 54491: a3 = u64 [sp + 0x38]\n 54494: a2 = a2 ^ a3\n 54497: a2 = a2 << 0x20\n 54500: a2 = a2 >> 0x20\n 54503: a0 = a0 | a1\n 54506: a0 = a0 | a2\n 54509: jump @804 if a0 != 0\n      : @803 (gas: 14)\n 54512: a0 = u64 [sp + 0x8]\n 54515: u64 [s1] = a0\n 54517: a0 = u64 [sp + 0x10]\n 54520: u64 [s1 + 0x8] = a0\n 54523: a0 = u64 [sp + 0x18]\n 54526: u64 [s1 + 0x10] = a0\n 54529: a0 = u64 [sp + 0x20]\n 54532: u64 [s1 + 0x18] = a0\n 54535: sp = s0 + 0xfffffffffffffe60\n 54539: ra = u64 [sp + 0x198]\n 54543: s0 = u64 [sp + 0x190]\n 54547: s1 = u64 [sp + 0x188]\n 54551: sp = sp + 0x1a0\n 54555: ret\n      : @804 (gas: 3)\n 54557: a0 = 0x40\n 54560: a1 = 0x20\n 54563: ra = 682, jump @0\n      : @805 [@dyn 341] (gas: 103)\n 54570: a1 = u8 [a0 + 0x11]\n 54573: a2 = u8 [a0 + 0x10]\n 54576: a3 = u8 [a0 + 0x12]\n 54579: a4 = u8 [a0 + 0x13]\n 54582: a1 = a1 << 0x8\n 54585: a1 = a1 | a2\n 54588: a3 = a3 << 0x10\n 54591: a4 = a4 << 0x18\n 54594: a3 = a3 | a4\n 54597: a1 = a1 | a3\n 54600: a2 = u8 [a0 + 0x15]\n 54603: a3 = u8 [a0 + 0x14]\n 54606: a4 = u8 [a0 + 0x16]\n 54609: a5 = u8 [a0 + 0x17]\n 54612: a2 = a2 << 0x8\n 54615: a2 = a2 | a3\n 54618: a4 = a4 << 0x10\n 54621: a5 = a5 << 0x18\n 54624: a4 = a4 | a5\n 54627: a2 = a2 | a4\n 54630: a2 = a2 << 0x20\n 54633: t0 = a2 | a1\n 54636: a2 = u8 [a0 + 0x1]\n 54639: a3 = u8 [a0]\n 54641: a4 = u8 [a0 + 0x2]\n 54644: a5 = u8 [a0 + 0x3]\n 54647: a2 = a2 << 0x8\n 54650: a2 = a2 | a3\n 54653: a4 = a4 << 0x10\n 54656: a5 = a5 << 0x18\n 54659: a4 = a4 | a5\n 54662: a2 = a2 | a4\n 54665: a3 = u8 [a0 + 0x5]\n 54668: a4 = u8 [a0 + 0x4]\n 54671: a5 = u8 [a0 + 0x6]\n 54674: s1 = u8 [a0 + 0x7]\n 54677: a3 = a3 << 0x8\n 54680: a3 = a3 | a4\n 54683: a5 = a5 << 0x10\n 54686: s1 = s1 << 0x18\n 54689: a5 = a5 | s1\n 54692: a3 = a3 | a5\n 54695: a3 = a3 << 0x20\n 54698: a2 = a2 | a3\n 54701: a3 = u8 [a0 + 0x19]\n 54704: a4 = u8 [a0 + 0x18]\n 54707: a5 = u8 [a0 + 0x1a]\n 54710: s1 = u8 [a0 + 0x1b]\n 54713: a3 = a3 << 0x8\n 54716: a3 = a3 | a4\n 54719: a5 = a5 << 0x10\n 54722: s1 = s1 << 0x18\n 54725: a5 = a5 | s1\n 54728: a3 = a3 | a5\n 54731: a4 = u8 [a0 + 0x1d]\n 54734: a5 = u8 [a0 + 0x1c]\n 54737: s1 = u8 [a0 + 0x1e]\n 54740: a1 = u8 [a0 + 0x1f]\n 54743: a4 = a4 << 0x8\n 54746: a4 = a4 | a5\n 54749: s1 = s1 << 0x10\n 54752: a1 = a1 << 0x18\n 54755: a1 = a1 | s1\n 54758: a1 = a1 | a4\n 54761: a1 = a1 << 0x20\n 54764: a3 = a3 | a1\n 54767: a1 = u8 [a0 + 0x9]\n 54770: a4 = u8 [a0 + 0x8]\n 54773: a5 = u8 [a0 + 0xa]\n 54776: s1 = u8 [a0 + 0xb]\n 54779: a1 = a1 << 0x8\n 54782: a1 = a1 | a4\n 54785: a5 = a5 << 0x10\n 54788: s1 = s1 << 0x18\n 54791: a5 = a5 | s1\n 54794: a1 = a1 | a5\n 54797: a4 = u8 [a0 + 0xd]\n 54800: a5 = u8 [a0 + 0xc]\n 54803: s1 = u8 [a0 + 0xe]\n 54806: a0 = u8 [a0 + 0xf]\n 54809: a4 = a4 << 0x8\n 54812: a4 = a4 | a5\n 54815: s1 = s1 << 0x10\n 54818: a0 = a0 << 0x18\n 54821: a0 = a0 | s1\n 54824: a0 = a0 | a4\n 54827: a0 = a0 << 0x20\n 54830: a0 = a0 | a1\n 54833: s1 = reverse a0\n 54835: a1 = reverse a3\n 54837: a2 = reverse a2\n 54839: a0 = reverse t0\n 54841: u64 [sp + 0x38] = a0\n 54844: u64 [sp + 0x30] = a2\n 54847: a0 = a0 | a2\n 54850: a2 = a1\n 54852: a1 = a1 | s1\n 54855: a1 = a1 | a0\n 54858: a1 = a1 >> 0x20\n 54861: a0 = a0 | s1\n 54864: a0 = a0 << 0x20\n 54867: a0 = a0 | a1\n 54870: jump @809 if a0 != 0\n      : @806 (gas: 5)\n 54874: u64 [sp + 0x28] = a2\n 54877: i32 a0 = a2 + 0\n 54879: a1 = 0x20\n 54882: u64 [sp + 0x20] = a0\n 54885: ra = 684, jump @0\n      : @807 [@dyn 342] (gas: 50)\n 54892: u8 [a0 + 31] = 0\n 54895: u8 [a0 + 30] = 0\n 54898: u8 [a0 + 29] = 0\n 54901: u8 [a0 + 28] = 0\n 54904: u8 [a0 + 27] = 0\n 54907: u8 [a0 + 26] = 0\n 54910: u8 [a0 + 25] = 0\n 54913: u8 [a0 + 24] = 0\n 54916: u8 [a0 + 23] = 0\n 54919: u8 [a0 + 22] = 0\n 54922: u8 [a0 + 21] = 0\n 54925: u8 [a0 + 20] = 0\n 54928: u8 [a0 + 19] = 0\n 54931: u8 [a0 + 18] = 0\n 54934: u8 [a0 + 17] = 0\n 54937: u8 [a0 + 16] = 0\n 54940: u8 [a0 + 15] = 0\n 54943: u8 [a0 + 14] = 0\n 54946: u8 [a0 + 13] = 0\n 54949: u8 [a0 + 12] = 0\n 54952: u8 [a0 + 11] = 0\n 54955: u8 [a0 + 10] = 0\n 54958: u8 [a0 + 9] = 0\n 54961: u8 [a0 + 8] = 0\n 54964: u8 [a0 + 7] = 0\n 54967: u8 [a0 + 6] = 0\n 54970: u8 [a0 + 5] = 0\n 54973: u8 [a0 + 4] = 0\n 54976: u8 [a0 + 3] = 0xa0\n 54981: u8 [a0 + 2] = 0x79\n 54985: u8 [a0 + 1] = 0xc3\n 54990: u8 [a0 + 0] = 0x8\n 54993: a1 = u64 [sp + 0x28]\n 54996: a0 = a1 + 0x4\n 54999: a1 = a0 <u a1\n 55002: a3 = u64 [sp + 0x38]\n 55005: a2 = a3 + a1\n 55008: a3 = a2 <u a3\n 55011: a3 = a1 if a1 == 0\n 55014: a3 = a3 + s1\n 55017: a1 = a3 <u s1\n 55020: a4 = u64 [sp + 0x30]\n 55023: a4 = a4 + a1\n 55026: u64 [sp + 0x48] = a2\n 55029: u64 [sp + 0x40] = a0\n 55032: u64 [sp + 0x50] = a3\n 55035: a0 = sp + 0x60\n 55038: a1 = sp + 0x40\n 55041: u64 [sp + 0x58] = a4\n 55044: ra = 686, jump @791\n      : @808 [@dyn 343] (gas: 30)\n 55050: a0 = u64 [sp + 0x68]\n 55053: t0 = u64 [sp + 0x78]\n 55056: t1 = u64 [sp + 0x60]\n 55059: a3 = u64 [sp + 0x70]\n 55062: a1 = u64 [sp + 0x38]\n 55065: a4 = a0 ^ a1\n 55068: a5 = a0 <u a1\n 55071: t2 = a1\n 55073: a2 = u64 [sp + 0x28]\n 55076: a1 = t1 <u a2\n 55079: a5 = a1 if a4 == 0\n 55082: a4 = a3 - s1\n 55085: a3 = a3 <u s1\n 55088: s1 = u64 [sp + 0x30]\n 55091: s1 = t0 - s1\n 55094: s1 = s1 - a3\n 55097: a3 = a4 <u a5\n 55100: s1 = s1 - a3\n 55103: a4 = a4 - a5\n 55106: a0 = a0 - t2\n 55109: a1 = a0 - a1\n 55112: a0 = t1 - a2\n 55115: a1 = a1 | s1\n 55118: a2 = a0 | a4\n 55121: a2 = a2 | a1\n 55124: a1 = a1 | a4\n 55127: a2 = a2 >> 0x20\n 55130: a1 = a1 << 0x20\n 55133: a1 = a1 | a2\n 55136: jump @810 if a1 == 0\n      : @809 (gas: 1)\n 55139: trap\n      : @810 (gas: 4)\n 55140: i32 s1 = a0 + 0\n 55142: a0 = u64 [sp + 0x20]\n 55145: a1 = s1\n 55147: ra = 688, jump @0\n      : @811 [@dyn 344] (gas: 6)\n 55154: i32 a1 = a0 + 0\n 55156: a0 = 0x1\n 55159: a2 = s1\n 55161: ra = 0x2b2\n 55165: ecalli 14 // 'seal_return'\n 55167: fallthrough\n      : @812 [@dyn 345] (gas: 9)\n 55168: a2 = u64 [a1 + 0x18]\n 55171: a3 = u64 [a1 + 0x10]\n 55174: a4 = u64 [a1 + 0x8]\n 55177: a1 = u64 [a1]\n 55179: u64 [a0 + 0x18] = a2\n 55182: u64 [a0 + 0x10] = a3\n 55185: u64 [a0 + 0x8] = a4\n 55188: u64 [a0] = a1\n 55190: ret\n      : @813 (gas: 17)\n 55192: sp = sp + 0xffffffffffffffa0\n 55195: u64 [sp + 0x58] = ra\n 55198: u64 [sp + 0x50] = s0\n 55201: u64 [sp + 0x48] = s1\n 55204: a3 = u64 [a1 + 0x18]\n 55207: a4 = u64 [a1 + 0x10]\n 55210: a5 = u64 [a1 + 0x8]\n 55213: s1 = u64 [a1]\n 55215: a1 = a5 | a3\n 55218: a2 = s1 | a4\n 55221: a2 = a2 | a1\n 55224: a2 = a2 >> 0x20\n 55227: a1 = a1 | a4\n 55230: a1 = a1 << 0x20\n 55233: a1 = a1 | a2\n 55236: u64 [sp + 0x28] = a0\n 55239: jump @820 if a1 != 0\n      : @814 (gas: 19)\n 55243: a0 = s1 + 0x20\n 55246: u64 [sp + 0x30] = a0\n 55249: a0 = a0 <u s1\n 55252: a1 = a5 + a0\n 55255: u64 [sp + 0x40] = a1\n 55258: u64 [sp + 0x8] = a5\n 55261: s0 = a1 <u a5\n 55264: s0 = a0 if a0 == 0\n 55267: s0 = s0 + a4\n 55270: u64 [sp + 0x10] = a4\n 55273: a0 = s0 <u a4\n 55276: u64 [sp + 0x18] = a3\n 55279: a0 = a0 + a3\n 55282: u64 [sp + 0x38] = a0\n 55285: u64 [sp] = s1\n 55287: i32 a0 = s1 + 0\n 55289: a1 = 0x20\n 55292: s1 = 0x20\n 55295: ra = 692, jump @0\n      : @815 [@dyn 346] (gas: 45)\n 55302: u8 [a0 + 0x1f] = s1\n 55305: a1 = u64 [sp + 0x30]\n 55308: s1 = a1\n 55310: a1 = a1 | s0\n 55313: a2 = u64 [sp + 0x40]\n 55316: a4 = u64 [sp + 0x38]\n 55319: a2 = a2 | a4\n 55322: a1 = a1 | a2\n 55325: a1 = a1 >> 0x20\n 55328: u64 [sp + 0x20] = s0\n 55331: a2 = a2 | s0\n 55334: a2 = a2 << 0x20\n 55337: a1 = a1 | a2\n 55340: u8 [a0 + 30] = 0\n 55343: u8 [a0 + 29] = 0\n 55346: u8 [a0 + 28] = 0\n 55349: u8 [a0 + 27] = 0\n 55352: u8 [a0 + 26] = 0\n 55355: u8 [a0 + 25] = 0\n 55358: u8 [a0 + 24] = 0\n 55361: u8 [a0 + 23] = 0\n 55364: u8 [a0 + 22] = 0\n 55367: u8 [a0 + 21] = 0\n 55370: u8 [a0 + 20] = 0\n 55373: u8 [a0 + 19] = 0\n 55376: u8 [a0 + 18] = 0\n 55379: u8 [a0 + 17] = 0\n 55382: u8 [a0 + 16] = 0\n 55385: u8 [a0 + 15] = 0\n 55388: u8 [a0 + 14] = 0\n 55391: u8 [a0 + 13] = 0\n 55394: u8 [a0 + 12] = 0\n 55397: u8 [a0 + 11] = 0\n 55400: u8 [a0 + 10] = 0\n 55403: u8 [a0 + 9] = 0\n 55406: u8 [a0 + 8] = 0\n 55409: u8 [a0 + 7] = 0\n 55412: u8 [a0 + 6] = 0\n 55415: u8 [a0 + 5] = 0\n 55418: u8 [a0 + 4] = 0\n 55421: u8 [a0 + 3] = 0\n 55424: u8 [a0 + 2] = 0\n 55427: u8 [a0 + 1] = 0\n 55430: u8 [a0 + 0] = 0\n 55432: jump @820 if a1 != 0\n      : @816 (gas: 4)\n 55436: i32 s0 = s1 + 0\n 55438: a1 = 0x20\n 55441: a0 = s0\n 55443: ra = 694, jump @0\n      : @817 [@dyn 347] (gas: 41)\n 55450: u8 [a0 + 31] = 0x1b\n 55454: u8 [a0 + 30] = 0\n 55457: u8 [a0 + 29] = 0\n 55460: u8 [a0 + 28] = 0\n 55463: u8 [a0 + 27] = 0\n 55466: u8 [a0 + 26] = 0\n 55469: u8 [a0 + 25] = 0\n 55472: u8 [a0 + 24] = 0\n 55475: u8 [a0 + 23] = 0\n 55478: u8 [a0 + 22] = 0\n 55481: u8 [a0 + 21] = 0\n 55484: u8 [a0 + 20] = 0\n 55487: u8 [a0 + 19] = 0\n 55490: u8 [a0 + 18] = 0\n 55493: u8 [a0 + 17] = 0\n 55496: u8 [a0 + 16] = 0\n 55499: u8 [a0 + 15] = 0\n 55502: u8 [a0 + 14] = 0\n 55505: u8 [a0 + 13] = 0\n 55508: u8 [a0 + 12] = 0\n 55511: u8 [a0 + 11] = 0\n 55514: u8 [a0 + 10] = 0\n 55517: u8 [a0 + 9] = 0\n 55520: u8 [a0 + 8] = 0\n 55523: u8 [a0 + 7] = 0\n 55526: u8 [a0 + 6] = 0\n 55529: u8 [a0 + 5] = 0\n 55532: u8 [a0 + 4] = 0\n 55535: u8 [a0 + 3] = 0\n 55538: u8 [a0 + 2] = 0\n 55541: u8 [a0 + 1] = 0\n 55544: a1 = u64 [sp + 0x20]\n 55547: a2 = u64 [sp + 0x38]\n 55550: a1 = a1 | a2\n 55553: a2 = 0xffffffe0\n 55563: a2 = s1 <u a2\n 55566: a3 = u64 [sp + 0x40]\n 55569: a2 = 0 if a3 != 0\n 55571: a2 = 0 if a1 != 0\n 55573: u8 [a0 + 0] = 0\n 55575: jump @820 if a2 == 0\n      : @818 (gas: 3)\n 55579: i32 a0 = s0 + 0x20\n 55582: a1 = 0x20\n 55585: ra = 696, jump @0\n      : @819 [@dyn 348] (gas: 54)\n 55592: u8 [a0 + 23] = 0x65\n 55596: u8 [a0 + 20] = 0x68\n 55600: u8 [a0 + 17] = 0x75\n 55604: u8 [a0 + 16] = 0x70\n 55608: u8 [a0 + 26] = 0x64\n 55612: u8 [a0 + 14] = 0x64\n 55616: u8 [a0 + 12] = 0x6c\n 55620: u8 [a0 + 21] = 0x61\n 55624: u8 [a0 + 11] = 0x61\n 55628: u8 [a0 + 10] = 0x76\n 55632: u8 [a0 + 9] = 0x6e\n 55636: u8 [a0 + 25] = 0x69\n 55640: u8 [a0 + 13] = 0x69\n 55644: u8 [a0 + 8] = 0x69\n 55648: u8 [a0 + 31] = 0\n 55651: u8 [a0 + 30] = 0\n 55654: u8 [a0 + 29] = 0\n 55657: u8 [a0 + 28] = 0\n 55660: u8 [a0 + 27] = 0\n 55663: u8 [a0 + 24] = 0x20\n 55667: u8 [a0 + 15] = 0x20\n 55671: u8 [a0 + 7] = 0x20\n 55675: u8 [a0 + 6] = 0x3a\n 55679: u8 [a0 + 5] = 0x77\n 55683: u8 [a0 + 4] = 0x6f\n 55687: u8 [a0 + 18] = 0x72\n 55691: u8 [a0 + 3] = 0x72\n 55695: u8 [a0 + 19] = 0x63\n 55699: u8 [a0 + 2] = 0x63\n 55703: u8 [a0 + 22] = 0x73\n 55707: u8 [a0 + 1] = 0x73\n 55711: u8 [a0 + 0] = 0x45\n 55714: a1 = u64 [sp]\n 55716: a0 = a1 + 0x60\n 55719: a1 = a0 <u a1\n 55722: a3 = u64 [sp + 0x8]\n 55725: a2 = a3 + a1\n 55728: a3 = a2 <u a3\n 55731: a3 = a1 if a1 == 0\n 55734: a1 = u64 [sp + 0x10]\n 55737: a3 = a3 + a1\n 55740: a1 = a3 <u a1\n 55743: a4 = u64 [sp + 0x18]\n 55746: a1 = a1 + a4\n 55749: a4 = u64 [sp + 0x28]\n 55752: u64 [a4] = a0\n 55754: u64 [a4 + 0x8] = a2\n 55757: u64 [a4 + 0x10] = a3\n 55760: u64 [a4 + 0x18] = a1\n 55763: ra = u64 [sp + 0x58]\n 55766: s0 = u64 [sp + 0x50]\n 55769: s1 = u64 [sp + 0x48]\n 55772: sp = sp + 0x60\n 55775: ret\n      : @820 (gas: 1)\n 55777: trap\n      : @821 (gas: 17)\n 55778: sp = sp + 0xffffffffffffff38\n 55782: u64 [sp + 0xc0] = ra\n 55786: u64 [sp + 0xb8] = s0\n 55790: u64 [sp + 0xb0] = s1\n 55794: t0 = u64 [a1 + 0x18]\n 55797: s0 = u64 [a1 + 0x10]\n 55800: t1 = u64 [a1 + 0x8]\n 55803: s1 = u64 [a1]\n 55805: a1 = t1 | t0\n 55808: a5 = s1 | s0\n 55811: a5 = a5 | a1\n 55814: a5 = a5 >> 0x20\n 55817: a1 = a1 | s0\n 55820: a1 = a1 << 0x20\n 55823: a1 = a1 | a5\n 55826: u64 [sp + 0x30] = a0\n 55829: jump @834 if a1 != 0\n      : @822 (gas: 43)\n 55833: a0 = u64 [a4 + 0x18]\n 55836: u64 [sp + 0x8] = a0\n 55839: a0 = u64 [a4 + 0x10]\n 55842: u64 [sp + 0x10] = a0\n 55845: a0 = u64 [a4 + 0x8]\n 55848: u64 [sp + 0x18] = a0\n 55851: a0 = u64 [a4]\n 55853: u64 [sp + 0x20] = a0\n 55856: a0 = u64 [a3 + 0x18]\n 55859: u64 [sp + 0x88] = a0\n 55863: a0 = u64 [a3 + 0x10]\n 55866: u64 [sp + 0x80] = a0\n 55870: a0 = s1 + 0x40\n 55873: u64 [sp + 0xa0] = a0\n 55877: a0 = a0 <u s1\n 55880: a1 = t1 + a0\n 55883: u64 [sp + 0x98] = a1\n 55887: u64 [sp + 0x40] = t1\n 55890: a1 = a1 <u t1\n 55893: a1 = a0 if a0 == 0\n 55896: a0 = u64 [a3 + 0x8]\n 55899: u64 [sp + 0x78] = a0\n 55902: a0 = u64 [a3]\n 55904: u64 [sp + 0xa8] = a0\n 55908: a0 = u64 [a2 + 0x18]\n 55911: u64 [sp + 0x60] = a0\n 55914: a0 = u64 [a2 + 0x10]\n 55917: u64 [sp + 0x68] = a0\n 55920: a0 = u64 [a2 + 0x8]\n 55923: u64 [sp + 0x58] = a0\n 55926: a0 = u64 [a2]\n 55928: u64 [sp + 0x70] = a0\n 55931: a1 = a1 + s0\n 55934: u64 [sp + 0x90] = a1\n 55938: u64 [sp + 0x48] = s0\n 55941: a0 = a1 <u s0\n 55944: u64 [sp + 0x50] = t0\n 55947: s0 = t0 + a0\n 55950: u64 [sp + 0x38] = s1\n 55953: i32 a0 = s1 + 0\n 55955: a1 = 0x20\n 55958: u64 [sp] = a0\n 55960: ra = 698, jump @0\n      : @823 [@dyn 349] (gas: 43)\n 55967: a3 = u64 [sp + 0xa0]\n 55971: u8 [a0 + 31] = 0x40\n 55975: a4 = u64 [sp + 0x90]\n 55979: a1 = a3 | a4\n 55982: a2 = u64 [sp + 0x98]\n 55986: a2 = a2 | s0\n 55989: a1 = a1 | a2\n 55992: a1 = a1 >> 0x20\n 55995: a2 = a2 | a4\n 55998: a2 = a2 << 0x20\n 56001: a1 = a1 | a2\n 56004: u8 [a0 + 30] = 0\n 56007: u8 [a0 + 29] = 0\n 56010: u8 [a0 + 28] = 0\n 56013: u8 [a0 + 27] = 0\n 56016: u8 [a0 + 26] = 0\n 56019: u8 [a0 + 25] = 0\n 56022: u8 [a0 + 24] = 0\n 56025: u8 [a0 + 23] = 0\n 56028: u8 [a0 + 22] = 0\n 56031: u8 [a0 + 21] = 0\n 56034: u8 [a0 + 20] = 0\n 56037: u8 [a0 + 19] = 0\n 56040: u8 [a0 + 18] = 0\n 56043: u8 [a0 + 17] = 0\n 56046: u8 [a0 + 16] = 0\n 56049: u8 [a0 + 15] = 0\n 56052: u8 [a0 + 14] = 0\n 56055: u8 [a0 + 13] = 0\n 56058: u8 [a0 + 12] = 0\n 56061: u8 [a0 + 11] = 0\n 56064: u8 [a0 + 10] = 0\n 56067: u8 [a0 + 9] = 0\n 56070: u8 [a0 + 8] = 0\n 56073: u8 [a0 + 7] = 0\n 56076: u8 [a0 + 6] = 0\n 56079: u8 [a0 + 5] = 0\n 56082: u8 [a0 + 4] = 0\n 56085: u8 [a0 + 3] = 0\n 56088: u8 [a0 + 2] = 0\n 56091: u8 [a0 + 1] = 0\n 56094: u8 [a0 + 0] = 0\n 56096: jump @834 if a1 != 0\n      : @824 (gas: 4)\n 56100: u64 [sp + 0x28] = s0\n 56103: i32 a0 = a3 + 0\n 56105: a1 = 0x20\n 56108: ra = 700, jump @0\n      : @825 [@dyn 350] (gas: 80)\n 56115: t1 = u64 [sp + 0xa8]\n 56119: a1 = reverse t1\n 56121: a2 = a1 >> 0x38\n 56124: u8 [a0 + 0x1f] = a2\n 56127: a2 = a1 >> 0x30\n 56130: u8 [a0 + 0x1e] = a2\n 56133: a2 = a1 >> 0x28\n 56136: u8 [a0 + 0x1d] = a2\n 56139: a2 = a1 >> 0x20\n 56142: u8 [a0 + 0x1c] = a2\n 56145: a2 = a1 >> 0x18\n 56148: u8 [a0 + 0x1b] = a2\n 56151: a2 = a1 >> 0x10\n 56154: u8 [a0 + 0x1a] = a2\n 56157: a2 = a1 >> 0x8\n 56160: u8 [a0 + 0x19] = a2\n 56163: s1 = u64 [sp + 0x78]\n 56166: a2 = reverse s1\n 56168: u8 [a0 + 0x18] = a1\n 56171: a1 = a2 >> 0x38\n 56174: u8 [a0 + 0x17] = a1\n 56177: a1 = a2 >> 0x30\n 56180: u8 [a0 + 0x16] = a1\n 56183: a1 = a2 >> 0x28\n 56186: u8 [a0 + 0x15] = a1\n 56189: a1 = a2 >> 0x20\n 56192: u8 [a0 + 0x14] = a1\n 56195: a1 = a2 >> 0x18\n 56198: u8 [a0 + 0x13] = a1\n 56201: a1 = a2 >> 0x10\n 56204: u8 [a0 + 0x12] = a1\n 56207: a5 = u64 [sp + 0x80]\n 56211: a3 = reverse a5\n 56213: u8 [a0 + 0x10] = a2\n 56216: a2 = a2 >> 0x8\n 56219: u8 [a0 + 0x11] = a2\n 56222: a1 = a3 >> 0x38\n 56225: u8 [a0 + 0xf] = a1\n 56228: a1 = a3 >> 0x30\n 56231: u8 [a0 + 0xe] = a1\n 56234: a1 = a3 >> 0x28\n 56237: u8 [a0 + 0xd] = a1\n 56240: a1 = a3 >> 0x20\n 56243: u8 [a0 + 0xc] = a1\n 56246: a1 = a3 >> 0x18\n 56249: u8 [a0 + 0xb] = a1\n 56252: a1 = a3 >> 0x10\n 56255: u8 [a0 + 0xa] = a1\n 56258: a4 = u64 [sp + 0x88]\n 56262: a1 = reverse a4\n 56264: u8 [a0 + 0x8] = a3\n 56267: a3 = a3 >> 0x8\n 56270: u8 [a0 + 0x9] = a3\n 56273: a2 = a1 >> 0x38\n 56276: u8 [a0 + 0x7] = a2\n 56279: a2 = a1 >> 0x30\n 56282: u8 [a0 + 0x6] = a2\n 56285: a2 = a1 >> 0x28\n 56288: u8 [a0 + 0x5] = a2\n 56291: a2 = a1 >> 0x20\n 56294: u8 [a0 + 0x4] = a2\n 56297: a2 = a1 >> 0x18\n 56300: u8 [a0 + 0x3] = a2\n 56303: a2 = a1 >> 0x10\n 56306: u8 [a0 + 0x2] = a2\n 56309: a2 = u64 [sp + 0x60]\n 56312: s0 = u64 [sp + 0x58]\n 56315: s0 = s0 | a2\n 56318: t2 = u64 [sp + 0x70]\n 56321: a2 = u64 [sp + 0x68]\n 56324: a3 = t2 | a2\n 56327: a3 = a3 | s0\n 56330: a2 = a2 | s0\n 56333: a3 = a3 >> 0x20\n 56336: a2 = a2 << 0x20\n 56339: a2 = a2 | a3\n 56342: u8 [a0] = a1\n 56344: a1 = a1 >> 0x8\n 56347: u8 [a0 + 0x1] = a1\n 56350: jump @834 if a2 != 0\n      : @826 (gas: 13)\n 56354: a1 = a4\n 56356: a0 = t1 | a5\n 56359: a1 = a1 | s1\n 56362: a0 = a0 | a1\n 56365: a0 = a0 >> 0x20\n 56368: a1 = a1 | a5\n 56371: a1 = a1 << 0x20\n 56374: a0 = a0 | a1\n 56377: t0 = u64 [sp + 0x50]\n 56380: a4 = u64 [sp + 0x48]\n 56383: s0 = u64 [sp + 0x40]\n 56386: a2 = u64 [sp + 0x38]\n 56389: jump @834 if a0 != 0\n      : @827 (gas: 10)\n 56393: a0 = u64 [sp + 0x90]\n 56397: a1 = u64 [sp + 0x28]\n 56400: a0 = a0 | a1\n 56403: a1 = 0xffffffe0\n 56413: a3 = u64 [sp + 0xa0]\n 56417: a1 = a3 <u a1\n 56420: a3 = u64 [sp + 0x98]\n 56424: a1 = 0 if a3 != 0\n 56426: a1 = 0 if a0 != 0\n 56428: jump @834 if a1 == 0\n      : @828 (gas: 17)\n 56432: s1 = a2 + 0x60\n 56435: a0 = s1 <u a2\n 56438: a1 = s0 + a0\n 56441: u64 [sp + 0x98] = a1\n 56445: a1 = a1 <u s0\n 56448: a1 = a0 if a0 == 0\n 56451: a1 = a1 + a4\n 56454: u64 [sp + 0xa0] = a1\n 56458: a0 = a1 <u a4\n 56461: a0 = a0 + t0\n 56464: u64 [sp + 0x90] = a0\n 56468: i32 t2 = t2 + 0\n 56470: u64 [sp + 0x70] = t2\n 56473: i32 a0 = s1 + 0\n 56475: i32 s0 = t1 + 0\n 56477: a1 = s0\n 56479: ra = 702, jump @0\n      : @829 [@dyn 351] (gas: 6)\n 56486: i32 a0 = a0 + 0\n 56488: a1 = s0\n 56490: s0 = u64 [sp + 0x98]\n 56494: a2 = u64 [sp + 0x70]\n 56497: ecalli 2 // 'call_data_copy'\n 56499: fallthrough\n      : @830 (gas: 29)\n 56500: a0 = u64 [sp + 0xa8]\n 56504: a0 = a0 + s1\n 56507: u64 [sp + 0x70] = s1\n 56510: a1 = a0 <u s1\n 56513: a2 = u64 [sp + 0x78]\n 56516: a2 = a2 + s0\n 56519: a2 = a2 + a1\n 56522: a3 = a2 ^ s0\n 56525: a4 = a2 <u s0\n 56528: a4 = a1 if a3 == 0\n 56531: a1 = u64 [sp + 0x80]\n 56535: a5 = u64 [sp + 0xa0]\n 56539: a1 = a1 + a5\n 56542: a4 = a4 + a1\n 56545: a3 = a4 <u a1\n 56548: a1 = a1 <u a5\n 56551: a5 = u64 [sp + 0x88]\n 56555: s1 = u64 [sp + 0x90]\n 56559: a5 = a5 + s1\n 56562: a1 = a1 + a5\n 56565: a1 = a1 + a3\n 56568: a3 = a0 | a4\n 56571: a1 = a1 | a2\n 56574: a3 = a3 | a1\n 56577: a3 = a3 >> 0x20\n 56580: a1 = a1 | a4\n 56583: a1 = a1 << 0x20\n 56586: a1 = a1 | a3\n 56589: jump @834 if a1 != 0\n      : @831 (gas: 3)\n 56593: i32 a0 = a0 + 0\n 56595: a1 = 0x20\n 56598: ra = 704, jump @0\n      : @832 [@dyn 352] (gas: 53)\n 56605: u8 [a0 + 31] = 0\n 56608: u8 [a0 + 30] = 0\n 56611: u8 [a0 + 29] = 0\n 56614: u8 [a0 + 28] = 0\n 56617: u8 [a0 + 27] = 0\n 56620: u8 [a0 + 26] = 0\n 56623: u8 [a0 + 25] = 0\n 56626: u8 [a0 + 24] = 0\n 56629: u8 [a0 + 23] = 0\n 56632: u8 [a0 + 22] = 0\n 56635: u8 [a0 + 21] = 0\n 56638: u8 [a0 + 20] = 0\n 56641: u8 [a0 + 19] = 0\n 56644: u8 [a0 + 18] = 0\n 56647: u8 [a0 + 17] = 0\n 56650: u8 [a0 + 16] = 0\n 56653: u8 [a0 + 15] = 0\n 56656: u8 [a0 + 14] = 0\n 56659: u8 [a0 + 13] = 0\n 56662: u8 [a0 + 12] = 0\n 56665: u8 [a0 + 11] = 0\n 56668: u8 [a0 + 10] = 0\n 56671: u8 [a0 + 9] = 0\n 56674: u8 [a0 + 8] = 0\n 56677: u8 [a0 + 7] = 0\n 56680: u8 [a0 + 6] = 0\n 56683: u8 [a0 + 5] = 0\n 56686: u8 [a0 + 4] = 0\n 56689: u8 [a0 + 3] = 0\n 56692: u8 [a0 + 2] = 0\n 56695: u8 [a0 + 1] = 0\n 56698: u8 [a0 + 0] = 0\n 56700: a0 = u64 [sp + 0xa8]\n 56704: a0 = a0 + 0x1f\n 56707: a1 = 0x1ffffffe0\n 56717: a0 = a0 & a1\n 56720: a1 = u64 [sp + 0x70]\n 56723: a1 = a1 + a0\n 56726: u64 [sp + 0xa8] = a1\n 56730: s0 = a1 <u a0\n 56733: s1 = u64 [sp + 0x98]\n 56737: s1 = s1 + s0\n 56740: s0 = 0 if s1 != 0\n 56742: a0 = u64 [sp + 0xa0]\n 56746: s0 = s0 + a0\n 56749: a0 = s0 <u a0\n 56752: a1 = u64 [sp + 0x90]\n 56756: a0 = a0 + a1\n 56759: u64 [sp + 0xa0] = a0\n 56763: a0 = u64 [sp]\n 56765: i32 a0 = a0 + 0x20\n 56768: a1 = 0x20\n 56771: ra = 706, jump @0\n      : @833 [@dyn 353] (gas: 80)\n 56778: a1 = u64 [sp + 0x8]\n 56781: a1 = reverse a1\n 56783: a2 = u64 [sp + 0x10]\n 56786: a2 = reverse a2\n 56788: a3 = u64 [sp + 0x18]\n 56791: a3 = reverse a3\n 56793: a4 = u64 [sp + 0x20]\n 56796: a4 = reverse a4\n 56798: a5 = a4 >> 0x38\n 56801: u8 [a0 + 0x1f] = a5\n 56804: a5 = a4 >> 0x30\n 56807: u8 [a0 + 0x1e] = a5\n 56810: a5 = a4 >> 0x28\n 56813: u8 [a0 + 0x1d] = a5\n 56816: a5 = a4 >> 0x20\n 56819: u8 [a0 + 0x1c] = a5\n 56822: a5 = a4 >> 0x18\n 56825: u8 [a0 + 0x1b] = a5\n 56828: a5 = a4 >> 0x10\n 56831: u8 [a0 + 0x1a] = a5\n 56834: a5 = a4 >> 0x8\n 56837: u8 [a0 + 0x19] = a5\n 56840: u8 [a0 + 0x18] = a4\n 56843: a4 = a3 >> 0x38\n 56846: u8 [a0 + 0x17] = a4\n 56849: a4 = a3 >> 0x30\n 56852: u8 [a0 + 0x16] = a4\n 56855: a4 = a3 >> 0x28\n 56858: u8 [a0 + 0x15] = a4\n 56861: a4 = a3 >> 0x20\n 56864: u8 [a0 + 0x14] = a4\n 56867: a4 = a3 >> 0x18\n 56870: u8 [a0 + 0x13] = a4\n 56873: a4 = a3 >> 0x10\n 56876: u8 [a0 + 0x12] = a4\n 56879: a4 = a3 >> 0x8\n 56882: u8 [a0 + 0x11] = a4\n 56885: u8 [a0 + 0x10] = a3\n 56888: a3 = a2 >> 0x38\n 56891: u8 [a0 + 0xf] = a3\n 56894: a3 = a2 >> 0x30\n 56897: u8 [a0 + 0xe] = a3\n 56900: a3 = a2 >> 0x28\n 56903: u8 [a0 + 0xd] = a3\n 56906: a3 = a2 >> 0x20\n 56909: u8 [a0 + 0xc] = a3\n 56912: a3 = a2 >> 0x18\n 56915: u8 [a0 + 0xb] = a3\n 56918: a3 = a2 >> 0x10\n 56921: u8 [a0 + 0xa] = a3\n 56924: a3 = a2 >> 0x8\n 56927: u8 [a0 + 0x9] = a3\n 56930: u8 [a0 + 0x8] = a2\n 56933: a2 = a1 >> 0x38\n 56936: u8 [a0 + 0x7] = a2\n 56939: a2 = a1 >> 0x30\n 56942: u8 [a0 + 0x6] = a2\n 56945: a2 = a1 >> 0x28\n 56948: u8 [a0 + 0x5] = a2\n 56951: a2 = a1 >> 0x20\n 56954: u8 [a0 + 0x4] = a2\n 56957: a2 = a1 >> 0x18\n 56960: u8 [a0 + 0x3] = a2\n 56963: a2 = a1 >> 0x10\n 56966: u8 [a0 + 0x2] = a2\n 56969: a2 = a1 >> 0x8\n 56972: u8 [a0 + 0x1] = a2\n 56975: u8 [a0] = a1\n 56977: a0 = u64 [sp + 0x30]\n 56980: a1 = u64 [sp + 0xa8]\n 56984: u64 [a0] = a1\n 56986: u64 [a0 + 0x8] = s1\n 56989: u64 [a0 + 0x10] = s0\n 56992: a1 = u64 [sp + 0xa0]\n 56996: u64 [a0 + 0x18] = a1\n 56999: ra = u64 [sp + 0xc0]\n 57003: s0 = u64 [sp + 0xb8]\n 57007: s1 = u64 [sp + 0xb0]\n 57011: sp = sp + 0xc8\n 57015: ret\n      : @834 (gas: 1)\n 57017: trap\n      : @835 (gas: 18)\n 57018: sp = sp + 0xfffffffffffffea0\n 57022: u64 [sp + 0x158] = ra\n 57026: u64 [sp + 0x150] = s0\n 57030: u64 [sp + 0x148] = s1\n 57034: s0 = sp + 0x160\n 57038: sp = sp & 0xfffffffffffffff0\n 57041: a5 = u64 [a1 + 0x10]\n 57044: t0 = u64 [a1 + 0x18]\n 57047: s1 = u64 [a1 + 0x8]\n 57050: a4 = u64 [a1]\n 57052: a1 = s1 | t0\n 57055: a3 = a4 | a5\n 57058: a3 = a3 | a1\n 57061: a3 = a3 >> 0x20\n 57064: a1 = a1 | a5\n 57067: a1 = a1 << 0x20\n 57070: a1 = a1 | a3\n 57073: jump @850 if a1 != 0\n      : @836 (gas: 15)\n 57077: u64 [sp + 0xb0] = s1\n 57081: u64 [sp + 0xb8] = a5\n 57085: u64 [sp + 0x98] = t0\n 57089: u64 [sp + 0x18] = a0\n 57092: a0 = u64 [a2 + 0x18]\n 57095: u64 [sp + 0x88] = a0\n 57099: s1 = u64 [a2 + 0x10]\n 57102: a0 = u64 [a2 + 0x8]\n 57105: u64 [sp + 0xc0] = a0\n 57109: a0 = u64 [a2]\n 57111: u64 [sp + 0x90] = a0\n 57115: u64 [sp + 0xa8] = a4\n 57119: i32 a0 = a4 + 0\n 57121: a1 = 0x20\n 57124: ra = 708, jump @0\n      : @837 [@dyn 354] (gas: 12)\n 57131: a1 = u64 [sp + 0x90]\n 57135: a1 = a1 | s1\n 57138: a2 = u64 [sp + 0x88]\n 57142: a3 = u64 [sp + 0xc0]\n 57146: a2 = a2 | a3\n 57149: a1 = a1 | a2\n 57152: a1 = a1 >> 0x20\n 57155: u64 [sp + 0x78] = s1\n 57158: a2 = a2 | s1\n 57161: a2 = a2 << 0x20\n 57164: a1 = a1 | a2\n 57167: jump @850 if a1 != 0\n      : @838 (gas: 102)\n 57171: a1 = u8 [a0 + 0x19]\n 57174: a2 = u8 [a0 + 0x18]\n 57177: a3 = u8 [a0 + 0x1a]\n 57180: a4 = u8 [a0 + 0x1b]\n 57183: a1 = a1 << 0x8\n 57186: a1 = a1 | a2\n 57189: a3 = a3 << 0x10\n 57192: a4 = a4 << 0x18\n 57195: a3 = a3 | a4\n 57198: a1 = a1 | a3\n 57201: a2 = u8 [a0 + 0x1d]\n 57204: a3 = u8 [a0 + 0x1c]\n 57207: a4 = u8 [a0 + 0x1e]\n 57210: a5 = u8 [a0 + 0x1f]\n 57213: a2 = a2 << 0x8\n 57216: a2 = a2 | a3\n 57219: a4 = a4 << 0x10\n 57222: a5 = a5 << 0x18\n 57225: a4 = a4 | a5\n 57228: a2 = a2 | a4\n 57231: a2 = a2 << 0x20\n 57234: t0 = a2 | a1\n 57237: u64 [sp + 0xd0] = t0\n 57241: a1 = u8 [a0 + 0x11]\n 57244: a2 = u8 [a0 + 0x10]\n 57247: a3 = u8 [a0 + 0x12]\n 57250: a4 = u8 [a0 + 0x13]\n 57253: a1 = a1 << 0x8\n 57256: a1 = a1 | a2\n 57259: a3 = a3 << 0x10\n 57262: a4 = a4 << 0x18\n 57265: a3 = a3 | a4\n 57268: a1 = a1 | a3\n 57271: a2 = u8 [a0 + 0x15]\n 57274: a3 = u8 [a0 + 0x14]\n 57277: a4 = u8 [a0 + 0x16]\n 57280: a5 = u8 [a0 + 0x17]\n 57283: a2 = a2 << 0x8\n 57286: a2 = a2 | a3\n 57289: a4 = a4 << 0x10\n 57292: a5 = a5 << 0x18\n 57295: a4 = a4 | a5\n 57298: a2 = a2 | a4\n 57301: a2 = a2 << 0x20\n 57304: t1 = a2 | a1\n 57307: u64 [sp + 0xc8] = t1\n 57311: a1 = u8 [a0 + 0x9]\n 57314: a2 = u8 [a0 + 0x8]\n 57317: a3 = u8 [a0 + 0xa]\n 57320: a4 = u8 [a0 + 0xb]\n 57323: a1 = a1 << 0x8\n 57326: a1 = a1 | a2\n 57329: a3 = a3 << 0x10\n 57332: a4 = a4 << 0x18\n 57335: a3 = a3 | a4\n 57338: a1 = a1 | a3\n 57341: a2 = u8 [a0 + 0xd]\n 57344: a3 = u8 [a0 + 0xc]\n 57347: a4 = u8 [a0 + 0xe]\n 57350: a5 = u8 [a0 + 0xf]\n 57353: a2 = a2 << 0x8\n 57356: a2 = a2 | a3\n 57359: a4 = a4 << 0x10\n 57362: a5 = a5 << 0x18\n 57365: a4 = a4 | a5\n 57368: a2 = a2 | a4\n 57371: a2 = a2 << 0x20\n 57374: a5 = a2 | a1\n 57377: u64 [sp + 0x38] = a5\n 57380: a1 = u8 [a0 + 0x1]\n 57383: a2 = u8 [a0]\n 57385: a3 = u8 [a0 + 0x2]\n 57388: a4 = u8 [a0 + 0x3]\n 57391: a1 = a1 << 0x8\n 57394: a1 = a1 | a2\n 57397: a3 = a3 << 0x10\n 57400: a4 = a4 << 0x18\n 57403: a3 = a3 | a4\n 57406: a1 = a1 | a3\n 57409: a2 = u8 [a0 + 0x5]\n 57412: a3 = u8 [a0 + 0x4]\n 57415: a4 = u8 [a0 + 0x6]\n 57418: a0 = u8 [a0 + 0x7]\n 57421: a2 = a2 << 0x8\n 57424: a2 = a2 | a3\n 57427: a4 = a4 << 0x10\n 57430: a0 = a0 << 0x18\n 57433: a0 = a0 | a4\n 57436: a0 = a0 | a2\n 57439: a0 = a0 << 0x20\n 57442: s1 = a0 | a1\n 57445: a0 = reverse s1\n 57447: u64 [sp + 0x70] = a0\n 57450: a0 = reverse a5\n 57452: u64 [sp + 0x68] = a0\n 57455: a0 = reverse t1\n 57457: u64 [sp + 0x40] = a0\n 57460: a0 = reverse t0\n 57462: u64 [sp + 0x80] = a0\n 57466: a0 = i32 [sp + 0x90]\n 57470: a1 = 0x20\n 57473: ra = 710, jump @0\n      : @839 [@dyn 355] (gas: 117)\n 57480: a1 = u64 [sp + 0x90]\n 57484: a4 = a1 + 0x20\n 57487: a5 = a4 <u a1\n 57490: u64 [sp + 0x58] = a5\n 57493: a1 = u64 [sp + 0xc0]\n 57497: a5 = a5 + a1\n 57500: a1 = u64 [sp + 0x80]\n 57504: a2 = a1 >> 0x3b\n 57507: t1 = u64 [sp + 0x40]\n 57510: a3 = t1 << 0x5\n 57513: a2 = a2 | a3\n 57516: a3 = a1 << 0x5\n 57519: u64 [sp + 0x60] = a4\n 57522: a4 = a4 + a3\n 57525: u64 [sp + 0xa0] = a4\n 57529: a1 = a4 <u a3\n 57532: a4 = a2 + a5\n 57535: a3 = a4 + a1\n 57538: a4 = a3 ^ a2\n 57541: u64 [sp + 0xd8] = a3\n 57545: ra = a3 <u a2\n 57548: ra = a1 if a4 == 0\n 57551: t0 = u64 [sp + 0x38]\n 57554: a3 = t0 >> 0x38\n 57557: u8 [a0 + 0xf] = a3\n 57560: a3 = t0 >> 0x30\n 57563: u8 [a0 + 0xe] = a3\n 57566: a3 = t0 >> 0x28\n 57569: u8 [a0 + 0xd] = a3\n 57572: a3 = t0 >> 0x20\n 57575: u8 [a0 + 0xc] = a3\n 57578: a3 = t0 >> 0x18\n 57581: u8 [a0 + 0xb] = a3\n 57584: a3 = t0 >> 0x10\n 57587: u8 [a0 + 0xa] = a3\n 57590: a3 = t0 >> 0x8\n 57593: u8 [a0 + 0x9] = a3\n 57596: a3 = s1 >> 0x38\n 57599: u8 [a0 + 0x7] = a3\n 57602: a3 = s1 >> 0x30\n 57605: u8 [a0 + 0x6] = a3\n 57608: a3 = s1 >> 0x28\n 57611: u8 [a0 + 0x5] = a3\n 57614: a3 = s1 >> 0x20\n 57617: u8 [a0 + 0x4] = a3\n 57620: a3 = s1 >> 0x18\n 57623: u8 [a0 + 0x3] = a3\n 57626: a3 = s1 >> 0x10\n 57629: u8 [a0 + 0x2] = a3\n 57632: a3 = s1 >> 0x8\n 57635: u8 [a0 + 0x1] = a3\n 57638: t2 = u64 [sp + 0xc8]\n 57642: a3 = t2 >> 0x38\n 57645: u8 [a0 + 0x17] = a3\n 57648: a3 = t2 >> 0x30\n 57651: u8 [a0 + 0x16] = a3\n 57654: a3 = t2 >> 0x28\n 57657: u8 [a0 + 0x15] = a3\n 57660: a3 = t2 >> 0x20\n 57663: u8 [a0 + 0x14] = a3\n 57666: a3 = t2 >> 0x18\n 57669: u8 [a0 + 0x13] = a3\n 57672: a3 = t2 >> 0x10\n 57675: u8 [a0 + 0x12] = a3\n 57678: a3 = t2 >> 0x8\n 57681: u8 [a0 + 0x11] = a3\n 57684: a1 = u64 [sp + 0xd0]\n 57688: a3 = a1 >> 0x38\n 57691: u8 [a0 + 0x1f] = a3\n 57694: a3 = a1 >> 0x30\n 57697: u8 [a0 + 0x1e] = a3\n 57700: a3 = a1 >> 0x28\n 57703: u8 [a0 + 0x1d] = a3\n 57706: a3 = a1 >> 0x20\n 57709: u8 [a0 + 0x1c] = a3\n 57712: a3 = a1 >> 0x18\n 57715: u8 [a0 + 0x1b] = a3\n 57718: a3 = a1 >> 0x10\n 57721: u8 [a0 + 0x1a] = a3\n 57724: a3 = a1 >> 0x8\n 57727: u8 [a0 + 0x19] = a3\n 57730: u8 [a0 + 0x10] = t2\n 57733: u8 [a0 + 0x8] = t0\n 57736: u8 [a0] = s1\n 57738: u8 [a0 + 0x18] = a1\n 57741: a2 = a1\n 57743: u64 [sp + 0x50] = a5\n 57746: a0 = u64 [sp + 0xc0]\n 57750: a0 = a5 <u a0\n 57753: a1 = u64 [sp + 0x58]\n 57756: a0 = a1 if a1 == 0\n 57759: a4 = u64 [sp + 0x68]\n 57762: a1 = a4 >> 0x3b\n 57765: a3 = u64 [sp + 0x70]\n 57768: a3 = a3 << 0x5\n 57771: a1 = a1 | a3\n 57774: a3 = t1 >> 0x3b\n 57777: a4 = a4 << 0x5\n 57780: a3 = a3 | a4\n 57783: a4 = u64 [sp + 0x78]\n 57786: a5 = a4 + a0\n 57789: a0 = a5 <u a4\n 57792: t1 = u64 [sp + 0x88]\n 57796: t1 = t1 + a0\n 57799: a0 = a3 + a5\n 57802: a3 = a0 <u a3\n 57805: a1 = a1 + t1\n 57808: a1 = a1 + a3\n 57811: a3 = s1 | t2\n 57814: a4 = t0 | a2\n 57817: a3 = a3 | a4\n 57820: a2 = a0 + ra\n 57823: u64 [sp + 0xd0] = a2\n 57827: a0 = a2 <u a0\n 57830: a0 = a0 + a1\n 57833: u64 [sp + 0xc8] = a0\n 57837: jump @848 if a3 == 0\n      : @840 (gas: 242)\n 57841: t2 = 0x1\n 57844: a4 = u64 [sp + 0x80]\n 57848: a0 = a4\n 57850: t0 = u64 [sp + 0x40]\n 57853: a0 = t2 if t0 == 0\n 57856: a1 = maxu(a4, t2)\n 57859: a1 = a0 if t0 != 0\n 57862: a0 = u64 [sp + 0x68]\n 57865: a3 = a0 >u 0\n 57867: s1 = u64 [sp + 0x70]\n 57870: a2 = s1 >u 0\n 57872: a2 = a3 if s1 == 0\n 57875: a4 = t2 if a2 == 0\n 57878: a3 = a0 | s1\n 57881: a4 = a1 if a3 == 0\n 57884: u64 [sp + 0x80] = a4\n 57888: a0 = t0\n 57890: a0 = 0 if a2 == 0\n 57892: a0 = t0 if a3 == 0\n 57895: u64 [sp + 0x38] = a0\n 57898: a3 = 0x100000000\n 57908: a1 = u64 [sp + 0x60]\n 57911: a0 = a1\n 57913: a4 = u64 [sp + 0x50]\n 57916: a0 = a3 if a4 == 0\n 57919: a1 = maxu(a1, a3)\n 57922: a1 = a0 if a4 != 0\n 57925: a0 = a5 >u 0\n 57927: a2 = t1 >u 0\n 57929: a2 = a0 if t1 == 0\n 57932: u64 [sp + 0x48] = a5\n 57935: s1 = t1\n 57937: u64 [sp + 0x58] = t1\n 57940: t1 = u64 [sp + 0x60]\n 57943: t1 = a3 if a2 == 0\n 57946: s1 = s1 | a5\n 57949: t1 = a1 if s1 == 0\n 57952: a1 = a4\n 57954: a1 = 0 if a2 == 0\n 57956: a1 = a4 if s1 == 0\n 57959: a0 = u64 [sp + 0x90]\n 57963: a0 = a0 ^ 0xffffffffffffffff\n 57966: t1 = t1 + a0\n 57969: a0 = t1 <u a0\n 57972: a2 = u64 [sp + 0xc0]\n 57976: a2 = a2 ^ 0xffffffffffffffff\n 57979: a1 = a1 + a2\n 57982: a4 = a1 + a0\n 57985: u64 [sp + 0x30] = a4\n 57988: a1 = a4 ^ a2\n 57991: t2 = a4 <u a2\n 57994: t2 = a0 if a1 == 0\n 57997: a2 = 0xffffffe0\n 58007: t0 = u64 [sp + 0xa8]\n 58011: a0 = a2 <u t0\n 58014: a1 = u64 [sp + 0xb0]\n 58018: a3 = a1 >u 0\n 58020: a3 = a0 if a1 == 0\n 58023: s1 = a1\n 58025: a1 = u64 [sp + 0xb8]\n 58029: a4 = -a1\n 58031: ra = a4 - a3\n 58034: a3 = a4 <u a3\n 58037: a4 = a1 >u 0\n 58039: a1 = u64 [sp + 0x98]\n 58043: a4 = a4 + a1\n 58046: a4 = -a4\n 58048: a4 = a4 - a3\n 58051: a3 = ra >u 0\n 58053: a5 = a4 >u 0\n 58055: a5 = a3 if a4 == 0\n 58058: a3 = -s1\n 58060: a3 = a3 - a0\n 58063: a0 = a2 - t0\n 58066: u64 [sp + 0x40] = a2\n 58069: a2 = a2 <u a0\n 58072: s1 = a3 >u 0\n 58074: s1 = a2 if a3 == 0\n 58077: a2 = ra | a4\n 58080: s1 = a5 if a2 != 0\n 58083: a2 = u64 [sp + 0x48]\n 58086: a5 = a2\n 58088: a1 = u64 [sp + 0x58]\n 58091: a5 = 0 if a1 == 0\n 58093: a5 = a2 if a1 == 0\n 58096: a1 = u64 [sp + 0x78]\n 58099: a1 = a1 ^ 0xffffffffffffffff\n 58102: u64 [sp + 0x20] = a1\n 58105: a1 = a1 + a5\n 58108: u64 [sp + 0x10] = a1\n 58111: t2 = t2 + a1\n 58114: u64 [sp + 0x28] = t2\n 58117: t2 = t2 << 0x3b\n 58120: t0 = u64 [sp + 0x30]\n 58123: a2 = t0 >> 0x5\n 58126: t2 = a2 | t2\n 58129: t1 = t1 >> 0x5\n 58132: t0 = t0 << 0x3b\n 58135: a2 = t1 | t0\n 58138: a0 = 0 if s1 != 0\n 58140: a5 = a0 + 0x1f\n 58143: a0 = a5 <u a0\n 58146: a3 = 0 if s1 != 0\n 58148: t1 = a3 + a0\n 58151: a3 = t1 <u a3\n 58154: a3 = a0 if a0 == 0\n 58157: ra = 0 if s1 != 0\n 58159: a3 = a3 + ra\n 58162: a0 = a3 << 0x3b\n 58165: a1 = t1 >> 0x5\n 58168: a1 = a1 | a0\n 58171: t1 = t1 << 0x3b\n 58174: a0 = a5 >> 0x5\n 58177: a0 = a0 | t1\n 58180: u64 [sp + 0x8] = a0\n 58183: u64 [sp + 0x30] = a1\n 58186: t1 = t2 ^ a1\n 58189: a1 = t2 <u a1\n 58192: t0 = a2 <u a0\n 58195: t0 = a1 if t1 != 0\n 58198: a0 = u64 [sp + 0x88]\n 58202: a1 = a0 ^ 0xffffffffffffffff\n 58205: a0 = u64 [sp + 0x58]\n 58208: a0 = a0 + a1\n 58211: a1 = u64 [sp + 0x10]\n 58214: a5 = u64 [sp + 0x20]\n 58217: a5 = a1 <u a5\n 58220: t1 = a0 + a5\n 58223: a0 = u64 [sp + 0x28]\n 58226: a5 = a0 <u a1\n 58229: t1 = t1 + a5\n 58232: a5 = a0 >> 0x5\n 58235: a1 = t1 << 0x3b\n 58238: a5 = a5 | a1\n 58241: a4 = 0 if s1 != 0\n 58243: a1 = a3 <u ra\n 58246: a1 = a1 + a4\n 58249: a3 = a3 >> 0x5\n 58252: a4 = a1 << 0x3b\n 58255: ra = a3 | a4\n 58258: a3 = t1 >> 0x5\n 58261: s1 = a1 >> 0x5\n 58264: t1 = a5 <u ra\n 58267: a1 = a3 ^ s1\n 58270: a4 = a3 <u s1\n 58273: a4 = t1 if a1 == 0\n 58276: a0 = a5 ^ ra\n 58279: a0 = a0 | a1\n 58282: a4 = t0 if a0 == 0\n 58285: a0 = u64 [sp + 0x8]\n 58288: a2 = a0 if a4 == 0\n 58291: u64 [sp + 0x28] = a2\n 58294: a0 = u64 [sp + 0x30]\n 58297: t2 = a0 if a4 == 0\n 58300: a5 = ra if a4 == 0\n 58303: a3 = s1 if a4 == 0\n 58306: a1 = u64 [sp + 0x80]\n 58310: a0 = a1 <u 0x1\n 58313: t0 = u64 [sp + 0x38]\n 58316: t1 = t0 - a0\n 58319: a4 = a1 + 0xffffffffffffffff\n 58322: u64 [sp + 0x30] = a4\n 58325: ra = a1\n 58327: s1 = t1 ^ t2\n 58330: a0 = t1 <u t2\n 58333: a1 = a4 <u a2\n 58336: a1 = a0 if s1 != 0\n 58339: a4 = u64 [sp + 0x68]\n 58342: a0 = a4\n 58344: a2 = u64 [sp + 0x70]\n 58347: a0 = 0 if a2 == 0\n 58349: a0 = a4 if a2 == 0\n 58352: s1 = ra | t0\n 58355: s1 = s1 <u 0x1\n 58358: ra = a0 - s1\n 58361: a0 = a0 <u s1\n 58364: s1 = a2 - a0\n 58367: a2 = s1 ^ a3\n 58370: a4 = s1 <u a3\n 58373: a0 = ra <u a5\n 58376: a0 = a4 if a2 != 0\n 58379: a4 = ra ^ a5\n 58382: a2 = a2 | a4\n 58385: a1 = a0 if a2 != 0\n 58388: a3 = s1 if a1 != 0\n 58391: a5 = ra if a1 != 0\n 58394: t2 = t1 if a1 != 0\n 58397: t1 = u64 [sp + 0x60]\n 58400: a2 = u64 [sp + 0x28]\n 58403: a0 = u64 [sp + 0x30]\n 58406: a2 = a0 if a1 != 0\n 58409: t0 = u64 [sp + 0xa8]\n 58413: a0 = a2 >> 0x3b\n 58416: a4 = a2\n 58418: a1 = t2 << 0x5\n 58421: a0 = a0 | a1\n 58424: a1 = t2 >> 0x3b\n 58427: t2 = u64 [sp + 0x50]\n 58430: a2 = a5 << 0x5\n 58433: a1 = a1 | a2\n 58436: a5 = a5 >> 0x3b\n 58439: a3 = a3 << 0x5\n 58442: a3 = a3 | a5\n 58445: a2 = a4 << 0x5\n 58448: a4 = u64 [sp + 0x88]\n 58452: a3 = a3 + a4\n 58455: a4 = u64 [sp + 0x78]\n 58458: a1 = a1 + a4\n 58461: a4 = a1 <u a4\n 58464: a3 = a3 + a4\n 58467: s1 = u64 [sp + 0xc0]\n 58471: a0 = a0 + s1\n 58474: a4 = u64 [sp + 0x90]\n 58478: a2 = a2 + a4\n 58481: a4 = a2 <u a4\n 58484: a0 = a0 + a4\n 58487: a5 = a0 ^ s1\n 58490: s1 = a0 <u s1\n 58493: s1 = a4 if a5 == 0\n 58496: s1 = s1 + a1\n 58499: a1 = s1 <u a1\n 58502: a1 = a1 + a3\n 58505: a3 = a2 + 0x40\n 58508: u64 [sp + 0x38] = a3\n 58511: a2 = a3 <u a2\n 58514: a3 = a0 + a2\n 58517: u64 [sp + 0x30] = a3\n 58520: a0 = a3 <u a0\n 58523: a0 = a2 if a2 == 0\n 58526: a0 = a0 + s1\n 58529: u64 [sp + 0x28] = a0\n 58532: a0 = a0 <u s1\n 58535: a5 = u64 [sp + 0xb0]\n 58539: a4 = u64 [sp + 0xb8]\n 58543: a0 = a0 + a1\n 58546: u64 [sp + 0x20] = a0\n 58549: a0 = t1\n 58551: s1 = t2\n 58553: a3 = u64 [sp + 0x48]\n 58556: a1 = u64 [sp + 0x58]\n 58559: ra = u64 [sp + 0xa0]\n 58563: fallthrough\n      : @841 (gas: 15)\n 58564: u64 [sp + 0xa8] = t0\n 58568: u64 [sp + 0xb0] = a5\n 58572: u64 [sp + 0xb8] = a4\n 58576: u64 [sp + 0xc0] = a0\n 58580: a0 = a0 | a3\n 58583: u64 [sp + 0x90] = a1\n 58587: u64 [sp + 0x80] = s1\n 58591: a1 = a1 | s1\n 58594: a0 = a0 | a1\n 58597: a0 = a0 >> 0x20\n 58600: u64 [sp + 0x88] = a3\n 58604: a1 = a1 | a3\n 58607: a1 = a1 << 0x20\n 58610: a0 = a0 | a1\n 58613: jump @850 if a0 != 0\n      : @842 (gas: 27)\n 58617: a0 = ra <u t1\n 58620: a4 = u64 [sp + 0xd8]\n 58624: a1 = a4 ^ t2\n 58627: a2 = a4 <u t2\n 58630: a2 = a0 if a1 == 0\n 58633: a3 = u64 [sp + 0x48]\n 58636: a5 = u64 [sp + 0xd0]\n 58640: s1 = a5 - a3\n 58643: a1 = s1 - a2\n 58646: u64 [sp + 0x78] = a1\n 58649: a1 = s1 <u a2\n 58652: u64 [sp + 0xd0] = a5\n 58656: a2 = a5 <u a3\n 58659: a3 = u64 [sp + 0x58]\n 58662: a5 = u64 [sp + 0xc8]\n 58666: a3 = a5 - a3\n 58669: a3 = a3 - a2\n 58672: s1 = a3 - a1\n 58675: a1 = a4 - t2\n 58678: a1 = a1 - a0\n 58681: u64 [sp + 0x70] = a1\n 58684: u64 [sp + 0xa0] = ra\n 58688: a0 = ra - t1\n 58691: u64 [sp + 0x68] = a0\n 58694: a0 = i32 [sp + 0xc0]\n 58698: a1 = 0x20\n 58701: ra = 712, jump @0\n      : @843 [@dyn 356] (gas: 77)\n 58708: a1 = reverse s1\n 58710: a2 = u64 [sp + 0x78]\n 58713: a2 = reverse a2\n 58715: a3 = u64 [sp + 0x70]\n 58718: a3 = reverse a3\n 58720: a4 = u64 [sp + 0x68]\n 58723: a4 = reverse a4\n 58725: u8 [a0 + 0x18] = a4\n 58728: a5 = a4 >> 0x38\n 58731: u8 [a0 + 0x1f] = a5\n 58734: a5 = a4 >> 0x30\n 58737: u8 [a0 + 0x1e] = a5\n 58740: a5 = a4 >> 0x28\n 58743: u8 [a0 + 0x1d] = a5\n 58746: a5 = a4 >> 0x20\n 58749: u8 [a0 + 0x1c] = a5\n 58752: a5 = a4 >> 0x18\n 58755: u8 [a0 + 0x1b] = a5\n 58758: a5 = a4 >> 0x10\n 58761: u8 [a0 + 0x1a] = a5\n 58764: a4 = a4 >> 0x8\n 58767: u8 [a0 + 0x19] = a4\n 58770: u8 [a0 + 0x10] = a3\n 58773: a4 = a3 >> 0x38\n 58776: u8 [a0 + 0x17] = a4\n 58779: a4 = a3 >> 0x30\n 58782: u8 [a0 + 0x16] = a4\n 58785: a4 = a3 >> 0x28\n 58788: u8 [a0 + 0x15] = a4\n 58791: a4 = a3 >> 0x20\n 58794: u8 [a0 + 0x14] = a4\n 58797: a4 = a3 >> 0x18\n 58800: u8 [a0 + 0x13] = a4\n 58803: a4 = a3 >> 0x10\n 58806: u8 [a0 + 0x12] = a4\n 58809: a3 = a3 >> 0x8\n 58812: u8 [a0 + 0x11] = a3\n 58815: u8 [a0 + 0x8] = a2\n 58818: a3 = a2 >> 0x38\n 58821: u8 [a0 + 0xf] = a3\n 58824: a3 = a2 >> 0x30\n 58827: u8 [a0 + 0xe] = a3\n 58830: a3 = a2 >> 0x28\n 58833: u8 [a0 + 0xd] = a3\n 58836: a3 = a2 >> 0x20\n 58839: u8 [a0 + 0xc] = a3\n 58842: a3 = a2 >> 0x18\n 58845: u8 [a0 + 0xb] = a3\n 58848: a3 = a2 >> 0x10\n 58851: u8 [a0 + 0xa] = a3\n 58854: a2 = a2 >> 0x8\n 58857: u8 [a0 + 0x9] = a2\n 58860: u8 [a0] = a1\n 58862: a2 = a1 >> 0x38\n 58865: u8 [a0 + 0x7] = a2\n 58868: a2 = a1 >> 0x30\n 58871: u8 [a0 + 0x6] = a2\n 58874: a2 = a1 >> 0x28\n 58877: u8 [a0 + 0x5] = a2\n 58880: a2 = a1 >> 0x20\n 58883: u8 [a0 + 0x4] = a2\n 58886: a2 = a1 >> 0x18\n 58889: u8 [a0 + 0x3] = a2\n 58892: a2 = a1 >> 0x10\n 58895: u8 [a0 + 0x2] = a2\n 58898: t0 = a1 >> 0x8\n 58901: a4 = u64 [sp + 0x98]\n 58905: a5 = u64 [sp + 0xb8]\n 58909: a2 = a5 | a4\n 58912: a1 = u64 [sp + 0xa8]\n 58916: a3 = u64 [sp + 0x40]\n 58919: a3 = a1 <u a3\n 58922: s1 = u64 [sp + 0xb0]\n 58926: a3 = 0 if s1 != 0\n 58928: a3 = 0 if a2 != 0\n 58930: u8 [a0 + 0x1] = t0\n 58933: jump @850 if a3 == 0\n      : @844 (gas: 15)\n 58937: a2 = a1 + 0x20\n 58940: u64 [sp + 0x78] = a2\n 58943: a0 = a2 <u a1\n 58946: a1 = s1 + a0\n 58949: u64 [sp + 0xa8] = a1\n 58953: a1 = a1 <u s1\n 58956: a1 = a0 if a0 == 0\n 58959: a1 = a1 + a5\n 58962: u64 [sp + 0xb0] = a1\n 58966: a0 = a1 <u a5\n 58969: a4 = a4 + a0\n 58972: u64 [sp + 0x98] = a4\n 58976: i32 a0 = a2 + 0\n 58978: a1 = 0x20\n 58981: ra = 714, jump @0\n      : @845 [@dyn 357] (gas: 108)\n 58988: a1 = u8 [a0 + 0x1]\n 58991: a2 = u8 [a0]\n 58993: a3 = u8 [a0 + 0x2]\n 58996: a4 = u8 [a0 + 0x3]\n 58999: a1 = a1 << 0x8\n 59002: a1 = a1 | a2\n 59005: a3 = a3 << 0x10\n 59008: a4 = a4 << 0x18\n 59011: a3 = a3 | a4\n 59014: a1 = a1 | a3\n 59017: a2 = u8 [a0 + 0x5]\n 59020: a3 = u8 [a0 + 0x4]\n 59023: a4 = u8 [a0 + 0x6]\n 59026: a5 = u8 [a0 + 0x7]\n 59029: a2 = a2 << 0x8\n 59032: a2 = a2 | a3\n 59035: a4 = a4 << 0x10\n 59038: a5 = a5 << 0x18\n 59041: a4 = a4 | a5\n 59044: a2 = a2 | a4\n 59047: a2 = a2 << 0x20\n 59050: t0 = a2 | a1\n 59053: a2 = u8 [a0 + 0x9]\n 59056: a3 = u8 [a0 + 0x8]\n 59059: a4 = u8 [a0 + 0xa]\n 59062: a5 = u8 [a0 + 0xb]\n 59065: a2 = a2 << 0x8\n 59068: a2 = a2 | a3\n 59071: a4 = a4 << 0x10\n 59074: a5 = a5 << 0x18\n 59077: a4 = a4 | a5\n 59080: a2 = a2 | a4\n 59083: a3 = u8 [a0 + 0xd]\n 59086: a4 = u8 [a0 + 0xc]\n 59089: a5 = u8 [a0 + 0xe]\n 59092: s1 = u8 [a0 + 0xf]\n 59095: a3 = a3 << 0x8\n 59098: a3 = a3 | a4\n 59101: a5 = a5 << 0x10\n 59104: s1 = s1 << 0x18\n 59107: a5 = a5 | s1\n 59110: a3 = a3 | a5\n 59113: a3 = a3 << 0x20\n 59116: a2 = a2 | a3\n 59119: a3 = u8 [a0 + 0x11]\n 59122: a4 = u8 [a0 + 0x10]\n 59125: a5 = u8 [a0 + 0x12]\n 59128: s1 = u8 [a0 + 0x13]\n 59131: a3 = a3 << 0x8\n 59134: a3 = a3 | a4\n 59137: a5 = a5 << 0x10\n 59140: s1 = s1 << 0x18\n 59143: a5 = a5 | s1\n 59146: a3 = a3 | a5\n 59149: a4 = u8 [a0 + 0x15]\n 59152: a5 = u8 [a0 + 0x14]\n 59155: s1 = u8 [a0 + 0x16]\n 59158: a1 = u8 [a0 + 0x17]\n 59161: a4 = a4 << 0x8\n 59164: a4 = a4 | a5\n 59167: s1 = s1 << 0x10\n 59170: a1 = a1 << 0x18\n 59173: a1 = a1 | s1\n 59176: a1 = a1 | a4\n 59179: a1 = a1 << 0x20\n 59182: a3 = a3 | a1\n 59185: a1 = u8 [a0 + 0x19]\n 59188: a4 = u8 [a0 + 0x18]\n 59191: a5 = u8 [a0 + 0x1a]\n 59194: s1 = u8 [a0 + 0x1b]\n 59197: a1 = a1 << 0x8\n 59200: a1 = a1 | a4\n 59203: a5 = a5 << 0x10\n 59206: s1 = s1 << 0x18\n 59209: a5 = a5 | s1\n 59212: a1 = a1 | a5\n 59215: a4 = u8 [a0 + 0x1d]\n 59218: a5 = u8 [a0 + 0x1c]\n 59221: s1 = u8 [a0 + 0x1e]\n 59224: a0 = u8 [a0 + 0x1f]\n 59227: a4 = a4 << 0x8\n 59230: a4 = a4 | a5\n 59233: s1 = s1 << 0x10\n 59236: a0 = a0 << 0x18\n 59239: a0 = a0 | s1\n 59242: a0 = a0 | a4\n 59245: a0 = a0 << 0x20\n 59248: a0 = a0 | a1\n 59251: a4 = reverse a0\n 59253: a0 = reverse a3\n 59255: a1 = reverse a2\n 59257: a2 = reverse t0\n 59259: a3 = u64 [sp + 0xc8]\n 59263: u64 [sp + 0xf8] = a3\n 59267: a3 = u64 [sp + 0xd0]\n 59271: u64 [sp + 0xf0] = a3\n 59275: a3 = u64 [sp + 0xd8]\n 59279: u64 [sp + 0xe8] = a3\n 59283: a3 = u64 [sp + 0xa0]\n 59287: u64 [sp + 0xe0] = a3\n 59291: u64 [sp + 0x118] = a2\n 59295: u64 [sp + 0x110] = a1\n 59299: u64 [sp + 0x108] = a0\n 59303: a0 = sp + 0x120\n 59307: a1 = sp + 0x100\n 59311: a2 = sp + 0xe0\n 59315: u64 [sp + 0x100] = a4\n 59319: ra = 716, jump @468\n      : @846 [@dyn 358] (gas: 36)\n 59325: a0 = u64 [sp + 0x138]\n 59329: u64 [sp + 0xc8] = a0\n 59333: a0 = u64 [sp + 0x130]\n 59337: u64 [sp + 0xd0] = a0\n 59341: a0 = u64 [sp + 0x128]\n 59345: u64 [sp + 0xd8] = a0\n 59349: a1 = u64 [sp + 0xc0]\n 59353: a0 = a1 + 0x20\n 59356: a2 = a0 <u a1\n 59359: a1 = u64 [sp + 0x80]\n 59363: s1 = a1 + a2\n 59366: a3 = s1 <u a1\n 59369: a3 = a2 if a2 == 0\n 59372: a1 = u64 [sp + 0x88]\n 59376: a3 = a3 + a1\n 59379: a2 = a3 <u a1\n 59382: a1 = u64 [sp + 0x90]\n 59386: a1 = a1 + a2\n 59389: a2 = u64 [sp + 0x28]\n 59392: a2 = a2 ^ a3\n 59395: a4 = u64 [sp + 0x38]\n 59398: a4 = a4 ^ a0\n 59401: a2 = a2 | a4\n 59404: ra = u64 [sp + 0x120]\n 59408: a4 = u64 [sp + 0x20]\n 59411: a4 = a4 ^ a1\n 59414: a5 = u64 [sp + 0x30]\n 59417: a5 = a5 ^ s1\n 59420: a4 = a4 | a5\n 59423: a2 = a2 | a4\n 59426: t0 = u64 [sp + 0x78]\n 59429: a5 = u64 [sp + 0xa8]\n 59433: a4 = u64 [sp + 0xb0]\n 59437: t1 = u64 [sp + 0x60]\n 59440: t2 = u64 [sp + 0x50]\n 59443: jump @841 if a2 != 0\n      : @847 (gas: 1)\n 59447: jump @849\n      : @848 (gas: 2)\n 59449: ra = u64 [sp + 0xa0]\n 59453: fallthrough\n      : @849 (gas: 14)\n 59454: a0 = u64 [sp + 0x18]\n 59457: u64 [a0] = ra\n 59459: a1 = u64 [sp + 0xd8]\n 59463: u64 [a0 + 0x8] = a1\n 59466: a1 = u64 [sp + 0xd0]\n 59470: u64 [a0 + 0x10] = a1\n 59473: a1 = u64 [sp + 0xc8]\n 59477: u64 [a0 + 0x18] = a1\n 59480: sp = s0 + 0xfffffffffffffea0\n 59484: ra = u64 [sp + 0x158]\n 59488: s0 = u64 [sp + 0x150]\n 59492: s1 = u64 [sp + 0x148]\n 59496: sp = sp + 0x160\n 59500: ret\n      : @850 (gas: 1)\n 59502: trap\n      : @851 (gas: 23)\n 59503: sp = sp + 0xfffffffffffffe00\n 59507: u64 [sp + 0x1f8] = ra\n 59511: u64 [sp + 0x1f0] = s0\n 59515: u64 [sp + 0x1e8] = s1\n 59519: s0 = sp + 0x200\n 59523: sp = sp & 0xfffffffffffffff0\n 59526: t1 = u64 [a1 + 0x18]\n 59529: t2 = u64 [a1 + 0x10]\n 59532: t0 = u64 [a1 + 0x8]\n 59535: s1 = u64 [a1]\n 59537: u64 [sp + 0xb0] = t0\n 59541: u64 [sp + 0xa0] = t1\n 59545: a1 = t0 | t1\n 59548: u64 [sp + 0xb8] = s1\n 59552: s1 = s1 | t2\n 59555: s1 = s1 | a1\n 59558: s1 = s1 >> 0x20\n 59561: u64 [sp + 0x98] = t2\n 59565: a1 = a1 | t2\n 59568: a1 = a1 << 0x20\n 59571: a1 = a1 | s1\n 59574: u64 [sp + 0x28] = a0\n 59577: jump @865 if a1 != 0\n      : @852 (gas: 38)\n 59581: a0 = u64 [s0]\n 59583: a1 = u64 [a0 + 0x18]\n 59586: u64 [sp] = a1\n 59588: a1 = u64 [a0 + 0x10]\n 59591: u64 [sp + 0x8] = a1\n 59594: a1 = u64 [a0 + 0x8]\n 59597: u64 [sp + 0x10] = a1\n 59600: a0 = u64 [a0]\n 59602: u64 [sp + 0x18] = a0\n 59605: a0 = u64 [a5 + 0x18]\n 59608: u64 [sp + 0x20] = a0\n 59611: a0 = u64 [a4 + 0x18]\n 59614: u64 [sp + 0x48] = a0\n 59617: a0 = u64 [a4 + 0x10]\n 59620: u64 [sp + 0x50] = a0\n 59623: a0 = u64 [a4 + 0x8]\n 59626: u64 [sp + 0x58] = a0\n 59629: a0 = u64 [a4]\n 59631: u64 [sp + 0x60] = a0\n 59634: a0 = u64 [a3 + 0x18]\n 59637: u64 [sp + 0x68] = a0\n 59640: a0 = u64 [a3 + 0x10]\n 59643: u64 [sp + 0x70] = a0\n 59646: a0 = u64 [a3 + 0x8]\n 59649: u64 [sp + 0x78] = a0\n 59652: a0 = u64 [a2 + 0x10]\n 59655: a1 = u64 [a3]\n 59657: u64 [sp + 0x80] = a1\n 59661: a1 = u64 [a2 + 0x8]\n 59664: u64 [sp + 0x88] = a1\n 59668: a1 = u64 [a2]\n 59670: u64 [sp + 0x90] = a1\n 59674: a0 = a0 << 0x20\n 59677: s1 = a0 >> 0x20\n 59680: a0 = i32 [sp + 0xb8]\n 59684: a1 = 0x20\n 59687: u64 [sp + 0xa8] = a0\n 59691: ra = 718, jump @0\n      : @853 [@dyn 359] (gas: 68)\n 59698: a1 = reverse s1\n 59700: a2 = u64 [sp + 0x88]\n 59704: a2 = reverse a2\n 59706: a3 = u64 [sp + 0x90]\n 59710: a3 = reverse a3\n 59712: a4 = a3 >> 0x38\n 59715: u8 [a0 + 0x1f] = a4\n 59718: a4 = a3 >> 0x30\n 59721: u8 [a0 + 0x1e] = a4\n 59724: a4 = a3 >> 0x28\n 59727: u8 [a0 + 0x1d] = a4\n 59730: a4 = a3 >> 0x20\n 59733: u8 [a0 + 0x1c] = a4\n 59736: a4 = a3 >> 0x18\n 59739: u8 [a0 + 0x1b] = a4\n 59742: a4 = a3 >> 0x10\n 59745: u8 [a0 + 0x1a] = a4\n 59748: a4 = a3 >> 0x8\n 59751: u8 [a0 + 0x19] = a4\n 59754: u8 [a0 + 0x18] = a3\n 59757: u8 [a0 + 0x10] = a2\n 59760: u8 [a0 + 11] = 0\n 59763: u8 [a0 + 10] = 0\n 59766: u8 [a0 + 9] = 0\n 59769: u8 [a0 + 7] = 0\n 59772: u8 [a0 + 6] = 0\n 59775: u8 [a0 + 5] = 0\n 59778: u8 [a0 + 4] = 0\n 59781: u8 [a0 + 3] = 0\n 59784: u8 [a0 + 2] = 0\n 59787: u8 [a0 + 1] = 0\n 59790: u8 [a0 + 0] = 0\n 59792: a3 = a2 >> 0x38\n 59795: u8 [a0 + 0x17] = a3\n 59798: a3 = a2 >> 0x30\n 59801: u8 [a0 + 0x16] = a3\n 59804: a3 = a2 >> 0x28\n 59807: u8 [a0 + 0x15] = a3\n 59810: a3 = a2 >> 0x20\n 59813: u8 [a0 + 0x14] = a3\n 59816: a3 = a2 >> 0x18\n 59819: u8 [a0 + 0x13] = a3\n 59822: a3 = a2 >> 0x10\n 59825: u8 [a0 + 0x12] = a3\n 59828: a2 = a2 >> 0x8\n 59831: u8 [a0 + 0x11] = a2\n 59834: u8 [a0 + 0x8] = a1\n 59837: a2 = a1 >> 0x38\n 59840: u8 [a0 + 0xf] = a2\n 59843: a2 = a1 >> 0x30\n 59846: u8 [a0 + 0xe] = a2\n 59849: a2 = a1 >> 0x28\n 59852: u8 [a0 + 0xd] = a2\n 59855: a1 = a1 >> 0x20\n 59858: a5 = u64 [sp + 0xa0]\n 59862: s1 = u64 [sp + 0x98]\n 59866: a4 = s1 | a5\n 59869: a2 = 0x100000000\n 59879: u64 [sp + 0x88] = a2\n 59883: a2 = 0xffffffe0\n 59893: a3 = u64 [sp + 0xb8]\n 59897: a2 = a3 <u a2\n 59900: a3 = u64 [sp + 0xb0]\n 59904: a2 = 0 if a3 != 0\n 59906: u64 [sp + 0x90] = a4\n 59910: a2 = 0 if a4 != 0\n 59912: u8 [a0 + 0xc] = a1\n 59915: jump @865 if a2 == 0\n      : @854 (gas: 18)\n 59919: a4 = s1\n 59921: a0 = u64 [sp + 0xb8]\n 59925: a1 = a0 + 0xa0\n 59929: u64 [sp + 0x40] = a1\n 59932: a0 = a1 <u a0\n 59935: a1 = u64 [sp + 0xb0]\n 59939: a2 = a1 + a0\n 59942: u64 [sp + 0x38] = a2\n 59945: s1 = a2 <u a1\n 59948: s1 = a0 if a0 == 0\n 59951: s1 = s1 + a4\n 59954: a0 = s1 <u a4\n 59957: a0 = a0 + a5\n 59960: u64 [sp + 0x30] = a0\n 59963: a0 = u64 [sp + 0xa8]\n 59967: i32 a0 = a0 + 0x20\n 59970: a1 = 0x20\n 59973: ra = 720, jump @0\n      : @855 [@dyn 360] (gas: 51)\n 59980: u8 [a0 + 31] = 0xa0\n 59985: u8 [a0 + 30] = 0\n 59988: u8 [a0 + 29] = 0\n 59991: u8 [a0 + 28] = 0\n 59994: u8 [a0 + 27] = 0\n 59997: u8 [a0 + 26] = 0\n 60000: u8 [a0 + 25] = 0\n 60003: u8 [a0 + 24] = 0\n 60006: u8 [a0 + 23] = 0\n 60009: u8 [a0 + 22] = 0\n 60012: u8 [a0 + 21] = 0\n 60015: u8 [a0 + 20] = 0\n 60018: u8 [a0 + 19] = 0\n 60021: u8 [a0 + 18] = 0\n 60024: u8 [a0 + 17] = 0\n 60027: u8 [a0 + 16] = 0\n 60030: u8 [a0 + 15] = 0\n 60033: u8 [a0 + 14] = 0\n 60036: u8 [a0 + 13] = 0\n 60039: u8 [a0 + 12] = 0\n 60042: u8 [a0 + 11] = 0\n 60045: u8 [a0 + 10] = 0\n 60048: u8 [a0 + 9] = 0\n 60051: u8 [a0 + 8] = 0\n 60054: u8 [a0 + 7] = 0\n 60057: u8 [a0 + 6] = 0\n 60060: u8 [a0 + 5] = 0\n 60063: u8 [a0 + 4] = 0\n 60066: u8 [a0 + 3] = 0\n 60069: u8 [a0 + 2] = 0\n 60072: u8 [a0 + 1] = 0\n 60075: u8 [a0 + 0] = 0\n 60077: a0 = u64 [sp + 0x30]\n 60080: u64 [sp + 0x198] = a0\n 60084: u64 [sp + 0x190] = s1\n 60088: a0 = u64 [sp + 0x38]\n 60091: u64 [sp + 0x188] = a0\n 60095: a0 = u64 [sp + 0x40]\n 60098: u64 [sp + 0x180] = a0\n 60102: a0 = u64 [sp + 0x68]\n 60105: u64 [sp + 0x1b8] = a0\n 60109: a0 = u64 [sp + 0x70]\n 60112: u64 [sp + 0x1b0] = a0\n 60116: a0 = u64 [sp + 0x78]\n 60119: u64 [sp + 0x1a8] = a0\n 60123: a0 = sp + 0x1c0\n 60127: a1 = sp + 0x1a0\n 60131: a2 = sp + 0x180\n 60135: a3 = u64 [sp + 0x80]\n 60139: u64 [sp + 0x1a0] = a3\n 60143: ra = 722, jump @835\n      : @856 [@dyn 361] (gas: 9)\n 60149: a0 = u64 [sp + 0x88]\n 60153: a0 = a0 + 0xffffffffffffffc0\n 60156: a1 = u64 [sp + 0xb8]\n 60160: a0 = a1 <u a0\n 60163: a1 = u64 [sp + 0xb0]\n 60167: a0 = 0 if a1 != 0\n 60169: a1 = u64 [sp + 0x90]\n 60173: a0 = 0 if a1 != 0\n 60175: jump @865 if a0 == 0\n      : @857 (gas: 37)\n 60179: a2 = u64 [sp + 0x1c0]\n 60183: a5 = u64 [sp + 0x1c8]\n 60187: a4 = u64 [sp + 0x1d8]\n 60191: u64 [sp + 0x80] = a4\n 60195: t0 = u64 [sp + 0x1d0]\n 60199: a1 = u64 [sp + 0xb8]\n 60203: ra = a2 <u a1\n 60206: t2 = a2\n 60208: t1 = a1\n 60210: a3 = u64 [sp + 0xb0]\n 60214: a1 = a5 ^ a3\n 60217: a2 = a5 <u a3\n 60220: u64 [sp + 0x78] = a5\n 60223: s1 = a3\n 60225: a2 = ra if a1 == 0\n 60228: u64 [sp + 0x88] = t0\n 60232: a3 = u64 [sp + 0x98]\n 60236: a0 = t0 - a3\n 60239: a1 = a0 - a2\n 60242: u64 [sp + 0x70] = a1\n 60245: a1 = a0 <u a2\n 60248: a2 = t0 <u a3\n 60251: a3 = u64 [sp + 0xa0]\n 60255: a3 = a4 - a3\n 60258: a3 = a3 - a2\n 60261: a3 = a3 - a1\n 60264: u64 [sp + 0x68] = a3\n 60267: a1 = a5 - s1\n 60270: a0 = a1 - ra\n 60273: u64 [sp + 0x40] = a0\n 60276: a0 = t2 - t1\n 60279: u64 [sp + 0x38] = a0\n 60282: s1 = t2\n 60284: a0 = u64 [sp + 0xa8]\n 60288: i32 a0 = a0 + 0x40\n 60291: a1 = 0x20\n 60294: ra = 724, jump @0\n      : @858 [@dyn 362] (gas: 87)\n 60301: a1 = u64 [sp + 0x68]\n 60304: a1 = reverse a1\n 60306: a2 = u64 [sp + 0x70]\n 60309: a2 = reverse a2\n 60311: a3 = u64 [sp + 0x40]\n 60314: a3 = reverse a3\n 60316: a4 = u64 [sp + 0x38]\n 60319: a4 = reverse a4\n 60321: u8 [a0 + 0x18] = a4\n 60324: a5 = a4 >> 0x38\n 60327: u8 [a0 + 0x1f] = a5\n 60330: a5 = a4 >> 0x30\n 60333: u8 [a0 + 0x1e] = a5\n 60336: a5 = a4 >> 0x28\n 60339: u8 [a0 + 0x1d] = a5\n 60342: a5 = a4 >> 0x20\n 60345: u8 [a0 + 0x1c] = a5\n 60348: a5 = a4 >> 0x18\n 60351: u8 [a0 + 0x1b] = a5\n 60354: a5 = a4 >> 0x10\n 60357: u8 [a0 + 0x1a] = a5\n 60360: a4 = a4 >> 0x8\n 60363: u8 [a0 + 0x19] = a4\n 60366: u8 [a0 + 0x10] = a3\n 60369: a4 = a3 >> 0x38\n 60372: u8 [a0 + 0x17] = a4\n 60375: a4 = a3 >> 0x30\n 60378: u8 [a0 + 0x16] = a4\n 60381: a4 = a3 >> 0x28\n 60384: u8 [a0 + 0x15] = a4\n 60387: a4 = a3 >> 0x20\n 60390: u8 [a0 + 0x14] = a4\n 60393: a4 = a3 >> 0x18\n 60396: u8 [a0 + 0x13] = a4\n 60399: a4 = a3 >> 0x10\n 60402: u8 [a0 + 0x12] = a4\n 60405: a3 = a3 >> 0x8\n 60408: u8 [a0 + 0x11] = a3\n 60411: u8 [a0 + 0x8] = a2\n 60414: a3 = a2 >> 0x38\n 60417: u8 [a0 + 0xf] = a3\n 60420: a3 = a2 >> 0x30\n 60423: u8 [a0 + 0xe] = a3\n 60426: a3 = a2 >> 0x28\n 60429: u8 [a0 + 0xd] = a3\n 60432: a3 = a2 >> 0x20\n 60435: u8 [a0 + 0xc] = a3\n 60438: a3 = a2 >> 0x18\n 60441: u8 [a0 + 0xb] = a3\n 60444: a3 = a2 >> 0x10\n 60447: u8 [a0 + 0xa] = a3\n 60450: a2 = a2 >> 0x8\n 60453: u8 [a0 + 0x9] = a2\n 60456: u8 [a0] = a1\n 60458: a2 = a1 >> 0x38\n 60461: u8 [a0 + 0x7] = a2\n 60464: a2 = a1 >> 0x30\n 60467: u8 [a0 + 0x6] = a2\n 60470: a2 = a1 >> 0x28\n 60473: u8 [a0 + 0x5] = a2\n 60476: a2 = a1 >> 0x20\n 60479: u8 [a0 + 0x4] = a2\n 60482: a2 = a1 >> 0x18\n 60485: u8 [a0 + 0x3] = a2\n 60488: a2 = a1 >> 0x10\n 60491: u8 [a0 + 0x2] = a2\n 60494: a1 = a1 >> 0x8\n 60497: u8 [a0 + 0x1] = a1\n 60500: a0 = u64 [sp + 0x80]\n 60504: u64 [sp + 0x138] = a0\n 60508: a0 = u64 [sp + 0x88]\n 60512: u64 [sp + 0x130] = a0\n 60516: a0 = u64 [sp + 0x78]\n 60519: u64 [sp + 0x128] = a0\n 60523: u64 [sp + 0x120] = s1\n 60527: a0 = u64 [sp + 0x48]\n 60530: u64 [sp + 0x158] = a0\n 60534: a0 = u64 [sp + 0x50]\n 60537: u64 [sp + 0x150] = a0\n 60541: a0 = u64 [sp + 0x58]\n 60544: u64 [sp + 0x148] = a0\n 60548: a0 = sp + 0x160\n 60552: a1 = sp + 0x140\n 60556: a2 = sp + 0x120\n 60560: a3 = u64 [sp + 0x60]\n 60563: u64 [sp + 0x140] = a3\n 60567: ra = 726, jump @468\n      : @859 [@dyn 363] (gas: 10)\n 60573: s1 = 0x100000000\n 60583: u64 [sp + 0x70] = s1\n 60586: a0 = 0xffffffa0\n 60596: a1 = u64 [sp + 0xb8]\n 60600: a0 = a1 <u a0\n 60603: a1 = u64 [sp + 0xb0]\n 60607: a0 = 0 if a1 != 0\n 60609: a1 = u64 [sp + 0x90]\n 60613: a0 = 0 if a1 != 0\n 60615: jump @865 if a0 == 0\n      : @860 (gas: 15)\n 60619: a0 = u64 [sp + 0x178]\n 60623: u64 [sp + 0x78] = a0\n 60626: a0 = u64 [sp + 0x170]\n 60630: u64 [sp + 0x80] = a0\n 60634: a0 = u64 [sp + 0x168]\n 60638: u64 [sp + 0x88] = a0\n 60642: a0 = u64 [sp + 0x160]\n 60646: u64 [sp + 0x68] = a0\n 60649: a0 = u64 [sp + 0x20]\n 60652: a0 = a0 >> 0x20\n 60655: s1 = a0 << 0x20\n 60658: a0 = u64 [sp + 0xa8]\n 60662: i32 a0 = a0 + 0x60\n 60665: a1 = 0x20\n 60668: ra = 728, jump @0\n      : @861 [@dyn 364] (gas: 45)\n 60675: a1 = reverse s1\n 60677: u8 [a0 + 31] = 0\n 60680: u8 [a0 + 30] = 0\n 60683: u8 [a0 + 29] = 0\n 60686: u8 [a0 + 28] = 0\n 60689: u8 [a0 + 27] = 0\n 60692: u8 [a0 + 26] = 0\n 60695: u8 [a0 + 25] = 0\n 60698: u8 [a0 + 24] = 0\n 60701: u8 [a0 + 23] = 0\n 60704: u8 [a0 + 22] = 0\n 60707: u8 [a0 + 21] = 0\n 60710: u8 [a0 + 20] = 0\n 60713: u8 [a0 + 19] = 0\n 60716: u8 [a0 + 18] = 0\n 60719: u8 [a0 + 17] = 0\n 60722: u8 [a0 + 16] = 0\n 60725: u8 [a0 + 15] = 0\n 60728: u8 [a0 + 14] = 0\n 60731: u8 [a0 + 13] = 0\n 60734: u8 [a0 + 12] = 0\n 60737: u8 [a0 + 11] = 0\n 60740: u8 [a0 + 10] = 0\n 60743: u8 [a0 + 9] = 0\n 60746: u8 [a0 + 8] = 0\n 60749: u8 [a0 + 7] = 0\n 60752: u8 [a0 + 6] = 0\n 60755: u8 [a0 + 5] = 0\n 60758: u8 [a0 + 4] = 0\n 60761: u8 [a0] = a1\n 60763: a2 = a1 >> 0x18\n 60766: u8 [a0 + 0x3] = a2\n 60769: a2 = a1 >> 0x10\n 60772: u8 [a0 + 0x2] = a2\n 60775: a1 = a1 >> 0x8\n 60778: a2 = u64 [sp + 0x70]\n 60781: a2 = a2 + 0xffffffffffffff80\n 60784: a3 = u64 [sp + 0xb8]\n 60788: a2 = a3 <u a2\n 60791: a3 = u64 [sp + 0xb0]\n 60795: a2 = 0 if a3 != 0\n 60797: a3 = u64 [sp + 0x90]\n 60801: a2 = 0 if a3 != 0\n 60803: u8 [a0 + 0x1] = a1\n 60806: jump @865 if a2 == 0\n      : @862 (gas: 33)\n 60810: t0 = u64 [sp + 0xb8]\n 60814: a1 = u64 [sp + 0x68]\n 60817: t2 = a1 <u t0\n 60820: t1 = a1\n 60822: a5 = u64 [sp + 0xb0]\n 60826: a3 = u64 [sp + 0x88]\n 60830: a1 = a3 ^ a5\n 60833: a2 = a3 <u a5\n 60836: a4 = a3\n 60838: a2 = t2 if a1 == 0\n 60841: a3 = u64 [sp + 0x98]\n 60845: a1 = u64 [sp + 0x80]\n 60849: a0 = a1 - a3\n 60852: s1 = a0 - a2\n 60855: u64 [sp + 0x90] = s1\n 60859: s1 = a0 <u a2\n 60862: a2 = a1 <u a3\n 60865: a3 = u64 [sp + 0xa0]\n 60869: a1 = u64 [sp + 0x78]\n 60872: a3 = a1 - a3\n 60875: a3 = a3 - a2\n 60878: a3 = a3 - s1\n 60881: u64 [sp + 0xa0] = a3\n 60885: a1 = a4 - a5\n 60888: a0 = a1 - t2\n 60891: u64 [sp + 0xb0] = a0\n 60895: a0 = t1 - t0\n 60898: u64 [sp + 0xb8] = a0\n 60902: s1 = t1\n 60904: a0 = u64 [sp + 0xa8]\n 60908: i32 a0 = a0 + 0x80\n 60912: a1 = 0x20\n 60915: ra = 730, jump @0\n      : @863 [@dyn 365] (gas: 87)\n 60922: a1 = u64 [sp + 0xa0]\n 60926: a1 = reverse a1\n 60928: a2 = u64 [sp + 0x90]\n 60932: a2 = reverse a2\n 60934: a3 = u64 [sp + 0xb0]\n 60938: a3 = reverse a3\n 60940: a4 = u64 [sp + 0xb8]\n 60944: a4 = reverse a4\n 60946: u8 [a0 + 0x18] = a4\n 60949: a5 = a4 >> 0x38\n 60952: u8 [a0 + 0x1f] = a5\n 60955: a5 = a4 >> 0x30\n 60958: u8 [a0 + 0x1e] = a5\n 60961: a5 = a4 >> 0x28\n 60964: u8 [a0 + 0x1d] = a5\n 60967: a5 = a4 >> 0x20\n 60970: u8 [a0 + 0x1c] = a5\n 60973: a5 = a4 >> 0x18\n 60976: u8 [a0 + 0x1b] = a5\n 60979: a5 = a4 >> 0x10\n 60982: u8 [a0 + 0x1a] = a5\n 60985: a4 = a4 >> 0x8\n 60988: u8 [a0 + 0x19] = a4\n 60991: u8 [a0 + 0x10] = a3\n 60994: a4 = a3 >> 0x38\n 60997: u8 [a0 + 0x17] = a4\n 61000: a4 = a3 >> 0x30\n 61003: u8 [a0 + 0x16] = a4\n 61006: a4 = a3 >> 0x28\n 61009: u8 [a0 + 0x15] = a4\n 61012: a4 = a3 >> 0x20\n 61015: u8 [a0 + 0x14] = a4\n 61018: a4 = a3 >> 0x18\n 61021: u8 [a0 + 0x13] = a4\n 61024: a4 = a3 >> 0x10\n 61027: u8 [a0 + 0x12] = a4\n 61030: a3 = a3 >> 0x8\n 61033: u8 [a0 + 0x11] = a3\n 61036: u8 [a0 + 0x8] = a2\n 61039: a3 = a2 >> 0x38\n 61042: u8 [a0 + 0xf] = a3\n 61045: a3 = a2 >> 0x30\n 61048: u8 [a0 + 0xe] = a3\n 61051: a3 = a2 >> 0x28\n 61054: u8 [a0 + 0xd] = a3\n 61057: a3 = a2 >> 0x20\n 61060: u8 [a0 + 0xc] = a3\n 61063: a3 = a2 >> 0x18\n 61066: u8 [a0 + 0xb] = a3\n 61069: a3 = a2 >> 0x10\n 61072: u8 [a0 + 0xa] = a3\n 61075: a2 = a2 >> 0x8\n 61078: u8 [a0 + 0x9] = a2\n 61081: u8 [a0] = a1\n 61083: a2 = a1 >> 0x38\n 61086: u8 [a0 + 0x7] = a2\n 61089: a2 = a1 >> 0x30\n 61092: u8 [a0 + 0x6] = a2\n 61095: a2 = a1 >> 0x28\n 61098: u8 [a0 + 0x5] = a2\n 61101: a2 = a1 >> 0x20\n 61104: u8 [a0 + 0x4] = a2\n 61107: a2 = a1 >> 0x18\n 61110: u8 [a0 + 0x3] = a2\n 61113: a2 = a1 >> 0x10\n 61116: u8 [a0 + 0x2] = a2\n 61119: a1 = a1 >> 0x8\n 61122: u8 [a0 + 0x1] = a1\n 61125: a0 = u64 [sp + 0x78]\n 61128: u64 [sp + 0xd8] = a0\n 61132: a0 = u64 [sp + 0x80]\n 61136: u64 [sp + 0xd0] = a0\n 61140: a0 = u64 [sp + 0x88]\n 61144: u64 [sp + 0xc8] = a0\n 61148: u64 [sp + 0xc0] = s1\n 61152: a0 = u64 [sp]\n 61154: u64 [sp + 0xf8] = a0\n 61158: a0 = u64 [sp + 0x8]\n 61161: u64 [sp + 0xf0] = a0\n 61165: a0 = u64 [sp + 0x10]\n 61168: u64 [sp + 0xe8] = a0\n 61172: a0 = sp + 0x100\n 61176: a1 = sp + 0xe0\n 61180: a2 = sp + 0xc0\n 61184: a3 = u64 [sp + 0x18]\n 61187: u64 [sp + 0xe0] = a3\n 61191: ra = 732, jump @468\n      : @864 [@dyn 366] (gas: 15)\n 61197: a0 = u64 [sp + 0x110]\n 61201: a1 = u64 [sp + 0x118]\n 61205: a2 = u64 [sp + 0x100]\n 61209: a3 = u64 [sp + 0x108]\n 61213: a4 = u64 [sp + 0x28]\n 61216: u64 [a4 + 0x10] = a0\n 61219: u64 [a4 + 0x18] = a1\n 61222: u64 [a4] = a2\n 61224: u64 [a4 + 0x8] = a3\n 61227: sp = s0 + 0xfffffffffffffe00\n 61231: ra = u64 [sp + 0x1f8]\n 61235: s0 = u64 [sp + 0x1f0]\n 61239: s1 = u64 [sp + 0x1e8]\n 61243: sp = sp + 0x200\n 61247: ret\n      : @865 (gas: 1)\n 61249: trap\n      : @866 (gas: 32)\n 61250: sp = sp + 0xfffffffffffffaa0\n 61254: u64 [sp + 0x558] = ra\n 61258: u64 [sp + 0x550] = s0\n 61262: u64 [sp + 0x548] = s1\n 61266: s0 = sp + 0x560\n 61270: sp = sp & 0xffffffffffffffe0\n 61273: a3 = u64 [a2 + 0x18]\n 61276: u64 [sp + 0x188] = a3\n 61280: a3 = u64 [a2 + 0x10]\n 61283: u64 [sp + 0x190] = a3\n 61287: a3 = u64 [a2 + 0x8]\n 61290: u64 [sp + 0x198] = a3\n 61294: a2 = u64 [a2]\n 61296: u64 [sp + 0x1a0] = a2\n 61300: a2 = u64 [a1 + 0x18]\n 61303: u64 [sp + 0x1a8] = a2\n 61307: a2 = u64 [a1 + 0x10]\n 61310: u64 [sp + 0x1b0] = a2\n 61314: a2 = u64 [a1 + 0x8]\n 61317: u64 [sp + 0x1b8] = a2\n 61321: a1 = u64 [a1]\n 61323: u64 [sp + 0x1c0] = a1\n 61327: a1 = u64 [a0]\n 61329: u64 [sp + 0x1d8] = a1\n 61333: a1 = u64 [a0 + 0x8]\n 61336: u64 [sp + 0x1d0] = a1\n 61340: a1 = u64 [a0 + 0x10]\n 61343: u64 [sp + 0x1c8] = a1\n 61347: s1 = u64 [a0 + 0x18]\n 61350: a1 = 0x20\n 61353: a0 = 0\n 61355: ra = 734, jump @0\n      : @867 [@dyn 367] (gas: 103)\n 61362: u64 [sp + 0x180] = s1\n 61366: a2 = reverse s1\n 61368: a1 = u64 [sp + 0x1c8]\n 61372: a4 = reverse a1\n 61374: a1 = u64 [sp + 0x1d0]\n 61378: a5 = reverse a1\n 61380: a1 = u64 [sp + 0x1d8]\n 61384: a3 = reverse a1\n 61386: u8 [a0 + 0x18] = a3\n 61389: u8 [a0 + 0x10] = a5\n 61392: u8 [a0 + 0x8] = a4\n 61395: u8 [a0] = a2\n 61397: a1 = a3 >> 0x38\n 61400: u64 [sp + 0x170] = a1\n 61404: u8 [a0 + 0x1f] = a1\n 61407: a1 = a3 >> 0x30\n 61410: u64 [sp + 0x160] = a1\n 61414: u8 [a0 + 0x1e] = a1\n 61417: a1 = a3 >> 0x28\n 61420: u64 [sp + 0x158] = a1\n 61424: u8 [a0 + 0x1d] = a1\n 61427: a1 = a3 >> 0x20\n 61430: u64 [sp + 0x148] = a1\n 61434: u8 [a0 + 0x1c] = a1\n 61437: a1 = a3 >> 0x18\n 61440: u64 [sp + 0x140] = a1\n 61444: u8 [a0 + 0x1b] = a1\n 61447: a1 = a3 >> 0x10\n 61450: u64 [sp + 0x138] = a1\n 61454: u8 [a0 + 0x1a] = a1\n 61457: u64 [sp + 0x150] = a3\n 61461: a1 = a3 >> 0x8\n 61464: u64 [sp + 0x178] = a1\n 61468: u8 [a0 + 0x19] = a1\n 61471: a1 = a5 >> 0x38\n 61474: u64 [sp + 0x120] = a1\n 61478: u8 [a0 + 0x17] = a1\n 61481: a1 = a5 >> 0x30\n 61484: u64 [sp + 0x118] = a1\n 61488: u8 [a0 + 0x16] = a1\n 61491: a1 = a5 >> 0x28\n 61494: u64 [sp + 0x110] = a1\n 61498: u8 [a0 + 0x15] = a1\n 61501: a1 = a5 >> 0x20\n 61504: u64 [sp + 0x108] = a1\n 61508: u8 [a0 + 0x14] = a1\n 61511: a1 = a5 >> 0x18\n 61514: u64 [sp + 0x100] = a1\n 61518: u8 [a0 + 0x13] = a1\n 61521: a1 = a5 >> 0x10\n 61524: u64 [sp + 0xf8] = a1\n 61528: u8 [a0 + 0x12] = a1\n 61531: u64 [sp + 0x128] = a5\n 61535: a5 = a5 >> 0x8\n 61538: u64 [sp + 0xf0] = a5\n 61542: u8 [a0 + 0x11] = a5\n 61545: a1 = a4 >> 0x38\n 61548: u64 [sp + 0xe8] = a1\n 61552: u8 [a0 + 0xf] = a1\n 61555: a1 = a4 >> 0x30\n 61558: u64 [sp + 0xe0] = a1\n 61562: u8 [a0 + 0xe] = a1\n 61565: a1 = a4 >> 0x28\n 61568: u64 [sp + 0xd8] = a1\n 61572: u8 [a0 + 0xd] = a1\n 61575: a1 = a4 >> 0x20\n 61578: u64 [sp + 0xd0] = a1\n 61582: u8 [a0 + 0xc] = a1\n 61585: a1 = a4 >> 0x18\n 61588: u64 [sp + 0xc8] = a1\n 61592: u8 [a0 + 0xb] = a1\n 61595: a1 = a4 >> 0x10\n 61598: u64 [sp + 0xc0] = a1\n 61602: u8 [a0 + 0xa] = a1\n 61605: u64 [sp + 0x130] = a4\n 61609: a4 = a4 >> 0x8\n 61612: u64 [sp + 0xb8] = a4\n 61616: u8 [a0 + 0x9] = a4\n 61619: a1 = a2 >> 0x38\n 61622: u64 [sp + 0xb0] = a1\n 61626: u8 [a0 + 0x7] = a1\n 61629: a1 = a2 >> 0x30\n 61632: u64 [sp + 0xa8] = a1\n 61636: u8 [a0 + 0x6] = a1\n 61639: a1 = a2 >> 0x28\n 61642: u64 [sp + 0xa0] = a1\n 61646: u8 [a0 + 0x5] = a1\n 61649: a1 = a2 >> 0x20\n 61652: u64 [sp + 0x98] = a1\n 61656: u8 [a0 + 0x4] = a1\n 61659: a1 = a2 >> 0x18\n 61662: u64 [sp + 0x90] = a1\n 61666: u8 [a0 + 0x3] = a1\n 61669: a1 = a2 >> 0x10\n 61672: u64 [sp + 0x88] = a1\n 61676: u8 [a0 + 0x2] = a1\n 61679: u64 [sp + 0x168] = a2\n 61683: a2 = a2 >> 0x8\n 61686: u64 [sp + 0x80] = a2\n 61690: u8 [a0 + 0x1] = a2\n 61693: a0 = 0x20\n 61696: a1 = 0x20\n 61699: ra = 736, jump @0\n      : @868 [@dyn 368] (gas: 36)\n 61706: u8 [a0 + 31] = 0x4\n 61710: u8 [a0 + 30] = 0\n 61713: u8 [a0 + 29] = 0\n 61716: u8 [a0 + 28] = 0\n 61719: u8 [a0 + 27] = 0\n 61722: u8 [a0 + 26] = 0\n 61725: u8 [a0 + 25] = 0\n 61728: u8 [a0 + 24] = 0\n 61731: u8 [a0 + 23] = 0\n 61734: u8 [a0 + 22] = 0\n 61737: u8 [a0 + 21] = 0\n 61740: u8 [a0 + 20] = 0\n 61743: u8 [a0 + 19] = 0\n 61746: u8 [a0 + 18] = 0\n 61749: u8 [a0 + 17] = 0\n 61752: u8 [a0 + 16] = 0\n 61755: u8 [a0 + 15] = 0\n 61758: u8 [a0 + 14] = 0\n 61761: u8 [a0 + 13] = 0\n 61764: u8 [a0 + 12] = 0\n 61767: u8 [a0 + 11] = 0\n 61770: u8 [a0 + 10] = 0\n 61773: u8 [a0 + 9] = 0\n 61776: u8 [a0 + 8] = 0\n 61779: u8 [a0 + 7] = 0\n 61782: u8 [a0 + 6] = 0\n 61785: u8 [a0 + 5] = 0\n 61788: u8 [a0 + 4] = 0\n 61791: u8 [a0 + 3] = 0\n 61794: u8 [a0 + 2] = 0\n 61797: u8 [a0 + 1] = 0\n 61800: u8 [a0 + 0] = 0\n 61802: a1 = 0x40\n 61805: s1 = 0x40\n 61808: a0 = 0\n 61810: ra = 738, jump @0\n      : @869 [@dyn 369] (gas: 36)\n 61817: i32 a0 = a0 + 0\n 61819: i32 a2 = sp + 0x520\n 61823: a1 = 0x40\n 61826: ecalli 9 // 'hash_keccak_256'\n 61828: a0 = u64 [sp + 0x520]\n 61832: a1 = u64 [sp + 0x528]\n 61836: a2 = u64 [sp + 0x530]\n 61840: a3 = u64 [sp + 0x538]\n 61844: a0 = reverse a0\n 61846: a1 = reverse a1\n 61848: a2 = reverse a2\n 61850: a3 = reverse a3\n 61852: a3 = a3 + 0x1\n 61855: a4 = a3 <u 0x1\n 61858: a2 = a2 + a4\n 61861: a4 = a3 | a2\n 61864: a4 = a4 <u 0x1\n 61867: a4 = a4 + a1\n 61870: a1 = a4 <u a1\n 61873: a0 = a0 + a1\n 61876: u64 [sp + 0x508] = a2\n 61880: u64 [sp + 0x500] = a3\n 61884: u64 [sp + 0x510] = a4\n 61888: u64 [sp + 0x518] = a0\n 61892: u64 [sp + 1336] = 0\n 61896: u64 [sp + 1328] = 0\n 61900: u64 [sp + 1320] = 0\n 61904: u64 [sp + 1312] = 0\n 61908: u32 [sp + 1344] = 0x20\n 61913: i32 a1 = sp + 0x500\n 61917: i32 a3 = sp + 0x520\n 61921: i32 a4 = sp + 0x540\n 61925: a2 = 0xffffffffffffffff\n 61928: a0 = 0\n 61930: ecalli 8 // 'get_storage'\n 61932: fallthrough\n      : @870 (gas: 8)\n 61933: a0 = u64 [sp + 0x530]\n 61937: a1 = u64 [sp + 0x538]\n 61941: a2 = u64 [sp + 0x528]\n 61945: a3 = u64 [sp + 0x520]\n 61949: a1 = a1 | a2\n 61952: a0 = a0 | a3\n 61955: a0 = a0 | a1\n 61958: jump @880 if a0 != 0\n      : @871 (gas: 3)\n 61962: a0 = 0x40\n 61965: a1 = 0x20\n 61968: ra = 740, jump @0\n      : @872 [@dyn 370] (gas: 100)\n 61975: a1 = u8 [a0 + 0x11]\n 61978: a2 = u8 [a0 + 0x10]\n 61981: a3 = u8 [a0 + 0x12]\n 61984: a4 = u8 [a0 + 0x13]\n 61987: a1 = a1 << 0x8\n 61990: a1 = a1 | a2\n 61993: a3 = a3 << 0x10\n 61996: a4 = a4 << 0x18\n 61999: a3 = a3 | a4\n 62002: a1 = a1 | a3\n 62005: a2 = u8 [a0 + 0x15]\n 62008: a3 = u8 [a0 + 0x14]\n 62011: a4 = u8 [a0 + 0x16]\n 62014: a5 = u8 [a0 + 0x17]\n 62017: a2 = a2 << 0x8\n 62020: a2 = a2 | a3\n 62023: a4 = a4 << 0x10\n 62026: a5 = a5 << 0x18\n 62029: a4 = a4 | a5\n 62032: a2 = a2 | a4\n 62035: a2 = a2 << 0x20\n 62038: t0 = a2 | a1\n 62041: a2 = u8 [a0 + 0x1]\n 62044: a3 = u8 [a0]\n 62046: a4 = u8 [a0 + 0x2]\n 62049: a5 = u8 [a0 + 0x3]\n 62052: a2 = a2 << 0x8\n 62055: a2 = a2 | a3\n 62058: a4 = a4 << 0x10\n 62061: a5 = a5 << 0x18\n 62064: a4 = a4 | a5\n 62067: a2 = a2 | a4\n 62070: a3 = u8 [a0 + 0x5]\n 62073: a4 = u8 [a0 + 0x4]\n 62076: a5 = u8 [a0 + 0x6]\n 62079: s1 = u8 [a0 + 0x7]\n 62082: a3 = a3 << 0x8\n 62085: a3 = a3 | a4\n 62088: a5 = a5 << 0x10\n 62091: s1 = s1 << 0x18\n 62094: a5 = a5 | s1\n 62097: a3 = a3 | a5\n 62100: a3 = a3 << 0x20\n 62103: a2 = a2 | a3\n 62106: a3 = u8 [a0 + 0x19]\n 62109: a4 = u8 [a0 + 0x18]\n 62112: a5 = u8 [a0 + 0x1a]\n 62115: s1 = u8 [a0 + 0x1b]\n 62118: a3 = a3 << 0x8\n 62121: a3 = a3 | a4\n 62124: a5 = a5 << 0x10\n 62127: s1 = s1 << 0x18\n 62130: a5 = a5 | s1\n 62133: a3 = a3 | a5\n 62136: a4 = u8 [a0 + 0x1d]\n 62139: a5 = u8 [a0 + 0x1c]\n 62142: s1 = u8 [a0 + 0x1e]\n 62145: a1 = u8 [a0 + 0x1f]\n 62148: a4 = a4 << 0x8\n 62151: a4 = a4 | a5\n 62154: s1 = s1 << 0x10\n 62157: a1 = a1 << 0x18\n 62160: a1 = a1 | s1\n 62163: a1 = a1 | a4\n 62166: a1 = a1 << 0x20\n 62169: a3 = a3 | a1\n 62172: a1 = u8 [a0 + 0x9]\n 62175: a4 = u8 [a0 + 0x8]\n 62178: a5 = u8 [a0 + 0xa]\n 62181: s1 = u8 [a0 + 0xb]\n 62184: a1 = a1 << 0x8\n 62187: a1 = a1 | a4\n 62190: a5 = a5 << 0x10\n 62193: s1 = s1 << 0x18\n 62196: a5 = a5 | s1\n 62199: a1 = a1 | a5\n 62202: a4 = u8 [a0 + 0xd]\n 62205: a5 = u8 [a0 + 0xc]\n 62208: s1 = u8 [a0 + 0xe]\n 62211: a0 = u8 [a0 + 0xf]\n 62214: a4 = a4 << 0x8\n 62217: a4 = a4 | a5\n 62220: s1 = s1 << 0x10\n 62223: a0 = a0 << 0x18\n 62226: a0 = a0 | s1\n 62229: a0 = a0 | a4\n 62232: a0 = a0 << 0x20\n 62235: a0 = a0 | a1\n 62238: s1 = reverse a0\n 62240: a3 = reverse a3\n 62242: a4 = reverse a2\n 62244: a2 = reverse t0\n 62246: a0 = a2 | a4\n 62249: a1 = a3 | s1\n 62252: a1 = a1 | a0\n 62255: a1 = a1 >> 0x20\n 62258: a0 = a0 | s1\n 62261: a0 = a0 << 0x20\n 62264: a0 = a0 | a1\n 62267: jump @874 if a0 == 0\n      : @873 (gas: 1)\n 62270: jump @912\n      : @874 (gas: 7)\n 62273: i32 a0 = a3 + 0\n 62275: a1 = 0x20\n 62278: u64 [sp + 0x1c0] = a0\n 62282: u64 [sp + 0x1c8] = a3\n 62286: u64 [sp + 0x1d0] = a2\n 62290: u64 [sp + 0x1d8] = a4\n 62294: ra = 742, jump @0\n      : @875 [@dyn 371] (gas: 50)\n 62301: u8 [a0 + 31] = 0\n 62304: u8 [a0 + 30] = 0\n 62307: u8 [a0 + 29] = 0\n 62310: u8 [a0 + 28] = 0\n 62313: u8 [a0 + 27] = 0\n 62316: u8 [a0 + 26] = 0\n 62319: u8 [a0 + 25] = 0\n 62322: u8 [a0 + 24] = 0\n 62325: u8 [a0 + 23] = 0\n 62328: u8 [a0 + 22] = 0\n 62331: u8 [a0 + 21] = 0\n 62334: u8 [a0 + 20] = 0\n 62337: u8 [a0 + 19] = 0\n 62340: u8 [a0 + 18] = 0\n 62343: u8 [a0 + 17] = 0\n 62346: u8 [a0 + 16] = 0\n 62349: u8 [a0 + 15] = 0\n 62352: u8 [a0 + 14] = 0\n 62355: u8 [a0 + 13] = 0\n 62358: u8 [a0 + 12] = 0\n 62361: u8 [a0 + 11] = 0\n 62364: u8 [a0 + 10] = 0\n 62367: u8 [a0 + 9] = 0\n 62370: u8 [a0 + 8] = 0\n 62373: u8 [a0 + 7] = 0\n 62376: u8 [a0 + 6] = 0\n 62379: u8 [a0 + 5] = 0\n 62382: u8 [a0 + 4] = 0\n 62385: u8 [a0 + 3] = 0xa0\n 62390: u8 [a0 + 2] = 0x79\n 62394: u8 [a0 + 1] = 0xc3\n 62399: u8 [a0 + 0] = 0x8\n 62402: a1 = u64 [sp + 0x1c8]\n 62406: a0 = a1 + 0x4\n 62409: a1 = a0 <u a1\n 62412: a3 = u64 [sp + 0x1d0]\n 62416: a2 = a3 + a1\n 62419: a3 = a2 <u a3\n 62422: a3 = a1 if a1 == 0\n 62425: a3 = a3 + s1\n 62428: a1 = a3 <u s1\n 62431: a4 = u64 [sp + 0x1d8]\n 62435: a4 = a4 + a1\n 62438: u64 [sp + 0x1e8] = a2\n 62442: u64 [sp + 0x1e0] = a0\n 62446: u64 [sp + 0x1f0] = a3\n 62450: a0 = sp + 0x200\n 62454: a1 = sp + 0x1e0\n 62458: u64 [sp + 0x1f8] = a4\n 62462: ra = 744, jump @813\n      : @876 [@dyn 372] (gas: 30)\n 62468: a0 = u64 [sp + 0x208]\n 62472: t0 = u64 [sp + 0x218]\n 62476: t2 = u64 [sp + 0x200]\n 62480: a3 = u64 [sp + 0x210]\n 62484: a1 = u64 [sp + 0x1d0]\n 62488: a4 = a0 ^ a1\n 62491: a5 = a0 <u a1\n 62494: t1 = a1\n 62496: a2 = u64 [sp + 0x1c8]\n 62500: a1 = t2 <u a2\n 62503: a5 = a1 if a4 == 0\n 62506: a4 = a3 - s1\n 62509: a3 = a3 <u s1\n 62512: s1 = u64 [sp + 0x1d8]\n 62516: s1 = t0 - s1\n 62519: s1 = s1 - a3\n 62522: a3 = a4 <u a5\n 62525: s1 = s1 - a3\n 62528: a4 = a4 - a5\n 62531: a0 = a0 - t1\n 62534: a1 = a0 - a1\n 62537: a0 = t2 - a2\n 62540: a1 = a1 | s1\n 62543: a2 = a0 | a4\n 62546: a2 = a2 | a1\n 62549: a1 = a1 | a4\n 62552: a2 = a2 >> 0x20\n 62555: a1 = a1 << 0x20\n 62558: a1 = a1 | a2\n 62561: jump @878 if a1 == 0\n      : @877 (gas: 1)\n 62564: jump @912\n      : @878 (gas: 4)\n 62567: i32 s1 = a0 + 0\n 62569: a0 = u64 [sp + 0x1c0]\n 62573: a1 = s1\n 62575: ra = 746, jump @0\n      : @879 [@dyn 373] (gas: 5)\n 62582: i32 a1 = a0 + 0\n 62584: a0 = 0x1\n 62587: a2 = s1\n 62589: ecalli 14 // 'seal_return'\n 62591: fallthrough\n      : @880 (gas: 7)\n 62592: u64 [sp + 1208] = 0\n 62596: u64 [sp + 1200] = 0\n 62600: u64 [sp + 0x4a0] = s1\n 62604: a0 = sp + 0x4c0\n 62608: a1 = sp + 0x4a0\n 62612: u64 [sp + 1192] = 0\n 62616: ra = 748, jump @113\n      : @881 [@dyn 374] (gas: 12)\n 62623: a4 = u64 [sp + 0x4d8]\n 62627: a3 = u64 [sp + 0x4d0]\n 62631: a2 = u64 [sp + 0x4c8]\n 62635: s1 = u64 [sp + 0x4c0]\n 62639: a0 = a2 | a4\n 62642: a1 = s1 | a3\n 62645: a1 = a1 | a0\n 62648: a1 = a1 >> 0x20\n 62651: a0 = a0 | a3\n 62654: a0 = a0 << 0x20\n 62657: a0 = a0 | a1\n 62660: jump @883 if a0 == 0\n      : @882 (gas: 1)\n 62663: jump @912\n      : @883 (gas: 7)\n 62666: i32 a0 = s1 + 0\n 62668: a1 = 0x20\n 62671: u64 [sp + 0x60] = a0\n 62674: u64 [sp + 0x78] = a2\n 62677: u64 [sp + 0x70] = a3\n 62680: u64 [sp + 0x68] = a4\n 62683: ra = 750, jump @0\n      : @884 [@dyn 375] (gas: 42)\n 62690: a4 = 0x1\n 62693: a1 = u64 [sp + 0x70]\n 62696: a2 = u64 [sp + 0x68]\n 62699: a2 = a2 | a1\n 62702: a1 = 0xffffffe0\n 62712: a1 = s1 <u a1\n 62715: a3 = u64 [sp + 0x78]\n 62718: a1 = 0 if a3 != 0\n 62720: a1 = 0 if a2 != 0\n 62722: u8 [a0 + 0x1f] = a4\n 62725: u8 [a0 + 30] = 0\n 62728: u8 [a0 + 29] = 0\n 62731: u8 [a0 + 28] = 0\n 62734: u8 [a0 + 27] = 0\n 62737: u8 [a0 + 26] = 0\n 62740: u8 [a0 + 25] = 0\n 62743: u8 [a0 + 24] = 0\n 62746: u8 [a0 + 23] = 0\n 62749: u8 [a0 + 22] = 0\n 62752: u8 [a0 + 21] = 0\n 62755: u8 [a0 + 20] = 0\n 62758: u8 [a0 + 19] = 0\n 62761: u8 [a0 + 18] = 0\n 62764: u8 [a0 + 17] = 0\n 62767: u8 [a0 + 16] = 0\n 62770: u8 [a0 + 15] = 0\n 62773: u8 [a0 + 14] = 0\n 62776: u8 [a0 + 13] = 0\n 62779: u8 [a0 + 12] = 0\n 62782: u8 [a0 + 11] = 0\n 62785: u8 [a0 + 10] = 0\n 62788: u8 [a0 + 9] = 0\n 62791: u8 [a0 + 8] = 0\n 62794: u8 [a0 + 7] = 0\n 62797: u8 [a0 + 6] = 0\n 62800: u8 [a0 + 5] = 0\n 62803: u8 [a0 + 4] = 0\n 62806: u8 [a0 + 3] = 0\n 62809: u8 [a0 + 2] = 0\n 62812: u8 [a0 + 1] = 0\n 62815: u8 [a0 + 0] = 0\n 62817: jump @886 if a1 != 0\n      : @885 (gas: 1)\n 62820: jump @912\n      : @886 (gas: 6)\n 62823: u64 [sp + 0x30] = s1\n 62826: s1 = u64 [sp + 0x60]\n 62829: i32 a0 = s1 + 0x20\n 62832: a1 = 0x20\n 62835: u64 [sp + 0x58] = a0\n 62838: ra = 752, jump @0\n      : @887 [@dyn 376] (gas: 39)\n 62845: u8 [a0 + 31] = 0x60\n 62849: u8 [a0 + 30] = 0\n 62852: u8 [a0 + 29] = 0\n 62855: u8 [a0 + 28] = 0\n 62858: u8 [a0 + 27] = 0\n 62861: u8 [a0 + 26] = 0\n 62864: u8 [a0 + 25] = 0\n 62867: u8 [a0 + 24] = 0\n 62870: u8 [a0 + 23] = 0\n 62873: u8 [a0 + 22] = 0\n 62876: u8 [a0 + 21] = 0\n 62879: u8 [a0 + 20] = 0\n 62882: u8 [a0 + 19] = 0\n 62885: u8 [a0 + 18] = 0\n 62888: u8 [a0 + 17] = 0\n 62891: u8 [a0 + 16] = 0\n 62894: u8 [a0 + 15] = 0\n 62897: u8 [a0 + 14] = 0\n 62900: u8 [a0 + 13] = 0\n 62903: u8 [a0 + 12] = 0\n 62906: u8 [a0 + 11] = 0\n 62909: u8 [a0 + 10] = 0\n 62912: u8 [a0 + 9] = 0\n 62915: u8 [a0 + 8] = 0\n 62918: u8 [a0 + 7] = 0\n 62921: u8 [a0 + 6] = 0\n 62924: u8 [a0 + 5] = 0\n 62927: u8 [a0 + 4] = 0\n 62930: u8 [a0 + 3] = 0\n 62933: u8 [a0 + 2] = 0\n 62936: u8 [a0 + 1] = 0\n 62939: u8 [a0 + 0] = 0\n 62941: u64 [sp + 1144] = 0\n 62945: u64 [sp + 1136] = 0\n 62949: u64 [sp + 1120] = 0x1\n 62954: a0 = sp + 0x480\n 62958: a1 = sp + 0x460\n 62962: u64 [sp + 1128] = 0\n 62966: ra = 754, jump @373\n      : @888 [@dyn 377] (gas: 11)\n 62973: a0 = u64 [sp + 0x498]\n 62977: u64 [sp + 0x38] = a0\n 62980: a0 = u64 [sp + 0x490]\n 62984: u64 [sp + 0x40] = a0\n 62987: a0 = u64 [sp + 0x488]\n 62991: u64 [sp + 0x48] = a0\n 62994: a0 = u64 [sp + 0x480]\n 62998: u64 [sp + 0x50] = a0\n 63001: a1 = 0x20\n 63004: a0 = s1\n 63006: ra = 756, jump @0\n      : @889 [@dyn 378] (gas: 90)\n 63013: a1 = u8 [a0 + 0x11]\n 63016: a2 = u8 [a0 + 0x10]\n 63019: a3 = u8 [a0 + 0x12]\n 63022: a4 = u8 [a0 + 0x13]\n 63025: a1 = a1 << 0x8\n 63028: a1 = a1 | a2\n 63031: a3 = a3 << 0x10\n 63034: a4 = a4 << 0x18\n 63037: a3 = a3 | a4\n 63040: t0 = a3 | a1\n 63043: a2 = u8 [a0 + 0x1]\n 63046: a3 = u8 [a0]\n 63048: a4 = u8 [a0 + 0x2]\n 63051: a5 = u8 [a0 + 0x3]\n 63054: a2 = a2 << 0x8\n 63057: a2 = a2 | a3\n 63060: a4 = a4 << 0x10\n 63063: a5 = a5 << 0x18\n 63066: a4 = a4 | a5\n 63069: t1 = a4 | a2\n 63072: a3 = u8 [a0 + 0x15]\n 63075: a4 = u8 [a0 + 0x14]\n 63078: a5 = u8 [a0 + 0x16]\n 63081: s1 = u8 [a0 + 0x17]\n 63084: a3 = a3 << 0x8\n 63087: a3 = a3 | a4\n 63090: a5 = a5 << 0x10\n 63093: s1 = s1 << 0x18\n 63096: a5 = a5 | s1\n 63099: t2 = a5 | a3\n 63102: a4 = u8 [a0 + 0x5]\n 63105: a5 = u8 [a0 + 0x4]\n 63108: s1 = u8 [a0 + 0x6]\n 63111: a1 = u8 [a0 + 0x7]\n 63114: a4 = a4 << 0x8\n 63117: a4 = a4 | a5\n 63120: s1 = s1 << 0x10\n 63123: a1 = a1 << 0x18\n 63126: a1 = a1 | s1\n 63129: ra = a1 | a4\n 63132: a1 = u8 [a0 + 0x19]\n 63135: a5 = u8 [a0 + 0x18]\n 63138: s1 = u8 [a0 + 0x1a]\n 63141: a2 = u8 [a0 + 0x1b]\n 63144: a1 = a1 << 0x8\n 63147: a1 = a1 | a5\n 63150: s1 = s1 << 0x10\n 63153: a2 = a2 << 0x18\n 63156: a2 = a2 | s1\n 63159: a5 = a2 | a1\n 63162: a1 = u8 [a0 + 0x9]\n 63165: a2 = u8 [a0 + 0x8]\n 63168: s1 = u8 [a0 + 0xa]\n 63171: a3 = u8 [a0 + 0xb]\n 63174: a1 = a1 << 0x8\n 63177: a1 = a1 | a2\n 63180: s1 = s1 << 0x10\n 63183: a3 = a3 << 0x18\n 63186: a3 = a3 | s1\n 63189: s1 = a3 | a1\n 63192: a1 = u8 [a0 + 0x1d]\n 63195: a2 = u8 [a0 + 0x1c]\n 63198: a3 = u8 [a0 + 0x1e]\n 63201: a4 = u8 [a0 + 0x1f]\n 63204: a1 = a1 << 0x8\n 63207: a1 = a1 | a2\n 63210: a3 = a3 << 0x10\n 63213: a4 = a4 << 0x18\n 63216: a3 = a3 | a4\n 63219: a1 = a1 | a3\n 63222: a2 = u8 [a0 + 0xd]\n 63225: a3 = u8 [a0 + 0xc]\n 63228: a4 = u8 [a0 + 0xe]\n 63231: a0 = u8 [a0 + 0xf]\n 63234: a2 = a2 << 0x8\n 63237: a2 = a2 | a3\n 63240: a4 = a4 << 0x10\n 63243: a0 = a0 << 0x18\n 63246: a0 = a0 | a4\n 63249: a0 = a0 | a2\n 63252: a0 = a0 | a1\n 63255: a0 = a0 << 0x20\n 63258: a5 = a5 | s1\n 63261: a0 = a0 | a5\n 63264: a1 = ra | t2\n 63267: a1 = a1 << 0x20\n 63270: a2 = t1 | t0\n 63273: a1 = a1 | a2\n 63276: a0 = a0 | a1\n 63279: jump @913 if a0 == 0\n      : @890 (gas: 3)\n 63283: a1 = 0x20\n 63286: a0 = u64 [sp + 0x58]\n 63289: ra = 758, jump @0\n      : @891 [@dyn 379] (gas: 71)\n 63296: a1 = u64 [sp + 0x38]\n 63299: a1 = reverse a1\n 63301: a2 = u64 [sp + 0x40]\n 63304: a2 = reverse a2\n 63306: a3 = u64 [sp + 0x48]\n 63309: a3 = reverse a3\n 63311: a4 = u64 [sp + 0x50]\n 63314: a4 = reverse a4\n 63316: u8 [a0 + 0x18] = a4\n 63319: a5 = a4 >> 0x38\n 63322: u8 [a0 + 0x1f] = a5\n 63325: a5 = a4 >> 0x30\n 63328: u8 [a0 + 0x1e] = a5\n 63331: a5 = a4 >> 0x28\n 63334: u8 [a0 + 0x1d] = a5\n 63337: a5 = a4 >> 0x20\n 63340: u8 [a0 + 0x1c] = a5\n 63343: a5 = a4 >> 0x18\n 63346: u8 [a0 + 0x1b] = a5\n 63349: a5 = a4 >> 0x10\n 63352: u8 [a0 + 0x1a] = a5\n 63355: a4 = a4 >> 0x8\n 63358: u8 [a0 + 0x19] = a4\n 63361: u8 [a0 + 0x10] = a3\n 63364: a4 = a3 >> 0x38\n 63367: u8 [a0 + 0x17] = a4\n 63370: a4 = a3 >> 0x30\n 63373: u8 [a0 + 0x16] = a4\n 63376: a4 = a3 >> 0x28\n 63379: u8 [a0 + 0x15] = a4\n 63382: a4 = a3 >> 0x20\n 63385: u8 [a0 + 0x14] = a4\n 63388: a4 = a3 >> 0x18\n 63391: u8 [a0 + 0x13] = a4\n 63394: a4 = a3 >> 0x10\n 63397: u8 [a0 + 0x12] = a4\n 63400: a3 = a3 >> 0x8\n 63403: u8 [a0 + 0x11] = a3\n 63406: u8 [a0 + 0x8] = a2\n 63409: a3 = a2 >> 0x38\n 63412: u8 [a0 + 0xf] = a3\n 63415: a3 = a2 >> 0x30\n 63418: u8 [a0 + 0xe] = a3\n 63421: a3 = a2 >> 0x28\n 63424: u8 [a0 + 0xd] = a3\n 63427: a3 = a2 >> 0x20\n 63430: u8 [a0 + 0xc] = a3\n 63433: a3 = a2 >> 0x18\n 63436: u8 [a0 + 0xb] = a3\n 63439: a3 = a2 >> 0x10\n 63442: u8 [a0 + 0xa] = a3\n 63445: a2 = a2 >> 0x8\n 63448: u8 [a0 + 0x9] = a2\n 63451: u8 [a0] = a1\n 63453: a2 = a1 >> 0x38\n 63456: u8 [a0 + 0x7] = a2\n 63459: a2 = a1 >> 0x30\n 63462: u8 [a0 + 0x6] = a2\n 63465: a2 = a1 >> 0x28\n 63468: u8 [a0 + 0x5] = a2\n 63471: a2 = a1 >> 0x20\n 63474: u8 [a0 + 0x4] = a2\n 63477: a2 = a1 >> 0x18\n 63480: u8 [a0 + 0x3] = a2\n 63483: a2 = a1 >> 0x10\n 63486: u8 [a0 + 0x2] = a2\n 63489: a1 = a1 >> 0x8\n 63492: u8 [a0 + 0x1] = a1\n 63495: a1 = 0x20\n 63498: a0 = u64 [sp + 0x60]\n 63501: ra = 760, jump @0\n      : @892 [@dyn 380] (gas: 90)\n 63508: a1 = u8 [a0 + 0x11]\n 63511: a2 = u8 [a0 + 0x10]\n 63514: a3 = u8 [a0 + 0x12]\n 63517: a4 = u8 [a0 + 0x13]\n 63520: a1 = a1 << 0x8\n 63523: a1 = a1 | a2\n 63526: a3 = a3 << 0x10\n 63529: a4 = a4 << 0x18\n 63532: a3 = a3 | a4\n 63535: t0 = a3 | a1\n 63538: a2 = u8 [a0 + 0x1]\n 63541: a3 = u8 [a0]\n 63543: a4 = u8 [a0 + 0x2]\n 63546: a5 = u8 [a0 + 0x3]\n 63549: a2 = a2 << 0x8\n 63552: a2 = a2 | a3\n 63555: a4 = a4 << 0x10\n 63558: a5 = a5 << 0x18\n 63561: a4 = a4 | a5\n 63564: t1 = a4 | a2\n 63567: a3 = u8 [a0 + 0x15]\n 63570: a4 = u8 [a0 + 0x14]\n 63573: a5 = u8 [a0 + 0x16]\n 63576: s1 = u8 [a0 + 0x17]\n 63579: a3 = a3 << 0x8\n 63582: a3 = a3 | a4\n 63585: a5 = a5 << 0x10\n 63588: s1 = s1 << 0x18\n 63591: a5 = a5 | s1\n 63594: t2 = a5 | a3\n 63597: a4 = u8 [a0 + 0x5]\n 63600: a5 = u8 [a0 + 0x4]\n 63603: s1 = u8 [a0 + 0x6]\n 63606: a1 = u8 [a0 + 0x7]\n 63609: a4 = a4 << 0x8\n 63612: a4 = a4 | a5\n 63615: s1 = s1 << 0x10\n 63618: a1 = a1 << 0x18\n 63621: a1 = a1 | s1\n 63624: ra = a1 | a4\n 63627: a1 = u8 [a0 + 0x19]\n 63630: a5 = u8 [a0 + 0x18]\n 63633: s1 = u8 [a0 + 0x1a]\n 63636: a2 = u8 [a0 + 0x1b]\n 63639: a1 = a1 << 0x8\n 63642: a1 = a1 | a5\n 63645: s1 = s1 << 0x10\n 63648: a2 = a2 << 0x18\n 63651: a2 = a2 | s1\n 63654: a5 = a2 | a1\n 63657: a1 = u8 [a0 + 0x9]\n 63660: a2 = u8 [a0 + 0x8]\n 63663: s1 = u8 [a0 + 0xa]\n 63666: a3 = u8 [a0 + 0xb]\n 63669: a1 = a1 << 0x8\n 63672: a1 = a1 | a2\n 63675: s1 = s1 << 0x10\n 63678: a3 = a3 << 0x18\n 63681: a3 = a3 | s1\n 63684: s1 = a3 | a1\n 63687: a1 = u8 [a0 + 0x1d]\n 63690: a2 = u8 [a0 + 0x1c]\n 63693: a3 = u8 [a0 + 0x1e]\n 63696: a4 = u8 [a0 + 0x1f]\n 63699: a1 = a1 << 0x8\n 63702: a1 = a1 | a2\n 63705: a3 = a3 << 0x10\n 63708: a4 = a4 << 0x18\n 63711: a3 = a3 | a4\n 63714: a1 = a1 | a3\n 63717: a2 = u8 [a0 + 0xd]\n 63720: a3 = u8 [a0 + 0xc]\n 63723: a4 = u8 [a0 + 0xe]\n 63726: a0 = u8 [a0 + 0xf]\n 63729: a2 = a2 << 0x8\n 63732: a2 = a2 | a3\n 63735: a4 = a4 << 0x10\n 63738: a0 = a0 << 0x18\n 63741: a0 = a0 | a4\n 63744: a0 = a0 | a2\n 63747: a0 = a0 | a1\n 63750: a0 = a0 << 0x20\n 63753: a5 = a5 | s1\n 63756: a0 = a0 | a5\n 63759: a1 = ra | t2\n 63762: a1 = a1 << 0x20\n 63765: a2 = t1 | t0\n 63768: a1 = a1 | a2\n 63771: a0 = a0 | a1\n 63774: jump @915 if a0 == 0\n      : @893 (gas: 3)\n 63778: a1 = 0x20\n 63781: a0 = u64 [sp + 0x58]\n 63784: ra = 762, jump @0\n      : @894 [@dyn 381] (gas: 11)\n 63791: i32 a0 = sp + 0x4e0\n 63795: ecalli 0 // 'address'\n 63796: a0 = i32 [sp + 0x4f0]\n 63800: u64 [sp + 0x40] = a0\n 63803: a0 = u64 [sp + 0x4e0]\n 63807: u64 [sp + 0x38] = a0\n 63810: a0 = u64 [sp + 0x4e8]\n 63814: u64 [sp + 0x28] = a0\n 63817: a0 = 0x40\n 63820: a1 = 0x20\n 63823: ra = 764, jump @0\n      : @895 [@dyn 382] (gas: 142)\n 63830: a1 = u8 [a0 + 0x19]\n 63833: a2 = u8 [a0 + 0x18]\n 63836: a3 = u8 [a0 + 0x1a]\n 63839: a4 = u8 [a0 + 0x1b]\n 63842: a1 = a1 << 0x8\n 63845: a1 = a1 | a2\n 63848: a3 = a3 << 0x10\n 63851: a4 = a4 << 0x18\n 63854: a3 = a3 | a4\n 63857: a1 = a1 | a3\n 63860: a2 = u8 [a0 + 0x1d]\n 63863: a3 = u8 [a0 + 0x1c]\n 63866: a4 = u8 [a0 + 0x1e]\n 63869: a5 = u8 [a0 + 0x1f]\n 63872: a2 = a2 << 0x8\n 63875: a2 = a2 | a3\n 63878: a4 = a4 << 0x10\n 63881: a5 = a5 << 0x18\n 63884: a4 = a4 | a5\n 63887: a2 = a2 | a4\n 63890: a2 = a2 << 0x20\n 63893: t0 = a2 | a1\n 63896: a2 = u8 [a0 + 0x11]\n 63899: a3 = u8 [a0 + 0x10]\n 63902: a4 = u8 [a0 + 0x12]\n 63905: a5 = u8 [a0 + 0x13]\n 63908: a2 = a2 << 0x8\n 63911: a2 = a2 | a3\n 63914: a4 = a4 << 0x10\n 63917: a5 = a5 << 0x18\n 63920: a4 = a4 | a5\n 63923: a2 = a2 | a4\n 63926: a3 = u8 [a0 + 0x15]\n 63929: a4 = u8 [a0 + 0x14]\n 63932: a5 = u8 [a0 + 0x16]\n 63935: s1 = u8 [a0 + 0x17]\n 63938: a3 = a3 << 0x8\n 63941: a3 = a3 | a4\n 63944: a5 = a5 << 0x10\n 63947: s1 = s1 << 0x18\n 63950: a5 = a5 | s1\n 63953: a3 = a3 | a5\n 63956: a3 = a3 << 0x20\n 63959: a2 = a2 | a3\n 63962: a3 = u8 [a0 + 0x9]\n 63965: a4 = u8 [a0 + 0x8]\n 63968: a5 = u8 [a0 + 0xa]\n 63971: s1 = u8 [a0 + 0xb]\n 63974: a3 = a3 << 0x8\n 63977: a3 = a3 | a4\n 63980: a5 = a5 << 0x10\n 63983: s1 = s1 << 0x18\n 63986: a5 = a5 | s1\n 63989: a3 = a3 | a5\n 63992: a4 = u8 [a0 + 0xd]\n 63995: a5 = u8 [a0 + 0xc]\n 63998: s1 = u8 [a0 + 0xe]\n 64001: a1 = u8 [a0 + 0xf]\n 64004: a4 = a4 << 0x8\n 64007: a4 = a4 | a5\n 64010: s1 = s1 << 0x10\n 64013: a1 = a1 << 0x18\n 64016: a1 = a1 | s1\n 64019: a1 = a1 | a4\n 64022: a1 = a1 << 0x20\n 64025: a3 = a3 | a1\n 64028: a1 = u8 [a0 + 0x1]\n 64031: a4 = u8 [a0]\n 64033: a5 = u8 [a0 + 0x2]\n 64036: s1 = u8 [a0 + 0x3]\n 64039: a1 = a1 << 0x8\n 64042: a1 = a1 | a4\n 64045: a5 = a5 << 0x10\n 64048: s1 = s1 << 0x18\n 64051: a5 = a5 | s1\n 64054: a1 = a1 | a5\n 64057: a4 = u8 [a0 + 0x5]\n 64060: a5 = u8 [a0 + 0x4]\n 64063: s1 = u8 [a0 + 0x6]\n 64066: a0 = u8 [a0 + 0x7]\n 64069: a4 = a4 << 0x8\n 64072: a4 = a4 | a5\n 64075: s1 = s1 << 0x10\n 64078: a0 = a0 << 0x18\n 64081: a0 = a0 | s1\n 64084: a0 = a0 | a4\n 64087: a0 = a0 << 0x20\n 64090: a0 = a0 | a1\n 64093: a5 = reverse a0\n 64095: u64 [sp + 0x48] = a5\n 64098: a3 = reverse a3\n 64100: u64 [sp + 0x60] = a3\n 64103: a1 = reverse a2\n 64105: u64 [sp + 0x50] = a1\n 64108: a0 = reverse t0\n 64110: u64 [sp + 0x58] = a0\n 64113: a2 = a0 + 0x20\n 64116: a0 = a2 <u a0\n 64119: s1 = a1 + a0\n 64122: a1 = s1 <u a1\n 64125: a1 = a0 if a0 == 0\n 64128: a1 = a1 + a3\n 64131: a0 = a1 <u a3\n 64134: a5 = a5 + a0\n 64137: a0 = u64 [sp + 0x180]\n 64141: u64 [sp + 0x3d8] = a0\n 64145: a0 = u64 [sp + 0x1c8]\n 64149: u64 [sp + 0x3d0] = a0\n 64153: a0 = u64 [sp + 0x1d0]\n 64157: u64 [sp + 0x3c8] = a0\n 64161: a0 = u64 [sp + 0x1d8]\n 64165: u64 [sp + 0x3c0] = a0\n 64169: a0 = u64 [sp + 0x188]\n 64173: u64 [sp + 0x3f8] = a0\n 64177: a0 = u64 [sp + 0x190]\n 64181: u64 [sp + 0x3f0] = a0\n 64185: a0 = u64 [sp + 0x198]\n 64189: u64 [sp + 0x3e8] = a0\n 64193: a0 = u64 [sp + 0x1a0]\n 64197: u64 [sp + 0x3e0] = a0\n 64201: a0 = u64 [sp + 0x1a8]\n 64205: u64 [sp + 0x418] = a0\n 64209: a0 = u64 [sp + 0x1b0]\n 64213: u64 [sp + 0x410] = a0\n 64217: a0 = u64 [sp + 0x1b8]\n 64221: u64 [sp + 0x408] = a0\n 64225: a0 = u64 [sp + 0x1c0]\n 64229: u64 [sp + 0x400] = a0\n 64233: u64 [sp + 0x1d0] = a2\n 64237: u64 [sp + 0x420] = a2\n 64241: u64 [sp + 0x1c8] = s1\n 64245: u64 [sp + 0x428] = s1\n 64249: u64 [sp + 0x1c0] = a1\n 64253: u64 [sp + 0x430] = a1\n 64257: a0 = sp + 0x440\n 64261: a1 = sp + 0x420\n 64265: a2 = sp + 0x400\n 64269: a3 = sp + 0x3e0\n 64273: a4 = sp + 0x3c0\n 64277: u64 [sp + 0x1b8] = a5\n 64281: u64 [sp + 0x438] = a5\n 64285: ra = 766, jump @821\n      : @896 [@dyn 383] (gas: 12)\n 64291: a1 = u64 [sp + 0x48]\n 64294: a4 = u64 [sp + 0x60]\n 64297: a3 = u64 [sp + 0x58]\n 64300: a0 = u64 [sp + 0x50]\n 64303: a0 = a0 | a1\n 64306: a1 = a3 | a4\n 64309: a1 = a1 | a0\n 64312: a1 = a1 >> 0x20\n 64315: a0 = a0 | a4\n 64318: a0 = a0 << 0x20\n 64321: a0 = a0 | a1\n 64324: jump @912 if a0 != 0\n      : @897 (gas: 36)\n 64328: a0 = u64 [sp + 0x440]\n 64332: u64 [sp + 0x1d8] = a0\n 64336: s1 = u64 [sp + 0x448]\n 64340: t0 = u64 [sp + 0x458]\n 64344: u64 [sp + 0x1a0] = t0\n 64348: a5 = u64 [sp + 0x450]\n 64352: u64 [sp + 0x1a8] = a5\n 64356: a4 = u64 [sp + 0x1d0]\n 64360: t2 = a0 <u a4\n 64363: t1 = u64 [sp + 0x1c8]\n 64367: a1 = s1 ^ t1\n 64370: a2 = s1 <u t1\n 64373: a0 = s1\n 64375: u64 [sp + 0x198] = s1\n 64379: a2 = t2 if a1 == 0\n 64382: ra = u64 [sp + 0x1c0]\n 64386: s1 = a5 - ra\n 64389: a1 = s1 - a2\n 64392: u64 [sp + 0x1b0] = a1\n 64396: a1 = s1 <u a2\n 64399: a2 = a5 <u ra\n 64402: a2 = t0 - a2\n 64405: a5 = u64 [sp + 0x1b8]\n 64409: a2 = a2 - a5\n 64412: a2 = a2 - a1\n 64415: u64 [sp + 0x1c0] = a2\n 64419: a0 = a0 - t2\n 64422: a0 = a0 - t1\n 64425: u64 [sp + 0x1c8] = a0\n 64429: a0 = u64 [sp + 0x1d8]\n 64433: a0 = a0 - a4\n 64436: u64 [sp + 0x1d0] = a0\n 64440: i32 a0 = a3 + 0\n 64442: a1 = 0x20\n 64445: s1 = u64 [sp + 0x50]\n 64448: ra = 768, jump @0\n      : @898 [@dyn 384] (gas: 124)\n 64455: t2 = u64 [sp + 0x58]\n 64458: a5 = u64 [sp + 0x1d8]\n 64462: a2 = a5 <u t2\n 64465: a4 = u64 [sp + 0x198]\n 64469: a3 = a4 ^ s1\n 64472: a1 = a4 <u s1\n 64475: a1 = a2 if a3 == 0\n 64478: a3 = a4 - s1\n 64481: ra = a3 - a2\n 64484: a3 = a5 - t2\n 64487: a4 = a3 + 0x1f\n 64490: t1 = a4 <u a3\n 64493: a4 = a4 & 0xffffffffffffffe0\n 64496: t2 = t2 + a4\n 64499: u64 [sp + 0x1d8] = t2\n 64503: a4 = t2 <u a4\n 64506: a2 = ra + t1\n 64509: a5 = a2 + s1\n 64512: t0 = a5 + a4\n 64515: a5 = t0 ^ a2\n 64518: s1 = t0 <u a2\n 64521: s1 = a4 if a5 == 0\n 64524: a3 = u64 [sp + 0x48]\n 64527: a4 = u64 [sp + 0x1a0]\n 64531: a4 = a4 - a3\n 64534: a3 = u64 [sp + 0x60]\n 64537: t2 = u64 [sp + 0x1a8]\n 64541: a5 = t2 <u a3\n 64544: a4 = a4 - a5\n 64547: a3 = u64 [sp + 0x60]\n 64550: a5 = t2 - a3\n 64553: a3 = a5 <u a1\n 64556: a4 = a4 - a3\n 64559: a5 = a5 - a1\n 64562: a1 = a2 <u ra\n 64565: a1 = t1 if t1 == 0\n 64568: t1 = u64 [sp + 0x50]\n 64571: a1 = a1 + a5\n 64574: a2 = a1 <u a5\n 64577: a5 = u64 [sp + 0x48]\n 64580: a4 = a4 + a5\n 64583: a2 = a2 + a4\n 64586: t2 = u64 [sp + 0x60]\n 64589: a3 = a1 + t2\n 64592: s1 = s1 + a3\n 64595: a1 = a3 <u a1\n 64598: a3 = s1 <u a3\n 64601: a1 = a1 + a2\n 64604: a4 = a1 + a3\n 64607: a1 = a4 >u 0\n 64609: a2 = s1 >u 0\n 64611: a2 = a1 if a4 != 0\n 64614: a3 = s1 | a4\n 64617: a1 = t0 >u 0\n 64619: a1 = a2 if a3 != 0\n 64622: a2 = u64 [sp + 0x1d0]\n 64626: a2 = reverse a2\n 64628: a3 = a2 >> 0x38\n 64631: u8 [a0 + 0x1f] = a3\n 64634: a3 = a2 >> 0x30\n 64637: u8 [a0 + 0x1e] = a3\n 64640: a3 = a2 >> 0x28\n 64643: u8 [a0 + 0x1d] = a3\n 64646: a3 = a2 >> 0x20\n 64649: u8 [a0 + 0x1c] = a3\n 64652: a3 = a2 >> 0x18\n 64655: u8 [a0 + 0x1b] = a3\n 64658: a3 = a2 >> 0x10\n 64661: u8 [a0 + 0x1a] = a3\n 64664: a3 = u64 [sp + 0x1c8]\n 64668: a3 = reverse a3\n 64670: u8 [a0 + 0x18] = a2\n 64673: a2 = a2 >> 0x8\n 64676: u8 [a0 + 0x19] = a2\n 64679: a2 = a3 >> 0x38\n 64682: u8 [a0 + 0x17] = a2\n 64685: a2 = a3 >> 0x30\n 64688: u8 [a0 + 0x16] = a2\n 64691: a2 = a3 >> 0x28\n 64694: u8 [a0 + 0x15] = a2\n 64697: a2 = a3 >> 0x20\n 64700: u8 [a0 + 0x14] = a2\n 64703: a2 = a3 >> 0x18\n 64706: u8 [a0 + 0x13] = a2\n 64709: a2 = a3 >> 0x10\n 64712: u8 [a0 + 0x12] = a2\n 64715: a2 = u64 [sp + 0x1b0]\n 64719: a2 = reverse a2\n 64721: u8 [a0 + 0x10] = a3\n 64724: a3 = a3 >> 0x8\n 64727: u8 [a0 + 0x11] = a3\n 64730: a3 = a2 >> 0x38\n 64733: u8 [a0 + 0xf] = a3\n 64736: a3 = a2 >> 0x30\n 64739: u8 [a0 + 0xe] = a3\n 64742: a3 = a2 >> 0x28\n 64745: u8 [a0 + 0xd] = a3\n 64748: a3 = a2 >> 0x20\n 64751: u8 [a0 + 0xc] = a3\n 64754: a3 = a2 >> 0x18\n 64757: u8 [a0 + 0xb] = a3\n 64760: a3 = a2 >> 0x10\n 64763: u8 [a0 + 0xa] = a3\n 64766: a3 = u64 [sp + 0x1c0]\n 64770: a3 = reverse a3\n 64772: u8 [a0 + 0x8] = a2\n 64775: a2 = a2 >> 0x8\n 64778: u8 [a0 + 0x9] = a2\n 64781: a2 = a3 >> 0x38\n 64784: u8 [a0 + 0x7] = a2\n 64787: a2 = a3 >> 0x30\n 64790: u8 [a0 + 0x6] = a2\n 64793: a2 = a3 >> 0x28\n 64796: u8 [a0 + 0x5] = a2\n 64799: a2 = a3 >> 0x20\n 64802: u8 [a0 + 0x4] = a2\n 64805: a2 = a3 >> 0x18\n 64808: u8 [a0 + 0x3] = a2\n 64811: a2 = a3 >> 0x10\n 64814: u8 [a0 + 0x2] = a2\n 64817: u8 [a0] = a3\n 64819: a3 = a3 >> 0x8\n 64822: u8 [a0 + 0x1] = a3\n 64825: jump @917 if a1 != 0\n      : @899 (gas: 14)\n 64829: a0 = u64 [sp + 0x58]\n 64832: a1 = u64 [sp + 0x1d8]\n 64836: a0 = a1 <u a0\n 64839: a1 = t0 ^ t1\n 64842: a2 = t0 <u t1\n 64845: a2 = a0 if a1 == 0\n 64848: a0 = s1 <u t2\n 64851: a1 = a4 ^ a5\n 64854: a3 = a4 <u a5\n 64857: a3 = a0 if a1 == 0\n 64860: a0 = s1 ^ t2\n 64863: a0 = a0 | a1\n 64866: a3 = a2 if a0 == 0\n 64869: jump @917 if a3 != 0\n      : @900 (gas: 6)\n 64873: a0 = 0x40\n 64876: a1 = 0x20\n 64879: u64 [sp + 0x1c8] = s1\n 64883: u64 [sp + 0x1d0] = t0\n 64887: s1 = a4\n 64889: ra = 770, jump @0\n      : @901 [@dyn 385] (gas: 70)\n 64896: a1 = reverse s1\n 64898: a2 = u64 [sp + 0x1c8]\n 64902: a2 = reverse a2\n 64904: a3 = u64 [sp + 0x1d0]\n 64908: a3 = reverse a3\n 64910: a4 = u64 [sp + 0x1d8]\n 64914: a4 = reverse a4\n 64916: u8 [a0 + 0x18] = a4\n 64919: a5 = a4 >> 0x38\n 64922: u8 [a0 + 0x1f] = a5\n 64925: a5 = a4 >> 0x30\n 64928: u8 [a0 + 0x1e] = a5\n 64931: a5 = a4 >> 0x28\n 64934: u8 [a0 + 0x1d] = a5\n 64937: a5 = a4 >> 0x20\n 64940: u8 [a0 + 0x1c] = a5\n 64943: a5 = a4 >> 0x18\n 64946: u8 [a0 + 0x1b] = a5\n 64949: a5 = a4 >> 0x10\n 64952: u8 [a0 + 0x1a] = a5\n 64955: a4 = a4 >> 0x8\n 64958: u8 [a0 + 0x19] = a4\n 64961: u8 [a0 + 0x10] = a3\n 64964: a4 = a3 >> 0x38\n 64967: u8 [a0 + 0x17] = a4\n 64970: a4 = a3 >> 0x30\n 64973: u8 [a0 + 0x16] = a4\n 64976: a4 = a3 >> 0x28\n 64979: u8 [a0 + 0x15] = a4\n 64982: a4 = a3 >> 0x20\n 64985: u8 [a0 + 0x14] = a4\n 64988: a4 = a3 >> 0x18\n 64991: u8 [a0 + 0x13] = a4\n 64994: a4 = a3 >> 0x10\n 64997: u8 [a0 + 0x12] = a4\n 65000: a3 = a3 >> 0x8\n 65003: u8 [a0 + 0x11] = a3\n 65006: u8 [a0 + 0x8] = a2\n 65009: a3 = a2 >> 0x38\n 65012: u8 [a0 + 0xf] = a3\n 65015: a3 = a2 >> 0x30\n 65018: u8 [a0 + 0xe] = a3\n 65021: a3 = a2 >> 0x28\n 65024: u8 [a0 + 0xd] = a3\n 65027: a3 = a2 >> 0x20\n 65030: u8 [a0 + 0xc] = a3\n 65033: a3 = a2 >> 0x18\n 65036: u8 [a0 + 0xb] = a3\n 65039: a3 = a2 >> 0x10\n 65042: u8 [a0 + 0xa] = a3\n 65045: a2 = a2 >> 0x8\n 65048: u8 [a0 + 0x9] = a2\n 65051: u8 [a0] = a1\n 65053: a2 = a1 >> 0x38\n 65056: u8 [a0 + 0x7] = a2\n 65059: a2 = a1 >> 0x30\n 65062: u8 [a0 + 0x6] = a2\n 65065: a2 = a1 >> 0x28\n 65068: u8 [a0 + 0x5] = a2\n 65071: a2 = a1 >> 0x20\n 65074: u8 [a0 + 0x4] = a2\n 65077: a2 = a1 >> 0x18\n 65080: u8 [a0 + 0x3] = a2\n 65083: a2 = a1 >> 0x10\n 65086: u8 [a0 + 0x2] = a2\n 65089: a1 = a1 >> 0x8\n 65092: u8 [a0 + 0x1] = a1\n 65095: a0 = 0x40\n 65098: a1 = 0x20\n 65101: ra = 772, jump @0\n      : @902 [@dyn 386] (gas: 110)\n 65108: a1 = u8 [a0 + 0x19]\n 65111: a2 = u8 [a0 + 0x18]\n 65114: a3 = u8 [a0 + 0x1a]\n 65117: a4 = u8 [a0 + 0x1b]\n 65120: a1 = a1 << 0x8\n 65123: a1 = a1 | a2\n 65126: a3 = a3 << 0x10\n 65129: a4 = a4 << 0x18\n 65132: a3 = a3 | a4\n 65135: a1 = a1 | a3\n 65138: a2 = u8 [a0 + 0x1d]\n 65141: a3 = u8 [a0 + 0x1c]\n 65144: a4 = u8 [a0 + 0x1e]\n 65147: a5 = u8 [a0 + 0x1f]\n 65150: a2 = a2 << 0x8\n 65153: a2 = a2 | a3\n 65156: a4 = a4 << 0x10\n 65159: a5 = a5 << 0x18\n 65162: a4 = a4 | a5\n 65165: a2 = a2 | a4\n 65168: a2 = a2 << 0x20\n 65171: t0 = a2 | a1\n 65174: a2 = u8 [a0 + 0x11]\n 65177: a3 = u8 [a0 + 0x10]\n 65180: a4 = u8 [a0 + 0x12]\n 65183: a5 = u8 [a0 + 0x13]\n 65186: a2 = a2 << 0x8\n 65189: a2 = a2 | a3\n 65192: a4 = a4 << 0x10\n 65195: a5 = a5 << 0x18\n 65198: a4 = a4 | a5\n 65201: a2 = a2 | a4\n 65204: a3 = u8 [a0 + 0x15]\n 65207: a4 = u8 [a0 + 0x14]\n 65210: a5 = u8 [a0 + 0x16]\n 65213: s1 = u8 [a0 + 0x17]\n 65216: a3 = a3 << 0x8\n 65219: a3 = a3 | a4\n 65222: a5 = a5 << 0x10\n 65225: s1 = s1 << 0x18\n 65228: a5 = a5 | s1\n 65231: a3 = a3 | a5\n 65234: a3 = a3 << 0x20\n 65237: a2 = a2 | a3\n 65240: a3 = u8 [a0 + 0x9]\n 65243: a4 = u8 [a0 + 0x8]\n 65246: a5 = u8 [a0 + 0xa]\n 65249: s1 = u8 [a0 + 0xb]\n 65252: a3 = a3 << 0x8\n 65255: a3 = a3 | a4\n 65258: a5 = a5 << 0x10\n 65261: s1 = s1 << 0x18\n 65264: a5 = a5 | s1\n 65267: a3 = a3 | a5\n 65270: a4 = u8 [a0 + 0xd]\n 65273: a5 = u8 [a0 + 0xc]\n 65276: s1 = u8 [a0 + 0xe]\n 65279: a1 = u8 [a0 + 0xf]\n 65282: a4 = a4 << 0x8\n 65285: a4 = a4 | a5\n 65288: s1 = s1 << 0x10\n 65291: a1 = a1 << 0x18\n 65294: a1 = a1 | s1\n 65297: a1 = a1 | a4\n 65300: a1 = a1 << 0x20\n 65303: a3 = a3 | a1\n 65306: a1 = u8 [a0 + 0x1]\n 65309: a4 = u8 [a0]\n 65311: a5 = u8 [a0 + 0x2]\n 65314: s1 = u8 [a0 + 0x3]\n 65317: a1 = a1 << 0x8\n 65320: a1 = a1 | a4\n 65323: a5 = a5 << 0x10\n 65326: s1 = s1 << 0x18\n 65329: a5 = a5 | s1\n 65332: a1 = a1 | a5\n 65335: a4 = u8 [a0 + 0x5]\n 65338: a5 = u8 [a0 + 0x4]\n 65341: s1 = u8 [a0 + 0x6]\n 65344: a0 = u8 [a0 + 0x7]\n 65347: a4 = a4 << 0x8\n 65350: a4 = a4 | a5\n 65353: s1 = s1 << 0x10\n 65356: a0 = a0 << 0x18\n 65359: a0 = a0 | s1\n 65362: a0 = a0 | a4\n 65365: a0 = a0 << 0x20\n 65368: a0 = a0 | a1\n 65371: a5 = reverse a0\n 65373: a4 = reverse a3\n 65375: s1 = reverse a2\n 65377: t0 = reverse t0\n 65379: a0 = t0 + 0x20\n 65382: a1 = a0 <u t0\n 65385: a2 = s1 + a1\n 65388: a3 = a2 <u s1\n 65391: a3 = a1 if a1 == 0\n 65394: a3 = a3 + a4\n 65397: u64 [sp + 0x1d8] = a4\n 65401: a1 = a3 <u a4\n 65404: u64 [sp + 0x1d0] = a5\n 65408: a1 = a1 + a5\n 65411: a4 = a0 | a3\n 65414: a1 = a1 | a2\n 65417: a4 = a4 | a1\n 65420: a4 = a4 >> 0x20\n 65423: a1 = a1 | a3\n 65426: a1 = a1 << 0x20\n 65429: a1 = a1 | a4\n 65432: jump @912 if a1 != 0\n      : @903 (gas: 4)\n 65436: i32 a0 = a0 + 0\n 65438: a1 = 0x20\n 65441: u64 [sp + 0x1c8] = t0\n 65445: ra = 774, jump @0\n      : @904 [@dyn 387] (gas: 75)\n 65452: a3 = u64 [sp + 0x1c8]\n 65456: a1 = u64 [sp + 0x128]\n 65460: u8 [a0 + 0x10] = a1\n 65463: a1 = u64 [sp + 0xe8]\n 65467: u8 [a0 + 0xf] = a1\n 65470: a1 = u64 [sp + 0xe0]\n 65474: u8 [a0 + 0xe] = a1\n 65477: a1 = u64 [sp + 0xd8]\n 65481: u8 [a0 + 0xd] = a1\n 65484: a1 = u64 [sp + 0xd0]\n 65488: u8 [a0 + 0xc] = a1\n 65491: a1 = u64 [sp + 0xc8]\n 65495: u8 [a0 + 0xb] = a1\n 65498: a1 = u64 [sp + 0xc0]\n 65502: u8 [a0 + 0xa] = a1\n 65505: a1 = u64 [sp + 0xb8]\n 65509: u8 [a0 + 0x9] = a1\n 65512: a1 = u64 [sp + 0x130]\n 65516: u8 [a0 + 0x8] = a1\n 65519: a1 = u64 [sp + 0xb0]\n 65523: u8 [a0 + 0x7] = a1\n 65526: a1 = u64 [sp + 0xa8]\n 65530: u8 [a0 + 0x6] = a1\n 65533: a1 = u64 [sp + 0xa0]\n 65537: u8 [a0 + 0x5] = a1\n 65540: a1 = u64 [sp + 0x98]\n 65544: u8 [a0 + 0x4] = a1\n 65547: a1 = u64 [sp + 0x90]\n 65551: u8 [a0 + 0x3] = a1\n 65554: a1 = u64 [sp + 0x88]\n 65558: u8 [a0 + 0x2] = a1\n 65561: a1 = u64 [sp + 0x80]\n 65565: u8 [a0 + 0x1] = a1\n 65568: a1 = u64 [sp + 0x168]\n 65572: u8 [a0] = a1\n 65574: a1 = u64 [sp + 0x150]\n 65578: u8 [a0 + 0x18] = a1\n 65581: a1 = u64 [sp + 0x120]\n 65585: u8 [a0 + 0x17] = a1\n 65588: a1 = u64 [sp + 0x118]\n 65592: u8 [a0 + 0x16] = a1\n 65595: a1 = u64 [sp + 0x110]\n 65599: u8 [a0 + 0x15] = a1\n 65602: a1 = u64 [sp + 0x108]\n 65606: u8 [a0 + 0x14] = a1\n 65609: a1 = u64 [sp + 0x100]\n 65613: u8 [a0 + 0x13] = a1\n 65616: a1 = u64 [sp + 0xf8]\n 65620: u8 [a0 + 0x12] = a1\n 65623: a1 = u64 [sp + 0xf0]\n 65627: u8 [a0 + 0x11] = a1\n 65630: a1 = u64 [sp + 0x170]\n 65634: u8 [a0 + 0x1f] = a1\n 65637: a1 = u64 [sp + 0x160]\n 65641: u8 [a0 + 0x1e] = a1\n 65644: a1 = u64 [sp + 0x158]\n 65648: u8 [a0 + 0x1d] = a1\n 65651: a1 = u64 [sp + 0x148]\n 65655: u8 [a0 + 0x1c] = a1\n 65658: a1 = u64 [sp + 0x140]\n 65662: u8 [a0 + 0x1b] = a1\n 65665: a1 = u64 [sp + 0x138]\n 65669: u8 [a0 + 0x1a] = a1\n 65672: a4 = u64 [sp + 0x1d8]\n 65676: a1 = a3 | a4\n 65679: a2 = u64 [sp + 0x1d0]\n 65683: a2 = a2 | s1\n 65686: a1 = a1 | a2\n 65689: a1 = a1 >> 0x20\n 65692: a2 = a2 | a4\n 65695: a2 = a2 << 0x20\n 65698: a1 = a1 | a2\n 65701: a2 = u64 [sp + 0x178]\n 65705: u8 [a0 + 0x19] = a2\n 65708: jump @912 if a1 != 0\n      : @905 (gas: 3)\n 65712: i32 a0 = a3 + 0\n 65714: a1 = 0x20\n 65717: ra = 776, jump @0\n      : @906 [@dyn 388] (gas: 50)\n 65724: u8 [a0 + 31] = 0x20\n 65728: u8 [a0 + 30] = 0\n 65731: u8 [a0 + 29] = 0\n 65734: u8 [a0 + 28] = 0\n 65737: u8 [a0 + 27] = 0\n 65740: u8 [a0 + 26] = 0\n 65743: u8 [a0 + 25] = 0\n 65746: u8 [a0 + 24] = 0\n 65749: u8 [a0 + 23] = 0\n 65752: u8 [a0 + 22] = 0\n 65755: u8 [a0 + 21] = 0\n 65758: u8 [a0 + 20] = 0\n 65761: u8 [a0 + 19] = 0\n 65764: u8 [a0 + 18] = 0\n 65767: u8 [a0 + 17] = 0\n 65770: u8 [a0 + 16] = 0\n 65773: u8 [a0 + 15] = 0\n 65776: u8 [a0 + 14] = 0\n 65779: u8 [a0 + 13] = 0\n 65782: u8 [a0 + 12] = 0\n 65785: u8 [a0 + 11] = 0\n 65788: u8 [a0 + 10] = 0\n 65791: u8 [a0 + 9] = 0\n 65794: u8 [a0 + 8] = 0\n 65797: u8 [a0 + 7] = 0\n 65800: u8 [a0 + 6] = 0\n 65803: u8 [a0 + 5] = 0\n 65806: u8 [a0 + 4] = 0\n 65809: u8 [a0 + 3] = 0\n 65812: u8 [a0 + 2] = 0\n 65815: u8 [a0 + 1] = 0\n 65818: u8 [a0 + 0] = 0\n 65820: a0 = u64 [sp + 0x1c8]\n 65824: a1 = a0 + 0x40\n 65827: u64 [sp + 0x1c0] = a1\n 65831: a0 = a1 <u a0\n 65834: a1 = s1 + a0\n 65837: u64 [sp + 0x1b8] = a1\n 65841: u64 [sp + 0x1a8] = s1\n 65845: a1 = a1 <u s1\n 65848: a1 = a0 if a0 == 0\n 65851: a0 = u64 [sp + 0x1d8]\n 65855: s1 = a0 + a1\n 65858: a0 = s1 <u a0\n 65861: a1 = u64 [sp + 0x1d0]\n 65865: a0 = a0 + a1\n 65868: u64 [sp + 0x1b0] = a0\n 65872: a0 = 0x40\n 65875: a1 = 0x20\n 65878: ra = 778, jump @0\n      : @907 [@dyn 389] (gas: 70)\n 65885: a1 = u64 [sp + 0x1b0]\n 65889: a1 = reverse a1\n 65891: a2 = reverse s1\n 65893: a3 = u64 [sp + 0x1b8]\n 65897: a3 = reverse a3\n 65899: a4 = u64 [sp + 0x1c0]\n 65903: a4 = reverse a4\n 65905: a5 = a4 >> 0x38\n 65908: u8 [a0 + 0x1f] = a5\n 65911: a5 = a4 >> 0x30\n 65914: u8 [a0 + 0x1e] = a5\n 65917: a5 = a4 >> 0x28\n 65920: u8 [a0 + 0x1d] = a5\n 65923: a5 = a4 >> 0x20\n 65926: u8 [a0 + 0x1c] = a5\n 65929: a5 = a4 >> 0x18\n 65932: u8 [a0 + 0x1b] = a5\n 65935: a5 = a4 >> 0x10\n 65938: u8 [a0 + 0x1a] = a5\n 65941: a5 = a4 >> 0x8\n 65944: u8 [a0 + 0x19] = a5\n 65947: u8 [a0 + 0x18] = a4\n 65950: a4 = a3 >> 0x38\n 65953: u8 [a0 + 0x17] = a4\n 65956: a4 = a3 >> 0x30\n 65959: u8 [a0 + 0x16] = a4\n 65962: a4 = a3 >> 0x28\n 65965: u8 [a0 + 0x15] = a4\n 65968: a4 = a3 >> 0x20\n 65971: u8 [a0 + 0x14] = a4\n 65974: a4 = a3 >> 0x18\n 65977: u8 [a0 + 0x13] = a4\n 65980: a4 = a3 >> 0x10\n 65983: u8 [a0 + 0x12] = a4\n 65986: a4 = a3 >> 0x8\n 65989: u8 [a0 + 0x11] = a4\n 65992: u8 [a0 + 0x10] = a3\n 65995: u8 [a0 + 0x8] = a2\n 65998: a3 = a2 >> 0x38\n 66001: u8 [a0 + 0xf] = a3\n 66004: a3 = a2 >> 0x30\n 66007: u8 [a0 + 0xe] = a3\n 66010: a3 = a2 >> 0x28\n 66013: u8 [a0 + 0xd] = a3\n 66016: a3 = a2 >> 0x20\n 66019: u8 [a0 + 0xc] = a3\n 66022: a3 = a2 >> 0x18\n 66025: u8 [a0 + 0xb] = a3\n 66028: a3 = a2 >> 0x10\n 66031: u8 [a0 + 0xa] = a3\n 66034: a2 = a2 >> 0x8\n 66037: u8 [a0 + 0x9] = a2\n 66040: u8 [a0] = a1\n 66042: a2 = a1 >> 0x38\n 66045: u8 [a0 + 0x7] = a2\n 66048: a2 = a1 >> 0x30\n 66051: u8 [a0 + 0x6] = a2\n 66054: a2 = a1 >> 0x28\n 66057: u8 [a0 + 0x5] = a2\n 66060: a2 = a1 >> 0x20\n 66063: u8 [a0 + 0x4] = a2\n 66066: a2 = a1 >> 0x18\n 66069: u8 [a0 + 0x3] = a2\n 66072: a2 = a1 >> 0x10\n 66075: u8 [a0 + 0x2] = a2\n 66078: a1 = a1 >> 0x8\n 66081: u8 [a0 + 0x1] = a1\n 66084: a0 = 0x40\n 66087: a1 = 0x20\n 66090: ra = 780, jump @0\n      : @908 [@dyn 390] (gas: 100)\n 66097: a1 = u8 [a0 + 0x11]\n 66100: a2 = u8 [a0 + 0x10]\n 66103: a3 = u8 [a0 + 0x12]\n 66106: a4 = u8 [a0 + 0x13]\n 66109: a1 = a1 << 0x8\n 66112: a1 = a1 | a2\n 66115: a3 = a3 << 0x10\n 66118: a4 = a4 << 0x18\n 66121: a3 = a3 | a4\n 66124: a1 = a1 | a3\n 66127: a2 = u8 [a0 + 0x15]\n 66130: a3 = u8 [a0 + 0x14]\n 66133: a4 = u8 [a0 + 0x16]\n 66136: a5 = u8 [a0 + 0x17]\n 66139: a2 = a2 << 0x8\n 66142: a2 = a2 | a3\n 66145: a4 = a4 << 0x10\n 66148: a5 = a5 << 0x18\n 66151: a4 = a4 | a5\n 66154: a2 = a2 | a4\n 66157: a2 = a2 << 0x20\n 66160: t0 = a2 | a1\n 66163: a2 = u8 [a0 + 0x1]\n 66166: a3 = u8 [a0]\n 66168: a4 = u8 [a0 + 0x2]\n 66171: a5 = u8 [a0 + 0x3]\n 66174: a2 = a2 << 0x8\n 66177: a2 = a2 | a3\n 66180: a4 = a4 << 0x10\n 66183: a5 = a5 << 0x18\n 66186: a4 = a4 | a5\n 66189: a2 = a2 | a4\n 66192: a3 = u8 [a0 + 0x5]\n 66195: a4 = u8 [a0 + 0x4]\n 66198: a5 = u8 [a0 + 0x6]\n 66201: s1 = u8 [a0 + 0x7]\n 66204: a3 = a3 << 0x8\n 66207: a3 = a3 | a4\n 66210: a5 = a5 << 0x10\n 66213: s1 = s1 << 0x18\n 66216: a5 = a5 | s1\n 66219: a3 = a3 | a5\n 66222: a3 = a3 << 0x20\n 66225: a2 = a2 | a3\n 66228: a3 = u8 [a0 + 0x19]\n 66231: a4 = u8 [a0 + 0x18]\n 66234: a5 = u8 [a0 + 0x1a]\n 66237: s1 = u8 [a0 + 0x1b]\n 66240: a3 = a3 << 0x8\n 66243: a3 = a3 | a4\n 66246: a5 = a5 << 0x10\n 66249: s1 = s1 << 0x18\n 66252: a5 = a5 | s1\n 66255: a3 = a3 | a5\n 66258: a4 = u8 [a0 + 0x1d]\n 66261: a5 = u8 [a0 + 0x1c]\n 66264: s1 = u8 [a0 + 0x1e]\n 66267: a1 = u8 [a0 + 0x1f]\n 66270: a4 = a4 << 0x8\n 66273: a4 = a4 | a5\n 66276: s1 = s1 << 0x10\n 66279: a1 = a1 << 0x18\n 66282: a1 = a1 | s1\n 66285: a1 = a1 | a4\n 66288: a1 = a1 << 0x20\n 66291: a3 = a3 | a1\n 66294: a1 = u8 [a0 + 0x9]\n 66297: a4 = u8 [a0 + 0x8]\n 66300: a5 = u8 [a0 + 0xa]\n 66303: s1 = u8 [a0 + 0xb]\n 66306: a1 = a1 << 0x8\n 66309: a1 = a1 | a4\n 66312: a5 = a5 << 0x10\n 66315: s1 = s1 << 0x18\n 66318: a5 = a5 | s1\n 66321: a1 = a1 | a5\n 66324: a4 = u8 [a0 + 0xd]\n 66327: a5 = u8 [a0 + 0xc]\n 66330: s1 = u8 [a0 + 0xe]\n 66333: a0 = u8 [a0 + 0xf]\n 66336: a4 = a4 << 0x8\n 66339: a4 = a4 | a5\n 66342: s1 = s1 << 0x10\n 66345: a0 = a0 << 0x18\n 66348: a0 = a0 | s1\n 66351: a0 = a0 | a4\n 66354: a0 = a0 << 0x20\n 66357: a0 = a0 | a1\n 66360: s1 = reverse a0\n 66362: a4 = reverse a3\n 66364: a3 = reverse a2\n 66366: a2 = reverse t0\n 66368: a0 = a2 | a3\n 66371: a1 = a4 | s1\n 66374: a1 = a1 | a0\n 66377: a1 = a1 >> 0x20\n 66380: a0 = a0 | s1\n 66383: a0 = a0 << 0x20\n 66386: a0 = a0 | a1\n 66389: jump @912 if a0 != 0\n      : @909 (gas: 23)\n 66393: a0 = u64 [sp + 0x28]\n 66396: a0 = reverse a0\n 66398: a1 = a0 >> 0x20\n 66401: u64 [sp + 0x1b0] = a2\n 66405: a2 = u64 [sp + 0x38]\n 66408: a2 = reverse a2\n 66410: u64 [sp + 0x1c0] = a3\n 66414: a3 = a2 << 0x20\n 66417: a1 = a1 | a3\n 66420: u64 [sp + 0x1a0] = a1\n 66424: a0 = a0 << 0x20\n 66427: a1 = u64 [sp + 0x40]\n 66430: a1 = reverse a1\n 66432: a1 = a1 >> 0x20\n 66435: a0 = a0 | a1\n 66438: u64 [sp + 0x198] = a0\n 66442: a2 = a2 >> 0x20\n 66445: u64 [sp + 0x190] = a2\n 66449: i32 a0 = a4 + 0\n 66451: a1 = 0x20\n 66454: u64 [sp + 0x188] = a0\n 66458: u64 [sp + 0x1b8] = a4\n 66462: ra = 782, jump @0\n      : @910 [@dyn 391] (gas: 92)\n 66469: u8 [a0 + 31] = 0\n 66472: u8 [a0 + 30] = 0\n 66475: u8 [a0 + 29] = 0\n 66478: u8 [a0 + 28] = 0\n 66481: u8 [a0 + 27] = 0\n 66484: u8 [a0 + 26] = 0\n 66487: u8 [a0 + 25] = 0\n 66490: u8 [a0 + 24] = 0\n 66493: u8 [a0 + 23] = 0\n 66496: u8 [a0 + 22] = 0\n 66499: u8 [a0 + 21] = 0\n 66502: u8 [a0 + 20] = 0\n 66505: u8 [a0 + 19] = 0\n 66508: u8 [a0 + 18] = 0\n 66511: u8 [a0 + 17] = 0\n 66514: u8 [a0 + 16] = 0\n 66517: u8 [a0 + 15] = 0\n 66520: u8 [a0 + 14] = 0\n 66523: u8 [a0 + 13] = 0\n 66526: u8 [a0 + 12] = 0\n 66529: u8 [a0 + 11] = 0\n 66532: u8 [a0 + 10] = 0\n 66535: u8 [a0 + 9] = 0\n 66538: u8 [a0 + 8] = 0\n 66541: u8 [a0 + 7] = 0\n 66544: u8 [a0 + 6] = 0\n 66547: u8 [a0 + 5] = 0\n 66550: u8 [a0 + 4] = 0\n 66553: u8 [a0 + 3] = 0x30\n 66557: u8 [a0 + 2] = 0x18\n 66561: u8 [a0 + 1] = 0x6f\n 66565: u8 [a0 + 0] = 0x55\n 66568: a1 = u64 [sp + 0x1b8]\n 66572: a0 = a1 + 0x4\n 66575: a2 = a0 <u a1\n 66578: a3 = u64 [sp + 0x1b0]\n 66582: a1 = a3 + a2\n 66585: a3 = a1 <u a3\n 66588: a3 = a2 if a2 == 0\n 66591: a2 = s1 + a3\n 66594: t0 = a2 <u s1\n 66597: a3 = u64 [sp + 0x1c0]\n 66601: t0 = t0 + a3\n 66604: a3 = sp + 0x2e0\n 66608: u64 [sp] = a3\n 66610: a3 = u64 [sp + 0x1d0]\n 66614: u64 [sp + 0x2f8] = a3\n 66618: a3 = u64 [sp + 0x1d8]\n 66622: u64 [sp + 0x2f0] = a3\n 66626: a3 = u64 [sp + 0x1a8]\n 66630: u64 [sp + 0x2e8] = a3\n 66634: a3 = u64 [sp + 0x1c8]\n 66638: u64 [sp + 0x2e0] = a3\n 66642: a3 = 0x2951448200000000\n 66652: u64 [sp + 0x318] = a3\n 66656: u64 [sp + 784] = 0\n 66660: u64 [sp + 776] = 0\n 66664: u64 [sp + 768] = 0\n 66668: a3 = u64 [sp + 0x48]\n 66671: u64 [sp + 0x338] = a3\n 66675: a3 = u64 [sp + 0x60]\n 66678: u64 [sp + 0x330] = a3\n 66682: a3 = u64 [sp + 0x50]\n 66685: u64 [sp + 0x328] = a3\n 66689: a3 = u64 [sp + 0x58]\n 66692: u64 [sp + 0x320] = a3\n 66696: a3 = u64 [sp + 0x68]\n 66699: u64 [sp + 0x358] = a3\n 66703: a3 = u64 [sp + 0x70]\n 66706: u64 [sp + 0x350] = a3\n 66710: a3 = u64 [sp + 0x78]\n 66713: u64 [sp + 0x348] = a3\n 66717: a3 = u64 [sp + 0x30]\n 66720: u64 [sp + 0x340] = a3\n 66724: u64 [sp + 888] = 0\n 66728: a3 = u64 [sp + 0x190]\n 66732: u64 [sp + 0x370] = a3\n 66736: a3 = u64 [sp + 0x1a0]\n 66740: u64 [sp + 0x368] = a3\n 66744: a3 = u64 [sp + 0x198]\n 66748: u64 [sp + 0x360] = a3\n 66752: u64 [sp + 0x388] = a1\n 66756: u64 [sp + 0x380] = a0\n 66760: u64 [sp + 0x390] = a2\n 66764: a0 = sp + 0x3a0\n 66768: a1 = sp + 0x380\n 66772: a2 = sp + 0x360\n 66776: a3 = sp + 0x340\n 66780: a4 = sp + 0x320\n 66784: a5 = sp + 0x300\n 66788: u64 [sp + 0x398] = t0\n 66792: ra = 784, jump @851\n      : @911 [@dyn 392] (gas: 30)\n 66798: a0 = u64 [sp + 0x3a8]\n 66802: t0 = u64 [sp + 0x3b8]\n 66806: t2 = u64 [sp + 0x3a0]\n 66810: a3 = u64 [sp + 0x3b0]\n 66814: a1 = u64 [sp + 0x1b0]\n 66818: a4 = a0 ^ a1\n 66821: a5 = a0 <u a1\n 66824: t1 = a1\n 66826: a2 = u64 [sp + 0x1b8]\n 66830: a1 = t2 <u a2\n 66833: a5 = a1 if a4 == 0\n 66836: a4 = a3 - s1\n 66839: a3 = a3 <u s1\n 66842: s1 = u64 [sp + 0x1c0]\n 66846: s1 = t0 - s1\n 66849: s1 = s1 - a3\n 66852: a3 = a4 <u a5\n 66855: s1 = s1 - a3\n 66858: a4 = a4 - a5\n 66861: a0 = a0 - t1\n 66864: a1 = a0 - a1\n 66867: a0 = t2 - a2\n 66870: a1 = a1 | s1\n 66873: a2 = a0 | a4\n 66876: a2 = a2 | a1\n 66879: a1 = a1 | a4\n 66882: a2 = a2 >> 0x20\n 66885: a1 = a1 << 0x20\n 66888: a1 = a1 | a2\n 66891: jump @921 if a1 == 0\n      : @912 (gas: 1)\n 66895: trap\n      : @913 (gas: 8)\n 66896: u64 [sp + 592] = 0\n 66900: u64 [sp + 584] = 0\n 66904: u64 [sp + 576] = 0\n 66908: a0 = 0x4e487b7100000000\n 66918: a1 = sp + 0x240\n 66922: u64 [sp + 0x258] = a0\n 66926: a0 = 0\n 66928: ra = 786, jump @23\n      : @914 [@dyn 393] (gas: 8)\n 66935: u64 [sp + 568] = 0\n 66939: u64 [sp + 560] = 0\n 66943: u64 [sp + 544] = 0x32\n 66948: a0 = 0x4\n 66951: a1 = sp + 0x220\n 66955: u64 [sp + 552] = 0\n 66959: ra = 0x318\n 66963: jump @23\n      : @915 (gas: 8)\n 66967: u64 [sp + 656] = 0\n 66971: u64 [sp + 648] = 0\n 66975: u64 [sp + 640] = 0\n 66979: a0 = 0x4e487b7100000000\n 66989: a1 = sp + 0x280\n 66993: u64 [sp + 0x298] = a0\n 66997: a0 = 0\n 66999: ra = 788, jump @23\n      : @916 [@dyn 394] (gas: 8)\n 67006: u64 [sp + 632] = 0\n 67010: u64 [sp + 624] = 0\n 67014: u64 [sp + 608] = 0x32\n 67019: a0 = 0x4\n 67022: a1 = sp + 0x260\n 67026: u64 [sp + 616] = 0\n 67030: ra = 0x318\n 67034: jump @23\n      : @917 (gas: 8)\n 67038: u64 [sp + 720] = 0\n 67042: u64 [sp + 712] = 0\n 67046: u64 [sp + 704] = 0\n 67050: a0 = 0x4e487b7100000000\n 67060: a1 = sp + 0x2c0\n 67064: u64 [sp + 0x2d8] = a0\n 67068: a0 = 0\n 67070: ra = 790, jump @23\n      : @918 [@dyn 395] (gas: 7)\n 67077: u64 [sp + 696] = 0\n 67081: u64 [sp + 688] = 0\n 67085: u64 [sp + 672] = 0x41\n 67090: a0 = 0x4\n 67093: a1 = sp + 0x2a0\n 67097: u64 [sp + 680] = 0\n 67101: ra = 792, jump @23\n      : @919 [@dyn 396] (gas: 3)\n 67108: a1 = 0x24\n 67111: a0 = 0\n 67113: ra = 794, jump @0\n      : @920 [@dyn 397] (gas: 5)\n 67120: i32 a1 = a0 + 0\n 67122: a0 = 0x1\n 67125: a2 = 0x24\n 67128: ecalli 14 // 'seal_return'\n 67130: fallthrough\n      : @921 (gas: 5)\n 67131: i32 s1 = a0 + 0\n 67133: a0 = u64 [sp + 0x188]\n 67137: a1 = s1\n 67139: ra = 0x2ea\n 67143: jump @0\n      : @922 (gas: 17)\n 67147: sp = sp + 0xffffffffffffffa0\n 67150: u64 [sp + 0x58] = ra\n 67153: u64 [sp + 0x50] = s0\n 67156: u64 [sp + 0x48] = s1\n 67159: a3 = u64 [a1 + 0x18]\n 67162: a4 = u64 [a1 + 0x10]\n 67165: a5 = u64 [a1 + 0x8]\n 67168: s1 = u64 [a1]\n 67170: a1 = a5 | a3\n 67173: a2 = s1 | a4\n 67176: a2 = a2 | a1\n 67179: a2 = a2 >> 0x20\n 67182: a1 = a1 | a4\n 67185: a1 = a1 << 0x20\n 67188: a1 = a1 | a2\n 67191: u64 [sp + 0x28] = a0\n 67194: jump @929 if a1 != 0\n      : @923 (gas: 19)\n 67198: a0 = s1 + 0x20\n 67201: u64 [sp + 0x30] = a0\n 67204: a0 = a0 <u s1\n 67207: a1 = a5 + a0\n 67210: u64 [sp + 0x40] = a1\n 67213: u64 [sp + 0x8] = a5\n 67216: s0 = a1 <u a5\n 67219: s0 = a0 if a0 == 0\n 67222: s0 = s0 + a4\n 67225: u64 [sp + 0x10] = a4\n 67228: a0 = s0 <u a4\n 67231: u64 [sp + 0x18] = a3\n 67234: a0 = a0 + a3\n 67237: u64 [sp + 0x38] = a0\n 67240: u64 [sp] = s1\n 67242: i32 a0 = s1 + 0\n 67244: a1 = 0x20\n 67247: s1 = 0x20\n 67250: ra = 796, jump @0\n      : @924 [@dyn 398] (gas: 45)\n 67257: u8 [a0 + 0x1f] = s1\n 67260: a1 = u64 [sp + 0x30]\n 67263: s1 = a1\n 67265: a1 = a1 | s0\n 67268: a2 = u64 [sp + 0x40]\n 67271: a4 = u64 [sp + 0x38]\n 67274: a2 = a2 | a4\n 67277: a1 = a1 | a2\n 67280: a1 = a1 >> 0x20\n 67283: u64 [sp + 0x20] = s0\n 67286: a2 = a2 | s0\n 67289: a2 = a2 << 0x20\n 67292: a1 = a1 | a2\n 67295: u8 [a0 + 30] = 0\n 67298: u8 [a0 + 29] = 0\n 67301: u8 [a0 + 28] = 0\n 67304: u8 [a0 + 27] = 0\n 67307: u8 [a0 + 26] = 0\n 67310: u8 [a0 + 25] = 0\n 67313: u8 [a0 + 24] = 0\n 67316: u8 [a0 + 23] = 0\n 67319: u8 [a0 + 22] = 0\n 67322: u8 [a0 + 21] = 0\n 67325: u8 [a0 + 20] = 0\n 67328: u8 [a0 + 19] = 0\n 67331: u8 [a0 + 18] = 0\n 67334: u8 [a0 + 17] = 0\n 67337: u8 [a0 + 16] = 0\n 67340: u8 [a0 + 15] = 0\n 67343: u8 [a0 + 14] = 0\n 67346: u8 [a0 + 13] = 0\n 67349: u8 [a0 + 12] = 0\n 67352: u8 [a0 + 11] = 0\n 67355: u8 [a0 + 10] = 0\n 67358: u8 [a0 + 9] = 0\n 67361: u8 [a0 + 8] = 0\n 67364: u8 [a0 + 7] = 0\n 67367: u8 [a0 + 6] = 0\n 67370: u8 [a0 + 5] = 0\n 67373: u8 [a0 + 4] = 0\n 67376: u8 [a0 + 3] = 0\n 67379: u8 [a0 + 2] = 0\n 67382: u8 [a0 + 1] = 0\n 67385: u8 [a0 + 0] = 0\n 67387: jump @929 if a1 != 0\n      : @925 (gas: 4)\n 67391: i32 s0 = s1 + 0\n 67393: a1 = 0x20\n 67396: a0 = s0\n 67398: ra = 798, jump @0\n      : @926 [@dyn 399] (gas: 41)\n 67405: u8 [a0 + 31] = 0x16\n 67409: u8 [a0 + 30] = 0\n 67412: u8 [a0 + 29] = 0\n 67415: u8 [a0 + 28] = 0\n 67418: u8 [a0 + 27] = 0\n 67421: u8 [a0 + 26] = 0\n 67424: u8 [a0 + 25] = 0\n 67427: u8 [a0 + 24] = 0\n 67430: u8 [a0 + 23] = 0\n 67433: u8 [a0 + 22] = 0\n 67436: u8 [a0 + 21] = 0\n 67439: u8 [a0 + 20] = 0\n 67442: u8 [a0 + 19] = 0\n 67445: u8 [a0 + 18] = 0\n 67448: u8 [a0 + 17] = 0\n 67451: u8 [a0 + 16] = 0\n 67454: u8 [a0 + 15] = 0\n 67457: u8 [a0 + 14] = 0\n 67460: u8 [a0 + 13] = 0\n 67463: u8 [a0 + 12] = 0\n 67466: u8 [a0 + 11] = 0\n 67469: u8 [a0 + 10] = 0\n 67472: u8 [a0 + 9] = 0\n 67475: u8 [a0 + 8] = 0\n 67478: u8 [a0 + 7] = 0\n 67481: u8 [a0 + 6] = 0\n 67484: u8 [a0 + 5] = 0\n 67487: u8 [a0 + 4] = 0\n 67490: u8 [a0 + 3] = 0\n 67493: u8 [a0 + 2] = 0\n 67496: u8 [a0 + 1] = 0\n 67499: a1 = u64 [sp + 0x20]\n 67502: a2 = u64 [sp + 0x38]\n 67505: a1 = a1 | a2\n 67508: a2 = 0xffffffe0\n 67518: a2 = s1 <u a2\n 67521: a3 = u64 [sp + 0x40]\n 67524: a2 = 0 if a3 != 0\n 67526: a2 = 0 if a1 != 0\n 67528: u8 [a0 + 0] = 0\n 67530: jump @929 if a2 == 0\n      : @927 (gas: 3)\n 67534: i32 a0 = s0 + 0x20\n 67537: a1 = 0x20\n 67540: ra = 800, jump @0\n      : @928 [@dyn 400] (gas: 55)\n 67547: u8 [a0 + 31] = 0\n 67550: u8 [a0 + 30] = 0\n 67553: u8 [a0 + 29] = 0\n 67556: u8 [a0 + 28] = 0\n 67559: u8 [a0 + 27] = 0\n 67562: u8 [a0 + 26] = 0\n 67565: u8 [a0 + 25] = 0\n 67568: u8 [a0 + 24] = 0\n 67571: u8 [a0 + 23] = 0\n 67574: u8 [a0 + 22] = 0\n 67577: u8 [a0 + 21] = 0x6c\n 67581: u8 [a0 + 20] = 0x6c\n 67585: u8 [a0 + 19] = 0x61\n 67589: u8 [a0 + 18] = 0x63\n 67593: a5 = 0x20\n 67596: u8 [a0 + 0x11] = a5\n 67599: u8 [a0 + 16] = 0x74\n 67603: u8 [a0 + 15] = 0x6e\n 67607: u8 [a0 + 14] = 0x61\n 67611: u8 [a0 + 13] = 0x72\n 67615: u8 [a0 + 12] = 0x74\n 67619: u8 [a0 + 11] = 0x6e\n 67623: u8 [a0 + 10] = 0x65\n 67627: u8 [a0 + 9] = 0x65\n 67631: u8 [a0 + 8] = 0x72\n 67635: u8 [a0 + 0x7] = a5\n 67638: u8 [a0 + 6] = 0x3a\n 67642: u8 [a0 + 5] = 0x77\n 67646: u8 [a0 + 4] = 0x6f\n 67650: u8 [a0 + 3] = 0x72\n 67654: u8 [a0 + 2] = 0x63\n 67658: u8 [a0 + 1] = 0x73\n 67662: u8 [a0 + 0] = 0x45\n 67665: a1 = u64 [sp]\n 67667: a0 = a1 + 0x60\n 67670: a1 = a0 <u a1\n 67673: a3 = u64 [sp + 0x8]\n 67676: a2 = a3 + a1\n 67679: a3 = a2 <u a3\n 67682: a3 = a1 if a1 == 0\n 67685: a1 = u64 [sp + 0x10]\n 67688: a3 = a3 + a1\n 67691: a1 = a3 <u a1\n 67694: a4 = u64 [sp + 0x18]\n 67697: a1 = a1 + a4\n 67700: a4 = u64 [sp + 0x28]\n 67703: u64 [a4] = a0\n 67705: u64 [a4 + 0x8] = a2\n 67708: u64 [a4 + 0x10] = a3\n 67711: u64 [a4 + 0x18] = a1\n 67714: ra = u64 [sp + 0x58]\n 67717: s0 = u64 [sp + 0x50]\n 67720: s1 = u64 [sp + 0x48]\n 67723: sp = sp + 0x60\n 67726: ret\n      : @929 (gas: 1)\n 67728: trap\n      : @930 (gas: 23)\n 67729: sp = sp + 0xfffffffffffffee0\n 67733: u64 [sp + 0x118] = ra\n 67737: u64 [sp + 0x110] = s0\n 67741: u64 [sp + 0x108] = s1\n 67745: s0 = sp + 0x120\n 67749: sp = sp & 0xffffffffffffffe0\n 67752: s1 = a0\n 67754: u64 [sp + 216] = 0\n 67758: u64 [sp + 208] = 0\n 67762: u64 [sp + 200] = 0\n 67766: u64 [sp + 192] = 0x5\n 67771: u64 [sp + 248] = 0\n 67775: u64 [sp + 240] = 0\n 67779: u64 [sp + 232] = 0\n 67783: u64 [sp + 224] = 0\n 67787: u32 [sp + 160] = 0x20\n 67792: i32 a1 = sp + 0xc0\n 67796: i32 a3 = sp + 0xe0\n 67800: i32 a4 = sp + 0xa0\n 67804: a2 = 0xffffffffffffffff\n 67807: a0 = 0\n 67809: ecalli 8 // 'get_storage'\n 67811: fallthrough\n      : @931 (gas: 9)\n 67812: a0 = u64 [sp + 0xf8]\n 67816: a1 = u64 [sp + 0xe8]\n 67820: a2 = u64 [sp + 0xe0]\n 67824: a3 = u64 [sp + 0xf0]\n 67828: a0 = a0 | a1\n 67831: a1 = a2 ^ 0x1\n 67834: a1 = a1 | a3\n 67837: a0 = a0 | a1\n 67840: jump @934 if a0 != 0\n      : @932 (gas: 46)\n 67844: u64 [sp + 216] = 0\n 67848: u64 [sp + 208] = 0\n 67852: u64 [sp + 200] = 0\n 67856: u64 [sp + 192] = 0x5\n 67861: u64 [sp + 248] = 0\n 67865: u64 [sp + 240] = 0\n 67869: u64 [sp + 232] = 0\n 67873: u64 [sp + 224] = 0\n 67877: u32 [sp + 160] = 0x20\n 67882: i32 a1 = sp + 0xc0\n 67886: i32 a3 = sp + 0xe0\n 67890: i32 a4 = sp + 0xa0\n 67894: a2 = 0xffffffffffffffff\n 67897: a0 = 0\n 67899: ecalli 8 // 'get_storage'\n 67901: u64 [sp + 216] = 0\n 67905: u64 [sp + 208] = 0\n 67909: u64 [sp + 200] = 0\n 67913: u64 [sp + 192] = 0x5\n 67918: u64 [sp + 248] = 0\n 67922: u64 [sp + 240] = 0\n 67926: u64 [sp + 232] = 0\n 67930: u64 [sp + 224] = 0x2\n 67935: i32 a1 = sp + 0xc0\n 67939: i32 a3 = sp + 0xe0\n 67943: a2 = 0xffffffffffffffff\n 67946: a4 = 0x20\n 67949: a0 = 0\n 67951: ecalli 16 // 'set_storage'\n 67953: a0 = sp + 0x40\n 67956: ra = 0x322\n 67960: sp = sp + 0xfffffffffffffd40\n 67964: u64 [sp + 0x2b8] = ra\n 67968: u64 [sp + 0x2b0] = s0\n 67972: u64 [sp + 0x2a8] = s1\n 67976: s0 = sp + 0x2c0\n 67980: sp = sp & 0xffffffffffffffe0\n 67983: s1 = sp\n 67985: u64 [s1 + 0x18] = a0\n 67988: u64 [s1 + 440] = 0\n 67992: u64 [s1 + 432] = 0\n 67996: u64 [s1 + 424] = 0\n 68000: u64 [s1 + 416] = 0\n 68004: i32 a0 = s1 + 0x1a0\n 68008: ecalli 17 // 'value_transferred'\n 68010: jump @970\n      : @933 [@dyn 401] (gas: 51)\n 68013: a0 = u64 [sp + 0x40]\n 68016: u64 [sp + 0x18] = a0\n 68019: a0 = u64 [sp + 0x48]\n 68022: u64 [sp + 0x10] = a0\n 68025: a0 = u64 [sp + 0x50]\n 68028: u64 [sp + 0x8] = a0\n 68031: a0 = u64 [sp + 0x58]\n 68034: u64 [sp] = a0\n 68036: u64 [sp + 216] = 0\n 68040: u64 [sp + 208] = 0\n 68044: u64 [sp + 200] = 0\n 68048: u64 [sp + 192] = 0x5\n 68053: u64 [sp + 248] = 0\n 68057: u64 [sp + 240] = 0\n 68061: u64 [sp + 232] = 0\n 68065: u64 [sp + 224] = 0\n 68069: u32 [sp + 160] = 0x20\n 68074: i32 a1 = sp + 0xc0\n 68078: i32 a3 = sp + 0xe0\n 68082: i32 a4 = sp + 0xa0\n 68086: a2 = 0xffffffffffffffff\n 68089: a0 = 0\n 68091: ecalli 8 // 'get_storage'\n 68093: u64 [sp + 216] = 0\n 68097: u64 [sp + 208] = 0\n 68101: u64 [sp + 200] = 0\n 68105: u64 [sp + 192] = 0x5\n 68110: u64 [sp + 248] = 0\n 68114: u64 [sp + 240] = 0\n 68118: u64 [sp + 232] = 0\n 68122: u64 [sp + 224] = 0x1\n 68127: i32 a1 = sp + 0xc0\n 68131: i32 a3 = sp + 0xe0\n 68135: a2 = 0xffffffffffffffff\n 68138: a4 = 0x20\n 68141: a0 = 0\n 68143: ecalli 16 // 'set_storage'\n 68145: a0 = u64 [sp]\n 68147: u64 [s1 + 0x18] = a0\n 68150: a0 = u64 [sp + 0x8]\n 68153: u64 [s1 + 0x10] = a0\n 68156: a0 = u64 [sp + 0x10]\n 68159: u64 [s1 + 0x8] = a0\n 68162: a0 = u64 [sp + 0x18]\n 68165: u64 [s1] = a0\n 68167: sp = s0 + 0xfffffffffffffee0\n 68171: ra = u64 [sp + 0x118]\n 68175: s0 = u64 [sp + 0x110]\n 68179: s1 = u64 [sp + 0x108]\n 68183: sp = sp + 0x120\n 68187: ret\n      : @934 (gas: 3)\n 68189: a0 = 0x40\n 68192: a1 = 0x20\n 68195: ra = 804, jump @0\n      : @935 [@dyn 402] (gas: 103)\n 68202: a1 = u8 [a0 + 0x11]\n 68205: a2 = u8 [a0 + 0x10]\n 68208: a3 = u8 [a0 + 0x12]\n 68211: a4 = u8 [a0 + 0x13]\n 68214: a1 = a1 << 0x8\n 68217: a1 = a1 | a2\n 68220: a3 = a3 << 0x10\n 68223: a4 = a4 << 0x18\n 68226: a3 = a3 | a4\n 68229: a1 = a1 | a3\n 68232: a2 = u8 [a0 + 0x15]\n 68235: a3 = u8 [a0 + 0x14]\n 68238: a4 = u8 [a0 + 0x16]\n 68241: a5 = u8 [a0 + 0x17]\n 68244: a2 = a2 << 0x8\n 68247: a2 = a2 | a3\n 68250: a4 = a4 << 0x10\n 68253: a5 = a5 << 0x18\n 68256: a4 = a4 | a5\n 68259: a2 = a2 | a4\n 68262: a2 = a2 << 0x20\n 68265: t0 = a2 | a1\n 68268: a2 = u8 [a0 + 0x1]\n 68271: a3 = u8 [a0]\n 68273: a4 = u8 [a0 + 0x2]\n 68276: a5 = u8 [a0 + 0x3]\n 68279: a2 = a2 << 0x8\n 68282: a2 = a2 | a3\n 68285: a4 = a4 << 0x10\n 68288: a5 = a5 << 0x18\n 68291: a4 = a4 | a5\n 68294: a2 = a2 | a4\n 68297: a3 = u8 [a0 + 0x5]\n 68300: a4 = u8 [a0 + 0x4]\n 68303: a5 = u8 [a0 + 0x6]\n 68306: s1 = u8 [a0 + 0x7]\n 68309: a3 = a3 << 0x8\n 68312: a3 = a3 | a4\n 68315: a5 = a5 << 0x10\n 68318: s1 = s1 << 0x18\n 68321: a5 = a5 | s1\n 68324: a3 = a3 | a5\n 68327: a3 = a3 << 0x20\n 68330: a2 = a2 | a3\n 68333: a3 = u8 [a0 + 0x19]\n 68336: a4 = u8 [a0 + 0x18]\n 68339: a5 = u8 [a0 + 0x1a]\n 68342: s1 = u8 [a0 + 0x1b]\n 68345: a3 = a3 << 0x8\n 68348: a3 = a3 | a4\n 68351: a5 = a5 << 0x10\n 68354: s1 = s1 << 0x18\n 68357: a5 = a5 | s1\n 68360: a3 = a3 | a5\n 68363: a4 = u8 [a0 + 0x1d]\n 68366: a5 = u8 [a0 + 0x1c]\n 68369: s1 = u8 [a0 + 0x1e]\n 68372: a1 = u8 [a0 + 0x1f]\n 68375: a4 = a4 << 0x8\n 68378: a4 = a4 | a5\n 68381: s1 = s1 << 0x10\n 68384: a1 = a1 << 0x18\n 68387: a1 = a1 | s1\n 68390: a1 = a1 | a4\n 68393: a1 = a1 << 0x20\n 68396: a3 = a3 | a1\n 68399: a1 = u8 [a0 + 0x9]\n 68402: a4 = u8 [a0 + 0x8]\n 68405: a5 = u8 [a0 + 0xa]\n 68408: s1 = u8 [a0 + 0xb]\n 68411: a1 = a1 << 0x8\n 68414: a1 = a1 | a4\n 68417: a5 = a5 << 0x10\n 68420: s1 = s1 << 0x18\n 68423: a5 = a5 | s1\n 68426: a1 = a1 | a5\n 68429: a4 = u8 [a0 + 0xd]\n 68432: a5 = u8 [a0 + 0xc]\n 68435: s1 = u8 [a0 + 0xe]\n 68438: a0 = u8 [a0 + 0xf]\n 68441: a4 = a4 << 0x8\n 68444: a4 = a4 | a5\n 68447: s1 = s1 << 0x10\n 68450: a0 = a0 << 0x18\n 68453: a0 = a0 | s1\n 68456: a0 = a0 | a4\n 68459: a0 = a0 << 0x20\n 68462: a0 = a0 | a1\n 68465: s1 = reverse a0\n 68467: a1 = reverse a3\n 68469: a2 = reverse a2\n 68471: a0 = reverse t0\n 68473: u64 [sp + 0x18] = a0\n 68476: u64 [sp + 0x10] = a2\n 68479: a0 = a0 | a2\n 68482: a2 = a1\n 68484: a1 = a1 | s1\n 68487: a1 = a1 | a0\n 68490: a1 = a1 >> 0x20\n 68493: a0 = a0 | s1\n 68496: a0 = a0 << 0x20\n 68499: a0 = a0 | a1\n 68502: jump @939 if a0 != 0\n      : @936 (gas: 5)\n 68506: u64 [sp + 0x8] = a2\n 68509: i32 a0 = a2 + 0\n 68511: a1 = 0x20\n 68514: u64 [sp] = a0\n 68516: ra = 806, jump @0\n      : @937 [@dyn 403] (gas: 50)\n 68523: u8 [a0 + 31] = 0\n 68526: u8 [a0 + 30] = 0\n 68529: u8 [a0 + 29] = 0\n 68532: u8 [a0 + 28] = 0\n 68535: u8 [a0 + 27] = 0\n 68538: u8 [a0 + 26] = 0\n 68541: u8 [a0 + 25] = 0\n 68544: u8 [a0 + 24] = 0\n 68547: u8 [a0 + 23] = 0\n 68550: u8 [a0 + 22] = 0\n 68553: u8 [a0 + 21] = 0\n 68556: u8 [a0 + 20] = 0\n 68559: u8 [a0 + 19] = 0\n 68562: u8 [a0 + 18] = 0\n 68565: u8 [a0 + 17] = 0\n 68568: u8 [a0 + 16] = 0\n 68571: u8 [a0 + 15] = 0\n 68574: u8 [a0 + 14] = 0\n 68577: u8 [a0 + 13] = 0\n 68580: u8 [a0 + 12] = 0\n 68583: u8 [a0 + 11] = 0\n 68586: u8 [a0 + 10] = 0\n 68589: u8 [a0 + 9] = 0\n 68592: u8 [a0 + 8] = 0\n 68595: u8 [a0 + 7] = 0\n 68598: u8 [a0 + 6] = 0\n 68601: u8 [a0 + 5] = 0\n 68604: u8 [a0 + 4] = 0\n 68607: u8 [a0 + 3] = 0xa0\n 68612: u8 [a0 + 2] = 0x79\n 68616: u8 [a0 + 1] = 0xc3\n 68621: u8 [a0 + 0] = 0x8\n 68624: a1 = u64 [sp + 0x8]\n 68627: a0 = a1 + 0x4\n 68630: a1 = a0 <u a1\n 68633: a3 = u64 [sp + 0x18]\n 68636: a2 = a3 + a1\n 68639: a3 = a2 <u a3\n 68642: a3 = a1 if a1 == 0\n 68645: a3 = a3 + s1\n 68648: a1 = a3 <u s1\n 68651: a4 = u64 [sp + 0x10]\n 68654: a4 = a4 + a1\n 68657: u64 [sp + 0x68] = a2\n 68660: u64 [sp + 0x60] = a0\n 68663: u64 [sp + 0x70] = a3\n 68666: a0 = sp + 0x80\n 68670: a1 = sp + 0x60\n 68673: u64 [sp + 0x78] = a4\n 68676: ra = 808, jump @922\n      : @938 [@dyn 404] (gas: 30)\n 68682: a0 = u64 [sp + 0x88]\n 68686: t0 = u64 [sp + 0x98]\n 68690: t1 = u64 [sp + 0x80]\n 68694: a3 = u64 [sp + 0x90]\n 68698: a1 = u64 [sp + 0x18]\n 68701: a4 = a0 ^ a1\n 68704: a5 = a0 <u a1\n 68707: t2 = a1\n 68709: a2 = u64 [sp + 0x8]\n 68712: a1 = t1 <u a2\n 68715: a5 = a1 if a4 == 0\n 68718: a4 = a3 - s1\n 68721: a3 = a3 <u s1\n 68724: s1 = u64 [sp + 0x10]\n 68727: s1 = t0 - s1\n 68730: s1 = s1 - a3\n 68733: a3 = a4 <u a5\n 68736: s1 = s1 - a3\n 68739: a4 = a4 - a5\n 68742: a0 = a0 - t2\n 68745: a1 = a0 - a1\n 68748: a0 = t1 - a2\n 68751: a1 = a1 | s1\n 68754: a2 = a0 | a4\n 68757: a2 = a2 | a1\n 68760: a1 = a1 | a4\n 68763: a2 = a2 >> 0x20\n 68766: a1 = a1 << 0x20\n 68769: a1 = a1 | a2\n 68772: jump @940 if a1 == 0\n      : @939 (gas: 1)\n 68775: trap\n      : @940 (gas: 4)\n 68776: i32 s1 = a0 + 0\n 68778: a0 = u64 [sp]\n 68780: a1 = s1\n 68782: ra = 810, jump @0\n      : @941 [@dyn 405] (gas: 6)\n 68789: i32 a1 = a0 + 0\n 68791: a0 = 0x1\n 68794: a2 = s1\n 68796: ra = 0x32c\n 68800: ecalli 14 // 'seal_return'\n 68802: fallthrough\n      : @942 [@dyn 406] (gas: 12)\n 68803: a1 = u64 [a0 + 0x10]\n 68806: a2 = u64 [a0 + 0x18]\n 68809: a3 = u64 [a0 + 0x8]\n 68812: a0 = u64 [a0]\n 68814: a2 = a2 | a3\n 68817: a3 = a0 | a1\n 68820: a3 = a3 | a2\n 68823: a3 = a3 >> 0x20\n 68826: a1 = a1 | a2\n 68829: a1 = a1 << 0x20\n 68832: a1 = a1 | a3\n 68835: jump @945 if a1 != 0\n      : @943 (gas: 8)\n 68839: sp = sp + 0xffffffffffffffe8\n 68842: u64 [sp + 0x10] = ra\n 68845: u64 [sp + 0x8] = s0\n 68848: u64 [sp] = s1\n 68850: i32 a0 = a0 + 0\n 68852: a1 = 0x20\n 68855: s1 = 0x20\n 68858: ra = 814, jump @0\n      : @944 [@dyn 407] (gas: 42)\n 68865: u8 [a0 + 31] = 0x74\n 68869: u8 [a0 + 30] = 0x6e\n 68873: u8 [a0 + 29] = 0x75\n 68877: u8 [a0 + 28] = 0x6f\n 68881: u8 [a0 + 27] = 0x6d\n 68885: a5 = 0x61\n 68888: u8 [a0 + 0x1a] = a5\n 68891: u8 [a0 + 0x19] = s1\n 68894: u8 [a0 + 24] = 0x74\n 68898: u8 [a0 + 23] = 0x6e\n 68902: u8 [a0 + 22] = 0x65\n 68906: u8 [a0 + 21] = 0x6d\n 68910: u8 [a0 + 20] = 0x79\n 68914: u8 [a0 + 0x13] = a5\n 68917: u8 [a0 + 18] = 0x70\n 68921: u8 [a0 + 0x11] = s1\n 68924: u8 [a0 + 16] = 0x74\n 68928: a3 = 0x63\n 68931: u8 [a0 + 0xf] = a3\n 68934: u8 [a0 + 14] = 0x65\n 68938: a4 = 0x72\n 68941: u8 [a0 + 0xd] = a4\n 68944: u8 [a0 + 0xc] = a4\n 68947: u8 [a0 + 11] = 0x6f\n 68951: u8 [a0 + 0xa] = a3\n 68954: u8 [a0 + 9] = 0x6e\n 68958: u8 [a0 + 8] = 0x69\n 68962: u8 [a0 + 0x7] = s1\n 68965: u8 [a0 + 6] = 0x3a\n 68969: a2 = 0x77\n 68972: u8 [a0 + 0x5] = a2\n 68975: u8 [a0 + 4] = 0x6f\n 68979: u8 [a0 + 0x3] = a4\n 68982: u8 [a0 + 0x2] = a3\n 68985: u8 [a0 + 1] = 0x73\n 68989: a1 = 0x45\n 68992: u8 [a0] = a1\n 68994: ra = u64 [sp + 0x10]\n 68997: s0 = u64 [sp + 0x8]\n 69000: s1 = u64 [sp]\n 69002: sp = sp + 0x18\n 69005: ret\n      : @945 (gas: 1)\n 69007: trap\n      : @946 (gas: 16)\n 69008: sp = sp + 0xffffffffffffffa0\n 69011: u64 [sp + 0x58] = ra\n 69014: u64 [sp + 0x50] = s0\n 69017: u64 [sp + 0x48] = s1\n 69020: a3 = u64 [a1 + 0x18]\n 69023: a4 = u64 [a1 + 0x10]\n 69026: a5 = u64 [a1 + 0x8]\n 69029: s1 = u64 [a1]\n 69031: a1 = a5 | a3\n 69034: a2 = s1 | a4\n 69037: a2 = a2 | a1\n 69040: a2 = a2 >> 0x20\n 69043: a1 = a1 | a4\n 69046: a1 = a1 << 0x20\n 69049: a1 = a1 | a2\n 69052: jump @953 if a1 != 0\n      : @947 (gas: 20)\n 69056: u64 [sp + 0x10] = a0\n 69059: a0 = s1 + 0x20\n 69062: u64 [sp + 0x30] = a0\n 69065: a0 = a0 <u s1\n 69068: a1 = a5 + a0\n 69071: u64 [sp + 0x40] = a1\n 69074: u64 [sp + 0x8] = a5\n 69077: s0 = a1 <u a5\n 69080: s0 = a0 if a0 == 0\n 69083: s0 = s0 + a4\n 69086: u64 [sp + 0x18] = a4\n 69089: a0 = s0 <u a4\n 69092: u64 [sp + 0x20] = a3\n 69095: a0 = a0 + a3\n 69098: u64 [sp + 0x38] = a0\n 69101: u64 [sp] = s1\n 69103: i32 a0 = s1 + 0\n 69105: a1 = 0x20\n 69108: s1 = 0x20\n 69111: ra = 816, jump @0\n      : @948 [@dyn 408] (gas: 45)\n 69118: a1 = u64 [sp + 0x30]\n 69121: a3 = a1\n 69123: a1 = a1 | s0\n 69126: a2 = u64 [sp + 0x40]\n 69129: a4 = u64 [sp + 0x38]\n 69132: a2 = a2 | a4\n 69135: a1 = a1 | a2\n 69138: a1 = a1 >> 0x20\n 69141: u64 [sp + 0x28] = s0\n 69144: a2 = a2 | s0\n 69147: a2 = a2 << 0x20\n 69150: a1 = a1 | a2\n 69153: u8 [a0 + 0x1f] = s1\n 69156: u8 [a0 + 30] = 0\n 69159: u8 [a0 + 29] = 0\n 69162: u8 [a0 + 28] = 0\n 69165: u8 [a0 + 27] = 0\n 69168: u8 [a0 + 26] = 0\n 69171: u8 [a0 + 25] = 0\n 69174: u8 [a0 + 24] = 0\n 69177: u8 [a0 + 23] = 0\n 69180: u8 [a0 + 22] = 0\n 69183: u8 [a0 + 21] = 0\n 69186: u8 [a0 + 20] = 0\n 69189: u8 [a0 + 19] = 0\n 69192: u8 [a0 + 18] = 0\n 69195: u8 [a0 + 17] = 0\n 69198: u8 [a0 + 16] = 0\n 69201: u8 [a0 + 15] = 0\n 69204: u8 [a0 + 14] = 0\n 69207: u8 [a0 + 13] = 0\n 69210: u8 [a0 + 12] = 0\n 69213: u8 [a0 + 11] = 0\n 69216: u8 [a0 + 10] = 0\n 69219: u8 [a0 + 9] = 0\n 69222: u8 [a0 + 8] = 0\n 69225: u8 [a0 + 7] = 0\n 69228: u8 [a0 + 6] = 0\n 69231: u8 [a0 + 5] = 0\n 69234: u8 [a0 + 4] = 0\n 69237: u8 [a0 + 3] = 0\n 69240: u8 [a0 + 2] = 0\n 69243: u8 [a0 + 1] = 0\n 69246: u8 [a0 + 0] = 0\n 69248: jump @953 if a1 != 0\n      : @949 (gas: 5)\n 69252: s1 = a3\n 69254: i32 s0 = a3 + 0\n 69256: a1 = 0x20\n 69259: a0 = s0\n 69261: ra = 818, jump @0\n      : @950 [@dyn 409] (gas: 41)\n 69268: u8 [a0 + 31] = 0x20\n 69272: u8 [a0 + 30] = 0\n 69275: u8 [a0 + 29] = 0\n 69278: u8 [a0 + 28] = 0\n 69281: u8 [a0 + 27] = 0\n 69284: u8 [a0 + 26] = 0\n 69287: u8 [a0 + 25] = 0\n 69290: u8 [a0 + 24] = 0\n 69293: u8 [a0 + 23] = 0\n 69296: u8 [a0 + 22] = 0\n 69299: u8 [a0 + 21] = 0\n 69302: u8 [a0 + 20] = 0\n 69305: u8 [a0 + 19] = 0\n 69308: u8 [a0 + 18] = 0\n 69311: u8 [a0 + 17] = 0\n 69314: u8 [a0 + 16] = 0\n 69317: u8 [a0 + 15] = 0\n 69320: u8 [a0 + 14] = 0\n 69323: u8 [a0 + 13] = 0\n 69326: u8 [a0 + 12] = 0\n 69329: u8 [a0 + 11] = 0\n 69332: u8 [a0 + 10] = 0\n 69335: u8 [a0 + 9] = 0\n 69338: u8 [a0 + 8] = 0\n 69341: u8 [a0 + 7] = 0\n 69344: u8 [a0 + 6] = 0\n 69347: u8 [a0 + 5] = 0\n 69350: u8 [a0 + 4] = 0\n 69353: u8 [a0 + 3] = 0\n 69356: u8 [a0 + 2] = 0\n 69359: u8 [a0 + 1] = 0\n 69362: a1 = u64 [sp + 0x28]\n 69365: a2 = u64 [sp + 0x38]\n 69368: a1 = a1 | a2\n 69371: a2 = 0xffffffe0\n 69381: a2 = s1 <u a2\n 69384: a3 = u64 [sp + 0x40]\n 69387: a2 = 0 if a3 != 0\n 69389: a2 = 0 if a1 != 0\n 69391: u8 [a0 + 0] = 0\n 69393: jump @953 if a2 == 0\n      : @951 (gas: 4)\n 69397: i32 a0 = s0 + 0x20\n 69400: a1 = 0x20\n 69403: s0 = 0x20\n 69406: ra = 820, jump @0\n      : @952 [@dyn 410] (gas: 54)\n 69413: u8 [a0 + 29] = 0x75\n 69417: u8 [a0 + 27] = 0x6d\n 69421: u8 [a0 + 21] = 0x6d\n 69425: u8 [a0 + 20] = 0x79\n 69429: u8 [a0 + 26] = 0x61\n 69433: u8 [a0 + 19] = 0x61\n 69437: u8 [a0 + 18] = 0x70\n 69441: u8 [a0 + 31] = 0x74\n 69445: u8 [a0 + 24] = 0x74\n 69449: u8 [a0 + 16] = 0x74\n 69453: u8 [a0 + 22] = 0x65\n 69457: u8 [a0 + 14] = 0x65\n 69461: u8 [a0 + 30] = 0x6e\n 69465: u8 [a0 + 23] = 0x6e\n 69469: u8 [a0 + 9] = 0x6e\n 69473: u8 [a0 + 8] = 0x69\n 69477: u8 [a0 + 0x19] = s0\n 69480: u8 [a0 + 0x11] = s0\n 69483: u8 [a0 + 0x7] = s0\n 69486: u8 [a0 + 6] = 0x3a\n 69490: u8 [a0 + 5] = 0x77\n 69494: u8 [a0 + 28] = 0x6f\n 69498: u8 [a0 + 11] = 0x6f\n 69502: u8 [a0 + 4] = 0x6f\n 69506: u8 [a0 + 13] = 0x72\n 69510: u8 [a0 + 12] = 0x72\n 69514: u8 [a0 + 3] = 0x72\n 69518: u8 [a0 + 15] = 0x63\n 69522: u8 [a0 + 10] = 0x63\n 69526: u8 [a0 + 2] = 0x63\n 69530: u8 [a0 + 1] = 0x73\n 69534: u8 [a0 + 0] = 0x45\n 69537: a1 = u64 [sp]\n 69539: a0 = a1 + 0x60\n 69542: a1 = a0 <u a1\n 69545: a3 = u64 [sp + 0x8]\n 69548: a2 = a3 + a1\n 69551: a3 = a2 <u a3\n 69554: a3 = a1 if a1 == 0\n 69557: a1 = u64 [sp + 0x18]\n 69560: a3 = a3 + a1\n 69563: a1 = a3 <u a1\n 69566: a4 = u64 [sp + 0x20]\n 69569: a1 = a1 + a4\n 69572: a4 = u64 [sp + 0x10]\n 69575: u64 [a4] = a0\n 69577: u64 [a4 + 0x8] = a2\n 69580: u64 [a4 + 0x10] = a3\n 69583: u64 [a4 + 0x18] = a1\n 69586: ra = u64 [sp + 0x58]\n 69589: s0 = u64 [sp + 0x50]\n 69592: s1 = u64 [sp + 0x48]\n 69595: sp = sp + 0x60\n 69598: ret\n      : @953 (gas: 1)\n 69600: trap\n      : @954 (gas: 22)\n 69601: sp = sp + 0xfffffffffffffee0\n 69605: u64 [sp + 0x118] = ra\n 69609: u64 [sp + 0x110] = s0\n 69613: u64 [sp + 0x108] = s1\n 69617: s0 = sp + 0x120\n 69621: sp = sp & 0xffffffffffffffe0\n 69624: a4 = u64 [a1 + 0x10]\n 69627: a5 = u64 [a1 + 0x18]\n 69630: a2 = u64 [a1 + 0x8]\n 69633: a3 = u64 [a1]\n 69635: u64 [sp + 0x70] = a2\n 69638: u64 [sp + 0x58] = a5\n 69641: a1 = a2 | a5\n 69644: u64 [sp + 0x80] = a3\n 69648: a2 = a3 | a4\n 69651: a2 = a2 | a1\n 69654: a2 = a2 >> 0x20\n 69657: u64 [sp + 0x78] = a4\n 69660: a1 = a1 | a4\n 69663: a1 = a1 << 0x20\n 69666: a1 = a1 | a2\n 69669: jump @969 if a1 != 0\n      : @955 (gas: 12)\n 69673: a1 = u64 [a0 + 0x18]\n 69676: u64 [sp + 0x60] = a1\n 69679: a1 = u64 [a0 + 0x10]\n 69682: u64 [sp + 0x88] = a1\n 69686: a1 = u64 [a0 + 0x8]\n 69689: u64 [sp + 0x90] = a1\n 69693: a0 = u64 [a0]\n 69695: u64 [sp + 0x98] = a0\n 69699: a0 = i32 [sp + 0x80]\n 69703: a1 = 0x20\n 69706: u64 [sp + 0x68] = a0\n 69709: ra = 822, jump @0\n      : @956 [@dyn 411] (gas: 105)\n 69716: a1 = u8 [a0 + 0x11]\n 69719: a2 = u8 [a0 + 0x10]\n 69722: a3 = u8 [a0 + 0x12]\n 69725: a4 = u8 [a0 + 0x13]\n 69728: a1 = a1 << 0x8\n 69731: a1 = a1 | a2\n 69734: a3 = a3 << 0x10\n 69737: a4 = a4 << 0x18\n 69740: a3 = a3 | a4\n 69743: a1 = a1 | a3\n 69746: a2 = u8 [a0 + 0x15]\n 69749: a3 = u8 [a0 + 0x14]\n 69752: a4 = u8 [a0 + 0x16]\n 69755: a5 = u8 [a0 + 0x17]\n 69758: a2 = a2 << 0x8\n 69761: a2 = a2 | a3\n 69764: a4 = a4 << 0x10\n 69767: a5 = a5 << 0x18\n 69770: a4 = a4 | a5\n 69773: a2 = a2 | a4\n 69776: a2 = a2 << 0x20\n 69779: a1 = a1 | a2\n 69782: a2 = u8 [a0 + 0x19]\n 69785: a3 = u8 [a0 + 0x18]\n 69788: a4 = u8 [a0 + 0x1a]\n 69791: a5 = u8 [a0 + 0x1b]\n 69794: a2 = a2 << 0x8\n 69797: a2 = a2 | a3\n 69800: a4 = a4 << 0x10\n 69803: a5 = a5 << 0x18\n 69806: a4 = a4 | a5\n 69809: a2 = a2 | a4\n 69812: a3 = u8 [a0 + 0x1d]\n 69815: a4 = u8 [a0 + 0x1c]\n 69818: a5 = u8 [a0 + 0x1e]\n 69821: s1 = u8 [a0 + 0x1f]\n 69824: a3 = a3 << 0x8\n 69827: a3 = a3 | a4\n 69830: a5 = a5 << 0x10\n 69833: s1 = s1 << 0x18\n 69836: a5 = a5 | s1\n 69839: a3 = a3 | a5\n 69842: a3 = a3 << 0x20\n 69845: a2 = a2 | a3\n 69848: a3 = u8 [a0 + 0xd]\n 69851: a4 = u8 [a0 + 0xc]\n 69854: a5 = u8 [a0 + 0xe]\n 69857: a0 = u8 [a0 + 0xf]\n 69860: a3 = a3 << 0x8\n 69863: a3 = a3 | a4\n 69866: a5 = a5 << 0x10\n 69869: a0 = a0 << 0x18\n 69872: a0 = a0 | a5\n 69875: a0 = a0 | a3\n 69878: a2 = reverse a2\n 69880: u64 [sp + 0x50] = a2\n 69883: a1 = reverse a1\n 69885: u64 [sp + 0x48] = a1\n 69888: s1 = reverse a0\n 69890: s1 = s1 >> 0x20\n 69893: u64 [sp + 0x40] = s1\n 69896: s1 = u64 [sp + 0x60]\n 69899: u64 [sp + 0xd8] = s1\n 69903: a0 = u64 [sp + 0x88]\n 69907: u64 [sp + 0xd0] = a0\n 69911: a0 = u64 [sp + 0x90]\n 69915: u64 [sp + 0xc8] = a0\n 69919: a0 = u64 [sp + 0x98]\n 69923: u64 [sp + 0xc0] = a0\n 69927: u64 [sp + 248] = 0\n 69931: u64 [sp + 240] = 0\n 69935: u64 [sp + 232] = 0\n 69939: u64 [sp + 224] = 0\n 69943: u32 [sp + 160] = 0x20\n 69948: i32 a1 = sp + 0xc0\n 69952: i32 a3 = sp + 0xe0\n 69956: i32 a4 = sp + 0xa0\n 69960: a2 = 0xffffffffffffffff\n 69963: a0 = 0\n 69965: ecalli 8 // 'get_storage'\n 69967: a0 = u32 [sp + 0xf4]\n 69971: a0 = a0 << 0x20\n 69974: a1 = u64 [sp + 0xf8]\n 69978: a2 = u64 [sp + 0x40]\n 69981: a0 = a0 | a2\n 69984: u64 [sp + 0xd8] = s1\n 69988: a2 = u64 [sp + 0x88]\n 69992: u64 [sp + 0xd0] = a2\n 69996: a2 = u64 [sp + 0x90]\n 70000: u64 [sp + 0xc8] = a2\n 70004: a2 = u64 [sp + 0x98]\n 70008: u64 [sp + 0xc0] = a2\n 70012: u64 [sp + 0xf8] = a1\n 70016: u64 [sp + 0xf0] = a0\n 70020: a0 = u64 [sp + 0x48]\n 70023: u64 [sp + 0xe8] = a0\n 70027: a0 = u64 [sp + 0x50]\n 70030: u64 [sp + 0xe0] = a0\n 70034: i32 a1 = sp + 0xc0\n 70038: i32 a3 = sp + 0xe0\n 70042: a2 = 0xffffffffffffffff\n 70045: a4 = 0x20\n 70048: a0 = 0\n 70050: ecalli 16 // 'set_storage'\n 70052: fallthrough\n      : @957 (gas: 13)\n 70053: a0 = u64 [sp + 0x78]\n 70056: a2 = u64 [sp + 0x58]\n 70059: a2 = a2 | a0\n 70062: a0 = 0x100000000\n 70072: u64 [sp + 0x40] = a0\n 70075: a0 = 0xffffffe0\n 70085: a1 = u64 [sp + 0x80]\n 70089: a0 = a1 <u a0\n 70092: a1 = u64 [sp + 0x70]\n 70095: a0 = 0 if a1 != 0\n 70097: u64 [sp + 0x58] = a2\n 70100: a0 = 0 if a2 != 0\n 70102: jump @969 if a0 == 0\n      : @958 (gas: 20)\n 70106: a0 = u64 [sp + 0x98]\n 70110: a2 = a0 + 0x1\n 70113: u64 [sp + 0x48] = a2\n 70116: a0 = a2 <u 0x1\n 70119: a1 = u64 [sp + 0x90]\n 70123: a0 = a0 + a1\n 70126: u64 [sp + 0x78] = a0\n 70129: a0 = a0 | a2\n 70132: a0 = a0 <u 0x1\n 70135: a1 = u64 [sp + 0x88]\n 70139: a0 = a0 + a1\n 70142: u64 [sp + 0x50] = a0\n 70145: a0 = a0 <u a1\n 70148: a1 = u64 [sp + 0x60]\n 70151: a0 = a0 + a1\n 70154: u64 [sp + 0x38] = a0\n 70157: a0 = u64 [sp + 0x68]\n 70160: i32 a0 = a0 + 0x20\n 70163: a1 = 0x20\n 70166: ra = 824, jump @0\n      : @959 [@dyn 412] (gas: 137)\n 70173: a1 = u8 [a0 + 0x1]\n 70176: a2 = u8 [a0]\n 70178: a3 = u8 [a0 + 0x2]\n 70181: a4 = u8 [a0 + 0x3]\n 70184: a1 = a1 << 0x8\n 70187: a1 = a1 | a2\n 70190: a3 = a3 << 0x10\n 70193: a4 = a4 << 0x18\n 70196: a3 = a3 | a4\n 70199: a1 = a1 | a3\n 70202: a2 = u8 [a0 + 0x5]\n 70205: a3 = u8 [a0 + 0x4]\n 70208: a4 = u8 [a0 + 0x6]\n 70211: a5 = u8 [a0 + 0x7]\n 70214: a2 = a2 << 0x8\n 70217: a2 = a2 | a3\n 70220: a4 = a4 << 0x10\n 70223: a5 = a5 << 0x18\n 70226: a4 = a4 | a5\n 70229: a2 = a2 | a4\n 70232: a2 = a2 << 0x20\n 70235: t0 = a2 | a1\n 70238: a2 = u8 [a0 + 0x9]\n 70241: a3 = u8 [a0 + 0x8]\n 70244: a4 = u8 [a0 + 0xa]\n 70247: a5 = u8 [a0 + 0xb]\n 70250: a2 = a2 << 0x8\n 70253: a2 = a2 | a3\n 70256: a4 = a4 << 0x10\n 70259: a5 = a5 << 0x18\n 70262: a4 = a4 | a5\n 70265: a2 = a2 | a4\n 70268: a3 = u8 [a0 + 0xd]\n 70271: a4 = u8 [a0 + 0xc]\n 70274: a5 = u8 [a0 + 0xe]\n 70277: s1 = u8 [a0 + 0xf]\n 70280: a3 = a3 << 0x8\n 70283: a3 = a3 | a4\n 70286: a5 = a5 << 0x10\n 70289: s1 = s1 << 0x18\n 70292: a5 = a5 | s1\n 70295: a3 = a3 | a5\n 70298: a3 = a3 << 0x20\n 70301: a2 = a2 | a3\n 70304: a3 = u8 [a0 + 0x11]\n 70307: a4 = u8 [a0 + 0x10]\n 70310: a5 = u8 [a0 + 0x12]\n 70313: s1 = u8 [a0 + 0x13]\n 70316: a3 = a3 << 0x8\n 70319: a3 = a3 | a4\n 70322: a5 = a5 << 0x10\n 70325: s1 = s1 << 0x18\n 70328: a5 = a5 | s1\n 70331: a3 = a3 | a5\n 70334: a4 = u8 [a0 + 0x15]\n 70337: a5 = u8 [a0 + 0x14]\n 70340: s1 = u8 [a0 + 0x16]\n 70343: a1 = u8 [a0 + 0x17]\n 70346: a4 = a4 << 0x8\n 70349: a4 = a4 | a5\n 70352: s1 = s1 << 0x10\n 70355: a1 = a1 << 0x18\n 70358: a1 = a1 | s1\n 70361: a1 = a1 | a4\n 70364: a1 = a1 << 0x20\n 70367: a3 = a3 | a1\n 70370: a1 = u8 [a0 + 0x19]\n 70373: a4 = u8 [a0 + 0x18]\n 70376: a5 = u8 [a0 + 0x1a]\n 70379: s1 = u8 [a0 + 0x1b]\n 70382: a1 = a1 << 0x8\n 70385: a1 = a1 | a4\n 70388: a5 = a5 << 0x10\n 70391: s1 = s1 << 0x18\n 70394: a5 = a5 | s1\n 70397: a1 = a1 | a5\n 70400: a4 = u8 [a0 + 0x1d]\n 70403: a5 = u8 [a0 + 0x1c]\n 70406: s1 = u8 [a0 + 0x1e]\n 70409: a0 = u8 [a0 + 0x1f]\n 70412: a4 = a4 << 0x8\n 70415: a4 = a4 | a5\n 70418: s1 = s1 << 0x10\n 70421: a0 = a0 << 0x18\n 70424: a0 = a0 | s1\n 70427: a0 = a0 | a4\n 70430: a0 = a0 << 0x20\n 70433: a0 = a0 | a1\n 70436: u32 [sp + 160] = 0x20\n 70441: a0 = reverse a0\n 70443: u64 [sp + 0x30] = a0\n 70446: a0 = reverse a3\n 70448: u64 [sp + 0x28] = a0\n 70451: a0 = reverse a2\n 70453: u64 [sp + 0x20] = a0\n 70456: a0 = reverse t0\n 70458: u64 [sp + 0x18] = a0\n 70461: a0 = u64 [sp + 0x50]\n 70464: u64 [sp + 0xd0] = a0\n 70468: a0 = u64 [sp + 0x78]\n 70471: u64 [sp + 0xc8] = a0\n 70475: a0 = u64 [sp + 0x48]\n 70478: u64 [sp + 0xc0] = a0\n 70482: s1 = u64 [sp + 0x38]\n 70485: u64 [sp + 0xd8] = s1\n 70489: u64 [sp + 248] = 0\n 70493: u64 [sp + 240] = 0\n 70497: u64 [sp + 232] = 0\n 70501: u64 [sp + 224] = 0\n 70505: i32 a1 = sp + 0xc0\n 70509: i32 a3 = sp + 0xe0\n 70513: i32 a4 = sp + 0xa0\n 70517: a2 = 0xffffffffffffffff\n 70520: a0 = 0\n 70522: ecalli 8 // 'get_storage'\n 70524: u64 [sp + 0xd8] = s1\n 70528: a0 = u64 [sp + 0x50]\n 70531: u64 [sp + 0xd0] = a0\n 70535: a0 = u64 [sp + 0x78]\n 70538: u64 [sp + 0xc8] = a0\n 70542: a0 = u64 [sp + 0x48]\n 70545: u64 [sp + 0xc0] = a0\n 70549: a0 = u64 [sp + 0x18]\n 70552: u64 [sp + 0xf8] = a0\n 70556: a0 = u64 [sp + 0x20]\n 70559: u64 [sp + 0xf0] = a0\n 70563: a0 = u64 [sp + 0x28]\n 70566: u64 [sp + 0xe8] = a0\n 70570: a0 = u64 [sp + 0x30]\n 70573: u64 [sp + 0xe0] = a0\n 70577: i32 a1 = sp + 0xc0\n 70581: i32 a3 = sp + 0xe0\n 70585: a2 = 0xffffffffffffffff\n 70588: a4 = 0x20\n 70591: a0 = 0\n 70593: ecalli 16 // 'set_storage'\n 70595: fallthrough\n      : @960 (gas: 9)\n 70596: a0 = u64 [sp + 0x40]\n 70599: a0 = a0 + 0xffffffffffffffc0\n 70602: a1 = u64 [sp + 0x80]\n 70606: a0 = a1 <u a0\n 70609: a1 = u64 [sp + 0x70]\n 70612: a0 = 0 if a1 != 0\n 70614: a1 = u64 [sp + 0x58]\n 70617: a0 = 0 if a1 != 0\n 70619: jump @969 if a0 == 0\n      : @961 (gas: 20)\n 70623: a0 = u64 [sp + 0x98]\n 70627: a1 = a0 + 0x2\n 70630: u64 [sp + 0x78] = a1\n 70633: a0 = a1 <u a0\n 70636: a1 = u64 [sp + 0x90]\n 70640: a2 = a1 + a0\n 70643: u64 [sp + 0x98] = a2\n 70647: a1 = a2 <u a1\n 70650: a1 = a0 if a0 == 0\n 70653: a0 = u64 [sp + 0x88]\n 70657: a1 = a1 + a0\n 70660: u64 [sp + 0x90] = a1\n 70664: a0 = a1 <u a0\n 70667: a1 = u64 [sp + 0x60]\n 70670: a0 = a0 + a1\n 70673: u64 [sp + 0x88] = a0\n 70677: a0 = u64 [sp + 0x68]\n 70680: i32 a0 = a0 + 0x40\n 70683: a1 = 0x20\n 70686: ra = 826, jump @0\n      : @962 [@dyn 413] (gas: 135)\n 70693: a1 = u8 [a0 + 0x11]\n 70696: a2 = u8 [a0 + 0x10]\n 70699: a3 = u8 [a0 + 0x12]\n 70702: a4 = u8 [a0 + 0x13]\n 70705: a1 = a1 << 0x8\n 70708: a1 = a1 | a2\n 70711: a3 = a3 << 0x10\n 70714: a4 = a4 << 0x18\n 70717: a3 = a3 | a4\n 70720: t0 = a3 | a1\n 70723: a2 = u8 [a0 + 0x1]\n 70726: a3 = u8 [a0]\n 70728: a4 = u8 [a0 + 0x2]\n 70731: a5 = u8 [a0 + 0x3]\n 70734: a2 = a2 << 0x8\n 70737: a2 = a2 | a3\n 70740: a4 = a4 << 0x10\n 70743: a5 = a5 << 0x18\n 70746: a4 = a4 | a5\n 70749: t1 = a4 | a2\n 70752: a3 = u8 [a0 + 0x15]\n 70755: a4 = u8 [a0 + 0x14]\n 70758: a5 = u8 [a0 + 0x16]\n 70761: s1 = u8 [a0 + 0x17]\n 70764: a3 = a3 << 0x8\n 70767: a3 = a3 | a4\n 70770: a5 = a5 << 0x10\n 70773: s1 = s1 << 0x18\n 70776: a5 = a5 | s1\n 70779: t2 = a5 | a3\n 70782: a4 = u8 [a0 + 0x5]\n 70785: a5 = u8 [a0 + 0x4]\n 70788: s1 = u8 [a0 + 0x6]\n 70791: a1 = u8 [a0 + 0x7]\n 70794: a4 = a4 << 0x8\n 70797: a4 = a4 | a5\n 70800: s1 = s1 << 0x10\n 70803: a1 = a1 << 0x18\n 70806: a1 = a1 | s1\n 70809: ra = a1 | a4\n 70812: a1 = u8 [a0 + 0x19]\n 70815: a5 = u8 [a0 + 0x18]\n 70818: s1 = u8 [a0 + 0x1a]\n 70821: a2 = u8 [a0 + 0x1b]\n 70824: a1 = a1 << 0x8\n 70827: a1 = a1 | a5\n 70830: s1 = s1 << 0x10\n 70833: a2 = a2 << 0x18\n 70836: a2 = a2 | s1\n 70839: a5 = a2 | a1\n 70842: a1 = u8 [a0 + 0x9]\n 70845: a2 = u8 [a0 + 0x8]\n 70848: s1 = u8 [a0 + 0xa]\n 70851: a3 = u8 [a0 + 0xb]\n 70854: a1 = a1 << 0x8\n 70857: a1 = a1 | a2\n 70860: s1 = s1 << 0x10\n 70863: a3 = a3 << 0x18\n 70866: a3 = a3 | s1\n 70869: s1 = a3 | a1\n 70872: a1 = u8 [a0 + 0x1d]\n 70875: a2 = u8 [a0 + 0x1c]\n 70878: a3 = u8 [a0 + 0x1e]\n 70881: a4 = u8 [a0 + 0x1f]\n 70884: a1 = a1 << 0x8\n 70887: a1 = a1 | a2\n 70890: a3 = a3 << 0x10\n 70893: a4 = a4 << 0x18\n 70896: a3 = a3 | a4\n 70899: a1 = a1 | a3\n 70902: a2 = u8 [a0 + 0xd]\n 70905: a3 = u8 [a0 + 0xc]\n 70908: a4 = u8 [a0 + 0xe]\n 70911: a0 = u8 [a0 + 0xf]\n 70914: a2 = a2 << 0x8\n 70917: a2 = a2 | a3\n 70920: a4 = a4 << 0x10\n 70923: a0 = a0 << 0x18\n 70926: a0 = a0 | a4\n 70929: a0 = a0 | a2\n 70932: a0 = a0 | a1\n 70935: a5 = a5 | s1\n 70938: a0 = a0 << 0x20\n 70941: a0 = a0 | a5\n 70944: a1 = ra | t2\n 70947: a2 = t1 | t0\n 70950: a1 = a1 << 0x20\n 70953: a1 = a1 | a2\n 70956: a0 = a0 | a1\n 70959: a0 = a0 >u 0\n 70961: u64 [sp + 0x60] = a0\n 70964: a0 = u64 [sp + 0x88]\n 70968: u64 [sp + 0xd8] = a0\n 70972: a0 = u64 [sp + 0x90]\n 70976: u64 [sp + 0xd0] = a0\n 70980: a0 = u64 [sp + 0x98]\n 70984: u64 [sp + 0xc8] = a0\n 70988: s1 = u64 [sp + 0x78]\n 70991: u64 [sp + 0xc0] = s1\n 70995: u64 [sp + 248] = 0\n 70999: u64 [sp + 240] = 0\n 71003: u64 [sp + 232] = 0\n 71007: u64 [sp + 224] = 0\n 71011: u32 [sp + 160] = 0x20\n 71016: i32 a1 = sp + 0xc0\n 71020: i32 a3 = sp + 0xe0\n 71024: i32 a4 = sp + 0xa0\n 71028: a2 = 0xffffffffffffffff\n 71031: a0 = 0\n 71033: ecalli 8 // 'get_storage'\n 71035: a0 = u64 [sp + 0xe0]\n 71039: a1 = u64 [sp + 0xe8]\n 71043: a2 = u64 [sp + 0xf0]\n 71047: a3 = u64 [sp + 0xf8]\n 71051: a0 = a0 & 0xffffffffffffff00\n 71055: a4 = u64 [sp + 0x60]\n 71058: a0 = a0 | a4\n 71061: a4 = u64 [sp + 0x88]\n 71065: u64 [sp + 0xd8] = a4\n 71069: a4 = u64 [sp + 0x90]\n 71073: u64 [sp + 0xd0] = a4\n 71077: a4 = u64 [sp + 0x98]\n 71081: u64 [sp + 0xc8] = a4\n 71085: u64 [sp + 0xc0] = s1\n 71089: u64 [sp + 0xf8] = a3\n 71093: u64 [sp + 0xf0] = a2\n 71097: u64 [sp + 0xe8] = a1\n 71101: u64 [sp + 0xe0] = a0\n 71105: i32 a1 = sp + 0xc0\n 71109: i32 a3 = sp + 0xe0\n 71113: a2 = 0xffffffffffffffff\n 71116: a4 = 0x20\n 71119: a0 = 0\n 71121: ecalli 16 // 'set_storage'\n 71123: fallthrough\n      : @963 (gas: 10)\n 71124: a0 = 0x100000000\n 71134: u64 [sp + 0x60] = a0\n 71137: a0 = 0xffffffa0\n 71147: a1 = u64 [sp + 0x80]\n 71151: a0 = a1 <u a0\n 71154: a1 = u64 [sp + 0x70]\n 71157: a0 = 0 if a1 != 0\n 71159: a1 = u64 [sp + 0x58]\n 71162: a0 = 0 if a1 != 0\n 71164: jump @969 if a0 == 0\n      : @964 (gas: 4)\n 71168: a0 = u64 [sp + 0x68]\n 71171: i32 a0 = a0 + 0x60\n 71174: a1 = 0x20\n 71177: ra = 828, jump @0\n      : @965 [@dyn 414] (gas: 135)\n 71184: a1 = u8 [a0 + 0x1d]\n 71187: a2 = u8 [a0 + 0x1c]\n 71190: a3 = u8 [a0 + 0x1e]\n 71193: a4 = u8 [a0 + 0x1f]\n 71196: a1 = a1 << 0x8\n 71199: a1 = a1 | a2\n 71202: a3 = a3 << 0x10\n 71205: a4 = a4 << 0x18\n 71208: a3 = a3 | a4\n 71211: a1 = a1 | a3\n 71214: a2 = u8 [a0 + 0xd]\n 71217: a3 = u8 [a0 + 0xc]\n 71220: a4 = u8 [a0 + 0xe]\n 71223: a5 = u8 [a0 + 0xf]\n 71226: a2 = a2 << 0x8\n 71229: a2 = a2 | a3\n 71232: a4 = a4 << 0x10\n 71235: a5 = a5 << 0x18\n 71238: a4 = a4 | a5\n 71241: a2 = a2 | a4\n 71244: a1 = a1 | a2\n 71247: a1 = a1 << 0x20\n 71250: a2 = u8 [a0 + 0x9]\n 71253: a3 = u8 [a0 + 0x8]\n 71256: a4 = u8 [a0 + 0xa]\n 71259: a5 = u8 [a0 + 0xb]\n 71262: a2 = a2 << 0x8\n 71265: a2 = a2 | a3\n 71268: a4 = a4 << 0x10\n 71271: a5 = a5 << 0x18\n 71274: a4 = a4 | a5\n 71277: a2 = a2 | a4\n 71280: a3 = u8 [a0 + 0x19]\n 71283: a4 = u8 [a0 + 0x18]\n 71286: a5 = u8 [a0 + 0x1a]\n 71289: s1 = u8 [a0 + 0x1b]\n 71292: a3 = a3 << 0x8\n 71295: a3 = a3 | a4\n 71298: a5 = a5 << 0x10\n 71301: s1 = s1 << 0x18\n 71304: a5 = a5 | s1\n 71307: a3 = a3 | a5\n 71310: a2 = a2 | a3\n 71313: a1 = a1 | a2\n 71316: a2 = u8 [a0 + 0x15]\n 71319: a3 = u8 [a0 + 0x14]\n 71322: a4 = u8 [a0 + 0x16]\n 71325: a5 = u8 [a0 + 0x17]\n 71328: a2 = a2 << 0x8\n 71331: a2 = a2 | a3\n 71334: a4 = a4 << 0x10\n 71337: a5 = a5 << 0x18\n 71340: a4 = a4 | a5\n 71343: a2 = a2 | a4\n 71346: a3 = u8 [a0 + 0x5]\n 71349: a4 = u8 [a0 + 0x4]\n 71352: a5 = u8 [a0 + 0x6]\n 71355: s1 = u8 [a0 + 0x7]\n 71358: a3 = a3 << 0x8\n 71361: a3 = a3 | a4\n 71364: a5 = a5 << 0x10\n 71367: s1 = s1 << 0x18\n 71370: a5 = a5 | s1\n 71373: a3 = a3 | a5\n 71376: a2 = a2 | a3\n 71379: a3 = u8 [a0 + 0x1]\n 71382: a4 = u8 [a0]\n 71384: a5 = u8 [a0 + 0x2]\n 71387: s1 = u8 [a0 + 0x3]\n 71390: a3 = a3 << 0x8\n 71393: a3 = a3 | a4\n 71396: a5 = a5 << 0x10\n 71399: s1 = s1 << 0x18\n 71402: a4 = u8 [a0 + 0x11]\n 71405: a5 = a5 | s1\n 71408: a3 = a3 | a5\n 71411: a5 = u8 [a0 + 0x10]\n 71414: a4 = a4 << 0x8\n 71417: s1 = u8 [a0 + 0x12]\n 71420: a0 = u8 [a0 + 0x13]\n 71423: a4 = a4 | a5\n 71426: a2 = a2 << 0x20\n 71429: s1 = s1 << 0x10\n 71432: a0 = a0 << 0x18\n 71435: a0 = a0 | s1\n 71438: a0 = a0 | a4\n 71441: a0 = a0 | a3\n 71444: a0 = a0 | a2\n 71447: a0 = a0 | a1\n 71450: s1 = a0 >u 0\n 71452: a0 = u64 [sp + 0x88]\n 71456: u64 [sp + 0xd8] = a0\n 71460: a0 = u64 [sp + 0x90]\n 71464: u64 [sp + 0xd0] = a0\n 71468: a0 = u64 [sp + 0x98]\n 71472: u64 [sp + 0xc8] = a0\n 71476: a0 = u64 [sp + 0x78]\n 71479: u64 [sp + 0xc0] = a0\n 71483: u64 [sp + 248] = 0\n 71487: u64 [sp + 240] = 0\n 71491: u64 [sp + 232] = 0\n 71495: u64 [sp + 224] = 0\n 71499: u32 [sp + 160] = 0x20\n 71504: i32 a1 = sp + 0xc0\n 71508: i32 a3 = sp + 0xe0\n 71512: i32 a4 = sp + 0xa0\n 71516: a2 = 0xffffffffffffffff\n 71519: a0 = 0\n 71521: ecalli 8 // 'get_storage'\n 71523: a0 = u64 [sp + 0xe8]\n 71527: a1 = u64 [sp + 0xf0]\n 71531: a2 = u64 [sp + 0xf8]\n 71535: a3 = u64 [sp + 0xe0]\n 71539: s1 = s1 << 0x8\n 71542: a3 = a3 & 0xffffffffffff00ff\n 71547: a3 = a3 | s1\n 71550: a4 = u64 [sp + 0x88]\n 71554: u64 [sp + 0xd8] = a4\n 71558: a4 = u64 [sp + 0x90]\n 71562: u64 [sp + 0xd0] = a4\n 71566: a4 = u64 [sp + 0x98]\n 71570: u64 [sp + 0xc8] = a4\n 71574: a4 = u64 [sp + 0x78]\n 71577: u64 [sp + 0xc0] = a4\n 71581: u64 [sp + 0xf8] = a2\n 71585: u64 [sp + 0xf0] = a1\n 71589: u64 [sp + 0xe8] = a0\n 71593: u64 [sp + 0xe0] = a3\n 71597: i32 a1 = sp + 0xc0\n 71601: i32 a3 = sp + 0xe0\n 71605: a2 = 0xffffffffffffffff\n 71608: a4 = 0x20\n 71611: a0 = 0\n 71613: ecalli 16 // 'set_storage'\n 71615: fallthrough\n      : @966 (gas: 9)\n 71616: a0 = u64 [sp + 0x60]\n 71619: a0 = a0 + 0xffffffffffffff80\n 71622: a1 = u64 [sp + 0x80]\n 71626: a0 = a1 <u a0\n 71629: a1 = u64 [sp + 0x70]\n 71632: a0 = 0 if a1 != 0\n 71634: a1 = u64 [sp + 0x58]\n 71637: a0 = 0 if a1 != 0\n 71639: jump @969 if a0 == 0\n      : @967 (gas: 4)\n 71643: a0 = u64 [sp + 0x68]\n 71646: i32 a0 = a0 + 0x80\n 71650: a1 = 0x20\n 71653: ra = 830, jump @0\n      : @968 [@dyn 415] (gas: 140)\n 71660: a1 = u8 [a0 + 0x1d]\n 71663: a2 = u8 [a0 + 0x1c]\n 71666: a3 = u8 [a0 + 0x1e]\n 71669: a4 = u8 [a0 + 0x1f]\n 71672: a1 = a1 << 0x8\n 71675: a1 = a1 | a2\n 71678: a3 = a3 << 0x10\n 71681: a4 = a4 << 0x18\n 71684: a3 = a3 | a4\n 71687: a1 = a1 | a3\n 71690: a2 = u8 [a0 + 0xd]\n 71693: a3 = u8 [a0 + 0xc]\n 71696: a4 = u8 [a0 + 0xe]\n 71699: a5 = u8 [a0 + 0xf]\n 71702: a2 = a2 << 0x8\n 71705: a2 = a2 | a3\n 71708: a4 = a4 << 0x10\n 71711: a5 = a5 << 0x18\n 71714: a4 = a4 | a5\n 71717: a2 = a2 | a4\n 71720: a1 = a1 | a2\n 71723: a1 = a1 << 0x20\n 71726: a2 = u8 [a0 + 0x9]\n 71729: a3 = u8 [a0 + 0x8]\n 71732: a4 = u8 [a0 + 0xa]\n 71735: a5 = u8 [a0 + 0xb]\n 71738: a2 = a2 << 0x8\n 71741: a2 = a2 | a3\n 71744: a4 = a4 << 0x10\n 71747: a5 = a5 << 0x18\n 71750: a4 = a4 | a5\n 71753: a2 = a2 | a4\n 71756: a3 = u8 [a0 + 0x19]\n 71759: a4 = u8 [a0 + 0x18]\n 71762: a5 = u8 [a0 + 0x1a]\n 71765: s1 = u8 [a0 + 0x1b]\n 71768: a3 = a3 << 0x8\n 71771: a3 = a3 | a4\n 71774: a5 = a5 << 0x10\n 71777: s1 = s1 << 0x18\n 71780: a5 = a5 | s1\n 71783: a3 = a3 | a5\n 71786: a2 = a2 | a3\n 71789: a1 = a1 | a2\n 71792: a2 = u8 [a0 + 0x15]\n 71795: a3 = u8 [a0 + 0x14]\n 71798: a4 = u8 [a0 + 0x16]\n 71801: a5 = u8 [a0 + 0x17]\n 71804: a2 = a2 << 0x8\n 71807: a2 = a2 | a3\n 71810: a4 = a4 << 0x10\n 71813: a5 = a5 << 0x18\n 71816: a4 = a4 | a5\n 71819: a2 = a2 | a4\n 71822: a3 = u8 [a0 + 0x5]\n 71825: a4 = u8 [a0 + 0x4]\n 71828: a5 = u8 [a0 + 0x6]\n 71831: s1 = u8 [a0 + 0x7]\n 71834: a3 = a3 << 0x8\n 71837: a3 = a3 | a4\n 71840: a5 = a5 << 0x10\n 71843: s1 = s1 << 0x18\n 71846: a5 = a5 | s1\n 71849: a3 = a3 | a5\n 71852: a2 = a2 | a3\n 71855: a3 = u8 [a0 + 0x1]\n 71858: a4 = u8 [a0]\n 71860: a5 = u8 [a0 + 0x2]\n 71863: s1 = u8 [a0 + 0x3]\n 71866: a3 = a3 << 0x8\n 71869: a3 = a3 | a4\n 71872: a5 = a5 << 0x10\n 71875: s1 = s1 << 0x18\n 71878: a4 = u8 [a0 + 0x11]\n 71881: a5 = a5 | s1\n 71884: a3 = a3 | a5\n 71887: a5 = u8 [a0 + 0x10]\n 71890: a4 = a4 << 0x8\n 71893: s1 = u8 [a0 + 0x12]\n 71896: a0 = u8 [a0 + 0x13]\n 71899: a4 = a4 | a5\n 71902: a2 = a2 << 0x20\n 71905: s1 = s1 << 0x10\n 71908: a0 = a0 << 0x18\n 71911: a0 = a0 | s1\n 71914: a0 = a0 | a4\n 71917: a0 = a0 | a3\n 71920: a0 = a0 | a2\n 71923: a0 = a0 | a1\n 71926: s1 = a0 >u 0\n 71928: a0 = u64 [sp + 0x88]\n 71932: u64 [sp + 0xd8] = a0\n 71936: a0 = u64 [sp + 0x90]\n 71940: u64 [sp + 0xd0] = a0\n 71944: a0 = u64 [sp + 0x98]\n 71948: u64 [sp + 0xc8] = a0\n 71952: a0 = u64 [sp + 0x78]\n 71955: u64 [sp + 0xc0] = a0\n 71959: u64 [sp + 248] = 0\n 71963: u64 [sp + 240] = 0\n 71967: u64 [sp + 232] = 0\n 71971: u64 [sp + 224] = 0\n 71975: u32 [sp + 160] = 0x20\n 71980: i32 a1 = sp + 0xc0\n 71984: i32 a3 = sp + 0xe0\n 71988: i32 a4 = sp + 0xa0\n 71992: a2 = 0xffffffffffffffff\n 71995: a0 = 0\n 71997: ecalli 8 // 'get_storage'\n 71999: a0 = u64 [sp + 0xe8]\n 72003: a1 = u64 [sp + 0xf0]\n 72007: a2 = u64 [sp + 0xf8]\n 72011: a3 = u64 [sp + 0xe0]\n 72015: s1 = s1 << 0x10\n 72018: a3 = a3 & 0xffffffffff00ffff\n 72024: a3 = a3 | s1\n 72027: a4 = u64 [sp + 0x88]\n 72031: u64 [sp + 0xd8] = a4\n 72035: a4 = u64 [sp + 0x90]\n 72039: u64 [sp + 0xd0] = a4\n 72043: a4 = u64 [sp + 0x98]\n 72047: u64 [sp + 0xc8] = a4\n 72051: a4 = u64 [sp + 0x78]\n 72054: u64 [sp + 0xc0] = a4\n 72058: u64 [sp + 0xf8] = a2\n 72062: u64 [sp + 0xf0] = a1\n 72066: u64 [sp + 0xe8] = a0\n 72070: u64 [sp + 0xe0] = a3\n 72074: i32 a1 = sp + 0xc0\n 72078: i32 a3 = sp + 0xe0\n 72082: a2 = 0xffffffffffffffff\n 72085: a4 = 0x20\n 72088: a0 = 0\n 72090: ecalli 16 // 'set_storage'\n 72092: sp = s0 + 0xfffffffffffffee0\n 72096: ra = u64 [sp + 0x118]\n 72100: s0 = u64 [sp + 0x110]\n 72104: s1 = u64 [sp + 0x108]\n 72108: sp = sp + 0x120\n 72112: ret\n      : @969 (gas: 1)\n 72114: trap\n      : @970 (gas: 7)\n 72115: a1 = 0x20070\n 72120: t0 = u64 [s1 + 0x1b8]\n 72124: a4 = u64 [s1 + 0x1b0]\n 72128: t1 = u64 [s1 + 0x1a8]\n 72132: a0 = i32 [0x20070]\n 72137: a5 = u64 [s1 + 0x1a0]\n 72141: jump @973 if a0 == 0\n      : @971 (gas: 11)\n 72144: u64 [s1 + 0x78] = a0\n 72147: a0 = 0x30080\n 72152: i32 a0 = a0 + 0\n 72154: u64 [s1 + 0x70] = a1\n 72157: i32 a1 = a1 + 0\n 72159: u64 [s1 + 0x98] = t0\n 72163: u64 [s1 + 0x90] = t1\n 72167: u64 [s1 + 0x88] = a4\n 72171: u64 [s1 + 0x80] = a5\n 72175: ecalli 7 // 'get_immutable_data'\n 72177: fallthrough\n      : @972 (gas: 9)\n 72178: a5 = u64 [s1 + 0x80]\n 72182: a4 = u64 [s1 + 0x88]\n 72186: t1 = u64 [s1 + 0x90]\n 72190: t0 = u64 [s1 + 0x98]\n 72194: a1 = u64 [s1 + 0x70]\n 72197: a0 = i32 [a1]\n 72199: u32 [a1 + 0] = 0\n 72201: a1 = u64 [s1 + 0x78]\n 72204: jump @1001 if a0 <u a1\n      : @973 (gas: 12)\n 72208: a1 = u64 [0x300e0]\n 72213: a2 = u64 [0x300f0]\n 72218: a3 = u64 [0x300f8]\n 72223: a0 = u64 [0x300e8]\n 72228: a1 = a1 ^ a5\n 72231: a2 = a2 ^ a4\n 72234: a1 = a1 | a2\n 72237: a0 = t1 ^ a0\n 72240: a2 = t0 ^ a3\n 72243: a0 = a0 | a2\n 72246: a0 = a0 | a1\n 72249: jump @996 if a0 != 0\n      : @974 (gas: 16)\n 72253: u64 [s1 + 568] = 0\n 72257: u64 [s1 + 560] = 0\n 72261: u64 [s1 + 552] = 0\n 72265: u64 [s1 + 544] = 0x3\n 72270: u64 [s1 + 600] = 0\n 72274: u64 [s1 + 592] = 0\n 72278: u64 [s1 + 584] = 0\n 72282: u64 [s1 + 576] = 0\n 72286: u32 [s1 + 512] = 0x20\n 72291: i32 a1 = s1 + 0x220\n 72295: i32 a3 = s1 + 0x240\n 72299: i32 a4 = s1 + 0x200\n 72303: a2 = 0xffffffffffffffff\n 72306: a0 = 0\n 72308: ecalli 8 // 'get_storage'\n 72310: fallthrough\n      : @975 (gas: 24)\n 72311: a0 = u64 [s1 + 0x240]\n 72315: a2 = u64 [s1 + 0x258]\n 72319: a1 = u64 [s1 + 0x248]\n 72323: a3 = u64 [s1 + 0x250]\n 72327: u64 [s1 + 0x68] = a0\n 72330: a4 = a0 + 0x1\n 72333: a0 = a4 <u 0x1\n 72336: u64 [s1 + 0x60] = a1\n 72339: a1 = a1 + a0\n 72342: a0 = a4 | a1\n 72345: a0 = a0 <u 0x1\n 72348: a5 = a3 + a0\n 72351: u64 [s1 + 0x50] = a3\n 72354: a0 = a5 <u a3\n 72357: u64 [s1 + 0x58] = a2\n 72360: a0 = a0 + a2\n 72363: u64 [s1 + 0x90] = a1\n 72367: u64 [s1 + 0x80] = a0\n 72371: a0 = a0 | a1\n 72374: u64 [s1 + 0x98] = a4\n 72378: u64 [s1 + 0x88] = a5\n 72382: a1 = a4 | a5\n 72385: a0 = a0 | a1\n 72388: jump @1002 if a0 == 0\n      : @976 (gas: 67)\n 72392: u64 [s1 + 568] = 0\n 72396: u64 [s1 + 560] = 0\n 72400: u64 [s1 + 552] = 0\n 72404: u64 [s1 + 544] = 0x3\n 72409: u64 [s1 + 600] = 0\n 72413: u64 [s1 + 592] = 0\n 72417: u64 [s1 + 584] = 0\n 72421: u64 [s1 + 576] = 0\n 72425: u32 [s1 + 512] = 0x20\n 72430: i32 a1 = s1 + 0x220\n 72434: i32 a3 = s1 + 0x240\n 72438: i32 a4 = s1 + 0x200\n 72442: a2 = 0xffffffffffffffff\n 72445: a0 = 0\n 72447: ecalli 8 // 'get_storage'\n 72449: u64 [s1 + 568] = 0\n 72453: u64 [s1 + 560] = 0\n 72457: u64 [s1 + 552] = 0\n 72461: u64 [s1 + 544] = 0x3\n 72466: a0 = u64 [s1 + 0x80]\n 72470: u64 [s1 + 0x258] = a0\n 72474: a0 = u64 [s1 + 0x88]\n 72478: u64 [s1 + 0x250] = a0\n 72482: a0 = u64 [s1 + 0x90]\n 72486: u64 [s1 + 0x248] = a0\n 72490: a0 = u64 [s1 + 0x98]\n 72494: u64 [s1 + 0x240] = a0\n 72498: i32 a1 = s1 + 0x220\n 72502: i32 a3 = s1 + 0x240\n 72506: a2 = 0xffffffffffffffff\n 72509: a4 = 0x20\n 72512: a0 = 0\n 72514: ecalli 16 // 'set_storage'\n 72516: i32 a0 = s1 + 0x1c0\n 72520: ecalli 5 // 'caller'\n 72522: a0 = u32 [s1 + 0x1d0]\n 72526: u64 [s1 + 0x88] = a0\n 72530: a0 = u64 [s1 + 0x1c8]\n 72534: u64 [s1 + 0x48] = a0\n 72537: a0 = u64 [s1 + 0x1c0]\n 72541: u64 [s1 + 0x80] = a0\n 72545: a0 = sp + 0xffffffffffffffe0\n 72548: a0 = a0 & 0xffffffffffffffe0\n 72551: u64 [s1 + 0x98] = a0\n 72555: sp = a0\n 72557: u64 [a0 + 24] = 0\n 72560: u64 [a0 + 16] = 0\n 72563: u64 [a0 + 8] = 0\n 72566: u64 [a0 + 0] = 0\n 72568: i32 a0 = a0 + 0\n 72570: ecalli 17 // 'value_transferred'\n 72572: a1 = u64 [s1 + 0x98]\n 72576: a0 = u64 [a1 + 0x18]\n 72579: u64 [s1 + 0x28] = a0\n 72582: a0 = u64 [a1 + 0x10]\n 72585: u64 [s1 + 0x30] = a0\n 72588: a0 = u64 [a1 + 0x8]\n 72591: u64 [s1 + 0x38] = a0\n 72594: a0 = u64 [a1]\n 72596: u64 [s1 + 0x40] = a0\n 72599: u64 [s1 + 312] = 0\n 72603: u64 [s1 + 304] = 0\n 72607: u64 [s1 + 288] = 0xa0\n 72613: a0 = s1 + 0x140\n 72617: a1 = s1 + 0x120\n 72621: u64 [s1 + 296] = 0\n 72625: ra = 832, jump @113\n      : @977 [@dyn 416] (gas: 16)\n 72632: a2 = u64 [s1 + 0x158]\n 72636: a3 = u64 [s1 + 0x150]\n 72640: a0 = u64 [s1 + 0x148]\n 72644: a1 = u64 [s1 + 0x140]\n 72648: u64 [s1 + 0x90] = a0\n 72652: u64 [s1 + 0x70] = a2\n 72655: a0 = a0 | a2\n 72658: u64 [s1 + 0x98] = a1\n 72662: a1 = a1 | a3\n 72665: a1 = a1 | a0\n 72668: a1 = a1 >> 0x20\n 72671: u64 [s1 + 0x78] = a3\n 72674: a0 = a0 | a3\n 72677: a0 = a0 << 0x20\n 72680: a0 = a0 | a1\n 72683: jump @1001 if a0 != 0\n      : @978 (gas: 18)\n 72687: a0 = u64 [s1 + 0x80]\n 72691: a0 = reverse a0\n 72693: a0 = a0 << 0x20\n 72696: a1 = u64 [s1 + 0x48]\n 72699: a1 = reverse a1\n 72701: a2 = a1 >> 0x20\n 72704: a0 = a0 | a2\n 72707: u64 [s1 + 0x48] = a0\n 72710: a1 = a1 << 0x20\n 72713: a0 = u64 [s1 + 0x88]\n 72717: a0 = reverse a0\n 72719: a0 = a0 >> 0x20\n 72722: a0 = a0 | a1\n 72725: u64 [s1 + 0x20] = a0\n 72728: a0 = i32 [s1 + 0x98]\n 72732: a1 = 0x20\n 72735: u64 [s1 + 0x88] = a0\n 72739: ra = 834, jump @0\n      : @979 [@dyn 417] (gas: 67)\n 72746: a1 = u64 [s1 + 0x20]\n 72749: a1 = reverse a1\n 72751: a2 = u64 [s1 + 0x48]\n 72754: a2 = reverse a2\n 72756: a4 = u64 [s1 + 0x80]\n 72760: a3 = a4 >> 0x18\n 72763: u8 [a0 + 0xf] = a3\n 72766: a3 = a4 >> 0x10\n 72769: u8 [a0 + 0xe] = a3\n 72772: a3 = a4 >> 0x8\n 72775: u8 [a0 + 0xd] = a3\n 72778: u8 [a0 + 0xc] = a4\n 72781: u8 [a0 + 11] = 0\n 72784: u8 [a0 + 10] = 0\n 72787: u8 [a0 + 9] = 0\n 72790: u8 [a0 + 8] = 0\n 72793: u8 [a0 + 7] = 0\n 72796: u8 [a0 + 6] = 0\n 72799: u8 [a0 + 5] = 0\n 72802: u8 [a0 + 4] = 0\n 72805: u8 [a0 + 3] = 0\n 72808: u8 [a0 + 2] = 0\n 72811: u8 [a0 + 1] = 0\n 72814: u8 [a0 + 0] = 0\n 72816: u8 [a0 + 0x10] = a2\n 72819: u8 [a0 + 0x18] = a1\n 72822: a3 = a2 >> 0x38\n 72825: u8 [a0 + 0x17] = a3\n 72828: a3 = a2 >> 0x30\n 72831: u8 [a0 + 0x16] = a3\n 72834: a3 = a2 >> 0x28\n 72837: u8 [a0 + 0x15] = a3\n 72840: a3 = a2 >> 0x20\n 72843: u8 [a0 + 0x14] = a3\n 72846: a3 = a2 >> 0x18\n 72849: u8 [a0 + 0x13] = a3\n 72852: a3 = a2 >> 0x10\n 72855: u8 [a0 + 0x12] = a3\n 72858: a2 = a2 >> 0x8\n 72861: u8 [a0 + 0x11] = a2\n 72864: a2 = a1 >> 0x38\n 72867: u8 [a0 + 0x1f] = a2\n 72870: a2 = a1 >> 0x30\n 72873: u8 [a0 + 0x1e] = a2\n 72876: a2 = a1 >> 0x28\n 72879: u8 [a0 + 0x1d] = a2\n 72882: a2 = a1 >> 0x20\n 72885: u8 [a0 + 0x1c] = a2\n 72888: a2 = a1 >> 0x18\n 72891: u8 [a0 + 0x1b] = a2\n 72894: a2 = a1 >> 0x10\n 72897: u8 [a0 + 0x1a] = a2\n 72900: a1 = a1 >> 0x8\n 72903: a2 = u64 [s1 + 0x70]\n 72906: a4 = u64 [s1 + 0x78]\n 72909: a4 = a4 | a2\n 72912: a2 = 0x100000000\n 72922: u64 [s1 + 0x48] = a2\n 72925: a2 = 0xffffffe0\n 72935: a3 = u64 [s1 + 0x98]\n 72939: a2 = a3 <u a2\n 72942: a3 = u64 [s1 + 0x90]\n 72946: a2 = 0 if a3 != 0\n 72948: u64 [s1 + 0x80] = a4\n 72952: a2 = 0 if a4 != 0\n 72954: u8 [a0 + 0x19] = a1\n 72957: jump @1001 if a2 == 0\n      : @980 (gas: 4)\n 72961: a0 = u64 [s1 + 0x88]\n 72965: i32 a0 = a0 + 0x20\n 72968: a1 = 0x20\n 72971: ra = 836, jump @0\n      : @981 [@dyn 418] (gas: 77)\n 72978: a1 = u64 [s1 + 0x28]\n 72981: a1 = reverse a1\n 72983: a2 = u64 [s1 + 0x30]\n 72986: a2 = reverse a2\n 72988: a3 = u64 [s1 + 0x38]\n 72991: a3 = reverse a3\n 72993: a4 = u64 [s1 + 0x40]\n 72996: a4 = reverse a4\n 72998: a5 = a4 >> 0x38\n 73001: u8 [a0 + 0x1f] = a5\n 73004: a5 = a4 >> 0x30\n 73007: u8 [a0 + 0x1e] = a5\n 73010: a5 = a4 >> 0x28\n 73013: u8 [a0 + 0x1d] = a5\n 73016: a5 = a4 >> 0x20\n 73019: u8 [a0 + 0x1c] = a5\n 73022: a5 = a4 >> 0x18\n 73025: u8 [a0 + 0x1b] = a5\n 73028: a5 = a4 >> 0x10\n 73031: u8 [a0 + 0x1a] = a5\n 73034: a5 = a4 >> 0x8\n 73037: u8 [a0 + 0x19] = a5\n 73040: u8 [a0 + 0x18] = a4\n 73043: u8 [a0 + 0x10] = a3\n 73046: a4 = a3 >> 0x38\n 73049: u8 [a0 + 0x17] = a4\n 73052: a4 = a3 >> 0x30\n 73055: u8 [a0 + 0x16] = a4\n 73058: a4 = a3 >> 0x28\n 73061: u8 [a0 + 0x15] = a4\n 73064: a4 = a3 >> 0x20\n 73067: u8 [a0 + 0x14] = a4\n 73070: a4 = a3 >> 0x18\n 73073: u8 [a0 + 0x13] = a4\n 73076: a4 = a3 >> 0x10\n 73079: u8 [a0 + 0x12] = a4\n 73082: a3 = a3 >> 0x8\n 73085: u8 [a0 + 0x11] = a3\n 73088: u8 [a0 + 0x8] = a2\n 73091: a3 = a2 >> 0x38\n 73094: u8 [a0 + 0xf] = a3\n 73097: a3 = a2 >> 0x30\n 73100: u8 [a0 + 0xe] = a3\n 73103: a3 = a2 >> 0x28\n 73106: u8 [a0 + 0xd] = a3\n 73109: a3 = a2 >> 0x20\n 73112: u8 [a0 + 0xc] = a3\n 73115: a3 = a2 >> 0x18\n 73118: u8 [a0 + 0xb] = a3\n 73121: a3 = a2 >> 0x10\n 73124: u8 [a0 + 0xa] = a3\n 73127: a2 = a2 >> 0x8\n 73130: u8 [a0 + 0x9] = a2\n 73133: u8 [a0] = a1\n 73135: a2 = a1 >> 0x38\n 73138: u8 [a0 + 0x7] = a2\n 73141: a2 = a1 >> 0x30\n 73144: u8 [a0 + 0x6] = a2\n 73147: a2 = a1 >> 0x28\n 73150: u8 [a0 + 0x5] = a2\n 73153: a2 = a1 >> 0x20\n 73156: u8 [a0 + 0x4] = a2\n 73159: a2 = a1 >> 0x18\n 73162: u8 [a0 + 0x3] = a2\n 73165: a2 = a1 >> 0x10\n 73168: u8 [a0 + 0x2] = a2\n 73171: a1 = a1 >> 0x8\n 73174: a2 = u64 [s1 + 0x48]\n 73177: a2 = a2 + 0xffffffffffffffc0\n 73180: a3 = u64 [s1 + 0x98]\n 73184: a2 = a3 <u a2\n 73187: a3 = u64 [s1 + 0x90]\n 73191: a2 = 0 if a3 != 0\n 73193: a3 = u64 [s1 + 0x80]\n 73197: a2 = 0 if a3 != 0\n 73199: u8 [a0 + 0x1] = a1\n 73202: jump @1001 if a2 == 0\n      : @982 (gas: 4)\n 73206: a0 = u64 [s1 + 0x88]\n 73210: i32 a0 = a0 + 0x40\n 73213: a1 = 0x20\n 73216: ra = 838, jump @0\n      : @983 [@dyn 419] (gas: 42)\n 73223: u8 [a0 + 31] = 0\n 73226: u8 [a0 + 30] = 0\n 73229: u8 [a0 + 29] = 0\n 73232: u8 [a0 + 28] = 0\n 73235: u8 [a0 + 27] = 0\n 73238: u8 [a0 + 26] = 0\n 73241: u8 [a0 + 25] = 0\n 73244: u8 [a0 + 24] = 0\n 73247: u8 [a0 + 23] = 0\n 73250: u8 [a0 + 22] = 0\n 73253: u8 [a0 + 21] = 0\n 73256: u8 [a0 + 20] = 0\n 73259: u8 [a0 + 19] = 0\n 73262: u8 [a0 + 18] = 0\n 73265: u8 [a0 + 17] = 0\n 73268: u8 [a0 + 16] = 0\n 73271: u8 [a0 + 15] = 0\n 73274: u8 [a0 + 14] = 0\n 73277: u8 [a0 + 13] = 0\n 73280: u8 [a0 + 12] = 0\n 73283: u8 [a0 + 11] = 0\n 73286: u8 [a0 + 10] = 0\n 73289: u8 [a0 + 9] = 0\n 73292: u8 [a0 + 8] = 0\n 73295: u8 [a0 + 7] = 0\n 73298: u8 [a0 + 6] = 0\n 73301: u8 [a0 + 5] = 0\n 73304: u8 [a0 + 4] = 0\n 73307: u8 [a0 + 3] = 0\n 73310: u8 [a0 + 2] = 0\n 73313: u8 [a0 + 1] = 0\n 73316: a1 = 0x100000000\n 73326: u64 [s1 + 0x48] = a1\n 73329: a1 = 0xffffffa0\n 73339: a2 = u64 [s1 + 0x98]\n 73343: a1 = a2 <u a1\n 73346: a2 = u64 [s1 + 0x90]\n 73350: a1 = 0 if a2 != 0\n 73352: a2 = u64 [s1 + 0x80]\n 73356: a1 = 0 if a2 != 0\n 73358: u8 [a0 + 0] = 0\n 73360: jump @1001 if a1 == 0\n      : @984 (gas: 4)\n 73364: a0 = u64 [s1 + 0x88]\n 73368: i32 a0 = a0 + 0x60\n 73371: a1 = 0x20\n 73374: ra = 840, jump @0\n      : @985 [@dyn 420] (gas: 41)\n 73381: u8 [a0 + 31] = 0\n 73384: u8 [a0 + 30] = 0\n 73387: u8 [a0 + 29] = 0\n 73390: u8 [a0 + 28] = 0\n 73393: u8 [a0 + 27] = 0\n 73396: u8 [a0 + 26] = 0\n 73399: u8 [a0 + 25] = 0\n 73402: u8 [a0 + 24] = 0\n 73405: u8 [a0 + 23] = 0\n 73408: u8 [a0 + 22] = 0\n 73411: u8 [a0 + 21] = 0\n 73414: u8 [a0 + 20] = 0\n 73417: u8 [a0 + 19] = 0\n 73420: u8 [a0 + 18] = 0\n 73423: u8 [a0 + 17] = 0\n 73426: u8 [a0 + 16] = 0\n 73429: u8 [a0 + 15] = 0\n 73432: u8 [a0 + 14] = 0\n 73435: u8 [a0 + 13] = 0\n 73438: u8 [a0 + 12] = 0\n 73441: u8 [a0 + 11] = 0\n 73444: u8 [a0 + 10] = 0\n 73447: u8 [a0 + 9] = 0\n 73450: u8 [a0 + 8] = 0\n 73453: u8 [a0 + 7] = 0\n 73456: u8 [a0 + 6] = 0\n 73459: u8 [a0 + 5] = 0\n 73462: u8 [a0 + 4] = 0\n 73465: u8 [a0 + 3] = 0\n 73468: u8 [a0 + 2] = 0\n 73471: u8 [a0 + 1] = 0\n 73474: a1 = u64 [s1 + 0x48]\n 73477: a1 = a1 + 0xffffffffffffff80\n 73480: a2 = u64 [s1 + 0x98]\n 73484: a1 = a2 <u a1\n 73487: a2 = u64 [s1 + 0x90]\n 73491: a1 = 0 if a2 != 0\n 73493: a2 = u64 [s1 + 0x80]\n 73497: a1 = 0 if a2 != 0\n 73499: u8 [a0 + 0] = 0\n 73501: jump @1001 if a1 == 0\n      : @986 (gas: 4)\n 73505: a0 = u64 [s1 + 0x88]\n 73509: i32 a0 = a0 + 0x80\n 73513: a1 = 0x20\n 73516: ra = 842, jump @0\n      : @987 [@dyn 421] (gas: 35)\n 73523: u8 [a0 + 31] = 0\n 73526: u8 [a0 + 30] = 0\n 73529: u8 [a0 + 29] = 0\n 73532: u8 [a0 + 28] = 0\n 73535: u8 [a0 + 27] = 0\n 73538: u8 [a0 + 26] = 0\n 73541: u8 [a0 + 25] = 0\n 73544: u8 [a0 + 24] = 0\n 73547: u8 [a0 + 23] = 0\n 73550: u8 [a0 + 22] = 0\n 73553: u8 [a0 + 21] = 0\n 73556: u8 [a0 + 20] = 0\n 73559: u8 [a0 + 19] = 0\n 73562: u8 [a0 + 18] = 0\n 73565: u8 [a0 + 17] = 0\n 73568: u8 [a0 + 16] = 0\n 73571: u8 [a0 + 15] = 0\n 73574: u8 [a0 + 14] = 0\n 73577: u8 [a0 + 13] = 0\n 73580: u8 [a0 + 12] = 0\n 73583: u8 [a0 + 11] = 0\n 73586: u8 [a0 + 10] = 0\n 73589: u8 [a0 + 9] = 0\n 73592: u8 [a0 + 8] = 0\n 73595: u8 [a0 + 7] = 0\n 73598: u8 [a0 + 6] = 0\n 73601: u8 [a0 + 5] = 0\n 73604: u8 [a0 + 4] = 0\n 73607: u8 [a0 + 3] = 0\n 73610: u8 [a0 + 2] = 0\n 73613: u8 [a0 + 1] = 0\n 73616: u8 [a0 + 0] = 0\n 73618: a1 = 0x20\n 73621: a0 = 0\n 73623: ra = 844, jump @0\n      : @988 [@dyn 422] (gas: 75)\n 73630: a1 = u64 [s1 + 0x58]\n 73633: a2 = reverse a1\n 73635: a1 = u64 [s1 + 0x50]\n 73638: a3 = reverse a1\n 73640: a1 = u64 [s1 + 0x60]\n 73643: a4 = reverse a1\n 73645: a1 = u64 [s1 + 0x68]\n 73648: a5 = reverse a1\n 73650: a1 = a5 >> 0x38\n 73653: u8 [a0 + 0x1f] = a1\n 73656: a1 = a5 >> 0x30\n 73659: u8 [a0 + 0x1e] = a1\n 73662: a1 = a5 >> 0x28\n 73665: u8 [a0 + 0x1d] = a1\n 73668: a1 = a5 >> 0x20\n 73671: u8 [a0 + 0x1c] = a1\n 73674: a1 = a5 >> 0x18\n 73677: u8 [a0 + 0x1b] = a1\n 73680: a1 = a5 >> 0x10\n 73683: u8 [a0 + 0x1a] = a1\n 73686: a1 = a5 >> 0x8\n 73689: u8 [a0 + 0x19] = a1\n 73692: u64 [s1 + 0x40] = a5\n 73695: u8 [a0 + 0x18] = a5\n 73698: a1 = a4 >> 0x38\n 73701: u8 [a0 + 0x17] = a1\n 73704: a1 = a4 >> 0x30\n 73707: u8 [a0 + 0x16] = a1\n 73710: a1 = a4 >> 0x28\n 73713: u8 [a0 + 0x15] = a1\n 73716: a1 = a4 >> 0x20\n 73719: u8 [a0 + 0x14] = a1\n 73722: a1 = a4 >> 0x18\n 73725: u8 [a0 + 0x13] = a1\n 73728: a1 = a4 >> 0x10\n 73731: u8 [a0 + 0x12] = a1\n 73734: a1 = a4 >> 0x8\n 73737: u8 [a0 + 0x11] = a1\n 73740: u64 [s1 + 0x48] = a4\n 73743: u8 [a0 + 0x10] = a4\n 73746: a1 = a3 >> 0x38\n 73749: u8 [a0 + 0xf] = a1\n 73752: a1 = a3 >> 0x30\n 73755: u8 [a0 + 0xe] = a1\n 73758: a1 = a3 >> 0x28\n 73761: u8 [a0 + 0xd] = a1\n 73764: a1 = a3 >> 0x20\n 73767: u8 [a0 + 0xc] = a1\n 73770: a1 = a3 >> 0x18\n 73773: u8 [a0 + 0xb] = a1\n 73776: a1 = a3 >> 0x10\n 73779: u8 [a0 + 0xa] = a1\n 73782: a1 = a3 >> 0x8\n 73785: u8 [a0 + 0x9] = a1\n 73788: u64 [s1 + 0x80] = a3\n 73792: u8 [a0 + 0x8] = a3\n 73795: a1 = a2 >> 0x38\n 73798: u8 [a0 + 0x7] = a1\n 73801: a1 = a2 >> 0x30\n 73804: u8 [a0 + 0x6] = a1\n 73807: a1 = a2 >> 0x28\n 73810: u8 [a0 + 0x5] = a1\n 73813: a1 = a2 >> 0x20\n 73816: u8 [a0 + 0x4] = a1\n 73819: a1 = a2 >> 0x18\n 73822: u8 [a0 + 0x3] = a1\n 73825: a1 = a2 >> 0x10\n 73828: u8 [a0 + 0x2] = a1\n 73831: a1 = a2 >> 0x8\n 73834: u8 [a0 + 0x1] = a1\n 73837: u64 [s1 + 0x88] = a2\n 73841: u8 [a0] = a2\n 73843: a0 = 0x20\n 73846: a1 = 0x20\n 73849: ra = 846, jump @0\n      : @989 [@dyn 423] (gas: 35)\n 73856: u8 [a0 + 31] = 0x4\n 73860: u8 [a0 + 30] = 0\n 73863: u8 [a0 + 29] = 0\n 73866: u8 [a0 + 28] = 0\n 73869: u8 [a0 + 27] = 0\n 73872: u8 [a0 + 26] = 0\n 73875: u8 [a0 + 25] = 0\n 73878: u8 [a0 + 24] = 0\n 73881: u8 [a0 + 23] = 0\n 73884: u8 [a0 + 22] = 0\n 73887: u8 [a0 + 21] = 0\n 73890: u8 [a0 + 20] = 0\n 73893: u8 [a0 + 19] = 0\n 73896: u8 [a0 + 18] = 0\n 73899: u8 [a0 + 17] = 0\n 73902: u8 [a0 + 16] = 0\n 73905: u8 [a0 + 15] = 0\n 73908: u8 [a0 + 14] = 0\n 73911: u8 [a0 + 13] = 0\n 73914: u8 [a0 + 12] = 0\n 73917: u8 [a0 + 11] = 0\n 73920: u8 [a0 + 10] = 0\n 73923: u8 [a0 + 9] = 0\n 73926: u8 [a0 + 8] = 0\n 73929: u8 [a0 + 7] = 0\n 73932: u8 [a0 + 6] = 0\n 73935: u8 [a0 + 5] = 0\n 73938: u8 [a0 + 4] = 0\n 73941: u8 [a0 + 3] = 0\n 73944: u8 [a0 + 2] = 0\n 73947: u8 [a0 + 1] = 0\n 73950: u8 [a0 + 0] = 0\n 73952: a1 = 0x40\n 73955: a0 = 0\n 73957: ra = 848, jump @0\n      : @990 [@dyn 424] (gas: 27)\n 73964: i32 a0 = a0 + 0\n 73966: i32 a2 = s1 + 0x240\n 73970: a1 = 0x40\n 73973: ecalli 9 // 'hash_keccak_256'\n 73975: a0 = u64 [s1 + 0x258]\n 73979: a1 = u64 [s1 + 0x250]\n 73983: a2 = u64 [s1 + 0x248]\n 73987: a3 = u64 [s1 + 0x240]\n 73991: a4 = reverse a0\n 73993: a0 = reverse a1\n 73995: a1 = reverse a2\n 73997: a2 = reverse a3\n 73999: a3 = u64 [s1 + 0x70]\n 74002: u64 [s1 + 0xf8] = a3\n 74006: a3 = u64 [s1 + 0x78]\n 74009: u64 [s1 + 0xf0] = a3\n 74013: a3 = u64 [s1 + 0x90]\n 74017: u64 [s1 + 0xe8] = a3\n 74021: a3 = u64 [s1 + 0x98]\n 74025: u64 [s1 + 0xe0] = a3\n 74029: u64 [s1 + 0x118] = a2\n 74033: u64 [s1 + 0x110] = a1\n 74037: u64 [s1 + 0x108] = a0\n 74041: a0 = s1 + 0x100\n 74045: a1 = s1 + 0xe0\n 74049: u64 [s1 + 0x100] = a4\n 74053: ra = 850, jump @954\n      : @991 [@dyn 425] (gas: 30)\n 74059: i32 a0 = s1 + 0x1e0\n 74063: ecalli 5 // 'caller'\n 74065: a0 = u32 [s1 + 0x1f0]\n 74069: u64 [s1 + 0x78] = a0\n 74072: a0 = u64 [s1 + 0x1e8]\n 74076: u64 [s1 + 0x28] = a0\n 74079: a0 = u64 [s1 + 0x1e0]\n 74083: u64 [s1 + 0x98] = a0\n 74087: a0 = sp + 0xffffffffffffffe0\n 74090: a0 = a0 & 0xffffffffffffffe0\n 74093: u64 [s1 + 0x90] = a0\n 74097: sp = a0\n 74099: u64 [a0 + 24] = 0\n 74102: u64 [a0 + 16] = 0\n 74105: u64 [a0 + 8] = 0\n 74108: u64 [a0 + 0] = 0\n 74110: i32 a0 = a0 + 0\n 74112: ecalli 17 // 'value_transferred'\n 74114: a1 = u64 [s1 + 0x90]\n 74118: a0 = u64 [a1 + 0x18]\n 74121: u64 [s1 + 0x30] = a0\n 74124: a0 = u64 [a1 + 0x10]\n 74127: u64 [s1 + 0x38] = a0\n 74130: a0 = u64 [a1 + 0x8]\n 74133: u64 [s1 + 0x70] = a0\n 74136: a0 = u64 [a1]\n 74138: u64 [s1 + 0x90] = a0\n 74142: a0 = 0x40\n 74145: a1 = 0x20\n 74148: ra = 852, jump @0\n      : @992 [@dyn 426] (gas: 100)\n 74155: a1 = u8 [a0 + 0x11]\n 74158: a2 = u8 [a0 + 0x10]\n 74161: a3 = u8 [a0 + 0x12]\n 74164: a4 = u8 [a0 + 0x13]\n 74167: a1 = a1 << 0x8\n 74170: a1 = a1 | a2\n 74173: a3 = a3 << 0x10\n 74176: a4 = a4 << 0x18\n 74179: a3 = a3 | a4\n 74182: a1 = a1 | a3\n 74185: a2 = u8 [a0 + 0x15]\n 74188: a3 = u8 [a0 + 0x14]\n 74191: a4 = u8 [a0 + 0x16]\n 74194: a5 = u8 [a0 + 0x17]\n 74197: a2 = a2 << 0x8\n 74200: a2 = a2 | a3\n 74203: a4 = a4 << 0x10\n 74206: a5 = a5 << 0x18\n 74209: a4 = a4 | a5\n 74212: a2 = a2 | a4\n 74215: a2 = a2 << 0x20\n 74218: t0 = a2 | a1\n 74221: a2 = u8 [a0 + 0x1]\n 74224: a3 = u8 [a0]\n 74226: a4 = u8 [a0 + 0x2]\n 74229: a5 = u8 [a0 + 0x3]\n 74232: a2 = a2 << 0x8\n 74235: a2 = a2 | a3\n 74238: a4 = a4 << 0x10\n 74241: a5 = a5 << 0x18\n 74244: a4 = a4 | a5\n 74247: a2 = a2 | a4\n 74250: a3 = u8 [a0 + 0x5]\n 74253: a4 = u8 [a0 + 0x4]\n 74256: a5 = u8 [a0 + 0x6]\n 74259: a1 = u8 [a0 + 0x7]\n 74262: a3 = a3 << 0x8\n 74265: a3 = a3 | a4\n 74268: a5 = a5 << 0x10\n 74271: a1 = a1 << 0x18\n 74274: a1 = a1 | a5\n 74277: a1 = a1 | a3\n 74280: a1 = a1 << 0x20\n 74283: t1 = a1 | a2\n 74286: a1 = u8 [a0 + 0x19]\n 74289: a3 = u8 [a0 + 0x18]\n 74292: a4 = u8 [a0 + 0x1a]\n 74295: a5 = u8 [a0 + 0x1b]\n 74298: a1 = a1 << 0x8\n 74301: a1 = a1 | a3\n 74304: a4 = a4 << 0x10\n 74307: a5 = a5 << 0x18\n 74310: a4 = a4 | a5\n 74313: a1 = a1 | a4\n 74316: a3 = u8 [a0 + 0x1d]\n 74319: a4 = u8 [a0 + 0x1c]\n 74322: a5 = u8 [a0 + 0x1e]\n 74325: a2 = u8 [a0 + 0x1f]\n 74328: a3 = a3 << 0x8\n 74331: a3 = a3 | a4\n 74334: a5 = a5 << 0x10\n 74337: a2 = a2 << 0x18\n 74340: a2 = a2 | a5\n 74343: a2 = a2 | a3\n 74346: a2 = a2 << 0x20\n 74349: a3 = a2 | a1\n 74352: a1 = u8 [a0 + 0x9]\n 74355: a2 = u8 [a0 + 0x8]\n 74358: a4 = u8 [a0 + 0xa]\n 74361: a5 = u8 [a0 + 0xb]\n 74364: a1 = a1 << 0x8\n 74367: a1 = a1 | a2\n 74370: a4 = a4 << 0x10\n 74373: a5 = a5 << 0x18\n 74376: a4 = a4 | a5\n 74379: a1 = a1 | a4\n 74382: a2 = u8 [a0 + 0xd]\n 74385: a4 = u8 [a0 + 0xc]\n 74388: a5 = u8 [a0 + 0xe]\n 74391: a0 = u8 [a0 + 0xf]\n 74394: a2 = a2 << 0x8\n 74397: a2 = a2 | a4\n 74400: a5 = a5 << 0x10\n 74403: a0 = a0 << 0x18\n 74406: a0 = a0 | a5\n 74409: a0 = a0 | a2\n 74412: a0 = a0 << 0x20\n 74415: a0 = a0 | a1\n 74418: a1 = reverse a0\n 74420: a0 = reverse a3\n 74422: a2 = reverse t1\n 74424: a3 = reverse t0\n 74426: a2 = a2 | a3\n 74429: a3 = a0 | a1\n 74432: a3 = a3 | a2\n 74435: a3 = a3 >> 0x20\n 74438: a1 = a1 | a2\n 74441: a1 = a1 << 0x20\n 74444: a1 = a1 | a3\n 74447: jump @1001 if a1 != 0\n      : @993 (gas: 18)\n 74451: a1 = u64 [s1 + 0x28]\n 74454: a1 = reverse a1\n 74456: a2 = a1 << 0x20\n 74459: a3 = u64 [s1 + 0x78]\n 74462: a3 = reverse a3\n 74464: a3 = a3 >> 0x20\n 74467: a2 = a2 | a3\n 74470: u64 [s1 + 0x78] = a2\n 74473: a2 = u64 [s1 + 0x98]\n 74477: a2 = reverse a2\n 74479: a2 = a2 << 0x20\n 74482: a1 = a1 >> 0x20\n 74485: a1 = a1 | a2\n 74488: u64 [s1 + 0x28] = a1\n 74491: i32 a0 = a0 + 0\n 74493: u64 [s1 + 0x20] = a0\n 74496: a1 = 0x20\n 74499: ra = 854, jump @0\n      : @994 [@dyn 427] (gas: 71)\n 74506: a1 = u64 [s1 + 0x30]\n 74509: a1 = reverse a1\n 74511: a2 = u64 [s1 + 0x38]\n 74514: a2 = reverse a2\n 74516: a3 = u64 [s1 + 0x70]\n 74519: a3 = reverse a3\n 74521: a4 = u64 [s1 + 0x90]\n 74525: a4 = reverse a4\n 74527: a5 = a4 >> 0x38\n 74530: u8 [a0 + 0x1f] = a5\n 74533: a5 = a4 >> 0x30\n 74536: u8 [a0 + 0x1e] = a5\n 74539: a5 = a4 >> 0x28\n 74542: u8 [a0 + 0x1d] = a5\n 74545: a5 = a4 >> 0x20\n 74548: u8 [a0 + 0x1c] = a5\n 74551: a5 = a4 >> 0x18\n 74554: u8 [a0 + 0x1b] = a5\n 74557: a5 = a4 >> 0x10\n 74560: u8 [a0 + 0x1a] = a5\n 74563: a5 = a4 >> 0x8\n 74566: u8 [a0 + 0x19] = a5\n 74569: u8 [a0 + 0x18] = a4\n 74572: u8 [a0 + 0x10] = a3\n 74575: a4 = a3 >> 0x38\n 74578: u8 [a0 + 0x17] = a4\n 74581: a4 = a3 >> 0x30\n 74584: u8 [a0 + 0x16] = a4\n 74587: a4 = a3 >> 0x28\n 74590: u8 [a0 + 0x15] = a4\n 74593: a4 = a3 >> 0x20\n 74596: u8 [a0 + 0x14] = a4\n 74599: a4 = a3 >> 0x18\n 74602: u8 [a0 + 0x13] = a4\n 74605: a4 = a3 >> 0x10\n 74608: u8 [a0 + 0x12] = a4\n 74611: a3 = a3 >> 0x8\n 74614: u8 [a0 + 0x11] = a3\n 74617: u8 [a0 + 0x8] = a2\n 74620: a3 = a2 >> 0x38\n 74623: u8 [a0 + 0xf] = a3\n 74626: a3 = a2 >> 0x30\n 74629: u8 [a0 + 0xe] = a3\n 74632: a3 = a2 >> 0x28\n 74635: u8 [a0 + 0xd] = a3\n 74638: a3 = a2 >> 0x20\n 74641: u8 [a0 + 0xc] = a3\n 74644: a3 = a2 >> 0x18\n 74647: u8 [a0 + 0xb] = a3\n 74650: a3 = a2 >> 0x10\n 74653: u8 [a0 + 0xa] = a3\n 74656: a2 = a2 >> 0x8\n 74659: u8 [a0 + 0x9] = a2\n 74662: u8 [a0] = a1\n 74664: a2 = a1 >> 0x38\n 74667: u8 [a0 + 0x7] = a2\n 74670: a2 = a1 >> 0x30\n 74673: u8 [a0 + 0x6] = a2\n 74676: a2 = a1 >> 0x28\n 74679: u8 [a0 + 0x5] = a2\n 74682: a2 = a1 >> 0x20\n 74685: u8 [a0 + 0x4] = a2\n 74688: a2 = a1 >> 0x18\n 74691: u8 [a0 + 0x3] = a2\n 74694: a2 = a1 >> 0x10\n 74697: u8 [a0 + 0x2] = a2\n 74700: a1 = a1 >> 0x8\n 74703: u8 [a0 + 0x1] = a1\n 74706: a1 = 0x20\n 74709: a0 = u64 [s1 + 0x20]\n 74712: ra = 856, jump @0\n      : @995 [@dyn 428] (gas: 46)\n 74719: a1 = u64 [0x20000]\n 74724: a2 = u64 [0x20008]\n 74729: a3 = u64 [0x20010]\n 74734: a4 = u64 [0x20018]\n 74739: u64 [s1 + 0x258] = a1\n 74743: u64 [s1 + 0x250] = a2\n 74747: u64 [s1 + 0x248] = a3\n 74751: u64 [s1 + 0x240] = a4\n 74755: a1 = u64 [s1 + 0x40]\n 74758: u64 [s1 + 0x278] = a1\n 74762: a1 = u64 [s1 + 0x48]\n 74765: u64 [s1 + 0x270] = a1\n 74769: a1 = u64 [s1 + 0x80]\n 74773: u64 [s1 + 0x268] = a1\n 74777: a1 = u64 [s1 + 0x88]\n 74781: u64 [s1 + 0x260] = a1\n 74785: a1 = u64 [s1 + 0x28]\n 74788: a1 = reverse a1\n 74790: a2 = u64 [s1 + 0x78]\n 74793: a2 = reverse a2\n 74795: a3 = u64 [s1 + 0x98]\n 74799: a3 = a3 << 0x20\n 74802: u64 [s1 + 0x298] = a2\n 74806: u64 [s1 + 0x290] = a1\n 74810: u64 [s1 + 0x288] = a3\n 74814: u64 [s1 + 640] = 0\n 74818: i32 a2 = a0 + 0\n 74820: i32 a0 = s1 + 0x240\n 74824: a1 = 0x3\n 74827: a3 = 0x20\n 74830: ecalli 6 // 'deposit_event'\n 74832: a0 = u64 [s1 + 0x18]\n 74835: a1 = u64 [s1 + 0x58]\n 74838: u64 [a0 + 0x18] = a1\n 74841: a1 = u64 [s1 + 0x50]\n 74844: u64 [a0 + 0x10] = a1\n 74847: a1 = u64 [s1 + 0x60]\n 74850: u64 [a0 + 0x8] = a1\n 74853: a1 = u64 [s1 + 0x68]\n 74856: u64 [a0] = a1\n 74858: sp = s0 + 0xfffffffffffffd40\n 74862: ra = u64 [sp + 0x2b8]\n 74866: s0 = u64 [sp + 0x2b0]\n 74870: s1 = u64 [sp + 0x2a8]\n 74874: sp = sp + 0x2c0\n 74878: ret\n      : @996 (gas: 3)\n 74880: a0 = 0x40\n 74883: a1 = 0x20\n 74886: ra = 858, jump @0\n      : @997 [@dyn 429] (gas: 104)\n 74893: a1 = u8 [a0 + 0x11]\n 74896: a2 = u8 [a0 + 0x10]\n 74899: a3 = u8 [a0 + 0x12]\n 74902: a4 = u8 [a0 + 0x13]\n 74905: a1 = a1 << 0x8\n 74908: a1 = a1 | a2\n 74911: a3 = a3 << 0x10\n 74914: a4 = a4 << 0x18\n 74917: a3 = a3 | a4\n 74920: a1 = a1 | a3\n 74923: a2 = u8 [a0 + 0x15]\n 74926: a3 = u8 [a0 + 0x14]\n 74929: a4 = u8 [a0 + 0x16]\n 74932: a5 = u8 [a0 + 0x17]\n 74935: a2 = a2 << 0x8\n 74938: a2 = a2 | a3\n 74941: a4 = a4 << 0x10\n 74944: a5 = a5 << 0x18\n 74947: a4 = a4 | a5\n 74950: a2 = a2 | a4\n 74953: a2 = a2 << 0x20\n 74956: t0 = a2 | a1\n 74959: a2 = u8 [a0 + 0x1]\n 74962: a3 = u8 [a0]\n 74964: a4 = u8 [a0 + 0x2]\n 74967: a5 = u8 [a0 + 0x3]\n 74970: a2 = a2 << 0x8\n 74973: a2 = a2 | a3\n 74976: a4 = a4 << 0x10\n 74979: a5 = a5 << 0x18\n 74982: a4 = a4 | a5\n 74985: a2 = a2 | a4\n 74988: a3 = u8 [a0 + 0x5]\n 74991: a4 = u8 [a0 + 0x4]\n 74994: a5 = u8 [a0 + 0x6]\n 74997: a1 = u8 [a0 + 0x7]\n 75000: a3 = a3 << 0x8\n 75003: a3 = a3 | a4\n 75006: a5 = a5 << 0x10\n 75009: a1 = a1 << 0x18\n 75012: a1 = a1 | a5\n 75015: a1 = a1 | a3\n 75018: a1 = a1 << 0x20\n 75021: t1 = a1 | a2\n 75024: a1 = u8 [a0 + 0x19]\n 75027: a3 = u8 [a0 + 0x18]\n 75030: a4 = u8 [a0 + 0x1a]\n 75033: a5 = u8 [a0 + 0x1b]\n 75036: a1 = a1 << 0x8\n 75039: a1 = a1 | a3\n 75042: a4 = a4 << 0x10\n 75045: a5 = a5 << 0x18\n 75048: a4 = a4 | a5\n 75051: a1 = a1 | a4\n 75054: a3 = u8 [a0 + 0x1d]\n 75057: a4 = u8 [a0 + 0x1c]\n 75060: a5 = u8 [a0 + 0x1e]\n 75063: a2 = u8 [a0 + 0x1f]\n 75066: a3 = a3 << 0x8\n 75069: a3 = a3 | a4\n 75072: a5 = a5 << 0x10\n 75075: a2 = a2 << 0x18\n 75078: a2 = a2 | a5\n 75081: a2 = a2 | a3\n 75084: a2 = a2 << 0x20\n 75087: a3 = a2 | a1\n 75090: a1 = u8 [a0 + 0x9]\n 75093: a2 = u8 [a0 + 0x8]\n 75096: a4 = u8 [a0 + 0xa]\n 75099: a5 = u8 [a0 + 0xb]\n 75102: a1 = a1 << 0x8\n 75105: a1 = a1 | a2\n 75108: a4 = a4 << 0x10\n 75111: a5 = a5 << 0x18\n 75114: a4 = a4 | a5\n 75117: a1 = a1 | a4\n 75120: a2 = u8 [a0 + 0xd]\n 75123: a4 = u8 [a0 + 0xc]\n 75126: a5 = u8 [a0 + 0xe]\n 75129: a0 = u8 [a0 + 0xf]\n 75132: a2 = a2 << 0x8\n 75135: a2 = a2 | a4\n 75138: a5 = a5 << 0x10\n 75141: a0 = a0 << 0x18\n 75144: a0 = a0 | a5\n 75147: a0 = a0 | a2\n 75150: a0 = a0 << 0x20\n 75153: a0 = a0 | a1\n 75156: a4 = reverse a0\n 75158: a1 = reverse a3\n 75160: a2 = reverse t1\n 75162: a0 = reverse t0\n 75164: u64 [s1 + 0x98] = a0\n 75168: u64 [s1 + 0x88] = a2\n 75172: a0 = a0 | a2\n 75175: a2 = a1\n 75177: a1 = a1 | a4\n 75180: a1 = a1 | a0\n 75183: a1 = a1 >> 0x20\n 75186: u64 [s1 + 0x90] = a4\n 75190: a0 = a0 | a4\n 75193: a0 = a0 << 0x20\n 75196: a0 = a0 | a1\n 75199: jump @1001 if a0 != 0\n      : @998 (gas: 5)\n 75203: u64 [s1 + 0x80] = a2\n 75207: i32 a0 = a2 + 0\n 75209: a1 = 0x20\n 75212: u64 [s1 + 0x78] = a0\n 75215: ra = 860, jump @0\n      : @999 [@dyn 430] (gas: 51)\n 75222: u8 [a0 + 31] = 0\n 75225: u8 [a0 + 30] = 0\n 75228: u8 [a0 + 29] = 0\n 75231: u8 [a0 + 28] = 0\n 75234: u8 [a0 + 27] = 0\n 75237: u8 [a0 + 26] = 0\n 75240: u8 [a0 + 25] = 0\n 75243: u8 [a0 + 24] = 0\n 75246: u8 [a0 + 23] = 0\n 75249: u8 [a0 + 22] = 0\n 75252: u8 [a0 + 21] = 0\n 75255: u8 [a0 + 20] = 0\n 75258: u8 [a0 + 19] = 0\n 75261: u8 [a0 + 18] = 0\n 75264: u8 [a0 + 17] = 0\n 75267: u8 [a0 + 16] = 0\n 75270: u8 [a0 + 15] = 0\n 75273: u8 [a0 + 14] = 0\n 75276: u8 [a0 + 13] = 0\n 75279: u8 [a0 + 12] = 0\n 75282: u8 [a0 + 11] = 0\n 75285: u8 [a0 + 10] = 0\n 75288: u8 [a0 + 9] = 0\n 75291: u8 [a0 + 8] = 0\n 75294: u8 [a0 + 7] = 0\n 75297: u8 [a0 + 6] = 0\n 75300: u8 [a0 + 5] = 0\n 75303: u8 [a0 + 4] = 0\n 75306: u8 [a0 + 3] = 0xa0\n 75311: u8 [a0 + 2] = 0x79\n 75315: u8 [a0 + 1] = 0xc3\n 75320: u8 [a0 + 0] = 0x8\n 75323: a1 = u64 [s1 + 0x80]\n 75327: a0 = a1 + 0x4\n 75330: a1 = a0 <u a1\n 75333: a3 = u64 [s1 + 0x98]\n 75337: a2 = a3 + a1\n 75340: a3 = a2 <u a3\n 75343: a3 = a1 if a1 == 0\n 75346: a1 = u64 [s1 + 0x90]\n 75350: a3 = a3 + a1\n 75353: a1 = a3 <u a1\n 75356: a4 = u64 [s1 + 0x88]\n 75360: a4 = a4 + a1\n 75363: u64 [s1 + 0x168] = a2\n 75367: u64 [s1 + 0x160] = a0\n 75371: u64 [s1 + 0x170] = a3\n 75375: a0 = s1 + 0x180\n 75379: a1 = s1 + 0x160\n 75383: u64 [s1 + 0x178] = a4\n 75387: ra = 862, jump @946\n      : @1000 [@dyn 431] (gas: 31)\n 75393: a0 = u64 [s1 + 0x188]\n 75397: t0 = u64 [s1 + 0x198]\n 75401: t1 = u64 [s1 + 0x180]\n 75405: a3 = u64 [s1 + 0x190]\n 75409: a1 = u64 [s1 + 0x98]\n 75413: a4 = a0 ^ a1\n 75416: a5 = a0 <u a1\n 75419: ra = a1\n 75421: t2 = u64 [s1 + 0x80]\n 75425: a1 = t1 <u t2\n 75428: a5 = a1 if a4 == 0\n 75431: a2 = u64 [s1 + 0x90]\n 75435: a4 = a3 - a2\n 75438: a3 = a3 <u a2\n 75441: a2 = u64 [s1 + 0x88]\n 75445: a2 = t0 - a2\n 75448: a2 = a2 - a3\n 75451: a3 = a4 <u a5\n 75454: a2 = a2 - a3\n 75457: a4 = a4 - a5\n 75460: a0 = a0 - ra\n 75463: a1 = a0 - a1\n 75466: a0 = t1 - t2\n 75469: a1 = a1 | a2\n 75472: a2 = a0 | a4\n 75475: a2 = a2 | a1\n 75478: a1 = a1 | a4\n 75481: a2 = a2 >> 0x20\n 75484: a1 = a1 << 0x20\n 75487: a1 = a1 | a2\n 75490: jump @1006 if a1 == 0\n      : @1001 (gas: 1)\n 75493: trap\n      : @1002 (gas: 8)\n 75494: u64 [s1 + 208] = 0\n 75498: u64 [s1 + 200] = 0\n 75502: u64 [s1 + 192] = 0\n 75506: a0 = 0x4e487b7100000000\n 75516: a1 = s1 + 0xc0\n 75520: u64 [s1 + 0xd8] = a0\n 75524: a0 = 0\n 75526: ra = 864, jump @23\n      : @1003 [@dyn 432] (gas: 7)\n 75533: u64 [s1 + 184] = 0\n 75537: u64 [s1 + 176] = 0\n 75541: u64 [s1 + 160] = 0x11\n 75546: a0 = 0x4\n 75549: a1 = s1 + 0xa0\n 75553: u64 [s1 + 168] = 0\n 75557: ra = 866, jump @23\n      : @1004 [@dyn 433] (gas: 3)\n 75564: a1 = 0x24\n 75567: a0 = 0\n 75569: ra = 868, jump @0\n      : @1005 [@dyn 434] (gas: 5)\n 75576: i32 a1 = a0 + 0\n 75578: a0 = 0x1\n 75581: a2 = 0x24\n 75584: ecalli 14 // 'seal_return'\n 75586: fallthrough\n      : @1006 (gas: 4)\n 75587: i32 a1 = a0 + 0\n 75589: u64 [s1 + 0x98] = a1\n 75593: a0 = u64 [s1 + 0x78]\n 75596: ra = 870, jump @0\n      : @1007 [@dyn 435] (gas: 6)\n 75603: i32 a1 = a0 + 0\n 75605: a0 = 0x1\n 75608: a2 = u64 [s1 + 0x98]\n 75612: ra = 0x368\n 75616: ecalli 14 // 'seal_return'\n 75618: fallthrough\n      : @1008 [@dyn 436] (gas: 13)\n 75619: sp = sp + 0xffffffffffffffa0\n 75622: u64 [sp + 0x58] = ra\n 75625: u64 [sp + 0x50] = s0\n 75628: u64 [sp + 0x48] = s1\n 75631: s0 = sp + 0x60\n 75634: sp = sp & 0xfffffffffffffff0\n 75637: s1 = a0\n 75639: u64 [sp + 24] = 0\n 75642: u64 [sp + 16] = 0\n 75645: u64 [sp + 8] = 0\n 75648: a0 = sp + 0x20\n 75651: u64 [sp + 0] = 0\n 75653: ra = 874, jump @930\n      : @1009 [@dyn 437] (gas: 14)\n 75659: a0 = u64 [sp + 0x30]\n 75662: a1 = u64 [sp + 0x38]\n 75665: a2 = u64 [sp + 0x20]\n 75668: a3 = u64 [sp + 0x28]\n 75671: u64 [s1 + 0x10] = a0\n 75674: u64 [s1 + 0x18] = a1\n 75677: u64 [s1] = a2\n 75679: u64 [s1 + 0x8] = a3\n 75682: sp = s0 + 0xffffffffffffffa0\n 75685: ra = u64 [sp + 0x58]\n 75688: s0 = u64 [sp + 0x50]\n 75691: s1 = u64 [sp + 0x48]\n 75694: sp = sp + 0x60\n 75697: ret\n      : @1010 (gas: 55)\n 75699: sp = sp + 0xfffffffffffffe40\n 75703: u64 [sp + 0x1b8] = ra\n 75707: u64 [sp + 0x1b0] = s0\n 75711: u64 [sp + 0x1a8] = s1\n 75715: s0 = sp + 0x1c0\n 75719: sp = sp & 0xffffffffffffffe0\n 75722: a4 = u64 [a3 + 0x18]\n 75725: u64 [sp] = a4\n 75727: a4 = u64 [a3 + 0x10]\n 75730: u64 [sp + 0x8] = a4\n 75733: a4 = u64 [a3 + 0x8]\n 75736: u64 [sp + 0x10] = a4\n 75739: a3 = u64 [a3]\n 75741: u64 [sp + 0x18] = a3\n 75744: a3 = u64 [a2 + 0x18]\n 75747: u64 [sp + 0x20] = a3\n 75750: a3 = u64 [a2 + 0x10]\n 75753: u64 [sp + 0x28] = a3\n 75756: a3 = u64 [a2 + 0x8]\n 75759: u64 [sp + 0x30] = a3\n 75762: a2 = u64 [a2]\n 75764: u64 [sp + 0x38] = a2\n 75767: a2 = u64 [a1 + 0x18]\n 75770: u64 [sp + 0x40] = a2\n 75773: a2 = u64 [a1 + 0x10]\n 75776: u64 [sp + 0x48] = a2\n 75779: a2 = u64 [a1 + 0x8]\n 75782: u64 [sp + 0x50] = a2\n 75785: a1 = u64 [a1]\n 75787: u64 [sp + 0x58] = a1\n 75790: a1 = u64 [a0 + 0x18]\n 75793: u64 [sp + 0x60] = a1\n 75796: a1 = u64 [a0 + 0x10]\n 75799: u64 [sp + 0x68] = a1\n 75802: a1 = u64 [a0 + 0x8]\n 75805: u64 [sp + 0x70] = a1\n 75808: a0 = u64 [a0]\n 75810: u64 [sp + 0x78] = a0\n 75813: u64 [sp + 376] = 0\n 75817: u64 [sp + 368] = 0\n 75821: u64 [sp + 360] = 0\n 75825: s1 = 0x5\n 75828: u64 [sp + 0x160] = s1\n 75832: u64 [sp + 408] = 0\n 75836: u64 [sp + 400] = 0\n 75840: u64 [sp + 392] = 0\n 75844: u64 [sp + 384] = 0\n 75848: u32 [sp + 320] = 0x20\n 75853: i32 a1 = sp + 0x160\n 75857: i32 a3 = sp + 0x180\n 75861: i32 a4 = sp + 0x140\n 75865: a2 = 0xffffffffffffffff\n 75868: a0 = 0\n 75870: ecalli 8 // 'get_storage'\n 75872: fallthrough\n      : @1011 (gas: 9)\n 75873: a0 = u64 [sp + 0x198]\n 75877: a1 = u64 [sp + 0x188]\n 75881: a2 = u64 [sp + 0x180]\n 75885: a3 = u64 [sp + 0x190]\n 75889: a0 = a0 | a1\n 75892: a1 = a2 ^ 0x1\n 75895: a1 = a1 | a3\n 75898: a0 = a0 | a1\n 75901: jump @1014 if a0 != 0\n      : @1012 (gas: 66)\n 75905: u64 [sp + 376] = 0\n 75909: u64 [sp + 368] = 0\n 75913: u64 [sp + 360] = 0\n 75917: u64 [sp + 352] = 0x5\n 75922: u64 [sp + 408] = 0\n 75926: u64 [sp + 400] = 0\n 75930: u64 [sp + 392] = 0\n 75934: u64 [sp + 384] = 0\n 75938: u32 [sp + 320] = 0x20\n 75943: i32 a1 = sp + 0x160\n 75947: i32 a3 = sp + 0x180\n 75951: i32 a4 = sp + 0x140\n 75955: a2 = 0xffffffffffffffff\n 75958: a0 = 0\n 75960: ecalli 8 // 'get_storage'\n 75962: u64 [sp + 376] = 0\n 75966: u64 [sp + 368] = 0\n 75970: u64 [sp + 360] = 0\n 75974: u64 [sp + 352] = 0x5\n 75979: u64 [sp + 408] = 0\n 75983: u64 [sp + 400] = 0\n 75987: u64 [sp + 392] = 0\n 75991: u64 [sp + 384] = 0x2\n 75996: i32 a1 = sp + 0x160\n 76000: i32 a3 = sp + 0x180\n 76004: a2 = 0xffffffffffffffff\n 76007: a4 = 0x20\n 76010: a0 = 0\n 76012: ecalli 16 // 'set_storage'\n 76014: a0 = u64 [sp]\n 76016: u64 [sp + 0x98] = a0\n 76020: a0 = u64 [sp + 0x8]\n 76023: u64 [sp + 0x90] = a0\n 76027: a0 = u64 [sp + 0x10]\n 76030: u64 [sp + 0x88] = a0\n 76034: a0 = u64 [sp + 0x18]\n 76037: u64 [sp + 0x80] = a0\n 76041: a0 = u64 [sp + 0x20]\n 76044: u64 [sp + 0xb8] = a0\n 76048: a0 = u64 [sp + 0x28]\n 76051: u64 [sp + 0xb0] = a0\n 76055: a0 = u64 [sp + 0x30]\n 76058: u64 [sp + 0xa8] = a0\n 76062: a0 = u64 [sp + 0x38]\n 76065: u64 [sp + 0xa0] = a0\n 76069: a0 = u64 [sp + 0x40]\n 76072: u64 [sp + 0xd8] = a0\n 76076: a0 = u64 [sp + 0x48]\n 76079: u64 [sp + 0xd0] = a0\n 76083: a0 = u64 [sp + 0x50]\n 76086: u64 [sp + 0xc8] = a0\n 76090: a0 = u64 [sp + 0x58]\n 76093: u64 [sp + 0xc0] = a0\n 76097: a0 = u64 [sp + 0x60]\n 76100: u64 [sp + 0xf8] = a0\n 76104: a0 = u64 [sp + 0x68]\n 76107: u64 [sp + 0xf0] = a0\n 76111: a0 = u64 [sp + 0x70]\n 76114: u64 [sp + 0xe8] = a0\n 76118: a0 = sp + 0xe0\n 76122: a1 = sp + 0xc0\n 76126: a2 = sp + 0xa0\n 76130: a3 = sp + 0x80\n 76134: a4 = u64 [sp + 0x78]\n 76137: u64 [sp + 0xe0] = a4\n 76141: ra = 876, jump @1022\n      : @1013 [@dyn 438] (gas: 35)\n 76147: u64 [sp + 376] = 0\n 76151: u64 [sp + 368] = 0\n 76155: u64 [sp + 360] = 0\n 76159: u64 [sp + 0x160] = s1\n 76163: u64 [sp + 408] = 0\n 76167: u64 [sp + 400] = 0\n 76171: u64 [sp + 392] = 0\n 76175: u64 [sp + 384] = 0\n 76179: u32 [sp + 320] = 0x20\n 76184: i32 a1 = sp + 0x160\n 76188: i32 a3 = sp + 0x180\n 76192: i32 a4 = sp + 0x140\n 76196: a2 = 0xffffffffffffffff\n 76199: a0 = 0\n 76201: ecalli 8 // 'get_storage'\n 76203: u64 [sp + 376] = 0\n 76207: u64 [sp + 368] = 0\n 76211: u64 [sp + 360] = 0\n 76215: u64 [sp + 0x160] = s1\n 76219: u64 [sp + 408] = 0\n 76223: u64 [sp + 400] = 0\n 76227: u64 [sp + 392] = 0\n 76231: u64 [sp + 384] = 0x1\n 76236: i32 a1 = sp + 0x160\n 76240: i32 a3 = sp + 0x180\n 76244: a2 = 0xffffffffffffffff\n 76247: a4 = 0x20\n 76250: a0 = 0\n 76252: ecalli 16 // 'set_storage'\n 76254: sp = s0 + 0xfffffffffffffe40\n 76258: ra = u64 [sp + 0x1b8]\n 76262: s0 = u64 [sp + 0x1b0]\n 76266: s1 = u64 [sp + 0x1a8]\n 76270: sp = sp + 0x1c0\n 76274: ret\n      : @1014 (gas: 3)\n 76276: a0 = 0x40\n 76279: a1 = 0x20\n 76282: ra = 878, jump @0\n      : @1015 [@dyn 439] (gas: 103)\n 76289: a1 = u8 [a0 + 0x11]\n 76292: a2 = u8 [a0 + 0x10]\n 76295: a3 = u8 [a0 + 0x12]\n 76298: a4 = u8 [a0 + 0x13]\n 76301: a1 = a1 << 0x8\n 76304: a1 = a1 | a2\n 76307: a3 = a3 << 0x10\n 76310: a4 = a4 << 0x18\n 76313: a3 = a3 | a4\n 76316: a1 = a1 | a3\n 76319: a2 = u8 [a0 + 0x15]\n 76322: a3 = u8 [a0 + 0x14]\n 76325: a4 = u8 [a0 + 0x16]\n 76328: a5 = u8 [a0 + 0x17]\n 76331: a2 = a2 << 0x8\n 76334: a2 = a2 | a3\n 76337: a4 = a4 << 0x10\n 76340: a5 = a5 << 0x18\n 76343: a4 = a4 | a5\n 76346: a2 = a2 | a4\n 76349: a2 = a2 << 0x20\n 76352: t0 = a2 | a1\n 76355: a2 = u8 [a0 + 0x1]\n 76358: a3 = u8 [a0]\n 76360: a4 = u8 [a0 + 0x2]\n 76363: a5 = u8 [a0 + 0x3]\n 76366: a2 = a2 << 0x8\n 76369: a2 = a2 | a3\n 76372: a4 = a4 << 0x10\n 76375: a5 = a5 << 0x18\n 76378: a4 = a4 | a5\n 76381: a2 = a2 | a4\n 76384: a3 = u8 [a0 + 0x5]\n 76387: a4 = u8 [a0 + 0x4]\n 76390: a5 = u8 [a0 + 0x6]\n 76393: s1 = u8 [a0 + 0x7]\n 76396: a3 = a3 << 0x8\n 76399: a3 = a3 | a4\n 76402: a5 = a5 << 0x10\n 76405: s1 = s1 << 0x18\n 76408: a5 = a5 | s1\n 76411: a3 = a3 | a5\n 76414: a3 = a3 << 0x20\n 76417: a2 = a2 | a3\n 76420: a3 = u8 [a0 + 0x19]\n 76423: a4 = u8 [a0 + 0x18]\n 76426: a5 = u8 [a0 + 0x1a]\n 76429: s1 = u8 [a0 + 0x1b]\n 76432: a3 = a3 << 0x8\n 76435: a3 = a3 | a4\n 76438: a5 = a5 << 0x10\n 76441: s1 = s1 << 0x18\n 76444: a5 = a5 | s1\n 76447: a3 = a3 | a5\n 76450: a4 = u8 [a0 + 0x1d]\n 76453: a5 = u8 [a0 + 0x1c]\n 76456: s1 = u8 [a0 + 0x1e]\n 76459: a1 = u8 [a0 + 0x1f]\n 76462: a4 = a4 << 0x8\n 76465: a4 = a4 | a5\n 76468: s1 = s1 << 0x10\n 76471: a1 = a1 << 0x18\n 76474: a1 = a1 | s1\n 76477: a1 = a1 | a4\n 76480: a1 = a1 << 0x20\n 76483: a3 = a3 | a1\n 76486: a1 = u8 [a0 + 0x9]\n 76489: a4 = u8 [a0 + 0x8]\n 76492: a5 = u8 [a0 + 0xa]\n 76495: s1 = u8 [a0 + 0xb]\n 76498: a1 = a1 << 0x8\n 76501: a1 = a1 | a4\n 76504: a5 = a5 << 0x10\n 76507: s1 = s1 << 0x18\n 76510: a5 = a5 | s1\n 76513: a1 = a1 | a5\n 76516: a4 = u8 [a0 + 0xd]\n 76519: a5 = u8 [a0 + 0xc]\n 76522: s1 = u8 [a0 + 0xe]\n 76525: a0 = u8 [a0 + 0xf]\n 76528: a4 = a4 << 0x8\n 76531: a4 = a4 | a5\n 76534: s1 = s1 << 0x10\n 76537: a0 = a0 << 0x18\n 76540: a0 = a0 | s1\n 76543: a0 = a0 | a4\n 76546: a0 = a0 << 0x20\n 76549: a0 = a0 | a1\n 76552: s1 = reverse a0\n 76554: a1 = reverse a3\n 76556: a2 = reverse a2\n 76558: a0 = reverse t0\n 76560: u64 [sp + 0x78] = a0\n 76563: u64 [sp + 0x70] = a2\n 76566: a0 = a0 | a2\n 76569: a2 = a1\n 76571: a1 = a1 | s1\n 76574: a1 = a1 | a0\n 76577: a1 = a1 >> 0x20\n 76580: a0 = a0 | s1\n 76583: a0 = a0 << 0x20\n 76586: a0 = a0 | a1\n 76589: jump @1019 if a0 != 0\n      : @1016 (gas: 5)\n 76593: u64 [sp + 0x68] = a2\n 76596: i32 a0 = a2 + 0\n 76598: a1 = 0x20\n 76601: u64 [sp + 0x60] = a0\n 76604: ra = 880, jump @0\n      : @1017 [@dyn 440] (gas: 50)\n 76611: u8 [a0 + 31] = 0\n 76614: u8 [a0 + 30] = 0\n 76617: u8 [a0 + 29] = 0\n 76620: u8 [a0 + 28] = 0\n 76623: u8 [a0 + 27] = 0\n 76626: u8 [a0 + 26] = 0\n 76629: u8 [a0 + 25] = 0\n 76632: u8 [a0 + 24] = 0\n 76635: u8 [a0 + 23] = 0\n 76638: u8 [a0 + 22] = 0\n 76641: u8 [a0 + 21] = 0\n 76644: u8 [a0 + 20] = 0\n 76647: u8 [a0 + 19] = 0\n 76650: u8 [a0 + 18] = 0\n 76653: u8 [a0 + 17] = 0\n 76656: u8 [a0 + 16] = 0\n 76659: u8 [a0 + 15] = 0\n 76662: u8 [a0 + 14] = 0\n 76665: u8 [a0 + 13] = 0\n 76668: u8 [a0 + 12] = 0\n 76671: u8 [a0 + 11] = 0\n 76674: u8 [a0 + 10] = 0\n 76677: u8 [a0 + 9] = 0\n 76680: u8 [a0 + 8] = 0\n 76683: u8 [a0 + 7] = 0\n 76686: u8 [a0 + 6] = 0\n 76689: u8 [a0 + 5] = 0\n 76692: u8 [a0 + 4] = 0\n 76695: u8 [a0 + 3] = 0xa0\n 76700: u8 [a0 + 2] = 0x79\n 76704: u8 [a0 + 1] = 0xc3\n 76709: u8 [a0 + 0] = 0x8\n 76712: a1 = u64 [sp + 0x68]\n 76715: a0 = a1 + 0x4\n 76718: a1 = a0 <u a1\n 76721: a3 = u64 [sp + 0x78]\n 76724: a2 = a3 + a1\n 76727: a3 = a2 <u a3\n 76730: a3 = a1 if a1 == 0\n 76733: a3 = a3 + s1\n 76736: a1 = a3 <u s1\n 76739: a4 = u64 [sp + 0x70]\n 76742: a4 = a4 + a1\n 76745: u64 [sp + 0x108] = a2\n 76749: u64 [sp + 0x100] = a0\n 76753: u64 [sp + 0x110] = a3\n 76757: a0 = sp + 0x120\n 76761: a1 = sp + 0x100\n 76765: u64 [sp + 0x118] = a4\n 76769: ra = 882, jump @922\n      : @1018 [@dyn 441] (gas: 30)\n 76775: a0 = u64 [sp + 0x128]\n 76779: t0 = u64 [sp + 0x138]\n 76783: t1 = u64 [sp + 0x120]\n 76787: a3 = u64 [sp + 0x130]\n 76791: a1 = u64 [sp + 0x78]\n 76794: a4 = a0 ^ a1\n 76797: a5 = a0 <u a1\n 76800: t2 = a1\n 76802: a2 = u64 [sp + 0x68]\n 76805: a1 = t1 <u a2\n 76808: a5 = a1 if a4 == 0\n 76811: a4 = a3 - s1\n 76814: a3 = a3 <u s1\n 76817: s1 = u64 [sp + 0x70]\n 76820: s1 = t0 - s1\n 76823: s1 = s1 - a3\n 76826: a3 = a4 <u a5\n 76829: s1 = s1 - a3\n 76832: a4 = a4 - a5\n 76835: a0 = a0 - t2\n 76838: a1 = a0 - a1\n 76841: a0 = t1 - a2\n 76844: a1 = a1 | s1\n 76847: a2 = a0 | a4\n 76850: a2 = a2 | a1\n 76853: a1 = a1 | a4\n 76856: a2 = a2 >> 0x20\n 76859: a1 = a1 << 0x20\n 76862: a1 = a1 | a2\n 76865: jump @1020 if a1 == 0\n      : @1019 (gas: 1)\n 76868: trap\n      : @1020 (gas: 4)\n 76869: i32 s1 = a0 + 0\n 76871: a0 = u64 [sp + 0x60]\n 76874: a1 = s1\n 76876: ra = 884, jump @0\n      : @1021 [@dyn 442] (gas: 6)\n 76883: i32 a1 = a0 + 0\n 76885: a0 = 0x1\n 76888: a2 = s1\n 76890: ra = 0x376\n 76894: ecalli 14 // 'seal_return'\n 76896: fallthrough\n      : @1022 [@dyn 443] (gas: 41)\n 76897: sp = sp + 0xfffffffffffffe60\n 76901: u64 [sp + 0x198] = ra\n 76905: u64 [sp + 0x190] = s0\n 76909: u64 [sp + 0x188] = s1\n 76913: s0 = sp + 0x1a0\n 76917: sp = sp & 0xffffffffffffffe0\n 76920: a4 = u64 [a3 + 0x18]\n 76923: u64 [sp + 0x90] = a4\n 76927: a4 = u64 [a3 + 0x10]\n 76930: u64 [sp + 0x80] = a4\n 76934: a4 = u64 [a3 + 0x8]\n 76937: u64 [sp + 0x68] = a4\n 76940: a3 = u64 [a3]\n 76942: u64 [sp + 0x48] = a3\n 76945: a3 = u64 [a2 + 0x18]\n 76948: u64 [sp + 0x88] = a3\n 76952: a3 = u64 [a2 + 0x10]\n 76955: u64 [sp + 0x70] = a3\n 76958: a3 = u64 [a2 + 0x8]\n 76961: u64 [sp + 0x58] = a3\n 76964: a2 = u64 [a2]\n 76966: u64 [sp + 0x38] = a2\n 76969: a2 = u64 [a1 + 0x18]\n 76972: u64 [sp + 0x78] = a2\n 76975: a2 = u64 [a1 + 0x10]\n 76978: u64 [sp + 0x60] = a2\n 76981: a2 = u64 [a1 + 0x8]\n 76984: u64 [sp + 0x40] = a2\n 76987: a1 = u64 [a1]\n 76989: u64 [sp + 0x28] = a1\n 76992: a1 = u64 [a0 + 0x18]\n 76995: u64 [sp + 0x98] = a1\n 76999: a1 = u64 [a0 + 0x10]\n 77002: u64 [sp + 0x50] = a1\n 77005: a1 = u64 [a0 + 0x8]\n 77008: u64 [sp + 0x30] = a1\n 77011: a0 = u64 [a0]\n 77013: u64 [sp + 0x20] = a0\n 77016: i32 a0 = sp + 0x160\n 77020: ecalli 5 // 'caller'\n 77022: fallthrough\n      : @1023 (gas: 6)\n 77023: s1 = 0x20070\n 77028: a4 = i32 [sp + 0x170]\n 77032: a2 = u64 [sp + 0x160]\n 77036: a0 = i32 [0x20070]\n 77041: a1 = u64 [sp + 0x168]\n 77045: jump @1026 if a0 == 0\n      : @1024 (gas: 9)\n 77048: u64 [sp] = a0\n 77050: a0 = 0x30080\n 77055: i32 a0 = a0 + 0\n 77057: u64 [sp + 0x8] = a1\n 77060: i32 a1 = s1 + 0\n 77062: u64 [sp + 0x18] = a4\n 77065: u64 [sp + 0x10] = a2\n 77068: ecalli 7 // 'get_immutable_data'\n 77070: fallthrough\n      : @1025 (gas: 7)\n 77071: a1 = u64 [sp + 0x8]\n 77074: a2 = u64 [sp + 0x10]\n 77077: a4 = u64 [sp + 0x18]\n 77080: a0 = i32 [0x20070]\n 77085: u32 [0x20070] = 0\n 77090: a3 = u64 [sp]\n 77092: jump @1034 if a0 <u a3\n      : @1026 (gas: 19)\n 77096: a0 = reverse a1\n 77098: a1 = a0 >> 0x20\n 77101: a2 = reverse a2\n 77103: a3 = a2 << 0x20\n 77106: a1 = a1 | a3\n 77109: a0 = a0 << 0x20\n 77112: a4 = reverse a4\n 77114: a4 = a4 >> 0x20\n 77117: a0 = a0 | a4\n 77120: a4 = u64 [0x300c0]\n 77125: a5 = u32 [0x300d0]\n 77130: a2 = a2 >> 0x20\n 77133: a3 = u64 [0x300c8]\n 77138: a0 = a0 ^ a4\n 77141: a2 = a2 ^ a5\n 77144: a0 = a0 | a2\n 77147: a1 = a1 ^ a3\n 77150: a0 = a0 | a1\n 77153: jump @1029 if a0 != 0\n      : @1027 (gas: 78)\n 77157: a0 = u64 [sp + 0x48]\n 77160: u64 [sp + 0xa0] = a0\n 77164: a0 = u64 [sp + 0x38]\n 77167: u64 [sp + 0xc0] = a0\n 77171: a0 = u64 [sp + 0x28]\n 77174: u64 [sp + 0xe0] = a0\n 77178: a0 = u64 [sp + 0x20]\n 77181: u64 [sp + 0x100] = a0\n 77185: a0 = u64 [sp + 0x68]\n 77188: u64 [sp + 0xa8] = a0\n 77192: a0 = u64 [sp + 0x58]\n 77195: u64 [sp + 0xc8] = a0\n 77199: a0 = u64 [sp + 0x40]\n 77202: u64 [sp + 0xe8] = a0\n 77206: a0 = u64 [sp + 0x30]\n 77209: u64 [sp + 0x108] = a0\n 77213: a0 = u64 [sp + 0x80]\n 77217: u64 [sp + 0xb0] = a0\n 77221: a0 = u64 [sp + 0x70]\n 77224: u64 [sp + 0xd0] = a0\n 77228: a0 = u64 [sp + 0x60]\n 77231: u64 [sp + 0xf0] = a0\n 77235: a0 = u64 [sp + 0x50]\n 77238: u64 [sp + 0x110] = a0\n 77242: a0 = u64 [sp + 0x90]\n 77246: u64 [sp + 0xb8] = a0\n 77250: a0 = u64 [sp + 0x88]\n 77254: u64 [sp + 0xd8] = a0\n 77258: a0 = u64 [sp + 0x78]\n 77261: u64 [sp + 0xf8] = a0\n 77265: a0 = sp + 0x100\n 77269: a1 = sp + 0xe0\n 77273: a2 = sp + 0xc0\n 77277: a3 = sp + 0xa0\n 77281: a4 = u64 [sp + 0x98]\n 77285: u64 [sp + 0x118] = a4\n 77289: ra = 0x378\n 77293: sp = sp + 0xfffffffffffffba0\n 77297: u64 [sp + 0x458] = ra\n 77301: u64 [sp + 0x450] = s0\n 77305: u64 [sp + 0x448] = s1\n 77309: s0 = sp + 0x460\n 77313: sp = sp & 0xffffffffffffffe0\n 77316: a4 = u64 [a3 + 0x18]\n 77319: u64 [sp + 0x68] = a4\n 77322: a4 = u64 [a3 + 0x10]\n 77325: u64 [sp + 0x70] = a4\n 77328: a4 = u64 [a3 + 0x8]\n 77331: u64 [sp + 0x78] = a4\n 77334: a3 = u64 [a3]\n 77336: u64 [sp + 0x80] = a3\n 77340: a3 = u64 [a2 + 0x18]\n 77343: u64 [sp + 0x88] = a3\n 77347: a3 = u64 [a2 + 0x10]\n 77350: u64 [sp + 0x90] = a3\n 77354: a3 = u64 [a2 + 0x8]\n 77357: u64 [sp + 0x98] = a3\n 77361: a2 = u64 [a2]\n 77363: u64 [sp + 0xa0] = a2\n 77367: a2 = u64 [a1 + 0x18]\n 77370: u64 [sp + 0x58] = a2\n 77373: a2 = u64 [a1 + 0x10]\n 77376: u64 [sp + 0x50] = a2\n 77379: a2 = u64 [a1 + 0x8]\n 77382: u64 [sp + 0x48] = a2\n 77385: a1 = u64 [a1]\n 77387: u64 [sp + 0x40] = a1\n 77390: a1 = u64 [a0]\n 77392: u64 [sp + 0xd8] = a1\n 77396: a1 = u64 [a0 + 0x8]\n 77399: u64 [sp + 0xe0] = a1\n 77403: a1 = u64 [a0 + 0x10]\n 77406: u64 [sp + 0xe8] = a1\n 77410: s1 = u64 [a0 + 0x18]\n 77413: a1 = 0x20\n 77416: a0 = 0\n 77418: ra = 0x3a4\n 77422: jump @0\n      : @1028 [@dyn 444] (gas: 6)\n 77426: sp = s0 + 0xfffffffffffffe60\n 77430: ra = u64 [sp + 0x198]\n 77434: s0 = u64 [sp + 0x190]\n 77438: s1 = u64 [sp + 0x188]\n 77442: sp = sp + 0x1a0\n 77446: ret\n      : @1029 (gas: 3)\n 77448: a0 = 0x40\n 77451: a1 = 0x20\n 77454: ra = 890, jump @0\n      : @1030 [@dyn 445] (gas: 103)\n 77461: a1 = u8 [a0 + 0x11]\n 77464: a2 = u8 [a0 + 0x10]\n 77467: a3 = u8 [a0 + 0x12]\n 77470: a4 = u8 [a0 + 0x13]\n 77473: a1 = a1 << 0x8\n 77476: a1 = a1 | a2\n 77479: a3 = a3 << 0x10\n 77482: a4 = a4 << 0x18\n 77485: a3 = a3 | a4\n 77488: a1 = a1 | a3\n 77491: a2 = u8 [a0 + 0x15]\n 77494: a3 = u8 [a0 + 0x14]\n 77497: a4 = u8 [a0 + 0x16]\n 77500: a5 = u8 [a0 + 0x17]\n 77503: a2 = a2 << 0x8\n 77506: a2 = a2 | a3\n 77509: a4 = a4 << 0x10\n 77512: a5 = a5 << 0x18\n 77515: a4 = a4 | a5\n 77518: a2 = a2 | a4\n 77521: a2 = a2 << 0x20\n 77524: t0 = a2 | a1\n 77527: a2 = u8 [a0 + 0x1]\n 77530: a3 = u8 [a0]\n 77532: a4 = u8 [a0 + 0x2]\n 77535: a5 = u8 [a0 + 0x3]\n 77538: a2 = a2 << 0x8\n 77541: a2 = a2 | a3\n 77544: a4 = a4 << 0x10\n 77547: a5 = a5 << 0x18\n 77550: a4 = a4 | a5\n 77553: a2 = a2 | a4\n 77556: a3 = u8 [a0 + 0x5]\n 77559: a4 = u8 [a0 + 0x4]\n 77562: a5 = u8 [a0 + 0x6]\n 77565: s1 = u8 [a0 + 0x7]\n 77568: a3 = a3 << 0x8\n 77571: a3 = a3 | a4\n 77574: a5 = a5 << 0x10\n 77577: s1 = s1 << 0x18\n 77580: a5 = a5 | s1\n 77583: a3 = a3 | a5\n 77586: a3 = a3 << 0x20\n 77589: a2 = a2 | a3\n 77592: a3 = u8 [a0 + 0x19]\n 77595: a4 = u8 [a0 + 0x18]\n 77598: a5 = u8 [a0 + 0x1a]\n 77601: s1 = u8 [a0 + 0x1b]\n 77604: a3 = a3 << 0x8\n 77607: a3 = a3 | a4\n 77610: a5 = a5 << 0x10\n 77613: s1 = s1 << 0x18\n 77616: a5 = a5 | s1\n 77619: a3 = a3 | a5\n 77622: a4 = u8 [a0 + 0x1d]\n 77625: a5 = u8 [a0 + 0x1c]\n 77628: s1 = u8 [a0 + 0x1e]\n 77631: a1 = u8 [a0 + 0x1f]\n 77634: a4 = a4 << 0x8\n 77637: a4 = a4 | a5\n 77640: s1 = s1 << 0x10\n 77643: a1 = a1 << 0x18\n 77646: a1 = a1 | s1\n 77649: a1 = a1 | a4\n 77652: a1 = a1 << 0x20\n 77655: a3 = a3 | a1\n 77658: a1 = u8 [a0 + 0x9]\n 77661: a4 = u8 [a0 + 0x8]\n 77664: a5 = u8 [a0 + 0xa]\n 77667: s1 = u8 [a0 + 0xb]\n 77670: a1 = a1 << 0x8\n 77673: a1 = a1 | a4\n 77676: a5 = a5 << 0x10\n 77679: s1 = s1 << 0x18\n 77682: a5 = a5 | s1\n 77685: a1 = a1 | a5\n 77688: a4 = u8 [a0 + 0xd]\n 77691: a5 = u8 [a0 + 0xc]\n 77694: s1 = u8 [a0 + 0xe]\n 77697: a0 = u8 [a0 + 0xf]\n 77700: a4 = a4 << 0x8\n 77703: a4 = a4 | a5\n 77706: s1 = s1 << 0x10\n 77709: a0 = a0 << 0x18\n 77712: a0 = a0 | s1\n 77715: a0 = a0 | a4\n 77718: a0 = a0 << 0x20\n 77721: a0 = a0 | a1\n 77724: s1 = reverse a0\n 77726: a1 = reverse a3\n 77728: a2 = reverse a2\n 77730: a0 = reverse t0\n 77732: u64 [sp + 0x98] = a0\n 77736: u64 [sp + 0x90] = a2\n 77740: a0 = a0 | a2\n 77743: a2 = a1\n 77745: a1 = a1 | s1\n 77748: a1 = a1 | a0\n 77751: a1 = a1 >> 0x20\n 77754: a0 = a0 | s1\n 77757: a0 = a0 << 0x20\n 77760: a0 = a0 | a1\n 77763: jump @1034 if a0 != 0\n      : @1031 (gas: 5)\n 77767: u64 [sp + 0x88] = a2\n 77771: i32 a0 = a2 + 0\n 77773: a1 = 0x20\n 77776: u64 [sp + 0x80] = a0\n 77780: ra = 892, jump @0\n      : @1032 [@dyn 446] (gas: 50)\n 77787: u8 [a0 + 31] = 0\n 77790: u8 [a0 + 30] = 0\n 77793: u8 [a0 + 29] = 0\n 77796: u8 [a0 + 28] = 0\n 77799: u8 [a0 + 27] = 0\n 77802: u8 [a0 + 26] = 0\n 77805: u8 [a0 + 25] = 0\n 77808: u8 [a0 + 24] = 0\n 77811: u8 [a0 + 23] = 0\n 77814: u8 [a0 + 22] = 0\n 77817: u8 [a0 + 21] = 0\n 77820: u8 [a0 + 20] = 0\n 77823: u8 [a0 + 19] = 0\n 77826: u8 [a0 + 18] = 0\n 77829: u8 [a0 + 17] = 0\n 77832: u8 [a0 + 16] = 0\n 77835: u8 [a0 + 15] = 0\n 77838: u8 [a0 + 14] = 0\n 77841: u8 [a0 + 13] = 0\n 77844: u8 [a0 + 12] = 0\n 77847: u8 [a0 + 11] = 0\n 77850: u8 [a0 + 10] = 0\n 77853: u8 [a0 + 9] = 0\n 77856: u8 [a0 + 8] = 0\n 77859: u8 [a0 + 7] = 0\n 77862: u8 [a0 + 6] = 0\n 77865: u8 [a0 + 5] = 0\n 77868: u8 [a0 + 4] = 0\n 77871: u8 [a0 + 3] = 0xa0\n 77876: u8 [a0 + 2] = 0x79\n 77880: u8 [a0 + 1] = 0xc3\n 77885: u8 [a0 + 0] = 0x8\n 77888: a1 = u64 [sp + 0x88]\n 77892: a0 = a1 + 0x4\n 77895: a1 = a0 <u a1\n 77898: a3 = u64 [sp + 0x98]\n 77902: a2 = a3 + a1\n 77905: a3 = a2 <u a3\n 77908: a3 = a1 if a1 == 0\n 77911: a3 = a3 + s1\n 77914: a1 = a3 <u s1\n 77917: a4 = u64 [sp + 0x90]\n 77921: a4 = a4 + a1\n 77924: u64 [sp + 0x128] = a2\n 77928: u64 [sp + 0x120] = a0\n 77932: u64 [sp + 0x130] = a3\n 77936: a0 = sp + 0x140\n 77940: a1 = sp + 0x120\n 77944: u64 [sp + 0x138] = a4\n 77948: ra = 894, jump @743\n      : @1033 [@dyn 447] (gas: 30)\n 77954: a0 = u64 [sp + 0x148]\n 77958: t0 = u64 [sp + 0x158]\n 77962: t1 = u64 [sp + 0x140]\n 77966: a3 = u64 [sp + 0x150]\n 77970: a1 = u64 [sp + 0x98]\n 77974: a4 = a0 ^ a1\n 77977: a5 = a0 <u a1\n 77980: t2 = a1\n 77982: a2 = u64 [sp + 0x88]\n 77986: a1 = t1 <u a2\n 77989: a5 = a1 if a4 == 0\n 77992: a4 = a3 - s1\n 77995: a3 = a3 <u s1\n 77998: s1 = u64 [sp + 0x90]\n 78002: s1 = t0 - s1\n 78005: s1 = s1 - a3\n 78008: a3 = a4 <u a5\n 78011: s1 = s1 - a3\n 78014: a4 = a4 - a5\n 78017: a0 = a0 - t2\n 78020: a1 = a0 - a1\n 78023: a0 = t1 - a2\n 78026: a1 = a1 | s1\n 78029: a2 = a0 | a4\n 78032: a2 = a2 | a1\n 78035: a1 = a1 | a4\n 78038: a2 = a2 >> 0x20\n 78041: a1 = a1 << 0x20\n 78044: a1 = a1 | a2\n 78047: jump @1035 if a1 == 0\n      : @1034 (gas: 1)\n 78050: trap\n      : @1035 (gas: 4)\n 78051: i32 s1 = a0 + 0\n 78053: a0 = u64 [sp + 0x80]\n 78057: a1 = s1\n 78059: ra = 896, jump @0\n      : @1036 [@dyn 448] (gas: 6)\n 78066: i32 a1 = a0 + 0\n 78068: a0 = 0x1\n 78071: a2 = s1\n 78073: ra = 0x382\n 78077: ecalli 14 // 'seal_return'\n 78079: fallthrough\n      : @1037 [@dyn 449] (gas: 9)\n 78080: a2 = u64 [a1 + 0x18]\n 78083: a3 = u64 [a1 + 0x10]\n 78086: a4 = u64 [a1 + 0x8]\n 78089: a1 = u64 [a1]\n 78091: u64 [a0 + 0x18] = a2\n 78094: u64 [a0 + 0x10] = a3\n 78097: u64 [a0 + 0x8] = a4\n 78100: u64 [a0] = a1\n 78102: ret\n      : @1038 (gas: 17)\n 78104: sp = sp + 0xffffffffffffffa0\n 78107: u64 [sp + 0x58] = ra\n 78110: u64 [sp + 0x50] = s0\n 78113: u64 [sp + 0x48] = s1\n 78116: a3 = u64 [a1 + 0x18]\n 78119: a4 = u64 [a1 + 0x10]\n 78122: a5 = u64 [a1 + 0x8]\n 78125: s1 = u64 [a1]\n 78127: a1 = a5 | a3\n 78130: a2 = s1 | a4\n 78133: a2 = a2 | a1\n 78136: a2 = a2 >> 0x20\n 78139: a1 = a1 | a4\n 78142: a1 = a1 << 0x20\n 78145: a1 = a1 | a2\n 78148: u64 [sp + 0x28] = a0\n 78151: jump @1045 if a1 != 0\n      : @1039 (gas: 19)\n 78155: a0 = s1 + 0x20\n 78158: u64 [sp + 0x30] = a0\n 78161: a0 = a0 <u s1\n 78164: a1 = a5 + a0\n 78167: u64 [sp + 0x40] = a1\n 78170: u64 [sp + 0x8] = a5\n 78173: s0 = a1 <u a5\n 78176: s0 = a0 if a0 == 0\n 78179: s0 = s0 + a4\n 78182: u64 [sp + 0x10] = a4\n 78185: a0 = s0 <u a4\n 78188: u64 [sp + 0x18] = a3\n 78191: a0 = a0 + a3\n 78194: u64 [sp + 0x38] = a0\n 78197: u64 [sp] = s1\n 78199: i32 a0 = s1 + 0\n 78201: a1 = 0x20\n 78204: s1 = 0x20\n 78207: ra = 900, jump @0\n      : @1040 [@dyn 450] (gas: 45)\n 78214: u8 [a0 + 0x1f] = s1\n 78217: a1 = u64 [sp + 0x30]\n 78220: s1 = a1\n 78222: a1 = a1 | s0\n 78225: a2 = u64 [sp + 0x40]\n 78228: a4 = u64 [sp + 0x38]\n 78231: a2 = a2 | a4\n 78234: a1 = a1 | a2\n 78237: a1 = a1 >> 0x20\n 78240: u64 [sp + 0x20] = s0\n 78243: a2 = a2 | s0\n 78246: a2 = a2 << 0x20\n 78249: a1 = a1 | a2\n 78252: u8 [a0 + 30] = 0\n 78255: u8 [a0 + 29] = 0\n 78258: u8 [a0 + 28] = 0\n 78261: u8 [a0 + 27] = 0\n 78264: u8 [a0 + 26] = 0\n 78267: u8 [a0 + 25] = 0\n 78270: u8 [a0 + 24] = 0\n 78273: u8 [a0 + 23] = 0\n 78276: u8 [a0 + 22] = 0\n 78279: u8 [a0 + 21] = 0\n 78282: u8 [a0 + 20] = 0\n 78285: u8 [a0 + 19] = 0\n 78288: u8 [a0 + 18] = 0\n 78291: u8 [a0 + 17] = 0\n 78294: u8 [a0 + 16] = 0\n 78297: u8 [a0 + 15] = 0\n 78300: u8 [a0 + 14] = 0\n 78303: u8 [a0 + 13] = 0\n 78306: u8 [a0 + 12] = 0\n 78309: u8 [a0 + 11] = 0\n 78312: u8 [a0 + 10] = 0\n 78315: u8 [a0 + 9] = 0\n 78318: u8 [a0 + 8] = 0\n 78321: u8 [a0 + 7] = 0\n 78324: u8 [a0 + 6] = 0\n 78327: u8 [a0 + 5] = 0\n 78330: u8 [a0 + 4] = 0\n 78333: u8 [a0 + 3] = 0\n 78336: u8 [a0 + 2] = 0\n 78339: u8 [a0 + 1] = 0\n 78342: u8 [a0 + 0] = 0\n 78344: jump @1045 if a1 != 0\n      : @1041 (gas: 4)\n 78348: i32 s0 = s1 + 0\n 78350: a1 = 0x20\n 78353: a0 = s0\n 78355: ra = 902, jump @0\n      : @1042 [@dyn 451] (gas: 41)\n 78362: u8 [a0 + 31] = 0x1f\n 78366: u8 [a0 + 30] = 0\n 78369: u8 [a0 + 29] = 0\n 78372: u8 [a0 + 28] = 0\n 78375: u8 [a0 + 27] = 0\n 78378: u8 [a0 + 26] = 0\n 78381: u8 [a0 + 25] = 0\n 78384: u8 [a0 + 24] = 0\n 78387: u8 [a0 + 23] = 0\n 78390: u8 [a0 + 22] = 0\n 78393: u8 [a0 + 21] = 0\n 78396: u8 [a0 + 20] = 0\n 78399: u8 [a0 + 19] = 0\n 78402: u8 [a0 + 18] = 0\n 78405: u8 [a0 + 17] = 0\n 78408: u8 [a0 + 16] = 0\n 78411: u8 [a0 + 15] = 0\n 78414: u8 [a0 + 14] = 0\n 78417: u8 [a0 + 13] = 0\n 78420: u8 [a0 + 12] = 0\n 78423: u8 [a0 + 11] = 0\n 78426: u8 [a0 + 10] = 0\n 78429: u8 [a0 + 9] = 0\n 78432: u8 [a0 + 8] = 0\n 78435: u8 [a0 + 7] = 0\n 78438: u8 [a0 + 6] = 0\n 78441: u8 [a0 + 5] = 0\n 78444: u8 [a0 + 4] = 0\n 78447: u8 [a0 + 3] = 0\n 78450: u8 [a0 + 2] = 0\n 78453: u8 [a0 + 1] = 0\n 78456: a1 = u64 [sp + 0x20]\n 78459: a2 = u64 [sp + 0x38]\n 78462: a1 = a1 | a2\n 78465: a2 = 0xffffffe0\n 78475: a2 = s1 <u a2\n 78478: a3 = u64 [sp + 0x40]\n 78481: a2 = 0 if a3 != 0\n 78483: a2 = 0 if a1 != 0\n 78485: u8 [a0 + 0] = 0\n 78487: jump @1045 if a2 == 0\n      : @1043 (gas: 3)\n 78491: i32 a0 = s0 + 0x20\n 78494: a1 = 0x20\n 78497: ra = 904, jump @0\n      : @1044 [@dyn 452] (gas: 54)\n 78504: u8 [a0 + 27] = 0x69\n 78508: u8 [a0 + 30] = 0x64\n 78512: u8 [a0 + 21] = 0x64\n 78516: u8 [a0 + 25] = 0x6c\n 78520: u8 [a0 + 17] = 0x6c\n 78524: u8 [a0 + 14] = 0x74\n 78528: u8 [a0 + 13] = 0x6e\n 78532: u8 [a0 + 29] = 0x65\n 78536: u8 [a0 + 19] = 0x65\n 78540: u8 [a0 + 12] = 0x65\n 78544: u8 [a0 + 28] = 0x6d\n 78548: u8 [a0 + 11] = 0x6d\n 78552: u8 [a0 + 22] = 0x79\n 78556: u8 [a0 + 10] = 0x79\n 78560: u8 [a0 + 26] = 0x61\n 78564: u8 [a0 + 20] = 0x61\n 78568: u8 [a0 + 16] = 0x61\n 78572: u8 [a0 + 9] = 0x61\n 78576: u8 [a0 + 8] = 0x70\n 78580: u8 [a0 + 31] = 0\n 78583: u8 [a0 + 23] = 0x20\n 78587: u8 [a0 + 15] = 0x20\n 78591: u8 [a0 + 7] = 0x20\n 78595: u8 [a0 + 6] = 0x3a\n 78599: u8 [a0 + 5] = 0x77\n 78603: u8 [a0 + 4] = 0x6f\n 78607: u8 [a0 + 18] = 0x72\n 78611: u8 [a0 + 3] = 0x72\n 78615: u8 [a0 + 24] = 0x63\n 78619: u8 [a0 + 2] = 0x63\n 78623: u8 [a0 + 1] = 0x73\n 78627: u8 [a0 + 0] = 0x45\n 78630: a1 = u64 [sp]\n 78632: a0 = a1 + 0x60\n 78635: a1 = a0 <u a1\n 78638: a3 = u64 [sp + 0x8]\n 78641: a2 = a3 + a1\n 78644: a3 = a2 <u a3\n 78647: a3 = a1 if a1 == 0\n 78650: a1 = u64 [sp + 0x10]\n 78653: a3 = a3 + a1\n 78656: a1 = a3 <u a1\n 78659: a4 = u64 [sp + 0x18]\n 78662: a1 = a1 + a4\n 78665: a4 = u64 [sp + 0x28]\n 78668: u64 [a4] = a0\n 78670: u64 [a4 + 0x8] = a2\n 78673: u64 [a4 + 0x10] = a3\n 78676: u64 [a4 + 0x18] = a1\n 78679: ra = u64 [sp + 0x58]\n 78682: s0 = u64 [sp + 0x50]\n 78685: s1 = u64 [sp + 0x48]\n 78688: sp = sp + 0x60\n 78691: ret\n      : @1045 (gas: 1)\n 78693: trap\n      : @1046 (gas: 17)\n 78694: sp = sp + 0xffffffffffffffa0\n 78697: u64 [sp + 0x58] = ra\n 78700: u64 [sp + 0x50] = s0\n 78703: u64 [sp + 0x48] = s1\n 78706: a3 = u64 [a1 + 0x18]\n 78709: a4 = u64 [a1 + 0x10]\n 78712: a5 = u64 [a1 + 0x8]\n 78715: s1 = u64 [a1]\n 78717: a1 = a5 | a3\n 78720: a2 = s1 | a4\n 78723: a2 = a2 | a1\n 78726: a2 = a2 >> 0x20\n 78729: a1 = a1 | a4\n 78732: a1 = a1 << 0x20\n 78735: a1 = a1 | a2\n 78738: u64 [sp + 0x28] = a0\n 78741: jump @1053 if a1 != 0\n      : @1047 (gas: 19)\n 78745: a0 = s1 + 0x20\n 78748: u64 [sp + 0x30] = a0\n 78751: a0 = a0 <u s1\n 78754: a1 = a5 + a0\n 78757: u64 [sp + 0x40] = a1\n 78760: u64 [sp + 0x8] = a5\n 78763: s0 = a1 <u a5\n 78766: s0 = a0 if a0 == 0\n 78769: s0 = s0 + a4\n 78772: u64 [sp + 0x10] = a4\n 78775: a0 = s0 <u a4\n 78778: u64 [sp + 0x18] = a3\n 78781: a0 = a0 + a3\n 78784: u64 [sp + 0x38] = a0\n 78787: u64 [sp] = s1\n 78789: i32 a0 = s1 + 0\n 78791: a1 = 0x20\n 78794: s1 = 0x20\n 78797: ra = 906, jump @0\n      : @1048 [@dyn 453] (gas: 45)\n 78804: u8 [a0 + 0x1f] = s1\n 78807: a1 = u64 [sp + 0x30]\n 78810: s1 = a1\n 78812: a1 = a1 | s0\n 78815: a2 = u64 [sp + 0x40]\n 78818: a4 = u64 [sp + 0x38]\n 78821: a2 = a2 | a4\n 78824: a1 = a1 | a2\n 78827: a1 = a1 >> 0x20\n 78830: u64 [sp + 0x20] = s0\n 78833: a2 = a2 | s0\n 78836: a2 = a2 << 0x20\n 78839: a1 = a1 | a2\n 78842: u8 [a0 + 30] = 0\n 78845: u8 [a0 + 29] = 0\n 78848: u8 [a0 + 28] = 0\n 78851: u8 [a0 + 27] = 0\n 78854: u8 [a0 + 26] = 0\n 78857: u8 [a0 + 25] = 0\n 78860: u8 [a0 + 24] = 0\n 78863: u8 [a0 + 23] = 0\n 78866: u8 [a0 + 22] = 0\n 78869: u8 [a0 + 21] = 0\n 78872: u8 [a0 + 20] = 0\n 78875: u8 [a0 + 19] = 0\n 78878: u8 [a0 + 18] = 0\n 78881: u8 [a0 + 17] = 0\n 78884: u8 [a0 + 16] = 0\n 78887: u8 [a0 + 15] = 0\n 78890: u8 [a0 + 14] = 0\n 78893: u8 [a0 + 13] = 0\n 78896: u8 [a0 + 12] = 0\n 78899: u8 [a0 + 11] = 0\n 78902: u8 [a0 + 10] = 0\n 78905: u8 [a0 + 9] = 0\n 78908: u8 [a0 + 8] = 0\n 78911: u8 [a0 + 7] = 0\n 78914: u8 [a0 + 6] = 0\n 78917: u8 [a0 + 5] = 0\n 78920: u8 [a0 + 4] = 0\n 78923: u8 [a0 + 3] = 0\n 78926: u8 [a0 + 2] = 0\n 78929: u8 [a0 + 1] = 0\n 78932: u8 [a0 + 0] = 0\n 78934: jump @1053 if a1 != 0\n      : @1049 (gas: 4)\n 78938: i32 s0 = s1 + 0\n 78940: a1 = 0x20\n 78943: a0 = s0\n 78945: ra = 908, jump @0\n      : @1050 [@dyn 454] (gas: 41)\n 78952: u8 [a0 + 31] = 0x1e\n 78956: u8 [a0 + 30] = 0\n 78959: u8 [a0 + 29] = 0\n 78962: u8 [a0 + 28] = 0\n 78965: u8 [a0 + 27] = 0\n 78968: u8 [a0 + 26] = 0\n 78971: u8 [a0 + 25] = 0\n 78974: u8 [a0 + 24] = 0\n 78977: u8 [a0 + 23] = 0\n 78980: u8 [a0 + 22] = 0\n 78983: u8 [a0 + 21] = 0\n 78986: u8 [a0 + 20] = 0\n 78989: u8 [a0 + 19] = 0\n 78992: u8 [a0 + 18] = 0\n 78995: u8 [a0 + 17] = 0\n 78998: u8 [a0 + 16] = 0\n 79001: u8 [a0 + 15] = 0\n 79004: u8 [a0 + 14] = 0\n 79007: u8 [a0 + 13] = 0\n 79010: u8 [a0 + 12] = 0\n 79013: u8 [a0 + 11] = 0\n 79016: u8 [a0 + 10] = 0\n 79019: u8 [a0 + 9] = 0\n 79022: u8 [a0 + 8] = 0\n 79025: u8 [a0 + 7] = 0\n 79028: u8 [a0 + 6] = 0\n 79031: u8 [a0 + 5] = 0\n 79034: u8 [a0 + 4] = 0\n 79037: u8 [a0 + 3] = 0\n 79040: u8 [a0 + 2] = 0\n 79043: u8 [a0 + 1] = 0\n 79046: a1 = u64 [sp + 0x20]\n 79049: a2 = u64 [sp + 0x38]\n 79052: a1 = a1 | a2\n 79055: a2 = 0xffffffe0\n 79065: a2 = s1 <u a2\n 79068: a3 = u64 [sp + 0x40]\n 79071: a2 = 0 if a3 != 0\n 79073: a2 = 0 if a1 != 0\n 79075: u8 [a0 + 0] = 0\n 79077: jump @1053 if a2 == 0\n      : @1051 (gas: 3)\n 79081: i32 a0 = s0 + 0x20\n 79084: a1 = 0x20\n 79087: ra = 910, jump @0\n      : @1052 [@dyn 455] (gas: 54)\n 79094: u8 [a0 + 28] = 0x74\n 79098: u8 [a0 + 23] = 0x64\n 79102: u8 [a0 + 21] = 0x6e\n 79106: u8 [a0 + 24] = 0x69\n 79110: u8 [a0 + 20] = 0x69\n 79114: u8 [a0 + 17] = 0x69\n 79118: u8 [a0 + 29] = 0x65\n 79122: u8 [a0 + 15] = 0x65\n 79126: u8 [a0 + 13] = 0x61\n 79130: u8 [a0 + 12] = 0x68\n 79134: u8 [a0 + 27] = 0x75\n 79138: u8 [a0 + 9] = 0x75\n 79142: u8 [a0 + 26] = 0x70\n 79146: u8 [a0 + 8] = 0x70\n 79150: u8 [a0 + 31] = 0\n 79153: u8 [a0 + 30] = 0\n 79156: u8 [a0 + 22] = 0x20\n 79160: u8 [a0 + 19] = 0x20\n 79164: u8 [a0 + 16] = 0x20\n 79168: u8 [a0 + 7] = 0x20\n 79172: u8 [a0 + 6] = 0x3a\n 79176: u8 [a0 + 5] = 0x77\n 79180: u8 [a0 + 4] = 0x6f\n 79184: u8 [a0 + 10] = 0x72\n 79188: u8 [a0 + 3] = 0x72\n 79192: u8 [a0 + 11] = 0x63\n 79196: u8 [a0 + 2] = 0x63\n 79200: u8 [a0 + 25] = 0x73\n 79204: u8 [a0 + 18] = 0x73\n 79208: u8 [a0 + 14] = 0x73\n 79212: u8 [a0 + 1] = 0x73\n 79216: u8 [a0 + 0] = 0x45\n 79219: a1 = u64 [sp]\n 79221: a0 = a1 + 0x60\n 79224: a1 = a0 <u a1\n 79227: a3 = u64 [sp + 0x8]\n 79230: a2 = a3 + a1\n 79233: a3 = a2 <u a3\n 79236: a3 = a1 if a1 == 0\n 79239: a1 = u64 [sp + 0x10]\n 79242: a3 = a3 + a1\n 79245: a1 = a3 <u a1\n 79248: a4 = u64 [sp + 0x18]\n 79251: a1 = a1 + a4\n 79254: a4 = u64 [sp + 0x28]\n 79257: u64 [a4] = a0\n 79259: u64 [a4 + 0x8] = a2\n 79262: u64 [a4 + 0x10] = a3\n 79265: u64 [a4 + 0x18] = a1\n 79268: ra = u64 [sp + 0x58]\n 79271: s0 = u64 [sp + 0x50]\n 79274: s1 = u64 [sp + 0x48]\n 79277: sp = sp + 0x60\n 79280: ret\n      : @1053 (gas: 1)\n 79282: trap\n      : @1054 (gas: 16)\n 79283: sp = sp + 0xfffffffffffffee0\n 79287: u64 [sp + 0x118] = ra\n 79291: u64 [sp + 0x110] = s0\n 79295: u64 [sp + 0x108] = s1\n 79299: s0 = sp + 0x120\n 79303: sp = sp & 0xfffffffffffffff0\n 79306: a4 = u64 [a2 + 0x18]\n 79309: a5 = u64 [a2 + 0x10]\n 79312: s1 = u64 [a2 + 0x8]\n 79315: u64 [sp + 0x50] = a4\n 79318: u64 [sp + 0x48] = a5\n 79321: a4 = a4 | a5\n 79324: a5 = s1 <u 0x1\n 79327: a5 = 0 if a4 != 0\n 79329: u64 [sp] = a0\n 79331: jump @1068 if a5 == 0\n      : @1055 (gas: 35)\n 79335: a0 = u64 [a3 + 0x18]\n 79338: u64 [sp + 0x18] = a0\n 79341: a0 = u64 [a3 + 0x10]\n 79344: u64 [sp + 0x20] = a0\n 79347: a0 = u64 [a3 + 0x8]\n 79350: u64 [sp + 0x8] = a0\n 79353: a0 = u64 [a3]\n 79355: u64 [sp + 0x10] = a0\n 79358: a2 = u64 [a2]\n 79360: a0 = u64 [a1 + 0x18]\n 79363: u64 [sp + 0x70] = a0\n 79366: a0 = u64 [a1 + 0x10]\n 79369: u64 [sp + 0x78] = a0\n 79372: a0 = u64 [a1 + 0x8]\n 79375: u64 [sp + 0x68] = a0\n 79378: a0 = u64 [a1]\n 79380: u64 [sp + 0x60] = a0\n 79383: a0 = a2 + 0x1f\n 79386: u64 [sp + 0x40] = a2\n 79389: a1 = a0 <u a2\n 79392: a1 = a1 + s1\n 79395: a1 = a1 & 0x1\n 79398: a0 = a0 & 0xffffffffffffffe0\n 79401: a2 = a0 + 0x20\n 79404: a0 = a2 <u a0\n 79407: a3 = a1 + a0\n 79410: a4 = a3 <u a1\n 79413: a4 = a0 if a0 == 0\n 79416: u64 [sp + 216] = 0\n 79420: u64 [sp + 0xc0] = a2\n 79424: u64 [sp + 0xc8] = a3\n 79428: a0 = sp + 0xe0\n 79432: a1 = sp + 0xc0\n 79436: u64 [sp + 0xd0] = a4\n 79440: ra = 912, jump @113\n      : @1056 [@dyn 456] (gas: 15)\n 79447: a0 = u64 [sp + 0xf8]\n 79451: a2 = u64 [sp + 0xf0]\n 79455: a1 = u64 [sp + 0xe8]\n 79459: a3 = u64 [sp + 0xe0]\n 79463: u64 [sp + 0x58] = a0\n 79466: u64 [sp + 0x30] = a1\n 79469: a0 = a0 | a1\n 79472: a1 = a3 | a2\n 79475: a1 = a1 | a0\n 79478: a1 = a1 >> 0x20\n 79481: u64 [sp + 0x38] = a2\n 79484: a0 = a0 | a2\n 79487: a0 = a0 << 0x20\n 79490: a0 = a0 | a1\n 79493: jump @1067 if a0 != 0\n      : @1057 (gas: 4)\n 79497: u64 [sp + 0x28] = a3\n 79500: i32 a0 = a3 + 0\n 79502: a1 = 0x20\n 79505: ra = 914, jump @0\n      : @1058 [@dyn 457] (gas: 102)\n 79512: t2 = u64 [sp + 0x40]\n 79515: a1 = u64 [sp + 0x60]\n 79518: a1 = a1 + t2\n 79521: a3 = a1 <u t2\n 79524: a2 = u64 [sp + 0x68]\n 79527: a2 = a2 + s1\n 79530: a4 = a2 + a3\n 79533: a5 = a4 ^ s1\n 79536: a2 = a4 <u s1\n 79539: a2 = a3 if a5 == 0\n 79542: a5 = u64 [sp + 0x8]\n 79545: a3 = a4 ^ a5\n 79548: a4 = a5 <u a4\n 79551: a5 = u64 [sp + 0x10]\n 79554: a1 = a5 <u a1\n 79557: ra = u64 [sp + 0x48]\n 79560: a5 = u64 [sp + 0x78]\n 79563: a5 = a5 + ra\n 79566: a1 = a4 if a3 != 0\n 79569: a3 = a5 <u ra\n 79572: t1 = u64 [sp + 0x50]\n 79575: a4 = u64 [sp + 0x70]\n 79578: a4 = a4 + t1\n 79581: a3 = a3 + a4\n 79584: a2 = a2 + a5\n 79587: a4 = a2 <u a5\n 79590: a3 = a3 + a4\n 79593: a5 = u64 [sp + 0x18]\n 79596: a4 = a3 ^ a5\n 79599: a3 = a5 <u a3\n 79602: t0 = u64 [sp + 0x20]\n 79605: a5 = t0 <u a2\n 79608: a3 = a5 if a4 == 0\n 79611: a2 = a2 ^ t0\n 79614: a2 = a2 | a4\n 79617: a1 = a3 if a2 != 0\n 79620: a2 = reverse t2\n 79622: a3 = a2 >> 0x38\n 79625: u8 [a0 + 0x1f] = a3\n 79628: a3 = a2 >> 0x30\n 79631: u8 [a0 + 0x1e] = a3\n 79634: a3 = a2 >> 0x28\n 79637: u8 [a0 + 0x1d] = a3\n 79640: a3 = a2 >> 0x20\n 79643: u8 [a0 + 0x1c] = a3\n 79646: a3 = a2 >> 0x18\n 79649: u8 [a0 + 0x1b] = a3\n 79652: a3 = a2 >> 0x10\n 79655: u8 [a0 + 0x1a] = a3\n 79658: a3 = a2 >> 0x8\n 79661: u8 [a0 + 0x19] = a3\n 79664: a3 = reverse s1\n 79666: u8 [a0 + 0x18] = a2\n 79669: a2 = a3 >> 0x38\n 79672: u8 [a0 + 0x17] = a2\n 79675: a2 = a3 >> 0x30\n 79678: u8 [a0 + 0x16] = a2\n 79681: a2 = a3 >> 0x28\n 79684: u8 [a0 + 0x15] = a2\n 79687: a2 = a3 >> 0x20\n 79690: u8 [a0 + 0x14] = a2\n 79693: a2 = a3 >> 0x18\n 79696: u8 [a0 + 0x13] = a2\n 79699: a2 = a3 >> 0x10\n 79702: u8 [a0 + 0x12] = a2\n 79705: a2 = reverse ra\n 79707: u8 [a0 + 0x10] = a3\n 79710: a3 = a3 >> 0x8\n 79713: u8 [a0 + 0x11] = a3\n 79716: a3 = a2 >> 0x38\n 79719: u8 [a0 + 0xf] = a3\n 79722: a3 = a2 >> 0x30\n 79725: u8 [a0 + 0xe] = a3\n 79728: a3 = a2 >> 0x28\n 79731: u8 [a0 + 0xd] = a3\n 79734: a3 = a2 >> 0x20\n 79737: u8 [a0 + 0xc] = a3\n 79740: a3 = a2 >> 0x18\n 79743: u8 [a0 + 0xb] = a3\n 79746: a3 = a2 >> 0x10\n 79749: u8 [a0 + 0xa] = a3\n 79752: a3 = reverse t1\n 79754: u8 [a0 + 0x8] = a2\n 79757: a2 = a2 >> 0x8\n 79760: u8 [a0 + 0x9] = a2\n 79763: a2 = a3 >> 0x38\n 79766: u8 [a0 + 0x7] = a2\n 79769: a2 = a3 >> 0x30\n 79772: u8 [a0 + 0x6] = a2\n 79775: a2 = a3 >> 0x28\n 79778: u8 [a0 + 0x5] = a2\n 79781: a2 = a3 >> 0x20\n 79784: u8 [a0 + 0x4] = a2\n 79787: a2 = a3 >> 0x18\n 79790: u8 [a0 + 0x3] = a2\n 79793: a2 = a3 >> 0x10\n 79796: u8 [a0 + 0x2] = a2\n 79799: u8 [a0] = a3\n 79801: a3 = a3 >> 0x8\n 79804: u8 [a0 + 0x1] = a3\n 79807: t0 = u64 [sp + 0x60]\n 79810: jump @1072 if a1 != 0\n      : @1059 (gas: 12)\n 79814: a2 = u64 [sp + 0x78]\n 79817: a0 = t0 | a2\n 79820: a1 = u64 [sp + 0x70]\n 79823: a3 = u64 [sp + 0x68]\n 79826: a1 = a1 | a3\n 79829: a0 = a0 | a1\n 79832: a0 = a0 >> 0x20\n 79835: a1 = a1 | a2\n 79838: a1 = a1 << 0x20\n 79841: a0 = a0 | a1\n 79844: a3 = u64 [sp + 0x58]\n 79847: jump @1067 if a0 != 0\n      : @1060 (gas: 11)\n 79851: a0 = t2 | ra\n 79854: a1 = s1 | t1\n 79857: a0 = a0 | a1\n 79860: a0 = a0 >> 0x20\n 79863: a1 = a1 | ra\n 79866: a1 = a1 << 0x20\n 79869: a0 = a0 | a1\n 79872: a2 = u64 [sp + 0x38]\n 79875: a4 = u64 [sp + 0x30]\n 79878: a5 = u64 [sp + 0x28]\n 79881: jump @1067 if a0 != 0\n      : @1061 (gas: 7)\n 79885: u64 [sp + 0x78] = s1\n 79888: a0 = a2 | a3\n 79891: a1 = 0xffffffe0\n 79901: a1 = a5 <u a1\n 79904: a1 = 0 if a4 != 0\n 79906: a1 = 0 if a0 != 0\n 79908: jump @1067 if a1 == 0\n      : @1062 (gas: 16)\n 79912: s1 = a5 + 0x20\n 79915: a0 = s1 <u a5\n 79918: a1 = a4 + a0\n 79921: u64 [sp + 0x20] = a1\n 79924: a1 = a1 <u a4\n 79927: a1 = a0 if a0 == 0\n 79930: a1 = a1 + a2\n 79933: u64 [sp + 0x68] = a1\n 79936: a0 = a1 <u a2\n 79939: u64 [sp + 0x70] = a0\n 79942: i32 t0 = t0 + 0\n 79944: u64 [sp + 0x60] = t0\n 79947: i32 a0 = s1 + 0\n 79949: i32 a1 = t2 + 0\n 79951: u64 [sp + 0x18] = a1\n 79954: ra = 916, jump @0\n      : @1063 [@dyn 458] (gas: 5)\n 79961: i32 a0 = a0 + 0\n 79963: a1 = u64 [sp + 0x18]\n 79966: a2 = u64 [sp + 0x60]\n 79969: ecalli 2 // 'call_data_copy'\n 79971: fallthrough\n      : @1064 (gas: 31)\n 79972: a0 = u64 [sp + 0x40]\n 79975: a0 = a0 + s1\n 79978: a1 = a0 <u s1\n 79981: a2 = u64 [sp + 0x78]\n 79984: a4 = u64 [sp + 0x20]\n 79987: a2 = a2 + a4\n 79990: a2 = a2 + a1\n 79993: a3 = a2 ^ a4\n 79996: a4 = a2 <u a4\n 79999: a4 = a1 if a3 == 0\n 80002: a1 = u64 [sp + 0x48]\n 80005: a3 = u64 [sp + 0x68]\n 80008: a1 = a1 + a3\n 80011: a4 = a4 + a1\n 80014: t0 = a4 <u a1\n 80017: a1 = a1 <u a3\n 80020: a5 = u64 [sp + 0x50]\n 80023: s1 = u64 [sp + 0x58]\n 80026: a5 = a5 + s1\n 80029: a3 = u64 [sp + 0x70]\n 80032: a5 = a5 + a3\n 80035: a1 = a1 + a5\n 80038: a1 = a1 + t0\n 80041: a3 = a0 | a4\n 80044: a1 = a1 | a2\n 80047: a3 = a3 | a1\n 80050: a3 = a3 >> 0x20\n 80053: a1 = a1 | a4\n 80056: a1 = a1 << 0x20\n 80059: a1 = a1 | a3\n 80062: jump @1067 if a1 != 0\n      : @1065 (gas: 3)\n 80066: i32 a0 = a0 + 0\n 80068: a1 = 0x20\n 80071: ra = 918, jump @0\n      : @1066 [@dyn 459] (gas: 46)\n 80078: u8 [a0 + 31] = 0\n 80081: u8 [a0 + 30] = 0\n 80084: u8 [a0 + 29] = 0\n 80087: u8 [a0 + 28] = 0\n 80090: u8 [a0 + 27] = 0\n 80093: u8 [a0 + 26] = 0\n 80096: u8 [a0 + 25] = 0\n 80099: u8 [a0 + 24] = 0\n 80102: u8 [a0 + 23] = 0\n 80105: u8 [a0 + 22] = 0\n 80108: u8 [a0 + 21] = 0\n 80111: u8 [a0 + 20] = 0\n 80114: u8 [a0 + 19] = 0\n 80117: u8 [a0 + 18] = 0\n 80120: u8 [a0 + 17] = 0\n 80123: u8 [a0 + 16] = 0\n 80126: u8 [a0 + 15] = 0\n 80129: u8 [a0 + 14] = 0\n 80132: u8 [a0 + 13] = 0\n 80135: u8 [a0 + 12] = 0\n 80138: u8 [a0 + 11] = 0\n 80141: u8 [a0 + 10] = 0\n 80144: u8 [a0 + 9] = 0\n 80147: u8 [a0 + 8] = 0\n 80150: u8 [a0 + 7] = 0\n 80153: u8 [a0 + 6] = 0\n 80156: u8 [a0 + 5] = 0\n 80159: u8 [a0 + 4] = 0\n 80162: u8 [a0 + 3] = 0\n 80165: u8 [a0 + 2] = 0\n 80168: u8 [a0 + 1] = 0\n 80171: u8 [a0 + 0] = 0\n 80173: a0 = u64 [sp]\n 80175: a1 = u64 [sp + 0x28]\n 80178: u64 [a0] = a1\n 80180: u64 [a0 + 0x18] = s1\n 80183: a1 = u64 [sp + 0x30]\n 80186: u64 [a0 + 0x8] = a1\n 80189: a1 = u64 [sp + 0x38]\n 80192: u64 [a0 + 0x10] = a1\n 80195: sp = s0 + 0xfffffffffffffee0\n 80199: ra = u64 [sp + 0x118]\n 80203: s0 = u64 [sp + 0x110]\n 80207: s1 = u64 [sp + 0x108]\n 80211: sp = sp + 0x120\n 80215: ret\n      : @1067 (gas: 1)\n 80217: trap\n      : @1068 (gas: 8)\n 80218: u64 [sp + 176] = 0\n 80222: u64 [sp + 168] = 0\n 80226: u64 [sp + 160] = 0\n 80230: a0 = 0x4e487b7100000000\n 80240: a1 = sp + 0xa0\n 80244: u64 [sp + 0xb8] = a0\n 80248: a0 = 0\n 80250: ra = 920, jump @23\n      : @1069 [@dyn 460] (gas: 7)\n 80257: u64 [sp + 152] = 0\n 80261: u64 [sp + 144] = 0\n 80265: u64 [sp + 128] = 0x41\n 80270: a0 = 0x4\n 80273: a1 = sp + 0x80\n 80277: u64 [sp + 136] = 0\n 80281: ra = 922, jump @23\n      : @1070 [@dyn 461] (gas: 3)\n 80288: a1 = 0x24\n 80291: a0 = 0\n 80293: ra = 924, jump @0\n      : @1071 [@dyn 462] (gas: 5)\n 80300: i32 a1 = a0 + 0\n 80302: a0 = 0x1\n 80305: a2 = 0x24\n 80308: ecalli 14 // 'seal_return'\n 80310: fallthrough\n      : @1072 (gas: 3)\n 80311: a0 = 0\n 80313: a1 = 0\n 80315: ra = 926, jump @0\n      : @1073 [@dyn 463] (gas: 6)\n 80322: i32 a1 = a0 + 0\n 80324: a0 = 0x1\n 80327: a2 = 0\n 80329: ra = 0x3a0\n 80333: ecalli 14 // 'seal_return'\n 80335: fallthrough\n      : @1074 [@dyn 464] (gas: 33)\n 80336: sp = sp + 0xffffffffffffff60\n 80340: u64 [sp + 0x98] = ra\n 80344: u64 [sp + 0x90] = s0\n 80348: u64 [sp + 0x88] = s1\n 80352: s0 = sp + 0xa0\n 80356: sp = sp & 0xfffffffffffffff0\n 80359: t0 = u64 [a1]\n 80361: t1 = u64 [a1 + 0x8]\n 80364: t2 = u64 [a1 + 0x10]\n 80367: ra = u64 [a1 + 0x18]\n 80370: a4 = u64 [a2]\n 80372: a3 = u64 [a2 + 0x8]\n 80375: a5 = u64 [a2 + 0x10]\n 80378: a2 = u64 [a2 + 0x18]\n 80381: a1 = u32 [0x20078]\n 80386: s1 = a0\n 80388: u64 [sp + 24] = 0\n 80391: u64 [sp + 16] = 0\n 80394: u64 [sp + 8] = 0\n 80397: u64 [sp] = a1\n 80399: u64 [sp + 0x38] = a2\n 80402: u64 [sp + 0x30] = a5\n 80405: u64 [sp + 0x28] = a3\n 80408: u64 [sp + 0x20] = a4\n 80411: u64 [sp + 0x58] = ra\n 80414: u64 [sp + 0x50] = t2\n 80417: u64 [sp + 0x48] = t1\n 80420: a0 = sp + 0x60\n 80423: a1 = sp + 0x40\n 80426: a2 = sp + 0x20\n 80429: a3 = sp\n 80431: u64 [sp + 0x40] = t0\n 80434: ra = 930, jump @1054\n      : @1075 [@dyn 465] (gas: 14)\n 80440: a0 = u64 [sp + 0x70]\n 80443: a1 = u64 [sp + 0x78]\n 80446: a2 = u64 [sp + 0x60]\n 80449: a3 = u64 [sp + 0x68]\n 80452: u64 [s1 + 0x10] = a0\n 80455: u64 [s1 + 0x18] = a1\n 80458: u64 [s1] = a2\n 80460: u64 [s1 + 0x8] = a3\n 80463: sp = s0 + 0xffffffffffffff60\n 80467: ra = u64 [sp + 0x98]\n 80471: s0 = u64 [sp + 0x90]\n 80475: s1 = u64 [sp + 0x88]\n 80479: sp = sp + 0xa0\n 80483: ret\n      : @1076 [@dyn 466] (gas: 75)\n 80485: u64 [sp + 0x60] = s1\n 80488: a5 = reverse s1\n 80490: a1 = u64 [sp + 0xe8]\n 80494: a2 = reverse a1\n 80496: a1 = u64 [sp + 0xe0]\n 80500: a4 = reverse a1\n 80502: a1 = u64 [sp + 0xd8]\n 80506: a3 = reverse a1\n 80508: u8 [a0 + 0x18] = a3\n 80511: u8 [a0 + 0x10] = a4\n 80514: u8 [a0 + 0x8] = a2\n 80517: u8 [a0] = a5\n 80519: a1 = a3 >> 0x38\n 80522: u8 [a0 + 0x1f] = a1\n 80525: a1 = a3 >> 0x30\n 80528: u8 [a0 + 0x1e] = a1\n 80531: a1 = a3 >> 0x28\n 80534: u8 [a0 + 0x1d] = a1\n 80537: a1 = a3 >> 0x20\n 80540: u8 [a0 + 0x1c] = a1\n 80543: a1 = a3 >> 0x18\n 80546: u8 [a0 + 0x1b] = a1\n 80549: a1 = a3 >> 0x10\n 80552: u8 [a0 + 0x1a] = a1\n 80555: u64 [sp + 0x28] = a3\n 80558: a1 = a3 >> 0x8\n 80561: u8 [a0 + 0x19] = a1\n 80564: a1 = a4 >> 0x38\n 80567: u8 [a0 + 0x17] = a1\n 80570: a1 = a4 >> 0x30\n 80573: u8 [a0 + 0x16] = a1\n 80576: a1 = a4 >> 0x28\n 80579: u8 [a0 + 0x15] = a1\n 80582: a1 = a4 >> 0x20\n 80585: u8 [a0 + 0x14] = a1\n 80588: a1 = a4 >> 0x18\n 80591: u8 [a0 + 0x13] = a1\n 80594: a1 = a4 >> 0x10\n 80597: u8 [a0 + 0x12] = a1\n 80600: u64 [sp + 0x20] = a4\n 80603: a1 = a4 >> 0x8\n 80606: u8 [a0 + 0x11] = a1\n 80609: a1 = a2 >> 0x38\n 80612: u8 [a0 + 0xf] = a1\n 80615: a1 = a2 >> 0x30\n 80618: u8 [a0 + 0xe] = a1\n 80621: a1 = a2 >> 0x28\n 80624: u8 [a0 + 0xd] = a1\n 80627: a1 = a2 >> 0x20\n 80630: u8 [a0 + 0xc] = a1\n 80633: a1 = a2 >> 0x18\n 80636: u8 [a0 + 0xb] = a1\n 80639: a1 = a2 >> 0x10\n 80642: u8 [a0 + 0xa] = a1\n 80645: u64 [sp + 0x30] = a2\n 80648: a1 = a2 >> 0x8\n 80651: u8 [a0 + 0x9] = a1\n 80654: a1 = a5 >> 0x38\n 80657: u8 [a0 + 0x7] = a1\n 80660: a1 = a5 >> 0x30\n 80663: u8 [a0 + 0x6] = a1\n 80666: a1 = a5 >> 0x28\n 80669: u8 [a0 + 0x5] = a1\n 80672: a1 = a5 >> 0x20\n 80675: u8 [a0 + 0x4] = a1\n 80678: a1 = a5 >> 0x18\n 80681: u8 [a0 + 0x3] = a1\n 80684: a1 = a5 >> 0x10\n 80687: u8 [a0 + 0x2] = a1\n 80690: u64 [sp + 0x38] = a5\n 80693: a1 = a5 >> 0x8\n 80696: u8 [a0 + 0x1] = a1\n 80699: a0 = 0x20\n 80702: a1 = 0x20\n 80705: ra = 934, jump @0\n      : @1077 [@dyn 467] (gas: 35)\n 80712: u8 [a0 + 31] = 0x4\n 80716: u8 [a0 + 30] = 0\n 80719: u8 [a0 + 29] = 0\n 80722: u8 [a0 + 28] = 0\n 80725: u8 [a0 + 27] = 0\n 80728: u8 [a0 + 26] = 0\n 80731: u8 [a0 + 25] = 0\n 80734: u8 [a0 + 24] = 0\n 80737: u8 [a0 + 23] = 0\n 80740: u8 [a0 + 22] = 0\n 80743: u8 [a0 + 21] = 0\n 80746: u8 [a0 + 20] = 0\n 80749: u8 [a0 + 19] = 0\n 80752: u8 [a0 + 18] = 0\n 80755: u8 [a0 + 17] = 0\n 80758: u8 [a0 + 16] = 0\n 80761: u8 [a0 + 15] = 0\n 80764: u8 [a0 + 14] = 0\n 80767: u8 [a0 + 13] = 0\n 80770: u8 [a0 + 12] = 0\n 80773: u8 [a0 + 11] = 0\n 80776: u8 [a0 + 10] = 0\n 80779: u8 [a0 + 9] = 0\n 80782: u8 [a0 + 8] = 0\n 80785: u8 [a0 + 7] = 0\n 80788: u8 [a0 + 6] = 0\n 80791: u8 [a0 + 5] = 0\n 80794: u8 [a0 + 4] = 0\n 80797: u8 [a0 + 3] = 0\n 80800: u8 [a0 + 2] = 0\n 80803: u8 [a0 + 1] = 0\n 80806: u8 [a0 + 0] = 0\n 80808: a1 = 0x40\n 80811: a0 = 0\n 80813: ra = 936, jump @0\n      : @1078 [@dyn 468] (gas: 43)\n 80820: i32 a0 = a0 + 0\n 80822: i32 a2 = sp + 0x400\n 80826: a1 = 0x40\n 80829: ecalli 9 // 'hash_keccak_256'\n 80831: a0 = u64 [sp + 0x400]\n 80835: a1 = u64 [sp + 0x408]\n 80839: a2 = u64 [sp + 0x410]\n 80843: a3 = u64 [sp + 0x418]\n 80847: a4 = reverse a0\n 80849: a5 = reverse a1\n 80851: a1 = reverse a2\n 80853: a0 = reverse a3\n 80855: a2 = a0 + 0x2\n 80858: u64 [sp + 0xb0] = a0\n 80862: a0 = a2 <u a0\n 80865: a3 = a1 + a0\n 80868: u64 [sp + 0xb8] = a1\n 80872: a1 = a3 <u a1\n 80875: a1 = a0 if a0 == 0\n 80878: s1 = a5 + a1\n 80881: u64 [sp + 0xc0] = a5\n 80885: a0 = s1 <u a5\n 80888: u64 [sp + 0xc8] = a4\n 80892: a0 = a0 + a4\n 80895: u64 [sp + 0xf0] = a3\n 80899: u64 [sp + 0x3c8] = a3\n 80903: u64 [sp + 0xf8] = a2\n 80907: u64 [sp + 0x3c0] = a2\n 80911: u64 [sp + 0x3d0] = s1\n 80915: u64 [sp + 0xd0] = a0\n 80919: u64 [sp + 0x3d8] = a0\n 80923: u64 [sp + 1048] = 0\n 80927: u64 [sp + 1040] = 0\n 80931: u64 [sp + 1032] = 0\n 80935: u64 [sp + 1024] = 0\n 80939: u32 [sp + 992] = 0x20\n 80944: i32 a1 = sp + 0x3c0\n 80948: i32 a3 = sp + 0x400\n 80952: i32 a4 = sp + 0x3e0\n 80956: a2 = 0xffffffffffffffff\n 80959: a0 = 0\n 80961: ecalli 8 // 'get_storage'\n 80963: fallthrough\n      : @1079 (gas: 2)\n 80964: a0 = u8 [sp + 0x400]\n 80968: jump @1097 if a0 != 0\n      : @1080 (gas: 20)\n 80972: u64 [sp + 0xa8] = s1\n 80976: u64 [sp + 0x3d0] = s1\n 80980: a0 = u64 [sp + 0xf0]\n 80984: u64 [sp + 0x3c8] = a0\n 80988: a0 = u64 [sp + 0xf8]\n 80992: u64 [sp + 0x3c0] = a0\n 80996: a0 = u64 [sp + 0xd0]\n 81000: u64 [sp + 0x3d8] = a0\n 81004: u64 [sp + 1048] = 0\n 81008: u64 [sp + 1040] = 0\n 81012: u64 [sp + 1032] = 0\n 81016: u64 [sp + 1024] = 0\n 81020: u32 [sp + 992] = 0x20\n 81025: i32 a1 = sp + 0x3c0\n 81029: i32 a3 = sp + 0x400\n 81033: i32 a4 = sp + 0x3e0\n 81037: a2 = 0xffffffffffffffff\n 81040: a0 = 0\n 81042: ecalli 8 // 'get_storage'\n 81044: fallthrough\n      : @1081 (gas: 2)\n 81045: a0 = u8 [sp + 0x401]\n 81049: jump @1102 if a0 != 0\n      : @1082 (gas: 20)\n 81053: a0 = u64 [sp + 0x40]\n 81056: u64 [sp + 0x2e0] = a0\n 81060: a0 = u64 [sp + 0xd8]\n 81064: u64 [sp + 0x300] = a0\n 81068: a0 = u64 [sp + 0x48]\n 81071: u64 [sp + 0x2e8] = a0\n 81075: a0 = u64 [sp + 0xe0]\n 81079: u64 [sp + 0x308] = a0\n 81083: a0 = u64 [sp + 0x50]\n 81086: u64 [sp + 0x2f0] = a0\n 81090: a0 = u64 [sp + 0xe8]\n 81094: u64 [sp + 0x310] = a0\n 81098: a0 = u64 [sp + 0x58]\n 81101: u64 [sp + 0x2f8] = a0\n 81105: a0 = sp + 0x320\n 81109: a1 = sp + 0x300\n 81113: a2 = sp + 0x2e0\n 81117: a3 = u64 [sp + 0x60]\n 81120: u64 [sp + 0x318] = a3\n 81124: ra = 938, jump @1418\n      : @1083 [@dyn 469] (gas: 33)\n 81130: a0 = u64 [sp + 0x320]\n 81134: u64 [sp + 0xe8] = a0\n 81138: a1 = u64 [sp + 0x328]\n 81142: u64 [sp + 0xe0] = a1\n 81146: a1 = u64 [sp + 0x330]\n 81150: u64 [sp + 0xd8] = a1\n 81154: s1 = u64 [sp + 0x338]\n 81158: a0 = u32 [0x20078]\n 81163: u64 [sp + 632] = 0\n 81167: u64 [sp + 624] = 0\n 81171: u64 [sp + 616] = 0\n 81175: u64 [sp + 0x260] = a0\n 81179: a0 = u64 [sp + 0x68]\n 81182: u64 [sp + 0x298] = a0\n 81186: a0 = u64 [sp + 0x70]\n 81189: u64 [sp + 0x290] = a0\n 81193: a0 = u64 [sp + 0x78]\n 81196: u64 [sp + 0x288] = a0\n 81200: a0 = u64 [sp + 0x80]\n 81204: u64 [sp + 0x280] = a0\n 81208: a0 = u64 [sp + 0x88]\n 81212: u64 [sp + 0x2b8] = a0\n 81216: a0 = u64 [sp + 0x90]\n 81220: u64 [sp + 0x2b0] = a0\n 81224: a0 = u64 [sp + 0x98]\n 81228: u64 [sp + 0x2a8] = a0\n 81232: a0 = sp + 0x2c0\n 81236: a1 = sp + 0x2a0\n 81240: a2 = sp + 0x280\n 81244: a3 = sp + 0x260\n 81248: a4 = u64 [sp + 0xa0]\n 81252: u64 [sp + 0x2a0] = a4\n 81256: ra = 940, jump @1054\n      : @1084 [@dyn 470] (gas: 19)\n 81262: a0 = u64 [sp + 0x2c0]\n 81266: a1 = u64 [sp + 0x2c8]\n 81270: a2 = u64 [sp + 0x2d0]\n 81274: a3 = u64 [sp + 0x2d8]\n 81278: u64 [sp + 0x1d8] = a3\n 81282: u64 [sp + 0x1d0] = a2\n 81286: u64 [sp + 0x1c8] = a1\n 81290: u64 [sp + 0x1c0] = a0\n 81294: u64 [sp + 0x1f8] = s1\n 81298: a0 = u64 [sp + 0xd8]\n 81302: u64 [sp + 0x1f0] = a0\n 81306: a0 = u64 [sp + 0xe0]\n 81310: u64 [sp + 0x1e8] = a0\n 81314: a0 = sp + 0x200\n 81318: a1 = sp + 0x1e0\n 81322: a2 = sp + 0x1c0\n 81326: a3 = u64 [sp + 0xe8]\n 81330: u64 [sp + 0x1e0] = a3\n 81334: ra = 942, jump @1521\n      : @1085 [@dyn 471] (gas: 25)\n 81341: a0 = u64 [sp + 0x200]\n 81345: u64 [sp + 0xe8] = a0\n 81349: a0 = u32 [sp + 0x210]\n 81353: u64 [sp + 0xe0] = a0\n 81357: a0 = u64 [sp + 0x208]\n 81361: u64 [sp + 0xd8] = a0\n 81365: t0 = u64 [sp + 0x220]\n 81369: a0 = u64 [sp + 0x228]\n 81373: a1 = u64 [sp + 0x230]\n 81377: a3 = u64 [sp + 0x238]\n 81381: a4 = u64 [sp + 0x240]\n 81385: a5 = u64 [sp + 0x248]\n 81389: s1 = u64 [sp + 0x250]\n 81393: a2 = u64 [sp + 0x258]\n 81397: u64 [sp + 0x198] = a2\n 81401: u64 [sp + 0x190] = s1\n 81405: u64 [sp + 0x188] = a5\n 81409: u64 [sp + 0x180] = a4\n 81413: u64 [sp + 0x1b8] = a3\n 81417: u64 [sp + 0x1b0] = a1\n 81421: u64 [sp + 0x1a8] = a0\n 81425: a0 = sp + 0x1a0\n 81429: a1 = sp + 0x180\n 81433: u64 [sp + 0x1a0] = t0\n 81437: ra = 944, jump @1536\n      : @1086 [@dyn 472] (gas: 20)\n 81444: a0 = u64 [sp + 0xc8]\n 81448: u64 [sp + 0x3d8] = a0\n 81452: a0 = u64 [sp + 0xc0]\n 81456: u64 [sp + 0x3d0] = a0\n 81460: a0 = u64 [sp + 0xb8]\n 81464: u64 [sp + 0x3c8] = a0\n 81468: a0 = u64 [sp + 0xb0]\n 81472: u64 [sp + 0x3c0] = a0\n 81476: u64 [sp + 1048] = 0\n 81480: u64 [sp + 1040] = 0\n 81484: u64 [sp + 1032] = 0\n 81488: u64 [sp + 1024] = 0\n 81492: u32 [sp + 992] = 0x20\n 81497: i32 a1 = sp + 0x3c0\n 81501: i32 a3 = sp + 0x400\n 81505: i32 a4 = sp + 0x3e0\n 81509: a2 = 0xffffffffffffffff\n 81512: a0 = 0\n 81514: ecalli 8 // 'get_storage'\n 81516: fallthrough\n      : @1087 (gas: 12)\n 81517: a0 = u64 [sp + 0x408]\n 81521: a1 = u32 [sp + 0x410]\n 81525: a2 = u64 [sp + 0x400]\n 81529: a3 = u64 [sp + 0xd8]\n 81533: a0 = a0 ^ a3\n 81536: a3 = u64 [sp + 0xe0]\n 81540: a1 = a1 ^ a3\n 81543: a3 = u64 [sp + 0xe8]\n 81547: a2 = a2 ^ a3\n 81550: a1 = a1 | a2\n 81553: a0 = a0 | a1\n 81556: jump @1107 if a0 != 0\n      : @1088 (gas: 43)\n 81560: a0 = u64 [sp + 0xa8]\n 81564: u64 [sp + 0x3d0] = a0\n 81568: a0 = u64 [sp + 0xf0]\n 81572: u64 [sp + 0x3c8] = a0\n 81576: a0 = u64 [sp + 0xf8]\n 81580: u64 [sp + 0x3c0] = a0\n 81584: s1 = u64 [sp + 0xd0]\n 81588: u64 [sp + 0x3d8] = s1\n 81592: u64 [sp + 1048] = 0\n 81596: u64 [sp + 1040] = 0\n 81600: u64 [sp + 1032] = 0\n 81604: u64 [sp + 1024] = 0\n 81608: u32 [sp + 992] = 0x20\n 81613: i32 a1 = sp + 0x3c0\n 81617: i32 a3 = sp + 0x400\n 81621: i32 a4 = sp + 0x3e0\n 81625: a2 = 0xffffffffffffffff\n 81628: a0 = 0\n 81630: ecalli 8 // 'get_storage'\n 81632: a0 = u64 [sp + 0x400]\n 81636: a1 = u64 [sp + 0x408]\n 81640: a2 = u64 [sp + 0x410]\n 81644: a3 = u64 [sp + 0x418]\n 81648: a0 = a0 & 0xffffffffffffff00\n 81652: a0 = a0 | 0x1\n 81655: u64 [sp + 0x3d8] = s1\n 81659: a4 = u64 [sp + 0xa8]\n 81663: u64 [sp + 0x3d0] = a4\n 81667: a4 = u64 [sp + 0xf0]\n 81671: u64 [sp + 0x3c8] = a4\n 81675: a4 = u64 [sp + 0xf8]\n 81679: u64 [sp + 0x3c0] = a4\n 81683: u64 [sp + 0x418] = a3\n 81687: u64 [sp + 0x410] = a2\n 81691: u64 [sp + 0x408] = a1\n 81695: u64 [sp + 0x400] = a0\n 81699: i32 a1 = sp + 0x3c0\n 81703: i32 a3 = sp + 0x400\n 81707: a2 = 0xffffffffffffffff\n 81710: a4 = 0x20\n 81713: a0 = 0\n 81715: ecalli 16 // 'set_storage'\n 81717: fallthrough\n      : @1089 (gas: 3)\n 81718: s1 = 0x20070\n 81723: a0 = i32 [0x20070]\n 81728: jump @1092 if a0 == 0\n      : @1090 (gas: 6)\n 81731: u64 [sp + 0xf8] = a0\n 81735: a0 = 0x30080\n 81740: i32 a0 = a0 + 0\n 81742: i32 a1 = s1 + 0\n 81744: ecalli 7 // 'get_immutable_data'\n 81746: fallthrough\n      : @1091 (gas: 4)\n 81747: a0 = i32 [0x20070]\n 81752: u32 [0x20070] = 0\n 81757: a1 = u64 [sp + 0xf8]\n 81761: jump @1113 if a0 <u a1\n      : @1092 (gas: 53)\n 81765: a1 = u64 [0x300c0]\n 81770: a2 = u64 [0x300c8]\n 81775: a0 = u64 [0x300d0]\n 81780: s1 = 0xffffffff\n 81790: a1 = a1 & 0xffffffffffffffff\n 81793: u64 [sp + 0xf8] = a1\n 81797: a2 = a2 & 0xffffffffffffffff\n 81800: u64 [sp + 0xf0] = a2\n 81804: s1 = s1 & a0\n 81807: a0 = u64 [sp + 0xb0]\n 81811: a0 = a0 + 0x1\n 81814: a1 = a0 <u 0x1\n 81817: a2 = u64 [sp + 0xb8]\n 81821: a1 = a1 + a2\n 81824: a2 = a0 | a1\n 81827: a2 = a2 <u 0x1\n 81830: a3 = u64 [sp + 0xc0]\n 81834: a2 = a2 + a3\n 81837: a3 = a2 <u a3\n 81840: a4 = u64 [sp + 0xc8]\n 81844: a3 = a3 + a4\n 81847: u64 [sp + 0x3c8] = a1\n 81851: u64 [sp + 0x3c0] = a0\n 81855: u64 [sp + 0x3d0] = a2\n 81859: u64 [sp + 0x3d8] = a3\n 81863: u64 [sp + 1048] = 0\n 81867: u64 [sp + 1040] = 0\n 81871: u64 [sp + 1032] = 0\n 81875: u64 [sp + 1024] = 0\n 81879: u32 [sp + 992] = 0x20\n 81884: i32 a1 = sp + 0x3c0\n 81888: i32 a3 = sp + 0x400\n 81892: i32 a4 = sp + 0x3e0\n 81896: a2 = 0xffffffffffffffff\n 81899: a0 = 0\n 81901: ecalli 8 // 'get_storage'\n 81903: a0 = u64 [sp + 0x400]\n 81907: a1 = u64 [sp + 0x408]\n 81911: a2 = u64 [sp + 0x410]\n 81915: a3 = u64 [sp + 0x418]\n 81919: u64 [sp + 0x118] = a3\n 81923: u64 [sp + 0x110] = a2\n 81927: u64 [sp + 0x108] = a1\n 81931: u64 [sp + 0x100] = a0\n 81935: u64 [sp + 312] = 0\n 81939: u64 [sp + 0x130] = s1\n 81943: a0 = u64 [sp + 0xf0]\n 81947: u64 [sp + 0x128] = a0\n 81951: a0 = sp + 0x120\n 81955: a1 = sp + 0x100\n 81959: a2 = u64 [sp + 0xf8]\n 81963: u64 [sp + 0x120] = a2\n 81967: ra = 946, jump @1463\n      : @1093 [@dyn 473] (gas: 3)\n 81973: a0 = 0x40\n 81976: a1 = 0x20\n 81979: ra = 948, jump @0\n      : @1094 [@dyn 474] (gas: 100)\n 81986: a1 = u8 [a0 + 0x11]\n 81989: a2 = u8 [a0 + 0x10]\n 81992: a3 = u8 [a0 + 0x12]\n 81995: a4 = u8 [a0 + 0x13]\n 81998: a1 = a1 << 0x8\n 82001: a1 = a1 | a2\n 82004: a3 = a3 << 0x10\n 82007: a4 = a4 << 0x18\n 82010: a3 = a3 | a4\n 82013: a1 = a1 | a3\n 82016: a2 = u8 [a0 + 0x15]\n 82019: a3 = u8 [a0 + 0x14]\n 82022: a4 = u8 [a0 + 0x16]\n 82025: a5 = u8 [a0 + 0x17]\n 82028: a2 = a2 << 0x8\n 82031: a2 = a2 | a3\n 82034: a4 = a4 << 0x10\n 82037: a5 = a5 << 0x18\n 82040: a4 = a4 | a5\n 82043: a2 = a2 | a4\n 82046: a2 = a2 << 0x20\n 82049: t0 = a2 | a1\n 82052: a2 = u8 [a0 + 0x1]\n 82055: a3 = u8 [a0]\n 82057: a4 = u8 [a0 + 0x2]\n 82060: a5 = u8 [a0 + 0x3]\n 82063: a2 = a2 << 0x8\n 82066: a2 = a2 | a3\n 82069: a4 = a4 << 0x10\n 82072: a5 = a5 << 0x18\n 82075: a4 = a4 | a5\n 82078: a2 = a2 | a4\n 82081: a3 = u8 [a0 + 0x5]\n 82084: a4 = u8 [a0 + 0x4]\n 82087: a5 = u8 [a0 + 0x6]\n 82090: s1 = u8 [a0 + 0x7]\n 82093: a3 = a3 << 0x8\n 82096: a3 = a3 | a4\n 82099: a5 = a5 << 0x10\n 82102: s1 = s1 << 0x18\n 82105: a5 = a5 | s1\n 82108: a3 = a3 | a5\n 82111: a3 = a3 << 0x20\n 82114: a2 = a2 | a3\n 82117: a3 = u8 [a0 + 0x19]\n 82120: a4 = u8 [a0 + 0x18]\n 82123: a5 = u8 [a0 + 0x1a]\n 82126: s1 = u8 [a0 + 0x1b]\n 82129: a3 = a3 << 0x8\n 82132: a3 = a3 | a4\n 82135: a5 = a5 << 0x10\n 82138: s1 = s1 << 0x18\n 82141: a5 = a5 | s1\n 82144: a3 = a3 | a5\n 82147: a4 = u8 [a0 + 0x1d]\n 82150: a5 = u8 [a0 + 0x1c]\n 82153: s1 = u8 [a0 + 0x1e]\n 82156: a1 = u8 [a0 + 0x1f]\n 82159: a4 = a4 << 0x8\n 82162: a4 = a4 | a5\n 82165: s1 = s1 << 0x10\n 82168: a1 = a1 << 0x18\n 82171: a1 = a1 | s1\n 82174: a1 = a1 | a4\n 82177: a1 = a1 << 0x20\n 82180: a3 = a3 | a1\n 82183: a1 = u8 [a0 + 0x9]\n 82186: a4 = u8 [a0 + 0x8]\n 82189: a5 = u8 [a0 + 0xa]\n 82192: s1 = u8 [a0 + 0xb]\n 82195: a1 = a1 << 0x8\n 82198: a1 = a1 | a4\n 82201: a5 = a5 << 0x10\n 82204: s1 = s1 << 0x18\n 82207: a5 = a5 | s1\n 82210: a1 = a1 | a5\n 82213: a4 = u8 [a0 + 0xd]\n 82216: a5 = u8 [a0 + 0xc]\n 82219: s1 = u8 [a0 + 0xe]\n 82222: a0 = u8 [a0 + 0xf]\n 82225: a4 = a4 << 0x8\n 82228: a4 = a4 | a5\n 82231: s1 = s1 << 0x10\n 82234: a0 = a0 << 0x18\n 82237: a0 = a0 | s1\n 82240: a0 = a0 | a4\n 82243: a0 = a0 << 0x20\n 82246: a0 = a0 | a1\n 82249: a1 = reverse a0\n 82251: a0 = reverse a3\n 82253: a2 = reverse a2\n 82255: a3 = reverse t0\n 82257: a2 = a2 | a3\n 82260: a3 = a0 | a1\n 82263: a3 = a3 | a2\n 82266: a3 = a3 >> 0x20\n 82269: a1 = a1 | a2\n 82272: a1 = a1 << 0x20\n 82275: a1 = a1 | a3\n 82278: jump @1113 if a1 != 0\n      : @1095 (gas: 2)\n 82282: i32 a0 = a0 + 0\n 82284: ra = 950, jump @0\n      : @1096 [@dyn 475] (gas: 27)\n 82291: a1 = u64 [0x20020]\n 82296: a2 = u64 [0x20028]\n 82301: a3 = u64 [0x20030]\n 82306: a4 = u64 [0x20038]\n 82311: u64 [sp + 0x418] = a1\n 82315: u64 [sp + 0x410] = a2\n 82319: u64 [sp + 0x408] = a3\n 82323: u64 [sp + 0x400] = a4\n 82327: a1 = u64 [sp + 0x20]\n 82330: u64 [sp + 0x430] = a1\n 82334: a1 = u64 [sp + 0x30]\n 82337: u64 [sp + 0x428] = a1\n 82341: a1 = u64 [sp + 0x38]\n 82344: u64 [sp + 0x420] = a1\n 82348: a1 = u64 [sp + 0x28]\n 82351: u64 [sp + 0x438] = a1\n 82355: i32 a2 = a0 + 0\n 82357: i32 a0 = sp + 0x400\n 82361: a1 = 0x2\n 82364: a3 = 0\n 82366: ecalli 6 // 'deposit_event'\n 82368: sp = s0 + 0xfffffffffffffba0\n 82372: ra = u64 [sp + 0x458]\n 82376: s0 = u64 [sp + 0x450]\n 82380: s1 = u64 [sp + 0x448]\n 82384: sp = sp + 0x460\n 82388: ret\n      : @1097 (gas: 3)\n 82390: a0 = 0x40\n 82393: a1 = 0x20\n 82396: ra = 952, jump @0\n      : @1098 [@dyn 476] (gas: 103)\n 82403: a1 = u8 [a0 + 0x11]\n 82406: a2 = u8 [a0 + 0x10]\n 82409: a3 = u8 [a0 + 0x12]\n 82412: a4 = u8 [a0 + 0x13]\n 82415: a1 = a1 << 0x8\n 82418: a1 = a1 | a2\n 82421: a3 = a3 << 0x10\n 82424: a4 = a4 << 0x18\n 82427: a3 = a3 | a4\n 82430: a1 = a1 | a3\n 82433: a2 = u8 [a0 + 0x15]\n 82436: a3 = u8 [a0 + 0x14]\n 82439: a4 = u8 [a0 + 0x16]\n 82442: a5 = u8 [a0 + 0x17]\n 82445: a2 = a2 << 0x8\n 82448: a2 = a2 | a3\n 82451: a4 = a4 << 0x10\n 82454: a5 = a5 << 0x18\n 82457: a4 = a4 | a5\n 82460: a2 = a2 | a4\n 82463: a2 = a2 << 0x20\n 82466: t0 = a2 | a1\n 82469: a2 = u8 [a0 + 0x1]\n 82472: a3 = u8 [a0]\n 82474: a4 = u8 [a0 + 0x2]\n 82477: a5 = u8 [a0 + 0x3]\n 82480: a2 = a2 << 0x8\n 82483: a2 = a2 | a3\n 82486: a4 = a4 << 0x10\n 82489: a5 = a5 << 0x18\n 82492: a4 = a4 | a5\n 82495: a2 = a2 | a4\n 82498: a3 = u8 [a0 + 0x5]\n 82501: a4 = u8 [a0 + 0x4]\n 82504: a5 = u8 [a0 + 0x6]\n 82507: s1 = u8 [a0 + 0x7]\n 82510: a3 = a3 << 0x8\n 82513: a3 = a3 | a4\n 82516: a5 = a5 << 0x10\n 82519: s1 = s1 << 0x18\n 82522: a5 = a5 | s1\n 82525: a3 = a3 | a5\n 82528: a3 = a3 << 0x20\n 82531: a2 = a2 | a3\n 82534: a3 = u8 [a0 + 0x19]\n 82537: a4 = u8 [a0 + 0x18]\n 82540: a5 = u8 [a0 + 0x1a]\n 82543: s1 = u8 [a0 + 0x1b]\n 82546: a3 = a3 << 0x8\n 82549: a3 = a3 | a4\n 82552: a5 = a5 << 0x10\n 82555: s1 = s1 << 0x18\n 82558: a5 = a5 | s1\n 82561: a3 = a3 | a5\n 82564: a4 = u8 [a0 + 0x1d]\n 82567: a5 = u8 [a0 + 0x1c]\n 82570: s1 = u8 [a0 + 0x1e]\n 82573: a1 = u8 [a0 + 0x1f]\n 82576: a4 = a4 << 0x8\n 82579: a4 = a4 | a5\n 82582: s1 = s1 << 0x10\n 82585: a1 = a1 << 0x18\n 82588: a1 = a1 | s1\n 82591: a1 = a1 | a4\n 82594: a1 = a1 << 0x20\n 82597: a3 = a3 | a1\n 82600: a1 = u8 [a0 + 0x9]\n 82603: a4 = u8 [a0 + 0x8]\n 82606: a5 = u8 [a0 + 0xa]\n 82609: s1 = u8 [a0 + 0xb]\n 82612: a1 = a1 << 0x8\n 82615: a1 = a1 | a4\n 82618: a5 = a5 << 0x10\n 82621: s1 = s1 << 0x18\n 82624: a5 = a5 | s1\n 82627: a1 = a1 | a5\n 82630: a4 = u8 [a0 + 0xd]\n 82633: a5 = u8 [a0 + 0xc]\n 82636: s1 = u8 [a0 + 0xe]\n 82639: a0 = u8 [a0 + 0xf]\n 82642: a4 = a4 << 0x8\n 82645: a4 = a4 | a5\n 82648: s1 = s1 << 0x10\n 82651: a0 = a0 << 0x18\n 82654: a0 = a0 | s1\n 82657: a0 = a0 | a4\n 82660: a0 = a0 << 0x20\n 82663: a0 = a0 | a1\n 82666: s1 = reverse a0\n 82668: a1 = reverse a3\n 82670: a2 = reverse a2\n 82672: a0 = reverse t0\n 82674: u64 [sp + 0xf8] = a0\n 82678: u64 [sp + 0xf0] = a2\n 82682: a0 = a0 | a2\n 82685: a2 = a1\n 82687: a1 = a1 | s1\n 82690: a1 = a1 | a0\n 82693: a1 = a1 >> 0x20\n 82696: a0 = a0 | s1\n 82699: a0 = a0 << 0x20\n 82702: a0 = a0 | a1\n 82705: jump @1113 if a0 != 0\n      : @1099 (gas: 5)\n 82709: u64 [sp + 0xe8] = a2\n 82713: i32 a0 = a2 + 0\n 82715: a1 = 0x20\n 82718: u64 [sp + 0xe0] = a0\n 82722: ra = 954, jump @0\n      : @1100 [@dyn 477] (gas: 50)\n 82729: u8 [a0 + 31] = 0\n 82732: u8 [a0 + 30] = 0\n 82735: u8 [a0 + 29] = 0\n 82738: u8 [a0 + 28] = 0\n 82741: u8 [a0 + 27] = 0\n 82744: u8 [a0 + 26] = 0\n 82747: u8 [a0 + 25] = 0\n 82750: u8 [a0 + 24] = 0\n 82753: u8 [a0 + 23] = 0\n 82756: u8 [a0 + 22] = 0\n 82759: u8 [a0 + 21] = 0\n 82762: u8 [a0 + 20] = 0\n 82765: u8 [a0 + 19] = 0\n 82768: u8 [a0 + 18] = 0\n 82771: u8 [a0 + 17] = 0\n 82774: u8 [a0 + 16] = 0\n 82777: u8 [a0 + 15] = 0\n 82780: u8 [a0 + 14] = 0\n 82783: u8 [a0 + 13] = 0\n 82786: u8 [a0 + 12] = 0\n 82789: u8 [a0 + 11] = 0\n 82792: u8 [a0 + 10] = 0\n 82795: u8 [a0 + 9] = 0\n 82798: u8 [a0 + 8] = 0\n 82801: u8 [a0 + 7] = 0\n 82804: u8 [a0 + 6] = 0\n 82807: u8 [a0 + 5] = 0\n 82810: u8 [a0 + 4] = 0\n 82813: u8 [a0 + 3] = 0xa0\n 82818: u8 [a0 + 2] = 0x79\n 82822: u8 [a0 + 1] = 0xc3\n 82827: u8 [a0 + 0] = 0x8\n 82830: a1 = u64 [sp + 0xe8]\n 82834: a0 = a1 + 0x4\n 82837: a1 = a0 <u a1\n 82840: a3 = u64 [sp + 0xf8]\n 82844: a2 = a3 + a1\n 82847: a3 = a2 <u a3\n 82850: a3 = a1 if a1 == 0\n 82853: a3 = a3 + s1\n 82856: a1 = a3 <u s1\n 82859: a4 = u64 [sp + 0xf0]\n 82863: a4 = a4 + a1\n 82866: u64 [sp + 0x388] = a2\n 82870: u64 [sp + 0x380] = a0\n 82874: u64 [sp + 0x390] = a3\n 82878: a0 = sp + 0x3a0\n 82882: a1 = sp + 0x380\n 82886: u64 [sp + 0x398] = a4\n 82890: ra = 956, jump @1038\n      : @1101 [@dyn 478] (gas: 5)\n 82896: a0 = u64 [sp + 0x3a8]\n 82900: t0 = u64 [sp + 0x3b8]\n 82904: t1 = u64 [sp + 0x3a0]\n 82908: a3 = u64 [sp + 0x3b0]\n 82912: jump @1112\n      : @1102 (gas: 3)\n 82915: a0 = 0x40\n 82918: a1 = 0x20\n 82921: ra = 958, jump @0\n      : @1103 [@dyn 479] (gas: 103)\n 82928: a1 = u8 [a0 + 0x11]\n 82931: a2 = u8 [a0 + 0x10]\n 82934: a3 = u8 [a0 + 0x12]\n 82937: a4 = u8 [a0 + 0x13]\n 82940: a1 = a1 << 0x8\n 82943: a1 = a1 | a2\n 82946: a3 = a3 << 0x10\n 82949: a4 = a4 << 0x18\n 82952: a3 = a3 | a4\n 82955: a1 = a1 | a3\n 82958: a2 = u8 [a0 + 0x15]\n 82961: a3 = u8 [a0 + 0x14]\n 82964: a4 = u8 [a0 + 0x16]\n 82967: a5 = u8 [a0 + 0x17]\n 82970: a2 = a2 << 0x8\n 82973: a2 = a2 | a3\n 82976: a4 = a4 << 0x10\n 82979: a5 = a5 << 0x18\n 82982: a4 = a4 | a5\n 82985: a2 = a2 | a4\n 82988: a2 = a2 << 0x20\n 82991: t0 = a2 | a1\n 82994: a2 = u8 [a0 + 0x1]\n 82997: a3 = u8 [a0]\n 82999: a4 = u8 [a0 + 0x2]\n 83002: a5 = u8 [a0 + 0x3]\n 83005: a2 = a2 << 0x8\n 83008: a2 = a2 | a3\n 83011: a4 = a4 << 0x10\n 83014: a5 = a5 << 0x18\n 83017: a4 = a4 | a5\n 83020: a2 = a2 | a4\n 83023: a3 = u8 [a0 + 0x5]\n 83026: a4 = u8 [a0 + 0x4]\n 83029: a5 = u8 [a0 + 0x6]\n 83032: s1 = u8 [a0 + 0x7]\n 83035: a3 = a3 << 0x8\n 83038: a3 = a3 | a4\n 83041: a5 = a5 << 0x10\n 83044: s1 = s1 << 0x18\n 83047: a5 = a5 | s1\n 83050: a3 = a3 | a5\n 83053: a3 = a3 << 0x20\n 83056: a2 = a2 | a3\n 83059: a3 = u8 [a0 + 0x19]\n 83062: a4 = u8 [a0 + 0x18]\n 83065: a5 = u8 [a0 + 0x1a]\n 83068: s1 = u8 [a0 + 0x1b]\n 83071: a3 = a3 << 0x8\n 83074: a3 = a3 | a4\n 83077: a5 = a5 << 0x10\n 83080: s1 = s1 << 0x18\n 83083: a5 = a5 | s1\n 83086: a3 = a3 | a5\n 83089: a4 = u8 [a0 + 0x1d]\n 83092: a5 = u8 [a0 + 0x1c]\n 83095: s1 = u8 [a0 + 0x1e]\n 83098: a1 = u8 [a0 + 0x1f]\n 83101: a4 = a4 << 0x8\n 83104: a4 = a4 | a5\n 83107: s1 = s1 << 0x10\n 83110: a1 = a1 << 0x18\n 83113: a1 = a1 | s1\n 83116: a1 = a1 | a4\n 83119: a1 = a1 << 0x20\n 83122: a3 = a3 | a1\n 83125: a1 = u8 [a0 + 0x9]\n 83128: a4 = u8 [a0 + 0x8]\n 83131: a5 = u8 [a0 + 0xa]\n 83134: s1 = u8 [a0 + 0xb]\n 83137: a1 = a1 << 0x8\n 83140: a1 = a1 | a4\n 83143: a5 = a5 << 0x10\n 83146: s1 = s1 << 0x18\n 83149: a5 = a5 | s1\n 83152: a1 = a1 | a5\n 83155: a4 = u8 [a0 + 0xd]\n 83158: a5 = u8 [a0 + 0xc]\n 83161: s1 = u8 [a0 + 0xe]\n 83164: a0 = u8 [a0 + 0xf]\n 83167: a4 = a4 << 0x8\n 83170: a4 = a4 | a5\n 83173: s1 = s1 << 0x10\n 83176: a0 = a0 << 0x18\n 83179: a0 = a0 | s1\n 83182: a0 = a0 | a4\n 83185: a0 = a0 << 0x20\n 83188: a0 = a0 | a1\n 83191: s1 = reverse a0\n 83193: a1 = reverse a3\n 83195: a2 = reverse a2\n 83197: a0 = reverse t0\n 83199: u64 [sp + 0xf8] = a0\n 83203: u64 [sp + 0xf0] = a2\n 83207: a0 = a0 | a2\n 83210: a2 = a1\n 83212: a1 = a1 | s1\n 83215: a1 = a1 | a0\n 83218: a1 = a1 >> 0x20\n 83221: a0 = a0 | s1\n 83224: a0 = a0 << 0x20\n 83227: a0 = a0 | a1\n 83230: jump @1113 if a0 != 0\n      : @1104 (gas: 5)\n 83234: u64 [sp + 0xe8] = a2\n 83238: i32 a0 = a2 + 0\n 83240: a1 = 0x20\n 83243: u64 [sp + 0xe0] = a0\n 83247: ra = 960, jump @0\n      : @1105 [@dyn 480] (gas: 50)\n 83254: u8 [a0 + 31] = 0\n 83257: u8 [a0 + 30] = 0\n 83260: u8 [a0 + 29] = 0\n 83263: u8 [a0 + 28] = 0\n 83266: u8 [a0 + 27] = 0\n 83269: u8 [a0 + 26] = 0\n 83272: u8 [a0 + 25] = 0\n 83275: u8 [a0 + 24] = 0\n 83278: u8 [a0 + 23] = 0\n 83281: u8 [a0 + 22] = 0\n 83284: u8 [a0 + 21] = 0\n 83287: u8 [a0 + 20] = 0\n 83290: u8 [a0 + 19] = 0\n 83293: u8 [a0 + 18] = 0\n 83296: u8 [a0 + 17] = 0\n 83299: u8 [a0 + 16] = 0\n 83302: u8 [a0 + 15] = 0\n 83305: u8 [a0 + 14] = 0\n 83308: u8 [a0 + 13] = 0\n 83311: u8 [a0 + 12] = 0\n 83314: u8 [a0 + 11] = 0\n 83317: u8 [a0 + 10] = 0\n 83320: u8 [a0 + 9] = 0\n 83323: u8 [a0 + 8] = 0\n 83326: u8 [a0 + 7] = 0\n 83329: u8 [a0 + 6] = 0\n 83332: u8 [a0 + 5] = 0\n 83335: u8 [a0 + 4] = 0\n 83338: u8 [a0 + 3] = 0xa0\n 83343: u8 [a0 + 2] = 0x79\n 83347: u8 [a0 + 1] = 0xc3\n 83352: u8 [a0 + 0] = 0x8\n 83355: a1 = u64 [sp + 0xe8]\n 83359: a0 = a1 + 0x4\n 83362: a1 = a0 <u a1\n 83365: a3 = u64 [sp + 0xf8]\n 83369: a2 = a3 + a1\n 83372: a3 = a2 <u a3\n 83375: a3 = a1 if a1 == 0\n 83378: a3 = a3 + s1\n 83381: a1 = a3 <u s1\n 83384: a4 = u64 [sp + 0xf0]\n 83388: a4 = a4 + a1\n 83391: u64 [sp + 0x348] = a2\n 83395: u64 [sp + 0x340] = a0\n 83399: u64 [sp + 0x350] = a3\n 83403: a0 = sp + 0x360\n 83407: a1 = sp + 0x340\n 83411: u64 [sp + 0x358] = a4\n 83415: ra = 962, jump @1046\n      : @1106 [@dyn 481] (gas: 5)\n 83421: a0 = u64 [sp + 0x368]\n 83425: t0 = u64 [sp + 0x378]\n 83429: t1 = u64 [sp + 0x360]\n 83433: a3 = u64 [sp + 0x370]\n 83437: jump @1112\n      : @1107 (gas: 3)\n 83440: a0 = 0x40\n 83443: a1 = 0x20\n 83446: ra = 964, jump @0\n      : @1108 [@dyn 482] (gas: 103)\n 83453: a1 = u8 [a0 + 0x11]\n 83456: a2 = u8 [a0 + 0x10]\n 83459: a3 = u8 [a0 + 0x12]\n 83462: a4 = u8 [a0 + 0x13]\n 83465: a1 = a1 << 0x8\n 83468: a1 = a1 | a2\n 83471: a3 = a3 << 0x10\n 83474: a4 = a4 << 0x18\n 83477: a3 = a3 | a4\n 83480: a1 = a1 | a3\n 83483: a2 = u8 [a0 + 0x15]\n 83486: a3 = u8 [a0 + 0x14]\n 83489: a4 = u8 [a0 + 0x16]\n 83492: a5 = u8 [a0 + 0x17]\n 83495: a2 = a2 << 0x8\n 83498: a2 = a2 | a3\n 83501: a4 = a4 << 0x10\n 83504: a5 = a5 << 0x18\n 83507: a4 = a4 | a5\n 83510: a2 = a2 | a4\n 83513: a2 = a2 << 0x20\n 83516: t0 = a2 | a1\n 83519: a2 = u8 [a0 + 0x1]\n 83522: a3 = u8 [a0]\n 83524: a4 = u8 [a0 + 0x2]\n 83527: a5 = u8 [a0 + 0x3]\n 83530: a2 = a2 << 0x8\n 83533: a2 = a2 | a3\n 83536: a4 = a4 << 0x10\n 83539: a5 = a5 << 0x18\n 83542: a4 = a4 | a5\n 83545: a2 = a2 | a4\n 83548: a3 = u8 [a0 + 0x5]\n 83551: a4 = u8 [a0 + 0x4]\n 83554: a5 = u8 [a0 + 0x6]\n 83557: s1 = u8 [a0 + 0x7]\n 83560: a3 = a3 << 0x8\n 83563: a3 = a3 | a4\n 83566: a5 = a5 << 0x10\n 83569: s1 = s1 << 0x18\n 83572: a5 = a5 | s1\n 83575: a3 = a3 | a5\n 83578: a3 = a3 << 0x20\n 83581: a2 = a2 | a3\n 83584: a3 = u8 [a0 + 0x19]\n 83587: a4 = u8 [a0 + 0x18]\n 83590: a5 = u8 [a0 + 0x1a]\n 83593: s1 = u8 [a0 + 0x1b]\n 83596: a3 = a3 << 0x8\n 83599: a3 = a3 | a4\n 83602: a5 = a5 << 0x10\n 83605: s1 = s1 << 0x18\n 83608: a5 = a5 | s1\n 83611: a3 = a3 | a5\n 83614: a4 = u8 [a0 + 0x1d]\n 83617: a5 = u8 [a0 + 0x1c]\n 83620: s1 = u8 [a0 + 0x1e]\n 83623: a1 = u8 [a0 + 0x1f]\n 83626: a4 = a4 << 0x8\n 83629: a4 = a4 | a5\n 83632: s1 = s1 << 0x10\n 83635: a1 = a1 << 0x18\n 83638: a1 = a1 | s1\n 83641: a1 = a1 | a4\n 83644: a1 = a1 << 0x20\n 83647: a3 = a3 | a1\n 83650: a1 = u8 [a0 + 0x9]\n 83653: a4 = u8 [a0 + 0x8]\n 83656: a5 = u8 [a0 + 0xa]\n 83659: s1 = u8 [a0 + 0xb]\n 83662: a1 = a1 << 0x8\n 83665: a1 = a1 | a4\n 83668: a5 = a5 << 0x10\n 83671: s1 = s1 << 0x18\n 83674: a5 = a5 | s1\n 83677: a1 = a1 | a5\n 83680: a4 = u8 [a0 + 0xd]\n 83683: a5 = u8 [a0 + 0xc]\n 83686: s1 = u8 [a0 + 0xe]\n 83689: a0 = u8 [a0 + 0xf]\n 83692: a4 = a4 << 0x8\n 83695: a4 = a4 | a5\n 83698: s1 = s1 << 0x10\n 83701: a0 = a0 << 0x18\n 83704: a0 = a0 | s1\n 83707: a0 = a0 | a4\n 83710: a0 = a0 << 0x20\n 83713: a0 = a0 | a1\n 83716: s1 = reverse a0\n 83718: a1 = reverse a3\n 83720: a2 = reverse a2\n 83722: a0 = reverse t0\n 83724: u64 [sp + 0xf8] = a0\n 83728: u64 [sp + 0xf0] = a2\n 83732: a0 = a0 | a2\n 83735: a2 = a1\n 83737: a1 = a1 | s1\n 83740: a1 = a1 | a0\n 83743: a1 = a1 >> 0x20\n 83746: a0 = a0 | s1\n 83749: a0 = a0 << 0x20\n 83752: a0 = a0 | a1\n 83755: jump @1113 if a0 != 0\n      : @1109 (gas: 5)\n 83759: u64 [sp + 0xe8] = a2\n 83763: i32 a0 = a2 + 0\n 83765: a1 = 0x20\n 83768: u64 [sp + 0xe0] = a0\n 83772: ra = 966, jump @0\n      : @1110 [@dyn 483] (gas: 50)\n 83779: u8 [a0 + 31] = 0\n 83782: u8 [a0 + 30] = 0\n 83785: u8 [a0 + 29] = 0\n 83788: u8 [a0 + 28] = 0\n 83791: u8 [a0 + 27] = 0\n 83794: u8 [a0 + 26] = 0\n 83797: u8 [a0 + 25] = 0\n 83800: u8 [a0 + 24] = 0\n 83803: u8 [a0 + 23] = 0\n 83806: u8 [a0 + 22] = 0\n 83809: u8 [a0 + 21] = 0\n 83812: u8 [a0 + 20] = 0\n 83815: u8 [a0 + 19] = 0\n 83818: u8 [a0 + 18] = 0\n 83821: u8 [a0 + 17] = 0\n 83824: u8 [a0 + 16] = 0\n 83827: u8 [a0 + 15] = 0\n 83830: u8 [a0 + 14] = 0\n 83833: u8 [a0 + 13] = 0\n 83836: u8 [a0 + 12] = 0\n 83839: u8 [a0 + 11] = 0\n 83842: u8 [a0 + 10] = 0\n 83845: u8 [a0 + 9] = 0\n 83848: u8 [a0 + 8] = 0\n 83851: u8 [a0 + 7] = 0\n 83854: u8 [a0 + 6] = 0\n 83857: u8 [a0 + 5] = 0\n 83860: u8 [a0 + 4] = 0\n 83863: u8 [a0 + 3] = 0xa0\n 83868: u8 [a0 + 2] = 0x79\n 83872: u8 [a0 + 1] = 0xc3\n 83877: u8 [a0 + 0] = 0x8\n 83880: a1 = u64 [sp + 0xe8]\n 83884: a0 = a1 + 0x4\n 83887: a1 = a0 <u a1\n 83890: a3 = u64 [sp + 0xf8]\n 83894: a2 = a3 + a1\n 83897: a3 = a2 <u a3\n 83900: a3 = a1 if a1 == 0\n 83903: a3 = a3 + s1\n 83906: a1 = a3 <u s1\n 83909: a4 = u64 [sp + 0xf0]\n 83913: a4 = a4 + a1\n 83916: u64 [sp + 0x148] = a2\n 83920: u64 [sp + 0x140] = a0\n 83924: u64 [sp + 0x150] = a3\n 83928: a0 = sp + 0x160\n 83932: a1 = sp + 0x140\n 83936: u64 [sp + 0x158] = a4\n 83940: ra = 968, jump @791\n      : @1111 [@dyn 484] (gas: 5)\n 83946: a0 = u64 [sp + 0x168]\n 83950: t0 = u64 [sp + 0x178]\n 83954: t1 = u64 [sp + 0x160]\n 83958: a3 = u64 [sp + 0x170]\n 83962: fallthrough\n      : @1112 (gas: 26)\n 83963: a1 = u64 [sp + 0xf8]\n 83967: a4 = a0 ^ a1\n 83970: a5 = a0 <u a1\n 83973: t2 = a1\n 83975: a2 = u64 [sp + 0xe8]\n 83979: a1 = t1 <u a2\n 83982: a5 = a1 if a4 == 0\n 83985: a4 = a3 - s1\n 83988: a3 = a3 <u s1\n 83991: s1 = u64 [sp + 0xf0]\n 83995: s1 = t0 - s1\n 83998: s1 = s1 - a3\n 84001: a3 = a4 <u a5\n 84004: s1 = s1 - a3\n 84007: a4 = a4 - a5\n 84010: a0 = a0 - t2\n 84013: a1 = a0 - a1\n 84016: a0 = t1 - a2\n 84019: a1 = a1 | s1\n 84022: a2 = a0 | a4\n 84025: a2 = a2 | a1\n 84028: a1 = a1 | a4\n 84031: a2 = a2 >> 0x20\n 84034: a1 = a1 << 0x20\n 84037: a1 = a1 | a2\n 84040: jump @1114 if a1 == 0\n      : @1113 (gas: 1)\n 84043: trap\n      : @1114 (gas: 4)\n 84044: i32 s1 = a0 + 0\n 84046: a0 = u64 [sp + 0xe0]\n 84050: a1 = s1\n 84052: ra = 970, jump @0\n      : @1115 [@dyn 485] (gas: 6)\n 84059: i32 a1 = a0 + 0\n 84061: a0 = 0x1\n 84064: a2 = s1\n 84066: ra = 0x3cc\n 84070: ecalli 14 // 'seal_return'\n 84072: fallthrough\n      : @1116 [@dyn 486] (gas: 53)\n 84073: sp = sp + 0xffffffffffffff30\n 84077: u64 [sp + 0xc8] = ra\n 84081: u64 [sp + 0xc0] = s0\n 84085: u64 [sp + 0xb8] = s1\n 84089: s0 = sp + 0xd0\n 84093: sp = sp & 0xfffffffffffffff0\n 84096: a4 = u64 [a0]\n 84098: u64 [sp + 0x28] = a4\n 84101: a4 = u64 [a0 + 0x8]\n 84104: u64 [sp + 0x20] = a4\n 84107: a4 = u64 [a0 + 0x10]\n 84110: u64 [sp + 0x18] = a4\n 84113: a0 = u64 [a0 + 0x18]\n 84116: u64 [sp + 0x10] = a0\n 84119: a0 = u64 [a1]\n 84121: u64 [sp + 0x8] = a0\n 84124: ra = u64 [a1 + 0x8]\n 84127: s1 = u64 [a1 + 0x10]\n 84130: t2 = u64 [a1 + 0x18]\n 84133: t1 = u64 [a2]\n 84135: t0 = u64 [a2 + 0x8]\n 84138: a5 = u64 [a2 + 0x10]\n 84141: a4 = u64 [a2 + 0x18]\n 84144: a2 = u64 [a3]\n 84146: a1 = u64 [a3 + 0x8]\n 84149: a0 = u64 [a3 + 0x10]\n 84152: a3 = u64 [a3 + 0x18]\n 84155: u64 [sp + 0x48] = a3\n 84158: u64 [sp + 0x40] = a0\n 84161: u64 [sp + 0x38] = a1\n 84164: u64 [sp + 0x30] = a2\n 84167: u64 [sp + 0x68] = a4\n 84170: u64 [sp + 0x60] = a5\n 84173: u64 [sp + 0x58] = t0\n 84176: u64 [sp + 0x50] = t1\n 84179: u64 [sp + 0x88] = t2\n 84183: u64 [sp + 0x80] = s1\n 84187: u64 [sp + 0x78] = ra\n 84190: a0 = u64 [sp + 0x8]\n 84193: u64 [sp + 0x70] = a0\n 84196: a0 = u64 [sp + 0x10]\n 84199: u64 [sp + 0xa8] = a0\n 84203: a0 = u64 [sp + 0x18]\n 84206: u64 [sp + 0xa0] = a0\n 84210: a0 = u64 [sp + 0x20]\n 84213: u64 [sp + 0x98] = a0\n 84217: a0 = sp + 0x90\n 84221: a1 = sp + 0x70\n 84224: a2 = sp + 0x50\n 84227: a3 = sp + 0x30\n 84230: a4 = u64 [sp + 0x28]\n 84233: u64 [sp + 0x90] = a4\n 84237: ra = 974, jump @1010\n      : @1117 [@dyn 487] (gas: 6)\n 84243: sp = s0 + 0xffffffffffffff30\n 84247: ra = u64 [sp + 0xc8]\n 84251: s0 = u64 [sp + 0xc0]\n 84255: s1 = u64 [sp + 0xb8]\n 84259: sp = sp + 0xd0\n 84263: ret\n      : @1118 (gas: 17)\n 84265: sp = sp + 0xffffffffffffffa0\n 84268: u64 [sp + 0x58] = ra\n 84271: u64 [sp + 0x50] = s0\n 84274: u64 [sp + 0x48] = s1\n 84277: a3 = u64 [a1 + 0x18]\n 84280: a4 = u64 [a1 + 0x10]\n 84283: a5 = u64 [a1 + 0x8]\n 84286: s1 = u64 [a1]\n 84288: a1 = a5 | a3\n 84291: a2 = s1 | a4\n 84294: a2 = a2 | a1\n 84297: a2 = a2 >> 0x20\n 84300: a1 = a1 | a4\n 84303: a1 = a1 << 0x20\n 84306: a1 = a1 | a2\n 84309: u64 [sp + 0x28] = a0\n 84312: jump @1127 if a1 != 0\n      : @1119 (gas: 19)\n 84316: a0 = s1 + 0x20\n 84319: u64 [sp + 0x40] = a0\n 84322: a0 = a0 <u s1\n 84325: a1 = a5 + a0\n 84328: u64 [sp + 0x38] = a1\n 84331: u64 [sp + 0x10] = a5\n 84334: s0 = a1 <u a5\n 84337: s0 = a0 if a0 == 0\n 84340: s0 = s0 + a4\n 84343: u64 [sp + 0x18] = a4\n 84346: a0 = s0 <u a4\n 84349: u64 [sp + 0x20] = a3\n 84352: a0 = a0 + a3\n 84355: u64 [sp + 0x30] = a0\n 84358: u64 [sp + 0x8] = s1\n 84361: i32 a0 = s1 + 0\n 84363: a1 = 0x20\n 84366: s1 = 0x20\n 84369: ra = 976, jump @0\n      : @1120 [@dyn 488] (gas: 43)\n 84376: u8 [a0 + 0x1f] = s1\n 84379: a1 = u64 [sp + 0x40]\n 84382: a1 = a1 | s0\n 84385: a2 = u64 [sp + 0x38]\n 84388: a3 = u64 [sp + 0x30]\n 84391: a2 = a2 | a3\n 84394: a1 = a1 | a2\n 84397: a1 = a1 >> 0x20\n 84400: a2 = a2 | s0\n 84403: a2 = a2 << 0x20\n 84406: a1 = a1 | a2\n 84409: u8 [a0 + 30] = 0\n 84412: u8 [a0 + 29] = 0\n 84415: u8 [a0 + 28] = 0\n 84418: u8 [a0 + 27] = 0\n 84421: u8 [a0 + 26] = 0\n 84424: u8 [a0 + 25] = 0\n 84427: u8 [a0 + 24] = 0\n 84430: u8 [a0 + 23] = 0\n 84433: u8 [a0 + 22] = 0\n 84436: u8 [a0 + 21] = 0\n 84439: u8 [a0 + 20] = 0\n 84442: u8 [a0 + 19] = 0\n 84445: u8 [a0 + 18] = 0\n 84448: u8 [a0 + 17] = 0\n 84451: u8 [a0 + 16] = 0\n 84454: u8 [a0 + 15] = 0\n 84457: u8 [a0 + 14] = 0\n 84460: u8 [a0 + 13] = 0\n 84463: u8 [a0 + 12] = 0\n 84466: u8 [a0 + 11] = 0\n 84469: u8 [a0 + 10] = 0\n 84472: u8 [a0 + 9] = 0\n 84475: u8 [a0 + 8] = 0\n 84478: u8 [a0 + 7] = 0\n 84481: u8 [a0 + 6] = 0\n 84484: u8 [a0 + 5] = 0\n 84487: u8 [a0 + 4] = 0\n 84490: u8 [a0 + 3] = 0\n 84493: u8 [a0 + 2] = 0\n 84496: u8 [a0 + 1] = 0\n 84499: u8 [a0 + 0] = 0\n 84501: jump @1127 if a1 != 0\n      : @1121 (gas: 6)\n 84505: s1 = s0\n 84507: s0 = u64 [sp + 0x40]\n 84510: i32 a0 = s0 + 0\n 84512: a1 = 0x20\n 84515: u64 [sp] = a0\n 84517: ra = 978, jump @0\n      : @1122 [@dyn 489] (gas: 42)\n 84524: u8 [a0 + 31] = 0x21\n 84528: u8 [a0 + 30] = 0\n 84531: u8 [a0 + 29] = 0\n 84534: u8 [a0 + 28] = 0\n 84537: u8 [a0 + 27] = 0\n 84540: u8 [a0 + 26] = 0\n 84543: u8 [a0 + 25] = 0\n 84546: u8 [a0 + 24] = 0\n 84549: u8 [a0 + 23] = 0\n 84552: u8 [a0 + 22] = 0\n 84555: u8 [a0 + 21] = 0\n 84558: u8 [a0 + 20] = 0\n 84561: u8 [a0 + 19] = 0\n 84564: u8 [a0 + 18] = 0\n 84567: u8 [a0 + 17] = 0\n 84570: u8 [a0 + 16] = 0\n 84573: u8 [a0 + 15] = 0\n 84576: u8 [a0 + 14] = 0\n 84579: u8 [a0 + 13] = 0\n 84582: u8 [a0 + 12] = 0\n 84585: u8 [a0 + 11] = 0\n 84588: u8 [a0 + 10] = 0\n 84591: u8 [a0 + 9] = 0\n 84594: u8 [a0 + 8] = 0\n 84597: u8 [a0 + 7] = 0\n 84600: u8 [a0 + 6] = 0\n 84603: u8 [a0 + 5] = 0\n 84606: u8 [a0 + 4] = 0\n 84609: u8 [a0 + 3] = 0\n 84612: u8 [a0 + 2] = 0\n 84615: u8 [a0 + 1] = 0\n 84618: a1 = u64 [sp + 0x30]\n 84621: a3 = s1 | a1\n 84624: s1 = 0x100000000\n 84634: a1 = 0xffffffe0\n 84644: a1 = s0 <u a1\n 84647: a2 = u64 [sp + 0x38]\n 84650: a1 = 0 if a2 != 0\n 84652: u64 [sp + 0x30] = a3\n 84655: a1 = 0 if a3 != 0\n 84657: u8 [a0 + 0] = 0\n 84659: jump @1127 if a1 == 0\n      : @1123 (gas: 4)\n 84663: s0 = u64 [sp]\n 84665: i32 a0 = s0 + 0x20\n 84668: a1 = 0x20\n 84671: ra = 980, jump @0\n      : @1124 [@dyn 490] (gas: 40)\n 84678: u8 [a0 + 26] = 0x66\n 84682: u8 [a0 + 23] = 0x68\n 84686: u8 [a0 + 29] = 0x74\n 84690: u8 [a0 + 22] = 0x74\n 84694: u8 [a0 + 20] = 0x74\n 84698: u8 [a0 + 18] = 0x6e\n 84702: u8 [a0 + 15] = 0x69\n 84706: u8 [a0 + 24] = 0x65\n 84710: u8 [a0 + 12] = 0x65\n 84714: u8 [a0 + 11] = 0x6c\n 84718: u8 [a0 + 10] = 0x6c\n 84722: u8 [a0 + 27] = 0x61\n 84726: u8 [a0 + 9] = 0x61\n 84730: u8 [a0 + 25] = 0x20\n 84734: u8 [a0 + 21] = 0x20\n 84738: u8 [a0 + 17] = 0x20\n 84742: u8 [a0 + 14] = 0x20\n 84746: u8 [a0 + 7] = 0x20\n 84750: u8 [a0 + 6] = 0x3a\n 84754: u8 [a0 + 5] = 0x77\n 84758: u8 [a0 + 30] = 0x6f\n 84762: u8 [a0 + 19] = 0x6f\n 84766: u8 [a0 + 4] = 0x6f\n 84770: u8 [a0 + 31] = 0x72\n 84774: u8 [a0 + 13] = 0x72\n 84778: u8 [a0 + 3] = 0x72\n 84782: u8 [a0 + 28] = 0x63\n 84786: u8 [a0 + 8] = 0x63\n 84790: u8 [a0 + 2] = 0x63\n 84794: u8 [a0 + 16] = 0x73\n 84798: u8 [a0 + 1] = 0x73\n 84802: a1 = s1 + 0xffffffffffffffc0\n 84805: a2 = u64 [sp + 0x40]\n 84808: a1 = a2 <u a1\n 84811: a2 = u64 [sp + 0x38]\n 84814: a1 = 0 if a2 != 0\n 84816: a2 = u64 [sp + 0x30]\n 84819: a1 = 0 if a2 != 0\n 84821: u8 [a0 + 0] = 0x45\n 84824: jump @1127 if a1 == 0\n      : @1125 (gas: 3)\n 84828: i32 a0 = s0 + 0x40\n 84831: a1 = 0x20\n 84834: ra = 982, jump @0\n      : @1126 [@dyn 491] (gas: 54)\n 84841: u8 [a0 + 31] = 0\n 84844: u8 [a0 + 30] = 0\n 84847: u8 [a0 + 29] = 0\n 84850: u8 [a0 + 28] = 0\n 84853: u8 [a0 + 27] = 0\n 84856: u8 [a0 + 26] = 0\n 84859: u8 [a0 + 25] = 0\n 84862: u8 [a0 + 24] = 0\n 84865: u8 [a0 + 23] = 0\n 84868: u8 [a0 + 22] = 0\n 84871: u8 [a0 + 21] = 0\n 84874: u8 [a0 + 20] = 0\n 84877: u8 [a0 + 19] = 0\n 84880: u8 [a0 + 18] = 0\n 84883: u8 [a0 + 17] = 0\n 84886: u8 [a0 + 16] = 0\n 84889: u8 [a0 + 15] = 0\n 84892: u8 [a0 + 14] = 0\n 84895: u8 [a0 + 13] = 0\n 84898: u8 [a0 + 12] = 0\n 84901: u8 [a0 + 11] = 0\n 84904: u8 [a0 + 10] = 0\n 84907: u8 [a0 + 9] = 0\n 84910: u8 [a0 + 8] = 0\n 84913: u8 [a0 + 7] = 0\n 84916: u8 [a0 + 6] = 0\n 84919: u8 [a0 + 5] = 0\n 84922: u8 [a0 + 4] = 0\n 84925: u8 [a0 + 3] = 0\n 84928: u8 [a0 + 2] = 0\n 84931: u8 [a0 + 1] = 0\n 84934: u8 [a0 + 0] = 0x79\n 84937: a1 = u64 [sp + 0x8]\n 84940: a0 = a1 + 0x80\n 84944: a1 = a0 <u a1\n 84947: a3 = u64 [sp + 0x10]\n 84950: a2 = a3 + a1\n 84953: a3 = a2 <u a3\n 84956: a3 = a1 if a1 == 0\n 84959: a1 = u64 [sp + 0x18]\n 84962: a3 = a3 + a1\n 84965: a1 = a3 <u a1\n 84968: a4 = u64 [sp + 0x20]\n 84971: a1 = a1 + a4\n 84974: a4 = u64 [sp + 0x28]\n 84977: u64 [a4] = a0\n 84979: u64 [a4 + 0x8] = a2\n 84982: u64 [a4 + 0x10] = a3\n 84985: u64 [a4 + 0x18] = a1\n 84988: ra = u64 [sp + 0x58]\n 84991: s0 = u64 [sp + 0x50]\n 84994: s1 = u64 [sp + 0x48]\n 84997: sp = sp + 0x60\n 85000: ret\n      : @1127 (gas: 1)\n 85002: trap\n      : @1128 (gas: 17)\n 85003: sp = sp + 0xffffffffffffff20\n 85007: u64 [sp + 0xd8] = ra\n 85011: u64 [sp + 0xd0] = s0\n 85015: u64 [sp + 0xc8] = s1\n 85019: s0 = sp + 0xe0\n 85023: sp = sp & 0xffffffffffffffe0\n 85026: a1 = u64 [a0 + 0x18]\n 85029: u64 [sp + 0x38] = a1\n 85032: a1 = u64 [a0 + 0x10]\n 85035: u64 [sp + 0x30] = a1\n 85038: a1 = u64 [a0 + 0x8]\n 85041: u64 [sp + 0x28] = a1\n 85044: a0 = u64 [a0]\n 85046: u64 [sp + 0x20] = a0\n 85049: i32 a0 = sp + 0xa0\n 85053: ecalli 5 // 'caller'\n 85055: fallthrough\n      : @1129 (gas: 6)\n 85056: s1 = 0x20070\n 85061: a4 = i32 [sp + 0xb0]\n 85065: a2 = u64 [sp + 0xa0]\n 85069: a0 = i32 [0x20070]\n 85074: a1 = u64 [sp + 0xa8]\n 85078: jump @1132 if a0 == 0\n      : @1130 (gas: 9)\n 85081: u64 [sp] = a0\n 85083: a0 = 0x30080\n 85088: i32 a0 = a0 + 0\n 85090: u64 [sp + 0x8] = a1\n 85093: i32 a1 = s1 + 0\n 85095: u64 [sp + 0x18] = a4\n 85098: u64 [sp + 0x10] = a2\n 85101: ecalli 7 // 'get_immutable_data'\n 85103: fallthrough\n      : @1131 (gas: 7)\n 85104: a1 = u64 [sp + 0x8]\n 85107: a2 = u64 [sp + 0x10]\n 85110: a4 = u64 [sp + 0x18]\n 85113: a0 = i32 [0x20070]\n 85118: u32 [0x20070] = 0\n 85123: a3 = u64 [sp]\n 85125: jump @1140 if a0 <u a3\n      : @1132 (gas: 19)\n 85129: a0 = reverse a1\n 85131: a1 = a0 >> 0x20\n 85134: a2 = reverse a2\n 85136: a3 = a2 << 0x20\n 85139: a1 = a1 | a3\n 85142: a0 = a0 << 0x20\n 85145: a4 = reverse a4\n 85147: a4 = a4 >> 0x20\n 85150: a0 = a0 | a4\n 85153: a4 = u64 [0x30080]\n 85158: a5 = u32 [0x30090]\n 85163: a2 = a2 >> 0x20\n 85166: a3 = u64 [0x30088]\n 85171: a0 = a0 ^ a4\n 85174: a2 = a2 ^ a5\n 85177: a0 = a0 | a2\n 85180: a1 = a1 ^ a3\n 85183: a0 = a0 | a1\n 85186: jump @1135 if a0 != 0\n      : @1133 (gas: 10)\n 85189: a0 = u64 [sp + 0x20]\n 85192: u64 [sp + 0x40] = a0\n 85195: a0 = u64 [sp + 0x28]\n 85198: u64 [sp + 0x48] = a0\n 85201: a0 = u64 [sp + 0x30]\n 85204: u64 [sp + 0x50] = a0\n 85207: a0 = sp + 0x40\n 85210: a1 = u64 [sp + 0x38]\n 85213: u64 [sp + 0x58] = a1\n 85216: ra = 984, jump @1143\n      : @1134 [@dyn 492] (gas: 6)\n 85222: sp = s0 + 0xffffffffffffff20\n 85226: ra = u64 [sp + 0xd8]\n 85230: s0 = u64 [sp + 0xd0]\n 85234: s1 = u64 [sp + 0xc8]\n 85238: sp = sp + 0xe0\n 85242: ret\n      : @1135 (gas: 3)\n 85244: a0 = 0x40\n 85247: a1 = 0x20\n 85250: ra = 986, jump @0\n      : @1136 [@dyn 493] (gas: 103)\n 85257: a1 = u8 [a0 + 0x11]\n 85260: a2 = u8 [a0 + 0x10]\n 85263: a3 = u8 [a0 + 0x12]\n 85266: a4 = u8 [a0 + 0x13]\n 85269: a1 = a1 << 0x8\n 85272: a1 = a1 | a2\n 85275: a3 = a3 << 0x10\n 85278: a4 = a4 << 0x18\n 85281: a3 = a3 | a4\n 85284: a1 = a1 | a3\n 85287: a2 = u8 [a0 + 0x15]\n 85290: a3 = u8 [a0 + 0x14]\n 85293: a4 = u8 [a0 + 0x16]\n 85296: a5 = u8 [a0 + 0x17]\n 85299: a2 = a2 << 0x8\n 85302: a2 = a2 | a3\n 85305: a4 = a4 << 0x10\n 85308: a5 = a5 << 0x18\n 85311: a4 = a4 | a5\n 85314: a2 = a2 | a4\n 85317: a2 = a2 << 0x20\n 85320: t0 = a2 | a1\n 85323: a2 = u8 [a0 + 0x1]\n 85326: a3 = u8 [a0]\n 85328: a4 = u8 [a0 + 0x2]\n 85331: a5 = u8 [a0 + 0x3]\n 85334: a2 = a2 << 0x8\n 85337: a2 = a2 | a3\n 85340: a4 = a4 << 0x10\n 85343: a5 = a5 << 0x18\n 85346: a4 = a4 | a5\n 85349: a2 = a2 | a4\n 85352: a3 = u8 [a0 + 0x5]\n 85355: a4 = u8 [a0 + 0x4]\n 85358: a5 = u8 [a0 + 0x6]\n 85361: s1 = u8 [a0 + 0x7]\n 85364: a3 = a3 << 0x8\n 85367: a3 = a3 | a4\n 85370: a5 = a5 << 0x10\n 85373: s1 = s1 << 0x18\n 85376: a5 = a5 | s1\n 85379: a3 = a3 | a5\n 85382: a3 = a3 << 0x20\n 85385: a2 = a2 | a3\n 85388: a3 = u8 [a0 + 0x19]\n 85391: a4 = u8 [a0 + 0x18]\n 85394: a5 = u8 [a0 + 0x1a]\n 85397: s1 = u8 [a0 + 0x1b]\n 85400: a3 = a3 << 0x8\n 85403: a3 = a3 | a4\n 85406: a5 = a5 << 0x10\n 85409: s1 = s1 << 0x18\n 85412: a5 = a5 | s1\n 85415: a3 = a3 | a5\n 85418: a4 = u8 [a0 + 0x1d]\n 85421: a5 = u8 [a0 + 0x1c]\n 85424: s1 = u8 [a0 + 0x1e]\n 85427: a1 = u8 [a0 + 0x1f]\n 85430: a4 = a4 << 0x8\n 85433: a4 = a4 | a5\n 85436: s1 = s1 << 0x10\n 85439: a1 = a1 << 0x18\n 85442: a1 = a1 | s1\n 85445: a1 = a1 | a4\n 85448: a1 = a1 << 0x20\n 85451: a3 = a3 | a1\n 85454: a1 = u8 [a0 + 0x9]\n 85457: a4 = u8 [a0 + 0x8]\n 85460: a5 = u8 [a0 + 0xa]\n 85463: s1 = u8 [a0 + 0xb]\n 85466: a1 = a1 << 0x8\n 85469: a1 = a1 | a4\n 85472: a5 = a5 << 0x10\n 85475: s1 = s1 << 0x18\n 85478: a5 = a5 | s1\n 85481: a1 = a1 | a5\n 85484: a4 = u8 [a0 + 0xd]\n 85487: a5 = u8 [a0 + 0xc]\n 85490: s1 = u8 [a0 + 0xe]\n 85493: a0 = u8 [a0 + 0xf]\n 85496: a4 = a4 << 0x8\n 85499: a4 = a4 | a5\n 85502: s1 = s1 << 0x10\n 85505: a0 = a0 << 0x18\n 85508: a0 = a0 | s1\n 85511: a0 = a0 | a4\n 85514: a0 = a0 << 0x20\n 85517: a0 = a0 | a1\n 85520: s1 = reverse a0\n 85522: a1 = reverse a3\n 85524: a2 = reverse a2\n 85526: a0 = reverse t0\n 85528: u64 [sp + 0x38] = a0\n 85531: u64 [sp + 0x30] = a2\n 85534: a0 = a0 | a2\n 85537: a2 = a1\n 85539: a1 = a1 | s1\n 85542: a1 = a1 | a0\n 85545: a1 = a1 >> 0x20\n 85548: a0 = a0 | s1\n 85551: a0 = a0 << 0x20\n 85554: a0 = a0 | a1\n 85557: jump @1140 if a0 != 0\n      : @1137 (gas: 5)\n 85561: u64 [sp + 0x28] = a2\n 85564: i32 a0 = a2 + 0\n 85566: a1 = 0x20\n 85569: u64 [sp + 0x20] = a0\n 85572: ra = 988, jump @0\n      : @1138 [@dyn 494] (gas: 50)\n 85579: u8 [a0 + 31] = 0\n 85582: u8 [a0 + 30] = 0\n 85585: u8 [a0 + 29] = 0\n 85588: u8 [a0 + 28] = 0\n 85591: u8 [a0 + 27] = 0\n 85594: u8 [a0 + 26] = 0\n 85597: u8 [a0 + 25] = 0\n 85600: u8 [a0 + 24] = 0\n 85603: u8 [a0 + 23] = 0\n 85606: u8 [a0 + 22] = 0\n 85609: u8 [a0 + 21] = 0\n 85612: u8 [a0 + 20] = 0\n 85615: u8 [a0 + 19] = 0\n 85618: u8 [a0 + 18] = 0\n 85621: u8 [a0 + 17] = 0\n 85624: u8 [a0 + 16] = 0\n 85627: u8 [a0 + 15] = 0\n 85630: u8 [a0 + 14] = 0\n 85633: u8 [a0 + 13] = 0\n 85636: u8 [a0 + 12] = 0\n 85639: u8 [a0 + 11] = 0\n 85642: u8 [a0 + 10] = 0\n 85645: u8 [a0 + 9] = 0\n 85648: u8 [a0 + 8] = 0\n 85651: u8 [a0 + 7] = 0\n 85654: u8 [a0 + 6] = 0\n 85657: u8 [a0 + 5] = 0\n 85660: u8 [a0 + 4] = 0\n 85663: u8 [a0 + 3] = 0xa0\n 85668: u8 [a0 + 2] = 0x79\n 85672: u8 [a0 + 1] = 0xc3\n 85677: u8 [a0 + 0] = 0x8\n 85680: a1 = u64 [sp + 0x28]\n 85683: a0 = a1 + 0x4\n 85686: a1 = a0 <u a1\n 85689: a3 = u64 [sp + 0x38]\n 85692: a2 = a3 + a1\n 85695: a3 = a2 <u a3\n 85698: a3 = a1 if a1 == 0\n 85701: a3 = a3 + s1\n 85704: a1 = a3 <u s1\n 85707: a4 = u64 [sp + 0x30]\n 85710: a4 = a4 + a1\n 85713: u64 [sp + 0x68] = a2\n 85716: u64 [sp + 0x60] = a0\n 85719: u64 [sp + 0x70] = a3\n 85722: a0 = sp + 0x80\n 85726: a1 = sp + 0x60\n 85729: u64 [sp + 0x78] = a4\n 85732: ra = 990, jump @1118\n      : @1139 [@dyn 495] (gas: 30)\n 85738: a0 = u64 [sp + 0x88]\n 85742: t0 = u64 [sp + 0x98]\n 85746: t1 = u64 [sp + 0x80]\n 85750: a3 = u64 [sp + 0x90]\n 85754: a1 = u64 [sp + 0x38]\n 85757: a4 = a0 ^ a1\n 85760: a5 = a0 <u a1\n 85763: t2 = a1\n 85765: a2 = u64 [sp + 0x28]\n 85768: a1 = t1 <u a2\n 85771: a5 = a1 if a4 == 0\n 85774: a4 = a3 - s1\n 85777: a3 = a3 <u s1\n 85780: s1 = u64 [sp + 0x30]\n 85783: s1 = t0 - s1\n 85786: s1 = s1 - a3\n 85789: a3 = a4 <u a5\n 85792: s1 = s1 - a3\n 85795: a4 = a4 - a5\n 85798: a0 = a0 - t2\n 85801: a1 = a0 - a1\n 85804: a0 = t1 - a2\n 85807: a1 = a1 | s1\n 85810: a2 = a0 | a4\n 85813: a2 = a2 | a1\n 85816: a1 = a1 | a4\n 85819: a2 = a2 >> 0x20\n 85822: a1 = a1 << 0x20\n 85825: a1 = a1 | a2\n 85828: jump @1141 if a1 == 0\n      : @1140 (gas: 1)\n 85831: trap\n      : @1141 (gas: 4)\n 85832: i32 s1 = a0 + 0\n 85834: a0 = u64 [sp + 0x20]\n 85837: a1 = s1\n 85839: ra = 992, jump @0\n      : @1142 [@dyn 496] (gas: 6)\n 85846: i32 a1 = a0 + 0\n 85848: a0 = 0x1\n 85851: a2 = s1\n 85853: ra = 0x3e2\n 85857: ecalli 14 // 'seal_return'\n 85859: fallthrough\n      : @1143 [@dyn 497] (gas: 31)\n 85860: sp = sp + 0xffffffffffffff00\n 85864: u64 [sp + 0xf8] = ra\n 85868: u64 [sp + 0xf0] = s0\n 85872: u64 [sp + 0xe8] = s1\n 85876: s0 = sp + 0x100\n 85880: sp = sp & 0xffffffffffffffe0\n 85883: a1 = u64 [a0 + 0x18]\n 85886: u64 [sp] = a1\n 85888: a1 = u64 [a0 + 0x10]\n 85891: u64 [sp + 0x8] = a1\n 85894: a1 = u64 [a0 + 0x8]\n 85897: u64 [sp + 0x10] = a1\n 85900: a0 = u64 [a0]\n 85902: u64 [sp + 0x18] = a0\n 85905: u64 [sp + 184] = 0\n 85909: u64 [sp + 176] = 0\n 85913: u64 [sp + 168] = 0\n 85917: s1 = 0x5\n 85920: u64 [sp + 0xa0] = s1\n 85924: u64 [sp + 216] = 0\n 85928: u64 [sp + 208] = 0\n 85932: u64 [sp + 200] = 0\n 85936: u64 [sp + 192] = 0\n 85940: u32 [sp + 128] = 0x20\n 85945: i32 a1 = sp + 0xa0\n 85949: i32 a3 = sp + 0xc0\n 85953: i32 a4 = sp + 0x80\n 85957: a2 = 0xffffffffffffffff\n 85960: a0 = 0\n 85962: ecalli 8 // 'get_storage'\n 85964: fallthrough\n      : @1144 (gas: 9)\n 85965: a0 = u64 [sp + 0xd8]\n 85969: a1 = u64 [sp + 0xc8]\n 85973: a2 = u64 [sp + 0xc0]\n 85977: a3 = u64 [sp + 0xd0]\n 85981: a0 = a0 | a1\n 85984: a1 = a2 ^ 0x1\n 85987: a1 = a1 | a3\n 85990: a0 = a0 | a1\n 85993: jump @1147 if a0 != 0\n      : @1145 (gas: 56)\n 85997: u64 [sp + 184] = 0\n 86001: u64 [sp + 176] = 0\n 86005: u64 [sp + 168] = 0\n 86009: u64 [sp + 160] = 0x5\n 86014: u64 [sp + 216] = 0\n 86018: u64 [sp + 208] = 0\n 86022: u64 [sp + 200] = 0\n 86026: u64 [sp + 192] = 0\n 86030: u32 [sp + 128] = 0x20\n 86035: i32 a1 = sp + 0xa0\n 86039: i32 a3 = sp + 0xc0\n 86043: i32 a4 = sp + 0x80\n 86047: a2 = 0xffffffffffffffff\n 86050: a0 = 0\n 86052: ecalli 8 // 'get_storage'\n 86054: u64 [sp + 184] = 0\n 86058: u64 [sp + 176] = 0\n 86062: u64 [sp + 168] = 0\n 86066: u64 [sp + 160] = 0x5\n 86071: u64 [sp + 216] = 0\n 86075: u64 [sp + 208] = 0\n 86079: u64 [sp + 200] = 0\n 86083: u64 [sp + 192] = 0x2\n 86088: i32 a1 = sp + 0xa0\n 86092: i32 a3 = sp + 0xc0\n 86096: a2 = 0xffffffffffffffff\n 86099: a4 = 0x20\n 86102: a0 = 0\n 86104: ecalli 16 // 'set_storage'\n 86106: a0 = u64 [sp]\n 86108: u64 [sp + 0x38] = a0\n 86111: a0 = u64 [sp + 0x8]\n 86114: u64 [sp + 0x30] = a0\n 86117: a0 = u64 [sp + 0x10]\n 86120: u64 [sp + 0x28] = a0\n 86123: a0 = sp + 0x20\n 86126: a1 = u64 [sp + 0x18]\n 86129: u64 [sp + 0x20] = a1\n 86132: ra = 0x3e4\n 86136: sp = sp + 0xfffffffffffffee0\n 86140: u64 [sp + 0x118] = ra\n 86144: u64 [sp + 0x110] = s0\n 86148: u64 [sp + 264] = 0x5\n 86153: s0 = sp + 0x120\n 86157: sp = sp & 0xffffffffffffffe0\n 86160: a1 = u64 [a0]\n 86162: u64 [sp + 0x38] = a1\n 86165: a1 = u64 [a0 + 0x8]\n 86168: u64 [sp + 0x30] = a1\n 86171: a1 = u64 [a0 + 0x10]\n 86174: u64 [sp + 0x28] = a1\n 86177: s1 = u64 [a0 + 0x18]\n 86180: a1 = 0x20\n 86183: a0 = 0\n 86185: ra = 0x3f8\n 86189: jump @0\n      : @1146 [@dyn 498] (gas: 35)\n 86193: u64 [sp + 184] = 0\n 86197: u64 [sp + 176] = 0\n 86201: u64 [sp + 168] = 0\n 86205: u64 [sp + 0xa0] = s1\n 86209: u64 [sp + 216] = 0\n 86213: u64 [sp + 208] = 0\n 86217: u64 [sp + 200] = 0\n 86221: u64 [sp + 192] = 0\n 86225: u32 [sp + 128] = 0x20\n 86230: i32 a1 = sp + 0xa0\n 86234: i32 a3 = sp + 0xc0\n 86238: i32 a4 = sp + 0x80\n 86242: a2 = 0xffffffffffffffff\n 86245: a0 = 0\n 86247: ecalli 8 // 'get_storage'\n 86249: u64 [sp + 184] = 0\n 86253: u64 [sp + 176] = 0\n 86257: u64 [sp + 168] = 0\n 86261: u64 [sp + 0xa0] = s1\n 86265: u64 [sp + 216] = 0\n 86269: u64 [sp + 208] = 0\n 86273: u64 [sp + 200] = 0\n 86277: u64 [sp + 192] = 0x1\n 86282: i32 a1 = sp + 0xa0\n 86286: i32 a3 = sp + 0xc0\n 86290: a2 = 0xffffffffffffffff\n 86293: a4 = 0x20\n 86296: a0 = 0\n 86298: ecalli 16 // 'set_storage'\n 86300: sp = s0 + 0xffffffffffffff00\n 86304: ra = u64 [sp + 0xf8]\n 86308: s0 = u64 [sp + 0xf0]\n 86312: s1 = u64 [sp + 0xe8]\n 86316: sp = sp + 0x100\n 86320: ret\n      : @1147 (gas: 3)\n 86322: a0 = 0x40\n 86325: a1 = 0x20\n 86328: ra = 998, jump @0\n      : @1148 [@dyn 499] (gas: 103)\n 86335: a1 = u8 [a0 + 0x11]\n 86338: a2 = u8 [a0 + 0x10]\n 86341: a3 = u8 [a0 + 0x12]\n 86344: a4 = u8 [a0 + 0x13]\n 86347: a1 = a1 << 0x8\n 86350: a1 = a1 | a2\n 86353: a3 = a3 << 0x10\n 86356: a4 = a4 << 0x18\n 86359: a3 = a3 | a4\n 86362: a1 = a1 | a3\n 86365: a2 = u8 [a0 + 0x15]\n 86368: a3 = u8 [a0 + 0x14]\n 86371: a4 = u8 [a0 + 0x16]\n 86374: a5 = u8 [a0 + 0x17]\n 86377: a2 = a2 << 0x8\n 86380: a2 = a2 | a3\n 86383: a4 = a4 << 0x10\n 86386: a5 = a5 << 0x18\n 86389: a4 = a4 | a5\n 86392: a2 = a2 | a4\n 86395: a2 = a2 << 0x20\n 86398: t0 = a2 | a1\n 86401: a2 = u8 [a0 + 0x1]\n 86404: a3 = u8 [a0]\n 86406: a4 = u8 [a0 + 0x2]\n 86409: a5 = u8 [a0 + 0x3]\n 86412: a2 = a2 << 0x8\n 86415: a2 = a2 | a3\n 86418: a4 = a4 << 0x10\n 86421: a5 = a5 << 0x18\n 86424: a4 = a4 | a5\n 86427: a2 = a2 | a4\n 86430: a3 = u8 [a0 + 0x5]\n 86433: a4 = u8 [a0 + 0x4]\n 86436: a5 = u8 [a0 + 0x6]\n 86439: s1 = u8 [a0 + 0x7]\n 86442: a3 = a3 << 0x8\n 86445: a3 = a3 | a4\n 86448: a5 = a5 << 0x10\n 86451: s1 = s1 << 0x18\n 86454: a5 = a5 | s1\n 86457: a3 = a3 | a5\n 86460: a3 = a3 << 0x20\n 86463: a2 = a2 | a3\n 86466: a3 = u8 [a0 + 0x19]\n 86469: a4 = u8 [a0 + 0x18]\n 86472: a5 = u8 [a0 + 0x1a]\n 86475: s1 = u8 [a0 + 0x1b]\n 86478: a3 = a3 << 0x8\n 86481: a3 = a3 | a4\n 86484: a5 = a5 << 0x10\n 86487: s1 = s1 << 0x18\n 86490: a5 = a5 | s1\n 86493: a3 = a3 | a5\n 86496: a4 = u8 [a0 + 0x1d]\n 86499: a5 = u8 [a0 + 0x1c]\n 86502: s1 = u8 [a0 + 0x1e]\n 86505: a1 = u8 [a0 + 0x1f]\n 86508: a4 = a4 << 0x8\n 86511: a4 = a4 | a5\n 86514: s1 = s1 << 0x10\n 86517: a1 = a1 << 0x18\n 86520: a1 = a1 | s1\n 86523: a1 = a1 | a4\n 86526: a1 = a1 << 0x20\n 86529: a3 = a3 | a1\n 86532: a1 = u8 [a0 + 0x9]\n 86535: a4 = u8 [a0 + 0x8]\n 86538: a5 = u8 [a0 + 0xa]\n 86541: s1 = u8 [a0 + 0xb]\n 86544: a1 = a1 << 0x8\n 86547: a1 = a1 | a4\n 86550: a5 = a5 << 0x10\n 86553: s1 = s1 << 0x18\n 86556: a5 = a5 | s1\n 86559: a1 = a1 | a5\n 86562: a4 = u8 [a0 + 0xd]\n 86565: a5 = u8 [a0 + 0xc]\n 86568: s1 = u8 [a0 + 0xe]\n 86571: a0 = u8 [a0 + 0xf]\n 86574: a4 = a4 << 0x8\n 86577: a4 = a4 | a5\n 86580: s1 = s1 << 0x10\n 86583: a0 = a0 << 0x18\n 86586: a0 = a0 | s1\n 86589: a0 = a0 | a4\n 86592: a0 = a0 << 0x20\n 86595: a0 = a0 | a1\n 86598: s1 = reverse a0\n 86600: a1 = reverse a3\n 86602: a2 = reverse a2\n 86604: a0 = reverse t0\n 86606: u64 [sp + 0x18] = a0\n 86609: u64 [sp + 0x10] = a2\n 86612: a0 = a0 | a2\n 86615: a2 = a1\n 86617: a1 = a1 | s1\n 86620: a1 = a1 | a0\n 86623: a1 = a1 >> 0x20\n 86626: a0 = a0 | s1\n 86629: a0 = a0 << 0x20\n 86632: a0 = a0 | a1\n 86635: jump @1152 if a0 != 0\n      : @1149 (gas: 5)\n 86639: u64 [sp + 0x8] = a2\n 86642: i32 a0 = a2 + 0\n 86644: a1 = 0x20\n 86647: u64 [sp] = a0\n 86649: ra = 1000, jump @0\n      : @1150 [@dyn 500] (gas: 50)\n 86656: u8 [a0 + 31] = 0\n 86659: u8 [a0 + 30] = 0\n 86662: u8 [a0 + 29] = 0\n 86665: u8 [a0 + 28] = 0\n 86668: u8 [a0 + 27] = 0\n 86671: u8 [a0 + 26] = 0\n 86674: u8 [a0 + 25] = 0\n 86677: u8 [a0 + 24] = 0\n 86680: u8 [a0 + 23] = 0\n 86683: u8 [a0 + 22] = 0\n 86686: u8 [a0 + 21] = 0\n 86689: u8 [a0 + 20] = 0\n 86692: u8 [a0 + 19] = 0\n 86695: u8 [a0 + 18] = 0\n 86698: u8 [a0 + 17] = 0\n 86701: u8 [a0 + 16] = 0\n 86704: u8 [a0 + 15] = 0\n 86707: u8 [a0 + 14] = 0\n 86710: u8 [a0 + 13] = 0\n 86713: u8 [a0 + 12] = 0\n 86716: u8 [a0 + 11] = 0\n 86719: u8 [a0 + 10] = 0\n 86722: u8 [a0 + 9] = 0\n 86725: u8 [a0 + 8] = 0\n 86728: u8 [a0 + 7] = 0\n 86731: u8 [a0 + 6] = 0\n 86734: u8 [a0 + 5] = 0\n 86737: u8 [a0 + 4] = 0\n 86740: u8 [a0 + 3] = 0xa0\n 86745: u8 [a0 + 2] = 0x79\n 86749: u8 [a0 + 1] = 0xc3\n 86754: u8 [a0 + 0] = 0x8\n 86757: a1 = u64 [sp + 0x8]\n 86760: a0 = a1 + 0x4\n 86763: a1 = a0 <u a1\n 86766: a3 = u64 [sp + 0x18]\n 86769: a2 = a3 + a1\n 86772: a3 = a2 <u a3\n 86775: a3 = a1 if a1 == 0\n 86778: a3 = a3 + s1\n 86781: a1 = a3 <u s1\n 86784: a4 = u64 [sp + 0x10]\n 86787: a4 = a4 + a1\n 86790: u64 [sp + 0x48] = a2\n 86793: u64 [sp + 0x40] = a0\n 86796: u64 [sp + 0x50] = a3\n 86799: a0 = sp + 0x60\n 86802: a1 = sp + 0x40\n 86805: u64 [sp + 0x58] = a4\n 86808: ra = 1002, jump @922\n      : @1151 [@dyn 501] (gas: 30)\n 86814: a0 = u64 [sp + 0x68]\n 86817: t0 = u64 [sp + 0x78]\n 86820: t1 = u64 [sp + 0x60]\n 86823: a3 = u64 [sp + 0x70]\n 86826: a1 = u64 [sp + 0x18]\n 86829: a4 = a0 ^ a1\n 86832: a5 = a0 <u a1\n 86835: t2 = a1\n 86837: a2 = u64 [sp + 0x8]\n 86840: a1 = t1 <u a2\n 86843: a5 = a1 if a4 == 0\n 86846: a4 = a3 - s1\n 86849: a3 = a3 <u s1\n 86852: s1 = u64 [sp + 0x10]\n 86855: s1 = t0 - s1\n 86858: s1 = s1 - a3\n 86861: a3 = a4 <u a5\n 86864: s1 = s1 - a3\n 86867: a4 = a4 - a5\n 86870: a0 = a0 - t2\n 86873: a1 = a0 - a1\n 86876: a0 = t1 - a2\n 86879: a1 = a1 | s1\n 86882: a2 = a0 | a4\n 86885: a2 = a2 | a1\n 86888: a1 = a1 | a4\n 86891: a2 = a2 >> 0x20\n 86894: a1 = a1 << 0x20\n 86897: a1 = a1 | a2\n 86900: jump @1153 if a1 == 0\n      : @1152 (gas: 1)\n 86903: trap\n      : @1153 (gas: 4)\n 86904: i32 s1 = a0 + 0\n 86906: a0 = u64 [sp]\n 86908: a1 = s1\n 86910: ra = 1004, jump @0\n      : @1154 [@dyn 502] (gas: 6)\n 86917: i32 a1 = a0 + 0\n 86919: a0 = 0x1\n 86922: a2 = s1\n 86924: ra = 0x3ee\n 86928: ecalli 14 // 'seal_return'\n 86930: fallthrough\n      : @1155 [@dyn 503] (gas: 12)\n 86931: a1 = u64 [a0 + 0x10]\n 86934: a2 = u64 [a0 + 0x18]\n 86937: a3 = u64 [a0 + 0x8]\n 86940: a0 = u64 [a0]\n 86942: a2 = a2 | a3\n 86945: a3 = a0 | a1\n 86948: a3 = a3 | a2\n 86951: a3 = a3 >> 0x20\n 86954: a1 = a1 | a2\n 86957: a1 = a1 << 0x20\n 86960: a1 = a1 | a3\n 86963: jump @1158 if a1 != 0\n      : @1156 (gas: 7)\n 86967: sp = sp + 0xfffffffffffffff0\n 86970: u64 [sp + 0x8] = ra\n 86973: u64 [sp] = s0\n 86975: i32 a0 = a0 + 0\n 86977: a1 = 0x20\n 86980: s0 = 0x20\n 86983: ra = 1008, jump @0\n      : @1157 [@dyn 504] (gas: 40)\n 86990: u8 [a0 + 31] = 0\n 86993: u8 [a0 + 30] = 0\n 86996: u8 [a0 + 29] = 0\n 86999: u8 [a0 + 28] = 0\n 87002: u8 [a0 + 27] = 0\n 87005: u8 [a0 + 26] = 0\n 87008: u8 [a0 + 25] = 0\n 87011: u8 [a0 + 24] = 0\n 87014: u8 [a0 + 23] = 0\n 87017: u8 [a0 + 22] = 0\n 87020: u8 [a0 + 21] = 0\n 87023: u8 [a0 + 20] = 0x65\n 87027: u8 [a0 + 19] = 0x74\n 87031: u8 [a0 + 18] = 0x61\n 87035: u8 [a0 + 17] = 0x74\n 87039: u8 [a0 + 16] = 0x73\n 87043: u8 [a0 + 0xf] = s0\n 87046: u8 [a0 + 14] = 0x64\n 87050: a3 = 0x69\n 87053: u8 [a0 + 0xd] = a3\n 87056: a4 = 0x6c\n 87059: u8 [a0 + 0xc] = a4\n 87062: u8 [a0 + 11] = 0x61\n 87066: u8 [a0 + 10] = 0x76\n 87070: u8 [a0 + 9] = 0x6e\n 87074: u8 [a0 + 0x8] = a3\n 87077: u8 [a0 + 0x7] = s0\n 87080: u8 [a0 + 6] = 0x3a\n 87084: u8 [a0 + 5] = 0x77\n 87088: u8 [a0 + 4] = 0x6f\n 87092: u8 [a0 + 3] = 0x72\n 87096: a2 = 0x63\n 87099: u8 [a0 + 0x2] = a2\n 87102: u8 [a0 + 1] = 0x73\n 87106: a1 = 0x45\n 87109: u8 [a0] = a1\n 87111: ra = u64 [sp + 0x8]\n 87114: s0 = u64 [sp]\n 87116: sp = sp + 0x10\n 87119: ret\n      : @1158 (gas: 1)\n 87121: trap\n      : @1159 (gas: 17)\n 87122: sp = sp + 0xffffffffffffffa0\n 87125: u64 [sp + 0x58] = ra\n 87128: u64 [sp + 0x50] = s0\n 87131: u64 [sp + 0x48] = s1\n 87134: a3 = u64 [a1 + 0x18]\n 87137: a4 = u64 [a1 + 0x10]\n 87140: a5 = u64 [a1 + 0x8]\n 87143: s1 = u64 [a1]\n 87145: a1 = a5 | a3\n 87148: a2 = s1 | a4\n 87151: a2 = a2 | a1\n 87154: a2 = a2 >> 0x20\n 87157: a1 = a1 | a4\n 87160: a1 = a1 << 0x20\n 87163: a1 = a1 | a2\n 87166: u64 [sp + 0x28] = a0\n 87169: jump @1166 if a1 != 0\n      : @1160 (gas: 19)\n 87173: a0 = s1 + 0x20\n 87176: u64 [sp + 0x30] = a0\n 87179: a0 = a0 <u s1\n 87182: a1 = a5 + a0\n 87185: u64 [sp + 0x40] = a1\n 87188: u64 [sp + 0x8] = a5\n 87191: s0 = a1 <u a5\n 87194: s0 = a0 if a0 == 0\n 87197: s0 = s0 + a4\n 87200: u64 [sp + 0x10] = a4\n 87203: a0 = s0 <u a4\n 87206: u64 [sp + 0x18] = a3\n 87209: a0 = a0 + a3\n 87212: u64 [sp + 0x38] = a0\n 87215: u64 [sp] = s1\n 87217: i32 a0 = s1 + 0\n 87219: a1 = 0x20\n 87222: s1 = 0x20\n 87225: ra = 1010, jump @0\n      : @1161 [@dyn 505] (gas: 45)\n 87232: u8 [a0 + 0x1f] = s1\n 87235: a1 = u64 [sp + 0x30]\n 87238: s1 = a1\n 87240: a1 = a1 | s0\n 87243: a2 = u64 [sp + 0x40]\n 87246: a4 = u64 [sp + 0x38]\n 87249: a2 = a2 | a4\n 87252: a1 = a1 | a2\n 87255: a1 = a1 >> 0x20\n 87258: u64 [sp + 0x20] = s0\n 87261: a2 = a2 | s0\n 87264: a2 = a2 << 0x20\n 87267: a1 = a1 | a2\n 87270: u8 [a0 + 30] = 0\n 87273: u8 [a0 + 29] = 0\n 87276: u8 [a0 + 28] = 0\n 87279: u8 [a0 + 27] = 0\n 87282: u8 [a0 + 26] = 0\n 87285: u8 [a0 + 25] = 0\n 87288: u8 [a0 + 24] = 0\n 87291: u8 [a0 + 23] = 0\n 87294: u8 [a0 + 22] = 0\n 87297: u8 [a0 + 21] = 0\n 87300: u8 [a0 + 20] = 0\n 87303: u8 [a0 + 19] = 0\n 87306: u8 [a0 + 18] = 0\n 87309: u8 [a0 + 17] = 0\n 87312: u8 [a0 + 16] = 0\n 87315: u8 [a0 + 15] = 0\n 87318: u8 [a0 + 14] = 0\n 87321: u8 [a0 + 13] = 0\n 87324: u8 [a0 + 12] = 0\n 87327: u8 [a0 + 11] = 0\n 87330: u8 [a0 + 10] = 0\n 87333: u8 [a0 + 9] = 0\n 87336: u8 [a0 + 8] = 0\n 87339: u8 [a0 + 7] = 0\n 87342: u8 [a0 + 6] = 0\n 87345: u8 [a0 + 5] = 0\n 87348: u8 [a0 + 4] = 0\n 87351: u8 [a0 + 3] = 0\n 87354: u8 [a0 + 2] = 0\n 87357: u8 [a0 + 1] = 0\n 87360: u8 [a0 + 0] = 0\n 87362: jump @1166 if a1 != 0\n      : @1162 (gas: 4)\n 87366: i32 s0 = s1 + 0\n 87368: a1 = 0x20\n 87371: a0 = s0\n 87373: ra = 1012, jump @0\n      : @1163 [@dyn 506] (gas: 41)\n 87380: u8 [a0 + 31] = 0x15\n 87384: u8 [a0 + 30] = 0\n 87387: u8 [a0 + 29] = 0\n 87390: u8 [a0 + 28] = 0\n 87393: u8 [a0 + 27] = 0\n 87396: u8 [a0 + 26] = 0\n 87399: u8 [a0 + 25] = 0\n 87402: u8 [a0 + 24] = 0\n 87405: u8 [a0 + 23] = 0\n 87408: u8 [a0 + 22] = 0\n 87411: u8 [a0 + 21] = 0\n 87414: u8 [a0 + 20] = 0\n 87417: u8 [a0 + 19] = 0\n 87420: u8 [a0 + 18] = 0\n 87423: u8 [a0 + 17] = 0\n 87426: u8 [a0 + 16] = 0\n 87429: u8 [a0 + 15] = 0\n 87432: u8 [a0 + 14] = 0\n 87435: u8 [a0 + 13] = 0\n 87438: u8 [a0 + 12] = 0\n 87441: u8 [a0 + 11] = 0\n 87444: u8 [a0 + 10] = 0\n 87447: u8 [a0 + 9] = 0\n 87450: u8 [a0 + 8] = 0\n 87453: u8 [a0 + 7] = 0\n 87456: u8 [a0 + 6] = 0\n 87459: u8 [a0 + 5] = 0\n 87462: u8 [a0 + 4] = 0\n 87465: u8 [a0 + 3] = 0\n 87468: u8 [a0 + 2] = 0\n 87471: u8 [a0 + 1] = 0\n 87474: a1 = u64 [sp + 0x20]\n 87477: a2 = u64 [sp + 0x38]\n 87480: a1 = a1 | a2\n 87483: a2 = 0xffffffe0\n 87493: a2 = s1 <u a2\n 87496: a3 = u64 [sp + 0x40]\n 87499: a2 = 0 if a3 != 0\n 87501: a2 = 0 if a1 != 0\n 87503: u8 [a0 + 0] = 0\n 87505: jump @1166 if a2 == 0\n      : @1164 (gas: 3)\n 87509: i32 a0 = s0 + 0x20\n 87512: a1 = 0x20\n 87515: ra = 1014, jump @0\n      : @1165 [@dyn 507] (gas: 55)\n 87522: u8 [a0 + 31] = 0\n 87525: u8 [a0 + 30] = 0\n 87528: u8 [a0 + 29] = 0\n 87531: u8 [a0 + 28] = 0\n 87534: u8 [a0 + 27] = 0\n 87537: u8 [a0 + 26] = 0\n 87540: u8 [a0 + 25] = 0\n 87543: u8 [a0 + 24] = 0\n 87546: u8 [a0 + 23] = 0\n 87549: u8 [a0 + 22] = 0\n 87552: u8 [a0 + 21] = 0\n 87555: u8 [a0 + 20] = 0x65\n 87559: u8 [a0 + 19] = 0x74\n 87563: u8 [a0 + 18] = 0x61\n 87567: u8 [a0 + 17] = 0x74\n 87571: u8 [a0 + 16] = 0x73\n 87575: a5 = 0x20\n 87578: u8 [a0 + 0xf] = a5\n 87581: u8 [a0 + 14] = 0x64\n 87585: u8 [a0 + 13] = 0x69\n 87589: u8 [a0 + 12] = 0x6c\n 87593: u8 [a0 + 11] = 0x61\n 87597: u8 [a0 + 10] = 0x76\n 87601: u8 [a0 + 9] = 0x6e\n 87605: u8 [a0 + 8] = 0x69\n 87609: u8 [a0 + 0x7] = a5\n 87612: u8 [a0 + 6] = 0x3a\n 87616: u8 [a0 + 5] = 0x77\n 87620: u8 [a0 + 4] = 0x6f\n 87624: u8 [a0 + 3] = 0x72\n 87628: u8 [a0 + 2] = 0x63\n 87632: u8 [a0 + 1] = 0x73\n 87636: u8 [a0 + 0] = 0x45\n 87639: a1 = u64 [sp]\n 87641: a0 = a1 + 0x60\n 87644: a1 = a0 <u a1\n 87647: a3 = u64 [sp + 0x8]\n 87650: a2 = a3 + a1\n 87653: a3 = a2 <u a3\n 87656: a3 = a1 if a1 == 0\n 87659: a1 = u64 [sp + 0x10]\n 87662: a3 = a3 + a1\n 87665: a1 = a3 <u a1\n 87668: a4 = u64 [sp + 0x18]\n 87671: a1 = a1 + a4\n 87674: a4 = u64 [sp + 0x28]\n 87677: u64 [a4] = a0\n 87679: u64 [a4 + 0x8] = a2\n 87682: u64 [a4 + 0x10] = a3\n 87685: u64 [a4 + 0x18] = a1\n 87688: ra = u64 [sp + 0x58]\n 87691: s0 = u64 [sp + 0x50]\n 87694: s1 = u64 [sp + 0x48]\n 87697: sp = sp + 0x60\n 87700: ret\n      : @1166 (gas: 1)\n 87702: trap\n      : @1167 [@dyn 508] (gas: 70)\n 87703: a1 = reverse s1\n 87705: a2 = u64 [sp + 0x28]\n 87708: a2 = reverse a2\n 87710: a3 = u64 [sp + 0x30]\n 87713: a3 = reverse a3\n 87715: a4 = u64 [sp + 0x38]\n 87718: a4 = reverse a4\n 87720: u8 [a0 + 0x18] = a4\n 87723: u8 [a0 + 0x10] = a3\n 87726: u8 [a0 + 0x8] = a2\n 87729: u8 [a0] = a1\n 87731: a5 = a4 >> 0x38\n 87734: u8 [a0 + 0x1f] = a5\n 87737: a5 = a4 >> 0x30\n 87740: u8 [a0 + 0x1e] = a5\n 87743: a5 = a4 >> 0x28\n 87746: u8 [a0 + 0x1d] = a5\n 87749: a5 = a4 >> 0x20\n 87752: u8 [a0 + 0x1c] = a5\n 87755: a5 = a4 >> 0x18\n 87758: u8 [a0 + 0x1b] = a5\n 87761: a5 = a4 >> 0x10\n 87764: u8 [a0 + 0x1a] = a5\n 87767: a4 = a4 >> 0x8\n 87770: u8 [a0 + 0x19] = a4\n 87773: a4 = a3 >> 0x38\n 87776: u8 [a0 + 0x17] = a4\n 87779: a4 = a3 >> 0x30\n 87782: u8 [a0 + 0x16] = a4\n 87785: a4 = a3 >> 0x28\n 87788: u8 [a0 + 0x15] = a4\n 87791: a4 = a3 >> 0x20\n 87794: u8 [a0 + 0x14] = a4\n 87797: a4 = a3 >> 0x18\n 87800: u8 [a0 + 0x13] = a4\n 87803: a4 = a3 >> 0x10\n 87806: u8 [a0 + 0x12] = a4\n 87809: a3 = a3 >> 0x8\n 87812: u8 [a0 + 0x11] = a3\n 87815: a3 = a2 >> 0x38\n 87818: u8 [a0 + 0xf] = a3\n 87821: a3 = a2 >> 0x30\n 87824: u8 [a0 + 0xe] = a3\n 87827: a3 = a2 >> 0x28\n 87830: u8 [a0 + 0xd] = a3\n 87833: a3 = a2 >> 0x20\n 87836: u8 [a0 + 0xc] = a3\n 87839: a3 = a2 >> 0x18\n 87842: u8 [a0 + 0xb] = a3\n 87845: a3 = a2 >> 0x10\n 87848: u8 [a0 + 0xa] = a3\n 87851: a2 = a2 >> 0x8\n 87854: u8 [a0 + 0x9] = a2\n 87857: a2 = a1 >> 0x38\n 87860: u8 [a0 + 0x7] = a2\n 87863: a2 = a1 >> 0x30\n 87866: u8 [a0 + 0x6] = a2\n 87869: a2 = a1 >> 0x28\n 87872: u8 [a0 + 0x5] = a2\n 87875: a2 = a1 >> 0x20\n 87878: u8 [a0 + 0x4] = a2\n 87881: a2 = a1 >> 0x18\n 87884: u8 [a0 + 0x3] = a2\n 87887: a2 = a1 >> 0x10\n 87890: u8 [a0 + 0x2] = a2\n 87893: a1 = a1 >> 0x8\n 87896: u8 [a0 + 0x1] = a1\n 87899: a0 = 0x20\n 87902: a1 = 0x20\n 87905: ra = 1018, jump @0\n      : @1168 [@dyn 509] (gas: 35)\n 87912: u8 [a0 + 31] = 0x4\n 87916: u8 [a0 + 30] = 0\n 87919: u8 [a0 + 29] = 0\n 87922: u8 [a0 + 28] = 0\n 87925: u8 [a0 + 27] = 0\n 87928: u8 [a0 + 26] = 0\n 87931: u8 [a0 + 25] = 0\n 87934: u8 [a0 + 24] = 0\n 87937: u8 [a0 + 23] = 0\n 87940: u8 [a0 + 22] = 0\n 87943: u8 [a0 + 21] = 0\n 87946: u8 [a0 + 20] = 0\n 87949: u8 [a0 + 19] = 0\n 87952: u8 [a0 + 18] = 0\n 87955: u8 [a0 + 17] = 0\n 87958: u8 [a0 + 16] = 0\n 87961: u8 [a0 + 15] = 0\n 87964: u8 [a0 + 14] = 0\n 87967: u8 [a0 + 13] = 0\n 87970: u8 [a0 + 12] = 0\n 87973: u8 [a0 + 11] = 0\n 87976: u8 [a0 + 10] = 0\n 87979: u8 [a0 + 9] = 0\n 87982: u8 [a0 + 8] = 0\n 87985: u8 [a0 + 7] = 0\n 87988: u8 [a0 + 6] = 0\n 87991: u8 [a0 + 5] = 0\n 87994: u8 [a0 + 4] = 0\n 87997: u8 [a0 + 3] = 0\n 88000: u8 [a0 + 2] = 0\n 88003: u8 [a0 + 1] = 0\n 88006: u8 [a0 + 0] = 0\n 88008: a1 = 0x40\n 88011: a0 = 0\n 88013: ra = 1020, jump @0\n      : @1169 [@dyn 510] (gas: 43)\n 88020: i32 a0 = a0 + 0\n 88022: i32 a2 = sp + 0xe0\n 88026: a1 = 0x40\n 88029: ecalli 9 // 'hash_keccak_256'\n 88031: a0 = u64 [sp + 0xe0]\n 88035: a1 = u64 [sp + 0xe8]\n 88039: a2 = u64 [sp + 0xf0]\n 88043: a3 = u64 [sp + 0xf8]\n 88047: a4 = reverse a0\n 88049: a1 = reverse a1\n 88051: a2 = reverse a2\n 88053: a0 = reverse a3\n 88055: a3 = a0 + 0x2\n 88058: u64 [sp + 0x10] = a0\n 88061: a0 = a3 <u a0\n 88064: a5 = a2 + a0\n 88067: u64 [sp + 0x18] = a2\n 88070: s1 = a5 <u a2\n 88073: s1 = a0 if a0 == 0\n 88076: s1 = s1 + a1\n 88079: u64 [sp + 0x8] = a1\n 88082: a0 = s1 <u a1\n 88085: u64 [sp + 0x20] = a4\n 88088: a0 = a0 + a4\n 88091: u64 [sp + 0x30] = a5\n 88094: u64 [sp + 0xc8] = a5\n 88098: u64 [sp + 0x38] = a3\n 88101: u64 [sp + 0xc0] = a3\n 88105: u64 [sp + 0xd0] = s1\n 88109: u64 [sp + 0x28] = a0\n 88112: u64 [sp + 0xd8] = a0\n 88116: u64 [sp + 248] = 0\n 88120: u64 [sp + 240] = 0\n 88124: u64 [sp + 232] = 0\n 88128: u64 [sp + 224] = 0\n 88132: u32 [sp + 256] = 0x20\n 88137: i32 a1 = sp + 0xc0\n 88141: i32 a3 = sp + 0xe0\n 88145: i32 a4 = sp + 0x100\n 88149: a2 = 0xffffffffffffffff\n 88152: a0 = 0\n 88154: ecalli 8 // 'get_storage'\n 88156: fallthrough\n      : @1170 (gas: 2)\n 88157: a0 = u8 [sp + 0xe1]\n 88161: jump @1175 if a0 == 0\n      : @1171 (gas: 19)\n 88165: u64 [sp + 0xd0] = s1\n 88169: a0 = u64 [sp + 0x30]\n 88172: u64 [sp + 0xc8] = a0\n 88176: a0 = u64 [sp + 0x38]\n 88179: u64 [sp + 0xc0] = a0\n 88183: a0 = u64 [sp + 0x28]\n 88186: u64 [sp + 0xd8] = a0\n 88190: u64 [sp + 248] = 0\n 88194: u64 [sp + 240] = 0\n 88198: u64 [sp + 232] = 0\n 88202: u64 [sp + 224] = 0\n 88206: u32 [sp + 256] = 0x20\n 88211: i32 a1 = sp + 0xc0\n 88215: i32 a3 = sp + 0xe0\n 88219: i32 a4 = sp + 0x100\n 88223: a2 = 0xffffffffffffffff\n 88226: a0 = 0\n 88228: ecalli 8 // 'get_storage'\n 88230: fallthrough\n      : @1172 (gas: 2)\n 88231: a0 = u8 [sp + 0xe2]\n 88235: jump @1175 if a0 != 0\n      : @1173 (gas: 111)\n 88239: u64 [sp + 0xd0] = s1\n 88243: a0 = u64 [sp + 0x30]\n 88246: u64 [sp + 0xc8] = a0\n 88250: a0 = u64 [sp + 0x38]\n 88253: u64 [sp + 0xc0] = a0\n 88257: u64 [sp] = s1\n 88259: s1 = u64 [sp + 0x28]\n 88262: u64 [sp + 0xd8] = s1\n 88266: u64 [sp + 248] = 0\n 88270: u64 [sp + 240] = 0\n 88274: u64 [sp + 232] = 0\n 88278: u64 [sp + 224] = 0\n 88282: u32 [sp + 256] = 0x20\n 88287: i32 a1 = sp + 0xc0\n 88291: i32 a3 = sp + 0xe0\n 88295: i32 a4 = sp + 0x100\n 88299: a2 = 0xffffffffffffffff\n 88302: a0 = 0\n 88304: ecalli 8 // 'get_storage'\n 88306: a0 = u64 [sp + 0xe8]\n 88310: a1 = u64 [sp + 0xf0]\n 88314: a2 = u64 [sp + 0xe0]\n 88318: a3 = u64 [sp + 0xf8]\n 88322: a2 = a2 & 0xffffffffff00ffff\n 88328: a2 = a2 | 0x10000\n 88333: u64 [sp + 0xd8] = s1\n 88337: a4 = u64 [sp]\n 88339: u64 [sp + 0xd0] = a4\n 88343: a4 = u64 [sp + 0x30]\n 88346: u64 [sp + 0xc8] = a4\n 88350: a4 = u64 [sp + 0x38]\n 88353: u64 [sp + 0xc0] = a4\n 88357: u64 [sp + 0xf8] = a3\n 88361: u64 [sp + 0xf0] = a1\n 88365: u64 [sp + 0xe8] = a0\n 88369: u64 [sp + 0xe0] = a2\n 88373: i32 a1 = sp + 0xc0\n 88377: i32 a3 = sp + 0xe0\n 88381: a2 = 0xffffffffffffffff\n 88384: a4 = 0x20\n 88387: a0 = 0\n 88389: ecalli 16 // 'set_storage'\n 88391: a0 = u64 [sp + 0x20]\n 88394: u64 [sp + 0xd8] = a0\n 88398: s1 = u64 [sp + 0x8]\n 88401: u64 [sp + 0xd0] = s1\n 88405: a0 = u64 [sp + 0x18]\n 88408: u64 [sp + 0xc8] = a0\n 88412: a0 = u64 [sp + 0x10]\n 88415: u64 [sp + 0xc0] = a0\n 88419: u64 [sp + 248] = 0\n 88423: u64 [sp + 240] = 0\n 88427: u64 [sp + 232] = 0\n 88431: u64 [sp + 224] = 0\n 88435: u32 [sp + 256] = 0x20\n 88440: i32 a1 = sp + 0xc0\n 88444: i32 a3 = sp + 0xe0\n 88448: i32 a4 = sp + 0x100\n 88452: a2 = 0xffffffffffffffff\n 88455: a0 = 0\n 88457: ecalli 8 // 'get_storage'\n 88459: a0 = u64 [sp + 0xe0]\n 88463: u64 [sp + 0x38] = a0\n 88466: a0 = u64 [sp + 0xe8]\n 88470: u64 [sp + 0x30] = a0\n 88473: a0 = u32 [sp + 0xf0]\n 88477: u64 [sp + 0x28] = a0\n 88480: a0 = u64 [sp + 0x10]\n 88483: a0 = a0 + 0x1\n 88486: a1 = a0 <u 0x1\n 88489: a2 = u64 [sp + 0x18]\n 88492: a1 = a1 + a2\n 88495: a2 = a0 | a1\n 88498: a2 = a2 <u 0x1\n 88501: a2 = a2 + s1\n 88504: a3 = a2 <u s1\n 88507: a4 = u64 [sp + 0x20]\n 88510: a3 = a3 + a4\n 88513: u64 [sp + 0xd8] = a3\n 88517: u64 [sp + 0xd0] = a2\n 88521: u64 [sp + 0xc8] = a1\n 88525: u64 [sp + 0xc0] = a0\n 88529: u64 [sp + 248] = 0\n 88533: u64 [sp + 240] = 0\n 88537: u64 [sp + 232] = 0\n 88541: u64 [sp + 224] = 0\n 88545: u32 [sp + 256] = 0x20\n 88550: i32 a1 = sp + 0xc0\n 88554: i32 a3 = sp + 0xe0\n 88558: i32 a4 = sp + 0x100\n 88562: a2 = 0xffffffffffffffff\n 88565: a0 = 0\n 88567: ecalli 8 // 'get_storage'\n 88569: a0 = u64 [sp + 0xe0]\n 88573: a1 = u64 [sp + 0xe8]\n 88577: a2 = u64 [sp + 0xf0]\n 88581: a3 = u64 [sp + 0xf8]\n 88585: u64 [sp + 0x98] = a3\n 88589: u64 [sp + 0x90] = a2\n 88593: u64 [sp + 0x88] = a1\n 88597: u64 [sp + 0x80] = a0\n 88601: u64 [sp + 184] = 0\n 88605: a0 = u64 [sp + 0x28]\n 88608: u64 [sp + 0xb0] = a0\n 88612: a0 = u64 [sp + 0x30]\n 88615: u64 [sp + 0xa8] = a0\n 88619: a0 = sp + 0xa0\n 88623: a1 = sp + 0x80\n 88627: a2 = u64 [sp + 0x38]\n 88630: u64 [sp + 0xa0] = a2\n 88634: ra = 1022, jump @1463\n      : @1174 [@dyn 511] (gas: 6)\n 88640: sp = s0 + 0xfffffffffffffee0\n 88644: ra = u64 [sp + 0x118]\n 88648: s0 = u64 [sp + 0x110]\n 88652: s1 = u64 [sp + 0x108]\n 88656: sp = sp + 0x120\n 88660: ret\n      : @1175 (gas: 3)\n 88662: a0 = 0x40\n 88665: a1 = 0x20\n 88668: ra = 1024, jump @0\n      : @1176 [@dyn 512] (gas: 103)\n 88675: a1 = u8 [a0 + 0x11]\n 88678: a2 = u8 [a0 + 0x10]\n 88681: a3 = u8 [a0 + 0x12]\n 88684: a4 = u8 [a0 + 0x13]\n 88687: a1 = a1 << 0x8\n 88690: a1 = a1 | a2\n 88693: a3 = a3 << 0x10\n 88696: a4 = a4 << 0x18\n 88699: a3 = a3 | a4\n 88702: a1 = a1 | a3\n 88705: a2 = u8 [a0 + 0x15]\n 88708: a3 = u8 [a0 + 0x14]\n 88711: a4 = u8 [a0 + 0x16]\n 88714: a5 = u8 [a0 + 0x17]\n 88717: a2 = a2 << 0x8\n 88720: a2 = a2 | a3\n 88723: a4 = a4 << 0x10\n 88726: a5 = a5 << 0x18\n 88729: a4 = a4 | a5\n 88732: a2 = a2 | a4\n 88735: a2 = a2 << 0x20\n 88738: t0 = a2 | a1\n 88741: a2 = u8 [a0 + 0x1]\n 88744: a3 = u8 [a0]\n 88746: a4 = u8 [a0 + 0x2]\n 88749: a5 = u8 [a0 + 0x3]\n 88752: a2 = a2 << 0x8\n 88755: a2 = a2 | a3\n 88758: a4 = a4 << 0x10\n 88761: a5 = a5 << 0x18\n 88764: a4 = a4 | a5\n 88767: a2 = a2 | a4\n 88770: a3 = u8 [a0 + 0x5]\n 88773: a4 = u8 [a0 + 0x4]\n 88776: a5 = u8 [a0 + 0x6]\n 88779: s1 = u8 [a0 + 0x7]\n 88782: a3 = a3 << 0x8\n 88785: a3 = a3 | a4\n 88788: a5 = a5 << 0x10\n 88791: s1 = s1 << 0x18\n 88794: a5 = a5 | s1\n 88797: a3 = a3 | a5\n 88800: a3 = a3 << 0x20\n 88803: a2 = a2 | a3\n 88806: a3 = u8 [a0 + 0x19]\n 88809: a4 = u8 [a0 + 0x18]\n 88812: a5 = u8 [a0 + 0x1a]\n 88815: s1 = u8 [a0 + 0x1b]\n 88818: a3 = a3 << 0x8\n 88821: a3 = a3 | a4\n 88824: a5 = a5 << 0x10\n 88827: s1 = s1 << 0x18\n 88830: a5 = a5 | s1\n 88833: a3 = a3 | a5\n 88836: a4 = u8 [a0 + 0x1d]\n 88839: a5 = u8 [a0 + 0x1c]\n 88842: s1 = u8 [a0 + 0x1e]\n 88845: a1 = u8 [a0 + 0x1f]\n 88848: a4 = a4 << 0x8\n 88851: a4 = a4 | a5\n 88854: s1 = s1 << 0x10\n 88857: a1 = a1 << 0x18\n 88860: a1 = a1 | s1\n 88863: a1 = a1 | a4\n 88866: a1 = a1 << 0x20\n 88869: a3 = a3 | a1\n 88872: a1 = u8 [a0 + 0x9]\n 88875: a4 = u8 [a0 + 0x8]\n 88878: a5 = u8 [a0 + 0xa]\n 88881: s1 = u8 [a0 + 0xb]\n 88884: a1 = a1 << 0x8\n 88887: a1 = a1 | a4\n 88890: a5 = a5 << 0x10\n 88893: s1 = s1 << 0x18\n 88896: a5 = a5 | s1\n 88899: a1 = a1 | a5\n 88902: a4 = u8 [a0 + 0xd]\n 88905: a5 = u8 [a0 + 0xc]\n 88908: s1 = u8 [a0 + 0xe]\n 88911: a0 = u8 [a0 + 0xf]\n 88914: a4 = a4 << 0x8\n 88917: a4 = a4 | a5\n 88920: s1 = s1 << 0x10\n 88923: a0 = a0 << 0x18\n 88926: a0 = a0 | s1\n 88929: a0 = a0 | a4\n 88932: a0 = a0 << 0x20\n 88935: a0 = a0 | a1\n 88938: s1 = reverse a0\n 88940: a1 = reverse a3\n 88942: a2 = reverse a2\n 88944: a0 = reverse t0\n 88946: u64 [sp + 0x38] = a0\n 88949: u64 [sp + 0x30] = a2\n 88952: a0 = a0 | a2\n 88955: a2 = a1\n 88957: a1 = a1 | s1\n 88960: a1 = a1 | a0\n 88963: a1 = a1 >> 0x20\n 88966: a0 = a0 | s1\n 88969: a0 = a0 << 0x20\n 88972: a0 = a0 | a1\n 88975: jump @1180 if a0 != 0\n      : @1177 (gas: 5)\n 88979: u64 [sp + 0x28] = a2\n 88982: i32 a0 = a2 + 0\n 88984: a1 = 0x20\n 88987: u64 [sp + 0x20] = a0\n 88990: ra = 1026, jump @0\n      : @1178 [@dyn 513] (gas: 50)\n 88997: u8 [a0 + 31] = 0\n 89000: u8 [a0 + 30] = 0\n 89003: u8 [a0 + 29] = 0\n 89006: u8 [a0 + 28] = 0\n 89009: u8 [a0 + 27] = 0\n 89012: u8 [a0 + 26] = 0\n 89015: u8 [a0 + 25] = 0\n 89018: u8 [a0 + 24] = 0\n 89021: u8 [a0 + 23] = 0\n 89024: u8 [a0 + 22] = 0\n 89027: u8 [a0 + 21] = 0\n 89030: u8 [a0 + 20] = 0\n 89033: u8 [a0 + 19] = 0\n 89036: u8 [a0 + 18] = 0\n 89039: u8 [a0 + 17] = 0\n 89042: u8 [a0 + 16] = 0\n 89045: u8 [a0 + 15] = 0\n 89048: u8 [a0 + 14] = 0\n 89051: u8 [a0 + 13] = 0\n 89054: u8 [a0 + 12] = 0\n 89057: u8 [a0 + 11] = 0\n 89060: u8 [a0 + 10] = 0\n 89063: u8 [a0 + 9] = 0\n 89066: u8 [a0 + 8] = 0\n 89069: u8 [a0 + 7] = 0\n 89072: u8 [a0 + 6] = 0\n 89075: u8 [a0 + 5] = 0\n 89078: u8 [a0 + 4] = 0\n 89081: u8 [a0 + 3] = 0xa0\n 89086: u8 [a0 + 2] = 0x79\n 89090: u8 [a0 + 1] = 0xc3\n 89095: u8 [a0 + 0] = 0x8\n 89098: a1 = u64 [sp + 0x28]\n 89101: a0 = a1 + 0x4\n 89104: a1 = a0 <u a1\n 89107: a3 = u64 [sp + 0x38]\n 89110: a2 = a3 + a1\n 89113: a3 = a2 <u a3\n 89116: a3 = a1 if a1 == 0\n 89119: a3 = a3 + s1\n 89122: a1 = a3 <u s1\n 89125: a4 = u64 [sp + 0x30]\n 89128: a4 = a4 + a1\n 89131: u64 [sp + 0x48] = a2\n 89134: u64 [sp + 0x40] = a0\n 89137: u64 [sp + 0x50] = a3\n 89140: a0 = sp + 0x60\n 89143: a1 = sp + 0x40\n 89146: u64 [sp + 0x58] = a4\n 89149: ra = 1028, jump @1159\n      : @1179 [@dyn 514] (gas: 30)\n 89155: a0 = u64 [sp + 0x68]\n 89158: t0 = u64 [sp + 0x78]\n 89161: t1 = u64 [sp + 0x60]\n 89164: a3 = u64 [sp + 0x70]\n 89167: a1 = u64 [sp + 0x38]\n 89170: a4 = a0 ^ a1\n 89173: a5 = a0 <u a1\n 89176: t2 = a1\n 89178: a2 = u64 [sp + 0x28]\n 89181: a1 = t1 <u a2\n 89184: a5 = a1 if a4 == 0\n 89187: a4 = a3 - s1\n 89190: a3 = a3 <u s1\n 89193: s1 = u64 [sp + 0x30]\n 89196: s1 = t0 - s1\n 89199: s1 = s1 - a3\n 89202: a3 = a4 <u a5\n 89205: s1 = s1 - a3\n 89208: a4 = a4 - a5\n 89211: a0 = a0 - t2\n 89214: a1 = a0 - a1\n 89217: a0 = t1 - a2\n 89220: a1 = a1 | s1\n 89223: a2 = a0 | a4\n 89226: a2 = a2 | a1\n 89229: a1 = a1 | a4\n 89232: a2 = a2 >> 0x20\n 89235: a1 = a1 << 0x20\n 89238: a1 = a1 | a2\n 89241: jump @1181 if a1 == 0\n      : @1180 (gas: 1)\n 89244: trap\n      : @1181 (gas: 4)\n 89245: i32 s1 = a0 + 0\n 89247: a0 = u64 [sp + 0x20]\n 89250: a1 = s1\n 89252: ra = 1030, jump @0\n      : @1182 [@dyn 515] (gas: 6)\n 89259: i32 a1 = a0 + 0\n 89261: a0 = 0x1\n 89264: a2 = s1\n 89266: ra = 0x408\n 89270: ecalli 14 // 'seal_return'\n 89272: fallthrough\n      : @1183 [@dyn 516] (gas: 15)\n 89273: sp = sp + 0xffffffffffffffd0\n 89276: u64 [sp + 0x28] = ra\n 89279: u64 [sp + 0x20] = s0\n 89282: s0 = sp + 0x30\n 89285: sp = sp & 0xfffffffffffffff0\n 89288: a1 = u64 [a0]\n 89290: a2 = u64 [a0 + 0x8]\n 89293: a3 = u64 [a0 + 0x10]\n 89296: a0 = u64 [a0 + 0x18]\n 89299: u64 [sp + 0x18] = a0\n 89302: u64 [sp + 0x10] = a3\n 89305: u64 [sp + 0x8] = a2\n 89308: a0 = sp\n 89310: u64 [sp] = a1\n 89312: ra = 1034, jump @1128\n      : @1184 [@dyn 517] (gas: 5)\n 89318: sp = s0 + 0xffffffffffffffd0\n 89321: ra = u64 [sp + 0x28]\n 89324: s0 = u64 [sp + 0x20]\n 89327: sp = sp + 0x30\n 89330: ret\n      : @1185 (gas: 17)\n 89332: sp = sp + 0xffffffffffffffa0\n 89335: u64 [sp + 0x58] = ra\n 89338: u64 [sp + 0x50] = s0\n 89341: u64 [sp + 0x48] = s1\n 89344: a3 = u64 [a1 + 0x18]\n 89347: a4 = u64 [a1 + 0x10]\n 89350: a5 = u64 [a1 + 0x8]\n 89353: s1 = u64 [a1]\n 89355: a1 = a5 | a3\n 89358: a2 = s1 | a4\n 89361: a2 = a2 | a1\n 89364: a2 = a2 >> 0x20\n 89367: a1 = a1 | a4\n 89370: a1 = a1 << 0x20\n 89373: a1 = a1 | a2\n 89376: u64 [sp + 0x28] = a0\n 89379: jump @1192 if a1 != 0\n      : @1186 (gas: 19)\n 89383: a0 = s1 + 0x20\n 89386: u64 [sp + 0x30] = a0\n 89389: a0 = a0 <u s1\n 89392: a1 = a5 + a0\n 89395: u64 [sp + 0x40] = a1\n 89398: u64 [sp + 0x8] = a5\n 89401: s0 = a1 <u a5\n 89404: s0 = a0 if a0 == 0\n 89407: s0 = s0 + a4\n 89410: u64 [sp + 0x10] = a4\n 89413: a0 = s0 <u a4\n 89416: u64 [sp + 0x18] = a3\n 89419: a0 = a0 + a3\n 89422: u64 [sp + 0x38] = a0\n 89425: u64 [sp] = s1\n 89427: i32 a0 = s1 + 0\n 89429: a1 = 0x20\n 89432: s1 = 0x20\n 89435: ra = 1036, jump @0\n      : @1187 [@dyn 518] (gas: 45)\n 89442: u8 [a0 + 0x1f] = s1\n 89445: a1 = u64 [sp + 0x30]\n 89448: s1 = a1\n 89450: a1 = a1 | s0\n 89453: a2 = u64 [sp + 0x40]\n 89456: a4 = u64 [sp + 0x38]\n 89459: a2 = a2 | a4\n 89462: a1 = a1 | a2\n 89465: a1 = a1 >> 0x20\n 89468: u64 [sp + 0x20] = s0\n 89471: a2 = a2 | s0\n 89474: a2 = a2 << 0x20\n 89477: a1 = a1 | a2\n 89480: u8 [a0 + 30] = 0\n 89483: u8 [a0 + 29] = 0\n 89486: u8 [a0 + 28] = 0\n 89489: u8 [a0 + 27] = 0\n 89492: u8 [a0 + 26] = 0\n 89495: u8 [a0 + 25] = 0\n 89498: u8 [a0 + 24] = 0\n 89501: u8 [a0 + 23] = 0\n 89504: u8 [a0 + 22] = 0\n 89507: u8 [a0 + 21] = 0\n 89510: u8 [a0 + 20] = 0\n 89513: u8 [a0 + 19] = 0\n 89516: u8 [a0 + 18] = 0\n 89519: u8 [a0 + 17] = 0\n 89522: u8 [a0 + 16] = 0\n 89525: u8 [a0 + 15] = 0\n 89528: u8 [a0 + 14] = 0\n 89531: u8 [a0 + 13] = 0\n 89534: u8 [a0 + 12] = 0\n 89537: u8 [a0 + 11] = 0\n 89540: u8 [a0 + 10] = 0\n 89543: u8 [a0 + 9] = 0\n 89546: u8 [a0 + 8] = 0\n 89549: u8 [a0 + 7] = 0\n 89552: u8 [a0 + 6] = 0\n 89555: u8 [a0 + 5] = 0\n 89558: u8 [a0 + 4] = 0\n 89561: u8 [a0 + 3] = 0\n 89564: u8 [a0 + 2] = 0\n 89567: u8 [a0 + 1] = 0\n 89570: u8 [a0 + 0] = 0\n 89572: jump @1192 if a1 != 0\n      : @1188 (gas: 4)\n 89576: i32 s0 = s1 + 0\n 89578: a1 = 0x20\n 89581: a0 = s0\n 89583: ra = 1038, jump @0\n      : @1189 [@dyn 519] (gas: 41)\n 89590: u8 [a0 + 31] = 0x1f\n 89594: u8 [a0 + 30] = 0\n 89597: u8 [a0 + 29] = 0\n 89600: u8 [a0 + 28] = 0\n 89603: u8 [a0 + 27] = 0\n 89606: u8 [a0 + 26] = 0\n 89609: u8 [a0 + 25] = 0\n 89612: u8 [a0 + 24] = 0\n 89615: u8 [a0 + 23] = 0\n 89618: u8 [a0 + 22] = 0\n 89621: u8 [a0 + 21] = 0\n 89624: u8 [a0 + 20] = 0\n 89627: u8 [a0 + 19] = 0\n 89630: u8 [a0 + 18] = 0\n 89633: u8 [a0 + 17] = 0\n 89636: u8 [a0 + 16] = 0\n 89639: u8 [a0 + 15] = 0\n 89642: u8 [a0 + 14] = 0\n 89645: u8 [a0 + 13] = 0\n 89648: u8 [a0 + 12] = 0\n 89651: u8 [a0 + 11] = 0\n 89654: u8 [a0 + 10] = 0\n 89657: u8 [a0 + 9] = 0\n 89660: u8 [a0 + 8] = 0\n 89663: u8 [a0 + 7] = 0\n 89666: u8 [a0 + 6] = 0\n 89669: u8 [a0 + 5] = 0\n 89672: u8 [a0 + 4] = 0\n 89675: u8 [a0 + 3] = 0\n 89678: u8 [a0 + 2] = 0\n 89681: u8 [a0 + 1] = 0\n 89684: a1 = u64 [sp + 0x20]\n 89687: a2 = u64 [sp + 0x38]\n 89690: a1 = a1 | a2\n 89693: a2 = 0xffffffe0\n 89703: a2 = s1 <u a2\n 89706: a3 = u64 [sp + 0x40]\n 89709: a2 = 0 if a3 != 0\n 89711: a2 = 0 if a1 != 0\n 89713: u8 [a0 + 0] = 0\n 89715: jump @1192 if a2 == 0\n      : @1190 (gas: 3)\n 89719: i32 a0 = s0 + 0x20\n 89722: a1 = 0x20\n 89725: ra = 1040, jump @0\n      : @1191 [@dyn 520] (gas: 55)\n 89732: u8 [a0 + 31] = 0\n 89735: u8 [a0 + 30] = 0x72\n 89739: u8 [a0 + 29] = 0x65\n 89743: u8 [a0 + 28] = 0x79\n 89747: u8 [a0 + 27] = 0x75\n 89751: u8 [a0 + 26] = 0x62\n 89755: u8 [a0 + 25] = 0x20\n 89759: u8 [a0 + 24] = 0x65\n 89763: u8 [a0 + 23] = 0x68\n 89767: u8 [a0 + 22] = 0x74\n 89771: u8 [a0 + 21] = 0x20\n 89775: u8 [a0 + 20] = 0x74\n 89779: u8 [a0 + 19] = 0x6f\n 89783: u8 [a0 + 18] = 0x6e\n 89787: u8 [a0 + 17] = 0x20\n 89791: u8 [a0 + 16] = 0x73\n 89795: u8 [a0 + 15] = 0x69\n 89799: u8 [a0 + 14] = 0x20\n 89803: u8 [a0 + 13] = 0x72\n 89807: u8 [a0 + 12] = 0x65\n 89811: u8 [a0 + 11] = 0x6c\n 89815: u8 [a0 + 10] = 0x6c\n 89819: u8 [a0 + 9] = 0x61\n 89823: u8 [a0 + 8] = 0x63\n 89827: u8 [a0 + 7] = 0x20\n 89831: u8 [a0 + 6] = 0x3a\n 89835: a5 = 0x77\n 89838: u8 [a0 + 0x5] = a5\n 89841: u8 [a0 + 4] = 0x6f\n 89845: u8 [a0 + 3] = 0x72\n 89849: u8 [a0 + 2] = 0x63\n 89853: u8 [a0 + 1] = 0x73\n 89857: u8 [a0 + 0] = 0x45\n 89860: a1 = u64 [sp]\n 89862: a0 = a1 + 0x60\n 89865: a1 = a0 <u a1\n 89868: a3 = u64 [sp + 0x8]\n 89871: a2 = a3 + a1\n 89874: a3 = a2 <u a3\n 89877: a3 = a1 if a1 == 0\n 89880: a1 = u64 [sp + 0x10]\n 89883: a3 = a3 + a1\n 89886: a1 = a3 <u a1\n 89889: a4 = u64 [sp + 0x18]\n 89892: a1 = a1 + a4\n 89895: a4 = u64 [sp + 0x28]\n 89898: u64 [a4] = a0\n 89900: u64 [a4 + 0x8] = a2\n 89903: u64 [a4 + 0x10] = a3\n 89906: u64 [a4 + 0x18] = a1\n 89909: ra = u64 [sp + 0x58]\n 89912: s0 = u64 [sp + 0x50]\n 89915: s1 = u64 [sp + 0x48]\n 89918: sp = sp + 0x60\n 89921: ret\n      : @1192 (gas: 1)\n 89923: trap\n      : @1193 (gas: 17)\n 89924: sp = sp + 0xffffffffffffffa0\n 89927: u64 [sp + 0x58] = ra\n 89930: u64 [sp + 0x50] = s0\n 89933: u64 [sp + 0x48] = s1\n 89936: a3 = u64 [a1 + 0x18]\n 89939: a4 = u64 [a1 + 0x10]\n 89942: a5 = u64 [a1 + 0x8]\n 89945: s1 = u64 [a1]\n 89947: a1 = a5 | a3\n 89950: a2 = s1 | a4\n 89953: a2 = a2 | a1\n 89956: a2 = a2 >> 0x20\n 89959: a1 = a1 | a4\n 89962: a1 = a1 << 0x20\n 89965: a1 = a1 | a2\n 89968: u64 [sp + 0x28] = a0\n 89971: jump @1200 if a1 != 0\n      : @1194 (gas: 19)\n 89975: a0 = s1 + 0x20\n 89978: u64 [sp + 0x30] = a0\n 89981: a0 = a0 <u s1\n 89984: a1 = a5 + a0\n 89987: u64 [sp + 0x40] = a1\n 89990: u64 [sp + 0x8] = a5\n 89993: s0 = a1 <u a5\n 89996: s0 = a0 if a0 == 0\n 89999: s0 = s0 + a4\n 90002: u64 [sp + 0x10] = a4\n 90005: a0 = s0 <u a4\n 90008: u64 [sp + 0x18] = a3\n 90011: a0 = a0 + a3\n 90014: u64 [sp + 0x38] = a0\n 90017: u64 [sp] = s1\n 90019: i32 a0 = s1 + 0\n 90021: a1 = 0x20\n 90024: s1 = 0x20\n 90027: ra = 1042, jump @0\n      : @1195 [@dyn 521] (gas: 45)\n 90034: u8 [a0 + 0x1f] = s1\n 90037: a1 = u64 [sp + 0x30]\n 90040: s1 = a1\n 90042: a1 = a1 | s0\n 90045: a2 = u64 [sp + 0x40]\n 90048: a4 = u64 [sp + 0x38]\n 90051: a2 = a2 | a4\n 90054: a1 = a1 | a2\n 90057: a1 = a1 >> 0x20\n 90060: u64 [sp + 0x20] = s0\n 90063: a2 = a2 | s0\n 90066: a2 = a2 << 0x20\n 90069: a1 = a1 | a2\n 90072: u8 [a0 + 30] = 0\n 90075: u8 [a0 + 29] = 0\n 90078: u8 [a0 + 28] = 0\n 90081: u8 [a0 + 27] = 0\n 90084: u8 [a0 + 26] = 0\n 90087: u8 [a0 + 25] = 0\n 90090: u8 [a0 + 24] = 0\n 90093: u8 [a0 + 23] = 0\n 90096: u8 [a0 + 22] = 0\n 90099: u8 [a0 + 21] = 0\n 90102: u8 [a0 + 20] = 0\n 90105: u8 [a0 + 19] = 0\n 90108: u8 [a0 + 18] = 0\n 90111: u8 [a0 + 17] = 0\n 90114: u8 [a0 + 16] = 0\n 90117: u8 [a0 + 15] = 0\n 90120: u8 [a0 + 14] = 0\n 90123: u8 [a0 + 13] = 0\n 90126: u8 [a0 + 12] = 0\n 90129: u8 [a0 + 11] = 0\n 90132: u8 [a0 + 10] = 0\n 90135: u8 [a0 + 9] = 0\n 90138: u8 [a0 + 8] = 0\n 90141: u8 [a0 + 7] = 0\n 90144: u8 [a0 + 6] = 0\n 90147: u8 [a0 + 5] = 0\n 90150: u8 [a0 + 4] = 0\n 90153: u8 [a0 + 3] = 0\n 90156: u8 [a0 + 2] = 0\n 90159: u8 [a0 + 1] = 0\n 90162: u8 [a0 + 0] = 0\n 90164: jump @1200 if a1 != 0\n      : @1196 (gas: 4)\n 90168: i32 s0 = s1 + 0\n 90170: a1 = 0x20\n 90173: a0 = s0\n 90175: ra = 1044, jump @0\n      : @1197 [@dyn 522] (gas: 41)\n 90182: u8 [a0 + 31] = 0x1e\n 90186: u8 [a0 + 30] = 0\n 90189: u8 [a0 + 29] = 0\n 90192: u8 [a0 + 28] = 0\n 90195: u8 [a0 + 27] = 0\n 90198: u8 [a0 + 26] = 0\n 90201: u8 [a0 + 25] = 0\n 90204: u8 [a0 + 24] = 0\n 90207: u8 [a0 + 23] = 0\n 90210: u8 [a0 + 22] = 0\n 90213: u8 [a0 + 21] = 0\n 90216: u8 [a0 + 20] = 0\n 90219: u8 [a0 + 19] = 0\n 90222: u8 [a0 + 18] = 0\n 90225: u8 [a0 + 17] = 0\n 90228: u8 [a0 + 16] = 0\n 90231: u8 [a0 + 15] = 0\n 90234: u8 [a0 + 14] = 0\n 90237: u8 [a0 + 13] = 0\n 90240: u8 [a0 + 12] = 0\n 90243: u8 [a0 + 11] = 0\n 90246: u8 [a0 + 10] = 0\n 90249: u8 [a0 + 9] = 0\n 90252: u8 [a0 + 8] = 0\n 90255: u8 [a0 + 7] = 0\n 90258: u8 [a0 + 6] = 0\n 90261: u8 [a0 + 5] = 0\n 90264: u8 [a0 + 4] = 0\n 90267: u8 [a0 + 3] = 0\n 90270: u8 [a0 + 2] = 0\n 90273: u8 [a0 + 1] = 0\n 90276: a1 = u64 [sp + 0x20]\n 90279: a2 = u64 [sp + 0x38]\n 90282: a1 = a1 | a2\n 90285: a2 = 0xffffffe0\n 90295: a2 = s1 <u a2\n 90298: a3 = u64 [sp + 0x40]\n 90301: a2 = 0 if a3 != 0\n 90303: a2 = 0 if a1 != 0\n 90305: u8 [a0 + 0] = 0\n 90307: jump @1200 if a2 == 0\n      : @1198 (gas: 3)\n 90311: i32 a0 = s0 + 0x20\n 90314: a1 = 0x20\n 90317: ra = 1046, jump @0\n      : @1199 [@dyn 523] (gas: 54)\n 90324: u8 [a0 + 22] = 0x79\n 90328: u8 [a0 + 17] = 0x6c\n 90332: u8 [a0 + 25] = 0x61\n 90336: u8 [a0 + 20] = 0x61\n 90340: u8 [a0 + 16] = 0x61\n 90344: u8 [a0 + 28] = 0x65\n 90348: u8 [a0 + 19] = 0x65\n 90352: u8 [a0 + 14] = 0x65\n 90356: u8 [a0 + 13] = 0x74\n 90360: u8 [a0 + 12] = 0x75\n 90364: u8 [a0 + 11] = 0x70\n 90368: u8 [a0 + 26] = 0x69\n 90372: u8 [a0 + 9] = 0x69\n 90376: u8 [a0 + 29] = 0x64\n 90380: u8 [a0 + 21] = 0x64\n 90384: u8 [a0 + 8] = 0x64\n 90388: u8 [a0 + 31] = 0\n 90391: u8 [a0 + 30] = 0\n 90394: u8 [a0 + 23] = 0x20\n 90398: u8 [a0 + 15] = 0x20\n 90402: u8 [a0 + 7] = 0x20\n 90406: u8 [a0 + 6] = 0x3a\n 90410: u8 [a0 + 5] = 0x77\n 90414: u8 [a0 + 4] = 0x6f\n 90418: u8 [a0 + 24] = 0x72\n 90422: u8 [a0 + 18] = 0x72\n 90426: u8 [a0 + 3] = 0x72\n 90430: u8 [a0 + 2] = 0x63\n 90434: u8 [a0 + 27] = 0x73\n 90438: u8 [a0 + 10] = 0x73\n 90442: u8 [a0 + 1] = 0x73\n 90446: u8 [a0 + 0] = 0x45\n 90449: a1 = u64 [sp]\n 90451: a0 = a1 + 0x60\n 90454: a1 = a0 <u a1\n 90457: a3 = u64 [sp + 0x8]\n 90460: a2 = a3 + a1\n 90463: a3 = a2 <u a3\n 90466: a3 = a1 if a1 == 0\n 90469: a1 = u64 [sp + 0x10]\n 90472: a3 = a3 + a1\n 90475: a1 = a3 <u a1\n 90478: a4 = u64 [sp + 0x18]\n 90481: a1 = a1 + a4\n 90484: a4 = u64 [sp + 0x28]\n 90487: u64 [a4] = a0\n 90489: u64 [a4 + 0x8] = a2\n 90492: u64 [a4 + 0x10] = a3\n 90495: u64 [a4 + 0x18] = a1\n 90498: ra = u64 [sp + 0x58]\n 90501: s0 = u64 [sp + 0x50]\n 90504: s1 = u64 [sp + 0x48]\n 90507: sp = sp + 0x60\n 90510: ret\n      : @1200 (gas: 1)\n 90512: trap\n      : @1201 [@dyn 524] (gas: 74)\n 90513: a2 = reverse s1\n 90515: a1 = u64 [sp + 0x48]\n 90518: a3 = reverse a1\n 90520: a1 = u64 [sp + 0x50]\n 90523: a5 = reverse a1\n 90525: a1 = u64 [sp + 0x58]\n 90528: a4 = reverse a1\n 90530: u8 [a0 + 0x18] = a4\n 90533: u8 [a0 + 0x10] = a5\n 90536: u8 [a0 + 0x8] = a3\n 90539: u8 [a0] = a2\n 90541: a1 = a4 >> 0x38\n 90544: u8 [a0 + 0x1f] = a1\n 90547: a1 = a4 >> 0x30\n 90550: u8 [a0 + 0x1e] = a1\n 90553: a1 = a4 >> 0x28\n 90556: u8 [a0 + 0x1d] = a1\n 90559: a1 = a4 >> 0x20\n 90562: u8 [a0 + 0x1c] = a1\n 90565: a1 = a4 >> 0x18\n 90568: u8 [a0 + 0x1b] = a1\n 90571: a1 = a4 >> 0x10\n 90574: u8 [a0 + 0x1a] = a1\n 90577: u64 [sp + 0x10] = a4\n 90580: a1 = a4 >> 0x8\n 90583: u8 [a0 + 0x19] = a1\n 90586: a1 = a5 >> 0x38\n 90589: u8 [a0 + 0x17] = a1\n 90592: a1 = a5 >> 0x30\n 90595: u8 [a0 + 0x16] = a1\n 90598: a1 = a5 >> 0x28\n 90601: u8 [a0 + 0x15] = a1\n 90604: a1 = a5 >> 0x20\n 90607: u8 [a0 + 0x14] = a1\n 90610: a1 = a5 >> 0x18\n 90613: u8 [a0 + 0x13] = a1\n 90616: a1 = a5 >> 0x10\n 90619: u8 [a0 + 0x12] = a1\n 90622: u64 [sp + 0x8] = a5\n 90625: a1 = a5 >> 0x8\n 90628: u8 [a0 + 0x11] = a1\n 90631: a1 = a3 >> 0x38\n 90634: u8 [a0 + 0xf] = a1\n 90637: a1 = a3 >> 0x30\n 90640: u8 [a0 + 0xe] = a1\n 90643: a1 = a3 >> 0x28\n 90646: u8 [a0 + 0xd] = a1\n 90649: a1 = a3 >> 0x20\n 90652: u8 [a0 + 0xc] = a1\n 90655: a1 = a3 >> 0x18\n 90658: u8 [a0 + 0xb] = a1\n 90661: a1 = a3 >> 0x10\n 90664: u8 [a0 + 0xa] = a1\n 90667: u64 [sp + 0x18] = a3\n 90670: a1 = a3 >> 0x8\n 90673: u8 [a0 + 0x9] = a1\n 90676: a1 = a2 >> 0x38\n 90679: u8 [a0 + 0x7] = a1\n 90682: a1 = a2 >> 0x30\n 90685: u8 [a0 + 0x6] = a1\n 90688: a1 = a2 >> 0x28\n 90691: u8 [a0 + 0x5] = a1\n 90694: a1 = a2 >> 0x20\n 90697: u8 [a0 + 0x4] = a1\n 90700: a1 = a2 >> 0x18\n 90703: u8 [a0 + 0x3] = a1\n 90706: a1 = a2 >> 0x10\n 90709: u8 [a0 + 0x2] = a1\n 90712: u64 [sp + 0x20] = a2\n 90715: a1 = a2 >> 0x8\n 90718: u8 [a0 + 0x1] = a1\n 90721: a0 = 0x20\n 90724: a1 = 0x20\n 90727: ra = 1050, jump @0\n      : @1202 [@dyn 525] (gas: 35)\n 90734: u8 [a0 + 31] = 0x4\n 90738: u8 [a0 + 30] = 0\n 90741: u8 [a0 + 29] = 0\n 90744: u8 [a0 + 28] = 0\n 90747: u8 [a0 + 27] = 0\n 90750: u8 [a0 + 26] = 0\n 90753: u8 [a0 + 25] = 0\n 90756: u8 [a0 + 24] = 0\n 90759: u8 [a0 + 23] = 0\n 90762: u8 [a0 + 22] = 0\n 90765: u8 [a0 + 21] = 0\n 90768: u8 [a0 + 20] = 0\n 90771: u8 [a0 + 19] = 0\n 90774: u8 [a0 + 18] = 0\n 90777: u8 [a0 + 17] = 0\n 90780: u8 [a0 + 16] = 0\n 90783: u8 [a0 + 15] = 0\n 90786: u8 [a0 + 14] = 0\n 90789: u8 [a0 + 13] = 0\n 90792: u8 [a0 + 12] = 0\n 90795: u8 [a0 + 11] = 0\n 90798: u8 [a0 + 10] = 0\n 90801: u8 [a0 + 9] = 0\n 90804: u8 [a0 + 8] = 0\n 90807: u8 [a0 + 7] = 0\n 90810: u8 [a0 + 6] = 0\n 90813: u8 [a0 + 5] = 0\n 90816: u8 [a0 + 4] = 0\n 90819: u8 [a0 + 3] = 0\n 90822: u8 [a0 + 2] = 0\n 90825: u8 [a0 + 1] = 0\n 90828: u8 [a0 + 0] = 0\n 90830: a1 = 0x40\n 90833: a0 = 0\n 90835: ra = 1052, jump @0\n      : @1203 [@dyn 526] (gas: 53)\n 90842: i32 a0 = a0 + 0\n 90844: i32 a2 = sp + 0x180\n 90848: a1 = 0x40\n 90851: ecalli 9 // 'hash_keccak_256'\n 90853: a0 = u64 [sp + 0x198]\n 90857: a1 = u64 [sp + 0x190]\n 90861: a2 = u64 [sp + 0x188]\n 90865: a3 = u64 [sp + 0x180]\n 90869: a0 = reverse a0\n 90871: u64 [sp + 0x50] = a0\n 90874: a0 = reverse a1\n 90876: u64 [sp + 0x30] = a0\n 90879: a0 = reverse a2\n 90881: u64 [sp + 0x58] = a0\n 90884: s1 = reverse a3\n 90886: i32 a0 = sp + 0x120\n 90890: ecalli 5 // 'caller'\n 90892: a0 = u64 [sp + 0x128]\n 90896: a1 = u64 [sp + 0x120]\n 90900: a2 = i32 [sp + 0x130]\n 90904: a0 = reverse a0\n 90906: a3 = a0 >> 0x20\n 90909: a1 = reverse a1\n 90911: a4 = a1 << 0x20\n 90914: a3 = a3 | a4\n 90917: u64 [sp + 0x48] = a3\n 90920: a0 = a0 << 0x20\n 90923: a2 = reverse a2\n 90925: a2 = a2 >> 0x20\n 90928: a0 = a0 | a2\n 90931: u64 [sp + 0x40] = a0\n 90934: a1 = a1 >> 0x20\n 90937: u64 [sp + 0x38] = a1\n 90940: u64 [sp + 0x28] = s1\n 90943: u64 [sp + 0x178] = s1\n 90947: s1 = u64 [sp + 0x30]\n 90950: a0 = u64 [sp + 0x58]\n 90953: u64 [sp + 0x170] = a0\n 90957: u64 [sp + 0x168] = s1\n 90961: a0 = u64 [sp + 0x50]\n 90964: u64 [sp + 0x160] = a0\n 90968: u64 [sp + 408] = 0\n 90972: u64 [sp + 400] = 0\n 90976: u64 [sp + 392] = 0\n 90980: u64 [sp + 384] = 0\n 90984: u32 [sp + 320] = 0x20\n 90989: i32 a1 = sp + 0x160\n 90993: i32 a3 = sp + 0x180\n 90997: i32 a4 = sp + 0x140\n 91001: a2 = 0xffffffffffffffff\n 91004: a0 = 0\n 91006: ecalli 8 // 'get_storage'\n 91008: fallthrough\n      : @1204 (gas: 12)\n 91009: a0 = u32 [sp + 0x190]\n 91013: a1 = u64 [sp + 0x180]\n 91017: a2 = u64 [sp + 0x188]\n 91021: a3 = u64 [sp + 0x38]\n 91024: a0 = a0 ^ a3\n 91027: a3 = u64 [sp + 0x40]\n 91030: a1 = a1 ^ a3\n 91033: a0 = a0 | a1\n 91036: a1 = u64 [sp + 0x48]\n 91039: a1 = a1 ^ a2\n 91042: a0 = a0 | a1\n 91045: jump @1213 if a0 != 0\n      : @1205 (gas: 31)\n 91049: a0 = u64 [sp + 0x50]\n 91052: a1 = a0 + 0x2\n 91055: a0 = a1 <u a0\n 91058: a2 = s1 + a0\n 91061: s1 = a2 <u s1\n 91064: s1 = a0 if a0 == 0\n 91067: a0 = u64 [sp + 0x58]\n 91070: a3 = a0 + s1\n 91073: s1 = a2\n 91075: a0 = a3 <u a0\n 91078: a2 = u64 [sp + 0x28]\n 91081: a0 = a0 + a2\n 91084: u64 [sp + 0x58] = a1\n 91087: u64 [sp + 0x160] = a1\n 91091: u64 [sp + 0x168] = s1\n 91095: u64 [sp + 0x50] = a3\n 91098: u64 [sp + 0x170] = a3\n 91102: u64 [sp + 0x48] = a0\n 91105: u64 [sp + 0x178] = a0\n 91109: u64 [sp + 408] = 0\n 91113: u64 [sp + 400] = 0\n 91117: u64 [sp + 392] = 0\n 91121: u64 [sp + 384] = 0\n 91125: u32 [sp + 320] = 0x20\n 91130: i32 a1 = sp + 0x160\n 91134: i32 a3 = sp + 0x180\n 91138: i32 a4 = sp + 0x140\n 91142: a2 = 0xffffffffffffffff\n 91145: a0 = 0\n 91147: ecalli 8 // 'get_storage'\n 91149: fallthrough\n      : @1206 (gas: 2)\n 91150: a0 = u8 [sp + 0x180]\n 91154: jump @1218 if a0 != 0\n      : @1207 (gas: 19)\n 91158: a0 = u64 [sp + 0x50]\n 91161: u64 [sp + 0x170] = a0\n 91165: u64 [sp + 0x168] = s1\n 91169: a0 = u64 [sp + 0x58]\n 91172: u64 [sp + 0x160] = a0\n 91176: a0 = u64 [sp + 0x48]\n 91179: u64 [sp + 0x178] = a0\n 91183: u64 [sp + 408] = 0\n 91187: u64 [sp + 400] = 0\n 91191: u64 [sp + 392] = 0\n 91195: u64 [sp + 384] = 0\n 91199: u32 [sp + 320] = 0x20\n 91204: i32 a1 = sp + 0x160\n 91208: i32 a3 = sp + 0x180\n 91212: i32 a4 = sp + 0x140\n 91216: a2 = 0xffffffffffffffff\n 91219: a0 = 0\n 91221: ecalli 8 // 'get_storage'\n 91223: fallthrough\n      : @1208 (gas: 2)\n 91224: a0 = u8 [sp + 0x181]\n 91228: jump @1223 if a0 != 0\n      : @1209 (gas: 45)\n 91232: a0 = u64 [sp + 0x50]\n 91235: u64 [sp + 0x170] = a0\n 91239: u64 [sp + 0x168] = s1\n 91243: u64 [sp + 0x40] = s1\n 91246: a0 = u64 [sp + 0x58]\n 91249: u64 [sp + 0x160] = a0\n 91253: s1 = u64 [sp + 0x48]\n 91256: u64 [sp + 0x178] = s1\n 91260: u64 [sp + 408] = 0\n 91264: u64 [sp + 400] = 0\n 91268: u64 [sp + 392] = 0\n 91272: u64 [sp + 384] = 0\n 91276: u32 [sp + 320] = 0x20\n 91281: i32 a1 = sp + 0x160\n 91285: i32 a3 = sp + 0x180\n 91289: i32 a4 = sp + 0x140\n 91293: a2 = 0xffffffffffffffff\n 91296: a0 = 0\n 91298: ecalli 8 // 'get_storage'\n 91300: a0 = u64 [sp + 0x188]\n 91304: a1 = u64 [sp + 0x190]\n 91308: a2 = u64 [sp + 0x180]\n 91312: a3 = u64 [sp + 0x198]\n 91316: a2 = a2 & 0xffffffffffff00ff\n 91321: a2 = a2 | 0x100\n 91325: u64 [sp + 0x178] = s1\n 91329: a4 = u64 [sp + 0x50]\n 91332: u64 [sp + 0x170] = a4\n 91336: a4 = u64 [sp + 0x40]\n 91339: u64 [sp + 0x168] = a4\n 91343: a4 = u64 [sp + 0x58]\n 91346: u64 [sp + 0x160] = a4\n 91350: u64 [sp + 0x198] = a3\n 91354: u64 [sp + 0x190] = a1\n 91358: u64 [sp + 0x188] = a0\n 91362: u64 [sp + 0x180] = a2\n 91366: i32 a1 = sp + 0x160\n 91370: i32 a3 = sp + 0x180\n 91374: a2 = 0xffffffffffffffff\n 91377: a4 = 0x20\n 91380: a0 = 0\n 91382: ecalli 16 // 'set_storage'\n 91384: a0 = 0x40\n 91387: a1 = 0x20\n 91390: ra = 1054, jump @0\n      : @1210 [@dyn 527] (gas: 100)\n 91397: a1 = u8 [a0 + 0x11]\n 91400: a2 = u8 [a0 + 0x10]\n 91403: a3 = u8 [a0 + 0x12]\n 91406: a4 = u8 [a0 + 0x13]\n 91409: a1 = a1 << 0x8\n 91412: a1 = a1 | a2\n 91415: a3 = a3 << 0x10\n 91418: a4 = a4 << 0x18\n 91421: a3 = a3 | a4\n 91424: a1 = a1 | a3\n 91427: a2 = u8 [a0 + 0x15]\n 91430: a3 = u8 [a0 + 0x14]\n 91433: a4 = u8 [a0 + 0x16]\n 91436: a5 = u8 [a0 + 0x17]\n 91439: a2 = a2 << 0x8\n 91442: a2 = a2 | a3\n 91445: a4 = a4 << 0x10\n 91448: a5 = a5 << 0x18\n 91451: a4 = a4 | a5\n 91454: a2 = a2 | a4\n 91457: a2 = a2 << 0x20\n 91460: t0 = a2 | a1\n 91463: a2 = u8 [a0 + 0x1]\n 91466: a3 = u8 [a0]\n 91468: a4 = u8 [a0 + 0x2]\n 91471: a5 = u8 [a0 + 0x3]\n 91474: a2 = a2 << 0x8\n 91477: a2 = a2 | a3\n 91480: a4 = a4 << 0x10\n 91483: a5 = a5 << 0x18\n 91486: a4 = a4 | a5\n 91489: a2 = a2 | a4\n 91492: a3 = u8 [a0 + 0x5]\n 91495: a4 = u8 [a0 + 0x4]\n 91498: a5 = u8 [a0 + 0x6]\n 91501: s1 = u8 [a0 + 0x7]\n 91504: a3 = a3 << 0x8\n 91507: a3 = a3 | a4\n 91510: a5 = a5 << 0x10\n 91513: s1 = s1 << 0x18\n 91516: a5 = a5 | s1\n 91519: a3 = a3 | a5\n 91522: a3 = a3 << 0x20\n 91525: a2 = a2 | a3\n 91528: a3 = u8 [a0 + 0x19]\n 91531: a4 = u8 [a0 + 0x18]\n 91534: a5 = u8 [a0 + 0x1a]\n 91537: s1 = u8 [a0 + 0x1b]\n 91540: a3 = a3 << 0x8\n 91543: a3 = a3 | a4\n 91546: a5 = a5 << 0x10\n 91549: s1 = s1 << 0x18\n 91552: a5 = a5 | s1\n 91555: a3 = a3 | a5\n 91558: a4 = u8 [a0 + 0x1d]\n 91561: a5 = u8 [a0 + 0x1c]\n 91564: s1 = u8 [a0 + 0x1e]\n 91567: a1 = u8 [a0 + 0x1f]\n 91570: a4 = a4 << 0x8\n 91573: a4 = a4 | a5\n 91576: s1 = s1 << 0x10\n 91579: a1 = a1 << 0x18\n 91582: a1 = a1 | s1\n 91585: a1 = a1 | a4\n 91588: a1 = a1 << 0x20\n 91591: a3 = a3 | a1\n 91594: a1 = u8 [a0 + 0x9]\n 91597: a4 = u8 [a0 + 0x8]\n 91600: a5 = u8 [a0 + 0xa]\n 91603: s1 = u8 [a0 + 0xb]\n 91606: a1 = a1 << 0x8\n 91609: a1 = a1 | a4\n 91612: a5 = a5 << 0x10\n 91615: s1 = s1 << 0x18\n 91618: a5 = a5 | s1\n 91621: a1 = a1 | a5\n 91624: a4 = u8 [a0 + 0xd]\n 91627: a5 = u8 [a0 + 0xc]\n 91630: s1 = u8 [a0 + 0xe]\n 91633: a0 = u8 [a0 + 0xf]\n 91636: a4 = a4 << 0x8\n 91639: a4 = a4 | a5\n 91642: s1 = s1 << 0x10\n 91645: a0 = a0 << 0x18\n 91648: a0 = a0 | s1\n 91651: a0 = a0 | a4\n 91654: a0 = a0 << 0x20\n 91657: a0 = a0 | a1\n 91660: a1 = reverse a0\n 91662: a0 = reverse a3\n 91664: a2 = reverse a2\n 91666: a3 = reverse t0\n 91668: a2 = a2 | a3\n 91671: a3 = a0 | a1\n 91674: a3 = a3 | a2\n 91677: a3 = a3 >> 0x20\n 91680: a1 = a1 | a2\n 91683: a1 = a1 << 0x20\n 91686: a1 = a1 | a3\n 91689: jump @1229 if a1 != 0\n      : @1211 (gas: 2)\n 91693: i32 a0 = a0 + 0\n 91695: ra = 1056, jump @0\n      : @1212 [@dyn 528] (gas: 27)\n 91702: a1 = u64 [0x20040]\n 91707: a2 = u64 [0x20048]\n 91712: a3 = u64 [0x20050]\n 91717: a4 = u64 [0x20058]\n 91722: u64 [sp + 0x198] = a1\n 91726: u64 [sp + 0x190] = a2\n 91730: u64 [sp + 0x188] = a3\n 91734: u64 [sp + 0x180] = a4\n 91738: a1 = u64 [sp + 0x8]\n 91741: u64 [sp + 0x1b0] = a1\n 91745: a1 = u64 [sp + 0x18]\n 91748: u64 [sp + 0x1a8] = a1\n 91752: a1 = u64 [sp + 0x20]\n 91755: u64 [sp + 0x1a0] = a1\n 91759: a1 = u64 [sp + 0x10]\n 91762: u64 [sp + 0x1b8] = a1\n 91766: i32 a2 = a0 + 0\n 91768: i32 a0 = sp + 0x180\n 91772: a1 = 0x2\n 91775: a3 = 0\n 91777: ecalli 6 // 'deposit_event'\n 91779: sp = s0 + 0xfffffffffffffe20\n 91783: ra = u64 [sp + 0x1d8]\n 91787: s0 = u64 [sp + 0x1d0]\n 91791: s1 = u64 [sp + 0x1c8]\n 91795: sp = sp + 0x1e0\n 91799: ret\n      : @1213 (gas: 3)\n 91801: a0 = 0x40\n 91804: a1 = 0x20\n 91807: ra = 1058, jump @0\n      : @1214 [@dyn 529] (gas: 103)\n 91814: a1 = u8 [a0 + 0x11]\n 91817: a2 = u8 [a0 + 0x10]\n 91820: a3 = u8 [a0 + 0x12]\n 91823: a4 = u8 [a0 + 0x13]\n 91826: a1 = a1 << 0x8\n 91829: a1 = a1 | a2\n 91832: a3 = a3 << 0x10\n 91835: a4 = a4 << 0x18\n 91838: a3 = a3 | a4\n 91841: a1 = a1 | a3\n 91844: a2 = u8 [a0 + 0x15]\n 91847: a3 = u8 [a0 + 0x14]\n 91850: a4 = u8 [a0 + 0x16]\n 91853: a5 = u8 [a0 + 0x17]\n 91856: a2 = a2 << 0x8\n 91859: a2 = a2 | a3\n 91862: a4 = a4 << 0x10\n 91865: a5 = a5 << 0x18\n 91868: a4 = a4 | a5\n 91871: a2 = a2 | a4\n 91874: a2 = a2 << 0x20\n 91877: t0 = a2 | a1\n 91880: a2 = u8 [a0 + 0x1]\n 91883: a3 = u8 [a0]\n 91885: a4 = u8 [a0 + 0x2]\n 91888: a5 = u8 [a0 + 0x3]\n 91891: a2 = a2 << 0x8\n 91894: a2 = a2 | a3\n 91897: a4 = a4 << 0x10\n 91900: a5 = a5 << 0x18\n 91903: a4 = a4 | a5\n 91906: a2 = a2 | a4\n 91909: a3 = u8 [a0 + 0x5]\n 91912: a4 = u8 [a0 + 0x4]\n 91915: a5 = u8 [a0 + 0x6]\n 91918: s1 = u8 [a0 + 0x7]\n 91921: a3 = a3 << 0x8\n 91924: a3 = a3 | a4\n 91927: a5 = a5 << 0x10\n 91930: s1 = s1 << 0x18\n 91933: a5 = a5 | s1\n 91936: a3 = a3 | a5\n 91939: a3 = a3 << 0x20\n 91942: a2 = a2 | a3\n 91945: a3 = u8 [a0 + 0x19]\n 91948: a4 = u8 [a0 + 0x18]\n 91951: a5 = u8 [a0 + 0x1a]\n 91954: s1 = u8 [a0 + 0x1b]\n 91957: a3 = a3 << 0x8\n 91960: a3 = a3 | a4\n 91963: a5 = a5 << 0x10\n 91966: s1 = s1 << 0x18\n 91969: a5 = a5 | s1\n 91972: a3 = a3 | a5\n 91975: a4 = u8 [a0 + 0x1d]\n 91978: a5 = u8 [a0 + 0x1c]\n 91981: s1 = u8 [a0 + 0x1e]\n 91984: a1 = u8 [a0 + 0x1f]\n 91987: a4 = a4 << 0x8\n 91990: a4 = a4 | a5\n 91993: s1 = s1 << 0x10\n 91996: a1 = a1 << 0x18\n 91999: a1 = a1 | s1\n 92002: a1 = a1 | a4\n 92005: a1 = a1 << 0x20\n 92008: a3 = a3 | a1\n 92011: a1 = u8 [a0 + 0x9]\n 92014: a4 = u8 [a0 + 0x8]\n 92017: a5 = u8 [a0 + 0xa]\n 92020: s1 = u8 [a0 + 0xb]\n 92023: a1 = a1 << 0x8\n 92026: a1 = a1 | a4\n 92029: a5 = a5 << 0x10\n 92032: s1 = s1 << 0x18\n 92035: a5 = a5 | s1\n 92038: a1 = a1 | a5\n 92041: a4 = u8 [a0 + 0xd]\n 92044: a5 = u8 [a0 + 0xc]\n 92047: s1 = u8 [a0 + 0xe]\n 92050: a0 = u8 [a0 + 0xf]\n 92053: a4 = a4 << 0x8\n 92056: a4 = a4 | a5\n 92059: s1 = s1 << 0x10\n 92062: a0 = a0 << 0x18\n 92065: a0 = a0 | s1\n 92068: a0 = a0 | a4\n 92071: a0 = a0 << 0x20\n 92074: a0 = a0 | a1\n 92077: s1 = reverse a0\n 92079: a1 = reverse a3\n 92081: a2 = reverse a2\n 92083: a0 = reverse t0\n 92085: u64 [sp + 0x58] = a0\n 92088: u64 [sp + 0x50] = a2\n 92091: a0 = a0 | a2\n 92094: a2 = a1\n 92096: a1 = a1 | s1\n 92099: a1 = a1 | a0\n 92102: a1 = a1 >> 0x20\n 92105: a0 = a0 | s1\n 92108: a0 = a0 << 0x20\n 92111: a0 = a0 | a1\n 92114: jump @1229 if a0 != 0\n      : @1215 (gas: 5)\n 92118: u64 [sp + 0x48] = a2\n 92121: i32 a0 = a2 + 0\n 92123: a1 = 0x20\n 92126: u64 [sp + 0x40] = a0\n 92129: ra = 1060, jump @0\n      : @1216 [@dyn 530] (gas: 50)\n 92136: u8 [a0 + 31] = 0\n 92139: u8 [a0 + 30] = 0\n 92142: u8 [a0 + 29] = 0\n 92145: u8 [a0 + 28] = 0\n 92148: u8 [a0 + 27] = 0\n 92151: u8 [a0 + 26] = 0\n 92154: u8 [a0 + 25] = 0\n 92157: u8 [a0 + 24] = 0\n 92160: u8 [a0 + 23] = 0\n 92163: u8 [a0 + 22] = 0\n 92166: u8 [a0 + 21] = 0\n 92169: u8 [a0 + 20] = 0\n 92172: u8 [a0 + 19] = 0\n 92175: u8 [a0 + 18] = 0\n 92178: u8 [a0 + 17] = 0\n 92181: u8 [a0 + 16] = 0\n 92184: u8 [a0 + 15] = 0\n 92187: u8 [a0 + 14] = 0\n 92190: u8 [a0 + 13] = 0\n 92193: u8 [a0 + 12] = 0\n 92196: u8 [a0 + 11] = 0\n 92199: u8 [a0 + 10] = 0\n 92202: u8 [a0 + 9] = 0\n 92205: u8 [a0 + 8] = 0\n 92208: u8 [a0 + 7] = 0\n 92211: u8 [a0 + 6] = 0\n 92214: u8 [a0 + 5] = 0\n 92217: u8 [a0 + 4] = 0\n 92220: u8 [a0 + 3] = 0xa0\n 92225: u8 [a0 + 2] = 0x79\n 92229: u8 [a0 + 1] = 0xc3\n 92234: u8 [a0 + 0] = 0x8\n 92237: a1 = u64 [sp + 0x48]\n 92240: a0 = a1 + 0x4\n 92243: a1 = a0 <u a1\n 92246: a3 = u64 [sp + 0x58]\n 92249: a2 = a3 + a1\n 92252: a3 = a2 <u a3\n 92255: a3 = a1 if a1 == 0\n 92258: a3 = a3 + s1\n 92261: a1 = a3 <u s1\n 92264: a4 = u64 [sp + 0x50]\n 92267: a4 = a4 + a1\n 92270: u64 [sp + 0xe8] = a2\n 92274: u64 [sp + 0xe0] = a0\n 92278: u64 [sp + 0xf0] = a3\n 92282: a0 = sp + 0x100\n 92286: a1 = sp + 0xe0\n 92290: u64 [sp + 0xf8] = a4\n 92294: ra = 1062, jump @1185\n      : @1217 [@dyn 531] (gas: 5)\n 92300: a0 = u64 [sp + 0x108]\n 92304: t0 = u64 [sp + 0x118]\n 92308: t1 = u64 [sp + 0x100]\n 92312: a3 = u64 [sp + 0x110]\n 92316: jump @1228\n      : @1218 (gas: 3)\n 92319: a0 = 0x40\n 92322: a1 = 0x20\n 92325: ra = 1064, jump @0\n      : @1219 [@dyn 532] (gas: 103)\n 92332: a1 = u8 [a0 + 0x11]\n 92335: a2 = u8 [a0 + 0x10]\n 92338: a3 = u8 [a0 + 0x12]\n 92341: a4 = u8 [a0 + 0x13]\n 92344: a1 = a1 << 0x8\n 92347: a1 = a1 | a2\n 92350: a3 = a3 << 0x10\n 92353: a4 = a4 << 0x18\n 92356: a3 = a3 | a4\n 92359: a1 = a1 | a3\n 92362: a2 = u8 [a0 + 0x15]\n 92365: a3 = u8 [a0 + 0x14]\n 92368: a4 = u8 [a0 + 0x16]\n 92371: a5 = u8 [a0 + 0x17]\n 92374: a2 = a2 << 0x8\n 92377: a2 = a2 | a3\n 92380: a4 = a4 << 0x10\n 92383: a5 = a5 << 0x18\n 92386: a4 = a4 | a5\n 92389: a2 = a2 | a4\n 92392: a2 = a2 << 0x20\n 92395: t0 = a2 | a1\n 92398: a2 = u8 [a0 + 0x1]\n 92401: a3 = u8 [a0]\n 92403: a4 = u8 [a0 + 0x2]\n 92406: a5 = u8 [a0 + 0x3]\n 92409: a2 = a2 << 0x8\n 92412: a2 = a2 | a3\n 92415: a4 = a4 << 0x10\n 92418: a5 = a5 << 0x18\n 92421: a4 = a4 | a5\n 92424: a2 = a2 | a4\n 92427: a3 = u8 [a0 + 0x5]\n 92430: a4 = u8 [a0 + 0x4]\n 92433: a5 = u8 [a0 + 0x6]\n 92436: s1 = u8 [a0 + 0x7]\n 92439: a3 = a3 << 0x8\n 92442: a3 = a3 | a4\n 92445: a5 = a5 << 0x10\n 92448: s1 = s1 << 0x18\n 92451: a5 = a5 | s1\n 92454: a3 = a3 | a5\n 92457: a3 = a3 << 0x20\n 92460: a2 = a2 | a3\n 92463: a3 = u8 [a0 + 0x19]\n 92466: a4 = u8 [a0 + 0x18]\n 92469: a5 = u8 [a0 + 0x1a]\n 92472: s1 = u8 [a0 + 0x1b]\n 92475: a3 = a3 << 0x8\n 92478: a3 = a3 | a4\n 92481: a5 = a5 << 0x10\n 92484: s1 = s1 << 0x18\n 92487: a5 = a5 | s1\n 92490: a3 = a3 | a5\n 92493: a4 = u8 [a0 + 0x1d]\n 92496: a5 = u8 [a0 + 0x1c]\n 92499: s1 = u8 [a0 + 0x1e]\n 92502: a1 = u8 [a0 + 0x1f]\n 92505: a4 = a4 << 0x8\n 92508: a4 = a4 | a5\n 92511: s1 = s1 << 0x10\n 92514: a1 = a1 << 0x18\n 92517: a1 = a1 | s1\n 92520: a1 = a1 | a4\n 92523: a1 = a1 << 0x20\n 92526: a3 = a3 | a1\n 92529: a1 = u8 [a0 + 0x9]\n 92532: a4 = u8 [a0 + 0x8]\n 92535: a5 = u8 [a0 + 0xa]\n 92538: s1 = u8 [a0 + 0xb]\n 92541: a1 = a1 << 0x8\n 92544: a1 = a1 | a4\n 92547: a5 = a5 << 0x10\n 92550: s1 = s1 << 0x18\n 92553: a5 = a5 | s1\n 92556: a1 = a1 | a5\n 92559: a4 = u8 [a0 + 0xd]\n 92562: a5 = u8 [a0 + 0xc]\n 92565: s1 = u8 [a0 + 0xe]\n 92568: a0 = u8 [a0 + 0xf]\n 92571: a4 = a4 << 0x8\n 92574: a4 = a4 | a5\n 92577: s1 = s1 << 0x10\n 92580: a0 = a0 << 0x18\n 92583: a0 = a0 | s1\n 92586: a0 = a0 | a4\n 92589: a0 = a0 << 0x20\n 92592: a0 = a0 | a1\n 92595: s1 = reverse a0\n 92597: a1 = reverse a3\n 92599: a2 = reverse a2\n 92601: a0 = reverse t0\n 92603: u64 [sp + 0x58] = a0\n 92606: u64 [sp + 0x50] = a2\n 92609: a0 = a0 | a2\n 92612: a2 = a1\n 92614: a1 = a1 | s1\n 92617: a1 = a1 | a0\n 92620: a1 = a1 >> 0x20\n 92623: a0 = a0 | s1\n 92626: a0 = a0 << 0x20\n 92629: a0 = a0 | a1\n 92632: jump @1229 if a0 != 0\n      : @1220 (gas: 5)\n 92636: u64 [sp + 0x48] = a2\n 92639: i32 a0 = a2 + 0\n 92641: a1 = 0x20\n 92644: u64 [sp + 0x40] = a0\n 92647: ra = 1066, jump @0\n      : @1221 [@dyn 533] (gas: 50)\n 92654: u8 [a0 + 31] = 0\n 92657: u8 [a0 + 30] = 0\n 92660: u8 [a0 + 29] = 0\n 92663: u8 [a0 + 28] = 0\n 92666: u8 [a0 + 27] = 0\n 92669: u8 [a0 + 26] = 0\n 92672: u8 [a0 + 25] = 0\n 92675: u8 [a0 + 24] = 0\n 92678: u8 [a0 + 23] = 0\n 92681: u8 [a0 + 22] = 0\n 92684: u8 [a0 + 21] = 0\n 92687: u8 [a0 + 20] = 0\n 92690: u8 [a0 + 19] = 0\n 92693: u8 [a0 + 18] = 0\n 92696: u8 [a0 + 17] = 0\n 92699: u8 [a0 + 16] = 0\n 92702: u8 [a0 + 15] = 0\n 92705: u8 [a0 + 14] = 0\n 92708: u8 [a0 + 13] = 0\n 92711: u8 [a0 + 12] = 0\n 92714: u8 [a0 + 11] = 0\n 92717: u8 [a0 + 10] = 0\n 92720: u8 [a0 + 9] = 0\n 92723: u8 [a0 + 8] = 0\n 92726: u8 [a0 + 7] = 0\n 92729: u8 [a0 + 6] = 0\n 92732: u8 [a0 + 5] = 0\n 92735: u8 [a0 + 4] = 0\n 92738: u8 [a0 + 3] = 0xa0\n 92743: u8 [a0 + 2] = 0x79\n 92747: u8 [a0 + 1] = 0xc3\n 92752: u8 [a0 + 0] = 0x8\n 92755: a1 = u64 [sp + 0x48]\n 92758: a0 = a1 + 0x4\n 92761: a1 = a0 <u a1\n 92764: a3 = u64 [sp + 0x58]\n 92767: a2 = a3 + a1\n 92770: a3 = a2 <u a3\n 92773: a3 = a1 if a1 == 0\n 92776: a3 = a3 + s1\n 92779: a1 = a3 <u s1\n 92782: a4 = u64 [sp + 0x50]\n 92785: a4 = a4 + a1\n 92788: u64 [sp + 0xa8] = a2\n 92792: u64 [sp + 0xa0] = a0\n 92796: u64 [sp + 0xb0] = a3\n 92800: a0 = sp + 0xc0\n 92804: a1 = sp + 0xa0\n 92808: u64 [sp + 0xb8] = a4\n 92812: ra = 1068, jump @1038\n      : @1222 [@dyn 534] (gas: 5)\n 92818: a0 = u64 [sp + 0xc8]\n 92822: t0 = u64 [sp + 0xd8]\n 92826: t1 = u64 [sp + 0xc0]\n 92830: a3 = u64 [sp + 0xd0]\n 92834: jump @1228\n      : @1223 (gas: 3)\n 92837: a0 = 0x40\n 92840: a1 = 0x20\n 92843: ra = 1070, jump @0\n      : @1224 [@dyn 535] (gas: 103)\n 92850: a1 = u8 [a0 + 0x11]\n 92853: a2 = u8 [a0 + 0x10]\n 92856: a3 = u8 [a0 + 0x12]\n 92859: a4 = u8 [a0 + 0x13]\n 92862: a1 = a1 << 0x8\n 92865: a1 = a1 | a2\n 92868: a3 = a3 << 0x10\n 92871: a4 = a4 << 0x18\n 92874: a3 = a3 | a4\n 92877: a1 = a1 | a3\n 92880: a2 = u8 [a0 + 0x15]\n 92883: a3 = u8 [a0 + 0x14]\n 92886: a4 = u8 [a0 + 0x16]\n 92889: a5 = u8 [a0 + 0x17]\n 92892: a2 = a2 << 0x8\n 92895: a2 = a2 | a3\n 92898: a4 = a4 << 0x10\n 92901: a5 = a5 << 0x18\n 92904: a4 = a4 | a5\n 92907: a2 = a2 | a4\n 92910: a2 = a2 << 0x20\n 92913: t0 = a2 | a1\n 92916: a2 = u8 [a0 + 0x1]\n 92919: a3 = u8 [a0]\n 92921: a4 = u8 [a0 + 0x2]\n 92924: a5 = u8 [a0 + 0x3]\n 92927: a2 = a2 << 0x8\n 92930: a2 = a2 | a3\n 92933: a4 = a4 << 0x10\n 92936: a5 = a5 << 0x18\n 92939: a4 = a4 | a5\n 92942: a2 = a2 | a4\n 92945: a3 = u8 [a0 + 0x5]\n 92948: a4 = u8 [a0 + 0x4]\n 92951: a5 = u8 [a0 + 0x6]\n 92954: s1 = u8 [a0 + 0x7]\n 92957: a3 = a3 << 0x8\n 92960: a3 = a3 | a4\n 92963: a5 = a5 << 0x10\n 92966: s1 = s1 << 0x18\n 92969: a5 = a5 | s1\n 92972: a3 = a3 | a5\n 92975: a3 = a3 << 0x20\n 92978: a2 = a2 | a3\n 92981: a3 = u8 [a0 + 0x19]\n 92984: a4 = u8 [a0 + 0x18]\n 92987: a5 = u8 [a0 + 0x1a]\n 92990: s1 = u8 [a0 + 0x1b]\n 92993: a3 = a3 << 0x8\n 92996: a3 = a3 | a4\n 92999: a5 = a5 << 0x10\n 93002: s1 = s1 << 0x18\n 93005: a5 = a5 | s1\n 93008: a3 = a3 | a5\n 93011: a4 = u8 [a0 + 0x1d]\n 93014: a5 = u8 [a0 + 0x1c]\n 93017: s1 = u8 [a0 + 0x1e]\n 93020: a1 = u8 [a0 + 0x1f]\n 93023: a4 = a4 << 0x8\n 93026: a4 = a4 | a5\n 93029: s1 = s1 << 0x10\n 93032: a1 = a1 << 0x18\n 93035: a1 = a1 | s1\n 93038: a1 = a1 | a4\n 93041: a1 = a1 << 0x20\n 93044: a3 = a3 | a1\n 93047: a1 = u8 [a0 + 0x9]\n 93050: a4 = u8 [a0 + 0x8]\n 93053: a5 = u8 [a0 + 0xa]\n 93056: s1 = u8 [a0 + 0xb]\n 93059: a1 = a1 << 0x8\n 93062: a1 = a1 | a4\n 93065: a5 = a5 << 0x10\n 93068: s1 = s1 << 0x18\n 93071: a5 = a5 | s1\n 93074: a1 = a1 | a5\n 93077: a4 = u8 [a0 + 0xd]\n 93080: a5 = u8 [a0 + 0xc]\n 93083: s1 = u8 [a0 + 0xe]\n 93086: a0 = u8 [a0 + 0xf]\n 93089: a4 = a4 << 0x8\n 93092: a4 = a4 | a5\n 93095: s1 = s1 << 0x10\n 93098: a0 = a0 << 0x18\n 93101: a0 = a0 | s1\n 93104: a0 = a0 | a4\n 93107: a0 = a0 << 0x20\n 93110: a0 = a0 | a1\n 93113: s1 = reverse a0\n 93115: a1 = reverse a3\n 93117: a2 = reverse a2\n 93119: a0 = reverse t0\n 93121: u64 [sp + 0x58] = a0\n 93124: u64 [sp + 0x50] = a2\n 93127: a0 = a0 | a2\n 93130: a2 = a1\n 93132: a1 = a1 | s1\n 93135: a1 = a1 | a0\n 93138: a1 = a1 >> 0x20\n 93141: a0 = a0 | s1\n 93144: a0 = a0 << 0x20\n 93147: a0 = a0 | a1\n 93150: jump @1229 if a0 != 0\n      : @1225 (gas: 5)\n 93154: u64 [sp + 0x48] = a2\n 93157: i32 a0 = a2 + 0\n 93159: a1 = 0x20\n 93162: u64 [sp + 0x40] = a0\n 93165: ra = 1072, jump @0\n      : @1226 [@dyn 536] (gas: 50)\n 93172: u8 [a0 + 31] = 0\n 93175: u8 [a0 + 30] = 0\n 93178: u8 [a0 + 29] = 0\n 93181: u8 [a0 + 28] = 0\n 93184: u8 [a0 + 27] = 0\n 93187: u8 [a0 + 26] = 0\n 93190: u8 [a0 + 25] = 0\n 93193: u8 [a0 + 24] = 0\n 93196: u8 [a0 + 23] = 0\n 93199: u8 [a0 + 22] = 0\n 93202: u8 [a0 + 21] = 0\n 93205: u8 [a0 + 20] = 0\n 93208: u8 [a0 + 19] = 0\n 93211: u8 [a0 + 18] = 0\n 93214: u8 [a0 + 17] = 0\n 93217: u8 [a0 + 16] = 0\n 93220: u8 [a0 + 15] = 0\n 93223: u8 [a0 + 14] = 0\n 93226: u8 [a0 + 13] = 0\n 93229: u8 [a0 + 12] = 0\n 93232: u8 [a0 + 11] = 0\n 93235: u8 [a0 + 10] = 0\n 93238: u8 [a0 + 9] = 0\n 93241: u8 [a0 + 8] = 0\n 93244: u8 [a0 + 7] = 0\n 93247: u8 [a0 + 6] = 0\n 93250: u8 [a0 + 5] = 0\n 93253: u8 [a0 + 4] = 0\n 93256: u8 [a0 + 3] = 0xa0\n 93261: u8 [a0 + 2] = 0x79\n 93265: u8 [a0 + 1] = 0xc3\n 93270: u8 [a0 + 0] = 0x8\n 93273: a1 = u64 [sp + 0x48]\n 93276: a0 = a1 + 0x4\n 93279: a1 = a0 <u a1\n 93282: a3 = u64 [sp + 0x58]\n 93285: a2 = a3 + a1\n 93288: a3 = a2 <u a3\n 93291: a3 = a1 if a1 == 0\n 93294: a3 = a3 + s1\n 93297: a1 = a3 <u s1\n 93300: a4 = u64 [sp + 0x50]\n 93303: a4 = a4 + a1\n 93306: u64 [sp + 0x68] = a2\n 93309: u64 [sp + 0x60] = a0\n 93312: u64 [sp + 0x70] = a3\n 93315: a0 = sp + 0x80\n 93319: a1 = sp + 0x60\n 93322: u64 [sp + 0x78] = a4\n 93325: ra = 1074, jump @1193\n      : @1227 [@dyn 537] (gas: 5)\n 93331: a0 = u64 [sp + 0x88]\n 93335: t0 = u64 [sp + 0x98]\n 93339: t1 = u64 [sp + 0x80]\n 93343: a3 = u64 [sp + 0x90]\n 93347: fallthrough\n      : @1228 (gas: 26)\n 93348: a1 = u64 [sp + 0x58]\n 93351: a4 = a0 ^ a1\n 93354: a5 = a0 <u a1\n 93357: t2 = a1\n 93359: a2 = u64 [sp + 0x48]\n 93362: a1 = t1 <u a2\n 93365: a5 = a1 if a4 == 0\n 93368: a4 = a3 - s1\n 93371: a3 = a3 <u s1\n 93374: s1 = u64 [sp + 0x50]\n 93377: s1 = t0 - s1\n 93380: s1 = s1 - a3\n 93383: a3 = a4 <u a5\n 93386: s1 = s1 - a3\n 93389: a4 = a4 - a5\n 93392: a0 = a0 - t2\n 93395: a1 = a0 - a1\n 93398: a0 = t1 - a2\n 93401: a1 = a1 | s1\n 93404: a2 = a0 | a4\n 93407: a2 = a2 | a1\n 93410: a1 = a1 | a4\n 93413: a2 = a2 >> 0x20\n 93416: a1 = a1 << 0x20\n 93419: a1 = a1 | a2\n 93422: jump @1230 if a1 == 0\n      : @1229 (gas: 1)\n 93425: trap\n      : @1230 (gas: 4)\n 93426: i32 s1 = a0 + 0\n 93428: a0 = u64 [sp + 0x40]\n 93431: a1 = s1\n 93433: ra = 1076, jump @0\n      : @1231 [@dyn 538] (gas: 6)\n 93440: i32 a1 = a0 + 0\n 93442: a0 = 0x1\n 93445: a2 = s1\n 93447: ra = 0x436\n 93451: ecalli 14 // 'seal_return'\n 93453: fallthrough\n      : @1232 [@dyn 539] (gas: 17)\n 93454: sp = sp + 0xffffffffffffff20\n 93458: u64 [sp + 0xd8] = ra\n 93462: u64 [sp + 0xd0] = s0\n 93466: u64 [sp + 0xc8] = s1\n 93470: s0 = sp + 0xe0\n 93474: sp = sp & 0xffffffffffffffe0\n 93477: a1 = u64 [a0 + 0x18]\n 93480: u64 [sp + 0x38] = a1\n 93483: a1 = u64 [a0 + 0x10]\n 93486: u64 [sp + 0x30] = a1\n 93489: a1 = u64 [a0 + 0x8]\n 93492: u64 [sp + 0x28] = a1\n 93495: a0 = u64 [a0]\n 93497: u64 [sp + 0x20] = a0\n 93500: i32 a0 = sp + 0xa0\n 93504: ecalli 5 // 'caller'\n 93506: fallthrough\n      : @1233 (gas: 6)\n 93507: s1 = 0x20070\n 93512: a4 = i32 [sp + 0xb0]\n 93516: a2 = u64 [sp + 0xa0]\n 93520: a0 = i32 [0x20070]\n 93525: a1 = u64 [sp + 0xa8]\n 93529: jump @1236 if a0 == 0\n      : @1234 (gas: 9)\n 93532: u64 [sp] = a0\n 93534: a0 = 0x30080\n 93539: i32 a0 = a0 + 0\n 93541: u64 [sp + 0x8] = a1\n 93544: i32 a1 = s1 + 0\n 93546: u64 [sp + 0x18] = a4\n 93549: u64 [sp + 0x10] = a2\n 93552: ecalli 7 // 'get_immutable_data'\n 93554: fallthrough\n      : @1235 (gas: 7)\n 93555: a1 = u64 [sp + 0x8]\n 93558: a2 = u64 [sp + 0x10]\n 93561: a4 = u64 [sp + 0x18]\n 93564: a0 = i32 [0x20070]\n 93569: u32 [0x20070] = 0\n 93574: a3 = u64 [sp]\n 93576: jump @1244 if a0 <u a3\n      : @1236 (gas: 19)\n 93580: a0 = reverse a1\n 93582: a1 = a0 >> 0x20\n 93585: a2 = reverse a2\n 93587: a3 = a2 << 0x20\n 93590: a1 = a1 | a3\n 93593: a0 = a0 << 0x20\n 93596: a4 = reverse a4\n 93598: a4 = a4 >> 0x20\n 93601: a0 = a0 | a4\n 93604: a4 = u64 [0x30080]\n 93609: a5 = u32 [0x30090]\n 93614: a2 = a2 >> 0x20\n 93617: a3 = u64 [0x30088]\n 93622: a0 = a0 ^ a4\n 93625: a2 = a2 ^ a5\n 93628: a0 = a0 | a2\n 93631: a1 = a1 ^ a3\n 93634: a0 = a0 | a1\n 93637: jump @1239 if a0 != 0\n      : @1237 (gas: 10)\n 93640: a0 = u64 [sp + 0x20]\n 93643: u64 [sp + 0x40] = a0\n 93646: a0 = u64 [sp + 0x28]\n 93649: u64 [sp + 0x48] = a0\n 93652: a0 = u64 [sp + 0x30]\n 93655: u64 [sp + 0x50] = a0\n 93658: a0 = sp + 0x40\n 93661: a1 = u64 [sp + 0x38]\n 93664: u64 [sp + 0x58] = a1\n 93667: ra = 1080, jump @1247\n      : @1238 [@dyn 540] (gas: 6)\n 93673: sp = s0 + 0xffffffffffffff20\n 93677: ra = u64 [sp + 0xd8]\n 93681: s0 = u64 [sp + 0xd0]\n 93685: s1 = u64 [sp + 0xc8]\n 93689: sp = sp + 0xe0\n 93693: ret\n      : @1239 (gas: 3)\n 93695: a0 = 0x40\n 93698: a1 = 0x20\n 93701: ra = 1082, jump @0\n      : @1240 [@dyn 541] (gas: 103)\n 93708: a1 = u8 [a0 + 0x11]\n 93711: a2 = u8 [a0 + 0x10]\n 93714: a3 = u8 [a0 + 0x12]\n 93717: a4 = u8 [a0 + 0x13]\n 93720: a1 = a1 << 0x8\n 93723: a1 = a1 | a2\n 93726: a3 = a3 << 0x10\n 93729: a4 = a4 << 0x18\n 93732: a3 = a3 | a4\n 93735: a1 = a1 | a3\n 93738: a2 = u8 [a0 + 0x15]\n 93741: a3 = u8 [a0 + 0x14]\n 93744: a4 = u8 [a0 + 0x16]\n 93747: a5 = u8 [a0 + 0x17]\n 93750: a2 = a2 << 0x8\n 93753: a2 = a2 | a3\n 93756: a4 = a4 << 0x10\n 93759: a5 = a5 << 0x18\n 93762: a4 = a4 | a5\n 93765: a2 = a2 | a4\n 93768: a2 = a2 << 0x20\n 93771: t0 = a2 | a1\n 93774: a2 = u8 [a0 + 0x1]\n 93777: a3 = u8 [a0]\n 93779: a4 = u8 [a0 + 0x2]\n 93782: a5 = u8 [a0 + 0x3]\n 93785: a2 = a2 << 0x8\n 93788: a2 = a2 | a3\n 93791: a4 = a4 << 0x10\n 93794: a5 = a5 << 0x18\n 93797: a4 = a4 | a5\n 93800: a2 = a2 | a4\n 93803: a3 = u8 [a0 + 0x5]\n 93806: a4 = u8 [a0 + 0x4]\n 93809: a5 = u8 [a0 + 0x6]\n 93812: s1 = u8 [a0 + 0x7]\n 93815: a3 = a3 << 0x8\n 93818: a3 = a3 | a4\n 93821: a5 = a5 << 0x10\n 93824: s1 = s1 << 0x18\n 93827: a5 = a5 | s1\n 93830: a3 = a3 | a5\n 93833: a3 = a3 << 0x20\n 93836: a2 = a2 | a3\n 93839: a3 = u8 [a0 + 0x19]\n 93842: a4 = u8 [a0 + 0x18]\n 93845: a5 = u8 [a0 + 0x1a]\n 93848: s1 = u8 [a0 + 0x1b]\n 93851: a3 = a3 << 0x8\n 93854: a3 = a3 | a4\n 93857: a5 = a5 << 0x10\n 93860: s1 = s1 << 0x18\n 93863: a5 = a5 | s1\n 93866: a3 = a3 | a5\n 93869: a4 = u8 [a0 + 0x1d]\n 93872: a5 = u8 [a0 + 0x1c]\n 93875: s1 = u8 [a0 + 0x1e]\n 93878: a1 = u8 [a0 + 0x1f]\n 93881: a4 = a4 << 0x8\n 93884: a4 = a4 | a5\n 93887: s1 = s1 << 0x10\n 93890: a1 = a1 << 0x18\n 93893: a1 = a1 | s1\n 93896: a1 = a1 | a4\n 93899: a1 = a1 << 0x20\n 93902: a3 = a3 | a1\n 93905: a1 = u8 [a0 + 0x9]\n 93908: a4 = u8 [a0 + 0x8]\n 93911: a5 = u8 [a0 + 0xa]\n 93914: s1 = u8 [a0 + 0xb]\n 93917: a1 = a1 << 0x8\n 93920: a1 = a1 | a4\n 93923: a5 = a5 << 0x10\n 93926: s1 = s1 << 0x18\n 93929: a5 = a5 | s1\n 93932: a1 = a1 | a5\n 93935: a4 = u8 [a0 + 0xd]\n 93938: a5 = u8 [a0 + 0xc]\n 93941: s1 = u8 [a0 + 0xe]\n 93944: a0 = u8 [a0 + 0xf]\n 93947: a4 = a4 << 0x8\n 93950: a4 = a4 | a5\n 93953: s1 = s1 << 0x10\n 93956: a0 = a0 << 0x18\n 93959: a0 = a0 | s1\n 93962: a0 = a0 | a4\n 93965: a0 = a0 << 0x20\n 93968: a0 = a0 | a1\n 93971: s1 = reverse a0\n 93973: a1 = reverse a3\n 93975: a2 = reverse a2\n 93977: a0 = reverse t0\n 93979: u64 [sp + 0x38] = a0\n 93982: u64 [sp + 0x30] = a2\n 93985: a0 = a0 | a2\n 93988: a2 = a1\n 93990: a1 = a1 | s1\n 93993: a1 = a1 | a0\n 93996: a1 = a1 >> 0x20\n 93999: a0 = a0 | s1\n 94002: a0 = a0 << 0x20\n 94005: a0 = a0 | a1\n 94008: jump @1244 if a0 != 0\n      : @1241 (gas: 5)\n 94012: u64 [sp + 0x28] = a2\n 94015: i32 a0 = a2 + 0\n 94017: a1 = 0x20\n 94020: u64 [sp + 0x20] = a0\n 94023: ra = 1084, jump @0\n      : @1242 [@dyn 542] (gas: 50)\n 94030: u8 [a0 + 31] = 0\n 94033: u8 [a0 + 30] = 0\n 94036: u8 [a0 + 29] = 0\n 94039: u8 [a0 + 28] = 0\n 94042: u8 [a0 + 27] = 0\n 94045: u8 [a0 + 26] = 0\n 94048: u8 [a0 + 25] = 0\n 94051: u8 [a0 + 24] = 0\n 94054: u8 [a0 + 23] = 0\n 94057: u8 [a0 + 22] = 0\n 94060: u8 [a0 + 21] = 0\n 94063: u8 [a0 + 20] = 0\n 94066: u8 [a0 + 19] = 0\n 94069: u8 [a0 + 18] = 0\n 94072: u8 [a0 + 17] = 0\n 94075: u8 [a0 + 16] = 0\n 94078: u8 [a0 + 15] = 0\n 94081: u8 [a0 + 14] = 0\n 94084: u8 [a0 + 13] = 0\n 94087: u8 [a0 + 12] = 0\n 94090: u8 [a0 + 11] = 0\n 94093: u8 [a0 + 10] = 0\n 94096: u8 [a0 + 9] = 0\n 94099: u8 [a0 + 8] = 0\n 94102: u8 [a0 + 7] = 0\n 94105: u8 [a0 + 6] = 0\n 94108: u8 [a0 + 5] = 0\n 94111: u8 [a0 + 4] = 0\n 94114: u8 [a0 + 3] = 0xa0\n 94119: u8 [a0 + 2] = 0x79\n 94123: u8 [a0 + 1] = 0xc3\n 94128: u8 [a0 + 0] = 0x8\n 94131: a1 = u64 [sp + 0x28]\n 94134: a0 = a1 + 0x4\n 94137: a1 = a0 <u a1\n 94140: a3 = u64 [sp + 0x38]\n 94143: a2 = a3 + a1\n 94146: a3 = a2 <u a3\n 94149: a3 = a1 if a1 == 0\n 94152: a3 = a3 + s1\n 94155: a1 = a3 <u s1\n 94158: a4 = u64 [sp + 0x30]\n 94161: a4 = a4 + a1\n 94164: u64 [sp + 0x68] = a2\n 94167: u64 [sp + 0x60] = a0\n 94170: u64 [sp + 0x70] = a3\n 94173: a0 = sp + 0x80\n 94177: a1 = sp + 0x60\n 94180: u64 [sp + 0x78] = a4\n 94183: ra = 1086, jump @1118\n      : @1243 [@dyn 543] (gas: 30)\n 94189: a0 = u64 [sp + 0x88]\n 94193: t0 = u64 [sp + 0x98]\n 94197: t1 = u64 [sp + 0x80]\n 94201: a3 = u64 [sp + 0x90]\n 94205: a1 = u64 [sp + 0x38]\n 94208: a4 = a0 ^ a1\n 94211: a5 = a0 <u a1\n 94214: t2 = a1\n 94216: a2 = u64 [sp + 0x28]\n 94219: a1 = t1 <u a2\n 94222: a5 = a1 if a4 == 0\n 94225: a4 = a3 - s1\n 94228: a3 = a3 <u s1\n 94231: s1 = u64 [sp + 0x30]\n 94234: s1 = t0 - s1\n 94237: s1 = s1 - a3\n 94240: a3 = a4 <u a5\n 94243: s1 = s1 - a3\n 94246: a4 = a4 - a5\n 94249: a0 = a0 - t2\n 94252: a1 = a0 - a1\n 94255: a0 = t1 - a2\n 94258: a1 = a1 | s1\n 94261: a2 = a0 | a4\n 94264: a2 = a2 | a1\n 94267: a1 = a1 | a4\n 94270: a2 = a2 >> 0x20\n 94273: a1 = a1 << 0x20\n 94276: a1 = a1 | a2\n 94279: jump @1245 if a1 == 0\n      : @1244 (gas: 1)\n 94282: trap\n      : @1245 (gas: 4)\n 94283: i32 s1 = a0 + 0\n 94285: a0 = u64 [sp + 0x20]\n 94288: a1 = s1\n 94290: ra = 1088, jump @0\n      : @1246 [@dyn 544] (gas: 6)\n 94297: i32 a1 = a0 + 0\n 94299: a0 = 0x1\n 94302: a2 = s1\n 94304: ra = 0x442\n 94308: ecalli 14 // 'seal_return'\n 94310: fallthrough\n      : @1247 [@dyn 545] (gas: 31)\n 94311: sp = sp + 0xffffffffffffff00\n 94315: u64 [sp + 0xf8] = ra\n 94319: u64 [sp + 0xf0] = s0\n 94323: u64 [sp + 0xe8] = s1\n 94327: s0 = sp + 0x100\n 94331: sp = sp & 0xffffffffffffffe0\n 94334: a1 = u64 [a0 + 0x18]\n 94337: u64 [sp] = a1\n 94339: a1 = u64 [a0 + 0x10]\n 94342: u64 [sp + 0x8] = a1\n 94345: a1 = u64 [a0 + 0x8]\n 94348: u64 [sp + 0x10] = a1\n 94351: a0 = u64 [a0]\n 94353: u64 [sp + 0x18] = a0\n 94356: u64 [sp + 184] = 0\n 94360: u64 [sp + 176] = 0\n 94364: u64 [sp + 168] = 0\n 94368: s1 = 0x5\n 94371: u64 [sp + 0xa0] = s1\n 94375: u64 [sp + 216] = 0\n 94379: u64 [sp + 208] = 0\n 94383: u64 [sp + 200] = 0\n 94387: u64 [sp + 192] = 0\n 94391: u32 [sp + 128] = 0x20\n 94396: i32 a1 = sp + 0xa0\n 94400: i32 a3 = sp + 0xc0\n 94404: i32 a4 = sp + 0x80\n 94408: a2 = 0xffffffffffffffff\n 94411: a0 = 0\n 94413: ecalli 8 // 'get_storage'\n 94415: fallthrough\n      : @1248 (gas: 9)\n 94416: a0 = u64 [sp + 0xd8]\n 94420: a1 = u64 [sp + 0xc8]\n 94424: a2 = u64 [sp + 0xc0]\n 94428: a3 = u64 [sp + 0xd0]\n 94432: a0 = a0 | a1\n 94435: a1 = a2 ^ 0x1\n 94438: a1 = a1 | a3\n 94441: a0 = a0 | a1\n 94444: jump @1251 if a0 != 0\n      : @1249 (gas: 39)\n 94448: u64 [sp + 184] = 0\n 94452: u64 [sp + 176] = 0\n 94456: u64 [sp + 168] = 0\n 94460: u64 [sp + 160] = 0x5\n 94465: u64 [sp + 216] = 0\n 94469: u64 [sp + 208] = 0\n 94473: u64 [sp + 200] = 0\n 94477: u64 [sp + 192] = 0\n 94481: u32 [sp + 128] = 0x20\n 94486: i32 a1 = sp + 0xa0\n 94490: i32 a3 = sp + 0xc0\n 94494: i32 a4 = sp + 0x80\n 94498: a2 = 0xffffffffffffffff\n 94501: a0 = 0\n 94503: ecalli 8 // 'get_storage'\n 94505: u64 [sp + 184] = 0\n 94509: u64 [sp + 176] = 0\n 94513: u64 [sp + 168] = 0\n 94517: u64 [sp + 160] = 0x5\n 94522: u64 [sp + 216] = 0\n 94526: u64 [sp + 208] = 0\n 94530: u64 [sp + 200] = 0\n 94534: u64 [sp + 192] = 0x2\n 94539: i32 a1 = sp + 0xa0\n 94543: i32 a3 = sp + 0xc0\n 94547: a2 = 0xffffffffffffffff\n 94550: a4 = 0x20\n 94553: a0 = 0\n 94555: ecalli 16 // 'set_storage'\n 94557: a0 = u64 [sp]\n 94559: u64 [sp + 0x38] = a0\n 94562: a0 = u64 [sp + 0x8]\n 94565: u64 [sp + 0x30] = a0\n 94568: a0 = u64 [sp + 0x10]\n 94571: u64 [sp + 0x28] = a0\n 94574: a0 = sp + 0x20\n 94577: a1 = u64 [sp + 0x18]\n 94580: u64 [sp + 0x20] = a1\n 94583: ra = 1092, jump @1259\n      : @1250 [@dyn 546] (gas: 35)\n 94589: u64 [sp + 184] = 0\n 94593: u64 [sp + 176] = 0\n 94597: u64 [sp + 168] = 0\n 94601: u64 [sp + 0xa0] = s1\n 94605: u64 [sp + 216] = 0\n 94609: u64 [sp + 208] = 0\n 94613: u64 [sp + 200] = 0\n 94617: u64 [sp + 192] = 0\n 94621: u32 [sp + 128] = 0x20\n 94626: i32 a1 = sp + 0xa0\n 94630: i32 a3 = sp + 0xc0\n 94634: i32 a4 = sp + 0x80\n 94638: a2 = 0xffffffffffffffff\n 94641: a0 = 0\n 94643: ecalli 8 // 'get_storage'\n 94645: u64 [sp + 184] = 0\n 94649: u64 [sp + 176] = 0\n 94653: u64 [sp + 168] = 0\n 94657: u64 [sp + 0xa0] = s1\n 94661: u64 [sp + 216] = 0\n 94665: u64 [sp + 208] = 0\n 94669: u64 [sp + 200] = 0\n 94673: u64 [sp + 192] = 0x1\n 94678: i32 a1 = sp + 0xa0\n 94682: i32 a3 = sp + 0xc0\n 94686: a2 = 0xffffffffffffffff\n 94689: a4 = 0x20\n 94692: a0 = 0\n 94694: ecalli 16 // 'set_storage'\n 94696: sp = s0 + 0xffffffffffffff00\n 94700: ra = u64 [sp + 0xf8]\n 94704: s0 = u64 [sp + 0xf0]\n 94708: s1 = u64 [sp + 0xe8]\n 94712: sp = sp + 0x100\n 94716: ret\n      : @1251 (gas: 3)\n 94718: a0 = 0x40\n 94721: a1 = 0x20\n 94724: ra = 1094, jump @0\n      : @1252 [@dyn 547] (gas: 103)\n 94731: a1 = u8 [a0 + 0x11]\n 94734: a2 = u8 [a0 + 0x10]\n 94737: a3 = u8 [a0 + 0x12]\n 94740: a4 = u8 [a0 + 0x13]\n 94743: a1 = a1 << 0x8\n 94746: a1 = a1 | a2\n 94749: a3 = a3 << 0x10\n 94752: a4 = a4 << 0x18\n 94755: a3 = a3 | a4\n 94758: a1 = a1 | a3\n 94761: a2 = u8 [a0 + 0x15]\n 94764: a3 = u8 [a0 + 0x14]\n 94767: a4 = u8 [a0 + 0x16]\n 94770: a5 = u8 [a0 + 0x17]\n 94773: a2 = a2 << 0x8\n 94776: a2 = a2 | a3\n 94779: a4 = a4 << 0x10\n 94782: a5 = a5 << 0x18\n 94785: a4 = a4 | a5\n 94788: a2 = a2 | a4\n 94791: a2 = a2 << 0x20\n 94794: t0 = a2 | a1\n 94797: a2 = u8 [a0 + 0x1]\n 94800: a3 = u8 [a0]\n 94802: a4 = u8 [a0 + 0x2]\n 94805: a5 = u8 [a0 + 0x3]\n 94808: a2 = a2 << 0x8\n 94811: a2 = a2 | a3\n 94814: a4 = a4 << 0x10\n 94817: a5 = a5 << 0x18\n 94820: a4 = a4 | a5\n 94823: a2 = a2 | a4\n 94826: a3 = u8 [a0 + 0x5]\n 94829: a4 = u8 [a0 + 0x4]\n 94832: a5 = u8 [a0 + 0x6]\n 94835: s1 = u8 [a0 + 0x7]\n 94838: a3 = a3 << 0x8\n 94841: a3 = a3 | a4\n 94844: a5 = a5 << 0x10\n 94847: s1 = s1 << 0x18\n 94850: a5 = a5 | s1\n 94853: a3 = a3 | a5\n 94856: a3 = a3 << 0x20\n 94859: a2 = a2 | a3\n 94862: a3 = u8 [a0 + 0x19]\n 94865: a4 = u8 [a0 + 0x18]\n 94868: a5 = u8 [a0 + 0x1a]\n 94871: s1 = u8 [a0 + 0x1b]\n 94874: a3 = a3 << 0x8\n 94877: a3 = a3 | a4\n 94880: a5 = a5 << 0x10\n 94883: s1 = s1 << 0x18\n 94886: a5 = a5 | s1\n 94889: a3 = a3 | a5\n 94892: a4 = u8 [a0 + 0x1d]\n 94895: a5 = u8 [a0 + 0x1c]\n 94898: s1 = u8 [a0 + 0x1e]\n 94901: a1 = u8 [a0 + 0x1f]\n 94904: a4 = a4 << 0x8\n 94907: a4 = a4 | a5\n 94910: s1 = s1 << 0x10\n 94913: a1 = a1 << 0x18\n 94916: a1 = a1 | s1\n 94919: a1 = a1 | a4\n 94922: a1 = a1 << 0x20\n 94925: a3 = a3 | a1\n 94928: a1 = u8 [a0 + 0x9]\n 94931: a4 = u8 [a0 + 0x8]\n 94934: a5 = u8 [a0 + 0xa]\n 94937: s1 = u8 [a0 + 0xb]\n 94940: a1 = a1 << 0x8\n 94943: a1 = a1 | a4\n 94946: a5 = a5 << 0x10\n 94949: s1 = s1 << 0x18\n 94952: a5 = a5 | s1\n 94955: a1 = a1 | a5\n 94958: a4 = u8 [a0 + 0xd]\n 94961: a5 = u8 [a0 + 0xc]\n 94964: s1 = u8 [a0 + 0xe]\n 94967: a0 = u8 [a0 + 0xf]\n 94970: a4 = a4 << 0x8\n 94973: a4 = a4 | a5\n 94976: s1 = s1 << 0x10\n 94979: a0 = a0 << 0x18\n 94982: a0 = a0 | s1\n 94985: a0 = a0 | a4\n 94988: a0 = a0 << 0x20\n 94991: a0 = a0 | a1\n 94994: s1 = reverse a0\n 94996: a1 = reverse a3\n 94998: a2 = reverse a2\n 95000: a0 = reverse t0\n 95002: u64 [sp + 0x18] = a0\n 95005: u64 [sp + 0x10] = a2\n 95008: a0 = a0 | a2\n 95011: a2 = a1\n 95013: a1 = a1 | s1\n 95016: a1 = a1 | a0\n 95019: a1 = a1 >> 0x20\n 95022: a0 = a0 | s1\n 95025: a0 = a0 << 0x20\n 95028: a0 = a0 | a1\n 95031: jump @1256 if a0 != 0\n      : @1253 (gas: 5)\n 95035: u64 [sp + 0x8] = a2\n 95038: i32 a0 = a2 + 0\n 95040: a1 = 0x20\n 95043: u64 [sp] = a0\n 95045: ra = 1096, jump @0\n      : @1254 [@dyn 548] (gas: 50)\n 95052: u8 [a0 + 31] = 0\n 95055: u8 [a0 + 30] = 0\n 95058: u8 [a0 + 29] = 0\n 95061: u8 [a0 + 28] = 0\n 95064: u8 [a0 + 27] = 0\n 95067: u8 [a0 + 26] = 0\n 95070: u8 [a0 + 25] = 0\n 95073: u8 [a0 + 24] = 0\n 95076: u8 [a0 + 23] = 0\n 95079: u8 [a0 + 22] = 0\n 95082: u8 [a0 + 21] = 0\n 95085: u8 [a0 + 20] = 0\n 95088: u8 [a0 + 19] = 0\n 95091: u8 [a0 + 18] = 0\n 95094: u8 [a0 + 17] = 0\n 95097: u8 [a0 + 16] = 0\n 95100: u8 [a0 + 15] = 0\n 95103: u8 [a0 + 14] = 0\n 95106: u8 [a0 + 13] = 0\n 95109: u8 [a0 + 12] = 0\n 95112: u8 [a0 + 11] = 0\n 95115: u8 [a0 + 10] = 0\n 95118: u8 [a0 + 9] = 0\n 95121: u8 [a0 + 8] = 0\n 95124: u8 [a0 + 7] = 0\n 95127: u8 [a0 + 6] = 0\n 95130: u8 [a0 + 5] = 0\n 95133: u8 [a0 + 4] = 0\n 95136: u8 [a0 + 3] = 0xa0\n 95141: u8 [a0 + 2] = 0x79\n 95145: u8 [a0 + 1] = 0xc3\n 95150: u8 [a0 + 0] = 0x8\n 95153: a1 = u64 [sp + 0x8]\n 95156: a0 = a1 + 0x4\n 95159: a1 = a0 <u a1\n 95162: a3 = u64 [sp + 0x18]\n 95165: a2 = a3 + a1\n 95168: a3 = a2 <u a3\n 95171: a3 = a1 if a1 == 0\n 95174: a3 = a3 + s1\n 95177: a1 = a3 <u s1\n 95180: a4 = u64 [sp + 0x10]\n 95183: a4 = a4 + a1\n 95186: u64 [sp + 0x48] = a2\n 95189: u64 [sp + 0x40] = a0\n 95192: u64 [sp + 0x50] = a3\n 95195: a0 = sp + 0x60\n 95198: a1 = sp + 0x40\n 95201: u64 [sp + 0x58] = a4\n 95204: ra = 1098, jump @922\n      : @1255 [@dyn 549] (gas: 30)\n 95210: a0 = u64 [sp + 0x68]\n 95213: t0 = u64 [sp + 0x78]\n 95216: t1 = u64 [sp + 0x60]\n 95219: a3 = u64 [sp + 0x70]\n 95222: a1 = u64 [sp + 0x18]\n 95225: a4 = a0 ^ a1\n 95228: a5 = a0 <u a1\n 95231: t2 = a1\n 95233: a2 = u64 [sp + 0x8]\n 95236: a1 = t1 <u a2\n 95239: a5 = a1 if a4 == 0\n 95242: a4 = a3 - s1\n 95245: a3 = a3 <u s1\n 95248: s1 = u64 [sp + 0x10]\n 95251: s1 = t0 - s1\n 95254: s1 = s1 - a3\n 95257: a3 = a4 <u a5\n 95260: s1 = s1 - a3\n 95263: a4 = a4 - a5\n 95266: a0 = a0 - t2\n 95269: a1 = a0 - a1\n 95272: a0 = t1 - a2\n 95275: a1 = a1 | s1\n 95278: a2 = a0 | a4\n 95281: a2 = a2 | a1\n 95284: a1 = a1 | a4\n 95287: a2 = a2 >> 0x20\n 95290: a1 = a1 << 0x20\n 95293: a1 = a1 | a2\n 95296: jump @1257 if a1 == 0\n      : @1256 (gas: 1)\n 95299: trap\n      : @1257 (gas: 4)\n 95300: i32 s1 = a0 + 0\n 95302: a0 = u64 [sp]\n 95304: a1 = s1\n 95306: ra = 1100, jump @0\n      : @1258 [@dyn 550] (gas: 6)\n 95313: i32 a1 = a0 + 0\n 95315: a0 = 0x1\n 95318: a2 = s1\n 95320: ra = 0x44e\n 95324: ecalli 14 // 'seal_return'\n 95326: fallthrough\n      : @1259 [@dyn 551] (gas: 16)\n 95327: sp = sp + 0xfffffffffffffee0\n 95331: u64 [sp + 0x118] = ra\n 95335: u64 [sp + 0x110] = s0\n 95339: u64 [sp + 0x108] = s1\n 95343: s0 = sp + 0x120\n 95347: sp = sp & 0xffffffffffffffe0\n 95350: a1 = u64 [a0]\n 95352: u64 [sp + 0x38] = a1\n 95355: a1 = u64 [a0 + 0x8]\n 95358: u64 [sp + 0x30] = a1\n 95361: a1 = u64 [a0 + 0x10]\n 95364: u64 [sp + 0x28] = a1\n 95367: s1 = u64 [a0 + 0x18]\n 95370: a1 = 0x20\n 95373: a0 = 0\n 95375: ra = 1104, jump @0\n      : @1260 [@dyn 552] (gas: 70)\n 95382: a1 = reverse s1\n 95384: a2 = u64 [sp + 0x28]\n 95387: a2 = reverse a2\n 95389: a3 = u64 [sp + 0x30]\n 95392: a3 = reverse a3\n 95394: a4 = u64 [sp + 0x38]\n 95397: a4 = reverse a4\n 95399: u8 [a0 + 0x18] = a4\n 95402: u8 [a0 + 0x10] = a3\n 95405: u8 [a0 + 0x8] = a2\n 95408: u8 [a0] = a1\n 95410: a5 = a4 >> 0x38\n 95413: u8 [a0 + 0x1f] = a5\n 95416: a5 = a4 >> 0x30\n 95419: u8 [a0 + 0x1e] = a5\n 95422: a5 = a4 >> 0x28\n 95425: u8 [a0 + 0x1d] = a5\n 95428: a5 = a4 >> 0x20\n 95431: u8 [a0 + 0x1c] = a5\n 95434: a5 = a4 >> 0x18\n 95437: u8 [a0 + 0x1b] = a5\n 95440: a5 = a4 >> 0x10\n 95443: u8 [a0 + 0x1a] = a5\n 95446: a4 = a4 >> 0x8\n 95449: u8 [a0 + 0x19] = a4\n 95452: a4 = a3 >> 0x38\n 95455: u8 [a0 + 0x17] = a4\n 95458: a4 = a3 >> 0x30\n 95461: u8 [a0 + 0x16] = a4\n 95464: a4 = a3 >> 0x28\n 95467: u8 [a0 + 0x15] = a4\n 95470: a4 = a3 >> 0x20\n 95473: u8 [a0 + 0x14] = a4\n 95476: a4 = a3 >> 0x18\n 95479: u8 [a0 + 0x13] = a4\n 95482: a4 = a3 >> 0x10\n 95485: u8 [a0 + 0x12] = a4\n 95488: a3 = a3 >> 0x8\n 95491: u8 [a0 + 0x11] = a3\n 95494: a3 = a2 >> 0x38\n 95497: u8 [a0 + 0xf] = a3\n 95500: a3 = a2 >> 0x30\n 95503: u8 [a0 + 0xe] = a3\n 95506: a3 = a2 >> 0x28\n 95509: u8 [a0 + 0xd] = a3\n 95512: a3 = a2 >> 0x20\n 95515: u8 [a0 + 0xc] = a3\n 95518: a3 = a2 >> 0x18\n 95521: u8 [a0 + 0xb] = a3\n 95524: a3 = a2 >> 0x10\n 95527: u8 [a0 + 0xa] = a3\n 95530: a2 = a2 >> 0x8\n 95533: u8 [a0 + 0x9] = a2\n 95536: a2 = a1 >> 0x38\n 95539: u8 [a0 + 0x7] = a2\n 95542: a2 = a1 >> 0x30\n 95545: u8 [a0 + 0x6] = a2\n 95548: a2 = a1 >> 0x28\n 95551: u8 [a0 + 0x5] = a2\n 95554: a2 = a1 >> 0x20\n 95557: u8 [a0 + 0x4] = a2\n 95560: a2 = a1 >> 0x18\n 95563: u8 [a0 + 0x3] = a2\n 95566: a2 = a1 >> 0x10\n 95569: u8 [a0 + 0x2] = a2\n 95572: a1 = a1 >> 0x8\n 95575: u8 [a0 + 0x1] = a1\n 95578: a0 = 0x20\n 95581: a1 = 0x20\n 95584: ra = 1106, jump @0\n      : @1261 [@dyn 553] (gas: 35)\n 95591: u8 [a0 + 31] = 0x4\n 95595: u8 [a0 + 30] = 0\n 95598: u8 [a0 + 29] = 0\n 95601: u8 [a0 + 28] = 0\n 95604: u8 [a0 + 27] = 0\n 95607: u8 [a0 + 26] = 0\n 95610: u8 [a0 + 25] = 0\n 95613: u8 [a0 + 24] = 0\n 95616: u8 [a0 + 23] = 0\n 95619: u8 [a0 + 22] = 0\n 95622: u8 [a0 + 21] = 0\n 95625: u8 [a0 + 20] = 0\n 95628: u8 [a0 + 19] = 0\n 95631: u8 [a0 + 18] = 0\n 95634: u8 [a0 + 17] = 0\n 95637: u8 [a0 + 16] = 0\n 95640: u8 [a0 + 15] = 0\n 95643: u8 [a0 + 14] = 0\n 95646: u8 [a0 + 13] = 0\n 95649: u8 [a0 + 12] = 0\n 95652: u8 [a0 + 11] = 0\n 95655: u8 [a0 + 10] = 0\n 95658: u8 [a0 + 9] = 0\n 95661: u8 [a0 + 8] = 0\n 95664: u8 [a0 + 7] = 0\n 95667: u8 [a0 + 6] = 0\n 95670: u8 [a0 + 5] = 0\n 95673: u8 [a0 + 4] = 0\n 95676: u8 [a0 + 3] = 0\n 95679: u8 [a0 + 2] = 0\n 95682: u8 [a0 + 1] = 0\n 95685: u8 [a0 + 0] = 0\n 95687: a1 = 0x40\n 95690: a0 = 0\n 95692: ra = 1108, jump @0\n      : @1262 [@dyn 554] (gas: 44)\n 95699: i32 a0 = a0 + 0\n 95701: i32 a2 = sp + 0xe0\n 95705: a1 = 0x40\n 95708: ecalli 9 // 'hash_keccak_256'\n 95710: a0 = u64 [sp + 0xe0]\n 95714: a1 = u64 [sp + 0xe8]\n 95718: a2 = u64 [sp + 0xf0]\n 95722: a3 = u64 [sp + 0xf8]\n 95726: a4 = reverse a0\n 95728: a1 = reverse a1\n 95730: a2 = reverse a2\n 95732: a0 = reverse a3\n 95734: a3 = a0 + 0x2\n 95737: u64 [sp + 0x8] = a0\n 95740: a0 = a3 <u a0\n 95743: a5 = a2 + a0\n 95746: u64 [sp + 0x10] = a2\n 95749: s1 = a5 <u a2\n 95752: s1 = a0 if a0 == 0\n 95755: a2 = a1 + s1\n 95758: s1 = a5\n 95760: u64 [sp + 0x18] = a1\n 95763: a0 = a2 <u a1\n 95766: u64 [sp + 0x20] = a4\n 95769: a0 = a0 + a4\n 95772: u64 [sp + 0xc8] = a5\n 95776: u64 [sp + 0x38] = a3\n 95779: u64 [sp + 0xc0] = a3\n 95783: u64 [sp + 0x30] = a2\n 95786: u64 [sp + 0xd0] = a2\n 95790: u64 [sp + 0x28] = a0\n 95793: u64 [sp + 0xd8] = a0\n 95797: u64 [sp + 248] = 0\n 95801: u64 [sp + 240] = 0\n 95805: u64 [sp + 232] = 0\n 95809: u64 [sp + 224] = 0\n 95813: u32 [sp + 256] = 0x20\n 95818: i32 a1 = sp + 0xc0\n 95822: i32 a3 = sp + 0xe0\n 95826: i32 a4 = sp + 0x100\n 95830: a2 = 0xffffffffffffffff\n 95833: a0 = 0\n 95835: ecalli 8 // 'get_storage'\n 95837: fallthrough\n      : @1263 (gas: 2)\n 95838: a0 = u8 [sp + 0xe0]\n 95842: jump @1274 if a0 != 0\n      : @1264 (gas: 19)\n 95846: a0 = u64 [sp + 0x30]\n 95849: u64 [sp + 0xd0] = a0\n 95853: u64 [sp + 0xc8] = s1\n 95857: a0 = u64 [sp + 0x38]\n 95860: u64 [sp + 0xc0] = a0\n 95864: a0 = u64 [sp + 0x28]\n 95867: u64 [sp + 0xd8] = a0\n 95871: u64 [sp + 248] = 0\n 95875: u64 [sp + 240] = 0\n 95879: u64 [sp + 232] = 0\n 95883: u64 [sp + 224] = 0\n 95887: u32 [sp + 256] = 0x20\n 95892: i32 a1 = sp + 0xc0\n 95896: i32 a3 = sp + 0xe0\n 95900: i32 a4 = sp + 0x100\n 95904: a2 = 0xffffffffffffffff\n 95907: a0 = 0\n 95909: ecalli 8 // 'get_storage'\n 95911: fallthrough\n      : @1265 (gas: 2)\n 95912: a0 = u8 [sp + 0xe1]\n 95916: jump @1274 if a0 == 0\n      : @1266 (gas: 19)\n 95920: a0 = u64 [sp + 0x30]\n 95923: u64 [sp + 0xd0] = a0\n 95927: u64 [sp + 0xc8] = s1\n 95931: a0 = u64 [sp + 0x38]\n 95934: u64 [sp + 0xc0] = a0\n 95938: a0 = u64 [sp + 0x28]\n 95941: u64 [sp + 0xd8] = a0\n 95945: u64 [sp + 248] = 0\n 95949: u64 [sp + 240] = 0\n 95953: u64 [sp + 232] = 0\n 95957: u64 [sp + 224] = 0\n 95961: u32 [sp + 256] = 0x20\n 95966: i32 a1 = sp + 0xc0\n 95970: i32 a3 = sp + 0xe0\n 95974: i32 a4 = sp + 0x100\n 95978: a2 = 0xffffffffffffffff\n 95981: a0 = 0\n 95983: ecalli 8 // 'get_storage'\n 95985: fallthrough\n      : @1267 (gas: 2)\n 95986: a0 = u8 [sp + 0xe2]\n 95990: jump @1274 if a0 != 0\n      : @1268 (gas: 43)\n 95994: a0 = u64 [sp + 0x30]\n 95997: u64 [sp + 0xd0] = a0\n 96001: u64 [sp + 0xc8] = s1\n 96005: u64 [sp] = s1\n 96007: a0 = u64 [sp + 0x38]\n 96010: u64 [sp + 0xc0] = a0\n 96014: s1 = u64 [sp + 0x28]\n 96017: u64 [sp + 0xd8] = s1\n 96021: u64 [sp + 248] = 0\n 96025: u64 [sp + 240] = 0\n 96029: u64 [sp + 232] = 0\n 96033: u64 [sp + 224] = 0\n 96037: u32 [sp + 256] = 0x20\n 96042: i32 a1 = sp + 0xc0\n 96046: i32 a3 = sp + 0xe0\n 96050: i32 a4 = sp + 0x100\n 96054: a2 = 0xffffffffffffffff\n 96057: a0 = 0\n 96059: ecalli 8 // 'get_storage'\n 96061: a0 = u64 [sp + 0xe8]\n 96065: a1 = u64 [sp + 0xf0]\n 96069: a2 = u64 [sp + 0xe0]\n 96073: a3 = u64 [sp + 0xf8]\n 96077: a2 = a2 & 0xffffffffff00ffff\n 96083: a2 = a2 | 0x10000\n 96088: u64 [sp + 0xd8] = s1\n 96092: a4 = u64 [sp + 0x30]\n 96095: u64 [sp + 0xd0] = a4\n 96099: a4 = u64 [sp]\n 96101: u64 [sp + 0xc8] = a4\n 96105: a4 = u64 [sp + 0x38]\n 96108: u64 [sp + 0xc0] = a4\n 96112: u64 [sp + 0xf8] = a3\n 96116: u64 [sp + 0xf0] = a1\n 96120: u64 [sp + 0xe8] = a0\n 96124: u64 [sp + 0xe0] = a2\n 96128: i32 a1 = sp + 0xc0\n 96132: i32 a3 = sp + 0xe0\n 96136: a2 = 0xffffffffffffffff\n 96139: a4 = 0x20\n 96142: a0 = 0\n 96144: ecalli 16 // 'set_storage'\n 96146: fallthrough\n      : @1269 (gas: 3)\n 96147: s1 = 0x20070\n 96152: a0 = i32 [0x20070]\n 96157: jump @1272 if a0 == 0\n      : @1270 (gas: 6)\n 96160: u64 [sp + 0x38] = a0\n 96163: a0 = 0x30080\n 96168: i32 a0 = a0 + 0\n 96170: i32 a1 = s1 + 0\n 96172: ecalli 7 // 'get_immutable_data'\n 96174: fallthrough\n      : @1271 (gas: 4)\n 96175: a0 = i32 [0x20070]\n 96180: u32 [0x20070] = 0\n 96185: a1 = u64 [sp + 0x38]\n 96188: jump @1279 if a0 <u a1\n      : @1272 (gas: 49)\n 96192: a1 = u64 [0x300c0]\n 96197: u64 [sp + 0x38] = a1\n 96200: a1 = u64 [0x300c8]\n 96205: u64 [sp + 0x30] = a1\n 96208: s1 = u32 [0x300d0]\n 96213: a0 = u64 [sp + 0x8]\n 96216: a0 = a0 + 0x1\n 96219: a1 = a0 <u 0x1\n 96222: a2 = u64 [sp + 0x10]\n 96225: a1 = a1 + a2\n 96228: a2 = a0 | a1\n 96231: a2 = a2 <u 0x1\n 96234: a3 = u64 [sp + 0x18]\n 96237: a2 = a2 + a3\n 96240: a3 = a2 <u a3\n 96243: a4 = u64 [sp + 0x20]\n 96246: a3 = a3 + a4\n 96249: u64 [sp + 0xc8] = a1\n 96253: u64 [sp + 0xc0] = a0\n 96257: u64 [sp + 0xd0] = a2\n 96261: u64 [sp + 0xd8] = a3\n 96265: u64 [sp + 248] = 0\n 96269: u64 [sp + 240] = 0\n 96273: u64 [sp + 232] = 0\n 96277: u64 [sp + 224] = 0\n 96281: u32 [sp + 256] = 0x20\n 96286: i32 a1 = sp + 0xc0\n 96290: i32 a3 = sp + 0xe0\n 96294: i32 a4 = sp + 0x100\n 96298: a2 = 0xffffffffffffffff\n 96301: a0 = 0\n 96303: ecalli 8 // 'get_storage'\n 96305: a0 = u64 [sp + 0xe0]\n 96309: a1 = u64 [sp + 0xe8]\n 96313: a2 = u64 [sp + 0xf0]\n 96317: a3 = u64 [sp + 0xf8]\n 96321: u64 [sp + 0x98] = a3\n 96325: u64 [sp + 0x90] = a2\n 96329: u64 [sp + 0x88] = a1\n 96333: u64 [sp + 0x80] = a0\n 96337: u64 [sp + 184] = 0\n 96341: u64 [sp + 0xb0] = s1\n 96345: a0 = u64 [sp + 0x30]\n 96348: u64 [sp + 0xa8] = a0\n 96352: a0 = sp + 0xa0\n 96356: a1 = sp + 0x80\n 96360: a2 = u64 [sp + 0x38]\n 96363: u64 [sp + 0xa0] = a2\n 96367: ra = 1110, jump @1463\n      : @1273 [@dyn 555] (gas: 6)\n 96373: sp = s0 + 0xfffffffffffffee0\n 96377: ra = u64 [sp + 0x118]\n 96381: s0 = u64 [sp + 0x110]\n 96385: s1 = u64 [sp + 0x108]\n 96389: sp = sp + 0x120\n 96393: ret\n      : @1274 (gas: 3)\n 96395: a0 = 0x40\n 96398: a1 = 0x20\n 96401: ra = 1112, jump @0\n      : @1275 [@dyn 556] (gas: 103)\n 96408: a1 = u8 [a0 + 0x11]\n 96411: a2 = u8 [a0 + 0x10]\n 96414: a3 = u8 [a0 + 0x12]\n 96417: a4 = u8 [a0 + 0x13]\n 96420: a1 = a1 << 0x8\n 96423: a1 = a1 | a2\n 96426: a3 = a3 << 0x10\n 96429: a4 = a4 << 0x18\n 96432: a3 = a3 | a4\n 96435: a1 = a1 | a3\n 96438: a2 = u8 [a0 + 0x15]\n 96441: a3 = u8 [a0 + 0x14]\n 96444: a4 = u8 [a0 + 0x16]\n 96447: a5 = u8 [a0 + 0x17]\n 96450: a2 = a2 << 0x8\n 96453: a2 = a2 | a3\n 96456: a4 = a4 << 0x10\n 96459: a5 = a5 << 0x18\n 96462: a4 = a4 | a5\n 96465: a2 = a2 | a4\n 96468: a2 = a2 << 0x20\n 96471: t0 = a2 | a1\n 96474: a2 = u8 [a0 + 0x1]\n 96477: a3 = u8 [a0]\n 96479: a4 = u8 [a0 + 0x2]\n 96482: a5 = u8 [a0 + 0x3]\n 96485: a2 = a2 << 0x8\n 96488: a2 = a2 | a3\n 96491: a4 = a4 << 0x10\n 96494: a5 = a5 << 0x18\n 96497: a4 = a4 | a5\n 96500: a2 = a2 | a4\n 96503: a3 = u8 [a0 + 0x5]\n 96506: a4 = u8 [a0 + 0x4]\n 96509: a5 = u8 [a0 + 0x6]\n 96512: s1 = u8 [a0 + 0x7]\n 96515: a3 = a3 << 0x8\n 96518: a3 = a3 | a4\n 96521: a5 = a5 << 0x10\n 96524: s1 = s1 << 0x18\n 96527: a5 = a5 | s1\n 96530: a3 = a3 | a5\n 96533: a3 = a3 << 0x20\n 96536: a2 = a2 | a3\n 96539: a3 = u8 [a0 + 0x19]\n 96542: a4 = u8 [a0 + 0x18]\n 96545: a5 = u8 [a0 + 0x1a]\n 96548: s1 = u8 [a0 + 0x1b]\n 96551: a3 = a3 << 0x8\n 96554: a3 = a3 | a4\n 96557: a5 = a5 << 0x10\n 96560: s1 = s1 << 0x18\n 96563: a5 = a5 | s1\n 96566: a3 = a3 | a5\n 96569: a4 = u8 [a0 + 0x1d]\n 96572: a5 = u8 [a0 + 0x1c]\n 96575: s1 = u8 [a0 + 0x1e]\n 96578: a1 = u8 [a0 + 0x1f]\n 96581: a4 = a4 << 0x8\n 96584: a4 = a4 | a5\n 96587: s1 = s1 << 0x10\n 96590: a1 = a1 << 0x18\n 96593: a1 = a1 | s1\n 96596: a1 = a1 | a4\n 96599: a1 = a1 << 0x20\n 96602: a3 = a3 | a1\n 96605: a1 = u8 [a0 + 0x9]\n 96608: a4 = u8 [a0 + 0x8]\n 96611: a5 = u8 [a0 + 0xa]\n 96614: s1 = u8 [a0 + 0xb]\n 96617: a1 = a1 << 0x8\n 96620: a1 = a1 | a4\n 96623: a5 = a5 << 0x10\n 96626: s1 = s1 << 0x18\n 96629: a5 = a5 | s1\n 96632: a1 = a1 | a5\n 96635: a4 = u8 [a0 + 0xd]\n 96638: a5 = u8 [a0 + 0xc]\n 96641: s1 = u8 [a0 + 0xe]\n 96644: a0 = u8 [a0 + 0xf]\n 96647: a4 = a4 << 0x8\n 96650: a4 = a4 | a5\n 96653: s1 = s1 << 0x10\n 96656: a0 = a0 << 0x18\n 96659: a0 = a0 | s1\n 96662: a0 = a0 | a4\n 96665: a0 = a0 << 0x20\n 96668: a0 = a0 | a1\n 96671: s1 = reverse a0\n 96673: a1 = reverse a3\n 96675: a2 = reverse a2\n 96677: a0 = reverse t0\n 96679: u64 [sp + 0x38] = a0\n 96682: u64 [sp + 0x30] = a2\n 96685: a0 = a0 | a2\n 96688: a2 = a1\n 96690: a1 = a1 | s1\n 96693: a1 = a1 | a0\n 96696: a1 = a1 >> 0x20\n 96699: a0 = a0 | s1\n 96702: a0 = a0 << 0x20\n 96705: a0 = a0 | a1\n 96708: jump @1279 if a0 != 0\n      : @1276 (gas: 5)\n 96712: u64 [sp + 0x28] = a2\n 96715: i32 a0 = a2 + 0\n 96717: a1 = 0x20\n 96720: u64 [sp + 0x20] = a0\n 96723: ra = 1114, jump @0\n      : @1277 [@dyn 557] (gas: 50)\n 96730: u8 [a0 + 31] = 0\n 96733: u8 [a0 + 30] = 0\n 96736: u8 [a0 + 29] = 0\n 96739: u8 [a0 + 28] = 0\n 96742: u8 [a0 + 27] = 0\n 96745: u8 [a0 + 26] = 0\n 96748: u8 [a0 + 25] = 0\n 96751: u8 [a0 + 24] = 0\n 96754: u8 [a0 + 23] = 0\n 96757: u8 [a0 + 22] = 0\n 96760: u8 [a0 + 21] = 0\n 96763: u8 [a0 + 20] = 0\n 96766: u8 [a0 + 19] = 0\n 96769: u8 [a0 + 18] = 0\n 96772: u8 [a0 + 17] = 0\n 96775: u8 [a0 + 16] = 0\n 96778: u8 [a0 + 15] = 0\n 96781: u8 [a0 + 14] = 0\n 96784: u8 [a0 + 13] = 0\n 96787: u8 [a0 + 12] = 0\n 96790: u8 [a0 + 11] = 0\n 96793: u8 [a0 + 10] = 0\n 96796: u8 [a0 + 9] = 0\n 96799: u8 [a0 + 8] = 0\n 96802: u8 [a0 + 7] = 0\n 96805: u8 [a0 + 6] = 0\n 96808: u8 [a0 + 5] = 0\n 96811: u8 [a0 + 4] = 0\n 96814: u8 [a0 + 3] = 0xa0\n 96819: u8 [a0 + 2] = 0x79\n 96823: u8 [a0 + 1] = 0xc3\n 96828: u8 [a0 + 0] = 0x8\n 96831: a1 = u64 [sp + 0x28]\n 96834: a0 = a1 + 0x4\n 96837: a1 = a0 <u a1\n 96840: a3 = u64 [sp + 0x38]\n 96843: a2 = a3 + a1\n 96846: a3 = a2 <u a3\n 96849: a3 = a1 if a1 == 0\n 96852: a3 = a3 + s1\n 96855: a1 = a3 <u s1\n 96858: a4 = u64 [sp + 0x30]\n 96861: a4 = a4 + a1\n 96864: u64 [sp + 0x48] = a2\n 96867: u64 [sp + 0x40] = a0\n 96870: u64 [sp + 0x50] = a3\n 96873: a0 = sp + 0x60\n 96876: a1 = sp + 0x40\n 96879: u64 [sp + 0x58] = a4\n 96882: ra = 1116, jump @1159\n      : @1278 [@dyn 558] (gas: 30)\n 96888: a0 = u64 [sp + 0x68]\n 96891: t0 = u64 [sp + 0x78]\n 96894: t1 = u64 [sp + 0x60]\n 96897: a3 = u64 [sp + 0x70]\n 96900: a1 = u64 [sp + 0x38]\n 96903: a4 = a0 ^ a1\n 96906: a5 = a0 <u a1\n 96909: t2 = a1\n 96911: a2 = u64 [sp + 0x28]\n 96914: a1 = t1 <u a2\n 96917: a5 = a1 if a4 == 0\n 96920: a4 = a3 - s1\n 96923: a3 = a3 <u s1\n 96926: s1 = u64 [sp + 0x30]\n 96929: s1 = t0 - s1\n 96932: s1 = s1 - a3\n 96935: a3 = a4 <u a5\n 96938: s1 = s1 - a3\n 96941: a4 = a4 - a5\n 96944: a0 = a0 - t2\n 96947: a1 = a0 - a1\n 96950: a0 = t1 - a2\n 96953: a1 = a1 | s1\n 96956: a2 = a0 | a4\n 96959: a2 = a2 | a1\n 96962: a1 = a1 | a4\n 96965: a2 = a2 >> 0x20\n 96968: a1 = a1 << 0x20\n 96971: a1 = a1 | a2\n 96974: jump @1280 if a1 == 0\n      : @1279 (gas: 1)\n 96977: trap\n      : @1280 (gas: 4)\n 96978: i32 s1 = a0 + 0\n 96980: a0 = u64 [sp + 0x20]\n 96983: a1 = s1\n 96985: ra = 1118, jump @0\n      : @1281 [@dyn 559] (gas: 6)\n 96992: i32 a1 = a0 + 0\n 96994: a0 = 0x1\n 96997: a2 = s1\n 96999: ra = 0x460\n 97003: ecalli 14 // 'seal_return'\n 97005: fallthrough\n      : @1282 [@dyn 560] (gas: 15)\n 97006: sp = sp + 0xffffffffffffffd0\n 97009: u64 [sp + 0x28] = ra\n 97012: u64 [sp + 0x20] = s0\n 97015: s0 = sp + 0x30\n 97018: sp = sp & 0xfffffffffffffff0\n 97021: a1 = u64 [a0]\n 97023: a2 = u64 [a0 + 0x8]\n 97026: a3 = u64 [a0 + 0x10]\n 97029: a0 = u64 [a0 + 0x18]\n 97032: u64 [sp + 0x18] = a0\n 97035: u64 [sp + 0x10] = a3\n 97038: u64 [sp + 0x8] = a2\n 97041: a0 = sp\n 97043: u64 [sp] = a1\n 97045: ra = 1122, jump @1232\n      : @1283 [@dyn 561] (gas: 5)\n 97051: sp = s0 + 0xffffffffffffffd0\n 97054: ra = u64 [sp + 0x28]\n 97057: s0 = u64 [sp + 0x20]\n 97060: sp = sp + 0x30\n 97063: ret\n      : @1284 (gas: 25)\n 97065: sp = sp + 0xfffffffffffffee0\n 97069: u64 [sp + 0x118] = ra\n 97073: u64 [sp + 0x110] = s0\n 97077: u64 [sp + 0x108] = s1\n 97081: s0 = sp + 0x120\n 97085: sp = sp & 0xffffffffffffffe0\n 97088: a2 = u64 [a1 + 0x18]\n 97091: u64 [sp + 0x50] = a2\n 97094: a2 = u64 [a1 + 0x10]\n 97097: u64 [sp + 0x48] = a2\n 97100: a2 = u64 [a1 + 0x8]\n 97103: u64 [sp + 0x38] = a2\n 97106: a1 = u64 [a1]\n 97108: u64 [sp + 0x28] = a1\n 97111: a1 = u64 [a0 + 0x18]\n 97114: u64 [sp + 0x58] = a1\n 97117: a1 = u64 [a0 + 0x10]\n 97120: u64 [sp + 0x40] = a1\n 97123: a1 = u64 [a0 + 0x8]\n 97126: u64 [sp + 0x30] = a1\n 97129: a0 = u64 [a0]\n 97131: u64 [sp + 0x20] = a0\n 97134: i32 a0 = sp + 0xe0\n 97138: ecalli 5 // 'caller'\n 97140: fallthrough\n      : @1285 (gas: 6)\n 97141: s1 = 0x20070\n 97146: a4 = i32 [sp + 0xf0]\n 97150: a2 = u64 [sp + 0xe0]\n 97154: a0 = i32 [0x20070]\n 97159: a1 = u64 [sp + 0xe8]\n 97163: jump @1288 if a0 == 0\n      : @1286 (gas: 9)\n 97166: u64 [sp] = a0\n 97168: a0 = 0x30080\n 97173: i32 a0 = a0 + 0\n 97175: u64 [sp + 0x8] = a1\n 97178: i32 a1 = s1 + 0\n 97180: u64 [sp + 0x18] = a4\n 97183: u64 [sp + 0x10] = a2\n 97186: ecalli 7 // 'get_immutable_data'\n 97188: fallthrough\n      : @1287 (gas: 7)\n 97189: a1 = u64 [sp + 0x8]\n 97192: a2 = u64 [sp + 0x10]\n 97195: a4 = u64 [sp + 0x18]\n 97198: a0 = i32 [0x20070]\n 97203: u32 [0x20070] = 0\n 97208: a3 = u64 [sp]\n 97210: jump @1296 if a0 <u a3\n      : @1288 (gas: 19)\n 97214: a0 = reverse a1\n 97216: a1 = a0 >> 0x20\n 97219: a2 = reverse a2\n 97221: a3 = a2 << 0x20\n 97224: a1 = a1 | a3\n 97227: a0 = a0 << 0x20\n 97230: a4 = reverse a4\n 97232: a4 = a4 >> 0x20\n 97235: a0 = a0 | a4\n 97238: a4 = u64 [0x300c0]\n 97243: a5 = u32 [0x300d0]\n 97248: a2 = a2 >> 0x20\n 97251: a3 = u64 [0x300c8]\n 97256: a0 = a0 ^ a4\n 97259: a2 = a2 ^ a5\n 97262: a0 = a0 | a2\n 97265: a1 = a1 ^ a3\n 97268: a0 = a0 | a1\n 97271: jump @1291 if a0 != 0\n      : @1289 (gas: 19)\n 97274: a0 = u64 [sp + 0x28]\n 97277: u64 [sp + 0x60] = a0\n 97280: a0 = u64 [sp + 0x20]\n 97283: u64 [sp + 0x80] = a0\n 97287: a0 = u64 [sp + 0x38]\n 97290: u64 [sp + 0x68] = a0\n 97293: a0 = u64 [sp + 0x30]\n 97296: u64 [sp + 0x88] = a0\n 97300: a0 = u64 [sp + 0x48]\n 97303: u64 [sp + 0x70] = a0\n 97306: a0 = u64 [sp + 0x40]\n 97309: u64 [sp + 0x90] = a0\n 97313: a0 = u64 [sp + 0x50]\n 97316: u64 [sp + 0x78] = a0\n 97319: a0 = sp + 0x80\n 97323: a1 = sp + 0x60\n 97326: a2 = u64 [sp + 0x58]\n 97329: u64 [sp + 0x98] = a2\n 97333: ra = 1124, jump @1334\n      : @1290 [@dyn 562] (gas: 6)\n 97339: sp = s0 + 0xfffffffffffffee0\n 97343: ra = u64 [sp + 0x118]\n 97347: s0 = u64 [sp + 0x110]\n 97351: s1 = u64 [sp + 0x108]\n 97355: sp = sp + 0x120\n 97359: ret\n      : @1291 (gas: 3)\n 97361: a0 = 0x40\n 97364: a1 = 0x20\n 97367: ra = 1126, jump @0\n      : @1292 [@dyn 563] (gas: 103)\n 97374: a1 = u8 [a0 + 0x11]\n 97377: a2 = u8 [a0 + 0x10]\n 97380: a3 = u8 [a0 + 0x12]\n 97383: a4 = u8 [a0 + 0x13]\n 97386: a1 = a1 << 0x8\n 97389: a1 = a1 | a2\n 97392: a3 = a3 << 0x10\n 97395: a4 = a4 << 0x18\n 97398: a3 = a3 | a4\n 97401: a1 = a1 | a3\n 97404: a2 = u8 [a0 + 0x15]\n 97407: a3 = u8 [a0 + 0x14]\n 97410: a4 = u8 [a0 + 0x16]\n 97413: a5 = u8 [a0 + 0x17]\n 97416: a2 = a2 << 0x8\n 97419: a2 = a2 | a3\n 97422: a4 = a4 << 0x10\n 97425: a5 = a5 << 0x18\n 97428: a4 = a4 | a5\n 97431: a2 = a2 | a4\n 97434: a2 = a2 << 0x20\n 97437: t0 = a2 | a1\n 97440: a2 = u8 [a0 + 0x1]\n 97443: a3 = u8 [a0]\n 97445: a4 = u8 [a0 + 0x2]\n 97448: a5 = u8 [a0 + 0x3]\n 97451: a2 = a2 << 0x8\n 97454: a2 = a2 | a3\n 97457: a4 = a4 << 0x10\n 97460: a5 = a5 << 0x18\n 97463: a4 = a4 | a5\n 97466: a2 = a2 | a4\n 97469: a3 = u8 [a0 + 0x5]\n 97472: a4 = u8 [a0 + 0x4]\n 97475: a5 = u8 [a0 + 0x6]\n 97478: s1 = u8 [a0 + 0x7]\n 97481: a3 = a3 << 0x8\n 97484: a3 = a3 | a4\n 97487: a5 = a5 << 0x10\n 97490: s1 = s1 << 0x18\n 97493: a5 = a5 | s1\n 97496: a3 = a3 | a5\n 97499: a3 = a3 << 0x20\n 97502: a2 = a2 | a3\n 97505: a3 = u8 [a0 + 0x19]\n 97508: a4 = u8 [a0 + 0x18]\n 97511: a5 = u8 [a0 + 0x1a]\n 97514: s1 = u8 [a0 + 0x1b]\n 97517: a3 = a3 << 0x8\n 97520: a3 = a3 | a4\n 97523: a5 = a5 << 0x10\n 97526: s1 = s1 << 0x18\n 97529: a5 = a5 | s1\n 97532: a3 = a3 | a5\n 97535: a4 = u8 [a0 + 0x1d]\n 97538: a5 = u8 [a0 + 0x1c]\n 97541: s1 = u8 [a0 + 0x1e]\n 97544: a1 = u8 [a0 + 0x1f]\n 97547: a4 = a4 << 0x8\n 97550: a4 = a4 | a5\n 97553: s1 = s1 << 0x10\n 97556: a1 = a1 << 0x18\n 97559: a1 = a1 | s1\n 97562: a1 = a1 | a4\n 97565: a1 = a1 << 0x20\n 97568: a3 = a3 | a1\n 97571: a1 = u8 [a0 + 0x9]\n 97574: a4 = u8 [a0 + 0x8]\n 97577: a5 = u8 [a0 + 0xa]\n 97580: s1 = u8 [a0 + 0xb]\n 97583: a1 = a1 << 0x8\n 97586: a1 = a1 | a4\n 97589: a5 = a5 << 0x10\n 97592: s1 = s1 << 0x18\n 97595: a5 = a5 | s1\n 97598: a1 = a1 | a5\n 97601: a4 = u8 [a0 + 0xd]\n 97604: a5 = u8 [a0 + 0xc]\n 97607: s1 = u8 [a0 + 0xe]\n 97610: a0 = u8 [a0 + 0xf]\n 97613: a4 = a4 << 0x8\n 97616: a4 = a4 | a5\n 97619: s1 = s1 << 0x10\n 97622: a0 = a0 << 0x18\n 97625: a0 = a0 | s1\n 97628: a0 = a0 | a4\n 97631: a0 = a0 << 0x20\n 97634: a0 = a0 | a1\n 97637: s1 = reverse a0\n 97639: a1 = reverse a3\n 97641: a2 = reverse a2\n 97643: a0 = reverse t0\n 97645: u64 [sp + 0x58] = a0\n 97648: u64 [sp + 0x50] = a2\n 97651: a0 = a0 | a2\n 97654: a2 = a1\n 97656: a1 = a1 | s1\n 97659: a1 = a1 | a0\n 97662: a1 = a1 >> 0x20\n 97665: a0 = a0 | s1\n 97668: a0 = a0 << 0x20\n 97671: a0 = a0 | a1\n 97674: jump @1296 if a0 != 0\n      : @1293 (gas: 5)\n 97678: u64 [sp + 0x48] = a2\n 97681: i32 a0 = a2 + 0\n 97683: a1 = 0x20\n 97686: u64 [sp + 0x40] = a0\n 97689: ra = 1128, jump @0\n      : @1294 [@dyn 564] (gas: 50)\n 97696: u8 [a0 + 31] = 0\n 97699: u8 [a0 + 30] = 0\n 97702: u8 [a0 + 29] = 0\n 97705: u8 [a0 + 28] = 0\n 97708: u8 [a0 + 27] = 0\n 97711: u8 [a0 + 26] = 0\n 97714: u8 [a0 + 25] = 0\n 97717: u8 [a0 + 24] = 0\n 97720: u8 [a0 + 23] = 0\n 97723: u8 [a0 + 22] = 0\n 97726: u8 [a0 + 21] = 0\n 97729: u8 [a0 + 20] = 0\n 97732: u8 [a0 + 19] = 0\n 97735: u8 [a0 + 18] = 0\n 97738: u8 [a0 + 17] = 0\n 97741: u8 [a0 + 16] = 0\n 97744: u8 [a0 + 15] = 0\n 97747: u8 [a0 + 14] = 0\n 97750: u8 [a0 + 13] = 0\n 97753: u8 [a0 + 12] = 0\n 97756: u8 [a0 + 11] = 0\n 97759: u8 [a0 + 10] = 0\n 97762: u8 [a0 + 9] = 0\n 97765: u8 [a0 + 8] = 0\n 97768: u8 [a0 + 7] = 0\n 97771: u8 [a0 + 6] = 0\n 97774: u8 [a0 + 5] = 0\n 97777: u8 [a0 + 4] = 0\n 97780: u8 [a0 + 3] = 0xa0\n 97785: u8 [a0 + 2] = 0x79\n 97789: u8 [a0 + 1] = 0xc3\n 97794: u8 [a0 + 0] = 0x8\n 97797: a1 = u64 [sp + 0x48]\n 97800: a0 = a1 + 0x4\n 97803: a1 = a0 <u a1\n 97806: a3 = u64 [sp + 0x58]\n 97809: a2 = a3 + a1\n 97812: a3 = a2 <u a3\n 97815: a3 = a1 if a1 == 0\n 97818: a3 = a3 + s1\n 97821: a1 = a3 <u s1\n 97824: a4 = u64 [sp + 0x50]\n 97827: a4 = a4 + a1\n 97830: u64 [sp + 0xa8] = a2\n 97834: u64 [sp + 0xa0] = a0\n 97838: u64 [sp + 0xb0] = a3\n 97842: a0 = sp + 0xc0\n 97846: a1 = sp + 0xa0\n 97850: u64 [sp + 0xb8] = a4\n 97854: ra = 1130, jump @743\n      : @1295 [@dyn 565] (gas: 30)\n 97861: a0 = u64 [sp + 0xc8]\n 97865: t0 = u64 [sp + 0xd8]\n 97869: t1 = u64 [sp + 0xc0]\n 97873: a3 = u64 [sp + 0xd0]\n 97877: a1 = u64 [sp + 0x58]\n 97880: a4 = a0 ^ a1\n 97883: a5 = a0 <u a1\n 97886: t2 = a1\n 97888: a2 = u64 [sp + 0x48]\n 97891: a1 = t1 <u a2\n 97894: a5 = a1 if a4 == 0\n 97897: a4 = a3 - s1\n 97900: a3 = a3 <u s1\n 97903: s1 = u64 [sp + 0x50]\n 97906: s1 = t0 - s1\n 97909: s1 = s1 - a3\n 97912: a3 = a4 <u a5\n 97915: s1 = s1 - a3\n 97918: a4 = a4 - a5\n 97921: a0 = a0 - t2\n 97924: a1 = a0 - a1\n 97927: a0 = t1 - a2\n 97930: a1 = a1 | s1\n 97933: a2 = a0 | a4\n 97936: a2 = a2 | a1\n 97939: a1 = a1 | a4\n 97942: a2 = a2 >> 0x20\n 97945: a1 = a1 << 0x20\n 97948: a1 = a1 | a2\n 97951: jump @1297 if a1 == 0\n      : @1296 (gas: 1)\n 97954: trap\n      : @1297 (gas: 4)\n 97955: i32 s1 = a0 + 0\n 97957: a0 = u64 [sp + 0x40]\n 97960: a1 = s1\n 97962: ra = 1132, jump @0\n      : @1298 [@dyn 566] (gas: 6)\n 97969: i32 a1 = a0 + 0\n 97971: a0 = 0x1\n 97974: a2 = s1\n 97976: ra = 0x46e\n 97980: ecalli 14 // 'seal_return'\n 97982: fallthrough\n      : @1299 [@dyn 567] (gas: 17)\n 97983: t0 = u64 [a1]\n 97985: t1 = u64 [a1 + 0x8]\n 97988: t2 = u64 [a1 + 0x10]\n 97991: a1 = u64 [a1 + 0x18]\n 97994: a3 = u64 [a2 + 0x18]\n 97997: a4 = u64 [a2 + 0x10]\n 98000: a5 = u64 [a2 + 0x8]\n 98003: a2 = u64 [a2]\n 98005: u64 [a0 + 0x38] = a3\n 98008: u64 [a0 + 0x30] = a4\n 98011: u64 [a0 + 0x28] = a5\n 98014: u64 [a0 + 0x20] = a2\n 98017: u64 [a0 + 0x18] = a1\n 98020: u64 [a0 + 0x10] = t2\n 98023: u64 [a0 + 0x8] = t1\n 98026: u64 [a0] = t0\n 98028: ret\n      : @1300 (gas: 17)\n 98030: sp = sp + 0xfffffffffffffd00\n 98034: u64 [sp + 0x2f8] = ra\n 98038: u64 [sp + 0x2f0] = s0\n 98042: u64 [sp + 0x2e8] = s1\n 98046: s0 = sp + 0x300\n 98050: sp = sp & 0xffffffffffffffe0\n 98053: a5 = u64 [a2 + 0x18]\n 98056: a3 = u64 [a2 + 0x10]\n 98059: a4 = u64 [a2 + 0x8]\n 98062: u64 [sp + 0x48] = a3\n 98065: u64 [sp + 0x18] = a5\n 98068: a5 = a5 | a3\n 98071: u64 [sp + 0x40] = a4\n 98074: a3 = a4 <u 0x1\n 98077: u64 [sp + 0xb8] = a5\n 98081: a3 = 0 if a5 != 0\n 98083: jump @1326 if a3 == 0\n      : @1301 (gas: 34)\n 98087: a2 = u64 [a2]\n 98089: u64 [sp + 0x50] = a2\n 98092: a2 = u64 [a1 + 0x18]\n 98095: u64 [sp + 0x78] = a2\n 98098: a2 = u64 [a1 + 0x10]\n 98101: u64 [sp + 0x70] = a2\n 98104: a2 = u64 [a1 + 0x8]\n 98107: u64 [sp + 0x60] = a2\n 98110: a1 = u64 [a1]\n 98112: u64 [sp + 0x68] = a1\n 98115: a3 = u64 [a0 + 0x10]\n 98118: a1 = u64 [a0 + 0x8]\n 98121: a2 = u64 [a0]\n 98123: a0 = u64 [a0 + 0x18]\n 98126: u64 [sp + 0x38] = a3\n 98129: u64 [sp + 0x2b0] = a3\n 98133: u64 [sp + 0x20] = a1\n 98136: u64 [sp + 0x2a8] = a1\n 98140: u64 [sp + 0x28] = a2\n 98143: u64 [sp + 0x2a0] = a2\n 98147: u64 [sp + 0x30] = a0\n 98150: u64 [sp + 0x2b8] = a0\n 98154: u64 [sp + 728] = 0\n 98158: u64 [sp + 720] = 0\n 98162: u64 [sp + 712] = 0\n 98166: u64 [sp + 704] = 0\n 98170: u32 [sp + 640] = 0x20\n 98175: i32 a1 = sp + 0x2a0\n 98179: i32 a3 = sp + 0x2c0\n 98183: i32 a4 = sp + 0x280\n 98187: a2 = 0xffffffffffffffff\n 98190: a0 = 0\n 98192: ecalli 8 // 'get_storage'\n 98194: fallthrough\n      : @1302 (gas: 27)\n 98195: a0 = u64 [sp + 0x2d0]\n 98199: a1 = u64 [sp + 0x2c8]\n 98203: a2 = u64 [sp + 0x2c0]\n 98207: a3 = u64 [sp + 0x2d8]\n 98211: a4 = a0 << 0x3f\n 98214: a5 = a1 >> 0x1\n 98217: a4 = a4 | a5\n 98220: a5 = a3 << 0x3f\n 98223: a0 = a0 >> 0x1\n 98226: s1 = a0 | a5\n 98229: a1 = a1 << 0x3f\n 98232: a5 = a2 >> 0x1\n 98235: a1 = a1 | a5\n 98238: t1 = a3 >> 0x1\n 98241: a2 = a2 & 0x1\n 98244: a0 = -a2\n 98246: t0 = a2 <u 0x1\n 98249: a3 = a1 & 0x7f\n 98252: a5 = a0 & s1\n 98255: a4 = a4 & a0\n 98258: a3 = a1 if a2 != 0\n 98261: a1 = a0 & t1\n 98264: a0 = a3 <u 0x20\n 98267: a0 = 0 if a4 != 0\n 98269: a2 = a5 | a1\n 98272: a0 = 0 if a2 != 0\n 98274: jump @1328 if t0 != a0\n      : @1303 (gas: 24)\n 98278: a0 = u64 [sp + 0x50]\n 98281: u64 [sp + 0x1c0] = a0\n 98285: u64 [sp + 0x1e0] = a3\n 98289: a0 = u64 [sp + 0x28]\n 98292: u64 [sp + 0x200] = a0\n 98296: a0 = u64 [sp + 0x40]\n 98299: u64 [sp + 0x1c8] = a0\n 98303: u64 [sp + 0x1e8] = a4\n 98307: a0 = u64 [sp + 0x20]\n 98310: u64 [sp + 0x208] = a0\n 98314: a0 = u64 [sp + 0x48]\n 98317: u64 [sp + 0x1d0] = a0\n 98321: u64 [sp + 0x1f0] = a5\n 98325: a0 = u64 [sp + 0x38]\n 98328: u64 [sp + 0x210] = a0\n 98332: s1 = u64 [sp + 0x18]\n 98335: u64 [sp + 0x1d8] = s1\n 98339: u64 [sp + 0x1f8] = a1\n 98343: a0 = sp + 0x200\n 98347: a1 = sp + 0x1e0\n 98351: a2 = sp + 0x1c0\n 98355: a3 = u64 [sp + 0x30]\n 98358: u64 [sp + 0x218] = a3\n 98362: ra = 1136, jump @237\n      : @1304 [@dyn 568] (gas: 16)\n 98369: a5 = u64 [sp + 0x48]\n 98372: a3 = u64 [sp + 0x40]\n 98375: a4 = s1\n 98377: a0 = a3 >u 0\n 98379: s1 = u64 [sp + 0x50]\n 98382: a1 = s1 <u 0x20\n 98385: a1 = a1 ^ 0x1\n 98388: a1 = a0 if a3 != 0\n 98391: a0 = a5 >u 0\n 98393: a2 = a4 >u 0\n 98395: a2 = a0 if a4 == 0\n 98398: a0 = u64 [sp + 0xb8]\n 98402: a2 = a1 if a0 == 0\n 98405: t0 = u64 [sp + 0x38]\n 98408: a0 = s1\n 98410: jump @1314 if a2 == 0\n      : @1305 (gas: 6)\n 98414: a0 = a0 & 0xffffffffffffffe0\n 98417: u64 [sp + 0x58] = a0\n 98420: a1 = 0x20\n 98423: a0 = 0\n 98425: s1 = t0\n 98427: ra = 1138, jump @0\n      : @1306 [@dyn 569] (gas: 70)\n 98434: a1 = u64 [sp + 0x30]\n 98437: a1 = reverse a1\n 98439: a2 = reverse s1\n 98441: a3 = u64 [sp + 0x20]\n 98444: a3 = reverse a3\n 98446: a4 = u64 [sp + 0x28]\n 98449: a4 = reverse a4\n 98451: a5 = a4 >> 0x38\n 98454: u8 [a0 + 0x1f] = a5\n 98457: a5 = a4 >> 0x30\n 98460: u8 [a0 + 0x1e] = a5\n 98463: a5 = a4 >> 0x28\n 98466: u8 [a0 + 0x1d] = a5\n 98469: a5 = a4 >> 0x20\n 98472: u8 [a0 + 0x1c] = a5\n 98475: a5 = a4 >> 0x18\n 98478: u8 [a0 + 0x1b] = a5\n 98481: a5 = a4 >> 0x10\n 98484: u8 [a0 + 0x1a] = a5\n 98487: a5 = a4 >> 0x8\n 98490: u8 [a0 + 0x19] = a5\n 98493: u8 [a0 + 0x18] = a4\n 98496: u8 [a0 + 0x10] = a3\n 98499: a4 = a3 >> 0x38\n 98502: u8 [a0 + 0x17] = a4\n 98505: a4 = a3 >> 0x30\n 98508: u8 [a0 + 0x16] = a4\n 98511: a4 = a3 >> 0x28\n 98514: u8 [a0 + 0x15] = a4\n 98517: a4 = a3 >> 0x20\n 98520: u8 [a0 + 0x14] = a4\n 98523: a4 = a3 >> 0x18\n 98526: u8 [a0 + 0x13] = a4\n 98529: a4 = a3 >> 0x10\n 98532: u8 [a0 + 0x12] = a4\n 98535: a3 = a3 >> 0x8\n 98538: u8 [a0 + 0x11] = a3\n 98541: u8 [a0 + 0x8] = a2\n 98544: a3 = a2 >> 0x38\n 98547: u8 [a0 + 0xf] = a3\n 98550: a3 = a2 >> 0x30\n 98553: u8 [a0 + 0xe] = a3\n 98556: a3 = a2 >> 0x28\n 98559: u8 [a0 + 0xd] = a3\n 98562: a3 = a2 >> 0x20\n 98565: u8 [a0 + 0xc] = a3\n 98568: a3 = a2 >> 0x18\n 98571: u8 [a0 + 0xb] = a3\n 98574: a3 = a2 >> 0x10\n 98577: u8 [a0 + 0xa] = a3\n 98580: a2 = a2 >> 0x8\n 98583: u8 [a0 + 0x9] = a2\n 98586: u8 [a0] = a1\n 98588: a2 = a1 >> 0x38\n 98591: u8 [a0 + 0x7] = a2\n 98594: a2 = a1 >> 0x30\n 98597: u8 [a0 + 0x6] = a2\n 98600: a2 = a1 >> 0x28\n 98603: u8 [a0 + 0x5] = a2\n 98606: a2 = a1 >> 0x20\n 98609: u8 [a0 + 0x4] = a2\n 98612: a2 = a1 >> 0x18\n 98615: u8 [a0 + 0x3] = a2\n 98618: a2 = a1 >> 0x10\n 98621: u8 [a0 + 0x2] = a2\n 98624: a1 = a1 >> 0x8\n 98627: u8 [a0 + 0x1] = a1\n 98630: a1 = 0x20\n 98633: a0 = 0\n 98635: ra = 1140, jump @0\n      : @1307 [@dyn 570] (gas: 5)\n 98642: i32 a0 = a0 + 0\n 98644: i32 a2 = sp + 0x2c0\n 98648: a1 = 0x20\n 98651: ecalli 9 // 'hash_keccak_256'\n 98653: fallthrough\n      : @1308 (gas: 13)\n 98654: a0 = u64 [sp + 0x2c0]\n 98658: a1 = u64 [sp + 0x2c8]\n 98662: a2 = u64 [sp + 0x2d0]\n 98666: a3 = u64 [sp + 0x2d8]\n 98670: a0 = reverse a0\n 98672: u64 [sp + 0xb0] = a0\n 98676: t2 = reverse a1\n 98678: a0 = reverse a2\n 98680: u64 [sp + 0xb8] = a0\n 98684: a0 = reverse a3\n 98686: u64 [sp + 0xa0] = a0\n 98690: a0 = u64 [sp + 0x58]\n 98693: jump @1317 if a0 == 0\n      : @1309 (gas: 6)\n 98697: a3 = 0\n 98699: a4 = 0\n 98701: s1 = 0\n 98703: ra = 0\n 98705: a0 = t2\n 98707: fallthrough\n      : @1310 (gas: 31)\n 98708: u64 [sp + 0x80] = ra\n 98712: u64 [sp + 0xa8] = a0\n 98716: a1 = u64 [sp + 0x68]\n 98719: a1 = a1 + a3\n 98722: u64 [sp + 0x90] = a3\n 98726: a0 = a1 <u a3\n 98729: a2 = u64 [sp + 0x60]\n 98732: a2 = a2 + a4\n 98735: a2 = a2 + a0\n 98738: a3 = a2 ^ a4\n 98741: u64 [sp + 0x88] = a4\n 98745: a4 = a2 <u a4\n 98748: a4 = a0 if a3 == 0\n 98751: a0 = u64 [sp + 0x70]\n 98754: a0 = a0 + s1\n 98757: u64 [sp + 0x98] = s1\n 98761: a3 = a0 <u s1\n 98764: a5 = u64 [sp + 0x78]\n 98767: a5 = a5 + ra\n 98770: a3 = a3 + a5\n 98773: a4 = a4 + a0\n 98776: a0 = a4 <u a0\n 98779: a0 = a0 + a3\n 98782: a0 = a0 | a2\n 98785: a2 = a1 | a4\n 98788: a2 = a2 | a0\n 98791: a0 = a0 | a4\n 98794: a2 = a2 >> 0x20\n 98797: a0 = a0 << 0x20\n 98800: a0 = a0 | a2\n 98803: jump @1325 if a0 != 0\n      : @1311 (gas: 26)\n 98807: i32 a1 = a1 + 0\n 98809: i32 a0 = sp + 0x220\n 98813: ecalli 3 // 'call_data_load'\n 98815: a0 = u64 [sp + 0x220]\n 98819: a1 = u64 [sp + 0x228]\n 98823: a2 = u64 [sp + 0x230]\n 98827: a3 = u64 [sp + 0x238]\n 98831: a4 = u64 [sp + 0xb0]\n 98835: u64 [sp + 0x2b8] = a4\n 98839: a4 = u64 [sp + 0xa8]\n 98843: u64 [sp + 0x2b0] = a4\n 98847: a4 = u64 [sp + 0xb8]\n 98851: u64 [sp + 0x2a8] = a4\n 98855: s1 = u64 [sp + 0xa0]\n 98859: u64 [sp + 0x2a0] = s1\n 98863: u64 [sp + 0x2d8] = a3\n 98867: u64 [sp + 0x2d0] = a2\n 98871: u64 [sp + 0x2c8] = a1\n 98875: u64 [sp + 0x2c0] = a0\n 98879: i32 a1 = sp + 0x2a0\n 98883: i32 a3 = sp + 0x2c0\n 98887: a2 = 0xffffffffffffffff\n 98890: a4 = 0x20\n 98893: a0 = 0\n 98895: ecalli 16 // 'set_storage'\n 98897: fallthrough\n      : @1312 (gas: 38)\n 98898: s1 = s1 + 0x1\n 98901: a0 = s1 <u 0x1\n 98904: a1 = u64 [sp + 0xb8]\n 98908: a1 = a1 + a0\n 98911: u64 [sp + 0xb8] = a1\n 98915: u64 [sp + 0xa0] = s1\n 98919: a0 = u64 [sp + 0xb8]\n 98923: a0 = a0 | s1\n 98926: a0 = a0 <u 0x1\n 98929: a1 = u64 [sp + 0xa8]\n 98933: t2 = a1 + a0\n 98936: a3 = t2 <u a1\n 98939: a0 = u64 [sp + 0x90]\n 98943: a2 = a0 + 0x20\n 98946: a0 = a2 <u a0\n 98949: a4 = u64 [sp + 0x88]\n 98953: t0 = a4 + a0\n 98956: a4 = t0 <u a4\n 98959: a4 = a0 if a0 == 0\n 98962: a5 = u64 [sp + 0x98]\n 98966: t1 = a5 + a4\n 98969: a4 = t1 <u a5\n 98972: a1 = u64 [sp + 0x80]\n 98976: a1 = a1 + a4\n 98979: a4 = t1 | a1\n 98982: a5 = u64 [sp + 0x58]\n 98985: a5 = a2 <u a5\n 98988: a5 = 0 if t0 != 0\n 98990: a5 = 0 if a4 != 0\n 98992: a0 = u64 [sp + 0xb0]\n 98996: a0 = a0 + a3\n 98999: u64 [sp + 0xb0] = a0\n 99003: a3 = a2\n 99005: a4 = t0\n 99007: s1 = t1\n 99009: a0 = t2\n 99011: ra = a1\n 99013: jump @1310 if a5 != 0\n      : @1313 (gas: 1)\n 99017: jump @1318\n      : @1314 (gas: 4)\n 99020: a0 = a0 | a5\n 99023: a1 = a3 | a4\n 99026: a0 = a0 | a1\n 99029: jump @1322 if a0 == 0\n      : @1315 (gas: 12)\n 99033: a2 = u64 [sp + 0x70]\n 99036: a3 = u64 [sp + 0x68]\n 99039: a0 = a3 | a2\n 99042: a1 = u64 [sp + 0x78]\n 99045: a4 = u64 [sp + 0x60]\n 99048: a1 = a1 | a4\n 99051: a0 = a0 | a1\n 99054: a0 = a0 >> 0x20\n 99057: a1 = a1 | a2\n 99060: a1 = a1 << 0x20\n 99063: a0 = a0 | a1\n 99066: jump @1325 if a0 != 0\n      : @1316 (gas: 193)\n 99070: i32 a1 = a3 + 0\n 99072: i32 a0 = sp + 0x260\n 99076: ecalli 3 // 'call_data_load'\n 99078: a0 = u64 [sp + 0x278]\n 99082: u64 [sp + 0xb8] = a0\n 99086: a0 = u64 [sp + 0x270]\n 99090: u64 [sp + 0xb0] = a0\n 99094: t2 = u64 [sp + 0x268]\n 99098: ra = u64 [sp + 0x260]\n 99102: u8 [sp + 447] = 0\n 99106: u8 [sp + 446] = 0\n 99110: u8 [sp + 445] = 0\n 99114: u8 [sp + 444] = 0\n 99118: u8 [sp + 443] = 0\n 99122: u8 [sp + 442] = 0\n 99126: u8 [sp + 441] = 0\n 99130: u8 [sp + 440] = 0\n 99134: u8 [sp + 439] = 0\n 99138: u8 [sp + 438] = 0\n 99142: u8 [sp + 437] = 0\n 99146: u8 [sp + 436] = 0\n 99150: u8 [sp + 435] = 0\n 99154: u8 [sp + 434] = 0\n 99158: u8 [sp + 433] = 0\n 99162: u8 [sp + 432] = 0\n 99166: u8 [sp + 431] = 0\n 99170: u8 [sp + 430] = 0\n 99174: u8 [sp + 429] = 0\n 99178: u8 [sp + 428] = 0\n 99182: u8 [sp + 427] = 0\n 99186: u8 [sp + 426] = 0\n 99190: u8 [sp + 425] = 0\n 99194: u8 [sp + 424] = 0\n 99198: u8 [sp + 423] = 0\n 99202: u8 [sp + 422] = 0\n 99206: u8 [sp + 421] = 0\n 99210: u8 [sp + 420] = 0\n 99214: u8 [sp + 419] = 0\n 99218: u8 [sp + 418] = 0\n 99222: u8 [sp + 417] = 0\n 99226: u8 [sp + 416] = 0\n 99230: u8 [sp + 415] = 0xff\n 99236: u8 [sp + 414] = 0xff\n 99242: u8 [sp + 413] = 0xff\n 99248: u8 [sp + 411] = 0xff\n 99254: u8 [sp + 408] = 0xffffffffffffffff\n 99259: u8 [sp + 407] = 0xff\n 99265: u8 [sp + 406] = 0xff\n 99271: u8 [sp + 405] = 0xff\n 99277: u8 [sp + 403] = 0xff\n 99283: u8 [sp + 400] = 0xffffffffffffffff\n 99288: u8 [sp + 399] = 0xff\n 99294: u8 [sp + 398] = 0xff\n 99300: u8 [sp + 397] = 0xff\n 99306: u8 [sp + 395] = 0xff\n 99312: u8 [sp + 392] = 0xffffffffffffffff\n 99317: u8 [sp + 391] = 0xff\n 99323: u8 [sp + 390] = 0xff\n 99329: u8 [sp + 389] = 0xff\n 99335: u8 [sp + 387] = 0xff\n 99341: u8 [sp + 384] = 0xffffffffffffffff\n 99346: a0 = 0xffffffff\n 99356: u8 [sp + 0x19c] = a0\n 99360: a5 = 0xffffffffffff\n 99370: u8 [sp + 0x19a] = a5\n 99374: a4 = 0xffffffffffffff\n 99384: u8 [sp + 0x199] = a4\n 99388: u8 [sp + 0x194] = a0\n 99392: u8 [sp + 0x192] = a5\n 99396: u8 [sp + 0x191] = a4\n 99400: u8 [sp + 0x18c] = a0\n 99404: u8 [sp + 0x18a] = a5\n 99408: u8 [sp + 0x189] = a4\n 99412: u8 [sp + 0x184] = a0\n 99416: u8 [sp + 0x182] = a5\n 99420: u8 [sp + 0x181] = a4\n 99424: t0 = u64 [sp + 0x50]\n 99427: a4 = t0 & 0x1f\n 99430: a0 = sp + 0x180\n 99434: a4 = a4 + a0\n 99437: a0 = u8 [a4 + 0x19]\n 99440: a5 = u8 [a4 + 0x18]\n 99443: s1 = u8 [a4 + 0x1a]\n 99446: a1 = u8 [a4 + 0x1b]\n 99449: a0 = a0 << 0x8\n 99452: a0 = a0 | a5\n 99455: s1 = s1 << 0x10\n 99458: a1 = a1 << 0x18\n 99461: a1 = a1 | s1\n 99464: a0 = a0 | a1\n 99467: a1 = u8 [a4 + 0x1d]\n 99470: a5 = u8 [a4 + 0x1c]\n 99473: s1 = u8 [a4 + 0x1e]\n 99476: a2 = u8 [a4 + 0x1f]\n 99479: a1 = a1 << 0x8\n 99482: a1 = a1 | a5\n 99485: s1 = s1 << 0x10\n 99488: a2 = a2 << 0x18\n 99491: a2 = a2 | s1\n 99494: a1 = a1 | a2\n 99497: a1 = a1 << 0x20\n 99500: t1 = a1 | a0\n 99503: a0 = u8 [a4 + 0x11]\n 99506: a1 = u8 [a4 + 0x10]\n 99509: a2 = u8 [a4 + 0x12]\n 99512: s1 = u8 [a4 + 0x13]\n 99515: a0 = a0 << 0x8\n 99518: a0 = a0 | a1\n 99521: a2 = a2 << 0x10\n 99524: s1 = s1 << 0x18\n 99527: a2 = a2 | s1\n 99530: a0 = a0 | a2\n 99533: a1 = u8 [a4 + 0x15]\n 99536: a2 = u8 [a4 + 0x14]\n 99539: s1 = u8 [a4 + 0x16]\n 99542: a3 = u8 [a4 + 0x17]\n 99545: a1 = a1 << 0x8\n 99548: a1 = a1 | a2\n 99551: s1 = s1 << 0x10\n 99554: a3 = a3 << 0x18\n 99557: a3 = a3 | s1\n 99560: a1 = a1 | a3\n 99563: a1 = a1 << 0x20\n 99566: s1 = a1 | a0\n 99569: a0 = u8 [a4 + 0x9]\n 99572: a1 = u8 [a4 + 0x8]\n 99575: a2 = u8 [a4 + 0xa]\n 99578: a3 = u8 [a4 + 0xb]\n 99581: a0 = a0 << 0x8\n 99584: a0 = a0 | a1\n 99587: a2 = a2 << 0x10\n 99590: a3 = a3 << 0x18\n 99593: a2 = a2 | a3\n 99596: a5 = a2 | a0\n 99599: a1 = u8 [a4 + 0xd]\n 99602: a2 = u8 [a4 + 0xc]\n 99605: a3 = u8 [a4 + 0xe]\n 99608: a0 = u8 [a4 + 0xf]\n 99611: a1 = a1 << 0x8\n 99614: a1 = a1 | a2\n 99617: a3 = a3 << 0x10\n 99620: a0 = a0 << 0x18\n 99623: a0 = a0 | a3\n 99626: a0 = a0 | a1\n 99629: a0 = a0 << 0x20\n 99632: a0 = a0 | a5\n 99635: a1 = u8 [a4 + 0x1]\n 99638: a2 = u8 [a4]\n 99640: a3 = u8 [a4 + 0x2]\n 99643: a5 = u8 [a4 + 0x3]\n 99646: a1 = a1 << 0x8\n 99649: a1 = a1 | a2\n 99652: a3 = a3 << 0x10\n 99655: a5 = a5 << 0x18\n 99658: a3 = a3 | a5\n 99661: a1 = a1 | a3\n 99664: a2 = u8 [a4 + 0x5]\n 99667: a3 = u8 [a4 + 0x4]\n 99670: a5 = u8 [a4 + 0x6]\n 99673: a4 = u8 [a4 + 0x7]\n 99676: a2 = a2 << 0x8\n 99679: a2 = a2 | a3\n 99682: a5 = a5 << 0x10\n 99685: a4 = a4 << 0x18\n 99688: a4 = a4 | a5\n 99691: a2 = a2 | a4\n 99694: a2 = a2 << 0x20\n 99697: a1 = a1 | a2\n 99700: ra = ra & ~a1\n 99703: a2 = t2 & ~a0\n 99706: a0 = u64 [sp + 0xb0]\n 99710: a1 = a0 & ~s1\n 99713: a0 = u64 [sp + 0xb8]\n 99717: a0 = a0 & ~t1\n 99720: a4 = t0 >> 0x3f\n 99723: a3 = u64 [sp + 0x40]\n 99726: a5 = a3 << 0x1\n 99729: a4 = a4 | a5\n 99732: a5 = a3 >> 0x3f\n 99735: a3 = u64 [sp + 0x48]\n 99738: s1 = a3 << 0x1\n 99741: a5 = a5 | s1\n 99744: s1 = a3 >> 0x3f\n 99747: a3 = u64 [sp + 0x18]\n 99750: a3 = a3 << 0x1\n 99753: a3 = a3 | s1\n 99756: a0 = a0 | a3\n 99759: a1 = a1 | a5\n 99762: a2 = a2 | a4\n 99765: a3 = t0 << 0x1\n 99768: a3 = ra | a3\n 99771: t0 = u64 [sp + 0x38]\n 99774: jump @1323\n      : @1317 (gas: 5)\n 99777: a2 = 0\n 99779: t0 = 0\n 99781: t1 = 0\n 99783: ra = 0\n 99785: fallthrough\n      : @1318 (gas: 10)\n 99786: s1 = u64 [sp + 0x50]\n 99789: a3 = u64 [sp + 0x58]\n 99792: a3 = a3 ^ s1\n 99795: a5 = u64 [sp + 0x48]\n 99798: a3 = a3 | a5\n 99801: a0 = u64 [sp + 0x40]\n 99804: a4 = u64 [sp + 0x18]\n 99807: a4 = a4 | a0\n 99810: a3 = a3 | a4\n 99813: jump @1321 if a3 == 0\n      : @1319 (gas: 27)\n 99817: u64 [sp + 0xa8] = t2\n 99821: a3 = u64 [sp + 0x68]\n 99824: a3 = a3 + a2\n 99827: a2 = a3 <u a2\n 99830: a4 = u64 [sp + 0x60]\n 99833: a4 = a4 + t0\n 99836: a4 = a4 + a2\n 99839: a5 = a4 ^ t0\n 99842: a1 = a4 <u t0\n 99845: a1 = a2 if a5 == 0\n 99848: a2 = u64 [sp + 0x70]\n 99851: a2 = a2 + t1\n 99854: a1 = a1 + a2\n 99857: a5 = a1 <u a2\n 99860: a0 = a2 <u t1\n 99863: a2 = u64 [sp + 0x78]\n 99866: a2 = a2 + ra\n 99869: a0 = a0 + a2\n 99872: a0 = a0 + a5\n 99875: a2 = a3 | a1\n 99878: a0 = a0 | a4\n 99881: a2 = a2 | a0\n 99884: a2 = a2 >> 0x20\n 99887: a0 = a0 | a1\n 99890: a0 = a0 << 0x20\n 99893: a0 = a0 | a2\n 99896: jump @1325 if a0 != 0\n      : @1320 (gas: 194)\n 99900: i32 a1 = a3 + 0\n 99902: i32 a0 = sp + 0x240\n 99906: ecalli 3 // 'call_data_load'\n 99908: a0 = u64 [sp + 0x258]\n 99912: u64 [sp + 0x98] = a0\n 99916: t1 = u64 [sp + 0x250]\n 99920: t2 = u64 [sp + 0x248]\n 99924: ra = u64 [sp + 0x240]\n 99928: u8 [sp + 383] = 0\n 99932: u8 [sp + 382] = 0\n 99936: u8 [sp + 381] = 0\n 99940: u8 [sp + 380] = 0\n 99944: u8 [sp + 379] = 0\n 99948: u8 [sp + 378] = 0\n 99952: u8 [sp + 377] = 0\n 99956: u8 [sp + 376] = 0\n 99960: u8 [sp + 375] = 0\n 99964: u8 [sp + 374] = 0\n 99968: u8 [sp + 373] = 0\n 99972: u8 [sp + 372] = 0\n 99976: u8 [sp + 371] = 0\n 99980: u8 [sp + 370] = 0\n 99984: u8 [sp + 369] = 0\n 99988: u8 [sp + 368] = 0\n 99992: u8 [sp + 367] = 0\n 99996: u8 [sp + 366] = 0\n100000: u8 [sp + 365] = 0\n100004: u8 [sp + 364] = 0\n100008: u8 [sp + 363] = 0\n100012: u8 [sp + 362] = 0\n100016: u8 [sp + 361] = 0\n100020: u8 [sp + 360] = 0\n100024: u8 [sp + 359] = 0\n100028: u8 [sp + 358] = 0\n100032: u8 [sp + 357] = 0\n100036: u8 [sp + 356] = 0\n100040: u8 [sp + 355] = 0\n100044: u8 [sp + 354] = 0\n100048: u8 [sp + 353] = 0\n100052: u8 [sp + 352] = 0\n100056: u8 [sp + 351] = 0xff\n100062: u8 [sp + 350] = 0xff\n100068: u8 [sp + 349] = 0xff\n100074: u8 [sp + 347] = 0xff\n100080: u8 [sp + 344] = 0xffffffffffffffff\n100085: u8 [sp + 343] = 0xff\n100091: u8 [sp + 342] = 0xff\n100097: u8 [sp + 341] = 0xff\n100103: u8 [sp + 339] = 0xff\n100109: u8 [sp + 336] = 0xffffffffffffffff\n100114: u8 [sp + 335] = 0xff\n100120: u8 [sp + 334] = 0xff\n100126: u8 [sp + 333] = 0xff\n100132: u8 [sp + 331] = 0xff\n100138: u8 [sp + 328] = 0xffffffffffffffff\n100143: u8 [sp + 327] = 0xff\n100149: u8 [sp + 326] = 0xff\n100155: u8 [sp + 325] = 0xff\n100161: u8 [sp + 323] = 0xff\n100167: u8 [sp + 320] = 0xffffffffffffffff\n100172: a0 = 0xffffffff\n100182: u8 [sp + 0x15c] = a0\n100186: a5 = 0xffffffffffff\n100196: u8 [sp + 0x15a] = a5\n100200: a4 = 0xffffffffffffff\n100210: u8 [sp + 0x159] = a4\n100214: u8 [sp + 0x154] = a0\n100218: u8 [sp + 0x152] = a5\n100222: u8 [sp + 0x151] = a4\n100226: u8 [sp + 0x14c] = a0\n100230: u8 [sp + 0x14a] = a5\n100234: u8 [sp + 0x149] = a4\n100238: u8 [sp + 0x144] = a0\n100242: u8 [sp + 0x142] = a5\n100246: u8 [sp + 0x141] = a4\n100250: a4 = u64 [sp + 0x50]\n100253: a4 = a4 & 0x1f\n100256: a0 = sp + 0x140\n100260: a4 = a4 + a0\n100263: a0 = u8 [a4 + 0x19]\n100266: a5 = u8 [a4 + 0x18]\n100269: s1 = u8 [a4 + 0x1a]\n100272: a1 = u8 [a4 + 0x1b]\n100275: a0 = a0 << 0x8\n100278: a0 = a0 | a5\n100281: s1 = s1 << 0x10\n100284: a1 = a1 << 0x18\n100287: a1 = a1 | s1\n100290: a0 = a0 | a1\n100293: a1 = u8 [a4 + 0x1d]\n100296: a5 = u8 [a4 + 0x1c]\n100299: s1 = u8 [a4 + 0x1e]\n100302: a2 = u8 [a4 + 0x1f]\n100305: a1 = a1 << 0x8\n100308: a1 = a1 | a5\n100311: s1 = s1 << 0x10\n100314: a2 = a2 << 0x18\n100317: a2 = a2 | s1\n100320: a1 = a1 | a2\n100323: a1 = a1 << 0x20\n100326: t0 = a1 | a0\n100329: a0 = u8 [a4 + 0x11]\n100332: a1 = u8 [a4 + 0x10]\n100335: a2 = u8 [a4 + 0x12]\n100338: s1 = u8 [a4 + 0x13]\n100341: a0 = a0 << 0x8\n100344: a0 = a0 | a1\n100347: a2 = a2 << 0x10\n100350: s1 = s1 << 0x18\n100353: a2 = a2 | s1\n100356: a0 = a0 | a2\n100359: a1 = u8 [a4 + 0x15]\n100362: a2 = u8 [a4 + 0x14]\n100365: s1 = u8 [a4 + 0x16]\n100368: a3 = u8 [a4 + 0x17]\n100371: a1 = a1 << 0x8\n100374: a1 = a1 | a2\n100377: s1 = s1 << 0x10\n100380: a3 = a3 << 0x18\n100383: a3 = a3 | s1\n100386: a1 = a1 | a3\n100389: a1 = a1 << 0x20\n100392: s1 = a1 | a0\n100395: a0 = u8 [a4 + 0x9]\n100398: a1 = u8 [a4 + 0x8]\n100401: a2 = u8 [a4 + 0xa]\n100404: a3 = u8 [a4 + 0xb]\n100407: a0 = a0 << 0x8\n100410: a0 = a0 | a1\n100413: a2 = a2 << 0x10\n100416: a3 = a3 << 0x18\n100419: a2 = a2 | a3\n100422: a5 = a2 | a0\n100425: a1 = u8 [a4 + 0xd]\n100428: a2 = u8 [a4 + 0xc]\n100431: a3 = u8 [a4 + 0xe]\n100434: a0 = u8 [a4 + 0xf]\n100437: a1 = a1 << 0x8\n100440: a1 = a1 | a2\n100443: a3 = a3 << 0x10\n100446: a0 = a0 << 0x18\n100449: a0 = a0 | a3\n100452: a0 = a0 | a1\n100455: a0 = a0 << 0x20\n100458: a0 = a0 | a5\n100461: a1 = u8 [a4 + 0x1]\n100464: a2 = u8 [a4]\n100466: a3 = u8 [a4 + 0x2]\n100469: a5 = u8 [a4 + 0x3]\n100472: a1 = a1 << 0x8\n100475: a1 = a1 | a2\n100478: a3 = a3 << 0x10\n100481: a5 = a5 << 0x18\n100484: a3 = a3 | a5\n100487: a1 = a1 | a3\n100490: a2 = u8 [a4 + 0x5]\n100493: a3 = u8 [a4 + 0x4]\n100496: a5 = u8 [a4 + 0x6]\n100499: a4 = u8 [a4 + 0x7]\n100502: a2 = a2 << 0x8\n100505: a2 = a2 | a3\n100508: a5 = a5 << 0x10\n100511: a4 = a4 << 0x18\n100514: a4 = a4 | a5\n100517: a2 = a2 | a4\n100520: a2 = a2 << 0x20\n100523: a1 = a1 | a2\n100526: a1 = ra & ~a1\n100529: a0 = t2 & ~a0\n100532: a2 = t1 & ~s1\n100535: a3 = u64 [sp + 0x98]\n100539: a3 = a3 & ~t0\n100542: a4 = u64 [sp + 0xb0]\n100546: u64 [sp + 0x2b8] = a4\n100550: a4 = u64 [sp + 0xa8]\n100554: u64 [sp + 0x2b0] = a4\n100558: a4 = u64 [sp + 0xb8]\n100562: u64 [sp + 0x2a8] = a4\n100566: a4 = u64 [sp + 0xa0]\n100570: u64 [sp + 0x2a0] = a4\n100574: u64 [sp + 0x2d8] = a3\n100578: u64 [sp + 0x2d0] = a2\n100582: u64 [sp + 0x2c8] = a0\n100586: u64 [sp + 0x2c0] = a1\n100590: i32 a1 = sp + 0x2a0\n100594: i32 a3 = sp + 0x2c0\n100598: a2 = 0xffffffffffffffff\n100601: a4 = 0x20\n100604: a0 = 0\n100606: ecalli 16 // 'set_storage'\n100608: s1 = u64 [sp + 0x50]\n100611: a5 = u64 [sp + 0x48]\n100614: a0 = u64 [sp + 0x40]\n100617: fallthrough\n      : @1321 (gas: 25)\n100618: a2 = a5 >> 0x3f\n100621: a1 = u64 [sp + 0x18]\n100624: a1 = a1 << 0x1\n100627: t0 = a1 | a2\n100630: a1 = a0 >> 0x3f\n100633: a2 = a5 << 0x1\n100636: a1 = a1 | a2\n100639: a2 = s1 >> 0x3f\n100642: a3 = a0 << 0x1\n100645: a2 = a2 | a3\n100648: a3 = s1 << 0x1\n100651: a3 = a3 + 0x1\n100654: a4 = u64 [sp + 0x20]\n100657: u64 [sp + 0x2a8] = a4\n100661: a4 = u64 [sp + 0x28]\n100664: u64 [sp + 0x2a0] = a4\n100668: a4 = u64 [sp + 0x38]\n100671: u64 [sp + 0x2b0] = a4\n100675: a4 = u64 [sp + 0x30]\n100678: u64 [sp + 0x2b8] = a4\n100682: u64 [sp + 0x2c0] = a3\n100686: u64 [sp + 0x2c8] = a2\n100690: u64 [sp + 0x2d0] = a1\n100694: u64 [sp + 0x2d8] = t0\n100698: jump @1324\n      : @1322 (gas: 4)\n100700: a3 = 0\n100702: a2 = 0\n100704: a1 = 0\n100706: fallthrough\n      : @1323 (gas: 12)\n100707: a4 = u64 [sp + 0x20]\n100710: u64 [sp + 0x2a8] = a4\n100714: a4 = u64 [sp + 0x28]\n100717: u64 [sp + 0x2a0] = a4\n100721: u64 [sp + 0x2b0] = t0\n100725: a4 = u64 [sp + 0x30]\n100728: u64 [sp + 0x2b8] = a4\n100732: u64 [sp + 0x2c0] = a3\n100736: u64 [sp + 0x2c8] = a2\n100740: u64 [sp + 0x2d0] = a1\n100744: u64 [sp + 0x2d8] = a0\n100748: fallthrough\n      : @1324 (gas: 12)\n100749: i32 a1 = sp + 0x2a0\n100753: i32 a3 = sp + 0x2c0\n100757: a2 = 0xffffffffffffffff\n100760: a4 = 0x20\n100763: a0 = 0\n100765: ecalli 16 // 'set_storage'\n100767: sp = s0 + 0xfffffffffffffd00\n100771: ra = u64 [sp + 0x2f8]\n100775: s0 = u64 [sp + 0x2f0]\n100779: s1 = u64 [sp + 0x2e8]\n100783: sp = sp + 0x300\n100787: ret\n      : @1325 (gas: 1)\n100789: trap\n      : @1326 (gas: 8)\n100790: u64 [sp + 240] = 0\n100794: u64 [sp + 232] = 0\n100798: u64 [sp + 224] = 0\n100802: a0 = 0x4e487b7100000000\n100812: a1 = sp + 0xe0\n100816: u64 [sp + 0xf8] = a0\n100820: a0 = 0\n100822: ra = 1142, jump @23\n      : @1327 [@dyn 571] (gas: 8)\n100829: u64 [sp + 216] = 0\n100833: u64 [sp + 208] = 0\n100837: u64 [sp + 192] = 0x41\n100842: a0 = 0x4\n100845: a1 = sp + 0xc0\n100849: u64 [sp + 200] = 0\n100853: ra = 0x47a\n100857: jump @23\n      : @1328 (gas: 8)\n100861: u64 [sp + 304] = 0\n100865: u64 [sp + 296] = 0\n100869: u64 [sp + 288] = 0\n100873: a0 = 0x4e487b7100000000\n100883: a1 = sp + 0x120\n100887: u64 [sp + 0x138] = a0\n100891: a0 = 0\n100893: ra = 1144, jump @23\n      : @1329 [@dyn 572] (gas: 7)\n100900: u64 [sp + 280] = 0\n100904: u64 [sp + 272] = 0\n100908: u64 [sp + 256] = 0x22\n100913: a0 = 0x4\n100916: a1 = sp + 0x100\n100920: u64 [sp + 264] = 0\n100924: ra = 1146, jump @23\n      : @1330 [@dyn 573] (gas: 3)\n100931: a1 = 0x24\n100934: a0 = 0\n100936: ra = 1148, jump @0\n      : @1331 [@dyn 574] (gas: 6)\n100943: i32 a1 = a0 + 0\n100945: a0 = 0x1\n100948: a2 = 0x24\n100951: ra = 0x47e\n100955: ecalli 14 // 'seal_return'\n100957: fallthrough\n      : @1332 [@dyn 575] (gas: 36)\n100958: sp = sp + 0xffffffffffffff70\n100962: u64 [sp + 0x88] = ra\n100966: u64 [sp + 0x80] = s0\n100970: u64 [sp + 0x78] = s1\n100973: s0 = sp + 0x90\n100977: sp = sp & 0xfffffffffffffff0\n100980: a3 = u64 [a0]\n100982: u64 [sp + 0x8] = a3\n100985: t1 = u64 [a0 + 0x8]\n100988: t2 = u64 [a0 + 0x10]\n100991: ra = u64 [a0 + 0x18]\n100994: t0 = u64 [a1]\n100996: a4 = u64 [a1 + 0x8]\n100999: a5 = u64 [a1 + 0x10]\n101002: a3 = u64 [a1 + 0x18]\n101005: s1 = u64 [a2]\n101007: a1 = u64 [a2 + 0x8]\n101010: a0 = u64 [a2 + 0x10]\n101013: a2 = u64 [a2 + 0x18]\n101016: u64 [sp + 0x28] = a2\n101019: u64 [sp + 0x20] = a0\n101022: u64 [sp + 0x18] = a1\n101025: u64 [sp + 0x10] = s1\n101028: u64 [sp + 0x48] = a3\n101031: u64 [sp + 0x40] = a5\n101034: u64 [sp + 0x38] = a4\n101037: u64 [sp + 0x30] = t0\n101040: u64 [sp + 0x68] = ra\n101043: u64 [sp + 0x60] = t2\n101046: u64 [sp + 0x58] = t1\n101049: a0 = sp + 0x50\n101052: a1 = sp + 0x30\n101055: a2 = sp + 0x10\n101058: a3 = u64 [sp + 0x8]\n101061: u64 [sp + 0x50] = a3\n101064: ra = 1152, jump @1300\n      : @1333 [@dyn 576] (gas: 6)\n101070: sp = s0 + 0xffffffffffffff70\n101074: ra = u64 [sp + 0x88]\n101078: s0 = u64 [sp + 0x80]\n101082: s1 = u64 [sp + 0x78]\n101085: sp = sp + 0x90\n101089: ret\n      : @1334 (gas: 14)\n101091: sp = sp + 0xffffffffffffff20\n101095: u64 [sp + 0xd8] = ra\n101099: u64 [sp + 0xd0] = s0\n101103: u64 [sp + 0xc8] = s1\n101107: s0 = sp + 0xe0\n101111: sp = sp & 0xfffffffffffffff0\n101114: a2 = u64 [a1 + 0x10]\n101117: a3 = u64 [a1 + 0x18]\n101120: a5 = u64 [a1 + 0x8]\n101123: s1 = u64 [a1]\n101125: a4 = a5 | a3\n101128: a1 = s1 | a2\n101131: a1 = a1 | a4\n101134: jump @1337 if a1 == 0\n      : @1335 (gas: 20)\n101137: t0 = u64 [a0 + 0x18]\n101140: a1 = u64 [a0 + 0x10]\n101143: a4 = u64 [a0 + 0x8]\n101146: a0 = u64 [a0]\n101148: u64 [sp + 0x60] = s1\n101151: u64 [sp + 0x80] = a0\n101155: u64 [sp + 184] = 0\n101159: u64 [sp + 176] = 0\n101163: u64 [sp + 168] = 0\n101167: u64 [sp + 160] = 0x1\n101172: u64 [sp + 0x68] = a5\n101175: u64 [sp + 0x88] = a4\n101179: u64 [sp + 0x70] = a2\n101182: u64 [sp + 0x90] = a1\n101186: u64 [sp + 0x78] = a3\n101189: a0 = sp + 0xa0\n101193: a1 = sp + 0x80\n101197: a2 = sp + 0x60\n101200: u64 [sp + 0x98] = t0\n101204: ra = 1154, jump @1300\n      : @1336 [@dyn 577] (gas: 6)\n101210: sp = s0 + 0xffffffffffffff20\n101214: ra = u64 [sp + 0xd8]\n101218: s0 = u64 [sp + 0xd0]\n101222: s1 = u64 [sp + 0xc8]\n101226: sp = sp + 0xe0\n101230: ret\n      : @1337 (gas: 3)\n101232: a0 = 0x40\n101235: a1 = 0x20\n101238: ra = 1156, jump @0\n      : @1338 [@dyn 578] (gas: 103)\n101245: a1 = u8 [a0 + 0x11]\n101248: a2 = u8 [a0 + 0x10]\n101251: a3 = u8 [a0 + 0x12]\n101254: a4 = u8 [a0 + 0x13]\n101257: a1 = a1 << 0x8\n101260: a1 = a1 | a2\n101263: a3 = a3 << 0x10\n101266: a4 = a4 << 0x18\n101269: a3 = a3 | a4\n101272: a1 = a1 | a3\n101275: a2 = u8 [a0 + 0x15]\n101278: a3 = u8 [a0 + 0x14]\n101281: a4 = u8 [a0 + 0x16]\n101284: a5 = u8 [a0 + 0x17]\n101287: a2 = a2 << 0x8\n101290: a2 = a2 | a3\n101293: a4 = a4 << 0x10\n101296: a5 = a5 << 0x18\n101299: a4 = a4 | a5\n101302: a2 = a2 | a4\n101305: a2 = a2 << 0x20\n101308: t0 = a2 | a1\n101311: a2 = u8 [a0 + 0x1]\n101314: a3 = u8 [a0]\n101316: a4 = u8 [a0 + 0x2]\n101319: a5 = u8 [a0 + 0x3]\n101322: a2 = a2 << 0x8\n101325: a2 = a2 | a3\n101328: a4 = a4 << 0x10\n101331: a5 = a5 << 0x18\n101334: a4 = a4 | a5\n101337: a2 = a2 | a4\n101340: a3 = u8 [a0 + 0x5]\n101343: a4 = u8 [a0 + 0x4]\n101346: a5 = u8 [a0 + 0x6]\n101349: s1 = u8 [a0 + 0x7]\n101352: a3 = a3 << 0x8\n101355: a3 = a3 | a4\n101358: a5 = a5 << 0x10\n101361: s1 = s1 << 0x18\n101364: a5 = a5 | s1\n101367: a3 = a3 | a5\n101370: a3 = a3 << 0x20\n101373: a2 = a2 | a3\n101376: a3 = u8 [a0 + 0x19]\n101379: a4 = u8 [a0 + 0x18]\n101382: a5 = u8 [a0 + 0x1a]\n101385: s1 = u8 [a0 + 0x1b]\n101388: a3 = a3 << 0x8\n101391: a3 = a3 | a4\n101394: a5 = a5 << 0x10\n101397: s1 = s1 << 0x18\n101400: a5 = a5 | s1\n101403: a3 = a3 | a5\n101406: a4 = u8 [a0 + 0x1d]\n101409: a5 = u8 [a0 + 0x1c]\n101412: s1 = u8 [a0 + 0x1e]\n101415: a1 = u8 [a0 + 0x1f]\n101418: a4 = a4 << 0x8\n101421: a4 = a4 | a5\n101424: s1 = s1 << 0x10\n101427: a1 = a1 << 0x18\n101430: a1 = a1 | s1\n101433: a1 = a1 | a4\n101436: a1 = a1 << 0x20\n101439: a3 = a3 | a1\n101442: a1 = u8 [a0 + 0x9]\n101445: a4 = u8 [a0 + 0x8]\n101448: a5 = u8 [a0 + 0xa]\n101451: s1 = u8 [a0 + 0xb]\n101454: a1 = a1 << 0x8\n101457: a1 = a1 | a4\n101460: a5 = a5 << 0x10\n101463: s1 = s1 << 0x18\n101466: a5 = a5 | s1\n101469: a1 = a1 | a5\n101472: a4 = u8 [a0 + 0xd]\n101475: a5 = u8 [a0 + 0xc]\n101478: s1 = u8 [a0 + 0xe]\n101481: a0 = u8 [a0 + 0xf]\n101484: a4 = a4 << 0x8\n101487: a4 = a4 | a5\n101490: s1 = s1 << 0x10\n101493: a0 = a0 << 0x18\n101496: a0 = a0 | s1\n101499: a0 = a0 | a4\n101502: a0 = a0 << 0x20\n101505: a0 = a0 | a1\n101508: s1 = reverse a0\n101510: a1 = reverse a3\n101512: a2 = reverse a2\n101514: a0 = reverse t0\n101516: u64 [sp + 0x18] = a0\n101519: u64 [sp + 0x10] = a2\n101522: a0 = a0 | a2\n101525: a2 = a1\n101527: a1 = a1 | s1\n101530: a1 = a1 | a0\n101533: a1 = a1 >> 0x20\n101536: a0 = a0 | s1\n101539: a0 = a0 << 0x20\n101542: a0 = a0 | a1\n101545: jump @1342 if a0 != 0\n      : @1339 (gas: 5)\n101549: u64 [sp + 0x8] = a2\n101552: i32 a0 = a2 + 0\n101554: a1 = 0x20\n101557: u64 [sp] = a0\n101559: ra = 1158, jump @0\n      : @1340 [@dyn 579] (gas: 50)\n101566: u8 [a0 + 31] = 0\n101569: u8 [a0 + 30] = 0\n101572: u8 [a0 + 29] = 0\n101575: u8 [a0 + 28] = 0\n101578: u8 [a0 + 27] = 0\n101581: u8 [a0 + 26] = 0\n101584: u8 [a0 + 25] = 0\n101587: u8 [a0 + 24] = 0\n101590: u8 [a0 + 23] = 0\n101593: u8 [a0 + 22] = 0\n101596: u8 [a0 + 21] = 0\n101599: u8 [a0 + 20] = 0\n101602: u8 [a0 + 19] = 0\n101605: u8 [a0 + 18] = 0\n101608: u8 [a0 + 17] = 0\n101611: u8 [a0 + 16] = 0\n101614: u8 [a0 + 15] = 0\n101617: u8 [a0 + 14] = 0\n101620: u8 [a0 + 13] = 0\n101623: u8 [a0 + 12] = 0\n101626: u8 [a0 + 11] = 0\n101629: u8 [a0 + 10] = 0\n101632: u8 [a0 + 9] = 0\n101635: u8 [a0 + 8] = 0\n101638: u8 [a0 + 7] = 0\n101641: u8 [a0 + 6] = 0\n101644: u8 [a0 + 5] = 0\n101647: u8 [a0 + 4] = 0\n101650: u8 [a0 + 3] = 0xa0\n101655: u8 [a0 + 2] = 0x79\n101659: u8 [a0 + 1] = 0xc3\n101664: u8 [a0 + 0] = 0x8\n101667: a1 = u64 [sp + 0x8]\n101670: a0 = a1 + 0x4\n101673: a1 = a0 <u a1\n101676: a3 = u64 [sp + 0x18]\n101679: a2 = a3 + a1\n101682: a3 = a2 <u a3\n101685: a3 = a1 if a1 == 0\n101688: a3 = a3 + s1\n101691: a1 = a3 <u s1\n101694: a4 = u64 [sp + 0x10]\n101697: a4 = a4 + a1\n101700: u64 [sp + 0x28] = a2\n101703: u64 [sp + 0x20] = a0\n101706: u64 [sp + 0x30] = a3\n101709: a0 = sp + 0x40\n101712: a1 = sp + 0x20\n101715: u64 [sp + 0x38] = a4\n101718: ra = 1160, jump @219\n      : @1341 [@dyn 580] (gas: 30)\n101725: a0 = u64 [sp + 0x48]\n101728: t0 = u64 [sp + 0x58]\n101731: t1 = u64 [sp + 0x40]\n101734: a3 = u64 [sp + 0x50]\n101737: a1 = u64 [sp + 0x18]\n101740: a4 = a0 ^ a1\n101743: a5 = a0 <u a1\n101746: t2 = a1\n101748: a2 = u64 [sp + 0x8]\n101751: a1 = t1 <u a2\n101754: a5 = a1 if a4 == 0\n101757: a4 = a3 - s1\n101760: a3 = a3 <u s1\n101763: s1 = u64 [sp + 0x10]\n101766: s1 = t0 - s1\n101769: s1 = s1 - a3\n101772: a3 = a4 <u a5\n101775: s1 = s1 - a3\n101778: a4 = a4 - a5\n101781: a0 = a0 - t2\n101784: a1 = a0 - a1\n101787: a0 = t1 - a2\n101790: a1 = a1 | s1\n101793: a2 = a0 | a4\n101796: a2 = a2 | a1\n101799: a1 = a1 | a4\n101802: a2 = a2 >> 0x20\n101805: a1 = a1 << 0x20\n101808: a1 = a1 | a2\n101811: jump @1343 if a1 == 0\n      : @1342 (gas: 1)\n101814: trap\n      : @1343 (gas: 4)\n101815: i32 s1 = a0 + 0\n101817: a0 = u64 [sp]\n101819: a1 = s1\n101821: ra = 1162, jump @0\n      : @1344 [@dyn 581] (gas: 6)\n101828: i32 a1 = a0 + 0\n101830: a0 = 0x1\n101833: a2 = s1\n101835: ra = 0x48c\n101839: ecalli 14 // 'seal_return'\n101841: fallthrough\n      : @1345 [@dyn 582] (gas: 24)\n101842: sp = sp + 0xffffffffffffffb0\n101845: u64 [sp + 0x48] = ra\n101848: u64 [sp + 0x40] = s0\n101851: s0 = sp + 0x50\n101854: sp = sp & 0xfffffffffffffff0\n101857: t0 = u64 [a0]\n101859: t1 = u64 [a0 + 0x8]\n101862: a4 = u64 [a0 + 0x10]\n101865: a0 = u64 [a0 + 0x18]\n101868: a5 = u64 [a1]\n101870: a2 = u64 [a1 + 0x8]\n101873: a3 = u64 [a1 + 0x10]\n101876: a1 = u64 [a1 + 0x18]\n101879: u64 [sp + 0x18] = a1\n101882: u64 [sp + 0x10] = a3\n101885: u64 [sp + 0x8] = a2\n101888: u64 [sp] = a5\n101890: u64 [sp + 0x38] = a0\n101893: u64 [sp + 0x30] = a4\n101896: u64 [sp + 0x28] = t1\n101899: a0 = sp + 0x20\n101902: a1 = sp\n101904: u64 [sp + 0x20] = t0\n101907: ra = 1166, jump @1284\n      : @1346 [@dyn 583] (gas: 5)\n101913: sp = s0 + 0xffffffffffffffb0\n101916: ra = u64 [sp + 0x48]\n101919: s0 = u64 [sp + 0x40]\n101922: sp = sp + 0x50\n101925: ret\n      : @1347 (gas: 6)\n101927: s1 = 0x20070\n101932: a4 = i32 [sp + 0x110]\n101936: a2 = u64 [sp + 0x100]\n101940: a0 = i32 [0x20070]\n101945: a1 = u64 [sp + 0x108]\n101949: jump @1350 if a0 == 0\n      : @1348 (gas: 9)\n101952: u64 [sp] = a0\n101954: a0 = 0x30080\n101959: i32 a0 = a0 + 0\n101961: u64 [sp + 0x8] = a1\n101964: i32 a1 = s1 + 0\n101966: u64 [sp + 0x18] = a4\n101969: u64 [sp + 0x10] = a2\n101972: ecalli 7 // 'get_immutable_data'\n101974: fallthrough\n      : @1349 (gas: 7)\n101975: a1 = u64 [sp + 0x8]\n101978: a2 = u64 [sp + 0x10]\n101981: a4 = u64 [sp + 0x18]\n101984: a0 = i32 [0x20070]\n101989: u32 [0x20070] = 0\n101994: a3 = u64 [sp]\n101996: jump @1358 if a0 <u a3\n      : @1350 (gas: 19)\n102000: a0 = reverse a1\n102002: a1 = a0 >> 0x20\n102005: a2 = reverse a2\n102007: a3 = a2 << 0x20\n102010: a1 = a1 | a3\n102013: a0 = a0 << 0x20\n102016: a4 = reverse a4\n102018: a4 = a4 >> 0x20\n102021: a0 = a0 | a4\n102024: a4 = u64 [0x300c0]\n102029: a5 = u32 [0x300d0]\n102034: a2 = a2 >> 0x20\n102037: a3 = u64 [0x300c8]\n102042: a0 = a0 ^ a4\n102045: a2 = a2 ^ a5\n102048: a0 = a0 | a2\n102051: a1 = a1 ^ a3\n102054: a0 = a0 | a1\n102057: jump @1353 if a0 != 0\n      : @1351 (gas: 24)\n102060: a0 = u64 [sp + 0x28]\n102063: u64 [sp + 0x60] = a0\n102066: a0 = u64 [sp + 0x20]\n102069: u64 [sp + 0x80] = a0\n102073: u64 [sp + 184] = 0\n102077: u64 [sp + 176] = 0\n102081: u64 [sp + 168] = 0\n102085: u64 [sp + 160] = 0\n102089: a0 = u64 [sp + 0x38]\n102092: u64 [sp + 0x68] = a0\n102095: a0 = u64 [sp + 0x30]\n102098: u64 [sp + 0x88] = a0\n102102: a0 = u64 [sp + 0x48]\n102105: u64 [sp + 0x70] = a0\n102108: a0 = u64 [sp + 0x40]\n102111: u64 [sp + 0x90] = a0\n102115: a0 = u64 [sp + 0x50]\n102118: u64 [sp + 0x78] = a0\n102121: a0 = sp + 0xa0\n102125: a1 = sp + 0x80\n102129: a2 = sp + 0x60\n102132: a3 = u64 [sp + 0x58]\n102135: u64 [sp + 0x98] = a3\n102139: ra = 1168, jump @1300\n      : @1352 [@dyn 584] (gas: 6)\n102145: sp = s0 + 0xfffffffffffffec0\n102149: ra = u64 [sp + 0x138]\n102153: s0 = u64 [sp + 0x130]\n102157: s1 = u64 [sp + 0x128]\n102161: sp = sp + 0x140\n102165: ret\n      : @1353 (gas: 3)\n102167: a0 = 0x40\n102170: a1 = 0x20\n102173: ra = 1170, jump @0\n      : @1354 [@dyn 585] (gas: 103)\n102180: a1 = u8 [a0 + 0x11]\n102183: a2 = u8 [a0 + 0x10]\n102186: a3 = u8 [a0 + 0x12]\n102189: a4 = u8 [a0 + 0x13]\n102192: a1 = a1 << 0x8\n102195: a1 = a1 | a2\n102198: a3 = a3 << 0x10\n102201: a4 = a4 << 0x18\n102204: a3 = a3 | a4\n102207: a1 = a1 | a3\n102210: a2 = u8 [a0 + 0x15]\n102213: a3 = u8 [a0 + 0x14]\n102216: a4 = u8 [a0 + 0x16]\n102219: a5 = u8 [a0 + 0x17]\n102222: a2 = a2 << 0x8\n102225: a2 = a2 | a3\n102228: a4 = a4 << 0x10\n102231: a5 = a5 << 0x18\n102234: a4 = a4 | a5\n102237: a2 = a2 | a4\n102240: a2 = a2 << 0x20\n102243: t0 = a2 | a1\n102246: a2 = u8 [a0 + 0x1]\n102249: a3 = u8 [a0]\n102251: a4 = u8 [a0 + 0x2]\n102254: a5 = u8 [a0 + 0x3]\n102257: a2 = a2 << 0x8\n102260: a2 = a2 | a3\n102263: a4 = a4 << 0x10\n102266: a5 = a5 << 0x18\n102269: a4 = a4 | a5\n102272: a2 = a2 | a4\n102275: a3 = u8 [a0 + 0x5]\n102278: a4 = u8 [a0 + 0x4]\n102281: a5 = u8 [a0 + 0x6]\n102284: s1 = u8 [a0 + 0x7]\n102287: a3 = a3 << 0x8\n102290: a3 = a3 | a4\n102293: a5 = a5 << 0x10\n102296: s1 = s1 << 0x18\n102299: a5 = a5 | s1\n102302: a3 = a3 | a5\n102305: a3 = a3 << 0x20\n102308: a2 = a2 | a3\n102311: a3 = u8 [a0 + 0x19]\n102314: a4 = u8 [a0 + 0x18]\n102317: a5 = u8 [a0 + 0x1a]\n102320: s1 = u8 [a0 + 0x1b]\n102323: a3 = a3 << 0x8\n102326: a3 = a3 | a4\n102329: a5 = a5 << 0x10\n102332: s1 = s1 << 0x18\n102335: a5 = a5 | s1\n102338: a3 = a3 | a5\n102341: a4 = u8 [a0 + 0x1d]\n102344: a5 = u8 [a0 + 0x1c]\n102347: s1 = u8 [a0 + 0x1e]\n102350: a1 = u8 [a0 + 0x1f]\n102353: a4 = a4 << 0x8\n102356: a4 = a4 | a5\n102359: s1 = s1 << 0x10\n102362: a1 = a1 << 0x18\n102365: a1 = a1 | s1\n102368: a1 = a1 | a4\n102371: a1 = a1 << 0x20\n102374: a3 = a3 | a1\n102377: a1 = u8 [a0 + 0x9]\n102380: a4 = u8 [a0 + 0x8]\n102383: a5 = u8 [a0 + 0xa]\n102386: s1 = u8 [a0 + 0xb]\n102389: a1 = a1 << 0x8\n102392: a1 = a1 | a4\n102395: a5 = a5 << 0x10\n102398: s1 = s1 << 0x18\n102401: a5 = a5 | s1\n102404: a1 = a1 | a5\n102407: a4 = u8 [a0 + 0xd]\n102410: a5 = u8 [a0 + 0xc]\n102413: s1 = u8 [a0 + 0xe]\n102416: a0 = u8 [a0 + 0xf]\n102419: a4 = a4 << 0x8\n102422: a4 = a4 | a5\n102425: s1 = s1 << 0x10\n102428: a0 = a0 << 0x18\n102431: a0 = a0 | s1\n102434: a0 = a0 | a4\n102437: a0 = a0 << 0x20\n102440: a0 = a0 | a1\n102443: s1 = reverse a0\n102445: a1 = reverse a3\n102447: a2 = reverse a2\n102449: a0 = reverse t0\n102451: u64 [sp + 0x58] = a0\n102454: u64 [sp + 0x50] = a2\n102457: a0 = a0 | a2\n102460: a2 = a1\n102462: a1 = a1 | s1\n102465: a1 = a1 | a0\n102468: a1 = a1 >> 0x20\n102471: a0 = a0 | s1\n102474: a0 = a0 << 0x20\n102477: a0 = a0 | a1\n102480: jump @1358 if a0 != 0\n      : @1355 (gas: 5)\n102484: u64 [sp + 0x48] = a2\n102487: i32 a0 = a2 + 0\n102489: a1 = 0x20\n102492: u64 [sp + 0x40] = a0\n102495: ra = 1172, jump @0\n      : @1356 [@dyn 586] (gas: 50)\n102502: u8 [a0 + 31] = 0\n102505: u8 [a0 + 30] = 0\n102508: u8 [a0 + 29] = 0\n102511: u8 [a0 + 28] = 0\n102514: u8 [a0 + 27] = 0\n102517: u8 [a0 + 26] = 0\n102520: u8 [a0 + 25] = 0\n102523: u8 [a0 + 24] = 0\n102526: u8 [a0 + 23] = 0\n102529: u8 [a0 + 22] = 0\n102532: u8 [a0 + 21] = 0\n102535: u8 [a0 + 20] = 0\n102538: u8 [a0 + 19] = 0\n102541: u8 [a0 + 18] = 0\n102544: u8 [a0 + 17] = 0\n102547: u8 [a0 + 16] = 0\n102550: u8 [a0 + 15] = 0\n102553: u8 [a0 + 14] = 0\n102556: u8 [a0 + 13] = 0\n102559: u8 [a0 + 12] = 0\n102562: u8 [a0 + 11] = 0\n102565: u8 [a0 + 10] = 0\n102568: u8 [a0 + 9] = 0\n102571: u8 [a0 + 8] = 0\n102574: u8 [a0 + 7] = 0\n102577: u8 [a0 + 6] = 0\n102580: u8 [a0 + 5] = 0\n102583: u8 [a0 + 4] = 0\n102586: u8 [a0 + 3] = 0xa0\n102591: u8 [a0 + 2] = 0x79\n102595: u8 [a0 + 1] = 0xc3\n102600: u8 [a0 + 0] = 0x8\n102603: a1 = u64 [sp + 0x48]\n102606: a0 = a1 + 0x4\n102609: a1 = a0 <u a1\n102612: a3 = u64 [sp + 0x58]\n102615: a2 = a3 + a1\n102618: a3 = a2 <u a3\n102621: a3 = a1 if a1 == 0\n102624: a3 = a3 + s1\n102627: a1 = a3 <u s1\n102630: a4 = u64 [sp + 0x50]\n102633: a4 = a4 + a1\n102636: u64 [sp + 0xc8] = a2\n102640: u64 [sp + 0xc0] = a0\n102644: u64 [sp + 0xd0] = a3\n102648: a0 = sp + 0xe0\n102652: a1 = sp + 0xc0\n102656: u64 [sp + 0xd8] = a4\n102660: ra = 1174, jump @743\n      : @1357 [@dyn 587] (gas: 30)\n102667: a0 = u64 [sp + 0xe8]\n102671: t0 = u64 [sp + 0xf8]\n102675: t1 = u64 [sp + 0xe0]\n102679: a3 = u64 [sp + 0xf0]\n102683: a1 = u64 [sp + 0x58]\n102686: a4 = a0 ^ a1\n102689: a5 = a0 <u a1\n102692: t2 = a1\n102694: a2 = u64 [sp + 0x48]\n102697: a1 = t1 <u a2\n102700: a5 = a1 if a4 == 0\n102703: a4 = a3 - s1\n102706: a3 = a3 <u s1\n102709: s1 = u64 [sp + 0x50]\n102712: s1 = t0 - s1\n102715: s1 = s1 - a3\n102718: a3 = a4 <u a5\n102721: s1 = s1 - a3\n102724: a4 = a4 - a5\n102727: a0 = a0 - t2\n102730: a1 = a0 - a1\n102733: a0 = t1 - a2\n102736: a1 = a1 | s1\n102739: a2 = a0 | a4\n102742: a2 = a2 | a1\n102745: a1 = a1 | a4\n102748: a2 = a2 >> 0x20\n102751: a1 = a1 << 0x20\n102754: a1 = a1 | a2\n102757: jump @1359 if a1 == 0\n      : @1358 (gas: 1)\n102760: trap\n      : @1359 (gas: 4)\n102761: i32 s1 = a0 + 0\n102763: a0 = u64 [sp + 0x40]\n102766: a1 = s1\n102768: ra = 1176, jump @0\n      : @1360 [@dyn 588] (gas: 6)\n102775: i32 a1 = a0 + 0\n102777: a0 = 0x1\n102780: a2 = s1\n102782: ra = 0x49a\n102786: ecalli 14 // 'seal_return'\n102788: fallthrough\n      : @1361 [@dyn 589] (gas: 29)\n102789: sp = sp + 0xffffffffffffff90\n102792: u64 [sp + 0x68] = ra\n102795: u64 [sp + 0x60] = s0\n102798: s0 = sp + 0x70\n102801: sp = sp & 0xfffffffffffffff0\n102804: t0 = u64 [a0]\n102806: t1 = u64 [a0 + 0x8]\n102809: a4 = u64 [a0 + 0x10]\n102812: a0 = u64 [a0 + 0x18]\n102815: a5 = u64 [a1]\n102817: a3 = u64 [a1 + 0x8]\n102820: a2 = u64 [a1 + 0x10]\n102823: a1 = u64 [a1 + 0x18]\n102826: u64 [sp + 88] = 0\n102829: u64 [sp + 80] = 0\n102832: u64 [sp + 72] = 0\n102835: u64 [sp + 64] = 0\n102838: u64 [sp + 0x18] = a1\n102841: u64 [sp + 0x10] = a2\n102844: u64 [sp + 0x8] = a3\n102847: u64 [sp] = a5\n102849: u64 [sp + 0x38] = a0\n102852: u64 [sp + 0x30] = a4\n102855: u64 [sp + 0x28] = t1\n102858: a0 = sp + 0x40\n102861: a1 = sp + 0x20\n102864: a2 = sp\n102866: u64 [sp + 0x20] = t0\n102869: ra = 1180, jump @1300\n      : @1362 [@dyn 590] (gas: 5)\n102875: sp = s0 + 0xffffffffffffff90\n102878: ra = u64 [sp + 0x68]\n102881: s0 = u64 [sp + 0x60]\n102884: sp = sp + 0x70\n102887: ret\n      : @1363 (gas: 42)\n102889: sp = sp + 0xfffffffffffffde0\n102893: u64 [sp + 0x218] = ra\n102897: u64 [sp + 0x210] = s0\n102901: u64 [sp + 0x208] = s1\n102905: s0 = sp + 0x220\n102909: sp = sp & 0xffffffffffffffe0\n102912: s1 = u64 [a2 + 0x8]\n102915: t2 = u64 [a1 + 0x8]\n102918: a5 = u64 [a2]\n102920: ra = u64 [a1]\n102922: t1 = u64 [a2 + 0x10]\n102925: a4 = s1 ^ t2\n102928: a3 = s1 <u t2\n102931: t0 = a5 <u ra\n102934: a3 = t0 if a4 == 0\n102937: u64 [sp + 0x90] = s1\n102941: a4 = s1 - t2\n102944: a4 = a4 - t0\n102947: u64 [sp + 0x88] = a5\n102951: a5 = a5 - ra\n102954: a5 = a5 <u 0x60\n102957: a5 = a5 ^ 0x1\n102960: t0 = u64 [a1 + 0x10]\n102963: s1 = a4 >u 0\n102965: a5 = s1 if a4 != 0\n102968: a4 = u64 [a2 + 0x18]\n102971: s1 = u64 [a1 + 0x18]\n102974: a1 = t1 - t0\n102977: a2 = a1 - a3\n102980: a1 = a1 <u a3\n102983: u64 [sp + 0x80] = t1\n102987: a3 = t1 <u t0\n102990: u64 [sp + 0x78] = a4\n102993: a4 = a4 - s1\n102996: a4 = a4 - a3\n102999: a4 = a4 - a1\n103002: a1 = a4 >s 0\n103004: a3 = a2 >u 0\n103006: a3 = a1 if a4 != 0\n103009: a2 = a2 | a4\n103012: a5 = a3 if a2 != 0\n103015: jump @1381 if a5 == 0\n      : @1364 (gas: 10)\n103019: a2 = ra | t0\n103022: u64 [sp + 0x98] = t2\n103026: a1 = t2 | s1\n103029: a2 = a2 | a1\n103032: a2 = a2 >> 0x20\n103035: u64 [sp + 0x70] = t0\n103038: a1 = a1 | t0\n103041: a1 = a1 << 0x20\n103044: a1 = a1 | a2\n103047: jump @1380 if a1 != 0\n      : @1365 (gas: 8)\n103051: u64 [sp + 0x68] = s1\n103054: u64 [sp + 0x38] = a0\n103057: i32 a1 = ra + 0\n103059: i32 a0 = sp + 0x1a0\n103063: u64 [sp + 0x58] = a1\n103066: s1 = ra\n103068: ecalli 3 // 'call_data_load'\n103070: fallthrough\n      : @1366 (gas: 7)\n103071: a0 = u64 [sp + 0x1b8]\n103075: a1 = u64 [sp + 0x1b0]\n103079: a2 = u64 [sp + 0x1a8]\n103083: a3 = a1 | a0\n103086: a4 = a2 <u 0x1\n103089: a4 = 0 if a3 != 0\n103091: jump @1381 if a4 == 0\n      : @1367 (gas: 43)\n103095: a3 = u64 [sp + 0x1a0]\n103099: t0 = a3 + s1\n103102: a3 = t0 <u a3\n103105: a4 = u64 [sp + 0x98]\n103109: a4 = a4 + a2\n103112: t1 = a4 + a3\n103115: a4 = t1 ^ a2\n103118: u64 [sp + 0x60] = s1\n103121: s1 = t1 <u a2\n103124: s1 = a3 if a4 == 0\n103127: a2 = u64 [sp + 0x70]\n103130: a2 = a2 + a1\n103133: s1 = s1 + a2\n103136: a3 = s1 <u a2\n103139: a1 = a2 <u a1\n103142: a2 = u64 [sp + 0x68]\n103145: a0 = a0 + a2\n103148: a0 = a0 + a1\n103151: ra = a0 + a3\n103154: a0 = t0 + 0x1f\n103157: a1 = a0 <u t0\n103160: a2 = t1 + a1\n103163: a3 = a2 <u t1\n103166: a3 = a1 if a1 == 0\n103169: t2 = s1 + a3\n103172: a1 = t2 <u s1\n103175: a1 = a1 + ra\n103178: a5 = u64 [sp + 0x90]\n103182: a4 = a2 ^ a5\n103185: a2 = a2 <u a5\n103188: a5 = u64 [sp + 0x88]\n103192: a0 = a0 <u a5\n103195: a0 = a2 if a4 != 0\n103198: a5 = u64 [sp + 0x80]\n103202: a2 = t2 <u a5\n103205: a4 = u64 [sp + 0x78]\n103208: a3 = a1 ^ a4\n103211: a1 = a1 <s a4\n103214: a1 = a2 if a3 == 0\n103217: a2 = t2 ^ a5\n103220: a2 = a2 | a3\n103223: a0 = a1 if a2 != 0\n103226: jump @1382 if a0 == 0\n      : @1368 (gas: 11)\n103230: a0 = t0 | s1\n103233: u64 [sp + 0x50] = t1\n103236: u64 [sp + 0x40] = ra\n103239: a1 = t1 | ra\n103242: a0 = a0 | a1\n103245: a0 = a0 >> 0x20\n103248: u64 [sp + 0x48] = s1\n103251: a1 = a1 | s1\n103254: a1 = a1 << 0x20\n103257: a0 = a0 | a1\n103260: jump @1380 if a0 != 0\n      : @1369 (gas: 40)\n103264: i32 a1 = t0 + 0\n103266: i32 a0 = sp + 0x1e0\n103270: s1 = t0\n103272: ecalli 3 // 'call_data_load'\n103274: t0 = u64 [sp + 0x1e0]\n103278: t1 = u64 [sp + 0x1e8]\n103282: a2 = u64 [sp + 0x1f0]\n103286: a3 = u64 [sp + 0x1f8]\n103290: a4 = s1 + 0x20\n103293: a5 = a4 <u s1\n103296: a1 = u64 [sp + 0x50]\n103299: a0 = a1 + a5\n103302: a1 = a0 <u a1\n103305: a1 = a5 if a5 == 0\n103308: a5 = u64 [sp + 0x48]\n103311: a1 = a1 + a5\n103314: a5 = a1 <u a5\n103317: s1 = u64 [sp + 0x40]\n103320: a5 = a5 + s1\n103323: s1 = u64 [sp + 0x78]\n103326: u64 [sp + 0x138] = s1\n103330: s1 = u64 [sp + 0x80]\n103334: u64 [sp + 0x130] = s1\n103338: s1 = u64 [sp + 0x90]\n103342: u64 [sp + 0x128] = s1\n103346: s1 = u64 [sp + 0x88]\n103350: u64 [sp + 0x120] = s1\n103354: u64 [sp + 0x158] = a3\n103358: u64 [sp + 0x150] = a2\n103362: u64 [sp + 0x148] = t1\n103366: u64 [sp + 0x140] = t0\n103370: u64 [sp + 0x168] = a0\n103374: u64 [sp + 0x160] = a4\n103378: u64 [sp + 0x170] = a1\n103382: a0 = sp + 0x180\n103386: a1 = sp + 0x160\n103390: a2 = sp + 0x140\n103394: a3 = sp + 0x120\n103398: u64 [sp + 0x178] = a5\n103402: ra = 1182, jump @1054\n      : @1370 [@dyn 591] (gas: 10)\n103408: a0 = u64 [sp + 0x70]\n103411: s1 = u64 [sp + 0x68]\n103414: s1 = s1 | a0\n103417: a0 = 0xffffffe0\n103427: a1 = u64 [sp + 0x60]\n103430: a0 = a1 <u a0\n103433: a1 = u64 [sp + 0x98]\n103437: a0 = 0 if a1 != 0\n103439: a0 = 0 if s1 != 0\n103441: jump @1380 if a0 == 0\n      : @1371 (gas: 13)\n103445: a0 = u64 [sp + 0x198]\n103449: u64 [sp + 0x30] = a0\n103452: a0 = u64 [sp + 0x190]\n103456: u64 [sp + 0x40] = a0\n103459: a0 = u64 [sp + 0x188]\n103463: u64 [sp + 0x48] = a0\n103466: a0 = u64 [sp + 0x180]\n103470: u64 [sp + 0x50] = a0\n103473: a0 = u64 [sp + 0x58]\n103476: i32 a1 = a0 + 0x20\n103479: i32 a0 = sp + 0x1e0\n103483: ecalli 3 // 'call_data_load'\n103485: fallthrough\n      : @1372 (gas: 7)\n103486: a4 = u64 [sp + 0x1f8]\n103490: a3 = u64 [sp + 0x1f0]\n103494: a2 = u64 [sp + 0x1e8]\n103498: a0 = a3 | a4\n103501: a1 = a2 <u 0x1\n103504: a1 = 0 if a0 != 0\n103506: jump @1384 if a1 == 0\n      : @1373 (gas: 10)\n103510: u64 [sp + 0x18] = a4\n103513: u64 [sp + 0x20] = a3\n103516: u64 [sp + 0x28] = a2\n103519: a0 = 0xffffffc0\n103529: a1 = u64 [sp + 0x60]\n103532: a0 = a1 <u a0\n103535: a1 = u64 [sp + 0x98]\n103539: a0 = 0 if a1 != 0\n103541: a0 = 0 if s1 != 0\n103543: jump @1380 if a0 == 0\n      : @1374 (gas: 7)\n103547: a0 = u64 [sp + 0x1e0]\n103551: u64 [sp + 0x10] = a0\n103554: a0 = u64 [sp + 0x58]\n103557: i32 a1 = a0 + 0x40\n103560: i32 a0 = sp + 0x1c0\n103564: ecalli 3 // 'call_data_load'\n103566: fallthrough\n      : @1375 (gas: 7)\n103567: a0 = u64 [sp + 0x1d8]\n103571: a1 = u64 [sp + 0x1d0]\n103575: a2 = u64 [sp + 0x1c8]\n103579: a3 = a1 | a0\n103582: a4 = a2 <u 0x1\n103585: a4 = 0 if a3 != 0\n103587: jump @1381 if a4 == 0\n      : @1376 (gas: 43)\n103591: a3 = u64 [sp + 0x1c0]\n103595: a4 = u64 [sp + 0x60]\n103598: t0 = a3 + a4\n103601: a3 = t0 <u a3\n103604: a4 = u64 [sp + 0x98]\n103608: a4 = a4 + a2\n103611: t1 = a4 + a3\n103614: a4 = t1 ^ a2\n103617: s1 = t1 <u a2\n103620: s1 = a3 if a4 == 0\n103623: a2 = u64 [sp + 0x70]\n103626: a2 = a2 + a1\n103629: s1 = s1 + a2\n103632: a3 = s1 <u a2\n103635: a1 = a2 <u a1\n103638: a2 = u64 [sp + 0x68]\n103641: a0 = a0 + a2\n103644: a0 = a0 + a1\n103647: ra = a0 + a3\n103650: a0 = t0 + 0x1f\n103653: a1 = a0 <u t0\n103656: a2 = t1 + a1\n103659: a3 = a2 <u t1\n103662: a3 = a1 if a1 == 0\n103665: t2 = s1 + a3\n103668: a1 = t2 <u s1\n103671: a1 = a1 + ra\n103674: a5 = u64 [sp + 0x90]\n103678: a4 = a2 ^ a5\n103681: a2 = a2 <u a5\n103684: a5 = u64 [sp + 0x88]\n103688: a0 = a0 <u a5\n103691: a0 = a2 if a4 != 0\n103694: a5 = u64 [sp + 0x80]\n103698: a2 = t2 <u a5\n103701: a4 = u64 [sp + 0x78]\n103704: a3 = a1 ^ a4\n103707: a1 = a1 <u a4\n103710: a1 = a2 if a3 == 0\n103713: a2 = t2 ^ a5\n103716: a2 = a2 | a3\n103719: a0 = a1 if a2 != 0\n103722: jump @1382 if a0 == 0\n      : @1377 (gas: 11)\n103726: a0 = t0 | s1\n103729: u64 [sp + 0x98] = t1\n103733: u64 [sp + 0x68] = ra\n103736: a1 = t1 | ra\n103739: a0 = a0 | a1\n103742: a0 = a0 >> 0x20\n103745: u64 [sp + 0x70] = s1\n103748: a1 = a1 | s1\n103751: a1 = a1 << 0x20\n103754: a0 = a0 | a1\n103757: jump @1380 if a0 != 0\n      : @1378 (gas: 40)\n103761: i32 a1 = t0 + 0\n103763: i32 a0 = sp + 0x1e0\n103767: s1 = t0\n103769: ecalli 3 // 'call_data_load'\n103771: t0 = u64 [sp + 0x1e0]\n103775: t1 = u64 [sp + 0x1e8]\n103779: a2 = u64 [sp + 0x1f0]\n103783: a3 = u64 [sp + 0x1f8]\n103787: a4 = s1 + 0x20\n103790: a5 = a4 <u s1\n103793: a1 = u64 [sp + 0x98]\n103797: a0 = a1 + a5\n103800: a1 = a0 <u a1\n103803: a1 = a5 if a5 == 0\n103806: a5 = u64 [sp + 0x70]\n103809: a1 = a1 + a5\n103812: a5 = a1 <u a5\n103815: s1 = u64 [sp + 0x68]\n103818: a5 = a5 + s1\n103821: s1 = u64 [sp + 0x78]\n103824: u64 [sp + 0xb8] = s1\n103828: s1 = u64 [sp + 0x80]\n103832: u64 [sp + 0xb0] = s1\n103836: s1 = u64 [sp + 0x90]\n103840: u64 [sp + 0xa8] = s1\n103844: s1 = u64 [sp + 0x88]\n103848: u64 [sp + 0xa0] = s1\n103852: u64 [sp + 0xd8] = a3\n103856: u64 [sp + 0xd0] = a2\n103860: u64 [sp + 0xc8] = t1\n103864: u64 [sp + 0xc0] = t0\n103868: u64 [sp + 0xe8] = a0\n103872: u64 [sp + 0xe0] = a4\n103876: u64 [sp + 0xf0] = a1\n103880: a0 = sp + 0x100\n103884: a1 = sp + 0xe0\n103888: a2 = sp + 0xc0\n103892: a3 = sp + 0xa0\n103896: u64 [sp + 0xf8] = a5\n103900: ra = 1184, jump @1054\n      : @1379 [@dyn 592] (gas: 31)\n103906: a0 = u64 [sp + 0x118]\n103910: a1 = u64 [sp + 0x110]\n103914: a2 = u64 [sp + 0x108]\n103918: a3 = u64 [sp + 0x100]\n103922: a4 = u64 [sp + 0x38]\n103925: u64 [a4 + 0x58] = a0\n103928: u64 [a4 + 0x50] = a1\n103931: u64 [a4 + 0x48] = a2\n103934: u64 [a4 + 0x40] = a3\n103937: a0 = u64 [sp + 0x18]\n103940: u64 [a4 + 0x38] = a0\n103943: a0 = u64 [sp + 0x20]\n103946: u64 [a4 + 0x30] = a0\n103949: a0 = u64 [sp + 0x28]\n103952: u64 [a4 + 0x28] = a0\n103955: a0 = u64 [sp + 0x10]\n103958: u64 [a4 + 0x20] = a0\n103961: a0 = u64 [sp + 0x30]\n103964: u64 [a4 + 0x18] = a0\n103967: a0 = u64 [sp + 0x40]\n103970: u64 [a4 + 0x10] = a0\n103973: a0 = u64 [sp + 0x48]\n103976: u64 [a4 + 0x8] = a0\n103979: a0 = u64 [sp + 0x50]\n103982: u64 [a4] = a0\n103984: sp = s0 + 0xfffffffffffffde0\n103988: ra = u64 [sp + 0x218]\n103992: s0 = u64 [sp + 0x210]\n103996: s1 = u64 [sp + 0x208]\n104000: sp = sp + 0x220\n104004: ret\n      : @1380 (gas: 1)\n104006: trap\n      : @1381 (gas: 4)\n104007: a0 = 0\n104009: a1 = 0\n104011: ra = 0x4a2\n104015: jump @0\n      : @1382 (gas: 2)\n104019: a1 = 0\n104021: ra = 1186, jump @0\n      : @1383 [@dyn 593] (gas: 7)\n104028: i32 a1 = a0 + 0\n104030: a0 = 0x1\n104033: a2 = 0\n104035: ecalli 14 // 'seal_return'\n104037: a0 = 0\n104039: ra = 0x4a2\n104043: jump @0\n      : @1384 (gas: 3)\n104047: a0 = 0\n104049: ra = 0x4a2\n104053: jump @0\n      : @1385 (gas: 17)\n104057: sp = sp + 0xffffffffffffffa0\n104060: u64 [sp + 0x58] = ra\n104063: u64 [sp + 0x50] = s0\n104066: u64 [sp + 0x48] = s1\n104069: a3 = u64 [a1 + 0x18]\n104072: a4 = u64 [a1 + 0x10]\n104075: a5 = u64 [a1 + 0x8]\n104078: s1 = u64 [a1]\n104080: a1 = a5 | a3\n104083: a2 = s1 | a4\n104086: a2 = a2 | a1\n104089: a2 = a2 >> 0x20\n104092: a1 = a1 | a4\n104095: a1 = a1 << 0x20\n104098: a1 = a1 | a2\n104101: u64 [sp + 0x20] = a0\n104104: jump @1394 if a1 != 0\n      : @1386 (gas: 19)\n104108: a0 = s1 + 0x20\n104111: u64 [sp + 0x40] = a0\n104114: a0 = a0 <u s1\n104117: a1 = a5 + a0\n104120: u64 [sp + 0x38] = a1\n104123: u64 [sp + 0x8] = a5\n104126: s0 = a1 <u a5\n104129: s0 = a0 if a0 == 0\n104132: s0 = s0 + a4\n104135: u64 [sp + 0x10] = a4\n104138: a0 = s0 <u a4\n104141: u64 [sp + 0x18] = a3\n104144: a0 = a0 + a3\n104147: u64 [sp + 0x30] = a0\n104150: u64 [sp] = s1\n104152: i32 a0 = s1 + 0\n104154: a1 = 0x20\n104157: s1 = 0x20\n104160: ra = 1188, jump @0\n      : @1387 [@dyn 594] (gas: 43)\n104167: u8 [a0 + 0x1f] = s1\n104170: a1 = u64 [sp + 0x40]\n104173: a1 = a1 | s0\n104176: a2 = u64 [sp + 0x38]\n104179: a3 = u64 [sp + 0x30]\n104182: a2 = a2 | a3\n104185: a1 = a1 | a2\n104188: a1 = a1 >> 0x20\n104191: a2 = a2 | s0\n104194: a2 = a2 << 0x20\n104197: a1 = a1 | a2\n104200: u8 [a0 + 30] = 0\n104203: u8 [a0 + 29] = 0\n104206: u8 [a0 + 28] = 0\n104209: u8 [a0 + 27] = 0\n104212: u8 [a0 + 26] = 0\n104215: u8 [a0 + 25] = 0\n104218: u8 [a0 + 24] = 0\n104221: u8 [a0 + 23] = 0\n104224: u8 [a0 + 22] = 0\n104227: u8 [a0 + 21] = 0\n104230: u8 [a0 + 20] = 0\n104233: u8 [a0 + 19] = 0\n104236: u8 [a0 + 18] = 0\n104239: u8 [a0 + 17] = 0\n104242: u8 [a0 + 16] = 0\n104245: u8 [a0 + 15] = 0\n104248: u8 [a0 + 14] = 0\n104251: u8 [a0 + 13] = 0\n104254: u8 [a0 + 12] = 0\n104257: u8 [a0 + 11] = 0\n104260: u8 [a0 + 10] = 0\n104263: u8 [a0 + 9] = 0\n104266: u8 [a0 + 8] = 0\n104269: u8 [a0 + 7] = 0\n104272: u8 [a0 + 6] = 0\n104275: u8 [a0 + 5] = 0\n104278: u8 [a0 + 4] = 0\n104281: u8 [a0 + 3] = 0\n104284: u8 [a0 + 2] = 0\n104287: u8 [a0 + 1] = 0\n104290: u8 [a0 + 0] = 0\n104292: jump @1394 if a1 != 0\n      : @1388 (gas: 6)\n104296: s1 = s0\n104298: s0 = u64 [sp + 0x40]\n104301: i32 a0 = s0 + 0\n104303: a1 = 0x20\n104306: u64 [sp + 0x28] = a0\n104309: ra = 1190, jump @0\n      : @1389 [@dyn 595] (gas: 42)\n104316: u8 [a0 + 31] = 0x24\n104320: u8 [a0 + 30] = 0\n104323: u8 [a0 + 29] = 0\n104326: u8 [a0 + 28] = 0\n104329: u8 [a0 + 27] = 0\n104332: u8 [a0 + 26] = 0\n104335: u8 [a0 + 25] = 0\n104338: u8 [a0 + 24] = 0\n104341: u8 [a0 + 23] = 0\n104344: u8 [a0 + 22] = 0\n104347: u8 [a0 + 21] = 0\n104350: u8 [a0 + 20] = 0\n104353: u8 [a0 + 19] = 0\n104356: u8 [a0 + 18] = 0\n104359: u8 [a0 + 17] = 0\n104362: u8 [a0 + 16] = 0\n104365: u8 [a0 + 15] = 0\n104368: u8 [a0 + 14] = 0\n104371: u8 [a0 + 13] = 0\n104374: u8 [a0 + 12] = 0\n104377: u8 [a0 + 11] = 0\n104380: u8 [a0 + 10] = 0\n104383: u8 [a0 + 9] = 0\n104386: u8 [a0 + 8] = 0\n104389: u8 [a0 + 7] = 0\n104392: u8 [a0 + 6] = 0\n104395: u8 [a0 + 5] = 0\n104398: u8 [a0 + 4] = 0\n104401: u8 [a0 + 3] = 0\n104404: u8 [a0 + 2] = 0\n104407: u8 [a0 + 1] = 0\n104410: a1 = u64 [sp + 0x30]\n104413: a2 = s1 | a1\n104416: s1 = 0x100000000\n104426: a1 = 0xffffffe0\n104436: a1 = s0 <u a1\n104439: s0 = u64 [sp + 0x38]\n104442: a1 = 0 if s0 != 0\n104444: u64 [sp + 0x30] = a2\n104447: a1 = 0 if a2 != 0\n104449: u8 [a0 + 0] = 0\n104451: jump @1394 if a1 == 0\n      : @1390 (gas: 4)\n104455: a0 = u64 [sp + 0x28]\n104458: i32 a0 = a0 + 0x20\n104461: a1 = 0x20\n104464: ra = 1192, jump @0\n      : @1391 [@dyn 596] (gas: 41)\n104471: u8 [a0 + 31] = 0x70\n104475: u8 [a0 + 30] = 0x78\n104479: u8 [a0 + 28] = 0x20\n104483: u8 [a0 + 18] = 0x20\n104487: u8 [a0 + 17] = 0x3a\n104491: u8 [a0 + 13] = 0x66\n104495: u8 [a0 + 9] = 0x56\n104499: u8 [a0 + 25] = 0x75\n104503: u8 [a0 + 6] = 0x75\n104507: u8 [a0 + 24] = 0x74\n104511: u8 [a0 + 5] = 0x74\n104515: u8 [a0 + 23] = 0x61\n104519: u8 [a0 + 4] = 0x61\n104523: u8 [a0 + 22] = 0x6e\n104527: u8 [a0 + 3] = 0x6e\n104531: u8 [a0 + 21] = 0x67\n104535: u8 [a0 + 2] = 0x67\n104539: u8 [a0 + 19] = 0x53\n104543: u8 [a0 + 0] = 0x53\n104546: a1 = s1 + 0xffffffffffffffc0\n104549: a2 = u64 [sp + 0x40]\n104552: a1 = a2 <u a1\n104555: s1 = 0x65\n104558: u8 [a0 + 0x1d] = s1\n104561: u8 [a0 + 0x1b] = s1\n104564: a1 = 0 if s0 != 0\n104566: u8 [a0 + 26] = 0x72\n104570: a2 = u64 [sp + 0x30]\n104573: a1 = 0 if a2 != 0\n104575: s0 = 0x69\n104578: u8 [a0 + 0x14] = s0\n104581: u8 [a0 + 16] = 0x72\n104585: u8 [a0 + 0xf] = s1\n104588: u8 [a0 + 0xe] = s0\n104591: u8 [a0 + 0xc] = s0\n104594: u8 [a0 + 11] = 0x72\n104598: u8 [a0 + 0xa] = s1\n104601: u8 [a0 + 0x8] = s1\n104604: u8 [a0 + 7] = 0x72\n104608: u8 [a0 + 0x1] = s0\n104611: jump @1394 if a1 == 0\n      : @1392 (gas: 4)\n104615: a0 = u64 [sp + 0x28]\n104618: i32 a0 = a0 + 0x40\n104621: a1 = 0x20\n104624: ra = 1194, jump @0\n      : @1393 [@dyn 597] (gas: 54)\n104631: u8 [a0 + 31] = 0\n104634: u8 [a0 + 30] = 0\n104637: u8 [a0 + 29] = 0\n104640: u8 [a0 + 28] = 0\n104643: u8 [a0 + 27] = 0\n104646: u8 [a0 + 26] = 0\n104649: u8 [a0 + 25] = 0\n104652: u8 [a0 + 24] = 0\n104655: u8 [a0 + 23] = 0\n104658: u8 [a0 + 22] = 0\n104661: u8 [a0 + 21] = 0\n104664: u8 [a0 + 20] = 0\n104667: u8 [a0 + 19] = 0\n104670: u8 [a0 + 18] = 0\n104673: u8 [a0 + 17] = 0\n104676: u8 [a0 + 16] = 0\n104679: u8 [a0 + 15] = 0\n104682: u8 [a0 + 14] = 0\n104685: u8 [a0 + 13] = 0\n104688: u8 [a0 + 12] = 0\n104691: u8 [a0 + 11] = 0\n104694: u8 [a0 + 10] = 0\n104697: u8 [a0 + 9] = 0\n104700: u8 [a0 + 8] = 0\n104703: u8 [a0 + 7] = 0\n104706: u8 [a0 + 6] = 0\n104709: u8 [a0 + 5] = 0\n104712: u8 [a0 + 4] = 0\n104715: u8 [a0 + 3] = 0x64\n104719: u8 [a0 + 0x2] = s1\n104722: u8 [a0 + 1] = 0x72\n104726: u8 [a0] = s0\n104728: a1 = u64 [sp]\n104730: a0 = a1 + 0x80\n104734: a1 = a0 <u a1\n104737: a3 = u64 [sp + 0x8]\n104740: a2 = a3 + a1\n104743: a3 = a2 <u a3\n104746: a3 = a1 if a1 == 0\n104749: a1 = u64 [sp + 0x10]\n104752: a3 = a3 + a1\n104755: a1 = a3 <u a1\n104758: a4 = u64 [sp + 0x18]\n104761: a1 = a1 + a4\n104764: a4 = u64 [sp + 0x20]\n104767: u64 [a4] = a0\n104769: u64 [a4 + 0x8] = a2\n104772: u64 [a4 + 0x10] = a3\n104775: u64 [a4 + 0x18] = a1\n104778: ra = u64 [sp + 0x58]\n104781: s0 = u64 [sp + 0x50]\n104784: s1 = u64 [sp + 0x48]\n104787: sp = sp + 0x60\n104790: ret\n      : @1394 (gas: 1)\n104792: trap\n      : @1395 [@dyn 598] (gas: 67)\n104793: a0 = u64 [sp + 0x380]\n104797: u64 [sp + 0x98] = a0\n104801: a0 = u64 [sp + 0x388]\n104805: u64 [sp + 0x90] = a0\n104809: a0 = u64 [sp + 0x390]\n104813: u64 [sp + 0x88] = a0\n104817: a0 = u64 [sp + 0x398]\n104821: u64 [sp + 0x80] = a0\n104825: a0 = u64 [sp + 0x360]\n104829: u64 [sp + 0xb8] = a0\n104833: a0 = u64 [sp + 0x368]\n104837: u64 [sp + 0x58] = a0\n104840: a0 = u64 [sp + 0x370]\n104844: u64 [sp + 0x48] = a0\n104847: a0 = u64 [sp + 0x378]\n104851: u64 [sp + 0x38] = a0\n104854: a0 = u64 [sp + 0x340]\n104858: u64 [sp + 0xa0] = a0\n104862: a0 = u64 [sp + 0x348]\n104866: u64 [sp + 0xa8] = a0\n104870: a0 = u64 [sp + 0x350]\n104874: u64 [sp + 0xb0] = a0\n104878: s1 = u64 [sp + 0x358]\n104882: i32 a0 = sp + 0x3a0\n104886: ecalli 0 // 'address'\n104887: a0 = u64 [sp + 0x3a8]\n104891: a1 = i32 [sp + 0x3b0]\n104895: a2 = u64 [sp + 0x3a0]\n104899: a0 = reverse a0\n104901: a3 = a0 << 0x20\n104904: a1 = reverse a1\n104906: a1 = a1 >> 0x20\n104909: a1 = a1 | a3\n104912: u64 [sp + 0x20] = a1\n104915: a0 = a0 >> 0x20\n104918: a1 = reverse a2\n104920: a2 = u32 [0x20078]\n104925: a3 = a1 << 0x20\n104928: a0 = a0 | a3\n104931: u64 [sp + 0x18] = a0\n104934: a1 = a1 >> 0x20\n104937: u64 [sp + 0x10] = a1\n104940: u64 [sp + 664] = 0\n104944: u64 [sp + 656] = 0\n104948: u64 [sp + 648] = 0\n104952: u64 [sp + 0x280] = a2\n104956: a0 = u64 [sp + 0x28]\n104959: u64 [sp + 0x2b8] = a0\n104963: a0 = u64 [sp + 0x30]\n104966: u64 [sp + 0x2b0] = a0\n104970: a0 = u64 [sp + 0x40]\n104973: u64 [sp + 0x2a8] = a0\n104977: a0 = u64 [sp + 0x50]\n104980: u64 [sp + 0x2a0] = a0\n104984: a0 = u64 [sp + 0x60]\n104987: u64 [sp + 0x2d8] = a0\n104991: a0 = u64 [sp + 0x68]\n104994: u64 [sp + 0x2d0] = a0\n104998: a0 = u64 [sp + 0x70]\n105001: u64 [sp + 0x2c8] = a0\n105005: a0 = sp + 0x2e0\n105009: a1 = sp + 0x2c0\n105013: a2 = sp + 0x2a0\n105017: a3 = sp + 0x280\n105021: a4 = u64 [sp + 0x78]\n105024: u64 [sp + 0x2c0] = a4\n105028: ra = 1198, jump @1054\n      : @1396 [@dyn 599] (gas: 37)\n105034: a0 = u64 [sp + 0x2e0]\n105038: a1 = u64 [sp + 0x2e8]\n105042: a2 = u64 [sp + 0x2f0]\n105046: a3 = u64 [sp + 0x2f8]\n105050: u64 [sp + 0x78] = s1\n105053: u64 [sp + 0x1f8] = s1\n105057: a4 = u64 [sp + 0xb0]\n105061: u64 [sp + 0x1f0] = a4\n105065: a4 = u64 [sp + 0xa8]\n105069: u64 [sp + 0x1e8] = a4\n105073: a4 = u64 [sp + 0xa0]\n105077: u64 [sp + 0x1e0] = a4\n105081: u64 [sp + 0x218] = a3\n105085: u64 [sp + 0x210] = a2\n105089: u64 [sp + 0x208] = a1\n105093: u64 [sp + 0x200] = a0\n105097: a0 = u64 [sp + 0x38]\n105100: u64 [sp + 0x238] = a0\n105104: a0 = u64 [sp + 0x48]\n105107: u64 [sp + 0x230] = a0\n105111: a0 = u64 [sp + 0x58]\n105114: u64 [sp + 0x228] = a0\n105118: a0 = u64 [sp + 0xb8]\n105122: u64 [sp + 0x220] = a0\n105126: a0 = u64 [sp + 0x10]\n105129: u64 [sp + 0x250] = a0\n105133: a0 = u64 [sp + 0x18]\n105136: u64 [sp + 0x248] = a0\n105140: a0 = u64 [sp + 0x20]\n105143: u64 [sp + 0x240] = a0\n105147: a0 = sp + 0x260\n105151: a1 = sp + 0x240\n105155: a2 = sp + 0x220\n105159: a3 = sp + 0x200\n105163: a4 = sp + 0x1e0\n105167: u64 [sp + 600] = 0\n105171: ra = 1200, jump @1492\n      : @1397 [@dyn 600] (gas: 20)\n105177: a3 = u64 [sp + 0x260]\n105181: a0 = u64 [sp + 0x268]\n105185: a1 = u64 [sp + 0x270]\n105189: a2 = u64 [sp + 0x278]\n105193: a4 = u64 [sp + 0x80]\n105197: u64 [sp + 0x158] = a4\n105201: a4 = u64 [sp + 0x88]\n105205: u64 [sp + 0x150] = a4\n105209: a4 = u64 [sp + 0x90]\n105213: u64 [sp + 0x148] = a4\n105217: a4 = u64 [sp + 0x98]\n105221: u64 [sp + 0x140] = a4\n105225: u64 [sp + 0x178] = a2\n105229: u64 [sp + 0x170] = a1\n105233: u64 [sp + 0x168] = a0\n105237: a0 = sp + 0x180\n105241: a1 = sp + 0x160\n105245: a2 = sp + 0x140\n105249: u64 [sp + 0x160] = a3\n105253: ra = 1202, jump @1521\n      : @1398 [@dyn 601] (gas: 27)\n105259: t1 = u64 [sp + 0x1d8]\n105263: a1 = u64 [sp + 0x1d0]\n105267: a2 = u64 [sp + 0x1c8]\n105271: a3 = u64 [sp + 0x1c0]\n105275: a4 = u64 [sp + 0x1b8]\n105279: a5 = u64 [sp + 0x1b0]\n105283: s1 = u64 [sp + 0x1a8]\n105287: t0 = u64 [sp + 0x1a0]\n105291: a0 = u64 [sp + 0x198]\n105295: u64 [sp + 0x98] = a0\n105299: a0 = u64 [sp + 0x190]\n105303: u64 [sp + 0x90] = a0\n105307: a0 = u64 [sp + 0x188]\n105311: u64 [sp + 0x88] = a0\n105315: a0 = u64 [sp + 0x180]\n105319: u64 [sp + 0x80] = a0\n105323: u64 [sp + 0x118] = t1\n105327: u64 [sp + 0x110] = a1\n105331: u64 [sp + 0x108] = a2\n105335: u64 [sp + 0x100] = a3\n105339: u64 [sp + 0x138] = a4\n105343: u64 [sp + 0x130] = a5\n105347: u64 [sp + 0x128] = s1\n105351: a0 = sp + 0x120\n105355: a1 = sp + 0x100\n105359: u64 [sp + 0x120] = t0\n105363: ra = 1204, jump @1536\n      : @1399 [@dyn 602] (gas: 3)\n105369: i32 a0 = sp + 0x3c0\n105373: ecalli 10 // 'now'\n105375: fallthrough\n      : @1400 (gas: 15)\n105376: a0 = u64 [sp + 0x3d8]\n105380: a1 = u64 [sp + 0x3d0]\n105384: a2 = u64 [sp + 0x3c8]\n105388: a3 = u64 [sp + 0x3c0]\n105392: a4 = a0 <u 0x1\n105395: a5 = a1 <u 0x1\n105398: a5 = a4 if a0 != 0\n105401: a4 = u64 [sp + 0xb8]\n105405: a3 = a4 <u a3\n105408: a3 = a3 ^ 0x1\n105411: a4 = a2 <u 0x1\n105414: a4 = a3 if a2 == 0\n105417: a0 = a0 | a1\n105420: a4 = a5 if a0 != 0\n105423: jump @1402 if a4 == 0\n      : @1401 (gas: 23)\n105426: a0 = u64 [sp + 0x8]\n105429: a1 = u64 [sp + 0xa0]\n105433: u64 [a0 + 0x20] = a1\n105436: a1 = u64 [sp + 0x80]\n105440: u64 [a0] = a1\n105442: a1 = u64 [sp + 0xa8]\n105446: u64 [a0 + 0x28] = a1\n105449: a1 = u64 [sp + 0x88]\n105453: u64 [a0 + 0x8] = a1\n105456: a1 = u64 [sp + 0xb0]\n105460: u64 [a0 + 0x30] = a1\n105463: a1 = u64 [sp + 0x90]\n105467: u64 [a0 + 0x10] = a1\n105470: a1 = u64 [sp + 0x78]\n105473: u64 [a0 + 0x38] = a1\n105476: a1 = u64 [sp + 0x98]\n105480: u64 [a0 + 0x18] = a1\n105483: sp = s0 + 0xfffffffffffffc00\n105487: ra = u64 [sp + 0x3f8]\n105491: s0 = u64 [sp + 0x3f0]\n105495: s1 = u64 [sp + 0x3e8]\n105499: sp = sp + 0x400\n105503: ret\n      : @1402 (gas: 3)\n105505: a0 = 0x40\n105508: a1 = 0x20\n105511: ra = 1206, jump @0\n      : @1403 [@dyn 603] (gas: 103)\n105518: a1 = u8 [a0 + 0x11]\n105521: a2 = u8 [a0 + 0x10]\n105524: a3 = u8 [a0 + 0x12]\n105527: a4 = u8 [a0 + 0x13]\n105530: a1 = a1 << 0x8\n105533: a1 = a1 | a2\n105536: a3 = a3 << 0x10\n105539: a4 = a4 << 0x18\n105542: a3 = a3 | a4\n105545: a1 = a1 | a3\n105548: a2 = u8 [a0 + 0x15]\n105551: a3 = u8 [a0 + 0x14]\n105554: a4 = u8 [a0 + 0x16]\n105557: a5 = u8 [a0 + 0x17]\n105560: a2 = a2 << 0x8\n105563: a2 = a2 | a3\n105566: a4 = a4 << 0x10\n105569: a5 = a5 << 0x18\n105572: a4 = a4 | a5\n105575: a2 = a2 | a4\n105578: a2 = a2 << 0x20\n105581: t0 = a2 | a1\n105584: a2 = u8 [a0 + 0x1]\n105587: a3 = u8 [a0]\n105589: a4 = u8 [a0 + 0x2]\n105592: a5 = u8 [a0 + 0x3]\n105595: a2 = a2 << 0x8\n105598: a2 = a2 | a3\n105601: a4 = a4 << 0x10\n105604: a5 = a5 << 0x18\n105607: a4 = a4 | a5\n105610: a2 = a2 | a4\n105613: a3 = u8 [a0 + 0x5]\n105616: a4 = u8 [a0 + 0x4]\n105619: a5 = u8 [a0 + 0x6]\n105622: s1 = u8 [a0 + 0x7]\n105625: a3 = a3 << 0x8\n105628: a3 = a3 | a4\n105631: a5 = a5 << 0x10\n105634: s1 = s1 << 0x18\n105637: a5 = a5 | s1\n105640: a3 = a3 | a5\n105643: a3 = a3 << 0x20\n105646: a2 = a2 | a3\n105649: a3 = u8 [a0 + 0x19]\n105652: a4 = u8 [a0 + 0x18]\n105655: a5 = u8 [a0 + 0x1a]\n105658: s1 = u8 [a0 + 0x1b]\n105661: a3 = a3 << 0x8\n105664: a3 = a3 | a4\n105667: a5 = a5 << 0x10\n105670: s1 = s1 << 0x18\n105673: a5 = a5 | s1\n105676: a3 = a3 | a5\n105679: a4 = u8 [a0 + 0x1d]\n105682: a5 = u8 [a0 + 0x1c]\n105685: s1 = u8 [a0 + 0x1e]\n105688: a1 = u8 [a0 + 0x1f]\n105691: a4 = a4 << 0x8\n105694: a4 = a4 | a5\n105697: s1 = s1 << 0x10\n105700: a1 = a1 << 0x18\n105703: a1 = a1 | s1\n105706: a1 = a1 | a4\n105709: a1 = a1 << 0x20\n105712: a3 = a3 | a1\n105715: a1 = u8 [a0 + 0x9]\n105718: a4 = u8 [a0 + 0x8]\n105721: a5 = u8 [a0 + 0xa]\n105724: s1 = u8 [a0 + 0xb]\n105727: a1 = a1 << 0x8\n105730: a1 = a1 | a4\n105733: a5 = a5 << 0x10\n105736: s1 = s1 << 0x18\n105739: a5 = a5 | s1\n105742: a1 = a1 | a5\n105745: a4 = u8 [a0 + 0xd]\n105748: a5 = u8 [a0 + 0xc]\n105751: s1 = u8 [a0 + 0xe]\n105754: a0 = u8 [a0 + 0xf]\n105757: a4 = a4 << 0x8\n105760: a4 = a4 | a5\n105763: s1 = s1 << 0x10\n105766: a0 = a0 << 0x18\n105769: a0 = a0 | s1\n105772: a0 = a0 | a4\n105775: a0 = a0 << 0x20\n105778: a0 = a0 | a1\n105781: s1 = reverse a0\n105783: a1 = reverse a3\n105785: a2 = reverse a2\n105787: a0 = reverse t0\n105789: u64 [sp + 0xb8] = a0\n105793: u64 [sp + 0xb0] = a2\n105797: a0 = a0 | a2\n105800: a2 = a1\n105802: a1 = a1 | s1\n105805: a1 = a1 | a0\n105808: a1 = a1 >> 0x20\n105811: a0 = a0 | s1\n105814: a0 = a0 << 0x20\n105817: a0 = a0 | a1\n105820: jump @1407 if a0 != 0\n      : @1404 (gas: 5)\n105824: u64 [sp + 0xa8] = a2\n105828: i32 a0 = a2 + 0\n105830: a1 = 0x20\n105833: u64 [sp + 0xa0] = a0\n105837: ra = 1208, jump @0\n      : @1405 [@dyn 604] (gas: 50)\n105844: u8 [a0 + 31] = 0\n105847: u8 [a0 + 30] = 0\n105850: u8 [a0 + 29] = 0\n105853: u8 [a0 + 28] = 0\n105856: u8 [a0 + 27] = 0\n105859: u8 [a0 + 26] = 0\n105862: u8 [a0 + 25] = 0\n105865: u8 [a0 + 24] = 0\n105868: u8 [a0 + 23] = 0\n105871: u8 [a0 + 22] = 0\n105874: u8 [a0 + 21] = 0\n105877: u8 [a0 + 20] = 0\n105880: u8 [a0 + 19] = 0\n105883: u8 [a0 + 18] = 0\n105886: u8 [a0 + 17] = 0\n105889: u8 [a0 + 16] = 0\n105892: u8 [a0 + 15] = 0\n105895: u8 [a0 + 14] = 0\n105898: u8 [a0 + 13] = 0\n105901: u8 [a0 + 12] = 0\n105904: u8 [a0 + 11] = 0\n105907: u8 [a0 + 10] = 0\n105910: u8 [a0 + 9] = 0\n105913: u8 [a0 + 8] = 0\n105916: u8 [a0 + 7] = 0\n105919: u8 [a0 + 6] = 0\n105922: u8 [a0 + 5] = 0\n105925: u8 [a0 + 4] = 0\n105928: u8 [a0 + 3] = 0xa0\n105933: u8 [a0 + 2] = 0x79\n105937: u8 [a0 + 1] = 0xc3\n105942: u8 [a0 + 0] = 0x8\n105945: a1 = u64 [sp + 0xa8]\n105949: a0 = a1 + 0x4\n105952: a1 = a0 <u a1\n105955: a3 = u64 [sp + 0xb8]\n105959: a2 = a3 + a1\n105962: a3 = a2 <u a3\n105965: a3 = a1 if a1 == 0\n105968: a3 = a3 + s1\n105971: a1 = a3 <u s1\n105974: a4 = u64 [sp + 0xb0]\n105978: a4 = a4 + a1\n105981: u64 [sp + 0xc8] = a2\n105985: u64 [sp + 0xc0] = a0\n105989: u64 [sp + 0xd0] = a3\n105993: a0 = sp + 0xe0\n105997: a1 = sp + 0xc0\n106001: u64 [sp + 0xd8] = a4\n106005: ra = 1210, jump @1385\n      : @1406 [@dyn 605] (gas: 30)\n106011: a0 = u64 [sp + 0xe8]\n106015: t0 = u64 [sp + 0xf8]\n106019: t1 = u64 [sp + 0xe0]\n106023: a3 = u64 [sp + 0xf0]\n106027: a1 = u64 [sp + 0xb8]\n106031: a4 = a0 ^ a1\n106034: a5 = a0 <u a1\n106037: t2 = a1\n106039: a2 = u64 [sp + 0xa8]\n106043: a1 = t1 <u a2\n106046: a5 = a1 if a4 == 0\n106049: a4 = a3 - s1\n106052: a3 = a3 <u s1\n106055: s1 = u64 [sp + 0xb0]\n106059: s1 = t0 - s1\n106062: s1 = s1 - a3\n106065: a3 = a4 <u a5\n106068: s1 = s1 - a3\n106071: a4 = a4 - a5\n106074: a0 = a0 - t2\n106077: a1 = a0 - a1\n106080: a0 = t1 - a2\n106083: a1 = a1 | s1\n106086: a2 = a0 | a4\n106089: a2 = a2 | a1\n106092: a1 = a1 | a4\n106095: a2 = a2 >> 0x20\n106098: a1 = a1 << 0x20\n106101: a1 = a1 | a2\n106104: jump @1408 if a1 == 0\n      : @1407 (gas: 1)\n106107: trap\n      : @1408 (gas: 4)\n106108: i32 s1 = a0 + 0\n106110: a0 = u64 [sp + 0xa0]\n106114: a1 = s1\n106116: ra = 1212, jump @0\n      : @1409 [@dyn 606] (gas: 6)\n106123: i32 a1 = a0 + 0\n106125: a0 = 0x1\n106128: a2 = s1\n106130: ra = 0x4be\n106134: ecalli 14 // 'seal_return'\n106136: fallthrough\n      : @1410 [@dyn 607] (gas: 21)\n106137: sp = sp + 0xffffffffffffff70\n106141: u64 [sp + 0x88] = ra\n106145: u64 [sp + 0x80] = s0\n106149: u64 [sp + 0x78] = s1\n106152: s0 = u64 [a1 + 0x10]\n106155: t0 = u64 [a1 + 0x18]\n106158: a5 = u64 [a1 + 0x8]\n106161: s1 = u64 [a1]\n106163: u64 [sp + 0x50] = a5\n106166: u64 [sp + 0x60] = t0\n106169: a1 = a5 | t0\n106172: u64 [sp + 0x70] = s1\n106175: a5 = s1 | s0\n106178: a5 = a5 | a1\n106181: a5 = a5 >> 0x20\n106184: u64 [sp + 0x68] = s0\n106187: a1 = a1 | s0\n106190: a1 = a1 << 0x20\n106193: a1 = a1 | a5\n106196: u64 [sp + 0x40] = a0\n106199: jump @1417 if a1 != 0\n      : @1411 (gas: 26)\n106203: a0 = u64 [a4 + 0x18]\n106206: u64 [sp] = a0\n106208: a0 = u64 [a4 + 0x10]\n106211: u64 [sp + 0x8] = a0\n106214: a0 = u64 [a4 + 0x8]\n106217: u64 [sp + 0x10] = a0\n106220: a0 = u64 [a4]\n106222: u64 [sp + 0x18] = a0\n106225: a0 = u64 [a3 + 0x18]\n106228: u64 [sp + 0x28] = a0\n106231: a0 = u64 [a3 + 0x10]\n106234: u64 [sp + 0x30] = a0\n106237: a0 = u64 [a3 + 0x8]\n106240: u64 [sp + 0x38] = a0\n106243: a0 = u64 [a2 + 0x10]\n106246: a1 = u64 [a3]\n106248: u64 [sp + 0x20] = a1\n106251: s1 = u64 [a2 + 0x8]\n106254: a1 = u64 [a2]\n106256: u64 [sp + 0x48] = a1\n106259: a0 = a0 << 0x20\n106262: s0 = a0 >> 0x20\n106265: a0 = i32 [sp + 0x70]\n106268: a1 = 0x20\n106271: u64 [sp + 0x58] = a0\n106274: ra = 1216, jump @0\n      : @1412 [@dyn 608] (gas: 66)\n106281: a1 = reverse s0\n106283: a2 = reverse s1\n106285: a3 = u64 [sp + 0x48]\n106288: a3 = reverse a3\n106290: a4 = a3 >> 0x38\n106293: u8 [a0 + 0x1f] = a4\n106296: a4 = a3 >> 0x30\n106299: u8 [a0 + 0x1e] = a4\n106302: a4 = a3 >> 0x28\n106305: u8 [a0 + 0x1d] = a4\n106308: a4 = a3 >> 0x20\n106311: u8 [a0 + 0x1c] = a4\n106314: a4 = a3 >> 0x18\n106317: u8 [a0 + 0x1b] = a4\n106320: a4 = a3 >> 0x10\n106323: u8 [a0 + 0x1a] = a4\n106326: a4 = a3 >> 0x8\n106329: u8 [a0 + 0x19] = a4\n106332: u8 [a0 + 0x18] = a3\n106335: u8 [a0 + 0x10] = a2\n106338: u8 [a0 + 11] = 0\n106341: u8 [a0 + 10] = 0\n106344: u8 [a0 + 9] = 0\n106347: u8 [a0 + 7] = 0\n106350: u8 [a0 + 6] = 0\n106353: u8 [a0 + 5] = 0\n106356: u8 [a0 + 4] = 0\n106359: u8 [a0 + 3] = 0\n106362: u8 [a0 + 2] = 0\n106365: u8 [a0 + 1] = 0\n106368: u8 [a0 + 0] = 0\n106370: a3 = a2 >> 0x38\n106373: u8 [a0 + 0x17] = a3\n106376: a3 = a2 >> 0x30\n106379: u8 [a0 + 0x16] = a3\n106382: a3 = a2 >> 0x28\n106385: u8 [a0 + 0x15] = a3\n106388: a3 = a2 >> 0x20\n106391: u8 [a0 + 0x14] = a3\n106394: a3 = a2 >> 0x18\n106397: u8 [a0 + 0x13] = a3\n106400: a3 = a2 >> 0x10\n106403: u8 [a0 + 0x12] = a3\n106406: a2 = a2 >> 0x8\n106409: u8 [a0 + 0x11] = a2\n106412: u8 [a0 + 0x8] = a1\n106415: a2 = a1 >> 0x38\n106418: u8 [a0 + 0xf] = a2\n106421: a2 = a1 >> 0x30\n106424: u8 [a0 + 0xe] = a2\n106427: a2 = a1 >> 0x28\n106430: u8 [a0 + 0xd] = a2\n106433: a1 = a1 >> 0x20\n106436: a2 = u64 [sp + 0x68]\n106439: a3 = u64 [sp + 0x60]\n106442: a3 = a3 | a2\n106445: s1 = 0x100000000\n106455: a2 = 0xffffffe0\n106465: a4 = u64 [sp + 0x70]\n106468: a2 = a4 <u a2\n106471: s0 = u64 [sp + 0x50]\n106474: a2 = 0 if s0 != 0\n106476: u64 [sp + 0x48] = a3\n106479: a2 = 0 if a3 != 0\n106481: u8 [a0 + 0xc] = a1\n106484: jump @1417 if a2 == 0\n      : @1413 (gas: 4)\n106488: a0 = u64 [sp + 0x58]\n106491: i32 a0 = a0 + 0x20\n106494: a1 = 0x20\n106497: ra = 1218, jump @0\n      : @1414 [@dyn 609] (gas: 75)\n106504: a1 = u64 [sp + 0x28]\n106507: a1 = reverse a1\n106509: a2 = u64 [sp + 0x30]\n106512: a2 = reverse a2\n106514: a3 = u64 [sp + 0x38]\n106517: a3 = reverse a3\n106519: a4 = u64 [sp + 0x20]\n106522: a4 = reverse a4\n106524: a5 = a4 >> 0x38\n106527: u8 [a0 + 0x1f] = a5\n106530: a5 = a4 >> 0x30\n106533: u8 [a0 + 0x1e] = a5\n106536: a5 = a4 >> 0x28\n106539: u8 [a0 + 0x1d] = a5\n106542: a5 = a4 >> 0x20\n106545: u8 [a0 + 0x1c] = a5\n106548: a5 = a4 >> 0x18\n106551: u8 [a0 + 0x1b] = a5\n106554: a5 = a4 >> 0x10\n106557: u8 [a0 + 0x1a] = a5\n106560: a5 = a4 >> 0x8\n106563: u8 [a0 + 0x19] = a5\n106566: u8 [a0 + 0x18] = a4\n106569: u8 [a0 + 0x10] = a3\n106572: a4 = a3 >> 0x38\n106575: u8 [a0 + 0x17] = a4\n106578: a4 = a3 >> 0x30\n106581: u8 [a0 + 0x16] = a4\n106584: a4 = a3 >> 0x28\n106587: u8 [a0 + 0x15] = a4\n106590: a4 = a3 >> 0x20\n106593: u8 [a0 + 0x14] = a4\n106596: a4 = a3 >> 0x18\n106599: u8 [a0 + 0x13] = a4\n106602: a4 = a3 >> 0x10\n106605: u8 [a0 + 0x12] = a4\n106608: a3 = a3 >> 0x8\n106611: u8 [a0 + 0x11] = a3\n106614: u8 [a0 + 0x8] = a2\n106617: a3 = a2 >> 0x38\n106620: u8 [a0 + 0xf] = a3\n106623: a3 = a2 >> 0x30\n106626: u8 [a0 + 0xe] = a3\n106629: a3 = a2 >> 0x28\n106632: u8 [a0 + 0xd] = a3\n106635: a3 = a2 >> 0x20\n106638: u8 [a0 + 0xc] = a3\n106641: a3 = a2 >> 0x18\n106644: u8 [a0 + 0xb] = a3\n106647: a3 = a2 >> 0x10\n106650: u8 [a0 + 0xa] = a3\n106653: a2 = a2 >> 0x8\n106656: u8 [a0 + 0x9] = a2\n106659: u8 [a0] = a1\n106661: a2 = a1 >> 0x38\n106664: u8 [a0 + 0x7] = a2\n106667: a2 = a1 >> 0x30\n106670: u8 [a0 + 0x6] = a2\n106673: a2 = a1 >> 0x28\n106676: u8 [a0 + 0x5] = a2\n106679: a2 = a1 >> 0x20\n106682: u8 [a0 + 0x4] = a2\n106685: a2 = a1 >> 0x18\n106688: u8 [a0 + 0x3] = a2\n106691: a2 = a1 >> 0x10\n106694: u8 [a0 + 0x2] = a2\n106697: a1 = a1 >> 0x8\n106700: a2 = s1 + 0xffffffffffffffc0\n106703: a3 = u64 [sp + 0x70]\n106706: a2 = a3 <u a2\n106709: a2 = 0 if s0 != 0\n106711: a3 = u64 [sp + 0x48]\n106714: a2 = 0 if a3 != 0\n106716: u8 [a0 + 0x1] = a1\n106719: jump @1417 if a2 == 0\n      : @1415 (gas: 18)\n106723: a0 = u64 [sp + 0x70]\n106726: a1 = a0 + 0x60\n106729: u64 [sp + 0x48] = a1\n106732: a0 = a1 <u a0\n106735: a1 = s0\n106737: s0 = s0 + a0\n106740: s1 = s0 <u a1\n106743: s1 = a0 if a0 == 0\n106746: a0 = u64 [sp + 0x68]\n106749: s1 = s1 + a0\n106752: a0 = s1 <u a0\n106755: a1 = u64 [sp + 0x60]\n106758: a0 = a0 + a1\n106761: u64 [sp + 0x70] = a0\n106764: a0 = u64 [sp + 0x58]\n106767: i32 a0 = a0 + 0x40\n106770: a1 = 0x20\n106773: ra = 1220, jump @0\n      : @1416 [@dyn 610] (gas: 80)\n106780: a1 = u64 [sp]\n106782: a1 = reverse a1\n106784: a2 = u64 [sp + 0x8]\n106787: a2 = reverse a2\n106789: a3 = u64 [sp + 0x10]\n106792: a3 = reverse a3\n106794: a4 = u64 [sp + 0x18]\n106797: a4 = reverse a4\n106799: a5 = a4 >> 0x38\n106802: u8 [a0 + 0x1f] = a5\n106805: a5 = a4 >> 0x30\n106808: u8 [a0 + 0x1e] = a5\n106811: a5 = a4 >> 0x28\n106814: u8 [a0 + 0x1d] = a5\n106817: a5 = a4 >> 0x20\n106820: u8 [a0 + 0x1c] = a5\n106823: a5 = a4 >> 0x18\n106826: u8 [a0 + 0x1b] = a5\n106829: a5 = a4 >> 0x10\n106832: u8 [a0 + 0x1a] = a5\n106835: a5 = a4 >> 0x8\n106838: u8 [a0 + 0x19] = a5\n106841: u8 [a0 + 0x18] = a4\n106844: u8 [a0 + 0x10] = a3\n106847: a4 = a3 >> 0x38\n106850: u8 [a0 + 0x17] = a4\n106853: a4 = a3 >> 0x30\n106856: u8 [a0 + 0x16] = a4\n106859: a4 = a3 >> 0x28\n106862: u8 [a0 + 0x15] = a4\n106865: a4 = a3 >> 0x20\n106868: u8 [a0 + 0x14] = a4\n106871: a4 = a3 >> 0x18\n106874: u8 [a0 + 0x13] = a4\n106877: a4 = a3 >> 0x10\n106880: u8 [a0 + 0x12] = a4\n106883: a3 = a3 >> 0x8\n106886: u8 [a0 + 0x11] = a3\n106889: u8 [a0 + 0x8] = a2\n106892: a3 = a2 >> 0x38\n106895: u8 [a0 + 0xf] = a3\n106898: a3 = a2 >> 0x30\n106901: u8 [a0 + 0xe] = a3\n106904: a3 = a2 >> 0x28\n106907: u8 [a0 + 0xd] = a3\n106910: a3 = a2 >> 0x20\n106913: u8 [a0 + 0xc] = a3\n106916: a3 = a2 >> 0x18\n106919: u8 [a0 + 0xb] = a3\n106922: a3 = a2 >> 0x10\n106925: u8 [a0 + 0xa] = a3\n106928: a2 = a2 >> 0x8\n106931: u8 [a0 + 0x9] = a2\n106934: u8 [a0] = a1\n106936: a2 = a1 >> 0x38\n106939: u8 [a0 + 0x7] = a2\n106942: a2 = a1 >> 0x30\n106945: u8 [a0 + 0x6] = a2\n106948: a2 = a1 >> 0x28\n106951: u8 [a0 + 0x5] = a2\n106954: a2 = a1 >> 0x20\n106957: u8 [a0 + 0x4] = a2\n106960: a2 = a1 >> 0x18\n106963: u8 [a0 + 0x3] = a2\n106966: a2 = a1 >> 0x10\n106969: u8 [a0 + 0x2] = a2\n106972: a1 = a1 >> 0x8\n106975: u8 [a0 + 0x1] = a1\n106978: a0 = u64 [sp + 0x40]\n106981: a1 = u64 [sp + 0x48]\n106984: u64 [a0] = a1\n106986: u64 [a0 + 0x8] = s0\n106989: u64 [a0 + 0x10] = s1\n106992: a1 = u64 [sp + 0x70]\n106995: u64 [a0 + 0x18] = a1\n106998: ra = u64 [sp + 0x88]\n107002: s0 = u64 [sp + 0x80]\n107006: s1 = u64 [sp + 0x78]\n107009: sp = sp + 0x90\n107013: ret\n      : @1417 (gas: 1)\n107015: trap\n      : @1418 (gas: 35)\n107016: sp = sp + 0xffffffffffffff00\n107020: u64 [sp + 0xf8] = ra\n107024: u64 [sp + 0xf0] = s0\n107028: u64 [sp + 0xe8] = s1\n107032: s0 = sp + 0x100\n107036: sp = sp & 0xffffffffffffffe0\n107039: s1 = sp\n107041: a3 = u64 [a2 + 0x18]\n107044: u64 [s1 + 0x20] = a3\n107047: a3 = u64 [a2 + 0x10]\n107050: u64 [s1 + 0x28] = a3\n107053: a3 = u64 [a2 + 0x8]\n107056: u64 [s1 + 0x30] = a3\n107059: a2 = u64 [a2]\n107061: u64 [s1 + 0x38] = a2\n107064: a2 = u64 [a1 + 0x18]\n107067: u64 [s1 + 0x48] = a2\n107070: a2 = u64 [a1 + 0x10]\n107073: u64 [s1 + 0x50] = a2\n107076: a2 = u64 [a1 + 0x8]\n107079: u64 [s1 + 0x58] = a2\n107082: a1 = u64 [a1]\n107084: u64 [s1 + 0x60] = a1\n107087: u64 [s1 + 0x18] = a0\n107090: i32 a0 = s1 + 0xc0\n107094: ecalli 0 // 'address'\n107095: a0 = u32 [s1 + 0xd0]\n107099: u64 [s1 + 0xb0] = a0\n107103: a0 = u64 [s1 + 0xc8]\n107107: u64 [s1 + 0x78] = a0\n107110: a0 = u64 [s1 + 0xc0]\n107114: u64 [s1 + 0xa8] = a0\n107118: a0 = 0x40\n107121: a1 = 0x20\n107124: ra = 1222, jump @0\n      : @1419 [@dyn 611] (gas: 116)\n107131: a1 = u8 [a0 + 0x19]\n107134: a2 = u8 [a0 + 0x18]\n107137: a3 = u8 [a0 + 0x1a]\n107140: a4 = u8 [a0 + 0x1b]\n107143: a1 = a1 << 0x8\n107146: a1 = a1 | a2\n107149: a3 = a3 << 0x10\n107152: a4 = a4 << 0x18\n107155: a3 = a3 | a4\n107158: a1 = a1 | a3\n107161: a2 = u8 [a0 + 0x1d]\n107164: a3 = u8 [a0 + 0x1c]\n107167: a4 = u8 [a0 + 0x1e]\n107170: a5 = u8 [a0 + 0x1f]\n107173: a2 = a2 << 0x8\n107176: a2 = a2 | a3\n107179: a4 = a4 << 0x10\n107182: a5 = a5 << 0x18\n107185: a4 = a4 | a5\n107188: a2 = a2 | a4\n107191: a2 = a2 << 0x20\n107194: t0 = a2 | a1\n107197: a2 = u8 [a0 + 0x11]\n107200: a3 = u8 [a0 + 0x10]\n107203: a4 = u8 [a0 + 0x12]\n107206: a5 = u8 [a0 + 0x13]\n107209: a2 = a2 << 0x8\n107212: a2 = a2 | a3\n107215: a4 = a4 << 0x10\n107218: a5 = a5 << 0x18\n107221: a4 = a4 | a5\n107224: a2 = a2 | a4\n107227: a3 = u8 [a0 + 0x15]\n107230: a4 = u8 [a0 + 0x14]\n107233: a5 = u8 [a0 + 0x16]\n107236: a1 = u8 [a0 + 0x17]\n107239: a3 = a3 << 0x8\n107242: a3 = a3 | a4\n107245: a5 = a5 << 0x10\n107248: a1 = a1 << 0x18\n107251: a1 = a1 | a5\n107254: a1 = a1 | a3\n107257: a1 = a1 << 0x20\n107260: t1 = a1 | a2\n107263: a1 = u8 [a0 + 0x9]\n107266: a3 = u8 [a0 + 0x8]\n107269: a4 = u8 [a0 + 0xa]\n107272: a5 = u8 [a0 + 0xb]\n107275: a1 = a1 << 0x8\n107278: a1 = a1 | a3\n107281: a4 = a4 << 0x10\n107284: a5 = a5 << 0x18\n107287: a4 = a4 | a5\n107290: a1 = a1 | a4\n107293: a3 = u8 [a0 + 0xd]\n107296: a4 = u8 [a0 + 0xc]\n107299: a5 = u8 [a0 + 0xe]\n107302: a2 = u8 [a0 + 0xf]\n107305: a3 = a3 << 0x8\n107308: a3 = a3 | a4\n107311: a5 = a5 << 0x10\n107314: a2 = a2 << 0x18\n107317: a2 = a2 | a5\n107320: a2 = a2 | a3\n107323: a2 = a2 << 0x20\n107326: a3 = a2 | a1\n107329: a1 = u8 [a0 + 0x1]\n107332: a2 = u8 [a0]\n107334: a4 = u8 [a0 + 0x2]\n107337: a5 = u8 [a0 + 0x3]\n107340: a1 = a1 << 0x8\n107343: a1 = a1 | a2\n107346: a4 = a4 << 0x10\n107349: a5 = a5 << 0x18\n107352: a4 = a4 | a5\n107355: a1 = a1 | a4\n107358: a2 = u8 [a0 + 0x5]\n107361: a4 = u8 [a0 + 0x4]\n107364: a5 = u8 [a0 + 0x6]\n107367: a0 = u8 [a0 + 0x7]\n107370: a2 = a2 << 0x8\n107373: a2 = a2 | a4\n107376: a5 = a5 << 0x10\n107379: a0 = a0 << 0x18\n107382: a0 = a0 | a5\n107385: a0 = a0 | a2\n107388: a0 = a0 << 0x20\n107391: a0 = a0 | a1\n107394: a2 = reverse a0\n107396: a3 = reverse a3\n107398: a1 = reverse t1\n107400: a0 = reverse t0\n107402: a4 = a0 + 0x20\n107405: u64 [s1 + 0x80] = a0\n107409: a0 = a4 <u a0\n107412: a5 = a1 + a0\n107415: u64 [s1 + 0x88] = a1\n107419: a1 = a5 <u a1\n107422: a1 = a0 if a0 == 0\n107425: a1 = a1 + a3\n107428: u64 [s1 + 0x90] = a3\n107432: a0 = a1 <u a3\n107435: u64 [s1 + 0x98] = a2\n107439: a2 = a2 + a0\n107442: u64 [s1 + 0xb8] = a4\n107446: a0 = a4 | a1\n107449: u64 [s1 + 0xa0] = a5\n107453: u64 [s1 + 0x68] = a2\n107456: a2 = a2 | a5\n107459: a0 = a0 | a2\n107462: a0 = a0 >> 0x20\n107465: u64 [s1 + 0x70] = a1\n107468: a1 = a1 | a2\n107471: a1 = a1 << 0x20\n107474: a0 = a0 | a1\n107477: jump @1432 if a0 != 0\n      : @1420 (gas: 18)\n107481: a0 = u64 [s1 + 0xa8]\n107485: a0 = reverse a0\n107487: a0 = a0 << 0x20\n107490: a1 = u64 [s1 + 0x78]\n107493: a1 = reverse a1\n107495: a2 = a1 >> 0x20\n107498: a0 = a0 | a2\n107501: u64 [s1 + 0x78] = a0\n107504: a1 = a1 << 0x20\n107507: a0 = u64 [s1 + 0xb0]\n107511: a0 = reverse a0\n107513: a0 = a0 >> 0x20\n107516: a0 = a0 | a1\n107519: u64 [s1 + 0x40] = a0\n107522: a0 = i32 [s1 + 0xb8]\n107526: a1 = 0x20\n107529: u64 [s1 + 0xb0] = a0\n107533: ra = 1224, jump @0\n      : @1421 [@dyn 612] (gas: 67)\n107540: a1 = u64 [s1 + 0x40]\n107543: a1 = reverse a1\n107545: a2 = u64 [s1 + 0x78]\n107548: a2 = reverse a2\n107550: a4 = u64 [s1 + 0xa8]\n107554: a3 = a4 >> 0x18\n107557: u8 [a0 + 0xf] = a3\n107560: a3 = a4 >> 0x10\n107563: u8 [a0 + 0xe] = a3\n107566: a3 = a4 >> 0x8\n107569: u8 [a0 + 0xd] = a3\n107572: u8 [a0 + 0xc] = a4\n107575: u8 [a0 + 11] = 0\n107578: u8 [a0 + 10] = 0\n107581: u8 [a0 + 9] = 0\n107584: u8 [a0 + 8] = 0\n107587: u8 [a0 + 7] = 0\n107590: u8 [a0 + 6] = 0\n107593: u8 [a0 + 5] = 0\n107596: u8 [a0 + 4] = 0\n107599: u8 [a0 + 3] = 0\n107602: u8 [a0 + 2] = 0\n107605: u8 [a0 + 1] = 0\n107608: u8 [a0 + 0] = 0\n107610: u8 [a0 + 0x10] = a2\n107613: u8 [a0 + 0x18] = a1\n107616: a3 = a2 >> 0x38\n107619: u8 [a0 + 0x17] = a3\n107622: a3 = a2 >> 0x30\n107625: u8 [a0 + 0x16] = a3\n107628: a3 = a2 >> 0x28\n107631: u8 [a0 + 0x15] = a3\n107634: a3 = a2 >> 0x20\n107637: u8 [a0 + 0x14] = a3\n107640: a3 = a2 >> 0x18\n107643: u8 [a0 + 0x13] = a3\n107646: a3 = a2 >> 0x10\n107649: u8 [a0 + 0x12] = a3\n107652: a2 = a2 >> 0x8\n107655: u8 [a0 + 0x11] = a2\n107658: a2 = a1 >> 0x38\n107661: u8 [a0 + 0x1f] = a2\n107664: a2 = a1 >> 0x30\n107667: u8 [a0 + 0x1e] = a2\n107670: a2 = a1 >> 0x28\n107673: u8 [a0 + 0x1d] = a2\n107676: a2 = a1 >> 0x20\n107679: u8 [a0 + 0x1c] = a2\n107682: a2 = a1 >> 0x18\n107685: u8 [a0 + 0x1b] = a2\n107688: a2 = a1 >> 0x10\n107691: u8 [a0 + 0x1a] = a2\n107694: a1 = a1 >> 0x8\n107697: a2 = u64 [s1 + 0x70]\n107700: a4 = u64 [s1 + 0x68]\n107703: a4 = a4 | a2\n107706: a2 = 0x100000000\n107716: u64 [s1 + 0x78] = a2\n107719: a2 = 0xffffffe0\n107729: a3 = u64 [s1 + 0xb8]\n107733: a2 = a3 <u a2\n107736: a3 = u64 [s1 + 0xa0]\n107740: a2 = 0 if a3 != 0\n107742: u64 [s1 + 0xa8] = a4\n107746: a2 = 0 if a4 != 0\n107748: u8 [a0 + 0x19] = a1\n107751: jump @1432 if a2 == 0\n      : @1422 (gas: 4)\n107755: a0 = u64 [s1 + 0xb0]\n107759: i32 a0 = a0 + 0x20\n107762: a1 = 0x20\n107765: ra = 1226, jump @0\n      : @1423 [@dyn 613] (gas: 77)\n107772: a1 = u64 [s1 + 0x48]\n107775: a1 = reverse a1\n107777: a2 = u64 [s1 + 0x50]\n107780: a2 = reverse a2\n107782: a3 = u64 [s1 + 0x58]\n107785: a3 = reverse a3\n107787: a4 = u64 [s1 + 0x60]\n107790: a4 = reverse a4\n107792: a5 = a4 >> 0x38\n107795: u8 [a0 + 0x1f] = a5\n107798: a5 = a4 >> 0x30\n107801: u8 [a0 + 0x1e] = a5\n107804: a5 = a4 >> 0x28\n107807: u8 [a0 + 0x1d] = a5\n107810: a5 = a4 >> 0x20\n107813: u8 [a0 + 0x1c] = a5\n107816: a5 = a4 >> 0x18\n107819: u8 [a0 + 0x1b] = a5\n107822: a5 = a4 >> 0x10\n107825: u8 [a0 + 0x1a] = a5\n107828: a5 = a4 >> 0x8\n107831: u8 [a0 + 0x19] = a5\n107834: u8 [a0 + 0x18] = a4\n107837: u8 [a0 + 0x10] = a3\n107840: a4 = a3 >> 0x38\n107843: u8 [a0 + 0x17] = a4\n107846: a4 = a3 >> 0x30\n107849: u8 [a0 + 0x16] = a4\n107852: a4 = a3 >> 0x28\n107855: u8 [a0 + 0x15] = a4\n107858: a4 = a3 >> 0x20\n107861: u8 [a0 + 0x14] = a4\n107864: a4 = a3 >> 0x18\n107867: u8 [a0 + 0x13] = a4\n107870: a4 = a3 >> 0x10\n107873: u8 [a0 + 0x12] = a4\n107876: a3 = a3 >> 0x8\n107879: u8 [a0 + 0x11] = a3\n107882: u8 [a0 + 0x8] = a2\n107885: a3 = a2 >> 0x38\n107888: u8 [a0 + 0xf] = a3\n107891: a3 = a2 >> 0x30\n107894: u8 [a0 + 0xe] = a3\n107897: a3 = a2 >> 0x28\n107900: u8 [a0 + 0xd] = a3\n107903: a3 = a2 >> 0x20\n107906: u8 [a0 + 0xc] = a3\n107909: a3 = a2 >> 0x18\n107912: u8 [a0 + 0xb] = a3\n107915: a3 = a2 >> 0x10\n107918: u8 [a0 + 0xa] = a3\n107921: a2 = a2 >> 0x8\n107924: u8 [a0 + 0x9] = a2\n107927: u8 [a0] = a1\n107929: a2 = a1 >> 0x38\n107932: u8 [a0 + 0x7] = a2\n107935: a2 = a1 >> 0x30\n107938: u8 [a0 + 0x6] = a2\n107941: a2 = a1 >> 0x28\n107944: u8 [a0 + 0x5] = a2\n107947: a2 = a1 >> 0x20\n107950: u8 [a0 + 0x4] = a2\n107953: a2 = a1 >> 0x18\n107956: u8 [a0 + 0x3] = a2\n107959: a2 = a1 >> 0x10\n107962: u8 [a0 + 0x2] = a2\n107965: a1 = a1 >> 0x8\n107968: a2 = u64 [s1 + 0x78]\n107971: a2 = a2 + 0xffffffffffffffc0\n107974: a3 = u64 [s1 + 0xb8]\n107978: a2 = a3 <u a2\n107981: a3 = u64 [s1 + 0xa0]\n107985: a2 = 0 if a3 != 0\n107987: a3 = u64 [s1 + 0xa8]\n107991: a2 = 0 if a3 != 0\n107993: u8 [a0 + 0x1] = a1\n107996: jump @1432 if a2 == 0\n      : @1424 (gas: 4)\n108000: a0 = u64 [s1 + 0xb0]\n108004: i32 a0 = a0 + 0x40\n108007: a1 = 0x20\n108010: ra = 1228, jump @0\n      : @1425 [@dyn 614] (gas: 80)\n108017: a1 = u64 [s1 + 0x20]\n108020: a1 = reverse a1\n108022: a2 = u64 [s1 + 0x28]\n108025: a2 = reverse a2\n108027: a3 = u64 [s1 + 0x30]\n108030: a3 = reverse a3\n108032: a4 = u64 [s1 + 0x38]\n108035: a4 = reverse a4\n108037: a5 = a4 >> 0x38\n108040: u8 [a0 + 0x1f] = a5\n108043: a5 = a4 >> 0x30\n108046: u8 [a0 + 0x1e] = a5\n108049: a5 = a4 >> 0x28\n108052: u8 [a0 + 0x1d] = a5\n108055: a5 = a4 >> 0x20\n108058: u8 [a0 + 0x1c] = a5\n108061: a5 = a4 >> 0x18\n108064: u8 [a0 + 0x1b] = a5\n108067: a5 = a4 >> 0x10\n108070: u8 [a0 + 0x1a] = a5\n108073: a5 = a4 >> 0x8\n108076: u8 [a0 + 0x19] = a5\n108079: u8 [a0 + 0x18] = a4\n108082: u8 [a0 + 0x10] = a3\n108085: a4 = a3 >> 0x38\n108088: u8 [a0 + 0x17] = a4\n108091: a4 = a3 >> 0x30\n108094: u8 [a0 + 0x16] = a4\n108097: a4 = a3 >> 0x28\n108100: u8 [a0 + 0x15] = a4\n108103: a4 = a3 >> 0x20\n108106: u8 [a0 + 0x14] = a4\n108109: a4 = a3 >> 0x18\n108112: u8 [a0 + 0x13] = a4\n108115: a4 = a3 >> 0x10\n108118: u8 [a0 + 0x12] = a4\n108121: a3 = a3 >> 0x8\n108124: u8 [a0 + 0x11] = a3\n108127: u8 [a0 + 0x8] = a2\n108130: a3 = a2 >> 0x38\n108133: u8 [a0 + 0xf] = a3\n108136: a3 = a2 >> 0x30\n108139: u8 [a0 + 0xe] = a3\n108142: a3 = a2 >> 0x28\n108145: u8 [a0 + 0xd] = a3\n108148: a3 = a2 >> 0x20\n108151: u8 [a0 + 0xc] = a3\n108154: a3 = a2 >> 0x18\n108157: u8 [a0 + 0xb] = a3\n108160: a3 = a2 >> 0x10\n108163: u8 [a0 + 0xa] = a3\n108166: a2 = a2 >> 0x8\n108169: u8 [a0 + 0x9] = a2\n108172: u8 [a0] = a1\n108174: a2 = a1 >> 0x38\n108177: u8 [a0 + 0x7] = a2\n108180: a2 = a1 >> 0x30\n108183: u8 [a0 + 0x6] = a2\n108186: a2 = a1 >> 0x28\n108189: u8 [a0 + 0x5] = a2\n108192: a2 = a1 >> 0x20\n108195: u8 [a0 + 0x4] = a2\n108198: a2 = a1 >> 0x18\n108201: u8 [a0 + 0x3] = a2\n108204: a2 = a1 >> 0x10\n108207: u8 [a0 + 0x2] = a2\n108210: t0 = a1 >> 0x8\n108213: a5 = u64 [s1 + 0x90]\n108217: a4 = u64 [s1 + 0x80]\n108221: a2 = a4 | a5\n108224: a3 = u64 [s1 + 0x98]\n108228: a1 = u64 [s1 + 0x88]\n108232: a3 = a3 | a1\n108235: a2 = a2 | a3\n108238: a2 = a2 >> 0x20\n108241: a3 = a3 | a5\n108244: a3 = a3 << 0x20\n108247: a2 = a2 | a3\n108250: u8 [a0 + 0x1] = t0\n108253: jump @1432 if a2 != 0\n      : @1426 (gas: 4)\n108257: i32 a0 = a4 + 0\n108259: u64 [s1 + 0xb8] = a0\n108263: a1 = 0x20\n108266: ra = 1230, jump @0\n      : @1427 [@dyn 615] (gas: 51)\n108273: u8 [a0 + 31] = 0x60\n108277: u8 [a0 + 30] = 0\n108280: u8 [a0 + 29] = 0\n108283: u8 [a0 + 28] = 0\n108286: u8 [a0 + 27] = 0\n108289: u8 [a0 + 26] = 0\n108292: u8 [a0 + 25] = 0\n108295: u8 [a0 + 24] = 0\n108298: u8 [a0 + 23] = 0\n108301: u8 [a0 + 22] = 0\n108304: u8 [a0 + 21] = 0\n108307: u8 [a0 + 20] = 0\n108310: u8 [a0 + 19] = 0\n108313: u8 [a0 + 18] = 0\n108316: u8 [a0 + 17] = 0\n108319: u8 [a0 + 16] = 0\n108322: u8 [a0 + 15] = 0\n108325: u8 [a0 + 14] = 0\n108328: u8 [a0 + 13] = 0\n108331: u8 [a0 + 12] = 0\n108334: u8 [a0 + 11] = 0\n108337: u8 [a0 + 10] = 0\n108340: u8 [a0 + 9] = 0\n108343: u8 [a0 + 8] = 0\n108346: u8 [a0 + 7] = 0\n108349: u8 [a0 + 6] = 0\n108352: u8 [a0 + 5] = 0\n108355: u8 [a0 + 4] = 0\n108358: u8 [a0 + 3] = 0\n108361: u8 [a0 + 2] = 0\n108364: u8 [a0 + 1] = 0\n108367: u8 [a0 + 0] = 0\n108369: a0 = u64 [s1 + 0x80]\n108373: a1 = a0 + 0x80\n108377: u64 [s1 + 0xa8] = a1\n108381: a0 = a1 <u a0\n108384: a1 = u64 [s1 + 0x88]\n108388: a2 = a1 + a0\n108391: u64 [s1 + 0xa0] = a2\n108395: a1 = a2 <u a1\n108398: a1 = a0 if a0 == 0\n108401: a0 = u64 [s1 + 0x90]\n108405: a1 = a1 + a0\n108408: u64 [s1 + 0x88] = a1\n108412: a0 = a1 <u a0\n108415: a1 = u64 [s1 + 0x98]\n108419: a0 = a0 + a1\n108422: u64 [s1 + 0x98] = a0\n108426: a0 = 0x40\n108429: a1 = 0x20\n108432: ra = 1232, jump @0\n      : @1428 [@dyn 616] (gas: 71)\n108439: a1 = u64 [s1 + 0x98]\n108443: a1 = reverse a1\n108445: a2 = u64 [s1 + 0x88]\n108449: a2 = reverse a2\n108451: a3 = u64 [s1 + 0xa0]\n108455: a3 = reverse a3\n108457: a4 = u64 [s1 + 0xa8]\n108461: a4 = reverse a4\n108463: a5 = a4 >> 0x38\n108466: u8 [a0 + 0x1f] = a5\n108469: a5 = a4 >> 0x30\n108472: u8 [a0 + 0x1e] = a5\n108475: a5 = a4 >> 0x28\n108478: u8 [a0 + 0x1d] = a5\n108481: a5 = a4 >> 0x20\n108484: u8 [a0 + 0x1c] = a5\n108487: a5 = a4 >> 0x18\n108490: u8 [a0 + 0x1b] = a5\n108493: a5 = a4 >> 0x10\n108496: u8 [a0 + 0x1a] = a5\n108499: a5 = a4 >> 0x8\n108502: u8 [a0 + 0x19] = a5\n108505: u8 [a0 + 0x18] = a4\n108508: a4 = a3 >> 0x38\n108511: u8 [a0 + 0x17] = a4\n108514: a4 = a3 >> 0x30\n108517: u8 [a0 + 0x16] = a4\n108520: a4 = a3 >> 0x28\n108523: u8 [a0 + 0x15] = a4\n108526: a4 = a3 >> 0x20\n108529: u8 [a0 + 0x14] = a4\n108532: a4 = a3 >> 0x18\n108535: u8 [a0 + 0x13] = a4\n108538: a4 = a3 >> 0x10\n108541: u8 [a0 + 0x12] = a4\n108544: a4 = a3 >> 0x8\n108547: u8 [a0 + 0x11] = a4\n108550: u8 [a0 + 0x10] = a3\n108553: u8 [a0 + 0x8] = a2\n108556: a3 = a2 >> 0x38\n108559: u8 [a0 + 0xf] = a3\n108562: a3 = a2 >> 0x30\n108565: u8 [a0 + 0xe] = a3\n108568: a3 = a2 >> 0x28\n108571: u8 [a0 + 0xd] = a3\n108574: a3 = a2 >> 0x20\n108577: u8 [a0 + 0xc] = a3\n108580: a3 = a2 >> 0x18\n108583: u8 [a0 + 0xb] = a3\n108586: a3 = a2 >> 0x10\n108589: u8 [a0 + 0xa] = a3\n108592: a2 = a2 >> 0x8\n108595: u8 [a0 + 0x9] = a2\n108598: u8 [a0] = a1\n108600: a2 = a1 >> 0x38\n108603: u8 [a0 + 0x7] = a2\n108606: a2 = a1 >> 0x30\n108609: u8 [a0 + 0x6] = a2\n108612: a2 = a1 >> 0x28\n108615: u8 [a0 + 0x5] = a2\n108618: a2 = a1 >> 0x20\n108621: u8 [a0 + 0x4] = a2\n108624: a2 = a1 >> 0x18\n108627: u8 [a0 + 0x3] = a2\n108630: a2 = a1 >> 0x10\n108633: u8 [a0 + 0x2] = a2\n108636: a1 = a1 >> 0x8\n108639: u8 [a0 + 0x1] = a1\n108642: a1 = 0x20\n108645: a0 = u64 [s1 + 0xb8]\n108649: ra = 1234, jump @0\n      : @1429 [@dyn 617] (gas: 100)\n108656: a1 = u8 [a0 + 0x11]\n108659: a2 = u8 [a0 + 0x10]\n108662: a3 = u8 [a0 + 0x12]\n108665: a4 = u8 [a0 + 0x13]\n108668: a1 = a1 << 0x8\n108671: a1 = a1 | a2\n108674: a3 = a3 << 0x10\n108677: a4 = a4 << 0x18\n108680: a3 = a3 | a4\n108683: a1 = a1 | a3\n108686: a2 = u8 [a0 + 0x15]\n108689: a3 = u8 [a0 + 0x14]\n108692: a4 = u8 [a0 + 0x16]\n108695: a5 = u8 [a0 + 0x17]\n108698: a2 = a2 << 0x8\n108701: a2 = a2 | a3\n108704: a4 = a4 << 0x10\n108707: a5 = a5 << 0x18\n108710: a4 = a4 | a5\n108713: a2 = a2 | a4\n108716: a2 = a2 << 0x20\n108719: t0 = a2 | a1\n108722: a2 = u8 [a0 + 0x1]\n108725: a3 = u8 [a0]\n108727: a4 = u8 [a0 + 0x2]\n108730: a5 = u8 [a0 + 0x3]\n108733: a2 = a2 << 0x8\n108736: a2 = a2 | a3\n108739: a4 = a4 << 0x10\n108742: a5 = a5 << 0x18\n108745: a4 = a4 | a5\n108748: a2 = a2 | a4\n108751: a3 = u8 [a0 + 0x5]\n108754: a4 = u8 [a0 + 0x4]\n108757: a5 = u8 [a0 + 0x6]\n108760: a1 = u8 [a0 + 0x7]\n108763: a3 = a3 << 0x8\n108766: a3 = a3 | a4\n108769: a5 = a5 << 0x10\n108772: a1 = a1 << 0x18\n108775: a1 = a1 | a5\n108778: a1 = a1 | a3\n108781: a1 = a1 << 0x20\n108784: t1 = a1 | a2\n108787: a1 = u8 [a0 + 0x19]\n108790: a3 = u8 [a0 + 0x18]\n108793: a4 = u8 [a0 + 0x1a]\n108796: a5 = u8 [a0 + 0x1b]\n108799: a1 = a1 << 0x8\n108802: a1 = a1 | a3\n108805: a4 = a4 << 0x10\n108808: a5 = a5 << 0x18\n108811: a4 = a4 | a5\n108814: a1 = a1 | a4\n108817: a3 = u8 [a0 + 0x1d]\n108820: a4 = u8 [a0 + 0x1c]\n108823: a5 = u8 [a0 + 0x1e]\n108826: a2 = u8 [a0 + 0x1f]\n108829: a3 = a3 << 0x8\n108832: a3 = a3 | a4\n108835: a5 = a5 << 0x10\n108838: a2 = a2 << 0x18\n108841: a2 = a2 | a5\n108844: a2 = a2 | a3\n108847: a2 = a2 << 0x20\n108850: a3 = a2 | a1\n108853: a1 = u8 [a0 + 0x9]\n108856: a2 = u8 [a0 + 0x8]\n108859: a4 = u8 [a0 + 0xa]\n108862: a5 = u8 [a0 + 0xb]\n108865: a1 = a1 << 0x8\n108868: a1 = a1 | a2\n108871: a4 = a4 << 0x10\n108874: a5 = a5 << 0x18\n108877: a4 = a4 | a5\n108880: a1 = a1 | a4\n108883: a2 = u8 [a0 + 0xd]\n108886: a4 = u8 [a0 + 0xc]\n108889: a5 = u8 [a0 + 0xe]\n108892: a0 = u8 [a0 + 0xf]\n108895: a2 = a2 << 0x8\n108898: a2 = a2 | a4\n108901: a5 = a5 << 0x10\n108904: a0 = a0 << 0x18\n108907: a0 = a0 | a5\n108910: a0 = a0 | a2\n108913: a0 = a0 << 0x20\n108916: a0 = a0 | a1\n108919: a1 = reverse a0\n108921: a0 = reverse a3\n108923: a2 = reverse t1\n108925: a3 = reverse t0\n108927: a2 = a2 | a3\n108930: a3 = a0 | a1\n108933: a3 = a3 | a2\n108936: a3 = a3 >> 0x20\n108939: a1 = a1 | a2\n108942: a1 = a1 << 0x20\n108945: a1 = a1 | a3\n108948: jump @1432 if a1 != 0\n      : @1430 (gas: 4)\n108951: i32 a1 = a0 + 0\n108953: u64 [s1 + 0xb8] = a1\n108957: a0 = u64 [s1 + 0xb0]\n108961: ra = 1236, jump @0\n      : @1431 [@dyn 618] (gas: 28)\n108968: a1 = sp + 0xffffffffffffffe0\n108971: a1 = a1 & 0xffffffffffffffe0\n108974: u64 [s1 + 0xb0] = a1\n108978: sp = a1\n108980: i32 a0 = a0 + 0\n108982: i32 a2 = a1 + 0\n108984: a1 = u64 [s1 + 0xb8]\n108988: ecalli 9 // 'hash_keccak_256'\n108990: a3 = u64 [s1 + 0xb0]\n108994: a0 = u64 [a3 + 0x18]\n108997: a1 = u64 [a3 + 0x10]\n109000: a2 = u64 [a3 + 0x8]\n109003: a3 = u64 [a3]\n109005: a0 = reverse a0\n109007: a1 = reverse a1\n109009: a2 = reverse a2\n109011: a3 = reverse a3\n109013: a4 = u64 [s1 + 0x18]\n109016: u64 [a4 + 0x18] = a3\n109019: u64 [a4 + 0x10] = a2\n109022: u64 [a4 + 0x8] = a1\n109025: u64 [a4] = a0\n109027: sp = s0 + 0xffffffffffffff00\n109031: ra = u64 [sp + 0xf8]\n109035: s0 = u64 [sp + 0xf0]\n109039: s1 = u64 [sp + 0xe8]\n109043: sp = sp + 0x100\n109047: ret\n      : @1432 (gas: 1)\n109049: trap\n      : @1433 (gas: 16)\n109050: sp = sp + 0xffffffffffffff20\n109054: u64 [sp + 0xd8] = ra\n109058: u64 [sp + 0xd0] = s0\n109062: u64 [sp + 0xc8] = s1\n109066: s0 = sp + 0xe0\n109070: sp = sp & 0xfffffffffffffff0\n109073: a3 = u64 [a1 + 0x18]\n109076: a2 = u64 [a1 + 0x10]\n109079: a4 = u64 [a1 + 0x8]\n109082: u64 [sp + 0x10] = a2\n109085: u64 [sp + 0x8] = a3\n109088: a2 = a2 | a3\n109091: a3 = a4 <u 0x1\n109094: a3 = 0 if a2 != 0\n109096: u64 [sp + 0x38] = a0\n109099: jump @1439 if a3 == 0\n      : @1434 (gas: 19)\n109103: s1 = u64 [a1]\n109105: a0 = s1 + 0x1f\n109108: a1 = a0 <u s1\n109111: u64 [sp + 0x18] = a4\n109114: a1 = a1 + a4\n109117: a1 = a1 & 0x1\n109120: a0 = a0 & 0xffffffffffffffe0\n109123: a2 = a0 + 0x20\n109126: a0 = a2 <u a0\n109129: a3 = a1 + a0\n109132: a4 = a3 <u a1\n109135: a4 = a0 if a0 == 0\n109138: u64 [sp + 152] = 0\n109142: u64 [sp + 0x80] = a2\n109146: u64 [sp + 0x88] = a3\n109150: a0 = sp + 0xa0\n109154: a1 = sp + 0x80\n109158: u64 [sp + 0x90] = a4\n109162: ra = 1238, jump @113\n      : @1435 [@dyn 619] (gas: 15)\n109169: a0 = u64 [sp + 0xb8]\n109173: a2 = u64 [sp + 0xb0]\n109177: a1 = u64 [sp + 0xa8]\n109181: a3 = u64 [sp + 0xa0]\n109185: u64 [sp + 0x28] = a0\n109188: u64 [sp + 0x20] = a1\n109191: a0 = a0 | a1\n109194: a1 = a3 | a2\n109197: a1 = a1 | a0\n109200: a1 = a1 >> 0x20\n109203: u64 [sp + 0x30] = a2\n109206: a0 = a0 | a2\n109209: a0 = a0 << 0x20\n109212: a0 = a0 | a1\n109215: jump @1438 if a0 != 0\n      : @1436 (gas: 4)\n109219: i32 a0 = a3 + 0\n109221: a1 = 0x20\n109224: u64 [sp] = a3\n109226: ra = 1240, jump @0\n      : @1437 [@dyn 620] (gas: 82)\n109233: a1 = u64 [sp + 0x8]\n109236: a1 = reverse a1\n109238: a2 = u64 [sp + 0x10]\n109241: a2 = reverse a2\n109243: a3 = u64 [sp + 0x18]\n109246: a3 = reverse a3\n109248: a4 = reverse s1\n109250: a5 = a4 >> 0x38\n109253: u8 [a0 + 0x1f] = a5\n109256: a5 = a4 >> 0x30\n109259: u8 [a0 + 0x1e] = a5\n109262: a5 = a4 >> 0x28\n109265: u8 [a0 + 0x1d] = a5\n109268: a5 = a4 >> 0x20\n109271: u8 [a0 + 0x1c] = a5\n109274: a5 = a4 >> 0x18\n109277: u8 [a0 + 0x1b] = a5\n109280: a5 = a4 >> 0x10\n109283: u8 [a0 + 0x1a] = a5\n109286: a5 = a4 >> 0x8\n109289: u8 [a0 + 0x19] = a5\n109292: u8 [a0 + 0x18] = a4\n109295: u8 [a0 + 0x10] = a3\n109298: a4 = a3 >> 0x38\n109301: u8 [a0 + 0x17] = a4\n109304: a4 = a3 >> 0x30\n109307: u8 [a0 + 0x16] = a4\n109310: a4 = a3 >> 0x28\n109313: u8 [a0 + 0x15] = a4\n109316: a4 = a3 >> 0x20\n109319: u8 [a0 + 0x14] = a4\n109322: a4 = a3 >> 0x18\n109325: u8 [a0 + 0x13] = a4\n109328: a4 = a3 >> 0x10\n109331: u8 [a0 + 0x12] = a4\n109334: a3 = a3 >> 0x8\n109337: u8 [a0 + 0x11] = a3\n109340: u8 [a0 + 0x8] = a2\n109343: a3 = a2 >> 0x38\n109346: u8 [a0 + 0xf] = a3\n109349: a3 = a2 >> 0x30\n109352: u8 [a0 + 0xe] = a3\n109355: a3 = a2 >> 0x28\n109358: u8 [a0 + 0xd] = a3\n109361: a3 = a2 >> 0x20\n109364: u8 [a0 + 0xc] = a3\n109367: a3 = a2 >> 0x18\n109370: u8 [a0 + 0xb] = a3\n109373: a3 = a2 >> 0x10\n109376: u8 [a0 + 0xa] = a3\n109379: a2 = a2 >> 0x8\n109382: u8 [a0 + 0x9] = a2\n109385: u8 [a0] = a1\n109387: a2 = a1 >> 0x38\n109390: u8 [a0 + 0x7] = a2\n109393: a2 = a1 >> 0x30\n109396: u8 [a0 + 0x6] = a2\n109399: a2 = a1 >> 0x28\n109402: u8 [a0 + 0x5] = a2\n109405: a2 = a1 >> 0x20\n109408: u8 [a0 + 0x4] = a2\n109411: a2 = a1 >> 0x18\n109414: u8 [a0 + 0x3] = a2\n109417: a2 = a1 >> 0x10\n109420: u8 [a0 + 0x2] = a2\n109423: a1 = a1 >> 0x8\n109426: u8 [a0 + 0x1] = a1\n109429: a0 = u64 [sp + 0x38]\n109432: a1 = u64 [sp]\n109434: u64 [a0] = a1\n109436: a1 = u64 [sp + 0x28]\n109439: u64 [a0 + 0x18] = a1\n109442: a1 = u64 [sp + 0x20]\n109445: u64 [a0 + 0x8] = a1\n109448: a1 = u64 [sp + 0x30]\n109451: u64 [a0 + 0x10] = a1\n109454: sp = s0 + 0xffffffffffffff20\n109458: ra = u64 [sp + 0xd8]\n109462: s0 = u64 [sp + 0xd0]\n109466: s1 = u64 [sp + 0xc8]\n109470: sp = sp + 0xe0\n109474: ret\n      : @1438 (gas: 1)\n109476: trap\n      : @1439 (gas: 8)\n109477: u64 [sp + 112] = 0\n109480: u64 [sp + 104] = 0\n109483: u64 [sp + 96] = 0\n109486: a0 = 0x4e487b7100000000\n109496: a1 = sp + 0x60\n109499: u64 [sp + 0x78] = a0\n109502: a0 = 0\n109504: ra = 1242, jump @23\n      : @1440 [@dyn 621] (gas: 7)\n109511: u64 [sp + 88] = 0\n109514: u64 [sp + 80] = 0\n109517: u64 [sp + 64] = 0x41\n109521: a0 = 0x4\n109524: a1 = sp + 0x40\n109527: u64 [sp + 72] = 0\n109530: ra = 1244, jump @23\n      : @1441 [@dyn 622] (gas: 3)\n109537: a1 = 0x24\n109540: a0 = 0\n109542: ra = 1246, jump @0\n      : @1442 [@dyn 623] (gas: 6)\n109549: i32 a1 = a0 + 0\n109551: a0 = 0x1\n109554: a2 = 0x24\n109557: ra = 0x4e0\n109561: ecalli 14 // 'seal_return'\n109563: fallthrough\n      : @1443 [@dyn 624] (gas: 9)\n109564: sp = sp + 0xffffffffffffff60\n109568: u64 [sp + 0x98] = ra\n109572: u64 [sp + 0x90] = s0\n109576: u64 [sp + 0x88] = s1\n109580: s0 = sp + 0xa0\n109584: sp = sp & 0xffffffffffffffe0\n109587: s1 = a0\n109589: ecalli 13 // 'return_data_size'\n109591: fallthrough\n      : @1444 (gas: 1)\n109592: jump @1453 if a0 == 0\n      : @1445 (gas: 9)\n109596: u64 [sp + 0x20] = s1\n109599: ecalli 13 // 'return_data_size'\n109601: u64 [sp + 88] = 0\n109604: u64 [sp + 80] = 0\n109607: u64 [sp + 0x40] = a0\n109610: a0 = sp + 0x60\n109613: a1 = sp + 0x40\n109616: u64 [sp + 72] = 0\n109619: ra = 1250, jump @1433\n      : @1446 [@dyn 625] (gas: 9)\n109625: a0 = u64 [sp + 0x78]\n109628: u64 [sp + 0x38] = a0\n109631: a0 = u64 [sp + 0x70]\n109634: u64 [sp + 0x30] = a0\n109637: a0 = u64 [sp + 0x68]\n109640: u64 [sp + 0x28] = a0\n109643: s1 = u64 [sp + 0x60]\n109646: ecalli 13 // 'return_data_size'\n109648: fallthrough\n      : @1447 (gas: 20)\n109649: a1 = s1 + 0x20\n109652: u64 [sp + 0x18] = s1\n109655: a2 = a1 <u s1\n109658: a4 = u64 [sp + 0x28]\n109661: a3 = a4 + a2\n109664: a4 = a3 <u a4\n109667: a4 = a2 if a2 == 0\n109670: a2 = u64 [sp + 0x30]\n109673: a4 = a4 + a2\n109676: a2 = a4 <u a2\n109679: a5 = u64 [sp + 0x38]\n109682: a2 = a2 + a5\n109685: a5 = a1 | a4\n109688: a2 = a2 | a3\n109691: a5 = a5 | a2\n109694: a5 = a5 >> 0x20\n109697: a2 = a2 | a4\n109700: a2 = a2 << 0x20\n109703: a2 = a2 | a5\n109706: jump @1452 if a2 != 0\n      : @1448 (gas: 3)\n109709: s1 = a0\n109711: a0 = a0 >> 0x20\n109714: jump @1452 if a0 != 0\n      : @1449 (gas: 4)\n109717: i32 a0 = a1 + 0\n109719: i32 a1 = s1 + 0\n109721: u64 [sp + 0x10] = a1\n109724: ra = 1252, jump @0\n      : @1450 [@dyn 626] (gas: 6)\n109731: u32 [sp + 0x80] = s1\n109735: i32 a0 = a0 + 0\n109737: i32 a1 = sp + 0x80\n109741: a2 = 0\n109743: ecalli 12 // 'return_data_copy'\n109745: fallthrough\n      : @1451 (gas: 8)\n109746: a0 = i32 [sp + 0x80]\n109750: s1 = u64 [sp + 0x20]\n109753: a1 = u64 [sp + 0x38]\n109756: a2 = u64 [sp + 0x30]\n109759: a3 = u64 [sp + 0x28]\n109762: a4 = u64 [sp + 0x18]\n109765: a5 = u64 [sp + 0x10]\n109768: jump @1454 if a0 >=u a5\n      : @1452 (gas: 1)\n109771: trap\n      : @1453 (gas: 5)\n109772: a3 = 0\n109774: a2 = 0\n109776: a1 = 0\n109778: a4 = 0x60\n109781: fallthrough\n      : @1454 (gas: 10)\n109782: u64 [s1] = a4\n109784: u64 [s1 + 0x8] = a3\n109787: u64 [s1 + 0x10] = a2\n109790: u64 [s1 + 0x18] = a1\n109793: sp = s0 + 0xffffffffffffff60\n109797: ra = u64 [sp + 0x98]\n109801: s0 = u64 [sp + 0x90]\n109805: s1 = u64 [sp + 0x88]\n109809: sp = sp + 0xa0\n109813: ret\n      : @1455 (gas: 17)\n109815: sp = sp + 0xffffffffffffffa0\n109818: u64 [sp + 0x58] = ra\n109821: u64 [sp + 0x50] = s0\n109824: u64 [sp + 0x48] = s1\n109827: a3 = u64 [a1 + 0x18]\n109830: a4 = u64 [a1 + 0x10]\n109833: a5 = u64 [a1 + 0x8]\n109836: s1 = u64 [a1]\n109838: a1 = a5 | a3\n109841: a2 = s1 | a4\n109844: a2 = a2 | a1\n109847: a2 = a2 >> 0x20\n109850: a1 = a1 | a4\n109853: a1 = a1 << 0x20\n109856: a1 = a1 | a2\n109859: u64 [sp + 0x28] = a0\n109862: jump @1462 if a1 != 0\n      : @1456 (gas: 19)\n109866: a0 = s1 + 0x20\n109869: u64 [sp + 0x30] = a0\n109872: a0 = a0 <u s1\n109875: a1 = a5 + a0\n109878: u64 [sp + 0x40] = a1\n109881: u64 [sp + 0x8] = a5\n109884: s0 = a1 <u a5\n109887: s0 = a0 if a0 == 0\n109890: s0 = s0 + a4\n109893: u64 [sp + 0x10] = a4\n109896: a0 = s0 <u a4\n109899: u64 [sp + 0x18] = a3\n109902: a0 = a0 + a3\n109905: u64 [sp + 0x38] = a0\n109908: u64 [sp] = s1\n109910: i32 a0 = s1 + 0\n109912: a1 = 0x20\n109915: s1 = 0x20\n109918: ra = 1254, jump @0\n      : @1457 [@dyn 627] (gas: 45)\n109925: u8 [a0 + 0x1f] = s1\n109928: a1 = u64 [sp + 0x30]\n109931: s1 = a1\n109933: a1 = a1 | s0\n109936: a2 = u64 [sp + 0x40]\n109939: a4 = u64 [sp + 0x38]\n109942: a2 = a2 | a4\n109945: a1 = a1 | a2\n109948: a1 = a1 >> 0x20\n109951: u64 [sp + 0x20] = s0\n109954: a2 = a2 | s0\n109957: a2 = a2 << 0x20\n109960: a1 = a1 | a2\n109963: u8 [a0 + 30] = 0\n109966: u8 [a0 + 29] = 0\n109969: u8 [a0 + 28] = 0\n109972: u8 [a0 + 27] = 0\n109975: u8 [a0 + 26] = 0\n109978: u8 [a0 + 25] = 0\n109981: u8 [a0 + 24] = 0\n109984: u8 [a0 + 23] = 0\n109987: u8 [a0 + 22] = 0\n109990: u8 [a0 + 21] = 0\n109993: u8 [a0 + 20] = 0\n109996: u8 [a0 + 19] = 0\n109999: u8 [a0 + 18] = 0\n110002: u8 [a0 + 17] = 0\n110005: u8 [a0 + 16] = 0\n110008: u8 [a0 + 15] = 0\n110011: u8 [a0 + 14] = 0\n110014: u8 [a0 + 13] = 0\n110017: u8 [a0 + 12] = 0\n110020: u8 [a0 + 11] = 0\n110023: u8 [a0 + 10] = 0\n110026: u8 [a0 + 9] = 0\n110029: u8 [a0 + 8] = 0\n110032: u8 [a0 + 7] = 0\n110035: u8 [a0 + 6] = 0\n110038: u8 [a0 + 5] = 0\n110041: u8 [a0 + 4] = 0\n110044: u8 [a0 + 3] = 0\n110047: u8 [a0 + 2] = 0\n110050: u8 [a0 + 1] = 0\n110053: u8 [a0 + 0] = 0\n110055: jump @1462 if a1 != 0\n      : @1458 (gas: 4)\n110059: i32 s0 = s1 + 0\n110061: a1 = 0x20\n110064: a0 = s0\n110066: ra = 1256, jump @0\n      : @1459 [@dyn 628] (gas: 41)\n110073: u8 [a0 + 31] = 0x1b\n110077: u8 [a0 + 30] = 0\n110080: u8 [a0 + 29] = 0\n110083: u8 [a0 + 28] = 0\n110086: u8 [a0 + 27] = 0\n110089: u8 [a0 + 26] = 0\n110092: u8 [a0 + 25] = 0\n110095: u8 [a0 + 24] = 0\n110098: u8 [a0 + 23] = 0\n110101: u8 [a0 + 22] = 0\n110104: u8 [a0 + 21] = 0\n110107: u8 [a0 + 20] = 0\n110110: u8 [a0 + 19] = 0\n110113: u8 [a0 + 18] = 0\n110116: u8 [a0 + 17] = 0\n110119: u8 [a0 + 16] = 0\n110122: u8 [a0 + 15] = 0\n110125: u8 [a0 + 14] = 0\n110128: u8 [a0 + 13] = 0\n110131: u8 [a0 + 12] = 0\n110134: u8 [a0 + 11] = 0\n110137: u8 [a0 + 10] = 0\n110140: u8 [a0 + 9] = 0\n110143: u8 [a0 + 8] = 0\n110146: u8 [a0 + 7] = 0\n110149: u8 [a0 + 6] = 0\n110152: u8 [a0 + 5] = 0\n110155: u8 [a0 + 4] = 0\n110158: u8 [a0 + 3] = 0\n110161: u8 [a0 + 2] = 0\n110164: u8 [a0 + 1] = 0\n110167: a1 = u64 [sp + 0x20]\n110170: a2 = u64 [sp + 0x38]\n110173: a1 = a1 | a2\n110176: a2 = 0xffffffe0\n110186: a2 = s1 <u a2\n110189: a3 = u64 [sp + 0x40]\n110192: a2 = 0 if a3 != 0\n110194: a2 = 0 if a1 != 0\n110196: u8 [a0 + 0] = 0\n110198: jump @1462 if a2 == 0\n      : @1460 (gas: 3)\n110202: i32 a0 = s0 + 0x20\n110205: a1 = 0x20\n110208: ra = 1258, jump @0\n      : @1461 [@dyn 629] (gas: 55)\n110215: u8 [a0 + 31] = 0\n110218: u8 [a0 + 30] = 0\n110221: u8 [a0 + 29] = 0\n110224: u8 [a0 + 28] = 0\n110227: u8 [a0 + 27] = 0\n110230: u8 [a0 + 26] = 0x64\n110234: u8 [a0 + 25] = 0x65\n110238: u8 [a0 + 24] = 0x6c\n110242: u8 [a0 + 23] = 0x69\n110246: u8 [a0 + 22] = 0x61\n110250: u8 [a0 + 21] = 0x66\n110254: a5 = 0x20\n110257: u8 [a0 + 0x14] = a5\n110260: u8 [a0 + 19] = 0x72\n110264: u8 [a0 + 18] = 0x65\n110268: u8 [a0 + 17] = 0x66\n110272: u8 [a0 + 16] = 0x73\n110276: u8 [a0 + 15] = 0x6e\n110280: u8 [a0 + 14] = 0x61\n110284: u8 [a0 + 13] = 0x72\n110288: u8 [a0 + 12] = 0x74\n110292: u8 [a0 + 0xb] = a5\n110295: u8 [a0 + 10] = 0x48\n110299: u8 [a0 + 9] = 0x54\n110303: u8 [a0 + 8] = 0x45\n110307: u8 [a0 + 0x7] = a5\n110310: u8 [a0 + 6] = 0x3a\n110314: u8 [a0 + 5] = 0x77\n110318: u8 [a0 + 4] = 0x6f\n110322: u8 [a0 + 3] = 0x72\n110326: u8 [a0 + 2] = 0x63\n110330: u8 [a0 + 1] = 0x73\n110334: u8 [a0 + 0] = 0x45\n110337: a1 = u64 [sp]\n110339: a0 = a1 + 0x60\n110342: a1 = a0 <u a1\n110345: a3 = u64 [sp + 0x8]\n110348: a2 = a3 + a1\n110351: a3 = a2 <u a3\n110354: a3 = a1 if a1 == 0\n110357: a1 = u64 [sp + 0x10]\n110360: a3 = a3 + a1\n110363: a1 = a3 <u a1\n110366: a4 = u64 [sp + 0x18]\n110369: a1 = a1 + a4\n110372: a4 = u64 [sp + 0x28]\n110375: u64 [a4] = a0\n110377: u64 [a4 + 0x8] = a2\n110380: u64 [a4 + 0x10] = a3\n110383: u64 [a4 + 0x18] = a1\n110386: ra = u64 [sp + 0x58]\n110389: s0 = u64 [sp + 0x50]\n110392: s1 = u64 [sp + 0x48]\n110395: sp = sp + 0x60\n110398: ret\n      : @1462 (gas: 1)\n110400: trap\n      : @1463 (gas: 23)\n110401: sp = sp + 0xfffffffffffffea0\n110405: u64 [sp + 0x158] = ra\n110409: u64 [sp + 0x150] = s0\n110413: u64 [sp + 0x148] = s1\n110417: s0 = sp + 0x160\n110421: sp = sp & 0xffffffffffffffe0\n110424: a2 = u64 [a1]\n110426: u64 [sp + 0x58] = a2\n110429: a2 = u64 [a1 + 0x8]\n110432: u64 [sp + 0x50] = a2\n110435: a2 = u64 [a1 + 0x10]\n110438: u64 [sp + 0x48] = a2\n110441: a1 = u64 [a1 + 0x18]\n110444: u64 [sp + 0x40] = a1\n110447: a1 = u64 [a0]\n110449: u64 [sp + 0x38] = a1\n110452: a1 = u64 [a0 + 0x10]\n110455: u64 [sp + 0x30] = a1\n110458: a0 = u64 [a0 + 0x8]\n110461: u64 [sp + 0x28] = a0\n110464: a0 = 0x40\n110467: a1 = 0x20\n110470: ra = 1260, jump @0\n      : @1464 [@dyn 630] (gas: 97)\n110477: a1 = u8 [a0 + 0x11]\n110480: a2 = u8 [a0 + 0x10]\n110483: a3 = u8 [a0 + 0x12]\n110486: a4 = u8 [a0 + 0x13]\n110489: a1 = a1 << 0x8\n110492: a1 = a1 | a2\n110495: a3 = a3 << 0x10\n110498: a4 = a4 << 0x18\n110501: a3 = a3 | a4\n110504: a1 = a1 | a3\n110507: a2 = u8 [a0 + 0x15]\n110510: a3 = u8 [a0 + 0x14]\n110513: a4 = u8 [a0 + 0x16]\n110516: a5 = u8 [a0 + 0x17]\n110519: a2 = a2 << 0x8\n110522: a2 = a2 | a3\n110525: a4 = a4 << 0x10\n110528: a5 = a5 << 0x18\n110531: a4 = a4 | a5\n110534: a2 = a2 | a4\n110537: a2 = a2 << 0x20\n110540: t0 = a2 | a1\n110543: a2 = u8 [a0 + 0x1]\n110546: a3 = u8 [a0]\n110548: a4 = u8 [a0 + 0x2]\n110551: a5 = u8 [a0 + 0x3]\n110554: a2 = a2 << 0x8\n110557: a2 = a2 | a3\n110560: a4 = a4 << 0x10\n110563: a5 = a5 << 0x18\n110566: a4 = a4 | a5\n110569: a2 = a2 | a4\n110572: a3 = u8 [a0 + 0x5]\n110575: a4 = u8 [a0 + 0x4]\n110578: a5 = u8 [a0 + 0x6]\n110581: s1 = u8 [a0 + 0x7]\n110584: a3 = a3 << 0x8\n110587: a3 = a3 | a4\n110590: a5 = a5 << 0x10\n110593: s1 = s1 << 0x18\n110596: a5 = a5 | s1\n110599: a3 = a3 | a5\n110602: a3 = a3 << 0x20\n110605: a2 = a2 | a3\n110608: a3 = u8 [a0 + 0x19]\n110611: a4 = u8 [a0 + 0x18]\n110614: a5 = u8 [a0 + 0x1a]\n110617: s1 = u8 [a0 + 0x1b]\n110620: a3 = a3 << 0x8\n110623: a3 = a3 | a4\n110626: a5 = a5 << 0x10\n110629: s1 = s1 << 0x18\n110632: a5 = a5 | s1\n110635: a3 = a3 | a5\n110638: a4 = u8 [a0 + 0x1d]\n110641: a5 = u8 [a0 + 0x1c]\n110644: s1 = u8 [a0 + 0x1e]\n110647: a1 = u8 [a0 + 0x1f]\n110650: a4 = a4 << 0x8\n110653: a4 = a4 | a5\n110656: s1 = s1 << 0x10\n110659: a1 = a1 << 0x18\n110662: a1 = a1 | s1\n110665: a1 = a1 | a4\n110668: a1 = a1 << 0x20\n110671: a3 = a3 | a1\n110674: a1 = u8 [a0 + 0x9]\n110677: a4 = u8 [a0 + 0x8]\n110680: a5 = u8 [a0 + 0xa]\n110683: s1 = u8 [a0 + 0xb]\n110686: a1 = a1 << 0x8\n110689: a1 = a1 | a4\n110692: a5 = a5 << 0x10\n110695: s1 = s1 << 0x18\n110698: a5 = a5 | s1\n110701: a1 = a1 | a5\n110704: a4 = u8 [a0 + 0xd]\n110707: a5 = u8 [a0 + 0xc]\n110710: s1 = u8 [a0 + 0xe]\n110713: a0 = u8 [a0 + 0xf]\n110716: a4 = a4 << 0x8\n110719: a4 = a4 | a5\n110722: s1 = s1 << 0x10\n110725: a0 = a0 << 0x18\n110728: a0 = a0 | s1\n110731: a0 = a0 | a4\n110734: a0 = a0 << 0x20\n110737: a0 = a0 | a1\n110740: s1 = reverse a0\n110742: a0 = reverse a3\n110744: u64 [sp + 0x10] = a0\n110747: a0 = reverse a2\n110749: u64 [sp + 0x20] = a0\n110752: a0 = reverse t0\n110754: u64 [sp + 0x18] = a0\n110757: ecalli 11 // 'ref_time_left'\n110759: fallthrough\n      : @1465 (gas: 36)\n110760: u64 [sp + 0x8] = a0\n110763: a0 = u64 [sp + 0x28]\n110766: a0 = reverse a0\n110768: a1 = u64 [sp + 0x30]\n110771: a1 = reverse a1\n110773: a1 = a1 >> 0x20\n110776: a2 = a0 << 0x20\n110779: a1 = a1 | a2\n110782: a0 = a0 >> 0x20\n110785: a2 = u64 [sp + 0x38]\n110788: a2 = reverse a2\n110790: a3 = a2 << 0x20\n110793: a0 = a0 | a3\n110796: u64 [sp + 0xc8] = a0\n110800: u64 [sp + 0xc0] = a1\n110804: a2 = a2 >> 0x20\n110807: u32 [sp + 0xd0] = a2\n110811: a2 = u64 [sp + 0x10]\n110814: a0 = u64 [sp + 0x40]\n110817: u64 [sp + 0xf8] = a0\n110821: a0 = u64 [sp + 0x48]\n110824: u64 [sp + 0xf0] = a0\n110828: a0 = u64 [sp + 0x50]\n110831: u64 [sp + 0xe8] = a0\n110835: a0 = u64 [sp + 0x20]\n110838: a1 = u64 [sp + 0x18]\n110841: a0 = a0 | a1\n110844: a1 = a2 | s1\n110847: a1 = a1 | a0\n110850: a0 = a0 | s1\n110853: a1 = a1 >> 0x20\n110856: a0 = a0 << 0x20\n110859: a0 = a0 | a1\n110862: a1 = u64 [sp + 0x58]\n110865: u64 [sp + 0xe0] = a1\n110869: jump @1476 if a0 != 0\n      : @1466 (gas: 3)\n110873: i32 a0 = a2 + 0\n110875: a1 = 0\n110877: ra = 1262, jump @0\n      : @1467 [@dyn 631] (gas: 4)\n110884: u64 [sp + 0x58] = a0\n110887: a0 = 0\n110889: a1 = 0\n110891: ra = 1264, jump @0\n      : @1468 [@dyn 632] (gas: 34)\n110898: u32 [sp + 256] = 0\n110902: a2 = u64 [sp + 0x8]\n110905: a1 = a2 >u 0x8fc\n110909: a2 = -a1\n110911: u64 [sp + 0x138] = a2\n110915: u64 [sp + 0x130] = a2\n110919: u64 [sp + 0x128] = a2\n110923: u64 [sp + 0x120] = a2\n110927: a2 = sp + 0xc0\n110931: a2 = a2 << 0x20\n110934: a2 = a2 >> 0x20\n110937: a1 = a1 << 0x23\n110940: s1 = a1 | a2\n110943: a1 = sp + 0xe0\n110947: a1 = a1 << 0x20\n110950: a1 = a1 >> 0x20\n110953: a2 = sp + 0x120\n110957: a2 = a2 << 0x20\n110960: a3 = a2 | a1\n110963: a4 = u64 [sp + 0x58]\n110966: a4 = a4 << 0x20\n110969: a4 = a4 >> 0x20\n110972: a0 = a0 << 0x20\n110975: a0 = a0 >> 0x20\n110978: a1 = sp + 0x100\n110982: a1 = a1 << 0x20\n110985: a5 = a1 | a0\n110988: a1 = 0xffffffffffffffff\n110991: a2 = 0xffffffffffffffff\n110994: a0 = s1\n110996: ecalli 1 // 'call'\n110998: s1 = a0\n111000: a0 = sp + 0xa0\n111004: ra = 1266, jump @1443\n      : @1469 [@dyn 633] (gas: 1)\n111010: jump @1471 if s1 != 0\n      : @1470 (gas: 6)\n111013: sp = s0 + 0xfffffffffffffea0\n111017: ra = u64 [sp + 0x158]\n111021: s0 = u64 [sp + 0x150]\n111025: s1 = u64 [sp + 0x148]\n111029: sp = sp + 0x160\n111033: ret\n      : @1471 (gas: 3)\n111035: a0 = 0x40\n111038: a1 = 0x20\n111041: ra = 1268, jump @0\n      : @1472 [@dyn 634] (gas: 103)\n111048: a1 = u8 [a0 + 0x11]\n111051: a2 = u8 [a0 + 0x10]\n111054: a3 = u8 [a0 + 0x12]\n111057: a4 = u8 [a0 + 0x13]\n111060: a1 = a1 << 0x8\n111063: a1 = a1 | a2\n111066: a3 = a3 << 0x10\n111069: a4 = a4 << 0x18\n111072: a3 = a3 | a4\n111075: a1 = a1 | a3\n111078: a2 = u8 [a0 + 0x15]\n111081: a3 = u8 [a0 + 0x14]\n111084: a4 = u8 [a0 + 0x16]\n111087: a5 = u8 [a0 + 0x17]\n111090: a2 = a2 << 0x8\n111093: a2 = a2 | a3\n111096: a4 = a4 << 0x10\n111099: a5 = a5 << 0x18\n111102: a4 = a4 | a5\n111105: a2 = a2 | a4\n111108: a2 = a2 << 0x20\n111111: t0 = a2 | a1\n111114: a2 = u8 [a0 + 0x1]\n111117: a3 = u8 [a0]\n111119: a4 = u8 [a0 + 0x2]\n111122: a5 = u8 [a0 + 0x3]\n111125: a2 = a2 << 0x8\n111128: a2 = a2 | a3\n111131: a4 = a4 << 0x10\n111134: a5 = a5 << 0x18\n111137: a4 = a4 | a5\n111140: a2 = a2 | a4\n111143: a3 = u8 [a0 + 0x5]\n111146: a4 = u8 [a0 + 0x4]\n111149: a5 = u8 [a0 + 0x6]\n111152: s1 = u8 [a0 + 0x7]\n111155: a3 = a3 << 0x8\n111158: a3 = a3 | a4\n111161: a5 = a5 << 0x10\n111164: s1 = s1 << 0x18\n111167: a5 = a5 | s1\n111170: a3 = a3 | a5\n111173: a3 = a3 << 0x20\n111176: a2 = a2 | a3\n111179: a3 = u8 [a0 + 0x19]\n111182: a4 = u8 [a0 + 0x18]\n111185: a5 = u8 [a0 + 0x1a]\n111188: s1 = u8 [a0 + 0x1b]\n111191: a3 = a3 << 0x8\n111194: a3 = a3 | a4\n111197: a5 = a5 << 0x10\n111200: s1 = s1 << 0x18\n111203: a5 = a5 | s1\n111206: a3 = a3 | a5\n111209: a4 = u8 [a0 + 0x1d]\n111212: a5 = u8 [a0 + 0x1c]\n111215: s1 = u8 [a0 + 0x1e]\n111218: a1 = u8 [a0 + 0x1f]\n111221: a4 = a4 << 0x8\n111224: a4 = a4 | a5\n111227: s1 = s1 << 0x10\n111230: a1 = a1 << 0x18\n111233: a1 = a1 | s1\n111236: a1 = a1 | a4\n111239: a1 = a1 << 0x20\n111242: a3 = a3 | a1\n111245: a1 = u8 [a0 + 0x9]\n111248: a4 = u8 [a0 + 0x8]\n111251: a5 = u8 [a0 + 0xa]\n111254: s1 = u8 [a0 + 0xb]\n111257: a1 = a1 << 0x8\n111260: a1 = a1 | a4\n111263: a5 = a5 << 0x10\n111266: s1 = s1 << 0x18\n111269: a5 = a5 | s1\n111272: a1 = a1 | a5\n111275: a4 = u8 [a0 + 0xd]\n111278: a5 = u8 [a0 + 0xc]\n111281: s1 = u8 [a0 + 0xe]\n111284: a0 = u8 [a0 + 0xf]\n111287: a4 = a4 << 0x8\n111290: a4 = a4 | a5\n111293: s1 = s1 << 0x10\n111296: a0 = a0 << 0x18\n111299: a0 = a0 | s1\n111302: a0 = a0 | a4\n111305: a0 = a0 << 0x20\n111308: a0 = a0 | a1\n111311: s1 = reverse a0\n111313: a1 = reverse a3\n111315: a2 = reverse a2\n111317: a0 = reverse t0\n111319: u64 [sp + 0x58] = a0\n111322: u64 [sp + 0x50] = a2\n111325: a0 = a0 | a2\n111328: a2 = a1\n111330: a1 = a1 | s1\n111333: a1 = a1 | a0\n111336: a1 = a1 >> 0x20\n111339: a0 = a0 | s1\n111342: a0 = a0 << 0x20\n111345: a0 = a0 | a1\n111348: jump @1476 if a0 != 0\n      : @1473 (gas: 5)\n111352: u64 [sp + 0x48] = a2\n111355: i32 a0 = a2 + 0\n111357: a1 = 0x20\n111360: u64 [sp + 0x40] = a0\n111363: ra = 1270, jump @0\n      : @1474 [@dyn 635] (gas: 50)\n111370: u8 [a0 + 31] = 0\n111373: u8 [a0 + 30] = 0\n111376: u8 [a0 + 29] = 0\n111379: u8 [a0 + 28] = 0\n111382: u8 [a0 + 27] = 0\n111385: u8 [a0 + 26] = 0\n111388: u8 [a0 + 25] = 0\n111391: u8 [a0 + 24] = 0\n111394: u8 [a0 + 23] = 0\n111397: u8 [a0 + 22] = 0\n111400: u8 [a0 + 21] = 0\n111403: u8 [a0 + 20] = 0\n111406: u8 [a0 + 19] = 0\n111409: u8 [a0 + 18] = 0\n111412: u8 [a0 + 17] = 0\n111415: u8 [a0 + 16] = 0\n111418: u8 [a0 + 15] = 0\n111421: u8 [a0 + 14] = 0\n111424: u8 [a0 + 13] = 0\n111427: u8 [a0 + 12] = 0\n111430: u8 [a0 + 11] = 0\n111433: u8 [a0 + 10] = 0\n111436: u8 [a0 + 9] = 0\n111439: u8 [a0 + 8] = 0\n111442: u8 [a0 + 7] = 0\n111445: u8 [a0 + 6] = 0\n111448: u8 [a0 + 5] = 0\n111451: u8 [a0 + 4] = 0\n111454: u8 [a0 + 3] = 0xa0\n111459: u8 [a0 + 2] = 0x79\n111463: u8 [a0 + 1] = 0xc3\n111468: u8 [a0 + 0] = 0x8\n111471: a1 = u64 [sp + 0x48]\n111474: a0 = a1 + 0x4\n111477: a1 = a0 <u a1\n111480: a3 = u64 [sp + 0x58]\n111483: a2 = a3 + a1\n111486: a3 = a2 <u a3\n111489: a3 = a1 if a1 == 0\n111492: a3 = a3 + s1\n111495: a1 = a3 <u s1\n111498: a4 = u64 [sp + 0x50]\n111501: a4 = a4 + a1\n111504: u64 [sp + 0x68] = a2\n111507: u64 [sp + 0x60] = a0\n111510: u64 [sp + 0x70] = a3\n111513: a0 = sp + 0x80\n111517: a1 = sp + 0x60\n111520: u64 [sp + 0x78] = a4\n111523: ra = 1272, jump @1455\n      : @1475 [@dyn 636] (gas: 30)\n111529: a0 = u64 [sp + 0x88]\n111533: t0 = u64 [sp + 0x98]\n111537: t1 = u64 [sp + 0x80]\n111541: a3 = u64 [sp + 0x90]\n111545: a1 = u64 [sp + 0x58]\n111548: a4 = a0 ^ a1\n111551: a5 = a0 <u a1\n111554: t2 = a1\n111556: a2 = u64 [sp + 0x48]\n111559: a1 = t1 <u a2\n111562: a5 = a1 if a4 == 0\n111565: a4 = a3 - s1\n111568: a3 = a3 <u s1\n111571: s1 = u64 [sp + 0x50]\n111574: s1 = t0 - s1\n111577: s1 = s1 - a3\n111580: a3 = a4 <u a5\n111583: s1 = s1 - a3\n111586: a4 = a4 - a5\n111589: a0 = a0 - t2\n111592: a1 = a0 - a1\n111595: a0 = t1 - a2\n111598: a1 = a1 | s1\n111601: a2 = a0 | a4\n111604: a2 = a2 | a1\n111607: a1 = a1 | a4\n111610: a2 = a2 >> 0x20\n111613: a1 = a1 << 0x20\n111616: a1 = a1 | a2\n111619: jump @1477 if a1 == 0\n      : @1476 (gas: 1)\n111622: trap\n      : @1477 (gas: 4)\n111623: i32 s1 = a0 + 0\n111625: a0 = u64 [sp + 0x40]\n111628: a1 = s1\n111630: ra = 1274, jump @0\n      : @1478 [@dyn 637] (gas: 6)\n111637: i32 a1 = a0 + 0\n111639: a0 = 0x1\n111642: a2 = s1\n111644: ra = 0x4fc\n111648: ecalli 14 // 'seal_return'\n111650: fallthrough\n      : @1479 [@dyn 638] (gas: 9)\n111651: a2 = u64 [a1 + 0x18]\n111654: a3 = u64 [a1 + 0x10]\n111657: a4 = u64 [a1 + 0x8]\n111660: a1 = u64 [a1]\n111662: u64 [a0 + 0x18] = a2\n111665: u64 [a0 + 0x10] = a3\n111668: u64 [a0 + 0x8] = a4\n111671: u64 [a0] = a1\n111673: ret\n      : @1480 (gas: 20)\n111675: sp = sp + 0xffffffffffffff50\n111679: u64 [sp + 0xa8] = ra\n111683: u64 [sp + 0xa0] = s0\n111687: u64 [sp + 0x98] = s1\n111691: s1 = u64 [a1 + 0x10]\n111694: t0 = u64 [a1 + 0x18]\n111697: s0 = u64 [a1 + 0x8]\n111700: a1 = u64 [a1]\n111702: u64 [sp + 0x88] = s0\n111706: u64 [sp + 0x70] = t0\n111709: t0 = s0 | t0\n111712: u64 [sp + 0x90] = a1\n111716: s0 = a1 | s1\n111719: s0 = s0 | t0\n111722: s0 = s0 >> 0x20\n111725: u64 [sp + 0x78] = s1\n111728: a1 = t0 | s1\n111731: a1 = a1 << 0x20\n111734: a1 = a1 | s0\n111737: jump @1491 if a1 != 0\n      : @1481 (gas: 29)\n111741: u64 [sp + 0x20] = a0\n111744: a0 = u64 [a5 + 0x18]\n111747: u64 [sp] = a0\n111749: a0 = u64 [a5 + 0x10]\n111752: u64 [sp + 0x8] = a0\n111755: a0 = u64 [a5 + 0x8]\n111758: u64 [sp + 0x10] = a0\n111761: a0 = u64 [a5]\n111763: u64 [sp + 0x18] = a0\n111766: a0 = u64 [a4 + 0x18]\n111769: u64 [sp + 0x28] = a0\n111772: a0 = u64 [a4 + 0x10]\n111775: u64 [sp + 0x30] = a0\n111778: a0 = u64 [a4 + 0x8]\n111781: u64 [sp + 0x38] = a0\n111784: a0 = u64 [a4]\n111786: u64 [sp + 0x40] = a0\n111789: a0 = u64 [a3]\n111791: u64 [sp + 0x48] = a0\n111794: a0 = u64 [a2 + 0x10]\n111797: u64 [sp + 0x60] = a0\n111800: a0 = u64 [a2 + 0x8]\n111803: u64 [sp + 0x58] = a0\n111806: a0 = u64 [a2]\n111808: u64 [sp + 0x50] = a0\n111811: s1 = i32 [sp + 0x90]\n111815: a1 = 0x20\n111818: a0 = s1\n111820: ra = 1278, jump @0\n      : @1482 [@dyn 639] (gas: 44)\n111827: u8 [a0 + 31] = 0\n111830: u8 [a0 + 30] = 0\n111833: u8 [a0 + 29] = 0\n111836: u8 [a0 + 28] = 0\n111839: u8 [a0 + 27] = 0\n111842: u8 [a0 + 26] = 0\n111845: u8 [a0 + 25] = 0\n111848: u8 [a0 + 24] = 0\n111851: u8 [a0 + 23] = 0\n111854: u8 [a0 + 22] = 0\n111857: u8 [a0 + 21] = 0\n111860: u8 [a0 + 20] = 0\n111863: u8 [a0 + 19] = 0\n111866: u8 [a0 + 18] = 0\n111869: u8 [a0 + 17] = 0\n111872: u8 [a0 + 16] = 0\n111875: u8 [a0 + 15] = 0\n111878: u8 [a0 + 14] = 0\n111881: u8 [a0 + 13] = 0\n111884: u8 [a0 + 12] = 0\n111887: u8 [a0 + 11] = 0\n111890: u8 [a0 + 10] = 0\n111893: u8 [a0 + 9] = 0\n111896: u8 [a0 + 8] = 0\n111899: u8 [a0 + 7] = 0\n111902: u8 [a0 + 6] = 0\n111905: u8 [a0 + 5] = 0\n111908: u8 [a0 + 4] = 0\n111911: u8 [a0 + 3] = 0\n111914: u8 [a0 + 2] = 0\n111917: u8 [a0 + 0] = 0x19\n111920: a1 = u64 [sp + 0x78]\n111923: a3 = u64 [sp + 0x70]\n111926: a3 = a3 | a1\n111929: s0 = 0x100000000\n111939: a1 = 0xfffffffe\n111949: a2 = u64 [sp + 0x90]\n111953: a1 = a2 <u a1\n111956: a2 = u64 [sp + 0x88]\n111960: a1 = 0 if a2 != 0\n111962: u64 [sp + 0x80] = a3\n111966: a1 = 0 if a3 != 0\n111968: u8 [a0 + 1] = 0\n111971: jump @1491 if a1 == 0\n      : @1483 (gas: 4)\n111975: u64 [sp + 0x68] = s1\n111978: i32 a0 = s1 + 0x2\n111981: a1 = 0x20\n111984: ra = 1280, jump @0\n      : @1484 [@dyn 640] (gas: 64)\n111991: a1 = u64 [sp + 0x50]\n111994: s1 = reverse a1\n111996: a1 = u64 [sp + 0x58]\n111999: a3 = reverse a1\n112001: a1 = u64 [sp + 0x60]\n112004: a2 = reverse a1\n112006: t0 = a2 >> 0x20\n112009: a4 = a3 >> 0x20\n112012: a1 = s1 >> 0x20\n112015: u8 [a0 + 31] = 0\n112018: u8 [a0 + 30] = 0\n112021: u8 [a0 + 29] = 0\n112024: u8 [a0 + 28] = 0\n112027: u8 [a0 + 27] = 0\n112030: u8 [a0 + 26] = 0\n112033: u8 [a0 + 25] = 0\n112036: u8 [a0 + 24] = 0\n112039: u8 [a0 + 23] = 0\n112042: u8 [a0 + 22] = 0\n112045: u8 [a0 + 21] = 0\n112048: u8 [a0 + 20] = 0\n112051: a5 = s1 >> 0x38\n112054: u8 [a0 + 0x13] = a5\n112057: a5 = s1 >> 0x30\n112060: u8 [a0 + 0x12] = a5\n112063: a5 = s1 >> 0x28\n112066: u8 [a0 + 0x11] = a5\n112069: u8 [a0 + 0x10] = a1\n112072: a1 = s1 >> 0x18\n112075: u8 [a0 + 0xf] = a1\n112078: a1 = s1 >> 0x10\n112081: u8 [a0 + 0xe] = a1\n112084: a1 = s1 >> 0x8\n112087: u8 [a0 + 0xd] = a1\n112090: u8 [a0 + 0xc] = s1\n112093: u8 [a0 + 0x4] = a3\n112096: a1 = a3 >> 0x38\n112099: u8 [a0 + 0xb] = a1\n112102: a1 = a3 >> 0x30\n112105: u8 [a0 + 0xa] = a1\n112108: a1 = a3 >> 0x28\n112111: u8 [a0 + 0x9] = a1\n112114: u8 [a0 + 0x8] = a4\n112117: a1 = a3 >> 0x18\n112120: u8 [a0 + 0x7] = a1\n112123: a1 = a3 >> 0x10\n112126: u8 [a0 + 0x6] = a1\n112129: a3 = a3 >> 0x8\n112132: u8 [a0 + 0x5] = a3\n112135: a1 = a2 >> 0x38\n112138: u8 [a0 + 0x3] = a1\n112141: a1 = a2 >> 0x30\n112144: u8 [a0 + 0x2] = a1\n112147: a2 = a2 >> 0x28\n112150: u8 [a0 + 0x1] = a2\n112153: s0 = s0 + 0xffffffffffffffea\n112156: a1 = u64 [sp + 0x90]\n112160: a1 = a1 <u s0\n112163: a2 = u64 [sp + 0x88]\n112167: a1 = 0 if a2 != 0\n112169: a2 = u64 [sp + 0x80]\n112173: a1 = 0 if a2 != 0\n112175: u8 [a0] = t0\n112177: jump @1491 if a1 == 0\n      : @1485 (gas: 4)\n112181: s1 = u64 [sp + 0x68]\n112184: i32 a0 = s1 + 0x16\n112187: a1 = 0x20\n112190: ra = 1282, jump @0\n      : @1486 [@dyn 641] (gas: 50)\n112197: a1 = u64 [sp + 0x48]\n112200: a1 = reverse a1\n112202: u8 [a0 + 31] = 0\n112205: u8 [a0 + 30] = 0\n112208: u8 [a0 + 29] = 0\n112211: u8 [a0 + 28] = 0\n112214: u8 [a0 + 27] = 0\n112217: u8 [a0 + 26] = 0\n112220: u8 [a0 + 25] = 0\n112223: u8 [a0 + 24] = 0\n112226: u8 [a0 + 23] = 0\n112229: u8 [a0 + 22] = 0\n112232: u8 [a0 + 21] = 0\n112235: u8 [a0 + 20] = 0\n112238: u8 [a0 + 19] = 0\n112241: u8 [a0 + 18] = 0\n112244: u8 [a0 + 17] = 0\n112247: u8 [a0 + 16] = 0\n112250: u8 [a0 + 15] = 0\n112253: u8 [a0 + 14] = 0\n112256: u8 [a0 + 13] = 0\n112259: u8 [a0 + 12] = 0\n112262: u8 [a0 + 11] = 0\n112265: u8 [a0 + 10] = 0\n112268: u8 [a0 + 9] = 0\n112271: a2 = a1 >> 0x38\n112274: u8 [a0 + 0x7] = a2\n112277: a2 = a1 >> 0x30\n112280: u8 [a0 + 0x6] = a2\n112283: a2 = a1 >> 0x28\n112286: u8 [a0 + 0x5] = a2\n112289: a2 = a1 >> 0x20\n112292: u8 [a0 + 0x4] = a2\n112295: a2 = a1 >> 0x18\n112298: u8 [a0 + 0x3] = a2\n112301: a2 = a1 >> 0x10\n112304: u8 [a0 + 0x2] = a2\n112307: a2 = a1 >> 0x8\n112310: u8 [a0 + 0x1] = a2\n112313: u8 [a0] = a1\n112315: s0 = 0x100000000\n112325: a1 = 0xffffffe2\n112335: a2 = u64 [sp + 0x90]\n112339: a1 = a2 <u a1\n112342: a2 = u64 [sp + 0x88]\n112346: a1 = 0 if a2 != 0\n112348: a2 = u64 [sp + 0x80]\n112352: a1 = 0 if a2 != 0\n112354: u8 [a0 + 8] = 0\n112357: jump @1491 if a1 == 0\n      : @1487 (gas: 3)\n112361: i32 a0 = s1 + 0x1e\n112364: a1 = 0x20\n112367: ra = 1284, jump @0\n      : @1488 [@dyn 642] (gas: 78)\n112374: a1 = u64 [sp + 0x28]\n112377: a1 = reverse a1\n112379: a2 = u64 [sp + 0x30]\n112382: a2 = reverse a2\n112384: a3 = u64 [sp + 0x38]\n112387: a3 = reverse a3\n112389: a4 = u64 [sp + 0x40]\n112392: a4 = reverse a4\n112394: a5 = a4 >> 0x38\n112397: u8 [a0 + 0x1f] = a5\n112400: a5 = a4 >> 0x30\n112403: u8 [a0 + 0x1e] = a5\n112406: a5 = a4 >> 0x28\n112409: u8 [a0 + 0x1d] = a5\n112412: a5 = a4 >> 0x20\n112415: u8 [a0 + 0x1c] = a5\n112418: a5 = a4 >> 0x18\n112421: u8 [a0 + 0x1b] = a5\n112424: a5 = a4 >> 0x10\n112427: u8 [a0 + 0x1a] = a5\n112430: a5 = a4 >> 0x8\n112433: u8 [a0 + 0x19] = a5\n112436: u8 [a0 + 0x18] = a4\n112439: u8 [a0 + 0x10] = a3\n112442: a4 = a3 >> 0x38\n112445: u8 [a0 + 0x17] = a4\n112448: a4 = a3 >> 0x30\n112451: u8 [a0 + 0x16] = a4\n112454: a4 = a3 >> 0x28\n112457: u8 [a0 + 0x15] = a4\n112460: a4 = a3 >> 0x20\n112463: u8 [a0 + 0x14] = a4\n112466: a4 = a3 >> 0x18\n112469: u8 [a0 + 0x13] = a4\n112472: a4 = a3 >> 0x10\n112475: u8 [a0 + 0x12] = a4\n112478: a3 = a3 >> 0x8\n112481: u8 [a0 + 0x11] = a3\n112484: u8 [a0 + 0x8] = a2\n112487: a3 = a2 >> 0x38\n112490: u8 [a0 + 0xf] = a3\n112493: a3 = a2 >> 0x30\n112496: u8 [a0 + 0xe] = a3\n112499: a3 = a2 >> 0x28\n112502: u8 [a0 + 0xd] = a3\n112505: a3 = a2 >> 0x20\n112508: u8 [a0 + 0xc] = a3\n112511: a3 = a2 >> 0x18\n112514: u8 [a0 + 0xb] = a3\n112517: a3 = a2 >> 0x10\n112520: u8 [a0 + 0xa] = a3\n112523: a2 = a2 >> 0x8\n112526: u8 [a0 + 0x9] = a2\n112529: u8 [a0] = a1\n112531: a2 = a1 >> 0x38\n112534: u8 [a0 + 0x7] = a2\n112537: a2 = a1 >> 0x30\n112540: u8 [a0 + 0x6] = a2\n112543: a2 = a1 >> 0x28\n112546: u8 [a0 + 0x5] = a2\n112549: a2 = a1 >> 0x20\n112552: u8 [a0 + 0x4] = a2\n112555: a2 = a1 >> 0x18\n112558: u8 [a0 + 0x3] = a2\n112561: a2 = a1 >> 0x10\n112564: u8 [a0 + 0x2] = a2\n112567: a1 = a1 >> 0x8\n112570: a2 = s0 + 0xffffffffffffffc2\n112573: a3 = u64 [sp + 0x90]\n112577: a2 = a3 <u a2\n112580: a3 = u64 [sp + 0x88]\n112584: a2 = 0 if a3 != 0\n112586: a3 = u64 [sp + 0x80]\n112590: a2 = 0 if a3 != 0\n112592: u8 [a0 + 0x1] = a1\n112595: s0 = u64 [sp + 0x78]\n112598: s1 = u64 [sp + 0x70]\n112601: jump @1491 if a2 == 0\n      : @1489 (gas: 4)\n112605: a0 = u64 [sp + 0x68]\n112608: i32 a0 = a0 + 0x3e\n112611: a1 = 0x20\n112614: ra = 1286, jump @0\n      : @1490 [@dyn 643] (gas: 88)\n112621: a1 = u64 [sp]\n112623: a1 = reverse a1\n112625: a2 = u64 [sp + 0x8]\n112628: a2 = reverse a2\n112630: a3 = u64 [sp + 0x10]\n112633: a3 = reverse a3\n112635: a4 = u64 [sp + 0x18]\n112638: a4 = reverse a4\n112640: a5 = a4 >> 0x38\n112643: u8 [a0 + 0x1f] = a5\n112646: a5 = a4 >> 0x30\n112649: u8 [a0 + 0x1e] = a5\n112652: a5 = a4 >> 0x28\n112655: u8 [a0 + 0x1d] = a5\n112658: a5 = a4 >> 0x20\n112661: u8 [a0 + 0x1c] = a5\n112664: a5 = a4 >> 0x18\n112667: u8 [a0 + 0x1b] = a5\n112670: a5 = a4 >> 0x10\n112673: u8 [a0 + 0x1a] = a5\n112676: a5 = a4 >> 0x8\n112679: u8 [a0 + 0x19] = a5\n112682: u8 [a0 + 0x18] = a4\n112685: u8 [a0 + 0x10] = a3\n112688: a4 = a3 >> 0x38\n112691: u8 [a0 + 0x17] = a4\n112694: a4 = a3 >> 0x30\n112697: u8 [a0 + 0x16] = a4\n112700: a4 = a3 >> 0x28\n112703: u8 [a0 + 0x15] = a4\n112706: a4 = a3 >> 0x20\n112709: u8 [a0 + 0x14] = a4\n112712: a4 = a3 >> 0x18\n112715: u8 [a0 + 0x13] = a4\n112718: a4 = a3 >> 0x10\n112721: u8 [a0 + 0x12] = a4\n112724: a3 = a3 >> 0x8\n112727: u8 [a0 + 0x11] = a3\n112730: u8 [a0 + 0x8] = a2\n112733: a3 = a2 >> 0x38\n112736: u8 [a0 + 0xf] = a3\n112739: a3 = a2 >> 0x30\n112742: u8 [a0 + 0xe] = a3\n112745: a3 = a2 >> 0x28\n112748: u8 [a0 + 0xd] = a3\n112751: a3 = a2 >> 0x20\n112754: u8 [a0 + 0xc] = a3\n112757: a3 = a2 >> 0x18\n112760: u8 [a0 + 0xb] = a3\n112763: a3 = a2 >> 0x10\n112766: u8 [a0 + 0xa] = a3\n112769: a2 = a2 >> 0x8\n112772: u8 [a0 + 0x9] = a2\n112775: u8 [a0] = a1\n112777: a2 = a1 >> 0x38\n112780: u8 [a0 + 0x7] = a2\n112783: a2 = a1 >> 0x30\n112786: u8 [a0 + 0x6] = a2\n112789: a2 = a1 >> 0x28\n112792: u8 [a0 + 0x5] = a2\n112795: a2 = a1 >> 0x20\n112798: u8 [a0 + 0x4] = a2\n112801: a2 = a1 >> 0x18\n112804: u8 [a0 + 0x3] = a2\n112807: a2 = a1 >> 0x10\n112810: u8 [a0 + 0x2] = a2\n112813: a1 = a1 >> 0x8\n112816: u8 [a0 + 0x1] = a1\n112819: a1 = u64 [sp + 0x90]\n112823: a0 = a1 + 0x5e\n112826: a1 = a0 <u a1\n112829: a3 = u64 [sp + 0x88]\n112833: a2 = a3 + a1\n112836: a3 = a2 <u a3\n112839: a3 = a1 if a1 == 0\n112842: a3 = a3 + s0\n112845: a1 = a3 <u s0\n112848: a1 = a1 + s1\n112851: a4 = u64 [sp + 0x20]\n112854: u64 [a4] = a0\n112856: u64 [a4 + 0x8] = a2\n112859: u64 [a4 + 0x10] = a3\n112862: u64 [a4 + 0x18] = a1\n112865: ra = u64 [sp + 0xa8]\n112869: s0 = u64 [sp + 0xa0]\n112873: s1 = u64 [sp + 0x98]\n112877: sp = sp + 0xb0\n112881: ret\n      : @1491 (gas: 1)\n112883: trap\n      : @1492 (gas: 23)\n112884: sp = sp + 0xfffffffffffffe20\n112888: u64 [sp + 0x1d8] = ra\n112892: u64 [sp + 0x1d0] = s0\n112896: u64 [sp + 0x1c8] = s1\n112900: s0 = sp + 0x1e0\n112904: sp = sp & 0xffffffffffffffe0\n112907: s1 = sp\n112909: t1 = u64 [a3 + 0x10]\n112912: t2 = u64 [a3 + 0x18]\n112915: a5 = u64 [a3 + 0x8]\n112918: t0 = u64 [a3]\n112920: u64 [s1 + 0x98] = a5\n112924: u64 [s1 + 0x88] = t2\n112928: a3 = a5 | t2\n112931: a5 = t0 | t1\n112934: a5 = a5 | a3\n112937: a5 = a5 >> 0x20\n112940: u64 [s1 + 0x90] = t1\n112944: a3 = a3 | t1\n112947: a3 = a3 << 0x20\n112950: a3 = a3 | a5\n112953: u64 [s1 + 0x30] = a0\n112956: jump @1515 if a3 != 0\n      : @1493 (gas: 29)\n112960: a0 = u64 [a4 + 0x18]\n112963: u64 [s1 + 0xa8] = a0\n112967: a0 = u64 [a4 + 0x10]\n112970: u64 [s1 + 0xa0] = a0\n112974: a0 = u64 [a4 + 0x8]\n112977: u64 [s1 + 0xb8] = a0\n112981: a0 = u64 [a4]\n112983: u64 [s1 + 0xb0] = a0\n112987: a0 = u64 [a2 + 0x18]\n112990: u64 [s1 + 0x38] = a0\n112993: a0 = u64 [a2 + 0x10]\n112996: u64 [s1 + 0x40] = a0\n112999: a0 = u64 [a2 + 0x8]\n113002: u64 [s1 + 0x48] = a0\n113005: a0 = u64 [a2]\n113007: u64 [s1 + 0x50] = a0\n113010: a0 = u64 [a1 + 0x18]\n113013: u64 [s1 + 0x58] = a0\n113016: a0 = u64 [a1 + 0x10]\n113019: u64 [s1 + 0x60] = a0\n113022: a0 = u64 [a1 + 0x8]\n113025: u64 [s1 + 0x68] = a0\n113028: a0 = u64 [a1]\n113030: u64 [s1 + 0x70] = a0\n113033: i32 a0 = t0 + 0\n113035: a1 = 0x20\n113038: u64 [s1 + 0x78] = a0\n113041: u64 [s1 + 0x80] = t0\n113045: ra = 1288, jump @0\n      : @1494 [@dyn 644] (gas: 10)\n113052: a1 = u64 [s1 + 0x90]\n113056: a2 = u64 [s1 + 0x88]\n113060: a1 = a1 | a2\n113063: a2 = 0xffffffe0\n113073: a3 = u64 [s1 + 0x80]\n113077: a2 = a3 <u a2\n113080: a3 = u64 [s1 + 0x98]\n113084: a2 = 0 if a3 != 0\n113086: a2 = 0 if a1 != 0\n113088: jump @1515 if a2 == 0\n      : @1495 (gas: 100)\n113092: a1 = u8 [a0 + 0x19]\n113095: a2 = u8 [a0 + 0x18]\n113098: a3 = u8 [a0 + 0x1a]\n113101: a4 = u8 [a0 + 0x1b]\n113104: a1 = a1 << 0x8\n113107: a1 = a1 | a2\n113110: a3 = a3 << 0x10\n113113: a4 = a4 << 0x18\n113116: a3 = a3 | a4\n113119: a1 = a1 | a3\n113122: a2 = u8 [a0 + 0x1d]\n113125: a3 = u8 [a0 + 0x1c]\n113128: a4 = u8 [a0 + 0x1e]\n113131: a5 = u8 [a0 + 0x1f]\n113134: a2 = a2 << 0x8\n113137: a2 = a2 | a3\n113140: a4 = a4 << 0x10\n113143: a5 = a5 << 0x18\n113146: a4 = a4 | a5\n113149: a2 = a2 | a4\n113152: a2 = a2 << 0x20\n113155: t0 = a2 | a1\n113158: a2 = u8 [a0 + 0x11]\n113161: a3 = u8 [a0 + 0x10]\n113164: a4 = u8 [a0 + 0x12]\n113167: a5 = u8 [a0 + 0x13]\n113170: a2 = a2 << 0x8\n113173: a2 = a2 | a3\n113176: a4 = a4 << 0x10\n113179: a5 = a5 << 0x18\n113182: a4 = a4 | a5\n113185: a2 = a2 | a4\n113188: a3 = u8 [a0 + 0x15]\n113191: a4 = u8 [a0 + 0x14]\n113194: a5 = u8 [a0 + 0x16]\n113197: a1 = u8 [a0 + 0x17]\n113200: a3 = a3 << 0x8\n113203: a3 = a3 | a4\n113206: a5 = a5 << 0x10\n113209: a1 = a1 << 0x18\n113212: a1 = a1 | a5\n113215: a1 = a1 | a3\n113218: a1 = a1 << 0x20\n113221: t1 = a1 | a2\n113224: a1 = u8 [a0 + 0x9]\n113227: a3 = u8 [a0 + 0x8]\n113230: a4 = u8 [a0 + 0xa]\n113233: a5 = u8 [a0 + 0xb]\n113236: a1 = a1 << 0x8\n113239: a1 = a1 | a3\n113242: a4 = a4 << 0x10\n113245: a5 = a5 << 0x18\n113248: a4 = a4 | a5\n113251: a1 = a1 | a4\n113254: a3 = u8 [a0 + 0xd]\n113257: a4 = u8 [a0 + 0xc]\n113260: a5 = u8 [a0 + 0xe]\n113263: a2 = u8 [a0 + 0xf]\n113266: a3 = a3 << 0x8\n113269: a3 = a3 | a4\n113272: a5 = a5 << 0x10\n113275: a2 = a2 << 0x18\n113278: a2 = a2 | a5\n113281: a2 = a2 | a3\n113284: a2 = a2 << 0x20\n113287: a3 = a2 | a1\n113290: a1 = u8 [a0 + 0x1]\n113293: a2 = u8 [a0]\n113295: a4 = u8 [a0 + 0x2]\n113298: a5 = u8 [a0 + 0x3]\n113301: a1 = a1 << 0x8\n113304: a1 = a1 | a2\n113307: a4 = a4 << 0x10\n113310: a5 = a5 << 0x18\n113313: a4 = a4 | a5\n113316: a1 = a1 | a4\n113319: a2 = u8 [a0 + 0x5]\n113322: a4 = u8 [a0 + 0x4]\n113325: a5 = u8 [a0 + 0x6]\n113328: a0 = u8 [a0 + 0x7]\n113331: a2 = a2 << 0x8\n113334: a2 = a2 | a4\n113337: a5 = a5 << 0x10\n113340: a0 = a0 << 0x18\n113343: a0 = a0 | a5\n113346: a0 = a0 | a2\n113349: a0 = a0 << 0x20\n113352: a0 = a0 | a1\n113355: a0 = reverse a0\n113357: a2 = reverse a3\n113359: a3 = reverse t1\n113361: a1 = reverse t0\n113363: a4 = a1 | a2\n113366: a0 = a0 | a3\n113369: a4 = a4 | a0\n113372: a4 = a4 >> 0x20\n113375: a0 = a0 | a2\n113378: a0 = a0 << 0x20\n113381: a0 = a0 | a4\n113384: jump @1515 if a0 != 0\n      : @1496 (gas: 5)\n113388: a0 = u64 [s1 + 0x78]\n113391: i32 a0 = a0 + 0x20\n113394: i32 a1 = a1 + 0\n113396: u64 [s1 + 0x98] = a1\n113400: ra = 1290, jump @0\n      : @1497 [@dyn 645] (gas: 9)\n113407: a1 = sp + 0xffffffffffffffe0\n113410: a1 = a1 & 0xffffffffffffffe0\n113413: sp = a1\n113415: i32 a0 = a0 + 0\n113417: u64 [s1 + 0x90] = a1\n113421: i32 a2 = a1 + 0\n113423: a1 = u64 [s1 + 0x98]\n113427: ecalli 9 // 'hash_keccak_256'\n113429: fallthrough\n      : @1498 (gas: 12)\n113430: a2 = u64 [s1 + 0xb0]\n113434: a3 = u64 [s1 + 0xa0]\n113438: a0 = a2 | a3\n113441: a1 = u64 [s1 + 0xb8]\n113445: a4 = u64 [s1 + 0xa8]\n113449: a1 = a1 | a4\n113452: a0 = a0 | a1\n113455: a0 = a0 >> 0x20\n113458: a1 = a1 | a3\n113461: a1 = a1 << 0x20\n113464: a0 = a0 | a1\n113467: jump @1515 if a0 != 0\n      : @1499 (gas: 13)\n113471: a1 = u64 [s1 + 0x90]\n113475: a0 = u64 [a1 + 0x18]\n113478: u64 [s1 + 0x98] = a0\n113482: a0 = u64 [a1 + 0x10]\n113485: u64 [s1 + 0x88] = a0\n113489: a0 = u64 [a1 + 0x8]\n113492: u64 [s1 + 0x80] = a0\n113496: a0 = u64 [a1]\n113498: u64 [s1 + 0x78] = a0\n113501: i32 a0 = a2 + 0\n113503: a1 = 0x20\n113506: u64 [s1 + 0x90] = a0\n113510: ra = 1292, jump @0\n      : @1500 [@dyn 646] (gas: 10)\n113517: a1 = u64 [s1 + 0xa0]\n113521: a2 = u64 [s1 + 0xa8]\n113525: a1 = a1 | a2\n113528: a2 = 0xffffffe0\n113538: a3 = u64 [s1 + 0xb0]\n113542: a2 = a3 <u a2\n113545: a3 = u64 [s1 + 0xb8]\n113549: a2 = 0 if a3 != 0\n113551: a2 = 0 if a1 != 0\n113553: jump @1515 if a2 == 0\n      : @1501 (gas: 100)\n113557: a1 = u8 [a0 + 0x19]\n113560: a2 = u8 [a0 + 0x18]\n113563: a3 = u8 [a0 + 0x1a]\n113566: a4 = u8 [a0 + 0x1b]\n113569: a1 = a1 << 0x8\n113572: a1 = a1 | a2\n113575: a3 = a3 << 0x10\n113578: a4 = a4 << 0x18\n113581: a3 = a3 | a4\n113584: a1 = a1 | a3\n113587: a2 = u8 [a0 + 0x1d]\n113590: a3 = u8 [a0 + 0x1c]\n113593: a4 = u8 [a0 + 0x1e]\n113596: a5 = u8 [a0 + 0x1f]\n113599: a2 = a2 << 0x8\n113602: a2 = a2 | a3\n113605: a4 = a4 << 0x10\n113608: a5 = a5 << 0x18\n113611: a4 = a4 | a5\n113614: a2 = a2 | a4\n113617: a2 = a2 << 0x20\n113620: t0 = a2 | a1\n113623: a2 = u8 [a0 + 0x11]\n113626: a3 = u8 [a0 + 0x10]\n113629: a4 = u8 [a0 + 0x12]\n113632: a5 = u8 [a0 + 0x13]\n113635: a2 = a2 << 0x8\n113638: a2 = a2 | a3\n113641: a4 = a4 << 0x10\n113644: a5 = a5 << 0x18\n113647: a4 = a4 | a5\n113650: a2 = a2 | a4\n113653: a3 = u8 [a0 + 0x15]\n113656: a4 = u8 [a0 + 0x14]\n113659: a5 = u8 [a0 + 0x16]\n113662: a1 = u8 [a0 + 0x17]\n113665: a3 = a3 << 0x8\n113668: a3 = a3 | a4\n113671: a5 = a5 << 0x10\n113674: a1 = a1 << 0x18\n113677: a1 = a1 | a5\n113680: a1 = a1 | a3\n113683: a1 = a1 << 0x20\n113686: t1 = a1 | a2\n113689: a1 = u8 [a0 + 0x9]\n113692: a3 = u8 [a0 + 0x8]\n113695: a4 = u8 [a0 + 0xa]\n113698: a5 = u8 [a0 + 0xb]\n113701: a1 = a1 << 0x8\n113704: a1 = a1 | a3\n113707: a4 = a4 << 0x10\n113710: a5 = a5 << 0x18\n113713: a4 = a4 | a5\n113716: a1 = a1 | a4\n113719: a3 = u8 [a0 + 0xd]\n113722: a4 = u8 [a0 + 0xc]\n113725: a5 = u8 [a0 + 0xe]\n113728: a2 = u8 [a0 + 0xf]\n113731: a3 = a3 << 0x8\n113734: a3 = a3 | a4\n113737: a5 = a5 << 0x10\n113740: a2 = a2 << 0x18\n113743: a2 = a2 | a5\n113746: a2 = a2 | a3\n113749: a2 = a2 << 0x20\n113752: a3 = a2 | a1\n113755: a1 = u8 [a0 + 0x1]\n113758: a2 = u8 [a0]\n113760: a4 = u8 [a0 + 0x2]\n113763: a5 = u8 [a0 + 0x3]\n113766: a1 = a1 << 0x8\n113769: a1 = a1 | a2\n113772: a4 = a4 << 0x10\n113775: a5 = a5 << 0x18\n113778: a4 = a4 | a5\n113781: a1 = a1 | a4\n113784: a2 = u8 [a0 + 0x5]\n113787: a4 = u8 [a0 + 0x4]\n113790: a5 = u8 [a0 + 0x6]\n113793: a0 = u8 [a0 + 0x7]\n113796: a2 = a2 << 0x8\n113799: a2 = a2 | a4\n113802: a5 = a5 << 0x10\n113805: a0 = a0 << 0x18\n113808: a0 = a0 | a5\n113811: a0 = a0 | a2\n113814: a0 = a0 << 0x20\n113817: a0 = a0 | a1\n113820: a0 = reverse a0\n113822: a2 = reverse a3\n113824: a3 = reverse t1\n113826: a1 = reverse t0\n113828: a4 = a1 | a2\n113831: a0 = a0 | a3\n113834: a4 = a4 | a0\n113837: a4 = a4 >> 0x20\n113840: a0 = a0 | a2\n113843: a0 = a0 << 0x20\n113846: a0 = a0 | a4\n113849: jump @1515 if a0 != 0\n      : @1502 (gas: 17)\n113853: a0 = u64 [s1 + 0x78]\n113856: a0 = reverse a0\n113858: u64 [s1 + 0x78] = a0\n113861: a0 = u64 [s1 + 0x80]\n113865: a0 = reverse a0\n113867: u64 [s1 + 0x80] = a0\n113871: a0 = u64 [s1 + 0x88]\n113875: a0 = reverse a0\n113877: u64 [s1 + 0x88] = a0\n113881: a0 = u64 [s1 + 0x98]\n113885: a0 = reverse a0\n113887: u64 [s1 + 0x98] = a0\n113891: a0 = u64 [s1 + 0x90]\n113895: i32 a0 = a0 + 0x20\n113898: i32 a1 = a1 + 0\n113900: u64 [s1 + 0xb8] = a1\n113904: ra = 1294, jump @0\n      : @1503 [@dyn 647] (gas: 24)\n113911: a1 = sp + 0xffffffffffffffe0\n113914: a1 = a1 & 0xffffffffffffffe0\n113917: u64 [s1 + 0xb0] = a1\n113921: sp = a1\n113923: i32 a0 = a0 + 0\n113925: i32 a2 = a1 + 0\n113927: a1 = u64 [s1 + 0xb8]\n113931: ecalli 9 // 'hash_keccak_256'\n113933: a3 = u64 [s1 + 0xb0]\n113937: a0 = u64 [a3 + 0x18]\n113940: a1 = u64 [a3 + 0x10]\n113943: a2 = u64 [a3 + 0x8]\n113946: a3 = u64 [a3]\n113948: a0 = reverse a0\n113950: u64 [s1 + 0x90] = a0\n113954: a0 = reverse a1\n113956: u64 [s1 + 0x28] = a0\n113959: a0 = reverse a2\n113961: u64 [s1 + 0x20] = a0\n113964: a0 = reverse a3\n113966: u64 [s1 + 0x18] = a0\n113969: a0 = 0x40\n113972: a1 = 0x20\n113975: ra = 1296, jump @0\n      : @1504 [@dyn 648] (gas: 151)\n113982: a1 = u8 [a0 + 0x19]\n113985: a2 = u8 [a0 + 0x18]\n113988: a3 = u8 [a0 + 0x1a]\n113991: a4 = u8 [a0 + 0x1b]\n113994: a1 = a1 << 0x8\n113997: a1 = a1 | a2\n114000: a3 = a3 << 0x10\n114003: a4 = a4 << 0x18\n114006: a3 = a3 | a4\n114009: a1 = a1 | a3\n114012: a2 = u8 [a0 + 0x1d]\n114015: a3 = u8 [a0 + 0x1c]\n114018: a4 = u8 [a0 + 0x1e]\n114021: a5 = u8 [a0 + 0x1f]\n114024: a2 = a2 << 0x8\n114027: a2 = a2 | a3\n114030: a4 = a4 << 0x10\n114033: a5 = a5 << 0x18\n114036: a4 = a4 | a5\n114039: a2 = a2 | a4\n114042: a2 = a2 << 0x20\n114045: t0 = a2 | a1\n114048: a2 = u8 [a0 + 0x11]\n114051: a3 = u8 [a0 + 0x10]\n114054: a4 = u8 [a0 + 0x12]\n114057: a5 = u8 [a0 + 0x13]\n114060: a2 = a2 << 0x8\n114063: a2 = a2 | a3\n114066: a4 = a4 << 0x10\n114069: a5 = a5 << 0x18\n114072: a4 = a4 | a5\n114075: a2 = a2 | a4\n114078: a3 = u8 [a0 + 0x15]\n114081: a4 = u8 [a0 + 0x14]\n114084: a5 = u8 [a0 + 0x16]\n114087: a1 = u8 [a0 + 0x17]\n114090: a3 = a3 << 0x8\n114093: a3 = a3 | a4\n114096: a5 = a5 << 0x10\n114099: a1 = a1 << 0x18\n114102: a1 = a1 | a5\n114105: a1 = a1 | a3\n114108: a1 = a1 << 0x20\n114111: t1 = a1 | a2\n114114: a1 = u8 [a0 + 0x9]\n114117: a3 = u8 [a0 + 0x8]\n114120: a4 = u8 [a0 + 0xa]\n114123: a5 = u8 [a0 + 0xb]\n114126: a1 = a1 << 0x8\n114129: a1 = a1 | a3\n114132: a4 = a4 << 0x10\n114135: a5 = a5 << 0x18\n114138: a4 = a4 | a5\n114141: a1 = a1 | a4\n114144: a3 = u8 [a0 + 0xd]\n114147: a4 = u8 [a0 + 0xc]\n114150: a5 = u8 [a0 + 0xe]\n114153: a2 = u8 [a0 + 0xf]\n114156: a3 = a3 << 0x8\n114159: a3 = a3 | a4\n114162: a5 = a5 << 0x10\n114165: a2 = a2 << 0x18\n114168: a2 = a2 | a5\n114171: a2 = a2 | a3\n114174: a2 = a2 << 0x20\n114177: a3 = a2 | a1\n114180: a1 = u8 [a0 + 0x1]\n114183: a2 = u8 [a0]\n114185: a4 = u8 [a0 + 0x2]\n114188: a5 = u8 [a0 + 0x3]\n114191: a1 = a1 << 0x8\n114194: a1 = a1 | a2\n114197: a4 = a4 << 0x10\n114200: a5 = a5 << 0x18\n114203: a4 = a4 | a5\n114206: a1 = a1 | a4\n114209: a2 = u8 [a0 + 0x5]\n114212: a4 = u8 [a0 + 0x4]\n114215: a5 = u8 [a0 + 0x6]\n114218: a0 = u8 [a0 + 0x7]\n114221: a2 = a2 << 0x8\n114224: a2 = a2 | a4\n114227: a5 = a5 << 0x10\n114230: a0 = a0 << 0x18\n114233: a0 = a0 | a5\n114236: a0 = a0 | a2\n114239: a0 = a0 << 0x20\n114242: a0 = a0 | a1\n114245: a4 = reverse a0\n114247: u64 [s1 + 0xa8] = a4\n114251: a3 = reverse a3\n114253: u64 [s1 + 0xb0] = a3\n114257: a1 = reverse t1\n114259: u64 [s1 + 0xa0] = a1\n114263: a0 = reverse t0\n114265: u64 [s1 + 0xb8] = a0\n114269: t1 = a0 + 0x20\n114272: a0 = t1 <u a0\n114275: a2 = a1 + a0\n114278: a1 = a2 <u a1\n114281: a1 = a0 if a0 == 0\n114284: a1 = a1 + a3\n114287: a0 = a1 <u a3\n114290: t0 = a4 + a0\n114293: a0 = u64 [s1 + 0x18]\n114296: u64 [s1 + 0x118] = a0\n114300: a0 = u64 [s1 + 0x20]\n114303: u64 [s1 + 0x110] = a0\n114307: a0 = u64 [s1 + 0x28]\n114310: u64 [s1 + 0x108] = a0\n114314: a0 = u64 [s1 + 0x90]\n114318: u64 [s1 + 0x100] = a0\n114322: a0 = u64 [s1 + 0x78]\n114325: u64 [s1 + 0x138] = a0\n114329: a0 = u64 [s1 + 0x80]\n114333: u64 [s1 + 0x130] = a0\n114337: a0 = u64 [s1 + 0x88]\n114341: u64 [s1 + 0x128] = a0\n114345: a0 = u64 [s1 + 0x98]\n114349: u64 [s1 + 0x120] = a0\n114353: a0 = u64 [s1 + 0x38]\n114356: u64 [s1 + 0x158] = a0\n114360: a0 = u64 [s1 + 0x40]\n114363: u64 [s1 + 0x150] = a0\n114367: a0 = u64 [s1 + 0x48]\n114370: u64 [s1 + 0x148] = a0\n114374: a0 = u64 [s1 + 0x50]\n114377: u64 [s1 + 0x140] = a0\n114381: a0 = u64 [s1 + 0x58]\n114384: u64 [s1 + 0x178] = a0\n114388: a0 = u64 [s1 + 0x60]\n114391: u64 [s1 + 0x170] = a0\n114395: a0 = u64 [s1 + 0x68]\n114398: u64 [s1 + 0x168] = a0\n114402: a0 = u64 [s1 + 0x70]\n114405: u64 [s1 + 0x160] = a0\n114409: u64 [s1 + 0x98] = t1\n114413: u64 [s1 + 0x180] = t1\n114417: u64 [s1 + 0x90] = a2\n114421: u64 [s1 + 0x188] = a2\n114425: u64 [s1 + 0x88] = a1\n114429: u64 [s1 + 0x190] = a1\n114433: a0 = s1 + 0x1a0\n114437: a1 = s1 + 0x180\n114441: a2 = s1 + 0x160\n114445: a3 = s1 + 0x140\n114449: a4 = s1 + 0x120\n114453: a5 = s1 + 0x100\n114457: u64 [s1 + 0x80] = t0\n114461: u64 [s1 + 0x198] = t0\n114465: ra = 1298, jump @1480\n      : @1505 [@dyn 649] (gas: 12)\n114471: a1 = u64 [s1 + 0xa0]\n114475: a0 = u64 [s1 + 0xa8]\n114479: a0 = a0 | a1\n114482: a2 = u64 [s1 + 0xb0]\n114486: a1 = u64 [s1 + 0xb8]\n114490: a1 = a1 | a2\n114493: a1 = a1 | a0\n114496: a1 = a1 >> 0x20\n114499: a0 = a0 | a2\n114502: a0 = a0 << 0x20\n114505: a0 = a0 | a1\n114508: jump @1515 if a0 != 0\n      : @1506 (gas: 35)\n114512: a0 = u64 [s1 + 0x1a0]\n114516: u64 [s1 + 0x78] = a0\n114519: t0 = u64 [s1 + 0x1a8]\n114523: t2 = u64 [s1 + 0x1b8]\n114527: u64 [s1 + 0x40] = t2\n114530: a4 = u64 [s1 + 0x1b0]\n114534: u64 [s1 + 0x48] = a4\n114537: a5 = u64 [s1 + 0x98]\n114541: t1 = a0 <u a5\n114544: a1 = u64 [s1 + 0x90]\n114548: ra = t0 ^ a1\n114551: a2 = t0 <u a1\n114554: u64 [s1 + 0x38] = t0\n114557: a2 = t1 if ra == 0\n114560: a0 = u64 [s1 + 0x88]\n114564: ra = a4 - a0\n114567: a3 = ra - a2\n114570: u64 [s1 + 0x60] = a3\n114573: a3 = ra <u a2\n114576: a2 = a4 <u a0\n114579: a2 = t2 - a2\n114582: a0 = u64 [s1 + 0x80]\n114586: a2 = a2 - a0\n114589: a2 = a2 - a3\n114592: u64 [s1 + 0x68] = a2\n114595: a0 = t0 - t1\n114598: a0 = a0 - a1\n114601: u64 [s1 + 0x58] = a0\n114604: a0 = u64 [s1 + 0x78]\n114607: a0 = a0 - a5\n114610: u64 [s1 + 0x50] = a0\n114613: a0 = i32 [s1 + 0xb8]\n114617: a1 = 0x20\n114620: u64 [s1 + 0x70] = a0\n114623: ra = 1300, jump @0\n      : @1507 [@dyn 650] (gas: 125)\n114630: t0 = u64 [s1 + 0x78]\n114633: a2 = u64 [s1 + 0xb8]\n114637: t1 = t0 <u a2\n114640: a5 = u64 [s1 + 0xa0]\n114644: a4 = u64 [s1 + 0x38]\n114647: a3 = a4 ^ a5\n114650: a1 = a4 <u a5\n114653: a1 = t1 if a3 == 0\n114656: a3 = a4 - a5\n114659: t1 = a3 - t1\n114662: u64 [s1 + 0x28] = t1\n114665: a3 = t0 - a2\n114668: a4 = a3 + 0x1f\n114671: t0 = a4 <u a3\n114674: u64 [s1 + 0x38] = t0\n114677: a4 = a4 & 0xffffffffffffffe0\n114680: a2 = a2 + a4\n114683: u64 [s1 + 0x78] = a2\n114686: a3 = a2 <u a4\n114689: a2 = t1 + t0\n114692: a4 = a2 + a5\n114695: t0 = a4 + a3\n114698: a4 = t0 ^ a2\n114701: ra = t0 <u a2\n114704: ra = a3 if a4 == 0\n114707: t1 = u64 [s1 + 0xa8]\n114711: a3 = u64 [s1 + 0x40]\n114714: t2 = a3 - t1\n114717: a4 = u64 [s1 + 0xb0]\n114721: a3 = u64 [s1 + 0x48]\n114724: a5 = a3 <u a4\n114727: t2 = t2 - a5\n114730: a5 = a3 - a4\n114733: a3 = a5 <u a1\n114736: a3 = t2 - a3\n114739: a5 = a5 - a1\n114742: a1 = u64 [s1 + 0x28]\n114745: a1 = a2 <u a1\n114748: a2 = u64 [s1 + 0x38]\n114751: a1 = a2 if a2 == 0\n114754: a1 = a1 + a5\n114757: a2 = a1 <u a5\n114760: a3 = a3 + t1\n114763: a2 = a2 + a3\n114766: a3 = a1 + a4\n114769: a1 = a3 <u a1\n114772: a1 = a1 + a2\n114775: ra = ra + a3\n114778: a2 = ra <u a3\n114781: a5 = a1 + a2\n114784: a1 = a5 >u 0\n114786: a2 = ra >u 0\n114788: a2 = a1 if a5 != 0\n114791: a3 = ra | a5\n114794: a1 = t0 >u 0\n114796: a1 = a2 if a3 != 0\n114799: a2 = u64 [s1 + 0x50]\n114802: a2 = reverse a2\n114804: a3 = a2 >> 0x38\n114807: u8 [a0 + 0x1f] = a3\n114810: a3 = a2 >> 0x30\n114813: u8 [a0 + 0x1e] = a3\n114816: a3 = a2 >> 0x28\n114819: u8 [a0 + 0x1d] = a3\n114822: a3 = a2 >> 0x20\n114825: u8 [a0 + 0x1c] = a3\n114828: a3 = a2 >> 0x18\n114831: u8 [a0 + 0x1b] = a3\n114834: a3 = a2 >> 0x10\n114837: u8 [a0 + 0x1a] = a3\n114840: a3 = u64 [s1 + 0x58]\n114843: a3 = reverse a3\n114845: u8 [a0 + 0x18] = a2\n114848: a2 = a2 >> 0x8\n114851: u8 [a0 + 0x19] = a2\n114854: a2 = a3 >> 0x38\n114857: u8 [a0 + 0x17] = a2\n114860: a2 = a3 >> 0x30\n114863: u8 [a0 + 0x16] = a2\n114866: a2 = a3 >> 0x28\n114869: u8 [a0 + 0x15] = a2\n114872: a2 = a3 >> 0x20\n114875: u8 [a0 + 0x14] = a2\n114878: a2 = a3 >> 0x18\n114881: u8 [a0 + 0x13] = a2\n114884: a2 = a3 >> 0x10\n114887: u8 [a0 + 0x12] = a2\n114890: a2 = u64 [s1 + 0x60]\n114893: a2 = reverse a2\n114895: u8 [a0 + 0x10] = a3\n114898: a3 = a3 >> 0x8\n114901: u8 [a0 + 0x11] = a3\n114904: a3 = a2 >> 0x38\n114907: u8 [a0 + 0xf] = a3\n114910: a3 = a2 >> 0x30\n114913: u8 [a0 + 0xe] = a3\n114916: a3 = a2 >> 0x28\n114919: u8 [a0 + 0xd] = a3\n114922: a3 = a2 >> 0x20\n114925: u8 [a0 + 0xc] = a3\n114928: a3 = a2 >> 0x18\n114931: u8 [a0 + 0xb] = a3\n114934: a3 = a2 >> 0x10\n114937: u8 [a0 + 0xa] = a3\n114940: a3 = u64 [s1 + 0x68]\n114943: a3 = reverse a3\n114945: u8 [a0 + 0x8] = a2\n114948: a2 = a2 >> 0x8\n114951: u8 [a0 + 0x9] = a2\n114954: a2 = a3 >> 0x38\n114957: u8 [a0 + 0x7] = a2\n114960: a2 = a3 >> 0x30\n114963: u8 [a0 + 0x6] = a2\n114966: a2 = a3 >> 0x28\n114969: u8 [a0 + 0x5] = a2\n114972: a2 = a3 >> 0x20\n114975: u8 [a0 + 0x4] = a2\n114978: a2 = a3 >> 0x18\n114981: u8 [a0 + 0x3] = a2\n114984: a2 = a3 >> 0x10\n114987: u8 [a0 + 0x2] = a2\n114990: u8 [a0] = a3\n114992: a3 = a3 >> 0x8\n114995: u8 [a0 + 0x1] = a3\n114998: jump @1516 if a1 != 0\n      : @1508 (gas: 17)\n115002: a0 = u64 [s1 + 0xb8]\n115006: a1 = u64 [s1 + 0x78]\n115009: a0 = a1 <u a0\n115012: a2 = u64 [s1 + 0xa0]\n115016: a1 = t0 ^ a2\n115019: a2 = t0 <u a2\n115022: a2 = a0 if a1 == 0\n115025: a4 = u64 [s1 + 0xb0]\n115029: a0 = ra <u a4\n115032: a3 = u64 [s1 + 0xa8]\n115036: a1 = a5 ^ a3\n115039: a3 = a5 <u a3\n115042: a3 = a0 if a1 == 0\n115045: a0 = ra ^ a4\n115048: a0 = a0 | a1\n115051: a3 = a2 if a0 == 0\n115054: jump @1516 if a3 != 0\n      : @1509 (gas: 6)\n115058: a0 = 0x40\n115061: a1 = 0x20\n115064: u64 [s1 + 0xb8] = t0\n115068: u64 [s1 + 0xb0] = ra\n115072: u64 [s1 + 0xa8] = a5\n115076: ra = 1302, jump @0\n      : @1510 [@dyn 651] (gas: 71)\n115083: a1 = u64 [s1 + 0xa8]\n115087: a1 = reverse a1\n115089: a2 = u64 [s1 + 0xb0]\n115093: a2 = reverse a2\n115095: a3 = u64 [s1 + 0xb8]\n115099: a3 = reverse a3\n115101: a4 = u64 [s1 + 0x78]\n115104: a4 = reverse a4\n115106: u8 [a0 + 0x18] = a4\n115109: a5 = a4 >> 0x38\n115112: u8 [a0 + 0x1f] = a5\n115115: a5 = a4 >> 0x30\n115118: u8 [a0 + 0x1e] = a5\n115121: a5 = a4 >> 0x28\n115124: u8 [a0 + 0x1d] = a5\n115127: a5 = a4 >> 0x20\n115130: u8 [a0 + 0x1c] = a5\n115133: a5 = a4 >> 0x18\n115136: u8 [a0 + 0x1b] = a5\n115139: a5 = a4 >> 0x10\n115142: u8 [a0 + 0x1a] = a5\n115145: a4 = a4 >> 0x8\n115148: u8 [a0 + 0x19] = a4\n115151: u8 [a0 + 0x10] = a3\n115154: a4 = a3 >> 0x38\n115157: u8 [a0 + 0x17] = a4\n115160: a4 = a3 >> 0x30\n115163: u8 [a0 + 0x16] = a4\n115166: a4 = a3 >> 0x28\n115169: u8 [a0 + 0x15] = a4\n115172: a4 = a3 >> 0x20\n115175: u8 [a0 + 0x14] = a4\n115178: a4 = a3 >> 0x18\n115181: u8 [a0 + 0x13] = a4\n115184: a4 = a3 >> 0x10\n115187: u8 [a0 + 0x12] = a4\n115190: a3 = a3 >> 0x8\n115193: u8 [a0 + 0x11] = a3\n115196: u8 [a0 + 0x8] = a2\n115199: a3 = a2 >> 0x38\n115202: u8 [a0 + 0xf] = a3\n115205: a3 = a2 >> 0x30\n115208: u8 [a0 + 0xe] = a3\n115211: a3 = a2 >> 0x28\n115214: u8 [a0 + 0xd] = a3\n115217: a3 = a2 >> 0x20\n115220: u8 [a0 + 0xc] = a3\n115223: a3 = a2 >> 0x18\n115226: u8 [a0 + 0xb] = a3\n115229: a3 = a2 >> 0x10\n115232: u8 [a0 + 0xa] = a3\n115235: a2 = a2 >> 0x8\n115238: u8 [a0 + 0x9] = a2\n115241: u8 [a0] = a1\n115243: a2 = a1 >> 0x38\n115246: u8 [a0 + 0x7] = a2\n115249: a2 = a1 >> 0x30\n115252: u8 [a0 + 0x6] = a2\n115255: a2 = a1 >> 0x28\n115258: u8 [a0 + 0x5] = a2\n115261: a2 = a1 >> 0x20\n115264: u8 [a0 + 0x4] = a2\n115267: a2 = a1 >> 0x18\n115270: u8 [a0 + 0x3] = a2\n115273: a2 = a1 >> 0x10\n115276: u8 [a0 + 0x2] = a2\n115279: a1 = a1 >> 0x8\n115282: u8 [a0 + 0x1] = a1\n115285: a1 = 0x20\n115288: a0 = u64 [s1 + 0x70]\n115291: ra = 1304, jump @0\n      : @1511 [@dyn 652] (gas: 12)\n115298: t2 = u64 [s1 + 0x98]\n115302: a3 = u64 [s1 + 0x88]\n115306: a1 = t2 | a3\n115309: a2 = u64 [s1 + 0x90]\n115313: a4 = u64 [s1 + 0x80]\n115317: a2 = a2 | a4\n115320: a1 = a1 | a2\n115323: a1 = a1 >> 0x20\n115326: a2 = a2 | a3\n115329: a2 = a2 << 0x20\n115332: a1 = a1 | a2\n115335: jump @1515 if a1 != 0\n      : @1512 (gas: 100)\n115339: a1 = u8 [a0 + 0x19]\n115342: a2 = u8 [a0 + 0x18]\n115345: a3 = u8 [a0 + 0x1a]\n115348: a4 = u8 [a0 + 0x1b]\n115351: a1 = a1 << 0x8\n115354: a1 = a1 | a2\n115357: a3 = a3 << 0x10\n115360: a4 = a4 << 0x18\n115363: a3 = a3 | a4\n115366: a1 = a1 | a3\n115369: a2 = u8 [a0 + 0x1d]\n115372: a3 = u8 [a0 + 0x1c]\n115375: a4 = u8 [a0 + 0x1e]\n115378: a5 = u8 [a0 + 0x1f]\n115381: a2 = a2 << 0x8\n115384: a2 = a2 | a3\n115387: a4 = a4 << 0x10\n115390: a5 = a5 << 0x18\n115393: a4 = a4 | a5\n115396: a2 = a2 | a4\n115399: a2 = a2 << 0x20\n115402: t0 = a2 | a1\n115405: a2 = u8 [a0 + 0x11]\n115408: a3 = u8 [a0 + 0x10]\n115411: a4 = u8 [a0 + 0x12]\n115414: a5 = u8 [a0 + 0x13]\n115417: a2 = a2 << 0x8\n115420: a2 = a2 | a3\n115423: a4 = a4 << 0x10\n115426: a5 = a5 << 0x18\n115429: a4 = a4 | a5\n115432: a2 = a2 | a4\n115435: a3 = u8 [a0 + 0x15]\n115438: a4 = u8 [a0 + 0x14]\n115441: a5 = u8 [a0 + 0x16]\n115444: a1 = u8 [a0 + 0x17]\n115447: a3 = a3 << 0x8\n115450: a3 = a3 | a4\n115453: a5 = a5 << 0x10\n115456: a1 = a1 << 0x18\n115459: a1 = a1 | a5\n115462: a1 = a1 | a3\n115465: a1 = a1 << 0x20\n115468: t1 = a1 | a2\n115471: a1 = u8 [a0 + 0x9]\n115474: a3 = u8 [a0 + 0x8]\n115477: a4 = u8 [a0 + 0xa]\n115480: a5 = u8 [a0 + 0xb]\n115483: a1 = a1 << 0x8\n115486: a1 = a1 | a3\n115489: a4 = a4 << 0x10\n115492: a5 = a5 << 0x18\n115495: a4 = a4 | a5\n115498: a1 = a1 | a4\n115501: a3 = u8 [a0 + 0xd]\n115504: a4 = u8 [a0 + 0xc]\n115507: a5 = u8 [a0 + 0xe]\n115510: a2 = u8 [a0 + 0xf]\n115513: a3 = a3 << 0x8\n115516: a3 = a3 | a4\n115519: a5 = a5 << 0x10\n115522: a2 = a2 << 0x18\n115525: a2 = a2 | a5\n115528: a2 = a2 | a3\n115531: a2 = a2 << 0x20\n115534: a3 = a2 | a1\n115537: a1 = u8 [a0 + 0x1]\n115540: a2 = u8 [a0]\n115542: a4 = u8 [a0 + 0x2]\n115545: a5 = u8 [a0 + 0x3]\n115548: a1 = a1 << 0x8\n115551: a1 = a1 | a2\n115554: a4 = a4 << 0x10\n115557: a5 = a5 << 0x18\n115560: a4 = a4 | a5\n115563: a1 = a1 | a4\n115566: a2 = u8 [a0 + 0x5]\n115569: a4 = u8 [a0 + 0x4]\n115572: a5 = u8 [a0 + 0x6]\n115575: a0 = u8 [a0 + 0x7]\n115578: a2 = a2 << 0x8\n115581: a2 = a2 | a4\n115584: a5 = a5 << 0x10\n115587: a0 = a0 << 0x18\n115590: a0 = a0 | a5\n115593: a0 = a0 | a2\n115596: a0 = a0 << 0x20\n115599: a0 = a0 | a1\n115602: a0 = reverse a0\n115604: a2 = reverse a3\n115606: a3 = reverse t1\n115608: a1 = reverse t0\n115610: a4 = a1 | a2\n115613: a0 = a0 | a3\n115616: a4 = a4 | a0\n115619: a4 = a4 >> 0x20\n115622: a0 = a0 | a2\n115625: a0 = a0 << 0x20\n115628: a0 = a0 | a4\n115631: jump @1515 if a0 != 0\n      : @1513 (gas: 4)\n115634: i32 a0 = t2 + 0\n115636: i32 a1 = a1 + 0\n115638: u64 [s1 + 0xb8] = a1\n115642: ra = 1306, jump @0\n      : @1514 [@dyn 653] (gas: 28)\n115649: a1 = sp + 0xffffffffffffffe0\n115652: a1 = a1 & 0xffffffffffffffe0\n115655: u64 [s1 + 0xb0] = a1\n115659: sp = a1\n115661: i32 a0 = a0 + 0\n115663: i32 a2 = a1 + 0\n115665: a1 = u64 [s1 + 0xb8]\n115669: ecalli 9 // 'hash_keccak_256'\n115671: a3 = u64 [s1 + 0xb0]\n115675: a0 = u64 [a3 + 0x18]\n115678: a1 = u64 [a3 + 0x10]\n115681: a2 = u64 [a3 + 0x8]\n115684: a3 = u64 [a3]\n115686: a0 = reverse a0\n115688: a1 = reverse a1\n115690: a2 = reverse a2\n115692: a3 = reverse a3\n115694: a4 = u64 [s1 + 0x30]\n115697: u64 [a4 + 0x18] = a3\n115700: u64 [a4 + 0x10] = a2\n115703: u64 [a4 + 0x8] = a1\n115706: u64 [a4] = a0\n115708: sp = s0 + 0xfffffffffffffe20\n115712: ra = u64 [sp + 0x1d8]\n115716: s0 = u64 [sp + 0x1d0]\n115720: s1 = u64 [sp + 0x1c8]\n115724: sp = sp + 0x1e0\n115728: ret\n      : @1515 (gas: 1)\n115730: trap\n      : @1516 (gas: 8)\n115731: u64 [s1 + 240] = 0\n115735: u64 [s1 + 232] = 0\n115739: u64 [s1 + 224] = 0\n115743: a0 = 0x4e487b7100000000\n115753: a1 = s1 + 0xe0\n115757: u64 [s1 + 0xf8] = a0\n115761: a0 = 0\n115763: ra = 1308, jump @23\n      : @1517 [@dyn 654] (gas: 7)\n115770: u64 [s1 + 216] = 0\n115774: u64 [s1 + 208] = 0\n115778: u64 [s1 + 192] = 0x41\n115783: a0 = 0x4\n115786: a1 = s1 + 0xc0\n115790: u64 [s1 + 200] = 0\n115794: ra = 1310, jump @23\n      : @1518 [@dyn 655] (gas: 3)\n115801: a1 = 0x24\n115804: a0 = 0\n115806: ra = 1312, jump @0\n      : @1519 [@dyn 656] (gas: 6)\n115813: i32 a1 = a0 + 0\n115815: a0 = 0x1\n115818: a2 = 0x24\n115821: ra = 0x522\n115825: ecalli 14 // 'seal_return'\n115827: fallthrough\n      : @1520 [@dyn 657] (gas: 5)\n115828: u64 [a0 + 24] = 0\n115831: u64 [a0 + 16] = 0\n115834: u64 [a0 + 8] = 0\n115837: u64 [a0 + 0] = 0\n115839: ret\n      : @1521 (gas: 22)\n115841: sp = sp + 0xfffffffffffffdb0\n115845: u64 [sp + 0x248] = ra\n115849: u64 [sp + 0x240] = s0\n115853: u64 [sp + 0x238] = s1\n115857: s0 = sp + 0x250\n115861: sp = sp & 0xfffffffffffffff0\n115864: a5 = u64 [a2 + 0x10]\n115867: s1 = u64 [a2 + 0x18]\n115870: a3 = u64 [a2 + 0x8]\n115873: a4 = u64 [a2]\n115875: u64 [sp + 0x130] = a3\n115879: u64 [sp + 0x120] = s1\n115883: a2 = a3 | s1\n115886: a3 = a4 | a5\n115889: a3 = a3 | a2\n115892: a3 = a3 >> 0x20\n115895: u64 [sp + 0x128] = a5\n115899: a2 = a2 | a5\n115902: a2 = a2 << 0x20\n115905: a2 = a2 | a3\n115908: u64 [sp + 0x138] = a0\n115912: jump @1535 if a2 != 0\n      : @1522 (gas: 13)\n115916: a0 = u64 [a1 + 0x18]\n115919: u64 [sp + 0x100] = a0\n115923: a0 = u64 [a1 + 0x10]\n115926: u64 [sp + 0x108] = a0\n115930: a0 = u64 [a1 + 0x8]\n115933: u64 [sp + 0x110] = a0\n115937: a0 = u64 [a1]\n115939: u64 [sp + 0x118] = a0\n115943: u64 [sp + 0x140] = a4\n115947: i32 a0 = a4 + 0\n115949: a1 = 0x20\n115952: u64 [sp + 0x148] = a0\n115956: ra = 1316, jump @0\n      : @1523 [@dyn 658] (gas: 93)\n115963: a1 = u8 [a0 + 0x9]\n115966: a2 = u8 [a0 + 0x8]\n115969: a3 = u8 [a0 + 0xa]\n115972: a4 = u8 [a0 + 0xb]\n115975: a1 = a1 << 0x8\n115978: a1 = a1 | a2\n115981: a3 = a3 << 0x10\n115984: a4 = a4 << 0x18\n115987: a3 = a3 | a4\n115990: a1 = a1 | a3\n115993: a2 = u8 [a0 + 0xd]\n115996: a3 = u8 [a0 + 0xc]\n115999: a4 = u8 [a0 + 0xe]\n116002: a5 = u8 [a0 + 0xf]\n116005: a2 = a2 << 0x8\n116008: a2 = a2 | a3\n116011: a4 = a4 << 0x10\n116014: a5 = a5 << 0x18\n116017: a4 = a4 | a5\n116020: a2 = a2 | a4\n116023: a2 = a2 << 0x20\n116026: t0 = a2 | a1\n116029: a2 = u8 [a0 + 0x19]\n116032: a3 = u8 [a0 + 0x18]\n116035: a4 = u8 [a0 + 0x1a]\n116038: a5 = u8 [a0 + 0x1b]\n116041: a2 = a2 << 0x8\n116044: a2 = a2 | a3\n116047: a4 = a4 << 0x10\n116050: a5 = a5 << 0x18\n116053: a4 = a4 | a5\n116056: a2 = a2 | a4\n116059: a3 = u8 [a0 + 0x1d]\n116062: a4 = u8 [a0 + 0x1c]\n116065: a5 = u8 [a0 + 0x1e]\n116068: a1 = u8 [a0 + 0x1f]\n116071: a3 = a3 << 0x8\n116074: a3 = a3 | a4\n116077: a5 = a5 << 0x10\n116080: a1 = a1 << 0x18\n116083: a1 = a1 | a5\n116086: a1 = a1 | a3\n116089: a1 = a1 << 0x20\n116092: t1 = a1 | a2\n116095: a1 = u8 [a0 + 0x11]\n116098: a3 = u8 [a0 + 0x10]\n116101: a4 = u8 [a0 + 0x12]\n116104: a5 = u8 [a0 + 0x13]\n116107: a1 = a1 << 0x8\n116110: a1 = a1 | a3\n116113: a4 = a4 << 0x10\n116116: a5 = a5 << 0x18\n116119: a3 = a5 | a4\n116122: a3 = a3 | a1\n116125: a1 = u8 [a0 + 0x1]\n116128: a4 = u8 [a0]\n116130: a5 = u8 [a0 + 0x2]\n116133: s1 = u8 [a0 + 0x3]\n116136: a1 = a1 << 0x8\n116139: a1 = a1 | a4\n116142: a5 = a5 << 0x10\n116145: s1 = s1 << 0x18\n116148: a4 = s1 | a5\n116151: a4 = a4 | a1\n116154: a1 = u8 [a0 + 0x15]\n116157: a5 = u8 [a0 + 0x14]\n116160: s1 = u8 [a0 + 0x16]\n116163: a2 = u8 [a0 + 0x17]\n116166: a1 = a1 << 0x8\n116169: a1 = a1 | a5\n116172: s1 = s1 << 0x10\n116175: a2 = a2 << 0x18\n116178: a2 = a2 | s1\n116181: a1 = a1 | a2\n116184: a2 = u8 [a0 + 0x5]\n116187: a5 = u8 [a0 + 0x4]\n116190: s1 = u8 [a0 + 0x6]\n116193: a0 = u8 [a0 + 0x7]\n116196: a2 = a2 << 0x8\n116199: a2 = a2 | a5\n116202: s1 = s1 << 0x10\n116205: a0 = a0 << 0x18\n116208: a0 = a0 | s1\n116211: a0 = a0 | a2\n116214: a2 = 0x4100000000000000\n116224: a2 = t1 ^ a2\n116227: a2 = t0 | a2\n116230: a0 = a0 | a1\n116233: a0 = a0 << 0x20\n116236: a3 = a3 | a4\n116239: a0 = a0 | a3\n116242: a0 = a0 | a2\n116245: jump @1532 if a0 != 0\n      : @1524 (gas: 14)\n116249: a1 = u64 [sp + 0x148]\n116253: a0 = u64 [sp + 0x128]\n116257: a2 = u64 [sp + 0x120]\n116261: a3 = a0 | a2\n116264: a0 = 0x100000000\n116274: u64 [sp + 0x120] = a0\n116278: a0 = 0xffffffe0\n116288: a2 = u64 [sp + 0x140]\n116292: a0 = a2 <u a0\n116295: s1 = u64 [sp + 0x130]\n116299: a0 = 0 if s1 != 0\n116301: u64 [sp + 0x128] = a3\n116305: a0 = 0 if a3 != 0\n116307: jump @1535 if a0 == 0\n      : @1525 (gas: 3)\n116311: i32 a0 = a1 + 0x20\n116314: a1 = 0x20\n116317: ra = 1318, jump @0\n      : @1526 [@dyn 659] (gas: 8)\n116324: a1 = u64 [sp + 0x120]\n116328: a1 = a1 + 0xffffffffffffffc0\n116331: a2 = u64 [sp + 0x140]\n116335: a1 = a2 <u a1\n116338: a1 = 0 if s1 != 0\n116340: a2 = u64 [sp + 0x128]\n116344: a1 = 0 if a2 != 0\n116346: jump @1535 if a1 == 0\n      : @1527 (gas: 68)\n116350: a1 = u8 [a0 + 0x18]\n116353: u64 [sp + 0x28] = a1\n116356: a1 = u8 [a0 + 0x19]\n116359: u64 [sp + 0x8] = a1\n116362: a1 = u8 [a0 + 0x1a]\n116365: u64 [sp + 0x18] = a1\n116368: a1 = u8 [a0 + 0x1b]\n116371: u64 [sp + 0x10] = a1\n116374: a1 = u8 [a0 + 0x1c]\n116377: u64 [sp + 0x40] = a1\n116380: a1 = u8 [a0 + 0x1d]\n116383: u64 [sp + 0x20] = a1\n116386: a1 = u8 [a0 + 0x1e]\n116389: u64 [sp + 0x38] = a1\n116392: a1 = u8 [a0 + 0x1f]\n116395: u64 [sp + 0x30] = a1\n116398: a1 = u8 [a0 + 0x10]\n116401: u64 [sp + 0x68] = a1\n116404: a1 = u8 [a0 + 0x11]\n116407: u64 [sp + 0x48] = a1\n116410: a1 = u8 [a0 + 0x12]\n116413: u64 [sp + 0x58] = a1\n116416: a1 = u8 [a0 + 0x13]\n116419: u64 [sp + 0x50] = a1\n116422: a1 = u8 [a0 + 0x14]\n116425: u64 [sp + 0x80] = a1\n116429: a1 = u8 [a0 + 0x15]\n116432: u64 [sp + 0x60] = a1\n116435: a1 = u8 [a0 + 0x16]\n116438: u64 [sp + 0x78] = a1\n116441: a1 = u8 [a0 + 0x17]\n116444: u64 [sp + 0x70] = a1\n116447: a1 = u8 [a0 + 0x8]\n116450: u64 [sp + 0xa8] = a1\n116454: a1 = u8 [a0 + 0x9]\n116457: u64 [sp + 0x88] = a1\n116461: a1 = u8 [a0 + 0xa]\n116464: u64 [sp + 0x98] = a1\n116468: a1 = u8 [a0 + 0xb]\n116471: u64 [sp + 0x90] = a1\n116475: a1 = u8 [a0 + 0xc]\n116478: u64 [sp + 0xc0] = a1\n116482: a1 = u8 [a0 + 0xd]\n116485: u64 [sp + 0xa0] = a1\n116489: a1 = u8 [a0 + 0xe]\n116492: u64 [sp + 0xb8] = a1\n116496: a1 = u8 [a0 + 0xf]\n116499: u64 [sp + 0xb0] = a1\n116503: a1 = u8 [a0]\n116505: u64 [sp + 0xe8] = a1\n116509: a1 = u8 [a0 + 0x1]\n116512: u64 [sp + 0xc8] = a1\n116516: a1 = u8 [a0 + 0x2]\n116519: u64 [sp + 0xd8] = a1\n116523: a1 = u8 [a0 + 0x3]\n116526: u64 [sp + 0xd0] = a1\n116530: a1 = u8 [a0 + 0x4]\n116533: u64 [sp + 0x120] = a1\n116537: a1 = u8 [a0 + 0x5]\n116540: u64 [sp + 0xe0] = a1\n116544: a1 = u8 [a0 + 0x6]\n116547: u64 [sp + 0xf8] = a1\n116551: a0 = u8 [a0 + 0x7]\n116554: u64 [sp + 0xf0] = a0\n116558: a0 = u64 [sp + 0x148]\n116562: i32 a0 = a0 + 0x40\n116565: a1 = 0x20\n116568: ra = 1320, jump @0\n      : @1528 [@dyn 660] (gas: 7)\n116575: a1 = 0xffffffa0\n116585: a2 = u64 [sp + 0x140]\n116589: a1 = a2 <u a1\n116592: a1 = 0 if s1 != 0\n116594: a2 = u64 [sp + 0x128]\n116598: a1 = 0 if a2 != 0\n116600: jump @1535 if a1 == 0\n      : @1529 (gas: 197)\n116604: a1 = u64 [sp + 0x8]\n116607: a1 = a1 << 0x8\n116610: a2 = u64 [sp + 0x28]\n116613: a1 = a1 | a2\n116616: a2 = u64 [sp + 0x18]\n116619: a2 = a2 << 0x10\n116622: a3 = u64 [sp + 0x10]\n116625: a3 = a3 << 0x18\n116628: a2 = a2 | a3\n116631: a1 = a1 | a2\n116634: a2 = u64 [sp + 0x20]\n116637: a2 = a2 << 0x8\n116640: a3 = u64 [sp + 0x40]\n116643: a2 = a2 | a3\n116646: a3 = u64 [sp + 0x38]\n116649: a3 = a3 << 0x10\n116652: a4 = u64 [sp + 0x30]\n116655: a4 = a4 << 0x18\n116658: a3 = a3 | a4\n116661: a2 = a2 | a3\n116664: a2 = a2 << 0x20\n116667: a1 = a1 | a2\n116670: u64 [sp + 0x140] = a1\n116674: a1 = u64 [sp + 0x48]\n116677: a1 = a1 << 0x8\n116680: a2 = u64 [sp + 0x68]\n116683: a1 = a1 | a2\n116686: a2 = u64 [sp + 0x58]\n116689: a2 = a2 << 0x10\n116692: a3 = u64 [sp + 0x50]\n116695: a3 = a3 << 0x18\n116698: a2 = a2 | a3\n116701: a1 = a1 | a2\n116704: a2 = u64 [sp + 0x60]\n116707: a2 = a2 << 0x8\n116710: a3 = u64 [sp + 0x80]\n116714: a2 = a2 | a3\n116717: a3 = u64 [sp + 0x78]\n116720: a3 = a3 << 0x10\n116723: a4 = u64 [sp + 0x70]\n116726: a4 = a4 << 0x18\n116729: a3 = a3 | a4\n116732: a2 = a2 | a3\n116735: a2 = a2 << 0x20\n116738: t1 = a2 | a1\n116741: a1 = u64 [sp + 0x88]\n116745: a1 = a1 << 0x8\n116748: a2 = u64 [sp + 0xa8]\n116752: a1 = a1 | a2\n116755: a2 = u64 [sp + 0x98]\n116759: a2 = a2 << 0x10\n116762: a3 = u64 [sp + 0x90]\n116766: a3 = a3 << 0x18\n116769: a2 = a2 | a3\n116772: a1 = a1 | a2\n116775: a2 = u64 [sp + 0xa0]\n116779: a2 = a2 << 0x8\n116782: a3 = u64 [sp + 0xc0]\n116786: a2 = a2 | a3\n116789: a3 = u64 [sp + 0xb8]\n116793: a3 = a3 << 0x10\n116796: a4 = u64 [sp + 0xb0]\n116800: a4 = a4 << 0x18\n116803: a3 = a3 | a4\n116806: a2 = a2 | a3\n116809: a2 = a2 << 0x20\n116812: t2 = a2 | a1\n116815: a1 = u64 [sp + 0xc8]\n116819: a1 = a1 << 0x8\n116822: a2 = u64 [sp + 0xe8]\n116826: a1 = a1 | a2\n116829: a2 = u64 [sp + 0xd8]\n116833: a2 = a2 << 0x10\n116836: a4 = u64 [sp + 0xd0]\n116840: a4 = a4 << 0x18\n116843: a2 = a2 | a4\n116846: a1 = a1 | a2\n116849: a2 = u64 [sp + 0xe0]\n116853: a2 = a2 << 0x8\n116856: a3 = u64 [sp + 0x120]\n116860: a2 = a2 | a3\n116863: a4 = u64 [sp + 0xf8]\n116867: a4 = a4 << 0x10\n116870: a5 = u64 [sp + 0xf0]\n116874: a5 = a5 << 0x18\n116877: a4 = a4 | a5\n116880: a2 = a2 | a4\n116883: a2 = a2 << 0x20\n116886: ra = a2 | a1\n116889: a1 = u8 [a0 + 0x1]\n116892: a2 = u8 [a0]\n116894: a5 = u8 [a0 + 0x2]\n116897: s1 = u8 [a0 + 0x3]\n116900: a1 = a1 << 0x8\n116903: a1 = a1 | a2\n116906: a5 = a5 << 0x10\n116909: s1 = s1 << 0x18\n116912: a5 = a5 | s1\n116915: a1 = a1 | a5\n116918: a2 = u8 [a0 + 0x5]\n116921: a5 = u8 [a0 + 0x4]\n116924: s1 = u8 [a0 + 0x6]\n116927: a3 = u8 [a0 + 0x7]\n116930: a2 = a2 << 0x8\n116933: a2 = a2 | a5\n116936: s1 = s1 << 0x10\n116939: a3 = a3 << 0x18\n116942: a3 = a3 | s1\n116945: a2 = a2 | a3\n116948: a2 = a2 << 0x20\n116951: t0 = a2 | a1\n116954: a1 = u8 [a0 + 0x9]\n116957: a2 = u8 [a0 + 0x8]\n116960: a3 = u8 [a0 + 0xa]\n116963: s1 = u8 [a0 + 0xb]\n116966: a1 = a1 << 0x8\n116969: a1 = a1 | a2\n116972: a3 = a3 << 0x10\n116975: s1 = s1 << 0x18\n116978: a3 = a3 | s1\n116981: a1 = a1 | a3\n116984: a2 = u8 [a0 + 0xd]\n116987: a3 = u8 [a0 + 0xc]\n116990: s1 = u8 [a0 + 0xe]\n116993: a4 = u8 [a0 + 0xf]\n116996: a2 = a2 << 0x8\n116999: a2 = a2 | a3\n117002: s1 = s1 << 0x10\n117005: a4 = a4 << 0x18\n117008: a4 = a4 | s1\n117011: a2 = a2 | a4\n117014: a2 = a2 << 0x20\n117017: a5 = a2 | a1\n117020: a2 = u8 [a0 + 0x11]\n117023: a3 = u8 [a0 + 0x10]\n117026: a4 = u8 [a0 + 0x12]\n117029: s1 = u8 [a0 + 0x13]\n117032: a2 = a2 << 0x8\n117035: a2 = a2 | a3\n117038: a4 = a4 << 0x10\n117041: s1 = s1 << 0x18\n117044: a4 = a4 | s1\n117047: a2 = a2 | a4\n117050: a3 = u8 [a0 + 0x15]\n117053: a4 = u8 [a0 + 0x14]\n117056: s1 = u8 [a0 + 0x16]\n117059: a1 = u8 [a0 + 0x17]\n117062: a3 = a3 << 0x8\n117065: a3 = a3 | a4\n117068: s1 = s1 << 0x10\n117071: a1 = a1 << 0x18\n117074: a1 = a1 | s1\n117077: a1 = a1 | a3\n117080: a1 = a1 << 0x20\n117083: a2 = a2 | a1\n117086: a1 = u8 [a0 + 0x19]\n117089: a3 = u8 [a0 + 0x18]\n117092: a4 = u8 [a0 + 0x1a]\n117095: s1 = u8 [a0 + 0x1b]\n117098: a1 = a1 << 0x8\n117101: a1 = a1 | a3\n117104: a4 = a4 << 0x10\n117107: s1 = s1 << 0x18\n117110: a4 = a4 | s1\n117113: a1 = a1 | a4\n117116: a3 = u8 [a0 + 0x1d]\n117119: a4 = u8 [a0 + 0x1c]\n117122: s1 = u8 [a0 + 0x1e]\n117125: a0 = u8 [a0 + 0x1f]\n117128: a3 = a3 << 0x8\n117131: a3 = a3 | a4\n117134: s1 = s1 << 0x10\n117137: a0 = a0 << 0x18\n117140: a0 = a0 | s1\n117143: a0 = a0 | a3\n117146: a0 = a0 << 0x20\n117149: a0 = a0 | a1\n117152: s1 = reverse ra\n117154: a1 = reverse t2\n117156: u64 [sp + 0xe8] = a1\n117160: a1 = reverse t1\n117162: u64 [sp + 0xf0] = a1\n117166: a1 = u64 [sp + 0x140]\n117170: a1 = reverse a1\n117172: u64 [sp + 0xf8] = a1\n117176: a0 = reverse a0\n117178: u64 [sp + 0x140] = a0\n117182: a0 = reverse a2\n117184: u64 [sp + 0x130] = a0\n117188: a0 = reverse a5\n117190: u64 [sp + 0x128] = a0\n117194: a0 = reverse t0\n117196: u64 [sp + 0x120] = a0\n117200: a0 = u64 [sp + 0x148]\n117204: i32 a0 = a0 + 0x60\n117207: a1 = 0x20\n117210: ra = 1322, jump @0\n      : @1530 [@dyn 661] (gas: 34)\n117217: a0 = u8 [a0]\n117219: u64 [sp + 0x188] = s1\n117223: a1 = u64 [sp + 0xe8]\n117227: u64 [sp + 0x180] = a1\n117231: a1 = u64 [sp + 0xf0]\n117235: u64 [sp + 0x178] = a1\n117239: a1 = u64 [sp + 0xf8]\n117243: u64 [sp + 0x170] = a1\n117247: u64 [sp + 0x190] = a0\n117251: u64 [sp + 424] = 0\n117255: u64 [sp + 416] = 0\n117259: u64 [sp + 408] = 0\n117263: a0 = u64 [sp + 0x100]\n117267: u64 [sp + 0x1c8] = a0\n117271: a0 = u64 [sp + 0x108]\n117275: u64 [sp + 0x1c0] = a0\n117279: a0 = u64 [sp + 0x110]\n117283: u64 [sp + 0x1b8] = a0\n117287: a0 = u64 [sp + 0x118]\n117291: u64 [sp + 0x1b0] = a0\n117295: a0 = u64 [sp + 0x120]\n117299: u64 [sp + 0x168] = a0\n117303: a0 = u64 [sp + 0x128]\n117307: u64 [sp + 0x160] = a0\n117311: a0 = u64 [sp + 0x130]\n117315: u64 [sp + 0x158] = a0\n117319: a0 = sp + 0x1d0\n117323: a1 = sp + 0x1b0\n117327: a2 = sp + 0x190\n117331: a3 = sp + 0x170\n117335: a4 = sp + 0x150\n117339: a5 = u64 [sp + 0x140]\n117343: u64 [sp + 0x150] = a5\n117347: ra = 1324, jump @1568\n      : @1531 [@dyn 662] (gas: 15)\n117353: a5 = u64 [sp + 0x1e8]\n117357: t1 = u64 [sp + 0x1e0]\n117361: s1 = u64 [sp + 0x1d8]\n117365: a0 = u64 [sp + 0x1d0]\n117369: u64 [sp + 0x148] = a0\n117373: a0 = u64 [sp + 0x208]\n117377: u64 [sp + 0x140] = a0\n117381: ra = u64 [sp + 0x200]\n117385: t2 = u64 [sp + 0x1f8]\n117389: a4 = u64 [sp + 0x1f0]\n117393: a0 = u64 [sp + 0x228]\n117397: a3 = u64 [sp + 0x220]\n117401: a2 = u64 [sp + 0x218]\n117405: t0 = u64 [sp + 0x210]\n117409: jump @1534\n      : @1532 (gas: 3)\n117412: a1 = 0x20\n117415: a0 = u64 [sp + 0x148]\n117419: ra = 1326, jump @0\n      : @1533 [@dyn 663] (gas: 103)\n117426: u64 [sp + 328] = 0\n117430: u64 [sp + 304] = 0\n117434: u64 [sp + 296] = 0\n117438: t2 = 0\n117440: ra = 0\n117442: u64 [sp + 320] = 0\n117446: a2 = u8 [a0 + 0x19]\n117449: a3 = u8 [a0 + 0x18]\n117452: a4 = u8 [a0 + 0x1a]\n117455: a5 = u8 [a0 + 0x1b]\n117458: a2 = a2 << 0x8\n117461: a2 = a2 | a3\n117464: a4 = a4 << 0x10\n117467: a5 = a5 << 0x18\n117470: a4 = a4 | a5\n117473: a2 = a2 | a4\n117476: a3 = u8 [a0 + 0x1d]\n117479: a4 = u8 [a0 + 0x1c]\n117482: a5 = u8 [a0 + 0x1e]\n117485: s1 = u8 [a0 + 0x1f]\n117488: a3 = a3 << 0x8\n117491: a3 = a3 | a4\n117494: a5 = a5 << 0x10\n117497: s1 = s1 << 0x18\n117500: a5 = a5 | s1\n117503: a3 = a3 | a5\n117506: a3 = a3 << 0x20\n117509: t0 = a3 | a2\n117512: a2 = u8 [a0 + 0x11]\n117515: a3 = u8 [a0 + 0x10]\n117518: a5 = u8 [a0 + 0x12]\n117521: s1 = u8 [a0 + 0x13]\n117524: a2 = a2 << 0x8\n117527: a2 = a2 | a3\n117530: a5 = a5 << 0x10\n117533: s1 = s1 << 0x18\n117536: a5 = a5 | s1\n117539: a2 = a2 | a5\n117542: a3 = u8 [a0 + 0x15]\n117545: a5 = u8 [a0 + 0x14]\n117548: s1 = u8 [a0 + 0x16]\n117551: a4 = u8 [a0 + 0x17]\n117554: a3 = a3 << 0x8\n117557: a3 = a3 | a5\n117560: s1 = s1 << 0x10\n117563: a4 = a4 << 0x18\n117566: a4 = a4 | s1\n117569: a3 = a3 | a4\n117572: a3 = a3 << 0x20\n117575: a2 = a2 | a3\n117578: a3 = u8 [a0 + 0x9]\n117581: a4 = u8 [a0 + 0x8]\n117584: a5 = u8 [a0 + 0xa]\n117587: s1 = u8 [a0 + 0xb]\n117590: a3 = a3 << 0x8\n117593: a3 = a3 | a4\n117596: a5 = a5 << 0x10\n117599: s1 = s1 << 0x18\n117602: a5 = a5 | s1\n117605: a3 = a3 | a5\n117608: a4 = u8 [a0 + 0xd]\n117611: a5 = u8 [a0 + 0xc]\n117614: s1 = u8 [a0 + 0xe]\n117617: t1 = u8 [a0 + 0xf]\n117620: a4 = a4 << 0x8\n117623: a4 = a4 | a5\n117626: s1 = s1 << 0x10\n117629: t1 = t1 << 0x18\n117632: a5 = t1 | s1\n117635: t1 = 0\n117637: a4 = a4 | a5\n117640: a4 = a4 << 0x20\n117643: a3 = a3 | a4\n117646: a4 = u8 [a0 + 0x1]\n117649: a5 = u8 [a0]\n117651: s1 = u8 [a0 + 0x2]\n117654: a1 = u8 [a0 + 0x3]\n117657: a4 = a4 << 0x8\n117660: a4 = a4 | a5\n117663: s1 = s1 << 0x10\n117666: a1 = a1 << 0x18\n117669: a1 = a1 | s1\n117672: a1 = a1 | a4\n117675: a4 = u8 [a0 + 0x5]\n117678: a5 = u8 [a0 + 0x4]\n117681: s1 = u8 [a0 + 0x6]\n117684: a0 = u8 [a0 + 0x7]\n117687: a4 = a4 << 0x8\n117690: a4 = a4 | a5\n117693: a5 = u64 [sp + 0x128]\n117697: s1 = s1 << 0x10\n117700: a0 = a0 << 0x18\n117703: a0 = a0 | s1\n117706: s1 = u64 [sp + 0x130]\n117710: a0 = a0 | a4\n117713: a0 = a0 << 0x20\n117716: a0 = a0 | a1\n117719: a0 = reverse a0\n117721: a3 = reverse a3\n117723: a2 = reverse a2\n117725: t0 = reverse t0\n117727: a4 = 0x2\n117730: fallthrough\n      : @1534 (gas: 21)\n117731: a1 = u64 [sp + 0x138]\n117735: u64 [a1 + 0x40] = t0\n117738: u64 [a1 + 0x20] = a4\n117741: a4 = u64 [sp + 0x148]\n117745: u64 [a1] = a4\n117747: u64 [a1 + 0x48] = a2\n117750: u64 [a1 + 0x28] = t2\n117753: u64 [a1 + 0x8] = s1\n117756: u64 [a1 + 0x50] = a3\n117759: u64 [a1 + 0x30] = ra\n117762: u64 [a1 + 0x10] = t1\n117765: u64 [a1 + 0x58] = a0\n117768: a0 = u64 [sp + 0x140]\n117772: u64 [a1 + 0x38] = a0\n117775: u64 [a1 + 0x18] = a5\n117778: sp = s0 + 0xfffffffffffffdb0\n117782: ra = u64 [sp + 0x248]\n117786: s0 = u64 [sp + 0x240]\n117790: s1 = u64 [sp + 0x238]\n117794: sp = sp + 0x250\n117798: ret\n      : @1535 (gas: 1)\n117800: trap\n      : @1536 (gas: 15)\n117801: sp = sp + 0xffffffffffffff80\n117804: u64 [sp + 0x78] = ra\n117807: u64 [sp + 0x70] = s0\n117810: u64 [sp + 0x68] = s1\n117813: s0 = sp + 0x80\n117817: sp = sp & 0xfffffffffffffff0\n117820: a3 = u64 [a0 + 0x18]\n117823: a4 = u64 [a0 + 0x10]\n117826: a2 = u64 [a0]\n117828: a0 = u64 [a0 + 0x8]\n117831: a3 = a3 | a4\n117834: a4 = a2 <u 0x4\n117837: a4 = 0 if a0 != 0\n117839: a4 = 0 if a3 != 0\n117841: jump @1539 if a4 == 0\n      : @1537 (gas: 2)\n117844: a0 = a2 & 0x3\n117847: jump @1542 if a0 != 0\n      : @1538 (gas: 6)\n117850: sp = s0 + 0xffffffffffffff80\n117853: ra = u64 [sp + 0x78]\n117856: s0 = u64 [sp + 0x70]\n117859: s1 = u64 [sp + 0x68]\n117862: sp = sp + 0x80\n117866: ret\n      : @1539 (gas: 8)\n117868: u64 [sp + 80] = 0\n117871: u64 [sp + 72] = 0\n117874: u64 [sp + 64] = 0\n117877: a0 = 0x4e487b7100000000\n117887: a1 = sp + 0x40\n117890: u64 [sp + 0x58] = a0\n117893: a0 = 0\n117895: ra = 1328, jump @23\n      : @1540 [@dyn 664] (gas: 7)\n117902: u64 [sp + 56] = 0\n117905: u64 [sp + 48] = 0\n117908: u64 [sp + 32] = 0x21\n117912: a0 = 0x4\n117915: a1 = sp + 0x20\n117918: u64 [sp + 40] = 0\n117921: ra = 1330, jump @23\n      : @1541 [@dyn 665] (gas: 1)\n117928: jump @1553\n      : @1542 (gas: 1)\n117931: jump @1546 if a0 != 1\n      : @1543 (gas: 3)\n117936: a1 = 0x20\n117939: a0 = 0\n117941: ra = 1332, jump @0\n      : @1544 [@dyn 666] (gas: 35)\n117948: u8 [a0 + 31] = 0\n117951: u8 [a0 + 30] = 0\n117954: u8 [a0 + 29] = 0\n117957: u8 [a0 + 28] = 0\n117960: u8 [a0 + 27] = 0\n117963: u8 [a0 + 26] = 0\n117966: u8 [a0 + 25] = 0\n117969: u8 [a0 + 24] = 0\n117972: u8 [a0 + 23] = 0\n117975: u8 [a0 + 22] = 0\n117978: u8 [a0 + 21] = 0\n117981: u8 [a0 + 20] = 0\n117984: u8 [a0 + 19] = 0\n117987: u8 [a0 + 18] = 0\n117990: u8 [a0 + 17] = 0\n117993: u8 [a0 + 16] = 0\n117996: u8 [a0 + 15] = 0\n117999: u8 [a0 + 14] = 0\n118002: u8 [a0 + 13] = 0\n118005: u8 [a0 + 12] = 0\n118008: u8 [a0 + 11] = 0\n118011: u8 [a0 + 10] = 0\n118014: u8 [a0 + 9] = 0\n118017: u8 [a0 + 8] = 0\n118020: u8 [a0 + 7] = 0\n118023: u8 [a0 + 6] = 0\n118026: u8 [a0 + 5] = 0\n118029: u8 [a0 + 4] = 0\n118032: u8 [a0 + 3] = 0xdf\n118037: u8 [a0 + 2] = 0xee\n118042: u8 [a0 + 1] = 0x45\n118046: u8 [a0 + 0] = 0xf6\n118050: a1 = 0x4\n118053: a0 = 0\n118055: ra = 1334, jump @0\n      : @1545 [@dyn 667] (gas: 5)\n118062: i32 a1 = a0 + 0\n118064: a0 = 0x1\n118067: a2 = 0x4\n118070: ecalli 14 // 'seal_return'\n118072: fallthrough\n      : @1546 (gas: 8)\n118073: s1 = u64 [a1 + 0x18]\n118076: a2 = u64 [a1 + 0x10]\n118079: u64 [sp + 0x8] = a2\n118082: a2 = u64 [a1 + 0x8]\n118085: u64 [sp + 0x10] = a2\n118088: a1 = u64 [a1]\n118090: u64 [sp + 0x18] = a1\n118093: jump @1549 if a0 != 2\n      : @1547 (gas: 3)\n118097: a1 = 0x20\n118100: a0 = 0\n118102: ra = 1336, jump @0\n      : @1548 [@dyn 668] (gas: 33)\n118109: u8 [a0 + 31] = 0\n118112: u8 [a0 + 30] = 0\n118115: u8 [a0 + 29] = 0\n118118: u8 [a0 + 28] = 0\n118121: u8 [a0 + 27] = 0\n118124: u8 [a0 + 26] = 0\n118127: u8 [a0 + 25] = 0\n118130: u8 [a0 + 24] = 0\n118133: u8 [a0 + 23] = 0\n118136: u8 [a0 + 22] = 0\n118139: u8 [a0 + 21] = 0\n118142: u8 [a0 + 20] = 0\n118145: u8 [a0 + 19] = 0\n118148: u8 [a0 + 18] = 0\n118151: u8 [a0 + 17] = 0\n118154: u8 [a0 + 16] = 0\n118157: u8 [a0 + 15] = 0\n118160: u8 [a0 + 14] = 0\n118163: u8 [a0 + 13] = 0\n118166: u8 [a0 + 12] = 0\n118169: u8 [a0 + 11] = 0\n118172: u8 [a0 + 10] = 0\n118175: u8 [a0 + 9] = 0\n118178: u8 [a0 + 8] = 0\n118181: u8 [a0 + 7] = 0\n118184: u8 [a0 + 6] = 0\n118187: u8 [a0 + 5] = 0\n118190: u8 [a0 + 4] = 0\n118193: u8 [a0 + 3] = 0xf7\n118198: u8 [a0 + 2] = 0x98\n118203: u8 [a0 + 1] = 0xe6\n118208: a1 = 0xfc\n118212: jump @1551\n      : @1549 (gas: 3)\n118214: a1 = 0x20\n118217: a0 = 0\n118219: ra = 1338, jump @0\n      : @1550 [@dyn 669] (gas: 33)\n118226: u8 [a0 + 31] = 0\n118229: u8 [a0 + 30] = 0\n118232: u8 [a0 + 29] = 0\n118235: u8 [a0 + 28] = 0\n118238: u8 [a0 + 27] = 0\n118241: u8 [a0 + 26] = 0\n118244: u8 [a0 + 25] = 0\n118247: u8 [a0 + 24] = 0\n118250: u8 [a0 + 23] = 0\n118253: u8 [a0 + 22] = 0\n118256: u8 [a0 + 21] = 0\n118259: u8 [a0 + 20] = 0\n118262: u8 [a0 + 19] = 0\n118265: u8 [a0 + 18] = 0\n118268: u8 [a0 + 17] = 0\n118271: u8 [a0 + 16] = 0\n118274: u8 [a0 + 15] = 0\n118277: u8 [a0 + 14] = 0\n118280: u8 [a0 + 13] = 0\n118283: u8 [a0 + 12] = 0\n118286: u8 [a0 + 11] = 0\n118289: u8 [a0 + 10] = 0\n118292: u8 [a0 + 9] = 0\n118295: u8 [a0 + 8] = 0\n118298: u8 [a0 + 7] = 0\n118301: u8 [a0 + 6] = 0\n118304: u8 [a0 + 5] = 0\n118307: u8 [a0 + 4] = 0\n118310: u8 [a0 + 3] = 0xc\n118314: u8 [a0 + 2] = 0xce\n118319: u8 [a0 + 1] = 0x8b\n118324: a1 = 0xd7\n118328: fallthrough\n      : @1551 (gas: 4)\n118329: u8 [a0] = a1\n118331: a0 = 0x4\n118334: a1 = 0x20\n118337: ra = 1340, jump @0\n      : @1552 [@dyn 670] (gas: 68)\n118344: a1 = reverse s1\n118346: a2 = u64 [sp + 0x8]\n118349: a2 = reverse a2\n118351: a3 = u64 [sp + 0x10]\n118354: a3 = reverse a3\n118356: a4 = u64 [sp + 0x18]\n118359: a4 = reverse a4\n118361: a5 = a4 >> 0x38\n118364: u8 [a0 + 0x1f] = a5\n118367: a5 = a4 >> 0x30\n118370: u8 [a0 + 0x1e] = a5\n118373: a5 = a4 >> 0x28\n118376: u8 [a0 + 0x1d] = a5\n118379: a5 = a4 >> 0x20\n118382: u8 [a0 + 0x1c] = a5\n118385: a5 = a4 >> 0x18\n118388: u8 [a0 + 0x1b] = a5\n118391: a5 = a4 >> 0x10\n118394: u8 [a0 + 0x1a] = a5\n118397: a5 = a4 >> 0x8\n118400: u8 [a0 + 0x19] = a5\n118403: u8 [a0 + 0x18] = a4\n118406: a4 = a3 >> 0x38\n118409: u8 [a0 + 0x17] = a4\n118412: a4 = a3 >> 0x30\n118415: u8 [a0 + 0x16] = a4\n118418: a4 = a3 >> 0x28\n118421: u8 [a0 + 0x15] = a4\n118424: a4 = a3 >> 0x20\n118427: u8 [a0 + 0x14] = a4\n118430: a4 = a3 >> 0x18\n118433: u8 [a0 + 0x13] = a4\n118436: a4 = a3 >> 0x10\n118439: u8 [a0 + 0x12] = a4\n118442: a4 = a3 >> 0x8\n118445: u8 [a0 + 0x11] = a4\n118448: u8 [a0 + 0x10] = a3\n118451: a3 = a2 >> 0x38\n118454: u8 [a0 + 0xf] = a3\n118457: a3 = a2 >> 0x30\n118460: u8 [a0 + 0xe] = a3\n118463: a3 = a2 >> 0x28\n118466: u8 [a0 + 0xd] = a3\n118469: a3 = a2 >> 0x20\n118472: u8 [a0 + 0xc] = a3\n118475: a3 = a2 >> 0x18\n118478: u8 [a0 + 0xb] = a3\n118481: a3 = a2 >> 0x10\n118484: u8 [a0 + 0xa] = a3\n118487: a3 = a2 >> 0x8\n118490: u8 [a0 + 0x9] = a3\n118493: u8 [a0 + 0x8] = a2\n118496: u8 [a0] = a1\n118498: a2 = a1 >> 0x38\n118501: u8 [a0 + 0x7] = a2\n118504: a2 = a1 >> 0x30\n118507: u8 [a0 + 0x6] = a2\n118510: a2 = a1 >> 0x28\n118513: u8 [a0 + 0x5] = a2\n118516: a2 = a1 >> 0x20\n118519: u8 [a0 + 0x4] = a2\n118522: a2 = a1 >> 0x18\n118525: u8 [a0 + 0x3] = a2\n118528: a2 = a1 >> 0x10\n118531: u8 [a0 + 0x2] = a2\n118534: a1 = a1 >> 0x8\n118537: u8 [a0 + 0x1] = a1\n118540: fallthrough\n      : @1553 (gas: 3)\n118541: a1 = 0x24\n118544: a0 = 0\n118546: ra = 1342, jump @0\n      : @1554 [@dyn 671] (gas: 6)\n118553: i32 a1 = a0 + 0\n118555: a0 = 0x1\n118558: a2 = 0x24\n118561: ra = 0x540\n118565: ecalli 14 // 'seal_return'\n118567: fallthrough\n      : @1555 [@dyn 672] (gas: 9)\n118568: a2 = u64 [a1 + 0x18]\n118571: a3 = u64 [a1 + 0x10]\n118574: a4 = u64 [a1 + 0x8]\n118577: a1 = u64 [a1]\n118579: u64 [a0 + 0x18] = a2\n118582: u64 [a0 + 0x10] = a3\n118585: u64 [a0 + 0x8] = a4\n118588: u64 [a0] = a1\n118590: ret\n      : @1556 [@dyn 673] (gas: 97)\n118592: a1 = u8 [a0 + 0x11]\n118595: a2 = u8 [a0 + 0x10]\n118598: a3 = u8 [a0 + 0x12]\n118601: a4 = u8 [a0 + 0x13]\n118604: a1 = a1 << 0x8\n118607: a1 = a1 | a2\n118610: a3 = a3 << 0x10\n118613: a4 = a4 << 0x18\n118616: a3 = a3 | a4\n118619: a1 = a1 | a3\n118622: a2 = u8 [a0 + 0x15]\n118625: a3 = u8 [a0 + 0x14]\n118628: a4 = u8 [a0 + 0x16]\n118631: a5 = u8 [a0 + 0x17]\n118634: a2 = a2 << 0x8\n118637: a2 = a2 | a3\n118640: a4 = a4 << 0x10\n118643: a5 = a5 << 0x18\n118646: a4 = a4 | a5\n118649: a2 = a2 | a4\n118652: a2 = a2 << 0x20\n118655: t0 = a2 | a1\n118658: a2 = u8 [a0 + 0x1]\n118661: a3 = u8 [a0]\n118663: a4 = u8 [a0 + 0x2]\n118666: a5 = u8 [a0 + 0x3]\n118669: a2 = a2 << 0x8\n118672: a2 = a2 | a3\n118675: a4 = a4 << 0x10\n118678: a5 = a5 << 0x18\n118681: a4 = a4 | a5\n118684: a2 = a2 | a4\n118687: a3 = u8 [a0 + 0x5]\n118690: a4 = u8 [a0 + 0x4]\n118693: a5 = u8 [a0 + 0x6]\n118696: s1 = u8 [a0 + 0x7]\n118699: a3 = a3 << 0x8\n118702: a3 = a3 | a4\n118705: a5 = a5 << 0x10\n118708: s1 = s1 << 0x18\n118711: a5 = a5 | s1\n118714: a3 = a3 | a5\n118717: a3 = a3 << 0x20\n118720: a2 = a2 | a3\n118723: a3 = u8 [a0 + 0x19]\n118726: a4 = u8 [a0 + 0x18]\n118729: a5 = u8 [a0 + 0x1a]\n118732: s1 = u8 [a0 + 0x1b]\n118735: a3 = a3 << 0x8\n118738: a3 = a3 | a4\n118741: a5 = a5 << 0x10\n118744: s1 = s1 << 0x18\n118747: a5 = a5 | s1\n118750: a3 = a3 | a5\n118753: a4 = u8 [a0 + 0x1d]\n118756: a5 = u8 [a0 + 0x1c]\n118759: s1 = u8 [a0 + 0x1e]\n118762: a1 = u8 [a0 + 0x1f]\n118765: a4 = a4 << 0x8\n118768: a4 = a4 | a5\n118771: s1 = s1 << 0x10\n118774: a1 = a1 << 0x18\n118777: a1 = a1 | s1\n118780: a1 = a1 | a4\n118783: a1 = a1 << 0x20\n118786: a3 = a3 | a1\n118789: a1 = u8 [a0 + 0x9]\n118792: a4 = u8 [a0 + 0x8]\n118795: a5 = u8 [a0 + 0xa]\n118798: s1 = u8 [a0 + 0xb]\n118801: a1 = a1 << 0x8\n118804: a1 = a1 | a4\n118807: a5 = a5 << 0x10\n118810: s1 = s1 << 0x18\n118813: a5 = a5 | s1\n118816: a1 = a1 | a5\n118819: a4 = u8 [a0 + 0xd]\n118822: a5 = u8 [a0 + 0xc]\n118825: s1 = u8 [a0 + 0xe]\n118828: a0 = u8 [a0 + 0xf]\n118831: a4 = a4 << 0x8\n118834: a4 = a4 | a5\n118837: s1 = s1 << 0x10\n118840: a0 = a0 << 0x18\n118843: a0 = a0 | s1\n118846: a0 = a0 | a4\n118849: a0 = a0 << 0x20\n118852: a0 = a0 | a1\n118855: s1 = reverse a0\n118857: a0 = reverse a3\n118859: u64 [sp + 0x8] = a0\n118862: a0 = reverse a2\n118864: u64 [sp + 0x18] = a0\n118867: a0 = reverse t0\n118869: u64 [sp + 0x10] = a0\n118872: ecalli 13 // 'return_data_size'\n118874: fallthrough\n      : @1557 (gas: 11)\n118875: a3 = u64 [sp + 0x8]\n118878: a1 = u64 [sp + 0x18]\n118881: a2 = u64 [sp + 0x10]\n118884: a1 = a1 | a2\n118887: a2 = a3 | s1\n118890: a2 = a2 | a1\n118893: a2 = a2 >> 0x20\n118896: a1 = a1 | s1\n118899: a1 = a1 << 0x20\n118902: a1 = a1 | a2\n118905: jump @1564 if a1 != 0\n      : @1558 (gas: 3)\n118908: s1 = a0\n118910: a0 = a0 >> 0x20\n118913: jump @1564 if a0 != 0\n      : @1559 (gas: 5)\n118916: i32 a0 = a3 + 0\n118918: i32 a1 = s1 + 0\n118920: u64 [sp + 0x18] = a1\n118923: u64 [sp + 0x10] = a0\n118926: ra = 1348, jump @0\n      : @1560 [@dyn 674] (gas: 6)\n118933: u32 [sp + 0x20] = s1\n118936: i32 a0 = a0 + 0\n118938: i32 a1 = sp + 0x20\n118941: a2 = 0\n118943: ecalli 12 // 'return_data_copy'\n118945: fallthrough\n      : @1561 (gas: 3)\n118946: a0 = i32 [sp + 0x20]\n118949: a1 = u64 [sp + 0x18]\n118952: jump @1564 if a0 <u a1\n      : @1562 (gas: 2)\n118955: ecalli 13 // 'return_data_size'\n118957: fallthrough\n      : @1563 (gas: 2)\n118958: a1 = a0 >> 0x20\n118961: jump @1565 if a1 == 0\n      : @1564 (gas: 1)\n118964: trap\n      : @1565 (gas: 4)\n118965: i32 s1 = a0 + 0\n118967: a0 = u64 [sp + 0x10]\n118970: a1 = s1\n118972: ra = 1350, jump @0\n      : @1566 [@dyn 675] (gas: 6)\n118979: i32 a1 = a0 + 0\n118981: a0 = 0x1\n118984: a2 = s1\n118986: ra = 0x548\n118990: ecalli 14 // 'seal_return'\n118992: fallthrough\n      : @1567 [@dyn 676] (gas: 9)\n118993: a2 = u64 [a1 + 0x18]\n118996: a3 = u64 [a1 + 0x10]\n118999: a4 = u64 [a1 + 0x8]\n119002: a1 = u64 [a1]\n119004: u64 [a0 + 0x18] = a2\n119007: u64 [a0 + 0x10] = a3\n119010: u64 [a0 + 0x8] = a4\n119013: u64 [a0] = a1\n119015: ret\n      : @1568 (gas: 30)\n119017: sp = sp + 0xfffffffffffffec0\n119021: u64 [sp + 0x138] = ra\n119025: u64 [sp + 0x130] = s0\n119029: u64 [sp + 0x128] = s1\n119033: s0 = sp + 0x140\n119037: sp = sp & 0xffffffffffffffe0\n119040: t2 = u64 [a4 + 0x10]\n119043: t1 = u64 [a4]\n119045: ra = u64 [a4 + 0x8]\n119048: t0 = u64 [0x20060]\n119053: s1 = u64 [0x20068]\n119058: a5 = u64 [a4 + 0x18]\n119061: a4 = ra ^ t0\n119064: u64 [sp + 0x90] = a4\n119068: u64 [sp + 0x98] = ra\n119072: t0 = ra <u t0\n119075: u64 [sp + 0x78] = t1\n119078: s1 = t1 <u s1\n119081: a4 = u64 [sp + 0x90]\n119085: s1 = t0 if a4 != 0\n119088: a4 = 0x7fffffffffffffff\n119098: ra = a5 ^ a4\n119101: u64 [sp + 0x80] = a5\n119105: t0 = a5 <u a4\n119108: a4 = t2 <u 0xffffffffffffffff\n119111: a4 = t0 if ra != 0\n119114: t0 = t2\n119116: a5 = ra | ~t2\n119119: a4 = s1 if a5 == 0\n119122: jump @1570 if a4 != 0\n      : @1569 (gas: 8)\n119125: a3 = 0\n119127: s1 = 0\n119129: a2 = 0\n119131: a5 = 0x3\n119134: t1 = u64 [sp + 0x80]\n119138: a1 = u64 [sp + 0x78]\n119141: t2 = u64 [sp + 0x98]\n119145: jump @1586\n      : @1570 (gas: 23)\n119148: u64 [sp + 0x18] = t0\n119151: u64 [sp + 0x10] = a0\n119154: a0 = u64 [a3 + 0x18]\n119157: u64 [sp + 0x20] = a0\n119160: a0 = u64 [a3 + 0x10]\n119163: u64 [sp + 0x28] = a0\n119166: a0 = u64 [a3 + 0x8]\n119169: u64 [sp + 0x30] = a0\n119172: a0 = u64 [a3]\n119174: u64 [sp + 0x38] = a0\n119177: a0 = u64 [a2]\n119179: u64 [sp + 0x40] = a0\n119182: a0 = u64 [a1 + 0x18]\n119185: u64 [sp + 0x50] = a0\n119188: a0 = u64 [a1 + 0x10]\n119191: u64 [sp + 0x58] = a0\n119194: a0 = u64 [a1 + 0x8]\n119197: u64 [sp + 0x60] = a0\n119200: a0 = u64 [a1]\n119202: u64 [sp + 0x68] = a0\n119205: a0 = 0x40\n119208: a1 = 0x20\n119211: ra = 1354, jump @0\n      : @1571 [@dyn 677] (gas: 103)\n119218: a1 = u8 [a0 + 0x11]\n119221: a2 = u8 [a0 + 0x10]\n119224: a3 = u8 [a0 + 0x12]\n119227: a4 = u8 [a0 + 0x13]\n119230: a1 = a1 << 0x8\n119233: a1 = a1 | a2\n119236: a3 = a3 << 0x10\n119239: a4 = a4 << 0x18\n119242: a3 = a3 | a4\n119245: a1 = a1 | a3\n119248: a2 = u8 [a0 + 0x15]\n119251: a3 = u8 [a0 + 0x14]\n119254: a4 = u8 [a0 + 0x16]\n119257: a5 = u8 [a0 + 0x17]\n119260: a2 = a2 << 0x8\n119263: a2 = a2 | a3\n119266: a4 = a4 << 0x10\n119269: a5 = a5 << 0x18\n119272: a4 = a4 | a5\n119275: a2 = a2 | a4\n119278: a2 = a2 << 0x20\n119281: t0 = a2 | a1\n119284: a2 = u8 [a0 + 0x1]\n119287: a3 = u8 [a0]\n119289: a4 = u8 [a0 + 0x2]\n119292: a5 = u8 [a0 + 0x3]\n119295: a2 = a2 << 0x8\n119298: a2 = a2 | a3\n119301: a4 = a4 << 0x10\n119304: a5 = a5 << 0x18\n119307: a4 = a4 | a5\n119310: a2 = a2 | a4\n119313: a3 = u8 [a0 + 0x5]\n119316: a4 = u8 [a0 + 0x4]\n119319: a5 = u8 [a0 + 0x6]\n119322: s1 = u8 [a0 + 0x7]\n119325: a3 = a3 << 0x8\n119328: a3 = a3 | a4\n119331: a5 = a5 << 0x10\n119334: s1 = s1 << 0x18\n119337: a5 = a5 | s1\n119340: a3 = a3 | a5\n119343: a3 = a3 << 0x20\n119346: a2 = a2 | a3\n119349: a3 = u8 [a0 + 0x19]\n119352: a4 = u8 [a0 + 0x18]\n119355: a5 = u8 [a0 + 0x1a]\n119358: s1 = u8 [a0 + 0x1b]\n119361: a3 = a3 << 0x8\n119364: a3 = a3 | a4\n119367: a5 = a5 << 0x10\n119370: s1 = s1 << 0x18\n119373: a5 = a5 | s1\n119376: a3 = a3 | a5\n119379: a4 = u8 [a0 + 0x1d]\n119382: a5 = u8 [a0 + 0x1c]\n119385: s1 = u8 [a0 + 0x1e]\n119388: a1 = u8 [a0 + 0x1f]\n119391: a4 = a4 << 0x8\n119394: a4 = a4 | a5\n119397: s1 = s1 << 0x10\n119400: a1 = a1 << 0x18\n119403: a1 = a1 | s1\n119406: a1 = a1 | a4\n119409: a1 = a1 << 0x20\n119412: a3 = a3 | a1\n119415: a1 = u8 [a0 + 0x9]\n119418: a4 = u8 [a0 + 0x8]\n119421: a5 = u8 [a0 + 0xa]\n119424: s1 = u8 [a0 + 0xb]\n119427: a1 = a1 << 0x8\n119430: a1 = a1 | a4\n119433: a5 = a5 << 0x10\n119436: s1 = s1 << 0x18\n119439: a5 = a5 | s1\n119442: a1 = a1 | a5\n119445: a4 = u8 [a0 + 0xd]\n119448: a5 = u8 [a0 + 0xc]\n119451: s1 = u8 [a0 + 0xe]\n119454: a0 = u8 [a0 + 0xf]\n119457: a4 = a4 << 0x8\n119460: a4 = a4 | a5\n119463: s1 = s1 << 0x10\n119466: a0 = a0 << 0x18\n119469: a0 = a0 | s1\n119472: a0 = a0 | a4\n119475: a0 = a0 << 0x20\n119478: a0 = a0 | a1\n119481: s1 = reverse a0\n119483: a1 = reverse a3\n119485: a2 = reverse a2\n119487: a0 = reverse t0\n119489: u64 [sp + 0x70] = a0\n119492: u64 [sp + 0x48] = a2\n119495: a0 = a0 | a2\n119498: u64 [sp + 0x90] = a1\n119502: a1 = a1 | s1\n119505: a1 = a1 | a0\n119508: a1 = a1 >> 0x20\n119511: a0 = a0 | s1\n119514: a0 = a0 << 0x20\n119517: a0 = a0 | a1\n119520: jump @1587 if a0 != 0\n      : @1572 (gas: 4)\n119524: a0 = i32 [sp + 0x90]\n119528: a1 = 0x20\n119531: u64 [sp + 0x88] = a0\n119535: ra = 1356, jump @0\n      : @1573 [@dyn 678] (gas: 79)\n119542: a1 = u64 [sp + 0x50]\n119545: a1 = reverse a1\n119547: a2 = u64 [sp + 0x58]\n119550: a2 = reverse a2\n119552: a3 = u64 [sp + 0x60]\n119555: a3 = reverse a3\n119557: a4 = u64 [sp + 0x68]\n119560: a4 = reverse a4\n119562: a5 = a4 >> 0x38\n119565: u8 [a0 + 0x1f] = a5\n119568: a5 = a4 >> 0x30\n119571: u8 [a0 + 0x1e] = a5\n119574: a5 = a4 >> 0x28\n119577: u8 [a0 + 0x1d] = a5\n119580: a5 = a4 >> 0x20\n119583: u8 [a0 + 0x1c] = a5\n119586: a5 = a4 >> 0x18\n119589: u8 [a0 + 0x1b] = a5\n119592: a5 = a4 >> 0x10\n119595: u8 [a0 + 0x1a] = a5\n119598: a5 = a4 >> 0x8\n119601: u8 [a0 + 0x19] = a5\n119604: u8 [a0 + 0x18] = a4\n119607: u8 [a0 + 0x10] = a3\n119610: a4 = a3 >> 0x38\n119613: u8 [a0 + 0x17] = a4\n119616: a4 = a3 >> 0x30\n119619: u8 [a0 + 0x16] = a4\n119622: a4 = a3 >> 0x28\n119625: u8 [a0 + 0x15] = a4\n119628: a4 = a3 >> 0x20\n119631: u8 [a0 + 0x14] = a4\n119634: a4 = a3 >> 0x18\n119637: u8 [a0 + 0x13] = a4\n119640: a4 = a3 >> 0x10\n119643: u8 [a0 + 0x12] = a4\n119646: a3 = a3 >> 0x8\n119649: u8 [a0 + 0x11] = a3\n119652: u8 [a0 + 0x8] = a2\n119655: a3 = a2 >> 0x38\n119658: u8 [a0 + 0xf] = a3\n119661: a3 = a2 >> 0x30\n119664: u8 [a0 + 0xe] = a3\n119667: a3 = a2 >> 0x28\n119670: u8 [a0 + 0xd] = a3\n119673: a3 = a2 >> 0x20\n119676: u8 [a0 + 0xc] = a3\n119679: a3 = a2 >> 0x18\n119682: u8 [a0 + 0xb] = a3\n119685: a3 = a2 >> 0x10\n119688: u8 [a0 + 0xa] = a3\n119691: a2 = a2 >> 0x8\n119694: u8 [a0 + 0x9] = a2\n119697: u8 [a0] = a1\n119699: a2 = a1 >> 0x38\n119702: u8 [a0 + 0x7] = a2\n119705: a2 = a1 >> 0x30\n119708: u8 [a0 + 0x6] = a2\n119711: a2 = a1 >> 0x28\n119714: u8 [a0 + 0x5] = a2\n119717: a2 = a1 >> 0x20\n119720: u8 [a0 + 0x4] = a2\n119723: a2 = a1 >> 0x18\n119726: u8 [a0 + 0x3] = a2\n119729: a2 = a1 >> 0x10\n119732: u8 [a0 + 0x2] = a2\n119735: a1 = a1 >> 0x8\n119738: a4 = u64 [sp + 0x48]\n119741: a4 = a4 | s1\n119744: s1 = 0x100000000\n119754: a2 = 0xffffffe0\n119764: a3 = u64 [sp + 0x90]\n119768: a2 = a3 <u a2\n119771: a3 = u64 [sp + 0x70]\n119774: a2 = 0 if a3 != 0\n119776: u64 [sp + 0x68] = a4\n119779: a2 = 0 if a4 != 0\n119781: u8 [a0 + 0x1] = a1\n119784: jump @1587 if a2 == 0\n      : @1574 (gas: 4)\n119788: a0 = u64 [sp + 0x88]\n119792: i32 a0 = a0 + 0x20\n119795: a1 = 0x20\n119798: ra = 1358, jump @0\n      : @1575 [@dyn 679] (gas: 41)\n119805: a1 = u64 [sp + 0x40]\n119808: u8 [a0 + 0x1f] = a1\n119811: u8 [a0 + 30] = 0\n119814: u8 [a0 + 29] = 0\n119817: u8 [a0 + 28] = 0\n119820: u8 [a0 + 27] = 0\n119823: u8 [a0 + 26] = 0\n119826: u8 [a0 + 25] = 0\n119829: u8 [a0 + 24] = 0\n119832: u8 [a0 + 23] = 0\n119835: u8 [a0 + 22] = 0\n119838: u8 [a0 + 21] = 0\n119841: u8 [a0 + 20] = 0\n119844: u8 [a0 + 19] = 0\n119847: u8 [a0 + 18] = 0\n119850: u8 [a0 + 17] = 0\n119853: u8 [a0 + 16] = 0\n119856: u8 [a0 + 15] = 0\n119859: u8 [a0 + 14] = 0\n119862: u8 [a0 + 13] = 0\n119865: u8 [a0 + 12] = 0\n119868: u8 [a0 + 11] = 0\n119871: u8 [a0 + 10] = 0\n119874: u8 [a0 + 9] = 0\n119877: u8 [a0 + 8] = 0\n119880: u8 [a0 + 7] = 0\n119883: u8 [a0 + 6] = 0\n119886: u8 [a0 + 5] = 0\n119889: u8 [a0 + 4] = 0\n119892: u8 [a0 + 3] = 0\n119895: u8 [a0 + 2] = 0\n119898: u8 [a0 + 1] = 0\n119901: a1 = s1 + 0xffffffffffffffc0\n119904: a2 = u64 [sp + 0x90]\n119908: a1 = a2 <u a1\n119911: a2 = u64 [sp + 0x70]\n119914: a1 = 0 if a2 != 0\n119916: s1 = u64 [sp + 0x68]\n119919: a1 = 0 if s1 != 0\n119921: u8 [a0 + 0] = 0\n119923: jump @1587 if a1 == 0\n      : @1576 (gas: 4)\n119927: a0 = u64 [sp + 0x88]\n119931: i32 a0 = a0 + 0x40\n119934: a1 = 0x20\n119937: ra = 1360, jump @0\n      : @1577 [@dyn 680] (gas: 76)\n119944: a1 = u64 [sp + 0x20]\n119947: a1 = reverse a1\n119949: a2 = u64 [sp + 0x28]\n119952: a2 = reverse a2\n119954: a3 = u64 [sp + 0x30]\n119957: a3 = reverse a3\n119959: a4 = u64 [sp + 0x38]\n119962: a4 = reverse a4\n119964: a5 = a4 >> 0x38\n119967: u8 [a0 + 0x1f] = a5\n119970: a5 = a4 >> 0x30\n119973: u8 [a0 + 0x1e] = a5\n119976: a5 = a4 >> 0x28\n119979: u8 [a0 + 0x1d] = a5\n119982: a5 = a4 >> 0x20\n119985: u8 [a0 + 0x1c] = a5\n119988: a5 = a4 >> 0x18\n119991: u8 [a0 + 0x1b] = a5\n119994: a5 = a4 >> 0x10\n119997: u8 [a0 + 0x1a] = a5\n120000: a5 = a4 >> 0x8\n120003: u8 [a0 + 0x19] = a5\n120006: u8 [a0 + 0x18] = a4\n120009: u8 [a0 + 0x10] = a3\n120012: a4 = a3 >> 0x38\n120015: u8 [a0 + 0x17] = a4\n120018: a4 = a3 >> 0x30\n120021: u8 [a0 + 0x16] = a4\n120024: a4 = a3 >> 0x28\n120027: u8 [a0 + 0x15] = a4\n120030: a4 = a3 >> 0x20\n120033: u8 [a0 + 0x14] = a4\n120036: a4 = a3 >> 0x18\n120039: u8 [a0 + 0x13] = a4\n120042: a4 = a3 >> 0x10\n120045: u8 [a0 + 0x12] = a4\n120048: a3 = a3 >> 0x8\n120051: u8 [a0 + 0x11] = a3\n120054: u8 [a0 + 0x8] = a2\n120057: a3 = a2 >> 0x38\n120060: u8 [a0 + 0xf] = a3\n120063: a3 = a2 >> 0x30\n120066: u8 [a0 + 0xe] = a3\n120069: a3 = a2 >> 0x28\n120072: u8 [a0 + 0xd] = a3\n120075: a3 = a2 >> 0x20\n120078: u8 [a0 + 0xc] = a3\n120081: a3 = a2 >> 0x18\n120084: u8 [a0 + 0xb] = a3\n120087: a3 = a2 >> 0x10\n120090: u8 [a0 + 0xa] = a3\n120093: a2 = a2 >> 0x8\n120096: u8 [a0 + 0x9] = a2\n120099: u8 [a0] = a1\n120101: a2 = a1 >> 0x38\n120104: u8 [a0 + 0x7] = a2\n120107: a2 = a1 >> 0x30\n120110: u8 [a0 + 0x6] = a2\n120113: a2 = a1 >> 0x28\n120116: u8 [a0 + 0x5] = a2\n120119: a2 = a1 >> 0x20\n120122: u8 [a0 + 0x4] = a2\n120125: a2 = a1 >> 0x18\n120128: u8 [a0 + 0x3] = a2\n120131: a2 = a1 >> 0x10\n120134: u8 [a0 + 0x2] = a2\n120137: a1 = a1 >> 0x8\n120140: a2 = 0xffffffa0\n120150: a3 = u64 [sp + 0x90]\n120154: a2 = a3 <u a2\n120157: a3 = u64 [sp + 0x70]\n120160: a2 = 0 if a3 != 0\n120162: a2 = 0 if s1 != 0\n120164: u8 [a0 + 0x1] = a1\n120167: s1 = u64 [sp + 0x80]\n120171: jump @1587 if a2 == 0\n      : @1578 (gas: 4)\n120175: a0 = u64 [sp + 0x88]\n120179: i32 a0 = a0 + 0x60\n120182: a1 = 0x20\n120185: ra = 1362, jump @0\n      : @1579 [@dyn 681] (gas: 70)\n120192: a1 = reverse s1\n120194: a2 = u64 [sp + 0x18]\n120197: a2 = reverse a2\n120199: a3 = u64 [sp + 0x98]\n120203: a3 = reverse a3\n120205: a4 = u64 [sp + 0x78]\n120208: a4 = reverse a4\n120210: a5 = a4 >> 0x38\n120213: u8 [a0 + 0x1f] = a5\n120216: a5 = a4 >> 0x30\n120219: u8 [a0 + 0x1e] = a5\n120222: a5 = a4 >> 0x28\n120225: u8 [a0 + 0x1d] = a5\n120228: a5 = a4 >> 0x20\n120231: u8 [a0 + 0x1c] = a5\n120234: a5 = a4 >> 0x18\n120237: u8 [a0 + 0x1b] = a5\n120240: a5 = a4 >> 0x10\n120243: u8 [a0 + 0x1a] = a5\n120246: a5 = a4 >> 0x8\n120249: u8 [a0 + 0x19] = a5\n120252: u8 [a0 + 0x18] = a4\n120255: u8 [a0 + 0x10] = a3\n120258: a4 = a3 >> 0x38\n120261: u8 [a0 + 0x17] = a4\n120264: a4 = a3 >> 0x30\n120267: u8 [a0 + 0x16] = a4\n120270: a4 = a3 >> 0x28\n120273: u8 [a0 + 0x15] = a4\n120276: a4 = a3 >> 0x20\n120279: u8 [a0 + 0x14] = a4\n120282: a4 = a3 >> 0x18\n120285: u8 [a0 + 0x13] = a4\n120288: a4 = a3 >> 0x10\n120291: u8 [a0 + 0x12] = a4\n120294: a3 = a3 >> 0x8\n120297: u8 [a0 + 0x11] = a3\n120300: u8 [a0 + 0x8] = a2\n120303: a3 = a2 >> 0x38\n120306: u8 [a0 + 0xf] = a3\n120309: a3 = a2 >> 0x30\n120312: u8 [a0 + 0xe] = a3\n120315: a3 = a2 >> 0x28\n120318: u8 [a0 + 0xd] = a3\n120321: a3 = a2 >> 0x20\n120324: u8 [a0 + 0xc] = a3\n120327: a3 = a2 >> 0x18\n120330: u8 [a0 + 0xb] = a3\n120333: a3 = a2 >> 0x10\n120336: u8 [a0 + 0xa] = a3\n120339: a2 = a2 >> 0x8\n120342: u8 [a0 + 0x9] = a2\n120345: u8 [a0] = a1\n120347: a2 = a1 >> 0x38\n120350: u8 [a0 + 0x7] = a2\n120353: a2 = a1 >> 0x30\n120356: u8 [a0 + 0x6] = a2\n120359: a2 = a1 >> 0x28\n120362: u8 [a0 + 0x5] = a2\n120365: a2 = a1 >> 0x20\n120368: u8 [a0 + 0x4] = a2\n120371: a2 = a1 >> 0x18\n120374: u8 [a0 + 0x3] = a2\n120377: a2 = a1 >> 0x10\n120380: u8 [a0 + 0x2] = a2\n120383: a1 = a1 >> 0x8\n120386: u8 [a0 + 0x1] = a1\n120389: a1 = 0x20\n120392: a0 = 0\n120394: ra = 1364, jump @0\n      : @1580 [@dyn 682] (gas: 43)\n120401: u8 [a0 + 31] = 0\n120404: u8 [a0 + 30] = 0\n120407: u8 [a0 + 29] = 0\n120410: u8 [a0 + 28] = 0\n120413: u8 [a0 + 27] = 0\n120416: u8 [a0 + 26] = 0\n120419: u8 [a0 + 25] = 0\n120422: u8 [a0 + 24] = 0\n120425: u8 [a0 + 23] = 0\n120428: u8 [a0 + 22] = 0\n120431: u8 [a0 + 21] = 0\n120434: u8 [a0 + 20] = 0\n120437: u8 [a0 + 19] = 0\n120440: u8 [a0 + 18] = 0\n120443: u8 [a0 + 17] = 0\n120446: u8 [a0 + 16] = 0\n120449: u8 [a0 + 15] = 0\n120452: u8 [a0 + 14] = 0\n120455: u8 [a0 + 13] = 0\n120458: u8 [a0 + 12] = 0\n120461: u8 [a0 + 11] = 0\n120464: u8 [a0 + 10] = 0\n120467: u8 [a0 + 9] = 0\n120470: u8 [a0 + 8] = 0\n120473: u8 [a0 + 7] = 0\n120476: u8 [a0 + 6] = 0\n120479: u8 [a0 + 5] = 0\n120482: u8 [a0 + 4] = 0\n120485: u8 [a0 + 3] = 0\n120488: u8 [a0 + 2] = 0\n120491: u8 [a0 + 1] = 0\n120494: u8 [a0 + 0] = 0\n120496: ecalli 11 // 'ref_time_left'\n120498: u64 [sp + 168] = 0\n120502: u64 [sp + 160] = 0\n120506: u32 [sp + 176] = 0x1000000\n120514: u64 [sp + 216] = 0\n120518: u64 [sp + 208] = 0\n120522: u64 [sp + 200] = 0\n120526: u64 [sp + 192] = 0\n120530: a1 = 0x80\n120534: a0 = u64 [sp + 0x88]\n120538: ra = 1366, jump @0\n      : @1581 [@dyn 683] (gas: 4)\n120545: u64 [sp + 0x98] = a0\n120549: a1 = 0x20\n120552: a0 = 0\n120554: ra = 1368, jump @0\n      : @1582 [@dyn 684] (gas: 31)\n120561: u32 [sp + 224] = 0x20\n120566: u64 [sp + 280] = 0\n120570: u64 [sp + 272] = 0\n120574: u64 [sp + 264] = 0\n120578: u64 [sp + 256] = 0\n120582: a1 = sp + 0xa0\n120586: a1 = a1 << 0x20\n120589: a1 = a1 >> 0x20\n120592: a2 = 0x1800000000\n120602: s1 = a1 | a2\n120605: a1 = sp + 0xc0\n120609: a1 = a1 << 0x20\n120612: a1 = a1 >> 0x20\n120615: a2 = sp + 0x100\n120619: a2 = a2 << 0x20\n120622: a3 = a2 | a1\n120625: a1 = u64 [sp + 0x98]\n120629: a1 = a1 << 0x20\n120632: a1 = a1 >> 0x20\n120635: a4 = 0x8000000000\n120645: a4 = a4 | a1\n120648: a0 = a0 << 0x20\n120651: a0 = a0 >> 0x20\n120654: a1 = sp + 0xe0\n120658: a1 = a1 << 0x20\n120661: a5 = a1 | a0\n120664: a1 = 0xffffffffffffffff\n120667: a2 = 0xffffffffffffffff\n120670: a0 = s1\n120672: ecalli 1 // 'call'\n120674: fallthrough\n      : @1583 (gas: 1)\n120675: jump @1588 if a0 != 0\n      : @1584 (gas: 2)\n120679: a1 = 0x20\n120682: ra = 1370, jump @0\n      : @1585 [@dyn 685] (gas: 110)\n120689: a1 = 0\n120691: u64 [sp + 152] = 0\n120695: t0 = 0\n120697: a2 = u8 [a0 + 0x9]\n120700: a3 = u8 [a0 + 0x8]\n120703: a4 = u8 [a0 + 0xa]\n120706: a5 = u8 [a0 + 0xb]\n120709: a2 = a2 << 0x8\n120712: a2 = a2 | a3\n120715: a4 = a4 << 0x10\n120718: a5 = a5 << 0x18\n120721: a4 = a4 | a5\n120724: a2 = a2 | a4\n120727: a3 = u8 [a0 + 0xd]\n120730: a4 = u8 [a0 + 0xc]\n120733: a5 = u8 [a0 + 0xe]\n120736: s1 = u8 [a0 + 0xf]\n120739: a3 = a3 << 0x8\n120742: a3 = a3 | a4\n120745: a5 = a5 << 0x10\n120748: s1 = s1 << 0x18\n120751: a5 = a5 | s1\n120754: a3 = a3 | a5\n120757: a3 = a3 << 0x20\n120760: a2 = a2 | a3\n120763: u64 [sp + 0x90] = a2\n120767: a3 = u8 [a0 + 0x19]\n120770: a4 = u8 [a0 + 0x18]\n120773: a5 = u8 [a0 + 0x1a]\n120776: s1 = u8 [a0 + 0x1b]\n120779: a3 = a3 << 0x8\n120782: a3 = a3 | a4\n120785: a5 = a5 << 0x10\n120788: s1 = s1 << 0x18\n120791: a5 = a5 | s1\n120794: a3 = a3 | a5\n120797: a4 = u8 [a0 + 0x1d]\n120800: a5 = u8 [a0 + 0x1c]\n120803: s1 = u8 [a0 + 0x1e]\n120806: a2 = u8 [a0 + 0x1f]\n120809: a4 = a4 << 0x8\n120812: a4 = a4 | a5\n120815: s1 = s1 << 0x10\n120818: a2 = a2 << 0x18\n120821: a2 = a2 | s1\n120824: a2 = a2 | a4\n120827: a2 = a2 << 0x20\n120830: t1 = a2 | a3\n120833: a2 = u8 [a0 + 0x11]\n120836: a4 = u8 [a0 + 0x10]\n120839: a5 = u8 [a0 + 0x12]\n120842: s1 = u8 [a0 + 0x13]\n120845: a2 = a2 << 0x8\n120848: a2 = a2 | a4\n120851: a5 = a5 << 0x10\n120854: s1 = s1 << 0x18\n120857: a5 = a5 | s1\n120860: a2 = a2 | a5\n120863: a4 = u8 [a0 + 0x15]\n120866: a5 = u8 [a0 + 0x14]\n120869: s1 = u8 [a0 + 0x16]\n120872: a3 = u8 [a0 + 0x17]\n120875: a4 = a4 << 0x8\n120878: a4 = a4 | a5\n120881: s1 = s1 << 0x10\n120884: a3 = a3 << 0x18\n120887: a3 = a3 | s1\n120890: a3 = a3 | a4\n120893: a3 = a3 << 0x20\n120896: a4 = a3 | a2\n120899: a2 = u8 [a0 + 0x1]\n120902: a3 = u8 [a0]\n120904: a5 = u8 [a0 + 0x2]\n120907: s1 = u8 [a0 + 0x3]\n120910: a2 = a2 << 0x8\n120913: a2 = a2 | a3\n120916: a5 = a5 << 0x10\n120919: s1 = s1 << 0x18\n120922: a5 = a5 | s1\n120925: a2 = a2 | a5\n120928: a3 = u8 [a0 + 0x5]\n120931: a5 = u8 [a0 + 0x4]\n120934: s1 = u8 [a0 + 0x6]\n120937: a0 = u8 [a0 + 0x7]\n120940: a3 = a3 << 0x8\n120943: a3 = a3 | a5\n120946: s1 = s1 << 0x10\n120949: a0 = a0 << 0x18\n120952: a0 = a0 | s1\n120955: a0 = a0 | a3\n120958: a0 = a0 << 0x20\n120961: a5 = a0 | a2\n120964: s1 = reverse a4\n120966: a3 = reverse t1\n120968: t1 = 0\n120970: t2 = u64 [sp + 0x98]\n120974: a0 = u64 [sp + 0x90]\n120978: a2 = reverse a0\n120980: a4 = a2 << 0x20\n120983: a4 = a4 >> 0x20\n120986: a0 = a3 | s1\n120989: a0 = a0 | a4\n120992: a4 = reverse a5\n120994: a4 = 0 if a0 == 0\n120996: a2 = 0 if a0 == 0\n120998: s1 = 0 if a0 == 0\n121000: a3 = 0 if a0 == 0\n121002: a5 = a0 <u 0x1\n121005: a0 = u64 [sp + 0x10]\n121008: fallthrough\n      : @1586 (gas: 18)\n121009: u64 [a0 + 0x40] = a1\n121012: u64 [a0 + 0x20] = a5\n121015: u64 [a0] = a3\n121017: u64 [a0 + 0x48] = t2\n121020: u64 [a0 + 40] = 0\n121023: u64 [a0 + 0x8] = s1\n121026: u64 [a0 + 0x50] = t0\n121029: u64 [a0 + 48] = 0\n121032: u64 [a0 + 0x10] = a2\n121035: u64 [a0 + 0x58] = t1\n121038: u64 [a0 + 56] = 0\n121041: u64 [a0 + 0x18] = a4\n121044: sp = s0 + 0xfffffffffffffec0\n121048: ra = u64 [sp + 0x138]\n121052: s0 = u64 [sp + 0x130]\n121056: s1 = u64 [sp + 0x128]\n121060: sp = sp + 0x140\n121064: ret\n      : @1587 (gas: 1)\n121066: trap\n      : @1588 (gas: 11)\n121067: ra = 0x55c\n121071: sp = sp + 0xffffffffffffffc0\n121074: u64 [sp + 0x38] = ra\n121077: u64 [sp + 0x30] = s0\n121080: u64 [sp + 0x28] = s1\n121083: s0 = sp + 0x40\n121086: sp = sp & 0xffffffffffffffe0\n121089: a0 = 0x40\n121092: a1 = 0x20\n121095: ra = 0x542\n121099: jump @0\n      : @1589 [@dyn 686] [export #0: 'call'] (gas: 2)\n121103: a0 = 0\n121105: ra = 1374, jump @25\n      : @1590 [@dyn 687] [export #1: 'deploy'] (gas: 2)\n121112: a0 = 0x1\n121115: ra = 1376, jump @25\n      : @1591 [@dyn 688] (gas: 27)\n121122: sp = sp + 0xffffffffffffff60\n121126: u64 [sp + 0x98] = ra\n121130: u64 [sp + 0x90] = s0\n121134: u64 [sp + 0x88] = s1\n121138: s0 = sp + 0xa0\n121142: sp = sp & 0xfffffffffffffff0\n121145: t0 = u64 [a1]\n121147: t1 = u64 [a1 + 0x8]\n121150: t2 = u64 [a1 + 0x10]\n121153: a1 = u64 [a1 + 0x18]\n121156: a3 = u64 [a2]\n121158: a4 = u64 [a2 + 0x8]\n121161: a5 = u64 [a2 + 0x10]\n121164: a2 = u64 [a2 + 0x18]\n121167: s1 = a0\n121169: u64 [sp + 0x18] = a2\n121172: u64 [sp + 0x10] = a5\n121175: u64 [sp + 0x8] = a4\n121178: u64 [sp] = a3\n121180: u64 [sp + 0x38] = a1\n121183: u64 [sp + 0x30] = t2\n121186: u64 [sp + 0x28] = t1\n121189: a0 = sp + 0x40\n121192: a1 = sp + 0x20\n121195: a2 = sp\n121197: u64 [sp + 0x20] = t0\n121200: ra = 1378, jump @446\n      : @1592 [@dyn 689] (gas: 22)\n121207: t0 = u64 [sp + 0x48]\n121210: t1 = u64 [sp + 0x40]\n121213: a2 = u64 [sp + 0x58]\n121216: a3 = u64 [sp + 0x50]\n121219: a4 = u64 [sp + 0x70]\n121222: a5 = u64 [sp + 0x78]\n121225: a0 = u64 [sp + 0x60]\n121228: a1 = u64 [sp + 0x68]\n121231: u64 [s1 + 0x30] = a4\n121234: u64 [s1 + 0x38] = a5\n121237: u64 [s1 + 0x20] = a0\n121240: u64 [s1 + 0x28] = a1\n121243: u64 [s1 + 0x10] = a3\n121246: u64 [s1 + 0x18] = a2\n121249: u64 [s1] = t1\n121251: u64 [s1 + 0x8] = t0\n121254: sp = s0 + 0xffffffffffffff60\n121258: ra = u64 [sp + 0x98]\n121262: s0 = u64 [sp + 0x90]\n121266: s1 = u64 [sp + 0x88]\n121270: sp = sp + 0xa0\n121274: ret\n",
				"bytecode": {
					"object": "50564d0000dc1e020000000000010700c10001c000400374e731185ac2736df57e56cf4efa352219995f68ff4d4a94e66989fd04c5bc56c828b1b578fa968c19087b8ef6944df509640e0386ff933ec49b6fad3638aff1128a17edb6f2eef3cf91820bae6d11f9f7eadf084436db8aa304901f83201c87241d50a457736e575da1201b68462fe9df800000000481261200000000070000000b0000001900000027000000350000003b000000480000005a0000006500000074000000770000008400000094000000a4000000af000000c1000000cc0000006164647265737363616c6c63616c6c5f646174615f636f707963616c6c5f646174615f6c6f616463616c6c5f646174615f73697a6563616c6c65726465706f7369745f6576656e746765745f696d6d757461626c655f646174616765745f73746f72616765686173685f6b656363616b5f3235366e6f777265665f74696d655f6c65667472657475726e5f646174615f636f707972657475726e5f646174615f73697a657365616c5f72657475726e7365745f696d6d757461626c655f646174617365745f73746f7261676576616c75655f7472616e73666572726564051302c10fd90463616c6cc118d9066465706c6f7906c20d1d82b103c1bcd9d60000be0100c30100e50100a90200e802004c0300ee0500f905002a07003f0700530700870800ae0900d50a00080c00140c00360c000c0d00670d00b60d000a0e00200e00630e00790e008e0e00940e00c20e00c80e00ce0e00f80e001f0f00250f00590f008d0f00b60f00e00f00481000b11000bc1000c31000d51000e21000f710005712000214001515002d15003715004515000216004116000818001618002518008e18004319006019006a19007e19008b1900371a00ad1b00ec1b00fa1b00be1c001b1e00391f008f20009921006d2300f62400562500902600e92c00762e00732f00812f00cb2f000c3000723000333200c63200533300803400153500a53500cd3600603700ed3700103900a33900303a005b3b00ed3b00873c002f3d004c3e001d3f00d141003544007544004445005b4700864900cf4d00625200a75200c55200d05200df5200265300cc53000e5500e45500b856008f5700985800565900785900bd5a00645b00835b00c85c006f5d008e5d00d35e007a5f00995f00de6000856100a46100e962009063000064000e6400926400c46500e56500926600a06600d06600e66600f166000067003268006869004a6a001c6b00566c003e6e005c6e00676e00766e00c66e002b6f008070006f71008372009c7200a77200b672000773005573006d7300787300877300b27300207400487400aa75004f7600b77600cd7600da7600677700757700857800937800147900207900527a006c7a00797a00067b00387c004f7c00207d002e7d003d7d004b7d00dd7e00eb7e003b80003c8100c58100d38100348200728300cf8400e08400ee84005285005286009b8800c48800278a00cc8a00358b004c8b00598b00f38c00648d00728d00f58d005e8e00698e00778e00a98e00cd8e00009000189000ea9000f89000a39100c79100fa9200129300e49300f29300ee9500779600859600089700b39700c09700f398000f99001c9900469900b39900dc99003f9b00e49b004d9c00649c00719c00649d00729d008a9d005b9e00c79e00f1a100d7a200e1a30093a40069a5008ca6002ca7000ca9009aa900b1a900bea9002baa0038aa006bab0087ab0094ab0076ac00a9ad00c1ad0093ae00a1ae0043af0050af0083b0009fb000acb00087b100bab200dcb2008ab30098b3007ab400adb500c5b50097b600a5b60012b7001fb70052b8006eb8007bb800bcb90018ba0026ba009bba00deba00ebba001ebc003abc0047bc00bcbc004bbd0058bd008bbe00a7be00b4be005fc10092c200b4c20062c30070c300bac30067c40047c500dbc50075c6001bc70099c800bcc800fec9009dca0009cb0017cb009ecb0032cc00cccc006dcd00e3ce0024d000c2d00029d10037d10064d100e0d10075d20010d300b6d30058d4002ad5006cd6000ad70072d70080d70006d8009ad80028d9009fda0033db00a6dc001ddd00cadd002bdf0088e00054e5006ce600bde70032e9004cea00f5ea008deb009dec0003ed00faed000def00b2ef000af10079f10017f2005df30004f40076f4009ff400e2f4007df500fdf50025f60040f70014f8002ff90056f90023fb00c7fb0080fd0054fe00acff00bc00015d0101310201a50301ee0401770501be0501050601240601300601b906014d0701db0701ad09016a0a01ab0b014a0c01b50c01c30c01010d01fe0d01940e01250f015410011d1201251401101601ec1701b81b012a1c01121d01071e01a51e01331f019e1f01802001ec20014b2101ab21010a2301df23018d2401d625018126010d27012c27013827015327016327018b2701732901012a01432b01e72b01532c01612c01722e01952e01db2f01823001f230010031018631011a3201a83201d43301683401f63401573601983601593801ce3801813901a03901ac3901c23901d03901383a01653a01483b01b43b01ea3c016e3d01bd3d01243e01354001424001734101e34101294301d04301f04301364501dd4501fd4501434701ea47015b48016948011349019849012c4a01c64a01694b01e64c01094d014b4e01ea4e01564f01644f01b150013f51018052011e5301855301935301ce5301c05401545501e25501975601685701d45701405a01635a01a55b01435c01ab5c01b95c01e65c01625d01f65d01845e01b25f01466001d460019161016e6201da6201056501366601a66601e867018c6801ac6801ee6901926a01b26a01f46b01936c01006d010e6d01e96d010c6e014e6f01ed6f015970016770017d71010b72014c7301ea73015174015f7401967401677501d37501757801987801da7901787a01e07a01ee7a011b7b013b7c015e7c01a07d01457e01b17e01bf7e01418001828001528101dd8901248a01438a014f8a015e8a01ce8a015a8b017d8b01be8c015d8d01c48d01d28d01198e01018f01248f016690010b9101779101859101db9101f09301e295015c9601e796017c9701179801b798015999014a9a01d99a012b9b01999b012e9c01749d011b9e018b9e01999e01299f0108a0011ca1017ba20114a401fca401f1a501f1a60197a70170a801a8a90171aa01b1aa01c7ab01e1ab01edab01fcab0139ac01a3ac0165ad01f9ad0187ae018daf0124b10132b101a2b101c8b1010ab301a9b30115b40123b401d3b40177b50145b601f6b601edb7019cb901ffba016dbb01f7bc013ebd0127bf01c6bf018bc10162c201c1c3013ac40159c40165c40174c401fbc40164c6015fc701e1c90169ca01b2ca018ecc01a8cc01bccc012ecd015dcd01d2cd0148ce0119cf0128cf0140cf0195d001c3d001d1d001b2d101f6d201fdd30188d40180d50151d601e1d601f1d60171d7010fd90118d90122d90177d9018b791052093b3309010001ae9833c8780883881f8488e0553801000128390a740002ae8a123d087400023308800002c8870732003308800002c8870732000000aa876e978a2098aa20977b2098bb20c89b0bc9ba0a979b019abbaeab20ae873751094ec87909647a017c8b95880195ac0178ab64caab9cf42836510934c87909647a017c8b95880195ac0178ab64caab9cf4281c51091a839aff01c8a80b7cbb9599ffc8a70c78cb83aaff5209f032009511d87b10207b15187b161082897b19088289087b1982851082861883773308205010022fff6f686f59821a6faa821b086fbb787b18787a10787908787898bc38787c1f98bc30787c1e98bc28787c1d98bc20787c1c98bc18787c1b98bc10787c1a98bb08787b1998ab38787b1798ab30787b1698ab28787b1598ab20787b1498ab18787b1398ab10787b1298aa08787a11989a38787a0f989a30787a0e989a28787a0d989a20787a0c989a18787a0b989a10787a0a98990878790998893878790798893078790698892878790598892078790498891878790398891078790298880878780182102082151882161095112832009511f07b10087b158475010a04013d0778000251050750100409501006560a9511e0fc7b1018037b1510037b160803951520038411e033074033082050100820fe46171f46171e0146171d46171c46171b46171a46171946171846171746171646171546171446171346171246171146171046170f46170e46170d46170c46170b46170a46170946170846170746170646170546170446170346170246170146074921f8024921e0024921e8024921f0028317e0020a11018217f0028218f8028219e802821ae002d49808d4a707d487075207ac0439077800027b1798009777209879204921b8024921b0024921a8029517c0029518a0027b1990007b19a00250100a770f821bd8028216d002821ac8028219c002d4ba07d46908d47808988820d46707977720d48707520752048397821898007b19787b1a80007b1b880050100c1dfd83778218980033090a0282179000821978c89707d897086493821b8000c88b09d8b90ada880ac86a0ad86a08821c8800c88c027b1988017b1780017b1cb8017b16b0017b1ba8017b13a0017b1a90019517c0019518a001951980017b12980150100eb3188217c0017b1798008217c8017b1790008217d0017b1788008217d8017b1780008217e0017b17788217e8017b17708217f0017b17688217f8017b1760821700027b1758821708027b1750821710027b1748821718027b1740821720027b1738821728027b1730821730027b1728821738027b1720821740027b1718821748027b171082165002821458028213600282126802821c7002821b7802821a80028219880282189002821798029510a0007b107b17b8007b18b0007b19a8007b1aa0007b1bd8007b1cd0007b12c8007b13c0007b14f8007b16f0008217107b17e8008217187b17e0008217207b1718018217287b1710018217307b1708018217387b1700018217407b1738018217487b1730018217507b1728018217587b1720018217607b1758018217687b1750018217707b1748018217787b174001821780007b177801821788007b177001821790007b176801951760019518400195192001951a0001951be000951cc000821698007b1660013300109511e0fc7b1018037b1510037b160803951520038411e082528226187b16408226107b16488226087b165082267b165882c6107b167082c6087b166082cc7b1c6882bc187b1c7882bc107b1c800082bc087b1c880082bb7b1bb00082ab187b1b900082ab107b1b980082ab087b1ba00082aa7b1aa800829a187b1a38829a107b1ab800829a087b1ac00082997b19c8008289187b19188289107b19208289087b192882887b18308278187b18108278087b18d00082787b18d8008276104821a002204921d8024921d0024921c8024921c002054921f8024921f0024921e8024921e0028318c002831ae002831ba0023309ff33070a084921d8024921d0024921c8024921c002054921f8024921f0024921e8024921e002018318c002831ae0023309ff330b2033070a1028494d3307403308205010120cfa7c78117c79107c7a127c7b13978808d4980897aa1097bb18d4ba0ad4a8087c79157c7a147c7b167c7c17979908d4a90997bb1097cc18d4cb0bd4b909979920d489027c79017c7a7c7b027c7c03979908d4a90997bb1097cc18d4cb0bd4b9097c7a057c7b047c7c067c760797aa08d4ba0a97cc10976618d46c0cd4ca0a97aa20d4a9097c7a197c7b187c7c1a7c761b97aa08d4ba0a97cc10976618d46c0cd4ca0a7c7b1d7c7c1c7c761e7c781f97bb08d4cb0b976610978818d46808d4b808978820d48a0a7c78097c7b087c7c0a7c760b978808d4b80897cc10976618d46c0cd4c8087c7b0d7c7c0c7c760e7c770f97bb08d4cb0b976610977718d46707d4b707977720d487076f786fa76f996f2ad4a909d4870ad49a0a98aa20d49808978820d4a8085108170033073308501014dbf8837833070133090a0e0183777b179800501016c6f88377330833090a0233078000330820501018b2f87c78017c797c7a027c7b03978808d4980897aa1097bb18d4ba0ad4a8087c79057c7a047c7b067c7c07979908d4a90997bb1097cc18d4cb0bd4b909979920d489027c79197c7a187c7b1a7c7c1b979908d4a90997bb1097cc18d4cb0bd4b9097c7a1d7c7b1c7c7c1e7c761f97aa08d4ba0a97cc10976618d46c0cd4ca0a97aa20d4a9097c7a117c7b107c7c127c761397aa08d4ba0a97cc10976618d46c0cd4ca0a7c7b157c7c147c76167c781797bb08d4cb0b976610978818d46808d4b808978820d48a0a7c78097c7b087c7c0a7c760b978808d4b80897cc10976618d46c0cd4c8087c7b0d7c7c0c7c760e7c770f97bb08d4cb0b976610977718d46707d4b707977720d487076f7733068000036fa86f996f2a3e0a9800033e098000033e088800033e079000033307a00033082050101a7ef77c78017c797c7a027c7b03978808d4980897aa1097bb18d4ba0ad4a8087c79057c7a047c7b067c7c07979908d4a90997bb1097cc18d4cb0bd4b909979920d489027c79197c7a187c7b1a7c7c1b979908d4a90997bb1097cc18d4cb0bd4b9097c7a1d7c7b1c7c7c1e7c781f97aa08d4ba0a97cc10978818d4c808d4a808978820d498037c78117c7a107c7b127c7c13978808d4a80897bb1097cc18d4cb0bd4b8087c7a157c7b147c7c167c791797aa08d4ba0a97cc10979918d4c909d4a909979920d4890a7c78097c79087c7b0a7c7c0b978808d4980897bb1097cc18d4cb0bd4b8087c790d7c7b0c7c7c0e7c770f979908d4b90997cc10977718d4c707d49707977720d487076f776fa86f396f2a7b6a387b69207b68287b67303307c00033082050101c57f67c78017c797c7a027c7b03978808d4980897aa1097bb18d4ba0ad4a8087c79057c7a047c7b067c7c07979908d4a90997bb1097cc18d4cb0bd4b909979920d489027c79197c7a187c7b1a7c7c1b979908d4a90997bb1097cc18d4cb0bd4b9097c7a1d7c7b1c7c7c1e7c781f97aa08d4ba0a97cc10978818d4c808d4a808978820d498037c78117c7a107c7b127c7c13978808d4a80897bb1097cc18d4cb0bd4b8087c7a157c7b147c7c167c791797aa08d4ba0a97cc10979918d4c909d4a909979920d4890a7c78097c79087c7b0a7c7c0b978808d4980897bb1097cc18d4cb0bd4b8087c790d7c7b0c7c7c0e7c770f979908d4b90997cc10977718d4c707d49707977720d487076f776fa86f396f2a7b6a587b69407b68487b67503307e00033082050101e30f57c78017c797c7a027c7b03978808d4980897aa1097bb18d4ba0ad4a8087c79057c7a047c7b067c7c07979908d4a90997bb1097cc18d4cb0bd4b909979920d489027c79197c7a187c7b1a7c7c1b979908d4a90997bb1097cc18d4cb0bd4b9097c7a1d7c7b1c7c7c1e7c781f97aa08d4ba0a97cc10978818d4c808d4a808978820d498037c78117c7a107c7b127c7c13978808d4a80897bb1097cc18d4cb0bd4b8087c7a157c7b147c7c167c791797aa08d4ba0a97cc10979918d4c909d4a909979920d4890a7c78097c79087c7b0a7c7c0b978808d4980897bb1097cc18d4cb0bd4b8087c790d7c7b0c7c7c0e7c770f979908d4b90997cc10977718d4c707d49707977720d487076f776fa96f3a6f2b39087000027b6b787b6a607b69687b677051080883670a0f01821798003308501020fdf38378330733093300220a0e01951180fe7b1078017b1570017b166801951580018411e0330740330820501024cff346171f800046171e46171d46171c46171b46171a46171946171846171746171646171546171446171346171246171146171046170f46170e46170d46170c46170b46170a46170946170846170746170333067800024617024617014607390878000246170646170546170453180413048317200133080a030181173c015a4782485d08595a4769ec20daad005847fdb135a048015147feb135a0040251474e67c1a5bc01524755015ac4d7033300269511a07b10587b15507b16489515608411e04911384911304911284911208317200a11280aa4005a474aab8e55aa0058473cfbac110c0151473dfbac11dc015147a3a7b423700152478244512985033300289511a0fd7b1058027b1550027b164802951560028411e049213802492130024921280249212002831720020a112899785847861626e7fc005147871626e7b00151478ab435e74b015247633c25f3320333002a951160ff7b1098007b1590007b1688009515a0008411e04911384911304911284911208317200a11283cb3005847746fc95ec3005147756fc95e67015147c95a59600201524716e48472e30233002c9511c0fe7b1038017b1530017b162801951540018411e049211801492110014921080149210001831700010a1128688b00514731fe92834f015247c55e98889f0250102ea49b00514783485d086d015247b691611189023300309511c0fe7b1038017b1530017b162801951540018411e049211801492110014921080149210001831700010a11287a6551476aec20da53015247ed6d68df460250103232a80051474bab8e55670152475a6b645c3002501034ee7f50103613a000330038951160ff7b1098007b1590007b1688009515a0008411e04911384911304911284911208317200a1128d26b50103a85ad0050103cbd870033003e9511a07b10587b15507b16489515608411e04911384911304911284911208317200a1128069d003300409511807b10787b1570951580008411e04911384911304911284911208317200a11288f6950104207ab00330044951120ff7b10d8007b15d0007b16c8009515e0008411e049219800492190004921880049218000831780000a1128bb8100330046951140fd7b10b8027b15b0027b16a8029515c0028411e049217802492170024921680249216002831760020a11286c96003300489511a07b10587b15507b16489515608411e04911384911304911284911208317200a11286b5433004a9511a07b10587b15507b16489515608411e04911384911304911284911208317200a112822a40049215801492150014921480149214001831740010a1101821750018218580182194801821a4001d49808d4a707d487075207bc0080674921980049219000492188007b1780004921b8004921b0004921a000049517c0009518a000951980004921a80050104c187b8217c0007b17188213c8008214d0008210d8008212e000821ce8008216f000821bf800821a00018218080182191001821718017b17387b19307b18287b1a207b1b587b16507b1c487b12407b10787b14707b1368951760951840951920821a187b1a6050104e97de00816801510808501050776c330750105242ef8378330733090a0e013307330850105430ef837833070133093300560a0e019511f07b10087b1564753307403308205010580eef7c78017c797c7a027c7b03978808d4980897aa1097bb18d4ba0ad4a8087c79057c7a047c7b067c7c07979908d4a90997bb1097cc18d4cb0bd4b909979920d489027c79097c7a087c7b0a7c7c0b979908d4a90997bb1097cc18d4cb0bd4b9097c7a0d7c7b0c7c7c0e7c780f97aa08d4ba0a97cc10978818d4c808d4a808978820d498037c78117c7a107c7b127c7c13978808d4a80897bb1097cc18d4cb0bd4b8087c7a157c7b147c7c167c791797aa08d4ba0a97cc10979918d4c909d4a909979920d4890a7c78197c79187c7b1a7c7c1b978808d4980897bb1097cc18d4cb0bd4b8087c791d7c7b1c7c7c1e7c771f979908d4b90997cc10977718d4c707d49707977720d487076f776fa86f396f2a7b5a187b59107b58087b5782100882159511103200951160ff7b1098007b1590007b1688009515a0008411f08289187b19308289107b19288289087b192082887b18187b173833074033082050105aaeed7c78197c79187c7a1a7c7b1b978808d4980897aa1097bb18d4ba0ad4a8087c791d7c7a1c7c7b1e7c7c1f979908d4a90997bb1097cc18d4cb0bd4b909979920d489027c79117c7a107c7b127c7c13979908d4a90997bb1097cc18d4cb0bd4b9097c7a157c7b147c7c167c761797aa08d4ba0a97cc10976618d46c0cd4ca0a97aa20d4a9097c7a097c7b087c7c0a7c760b97aa08d4ba0a97cc10976618d46c0cd4ca0a7c7b0d7c7c0c7c760e7c780f97bb08d4cb0b976610978818d46808d4b808978820d48a0a7c78017c7b7c7c027c7603978808d4b80897cc10976618d46c0cd4c8087c7b057c7c047c76067c770797bb08d4cb0b976610977718d46707d4b707977720d487076f736fa46f966f2c82181895871fd88708821a20c88a09d8a90ada880a821828c88a0ad88a08821b30c8b8088477e0c8c7077b1c287b1710d8c70bc86909c8b90cd36c097b1630d86c07da9b07c84a0ac87a0bd8ab06d84a09c83808c89808c886068eb88e69da6809d46b087b1c088ecadb890a520a2301d84b08d33609d8360ada980ad34b08d49808db8a0752070a013307403308207b14207b13187b1b50105c03ec6f6882196f99821a086faa821b106fbb787b1898bc38787c1f98bc30787c1e98bc28787c1d98bc20787c1c98bc18787c1b98bc10787c1a98bb08787b19787a1098ab38787b1798ab30787b1698ab28787b1598ab20787b1498ab18787b1398ab10787b1298aa08787a11787908989a38787a0f989a30787a0e989a28787a0d989a20787a0c989a18787a0b989a10787a0a98990878790978789889387879079889307879069889287879059889207879049889187879039889107879029888087878018217388218287b788218187b78188218307b78088218207b7810955160ff8210980082159000821688009511a0003200491170491168491160140700000000717b484e9518607b1778330750105ea0eb4911584911504911404133070495184049114850106088eb3308243307501062ceea83783307013309243300640a0e01808910828a0882884917187b79107b7a087b7832009511d0fe7b1028017b1520017b161801951530018411f0829b18829c108296087b1b80007b1c58d4cb0b886c0194bc7b1708510c920382a7187b172082a7107b172882a7087b171082a77b171882998287187b17688287107b17708287087b176082877b17880095971f7b1950d89708c868088488018477e0957920d87907c8780ad88a0bda770b4921e8007b19d0007b1ad8009517f0009518d0007b1be0007b16485010661efc82170801821900018218f800821af0007b17787b1838d48707d49a08d478089888207b1940d49707977720d487075207ed0283a73308207b1a30501068c4e982105082188800c80808d8080a821648821960c86909c8a90bd36b0cd86b09daca09821c10d3cb03d8bc0b821c18d88c02821858821c70c88c0cdb3b02d88c0a82148000821b68c84b0bc8ba0ac8c909d8c90bc8ba0a821c20d3ca0bd8ac0a821328d8930cdabc0ad33909d4b909db9a026f09989a38787a1f989a30787a1e989a28787a1d989a20787a1c989a18787a1b989a10787a1a989a08787a196f6a78791898a93878791798a93078791698a92878791598a92078791498a91878791398a9107879126f89787a1098aa08787a11989a38787a0f989a30787a0e989a28787a0d989a20787a0c989a18787a0b989a10787a0a6f4a78790898990878790998a93878790798a93078790698a92878790598a92078790498a91878790398a910787902787a98aa08787a01646482168800821c705202ff016483821940821778d497071408e0ffffff00000000821b30d88b08821a3894a8947851088101d4c607821868821260d48208d48707987720d4c808978820d4870752076201d4300782188000d48408d48707987720d43808978820d487075207450195bc207b1c28d8bc07c87a087b1860d8a808da7708c898087b1868d898077b177083c78306646850106afde77b172081178800646850106cefe76478821720821650646950106e20e8821828c86807d88708821948821b60c8b909c88909d3b90ad8b90bdaa80b821858821c68c8c808c88b0bd88b0ad8c808821c8000821678c86c0c821670c86c0cc8c808c8a808d4b70ad49808d48a0a98aa20d4b808978820d4a80852089d00837733082050107077e746171f46171e46171d46171c46171b46171a46171946171846171746171646171546171446171346171246171146171046170f46170e46170d46170c46170b46170a46170946170846170746170646170546170446170346170246170146078217088218307b788218787b78188218387b78088218407b78109551d0fe821028018215200182161801951130013200004921c0004921b8004921b000140700000000717b484e9518b0007b17c800330750107272e74921a8004921a0004921900041330704951890004921980050107455e733082433075010769be683783307013309240a0e013307330850107887e68378330701330933007a0a0e01951120ff7b10d8007b15d0007b16c8009515e0008411f08280829308828408829b950a1fd80a02c8240c7b1b20d8ba0ad33c06d83c0bda6a0b8286107b1438d84c0ada220a829218828c18829410c86a0ad86a087b1c30c8c808d32809d92808d84a0cda9c08d34a0ad4a909db980b510be8017b147b12087b17187b1328d46007821838821930d49808d487079877207b1610d46808978820d487075207ba018307330820640650107ccee57c78017c797c7a027c7b03978808d4980897aa1097bb18d4ba0ad4a8087c79057c7a047c7b067c7c07979908d4a90997bb1097cc18d4cb0bd4b909979920d489027c79097c7a087c7b0a7c7c0b979908d4a90997bb1097cc18d4cb0bd4b9097c7a0d7c7b0c7c7c0e7c780f97aa08d4ba0a97cc10978818d4c808d4a808978820d498037c78117c7a107c7b127c7c13978808d4a80897bb1097cc18d4cb0bd4b8087c7a157c7b147c7c167c791797aa08d4ba0a97cc10979918d4c909d4a909979920d4890a7c78197c79187c7b1a7c7c1b978808d4980897bb1097cc18d4cb0bd4b8087c791d7c7b1c7c7c1e7c771f979908d4b90997cc10977718d4c707d49707977720d487076f746fa06f386f29956a20d86a0c821738c8c70bd87b06dacc06821710c87606d8760c821730c87c0c8217087b175882177b17508217287b17488217207b17407b1b88007b1a80007b1690007b1c98007b19787b18707b10689517a00095188000951960951a407b146050107eb2f98217b0008218b8008219a000821aa800821b187bb7107bb8187bb97bba08955120ff8210d8008215d0008216c8009511e00032000033073308502080001ae483783307013309330082000a0e019511b0fa7b1048057b1540057b163805951550058411f0829608828408829c8280829310d3460bd8460ad80c02dab20a7b160804c9460bc92b0b7b1c0004c90c0c88cce00085cc018282108eb6dbb60c829b18828618c92308c9a809d8a8087b13f803d8230a7b1bf003c96b0bc9ab0bc98b0b8fb88e9adbb80ad4b909db9a0c520c0628e3127b17d003d420077b1420047b16e003d46408d487079877207b12e803d42808978820d4870751070628b71283073308207b1718047b1028045020840048e37c78097c79087c7a0a7c7b0b978808d4980897aa1097bb18d4ba0ad4a8087c790d7c7a0c7c7b0e7c7c0f979908d4a90997bb1097cc18d4cb0bd4b909979920d498087c79017c7a7c7b027c7c03979908d4a90997bb1097cc18d4cb0bd4b9097c7a057c7b047c7c067c760797aa08d4ba0a97cc10976618d46c0cd4ca0a97aa20d4a9096f9b6f8c14080000000001000000d38c09d4b90998ca2088aa0194ba939a520a0628fe117b1cc0037b1bc8038219e803821ae003d49a0a1408e0ffffff0000000082192804d889088219200494987b1a100494a852080628c7117c78187b1860037c78197b1840037c781a7b1850037c781b7b1848037c781c7b1878037c781d7b1858037c781e7b1870037c781f7b1868037c78107b18a0037c78117b1880037c78127b1890037c78137b1888037c78147b18b8037c78157b1898037c78167b18b0037c77177b17a8038217180483772033082050208600ebe1140600000000010000007b16d8031408c0ffffff0000000082192804d88908821920049498821910049498510819117c78187b1840027c78197b1820027c781a7b1830027c781b7b1828027c781c7b1858027c781d7b1838027c781e7b1850027c781f7b1848027c78107b1880027c78117b1860027c78127b1870027c78137b1868027c78147b1898027c78157b1878027c78167b1890027c78177b1888027c78087b18c0027c78097b18a0027c780a7b18b0027c780b7b18a8027c780c7b18d8027c780d7b18b8027c780e7b18d0027c780f7b18c8027c787b1800037c78017b18e0027c78027b18f0027c78037b18e8027c78047b1818037c78057b18f8027c78067b1810037c77077b1708038217180483774033082050208800cde07c78097c79087c7a0a7c7b0b978808d4980897aa1097bb18d4ba0ad4a8087c790d7c7a0c7c7b0e7c7c0f979908d4a90997bb1097cc18d4cb0bd4b909979920d498087c79017c7a7c7b027c7c03979908d4a90997bb1097cc18d4cb0bd4b9097c7a057c7b047c7c067c760797aa08d4ba0a97cc10976618d46c0cd4ca0a97aa20d4a9096f9a6f8b8218d803d3b808d4a80898b92088990194a9938951098c0f7b1b20037b1a2803140600000000010000007b16d8031408a0ffffff0000000082192804d889088216200494688219100494985108540f7c78187b18c0017c78197b18a0017c781a7b18b0017c781b7b18a8017c781c7b18d8017c781d7b18b8017c781e7b18d0017c781f7b18c8017c78107b1800027c78117b18e0017c78127b18f0017c78137b18e8017c78147b1818027c78157b18f8017c78167b1810027c77177b1708028217180483776033082050208a0077df8218d80395888082192804d8890894688219100494985108ba0e7c78187b18c0007c78197b18a0007c781a7b18b0007c781b7b18a8007c781c7b18d8007c781d7b18b8007c781e7b18d0007c781f7b18c8007c78107b1800017c78117b18e0007c78127b18f0007c78137b18e8007c78147b1818017c78157b18f8007c78167b1810017c78177b1808017c78087b1840017c78097b1820017c780a7b1830017c780b7b1828017c780c7b1858017c780d7b1838017c780e7b1850017c780f7b1848017c787b1880017c78017b1860017c78027b1870017c78037b1868017c78047b1898017c78057b1878017c78067b1890017c77077b178801821718048377800033082050208c006dde7c78097c79087c7a0a7c7b0b978808d4980897aa1097bb18d4ba0ad4a8087c790d7c7a0c7c7b0e7c7c0f979908d4a90997bb1097cc18d4cb0bd4b909979920d489027c79017c7a7c7b027c7c03979908d4a90997bb1097cc18d4cb0bd4b9097c7a057c7b047c7c067c760797aa08d4ba0a97cc10976618d46c0cd4ca0a97aa20d4a9097c7a117c7b107c7c127c761397aa08d4ba0a97cc10976618d46c0cd4ca0a7c7b157c7c147c76167c781797bb08d4cb0b976610978818d46808d4b808978820d4a8086f8a6f936f28d4380b88ac0194bc510cf40c7c7b197c7c187c761a7c791b97bb08d4cb0b976610979918d46909d4b9097c7b1d7c7c1c7c761e7c771f97bb08d4cb0b976610977718d46707d4b707977720d497076f7782192804c89702d8720782192004c8a909c87904d3a409d8a406da97068217e803c88707c87606d87609d887078218e003c88303c83707c8970095271fd82708c88409d8490ada880ac8a603d86308c80808821c0804d3c90bd8c909821c0004d8c707dbb907821cf803d8c309821bf003d3b80ad9b808daa908d3c309d4a909db98075107340cd462077b14d8037b103003d40408d487079877207b163803d46808978820d487075207030c8327330820642650208e0099dc7c78017c797c7a027c7b03978808d4980897aa1097bb18d4ba0ad4a8087c79057c7a047c7b067c7c07979908d4a90997bb1097cc18d4cb0bd4b909979920d489027c79097c7a087c7b0a7c7c0b979908d4a90997bb1097cc18d4cb0bd4b9097c7a0d7c7b0c7c7c0e7c780f97aa08d4ba0a97cc10978818d4c808d4a808978820d498037c78117c7a107c7b127c7c13978808d4a80897bb1097cc18d4cb0bd4b8087c7a157c7b147c7c167c791797aa08d4ba0a97cc10979918d4c909d4a909979920d4890a7c78197c79187c7b1a7c7c1b978808d4980897bb1097cc18d4cb0bd4b8087c791d7c7b1c7c7c1e7c771f979908d4b90997cc10977718d4c707d49707977720d487076f746fa06f386f29956a20d86a0c8217d803c8c70bd87b06dacc0682173803c87606d8760c82173003c87c0c8217f0037b17c8048217f8037b17c004821708047b17b804821700047b17b0047b1bf8047b1af0047b1600057b1c08057b19e8047b18e0047b10d804951710059518f0049519d004951ab0047b14d004502090006af0140600000000010000007b16d803140760ffffff0000000082182804d8780782182004948782181004948751073e0a821728057b173003821720057b179000821718057b173803821710057b179800821718048377a00033082050209200b0da7c78097c79087c7a0a7c7b0b978808d4980897aa1097bb18d4ba0ad4a8087c790d7c7a0c7c7b0e7c7c0f979908d4a90997bb1097cc18d4cb0bd4b909979920d498087c79017c7a7c7b027c7c03979908d4a90997bb1097cc18d4cb0bd4b9097c7a057c7b047c7c067c760797aa08d4ba0a97cc10976618d46c0cd4ca0a97aa20d4a9096f9a6f8b8218d803d3b808d4a80898b92088990194a9938951096f097b1b88007b1ad803140840ffffff0000000082192804d88908821920049498821910049498510845097c78187b18287c78197b18087c781a7b18187c781b7b18107c781c7b18407c781d7b18207c781e7b18387c781f7b18307c78107b18687c78117b18487c78127b18587c78137b18507c78147b1880007c78157b18607c78167b18787c77177b1770821718048377c0003308205020940076d97c78097c79087c7a0a7c7b0b978808d4980897aa1097bb18d4ba0ad4a8087c790d7c7a0c7c7b0e7c7c0f979908d4a90997bb1097cc18d4cb0bd4b909979920d489027c79017c7a7c7b027c7c03979908d4a90997bb1097cc18d4cb0bd4b9097c7a057c7b047c7c067c760797aa08d4ba0a97cc10976618d46c0cd4ca0a97aa20d4a9097c7a117c7b107c7c127c761397aa08d4ba0a97cc10976618d46c0cd4ca0a7c7b157c7c147c76167c781797bb08d4cb0b976610978818d46808d4b808978820d4a8086f8a6f936f28d4380b88ac0194bc510cfd077c7b197c7c187c761a7c791b97bb08d4cb0b976610979918d46909d4b9097c7b1d7c7c1c7c761e7c771f97bb08d4cb0b976610977718d46707d4b707977720d497076f7782192804c89702d8720782192004c8a909c87904d3a409d8a40ada970a8217e803c88707c8a706d87609d887078218e003c88303c83707c8970095271fd82708c88409d8490ada880ac8a603d86308c80808821c0804d3c90bd8c909821c0004d8c707dbb907821cf803d8c309821bf003d3b80ad8b808daa908d3c309d4a909db980751073d077b122804d462077b1420047b101004d40408d487079877207b161804d46808978820d48707520708078217400397770882186003d487078218500397881082194803979918d49808d487078218580397880882197803d4980882197003979910821a680397aa18d4a909d49808978820d487077b17e003821780039777088218a003d487078218900397881082198803979918d49808d48707821898039788088219b803d498088219b003979910821aa80397aa18d4a909d49808978820d487077b17e8038217200297770882184002d487078218300297881082192802979918d49808d487078218380297880882195802d4980882195002979910821a480297aa18d4a909d49808978820d487077b17a0038217600297770882188002d487078218700297881082196802979918d49808d487078218780297880882199802d4980882199002979910821a880297aa18d4a909d49808978820d487077b17a8038217a0029777088218c002d487078218b0029788108219a802979918d49808d487078218b8029788088219d802d498088219d002979910821ac80297aa18d4a909d49808978820d487077b1780038217e00297770882180003d487078218f0029788108219e802979918d49808d487078218f80297880882191803d4980882191003979910821a080397aa18d4a909d49808978820d487077b1790038217a0019777088218c001d487078218b0019788108219a801979918d49808d487078218b8019788088219d801d498088219d001979910821ac80197aa18d4a909d49808978820d478008217e00197770882180002d487078218f0019788108219e801979918d49808d487078218f80197880882191802d4980882191002979910821a080297aa18d4a909d49808978820d478048217a0009777088218c000d487078218b0009788108219a800979918d49808d487078218b8009788088219d800d498088219d000979910821ac80097aa18d4a909d49808978820d478028217e00097770882180001d487078219f000979910821ae80097aa18d4a909d497078219f80097990882181801d48909821a100197aa1082130801973318d4a30ad4a909979920d479038217200197770882184001d48707821a300197aa10821c280197cc18d4ca0ad4a707821a380197aa0882185801d48a0a821c500197cc1082164801976618d46c0cd4ca0a97aa20d47a0a8217600197770882188001d48707821c700197cc1082166801976618d46c0cd4c707821c780197cc0882189801d48c0c82169001976610821b880197bb18d46b0bd4cb0b97bb20d4b707821b0897bb08821828d48b0b821c1897cc10821610976618d46c0cd4cb0b821c2097cc08821840d48c0c821638976610821830978818d46808d4c808978820d4b808821b4897bb08821968d49b0b821c5897cc10821650976618d46c0cd4cb0b821c6097cc0882198000d49c0c821678976610821970979918d46909d4c909979920d4b909821be8036fbb7b1be803821be0036fbb7b1be0036f4b7b1bb8036f0b7b1bb0036f997b1970036f887b1860036f387b1898036f287b1888036f777b1778036fa77b1768038217a8036f777b17a8038217a0036f777b17a003821790036f777b179003821780036f777b17800381172804330820502096001dd37c78017c797c7a027c7b03978808d4980897aa1097bb18d4ba0ad4a8087c79057c7a047c7b067c7c07979908d4a90997bb1097cc18d4cb0bd4b909979920d489027c79097c7a087c7b0a7c7c0b979908d4a90997bb1097cc18d4cb0bd4b9097c7a0d7c7b0c7c7c0e7c760f97aa08d4ba0a97cc10976618d46c0cd4ca0a97aa20d4a9097c7a117c7b107c7c127c761397aa08d4ba0a97cc10976618d46c0cd4ca0a7c7b157c7c147c76167c781797bb08d4cb0b976610978818d46808d4b808978820d48a0a7c78197c7b187c7c1a7c761b978808d4b80897cc10976618d46c0cd4c8087c7b1d7c7c1c7c761e7c771f97bb08d4cb0b976610977718d46707d4b707977720d487076f736fa46f986f2982172804957a20d87a0c82172004c8c706d8760bdacc0b82171804c87b0bd87b0c82171004c87c0c8217f0037b1748048217f8037b174004821708047b173804821700047b1730047b1678047b1a70047b1b80047b1c88047b1968047b1860047b145804951790049518700495195004951a30047b13500450209800eae68217a0048218a80482199004821a9804821bd0037bb7d0007bb8d8007bb9c0007bbac800821788007bb7b0008217d8037bb7b800821760037bb7a000821770037bb7a800821790007bb79000821730037bb79800821798007bb78000821738037bb78800821768037bb770821778037bb778821788037bb760821798037bb768821720037bb750821728037bb7588217b0037bb7408217b8037bb748821780037bb730821790037bb7388217a0037bb7208217a8037bb7288217c0037bb7108217c8037bb7188217e0037bb78217e8037bb7089551b0fa821048058215400582163805951150053200003307330833009a002898d0330850209a0093d08378330701330933009c000a0e019511f0fd7b1008027b1500027b16f801951510028411f0390878000264767b1888009787209879204921c8014921c0014921b8019517d0019518b0017b1980007b19b00150209e0056e28218e801821ae0018217d8018219d0017b17787b1868d48707d4a908d478089888207b1a70d4a707977720d487075207cc018397821888007b19605020a000facf83778218880033090a0282178000821960c87903d893086494821c78c88c09d8c90ada880a821b70c8ba0ad8ba08821768c887027b1998007b1390007b17c8007b1bc0007b1cb8007b14b0007b1aa0009517d0009518b000951990007b12a8005020a2008eeb8217d0007b1788008217d8007b1780008217e0007b17788217e8007b17708217f0007b17688217f8007b1760821700017b1758821708017b1750821710017b1748821718017b1740821720017b1738821728017b1730821730017b1728821738017b1720821740017b1718821748017b1710821750017b1708821758017b1782106001821468018213700182127801821c8001821b88018217a8018218a00182199801821a90017b67d8007b68d0007b69c8007b6ac0007b6bb8007b6cb0007b62a8007b63a0007b6498007b60900082177b6788008217087b6780008217107b67788217187b67708217207b67688217287b67608217307b67588217387b67508217407b67488217487b67408217507b67388217587b67308217607b67288217687b67208217707b67188217787b6710821780007b6708821788007b679551f0fd82100802821500028216f801951110023200009511a07b10587b15507b1648828a18828b10828c088286d4ac08d4b609d48909989920d4b808978820d498087b172852081d029567207b1730d86707c87c087b18407b1c08d8c805da7705c8b5057b1b10d8b5077b1a18c8a7077b17387b1683673308203306205020a400d3cd78761f8218306486d45808821940821b38d4b909d498089888207b1520d45909979920d4980846171e46171d46171c46171b46171a46171946171846171746171646171546171446171346171246171146171046170f46170e46170d46170c46170b46170a461709461708461707461706461705461704461703461702461701460752085d01836533082064575020a60040cd46171f1f46171e46171d46171c46171b46171a46171946171846171746171646171546171446171346171246171146171046170f46170e46170d46170c46170b46170a461709461708461707461706461705461704461703461702461701821820821938d498081409e0ffffff00000000d89609821a4094a9948946075109cf008357203308205020a800b3cc46171f46171e7346171d7346171c6546171b7246171a644617196446171861461717204617166f46171572461714654617137a46171220461711734617106946170f2046170e7946170d7246170c6f46170b7446170a634617096146170866461707204617063a330c77787c054617046f4617037246170263461701734607458218958760d88708821a08c88a09d8a90ada880a821810c88a0ad88a08821b18c8b808821b287bb77bb9087bba107bb8188210588215508216489511603200009511a07b10587b15507b1648828a18828b10828c088286d4ac08d4b609d48909989920d4b808978820d49808520820027b17109567207b1730d86707c87c087b18407b1c08d8c805da7705c8b5057b1b18d8b5077b1a20c8a7077b17387b1683673308203306205020aa0086cb821830648ad45808821940821b38d4b909d498089888207b1528d45909979920d4980878761f46171e46171d46171c46171b46171a46171946171846171746171646171546171446171346171246171146171046170f46170e46170d46170c46170b46170a461709461708461707461706461705461704461703461702461701460752085d0164a683a533082064575020ac00f1ca46171f2046171e46171d46171c46171b46171a46171946171846171746171646171546171446171346171246171146171046170f46170e46170d46170c46170b46170a461709461708461707461706461705461704461703461702461701821828821938d498081409e0ffffff00000000d89609821a4094a9948946075109cd008357203308203305205020ae0061ca461719614617147a46171d654617156546170e6546171b6446171a6446170d644617116946170c6946170b76461708707875187875137875107875074617063a461705774617176f46170a6f4617046f46171c724617167246170f7246170972461703724617026346171f7346171e7346171273461701734607458218958760d88708821a08c88a09d8a90ada880a821818c88a0ad88a08821b20c8b808821b107bb77bb9087bba107bb8188210588215508216489511603200009511a07b10587b15507b1648828a18828b10828c088286d4ac08d4b609d48909989920d4b808978820d498087b1728520813029567207b1730d86707c87c087b18407b1c08d8c805da7705c8b5057b1b10d8b5077b1a18c8a7077b17387b1683673308203306205020b00039c978761f8218306486d45808821940821b38d4b909d498089888207b1520d45909979920d4980846171e46171d46171c46171b46171a46171946171846171746171646171546171446171346171246171146171046170f46170e46170d46170c46170b46170a461709461708461707461706461705461704461703461702461701460752085301836533082064575020b200a6c846171f1946171e46171d46171c46171b46171a46171946171846171746171646171546171446171346171246171146171046170f46170e46170d46170c46170b46170a461709461708461707461706461705461704461703461702461701821820821938d498081409e0ffffff00000000d89609821a4094a9948946075109c5008357203308205020b40019c846171f46171e46171d46171c46171b46171a46171946171830330c20787c174617163e787c154617146546171362787c12461711744617107346170f7546170e6d787c0d46170c6546170b6346170a694617097246170870787c074617063a461705774617046f4617037246170263461701734607458218958760d88708821a08c88a09d8a90ada880a821810c88a0ad88a08821b18c8b808821b287bb77bb9087bba107bb8188210588215508216489511603200009511a07b10587b15507b1648828a18828b10828c088286d4ac08d4b609d48909989920d4b808978820d498087b172852081b029567207b1730d86707c87c087b18407b1c08d8c805da7705c8b5057b1b10d8b5077b1a18c8a7077b17387b1683673308203306205020b600f6c678761f8218306486d45808821940821b38d4b909d498089888207b1520d45909979920d4980846171e46171d46171c46171b46171a46171946171846171746171646171546171446171346171246171146171046170f46170e46170d46170c46170b46170a461709461708461707461706461705461704461703461702461701460752085b01836533082064575020b80063c646171f1f46171e46171d46171c46171b46171a46171946171846171746171646171546171446171346171246171146171046170f46170e46170d46170c46170b46170a461709461708461707461706461705461704461703461702461701821820821938d498081409e0ffffff00000000d89609821a4094a9948946075109cd008357203308205020ba00d6c546171c7046171b6d461717624617136e4617126e46171e7946170e7946171a654617186546170b6546171d744617157446170a744617116146170d61461709614617086746171f461719204617162046170f20461707204617063a46170c77461705774617146f4617046f461703724617106346170263461701734607458218958760d88708821a08c88a09d8a90ada880a821810c88a0ad88a08821b18c8b808821b287bb77bb9087bba107bb8188210588215508216489511603200009511a07b10587b15507b1648828a18828b10828c088286d4ac08d4b609d48909989920d4b808978820d498087b17205208ba029567207b1740d86707c87c087b18387b1c08d8c805da7705c8b5057b1b10d8b5077b1a18c8a7077b17307b1683673308203306205020bc00abc478761f821840d45808821938821a30d4a909d49808988820d45909979920d4980846171e46171d46171c46171b46171a46171946171846171746171646171546171446171346171246171146171046170f46170e46170d46170c46170b46170a46170946170846170746170646170546170446170346170246170146075208ff0182164083673308207b17285020be0019c446171f2d46171e46171d46171c46171b46171a46171946171846171746171646171546171446171346171246171146171046170f46170e46170d46170c46170b46170a461709461708461707461706461705461704461703461702461701821830d4850a140500000000010000001408e0ffffff00000000d8860882193894987b1a3094a84607510863018217288377203308205020c0007fc346171e6246171a6e4617196e4617136e4617116946170e7946171c7446170a74461712674617086746171f6546171d204617162046170f20461707204617063a46170c77461705774617176346170263460745330b6f787b1b9558c0821940d88908330c61787c188219389498330672787615461714658219309498330573787510787c0d46170b65787c09787b047876037875015108bb008217288377403308205020c200d7c246171f46171e46171d46171c46171b46171a46171946171846171746171646171546171446171346171246171146171046170f46170e46170d78750c78750b46170a65787609461708644617076446170661461705204617046f787603461702654617017a460720821895878000d88708821a08c88a09d8a90ada880a821810c88a0ad88a08821b18c8b808821b207bb77bb9087bba107bb818821058821550821648951160320000951120ff7b10d8007b15d0007b16c8009515e0008411e0828218828c10828b828608d42c0888ba20946a948a520a47038298187b18508298107b18408298087b185882987b18208278187b188278107b18088278087b181082777b171833082033077b12287b1c487b16387b1b305020c400bac182186f888219086f99821a106faa821b186fbb98bc38787c1f98bc30787c1e98bc28787c1d98bc20787c1c98bc18787c1b98bc10787c1a98bc08787c19787b18787a1098ab38787b1798ab30787b1698ab28787b1598ab20787b1498ab18787b1398ab10787b1298aa08787a11787908989a38787a0f989a30787a0e989a28787a0d989a20787a0c989a18787a0b989a10787a0a989908787909787898893878790798893078790698892878790598892078790498891878790398891078790298880878780133082033075020c600e9c083778319a0003308200a090182192095981fd898076493821b58c87b0ad8ba0964b2da7709821640c869097b191897993b98ab05d4b90997aa3b988805d4a80c8838209428821ab8008213b000821750d4760b94b86fab6f369489948cc8bc0c7b1c58d8bc0cc8c60ac89a02d3620ad86200daac0082173095741fd87407821938c8790ad89a0cda770c821748c87c0c97c73b98a905d4970797aa3b984905d4a909c89b04d8b409c8960ac87a03d36307d8630ada790a821b18821740d87b07821950c8970798b905977b3bd4b909987705821ba8008216a000948994876fb86f6b7b1b50c8b707c88909d88906c86707c8090bd89b06c87606821748d87c07821928c8970798cc0597793bd4c909821c58987705c88909c8a900d88908d89009821a50c8a707c88707c8970ad33207d83208d84c09db7809d80b07d3a6087b1a40d8a60ada870ad30b07d48707db7a095109dd0064b77b14387b13307b1028017b17487b12507b1c587b1790007b1288007b1c80007b1698004921b8004921b0004921a8004921a0004811602083188000831aa000831b603309ff33070a087b1698008217487b1790008217507b1788008217587b1780004921b8004921b0004921a8004921a00083188000831aa0003309ff330b2033070a1001821028821330821438821250821c5895cc0188c701c87202d42c07887701821848c88707d88708c88606d84c08d33209d8320ada980ad80708821b40d3b609d8b60bda980bd30708d49808da8a0b520b37ff955120ff8210d8008215d0008216c8009511e0003200951140fd7b10b8027b15b0027b16a8029515c0028411e0828a10828918828b08828c7b1998007b1b8800d49b08d4ac09d489099899207b1a9000d4a808978820d49808520897108278187b18408278107b18588278087b184882777b17507b1c800083c73308207b17185020c80035be7c78097c79087c7a0a7c7b0b978808d4980897aa1097bb18d4ba0ad4a8087c790d7c7a0c7c7b0e7c7c0f979908d4a90997bb1097cc18d4cb0bd4b909979920d489027c78017c797c7a027c7b03978808d4980897aa1097bb18d4ba0ad4a8087c79057c7a047c7b067c7c07979908d4a90997bb1097cc18d4cb0bd4b909979920d489067c78117c79107c7a127c7b13978808d4980897aa1097bb18d4ba0ad4a8087c79157c7a147c7b167c7c17979908d4a90997bb1097cc18d4cb0bd4b909979920d498087b18606f887b16686f6a7b12706f297b19307b1a28d4a9097b18388888017b19d80094985108820f7c78187b18b8007c78197b18787c781a7b18a8007c781b7b18a0007c781c7b18d0007c781d7b18b0007c781e7b18c8007c771f7b17c00048214002208217587b1770028217487b1768028217507b1760028216407b1678024921980249219002492188024921800283186002831a8002831b40023309ff33070a0801821790028218880282198002821a9802977b3f988c01d4cb0b97ac3f9877016464d4c70697883f989c01d4c80898ac018499019a97889201848a7fd26703d27b0bdb980ad2c70888a72094b7d483099497ab72f60e8217789777088219b800d497078219a800979910821ca00097cc18d4c909d497078219b000979908821cd000d4c909821cc80097cc108216c000976618d46c0cd4c909979920d497077b17d0006f777b17207b17e0017b1a00028217507b1720028217387b17e8017b1b08028217487b1728028217307b17f0017b1310028217587b1730028216287b16f8017b18180295172002951800029519e0017b1438025020ca00a9f9821a208219388e9788a820858801db97088217308e778e69da67098217d800da7809821b40821c588216505109d50484aae07b1a1833082033075020cc0091bb8218406f888219586f99821a486faa6f6b98bc38787c1f98bc30787c1e98bc28787c1d98bc20787c1c98bc18787c1b98bc10787c1a98bc08787c19787b18787a1098ab38787b1798ab30787b1698ab28787b1598ab20787b1498ab18787b1398ab10787b1298aa08787a11787908989a38787a0f989a30787a0e989a28787a0d989a20787a0c989a18787a0b989a10787a0a989908787909787898893878790798893078790698892878790598892078790498891878790398891078790298880878780133082033075020ce00c2ba8377831980023308200a0901821780028218880282199002821a98026f777b17d0006f826f977b17d8006fa77b17c0008217185107cf074921b0004921b8004921a80082108000950620d8060782148800c87409d8490ada770a82139000c83a0ad83a077b12c80082129800c872028eab8e2cda2b0c140b00000000010000006468e4b607dacb06da9b08db9807d42a08db8607649b93cbda890b64a89328da2a088549ffc89b0b850affc8a707d8a70ac8ab0bd39b0cd89b09daca09853cff7b1c78c88c0cc89c0697683b98b905d4980897bb3b987705d4b7097b19a000821b1888b7019a7a97703b95bbff98bb05c90b07d3a804d8a80bd87903db4b0382199800859bffc8b202821978d89c0bc82b0bd8c60cc8cb0b98660597bc3bd46c0c98bb0598a605c90602d82c09d36b04d86b00da4900d32c09d44909da93008219a000da0709da0a08da060bda020c98c73b97bb05d47b02821bb00098873b97cc05d47c04821cb800989a3b978805d4a807979305953a407b1a78d83a0a8216a800c8a7087b1870d87808daaa08c848087b1868d84808c828087b1860330920821ac800017b16a8007b1ac80082178000c897077b19a000d8970882198800c8b909c88909d3b90a7b1bb000d8b90bdaa80b82189000c8c8087b1cb800d8c80a821c9800c86c0cc8ca0ac88b0bd88b08c8a808d49808d4b709d48909d4b808989920978820d498085208ef0a83773308205020d000abb87c78017c797c7a027c7b03978808d4980897aa1097bb18d4ba0ad4a8087c79057c7a047c7b067c7c07979908d4a90997bb1097cc18d4cb0bd4b909979920d489027c79097c7a087c7b0a7c7c0b979908d4a90997bb1097cc18d4cb0bd4b9097c7a0d7c7b0c7c7c0e7c760f97aa08d4ba0a97cc10976618d46c0cd4ca0a97aa20d4a9097c7a117c7b107c7c127c761397aa08d4ba0a97cc10976618d46c0cd4ca0a7c7b157c7c147c76167c781797bb08d4cb0b976610978818d46808d4b808978820d48a0a7c78197c7b187c7c1a7c761b978808d4b80897cc10976618d46c0cd4c8087c7b1d7c7c1c7c761e7c771f97bb08d4cb0b976610977718d46707d4b707977720d487076f776fa86f996f2a821bd0007b1b7802821bc8007b1b7002821bd8007b1b68028216c0007b1660027b1a98027b1990027b1888027b17800283186002831a80023309ff330b2033070a10019566018867018218d800c878087b16c0007b18d800d486078877018218c800c87802d882098217a000957820d87807821ab000c87a04d8a40ada770a821bb800c8ab07d8b70a8216a800c8a606821a68d37a0a821b78d38b0bd4ba0a821b60d36b0b821c70d3c40cd4cb0bd4ba03821ad000c89a0a7b1ad0006489644b647c642a5203bbfd281c04821768821860d487078218708219d000d49808d4870751079b088217980082189000d487071408e0ffffff0000000082198000d8890882198800949894785108c8088217188377203308205020d20080b67c78197c79187c7a1a7c7b1b978808d4980897aa1097bb18d4ba0ad4a8087c791d7c7a1c7c7b1e7c7c1f979908d4a90997bb1097cc18d4cb0bd4b909979920d489027c78117c79107c7a127c7b13978808d4980897aa1097bb18d4ba0ad4a8087c79157c7a147c7b167c7c17979908d4a90997bb1097cc18d4cb0bd4b909979920d498087b18d8007c78097c7a087c7b0a7c7c0b978808d4a80897bb1097cc18d4cb0bd4b8087c7a0d7c7b0c7c7c0e7c760f97aa08d4ba0a97cc10976618d46c0cd4ca0a97aa20d4a8087b18d0007c78017c7b7c7c027c7603978808d4b80897cc10976618d46c0cd4c8087c7b057c7c047c76067c770797bb08d4cb0b976610977718d46707d4b707977720d487004621df014621de014621dd014621dc014621db014621da014621d9014621d8014621d7014621d6014621d5014621d4014621d3014621d2014621d1014621d0014621cf014621ce014621cd014621cc014621cb014621ca014621c9014621c8014621c7014621c6014621c5014621c4014621c3014621c2014621c1014621c0014621bf01ff004621be01ff004621bd01ff004621bb01ff004621b801ff4621b701ff004621b601ff004621b501ff004621b301ff004621b001ff4621af01ff004621ae01ff004621ad01ff004621ab01ff004621a801ff4621a701ff004621a601ff004621a501ff004621a301ff004621a001ff1408ffffffff000000007818bc01140cffffffffffff0000781cba01140bffffffffffffff00781bb9017818b401781cb201781bb1017818ac01781caa01781ba9017818a401781ca201781ba101821420844b1f9518a001c88b0b7cb8197cbc187cb61a7cb91b978808d4c808976610979918d46909d498087cb91d7cbc1c7cb61e7cba1f979908d4c90997661097aa18d46a0ad4a909979920d489037cb8117cb9107cba127cb613978808d4980897aa10976618d46a0ad4a8087cb9157cba147cb6167cb717979908d4a909976610977718d46707d49707977720d487067cb7097cb8087cb90a7cba0b977708d4870797991097aa18d4a909d4790c7cb80d7cb90c7cba0e7cb70f978808d4980897aa10977718d4a707d48707977720d4c7087cb7017cb97cba027cbc03977708d4970797aa1097cc18d4ca0ad4a7077cb9057cba047cbc067cbb07979908d4a90997cc1097bb18d4cb0bd4b909979920d497076f29e079028217d8006f77e087096f078218d0006f88e06808e03707984b3f821a3897ac01d4cb0b98ac3f821a3097a601d46c0c98a63f821a2897aa01d46a0ad4a703d4c808d4b909974a01d4a20a821b40821c5882165028ac043304330633082001821c20821918d3c909821a30d4a909821a38821b28d4ba0ad4a909510925047b12c80082198000c88909d8890a821b8800c84b0bc8ab0bd34b0cd84b08daca08821a9000c87a0ac8a808d8a80cd87a07821a9800c86a0ac8a707c8c707d4890ad4b707d47a0a98aa20d48707977720d4a70752077b0483973308205020d40037b27c78197c79187c7a1a7c7b1b978808d4980897aa1097bb18d4ba0ad4a8087c791d7c7a1c7c7b1e7c7c1f979908d4a90997bb1097cc18d4cb0bd4b909979920d498087b18b8007c78117c79107c7a127c7b13978808d4980897aa1097bb18d4ba0ad4a8087c79157c7a147c7b167c7c17979908d4a90997bb1097cc18d4cb0bd4b909979920d489037c78097c7a087c7b0a7c7c0b978808d4a80897bb1097cc18d4cb0bd4b8087c7a0d7c7b0c7c7c0e7c760f97aa08d4ba0a97cc10976618d46c0cd4ca0a97aa20d48a047c78017c7b7c7c027c7603978808d4b80897cc10976618d46c0cd4c8087c7b057c7c047c76067c770797bb08d4cb0b976610977718d46707d4b707977720d4870046219f0146219e0146219d0146219c0146219b0146219a014621990146219801462197014621960146219501462194014621930146219201462191014621900146218f0146218e0146218d0146218c0146218b0146218a014621890146218801462187014621860146218501462184014621830146218201462181014621800146217f01ff0046217e01ff0046217d01ff0046217b01ff0046217801ff46217701ff0046217601ff0046217501ff0046217301ff0046217001ff46216f01ff0046216e01ff0046216d01ff0046216b01ff0046216801ff46216701ff0046216601ff0046216501ff0046216301ff0046216001ff1408ffffffff0000000078187c01140cffffffffffff0000781c7a01140bffffffffffffff00781b790178187401781c7201781b710178186c01781c6a01781b690178186401781c6201781b6101821b2084bb1f95186001c88b0b7cb8197cbc187cb61a7cb91b978808d4c808976610979918d46909d498087cb91d7cbc1c7cb61e7cba1f979908d4c90997661097aa18d46a0ad4a909979920d489027cb8117cb9107cba127cb613978808d4980897aa10976618d46a0ad4a8087cb9157cba147cb6167cb717979908d4a909976610977718d46707d49707977720d487067cb7097cb8087cb90a7cba0b977708d4870797991097aa18d4a909d4790c7cb80d7cb90c7cba0e7cb70f978808d4980897aa10977718d4a707d48707977720d4c7087cb7017cb97cba027cbc03977708d4970797aa1097cc18d4ca0ad4a7077cb9057cba047cbc067cbb07979908d4a90997cc1097bb18d4cb0bd4b909979920d497078219b8006f99e079076f39e089086f49e069096f0ae02a0a821bd0007b1b7802821bc8007b1b7002821bd8007b1b6802821bc0007b1b60027b1a98027b1990027b1888027b17800283186002831a80023309ff330b2033070a10821c200182193098973f821828978801d48707821a3898a83f979901d4980898c93f97aa01d4a90997ca0195aa01821b487b1b6802821b507b1b6002821b587b1b7002821b407b1b78027b1a80027b1988027b1890027b179802282f330a330933083303018217487b1768027b1660027b1c70027b1b78027b1a80027b1988027b1890027b1398020183186002831a80023309ff330b2033070a10955140fd8210b8028215b0028216a8029511c002320000492110014921080149210001140700000000717b484e951800017b17180133075020d60054ae4921f8004921f0004921e000413307049518e0004921e8003300da002832ae492150014921480149214001140700000000717b484e951840017b17580133075020d8000fae4921380149213001492120012233070495182001492128015020da00f1ad33082433075020dc0036ad83783307013309243300de000a0e019511b07b10487b15409515508411f08272827308827b10827718828c828908828a108288187b18187b1a107b19087b1c7b17387b1b307b132895172064187b12205020e00041ee9551b082104882154095115032007b16089767209877208218d0008219d800d49808d48707510721061406ffffffff000000008217c0008477ff8218c8008488ff8219b800d26909d49808d48707510703088217a80082189800d487078218a00082199000d49808d487078219b0005107ed097b16821a8000d4a90782188800821b78d4b808d48707987720d4a808978820d4870751070628331083973308205020e2003aac7c78117c79107c7a127c7b13978808d4980897aa1097bb18d4ba0ad48a027c78017c797c7a027c7b03978808d4980897aa1097bb18d4ab09d489037c78157c7a147c7b167c7c17978808d4a80897bb1097cc18d4bc0ad48a047c78057c7b047c7c067c7607978808d4b80897cc10976618d4c60bd48b007c78197c7c187c761a7c791b978808d4c808976610979918d46909d4890c7c78097c79087c760a7c7a0b978808d4980897661097aa18d46a0ad4a8087c791d7c7a1c7c761e7c7b1f979908d4a90997661097bb18d46b0bd4b9097c7a0d7c7b0c7c760e7c770f97aa08d4ba0a976610977718d46707d4a707d49707977720d4c808d48707d44008978820d42309d49808d487075107b70a8217608478ff8217688477ff821970821ad2a9097b17707b1960d497077b1868d4870751079b0c330780003308205020e400f8aa8218106f888219086f99821ad0006faa821bd8006fbb787b1898bc38787c1f98bc30787c1e98bc28787c1d98bc20787c1c98bc18787c1b98bc10787c1a98bb08787b19787a1098ab38787b1798ab30787b1698ab28787b1598ab20787b1498ab18787b1398ab10787b1298aa08787a11787908989a38787a0f989a30787a0e989a28787a0d989a20787a0c989a18787a0b989a10787a0a98990878790978789889387879079889307879069889287879059889207879049889187879039889107879029888087878013307a0003308205020e60022aa8218186f888219206f99821a286faa821b306fbb98bc38787c1f98bc30787c1e98bc28787c1d98bc20787c1c98bc18787c1b98bc10787c1a98bc08787c19787b1898ab38787b1798ab30787b1698ab28787b1598ab20787b1498ab18787b1398ab10787b1298ab08787b11787a10989a38787a0f989a30787a0e989a28787a0d989a20787a0c989a18787a0b989a10787a0a989a08787a0978790898893878790798893078790698892878790598892078790498891878790398891078790298890878790178783307c0003308205020e8004ea98218386f888219b8006f99821ac0006faa821bc8006fbb98bc38787c1f98bc30787c1e98bc28787c1d98bc20787c1c98bc18787c1b98bc10787c1a98bc08787c19787b1898ab38787b1798ab30787b1698ab28787b1598ab20787b1498ab18787b1398ab10787b1298ab08787b11787a10989a38787a0f989a30787a0e989a28787a0d989a20787a0c989a18787a0b989a10787a0a989a08787a0978790898893878790798893078790698892878790598892078790498891878790398891078790298890878790178783307e0003308205020ea0077a8821890006f88821998006f99821aa0006faa821ba8006fbb98bc38787c1f98bc30787c1e98bc28787c1d98bc20787c1c98bc18787c1b98bc10787c1a98bc08787c19787b1898ab38787b1798ab30787b1698ab28787b1598ab20787b1498ab18787b1398ab10787b1298ab08787b11787a10989a38787a0f989a30787a0e989a28787a0d989a20787a0c989a18787a0b989a10787a0a989a08787a0978790898893878790798893078790698892878790598892078790498891878790398891078790298890878790178788217787b177802821780007b177002821788007b1768028217b0007b176002492198024921900249218802951780029518600249218002015020ec00cfe84921d8024921d0024921c8023306027b16c0024921f8024921f0024921e8024921e0024821a002208318c002831ae002831ba0023309ff33070a088017f4029777208218f802821960d497074921d8024921d0024921c8027b16c0027b18f8027b17f0028217687b17e8028217707b17e0028318c002831ae0023309ff330b2033070a108217407b1738028217487b1730028217507b1728028217587b1720024921580249215002492148029517400295182002492140025020ee0011e89551e0fc8210180382151003821608039511200332003307403308205020f0008ea67c78117c79107c7a127c7b13978808d4980897aa1097bb18d4ba0ad4a8087c79157c7a147c7b167c7c17979908d4a90997bb1097cc18d4cb0bd4b909979920d489027c79017c7a7c7b027c7c03979908d4a90997bb1097cc18d4cb0bd4b9097c7a057c7b047c7c067c760797aa08d4ba0a97cc10976618d46c0cd4ca0a97aa20d4a9097c7a197c7b187c7c1a7c761b97aa08d4ba0a97cc10976618d46c0cd4ca0a7c7b1d7c7c1c7c761e7c781f97bb08d4cb0b976610978818d46808d4b808978820d48a0a7c78097c7b087c7c0a7c760b978808d4b80897cc10976618d46c0cd4c8087c7b0d7c7c0c7c760e7c770f97bb08d4cb0b976610977718d46707d4b707977720d487076f766fa86f996f277b17d8007b19d000d497076489d46808d47808988820d46707977720d4870752074b097b19c80083973308207b17c0005020f20049a546171f46171e46171d46171c46171b46171a46171946171846171746171646171546171446171346171246171146171046170f46170e46170d46170c46170b46170a461709461708461707461706461705461704461703a00046170279461701c3004607088218c800958704d88708821ad800c88a09d8a90ada880ac86a0ad86a08821bd000c88b0b7b19e8007b17e0007b1af000951700019518e0007b1bf8005020f40068d6821708018212180182130001821a1001282d083307403308205020f60083a47c78117c79107c7a127c7b13978808d4980897aa1097bb18d4ba0ad4a8087c79157c7a147c7b167c7c17979908d4a90997bb1097cc18d4cb0bd4b909979920d489027c79017c7a7c7b027c7c03979908d4a90997bb1097cc18d4cb0bd4b9097c7a057c7b047c7c067c760797aa08d4ba0a97cc10976618d46c0cd4ca0a97aa20d4a9097c7a197c7b187c7c1a7c761b97aa08d4ba0a97cc10976618d46c0cd4ca0a7c7b1d7c7c1c7c761e7c781f97bb08d4cb0b976610978818d46808d4b808978820d48a0a7c78097c7b087c7c0a7c760b978808d4b80897cc10976618d46c0cd4c8087c7b0d7c7c0c7c760e7c770f97bb08d4cb0b976610977718d46707d4b707977720d487076f766fa86f996f277b17d8007b19d000d497076489d46808d47808988820d46707977720d48707520740077b19c80083973308207b17c0005020f8003ea346171f46171e46171d46171c46171b46171a46171946171846171746171646171546171446171346171246171146171046170f46170e46170d46170c46170b46170a461709461708461707461706461705461704461703a00046170279461701c3004607088218c800958704d88708821ad800c88a09d8a90ada880ac86a0ad86a08821bd000c88b0b7b1928017b1720017b1a300195174001951820017b1b38015020fa00aad6821748018212580182134001821a50012822063307403308205020fc0078a27c78117c79107c7a127c7b13978808d4980897aa1097bb18d4ba0ad4a8087c79157c7a147c7b167c7c17979908d4a90997bb1097cc18d4cb0bd4b909979920d489027c79017c7a7c7b027c7c03979908d4a90997bb1097cc18d4cb0bd4b9097c7a057c7b047c7c067c760797aa08d4ba0a97cc10976618d46c0cd4ca0a97aa20d4a9097c7a197c7b187c7c1a7c761b97aa08d4ba0a97cc10976618d46c0cd4ca0a7c7b1d7c7c1c7c761e7c781f97bb08d4cb0b976610978818d46808d4b808978820d48a0a7c78097c7b087c7c0a7c760b978808d4b80897cc10976618d46c0cd4c8087c7b0d7c7c0c7c760e7c770f97bb08d4cb0b976610977718d46707d4b707977720d487076f766fa86f996f277b17d8007b19d000d497076489d46808d47808988820d46707977720d48707520735057b19c80083973308207b17c0005020fe0033a146171f46171e46171d46171c46171b46171a46171946171846171746171646171546171446171346171246171146171046170f46170e46170d46170c46170b46170a461709461708461707461706461705461704461703a00046170279461701c3004607088218c800958704d88708821ad800c88a09d8a90ada880ac86a0ad86a08821bd000c88b0b7b1968017b1760017b1a700195178001951860017b1b780150200001ecd6821788018212980182138001821a9001281704330740330820502002016da07c78117c79107c7a127c7b13978808d4980897aa1097bb18d4ba0ad4a8087c79157c7a147c7b167c7c17979908d4a90997bb1097cc18d4cb0bd4b909979920d489027c79017c7a7c7b027c7c03979908d4a90997bb1097cc18d4cb0bd4b9097c7a057c7b047c7c067c760797aa08d4ba0a97cc10976618d46c0cd4ca0a97aa20d4a9097c7a197c7b187c7c1a7c761b97aa08d4ba0a97cc10976618d46c0cd4ca0a7c7b1d7c7c1c7c761e7c781f97bb08d4cb0b976610978818d46808d4b808978820d48a0a7c78097c7b087c7c0a7c760b978808d4b80897cc10976618d46c0cd4c8087c7b0d7c7c0c7c760e7c770f97bb08d4cb0b976610977718d46707d4b707977720d487076f766fa86f996f277b17d8007b19d000d497076489d46808d47808988820d46707977720d4870752072a037b19c80083973308207b17c00050200401289f46171f46171e46171d46171c46171b46171a46171946171846171746171646171546171446171346171246171146171046170f46170e46170d46170c46170b46170a461709461708461707461706461705461704461703a00046170279461701c3004607088218c800958704d88708821ad800c88a09d8a90ada880ac86a0ad86a08821bd000c88b0b7b19a8017b17a0017b1ab0019517c0019518a0017b1bb8015020060124d78217c8018212d8018213c001821ad001280c0233074033082050200801629e7c78117c79107c7a127c7b13978808d4980897aa1097bb18d4ba0ad4a8087c79157c7a147c7b167c7c17979908d4a90997bb1097cc18d4cb0bd4b909979920d489027c79017c7a7c7b027c7c03979908d4a90997bb1097cc18d4cb0bd4b9097c7a057c7b047c7c067c760797aa08d4ba0a97cc10976618d46c0cd4ca0a97aa20d4a9097c7a197c7b187c7c1a7c761b97aa08d4ba0a97cc10976618d46c0cd4ca0a7c7b1d7c7c1c7c761e7c781f97bb08d4cb0b976610978818d46808d4b808978820d48a0a7c78097c7b087c7c0a7c760b978808d4b80897cc10976618d46c0cd4c8087c7b0d7c7c0c7c760e7c770f97bb08d4cb0b976610977718d46707d4b707977720d487076f766fa86f996f277b17d8007b19d000d497076489d46808d47808988820d46707977720d4870752071f017b19c80083973308207b17c00050200a011d9d46171f46171e46171d46171c46171b46171a46171946171846171746171646171546171446171346171246171146171046170f46170e46170d46170c46170b46170a461709461708461707461706461705461704461703a00046170279461701c3004607088218c800958704d88708821ad800c88a09d8a90ada880ac86a0ad86a08821bd000c88b0b7b19e8017b17e0017b1af001951700029518e0017b1bf80150200c0164d7821708028212180282130002821a1002018218d800d3870bd8870c64848219c800d89308dab80cc96a0bd86a0a8216d000c96206c9a606d8cb0ac9a606c9cb0bc94707c98708c99307d46808d4b709d48909d4b808989920978820d498085108040083768217c000646850200e01069c83783307016469330010010a0e0180881c4917184917104917087b783200821730821838821928821a20d49808d4a707d487075207870139077800025417037e01330670000239077000025107237b17183307800003837783680a070139077000022003700002821818ac874f013a08d000037b18083a08c800037b18103a07c000037b171833074033082050201201749b7c78117c79107c7a127c7b13978808d4980897aa1097bb18d4ba0ad4a8087c79157c7a147c7b167c7c17979908d4a90997bb1097cc18d4cb0bd4b909979920d489027c79017c7a7c7b027c7c03979908d4a90997bb1097cc18d4cb0bd4b9097c7a057c7b047c7c067c760797aa08d4ba0a97cc10976618d46c0cd4ca0a97aa20d4a9097c7a197c7b187c7c1a7c761b97aa08d4ba0a97cc10976618d46c0cd4ca0a7c7b1d7c7c1c7c761e7c781f97bb08d4cb0b976610978818d46808d4b808978820d48a0a7c78097c7b087c7c0a7c760b978808d4b80897cc10976618d46c0cd4c8087c7b0d7c7c0c7c760e7c770f97bb08d4cb0b976610977718d46707d4b707977720d487076f786fa76f996f2ad4a909d4870ad49a0a98aa20d49808978820d4a808510818003307330850201401429a837833070133090a0e0182180897882098862083777b170833082050201601219a6f688219106f99821a186faa98ab38787b1f98ab30787b1e98ab28787b1d98ab20787b1c98ab18787b1b98ab10787b1a98ab08787b19787a1878791046170b46170a4617094617074617064617054617044617034617024617014607989a38787a17989a30787a16989a28787a15989a20787a14989a18787a13989a10787a1298990878791178780898893878790f98893078790e98892878790d98882078780c3308208217085020180174998378330920330733001a010a0e019511b07b10487b15409515508411f0491130491128491120140700000000717b484e9518207b1738330750201c01e6994911184911104911083307046418490150201e01d09933082433075020200115998378330701330924330022010a0e019511a0fe7b1058017b1550017b164801951560018411e07b17088297187b17b0008297107b17a8008297087b17a00082977b17b800828b18828a1082890882877b1b187b1b18017b1a207b1a10017b19687b1908017b17707b17000149213801492130014921280149212001482140012083180001831a2001831b40013309ff33070a0801821230018213280182143801821c200197273f983801d4870797483f982901d4980897393f98ca01d49a0b9849017b1c7884cc019aca84b07fd2a808d27a06dac00bd2a9097b1b5888b7207b164894677b18507b1940d49808948788c801ab7835067b1c98007b10107b1380007b1288007b1490008217b8008219a800d497078218b000821aa000d4a808d48707987720d49808978820d487075207f8058216b800836733082050202401d4978218406f888219586f99989a38787a1f989a30787a1e989a28787a1d989a20787a1c989a18787a1b989a10787a1a989a08787a19821a486faa78791898a93878791798a93078791698a92878791598a92078791498a91878791398a9107879128219506f99787a1098aa08787a11787908989a38787a0f989a30787a0e989a28787a0d989a20787a0c989a18787a0b989a10787a0a98990878790978789889387879079889307879069889287879059889207879049889187879039889107879029888087878019567207b1760d86707821aa000c87a087b1828d8a808da77088217a800c878087b1830d878078218b000c887077b173882179800520712018217b0008218a800d487071408e0ffffff000000008219b800d8890894a894785108c604821778847600ff811760330820502026019e96330233034921b0006f6a98ab30787b1e98ab28787b1d98ab20787b1c98ab18787b1b98ab10787b1a821880006f8b787a1898aa08787a1998ba38787a1798ba30787a1698ba28787a1598ba20787a1498ba18787a1398ba10787a12821888006f8a787b1098bb08787b1198ab38787b0f98ab30787b0e98ab28787b0d98ab20787b0c98ab18787b0b98ab10787b0a821890006f8b46171f787a0898aa08787a09787b98ba38787a0798ba30787a0698ba28787a0598ba20787a0498ba18787a0398ba10787a0298bb08787b018217108e77977005287d03330820330750202801bc958218186f888219206f99821a686faa821b706fbb98bc38787c1f98bc30787c1e98bc28787c1d98bc20787c1c98bc18787c1b98bc10787c1a98bc08787c19787b18787a1098ab38787b1798ab30787b1698ab28787b1598ab20787b1498ab18787b1398ab10787b1298aa08787a11787908989a38787a0f989a30787a0e989a28787a0d989a20787a0c989a18787a0b989a10787a0a9899087879097878988938787907988930787906988928787905988920787904988918787903988910787902988808787801330820330750202a01ea948377831920013308200a09018217788877028218800094878218900082198800d4980894875107103300330233034921b000286b024921a8004921a00033064921b000821720018218280182193001821a38016f776f8c6f986fa4831a00017b1a20831a20017b1a18831a40017b1a10017b1c88007b1c10017b18b8007b1808017b1490007b1400017b1798007b1718014921380149213001492128014921200148214001203309ff3307821820821a18821b100a08018217608218a800c88707d88708821928821ba000c8b909c88909d3b90ad8b90bdaa80b821830c868087b168000d8680a821c388216b000c86c0cc8ca0ac88b0bd88b08c8a808d49808d4b709d48909d4b808989920978820d498085208e901821838017b1870821830017b1878821828017b186882162001837733082050202c01b0936f6898893878791f98893078791e98892878791d98892078791c98891878791b98891078791a9889087879198219686f997878189898387878179898307878169898287878159898207878149898187878139898107878128218706f88821a786faa787910989908787911787a0898a93878790f98a93078790e98a92878790d98a92078790c98a91878790b98a91078790a98aa08787a097878988938787907988930787906988928787905988920787904988918787903988910787902988808787801821490009544018847018218b800c878087b18b8008217a800957020d870098217a000c89702d8720ada990a82178000c8a703d8730a821cb000c8ac0c821850d883077b17a800821958d8900b821948d39206d8920ada6b0a821940d39c077b1cb000d89c068219a800da7906d3830b8218b800d4b707d4840c88cc01821b8800c8bc0cd8bc0bdb760a82179800c8b7077b10a8007b12a0006436520ad8fd821a60c80a0ad80a07821b28c82b0bc87b0bd32b0cd82b08dac708821730c83707c87808d8780cd837078219388216b000c86909c89707c8c7078219087b9a7b9b087b98107b97189551a0fe821058018215500182164801951160013200004921f0004921e8004921e000140700000000717b484e9518e0007b17f800330750202e0178924921d8004921d0004921c000223307049518c0004921c800502030015a923308243307502032019f918378330701330924330034010a0e019511807b10787b15707b1668951580008411f08282828308828410828818829a829b08829c1082991864767b19187b1c107b1b087b1a7b18387b14307b132895174095182064197b12205020360140f8821750821858821940821a487b67107b68187b697b6a08955180821078821570821668951180003200951100ff7b10f8007b15f0007b16e800951500018411f082897b19208289087b19108289107b19088288187b187b171833074033082050203801db907c78017c797c7a027c7b03978808d4980897aa1097bb18d4ba0ad4a8087c79057c7a047c7b067c7c07979908d4a90997bb1097cc18d4cb0bd4b909979920d489027c79097c7a087c7b0a7c7c0b979908d4a90997bb1097cc18d4cb0bd4b9097c7a0d7c7b0c7c7c0e7c760f97aa08d4ba0a97cc10976618d46c0cd4ca0a97aa20d4a9097c7a117c7b107c7c127c761397aa08d4ba0a97cc10976618d46c0cd4ca0a7c7b157c7c147c76167c781797bb08d4cb0b976610978818d46808d4b808978820d48a0a7c78197c7b187c7c1a7c761b978808d4b80897cc10976618d46c0cd4c8087c7b1d7c7c1c7c761e7c771f97bb08d4cb0b976610977718d46707d4b707977720d487076f7b7b1b386fa66f997b19306f287b182882177b17b8008217087b17b0008217107b17a8008217207b17a0007b1898007b1990007b1688009517c0009518a000951980007b1b800050203a0186f66464821ac8008217d8007b1710821bc0008213d000d36a0cd86a08821938d89b06dac608c94a0ac96a0a7b1a08c99b0b95bc1fd8bc0bc8ba0a84cce0c84a07c8c9097b1920d8c90cc8c702d3a207d8a209da7c09821630c96307d8630c6463821028821610c90606c9c606d8870cc9c606c98707821808d88a08dabb08c87808d87807c8380ac89a0cd88a08d8ac09c80606c86707c88707c897068e678ec8db6708d46c078e29db780952093801643b821738821820d87807d34208d84209da8709d83c07d30608d8060ada870ad33c07d48707da790a520a0b013307403308207b14107b12087b1c50203c01978e6f6882196f99821a086faa821b206fbb787b1898bc38787c1f98bc30787c1e98bc28787c1d98bc20787c1c98bc18787c1b98bc10787c1a98bb08787b19787a1098ab38787b1798ab30787b1698ab28787b1598ab20787b1498ab18787b1398ab10787b1298aa08787a11787908989a38787a0f989a30787a0e989a28787a0d989a20787a0c989a18787a0b989a10787a0a98990878790978789889387879079889307879069889287879059889207879049889187879039889107879029888087878018217188218387b788218287b78188218107b78088218307b7810955100ff8210f8008215f0008216e800951100013200491170491168491160140700000000717b484e9518607b1778330750203e01338e49115849115049114041330704951840491148502040011a8e3308243307502042015f8d8378330701330924330044010a0e01951160ff7b1098007b1590007b1688009515a0008411f0829a10829b18829c088299d4cb0bd4a909d4b9095209536476828918828710828a0882887b187b1a087b171095172064187b191850204601eefb821730821838821920821a287b67107b68187b697b6a08955160ff8210980082159000821688009511a0003200491170491168491160140700000000717b484e9518607b1778330750204801618d49115849115049114833070495184049114050204a01498d330824330750204c018e8c837833070133092433004e010a0e019511a07b10587b15507b16489515608411f0647649111849111049010195172064184911085020500143fb821730821838821920821a287b67107b68187b697b6a089551a08210588215508216489511603200821710018218180182190801821a0001d49808d4a707d487075207ba023907780002541703b1024921d8004921d0004921c000019517e0009518c0004921c80050205201d5fa8217f8007b17408217f0007b17488217e8007b17508217e0007b175833074033082050205401be8b7c78117c79107c7a127c7b13978808d4980897aa1097bb18d4ba0ad4a8087c79157c7a147c7b167c7c17979908d4a90997bb1097cc18d4cb0bd4b909979920d489027c79017c7a7c7b027c7c03979908d4a90997bb1097cc18d4cb0bd4b9097c7a057c7b047c7c067c760797aa08d4ba0a97cc10976618d46c0cd4ca0a97aa20d4a9097c7a197c7b187c7c1a7c761b97aa08d4ba0a97cc10976618d46c0cd4ca0a7c7b1d7c7c1c7c761e7c781f97bb08d4cb0b976610978818d46808d4b808978820d48a0a7c78097c7b087c7c0a7c760b978808d4b80897cc10976618d46c0cd4c8087c7b0d7c7c0c7c760e7c770f97bb08d4cb0b976610977718d46707d4b707977720d487076f766faa6f9b6f29d4b907d46a08d47808988820d46707977720d487075207400195a7207b1718d8a707c879087b1808d89808da7708c868087b1810d86807c8b7077b172083a73308207b177b1a307b19287b1b38502056015c8a46171f2046171e46171d46171c46171b46171a46171946171846171746171646171546171446171346171246171146171046170f46170e46170d46170c46170b46170a46170946170846170746170646170546170446170346170246170146078217087b17688217187b17608217407b1798008217487b1790008217507b1788008217587b1780008217107b17709517a00095188000951960821a207b1a78502058018a0b8217a8008212b8008213a000821ab000821828d3870bd8870c6484821930d89308dab80cc96a0bd86a0a821638c96206c9a606d8cb0ac9a606c9cb0bc94707c98708c99307d46808d4b709d48909d4b808989920978820d49808510818003307330850205a014f89837833070133090a0e0183768217646850205c01398983783307646933005e010a0e019511c07b10387b15307b16289515408411e0828910828a18828b088288d4ba0ad4980bd4ab0b98bb20d4a909979920d4b9095209506476838883170a030182171082181814090000000001000000d37909d48909987a2088aa01948a939a510a258219821a087b697b6a087b67107b68189551c082103882153082162895114032000033073308502060019f8883783307013309330062010a0e019511807b10787b15707b1668951580008411e0828410828c0882920882867b1610829b7b1b18829010d3c20a7b1a38d8c20ad86b0b821338da3b0a64b38288187b18388298187b1820c94008c9a8097b1928d8a8097b1430d8400a821838821b20c98b08c9a808c99804c9c206c93609821210821818c9280a8e9b88aa2085aa01db9b0a8f498218288e8bdb490bd44808db8b0a510a726476821930d49207821838d4c808d48707987720d49808978820d4870752075183288317400a030182175082185814090000000001000000d37909d48909987a2088aa01948a939a510a27821948821a407b69087b6a7b67107b6818955180821078821570821668951180003200003307330850206401818783783307013309330066010a0e01828918828a10828b0882887b79187b7a107b7b087b783200821730821838821928821a20d49808d4a707d487075207880139077800025417237f018317403308040a030182175082185814090000000001000000d37909d48909987a2088aa01948a939a510a5101821948821a407b19087b1a7b171064177b181850206801b04e33074033082050206a01e6867c78117c79107c7a127c7b13978808d4980897aa1097bb18d4ba0ad4a8087c79157c7a147c7b167c7c17979908d4a90997bb1097cc18d4cb0bd4b909979920d489027c79017c7a7c7b027c7c03979908d4a90997bb1097cc18d4cb0bd4b9097c7a057c7b047c7c067c780797aa08d4ba0a97cc10978818d4c808d4a808978820d498037c78197c7a187c7b1a7c7c1b978808d4a80897bb1097cc18d4cb0bd4b8087c7a1d7c7b1c7c7c1e7c791f97aa08d4ba0a97cc10979918d4c909d4a909979920d4890a7c78097c79087c7b0a7c7c0b978808d4980897bb1097cc18d4cb0bd4b8087c790d7c7b0c7c7c0e7c770f979908d4b90997cc10977718d4c707d49707977720d487076f786fa76f396f2ad4a909d4870ad49a0a98aa20d49808978820d4a808510820003307330850206c01b485837833070133090a0e837733006e01289f85837750206e019a85837833073309330070010a0e01828918828a10828b0882887b79187b7a107b7b087b783200821730821838821928821a20d49808d4a707d487075207880139087800025418037f01491158491150491148491140034911784911704911684911604821800020831840831a60831b80003309ff33070a088217787b178217707b17088217687b17108217607b17183307403308205020720100857c78117c79107c7a127c7b13978808d4980897aa1097bb18d4ba0ad4a8087c79157c7a147c7b167c7c17979908d4a90997bb1097cc18d4cb0bd4b909979920d489027c79017c7a7c7b027c7c03979908d4a90997bb1097cc18d4cb0bd4b9097c7a057c7b047c7c067c760797aa08d4ba0a97cc10976618d46c0cd4ca0a97aa20d4a9097c7a197c7b187c7c1a7c761b97aa08d4ba0a97cc10976618d46c0cd4ca0a7c7b1d7c7c1c7c761e7c781f97bb08d4cb0b976610978818d46808d4b808978820d48a0a7c78097c7b087c7c0a7c760b978808d4b80897cc10976618d46c0cd4c8087c7b0d7c7c0c7c760e7c770f97bb08d4cb0b976610977718d46707d4b707977720d487076f786fa76f996f2ad4a909d4870ad49a0a98aa20d49808978820d4a808510818003307330850207401ce83837833070133090a0e018376330820646750207601b78382186f888219086f99821a106faa821b186fbb98bc38787c1f98bc30787c1e98bc28787c1d98bc20787c1c98bc18787c1b98bc10787c1a98bc08787c19787b18787a1098ab38787b1798ab30787b1698ab28787b1598ab20787b1498ab18787b1398ab10787b1298aa08787a11787908989a38787a0f989a30787a0e989a28787a0d989a20787a0c989a18787a0b989a10787a0a9899087879097878988938787907988930787906988928787905988920787904988918787903988910787902988808787801330820646750207801e6828378330920330733007a010a0e019511f87b103307330850207c01c9828378330701330933007e010a0e01951160ff7b1098007b1590007b1688009515a0008411e0828b829608828008829395ba1f7b1b58d8ba02c8200c7b1340d83a03d36c0a7b1648d86c0bdaa30b828410d80c0ada220a829218828318829610c84a0ad84a08c83808d32809d92808d86a0cda9c08d36a0ad4a909db980b510b19017b12287b16307b1738821758d447077b1318d43008d487079877207b1420d44808978820d487075207ed0064068118588317600a03018217788218708213687b1750d48707883a01947a510acb00821960821758957b20d87b07c876007b1b10c89b0b7b1958d89b02c8030cc82c0cd33c09d83c0ada920ad86009da7709821720c89704d87406821718c86707821648d36c09d8c60c821640d8b60bdb9c0bc84809d8890c8216507b1748c87606c86c0cc89a0ad89a09c8c909821628d3690cd89602821930d8a906dbc206d3a909d4c909db960b520b408219388217587b97208217107b977b93287b90087b98307b94108217507b97388217487b9718955160ff8210980082159000821688009511a0003200003307330850208001298183783307013309330082010a0e01951100fe7b10f8017b15f0017b16e801951500028411e0829608828408829c828a829210d3460bd84600d8ac03dab3007b1678c9460bc93b0b7b1c687b1a9800c9ac0c88cc4085cc018283108eb6dbb60c829b18828618c93208c90809d808007b1270d8320a64687b1b60c96b0bc9ab0bc90b0b8fb68e9adbb60ad4b909db9a0c510c4e02647682199800d439077b1490007b188000d48408d487079877207b138800d43808978820d487075207220283988317a0017b18580a03018212b8018218b0018219a801d4280a889b0194ab510bff01821aa001821b9800c8ab0bd8ab0a821c9000c89c0cc8ac0cd39c07d89c09da7a0982178800c88707c87909d8790ad8870782188000c88202c82707c87a0a8217687b1720018217787b1728017b1b40018217707b1730018217607b1738017b1c48017b1950019517600195184001951920017b1a58015020840116fd8217880082188000d487071408e0ffffff0000000082199800d88908821990009498947851085a01821798017b1738821790017b1718821788017b1740821780017b1720821778017b1748821770017b1728821768017b1750821760017b17308217588378208317c0010a03018212d8018218d0018219c801d4280a889b0194ab510bfe00821ac001821b9800c8ab0bd8ab0a821c9000c89c0cc8ac0cd39c07d89c09da7a0982178800c88707c87909d8790ad8870782188000c88202c82707c87a0a8217687b17a0008217787b17a8007b1bc0008217707b17b0008217607b17b8007b1cc8007b19d0009517e0009518c0009519a0007b1ad8005020860115fc8212e8008213e0008219f800821af000821b1001821c180182170001821808017b6b707b6c787b67607b68687b6a507b69587b63407b62488217187b67308217387b67388217207b67208217407b67288217287b67108217487b67188217307b678217507b6708955100fe8210f8018215f0018216e801951100023200003307330850208801427eff8378330701330933008a010a0e019511887b10707b15687b1660828c10828618828b088285d46b08d4c50ad48a0a98aa20d4c808978820d4a8085208fd037b16287b1c307b1b407b178297187b17588296108297087b175082977b17487b152083573308207b170850208c01d37dff821248d46208821958821a50d4a909d498089888207b1638d46909979920d498085208a7037c78197c79187c7a1a7c7b1b978808d4980897aa1097bb18d4ba0ad4a8087c791d7c7a1c7c7b1e7c7c1f979908d4a90997bb1097cc18d4cb0bd4b909979920d498087b18187c78117c79107c7a127c7b13978808d4980897aa1097bb18d4ba0ad4a8087c79157c7a147c7b167c7c17979908d4a90997bb1097cc18d4cb0bd4b909979920d498087b18107c78097c79087c7a0a7c7b0b978808d4980897aa1097bb18d4ba0ad4a8087c790d7c7a0c7c7b0e7c7c0f979908d4a90997bb1097cc18d4cb0bd4b909979920d489067c78017c797c7a027c7b03978808d4980897aa1097bb18d4ba0ad4a8087c79057c7a047c7b067c7707979908d4a90997bb10977718d4b707d49707977720d48705832733082050208e01957cff646b82191082161882124898b83878780f98b83078780e98b82878780d98b82078780c98b81878780b98b81078780a98b80878780998583878780798583078780698582878780598582078780498581878780398581078780298580878780198983878781798983078781698982878781598982078781498981878781398981078781298980878781198683878781f98683078781e98682878781d98682078781c98681878781b98681078781a986808787819821058821438d404031408e0ffffff00000000d8820a821c5094ca943a787910787b087875787618510aaf01821730821a28d4a707821a20d88a08821a4094a89478510895016f586fba6f9b6f65d4a5077b18307b1b20d4b808d487079877207b1a28d4a808978820d4870752076b01952a207b1a40d82a07c87c087b1848d8c808da7708c848087b1850d84807c807077b175883a78218088388207b18388356646850209001387bff7b17188217386468645650209201277bff6478821718645950209401597bff821740c85707d85708821b20821948c8b909c88909d3b90ad8b90bdaa80b821c28821850c8c808c88b0bd88b0ad8c808821c30821558c85c0cc8c808c8a808d4b70ad49808d48a0a98aa20d4b808978820d4a8085208ba00837733082050209601b57aff46171f46171e46171d46171c46171b46171a46171946171846171746171646171546171446171346171246171146171046170f46170e46170d46170c46170b46170a461709461708461707461706461705461704461703461702461701460795671f1408e0ffffff01000000d28707821840c87808d87807821948c879099497821a50c8a707d8a70a821b58c8ba0a821b7bb87bb9087bb7107bba18821070821568821660951178320000821730028218380282192802821a2002d49808d4a707d487075207140538077800024921780149217001492168017b176001492198014921900149218001049517a001951880019519600149218801502098019ff88217a0017b17588217a8017b17508217b0017b17488217b8017b17408217c0017b17388210c8018216d0018214d8018213e0018212e801821cf001821bf801821a00028219080282181002821718027b17d8007b18d0007b19c8007b1ac0007b1bf8007b1cf0007b12e8007b13e0007b1418017b1610017b1008018217387b1700018217407b1738018217487b1730018217507b172801951740019518200195190001951ae000951bc000821c587b1c200133009a01951160fe7b1098017b1590017b1688019515a0018411e082ac7b1c3882ac087b1c3082ac107b1c2882aa187b1a2082ba7b1a1882ba087b1a1082ba107b1a0882bb188283828408828010828818829c829a0882921082991864767b1998007b1290007b1a88007b1c80007b18b8007b10b0007b14a8007b13a0007b1bd8008217087b17d0008217107b17c8008217187b17c0008217207b17f8008217287b17f0008217307b17e800951700019518e0009519c000951aa000951b8000821c387b1ce0003300a802951100fc7b10f8037b15f0037b16e803951500048411e07b170882a21882b41882a7107b17b00082a37b13b80082b682a00882bc0882b710c86303d86306c80c0bc86b0bd3cb0ad8cb0cdaa60cc8240a8214b000c84706d87607c8a707828a7b1a78828a087b1a70828a107b1a688288187b186082987b18508298087b18408298107b18308298187b1828c86c0cd86c08c8870a7b1300037b1238037b1430037b1028038217b8007b1720037b1b08037b1c10039517400395182003951900037b1a18033300ac0428520901821758017b1740821750017b1748821748017b1750821740017b175833074033082050209c014377ff7c78117c79107c7a127c7b13978808d4980897aa1097bb18d4ba0ad4a8087c79157c7a147c7b167c7c17979908d4a90997bb1097cc18d4cb0bd4b909979920d489027c79017c7a7c7b027c7c03979908d4a90997bb1097cc18d4cb0bd4b9097c7a057c7b047c7c067c760797aa08d4ba0a97cc10976618d46c0cd4ca0a97aa20d4a9097c7a197c7b187c7c1a7c761b97aa08d4ba0a97cc10976618d46c0cd4ca0a7c7b1d7c7c1c7c761e7c781f97bb08d4cb0b976610978818d46808d4b808978820d48a0a7c78097c7b087c7c0a7c760b978808d4b80897cc10976618d46c0cd4c8087c7b0d7c7c0c7c760e7c770f97bb08d4cb0b976610977718d46707d4b707977720d487076f766faa6f9b6f29d4b907d46a08d47808988820d46707977720d487075207410195a7207b1718d8a707c879087b1808d89808da7708c868087b1810d86807c8b7077b172083a73308207b177b1a307b19287b1b3850209e01e075ff46171f2046171e46171d46171c46171b46171a46171946171846171746171646171546171446171346171246171146171046170f46170e46170d46170c46170b46170a46170946170846170746170646170546170446170346170246170146078217087b17688217187b17608217407b1798008217487b1790008217507b1788008217587b1780008217107b17709517a00095188000951960821a207b1a785020a0010df78217a8008212b8008213a000821ab000821828d3870bd8870c6484821930d89308dab80cc96a0bd86a0a821638c96206c9a606d8cb0ac9a606c9cb0bc94707c98708c99307d46808d4b709d48909d4b808989920978820d4980851081900330733085020a201d274ff837833070133090a0e018376821764685020a401bb74ff8378330764693300a6010a0e0132009511a0fe7b1058017b1550017b164801951560018411e08294088280088296828c829210d3040bd8040ad8c603dab30ac9040bc93b0b7b16487b1c78c9c60c88cc4085cc018283108eb6dbb60c829b18828618c93208c9a809d8a8087b1370d8320a7b1b407b1668c96b0bc9ab0bc98b0b8fb88e9adbb80ad4b909db9a0c510c800164767b12507b1458821970821478d49407821868d48008d48707987720d49808978820d487077b1060520752018348831720017b18380a0301821770821868d487071408e0ffffff00000000821978d889088219609498947851082201821738017b1728821730017b1718821728017b1730821720017b1720821738837820831700010a0301821218018218100182190801d4280a889b0194ab510be200821a0001821b78c8ab0bd8ab0a821c60c89c0cc8ac0cd39c07d89c09da7a09821770c88707c87909d8790ad88707821868c88202c82707c87a0a8217487b1780008217587b1788007b1ba0008217507b1790008217407b1798007b1ca8007b19b0009517c0009518a000951980007b1ab8005020a8015ef08212c8008213c0008219d800821ad000821bf000821cf8008217e0008218e8007b6b507b6c587b67407b68487b6a307b69387b63207b62288217187b67108217287b67188217207b678217307b67089551a0fe82105801821550018216480195116001320000330733085020aa01a372ff837833070133093300ac010a0e019511a0fe7b1058017b1550017b164801951560018411e049213801492130014921280149212001831720010a1101821730018218380182192801821a2001d49808d4a707d487075207a50038077800024921980049219000492188007b1780004921b8004921b0004921a000049517c0009518a000951980004921a8005020ae016cfd8217c0007b17188213c8008214d0008210d8008212e000821ce800821bf000821af800821800018216080182191001821718017b17387b19307b16287b18207b1a587b1b507b1c487b12407b10787b14707b1368951760951840951920821a187b1a605020b001ea60330733085020b2019e71ff837833070133093300b4010a0e019511807b10787b15707b1668951580008411f0390778000254170366014911384911304911289517404911205020b601ee798217587b178217507b17088217487b17108217407b17183307403308205020b8013a71ff7c78117c79107c7a127c7b13978808d4980897aa1097bb18d4ba0ad4a8087c79157c7a147c7b167c7c17979908d4a90997bb1097cc18d4cb0bd4b909979920d489027c79017c7a7c7b027c7c03979908d4a90997bb1097cc18d4cb0bd4b9097c7a057c7b047c7c067c760797aa08d4ba0a97cc10976618d46c0cd4ca0a97aa20d4a9097c7a197c7b187c7c1a7c761b97aa08d4ba0a97cc10976618d46c0cd4ca0a7c7b1d7c7c1c7c761e7c781f97bb08d4cb0b976610978818d46808d4b808978820d48a0a7c78097c7b087c7c0a7c760b978808d4b80897cc10976618d46c0cd4c8087c7b0d7c7c0c7c760e7c770f97bb08d4cb0b976610977718d46707d4b707977720d487076f786fa76f996f2ad4a909d4870ad49a0a98aa20d49808978820d4a80851081900330733085020ba010770ff837833070133090a0e01837633082064675020bc01ef6fff82186f888219086f99821a106faa821b186fbb98bc38787c1f98bc30787c1e98bc28787c1d98bc20787c1c98bc18787c1b98bc10787c1a98bc08787c19787b18787a1098ab38787b1798ab30787b1698ab28787b1598ab20787b1498ab18787b1398ab10787b1298aa08787a11787908989a38787a0f989a30787a0e989a28787a0d989a20787a0c989a18787a0b989a10787a0a989908787909787898893878790798893078790698892878790598892078790498891878790398891078790298880878780133082064675020be011d6fff837833092033073300c0010a0e01828918828a10828b0882887b79187b7a107b7b087b783200821790008218980082198800821a8000d49808d4a707d487075207c6013907780002541743bd018317a0003308040a038217a0007b17188217a8007b17108217b0007b17088216b8008317a0003308240a038217a0008218a8008219b000821ab8007b1a387b19307b18287b17207b16588217087b17508217107b1748951760951840951920821a187b1a405020c2016c10018217787b178217707b17088217687b17108217607b17183307403308205020c401406eff7c78117c79107c7a127c7b13978808d4980897aa1097bb18d4ba0ad4a8087c79157c7a147c7b167c7c17979908d4a90997bb1097cc18d4cb0bd4b909979920d489027c79017c7a7c7b027c7c03979908d4a90997bb1097cc18d4cb0bd4b9097c7a057c7b047c7c067c760797aa08d4ba0a97cc10976618d46c0cd4ca0a97aa20d4a9097c7a197c7b187c7c1a7c761b97aa08d4ba0a97cc10976618d46c0cd4ca0a7c7b1d7c7c1c7c761e7c781f97bb08d4cb0b976610978818d46808d4b808978820d48a0a7c78097c7b087c7c0a7c760b978808d4b80897cc10976618d46c0cd4c8087c7b0d7c7c0c7c760e7c770f97bb08d4cb0b976610977718d46707d4b707977720d487076f786fa76f996f2ad4a909d4870ad49a0a98aa20d49808978820d4a80851081900330733085020c6010d6dff837833070133090a0e01837633082064675020c801f56cff82186f888219086f99821a106faa821b186fbb98bc38787c1f98bc30787c1e98bc28787c1d98bc20787c1c98bc18787c1b98bc10787c1a98bc08787c19787b18787a1098ab38787b1798ab30787b1698ab28787b1598ab20787b1498ab18787b1398ab10787b1298aa08787a11787908989a38787a0f989a30787a0e989a28787a0d989a20787a0c989a18787a0b989a10787a0a989908787909787898893878790798893078790698892878790598892078790498891878790398891078790298880878780133082064675020ca01236cff837833092033073300cc010a0e01951180fe7b1078017b1570017b166801951580018411e08294088280088296828c829210d3040bd8040ad8c603dab30ac9040bc93b0b7b16607b1c9800c9c60c88cc6085cc018283108eb6dbb60c829b18828618c93208c9a809d8a8087b139000d8320a7b1b587b168800c96b0bc9ab0bc98b0b8fb88e9adbb80ad4b909db9a0c510cf90164767b12687b14708219900082149800d4940782188800d48008d48707987720d49808978820d487077b1080005207c7018348831740017b18780a03018217900082188800d48709140700000000010000007b17481407e0ffffff0000000082189800d878078218800094877b1950949751078301821758017b1738821750017b1728821748017b1740821740017b1730821778837820831740010a03018217489577c082189800d87807821880009487821850948751073e01821758017b1748821750017b1718821748017b1750821740017b1720821778837840831720010a0301821238018218300182192801d4280a889b0194ab510bfe00821a2001821b9800c8ab0bd8ab0a821c8000c89c0cc8ac0cd39c07d89c09da7a0982179000c88707c87909d8790ad8870782188800c88202c82707c87a0a8217607b17a0008217707b17a8007b1bc0008217687b17b0008217587b17b8007b1cc8007b19d0009517e0009518c0009519a0007b1ad8005020ce0163e78212e8008213e0008219f800821af000821b1001821c180182170001821808017b6b707b6c787b67607b68687b6a507b69587b63407b62488217187b67308217487b67388217207b67208217507b67288217287b67108217387b67188217307b678217407b6708955180fe82107801821570018216680195118001320000330733085020d0019069ff837833070133093300d2010a0e01951140fe7b10b8017b15b0017b16a8019515c0018411e049219801492190014921880149218001831780010a1101821790018218980182198801821a8001d49808d4a707d4870752071c0238077800024921d8004921d0004921c8007b17c0004921f8004921f0004921e00004951700019518e0009519c0004921e8005020d401f0fc821700017b1738821708017b1730821710017b1728821718017b1720821720017b17188210280182143001821338018212400182164801821c5001821b5801821a60018219680182187001821778017b17587b18507b19487b1a407b1b787b1c707b16687b12607b1398007b1490007b1088008217187b1780008217207b17b8008217287b17b0008217307b17a8009517a00095188000951960951a40821b387b1ba0005020d6010790003307403308205020d8014768ff7c78117c79107c7a127c7b13978808d4980897aa1097bb18d4ba0ad4a8087c79157c7a147c7b167c7c17979908d4a90997bb1097cc18d4cb0bd4b909979920d489027c79017c7a7c7b027c7c03979908d4a90997bb1097cc18d4cb0bd4b9097c7a057c7b047c7c067c760797aa08d4ba0a97cc10976618d46c0cd4ca0a97aa20d4a9097c7a197c7b187c7c1a7c761b97aa08d4ba0a97cc10976618d46c0cd4ca0a7c7b1d7c7c1c7c761e7c781f97bb08d4cb0b976610978818d46808d4b808978820d48a0a7c78097c7b087c7c0a7c760b978808d4b80897cc10976618d46c0cd4c8087c7b0d7c7c0c7c760e7c770f97bb08d4cb0b976610977718d46707d4b707977720d487076f786fa76f996f2ad4a909d4870ad49a0a98aa20d49808978820d4a80851082200330733085020da011467ff837833070133090a0e83773300dc0128fe66ff83775020dc01f866ff8378330733093300de010a0e019511a07b10587b15507b16489515608411f06476491118491110491108951720641849015020e001afd5821730821838821920821a287b67107b68187b697b6a089551a08210588215508216489511603200821710018218180182190801821a0001d49808d4a707d487075207bb023907780002541703b2024921d8004921d0004921c8009517e0009518c0004921c0005020e20142d58217f8007b17408217f0007b17488217e8007b17508217e0007b17583307403308205020e4012b66ff7c78117c79107c7a127c7b13978808d4980897aa1097bb18d4ba0ad4a8087c79157c7a147c7b167c7c17979908d4a90997bb1097cc18d4cb0bd4b909979920d489027c79017c7a7c7b027c7c03979908d4a90997bb1097cc18d4cb0bd4b9097c7a057c7b047c7c067c760797aa08d4ba0a97cc10976618d46c0cd4ca0a97aa20d4a9097c7a197c7b187c7c1a7c761b97aa08d4ba0a97cc10976618d46c0cd4ca0a7c7b1d7c7c1c7c761e7c781f97bb08d4cb0b976610978818d46808d4b808978820d48a0a7c78097c7b087c7c0a7c760b978808d4b80897cc10976618d46c0cd4c8087c7b0d7c7c0c7c760e7c770f97bb08d4cb0b976610977718d46707d4b707977720d487076f766faa6f9b6f29d4b907d46a08d47808988820d46707977720d487075207410195a7207b1718d8a707c879087b1808d89808da7708c868087b1810d86807c8b7077b172083a73308207b177b1a307b19287b1b385020e601c864ff46171f2046171e46171d46171c46171b46171a46171946171846171746171646171546171446171346171246171146171046170f46170e46170d46170c46170b46170a46170946170846170746170646170546170446170346170246170146078217087b17688217187b17608217407b1798008217487b1790008217507b1788008217587b1780008217107b17709517a00095188000951960821a207b1a785020e801f5e58217a8008212b8008213a000821ab000821828d3870bd8870c6484821930d89308dab80cc96a0bd86a0a821638c96206c9a606d8cb0ac9a606c9cb0bc94707c98708c99307d46808d4b709d48909d4b808989920978820d4980851081900330733085020ea01ba63ff837833070133090a0e018376821764685020ec01a363ff8378330764693300ee010a0e019511807b10787b15707b1668951580008411e0828410828c0882920882867b1610829b7b1b18829010d3c20a7b1a38d8c20ad86b0b821338da3b0a64b38288187b18388298187b1820c94008c9a8097b1928d8a8097b1430d8400a821838821b20c98b08c9a808c99804c9c206c93609821210821818c9280a8e9b88aa2085aa01db9b0a8f498218288e8bdb490bd44808db8b0a510a546476821930d49207821838d4c808d48707987720d49808978820d4870752073383288317400a03821758821850821948821a407b67187b68107b69087b6a95518082107882157082166895118000320000330733085020f001a362ff837833070133093300f2010a0e01828918828a10828b0882887b79187b7a107b7b087b7832006f688219686f99821a706faa821b786fbb98bc38787c1f98bc30787c1e98bc28787c1d98bc20787c1c98bc18787c1b98bc10787c1a98bc08787c19787b1898ab38787b1798ab30787b1698ab28787b1598ab20787b1498ab18787b1398ab10787b1298ab08787b11787a10989a38787a0f989a30787a0e989a28787a0d989a20787a0c989a18787a0b989a10787a0a989a08787a0978790898893878790798893078790698892878790598892078790498891878790398891078790298890878790178783307203308205020f601ac61ff46171f0446171e46171d46171c46171b46171a46171946171846171746171646171546171446171346171246171146171046170f46170e46170d46170c46170b46170a461709461708461707461706461705461704461703461702461701460733084033075020f8014061ff83778319a0003308400a098217b8008218b0008219a800821aa0006f766f887b18706f997b19586fa77b17787b1798007b1990007b1888007b1680007b16604921b8004921b0004921a8004921a0004821c0002083188000831aa000831bc0003309ff33070a08956701887801821970c89808d48709889901821a58c8a909d8a90a821b78c8ba0a7b1a98007b1990008219a0007b19487b1888008218a8007b18407b1780008017b0007b17384921b8004921b0004921a8004921a0004821c0002083188000831aa000831bc0003309ff33070a088217a0007b17308217a8007b17288217b0007b17208217b8007b1718821760957802d8780764897b1868821870c8780a7b1a60d88a06da7706821758c87606d87607821878c887077b17787b1798007b1690007b1a88007b1980004921b8004921b0004921a8004921a0004821c0002083188000831aa000831bc0003309ff33070a087c17a0007b17708217787b1798007b1690008217607b1788008217687b1780004921b8004921b0004921a8004921a0004821c0002083188000831aa000831bc0003309ff33070a087c17a1007b17588217787b1798007b1690008217607b1788008217687b1780004921b8004921b0004921a8004921a0004821c0002083188000831aa000831bc0003309ff33070a087c17a2008218504928980049289000492888007b8780004918784918704918688217587b87604918584918504918488217707b87408217187b87388217207b87308217287b87288217307b87204918188217387b87108217407b87088217487b87955120ff8210d8008215d0008216c8009511e0003200951130ff7b10c8007b15c0007b16b80082851082821882860882887b16a8007b128800d426027b18b000d45806d426069866207b159000d45208978820d468087b174052088b048217d0008278187b18188278107b18088278087b181082777b1782c7187b173882c7107b172882c7087b173082c77b172082b7187b176082b7107b175082b7087b175882b77b174882a7187b177082a7107b177882a7087b17800082971082a87b18688298087b18980082969777209875208117b0003308207b17a0005020fa01165eff6f58821998006f996f6a98ab38787b1f98ab30787b1e98ab28787b1d98ab20787b1c98ab18787b1b98ab10787b1a98ab08787b19787a1878791046170b46170a4617094617074617064617054617044617034617024617014607989a38787a17989a30787a16989a28787a15989a20787a14989a18787a13989a10787a1298990878791178780898893878790f98893078790e98892878790d98882082199000821b8800d49b0b140500000000010000001409e0ffffff00000000821ab000d89a09821aa80094a97b1b980094b978780c510932038217a0008377203308205020fc01305dff8218706f888219786f99821a80006faa821b686fbb98bc38787c1f98bc30787c1e98bc28787c1d98bc20787c1c98bc18787c1b98bc10787c1a98bc08787c19787b18787a1098ab38787b1798ab30787b1698ab28787b1598ab20787b1498ab18787b1398ab10787b1298aa08787a11787908989a38787a0f989a30787a0e989a28787a0d989a20787a0c989a18787a0b989a10787a0a98990878790978789889387879079889307879069889287879059889207879049889187879039889107879029888089559c0821ab000d89a09821aa80094a9821a980094a978780151093f02821750821848d48707821860821958d49808d487078e758217a0008377403308205020fe01265cff46171e46171d46171c46171b46171a46171946171846171746171646171546171446171346171246171146171046170f46170e46170d46170c46170b46170a46170946170846170746170646170546170446170346170246170178751f140500000000010000001408a0ffffff000000008219b000d889088219a8009498821998009498460751088d01821728821820d48707821838821930d49808d487078e768217a00083776033082050200002745bff46171e46171d46171c46171b46171a46171946171846171746171646171546171446171346171246171146171046170f46170e46170d46170c46170b46170a46170946170846170746170646170546170446170346170246170146079558808219b000d889088219a800949882199800949878761f5108ec008217b0009578a0007b189800d878078218a800c87806d88605da770582179000c87505d8750782188800c887077b17b0008217088218d48707821818821910d49808d487078e777b17a8008217a00083778000330820502002029e5aff46171e46171d46171c46171b46171a46171946171846171746171646171546171446171346171246171146171046170f46170e46170d46170c46170b46170a46170946170846170746170646170546170446170346170246170146078218a80078781f821740821898007b788218b0007b78187b76087b75108210c8008215c0008216b8009511d000320000821770028218780282196802821a6002d49808d4a707d487075207810339077800025417237803831780023308040a03821980028217880282189002821a98027b1ab8017b18b0017b17a8019517c0019518a0017b19a00133000402951120ff7b10d8007b15d0007b16c8009515e0008411e082897b19788289087b19708289107b19688286187b175033082033073300f401287859ff8217c0017b17b0008217c8017b17a8008217d0017b17a0008217d8017b1798008217e0017b1790008217e8017b1788008217f0017b1780008217f8017b1778821700027b1770821708027b1768821710027b1760821718027b1758821720027b1750821728027b1748821730027b1740821738027b1738821740027b1730821748027b1728821750027b1720821758027b171833074033082050200602db58ff7c78017c797c7a027c7b03978808d4980897aa1097bb18d4ba0ad4a8087c79057c7a047c7b067c7c07979908d4a90997bb1097cc18d4cb0bd4b909979920d489027c79097c7a087c7b0a7c7c0b979908d4a90997bb1097cc18d4cb0bd4b9097c7a0d7c7b0c7c7c0e7c760f97aa08d4ba0a97cc10976618d46c0cd4ca0a97aa20d4a9097c7a117c7b107c7c127c761397aa08d4ba0a97cc10976618d46c0cd4ca0a7c7b157c7c147c76167c781797bb08d4cb0b976610978818d46808d4b808978820d48a0a7c78197c7b187c7c1a7c761b978808d4b80897cc10976618d46c0cd4c8087c7b1d7c7c1c7c761e7c771f97bb08d4cb0b976610977718d46707d4b707977720d487076f766faa7b1a086f987b18106f297b19b8009517c0007b178217187b17d8008217207b17d0008217287b17c8008217307b17c0008217387b17f8008217407b17f0008217487b17e8008217507b17e0008217587b1718018217607b1710018217687b1708018217707b1700018217787b173801821780007b173001821788007b172801821790007b172001821798007b1758018217a0007b1750018217a8007b1748018217b0007b1740017b1978017b1870017b1a6801951780019518600195194001951a2001951b0001951ce0007b1660015020080220f8821b0864698217b800d4b707821610d46908d47808988820d46707977720d4870752076182178801821898017b18b0008213800182189001d3b704d8b70cd89300da400cc9680ac9ca04d8ca02d8680a8218b800821cb000c98c0cc9ac0cc92c0cc9b707c90707c99306d4c707d44608d47808d44707988820977720d48707510719003307330850200a026d56ff837833070133090a0e0183978366646850200c025656ff83783307646933000e020a0e019511807b10787b1570951580008411e04911384911304911284911208317200a1101821730821838821928821a20d49808d4a707d4870752076b01390778000254172362018317403308040a03821840821748821950821a587b1a187b19107b170864177b1850201002e7a10033074033082050201202cf55ff7c78117c79107c7a127c7b13978808d4980897aa1097bb18d4ba0ad4a8087c79157c7a147c7b167c7c17979908d4a90997bb1097cc18d4cb0bd4b909979920d489027c79017c7a7c7b027c7c03979908d4a90997bb1097cc18d4cb0bd4b9097c7a057c7b047c7c067c780797aa08d4ba0a97cc10978818d4c808d4a808978820d498037c78197c7a187c7b1a7c7c1b978808d4a80897bb1097cc18d4cb0bd4b8087c7a1d7c7b1c7c7c1e7c791f97aa08d4ba0a97cc10979918d4c909d4a909979920d4890a7c78097c79087c7b0a7c7c0b978808d4980897bb1097cc18d4cb0bd4b8087c790d7c7b0c7c7c0e7c770f979908d4b90997cc10977718d4c707d49707977720d487076f786fa76f396f2ad4a909d4870ad49a0a98aa20d49808978820d4a8085108220033073308502014029c54ff837833070133090a0e837733001602288654ff8377502016028054ff837833073309330018020a0e019511e07b10187b15107b1608330670000239087000026475510820330780000383777b1883680a0701390770000220037000028218ac87303a08f800033a09f000033a0ae800033a07e000037b58187b59107b5a087b57821018821510821608951120320000821730821838821928821a20d49808d4a707d4870752078f0139077800025417038601330670000239077000025107237b17183307800003837783680a070139077000022003700002821818ac8757013a08f800037b183a08f000037b18083a08e800037b18103a07e000037b171833074033082050201a029153ff7c78117c79107c7a127c7b13978808d4980897aa1097bb18d4ba0ad4a8087c79157c7a147c7b167c7c17979908d4a90997bb1097cc18d4cb0bd4b909979920d489027c79017c7a7c7b027c7c03979908d4a90997bb1097cc18d4cb0bd4b9097c7a057c7b047c7c067c760797aa08d4ba0a97cc10976618d46c0cd4ca0a97aa20d4a9097c7a197c7b187c7c1a7c761b97aa08d4ba0a97cc10976618d46c0cd4ca0a7c7b1d7c7c1c7c761e7c781f97bb08d4cb0b976610978818d46808d4b808978820d48a0a7c78097c7b087c7c0a7c760b978808d4b80897cc10976618d46c0cd4c8087c7b0d7c7c0c7c760e7c770f97bb08d4cb0b976610977718d46707d4b707977720d487076f786fa76f996f2ad4a909d4870ad49a0a98aa20d49808978820d4a808510819003307330850201c025e52ff837833070133090a0e018376330820646750201e024652ff82186f888219086f99821a106faa821b186fbb98bc38787c1f98bc30787c1e98bc28787c1d98bc20787c1c98bc18787c1b98bc10787c1a98bc08787c19787b18787a1098ab38787b1798ab30787b1698ab28787b1598ab20787b1498ab18787b1398ab10787b1298aa08787a11787908989a38787a0f989a30787a0e989a28787a0d989a20787a0c989a18787a0b989a10787a0a98990878790978789889387879079889307879069889287879059889207879049889187879039889107879029888087878013308206467502020027451ff83783309203307330022020a0e019511807b10787b1570951580008411e04911384911304911284911208317200a1101821730821838821928821a20d49808d4a707d487075207a001390778000254172397018317403308040a03821840821748821950821a587b1a187b19107b170864177b1833002402951120fe7b10d8017b15d0017b16c8019515e0018411e082787b18588278087b18508278107b184882761833082033073300180428c150ff33074033082050202602b750ff7c78117c79107c7a127c7b13978808d4980897aa1097bb18d4ba0ad4a8087c79157c7a147c7b167c7c17979908d4a90997bb1097cc18d4cb0bd4b909979920d489027c79017c7a7c7b027c7c03979908d4a90997bb1097cc18d4cb0bd4b9097c7a057c7b047c7c067c780797aa08d4ba0a97cc10978818d4c808d4a808978820d498037c78197c7a187c7b1a7c7c1b978808d4a80897bb1097cc18d4cb0bd4b8087c7a1d7c7b1c7c7c1e7c791f97aa08d4ba0a97cc10979918d4c909d4a909979920d4890a7c78097c79087c7b0a7c7c0b978808d4980897bb1097cc18d4cb0bd4b8087c790d7c7b0c7c7c0e7c770f979908d4b90997cc10977718d4c707d49707977720d487076f786fa76f396f2ad4a909d4870ad49a0a98aa20d49808978820d4a808510822003307330850202802844fff837833070133090a0e837733002a02286e4fff837750202a02684fff83783307330933002c020a0e019511e07b10187b15107b1608330670000239087000026475510820330780000383777b1883680a0701390770000220037000028218ac87303a089800033a099000033a0a8800033a078000037b58187b59107b5a087b57821018821510821608951120320000821730821838821928821a20d49808d4a707d487075207880139077800025417037f01330670000239077000025107237b17183307800003837783680a070139077000022003700002821818ac8750013a089000037b18083a088800037b18103a078000037b171833074033082050202e02804eff7c78117c79107c7a127c7b13978808d4980897aa1097bb18d4ba0ad4a8087c79157c7a147c7b167c7c17979908d4a90997bb1097cc18d4cb0bd4b909979920d489027c79017c7a7c7b027c7c03979908d4a90997bb1097cc18d4cb0bd4b9097c7a057c7b047c7c067c760797aa08d4ba0a97cc10976618d46c0cd4ca0a97aa20d4a9097c7a197c7b187c7c1a7c761b97aa08d4ba0a97cc10976618d46c0cd4ca0a7c7b1d7c7c1c7c761e7c781f97bb08d4cb0b976610978818d46808d4b808978820d48a0a7c78097c7b087c7c0a7c760b978808d4b80897cc10976618d46c0cd4c8087c7b0d7c7c0c7c760e7c770f97bb08d4cb0b976610977718d46707d4b707977720d487076f786fa76f996f2ad4a909d4870ad49a0a98aa20d49808978820d4a8085108190033073308502030024d4dff837833070133090a0e0182180897882098862083777b1708330820502032022b4dff6f688219106f99821a186faa98ab38787b1f98ab30787b1e98ab28787b1d98ab20787b1c98ab18787b1b98ab10787b1a98ab08787b19787a1878791046170b46170a4617094617074617064617054617044617034617024617014607989a38787a17989a30787a16989a28787a15989a20787a14989a18787a13989a10787a1298990878791178780898893878790f98893078790e98892878790d98882078780c330820821708502034027d4cff83783309203307330036020a0e019511e07b10187b15107b1608330670000239087000026475510820330780000383777b1883680a0701390770000220037000028218ac87303a08b800033a09b000033a0aa800033a07a000037b58187b59107b5a087b57821018821510821608951120320000821730821838821928821a20d49808d4a707d4870752078f0139077800025417038601330670000239077000025107237b17183307800003837783680a070139077000022003700002821818ac8757013a08b800037b183a08b000037b18083a08a800037b18103a07a000037b1718330740330820502038028d4bff7c78117c79107c7a127c7b13978808d4980897aa1097bb18d4ba0ad4a8087c79157c7a147c7b167c7c17979908d4a90997bb1097cc18d4cb0bd4b909979920d489027c79017c7a7c7b027c7c03979908d4a90997bb1097cc18d4cb0bd4b9097c7a057c7b047c7c067c760797aa08d4ba0a97cc10976618d46c0cd4ca0a97aa20d4a9097c7a197c7b187c7c1a7c761b97aa08d4ba0a97cc10976618d46c0cd4ca0a7c7b1d7c7c1c7c761e7c781f97bb08d4cb0b976610978818d46808d4b808978820d48a0a7c78097c7b087c7c0a7c760b978808d4b80897cc10976618d46c0cd4c8087c7b0d7c7c0c7c760e7c770f97bb08d4cb0b976610977718d46707d4b707977720d487076f786fa76f996f2ad4a909d4870ad49a0a98aa20d49808978820d4a808510819003307330850203a025a4aff837833070133090a0e018376330820646750203c02424aff82186f888219086f99821a106faa821b186fbb98bc38787c1f98bc30787c1e98bc28787c1d98bc20787c1c98bc18787c1b98bc10787c1a98bc08787c19787b18787a1098ab38787b1798ab30787b1698ab28787b1598ab20787b1498ab18787b1398ab10787b1298aa08787a11787908989a38787a0f989a30787a0e989a28787a0d989a20787a0c989a18787a0b989a10787a0a9899087879097878988938787907988930787906988928787905988920787904988918787903988910787902988808787801330820646750203e027049ff83783309203307330040020a0e019511807b10787b1570951580008411e04911384911304911284911208317200a1101821730821838821928821a20d49808d4a707d4870752076b01390778000254172362018317403308040a03821840821748821950821a587b1a187b19107b170864177b185020420203b60033074033082050204402e848ff7c78117c79107c7a127c7b13978808d4980897aa1097bb18d4ba0ad4a8087c79157c7a147c7b167c7c17979908d4a90997bb1097cc18d4cb0bd4b909979920d489027c79017c7a7c7b027c7c03979908d4a90997bb1097cc18d4cb0bd4b9097c7a057c7b047c7c067c780797aa08d4ba0a97cc10978818d4c808d4a808978820d498037c78197c7a187c7b1a7c7c1b978808d4a80897bb1097cc18d4cb0bd4b8087c7a1d7c7b1c7c7c1e7c791f97aa08d4ba0a97cc10979918d4c909d4a909979920d4890a7c78097c79087c7b0a7c7c0b978808d4980897bb1097cc18d4cb0bd4b8087c790d7c7b0c7c7c0e7c770f979908d4b90997cc10977718d4c707d49707977720d487076f786fa76f396f2ad4a909d4870ad49a0a98aa20d49808978820d4a808510822003307330850204602b547ff837833070133090a0e837733004802289f47ff8377502048029947ff83783307330933004a020a0e019511e0fe7b1018017b1510017b160801951520018411e0648482920882800882988246829310d3020bd8020ad8680cdabc0ac9020bc9cb0b7b16587b1840c9680c88cc2085cc018248108eb6dbb60c829b18824618c98309c9a904d8a909d8830a7b1b30c96b0bc9ab0bc99b0b8fb98e4adbb90ad4b409db9a0c510c18017b17187b13487b1250821758d487077b10387b1620d46009d497079877207b1828d49808978820d487075207e9008118588317e0000a03018212f8008218f0008219e800d4280a889b0194ab510bc800821ae000821b58c8ab0bd8ab0a821c38c89c0cc8ac0cd39c07d89c09da7a09821728c88707c87909d8790ad88707821820c88202c82707c87a0a8217407b17608217507b17687b1b80008217487b17708217307b17787b1c88007b1990009517a000951880009519607b1a980050204c0295c38212a8008213a0008219b800821ab000821bd000821cd8008217c0008218c8008216187b6b307b6c387b67207b68287b6a107b69187b637b62089551e0fe821018018215100182160801951120013200003307330850204e02ef45ff83783307013309330050020a0e01951100ff7b10f8007b15f000951500018411e04921d8004921d0004921c8004921c0008317c0000a11018217d0008218d8008219c800821ac000d49808d4a707d487075207aa0138077800024911584911504911487b1740491178491170491160049517800095186095194049116850205202e6fd821280008213880082189000821a9800821ba000821ca8008219b0008217b8007b17187b19107b1c087b1b7b1a387b18307b132895172064187b12205020540252c000330740330820502056021c45ff7c78117c79107c7a127c7b13978808d4980897aa1097bb18d4ba0ad4a8087c79157c7a147c7b167c7c17979908d4a90997bb1097cc18d4cb0bd4b909979920d489027c79017c7a7c7b027c7c03979908d4a90997bb1097cc18d4cb0bd4b9097c7a057c7b047c7c067c780797aa08d4ba0a97cc10978818d4c808d4a808978820d498037c78197c7a187c7b1a7c7c1b978808d4a80897bb1097cc18d4cb0bd4b8087c7a1d7c7b1c7c7c1e7c791f97aa08d4ba0a97cc10979918d4c909d4a909979920d4890a7c78097c79087c7b0a7c7c0b978808d4980897bb1097cc18d4cb0bd4b8087c790d7c7b0c7c7c0e7c770f979908d4b90997cc10977718d4c707d49707977720d487076f786fa76f396f2ad4a909d4870ad49a0a98aa20d49808978820d4a808510822003307330850205802e943ff837833070133090a0e837733005a0228d343ff837750205a02cd43ff83783307330933005c020a0e01951100ff7b10f8007b15f000951500018411e04921d8004921d0004921c8004921c0008317c0000a11018217d0008218d8008219c800821ac000d49808d4a707d487075207f60138077800024911584911504911487b1740491178491170491160049517800095186095194049116850205e02c5fb821280008213880082189000821a9800821ba000821ca8008219b0008217b8007b17187b19107b1c087b1b7b1a387b18307b132895172064187b1220330060029511c0fe7b1038017b1530017b162801951540018411e08289187b19508289107b19488289087b193882887b18288278187b18588278107b18408278087b183082777b1720831700010a0528e0d00033074033082050206202af42ff7c78117c79107c7a127c7b13978808d4980897aa1097bb18d4ba0ad4a8087c79157c7a147c7b167c7c17979908d4a90997bb1097cc18d4cb0bd4b909979920d489027c79017c7a7c7b027c7c03979908d4a90997bb1097cc18d4cb0bd4b9097c7a057c7b047c7c067c780797aa08d4ba0a97cc10978818d4c808d4a808978820d498037c78197c7a187c7b1a7c7c1b978808d4a80897bb1097cc18d4cb0bd4b8087c7a1d7c7b1c7c7c1e7c791f97aa08d4ba0a97cc10979918d4c909d4a909979920d4890a7c78097c79087c7b0a7c7c0b978808d4980897bb1097cc18d4cb0bd4b8087c790d7c7b0c7c7c0e7c770f979908d4b90997cc10977718d4c707d49707977720d487076f786fa76f396f2ad4a909d4870ad49a0a98aa20d49808978820d4a8085108220033073308502064027c41ff837833070133090a0e837733006602286641ff8377502066026041ff837833073309330068020a0e019511a07b10587b15507b16487b178283828008828b108288188292829a0882941882991098253d97a603d4650598aa3d979603d46a0a98993d974403d494069724038e698eacdb690c8e5788490001859401db5704d46a0adbac0446114746114646114546114446114346114246114146114046113f46113e46113d46113c46113b46113a46113946113846113746113646113546113446113346113246113146113046112f46112e46112d46112c46112b46112a461129461128781820781b1878101078130898873878172798873078172698872878172598872078172498871878172398871078172298880878182198b73878171f98b73078171e98b72878171d98b72078171c98b71878171b98b71078171a98bb08781b1998073878171798073078171698072878171598072078171498071878171398071078171298070878171198373878170f98373078170e98372878170d98372078170c98371878170b98371078170a98370878170984281f951708c878087c87097c89087c8a0a7c8b0b977708d4970797aa1097bb18d4ba0ad4a7077c890d7c8a0c7c8b0e7c8c0f979908d4a90997bb1097cc18d4cb0bd4b909979920d4790a7c87017c897c8b027c8c03977708d4970797bb1097cc18d4cb0bd4b7077c89057c8b047c8c067c8607979908d4b90997cc10976618d46c0cd4c909979920d497077c89117c8b107c8c127c8813979908d4b90997cc10978818d4c808d498089447944a944882194919187b98107b9a087b978210588215508216489511603200821730821838821928821a20d49808d4a707d487075207840139077800025417037b01491158491150491148491140024911784911704911684911604821800020831840831a60831b80003309ff33070a088217707b17088217687b17108217607b171833074033082050206a02a83eff7c78117c79107c7a127c7b13978808d4980897aa1097bb18d4ba0ad4a8087c79157c7a147c7b167c7c17979908d4a90997bb1097cc18d4cb0bd4b909979920d489027c79017c7a7c7b027c7c03979908d4a90997bb1097cc18d4cb0bd4b9097c7a057c7b047c7c067c760797aa08d4ba0a97cc10976618d46c0cd4ca0a97aa20d4a9097c7a197c7b187c7c1a7c761b97aa08d4ba0a97cc10976618d46c0cd4ca0a7c7b1d7c7c1c7c761e7c781f97bb08d4cb0b976610978818d46808d4b808978820d48a0a7c78097c7b087c7c0a7c760b978808d4b80897cc10976618d46c0cd4c8087c7b0d7c7c0c7c760e7c770f97bb08d4cb0b976610977718d46707d4b707977720d487076f786fa76f996f2ad4a909d4870ad49a0a98aa20d49808978820d4a808510819003307330850206c02753dff837833070133090a0e0182180897882098862083777b170833082050206e02533dff6f688219106f99821a186faa98ab38787b1f98ab30787b1e98ab28787b1d98ab20787b1c98ab18787b1b98ab10787b1a98ab08787b19787a1878791046170b46170a4617094617074617064617054617044617034617024617014607989a38787a17989a30787a16989a28787a15989a20787a14989a18787a13989a10787a1298990878791178780898893878790f98893078790e98892878790d98882078780c33082082170850207002a53cff83783309203307330072020a0e019511c87b10307b15287b1620827610827a1882780882797b18187b1a10d4a807d46908d47808988820d46707977720d487075207350183973308203305207b177b1908502074024d3cff46171f6446171e6946171d7646171c6f46171b7246171a70787519330c65787c184617176846171674787515461714744617136f4617126e7875114617107346170f6978750e46170d72787c0c46170b6c46170a6c46170961461708637875073305724617063a461705774617046f7875034617026346170173821910d46909140ae0ffffff00000000821b08d8ab0a821b1894ba949a460745510a8300821783772033082050207602a03bff46171f46171e46171d46171c46171b46171a46171946171846171746171646171546171446171346171246171146171046170f46170e46170d46170c46170b46170a46170946170846170746170646170546170446170346170278750133086578788210308215288216209511383200009511a07b10587b15507b1648828a18828b10828c088286d4ac08d4b609d48909989920d4b808978820d498087b17285208b6029567207b1740d86707c87c087b18387b1c10d8c805da7705c8b5057b1b18d8b5077b1a20c8a7077b17307b1608836733082033062050207802c03aff78761f821840d45808821938821a30d4a909d49808988820d45909979920d4980846171e46171d46171c46171b46171a46171946171846171746171646171546171446171346171246171146171046170f46170e46170d46170c46170b46170a46170946170846170746170646170546170446170346170246170146075208f901645682154083573308207b1750207a022c3aff46171f2246171e46171d46171c46171b46171a46171946171846171746171646171546171446171346171246171146171046170f46170e46170d46170c46170b46170a461709461708461707461706461705461704461703461702461701821830d4860a140600000000010000001408e0ffffff00000000d8850882193894987b1a3094a8460751085b01821583572033082050207c029239ff46171f6433026978721e46171d7646171c6f330c72787c1b46171a704617192046171865461717684617167446171520461714744617136f4617126e461711204617107378720f46170e20787c0d46170c6546170b6c46170a6c4617096146170863461707204617063a330b77787b054617046f787c0346170263461701739569c0821a40d89a09821a3894a9821a3094a94607455109b30083574033082050207e02ec38ff46171f46171e46171d46171c46171b46171a46171946171846171746171646171546171446171346171246171146171046170f46170e46170d46170c46170b46170a4617094617084617074617064617054617044617034617024617017246076582180895878000d88708821a10c88a09d8a90ada880a821818c88a0ad88a08821b20c8b808821b287bb77bb9087bba107bb818821058821550821648951160320000951120ff7b10d8007b15d0007b16c8009515e0008411e08278187b18388278107b18308278087b182882777b17208317a0000a05013306700002811bb0008219a00039077000028218a8005107337b17330780000383777b180883687b1b187b19100a0701821808821910821b1839077000022003700002821aaca7c2026f879878206f99979a20d4a8089777206fbb98bb20d4b7073a0bc00003380cd000039899203a0ac80003d3b707d3c909d49707d3a808d4870752073a8217207b17408217287b17488217307b17509517408218387b1858502080028005955120ff8210d8008215d0008216c8009511e0003200330740330820502082024b37ff7c78117c79107c7a127c7b13978808d4980897aa1097bb18d4ba0ad4a8087c79157c7a147c7b167c7c17979908d4a90997bb1097cc18d4cb0bd4b909979920d489027c79017c7a7c7b027c7c03979908d4a90997bb1097cc18d4cb0bd4b9097c7a057c7b047c7c067c760797aa08d4ba0a97cc10976618d46c0cd4ca0a97aa20d4a9097c7a197c7b187c7c1a7c761b97aa08d4ba0a97cc10976618d46c0cd4ca0a7c7b1d7c7c1c7c761e7c781f97bb08d4cb0b976610978818d46808d4b808978820d48a0a7c78097c7b087c7c0a7c760b978808d4b80897cc10976618d46c0cd4c8087c7b0d7c7c0c7c760e7c770f97bb08d4cb0b976610977718d46707d4b707977720d487076f766fa86f996f277b17387b1930d497076489d46808d47808988820d46707977720d48707520712017b192883973308207b1720502084020936ff46171f46171e46171d46171c46171b46171a46171946171846171746171646171546171446171346171246171146171046170f46170e46170d46170c46170b46170a461709461708461707461706461705461704461703a00046170279461701c300460708821828958704d88708821a38c88a09d8a90ada880ac86a0ad86a08821b30c88b0b7b19687b17607b1a70951780009518607b1b785020860241fa821788008212980082138000821a9000821838d3870bd8870c6484821928d89308dab80cc96a0bd86a0a821630c96206c9a606d8cb0ac9a606c9cb0bc94707c98708c99307d46808d4b709d48909d4b808989920978820d49808510804008376821720646850208802fe34ff8378330701646933008a020a0e01828918828a10828b0882887b79187b7a107b7b087b7832009511a07b10587b15507b1648828a18828b10828c088286d4ac08d4b609d48909989920d4b808978820d498087b17285208b4029567207b1740d86707c87c087b18387b1c10d8c805da7705c8b5057b1b18d8b5077b1a20c8a7077b17307b1608836733082033062050208c026934ff78761f821840d45808821938821a30d4a909d49808988820d45909979920d4980846171e46171d46171c46171b46171a46171946171846171746171646171546171446171346171246171146171046170f46170e46170d46170c46170b46170a46170946170846170746170646170546170446170346170246170146075208f701645682154083573308207b1750208e02d533ff46171f2546171e46171d46171c46171b46171a46171946171846171746171646171546171446171346171246171146171046170f46170e46170d46170c46170b46170a461709461708461707461706461705461704461703461702461701821830d4860a140600000000010000001408e0ffffff00000000d8850882193894987b1a3094a84607510859018215835720330820502090023b33ff46171f6446171e61330b20787b1d33026f78721c330c72787c1b46171a654617197a787b184617176546171662787b15461714747872134617126e4617116e4617106146170f63787b0e787c0d46170c6546170b6e46170a674617096946170873787b074617063a46170577787204787c0346170263461701739569c0821a40d89a09821a3894a9821a3094a94607455109b600835740330820502092029a32ff46171f46171e46171d46171c46171b46171a46171946171846171746171646171546171446171346171246171146171046170f46170e46170d46170c46170b46170a4617094617084617074617064617054617047346170373461702654617017246076482180895878000d88708821a10c88a09d8a90ada880a821818c88a0ad88a08821b20c8b808821b287bb77bb9087bba107bb818821058821550821648951160320000951120ff7b10d8007b15d0007b16c8009515e0008411e080761082788279087b1818d468077b1910d497075107980049219800492190004921880049218000024921b8004921b0004921a8004921a0004811602083188000831aa000831b603309ff33070a088017b4009777208218b800d4670749219800492190004921880049218000027b18b8007b17b0008217107b17a8008217187b17a00083188000831aa0003309ff330b2033070a10955120ff8210d8008215d0008216c8009511e0003200330740330820502094022431ff7c78117c79107c7a127c7b13978808d4980897aa1097bb18d4ba0ad4a8087c79157c7a147c7b167c7c17979908d4a90997bb1097cc18d4cb0bd4b909979920d489027c79017c7a7c7b027c7c03979908d4a90997bb1097cc18d4cb0bd4b9097c7a057c7b047c7c067c760797aa08d4ba0a97cc10976618d46c0cd4ca0a97aa20d4a9097c7a197c7b187c7c1a7c761b97aa08d4ba0a97cc10976618d46c0cd4ca0a7c7b1d7c7c1c7c761e7c781f97bb08d4cb0b976610978818d46808d4b808978820d48a0a7c78097c7b087c7c0a7c760b978808d4b80897cc10976618d46c0cd4c8087c7b0d7c7c0c7c760e7c770f97bb08d4cb0b976610977718d46707d4b707977720d487076f766fa86f996f277b17187b1910d497076489d46808d47808988820d46707977720d4870752070c017b190883973308207b1750209602e32fff46171f46171e46171d46171c46171b46171a46171946171846171746171646171546171446171346171246171146171046170f46170e46170d46170c46170b46170a461709461708461707461706461705461704461703a00046170279461701c300460708821808958704d88708821a18c88a09d8a90ada880ac86a0ad86a08821b10c88b0b7b19287b17207b1a309517409518207b1b385020980273fa821748821258821340821a50821818d3870bd8870c6484821908d89308dab80cc96a0bd86a0a821610c96206c9a606d8cb0ac9a606c9cb0bc94707c98708c99307d46808d4b709d48909d4b808989920978820d498085108040083768217646850209a02de2eff8378330701646933009c020a0e019511d07b10287b15209515308411f08278827908827a108277187b17187b1a107b190864177b1850209e0260f69551d082102882152095113032009511a07b10587b15507b1648828a18828b10828c088286d4ac08d4b609d48909989920d4b808978820d498087b17205208b6029567207b1738d86707c87c087b18407b1c08d8c805da7705c8b5057b1b10d8b5077b1a18c8a7077b17307b1683673308203306205020a002272eff78761f821838d45808821940821a30d4a909d49808988820d45909979920d4980846171e46171d46171c46171b46171a46171946171846171746171646171546171446171346171246171146171046170f46170e46170d46170c46170b46170a46170946170846170746170646170546170446170346170246170146075208fa01645682153883573308207b17285020a202922dff46171f2446171e46171d46171c46171b46171a46171946171846171746171646171546171446171346171246171146171046170f46170e46170d46170c46170b46170a461709461708461707461706461705461704461703461702461701821830d4860a140600000000010000001408e0ffffff00000000d8850882194094987b1a3094a8460751085b018217288377203308205020a402f72cff46171b73461719644617176c461715764617134946171a20461712204617113a46170d664617095646171f61461716614617046146171e6e4617146e4617036e46171d674617026746171c694617186946170e6946170c69461701694607533305727875109568c0821938d8890833066578760f78750b78760a7876087875078219409498461706758219309498461705745108b5008217288377403308205020a602512cff46171f46171e46171d46171c46171b46171a46171946171846171746171646171546171446171346171246171146171046170f46170e46170d46170c46170b46170a46170946170846170746170646170546170478760378750246170175460774821895878000d88708821a08c88a09d8a90ada880a821810c88a0ad88a08821b18c8b808821b207bb77bb9087bba107bb818821058821550821648951160320000821738017b1720821730017b1718821728017b1710821720017b1708821710017b1738821708017b1728821700017b1730492158014921500149214801492140010249217801492170014921680149216001482180012083184001831a6001831b80013309ff33070a0801821768018218600182197001821a28d3a707821a30d3a808821a38d3a909979920989920d48707d497075207308217087b678217107b67088217187b67108217207b6718955160fe8210980182159001821688019511a00132003307403308205020aa02dd2aff7c78117c79107c7a127c7b13978808d4980897aa1097bb18d4ba0ad4a8087c79157c7a147c7b167c7c17979908d4a90997bb1097cc18d4cb0bd4b909979920d489027c79017c7a7c7b027c7c03979908d4a90997bb1097cc18d4cb0bd4b9097c7a057c7b047c7c067c760797aa08d4ba0a97cc10976618d46c0cd4ca0a97aa20d4a9097c7a197c7b187c7c1a7c761b97aa08d4ba0a97cc10976618d46c0cd4ca0a7c7b1d7c7c1c7c761e7c781f97bb08d4cb0b976610978818d46808d4b808978820d48a0a7c78097c7b087c7c0a7c760b978808d4b80897cc10976618d46c0cd4c8087c7b0d7c7c0c7c760e7c770f97bb08d4cb0b976610977718d46707d4b707977720d487076f766fa86f996f277b17387b1930d497076489d46808d47808988820d46707977720d4870752070d017b192883973308207b17205020ac029b29ff46171f46171e46171d46171c46171b46171a46171946171846171746171646171546171446171346171246171146171046170f46170e46170d46170c46170b46170a461709461708461707461706461705461704461703a00046170279461701c300460708821828958704d88708821a38c88a09d8a90ada880ac86a0ad86a08821b30c88b0b7b19487b17407b1a509517609518407b1b585020ae026efa821768821278821360821a70821838d3870bd8870c6484821928d89308dab80cc96a0bd86a0a821630c96206c9a606d8cb0ac9a606c9cb0bc94707c98708c99307d46808d4b709d48909d4b808989920978820d4980851080400837682172064685020b0029528ff837833070164693300b2020a0e01828918828a10828b0882887b79187b7a107b7b087b7832009511a07b10587b15507b1648828a18828b10828c088286d4ac08d4b609d48909989920d4b808978820d498087b172852081a029567207b1730d86707c87c087b18407b1c08d8c805da7705c8b5057b1b10d8b5077b1a18c8a7077b17387b1683673308203306205020b4020128ff78761f8218306486d45808821940821b38d4b909d498089888207b1520d45909979920d4980846171e46171d46171c46171b46171a46171946171846171746171646171546171446171346171246171146171046170f46170e46170d46170c46170b46170a461709461708461707461706461705461704461703461702461701460752085901836533082064575020b6026d27ff46171f1b46171e46171d46171c46171b46171a46171946171846171746171646171546171446171346171246171146171046170f46170e46170d46170c46170b46170a461709461708461707461706461705461704461703461702461701821820821938d498081409e0ffffff00000000d89609821a4094a9948946075109ca008357203308205020b802df26ff4617176546171468461711754617107046171a6446170e6446170c6c4617156146170b6146170a764617096e4617196946170d694617086946171f46171e46171d46171c46171b4617182046170f20461707204617063a461705774617046f4617127246170372461713634617026346171673461701734607458218958760d88708821a08c88a09d8a90ada880a821810c88a0ad88a08821b18c8b808821b287bb77bb9087bba107bb818821058821550821648951160320000951138ff7b10c0007b15b8007b16b0008282188285108283088286d42308d4560cd48c0c98cc20d45808978820d4c8087b17305208a40482b7187b170882b7107b171082b7087b171882b77b172082a7187b17880082a7107b1780009567407b17a000d86707c873087b1898007b1340d83808da770882a7087b177882a77b17a8008297187b17608297107b17688297087b175882977b1770c858087b1890007b1548d858077b1250c872057b163883673308207b175020ba026825ff821aa00046171f40821b9000d4ba0882199800d45909d49808988820d4b909979920d4980846171e46171d46171c46171b46171a46171946171846171746171646171546171446171346171246171146171046170f46170e46170d46170c46170b46170a4617094617084617074617064617054617044617034617024617014607520899037b152883a73308205020bc02d424ff8213a8006f3898893878791f98893078791e98892878791d98892078791c98891878791b98891078791a9889087879198216786f69787818989838787817989830787816989828787815989820787814989818787813989810787812821c80006fca78791098990878791198a83878780f98a83078780e98a82878780d98a82078780c98a81878780b98a81078780a821b88006fb8787a0898aa08787a09988938787907988930787906988928787905988920787904988918787903988910787902821960821558d49505821470821968d4940ad45a0ad4590998aa20979920d4a909787898880878780152099b0264b8d4c307d46808d48707987720d4c808978820d48707821250821b488215408219385207740282179000821828d487071408e0ffffff00000000821aa000d88a08821a980094a8947851084d02959660d89607c875087b189800d85808da7708c8b8087b18a000d8b807c827077b17900083447b14708367833564585020be026123ff83776458821598008219700a02018217a800c867077b1670d86708821978c85909c88909d3590ad8590bdaa80b82188000821ca000c8c808c88b0bd88b0ad8c808821c880082169000c86c0cc8c808c8a808d4b70ad49808d48a0a98aa20d4b808978820d4a8085208ac0183773308205020c002ea22ff46171f46171e46171d46171c46171b46171a46171946171846171746171646171546171446171346171246171146171046170f46170e46170d46170c46170b46170a46170946170846170746170646170546170446170346170246170146078217a80095771f1408e0ffffff01000000d28707821870c878087b18a800d8780582169800c8560694658217a000c87505d8750782189000c887077b17a00082178377203308205020c2023d22ff8218086f888219106f99821a186faa821b206fbb98bc38787c1f98bc30787c1e98bc28787c1d98bc20787c1c98bc18787c1b98bc10787c1a98bc08787c19787b1898ab38787b1798ab30787b1698ab28787b1598ab20787b1498ab18787b1398ab10787b1298ab08787b11787a10989a38787a0f989a30787a0e989a28787a0d989a20787a0c989a18787a0b989a10787a0a989a08787a0978790898893878790798893078790698892878790598892078790498891878790398891078790298890878790178788217308218a8007b787b76087b75108218a0007b78188210c0008215b8008216b0009511c8003200009511a0fe7b1058017b1550017b164801951560018411f0828c10828218828608828bd42608d4cb0ad48a0a98aa20d4c808978820d4a80852087d097b16b0007b1cb8007b1298007b17188297187b1788008296108297087b17c00082977b1790007b1ba80083b73308205020c402dc20ff82189000d4680882198800821ac000d4a909d498089888207b1678d46909979920d4980852081f097c78197c79187c7a1a7c7b1b978808d4980897aa1097bb18d4ba0ad4a8087c791d7c7a1c7c7b1e7c7c1f979908d4a90997bb1097cc18d4cb0bd4b909979920d489027b12d0007c78117c79107c7a127c7b13978808d4980897aa1097bb18d4ba0ad4a8087c79157c7a147c7b167c7c17979908d4a90997bb1097cc18d4cb0bd4b909979920d489037b13c8007c78097c79087c7a0a7c7b0b978808d4980897aa1097bb18d4ba0ad4a8087c790d7c7a0c7c7b0e7c7c0f979908d4a90997bb1097cc18d4cb0bd4b909979920d4890c7b1c387c78017c797c7a027c7b03978808d4980897aa1097bb18d4ba0ad4a8087c79057c7a047c7b067c7707979908d4a90997bb10977718d4b707d49707977720d487066f677b17706fc77b17686f377b17406f277b178000811790003308205020c6027f1fff82189000958b20d88b0c7b1c588218c000c88c0c8218800098893b821340973a05d4a909978a057b1b60c8ab0b7b1ba000d8ab08c8c90bc88b0ad39a0b7b1ad800d89a00dab800821238982a38787a0f982a30787a0e982a28787a0d982a20787a0c982a18787a0b982a10787a0a982a08787a09986a38787a07986a30787a06986a28787a05986a20787a04986a18787a03986a10787a02986a08787a018214c800984a38787a17984a30787a16984a28787a15984a20787a14984a18787a13984a10787a12984a08787a118218d000988a38787a1f988a30787a1e988a28787a1d988a20787a1c988a18787a1b988a10787a1a988a08787a19787410787208787678781864897b1c508217c000d87c07821858da8807821b6898b83b821a7097aa05d4a808983a3b97bb05d4ba0a821b78c87b0cd8bc0782138800c87303c8ca07d8a70ac83808c8a808d4460ad4920bd4ba0ac807097b19d000d87907c887077b17c800510a4c06330401821b800064b7821240da2407e44b08db27088217688e7a8216708e69da6a09da940bd4670adaa80b7b1b800064279397daa2077b1738140a00000000010000008218606487821b50daba07e4a808dbb7088ec78e39da37097b1c4864367b1358821360da9a03d4c606da680364b89398da6b08821790008577ffc87303d873078219c0008599ffc89808c8780b7b1b30d39b08d89b04da87041409e0ffffff000000008212a800d829078218b0008e8ada870a64868218b8009a8bc9ab00d8ab0a8e8b82189800c88b0b9abbc9ab0b8e0a8ebcdaba0c9a6ac97a0ac929077b1940d879098ea6daa906d4b009db9c06821948649c821858938cda890c8218788588ff7b1820c8c8087b1810c884047b142897443b821230982905d4490498330597223bd423099467957c1fd87c07946ac87a03d8a30ada770a9460c80a0a97a73b983805d4780897333b98c705d437077b17087b1830d38403d88408d87902db3802821788008578ff821758c88707821810821c20d8c80cc8c703821728d8870cc8c303987c0597383bd48c0c946bd80a08c8b80898aa05978b3bd4ba00983a05988605d80c03d36a08d86a0bda830bd30c07d48707da720b821708dab7097b1928821730dab704dab00cdab60a82188000888701821238c97203958bff7b1b306480d34306d84307d89b08db6708821b6864b78219709397da9b07d42006886601c96700d86707c97906d3a609d8a60bd8c007db9b07d3c00bd4b909db9708db860adb800cdb8304821360821928821730db87098212a80098973b649b974805d4870798483b82145097c905d4980898cc3b97aa05d4ca0a97b905821b8800c8ba0a821b78c8b808d8b80bc8ba0a8216c000c86707821b9000c8b909d8b90bc8b707d3670cd86706dacb06c88606d88608c8a808959a407b1a38d89a09c8970a7b1a30d87a07da9907c867077b1728d86707821cb000821bb800c887077b172064376446821a488218588210a000017b12a8007b1cb0007b1bb8007b17c000d4a7077b1890007b168000d46808d487079877207b1a8800d4a808978820d4870752077903d83007821bd800d34b08d84b09da8709821a48821cd000c9ac06c996087b1878d896087b1cd000d8ac09821a58821cc800c9ac0ac99a0ac98a06c94b08c978087b18707b10a000c930077b17688117c0003308205020c802b31aff6f688219786f99821a706faa821b686fbb787b1898bc38787c1f98bc30787c1e98bc28787c1d98bc20787c1c98bc18787c1b98bc10787c1a98bb08787b19787a1098ab38787b1798ab30787b1698ab28787b1598ab20787b1498ab18787b1398ab10787b1298aa08787a11787908989a38787a0f989a30787a0e989a28787a0d989a20787a0c989a18787a0b989a10787a0a9899087879097878988938787907988930787906988928787905988920787904988918787903988910787902988208821b9800821cb800d4bc098218a800821a40d8a80a8216b000946a949a787201510a39029589207b1978d88907c876087b18a800d86808da7708c8c8087b18b000d8c807c87b0b7b1b980083973308205020ca029b19ff7c78017c797c7a027c7b03978808d4980897aa1097bb18d4ba0ad4a8087c79057c7a047c7b067c7c07979908d4a90997bb1097cc18d4cb0bd4b909979920d489027c79097c7a087c7b0a7c7c0b979908d4a90997bb1097cc18d4cb0bd4b9097c7a0d7c7b0c7c7c0e7c760f97aa08d4ba0a97cc10976618d46c0cd4ca0a97aa20d4a9097c7a117c7b107c7c127c761397aa08d4ba0a97cc10976618d46c0cd4ca0a7c7b157c7c147c76167c781797bb08d4cb0b976610978818d46808d4b808978820d48a0a7c78197c7b187c7c1a7c761b978808d4b80897cc10976618d46c0cd4c8087c7b1d7c7c1c7c761e7c771f97bb08d4cb0b976610977718d46707d4b707977720d487076f7b6fa76f986f29821ac8007b1af800821ad0007b1af000821ad8007b1ae800821aa0007b1ae0007b1918017b1810017b17080195172001951800019519e0007b1b00015020cc021c9a821738017b17c800821730017b17d000821728017b17d8008218c000958720d8870982188000c89806d8860ada990a82188800c88a0ad88a0982189000c89808821928d3a909821b38d37b0bd4b90982102001821b20d38b0b821c30d36c0cd4cb0bd4b909821278821ca800821bb000821360821450520991fc28078210a000018217187b708218d8007b78088218d0007b78108218c8007b78189551a0fe82105801821550018216480195116001320000951100fe7b10f8017b15f0017b16e801951500028411f082831882841082820882867b12b0007b13a000d432087b16b800d44606d486069866207b149800d44808978820d468087b17285208880682578278187b188278107b18088278087b181082777b171882c7187b172082b7187b174882b7107b175082b7087b175882b77b176082a7187b176882a7107b177082a7087b177882971082a87b1880008298087b18880082987b1890009777209876208117b8003308207b17a8005020ce02d516ff6f68821988006f99821a90006faa98ab38787b1f98ab30787b1e98ab28787b1d98ab20787b1c98ab18787b1b98ab10787b1a98ab08787b19787a1878791046170b46170a4617094617074617064617054617044617034617024617014607989a38787a17989a30787a16989a28787a15989a20787a14989a18787a13989a10787a1298990878791178780898893878790f98893078790e98892878790d988820821ca00082169800d4c60b140900000000010000007b1988001409e0ffffff00000000821ab800d89a09821ab00094a97b1b900094b978780c51093605646b8217b8009578a0007b1840d878078218b000c878097b1938d88906da7706c8b606d8b607c8c7077b17308217a8008377203308205020d002bb15ff46171fa00046171e46171d46171c46171b46171a46171946171846171746171646171546171446171346171246171146171046170f46170e46170d46170c46170b46170a46170946170846170746170646170546170446170346170246170146078217307b1798017b1690018217387b1788018217407b1780018217687b17b8018217707b17b0018217787b17a8019517c0019518a00195198001821a80007b1aa0015020d202cbf3821788009577c08218b800d878078218b0009487821890009487510732048219c001821cc801821bd8017b1b80008212d0018218b800d8890064946483821ab000d3ac08d8ac097b1c7864a6da80097b128800821a9800c9a207c997087b1870d89708d8a209821aa000c9ab0ac99a0ac98a0a7b1a68c96c08c908077b1740c934077b173864468217a8008377403308205020d4027a14ff8218686f888219706f99821a406faa821b386fbb787b1898bc38787c1f98bc30787c1e98bc28787c1d98bc20787c1c98bc18787c1b98bc10787c1a98bb08787b19787a1098ab38787b1798ab30787b1698ab28787b1598ab20787b1498ab18787b1398ab10787b1298aa08787a11787908989a38787a0f989a30787a0e989a28787a0d989a20787a0c989a18787a0b989a10787a0a9899087879097878988938787907988930787906988928787905988920787904988918787903988910787902988808787801821780007b173801821788007b1730018217787b1728017b1620018217487b1758018217507b1750018217587b174801951760019518400195192001821a607b1a40015020d6023c95140600000000010000007b16701407a0ffffff000000008218b800d878078218b000948782189000948751077a02821778017b1778821770017b178000821768017b178800821760017b17688217209877209776208217a8008377603308205020d8020413ff6f6846171f46171e46171d46171c46171b46171a46171946171846171746171646171546171446171346171246171146171046170f46170e46170d46170c46170b46170a4617094617084617074617064617054617047878988918787903988910787902988808821970959980821ab800d89a09821ab00094a9821a900094a97878015109bb018212b800821868d828046483821cb000821a8800d3ca08d8ca0964abda8409821a980082188000c9a807c997067b169000d89706d8a809821aa000821878c9a80ac99a0ac96a0a7b1aa000c9cb08c948077b17b000c923077b17b80064368217a800837780003308205020da020d12ff8218a0006f88821990006f99821ab0006faa821bb8006fbb787b1898bc38787c1f98bc30787c1e98bc28787c1d98bc20787c1c98bc18787c1b98bc10787c1a98bb08787b19787a1098ab38787b1798ab30787b1698ab28787b1598ab20787b1498ab18787b1398ab10787b1298aa08787a11787908989a38787a0f989a30787a0e989a28787a0d989a20787a0c989a18787a0b989a10787a0a98990878790978789889387879079889307879069889287879059889207879049889187879039889107879029888087878018217787b17d800821780007b17d000821788007b17c8007b16c00082177b17f8008217087b17f0008217107b17e800951700019518e0009519c000821a187b1ae0005020dc02cc92821710018218180182190001821a0801821b287bb7107bb8187bb97bba08955100fe8210f8018215f0018216e801951100023200009511a0fa7b1058057b1550057b164805951560058411e0829a187b1a8801829a107b1a9001829a087b1a980182997b19a0018289187b19a8018289107b19b0018289087b19b80182887b18c00182787b18d8018278087b18d0018278107b18c80182761833082033075020de025510ff7b1680016f698218c8016f8b8218d0016f8c8218d8016f8a787a18787c10787b08787998a8387b18700178781f98a8307b18600178781e98a8287b18580178781d98a8207b18480178781c98a8187b18400178781b98a8107b18380178781a7b1a500198a8087b18780178781998c8387b18200178781798c8307b18180178781698c8287b18100178781598c8207b18080178781498c8187b18000178781398c8107b18f8007878127b1c280198cc087b1cf000787c1198b8387b18e80078780f98b8307b18e00078780e98b8287b18d80078780d98b8207b18d00078780c98b8187b18c80078780b98b8107b18c00078780a7b1b300198bb087b1bb800787b099898387b18b0007878079898307b18a8007878069898287b18a0007878059898207b1898007878049898187b1890007878039898107b1888007878027b1968019899087b1980007879013307203308205020e002fd0eff46171f0446171e46171d46171c46171b46171a46171946171846171746171646171546171446171346171246171146171046170f46170e46170d46170c46170b46170a461709461708461707461706461705461704461703461702461701460733084033064033075020e2028e0eff8377831920053308400a09821720058218280582193005821a38056f776f886f996faa95aa0188ab01c8b909d49a0b88bb01c88b0bd88b08c887077b1908057b1a00057b1b10057b17180549213805492130054921280549212005482140052083180005831a2005831b40053309ff33070a0801821730058218380582192805821a2005d49808d4a707d4870752077a023307403308205020e402f00dff7c78117c79107c7a127c7b13978808d4980897aa1097bb18d4ba0ad4a8087c79157c7a147c7b167c7c17979908d4a90997bb1097cc18d4cb0bd4b909979920d489027c79017c7a7c7b027c7c03979908d4a90997bb1097cc18d4cb0bd4b9097c7a057c7b047c7c067c760797aa08d4ba0a97cc10976618d46c0cd4ca0a97aa20d4a9097c7a197c7b187c7c1a7c761b97aa08d4ba0a97cc10976618d46c0cd4ca0a7c7b1d7c7c1c7c761e7c781f97bb08d4cb0b976610978818d46808d4b808978820d48a0a7c78097c7b087c7c0a7c760b978808d4b80897cc10976618d46c0cd4c8087c7b0d7c7c0c7c760e7c770f97bb08d4cb0b976610977718d46707d4b707977720d487076f766faa6f9b6f29d4b907d46a08d47808988820d46707977720d4870751070628111283a73308207b17c0017b1ac8017b19d0017b1bd8015020e602aa0cff46171f46171e46171d46171c46171b46171a46171946171846171746171646171546171446171346171246171146171046170f46170e46170d46170c46170b46170a461709461708461707461706461705461704461703a00046170279461701c3004607088218c801958704d88708821ad001c88a09d8a90ada880ac86a0ad86a08821bd801c88b0b7b19e8017b17e0017b1af001951700029518e0017b1bf8015020e8029ae3821708028212180282140002821a10028218d001d3870bd8870c64838219c801d89408dab80cc96a0bd86a0a8216d801c96206c9a606d8cb0ac9a606c9cb0bc93707c98708c99407d46808d4b709d48909d4b808989920978820d4980851080628eb1083768217c00164685020ea02910bff837833070164690a0e014921b8044921b0047b16a0049517c0049518a0044921a8045020ec02831dff821bd804821ad0048219c8048216c004d4b907d4a608d47808988820d4a707977720d4870751070628881083673308207b17607b19787b1a707b1b685020ee02250bff330b01821870821968d489091408e0ffffff00000000d88608821a7894a89498787b1f46171e46171d46171c46171b46171a46171946171846171746171646171546171446171346171246171146171046170f46170e46170d46170c46170b46170a461709461708461707461706461705461704461703461702461701460752080628eb0f7b16308216608367203308207b17585020f0028a0aff46171f6046171e46171d46171c46171b46171a46171946171846171746171646171546171446171346171246171146171046170f46170e46170d46170c46170b46170a4617094617084617074617064617054617044617034617024617014607492178044921700449216004019517800495186004492168045020f202f978ff821798047b1738821790047b1740821788047b1748821780047b175033082064675020f402e209ff7c78117c79107c7a127c7b13978808d4980897aa1097bb18d4ba0ad48a027c79017c7a7c7b027c7c03979908d4a90997bb1097cc18d4cb0bd49b037c7a157c7b147c7c167c761797aa08d4ba0a97cc10976618d46c0cd4ac047c7b057c7c047c76067c780797bb08d4cb0b976610978818d46808d4b8007c78197c7c187c761a7c791b978808d4c808976610979918d46909d4890c7c78097c79087c760a7c7a0b978808d4980897661097aa18d46a0ad48a067c781d7c791c7c7a1e7c7b1f978808d4980897aa1097bb18d4ba0ad4a8087c790d7c7a0c7c7b0e7c770f979908d4a90997bb10977718d4b707d49707d48707977720d46c0cd4c707d44008978820d42309d49808d487075107210e3308208217585020f602c708ff8218386f888219406f99821a486faa821b506fbb787b1898bc38787c1f98bc30787c1e98bc28787c1d98bc20787c1c98bc18787c1b98bc10787c1a98bb08787b19787a1098ab38787b1798ab30787b1698ab28787b1598ab20787b1498ab18787b1398ab10787b1298aa08787a11787908989a38787a0f989a30787a0e989a28787a0d989a20787a0c989a18787a0b989a10787a0a98990878790978789889387879079889307879069889287879059889207879049889187879039889107879029888087878013308208217605020f802f307ff7c78117c79107c7a127c7b13978808d4980897aa1097bb18d4ba0ad48a027c79017c7a7c7b027c7c03979908d4a90997bb1097cc18d4cb0bd49b037c7a157c7b147c7c167c761797aa08d4ba0a97cc10976618d46c0cd4ac047c7b057c7c047c76067c780797bb08d4cb0b976610978818d46808d4b8007c78197c7c187c761a7c791b978808d4c808976610979918d46909d4890c7c78097c79087c760a7c7a0b978808d4980897661097aa18d46a0ad48a067c781d7c791c7c7a1e7c7b1f978808d4980897aa1097bb18d4ba0ad4a8087c790d7c7a0c7c7b0e7c770f979908d4a90997bb10977718d4b707d49707d48707977720d46c0cd4c707d44008978820d42309d49808d487075107790c3308208217585020fa02d806ff8317e0040a8117f0047b17408217e0047b17388217e8047b17283307403308205020fc02b106ff7c78197c79187c7a1a7c7b1b978808d4980897aa1097bb18d4ba0ad4a8087c791d7c7a1c7c7b1e7c7c1f979908d4a90997bb1097cc18d4cb0bd4b909979920d489027c79117c7a107c7b127c7c13979908d4a90997bb1097cc18d4cb0bd4b9097c7a157c7b147c7c167c761797aa08d4ba0a97cc10976618d46c0cd4ca0a97aa20d4a9097c7a097c7b087c7c0a7c760b97aa08d4ba0a97cc10976618d46c0cd4ca0a7c7b0d7c7c0c7c760e7c780f97bb08d4cb0b976610978818d46808d4b808978820d48a0a7c78017c7b7c7c027c7603978808d4b80897cc10976618d46c0cd4c8087c7b057c7c047c76067c770797bb08d4cb0b976610977718d46707d4b707977720d487076f7c7b1c486faa7b1a606f987b18506f277b1758957920d87907c87806d88608da7708c8a808d8a807c87c0c821780017b17d8038217c8017b17d0038217d0017b17c8038217d8017b17c003821788017b17f803821790017b17f003821798017b17e8038217a0017b17e0038217a8017b1718048217b0017b1710048217b8017b1708048217c0017b1700047b19d0017b1920047b16c8017b1628047b18c0017b183004951740049518200495190004951ae003951bc0037b1cb8017b1c38045020fe02c5de821848821b60821a58821750d48707d4ba08d47808988820d4b707977720d4870752070b0a821740047b17d80182164804821258047b12a001821c50047b1ca801821bd001d8b7048213c801d33608d8360964677b169801da84098210c001c90c06c996087b18b001d89608d80c09c99209821cb801c9c909c989097b19c001c94707c937077b17c8018217d801c9b7077b17d00183a7330820821650502000034004ff821458821cd801d84c09821b9801d36b0ad86b08daa908c96b0ac99a00c94c0a95ab1fd8ab0384bbe0c8b4047b14d801d8b40bc83009c8690cc8bc02d3920cd89206dacb06821a48821ba001c9ab0b821a608214a801d8a40cc9cb0b821a60c9a40cd88c0ac9ab0bc98c0cd80908da3308821350c8c808d8c809821c48c8cb0bc8b909821460c8480ac8a606d88a08d8a60ac89808c8a80b8eb88e69dbb809d4b60a8e28dba9088219d0016f99989a38787a1f989a30787a1e989a28787a1d989a20787a1c989a18787a1b989a10787a1a821ac8016faa78791898990878791998a93878791798a93078791698a92878791598a92078791498a91878791398a9107879128219b0016f99787a1098aa08787a11989a38787a0f989a30787a0e989a28787a0d989a20787a0c989a18787a0b989a10787a0a821ac0016faa78790898990878790998a93878790798a93078790698a92878790598a92078790498a91878790398a910787902787a98aa08787a015208a5088217588218d801d87807d33208d83209da8709d84607d3cb08d8cb0ada870ad34607d48707da790a520a79083307403308207b16c8017b12d00164b6502002038702ff6f688219c8016f99821ad0016faa821bd8016fbb787b1898bc38787c1f98bc30787c1e98bc28787c1d98bc20787c1c98bc18787c1b98bc10787c1a98bb08787b19787a1098ab38787b1798ab30787b1698ab28787b1598ab20787b1498ab18787b1398ab10787b1298aa08787a11787908989a38787a0f989a30787a0e989a28787a0d989a20787a0c989a18787a0b989a10787a0a989908787909787898893878790798893078790698892878790598892078790498891878790398891078790298880878780133074033082050200403b301ff7c78197c79187c7a1a7c7b1b978808d4980897aa1097bb18d4ba0ad4a8087c791d7c7a1c7c7b1e7c7c1f979908d4a90997bb1097cc18d4cb0bd4b909979920d489027c79117c7a107c7b127c7c13979908d4a90997bb1097cc18d4cb0bd4b9097c7a157c7b147c7c167c761797aa08d4ba0a97cc10976618d46c0cd4ca0a97aa20d4a9097c7a097c7b087c7c0a7c760b97aa08d4ba0a97cc10976618d46c0cd4ca0a7c7b0d7c7c0c7c760e7c780f97bb08d4cb0b976610978818d46808d4b808978820d48a0a7c78017c7b7c7c027c7603978808d4b80897cc10976618d46c0cd4c8087c7b057c7c047c76067c770797bb08d4cb0b976610977718d46707d4b707977720d487076f7c6fab6f966f22952720d82708c88609d8690ada880ac8ba0a7b1bd801d8ba087b1cd001c8c808d4a70bd49808d48b0b98bb20d4a808978820d4b8085208b70583773308207b12c801502006035b00ff821ac801821828017878108218e80078780f8218e00078780e8218d80078780d8218d00078780c8218c80078780b8218c00078780a8218b800787809821830017878088218b0007878078218a8007878068218a000787805821898007878048218900078780382188800787802821880007878018218680178788218500178781882182001787817821818017878168218100178781582180801787814821800017878138218f8007878128218f0007878118218700178781f8218600178781e8218580178781d8218480178781c8218400178781b8218380178781a821bd801d4ba088219d001d46909d49808988820d4b909979920d49808821978017879195208a30483a7330820502008034bfffe46171f2046171e46171d46171c46171b46171a46171946171846171746171646171546171446171346171246171146171046170f46170e46170d46170c46170b46170a46170946170846170746170646170546170446170346170246170146078217c8019578407b18c001d87807c876087b18b8017b16a801d86808da77088217d801c88706d876078218d001c887077b17b00133074033082050200a03aafefe8218b0016f886f69821ab8016faa821bc0016fbb98bc38787c1f98bc30787c1e98bc28787c1d98bc20787c1c98bc18787c1b98bc10787c1a98bc08787c19787b1898ab38787b1798ab30787b1698ab28787b1598ab20787b1498ab18787b1398ab10787b1298ab08787b11787a10787908989a38787a0f989a30787a0e989a28787a0d989a20787a0c989a18787a0b989a10787a0a989908787909787898893878790798893078790698892878790598892078790498891878790398891078790298880878780133074033082050200c03d6fdfe7c78117c79107c7a127c7b13978808d4980897aa1097bb18d4ba0ad4a8087c79157c7a147c7b167c7c17979908d4a90997bb1097cc18d4cb0bd4b909979920d489027c79017c7a7c7b027c7c03979908d4a90997bb1097cc18d4cb0bd4b9097c7a057c7b047c7c067c760797aa08d4ba0a97cc10976618d46c0cd4ca0a97aa20d4a9097c7a197c7b187c7c1a7c761b97aa08d4ba0a97cc10976618d46c0cd4ca0a7c7b1d7c7c1c7c761e7c781f97bb08d4cb0b976610978818d46808d4b808978820d48a0a7c78097c7b087c7c0a7c760b978808d4b80897cc10976618d46c0cd4c8087c7b0d7c7c0c7c760e7c770f97bb08d4cb0b976610977718d46707d4b707977720d487076f766fab6f9a6f29d4a907d46b08d47808988820d46707977720d487075207fa018217286f779878207b19b0018219386f997b1ac001979a20d4a8087b18a0019777208218406f88988820d487077b1798019899207b19900183b73308207b1788017b1bb80150200e0362fcfe46171f46171e46171d46171c46171b46171a46171946171846171746171646171546171446171346171246171146171046170f46170e46170d46170c46170b46170a46170946170846170746170646170546170446170330461702184617016f4607558218b801958704d88709821ab001c89a08d8a80ada990ac8a609d86902821ac001c8a202951ae0027b1a821ad0017b1af802821ad8017b1af002821aa8017b1ae802821ac8017b1ae002140a00000000824451297b1a1803492110034921080349210003821a487b1a3803821a607b1a3003821a507b1a2803821a587b1a2003821a687b1a5803821a707b1a5003821a787b1a4803821a307b1a400349217803821a90017b1a7003821aa0017b1a6803821a98017b1a60037b1888037b1780037b1990039517a0039518800395196003951a4003951b2003951c00037b1298035020100387e38217a8038212b8038214a003821ab0038218b001d3870bd8870c64838219b801d89408dab80cc96a0bd86a0a8216c001c96206c9a606d8cb0ac9a606c9cb0bc93707c98708c99407d46808d4b709d48909d4b808989920978820d498085108f00000492150024921480249214002140700000000717b484e951840027b17580233075020120340fbfe49213802492130024921200232330704951820024921280233001803281dfbfe492190024921880249218002140700000000717b484e951880027b179802330750201403f9fafe4921780249217002492160023233070495186002492168023300180328d6fafe4921d0024921c8024921c002140700000000717b484e9518c0027b17d802330750201603b2fafe4921b8024921b0024921a002413307049518a0024921a8025020180393fafe330824330750201a03d7f9fe83783307013309240a0e0183768217880164683300ea0228b9f9fe9511a07b10587b15507b1648828a18828b10828c088286d4ac08d4b609d48909989920d4b808978820d498087b1728520816029567207b1730d86707c87c087b18407b1c08d8c805da7705c8b5057b1b10d8b5077b1a18c8a7077b17387b16836733082033062050201c034ef9fe78761f8218306486d45808821940821b38d4b909d498089888207b1520d45909979920d4980846171e46171d46171c46171b46171a46171946171846171746171646171546171446171346171246171146171046170f46170e46170d46170c46170b46170a4617094617084617074617064617054617044617034617024617014607520855018365330820645750201e03baf8fe46171f1646171e46171d46171c46171b46171a46171946171846171746171646171546171446171346171246171146171046170f46170e46170d46170c46170b46170a461709461708461707461706461705461704461703461702461701821820821938d498081409e0ffffff00000000d89609821a4094a9948946075109c600835720330820502020032cf8fe46171f46171e46171d46171c46171b46171a4617194617184617174617164617156c4617146c4617136146171263330c20787c114617107446170f6e46170e6146170d7246170c7446170b6e46170a654617096546170872787c074617063a461705774617046f4617037246170263461701734607458218958760d88708821a08c88a09d8a90ada880a821810c88a0ad88a08821b18c8b808821b287bb77bb9087bba107bb8188210588215508216489511603200009511e0fe7b1018017b1510017b160801951520018411e064764921d8004921d0004921c8004921c000054921f8004921f0004921e8004921e0004821a000208318c000831ae000831ba0003309ff33070a08018217f8008218e8008219e000821af000d48707859801d4a808d4870752075d014921d8004921d0004921c8004921c000054921f8004921f0004921e8004921e0004821a000208318c000831ae000831ba0003309ff33070a084921d8004921d0004921c8004921c000054921f8004921f0004921e8004921e000028318c000831ae0003309ff330b2033070a1095174033002203951140fd7b10b8027b15b0027b16a8029515c0028411e064167b67184926b8014926b0014926a8014926a0018367a0010a112809108217407b17188217487b17108217507b17088217587b174921d8004921d0004921c8004921c000054921f8004921f0004921e8004921e0004821a000208318c000831ae000831ba0003309ff33070a084921d8004921d0004921c8004921c000054921f8004921f0004921e8004921e000018318c000831ae0003309ff330b2033070a1082177b67188217087b67108217107b67088217187b679551e0fe821018018215100182160801951120013200330740330820502024039df5fe7c78117c79107c7a127c7b13978808d4980897aa1097bb18d4ba0ad4a8087c79157c7a147c7b167c7c17979908d4a90997bb1097cc18d4cb0bd4b909979920d489027c79017c7a7c7b027c7c03979908d4a90997bb1097cc18d4cb0bd4b9097c7a057c7b047c7c067c760797aa08d4ba0a97cc10976618d46c0cd4ca0a97aa20d4a9097c7a197c7b187c7c1a7c761b97aa08d4ba0a97cc10976618d46c0cd4ca0a7c7b1d7c7c1c7c761e7c781f97bb08d4cb0b976610978818d46808d4b808978820d48a0a7c78097c7b087c7c0a7c760b978808d4b80897cc10976618d46c0cd4c8087c7b0d7c7c0c7c760e7c770f97bb08d4cb0b976610977718d46707d4b707977720d487076f766fa86f996f277b17187b1910d497076489d46808d47808988820d46707977720d48707520711017b190883973308207b17502026035cf4fe46171f46171e46171d46171c46171b46171a46171946171846171746171646171546171446171346171246171146171046170f46170e46170d46170c46170b46170a461709461708461707461706461705461704461703a00046170279461701c300460708821808958704d88708821a18c88a09d8a90ada880ac86a0ad86a08821b10c88b0b7b19687b17607b1a70951780009518607b1b785020280307fa821788008212980082138000821a9000821818d3870bd8870c6484821908d89308dab80cc96a0bd86a0a821610c96206c9a606d8cb0ac9a606c9cb0bc94707c98708c99307d46808d4b709d48909d4b808989920978820d498085108040083768217646850202a0352f3fe8378330701646933002c030a0e01827810827918827a088277d4a909d4870ad49a0a98aa20d49808978820d4a8085208ac009511e87b10107b15087b16837733082033062050202e0306f3fe46171f7446171e6e46171d7546171c6f46171b6d330c61787c1a787619461718744617176e461716654617156d46171479787c134617127078761146171074330a63787a0f46170e65330b72787b0d787b0c46170b6f787a0a4617096e461708697876074617063a3309777879054617046f787b03787a0246170173330845787882101082150882169511183200009511a07b10587b15507b1648828a18828b10828c088286d4ac08d4b609d48909989920d4b808978820d49808520824027b17109567207b1730d86707c87c087b18407b1c08d8c805da7705c8b5057b1b18d8b5077b1a20c8a7077b17387b1683673308203306205020300309f2fe821830648ad45808821940821b38d4b909d498089888207b1528d45909979920d4980878761f46171e46171d46171c46171b46171a46171946171846171746171646171546171446171346171246171146171046170f46170e46170d46170c46170b46170a46170946170846170746170646170546170446170346170246170146075208600164a683a533082064575020320373f1fe46171f2046171e46171d46171c46171b46171a46171946171846171746171646171546171446171346171246171146171046170f46170e46170d46170c46170b46170a461709461708461707461706461705461704461703461702461701821828821938d498081409e0ffffff00000000d89609821a4094a9948946075109cf0083572033082033052050203403e2f0fe46171d7546171b6d4617156d4617147946171a61461713614617127046171f7446171874461710744617166546170e6546171e6e4617176e4617096e461708697875197875117875074617063a4617057746171c6f46170b6f4617046f46170d7246170c724617037246170f6346170a6346170263461701734607458218958760d88708821a08c88a09d8a90ada880a821818c88a0ad88a08821b20c8b808821b107bb77bb9087bba107bb8188210588215508216489511603200009511e0fe7b1018017b1510017b160801951520018411e0828b10828c18828908828a7b19707b1c58d4c9087b1a8000d4ba09d489099899207b1b78d4b808978820d4980852088d098278187b18608278107b1888008278087b18900082777b179800811780003308207b176850203603b3effe7c78117c79107c7a127c7b13978808d4980897aa1097bb18d4ba0ad4a8087c79157c7a147c7b167c7c17979908d4a90997bb1097cc18d4cb0bd4b909979920d498087c79197c7a187c7b1a7c7c1b979908d4a90997bb1097cc18d4cb0bd4b9097c7a1d7c7b1c7c7c1e7c761f97aa08d4ba0a97cc10976618d46c0cd4ca0a97aa20d4a9097c7a0d7c7b0c7c7c0e7c770f97aa08d4ba0a97cc10977718d4c707d4a7076f997b19506f887b18486f769866207b16408216607b16d800821788007b17d000821790007b17c800821798007b17c0004921f8004921f0004921e8004921e0004821a000208318c000831ae000831ba0003309ff33070a088017f4009777208218f800821940d497077b16d800821988007b19d000821990007b19c800821998007b19c0007b18f8007b17f0008217487b17e8008217507b17e0008318c000831ae0003309ff330b2033070a1001821778821958d47909140700000000010000007b17401407e0ffffff0000000082188000d8780782187094877b195894975107dc07821798009579017b194888970182189000c887077b1778d4970788770182188800c887077b1750d88707821860c887077b173882176883772033082050203803eaedfe7c78017c797c7a027c7b03978808d4980897aa1097bb18d4ba0ad4a8087c79057c7a047c7b067c7c07979908d4a90997bb1097cc18d4cb0bd4b909979920d489027c79097c7a087c7b0a7c7c0b979908d4a90997bb1097cc18d4cb0bd4b9097c7a0d7c7b0c7c7c0e7c760f97aa08d4ba0a97cc10976618d46c0cd4ca0a97aa20d4a9097c7a117c7b107c7c127c761397aa08d4ba0a97cc10976618d46c0cd4ca0a7c7b157c7c147c76167c781797bb08d4cb0b976610978818d46808d4b808978820d48a0a7c78197c7b187c7c1a7c761b978808d4b80897cc10976618d46c0cd4c8087c7b1d7c7c1c7c761e7c771f97bb08d4cb0b976610977718d46707d4b707977720d487074821a000206f777b17306fa77b17286f977b17206f277b17188217507b17d0008217787b17c8008217487b17c0008216387b16d8004921f8004921f0004921e8004921e0008318c000831ae000831ba0003309ff33070a087b16d8008217507b17d0008217787b17c8008217487b17c0008217187b17f8008217207b17f0008217287b17e8008217307b17e0008318c000831ae0003309ff330b2033070a10018217409577c082188000d87807821870948782185894875107d705821798009578027b1878d8780782189000c878097b199800d88908da770882178800c878087b189000d87807821860c887077b17880082176883774033082050203a03e2ebfe7c78117c79107c7a127c7b13978808d4980897aa1097bb18d4ba0ad48a027c79017c7a7c7b027c7c03979908d4a90997bb1097cc18d4cb0bd49b037c7a157c7b147c7c167c761797aa08d4ba0a97cc10976618d46c0cd4ac047c7b057c7c047c76067c780797bb08d4cb0b976610978818d46808d4b8007c78197c7c187c761a7c791b978808d4c808976610979918d46909d4890c7c78097c79087c760a7c7a0b978808d4980897661097aa18d46a0ad48a067c781d7c791c7c7a1e7c7b1f978808d4980897aa1097bb18d4ba0ad4a8087c790d7c7a0c7c7b0e7c770f979908d4a90997bb10977718d4b707d49707d48707d46c0c977720d4c707d44008d42309978820d49808d487078e777b1760821788007b17d800821790007b17d000821798007b17c8008216787b16c0004921f8004921f0004921e8004921e0004821a000208318c000831ae000831ba0003309ff33070a088217e0008218e8008219f000821af800847700ff821b60d4b707821b88007b1bd800821b90007b1bd000821b98007b1bc8007b16c0007b1af8007b19f0007b18e8007b17e0008318c000831ae0003309ff330b2033070a1001140700000000010000007b17601407a0ffffff0000000082188000d87807821870948782185894875107b60382176883776033082050203c03f7e9fe7c781d7c791c7c7a1e7c7b1f978808d4980897aa1097bb18d4ba0ad4a8087c790d7c7a0c7c7b0e7c7c0f979908d4a90997bb1097cc18d4cb0bd4b909d498089788207c79097c7a087c7b0a7c7c0b979908d4a90997bb1097cc18d4cb0bd4b9097c7a197c7b187c7c1a7c761b97aa08d4ba0a97cc10976618d46c0cd4ca0ad4a909d498087c79157c7a147c7b167c7c17979908d4a90997bb1097cc18d4cb0bd4b9097c7a057c7b047c7c067c760797aa08d4ba0a97cc10976618d46c0cd4ca0ad4a9097c7a017c7b7c7c027c760397aa08d4ba0a97cc109766187c7b11d46c0cd4ca0a7c7c1097bb087c76127c7713d4cb0b979920976610977718d46707d4b707d4a707d49707d487078e76821788007b17d800821790007b17d000821798007b17c8008217787b17c0004921f8004921f0004921e8004921e0004821a000208318c000831ae000831ba0003309ff33070a088217e8008218f0008219f800821ae00097660884aaff00ffd46a0a821b88007b1bd800821b90007b1bd000821b98007b1bc800821b787b1bc0007b19f8007b18f0007b17e8007b1ae0008318c000831ae0003309ff330b2033070a100182176095778082188000d87807821870948782185894875107db018217688377800033082050203e031be8fe7c781d7c791c7c7a1e7c7b1f978808d4980897aa1097bb18d4ba0ad4a8087c790d7c7a0c7c7b0e7c7c0f979908d4a90997bb1097cc18d4cb0bd4b909d498089788207c79097c7a087c7b0a7c7c0b979908d4a90997bb1097cc18d4cb0bd4b9097c7a197c7b187c7c1a7c761b97aa08d4ba0a97cc10976618d46c0cd4ca0ad4a909d498087c79157c7a147c7b167c7c17979908d4a90997bb1097cc18d4cb0bd4b9097c7a057c7b047c7c067c760797aa08d4ba0a97cc10976618d46c0cd4ca0ad4a9097c7a017c7b7c7c027c760397aa08d4ba0a97cc109766187c7b11d46c0cd4ca0a7c7c1097bb087c76127c7713d4cb0b979920976610977718d46707d4b707d4a707d49707d487078e76821788007b17d800821790007b17d000821798007b17c8008217787b17c0004921f8004921f0004921e8004921e0004821a000208318c000831ae000831ba0003309ff33070a088217e8008218f0008219f800821ae00097661084aaffff00ffd46a0a821b88007b1bd800821b90007b1bd000821b98007b1bc800821b787b1bc0007b19f8007b18f0007b17e8007b1ae0008318c000831ae0003309ff330b2033070a109551e0fe8210180182151001821608019511200132000033087000028262b801826bb0018263a8013907700002826ca0015107437b6778330780000383777b687083887b6298007b6390007b6b88007b6c80000a0701826c8000826b8800826390008262980082687081874808826878ac87d90c3a08e000033a09f000033a0af800033a07e80003d3c808d3b909d49808d37307d3a209d49707d487075207470a492638024926300249262802492620020349265802492650024926480249264002482600022083682002836a4002836b00023309ff33070a0801826740028269580282684802826a50027b6768957b0188b7017b6860c87808d48b07887701c87a0c7b6a50d8ac077b6958c897077b6890007b678000d487077b6b98007b6c8800d4cb08d487075107220c492638024926300249262802492620020349265802492650024926480249264002482600022083682002836a4002836b00023309ff33070a084926380249263002492628024926200203826780007b675802826788007b675002826790007b674802826798007b67400283682002836a40023309ff330b2033070a108367c0010a058067d0017b6788008267c8017b67488267c0017b6780009517e08477e07b6798006471491718491710491708490783770a11826898008287187b67288287107b67308287087b673882877b6740492638014926300149262001a000956740019568200149262801502040036af6fe82695801826a500182674801826840017b6790007b6970d497077b689800d4a808d478089888207b6a78d4a707977720d487075207fa0a826780006f779777208268486f88988920d497077b6748978820826788006f77987720d487077b6720816798003308207b67880050204203dde3fe8268206f888269486f99826b800098ba18787a0f98ba10787a0e98ba08787a0d787b0c46170b46170a4617094617084617074617064617054617044617034617024617014607787910787818989a38787a17989a30787a16989a28787a15989a20787a14989a18787a13989a10787a1298990878791198893878791f98893078791e98892878791d98892078791c98891878791b98891078791a988808826970826b78d49b0b140900000000010000007b69481409e0ffffff00000000826a9800d89a09826a900094a97b6b800094b97878195109e8098267880083772033082050204403f5e2fe8268286f888269306f99826a386faa826b406fbb98bc38787c1f98bc30787c1e98bc28787c1d98bc20787c1c98bc18787c1b98bc10787c1a98bc08787c19787b18787a1098ab38787b1798ab30787b1698ab28787b1598ab20787b1498ab18787b1398ab10787b1298aa08787a11787908989a38787a0f989a30787a0e989a28787a0d989a20787a0c989a18787a0b989a10787a0a98990878790978789889387879079889307879069889287879059889207879049889187879039889107879029888088269489599c0826a9800d89a09826a900094a9826a800094a97878015109f308826788008377403308205020460300e2fe46171f46171e46171d46171c46171b46171a46171946171846171746171646171546171446171346171246171146171046170f46170e46170d46170c46170b46170a461709461708461707461706461705461704461703461702461701140800000000010000007b68481408a0ffffff0000000082699800d88908826990009498826980009498460751085508826788008377603308205020480362e1fe46171f46171e46171d46171c46171b46171a46171946171846171746171646171546171446171346171246171146171046170f46170e46170d46170c46170b46170a46170946170846170746170646170546170446170346170246170182684895888082699800d8890882699000949882698000949846075108c807826788008377800033082050204a03d4e0fe46171f46171e46171d46171c46171b46171a46171946171846171746171646171546171446171346171246171146171046170f46170e46170d46170c46170b46170a4617094617084617074617064617054617044617034617024617014607330820330750204c0369e0fe8268586f898268506f8a8268606f8b8268686f8c98c83878781f98c83078781e98c82878781d98c82078781c98c81878781b98c81078781a98c8087878197b6c40787c1898b83878781798b83078781698b82878781598b82078781498b81878781398b81078781298b8087878117b6b48787b1098a83878780f98a83078780e98a82878780d98a82078780c98a81878780b98a81078780a98a8087878097b6a8000787a089898387878079898307878069898287878059898207878049898187878039898107878029898087878017b698800787933072033082050204e0387dffe46171f0446171e46171d46171c46171b46171a46171946171846171746171646171546171446171346171246171146171046170f46170e46170d46170c46170b46170a46170946170846170746170646170546170446170346170246170146073308403307502050031bdffe8377836940023308400a09826758028268500282694802826a40026f7b6f876f986fa9826a707b6af800826a787b6af000826a90007b6ae800826a98007b6ae0007b6918017b6810017b670801956700019568e0007b6b0001502052039cee8367e0010a058067f0017b67788267e8017b67288267e0017b6798009517e08477e07b6790006471491718491710491708490783770a11826890008287187b67308287107b67388287087b677082877b679000330740330820502054035cdefe7c78117c79107c7a127c7b13978808d4980897aa1097bb18d4ba0ad4a8087c79157c7a147c7b167c7c17979908d4a90997bb1097cc18d4cb0bd4b909979920d489027c79017c7a7c7b027c7c03979908d4a90997bb1097cc18d4cb0bd4b9097c7a057c7b047c7c067c780797aa08d4ba0a97cc10978818d4c808d4a808978820d498037c78197c7a187c7b1a7c7c1b978808d4a80897bb1097cc18d4cb0bd4b8087c7a1d7c7b1c7c7c1e7c791f97aa08d4ba0a97cc10979918d4c909d4a909979920d4890a7c78097c79087c7b0a7c7c0b978808d4980897bb1097cc18d4cb0bd4b8087c790d7c7b0c7c7c0e7c770f979908d4b90997cc10977718d4c707d49707977720d487076f786fa76f396f2ad4a909d4870ad49a0a98aa20d49808978820d4a808520816048268286f88978920826a786faa98aa20d4a9097b6978826998006f99979920988820d498087b682883777b672033082050205603fddcfe8268306f888269386f99826a706faa826b90006fbb98bc38787c1f98bc30787c1e98bc28787c1d98bc20787c1c98bc18787c1b98bc10787c1a98bc08787c19787b18787a1098ab38787b1798ab30787b1698ab28787b1598ab20787b1498ab18787b1398ab10787b1298aa08787a11787908989a38787a0f989a30787a0e989a28787a0d989a20787a0c989a18787a0b989a10787a0a98990878790978789889387879079889307879069889287879059889207879049889187879039889107879029888087878013308208267205020580328dcfe3a080000023a090800023a0a1000023a0b1800027b6858027b6950027b6a48027b6b40028268407b6878028268487b687002826880007b686802826888007b6860028268286f888269786f99826a980097aa207b6998027b6890027b6a880249268002837983674002330803330a200a068267188268587b78188268507b78108268607b78088268687b78955140fd8210b8028215b0028216a8029511c002320033074033082050205a037adbfe7c78117c79107c7a127c7b13978808d4980897aa1097bb18d4ba0ad4a8087c79157c7a147c7b167c7c17979908d4a90997bb1097cc18d4cb0bd4b909979920d489027c79017c7a7c7b027c7c03979908d4a90997bb1097cc18d4cb0bd4b9097c7a057c7b047c7c067c780797aa08d4ba0a97cc10978818d4c808d4a808978820d498037c78197c7a187c7b1a7c7c1b978808d4a80897bb1097cc18d4cb0bd4b8087c7a1d7c7b1c7c7c1e7c791f97aa08d4ba0a97cc10979918d4c909d4a909979920d4890a7c78097c79087c7b0a7c7c0b978808d4980897bb1097cc18d4cb0bd4b8087c790d7c7b0c7c7c0e7c770f979908d4b90997cc10977718d4c707d49707977720d487076f7b6fa86f396f277b6798007b698800d497076489d4b808d478089888207b6b9000d4b707977720d48707520726017b69800083973308207b677850205c0331dafe46171f46171e46171d46171c46171b46171a46171946171846171746171646171546171446171346171246171146171046170f46170e46170d46170c46170b46170a461709461708461707461706461705461704461703a00046170279461701c30046070882688000958704d88708826a9800c88a09d8a90ada880a82689000c88a0ad88a08826b8800c88b0b7b6968017b6760017b6a700195678001956860017b6b780150205e0315e7826788018262980182638001826a900182689800d3870bd8870c648082648000d84308dab80c82699000c99a0bd89a0a82698800c99209c9a909d8cb0ac9a909c9cb0bc90707c98708c94307d49808d4b709d48909d4b808989920978820d49808510861004926d0004926c8004926c000140700000000717b484e9568c0007b67d800330750206003aad9fe4926b8004926b0004926a000113307049568a0004926a800502062038bd9fe330824330750206403cfd8fe83783307013309240a0e0183787b68980082677850206603b4d8fe837833070182699800330068030a0e019511a07b10587b15507b16489515608411f06476491118491110491108951720490150206a030ce1821730821838821920821a287b67107b68187b697b6a089551a08210588215508216489511603200951140fe7b10b8017b15b0017b16a8019515c0018411e082ab187b1b82ab107b1b0882ab087b1b1082aa7b1a18829a187b1a20829a107b1a28829a087b1a3082997b19388289187b19408289107b19488289087b195082887b18588278187b18608278107b18688278087b187082777b17784921780149217001492168013306057b16600149219801492190014921880149218001482140012083186001831a8001831b40013309ff33070a0801821798018218880182198001821a9001d48707859801d4a808d4870752077701492178014921700149216801492160010549219801492190014921880149218001482140012083186001831a8001831b40013309ff33070a084921780149217001492168014921600105492198014921900149218801492180010283186001831a80013309ff330b2033070a1082177b1798008217087b1790008217107b1788008217187b1780008217207b17b8008217287b17b0008217307b17a8008217387b17a0008217407b17d8008217487b17d0008217507b17c8008217587b17c0008217607b17f8008217687b17f0008217707b17e8009517e0009518c0009519a000951a8000821b787b1be00050206c03f4024921780149217001492168017b16600149219801492190014921880149218001482140012083186001831a8001831b40013309ff33070a084921780149217001492168017b166001492198014921900149218801492180010183186001831a80013309ff330b2033070a10955140fe8210b8018215b0018216a8019511c001320033074033082050206e0306d6fe7c78117c79107c7a127c7b13978808d4980897aa1097bb18d4ba0ad4a8087c79157c7a147c7b167c7c17979908d4a90997bb1097cc18d4cb0bd4b909979920d489027c79017c7a7c7b027c7c03979908d4a90997bb1097cc18d4cb0bd4b9097c7a057c7b047c7c067c760797aa08d4ba0a97cc10976618d46c0cd4ca0a97aa20d4a9097c7a197c7b187c7c1a7c761b97aa08d4ba0a97cc10976618d46c0cd4ca0a7c7b1d7c7c1c7c761e7c781f97bb08d4cb0b976610978818d46808d4b808978820d48a0a7c78097c7b087c7c0a7c760b978808d4b80897cc10976618d46c0cd4c8087c7b0d7c7c0c7c760e7c770f97bb08d4cb0b976610977718d46707d4b707977720d487076f766fa86f996f277b17787b1970d497076489d46808d47808988820d46707977720d48707520717017b196883973308207b176050207003c4d4fe46171f46171e46171d46171c46171b46171a46171946171846171746171646171546171446171346171246171146171046170f46170e46170d46170c46170b46170a461709461708461707461706461705461704461703a00046170279461701c300460708821868958704d88708821a78c88a09d8a90ada880ac86a0ad86a08821b70c88b0b7b1908017b1700017b1a100195172001951800017b1b1801502072036ada821728018212380182132001821a3001821878d3870bd8870c6484821968d89308dab80cc96a0bd86a0a821670c96206c9a606d8cb0ac9a606c9cb0bc94707c98708c99307d46808d4b709d48909d4b808989920978820d49808510804008376821760646850207403b4d3fe83783307016469330076030a0e01951160fe7b1098017b1590017b1688019515a0018411e082ab187b1b900082ab107b1b800082ab087b1b6882aa7b1a48829a187b1a8800829a107b1a70829a087b1a5882997b19388289187b19788289107b19608289087b194082887b18288278187b1898008278107b18508278087b183082777b1720831760010a05013306700002811b7001821960013907700002821868015107337b17330780000383777b180883687b1b187b19100a0701821808821910821b1839077000022003700002821aaca7be036f879878206f99979a20d4a8089777206fbb98bb20d4b7073a0bc00003380cd000039899203a0ac80003d3b707d3c909d49707d3a808d48707520727018217487b17a0008217387b17c0008217287b17e0008217207b1700018217687b17a8008217587b17c8008217407b17e8008217307b170801821780007b17b0008217707b17d0008217607b17f0008217507b171001821790007b17b800821788007b17d8008217787b17f800951700019518e0009519c000951aa000821b98007b1b1801330078039511a0fb7b1058047b1550047b164804951560048411e082ab187b1b6882ab107b1b7082ab087b1b7882aa7b1a8000829a187b1a8800829a107b1a9000829a087b1a980082997b19a0008289187b19588289107b19508289087b194882887b184082787b18d8008278087b18e0008278107b18e80082761833082033073300a4032892d1fe955160fe8210980182159001821688019511a001320033074033082050207a0372d1fe7c78117c79107c7a127c7b13978808d4980897aa1097bb18d4ba0ad4a8087c79157c7a147c7b167c7c17979908d4a90997bb1097cc18d4cb0bd4b909979920d489027c79017c7a7c7b027c7c03979908d4a90997bb1097cc18d4cb0bd4b9097c7a057c7b047c7c067c760797aa08d4ba0a97cc10976618d46c0cd4ca0a97aa20d4a9097c7a197c7b187c7c1a7c761b97aa08d4ba0a97cc10976618d46c0cd4ca0a7c7b1d7c7c1c7c761e7c781f97bb08d4cb0b976610978818d46808d4b808978820d48a0a7c78097c7b087c7c0a7c760b978808d4b80897cc10976618d46c0cd4c8087c7b0d7c7c0c7c760e7c770f97bb08d4cb0b976610977718d46707d4b707977720d487076f766fa86f996f277b1798007b199000d497076489d46808d47808988820d46707977720d4870752071f017b19880083973308207b17800050207c032cd0fe46171f46171e46171d46171c46171b46171a46171946171846171746171646171546171446171346171246171146171046170f46170e46170d46170c46170b46170a461709461708461707461706461705461704461703a00046170279461701c30046070882188800958704d88708821a9800c88a09d8a90ada880ac86a0ad86a08821b9000c88b0b7b1928017b1720017b1a300195174001951820017b1b380150207e035c94821748018212580182134001821a500182189800d3870bd8870c648482198800d89308dab80cc96a0bd86a0a82169000c96206c9a606d8cb0ac9a606c9cb0bc94707c98708c99307d46808d4b709d48909d4b808989920978820d498085108040083768217800064685020800315cffe83783307016469330082030a0e01828918828a10828b0882887b79187b7a107b7b087b7832009511a07b10587b15507b1648828a18828b10828c088286d4ac08d4b609d48909989920d4b808978820d498087b172852081e029567207b1730d86707c87c087b18407b1c08d8c805da7705c8b5057b1b10d8b5077b1a18c8a7077b17387b1683673308203306205020840381cefe78761f8218306486d45808821940821b38d4b909d498089888207b1520d45909979920d4980846171e46171d46171c46171b46171a46171946171846171746171646171546171446171346171246171146171046170f46170e46170d46170c46170b46170a461709461708461707461706461705461704461703461702461701460752085d018365330820645750208603edcdfe46171f1f46171e46171d46171c46171b46171a46171946171846171746171646171546171446171346171246171146171046170f46170e46170d46170c46170b46170a461709461708461707461706461705461704461703461702461701821820821938d498081409e0ffffff00000000d89609821a4094a9948946075109ce00835720330820502088035fcdfe46171b6946171e64461715644617196c4617116c46170e7446170d6e46171d654617136546170c6546171c6d46170b6d4617167946170a7946171a614617146146171061461709614617087046171f4617172046170f20461707204617063a461705774617046f46171272461703724617186346170263461701734607458218958760d88708821a08c88a09d8a90ada880a821810c88a0ad88a08821b18c8b808821b287bb77bb9087bba107bb8188210588215508216489511603200009511a07b10587b15507b1648828a18828b10828c088286d4ac08d4b609d48909989920d4b808978820d498087b172852081d029567207b1730d86707c87c087b18407b1c08d8c805da7705c8b5057b1b10d8b5077b1a18c8a7077b17387b16836733082033062050208a0333ccfe78761f8218306486d45808821940821b38d4b909d498089888207b1520d45909979920d4980846171e46171d46171c46171b46171a46171946171846171746171646171546171446171346171246171146171046170f46170e46170d46170c46170b46170a461709461708461707461706461705461704461703461702461701460752085c018365330820645750208c039fcbfe46171f1e46171e46171d46171c46171b46171a46171946171846171746171646171546171446171346171246171146171046170f46170e46170d46170c46170b46170a461709461708461707461706461705461704461703461702461701821820821938d498081409e0ffffff00000000d89609821a4094a9948946075109cd0083572033082050208e0311cbfe46171c74461717644617156e46171869461714694617116946171d6546170f6546170d6146170c6846171b754617097546171a704617087046171f46171e461716204617132046171020461707204617063a461705774617046f46170a724617037246170b6346170263461719734617127346170e73461701734607458218958760d88708821a08c88a09d8a90ada880a821810c88a0ad88a08821b18c8b808821b287bb77bb9087bba107bb8188210588215508216489511603200009511e0fe7b1018017b1510017b160801951520018411f0829b18829c108296087b1b507b1c48d4cb0b886c0194bc7b17510c770382a7187b171882a7107b172082a7087b170882a77b171082998287187b17708287107b17788287087b176882877b176095971f7b1940d89708c868088488018477e0957920d87907c8780ad88a0bda770b4921d8007b19c0007b1ac8009517e0009518c0007b1bd00050209003cbdbfe8217f8008219f0008218e800821ae0007b17587b1830d48707d49a08d478089888207b1938d49707977720d487075207d4027b1a2883a7330820502092036fc9fe821440821860c84808d8480a821968c86909c8a90bd36b0cd86b09daca09821c08d3cb0ad8bc0b821c10d88c08821048821c78c80c0cdbab08d80c0a821350821b70c83b0bc8ba0ac8c909d8c90bc8ba0a821c18d3ca0bd8ac0a821220d8920cdabc0ad32909d4b909db9a086f49989a38787a1f989a30787a1e989a28787a1d989a20787a1c989a18787a1b989a10787a1a989a08787a196f6a78791898a93878791798a93078791698a92878791598a92078791498a91878791398a9107879126f09787a1098aa08787a11989a38787a0f989a30787a0e989a28787a0d989a20787a0c989a18787a0b989a10787a0a6f3a78790898990878790998a93878790798a93078790698a92878790598a92078790498a91878790398a910787902787a98aa08787a018212605208f501821978d49207821870821a68d4a808d48707987720d49808978820d48707821a5852077201d40407d43608d48707987720d40808978820d48707821938821b30821c28520750017b1678d4a9071408e0ffffff00000000d88c0894b894785108350195c620d8c607c87b087b1820d8b808da7708c898087b1868d898077b177083227b1260836783487b181850209403aec7fe83778218188219600a0201821740c86707d86708821978821b20c8b909c88909d3b90ad8b90bdaa80b821848821a68c8a808c88b0bd88b02d8a808821c50821658c86c0c821a70c8ac0cc8c808c82808d4b70ad49808d48a0a98aa20d4b808978820d4a80852089b0083773308205020960339c7fe46171f46171e46171d46171c46171b46171a46171946171846171746171646171546171446171346171246171146171046170f46170e46170d46170c46170b46170a461709461708461707461706461705461704461703461702461701460782178218287b787b76188218307b78088218387b78109551e0fe821018018215100182160801951120013200004921b0004921a8004921a000140700000000717b484e9518a0007b17b80033075020980336c7fe49219800492190004921800041330704951880004921880050209a0317c7fe330824330750209c035bc6fe83783307013309240a0e013307330850209e0345c6fe837833070133093300a0030a0e01951160ff7b1098007b1590007b1688009515a0008411f08282828308828410828018829b829a08829c10829918380878000264764911184911104911087b187b19387b1c307b1a287b1b207b10587b14507b1348951760951840951920641a7b12405020a20381fb821770821878821960821a687b67107b68187b697b6a08955160ff8210980082159000821688009511a00032007b16606f6c8218e8006f898218e0006f8b8218d8006f8a787a18787b10787908787c98a83878781f98a83078781e98a82878781d98a82078781c98a81878781b98a81078781a7b1a2898a80878781998b83878781798b83078781698b82878781598b82078781498b81878781398b8107878127b1b2098b80878781198983878780f98983078780e98982878780d98982078780c98981878780b98981078780a7b193098980878780998c83878780798c83078780698c82878780598c82078780498c81878780398c8107878027b1c3898c8087878013307203308205020a603bfc4fe46171f0446171e46171d46171c46171b46171a46171946171846171746171646171546171446171346171246171146171046170f46170e46170d46170c46170b46170a461709461708461707461706461705461704461703461702461701460733084033075020a80353c4fe8377831900043308400a09821700048218080482191004821a18046f7b6f8c6f986fa79579027b17b000d87907c8780a7b18b800d88a08da7708c88c067b1cc000d8c6077b1bc800c8b7077b1af0007b1ac8037b19f8007b19c0037b16d0037b17d0007b17d803492118044921100449210804492100044821e003208318c003831a0004831be0033309ff33070a08017c17000452078e057b16a8007b16d0038217f0007b17c8038217f8007b17c0038217d0007b17d803492118044921100449210804492100044821e003208318c003831a0004831be0033309ff33070a08017c17010452074a078217407b17e0028217d8007b1700038217487b17e8028217e0007b1708038217507b17f0028217e8007b1710038217587b17f80295172003951800039519e002821a607b1a18035020aa032465821720037b17e800821828037b18e000821830037b18d8008216380338077800024921780249217002492168027b1760028217687b1798028217707b1790028217787b178802821780007b178002821788007b17b802821790007b17b002821798007b17a8029517c0029518a00295198002951a6002821ba0007b1ba0025020ac034bf88217c0028218c8028219d002821ad8027b1ad8017b19d0017b18c8017b17c0017b16f8018217d8007b17f0018217e0007b17e801951700029518e0019519c001821ae8007b1ae0015020ae03cb8600821700027b17e800801710027b17e000821708027b17d800821220028217280282183002821a3802821b4002821c480282165002821958027b1998017b1690017b1c88017b1b80017b1ab8017b18b0017b17a8019517a001951880017b12a0015020b0030c8e008217c8007b17d8038217c0007b17d0038217b8007b17c8038217b0007b17c003492118044921100449210804492100044821e003208318c003831a0004831be0033309ff33070a0801821708048018100482190004821ad800d3a707821ae000d3a808821ae800d3a909d49808d4870752075c078217a8007b17d0038217f0007b17c8038217f8007b17c0038216d0007b16d803492118044921100449210804492100044821e003208318c003831a0004831be0033309ff33070a08821700048218080482191004821a1804847700ff8677017b16d803821ba8007b1bd003821bf0007b1bc803821bf8007b1bc0037b1a18047b1910047b1808047b1700048318c003831a00043309ff330b2033070a1001330670000239077000025107257b17f8003307800003837783680a0701390770000220037000028218f800ac87ea083a08c000033a09c800033a07d000031406ffffffff000000008488ff7b18f8008499ff7b19f000d276068217b0009577018878018219b800c89808d48709889901821ac000c8a909d8a90a821bc800c8ba0a7b18c8037b17c0037b19d0037b1ad803492118044921100449210804492100044821e003208318c003831a0004831be0033309ff33070a08821700048218080482191004821a18047b1a18017b1910017b1808017b170001492138017b1630018217f0007b17280195172001951800018219f8007b1920015020b203126f3307403308205020b403c5bffe7c78117c79107c7a127c7b13978808d4980897aa1097bb18d4ba0ad4a8087c79157c7a147c7b167c7c17979908d4a90997bb1097cc18d4cb0bd4b909979920d489027c79017c7a7c7b027c7c03979908d4a90997bb1097cc18d4cb0bd4b9097c7a057c7b047c7c067c760797aa08d4ba0a97cc10976618d46c0cd4ca0a97aa20d4a9097c7a197c7b187c7c1a7c761b97aa08d4ba0a97cc10976618d46c0cd4ca0a7c7b1d7c7c1c7c761e7c781f97bb08d4cb0b976610978818d46808d4b808978820d48a0a7c78097c7b087c7c0a7c760b978808d4b80897cc10976618d46c0cd4c8087c7b0d7c7c0c7c760e7c770f97bb08d4cb0b976610977718d46707d4b707977720d487076f786fa76f996f2ad4a909d4870ad49a0a98aa20d49808978820d4a8085208e50683775020b60394befe3a082000023a092800023a0a3000023a0b3800027b1818047b1910047b1a08047b1b00048218207b1830048218307b1828048218387b1820048218287b183804837983170004330802330a0a069551a0fb8210580482155004821648049511600432003307403308205020b80324befe7c78117c79107c7a127c7b13978808d4980897aa1097bb18d4ba0ad4a8087c79157c7a147c7b167c7c17979908d4a90997bb1097cc18d4cb0bd4b909979920d489027c79017c7a7c7b027c7c03979908d4a90997bb1097cc18d4cb0bd4b9097c7a057c7b047c7c067c760797aa08d4ba0a97cc10976618d46c0cd4ca0a97aa20d4a9097c7a197c7b187c7c1a7c761b97aa08d4ba0a97cc10976618d46c0cd4ca0a7c7b1d7c7c1c7c761e7c781f97bb08d4cb0b976610978818d46808d4b808978820d48a0a7c78097c7b087c7c0a7c760b978808d4b80897cc10976618d46c0cd4c8087c7b0d7c7c0c7c760e7c770f97bb08d4cb0b976610977718d46707d4b707977720d487076f766fa86f996f277b17f8007b19f000d497076489d46808d47808988820d46707977720d4870752073a057b19e80083973308207b17e0005020ba03debcfe46171f46171e46171d46171c46171b46171a46171946171846171746171646171546171446171346171246171146171046170f46170e46170d46170c46170b46170a461709461708461707461706461705461704461703a00046170279461701c3004607088218e800958704d88708821af800c88a09d8a90ada880ac86a0ad86a08821bf000c88b0b7b1988037b1780037b1a90039517a003951880037b1b98035020bc034eed8217a8038212b8038213a003821ab003281b043307403308205020be0317bcfe7c78117c79107c7a127c7b13978808d4980897aa1097bb18d4ba0ad4a8087c79157c7a147c7b167c7c17979908d4a90997bb1097cc18d4cb0bd4b909979920d489027c79017c7a7c7b027c7c03979908d4a90997bb1097cc18d4cb0bd4b9097c7a057c7b047c7c067c760797aa08d4ba0a97cc10976618d46c0cd4ca0a97aa20d4a9097c7a197c7b187c7c1a7c761b97aa08d4ba0a97cc10976618d46c0cd4ca0a7c7b1d7c7c1c7c761e7c781f97bb08d4cb0b976610978818d46808d4b808978820d48a0a7c78097c7b087c7c0a7c760b978808d4b80897cc10976618d46c0cd4c8087c7b0d7c7c0c7c760e7c770f97bb08d4cb0b976610977718d46707d4b707977720d487076f766fa86f996f277b17f8007b19f000d497076489d46808d47808988820d46707977720d4870752072d037b19e80083973308207b17e0005020c003d1bafe46171f46171e46171d46171c46171b46171a46171946171846171746171646171546171446171346171246171146171046170f46170e46170d46170c46170b46170a461709461708461707461706461705461704461703a00046170279461701c3004607088218e800958704d88708821af800c88a09d8a90ada880ac86a0ad86a08821bf000c88b0b7b1948037b1740037b1a500395176003951840037b1b58035020c2038fed821768038212780382136003821a7003280e023307403308205020c4030abafe7c78117c79107c7a127c7b13978808d4980897aa1097bb18d4ba0ad4a8087c79157c7a147c7b167c7c17979908d4a90997bb1097cc18d4cb0bd4b909979920d489027c79017c7a7c7b027c7c03979908d4a90997bb1097cc18d4cb0bd4b9097c7a057c7b047c7c067c760797aa08d4ba0a97cc10976618d46c0cd4ca0a97aa20d4a9097c7a197c7b187c7c1a7c761b97aa08d4ba0a97cc10976618d46c0cd4ca0a7c7b1d7c7c1c7c761e7c781f97bb08d4cb0b976610978818d46808d4b808978820d48a0a7c78097c7b087c7c0a7c760b978808d4b80897cc10976618d46c0cd4c8087c7b0d7c7c0c7c760e7c770f97bb08d4cb0b976610977718d46707d4b707977720d487076f766fa86f996f277b17f8007b19f000d497076489d46808d47808988820d46707977720d48707520720017b19e80083973308207b17e0005020c603c4b8fe46171f46171e46171d46171c46171b46171a46171946171846171746171646171546171446171346171246171146171046170f46170e46170d46170c46170b46170a461709461708461707461706461705461704461703a00046170279461701c3004607088218e800958704d88708821af800c88a09d8a90ada880ac86a0ad86a08821bf000c88b0b7b1948017b1740017b1a500195176001951840017b1b58015020c8038e89821768018212780182136001821a7001018218f800d3870bd8870c64848219e800d89308dab80cc96a0bd86a0a8216f000c96206c9a606d8cb0ac9a606c9cb0bc94707c98708c99307d46808d4b709d48909d4b808989920978820d498085108040083768217e00064685020ca03acb7fe837833070164693300cc030a0e01951130ff7b10c8007b15c0007b16b8009515d0008411f0827b7b1b28827b087b1b20827b107b1b188277187b171082877b17088280088286108284188293829208829c10829b1882a982a80882a71082aa187b1a487b17407b18387b19307b1b687b1c607b12587b13507b1488007b1680007b10788217087b17708217107b17a8008217187b17a0008217207b17980095179000951870951950951a30821b287b1b90005020ce03a6de955130ff8210c8008215c0008216b8009511d00032009511a07b10587b15507b1648828a18828b10828c088286d4ac08d4b609d48909989920d4b808978820d498087b17285208b2029567207b1740d86707c87c087b18387b1c10d8c805da7705c8b5057b1b18d8b5077b1a20c8a7077b17307b160883673308203306205020d0036fb6fe78761f821840d45808821938821a30d4a909d49808988820d45909979920d4980846171e46171d46171c46171b46171a46171946171846171746171646171546171446171346171246171146171046170f46170e46170d46170c46170b46170a46170946170846170746170646170546170446170346170246170146075208f501645682154083573308207b175020d203dbb5fe46171f2146171e46171d46171c46171b46171a46171946171846171746171646171546171446171346171246171146171046170f46170e46170d46170c46170b46170a461709461708461707461706461705461704461703461702461701821830d4860a140600000000010000001408e0ffffff00000000d8850882193894987b1a3094a846075108570182158357203308205020d40341b5fe46171a664617176846171d7446171674461714744617126e46170f694617186546170c6546170b6c46170a6c46171b614617096146171920461715204617112046170e20461707204617063a4617057746171e6f4617136f4617046f46171f7246170d724617037246171c63461708634617026346171073461701739568c0821940d88908821938949882193094984607455108b2008357403308205020d6039eb4fe46171f46171e46171d46171c46171b46171a46171946171846171746171646171546171446171346171246171146171046170f46170e46170d46170c46170b46170a46170946170846170746170646170546170446170346170246170146077982180895878000d88708821a10c88a09d8a90ada880a821818c88a0ad88a08821b20c8b808821b287bb77bb9087bba107bb818821058821550821648951160320000951120ff7b10d8007b15d0007b16c8009515e0008411e08278187b18388278107b18308278087b182882777b17208317a0000a05013306700002811bb0008219a00039077000028218a8005107337b17330780000383777b180883687b1b187b19100a0701821808821910821b1839077000022003700002821aaca7c2026f879878206f99979a20d4a8089777206fbb98bb20d4b7073a0b800003380c9000039899203a0a880003d3b707d3c909d49707d3a808d4870752073a8217207b17408217287b17488217307b17509517408218387b18585020d8038402955120ff8210d8008215d0008216c8009511e00032003307403308205020da03feb2fe7c78117c79107c7a127c7b13978808d4980897aa1097bb18d4ba0ad4a8087c79157c7a147c7b167c7c17979908d4a90997bb1097cc18d4cb0bd4b909979920d489027c79017c7a7c7b027c7c03979908d4a90997bb1097cc18d4cb0bd4b9097c7a057c7b047c7c067c760797aa08d4ba0a97cc10976618d46c0cd4ca0a97aa20d4a9097c7a197c7b187c7c1a7c761b97aa08d4ba0a97cc10976618d46c0cd4ca0a7c7b1d7c7c1c7c761e7c781f97bb08d4cb0b976610978818d46808d4b808978820d48a0a7c78097c7b087c7c0a7c760b978808d4b80897cc10976618d46c0cd4c8087c7b0d7c7c0c7c760e7c770f97bb08d4cb0b976610977718d46707d4b707977720d487076f766fa86f996f277b17387b1930d497076489d46808d47808988820d46707977720d48707520712017b192883973308207b17205020dc03bcb1fe46171f46171e46171d46171c46171b46171a46171946171846171746171646171546171446171346171246171146171046170f46170e46170d46170c46170b46170a461709461708461707461706461705461704461703a00046170279461701c300460708821828958704d88708821a38c88a09d8a90ada880ac86a0ad86a08821b30c88b0b7b19687b17607b1a70951780009518607b1b785020de0345fa821788008212980082138000821a9000821838d3870bd8870c6484821928d89308dab80cc96a0bd86a0a821630c96206c9a606d8cb0ac9a606c9cb0bc94707c98708c99307d46808d4b709d48909d4b808989920978820d4980851080400837682172064685020e003b1b0fe837833070164693300e2030a0e01951100ff7b10f8007b15f0007b16e800951500018411e08278187b188278107b18088278087b181082777b17184921b8004921b0004921a8003306057b16a0004921d8004921d0004921c8004921c00048218000208318a000831ac000831b80003309ff33070a08018217d8008218c8008219c000821ad000d48707859801d4a808d48707520749014921b8004921b0004921a8004921a000054921d8004921d0004921c8004921c00048218000208318a000831ac000831b80003309ff33070a084921b8004921b0004921a8004921a000054921d8004921d0004921c8004921c000028318a000831ac0003309ff330b2033070a1082177b17388217087b17308217107b17289517208218187b18203300e4039511e0fe7b1018017b1510014921080105951520018411e082787b18388278087b18308278107b182882761833082033073300f8032853affe4921b8004921b0004921a8007b16a0004921d8004921d0004921c8004921c00048218000208318a000831ac000831b80003309ff33070a084921b8004921b0004921a8007b16a0004921d8004921d0004921c8004921c000018318a000831ac0003309ff330b2033070a10955100ff8210f8008215f0008216e8009511000132003307403308205020e603c8aefe7c78117c79107c7a127c7b13978808d4980897aa1097bb18d4ba0ad4a8087c79157c7a147c7b167c7c17979908d4a90997bb1097cc18d4cb0bd4b909979920d489027c79017c7a7c7b027c7c03979908d4a90997bb1097cc18d4cb0bd4b9097c7a057c7b047c7c067c760797aa08d4ba0a97cc10976618d46c0cd4ca0a97aa20d4a9097c7a197c7b187c7c1a7c761b97aa08d4ba0a97cc10976618d46c0cd4ca0a7c7b1d7c7c1c7c761e7c781f97bb08d4cb0b976610978818d46808d4b808978820d48a0a7c78097c7b087c7c0a7c760b978808d4b80897cc10976618d46c0cd4c8087c7b0d7c7c0c7c760e7c770f97bb08d4cb0b976610977718d46707d4b707977720d487076f766fa86f996f277b17187b1910d497076489d46808d47808988820d46707977720d4870752070c017b190883973308207b175020e80387adfe46171f46171e46171d46171c46171b46171a46171946171846171746171646171546171446171346171246171146171046170f46170e46170d46170c46170b46170a461709461708461707461706461705461704461703a00046170279461701c300460708821808958704d88708821a18c88a09d8a90ada880ac86a0ad86a08821b10c88b0b7b19487b17407b1a509517609518407b1b585020ea0333b3821768821278821360821a70821818d3870bd8870c6484821908d89308dab80cc96a0bd86a0a821610c96206c9a606d8cb0ac9a606c9cb0bc94707c98708c99307d46808d4b709d48909d4b808989920978820d49808510804008376821764685020ec0382acfe837833070164693300ee030a0e01827810827918827a088277d4a909d4870ad49a0a98aa20d49808978820d4a80852089e009511f07b10087b1583773308203305205020f00339acfe46171f46171e46171d46171c46171b46171a461719461718461717461716461715461714654617137446171261461711744617107378750f46170e64330a69787a0d330b6c787b0c46170b6146170a764617096e787a087875074617063a461705774617046f4617037233096378790246170173330845787882100882159511103200009511a07b10587b15507b1648828a18828b10828c088286d4ac08d4b609d48909989920d4b808978820d498087b1728520815029567207b1730d86707c87c087b18407b1c08d8c805da7705c8b5057b1b10d8b5077b1a18c8a7077b17387b1683673308203306205020f20347abfe78761f8218306486d45808821940821b38d4b909d498089888207b1520d45909979920d4980846171e46171d46171c46171b46171a46171946171846171746171646171546171446171346171246171146171046170f46170e46170d46170c46170b46170a461709461708461707461706461705461704461703461702461701460752085401836533082064575020f403b3aafe46171f1546171e46171d46171c46171b46171a46171946171846171746171646171546171446171346171246171146171046170f46170e46170d46170c46170b46170a461709461708461707461706461705461704461703461702461701821820821938d498081409e0ffffff00000000d89609821a4094a9948946075109c5008357203308205020f60325aafe46171f46171e46171d46171c46171b46171a4617194617184617174617164617154617146546171374461712614617117446171073330c20787c0f46170e6446170d6946170c6c46170b6146170a764617096e46170869787c074617063a461705774617046f4617037246170263461701734607458218958760d88708821a08c88a09d8a90ada880a821810c88a0ad88a08821b18c8b808821b287bb77bb9087bba107bb8188210588215508216489511603200006f688219286f99821a306faa821b386fbb787b18787a10787908787898bc38787c1f98bc30787c1e98bc28787c1d98bc20787c1c98bc18787c1b98bc10787c1a98bb08787b1998ab38787b1798ab30787b1698ab28787b1598ab20787b1498ab18787b1398ab10787b1298aa08787a11989a38787a0f989a30787a0e989a28787a0d989a20787a0c989a18787a0b989a10787a0a9899087879099889387879079889307879069889287879059889207879049889187879039889107879029888087878013307203308205020fa039fa8fe46171f0446171e46171d46171c46171b46171a46171946171846171746171646171546171446171346171246171146171046170f46170e46170d46170c46170b46170a461709461708461707461706461705461704461703461702461701460733084033075020fc0333a8fe83778319e0003308400a098217e0008218e8008219f000821af8006f7b6f886f996fa7957a027b1710d87a07c8790c7b1918d89c06da7706c886067b1808d886077b1b20c8b7077b1c307b1cc8007b1a387b1ac0007b16d0007b17287b17d8004921f8004921f0004921e8004921e00048210001208318c000831ae000831b00013309ff33070a08017c17e1005107f5017b16d0008217307b17c8008217387b17c0008217287b17d8004921f8004921f0004921e8004921e00048210001208318c000831ae000831b00013309ff33070a08017c17e2005207ab017b16d0008217307b17c8008217387b17c0007b168216287b16d8004921f8004921f0004921e8004921e00048210001208318c000831ae000831b00013309ff33070a088217e8008218f0008219e000821af8008499ffff00ff86990000017b16d800821b7b1bd000821b307b1bc800821b387b1bc0007b1af8007b18f0007b17e8007b19e0008318c000831ae0003309ff330b2033070a108217207b17d8008216087b16d0008217187b17c8008217107b17c0004921f8004921f0004921e8004921e00048210001208318c000831ae000831b00013309ff33070a088217e0007b17388217e8007b17308017f0007b1728821710957701887801821918c89808d48709889901c86909d8690a821b20c8ba0a7b1ad8007b19d0007b18c8007b17c0004921f8004921f0004921e8004921e00048210001208318c000831ae000831b00013309ff33070a088217e0008218e8008219f000821af8007b1a98007b1990007b1888007b1780004921b8008217287b17b0008217307b17a8009517a000951880008219387b19a0005020fe0307559551e0fe82101801821510018216080195112001320033074033082050200004a4a5fe7c78117c79107c7a127c7b13978808d4980897aa1097bb18d4ba0ad4a8087c79157c7a147c7b167c7c17979908d4a90997bb1097cc18d4cb0bd4b909979920d489027c79017c7a7c7b027c7c03979908d4a90997bb1097cc18d4cb0bd4b9097c7a057c7b047c7c067c760797aa08d4ba0a97cc10976618d46c0cd4ca0a97aa20d4a9097c7a197c7b187c7c1a7c761b97aa08d4ba0a97cc10976618d46c0cd4ca0a7c7b1d7c7c1c7c761e7c781f97bb08d4cb0b976610978818d46808d4b808978820d48a0a7c78097c7b087c7c0a7c760b978808d4b80897cc10976618d46c0cd4c8087c7b0d7c7c0c7c760e7c770f97bb08d4cb0b976610977718d46707d4b707977720d487076f766fa86f996f277b17387b1930d497076489d46808d47808988820d46707977720d4870752070d017b192883973308207b17205020020462a4fe46171f46171e46171d46171c46171b46171a46171946171846171746171646171546171446171346171246171146171046170f46170e46170d46170c46170b46170a461709461708461707461706461705461704461703a00046170279461701c300460708821828958704d88708821a38c88a09d8a90ada880ac86a0ad86a08821b30c88b0b7b19487b17407b1a509517609518407b1b585020040415f8821768821278821360821a70821838d3870bd8870c6484821928d89308dab80cc96a0bd86a0a821630c96206c9a606d8cb0ac9a606c9cb0bc94707c98708c99307d46808d4b709d48909d4b808989920978820d498085108040083768217206468502006045ca3fe83783307016469330008040a0e019511d07b10287b15209515308411f08278827908827a108277187b17187b1a107b190864177b1850200a042bef9551d082102882152095113032009511a07b10587b15507b1648828a18828b10828c088286d4ac08d4b609d48909989920d4b808978820d498087b1728520820029567207b1730d86707c87c087b18407b1c08d8c805da7705c8b5057b1b10d8b5077b1a18c8a7077b17387b16836733082033062050200c04a5a2fe78761f8218306486d45808821940821b38d4b909d498089888207b1520d45909979920d4980846171e46171d46171c46171b46171a46171946171846171746171646171546171446171346171246171146171046170f46170e46170d46170c46170b46170a461709461708461707461706461705461704461703461702461701460752085f018365330820645750200e0411a2fe46171f1f46171e46171d46171c46171b46171a46171946171846171746171646171546171446171346171246171146171046170f46170e46170d46170c46170b46170a461709461708461707461706461705461704461703461702461701821820821938d498081409e0ffffff00000000d89609821a4094a9948946075109d0008357203308205020100483a1fe46171f46171e7246171d6546171c7946171b7546171a624617192046171865461717684617167446171520461714744617136f4617126e461711204617107346170f6946170e2046170d7246170c6546170b6c46170a6c4617096146170863461707204617063a330c77787c054617046f4617037246170263461701734607458218958760d88708821a08c88a09d8a90ada880a821810c88a0ad88a08821b18c8b808821b287bb77bb9087bba107bb8188210588215508216489511603200009511a07b10587b15507b1648828a18828b10828c088286d4ac08d4b609d48909989920d4b808978820d498087b172852081d029567207b1730d86707c87c087b18407b1c08d8c805da7705c8b5057b1b10d8b5077b1a18c8a7077b17387b1683673308203306205020120455a0fe78761f8218306486d45808821940821b38d4b909d498089888207b1520d45909979920d4980846171e46171d46171c46171b46171a46171946171846171746171646171546171446171346171246171146171046170f46170e46170d46170c46170b46170a461709461708461707461706461705461704461703461702461701460752085c018365330820645750201404c19ffe46171f1e46171e46171d46171c46171b46171a46171946171846171746171646171546171446171346171246171146171046170f46170e46170d46170c46170b46170a461709461708461707461706461705461704461703461702461701821820821938d498081409e0ffffff00000000d89609821a4094a9948946075109cd0083572033082050201604339ffe461716794617116c46171961461714614617106146171c654617136546170e6546170d7446170c7546170b7046171a694617096946171d64461715644617086446171f46171e4617172046170f20461707204617063a461705774617046f4617187246171272461703724617026346171b7346170a73461701734607458218958760d88708821a08c88a09d8a90ada880a821810c88a0ad88a08821b18c8b808821b287bb77bb9087bba107bb8188210588215508216489511603200006f698218486f8a8218506f8c8218586f8b787b18787c10787a08787998b83878781f98b83078781e98b82878781d98b82078781c98b81878781b98b81078781a7b1b1098b80878781998c83878781798c83078781698c82878781598c82078781498c81878781398c8107878127b1c0898c80878781198a83878780f98a83078780e98a82878780d98a82078780c98a81878780b98a81078780a7b1a1898a8087878099898387878079898307878069898287878059898207878049898187878039898107878027b192098980878780133072033082050201a04999dfe46171f0446171e46171d46171c46171b46171a46171946171846171746171646171546171446171346171246171146171046170f46170e46170d46170c46170b46170a4617094617084617074617064617054617044617034617024617014607330840330750201c042d9dfe8377831980013308400a09821798018218900182198801821a80016f777b17506f877b17306f977b17586fa6831720010a058217280182182001811930016f77987a206f88978b20d4ba0a7b1a489777206f99989920d497077b17409888207b18387b16287b1678018216308217587b1770017b1668018217507b17600149219801492190014921880149218001482140012083186001831a8001831b40013309ff33070a0801801790018218800182198801821a38d3a707821a40d3a808d48707821848d39808d487075207f402821750957802d87807c87609d86906da7706821758c8670a6496d87a07821928c897077b18587b1860017b1668017b1a507b1a70017b17487b17780149219801492190014921880149218001482140012083186001831a8001831b40013309ff33070a08017c17800152078d048217507b1770017b1668018217587b1760018217487b17780149219801492190014921880149218001482140012083186001831a8001831b40013309ff33070a08017c178101520749068217507b1770017b1668017b16408217587b1760018216487b16780149219801492190014921880149218001482140012083186001831a8001831b40013309ff33070a08821788018218900182198001821a98018499ff00ff869900017b167801821b507b1b7001821b407b1b6801821b587b1b60017b1a98017b1890017b1788017b19800183186001831a80013309ff330b2033070a1033074033082050201e04029bfe7c78117c79107c7a127c7b13978808d4980897aa1097bb18d4ba0ad4a8087c79157c7a147c7b167c7c17979908d4a90997bb1097cc18d4cb0bd4b909979920d489027c79017c7a7c7b027c7c03979908d4a90997bb1097cc18d4cb0bd4b9097c7a057c7b047c7c067c760797aa08d4ba0a97cc10976618d46c0cd4ca0a97aa20d4a9097c7a197c7b187c7c1a7c761b97aa08d4ba0a97cc10976618d46c0cd4ca0a7c7b1d7c7c1c7c761e7c781f97bb08d4cb0b976610978818d46808d4b808978820d48a0a7c78097c7b087c7c0a7c760b978808d4b80897cc10976618d46c0cd4c8087c7b0d7c7c0c7c760e7c770f97bb08d4cb0b976610977718d46707d4b707977720d487076f786fa76f996f2ad4a909d4870ad49a0a98aa20d49808978820d4a8085208c806837750202004d199fe3a084000023a094800023a0a5000023a0b5800027b1898017b1990017b1a88017b1b80018218087b18b0018218187b18a8018218207b18a0018218107b18b801837983178001330802330a0a06955120fe8210d8018215d0018216c8019511e0013200330740330820502022046199fe7c78117c79107c7a127c7b13978808d4980897aa1097bb18d4ba0ad4a8087c79157c7a147c7b167c7c17979908d4a90997bb1097cc18d4cb0bd4b909979920d489027c79017c7a7c7b027c7c03979908d4a90997bb1097cc18d4cb0bd4b9097c7a057c7b047c7c067c760797aa08d4ba0a97cc10976618d46c0cd4ca0a97aa20d4a9097c7a197c7b187c7c1a7c761b97aa08d4ba0a97cc10976618d46c0cd4ca0a7c7b1d7c7c1c7c761e7c781f97bb08d4cb0b976610978818d46808d4b808978820d48a0a7c78097c7b087c7c0a7c760b978808d4b80897cc10976618d46c0cd4c8087c7b0d7c7c0c7c760e7c770f97bb08d4cb0b976610977718d46707d4b707977720d487076f766fa86f996f277b17587b1950d497076489d46808d47808988820d46707977720d4870752071f057b194883973308207b1740502024041f98fe46171f46171e46171d46171c46171b46171a46171946171846171746171646171546171446171346171246171146171046170f46170e46170d46170c46170b46170a461709461708461707461706461705461704461703a00046170279461701c300460708821848958704d88708821a58c88a09d8a90ada880ac86a0ad86a08821b50c88b0b7b19e8007b17e0007b1af000951700019518e0007b1bf800502026046ef4821708018212180182130001821a1001280804330740330820502028045b97fe7c78117c79107c7a127c7b13978808d4980897aa1097bb18d4ba0ad4a8087c79157c7a147c7b167c7c17979908d4a90997bb1097cc18d4cb0bd4b909979920d489027c79017c7a7c7b027c7c03979908d4a90997bb1097cc18d4cb0bd4b9097c7a057c7b047c7c067c760797aa08d4ba0a97cc10976618d46c0cd4ca0a97aa20d4a9097c7a197c7b187c7c1a7c761b97aa08d4ba0a97cc10976618d46c0cd4ca0a7c7b1d7c7c1c7c761e7c781f97bb08d4cb0b976610978818d46808d4b808978820d48a0a7c78097c7b087c7c0a7c760b978808d4b80897cc10976618d46c0cd4c8087c7b0d7c7c0c7c760e7c770f97bb08d4cb0b976610977718d46707d4b707977720d487076f766fa86f996f277b17587b1950d497076489d46808d47808988820d46707977720d48707520719037b194883973308207b174050202a041996fe46171f46171e46171d46171c46171b46171a46171946171846171746171646171546171446171346171246171146171046170f46170e46170d46170c46170b46170a461709461708461707461706461705461704461703a00046170279461701c300460708821848958704d88708821a58c88a09d8a90ada880ac86a0ad86a08821b50c88b0b7b19a8007b17a0007b1ab0009517c0009518a0007b1bb80050202c048cc68217c8008212d8008213c000821ad00028020233074033082050202e045595fe7c78117c79107c7a127c7b13978808d4980897aa1097bb18d4ba0ad4a8087c79157c7a147c7b167c7c17979908d4a90997bb1097cc18d4cb0bd4b909979920d489027c79017c7a7c7b027c7c03979908d4a90997bb1097cc18d4cb0bd4b9097c7a057c7b047c7c067c760797aa08d4ba0a97cc10976618d46c0cd4ca0a97aa20d4a9097c7a197c7b187c7c1a7c761b97aa08d4ba0a97cc10976618d46c0cd4ca0a7c7b1d7c7c1c7c761e7c781f97bb08d4cb0b976610978818d46808d4b808978820d48a0a7c78097c7b087c7c0a7c760b978808d4b80897cc10976618d46c0cd4c8087c7b0d7c7c0c7c760e7c770f97bb08d4cb0b976610977718d46707d4b707977720d487076f766fa86f996f277b17587b1950d497076489d46808d47808988820d46707977720d48707520713017b194883973308207b1740502030041394fe46171f46171e46171d46171c46171b46171a46171946171846171746171646171546171446171346171246171146171046170f46170e46170d46170c46170b46170a461709461708461707461706461705461704461703a00046170279461701c300460708821848958704d88708821a58c88a09d8a90ada880ac86a0ad86a08821b50c88b0b7b19687b17607b1a70951780009518607b1b7850203204b7f2821788008212980082138000821a900001821858d3870bd8870c6484821948d89308dab80cc96a0bd86a0a821650c96206c9a606d8cb0ac9a606c9cb0bc94707c98708c99307d46808d4b709d48909d4b808989920978820d498085108040083768217406468502034040793fe83783307016469330036040a0e01951120ff7b10d8007b15d0007b16c8009515e0008411e08278187b18388278107b18308278087b182882777b17208317a0000a05013306700002811bb0008219a00039077000028218a8005107337b17330780000383777b180883687b1b187b19100a0701821808821910821b1839077000022003700002821aaca7c2026f879878206f99979a20d4a8089777206fbb98bb20d4b7073a0b800003380c9000039899203a0a880003d3b707d3c909d49707d3a808d4870752073a8217207b17408217287b17488217307b17509517408218387b1858502038048402955120ff8210d8008215d0008216c8009511e000320033074033082050203a04fb91fe7c78117c79107c7a127c7b13978808d4980897aa1097bb18d4ba0ad4a8087c79157c7a147c7b167c7c17979908d4a90997bb1097cc18d4cb0bd4b909979920d489027c79017c7a7c7b027c7c03979908d4a90997bb1097cc18d4cb0bd4b9097c7a057c7b047c7c067c760797aa08d4ba0a97cc10976618d46c0cd4ca0a97aa20d4a9097c7a197c7b187c7c1a7c761b97aa08d4ba0a97cc10976618d46c0cd4ca0a7c7b1d7c7c1c7c761e7c781f97bb08d4cb0b976610978818d46808d4b808978820d48a0a7c78097c7b087c7c0a7c760b978808d4b80897cc10976618d46c0cd4c8087c7b0d7c7c0c7c760e7c770f97bb08d4cb0b976610977718d46707d4b707977720d487076f766fa86f996f277b17387b1930d497076489d46808d47808988820d46707977720d48707520712017b192883973308207b172050203c04b990fe46171f46171e46171d46171c46171b46171a46171946171846171746171646171546171446171346171246171146171046170f46170e46170d46170c46170b46170a461709461708461707461706461705461704461703a00046170279461701c300460708821828958704d88708821a38c88a09d8a90ada880ac86a0ad86a08821b30c88b0b7b19687b17607b1a70951780009518607b1b7850203e0442d9821788008212980082138000821a9000821838d3870bd8870c6484821928d89308dab80cc96a0bd86a0a821630c96206c9a606d8cb0ac9a606c9cb0bc94707c98708c99307d46808d4b709d48909d4b808989920978820d49808510804008376821720646850204004ae8ffe83783307016469330042040a0e01951100ff7b10f8007b15f0007b16e800951500018411e08278187b188278107b18088278087b181082777b17184921b8004921b0004921a8003306057b16a0004921d8004921d0004921c8004921c00048218000208318a000831ac000831b80003309ff33070a08018217d8008218c8008219c000821ad000d48707859801d4a808d48707520712014921b8004921b0004921a8004921a000054921d8004921d0004921c8004921c00048218000208318a000831ac000831b80003309ff33070a084921b8004921b0004921a8004921a000054921d8004921d0004921c8004921c000028318a000831ac0003309ff330b2033070a1082177b17388217087b17308217107b17289517208218187b182050204404e8024921b8004921b0004921a8007b16a0004921d8004921d0004921c8004921c00048218000208318a000831ac000831b80003309ff33070a084921b8004921b0004921a8007b16a0004921d8004921d0004921c8004921c000018318a000831ac0003309ff330b2033070a10955100ff8210f8008215f0008216e80095110001320033074033082050204604fc8dfe7c78117c79107c7a127c7b13978808d4980897aa1097bb18d4ba0ad4a8087c79157c7a147c7b167c7c17979908d4a90997bb1097cc18d4cb0bd4b909979920d489027c79017c7a7c7b027c7c03979908d4a90997bb1097cc18d4cb0bd4b9097c7a057c7b047c7c067c760797aa08d4ba0a97cc10976618d46c0cd4ca0a97aa20d4a9097c7a197c7b187c7c1a7c761b97aa08d4ba0a97cc10976618d46c0cd4ca0a7c7b1d7c7c1c7c761e7c781f97bb08d4cb0b976610978818d46808d4b808978820d48a0a7c78097c7b087c7c0a7c760b978808d4b80897cc10976618d46c0cd4c8087c7b0d7c7c0c7c760e7c770f97bb08d4cb0b976610977718d46707d4b707977720d487076f766fa86f996f277b17187b1910d497076489d46808d47808988820d46707977720d4870752070c017b190883973308207b1750204804bb8cfe46171f46171e46171d46171c46171b46171a46171946171846171746171646171546171446171346171246171146171046170f46170e46170d46170c46170b46170a461709461708461707461706461705461704461703a00046170279461701c300460708821808958704d88708821a18c88a09d8a90ada880ac86a0ad86a08821b10c88b0b7b19487b17407b1a509517609518407b1b5850204a046792821768821278821360821a70821818d3870bd8870c6484821908d89308dab80cc96a0bd86a0a821610c96206c9a606d8cb0ac9a606c9cb0bc94707c98708c99307d46808d4b709d48909d4b808989920978820d498085108040083768217646850204c04b68bfe8378330701646933004e040a0e019511e0fe7b1018017b1510017b160801951520018411e082787b18388278087b18308278107b1828827618330820330750205004718bfe6f688219286f99821a306faa821b386fbb787b18787a10787908787898bc38787c1f98bc30787c1e98bc28787c1d98bc20787c1c98bc18787c1b98bc10787c1a98bb08787b1998ab38787b1798ab30787b1698ab28787b1598ab20787b1498ab18787b1398ab10787b1298aa08787a11989a38787a0f989a30787a0e989a28787a0d989a20787a0c989a18787a0b989a10787a0a98990878790998893878790798893078790698892878790598892078790498891878790398891078790298880878780133072033082050205204a08afe46171f0446171e46171d46171c46171b46171a46171946171846171746171646171546171446171346171246171146171046170f46170e46170d46170c46170b46170a4617094617084617074617064617054617044617034617024617014607330840330750205404348afe83778319e0003308400a098217e0008218e8008219f000821af8006f7b6f886f996fa7957a027b1708d87a07c8790c7b1910d89c06da7706c8680964c67b1818d889077b1b20c8b7077b1cc8007b1a387b1ac0007b19307b19d0007b17287b17d8004921f8004921f0004921e8004921e00048210001208318c000831ae000831b00013309ff33070a08017c17e000520729028217307b17d0007b16c8008217387b17c0008217287b17d8004921f8004921f0004921e8004921e00048210001208318c000831ae000831b00013309ff33070a08017c17e1005107df018217307b17d0007b16c8008217387b17c0008217287b17d8004921f8004921f0004921e8004921e00048210001208318c000831ae000831b00013309ff33070a08017c17e200520795018217307b17d0007b16c8007b168217387b17c0008216287b16d8004921f8004921f0004921e8004921e00048210001208318c000831ae000831b00013309ff33070a088217e8008218f0008219e000821af8008499ffff00ff86990000017b16d800821b307b1bd000821b7b1bc800821b387b1bc0007b1af8007b18f0007b17e8007b19e0008318c000831ae0003309ff330b2033070a1001330670000239077000025107237b17383307800003837783680a070139077000022003700002821838ac8715033a08c000037b18383a08c800037b18303806d00003821708957701887801821910c89808d48709889901821a18c8a909d8a90a821b20c8ba0a7b18c8007b17c0007b19d0007b1ad8004921f8004921f0004921e8004921e00048210001208318c000831ae000831b00013309ff33070a088217e0008218e8008219f000821af8007b1a98007b1990007b1888007b1780004921b8007b16b0008217307b17a8009517a000951880008219387b19a00050205604d2369551e0fe821018018215100182160801951120013200330740330820502058046f87fe7c78117c79107c7a127c7b13978808d4980897aa1097bb18d4ba0ad4a8087c79157c7a147c7b167c7c17979908d4a90997bb1097cc18d4cb0bd4b909979920d489027c79017c7a7c7b027c7c03979908d4a90997bb1097cc18d4cb0bd4b9097c7a057c7b047c7c067c760797aa08d4ba0a97cc10976618d46c0cd4ca0a97aa20d4a9097c7a197c7b187c7c1a7c761b97aa08d4ba0a97cc10976618d46c0cd4ca0a7c7b1d7c7c1c7c761e7c781f97bb08d4cb0b976610978818d46808d4b808978820d48a0a7c78097c7b087c7c0a7c760b978808d4b80897cc10976618d46c0cd4c8087c7b0d7c7c0c7c760e7c770f97bb08d4cb0b976610977718d46707d4b707977720d487076f766fa86f996f277b17387b1930d497076489d46808d47808988820d46707977720d4870752070d017b192883973308207b172050205a042d86fe46171f46171e46171d46171c46171b46171a46171946171846171746171646171546171446171346171246171146171046170f46170e46170d46170c46170b46170a461709461708461707461706461705461704461703a00046170279461701c300460708821828958704d88708821a38c88a09d8a90ada880ac86a0ad86a08821b30c88b0b7b19487b17407b1a509517609518407b1b5850205c04e0d9821768821278821360821a70821838d3870bd8870c6484821928d89308dab80cc96a0bd86a0a821630c96206c9a606d8cb0ac9a606c9cb0bc94707c98708c99307d46808d4b709d48909d4b808989920978820d49808510804008376821720646850205e042785fe83783307016469330060040a0e019511d07b10287b15209515308411f08278827908827a108277187b17187b1a107b190864177b1850206204f9f19551d082102882152095113032009511e0fe7b1018017b1510017b160801951520018411e08289187b19508289107b19488289087b193882887b18288278187b18588278107b18408278087b183082777b17208317e0000a05013306700002811bf0008219e00039077000028218e8005107337b17330780000383777b180883687b1b187b19100a0701821808821910821b1839077000022003700002821aaca7e8026f879878206f99979a20d4a8089777206fbb98bb20d4b7073a0bc00003380cd000039899203a0ac80003d3b707d3c909d49707d3a808d4870752075a8217287b17608217207b1780008217387b17688217307b1788008217487b17708217407b1790008217507b1778951780009518608219587b19980050206404ae0e9551e0fe82101801821510018216080195112001320033074033082050206604a983fe7c78117c79107c7a127c7b13978808d4980897aa1097bb18d4ba0ad4a8087c79157c7a147c7b167c7c17979908d4a90997bb1097cc18d4cb0bd4b909979920d489027c79017c7a7c7b027c7c03979908d4a90997bb1097cc18d4cb0bd4b9097c7a057c7b047c7c067c760797aa08d4ba0a97cc10976618d46c0cd4ca0a97aa20d4a9097c7a197c7b187c7c1a7c761b97aa08d4ba0a97cc10976618d46c0cd4ca0a7c7b1d7c7c1c7c761e7c781f97bb08d4cb0b976610978818d46808d4b808978820d48a0a7c78097c7b087c7c0a7c760b978808d4b80897cc10976618d46c0cd4c8087c7b0d7c7c0c7c760e7c770f97bb08d4cb0b976610977718d46707d4b707977720d487076f766fa86f996f277b17587b1950d497076489d46808d47808988820d46707977720d48707520718017b194883973308207b1740502068046782fe46171f46171e46171d46171c46171b46171a46171946171846171746171646171546171446171346171246171146171046170f46170e46170d46170c46170b46170a461709461708461707461706461705461704461703a00046170279461701c300460708821848958704d88708821a58c88a09d8a90ada880ac86a0ad86a08821b50c88b0b7b19a8007b17a0007b1ab0009517c0009518a0007b1bb80050206a049a46ff8217c8008212d8008213c000821ad000821858d3870bd8870c6484821948d89308dab80cc96a0bd86a0a821650c96206c9a606d8cb0ac9a606c9cb0bc94707c98708c99307d46808d4b709d48909d4b808989920978820d49808510804008376821740646850206c045681fe8378330701646933006e040a0e018282828308828410828818829a18829b10829c0882997b7a387b7b307b7c287b79207b78187b74107b73087b723200951100fd7b10f8027b15f0027b16e802951500038411e0829c18829a10829b087b1a487b1c18d4ac0c7b1b4088ba017b1cb80094ca510a930a82997b19508289187b19788289107b19708289087b196082887b1868827a1082780882798277187b1a387b1ab0027b18207b18a8027b19287b19a0027b17307b17b8024921d8024921d0024921c8024921c00248218002208318a002831ac002831b80023309ff33070a08018217d0028218c8028219c002821ad802977b3f988c01d4cb0b97ac3f987701d4c70697883f989c01d4c80898a3018499019a97889201848a7fd2670cd27b0bdb980ad2370888a72094b7d48c099497ab721b0a8217507b17c0017b1ae0018217287b1700028217407b17c8017b1be8018217207b1708028217487b17d0017b1cf0018217387b1710028216187b16d8017b18f801951700029518e0019519c001821a307b1a1802502070049ebdfe821c48821a40646b8ea7821650886820858801dba7088ec78eb9dab7098217b800da78098212386467510962028477e07b17583308203307642650207204857ffe8218306f886f69821a206faa821b286fbb98bc38787c1f98bc30787c1e98bc28787c1d98bc20787c1c98bc18787c1b98bc10787c1a98bc08787c19787b18787a1098ab38787b1798ab30787b1698ab28787b1598ab20787b1498ab18787b1398ab10787b1298aa08787a11787908989a38787a0f989a30787a0e989a28787a0d989a20787a0c989a18787a0b989a10787a0a9899087879097878988938787907988930787906988928787905988920787904988918787903988910787902988808787801330820330750207404b57efe83778319c0023308200a09018217c0028218c8028219d002821ad8026f777b17b0006f846f977b17b8006fa77b17a00082175851073c04330a330b330633006447017b1080007b17a800821868c8a8087b1a9000d8a807821960c8b909c87909d3b90a7b1b8800d8b90bdaa70b821770c867077b169800d8670a821c78c80c0cc8ca0ac87b0bd87b07c8a707d49707d4b809d47909d4b707989920977720d497075207c2078388831720020a03821720028218280282193002821a3802821bb0007b1bb802821ba8007b1bb002821bb8007b1ba8028216a0007b16a0027b1ad8027b19d0027b18c8027b17c0028318a002831ac0023309ff330b2033070a10019566018867018218b800c878087b18b8007b16a0008217b800d467078877018218a800c87804d8840a82179000957920d87907821b8800c87b02d8b20bda770b821c9800c8bc03d8c30b82188000c8b808d4830b821c58d8c90c942c94bc8217b000c8a7077b17b000649a642b643664476480520ccffe280103d4c707d4ba08d4870751078706821970821a68d49a07821878821b60d4b808d48707987720d49808978820d487075207bb0683a8831760020a03821778027b17b800821770027b17b00082146802821060024621bf014621be014621bd014621bc014621bb014621ba014621b9014621b8014621b7014621b6014621b5014621b4014621b3014621b2014621b1014621b0014621af014621ae014621ad014621ac014621ab014621aa014621a9014621a8014621a7014621a6014621a5014621a4014621a3014621a2014621a1014621a00146219f01ff0046219e01ff0046219d01ff0046219b01ff0046219801ff46219701ff0046219601ff0046219501ff0046219301ff0046219001ff46218f01ff0046218e01ff0046218d01ff0046218b01ff0046218801ff46218701ff0046218601ff0046218501ff0046218301ff0046218001ff1407ffffffff0000000078179c01140cffffffffffff0000781c9a01140bffffffffffffff00781b990178179401781c9201781b910178178c01781c8a01781b890178178401781c8201781b8101821250842b1f95178001c87b0b7cb7197cbc187cb61a7cb81b977708d4c707976610978818d46808d487077cb81d7cbc1c7cb61e7cb91f978808d4c808976610979918d46909d49808978820d478037cb7117cb8107cb9127cb613977708d48707979910976618d46909d497077cb8157cb9147cb6167cba17978808d4980897661097aa18d46a0ad4a808978820d478067cb7097cb8087cb90a7cba0b977708d4870797991097aa18d4a909d4790c7cb80d7cb90c7cba0e7cb70f978808d4980897aa10977718d4a707d48707977720d4c7077cb8017cb97cba027cbc03978808d4980897aa1097cc18d4ca0ad4a8087cb9057cba047cbc067cbb07979908d4a90997cc1097bb18d4cb0bd4b909979920d49808e08000e074098217b000e067088217b800e03707982b3f821a4097ac01d4cb0b98ac3f821a4897a601d46c0c98a63f821a1897aa01d46a0ad4a707d4c808d4b909972a01d4a00a82123828a503330933023303330001821650821a58d36a0a821c48d4ca0a821740821b18d47b0bd4ba0a510a25037b14a800821a68c89a0ad89a09821b60c82b0bc89b0bd32b0cd82b08dac908821970c83909c89808d8980cd83907821978c80909c89707c8c707d48a09d4b707d47909989920d48707977720d4970752077d0383a8831740020a03821758027b17980082135002821448028210400246217f0146217e0146217d0146217c0146217b0146217a014621790146217801462177014621760146217501462174014621730146217201462171014621700146216f0146216e0146216d0146216c0146216b0146216a014621690146216801462167014621660146216501462164014621630146216201462161014621600146215f01ff0046215e01ff0046215d01ff0046215b01ff0046215801ff46215701ff0046215601ff0046215501ff0046215301ff0046215001ff46214f01ff0046214e01ff0046214d01ff0046214b01ff0046214801ff46214701ff0046214601ff0046214501ff0046214301ff0046214001ff1407ffffffff0000000078175c01140cffffffffffff0000781c5a01140bffffffffffffff00781b590178175401781c5201781b510178174c01781c4a01781b490178174401781c4201781b4101821b5084bb1f95174001c87b0b7cb7197cbc187cb61a7cb81b977708d4c707976610978818d46808d487077cb81d7cbc1c7cb61e7cb91f978808d4c808976610979918d46909d49808978820d478027cb7117cb8107cb9127cb613977708d48707979910976618d46909d497077cb8157cb9147cb6167cba17978808d4980897661097aa18d46a0ad4a808978820d478067cb7097cb8087cb90a7cba0b977708d4870797991097aa18d4a909d4790c7cb80d7cb90c7cba0e7cb70f978808d4980897aa10977718d4a707d48707977720d4c7077cb8017cb97cba027cbc03978808d4980897aa1097cc18d4ca0ad4a8087cb9057cba047cbc067cbb07979908d4a90997cc1097bb18d4cb0bd4b909979920d49808e08008e07407e06309821a9800e02a0a821bb0007b1bb802821ba8007b1bb002821bb8007b1ba802821ba0007b1ba0027b1ad8027b19d0027b17c8027b18c0028318a002831ac0023309ff330b2033070a10821650821c488217400198c93f821818978801d4980298783f97c901d4980898693f977a01d4a909976a0195aa01821b207b1ba802821b287b1ba002821b387b1bb002821b307b1bb8027b1ac0027b19c8027b18d0027b12d8022833330a3309330801821b207b1ba802821b287b1ba0027b12b002821b307b1bb8027b1ac0027b19c8027b18d0027b17d802018318a002831ac0023309ff330b2033070a10955100fd8210f8028215f0028216e802951100033200004921f0004921e8004921e000140700000000717b484e9518e0007b17f800330750207604da76fe4921d8004921d0004921c000413307049518c0004921c80033007a0428b776fe492130014921280149212001140700000000717b484e951820017b1738013307502078049376fe49211801492110014921000122330704951800014921080150207a047476fe330824330750207c04b875fe837833070133092433007e040a0e01951170ff7b1088007b1580007b1678951590008411f0827a7b1a088273088274108270188282828b08828c10828a1882968298088297108299187b19287b17207b18187b16107b1a487b1c407b1b387b12307b10687b14607b1358951750951830951910821a087b1a505020800426f4955170ff8210880082158000821678951190003200951120ff7b10d8007b15d0007b16c8009515e0008411f0828910828a18828c088286d4ac0bd49608d4b808510862827218827810827b0882777b16607b1780004921b8004921b0004921a8004921a000017b1c687b1b88007b19707b1890007b1a789517a000951880009519607b129800502082049af3955120ff8210d8008215d0008216c8009511e0003200330740330820502084048a74fe7c78117c79107c7a127c7b13978808d4980897aa1097bb18d4ba0ad4a8087c79157c7a147c7b167c7c17979908d4a90997bb1097cc18d4cb0bd4b909979920d489027c79017c7a7c7b027c7c03979908d4a90997bb1097cc18d4cb0bd4b9097c7a057c7b047c7c067c760797aa08d4ba0a97cc10976618d46c0cd4ca0a97aa20d4a9097c7a197c7b187c7c1a7c761b97aa08d4ba0a97cc10976618d46c0cd4ca0a7c7b1d7c7c1c7c761e7c781f97bb08d4cb0b976610978818d46808d4b808978820d48a0a7c78097c7b087c7c0a7c760b978808d4b80897cc10976618d46c0cd4c8087c7b0d7c7c0c7c760e7c770f97bb08d4cb0b976610977718d46707d4b707977720d487076f766fa86f996f277b17187b1910d497076489d46808d47808988820d46707977720d4870752070d017b190883973308207b17502086044973fe46171f46171e46171d46171c46171b46171a46171946171846171746171646171546171446171346171246171146171046170f46170e46170d46170c46170b46170a461709461708461707461706461705461704461703a00046170279461701c300460708821808958704d88708821a18c88a09d8a90ada880ac86a0ad86a08821b10c88b0b7b19287b17207b1a309517409518207b1b38502088044dabfe821748821258821340821a50821818d3870bd8870c6484821908d89308dab80cc96a0bd86a0a821610c96206c9a606d8cb0ac9a606c9cb0bc94707c98708c99307d46808d4b709d48909d4b808989920978820d498085108040083768217646850208a044372fe8378330701646933008c040a0e019511b07b10487b15409515508411f08272827308827b10827718828c828908828a108288187b18187b1a107b19087b1c7b17387b1b307b132895172064187b122050208e0416ed9551b082104882154095115032003306700002811b1001821900013907700002821808015107337b17330780000383777b180883687b1b187b19100a0701821808821910821b1839077000022003700002821aaca7fc026f879878206f99979a20d4a8089777206fbb98bb20d4b7073a0bc00003380cd000039899203a0ac80003d3b707d3c909d49707d3a808d4870752076e8217287b17608217207b1780004921b8004921b0004921a8004921a0008217387b17688217307b1788008217487b17708217407b1790008217507b17789517a00095188000951960821a587b1a980050209004f3ef9551c0fe82103801821530018216280195114001320033074033082050209204e370fe7c78117c79107c7a127c7b13978808d4980897aa1097bb18d4ba0ad4a8087c79157c7a147c7b167c7c17979908d4a90997bb1097cc18d4cb0bd4b909979920d489027c79017c7a7c7b027c7c03979908d4a90997bb1097cc18d4cb0bd4b9097c7a057c7b047c7c067c760797aa08d4ba0a97cc10976618d46c0cd4ca0a97aa20d4a9097c7a197c7b187c7c1a7c761b97aa08d4ba0a97cc10976618d46c0cd4ca0a7c7b1d7c7c1c7c761e7c781f97bb08d4cb0b976610978818d46808d4b808978820d48a0a7c78097c7b087c7c0a7c760b978808d4b80897cc10976618d46c0cd4c8087c7b0d7c7c0c7c760e7c770f97bb08d4cb0b976610977718d46707d4b707977720d487076f766fa86f996f277b17587b1950d497076489d46808d47808988820d46707977720d48707520718017b194883973308207b174050209404a16ffe46171f46171e46171d46171c46171b46171a46171946171846171746171646171546171446171346171246171146171046170f46170e46170d46170c46170b46170a461709461708461707461706461705461704461703a00046170279461701c300460708821848958704d88708821a58c88a09d8a90ada880ac86a0ad86a08821b50c88b0b7b19c8007b17c0007b1ad0009517e0009518c0007b1bd80050209604d433ff8217e8008212f8008213e000821af000821858d3870bd8870c6484821948d89308dab80cc96a0bd86a0a821650c96206c9a606d8cb0ac9a606c9cb0bc94707c98708c99307d46808d4b709d48909d4b808989920978820d49808510804008376821740646850209804906efe8378330701646933009a040a0e019511907b10687b15609515708411f08272827308827b10827718828c828a088289108288184911584911504911484911407b18187b19107b1a087b1c7b17387b1b307b132895174095182064197b122050209c0419ed95519082106882156095117032009511e0fd7b1018027b1510027b160802951520028411e0829608828408829c8280829310d3460bd8460ad80c02dab20a7b169000c9460bc92b0b7b1c8800c90c0c88cc6085cc018282108eb6dbb60c829b18828618c92308c9a809d8a8087b138000d8230a7b1b78c96b0bc9ab0bc98b0b8fb88e9adbb80ad4b909db9a0c510ce003d420097b149800d46408d489099899207b1270d42808978820d498085208bf037b16687b173883088317a0017b185864060a03018217b8018218b0018219a801d4780a889b0194ab510b9403821aa001c86a02d8a20a821b9800c89b0bc8ab03d3930b7b1660d89306daba06821970c88909c89606d8960ad88908821968c89707c88707c8a70095271fd82708c88309d8390ada880ac8a604d86408c80808821c9000d3c90bd8c909821c8800d8c707dbb907821c8000d8c409821b78d3b80ad9b808daa908d3c409d4a909db980751071903d462077b13507b1040d40308d487079877207b1648d46808978820d487075207ea0283288317e00164260a038212e0018213e8018219f001821af801956b20d86b0c821850c8c807d88708dacc08821c48c8c808d8c80c821640c86c0c8216787b163801821680007b163001821690007b162801821688007b1620017b1a58017b1950017b1348017b1240017b1768017b1b60017b187001951780019518600195194001951a20017b1c780150209e04c9a1821770821668d476061407e0ffffff00000000821860d87807821898009487946751073502821798017b1730821790017b1740821788017b1748821780017b17508217588378208317e0010a0301821bf801821af0018219e801d4ba07889801947851081d027b1b187b1a207b19281407c0ffffff00000000821860d8780782189800948794675107cf018217e0017b17108217588378408317c0010a03018217d8018218d0018219c801d4780a889b0194ab510ba401821ac001821b60c8ba02d8a20a821b9800c89b0bc8ab03d3930bd89306daba06821970c88909c89606d8960ad88908821968c89707c88707c8a70095271fd82708c88309d8390ada880ac8a604d86408c80808821c9000d3c90bd8c909821c8800d8c707dbb907821c8000d8c409821b78d3b80ad8b808daa908d3c409d4a909db980751072901d462077b1398007b1068d40308d487079877207b1670d46808978820d487075207f90083288317e00164260a038212e0018213e8018219f001821af801956b20d86b0c82189800c8c807d88708dacc08821c70c8c808d8c80c821668c86c0c8216787b16b800821680007b16b000821690007b16a800821688007b16a0007b1ad8007b19d0007b13c8007b12c0007b17e8007b1be0007b18f000951700019518e0009519c000951aa0007b1cf8005020a004d79f821718018218100182190801821a0001821b387bb7587bb8507bb9487bba408217187bb7388217207bb7308217287bb7288217107bb7208217307bb7188217407bb7108217487bb7088217507bb79551e0fd82101802821510028216080295112002320000330733083300a20428b169fe33085020a204ab69fe837833070133090a0e33073300a204289569fe33073300a204288b69fe9511a07b10587b15507b1648828a18828b10828c088286d4ac08d4b609d48909989920d4b808978820d498087b17205208b0029567207b1740d86707c87c087b18387b1c08d8c805da7705c8b5057b1b10d8b5077b1a18c8a7077b17307b1683673308203306205020a4042069fe78761f821840d45808821938821a30d4a909d49808988820d45909979920d4980846171e46171d46171c46171b46171a46171946171846171746171646171546171446171346171246171146171046170f46170e46170d46170c46170b46170a46170946170846170746170646170546170446170346170246170146075208f401645682154083573308207b17285020a6048b68fe46171f2446171e46171d46171c46171b46171a46171946171846171746171646171546171446171346171246171146171046170f46170e46170d46170c46170b46170a461709461708461707461706461705461704461703461702461701821830d48609140600000000010000001408e0ffffff00000000d8850882153894587b193094984607510855018217288377203308205020a804f067fe46171f7046171e7846171c20461712204617113a46170d66461709564617197546170675461718744617057446171761461704614617166e4617036e4617156746170267461713534607539568c0821940d8890833066578761d78761b945846171a7282193094983305697875144617107278760f78750e78750c46170b7278760a787608461707727875015108b5008217288377403308205020aa045067fe46171f46171e46171d46171c46171b46171a46171946171846171746171646171546171446171346171246171146171046170f46170e46170d46170c46170b46170a46170946170846170746170646170546170446170364787602461701727875821895878000d88708821a08c88a09d8a90ada880a821810c88a0ad88a08821b18c8b808821b207bb77bb9087bba107bb818821058821550821648951160320000821780037b179800821788037b179000821790037b178800821798037b178000821760037b17b800821768037b1758821770037b1748821778037b1738821740037b17a000821748037b17a800821750037b17b000821658038317a0030a8217a8038118b0038219a0036f77977a206f88988820d4a8087b18209877206f983809780002978a20d4a7077b17189888207b18104921980249219002492188027b1980028217287b17b8028217307b17b0028217407b17a8028217507b17a0028217607b17d8028217687b17d0028217707b17c8029517e0029518c0029519a002951a8002821b787b1bc0025020ae046f9b8217e0028218e8028219f002821af8027b16787b16f801821bb0007b1bf001821ba8007b1be801821ba0007b1be0017b1a18027b1910027b1808027b1700028217387b1738028217487b1730028217587b1728028217b8007b1720028217107b1750028217187b1748028217207b174002951760029518400295192002951a0002951be001492158025020b004211e821a6002821768028218700282197802821b80007b1b5801821b88007b1b5001821b90007b1b4801821b98007b1b40017b1978017b1870017b1768019517800195186001951940017b1a60015020b2045c298213d8018218d0018219c801821ac001821bb801821cb0018216a8018212a001821798017b179800821790017b179000821788017b178800821780017b1780007b1318017b1810017b1908017b1a00017b1b38017b1c30017b16280195172001951800017b1220015020b40496308317c0030a0a018217d8038218d0038219c803821ac003887b01888c01db7b0c821bb800d8ab0a85aa01889b01da9a0bd48707db7c0b510b528217088218a0007b7820821880007b788218a8007b7828821888007b78088218b0007b7830821890007b78108218787b7838821898007b7818955100fc8210f8038215f0038216e8039511000432003307403308205020b604d963fe7c78117c79107c7a127c7b13978808d4980897aa1097bb18d4ba0ad4a8087c79157c7a147c7b167c7c17979908d4a90997bb1097cc18d4cb0bd4b909979920d489027c79017c7a7c7b027c7c03979908d4a90997bb1097cc18d4cb0bd4b9097c7a057c7b047c7c067c760797aa08d4ba0a97cc10976618d46c0cd4ca0a97aa20d4a9097c7a197c7b187c7c1a7c761b97aa08d4ba0a97cc10976618d46c0cd4ca0a7c7b1d7c7c1c7c761e7c781f97bb08d4cb0b976610978818d46808d4b808978820d48a0a7c78097c7b087c7c0a7c760b978808d4b80897cc10976618d46c0cd4c8087c7b0d7c7c0c7c760e7c770f97bb08d4cb0b976610977718d46707d4b707977720d487076f766fa86f996f277b17b8007b19b000d497076489d46808d47808988820d46707977720d4870752071f017b19a80083973308207b17a0005020b8049362fe46171f46171e46171d46171c46171b46171a46171946171846171746171646171546171446171346171246171146171046170f46170e46170d46170c46170b46170a461709461708461707461706461705461704461703a00046170279461701c3004607088218a800958704d88708821ab800c88a09d8a90ada880ac86a0ad86a08821bb000c88b0b7b19c8007b17c0007b1ad0009517e0009518c0007b1bd8005020ba0464f88217e8008212f8008213e000821af0008218b800d3870bd8870c64848219a800d89308dab80cc96a0bd86a0a8216b000c96206c9a606d8cb0ac9a606c9cb0bc94707c98708c99307d46808d4b709d48909d4b808989920978820d498085108040083768217a00064685020bc047c61fe837833070164693300be040a0e01951170ff7b1088007b1580007b1678828510828218828c0882867b1c507b1260d42c087b1670d4560cd48c0c98cc207b1568d45808978820d4c8087b17405208300382b7187b1782b7107b170882b7087b171082b77b171882a7187b172882a7107b173082a7087b173882971082a87b182082960882987b18489777209875208117703308207b17585020c004de60fe6f586f69821a486faa98ab38787b1f98ab30787b1e98ab28787b1d98ab20787b1c98ab18787b1b98ab10787b1a98ab08787b19787a1878791046170b46170a4617094617074617064617054617044617034617024617014607989a38787a17989a30787a16989a28787a15989a20787a14989a18787a13989a10787a1298990878791178780898893878790f98893078790e98892878790d988820821968821a60d49a0a140600000000010000001409e0ffffff00000000821b70d89b0982155094597b1a4894a978780c510913028217588377203308205020c204ff5ffe8218286f888219306f99821a386faa821b206fbb98bc38787c1f98bc30787c1e98bc28787c1d98bc20787c1c98bc18787c1b98bc10787c1a98bc08787c19787b18787a1098ab38787b1798ab30787b1698ab28787b1598ab20787b1498ab18787b1398ab10787b1298aa08787a11787908989a38787a0f989a30787a0e989a28787a0d989a20787a0c989a18787a0b989a10787a0a98990878790978789889387879079889307879069889287879059889207879049889187879039889107879029888089569c0821a70d89a099459821a4894a9787801510928018217709578607b1848d878076458c87505d88506da7706821768c87606d87607821860c887077b17708217588377403308205020c404eb5efe82186f888219086f99821a106faa821b186fbb98bc38787c1f98bc30787c1e98bc28787c1d98bc20787c1c98bc18787c1b98bc10787c1a98bc08787c19787b18787a1098ab38787b1798ab30787b1698ab28787b1598ab20787b1498ab18787b1398ab10787b1298aa08787a11787908989a38787a0f989a30787a0e989a28787a0d989a20787a0c989a18787a0b989a10787a0a98990878790978789889387879079889307879069889287879059889207879049889187879039889107879029888087878018217408218487b787b75087b76108218707b7818821088008215800082167895119000320000951100ff7b10f8007b15f0007b16e800951500018411e06416829a187b6a20829a107b6a28829a087b6a3082997b69388289187b69488289107b69508289087b695882887b68607b67188367c0000a8067d0007b67b0008267c8007b67788267c0007b67a8003307403308205020c6048c5dfe7c78197c79187c7a1a7c7b1b978808d4980897aa1097bb18d4ba0ad4a8087c791d7c7a1c7c7b1e7c7c1f979908d4a90997bb1097cc18d4cb0bd4b909979920d489027c79117c7a107c7b127c7c13979908d4a90997bb1097cc18d4cb0bd4b9097c7a157c7b147c7c167c781797aa08d4ba0a97cc10978818d4c808d4a808978820d498037c78097c7a087c7b0a7c7c0b978808d4a80897bb1097cc18d4cb0bd4b8087c7a0d7c7b0c7c7c0e7c790f97aa08d4ba0a97cc10979918d4c909d4a909979920d4890a7c78017c797c7b027c7c03978808d4980897bb1097cc18d4cb0bd4b8087c79057c7b047c7c067c7707979908d4b90997cc10977718d4c707d49707977720d487076f796faa6f386f27957b207b678000d87b07c8780c7b688800d88c08da7708c8a8087b6a9000d8a8077b699800c879097b6bb800d48b077b6ca0007b6968d4c909d497079877207b6870d49808978820d48707520724068267a8006f779777208268786f88988920d497077b67789788208267b0006f77987720d487077b67408167b8003308207b67b0005020c804f35bfe8268406f888269786f99826ba80098ba18787a0f98ba10787a0e98ba08787a0d787b0c46170b46170a4617094617084617074617064617054617044617034617024617014607787910787818989a38787a17989a30787a16989a28787a15989a20787a14989a18787a13989a10787a1298990878791198893878791f98893078791e98892878791d98892078791c98891878791b98891078791a988808826970826b68d49b0b140900000000010000007b69781409e0ffffff00000000826ab800d89a09826aa00094a97b6ba80094b9787819510912058267b0008377203308205020ca040b5bfe8268486f888269506f99826a586faa826b606fbb98bc38787c1f98bc30787c1e98bc28787c1d98bc20787c1c98bc18787c1b98bc10787c1a98bc08787c19787b18787a1098ab38787b1798ab30787b1698ab28787b1598ab20787b1498ab18787b1398ab10787b1298aa08787a11787908989a38787a0f989a30787a0e989a28787a0d989a20787a0c989a18787a0b989a10787a0a98990878790978789889387879079889307879069889287879059889207879049889187879039889107879029888088269789599c0826ab800d89a09826aa00094a9826aa80094a978780151091d048267b0008377403308205020cc04165afe8268206f888269286f99826a306faa826b386fbb98bc38787c1f98bc30787c1e98bc28787c1d98bc20787c1c98bc18787c1b98bc10787c1a98bc08787c19787b18787a1098ab38787b1798ab30787b1698ab28787b1598ab20787b1498ab18787b1398ab10787b1298aa08787a11787908989a38787a0f989a30787a0e989a28787a0d989a20787a0c989a18787a0b989a10787a0a9899087879097878988938787907988930787906988928787905988920787904988918787903988910787902988208826c9000826b8000d4cb09826a980082688800d48a0ad4a909989920d4ca0a97aa20d4a90978720152091c0383b77b67b8003308205020ce041659fe46171f6046171e46171d46171c46171b46171a46171946171846171746171646171546171446171346171246171146171046170f46170e46170d46170c46170b46170a461709461708461707461706461705461704461703461702461701460782678000957880007b68a800d8780782688800c878097b69a000d88908da770882679000c878087b688800d8780782689800c887077b6798003307403308205020d0047058fe826898006f88826988006f99826aa0006faa826ba8006fbb98bc38787c1f98bc30787c1e98bc28787c1d98bc20787c1c98bc18787c1b98bc10787c1a98bc08787c19787b1898ab38787b1798ab30787b1698ab28787b1598ab20787b1498ab18787b1398ab10787b1298ab08787b11787a10787908989a38787a0f989a30787a0e989a28787a0d989a20787a0c989a18787a0b989a10787a0a98990878790978789889387879079889307879069889287879059889207879049889187879039889107879029888087878013308208267b8005020d2049757fe7c78117c79107c7a127c7b13978808d4980897aa1097bb18d4ba0ad4a8087c79157c7a147c7b167c7c17979908d4a90997bb1097cc18d4cb0bd4b909979920d489027c79017c7a7c7b027c7c03979908d4a90997bb1097cc18d4cb0bd4b9097c7a057c7b047c7c067c780797aa08d4ba0a97cc10978818d4c808d4a808978820d498037c78197c7a187c7b1a7c7c1b978808d4a80897bb1097cc18d4cb0bd4b8087c7a1d7c7b1c7c7c1e7c791f97aa08d4ba0a97cc10979918d4c909d4a909979920d4890a7c78097c79087c7b0a7c7c0b978808d4980897bb1097cc18d4cb0bd4b8087c790d7c7b0c7c7c0e7c770f979908d4b90997cc10977718d4c707d49707977720d487076f786fa76f396f2ad4a909d4870ad49a0a98aa20d49808978820d4a80852086583787b68b8008267b0005020d4045f56fe9518e08488e07b68b0006481837783898268b8000a09826ab00082a71882a81082a90882aa6f776f886f996faa826b187bba187bb9107bb8087bb7955100ff8210f8008215f0008216e80095110001320000951120ff7b10d8007b15d0007b16c8009515e0008411f0828a18828910828b087b19107b1a08d4a90988ba01949a7b1738510a7a01828695671fd867087b1b18c8b8088488018477e0957920d87907c8780ad88a0bda770b492198007b1980007b1a88009517a000951880007b1b90005020d604b167fe8217b8008219b0008218a800821aa0007b17287b1820d48707d49a08d478089888207b1930d49707977720d487075207050183a73308207b1a5020d8045655fe8218086f888219106f99821a186faa6f6b98bc38787c1f98bc30787c1e98bc28787c1d98bc20787c1c98bc18787c1b98bc10787c1a98bc08787c19787b18787a1098ab38787b1798ab30787b1698ab28787b1598ab20787b1498ab18787b1398ab10787b1298aa08787a11787908989a38787a0f989a30787a0e989a28787a0d989a20787a0c989a18787a0b989a10787a0a989908787909787898893878790798893078790698892878790598892078790498891878790398891078790298880878780182173882187b788218287b78188218207b78088218307b7810955120ff8210d8008215d0008216c8009511e000320000491170491168491160140700000000717b484e9518607b177833075020da04f054fe491158491150491140413307049518404911485020dc04d654fe33082433075020de041a54fe83783307013309243300e0040a0e01951160ff7b1098007b1590007b1688009515a0008411e064760a0d015107b4007b16200a0d4911584911507b17409517609518404911485020e204c7fd8217787b17388217707b17308217687b17288216600a0d019568207b1618d86809821b28c89b0ad8ba0bda990b821930c89b0bd89b09821c38c8c909d4b80cd4a909d49c0c98cc20d4b909979920d4c9095209416476987720520739838783687b18105020e4046453fe7a16800083778318800033090a0c0181178000821620821838821930821a28821b18821c10aec70e00330a33093308330b60017b6b7b6a087b69107b6818955160ff8210980082159000821688009511a00032009511a07b10587b15507b1648828a18828b10828c088286d4ac08d4b609d48909989920d4b808978820d498087b172852081a029567207b1730d86707c87c087b18407b1c08d8c805da7705c8b5057b1b10d8b5077b1a18c8a7077b17387b1683673308203306205020e604a252fe78761f8218306486d45808821940821b38d4b909d498089888207b1520d45909979920d4980846171e46171d46171c46171b46171a46171946171846171746171646171546171446171346171246171146171046170f46170e46170d46170c46170b46170a461709461708461707461706461705461704461703461702461701460752085901836533082064575020e8040e52fe46171f1b46171e46171d46171c46171b46171a46171946171846171746171646171546171446171346171246171146171046170f46170e46170d46170c46170b46170a461709461708461707461706461705461704461703461702461701821820821938d498081409e0ffffff00000000d89609821a4094a9948946075109ca008357203308205020ea048051fe46171f46171e46171d46171c46171b46171a64461719654617186c461717694617166146171566330c20787c144617137246171265461711664617107346170f6e46170e6146170d7246170c74787c0b46170a484617095446170845787c074617063a461705774617046f4617037246170263461701734607458218958760d88708821a08c88a09d8a90ada880a821810c88a0ad88a08821b18c8b808821b287bb77bb9087bba107bb8188210588215508216489511603200009511a0fe7b1058017b1550017b164801951560018411e082897b19588289087b19508289107b19488288187b184082787b18388278107b18308277087b17283307403308205020ec047a50fe7c78117c79107c7a127c7b13978808d4980897aa1097bb18d4ba0ad4a8087c79157c7a147c7b167c7c17979908d4a90997bb1097cc18d4cb0bd4b909979920d489027c79017c7a7c7b027c7c03979908d4a90997bb1097cc18d4cb0bd4b9097c7a057c7b047c7c067c760797aa08d4ba0a97cc10976618d46c0cd4ca0a97aa20d4a9097c7a197c7b187c7c1a7c761b97aa08d4ba0a97cc10976618d46c0cd4ca0a7c7b1d7c7c1c7c761e7c781f97bb08d4cb0b976610978818d46808d4b808978820d48a0a7c78097c7b087c7c0a7c760b978808d4b80897cc10976618d46c0cd4c8087c7b0d7c7c0c7c760e7c770f97bb08d4cb0b976610977718d46707d4b707977720d487076f766fa77b17106f977b17206f277b17180a0b017b17088217286f778218306f88988820977920d498089877208219386f99979a20d4a7077b17c8007b18c0009899207a19d0008219108217407b17f8008217487b17f0008217507b17e800821720821818d48707d46908d47808d46707988820977720d487078218587b18e0005207f102839733085020ee04e34efe7b1758330733085020f004d54efe482100018219088e98fc089a897b1938017b1930017b1928017b1920019519c000979920989920978823d498069518e00097882098882095192001979920d4890a821b5897bb2098bb2097772098772095180001978820d4780c3308ff3309ff64670a0164769517a0005020f20460fa5206199551a0fe8210580182155001821648019511600132003307403308205020f4043f4efe7c78117c79107c7a127c7b13978808d4980897aa1097bb18d4ba0ad4a8087c79157c7a147c7b167c7c17979908d4a90997bb1097cc18d4cb0bd4b909979920d489027c79017c7a7c7b027c7c03979908d4a90997bb1097cc18d4cb0bd4b9097c7a057c7b047c7c067c760797aa08d4ba0a97cc10976618d46c0cd4ca0a97aa20d4a9097c7a197c7b187c7c1a7c761b97aa08d4ba0a97cc10976618d46c0cd4ca0a7c7b1d7c7c1c7c761e7c781f97bb08d4cb0b976610978818d46808d4b808978820d48a0a7c78097c7b087c7c0a7c760b978808d4b80897cc10976618d46c0cd4c8087c7b0d7c7c0c7c760e7c770f97bb08d4cb0b976610977718d46707d4b707977720d487076f766fa86f996f277b17587b1950d497076489d46808d47808988820d46707977720d48707520712017b194883973308207b17405020f604fd4cfe46171f46171e46171d46171c46171b46171a46171946171846171746171646171546171446171346171246171146171046170f46170e46170d46170c46170b46170a461709461708461707461706461705461704461703a00046170279461701c300460708821848958704d88708821a58c88a09d8a90ada880ac86a0ad86a08821b50c88b0b7b19687b17607b1a70951780009518607b1b785020f80454f9821788008212980082138000821a9000821858d3870bd8870c6484821948d89308dab80cc96a0bd86a0a821650c96206c9a606d8cb0ac9a606c9cb0bc94707c98708c99307d46808d4b709d48909d4b808989920978820d4980851080400837682174064685020fa04f24bfe837833070164693300fc040a0e01828918828a10828b0882887b79187b7a107b7b087b783200951150ff7b10a8007b15a0007b16980082861082821882850882887b1588007b1270d425027b189000d46805d425059855207b1678d46208978820d4580852087a047b172082c7187b1782c7107b170882c7087b171082c77b171882b7187b172882b7107b173082b7087b173882b77b174082a77b17488297107b17608297087b175882977b17508116900033082064675020fe04344bfe46171f46171e46171d46171c46171b46171a46171946171846171746171646171546171446171346171246171146171046170f46170e46170d46170c46170b46170a461709461708461707461706461705461704461703461702460719821878821a70d48a0a140500000000010000001408feffffff0000000082199000d889088219880094987b1a800094a8461701510890037b166883670233082050200005904afe8218506f868218586f8a8218606f8998922098ab2098682046171f46171e46171d46171c46171b46171a461719461718461717461716461715461714986c38787c13986c30787c12986c28787c1178781098681878780f98681078780e98680878780d78760c787a0498a83878780b98a83078780a98a828787809787b0898a81878780798a81078780698aa08787a059898387878039898307878029899287879019555ea82189000d8580882198800949882198000949878725108c20282166883671633082050200205c249fe8218486f8846171f46171e46171d46171c46171b46171a46171946171846171746171646171546171446171346171246171146171046170f46170e46170d46170c46170b46170a4617099889387879079889307879069889287879059889207879049889187879039889107879029889087879017878140500000000010000001408e2ffffff0000000082199000d8890882198800949882198000949846170851080e0283671e330820502004051149fe8218286f888219306f99821a386faa821b406fbb98bc38787c1f98bc30787c1e98bc28787c1d98bc20787c1c98bc18787c1b98bc10787c1a98bc08787c19787b18787a1098ab38787b1798ab30787b1698ab28787b1598ab20787b1498ab18787b1398ab10787b1298aa08787a11787908989a38787a0f989a30787a0e989a28787a0d989a20787a0c989a18787a0b989a10787a0a98990878790978789889387879079889307879069889287879059889207879049889187879039889107879029888089559c2821a9000d89a09821a880094a9821a800094a978780182157882167051091a0182176883773e330820502006051a48fe82186f888219086f99821a106faa821b186fbb98bc38787c1f98bc30787c1e98bc28787c1d98bc20787c1c98bc18787c1b98bc10787c1a98bc08787c19787b18787a1098ab38787b1798ab30787b1698ab28787b1598ab20787b1498ab18787b1398ab10787b1298aa08787a11787908989a38787a0f989a30787a0e989a28787a0d989a20787a0c989a18787a0b989a10787a0a98990878790978789889387879079889307879069889287879059889207879049889187879039889107879029888087878018218900095875ed88708821a8800c88a09d8a90ada880ac85a0ad85a08c86808821b207bb77bb9087bba107bb8188210a8008215a000821698009511b000320000951120fe7b10d8017b15d0017b16c8019515e0018411e0641682a31082a41882ac0882a27b6c98007b648800d44c0ad4320cd4ac0c98cc207b639000d43a0a97aa20d4ca0a7b6730520ad60a82b7187b67a80082b7107b67a00082b7087b67b80082b77b67b0008297187b67388297107b67408297087b674882977b67508287187b67588287107b67608287087b676882877b677083273308207b67787b628000502008056b46fe8268900082698800d498081409e0ffffff00000000826a8000d89a09826a980094a994895109520a7c78197c79187c7a1a7c7b1b978808d4980897aa1097bb18d4ba0ad4a8087c791d7c7a1c7c7b1e7c7c1f979908d4a90997bb1097cc18d4cb0bd4b909979920d489027c79117c7a107c7b127c7c13979908d4a90997bb1097cc18d4cb0bd4b9097c7a157c7b147c7c167c781797aa08d4ba0a97cc10978818d4c808d4a808978820d498037c78097c7a087c7b0a7c7c0b978808d4a80897bb1097cc18d4cb0bd4b8087c7a0d7c7b0c7c7c0e7c790f97aa08d4ba0a97cc10979918d4c909d4a909979920d4890a7c78017c797c7b027c7c03978808d4980897bb1097cc18d4cb0bd4b8087c79057c7b047c7c067c7707979908d4b90997cc10977718d4c707d49707977720d487076f776fa96f3a6f28d4980bd4a707d47b0b98bb20d49707977720d4b70752072a0982677883772083887b68980050200a050845fe9518e08488e0648183777b6890008389826898000a09018269b000826aa000d4a9078268b800826ba800d4b808d48707987720d4a808978820d487075207d708826890008287187b6798008287107b6788008287087b67800082877b677883973308207b67900050200c059a44fe8268a0008269a800d498081409e0ffffff00000000826ab000d89a09826ab80094a99489510981087c78197c79187c7a1a7c7b1b978808d4980897aa1097bb18d4ba0ad4a8087c791d7c7a1c7c7b1e7c7c1f979908d4a90997bb1097cc18d4cb0bd4b909979920d489027c79117c7a107c7b127c7c13979908d4a90997bb1097cc18d4cb0bd4b9097c7a157c7b147c7c167c781797aa08d4ba0a97cc10978818d4c808d4a808978820d498037c78097c7a087c7b0a7c7c0b978808d4a80897bb1097cc18d4cb0bd4b8087c7a0d7c7b0c7c7c0e7c790f97aa08d4ba0a97cc10979918d4c909d4a909979920d4890a7c78017c797c7b027c7c03978808d4980897bb1097cc18d4cb0bd4b8087c79057c7b047c7c067c7707979908d4b90997cc10977718d4c707d49707977720d487076f776fa96f3a6f28d4980bd4a707d47b0b98bb20d49707977720d4b707520759078267786f777b6778826780006f777b678000826788006f777b678800826798006f777b6798008267900083772083887b68b80050200e051043fe9518e08488e07b68b0006481837783898268b8000a09826ab00082a71882a81082a90882aa6f777b6790006f877b67286f977b67206fa77b671833074033082050201005c942fe7c78197c79187c7a1a7c7b1b978808d4980897aa1097bb18d4ba0ad4a8087c791d7c7a1c7c7b1e7c7c1f979908d4a90997bb1097cc18d4cb0bd4b909979920d489027c79117c7a107c7b127c7c13979908d4a90997bb1097cc18d4cb0bd4b9097c7a157c7b147c7c167c781797aa08d4ba0a97cc10978818d4c808d4a808978820d498037c78097c7a087c7b0a7c7c0b978808d4a80897bb1097cc18d4cb0bd4b8087c7a0d7c7b0c7c7c0e7c790f97aa08d4ba0a97cc10979918d4c909d4a909979920d4890a7c78017c797c7b027c7c03978808d4980897bb1097cc18d4cb0bd4b8087c79057c7b047c7c067c7707979908d4b90997cc10977718d4c707d49707977720d487076f7b7b6ba8006faa7b6ab0006f387b68a0006f277b67b800957320d87307c87809d88908da7708c8a808d8a807c87b028267187b6718018267207b6710018267287b670801826790007b6700018267787b673801826780007b673001826788007b672801826798007b6720018267387b6758018267407b6750018267487b6748018267507b6740018267587b6778018267607b6770018267687b6768018267707b6760017b6398007b6380017b6990007b6988017b6888007b6890019567a0019568800195696001956a4001956b2001956c00017b6280007b629801502012051af58268a0008267a800d487078269b0008268b800d49808d47808988820d49707977720d487075207c6048267a0017b67788262a8018264b8017b6440826bb0017b6b48826c9800d8c70382689000d38200d882097b6238da030982678800c97b00c9900a7b6a60d8900ad87b09c9940982678000c97909c9a9097b6968c93207c987077b6758826778c9c7077b67508167b8003308207b6770502014054140fe8262788269b800d89203826ca000826b38d3cb0ad8cb08daa308c9cb0ac93a037b6328c9920a95ab1fd8ab027b623884bbe0c8b9097b6978d8b90ac82309c8c90bc8ab02d3920bd89200daba008263a800826a40c93a04826bb000826a48d8ba0cc9c404c9ba0cd88c0ac9a40ac98c0c826828d88908826938da9908c8c808d8c809c83a0ac8a909c8b80ad88a08c89808c8a000d8a009c8980c8ec88e09dbc809d4c00a8e28dba9088269506f99989a38787a1f989a30787a1e989a28787a1d989a20787a1c989a18787a1b989a10787a1a826a586faa78791898990878791998a93878791798a93078791698a92878791598a92078791498a91878791398a9107879128269606f99787a1098aa08787a11989a38787a0f989a30787a0e989a28787a0d989a20787a0c989a18787a0b989a10787a0a826a686faa78790898990878790998a93878790798a93078790698a92878790598a92078790498a91878790398a910787902787a98aa08787a015208dd028267b800826878d878078269a000d39208d89209da8709826bb000d8b007826aa800d3ac08d8ac0ada870ad3b007d48707da790a520aa5023307403308207b62b8007b60b0007b6ca800502016057c3efe8268a8006f888269b0006f99826ab8006faa826b786fbb787b1898bc38787c1f98bc30787c1e98bc28787c1d98bc20787c1c98bc18787c1b98bc10787c1a98bb08787b19787a1098ab38787b1798ab30787b1698ab28787b1598ab20787b1498ab18787b1398ab10787b1298aa08787a11787908989a38787a0f989a30787a0e989a28787a0d989a20787a0c989a18787a0b989a10787a0a989908787909787898893878790798893078790698892878790598892078790498891878790398891078790298880878780133082082677050201805a53dfe82649800826a8800d4a40882699000826b8000d4b909d49808988820d4a909979920d4980852088b017c78197c79187c7a1a7c7b1b978808d4980897aa1097bb18d4ba0ad4a8087c791d7c7a1c7c7b1e7c7c1f979908d4a90997bb1097cc18d4cb0bd4b909979920d489027c79117c7a107c7b127c7c13979908d4a90997bb1097cc18d4cb0bd4b9097c7a157c7b147c7c167c781797aa08d4ba0a97cc10978818d4c808d4a808978820d498037c78097c7a087c7b0a7c7c0b978808d4a80897bb1097cc18d4cb0bd4b8087c7a0d7c7b0c7c7c0e7c790f97aa08d4ba0a97cc10979918d4c909d4a909979920d4890a7c78017c797c7b027c7c03978808d4980897bb1097cc18d4cb0bd4b8087c79057c7b047c7c067c7707979908d4b90997cc10977718d4c707d49707977720d487076f776fa96f3a6f28d4980bd4a707d47b0b98bb20d49707977720d4b707520763834783887b68b80050201a05463cfe9518e08488e07b68b0006481837783898268b8000a09826ab00082a71882a81082a90882aa6f776f886f996faa826b307bba187bb9107bb8087bb7955120fe8210d8018215d0018216c8019511e0013200004926f0004926e8004926e000140700000000717b484e9568e0007b67f800330750201c057d3cfe4926d8004926d0004926c000413307049568c0004926c80050201e055e3cfe330824330750202005a23bfe8378330701330924330022050a0e01491718491710491708490732009511b0fd7b1048027b1540027b163802951550028411f0829c10829618829a08829b7b1a30017b162001d46a09d4cb0ad49a0a98aa207b1c2801d4c909979920d4a9097b173801520960078287187b1700018287107b1708018287087b17100182877b1718017b1b400183b73308207b174801502024050c3bfe7c78097c79087c7a0a7c7b0b978808d4980897aa1097bb18d4ba0ad4a8087c790d7c7a0c7c7b0e7c7c0f979908d4a90997bb1097cc18d4cb0bd4b909979920d489027c79197c7a187c7b1a7c7c1b979908d4a90997bb1097cc18d4cb0bd4b9097c7a1d7c7b1c7c7c1e7c781f97aa08d4ba0a97cc10978818d4c808d4a808978820d498037c78117c7a107c7b127c7c13978808d4a80897bb1097cc18d4bc0ad48a0a7c78017c7b7c7c027c7603978808d4b80897cc10976618d4c60bd48b0b7c78157c7c147c76167c7917978808d4c808976610979918d46909d498087c79057c7c047c76067c7707979908d4c909976610977718d46707d4970714090000000000000041d39309d49209d48707977720d4ba0ad4a707d4970752078f04821848018217280182192001d4970a140700000000010000007b1720011407e0ffffff0000000082194001d879078216300194677b1a280194a75107d50583872033082050202605a339fe821820019588c082194001d8890894688219280194985108ae057c78187b18287c78197b18087c781a7b18187c781b7b18107c781c7b18407c781d7b18207c781e7b18387c781f7b18307c78107b18687c78117b18487c78127b18587c78137b18507c78147b1880007c78157b18607c78167b18787c78177b18707c78087b18a8007c78097b1888007c780a7b1898007c780b7b1890007c780c7b18c0007c780d7b18a0007c780e7b18b8007c780f7b18b0007c787b18e8007c78017b18c8007c78027b18d8007c78037b18d0007c78047b1820017c78057b18e0007c78067b18f8007c77077b17f0008217480183774033082050202805a838fe1408a0ffffff0000000082194001d8890894688219280194985108b004821808978808821928d49808821918979910821a1097aa18d4a909d49808821920979908821a40d4a909821a3897aa10821b3097bb18d4ba0ad4a909979920d498087b184001821848978808821968d49808821958979910821a5097aa18d4a909d49808821960979908821a8000d4a909821a7897aa10821b7097bb18d4ba0ad4a909979920d48903821888009788088219a800d4980882199800979910821a900097aa18d4a909d498088219a000979908821ac000d4a909821ab80097aa10821bb00097bb18d4ba0ad4a909979920d489048218c8009788088219e800d498088219d800979910821bd00097bb18d4b909d498088219e000979908821a2001d4a909821bf80097bb10821cf00097cc18d4cb0bd4b909979920d489007c78017c797c7c027c7603978808d4980897cc10976618d46c0cd4c8087c79057c7c047c76067c7a07979908d4c90997661097aa18d46a0ad4a909979920d489027c78097c79087c7a0a7c760b978808d4980897aa10976618d46a0ad4a8087c790d7c7a0c7c760e7c7b0f979908d4a90997661097bb18d46b0bd4b909979920d4890c7c79117c7a107c7b127c7613979908d4a90997bb10976618d46b0bd4b9097c7a157c7b147c76167c781797aa08d4ba0a976610978818d46808d4a808978820d489097c78197c7a187c7b1a7c761b978808d4a80897bb10976618d46b0bd4b8087c7a1d7c7b1c7c761e7c771f97aa08d4ba0a976610977718d46707d4a707977720d487076f066f487b18e8006f387b18f000821840016f887b18f8006f777b1740016f977b1730016fc77b1728016f277b1720018217480183776033082050202a052636fe7c777b1688018218e8007b1880018218f0007b1878018218f8007b1870017b1790014921a8014921a00149219801821700017b17c801821708017b17c001821710017b17b801821718017b17b001821720017b176801821728017b176001821730017b1758019517d0019518b00195199001951a7001951b5001821c40017b1c500150202c058606821ce8018213e0018216d8018217d0017b174801821708027b174001821000028214f801821bf00182172802821a200282191802821210022842013308208217480150202e055535fe49214801492130014921280133043300492140017c79197c7a187c7b1a7c7c1b979908d4a90997bb1097cc18d4cb0bd4b9097c7a1d7c7b1c7c7c1e7c761f97aa08d4ba0a97cc10976618d46c0cd4ca0a97aa20d49a027c79117c7a107c7c127c7613979908d4a90997cc10976618d46c0cd4c9097c7a157c7c147c76167c7b1797aa08d4ca0a97661097bb18d46b0bd4ba0a97aa20d4a9097c7a097c7b087c7c0a7c760b97aa08d4ba0a97cc10976618d46c0cd4ca0a7c7b0d7c7c0c7c760e7c730f97bb08d4cb0b976610973318d4630c3303d4cb0b97bb20d4ba0a7c7b017c7c7c76027c780397bb08d4cb0b976610978818d46808d4b8087c7b057c7c047c76067c770797bb08d4cb0b821c2801976610977718d4670782163001d4b707977720d487076f776faa6f996f22330b0201821838017b82407b8b20821b48017b8b7b89487b84287b86087b8a507b80307b83107b8758821740017b87387b8c189551b0fd821048028215400282163802951150023200009511807b10787b15707b1668951580008411f0827a18827b108279827708d4ba0a889b04947b94ab510b1b849703520754955180821078821570821668951180003200491150491148491140140700000000717b484e9518407b17583307502030052934fe49113849113049112021330704951820491128502032050f34fe2865025217018e003308203307502034054b33fe46171f46171e46171d46171c46171b46171a46171946171846171746171646171546171446171346171246171146171046170f46170e46170d46170c46170b46170a461709461708461707461706461705461704461703df00461702ee00461701454607f600330804330750203605d932fe83783307013309040a0e018286188289107b19088289087b191082887b181852170279330820330750203805aa32fe46171f46171e46171d46171c46171b46171a46171946171846171746171646171546171446171346171246171146171046170f46170e46170d46170c46170b46170a461709461708461707461706461705461704461703f7004617029800461701e6003308fc002875330820330750203a053532fe46171f46171e46171d46171c46171b46171a46171946171846171746171646171546171446171346171246171146171046170f46170e46170d46170c46170b46170a4617094617084617074617064617054617044617030c461702ce004617018b003308d70001787833070433082050203c05bf31fe6f688219086f99821a106faa821b186fbb98bc38787c1f98bc30787c1e98bc28787c1d98bc20787c1c98bc18787c1b98bc10787c1a98bc08787c19787b1898ab38787b1798ab30787b1698ab28787b1598ab20787b1498ab18787b1398ab10787b1298ab08787b11787a10989a38787a0f989a30787a0e989a28787a0d989a20787a0c989a18787a0b989a10787a0a989a08787a09787908787898893878790798893078790698892878790598892078790498891878790398891078790298880878780101330824330750203e05ee30fe8378330701330924330040050a0e01828918828a10828b0882887b79187b7a107b7b087b7832007c78117c79107c7a127c7b13978808d4980897aa1097bb18d4ba0ad4a8087c79157c7a147c7b167c7c17979908d4a90997bb1097cc18d4cb0bd4b909979920d489027c79017c7a7c7b027c7c03979908d4a90997bb1097cc18d4cb0bd4b9097c7a057c7b047c7c067c760797aa08d4ba0a97cc10976618d46c0cd4ca0a97aa20d4a9097c7a197c7b187c7c1a7c761b97aa08d4ba0a97cc10976618d46c0cd4ca0a7c7b1d7c7c1c7c761e7c781f97bb08d4cb0b976610978818d46808d4b808978820d48a0a7c78097c7b087c7c0a7c760b978808d4b80897cc10976618d46c0cd4c8087c7b0d7c7c0c7c760e7c770f97bb08d4cb0b976610977718d46707d4b707977720d487076f766fa77b17086f977b17186f277b17100a0d01821a08821818821910d49808d46a09d48909989920d46808978820d4980852083b647698772052073383a783687b18187b171050204405722ffe7a1620837783182033090a0c01811720821818ac870c0a0d01987820510804008376821710646850204605442ffe83783307016469330048050a0e01828918828a10828b0882887b79187b7a107b7b087b7832009511c0fe7b1038017b1530017b162801951540018411e082b41082b382b0083a026000023a0668000282bc18d3200b7b1b90007b109800d820027b1378d86306821b9000dbb206140bffffffffffffff7fd3bc007b1c8000d8bc02884bffdb020b6442e1400cdac60b520b1a330a33063309330c0382138000821878821498002848077b12187b171082a7187b172082a7107b172882a7087b173082a77b173882977b17408287187b17508287107b17588287087b176082877b176833074033082050204a05552efe7c78117c79107c7a127c7b13978808d4980897aa1097bb18d4ba0ad4a8087c79157c7a147c7b167c7c17979908d4a90997bb1097cc18d4cb0bd4b909979920d489027c79017c7a7c7b027c7c03979908d4a90997bb1097cc18d4cb0bd4b9097c7a057c7b047c7c067c760797aa08d4ba0a97cc10976618d46c0cd4ca0a97aa20d4a9097c7a197c7b187c7c1a7c761b97aa08d4ba0a97cc10976618d46c0cd4ca0a7c7b1d7c7c1c7c761e7c781f97bb08d4cb0b976610978818d46808d4b808978820d48a0a7c78097c7b087c7c0a7c760b978808d4b80897cc10976618d46c0cd4c8087c7b0d7c7c0c7c760e7c770f97bb08d4cb0b976610977718d46707d4b707977720d487076f766fa86f996f277b17707b1948d497077b189000d46808d47808988820d46707977720d4870752070a06811790003308207b17880050204c05112dfe8218506f888219586f99821a606faa821b686fbb98bc38787c1f98bc30787c1e98bc28787c1d98bc20787c1c98bc18787c1b98bc10787c1a98bc08787c19787b18787a1098ab38787b1798ab30787b1698ab28787b1598ab20787b1498ab18787b1398ab10787b1298aa08787a11787908989a38787a0f989a30787a0e989a28787a0d989a20787a0c989a18787a0b989a10787a0a9899087879097878988938787907988930787906988928787905988920787904988918787903988910787902988808821b48d46b0b140600000000010000001409e0ffffff00000000821a9000d89a09821a7094a97b1b6894b9787801510902058217880083772033082050204e050a2cfe82184078781f46171e46171d46171c46171b46171a46171946171846171746171646171546171446171346171246171146171046170f46170e46170d46170c46170b46170a4617094617084617074617064617054617044617034617024617019568c082199000d889088219709498821668946846075108770482178800837740330820502050057f2bfe8218206f888219286f99821a306faa821b386fbb98bc38787c1f98bc30787c1e98bc28787c1d98bc20787c1c98bc18787c1b98bc10787c1a98bc08787c19787b18787a1098ab38787b1798ab30787b1698ab28787b1598ab20787b1498ab18787b1398ab10787b1298aa08787a11787908989a38787a0f989a30787a0e989a28787a0d989a20787a0c989a18787a0b989a10787a0a98990878790978789889387879079889307879069889287879059889207879049889187879039889107879029888081409a0ffffff00000000821a9000d89a09821a7094a994697878018216800051097f038217880083776033082050205205872afe6f688219186f99821a98006faa821b786fbb98bc38787c1f98bc30787c1e98bc28787c1d98bc20787c1c98bc18787c1b98bc10787c1a98bc08787c19787b18787a1098ab38787b1798ab30787b1698ab28787b1598ab20787b1498ab18787b1398ab10787b1298aa08787a11787908989a38787a0f989a30787a0e989a28787a0d989a20787a0c989a18787a0b989a10787a0a9899087879097878988938787907988930787906988928787905988920787904988918787903988910787902988808787801330820330750205405b629fe46171f46171e46171d46171c46171b46171a46171946171846171746171646171546171446171346171246171146171046170f46170e46170d46170c46170b46170a46170946170846170746170646170546170446170346170246170146070a0b4921a8004921a0004821b000000000014921d8004921d0004921c8004921c0003308800082178800502056052629fe7b1798003308203307502058051629fe4821e00020492118014921100149210801492100019518a00097882098882014090000000018000000d498069518c00097882098882095190001979920d4890a82189800978820988820140b0000000080000000d48b0b9777209877209518e000978820d4780c3308ff3309ff64670a01015207880133082050205a059628fe33084921980033027c79097c7a087c7b0a7c7c0b979908d4a90997bb1097cc18d4cb0bd4b9097c7a0d7c7b0c7c7c0e7c760f97aa08d4ba0a97cc10976618d46c0cd4ca0a97aa20d4a9097b1990007c7a197c7b187c7c1a7c761b97aa08d4ba0a97cc10976618d46c0cd4ca0a7c7b1d7c7c1c7c761e7c791f97bb08d4cb0b976610979918d46909d4b909979920d4a9037c79117c7b107c7c127c7613979908d4b90997cc10976618d46c0cd4c9097c7b157c7c147c76167c7a1797bb08d4cb0b97661097aa18d46a0ad4ba0a97aa20d49a0b7c79017c7a7c7c027c7603979908d4a90997cc10976618d46c0cd4c9097c7a057c7c047c76067c770797aa08d4ca0a976610977718d46707d4a707977720d4970c6fb66f3a330382149800821790006f79979b2098bb20d46a07d4b7076fcb937b93799376937a887c01821710017b78407b7c207b7a7b74484917287b76087b72504917307b79107b73584917387b7b189551c0fe8210380182153001821628019511400132000033005c059511c07b10387b15307b16289515408411e03307403308203300420528f526fe330750205e059328fe330701502060058928fe951160ff7b1098007b1590007b1688009515a0008411f08282828308828410828818829a829b08829c1082991864767b19187b1c107b1b087b1a7b18387b14307b132895174095182064197b122050206205dba3fe821248821340821958821a50821b70821c788217608218687b6b307b6c387b67207b68287b6a107b69187b637b6208955160ff8210980082159000821688009511a000320049489220248414d249922425494b2a252da9944c49494952525242554a529224499224499224499224499224499224499224499294948644888888242191244992244992244992242922221a1191244224111111112222922449148908454592224912898888888888101111111189442291482412894422914844444444441411111111914824128944229148241289444444444444444422222225495292a42489449148248a24912892242949a248888810111111a98808111122924a12922449922449922449499224499224499224499224499224499224499224499224554992242b945a84aa4848499224499224499224499224499224499224499224499224499224499224499214aa10428884942449922449922449922449922449922449922449922449922449922449922449559244424a92244992244992244992244992244992244992244992244992244992244992a42a492221254992244992244992244992244992244992244992244992244992244992244952159224350a551a1111494248922449922449922449480a4942d40804040404042449922449111010101090888848444494808080804444449224454040404022222211115104040401018988884444440908080202429088884892a40441922449921449124992942011119188882812111189888822499224494a92244992141111d188882451444444888808918888888888489224499224099a50a85aa1942695849424499224499224499224499224499224499224499224499224499224499224495592528a8888244952928424499224499224499224499224499224499224499224499224254992244992244955922449922449922449922495a4449224892429542925499224499224499224499224499224494a92244992242949928888284900492189242185923429494544449244921249929492242992244992444444244444244992245112124992244992244922499224499294244992244949922449929224499224494992244992a4a44894248024154992248944922491244992a40a894249214992244992249224499224514292244992244992244992242929499288886844041051880889082994b442298d8888949424499224499224499244499224499228859424499224499224499224499224499224499224499224499224499224499224495592244992a4244944449288242122224989888856508a464444924a92441289a424492291a492249188249124291141922449922449922429499224499224492a8024a92422220144a2284924128944229148241289442291882408200288445124128944229148241289442291482412894422914814894422914824220992244992244992244949922449922449529124151101440091288a4422914824128944229148241289488248a4281289442291482412894422914824128944229148248a4422914824121109922449922449922449499224499224499224499224499224499514499224499224499214492449224922499224492491442249924844924812a52025499224499224499224499224499224499224499224499224499224499224495295449248221111111111111111111141001140248a22222222222241922449922449922429499224499224492a92a422228048144592244992244992244922499288044992244992244992a4244992244992244992244992244992a44a8a24499224499224498a2492249124912449922492482291244944229244928844229124128944922422914824894422912489482412492291482449221289449248241249928844229124128944922422914824894422912489482412492291482449229148248944229124894422912412894492241289449248241249924824124922914824492291482489442291244992244992244992244992244922499224514451144551144511451451441109529224499224499224499224499224499224499224499224499224499224499224559144924822111111111111111111114144444444444444444444444444229148241289442291482412452222a215292845232222a14822222222888848922449a2485054242949922411111111111144444422914824128944229148241289222222222222222222228a449224499224499224499244a28888689224294992249224499224a924484a9224499224499224499224499224294a412449922449922449922449922480a48a244844444444444444444444444424111129499224494a92244d922425499248922449922495042949922449922449922449922449922445a52092244992244992244992244912405245922022222222222249222222222222222225499224494992a44992a42449924892244992a49220294992244992244992244992244992a428059124499224499224499224499200922a9220499244128948444422222211111129499224494a92244d922425499244922449922495044949922449922449922449922449922445298824499224499224499224499204905491041111111111111111918888888888884849922449529224699224294992249224499224a92448922449922449922449922449922449919220922449922449922449922449020820291549828888888888888888888824499294444a12491249822449922449922449242222129122499224494992a4111191a4241549929494242525495029a524499224499224499224499224499224494992244992a4a0489394a42449922445245525499224499224499224499224499288aa24499224499224499224499224499464928888888888482a1289444444445293244992244992244992888888222222498a489248124992942809922449922449922449499224499224499224499224499224494a294912452249241289442224128944444444a4464424494a92a42449528a24128924914824922451221289482422918888882029492a912491a420a55492244992244992244992244992244992a424499224495250a4111145459188884822492411a904509224954a92244992244992484a92248924499224499224892449124922499244922449122322914812492412499224491225484992244992244992244992244992244992244992244992244992244992244992544544444444444424358944249144124922892449922489445524492289880410898a244192244992244992244992244992244992449224499224499224919224499224499224222222222222222222222222222222220882200441108420088210044110028800228088888888882492244992244992244992244992244992244992244992244992a42449922449922429518a9224499224499224496592244922228924492449244992245182244992244992244922499224499224499224499224499224495292244992244992444444444444444444444444444444440441108420088210044110822008420011400410111111119144922449922449922449922449922449922449922449922449929424499224499224514a291111111111111149659224499224894422111151d5444444448c482a22221a11014414448444442222808882889088200525d12449494a92a424294192942422890022914812118948228a449224494a90244992a4244992244992244992244992244992244992244992244992244992244924494a922422414a5194244992244992244992244992244992242949922449924890524a499224499224499224499224499224499224499224498a04298aa2244992244992244992244992244992244992244992244582288aa2244992244992244992244992244992244992244992242522222222222204119188880811918a44121111914844249548241211111141444494044992244992244992a4244992244992244992244992244992244992244992244992aa889424494489204992244992244992244942844412499248444444101191244892244992244992242549922449922449922449922449922449922449922449925445a42449224a04499224499224499224491222249248924422222282888824419224499224499224294992244992244992244992244992244992244992244992a42a2225491251224892244992244992244992102191449224121111114444240992244992244992244949922449922449922449922449922449922449922449922455112949928812419224499224499224499284088924922491888888202222499024499224499224494a9224499224499224499224499224499224499224499224a98a4849924494089224499224499224499224444824912489444444041111232992249224499224491605a56892549224891042484235844448484812244992244992244992922449922449922449922449922449922449922449922449aa92244956506a9292a094922449922449922449929224499224499224491294a24992240124054952410a4aa211119124128922498944221111112222352222499224494a9224294989484444242249928812a49424499224494a92244992a4244992244992a4244992244992449244924822221240a422910415254992245192244992248992244992244994242549922449929214a4945292244992244992244992244992244992a424499224495250a44914915245228a8888aa482432222222222222a4244d248924491249244992244944229128414992244992a424499224494a49922449922449499224499244128948224924912492244922914492481289289224499224492449492222a211114044414448449082926892444a5292929424294192242549a288884849929424484992244992244992244992244992244992244992244992244992244992244992944a29128944444444044524224992244992244992a424499224499224a9a44449922449924892822aa5244992244992244992244992244992244949922449922425491211112509202948224990829268444424494952924a528224494a4444942480a4204992200525d124494a9212244952922445442489102242440491482492044992244992244992a4244992244992244992244992244992244992244992244992aa24491249922449524a124492244992244992244992242549229148241149828888242549922449922449b28252aba08a264992a4244992aa4900495229254992b48252344922494a4992242549922449922449494a4952922449529a0490249524254912ada0144d52924a92241142d2248024a948524a90044992244992244992a4244992244992244992244992244992244992244992244992aa24499215942a5250459394a4922449849024922424914a499224419224499224499224294992244992244992244992244992244992244992244992a42a49926405a596824a2925499224499224499224499224499224494a922449922405a568aaa0148d888894942449922449922449924492244992244a9a244991244992244992244992244992244992244992942449121111ada0148d8888249524499248929224494a924a12452292449228d288488a88249224912491249188442222222288480091a88844229148241249a21191141149244922492249221189444444441011111191244992244992242989888856a0144d9224254992485292a4a42490244992249224499224499224499224499224499224499224499224499224254992244992244909942449922449922449922449922449922449922449922449004925259224a9a84a92244922499224494a5281a402a5409224499224499224499244092449922449922449922449921240922425492a499234222249848888881011114422914824222222222222222222222291482422222211111191922449499294a42445444444442291482412111191888888489244519224499248529224294992248988888888888888442291249024499224499224494a9224499224499224499224499224499224499224499224a94a92249124499224a524814892244992244992244992a42449241289242249101191a4244992244992244956a0d42a50458b888824952449922429499224495249a2244992244914699200925444229148128d88a4882449922449922491884422222222888888884892244992944444442b508a4644442222a2111149224444448488882012111111111149922449922441054ad12489849024095292244920499224499224499294244992244992244992244992244992244992244992244952952449b202a5960295524a922449922449922449922449922449929424499224490a94a2494a521111492284489148242245442449922449124849922481244992244992244952922449922449922449922449922449922449922449922449559224c90a945a0a544a294992244992244992244992244992244952922449922429508a464444924a922489242949924822492589928844922411451a91001240244a1189442249348944292291482489464452442491248924892489442412111111414444444492244992244992a42422225a81523422221211118d8848122122222244440491482412898888888888244992884824128988241148024992244992244992a4244992244992244992244992244992244992244992244992aa24499215285544812a9a24494952419224254952444492082122222288442291249024499224499224494a9224499224499224499224499224499224499224499224a94a92249124499224a524814892244992244992244992a42449241289242249101191a4244992244992244956a0d42a5045932492a4942449529224499224499294a4942425499224a524495292442b508a26294995524a92244992244992244992244992244992244992244952128824499224499224499224494a81224544544a89884844448888549224499288484422121111222215894422494a92244992888888881011a94822128988881011a94822128988881011a94844449224499224499224491111514444922212492249229224a924494a922425491229899248048a4a9224499224499224494a92244992244992242201041089a244248194a294244992244992244992244992244992242949922449924814259224499104922449922449922449922449000144a2a848922445124892244992244992244992a444a2281111892491442225498a88049224499224499224499224299228924444342222498410292222222222222222254992141111111111111111894422914824128944229124909224499224499224499224499224499224499224499224499224499224499224a994224a241289442291482412894444444444444444444444444490224992241111912449129124499224c90a945a05aa68924892a449922442484a92241548024992244992244992a4244992244992244992244992244992244992244992244992aa24499215285544812a9a242194503584124208494a92264992082184245443488442424292409224499224499224294992244992244992244992244992244992244992244992a42a499264054a2d052aa59424499224499224499224499224499224294992244992142845934492244d92241142529224a98888889424498a48024992244992244992a4244992244992244992244992244992244992244992244992aa24499215285544812a9a242194503584124208494a92264992082184245443488484842481244992244992244952922449922449922449922449922449922449922449922449559224c90a949aa424504a499224499224499224494992244992244992240994a249124209554328218490a42469922489104248423584442824242409244992244992244992922449922449922449922449922449922449922449922449aa92244956a0d452a0524a4992244992244992244992244992244992922449922449815234492449d224491221242549920a2481244992244992244952922449922449922449922449922449922449922449922449559224c90a942aa240158d8888945492244992a4244992249524922449922489442322292249922449922449924892888844101111119124494a4444b402a56844442222a21111492224491291248888888848529294401248922449922449922425499224499224499224499224499224499224499224499254254992ac40a9220a54d188884444442322924448922422491011111191a424291111114992a4244952a248024992244992244992a4244992244992244992244992244992244992244992244992aa24499215285544812a9a2495a42449922449a5489224499224499224499224499224499224499224499224499224499224499224499224499224499224499224494a92244992244992244992a42a4949529224891092449284245249922481244992244992244952922449922449922449922449922449922449922449922449559224c90a949aa424504a499224499224499224494992244992244992240994a24992a4244992444909444444248948442422918888242212910490a412258124499224499224499224499292a44992a4244992489224499224258124499224499224499224499224499214a514882449922449922449922449920002484a4549209288242222222222128988888824129124a544124892244992244992244992249248922449529224694444244992120d11215228254d1242514a521242429224499224092222a2249024499224499224494a9224499224499224499224499224499224499224499224a94a529224919240922449922449922449928408499224499224922022224949922449922449922c054ad12425a924495292244924499224499292409224499224499224499224499224498a520a44922449922449922449922449000124a5a22410912449442212898848222222114944929412492049922449922449922449444412499224494a92248d8888a42449444488888888a422918808118944445211115112489224499224499224254992244992244992244992244992244992244992244992542529499248299024499224499224499224214292244992244912244992922449922449922459054ad1244949925490242549929224492249922449924a02499224499224499224499224499224294a49209224499224499224499224490208202915490211111111111111111111119124499224295244924092244992244992244992249122499224494992a4914824128944222244448488488d882449922429499288882809244992244992244992922449922449922449922449922449922449922449922449aa92942449a42490244992244992244992242142922449922449122449929224499224499224590a94a2494a524992a42449924892244992a4924052922449922449922449922449922449510a449224499224499224499224490248aa48021111111111111149928888888888889424499224254992464424294992249224298944228924499124494924494a81884824499224499224499224499224499112889224499224494992244992284992244992444992244992244992244949942449922422092012154922492451aa40451a49922489489288244992244a20499224499224499224499214092049245224912809a494529224499224499224499224499224499224499224499212259188884644449294244922229248a28812884424499248922449922449922492244992244992248924499224499224499292244992244992a4945244029124124992249224922449922449922449922449244992244912499224499224a54492244992249124499248221225494a491295049092a4929224954812499224804894a2a448a9942425492949922449929494a4244992244924499224494a922449922449924492a4244929499224499224492225499224912489449224499224499288a492181191882491241249124912492449124924504a294992244992244992244992244992244952922449922422914425922492441225909224499224499224499224499224499224499224499224499224499224499224a98a8888888888888820222222924812492449124992242289628a44221111d1888848922212492249a29424254992a424499222512491081445499224499224499224494992244992244992442480082012458922924892248924109224499224499224499224291189442291888888201289a288888848459212912489244992144920a594922449922449922449922449922449922425499224491211918844221111892080041089a28844444492441228499224499224499224494a922491284a445244522292482249228944110944511425499224499224499224499224499224494a92244992241111114522111189202222498988884644441289449148248a2291480a4451142529914412492491442291441249249144128944124924914412492412492491441249249148240944922449922449922449922425058a14115195244912111111112222352222492481244992244992244952922449922449922449922449922449922449922449922449559224494a444420499224499224499224494284441249924844444410111149912491244992244992a240a91111118188882449929424092449004925499224499224499224499292244920922449922449922449922429224444201289445220499224494992244992244992244992244992244992244992244992244992244992480229a594244992244992244992244992244992242949922449922490244992a42449922449922449922449922449922449922449922449922449922449248118894492409224499224499224499224499224499224499224499224499292244992244992a494529224492222222222222222222222222222222222222248922449121111111189a448249124924822122581442249922489244992482249922449922449924a4a9424499224519224499224899224499224499424499224494a229124499224928802455194244992244992244992244992244992242949922449922490244992244992244992244992244992244992244992244992a424499224499224a94a9224124992245122109148241289442291482412894422512412894422914824128944229148922412251049922449922449922449921489242289241249202a8a92244992244992244992244992244992242549922449920492244992244992244949922449922449922449922449922449922449922449922455499224522245124949244a44204992244992244992244922229144922412454444440410119148241289442211111111111111111141444424459244922449922489111140448188908888880820a2404448444444041051202224229002252d8a4892242549924492244992249504929224499224499224499224499224498a522092244992244992244992244912405245124892244922229288888888484444444a92244992922449232222454488880811911a119124111121222244442a2242448488a412111191121111254992141121222244442a2242448488a44a92a488882809244992244992244992922449922449922449922449922449922449922449922449aa92942449a414489224499224499224499210214992244992441244442429499224499224499255a0144d529224892495042222224944442412492489442492482225a54992a42449124992244992a492404a9224499224499224499224499224495129104992244992244992244992240920a92249202222222222222222494444444444444a92244992922449232222494a124992249244a2882490244992244992244992244992244992244992244929258988888888881011a948241111111191484424354900092092524492489248922449202549922449922449922449922449922449922449922449922449922449922449124a2925914824222222221589442291482422929a44528a4812892412492249204992244949922449922449922449922449922449922449922449922449922449921211119188880811918a888824222222222222921a400288a41449024992244992244992244992244992244992244992244992244949922449922449921411119188880811918a88484844444422222222a94924a54824902449922449922449922449922449922449922449922449929424499224499224491111118988881011a988880489888848444444241511110d11112209a588884644a412218490244922224244448888d488882449922489484412111122224244a4222244444444442415454422922849154992948820220211119144922489282949a2249108a414499224499224494992244992244992244992240124804814252209a4945292244992244992244992244992244992a424499224491289a2442481244992244992244992244912400288445111492049922449922449922449922491282a2212489224499224499224499224a5404a292549922449922449922449922449922449124992244992244a029124499224499224499224492950a48888aa4422222222222288229188244a52459224451248922449922449922425499224499224499224499224499224499224499224499254254992484949a2242909a494a22449922449922449922449922449922449499224499224811042888848242222528a44441449499224454444492049922449922449929424499224499224499224499224499224499224499224495215919244928892409224499224499224499284088924924412898888082222222992482249922449926444041051202224229002252d1228114d92a424294892a424498a8888a4242949929424494a9224252212111121225223229224222244448488484544888810915491482412894422914824128944444422888888880811918a8888881091544444940492244992244992244949922449922449922449922449922449922449922449922455494a922452124892244992244992244992102149922449222222828888242549922449922449b2142845232222894452124952922429892429d11011228552d2242114a524252124244922914824128944222291484444242222222222229224499148248a24494a914824454444444920499224499224499294244992244992244992244992244992244992244992244952159192248928114892244992244992244992102191449224121111114444445224492449922449922c0a94a2494a524992a42449924892244992a4924052922449922449922449922449922449510a449224499224499224499224490248aa48021111111111111111119188888888884849922449529224699224294992249224499224a924909424499224499224499224499224495294029124499224499224499224499200922a924044444444444444121111111111111129499224494a92248d88882449928a24494a499294244992241111118188882449922452024992244992244992244992244952922449922425499224494a9224499224254992244992924492244992489224492209201549922449a9044a9a244992244992244992244994409224499224499224499224a994248988884644001105224222022950d20a94a211119192942494a4244992a404499294888828455194a42449922449922449922449922449922449922449922449029124499224499224499224492950a48888aa441249229188888888880811911a1111111111111122223522119188484424222211444444448888482412111111111111114144444444444444444420222222222222222222222222101111111111112222352222914812111111111111212252111191888888888888486a0889500d212284104022914822492491888888881011a988888888888888882009244992244992244992922449922449922449922449922449922449922449922449aa9224491408218488884422912852111151124892244992244992242549922449922449922449922449922449922449922449925445a42449224a04922449922449922449922444482491248944444404111149024992244992244992a4244992244992244992244992244992244992244992244992aa88942449448940922449922449922449928408892492249188888820222249204992244992244992942449922449922449922449922449922449922449922449521591922489281148922449922449922449921021914492241211111144448ca448924892244992245914284523222225499292a4242549922489489248242249228888889224494992249124499224494a02499224499224499224499224499224294a2910499224499224499224499224010490948a9240444444444444444444444444444444244929910492244992244992244992244912499224494a92248d8888244952a22122440aa5a44942284a494a4248489224499224414444940492244992244992244949922449922449922449922449922449922449922449922455494a922452124892244992244992244992102149922449924412444424294992244992244992a540291a1111494952222211111122223522224922224244448888544484880811499524491211112225499222222222224244a42222222244241511112581244992244992244952922449922449922449922449922449922449922449922449559292248994024992244992244992244912222449922449922441922429499224499224499255a0144d52922489a492409224499288884824494424111149a4942649929224492249922449924a02494992244992244992244992244992244529104992244992244992244992240920a9220924499224898888242222221211119192244992a42449d2524a494a922449922449922449922449922449922449922449029124499224499224499224492950a48888aa244992244924221111112222352212894444448888d48848244a4444848848454404218a4422222222a944229188880811918a442249922449222222224244a4222222222291884804111151124892244992244992242549922449922449922449922449922449922449922449925425294992484920499224499224499224494284244992244992244892242549922449922449b2142845932425495241929424494a92248924499224492a092425499224499224499224499224499214a5402449922449922449922449922480a48a249088888888888888888888888848222252922449929424499a24494a92248924499224492a092425499224499224499224499224499214a5402449922449922449922449922480a48a24101111111111111191444444444444444a922449929224494b2925294992244992244992244992244992244992244992244992402449922449922449922449520a142922a294521411a524294992482212111121225223224992249224494a92884422222244446a4422128988881011a911894822111111222215111122128944444444524920499224499224499294244992244992244992244992244992244992244992244952952449a2400821444424128944918a888892409224499224499224294992244992244992244992244992244992244992244992a42a494992444a024992244992244992244912222449922449444444101191249024499224499224494a9224499224499224499224499224499224499224499224a94a529224919240922449922449922449928408499224491211111144442409244992244992244992922449922449922449922449922449922449922449922449aa92942449a4249024499224499224499224214292244992248924888898a424499224499224499602a5684444244992120d11215228254d1242514a521242429224499224092222a2249024499224499224494a9224499224499224499224499224499224499224499224a94a529224919240922449922449922449928408499224499224922022224949922449922449922c054ad18888484a9212118988881011a911114912111122224244a4222244448848aa244992202222222244442a22222242445211115112489224499224499224254992244992244992244992244992244992244992244992542529499248299024499224499224499224214292244992244912244992922449922449922459054ad18888484992a44029a52425499224499224499224499224499224499224499224814892244992244992244992a41428524444559224494912894422222244446a4422128988881011a91189482422224244a44624a24422222244442a222208912812111111490d2109d5101221212149922449222222224244a422222222221211892022224a024992244992244992a4244992244992244992244992244992244992244992244992aa24254912290924499224499224499224498890244992244992044992a424499224499224499602a56892a424492a489222222249929424494a34448448a1943449084529494908094992248924912492482288888892409224499224499224294992244992244992244992244992244992244992244992a42a494992444a0249922449922449922449122224499224494444442022224949922449922449922c054ad19224294992544444244992248a922449494a22914844448488488d884892244952922429452212894824229188884804924a924a2445920aa4524a922449922449922449922449922449929424499224490a14694444515124aa1a914492249224922449922489a2888888888888888888a426918848228924924412495291a82a9224922449924451444444444444444444444444444444444444441004410882200841100421088220041001440011111111114924499224499224499224499224499224499224499224499224494992244992244992442249922449922449aa264992242249922449922449922451141111111111111111111111111111111111114110042108822004411084200882104004100144444444442491244992244992244992244992244992244992244992244992242549922449922449924844444444444444524926499224492291484444544d242211113122a98888684404105120222422222202882810111211488192684424529294a4244992244992244144248a8888242949929488889048242211444444492049922449922449929424499224499224499224499224499224499224499224495295a4244922a540922449922449922449928408499224499224492049929424499224499224c92a508a26494a52922425490992a41011228552d2242114a524252124244992242222924492482292082222a2249024499224499224494a9224499224499224499224499224499224499224499224a94a52922491924092244992244992244992840849922449121111118888485292244992244992244b8152344952929224499292242548922222224925492289242949924892549248244992488ad488488a482249922449922449924412492449924492244912454544244992244944444444444444444404490248a2221289449268442445920092a88824d188488a4812499224499224499244124924499244224992248a8a88482249922411111111111111111111444424499224499224491111d18a2850aa8822922449499224912449922449258124499224499224499224499224499214a52410499224499224499224499224010490948a2481888888888888888888244952a42492441289248124499224499224499224894445922449929224492322222222229148444444c4882825492149121191482412894422222211444424222222222212894444229188888808222222222222222222228888888888888888888888888808a21111492249922412452291481289888892409224499224499224294992244992244992244992244992244992244992244992a42a222549125122902449922449922449922421422289244924222222888888a44892489224499224591428452322494a92244992484952922449494992042a25499224499224499224254992244992244992248000929412490229a59424499224499224499224499224499224294992244992a494489292244992245029a52449922449922449922449922449922449499224499224254944a2111191922429499294c4884844124892244992244992244992244992244992244992244992244952922449922449925425924812894422499224a2a42489924422905224499224499224254992244992244992244992049000225194882490524a4992244992244992244992244992244992922449922449248a129104524a294992244992244992244992244992244952922449922422114992248a04224992244992244992244992222291482291482481288aa22449922449922449922449922449922449499224499224024992244992244992a4244992244992244992244992244992244992244992244992aa244992220249545124a92a498a88884644449224498992244992444444042222922449922805524a25499224499224499224499224499224494a92244992249524494444344900498124920452a0241a1111a99192240992244993244992244992a4a41288a24692245965492222a22449529224492449922449524920294992244992244992244992244992a428052249922449922449922449922401245524812449444444121111119188484444444a922449929224492322222549929224492049922449922449929424499224499224499224499224499224499224499224495229a549294952129148229148922449222a900a44a28888489248224992449254112422224a024992244992244992a4244992244992244992244992244992244992244992244992aa24254912290924499224499224499224498890244992244922092222929424499224499224c952a0144d52928a884852249124492229494a9224a52449891448922449922449922449922449020820124589248194529224499224499224499224499224499224491289a222492025499224499224499224499224490a208048142592404a2925499224499224499224499224499224494a92244992241245492249a0524a4992244992244992244992244992244992922449922489249224494922221a1111294911491249128944a24892a42449524a22109100225191244992244992244992244992244992244992244992244992a424499224499224a94a9224911481a4a2684422922489482412a54420220144a22249922449922449922449922449922449922449922449922449499224499224495295244922258a28a288148124aa289254945292409224499224499224499224499224499224499224499224499292244992244992a4288a224992249148442422222212894422914824222222222222228288442449129188442291249124492449922492402291244992244992248924922449922449922495949424499224294992244992a4244992244992922449922449494412492291244924111188a22825499224499224499224499224499224494a922449922409442422499248922449922449922449922449922449922449922449922449529224499224499254254992540492a8a2485255921411118d8800220a4484440452a0249aa4222222498a489248129148248a2811489224499224499224499224499224499224499224254992244992244992244900499224222201440091288a24108914459224499224499224492249924422914824128922914824128944248100224591244992244992244924499224492449922412894492482412499248241249229148244952922449922449922449922449922449922449922449922449922449922449922415451445511491048a88888888888888888888888888888808222222222222229208444445922449922449922449922449922449922449922449922429494a9224499224924492aa8c244a92249144444493249294a4922449942480a440124902092990244992244992244992242144a440499324255220499224499224499224494208510a244992244992244992244984104b02a5949224499224499224499224499224499224254992244932054aa2494a524992244992244992a42449922449922449922449922449922449922449922449924a294d92244952524920a52669b21428459394a422222229212411492201249294a44a24922449524a92242509244992244992244992922449922449922449922449922449922449922449922449aa924492241189404a2925499224499224499224499224499224494a9224499224010410492911492049922449922449922449922491948a480229a59424499224499224499224499224499224294992244912402495884802a52825499224499224499224499224499224494a922449922405922449922449922449922449450444444404220542444424012492482209204924498d048a922449922449922489244992244992244992244992244992244949922449922449524594245525939224491211118d2449928802094444444a5292929424298124499224494a44440400"
				},
				"methodIdentifiers": {
					"buyService()": "5c646b5a",
					"ccipCallback(bytes,bytes)": "29514482",
					"checkDelivery(uint256,bytes)": "558eab4b",
					"claimDigest(uint256,bytes32)": "5ec96f75",
					"claimPayment(uint256,bytes32,bytes)": "60595ac9",
					"description()": "7284e416",
					"factory()": "c45a0155",
					"factoryRefundBuyer(uint256)": "88985ec5",
					"factoryReleaseToProvider(uint256)": "df686ded",
					"gateway()": "116191b6",
					"gatewaySigner()": "f3253c63",
					"nextPurchaseId()": "23b4a7a3",
					"price()": "a035b1fe",
					"provider()": "085d4883",
					"purchases(uint256)": "8392fe31",
					"raiseDispute(uint256)": "a5c1674e",
					"serviceId()": "da20ec6a",
					"updateDescription(string)": "e735b48a",
					"updateGateway(string)": "e7261687",
					"updateGatewaySigner(address)": "11acfb3d"
				}
			},
			"hash": "f9e96d0a8f1b951989586b46be771709505f61e51ea89525fb413a47f8410a35",
			"factoryDependencies": {}
		}
	}
}