{
	"Storage.sol": {
		"EscroDot": {
			"abi": [
				{
					"inputs": [
						{
							"internalType": "address",
							"name": "_arbiter",
							"type": "address"
						}
					],
					"stateMutability": "nonpayable",
					"type": "constructor"
				},
				{
					"anonymous": false,
					"inputs": [
						{
							"indexed": true,
							"internalType": "uint256",
							"name": "id",
							"type": "uint256"
						},
						{
							"indexed": true,
							"internalType": "address",
							"name": "buyer",
							"type": "address"
						},
						{
							"indexed": false,
							"internalType": "bytes32",
							"name": "deliverableHash",
							"type": "bytes32"
						}
					],
					"name": "DeliverableProvided",
					"type": "event"
				},
				{
					"anonymous": false,
					"inputs": [
						{
							"indexed": true,
							"internalType": "uint256",
							"name": "id",
							"type": "uint256"
						},
						{
							"indexed": true,
							"internalType": "address",
							"name": "buyer",
							"type": "address"
						}
					],
					"name": "DisputeRaised",
					"type": "event"
				},
				{
					"anonymous": false,
					"inputs": [
						{
							"indexed": true,
							"internalType": "uint256",
							"name": "id",
							"type": "uint256"
						},
						{
							"indexed": true,
							"internalType": "address",
							"name": "buyer",
							"type": "address"
						},
						{
							"indexed": false,
							"internalType": "bool",
							"name": "refunded",
							"type": "bool"
						}
					],
					"name": "DisputeResolved",
					"type": "event"
				},
				{
					"anonymous": false,
					"inputs": [
						{
							"indexed": true,
							"internalType": "uint256",
							"name": "id",
							"type": "uint256"
						},
						{
							"indexed": true,
							"internalType": "address",
							"name": "owner",
							"type": "address"
						},
						{
							"indexed": false,
							"internalType": "uint256",
							"name": "price",
							"type": "uint256"
						},
						{
							"indexed": false,
							"internalType": "uint256",
							"name": "stake",
							"type": "uint256"
						},
						{
							"indexed": false,
							"internalType": "string",
							"name": "gateway",
							"type": "string"
						}
					],
					"name": "ServiceCreated",
					"type": "event"
				},
				{
					"anonymous": false,
					"inputs": [
						{
							"indexed": true,
							"internalType": "uint256",
							"name": "id",
							"type": "uint256"
						},
						{
							"indexed": true,
							"internalType": "address",
							"name": "buyer",
							"type": "address"
						},
						{
							"indexed": false,
							"internalType": "uint256",
							"name": "amount",
							"type": "uint256"
						}
					],
					"name": "ServicePurchased",
					"type": "event"
				},
				{
					"inputs": [],
					"name": "arbiter",
					"outputs": [
						{
							"internalType": "address",
							"name": "",
							"type": "address"
						}
					],
					"stateMutability": "view",
					"type": "function"
				},
				{
					"inputs": [
						{
							"internalType": "uint256",
							"name": "serviceId",
							"type": "uint256"
						}
					],
					"name": "buyService",
					"outputs": [],
					"stateMutability": "payable",
					"type": "function"
				},
				{
					"inputs": [
						{
							"internalType": "uint256",
							"name": "price",
							"type": "uint256"
						},
						{
							"internalType": "string",
							"name": "gateway",
							"type": "string"
						}
					],
					"name": "createService",
					"outputs": [
						{
							"internalType": "uint256",
							"name": "serviceId",
							"type": "uint256"
						}
					],
					"stateMutability": "payable",
					"type": "function"
				},
				{
					"inputs": [
						{
							"internalType": "uint256",
							"name": "serviceId",
							"type": "uint256"
						},
						{
							"internalType": "address",
							"name": "buyer",
							"type": "address"
						},
						{
							"internalType": "bytes32",
							"name": "deliverableHash",
							"type": "bytes32"
						}
					],
					"name": "deliver",
					"outputs": [],
					"stateMutability": "nonpayable",
					"type": "function"
				},
				{
					"inputs": [],
					"name": "nextServiceId",
					"outputs": [
						{
							"internalType": "uint256",
							"name": "",
							"type": "uint256"
						}
					],
					"stateMutability": "view",
					"type": "function"
				},
				{
					"inputs": [
						{
							"internalType": "uint256",
							"name": "",
							"type": "uint256"
						},
						{
							"internalType": "address",
							"name": "",
							"type": "address"
						}
					],
					"name": "purchases",
					"outputs": [
						{
							"internalType": "address",
							"name": "buyer",
							"type": "address"
						},
						{
							"internalType": "uint256",
							"name": "amount",
							"type": "uint256"
						},
						{
							"internalType": "bool",
							"name": "delivered",
							"type": "bool"
						},
						{
							"internalType": "bool",
							"name": "disputed",
							"type": "bool"
						},
						{
							"internalType": "bool",
							"name": "resolved",
							"type": "bool"
						}
					],
					"stateMutability": "view",
					"type": "function"
				},
				{
					"inputs": [
						{
							"internalType": "uint256",
							"name": "serviceId",
							"type": "uint256"
						}
					],
					"name": "raiseDispute",
					"outputs": [],
					"stateMutability": "nonpayable",
					"type": "function"
				},
				{
					"inputs": [
						{
							"internalType": "uint256",
							"name": "serviceId",
							"type": "uint256"
						},
						{
							"internalType": "address",
							"name": "buyer",
							"type": "address"
						},
						{
							"internalType": "bool",
							"name": "refund",
							"type": "bool"
						}
					],
					"name": "resolveDispute",
					"outputs": [],
					"stateMutability": "nonpayable",
					"type": "function"
				},
				{
					"inputs": [
						{
							"internalType": "uint256",
							"name": "",
							"type": "uint256"
						}
					],
					"name": "services",
					"outputs": [
						{
							"internalType": "address",
							"name": "owner",
							"type": "address"
						},
						{
							"internalType": "uint256",
							"name": "price",
							"type": "uint256"
						},
						{
							"internalType": "string",
							"name": "gateway",
							"type": "string"
						},
						{
							"internalType": "uint256",
							"name": "stake",
							"type": "uint256"
						},
						{
							"internalType": "bool",
							"name": "active",
							"type": "bool"
						}
					],
					"stateMutability": "view",
					"type": "function"
				},
				{
					"inputs": [
						{
							"internalType": "uint256",
							"name": "serviceId",
							"type": "uint256"
						}
					],
					"name": "topUpStake",
					"outputs": [],
					"stateMutability": "payable",
					"type": "function"
				},
				{
					"inputs": [
						{
							"internalType": "uint256",
							"name": "serviceId",
							"type": "uint256"
						},
						{
							"internalType": "uint256",
							"name": "amount",
							"type": "uint256"
						}
					],
					"name": "withdrawStake",
					"outputs": [],
					"stateMutability": "nonpayable",
					"type": "function"
				}
			],
			"devdoc": {
				"author": "Mike Liu (mikelxc) Mechanics (v0): 1. Service provider stakes ETH to create a listing with a fixed price & gateway URL. 2. Buyer locks the payment by calling buyService(). 3. Provider delivers off‑chain via the gateway and calls deliver() with a hash proof – ETH is released to them immediately. 4. Buyer may raiseDispute() within any agreed timeframe. 5. Arbiter resolves the dispute; on refund the buyer is compensated from the provider’s stake (slash) rather than claw‑back. Notes: • All values are in native ETH. No ERC‑20 support yet. • In production you’d add time‑outs, ERC‑20 support, upgradeability, and signature‑based off‑chain attestations.",
				"kind": "dev",
				"methods": {
					"buyService(uint256)": {
						"details": "Buyer locks payment for a service."
					},
					"createService(uint256,string)": {
						"details": "Provider stakes ETH and creates a service listing.",
						"params": {
							"gateway": "URL / CID where the AI agent can be invoked.",
							"price": "Fixed price per purchase (in wei)."
						}
					},
					"deliver(uint256,address,bytes32)": {
						"details": "Provider marks deliverable for a given buyer & receives payment immediately.",
						"params": {
							"deliverableHash": "could be IPFS CID / SHA‑256 of encrypted artifact."
						}
					},
					"raiseDispute(uint256)": {
						"details": "Buyer escalates after delivery if unhappy with the output."
					},
					"resolveDispute(uint256,address,bool)": {
						"details": "Arbiter decides outcome. If `refund=true` the buyer receives payment back      using a slash from provider stake. Otherwise dispute is closed."
					},
					"topUpStake(uint256)": {
						"details": "Provider can add more stake at any time."
					},
					"withdrawStake(uint256,uint256)": {
						"details": "Provider may withdraw excess stake when no unresolved disputes exist."
					}
				},
				"title": "EscroDot – minimal escrow & staking framework for AI‑agent services",
				"version": 1
			},
			"userdoc": {
				"kind": "user",
				"methods": {},
				"version": 1
			},
			"storageLayout": {
				"storage": [
					{
						"astId": 29,
						"contract": "Storage.sol:EscroDot",
						"label": "nextServiceId",
						"offset": 0,
						"slot": "0",
						"type": "t_uint256"
					},
					{
						"astId": 34,
						"contract": "Storage.sol:EscroDot",
						"label": "services",
						"offset": 0,
						"slot": "1",
						"type": "t_mapping(t_uint256,t_struct(Service)13_storage)"
					},
					{
						"astId": 41,
						"contract": "Storage.sol:EscroDot",
						"label": "purchases",
						"offset": 0,
						"slot": "2",
						"type": "t_mapping(t_uint256,t_mapping(t_address,t_struct(Purchase)24_storage))"
					},
					{
						"astId": 44,
						"contract": "Storage.sol:EscroDot",
						"label": "_unlocked",
						"offset": 0,
						"slot": "3",
						"type": "t_uint256"
					}
				],
				"types": {
					"t_address": {
						"encoding": "inplace",
						"label": "address",
						"numberOfBytes": "20"
					},
					"t_bool": {
						"encoding": "inplace",
						"label": "bool",
						"numberOfBytes": "1"
					},
					"t_mapping(t_address,t_struct(Purchase)24_storage)": {
						"encoding": "mapping",
						"key": "t_address",
						"label": "mapping(address => struct EscroDot.Purchase)",
						"numberOfBytes": "32",
						"value": "t_struct(Purchase)24_storage"
					},
					"t_mapping(t_uint256,t_mapping(t_address,t_struct(Purchase)24_storage))": {
						"encoding": "mapping",
						"key": "t_uint256",
						"label": "mapping(uint256 => mapping(address => struct EscroDot.Purchase))",
						"numberOfBytes": "32",
						"value": "t_mapping(t_address,t_struct(Purchase)24_storage)"
					},
					"t_mapping(t_uint256,t_struct(Service)13_storage)": {
						"encoding": "mapping",
						"key": "t_uint256",
						"label": "mapping(uint256 => struct EscroDot.Service)",
						"numberOfBytes": "32",
						"value": "t_struct(Service)13_storage"
					},
					"t_string_storage": {
						"encoding": "bytes",
						"label": "string",
						"numberOfBytes": "32"
					},
					"t_struct(Purchase)24_storage": {
						"encoding": "inplace",
						"label": "struct EscroDot.Purchase",
						"members": [
							{
								"astId": 15,
								"contract": "Storage.sol:EscroDot",
								"label": "buyer",
								"offset": 0,
								"slot": "0",
								"type": "t_address"
							},
							{
								"astId": 17,
								"contract": "Storage.sol:EscroDot",
								"label": "amount",
								"offset": 0,
								"slot": "1",
								"type": "t_uint256"
							},
							{
								"astId": 19,
								"contract": "Storage.sol:EscroDot",
								"label": "delivered",
								"offset": 0,
								"slot": "2",
								"type": "t_bool"
							},
							{
								"astId": 21,
								"contract": "Storage.sol:EscroDot",
								"label": "disputed",
								"offset": 1,
								"slot": "2",
								"type": "t_bool"
							},
							{
								"astId": 23,
								"contract": "Storage.sol:EscroDot",
								"label": "resolved",
								"offset": 2,
								"slot": "2",
								"type": "t_bool"
							}
						],
						"numberOfBytes": "96"
					},
					"t_struct(Service)13_storage": {
						"encoding": "inplace",
						"label": "struct EscroDot.Service",
						"members": [
							{
								"astId": 4,
								"contract": "Storage.sol:EscroDot",
								"label": "owner",
								"offset": 0,
								"slot": "0",
								"type": "t_address"
							},
							{
								"astId": 6,
								"contract": "Storage.sol:EscroDot",
								"label": "price",
								"offset": 0,
								"slot": "1",
								"type": "t_uint256"
							},
							{
								"astId": 8,
								"contract": "Storage.sol:EscroDot",
								"label": "gateway",
								"offset": 0,
								"slot": "2",
								"type": "t_string_storage"
							},
							{
								"astId": 10,
								"contract": "Storage.sol:EscroDot",
								"label": "stake",
								"offset": 0,
								"slot": "3",
								"type": "t_uint256"
							},
							{
								"astId": 12,
								"contract": "Storage.sol:EscroDot",
								"label": "active",
								"offset": 0,
								"slot": "4",
								"type": "t_bool"
							}
						],
						"numberOfBytes": "160"
					},
					"t_uint256": {
						"encoding": "inplace",
						"label": "uint256",
						"numberOfBytes": "32"
					}
				}
			},
			"evm": {
				"assembly": "// RO data = 0/0 bytes\n// RW data = 164/65744 bytes\n// Stack size = 16384 bytes\n\n// Instructions = 26629\n// Code size = 84045 bytes\n\n      : @0 (gas: 2)\n     0: i32 a2 = a0 >> 0x10\n     3: jump @6 if a2 != 0\n      : @1 (gas: 2)\n     6: a2 = 0x10001\n    11: jump @6 if a1 >=u a2\n      : @2 (gas: 4)\n    14: a1 = a1 + a0\n    17: i32 a1 = a1 + 0x1f\n    20: a1 = a1 & 0xffffffffffffffe0\n    23: jump @7 if a1 >=u 65537\n      : @3 (gas: 2)\n    29: a3 = i32 [0x200a4]\n    34: jump @5 if a3 >=u a1\n      : @4 (gas: 4)\n    37: u32 [0x200a4] = a1\n    42: a1 = 0x200b0\n    47: a0 = a0 + a1\n    50: ret\n      : @5 (gas: 3)\n    52: a1 = 0x200b0\n    57: a0 = a0 + a1\n    60: ret\n      : @6 (gas: 1)\n    62: trap\n      : @7 (gas: 1)\n    63: trap\n      : @8 (gas: 1)\n    64: jump @22 if a0 == a1\n      : @9 (gas: 9)\n    67: a3 = a1 << 0x20\n    70: a3 = a3 >> 0x20\n    73: a4 = a0 << 0x20\n    76: a4 = a4 >> 0x20\n    79: a4 = a4 + a2\n    82: a3 = a3 - a4\n    85: a4 = a2 << 0x1\n    88: a4 = -a4\n    90: jump @15 if a4 >=u a3\n      : @10 (gas: 1)\n    93: jump @19 if a0 >=u a1\n      : @11 (gas: 1)\n    96: jump @22 if a2 == 0\n      : @12 (gas: 3)\n    99: a2 = a2 + a0\n   102: a3 = a0\n   104: fallthrough\n      : @13 (gas: 6)\n   105: a4 = u8 [a1]\n   107: a1 = a1 + 0x1\n   110: a5 = a3 + 0x1\n   113: u8 [a3] = a4\n   115: a3 = a5\n   117: jump @13 if a5 != a2\n      : @14 (gas: 1)\n   120: jump @22\n      : @15 (gas: 1)\n   122: jump @22 if a2 == 0\n      : @16 (gas: 3)\n   125: a2 = a2 + a0\n   128: a3 = a0\n   130: fallthrough\n      : @17 (gas: 6)\n   131: a4 = u8 [a1]\n   133: a1 = a1 + 0x1\n   136: a5 = a3 + 0x1\n   139: u8 [a3] = a4\n   141: a3 = a5\n   143: jump @17 if a5 != a2\n      : @18 (gas: 1)\n   146: jump @22\n      : @19 (gas: 1)\n   148: jump @22 if a2 == 0\n      : @20 (gas: 2)\n   151: i32 a3 = a2 + 0xffffffffffffffff\n   154: fallthrough\n      : @21 (gas: 7)\n   155: a4 = a1 + a3\n   158: a4 = u8 [a4]\n   160: a2 = a2 + 0xffffffffffffffff\n   163: a5 = a0 + a3\n   166: u8 [a5] = a4\n   168: i32 a3 = a3 + 0xffffffffffffffff\n   171: jump @21 if a2 != 0\n      : @22 (gas: 1)\n   174: ret\n      : @23 (gas: 13)\n   176: sp = sp + 0xffffffffffffffd8\n   179: u64 [sp + 0x20] = ra\n   182: u64 [sp + 0x18] = s0\n   185: u64 [sp + 0x10] = s1\n   188: a2 = u64 [a1]\n   190: u64 [sp + 0x8] = a2\n   193: a2 = u64 [a1 + 0x8]\n   196: u64 [sp] = a2\n   198: s0 = u64 [a1 + 0x10]\n   201: s1 = u64 [a1 + 0x18]\n   204: i32 a0 = a0 + 0\n   206: a1 = 0x20\n   209: ra = 2, jump @0\n      : @24 [@dyn 1] (gas: 71)\n   214: a1 = reverse s1\n   216: a2 = reverse s0\n   218: a3 = u64 [sp]\n   220: a3 = reverse a3\n   222: a4 = u64 [sp + 0x8]\n   225: a4 = reverse a4\n   227: u8 [a0 + 0x18] = a4\n   230: u8 [a0 + 0x10] = a3\n   233: u8 [a0 + 0x8] = a2\n   236: u8 [a0] = a1\n   238: a5 = a4 >> 0x38\n   241: u8 [a0 + 0x1f] = a5\n   244: a5 = a4 >> 0x30\n   247: u8 [a0 + 0x1e] = a5\n   250: a5 = a4 >> 0x28\n   253: u8 [a0 + 0x1d] = a5\n   256: a5 = a4 >> 0x20\n   259: u8 [a0 + 0x1c] = a5\n   262: a5 = a4 >> 0x18\n   265: u8 [a0 + 0x1b] = a5\n   268: a5 = a4 >> 0x10\n   271: u8 [a0 + 0x1a] = a5\n   274: a4 = a4 >> 0x8\n   277: u8 [a0 + 0x19] = a4\n   280: a4 = a3 >> 0x38\n   283: u8 [a0 + 0x17] = a4\n   286: a4 = a3 >> 0x30\n   289: u8 [a0 + 0x16] = a4\n   292: a4 = a3 >> 0x28\n   295: u8 [a0 + 0x15] = a4\n   298: a4 = a3 >> 0x20\n   301: u8 [a0 + 0x14] = a4\n   304: a4 = a3 >> 0x18\n   307: u8 [a0 + 0x13] = a4\n   310: a4 = a3 >> 0x10\n   313: u8 [a0 + 0x12] = a4\n   316: a3 = a3 >> 0x8\n   319: u8 [a0 + 0x11] = a3\n   322: a3 = a2 >> 0x38\n   325: u8 [a0 + 0xf] = a3\n   328: a3 = a2 >> 0x30\n   331: u8 [a0 + 0xe] = a3\n   334: a3 = a2 >> 0x28\n   337: u8 [a0 + 0xd] = a3\n   340: a3 = a2 >> 0x20\n   343: u8 [a0 + 0xc] = a3\n   346: a3 = a2 >> 0x18\n   349: u8 [a0 + 0xb] = a3\n   352: a3 = a2 >> 0x10\n   355: u8 [a0 + 0xa] = a3\n   358: a2 = a2 >> 0x8\n   361: u8 [a0 + 0x9] = a2\n   364: a2 = a1 >> 0x38\n   367: u8 [a0 + 0x7] = a2\n   370: a2 = a1 >> 0x30\n   373: u8 [a0 + 0x6] = a2\n   376: a2 = a1 >> 0x28\n   379: u8 [a0 + 0x5] = a2\n   382: a2 = a1 >> 0x20\n   385: u8 [a0 + 0x4] = a2\n   388: a2 = a1 >> 0x18\n   391: u8 [a0 + 0x3] = a2\n   394: a2 = a1 >> 0x10\n   397: u8 [a0 + 0x2] = a2\n   400: a1 = a1 >> 0x8\n   403: u8 [a0 + 0x1] = a1\n   406: ra = u64 [sp + 0x20]\n   409: s0 = u64 [sp + 0x18]\n   412: s1 = u64 [sp + 0x10]\n   415: sp = sp + 0x28\n   418: ret\n      : @25 (gas: 6)\n   420: sp = sp + 0xfffffffffffffff0\n   423: u64 [sp + 0x8] = ra\n   426: u64 [sp] = s0\n   428: s0 = a0 & 0x1\n   431: ecalli 3 // 'call_data_size'\n   433: fallthrough\n      : @26 (gas: 2)\n   434: u32 [0x200a8] = a0\n   439: jump @28 if s0 == 0\n      : @27 (gas: 1)\n   442: ra = 4, jump @29\n      : @28 [@dyn 2] (gas: 1)\n   446: ra = 6, jump @45\n      : @29 [@dyn 3] (gas: 9)\n   451: sp = sp + 0xffffffffffffff60\n   455: u64 [sp + 0x98] = ra\n   459: u64 [sp + 0x90] = s0\n   463: u64 [sp + 0x88] = s1\n   467: s0 = sp + 0xa0\n   471: sp = sp & 0xffffffffffffffe0\n   474: a0 = 0x40\n   477: a1 = 0x20\n   480: ra = 8, jump @0\n      : @30 [@dyn 4] (gas: 39)\n   485: u8 [a0 + 31] = 0xa0\n   490: u8 [a0 + 30] = 0\n   493: u8 [a0 + 29] = 0\n   496: u8 [a0 + 28] = 0\n   499: u8 [a0 + 27] = 0\n   502: u8 [a0 + 26] = 0\n   505: u8 [a0 + 25] = 0\n   508: u8 [a0 + 24] = 0\n   511: u8 [a0 + 23] = 0\n   514: u8 [a0 + 22] = 0\n   517: u8 [a0 + 21] = 0\n   520: u8 [a0 + 20] = 0\n   523: u8 [a0 + 19] = 0\n   526: u8 [a0 + 18] = 0\n   529: u8 [a0 + 17] = 0\n   532: u8 [a0 + 16] = 0\n   535: u8 [a0 + 15] = 0\n   538: u8 [a0 + 14] = 0\n   541: u8 [a0 + 13] = 0\n   544: u8 [a0 + 12] = 0\n   547: u8 [a0 + 11] = 0\n   550: u8 [a0 + 10] = 0\n   553: u8 [a0 + 9] = 0\n   556: u8 [a0 + 8] = 0\n   559: u8 [a0 + 7] = 0\n   562: u8 [a0 + 6] = 0\n   565: u8 [a0 + 5] = 0\n   568: u8 [a0 + 4] = 0\n   571: u8 [a0 + 3] = 0\n   574: u8 [a0 + 2] = 0\n   577: u8 [a0 + 1] = 0\n   580: u8 [a0 + 0] = 0\n   582: u64 [sp + 120] = 0\n   585: u64 [sp + 96] = 0\n   588: u64 [sp + 104] = 0\n   591: u64 [sp + 112] = 0\n   594: i32 a0 = sp + 0x60\n   597: ecalli 14 // 'value_transferred'\n   599: fallthrough\n      : @31 (gas: 8)\n   600: a0 = u64 [sp + 0x70]\n   603: a1 = u64 [sp + 0x78]\n   606: a2 = u64 [sp + 0x68]\n   609: a3 = u64 [sp + 0x60]\n   612: a1 = a1 | a2\n   615: a0 = a0 | a3\n   618: a0 = a0 | a1\n   621: jump @37 if a0 != 0\n      : @32 (gas: 20)\n   625: a0 = sp + 0x40\n   628: ra = 0xa\n   631: sp = sp + 0xffffffffffffff90\n   634: u64 [sp + 0x68] = ra\n   637: u64 [sp + 0x60] = s0\n   640: u64 [sp + 0x58] = s1\n   643: s0 = sp + 0x70\n   646: sp = sp & 0xfffffffffffffff0\n   649: s1 = i32 [0x200a8]\n   654: u64 [sp + 0x8] = a0\n   657: a0 = s1 << 0x20\n   660: a0 = a0 >> 0x20\n   663: u64 [sp + 40] = 0\n   666: u64 [sp + 32] = 0\n   669: u64 [sp + 0x10] = a0\n   672: a0 = sp + 0x30\n   675: a1 = sp + 0x10\n   678: u64 [sp + 24] = 0\n   681: ra = 0x44\n   684: jump @76\n      : @33 [@dyn 5] (gas: 84)\n   687: a1 = u64 [sp + 0x40]\n   690: a0 = u64 [sp + 0x48]\n   693: a2 = u64 [sp + 0x50]\n   696: a3 = u64 [sp + 0x58]\n   699: u64 [sp + 0x38] = a3\n   702: u64 [sp + 0x30] = a2\n   705: u64 [sp + 0x28] = a0\n   708: a0 = sp + 0x20\n   711: u64 [sp + 0x20] = a1\n   714: ra = 0xc\n   717: sp = sp + 0xffffffffffffff20\n   721: u64 [sp + 0xd8] = ra\n   725: u64 [sp + 0xd0] = s0\n   729: u64 [sp + 0xc8] = s1\n   733: s0 = sp + 0xe0\n   737: sp = sp & 0xffffffffffffffe0\n   740: a1 = u64 [a0 + 0x18]\n   743: u64 [sp] = a1\n   745: a1 = u64 [a0 + 0x8]\n   748: u64 [sp + 0x18] = a1\n   751: a1 = u64 [a0]\n   753: u64 [sp + 0x8] = a1\n   756: a0 = u64 [a0 + 0x10]\n   759: u64 [sp + 0x10] = a0\n   762: u64 [sp + 152] = 0\n   766: u64 [sp + 144] = 0\n   770: u64 [sp + 136] = 0\n   774: u64 [sp + 128] = 0\n   778: u64 [sp + 184] = 0\n   782: u64 [sp + 176] = 0\n   786: u64 [sp + 168] = 0\n   790: u64 [sp + 160] = 0\n   794: u32 [sp + 96] = 0x20\n   798: i32 a1 = sp + 0x80\n   802: i32 a3 = sp + 0xa0\n   806: i32 a4 = sp + 0x60\n   809: a2 = 0xffffffffffffffff\n   812: a0 = 0\n   814: ecalli 7 // 'get_storage'\n   816: u64 [sp + 152] = 0\n   820: u64 [sp + 144] = 0\n   824: u64 [sp + 136] = 0\n   828: u64 [sp + 128] = 0\n   832: u64 [sp + 184] = 0\n   836: u64 [sp + 176] = 0\n   840: u64 [sp + 168] = 0\n   844: u64 [sp + 160] = 0x1\n   849: i32 a1 = sp + 0x80\n   853: i32 a3 = sp + 0xa0\n   857: a2 = 0xffffffffffffffff\n   860: a4 = 0x20\n   863: a0 = 0\n   865: ecalli 13 // 'set_storage'\n   867: u64 [sp + 152] = 0\n   871: u64 [sp + 144] = 0\n   875: u64 [sp + 136] = 0\n   879: u64 [sp + 128] = 0x3\n   884: u64 [sp + 184] = 0\n   888: u64 [sp + 176] = 0\n   892: u64 [sp + 168] = 0\n   896: u64 [sp + 160] = 0\n   900: u32 [sp + 96] = 0x20\n   904: i32 a1 = sp + 0x80\n   908: i32 a3 = sp + 0xa0\n   912: i32 a4 = sp + 0x60\n   915: a2 = 0xffffffffffffffff\n   918: a0 = 0\n   920: ecalli 7 // 'get_storage'\n   922: u64 [sp + 152] = 0\n   926: u64 [sp + 144] = 0\n   930: u64 [sp + 136] = 0\n   934: u64 [sp + 128] = 0x3\n   939: s1 = u64 [sp + 0x8]\n   942: u64 [sp + 184] = 0\n   946: u64 [sp + 176] = 0\n   950: u64 [sp + 168] = 0\n   954: u64 [sp + 160] = 0x1\n   959: i32 a1 = sp + 0x80\n   963: i32 a3 = sp + 0xa0\n   967: a2 = 0xffffffffffffffff\n   970: a4 = 0x20\n   973: a0 = 0\n   975: ecalli 13 // 'set_storage'\n   977: jump @109\n      : @34 [@dyn 6] (gas: 3)\n   980: a0 = 0x40\n   983: a1 = 0x20\n   986: ra = 14, jump @0\n      : @35 [@dyn 7] (gas: 100)\n   991: a1 = u8 [a0 + 0x11]\n   994: a2 = u8 [a0 + 0x10]\n   997: a3 = u8 [a0 + 0x12]\n  1000: a4 = u8 [a0 + 0x13]\n  1003: a1 = a1 << 0x8\n  1006: a1 = a1 | a2\n  1009: a3 = a3 << 0x10\n  1012: a4 = a4 << 0x18\n  1015: a3 = a3 | a4\n  1018: a1 = a1 | a3\n  1021: a2 = u8 [a0 + 0x15]\n  1024: a3 = u8 [a0 + 0x14]\n  1027: a4 = u8 [a0 + 0x16]\n  1030: a5 = u8 [a0 + 0x17]\n  1033: a2 = a2 << 0x8\n  1036: a2 = a2 | a3\n  1039: a4 = a4 << 0x10\n  1042: a5 = a5 << 0x18\n  1045: a4 = a4 | a5\n  1048: a2 = a2 | a4\n  1051: a2 = a2 << 0x20\n  1054: t0 = a2 | a1\n  1057: a2 = u8 [a0 + 0x1]\n  1060: a3 = u8 [a0]\n  1062: a4 = u8 [a0 + 0x2]\n  1065: a5 = u8 [a0 + 0x3]\n  1068: a2 = a2 << 0x8\n  1071: a2 = a2 | a3\n  1074: a4 = a4 << 0x10\n  1077: a5 = a5 << 0x18\n  1080: a4 = a4 | a5\n  1083: a2 = a2 | a4\n  1086: a3 = u8 [a0 + 0x5]\n  1089: a4 = u8 [a0 + 0x4]\n  1092: a5 = u8 [a0 + 0x6]\n  1095: s1 = u8 [a0 + 0x7]\n  1098: a3 = a3 << 0x8\n  1101: a3 = a3 | a4\n  1104: a5 = a5 << 0x10\n  1107: s1 = s1 << 0x18\n  1110: a5 = a5 | s1\n  1113: a3 = a3 | a5\n  1116: a3 = a3 << 0x20\n  1119: a2 = a2 | a3\n  1122: a3 = u8 [a0 + 0x19]\n  1125: a4 = u8 [a0 + 0x18]\n  1128: a5 = u8 [a0 + 0x1a]\n  1131: s1 = u8 [a0 + 0x1b]\n  1134: a3 = a3 << 0x8\n  1137: a3 = a3 | a4\n  1140: a5 = a5 << 0x10\n  1143: s1 = s1 << 0x18\n  1146: a5 = a5 | s1\n  1149: a3 = a3 | a5\n  1152: a4 = u8 [a0 + 0x1d]\n  1155: a5 = u8 [a0 + 0x1c]\n  1158: s1 = u8 [a0 + 0x1e]\n  1161: a1 = u8 [a0 + 0x1f]\n  1164: a4 = a4 << 0x8\n  1167: a4 = a4 | a5\n  1170: s1 = s1 << 0x10\n  1173: a1 = a1 << 0x18\n  1176: a1 = a1 | s1\n  1179: a1 = a1 | a4\n  1182: a1 = a1 << 0x20\n  1185: a3 = a3 | a1\n  1188: a1 = u8 [a0 + 0x9]\n  1191: a4 = u8 [a0 + 0x8]\n  1194: a5 = u8 [a0 + 0xa]\n  1197: s1 = u8 [a0 + 0xb]\n  1200: a1 = a1 << 0x8\n  1203: a1 = a1 | a4\n  1206: a5 = a5 << 0x10\n  1209: s1 = s1 << 0x18\n  1212: a5 = a5 | s1\n  1215: a1 = a1 | a5\n  1218: a4 = u8 [a0 + 0xd]\n  1221: a5 = u8 [a0 + 0xc]\n  1224: s1 = u8 [a0 + 0xe]\n  1227: a0 = u8 [a0 + 0xf]\n  1230: a4 = a4 << 0x8\n  1233: a4 = a4 | a5\n  1236: s1 = s1 << 0x10\n  1239: a0 = a0 << 0x18\n  1242: a0 = a0 | s1\n  1245: a0 = a0 | a4\n  1248: a0 = a0 << 0x20\n  1251: a0 = a0 | a1\n  1254: a0 = reverse a0\n  1256: s1 = reverse a3\n  1258: a1 = reverse a2\n  1260: a2 = reverse t0\n  1262: a1 = a1 | a2\n  1265: a2 = s1 | a0\n  1268: a2 = a2 | a1\n  1271: a2 = a2 >> 0x20\n  1274: a0 = a0 | a1\n  1277: a0 = a0 << 0x20\n  1280: a0 = a0 | a2\n  1283: jump @39 if a0 == 0\n      : @36 (gas: 1)\n  1286: trap\n      : @37 (gas: 3)\n  1287: a0 = 0\n  1289: a1 = 0\n  1291: ra = 16, jump @0\n      : @38 [@dyn 8] (gas: 5)\n  1296: i32 a1 = a0 + 0\n  1298: a0 = 0x1\n  1301: a2 = 0\n  1303: ecalli 11 // 'seal_return'\n  1305: fallthrough\n      : @39 (gas: 4)\n  1306: i32 a0 = s1 + 0\n  1308: u64 [sp + 0x18] = a0\n  1311: a1 = 0\n  1313: ra = 18, jump @0\n      : @40 [@dyn 9] (gas: 7)\n  1318: i32 a0 = a0 + 0\n  1320: a1 = 0\n  1322: a2 = 0\n  1324: ecalli 1 // 'call_data_copy'\n  1326: a0 = 0x80\n  1330: a1 = 0x20\n  1333: ra = 20, jump @0\n      : @41 [@dyn 10] (gas: 99)\n  1338: a1 = u8 [a0 + 0x1]\n  1341: a2 = u8 [a0]\n  1343: a3 = u8 [a0 + 0x2]\n  1346: a4 = u8 [a0 + 0x3]\n  1349: a1 = a1 << 0x8\n  1352: a1 = a1 | a2\n  1355: a3 = a3 << 0x10\n  1358: a4 = a4 << 0x18\n  1361: a3 = a3 | a4\n  1364: a1 = a1 | a3\n  1367: a2 = u8 [a0 + 0x5]\n  1370: a3 = u8 [a0 + 0x4]\n  1373: a4 = u8 [a0 + 0x6]\n  1376: a5 = u8 [a0 + 0x7]\n  1379: a2 = a2 << 0x8\n  1382: a2 = a2 | a3\n  1385: a4 = a4 << 0x10\n  1388: a5 = a5 << 0x18\n  1391: a4 = a4 | a5\n  1394: a2 = a2 | a4\n  1397: a2 = a2 << 0x20\n  1400: t0 = a2 | a1\n  1403: a2 = u8 [a0 + 0x19]\n  1406: a3 = u8 [a0 + 0x18]\n  1409: a4 = u8 [a0 + 0x1a]\n  1412: a5 = u8 [a0 + 0x1b]\n  1415: a2 = a2 << 0x8\n  1418: a2 = a2 | a3\n  1421: a4 = a4 << 0x10\n  1424: a5 = a5 << 0x18\n  1427: a4 = a4 | a5\n  1430: a2 = a2 | a4\n  1433: a3 = u8 [a0 + 0x1d]\n  1436: a4 = u8 [a0 + 0x1c]\n  1439: a5 = u8 [a0 + 0x1e]\n  1442: s1 = u8 [a0 + 0x1f]\n  1445: a3 = a3 << 0x8\n  1448: a3 = a3 | a4\n  1451: a5 = a5 << 0x10\n  1454: s1 = s1 << 0x18\n  1457: a5 = a5 | s1\n  1460: a3 = a3 | a5\n  1463: a3 = a3 << 0x20\n  1466: a2 = a2 | a3\n  1469: a3 = u8 [a0 + 0x11]\n  1472: a4 = u8 [a0 + 0x10]\n  1475: a5 = u8 [a0 + 0x12]\n  1478: s1 = u8 [a0 + 0x13]\n  1481: a3 = a3 << 0x8\n  1484: a3 = a3 | a4\n  1487: a5 = a5 << 0x10\n  1490: s1 = s1 << 0x18\n  1493: a5 = a5 | s1\n  1496: a3 = a3 | a5\n  1499: a4 = u8 [a0 + 0x15]\n  1502: a5 = u8 [a0 + 0x14]\n  1505: s1 = u8 [a0 + 0x16]\n  1508: a1 = u8 [a0 + 0x17]\n  1511: a4 = a4 << 0x8\n  1514: a4 = a4 | a5\n  1517: s1 = s1 << 0x10\n  1520: a1 = a1 << 0x18\n  1523: a1 = a1 | s1\n  1526: a1 = a1 | a4\n  1529: a1 = a1 << 0x20\n  1532: a3 = a3 | a1\n  1535: a1 = u8 [a0 + 0x9]\n  1538: a4 = u8 [a0 + 0x8]\n  1541: a5 = u8 [a0 + 0xa]\n  1544: s1 = u8 [a0 + 0xb]\n  1547: a1 = a1 << 0x8\n  1550: a1 = a1 | a4\n  1553: a5 = a5 << 0x10\n  1556: s1 = s1 << 0x18\n  1559: a5 = a5 | s1\n  1562: a1 = a1 | a5\n  1565: a4 = u8 [a0 + 0xd]\n  1568: a5 = u8 [a0 + 0xc]\n  1571: s1 = u8 [a0 + 0xe]\n  1574: a0 = u8 [a0 + 0xf]\n  1577: a4 = a4 << 0x8\n  1580: a4 = a4 | a5\n  1583: s1 = s1 << 0x10\n  1586: a0 = a0 << 0x18\n  1589: a0 = a0 | s1\n  1592: a0 = a0 | a4\n  1595: a0 = a0 << 0x20\n  1598: a0 = a0 | a1\n  1601: a4 = reverse a0\n  1603: a3 = reverse a3\n  1605: a0 = 0x300b0\n  1610: a2 = reverse a2\n  1612: a5 = reverse t0\n  1614: a1 = i32 [0x200a0]\n  1619: u64 [0x300c8] = a5\n  1624: u64 [0x300b0] = a2\n  1629: u64 [0x300b8] = a3\n  1634: u64 [0x300c0] = a4\n  1639: jump @43 if a1 == 0\n      : @42 (gas: 3)\n  1642: i32 a0 = a0 + 0\n  1644: ecalli 12 // 'set_immutable_data'\n  1646: fallthrough\n      : @43 (gas: 3)\n  1647: a0 = u64 [sp + 0x18]\n  1650: a1 = 0\n  1652: ra = 22, jump @0\n      : @44 [@dyn 11] (gas: 6)\n  1657: i32 a1 = a0 + 0\n  1659: a0 = 0\n  1661: a2 = 0\n  1663: ra = 0x18\n  1666: ecalli 11 // 'seal_return'\n  1668: fallthrough\n      : @45 [@dyn 12] (gas: 8)\n  1669: sp = sp + 0xffffffffffffffc0\n  1672: u64 [sp + 0x38] = ra\n  1675: u64 [sp + 0x30] = s0\n  1678: s0 = sp + 0x40\n  1681: sp = sp & 0xffffffffffffffe0\n  1684: a0 = 0x40\n  1687: a1 = 0x20\n  1690: ra = 26, jump @0\n      : @46 [@dyn 13] (gas: 34)\n  1695: u8 [a0 + 31] = 0x80\n  1700: u8 [a0 + 30] = 0\n  1703: u8 [a0 + 29] = 0\n  1706: u8 [a0 + 28] = 0\n  1709: u8 [a0 + 27] = 0\n  1712: u8 [a0 + 26] = 0\n  1715: u8 [a0 + 25] = 0\n  1718: u8 [a0 + 24] = 0\n  1721: u8 [a0 + 23] = 0\n  1724: u8 [a0 + 22] = 0\n  1727: u8 [a0 + 21] = 0\n  1730: u8 [a0 + 20] = 0\n  1733: u8 [a0 + 19] = 0\n  1736: u8 [a0 + 18] = 0\n  1739: u8 [a0 + 17] = 0\n  1742: u8 [a0 + 16] = 0\n  1745: u8 [a0 + 15] = 0\n  1748: u8 [a0 + 14] = 0\n  1751: u8 [a0 + 13] = 0\n  1754: u8 [a0 + 12] = 0\n  1757: u8 [a0 + 11] = 0\n  1760: u8 [a0 + 10] = 0\n  1763: u8 [a0 + 9] = 0\n  1766: u8 [a0 + 8] = 0\n  1769: u8 [a0 + 7] = 0\n  1772: u8 [a0 + 3] = 0\n  1775: u8 [a0 + 2] = 0\n  1778: u8 [a0 + 1] = 0\n  1781: u8 [a0 + 0] = 0\n  1783: a1 = i32 [0x200a8]\n  1788: u8 [a0 + 6] = 0\n  1791: u8 [a0 + 5] = 0\n  1794: u8 [a0 + 4] = 0\n  1797: jump @66 if a1 <u 4\n      : @47 (gas: 5)\n  1802: i32 a0 = sp + 0\n  1804: a1 = 0\n  1806: ra = 0x1c\n  1809: ecalli 2 // 'call_data_load'\n  1811: fallthrough\n      : @48 [@dyn 14] (gas: 2)\n  1812: a0 = i32 [sp + 0x1c]\n  1815: jump @54 if a0 <=s 3314869739\n      : @49 (gas: 3)\n  1822: a1 = 0xfffffffffe25e000\n  1828: a2 = 0xfffffffffe25e009\n  1834: jump @59 if a2 <s a0\n      : @50 (gas: 1)\n  1838: jump @72 if a0 == 3314869740\n      : @51 (gas: 1)\n  1846: jump @69 if a0 == 4059952233\n      : @52 (gas: 1)\n  1854: jump @66 if a0 != 4140121499\n      : @53 (gas: 14)\n  1862: ra = 0x1e\n  1865: sp = sp + 0xffffffffffffff60\n  1869: u64 [sp + 0x98] = ra\n  1873: u64 [sp + 0x90] = s0\n  1877: u64 [sp + 0x88] = s1\n  1881: s0 = sp + 0xa0\n  1885: sp = sp & 0xffffffffffffffe0\n  1888: u64 [sp + 56] = 0\n  1891: u64 [sp + 48] = 0\n  1894: u64 [sp + 40] = 0\n  1897: u64 [sp + 32] = 0\n  1900: i32 a0 = sp + 0x20\n  1903: ecalli 14 // 'value_transferred'\n  1905: jump @403\n      : @54 [@dyn 15] (gas: 2)\n  1908: a2 = 0xffffffffbb0297d9\n  1914: jump @63 if a2 >=s a0\n      : @55 (gas: 1)\n  1918: jump @71 if a0 == 3137509338\n      : @56 (gas: 1)\n  1926: jump @68 if a0 == 3187534727\n      : @57 (gas: 1)\n  1934: jump @66 if a0 != 3257683779\n      : @58 (gas: 14)\n  1942: ra = 0x20\n  1945: sp = sp + 0xfffffffffffffd40\n  1949: u64 [sp + 0x2b8] = ra\n  1953: u64 [sp + 0x2b0] = s0\n  1957: u64 [sp + 0x2a8] = s1\n  1961: s0 = sp + 0x2c0\n  1965: sp = sp & 0xffffffffffffffe0\n  1968: u64 [sp + 632] = 0\n  1972: u64 [sp + 624] = 0\n  1976: u64 [sp + 616] = 0\n  1980: u64 [sp + 608] = 0\n  1984: i32 a0 = sp + 0x260\n  1988: ecalli 14 // 'value_transferred'\n  1990: jump @358\n      : @59 [@dyn 16] (gas: 2)\n  1993: i32 a1 = a1 + 0xa\n  1996: jump @73 if a0 == a1\n      : @60 (gas: 1)\n  2000: jump @70 if a0 == 470410694\n      : @61 (gas: 1)\n  2007: jump @66 if a0 != 1692108006\n      : @62 (gas: 14)\n  2014: ra = 0x22\n  2017: sp = sp + 0xfffffffffffffea0\n  2021: u64 [sp + 0x158] = ra\n  2025: u64 [sp + 0x150] = s0\n  2029: u64 [sp + 0x148] = s1\n  2033: s0 = sp + 0x160\n  2037: sp = sp & 0xffffffffffffffe0\n  2040: u64 [sp + 312] = 0\n  2044: u64 [sp + 304] = 0\n  2048: u64 [sp + 296] = 0\n  2052: u64 [sp + 288] = 0\n  2056: i32 a0 = sp + 0x120\n  2060: ecalli 14 // 'value_transferred'\n  2062: jump @188\n      : @63 [@dyn 17] (gas: 1)\n  2065: jump @67 if a0 == 2780915534\n      : @64 (gas: 1)\n  2072: jump @66 if a0 != 2886131791\n      : @65 (gas: 1)\n  2079: ra = 36, jump @215\n      : @66 [@dyn 18] (gas: 1)\n  2084: ra = 38, jump @248\n      : @67 [@dyn 19] (gas: 1)\n  2089: ra = 40, jump @204\n      : @68 [@dyn 20] (gas: 1)\n  2094: ra = 42, jump @270\n      : @69 [@dyn 21] (gas: 1)\n  2099: ra = 44, jump @387\n      : @70 [@dyn 22] (gas: 14)\n  2104: ra = 0x2e\n  2107: sp = sp + 0xfffffffffffffcc0\n  2111: u64 [sp + 0x338] = ra\n  2115: u64 [sp + 0x330] = s0\n  2119: u64 [sp + 0x328] = s1\n  2123: s0 = sp + 0x340\n  2127: sp = sp & 0xffffffffffffffe0\n  2130: u64 [sp + 792] = 0\n  2134: u64 [sp + 784] = 0\n  2138: u64 [sp + 776] = 0\n  2142: u64 [sp + 768] = 0\n  2146: i32 a0 = sp + 0x300\n  2150: ecalli 14 // 'value_transferred'\n  2152: jump @150\n      : @71 [@dyn 23] (gas: 1)\n  2155: ra = 48, jump @237\n      : @72 [@dyn 24] (gas: 1)\n  2160: ra = 50, jump @370\n      : @73 [@dyn 25] (gas: 14)\n  2165: ra = 0x34\n  2168: sp = sp + 0xffffffffffffffa0\n  2171: u64 [sp + 0x58] = ra\n  2174: u64 [sp + 0x50] = s0\n  2177: u64 [sp + 0x48] = s1\n  2180: s0 = sp + 0x60\n  2183: sp = sp & 0xffffffffffffffe0\n  2186: u64 [sp + 56] = 0\n  2189: u64 [sp + 48] = 0\n  2192: u64 [sp + 40] = 0\n  2195: u64 [sp + 32] = 0\n  2198: i32 a0 = sp + 0x20\n  2201: ecalli 14 // 'value_transferred'\n  2203: jump @418\n      : @74 [@dyn 26] (gas: 7)\n  2206: sp = sp + 0xfffffffffffffff0\n  2209: u64 [sp + 0x8] = ra\n  2212: u64 [sp] = s0\n  2214: s0 = a0\n  2216: a0 = 0x40\n  2219: a1 = 0x20\n  2222: ra = 54, jump @0\n      : @75 [@dyn 27] (gas: 100)\n  2227: a1 = u8 [a0 + 0x1]\n  2230: a2 = u8 [a0]\n  2232: a3 = u8 [a0 + 0x2]\n  2235: a4 = u8 [a0 + 0x3]\n  2238: a1 = a1 << 0x8\n  2241: a1 = a1 | a2\n  2244: a3 = a3 << 0x10\n  2247: a4 = a4 << 0x18\n  2250: a3 = a3 | a4\n  2253: a1 = a1 | a3\n  2256: a2 = u8 [a0 + 0x5]\n  2259: a3 = u8 [a0 + 0x4]\n  2262: a4 = u8 [a0 + 0x6]\n  2265: a5 = u8 [a0 + 0x7]\n  2268: a2 = a2 << 0x8\n  2271: a2 = a2 | a3\n  2274: a4 = a4 << 0x10\n  2277: a5 = a5 << 0x18\n  2280: a4 = a4 | a5\n  2283: a2 = a2 | a4\n  2286: a2 = a2 << 0x20\n  2289: t0 = a2 | a1\n  2292: a2 = u8 [a0 + 0x9]\n  2295: a3 = u8 [a0 + 0x8]\n  2298: a4 = u8 [a0 + 0xa]\n  2301: a5 = u8 [a0 + 0xb]\n  2304: a2 = a2 << 0x8\n  2307: a2 = a2 | a3\n  2310: a4 = a4 << 0x10\n  2313: a5 = a5 << 0x18\n  2316: a4 = a4 | a5\n  2319: a2 = a2 | a4\n  2322: a3 = u8 [a0 + 0xd]\n  2325: a4 = u8 [a0 + 0xc]\n  2328: a5 = u8 [a0 + 0xe]\n  2331: a1 = u8 [a0 + 0xf]\n  2334: a3 = a3 << 0x8\n  2337: a3 = a3 | a4\n  2340: a5 = a5 << 0x10\n  2343: a1 = a1 << 0x18\n  2346: a1 = a1 | a5\n  2349: a1 = a1 | a3\n  2352: a1 = a1 << 0x20\n  2355: t1 = a1 | a2\n  2358: a1 = u8 [a0 + 0x11]\n  2361: a3 = u8 [a0 + 0x10]\n  2364: a4 = u8 [a0 + 0x12]\n  2367: a5 = u8 [a0 + 0x13]\n  2370: a1 = a1 << 0x8\n  2373: a1 = a1 | a3\n  2376: a4 = a4 << 0x10\n  2379: a5 = a5 << 0x18\n  2382: a4 = a4 | a5\n  2385: a1 = a1 | a4\n  2388: a3 = u8 [a0 + 0x15]\n  2391: a4 = u8 [a0 + 0x14]\n  2394: a5 = u8 [a0 + 0x16]\n  2397: a2 = u8 [a0 + 0x17]\n  2400: a3 = a3 << 0x8\n  2403: a3 = a3 | a4\n  2406: a5 = a5 << 0x10\n  2409: a2 = a2 << 0x18\n  2412: a2 = a2 | a5\n  2415: a2 = a2 | a3\n  2418: a2 = a2 << 0x20\n  2421: a3 = a2 | a1\n  2424: a1 = u8 [a0 + 0x19]\n  2427: a2 = u8 [a0 + 0x18]\n  2430: a4 = u8 [a0 + 0x1a]\n  2433: a5 = u8 [a0 + 0x1b]\n  2436: a1 = a1 << 0x8\n  2439: a1 = a1 | a2\n  2442: a4 = a4 << 0x10\n  2445: a5 = a5 << 0x18\n  2448: a4 = a4 | a5\n  2451: a1 = a1 | a4\n  2454: a2 = u8 [a0 + 0x1d]\n  2457: a4 = u8 [a0 + 0x1c]\n  2460: a5 = u8 [a0 + 0x1e]\n  2463: a0 = u8 [a0 + 0x1f]\n  2466: a2 = a2 << 0x8\n  2469: a2 = a2 | a4\n  2472: a5 = a5 << 0x10\n  2475: a0 = a0 << 0x18\n  2478: a0 = a0 | a5\n  2481: a0 = a0 | a2\n  2484: a0 = a0 << 0x20\n  2487: a0 = a0 | a1\n  2490: a0 = reverse a0\n  2492: a1 = reverse a3\n  2494: a2 = reverse t1\n  2496: a3 = reverse t0\n  2498: u64 [s0 + 0x18] = a3\n  2501: u64 [s0 + 0x10] = a2\n  2504: u64 [s0 + 0x8] = a1\n  2507: u64 [s0] = a0\n  2509: ra = u64 [sp + 0x8]\n  2512: s0 = u64 [sp]\n  2514: sp = sp + 0x10\n  2517: ret\n      : @76 (gas: 18)\n  2519: sp = sp + 0xffffffffffffff60\n  2523: u64 [sp + 0x98] = ra\n  2527: u64 [sp + 0x90] = s0\n  2531: u64 [sp + 0x88] = s1\n  2535: s0 = sp + 0xa0\n  2539: sp = sp & 0xfffffffffffffff0\n  2542: a2 = u64 [a1 + 0x18]\n  2545: u64 [sp + 0x30] = a2\n  2548: a2 = u64 [a1 + 0x10]\n  2551: u64 [sp + 0x28] = a2\n  2554: a2 = u64 [a1 + 0x8]\n  2557: u64 [sp + 0x20] = a2\n  2560: a1 = u64 [a1]\n  2562: u64 [sp + 0x18] = a1\n  2565: u64 [sp + 0x38] = a0\n  2568: a0 = 0x40\n  2571: a1 = 0x20\n  2574: ra = 56, jump @0\n      : @77 [@dyn 28] (gas: 130)\n  2579: a1 = u8 [a0 + 0x19]\n  2582: a2 = u8 [a0 + 0x18]\n  2585: a3 = u8 [a0 + 0x1a]\n  2588: a4 = u8 [a0 + 0x1b]\n  2591: a1 = a1 << 0x8\n  2594: a1 = a1 | a2\n  2597: a3 = a3 << 0x10\n  2600: a4 = a4 << 0x18\n  2603: a3 = a3 | a4\n  2606: a1 = a1 | a3\n  2609: a2 = u8 [a0 + 0x1d]\n  2612: a3 = u8 [a0 + 0x1c]\n  2615: a4 = u8 [a0 + 0x1e]\n  2618: a5 = u8 [a0 + 0x1f]\n  2621: a2 = a2 << 0x8\n  2624: a2 = a2 | a3\n  2627: a4 = a4 << 0x10\n  2630: a5 = a5 << 0x18\n  2633: a4 = a4 | a5\n  2636: a2 = a2 | a4\n  2639: a2 = a2 << 0x20\n  2642: t0 = a2 | a1\n  2645: a2 = u8 [a0 + 0x11]\n  2648: a3 = u8 [a0 + 0x10]\n  2651: a4 = u8 [a0 + 0x12]\n  2654: a5 = u8 [a0 + 0x13]\n  2657: a2 = a2 << 0x8\n  2660: a2 = a2 | a3\n  2663: a4 = a4 << 0x10\n  2666: a5 = a5 << 0x18\n  2669: a4 = a4 | a5\n  2672: a2 = a2 | a4\n  2675: a3 = u8 [a0 + 0x15]\n  2678: a4 = u8 [a0 + 0x14]\n  2681: a5 = u8 [a0 + 0x16]\n  2684: s1 = u8 [a0 + 0x17]\n  2687: a3 = a3 << 0x8\n  2690: a3 = a3 | a4\n  2693: a5 = a5 << 0x10\n  2696: s1 = s1 << 0x18\n  2699: a5 = a5 | s1\n  2702: a3 = a3 | a5\n  2705: a3 = a3 << 0x20\n  2708: a2 = a2 | a3\n  2711: a3 = u8 [a0 + 0x9]\n  2714: a4 = u8 [a0 + 0x8]\n  2717: a5 = u8 [a0 + 0xa]\n  2720: s1 = u8 [a0 + 0xb]\n  2723: a3 = a3 << 0x8\n  2726: a3 = a3 | a4\n  2729: a5 = a5 << 0x10\n  2732: s1 = s1 << 0x18\n  2735: a5 = a5 | s1\n  2738: a3 = a3 | a5\n  2741: a4 = u8 [a0 + 0xd]\n  2744: a5 = u8 [a0 + 0xc]\n  2747: s1 = u8 [a0 + 0xe]\n  2750: a1 = u8 [a0 + 0xf]\n  2753: a4 = a4 << 0x8\n  2756: a4 = a4 | a5\n  2759: s1 = s1 << 0x10\n  2762: a1 = a1 << 0x18\n  2765: a1 = a1 | s1\n  2768: a1 = a1 | a4\n  2771: a1 = a1 << 0x20\n  2774: a3 = a3 | a1\n  2777: a1 = u8 [a0 + 0x1]\n  2780: a4 = u8 [a0]\n  2782: a5 = u8 [a0 + 0x2]\n  2785: s1 = u8 [a0 + 0x3]\n  2788: a1 = a1 << 0x8\n  2791: a1 = a1 | a4\n  2794: a5 = a5 << 0x10\n  2797: s1 = s1 << 0x18\n  2800: a5 = a5 | s1\n  2803: a1 = a1 | a5\n  2806: a4 = u8 [a0 + 0x5]\n  2809: a5 = u8 [a0 + 0x4]\n  2812: s1 = u8 [a0 + 0x6]\n  2815: a0 = u8 [a0 + 0x7]\n  2818: a4 = a4 << 0x8\n  2821: a4 = a4 | a5\n  2824: s1 = s1 << 0x10\n  2827: a0 = a0 << 0x18\n  2830: a0 = a0 | s1\n  2833: a0 = a0 | a4\n  2836: a0 = a0 << 0x20\n  2839: a0 = a0 | a1\n  2842: t1 = reverse a0\n  2844: t2 = reverse a3\n  2846: s1 = reverse a2\n  2848: a5 = reverse t0\n  2850: a1 = u64 [sp + 0x18]\n  2853: a0 = a1 + 0x1f\n  2856: a1 = a0 <u a1\n  2859: a3 = u64 [sp + 0x20]\n  2862: a2 = a3 + a1\n  2865: a3 = a2 <u a3\n  2868: a3 = a1 if a1 == 0\n  2871: a1 = u64 [sp + 0x28]\n  2874: a3 = a3 + a1\n  2877: a1 = a3 <u a1\n  2880: a4 = u64 [sp + 0x30]\n  2883: a1 = a1 + a4\n  2886: a0 = a0 & 0xffffffffffffffe0\n  2889: a0 = a0 + a5\n  2892: u64 [sp + 0x28] = a5\n  2895: u64 [sp + 0x10] = a0\n  2898: a4 = a0 <u a5\n  2901: a2 = a2 + s1\n  2904: a5 = a2 + a4\n  2907: a2 = a5 ^ s1\n  2910: u64 [sp + 0x30] = s1\n  2913: a0 = a5 <u s1\n  2916: a0 = a4 if a2 == 0\n  2919: a3 = a3 + t2\n  2922: a4 = a3 + a0\n  2925: s1 = a4 <u a3\n  2928: a2 = a3 <u t2\n  2931: a1 = a1 + t1\n  2934: a1 = a1 + a2\n  2937: s1 = s1 + a1\n  2940: a1 = a4 >u 0\n  2942: a2 = s1 >u 0\n  2944: a2 = a1 if s1 == 0\n  2947: a1 = a4 | s1\n  2950: u64 [sp + 0x8] = a5\n  2953: a3 = a5 >u 0\n  2955: a3 = a2 if a1 != 0\n  2958: jump @81 if a3 != 0\n      : @78 (gas: 8)\n  2962: a1 = a4 <u t2\n  2965: a2 = s1 ^ t1\n  2968: a3 = s1 <u t1\n  2971: a3 = a1 if a2 == 0\n  2974: a1 = a4 ^ t2\n  2977: a1 = a1 | a2\n  2980: a0 = a3 if a1 != 0\n  2983: jump @81 if a0 != 0\n      : @79 (gas: 6)\n  2987: a0 = 0x40\n  2990: a1 = 0x20\n  2993: u64 [sp + 0x20] = t2\n  2996: u64 [sp + 0x18] = t1\n  2999: u64 [sp] = a4\n  3001: ra = 58, jump @0\n      : @80 [@dyn 29] (gas: 82)\n  3006: a1 = reverse s1\n  3008: a2 = u64 [sp]\n  3010: a2 = reverse a2\n  3012: a3 = u64 [sp + 0x8]\n  3015: a3 = reverse a3\n  3017: a4 = u64 [sp + 0x10]\n  3020: a4 = reverse a4\n  3022: u8 [a0 + 0x18] = a4\n  3025: a5 = a4 >> 0x38\n  3028: u8 [a0 + 0x1f] = a5\n  3031: a5 = a4 >> 0x30\n  3034: u8 [a0 + 0x1e] = a5\n  3037: a5 = a4 >> 0x28\n  3040: u8 [a0 + 0x1d] = a5\n  3043: a5 = a4 >> 0x20\n  3046: u8 [a0 + 0x1c] = a5\n  3049: a5 = a4 >> 0x18\n  3052: u8 [a0 + 0x1b] = a5\n  3055: a5 = a4 >> 0x10\n  3058: u8 [a0 + 0x1a] = a5\n  3061: a4 = a4 >> 0x8\n  3064: u8 [a0 + 0x19] = a4\n  3067: u8 [a0 + 0x10] = a3\n  3070: a4 = a3 >> 0x38\n  3073: u8 [a0 + 0x17] = a4\n  3076: a4 = a3 >> 0x30\n  3079: u8 [a0 + 0x16] = a4\n  3082: a4 = a3 >> 0x28\n  3085: u8 [a0 + 0x15] = a4\n  3088: a4 = a3 >> 0x20\n  3091: u8 [a0 + 0x14] = a4\n  3094: a4 = a3 >> 0x18\n  3097: u8 [a0 + 0x13] = a4\n  3100: a4 = a3 >> 0x10\n  3103: u8 [a0 + 0x12] = a4\n  3106: a3 = a3 >> 0x8\n  3109: u8 [a0 + 0x11] = a3\n  3112: u8 [a0 + 0x8] = a2\n  3115: a3 = a2 >> 0x38\n  3118: u8 [a0 + 0xf] = a3\n  3121: a3 = a2 >> 0x30\n  3124: u8 [a0 + 0xe] = a3\n  3127: a3 = a2 >> 0x28\n  3130: u8 [a0 + 0xd] = a3\n  3133: a3 = a2 >> 0x20\n  3136: u8 [a0 + 0xc] = a3\n  3139: a3 = a2 >> 0x18\n  3142: u8 [a0 + 0xb] = a3\n  3145: a3 = a2 >> 0x10\n  3148: u8 [a0 + 0xa] = a3\n  3151: a2 = a2 >> 0x8\n  3154: u8 [a0 + 0x9] = a2\n  3157: u8 [a0] = a1\n  3159: a2 = a1 >> 0x38\n  3162: u8 [a0 + 0x7] = a2\n  3165: a2 = a1 >> 0x30\n  3168: u8 [a0 + 0x6] = a2\n  3171: a2 = a1 >> 0x28\n  3174: u8 [a0 + 0x5] = a2\n  3177: a2 = a1 >> 0x20\n  3180: u8 [a0 + 0x4] = a2\n  3183: a2 = a1 >> 0x18\n  3186: u8 [a0 + 0x3] = a2\n  3189: a2 = a1 >> 0x10\n  3192: u8 [a0 + 0x2] = a2\n  3195: a1 = a1 >> 0x8\n  3198: u8 [a0 + 0x1] = a1\n  3201: a0 = u64 [sp + 0x38]\n  3204: a1 = u64 [sp + 0x28]\n  3207: u64 [a0] = a1\n  3209: a1 = u64 [sp + 0x18]\n  3212: u64 [a0 + 0x18] = a1\n  3215: a1 = u64 [sp + 0x30]\n  3218: u64 [a0 + 0x8] = a1\n  3221: a1 = u64 [sp + 0x20]\n  3224: u64 [a0 + 0x10] = a1\n  3227: sp = s0 + 0xffffffffffffff60\n  3231: ra = u64 [sp + 0x98]\n  3235: s0 = u64 [sp + 0x90]\n  3239: s1 = u64 [sp + 0x88]\n  3243: sp = sp + 0xa0\n  3247: ret\n      : @81 (gas: 8)\n  3249: u64 [sp + 112] = 0\n  3252: u64 [sp + 104] = 0\n  3255: u64 [sp + 96] = 0\n  3258: a0 = 0x4e487b7100000000\n  3268: a1 = sp + 0x60\n  3271: u64 [sp + 0x78] = a0\n  3274: a0 = 0\n  3276: ra = 60, jump @23\n      : @82 [@dyn 30] (gas: 7)\n  3281: u64 [sp + 88] = 0\n  3284: u64 [sp + 80] = 0\n  3287: u64 [sp + 64] = 0x41\n  3291: a0 = 0x4\n  3294: a1 = sp + 0x40\n  3297: u64 [sp + 72] = 0\n  3300: ra = 62, jump @23\n      : @83 [@dyn 31] (gas: 3)\n  3305: a1 = 0x24\n  3308: a0 = 0\n  3310: ra = 64, jump @0\n      : @84 [@dyn 32] (gas: 6)\n  3315: i32 a1 = a0 + 0\n  3317: a0 = 0x1\n  3320: a2 = 0x24\n  3323: ra = 0x42\n  3326: ecalli 11 // 'seal_return'\n  3328: fallthrough\n      : @85 [@dyn 33] (gas: 8)\n  3329: a2 = u32 [a1 + 0x10]\n  3332: a3 = u64 [a1 + 0x8]\n  3335: a1 = u64 [a1]\n  3337: u64 [a0 + 24] = 0\n  3340: u64 [a0 + 0x10] = a2\n  3343: u64 [a0 + 0x8] = a3\n  3346: u64 [a0] = a1\n  3348: ret\n      : @86 [@dyn 34] (gas: 12)\n  3350: a1 = u64 [sp + 0x48]\n  3353: a2 = u64 [sp + 0x40]\n  3356: a3 = u64 [sp + 0x38]\n  3359: a0 = u64 [sp + 0x30]\n  3362: a1 = a1 | a3\n  3365: a3 = a0 | a2\n  3368: a3 = a3 | a1\n  3371: a3 = a3 >> 0x20\n  3374: a1 = a1 | a2\n  3377: a1 = a1 << 0x20\n  3380: a1 = a1 | a3\n  3383: jump @93 if a1 != 0\n      : @87 (gas: 4)\n  3387: i32 a0 = a0 + 0\n  3389: u64 [sp] = a0\n  3391: a1 = s1\n  3393: ra = 70, jump @0\n      : @88 [@dyn 35] (gas: 5)\n  3398: i32 a0 = a0 + 0\n  3400: a1 = s1\n  3402: a2 = 0\n  3404: ecalli 1 // 'call_data_copy'\n  3406: fallthrough\n      : @89 (gas: 1)\n  3407: jump @94 if s1 <=u 31\n      : @90 (gas: 3)\n  3412: a1 = 0x20\n  3415: a0 = u64 [sp]\n  3417: ra = 72, jump @0\n      : @91 [@dyn 36] (gas: 54)\n  3422: a1 = u8 [a0 + 0x9]\n  3425: a2 = u8 [a0 + 0x8]\n  3428: a3 = u8 [a0 + 0xa]\n  3431: a4 = u8 [a0 + 0xb]\n  3434: a1 = a1 << 0x8\n  3437: a1 = a1 | a2\n  3440: a3 = a3 << 0x10\n  3443: a4 = a4 << 0x18\n  3446: a3 = a3 | a4\n  3449: a1 = a1 | a3\n  3452: a2 = u8 [a0 + 0xd]\n  3455: a3 = u8 [a0 + 0xc]\n  3458: a4 = u8 [a0 + 0xe]\n  3461: a5 = u8 [a0 + 0xf]\n  3464: a2 = a2 << 0x8\n  3467: a2 = a2 | a3\n  3470: a4 = a4 << 0x10\n  3473: a5 = a5 << 0x18\n  3476: a4 = a4 | a5\n  3479: a2 = a2 | a4\n  3482: a2 = a2 << 0x20\n  3485: a2 = a2 | a1\n  3488: a1 = u8 [a0 + 0x1]\n  3491: a3 = u8 [a0]\n  3493: a4 = u8 [a0 + 0x2]\n  3496: a5 = u8 [a0 + 0x3]\n  3499: a1 = a1 << 0x8\n  3502: a1 = a1 | a3\n  3505: a4 = a4 << 0x10\n  3508: a5 = a5 << 0x18\n  3511: a4 = a4 | a5\n  3514: a1 = a1 | a4\n  3517: a3 = u8 [a0 + 0x5]\n  3520: a4 = u8 [a0 + 0x4]\n  3523: a5 = u8 [a0 + 0x6]\n  3526: s1 = u8 [a0 + 0x7]\n  3529: a3 = a3 << 0x8\n  3532: a3 = a3 | a4\n  3535: a5 = a5 << 0x10\n  3538: s1 = s1 << 0x18\n  3541: a5 = a5 | s1\n  3544: a3 = a3 | a5\n  3547: a3 = a3 << 0x20\n  3550: a1 = a1 | a3\n  3553: t0 = reverse a1\n  3555: a2 = reverse a2\n  3557: a3 = 0x100000000\n  3567: a3 = a3 ^ a2\n  3570: a3 = a3 | t0\n  3573: a4 = a2 >> 0x20\n  3576: a4 = a4 <u 0x1\n  3579: a4 = 0 if t0 != 0\n  3581: a4 = 0 if a3 == 0\n  3583: jump @94 if a4 == 0\n      : @92 (gas: 57)\n  3587: a3 = u8 [a0 + 0x19]\n  3590: a4 = u8 [a0 + 0x18]\n  3593: a5 = u8 [a0 + 0x1a]\n  3596: s1 = u8 [a0 + 0x1b]\n  3599: a3 = a3 << 0x8\n  3602: a3 = a3 | a4\n  3605: a5 = a5 << 0x10\n  3608: s1 = s1 << 0x18\n  3611: a5 = a5 | s1\n  3614: a3 = a3 | a5\n  3617: a4 = u8 [a0 + 0x1d]\n  3620: a5 = u8 [a0 + 0x1c]\n  3623: s1 = u8 [a0 + 0x1e]\n  3626: a1 = u8 [a0 + 0x1f]\n  3629: a4 = a4 << 0x8\n  3632: a4 = a4 | a5\n  3635: s1 = s1 << 0x10\n  3638: a1 = a1 << 0x18\n  3641: a1 = a1 | s1\n  3644: a1 = a1 | a4\n  3647: a1 = a1 << 0x20\n  3650: a3 = a3 | a1\n  3653: a1 = u8 [a0 + 0x11]\n  3656: a4 = u8 [a0 + 0x10]\n  3659: a5 = u8 [a0 + 0x12]\n  3662: s1 = u8 [a0 + 0x13]\n  3665: a1 = a1 << 0x8\n  3668: a1 = a1 | a4\n  3671: a5 = a5 << 0x10\n  3674: s1 = s1 << 0x18\n  3677: a5 = a5 | s1\n  3680: a1 = a1 | a5\n  3683: a4 = u8 [a0 + 0x15]\n  3686: a5 = u8 [a0 + 0x14]\n  3689: s1 = u8 [a0 + 0x16]\n  3692: a0 = u8 [a0 + 0x17]\n  3695: a4 = a4 << 0x8\n  3698: a4 = a4 | a5\n  3701: s1 = s1 << 0x10\n  3704: a0 = a0 << 0x18\n  3707: a0 = a0 | s1\n  3710: a0 = a0 | a4\n  3713: a0 = a0 << 0x20\n  3716: a0 = a0 | a1\n  3719: a0 = reverse a0\n  3721: a1 = reverse a3\n  3723: a3 = u64 [sp + 0x8]\n  3726: u64 [a3] = a1\n  3728: u64 [a3 + 0x8] = a0\n  3731: u64 [a3 + 0x10] = a2\n  3734: u64 [a3 + 0x18] = t0\n  3737: sp = s0 + 0xffffffffffffff90\n  3740: ra = u64 [sp + 0x68]\n  3743: s0 = u64 [sp + 0x60]\n  3746: s1 = u64 [sp + 0x58]\n  3749: sp = sp + 0x70\n  3752: ret\n      : @93 (gas: 1)\n  3754: trap\n      : @94 (gas: 3)\n  3755: a0 = 0\n  3757: a1 = 0\n  3759: ra = 74, jump @0\n      : @95 [@dyn 37] (gas: 6)\n  3764: i32 a1 = a0 + 0\n  3766: a0 = 0x1\n  3769: a2 = 0\n  3771: ra = 0x4c\n  3774: ecalli 11 // 'seal_return'\n  3776: fallthrough\n      : @96 [@dyn 38] (gas: 9)\n  3777: a2 = u64 [a1 + 0x18]\n  3780: a3 = u64 [a1 + 0x10]\n  3783: a4 = u64 [a1 + 0x8]\n  3786: a1 = u64 [a1]\n  3788: u64 [a0 + 0x18] = a2\n  3791: u64 [a0 + 0x10] = a3\n  3794: u64 [a0 + 0x8] = a4\n  3797: u64 [a0] = a1\n  3799: ret\n      : @97 (gas: 20)\n  3801: sp = sp + 0xffffffffffffffb0\n  3804: u64 [sp + 0x48] = ra\n  3807: u64 [sp + 0x40] = s0\n  3810: u64 [sp + 0x38] = s1\n  3813: a4 = u64 [a1 + 0x10]\n  3816: a3 = u64 [a1 + 0x18]\n  3819: a5 = u64 [a1 + 0x8]\n  3822: s0 = u64 [a1]\n  3824: u64 [sp + 0x28] = a3\n  3827: u64 [sp + 0x20] = a5\n  3830: a1 = a5 | a3\n  3833: a3 = s0 | a4\n  3836: a3 = a3 | a1\n  3839: a3 = a3 >> 0x20\n  3842: u64 [sp + 0x30] = a4\n  3845: a1 = a1 | a4\n  3848: a1 = a1 << 0x20\n  3851: a1 = a1 | a3\n  3854: u64 [sp + 0x18] = a0\n  3857: jump @100 if a1 != 0\n      : @98 (gas: 10)\n  3861: a0 = u64 [a2 + 0x18]\n  3864: u64 [sp] = a0\n  3866: s1 = u64 [a2 + 0x10]\n  3869: a0 = u64 [a2 + 0x8]\n  3872: u64 [sp + 0x8] = a0\n  3875: a0 = u64 [a2]\n  3877: u64 [sp + 0x10] = a0\n  3880: i32 a0 = s0 + 0\n  3882: a1 = 0x20\n  3885: ra = 78, jump @0\n      : @99 [@dyn 39] (gas: 88)\n  3890: a1 = u64 [sp]\n  3892: a1 = reverse a1\n  3894: a2 = reverse s1\n  3896: a3 = u64 [sp + 0x8]\n  3899: a3 = reverse a3\n  3901: a4 = u64 [sp + 0x10]\n  3904: a4 = reverse a4\n  3906: a5 = a4 >> 0x38\n  3909: u8 [a0 + 0x1f] = a5\n  3912: a5 = a4 >> 0x30\n  3915: u8 [a0 + 0x1e] = a5\n  3918: a5 = a4 >> 0x28\n  3921: u8 [a0 + 0x1d] = a5\n  3924: a5 = a4 >> 0x20\n  3927: u8 [a0 + 0x1c] = a5\n  3930: a5 = a4 >> 0x18\n  3933: u8 [a0 + 0x1b] = a5\n  3936: a5 = a4 >> 0x10\n  3939: u8 [a0 + 0x1a] = a5\n  3942: a5 = a4 >> 0x8\n  3945: u8 [a0 + 0x19] = a5\n  3948: u8 [a0 + 0x18] = a4\n  3951: u8 [a0 + 0x10] = a3\n  3954: a4 = a3 >> 0x38\n  3957: u8 [a0 + 0x17] = a4\n  3960: a4 = a3 >> 0x30\n  3963: u8 [a0 + 0x16] = a4\n  3966: a4 = a3 >> 0x28\n  3969: u8 [a0 + 0x15] = a4\n  3972: a4 = a3 >> 0x20\n  3975: u8 [a0 + 0x14] = a4\n  3978: a4 = a3 >> 0x18\n  3981: u8 [a0 + 0x13] = a4\n  3984: a4 = a3 >> 0x10\n  3987: u8 [a0 + 0x12] = a4\n  3990: a3 = a3 >> 0x8\n  3993: u8 [a0 + 0x11] = a3\n  3996: u8 [a0 + 0x8] = a2\n  3999: a3 = a2 >> 0x38\n  4002: u8 [a0 + 0xf] = a3\n  4005: a3 = a2 >> 0x30\n  4008: u8 [a0 + 0xe] = a3\n  4011: a3 = a2 >> 0x28\n  4014: u8 [a0 + 0xd] = a3\n  4017: a3 = a2 >> 0x20\n  4020: u8 [a0 + 0xc] = a3\n  4023: a3 = a2 >> 0x18\n  4026: u8 [a0 + 0xb] = a3\n  4029: a3 = a2 >> 0x10\n  4032: u8 [a0 + 0xa] = a3\n  4035: a2 = a2 >> 0x8\n  4038: u8 [a0 + 0x9] = a2\n  4041: u8 [a0] = a1\n  4043: a2 = a1 >> 0x38\n  4046: u8 [a0 + 0x7] = a2\n  4049: a2 = a1 >> 0x30\n  4052: u8 [a0 + 0x6] = a2\n  4055: a2 = a1 >> 0x28\n  4058: u8 [a0 + 0x5] = a2\n  4061: a2 = a1 >> 0x20\n  4064: u8 [a0 + 0x4] = a2\n  4067: a2 = a1 >> 0x18\n  4070: u8 [a0 + 0x3] = a2\n  4073: a2 = a1 >> 0x10\n  4076: u8 [a0 + 0x2] = a2\n  4079: a1 = a1 >> 0x8\n  4082: u8 [a0 + 0x1] = a1\n  4085: a0 = s0 + 0x20\n  4088: a1 = a0 <u s0\n  4091: a3 = u64 [sp + 0x20]\n  4094: a2 = a3 + a1\n  4097: a3 = a2 <u a3\n  4100: a3 = a1 if a1 == 0\n  4103: a1 = u64 [sp + 0x30]\n  4106: a3 = a3 + a1\n  4109: a1 = a3 <u a1\n  4112: a4 = u64 [sp + 0x28]\n  4115: a1 = a1 + a4\n  4118: a4 = u64 [sp + 0x18]\n  4121: u64 [a4] = a0\n  4123: u64 [a4 + 0x8] = a2\n  4126: u64 [a4 + 0x10] = a3\n  4129: u64 [a4 + 0x18] = a1\n  4132: ra = u64 [sp + 0x48]\n  4135: s0 = u64 [sp + 0x40]\n  4138: s1 = u64 [sp + 0x38]\n  4141: sp = sp + 0x50\n  4144: ret\n      : @100 (gas: 1)\n  4146: trap\n      : @101 (gas: 17)\n  4147: sp = sp + 0xffffffffffffffa0\n  4150: u64 [sp + 0x58] = ra\n  4153: u64 [sp + 0x50] = s0\n  4156: u64 [sp + 0x48] = s1\n  4159: a3 = u64 [a1 + 0x18]\n  4162: a4 = u64 [a1 + 0x10]\n  4165: a5 = u64 [a1 + 0x8]\n  4168: s1 = u64 [a1]\n  4170: a1 = a5 | a3\n  4173: a2 = s1 | a4\n  4176: a2 = a2 | a1\n  4179: a2 = a2 >> 0x20\n  4182: a1 = a1 | a4\n  4185: a1 = a1 << 0x20\n  4188: a1 = a1 | a2\n  4191: u64 [sp + 0x28] = a0\n  4194: jump @108 if a1 != 0\n      : @102 (gas: 19)\n  4198: a0 = s1 + 0x20\n  4201: u64 [sp + 0x30] = a0\n  4204: a0 = a0 <u s1\n  4207: a1 = a5 + a0\n  4210: u64 [sp + 0x40] = a1\n  4213: u64 [sp + 0x8] = a5\n  4216: s0 = a1 <u a5\n  4219: s0 = a0 if a0 == 0\n  4222: s0 = s0 + a4\n  4225: u64 [sp + 0x10] = a4\n  4228: a0 = s0 <u a4\n  4231: u64 [sp + 0x18] = a3\n  4234: a0 = a0 + a3\n  4237: u64 [sp + 0x38] = a0\n  4240: u64 [sp] = s1\n  4242: i32 a0 = s1 + 0\n  4244: a1 = 0x20\n  4247: s1 = 0x20\n  4250: ra = 80, jump @0\n      : @103 [@dyn 40] (gas: 45)\n  4255: u8 [a0 + 0x1f] = s1\n  4258: a1 = u64 [sp + 0x30]\n  4261: s1 = a1\n  4263: a1 = a1 | s0\n  4266: a2 = u64 [sp + 0x40]\n  4269: a4 = u64 [sp + 0x38]\n  4272: a2 = a2 | a4\n  4275: a1 = a1 | a2\n  4278: a1 = a1 >> 0x20\n  4281: u64 [sp + 0x20] = s0\n  4284: a2 = a2 | s0\n  4287: a2 = a2 << 0x20\n  4290: a1 = a1 | a2\n  4293: u8 [a0 + 30] = 0\n  4296: u8 [a0 + 29] = 0\n  4299: u8 [a0 + 28] = 0\n  4302: u8 [a0 + 27] = 0\n  4305: u8 [a0 + 26] = 0\n  4308: u8 [a0 + 25] = 0\n  4311: u8 [a0 + 24] = 0\n  4314: u8 [a0 + 23] = 0\n  4317: u8 [a0 + 22] = 0\n  4320: u8 [a0 + 21] = 0\n  4323: u8 [a0 + 20] = 0\n  4326: u8 [a0 + 19] = 0\n  4329: u8 [a0 + 18] = 0\n  4332: u8 [a0 + 17] = 0\n  4335: u8 [a0 + 16] = 0\n  4338: u8 [a0 + 15] = 0\n  4341: u8 [a0 + 14] = 0\n  4344: u8 [a0 + 13] = 0\n  4347: u8 [a0 + 12] = 0\n  4350: u8 [a0 + 11] = 0\n  4353: u8 [a0 + 10] = 0\n  4356: u8 [a0 + 9] = 0\n  4359: u8 [a0 + 8] = 0\n  4362: u8 [a0 + 7] = 0\n  4365: u8 [a0 + 6] = 0\n  4368: u8 [a0 + 5] = 0\n  4371: u8 [a0 + 4] = 0\n  4374: u8 [a0 + 3] = 0\n  4377: u8 [a0 + 2] = 0\n  4380: u8 [a0 + 1] = 0\n  4383: u8 [a0 + 0] = 0\n  4385: jump @108 if a1 != 0\n      : @104 (gas: 4)\n  4389: i32 s0 = s1 + 0\n  4391: a1 = 0x20\n  4394: a0 = s0\n  4396: ra = 82, jump @0\n      : @105 [@dyn 41] (gas: 41)\n  4401: u8 [a0 + 31] = 0xb\n  4405: u8 [a0 + 30] = 0\n  4408: u8 [a0 + 29] = 0\n  4411: u8 [a0 + 28] = 0\n  4414: u8 [a0 + 27] = 0\n  4417: u8 [a0 + 26] = 0\n  4420: u8 [a0 + 25] = 0\n  4423: u8 [a0 + 24] = 0\n  4426: u8 [a0 + 23] = 0\n  4429: u8 [a0 + 22] = 0\n  4432: u8 [a0 + 21] = 0\n  4435: u8 [a0 + 20] = 0\n  4438: u8 [a0 + 19] = 0\n  4441: u8 [a0 + 18] = 0\n  4444: u8 [a0 + 17] = 0\n  4447: u8 [a0 + 16] = 0\n  4450: u8 [a0 + 15] = 0\n  4453: u8 [a0 + 14] = 0\n  4456: u8 [a0 + 13] = 0\n  4459: u8 [a0 + 12] = 0\n  4462: u8 [a0 + 11] = 0\n  4465: u8 [a0 + 10] = 0\n  4468: u8 [a0 + 9] = 0\n  4471: u8 [a0 + 8] = 0\n  4474: u8 [a0 + 7] = 0\n  4477: u8 [a0 + 6] = 0\n  4480: u8 [a0 + 5] = 0\n  4483: u8 [a0 + 4] = 0\n  4486: u8 [a0 + 3] = 0\n  4489: u8 [a0 + 2] = 0\n  4492: u8 [a0 + 1] = 0\n  4495: a1 = u64 [sp + 0x20]\n  4498: a2 = u64 [sp + 0x38]\n  4501: a1 = a1 | a2\n  4504: a2 = 0xffffffe0\n  4514: a2 = s1 <u a2\n  4517: a3 = u64 [sp + 0x40]\n  4520: a2 = 0 if a3 != 0\n  4522: a2 = 0 if a1 != 0\n  4524: u8 [a0 + 0] = 0\n  4526: jump @108 if a2 == 0\n      : @106 (gas: 3)\n  4530: i32 a0 = s0 + 0x20\n  4533: a1 = 0x20\n  4536: ra = 84, jump @0\n      : @107 [@dyn 42] (gas: 54)\n  4541: u8 [a0 + 31] = 0\n  4544: u8 [a0 + 30] = 0\n  4547: u8 [a0 + 29] = 0\n  4550: u8 [a0 + 28] = 0\n  4553: u8 [a0 + 27] = 0\n  4556: u8 [a0 + 26] = 0\n  4559: u8 [a0 + 25] = 0\n  4562: u8 [a0 + 24] = 0\n  4565: u8 [a0 + 23] = 0\n  4568: u8 [a0 + 22] = 0\n  4571: u8 [a0 + 21] = 0\n  4574: u8 [a0 + 20] = 0\n  4577: u8 [a0 + 19] = 0\n  4580: u8 [a0 + 18] = 0\n  4583: u8 [a0 + 17] = 0\n  4586: u8 [a0 + 16] = 0\n  4589: u8 [a0 + 15] = 0\n  4592: u8 [a0 + 14] = 0\n  4595: u8 [a0 + 13] = 0\n  4598: u8 [a0 + 12] = 0\n  4601: u8 [a0 + 11] = 0\n  4604: u8 [a0 + 10] = 0x30\n  4608: u8 [a0 + 9] = 0x20\n  4612: u8 [a0 + 8] = 0x3d\n  4616: u8 [a0 + 7] = 0x20\n  4620: u8 [a0 + 6] = 0x72\n  4624: u8 [a0 + 5] = 0x65\n  4628: u8 [a0 + 4] = 0x74\n  4632: u8 [a0 + 3] = 0x69\n  4636: u8 [a0 + 2] = 0x62\n  4640: u8 [a0 + 1] = 0x72\n  4644: u8 [a0 + 0] = 0x61\n  4647: a1 = u64 [sp]\n  4649: a0 = a1 + 0x60\n  4652: a1 = a0 <u a1\n  4655: a3 = u64 [sp + 0x8]\n  4658: a2 = a3 + a1\n  4661: a3 = a2 <u a3\n  4664: a3 = a1 if a1 == 0\n  4667: a1 = u64 [sp + 0x10]\n  4670: a3 = a3 + a1\n  4673: a1 = a3 <u a1\n  4676: a4 = u64 [sp + 0x18]\n  4679: a1 = a1 + a4\n  4682: a4 = u64 [sp + 0x28]\n  4685: u64 [a4] = a0\n  4687: u64 [a4 + 0x8] = a2\n  4690: u64 [a4 + 0x10] = a3\n  4693: u64 [a4 + 0x18] = a1\n  4696: ra = u64 [sp + 0x58]\n  4699: s0 = u64 [sp + 0x50]\n  4702: s1 = u64 [sp + 0x48]\n  4705: sp = sp + 0x60\n  4708: ret\n      : @108 (gas: 1)\n  4710: trap\n      : @109 (gas: 7)\n  4711: a0 = u64 [sp + 0x10]\n  4714: a0 = a0 << 0x20\n  4717: a0 = a0 >> 0x20\n  4720: a1 = u64 [sp + 0x18]\n  4723: a1 = a1 | s1\n  4726: a0 = a0 | a1\n  4729: jump @112 if a0 == 0\n      : @110 (gas: 3)\n  4733: a0 = 0x80\n  4737: a1 = 0x20\n  4740: ra = 86, jump @0\n      : @111 [@dyn 43] (gas: 73)\n  4745: a1 = u64 [sp]\n  4747: a1 = reverse a1\n  4749: a2 = u64 [sp + 0x10]\n  4752: a2 = reverse a2\n  4754: a3 = u64 [sp + 0x18]\n  4757: a3 = reverse a3\n  4759: a4 = reverse s1\n  4761: u8 [a0 + 0x18] = a4\n  4764: a5 = a4 >> 0x38\n  4767: u8 [a0 + 0x1f] = a5\n  4770: a5 = a4 >> 0x30\n  4773: u8 [a0 + 0x1e] = a5\n  4776: a5 = a4 >> 0x28\n  4779: u8 [a0 + 0x1d] = a5\n  4782: a5 = a4 >> 0x20\n  4785: u8 [a0 + 0x1c] = a5\n  4788: a5 = a4 >> 0x18\n  4791: u8 [a0 + 0x1b] = a5\n  4794: a5 = a4 >> 0x10\n  4797: u8 [a0 + 0x1a] = a5\n  4800: a4 = a4 >> 0x8\n  4803: u8 [a0 + 0x19] = a4\n  4806: u8 [a0 + 0x10] = a3\n  4809: a4 = a3 >> 0x38\n  4812: u8 [a0 + 0x17] = a4\n  4815: a4 = a3 >> 0x30\n  4818: u8 [a0 + 0x16] = a4\n  4821: a4 = a3 >> 0x28\n  4824: u8 [a0 + 0x15] = a4\n  4827: a4 = a3 >> 0x20\n  4830: u8 [a0 + 0x14] = a4\n  4833: a4 = a3 >> 0x18\n  4836: u8 [a0 + 0x13] = a4\n  4839: a4 = a3 >> 0x10\n  4842: u8 [a0 + 0x12] = a4\n  4845: a3 = a3 >> 0x8\n  4848: u8 [a0 + 0x11] = a3\n  4851: u8 [a0 + 0x8] = a2\n  4854: a3 = a2 >> 0x38\n  4857: u8 [a0 + 0xf] = a3\n  4860: a3 = a2 >> 0x30\n  4863: u8 [a0 + 0xe] = a3\n  4866: a3 = a2 >> 0x28\n  4869: u8 [a0 + 0xd] = a3\n  4872: a3 = a2 >> 0x20\n  4875: u8 [a0 + 0xc] = a3\n  4878: a3 = a2 >> 0x18\n  4881: u8 [a0 + 0xb] = a3\n  4884: a3 = a2 >> 0x10\n  4887: u8 [a0 + 0xa] = a3\n  4890: a2 = a2 >> 0x8\n  4893: u8 [a0 + 0x9] = a2\n  4896: u8 [a0] = a1\n  4898: a2 = a1 >> 0x38\n  4901: u8 [a0 + 0x7] = a2\n  4904: a2 = a1 >> 0x30\n  4907: u8 [a0 + 0x6] = a2\n  4910: a2 = a1 >> 0x28\n  4913: u8 [a0 + 0x5] = a2\n  4916: a2 = a1 >> 0x20\n  4919: u8 [a0 + 0x4] = a2\n  4922: a2 = a1 >> 0x18\n  4925: u8 [a0 + 0x3] = a2\n  4928: a2 = a1 >> 0x10\n  4931: u8 [a0 + 0x2] = a2\n  4934: a1 = a1 >> 0x8\n  4937: u8 [a0 + 0x1] = a1\n  4940: sp = s0 + 0xffffffffffffff20\n  4944: ra = u64 [sp + 0xd8]\n  4948: s0 = u64 [sp + 0xd0]\n  4952: s1 = u64 [sp + 0xc8]\n  4956: sp = sp + 0xe0\n  4960: ret\n      : @112 (gas: 3)\n  4962: a0 = 0x40\n  4965: a1 = 0x20\n  4968: ra = 88, jump @0\n      : @113 [@dyn 44] (gas: 103)\n  4973: a1 = u8 [a0 + 0x11]\n  4976: a2 = u8 [a0 + 0x10]\n  4979: a3 = u8 [a0 + 0x12]\n  4982: a4 = u8 [a0 + 0x13]\n  4985: a1 = a1 << 0x8\n  4988: a1 = a1 | a2\n  4991: a3 = a3 << 0x10\n  4994: a4 = a4 << 0x18\n  4997: a3 = a3 | a4\n  5000: a1 = a1 | a3\n  5003: a2 = u8 [a0 + 0x15]\n  5006: a3 = u8 [a0 + 0x14]\n  5009: a4 = u8 [a0 + 0x16]\n  5012: a5 = u8 [a0 + 0x17]\n  5015: a2 = a2 << 0x8\n  5018: a2 = a2 | a3\n  5021: a4 = a4 << 0x10\n  5024: a5 = a5 << 0x18\n  5027: a4 = a4 | a5\n  5030: a2 = a2 | a4\n  5033: a2 = a2 << 0x20\n  5036: t0 = a2 | a1\n  5039: a2 = u8 [a0 + 0x1]\n  5042: a3 = u8 [a0]\n  5044: a4 = u8 [a0 + 0x2]\n  5047: a5 = u8 [a0 + 0x3]\n  5050: a2 = a2 << 0x8\n  5053: a2 = a2 | a3\n  5056: a4 = a4 << 0x10\n  5059: a5 = a5 << 0x18\n  5062: a4 = a4 | a5\n  5065: a2 = a2 | a4\n  5068: a3 = u8 [a0 + 0x5]\n  5071: a4 = u8 [a0 + 0x4]\n  5074: a5 = u8 [a0 + 0x6]\n  5077: s1 = u8 [a0 + 0x7]\n  5080: a3 = a3 << 0x8\n  5083: a3 = a3 | a4\n  5086: a5 = a5 << 0x10\n  5089: s1 = s1 << 0x18\n  5092: a5 = a5 | s1\n  5095: a3 = a3 | a5\n  5098: a3 = a3 << 0x20\n  5101: a2 = a2 | a3\n  5104: a3 = u8 [a0 + 0x19]\n  5107: a4 = u8 [a0 + 0x18]\n  5110: a5 = u8 [a0 + 0x1a]\n  5113: s1 = u8 [a0 + 0x1b]\n  5116: a3 = a3 << 0x8\n  5119: a3 = a3 | a4\n  5122: a5 = a5 << 0x10\n  5125: s1 = s1 << 0x18\n  5128: a5 = a5 | s1\n  5131: a3 = a3 | a5\n  5134: a4 = u8 [a0 + 0x1d]\n  5137: a5 = u8 [a0 + 0x1c]\n  5140: s1 = u8 [a0 + 0x1e]\n  5143: a1 = u8 [a0 + 0x1f]\n  5146: a4 = a4 << 0x8\n  5149: a4 = a4 | a5\n  5152: s1 = s1 << 0x10\n  5155: a1 = a1 << 0x18\n  5158: a1 = a1 | s1\n  5161: a1 = a1 | a4\n  5164: a1 = a1 << 0x20\n  5167: a3 = a3 | a1\n  5170: a1 = u8 [a0 + 0x9]\n  5173: a4 = u8 [a0 + 0x8]\n  5176: a5 = u8 [a0 + 0xa]\n  5179: s1 = u8 [a0 + 0xb]\n  5182: a1 = a1 << 0x8\n  5185: a1 = a1 | a4\n  5188: a5 = a5 << 0x10\n  5191: s1 = s1 << 0x18\n  5194: a5 = a5 | s1\n  5197: a1 = a1 | a5\n  5200: a4 = u8 [a0 + 0xd]\n  5203: a5 = u8 [a0 + 0xc]\n  5206: s1 = u8 [a0 + 0xe]\n  5209: a0 = u8 [a0 + 0xf]\n  5212: a4 = a4 << 0x8\n  5215: a4 = a4 | a5\n  5218: s1 = s1 << 0x10\n  5221: a0 = a0 << 0x18\n  5224: a0 = a0 | s1\n  5227: a0 = a0 | a4\n  5230: a0 = a0 << 0x20\n  5233: a0 = a0 | a1\n  5236: s1 = reverse a0\n  5238: a1 = reverse a3\n  5240: a2 = reverse a2\n  5242: a0 = reverse t0\n  5244: u64 [sp + 0x18] = a0\n  5247: u64 [sp + 0x10] = a2\n  5250: a0 = a0 | a2\n  5253: a2 = a1\n  5255: a1 = a1 | s1\n  5258: a1 = a1 | a0\n  5261: a1 = a1 >> 0x20\n  5264: a0 = a0 | s1\n  5267: a0 = a0 << 0x20\n  5270: a0 = a0 | a1\n  5273: jump @117 if a0 != 0\n      : @114 (gas: 5)\n  5277: u64 [sp + 0x8] = a2\n  5280: i32 a0 = a2 + 0\n  5282: a1 = 0x20\n  5285: u64 [sp] = a0\n  5287: ra = 90, jump @0\n      : @115 [@dyn 45] (gas: 50)\n  5292: u8 [a0 + 31] = 0\n  5295: u8 [a0 + 30] = 0\n  5298: u8 [a0 + 29] = 0\n  5301: u8 [a0 + 28] = 0\n  5304: u8 [a0 + 27] = 0\n  5307: u8 [a0 + 26] = 0\n  5310: u8 [a0 + 25] = 0\n  5313: u8 [a0 + 24] = 0\n  5316: u8 [a0 + 23] = 0\n  5319: u8 [a0 + 22] = 0\n  5322: u8 [a0 + 21] = 0\n  5325: u8 [a0 + 20] = 0\n  5328: u8 [a0 + 19] = 0\n  5331: u8 [a0 + 18] = 0\n  5334: u8 [a0 + 17] = 0\n  5337: u8 [a0 + 16] = 0\n  5340: u8 [a0 + 15] = 0\n  5343: u8 [a0 + 14] = 0\n  5346: u8 [a0 + 13] = 0\n  5349: u8 [a0 + 12] = 0\n  5352: u8 [a0 + 11] = 0\n  5355: u8 [a0 + 10] = 0\n  5358: u8 [a0 + 9] = 0\n  5361: u8 [a0 + 8] = 0\n  5364: u8 [a0 + 7] = 0\n  5367: u8 [a0 + 6] = 0\n  5370: u8 [a0 + 5] = 0\n  5373: u8 [a0 + 4] = 0\n  5376: u8 [a0 + 3] = 0xa0\n  5381: u8 [a0 + 2] = 0x79\n  5385: u8 [a0 + 1] = 0xc3\n  5390: u8 [a0 + 0] = 0x8\n  5393: a1 = u64 [sp + 0x8]\n  5396: a0 = a1 + 0x4\n  5399: a1 = a0 <u a1\n  5402: a3 = u64 [sp + 0x18]\n  5405: a2 = a3 + a1\n  5408: a3 = a2 <u a3\n  5411: a3 = a1 if a1 == 0\n  5414: a3 = a3 + s1\n  5417: a1 = a3 <u s1\n  5420: a4 = u64 [sp + 0x10]\n  5423: a4 = a4 + a1\n  5426: u64 [sp + 0x28] = a2\n  5429: u64 [sp + 0x20] = a0\n  5432: u64 [sp + 0x30] = a3\n  5435: a0 = sp + 0x40\n  5438: a1 = sp + 0x20\n  5441: u64 [sp + 0x38] = a4\n  5444: ra = 92, jump @101\n      : @116 [@dyn 46] (gas: 30)\n  5449: a0 = u64 [sp + 0x48]\n  5452: t0 = u64 [sp + 0x58]\n  5455: t1 = u64 [sp + 0x40]\n  5458: a3 = u64 [sp + 0x50]\n  5461: a1 = u64 [sp + 0x18]\n  5464: a4 = a0 ^ a1\n  5467: a5 = a0 <u a1\n  5470: t2 = a1\n  5472: a2 = u64 [sp + 0x8]\n  5475: a1 = t1 <u a2\n  5478: a5 = a1 if a4 == 0\n  5481: a4 = a3 - s1\n  5484: a3 = a3 <u s1\n  5487: s1 = u64 [sp + 0x10]\n  5490: s1 = t0 - s1\n  5493: s1 = s1 - a3\n  5496: a3 = a4 <u a5\n  5499: s1 = s1 - a3\n  5502: a4 = a4 - a5\n  5505: a0 = a0 - t2\n  5508: a1 = a0 - a1\n  5511: a0 = t1 - a2\n  5514: a1 = a1 | s1\n  5517: a2 = a0 | a4\n  5520: a2 = a2 | a1\n  5523: a1 = a1 | a4\n  5526: a2 = a2 >> 0x20\n  5529: a1 = a1 << 0x20\n  5532: a1 = a1 | a2\n  5535: jump @118 if a1 == 0\n      : @117 (gas: 1)\n  5538: trap\n      : @118 (gas: 4)\n  5539: i32 s1 = a0 + 0\n  5541: a0 = u64 [sp]\n  5543: a1 = s1\n  5545: ra = 94, jump @0\n      : @119 [@dyn 47] (gas: 6)\n  5550: i32 a1 = a0 + 0\n  5552: a0 = 0x1\n  5555: a2 = s1\n  5557: ra = 0x60\n  5560: ecalli 11 // 'seal_return'\n  5562: fallthrough\n      : @120 [@dyn 48] (gas: 6)\n  5563: a1 = u32 [a1 + 0x1c]\n  5566: u64 [a0 + 24] = 0\n  5569: u64 [a0 + 16] = 0\n  5572: u64 [a0 + 8] = 0\n  5575: u64 [a0] = a1\n  5577: ret\n      : @121 (gas: 47)\n  5579: sp = sp + 0xffffffffffffff80\n  5582: u64 [sp + 0x78] = ra\n  5585: u64 [sp + 0x70] = s0\n  5588: u64 [sp + 0x68] = s1\n  5591: s0 = sp + 0x80\n  5595: sp = sp & 0xffffffffffffffe0\n  5598: ra = u64 [a1 + 0x10]\n  5601: a5 = u64 [a1 + 0x8]\n  5604: a3 = u64 [a2 + 0x8]\n  5607: t1 = u64 [a1]\n  5609: a4 = u64 [a2]\n  5611: u64 [sp + 0x28] = a4\n  5614: t2 = u64 [a2 + 0x10]\n  5617: t0 = a3 ^ a5\n  5620: s1 = a3 <u a5\n  5623: a4 = a4 <u t1\n  5626: u64 [sp + 0x20] = a4\n  5629: s1 = a4 if t0 == 0\n  5632: t0 = u64 [a1 + 0x18]\n  5635: a1 = u64 [a2 + 0x18]\n  5638: u64 [sp + 0x18] = a1\n  5641: a2 = t2 - ra\n  5644: a1 = a2 - s1\n  5647: u64 [sp + 0x30] = a1\n  5650: a1 = a2 <u s1\n  5653: a4 = t2 <u ra\n  5656: u64 [sp + 0x38] = t0\n  5659: a2 = u64 [sp + 0x18]\n  5662: a2 = a2 - t0\n  5665: a2 = a2 - a4\n  5668: a2 = a2 - a1\n  5671: a1 = a3 - a5\n  5674: a3 = u64 [sp + 0x20]\n  5677: a1 = a1 - a3\n  5680: a3 = u64 [sp + 0x28]\n  5683: a3 = a3 - t1\n  5686: a4 = a1 >u 0\n  5688: a3 = a3 <u 0x40\n  5691: a3 = a3 ^ 0x1\n  5694: a3 = a4 if a1 != 0\n  5697: s1 = a2 >s 0\n  5699: a1 = u64 [sp + 0x30]\n  5702: a4 = a1 >u 0\n  5704: a4 = s1 if a2 != 0\n  5707: a1 = a1 | a2\n  5710: a3 = a4 if a1 != 0\n  5713: jump @129 if a3 == 0\n      : @122 (gas: 12)\n  5717: s1 = a0\n  5719: a0 = t1 | ra\n  5722: u64 [sp + 0x30] = a5\n  5725: a1 = u64 [sp + 0x38]\n  5728: a1 = a1 | a5\n  5731: a0 = a0 | a1\n  5734: a0 = a0 >> 0x20\n  5737: u64 [sp + 0x28] = ra\n  5740: a1 = a1 | ra\n  5743: a1 = a1 << 0x20\n  5746: a0 = a0 | a1\n  5749: jump @128 if a0 != 0\n      : @123 (gas: 6)\n  5753: i32 a1 = t1 + 0\n  5755: i32 a0 = sp + 0x40\n  5758: u64 [sp + 0x18] = a1\n  5761: u64 [sp + 0x20] = t1\n  5764: ecalli 2 // 'call_data_load'\n  5766: fallthrough\n      : @124 (gas: 12)\n  5767: a0 = u64 [sp + 0x28]\n  5770: a1 = u64 [sp + 0x38]\n  5773: a0 = a0 | a1\n  5776: a1 = 0x100000000\n  5786: u64 [sp + 0x38] = a1\n  5789: a1 = 0xffffffe0\n  5799: a2 = u64 [sp + 0x20]\n  5802: a1 = a2 <u a1\n  5805: a2 = u64 [sp + 0x30]\n  5808: a1 = 0 if a2 != 0\n  5810: a1 = 0 if a0 != 0\n  5812: jump @128 if a1 == 0\n      : @125 (gas: 13)\n  5815: a0 = u64 [sp + 0x58]\n  5818: u64 [sp + 0x30] = a0\n  5821: a0 = u64 [sp + 0x50]\n  5824: u64 [sp + 0x28] = a0\n  5827: a0 = u64 [sp + 0x48]\n  5830: u64 [sp + 0x10] = a0\n  5833: a0 = u64 [sp + 0x40]\n  5836: u64 [sp + 0x20] = a0\n  5839: a0 = u64 [sp + 0x18]\n  5842: i32 a1 = a0 + 0x20\n  5845: i32 a0 = sp + 0x40\n  5848: ecalli 2 // 'call_data_load'\n  5850: fallthrough\n      : @126 (gas: 10)\n  5851: a1 = u64 [sp + 0x50]\n  5854: a0 = u64 [sp + 0x58]\n  5857: a2 = u64 [sp + 0x38]\n  5860: a2 = a2 ^ a1\n  5863: a2 = a2 | a0\n  5866: a3 = a1 >> 0x20\n  5869: a3 = a3 <u 0x1\n  5872: a3 = 0 if a0 != 0\n  5874: a3 = 0 if a2 == 0\n  5876: jump @129 if a3 == 0\n      : @127 (gas: 20)\n  5879: a2 = u64 [sp + 0x48]\n  5882: a3 = u64 [sp + 0x40]\n  5885: u64 [s1 + 0x28] = a2\n  5888: u64 [s1 + 0x20] = a3\n  5891: a2 = u64 [sp + 0x10]\n  5894: u64 [s1 + 0x8] = a2\n  5897: a2 = u64 [sp + 0x20]\n  5900: u64 [s1] = a2\n  5902: u64 [s1 + 0x30] = a1\n  5905: a1 = u64 [sp + 0x28]\n  5908: u64 [s1 + 0x10] = a1\n  5911: u64 [s1 + 0x38] = a0\n  5914: a0 = u64 [sp + 0x30]\n  5917: u64 [s1 + 0x18] = a0\n  5920: sp = s0 + 0xffffffffffffff80\n  5923: ra = u64 [sp + 0x78]\n  5926: s0 = u64 [sp + 0x70]\n  5929: s1 = u64 [sp + 0x68]\n  5932: sp = sp + 0x80\n  5936: ret\n      : @128 (gas: 1)\n  5938: trap\n      : @129 (gas: 3)\n  5939: a0 = 0\n  5941: a1 = 0\n  5943: ra = 98, jump @0\n      : @130 [@dyn 49] (gas: 6)\n  5948: i32 a1 = a0 + 0\n  5950: a0 = 0x1\n  5953: a2 = 0\n  5955: ra = 0x64\n  5958: ecalli 11 // 'seal_return'\n  5960: fallthrough\n      : @131 [@dyn 50] (gas: 9)\n  5961: a2 = u64 [a1 + 0x18]\n  5964: a3 = u64 [a1 + 0x10]\n  5967: a4 = u64 [a1 + 0x8]\n  5970: a1 = u64 [a1]\n  5972: u64 [a0 + 0x18] = a2\n  5975: u64 [a0 + 0x10] = a3\n  5978: u64 [a0 + 0x8] = a4\n  5981: u64 [a0] = a1\n  5983: ret\n      : @132 [@dyn 51] (gas: 70)\n  5985: a1 = reverse s1\n  5987: a2 = u64 [sp + 0x48]\n  5990: a2 = reverse a2\n  5992: a3 = u64 [sp + 0x58]\n  5995: a3 = reverse a3\n  5997: a4 = u64 [sp + 0x60]\n  6000: a4 = reverse a4\n  6002: a5 = a4 >> 0x38\n  6005: u8 [a0 + 0x1f] = a5\n  6008: a5 = a4 >> 0x30\n  6011: u8 [a0 + 0x1e] = a5\n  6014: a5 = a4 >> 0x28\n  6017: u8 [a0 + 0x1d] = a5\n  6020: a5 = a4 >> 0x20\n  6023: u8 [a0 + 0x1c] = a5\n  6026: a5 = a4 >> 0x18\n  6029: u8 [a0 + 0x1b] = a5\n  6032: a5 = a4 >> 0x10\n  6035: u8 [a0 + 0x1a] = a5\n  6038: a5 = a4 >> 0x8\n  6041: u8 [a0 + 0x19] = a5\n  6044: u8 [a0 + 0x18] = a4\n  6047: a4 = a3 >> 0x38\n  6050: u8 [a0 + 0x17] = a4\n  6053: a4 = a3 >> 0x30\n  6056: u8 [a0 + 0x16] = a4\n  6059: a4 = a3 >> 0x28\n  6062: u8 [a0 + 0x15] = a4\n  6065: a4 = a3 >> 0x20\n  6068: u8 [a0 + 0x14] = a4\n  6071: a4 = a3 >> 0x18\n  6074: u8 [a0 + 0x13] = a4\n  6077: a4 = a3 >> 0x10\n  6080: u8 [a0 + 0x12] = a4\n  6083: a4 = a3 >> 0x8\n  6086: u8 [a0 + 0x11] = a4\n  6089: u8 [a0 + 0x10] = a3\n  6092: a3 = a2 >> 0x38\n  6095: u8 [a0 + 0xf] = a3\n  6098: a3 = a2 >> 0x30\n  6101: u8 [a0 + 0xe] = a3\n  6104: a3 = a2 >> 0x28\n  6107: u8 [a0 + 0xd] = a3\n  6110: a3 = a2 >> 0x20\n  6113: u8 [a0 + 0xc] = a3\n  6116: a3 = a2 >> 0x18\n  6119: u8 [a0 + 0xb] = a3\n  6122: a3 = a2 >> 0x10\n  6125: u8 [a0 + 0xa] = a3\n  6128: a3 = a2 >> 0x8\n  6131: u8 [a0 + 0x9] = a3\n  6134: u8 [a0 + 0x8] = a2\n  6137: a2 = a1 >> 0x38\n  6140: u8 [a0 + 0x7] = a2\n  6143: a2 = a1 >> 0x30\n  6146: u8 [a0 + 0x6] = a2\n  6149: a2 = a1 >> 0x28\n  6152: u8 [a0 + 0x5] = a2\n  6155: a2 = a1 >> 0x20\n  6158: u8 [a0 + 0x4] = a2\n  6161: a2 = a1 >> 0x18\n  6164: u8 [a0 + 0x3] = a2\n  6167: a2 = a1 >> 0x10\n  6170: u8 [a0 + 0x2] = a2\n  6173: a2 = a1 >> 0x8\n  6176: u8 [a0 + 0x1] = a2\n  6179: u8 [a0] = a1\n  6181: a0 = 0x20\n  6184: a1 = 0x20\n  6187: ra = 104, jump @0\n      : @133 [@dyn 52] (gas: 35)\n  6192: u8 [a0 + 31] = 0x2\n  6196: u8 [a0 + 30] = 0\n  6199: u8 [a0 + 29] = 0\n  6202: u8 [a0 + 28] = 0\n  6205: u8 [a0 + 27] = 0\n  6208: u8 [a0 + 26] = 0\n  6211: u8 [a0 + 25] = 0\n  6214: u8 [a0 + 24] = 0\n  6217: u8 [a0 + 23] = 0\n  6220: u8 [a0 + 22] = 0\n  6223: u8 [a0 + 21] = 0\n  6226: u8 [a0 + 20] = 0\n  6229: u8 [a0 + 19] = 0\n  6232: u8 [a0 + 18] = 0\n  6235: u8 [a0 + 17] = 0\n  6238: u8 [a0 + 16] = 0\n  6241: u8 [a0 + 15] = 0\n  6244: u8 [a0 + 14] = 0\n  6247: u8 [a0 + 13] = 0\n  6250: u8 [a0 + 12] = 0\n  6253: u8 [a0 + 11] = 0\n  6256: u8 [a0 + 10] = 0\n  6259: u8 [a0 + 9] = 0\n  6262: u8 [a0 + 8] = 0\n  6265: u8 [a0 + 7] = 0\n  6268: u8 [a0 + 6] = 0\n  6271: u8 [a0 + 5] = 0\n  6274: u8 [a0 + 4] = 0\n  6277: u8 [a0 + 3] = 0\n  6280: u8 [a0 + 2] = 0\n  6283: u8 [a0 + 1] = 0\n  6286: u8 [a0 + 0] = 0\n  6288: a1 = 0x40\n  6291: a0 = 0\n  6293: ra = 106, jump @0\n      : @134 [@dyn 53] (gas: 14)\n  6298: i32 a0 = a0 + 0\n  6300: i32 a2 = sp + 0xa0\n  6304: a1 = 0x40\n  6307: ecalli 8 // 'hash_keccak_256'\n  6309: a0 = u64 [sp + 0xa0]\n  6313: u64 [sp + 0x60] = a0\n  6316: a0 = u64 [sp + 0xa8]\n  6320: u64 [sp + 0x58] = a0\n  6323: a0 = u64 [sp + 0xb0]\n  6327: u64 [sp + 0x48] = a0\n  6330: s1 = u64 [sp + 0xb8]\n  6334: a1 = 0x20\n  6337: a0 = 0\n  6339: ra = 108, jump @0\n      : @135 [@dyn 54] (gas: 59)\n  6344: a1 = u64 [sp + 0x68]\n  6347: a1 = reverse a1\n  6349: a2 = u64 [sp + 0x70]\n  6352: a2 = reverse a2\n  6354: a3 = u64 [sp + 0x78]\n  6357: a3 = reverse a3\n  6359: a4 = a3 >> 0x38\n  6362: u8 [a0 + 0x1f] = a4\n  6365: a4 = a3 >> 0x30\n  6368: u8 [a0 + 0x1e] = a4\n  6371: a4 = a3 >> 0x28\n  6374: u8 [a0 + 0x1d] = a4\n  6377: a4 = a3 >> 0x20\n  6380: u8 [a0 + 0x1c] = a4\n  6383: a4 = a3 >> 0x18\n  6386: u8 [a0 + 0x1b] = a4\n  6389: a4 = a3 >> 0x10\n  6392: u8 [a0 + 0x1a] = a4\n  6395: a4 = a3 >> 0x8\n  6398: u8 [a0 + 0x19] = a4\n  6401: u8 [a0 + 0x18] = a3\n  6404: a3 = a2 >> 0x38\n  6407: u8 [a0 + 0x17] = a3\n  6410: a3 = a2 >> 0x30\n  6413: u8 [a0 + 0x16] = a3\n  6416: a3 = a2 >> 0x28\n  6419: u8 [a0 + 0x15] = a3\n  6422: a3 = a2 >> 0x20\n  6425: u8 [a0 + 0x14] = a3\n  6428: a3 = a2 >> 0x18\n  6431: u8 [a0 + 0x13] = a3\n  6434: a3 = a2 >> 0x10\n  6437: u8 [a0 + 0x12] = a3\n  6440: a3 = a2 >> 0x8\n  6443: u8 [a0 + 0x11] = a3\n  6446: u8 [a0 + 0x10] = a2\n  6449: a2 = a1 >> 0x38\n  6452: u8 [a0 + 0xf] = a2\n  6455: a2 = a1 >> 0x30\n  6458: u8 [a0 + 0xe] = a2\n  6461: a2 = a1 >> 0x28\n  6464: u8 [a0 + 0xd] = a2\n  6467: a2 = a1 >> 0x20\n  6470: u8 [a0 + 0xc] = a2\n  6473: u8 [a0 + 11] = 0\n  6476: u8 [a0 + 10] = 0\n  6479: u8 [a0 + 9] = 0\n  6482: u8 [a0 + 0x8] = a1\n  6485: u8 [a0 + 7] = 0\n  6488: u8 [a0 + 6] = 0\n  6491: u8 [a0 + 5] = 0\n  6494: u8 [a0 + 4] = 0\n  6497: u8 [a0 + 3] = 0\n  6500: u8 [a0 + 2] = 0\n  6503: u8 [a0 + 1] = 0\n  6506: u8 [a0 + 0] = 0\n  6508: a0 = 0x20\n  6511: a1 = 0x20\n  6514: ra = 110, jump @0\n      : @136 [@dyn 55] (gas: 66)\n  6519: a1 = s1 >> 0x38\n  6522: u8 [a0 + 0x1f] = a1\n  6525: a1 = s1 >> 0x30\n  6528: u8 [a0 + 0x1e] = a1\n  6531: a1 = s1 >> 0x28\n  6534: u8 [a0 + 0x1d] = a1\n  6537: a1 = s1 >> 0x20\n  6540: u8 [a0 + 0x1c] = a1\n  6543: a1 = s1 >> 0x18\n  6546: u8 [a0 + 0x1b] = a1\n  6549: a1 = s1 >> 0x10\n  6552: u8 [a0 + 0x1a] = a1\n  6555: a1 = s1 >> 0x8\n  6558: u8 [a0 + 0x19] = a1\n  6561: u8 [a0 + 0x18] = s1\n  6564: a2 = u64 [sp + 0x48]\n  6567: a1 = a2 >> 0x38\n  6570: u8 [a0 + 0x17] = a1\n  6573: a1 = a2 >> 0x30\n  6576: u8 [a0 + 0x16] = a1\n  6579: a1 = a2 >> 0x28\n  6582: u8 [a0 + 0x15] = a1\n  6585: a1 = a2 >> 0x20\n  6588: u8 [a0 + 0x14] = a1\n  6591: a1 = a2 >> 0x18\n  6594: u8 [a0 + 0x13] = a1\n  6597: a1 = a2 >> 0x10\n  6600: u8 [a0 + 0x12] = a1\n  6603: a1 = a2 >> 0x8\n  6606: u8 [a0 + 0x11] = a1\n  6609: u8 [a0 + 0x10] = a2\n  6612: a2 = u64 [sp + 0x58]\n  6615: a1 = a2 >> 0x38\n  6618: u8 [a0 + 0xf] = a1\n  6621: a1 = a2 >> 0x30\n  6624: u8 [a0 + 0xe] = a1\n  6627: a1 = a2 >> 0x28\n  6630: u8 [a0 + 0xd] = a1\n  6633: a1 = a2 >> 0x20\n  6636: u8 [a0 + 0xc] = a1\n  6639: a1 = a2 >> 0x18\n  6642: u8 [a0 + 0xb] = a1\n  6645: a1 = a2 >> 0x10\n  6648: u8 [a0 + 0xa] = a1\n  6651: a1 = a2 >> 0x8\n  6654: u8 [a0 + 0x9] = a1\n  6657: u8 [a0 + 0x8] = a2\n  6660: a2 = u64 [sp + 0x60]\n  6663: a1 = a2 >> 0x38\n  6666: u8 [a0 + 0x7] = a1\n  6669: a1 = a2 >> 0x30\n  6672: u8 [a0 + 0x6] = a1\n  6675: a1 = a2 >> 0x28\n  6678: u8 [a0 + 0x5] = a1\n  6681: a1 = a2 >> 0x20\n  6684: u8 [a0 + 0x4] = a1\n  6687: a1 = a2 >> 0x18\n  6690: u8 [a0 + 0x3] = a1\n  6693: a1 = a2 >> 0x10\n  6696: u8 [a0 + 0x2] = a1\n  6699: a1 = a2 >> 0x8\n  6702: u8 [a0 + 0x1] = a1\n  6705: u8 [a0] = a2\n  6707: a1 = 0x40\n  6710: a0 = 0\n  6712: ra = 112, jump @0\n      : @137 [@dyn 56] (gas: 179)\n  6717: i32 a0 = a0 + 0\n  6719: i32 a2 = sp + 0xa0\n  6723: a1 = 0x40\n  6726: ecalli 8 // 'hash_keccak_256'\n  6728: a0 = u64 [sp + 0xb8]\n  6732: a1 = u64 [sp + 0xb0]\n  6736: a2 = u64 [sp + 0xa8]\n  6740: a3 = u64 [sp + 0xa0]\n  6744: s1 = reverse a0\n  6746: a1 = reverse a1\n  6748: u64 [sp + 0x70] = a1\n  6751: a2 = reverse a2\n  6753: u64 [sp + 0x58] = a2\n  6756: a0 = reverse a3\n  6758: u64 [sp + 0x78] = a0\n  6761: u64 [sp + 0x98] = a0\n  6765: u64 [sp + 0x90] = a2\n  6769: u64 [sp + 0x88] = a1\n  6773: u64 [sp + 0x80] = s1\n  6777: u64 [sp + 0x60] = s1\n  6780: u64 [sp + 184] = 0\n  6784: u64 [sp + 176] = 0\n  6788: u64 [sp + 168] = 0\n  6792: u64 [sp + 160] = 0\n  6796: u32 [sp + 192] = 0x20\n  6801: i32 a1 = sp + 0x80\n  6805: i32 a3 = sp + 0xa0\n  6809: i32 a4 = sp + 0xc0\n  6813: a2 = 0xffffffffffffffff\n  6816: a0 = 0\n  6818: ecalli 7 // 'get_storage'\n  6820: a0 = s1 + 0x1\n  6823: a1 = a0 <u 0x1\n  6826: a2 = u64 [sp + 0x70]\n  6829: a1 = a1 + a2\n  6832: a2 = a0 | a1\n  6835: a2 = a2 <u 0x1\n  6838: a3 = u64 [sp + 0x58]\n  6841: a2 = a2 + a3\n  6844: a3 = a2 <u a3\n  6847: a4 = u64 [sp + 0x78]\n  6850: a3 = a3 + a4\n  6853: u64 [sp + 0x98] = a3\n  6857: u64 [sp + 0x90] = a2\n  6861: a2 = u64 [sp + 0xa0]\n  6865: u64 [sp + 0x48] = a2\n  6868: u64 [sp + 0x88] = a1\n  6872: a1 = u64 [sp + 0xa8]\n  6876: u64 [sp + 0x40] = a1\n  6879: u64 [sp + 0x80] = a0\n  6883: a0 = u32 [sp + 0xb0]\n  6887: u64 [sp + 0x38] = a0\n  6890: u64 [sp + 184] = 0\n  6894: u64 [sp + 176] = 0\n  6898: u64 [sp + 168] = 0\n  6902: u64 [sp + 160] = 0\n  6906: u32 [sp + 192] = 0x20\n  6911: i32 a1 = sp + 0x80\n  6915: i32 a3 = sp + 0xa0\n  6919: i32 a4 = sp + 0xc0\n  6923: a2 = 0xffffffffffffffff\n  6926: a0 = 0\n  6928: ecalli 7 // 'get_storage'\n  6930: a0 = u64 [sp + 0xa0]\n  6934: u64 [sp + 0x30] = a0\n  6937: a0 = u64 [sp + 0xa8]\n  6941: u64 [sp + 0x28] = a0\n  6944: a0 = u64 [sp + 0xb0]\n  6948: u64 [sp + 0x20] = a0\n  6951: a0 = u64 [sp + 0xb8]\n  6955: u64 [sp + 0x18] = a0\n  6958: a0 = u64 [sp + 0x60]\n  6961: a1 = a0 + 0x2\n  6964: a0 = a1 <u a0\n  6967: a2 = a1\n  6969: u64 [sp + 0x68] = a1\n  6972: a1 = u64 [sp + 0x70]\n  6975: a3 = a1 + a0\n  6978: u64 [sp + 0x60] = a3\n  6981: s1 = a3 <u a1\n  6984: s1 = a0 if a0 == 0\n  6987: a0 = u64 [sp + 0x58]\n  6990: s1 = s1 + a0\n  6993: a0 = s1 <u a0\n  6996: a1 = u64 [sp + 0x78]\n  6999: a0 = a0 + a1\n  7002: u64 [sp + 0x78] = a0\n  7005: u64 [sp + 0x98] = a0\n  7009: u64 [sp + 0x90] = s1\n  7013: u64 [sp + 0x88] = a3\n  7017: u64 [sp + 0x80] = a2\n  7021: u64 [sp + 184] = 0\n  7025: u64 [sp + 176] = 0\n  7029: u64 [sp + 168] = 0\n  7033: u64 [sp + 160] = 0\n  7037: u32 [sp + 192] = 0x20\n  7042: i32 a1 = sp + 0x80\n  7046: i32 a3 = sp + 0xa0\n  7050: i32 a4 = sp + 0xc0\n  7054: a2 = 0xffffffffffffffff\n  7057: a0 = 0\n  7059: ecalli 7 // 'get_storage'\n  7061: a0 = u8 [sp + 0xa0]\n  7065: u64 [sp + 0x70] = a0\n  7068: a0 = u64 [sp + 0x78]\n  7071: u64 [sp + 0x98] = a0\n  7075: u64 [sp + 0x90] = s1\n  7079: a0 = u64 [sp + 0x60]\n  7082: u64 [sp + 0x88] = a0\n  7086: a0 = u64 [sp + 0x68]\n  7089: u64 [sp + 0x80] = a0\n  7093: u64 [sp + 184] = 0\n  7097: u64 [sp + 176] = 0\n  7101: u64 [sp + 168] = 0\n  7105: u64 [sp + 160] = 0\n  7109: u32 [sp + 192] = 0x20\n  7114: i32 a1 = sp + 0x80\n  7118: i32 a3 = sp + 0xa0\n  7122: i32 a4 = sp + 0xc0\n  7126: a2 = 0xffffffffffffffff\n  7129: a0 = 0\n  7131: ecalli 7 // 'get_storage'\n  7133: a0 = u8 [sp + 0xa1]\n  7137: u64 [sp + 0x58] = a0\n  7140: a0 = u64 [sp + 0x78]\n  7143: u64 [sp + 0x98] = a0\n  7147: u64 [sp + 0x90] = s1\n  7151: a0 = u64 [sp + 0x60]\n  7154: u64 [sp + 0x88] = a0\n  7158: a0 = u64 [sp + 0x68]\n  7161: u64 [sp + 0x80] = a0\n  7165: u64 [sp + 184] = 0\n  7169: u64 [sp + 176] = 0\n  7173: u64 [sp + 168] = 0\n  7177: u64 [sp + 160] = 0\n  7181: u32 [sp + 192] = 0x20\n  7186: i32 a1 = sp + 0x80\n  7190: i32 a3 = sp + 0xa0\n  7194: i32 a4 = sp + 0xc0\n  7198: a2 = 0xffffffffffffffff\n  7201: a0 = 0\n  7203: ecalli 7 // 'get_storage'\n  7205: a0 = u8 [sp + 0xa2]\n  7209: a1 = u64 [sp + 0x50]\n  7212: u64 [a1 + 152] = 0\n  7216: u64 [a1 + 144] = 0\n  7220: u64 [a1 + 136] = 0\n  7224: u64 [a1 + 0x80] = a0\n  7228: u64 [a1 + 120] = 0\n  7231: u64 [a1 + 112] = 0\n  7234: u64 [a1 + 104] = 0\n  7237: a0 = u64 [sp + 0x58]\n  7240: u64 [a1 + 0x60] = a0\n  7243: u64 [a1 + 88] = 0\n  7246: u64 [a1 + 80] = 0\n  7249: u64 [a1 + 72] = 0\n  7252: a0 = u64 [sp + 0x70]\n  7255: u64 [a1 + 0x40] = a0\n  7258: a0 = u64 [sp + 0x18]\n  7261: u64 [a1 + 0x38] = a0\n  7264: a0 = u64 [sp + 0x20]\n  7267: u64 [a1 + 0x30] = a0\n  7270: a0 = u64 [sp + 0x28]\n  7273: u64 [a1 + 0x28] = a0\n  7276: a0 = u64 [sp + 0x30]\n  7279: u64 [a1 + 0x20] = a0\n  7282: u64 [a1 + 24] = 0\n  7285: a0 = u64 [sp + 0x38]\n  7288: u64 [a1 + 0x10] = a0\n  7291: a0 = u64 [sp + 0x40]\n  7294: u64 [a1 + 0x8] = a0\n  7297: a0 = u64 [sp + 0x48]\n  7300: u64 [a1] = a0\n  7302: sp = s0 + 0xffffffffffffff20\n  7306: ra = u64 [sp + 0xd8]\n  7310: s0 = u64 [sp + 0xd0]\n  7314: s1 = u64 [sp + 0xc8]\n  7318: sp = sp + 0xe0\n  7322: ret\n      : @138 (gas: 21)\n  7324: sp = sp + 0xffffffffffffff30\n  7328: u64 [sp + 0xc8] = ra\n  7332: u64 [sp + 0xc0] = s0\n  7336: u64 [sp + 0xb8] = s1\n  7340: s0 = u64 [a1 + 0x10]\n  7343: t0 = u64 [a1 + 0x18]\n  7346: s1 = u64 [a1 + 0x8]\n  7349: a1 = u64 [a1]\n  7351: u64 [sp + 0xa8] = s1\n  7355: u64 [sp + 0x88] = t0\n  7359: t0 = s1 | t0\n  7362: u64 [sp + 0xb0] = a1\n  7366: s1 = a1 | s0\n  7369: s1 = s1 | t0\n  7372: s1 = s1 >> 0x20\n  7375: u64 [sp + 0x90] = s0\n  7379: a1 = t0 | s0\n  7382: a1 = a1 << 0x20\n  7385: a1 = a1 | s1\n  7388: u64 [sp + 0x40] = a0\n  7391: jump @149 if a1 != 0\n      : @139 (gas: 43)\n  7395: a0 = u64 [sp + 0xd0]\n  7399: a1 = u64 [a0 + 0x18]\n  7402: u64 [sp + 0x18] = a1\n  7405: a1 = u64 [a0 + 0x10]\n  7408: u64 [sp + 0x8] = a1\n  7411: a1 = u64 [a0 + 0x8]\n  7414: u64 [sp + 0x10] = a1\n  7417: a0 = u64 [a0]\n  7419: u64 [sp] = a0\n  7421: a0 = u64 [a5 + 0x18]\n  7424: u64 [sp + 0x38] = a0\n  7427: a0 = u64 [a5 + 0x10]\n  7430: u64 [sp + 0x28] = a0\n  7433: a0 = u64 [a5 + 0x8]\n  7436: u64 [sp + 0x30] = a0\n  7439: a0 = u64 [a5]\n  7441: u64 [sp + 0x20] = a0\n  7444: a0 = u64 [a4 + 0x18]\n  7447: u64 [sp + 0x60] = a0\n  7450: a0 = u64 [a4 + 0x10]\n  7453: u64 [sp + 0x50] = a0\n  7456: a0 = u64 [a4 + 0x8]\n  7459: u64 [sp + 0x58] = a0\n  7462: a0 = u64 [a4]\n  7464: u64 [sp + 0x48] = a0\n  7467: a0 = u64 [a3 + 0x18]\n  7470: u64 [sp + 0x70] = a0\n  7473: a0 = u64 [a3 + 0x10]\n  7476: u64 [sp + 0x78] = a0\n  7479: a0 = u64 [a3 + 0x8]\n  7482: u64 [sp + 0x80] = a0\n  7486: a0 = u64 [a2 + 0x10]\n  7489: a1 = u64 [a3]\n  7491: u64 [sp + 0x68] = a1\n  7494: a1 = u64 [a2 + 0x8]\n  7497: u64 [sp + 0x98] = a1\n  7501: s1 = u64 [a2]\n  7503: a0 = a0 << 0x20\n  7506: s0 = a0 >> 0x20\n  7509: a0 = i32 [sp + 0xb0]\n  7513: a1 = 0x20\n  7516: u64 [sp + 0xa0] = a0\n  7520: ra = 114, jump @0\n      : @140 [@dyn 57] (gas: 66)\n  7525: a1 = reverse s0\n  7527: a2 = u64 [sp + 0x98]\n  7531: a2 = reverse a2\n  7533: a3 = reverse s1\n  7535: a4 = a3 >> 0x38\n  7538: u8 [a0 + 0x1f] = a4\n  7541: a4 = a3 >> 0x30\n  7544: u8 [a0 + 0x1e] = a4\n  7547: a4 = a3 >> 0x28\n  7550: u8 [a0 + 0x1d] = a4\n  7553: a4 = a3 >> 0x20\n  7556: u8 [a0 + 0x1c] = a4\n  7559: a4 = a3 >> 0x18\n  7562: u8 [a0 + 0x1b] = a4\n  7565: a4 = a3 >> 0x10\n  7568: u8 [a0 + 0x1a] = a4\n  7571: a4 = a3 >> 0x8\n  7574: u8 [a0 + 0x19] = a4\n  7577: u8 [a0 + 0x18] = a3\n  7580: u8 [a0 + 0x10] = a2\n  7583: u8 [a0 + 11] = 0\n  7586: u8 [a0 + 10] = 0\n  7589: u8 [a0 + 9] = 0\n  7592: u8 [a0 + 7] = 0\n  7595: u8 [a0 + 6] = 0\n  7598: u8 [a0 + 5] = 0\n  7601: u8 [a0 + 4] = 0\n  7604: u8 [a0 + 3] = 0\n  7607: u8 [a0 + 2] = 0\n  7610: u8 [a0 + 1] = 0\n  7613: u8 [a0 + 0] = 0\n  7615: a3 = a2 >> 0x38\n  7618: u8 [a0 + 0x17] = a3\n  7621: a3 = a2 >> 0x30\n  7624: u8 [a0 + 0x16] = a3\n  7627: a3 = a2 >> 0x28\n  7630: u8 [a0 + 0x15] = a3\n  7633: a3 = a2 >> 0x20\n  7636: u8 [a0 + 0x14] = a3\n  7639: a3 = a2 >> 0x18\n  7642: u8 [a0 + 0x13] = a3\n  7645: a3 = a2 >> 0x10\n  7648: u8 [a0 + 0x12] = a3\n  7651: a2 = a2 >> 0x8\n  7654: u8 [a0 + 0x11] = a2\n  7657: u8 [a0 + 0x8] = a1\n  7660: a2 = a1 >> 0x38\n  7663: u8 [a0 + 0xf] = a2\n  7666: a2 = a1 >> 0x30\n  7669: u8 [a0 + 0xe] = a2\n  7672: a2 = a1 >> 0x28\n  7675: u8 [a0 + 0xd] = a2\n  7678: a1 = a1 >> 0x20\n  7681: a2 = u64 [sp + 0x90]\n  7685: a4 = u64 [sp + 0x88]\n  7689: a4 = a4 | a2\n  7692: s0 = 0x100000000\n  7702: a2 = 0xffffffe0\n  7712: a3 = u64 [sp + 0xb0]\n  7716: a2 = a3 <u a2\n  7719: a3 = u64 [sp + 0xa8]\n  7723: a2 = 0 if a3 != 0\n  7725: u64 [sp + 0x98] = a4\n  7729: a2 = 0 if a4 != 0\n  7731: u8 [a0 + 0xc] = a1\n  7734: jump @149 if a2 == 0\n      : @141 (gas: 4)\n  7738: a0 = u64 [sp + 0xa0]\n  7742: i32 a0 = a0 + 0x20\n  7745: a1 = 0x20\n  7748: ra = 116, jump @0\n      : @142 [@dyn 58] (gas: 76)\n  7753: a1 = u64 [sp + 0x70]\n  7756: a1 = reverse a1\n  7758: a2 = u64 [sp + 0x78]\n  7761: a2 = reverse a2\n  7763: a3 = u64 [sp + 0x80]\n  7767: a3 = reverse a3\n  7769: a4 = u64 [sp + 0x68]\n  7772: a4 = reverse a4\n  7774: a5 = a4 >> 0x38\n  7777: u8 [a0 + 0x1f] = a5\n  7780: a5 = a4 >> 0x30\n  7783: u8 [a0 + 0x1e] = a5\n  7786: a5 = a4 >> 0x28\n  7789: u8 [a0 + 0x1d] = a5\n  7792: a5 = a4 >> 0x20\n  7795: u8 [a0 + 0x1c] = a5\n  7798: a5 = a4 >> 0x18\n  7801: u8 [a0 + 0x1b] = a5\n  7804: a5 = a4 >> 0x10\n  7807: u8 [a0 + 0x1a] = a5\n  7810: a5 = a4 >> 0x8\n  7813: u8 [a0 + 0x19] = a5\n  7816: u8 [a0 + 0x18] = a4\n  7819: u8 [a0 + 0x10] = a3\n  7822: a4 = a3 >> 0x38\n  7825: u8 [a0 + 0x17] = a4\n  7828: a4 = a3 >> 0x30\n  7831: u8 [a0 + 0x16] = a4\n  7834: a4 = a3 >> 0x28\n  7837: u8 [a0 + 0x15] = a4\n  7840: a4 = a3 >> 0x20\n  7843: u8 [a0 + 0x14] = a4\n  7846: a4 = a3 >> 0x18\n  7849: u8 [a0 + 0x13] = a4\n  7852: a4 = a3 >> 0x10\n  7855: u8 [a0 + 0x12] = a4\n  7858: a3 = a3 >> 0x8\n  7861: u8 [a0 + 0x11] = a3\n  7864: u8 [a0 + 0x8] = a2\n  7867: a3 = a2 >> 0x38\n  7870: u8 [a0 + 0xf] = a3\n  7873: a3 = a2 >> 0x30\n  7876: u8 [a0 + 0xe] = a3\n  7879: a3 = a2 >> 0x28\n  7882: u8 [a0 + 0xd] = a3\n  7885: a3 = a2 >> 0x20\n  7888: u8 [a0 + 0xc] = a3\n  7891: a3 = a2 >> 0x18\n  7894: u8 [a0 + 0xb] = a3\n  7897: a3 = a2 >> 0x10\n  7900: u8 [a0 + 0xa] = a3\n  7903: a2 = a2 >> 0x8\n  7906: u8 [a0 + 0x9] = a2\n  7909: u8 [a0] = a1\n  7911: a2 = a1 >> 0x38\n  7914: u8 [a0 + 0x7] = a2\n  7917: a2 = a1 >> 0x30\n  7920: u8 [a0 + 0x6] = a2\n  7923: a2 = a1 >> 0x28\n  7926: u8 [a0 + 0x5] = a2\n  7929: a2 = a1 >> 0x20\n  7932: u8 [a0 + 0x4] = a2\n  7935: a2 = a1 >> 0x18\n  7938: u8 [a0 + 0x3] = a2\n  7941: a2 = a1 >> 0x10\n  7944: u8 [a0 + 0x2] = a2\n  7947: a1 = a1 >> 0x8\n  7950: a2 = s0 + 0xffffffffffffffc0\n  7953: a3 = u64 [sp + 0xb0]\n  7957: a2 = a3 <u a2\n  7960: a3 = u64 [sp + 0xa8]\n  7964: a2 = 0 if a3 != 0\n  7966: a3 = u64 [sp + 0x98]\n  7970: a2 = 0 if a3 != 0\n  7972: u8 [a0 + 0x1] = a1\n  7975: jump @149 if a2 == 0\n      : @143 (gas: 12)\n  7979: a0 = u64 [sp + 0x50]\n  7982: a1 = u64 [sp + 0x48]\n  7985: a0 = a0 | a1\n  7988: a1 = u64 [sp + 0x60]\n  7991: a2 = u64 [sp + 0x58]\n  7994: a1 = a1 | a2\n  7997: a0 = a0 | a1\n  8000: s0 = a0 >u 0\n  8002: a0 = u64 [sp + 0xa0]\n  8006: i32 a0 = a0 + 0x40\n  8009: a1 = 0x20\n  8012: ra = 118, jump @0\n      : @144 [@dyn 59] (gas: 41)\n  8017: u8 [a0 + 30] = 0\n  8020: u8 [a0 + 29] = 0\n  8023: u8 [a0 + 28] = 0\n  8026: u8 [a0 + 27] = 0\n  8029: u8 [a0 + 26] = 0\n  8032: u8 [a0 + 25] = 0\n  8035: u8 [a0 + 24] = 0\n  8038: u8 [a0 + 23] = 0\n  8041: u8 [a0 + 22] = 0\n  8044: u8 [a0 + 21] = 0\n  8047: u8 [a0 + 20] = 0\n  8050: u8 [a0 + 19] = 0\n  8053: u8 [a0 + 18] = 0\n  8056: u8 [a0 + 17] = 0\n  8059: u8 [a0 + 16] = 0\n  8062: u8 [a0 + 15] = 0\n  8065: u8 [a0 + 14] = 0\n  8068: u8 [a0 + 13] = 0\n  8071: u8 [a0 + 12] = 0\n  8074: u8 [a0 + 11] = 0\n  8077: u8 [a0 + 10] = 0\n  8080: u8 [a0 + 9] = 0\n  8083: u8 [a0 + 8] = 0\n  8086: u8 [a0 + 7] = 0\n  8089: u8 [a0 + 6] = 0\n  8092: u8 [a0 + 5] = 0\n  8095: u8 [a0 + 4] = 0\n  8098: u8 [a0 + 3] = 0\n  8101: u8 [a0 + 2] = 0\n  8104: u8 [a0 + 1] = 0\n  8107: u8 [a0 + 0x1f] = s0\n  8110: s0 = 0x100000000\n  8120: a1 = 0xffffffa0\n  8130: a2 = u64 [sp + 0xb0]\n  8134: a1 = a2 <u a1\n  8137: a2 = u64 [sp + 0xa8]\n  8141: a1 = 0 if a2 != 0\n  8143: a2 = u64 [sp + 0x98]\n  8147: a1 = 0 if a2 != 0\n  8149: u8 [a0 + 0] = 0\n  8151: jump @149 if a1 == 0\n      : @145 (gas: 12)\n  8155: a0 = u64 [sp + 0x28]\n  8158: a1 = u64 [sp + 0x20]\n  8161: a0 = a0 | a1\n  8164: a1 = u64 [sp + 0x38]\n  8167: a2 = u64 [sp + 0x30]\n  8170: a1 = a1 | a2\n  8173: a0 = a0 | a1\n  8176: s1 = a0 >u 0\n  8178: a0 = u64 [sp + 0xa0]\n  8182: i32 a0 = a0 + 0x60\n  8185: a1 = 0x20\n  8188: ra = 120, jump @0\n      : @146 [@dyn 60] (gas: 40)\n  8193: u8 [a0 + 30] = 0\n  8196: u8 [a0 + 29] = 0\n  8199: u8 [a0 + 28] = 0\n  8202: u8 [a0 + 27] = 0\n  8205: u8 [a0 + 26] = 0\n  8208: u8 [a0 + 25] = 0\n  8211: u8 [a0 + 24] = 0\n  8214: u8 [a0 + 23] = 0\n  8217: u8 [a0 + 22] = 0\n  8220: u8 [a0 + 21] = 0\n  8223: u8 [a0 + 20] = 0\n  8226: u8 [a0 + 19] = 0\n  8229: u8 [a0 + 18] = 0\n  8232: u8 [a0 + 17] = 0\n  8235: u8 [a0 + 16] = 0\n  8238: u8 [a0 + 15] = 0\n  8241: u8 [a0 + 14] = 0\n  8244: u8 [a0 + 13] = 0\n  8247: u8 [a0 + 12] = 0\n  8250: u8 [a0 + 11] = 0\n  8253: u8 [a0 + 10] = 0\n  8256: u8 [a0 + 9] = 0\n  8259: u8 [a0 + 8] = 0\n  8262: u8 [a0 + 7] = 0\n  8265: u8 [a0 + 6] = 0\n  8268: u8 [a0 + 5] = 0\n  8271: u8 [a0 + 4] = 0\n  8274: u8 [a0 + 3] = 0\n  8277: u8 [a0 + 2] = 0\n  8280: u8 [a0 + 1] = 0\n  8283: u8 [a0 + 0] = 0\n  8285: a1 = s0 + 0xffffffffffffff80\n  8288: a2 = u64 [sp + 0xb0]\n  8292: a1 = a2 <u a1\n  8295: a2 = u64 [sp + 0xa8]\n  8299: a1 = 0 if a2 != 0\n  8301: a2 = u64 [sp + 0x98]\n  8305: a1 = 0 if a2 != 0\n  8307: u8 [a0 + 0x1f] = s1\n  8310: jump @149 if a1 == 0\n      : @147 (gas: 27)\n  8314: a0 = u64 [sp + 0xb0]\n  8318: a1 = a0 + 0xa0\n  8322: u64 [sp + 0x98] = a1\n  8326: a0 = a1 <u a0\n  8329: a1 = u64 [sp + 0xa8]\n  8333: s1 = a1 + a0\n  8336: s0 = s1 <u a1\n  8339: s0 = a0 if a0 == 0\n  8342: a0 = u64 [sp + 0x90]\n  8346: s0 = s0 + a0\n  8349: a0 = s0 <u a0\n  8352: a1 = u64 [sp + 0x88]\n  8356: a0 = a0 + a1\n  8359: u64 [sp + 0xb0] = a0\n  8363: a0 = u64 [sp + 0x8]\n  8366: a1 = u64 [sp]\n  8368: a0 = a0 | a1\n  8371: a1 = u64 [sp + 0x18]\n  8374: a2 = u64 [sp + 0x10]\n  8377: a1 = a1 | a2\n  8380: a0 = a0 | a1\n  8383: a0 = a0 >u 0\n  8385: u64 [sp + 0xa8] = a0\n  8389: a0 = u64 [sp + 0xa0]\n  8393: i32 a0 = a0 + 0x80\n  8397: a1 = 0x20\n  8400: ra = 122, jump @0\n      : @148 [@dyn 61] (gas: 45)\n  8405: u8 [a0 + 30] = 0\n  8408: u8 [a0 + 29] = 0\n  8411: u8 [a0 + 28] = 0\n  8414: u8 [a0 + 27] = 0\n  8417: u8 [a0 + 26] = 0\n  8420: u8 [a0 + 25] = 0\n  8423: u8 [a0 + 24] = 0\n  8426: u8 [a0 + 23] = 0\n  8429: u8 [a0 + 22] = 0\n  8432: u8 [a0 + 21] = 0\n  8435: u8 [a0 + 20] = 0\n  8438: u8 [a0 + 19] = 0\n  8441: u8 [a0 + 18] = 0\n  8444: u8 [a0 + 17] = 0\n  8447: u8 [a0 + 16] = 0\n  8450: u8 [a0 + 15] = 0\n  8453: u8 [a0 + 14] = 0\n  8456: u8 [a0 + 13] = 0\n  8459: u8 [a0 + 12] = 0\n  8462: u8 [a0 + 11] = 0\n  8465: u8 [a0 + 10] = 0\n  8468: u8 [a0 + 9] = 0\n  8471: u8 [a0 + 8] = 0\n  8474: u8 [a0 + 7] = 0\n  8477: u8 [a0 + 6] = 0\n  8480: u8 [a0 + 5] = 0\n  8483: u8 [a0 + 4] = 0\n  8486: u8 [a0 + 3] = 0\n  8489: u8 [a0 + 2] = 0\n  8492: u8 [a0 + 1] = 0\n  8495: u8 [a0 + 0] = 0\n  8497: a1 = u64 [sp + 0xa8]\n  8501: u8 [a0 + 0x1f] = a1\n  8504: a0 = u64 [sp + 0x40]\n  8507: a1 = u64 [sp + 0x98]\n  8511: u64 [a0] = a1\n  8513: a1 = u64 [sp + 0xb0]\n  8517: u64 [a0 + 0x18] = a1\n  8520: u64 [a0 + 0x8] = s1\n  8523: u64 [a0 + 0x10] = s0\n  8526: ra = u64 [sp + 0xc8]\n  8530: s0 = u64 [sp + 0xc0]\n  8534: s1 = u64 [sp + 0xb8]\n  8538: sp = sp + 0xd0\n  8542: ret\n      : @149 (gas: 1)\n  8544: trap\n      : @150 (gas: 8)\n  8545: a0 = u64 [sp + 0x310]\n  8549: a1 = u64 [sp + 0x318]\n  8553: a2 = u64 [sp + 0x308]\n  8557: a3 = u64 [sp + 0x300]\n  8561: a1 = a1 | a2\n  8564: a0 = a0 | a3\n  8567: a0 = a0 | a1\n  8570: jump @158 if a0 != 0\n      : @151 (gas: 13)\n  8574: a0 = u32 [0x200a8]\n  8579: u64 [sp + 664] = 0\n  8583: u64 [sp + 656] = 0\n  8587: u64 [sp + 648] = 0\n  8591: u64 [sp + 0x280] = a0\n  8595: u64 [sp + 696] = 0\n  8599: u64 [sp + 688] = 0\n  8603: u64 [sp + 672] = 0x4\n  8608: a0 = sp + 0x2c0\n  8612: a1 = sp + 0x2a0\n  8616: a2 = sp + 0x280\n  8620: u64 [sp + 680] = 0\n  8624: ra = 124, jump @121\n      : @152 [@dyn 62] (gas: 44)\n  8629: t0 = u64 [sp + 0x2c0]\n  8633: a0 = u64 [sp + 0x2c8]\n  8637: a1 = u64 [sp + 0x2d0]\n  8641: a2 = u64 [sp + 0x2d8]\n  8645: a4 = u64 [sp + 0x2e0]\n  8649: a5 = u64 [sp + 0x2e8]\n  8653: s1 = u64 [sp + 0x2f0]\n  8657: a3 = u64 [sp + 0x2f8]\n  8661: u64 [sp + 0x1b8] = a3\n  8665: u64 [sp + 0x1b0] = s1\n  8669: u64 [sp + 0x1a8] = a5\n  8673: u64 [sp + 0x1a0] = a4\n  8677: u64 [sp + 0x1d8] = a2\n  8681: u64 [sp + 0x1d0] = a1\n  8685: u64 [sp + 0x1c8] = a0\n  8689: a0 = sp + 0x1e0\n  8693: a1 = sp + 0x1c0\n  8697: a2 = sp + 0x1a0\n  8701: u64 [sp + 0x1c0] = t0\n  8705: ra = 0x7e\n  8708: sp = sp + 0xffffffffffffff20\n  8712: u64 [sp + 0xd8] = ra\n  8716: u64 [sp + 0xd0] = s0\n  8720: u64 [sp + 0xc8] = s1\n  8724: s0 = sp + 0xe0\n  8728: sp = sp & 0xffffffffffffffe0\n  8731: a3 = u64 [a2]\n  8733: u64 [sp + 0x78] = a3\n  8736: a3 = u64 [a2 + 0x8]\n  8739: u64 [sp + 0x70] = a3\n  8742: a2 = u32 [a2 + 0x10]\n  8745: u64 [sp + 0x68] = a2\n  8748: a2 = u64 [a1]\n  8750: u64 [sp + 0x60] = a2\n  8753: a2 = u64 [a1 + 0x8]\n  8756: u64 [sp + 0x58] = a2\n  8759: a2 = u64 [a1 + 0x10]\n  8762: u64 [sp + 0x48] = a2\n  8765: s1 = u64 [a1 + 0x18]\n  8768: u64 [sp + 0x50] = a0\n  8771: a1 = 0x20\n  8774: a0 = 0\n  8776: ra = 0x66\n  8779: jump @0\n      : @153 [@dyn 63] (gas: 43)\n  8782: a0 = u64 [sp + 0x1e0]\n  8786: u64 [sp + 0xb0] = a0\n  8790: a0 = u64 [sp + 0x1e8]\n  8794: u64 [sp + 0xa8] = a0\n  8798: a0 = u64 [sp + 0x1f0]\n  8802: u64 [sp + 0xa0] = a0\n  8806: a0 = u64 [sp + 0x1f8]\n  8810: u64 [sp + 0x98] = a0\n  8814: a0 = u64 [sp + 0x200]\n  8818: u64 [sp + 0x90] = a0\n  8822: a0 = u64 [sp + 0x208]\n  8826: u64 [sp + 0x88] = a0\n  8830: a0 = u64 [sp + 0x210]\n  8834: u64 [sp + 0x80] = a0\n  8838: a0 = u64 [sp + 0x218]\n  8842: u64 [sp + 0x78] = a0\n  8845: a0 = u64 [sp + 0x220]\n  8849: u64 [sp + 0x70] = a0\n  8852: a0 = u64 [sp + 0x228]\n  8856: u64 [sp + 0x68] = a0\n  8859: a0 = u64 [sp + 0x230]\n  8863: u64 [sp + 0x60] = a0\n  8866: a0 = u64 [sp + 0x238]\n  8870: u64 [sp + 0x58] = a0\n  8873: a0 = u64 [sp + 0x240]\n  8877: u64 [sp + 0x50] = a0\n  8880: a0 = u64 [sp + 0x248]\n  8884: u64 [sp + 0x48] = a0\n  8887: a0 = u64 [sp + 0x250]\n  8891: u64 [sp + 0x40] = a0\n  8894: a0 = u64 [sp + 0x258]\n  8898: u64 [sp + 0x38] = a0\n  8901: a0 = u64 [sp + 0x260]\n  8905: u64 [sp + 0x30] = a0\n  8908: a0 = u64 [sp + 0x268]\n  8912: u64 [sp + 0x28] = a0\n  8915: a0 = u64 [sp + 0x270]\n  8919: u64 [sp + 0x20] = a0\n  8922: a0 = u64 [sp + 0x278]\n  8926: u64 [sp + 0x18] = a0\n  8929: a0 = 0x40\n  8932: a1 = 0x20\n  8935: ra = 128, jump @0\n      : @154 [@dyn 64] (gas: 148)\n  8941: a1 = u8 [a0 + 0x1]\n  8944: a2 = u8 [a0]\n  8946: a3 = u8 [a0 + 0x2]\n  8949: a4 = u8 [a0 + 0x3]\n  8952: a1 = a1 << 0x8\n  8955: a1 = a1 | a2\n  8958: a3 = a3 << 0x10\n  8961: a4 = a4 << 0x18\n  8964: a3 = a3 | a4\n  8967: a1 = a1 | a3\n  8970: a2 = u8 [a0 + 0x5]\n  8973: a3 = u8 [a0 + 0x4]\n  8976: a4 = u8 [a0 + 0x6]\n  8979: a5 = u8 [a0 + 0x7]\n  8982: a2 = a2 << 0x8\n  8985: a2 = a2 | a3\n  8988: a4 = a4 << 0x10\n  8991: a5 = a5 << 0x18\n  8994: a4 = a4 | a5\n  8997: a2 = a2 | a4\n  9000: a2 = a2 << 0x20\n  9003: t0 = a2 | a1\n  9006: a2 = u8 [a0 + 0x9]\n  9009: a3 = u8 [a0 + 0x8]\n  9012: a4 = u8 [a0 + 0xa]\n  9015: a5 = u8 [a0 + 0xb]\n  9018: a2 = a2 << 0x8\n  9021: a2 = a2 | a3\n  9024: a4 = a4 << 0x10\n  9027: a5 = a5 << 0x18\n  9030: a4 = a4 | a5\n  9033: a2 = a2 | a4\n  9036: a3 = u8 [a0 + 0xd]\n  9039: a4 = u8 [a0 + 0xc]\n  9042: a5 = u8 [a0 + 0xe]\n  9045: s1 = u8 [a0 + 0xf]\n  9048: a3 = a3 << 0x8\n  9051: a3 = a3 | a4\n  9054: a5 = a5 << 0x10\n  9057: s1 = s1 << 0x18\n  9060: a5 = a5 | s1\n  9063: a3 = a3 | a5\n  9066: a3 = a3 << 0x20\n  9069: a2 = a2 | a3\n  9072: a3 = u8 [a0 + 0x11]\n  9075: a4 = u8 [a0 + 0x10]\n  9078: a5 = u8 [a0 + 0x12]\n  9081: s1 = u8 [a0 + 0x13]\n  9084: a3 = a3 << 0x8\n  9087: a3 = a3 | a4\n  9090: a5 = a5 << 0x10\n  9093: s1 = s1 << 0x18\n  9096: a5 = a5 | s1\n  9099: a3 = a3 | a5\n  9102: a4 = u8 [a0 + 0x15]\n  9105: a5 = u8 [a0 + 0x14]\n  9108: s1 = u8 [a0 + 0x16]\n  9111: a1 = u8 [a0 + 0x17]\n  9114: a4 = a4 << 0x8\n  9117: a4 = a4 | a5\n  9120: s1 = s1 << 0x10\n  9123: a1 = a1 << 0x18\n  9126: a1 = a1 | s1\n  9129: a1 = a1 | a4\n  9132: a1 = a1 << 0x20\n  9135: a3 = a3 | a1\n  9138: a1 = u8 [a0 + 0x19]\n  9141: a4 = u8 [a0 + 0x18]\n  9144: a5 = u8 [a0 + 0x1a]\n  9147: s1 = u8 [a0 + 0x1b]\n  9150: a1 = a1 << 0x8\n  9153: a1 = a1 | a4\n  9156: a5 = a5 << 0x10\n  9159: s1 = s1 << 0x18\n  9162: a5 = a5 | s1\n  9165: a1 = a1 | a5\n  9168: a4 = u8 [a0 + 0x1d]\n  9171: a5 = u8 [a0 + 0x1c]\n  9174: s1 = u8 [a0 + 0x1e]\n  9177: a0 = u8 [a0 + 0x1f]\n  9180: a4 = a4 << 0x8\n  9183: a4 = a4 | a5\n  9186: s1 = s1 << 0x10\n  9189: a0 = a0 << 0x18\n  9192: a0 = a0 | s1\n  9195: a0 = a0 | a4\n  9198: a0 = a0 << 0x20\n  9201: a0 = a0 | a1\n  9204: s1 = reverse a0\n  9206: a3 = reverse a3\n  9208: u64 [sp + 0x8] = a3\n  9211: a1 = reverse a2\n  9213: u64 [sp + 0x10] = a1\n  9216: a2 = reverse t0\n  9218: u64 [sp + 0xb8] = a2\n  9222: a0 = sp + 0xc0\n  9226: u64 [sp] = a0\n  9228: a0 = u64 [sp + 0x18]\n  9231: u64 [sp + 0xd8] = a0\n  9235: a0 = u64 [sp + 0x20]\n  9238: u64 [sp + 0xd0] = a0\n  9242: a0 = u64 [sp + 0x28]\n  9245: u64 [sp + 0xc8] = a0\n  9249: a0 = u64 [sp + 0x30]\n  9252: u64 [sp + 0xc0] = a0\n  9256: a0 = u64 [sp + 0x38]\n  9259: u64 [sp + 0xf8] = a0\n  9263: a0 = u64 [sp + 0x40]\n  9266: u64 [sp + 0xf0] = a0\n  9270: a0 = u64 [sp + 0x48]\n  9273: u64 [sp + 0xe8] = a0\n  9277: a0 = u64 [sp + 0x50]\n  9280: u64 [sp + 0xe0] = a0\n  9284: a0 = u64 [sp + 0x58]\n  9287: u64 [sp + 0x118] = a0\n  9291: a0 = u64 [sp + 0x60]\n  9294: u64 [sp + 0x110] = a0\n  9298: a0 = u64 [sp + 0x68]\n  9301: u64 [sp + 0x108] = a0\n  9305: a0 = u64 [sp + 0x70]\n  9308: u64 [sp + 0x100] = a0\n  9312: a0 = u64 [sp + 0x78]\n  9315: u64 [sp + 0x138] = a0\n  9319: a0 = u64 [sp + 0x80]\n  9323: u64 [sp + 0x130] = a0\n  9327: a0 = u64 [sp + 0x88]\n  9331: u64 [sp + 0x128] = a0\n  9335: a0 = u64 [sp + 0x90]\n  9339: u64 [sp + 0x120] = a0\n  9343: a0 = u64 [sp + 0x98]\n  9347: u64 [sp + 0x158] = a0\n  9351: a0 = u64 [sp + 0xa0]\n  9355: u64 [sp + 0x150] = a0\n  9359: a0 = u64 [sp + 0xa8]\n  9363: u64 [sp + 0x148] = a0\n  9367: a0 = u64 [sp + 0xb0]\n  9371: u64 [sp + 0x140] = a0\n  9375: u64 [sp + 0x178] = a2\n  9379: u64 [sp + 0x170] = a1\n  9383: u64 [sp + 0x168] = a3\n  9387: a0 = sp + 0x180\n  9391: a1 = sp + 0x160\n  9395: a2 = sp + 0x140\n  9399: a3 = sp + 0x120\n  9403: a4 = sp + 0x100\n  9407: a5 = sp + 0xe0\n  9411: u64 [sp + 0x160] = s1\n  9415: ra = 130, jump @138\n      : @155 [@dyn 65] (gas: 12)\n  9421: a4 = u64 [sp + 0x8]\n  9424: a2 = s1\n  9426: a0 = u64 [sp + 0xb8]\n  9430: a0 = a0 | a4\n  9433: s1 = u64 [sp + 0x10]\n  9436: a1 = a2 | s1\n  9439: a1 = a1 | a0\n  9442: a1 = a1 >> 0x20\n  9445: a0 = a0 | s1\n  9448: a0 = a0 << 0x20\n  9451: a0 = a0 | a1\n  9454: jump @157 if a0 != 0\n      : @156 (gas: 29)\n  9457: a0 = u64 [sp + 0x188]\n  9461: a1 = u64 [sp + 0x198]\n  9465: u64 [sp + 0xb0] = a1\n  9469: t1 = u64 [sp + 0x180]\n  9473: a1 = u64 [sp + 0x190]\n  9477: t2 = a0 ^ a4\n  9480: a5 = a0 <u a4\n  9483: ra = t1 <u a2\n  9486: a5 = ra if t2 == 0\n  9489: a3 = a1 - s1\n  9492: t2 = a3 - a5\n  9495: t0 = a3 <u a5\n  9498: a3 = a1 <u s1\n  9501: a1 = u64 [sp + 0xb8]\n  9505: a5 = u64 [sp + 0xb0]\n  9509: a5 = a5 - a1\n  9512: a5 = a5 - a3\n  9515: a5 = a5 - t0\n  9518: a0 = a0 - a4\n  9521: a0 = a0 - ra\n  9524: s1 = t1 - a2\n  9527: a0 = a0 | a5\n  9530: a1 = s1 | t2\n  9533: a1 = a1 | a0\n  9536: a0 = a0 | t2\n  9539: a1 = a1 >> 0x20\n  9542: a0 = a0 << 0x20\n  9545: a0 = a0 | a1\n  9548: jump @160 if a0 == 0\n      : @157 (gas: 1)\n  9551: trap\n      : @158 (gas: 3)\n  9552: a0 = 0\n  9554: a1 = 0\n  9556: ra = 132, jump @0\n      : @159 [@dyn 66] (gas: 5)\n  9562: i32 a1 = a0 + 0\n  9564: a0 = 0x1\n  9567: a2 = 0\n  9569: ecalli 11 // 'seal_return'\n  9571: fallthrough\n      : @160 (gas: 4)\n  9572: i32 a0 = a2 + 0\n  9574: i32 s1 = s1 + 0\n  9576: a1 = s1\n  9578: ra = 134, jump @0\n      : @161 [@dyn 67] (gas: 6)\n  9584: i32 a1 = a0 + 0\n  9586: a0 = 0\n  9588: a2 = s1\n  9590: ra = 0x88\n  9594: ecalli 11 // 'seal_return'\n  9596: fallthrough\n      : @162 [@dyn 68] (gas: 9)\n  9597: a1 = u64 [a0 + 0x18]\n  9600: a2 = u64 [a0 + 0x10]\n  9603: a3 = u64 [a0]\n  9605: a0 = u64 [a0 + 0x8]\n  9608: a1 = a1 | a2\n  9611: a2 = a3 <u 0x2\n  9614: a2 = 0 if a0 != 0\n  9616: a2 = 0 if a1 != 0\n  9618: jump @164 if a2 == 0\n      : @163 (gas: 1)\n  9621: ret\n      : @164 (gas: 5)\n  9623: sp = sp + 0xfffffffffffffff8\n  9626: u64 [sp] = ra\n  9628: a0 = 0\n  9630: a1 = 0\n  9632: ra = 138, jump @0\n      : @165 [@dyn 69] (gas: 6)\n  9638: i32 a1 = a0 + 0\n  9640: a0 = 0x1\n  9643: a2 = 0\n  9645: ra = 0x8c\n  9649: ecalli 11 // 'seal_return'\n  9651: fallthrough\n      : @166 [@dyn 70] (gas: 18)\n  9652: sp = sp + 0xffffffffffffffc0\n  9655: u64 [sp + 0x38] = ra\n  9658: u64 [sp + 0x30] = s0\n  9661: u64 [sp + 0x28] = s1\n  9664: s0 = sp + 0x40\n  9667: sp = sp & 0xffffffffffffffe0\n  9670: a2 = u64 [a1 + 0x10]\n  9673: a3 = u64 [a1 + 0x18]\n  9676: a4 = u64 [a1 + 0x8]\n  9679: a1 = u64 [a1]\n  9681: a3 = a3 | a4\n  9684: a4 = a1 | a2\n  9687: a4 = a4 | a3\n  9690: a4 = a4 >> 0x20\n  9693: a2 = a2 | a3\n  9696: a2 = a2 << 0x20\n  9699: a2 = a2 | a4\n  9702: jump @170 if a2 != 0\n      : @167 (gas: 5)\n  9705: s1 = a0\n  9707: i32 a1 = a1 + 0\n  9709: i32 a0 = sp + 0\n  9711: ecalli 2 // 'call_data_load'\n  9713: fallthrough\n      : @168 (gas: 9)\n  9714: a0 = u64 [sp + 0x18]\n  9717: a1 = u64 [sp + 0x10]\n  9720: a2 = u64 [sp]\n  9722: a3 = u64 [sp + 0x8]\n  9725: a4 = a1 | a0\n  9728: a5 = a2 <u 0x2\n  9731: a5 = 0 if a3 != 0\n  9733: a5 = 0 if a4 != 0\n  9735: jump @171 if a5 == 0\n      : @169 (gas: 10)\n  9738: u64 [s1] = a2\n  9740: u64 [s1 + 0x8] = a3\n  9743: u64 [s1 + 0x10] = a1\n  9746: u64 [s1 + 0x18] = a0\n  9749: sp = s0 + 0xffffffffffffffc0\n  9752: ra = u64 [sp + 0x38]\n  9755: s0 = u64 [sp + 0x30]\n  9758: s1 = u64 [sp + 0x28]\n  9761: sp = sp + 0x40\n  9764: ret\n      : @170 (gas: 1)\n  9766: trap\n      : @171 (gas: 3)\n  9767: a0 = 0\n  9769: a1 = 0\n  9771: ra = 142, jump @0\n      : @172 [@dyn 71] (gas: 6)\n  9777: i32 a1 = a0 + 0\n  9779: a0 = 0x1\n  9782: a2 = 0\n  9784: ra = 0x90\n  9788: ecalli 11 // 'seal_return'\n  9790: fallthrough\n      : @173 [@dyn 72] (gas: 52)\n  9791: sp = sp + 0xffffffffffffff60\n  9795: u64 [sp + 0x98] = ra\n  9799: u64 [sp + 0x90] = s0\n  9803: u64 [sp + 0x88] = s1\n  9807: s0 = sp + 0xa0\n  9811: sp = sp & 0xffffffffffffffe0\n  9814: t0 = u64 [a1 + 0x10]\n  9817: ra = u64 [a1 + 0x8]\n  9820: t2 = u64 [a2 + 0x8]\n  9823: a3 = u64 [a1]\n  9825: a4 = u64 [a2]\n  9827: u64 [sp + 0x40] = a4\n  9830: a5 = u64 [a2 + 0x10]\n  9833: u64 [sp + 0x50] = a5\n  9836: t1 = t2 ^ ra\n  9839: s1 = t2 <u ra\n  9842: a5 = a4 <u a3\n  9845: u64 [sp + 0x38] = a5\n  9848: a4 = a3\n  9850: s1 = a5 if t1 == 0\n  9853: t1 = u64 [a1 + 0x18]\n  9856: a1 = u64 [a2 + 0x18]\n  9859: u64 [sp + 0x30] = a1\n  9862: a3 = u64 [sp + 0x50]\n  9865: a2 = a3 - t0\n  9868: a1 = a2 - s1\n  9871: u64 [sp + 0x48] = a1\n  9874: a1 = a2 <u s1\n  9877: u64 [sp + 0x58] = t0\n  9880: a5 = a3 <u t0\n  9883: t0 = a4\n  9885: u64 [sp + 0x50] = t1\n  9888: a2 = u64 [sp + 0x30]\n  9891: a2 = a2 - t1\n  9894: a2 = a2 - a5\n  9897: a2 = a2 - a1\n  9900: a1 = t2 - ra\n  9903: a3 = u64 [sp + 0x38]\n  9906: a1 = a1 - a3\n  9909: a3 = u64 [sp + 0x40]\n  9912: a3 = a3 - a4\n  9915: a4 = a1 >u 0\n  9917: a3 = a3 <u 0x60\n  9920: a3 = a3 ^ 0x1\n  9923: a3 = a4 if a1 != 0\n  9926: a1 = a2 >s 0\n  9928: a5 = u64 [sp + 0x48]\n  9931: a4 = a5 >u 0\n  9933: a4 = a1 if a2 != 0\n  9936: a1 = a5 | a2\n  9939: a3 = a4 if a1 != 0\n  9942: jump @184 if a3 == 0\n      : @174 (gas: 12)\n  9946: s1 = a0\n  9948: a2 = u64 [sp + 0x58]\n  9951: a0 = t0 | a2\n  9954: a1 = u64 [sp + 0x50]\n  9957: a1 = ra | a1\n  9960: a0 = a0 | a1\n  9963: a0 = a0 >> 0x20\n  9966: a1 = a1 | a2\n  9969: a1 = a1 << 0x20\n  9972: a0 = a0 | a1\n  9975: u64 [sp + 0x48] = ra\n  9978: jump @183 if a0 != 0\n      : @175 (gas: 6)\n  9982: i32 a1 = t0 + 0\n  9984: i32 a0 = sp + 0x60\n  9987: u64 [sp + 0x38] = a1\n  9990: u64 [sp + 0x40] = t0\n  9993: ecalli 2 // 'call_data_load'\n  9995: fallthrough\n      : @176 (gas: 13)\n  9996: a0 = u64 [sp + 0x58]\n  9999: a1 = u64 [sp + 0x50]\n 10002: a1 = a1 | a0\n 10005: a0 = 0x100000000\n 10015: u64 [sp + 0x50] = a0\n 10018: a0 = 0xffffffe0\n 10028: a2 = u64 [sp + 0x40]\n 10031: a0 = a2 <u a0\n 10034: a2 = u64 [sp + 0x48]\n 10037: a0 = 0 if a2 != 0\n 10039: u64 [sp + 0x58] = a1\n 10042: a0 = 0 if a1 != 0\n 10044: jump @183 if a0 == 0\n      : @177 (gas: 13)\n 10048: a0 = u64 [sp + 0x78]\n 10051: u64 [sp + 0x30] = a0\n 10054: a0 = u64 [sp + 0x70]\n 10057: u64 [sp + 0x28] = a0\n 10060: a0 = u64 [sp + 0x68]\n 10063: u64 [sp + 0x18] = a0\n 10066: a0 = u64 [sp + 0x60]\n 10069: u64 [sp + 0x20] = a0\n 10072: a0 = u64 [sp + 0x38]\n 10075: i32 a1 = a0 + 0x20\n 10078: i32 a0 = sp + 0x60\n 10081: ecalli 2 // 'call_data_load'\n 10083: fallthrough\n      : @178 (gas: 10)\n 10084: a3 = u64 [sp + 0x70]\n 10087: a2 = u64 [sp + 0x78]\n 10090: a0 = u64 [sp + 0x50]\n 10093: a0 = a0 ^ a3\n 10096: a0 = a0 | a2\n 10099: a1 = a3 >> 0x20\n 10102: a1 = a1 <u 0x1\n 10105: a1 = 0 if a2 != 0\n 10107: a1 = 0 if a0 == 0\n 10109: jump @185 if a1 == 0\n      : @179 (gas: 10)\n 10113: u64 [sp + 0x10] = a3\n 10116: u64 [sp + 0x50] = a2\n 10119: a0 = 0xffffffc0\n 10129: a1 = u64 [sp + 0x40]\n 10132: a0 = a1 <u a0\n 10135: a1 = u64 [sp + 0x48]\n 10138: a0 = 0 if a1 != 0\n 10140: a1 = u64 [sp + 0x58]\n 10143: a0 = 0 if a1 != 0\n 10145: jump @183 if a0 == 0\n      : @180 (gas: 9)\n 10149: a0 = u64 [sp + 0x68]\n 10152: u64 [sp + 0x48] = a0\n 10155: a0 = u64 [sp + 0x60]\n 10158: u64 [sp + 0x58] = a0\n 10161: a0 = u64 [sp + 0x38]\n 10164: i32 a1 = a0 + 0x40\n 10167: i32 a0 = sp + 0x60\n 10170: ecalli 2 // 'call_data_load'\n 10172: fallthrough\n      : @181 (gas: 9)\n 10173: a0 = u64 [sp + 0x78]\n 10176: a1 = u64 [sp + 0x70]\n 10179: a2 = u64 [sp + 0x60]\n 10182: a3 = u64 [sp + 0x68]\n 10185: a4 = a1 | a0\n 10188: a5 = a2 <u 0x2\n 10191: a5 = 0 if a3 != 0\n 10193: a5 = 0 if a4 != 0\n 10195: jump @184 if a5 == 0\n      : @182 (gas: 26)\n 10198: u64 [s1 + 0x48] = a3\n 10201: u64 [s1 + 0x40] = a2\n 10204: a2 = u64 [sp + 0x48]\n 10207: u64 [s1 + 0x28] = a2\n 10210: a2 = u64 [sp + 0x58]\n 10213: u64 [s1 + 0x20] = a2\n 10216: a2 = u64 [sp + 0x18]\n 10219: u64 [s1 + 0x8] = a2\n 10222: a2 = u64 [sp + 0x20]\n 10225: u64 [s1] = a2\n 10227: u64 [s1 + 0x50] = a1\n 10230: a1 = u64 [sp + 0x10]\n 10233: u64 [s1 + 0x30] = a1\n 10236: a1 = u64 [sp + 0x28]\n 10239: u64 [s1 + 0x10] = a1\n 10242: u64 [s1 + 0x58] = a0\n 10245: a0 = u64 [sp + 0x50]\n 10248: u64 [s1 + 0x38] = a0\n 10251: a0 = u64 [sp + 0x30]\n 10254: u64 [s1 + 0x18] = a0\n 10257: sp = s0 + 0xffffffffffffff60\n 10261: ra = u64 [sp + 0x98]\n 10265: s0 = u64 [sp + 0x90]\n 10269: s1 = u64 [sp + 0x88]\n 10273: sp = sp + 0xa0\n 10277: ret\n      : @183 (gas: 1)\n 10279: trap\n      : @184 (gas: 4)\n 10280: a0 = 0\n 10282: a1 = 0\n 10284: ra = 0x92\n 10288: jump @0\n      : @185 (gas: 2)\n 10291: a0 = 0\n 10293: ra = 146, jump @0\n      : @186 [@dyn 73] (gas: 6)\n 10299: i32 a1 = a0 + 0\n 10301: a0 = 0x1\n 10304: a2 = 0\n 10306: ra = 0x94\n 10310: ecalli 11 // 'seal_return'\n 10312: fallthrough\n      : @187 [@dyn 74] (gas: 9)\n 10313: a2 = u64 [a1 + 0x18]\n 10316: a3 = u64 [a1 + 0x10]\n 10319: a4 = u64 [a1 + 0x8]\n 10322: a1 = u64 [a1]\n 10324: u64 [a0 + 0x18] = a2\n 10327: u64 [a0 + 0x10] = a3\n 10330: u64 [a0 + 0x8] = a4\n 10333: u64 [a0] = a1\n 10335: ret\n      : @188 (gas: 8)\n 10337: a0 = u64 [sp + 0x130]\n 10341: a1 = u64 [sp + 0x138]\n 10345: a2 = u64 [sp + 0x128]\n 10349: a3 = u64 [sp + 0x120]\n 10353: a1 = a1 | a2\n 10356: a0 = a0 | a3\n 10359: a0 = a0 | a1\n 10362: jump @194 if a0 != 0\n      : @189 (gas: 13)\n 10366: a0 = u32 [0x200a8]\n 10371: u64 [sp + 152] = 0\n 10375: u64 [sp + 144] = 0\n 10379: u64 [sp + 136] = 0\n 10383: u64 [sp + 0x80] = a0\n 10387: u64 [sp + 184] = 0\n 10391: u64 [sp + 176] = 0\n 10395: u64 [sp + 160] = 0x4\n 10400: a0 = sp + 0xc0\n 10404: a1 = sp + 0xa0\n 10408: a2 = sp + 0x80\n 10412: u64 [sp + 168] = 0\n 10416: ra = 150, jump @173\n      : @190 [@dyn 75] (gas: 30)\n 10422: a0 = u64 [sp + 0xc0]\n 10426: u64 [sp + 0x18] = a0\n 10429: t1 = u64 [sp + 0xc8]\n 10433: t2 = u64 [sp + 0xd0]\n 10437: ra = u64 [sp + 0xd8]\n 10441: t0 = u64 [sp + 0xe0]\n 10445: a5 = u64 [sp + 0xe8]\n 10449: a4 = u64 [sp + 0xf0]\n 10453: a3 = u64 [sp + 0xf8]\n 10457: a1 = u64 [sp + 0x100]\n 10461: s1 = u64 [sp + 0x108]\n 10465: a2 = u64 [sp + 0x110]\n 10469: a0 = u64 [sp + 0x118]\n 10473: u64 [sp + 0x38] = a0\n 10476: u64 [sp + 0x30] = a2\n 10479: u64 [sp + 0x28] = s1\n 10482: u64 [sp + 0x20] = a1\n 10485: u64 [sp + 0x58] = a3\n 10488: u64 [sp + 0x50] = a4\n 10491: u64 [sp + 0x48] = a5\n 10494: u64 [sp + 0x40] = t0\n 10497: u64 [sp + 0x78] = ra\n 10500: u64 [sp + 0x70] = t2\n 10503: u64 [sp + 0x68] = t1\n 10506: a0 = sp + 0x60\n 10509: a1 = sp + 0x40\n 10512: a2 = sp + 0x20\n 10515: a3 = u64 [sp + 0x18]\n 10518: u64 [sp + 0x60] = a3\n 10521: ra = 152, jump @440\n      : @191 [@dyn 76] (gas: 3)\n 10527: a0 = 0x40\n 10530: a1 = 0x20\n 10533: ra = 154, jump @0\n      : @192 [@dyn 77] (gas: 100)\n 10539: a1 = u8 [a0 + 0x11]\n 10542: a2 = u8 [a0 + 0x10]\n 10545: a3 = u8 [a0 + 0x12]\n 10548: a4 = u8 [a0 + 0x13]\n 10551: a1 = a1 << 0x8\n 10554: a1 = a1 | a2\n 10557: a3 = a3 << 0x10\n 10560: a4 = a4 << 0x18\n 10563: a3 = a3 | a4\n 10566: a1 = a1 | a3\n 10569: a2 = u8 [a0 + 0x15]\n 10572: a3 = u8 [a0 + 0x14]\n 10575: a4 = u8 [a0 + 0x16]\n 10578: a5 = u8 [a0 + 0x17]\n 10581: a2 = a2 << 0x8\n 10584: a2 = a2 | a3\n 10587: a4 = a4 << 0x10\n 10590: a5 = a5 << 0x18\n 10593: a4 = a4 | a5\n 10596: a2 = a2 | a4\n 10599: a2 = a2 << 0x20\n 10602: t0 = a2 | a1\n 10605: a2 = u8 [a0 + 0x1]\n 10608: a3 = u8 [a0]\n 10610: a4 = u8 [a0 + 0x2]\n 10613: a5 = u8 [a0 + 0x3]\n 10616: a2 = a2 << 0x8\n 10619: a2 = a2 | a3\n 10622: a4 = a4 << 0x10\n 10625: a5 = a5 << 0x18\n 10628: a4 = a4 | a5\n 10631: a2 = a2 | a4\n 10634: a3 = u8 [a0 + 0x5]\n 10637: a4 = u8 [a0 + 0x4]\n 10640: a5 = u8 [a0 + 0x6]\n 10643: s1 = u8 [a0 + 0x7]\n 10646: a3 = a3 << 0x8\n 10649: a3 = a3 | a4\n 10652: a5 = a5 << 0x10\n 10655: s1 = s1 << 0x18\n 10658: a5 = a5 | s1\n 10661: a3 = a3 | a5\n 10664: a3 = a3 << 0x20\n 10667: a2 = a2 | a3\n 10670: a3 = u8 [a0 + 0x19]\n 10673: a4 = u8 [a0 + 0x18]\n 10676: a5 = u8 [a0 + 0x1a]\n 10679: s1 = u8 [a0 + 0x1b]\n 10682: a3 = a3 << 0x8\n 10685: a3 = a3 | a4\n 10688: a5 = a5 << 0x10\n 10691: s1 = s1 << 0x18\n 10694: a5 = a5 | s1\n 10697: a3 = a3 | a5\n 10700: a4 = u8 [a0 + 0x1d]\n 10703: a5 = u8 [a0 + 0x1c]\n 10706: s1 = u8 [a0 + 0x1e]\n 10709: a1 = u8 [a0 + 0x1f]\n 10712: a4 = a4 << 0x8\n 10715: a4 = a4 | a5\n 10718: s1 = s1 << 0x10\n 10721: a1 = a1 << 0x18\n 10724: a1 = a1 | s1\n 10727: a1 = a1 | a4\n 10730: a1 = a1 << 0x20\n 10733: a3 = a3 | a1\n 10736: a1 = u8 [a0 + 0x9]\n 10739: a4 = u8 [a0 + 0x8]\n 10742: a5 = u8 [a0 + 0xa]\n 10745: s1 = u8 [a0 + 0xb]\n 10748: a1 = a1 << 0x8\n 10751: a1 = a1 | a4\n 10754: a5 = a5 << 0x10\n 10757: s1 = s1 << 0x18\n 10760: a5 = a5 | s1\n 10763: a1 = a1 | a5\n 10766: a4 = u8 [a0 + 0xd]\n 10769: a5 = u8 [a0 + 0xc]\n 10772: s1 = u8 [a0 + 0xe]\n 10775: a0 = u8 [a0 + 0xf]\n 10778: a4 = a4 << 0x8\n 10781: a4 = a4 | a5\n 10784: s1 = s1 << 0x10\n 10787: a0 = a0 << 0x18\n 10790: a0 = a0 | s1\n 10793: a0 = a0 | a4\n 10796: a0 = a0 << 0x20\n 10799: a0 = a0 | a1\n 10802: a1 = reverse a0\n 10804: a0 = reverse a3\n 10806: a2 = reverse a2\n 10808: a3 = reverse t0\n 10810: a2 = a2 | a3\n 10813: a3 = a0 | a1\n 10816: a3 = a3 | a2\n 10819: a3 = a3 >> 0x20\n 10822: a1 = a1 | a2\n 10825: a1 = a1 << 0x20\n 10828: a1 = a1 | a3\n 10831: jump @196 if a1 == 0\n      : @193 (gas: 1)\n 10834: trap\n      : @194 (gas: 3)\n 10835: a0 = 0\n 10837: a1 = 0\n 10839: ra = 156, jump @0\n      : @195 [@dyn 78] (gas: 7)\n 10845: i32 a1 = a0 + 0\n 10847: a0 = 0x1\n 10850: a2 = 0\n 10852: ecalli 11 // 'seal_return'\n 10854: i32 a0 = a0 + 0\n 10856: ra = 0x9e\n 10860: jump @0\n      : @196 (gas: 2)\n 10863: i32 a0 = a0 + 0\n 10865: ra = 158, jump @0\n      : @197 [@dyn 79] (gas: 6)\n 10871: i32 a1 = a0 + 0\n 10873: a0 = 0\n 10875: a2 = 0\n 10877: ra = 0xa0\n 10881: ecalli 11 // 'seal_return'\n 10883: fallthrough\n      : @198 [@dyn 80] (gas: 52)\n 10884: sp = sp + 0xffffffffffffff80\n 10887: u64 [sp + 0x78] = ra\n 10890: u64 [sp + 0x70] = s0\n 10893: u64 [sp + 0x68] = s1\n 10896: s0 = sp + 0x80\n 10900: sp = sp & 0xffffffffffffffe0\n 10903: t2 = u64 [a1 + 0x10]\n 10906: a5 = u64 [a1 + 0x8]\n 10909: t0 = u64 [a2 + 0x8]\n 10912: s1 = u64 [a1]\n 10914: u64 [sp + 0x10] = s1\n 10917: a4 = u64 [a2]\n 10919: u64 [sp + 0x18] = a4\n 10922: ra = u64 [a2 + 0x10]\n 10925: a3 = t0 ^ a5\n 10928: u64 [sp + 0x38] = a3\n 10931: a3 = t0 <u a5\n 10934: a4 = a4 <u s1\n 10937: t1 = u64 [sp + 0x38]\n 10940: a3 = a4 if t1 == 0\n 10943: t1 = a4\n 10945: a1 = u64 [a1 + 0x18]\n 10948: u64 [sp + 0x38] = a1\n 10951: a1 = u64 [a2 + 0x18]\n 10954: u64 [sp + 0x20] = a1\n 10957: a1 = ra - t2\n 10960: a2 = a1 - a3\n 10963: u64 [sp + 0x28] = a2\n 10966: a2 = a1 <u a3\n 10969: u64 [sp + 0x30] = t2\n 10972: a3 = ra <u t2\n 10975: a1 = u64 [sp + 0x38]\n 10978: a4 = u64 [sp + 0x20]\n 10981: a1 = a4 - a1\n 10984: a1 = a1 - a3\n 10987: t2 = a1 - a2\n 10990: s1 = t0 - a5\n 10993: a2 = s1 - t1\n 10996: t0 = u64 [sp + 0x10]\n 10999: a1 = u64 [sp + 0x18]\n 11002: a3 = a1 - t0\n 11005: a4 = a2 >u 0\n 11007: a3 = a3 <u 0x20\n 11010: a3 = a3 ^ 0x1\n 11013: a3 = a4 if a2 != 0\n 11016: a2 = t2 >s 0\n 11018: a1 = u64 [sp + 0x28]\n 11021: a4 = a1 >u 0\n 11023: a4 = a2 if t2 != 0\n 11026: a1 = a1 | t2\n 11029: a3 = a4 if a1 != 0\n 11032: jump @202 if a3 == 0\n      : @199 (gas: 11)\n 11035: s1 = a0\n 11037: a2 = u64 [sp + 0x30]\n 11040: a0 = t0 | a2\n 11043: a1 = u64 [sp + 0x38]\n 11046: a1 = a1 | a5\n 11049: a0 = a0 | a1\n 11052: a0 = a0 >> 0x20\n 11055: a1 = a1 | a2\n 11058: a1 = a1 << 0x20\n 11061: a0 = a0 | a1\n 11064: jump @201 if a0 != 0\n      : @200 (gas: 17)\n 11067: i32 a1 = t0 + 0\n 11069: i32 a0 = sp + 0x40\n 11072: ecalli 2 // 'call_data_load'\n 11074: a0 = u64 [sp + 0x58]\n 11077: a1 = u64 [sp + 0x50]\n 11080: a2 = u64 [sp + 0x48]\n 11083: a3 = u64 [sp + 0x40]\n 11086: u64 [s1 + 0x18] = a0\n 11089: u64 [s1 + 0x10] = a1\n 11092: u64 [s1 + 0x8] = a2\n 11095: u64 [s1] = a3\n 11097: sp = s0 + 0xffffffffffffff80\n 11100: ra = u64 [sp + 0x78]\n 11103: s0 = u64 [sp + 0x70]\n 11106: s1 = u64 [sp + 0x68]\n 11109: sp = sp + 0x80\n 11113: ret\n      : @201 (gas: 1)\n 11115: trap\n      : @202 (gas: 3)\n 11116: a0 = 0\n 11118: a1 = 0\n 11120: ra = 162, jump @0\n      : @203 [@dyn 81] (gas: 6)\n 11126: i32 a1 = a0 + 0\n 11128: a0 = 0x1\n 11131: a2 = 0\n 11133: ra = 0xa4\n 11137: ecalli 11 // 'seal_return'\n 11139: fallthrough\n      : @204 [@dyn 82] (gas: 12)\n 11140: sp = sp + 0xffffffffffffff80\n 11143: u64 [sp + 0x78] = ra\n 11146: u64 [sp + 0x70] = s0\n 11149: s0 = sp + 0x80\n 11153: sp = sp & 0xffffffffffffffe0\n 11156: u64 [sp + 56] = 0\n 11159: u64 [sp + 48] = 0\n 11162: u64 [sp + 40] = 0\n 11165: u64 [sp + 32] = 0\n 11168: i32 a0 = sp + 0x20\n 11171: ecalli 14 // 'value_transferred'\n 11173: fallthrough\n      : @205 (gas: 8)\n 11174: a0 = u64 [sp + 0x30]\n 11177: a1 = u64 [sp + 0x38]\n 11180: a2 = u64 [sp + 0x28]\n 11183: a3 = u64 [sp + 0x20]\n 11186: a1 = a1 | a2\n 11189: a0 = a0 | a3\n 11192: a0 = a0 | a1\n 11195: jump @211 if a0 != 0\n      : @206 (gas: 2)\n 11199: a0 = i32 [0x200a8]\n 11204: jump @211 if a0 <=u 35\n      : @207 (gas: 30)\n 11209: i32 a0 = sp + 0x40\n 11212: a1 = 0x4\n 11215: ecalli 2 // 'call_data_load'\n 11217: a1 = u64 [sp + 0x40]\n 11220: a0 = u64 [sp + 0x48]\n 11223: a2 = u64 [sp + 0x50]\n 11226: a3 = u64 [sp + 0x58]\n 11229: u64 [sp + 0x18] = a3\n 11232: u64 [sp + 0x10] = a2\n 11235: u64 [sp + 0x8] = a0\n 11238: a0 = sp\n 11240: u64 [sp] = a1\n 11242: ra = 0xa6\n 11246: sp = sp + 0xfffffffffffffe20\n 11250: u64 [sp + 0x1d8] = ra\n 11254: u64 [sp + 0x1d0] = s0\n 11258: u64 [sp + 0x1c8] = s1\n 11262: s0 = sp + 0x1e0\n 11266: sp = sp & 0xffffffffffffffe0\n 11269: a1 = u64 [a0]\n 11271: u64 [sp + 0x58] = a1\n 11274: a1 = u64 [a0 + 0x8]\n 11277: u64 [sp + 0x50] = a1\n 11280: a1 = u64 [a0 + 0x10]\n 11283: u64 [sp + 0x48] = a1\n 11286: s1 = u64 [a0 + 0x18]\n 11289: a1 = 0x20\n 11292: a0 = 0\n 11294: ra = 0x1ee\n 11298: jump @0\n      : @208 [@dyn 83] (gas: 3)\n 11301: a0 = 0x40\n 11304: a1 = 0x20\n 11307: ra = 168, jump @0\n      : @209 [@dyn 84] (gas: 100)\n 11313: a1 = u8 [a0 + 0x11]\n 11316: a2 = u8 [a0 + 0x10]\n 11319: a3 = u8 [a0 + 0x12]\n 11322: a4 = u8 [a0 + 0x13]\n 11325: a1 = a1 << 0x8\n 11328: a1 = a1 | a2\n 11331: a3 = a3 << 0x10\n 11334: a4 = a4 << 0x18\n 11337: a3 = a3 | a4\n 11340: a1 = a1 | a3\n 11343: a2 = u8 [a0 + 0x15]\n 11346: a3 = u8 [a0 + 0x14]\n 11349: a4 = u8 [a0 + 0x16]\n 11352: a5 = u8 [a0 + 0x17]\n 11355: a2 = a2 << 0x8\n 11358: a2 = a2 | a3\n 11361: a4 = a4 << 0x10\n 11364: a5 = a5 << 0x18\n 11367: a4 = a4 | a5\n 11370: a2 = a2 | a4\n 11373: a2 = a2 << 0x20\n 11376: t0 = a2 | a1\n 11379: a2 = u8 [a0 + 0x1]\n 11382: a3 = u8 [a0]\n 11384: a4 = u8 [a0 + 0x2]\n 11387: a5 = u8 [a0 + 0x3]\n 11390: a2 = a2 << 0x8\n 11393: a2 = a2 | a3\n 11396: a4 = a4 << 0x10\n 11399: a5 = a5 << 0x18\n 11402: a4 = a4 | a5\n 11405: a2 = a2 | a4\n 11408: a3 = u8 [a0 + 0x5]\n 11411: a4 = u8 [a0 + 0x4]\n 11414: a5 = u8 [a0 + 0x6]\n 11417: a1 = u8 [a0 + 0x7]\n 11420: a3 = a3 << 0x8\n 11423: a3 = a3 | a4\n 11426: a5 = a5 << 0x10\n 11429: a1 = a1 << 0x18\n 11432: a1 = a1 | a5\n 11435: a1 = a1 | a3\n 11438: a1 = a1 << 0x20\n 11441: t1 = a1 | a2\n 11444: a1 = u8 [a0 + 0x19]\n 11447: a3 = u8 [a0 + 0x18]\n 11450: a4 = u8 [a0 + 0x1a]\n 11453: a5 = u8 [a0 + 0x1b]\n 11456: a1 = a1 << 0x8\n 11459: a1 = a1 | a3\n 11462: a4 = a4 << 0x10\n 11465: a5 = a5 << 0x18\n 11468: a4 = a4 | a5\n 11471: a1 = a1 | a4\n 11474: a3 = u8 [a0 + 0x1d]\n 11477: a4 = u8 [a0 + 0x1c]\n 11480: a5 = u8 [a0 + 0x1e]\n 11483: a2 = u8 [a0 + 0x1f]\n 11486: a3 = a3 << 0x8\n 11489: a3 = a3 | a4\n 11492: a5 = a5 << 0x10\n 11495: a2 = a2 << 0x18\n 11498: a2 = a2 | a5\n 11501: a2 = a2 | a3\n 11504: a2 = a2 << 0x20\n 11507: a3 = a2 | a1\n 11510: a1 = u8 [a0 + 0x9]\n 11513: a2 = u8 [a0 + 0x8]\n 11516: a4 = u8 [a0 + 0xa]\n 11519: a5 = u8 [a0 + 0xb]\n 11522: a1 = a1 << 0x8\n 11525: a1 = a1 | a2\n 11528: a4 = a4 << 0x10\n 11531: a5 = a5 << 0x18\n 11534: a4 = a4 | a5\n 11537: a1 = a1 | a4\n 11540: a2 = u8 [a0 + 0xd]\n 11543: a4 = u8 [a0 + 0xc]\n 11546: a5 = u8 [a0 + 0xe]\n 11549: a0 = u8 [a0 + 0xf]\n 11552: a2 = a2 << 0x8\n 11555: a2 = a2 | a4\n 11558: a5 = a5 << 0x10\n 11561: a0 = a0 << 0x18\n 11564: a0 = a0 | a5\n 11567: a0 = a0 | a2\n 11570: a0 = a0 << 0x20\n 11573: a0 = a0 | a1\n 11576: a1 = reverse a0\n 11578: a0 = reverse a3\n 11580: a2 = reverse t1\n 11582: a3 = reverse t0\n 11584: a2 = a2 | a3\n 11587: a3 = a0 | a1\n 11590: a3 = a3 | a2\n 11593: a3 = a3 >> 0x20\n 11596: a1 = a1 | a2\n 11599: a1 = a1 << 0x20\n 11602: a1 = a1 | a3\n 11605: jump @213 if a1 == 0\n      : @210 (gas: 1)\n 11608: trap\n      : @211 (gas: 3)\n 11609: a0 = 0\n 11611: a1 = 0\n 11613: ra = 170, jump @0\n      : @212 [@dyn 85] (gas: 7)\n 11619: i32 a1 = a0 + 0\n 11621: a0 = 0x1\n 11624: a2 = 0\n 11626: ecalli 11 // 'seal_return'\n 11628: i32 a0 = a0 + 0\n 11630: ra = 0xac\n 11634: jump @0\n      : @213 (gas: 2)\n 11637: i32 a0 = a0 + 0\n 11639: ra = 172, jump @0\n      : @214 [@dyn 86] (gas: 6)\n 11645: i32 a1 = a0 + 0\n 11647: a0 = 0\n 11649: a2 = 0\n 11651: ra = 0xae\n 11655: ecalli 11 // 'seal_return'\n 11657: fallthrough\n      : @215 [@dyn 87] (gas: 7)\n 11658: sp = sp + 0xffffffffffffffa0\n 11661: u64 [sp + 0x58] = ra\n 11664: u64 [sp + 0x50] = s0\n 11667: s0 = sp + 0x60\n 11670: sp = sp & 0xffffffffffffffe0\n 11673: a0 = i32 [0x200a8]\n 11678: jump @220 if a0 <=u 35\n      : @216 (gas: 32)\n 11683: i32 a0 = sp + 0x20\n 11686: a1 = 0x4\n 11689: ecalli 2 // 'call_data_load'\n 11691: a1 = u64 [sp + 0x20]\n 11694: a0 = u64 [sp + 0x28]\n 11697: a2 = u64 [sp + 0x30]\n 11700: a3 = u64 [sp + 0x38]\n 11703: u64 [sp + 0x18] = a3\n 11706: u64 [sp + 0x10] = a2\n 11709: u64 [sp + 0x8] = a0\n 11712: a0 = sp\n 11714: u64 [sp] = a1\n 11716: ra = 0xb0\n 11720: sp = sp + 0xfffffffffffffe60\n 11724: u64 [sp + 0x198] = ra\n 11728: u64 [sp + 0x190] = s0\n 11732: u64 [sp + 0x188] = s1\n 11736: s0 = sp + 0x1a0\n 11740: sp = sp & 0xffffffffffffffe0\n 11743: s1 = sp\n 11745: a1 = u64 [a0]\n 11747: u64 [s1 + 0x38] = a1\n 11750: a1 = u64 [a0 + 0x8]\n 11753: u64 [s1 + 0x30] = a1\n 11756: a1 = u64 [a0 + 0x10]\n 11759: u64 [s1 + 0x28] = a1\n 11762: a0 = u64 [a0 + 0x18]\n 11765: u64 [s1 + 0x20] = a0\n 11768: a1 = 0x20\n 11771: a0 = 0\n 11773: ra = 0x21c\n 11777: jump @0\n      : @217 [@dyn 88] (gas: 3)\n 11780: a0 = 0x40\n 11783: a1 = 0x20\n 11786: ra = 178, jump @0\n      : @218 [@dyn 89] (gas: 100)\n 11792: a1 = u8 [a0 + 0x11]\n 11795: a2 = u8 [a0 + 0x10]\n 11798: a3 = u8 [a0 + 0x12]\n 11801: a4 = u8 [a0 + 0x13]\n 11804: a1 = a1 << 0x8\n 11807: a1 = a1 | a2\n 11810: a3 = a3 << 0x10\n 11813: a4 = a4 << 0x18\n 11816: a3 = a3 | a4\n 11819: a1 = a1 | a3\n 11822: a2 = u8 [a0 + 0x15]\n 11825: a3 = u8 [a0 + 0x14]\n 11828: a4 = u8 [a0 + 0x16]\n 11831: a5 = u8 [a0 + 0x17]\n 11834: a2 = a2 << 0x8\n 11837: a2 = a2 | a3\n 11840: a4 = a4 << 0x10\n 11843: a5 = a5 << 0x18\n 11846: a4 = a4 | a5\n 11849: a2 = a2 | a4\n 11852: a2 = a2 << 0x20\n 11855: t0 = a2 | a1\n 11858: a2 = u8 [a0 + 0x1]\n 11861: a3 = u8 [a0]\n 11863: a4 = u8 [a0 + 0x2]\n 11866: a5 = u8 [a0 + 0x3]\n 11869: a2 = a2 << 0x8\n 11872: a2 = a2 | a3\n 11875: a4 = a4 << 0x10\n 11878: a5 = a5 << 0x18\n 11881: a4 = a4 | a5\n 11884: a2 = a2 | a4\n 11887: a3 = u8 [a0 + 0x5]\n 11890: a4 = u8 [a0 + 0x4]\n 11893: a5 = u8 [a0 + 0x6]\n 11896: a1 = u8 [a0 + 0x7]\n 11899: a3 = a3 << 0x8\n 11902: a3 = a3 | a4\n 11905: a5 = a5 << 0x10\n 11908: a1 = a1 << 0x18\n 11911: a1 = a1 | a5\n 11914: a1 = a1 | a3\n 11917: a1 = a1 << 0x20\n 11920: t1 = a1 | a2\n 11923: a1 = u8 [a0 + 0x19]\n 11926: a3 = u8 [a0 + 0x18]\n 11929: a4 = u8 [a0 + 0x1a]\n 11932: a5 = u8 [a0 + 0x1b]\n 11935: a1 = a1 << 0x8\n 11938: a1 = a1 | a3\n 11941: a4 = a4 << 0x10\n 11944: a5 = a5 << 0x18\n 11947: a4 = a4 | a5\n 11950: a1 = a1 | a4\n 11953: a3 = u8 [a0 + 0x1d]\n 11956: a4 = u8 [a0 + 0x1c]\n 11959: a5 = u8 [a0 + 0x1e]\n 11962: a2 = u8 [a0 + 0x1f]\n 11965: a3 = a3 << 0x8\n 11968: a3 = a3 | a4\n 11971: a5 = a5 << 0x10\n 11974: a2 = a2 << 0x18\n 11977: a2 = a2 | a5\n 11980: a2 = a2 | a3\n 11983: a2 = a2 << 0x20\n 11986: a3 = a2 | a1\n 11989: a1 = u8 [a0 + 0x9]\n 11992: a2 = u8 [a0 + 0x8]\n 11995: a4 = u8 [a0 + 0xa]\n 11998: a5 = u8 [a0 + 0xb]\n 12001: a1 = a1 << 0x8\n 12004: a1 = a1 | a2\n 12007: a4 = a4 << 0x10\n 12010: a5 = a5 << 0x18\n 12013: a4 = a4 | a5\n 12016: a1 = a1 | a4\n 12019: a2 = u8 [a0 + 0xd]\n 12022: a4 = u8 [a0 + 0xc]\n 12025: a5 = u8 [a0 + 0xe]\n 12028: a0 = u8 [a0 + 0xf]\n 12031: a2 = a2 << 0x8\n 12034: a2 = a2 | a4\n 12037: a5 = a5 << 0x10\n 12040: a0 = a0 << 0x18\n 12043: a0 = a0 | a5\n 12046: a0 = a0 | a2\n 12049: a0 = a0 << 0x20\n 12052: a0 = a0 | a1\n 12055: a1 = reverse a0\n 12057: a0 = reverse a3\n 12059: a2 = reverse t1\n 12061: a3 = reverse t0\n 12063: a2 = a2 | a3\n 12066: a3 = a0 | a1\n 12069: a3 = a3 | a2\n 12072: a3 = a3 >> 0x20\n 12075: a1 = a1 | a2\n 12078: a1 = a1 << 0x20\n 12081: a1 = a1 | a3\n 12084: jump @222 if a1 == 0\n      : @219 (gas: 1)\n 12087: trap\n      : @220 (gas: 3)\n 12088: a0 = 0\n 12090: a1 = 0\n 12092: ra = 180, jump @0\n      : @221 [@dyn 90] (gas: 7)\n 12098: i32 a1 = a0 + 0\n 12100: a0 = 0x1\n 12103: a2 = 0\n 12105: ecalli 11 // 'seal_return'\n 12107: i32 a0 = a0 + 0\n 12109: ra = 0xb6\n 12113: jump @0\n      : @222 (gas: 2)\n 12116: i32 a0 = a0 + 0\n 12118: ra = 182, jump @0\n      : @223 [@dyn 91] (gas: 6)\n 12124: i32 a1 = a0 + 0\n 12126: a0 = 0\n 12128: a2 = 0\n 12130: ra = 0xb8\n 12134: ecalli 11 // 'seal_return'\n 12136: fallthrough\n      : @224 [@dyn 92] (gas: 9)\n 12137: a2 = u64 [a1 + 0x18]\n 12140: a3 = u64 [a1 + 0x10]\n 12143: a4 = u64 [a1 + 0x8]\n 12146: a1 = u64 [a1]\n 12148: u64 [a0 + 0x18] = a2\n 12151: u64 [a0 + 0x10] = a3\n 12154: u64 [a0 + 0x8] = a4\n 12157: u64 [a0] = a1\n 12159: ret\n      : @225 (gas: 52)\n 12161: sp = sp + 0xffffffffffffff60\n 12165: u64 [sp + 0x98] = ra\n 12169: u64 [sp + 0x90] = s0\n 12173: u64 [sp + 0x88] = s1\n 12177: s0 = sp + 0xa0\n 12181: sp = sp & 0xffffffffffffffe0\n 12184: t0 = u64 [a1 + 0x10]\n 12187: ra = u64 [a1 + 0x8]\n 12190: t2 = u64 [a2 + 0x8]\n 12193: a3 = u64 [a1]\n 12195: a4 = u64 [a2]\n 12197: u64 [sp + 0x40] = a4\n 12200: a5 = u64 [a2 + 0x10]\n 12203: u64 [sp + 0x50] = a5\n 12206: t1 = t2 ^ ra\n 12209: s1 = t2 <u ra\n 12212: a5 = a4 <u a3\n 12215: u64 [sp + 0x38] = a5\n 12218: a4 = a3\n 12220: s1 = a5 if t1 == 0\n 12223: t1 = u64 [a1 + 0x18]\n 12226: a1 = u64 [a2 + 0x18]\n 12229: u64 [sp + 0x30] = a1\n 12232: a3 = u64 [sp + 0x50]\n 12235: a2 = a3 - t0\n 12238: a1 = a2 - s1\n 12241: u64 [sp + 0x48] = a1\n 12244: a1 = a2 <u s1\n 12247: u64 [sp + 0x58] = t0\n 12250: a5 = a3 <u t0\n 12253: t0 = a4\n 12255: u64 [sp + 0x50] = t1\n 12258: a2 = u64 [sp + 0x30]\n 12261: a2 = a2 - t1\n 12264: a2 = a2 - a5\n 12267: a2 = a2 - a1\n 12270: a1 = t2 - ra\n 12273: a3 = u64 [sp + 0x38]\n 12276: a1 = a1 - a3\n 12279: a3 = u64 [sp + 0x40]\n 12282: a3 = a3 - a4\n 12285: a4 = a1 >u 0\n 12287: a3 = a3 <u 0x60\n 12290: a3 = a3 ^ 0x1\n 12293: a3 = a4 if a1 != 0\n 12296: a1 = a2 >s 0\n 12298: a5 = u64 [sp + 0x48]\n 12301: a4 = a5 >u 0\n 12303: a4 = a1 if a2 != 0\n 12306: a1 = a5 | a2\n 12309: a3 = a4 if a1 != 0\n 12312: jump @234 if a3 == 0\n      : @226 (gas: 12)\n 12316: s1 = a0\n 12318: a2 = u64 [sp + 0x58]\n 12321: a0 = t0 | a2\n 12324: a1 = u64 [sp + 0x50]\n 12327: a1 = ra | a1\n 12330: a0 = a0 | a1\n 12333: a0 = a0 >> 0x20\n 12336: a1 = a1 | a2\n 12339: a1 = a1 << 0x20\n 12342: a0 = a0 | a1\n 12345: u64 [sp + 0x48] = ra\n 12348: jump @233 if a0 != 0\n      : @227 (gas: 6)\n 12352: i32 a1 = t0 + 0\n 12354: i32 a0 = sp + 0x60\n 12357: u64 [sp + 0x38] = a1\n 12360: u64 [sp + 0x40] = t0\n 12363: ecalli 2 // 'call_data_load'\n 12365: fallthrough\n      : @228 (gas: 13)\n 12366: a0 = u64 [sp + 0x58]\n 12369: a1 = u64 [sp + 0x50]\n 12372: a1 = a1 | a0\n 12375: a0 = 0x100000000\n 12385: u64 [sp + 0x50] = a0\n 12388: a0 = 0xffffffe0\n 12398: a2 = u64 [sp + 0x40]\n 12401: a0 = a2 <u a0\n 12404: a2 = u64 [sp + 0x48]\n 12407: a0 = 0 if a2 != 0\n 12409: u64 [sp + 0x58] = a1\n 12412: a0 = 0 if a1 != 0\n 12414: jump @233 if a0 == 0\n      : @229 (gas: 13)\n 12418: a0 = u64 [sp + 0x78]\n 12421: u64 [sp + 0x18] = a0\n 12424: a0 = u64 [sp + 0x70]\n 12427: u64 [sp + 0x20] = a0\n 12430: a0 = u64 [sp + 0x68]\n 12433: u64 [sp + 0x28] = a0\n 12436: a0 = u64 [sp + 0x60]\n 12439: u64 [sp + 0x30] = a0\n 12442: a0 = u64 [sp + 0x38]\n 12445: i32 a1 = a0 + 0x20\n 12448: i32 a0 = sp + 0x60\n 12451: ecalli 2 // 'call_data_load'\n 12453: fallthrough\n      : @230 (gas: 10)\n 12454: a2 = u64 [sp + 0x70]\n 12457: a3 = u64 [sp + 0x78]\n 12460: a0 = u64 [sp + 0x50]\n 12463: a0 = a0 ^ a2\n 12466: a0 = a0 | a3\n 12469: a1 = a2 >> 0x20\n 12472: a1 = a1 <u 0x1\n 12475: a1 = 0 if a3 != 0\n 12477: a1 = 0 if a0 == 0\n 12479: jump @235 if a1 == 0\n      : @231 (gas: 10)\n 12483: u64 [sp + 0x10] = a3\n 12486: u64 [sp + 0x50] = a2\n 12489: a0 = 0xffffffc0\n 12499: a1 = u64 [sp + 0x40]\n 12502: a0 = a1 <u a0\n 12505: a1 = u64 [sp + 0x48]\n 12508: a0 = 0 if a1 != 0\n 12510: a1 = u64 [sp + 0x58]\n 12513: a0 = 0 if a1 != 0\n 12515: jump @233 if a0 == 0\n      : @232 (gas: 38)\n 12518: a0 = u64 [sp + 0x68]\n 12521: u64 [sp + 0x48] = a0\n 12524: a0 = u64 [sp + 0x60]\n 12527: u64 [sp + 0x58] = a0\n 12530: a0 = u64 [sp + 0x38]\n 12533: i32 a1 = a0 + 0x40\n 12536: i32 a0 = sp + 0x60\n 12539: ecalli 2 // 'call_data_load'\n 12541: a0 = u64 [sp + 0x78]\n 12544: a1 = u64 [sp + 0x70]\n 12547: a2 = u64 [sp + 0x68]\n 12550: a3 = u64 [sp + 0x60]\n 12553: u64 [s1 + 0x58] = a0\n 12556: u64 [s1 + 0x50] = a1\n 12559: u64 [s1 + 0x48] = a2\n 12562: u64 [s1 + 0x40] = a3\n 12565: a0 = u64 [sp + 0x10]\n 12568: u64 [s1 + 0x38] = a0\n 12571: a0 = u64 [sp + 0x50]\n 12574: u64 [s1 + 0x30] = a0\n 12577: a0 = u64 [sp + 0x48]\n 12580: u64 [s1 + 0x28] = a0\n 12583: a0 = u64 [sp + 0x58]\n 12586: u64 [s1 + 0x20] = a0\n 12589: a0 = u64 [sp + 0x18]\n 12592: u64 [s1 + 0x18] = a0\n 12595: a0 = u64 [sp + 0x20]\n 12598: u64 [s1 + 0x10] = a0\n 12601: a0 = u64 [sp + 0x28]\n 12604: u64 [s1 + 0x8] = a0\n 12607: a0 = u64 [sp + 0x30]\n 12610: u64 [s1] = a0\n 12612: sp = s0 + 0xffffffffffffff60\n 12616: ra = u64 [sp + 0x98]\n 12620: s0 = u64 [sp + 0x90]\n 12624: s1 = u64 [sp + 0x88]\n 12628: sp = sp + 0xa0\n 12632: ret\n      : @233 (gas: 1)\n 12634: trap\n      : @234 (gas: 4)\n 12635: a0 = 0\n 12637: a1 = 0\n 12639: ra = 0xba\n 12643: jump @0\n      : @235 (gas: 2)\n 12646: a0 = 0\n 12648: ra = 186, jump @0\n      : @236 [@dyn 93] (gas: 6)\n 12654: i32 a1 = a0 + 0\n 12656: a0 = 0x1\n 12659: a2 = 0\n 12661: ra = 0xbc\n 12665: ecalli 11 // 'seal_return'\n 12667: fallthrough\n      : @237 [@dyn 94] (gas: 13)\n 12668: sp = sp + 0xfffffffffffffea0\n 12672: u64 [sp + 0x158] = ra\n 12676: u64 [sp + 0x150] = s0\n 12680: u64 [sp + 0x148] = s1\n 12684: s0 = sp + 0x160\n 12688: sp = sp & 0xffffffffffffffe0\n 12691: u64 [sp + 312] = 0\n 12695: u64 [sp + 304] = 0\n 12699: u64 [sp + 296] = 0\n 12703: u64 [sp + 288] = 0\n 12707: i32 a0 = sp + 0x120\n 12711: ecalli 14 // 'value_transferred'\n 12713: fallthrough\n      : @238 (gas: 8)\n 12714: a0 = u64 [sp + 0x130]\n 12718: a1 = u64 [sp + 0x138]\n 12722: a2 = u64 [sp + 0x128]\n 12726: a3 = u64 [sp + 0x120]\n 12730: a1 = a1 | a2\n 12733: a0 = a0 | a3\n 12736: a0 = a0 | a1\n 12739: jump @244 if a0 != 0\n      : @239 (gas: 13)\n 12743: a0 = u32 [0x200a8]\n 12748: u64 [sp + 152] = 0\n 12752: u64 [sp + 144] = 0\n 12756: u64 [sp + 136] = 0\n 12760: u64 [sp + 0x80] = a0\n 12764: u64 [sp + 184] = 0\n 12768: u64 [sp + 176] = 0\n 12772: u64 [sp + 160] = 0x4\n 12777: a0 = sp + 0xc0\n 12781: a1 = sp + 0xa0\n 12785: a2 = sp + 0x80\n 12789: u64 [sp + 168] = 0\n 12793: ra = 190, jump @225\n      : @240 [@dyn 95] (gas: 30)\n 12799: a0 = u64 [sp + 0xc0]\n 12803: u64 [sp + 0x18] = a0\n 12806: t1 = u64 [sp + 0xc8]\n 12810: t2 = u64 [sp + 0xd0]\n 12814: ra = u64 [sp + 0xd8]\n 12818: t0 = u64 [sp + 0xe0]\n 12822: a5 = u64 [sp + 0xe8]\n 12826: a4 = u64 [sp + 0xf0]\n 12830: a3 = u64 [sp + 0xf8]\n 12834: a1 = u64 [sp + 0x100]\n 12838: s1 = u64 [sp + 0x108]\n 12842: a2 = u64 [sp + 0x110]\n 12846: a0 = u64 [sp + 0x118]\n 12850: u64 [sp + 0x38] = a0\n 12853: u64 [sp + 0x30] = a2\n 12856: u64 [sp + 0x28] = s1\n 12859: u64 [sp + 0x20] = a1\n 12862: u64 [sp + 0x58] = a3\n 12865: u64 [sp + 0x50] = a4\n 12868: u64 [sp + 0x48] = a5\n 12871: u64 [sp + 0x40] = t0\n 12874: u64 [sp + 0x78] = ra\n 12877: u64 [sp + 0x70] = t2\n 12880: u64 [sp + 0x68] = t1\n 12883: a0 = sp + 0x60\n 12886: a1 = sp + 0x40\n 12889: a2 = sp + 0x20\n 12892: a3 = u64 [sp + 0x18]\n 12895: u64 [sp + 0x60] = a3\n 12898: ra = 192, jump @645\n      : @241 [@dyn 96] (gas: 3)\n 12904: a0 = 0x40\n 12907: a1 = 0x20\n 12910: ra = 194, jump @0\n      : @242 [@dyn 97] (gas: 100)\n 12916: a1 = u8 [a0 + 0x11]\n 12919: a2 = u8 [a0 + 0x10]\n 12922: a3 = u8 [a0 + 0x12]\n 12925: a4 = u8 [a0 + 0x13]\n 12928: a1 = a1 << 0x8\n 12931: a1 = a1 | a2\n 12934: a3 = a3 << 0x10\n 12937: a4 = a4 << 0x18\n 12940: a3 = a3 | a4\n 12943: a1 = a1 | a3\n 12946: a2 = u8 [a0 + 0x15]\n 12949: a3 = u8 [a0 + 0x14]\n 12952: a4 = u8 [a0 + 0x16]\n 12955: a5 = u8 [a0 + 0x17]\n 12958: a2 = a2 << 0x8\n 12961: a2 = a2 | a3\n 12964: a4 = a4 << 0x10\n 12967: a5 = a5 << 0x18\n 12970: a4 = a4 | a5\n 12973: a2 = a2 | a4\n 12976: a2 = a2 << 0x20\n 12979: t0 = a2 | a1\n 12982: a2 = u8 [a0 + 0x1]\n 12985: a3 = u8 [a0]\n 12987: a4 = u8 [a0 + 0x2]\n 12990: a5 = u8 [a0 + 0x3]\n 12993: a2 = a2 << 0x8\n 12996: a2 = a2 | a3\n 12999: a4 = a4 << 0x10\n 13002: a5 = a5 << 0x18\n 13005: a4 = a4 | a5\n 13008: a2 = a2 | a4\n 13011: a3 = u8 [a0 + 0x5]\n 13014: a4 = u8 [a0 + 0x4]\n 13017: a5 = u8 [a0 + 0x6]\n 13020: s1 = u8 [a0 + 0x7]\n 13023: a3 = a3 << 0x8\n 13026: a3 = a3 | a4\n 13029: a5 = a5 << 0x10\n 13032: s1 = s1 << 0x18\n 13035: a5 = a5 | s1\n 13038: a3 = a3 | a5\n 13041: a3 = a3 << 0x20\n 13044: a2 = a2 | a3\n 13047: a3 = u8 [a0 + 0x19]\n 13050: a4 = u8 [a0 + 0x18]\n 13053: a5 = u8 [a0 + 0x1a]\n 13056: s1 = u8 [a0 + 0x1b]\n 13059: a3 = a3 << 0x8\n 13062: a3 = a3 | a4\n 13065: a5 = a5 << 0x10\n 13068: s1 = s1 << 0x18\n 13071: a5 = a5 | s1\n 13074: a3 = a3 | a5\n 13077: a4 = u8 [a0 + 0x1d]\n 13080: a5 = u8 [a0 + 0x1c]\n 13083: s1 = u8 [a0 + 0x1e]\n 13086: a1 = u8 [a0 + 0x1f]\n 13089: a4 = a4 << 0x8\n 13092: a4 = a4 | a5\n 13095: s1 = s1 << 0x10\n 13098: a1 = a1 << 0x18\n 13101: a1 = a1 | s1\n 13104: a1 = a1 | a4\n 13107: a1 = a1 << 0x20\n 13110: a3 = a3 | a1\n 13113: a1 = u8 [a0 + 0x9]\n 13116: a4 = u8 [a0 + 0x8]\n 13119: a5 = u8 [a0 + 0xa]\n 13122: s1 = u8 [a0 + 0xb]\n 13125: a1 = a1 << 0x8\n 13128: a1 = a1 | a4\n 13131: a5 = a5 << 0x10\n 13134: s1 = s1 << 0x18\n 13137: a5 = a5 | s1\n 13140: a1 = a1 | a5\n 13143: a4 = u8 [a0 + 0xd]\n 13146: a5 = u8 [a0 + 0xc]\n 13149: s1 = u8 [a0 + 0xe]\n 13152: a0 = u8 [a0 + 0xf]\n 13155: a4 = a4 << 0x8\n 13158: a4 = a4 | a5\n 13161: s1 = s1 << 0x10\n 13164: a0 = a0 << 0x18\n 13167: a0 = a0 | s1\n 13170: a0 = a0 | a4\n 13173: a0 = a0 << 0x20\n 13176: a0 = a0 | a1\n 13179: a1 = reverse a0\n 13181: a0 = reverse a3\n 13183: a2 = reverse a2\n 13185: a3 = reverse t0\n 13187: a2 = a2 | a3\n 13190: a3 = a0 | a1\n 13193: a3 = a3 | a2\n 13196: a3 = a3 >> 0x20\n 13199: a1 = a1 | a2\n 13202: a1 = a1 << 0x20\n 13205: a1 = a1 | a3\n 13208: jump @246 if a1 == 0\n      : @243 (gas: 1)\n 13211: trap\n      : @244 (gas: 3)\n 13212: a0 = 0\n 13214: a1 = 0\n 13216: ra = 196, jump @0\n      : @245 [@dyn 98] (gas: 7)\n 13222: i32 a1 = a0 + 0\n 13224: a0 = 0x1\n 13227: a2 = 0\n 13229: ecalli 11 // 'seal_return'\n 13231: i32 a0 = a0 + 0\n 13233: ra = 0xc6\n 13237: jump @0\n      : @246 (gas: 2)\n 13240: i32 a0 = a0 + 0\n 13242: ra = 198, jump @0\n      : @247 [@dyn 99] (gas: 6)\n 13248: i32 a1 = a0 + 0\n 13250: a0 = 0\n 13252: a2 = 0\n 13254: ra = 0xc8\n 13258: ecalli 11 // 'seal_return'\n 13260: fallthrough\n      : @248 [@dyn 100] (gas: 5)\n 13261: sp = sp + 0xfffffffffffffff8\n 13264: u64 [sp] = ra\n 13266: a0 = 0\n 13268: a1 = 0\n 13270: ra = 202, jump @0\n      : @249 [@dyn 101] (gas: 6)\n 13276: i32 a1 = a0 + 0\n 13278: a0 = 0x1\n 13281: a2 = 0\n 13283: ra = 0xcc\n 13287: ecalli 11 // 'seal_return'\n 13289: fallthrough\n      : @250 [@dyn 102] (gas: 37)\n 13290: sp = sp + 0xffffffffffffff60\n 13294: u64 [sp + 0x98] = ra\n 13298: u64 [sp + 0x90] = s0\n 13302: u64 [sp + 0x88] = s1\n 13306: s0 = sp + 0xa0\n 13310: sp = sp & 0xffffffffffffffe0\n 13313: a4 = u64 [a1]\n 13315: s1 = u64 [a2 + 0x8]\n 13318: ra = u64 [a1 + 0x8]\n 13321: t1 = u64 [a2]\n 13323: a3 = a4 + 0x1f\n 13326: u64 [sp + 0x58] = a4\n 13329: t0 = a3 <u a4\n 13332: a5 = ra + t0\n 13335: u64 [sp + 0x40] = t1\n 13338: t1 = a3 <u t1\n 13341: a3 = a5 ^ s1\n 13344: u64 [sp + 0x48] = s1\n 13347: a4 = a5 <u s1\n 13350: a4 = t1 if a3 == 0\n 13353: t2 = u64 [a1 + 0x10]\n 13356: a3 = a5 <u ra\n 13359: a3 = t0 if t0 == 0\n 13362: t0 = u64 [a2 + 0x18]\n 13365: t1 = u64 [a1 + 0x18]\n 13368: s1 = u64 [a2 + 0x10]\n 13371: a3 = a3 + t2\n 13374: a1 = a3 <u t2\n 13377: a1 = a1 + t1\n 13380: a2 = a1 ^ t0\n 13383: a1 = a1 <s t0\n 13386: a5 = a3 <u s1\n 13389: a1 = a5 if a2 == 0\n 13392: a3 = a3 ^ s1\n 13395: a2 = a2 | a3\n 13398: a4 = a1 if a2 != 0\n 13401: jump @257 if a4 == 0\n      : @251 (gas: 14)\n 13405: u64 [sp + 0x28] = t0\n 13408: u64 [sp + 0x30] = s1\n 13411: u64 [sp + 0x38] = a0\n 13414: a0 = u64 [sp + 0x58]\n 13417: a0 = a0 | t2\n 13420: u64 [sp + 0x18] = t1\n 13423: a1 = ra | t1\n 13426: a0 = a0 | a1\n 13429: a0 = a0 >> 0x20\n 13432: u64 [sp + 0x20] = t2\n 13435: a1 = a1 | t2\n 13438: a1 = a1 << 0x20\n 13441: a0 = a0 | a1\n 13444: jump @256 if a0 != 0\n      : @252 (gas: 5)\n 13448: s1 = ra\n 13450: a1 = i32 [sp + 0x58]\n 13453: i32 a0 = sp + 0x60\n 13456: ecalli 2 // 'call_data_load'\n 13458: fallthrough\n      : @253 (gas: 8)\n 13459: a0 = u64 [sp + 0x78]\n 13462: a1 = u64 [sp + 0x70]\n 13465: t1 = u64 [sp + 0x68]\n 13468: u64 [sp + 0x50] = a0\n 13471: a0 = a0 | a1\n 13474: a3 = t1 <u 0x1\n 13477: a3 = 0 if a0 != 0\n 13479: jump @257 if a3 == 0\n      : @254 (gas: 46)\n 13483: a2 = u64 [sp + 0x60]\n 13486: a0 = u64 [sp + 0x58]\n 13489: a4 = a0 + 0x20\n 13492: a0 = a4 <u a0\n 13495: ra = s1 + a0\n 13498: u64 [sp + 0x10] = a4\n 13501: a4 = a4 + a2\n 13504: u64 [sp + 0x58] = a2\n 13507: t0 = a4 <u a2\n 13510: a5 = t1 + ra\n 13513: a5 = a5 + t0\n 13516: a2 = a5 ^ t1\n 13519: a3 = a5 <u t1\n 13522: a3 = t0 if a2 == 0\n 13525: a2 = ra <u s1\n 13528: a2 = a0 if a0 == 0\n 13531: a0 = u64 [sp + 0x20]\n 13534: t2 = a0 + a2\n 13537: s1 = t2 <u a0\n 13540: a0 = u64 [sp + 0x18]\n 13543: a0 = a0 + s1\n 13546: s1 = u64 [sp + 0x48]\n 13549: a2 = a5 ^ s1\n 13552: a5 = s1 <u a5\n 13555: s1 = u64 [sp + 0x40]\n 13558: a4 = s1 <u a4\n 13561: a4 = a5 if a2 != 0\n 13564: a2 = a1 + t2\n 13567: a5 = a2 <u a1\n 13570: s1 = u64 [sp + 0x50]\n 13573: u64 [sp + 0x48] = a0\n 13576: s1 = s1 + a0\n 13579: a5 = a5 + s1\n 13582: a3 = a3 + a2\n 13585: a2 = a3 <u a2\n 13588: a2 = a2 + a5\n 13591: s1 = u64 [sp + 0x28]\n 13594: a5 = a2 ^ s1\n 13597: t0 = s1 <u a2\n 13600: a2 = u64 [sp + 0x30]\n 13603: s1 = a2 <u a3\n 13606: s1 = t0 if a5 != 0\n 13609: a2 = a2 ^ a3\n 13612: a2 = a2 | a5\n 13615: a4 = s1 if a2 != 0\n 13618: jump @257 if a4 != 0\n      : @255 (gas: 19)\n 13621: a2 = u64 [sp + 0x38]\n 13624: a0 = u64 [sp + 0x58]\n 13627: u64 [a2 + 0x20] = a0\n 13630: a0 = u64 [sp + 0x10]\n 13633: u64 [a2] = a0\n 13635: u64 [a2 + 0x28] = t1\n 13638: u64 [a2 + 0x8] = ra\n 13641: u64 [a2 + 0x30] = a1\n 13644: u64 [a2 + 0x10] = t2\n 13647: a0 = u64 [sp + 0x50]\n 13650: u64 [a2 + 0x38] = a0\n 13653: a0 = u64 [sp + 0x48]\n 13656: u64 [a2 + 0x18] = a0\n 13659: sp = s0 + 0xffffffffffffff60\n 13663: ra = u64 [sp + 0x98]\n 13667: s0 = u64 [sp + 0x90]\n 13671: s1 = u64 [sp + 0x88]\n 13675: sp = sp + 0xa0\n 13679: ret\n      : @256 (gas: 1)\n 13681: trap\n      : @257 (gas: 3)\n 13682: a0 = 0\n 13684: a1 = 0\n 13686: ra = 206, jump @0\n      : @258 [@dyn 103] (gas: 6)\n 13692: i32 a1 = a0 + 0\n 13694: a0 = 0x1\n 13697: a2 = 0\n 13699: ra = 0xd0\n 13703: ecalli 11 // 'seal_return'\n 13705: fallthrough\n      : @259 [@dyn 104] (gas: 43)\n 13706: sp = sp + 0xfffffffffffffea0\n 13710: u64 [sp + 0x158] = ra\n 13714: u64 [sp + 0x150] = s0\n 13718: u64 [sp + 0x148] = s1\n 13722: s0 = sp + 0x160\n 13726: sp = sp & 0xffffffffffffffe0\n 13729: t2 = u64 [a2 + 0x8]\n 13732: ra = u64 [a1 + 0x8]\n 13735: s1 = u64 [a2]\n 13737: a5 = u64 [a1]\n 13739: t0 = u64 [a2 + 0x10]\n 13742: a4 = t2 ^ ra\n 13745: a3 = t2 <u ra\n 13748: t1 = s1 <u a5\n 13751: a3 = t1 if a4 == 0\n 13754: a4 = t2 - ra\n 13757: a4 = a4 - t1\n 13760: u64 [sp + 0x48] = s1\n 13763: u64 [sp + 0x78] = a5\n 13766: a5 = s1 - a5\n 13769: a5 = a5 <u 0x40\n 13772: a5 = a5 ^ 0x1\n 13775: t1 = u64 [a1 + 0x10]\n 13778: s1 = a4 >u 0\n 13780: a5 = s1 if a4 != 0\n 13783: a4 = u64 [a2 + 0x18]\n 13786: s1 = u64 [a1 + 0x18]\n 13789: a1 = t0 - t1\n 13792: a2 = a1 - a3\n 13795: a1 = a1 <u a3\n 13798: u64 [sp + 0x70] = t1\n 13801: a3 = t0 <u t1\n 13804: u64 [sp + 0x40] = a4\n 13807: u64 [sp + 0x68] = s1\n 13810: a4 = a4 - s1\n 13813: a4 = a4 - a3\n 13816: a4 = a4 - a1\n 13819: a1 = a4 >s 0\n 13821: a3 = a2 >u 0\n 13823: a3 = a1 if a4 != 0\n 13826: a2 = a2 | a4\n 13829: a5 = a3 if a2 != 0\n 13832: jump @268 if a5 == 0\n      : @260 (gas: 15)\n 13836: s1 = a0\n 13838: u64 [sp + 0x50] = t0\n 13841: u64 [sp + 0x58] = t2\n 13844: a2 = u64 [sp + 0x70]\n 13847: t2 = u64 [sp + 0x78]\n 13850: a0 = t2 | a2\n 13853: a1 = u64 [sp + 0x68]\n 13856: a1 = ra | a1\n 13859: a0 = a0 | a1\n 13862: a0 = a0 >> 0x20\n 13865: a1 = a1 | a2\n 13868: a1 = a1 << 0x20\n 13871: a0 = a0 | a1\n 13874: u64 [sp + 0x60] = ra\n 13877: jump @267 if a0 != 0\n      : @261 (gas: 5)\n 13881: i32 a1 = t2 + 0\n 13883: i32 a0 = sp + 0x120\n 13887: u64 [sp + 0x38] = a1\n 13890: ecalli 2 // 'call_data_load'\n 13892: fallthrough\n      : @262 (gas: 10)\n 13893: a0 = u64 [sp + 0x70]\n 13896: a1 = u64 [sp + 0x68]\n 13899: a0 = a0 | a1\n 13902: a1 = 0xffffffe0\n 13912: a2 = u64 [sp + 0x78]\n 13915: a1 = a2 <u a1\n 13918: a2 = u64 [sp + 0x60]\n 13921: a1 = 0 if a2 != 0\n 13923: a1 = 0 if a0 != 0\n 13925: jump @267 if a1 == 0\n      : @263 (gas: 13)\n 13929: a0 = u64 [sp + 0x138]\n 13933: u64 [sp + 0x28] = a0\n 13936: a0 = u64 [sp + 0x130]\n 13940: u64 [sp + 0x18] = a0\n 13943: a0 = u64 [sp + 0x128]\n 13947: u64 [sp + 0x30] = a0\n 13950: a0 = u64 [sp + 0x120]\n 13954: u64 [sp + 0x20] = a0\n 13957: a0 = u64 [sp + 0x38]\n 13960: i32 a1 = a0 + 0x20\n 13963: i32 a0 = sp + 0x100\n 13967: ecalli 2 // 'call_data_load'\n 13969: fallthrough\n      : @264 (gas: 7)\n 13970: t0 = u64 [sp + 0x118]\n 13974: a1 = u64 [sp + 0x110]\n 13978: a2 = u64 [sp + 0x108]\n 13982: a3 = a1 | t0\n 13985: a4 = a2 <u 0x1\n 13988: a4 = 0 if a3 != 0\n 13990: jump @268 if a4 == 0\n      : @265 (gas: 35)\n 13994: a3 = u64 [sp + 0x100]\n 13998: a4 = u64 [sp + 0x78]\n 14001: a4 = a4 + a3\n 14004: a3 = a4 <u a3\n 14007: a5 = u64 [sp + 0x60]\n 14010: a5 = a5 + a2\n 14013: a5 = a5 + a3\n 14016: a0 = a5 ^ a2\n 14019: a2 = a5 <u a2\n 14022: a2 = a3 if a0 == 0\n 14025: a0 = u64 [sp + 0x70]\n 14028: a0 = a0 + a1\n 14031: a2 = a2 + a0\n 14034: a3 = a2 <u a0\n 14037: a0 = a0 <u a1\n 14040: a1 = u64 [sp + 0x68]\n 14043: t0 = t0 + a1\n 14046: a0 = a0 + t0\n 14049: a3 = a3 + a0\n 14052: a0 = u64 [sp + 0x48]\n 14055: u64 [sp + 0x80] = a0\n 14059: a0 = u64 [sp + 0x58]\n 14062: u64 [sp + 0x88] = a0\n 14066: u64 [sp + 0xa0] = a4\n 14070: a0 = u64 [sp + 0x50]\n 14073: u64 [sp + 0x90] = a0\n 14077: a0 = u64 [sp + 0x40]\n 14080: u64 [sp + 0x98] = a0\n 14084: u64 [sp + 0xa8] = a5\n 14088: u64 [sp + 0xb0] = a2\n 14092: a0 = sp + 0xc0\n 14096: a1 = sp + 0xa0\n 14100: a2 = sp + 0x80\n 14104: u64 [sp + 0xb8] = a3\n 14108: ra = 210, jump @250\n      : @266 [@dyn 105] (gas: 30)\n 14114: t0 = u64 [sp + 0xc8]\n 14118: t1 = u64 [sp + 0xc0]\n 14122: a2 = u64 [sp + 0xd8]\n 14126: a3 = u64 [sp + 0xd0]\n 14130: a4 = u64 [sp + 0xf0]\n 14134: a5 = u64 [sp + 0xf8]\n 14138: a0 = u64 [sp + 0xe0]\n 14142: a1 = u64 [sp + 0xe8]\n 14146: u64 [s1 + 0x50] = a4\n 14149: u64 [s1 + 0x58] = a5\n 14152: u64 [s1 + 0x40] = a0\n 14155: u64 [s1 + 0x48] = a1\n 14158: u64 [s1 + 0x30] = a3\n 14161: u64 [s1 + 0x38] = a2\n 14164: u64 [s1 + 0x20] = t1\n 14167: u64 [s1 + 0x28] = t0\n 14170: a0 = u64 [sp + 0x18]\n 14173: u64 [s1 + 0x10] = a0\n 14176: a0 = u64 [sp + 0x28]\n 14179: u64 [s1 + 0x18] = a0\n 14182: a0 = u64 [sp + 0x20]\n 14185: u64 [s1] = a0\n 14187: a0 = u64 [sp + 0x30]\n 14190: u64 [s1 + 0x8] = a0\n 14193: sp = s0 + 0xfffffffffffffea0\n 14197: ra = u64 [sp + 0x158]\n 14201: s0 = u64 [sp + 0x150]\n 14205: s1 = u64 [sp + 0x148]\n 14209: sp = sp + 0x160\n 14213: ret\n      : @267 (gas: 1)\n 14215: trap\n      : @268 (gas: 3)\n 14216: a0 = 0\n 14218: a1 = 0\n 14220: ra = 212, jump @0\n      : @269 [@dyn 106] (gas: 6)\n 14226: i32 a1 = a0 + 0\n 14228: a0 = 0x1\n 14231: a2 = 0\n 14233: ra = 0xd6\n 14237: ecalli 11 // 'seal_return'\n 14239: fallthrough\n      : @270 [@dyn 107] (gas: 19)\n 14240: sp = sp + 0xfffffffffffffea0\n 14244: u64 [sp + 0x158] = ra\n 14248: u64 [sp + 0x150] = s0\n 14252: u64 [sp + 0x148] = s1\n 14256: s0 = sp + 0x160\n 14260: sp = sp & 0xfffffffffffffff0\n 14263: a0 = u32 [0x200a8]\n 14268: u64 [sp + 184] = 0\n 14272: u64 [sp + 176] = 0\n 14276: u64 [sp + 168] = 0\n 14280: u64 [sp + 0xa0] = a0\n 14284: u64 [sp + 216] = 0\n 14288: u64 [sp + 208] = 0\n 14292: u64 [sp + 192] = 0x4\n 14297: a0 = sp + 0xe0\n 14301: a1 = sp + 0xc0\n 14305: a2 = sp + 0xa0\n 14309: u64 [sp + 200] = 0\n 14313: ra = 216, jump @259\n      : @271 [@dyn 108] (gas: 31)\n 14319: a0 = u64 [sp + 0xe0]\n 14323: u64 [sp + 0x18] = a0\n 14326: t1 = u64 [sp + 0xe8]\n 14330: t2 = u64 [sp + 0xf0]\n 14334: ra = u64 [sp + 0xf8]\n 14338: t0 = u64 [sp + 0x100]\n 14342: a5 = u64 [sp + 0x108]\n 14346: s1 = u64 [sp + 0x110]\n 14350: a4 = u64 [sp + 0x118]\n 14354: a3 = u64 [sp + 0x120]\n 14358: a1 = u64 [sp + 0x128]\n 14362: a2 = u64 [sp + 0x130]\n 14366: a0 = u64 [sp + 0x138]\n 14370: u64 [sp + 0x38] = a0\n 14373: u64 [sp + 0x30] = a2\n 14376: u64 [sp + 0x28] = a1\n 14379: u64 [sp + 0x20] = a3\n 14382: u64 [sp + 0x58] = a4\n 14385: u64 [sp + 0x50] = s1\n 14388: u64 [sp + 0x48] = a5\n 14391: u64 [sp + 0x40] = t0\n 14394: u64 [sp + 0x78] = ra\n 14397: u64 [sp + 0x70] = t2\n 14400: u64 [sp + 0x68] = t1\n 14403: a0 = sp + 0x80\n 14407: a1 = sp + 0x60\n 14410: a2 = sp + 0x40\n 14413: a3 = sp + 0x20\n 14416: a4 = u64 [sp + 0x18]\n 14419: u64 [sp + 0x60] = a4\n 14422: ra = 218, jump @836\n      : @272 [@dyn 109] (gas: 11)\n 14429: a0 = u64 [sp + 0x98]\n 14433: u64 [sp] = a0\n 14435: a0 = u64 [sp + 0x90]\n 14439: u64 [sp + 0x8] = a0\n 14442: a0 = u64 [sp + 0x88]\n 14446: u64 [sp + 0x10] = a0\n 14449: a0 = u64 [sp + 0x80]\n 14453: u64 [sp + 0x18] = a0\n 14456: a0 = 0x40\n 14459: a1 = 0x20\n 14462: ra = 220, jump @0\n      : @273 [@dyn 110] (gas: 100)\n 14468: a1 = u8 [a0 + 0x11]\n 14471: a2 = u8 [a0 + 0x10]\n 14474: a3 = u8 [a0 + 0x12]\n 14477: a4 = u8 [a0 + 0x13]\n 14480: a1 = a1 << 0x8\n 14483: a1 = a1 | a2\n 14486: a3 = a3 << 0x10\n 14489: a4 = a4 << 0x18\n 14492: a3 = a3 | a4\n 14495: a1 = a1 | a3\n 14498: a2 = u8 [a0 + 0x15]\n 14501: a3 = u8 [a0 + 0x14]\n 14504: a4 = u8 [a0 + 0x16]\n 14507: a5 = u8 [a0 + 0x17]\n 14510: a2 = a2 << 0x8\n 14513: a2 = a2 | a3\n 14516: a4 = a4 << 0x10\n 14519: a5 = a5 << 0x18\n 14522: a4 = a4 | a5\n 14525: a2 = a2 | a4\n 14528: a2 = a2 << 0x20\n 14531: t0 = a2 | a1\n 14534: a2 = u8 [a0 + 0x1]\n 14537: a3 = u8 [a0]\n 14539: a4 = u8 [a0 + 0x2]\n 14542: a5 = u8 [a0 + 0x3]\n 14545: a2 = a2 << 0x8\n 14548: a2 = a2 | a3\n 14551: a4 = a4 << 0x10\n 14554: a5 = a5 << 0x18\n 14557: a4 = a4 | a5\n 14560: a2 = a2 | a4\n 14563: a3 = u8 [a0 + 0x5]\n 14566: a4 = u8 [a0 + 0x4]\n 14569: a5 = u8 [a0 + 0x6]\n 14572: s1 = u8 [a0 + 0x7]\n 14575: a3 = a3 << 0x8\n 14578: a3 = a3 | a4\n 14581: a5 = a5 << 0x10\n 14584: s1 = s1 << 0x18\n 14587: a5 = a5 | s1\n 14590: a3 = a3 | a5\n 14593: a3 = a3 << 0x20\n 14596: a2 = a2 | a3\n 14599: a3 = u8 [a0 + 0x19]\n 14602: a4 = u8 [a0 + 0x18]\n 14605: a5 = u8 [a0 + 0x1a]\n 14608: s1 = u8 [a0 + 0x1b]\n 14611: a3 = a3 << 0x8\n 14614: a3 = a3 | a4\n 14617: a5 = a5 << 0x10\n 14620: s1 = s1 << 0x18\n 14623: a5 = a5 | s1\n 14626: a3 = a3 | a5\n 14629: a4 = u8 [a0 + 0x1d]\n 14632: a5 = u8 [a0 + 0x1c]\n 14635: s1 = u8 [a0 + 0x1e]\n 14638: a1 = u8 [a0 + 0x1f]\n 14641: a4 = a4 << 0x8\n 14644: a4 = a4 | a5\n 14647: s1 = s1 << 0x10\n 14650: a1 = a1 << 0x18\n 14653: a1 = a1 | s1\n 14656: a1 = a1 | a4\n 14659: a1 = a1 << 0x20\n 14662: a3 = a3 | a1\n 14665: a1 = u8 [a0 + 0x9]\n 14668: a4 = u8 [a0 + 0x8]\n 14671: a5 = u8 [a0 + 0xa]\n 14674: s1 = u8 [a0 + 0xb]\n 14677: a1 = a1 << 0x8\n 14680: a1 = a1 | a4\n 14683: a5 = a5 << 0x10\n 14686: s1 = s1 << 0x18\n 14689: a5 = a5 | s1\n 14692: a1 = a1 | a5\n 14695: a4 = u8 [a0 + 0xd]\n 14698: a5 = u8 [a0 + 0xc]\n 14701: s1 = u8 [a0 + 0xe]\n 14704: a0 = u8 [a0 + 0xf]\n 14707: a4 = a4 << 0x8\n 14710: a4 = a4 | a5\n 14713: s1 = s1 << 0x10\n 14716: a0 = a0 << 0x18\n 14719: a0 = a0 | s1\n 14722: a0 = a0 | a4\n 14725: a0 = a0 << 0x20\n 14728: a0 = a0 | a1\n 14731: a1 = reverse a0\n 14733: a0 = reverse a3\n 14735: a2 = reverse a2\n 14737: a3 = reverse t0\n 14739: a2 = a2 | a3\n 14742: a3 = a0 | a1\n 14745: a3 = a3 | a2\n 14748: a3 = a3 >> 0x20\n 14751: a1 = a1 | a2\n 14754: a1 = a1 << 0x20\n 14757: a1 = a1 | a3\n 14760: jump @275 if a1 == 0\n      : @274 (gas: 1)\n 14763: trap\n      : @275 (gas: 4)\n 14764: i32 s1 = a0 + 0\n 14766: a1 = 0x20\n 14769: a0 = s1\n 14771: ra = 222, jump @0\n      : @276 [@dyn 111] (gas: 71)\n 14777: a1 = u64 [sp]\n 14779: a1 = reverse a1\n 14781: a2 = u64 [sp + 0x8]\n 14784: a2 = reverse a2\n 14786: a3 = u64 [sp + 0x10]\n 14789: a3 = reverse a3\n 14791: a4 = u64 [sp + 0x18]\n 14794: a4 = reverse a4\n 14796: a5 = a4 >> 0x38\n 14799: u8 [a0 + 0x1f] = a5\n 14802: a5 = a4 >> 0x30\n 14805: u8 [a0 + 0x1e] = a5\n 14808: a5 = a4 >> 0x28\n 14811: u8 [a0 + 0x1d] = a5\n 14814: a5 = a4 >> 0x20\n 14817: u8 [a0 + 0x1c] = a5\n 14820: a5 = a4 >> 0x18\n 14823: u8 [a0 + 0x1b] = a5\n 14826: a5 = a4 >> 0x10\n 14829: u8 [a0 + 0x1a] = a5\n 14832: a5 = a4 >> 0x8\n 14835: u8 [a0 + 0x19] = a5\n 14838: u8 [a0 + 0x18] = a4\n 14841: u8 [a0 + 0x10] = a3\n 14844: a4 = a3 >> 0x38\n 14847: u8 [a0 + 0x17] = a4\n 14850: a4 = a3 >> 0x30\n 14853: u8 [a0 + 0x16] = a4\n 14856: a4 = a3 >> 0x28\n 14859: u8 [a0 + 0x15] = a4\n 14862: a4 = a3 >> 0x20\n 14865: u8 [a0 + 0x14] = a4\n 14868: a4 = a3 >> 0x18\n 14871: u8 [a0 + 0x13] = a4\n 14874: a4 = a3 >> 0x10\n 14877: u8 [a0 + 0x12] = a4\n 14880: a3 = a3 >> 0x8\n 14883: u8 [a0 + 0x11] = a3\n 14886: u8 [a0 + 0x8] = a2\n 14889: a3 = a2 >> 0x38\n 14892: u8 [a0 + 0xf] = a3\n 14895: a3 = a2 >> 0x30\n 14898: u8 [a0 + 0xe] = a3\n 14901: a3 = a2 >> 0x28\n 14904: u8 [a0 + 0xd] = a3\n 14907: a3 = a2 >> 0x20\n 14910: u8 [a0 + 0xc] = a3\n 14913: a3 = a2 >> 0x18\n 14916: u8 [a0 + 0xb] = a3\n 14919: a3 = a2 >> 0x10\n 14922: u8 [a0 + 0xa] = a3\n 14925: a2 = a2 >> 0x8\n 14928: u8 [a0 + 0x9] = a2\n 14931: u8 [a0] = a1\n 14933: a2 = a1 >> 0x38\n 14936: u8 [a0 + 0x7] = a2\n 14939: a2 = a1 >> 0x30\n 14942: u8 [a0 + 0x6] = a2\n 14945: a2 = a1 >> 0x28\n 14948: u8 [a0 + 0x5] = a2\n 14951: a2 = a1 >> 0x20\n 14954: u8 [a0 + 0x4] = a2\n 14957: a2 = a1 >> 0x18\n 14960: u8 [a0 + 0x3] = a2\n 14963: a2 = a1 >> 0x10\n 14966: u8 [a0 + 0x2] = a2\n 14969: a1 = a1 >> 0x8\n 14972: u8 [a0 + 0x1] = a1\n 14975: a1 = 0x20\n 14978: a0 = s1\n 14980: ra = 224, jump @0\n      : @277 [@dyn 112] (gas: 6)\n 14986: i32 a1 = a0 + 0\n 14988: a2 = 0x20\n 14991: a0 = 0\n 14993: ra = 0xe2\n 14997: ecalli 11 // 'seal_return'\n 14999: fallthrough\n      : @278 [@dyn 113] (gas: 13)\n 15000: sp = sp + 0xffffffffffffffb0\n 15003: u64 [sp + 0x48] = ra\n 15006: u64 [sp + 0x40] = s0\n 15009: s0 = sp + 0x50\n 15012: sp = sp & 0xfffffffffffffff0\n 15015: u64 [sp + 48] = 0\n 15018: u64 [sp + 40] = 0\n 15021: u64 [sp + 32] = 0\n 15024: a0 = 0x4e487b7100000000\n 15034: a1 = sp + 0x20\n 15037: u64 [sp + 0x38] = a0\n 15040: a0 = 0\n 15042: ra = 228, jump @23\n      : @279 [@dyn 114] (gas: 7)\n 15048: u64 [sp + 24] = 0\n 15051: u64 [sp + 16] = 0\n 15054: u64 [sp + 0] = 0x22\n 15057: a0 = 0x4\n 15060: a1 = sp\n 15062: u64 [sp + 8] = 0\n 15065: ra = 230, jump @23\n      : @280 [@dyn 115] (gas: 3)\n 15071: a1 = 0x24\n 15074: a0 = 0\n 15076: ra = 232, jump @0\n      : @281 [@dyn 116] (gas: 6)\n 15082: i32 a1 = a0 + 0\n 15084: a0 = 0x1\n 15087: a2 = 0x24\n 15090: ra = 0xea\n 15094: ecalli 11 // 'seal_return'\n 15096: fallthrough\n      : @282 [@dyn 117] (gas: 33)\n 15097: sp = sp + 0xffffffffffffffa0\n 15100: u64 [sp + 0x58] = ra\n 15103: u64 [sp + 0x50] = s0\n 15106: u64 [sp + 0x48] = s1\n 15109: s0 = sp + 0x60\n 15112: sp = sp & 0xfffffffffffffff0\n 15115: a2 = u64 [a1 + 0x10]\n 15118: a5 = u64 [a1 + 0x8]\n 15121: a4 = u64 [a1]\n 15123: a1 = u64 [a1 + 0x18]\n 15126: t0 = a2 << 0x3f\n 15129: a3 = a5 >> 0x1\n 15132: t0 = a3 | t0\n 15135: a3 = a1 << 0x3f\n 15138: a2 = a2 >> 0x1\n 15141: a3 = a3 | a2\n 15144: a5 = a5 << 0x3f\n 15147: a2 = a4 >> 0x1\n 15150: a5 = a5 | a2\n 15153: t1 = a1 >> 0x1\n 15156: a4 = a4 & 0x1\n 15159: a1 = -a4\n 15161: s1 = a4 <u 0x1\n 15164: a2 = a5 & 0x7f\n 15167: t2 = a1 & a3\n 15170: a3 = a1 & t0\n 15173: a2 = a5 if a4 != 0\n 15176: a4 = a1 & t1\n 15179: a1 = a2 <u 0x20\n 15182: a1 = 0 if a3 != 0\n 15184: a5 = t2 | a4\n 15187: a1 = 0 if a5 != 0\n 15189: jump @284 if s1 != a1\n      : @283 (gas: 10)\n 15192: u64 [a0] = a2\n 15194: u64 [a0 + 0x8] = a3\n 15197: u64 [a0 + 0x10] = t2\n 15200: u64 [a0 + 0x18] = a4\n 15203: sp = s0 + 0xffffffffffffffa0\n 15206: ra = u64 [sp + 0x58]\n 15209: s0 = u64 [sp + 0x50]\n 15212: s1 = u64 [sp + 0x48]\n 15215: sp = sp + 0x60\n 15218: ret\n      : @284 (gas: 8)\n 15220: u64 [sp + 48] = 0\n 15223: u64 [sp + 40] = 0\n 15226: u64 [sp + 32] = 0\n 15229: a0 = 0x4e487b7100000000\n 15239: a1 = sp + 0x20\n 15242: u64 [sp + 0x38] = a0\n 15245: a0 = 0\n 15247: ra = 236, jump @23\n      : @285 [@dyn 118] (gas: 7)\n 15253: u64 [sp + 24] = 0\n 15256: u64 [sp + 16] = 0\n 15259: u64 [sp + 0] = 0x22\n 15262: a0 = 0x4\n 15265: a1 = sp\n 15267: u64 [sp + 8] = 0\n 15270: ra = 238, jump @23\n      : @286 [@dyn 119] (gas: 3)\n 15276: a1 = 0x24\n 15279: a0 = 0\n 15281: ra = 240, jump @0\n      : @287 [@dyn 120] (gas: 6)\n 15287: i32 a1 = a0 + 0\n 15289: a0 = 0x1\n 15292: a2 = 0x24\n 15295: ra = 0xf2\n 15299: ecalli 11 // 'seal_return'\n 15301: fallthrough\n      : @288 [@dyn 121] (gas: 17)\n 15302: sp = sp + 0xffffffffffffffa0\n 15305: u64 [sp + 0x58] = ra\n 15308: u64 [sp + 0x50] = s0\n 15311: u64 [sp + 0x48] = s1\n 15314: s0 = sp + 0x60\n 15317: sp = sp & 0xffffffffffffffe0\n 15320: a2 = u64 [a1]\n 15322: u64 [sp + 0x10] = a2\n 15325: a2 = u64 [a1 + 0x8]\n 15328: u64 [sp + 0x8] = a2\n 15331: a2 = u64 [a1 + 0x10]\n 15334: u64 [sp] = a2\n 15336: s1 = u64 [a1 + 0x18]\n 15339: u64 [sp + 0x18] = a0\n 15342: a1 = 0x20\n 15345: a0 = 0\n 15347: ra = 244, jump @0\n      : @289 [@dyn 122] (gas: 70)\n 15353: a1 = reverse s1\n 15355: a2 = u64 [sp]\n 15357: a2 = reverse a2\n 15359: a3 = u64 [sp + 0x8]\n 15362: a3 = reverse a3\n 15364: a4 = u64 [sp + 0x10]\n 15367: a4 = reverse a4\n 15369: a5 = a4 >> 0x38\n 15372: u8 [a0 + 0x1f] = a5\n 15375: a5 = a4 >> 0x30\n 15378: u8 [a0 + 0x1e] = a5\n 15381: a5 = a4 >> 0x28\n 15384: u8 [a0 + 0x1d] = a5\n 15387: a5 = a4 >> 0x20\n 15390: u8 [a0 + 0x1c] = a5\n 15393: a5 = a4 >> 0x18\n 15396: u8 [a0 + 0x1b] = a5\n 15399: a5 = a4 >> 0x10\n 15402: u8 [a0 + 0x1a] = a5\n 15405: a5 = a4 >> 0x8\n 15408: u8 [a0 + 0x19] = a5\n 15411: u8 [a0 + 0x18] = a4\n 15414: a4 = a3 >> 0x38\n 15417: u8 [a0 + 0x17] = a4\n 15420: a4 = a3 >> 0x30\n 15423: u8 [a0 + 0x16] = a4\n 15426: a4 = a3 >> 0x28\n 15429: u8 [a0 + 0x15] = a4\n 15432: a4 = a3 >> 0x20\n 15435: u8 [a0 + 0x14] = a4\n 15438: a4 = a3 >> 0x18\n 15441: u8 [a0 + 0x13] = a4\n 15444: a4 = a3 >> 0x10\n 15447: u8 [a0 + 0x12] = a4\n 15450: a4 = a3 >> 0x8\n 15453: u8 [a0 + 0x11] = a4\n 15456: u8 [a0 + 0x10] = a3\n 15459: a3 = a2 >> 0x38\n 15462: u8 [a0 + 0xf] = a3\n 15465: a3 = a2 >> 0x30\n 15468: u8 [a0 + 0xe] = a3\n 15471: a3 = a2 >> 0x28\n 15474: u8 [a0 + 0xd] = a3\n 15477: a3 = a2 >> 0x20\n 15480: u8 [a0 + 0xc] = a3\n 15483: a3 = a2 >> 0x18\n 15486: u8 [a0 + 0xb] = a3\n 15489: a3 = a2 >> 0x10\n 15492: u8 [a0 + 0xa] = a3\n 15495: a3 = a2 >> 0x8\n 15498: u8 [a0 + 0x9] = a3\n 15501: u8 [a0 + 0x8] = a2\n 15504: a2 = a1 >> 0x38\n 15507: u8 [a0 + 0x7] = a2\n 15510: a2 = a1 >> 0x30\n 15513: u8 [a0 + 0x6] = a2\n 15516: a2 = a1 >> 0x28\n 15519: u8 [a0 + 0x5] = a2\n 15522: a2 = a1 >> 0x20\n 15525: u8 [a0 + 0x4] = a2\n 15528: a2 = a1 >> 0x18\n 15531: u8 [a0 + 0x3] = a2\n 15534: a2 = a1 >> 0x10\n 15537: u8 [a0 + 0x2] = a2\n 15540: a2 = a1 >> 0x8\n 15543: u8 [a0 + 0x1] = a2\n 15546: u8 [a0] = a1\n 15548: a1 = 0x20\n 15551: a0 = 0\n 15553: ra = 246, jump @0\n      : @290 [@dyn 123] (gas: 23)\n 15559: i32 a0 = a0 + 0\n 15561: i32 a2 = sp + 0x20\n 15564: a1 = 0x20\n 15567: ecalli 8 // 'hash_keccak_256'\n 15569: a0 = u64 [sp + 0x38]\n 15572: a1 = u64 [sp + 0x30]\n 15575: a2 = u64 [sp + 0x28]\n 15578: a3 = u64 [sp + 0x20]\n 15581: a0 = reverse a0\n 15583: a1 = reverse a1\n 15585: a2 = reverse a2\n 15587: a3 = reverse a3\n 15589: a4 = u64 [sp + 0x18]\n 15592: u64 [a4 + 0x18] = a3\n 15595: u64 [a4 + 0x10] = a2\n 15598: u64 [a4 + 0x8] = a1\n 15601: u64 [a4] = a0\n 15603: sp = s0 + 0xffffffffffffffa0\n 15606: ra = u64 [sp + 0x58]\n 15609: s0 = u64 [sp + 0x50]\n 15612: s1 = u64 [sp + 0x48]\n 15615: sp = sp + 0x60\n 15618: ret\n      : @291 (gas: 39)\n 15620: sp = sp + 0xfffffffffffffea0\n 15624: u64 [sp + 0x158] = ra\n 15628: u64 [sp + 0x150] = s0\n 15632: u64 [sp + 0x148] = s1\n 15636: s0 = sp + 0x160\n 15640: sp = sp & 0xffffffffffffffe0\n 15643: u64 [sp + 0x8] = a0\n 15646: a0 = u64 [a2 + 0x18]\n 15649: u64 [sp + 0xb0] = a0\n 15653: a0 = u64 [a2 + 0x10]\n 15656: u64 [sp + 0xa8] = a0\n 15660: a0 = u64 [a2 + 0x8]\n 15663: u64 [sp + 0xa0] = a0\n 15667: a0 = u64 [a2]\n 15669: u64 [sp + 0xb8] = a0\n 15673: a4 = u64 [a1 + 0x18]\n 15676: a3 = u64 [a1 + 0x10]\n 15679: a2 = u64 [a1 + 0x8]\n 15682: a0 = u64 [a1]\n 15684: u64 [sp + 0x18] = a4\n 15687: u64 [sp + 0x118] = a4\n 15691: u64 [sp + 0x20] = a3\n 15694: u64 [sp + 0x110] = a3\n 15698: u64 [sp + 0x68] = a2\n 15701: u64 [sp + 0x108] = a2\n 15705: u64 [sp + 0x70] = a0\n 15708: u64 [sp + 0x100] = a0\n 15712: u64 [sp + 312] = 0\n 15716: u64 [sp + 304] = 0\n 15720: u64 [sp + 296] = 0\n 15724: u64 [sp + 288] = 0\n 15728: u32 [sp + 320] = 0x20\n 15733: i32 a1 = sp + 0x100\n 15737: i32 a3 = sp + 0x120\n 15741: i32 a4 = sp + 0x140\n 15745: a2 = 0xffffffffffffffff\n 15748: a0 = 0\n 15750: ecalli 7 // 'get_storage'\n 15752: fallthrough\n      : @292 (gas: 32)\n 15753: t0 = u64 [sp + 0x130]\n 15757: t1 = u64 [sp + 0x128]\n 15761: t2 = u64 [sp + 0x138]\n 15765: a5 = u64 [sp + 0x120]\n 15769: a0 = t0 << 0x3f\n 15772: a1 = t1 >> 0x1\n 15775: a0 = a0 | a1\n 15778: a1 = t2 << 0x3f\n 15781: a2 = t0 >> 0x1\n 15784: a1 = a1 | a2\n 15787: a2 = t1 << 0x3f\n 15790: a3 = a5 >> 0x1\n 15793: a4 = a3 | a2\n 15796: a2 = t2 >> 0x1\n 15799: u64 [sp + 0x78] = a5\n 15802: a5 = a5 & 0x1\n 15805: a3 = -a5\n 15807: ra = a4 & 0x7f\n 15810: a1 = a1 & a3\n 15813: s1 = a3 & a0\n 15816: a4 = ra if a5 == 0\n 15819: a2 = a2 & a3\n 15822: u64 [sp + 0x58] = a4\n 15825: a0 = a4 <u 0x20\n 15828: u64 [sp + 0x48] = s1\n 15831: a0 = 0 if s1 != 0\n 15833: u64 [sp + 0x50] = a1\n 15836: u64 [sp + 0x40] = a2\n 15839: a1 = a1 | a2\n 15842: a0 = 0 if a1 != 0\n 15844: a1 = a5 <u 0x1\n 15847: jump @311 if a1 != a0\n      : @293 (gas: 17)\n 15851: u64 [sp + 0x98] = a5\n 15855: u64 [sp + 0x10] = ra\n 15858: u64 [sp + 0x80] = t1\n 15862: u64 [sp + 0x88] = t0\n 15866: u64 [sp + 0x90] = t2\n 15870: a0 = u64 [sp + 0xb8]\n 15874: a2 = u64 [sp + 0xa8]\n 15878: a0 = a0 | a2\n 15881: a1 = u64 [sp + 0xb0]\n 15885: a3 = u64 [sp + 0xa0]\n 15889: a1 = a1 | a3\n 15892: a0 = a0 | a1\n 15895: a0 = a0 >> 0x20\n 15898: a1 = a1 | a2\n 15901: a1 = a1 << 0x20\n 15904: a0 = a0 | a1\n 15907: jump @310 if a0 != 0\n      : @294 (gas: 4)\n 15911: s1 = u64 [sp + 0xb8]\n 15915: i32 a0 = s1 + 0\n 15917: a1 = 0x20\n 15920: ra = 248, jump @0\n      : @295 [@dyn 124] (gas: 85)\n 15926: a1 = u64 [sp + 0x40]\n 15929: a1 = reverse a1\n 15931: a2 = u64 [sp + 0x58]\n 15934: a2 = reverse a2\n 15936: a3 = a2 >> 0x38\n 15939: u8 [a0 + 0x1f] = a3\n 15942: a3 = a2 >> 0x30\n 15945: u8 [a0 + 0x1e] = a3\n 15948: a3 = a2 >> 0x28\n 15951: u8 [a0 + 0x1d] = a3\n 15954: a3 = a2 >> 0x20\n 15957: u8 [a0 + 0x1c] = a3\n 15960: a3 = a2 >> 0x18\n 15963: u8 [a0 + 0x1b] = a3\n 15966: a3 = a2 >> 0x10\n 15969: u8 [a0 + 0x1a] = a3\n 15972: a3 = a2 >> 0x8\n 15975: u8 [a0 + 0x19] = a3\n 15978: a3 = u64 [sp + 0x48]\n 15981: a3 = reverse a3\n 15983: u8 [a0 + 0x18] = a2\n 15986: a2 = a3 >> 0x38\n 15989: u8 [a0 + 0x17] = a2\n 15992: a2 = a3 >> 0x30\n 15995: u8 [a0 + 0x16] = a2\n 15998: a2 = a3 >> 0x28\n 16001: u8 [a0 + 0x15] = a2\n 16004: a2 = a3 >> 0x20\n 16007: u8 [a0 + 0x14] = a2\n 16010: a2 = a3 >> 0x18\n 16013: u8 [a0 + 0x13] = a2\n 16016: a2 = a3 >> 0x10\n 16019: u8 [a0 + 0x12] = a2\n 16022: a2 = u64 [sp + 0x50]\n 16025: a2 = reverse a2\n 16027: u8 [a0 + 0x10] = a3\n 16030: a3 = a3 >> 0x8\n 16033: u8 [a0 + 0x11] = a3\n 16036: u8 [a0 + 0x8] = a2\n 16039: a3 = a2 >> 0x38\n 16042: u8 [a0 + 0xf] = a3\n 16045: a3 = a2 >> 0x30\n 16048: u8 [a0 + 0xe] = a3\n 16051: a3 = a2 >> 0x28\n 16054: u8 [a0 + 0xd] = a3\n 16057: a3 = a2 >> 0x20\n 16060: u8 [a0 + 0xc] = a3\n 16063: a3 = a2 >> 0x18\n 16066: u8 [a0 + 0xb] = a3\n 16069: a3 = a2 >> 0x10\n 16072: u8 [a0 + 0xa] = a3\n 16075: a2 = a2 >> 0x8\n 16078: u8 [a0 + 0x9] = a2\n 16081: u8 [a0] = a1\n 16083: a2 = a1 >> 0x38\n 16086: u8 [a0 + 0x7] = a2\n 16089: a2 = a1 >> 0x30\n 16092: u8 [a0 + 0x6] = a2\n 16095: a2 = a1 >> 0x28\n 16098: u8 [a0 + 0x5] = a2\n 16101: a2 = a1 >> 0x20\n 16104: u8 [a0 + 0x4] = a2\n 16107: a2 = a1 >> 0x18\n 16110: u8 [a0 + 0x3] = a2\n 16113: a2 = a1 >> 0x10\n 16116: u8 [a0 + 0x2] = a2\n 16119: a1 = a1 >> 0x8\n 16122: u8 [a0 + 0x1] = a1\n 16125: a0 = s1 + 0x20\n 16128: u64 [sp + 0x60] = a0\n 16131: a0 = a0 <u s1\n 16134: a3 = u64 [sp + 0xa0]\n 16138: a1 = a3 + a0\n 16141: u64 [sp + 0x28] = a1\n 16144: a1 = a1 <u a3\n 16147: a1 = a0 if a0 == 0\n 16150: a0 = u64 [sp + 0xa8]\n 16154: a1 = a1 + a0\n 16157: u64 [sp + 0x30] = a1\n 16160: a0 = a1 <u a0\n 16163: a1 = u64 [sp + 0xb0]\n 16167: a0 = a0 + a1\n 16170: u64 [sp + 0x38] = a0\n 16173: a0 = u64 [sp + 0x98]\n 16177: jump @299 if a0 != 0\n      : @296 (gas: 9)\n 16181: a0 = u64 [sp + 0xb0]\n 16185: a1 = u64 [sp + 0xa8]\n 16189: a0 = a0 | a1\n 16192: a1 = 0xffffffe0\n 16202: a2 = u64 [sp + 0xb8]\n 16206: a1 = a2 <u a1\n 16209: a1 = 0 if a3 != 0\n 16211: a1 = 0 if a0 != 0\n 16213: jump @310 if a1 == 0\n      : @297 (gas: 5)\n 16217: a0 = u64 [sp + 0x78]\n 16220: s1 = a0 & 0xffffffffffffff00\n 16224: a0 = i32 [sp + 0x60]\n 16227: a1 = 0x20\n 16230: ra = 250, jump @0\n      : @298 [@dyn 125] (gas: 73)\n 16236: t0 = 0\n 16238: t1 = 0\n 16240: u64 [sp + 176] = 0\n 16244: a3 = reverse s1\n 16246: a4 = a3 >> 0x30\n 16249: u8 [a0 + 0x1e] = a4\n 16252: a4 = a3 >> 0x28\n 16255: u8 [a0 + 0x1d] = a4\n 16258: a4 = a3 >> 0x20\n 16261: u8 [a0 + 0x1c] = a4\n 16264: a4 = a3 >> 0x18\n 16267: u8 [a0 + 0x1b] = a4\n 16270: a4 = a3 >> 0x10\n 16273: u8 [a0 + 0x1a] = a4\n 16276: a1 = u64 [sp + 0x80]\n 16280: a4 = reverse a1\n 16282: u8 [a0 + 0x18] = a3\n 16285: a3 = a3 >> 0x8\n 16288: u8 [a0 + 0x19] = a3\n 16291: a3 = a4 >> 0x38\n 16294: u8 [a0 + 0x17] = a3\n 16297: a3 = a4 >> 0x30\n 16300: u8 [a0 + 0x16] = a3\n 16303: a3 = a4 >> 0x28\n 16306: u8 [a0 + 0x15] = a3\n 16309: a3 = a4 >> 0x20\n 16312: u8 [a0 + 0x14] = a3\n 16315: a3 = a4 >> 0x18\n 16318: u8 [a0 + 0x13] = a3\n 16321: a3 = a4 >> 0x10\n 16324: u8 [a0 + 0x12] = a3\n 16327: a1 = u64 [sp + 0x88]\n 16331: a3 = reverse a1\n 16333: u8 [a0 + 0x10] = a4\n 16336: a4 = a4 >> 0x8\n 16339: u8 [a0 + 0x11] = a4\n 16342: a4 = a3 >> 0x38\n 16345: u8 [a0 + 0xf] = a4\n 16348: a4 = a3 >> 0x30\n 16351: u8 [a0 + 0xe] = a4\n 16354: a4 = a3 >> 0x28\n 16357: u8 [a0 + 0xd] = a4\n 16360: a4 = a3 >> 0x20\n 16363: u8 [a0 + 0xc] = a4\n 16366: a4 = a3 >> 0x18\n 16369: u8 [a0 + 0xb] = a4\n 16372: a4 = a3 >> 0x10\n 16375: u8 [a0 + 0xa] = a4\n 16378: a1 = u64 [sp + 0x90]\n 16382: a4 = reverse a1\n 16384: u8 [a0 + 31] = 0\n 16387: u8 [a0 + 0x8] = a3\n 16390: a3 = a3 >> 0x8\n 16393: u8 [a0 + 0x9] = a3\n 16396: u8 [a0] = a4\n 16398: a3 = a4 >> 0x38\n 16401: u8 [a0 + 0x7] = a3\n 16404: a3 = a4 >> 0x30\n 16407: u8 [a0 + 0x6] = a3\n 16410: a3 = a4 >> 0x28\n 16413: u8 [a0 + 0x5] = a3\n 16416: a3 = a4 >> 0x20\n 16419: u8 [a0 + 0x4] = a3\n 16422: a3 = a4 >> 0x18\n 16425: u8 [a0 + 0x3] = a3\n 16428: a3 = a4 >> 0x10\n 16431: u8 [a0 + 0x2] = a3\n 16434: a4 = a4 >> 0x8\n 16437: u8 [a0 + 0x1] = a4\n 16440: a0 = u64 [sp + 0x10]\n 16443: a0 = a0 >u 0\n 16445: ra = a0 << 0x5\n 16448: jump @309\n      : @299 (gas: 3)\n 16451: a1 = 0x20\n 16454: a0 = 0\n 16456: ra = 252, jump @0\n      : @300 [@dyn 126] (gas: 71)\n 16462: a1 = u64 [sp + 0x18]\n 16465: a1 = reverse a1\n 16467: a2 = u64 [sp + 0x20]\n 16470: a2 = reverse a2\n 16472: a3 = u64 [sp + 0x68]\n 16475: a3 = reverse a3\n 16477: a4 = u64 [sp + 0x70]\n 16480: a4 = reverse a4\n 16482: a5 = a4 >> 0x38\n 16485: u8 [a0 + 0x1f] = a5\n 16488: a5 = a4 >> 0x30\n 16491: u8 [a0 + 0x1e] = a5\n 16494: a5 = a4 >> 0x28\n 16497: u8 [a0 + 0x1d] = a5\n 16500: a5 = a4 >> 0x20\n 16503: u8 [a0 + 0x1c] = a5\n 16506: a5 = a4 >> 0x18\n 16509: u8 [a0 + 0x1b] = a5\n 16512: a5 = a4 >> 0x10\n 16515: u8 [a0 + 0x1a] = a5\n 16518: a5 = a4 >> 0x8\n 16521: u8 [a0 + 0x19] = a5\n 16524: u8 [a0 + 0x18] = a4\n 16527: u8 [a0 + 0x10] = a3\n 16530: a4 = a3 >> 0x38\n 16533: u8 [a0 + 0x17] = a4\n 16536: a4 = a3 >> 0x30\n 16539: u8 [a0 + 0x16] = a4\n 16542: a4 = a3 >> 0x28\n 16545: u8 [a0 + 0x15] = a4\n 16548: a4 = a3 >> 0x20\n 16551: u8 [a0 + 0x14] = a4\n 16554: a4 = a3 >> 0x18\n 16557: u8 [a0 + 0x13] = a4\n 16560: a4 = a3 >> 0x10\n 16563: u8 [a0 + 0x12] = a4\n 16566: a3 = a3 >> 0x8\n 16569: u8 [a0 + 0x11] = a3\n 16572: u8 [a0 + 0x8] = a2\n 16575: a3 = a2 >> 0x38\n 16578: u8 [a0 + 0xf] = a3\n 16581: a3 = a2 >> 0x30\n 16584: u8 [a0 + 0xe] = a3\n 16587: a3 = a2 >> 0x28\n 16590: u8 [a0 + 0xd] = a3\n 16593: a3 = a2 >> 0x20\n 16596: u8 [a0 + 0xc] = a3\n 16599: a3 = a2 >> 0x18\n 16602: u8 [a0 + 0xb] = a3\n 16605: a3 = a2 >> 0x10\n 16608: u8 [a0 + 0xa] = a3\n 16611: a2 = a2 >> 0x8\n 16614: u8 [a0 + 0x9] = a2\n 16617: u8 [a0] = a1\n 16619: a2 = a1 >> 0x38\n 16622: u8 [a0 + 0x7] = a2\n 16625: a2 = a1 >> 0x30\n 16628: u8 [a0 + 0x6] = a2\n 16631: a2 = a1 >> 0x28\n 16634: u8 [a0 + 0x5] = a2\n 16637: a2 = a1 >> 0x20\n 16640: u8 [a0 + 0x4] = a2\n 16643: a2 = a1 >> 0x18\n 16646: u8 [a0 + 0x3] = a2\n 16649: a2 = a1 >> 0x10\n 16652: u8 [a0 + 0x2] = a2\n 16655: a1 = a1 >> 0x8\n 16658: u8 [a0 + 0x1] = a1\n 16661: a1 = 0x20\n 16664: a0 = 0\n 16666: ra = 254, jump @0\n      : @301 [@dyn 127] (gas: 5)\n 16672: i32 a0 = a0 + 0\n 16674: i32 a2 = sp + 0x120\n 16678: a1 = 0x20\n 16681: ecalli 8 // 'hash_keccak_256'\n 16683: fallthrough\n      : @302 (gas: 9)\n 16684: a0 = u64 [sp + 0x78]\n 16687: a0 = a0 <u 0x2\n 16690: a1 = u64 [sp + 0x80]\n 16694: a0 = 0 if a1 != 0\n 16696: a1 = u64 [sp + 0x90]\n 16700: a2 = u64 [sp + 0x88]\n 16704: a1 = a1 | a2\n 16707: a0 = 0 if a1 != 0\n 16709: jump @304 if a0 == 0\n      : @303 (gas: 5)\n 16712: ra = 0\n 16714: t0 = 0\n 16716: t1 = 0\n 16718: u64 [sp + 176] = 0\n 16722: jump @309\n      : @304 (gas: 19)\n 16725: u64 [sp + 168] = 0\n 16729: u64 [sp + 160] = 0\n 16733: s1 = 0\n 16735: u64 [sp + 176] = 0\n 16739: a0 = u64 [sp + 0x120]\n 16743: a1 = u64 [sp + 0x128]\n 16747: a2 = u64 [sp + 0x130]\n 16751: a3 = u64 [sp + 0x138]\n 16755: a0 = reverse a0\n 16757: a5 = reverse a1\n 16759: a1 = reverse a2\n 16761: t2 = reverse a3\n 16763: i32 a3 = sp + 0x100\n 16767: u64 [sp + 0x20] = a3\n 16770: i32 a3 = sp + 0x120\n 16774: u64 [sp + 0x18] = a3\n 16777: i32 a3 = sp + 0x140\n 16781: u64 [sp + 0x10] = a3\n 16784: fallthrough\n      : @305 (gas: 20)\n 16785: u64 [sp + 0x88] = a5\n 16789: u64 [sp + 0x110] = a5\n 16793: u64 [sp + 0xb8] = a1\n 16797: u64 [sp + 0x108] = a1\n 16801: u64 [sp + 0x90] = t2\n 16805: u64 [sp + 0x100] = t2\n 16809: u64 [sp + 0x98] = a0\n 16813: u64 [sp + 0x118] = a0\n 16817: u64 [sp + 312] = 0\n 16821: u64 [sp + 304] = 0\n 16825: u64 [sp + 296] = 0\n 16829: u64 [sp + 288] = 0\n 16833: u32 [sp + 320] = 0x20\n 16838: a2 = 0xffffffffffffffff\n 16841: a0 = 0\n 16843: a1 = u64 [sp + 0x20]\n 16846: a3 = u64 [sp + 0x18]\n 16849: a4 = u64 [sp + 0x10]\n 16852: ecalli 7 // 'get_storage'\n 16854: fallthrough\n      : @306 (gas: 30)\n 16855: a0 = u64 [sp + 0x60]\n 16858: a1 = u64 [sp + 0xa8]\n 16862: a0 = a0 + a1\n 16865: a1 = a0 <u a1\n 16868: a2 = u64 [sp + 0x28]\n 16871: a4 = u64 [sp + 0xa0]\n 16875: a2 = a2 + a4\n 16878: a2 = a2 + a1\n 16881: a3 = a2 ^ a4\n 16884: a4 = a2 <u a4\n 16887: a4 = a1 if a3 == 0\n 16890: a1 = u64 [sp + 0x30]\n 16893: a1 = a1 + s1\n 16896: u64 [sp + 0x80] = s1\n 16900: a3 = a1 <u s1\n 16903: a5 = u64 [sp + 0x38]\n 16906: s1 = u64 [sp + 0xb0]\n 16910: a5 = a5 + s1\n 16913: a3 = a3 + a5\n 16916: a4 = a4 + a1\n 16919: a1 = a4 <u a1\n 16922: a1 = a1 + a3\n 16925: a1 = a1 | a2\n 16928: a2 = a0 | a4\n 16931: a2 = a2 | a1\n 16934: a1 = a1 | a4\n 16937: a2 = a2 >> 0x20\n 16940: a1 = a1 << 0x20\n 16943: a1 = a1 | a2\n 16946: jump @310 if a1 != 0\n      : @307 (gas: 10)\n 16950: a1 = u64 [sp + 0x138]\n 16954: u64 [sp + 0x70] = a1\n 16957: a1 = u64 [sp + 0x130]\n 16961: u64 [sp + 0x78] = a1\n 16964: a1 = u64 [sp + 0x128]\n 16968: u64 [sp + 0x68] = a1\n 16971: s1 = u64 [sp + 0x120]\n 16975: i32 a0 = a0 + 0\n 16977: a1 = 0x20\n 16980: ra = 256, jump @0\n      : @308 [@dyn 128] (gas: 115)\n 16986: a1 = reverse s1\n 16988: a2 = a1 >> 0x38\n 16991: u8 [a0 + 0x1f] = a2\n 16994: a2 = a1 >> 0x30\n 16997: u8 [a0 + 0x1e] = a2\n 17000: a2 = a1 >> 0x28\n 17003: u8 [a0 + 0x1d] = a2\n 17006: a2 = a1 >> 0x20\n 17009: u8 [a0 + 0x1c] = a2\n 17012: a2 = a1 >> 0x18\n 17015: u8 [a0 + 0x1b] = a2\n 17018: a2 = a1 >> 0x10\n 17021: u8 [a0 + 0x1a] = a2\n 17024: a2 = a1 >> 0x8\n 17027: u8 [a0 + 0x19] = a2\n 17030: a2 = u64 [sp + 0x68]\n 17033: a2 = reverse a2\n 17035: u8 [a0 + 0x18] = a1\n 17038: a1 = a2 >> 0x38\n 17041: u8 [a0 + 0x17] = a1\n 17044: a1 = a2 >> 0x30\n 17047: u8 [a0 + 0x16] = a1\n 17050: a1 = a2 >> 0x28\n 17053: u8 [a0 + 0x15] = a1\n 17056: a1 = a2 >> 0x20\n 17059: u8 [a0 + 0x14] = a1\n 17062: a1 = a2 >> 0x18\n 17065: u8 [a0 + 0x13] = a1\n 17068: a1 = a2 >> 0x10\n 17071: u8 [a0 + 0x12] = a1\n 17074: a1 = u64 [sp + 0x70]\n 17077: a1 = reverse a1\n 17079: a3 = u64 [sp + 0x78]\n 17082: a3 = reverse a3\n 17084: u8 [a0 + 0x10] = a2\n 17087: a2 = a2 >> 0x8\n 17090: u8 [a0 + 0x11] = a2\n 17093: u8 [a0 + 0x8] = a3\n 17096: a2 = a3 >> 0x38\n 17099: u8 [a0 + 0xf] = a2\n 17102: a2 = a3 >> 0x30\n 17105: u8 [a0 + 0xe] = a2\n 17108: a2 = a3 >> 0x28\n 17111: u8 [a0 + 0xd] = a2\n 17114: a2 = a3 >> 0x20\n 17117: u8 [a0 + 0xc] = a2\n 17120: a2 = a3 >> 0x18\n 17123: u8 [a0 + 0xb] = a2\n 17126: a2 = a3 >> 0x10\n 17129: u8 [a0 + 0xa] = a2\n 17132: a3 = a3 >> 0x8\n 17135: u8 [a0 + 0x9] = a3\n 17138: u8 [a0] = a1\n 17140: a2 = a1 >> 0x38\n 17143: u8 [a0 + 0x7] = a2\n 17146: a2 = a1 >> 0x30\n 17149: u8 [a0 + 0x6] = a2\n 17152: a2 = a1 >> 0x28\n 17155: u8 [a0 + 0x5] = a2\n 17158: a2 = a1 >> 0x20\n 17161: u8 [a0 + 0x4] = a2\n 17164: a2 = a1 >> 0x18\n 17167: u8 [a0 + 0x3] = a2\n 17170: a2 = a1 >> 0x10\n 17173: u8 [a0 + 0x2] = a2\n 17176: a1 = a1 >> 0x8\n 17179: u8 [a0 + 0x1] = a1\n 17182: t2 = u64 [sp + 0x90]\n 17186: t2 = t2 + 0x1\n 17189: a0 = t2 <u 0x1\n 17192: a1 = u64 [sp + 0xb8]\n 17196: a1 = a1 + a0\n 17199: u64 [sp + 0xb8] = a1\n 17203: a0 = u64 [sp + 0xa8]\n 17207: ra = a0 + 0x20\n 17210: a2 = ra <u a0\n 17213: a0 = u64 [sp + 0xa0]\n 17217: t0 = a0 + a2\n 17220: a3 = t0 <u a0\n 17223: a3 = a2 if a2 == 0\n 17226: a0 = u64 [sp + 0x80]\n 17230: t1 = a0 + a3\n 17233: a3 = t1 <u a0\n 17236: a5 = u64 [sp + 0xb0]\n 17240: a5 = a5 + a3\n 17243: a1 = u64 [sp + 0x50]\n 17246: a0 = t1 <u a1\n 17249: u64 [sp + 0xa8] = a0\n 17253: a2 = u64 [sp + 0x58]\n 17256: a4 = ra <u a2\n 17259: a2 = u64 [sp + 0x48]\n 17262: s1 = t0 ^ a2\n 17265: a3 = t0 <u a2\n 17268: a3 = a4 if s1 == 0\n 17271: a2 = u64 [sp + 0x40]\n 17274: a0 = a5 ^ a2\n 17277: u64 [sp + 0xb0] = a5\n 17281: s1 = a5 <u a2\n 17284: a2 = u64 [sp + 0xa8]\n 17288: s1 = a2 if a0 == 0\n 17291: a4 = t1 ^ a1\n 17294: a1 = u64 [sp + 0xb8]\n 17298: a0 = a0 | a4\n 17301: a5 = t2 | a1\n 17304: a5 = a5 <u 0x1\n 17307: a4 = u64 [sp + 0x88]\n 17311: a5 = a5 + a4\n 17314: a4 = a5 <u a4\n 17317: a3 = s1 if a0 != 0\n 17320: a0 = u64 [sp + 0x98]\n 17324: a0 = a0 + a4\n 17327: u64 [sp + 0xa8] = ra\n 17331: u64 [sp + 0xa0] = t0\n 17335: s1 = t1\n 17337: jump @305 if a3 != 0\n      : @309 (gas: 30)\n 17341: a3 = u64 [sp + 0x60]\n 17344: a3 = a3 + ra\n 17347: a0 = a3 <u ra\n 17350: a4 = u64 [sp + 0x28]\n 17353: a4 = a4 + t0\n 17356: a4 = a4 + a0\n 17359: a5 = a4 ^ t0\n 17362: a1 = a4 <u t0\n 17365: a1 = a0 if a5 == 0\n 17368: a0 = u64 [sp + 0x30]\n 17371: a0 = a0 + t1\n 17374: a1 = a1 + a0\n 17377: a5 = a1 <u a0\n 17380: a0 = a0 <u t1\n 17383: a2 = u64 [sp + 0x38]\n 17386: s1 = u64 [sp + 0xb0]\n 17390: a2 = a2 + s1\n 17393: a0 = a0 + a2\n 17396: a0 = a0 + a5\n 17399: a2 = u64 [sp + 0x8]\n 17402: u64 [a2] = a3\n 17404: u64 [a2 + 0x8] = a4\n 17407: u64 [a2 + 0x10] = a1\n 17410: u64 [a2 + 0x18] = a0\n 17413: sp = s0 + 0xfffffffffffffea0\n 17417: ra = u64 [sp + 0x158]\n 17421: s0 = u64 [sp + 0x150]\n 17425: s1 = u64 [sp + 0x148]\n 17429: sp = sp + 0x160\n 17433: ret\n      : @310 (gas: 1)\n 17435: trap\n      : @311 (gas: 8)\n 17436: u64 [sp + 240] = 0\n 17440: u64 [sp + 232] = 0\n 17444: u64 [sp + 224] = 0\n 17448: a0 = 0x4e487b7100000000\n 17458: a1 = sp + 0xe0\n 17462: u64 [sp + 0xf8] = a0\n 17466: a0 = 0\n 17468: ra = 258, jump @23\n      : @312 [@dyn 129] (gas: 7)\n 17474: u64 [sp + 216] = 0\n 17478: u64 [sp + 208] = 0\n 17482: u64 [sp + 192] = 0x22\n 17487: a0 = 0x4\n 17490: a1 = sp + 0xc0\n 17494: u64 [sp + 200] = 0\n 17498: ra = 260, jump @23\n      : @313 [@dyn 130] (gas: 3)\n 17504: a1 = 0x24\n 17507: a0 = 0\n 17509: ra = 262, jump @0\n      : @314 [@dyn 131] (gas: 6)\n 17515: i32 a1 = a0 + 0\n 17517: a0 = 0x1\n 17520: a2 = 0x24\n 17523: ra = 0x108\n 17527: ecalli 11 // 'seal_return'\n 17529: fallthrough\n      : @315 [@dyn 132] (gas: 27)\n 17530: sp = sp + 0xffffffffffffff80\n 17533: u64 [sp + 0x78] = ra\n 17536: u64 [sp + 0x70] = s0\n 17539: u64 [sp + 0x68] = s1\n 17542: s0 = sp + 0x80\n 17546: sp = sp & 0xfffffffffffffff0\n 17549: t0 = u64 [a1]\n 17551: t1 = u64 [a1 + 0x8]\n 17554: t2 = u64 [a1 + 0x10]\n 17557: a1 = u64 [a1 + 0x18]\n 17560: a3 = u64 [a2]\n 17562: a4 = u64 [a2 + 0x8]\n 17565: a5 = u64 [a2 + 0x10]\n 17568: a2 = u64 [a2 + 0x18]\n 17571: s1 = a0\n 17573: u64 [sp + 0x18] = a2\n 17576: u64 [sp + 0x10] = a5\n 17579: u64 [sp + 0x8] = a4\n 17582: u64 [sp] = a3\n 17584: u64 [sp + 0x38] = a1\n 17587: u64 [sp + 0x30] = t2\n 17590: u64 [sp + 0x28] = t1\n 17593: a0 = sp + 0x40\n 17596: a1 = sp + 0x20\n 17599: a2 = sp\n 17601: u64 [sp + 0x20] = t0\n 17604: ra = 266, jump @291\n      : @316 [@dyn 133] (gas: 14)\n 17610: a0 = u64 [sp + 0x50]\n 17613: a1 = u64 [sp + 0x58]\n 17616: a2 = u64 [sp + 0x40]\n 17619: a3 = u64 [sp + 0x48]\n 17622: u64 [s1 + 0x10] = a0\n 17625: u64 [s1 + 0x18] = a1\n 17628: u64 [s1] = a2\n 17630: u64 [s1 + 0x8] = a3\n 17633: sp = s0 + 0xffffffffffffff80\n 17636: ra = u64 [sp + 0x78]\n 17639: s0 = u64 [sp + 0x70]\n 17642: s1 = u64 [sp + 0x68]\n 17645: sp = sp + 0x80\n 17649: ret\n      : @317 [@dyn 134] (gas: 111)\n 17651: a1 = u8 [a0 + 0x1]\n 17654: a2 = u8 [a0]\n 17656: a3 = u8 [a0 + 0x2]\n 17659: a4 = u8 [a0 + 0x3]\n 17662: a1 = a1 << 0x8\n 17665: a1 = a1 | a2\n 17668: a3 = a3 << 0x10\n 17671: a4 = a4 << 0x18\n 17674: a3 = a3 | a4\n 17677: a1 = a1 | a3\n 17680: a2 = u8 [a0 + 0x5]\n 17683: a3 = u8 [a0 + 0x4]\n 17686: a4 = u8 [a0 + 0x6]\n 17689: a5 = u8 [a0 + 0x7]\n 17692: a2 = a2 << 0x8\n 17695: a2 = a2 | a3\n 17698: a4 = a4 << 0x10\n 17701: a5 = a5 << 0x18\n 17704: a4 = a4 | a5\n 17707: a2 = a2 | a4\n 17710: a2 = a2 << 0x20\n 17713: t0 = a2 | a1\n 17716: a2 = u8 [a0 + 0x9]\n 17719: a3 = u8 [a0 + 0x8]\n 17722: a4 = u8 [a0 + 0xa]\n 17725: a5 = u8 [a0 + 0xb]\n 17728: a2 = a2 << 0x8\n 17731: a2 = a2 | a3\n 17734: a4 = a4 << 0x10\n 17737: a5 = a5 << 0x18\n 17740: a4 = a4 | a5\n 17743: a2 = a2 | a4\n 17746: a3 = u8 [a0 + 0xd]\n 17749: a4 = u8 [a0 + 0xc]\n 17752: a5 = u8 [a0 + 0xe]\n 17755: s1 = u8 [a0 + 0xf]\n 17758: a3 = a3 << 0x8\n 17761: a3 = a3 | a4\n 17764: a5 = a5 << 0x10\n 17767: s1 = s1 << 0x18\n 17770: a5 = a5 | s1\n 17773: a3 = a3 | a5\n 17776: a3 = a3 << 0x20\n 17779: a2 = a2 | a3\n 17782: a3 = u8 [a0 + 0x11]\n 17785: a4 = u8 [a0 + 0x10]\n 17788: a5 = u8 [a0 + 0x12]\n 17791: s1 = u8 [a0 + 0x13]\n 17794: a3 = a3 << 0x8\n 17797: a3 = a3 | a4\n 17800: a5 = a5 << 0x10\n 17803: s1 = s1 << 0x18\n 17806: a5 = a5 | s1\n 17809: a3 = a3 | a5\n 17812: a4 = u8 [a0 + 0x15]\n 17815: a5 = u8 [a0 + 0x14]\n 17818: s1 = u8 [a0 + 0x16]\n 17821: a1 = u8 [a0 + 0x17]\n 17824: a4 = a4 << 0x8\n 17827: a4 = a4 | a5\n 17830: s1 = s1 << 0x10\n 17833: a1 = a1 << 0x18\n 17836: a1 = a1 | s1\n 17839: a1 = a1 | a4\n 17842: a1 = a1 << 0x20\n 17845: a3 = a3 | a1\n 17848: a1 = u8 [a0 + 0x19]\n 17851: a4 = u8 [a0 + 0x18]\n 17854: a5 = u8 [a0 + 0x1a]\n 17857: s1 = u8 [a0 + 0x1b]\n 17860: a1 = a1 << 0x8\n 17863: a1 = a1 | a4\n 17866: a5 = a5 << 0x10\n 17869: s1 = s1 << 0x18\n 17872: a5 = a5 | s1\n 17875: a1 = a1 | a5\n 17878: a4 = u8 [a0 + 0x1d]\n 17881: a5 = u8 [a0 + 0x1c]\n 17884: s1 = u8 [a0 + 0x1e]\n 17887: a0 = u8 [a0 + 0x1f]\n 17890: a4 = a4 << 0x8\n 17893: a4 = a4 | a5\n 17896: s1 = s1 << 0x10\n 17899: a0 = a0 << 0x18\n 17902: a0 = a0 | s1\n 17905: a0 = a0 | a4\n 17908: a0 = a0 << 0x20\n 17911: a0 = a0 | a1\n 17914: a4 = reverse a0\n 17916: u64 [sp + 0x38] = a4\n 17919: s1 = reverse a3\n 17921: a2 = reverse a2\n 17923: u64 [sp + 0x30] = a2\n 17926: a1 = reverse t0\n 17928: u64 [sp + 0x28] = a1\n 17931: a0 = u64 [sp]\n 17933: u64 [sp + 0xb8] = a0\n 17937: a0 = u64 [sp + 0x8]\n 17940: u64 [sp + 0xb0] = a0\n 17944: a0 = u64 [sp + 0x10]\n 17947: u64 [sp + 0xa8] = a0\n 17951: a0 = u64 [sp + 0x20]\n 17954: u64 [sp + 0xa0] = a0\n 17958: u64 [sp + 0x98] = a1\n 17962: u64 [sp + 0x90] = a2\n 17966: u64 [sp + 0x88] = s1\n 17970: a0 = sp + 0xc0\n 17974: a1 = sp + 0xa0\n 17978: a2 = sp + 0x80\n 17982: u64 [sp + 0x80] = a4\n 17986: ra = 270, jump @291\n      : @318 [@dyn 135] (gas: 58)\n 17992: t2 = s1\n 17994: a3 = u64 [sp + 0xc8]\n 17998: a0 = u64 [sp + 0xd8]\n 18002: u64 [sp + 0x10] = a0\n 18005: a4 = u64 [sp + 0xc0]\n 18009: t1 = u64 [sp + 0xd0]\n 18013: a5 = a3 ^ s1\n 18016: a1 = a3 <u s1\n 18019: a2 = u64 [sp + 0x38]\n 18022: s1 = a4 <u a2\n 18025: a1 = s1 if a5 == 0\n 18028: a3 = a3 - t2\n 18031: a3 = a3 - s1\n 18034: u64 [sp + 0x8] = a3\n 18037: a4 = a4 - a2\n 18040: a5 = a4 + 0x1f\n 18043: a4 = a5 <u a4\n 18046: a3 = a3 + a4\n 18049: a5 = a5 & 0xffffffffffffffe0\n 18052: a0 = a3 + t2\n 18055: a2 = a2 + a5\n 18058: u64 [sp + 0x20] = a2\n 18061: a5 = a2 <u a5\n 18064: t0 = a0 + a5\n 18067: a0 = t0 ^ a3\n 18070: a2 = t0 <u a3\n 18073: a2 = a5 if a0 == 0\n 18076: s1 = u64 [sp + 0x30]\n 18079: a0 = t1 - s1\n 18082: a5 = t1 <u s1\n 18085: t1 = s1\n 18087: ra = u64 [sp + 0x28]\n 18090: s1 = u64 [sp + 0x10]\n 18093: s1 = s1 - ra\n 18096: s1 = s1 - a5\n 18099: a5 = a0 <u a1\n 18102: s1 = s1 - a5\n 18105: a0 = a0 - a1\n 18108: a1 = u64 [sp + 0x8]\n 18111: a1 = a3 <u a1\n 18114: a1 = a4 if a4 == 0\n 18117: a1 = a1 + a0\n 18120: a0 = a1 <u a0\n 18123: a3 = a1 + t1\n 18126: a5 = a3 + a2\n 18129: a1 = a3 <u a1\n 18132: a2 = a5 <u a3\n 18135: s1 = s1 + ra\n 18138: a0 = a0 + s1\n 18141: a0 = a0 + a1\n 18144: s1 = a0 + a2\n 18147: a0 = s1 >u 0\n 18149: a1 = a5 >u 0\n 18151: a1 = a0 if s1 != 0\n 18154: a0 = a5 | s1\n 18157: a2 = t0 >u 0\n 18159: a2 = a1 if a0 != 0\n 18162: jump @322 if a2 != 0\n      : @319 (gas: 15)\n 18166: a4 = t1\n 18168: a0 = u64 [sp + 0x38]\n 18171: a1 = u64 [sp + 0x20]\n 18174: a0 = a1 <u a0\n 18177: a1 = t0 ^ t2\n 18180: a2 = t0 <u t2\n 18183: a2 = a0 if a1 == 0\n 18186: a0 = a5 <u t1\n 18189: a1 = s1 ^ ra\n 18192: a3 = s1 <u ra\n 18195: a3 = a0 if a1 == 0\n 18198: a0 = a5 ^ t1\n 18201: a0 = a0 | a1\n 18204: a3 = a2 if a0 == 0\n 18207: jump @322 if a3 != 0\n      : @320 (gas: 6)\n 18211: a0 = 0x40\n 18214: a1 = 0x20\n 18217: u64 [sp + 0x10] = t2\n 18220: u64 [sp + 0x8] = t0\n 18223: u64 [sp] = a5\n 18225: ra = 272, jump @0\n      : @321 [@dyn 136] (gas: 82)\n 18231: a1 = reverse s1\n 18233: a2 = u64 [sp]\n 18235: a2 = reverse a2\n 18237: a3 = u64 [sp + 0x8]\n 18240: a3 = reverse a3\n 18242: a4 = u64 [sp + 0x20]\n 18245: a4 = reverse a4\n 18247: u8 [a0 + 0x18] = a4\n 18250: a5 = a4 >> 0x38\n 18253: u8 [a0 + 0x1f] = a5\n 18256: a5 = a4 >> 0x30\n 18259: u8 [a0 + 0x1e] = a5\n 18262: a5 = a4 >> 0x28\n 18265: u8 [a0 + 0x1d] = a5\n 18268: a5 = a4 >> 0x20\n 18271: u8 [a0 + 0x1c] = a5\n 18274: a5 = a4 >> 0x18\n 18277: u8 [a0 + 0x1b] = a5\n 18280: a5 = a4 >> 0x10\n 18283: u8 [a0 + 0x1a] = a5\n 18286: a4 = a4 >> 0x8\n 18289: u8 [a0 + 0x19] = a4\n 18292: u8 [a0 + 0x10] = a3\n 18295: a4 = a3 >> 0x38\n 18298: u8 [a0 + 0x17] = a4\n 18301: a4 = a3 >> 0x30\n 18304: u8 [a0 + 0x16] = a4\n 18307: a4 = a3 >> 0x28\n 18310: u8 [a0 + 0x15] = a4\n 18313: a4 = a3 >> 0x20\n 18316: u8 [a0 + 0x14] = a4\n 18319: a4 = a3 >> 0x18\n 18322: u8 [a0 + 0x13] = a4\n 18325: a4 = a3 >> 0x10\n 18328: u8 [a0 + 0x12] = a4\n 18331: a3 = a3 >> 0x8\n 18334: u8 [a0 + 0x11] = a3\n 18337: u8 [a0 + 0x8] = a2\n 18340: a3 = a2 >> 0x38\n 18343: u8 [a0 + 0xf] = a3\n 18346: a3 = a2 >> 0x30\n 18349: u8 [a0 + 0xe] = a3\n 18352: a3 = a2 >> 0x28\n 18355: u8 [a0 + 0xd] = a3\n 18358: a3 = a2 >> 0x20\n 18361: u8 [a0 + 0xc] = a3\n 18364: a3 = a2 >> 0x18\n 18367: u8 [a0 + 0xb] = a3\n 18370: a3 = a2 >> 0x10\n 18373: u8 [a0 + 0xa] = a3\n 18376: a2 = a2 >> 0x8\n 18379: u8 [a0 + 0x9] = a2\n 18382: u8 [a0] = a1\n 18384: a2 = a1 >> 0x38\n 18387: u8 [a0 + 0x7] = a2\n 18390: a2 = a1 >> 0x30\n 18393: u8 [a0 + 0x6] = a2\n 18396: a2 = a1 >> 0x28\n 18399: u8 [a0 + 0x5] = a2\n 18402: a2 = a1 >> 0x20\n 18405: u8 [a0 + 0x4] = a2\n 18408: a2 = a1 >> 0x18\n 18411: u8 [a0 + 0x3] = a2\n 18414: a2 = a1 >> 0x10\n 18417: u8 [a0 + 0x2] = a2\n 18420: a1 = a1 >> 0x8\n 18423: u8 [a0 + 0x1] = a1\n 18426: a0 = u64 [sp + 0x18]\n 18429: a1 = u64 [sp + 0x38]\n 18432: u64 [a0] = a1\n 18434: a1 = u64 [sp + 0x28]\n 18437: u64 [a0 + 0x18] = a1\n 18440: a1 = u64 [sp + 0x10]\n 18443: u64 [a0 + 0x8] = a1\n 18446: a1 = u64 [sp + 0x30]\n 18449: u64 [a0 + 0x10] = a1\n 18452: sp = s0 + 0xffffffffffffff00\n 18456: ra = u64 [sp + 0xf8]\n 18460: s0 = u64 [sp + 0xf0]\n 18464: s1 = u64 [sp + 0xe8]\n 18468: sp = sp + 0x100\n 18472: ret\n      : @322 (gas: 8)\n 18474: u64 [sp + 112] = 0\n 18477: u64 [sp + 104] = 0\n 18480: u64 [sp + 96] = 0\n 18483: a0 = 0x4e487b7100000000\n 18493: a1 = sp + 0x60\n 18496: u64 [sp + 0x78] = a0\n 18499: a0 = 0\n 18501: ra = 274, jump @23\n      : @323 [@dyn 137] (gas: 7)\n 18507: u64 [sp + 88] = 0\n 18510: u64 [sp + 80] = 0\n 18513: u64 [sp + 64] = 0x41\n 18517: a0 = 0x4\n 18520: a1 = sp + 0x40\n 18523: u64 [sp + 72] = 0\n 18526: ra = 276, jump @23\n      : @324 [@dyn 138] (gas: 3)\n 18532: a1 = 0x24\n 18535: a0 = 0\n 18537: ra = 278, jump @0\n      : @325 [@dyn 139] (gas: 6)\n 18543: i32 a1 = a0 + 0\n 18545: a0 = 0x1\n 18548: a2 = 0x24\n 18551: ra = 0x118\n 18555: ecalli 11 // 'seal_return'\n 18557: fallthrough\n      : @326 [@dyn 140] (gas: 17)\n 18558: sp = sp + 0xfffffffffffffec0\n 18562: u64 [sp + 0x138] = ra\n 18566: u64 [sp + 0x130] = s0\n 18570: u64 [sp + 0x128] = s1\n 18574: s0 = sp + 0x140\n 18578: sp = sp & 0xffffffffffffffe0\n 18581: a2 = u64 [a1]\n 18583: u64 [sp + 0x98] = a2\n 18587: a2 = u64 [a1 + 0x8]\n 18590: u64 [sp + 0x90] = a2\n 18594: a2 = u64 [a1 + 0x10]\n 18597: u64 [sp + 0x88] = a2\n 18601: s1 = u64 [a1 + 0x18]\n 18604: u64 [sp + 0x78] = a0\n 18607: a1 = 0x20\n 18610: a0 = 0\n 18612: ra = 282, jump @0\n      : @327 [@dyn 141] (gas: 70)\n 18618: a1 = reverse s1\n 18620: a2 = u64 [sp + 0x88]\n 18624: a2 = reverse a2\n 18626: a3 = u64 [sp + 0x90]\n 18630: a3 = reverse a3\n 18632: a4 = u64 [sp + 0x98]\n 18636: a4 = reverse a4\n 18638: a5 = a4 >> 0x38\n 18641: u8 [a0 + 0x1f] = a5\n 18644: a5 = a4 >> 0x30\n 18647: u8 [a0 + 0x1e] = a5\n 18650: a5 = a4 >> 0x28\n 18653: u8 [a0 + 0x1d] = a5\n 18656: a5 = a4 >> 0x20\n 18659: u8 [a0 + 0x1c] = a5\n 18662: a5 = a4 >> 0x18\n 18665: u8 [a0 + 0x1b] = a5\n 18668: a5 = a4 >> 0x10\n 18671: u8 [a0 + 0x1a] = a5\n 18674: a5 = a4 >> 0x8\n 18677: u8 [a0 + 0x19] = a5\n 18680: u8 [a0 + 0x18] = a4\n 18683: a4 = a3 >> 0x38\n 18686: u8 [a0 + 0x17] = a4\n 18689: a4 = a3 >> 0x30\n 18692: u8 [a0 + 0x16] = a4\n 18695: a4 = a3 >> 0x28\n 18698: u8 [a0 + 0x15] = a4\n 18701: a4 = a3 >> 0x20\n 18704: u8 [a0 + 0x14] = a4\n 18707: a4 = a3 >> 0x18\n 18710: u8 [a0 + 0x13] = a4\n 18713: a4 = a3 >> 0x10\n 18716: u8 [a0 + 0x12] = a4\n 18719: a4 = a3 >> 0x8\n 18722: u8 [a0 + 0x11] = a4\n 18725: u8 [a0 + 0x10] = a3\n 18728: a3 = a2 >> 0x38\n 18731: u8 [a0 + 0xf] = a3\n 18734: a3 = a2 >> 0x30\n 18737: u8 [a0 + 0xe] = a3\n 18740: a3 = a2 >> 0x28\n 18743: u8 [a0 + 0xd] = a3\n 18746: a3 = a2 >> 0x20\n 18749: u8 [a0 + 0xc] = a3\n 18752: a3 = a2 >> 0x18\n 18755: u8 [a0 + 0xb] = a3\n 18758: a3 = a2 >> 0x10\n 18761: u8 [a0 + 0xa] = a3\n 18764: a3 = a2 >> 0x8\n 18767: u8 [a0 + 0x9] = a3\n 18770: u8 [a0 + 0x8] = a2\n 18773: a2 = a1 >> 0x38\n 18776: u8 [a0 + 0x7] = a2\n 18779: a2 = a1 >> 0x30\n 18782: u8 [a0 + 0x6] = a2\n 18785: a2 = a1 >> 0x28\n 18788: u8 [a0 + 0x5] = a2\n 18791: a2 = a1 >> 0x20\n 18794: u8 [a0 + 0x4] = a2\n 18797: a2 = a1 >> 0x18\n 18800: u8 [a0 + 0x3] = a2\n 18803: a2 = a1 >> 0x10\n 18806: u8 [a0 + 0x2] = a2\n 18809: a2 = a1 >> 0x8\n 18812: u8 [a0 + 0x1] = a2\n 18815: u8 [a0] = a1\n 18817: a0 = 0x20\n 18820: a1 = 0x20\n 18823: ra = 284, jump @0\n      : @328 [@dyn 142] (gas: 35)\n 18829: u8 [a0 + 31] = 0x1\n 18833: u8 [a0 + 30] = 0\n 18836: u8 [a0 + 29] = 0\n 18839: u8 [a0 + 28] = 0\n 18842: u8 [a0 + 27] = 0\n 18845: u8 [a0 + 26] = 0\n 18848: u8 [a0 + 25] = 0\n 18851: u8 [a0 + 24] = 0\n 18854: u8 [a0 + 23] = 0\n 18857: u8 [a0 + 22] = 0\n 18860: u8 [a0 + 21] = 0\n 18863: u8 [a0 + 20] = 0\n 18866: u8 [a0 + 19] = 0\n 18869: u8 [a0 + 18] = 0\n 18872: u8 [a0 + 17] = 0\n 18875: u8 [a0 + 16] = 0\n 18878: u8 [a0 + 15] = 0\n 18881: u8 [a0 + 14] = 0\n 18884: u8 [a0 + 13] = 0\n 18887: u8 [a0 + 12] = 0\n 18890: u8 [a0 + 11] = 0\n 18893: u8 [a0 + 10] = 0\n 18896: u8 [a0 + 9] = 0\n 18899: u8 [a0 + 8] = 0\n 18902: u8 [a0 + 7] = 0\n 18905: u8 [a0 + 6] = 0\n 18908: u8 [a0 + 5] = 0\n 18911: u8 [a0 + 4] = 0\n 18914: u8 [a0 + 3] = 0\n 18917: u8 [a0 + 2] = 0\n 18920: u8 [a0 + 1] = 0\n 18923: u8 [a0 + 0] = 0\n 18925: a1 = 0x40\n 18928: a0 = 0\n 18930: ra = 286, jump @0\n      : @329 [@dyn 143] (gas: 108)\n 18936: i32 a0 = a0 + 0\n 18938: i32 a2 = sp + 0x100\n 18942: a1 = 0x40\n 18945: ecalli 8 // 'hash_keccak_256'\n 18947: a0 = u64 [sp + 0x118]\n 18951: a1 = u64 [sp + 0x110]\n 18955: a2 = u64 [sp + 0x108]\n 18959: a3 = u64 [sp + 0x100]\n 18963: s1 = reverse a0\n 18965: a1 = reverse a1\n 18967: u64 [sp + 0x98] = a1\n 18971: a2 = reverse a2\n 18973: u64 [sp + 0x80] = a2\n 18977: a0 = reverse a3\n 18979: u64 [sp + 0x90] = a0\n 18983: u64 [sp + 0xf8] = a0\n 18987: u64 [sp + 0xf0] = a2\n 18991: u64 [sp + 0xe8] = a1\n 18995: u64 [sp + 0xe0] = s1\n 18999: u64 [sp + 0x88] = s1\n 19003: u64 [sp + 280] = 0\n 19007: u64 [sp + 272] = 0\n 19011: u64 [sp + 264] = 0\n 19015: u64 [sp + 256] = 0\n 19019: u32 [sp + 288] = 0x20\n 19024: i32 a1 = sp + 0xe0\n 19028: i32 a3 = sp + 0x100\n 19032: i32 a4 = sp + 0x120\n 19036: a2 = 0xffffffffffffffff\n 19039: a0 = 0\n 19041: ecalli 7 // 'get_storage'\n 19043: a0 = s1 + 0x1\n 19046: a1 = a0 <u 0x1\n 19049: a2 = u64 [sp + 0x98]\n 19053: a1 = a1 + a2\n 19056: a2 = a0 | a1\n 19059: a2 = a2 <u 0x1\n 19062: s1 = u64 [sp + 0x80]\n 19066: a2 = a2 + s1\n 19069: a3 = a2 <u s1\n 19072: a4 = u64 [sp + 0x90]\n 19076: a3 = a3 + a4\n 19079: u64 [sp + 0xf8] = a3\n 19083: u64 [sp + 0xf0] = a2\n 19087: a2 = u64 [sp + 0x100]\n 19091: u64 [sp + 0x70] = a2\n 19094: u64 [sp + 0xe8] = a1\n 19098: a1 = u64 [sp + 0x108]\n 19102: u64 [sp + 0x68] = a1\n 19105: u64 [sp + 0xe0] = a0\n 19109: a0 = u32 [sp + 0x110]\n 19113: u64 [sp + 0x60] = a0\n 19116: u64 [sp + 280] = 0\n 19120: u64 [sp + 272] = 0\n 19124: u64 [sp + 264] = 0\n 19128: u64 [sp + 256] = 0\n 19132: u32 [sp + 288] = 0x20\n 19137: i32 a1 = sp + 0xe0\n 19141: i32 a3 = sp + 0x100\n 19145: i32 a4 = sp + 0x120\n 19149: a2 = 0xffffffffffffffff\n 19152: a0 = 0\n 19154: ecalli 7 // 'get_storage'\n 19156: a0 = u64 [sp + 0x100]\n 19160: u64 [sp + 0x58] = a0\n 19163: a0 = u64 [sp + 0x108]\n 19167: u64 [sp + 0x50] = a0\n 19170: a0 = u64 [sp + 0x110]\n 19174: u64 [sp + 0x48] = a0\n 19177: a0 = u64 [sp + 0x118]\n 19181: u64 [sp + 0x40] = a0\n 19184: a0 = u64 [sp + 0x88]\n 19188: a2 = a0 + 0x2\n 19191: a0 = a2 <u a0\n 19194: a3 = u64 [sp + 0x98]\n 19198: a1 = a3 + a0\n 19201: a3 = a1 <u a3\n 19204: a3 = a0 if a0 == 0\n 19207: a3 = a3 + s1\n 19210: a0 = a3 <u s1\n 19213: s1 = u64 [sp + 0x90]\n 19217: a0 = a0 + s1\n 19220: u64 [sp + 0xb8] = a0\n 19224: u64 [sp + 0xb0] = a3\n 19228: u64 [sp + 0xa8] = a1\n 19232: a0 = sp + 0xc0\n 19236: a1 = sp + 0xa0\n 19240: u64 [sp + 0xa0] = a2\n 19244: ra = 0x120\n 19248: sp = sp + 0xffffffffffffff00\n 19252: u64 [sp + 0xf8] = ra\n 19256: u64 [sp + 0xf0] = s0\n 19260: u64 [sp + 0xe8] = s1\n 19264: s0 = sp + 0x100\n 19268: sp = sp & 0xfffffffffffffff0\n 19271: a2 = u64 [a1]\n 19273: u64 [sp + 0x20] = a2\n 19276: a2 = u64 [a1 + 0x8]\n 19279: u64 [sp + 0x10] = a2\n 19282: a2 = u64 [a1 + 0x10]\n 19285: u64 [sp + 0x8] = a2\n 19288: a1 = u64 [a1 + 0x18]\n 19291: u64 [sp] = a1\n 19293: u64 [sp + 0x18] = a0\n 19296: a0 = 0x40\n 19299: a1 = 0x20\n 19302: ra = 0x10c\n 19306: jump @0\n      : @330 [@dyn 144] (gas: 110)\n 19309: a0 = u64 [sp + 0xc0]\n 19313: u64 [sp + 0x38] = a0\n 19316: a0 = u64 [sp + 0xc8]\n 19320: u64 [sp + 0x30] = a0\n 19323: a0 = u64 [sp + 0xd0]\n 19327: u64 [sp + 0x28] = a0\n 19330: a0 = u64 [sp + 0xd8]\n 19334: u64 [sp + 0x20] = a0\n 19337: a1 = u64 [sp + 0x88]\n 19341: a0 = a1 + 0x3\n 19344: a1 = a0 <u a1\n 19347: a3 = u64 [sp + 0x98]\n 19351: a2 = a3 + a1\n 19354: a3 = a2 <u a3\n 19357: a3 = a1 if a1 == 0\n 19360: a1 = u64 [sp + 0x80]\n 19364: a3 = a3 + a1\n 19367: a1 = a3 <u a1\n 19370: a1 = a1 + s1\n 19373: u64 [sp + 0xf8] = a1\n 19377: u64 [sp + 0xf0] = a3\n 19381: u64 [sp + 0xe8] = a2\n 19385: u64 [sp + 0xe0] = a0\n 19389: u64 [sp + 280] = 0\n 19393: u64 [sp + 272] = 0\n 19397: u64 [sp + 264] = 0\n 19401: u64 [sp + 256] = 0\n 19405: u32 [sp + 288] = 0x20\n 19410: i32 a1 = sp + 0xe0\n 19414: i32 a3 = sp + 0x100\n 19418: i32 a4 = sp + 0x120\n 19422: a2 = 0xffffffffffffffff\n 19425: a0 = 0\n 19427: ecalli 7 // 'get_storage'\n 19429: s1 = u64 [sp + 0x100]\n 19433: a0 = u64 [sp + 0x108]\n 19437: u64 [sp + 0x18] = a0\n 19440: a0 = u64 [sp + 0x110]\n 19444: u64 [sp + 0x10] = a0\n 19447: a0 = u64 [sp + 0x118]\n 19451: u64 [sp + 0x8] = a0\n 19454: a1 = u64 [sp + 0x88]\n 19458: a0 = a1 + 0x4\n 19461: a1 = a0 <u a1\n 19464: a3 = u64 [sp + 0x98]\n 19468: a2 = a3 + a1\n 19471: a3 = a2 <u a3\n 19474: a3 = a1 if a1 == 0\n 19477: a1 = u64 [sp + 0x80]\n 19481: a3 = a3 + a1\n 19484: a1 = a3 <u a1\n 19487: a4 = u64 [sp + 0x90]\n 19491: a1 = a1 + a4\n 19494: u64 [sp + 0xf8] = a1\n 19498: u64 [sp + 0xf0] = a3\n 19502: u64 [sp + 0xe8] = a2\n 19506: u64 [sp + 0xe0] = a0\n 19510: u64 [sp + 280] = 0\n 19514: u64 [sp + 272] = 0\n 19518: u64 [sp + 264] = 0\n 19522: u64 [sp + 256] = 0\n 19526: u32 [sp + 288] = 0x20\n 19531: i32 a1 = sp + 0xe0\n 19535: i32 a3 = sp + 0x100\n 19539: i32 a4 = sp + 0x120\n 19543: a2 = 0xffffffffffffffff\n 19546: a0 = 0\n 19548: ecalli 7 // 'get_storage'\n 19550: a0 = u8 [sp + 0x100]\n 19554: a1 = u64 [sp + 0x78]\n 19557: u64 [a1 + 0x80] = a0\n 19561: a0 = u64 [sp + 0x8]\n 19564: u64 [a1 + 0x78] = a0\n 19567: a0 = u64 [sp + 0x10]\n 19570: u64 [a1 + 0x70] = a0\n 19573: a0 = u64 [sp + 0x18]\n 19576: u64 [a1 + 0x68] = a0\n 19579: u64 [a1 + 0x60] = s1\n 19582: a0 = u64 [sp + 0x20]\n 19585: u64 [a1 + 0x58] = a0\n 19588: a0 = u64 [sp + 0x28]\n 19591: u64 [a1 + 0x50] = a0\n 19594: a0 = u64 [sp + 0x30]\n 19597: u64 [a1 + 0x48] = a0\n 19600: a0 = u64 [sp + 0x38]\n 19603: u64 [a1 + 0x40] = a0\n 19606: a0 = u64 [sp + 0x40]\n 19609: u64 [a1 + 0x38] = a0\n 19612: a0 = u64 [sp + 0x48]\n 19615: u64 [a1 + 0x30] = a0\n 19618: a0 = u64 [sp + 0x50]\n 19621: u64 [a1 + 0x28] = a0\n 19624: a0 = u64 [sp + 0x58]\n 19627: u64 [a1 + 0x20] = a0\n 19630: a0 = u64 [sp + 0x60]\n 19633: u64 [a1 + 0x10] = a0\n 19636: a0 = u64 [sp + 0x68]\n 19639: u64 [a1 + 0x8] = a0\n 19642: a0 = u64 [sp + 0x70]\n 19645: u64 [a1] = a0\n 19647: u64 [a1 + 152] = 0\n 19651: u64 [a1 + 144] = 0\n 19655: u64 [a1 + 136] = 0\n 19659: u64 [a1 + 24] = 0\n 19662: sp = s0 + 0xfffffffffffffec0\n 19666: ra = u64 [sp + 0x138]\n 19670: s0 = u64 [sp + 0x130]\n 19674: s1 = u64 [sp + 0x128]\n 19678: sp = sp + 0x140\n 19682: ret\n      : @331 (gas: 16)\n 19684: sp = sp + 0xffffffffffffff88\n 19687: u64 [sp + 0x70] = ra\n 19690: u64 [sp + 0x68] = s0\n 19693: u64 [sp + 0x60] = s1\n 19696: a5 = u64 [a1 + 0x10]\n 19699: s1 = u64 [a1 + 0x18]\n 19702: a4 = u64 [a1 + 0x8]\n 19705: s0 = u64 [a1]\n 19707: a1 = a4 | s1\n 19710: a3 = s0 | a5\n 19713: a3 = a3 | a1\n 19716: a3 = a3 >> 0x20\n 19719: a1 = a1 | a5\n 19722: a1 = a1 << 0x20\n 19725: a1 = a1 | a3\n 19728: jump @344 if a1 != 0\n      : @332 (gas: 16)\n 19732: u64 [sp + 0x28] = s1\n 19735: u64 [sp + 0x30] = a5\n 19738: u64 [sp + 0x40] = a4\n 19741: u64 [sp] = a0\n 19743: a0 = u64 [a2 + 0x18]\n 19746: u64 [sp + 0x58] = a0\n 19749: s1 = u64 [a2 + 0x10]\n 19752: a0 = u64 [a2 + 0x8]\n 19755: u64 [sp + 0x50] = a0\n 19758: a0 = u64 [a2]\n 19760: u64 [sp + 0x48] = a0\n 19763: u64 [sp + 0x20] = s0\n 19766: i32 a0 = s0 + 0\n 19768: a1 = 0x20\n 19771: u64 [sp + 0x8] = a0\n 19774: ra = 290, jump @0\n      : @333 [@dyn 145] (gas: 12)\n 19780: t0 = u64 [sp + 0x48]\n 19783: a1 = t0 | s1\n 19786: a2 = u64 [sp + 0x58]\n 19789: a3 = u64 [sp + 0x50]\n 19792: a2 = a2 | a3\n 19795: a1 = a1 | a2\n 19798: a1 = a1 >> 0x20\n 19801: u64 [sp + 0x38] = s1\n 19804: a2 = a2 | s1\n 19807: a2 = a2 << 0x20\n 19810: a1 = a1 | a2\n 19813: jump @344 if a1 != 0\n      : @334 (gas: 93)\n 19817: a1 = u8 [a0 + 0x19]\n 19820: a2 = u8 [a0 + 0x18]\n 19823: a3 = u8 [a0 + 0x1a]\n 19826: a4 = u8 [a0 + 0x1b]\n 19829: a1 = a1 << 0x8\n 19832: a1 = a1 | a2\n 19835: a3 = a3 << 0x10\n 19838: a4 = a4 << 0x18\n 19841: a3 = a3 | a4\n 19844: a1 = a1 | a3\n 19847: a2 = u8 [a0 + 0x1d]\n 19850: a3 = u8 [a0 + 0x1c]\n 19853: a4 = u8 [a0 + 0x1e]\n 19856: a5 = u8 [a0 + 0x1f]\n 19859: a2 = a2 << 0x8\n 19862: a2 = a2 | a3\n 19865: a4 = a4 << 0x10\n 19868: a5 = a5 << 0x18\n 19871: a4 = a4 | a5\n 19874: a2 = a2 | a4\n 19877: a2 = a2 << 0x20\n 19880: a1 = a1 | a2\n 19883: u64 [sp + 0x18] = a1\n 19886: a1 = u8 [a0 + 0x11]\n 19889: a2 = u8 [a0 + 0x10]\n 19892: a3 = u8 [a0 + 0x12]\n 19895: a4 = u8 [a0 + 0x13]\n 19898: a1 = a1 << 0x8\n 19901: a1 = a1 | a2\n 19904: a3 = a3 << 0x10\n 19907: a4 = a4 << 0x18\n 19910: a3 = a3 | a4\n 19913: a1 = a1 | a3\n 19916: a2 = u8 [a0 + 0x15]\n 19919: a3 = u8 [a0 + 0x14]\n 19922: a4 = u8 [a0 + 0x16]\n 19925: a5 = u8 [a0 + 0x17]\n 19928: a2 = a2 << 0x8\n 19931: a2 = a2 | a3\n 19934: a4 = a4 << 0x10\n 19937: a5 = a5 << 0x18\n 19940: a4 = a4 | a5\n 19943: a2 = a2 | a4\n 19946: a2 = a2 << 0x20\n 19949: a1 = a1 | a2\n 19952: u64 [sp + 0x10] = a1\n 19955: a1 = u8 [a0 + 0x9]\n 19958: a2 = u8 [a0 + 0x8]\n 19961: a3 = u8 [a0 + 0xa]\n 19964: a4 = u8 [a0 + 0xb]\n 19967: a1 = a1 << 0x8\n 19970: a1 = a1 | a2\n 19973: a3 = a3 << 0x10\n 19976: a4 = a4 << 0x18\n 19979: a3 = a3 | a4\n 19982: a1 = a1 | a3\n 19985: a2 = u8 [a0 + 0xd]\n 19988: a3 = u8 [a0 + 0xc]\n 19991: a4 = u8 [a0 + 0xe]\n 19994: a5 = u8 [a0 + 0xf]\n 19997: a2 = a2 << 0x8\n 20000: a2 = a2 | a3\n 20003: a4 = a4 << 0x10\n 20006: a5 = a5 << 0x18\n 20009: a4 = a4 | a5\n 20012: a2 = a2 | a4\n 20015: a2 = a2 << 0x20\n 20018: s1 = a2 | a1\n 20021: a1 = u8 [a0 + 0x1]\n 20024: a2 = u8 [a0]\n 20026: a3 = u8 [a0 + 0x2]\n 20029: a4 = u8 [a0 + 0x3]\n 20032: a1 = a1 << 0x8\n 20035: a1 = a1 | a2\n 20038: a3 = a3 << 0x10\n 20041: a4 = a4 << 0x18\n 20044: a3 = a3 | a4\n 20047: a1 = a1 | a3\n 20050: a2 = u8 [a0 + 0x5]\n 20053: a3 = u8 [a0 + 0x4]\n 20056: a4 = u8 [a0 + 0x6]\n 20059: a0 = u8 [a0 + 0x7]\n 20062: a2 = a2 << 0x8\n 20065: a2 = a2 | a3\n 20068: a4 = a4 << 0x10\n 20071: a0 = a0 << 0x18\n 20074: a0 = a0 | a4\n 20077: a0 = a0 | a2\n 20080: a0 = a0 << 0x20\n 20083: s0 = a0 | a1\n 20086: i32 a0 = t0 + 0\n 20088: a1 = 0x20\n 20091: ra = 292, jump @0\n      : @335 [@dyn 146] (gas: 73)\n 20097: a4 = s1\n 20099: a2 = u64 [sp + 0x10]\n 20102: s1 = u64 [sp + 0x18]\n 20105: t0 = u64 [sp + 0x48]\n 20108: a1 = a4 >> 0x38\n 20111: u8 [a0 + 0xf] = a1\n 20114: a1 = a4 >> 0x30\n 20117: u8 [a0 + 0xe] = a1\n 20120: a1 = a4 >> 0x28\n 20123: u8 [a0 + 0xd] = a1\n 20126: a1 = a4 >> 0x20\n 20129: u8 [a0 + 0xc] = a1\n 20132: a1 = a4 >> 0x18\n 20135: u8 [a0 + 0xb] = a1\n 20138: a1 = a4 >> 0x10\n 20141: u8 [a0 + 0xa] = a1\n 20144: a1 = a4 >> 0x8\n 20147: u8 [a0 + 0x9] = a1\n 20150: a1 = s0 >> 0x38\n 20153: u8 [a0 + 0x7] = a1\n 20156: a1 = s0 >> 0x30\n 20159: u8 [a0 + 0x6] = a1\n 20162: a1 = s0 >> 0x28\n 20165: u8 [a0 + 0x5] = a1\n 20168: a1 = s0 >> 0x20\n 20171: u8 [a0 + 0x4] = a1\n 20174: a1 = s0 >> 0x18\n 20177: u8 [a0 + 0x3] = a1\n 20180: a1 = s0 >> 0x10\n 20183: u8 [a0 + 0x2] = a1\n 20186: a1 = s0 >> 0x8\n 20189: u8 [a0 + 0x1] = a1\n 20192: a1 = a2 >> 0x38\n 20195: u8 [a0 + 0x17] = a1\n 20198: a1 = a2 >> 0x30\n 20201: u8 [a0 + 0x16] = a1\n 20204: a1 = a2 >> 0x28\n 20207: u8 [a0 + 0x15] = a1\n 20210: a1 = a2 >> 0x20\n 20213: u8 [a0 + 0x14] = a1\n 20216: a1 = a2 >> 0x18\n 20219: u8 [a0 + 0x13] = a1\n 20222: a1 = a2 >> 0x10\n 20225: u8 [a0 + 0x12] = a1\n 20228: a1 = a2 >> 0x8\n 20231: u8 [a0 + 0x11] = a1\n 20234: a1 = s1 >> 0x38\n 20237: u8 [a0 + 0x1f] = a1\n 20240: a1 = s1 >> 0x30\n 20243: u8 [a0 + 0x1e] = a1\n 20246: a1 = s1 >> 0x28\n 20249: u8 [a0 + 0x1d] = a1\n 20252: a1 = s1 >> 0x20\n 20255: u8 [a0 + 0x1c] = a1\n 20258: a1 = s1 >> 0x18\n 20261: u8 [a0 + 0x1b] = a1\n 20264: a1 = s1 >> 0x10\n 20267: u8 [a0 + 0x1a] = a1\n 20270: a1 = s1 >> 0x8\n 20273: u8 [a0 + 0x19] = a1\n 20276: ra = u64 [sp + 0x58]\n 20279: t2 = u64 [sp + 0x38]\n 20282: t1 = t2 | ra\n 20285: a1 = 0xffffffe0\n 20295: a3 = t0 <u a1\n 20298: a5 = u64 [sp + 0x50]\n 20301: a3 = 0 if a5 != 0\n 20303: a3 = 0 if t1 != 0\n 20305: u8 [a0 + 0x10] = a2\n 20308: u8 [a0 + 0x8] = a4\n 20311: u8 [a0] = s0\n 20313: u8 [a0 + 0x18] = s1\n 20316: jump @344 if a3 == 0\n      : @336 (gas: 9)\n 20320: a0 = u64 [sp + 0x30]\n 20323: a3 = u64 [sp + 0x28]\n 20326: a0 = a0 | a3\n 20329: a3 = u64 [sp + 0x20]\n 20332: a1 = a3 <u a1\n 20335: a3 = u64 [sp + 0x40]\n 20338: a1 = 0 if a3 != 0\n 20340: a1 = 0 if a0 != 0\n 20342: jump @344 if a1 == 0\n      : @337 (gas: 15)\n 20346: a1 = reverse s0\n 20348: a3 = reverse a4\n 20350: a4 = reverse a2\n 20352: s0 = reverse s1\n 20354: a0 = s0 | a3\n 20357: u64 [sp + 0x30] = a1\n 20360: u64 [sp + 0x20] = a4\n 20363: a1 = a1 | a4\n 20366: a0 = a0 | a1\n 20369: a0 = a0 >> 0x20\n 20372: u64 [sp + 0x28] = a3\n 20375: a1 = a1 | a3\n 20378: a1 = a1 << 0x20\n 20381: a0 = a0 | a1\n 20384: jump @344 if a0 != 0\n      : @338 (gas: 19)\n 20388: a3 = t0 + 0x20\n 20391: u64 [sp + 0x40] = a3\n 20394: a0 = a3 <u t0\n 20397: a1 = a5 + a0\n 20400: u64 [sp + 0x48] = a1\n 20403: a1 = a1 <u a5\n 20406: a1 = a0 if a0 == 0\n 20409: a1 = a1 + t2\n 20412: u64 [sp + 0x50] = a1\n 20415: a0 = a1 <u t2\n 20418: a0 = a0 + ra\n 20421: u64 [sp + 0x58] = a0\n 20424: i32 a0 = a3 + 0\n 20426: a1 = u64 [sp + 0x8]\n 20429: i32 a1 = a1 + 0x20\n 20432: u64 [sp + 0x38] = a1\n 20435: i32 s1 = s0 + 0\n 20437: a1 = s1\n 20439: ra = 294, jump @0\n      : @339 [@dyn 147] (gas: 5)\n 20445: u64 [sp + 0x18] = a0\n 20448: a0 = u64 [sp + 0x38]\n 20451: a1 = s1\n 20453: s1 = s0\n 20455: ra = 296, jump @0\n      : @340 [@dyn 148] (gas: 4)\n 20461: a1 = a0\n 20463: a0 = u64 [sp + 0x18]\n 20466: a2 = s0\n 20468: ra = 298, jump @8\n      : @341 [@dyn 149] (gas: 29)\n 20474: a0 = u64 [sp + 0x40]\n 20477: a0 = a0 + s0\n 20480: a1 = a0 <u s0\n 20483: a4 = u64 [sp + 0x20]\n 20486: a2 = u64 [sp + 0x48]\n 20489: a2 = a2 + a4\n 20492: a2 = a2 + a1\n 20495: a3 = a2 ^ a4\n 20498: a4 = a2 <u a4\n 20501: a4 = a1 if a3 == 0\n 20504: a5 = u64 [sp + 0x28]\n 20507: a1 = u64 [sp + 0x50]\n 20510: a1 = a1 + a5\n 20513: a4 = a4 + a1\n 20516: a3 = a4 <u a1\n 20519: a1 = a1 <u a5\n 20522: a5 = u64 [sp + 0x30]\n 20525: s0 = u64 [sp + 0x58]\n 20528: a5 = a5 + s0\n 20531: a1 = a1 + a5\n 20534: a1 = a1 + a3\n 20537: a3 = a0 | a4\n 20540: a1 = a1 | a2\n 20543: a3 = a3 | a1\n 20546: a3 = a3 >> 0x20\n 20549: a1 = a1 | a4\n 20552: a1 = a1 << 0x20\n 20555: a1 = a1 | a3\n 20558: jump @344 if a1 != 0\n      : @342 (gas: 3)\n 20562: i32 a0 = a0 + 0\n 20564: a1 = 0x20\n 20567: ra = 300, jump @0\n      : @343 [@dyn 150] (gas: 56)\n 20573: u8 [a0 + 31] = 0\n 20576: u8 [a0 + 30] = 0\n 20579: u8 [a0 + 29] = 0\n 20582: u8 [a0 + 28] = 0\n 20585: u8 [a0 + 27] = 0\n 20588: u8 [a0 + 26] = 0\n 20591: u8 [a0 + 25] = 0\n 20594: u8 [a0 + 24] = 0\n 20597: u8 [a0 + 23] = 0\n 20600: u8 [a0 + 22] = 0\n 20603: u8 [a0 + 21] = 0\n 20606: u8 [a0 + 20] = 0\n 20609: u8 [a0 + 19] = 0\n 20612: u8 [a0 + 18] = 0\n 20615: u8 [a0 + 17] = 0\n 20618: u8 [a0 + 16] = 0\n 20621: u8 [a0 + 15] = 0\n 20624: u8 [a0 + 14] = 0\n 20627: u8 [a0 + 13] = 0\n 20630: u8 [a0 + 12] = 0\n 20633: u8 [a0 + 11] = 0\n 20636: u8 [a0 + 10] = 0\n 20639: u8 [a0 + 9] = 0\n 20642: u8 [a0 + 8] = 0\n 20645: u8 [a0 + 7] = 0\n 20648: u8 [a0 + 6] = 0\n 20651: u8 [a0 + 5] = 0\n 20654: u8 [a0 + 4] = 0\n 20657: u8 [a0 + 3] = 0\n 20660: u8 [a0 + 2] = 0\n 20663: u8 [a0 + 1] = 0\n 20666: u8 [a0 + 0] = 0\n 20668: a0 = s1 + 0x1f\n 20671: a1 = 0x1ffffffe0\n 20681: a0 = a0 & a1\n 20684: a1 = u64 [sp + 0x40]\n 20687: a1 = a1 + a0\n 20690: a0 = a1 <u a0\n 20693: a2 = u64 [sp + 0x48]\n 20696: a2 = a2 + a0\n 20699: a0 = 0 if a2 != 0\n 20701: a3 = u64 [sp + 0x50]\n 20704: a0 = a0 + a3\n 20707: a3 = a0 <u a3\n 20710: a4 = u64 [sp + 0x58]\n 20713: a3 = a3 + a4\n 20716: a4 = u64 [sp]\n 20718: u64 [a4] = a1\n 20720: u64 [a4 + 0x8] = a2\n 20723: u64 [a4 + 0x10] = a0\n 20726: u64 [a4 + 0x18] = a3\n 20729: ra = u64 [sp + 0x70]\n 20732: s0 = u64 [sp + 0x68]\n 20735: s1 = u64 [sp + 0x60]\n 20738: sp = sp + 0x78\n 20741: ret\n      : @344 (gas: 1)\n 20743: trap\n      : @345 (gas: 23)\n 20744: sp = sp + 0xfffffffffffffec0\n 20748: u64 [sp + 0x138] = ra\n 20752: u64 [sp + 0x130] = s0\n 20756: u64 [sp + 0x128] = s1\n 20760: s0 = sp + 0x140\n 20764: sp = sp & 0xfffffffffffffff0\n 20767: t0 = u64 [a1 + 0x18]\n 20770: t1 = u64 [a1 + 0x10]\n 20773: s1 = u64 [a1 + 0x8]\n 20776: a1 = u64 [a1]\n 20778: u64 [sp + 0xb0] = s1\n 20782: u64 [sp + 0x98] = t0\n 20786: t0 = s1 | t0\n 20789: u64 [sp + 0xb8] = a1\n 20793: s1 = a1 | t1\n 20796: s1 = s1 | t0\n 20799: s1 = s1 >> 0x20\n 20802: u64 [sp + 0x90] = t1\n 20806: a1 = t0 | t1\n 20809: a1 = a1 << 0x20\n 20812: a1 = a1 | s1\n 20815: u64 [sp + 0x40] = a0\n 20818: jump @357 if a1 != 0\n      : @346 (gas: 44)\n 20822: a0 = u64 [s0]\n 20824: a1 = u64 [a0 + 0x18]\n 20827: u64 [sp + 0x18] = a1\n 20830: a1 = u64 [a0 + 0x10]\n 20833: u64 [sp + 0x8] = a1\n 20836: a1 = u64 [a0 + 0x8]\n 20839: u64 [sp + 0x10] = a1\n 20842: a0 = u64 [a0]\n 20844: u64 [sp] = a0\n 20846: a0 = u64 [a5 + 0x18]\n 20849: u64 [sp + 0x20] = a0\n 20852: a0 = u64 [a5 + 0x10]\n 20855: u64 [sp + 0x28] = a0\n 20858: a0 = u64 [a5 + 0x8]\n 20861: u64 [sp + 0x30] = a0\n 20864: a0 = u64 [a5]\n 20866: u64 [sp + 0x38] = a0\n 20869: a0 = u64 [a4 + 0x18]\n 20872: u64 [sp + 0x48] = a0\n 20875: a0 = u64 [a4 + 0x10]\n 20878: u64 [sp + 0x50] = a0\n 20881: a0 = u64 [a4 + 0x8]\n 20884: u64 [sp + 0x58] = a0\n 20887: a0 = u64 [a4]\n 20889: u64 [sp + 0x60] = a0\n 20892: a0 = u64 [a3 + 0x18]\n 20895: u64 [sp + 0x70] = a0\n 20898: a0 = u64 [a3 + 0x10]\n 20901: u64 [sp + 0x78] = a0\n 20904: a0 = u64 [a3 + 0x8]\n 20907: u64 [sp + 0x80] = a0\n 20911: a0 = u64 [a2 + 0x10]\n 20914: a1 = u64 [a3]\n 20916: u64 [sp + 0x68] = a1\n 20919: a1 = u64 [a2 + 0x8]\n 20922: u64 [sp + 0x88] = a1\n 20926: a1 = u64 [a2]\n 20928: u64 [sp + 0xa0] = a1\n 20932: a0 = a0 << 0x20\n 20935: s1 = a0 >> 0x20\n 20938: a0 = i32 [sp + 0xb8]\n 20942: a1 = 0x20\n 20945: u64 [sp + 0xa8] = a0\n 20949: ra = 302, jump @0\n      : @347 [@dyn 151] (gas: 67)\n 20955: a1 = reverse s1\n 20957: a2 = u64 [sp + 0x88]\n 20961: a2 = reverse a2\n 20963: a3 = u64 [sp + 0xa0]\n 20967: a3 = reverse a3\n 20969: a4 = a3 >> 0x38\n 20972: u8 [a0 + 0x1f] = a4\n 20975: a4 = a3 >> 0x30\n 20978: u8 [a0 + 0x1e] = a4\n 20981: a4 = a3 >> 0x28\n 20984: u8 [a0 + 0x1d] = a4\n 20987: a4 = a3 >> 0x20\n 20990: u8 [a0 + 0x1c] = a4\n 20993: a4 = a3 >> 0x18\n 20996: u8 [a0 + 0x1b] = a4\n 20999: a4 = a3 >> 0x10\n 21002: u8 [a0 + 0x1a] = a4\n 21005: a4 = a3 >> 0x8\n 21008: u8 [a0 + 0x19] = a4\n 21011: u8 [a0 + 0x18] = a3\n 21014: u8 [a0 + 0x10] = a2\n 21017: u8 [a0 + 11] = 0\n 21020: u8 [a0 + 10] = 0\n 21023: u8 [a0 + 9] = 0\n 21026: u8 [a0 + 7] = 0\n 21029: u8 [a0 + 6] = 0\n 21032: u8 [a0 + 5] = 0\n 21035: u8 [a0 + 4] = 0\n 21038: u8 [a0 + 3] = 0\n 21041: u8 [a0 + 2] = 0\n 21044: u8 [a0 + 1] = 0\n 21047: u8 [a0 + 0] = 0\n 21049: a3 = a2 >> 0x38\n 21052: u8 [a0 + 0x17] = a3\n 21055: a3 = a2 >> 0x30\n 21058: u8 [a0 + 0x16] = a3\n 21061: a3 = a2 >> 0x28\n 21064: u8 [a0 + 0x15] = a3\n 21067: a3 = a2 >> 0x20\n 21070: u8 [a0 + 0x14] = a3\n 21073: a3 = a2 >> 0x18\n 21076: u8 [a0 + 0x13] = a3\n 21079: a3 = a2 >> 0x10\n 21082: u8 [a0 + 0x12] = a3\n 21085: a2 = a2 >> 0x8\n 21088: u8 [a0 + 0x11] = a2\n 21091: u8 [a0 + 0x8] = a1\n 21094: a2 = a1 >> 0x38\n 21097: u8 [a0 + 0xf] = a2\n 21100: a2 = a1 >> 0x30\n 21103: u8 [a0 + 0xe] = a2\n 21106: a2 = a1 >> 0x28\n 21109: u8 [a0 + 0xd] = a2\n 21112: a1 = a1 >> 0x20\n 21115: a2 = u64 [sp + 0x98]\n 21119: a4 = u64 [sp + 0x90]\n 21123: a4 = a4 | a2\n 21126: s1 = 0x100000000\n 21136: a2 = 0xffffffe0\n 21146: a3 = u64 [sp + 0xb8]\n 21150: a2 = a3 <u a2\n 21153: a3 = u64 [sp + 0xb0]\n 21157: a2 = 0 if a3 != 0\n 21159: u64 [sp + 0xa0] = a4\n 21163: a2 = 0 if a4 != 0\n 21165: u8 [a0 + 0xc] = a1\n 21168: jump @357 if a2 == 0\n      : @348 (gas: 4)\n 21172: a0 = u64 [sp + 0xa8]\n 21176: i32 a0 = a0 + 0x20\n 21179: a1 = 0x20\n 21182: ra = 304, jump @0\n      : @349 [@dyn 152] (gas: 76)\n 21188: a1 = u64 [sp + 0x70]\n 21191: a1 = reverse a1\n 21193: a2 = u64 [sp + 0x78]\n 21196: a2 = reverse a2\n 21198: a3 = u64 [sp + 0x80]\n 21202: a3 = reverse a3\n 21204: a4 = u64 [sp + 0x68]\n 21207: a4 = reverse a4\n 21209: a5 = a4 >> 0x38\n 21212: u8 [a0 + 0x1f] = a5\n 21215: a5 = a4 >> 0x30\n 21218: u8 [a0 + 0x1e] = a5\n 21221: a5 = a4 >> 0x28\n 21224: u8 [a0 + 0x1d] = a5\n 21227: a5 = a4 >> 0x20\n 21230: u8 [a0 + 0x1c] = a5\n 21233: a5 = a4 >> 0x18\n 21236: u8 [a0 + 0x1b] = a5\n 21239: a5 = a4 >> 0x10\n 21242: u8 [a0 + 0x1a] = a5\n 21245: a5 = a4 >> 0x8\n 21248: u8 [a0 + 0x19] = a5\n 21251: u8 [a0 + 0x18] = a4\n 21254: u8 [a0 + 0x10] = a3\n 21257: a4 = a3 >> 0x38\n 21260: u8 [a0 + 0x17] = a4\n 21263: a4 = a3 >> 0x30\n 21266: u8 [a0 + 0x16] = a4\n 21269: a4 = a3 >> 0x28\n 21272: u8 [a0 + 0x15] = a4\n 21275: a4 = a3 >> 0x20\n 21278: u8 [a0 + 0x14] = a4\n 21281: a4 = a3 >> 0x18\n 21284: u8 [a0 + 0x13] = a4\n 21287: a4 = a3 >> 0x10\n 21290: u8 [a0 + 0x12] = a4\n 21293: a3 = a3 >> 0x8\n 21296: u8 [a0 + 0x11] = a3\n 21299: u8 [a0 + 0x8] = a2\n 21302: a3 = a2 >> 0x38\n 21305: u8 [a0 + 0xf] = a3\n 21308: a3 = a2 >> 0x30\n 21311: u8 [a0 + 0xe] = a3\n 21314: a3 = a2 >> 0x28\n 21317: u8 [a0 + 0xd] = a3\n 21320: a3 = a2 >> 0x20\n 21323: u8 [a0 + 0xc] = a3\n 21326: a3 = a2 >> 0x18\n 21329: u8 [a0 + 0xb] = a3\n 21332: a3 = a2 >> 0x10\n 21335: u8 [a0 + 0xa] = a3\n 21338: a2 = a2 >> 0x8\n 21341: u8 [a0 + 0x9] = a2\n 21344: u8 [a0] = a1\n 21346: a2 = a1 >> 0x38\n 21349: u8 [a0 + 0x7] = a2\n 21352: a2 = a1 >> 0x30\n 21355: u8 [a0 + 0x6] = a2\n 21358: a2 = a1 >> 0x28\n 21361: u8 [a0 + 0x5] = a2\n 21364: a2 = a1 >> 0x20\n 21367: u8 [a0 + 0x4] = a2\n 21370: a2 = a1 >> 0x18\n 21373: u8 [a0 + 0x3] = a2\n 21376: a2 = a1 >> 0x10\n 21379: u8 [a0 + 0x2] = a2\n 21382: a1 = a1 >> 0x8\n 21385: a2 = s1 + 0xffffffffffffffc0\n 21388: a3 = u64 [sp + 0xb8]\n 21392: a2 = a3 <u a2\n 21395: a3 = u64 [sp + 0xb0]\n 21399: a2 = 0 if a3 != 0\n 21401: a3 = u64 [sp + 0xa0]\n 21405: a2 = 0 if a3 != 0\n 21407: u8 [a0 + 0x1] = a1\n 21410: jump @357 if a2 == 0\n      : @350 (gas: 19)\n 21414: a0 = u64 [sp + 0xb8]\n 21418: a1 = a0 + 0xa0\n 21422: u64 [sp + 0x88] = a1\n 21426: a0 = a1 <u a0\n 21429: a1 = u64 [sp + 0xb0]\n 21433: a2 = a1 + a0\n 21436: u64 [sp + 0x80] = a2\n 21440: s1 = a2 <u a1\n 21443: s1 = a0 if a0 == 0\n 21446: a0 = u64 [sp + 0x90]\n 21450: s1 = s1 + a0\n 21453: a0 = s1 <u a0\n 21456: a1 = u64 [sp + 0x98]\n 21460: a0 = a0 + a1\n 21463: u64 [sp + 0x98] = a0\n 21467: a0 = u64 [sp + 0xa8]\n 21471: i32 a0 = a0 + 0x40\n 21474: a1 = 0x20\n 21477: ra = 306, jump @0\n      : @351 [@dyn 153] (gas: 51)\n 21483: u8 [a0 + 31] = 0xa0\n 21488: u8 [a0 + 30] = 0\n 21491: u8 [a0 + 29] = 0\n 21494: u8 [a0 + 28] = 0\n 21497: u8 [a0 + 27] = 0\n 21500: u8 [a0 + 26] = 0\n 21503: u8 [a0 + 25] = 0\n 21506: u8 [a0 + 24] = 0\n 21509: u8 [a0 + 23] = 0\n 21512: u8 [a0 + 22] = 0\n 21515: u8 [a0 + 21] = 0\n 21518: u8 [a0 + 20] = 0\n 21521: u8 [a0 + 19] = 0\n 21524: u8 [a0 + 18] = 0\n 21527: u8 [a0 + 17] = 0\n 21530: u8 [a0 + 16] = 0\n 21533: u8 [a0 + 15] = 0\n 21536: u8 [a0 + 14] = 0\n 21539: u8 [a0 + 13] = 0\n 21542: u8 [a0 + 12] = 0\n 21545: u8 [a0 + 11] = 0\n 21548: u8 [a0 + 10] = 0\n 21551: u8 [a0 + 9] = 0\n 21554: u8 [a0 + 8] = 0\n 21557: u8 [a0 + 7] = 0\n 21560: u8 [a0 + 6] = 0\n 21563: u8 [a0 + 5] = 0\n 21566: u8 [a0 + 4] = 0\n 21569: u8 [a0 + 3] = 0\n 21572: u8 [a0 + 2] = 0\n 21575: u8 [a0 + 1] = 0\n 21578: u8 [a0 + 0] = 0\n 21580: a0 = u64 [sp + 0x98]\n 21584: u64 [sp + 0xd8] = a0\n 21588: u64 [sp + 0xd0] = s1\n 21592: a0 = u64 [sp + 0x80]\n 21596: u64 [sp + 0xc8] = a0\n 21600: a0 = u64 [sp + 0x88]\n 21604: u64 [sp + 0xc0] = a0\n 21608: a0 = u64 [sp + 0x48]\n 21611: u64 [sp + 0xf8] = a0\n 21615: a0 = u64 [sp + 0x50]\n 21618: u64 [sp + 0xf0] = a0\n 21622: a0 = u64 [sp + 0x58]\n 21625: u64 [sp + 0xe8] = a0\n 21629: a0 = sp + 0x100\n 21633: a1 = sp + 0xe0\n 21637: a2 = sp + 0xc0\n 21641: a3 = u64 [sp + 0x60]\n 21644: u64 [sp + 0xe0] = a3\n 21648: ra = 308, jump @331\n      : @352 [@dyn 154] (gas: 9)\n 21654: s1 = 0x100000000\n 21664: a0 = 0xffffffa0\n 21674: a1 = u64 [sp + 0xb8]\n 21678: a0 = a1 <u a0\n 21681: a1 = u64 [sp + 0xb0]\n 21685: a0 = 0 if a1 != 0\n 21687: a1 = u64 [sp + 0xa0]\n 21691: a0 = 0 if a1 != 0\n 21693: jump @357 if a0 == 0\n      : @353 (gas: 12)\n 21697: a0 = u64 [sp + 0x118]\n 21701: u64 [sp + 0x90] = a0\n 21705: a0 = u64 [sp + 0x110]\n 21709: u64 [sp + 0x98] = a0\n 21713: a0 = u64 [sp + 0x108]\n 21717: u64 [sp + 0x88] = a0\n 21721: a0 = u64 [sp + 0x100]\n 21725: u64 [sp + 0x80] = a0\n 21729: a0 = u64 [sp + 0xa8]\n 21733: i32 a0 = a0 + 0x60\n 21736: a1 = 0x20\n 21739: ra = 310, jump @0\n      : @354 [@dyn 155] (gas: 76)\n 21745: a1 = u64 [sp + 0x20]\n 21748: a1 = reverse a1\n 21750: a2 = u64 [sp + 0x28]\n 21753: a2 = reverse a2\n 21755: a3 = u64 [sp + 0x30]\n 21758: a3 = reverse a3\n 21760: a4 = u64 [sp + 0x38]\n 21763: a4 = reverse a4\n 21765: a5 = a4 >> 0x38\n 21768: u8 [a0 + 0x1f] = a5\n 21771: a5 = a4 >> 0x30\n 21774: u8 [a0 + 0x1e] = a5\n 21777: a5 = a4 >> 0x28\n 21780: u8 [a0 + 0x1d] = a5\n 21783: a5 = a4 >> 0x20\n 21786: u8 [a0 + 0x1c] = a5\n 21789: a5 = a4 >> 0x18\n 21792: u8 [a0 + 0x1b] = a5\n 21795: a5 = a4 >> 0x10\n 21798: u8 [a0 + 0x1a] = a5\n 21801: a5 = a4 >> 0x8\n 21804: u8 [a0 + 0x19] = a5\n 21807: u8 [a0 + 0x18] = a4\n 21810: u8 [a0 + 0x10] = a3\n 21813: a4 = a3 >> 0x38\n 21816: u8 [a0 + 0x17] = a4\n 21819: a4 = a3 >> 0x30\n 21822: u8 [a0 + 0x16] = a4\n 21825: a4 = a3 >> 0x28\n 21828: u8 [a0 + 0x15] = a4\n 21831: a4 = a3 >> 0x20\n 21834: u8 [a0 + 0x14] = a4\n 21837: a4 = a3 >> 0x18\n 21840: u8 [a0 + 0x13] = a4\n 21843: a4 = a3 >> 0x10\n 21846: u8 [a0 + 0x12] = a4\n 21849: a3 = a3 >> 0x8\n 21852: u8 [a0 + 0x11] = a3\n 21855: u8 [a0 + 0x8] = a2\n 21858: a3 = a2 >> 0x38\n 21861: u8 [a0 + 0xf] = a3\n 21864: a3 = a2 >> 0x30\n 21867: u8 [a0 + 0xe] = a3\n 21870: a3 = a2 >> 0x28\n 21873: u8 [a0 + 0xd] = a3\n 21876: a3 = a2 >> 0x20\n 21879: u8 [a0 + 0xc] = a3\n 21882: a3 = a2 >> 0x18\n 21885: u8 [a0 + 0xb] = a3\n 21888: a3 = a2 >> 0x10\n 21891: u8 [a0 + 0xa] = a3\n 21894: a2 = a2 >> 0x8\n 21897: u8 [a0 + 0x9] = a2\n 21900: u8 [a0] = a1\n 21902: a2 = a1 >> 0x38\n 21905: u8 [a0 + 0x7] = a2\n 21908: a2 = a1 >> 0x30\n 21911: u8 [a0 + 0x6] = a2\n 21914: a2 = a1 >> 0x28\n 21917: u8 [a0 + 0x5] = a2\n 21920: a2 = a1 >> 0x20\n 21923: u8 [a0 + 0x4] = a2\n 21926: a2 = a1 >> 0x18\n 21929: u8 [a0 + 0x3] = a2\n 21932: a2 = a1 >> 0x10\n 21935: u8 [a0 + 0x2] = a2\n 21938: a1 = a1 >> 0x8\n 21941: a2 = s1 + 0xffffffffffffff80\n 21944: a3 = u64 [sp + 0xb8]\n 21948: a2 = a3 <u a2\n 21951: a3 = u64 [sp + 0xb0]\n 21955: a2 = 0 if a3 != 0\n 21957: a3 = u64 [sp + 0xa0]\n 21961: a2 = 0 if a3 != 0\n 21963: u8 [a0 + 0x1] = a1\n 21966: jump @357 if a2 == 0\n      : @355 (gas: 12)\n 21970: a0 = u64 [sp + 0x8]\n 21973: a1 = u64 [sp]\n 21975: a0 = a0 | a1\n 21978: a1 = u64 [sp + 0x18]\n 21981: a2 = u64 [sp + 0x10]\n 21984: a1 = a1 | a2\n 21987: a0 = a0 | a1\n 21990: s1 = a0 >u 0\n 21992: a0 = u64 [sp + 0xa8]\n 21996: i32 a0 = a0 + 0x80\n 22000: a1 = 0x20\n 22003: ra = 312, jump @0\n      : @356 [@dyn 156] (gas: 47)\n 22009: u8 [a0 + 30] = 0\n 22012: u8 [a0 + 29] = 0\n 22015: u8 [a0 + 28] = 0\n 22018: u8 [a0 + 27] = 0\n 22021: u8 [a0 + 26] = 0\n 22024: u8 [a0 + 25] = 0\n 22027: u8 [a0 + 24] = 0\n 22030: u8 [a0 + 23] = 0\n 22033: u8 [a0 + 22] = 0\n 22036: u8 [a0 + 21] = 0\n 22039: u8 [a0 + 20] = 0\n 22042: u8 [a0 + 19] = 0\n 22045: u8 [a0 + 18] = 0\n 22048: u8 [a0 + 17] = 0\n 22051: u8 [a0 + 16] = 0\n 22054: u8 [a0 + 15] = 0\n 22057: u8 [a0 + 14] = 0\n 22060: u8 [a0 + 13] = 0\n 22063: u8 [a0 + 12] = 0\n 22066: u8 [a0 + 11] = 0\n 22069: u8 [a0 + 10] = 0\n 22072: u8 [a0 + 9] = 0\n 22075: u8 [a0 + 8] = 0\n 22078: u8 [a0 + 7] = 0\n 22081: u8 [a0 + 6] = 0\n 22084: u8 [a0 + 5] = 0\n 22087: u8 [a0 + 4] = 0\n 22090: u8 [a0 + 3] = 0\n 22093: u8 [a0 + 2] = 0\n 22096: u8 [a0 + 1] = 0\n 22099: u8 [a0 + 0] = 0\n 22101: u8 [a0 + 0x1f] = s1\n 22104: a0 = u64 [sp + 0x40]\n 22107: a1 = u64 [sp + 0x80]\n 22111: u64 [a0] = a1\n 22113: a1 = u64 [sp + 0x90]\n 22117: u64 [a0 + 0x18] = a1\n 22120: a1 = u64 [sp + 0x88]\n 22124: u64 [a0 + 0x8] = a1\n 22127: a1 = u64 [sp + 0x98]\n 22131: u64 [a0 + 0x10] = a1\n 22134: sp = s0 + 0xfffffffffffffec0\n 22138: ra = u64 [sp + 0x138]\n 22142: s0 = u64 [sp + 0x130]\n 22146: s1 = u64 [sp + 0x128]\n 22150: sp = sp + 0x140\n 22154: ret\n      : @357 (gas: 1)\n 22156: trap\n      : @358 (gas: 8)\n 22157: a0 = u64 [sp + 0x270]\n 22161: a1 = u64 [sp + 0x278]\n 22165: a2 = u64 [sp + 0x268]\n 22169: a3 = u64 [sp + 0x260]\n 22173: a1 = a1 | a2\n 22176: a0 = a0 | a3\n 22179: a0 = a0 | a1\n 22182: jump @366 if a0 != 0\n      : @359 (gas: 2)\n 22186: a0 = i32 [0x200a8]\n 22191: jump @366 if a0 <=u 35\n      : @360 (gas: 14)\n 22196: i32 a0 = sp + 0x280\n 22200: a1 = 0x4\n 22203: ecalli 2 // 'call_data_load'\n 22205: a2 = u64 [sp + 0x280]\n 22209: a0 = u64 [sp + 0x288]\n 22213: a1 = u64 [sp + 0x290]\n 22217: a3 = u64 [sp + 0x298]\n 22221: u64 [sp + 0x1b8] = a3\n 22225: u64 [sp + 0x1b0] = a1\n 22229: u64 [sp + 0x1a8] = a0\n 22233: a0 = sp + 0x1c0\n 22237: a1 = sp + 0x1a0\n 22241: u64 [sp + 0x1a0] = a2\n 22245: ra = 314, jump @326\n      : @361 [@dyn 157] (gas: 43)\n 22251: a0 = u64 [sp + 0x1c0]\n 22255: u64 [sp + 0xb0] = a0\n 22259: a0 = u64 [sp + 0x1c8]\n 22263: u64 [sp + 0xa8] = a0\n 22267: a0 = u64 [sp + 0x1d0]\n 22271: u64 [sp + 0xa0] = a0\n 22275: a0 = u64 [sp + 0x1d8]\n 22279: u64 [sp + 0x98] = a0\n 22283: a0 = u64 [sp + 0x1e0]\n 22287: u64 [sp + 0x90] = a0\n 22291: a0 = u64 [sp + 0x1e8]\n 22295: u64 [sp + 0x88] = a0\n 22299: a0 = u64 [sp + 0x1f0]\n 22303: u64 [sp + 0x80] = a0\n 22307: a0 = u64 [sp + 0x1f8]\n 22311: u64 [sp + 0x78] = a0\n 22314: a0 = u64 [sp + 0x200]\n 22318: u64 [sp + 0x70] = a0\n 22321: a0 = u64 [sp + 0x208]\n 22325: u64 [sp + 0x68] = a0\n 22328: a0 = u64 [sp + 0x210]\n 22332: u64 [sp + 0x60] = a0\n 22335: a0 = u64 [sp + 0x218]\n 22339: u64 [sp + 0x58] = a0\n 22342: a0 = u64 [sp + 0x220]\n 22346: u64 [sp + 0x50] = a0\n 22349: a0 = u64 [sp + 0x228]\n 22353: u64 [sp + 0x48] = a0\n 22356: a0 = u64 [sp + 0x230]\n 22360: u64 [sp + 0x40] = a0\n 22363: a0 = u64 [sp + 0x238]\n 22367: u64 [sp + 0x38] = a0\n 22370: a0 = u64 [sp + 0x240]\n 22374: u64 [sp + 0x30] = a0\n 22377: a0 = u64 [sp + 0x248]\n 22381: u64 [sp + 0x28] = a0\n 22384: a0 = u64 [sp + 0x250]\n 22388: u64 [sp + 0x20] = a0\n 22391: a0 = u64 [sp + 0x258]\n 22395: u64 [sp + 0x18] = a0\n 22398: a0 = 0x40\n 22401: a1 = 0x20\n 22404: ra = 316, jump @0\n      : @362 [@dyn 158] (gas: 148)\n 22410: a1 = u8 [a0 + 0x1]\n 22413: a2 = u8 [a0]\n 22415: a3 = u8 [a0 + 0x2]\n 22418: a4 = u8 [a0 + 0x3]\n 22421: a1 = a1 << 0x8\n 22424: a1 = a1 | a2\n 22427: a3 = a3 << 0x10\n 22430: a4 = a4 << 0x18\n 22433: a3 = a3 | a4\n 22436: a1 = a1 | a3\n 22439: a2 = u8 [a0 + 0x5]\n 22442: a3 = u8 [a0 + 0x4]\n 22445: a4 = u8 [a0 + 0x6]\n 22448: a5 = u8 [a0 + 0x7]\n 22451: a2 = a2 << 0x8\n 22454: a2 = a2 | a3\n 22457: a4 = a4 << 0x10\n 22460: a5 = a5 << 0x18\n 22463: a4 = a4 | a5\n 22466: a2 = a2 | a4\n 22469: a2 = a2 << 0x20\n 22472: t0 = a2 | a1\n 22475: a2 = u8 [a0 + 0x9]\n 22478: a3 = u8 [a0 + 0x8]\n 22481: a4 = u8 [a0 + 0xa]\n 22484: a5 = u8 [a0 + 0xb]\n 22487: a2 = a2 << 0x8\n 22490: a2 = a2 | a3\n 22493: a4 = a4 << 0x10\n 22496: a5 = a5 << 0x18\n 22499: a4 = a4 | a5\n 22502: a2 = a2 | a4\n 22505: a3 = u8 [a0 + 0xd]\n 22508: a4 = u8 [a0 + 0xc]\n 22511: a5 = u8 [a0 + 0xe]\n 22514: s1 = u8 [a0 + 0xf]\n 22517: a3 = a3 << 0x8\n 22520: a3 = a3 | a4\n 22523: a5 = a5 << 0x10\n 22526: s1 = s1 << 0x18\n 22529: a5 = a5 | s1\n 22532: a3 = a3 | a5\n 22535: a3 = a3 << 0x20\n 22538: a2 = a2 | a3\n 22541: a3 = u8 [a0 + 0x11]\n 22544: a4 = u8 [a0 + 0x10]\n 22547: a5 = u8 [a0 + 0x12]\n 22550: s1 = u8 [a0 + 0x13]\n 22553: a3 = a3 << 0x8\n 22556: a3 = a3 | a4\n 22559: a5 = a5 << 0x10\n 22562: s1 = s1 << 0x18\n 22565: a5 = a5 | s1\n 22568: a3 = a3 | a5\n 22571: a4 = u8 [a0 + 0x15]\n 22574: a5 = u8 [a0 + 0x14]\n 22577: s1 = u8 [a0 + 0x16]\n 22580: a1 = u8 [a0 + 0x17]\n 22583: a4 = a4 << 0x8\n 22586: a4 = a4 | a5\n 22589: s1 = s1 << 0x10\n 22592: a1 = a1 << 0x18\n 22595: a1 = a1 | s1\n 22598: a1 = a1 | a4\n 22601: a1 = a1 << 0x20\n 22604: a3 = a3 | a1\n 22607: a1 = u8 [a0 + 0x19]\n 22610: a4 = u8 [a0 + 0x18]\n 22613: a5 = u8 [a0 + 0x1a]\n 22616: s1 = u8 [a0 + 0x1b]\n 22619: a1 = a1 << 0x8\n 22622: a1 = a1 | a4\n 22625: a5 = a5 << 0x10\n 22628: s1 = s1 << 0x18\n 22631: a5 = a5 | s1\n 22634: a1 = a1 | a5\n 22637: a4 = u8 [a0 + 0x1d]\n 22640: a5 = u8 [a0 + 0x1c]\n 22643: s1 = u8 [a0 + 0x1e]\n 22646: a0 = u8 [a0 + 0x1f]\n 22649: a4 = a4 << 0x8\n 22652: a4 = a4 | a5\n 22655: s1 = s1 << 0x10\n 22658: a0 = a0 << 0x18\n 22661: a0 = a0 | s1\n 22664: a0 = a0 | a4\n 22667: a0 = a0 << 0x20\n 22670: a0 = a0 | a1\n 22673: s1 = reverse a0\n 22675: a3 = reverse a3\n 22677: u64 [sp + 0x8] = a3\n 22680: a1 = reverse a2\n 22682: u64 [sp + 0x10] = a1\n 22685: a2 = reverse t0\n 22687: u64 [sp + 0xb8] = a2\n 22691: a0 = sp + 0xc0\n 22695: u64 [sp] = a0\n 22697: a0 = u64 [sp + 0x18]\n 22700: u64 [sp + 0xd8] = a0\n 22704: a0 = u64 [sp + 0x20]\n 22707: u64 [sp + 0xd0] = a0\n 22711: a0 = u64 [sp + 0x28]\n 22714: u64 [sp + 0xc8] = a0\n 22718: a0 = u64 [sp + 0x30]\n 22721: u64 [sp + 0xc0] = a0\n 22725: a0 = u64 [sp + 0x38]\n 22728: u64 [sp + 0xf8] = a0\n 22732: a0 = u64 [sp + 0x40]\n 22735: u64 [sp + 0xf0] = a0\n 22739: a0 = u64 [sp + 0x48]\n 22742: u64 [sp + 0xe8] = a0\n 22746: a0 = u64 [sp + 0x50]\n 22749: u64 [sp + 0xe0] = a0\n 22753: a0 = u64 [sp + 0x58]\n 22756: u64 [sp + 0x118] = a0\n 22760: a0 = u64 [sp + 0x60]\n 22763: u64 [sp + 0x110] = a0\n 22767: a0 = u64 [sp + 0x68]\n 22770: u64 [sp + 0x108] = a0\n 22774: a0 = u64 [sp + 0x70]\n 22777: u64 [sp + 0x100] = a0\n 22781: a0 = u64 [sp + 0x78]\n 22784: u64 [sp + 0x138] = a0\n 22788: a0 = u64 [sp + 0x80]\n 22792: u64 [sp + 0x130] = a0\n 22796: a0 = u64 [sp + 0x88]\n 22800: u64 [sp + 0x128] = a0\n 22804: a0 = u64 [sp + 0x90]\n 22808: u64 [sp + 0x120] = a0\n 22812: a0 = u64 [sp + 0x98]\n 22816: u64 [sp + 0x158] = a0\n 22820: a0 = u64 [sp + 0xa0]\n 22824: u64 [sp + 0x150] = a0\n 22828: a0 = u64 [sp + 0xa8]\n 22832: u64 [sp + 0x148] = a0\n 22836: a0 = u64 [sp + 0xb0]\n 22840: u64 [sp + 0x140] = a0\n 22844: u64 [sp + 0x178] = a2\n 22848: u64 [sp + 0x170] = a1\n 22852: u64 [sp + 0x168] = a3\n 22856: a0 = sp + 0x180\n 22860: a1 = sp + 0x160\n 22864: a2 = sp + 0x140\n 22868: a3 = sp + 0x120\n 22872: a4 = sp + 0x100\n 22876: a5 = sp + 0xe0\n 22880: u64 [sp + 0x160] = s1\n 22884: ra = 318, jump @345\n      : @363 [@dyn 159] (gas: 12)\n 22890: a4 = u64 [sp + 0x8]\n 22893: a2 = s1\n 22895: a0 = u64 [sp + 0xb8]\n 22899: a0 = a0 | a4\n 22902: s1 = u64 [sp + 0x10]\n 22905: a1 = a2 | s1\n 22908: a1 = a1 | a0\n 22911: a1 = a1 >> 0x20\n 22914: a0 = a0 | s1\n 22917: a0 = a0 << 0x20\n 22920: a0 = a0 | a1\n 22923: jump @365 if a0 != 0\n      : @364 (gas: 29)\n 22926: a0 = u64 [sp + 0x188]\n 22930: a1 = u64 [sp + 0x198]\n 22934: u64 [sp + 0xb0] = a1\n 22938: t1 = u64 [sp + 0x180]\n 22942: a1 = u64 [sp + 0x190]\n 22946: t2 = a0 ^ a4\n 22949: a5 = a0 <u a4\n 22952: ra = t1 <u a2\n 22955: a5 = ra if t2 == 0\n 22958: a3 = a1 - s1\n 22961: t2 = a3 - a5\n 22964: t0 = a3 <u a5\n 22967: a3 = a1 <u s1\n 22970: a1 = u64 [sp + 0xb8]\n 22974: a5 = u64 [sp + 0xb0]\n 22978: a5 = a5 - a1\n 22981: a5 = a5 - a3\n 22984: a5 = a5 - t0\n 22987: a0 = a0 - a4\n 22990: a0 = a0 - ra\n 22993: s1 = t1 - a2\n 22996: a0 = a0 | a5\n 22999: a1 = s1 | t2\n 23002: a1 = a1 | a0\n 23005: a0 = a0 | t2\n 23008: a1 = a1 >> 0x20\n 23011: a0 = a0 << 0x20\n 23014: a0 = a0 | a1\n 23017: jump @368 if a0 == 0\n      : @365 (gas: 1)\n 23020: trap\n      : @366 (gas: 3)\n 23021: a0 = 0\n 23023: a1 = 0\n 23025: ra = 320, jump @0\n      : @367 [@dyn 160] (gas: 5)\n 23031: i32 a1 = a0 + 0\n 23033: a0 = 0x1\n 23036: a2 = 0\n 23038: ecalli 11 // 'seal_return'\n 23040: fallthrough\n      : @368 (gas: 4)\n 23041: i32 a0 = a2 + 0\n 23043: i32 s1 = s1 + 0\n 23045: a1 = s1\n 23047: ra = 322, jump @0\n      : @369 [@dyn 161] (gas: 6)\n 23053: i32 a1 = a0 + 0\n 23055: a0 = 0\n 23057: a2 = s1\n 23059: ra = 0x144\n 23063: ecalli 11 // 'seal_return'\n 23065: fallthrough\n      : @370 [@dyn 162] (gas: 7)\n 23066: sp = sp + 0xffffffffffffffa0\n 23069: u64 [sp + 0x58] = ra\n 23072: u64 [sp + 0x50] = s0\n 23075: s0 = sp + 0x60\n 23078: sp = sp & 0xffffffffffffffe0\n 23081: a0 = i32 [0x200a8]\n 23086: jump @375 if a0 <=u 35\n      : @371 (gas: 13)\n 23091: i32 a0 = sp + 0x20\n 23094: a1 = 0x4\n 23097: ecalli 2 // 'call_data_load'\n 23099: a1 = u64 [sp + 0x20]\n 23102: a0 = u64 [sp + 0x28]\n 23105: a2 = u64 [sp + 0x30]\n 23108: a3 = u64 [sp + 0x38]\n 23111: u64 [sp + 0x18] = a3\n 23114: u64 [sp + 0x10] = a2\n 23117: u64 [sp + 0x8] = a0\n 23120: a0 = sp\n 23122: u64 [sp] = a1\n 23124: ra = 326, jump @892\n      : @372 [@dyn 163] (gas: 3)\n 23131: a0 = 0x40\n 23134: a1 = 0x20\n 23137: ra = 328, jump @0\n      : @373 [@dyn 164] (gas: 100)\n 23143: a1 = u8 [a0 + 0x11]\n 23146: a2 = u8 [a0 + 0x10]\n 23149: a3 = u8 [a0 + 0x12]\n 23152: a4 = u8 [a0 + 0x13]\n 23155: a1 = a1 << 0x8\n 23158: a1 = a1 | a2\n 23161: a3 = a3 << 0x10\n 23164: a4 = a4 << 0x18\n 23167: a3 = a3 | a4\n 23170: a1 = a1 | a3\n 23173: a2 = u8 [a0 + 0x15]\n 23176: a3 = u8 [a0 + 0x14]\n 23179: a4 = u8 [a0 + 0x16]\n 23182: a5 = u8 [a0 + 0x17]\n 23185: a2 = a2 << 0x8\n 23188: a2 = a2 | a3\n 23191: a4 = a4 << 0x10\n 23194: a5 = a5 << 0x18\n 23197: a4 = a4 | a5\n 23200: a2 = a2 | a4\n 23203: a2 = a2 << 0x20\n 23206: t0 = a2 | a1\n 23209: a2 = u8 [a0 + 0x1]\n 23212: a3 = u8 [a0]\n 23214: a4 = u8 [a0 + 0x2]\n 23217: a5 = u8 [a0 + 0x3]\n 23220: a2 = a2 << 0x8\n 23223: a2 = a2 | a3\n 23226: a4 = a4 << 0x10\n 23229: a5 = a5 << 0x18\n 23232: a4 = a4 | a5\n 23235: a2 = a2 | a4\n 23238: a3 = u8 [a0 + 0x5]\n 23241: a4 = u8 [a0 + 0x4]\n 23244: a5 = u8 [a0 + 0x6]\n 23247: a1 = u8 [a0 + 0x7]\n 23250: a3 = a3 << 0x8\n 23253: a3 = a3 | a4\n 23256: a5 = a5 << 0x10\n 23259: a1 = a1 << 0x18\n 23262: a1 = a1 | a5\n 23265: a1 = a1 | a3\n 23268: a1 = a1 << 0x20\n 23271: t1 = a1 | a2\n 23274: a1 = u8 [a0 + 0x19]\n 23277: a3 = u8 [a0 + 0x18]\n 23280: a4 = u8 [a0 + 0x1a]\n 23283: a5 = u8 [a0 + 0x1b]\n 23286: a1 = a1 << 0x8\n 23289: a1 = a1 | a3\n 23292: a4 = a4 << 0x10\n 23295: a5 = a5 << 0x18\n 23298: a4 = a4 | a5\n 23301: a1 = a1 | a4\n 23304: a3 = u8 [a0 + 0x1d]\n 23307: a4 = u8 [a0 + 0x1c]\n 23310: a5 = u8 [a0 + 0x1e]\n 23313: a2 = u8 [a0 + 0x1f]\n 23316: a3 = a3 << 0x8\n 23319: a3 = a3 | a4\n 23322: a5 = a5 << 0x10\n 23325: a2 = a2 << 0x18\n 23328: a2 = a2 | a5\n 23331: a2 = a2 | a3\n 23334: a2 = a2 << 0x20\n 23337: a3 = a2 | a1\n 23340: a1 = u8 [a0 + 0x9]\n 23343: a2 = u8 [a0 + 0x8]\n 23346: a4 = u8 [a0 + 0xa]\n 23349: a5 = u8 [a0 + 0xb]\n 23352: a1 = a1 << 0x8\n 23355: a1 = a1 | a2\n 23358: a4 = a4 << 0x10\n 23361: a5 = a5 << 0x18\n 23364: a4 = a4 | a5\n 23367: a1 = a1 | a4\n 23370: a2 = u8 [a0 + 0xd]\n 23373: a4 = u8 [a0 + 0xc]\n 23376: a5 = u8 [a0 + 0xe]\n 23379: a0 = u8 [a0 + 0xf]\n 23382: a2 = a2 << 0x8\n 23385: a2 = a2 | a4\n 23388: a5 = a5 << 0x10\n 23391: a0 = a0 << 0x18\n 23394: a0 = a0 | a5\n 23397: a0 = a0 | a2\n 23400: a0 = a0 << 0x20\n 23403: a0 = a0 | a1\n 23406: a1 = reverse a0\n 23408: a0 = reverse a3\n 23410: a2 = reverse t1\n 23412: a3 = reverse t0\n 23414: a2 = a2 | a3\n 23417: a3 = a0 | a1\n 23420: a3 = a3 | a2\n 23423: a3 = a3 >> 0x20\n 23426: a1 = a1 | a2\n 23429: a1 = a1 << 0x20\n 23432: a1 = a1 | a3\n 23435: jump @377 if a1 == 0\n      : @374 (gas: 1)\n 23438: trap\n      : @375 (gas: 3)\n 23439: a0 = 0\n 23441: a1 = 0\n 23443: ra = 330, jump @0\n      : @376 [@dyn 165] (gas: 7)\n 23449: i32 a1 = a0 + 0\n 23451: a0 = 0x1\n 23454: a2 = 0\n 23456: ecalli 11 // 'seal_return'\n 23458: i32 a0 = a0 + 0\n 23460: ra = 0x14c\n 23464: jump @0\n      : @377 (gas: 2)\n 23467: i32 a0 = a0 + 0\n 23469: ra = 332, jump @0\n      : @378 [@dyn 166] (gas: 6)\n 23475: i32 a1 = a0 + 0\n 23477: a0 = 0\n 23479: a2 = 0\n 23481: ra = 0x14e\n 23485: ecalli 11 // 'seal_return'\n 23487: fallthrough\n      : @379 [@dyn 167] (gas: 47)\n 23488: sp = sp + 0xffffffffffffff80\n 23491: u64 [sp + 0x78] = ra\n 23494: u64 [sp + 0x70] = s0\n 23497: u64 [sp + 0x68] = s1\n 23500: s0 = sp + 0x80\n 23504: sp = sp & 0xffffffffffffffe0\n 23507: ra = u64 [a1 + 0x10]\n 23510: a5 = u64 [a1 + 0x8]\n 23513: a3 = u64 [a2 + 0x8]\n 23516: t1 = u64 [a1]\n 23518: a4 = u64 [a2]\n 23520: u64 [sp + 0x28] = a4\n 23523: t2 = u64 [a2 + 0x10]\n 23526: t0 = a3 ^ a5\n 23529: s1 = a3 <u a5\n 23532: a4 = a4 <u t1\n 23535: u64 [sp + 0x20] = a4\n 23538: s1 = a4 if t0 == 0\n 23541: t0 = u64 [a1 + 0x18]\n 23544: a1 = u64 [a2 + 0x18]\n 23547: u64 [sp + 0x18] = a1\n 23550: a2 = t2 - ra\n 23553: a1 = a2 - s1\n 23556: u64 [sp + 0x30] = a1\n 23559: a1 = a2 <u s1\n 23562: a4 = t2 <u ra\n 23565: u64 [sp + 0x38] = t0\n 23568: a2 = u64 [sp + 0x18]\n 23571: a2 = a2 - t0\n 23574: a2 = a2 - a4\n 23577: a2 = a2 - a1\n 23580: a1 = a3 - a5\n 23583: a3 = u64 [sp + 0x20]\n 23586: a1 = a1 - a3\n 23589: a3 = u64 [sp + 0x28]\n 23592: a3 = a3 - t1\n 23595: a4 = a1 >u 0\n 23597: a3 = a3 <u 0x40\n 23600: a3 = a3 ^ 0x1\n 23603: a3 = a4 if a1 != 0\n 23606: s1 = a2 >s 0\n 23608: a1 = u64 [sp + 0x30]\n 23611: a4 = a1 >u 0\n 23613: a4 = s1 if a2 != 0\n 23616: a1 = a1 | a2\n 23619: a3 = a4 if a1 != 0\n 23622: jump @385 if a3 == 0\n      : @380 (gas: 12)\n 23626: s1 = a0\n 23628: a0 = t1 | ra\n 23631: u64 [sp + 0x30] = a5\n 23634: a1 = u64 [sp + 0x38]\n 23637: a1 = a1 | a5\n 23640: a0 = a0 | a1\n 23643: a0 = a0 >> 0x20\n 23646: u64 [sp + 0x28] = ra\n 23649: a1 = a1 | ra\n 23652: a1 = a1 << 0x20\n 23655: a0 = a0 | a1\n 23658: jump @384 if a0 != 0\n      : @381 (gas: 6)\n 23662: i32 a1 = t1 + 0\n 23664: i32 a0 = sp + 0x40\n 23667: u64 [sp + 0x18] = a1\n 23670: u64 [sp + 0x20] = t1\n 23673: ecalli 2 // 'call_data_load'\n 23675: fallthrough\n      : @382 (gas: 10)\n 23676: a0 = u64 [sp + 0x28]\n 23679: a1 = u64 [sp + 0x38]\n 23682: a0 = a0 | a1\n 23685: a1 = 0xffffffe0\n 23695: a2 = u64 [sp + 0x20]\n 23698: a1 = a2 <u a1\n 23701: a2 = u64 [sp + 0x30]\n 23704: a1 = 0 if a2 != 0\n 23706: a1 = 0 if a0 != 0\n 23708: jump @384 if a1 == 0\n      : @383 (gas: 34)\n 23711: a0 = u64 [sp + 0x58]\n 23714: u64 [sp + 0x20] = a0\n 23717: a0 = u64 [sp + 0x50]\n 23720: u64 [sp + 0x28] = a0\n 23723: a0 = u64 [sp + 0x48]\n 23726: u64 [sp + 0x30] = a0\n 23729: a0 = u64 [sp + 0x40]\n 23732: u64 [sp + 0x38] = a0\n 23735: a0 = u64 [sp + 0x18]\n 23738: i32 a1 = a0 + 0x20\n 23741: i32 a0 = sp + 0x40\n 23744: ecalli 2 // 'call_data_load'\n 23746: a0 = u64 [sp + 0x58]\n 23749: a1 = u64 [sp + 0x50]\n 23752: a2 = u64 [sp + 0x48]\n 23755: a3 = u64 [sp + 0x40]\n 23758: u64 [s1 + 0x38] = a0\n 23761: u64 [s1 + 0x30] = a1\n 23764: u64 [s1 + 0x28] = a2\n 23767: u64 [s1 + 0x20] = a3\n 23770: a0 = u64 [sp + 0x20]\n 23773: u64 [s1 + 0x18] = a0\n 23776: a0 = u64 [sp + 0x28]\n 23779: u64 [s1 + 0x10] = a0\n 23782: a0 = u64 [sp + 0x30]\n 23785: u64 [s1 + 0x8] = a0\n 23788: a0 = u64 [sp + 0x38]\n 23791: u64 [s1] = a0\n 23793: sp = s0 + 0xffffffffffffff80\n 23796: ra = u64 [sp + 0x78]\n 23799: s0 = u64 [sp + 0x70]\n 23802: s1 = u64 [sp + 0x68]\n 23805: sp = sp + 0x80\n 23809: ret\n      : @384 (gas: 1)\n 23811: trap\n      : @385 (gas: 3)\n 23812: a0 = 0\n 23814: a1 = 0\n 23816: ra = 336, jump @0\n      : @386 [@dyn 168] (gas: 6)\n 23822: i32 a1 = a0 + 0\n 23824: a0 = 0x1\n 23827: a2 = 0\n 23829: ra = 0x152\n 23833: ecalli 11 // 'seal_return'\n 23835: fallthrough\n      : @387 [@dyn 169] (gas: 13)\n 23836: sp = sp + 0xffffffffffffff40\n 23840: u64 [sp + 0xb8] = ra\n 23844: u64 [sp + 0xb0] = s0\n 23848: u64 [sp + 0xa8] = s1\n 23852: s0 = sp + 0xc0\n 23856: sp = sp & 0xffffffffffffffe0\n 23859: u64 [sp + 120] = 0\n 23862: u64 [sp + 112] = 0\n 23865: u64 [sp + 104] = 0\n 23868: u64 [sp + 96] = 0\n 23871: i32 a0 = sp + 0x60\n 23874: ecalli 14 // 'value_transferred'\n 23876: fallthrough\n      : @388 (gas: 8)\n 23877: a0 = u64 [sp + 0x70]\n 23880: a1 = u64 [sp + 0x78]\n 23883: a2 = u64 [sp + 0x68]\n 23886: a3 = u64 [sp + 0x60]\n 23889: a1 = a1 | a2\n 23892: a0 = a0 | a3\n 23895: a0 = a0 | a1\n 23898: jump @394 if a0 != 0\n      : @389 (gas: 2)\n 23902: a0 = i32 [0x200a8]\n 23907: jump @394 if a0 <=u 67\n      : @390 (gas: 31)\n 23912: i32 a0 = sp + 0x80\n 23916: a1 = 0x4\n 23919: ecalli 2 // 'call_data_load'\n 23921: a0 = u64 [sp + 0x80]\n 23925: u64 [sp + 0x18] = a0\n 23928: a0 = u64 [sp + 0x88]\n 23932: u64 [sp + 0x10] = a0\n 23935: a0 = u64 [sp + 0x90]\n 23939: u64 [sp + 0x8] = a0\n 23942: s1 = u64 [sp + 0x98]\n 23946: i32 a0 = sp + 0x80\n 23950: a1 = 0x24\n 23953: ecalli 2 // 'call_data_load'\n 23955: a0 = u64 [sp + 0x80]\n 23959: a1 = u64 [sp + 0x88]\n 23963: a2 = u64 [sp + 0x90]\n 23967: a3 = u64 [sp + 0x98]\n 23971: u64 [sp + 0x38] = a3\n 23974: u64 [sp + 0x30] = a2\n 23977: u64 [sp + 0x28] = a1\n 23980: u64 [sp + 0x20] = a0\n 23983: u64 [sp + 0x58] = s1\n 23986: a0 = u64 [sp + 0x8]\n 23989: u64 [sp + 0x50] = a0\n 23992: a0 = u64 [sp + 0x10]\n 23995: u64 [sp + 0x48] = a0\n 23998: a0 = sp + 0x40\n 24001: a1 = sp + 0x20\n 24004: a2 = u64 [sp + 0x18]\n 24007: u64 [sp + 0x40] = a2\n 24010: ra = 340, jump @1013\n      : @391 [@dyn 170] (gas: 3)\n 24017: a0 = 0x40\n 24020: a1 = 0x20\n 24023: ra = 342, jump @0\n      : @392 [@dyn 171] (gas: 100)\n 24029: a1 = u8 [a0 + 0x11]\n 24032: a2 = u8 [a0 + 0x10]\n 24035: a3 = u8 [a0 + 0x12]\n 24038: a4 = u8 [a0 + 0x13]\n 24041: a1 = a1 << 0x8\n 24044: a1 = a1 | a2\n 24047: a3 = a3 << 0x10\n 24050: a4 = a4 << 0x18\n 24053: a3 = a3 | a4\n 24056: a1 = a1 | a3\n 24059: a2 = u8 [a0 + 0x15]\n 24062: a3 = u8 [a0 + 0x14]\n 24065: a4 = u8 [a0 + 0x16]\n 24068: a5 = u8 [a0 + 0x17]\n 24071: a2 = a2 << 0x8\n 24074: a2 = a2 | a3\n 24077: a4 = a4 << 0x10\n 24080: a5 = a5 << 0x18\n 24083: a4 = a4 | a5\n 24086: a2 = a2 | a4\n 24089: a2 = a2 << 0x20\n 24092: t0 = a2 | a1\n 24095: a2 = u8 [a0 + 0x1]\n 24098: a3 = u8 [a0]\n 24100: a4 = u8 [a0 + 0x2]\n 24103: a5 = u8 [a0 + 0x3]\n 24106: a2 = a2 << 0x8\n 24109: a2 = a2 | a3\n 24112: a4 = a4 << 0x10\n 24115: a5 = a5 << 0x18\n 24118: a4 = a4 | a5\n 24121: a2 = a2 | a4\n 24124: a3 = u8 [a0 + 0x5]\n 24127: a4 = u8 [a0 + 0x4]\n 24130: a5 = u8 [a0 + 0x6]\n 24133: s1 = u8 [a0 + 0x7]\n 24136: a3 = a3 << 0x8\n 24139: a3 = a3 | a4\n 24142: a5 = a5 << 0x10\n 24145: s1 = s1 << 0x18\n 24148: a5 = a5 | s1\n 24151: a3 = a3 | a5\n 24154: a3 = a3 << 0x20\n 24157: a2 = a2 | a3\n 24160: a3 = u8 [a0 + 0x19]\n 24163: a4 = u8 [a0 + 0x18]\n 24166: a5 = u8 [a0 + 0x1a]\n 24169: s1 = u8 [a0 + 0x1b]\n 24172: a3 = a3 << 0x8\n 24175: a3 = a3 | a4\n 24178: a5 = a5 << 0x10\n 24181: s1 = s1 << 0x18\n 24184: a5 = a5 | s1\n 24187: a3 = a3 | a5\n 24190: a4 = u8 [a0 + 0x1d]\n 24193: a5 = u8 [a0 + 0x1c]\n 24196: s1 = u8 [a0 + 0x1e]\n 24199: a1 = u8 [a0 + 0x1f]\n 24202: a4 = a4 << 0x8\n 24205: a4 = a4 | a5\n 24208: s1 = s1 << 0x10\n 24211: a1 = a1 << 0x18\n 24214: a1 = a1 | s1\n 24217: a1 = a1 | a4\n 24220: a1 = a1 << 0x20\n 24223: a3 = a3 | a1\n 24226: a1 = u8 [a0 + 0x9]\n 24229: a4 = u8 [a0 + 0x8]\n 24232: a5 = u8 [a0 + 0xa]\n 24235: s1 = u8 [a0 + 0xb]\n 24238: a1 = a1 << 0x8\n 24241: a1 = a1 | a4\n 24244: a5 = a5 << 0x10\n 24247: s1 = s1 << 0x18\n 24250: a5 = a5 | s1\n 24253: a1 = a1 | a5\n 24256: a4 = u8 [a0 + 0xd]\n 24259: a5 = u8 [a0 + 0xc]\n 24262: s1 = u8 [a0 + 0xe]\n 24265: a0 = u8 [a0 + 0xf]\n 24268: a4 = a4 << 0x8\n 24271: a4 = a4 | a5\n 24274: s1 = s1 << 0x10\n 24277: a0 = a0 << 0x18\n 24280: a0 = a0 | s1\n 24283: a0 = a0 | a4\n 24286: a0 = a0 << 0x20\n 24289: a0 = a0 | a1\n 24292: a1 = reverse a0\n 24294: a0 = reverse a3\n 24296: a2 = reverse a2\n 24298: a3 = reverse t0\n 24300: a2 = a2 | a3\n 24303: a3 = a0 | a1\n 24306: a3 = a3 | a2\n 24309: a3 = a3 >> 0x20\n 24312: a1 = a1 | a2\n 24315: a1 = a1 << 0x20\n 24318: a1 = a1 | a3\n 24321: jump @396 if a1 == 0\n      : @393 (gas: 1)\n 24324: trap\n      : @394 (gas: 3)\n 24325: a0 = 0\n 24327: a1 = 0\n 24329: ra = 344, jump @0\n      : @395 [@dyn 172] (gas: 7)\n 24335: i32 a1 = a0 + 0\n 24337: a0 = 0x1\n 24340: a2 = 0\n 24342: ecalli 11 // 'seal_return'\n 24344: i32 a0 = a0 + 0\n 24346: ra = 0x15a\n 24350: jump @0\n      : @396 (gas: 2)\n 24353: i32 a0 = a0 + 0\n 24355: ra = 346, jump @0\n      : @397 [@dyn 173] (gas: 6)\n 24361: i32 a1 = a0 + 0\n 24363: a0 = 0\n 24365: a2 = 0\n 24367: ra = 0x15c\n 24371: ecalli 11 // 'seal_return'\n 24373: fallthrough\n      : @398 [@dyn 174] (gas: 19)\n 24374: t0 = u64 [a0 + 0x18]\n 24377: t1 = u64 [a1 + 0x18]\n 24380: a4 = u64 [a0 + 0x10]\n 24383: a5 = u64 [a0 + 0x8]\n 24386: a2 = u64 [a1 + 0x8]\n 24389: t2 = u64 [a0]\n 24391: a3 = u64 [a1]\n 24393: a1 = u64 [a1 + 0x10]\n 24396: a0 = a2 ^ a5\n 24399: a2 = a2 <u a5\n 24402: a3 = a3 <u t2\n 24405: a3 = a2 if a0 != 0\n 24408: a0 = a1 - a4\n 24411: a0 = a0 <u a3\n 24414: a1 = a1 <u a4\n 24417: a2 = t1 - t0\n 24420: a2 = a2 - a1\n 24423: a2 = a2 - a0\n 24426: jump @400 if a2 <s 0\n      : @399 (gas: 1)\n 24429: ret\n      : @400 (gas: 5)\n 24431: sp = sp + 0xfffffffffffffff8\n 24434: u64 [sp] = ra\n 24436: a0 = 0\n 24438: a1 = 0\n 24440: ra = 350, jump @0\n      : @401 [@dyn 175] (gas: 6)\n 24446: i32 a1 = a0 + 0\n 24448: a0 = 0x1\n 24451: a2 = 0\n 24453: ra = 0x160\n 24457: ecalli 11 // 'seal_return'\n 24459: fallthrough\n      : @402 [@dyn 176] (gas: 236)\n 24460: sp = sp + 0xffffffffffffffa0\n 24463: u64 [sp + 0x58] = ra\n 24466: u64 [sp + 0x50] = s0\n 24469: u64 [sp + 0x48] = s1\n 24472: u64 [sp] = a0\n 24474: t0 = u64 [a1]\n 24476: t1 = u64 [a2]\n 24478: a0 = u64 [a2 + 0x8]\n 24481: a3 = u64 [a2 + 0x10]\n 24484: a4 = u64 [a1 + 0x18]\n 24487: s0 = u64 [a1 + 0x10]\n 24490: a2 = u64 [a2 + 0x18]\n 24493: a1 = u64 [a1 + 0x8]\n 24496: t2 = a4 >u 0\n 24498: s1 = s0 >u 0\n 24500: s1 = t2 if a4 != 0\n 24503: ra = a1 >u 0\n 24505: a5 = t0 <u 0x100\n 24509: t2 = a5 ^ 0x1\n 24512: t2 = ra if a1 != 0\n 24515: a4 = a4 | s0\n 24518: t2 = s1 if a4 != 0\n 24521: u8 [sp + 71] = 0\n 24524: u8 [sp + 70] = 0\n 24527: u8 [sp + 69] = 0\n 24530: u8 [sp + 68] = 0\n 24533: u8 [sp + 67] = 0\n 24536: u8 [sp + 66] = 0\n 24539: u8 [sp + 65] = 0\n 24542: u8 [sp + 64] = 0\n 24545: u8 [sp + 63] = 0\n 24548: u8 [sp + 62] = 0\n 24551: u8 [sp + 61] = 0\n 24554: u8 [sp + 60] = 0\n 24557: u8 [sp + 59] = 0\n 24560: u8 [sp + 58] = 0\n 24563: u8 [sp + 57] = 0\n 24566: u8 [sp + 56] = 0\n 24569: u8 [sp + 55] = 0\n 24572: u8 [sp + 54] = 0\n 24575: u8 [sp + 53] = 0\n 24578: u8 [sp + 52] = 0\n 24581: u8 [sp + 51] = 0\n 24584: u8 [sp + 50] = 0\n 24587: u8 [sp + 49] = 0\n 24590: u8 [sp + 48] = 0\n 24593: u8 [sp + 47] = 0\n 24596: u8 [sp + 46] = 0\n 24599: u8 [sp + 45] = 0\n 24602: u8 [sp + 44] = 0\n 24605: u8 [sp + 43] = 0\n 24608: u8 [sp + 42] = 0\n 24611: u8 [sp + 41] = 0\n 24614: u8 [sp + 40] = 0\n 24617: u8 [sp + 0x20] = a2\n 24620: u8 [sp + 0x18] = a3\n 24623: u8 [sp + 0x10] = a0\n 24626: u8 [sp + 0x8] = t1\n 24629: a1 = a2 >> 0x38\n 24632: u8 [sp + 0x27] = a1\n 24635: a1 = a2 >> 0x30\n 24638: u8 [sp + 0x26] = a1\n 24641: a1 = a2 >> 0x28\n 24644: u8 [sp + 0x25] = a1\n 24647: a1 = a2 >> 0x20\n 24650: u8 [sp + 0x24] = a1\n 24653: a1 = a2 >> 0x18\n 24656: u8 [sp + 0x23] = a1\n 24659: a1 = a2 >> 0x10\n 24662: u8 [sp + 0x22] = a1\n 24665: a2 = a2 >> 0x8\n 24668: u8 [sp + 0x21] = a2\n 24671: a1 = a3 >> 0x38\n 24674: u8 [sp + 0x1f] = a1\n 24677: a1 = a3 >> 0x30\n 24680: u8 [sp + 0x1e] = a1\n 24683: a1 = a3 >> 0x28\n 24686: u8 [sp + 0x1d] = a1\n 24689: a1 = a3 >> 0x20\n 24692: u8 [sp + 0x1c] = a1\n 24695: a1 = a3 >> 0x18\n 24698: u8 [sp + 0x1b] = a1\n 24701: a1 = a3 >> 0x10\n 24704: u8 [sp + 0x1a] = a1\n 24707: a3 = a3 >> 0x8\n 24710: u8 [sp + 0x19] = a3\n 24713: a1 = a0 >> 0x38\n 24716: u8 [sp + 0x17] = a1\n 24719: a1 = a0 >> 0x30\n 24722: u8 [sp + 0x16] = a1\n 24725: a1 = a0 >> 0x28\n 24728: u8 [sp + 0x15] = a1\n 24731: a1 = a0 >> 0x20\n 24734: u8 [sp + 0x14] = a1\n 24737: a1 = a0 >> 0x18\n 24740: u8 [sp + 0x13] = a1\n 24743: a1 = a0 >> 0x10\n 24746: u8 [sp + 0x12] = a1\n 24749: a0 = a0 >> 0x8\n 24752: u8 [sp + 0x11] = a0\n 24755: a0 = t1 >> 0x38\n 24758: u8 [sp + 0xf] = a0\n 24761: a0 = t1 >> 0x30\n 24764: u8 [sp + 0xe] = a0\n 24767: a0 = t1 >> 0x28\n 24770: u8 [sp + 0xd] = a0\n 24773: a0 = t1 >> 0x20\n 24776: u8 [sp + 0xc] = a0\n 24779: a0 = t1 >> 0x18\n 24782: u8 [sp + 0xb] = a0\n 24785: a0 = t1 >> 0x10\n 24788: u8 [sp + 0xa] = a0\n 24791: a0 = t1 >> 0x8\n 24794: u8 [sp + 0x9] = a0\n 24797: a0 = t0 << 0x38\n 24800: a0 = a0 >> 0x3b\n 24803: a2 = sp + 0x8\n 24806: a2 = a2 + a0\n 24809: a0 = u8 [a2 + 0x11]\n 24812: a1 = u8 [a2 + 0x10]\n 24815: a3 = u8 [a2 + 0x12]\n 24818: a4 = u8 [a2 + 0x13]\n 24821: a0 = a0 << 0x8\n 24824: a0 = a0 | a1\n 24827: a3 = a3 << 0x10\n 24830: a4 = a4 << 0x18\n 24833: a3 = a3 | a4\n 24836: a0 = a0 | a3\n 24839: a1 = u8 [a2 + 0x15]\n 24842: a3 = u8 [a2 + 0x14]\n 24845: a4 = u8 [a2 + 0x16]\n 24848: a5 = u8 [a2 + 0x17]\n 24851: a1 = a1 << 0x8\n 24854: a1 = a1 | a3\n 24857: a4 = a4 << 0x10\n 24860: a5 = a5 << 0x18\n 24863: a4 = a4 | a5\n 24866: a1 = a1 | a4\n 24869: a1 = a1 << 0x20\n 24872: ra = a1 | a0\n 24875: a3 = t0 & 0x7\n 24878: a1 = ra >> a3\n 24881: a0 = u8 [a2 + 0x19]\n 24884: a4 = u8 [a2 + 0x18]\n 24887: s1 = u8 [a2 + 0x1a]\n 24890: s0 = u8 [a2 + 0x1b]\n 24893: a0 = a0 << 0x8\n 24896: a0 = a0 | a4\n 24899: s1 = s1 << 0x10\n 24902: s0 = s0 << 0x18\n 24905: s0 = s0 | s1\n 24908: a0 = a0 | s0\n 24911: a4 = u8 [a2 + 0x1d]\n 24914: s1 = u8 [a2 + 0x1c]\n 24917: s0 = u8 [a2 + 0x1e]\n 24920: a5 = u8 [a2 + 0x1f]\n 24923: a4 = a4 << 0x8\n 24926: a4 = a4 | s1\n 24929: s0 = s0 << 0x10\n 24932: a5 = a5 << 0x18\n 24935: a5 = a5 | s0\n 24938: a4 = a4 | a5\n 24941: a4 = a4 << 0x20\n 24944: t0 = a4 | a0\n 24947: a0 = t0 << 0x1\n 24950: t1 = a3 ^ 0x3f\n 24953: a4 = a0 << t1\n 24956: a4 = a4 | a1\n 24959: a0 = u8 [a2 + 0x9]\n 24962: a1 = u8 [a2 + 0x8]\n 24965: a5 = u8 [a2 + 0xa]\n 24968: s0 = u8 [a2 + 0xb]\n 24971: a0 = a0 << 0x8\n 24974: a0 = a0 | a1\n 24977: a5 = a5 << 0x10\n 24980: s0 = s0 << 0x18\n 24983: a5 = a5 | s0\n 24986: a0 = a0 | a5\n 24989: a1 = u8 [a2 + 0xd]\n 24992: a5 = u8 [a2 + 0xc]\n 24995: s0 = u8 [a2 + 0xe]\n 24998: s1 = u8 [a2 + 0xf]\n 25001: a1 = a1 << 0x8\n 25004: a1 = a1 | a5\n 25007: s0 = s0 << 0x10\n 25010: s1 = s1 << 0x18\n 25013: s0 = s0 | s1\n 25016: a1 = a1 | s0\n 25019: a1 = a1 << 0x20\n 25022: a1 = a1 | a0\n 25025: a0 = a1 >> a3\n 25028: ra = ra << 0x1\n 25031: a5 = a3 ^ 0xffffffffffffffff\n 25034: a5 = ra << a5\n 25037: ra = a0 | a5\n 25040: a0 = u8 [a2 + 0x1]\n 25043: s0 = u8 [a2]\n 25045: s1 = u8 [a2 + 0x2]\n 25048: a5 = u8 [a2 + 0x3]\n 25051: a0 = a0 << 0x8\n 25054: a0 = a0 | s0\n 25057: s1 = s1 << 0x10\n 25060: a5 = a5 << 0x18\n 25063: a5 = a5 | s1\n 25066: a0 = a0 | a5\n 25069: a5 = u8 [a2 + 0x5]\n 25072: s0 = u8 [a2 + 0x4]\n 25075: s1 = u8 [a2 + 0x6]\n 25078: a2 = u8 [a2 + 0x7]\n 25081: a5 = a5 << 0x8\n 25084: a5 = a5 | s0\n 25087: s1 = s1 << 0x10\n 25090: a2 = a2 << 0x18\n 25093: a2 = a2 | s1\n 25096: a2 = a2 | a5\n 25099: a2 = a2 << 0x20\n 25102: a0 = a0 | a2\n 25105: a0 = a0 >> a3\n 25108: a1 = a1 << 0x1\n 25111: a1 = a1 << t1\n 25114: a0 = a0 | a1\n 25117: a1 = t0 >> a3\n 25120: a0 = 0 if t2 != 0\n 25122: ra = 0 if t2 != 0\n 25124: a4 = 0 if t2 != 0\n 25126: a1 = 0 if t2 != 0\n 25128: a2 = u64 [sp]\n 25130: u64 [a2 + 0x18] = a1\n 25133: u64 [a2 + 0x10] = a4\n 25136: u64 [a2 + 0x8] = ra\n 25139: u64 [a2] = a0\n 25141: ra = u64 [sp + 0x58]\n 25144: s0 = u64 [sp + 0x50]\n 25147: s1 = u64 [sp + 0x48]\n 25150: sp = sp + 0x60\n 25153: ret\n      : @403 (gas: 8)\n 25155: a0 = u64 [sp + 0x30]\n 25158: a1 = u64 [sp + 0x38]\n 25161: a2 = u64 [sp + 0x28]\n 25164: a3 = u64 [sp + 0x20]\n 25167: a1 = a1 | a2\n 25170: a0 = a0 | a3\n 25173: a0 = a0 | a1\n 25176: jump @408 if a0 != 0\n      : @404 (gas: 2)\n 25180: a0 = i32 [0x200a8]\n 25185: jump @408 if a0 <=u 3\n      : @405 (gas: 26)\n 25190: u64 [sp + 88] = 0\n 25193: u64 [sp + 80] = 0\n 25196: u64 [sp + 72] = 0\n 25199: u64 [sp + 64] = 0\n 25202: u64 [sp + 120] = 0\n 25205: u64 [sp + 112] = 0\n 25208: u64 [sp + 104] = 0\n 25211: u64 [sp + 96] = 0\n 25214: u32 [sp + 128] = 0x20\n 25219: i32 a1 = sp + 0x40\n 25222: i32 a3 = sp + 0x60\n 25225: i32 a4 = sp + 0x80\n 25229: a2 = 0xffffffffffffffff\n 25232: a0 = 0\n 25234: ecalli 7 // 'get_storage'\n 25236: a0 = u64 [sp + 0x78]\n 25239: u64 [sp] = a0\n 25241: a0 = u64 [sp + 0x70]\n 25244: u64 [sp + 0x8] = a0\n 25247: a0 = u64 [sp + 0x68]\n 25250: u64 [sp + 0x10] = a0\n 25253: a0 = u64 [sp + 0x60]\n 25256: u64 [sp + 0x18] = a0\n 25259: a0 = 0x40\n 25262: a1 = 0x20\n 25265: ra = 354, jump @0\n      : @406 [@dyn 177] (gas: 100)\n 25271: a1 = u8 [a0 + 0x11]\n 25274: a2 = u8 [a0 + 0x10]\n 25277: a3 = u8 [a0 + 0x12]\n 25280: a4 = u8 [a0 + 0x13]\n 25283: a1 = a1 << 0x8\n 25286: a1 = a1 | a2\n 25289: a3 = a3 << 0x10\n 25292: a4 = a4 << 0x18\n 25295: a3 = a3 | a4\n 25298: a1 = a1 | a3\n 25301: a2 = u8 [a0 + 0x15]\n 25304: a3 = u8 [a0 + 0x14]\n 25307: a4 = u8 [a0 + 0x16]\n 25310: a5 = u8 [a0 + 0x17]\n 25313: a2 = a2 << 0x8\n 25316: a2 = a2 | a3\n 25319: a4 = a4 << 0x10\n 25322: a5 = a5 << 0x18\n 25325: a4 = a4 | a5\n 25328: a2 = a2 | a4\n 25331: a2 = a2 << 0x20\n 25334: t0 = a2 | a1\n 25337: a2 = u8 [a0 + 0x1]\n 25340: a3 = u8 [a0]\n 25342: a4 = u8 [a0 + 0x2]\n 25345: a5 = u8 [a0 + 0x3]\n 25348: a2 = a2 << 0x8\n 25351: a2 = a2 | a3\n 25354: a4 = a4 << 0x10\n 25357: a5 = a5 << 0x18\n 25360: a4 = a4 | a5\n 25363: a2 = a2 | a4\n 25366: a3 = u8 [a0 + 0x5]\n 25369: a4 = u8 [a0 + 0x4]\n 25372: a5 = u8 [a0 + 0x6]\n 25375: s1 = u8 [a0 + 0x7]\n 25378: a3 = a3 << 0x8\n 25381: a3 = a3 | a4\n 25384: a5 = a5 << 0x10\n 25387: s1 = s1 << 0x18\n 25390: a5 = a5 | s1\n 25393: a3 = a3 | a5\n 25396: a3 = a3 << 0x20\n 25399: a2 = a2 | a3\n 25402: a3 = u8 [a0 + 0x19]\n 25405: a4 = u8 [a0 + 0x18]\n 25408: a5 = u8 [a0 + 0x1a]\n 25411: s1 = u8 [a0 + 0x1b]\n 25414: a3 = a3 << 0x8\n 25417: a3 = a3 | a4\n 25420: a5 = a5 << 0x10\n 25423: s1 = s1 << 0x18\n 25426: a5 = a5 | s1\n 25429: a3 = a3 | a5\n 25432: a4 = u8 [a0 + 0x1d]\n 25435: a5 = u8 [a0 + 0x1c]\n 25438: s1 = u8 [a0 + 0x1e]\n 25441: a1 = u8 [a0 + 0x1f]\n 25444: a4 = a4 << 0x8\n 25447: a4 = a4 | a5\n 25450: s1 = s1 << 0x10\n 25453: a1 = a1 << 0x18\n 25456: a1 = a1 | s1\n 25459: a1 = a1 | a4\n 25462: a1 = a1 << 0x20\n 25465: a3 = a3 | a1\n 25468: a1 = u8 [a0 + 0x9]\n 25471: a4 = u8 [a0 + 0x8]\n 25474: a5 = u8 [a0 + 0xa]\n 25477: s1 = u8 [a0 + 0xb]\n 25480: a1 = a1 << 0x8\n 25483: a1 = a1 | a4\n 25486: a5 = a5 << 0x10\n 25489: s1 = s1 << 0x18\n 25492: a5 = a5 | s1\n 25495: a1 = a1 | a5\n 25498: a4 = u8 [a0 + 0xd]\n 25501: a5 = u8 [a0 + 0xc]\n 25504: s1 = u8 [a0 + 0xe]\n 25507: a0 = u8 [a0 + 0xf]\n 25510: a4 = a4 << 0x8\n 25513: a4 = a4 | a5\n 25516: s1 = s1 << 0x10\n 25519: a0 = a0 << 0x18\n 25522: a0 = a0 | s1\n 25525: a0 = a0 | a4\n 25528: a0 = a0 << 0x20\n 25531: a0 = a0 | a1\n 25534: a1 = reverse a0\n 25536: a0 = reverse a3\n 25538: a2 = reverse a2\n 25540: a3 = reverse t0\n 25542: a2 = a2 | a3\n 25545: a3 = a0 | a1\n 25548: a3 = a3 | a2\n 25551: a3 = a3 >> 0x20\n 25554: a1 = a1 | a2\n 25557: a1 = a1 << 0x20\n 25560: a1 = a1 | a3\n 25563: jump @410 if a1 == 0\n      : @407 (gas: 1)\n 25566: trap\n      : @408 (gas: 3)\n 25567: a0 = 0\n 25569: a1 = 0\n 25571: ra = 356, jump @0\n      : @409 [@dyn 178] (gas: 5)\n 25577: i32 a1 = a0 + 0\n 25579: a0 = 0x1\n 25582: a2 = 0\n 25584: ecalli 11 // 'seal_return'\n 25586: fallthrough\n      : @410 (gas: 4)\n 25587: i32 s1 = a0 + 0\n 25589: a1 = 0x20\n 25592: a0 = s1\n 25594: ra = 358, jump @0\n      : @411 [@dyn 179] (gas: 71)\n 25600: a1 = u64 [sp]\n 25602: a1 = reverse a1\n 25604: a2 = u64 [sp + 0x8]\n 25607: a2 = reverse a2\n 25609: a3 = u64 [sp + 0x10]\n 25612: a3 = reverse a3\n 25614: a4 = u64 [sp + 0x18]\n 25617: a4 = reverse a4\n 25619: a5 = a4 >> 0x38\n 25622: u8 [a0 + 0x1f] = a5\n 25625: a5 = a4 >> 0x30\n 25628: u8 [a0 + 0x1e] = a5\n 25631: a5 = a4 >> 0x28\n 25634: u8 [a0 + 0x1d] = a5\n 25637: a5 = a4 >> 0x20\n 25640: u8 [a0 + 0x1c] = a5\n 25643: a5 = a4 >> 0x18\n 25646: u8 [a0 + 0x1b] = a5\n 25649: a5 = a4 >> 0x10\n 25652: u8 [a0 + 0x1a] = a5\n 25655: a5 = a4 >> 0x8\n 25658: u8 [a0 + 0x19] = a5\n 25661: u8 [a0 + 0x18] = a4\n 25664: u8 [a0 + 0x10] = a3\n 25667: a4 = a3 >> 0x38\n 25670: u8 [a0 + 0x17] = a4\n 25673: a4 = a3 >> 0x30\n 25676: u8 [a0 + 0x16] = a4\n 25679: a4 = a3 >> 0x28\n 25682: u8 [a0 + 0x15] = a4\n 25685: a4 = a3 >> 0x20\n 25688: u8 [a0 + 0x14] = a4\n 25691: a4 = a3 >> 0x18\n 25694: u8 [a0 + 0x13] = a4\n 25697: a4 = a3 >> 0x10\n 25700: u8 [a0 + 0x12] = a4\n 25703: a3 = a3 >> 0x8\n 25706: u8 [a0 + 0x11] = a3\n 25709: u8 [a0 + 0x8] = a2\n 25712: a3 = a2 >> 0x38\n 25715: u8 [a0 + 0xf] = a3\n 25718: a3 = a2 >> 0x30\n 25721: u8 [a0 + 0xe] = a3\n 25724: a3 = a2 >> 0x28\n 25727: u8 [a0 + 0xd] = a3\n 25730: a3 = a2 >> 0x20\n 25733: u8 [a0 + 0xc] = a3\n 25736: a3 = a2 >> 0x18\n 25739: u8 [a0 + 0xb] = a3\n 25742: a3 = a2 >> 0x10\n 25745: u8 [a0 + 0xa] = a3\n 25748: a2 = a2 >> 0x8\n 25751: u8 [a0 + 0x9] = a2\n 25754: u8 [a0] = a1\n 25756: a2 = a1 >> 0x38\n 25759: u8 [a0 + 0x7] = a2\n 25762: a2 = a1 >> 0x30\n 25765: u8 [a0 + 0x6] = a2\n 25768: a2 = a1 >> 0x28\n 25771: u8 [a0 + 0x5] = a2\n 25774: a2 = a1 >> 0x20\n 25777: u8 [a0 + 0x4] = a2\n 25780: a2 = a1 >> 0x18\n 25783: u8 [a0 + 0x3] = a2\n 25786: a2 = a1 >> 0x10\n 25789: u8 [a0 + 0x2] = a2\n 25792: a1 = a1 >> 0x8\n 25795: u8 [a0 + 0x1] = a1\n 25798: a1 = 0x20\n 25801: a0 = s1\n 25803: ra = 360, jump @0\n      : @412 [@dyn 180] (gas: 6)\n 25809: i32 a1 = a0 + 0\n 25811: a2 = 0x20\n 25814: a0 = 0\n 25816: ra = 0x16a\n 25820: ecalli 11 // 'seal_return'\n 25822: fallthrough\n      : @413 [@dyn 181] (gas: 8)\n 25823: sp = sp + 0xffffffffffffffe0\n 25826: u64 [sp + 0x18] = ra\n 25829: u64 [sp + 0x10] = s0\n 25832: u64 [sp + 0x8] = s1\n 25835: s1 = 0x200a0\n 25840: a1 = i32 [0x200a0]\n 25845: s0 = a0\n 25847: jump @416 if a1 == 0\n      : @414 (gas: 6)\n 25850: a0 = 0x300b0\n 25855: i32 a0 = a0 + 0\n 25857: u64 [sp] = a1\n 25859: i32 a1 = s1 + 0\n 25861: ecalli 6 // 'get_immutable_data'\n 25863: fallthrough\n      : @415 (gas: 4)\n 25864: a0 = i32 [0x200a0]\n 25869: u32 [0x200a0] = 0\n 25874: a1 = u64 [sp]\n 25876: jump @417 if a0 <u a1\n      : @416 (gas: 13)\n 25879: a1 = u64 [0x300c8]\n 25884: a2 = u64 [0x300c0]\n 25889: a3 = u64 [0x300b8]\n 25894: a0 = u64 [0x300b0]\n 25899: u64 [s0 + 0x18] = a1\n 25902: u64 [s0 + 0x10] = a2\n 25905: u64 [s0 + 0x8] = a3\n 25908: u64 [s0] = a0\n 25910: ra = u64 [sp + 0x18]\n 25913: s0 = u64 [sp + 0x10]\n 25916: s1 = u64 [sp + 0x8]\n 25919: sp = sp + 0x20\n 25922: ret\n      : @417 (gas: 1)\n 25924: trap\n      : @418 (gas: 8)\n 25925: a0 = u64 [sp + 0x30]\n 25928: a1 = u64 [sp + 0x38]\n 25931: a2 = u64 [sp + 0x28]\n 25934: a3 = u64 [sp + 0x20]\n 25937: a1 = a1 | a2\n 25940: a0 = a0 | a3\n 25943: a0 = a0 | a1\n 25946: jump @426 if a0 != 0\n      : @419 (gas: 2)\n 25950: a0 = i32 [0x200a8]\n 25955: jump @426 if a0 <=u 3\n      : @420 (gas: 3)\n 25960: s1 = 0x200a0\n 25965: a0 = i32 [0x200a0]\n 25970: jump @423 if a0 == 0\n      : @421 (gas: 6)\n 25973: u64 [sp + 0x18] = a0\n 25976: a0 = 0x300b0\n 25981: i32 a0 = a0 + 0\n 25983: i32 a1 = s1 + 0\n 25985: ecalli 6 // 'get_immutable_data'\n 25987: fallthrough\n      : @422 (gas: 4)\n 25988: a0 = i32 [0x200a0]\n 25993: u32 [0x200a0] = 0\n 25998: a1 = u64 [sp + 0x18]\n 26001: jump @425 if a0 <u a1\n      : @423 (gas: 9)\n 26005: a1 = u64 [0x300c0]\n 26010: u64 [sp + 0x8] = a1\n 26013: a1 = u64 [0x300b8]\n 26018: u64 [sp + 0x10] = a1\n 26021: a0 = u64 [0x300b0]\n 26026: u64 [sp + 0x18] = a0\n 26029: a0 = 0x40\n 26032: a1 = 0x20\n 26035: ra = 364, jump @0\n      : @424 [@dyn 182] (gas: 100)\n 26041: a1 = u8 [a0 + 0x11]\n 26044: a2 = u8 [a0 + 0x10]\n 26047: a3 = u8 [a0 + 0x12]\n 26050: a4 = u8 [a0 + 0x13]\n 26053: a1 = a1 << 0x8\n 26056: a1 = a1 | a2\n 26059: a3 = a3 << 0x10\n 26062: a4 = a4 << 0x18\n 26065: a3 = a3 | a4\n 26068: a1 = a1 | a3\n 26071: a2 = u8 [a0 + 0x15]\n 26074: a3 = u8 [a0 + 0x14]\n 26077: a4 = u8 [a0 + 0x16]\n 26080: a5 = u8 [a0 + 0x17]\n 26083: a2 = a2 << 0x8\n 26086: a2 = a2 | a3\n 26089: a4 = a4 << 0x10\n 26092: a5 = a5 << 0x18\n 26095: a4 = a4 | a5\n 26098: a2 = a2 | a4\n 26101: a2 = a2 << 0x20\n 26104: t0 = a2 | a1\n 26107: a2 = u8 [a0 + 0x1]\n 26110: a3 = u8 [a0]\n 26112: a4 = u8 [a0 + 0x2]\n 26115: a5 = u8 [a0 + 0x3]\n 26118: a2 = a2 << 0x8\n 26121: a2 = a2 | a3\n 26124: a4 = a4 << 0x10\n 26127: a5 = a5 << 0x18\n 26130: a4 = a4 | a5\n 26133: a2 = a2 | a4\n 26136: a3 = u8 [a0 + 0x5]\n 26139: a4 = u8 [a0 + 0x4]\n 26142: a5 = u8 [a0 + 0x6]\n 26145: s1 = u8 [a0 + 0x7]\n 26148: a3 = a3 << 0x8\n 26151: a3 = a3 | a4\n 26154: a5 = a5 << 0x10\n 26157: s1 = s1 << 0x18\n 26160: a5 = a5 | s1\n 26163: a3 = a3 | a5\n 26166: a3 = a3 << 0x20\n 26169: a2 = a2 | a3\n 26172: a3 = u8 [a0 + 0x19]\n 26175: a4 = u8 [a0 + 0x18]\n 26178: a5 = u8 [a0 + 0x1a]\n 26181: s1 = u8 [a0 + 0x1b]\n 26184: a3 = a3 << 0x8\n 26187: a3 = a3 | a4\n 26190: a5 = a5 << 0x10\n 26193: s1 = s1 << 0x18\n 26196: a5 = a5 | s1\n 26199: a3 = a3 | a5\n 26202: a4 = u8 [a0 + 0x1d]\n 26205: a5 = u8 [a0 + 0x1c]\n 26208: s1 = u8 [a0 + 0x1e]\n 26211: a1 = u8 [a0 + 0x1f]\n 26214: a4 = a4 << 0x8\n 26217: a4 = a4 | a5\n 26220: s1 = s1 << 0x10\n 26223: a1 = a1 << 0x18\n 26226: a1 = a1 | s1\n 26229: a1 = a1 | a4\n 26232: a1 = a1 << 0x20\n 26235: a3 = a3 | a1\n 26238: a1 = u8 [a0 + 0x9]\n 26241: a4 = u8 [a0 + 0x8]\n 26244: a5 = u8 [a0 + 0xa]\n 26247: s1 = u8 [a0 + 0xb]\n 26250: a1 = a1 << 0x8\n 26253: a1 = a1 | a4\n 26256: a5 = a5 << 0x10\n 26259: s1 = s1 << 0x18\n 26262: a5 = a5 | s1\n 26265: a1 = a1 | a5\n 26268: a4 = u8 [a0 + 0xd]\n 26271: a5 = u8 [a0 + 0xc]\n 26274: s1 = u8 [a0 + 0xe]\n 26277: a0 = u8 [a0 + 0xf]\n 26280: a4 = a4 << 0x8\n 26283: a4 = a4 | a5\n 26286: s1 = s1 << 0x10\n 26289: a0 = a0 << 0x18\n 26292: a0 = a0 | s1\n 26295: a0 = a0 | a4\n 26298: a0 = a0 << 0x20\n 26301: a0 = a0 | a1\n 26304: a1 = reverse a0\n 26306: a0 = reverse a3\n 26308: a2 = reverse a2\n 26310: a3 = reverse t0\n 26312: a2 = a2 | a3\n 26315: a3 = a0 | a1\n 26318: a3 = a3 | a2\n 26321: a3 = a3 >> 0x20\n 26324: a1 = a1 | a2\n 26327: a1 = a1 << 0x20\n 26330: a1 = a1 | a3\n 26333: jump @428 if a1 == 0\n      : @425 (gas: 1)\n 26336: trap\n      : @426 (gas: 3)\n 26337: a0 = 0\n 26339: a1 = 0\n 26341: ra = 366, jump @0\n      : @427 [@dyn 183] (gas: 5)\n 26347: i32 a1 = a0 + 0\n 26349: a0 = 0x1\n 26352: a2 = 0\n 26354: ecalli 11 // 'seal_return'\n 26356: fallthrough\n      : @428 (gas: 7)\n 26357: a1 = u64 [sp + 0x8]\n 26360: a1 = a1 << 0x20\n 26363: s1 = a1 >> 0x20\n 26366: i32 a0 = a0 + 0\n 26368: u64 [sp + 0x8] = a0\n 26371: a1 = 0x20\n 26374: ra = 368, jump @0\n      : @429 [@dyn 184] (gas: 58)\n 26380: a1 = reverse s1\n 26382: a2 = u64 [sp + 0x10]\n 26385: a2 = reverse a2\n 26387: a3 = u64 [sp + 0x18]\n 26390: a3 = reverse a3\n 26392: a4 = a3 >> 0x38\n 26395: u8 [a0 + 0x1f] = a4\n 26398: a4 = a3 >> 0x30\n 26401: u8 [a0 + 0x1e] = a4\n 26404: a4 = a3 >> 0x28\n 26407: u8 [a0 + 0x1d] = a4\n 26410: a4 = a3 >> 0x20\n 26413: u8 [a0 + 0x1c] = a4\n 26416: a4 = a3 >> 0x18\n 26419: u8 [a0 + 0x1b] = a4\n 26422: a4 = a3 >> 0x10\n 26425: u8 [a0 + 0x1a] = a4\n 26428: a4 = a3 >> 0x8\n 26431: u8 [a0 + 0x19] = a4\n 26434: u8 [a0 + 0x18] = a3\n 26437: u8 [a0 + 0x10] = a2\n 26440: u8 [a0 + 11] = 0\n 26443: u8 [a0 + 10] = 0\n 26446: u8 [a0 + 9] = 0\n 26449: u8 [a0 + 7] = 0\n 26452: u8 [a0 + 6] = 0\n 26455: u8 [a0 + 5] = 0\n 26458: u8 [a0 + 4] = 0\n 26461: u8 [a0 + 3] = 0\n 26464: u8 [a0 + 2] = 0\n 26467: u8 [a0 + 1] = 0\n 26470: u8 [a0 + 0] = 0\n 26472: a3 = a2 >> 0x38\n 26475: u8 [a0 + 0x17] = a3\n 26478: a3 = a2 >> 0x30\n 26481: u8 [a0 + 0x16] = a3\n 26484: a3 = a2 >> 0x28\n 26487: u8 [a0 + 0x15] = a3\n 26490: a3 = a2 >> 0x20\n 26493: u8 [a0 + 0x14] = a3\n 26496: a3 = a2 >> 0x18\n 26499: u8 [a0 + 0x13] = a3\n 26502: a3 = a2 >> 0x10\n 26505: u8 [a0 + 0x12] = a3\n 26508: a2 = a2 >> 0x8\n 26511: u8 [a0 + 0x11] = a2\n 26514: u8 [a0 + 0x8] = a1\n 26517: a2 = a1 >> 0x38\n 26520: u8 [a0 + 0xf] = a2\n 26523: a2 = a1 >> 0x30\n 26526: u8 [a0 + 0xe] = a2\n 26529: a2 = a1 >> 0x28\n 26532: u8 [a0 + 0xd] = a2\n 26535: a1 = a1 >> 0x20\n 26538: u8 [a0 + 0xc] = a1\n 26541: a1 = 0x20\n 26544: a0 = u64 [sp + 0x8]\n 26547: ra = 370, jump @0\n      : @430 [@dyn 185] (gas: 6)\n 26553: i32 a1 = a0 + 0\n 26555: a2 = 0x20\n 26558: a0 = 0\n 26560: ra = 0x174\n 26564: ecalli 11 // 'seal_return'\n 26566: fallthrough\n      : @431 [@dyn 186] (gas: 9)\n 26567: a2 = u64 [a1 + 0x18]\n 26570: a3 = u64 [a1 + 0x10]\n 26573: a4 = u64 [a1 + 0x8]\n 26576: a1 = u64 [a1]\n 26578: u64 [a0 + 0x18] = a2\n 26581: u64 [a0 + 0x10] = a3\n 26584: u64 [a0 + 0x8] = a4\n 26587: u64 [a0] = a1\n 26589: ret\n      : @432 (gas: 17)\n 26591: sp = sp + 0xffffffffffffffa0\n 26594: u64 [sp + 0x58] = ra\n 26597: u64 [sp + 0x50] = s0\n 26600: u64 [sp + 0x48] = s1\n 26603: a3 = u64 [a1 + 0x18]\n 26606: a4 = u64 [a1 + 0x10]\n 26609: a5 = u64 [a1 + 0x8]\n 26612: s1 = u64 [a1]\n 26614: a1 = a5 | a3\n 26617: a2 = s1 | a4\n 26620: a2 = a2 | a1\n 26623: a2 = a2 >> 0x20\n 26626: a1 = a1 | a4\n 26629: a1 = a1 << 0x20\n 26632: a1 = a1 | a2\n 26635: u64 [sp + 0x28] = a0\n 26638: jump @439 if a1 != 0\n      : @433 (gas: 19)\n 26642: a0 = s1 + 0x20\n 26645: u64 [sp + 0x30] = a0\n 26648: a0 = a0 <u s1\n 26651: a1 = a5 + a0\n 26654: u64 [sp + 0x40] = a1\n 26657: u64 [sp + 0x8] = a5\n 26660: s0 = a1 <u a5\n 26663: s0 = a0 if a0 == 0\n 26666: s0 = s0 + a4\n 26669: u64 [sp + 0x10] = a4\n 26672: a0 = s0 <u a4\n 26675: u64 [sp + 0x18] = a3\n 26678: a0 = a0 + a3\n 26681: u64 [sp + 0x38] = a0\n 26684: u64 [sp] = s1\n 26686: i32 a0 = s1 + 0\n 26688: a1 = 0x20\n 26691: s1 = 0x20\n 26694: ra = 374, jump @0\n      : @434 [@dyn 187] (gas: 45)\n 26700: u8 [a0 + 0x1f] = s1\n 26703: a1 = u64 [sp + 0x30]\n 26706: s1 = a1\n 26708: a1 = a1 | s0\n 26711: a2 = u64 [sp + 0x40]\n 26714: a4 = u64 [sp + 0x38]\n 26717: a2 = a2 | a4\n 26720: a1 = a1 | a2\n 26723: a1 = a1 >> 0x20\n 26726: u64 [sp + 0x20] = s0\n 26729: a2 = a2 | s0\n 26732: a2 = a2 << 0x20\n 26735: a1 = a1 | a2\n 26738: u8 [a0 + 30] = 0\n 26741: u8 [a0 + 29] = 0\n 26744: u8 [a0 + 28] = 0\n 26747: u8 [a0 + 27] = 0\n 26750: u8 [a0 + 26] = 0\n 26753: u8 [a0 + 25] = 0\n 26756: u8 [a0 + 24] = 0\n 26759: u8 [a0 + 23] = 0\n 26762: u8 [a0 + 22] = 0\n 26765: u8 [a0 + 21] = 0\n 26768: u8 [a0 + 20] = 0\n 26771: u8 [a0 + 19] = 0\n 26774: u8 [a0 + 18] = 0\n 26777: u8 [a0 + 17] = 0\n 26780: u8 [a0 + 16] = 0\n 26783: u8 [a0 + 15] = 0\n 26786: u8 [a0 + 14] = 0\n 26789: u8 [a0 + 13] = 0\n 26792: u8 [a0 + 12] = 0\n 26795: u8 [a0 + 11] = 0\n 26798: u8 [a0 + 10] = 0\n 26801: u8 [a0 + 9] = 0\n 26804: u8 [a0 + 8] = 0\n 26807: u8 [a0 + 7] = 0\n 26810: u8 [a0 + 6] = 0\n 26813: u8 [a0 + 5] = 0\n 26816: u8 [a0 + 4] = 0\n 26819: u8 [a0 + 3] = 0\n 26822: u8 [a0 + 2] = 0\n 26825: u8 [a0 + 1] = 0\n 26828: u8 [a0 + 0] = 0\n 26830: jump @439 if a1 != 0\n      : @435 (gas: 4)\n 26834: i32 s0 = s1 + 0\n 26836: a1 = 0x20\n 26839: a0 = s0\n 26841: ra = 376, jump @0\n      : @436 [@dyn 188] (gas: 41)\n 26847: u8 [a0 + 31] = 0x6\n 26851: u8 [a0 + 30] = 0\n 26854: u8 [a0 + 29] = 0\n 26857: u8 [a0 + 28] = 0\n 26860: u8 [a0 + 27] = 0\n 26863: u8 [a0 + 26] = 0\n 26866: u8 [a0 + 25] = 0\n 26869: u8 [a0 + 24] = 0\n 26872: u8 [a0 + 23] = 0\n 26875: u8 [a0 + 22] = 0\n 26878: u8 [a0 + 21] = 0\n 26881: u8 [a0 + 20] = 0\n 26884: u8 [a0 + 19] = 0\n 26887: u8 [a0 + 18] = 0\n 26890: u8 [a0 + 17] = 0\n 26893: u8 [a0 + 16] = 0\n 26896: u8 [a0 + 15] = 0\n 26899: u8 [a0 + 14] = 0\n 26902: u8 [a0 + 13] = 0\n 26905: u8 [a0 + 12] = 0\n 26908: u8 [a0 + 11] = 0\n 26911: u8 [a0 + 10] = 0\n 26914: u8 [a0 + 9] = 0\n 26917: u8 [a0 + 8] = 0\n 26920: u8 [a0 + 7] = 0\n 26923: u8 [a0 + 6] = 0\n 26926: u8 [a0 + 5] = 0\n 26929: u8 [a0 + 4] = 0\n 26932: u8 [a0 + 3] = 0\n 26935: u8 [a0 + 2] = 0\n 26938: u8 [a0 + 1] = 0\n 26941: a1 = u64 [sp + 0x20]\n 26944: a2 = u64 [sp + 0x38]\n 26947: a1 = a1 | a2\n 26950: a2 = 0xffffffe0\n 26960: a2 = s1 <u a2\n 26963: a3 = u64 [sp + 0x40]\n 26966: a2 = 0 if a3 != 0\n 26968: a2 = 0 if a1 != 0\n 26970: u8 [a0 + 0] = 0\n 26972: jump @439 if a2 == 0\n      : @437 (gas: 3)\n 26976: i32 a0 = s0 + 0x20\n 26979: a1 = 0x20\n 26982: ra = 378, jump @0\n      : @438 [@dyn 189] (gas: 54)\n 26988: u8 [a0 + 31] = 0\n 26991: u8 [a0 + 30] = 0\n 26994: u8 [a0 + 29] = 0\n 26997: u8 [a0 + 28] = 0\n 27000: u8 [a0 + 27] = 0\n 27003: u8 [a0 + 26] = 0\n 27006: u8 [a0 + 25] = 0\n 27009: u8 [a0 + 24] = 0\n 27012: u8 [a0 + 23] = 0\n 27015: u8 [a0 + 22] = 0\n 27018: u8 [a0 + 21] = 0\n 27021: u8 [a0 + 20] = 0\n 27024: u8 [a0 + 19] = 0\n 27027: u8 [a0 + 18] = 0\n 27030: u8 [a0 + 17] = 0\n 27033: u8 [a0 + 16] = 0\n 27036: u8 [a0 + 15] = 0\n 27039: u8 [a0 + 14] = 0\n 27042: u8 [a0 + 13] = 0\n 27045: u8 [a0 + 12] = 0\n 27048: u8 [a0 + 11] = 0\n 27051: u8 [a0 + 10] = 0\n 27054: u8 [a0 + 9] = 0\n 27057: u8 [a0 + 8] = 0\n 27060: u8 [a0 + 7] = 0\n 27063: u8 [a0 + 6] = 0\n 27066: u8 [a0 + 5] = 0x44\n 27070: u8 [a0 + 4] = 0x45\n 27074: u8 [a0 + 3] = 0x4b\n 27078: u8 [a0 + 2] = 0x43\n 27082: u8 [a0 + 1] = 0x4f\n 27086: u8 [a0 + 0] = 0x4c\n 27089: a1 = u64 [sp]\n 27091: a0 = a1 + 0x60\n 27094: a1 = a0 <u a1\n 27097: a3 = u64 [sp + 0x8]\n 27100: a2 = a3 + a1\n 27103: a3 = a2 <u a3\n 27106: a3 = a1 if a1 == 0\n 27109: a1 = u64 [sp + 0x10]\n 27112: a3 = a3 + a1\n 27115: a1 = a3 <u a1\n 27118: a4 = u64 [sp + 0x18]\n 27121: a1 = a1 + a4\n 27124: a4 = u64 [sp + 0x28]\n 27127: u64 [a4] = a0\n 27129: u64 [a4 + 0x8] = a2\n 27132: u64 [a4 + 0x10] = a3\n 27135: u64 [a4 + 0x18] = a1\n 27138: ra = u64 [sp + 0x58]\n 27141: s0 = u64 [sp + 0x50]\n 27144: s1 = u64 [sp + 0x48]\n 27147: sp = sp + 0x60\n 27150: ret\n      : @439 (gas: 1)\n 27152: trap\n      : @440 (gas: 47)\n 27153: sp = sp + 0xfffffffffffffe80\n 27157: u64 [sp + 0x178] = ra\n 27161: u64 [sp + 0x170] = s0\n 27165: u64 [sp + 0x168] = s1\n 27169: s0 = sp + 0x180\n 27173: sp = sp & 0xffffffffffffffe0\n 27176: a3 = u64 [a2 + 0x18]\n 27179: u64 [sp] = a3\n 27181: a3 = u64 [a2 + 0x10]\n 27184: u64 [sp + 0x8] = a3\n 27187: a3 = u64 [a2 + 0x8]\n 27190: u64 [sp + 0x10] = a3\n 27193: a2 = u64 [a2]\n 27195: u64 [sp + 0x18] = a2\n 27198: a2 = u64 [a1 + 0x18]\n 27201: u64 [sp + 0x20] = a2\n 27204: a2 = u64 [a1 + 0x10]\n 27207: u64 [sp + 0x28] = a2\n 27210: a2 = u64 [a1 + 0x8]\n 27213: u64 [sp + 0x30] = a2\n 27216: a1 = u64 [a1]\n 27218: u64 [sp + 0x38] = a1\n 27221: a1 = u64 [a0 + 0x18]\n 27224: u64 [sp + 0x40] = a1\n 27227: a1 = u64 [a0 + 0x10]\n 27230: u64 [sp + 0x48] = a1\n 27233: a1 = u64 [a0 + 0x8]\n 27236: u64 [sp + 0x50] = a1\n 27239: a0 = u64 [a0]\n 27241: u64 [sp + 0x58] = a0\n 27244: u64 [sp + 312] = 0\n 27248: u64 [sp + 304] = 0\n 27252: u64 [sp + 296] = 0\n 27256: s1 = 0x3\n 27259: u64 [sp + 0x120] = s1\n 27263: u64 [sp + 344] = 0\n 27267: u64 [sp + 336] = 0\n 27271: u64 [sp + 328] = 0\n 27275: u64 [sp + 320] = 0\n 27279: u32 [sp + 256] = 0x20\n 27284: i32 a1 = sp + 0x120\n 27288: i32 a3 = sp + 0x140\n 27292: i32 a4 = sp + 0x100\n 27296: a2 = 0xffffffffffffffff\n 27299: a0 = 0\n 27301: ecalli 7 // 'get_storage'\n 27303: fallthrough\n      : @441 (gas: 9)\n 27304: a0 = u64 [sp + 0x158]\n 27308: a1 = u64 [sp + 0x148]\n 27312: a2 = u64 [sp + 0x140]\n 27316: a3 = u64 [sp + 0x150]\n 27320: a0 = a0 | a1\n 27323: a1 = a2 ^ 0x1\n 27326: a1 = a1 | a3\n 27329: a0 = a0 | a1\n 27332: jump @444 if a0 != 0\n      : @442 (gas: 88)\n 27336: u64 [sp + 312] = 0\n 27340: u64 [sp + 304] = 0\n 27344: u64 [sp + 296] = 0\n 27348: u64 [sp + 288] = 0x3\n 27353: u64 [sp + 344] = 0\n 27357: u64 [sp + 336] = 0\n 27361: u64 [sp + 328] = 0\n 27365: u64 [sp + 320] = 0\n 27369: u32 [sp + 256] = 0x20\n 27374: i32 a1 = sp + 0x120\n 27378: i32 a3 = sp + 0x140\n 27382: i32 a4 = sp + 0x100\n 27386: a2 = 0xffffffffffffffff\n 27389: a0 = 0\n 27391: ecalli 7 // 'get_storage'\n 27393: u64 [sp + 312] = 0\n 27397: u64 [sp + 304] = 0\n 27401: u64 [sp + 296] = 0\n 27405: u64 [sp + 288] = 0x3\n 27410: u64 [sp + 344] = 0\n 27414: u64 [sp + 336] = 0\n 27418: u64 [sp + 328] = 0\n 27422: u64 [sp + 320] = 0\n 27426: i32 a1 = sp + 0x120\n 27430: i32 a3 = sp + 0x140\n 27434: a2 = 0xffffffffffffffff\n 27437: a4 = 0x20\n 27440: a0 = 0\n 27442: ecalli 13 // 'set_storage'\n 27444: a0 = u64 [sp]\n 27446: u64 [sp + 0x78] = a0\n 27449: a0 = u64 [sp + 0x8]\n 27452: u64 [sp + 0x70] = a0\n 27455: a0 = u64 [sp + 0x10]\n 27458: u64 [sp + 0x68] = a0\n 27461: a0 = u64 [sp + 0x18]\n 27464: u64 [sp + 0x60] = a0\n 27467: a0 = u64 [sp + 0x20]\n 27470: u64 [sp + 0x98] = a0\n 27474: a0 = u64 [sp + 0x28]\n 27477: u64 [sp + 0x90] = a0\n 27481: a0 = u64 [sp + 0x30]\n 27484: u64 [sp + 0x88] = a0\n 27488: a0 = u64 [sp + 0x38]\n 27491: u64 [sp + 0x80] = a0\n 27495: a0 = u64 [sp + 0x40]\n 27498: u64 [sp + 0xb8] = a0\n 27502: a0 = u64 [sp + 0x48]\n 27505: u64 [sp + 0xb0] = a0\n 27509: a0 = u64 [sp + 0x50]\n 27512: u64 [sp + 0xa8] = a0\n 27516: a0 = sp + 0xa0\n 27520: a1 = sp + 0x80\n 27524: a2 = sp + 0x60\n 27527: a3 = u64 [sp + 0x58]\n 27530: u64 [sp + 0xa0] = a3\n 27534: ra = 0x17c\n 27538: sp = sp + 0xfffffffffffffc00\n 27542: u64 [sp + 0x3f8] = ra\n 27546: u64 [sp + 0x3f0] = s0\n 27550: u64 [sp + 1000] = 0x3\n 27555: s0 = sp + 0x400\n 27559: sp = sp & 0xffffffffffffffe0\n 27562: a3 = u64 [a2 + 0x18]\n 27565: u64 [sp + 0x138] = a3\n 27569: a3 = u64 [a2 + 0x10]\n 27572: u64 [sp + 0x128] = a3\n 27576: a3 = u64 [a2 + 0x8]\n 27579: u64 [sp + 0x130] = a3\n 27583: a2 = u64 [a2]\n 27585: u64 [sp + 0x120] = a2\n 27589: a2 = u64 [a1 + 0x10]\n 27592: u64 [sp + 0x160] = a2\n 27596: a2 = u64 [a1 + 0x8]\n 27599: u64 [sp + 0x190] = a2\n 27603: a1 = u64 [a1]\n 27605: u64 [sp + 0x198] = a1\n 27609: a1 = u64 [a0 + 0x18]\n 27612: u64 [sp + 0x170] = a1\n 27616: a1 = u64 [a0 + 0x10]\n 27619: u64 [sp + 0x178] = a1\n 27623: a1 = u64 [a0 + 0x8]\n 27626: u64 [sp + 0x180] = a1\n 27630: a0 = u64 [a0]\n 27632: u64 [sp + 0x188] = a0\n 27636: i32 a0 = sp + 0x2a0\n 27640: ecalli 4 // 'caller'\n 27642: jump @496\n      : @443 [@dyn 190] (gas: 35)\n 27645: u64 [sp + 312] = 0\n 27649: u64 [sp + 304] = 0\n 27653: u64 [sp + 296] = 0\n 27657: u64 [sp + 0x120] = s1\n 27661: u64 [sp + 344] = 0\n 27665: u64 [sp + 336] = 0\n 27669: u64 [sp + 328] = 0\n 27673: u64 [sp + 320] = 0\n 27677: u32 [sp + 256] = 0x20\n 27682: i32 a1 = sp + 0x120\n 27686: i32 a3 = sp + 0x140\n 27690: i32 a4 = sp + 0x100\n 27694: a2 = 0xffffffffffffffff\n 27697: a0 = 0\n 27699: ecalli 7 // 'get_storage'\n 27701: u64 [sp + 312] = 0\n 27705: u64 [sp + 304] = 0\n 27709: u64 [sp + 296] = 0\n 27713: u64 [sp + 0x120] = s1\n 27717: u64 [sp + 344] = 0\n 27721: u64 [sp + 336] = 0\n 27725: u64 [sp + 328] = 0\n 27729: u64 [sp + 320] = 0x1\n 27734: i32 a1 = sp + 0x120\n 27738: i32 a3 = sp + 0x140\n 27742: a2 = 0xffffffffffffffff\n 27745: a4 = 0x20\n 27748: a0 = 0\n 27750: ecalli 13 // 'set_storage'\n 27752: sp = s0 + 0xfffffffffffffe80\n 27756: ra = u64 [sp + 0x178]\n 27760: s0 = u64 [sp + 0x170]\n 27764: s1 = u64 [sp + 0x168]\n 27768: sp = sp + 0x180\n 27772: ret\n      : @444 (gas: 3)\n 27774: a0 = 0x40\n 27777: a1 = 0x20\n 27780: ra = 382, jump @0\n      : @445 [@dyn 191] (gas: 103)\n 27786: a1 = u8 [a0 + 0x11]\n 27789: a2 = u8 [a0 + 0x10]\n 27792: a3 = u8 [a0 + 0x12]\n 27795: a4 = u8 [a0 + 0x13]\n 27798: a1 = a1 << 0x8\n 27801: a1 = a1 | a2\n 27804: a3 = a3 << 0x10\n 27807: a4 = a4 << 0x18\n 27810: a3 = a3 | a4\n 27813: a1 = a1 | a3\n 27816: a2 = u8 [a0 + 0x15]\n 27819: a3 = u8 [a0 + 0x14]\n 27822: a4 = u8 [a0 + 0x16]\n 27825: a5 = u8 [a0 + 0x17]\n 27828: a2 = a2 << 0x8\n 27831: a2 = a2 | a3\n 27834: a4 = a4 << 0x10\n 27837: a5 = a5 << 0x18\n 27840: a4 = a4 | a5\n 27843: a2 = a2 | a4\n 27846: a2 = a2 << 0x20\n 27849: t0 = a2 | a1\n 27852: a2 = u8 [a0 + 0x1]\n 27855: a3 = u8 [a0]\n 27857: a4 = u8 [a0 + 0x2]\n 27860: a5 = u8 [a0 + 0x3]\n 27863: a2 = a2 << 0x8\n 27866: a2 = a2 | a3\n 27869: a4 = a4 << 0x10\n 27872: a5 = a5 << 0x18\n 27875: a4 = a4 | a5\n 27878: a2 = a2 | a4\n 27881: a3 = u8 [a0 + 0x5]\n 27884: a4 = u8 [a0 + 0x4]\n 27887: a5 = u8 [a0 + 0x6]\n 27890: s1 = u8 [a0 + 0x7]\n 27893: a3 = a3 << 0x8\n 27896: a3 = a3 | a4\n 27899: a5 = a5 << 0x10\n 27902: s1 = s1 << 0x18\n 27905: a5 = a5 | s1\n 27908: a3 = a3 | a5\n 27911: a3 = a3 << 0x20\n 27914: a2 = a2 | a3\n 27917: a3 = u8 [a0 + 0x19]\n 27920: a4 = u8 [a0 + 0x18]\n 27923: a5 = u8 [a0 + 0x1a]\n 27926: s1 = u8 [a0 + 0x1b]\n 27929: a3 = a3 << 0x8\n 27932: a3 = a3 | a4\n 27935: a5 = a5 << 0x10\n 27938: s1 = s1 << 0x18\n 27941: a5 = a5 | s1\n 27944: a3 = a3 | a5\n 27947: a4 = u8 [a0 + 0x1d]\n 27950: a5 = u8 [a0 + 0x1c]\n 27953: s1 = u8 [a0 + 0x1e]\n 27956: a1 = u8 [a0 + 0x1f]\n 27959: a4 = a4 << 0x8\n 27962: a4 = a4 | a5\n 27965: s1 = s1 << 0x10\n 27968: a1 = a1 << 0x18\n 27971: a1 = a1 | s1\n 27974: a1 = a1 | a4\n 27977: a1 = a1 << 0x20\n 27980: a3 = a3 | a1\n 27983: a1 = u8 [a0 + 0x9]\n 27986: a4 = u8 [a0 + 0x8]\n 27989: a5 = u8 [a0 + 0xa]\n 27992: s1 = u8 [a0 + 0xb]\n 27995: a1 = a1 << 0x8\n 27998: a1 = a1 | a4\n 28001: a5 = a5 << 0x10\n 28004: s1 = s1 << 0x18\n 28007: a5 = a5 | s1\n 28010: a1 = a1 | a5\n 28013: a4 = u8 [a0 + 0xd]\n 28016: a5 = u8 [a0 + 0xc]\n 28019: s1 = u8 [a0 + 0xe]\n 28022: a0 = u8 [a0 + 0xf]\n 28025: a4 = a4 << 0x8\n 28028: a4 = a4 | a5\n 28031: s1 = s1 << 0x10\n 28034: a0 = a0 << 0x18\n 28037: a0 = a0 | s1\n 28040: a0 = a0 | a4\n 28043: a0 = a0 << 0x20\n 28046: a0 = a0 | a1\n 28049: s1 = reverse a0\n 28051: a1 = reverse a3\n 28053: a2 = reverse a2\n 28055: a0 = reverse t0\n 28057: u64 [sp + 0x58] = a0\n 28060: u64 [sp + 0x50] = a2\n 28063: a0 = a0 | a2\n 28066: a2 = a1\n 28068: a1 = a1 | s1\n 28071: a1 = a1 | a0\n 28074: a1 = a1 >> 0x20\n 28077: a0 = a0 | s1\n 28080: a0 = a0 << 0x20\n 28083: a0 = a0 | a1\n 28086: jump @449 if a0 != 0\n      : @446 (gas: 5)\n 28090: u64 [sp + 0x48] = a2\n 28093: i32 a0 = a2 + 0\n 28095: a1 = 0x20\n 28098: u64 [sp + 0x40] = a0\n 28101: ra = 384, jump @0\n      : @447 [@dyn 192] (gas: 50)\n 28107: u8 [a0 + 31] = 0\n 28110: u8 [a0 + 30] = 0\n 28113: u8 [a0 + 29] = 0\n 28116: u8 [a0 + 28] = 0\n 28119: u8 [a0 + 27] = 0\n 28122: u8 [a0 + 26] = 0\n 28125: u8 [a0 + 25] = 0\n 28128: u8 [a0 + 24] = 0\n 28131: u8 [a0 + 23] = 0\n 28134: u8 [a0 + 22] = 0\n 28137: u8 [a0 + 21] = 0\n 28140: u8 [a0 + 20] = 0\n 28143: u8 [a0 + 19] = 0\n 28146: u8 [a0 + 18] = 0\n 28149: u8 [a0 + 17] = 0\n 28152: u8 [a0 + 16] = 0\n 28155: u8 [a0 + 15] = 0\n 28158: u8 [a0 + 14] = 0\n 28161: u8 [a0 + 13] = 0\n 28164: u8 [a0 + 12] = 0\n 28167: u8 [a0 + 11] = 0\n 28170: u8 [a0 + 10] = 0\n 28173: u8 [a0 + 9] = 0\n 28176: u8 [a0 + 8] = 0\n 28179: u8 [a0 + 7] = 0\n 28182: u8 [a0 + 6] = 0\n 28185: u8 [a0 + 5] = 0\n 28188: u8 [a0 + 4] = 0\n 28191: u8 [a0 + 3] = 0xa0\n 28196: u8 [a0 + 2] = 0x79\n 28200: u8 [a0 + 1] = 0xc3\n 28205: u8 [a0 + 0] = 0x8\n 28208: a1 = u64 [sp + 0x48]\n 28211: a0 = a1 + 0x4\n 28214: a1 = a0 <u a1\n 28217: a3 = u64 [sp + 0x58]\n 28220: a2 = a3 + a1\n 28223: a3 = a2 <u a3\n 28226: a3 = a1 if a1 == 0\n 28229: a3 = a3 + s1\n 28232: a1 = a3 <u s1\n 28235: a4 = u64 [sp + 0x50]\n 28238: a4 = a4 + a1\n 28241: u64 [sp + 0xc8] = a2\n 28245: u64 [sp + 0xc0] = a0\n 28249: u64 [sp + 0xd0] = a3\n 28253: a0 = sp + 0xe0\n 28257: a1 = sp + 0xc0\n 28261: u64 [sp + 0xd8] = a4\n 28265: ra = 386, jump @432\n      : @448 [@dyn 193] (gas: 30)\n 28271: a0 = u64 [sp + 0xe8]\n 28275: t0 = u64 [sp + 0xf8]\n 28279: t1 = u64 [sp + 0xe0]\n 28283: a3 = u64 [sp + 0xf0]\n 28287: a1 = u64 [sp + 0x58]\n 28290: a4 = a0 ^ a1\n 28293: a5 = a0 <u a1\n 28296: t2 = a1\n 28298: a2 = u64 [sp + 0x48]\n 28301: a1 = t1 <u a2\n 28304: a5 = a1 if a4 == 0\n 28307: a4 = a3 - s1\n 28310: a3 = a3 <u s1\n 28313: s1 = u64 [sp + 0x50]\n 28316: s1 = t0 - s1\n 28319: s1 = s1 - a3\n 28322: a3 = a4 <u a5\n 28325: s1 = s1 - a3\n 28328: a4 = a4 - a5\n 28331: a0 = a0 - t2\n 28334: a1 = a0 - a1\n 28337: a0 = t1 - a2\n 28340: a1 = a1 | s1\n 28343: a2 = a0 | a4\n 28346: a2 = a2 | a1\n 28349: a1 = a1 | a4\n 28352: a2 = a2 >> 0x20\n 28355: a1 = a1 << 0x20\n 28358: a1 = a1 | a2\n 28361: jump @450 if a1 == 0\n      : @449 (gas: 1)\n 28364: trap\n      : @450 (gas: 4)\n 28365: i32 s1 = a0 + 0\n 28367: a0 = u64 [sp + 0x40]\n 28370: a1 = s1\n 28372: ra = 388, jump @0\n      : @451 [@dyn 194] (gas: 6)\n 28378: i32 a1 = a0 + 0\n 28380: a0 = 0x1\n 28383: a2 = s1\n 28385: ra = 0x186\n 28389: ecalli 11 // 'seal_return'\n 28391: fallthrough\n      : @452 [@dyn 195] (gas: 12)\n 28392: a1 = u64 [a0 + 0x10]\n 28395: a2 = u64 [a0 + 0x18]\n 28398: a3 = u64 [a0 + 0x8]\n 28401: a0 = u64 [a0]\n 28403: a2 = a2 | a3\n 28406: a3 = a0 | a1\n 28409: a3 = a3 | a2\n 28412: a3 = a3 >> 0x20\n 28415: a1 = a1 | a2\n 28418: a1 = a1 << 0x20\n 28421: a1 = a1 | a3\n 28424: jump @455 if a1 != 0\n      : @453 (gas: 7)\n 28428: sp = sp + 0xfffffffffffffff0\n 28431: u64 [sp + 0x8] = ra\n 28434: u64 [sp] = s0\n 28436: i32 a0 = a0 + 0\n 28438: a1 = 0x20\n 28441: s0 = 0x20\n 28444: ra = 392, jump @0\n      : @454 [@dyn 196] (gas: 39)\n 28450: u8 [a0 + 31] = 0\n 28453: u8 [a0 + 30] = 0\n 28456: u8 [a0 + 29] = 0\n 28459: u8 [a0 + 28] = 0\n 28462: u8 [a0 + 27] = 0\n 28465: u8 [a0 + 26] = 0\n 28468: u8 [a0 + 25] = 0\n 28471: u8 [a0 + 24] = 0\n 28474: u8 [a0 + 23] = 0\n 28477: u8 [a0 + 22] = 0\n 28480: u8 [a0 + 21] = 0\n 28483: u8 [a0 + 20] = 0\n 28486: u8 [a0 + 19] = 0\n 28489: u8 [a0 + 18] = 0\n 28492: u8 [a0 + 17] = 0\n 28495: u8 [a0 + 16] = 0\n 28498: u8 [a0 + 15] = 0\n 28501: u8 [a0 + 14] = 0\n 28504: u8 [a0 + 13] = 0\n 28507: u8 [a0 + 12] = 0\n 28510: u8 [a0 + 11] = 0\n 28513: u8 [a0 + 10] = 0x72\n 28517: u8 [a0 + 9] = 0x65\n 28521: a2 = 0x74\n 28524: u8 [a0 + 0x8] = a2\n 28527: u8 [a0 + 7] = 0x69\n 28531: a3 = 0x62\n 28534: u8 [a0 + 0x6] = a3\n 28537: u8 [a0 + 5] = 0x72\n 28541: u8 [a0 + 4] = 0x61\n 28545: u8 [a0 + 0x3] = s0\n 28548: u8 [a0 + 0x2] = a2\n 28551: u8 [a0 + 1] = 0x6f\n 28555: a1 = 0x6e\n 28558: u8 [a0] = a1\n 28560: ra = u64 [sp + 0x8]\n 28563: s0 = u64 [sp]\n 28565: sp = sp + 0x10\n 28568: ret\n      : @455 (gas: 1)\n 28570: trap\n      : @456 (gas: 17)\n 28571: sp = sp + 0xffffffffffffffa0\n 28574: u64 [sp + 0x58] = ra\n 28577: u64 [sp + 0x50] = s0\n 28580: u64 [sp + 0x48] = s1\n 28583: a3 = u64 [a1 + 0x18]\n 28586: a4 = u64 [a1 + 0x10]\n 28589: a5 = u64 [a1 + 0x8]\n 28592: s1 = u64 [a1]\n 28594: a1 = a5 | a3\n 28597: a2 = s1 | a4\n 28600: a2 = a2 | a1\n 28603: a2 = a2 >> 0x20\n 28606: a1 = a1 | a4\n 28609: a1 = a1 << 0x20\n 28612: a1 = a1 | a2\n 28615: u64 [sp + 0x28] = a0\n 28618: jump @463 if a1 != 0\n      : @457 (gas: 19)\n 28622: a0 = s1 + 0x20\n 28625: u64 [sp + 0x30] = a0\n 28628: a0 = a0 <u s1\n 28631: a1 = a5 + a0\n 28634: u64 [sp + 0x40] = a1\n 28637: u64 [sp + 0x8] = a5\n 28640: s0 = a1 <u a5\n 28643: s0 = a0 if a0 == 0\n 28646: s0 = s0 + a4\n 28649: u64 [sp + 0x10] = a4\n 28652: a0 = s0 <u a4\n 28655: u64 [sp + 0x18] = a3\n 28658: a0 = a0 + a3\n 28661: u64 [sp + 0x38] = a0\n 28664: u64 [sp] = s1\n 28666: i32 a0 = s1 + 0\n 28668: a1 = 0x20\n 28671: s1 = 0x20\n 28674: ra = 394, jump @0\n      : @458 [@dyn 197] (gas: 45)\n 28680: u8 [a0 + 0x1f] = s1\n 28683: a1 = u64 [sp + 0x30]\n 28686: s1 = a1\n 28688: a1 = a1 | s0\n 28691: a2 = u64 [sp + 0x40]\n 28694: a4 = u64 [sp + 0x38]\n 28697: a2 = a2 | a4\n 28700: a1 = a1 | a2\n 28703: a1 = a1 >> 0x20\n 28706: u64 [sp + 0x20] = s0\n 28709: a2 = a2 | s0\n 28712: a2 = a2 << 0x20\n 28715: a1 = a1 | a2\n 28718: u8 [a0 + 30] = 0\n 28721: u8 [a0 + 29] = 0\n 28724: u8 [a0 + 28] = 0\n 28727: u8 [a0 + 27] = 0\n 28730: u8 [a0 + 26] = 0\n 28733: u8 [a0 + 25] = 0\n 28736: u8 [a0 + 24] = 0\n 28739: u8 [a0 + 23] = 0\n 28742: u8 [a0 + 22] = 0\n 28745: u8 [a0 + 21] = 0\n 28748: u8 [a0 + 20] = 0\n 28751: u8 [a0 + 19] = 0\n 28754: u8 [a0 + 18] = 0\n 28757: u8 [a0 + 17] = 0\n 28760: u8 [a0 + 16] = 0\n 28763: u8 [a0 + 15] = 0\n 28766: u8 [a0 + 14] = 0\n 28769: u8 [a0 + 13] = 0\n 28772: u8 [a0 + 12] = 0\n 28775: u8 [a0 + 11] = 0\n 28778: u8 [a0 + 10] = 0\n 28781: u8 [a0 + 9] = 0\n 28784: u8 [a0 + 8] = 0\n 28787: u8 [a0 + 7] = 0\n 28790: u8 [a0 + 6] = 0\n 28793: u8 [a0 + 5] = 0\n 28796: u8 [a0 + 4] = 0\n 28799: u8 [a0 + 3] = 0\n 28802: u8 [a0 + 2] = 0\n 28805: u8 [a0 + 1] = 0\n 28808: u8 [a0 + 0] = 0\n 28810: jump @463 if a1 != 0\n      : @459 (gas: 4)\n 28814: i32 s0 = s1 + 0\n 28816: a1 = 0x20\n 28819: a0 = s0\n 28821: ra = 396, jump @0\n      : @460 [@dyn 198] (gas: 41)\n 28827: u8 [a0 + 31] = 0xb\n 28831: u8 [a0 + 30] = 0\n 28834: u8 [a0 + 29] = 0\n 28837: u8 [a0 + 28] = 0\n 28840: u8 [a0 + 27] = 0\n 28843: u8 [a0 + 26] = 0\n 28846: u8 [a0 + 25] = 0\n 28849: u8 [a0 + 24] = 0\n 28852: u8 [a0 + 23] = 0\n 28855: u8 [a0 + 22] = 0\n 28858: u8 [a0 + 21] = 0\n 28861: u8 [a0 + 20] = 0\n 28864: u8 [a0 + 19] = 0\n 28867: u8 [a0 + 18] = 0\n 28870: u8 [a0 + 17] = 0\n 28873: u8 [a0 + 16] = 0\n 28876: u8 [a0 + 15] = 0\n 28879: u8 [a0 + 14] = 0\n 28882: u8 [a0 + 13] = 0\n 28885: u8 [a0 + 12] = 0\n 28888: u8 [a0 + 11] = 0\n 28891: u8 [a0 + 10] = 0\n 28894: u8 [a0 + 9] = 0\n 28897: u8 [a0 + 8] = 0\n 28900: u8 [a0 + 7] = 0\n 28903: u8 [a0 + 6] = 0\n 28906: u8 [a0 + 5] = 0\n 28909: u8 [a0 + 4] = 0\n 28912: u8 [a0 + 3] = 0\n 28915: u8 [a0 + 2] = 0\n 28918: u8 [a0 + 1] = 0\n 28921: a1 = u64 [sp + 0x20]\n 28924: a2 = u64 [sp + 0x38]\n 28927: a1 = a1 | a2\n 28930: a2 = 0xffffffe0\n 28940: a2 = s1 <u a2\n 28943: a3 = u64 [sp + 0x40]\n 28946: a2 = 0 if a3 != 0\n 28948: a2 = 0 if a1 != 0\n 28950: u8 [a0 + 0] = 0\n 28952: jump @463 if a2 == 0\n      : @461 (gas: 3)\n 28956: i32 a0 = s0 + 0x20\n 28959: a1 = 0x20\n 28962: ra = 398, jump @0\n      : @462 [@dyn 199] (gas: 54)\n 28968: u8 [a0 + 31] = 0\n 28971: u8 [a0 + 30] = 0\n 28974: u8 [a0 + 29] = 0\n 28977: u8 [a0 + 28] = 0\n 28980: u8 [a0 + 27] = 0\n 28983: u8 [a0 + 26] = 0\n 28986: u8 [a0 + 25] = 0\n 28989: u8 [a0 + 24] = 0\n 28992: u8 [a0 + 23] = 0\n 28995: u8 [a0 + 22] = 0\n 28998: u8 [a0 + 21] = 0\n 29001: u8 [a0 + 20] = 0\n 29004: u8 [a0 + 19] = 0\n 29007: u8 [a0 + 18] = 0\n 29010: u8 [a0 + 17] = 0\n 29013: u8 [a0 + 16] = 0\n 29016: u8 [a0 + 15] = 0\n 29019: u8 [a0 + 14] = 0\n 29022: u8 [a0 + 13] = 0\n 29025: u8 [a0 + 12] = 0\n 29028: u8 [a0 + 11] = 0\n 29031: u8 [a0 + 10] = 0x72\n 29035: u8 [a0 + 9] = 0x65\n 29039: u8 [a0 + 8] = 0x74\n 29043: u8 [a0 + 7] = 0x69\n 29047: u8 [a0 + 6] = 0x62\n 29051: u8 [a0 + 5] = 0x72\n 29055: u8 [a0 + 4] = 0x61\n 29059: u8 [a0 + 3] = 0x20\n 29063: u8 [a0 + 2] = 0x74\n 29067: u8 [a0 + 1] = 0x6f\n 29071: u8 [a0 + 0] = 0x6e\n 29074: a1 = u64 [sp]\n 29076: a0 = a1 + 0x60\n 29079: a1 = a0 <u a1\n 29082: a3 = u64 [sp + 0x8]\n 29085: a2 = a3 + a1\n 29088: a3 = a2 <u a3\n 29091: a3 = a1 if a1 == 0\n 29094: a1 = u64 [sp + 0x10]\n 29097: a3 = a3 + a1\n 29100: a1 = a3 <u a1\n 29103: a4 = u64 [sp + 0x18]\n 29106: a1 = a1 + a4\n 29109: a4 = u64 [sp + 0x28]\n 29112: u64 [a4] = a0\n 29114: u64 [a4 + 0x8] = a2\n 29117: u64 [a4 + 0x10] = a3\n 29120: u64 [a4 + 0x18] = a1\n 29123: ra = u64 [sp + 0x58]\n 29126: s0 = u64 [sp + 0x50]\n 29129: s1 = u64 [sp + 0x48]\n 29132: sp = sp + 0x60\n 29135: ret\n      : @463 (gas: 1)\n 29137: trap\n      : @464 (gas: 17)\n 29138: sp = sp + 0xffffffffffffffa0\n 29141: u64 [sp + 0x58] = ra\n 29144: u64 [sp + 0x50] = s0\n 29147: u64 [sp + 0x48] = s1\n 29150: a3 = u64 [a1 + 0x18]\n 29153: a4 = u64 [a1 + 0x10]\n 29156: a5 = u64 [a1 + 0x8]\n 29159: s1 = u64 [a1]\n 29161: a1 = a5 | a3\n 29164: a2 = s1 | a4\n 29167: a2 = a2 | a1\n 29170: a2 = a2 >> 0x20\n 29173: a1 = a1 | a4\n 29176: a1 = a1 << 0x20\n 29179: a1 = a1 | a2\n 29182: u64 [sp + 0x28] = a0\n 29185: jump @471 if a1 != 0\n      : @465 (gas: 19)\n 29189: a0 = s1 + 0x20\n 29192: u64 [sp + 0x30] = a0\n 29195: a0 = a0 <u s1\n 29198: a1 = a5 + a0\n 29201: u64 [sp + 0x40] = a1\n 29204: u64 [sp + 0x8] = a5\n 29207: s0 = a1 <u a5\n 29210: s0 = a0 if a0 == 0\n 29213: s0 = s0 + a4\n 29216: u64 [sp + 0x10] = a4\n 29219: a0 = s0 <u a4\n 29222: u64 [sp + 0x18] = a3\n 29225: a0 = a0 + a3\n 29228: u64 [sp + 0x38] = a0\n 29231: u64 [sp] = s1\n 29233: i32 a0 = s1 + 0\n 29235: a1 = 0x20\n 29238: s1 = 0x20\n 29241: ra = 400, jump @0\n      : @466 [@dyn 200] (gas: 45)\n 29247: u8 [a0 + 0x1f] = s1\n 29250: a1 = u64 [sp + 0x30]\n 29253: s1 = a1\n 29255: a1 = a1 | s0\n 29258: a2 = u64 [sp + 0x40]\n 29261: a4 = u64 [sp + 0x38]\n 29264: a2 = a2 | a4\n 29267: a1 = a1 | a2\n 29270: a1 = a1 >> 0x20\n 29273: u64 [sp + 0x20] = s0\n 29276: a2 = a2 | s0\n 29279: a2 = a2 << 0x20\n 29282: a1 = a1 | a2\n 29285: u8 [a0 + 30] = 0\n 29288: u8 [a0 + 29] = 0\n 29291: u8 [a0 + 28] = 0\n 29294: u8 [a0 + 27] = 0\n 29297: u8 [a0 + 26] = 0\n 29300: u8 [a0 + 25] = 0\n 29303: u8 [a0 + 24] = 0\n 29306: u8 [a0 + 23] = 0\n 29309: u8 [a0 + 22] = 0\n 29312: u8 [a0 + 21] = 0\n 29315: u8 [a0 + 20] = 0\n 29318: u8 [a0 + 19] = 0\n 29321: u8 [a0 + 18] = 0\n 29324: u8 [a0 + 17] = 0\n 29327: u8 [a0 + 16] = 0\n 29330: u8 [a0 + 15] = 0\n 29333: u8 [a0 + 14] = 0\n 29336: u8 [a0 + 13] = 0\n 29339: u8 [a0 + 12] = 0\n 29342: u8 [a0 + 11] = 0\n 29345: u8 [a0 + 10] = 0\n 29348: u8 [a0 + 9] = 0\n 29351: u8 [a0 + 8] = 0\n 29354: u8 [a0 + 7] = 0\n 29357: u8 [a0 + 6] = 0\n 29360: u8 [a0 + 5] = 0\n 29363: u8 [a0 + 4] = 0\n 29366: u8 [a0 + 3] = 0\n 29369: u8 [a0 + 2] = 0\n 29372: u8 [a0 + 1] = 0\n 29375: u8 [a0 + 0] = 0\n 29377: jump @471 if a1 != 0\n      : @467 (gas: 4)\n 29381: i32 s0 = s1 + 0\n 29383: a1 = 0x20\n 29386: a0 = s0\n 29388: ra = 402, jump @0\n      : @468 [@dyn 201] (gas: 41)\n 29394: u8 [a0 + 31] = 0x11\n 29398: u8 [a0 + 30] = 0\n 29401: u8 [a0 + 29] = 0\n 29404: u8 [a0 + 28] = 0\n 29407: u8 [a0 + 27] = 0\n 29410: u8 [a0 + 26] = 0\n 29413: u8 [a0 + 25] = 0\n 29416: u8 [a0 + 24] = 0\n 29419: u8 [a0 + 23] = 0\n 29422: u8 [a0 + 22] = 0\n 29425: u8 [a0 + 21] = 0\n 29428: u8 [a0 + 20] = 0\n 29431: u8 [a0 + 19] = 0\n 29434: u8 [a0 + 18] = 0\n 29437: u8 [a0 + 17] = 0\n 29440: u8 [a0 + 16] = 0\n 29443: u8 [a0 + 15] = 0\n 29446: u8 [a0 + 14] = 0\n 29449: u8 [a0 + 13] = 0\n 29452: u8 [a0 + 12] = 0\n 29455: u8 [a0 + 11] = 0\n 29458: u8 [a0 + 10] = 0\n 29461: u8 [a0 + 9] = 0\n 29464: u8 [a0 + 8] = 0\n 29467: u8 [a0 + 7] = 0\n 29470: u8 [a0 + 6] = 0\n 29473: u8 [a0 + 5] = 0\n 29476: u8 [a0 + 4] = 0\n 29479: u8 [a0 + 3] = 0\n 29482: u8 [a0 + 2] = 0\n 29485: u8 [a0 + 1] = 0\n 29488: a1 = u64 [sp + 0x20]\n 29491: a2 = u64 [sp + 0x38]\n 29494: a1 = a1 | a2\n 29497: a2 = 0xffffffe0\n 29507: a2 = s1 <u a2\n 29510: a3 = u64 [sp + 0x40]\n 29513: a2 = 0 if a3 != 0\n 29515: a2 = 0 if a1 != 0\n 29517: u8 [a0 + 0] = 0\n 29519: jump @471 if a2 == 0\n      : @469 (gas: 3)\n 29523: i32 a0 = s0 + 0x20\n 29526: a1 = 0x20\n 29529: ra = 404, jump @0\n      : @470 [@dyn 202] (gas: 54)\n 29535: u8 [a0 + 31] = 0\n 29538: u8 [a0 + 30] = 0\n 29541: u8 [a0 + 29] = 0\n 29544: u8 [a0 + 28] = 0\n 29547: u8 [a0 + 27] = 0\n 29550: u8 [a0 + 26] = 0\n 29553: u8 [a0 + 25] = 0\n 29556: u8 [a0 + 24] = 0\n 29559: u8 [a0 + 23] = 0\n 29562: u8 [a0 + 22] = 0\n 29565: u8 [a0 + 21] = 0\n 29568: u8 [a0 + 20] = 0\n 29571: u8 [a0 + 19] = 0\n 29574: u8 [a0 + 18] = 0\n 29577: u8 [a0 + 17] = 0\n 29580: u8 [a0 + 16] = 0x65\n 29584: u8 [a0 + 15] = 0x74\n 29588: u8 [a0 + 14] = 0x75\n 29592: u8 [a0 + 13] = 0x70\n 29596: u8 [a0 + 12] = 0x73\n 29600: u8 [a0 + 11] = 0x69\n 29604: u8 [a0 + 10] = 0x64\n 29608: u8 [a0 + 9] = 0x20\n 29612: u8 [a0 + 8] = 0x65\n 29616: u8 [a0 + 7] = 0x76\n 29620: u8 [a0 + 6] = 0x69\n 29624: u8 [a0 + 5] = 0x74\n 29628: u8 [a0 + 4] = 0x63\n 29632: u8 [a0 + 3] = 0x61\n 29636: u8 [a0 + 2] = 0x20\n 29640: u8 [a0 + 1] = 0x6f\n 29644: u8 [a0 + 0] = 0x6e\n 29647: a1 = u64 [sp]\n 29649: a0 = a1 + 0x60\n 29652: a1 = a0 <u a1\n 29655: a3 = u64 [sp + 0x8]\n 29658: a2 = a3 + a1\n 29661: a3 = a2 <u a3\n 29664: a3 = a1 if a1 == 0\n 29667: a1 = u64 [sp + 0x10]\n 29670: a3 = a3 + a1\n 29673: a1 = a3 <u a1\n 29676: a4 = u64 [sp + 0x18]\n 29679: a1 = a1 + a4\n 29682: a4 = u64 [sp + 0x28]\n 29685: u64 [a4] = a0\n 29687: u64 [a4 + 0x8] = a2\n 29690: u64 [a4 + 0x10] = a3\n 29693: u64 [a4 + 0x18] = a1\n 29696: ra = u64 [sp + 0x58]\n 29699: s0 = u64 [sp + 0x50]\n 29702: s1 = u64 [sp + 0x48]\n 29705: sp = sp + 0x60\n 29708: ret\n      : @471 (gas: 1)\n 29710: trap\n      : @472 (gas: 17)\n 29711: sp = sp + 0xffffffffffffffa0\n 29714: u64 [sp + 0x58] = ra\n 29717: u64 [sp + 0x50] = s0\n 29720: u64 [sp + 0x48] = s1\n 29723: a3 = u64 [a1 + 0x18]\n 29726: a4 = u64 [a1 + 0x10]\n 29729: a5 = u64 [a1 + 0x8]\n 29732: s1 = u64 [a1]\n 29734: a1 = a5 | a3\n 29737: a2 = s1 | a4\n 29740: a2 = a2 | a1\n 29743: a2 = a2 >> 0x20\n 29746: a1 = a1 | a4\n 29749: a1 = a1 << 0x20\n 29752: a1 = a1 | a2\n 29755: u64 [sp + 0x28] = a0\n 29758: jump @479 if a1 != 0\n      : @473 (gas: 19)\n 29762: a0 = s1 + 0x20\n 29765: u64 [sp + 0x30] = a0\n 29768: a0 = a0 <u s1\n 29771: a1 = a5 + a0\n 29774: u64 [sp + 0x40] = a1\n 29777: u64 [sp + 0x8] = a5\n 29780: s0 = a1 <u a5\n 29783: s0 = a0 if a0 == 0\n 29786: s0 = s0 + a4\n 29789: u64 [sp + 0x10] = a4\n 29792: a0 = s0 <u a4\n 29795: u64 [sp + 0x18] = a3\n 29798: a0 = a0 + a3\n 29801: u64 [sp + 0x38] = a0\n 29804: u64 [sp] = s1\n 29806: i32 a0 = s1 + 0\n 29808: a1 = 0x20\n 29811: s1 = 0x20\n 29814: ra = 406, jump @0\n      : @474 [@dyn 203] (gas: 45)\n 29820: u8 [a0 + 0x1f] = s1\n 29823: a1 = u64 [sp + 0x30]\n 29826: s1 = a1\n 29828: a1 = a1 | s0\n 29831: a2 = u64 [sp + 0x40]\n 29834: a4 = u64 [sp + 0x38]\n 29837: a2 = a2 | a4\n 29840: a1 = a1 | a2\n 29843: a1 = a1 >> 0x20\n 29846: u64 [sp + 0x20] = s0\n 29849: a2 = a2 | s0\n 29852: a2 = a2 << 0x20\n 29855: a1 = a1 | a2\n 29858: u8 [a0 + 30] = 0\n 29861: u8 [a0 + 29] = 0\n 29864: u8 [a0 + 28] = 0\n 29867: u8 [a0 + 27] = 0\n 29870: u8 [a0 + 26] = 0\n 29873: u8 [a0 + 25] = 0\n 29876: u8 [a0 + 24] = 0\n 29879: u8 [a0 + 23] = 0\n 29882: u8 [a0 + 22] = 0\n 29885: u8 [a0 + 21] = 0\n 29888: u8 [a0 + 20] = 0\n 29891: u8 [a0 + 19] = 0\n 29894: u8 [a0 + 18] = 0\n 29897: u8 [a0 + 17] = 0\n 29900: u8 [a0 + 16] = 0\n 29903: u8 [a0 + 15] = 0\n 29906: u8 [a0 + 14] = 0\n 29909: u8 [a0 + 13] = 0\n 29912: u8 [a0 + 12] = 0\n 29915: u8 [a0 + 11] = 0\n 29918: u8 [a0 + 10] = 0\n 29921: u8 [a0 + 9] = 0\n 29924: u8 [a0 + 8] = 0\n 29927: u8 [a0 + 7] = 0\n 29930: u8 [a0 + 6] = 0\n 29933: u8 [a0 + 5] = 0\n 29936: u8 [a0 + 4] = 0\n 29939: u8 [a0 + 3] = 0\n 29942: u8 [a0 + 2] = 0\n 29945: u8 [a0 + 1] = 0\n 29948: u8 [a0 + 0] = 0\n 29950: jump @479 if a1 != 0\n      : @475 (gas: 4)\n 29954: i32 s0 = s1 + 0\n 29956: a1 = 0x20\n 29959: a0 = s0\n 29961: ra = 408, jump @0\n      : @476 [@dyn 204] (gas: 41)\n 29967: u8 [a0 + 31] = 0x12\n 29971: u8 [a0 + 30] = 0\n 29974: u8 [a0 + 29] = 0\n 29977: u8 [a0 + 28] = 0\n 29980: u8 [a0 + 27] = 0\n 29983: u8 [a0 + 26] = 0\n 29986: u8 [a0 + 25] = 0\n 29989: u8 [a0 + 24] = 0\n 29992: u8 [a0 + 23] = 0\n 29995: u8 [a0 + 22] = 0\n 29998: u8 [a0 + 21] = 0\n 30001: u8 [a0 + 20] = 0\n 30004: u8 [a0 + 19] = 0\n 30007: u8 [a0 + 18] = 0\n 30010: u8 [a0 + 17] = 0\n 30013: u8 [a0 + 16] = 0\n 30016: u8 [a0 + 15] = 0\n 30019: u8 [a0 + 14] = 0\n 30022: u8 [a0 + 13] = 0\n 30025: u8 [a0 + 12] = 0\n 30028: u8 [a0 + 11] = 0\n 30031: u8 [a0 + 10] = 0\n 30034: u8 [a0 + 9] = 0\n 30037: u8 [a0 + 8] = 0\n 30040: u8 [a0 + 7] = 0\n 30043: u8 [a0 + 6] = 0\n 30046: u8 [a0 + 5] = 0\n 30049: u8 [a0 + 4] = 0\n 30052: u8 [a0 + 3] = 0\n 30055: u8 [a0 + 2] = 0\n 30058: u8 [a0 + 1] = 0\n 30061: a1 = u64 [sp + 0x20]\n 30064: a2 = u64 [sp + 0x38]\n 30067: a1 = a1 | a2\n 30070: a2 = 0xffffffe0\n 30080: a2 = s1 <u a2\n 30083: a3 = u64 [sp + 0x40]\n 30086: a2 = 0 if a3 != 0\n 30088: a2 = 0 if a1 != 0\n 30090: u8 [a0 + 0] = 0\n 30092: jump @479 if a2 == 0\n      : @477 (gas: 3)\n 30096: i32 a0 = s0 + 0x20\n 30099: a1 = 0x20\n 30102: ra = 410, jump @0\n      : @478 [@dyn 205] (gas: 54)\n 30108: u8 [a0 + 31] = 0\n 30111: u8 [a0 + 30] = 0\n 30114: u8 [a0 + 29] = 0\n 30117: u8 [a0 + 28] = 0\n 30120: u8 [a0 + 27] = 0\n 30123: u8 [a0 + 26] = 0\n 30126: u8 [a0 + 25] = 0\n 30129: u8 [a0 + 24] = 0\n 30132: u8 [a0 + 23] = 0\n 30135: u8 [a0 + 22] = 0\n 30138: u8 [a0 + 21] = 0\n 30141: u8 [a0 + 20] = 0\n 30144: u8 [a0 + 19] = 0\n 30147: u8 [a0 + 18] = 0\n 30150: u8 [a0 + 17] = 0x65\n 30154: u8 [a0 + 16] = 0x6b\n 30158: u8 [a0 + 15] = 0x61\n 30162: u8 [a0 + 14] = 0x74\n 30166: u8 [a0 + 13] = 0x73\n 30170: u8 [a0 + 12] = 0x20\n 30174: u8 [a0 + 11] = 0x74\n 30178: u8 [a0 + 10] = 0x6e\n 30182: u8 [a0 + 9] = 0x65\n 30186: u8 [a0 + 8] = 0x69\n 30190: u8 [a0 + 7] = 0x63\n 30194: u8 [a0 + 6] = 0x69\n 30198: u8 [a0 + 5] = 0x66\n 30202: u8 [a0 + 4] = 0x66\n 30206: u8 [a0 + 3] = 0x75\n 30210: u8 [a0 + 2] = 0x73\n 30214: u8 [a0 + 1] = 0x6e\n 30218: u8 [a0 + 0] = 0x69\n 30221: a1 = u64 [sp]\n 30223: a0 = a1 + 0x60\n 30226: a1 = a0 <u a1\n 30229: a3 = u64 [sp + 0x8]\n 30232: a2 = a3 + a1\n 30235: a3 = a2 <u a3\n 30238: a3 = a1 if a1 == 0\n 30241: a1 = u64 [sp + 0x10]\n 30244: a3 = a3 + a1\n 30247: a1 = a3 <u a1\n 30250: a4 = u64 [sp + 0x18]\n 30253: a1 = a1 + a4\n 30256: a4 = u64 [sp + 0x28]\n 30259: u64 [a4] = a0\n 30261: u64 [a4 + 0x8] = a2\n 30264: u64 [a4 + 0x10] = a3\n 30267: u64 [a4 + 0x18] = a1\n 30270: ra = u64 [sp + 0x58]\n 30273: s0 = u64 [sp + 0x50]\n 30276: s1 = u64 [sp + 0x48]\n 30279: sp = sp + 0x60\n 30282: ret\n      : @479 (gas: 1)\n 30284: trap\n      : @480 (gas: 9)\n 30285: sp = sp + 0xffffffffffffffc0\n 30288: u64 [sp + 0x38] = ra\n 30291: u64 [sp + 0x30] = s0\n 30294: u64 [sp + 0x28] = s1\n 30297: s0 = sp + 0x40\n 30300: sp = sp & 0xffffffffffffffe0\n 30303: a0 = 0x40\n 30306: a1 = 0x20\n 30309: ra = 412, jump @0\n      : @481 [@dyn 206] (gas: 97)\n 30315: a1 = u8 [a0 + 0x11]\n 30318: a2 = u8 [a0 + 0x10]\n 30321: a3 = u8 [a0 + 0x12]\n 30324: a4 = u8 [a0 + 0x13]\n 30327: a1 = a1 << 0x8\n 30330: a1 = a1 | a2\n 30333: a3 = a3 << 0x10\n 30336: a4 = a4 << 0x18\n 30339: a3 = a3 | a4\n 30342: a1 = a1 | a3\n 30345: a2 = u8 [a0 + 0x15]\n 30348: a3 = u8 [a0 + 0x14]\n 30351: a4 = u8 [a0 + 0x16]\n 30354: a5 = u8 [a0 + 0x17]\n 30357: a2 = a2 << 0x8\n 30360: a2 = a2 | a3\n 30363: a4 = a4 << 0x10\n 30366: a5 = a5 << 0x18\n 30369: a4 = a4 | a5\n 30372: a2 = a2 | a4\n 30375: a2 = a2 << 0x20\n 30378: t0 = a2 | a1\n 30381: a2 = u8 [a0 + 0x1]\n 30384: a3 = u8 [a0]\n 30386: a4 = u8 [a0 + 0x2]\n 30389: a5 = u8 [a0 + 0x3]\n 30392: a2 = a2 << 0x8\n 30395: a2 = a2 | a3\n 30398: a4 = a4 << 0x10\n 30401: a5 = a5 << 0x18\n 30404: a4 = a4 | a5\n 30407: a2 = a2 | a4\n 30410: a3 = u8 [a0 + 0x5]\n 30413: a4 = u8 [a0 + 0x4]\n 30416: a5 = u8 [a0 + 0x6]\n 30419: s1 = u8 [a0 + 0x7]\n 30422: a3 = a3 << 0x8\n 30425: a3 = a3 | a4\n 30428: a5 = a5 << 0x10\n 30431: s1 = s1 << 0x18\n 30434: a5 = a5 | s1\n 30437: a3 = a3 | a5\n 30440: a3 = a3 << 0x20\n 30443: a2 = a2 | a3\n 30446: a3 = u8 [a0 + 0x19]\n 30449: a4 = u8 [a0 + 0x18]\n 30452: a5 = u8 [a0 + 0x1a]\n 30455: s1 = u8 [a0 + 0x1b]\n 30458: a3 = a3 << 0x8\n 30461: a3 = a3 | a4\n 30464: a5 = a5 << 0x10\n 30467: s1 = s1 << 0x18\n 30470: a5 = a5 | s1\n 30473: a3 = a3 | a5\n 30476: a4 = u8 [a0 + 0x1d]\n 30479: a5 = u8 [a0 + 0x1c]\n 30482: s1 = u8 [a0 + 0x1e]\n 30485: a1 = u8 [a0 + 0x1f]\n 30488: a4 = a4 << 0x8\n 30491: a4 = a4 | a5\n 30494: s1 = s1 << 0x10\n 30497: a1 = a1 << 0x18\n 30500: a1 = a1 | s1\n 30503: a1 = a1 | a4\n 30506: a1 = a1 << 0x20\n 30509: a3 = a3 | a1\n 30512: a1 = u8 [a0 + 0x9]\n 30515: a4 = u8 [a0 + 0x8]\n 30518: a5 = u8 [a0 + 0xa]\n 30521: s1 = u8 [a0 + 0xb]\n 30524: a1 = a1 << 0x8\n 30527: a1 = a1 | a4\n 30530: a5 = a5 << 0x10\n 30533: s1 = s1 << 0x18\n 30536: a5 = a5 | s1\n 30539: a1 = a1 | a5\n 30542: a4 = u8 [a0 + 0xd]\n 30545: a5 = u8 [a0 + 0xc]\n 30548: s1 = u8 [a0 + 0xe]\n 30551: a0 = u8 [a0 + 0xf]\n 30554: a4 = a4 << 0x8\n 30557: a4 = a4 | a5\n 30560: s1 = s1 << 0x10\n 30563: a0 = a0 << 0x18\n 30566: a0 = a0 | s1\n 30569: a0 = a0 | a4\n 30572: a0 = a0 << 0x20\n 30575: a0 = a0 | a1\n 30578: s1 = reverse a0\n 30580: a0 = reverse a3\n 30582: u64 [sp + 0x8] = a0\n 30585: a0 = reverse a2\n 30587: u64 [sp + 0x18] = a0\n 30590: a0 = reverse t0\n 30592: u64 [sp + 0x10] = a0\n 30595: ecalli 10 // 'return_data_size'\n 30597: fallthrough\n      : @482 (gas: 11)\n 30598: a3 = u64 [sp + 0x8]\n 30601: a1 = u64 [sp + 0x18]\n 30604: a2 = u64 [sp + 0x10]\n 30607: a1 = a1 | a2\n 30610: a2 = a3 | s1\n 30613: a2 = a2 | a1\n 30616: a2 = a2 >> 0x20\n 30619: a1 = a1 | s1\n 30622: a1 = a1 << 0x20\n 30625: a1 = a1 | a2\n 30628: jump @489 if a1 != 0\n      : @483 (gas: 3)\n 30631: s1 = a0\n 30633: a0 = a0 >> 0x20\n 30636: jump @489 if a0 != 0\n      : @484 (gas: 5)\n 30639: i32 a0 = a3 + 0\n 30641: i32 a1 = s1 + 0\n 30643: u64 [sp + 0x18] = a1\n 30646: u64 [sp + 0x10] = a0\n 30649: ra = 414, jump @0\n      : @485 [@dyn 207] (gas: 6)\n 30655: u32 [sp + 0x20] = s1\n 30658: i32 a0 = a0 + 0\n 30660: i32 a1 = sp + 0x20\n 30663: a2 = 0\n 30665: ecalli 9 // 'return_data_copy'\n 30667: fallthrough\n      : @486 (gas: 3)\n 30668: a0 = i32 [sp + 0x20]\n 30671: a1 = u64 [sp + 0x18]\n 30674: jump @489 if a0 <u a1\n      : @487 (gas: 2)\n 30677: ecalli 10 // 'return_data_size'\n 30679: fallthrough\n      : @488 (gas: 2)\n 30680: a1 = a0 >> 0x20\n 30683: jump @490 if a1 == 0\n      : @489 (gas: 1)\n 30686: trap\n      : @490 (gas: 4)\n 30687: i32 s1 = a0 + 0\n 30689: a0 = u64 [sp + 0x10]\n 30692: a1 = s1\n 30694: ra = 416, jump @0\n      : @491 [@dyn 208] (gas: 6)\n 30700: i32 a1 = a0 + 0\n 30702: a0 = 0x1\n 30705: a2 = s1\n 30707: ra = 0x1a2\n 30711: ecalli 11 // 'seal_return'\n 30713: fallthrough\n      : @492 [@dyn 209] (gas: 17)\n 30714: sp = sp + 0xffffffffffffffc0\n 30717: u64 [sp + 0x38] = ra\n 30720: u64 [sp + 0x30] = s0\n 30723: u64 [sp + 0x28] = s1\n 30726: a3 = u64 [a1 + 0x10]\n 30729: s1 = u64 [a1 + 0x18]\n 30732: a5 = u64 [a1 + 0x8]\n 30735: s0 = u64 [a1]\n 30737: a4 = a5 | s1\n 30740: a1 = s0 | a3\n 30743: a1 = a1 | a4\n 30746: a1 = a1 >> 0x20\n 30749: a4 = a4 | a3\n 30752: a4 = a4 << 0x20\n 30755: a1 = a1 | a4\n 30758: u64 [sp + 0x20] = a0\n 30761: jump @495 if a1 != 0\n      : @493 (gas: 23)\n 30765: t0 = u64 [a2 + 0x18]\n 30768: t1 = u64 [a2 + 0x10]\n 30771: a4 = u64 [a2 + 0x8]\n 30774: a2 = u64 [a2]\n 30776: a0 = s0 + 0x20\n 30779: u64 [sp + 0x18] = a0\n 30782: a0 = a0 <u s0\n 30785: a1 = a5 + a0\n 30788: u64 [sp + 0x10] = a1\n 30791: a5 = a1 <u a5\n 30794: a5 = a0 if a0 == 0\n 30797: a5 = a5 + a3\n 30800: u64 [sp + 0x8] = a5\n 30803: a0 = a5 <u a3\n 30806: s1 = s1 + a0\n 30809: a1 = a2 | t1\n 30812: a0 = a4 | t0\n 30815: a0 = a0 | a1\n 30818: a0 = a0 >u 0\n 30820: u64 [sp] = a0\n 30822: i32 a0 = s0 + 0\n 30824: a1 = 0x20\n 30827: ra = 420, jump @0\n      : @494 [@dyn 210] (gas: 46)\n 30833: u8 [a0 + 30] = 0\n 30836: u8 [a0 + 29] = 0\n 30839: u8 [a0 + 28] = 0\n 30842: u8 [a0 + 27] = 0\n 30845: u8 [a0 + 26] = 0\n 30848: u8 [a0 + 25] = 0\n 30851: u8 [a0 + 24] = 0\n 30854: u8 [a0 + 23] = 0\n 30857: u8 [a0 + 22] = 0\n 30860: u8 [a0 + 21] = 0\n 30863: u8 [a0 + 20] = 0\n 30866: u8 [a0 + 19] = 0\n 30869: u8 [a0 + 18] = 0\n 30872: u8 [a0 + 17] = 0\n 30875: u8 [a0 + 16] = 0\n 30878: u8 [a0 + 15] = 0\n 30881: u8 [a0 + 14] = 0\n 30884: u8 [a0 + 13] = 0\n 30887: u8 [a0 + 12] = 0\n 30890: u8 [a0 + 11] = 0\n 30893: u8 [a0 + 10] = 0\n 30896: u8 [a0 + 9] = 0\n 30899: u8 [a0 + 8] = 0\n 30902: u8 [a0 + 7] = 0\n 30905: u8 [a0 + 6] = 0\n 30908: u8 [a0 + 5] = 0\n 30911: u8 [a0 + 4] = 0\n 30914: u8 [a0 + 3] = 0\n 30917: u8 [a0 + 2] = 0\n 30920: u8 [a0 + 1] = 0\n 30923: u8 [a0 + 0] = 0\n 30925: a1 = u64 [sp]\n 30927: u8 [a0 + 0x1f] = a1\n 30930: a0 = u64 [sp + 0x20]\n 30933: a1 = u64 [sp + 0x18]\n 30936: u64 [a0] = a1\n 30938: u64 [a0 + 0x18] = s1\n 30941: a1 = u64 [sp + 0x10]\n 30944: u64 [a0 + 0x8] = a1\n 30947: a1 = u64 [sp + 0x8]\n 30950: u64 [a0 + 0x10] = a1\n 30953: ra = u64 [sp + 0x38]\n 30956: s0 = u64 [sp + 0x30]\n 30959: s1 = u64 [sp + 0x28]\n 30962: sp = sp + 0x40\n 30965: ret\n      : @495 (gas: 1)\n 30967: trap\n      : @496 (gas: 6)\n 30968: s1 = 0x200a0\n 30973: a4 = i32 [sp + 0x2b0]\n 30977: a2 = u64 [sp + 0x2a0]\n 30981: a0 = i32 [0x200a0]\n 30986: a1 = u64 [sp + 0x2a8]\n 30990: jump @500 if a0 == 0\n      : @497 (gas: 9)\n 30993: u64 [sp + 0x148] = a0\n 30997: a0 = 0x300b0\n 31002: i32 a0 = a0 + 0\n 31004: u64 [sp + 0x150] = a1\n 31008: i32 a1 = s1 + 0\n 31010: u64 [sp + 0x168] = a4\n 31014: u64 [sp + 0x158] = a2\n 31018: ecalli 6 // 'get_immutable_data'\n 31020: fallthrough\n      : @498 (gas: 7)\n 31021: a1 = u64 [sp + 0x150]\n 31025: a2 = u64 [sp + 0x158]\n 31029: a4 = u64 [sp + 0x168]\n 31033: a0 = i32 [0x200a0]\n 31038: u32 [0x200a0] = 0\n 31043: a3 = u64 [sp + 0x148]\n 31047: jump @500 if a0 >=u a3\n      : @499 (gas: 1)\n 31050: jump @545\n      : @500 (gas: 19)\n 31053: a0 = reverse a1\n 31055: a1 = a0 >> 0x20\n 31058: a2 = reverse a2\n 31060: a3 = a2 << 0x20\n 31063: a1 = a1 | a3\n 31066: a0 = a0 << 0x20\n 31069: a4 = reverse a4\n 31071: a4 = a4 >> 0x20\n 31074: a0 = a0 | a4\n 31077: a4 = u64 [0x300b0]\n 31082: a5 = u32 [0x300c0]\n 31087: a2 = a2 >> 0x20\n 31090: a3 = u64 [0x300b8]\n 31095: a0 = a0 ^ a4\n 31098: a2 = a2 ^ a5\n 31101: a0 = a0 | a2\n 31104: a1 = a1 ^ a3\n 31107: a0 = a0 | a1\n 31110: jump @534 if a0 != 0\n      : @501 (gas: 2)\n 31114: a1 = 0x20\n 31117: ra = 422, jump @0\n      : @502 [@dyn 211] (gas: 103)\n 31123: a1 = u64 [sp + 0x170]\n 31127: a1 = reverse a1\n 31129: a2 = u64 [sp + 0x178]\n 31133: a2 = reverse a2\n 31135: a3 = u64 [sp + 0x180]\n 31139: a3 = reverse a3\n 31141: a4 = u64 [sp + 0x188]\n 31145: a4 = reverse a4\n 31147: a5 = a4 >> 0x38\n 31150: u64 [sp + 0x118] = a5\n 31154: u8 [a0 + 0x1f] = a5\n 31157: a5 = a4 >> 0x30\n 31160: u64 [sp + 0x110] = a5\n 31164: u8 [a0 + 0x1e] = a5\n 31167: a5 = a4 >> 0x28\n 31170: u64 [sp + 0x108] = a5\n 31174: u8 [a0 + 0x1d] = a5\n 31177: a5 = a4 >> 0x20\n 31180: u64 [sp + 0x100] = a5\n 31184: u8 [a0 + 0x1c] = a5\n 31187: a5 = a4 >> 0x18\n 31190: u64 [sp + 0xf8] = a5\n 31194: u8 [a0 + 0x1b] = a5\n 31197: a5 = a4 >> 0x10\n 31200: u64 [sp + 0xf0] = a5\n 31204: u8 [a0 + 0x1a] = a5\n 31207: a5 = a4 >> 0x8\n 31210: u64 [sp + 0xe8] = a5\n 31214: u8 [a0 + 0x19] = a5\n 31217: u64 [sp + 0x168] = a4\n 31221: u8 [a0 + 0x18] = a4\n 31224: u8 [a0 + 0x10] = a3\n 31227: a4 = a3 >> 0x38\n 31230: u64 [sp + 0xe0] = a4\n 31234: u8 [a0 + 0x17] = a4\n 31237: a4 = a3 >> 0x30\n 31240: u64 [sp + 0xd8] = a4\n 31244: u8 [a0 + 0x16] = a4\n 31247: a4 = a3 >> 0x28\n 31250: u64 [sp + 0xd0] = a4\n 31254: u8 [a0 + 0x15] = a4\n 31257: a4 = a3 >> 0x20\n 31260: u64 [sp + 0xc8] = a4\n 31264: u8 [a0 + 0x14] = a4\n 31267: a4 = a3 >> 0x18\n 31270: u64 [sp + 0xc0] = a4\n 31274: u8 [a0 + 0x13] = a4\n 31277: a4 = a3 >> 0x10\n 31280: u64 [sp + 0xb8] = a4\n 31284: u8 [a0 + 0x12] = a4\n 31287: u64 [sp + 0x170] = a3\n 31291: a3 = a3 >> 0x8\n 31294: u64 [sp + 0xb0] = a3\n 31298: u8 [a0 + 0x11] = a3\n 31301: u8 [a0 + 0x8] = a2\n 31304: a3 = a2 >> 0x38\n 31307: u64 [sp + 0xa8] = a3\n 31311: u8 [a0 + 0xf] = a3\n 31314: a3 = a2 >> 0x30\n 31317: u64 [sp + 0xa0] = a3\n 31321: u8 [a0 + 0xe] = a3\n 31324: a3 = a2 >> 0x28\n 31327: u64 [sp + 0x98] = a3\n 31331: u8 [a0 + 0xd] = a3\n 31334: a3 = a2 >> 0x20\n 31337: u64 [sp + 0x90] = a3\n 31341: u8 [a0 + 0xc] = a3\n 31344: a3 = a2 >> 0x18\n 31347: u64 [sp + 0x88] = a3\n 31351: u8 [a0 + 0xb] = a3\n 31354: a3 = a2 >> 0x10\n 31357: u64 [sp + 0x80] = a3\n 31361: u8 [a0 + 0xa] = a3\n 31364: u64 [sp + 0x178] = a2\n 31368: a2 = a2 >> 0x8\n 31371: u64 [sp + 0x78] = a2\n 31374: u8 [a0 + 0x9] = a2\n 31377: u8 [a0] = a1\n 31379: a2 = a1 >> 0x38\n 31382: u64 [sp + 0x70] = a2\n 31385: u8 [a0 + 0x7] = a2\n 31388: a2 = a1 >> 0x30\n 31391: u64 [sp + 0x68] = a2\n 31394: u8 [a0 + 0x6] = a2\n 31397: a2 = a1 >> 0x28\n 31400: u64 [sp + 0x60] = a2\n 31403: u8 [a0 + 0x5] = a2\n 31406: a2 = a1 >> 0x20\n 31409: u64 [sp + 0x58] = a2\n 31412: u8 [a0 + 0x4] = a2\n 31415: a2 = a1 >> 0x18\n 31418: u64 [sp + 0x50] = a2\n 31421: u8 [a0 + 0x3] = a2\n 31424: a2 = a1 >> 0x10\n 31427: u64 [sp + 0x48] = a2\n 31430: u8 [a0 + 0x2] = a2\n 31433: u64 [sp + 0x180] = a1\n 31437: a1 = a1 >> 0x8\n 31440: u64 [sp + 0x40] = a1\n 31443: u8 [a0 + 0x1] = a1\n 31446: a0 = 0x20\n 31449: a1 = 0x20\n 31452: ra = 424, jump @0\n      : @503 [@dyn 212] (gas: 35)\n 31458: u8 [a0 + 31] = 0x2\n 31462: u8 [a0 + 30] = 0\n 31465: u8 [a0 + 29] = 0\n 31468: u8 [a0 + 28] = 0\n 31471: u8 [a0 + 27] = 0\n 31474: u8 [a0 + 26] = 0\n 31477: u8 [a0 + 25] = 0\n 31480: u8 [a0 + 24] = 0\n 31483: u8 [a0 + 23] = 0\n 31486: u8 [a0 + 22] = 0\n 31489: u8 [a0 + 21] = 0\n 31492: u8 [a0 + 20] = 0\n 31495: u8 [a0 + 19] = 0\n 31498: u8 [a0 + 18] = 0\n 31501: u8 [a0 + 17] = 0\n 31504: u8 [a0 + 16] = 0\n 31507: u8 [a0 + 15] = 0\n 31510: u8 [a0 + 14] = 0\n 31513: u8 [a0 + 13] = 0\n 31516: u8 [a0 + 12] = 0\n 31519: u8 [a0 + 11] = 0\n 31522: u8 [a0 + 10] = 0\n 31525: u8 [a0 + 9] = 0\n 31528: u8 [a0 + 8] = 0\n 31531: u8 [a0 + 7] = 0\n 31534: u8 [a0 + 6] = 0\n 31537: u8 [a0 + 5] = 0\n 31540: u8 [a0 + 4] = 0\n 31543: u8 [a0 + 3] = 0\n 31546: u8 [a0 + 2] = 0\n 31549: u8 [a0 + 1] = 0\n 31552: u8 [a0 + 0] = 0\n 31554: a1 = 0x40\n 31557: a0 = 0\n 31559: ra = 426, jump @0\n      : @504 [@dyn 213] (gas: 18)\n 31565: i32 a0 = a0 + 0\n 31567: i32 a2 = sp + 0x380\n 31571: a1 = 0x40\n 31574: ecalli 8 // 'hash_keccak_256'\n 31576: a0 = u64 [sp + 0x380]\n 31580: u64 [sp + 0x188] = a0\n 31584: a0 = u64 [sp + 0x388]\n 31588: u64 [sp + 0x148] = a0\n 31592: a0 = u64 [sp + 0x390]\n 31596: u64 [sp + 0x140] = a0\n 31600: s1 = u64 [sp + 0x398]\n 31604: a0 = u64 [sp + 0x160]\n 31608: a0 = a0 << 0x20\n 31611: a0 = a0 >> 0x20\n 31614: u64 [sp + 0x158] = a0\n 31618: a1 = 0x20\n 31621: a0 = 0\n 31623: ra = 428, jump @0\n      : @505 [@dyn 214] (gas: 64)\n 31629: a1 = u64 [sp + 0x158]\n 31633: a2 = reverse a1\n 31635: a1 = u64 [sp + 0x190]\n 31639: a3 = reverse a1\n 31641: a1 = u64 [sp + 0x198]\n 31645: a4 = reverse a1\n 31647: a1 = a4 >> 0x38\n 31650: u8 [a0 + 0x1f] = a1\n 31653: a1 = a4 >> 0x30\n 31656: u8 [a0 + 0x1e] = a1\n 31659: a1 = a4 >> 0x28\n 31662: u8 [a0 + 0x1d] = a1\n 31665: a1 = a4 >> 0x20\n 31668: u64 [sp + 0x18] = a1\n 31671: u8 [a0 + 0x1c] = a1\n 31674: a1 = a4 >> 0x18\n 31677: u8 [a0 + 0x1b] = a1\n 31680: a1 = a4 >> 0x10\n 31683: u8 [a0 + 0x1a] = a1\n 31686: a1 = a4 >> 0x8\n 31689: u8 [a0 + 0x19] = a1\n 31692: u64 [sp + 0x150] = a4\n 31696: u8 [a0 + 0x18] = a4\n 31699: a1 = a3 >> 0x38\n 31702: u8 [a0 + 0x17] = a1\n 31705: a1 = a3 >> 0x30\n 31708: u8 [a0 + 0x16] = a1\n 31711: a1 = a3 >> 0x28\n 31714: u8 [a0 + 0x15] = a1\n 31717: a1 = a3 >> 0x20\n 31720: u64 [sp + 0x10] = a1\n 31723: u8 [a0 + 0x14] = a1\n 31726: a1 = a3 >> 0x18\n 31729: u8 [a0 + 0x13] = a1\n 31732: a1 = a3 >> 0x10\n 31735: u8 [a0 + 0x12] = a1\n 31738: a1 = a3 >> 0x8\n 31741: u8 [a0 + 0x11] = a1\n 31744: u64 [sp + 0x158] = a3\n 31748: u8 [a0 + 0x10] = a3\n 31751: a1 = a2 >> 0x38\n 31754: u8 [a0 + 0xf] = a1\n 31757: a1 = a2 >> 0x30\n 31760: u8 [a0 + 0xe] = a1\n 31763: a1 = a2 >> 0x28\n 31766: u8 [a0 + 0xd] = a1\n 31769: a1 = a2 >> 0x20\n 31772: u8 [a0 + 0xc] = a1\n 31775: u8 [a0 + 11] = 0\n 31778: u8 [a0 + 10] = 0\n 31781: u8 [a0 + 9] = 0\n 31784: u64 [sp + 0x38] = a2\n 31787: u8 [a0 + 0x8] = a2\n 31790: u8 [a0 + 7] = 0\n 31793: u8 [a0 + 6] = 0\n 31796: u8 [a0 + 5] = 0\n 31799: u8 [a0 + 4] = 0\n 31802: u8 [a0 + 3] = 0\n 31805: u8 [a0 + 2] = 0\n 31808: u8 [a0 + 1] = 0\n 31811: u8 [a0 + 0] = 0\n 31813: a0 = 0x20\n 31816: a1 = 0x20\n 31819: ra = 430, jump @0\n      : @506 [@dyn 215] (gas: 66)\n 31825: a1 = s1 >> 0x38\n 31828: u8 [a0 + 0x1f] = a1\n 31831: a1 = s1 >> 0x30\n 31834: u8 [a0 + 0x1e] = a1\n 31837: a1 = s1 >> 0x28\n 31840: u8 [a0 + 0x1d] = a1\n 31843: a1 = s1 >> 0x20\n 31846: u8 [a0 + 0x1c] = a1\n 31849: a1 = s1 >> 0x18\n 31852: u8 [a0 + 0x1b] = a1\n 31855: a1 = s1 >> 0x10\n 31858: u8 [a0 + 0x1a] = a1\n 31861: a1 = s1 >> 0x8\n 31864: u8 [a0 + 0x19] = a1\n 31867: u8 [a0 + 0x18] = s1\n 31870: a2 = u64 [sp + 0x140]\n 31874: a1 = a2 >> 0x38\n 31877: u8 [a0 + 0x17] = a1\n 31880: a1 = a2 >> 0x30\n 31883: u8 [a0 + 0x16] = a1\n 31886: a1 = a2 >> 0x28\n 31889: u8 [a0 + 0x15] = a1\n 31892: a1 = a2 >> 0x20\n 31895: u8 [a0 + 0x14] = a1\n 31898: a1 = a2 >> 0x18\n 31901: u8 [a0 + 0x13] = a1\n 31904: a1 = a2 >> 0x10\n 31907: u8 [a0 + 0x12] = a1\n 31910: a1 = a2 >> 0x8\n 31913: u8 [a0 + 0x11] = a1\n 31916: u8 [a0 + 0x10] = a2\n 31919: a2 = u64 [sp + 0x148]\n 31923: a1 = a2 >> 0x38\n 31926: u8 [a0 + 0xf] = a1\n 31929: a1 = a2 >> 0x30\n 31932: u8 [a0 + 0xe] = a1\n 31935: a1 = a2 >> 0x28\n 31938: u8 [a0 + 0xd] = a1\n 31941: a1 = a2 >> 0x20\n 31944: u8 [a0 + 0xc] = a1\n 31947: a1 = a2 >> 0x18\n 31950: u8 [a0 + 0xb] = a1\n 31953: a1 = a2 >> 0x10\n 31956: u8 [a0 + 0xa] = a1\n 31959: a1 = a2 >> 0x8\n 31962: u8 [a0 + 0x9] = a1\n 31965: u8 [a0 + 0x8] = a2\n 31968: a2 = u64 [sp + 0x188]\n 31972: a1 = a2 >> 0x38\n 31975: u8 [a0 + 0x7] = a1\n 31978: a1 = a2 >> 0x30\n 31981: u8 [a0 + 0x6] = a1\n 31984: a1 = a2 >> 0x28\n 31987: u8 [a0 + 0x5] = a1\n 31990: a1 = a2 >> 0x20\n 31993: u8 [a0 + 0x4] = a1\n 31996: a1 = a2 >> 0x18\n 31999: u8 [a0 + 0x3] = a1\n 32002: a1 = a2 >> 0x10\n 32005: u8 [a0 + 0x2] = a1\n 32008: a1 = a2 >> 0x8\n 32011: u8 [a0 + 0x1] = a1\n 32014: u8 [a0] = a2\n 32016: a1 = 0x40\n 32019: a0 = 0\n 32021: ra = 432, jump @0\n      : @507 [@dyn 216] (gas: 43)\n 32027: i32 a0 = a0 + 0\n 32029: i32 a2 = sp + 0x380\n 32033: a1 = 0x40\n 32036: ecalli 8 // 'hash_keccak_256'\n 32038: a0 = u64 [sp + 0x380]\n 32042: a1 = u64 [sp + 0x388]\n 32046: a2 = u64 [sp + 0x390]\n 32050: a3 = u64 [sp + 0x398]\n 32054: a4 = reverse a0\n 32056: a1 = reverse a1\n 32058: a2 = reverse a2\n 32060: a0 = reverse a3\n 32062: a3 = a0 + 0x2\n 32065: u64 [sp + 0x20] = a0\n 32068: a0 = a3 <u a0\n 32071: a5 = a2 + a0\n 32074: u64 [sp + 0x28] = a2\n 32077: s1 = a5 <u a2\n 32080: s1 = a0 if a0 == 0\n 32083: s1 = s1 + a1\n 32086: u64 [sp + 0x30] = a1\n 32089: a0 = s1 <u a1\n 32092: u64 [sp + 0x140] = a4\n 32096: a0 = a0 + a4\n 32099: u64 [sp + 0x190] = a5\n 32103: u64 [sp + 0x368] = a5\n 32107: u64 [sp + 0x198] = a3\n 32111: u64 [sp + 0x360] = a3\n 32115: u64 [sp + 0x370] = s1\n 32119: u64 [sp + 0x188] = a0\n 32123: u64 [sp + 0x378] = a0\n 32127: u64 [sp + 920] = 0\n 32131: u64 [sp + 912] = 0\n 32135: u64 [sp + 904] = 0\n 32139: u64 [sp + 896] = 0\n 32143: u32 [sp + 832] = 0x20\n 32148: i32 a1 = sp + 0x360\n 32152: i32 a3 = sp + 0x380\n 32156: i32 a4 = sp + 0x340\n 32160: a2 = 0xffffffffffffffff\n 32163: a0 = 0\n 32165: ecalli 7 // 'get_storage'\n 32167: fallthrough\n      : @508 (gas: 2)\n 32168: a0 = u8 [sp + 0x381]\n 32172: jump @529 if a0 == 0\n      : @509 (gas: 19)\n 32176: u64 [sp + 0x370] = s1\n 32180: a0 = u64 [sp + 0x190]\n 32184: u64 [sp + 0x368] = a0\n 32188: a0 = u64 [sp + 0x198]\n 32192: u64 [sp + 0x360] = a0\n 32196: a0 = u64 [sp + 0x188]\n 32200: u64 [sp + 0x378] = a0\n 32204: u64 [sp + 920] = 0\n 32208: u64 [sp + 912] = 0\n 32212: u64 [sp + 904] = 0\n 32216: u64 [sp + 896] = 0\n 32220: u32 [sp + 832] = 0x20\n 32225: i32 a1 = sp + 0x360\n 32229: i32 a3 = sp + 0x380\n 32233: i32 a4 = sp + 0x340\n 32237: a2 = 0xffffffffffffffff\n 32240: a0 = 0\n 32242: ecalli 7 // 'get_storage'\n 32244: fallthrough\n      : @510 (gas: 2)\n 32245: a0 = u8 [sp + 0x382]\n 32249: jump @529 if a0 != 0\n      : @511 (gas: 45)\n 32253: u64 [sp + 0x370] = s1\n 32257: a0 = u64 [sp + 0x190]\n 32261: u64 [sp + 0x368] = a0\n 32265: a0 = u64 [sp + 0x198]\n 32269: u64 [sp + 0x360] = a0\n 32273: u64 [sp + 0x148] = s1\n 32277: s1 = u64 [sp + 0x188]\n 32281: u64 [sp + 0x378] = s1\n 32285: u64 [sp + 920] = 0\n 32289: u64 [sp + 912] = 0\n 32293: u64 [sp + 904] = 0\n 32297: u64 [sp + 896] = 0\n 32301: u32 [sp + 832] = 0x20\n 32306: i32 a1 = sp + 0x360\n 32310: i32 a3 = sp + 0x380\n 32314: i32 a4 = sp + 0x340\n 32318: a2 = 0xffffffffffffffff\n 32321: a0 = 0\n 32323: ecalli 7 // 'get_storage'\n 32325: a0 = u64 [sp + 0x388]\n 32329: a1 = u64 [sp + 0x390]\n 32333: a2 = u64 [sp + 0x380]\n 32337: a3 = u64 [sp + 0x398]\n 32341: a2 = a2 & 0xffffffffff00ffff\n 32347: a2 = a2 | 0x10000\n 32352: u64 [sp + 0x378] = s1\n 32356: a4 = u64 [sp + 0x148]\n 32360: u64 [sp + 0x370] = a4\n 32364: a4 = u64 [sp + 0x190]\n 32368: u64 [sp + 0x368] = a4\n 32372: a4 = u64 [sp + 0x198]\n 32376: u64 [sp + 0x360] = a4\n 32380: u64 [sp + 0x398] = a3\n 32384: u64 [sp + 0x390] = a1\n 32388: u64 [sp + 0x388] = a0\n 32392: u64 [sp + 0x380] = a2\n 32396: i32 a1 = sp + 0x360\n 32400: i32 a3 = sp + 0x380\n 32404: a2 = 0xffffffffffffffff\n 32407: a4 = 0x20\n 32410: a0 = 0\n 32412: ecalli 13 // 'set_storage'\n 32414: a1 = 0x20\n 32417: a0 = 0\n 32419: ra = 434, jump @0\n      : @512 [@dyn 217] (gas: 67)\n 32425: a1 = u64 [sp + 0x118]\n 32429: u8 [a0 + 0x1f] = a1\n 32432: a1 = u64 [sp + 0x110]\n 32436: u8 [a0 + 0x1e] = a1\n 32439: a1 = u64 [sp + 0x108]\n 32443: u8 [a0 + 0x1d] = a1\n 32446: a1 = u64 [sp + 0x100]\n 32450: u8 [a0 + 0x1c] = a1\n 32453: a1 = u64 [sp + 0xf8]\n 32457: u8 [a0 + 0x1b] = a1\n 32460: a1 = u64 [sp + 0xf0]\n 32464: u8 [a0 + 0x1a] = a1\n 32467: a1 = u64 [sp + 0xe8]\n 32471: u8 [a0 + 0x19] = a1\n 32474: a1 = u64 [sp + 0xe0]\n 32478: u8 [a0 + 0x17] = a1\n 32481: a1 = u64 [sp + 0xd8]\n 32485: u8 [a0 + 0x16] = a1\n 32488: a1 = u64 [sp + 0xd0]\n 32492: u8 [a0 + 0x15] = a1\n 32495: a1 = u64 [sp + 0xc8]\n 32499: u8 [a0 + 0x14] = a1\n 32502: a1 = u64 [sp + 0xc0]\n 32506: u8 [a0 + 0x13] = a1\n 32509: a1 = u64 [sp + 0xb8]\n 32513: u8 [a0 + 0x12] = a1\n 32516: a1 = u64 [sp + 0xb0]\n 32520: u8 [a0 + 0x11] = a1\n 32523: a1 = u64 [sp + 0xa8]\n 32527: u8 [a0 + 0xf] = a1\n 32530: a1 = u64 [sp + 0xa0]\n 32534: u8 [a0 + 0xe] = a1\n 32537: a1 = u64 [sp + 0x98]\n 32541: u8 [a0 + 0xd] = a1\n 32544: a1 = u64 [sp + 0x90]\n 32548: u8 [a0 + 0xc] = a1\n 32551: a1 = u64 [sp + 0x88]\n 32555: u8 [a0 + 0xb] = a1\n 32558: a1 = u64 [sp + 0x80]\n 32562: u8 [a0 + 0xa] = a1\n 32565: a1 = u64 [sp + 0x78]\n 32568: u8 [a0 + 0x9] = a1\n 32571: a1 = u64 [sp + 0x70]\n 32574: u8 [a0 + 0x7] = a1\n 32577: a1 = u64 [sp + 0x68]\n 32580: u8 [a0 + 0x6] = a1\n 32583: a1 = u64 [sp + 0x60]\n 32586: u8 [a0 + 0x5] = a1\n 32589: a1 = u64 [sp + 0x58]\n 32592: u8 [a0 + 0x4] = a1\n 32595: a1 = u64 [sp + 0x50]\n 32598: u8 [a0 + 0x3] = a1\n 32601: a1 = u64 [sp + 0x48]\n 32604: u8 [a0 + 0x2] = a1\n 32607: a1 = u64 [sp + 0x40]\n 32610: u8 [a0 + 0x1] = a1\n 32613: a1 = u64 [sp + 0x168]\n 32617: u8 [a0 + 0x18] = a1\n 32620: a1 = u64 [sp + 0x170]\n 32624: u8 [a0 + 0x10] = a1\n 32627: a1 = u64 [sp + 0x178]\n 32631: u8 [a0 + 0x8] = a1\n 32634: a1 = u64 [sp + 0x180]\n 32638: u8 [a0] = a1\n 32640: a0 = 0x20\n 32643: a1 = 0x20\n 32646: ra = 436, jump @0\n      : @513 [@dyn 218] (gas: 35)\n 32652: u8 [a0 + 31] = 0x1\n 32656: u8 [a0 + 30] = 0\n 32659: u8 [a0 + 29] = 0\n 32662: u8 [a0 + 28] = 0\n 32665: u8 [a0 + 27] = 0\n 32668: u8 [a0 + 26] = 0\n 32671: u8 [a0 + 25] = 0\n 32674: u8 [a0 + 24] = 0\n 32677: u8 [a0 + 23] = 0\n 32680: u8 [a0 + 22] = 0\n 32683: u8 [a0 + 21] = 0\n 32686: u8 [a0 + 20] = 0\n 32689: u8 [a0 + 19] = 0\n 32692: u8 [a0 + 18] = 0\n 32695: u8 [a0 + 17] = 0\n 32698: u8 [a0 + 16] = 0\n 32701: u8 [a0 + 15] = 0\n 32704: u8 [a0 + 14] = 0\n 32707: u8 [a0 + 13] = 0\n 32710: u8 [a0 + 12] = 0\n 32713: u8 [a0 + 11] = 0\n 32716: u8 [a0 + 10] = 0\n 32719: u8 [a0 + 9] = 0\n 32722: u8 [a0 + 8] = 0\n 32725: u8 [a0 + 7] = 0\n 32728: u8 [a0 + 6] = 0\n 32731: u8 [a0 + 5] = 0\n 32734: u8 [a0 + 4] = 0\n 32737: u8 [a0 + 3] = 0\n 32740: u8 [a0 + 2] = 0\n 32743: u8 [a0 + 1] = 0\n 32746: u8 [a0 + 0] = 0\n 32748: a1 = 0x40\n 32751: a0 = 0\n 32753: ra = 438, jump @0\n      : @514 [@dyn 219] (gas: 5)\n 32759: i32 a0 = a0 + 0\n 32761: i32 a2 = sp + 0x380\n 32765: a1 = 0x40\n 32768: ecalli 8 // 'hash_keccak_256'\n 32770: fallthrough\n      : @515 (gas: 9)\n 32771: a0 = u64 [sp + 0x128]\n 32775: a1 = u64 [sp + 0x120]\n 32779: a0 = a0 | a1\n 32782: a1 = u64 [sp + 0x138]\n 32786: a2 = u64 [sp + 0x130]\n 32790: a1 = a1 | a2\n 32793: a0 = a0 | a1\n 32796: u64 [sp + 0x128] = a0\n 32800: jump @524 if a0 == 0\n      : @516 (gas: 78)\n 32804: a0 = u64 [sp + 0x380]\n 32808: a1 = u64 [sp + 0x388]\n 32812: a2 = u64 [sp + 0x390]\n 32816: a3 = u64 [sp + 0x398]\n 32820: a0 = reverse a0\n 32822: u64 [sp + 0x148] = a0\n 32826: a0 = reverse a1\n 32828: u64 [sp + 0x138] = a0\n 32832: a0 = reverse a2\n 32834: u64 [sp + 0x130] = a0\n 32838: a0 = reverse a3\n 32840: u64 [sp + 0x120] = a0\n 32844: a0 = u64 [sp + 0x20]\n 32847: a0 = a0 + 0x1\n 32850: a1 = a0 <u 0x1\n 32853: a2 = u64 [sp + 0x28]\n 32856: a1 = a1 + a2\n 32859: a2 = a0 | a1\n 32862: a2 = a2 <u 0x1\n 32865: a3 = u64 [sp + 0x30]\n 32868: a2 = a2 + a3\n 32871: a3 = a2 <u a3\n 32874: a4 = u64 [sp + 0x140]\n 32878: a3 = a3 + a4\n 32881: u64 [sp + 0x360] = a0\n 32885: u64 [sp + 0x368] = a1\n 32889: u64 [sp + 0x370] = a2\n 32893: u64 [sp + 0x378] = a3\n 32897: u64 [sp + 920] = 0\n 32901: u64 [sp + 912] = 0\n 32905: u64 [sp + 904] = 0\n 32909: u64 [sp + 896] = 0\n 32913: u32 [sp + 832] = 0x20\n 32918: i32 a1 = sp + 0x360\n 32922: i32 a3 = sp + 0x380\n 32926: i32 a4 = sp + 0x340\n 32930: a2 = 0xffffffffffffffff\n 32933: a0 = 0\n 32935: ecalli 7 // 'get_storage'\n 32937: s1 = u64 [sp + 0x398]\n 32941: a0 = u64 [sp + 0x390]\n 32945: u64 [sp + 0x188] = a0\n 32949: a0 = u64 [sp + 0x388]\n 32953: u64 [sp + 0x190] = a0\n 32957: a0 = u64 [sp + 0x380]\n 32961: u64 [sp + 0x198] = a0\n 32965: a0 = u64 [sp + 0x120]\n 32969: a2 = a0 + 0x3\n 32972: a0 = a2 <u a0\n 32975: a1 = u64 [sp + 0x130]\n 32979: a3 = a1 + a0\n 32982: a1 = a3 <u a1\n 32985: a1 = a0 if a0 == 0\n 32988: a0 = u64 [sp + 0x138]\n 32992: a1 = a1 + a0\n 32995: a0 = a1 <u a0\n 32998: a4 = u64 [sp + 0x148]\n 33002: a0 = a0 + a4\n 33005: u64 [sp + 0x120] = a0\n 33009: u64 [sp + 0x378] = a0\n 33013: u64 [sp + 0x130] = a1\n 33017: u64 [sp + 0x370] = a1\n 33021: u64 [sp + 0x138] = a3\n 33025: u64 [sp + 0x368] = a3\n 33029: u64 [sp + 0x140] = a2\n 33033: u64 [sp + 0x360] = a2\n 33037: u64 [sp + 920] = 0\n 33041: u64 [sp + 912] = 0\n 33045: u64 [sp + 904] = 0\n 33049: u64 [sp + 896] = 0\n 33053: u32 [sp + 832] = 0x20\n 33058: i32 a1 = sp + 0x360\n 33062: i32 a3 = sp + 0x380\n 33066: i32 a4 = sp + 0x340\n 33070: a2 = 0xffffffffffffffff\n 33073: a0 = 0\n 33075: ecalli 7 // 'get_storage'\n 33077: fallthrough\n      : @517 (gas: 20)\n 33078: a0 = u64 [sp + 0x398]\n 33082: t0 = u64 [sp + 0x380]\n 33086: a2 = u64 [sp + 0x390]\n 33090: a3 = u64 [sp + 0x388]\n 33094: a4 = a0 ^ s1\n 33097: u64 [sp + 0x148] = s1\n 33101: s1 = a0 <u s1\n 33104: a0 = u64 [sp + 0x188]\n 33108: a5 = a2 <u a0\n 33111: a5 = s1 if a4 != 0\n 33114: a1 = u64 [sp + 0x190]\n 33118: s1 = a3 ^ a1\n 33121: a3 = a3 <u a1\n 33124: a1 = u64 [sp + 0x198]\n 33128: a1 = t0 <u a1\n 33131: a1 = a3 if s1 != 0\n 33134: a0 = a0 ^ a2\n 33137: a0 = a0 | a4\n 33140: a1 = a5 if a0 != 0\n 33143: jump @539 if a1 != 0\n      : @518 (gas: 20)\n 33147: a0 = u64 [sp + 0x130]\n 33151: u64 [sp + 0x370] = a0\n 33155: a0 = u64 [sp + 0x138]\n 33159: u64 [sp + 0x368] = a0\n 33163: a0 = u64 [sp + 0x140]\n 33167: u64 [sp + 0x360] = a0\n 33171: a0 = u64 [sp + 0x120]\n 33175: u64 [sp + 0x378] = a0\n 33179: u64 [sp + 920] = 0\n 33183: u64 [sp + 912] = 0\n 33187: u64 [sp + 904] = 0\n 33191: u64 [sp + 896] = 0\n 33195: u32 [sp + 832] = 0x20\n 33200: i32 a1 = sp + 0x360\n 33204: i32 a3 = sp + 0x380\n 33208: i32 a4 = sp + 0x340\n 33212: a2 = 0xffffffffffffffff\n 33215: a0 = 0\n 33217: ecalli 7 // 'get_storage'\n 33219: fallthrough\n      : @519 (gas: 22)\n 33220: a2 = u64 [sp + 0x398]\n 33224: a3 = u64 [sp + 0x390]\n 33228: t1 = u64 [sp + 0x388]\n 33232: a1 = u64 [sp + 0x380]\n 33236: a4 = u64 [sp + 0x148]\n 33240: a0 = a2 ^ a4\n 33243: a4 = a2 <u a4\n 33246: t0 = u64 [sp + 0x188]\n 33250: a5 = a3 <u t0\n 33253: u64 [sp + 0x110] = a5\n 33257: a4 = a5 if a0 == 0\n 33260: a5 = u64 [sp + 0x190]\n 33264: t2 = t1 ^ a5\n 33267: s1 = t1 <u a5\n 33270: a5 = u64 [sp + 0x198]\n 33274: u64 [sp + 0x100] = a1\n 33278: ra = a1 <u a5\n 33281: s1 = ra if t2 == 0\n 33284: a5 = a3 ^ t0\n 33287: a0 = a0 | a5\n 33290: a4 = s1 if a0 == 0\n 33293: jump @547 if a4 != 0\n      : @520 (gas: 84)\n 33297: a0 = u64 [sp + 0x188]\n 33301: a0 = a3 - a0\n 33304: a3 = a0 - s1\n 33307: u64 [sp + 0x118] = a3\n 33311: a0 = a0 <u s1\n 33314: a3 = u64 [sp + 0x148]\n 33318: a2 = a2 - a3\n 33321: a1 = u64 [sp + 0x110]\n 33325: a2 = a2 - a1\n 33328: a2 = a2 - a0\n 33331: u64 [sp + 0x110] = a2\n 33335: a0 = u64 [sp + 0x190]\n 33339: a0 = t1 - a0\n 33342: a0 = a0 - ra\n 33345: u64 [sp + 0x108] = a0\n 33349: u32 [sp + 832] = 0x20\n 33354: a0 = u64 [sp + 0x198]\n 33358: a1 = u64 [sp + 0x100]\n 33362: a1 = a1 - a0\n 33365: u64 [sp + 0x100] = a1\n 33369: a0 = u64 [sp + 0x130]\n 33373: u64 [sp + 0x370] = a0\n 33377: a0 = u64 [sp + 0x138]\n 33381: u64 [sp + 0x368] = a0\n 33385: a0 = u64 [sp + 0x140]\n 33389: u64 [sp + 0x360] = a0\n 33393: s1 = u64 [sp + 0x120]\n 33397: u64 [sp + 0x378] = s1\n 33401: u64 [sp + 920] = 0\n 33405: u64 [sp + 912] = 0\n 33409: u64 [sp + 904] = 0\n 33413: u64 [sp + 896] = 0\n 33417: i32 a1 = sp + 0x360\n 33421: i32 a3 = sp + 0x380\n 33425: i32 a4 = sp + 0x340\n 33429: a2 = 0xffffffffffffffff\n 33432: a0 = 0\n 33434: ecalli 7 // 'get_storage'\n 33436: u64 [sp + 0x378] = s1\n 33440: a0 = u64 [sp + 0x130]\n 33444: u64 [sp + 0x370] = a0\n 33448: a0 = u64 [sp + 0x138]\n 33452: u64 [sp + 0x368] = a0\n 33456: a0 = u64 [sp + 0x140]\n 33460: u64 [sp + 0x360] = a0\n 33464: a0 = u64 [sp + 0x110]\n 33468: u64 [sp + 0x398] = a0\n 33472: a0 = u64 [sp + 0x118]\n 33476: u64 [sp + 0x390] = a0\n 33480: a0 = u64 [sp + 0x108]\n 33484: u64 [sp + 0x388] = a0\n 33488: a0 = u64 [sp + 0x100]\n 33492: u64 [sp + 0x380] = a0\n 33496: i32 a1 = sp + 0x360\n 33500: i32 a3 = sp + 0x380\n 33504: a2 = 0xffffffffffffffff\n 33507: a4 = 0x20\n 33510: a0 = 0\n 33512: ecalli 13 // 'set_storage'\n 33514: a0 = u64 [sp + 0x158]\n 33518: a0 = a0 << 0x20\n 33521: a1 = u64 [sp + 0x160]\n 33525: a1 = reverse a1\n 33527: a1 = a1 >> 0x20\n 33530: a0 = a0 | a1\n 33533: a1 = u64 [sp + 0x150]\n 33537: a1 = a1 << 0x20\n 33540: a2 = u64 [sp + 0x10]\n 33543: a1 = a1 | a2\n 33546: u64 [sp + 0x2c8] = a1\n 33550: u64 [sp + 0x2c0] = a0\n 33554: a0 = u64 [sp + 0x18]\n 33557: u32 [sp + 0x2d0] = a0\n 33561: a0 = u64 [sp + 0x148]\n 33565: u64 [sp + 0x2f8] = a0\n 33569: a0 = u64 [sp + 0x188]\n 33573: u64 [sp + 0x2f0] = a0\n 33577: a0 = u64 [sp + 0x190]\n 33581: u64 [sp + 0x2e8] = a0\n 33585: a0 = u64 [sp + 0x198]\n 33589: u64 [sp + 0x2e0] = a0\n 33593: a0 = 0\n 33595: a1 = 0\n 33597: ra = 440, jump @0\n      : @521 [@dyn 220] (gas: 4)\n 33604: u64 [sp + 0x198] = a0\n 33608: a0 = 0\n 33610: a1 = 0\n 33612: ra = 442, jump @0\n      : @522 [@dyn 221] (gas: 27)\n 33619: u32 [sp + 768] = 0\n 33623: u64 [sp + 824] = 0\n 33627: u64 [sp + 816] = 0\n 33631: u64 [sp + 808] = 0\n 33635: u64 [sp + 800] = 0\n 33639: a1 = sp + 0x2c0\n 33643: a1 = a1 << 0x20\n 33646: s1 = a1 >> 0x20\n 33649: a1 = sp + 0x2e0\n 33653: a1 = a1 << 0x20\n 33656: a1 = a1 >> 0x20\n 33659: a2 = sp + 0x320\n 33663: a2 = a2 << 0x20\n 33666: a3 = a2 | a1\n 33669: a4 = u64 [sp + 0x198]\n 33673: a4 = a4 << 0x20\n 33676: a4 = a4 >> 0x20\n 33679: a0 = a0 << 0x20\n 33682: a0 = a0 >> 0x20\n 33685: a1 = sp + 0x300\n 33689: a1 = a1 << 0x20\n 33692: a5 = a1 | a0\n 33695: a1 = 0xffffffffffffffff\n 33698: a2 = 0xffffffffffffffff\n 33701: a0 = s1\n 33703: ecalli 0 // 'call'\n 33704: fallthrough\n      : @523 (gas: 1)\n 33705: jump @546 if a0 != 0\n      : @524 (gas: 3)\n 33709: a0 = 0x40\n 33712: a1 = 0x20\n 33715: ra = 444, jump @0\n      : @525 [@dyn 222] (gas: 100)\n 33722: a1 = u8 [a0 + 0x11]\n 33725: a2 = u8 [a0 + 0x10]\n 33728: a3 = u8 [a0 + 0x12]\n 33731: a4 = u8 [a0 + 0x13]\n 33734: a1 = a1 << 0x8\n 33737: a1 = a1 | a2\n 33740: a3 = a3 << 0x10\n 33743: a4 = a4 << 0x18\n 33746: a3 = a3 | a4\n 33749: a1 = a1 | a3\n 33752: a2 = u8 [a0 + 0x15]\n 33755: a3 = u8 [a0 + 0x14]\n 33758: a4 = u8 [a0 + 0x16]\n 33761: a5 = u8 [a0 + 0x17]\n 33764: a2 = a2 << 0x8\n 33767: a2 = a2 | a3\n 33770: a4 = a4 << 0x10\n 33773: a5 = a5 << 0x18\n 33776: a4 = a4 | a5\n 33779: a2 = a2 | a4\n 33782: a2 = a2 << 0x20\n 33785: t0 = a2 | a1\n 33788: a2 = u8 [a0 + 0x1]\n 33791: a3 = u8 [a0]\n 33793: a4 = u8 [a0 + 0x2]\n 33796: a5 = u8 [a0 + 0x3]\n 33799: a2 = a2 << 0x8\n 33802: a2 = a2 | a3\n 33805: a4 = a4 << 0x10\n 33808: a5 = a5 << 0x18\n 33811: a4 = a4 | a5\n 33814: a2 = a2 | a4\n 33817: a3 = u8 [a0 + 0x5]\n 33820: a4 = u8 [a0 + 0x4]\n 33823: a5 = u8 [a0 + 0x6]\n 33826: s1 = u8 [a0 + 0x7]\n 33829: a3 = a3 << 0x8\n 33832: a3 = a3 | a4\n 33835: a5 = a5 << 0x10\n 33838: s1 = s1 << 0x18\n 33841: a5 = a5 | s1\n 33844: a3 = a3 | a5\n 33847: a3 = a3 << 0x20\n 33850: a2 = a2 | a3\n 33853: a3 = u8 [a0 + 0x19]\n 33856: a4 = u8 [a0 + 0x18]\n 33859: a5 = u8 [a0 + 0x1a]\n 33862: s1 = u8 [a0 + 0x1b]\n 33865: a3 = a3 << 0x8\n 33868: a3 = a3 | a4\n 33871: a5 = a5 << 0x10\n 33874: s1 = s1 << 0x18\n 33877: a5 = a5 | s1\n 33880: a3 = a3 | a5\n 33883: a4 = u8 [a0 + 0x1d]\n 33886: a5 = u8 [a0 + 0x1c]\n 33889: s1 = u8 [a0 + 0x1e]\n 33892: a1 = u8 [a0 + 0x1f]\n 33895: a4 = a4 << 0x8\n 33898: a4 = a4 | a5\n 33901: s1 = s1 << 0x10\n 33904: a1 = a1 << 0x18\n 33907: a1 = a1 | s1\n 33910: a1 = a1 | a4\n 33913: a1 = a1 << 0x20\n 33916: a3 = a3 | a1\n 33919: a1 = u8 [a0 + 0x9]\n 33922: a4 = u8 [a0 + 0x8]\n 33925: a5 = u8 [a0 + 0xa]\n 33928: s1 = u8 [a0 + 0xb]\n 33931: a1 = a1 << 0x8\n 33934: a1 = a1 | a4\n 33937: a5 = a5 << 0x10\n 33940: s1 = s1 << 0x18\n 33943: a5 = a5 | s1\n 33946: a1 = a1 | a5\n 33949: a4 = u8 [a0 + 0xd]\n 33952: a5 = u8 [a0 + 0xc]\n 33955: s1 = u8 [a0 + 0xe]\n 33958: a0 = u8 [a0 + 0xf]\n 33961: a4 = a4 << 0x8\n 33964: a4 = a4 | a5\n 33967: s1 = s1 << 0x10\n 33970: a0 = a0 << 0x18\n 33973: a0 = a0 | s1\n 33976: a0 = a0 | a4\n 33979: a0 = a0 << 0x20\n 33982: a0 = a0 | a1\n 33985: a0 = reverse a0\n 33987: s1 = reverse a3\n 33989: a1 = reverse a2\n 33991: a2 = reverse t0\n 33993: a1 = a1 | a2\n 33996: a2 = s1 | a0\n 33999: a2 = a2 | a1\n 34002: a2 = a2 >> 0x20\n 34005: a0 = a0 | a1\n 34008: a0 = a0 << 0x20\n 34011: a0 = a0 | a2\n 34014: jump @545 if a0 != 0\n      : @526 (gas: 7)\n 34018: a0 = u64 [sp + 0x128]\n 34022: a0 = a0 >u 0\n 34024: u64 [sp + 0x198] = a0\n 34028: i32 s1 = s1 + 0\n 34030: a1 = 0x20\n 34033: a0 = s1\n 34035: ra = 446, jump @0\n      : @527 [@dyn 223] (gas: 36)\n 34042: u8 [a0 + 30] = 0\n 34045: u8 [a0 + 29] = 0\n 34048: u8 [a0 + 28] = 0\n 34051: u8 [a0 + 27] = 0\n 34054: u8 [a0 + 26] = 0\n 34057: u8 [a0 + 25] = 0\n 34060: u8 [a0 + 24] = 0\n 34063: u8 [a0 + 23] = 0\n 34066: u8 [a0 + 22] = 0\n 34069: u8 [a0 + 21] = 0\n 34072: u8 [a0 + 20] = 0\n 34075: u8 [a0 + 19] = 0\n 34078: u8 [a0 + 18] = 0\n 34081: u8 [a0 + 17] = 0\n 34084: u8 [a0 + 16] = 0\n 34087: u8 [a0 + 15] = 0\n 34090: u8 [a0 + 14] = 0\n 34093: u8 [a0 + 13] = 0\n 34096: u8 [a0 + 12] = 0\n 34099: u8 [a0 + 11] = 0\n 34102: u8 [a0 + 10] = 0\n 34105: u8 [a0 + 9] = 0\n 34108: u8 [a0 + 8] = 0\n 34111: u8 [a0 + 7] = 0\n 34114: u8 [a0 + 6] = 0\n 34117: u8 [a0 + 5] = 0\n 34120: u8 [a0 + 4] = 0\n 34123: u8 [a0 + 3] = 0\n 34126: u8 [a0 + 2] = 0\n 34129: u8 [a0 + 1] = 0\n 34132: u8 [a0 + 0] = 0\n 34134: a1 = u64 [sp + 0x198]\n 34138: u8 [a0 + 0x1f] = a1\n 34141: a1 = 0x20\n 34144: a0 = s1\n 34146: ra = 448, jump @0\n      : @528 [@dyn 224] (gas: 34)\n 34153: a1 = u64 [0x20000]\n 34158: a2 = u64 [0x20008]\n 34163: a3 = u64 [0x20010]\n 34168: a4 = u64 [0x20018]\n 34173: u64 [sp + 0x398] = a1\n 34177: u64 [sp + 0x390] = a2\n 34181: u64 [sp + 0x388] = a3\n 34185: u64 [sp + 0x380] = a4\n 34189: a1 = u64 [sp + 0x168]\n 34193: u64 [sp + 0x3b8] = a1\n 34197: a1 = u64 [sp + 0x170]\n 34201: u64 [sp + 0x3b0] = a1\n 34205: a1 = u64 [sp + 0x178]\n 34209: u64 [sp + 0x3a8] = a1\n 34213: a1 = u64 [sp + 0x180]\n 34217: u64 [sp + 0x3a0] = a1\n 34221: a1 = u64 [sp + 0x150]\n 34225: u64 [sp + 0x3d8] = a1\n 34229: a1 = u64 [sp + 0x158]\n 34233: u64 [sp + 0x3d0] = a1\n 34237: a1 = u64 [sp + 0x38]\n 34240: u64 [sp + 0x3c8] = a1\n 34244: u64 [sp + 960] = 0\n 34248: i32 a2 = a0 + 0\n 34250: i32 a0 = sp + 0x380\n 34254: a1 = 0x3\n 34257: a3 = 0x20\n 34260: ecalli 5 // 'deposit_event'\n 34262: sp = s0 + 0xfffffffffffffc00\n 34266: ra = u64 [sp + 0x3f8]\n 34270: s0 = u64 [sp + 0x3f0]\n 34274: s1 = u64 [sp + 0x3e8]\n 34278: sp = sp + 0x400\n 34282: ret\n      : @529 (gas: 3)\n 34284: a0 = 0x40\n 34287: a1 = 0x20\n 34290: ra = 450, jump @0\n      : @530 [@dyn 225] (gas: 103)\n 34297: a1 = u8 [a0 + 0x11]\n 34300: a2 = u8 [a0 + 0x10]\n 34303: a3 = u8 [a0 + 0x12]\n 34306: a4 = u8 [a0 + 0x13]\n 34309: a1 = a1 << 0x8\n 34312: a1 = a1 | a2\n 34315: a3 = a3 << 0x10\n 34318: a4 = a4 << 0x18\n 34321: a3 = a3 | a4\n 34324: a1 = a1 | a3\n 34327: a2 = u8 [a0 + 0x15]\n 34330: a3 = u8 [a0 + 0x14]\n 34333: a4 = u8 [a0 + 0x16]\n 34336: a5 = u8 [a0 + 0x17]\n 34339: a2 = a2 << 0x8\n 34342: a2 = a2 | a3\n 34345: a4 = a4 << 0x10\n 34348: a5 = a5 << 0x18\n 34351: a4 = a4 | a5\n 34354: a2 = a2 | a4\n 34357: a2 = a2 << 0x20\n 34360: t0 = a2 | a1\n 34363: a2 = u8 [a0 + 0x1]\n 34366: a3 = u8 [a0]\n 34368: a4 = u8 [a0 + 0x2]\n 34371: a5 = u8 [a0 + 0x3]\n 34374: a2 = a2 << 0x8\n 34377: a2 = a2 | a3\n 34380: a4 = a4 << 0x10\n 34383: a5 = a5 << 0x18\n 34386: a4 = a4 | a5\n 34389: a2 = a2 | a4\n 34392: a3 = u8 [a0 + 0x5]\n 34395: a4 = u8 [a0 + 0x4]\n 34398: a5 = u8 [a0 + 0x6]\n 34401: s1 = u8 [a0 + 0x7]\n 34404: a3 = a3 << 0x8\n 34407: a3 = a3 | a4\n 34410: a5 = a5 << 0x10\n 34413: s1 = s1 << 0x18\n 34416: a5 = a5 | s1\n 34419: a3 = a3 | a5\n 34422: a3 = a3 << 0x20\n 34425: a2 = a2 | a3\n 34428: a3 = u8 [a0 + 0x19]\n 34431: a4 = u8 [a0 + 0x18]\n 34434: a5 = u8 [a0 + 0x1a]\n 34437: s1 = u8 [a0 + 0x1b]\n 34440: a3 = a3 << 0x8\n 34443: a3 = a3 | a4\n 34446: a5 = a5 << 0x10\n 34449: s1 = s1 << 0x18\n 34452: a5 = a5 | s1\n 34455: a3 = a3 | a5\n 34458: a4 = u8 [a0 + 0x1d]\n 34461: a5 = u8 [a0 + 0x1c]\n 34464: s1 = u8 [a0 + 0x1e]\n 34467: a1 = u8 [a0 + 0x1f]\n 34470: a4 = a4 << 0x8\n 34473: a4 = a4 | a5\n 34476: s1 = s1 << 0x10\n 34479: a1 = a1 << 0x18\n 34482: a1 = a1 | s1\n 34485: a1 = a1 | a4\n 34488: a1 = a1 << 0x20\n 34491: a3 = a3 | a1\n 34494: a1 = u8 [a0 + 0x9]\n 34497: a4 = u8 [a0 + 0x8]\n 34500: a5 = u8 [a0 + 0xa]\n 34503: s1 = u8 [a0 + 0xb]\n 34506: a1 = a1 << 0x8\n 34509: a1 = a1 | a4\n 34512: a5 = a5 << 0x10\n 34515: s1 = s1 << 0x18\n 34518: a5 = a5 | s1\n 34521: a1 = a1 | a5\n 34524: a4 = u8 [a0 + 0xd]\n 34527: a5 = u8 [a0 + 0xc]\n 34530: s1 = u8 [a0 + 0xe]\n 34533: a0 = u8 [a0 + 0xf]\n 34536: a4 = a4 << 0x8\n 34539: a4 = a4 | a5\n 34542: s1 = s1 << 0x10\n 34545: a0 = a0 << 0x18\n 34548: a0 = a0 | s1\n 34551: a0 = a0 | a4\n 34554: a0 = a0 << 0x20\n 34557: a0 = a0 | a1\n 34560: s1 = reverse a0\n 34562: a1 = reverse a3\n 34564: a2 = reverse a2\n 34566: a0 = reverse t0\n 34568: u64 [sp + 0x198] = a0\n 34572: u64 [sp + 0x190] = a2\n 34576: a0 = a0 | a2\n 34579: a2 = a1\n 34581: a1 = a1 | s1\n 34584: a1 = a1 | a0\n 34587: a1 = a1 >> 0x20\n 34590: a0 = a0 | s1\n 34593: a0 = a0 << 0x20\n 34596: a0 = a0 | a1\n 34599: jump @545 if a0 != 0\n      : @531 (gas: 5)\n 34603: u64 [sp + 0x188] = a2\n 34607: i32 a0 = a2 + 0\n 34609: a1 = 0x20\n 34612: u64 [sp + 0x180] = a0\n 34616: ra = 452, jump @0\n      : @532 [@dyn 226] (gas: 50)\n 34623: u8 [a0 + 31] = 0\n 34626: u8 [a0 + 30] = 0\n 34629: u8 [a0 + 29] = 0\n 34632: u8 [a0 + 28] = 0\n 34635: u8 [a0 + 27] = 0\n 34638: u8 [a0 + 26] = 0\n 34641: u8 [a0 + 25] = 0\n 34644: u8 [a0 + 24] = 0\n 34647: u8 [a0 + 23] = 0\n 34650: u8 [a0 + 22] = 0\n 34653: u8 [a0 + 21] = 0\n 34656: u8 [a0 + 20] = 0\n 34659: u8 [a0 + 19] = 0\n 34662: u8 [a0 + 18] = 0\n 34665: u8 [a0 + 17] = 0\n 34668: u8 [a0 + 16] = 0\n 34671: u8 [a0 + 15] = 0\n 34674: u8 [a0 + 14] = 0\n 34677: u8 [a0 + 13] = 0\n 34680: u8 [a0 + 12] = 0\n 34683: u8 [a0 + 11] = 0\n 34686: u8 [a0 + 10] = 0\n 34689: u8 [a0 + 9] = 0\n 34692: u8 [a0 + 8] = 0\n 34695: u8 [a0 + 7] = 0\n 34698: u8 [a0 + 6] = 0\n 34701: u8 [a0 + 5] = 0\n 34704: u8 [a0 + 4] = 0\n 34707: u8 [a0 + 3] = 0xa0\n 34712: u8 [a0 + 2] = 0x79\n 34716: u8 [a0 + 1] = 0xc3\n 34721: u8 [a0 + 0] = 0x8\n 34724: a1 = u64 [sp + 0x188]\n 34728: a0 = a1 + 0x4\n 34731: a1 = a0 <u a1\n 34734: a3 = u64 [sp + 0x198]\n 34738: a2 = a3 + a1\n 34741: a3 = a2 <u a3\n 34744: a3 = a1 if a1 == 0\n 34747: a3 = a3 + s1\n 34750: a1 = a3 <u s1\n 34753: a4 = u64 [sp + 0x190]\n 34757: a4 = a4 + a1\n 34760: u64 [sp + 0x1a8] = a2\n 34764: u64 [sp + 0x1a0] = a0\n 34768: u64 [sp + 0x1b0] = a3\n 34772: a0 = sp + 0x1c0\n 34776: a1 = sp + 0x1a0\n 34780: u64 [sp + 0x1b8] = a4\n 34784: ra = 454, jump @464\n      : @533 [@dyn 227] (gas: 5)\n 34790: a0 = u64 [sp + 0x1c8]\n 34794: t0 = u64 [sp + 0x1d8]\n 34798: t1 = u64 [sp + 0x1c0]\n 34802: a3 = u64 [sp + 0x1d0]\n 34806: jump @544\n      : @534 (gas: 3)\n 34809: a0 = 0x40\n 34812: a1 = 0x20\n 34815: ra = 456, jump @0\n      : @535 [@dyn 228] (gas: 103)\n 34822: a1 = u8 [a0 + 0x11]\n 34825: a2 = u8 [a0 + 0x10]\n 34828: a3 = u8 [a0 + 0x12]\n 34831: a4 = u8 [a0 + 0x13]\n 34834: a1 = a1 << 0x8\n 34837: a1 = a1 | a2\n 34840: a3 = a3 << 0x10\n 34843: a4 = a4 << 0x18\n 34846: a3 = a3 | a4\n 34849: a1 = a1 | a3\n 34852: a2 = u8 [a0 + 0x15]\n 34855: a3 = u8 [a0 + 0x14]\n 34858: a4 = u8 [a0 + 0x16]\n 34861: a5 = u8 [a0 + 0x17]\n 34864: a2 = a2 << 0x8\n 34867: a2 = a2 | a3\n 34870: a4 = a4 << 0x10\n 34873: a5 = a5 << 0x18\n 34876: a4 = a4 | a5\n 34879: a2 = a2 | a4\n 34882: a2 = a2 << 0x20\n 34885: t0 = a2 | a1\n 34888: a2 = u8 [a0 + 0x1]\n 34891: a3 = u8 [a0]\n 34893: a4 = u8 [a0 + 0x2]\n 34896: a5 = u8 [a0 + 0x3]\n 34899: a2 = a2 << 0x8\n 34902: a2 = a2 | a3\n 34905: a4 = a4 << 0x10\n 34908: a5 = a5 << 0x18\n 34911: a4 = a4 | a5\n 34914: a2 = a2 | a4\n 34917: a3 = u8 [a0 + 0x5]\n 34920: a4 = u8 [a0 + 0x4]\n 34923: a5 = u8 [a0 + 0x6]\n 34926: s1 = u8 [a0 + 0x7]\n 34929: a3 = a3 << 0x8\n 34932: a3 = a3 | a4\n 34935: a5 = a5 << 0x10\n 34938: s1 = s1 << 0x18\n 34941: a5 = a5 | s1\n 34944: a3 = a3 | a5\n 34947: a3 = a3 << 0x20\n 34950: a2 = a2 | a3\n 34953: a3 = u8 [a0 + 0x19]\n 34956: a4 = u8 [a0 + 0x18]\n 34959: a5 = u8 [a0 + 0x1a]\n 34962: s1 = u8 [a0 + 0x1b]\n 34965: a3 = a3 << 0x8\n 34968: a3 = a3 | a4\n 34971: a5 = a5 << 0x10\n 34974: s1 = s1 << 0x18\n 34977: a5 = a5 | s1\n 34980: a3 = a3 | a5\n 34983: a4 = u8 [a0 + 0x1d]\n 34986: a5 = u8 [a0 + 0x1c]\n 34989: s1 = u8 [a0 + 0x1e]\n 34992: a1 = u8 [a0 + 0x1f]\n 34995: a4 = a4 << 0x8\n 34998: a4 = a4 | a5\n 35001: s1 = s1 << 0x10\n 35004: a1 = a1 << 0x18\n 35007: a1 = a1 | s1\n 35010: a1 = a1 | a4\n 35013: a1 = a1 << 0x20\n 35016: a3 = a3 | a1\n 35019: a1 = u8 [a0 + 0x9]\n 35022: a4 = u8 [a0 + 0x8]\n 35025: a5 = u8 [a0 + 0xa]\n 35028: s1 = u8 [a0 + 0xb]\n 35031: a1 = a1 << 0x8\n 35034: a1 = a1 | a4\n 35037: a5 = a5 << 0x10\n 35040: s1 = s1 << 0x18\n 35043: a5 = a5 | s1\n 35046: a1 = a1 | a5\n 35049: a4 = u8 [a0 + 0xd]\n 35052: a5 = u8 [a0 + 0xc]\n 35055: s1 = u8 [a0 + 0xe]\n 35058: a0 = u8 [a0 + 0xf]\n 35061: a4 = a4 << 0x8\n 35064: a4 = a4 | a5\n 35067: s1 = s1 << 0x10\n 35070: a0 = a0 << 0x18\n 35073: a0 = a0 | s1\n 35076: a0 = a0 | a4\n 35079: a0 = a0 << 0x20\n 35082: a0 = a0 | a1\n 35085: s1 = reverse a0\n 35087: a1 = reverse a3\n 35089: a2 = reverse a2\n 35091: a0 = reverse t0\n 35093: u64 [sp + 0x198] = a0\n 35097: u64 [sp + 0x190] = a2\n 35101: a0 = a0 | a2\n 35104: a2 = a1\n 35106: a1 = a1 | s1\n 35109: a1 = a1 | a0\n 35112: a1 = a1 >> 0x20\n 35115: a0 = a0 | s1\n 35118: a0 = a0 << 0x20\n 35121: a0 = a0 | a1\n 35124: jump @545 if a0 != 0\n      : @536 (gas: 5)\n 35128: u64 [sp + 0x188] = a2\n 35132: i32 a0 = a2 + 0\n 35134: a1 = 0x20\n 35137: u64 [sp + 0x180] = a0\n 35141: ra = 458, jump @0\n      : @537 [@dyn 229] (gas: 50)\n 35148: u8 [a0 + 31] = 0\n 35151: u8 [a0 + 30] = 0\n 35154: u8 [a0 + 29] = 0\n 35157: u8 [a0 + 28] = 0\n 35160: u8 [a0 + 27] = 0\n 35163: u8 [a0 + 26] = 0\n 35166: u8 [a0 + 25] = 0\n 35169: u8 [a0 + 24] = 0\n 35172: u8 [a0 + 23] = 0\n 35175: u8 [a0 + 22] = 0\n 35178: u8 [a0 + 21] = 0\n 35181: u8 [a0 + 20] = 0\n 35184: u8 [a0 + 19] = 0\n 35187: u8 [a0 + 18] = 0\n 35190: u8 [a0 + 17] = 0\n 35193: u8 [a0 + 16] = 0\n 35196: u8 [a0 + 15] = 0\n 35199: u8 [a0 + 14] = 0\n 35202: u8 [a0 + 13] = 0\n 35205: u8 [a0 + 12] = 0\n 35208: u8 [a0 + 11] = 0\n 35211: u8 [a0 + 10] = 0\n 35214: u8 [a0 + 9] = 0\n 35217: u8 [a0 + 8] = 0\n 35220: u8 [a0 + 7] = 0\n 35223: u8 [a0 + 6] = 0\n 35226: u8 [a0 + 5] = 0\n 35229: u8 [a0 + 4] = 0\n 35232: u8 [a0 + 3] = 0xa0\n 35237: u8 [a0 + 2] = 0x79\n 35241: u8 [a0 + 1] = 0xc3\n 35246: u8 [a0 + 0] = 0x8\n 35249: a1 = u64 [sp + 0x188]\n 35253: a0 = a1 + 0x4\n 35256: a1 = a0 <u a1\n 35259: a3 = u64 [sp + 0x198]\n 35263: a2 = a3 + a1\n 35266: a3 = a2 <u a3\n 35269: a3 = a1 if a1 == 0\n 35272: a3 = a3 + s1\n 35275: a1 = a3 <u s1\n 35278: a4 = u64 [sp + 0x190]\n 35282: a4 = a4 + a1\n 35285: u64 [sp + 0x268] = a2\n 35289: u64 [sp + 0x260] = a0\n 35293: u64 [sp + 0x270] = a3\n 35297: a0 = sp + 0x280\n 35301: a1 = sp + 0x260\n 35305: u64 [sp + 0x278] = a4\n 35309: ra = 460, jump @456\n      : @538 [@dyn 230] (gas: 5)\n 35315: a0 = u64 [sp + 0x288]\n 35319: t0 = u64 [sp + 0x298]\n 35323: t1 = u64 [sp + 0x280]\n 35327: a3 = u64 [sp + 0x290]\n 35331: jump @544\n      : @539 (gas: 3)\n 35334: a0 = 0x40\n 35337: a1 = 0x20\n 35340: ra = 462, jump @0\n      : @540 [@dyn 231] (gas: 103)\n 35347: a1 = u8 [a0 + 0x11]\n 35350: a2 = u8 [a0 + 0x10]\n 35353: a3 = u8 [a0 + 0x12]\n 35356: a4 = u8 [a0 + 0x13]\n 35359: a1 = a1 << 0x8\n 35362: a1 = a1 | a2\n 35365: a3 = a3 << 0x10\n 35368: a4 = a4 << 0x18\n 35371: a3 = a3 | a4\n 35374: a1 = a1 | a3\n 35377: a2 = u8 [a0 + 0x15]\n 35380: a3 = u8 [a0 + 0x14]\n 35383: a4 = u8 [a0 + 0x16]\n 35386: a5 = u8 [a0 + 0x17]\n 35389: a2 = a2 << 0x8\n 35392: a2 = a2 | a3\n 35395: a4 = a4 << 0x10\n 35398: a5 = a5 << 0x18\n 35401: a4 = a4 | a5\n 35404: a2 = a2 | a4\n 35407: a2 = a2 << 0x20\n 35410: t0 = a2 | a1\n 35413: a2 = u8 [a0 + 0x1]\n 35416: a3 = u8 [a0]\n 35418: a4 = u8 [a0 + 0x2]\n 35421: a5 = u8 [a0 + 0x3]\n 35424: a2 = a2 << 0x8\n 35427: a2 = a2 | a3\n 35430: a4 = a4 << 0x10\n 35433: a5 = a5 << 0x18\n 35436: a4 = a4 | a5\n 35439: a2 = a2 | a4\n 35442: a3 = u8 [a0 + 0x5]\n 35445: a4 = u8 [a0 + 0x4]\n 35448: a5 = u8 [a0 + 0x6]\n 35451: s1 = u8 [a0 + 0x7]\n 35454: a3 = a3 << 0x8\n 35457: a3 = a3 | a4\n 35460: a5 = a5 << 0x10\n 35463: s1 = s1 << 0x18\n 35466: a5 = a5 | s1\n 35469: a3 = a3 | a5\n 35472: a3 = a3 << 0x20\n 35475: a2 = a2 | a3\n 35478: a3 = u8 [a0 + 0x19]\n 35481: a4 = u8 [a0 + 0x18]\n 35484: a5 = u8 [a0 + 0x1a]\n 35487: s1 = u8 [a0 + 0x1b]\n 35490: a3 = a3 << 0x8\n 35493: a3 = a3 | a4\n 35496: a5 = a5 << 0x10\n 35499: s1 = s1 << 0x18\n 35502: a5 = a5 | s1\n 35505: a3 = a3 | a5\n 35508: a4 = u8 [a0 + 0x1d]\n 35511: a5 = u8 [a0 + 0x1c]\n 35514: s1 = u8 [a0 + 0x1e]\n 35517: a1 = u8 [a0 + 0x1f]\n 35520: a4 = a4 << 0x8\n 35523: a4 = a4 | a5\n 35526: s1 = s1 << 0x10\n 35529: a1 = a1 << 0x18\n 35532: a1 = a1 | s1\n 35535: a1 = a1 | a4\n 35538: a1 = a1 << 0x20\n 35541: a3 = a3 | a1\n 35544: a1 = u8 [a0 + 0x9]\n 35547: a4 = u8 [a0 + 0x8]\n 35550: a5 = u8 [a0 + 0xa]\n 35553: s1 = u8 [a0 + 0xb]\n 35556: a1 = a1 << 0x8\n 35559: a1 = a1 | a4\n 35562: a5 = a5 << 0x10\n 35565: s1 = s1 << 0x18\n 35568: a5 = a5 | s1\n 35571: a1 = a1 | a5\n 35574: a4 = u8 [a0 + 0xd]\n 35577: a5 = u8 [a0 + 0xc]\n 35580: s1 = u8 [a0 + 0xe]\n 35583: a0 = u8 [a0 + 0xf]\n 35586: a4 = a4 << 0x8\n 35589: a4 = a4 | a5\n 35592: s1 = s1 << 0x10\n 35595: a0 = a0 << 0x18\n 35598: a0 = a0 | s1\n 35601: a0 = a0 | a4\n 35604: a0 = a0 << 0x20\n 35607: a0 = a0 | a1\n 35610: s1 = reverse a0\n 35612: a1 = reverse a3\n 35614: a2 = reverse a2\n 35616: a0 = reverse t0\n 35618: u64 [sp + 0x198] = a0\n 35622: u64 [sp + 0x190] = a2\n 35626: a0 = a0 | a2\n 35629: a2 = a1\n 35631: a1 = a1 | s1\n 35634: a1 = a1 | a0\n 35637: a1 = a1 >> 0x20\n 35640: a0 = a0 | s1\n 35643: a0 = a0 << 0x20\n 35646: a0 = a0 | a1\n 35649: jump @545 if a0 != 0\n      : @541 (gas: 5)\n 35653: u64 [sp + 0x188] = a2\n 35657: i32 a0 = a2 + 0\n 35659: a1 = 0x20\n 35662: u64 [sp + 0x180] = a0\n 35666: ra = 464, jump @0\n      : @542 [@dyn 232] (gas: 50)\n 35673: u8 [a0 + 31] = 0\n 35676: u8 [a0 + 30] = 0\n 35679: u8 [a0 + 29] = 0\n 35682: u8 [a0 + 28] = 0\n 35685: u8 [a0 + 27] = 0\n 35688: u8 [a0 + 26] = 0\n 35691: u8 [a0 + 25] = 0\n 35694: u8 [a0 + 24] = 0\n 35697: u8 [a0 + 23] = 0\n 35700: u8 [a0 + 22] = 0\n 35703: u8 [a0 + 21] = 0\n 35706: u8 [a0 + 20] = 0\n 35709: u8 [a0 + 19] = 0\n 35712: u8 [a0 + 18] = 0\n 35715: u8 [a0 + 17] = 0\n 35718: u8 [a0 + 16] = 0\n 35721: u8 [a0 + 15] = 0\n 35724: u8 [a0 + 14] = 0\n 35727: u8 [a0 + 13] = 0\n 35730: u8 [a0 + 12] = 0\n 35733: u8 [a0 + 11] = 0\n 35736: u8 [a0 + 10] = 0\n 35739: u8 [a0 + 9] = 0\n 35742: u8 [a0 + 8] = 0\n 35745: u8 [a0 + 7] = 0\n 35748: u8 [a0 + 6] = 0\n 35751: u8 [a0 + 5] = 0\n 35754: u8 [a0 + 4] = 0\n 35757: u8 [a0 + 3] = 0xa0\n 35762: u8 [a0 + 2] = 0x79\n 35766: u8 [a0 + 1] = 0xc3\n 35771: u8 [a0 + 0] = 0x8\n 35774: a1 = u64 [sp + 0x188]\n 35778: a0 = a1 + 0x4\n 35781: a1 = a0 <u a1\n 35784: a3 = u64 [sp + 0x198]\n 35788: a2 = a3 + a1\n 35791: a3 = a2 <u a3\n 35794: a3 = a1 if a1 == 0\n 35797: a3 = a3 + s1\n 35800: a1 = a3 <u s1\n 35803: a4 = u64 [sp + 0x190]\n 35807: a4 = a4 + a1\n 35810: u64 [sp + 0x1e8] = a2\n 35814: u64 [sp + 0x1e0] = a0\n 35818: u64 [sp + 0x1f0] = a3\n 35822: a0 = sp + 0x200\n 35826: a1 = sp + 0x1e0\n 35830: u64 [sp + 0x1f8] = a4\n 35834: ra = 466, jump @472\n      : @543 [@dyn 233] (gas: 5)\n 35840: a0 = u64 [sp + 0x208]\n 35844: t0 = u64 [sp + 0x218]\n 35848: t1 = u64 [sp + 0x200]\n 35852: a3 = u64 [sp + 0x210]\n 35856: fallthrough\n      : @544 (gas: 26)\n 35857: a1 = u64 [sp + 0x198]\n 35861: a4 = a0 ^ a1\n 35864: a5 = a0 <u a1\n 35867: t2 = a1\n 35869: a2 = u64 [sp + 0x188]\n 35873: a1 = t1 <u a2\n 35876: a5 = a1 if a4 == 0\n 35879: a4 = a3 - s1\n 35882: a3 = a3 <u s1\n 35885: s1 = u64 [sp + 0x190]\n 35889: s1 = t0 - s1\n 35892: s1 = s1 - a3\n 35895: a3 = a4 <u a5\n 35898: s1 = s1 - a3\n 35901: a4 = a4 - a5\n 35904: a0 = a0 - t2\n 35907: a1 = a0 - a1\n 35910: a0 = t1 - a2\n 35913: a1 = a1 | s1\n 35916: a2 = a0 | a4\n 35919: a2 = a2 | a1\n 35922: a1 = a1 | a4\n 35925: a2 = a2 >> 0x20\n 35928: a1 = a1 << 0x20\n 35931: a1 = a1 | a2\n 35934: jump @551 if a1 == 0\n      : @545 (gas: 1)\n 35937: trap\n      : @546 (gas: 1)\n 35938: ra = 468, jump @480\n      : @547 [@dyn 234] (gas: 8)\n 35944: u64 [sp + 592] = 0\n 35948: u64 [sp + 584] = 0\n 35952: u64 [sp + 576] = 0\n 35956: a0 = 0x4e487b7100000000\n 35966: a1 = sp + 0x240\n 35970: u64 [sp + 0x258] = a0\n 35974: a0 = 0\n 35976: ra = 470, jump @23\n      : @548 [@dyn 235] (gas: 7)\n 35983: u64 [sp + 568] = 0\n 35987: u64 [sp + 560] = 0\n 35991: u64 [sp + 544] = 0x11\n 35996: a0 = 0x4\n 35999: a1 = sp + 0x220\n 36003: u64 [sp + 552] = 0\n 36007: ra = 472, jump @23\n      : @549 [@dyn 236] (gas: 3)\n 36014: a1 = 0x24\n 36017: a0 = 0\n 36019: ra = 474, jump @0\n      : @550 [@dyn 237] (gas: 5)\n 36026: i32 a1 = a0 + 0\n 36028: a0 = 0x1\n 36031: a2 = 0x24\n 36034: ecalli 11 // 'seal_return'\n 36036: fallthrough\n      : @551 (gas: 4)\n 36037: i32 s1 = a0 + 0\n 36039: a0 = u64 [sp + 0x180]\n 36043: a1 = s1\n 36045: ra = 476, jump @0\n      : @552 [@dyn 238] (gas: 6)\n 36052: i32 a1 = a0 + 0\n 36054: a0 = 0x1\n 36057: a2 = s1\n 36059: ra = 0x1de\n 36063: ecalli 11 // 'seal_return'\n 36065: fallthrough\n      : @553 [@dyn 239] (gas: 36)\n 36066: sp = sp + 0xffffffffffffff70\n 36070: u64 [sp + 0x88] = ra\n 36074: u64 [sp + 0x80] = s0\n 36078: u64 [sp + 0x78] = s1\n 36081: s0 = sp + 0x90\n 36085: sp = sp & 0xfffffffffffffff0\n 36088: a3 = u64 [a0]\n 36090: u64 [sp + 0x8] = a3\n 36093: t1 = u64 [a0 + 0x8]\n 36096: t2 = u64 [a0 + 0x10]\n 36099: ra = u64 [a0 + 0x18]\n 36102: t0 = u64 [a1]\n 36104: a4 = u64 [a1 + 0x8]\n 36107: a5 = u64 [a1 + 0x10]\n 36110: a3 = u64 [a1 + 0x18]\n 36113: s1 = u64 [a2]\n 36115: a1 = u64 [a2 + 0x8]\n 36118: a0 = u64 [a2 + 0x10]\n 36121: a2 = u64 [a2 + 0x18]\n 36124: u64 [sp + 0x28] = a2\n 36127: u64 [sp + 0x20] = a0\n 36130: u64 [sp + 0x18] = a1\n 36133: u64 [sp + 0x10] = s1\n 36136: u64 [sp + 0x48] = a3\n 36139: u64 [sp + 0x40] = a5\n 36142: u64 [sp + 0x38] = a4\n 36145: u64 [sp + 0x30] = t0\n 36148: u64 [sp + 0x68] = ra\n 36151: u64 [sp + 0x60] = t2\n 36154: u64 [sp + 0x58] = t1\n 36157: a0 = sp + 0x50\n 36160: a1 = sp + 0x30\n 36163: a2 = sp + 0x10\n 36166: a3 = u64 [sp + 0x8]\n 36169: u64 [sp + 0x50] = a3\n 36172: ra = 480, jump @440\n      : @554 [@dyn 240] (gas: 6)\n 36178: sp = s0 + 0xffffffffffffff70\n 36182: ra = u64 [sp + 0x88]\n 36186: s0 = u64 [sp + 0x80]\n 36190: s1 = u64 [sp + 0x78]\n 36193: sp = sp + 0x90\n 36197: ret\n      : @555 (gas: 17)\n 36199: sp = sp + 0xffffffffffffffa0\n 36202: u64 [sp + 0x58] = ra\n 36205: u64 [sp + 0x50] = s0\n 36208: u64 [sp + 0x48] = s1\n 36211: a3 = u64 [a1 + 0x18]\n 36214: a4 = u64 [a1 + 0x10]\n 36217: a5 = u64 [a1 + 0x8]\n 36220: s1 = u64 [a1]\n 36222: a1 = a5 | a3\n 36225: a2 = s1 | a4\n 36228: a2 = a2 | a1\n 36231: a2 = a2 >> 0x20\n 36234: a1 = a1 | a4\n 36237: a1 = a1 << 0x20\n 36240: a1 = a1 | a2\n 36243: u64 [sp + 0x28] = a0\n 36246: jump @562 if a1 != 0\n      : @556 (gas: 19)\n 36250: a0 = s1 + 0x20\n 36253: u64 [sp + 0x30] = a0\n 36256: a0 = a0 <u s1\n 36259: a1 = a5 + a0\n 36262: u64 [sp + 0x40] = a1\n 36265: u64 [sp + 0x8] = a5\n 36268: s0 = a1 <u a5\n 36271: s0 = a0 if a0 == 0\n 36274: s0 = s0 + a4\n 36277: u64 [sp + 0x10] = a4\n 36280: a0 = s0 <u a4\n 36283: u64 [sp + 0x18] = a3\n 36286: a0 = a0 + a3\n 36289: u64 [sp + 0x38] = a0\n 36292: u64 [sp] = s1\n 36294: i32 a0 = s1 + 0\n 36296: a1 = 0x20\n 36299: s1 = 0x20\n 36302: ra = 482, jump @0\n      : @557 [@dyn 241] (gas: 45)\n 36309: u8 [a0 + 0x1f] = s1\n 36312: a1 = u64 [sp + 0x30]\n 36315: s1 = a1\n 36317: a1 = a1 | s0\n 36320: a2 = u64 [sp + 0x40]\n 36323: a4 = u64 [sp + 0x38]\n 36326: a2 = a2 | a4\n 36329: a1 = a1 | a2\n 36332: a1 = a1 >> 0x20\n 36335: u64 [sp + 0x20] = s0\n 36338: a2 = a2 | s0\n 36341: a2 = a2 << 0x20\n 36344: a1 = a1 | a2\n 36347: u8 [a0 + 30] = 0\n 36350: u8 [a0 + 29] = 0\n 36353: u8 [a0 + 28] = 0\n 36356: u8 [a0 + 27] = 0\n 36359: u8 [a0 + 26] = 0\n 36362: u8 [a0 + 25] = 0\n 36365: u8 [a0 + 24] = 0\n 36368: u8 [a0 + 23] = 0\n 36371: u8 [a0 + 22] = 0\n 36374: u8 [a0 + 21] = 0\n 36377: u8 [a0 + 20] = 0\n 36380: u8 [a0 + 19] = 0\n 36383: u8 [a0 + 18] = 0\n 36386: u8 [a0 + 17] = 0\n 36389: u8 [a0 + 16] = 0\n 36392: u8 [a0 + 15] = 0\n 36395: u8 [a0 + 14] = 0\n 36398: u8 [a0 + 13] = 0\n 36401: u8 [a0 + 12] = 0\n 36404: u8 [a0 + 11] = 0\n 36407: u8 [a0 + 10] = 0\n 36410: u8 [a0 + 9] = 0\n 36413: u8 [a0 + 8] = 0\n 36416: u8 [a0 + 7] = 0\n 36419: u8 [a0 + 6] = 0\n 36422: u8 [a0 + 5] = 0\n 36425: u8 [a0 + 4] = 0\n 36428: u8 [a0 + 3] = 0\n 36431: u8 [a0 + 2] = 0\n 36434: u8 [a0 + 1] = 0\n 36437: u8 [a0 + 0] = 0\n 36439: jump @562 if a1 != 0\n      : @558 (gas: 4)\n 36443: i32 s0 = s1 + 0\n 36445: a1 = 0x20\n 36448: a0 = s0\n 36450: ra = 484, jump @0\n      : @559 [@dyn 242] (gas: 41)\n 36457: u8 [a0 + 31] = 0x11\n 36461: u8 [a0 + 30] = 0\n 36464: u8 [a0 + 29] = 0\n 36467: u8 [a0 + 28] = 0\n 36470: u8 [a0 + 27] = 0\n 36473: u8 [a0 + 26] = 0\n 36476: u8 [a0 + 25] = 0\n 36479: u8 [a0 + 24] = 0\n 36482: u8 [a0 + 23] = 0\n 36485: u8 [a0 + 22] = 0\n 36488: u8 [a0 + 21] = 0\n 36491: u8 [a0 + 20] = 0\n 36494: u8 [a0 + 19] = 0\n 36497: u8 [a0 + 18] = 0\n 36500: u8 [a0 + 17] = 0\n 36503: u8 [a0 + 16] = 0\n 36506: u8 [a0 + 15] = 0\n 36509: u8 [a0 + 14] = 0\n 36512: u8 [a0 + 13] = 0\n 36515: u8 [a0 + 12] = 0\n 36518: u8 [a0 + 11] = 0\n 36521: u8 [a0 + 10] = 0\n 36524: u8 [a0 + 9] = 0\n 36527: u8 [a0 + 8] = 0\n 36530: u8 [a0 + 7] = 0\n 36533: u8 [a0 + 6] = 0\n 36536: u8 [a0 + 5] = 0\n 36539: u8 [a0 + 4] = 0\n 36542: u8 [a0 + 3] = 0\n 36545: u8 [a0 + 2] = 0\n 36548: u8 [a0 + 1] = 0\n 36551: a1 = u64 [sp + 0x20]\n 36554: a2 = u64 [sp + 0x38]\n 36557: a1 = a1 | a2\n 36560: a2 = 0xffffffe0\n 36570: a2 = s1 <u a2\n 36573: a3 = u64 [sp + 0x40]\n 36576: a2 = 0 if a3 != 0\n 36578: a2 = 0 if a1 != 0\n 36580: u8 [a0 + 0] = 0\n 36582: jump @562 if a2 == 0\n      : @560 (gas: 3)\n 36586: i32 a0 = s0 + 0x20\n 36589: a1 = 0x20\n 36592: ra = 486, jump @0\n      : @561 [@dyn 243] (gas: 55)\n 36599: u8 [a0 + 31] = 0\n 36602: u8 [a0 + 30] = 0\n 36605: u8 [a0 + 29] = 0\n 36608: u8 [a0 + 28] = 0\n 36611: u8 [a0 + 27] = 0\n 36614: u8 [a0 + 26] = 0\n 36617: u8 [a0 + 25] = 0\n 36620: u8 [a0 + 24] = 0\n 36623: u8 [a0 + 23] = 0\n 36626: u8 [a0 + 22] = 0\n 36629: u8 [a0 + 21] = 0\n 36632: u8 [a0 + 20] = 0\n 36635: u8 [a0 + 19] = 0\n 36638: u8 [a0 + 18] = 0\n 36641: u8 [a0 + 17] = 0\n 36644: u8 [a0 + 16] = 0x74\n 36648: u8 [a0 + 15] = 0x65\n 36652: u8 [a0 + 14] = 0x79\n 36656: a5 = 0x20\n 36659: u8 [a0 + 0xd] = a5\n 36662: u8 [a0 + 12] = 0x64\n 36666: u8 [a0 + 11] = 0x65\n 36670: u8 [a0 + 10] = 0x72\n 36674: u8 [a0 + 9] = 0x65\n 36678: u8 [a0 + 8] = 0x76\n 36682: u8 [a0 + 7] = 0x69\n 36686: u8 [a0 + 6] = 0x6c\n 36690: u8 [a0 + 5] = 0x65\n 36694: u8 [a0 + 4] = 0x64\n 36698: u8 [a0 + 0x3] = a5\n 36701: u8 [a0 + 2] = 0x74\n 36705: u8 [a0 + 1] = 0x6f\n 36709: u8 [a0 + 0] = 0x6e\n 36712: a1 = u64 [sp]\n 36714: a0 = a1 + 0x60\n 36717: a1 = a0 <u a1\n 36720: a3 = u64 [sp + 0x8]\n 36723: a2 = a3 + a1\n 36726: a3 = a2 <u a3\n 36729: a3 = a1 if a1 == 0\n 36732: a1 = u64 [sp + 0x10]\n 36735: a3 = a3 + a1\n 36738: a1 = a3 <u a1\n 36741: a4 = u64 [sp + 0x18]\n 36744: a1 = a1 + a4\n 36747: a4 = u64 [sp + 0x28]\n 36750: u64 [a4] = a0\n 36752: u64 [a4 + 0x8] = a2\n 36755: u64 [a4 + 0x10] = a3\n 36758: u64 [a4 + 0x18] = a1\n 36761: ra = u64 [sp + 0x58]\n 36764: s0 = u64 [sp + 0x50]\n 36767: s1 = u64 [sp + 0x48]\n 36770: sp = sp + 0x60\n 36773: ret\n      : @562 (gas: 1)\n 36775: trap\n      : @563 (gas: 17)\n 36776: sp = sp + 0xffffffffffffffa0\n 36779: u64 [sp + 0x58] = ra\n 36782: u64 [sp + 0x50] = s0\n 36785: u64 [sp + 0x48] = s1\n 36788: a3 = u64 [a1 + 0x18]\n 36791: a4 = u64 [a1 + 0x10]\n 36794: a5 = u64 [a1 + 0x8]\n 36797: s1 = u64 [a1]\n 36799: a1 = a5 | a3\n 36802: a2 = s1 | a4\n 36805: a2 = a2 | a1\n 36808: a2 = a2 >> 0x20\n 36811: a1 = a1 | a4\n 36814: a1 = a1 << 0x20\n 36817: a1 = a1 | a2\n 36820: u64 [sp + 0x28] = a0\n 36823: jump @570 if a1 != 0\n      : @564 (gas: 19)\n 36827: a0 = s1 + 0x20\n 36830: u64 [sp + 0x30] = a0\n 36833: a0 = a0 <u s1\n 36836: a1 = a5 + a0\n 36839: u64 [sp + 0x40] = a1\n 36842: u64 [sp + 0x8] = a5\n 36845: s0 = a1 <u a5\n 36848: s0 = a0 if a0 == 0\n 36851: s0 = s0 + a4\n 36854: u64 [sp + 0x10] = a4\n 36857: a0 = s0 <u a4\n 36860: u64 [sp + 0x18] = a3\n 36863: a0 = a0 + a3\n 36866: u64 [sp + 0x38] = a0\n 36869: u64 [sp] = s1\n 36871: i32 a0 = s1 + 0\n 36873: a1 = 0x20\n 36876: s1 = 0x20\n 36879: ra = 488, jump @0\n      : @565 [@dyn 244] (gas: 45)\n 36886: u8 [a0 + 0x1f] = s1\n 36889: a1 = u64 [sp + 0x30]\n 36892: s1 = a1\n 36894: a1 = a1 | s0\n 36897: a2 = u64 [sp + 0x40]\n 36900: a4 = u64 [sp + 0x38]\n 36903: a2 = a2 | a4\n 36906: a1 = a1 | a2\n 36909: a1 = a1 >> 0x20\n 36912: u64 [sp + 0x20] = s0\n 36915: a2 = a2 | s0\n 36918: a2 = a2 << 0x20\n 36921: a1 = a1 | a2\n 36924: u8 [a0 + 30] = 0\n 36927: u8 [a0 + 29] = 0\n 36930: u8 [a0 + 28] = 0\n 36933: u8 [a0 + 27] = 0\n 36936: u8 [a0 + 26] = 0\n 36939: u8 [a0 + 25] = 0\n 36942: u8 [a0 + 24] = 0\n 36945: u8 [a0 + 23] = 0\n 36948: u8 [a0 + 22] = 0\n 36951: u8 [a0 + 21] = 0\n 36954: u8 [a0 + 20] = 0\n 36957: u8 [a0 + 19] = 0\n 36960: u8 [a0 + 18] = 0\n 36963: u8 [a0 + 17] = 0\n 36966: u8 [a0 + 16] = 0\n 36969: u8 [a0 + 15] = 0\n 36972: u8 [a0 + 14] = 0\n 36975: u8 [a0 + 13] = 0\n 36978: u8 [a0 + 12] = 0\n 36981: u8 [a0 + 11] = 0\n 36984: u8 [a0 + 10] = 0\n 36987: u8 [a0 + 9] = 0\n 36990: u8 [a0 + 8] = 0\n 36993: u8 [a0 + 7] = 0\n 36996: u8 [a0 + 6] = 0\n 36999: u8 [a0 + 5] = 0\n 37002: u8 [a0 + 4] = 0\n 37005: u8 [a0 + 3] = 0\n 37008: u8 [a0 + 2] = 0\n 37011: u8 [a0 + 1] = 0\n 37014: u8 [a0 + 0] = 0\n 37016: jump @570 if a1 != 0\n      : @566 (gas: 4)\n 37020: i32 s0 = s1 + 0\n 37022: a1 = 0x20\n 37025: a0 = s0\n 37027: ra = 490, jump @0\n      : @567 [@dyn 245] (gas: 41)\n 37034: u8 [a0 + 31] = 0x10\n 37038: u8 [a0 + 30] = 0\n 37041: u8 [a0 + 29] = 0\n 37044: u8 [a0 + 28] = 0\n 37047: u8 [a0 + 27] = 0\n 37050: u8 [a0 + 26] = 0\n 37053: u8 [a0 + 25] = 0\n 37056: u8 [a0 + 24] = 0\n 37059: u8 [a0 + 23] = 0\n 37062: u8 [a0 + 22] = 0\n 37065: u8 [a0 + 21] = 0\n 37068: u8 [a0 + 20] = 0\n 37071: u8 [a0 + 19] = 0\n 37074: u8 [a0 + 18] = 0\n 37077: u8 [a0 + 17] = 0\n 37080: u8 [a0 + 16] = 0\n 37083: u8 [a0 + 15] = 0\n 37086: u8 [a0 + 14] = 0\n 37089: u8 [a0 + 13] = 0\n 37092: u8 [a0 + 12] = 0\n 37095: u8 [a0 + 11] = 0\n 37098: u8 [a0 + 10] = 0\n 37101: u8 [a0 + 9] = 0\n 37104: u8 [a0 + 8] = 0\n 37107: u8 [a0 + 7] = 0\n 37110: u8 [a0 + 6] = 0\n 37113: u8 [a0 + 5] = 0\n 37116: u8 [a0 + 4] = 0\n 37119: u8 [a0 + 3] = 0\n 37122: u8 [a0 + 2] = 0\n 37125: u8 [a0 + 1] = 0\n 37128: a1 = u64 [sp + 0x20]\n 37131: a2 = u64 [sp + 0x38]\n 37134: a1 = a1 | a2\n 37137: a2 = 0xffffffe0\n 37147: a2 = s1 <u a2\n 37150: a3 = u64 [sp + 0x40]\n 37153: a2 = 0 if a3 != 0\n 37155: a2 = 0 if a1 != 0\n 37157: u8 [a0 + 0] = 0\n 37159: jump @570 if a2 == 0\n      : @568 (gas: 3)\n 37163: i32 a0 = s0 + 0x20\n 37166: a1 = 0x20\n 37169: ra = 492, jump @0\n      : @569 [@dyn 246] (gas: 54)\n 37176: u8 [a0 + 31] = 0\n 37179: u8 [a0 + 30] = 0\n 37182: u8 [a0 + 29] = 0\n 37185: u8 [a0 + 28] = 0\n 37188: u8 [a0 + 27] = 0\n 37191: u8 [a0 + 26] = 0\n 37194: u8 [a0 + 25] = 0\n 37197: u8 [a0 + 24] = 0\n 37200: u8 [a0 + 23] = 0\n 37203: u8 [a0 + 22] = 0\n 37206: u8 [a0 + 21] = 0\n 37209: u8 [a0 + 20] = 0\n 37212: u8 [a0 + 19] = 0\n 37215: u8 [a0 + 18] = 0\n 37218: u8 [a0 + 17] = 0\n 37221: u8 [a0 + 16] = 0\n 37224: u8 [a0 + 15] = 0x64\n 37228: u8 [a0 + 14] = 0x65\n 37232: u8 [a0 + 13] = 0x74\n 37236: u8 [a0 + 12] = 0x75\n 37240: u8 [a0 + 11] = 0x70\n 37244: u8 [a0 + 10] = 0x73\n 37248: u8 [a0 + 9] = 0x69\n 37252: u8 [a0 + 8] = 0x64\n 37256: u8 [a0 + 7] = 0x20\n 37260: u8 [a0 + 6] = 0x79\n 37264: u8 [a0 + 5] = 0x64\n 37268: u8 [a0 + 4] = 0x61\n 37272: u8 [a0 + 3] = 0x65\n 37276: u8 [a0 + 2] = 0x72\n 37280: u8 [a0 + 1] = 0x6c\n 37284: u8 [a0 + 0] = 0x61\n 37287: a1 = u64 [sp]\n 37289: a0 = a1 + 0x60\n 37292: a1 = a0 <u a1\n 37295: a3 = u64 [sp + 0x8]\n 37298: a2 = a3 + a1\n 37301: a3 = a2 <u a3\n 37304: a3 = a1 if a1 == 0\n 37307: a1 = u64 [sp + 0x10]\n 37310: a3 = a3 + a1\n 37313: a1 = a3 <u a1\n 37316: a4 = u64 [sp + 0x18]\n 37319: a1 = a1 + a4\n 37322: a4 = u64 [sp + 0x28]\n 37325: u64 [a4] = a0\n 37327: u64 [a4 + 0x8] = a2\n 37330: u64 [a4 + 0x10] = a3\n 37333: u64 [a4 + 0x18] = a1\n 37336: ra = u64 [sp + 0x58]\n 37339: s0 = u64 [sp + 0x50]\n 37342: s1 = u64 [sp + 0x48]\n 37345: sp = sp + 0x60\n 37348: ret\n      : @570 (gas: 1)\n 37350: trap\n      : @571 [@dyn 247] (gas: 74)\n 37351: a2 = reverse s1\n 37353: a1 = u64 [sp + 0x48]\n 37356: a3 = reverse a1\n 37358: a1 = u64 [sp + 0x50]\n 37361: a5 = reverse a1\n 37363: a1 = u64 [sp + 0x58]\n 37366: a4 = reverse a1\n 37368: u8 [a0 + 0x18] = a4\n 37371: u8 [a0 + 0x10] = a5\n 37374: u8 [a0 + 0x8] = a3\n 37377: u8 [a0] = a2\n 37379: a1 = a4 >> 0x38\n 37382: u8 [a0 + 0x1f] = a1\n 37385: a1 = a4 >> 0x30\n 37388: u8 [a0 + 0x1e] = a1\n 37391: a1 = a4 >> 0x28\n 37394: u8 [a0 + 0x1d] = a1\n 37397: a1 = a4 >> 0x20\n 37400: u8 [a0 + 0x1c] = a1\n 37403: a1 = a4 >> 0x18\n 37406: u8 [a0 + 0x1b] = a1\n 37409: a1 = a4 >> 0x10\n 37412: u8 [a0 + 0x1a] = a1\n 37415: u64 [sp + 0x18] = a4\n 37418: a1 = a4 >> 0x8\n 37421: u8 [a0 + 0x19] = a1\n 37424: a1 = a5 >> 0x38\n 37427: u8 [a0 + 0x17] = a1\n 37430: a1 = a5 >> 0x30\n 37433: u8 [a0 + 0x16] = a1\n 37436: a1 = a5 >> 0x28\n 37439: u8 [a0 + 0x15] = a1\n 37442: a1 = a5 >> 0x20\n 37445: u8 [a0 + 0x14] = a1\n 37448: a1 = a5 >> 0x18\n 37451: u8 [a0 + 0x13] = a1\n 37454: a1 = a5 >> 0x10\n 37457: u8 [a0 + 0x12] = a1\n 37460: u64 [sp + 0x10] = a5\n 37463: a1 = a5 >> 0x8\n 37466: u8 [a0 + 0x11] = a1\n 37469: a1 = a3 >> 0x38\n 37472: u8 [a0 + 0xf] = a1\n 37475: a1 = a3 >> 0x30\n 37478: u8 [a0 + 0xe] = a1\n 37481: a1 = a3 >> 0x28\n 37484: u8 [a0 + 0xd] = a1\n 37487: a1 = a3 >> 0x20\n 37490: u8 [a0 + 0xc] = a1\n 37493: a1 = a3 >> 0x18\n 37496: u8 [a0 + 0xb] = a1\n 37499: a1 = a3 >> 0x10\n 37502: u8 [a0 + 0xa] = a1\n 37505: u64 [sp + 0x20] = a3\n 37508: a1 = a3 >> 0x8\n 37511: u8 [a0 + 0x9] = a1\n 37514: a1 = a2 >> 0x38\n 37517: u8 [a0 + 0x7] = a1\n 37520: a1 = a2 >> 0x30\n 37523: u8 [a0 + 0x6] = a1\n 37526: a1 = a2 >> 0x28\n 37529: u8 [a0 + 0x5] = a1\n 37532: a1 = a2 >> 0x20\n 37535: u8 [a0 + 0x4] = a1\n 37538: a1 = a2 >> 0x18\n 37541: u8 [a0 + 0x3] = a1\n 37544: a1 = a2 >> 0x10\n 37547: u8 [a0 + 0x2] = a1\n 37550: u64 [sp + 0x28] = a2\n 37553: a1 = a2 >> 0x8\n 37556: u8 [a0 + 0x1] = a1\n 37559: a0 = 0x20\n 37562: a1 = 0x20\n 37565: ra = 496, jump @0\n      : @572 [@dyn 248] (gas: 35)\n 37572: u8 [a0 + 31] = 0x2\n 37576: u8 [a0 + 30] = 0\n 37579: u8 [a0 + 29] = 0\n 37582: u8 [a0 + 28] = 0\n 37585: u8 [a0 + 27] = 0\n 37588: u8 [a0 + 26] = 0\n 37591: u8 [a0 + 25] = 0\n 37594: u8 [a0 + 24] = 0\n 37597: u8 [a0 + 23] = 0\n 37600: u8 [a0 + 22] = 0\n 37603: u8 [a0 + 21] = 0\n 37606: u8 [a0 + 20] = 0\n 37609: u8 [a0 + 19] = 0\n 37612: u8 [a0 + 18] = 0\n 37615: u8 [a0 + 17] = 0\n 37618: u8 [a0 + 16] = 0\n 37621: u8 [a0 + 15] = 0\n 37624: u8 [a0 + 14] = 0\n 37627: u8 [a0 + 13] = 0\n 37630: u8 [a0 + 12] = 0\n 37633: u8 [a0 + 11] = 0\n 37636: u8 [a0 + 10] = 0\n 37639: u8 [a0 + 9] = 0\n 37642: u8 [a0 + 8] = 0\n 37645: u8 [a0 + 7] = 0\n 37648: u8 [a0 + 6] = 0\n 37651: u8 [a0 + 5] = 0\n 37654: u8 [a0 + 4] = 0\n 37657: u8 [a0 + 3] = 0\n 37660: u8 [a0 + 2] = 0\n 37663: u8 [a0 + 1] = 0\n 37666: u8 [a0 + 0] = 0\n 37668: a1 = 0x40\n 37671: a0 = 0\n 37673: ra = 498, jump @0\n      : @573 [@dyn 249] (gas: 31)\n 37680: i32 a0 = a0 + 0\n 37682: i32 a2 = sp + 0x160\n 37686: a1 = 0x40\n 37689: ecalli 8 // 'hash_keccak_256'\n 37691: a0 = u64 [sp + 0x160]\n 37695: u64 [sp + 0x58] = a0\n 37698: a0 = u64 [sp + 0x168]\n 37702: u64 [sp + 0x50] = a0\n 37705: a0 = u64 [sp + 0x170]\n 37709: u64 [sp + 0x48] = a0\n 37712: a0 = u64 [sp + 0x178]\n 37716: u64 [sp + 0x40] = a0\n 37719: i32 a0 = sp + 0xe0\n 37723: ecalli 4 // 'caller'\n 37725: a0 = u64 [sp + 0xe8]\n 37729: a1 = i32 [sp + 0xf0]\n 37733: s1 = u64 [sp + 0xe0]\n 37737: a0 = reverse a0\n 37739: a2 = a0 << 0x20\n 37742: a1 = reverse a1\n 37744: a1 = a1 >> 0x20\n 37747: a1 = a1 | a2\n 37750: u64 [sp + 0x38] = a1\n 37753: a0 = a0 >> 0x20\n 37756: a1 = reverse s1\n 37758: a1 = a1 << 0x20\n 37761: a0 = a0 | a1\n 37764: u64 [sp + 0x30] = a0\n 37767: a1 = 0x20\n 37770: a0 = 0\n 37772: ra = 500, jump @0\n      : @574 [@dyn 250] (gas: 56)\n 37779: a1 = u64 [sp + 0x30]\n 37782: a1 = reverse a1\n 37784: a2 = u64 [sp + 0x38]\n 37787: a2 = reverse a2\n 37789: a3 = s1 >> 0x18\n 37792: u8 [a0 + 0xf] = a3\n 37795: a3 = s1 >> 0x10\n 37798: u8 [a0 + 0xe] = a3\n 37801: a3 = s1 >> 0x8\n 37804: u8 [a0 + 0xd] = a3\n 37807: u8 [a0 + 0xc] = s1\n 37810: u8 [a0 + 11] = 0\n 37813: u8 [a0 + 10] = 0\n 37816: u8 [a0 + 9] = 0\n 37819: u8 [a0 + 8] = 0\n 37822: u8 [a0 + 7] = 0\n 37825: u8 [a0 + 6] = 0\n 37828: u8 [a0 + 5] = 0\n 37831: u8 [a0 + 4] = 0\n 37834: u8 [a0 + 3] = 0\n 37837: u8 [a0 + 2] = 0\n 37840: u8 [a0 + 1] = 0\n 37843: u8 [a0 + 0] = 0\n 37845: u8 [a0 + 0x18] = a2\n 37848: u8 [a0 + 0x10] = a1\n 37851: a3 = a2 >> 0x38\n 37854: u8 [a0 + 0x1f] = a3\n 37857: a3 = a2 >> 0x30\n 37860: u8 [a0 + 0x1e] = a3\n 37863: a3 = a2 >> 0x28\n 37866: u8 [a0 + 0x1d] = a3\n 37869: a3 = a2 >> 0x20\n 37872: u8 [a0 + 0x1c] = a3\n 37875: a3 = a2 >> 0x18\n 37878: u8 [a0 + 0x1b] = a3\n 37881: a3 = a2 >> 0x10\n 37884: u8 [a0 + 0x1a] = a3\n 37887: a2 = a2 >> 0x8\n 37890: u8 [a0 + 0x19] = a2\n 37893: a2 = a1 >> 0x38\n 37896: u8 [a0 + 0x17] = a2\n 37899: a2 = a1 >> 0x30\n 37902: u8 [a0 + 0x16] = a2\n 37905: a2 = a1 >> 0x28\n 37908: u8 [a0 + 0x15] = a2\n 37911: a2 = a1 >> 0x20\n 37914: u8 [a0 + 0x14] = a2\n 37917: a2 = a1 >> 0x18\n 37920: u8 [a0 + 0x13] = a2\n 37923: a2 = a1 >> 0x10\n 37926: u8 [a0 + 0x12] = a2\n 37929: a1 = a1 >> 0x8\n 37932: u8 [a0 + 0x11] = a1\n 37935: a0 = 0x20\n 37938: a1 = 0x20\n 37941: ra = 502, jump @0\n      : @575 [@dyn 251] (gas: 67)\n 37948: a2 = u64 [sp + 0x40]\n 37951: a1 = a2 >> 0x38\n 37954: u8 [a0 + 0x1f] = a1\n 37957: a1 = a2 >> 0x30\n 37960: u8 [a0 + 0x1e] = a1\n 37963: a1 = a2 >> 0x28\n 37966: u8 [a0 + 0x1d] = a1\n 37969: a1 = a2 >> 0x20\n 37972: u8 [a0 + 0x1c] = a1\n 37975: a1 = a2 >> 0x18\n 37978: u8 [a0 + 0x1b] = a1\n 37981: a1 = a2 >> 0x10\n 37984: u8 [a0 + 0x1a] = a1\n 37987: a1 = a2 >> 0x8\n 37990: u8 [a0 + 0x19] = a1\n 37993: u8 [a0 + 0x18] = a2\n 37996: a2 = u64 [sp + 0x48]\n 37999: a1 = a2 >> 0x38\n 38002: u8 [a0 + 0x17] = a1\n 38005: a1 = a2 >> 0x30\n 38008: u8 [a0 + 0x16] = a1\n 38011: a1 = a2 >> 0x28\n 38014: u8 [a0 + 0x15] = a1\n 38017: a1 = a2 >> 0x20\n 38020: u8 [a0 + 0x14] = a1\n 38023: a1 = a2 >> 0x18\n 38026: u8 [a0 + 0x13] = a1\n 38029: a1 = a2 >> 0x10\n 38032: u8 [a0 + 0x12] = a1\n 38035: a1 = a2 >> 0x8\n 38038: u8 [a0 + 0x11] = a1\n 38041: u8 [a0 + 0x10] = a2\n 38044: a2 = u64 [sp + 0x50]\n 38047: a1 = a2 >> 0x38\n 38050: u8 [a0 + 0xf] = a1\n 38053: a1 = a2 >> 0x30\n 38056: u8 [a0 + 0xe] = a1\n 38059: a1 = a2 >> 0x28\n 38062: u8 [a0 + 0xd] = a1\n 38065: a1 = a2 >> 0x20\n 38068: u8 [a0 + 0xc] = a1\n 38071: a1 = a2 >> 0x18\n 38074: u8 [a0 + 0xb] = a1\n 38077: a1 = a2 >> 0x10\n 38080: u8 [a0 + 0xa] = a1\n 38083: a1 = a2 >> 0x8\n 38086: u8 [a0 + 0x9] = a1\n 38089: u8 [a0 + 0x8] = a2\n 38092: a2 = u64 [sp + 0x58]\n 38095: a1 = a2 >> 0x38\n 38098: u8 [a0 + 0x7] = a1\n 38101: a1 = a2 >> 0x30\n 38104: u8 [a0 + 0x6] = a1\n 38107: a1 = a2 >> 0x28\n 38110: u8 [a0 + 0x5] = a1\n 38113: a1 = a2 >> 0x20\n 38116: u8 [a0 + 0x4] = a1\n 38119: a1 = a2 >> 0x18\n 38122: u8 [a0 + 0x3] = a1\n 38125: a1 = a2 >> 0x10\n 38128: u8 [a0 + 0x2] = a1\n 38131: a1 = a2 >> 0x8\n 38134: u8 [a0 + 0x1] = a1\n 38137: u8 [a0] = a2\n 38139: a1 = 0x40\n 38142: a0 = 0\n 38144: ra = 504, jump @0\n      : @576 [@dyn 252] (gas: 39)\n 38151: i32 a0 = a0 + 0\n 38153: i32 a2 = sp + 0x160\n 38157: a1 = 0x40\n 38160: ecalli 8 // 'hash_keccak_256'\n 38162: a0 = u64 [sp + 0x160]\n 38166: a1 = u64 [sp + 0x168]\n 38170: a2 = u64 [sp + 0x170]\n 38174: a3 = u64 [sp + 0x178]\n 38178: a0 = reverse a0\n 38180: a1 = reverse a1\n 38182: a2 = reverse a2\n 38184: a3 = reverse a3\n 38186: a4 = a3 + 0x2\n 38189: a3 = a4 <u a3\n 38192: a5 = a2 + a3\n 38195: s1 = a5 <u a2\n 38198: s1 = a3 if a3 == 0\n 38201: s1 = s1 + a1\n 38204: a1 = s1 <u a1\n 38207: a0 = a0 + a1\n 38210: u64 [sp + 0x50] = a5\n 38213: u64 [sp + 0x148] = a5\n 38217: u64 [sp + 0x58] = a4\n 38220: u64 [sp + 0x140] = a4\n 38224: u64 [sp + 0x150] = s1\n 38228: u64 [sp + 0x48] = a0\n 38231: u64 [sp + 0x158] = a0\n 38235: u64 [sp + 376] = 0\n 38239: u64 [sp + 368] = 0\n 38243: u64 [sp + 360] = 0\n 38247: u64 [sp + 352] = 0\n 38251: u32 [sp + 288] = 0x20\n 38256: i32 a1 = sp + 0x140\n 38260: i32 a3 = sp + 0x160\n 38264: i32 a4 = sp + 0x120\n 38268: a2 = 0xffffffffffffffff\n 38271: a0 = 0\n 38273: ecalli 7 // 'get_storage'\n 38275: fallthrough\n      : @577 (gas: 2)\n 38276: a0 = u8 [sp + 0x160]\n 38280: jump @584 if a0 == 0\n      : @578 (gas: 19)\n 38284: u64 [sp + 0x150] = s1\n 38288: a0 = u64 [sp + 0x50]\n 38291: u64 [sp + 0x148] = a0\n 38295: a0 = u64 [sp + 0x58]\n 38298: u64 [sp + 0x140] = a0\n 38302: a0 = u64 [sp + 0x48]\n 38305: u64 [sp + 0x158] = a0\n 38309: u64 [sp + 376] = 0\n 38313: u64 [sp + 368] = 0\n 38317: u64 [sp + 360] = 0\n 38321: u64 [sp + 352] = 0\n 38325: u32 [sp + 288] = 0x20\n 38330: i32 a1 = sp + 0x140\n 38334: i32 a3 = sp + 0x160\n 38338: i32 a4 = sp + 0x120\n 38342: a2 = 0xffffffffffffffff\n 38345: a0 = 0\n 38347: ecalli 7 // 'get_storage'\n 38349: fallthrough\n      : @579 (gas: 2)\n 38350: a0 = u8 [sp + 0x161]\n 38354: jump @589 if a0 != 0\n      : @580 (gas: 53)\n 38358: u64 [sp + 0x150] = s1\n 38362: a0 = u64 [sp + 0x50]\n 38365: u64 [sp + 0x148] = a0\n 38369: a0 = u64 [sp + 0x58]\n 38372: u64 [sp + 0x140] = a0\n 38376: u64 [sp + 0x40] = s1\n 38379: s1 = u64 [sp + 0x48]\n 38382: u64 [sp + 0x158] = s1\n 38386: u64 [sp + 376] = 0\n 38390: u64 [sp + 368] = 0\n 38394: u64 [sp + 360] = 0\n 38398: u64 [sp + 352] = 0\n 38402: u32 [sp + 288] = 0x20\n 38407: i32 a1 = sp + 0x140\n 38411: i32 a3 = sp + 0x160\n 38415: i32 a4 = sp + 0x120\n 38419: a2 = 0xffffffffffffffff\n 38422: a0 = 0\n 38424: ecalli 7 // 'get_storage'\n 38426: a0 = u64 [sp + 0x168]\n 38430: a1 = u64 [sp + 0x170]\n 38434: a2 = u64 [sp + 0x160]\n 38438: a3 = u64 [sp + 0x178]\n 38442: a2 = a2 & 0xffffffffffff00ff\n 38447: a2 = a2 | 0x100\n 38451: u64 [sp + 0x158] = s1\n 38455: a4 = u64 [sp + 0x40]\n 38458: u64 [sp + 0x150] = a4\n 38462: a4 = u64 [sp + 0x50]\n 38465: u64 [sp + 0x148] = a4\n 38469: a4 = u64 [sp + 0x58]\n 38472: u64 [sp + 0x140] = a4\n 38476: u64 [sp + 0x178] = a3\n 38480: u64 [sp + 0x170] = a1\n 38484: u64 [sp + 0x168] = a0\n 38488: u64 [sp + 0x160] = a2\n 38492: i32 a1 = sp + 0x140\n 38496: i32 a3 = sp + 0x160\n 38500: a2 = 0xffffffffffffffff\n 38503: a4 = 0x20\n 38506: a0 = 0\n 38508: ecalli 13 // 'set_storage'\n 38510: i32 a0 = sp + 0x100\n 38514: ecalli 4 // 'caller'\n 38516: a0 = u32 [sp + 0x110]\n 38520: u64 [sp + 0x50] = a0\n 38523: a0 = u64 [sp + 0x108]\n 38527: u64 [sp + 0x48] = a0\n 38530: a0 = u64 [sp + 0x100]\n 38534: u64 [sp + 0x58] = a0\n 38537: a0 = 0x40\n 38540: a1 = 0x20\n 38543: ra = 506, jump @0\n      : @581 [@dyn 253] (gas: 100)\n 38550: a1 = u8 [a0 + 0x11]\n 38553: a2 = u8 [a0 + 0x10]\n 38556: a3 = u8 [a0 + 0x12]\n 38559: a4 = u8 [a0 + 0x13]\n 38562: a1 = a1 << 0x8\n 38565: a1 = a1 | a2\n 38568: a3 = a3 << 0x10\n 38571: a4 = a4 << 0x18\n 38574: a3 = a3 | a4\n 38577: a1 = a1 | a3\n 38580: a2 = u8 [a0 + 0x15]\n 38583: a3 = u8 [a0 + 0x14]\n 38586: a4 = u8 [a0 + 0x16]\n 38589: a5 = u8 [a0 + 0x17]\n 38592: a2 = a2 << 0x8\n 38595: a2 = a2 | a3\n 38598: a4 = a4 << 0x10\n 38601: a5 = a5 << 0x18\n 38604: a4 = a4 | a5\n 38607: a2 = a2 | a4\n 38610: a2 = a2 << 0x20\n 38613: t0 = a2 | a1\n 38616: a2 = u8 [a0 + 0x1]\n 38619: a3 = u8 [a0]\n 38621: a4 = u8 [a0 + 0x2]\n 38624: a5 = u8 [a0 + 0x3]\n 38627: a2 = a2 << 0x8\n 38630: a2 = a2 | a3\n 38633: a4 = a4 << 0x10\n 38636: a5 = a5 << 0x18\n 38639: a4 = a4 | a5\n 38642: a2 = a2 | a4\n 38645: a3 = u8 [a0 + 0x5]\n 38648: a4 = u8 [a0 + 0x4]\n 38651: a5 = u8 [a0 + 0x6]\n 38654: s1 = u8 [a0 + 0x7]\n 38657: a3 = a3 << 0x8\n 38660: a3 = a3 | a4\n 38663: a5 = a5 << 0x10\n 38666: s1 = s1 << 0x18\n 38669: a5 = a5 | s1\n 38672: a3 = a3 | a5\n 38675: a3 = a3 << 0x20\n 38678: a2 = a2 | a3\n 38681: a3 = u8 [a0 + 0x19]\n 38684: a4 = u8 [a0 + 0x18]\n 38687: a5 = u8 [a0 + 0x1a]\n 38690: s1 = u8 [a0 + 0x1b]\n 38693: a3 = a3 << 0x8\n 38696: a3 = a3 | a4\n 38699: a5 = a5 << 0x10\n 38702: s1 = s1 << 0x18\n 38705: a5 = a5 | s1\n 38708: a3 = a3 | a5\n 38711: a4 = u8 [a0 + 0x1d]\n 38714: a5 = u8 [a0 + 0x1c]\n 38717: s1 = u8 [a0 + 0x1e]\n 38720: a1 = u8 [a0 + 0x1f]\n 38723: a4 = a4 << 0x8\n 38726: a4 = a4 | a5\n 38729: s1 = s1 << 0x10\n 38732: a1 = a1 << 0x18\n 38735: a1 = a1 | s1\n 38738: a1 = a1 | a4\n 38741: a1 = a1 << 0x20\n 38744: a3 = a3 | a1\n 38747: a1 = u8 [a0 + 0x9]\n 38750: a4 = u8 [a0 + 0x8]\n 38753: a5 = u8 [a0 + 0xa]\n 38756: s1 = u8 [a0 + 0xb]\n 38759: a1 = a1 << 0x8\n 38762: a1 = a1 | a4\n 38765: a5 = a5 << 0x10\n 38768: s1 = s1 << 0x18\n 38771: a5 = a5 | s1\n 38774: a1 = a1 | a5\n 38777: a4 = u8 [a0 + 0xd]\n 38780: a5 = u8 [a0 + 0xc]\n 38783: s1 = u8 [a0 + 0xe]\n 38786: a0 = u8 [a0 + 0xf]\n 38789: a4 = a4 << 0x8\n 38792: a4 = a4 | a5\n 38795: s1 = s1 << 0x10\n 38798: a0 = a0 << 0x18\n 38801: a0 = a0 | s1\n 38804: a0 = a0 | a4\n 38807: a0 = a0 << 0x20\n 38810: a0 = a0 | a1\n 38813: a1 = reverse a0\n 38815: a0 = reverse a3\n 38817: a2 = reverse a2\n 38819: a3 = reverse t0\n 38821: a2 = a2 | a3\n 38824: a3 = a0 | a1\n 38827: a3 = a3 | a2\n 38830: a3 = a3 >> 0x20\n 38833: a1 = a1 | a2\n 38836: a1 = a1 << 0x20\n 38839: a1 = a1 | a3\n 38842: jump @595 if a1 != 0\n      : @582 (gas: 17)\n 38846: s1 = u64 [sp + 0x58]\n 38849: a1 = reverse s1\n 38851: a1 = a1 << 0x20\n 38854: a2 = u64 [sp + 0x48]\n 38857: a2 = reverse a2\n 38859: a3 = a2 >> 0x20\n 38862: a1 = a1 | a3\n 38865: u64 [sp + 0x48] = a1\n 38868: a2 = a2 << 0x20\n 38871: a1 = u64 [sp + 0x50]\n 38874: a1 = reverse a1\n 38876: a1 = a1 >> 0x20\n 38879: a1 = a1 | a2\n 38882: u64 [sp + 0x50] = a1\n 38885: i32 a0 = a0 + 0\n 38887: a1 = 0\n 38889: ra = 508, jump @0\n      : @583 [@dyn 254] (gas: 36)\n 38896: a1 = u64 [0x20020]\n 38901: a2 = u64 [0x20028]\n 38906: a3 = u64 [0x20030]\n 38911: a4 = u64 [0x20038]\n 38916: u64 [sp + 0x178] = a1\n 38920: u64 [sp + 0x170] = a2\n 38924: u64 [sp + 0x168] = a3\n 38928: u64 [sp + 0x160] = a4\n 38932: a1 = u64 [sp + 0x10]\n 38935: u64 [sp + 0x190] = a1\n 38939: a1 = u64 [sp + 0x20]\n 38942: u64 [sp + 0x188] = a1\n 38946: a1 = u64 [sp + 0x28]\n 38949: u64 [sp + 0x180] = a1\n 38953: a1 = u64 [sp + 0x18]\n 38956: u64 [sp + 0x198] = a1\n 38960: a1 = u64 [sp + 0x50]\n 38963: a1 = reverse a1\n 38965: a2 = u64 [sp + 0x48]\n 38968: a2 = reverse a2\n 38970: a3 = s1 << 0x20\n 38973: u64 [sp + 0x1a8] = a3\n 38977: u64 [sp + 416] = 0\n 38981: u64 [sp + 0x1b0] = a2\n 38985: u64 [sp + 0x1b8] = a1\n 38989: i32 a2 = a0 + 0\n 38991: i32 a0 = sp + 0x160\n 38995: a1 = 0x3\n 38998: a3 = 0\n 39000: ecalli 5 // 'deposit_event'\n 39002: sp = s0 + 0xfffffffffffffe20\n 39006: ra = u64 [sp + 0x1d8]\n 39010: s0 = u64 [sp + 0x1d0]\n 39014: s1 = u64 [sp + 0x1c8]\n 39018: sp = sp + 0x1e0\n 39022: ret\n      : @584 (gas: 3)\n 39024: a0 = 0x40\n 39027: a1 = 0x20\n 39030: ra = 510, jump @0\n      : @585 [@dyn 255] (gas: 103)\n 39037: a1 = u8 [a0 + 0x11]\n 39040: a2 = u8 [a0 + 0x10]\n 39043: a3 = u8 [a0 + 0x12]\n 39046: a4 = u8 [a0 + 0x13]\n 39049: a1 = a1 << 0x8\n 39052: a1 = a1 | a2\n 39055: a3 = a3 << 0x10\n 39058: a4 = a4 << 0x18\n 39061: a3 = a3 | a4\n 39064: a1 = a1 | a3\n 39067: a2 = u8 [a0 + 0x15]\n 39070: a3 = u8 [a0 + 0x14]\n 39073: a4 = u8 [a0 + 0x16]\n 39076: a5 = u8 [a0 + 0x17]\n 39079: a2 = a2 << 0x8\n 39082: a2 = a2 | a3\n 39085: a4 = a4 << 0x10\n 39088: a5 = a5 << 0x18\n 39091: a4 = a4 | a5\n 39094: a2 = a2 | a4\n 39097: a2 = a2 << 0x20\n 39100: t0 = a2 | a1\n 39103: a2 = u8 [a0 + 0x1]\n 39106: a3 = u8 [a0]\n 39108: a4 = u8 [a0 + 0x2]\n 39111: a5 = u8 [a0 + 0x3]\n 39114: a2 = a2 << 0x8\n 39117: a2 = a2 | a3\n 39120: a4 = a4 << 0x10\n 39123: a5 = a5 << 0x18\n 39126: a4 = a4 | a5\n 39129: a2 = a2 | a4\n 39132: a3 = u8 [a0 + 0x5]\n 39135: a4 = u8 [a0 + 0x4]\n 39138: a5 = u8 [a0 + 0x6]\n 39141: s1 = u8 [a0 + 0x7]\n 39144: a3 = a3 << 0x8\n 39147: a3 = a3 | a4\n 39150: a5 = a5 << 0x10\n 39153: s1 = s1 << 0x18\n 39156: a5 = a5 | s1\n 39159: a3 = a3 | a5\n 39162: a3 = a3 << 0x20\n 39165: a2 = a2 | a3\n 39168: a3 = u8 [a0 + 0x19]\n 39171: a4 = u8 [a0 + 0x18]\n 39174: a5 = u8 [a0 + 0x1a]\n 39177: s1 = u8 [a0 + 0x1b]\n 39180: a3 = a3 << 0x8\n 39183: a3 = a3 | a4\n 39186: a5 = a5 << 0x10\n 39189: s1 = s1 << 0x18\n 39192: a5 = a5 | s1\n 39195: a3 = a3 | a5\n 39198: a4 = u8 [a0 + 0x1d]\n 39201: a5 = u8 [a0 + 0x1c]\n 39204: s1 = u8 [a0 + 0x1e]\n 39207: a1 = u8 [a0 + 0x1f]\n 39210: a4 = a4 << 0x8\n 39213: a4 = a4 | a5\n 39216: s1 = s1 << 0x10\n 39219: a1 = a1 << 0x18\n 39222: a1 = a1 | s1\n 39225: a1 = a1 | a4\n 39228: a1 = a1 << 0x20\n 39231: a3 = a3 | a1\n 39234: a1 = u8 [a0 + 0x9]\n 39237: a4 = u8 [a0 + 0x8]\n 39240: a5 = u8 [a0 + 0xa]\n 39243: s1 = u8 [a0 + 0xb]\n 39246: a1 = a1 << 0x8\n 39249: a1 = a1 | a4\n 39252: a5 = a5 << 0x10\n 39255: s1 = s1 << 0x18\n 39258: a5 = a5 | s1\n 39261: a1 = a1 | a5\n 39264: a4 = u8 [a0 + 0xd]\n 39267: a5 = u8 [a0 + 0xc]\n 39270: s1 = u8 [a0 + 0xe]\n 39273: a0 = u8 [a0 + 0xf]\n 39276: a4 = a4 << 0x8\n 39279: a4 = a4 | a5\n 39282: s1 = s1 << 0x10\n 39285: a0 = a0 << 0x18\n 39288: a0 = a0 | s1\n 39291: a0 = a0 | a4\n 39294: a0 = a0 << 0x20\n 39297: a0 = a0 | a1\n 39300: s1 = reverse a0\n 39302: a1 = reverse a3\n 39304: a2 = reverse a2\n 39306: a0 = reverse t0\n 39308: u64 [sp + 0x58] = a0\n 39311: u64 [sp + 0x50] = a2\n 39314: a0 = a0 | a2\n 39317: a2 = a1\n 39319: a1 = a1 | s1\n 39322: a1 = a1 | a0\n 39325: a1 = a1 >> 0x20\n 39328: a0 = a0 | s1\n 39331: a0 = a0 << 0x20\n 39334: a0 = a0 | a1\n 39337: jump @595 if a0 != 0\n      : @586 (gas: 5)\n 39341: u64 [sp + 0x48] = a2\n 39344: i32 a0 = a2 + 0\n 39346: a1 = 0x20\n 39349: u64 [sp + 0x40] = a0\n 39352: ra = 512, jump @0\n      : @587 [@dyn 256] (gas: 50)\n 39359: u8 [a0 + 31] = 0\n 39362: u8 [a0 + 30] = 0\n 39365: u8 [a0 + 29] = 0\n 39368: u8 [a0 + 28] = 0\n 39371: u8 [a0 + 27] = 0\n 39374: u8 [a0 + 26] = 0\n 39377: u8 [a0 + 25] = 0\n 39380: u8 [a0 + 24] = 0\n 39383: u8 [a0 + 23] = 0\n 39386: u8 [a0 + 22] = 0\n 39389: u8 [a0 + 21] = 0\n 39392: u8 [a0 + 20] = 0\n 39395: u8 [a0 + 19] = 0\n 39398: u8 [a0 + 18] = 0\n 39401: u8 [a0 + 17] = 0\n 39404: u8 [a0 + 16] = 0\n 39407: u8 [a0 + 15] = 0\n 39410: u8 [a0 + 14] = 0\n 39413: u8 [a0 + 13] = 0\n 39416: u8 [a0 + 12] = 0\n 39419: u8 [a0 + 11] = 0\n 39422: u8 [a0 + 10] = 0\n 39425: u8 [a0 + 9] = 0\n 39428: u8 [a0 + 8] = 0\n 39431: u8 [a0 + 7] = 0\n 39434: u8 [a0 + 6] = 0\n 39437: u8 [a0 + 5] = 0\n 39440: u8 [a0 + 4] = 0\n 39443: u8 [a0 + 3] = 0xa0\n 39448: u8 [a0 + 2] = 0x79\n 39452: u8 [a0 + 1] = 0xc3\n 39457: u8 [a0 + 0] = 0x8\n 39460: a1 = u64 [sp + 0x48]\n 39463: a0 = a1 + 0x4\n 39466: a1 = a0 <u a1\n 39469: a3 = u64 [sp + 0x58]\n 39472: a2 = a3 + a1\n 39475: a3 = a2 <u a3\n 39478: a3 = a1 if a1 == 0\n 39481: a3 = a3 + s1\n 39484: a1 = a3 <u s1\n 39487: a4 = u64 [sp + 0x50]\n 39490: a4 = a4 + a1\n 39493: u64 [sp + 0x68] = a2\n 39496: u64 [sp + 0x60] = a0\n 39499: u64 [sp + 0x70] = a3\n 39502: a0 = sp + 0x80\n 39506: a1 = sp + 0x60\n 39509: u64 [sp + 0x78] = a4\n 39512: ra = 514, jump @555\n      : @588 [@dyn 257] (gas: 5)\n 39518: a0 = u64 [sp + 0x88]\n 39522: t0 = u64 [sp + 0x98]\n 39526: t1 = u64 [sp + 0x80]\n 39530: a3 = u64 [sp + 0x90]\n 39534: jump @594\n      : @589 (gas: 3)\n 39537: a0 = 0x40\n 39540: a1 = 0x20\n 39543: ra = 516, jump @0\n      : @590 [@dyn 258] (gas: 103)\n 39550: a1 = u8 [a0 + 0x11]\n 39553: a2 = u8 [a0 + 0x10]\n 39556: a3 = u8 [a0 + 0x12]\n 39559: a4 = u8 [a0 + 0x13]\n 39562: a1 = a1 << 0x8\n 39565: a1 = a1 | a2\n 39568: a3 = a3 << 0x10\n 39571: a4 = a4 << 0x18\n 39574: a3 = a3 | a4\n 39577: a1 = a1 | a3\n 39580: a2 = u8 [a0 + 0x15]\n 39583: a3 = u8 [a0 + 0x14]\n 39586: a4 = u8 [a0 + 0x16]\n 39589: a5 = u8 [a0 + 0x17]\n 39592: a2 = a2 << 0x8\n 39595: a2 = a2 | a3\n 39598: a4 = a4 << 0x10\n 39601: a5 = a5 << 0x18\n 39604: a4 = a4 | a5\n 39607: a2 = a2 | a4\n 39610: a2 = a2 << 0x20\n 39613: t0 = a2 | a1\n 39616: a2 = u8 [a0 + 0x1]\n 39619: a3 = u8 [a0]\n 39621: a4 = u8 [a0 + 0x2]\n 39624: a5 = u8 [a0 + 0x3]\n 39627: a2 = a2 << 0x8\n 39630: a2 = a2 | a3\n 39633: a4 = a4 << 0x10\n 39636: a5 = a5 << 0x18\n 39639: a4 = a4 | a5\n 39642: a2 = a2 | a4\n 39645: a3 = u8 [a0 + 0x5]\n 39648: a4 = u8 [a0 + 0x4]\n 39651: a5 = u8 [a0 + 0x6]\n 39654: s1 = u8 [a0 + 0x7]\n 39657: a3 = a3 << 0x8\n 39660: a3 = a3 | a4\n 39663: a5 = a5 << 0x10\n 39666: s1 = s1 << 0x18\n 39669: a5 = a5 | s1\n 39672: a3 = a3 | a5\n 39675: a3 = a3 << 0x20\n 39678: a2 = a2 | a3\n 39681: a3 = u8 [a0 + 0x19]\n 39684: a4 = u8 [a0 + 0x18]\n 39687: a5 = u8 [a0 + 0x1a]\n 39690: s1 = u8 [a0 + 0x1b]\n 39693: a3 = a3 << 0x8\n 39696: a3 = a3 | a4\n 39699: a5 = a5 << 0x10\n 39702: s1 = s1 << 0x18\n 39705: a5 = a5 | s1\n 39708: a3 = a3 | a5\n 39711: a4 = u8 [a0 + 0x1d]\n 39714: a5 = u8 [a0 + 0x1c]\n 39717: s1 = u8 [a0 + 0x1e]\n 39720: a1 = u8 [a0 + 0x1f]\n 39723: a4 = a4 << 0x8\n 39726: a4 = a4 | a5\n 39729: s1 = s1 << 0x10\n 39732: a1 = a1 << 0x18\n 39735: a1 = a1 | s1\n 39738: a1 = a1 | a4\n 39741: a1 = a1 << 0x20\n 39744: a3 = a3 | a1\n 39747: a1 = u8 [a0 + 0x9]\n 39750: a4 = u8 [a0 + 0x8]\n 39753: a5 = u8 [a0 + 0xa]\n 39756: s1 = u8 [a0 + 0xb]\n 39759: a1 = a1 << 0x8\n 39762: a1 = a1 | a4\n 39765: a5 = a5 << 0x10\n 39768: s1 = s1 << 0x18\n 39771: a5 = a5 | s1\n 39774: a1 = a1 | a5\n 39777: a4 = u8 [a0 + 0xd]\n 39780: a5 = u8 [a0 + 0xc]\n 39783: s1 = u8 [a0 + 0xe]\n 39786: a0 = u8 [a0 + 0xf]\n 39789: a4 = a4 << 0x8\n 39792: a4 = a4 | a5\n 39795: s1 = s1 << 0x10\n 39798: a0 = a0 << 0x18\n 39801: a0 = a0 | s1\n 39804: a0 = a0 | a4\n 39807: a0 = a0 << 0x20\n 39810: a0 = a0 | a1\n 39813: s1 = reverse a0\n 39815: a1 = reverse a3\n 39817: a2 = reverse a2\n 39819: a0 = reverse t0\n 39821: u64 [sp + 0x58] = a0\n 39824: u64 [sp + 0x50] = a2\n 39827: a0 = a0 | a2\n 39830: a2 = a1\n 39832: a1 = a1 | s1\n 39835: a1 = a1 | a0\n 39838: a1 = a1 >> 0x20\n 39841: a0 = a0 | s1\n 39844: a0 = a0 << 0x20\n 39847: a0 = a0 | a1\n 39850: jump @595 if a0 != 0\n      : @591 (gas: 5)\n 39854: u64 [sp + 0x48] = a2\n 39857: i32 a0 = a2 + 0\n 39859: a1 = 0x20\n 39862: u64 [sp + 0x40] = a0\n 39865: ra = 518, jump @0\n      : @592 [@dyn 259] (gas: 50)\n 39872: u8 [a0 + 31] = 0\n 39875: u8 [a0 + 30] = 0\n 39878: u8 [a0 + 29] = 0\n 39881: u8 [a0 + 28] = 0\n 39884: u8 [a0 + 27] = 0\n 39887: u8 [a0 + 26] = 0\n 39890: u8 [a0 + 25] = 0\n 39893: u8 [a0 + 24] = 0\n 39896: u8 [a0 + 23] = 0\n 39899: u8 [a0 + 22] = 0\n 39902: u8 [a0 + 21] = 0\n 39905: u8 [a0 + 20] = 0\n 39908: u8 [a0 + 19] = 0\n 39911: u8 [a0 + 18] = 0\n 39914: u8 [a0 + 17] = 0\n 39917: u8 [a0 + 16] = 0\n 39920: u8 [a0 + 15] = 0\n 39923: u8 [a0 + 14] = 0\n 39926: u8 [a0 + 13] = 0\n 39929: u8 [a0 + 12] = 0\n 39932: u8 [a0 + 11] = 0\n 39935: u8 [a0 + 10] = 0\n 39938: u8 [a0 + 9] = 0\n 39941: u8 [a0 + 8] = 0\n 39944: u8 [a0 + 7] = 0\n 39947: u8 [a0 + 6] = 0\n 39950: u8 [a0 + 5] = 0\n 39953: u8 [a0 + 4] = 0\n 39956: u8 [a0 + 3] = 0xa0\n 39961: u8 [a0 + 2] = 0x79\n 39965: u8 [a0 + 1] = 0xc3\n 39970: u8 [a0 + 0] = 0x8\n 39973: a1 = u64 [sp + 0x48]\n 39976: a0 = a1 + 0x4\n 39979: a1 = a0 <u a1\n 39982: a3 = u64 [sp + 0x58]\n 39985: a2 = a3 + a1\n 39988: a3 = a2 <u a3\n 39991: a3 = a1 if a1 == 0\n 39994: a3 = a3 + s1\n 39997: a1 = a3 <u s1\n 40000: a4 = u64 [sp + 0x50]\n 40003: a4 = a4 + a1\n 40006: u64 [sp + 0xa8] = a2\n 40010: u64 [sp + 0xa0] = a0\n 40014: u64 [sp + 0xb0] = a3\n 40018: a0 = sp + 0xc0\n 40022: a1 = sp + 0xa0\n 40026: u64 [sp + 0xb8] = a4\n 40030: ra = 520, jump @563\n      : @593 [@dyn 260] (gas: 5)\n 40036: a0 = u64 [sp + 0xc8]\n 40040: t0 = u64 [sp + 0xd8]\n 40044: t1 = u64 [sp + 0xc0]\n 40048: a3 = u64 [sp + 0xd0]\n 40052: fallthrough\n      : @594 (gas: 26)\n 40053: a1 = u64 [sp + 0x58]\n 40056: a4 = a0 ^ a1\n 40059: a5 = a0 <u a1\n 40062: t2 = a1\n 40064: a2 = u64 [sp + 0x48]\n 40067: a1 = t1 <u a2\n 40070: a5 = a1 if a4 == 0\n 40073: a4 = a3 - s1\n 40076: a3 = a3 <u s1\n 40079: s1 = u64 [sp + 0x50]\n 40082: s1 = t0 - s1\n 40085: s1 = s1 - a3\n 40088: a3 = a4 <u a5\n 40091: s1 = s1 - a3\n 40094: a4 = a4 - a5\n 40097: a0 = a0 - t2\n 40100: a1 = a0 - a1\n 40103: a0 = t1 - a2\n 40106: a1 = a1 | s1\n 40109: a2 = a0 | a4\n 40112: a2 = a2 | a1\n 40115: a1 = a1 | a4\n 40118: a2 = a2 >> 0x20\n 40121: a1 = a1 << 0x20\n 40124: a1 = a1 | a2\n 40127: jump @596 if a1 == 0\n      : @595 (gas: 1)\n 40130: trap\n      : @596 (gas: 4)\n 40131: i32 s1 = a0 + 0\n 40133: a0 = u64 [sp + 0x40]\n 40136: a1 = s1\n 40138: ra = 522, jump @0\n      : @597 [@dyn 261] (gas: 6)\n 40145: i32 a1 = a0 + 0\n 40147: a0 = 0x1\n 40150: a2 = s1\n 40152: ra = 0x20c\n 40156: ecalli 11 // 'seal_return'\n 40158: fallthrough\n      : @598 [@dyn 262] (gas: 12)\n 40159: a1 = u64 [a0 + 0x10]\n 40162: a2 = u64 [a0 + 0x18]\n 40165: a3 = u64 [a0 + 0x8]\n 40168: a0 = u64 [a0]\n 40170: a2 = a2 | a3\n 40173: a3 = a0 | a1\n 40176: a3 = a3 | a2\n 40179: a3 = a3 >> 0x20\n 40182: a1 = a1 | a2\n 40185: a1 = a1 << 0x20\n 40188: a1 = a1 | a3\n 40191: jump @601 if a1 != 0\n      : @599 (gas: 7)\n 40195: sp = sp + 0xfffffffffffffff0\n 40198: u64 [sp + 0x8] = ra\n 40201: u64 [sp] = s0\n 40203: i32 a0 = a0 + 0\n 40205: a1 = 0x20\n 40208: s0 = 0x20\n 40211: ra = 526, jump @0\n      : @600 [@dyn 263] (gas: 39)\n 40218: u8 [a0 + 31] = 0\n 40221: u8 [a0 + 30] = 0\n 40224: u8 [a0 + 29] = 0\n 40227: u8 [a0 + 28] = 0\n 40230: u8 [a0 + 27] = 0\n 40233: u8 [a0 + 26] = 0\n 40236: u8 [a0 + 25] = 0\n 40239: u8 [a0 + 24] = 0\n 40242: u8 [a0 + 23] = 0\n 40245: u8 [a0 + 22] = 0\n 40248: u8 [a0 + 21] = 0\n 40251: u8 [a0 + 20] = 0\n 40254: u8 [a0 + 19] = 0\n 40257: u8 [a0 + 18] = 0\n 40260: u8 [a0 + 17] = 0\n 40263: u8 [a0 + 16] = 0\n 40266: u8 [a0 + 15] = 0\n 40269: u8 [a0 + 14] = 0\n 40272: u8 [a0 + 13] = 0\n 40275: u8 [a0 + 12] = 0\n 40278: u8 [a0 + 11] = 0\n 40281: u8 [a0 + 10] = 0\n 40284: u8 [a0 + 9] = 0\n 40287: u8 [a0 + 8] = 0x72\n 40291: u8 [a0 + 7] = 0x65\n 40295: a1 = 0x6e\n 40298: u8 [a0 + 0x6] = a1\n 40301: u8 [a0 + 5] = 0x77\n 40305: a2 = 0x6f\n 40308: u8 [a0 + 0x4] = a2\n 40311: u8 [a0 + 0x3] = s0\n 40314: a3 = 0x74\n 40317: u8 [a0 + 0x2] = a3\n 40320: u8 [a0 + 0x1] = a2\n 40323: u8 [a0] = a1\n 40325: ra = u64 [sp + 0x8]\n 40328: s0 = u64 [sp]\n 40330: sp = sp + 0x10\n 40333: ret\n      : @601 (gas: 1)\n 40335: trap\n      : @602 (gas: 17)\n 40336: sp = sp + 0xffffffffffffffa0\n 40339: u64 [sp + 0x58] = ra\n 40342: u64 [sp + 0x50] = s0\n 40345: u64 [sp + 0x48] = s1\n 40348: a3 = u64 [a1 + 0x18]\n 40351: a4 = u64 [a1 + 0x10]\n 40354: a5 = u64 [a1 + 0x8]\n 40357: s1 = u64 [a1]\n 40359: a1 = a5 | a3\n 40362: a2 = s1 | a4\n 40365: a2 = a2 | a1\n 40368: a2 = a2 >> 0x20\n 40371: a1 = a1 | a4\n 40374: a1 = a1 << 0x20\n 40377: a1 = a1 | a2\n 40380: u64 [sp + 0x28] = a0\n 40383: jump @609 if a1 != 0\n      : @603 (gas: 19)\n 40387: a0 = s1 + 0x20\n 40390: u64 [sp + 0x30] = a0\n 40393: a0 = a0 <u s1\n 40396: a1 = a5 + a0\n 40399: u64 [sp + 0x40] = a1\n 40402: u64 [sp + 0x8] = a5\n 40405: s0 = a1 <u a5\n 40408: s0 = a0 if a0 == 0\n 40411: s0 = s0 + a4\n 40414: u64 [sp + 0x10] = a4\n 40417: a0 = s0 <u a4\n 40420: u64 [sp + 0x18] = a3\n 40423: a0 = a0 + a3\n 40426: u64 [sp + 0x38] = a0\n 40429: u64 [sp] = s1\n 40431: i32 a0 = s1 + 0\n 40433: a1 = 0x20\n 40436: s1 = 0x20\n 40439: ra = 528, jump @0\n      : @604 [@dyn 264] (gas: 45)\n 40446: u8 [a0 + 0x1f] = s1\n 40449: a1 = u64 [sp + 0x30]\n 40452: s1 = a1\n 40454: a1 = a1 | s0\n 40457: a2 = u64 [sp + 0x40]\n 40460: a4 = u64 [sp + 0x38]\n 40463: a2 = a2 | a4\n 40466: a1 = a1 | a2\n 40469: a1 = a1 >> 0x20\n 40472: u64 [sp + 0x20] = s0\n 40475: a2 = a2 | s0\n 40478: a2 = a2 << 0x20\n 40481: a1 = a1 | a2\n 40484: u8 [a0 + 30] = 0\n 40487: u8 [a0 + 29] = 0\n 40490: u8 [a0 + 28] = 0\n 40493: u8 [a0 + 27] = 0\n 40496: u8 [a0 + 26] = 0\n 40499: u8 [a0 + 25] = 0\n 40502: u8 [a0 + 24] = 0\n 40505: u8 [a0 + 23] = 0\n 40508: u8 [a0 + 22] = 0\n 40511: u8 [a0 + 21] = 0\n 40514: u8 [a0 + 20] = 0\n 40517: u8 [a0 + 19] = 0\n 40520: u8 [a0 + 18] = 0\n 40523: u8 [a0 + 17] = 0\n 40526: u8 [a0 + 16] = 0\n 40529: u8 [a0 + 15] = 0\n 40532: u8 [a0 + 14] = 0\n 40535: u8 [a0 + 13] = 0\n 40538: u8 [a0 + 12] = 0\n 40541: u8 [a0 + 11] = 0\n 40544: u8 [a0 + 10] = 0\n 40547: u8 [a0 + 9] = 0\n 40550: u8 [a0 + 8] = 0\n 40553: u8 [a0 + 7] = 0\n 40556: u8 [a0 + 6] = 0\n 40559: u8 [a0 + 5] = 0\n 40562: u8 [a0 + 4] = 0\n 40565: u8 [a0 + 3] = 0\n 40568: u8 [a0 + 2] = 0\n 40571: u8 [a0 + 1] = 0\n 40574: u8 [a0 + 0] = 0\n 40576: jump @609 if a1 != 0\n      : @605 (gas: 4)\n 40580: i32 s0 = s1 + 0\n 40582: a1 = 0x20\n 40585: a0 = s0\n 40587: ra = 530, jump @0\n      : @606 [@dyn 265] (gas: 41)\n 40594: u8 [a0 + 31] = 0x9\n 40598: u8 [a0 + 30] = 0\n 40601: u8 [a0 + 29] = 0\n 40604: u8 [a0 + 28] = 0\n 40607: u8 [a0 + 27] = 0\n 40610: u8 [a0 + 26] = 0\n 40613: u8 [a0 + 25] = 0\n 40616: u8 [a0 + 24] = 0\n 40619: u8 [a0 + 23] = 0\n 40622: u8 [a0 + 22] = 0\n 40625: u8 [a0 + 21] = 0\n 40628: u8 [a0 + 20] = 0\n 40631: u8 [a0 + 19] = 0\n 40634: u8 [a0 + 18] = 0\n 40637: u8 [a0 + 17] = 0\n 40640: u8 [a0 + 16] = 0\n 40643: u8 [a0 + 15] = 0\n 40646: u8 [a0 + 14] = 0\n 40649: u8 [a0 + 13] = 0\n 40652: u8 [a0 + 12] = 0\n 40655: u8 [a0 + 11] = 0\n 40658: u8 [a0 + 10] = 0\n 40661: u8 [a0 + 9] = 0\n 40664: u8 [a0 + 8] = 0\n 40667: u8 [a0 + 7] = 0\n 40670: u8 [a0 + 6] = 0\n 40673: u8 [a0 + 5] = 0\n 40676: u8 [a0 + 4] = 0\n 40679: u8 [a0 + 3] = 0\n 40682: u8 [a0 + 2] = 0\n 40685: u8 [a0 + 1] = 0\n 40688: a1 = u64 [sp + 0x20]\n 40691: a2 = u64 [sp + 0x38]\n 40694: a1 = a1 | a2\n 40697: a2 = 0xffffffe0\n 40707: a2 = s1 <u a2\n 40710: a3 = u64 [sp + 0x40]\n 40713: a2 = 0 if a3 != 0\n 40715: a2 = 0 if a1 != 0\n 40717: u8 [a0 + 0] = 0\n 40719: jump @609 if a2 == 0\n      : @607 (gas: 3)\n 40723: i32 a0 = s0 + 0x20\n 40726: a1 = 0x20\n 40729: ra = 532, jump @0\n      : @608 [@dyn 266] (gas: 54)\n 40736: u8 [a0 + 31] = 0\n 40739: u8 [a0 + 30] = 0\n 40742: u8 [a0 + 29] = 0\n 40745: u8 [a0 + 28] = 0\n 40748: u8 [a0 + 27] = 0\n 40751: u8 [a0 + 26] = 0\n 40754: u8 [a0 + 25] = 0\n 40757: u8 [a0 + 24] = 0\n 40760: u8 [a0 + 23] = 0\n 40763: u8 [a0 + 22] = 0\n 40766: u8 [a0 + 21] = 0\n 40769: u8 [a0 + 20] = 0\n 40772: u8 [a0 + 19] = 0\n 40775: u8 [a0 + 18] = 0\n 40778: u8 [a0 + 17] = 0\n 40781: u8 [a0 + 16] = 0\n 40784: u8 [a0 + 15] = 0\n 40787: u8 [a0 + 14] = 0\n 40790: u8 [a0 + 13] = 0\n 40793: u8 [a0 + 12] = 0\n 40796: u8 [a0 + 11] = 0\n 40799: u8 [a0 + 10] = 0\n 40802: u8 [a0 + 9] = 0\n 40805: u8 [a0 + 8] = 0x72\n 40809: u8 [a0 + 7] = 0x65\n 40813: u8 [a0 + 6] = 0x6e\n 40817: u8 [a0 + 5] = 0x77\n 40821: u8 [a0 + 4] = 0x6f\n 40825: u8 [a0 + 3] = 0x20\n 40829: u8 [a0 + 2] = 0x74\n 40833: u8 [a0 + 1] = 0x6f\n 40837: u8 [a0 + 0] = 0x6e\n 40840: a1 = u64 [sp]\n 40842: a0 = a1 + 0x60\n 40845: a1 = a0 <u a1\n 40848: a3 = u64 [sp + 0x8]\n 40851: a2 = a3 + a1\n 40854: a3 = a2 <u a3\n 40857: a3 = a1 if a1 == 0\n 40860: a1 = u64 [sp + 0x10]\n 40863: a3 = a3 + a1\n 40866: a1 = a3 <u a1\n 40869: a4 = u64 [sp + 0x18]\n 40872: a1 = a1 + a4\n 40875: a4 = u64 [sp + 0x28]\n 40878: u64 [a4] = a0\n 40880: u64 [a4 + 0x8] = a2\n 40883: u64 [a4 + 0x10] = a3\n 40886: u64 [a4 + 0x18] = a1\n 40889: ra = u64 [sp + 0x58]\n 40892: s0 = u64 [sp + 0x50]\n 40895: s1 = u64 [sp + 0x48]\n 40898: sp = sp + 0x60\n 40901: ret\n      : @609 (gas: 1)\n 40903: trap\n      : @610 (gas: 17)\n 40904: sp = sp + 0xffffffffffffffa0\n 40907: u64 [sp + 0x58] = ra\n 40910: u64 [sp + 0x50] = s0\n 40913: u64 [sp + 0x48] = s1\n 40916: a3 = u64 [a1 + 0x18]\n 40919: a4 = u64 [a1 + 0x10]\n 40922: a5 = u64 [a1 + 0x8]\n 40925: s1 = u64 [a1]\n 40927: a1 = a5 | a3\n 40930: a2 = s1 | a4\n 40933: a2 = a2 | a1\n 40936: a2 = a2 >> 0x20\n 40939: a1 = a1 | a4\n 40942: a1 = a1 << 0x20\n 40945: a1 = a1 | a2\n 40948: u64 [sp + 0x28] = a0\n 40951: jump @617 if a1 != 0\n      : @611 (gas: 19)\n 40955: a0 = s1 + 0x20\n 40958: u64 [sp + 0x30] = a0\n 40961: a0 = a0 <u s1\n 40964: a1 = a5 + a0\n 40967: u64 [sp + 0x40] = a1\n 40970: u64 [sp + 0x8] = a5\n 40973: s0 = a1 <u a5\n 40976: s0 = a0 if a0 == 0\n 40979: s0 = s0 + a4\n 40982: u64 [sp + 0x10] = a4\n 40985: a0 = s0 <u a4\n 40988: u64 [sp + 0x18] = a3\n 40991: a0 = a0 + a3\n 40994: u64 [sp + 0x38] = a0\n 40997: u64 [sp] = s1\n 40999: i32 a0 = s1 + 0\n 41001: a1 = 0x20\n 41004: s1 = 0x20\n 41007: ra = 534, jump @0\n      : @612 [@dyn 267] (gas: 45)\n 41014: u8 [a0 + 0x1f] = s1\n 41017: a1 = u64 [sp + 0x30]\n 41020: s1 = a1\n 41022: a1 = a1 | s0\n 41025: a2 = u64 [sp + 0x40]\n 41028: a4 = u64 [sp + 0x38]\n 41031: a2 = a2 | a4\n 41034: a1 = a1 | a2\n 41037: a1 = a1 >> 0x20\n 41040: u64 [sp + 0x20] = s0\n 41043: a2 = a2 | s0\n 41046: a2 = a2 << 0x20\n 41049: a1 = a1 | a2\n 41052: u8 [a0 + 30] = 0\n 41055: u8 [a0 + 29] = 0\n 41058: u8 [a0 + 28] = 0\n 41061: u8 [a0 + 27] = 0\n 41064: u8 [a0 + 26] = 0\n 41067: u8 [a0 + 25] = 0\n 41070: u8 [a0 + 24] = 0\n 41073: u8 [a0 + 23] = 0\n 41076: u8 [a0 + 22] = 0\n 41079: u8 [a0 + 21] = 0\n 41082: u8 [a0 + 20] = 0\n 41085: u8 [a0 + 19] = 0\n 41088: u8 [a0 + 18] = 0\n 41091: u8 [a0 + 17] = 0\n 41094: u8 [a0 + 16] = 0\n 41097: u8 [a0 + 15] = 0\n 41100: u8 [a0 + 14] = 0\n 41103: u8 [a0 + 13] = 0\n 41106: u8 [a0 + 12] = 0\n 41109: u8 [a0 + 11] = 0\n 41112: u8 [a0 + 10] = 0\n 41115: u8 [a0 + 9] = 0\n 41118: u8 [a0 + 8] = 0\n 41121: u8 [a0 + 7] = 0\n 41124: u8 [a0 + 6] = 0\n 41127: u8 [a0 + 5] = 0\n 41130: u8 [a0 + 4] = 0\n 41133: u8 [a0 + 3] = 0\n 41136: u8 [a0 + 2] = 0\n 41139: u8 [a0 + 1] = 0\n 41142: u8 [a0 + 0] = 0\n 41144: jump @617 if a1 != 0\n      : @613 (gas: 4)\n 41148: i32 s0 = s1 + 0\n 41150: a1 = 0x20\n 41153: a0 = s0\n 41155: ra = 536, jump @0\n      : @614 [@dyn 268] (gas: 41)\n 41162: u8 [a0 + 31] = 0x8\n 41166: u8 [a0 + 30] = 0\n 41169: u8 [a0 + 29] = 0\n 41172: u8 [a0 + 28] = 0\n 41175: u8 [a0 + 27] = 0\n 41178: u8 [a0 + 26] = 0\n 41181: u8 [a0 + 25] = 0\n 41184: u8 [a0 + 24] = 0\n 41187: u8 [a0 + 23] = 0\n 41190: u8 [a0 + 22] = 0\n 41193: u8 [a0 + 21] = 0\n 41196: u8 [a0 + 20] = 0\n 41199: u8 [a0 + 19] = 0\n 41202: u8 [a0 + 18] = 0\n 41205: u8 [a0 + 17] = 0\n 41208: u8 [a0 + 16] = 0\n 41211: u8 [a0 + 15] = 0\n 41214: u8 [a0 + 14] = 0\n 41217: u8 [a0 + 13] = 0\n 41220: u8 [a0 + 12] = 0\n 41223: u8 [a0 + 11] = 0\n 41226: u8 [a0 + 10] = 0\n 41229: u8 [a0 + 9] = 0\n 41232: u8 [a0 + 8] = 0\n 41235: u8 [a0 + 7] = 0\n 41238: u8 [a0 + 6] = 0\n 41241: u8 [a0 + 5] = 0\n 41244: u8 [a0 + 4] = 0\n 41247: u8 [a0 + 3] = 0\n 41250: u8 [a0 + 2] = 0\n 41253: u8 [a0 + 1] = 0\n 41256: a1 = u64 [sp + 0x20]\n 41259: a2 = u64 [sp + 0x38]\n 41262: a1 = a1 | a2\n 41265: a2 = 0xffffffe0\n 41275: a2 = s1 <u a2\n 41278: a3 = u64 [sp + 0x40]\n 41281: a2 = 0 if a3 != 0\n 41283: a2 = 0 if a1 != 0\n 41285: u8 [a0 + 0] = 0\n 41287: jump @617 if a2 == 0\n      : @615 (gas: 3)\n 41291: i32 a0 = s0 + 0x20\n 41294: a1 = 0x20\n 41297: ra = 538, jump @0\n      : @616 [@dyn 269] (gas: 54)\n 41304: u8 [a0 + 31] = 0\n 41307: u8 [a0 + 30] = 0\n 41310: u8 [a0 + 29] = 0\n 41313: u8 [a0 + 28] = 0\n 41316: u8 [a0 + 27] = 0\n 41319: u8 [a0 + 26] = 0\n 41322: u8 [a0 + 25] = 0\n 41325: u8 [a0 + 24] = 0\n 41328: u8 [a0 + 23] = 0\n 41331: u8 [a0 + 22] = 0\n 41334: u8 [a0 + 21] = 0\n 41337: u8 [a0 + 20] = 0\n 41340: u8 [a0 + 19] = 0\n 41343: u8 [a0 + 18] = 0\n 41346: u8 [a0 + 17] = 0\n 41349: u8 [a0 + 16] = 0\n 41352: u8 [a0 + 15] = 0\n 41355: u8 [a0 + 14] = 0\n 41358: u8 [a0 + 13] = 0\n 41361: u8 [a0 + 12] = 0\n 41364: u8 [a0 + 11] = 0\n 41367: u8 [a0 + 10] = 0\n 41370: u8 [a0 + 9] = 0\n 41373: u8 [a0 + 8] = 0\n 41376: u8 [a0 + 7] = 0x65\n 41380: u8 [a0 + 6] = 0x75\n 41384: u8 [a0 + 5] = 0x6c\n 41388: u8 [a0 + 4] = 0x61\n 41392: u8 [a0 + 3] = 0x76\n 41396: u8 [a0 + 2] = 0x20\n 41400: u8 [a0 + 1] = 0x6f\n 41404: u8 [a0 + 0] = 0x6e\n 41407: a1 = u64 [sp]\n 41409: a0 = a1 + 0x60\n 41412: a1 = a0 <u a1\n 41415: a3 = u64 [sp + 0x8]\n 41418: a2 = a3 + a1\n 41421: a3 = a2 <u a3\n 41424: a3 = a1 if a1 == 0\n 41427: a1 = u64 [sp + 0x10]\n 41430: a3 = a3 + a1\n 41433: a1 = a3 <u a1\n 41436: a4 = u64 [sp + 0x18]\n 41439: a1 = a1 + a4\n 41442: a4 = u64 [sp + 0x28]\n 41445: u64 [a4] = a0\n 41447: u64 [a4 + 0x8] = a2\n 41450: u64 [a4 + 0x10] = a3\n 41453: u64 [a4 + 0x18] = a1\n 41456: ra = u64 [sp + 0x58]\n 41459: s0 = u64 [sp + 0x50]\n 41462: s1 = u64 [sp + 0x48]\n 41465: sp = sp + 0x60\n 41468: ret\n      : @617 (gas: 1)\n 41470: trap\n      : @618 [@dyn 270] (gas: 71)\n 41471: a1 = u64 [s1 + 0x20]\n 41474: a1 = reverse a1\n 41476: a2 = u64 [s1 + 0x28]\n 41479: a2 = reverse a2\n 41481: a3 = u64 [s1 + 0x30]\n 41484: a3 = reverse a3\n 41486: a4 = u64 [s1 + 0x38]\n 41489: a4 = reverse a4\n 41491: u8 [a0 + 0x18] = a4\n 41494: u8 [a0 + 0x10] = a3\n 41497: u8 [a0 + 0x8] = a2\n 41500: u8 [a0] = a1\n 41502: a5 = a4 >> 0x38\n 41505: u8 [a0 + 0x1f] = a5\n 41508: a5 = a4 >> 0x30\n 41511: u8 [a0 + 0x1e] = a5\n 41514: a5 = a4 >> 0x28\n 41517: u8 [a0 + 0x1d] = a5\n 41520: a5 = a4 >> 0x20\n 41523: u8 [a0 + 0x1c] = a5\n 41526: a5 = a4 >> 0x18\n 41529: u8 [a0 + 0x1b] = a5\n 41532: a5 = a4 >> 0x10\n 41535: u8 [a0 + 0x1a] = a5\n 41538: a4 = a4 >> 0x8\n 41541: u8 [a0 + 0x19] = a4\n 41544: a4 = a3 >> 0x38\n 41547: u8 [a0 + 0x17] = a4\n 41550: a4 = a3 >> 0x30\n 41553: u8 [a0 + 0x16] = a4\n 41556: a4 = a3 >> 0x28\n 41559: u8 [a0 + 0x15] = a4\n 41562: a4 = a3 >> 0x20\n 41565: u8 [a0 + 0x14] = a4\n 41568: a4 = a3 >> 0x18\n 41571: u8 [a0 + 0x13] = a4\n 41574: a4 = a3 >> 0x10\n 41577: u8 [a0 + 0x12] = a4\n 41580: a3 = a3 >> 0x8\n 41583: u8 [a0 + 0x11] = a3\n 41586: a3 = a2 >> 0x38\n 41589: u8 [a0 + 0xf] = a3\n 41592: a3 = a2 >> 0x30\n 41595: u8 [a0 + 0xe] = a3\n 41598: a3 = a2 >> 0x28\n 41601: u8 [a0 + 0xd] = a3\n 41604: a3 = a2 >> 0x20\n 41607: u8 [a0 + 0xc] = a3\n 41610: a3 = a2 >> 0x18\n 41613: u8 [a0 + 0xb] = a3\n 41616: a3 = a2 >> 0x10\n 41619: u8 [a0 + 0xa] = a3\n 41622: a2 = a2 >> 0x8\n 41625: u8 [a0 + 0x9] = a2\n 41628: a2 = a1 >> 0x38\n 41631: u8 [a0 + 0x7] = a2\n 41634: a2 = a1 >> 0x30\n 41637: u8 [a0 + 0x6] = a2\n 41640: a2 = a1 >> 0x28\n 41643: u8 [a0 + 0x5] = a2\n 41646: a2 = a1 >> 0x20\n 41649: u8 [a0 + 0x4] = a2\n 41652: a2 = a1 >> 0x18\n 41655: u8 [a0 + 0x3] = a2\n 41658: a2 = a1 >> 0x10\n 41661: u8 [a0 + 0x2] = a2\n 41664: a1 = a1 >> 0x8\n 41667: u8 [a0 + 0x1] = a1\n 41670: a0 = 0x20\n 41673: a1 = 0x20\n 41676: ra = 542, jump @0\n      : @619 [@dyn 271] (gas: 35)\n 41683: u8 [a0 + 31] = 0x1\n 41687: u8 [a0 + 30] = 0\n 41690: u8 [a0 + 29] = 0\n 41693: u8 [a0 + 28] = 0\n 41696: u8 [a0 + 27] = 0\n 41699: u8 [a0 + 26] = 0\n 41702: u8 [a0 + 25] = 0\n 41705: u8 [a0 + 24] = 0\n 41708: u8 [a0 + 23] = 0\n 41711: u8 [a0 + 22] = 0\n 41714: u8 [a0 + 21] = 0\n 41717: u8 [a0 + 20] = 0\n 41720: u8 [a0 + 19] = 0\n 41723: u8 [a0 + 18] = 0\n 41726: u8 [a0 + 17] = 0\n 41729: u8 [a0 + 16] = 0\n 41732: u8 [a0 + 15] = 0\n 41735: u8 [a0 + 14] = 0\n 41738: u8 [a0 + 13] = 0\n 41741: u8 [a0 + 12] = 0\n 41744: u8 [a0 + 11] = 0\n 41747: u8 [a0 + 10] = 0\n 41750: u8 [a0 + 9] = 0\n 41753: u8 [a0 + 8] = 0\n 41756: u8 [a0 + 7] = 0\n 41759: u8 [a0 + 6] = 0\n 41762: u8 [a0 + 5] = 0\n 41765: u8 [a0 + 4] = 0\n 41768: u8 [a0 + 3] = 0\n 41771: u8 [a0 + 2] = 0\n 41774: u8 [a0 + 1] = 0\n 41777: u8 [a0 + 0] = 0\n 41779: a1 = 0x40\n 41782: a0 = 0\n 41784: ra = 544, jump @0\n      : @620 [@dyn 272] (gas: 54)\n 41791: i32 a0 = a0 + 0\n 41793: i32 a2 = s1 + 0x160\n 41797: a1 = 0x40\n 41800: ecalli 8 // 'hash_keccak_256'\n 41802: a0 = u64 [s1 + 0x178]\n 41806: a1 = u64 [s1 + 0x170]\n 41810: a2 = u64 [s1 + 0x168]\n 41814: a3 = u64 [s1 + 0x160]\n 41818: a0 = reverse a0\n 41820: u64 [s1 + 0x20] = a0\n 41823: a0 = reverse a1\n 41825: u64 [s1 + 0x28] = a0\n 41828: a0 = reverse a2\n 41830: u64 [s1 + 0x38] = a0\n 41833: a0 = reverse a3\n 41835: u64 [s1 + 0x30] = a0\n 41838: i32 a0 = s1 + 0x100\n 41842: ecalli 4 // 'caller'\n 41844: a0 = u64 [s1 + 0x108]\n 41848: a1 = u64 [s1 + 0x100]\n 41852: a2 = i32 [s1 + 0x110]\n 41856: a0 = reverse a0\n 41858: a3 = a0 >> 0x20\n 41861: a1 = reverse a1\n 41863: a4 = a1 << 0x20\n 41866: a3 = a3 | a4\n 41869: u64 [s1 + 0x18] = a3\n 41872: a0 = a0 << 0x20\n 41875: a2 = reverse a2\n 41877: a2 = a2 >> 0x20\n 41880: a0 = a0 | a2\n 41883: u64 [s1 + 0x10] = a0\n 41886: a1 = a1 >> 0x20\n 41889: u64 [s1 + 0x8] = a1\n 41892: a0 = u64 [s1 + 0x30]\n 41895: u64 [s1 + 0x158] = a0\n 41899: a0 = u64 [s1 + 0x38]\n 41902: u64 [s1 + 0x150] = a0\n 41906: a0 = u64 [s1 + 0x28]\n 41909: u64 [s1 + 0x148] = a0\n 41913: a0 = u64 [s1 + 0x20]\n 41916: u64 [s1 + 0x140] = a0\n 41920: u64 [s1 + 376] = 0\n 41924: u64 [s1 + 368] = 0\n 41928: u64 [s1 + 360] = 0\n 41932: u64 [s1 + 352] = 0\n 41936: u32 [s1 + 288] = 0x20\n 41941: i32 a1 = s1 + 0x140\n 41945: i32 a3 = s1 + 0x160\n 41949: i32 a4 = s1 + 0x120\n 41953: a2 = 0xffffffffffffffff\n 41956: a0 = 0\n 41958: ecalli 7 // 'get_storage'\n 41960: fallthrough\n      : @621 (gas: 12)\n 41961: a0 = u32 [s1 + 0x170]\n 41965: a1 = u64 [s1 + 0x160]\n 41969: a2 = u64 [s1 + 0x168]\n 41973: a3 = u64 [s1 + 0x8]\n 41976: a0 = a0 ^ a3\n 41979: a3 = u64 [s1 + 0x10]\n 41982: a1 = a1 ^ a3\n 41985: a0 = a0 | a1\n 41988: a1 = u64 [s1 + 0x18]\n 41991: a1 = a1 ^ a2\n 41994: a0 = a0 | a1\n 41997: jump @627 if a0 != 0\n      : @622 (gas: 11)\n 42001: a0 = sp + 0xffffffffffffffe0\n 42004: a0 = a0 & 0xffffffffffffffe0\n 42007: u64 [s1 + 0x18] = a0\n 42010: sp = a0\n 42012: u64 [a0 + 24] = 0\n 42015: u64 [a0 + 16] = 0\n 42018: u64 [a0 + 8] = 0\n 42021: u64 [a0 + 0] = 0\n 42023: i32 a0 = a0 + 0\n 42025: ecalli 14 // 'value_transferred'\n 42027: fallthrough\n      : @623 (gas: 9)\n 42028: a3 = u64 [s1 + 0x18]\n 42031: a0 = u64 [a3 + 0x10]\n 42034: a1 = u64 [a3 + 0x18]\n 42037: a2 = u64 [a3 + 0x8]\n 42040: a3 = u64 [a3]\n 42042: a1 = a1 | a2\n 42045: a0 = a0 | a3\n 42048: a0 = a0 | a1\n 42051: jump @632 if a0 == 0\n      : @624 (gas: 51)\n 42055: a0 = sp + 0xffffffffffffffe0\n 42058: a0 = a0 & 0xffffffffffffffe0\n 42061: u64 [s1 + 0x10] = a0\n 42064: sp = a0\n 42066: u64 [a0 + 24] = 0\n 42069: u64 [a0 + 16] = 0\n 42072: u64 [a0 + 8] = 0\n 42075: u64 [a0 + 0] = 0\n 42077: i32 a0 = a0 + 0\n 42079: ecalli 14 // 'value_transferred'\n 42081: a1 = u64 [s1 + 0x10]\n 42084: a0 = u64 [a1 + 0x18]\n 42087: u64 [s1 + 0x8] = a0\n 42090: a0 = u64 [a1 + 0x10]\n 42093: u64 [s1] = a0\n 42095: a0 = u64 [a1]\n 42097: u64 [s1 + 0x18] = a0\n 42100: a0 = u64 [a1 + 0x8]\n 42103: u64 [s1 + 0x10] = a0\n 42106: a0 = u64 [s1 + 0x20]\n 42109: a2 = a0 + 0x3\n 42112: a0 = a2 <u a0\n 42115: a1 = u64 [s1 + 0x28]\n 42118: a3 = a1 + a0\n 42121: a1 = a3 <u a1\n 42124: a1 = a0 if a0 == 0\n 42127: a0 = u64 [s1 + 0x38]\n 42130: a4 = a0 + a1\n 42133: a0 = a4 <u a0\n 42136: a1 = u64 [s1 + 0x30]\n 42139: a0 = a0 + a1\n 42142: u64 [s1 + 0x20] = a0\n 42145: u64 [s1 + 0x158] = a0\n 42149: u64 [s1 + 0x28] = a4\n 42152: u64 [s1 + 0x150] = a4\n 42156: u64 [s1 + 0x30] = a3\n 42159: u64 [s1 + 0x148] = a3\n 42163: u64 [s1 + 0x38] = a2\n 42166: u64 [s1 + 0x140] = a2\n 42170: u64 [s1 + 376] = 0\n 42174: u64 [s1 + 368] = 0\n 42178: u64 [s1 + 360] = 0\n 42182: u64 [s1 + 352] = 0\n 42186: u32 [s1 + 288] = 0x20\n 42191: i32 a1 = s1 + 0x140\n 42195: i32 a3 = s1 + 0x160\n 42199: i32 a4 = s1 + 0x120\n 42203: a2 = 0xffffffffffffffff\n 42206: a0 = 0\n 42208: ecalli 7 // 'get_storage'\n 42210: fallthrough\n      : @625 (gas: 39)\n 42211: a4 = u64 [s1 + 0x168]\n 42215: a2 = u64 [s1 + 0x160]\n 42219: t0 = u64 [s1 + 0x178]\n 42223: t2 = u64 [s1 + 0x170]\n 42227: a5 = u64 [s1 + 0x10]\n 42230: a5 = a5 + a4\n 42233: a1 = u64 [s1 + 0x18]\n 42236: a1 = a1 + a2\n 42239: u64 [s1 + 0x18] = a1\n 42242: a3 = a1 <u a2\n 42245: a5 = a5 + a3\n 42248: t1 = a5 ^ a4\n 42251: u64 [s1 + 0x10] = a5\n 42254: a4 = a5 <u a4\n 42257: a5 = u64 [s1]\n 42259: a5 = a5 + t2\n 42262: a1 = u64 [s1 + 0x8]\n 42265: a1 = a1 + t0\n 42268: a2 = a5 <u t2\n 42271: a1 = a1 + a2\n 42274: a2 = a3\n 42276: a2 = a4 if t1 != 0\n 42279: a0 = a5 + a2\n 42282: a2 = a0 <u a5\n 42285: a5 = a1 + a2\n 42288: a1 = a3 ^ 0x1\n 42291: a2 = a4 ^ 0x1\n 42294: a1 = a2 if t1 != 0\n 42297: a2 = a0 <u t2\n 42300: a3 = a5 ^ t0\n 42303: u64 [s1] = a5\n 42305: a4 = a5 <u t0\n 42308: a4 = a2 if a3 == 0\n 42311: u64 [s1 + 0x8] = a0\n 42314: a0 = a0 ^ t2\n 42317: a0 = a0 | a3\n 42320: a2 = a4 ^ 0x1\n 42323: a1 = a2 if a0 != 0\n 42326: jump @639 if a1 == 0\n      : @626 (gas: 47)\n 42330: a0 = u64 [s1 + 0x28]\n 42333: u64 [s1 + 0x150] = a0\n 42337: a0 = u64 [s1 + 0x30]\n 42340: u64 [s1 + 0x148] = a0\n 42344: a0 = u64 [s1 + 0x38]\n 42347: u64 [s1 + 0x140] = a0\n 42351: a0 = u64 [s1 + 0x20]\n 42354: u64 [s1 + 0x158] = a0\n 42358: u64 [s1 + 376] = 0\n 42362: u64 [s1 + 368] = 0\n 42366: u64 [s1 + 360] = 0\n 42370: u64 [s1 + 352] = 0\n 42374: u32 [s1 + 288] = 0x20\n 42379: i32 a1 = s1 + 0x140\n 42383: i32 a3 = s1 + 0x160\n 42387: i32 a4 = s1 + 0x120\n 42391: a2 = 0xffffffffffffffff\n 42394: a0 = 0\n 42396: ecalli 7 // 'get_storage'\n 42398: a0 = u64 [s1 + 0x20]\n 42401: u64 [s1 + 0x158] = a0\n 42405: a0 = u64 [s1 + 0x28]\n 42408: u64 [s1 + 0x150] = a0\n 42412: a0 = u64 [s1 + 0x30]\n 42415: u64 [s1 + 0x148] = a0\n 42419: a0 = u64 [s1 + 0x38]\n 42422: u64 [s1 + 0x140] = a0\n 42426: a0 = u64 [s1]\n 42428: u64 [s1 + 0x178] = a0\n 42432: a0 = u64 [s1 + 0x8]\n 42435: u64 [s1 + 0x170] = a0\n 42439: a0 = u64 [s1 + 0x10]\n 42442: u64 [s1 + 0x168] = a0\n 42446: a0 = u64 [s1 + 0x18]\n 42449: u64 [s1 + 0x160] = a0\n 42453: i32 a1 = s1 + 0x140\n 42457: i32 a3 = s1 + 0x160\n 42461: a2 = 0xffffffffffffffff\n 42464: a4 = 0x20\n 42467: a0 = 0\n 42469: ecalli 13 // 'set_storage'\n 42471: sp = s0 + 0xfffffffffffffe60\n 42475: ra = u64 [sp + 0x198]\n 42479: s0 = u64 [sp + 0x190]\n 42483: s1 = u64 [sp + 0x188]\n 42487: sp = sp + 0x1a0\n 42491: ret\n      : @627 (gas: 3)\n 42493: a0 = 0x40\n 42496: a1 = 0x20\n 42499: ra = 546, jump @0\n      : @628 [@dyn 273] (gas: 104)\n 42506: a1 = u8 [a0 + 0x11]\n 42509: a2 = u8 [a0 + 0x10]\n 42512: a3 = u8 [a0 + 0x12]\n 42515: a4 = u8 [a0 + 0x13]\n 42518: a1 = a1 << 0x8\n 42521: a1 = a1 | a2\n 42524: a3 = a3 << 0x10\n 42527: a4 = a4 << 0x18\n 42530: a3 = a3 | a4\n 42533: a1 = a1 | a3\n 42536: a2 = u8 [a0 + 0x15]\n 42539: a3 = u8 [a0 + 0x14]\n 42542: a4 = u8 [a0 + 0x16]\n 42545: a5 = u8 [a0 + 0x17]\n 42548: a2 = a2 << 0x8\n 42551: a2 = a2 | a3\n 42554: a4 = a4 << 0x10\n 42557: a5 = a5 << 0x18\n 42560: a4 = a4 | a5\n 42563: a2 = a2 | a4\n 42566: a2 = a2 << 0x20\n 42569: t0 = a2 | a1\n 42572: a2 = u8 [a0 + 0x1]\n 42575: a3 = u8 [a0]\n 42577: a4 = u8 [a0 + 0x2]\n 42580: a5 = u8 [a0 + 0x3]\n 42583: a2 = a2 << 0x8\n 42586: a2 = a2 | a3\n 42589: a4 = a4 << 0x10\n 42592: a5 = a5 << 0x18\n 42595: a4 = a4 | a5\n 42598: a2 = a2 | a4\n 42601: a3 = u8 [a0 + 0x5]\n 42604: a4 = u8 [a0 + 0x4]\n 42607: a5 = u8 [a0 + 0x6]\n 42610: a1 = u8 [a0 + 0x7]\n 42613: a3 = a3 << 0x8\n 42616: a3 = a3 | a4\n 42619: a5 = a5 << 0x10\n 42622: a1 = a1 << 0x18\n 42625: a1 = a1 | a5\n 42628: a1 = a1 | a3\n 42631: a1 = a1 << 0x20\n 42634: t1 = a1 | a2\n 42637: a1 = u8 [a0 + 0x19]\n 42640: a3 = u8 [a0 + 0x18]\n 42643: a4 = u8 [a0 + 0x1a]\n 42646: a5 = u8 [a0 + 0x1b]\n 42649: a1 = a1 << 0x8\n 42652: a1 = a1 | a3\n 42655: a4 = a4 << 0x10\n 42658: a5 = a5 << 0x18\n 42661: a4 = a4 | a5\n 42664: a1 = a1 | a4\n 42667: a3 = u8 [a0 + 0x1d]\n 42670: a4 = u8 [a0 + 0x1c]\n 42673: a5 = u8 [a0 + 0x1e]\n 42676: a2 = u8 [a0 + 0x1f]\n 42679: a3 = a3 << 0x8\n 42682: a3 = a3 | a4\n 42685: a5 = a5 << 0x10\n 42688: a2 = a2 << 0x18\n 42691: a2 = a2 | a5\n 42694: a2 = a2 | a3\n 42697: a2 = a2 << 0x20\n 42700: a3 = a2 | a1\n 42703: a1 = u8 [a0 + 0x9]\n 42706: a2 = u8 [a0 + 0x8]\n 42709: a4 = u8 [a0 + 0xa]\n 42712: a5 = u8 [a0 + 0xb]\n 42715: a1 = a1 << 0x8\n 42718: a1 = a1 | a2\n 42721: a4 = a4 << 0x10\n 42724: a5 = a5 << 0x18\n 42727: a4 = a4 | a5\n 42730: a1 = a1 | a4\n 42733: a2 = u8 [a0 + 0xd]\n 42736: a4 = u8 [a0 + 0xc]\n 42739: a5 = u8 [a0 + 0xe]\n 42742: a0 = u8 [a0 + 0xf]\n 42745: a2 = a2 << 0x8\n 42748: a2 = a2 | a4\n 42751: a5 = a5 << 0x10\n 42754: a0 = a0 << 0x18\n 42757: a0 = a0 | a5\n 42760: a0 = a0 | a2\n 42763: a0 = a0 << 0x20\n 42766: a0 = a0 | a1\n 42769: a4 = reverse a0\n 42771: a1 = reverse a3\n 42773: a2 = reverse t1\n 42775: a0 = reverse t0\n 42777: u64 [s1 + 0x38] = a0\n 42780: u64 [s1 + 0x28] = a2\n 42783: a0 = a0 | a2\n 42786: a2 = a1\n 42788: a1 = a1 | a4\n 42791: a1 = a1 | a0\n 42794: a1 = a1 >> 0x20\n 42797: u64 [s1 + 0x30] = a4\n 42800: a0 = a0 | a4\n 42803: a0 = a0 << 0x20\n 42806: a0 = a0 | a1\n 42809: jump @638 if a0 != 0\n      : @629 (gas: 5)\n 42813: u64 [s1 + 0x20] = a2\n 42816: i32 a0 = a2 + 0\n 42818: a1 = 0x20\n 42821: u64 [s1 + 0x18] = a0\n 42824: ra = 548, jump @0\n      : @630 [@dyn 274] (gas: 51)\n 42831: u8 [a0 + 31] = 0\n 42834: u8 [a0 + 30] = 0\n 42837: u8 [a0 + 29] = 0\n 42840: u8 [a0 + 28] = 0\n 42843: u8 [a0 + 27] = 0\n 42846: u8 [a0 + 26] = 0\n 42849: u8 [a0 + 25] = 0\n 42852: u8 [a0 + 24] = 0\n 42855: u8 [a0 + 23] = 0\n 42858: u8 [a0 + 22] = 0\n 42861: u8 [a0 + 21] = 0\n 42864: u8 [a0 + 20] = 0\n 42867: u8 [a0 + 19] = 0\n 42870: u8 [a0 + 18] = 0\n 42873: u8 [a0 + 17] = 0\n 42876: u8 [a0 + 16] = 0\n 42879: u8 [a0 + 15] = 0\n 42882: u8 [a0 + 14] = 0\n 42885: u8 [a0 + 13] = 0\n 42888: u8 [a0 + 12] = 0\n 42891: u8 [a0 + 11] = 0\n 42894: u8 [a0 + 10] = 0\n 42897: u8 [a0 + 9] = 0\n 42900: u8 [a0 + 8] = 0\n 42903: u8 [a0 + 7] = 0\n 42906: u8 [a0 + 6] = 0\n 42909: u8 [a0 + 5] = 0\n 42912: u8 [a0 + 4] = 0\n 42915: u8 [a0 + 3] = 0xa0\n 42920: u8 [a0 + 2] = 0x79\n 42924: u8 [a0 + 1] = 0xc3\n 42929: u8 [a0 + 0] = 0x8\n 42932: a1 = u64 [s1 + 0x20]\n 42935: a0 = a1 + 0x4\n 42938: a1 = a0 <u a1\n 42941: a3 = u64 [s1 + 0x38]\n 42944: a2 = a3 + a1\n 42947: a3 = a2 <u a3\n 42950: a3 = a1 if a1 == 0\n 42953: a1 = u64 [s1 + 0x30]\n 42956: a3 = a3 + a1\n 42959: a1 = a3 <u a1\n 42962: a4 = u64 [s1 + 0x28]\n 42965: a4 = a4 + a1\n 42968: u64 [s1 + 0xc8] = a2\n 42972: u64 [s1 + 0xc0] = a0\n 42976: u64 [s1 + 0xd0] = a3\n 42980: a0 = s1 + 0xe0\n 42984: a1 = s1 + 0xc0\n 42988: u64 [s1 + 0xd8] = a4\n 42992: ra = 550, jump @602\n      : @631 [@dyn 275] (gas: 5)\n 42998: a0 = u64 [s1 + 0xe8]\n 43002: t0 = u64 [s1 + 0xf8]\n 43006: t1 = u64 [s1 + 0xe0]\n 43010: a3 = u64 [s1 + 0xf0]\n 43014: jump @637\n      : @632 (gas: 3)\n 43017: a0 = 0x40\n 43020: a1 = 0x20\n 43023: ra = 552, jump @0\n      : @633 [@dyn 276] (gas: 104)\n 43030: a1 = u8 [a0 + 0x11]\n 43033: a2 = u8 [a0 + 0x10]\n 43036: a3 = u8 [a0 + 0x12]\n 43039: a4 = u8 [a0 + 0x13]\n 43042: a1 = a1 << 0x8\n 43045: a1 = a1 | a2\n 43048: a3 = a3 << 0x10\n 43051: a4 = a4 << 0x18\n 43054: a3 = a3 | a4\n 43057: a1 = a1 | a3\n 43060: a2 = u8 [a0 + 0x15]\n 43063: a3 = u8 [a0 + 0x14]\n 43066: a4 = u8 [a0 + 0x16]\n 43069: a5 = u8 [a0 + 0x17]\n 43072: a2 = a2 << 0x8\n 43075: a2 = a2 | a3\n 43078: a4 = a4 << 0x10\n 43081: a5 = a5 << 0x18\n 43084: a4 = a4 | a5\n 43087: a2 = a2 | a4\n 43090: a2 = a2 << 0x20\n 43093: t0 = a2 | a1\n 43096: a2 = u8 [a0 + 0x1]\n 43099: a3 = u8 [a0]\n 43101: a4 = u8 [a0 + 0x2]\n 43104: a5 = u8 [a0 + 0x3]\n 43107: a2 = a2 << 0x8\n 43110: a2 = a2 | a3\n 43113: a4 = a4 << 0x10\n 43116: a5 = a5 << 0x18\n 43119: a4 = a4 | a5\n 43122: a2 = a2 | a4\n 43125: a3 = u8 [a0 + 0x5]\n 43128: a4 = u8 [a0 + 0x4]\n 43131: a5 = u8 [a0 + 0x6]\n 43134: a1 = u8 [a0 + 0x7]\n 43137: a3 = a3 << 0x8\n 43140: a3 = a3 | a4\n 43143: a5 = a5 << 0x10\n 43146: a1 = a1 << 0x18\n 43149: a1 = a1 | a5\n 43152: a1 = a1 | a3\n 43155: a1 = a1 << 0x20\n 43158: t1 = a1 | a2\n 43161: a1 = u8 [a0 + 0x19]\n 43164: a3 = u8 [a0 + 0x18]\n 43167: a4 = u8 [a0 + 0x1a]\n 43170: a5 = u8 [a0 + 0x1b]\n 43173: a1 = a1 << 0x8\n 43176: a1 = a1 | a3\n 43179: a4 = a4 << 0x10\n 43182: a5 = a5 << 0x18\n 43185: a4 = a4 | a5\n 43188: a1 = a1 | a4\n 43191: a3 = u8 [a0 + 0x1d]\n 43194: a4 = u8 [a0 + 0x1c]\n 43197: a5 = u8 [a0 + 0x1e]\n 43200: a2 = u8 [a0 + 0x1f]\n 43203: a3 = a3 << 0x8\n 43206: a3 = a3 | a4\n 43209: a5 = a5 << 0x10\n 43212: a2 = a2 << 0x18\n 43215: a2 = a2 | a5\n 43218: a2 = a2 | a3\n 43221: a2 = a2 << 0x20\n 43224: a3 = a2 | a1\n 43227: a1 = u8 [a0 + 0x9]\n 43230: a2 = u8 [a0 + 0x8]\n 43233: a4 = u8 [a0 + 0xa]\n 43236: a5 = u8 [a0 + 0xb]\n 43239: a1 = a1 << 0x8\n 43242: a1 = a1 | a2\n 43245: a4 = a4 << 0x10\n 43248: a5 = a5 << 0x18\n 43251: a4 = a4 | a5\n 43254: a1 = a1 | a4\n 43257: a2 = u8 [a0 + 0xd]\n 43260: a4 = u8 [a0 + 0xc]\n 43263: a5 = u8 [a0 + 0xe]\n 43266: a0 = u8 [a0 + 0xf]\n 43269: a2 = a2 << 0x8\n 43272: a2 = a2 | a4\n 43275: a5 = a5 << 0x10\n 43278: a0 = a0 << 0x18\n 43281: a0 = a0 | a5\n 43284: a0 = a0 | a2\n 43287: a0 = a0 << 0x20\n 43290: a0 = a0 | a1\n 43293: a4 = reverse a0\n 43295: a1 = reverse a3\n 43297: a2 = reverse t1\n 43299: a0 = reverse t0\n 43301: u64 [s1 + 0x38] = a0\n 43304: u64 [s1 + 0x28] = a2\n 43307: a0 = a0 | a2\n 43310: a2 = a1\n 43312: a1 = a1 | a4\n 43315: a1 = a1 | a0\n 43318: a1 = a1 >> 0x20\n 43321: u64 [s1 + 0x30] = a4\n 43324: a0 = a0 | a4\n 43327: a0 = a0 << 0x20\n 43330: a0 = a0 | a1\n 43333: jump @638 if a0 != 0\n      : @634 (gas: 5)\n 43337: u64 [s1 + 0x20] = a2\n 43340: i32 a0 = a2 + 0\n 43342: a1 = 0x20\n 43345: u64 [s1 + 0x18] = a0\n 43348: ra = 554, jump @0\n      : @635 [@dyn 277] (gas: 51)\n 43355: u8 [a0 + 31] = 0\n 43358: u8 [a0 + 30] = 0\n 43361: u8 [a0 + 29] = 0\n 43364: u8 [a0 + 28] = 0\n 43367: u8 [a0 + 27] = 0\n 43370: u8 [a0 + 26] = 0\n 43373: u8 [a0 + 25] = 0\n 43376: u8 [a0 + 24] = 0\n 43379: u8 [a0 + 23] = 0\n 43382: u8 [a0 + 22] = 0\n 43385: u8 [a0 + 21] = 0\n 43388: u8 [a0 + 20] = 0\n 43391: u8 [a0 + 19] = 0\n 43394: u8 [a0 + 18] = 0\n 43397: u8 [a0 + 17] = 0\n 43400: u8 [a0 + 16] = 0\n 43403: u8 [a0 + 15] = 0\n 43406: u8 [a0 + 14] = 0\n 43409: u8 [a0 + 13] = 0\n 43412: u8 [a0 + 12] = 0\n 43415: u8 [a0 + 11] = 0\n 43418: u8 [a0 + 10] = 0\n 43421: u8 [a0 + 9] = 0\n 43424: u8 [a0 + 8] = 0\n 43427: u8 [a0 + 7] = 0\n 43430: u8 [a0 + 6] = 0\n 43433: u8 [a0 + 5] = 0\n 43436: u8 [a0 + 4] = 0\n 43439: u8 [a0 + 3] = 0xa0\n 43444: u8 [a0 + 2] = 0x79\n 43448: u8 [a0 + 1] = 0xc3\n 43453: u8 [a0 + 0] = 0x8\n 43456: a1 = u64 [s1 + 0x20]\n 43459: a0 = a1 + 0x4\n 43462: a1 = a0 <u a1\n 43465: a3 = u64 [s1 + 0x38]\n 43468: a2 = a3 + a1\n 43471: a3 = a2 <u a3\n 43474: a3 = a1 if a1 == 0\n 43477: a1 = u64 [s1 + 0x30]\n 43480: a3 = a3 + a1\n 43483: a1 = a3 <u a1\n 43486: a4 = u64 [s1 + 0x28]\n 43489: a4 = a4 + a1\n 43492: u64 [s1 + 0x48] = a2\n 43495: u64 [s1 + 0x40] = a0\n 43498: u64 [s1 + 0x50] = a3\n 43501: a0 = s1 + 0x60\n 43504: a1 = s1 + 0x40\n 43507: u64 [s1 + 0x58] = a4\n 43510: ra = 556, jump @610\n      : @636 [@dyn 278] (gas: 5)\n 43516: a0 = u64 [s1 + 0x68]\n 43519: t0 = u64 [s1 + 0x78]\n 43522: t1 = u64 [s1 + 0x60]\n 43525: a3 = u64 [s1 + 0x70]\n 43528: fallthrough\n      : @637 (gas: 27)\n 43529: a1 = u64 [s1 + 0x38]\n 43532: a4 = a0 ^ a1\n 43535: a5 = a0 <u a1\n 43538: ra = a1\n 43540: t2 = u64 [s1 + 0x20]\n 43543: a1 = t1 <u t2\n 43546: a5 = a1 if a4 == 0\n 43549: a2 = u64 [s1 + 0x30]\n 43552: a4 = a3 - a2\n 43555: a3 = a3 <u a2\n 43558: a2 = u64 [s1 + 0x28]\n 43561: a2 = t0 - a2\n 43564: a2 = a2 - a3\n 43567: a3 = a4 <u a5\n 43570: a2 = a2 - a3\n 43573: a4 = a4 - a5\n 43576: a0 = a0 - ra\n 43579: a1 = a0 - a1\n 43582: a0 = t1 - t2\n 43585: a1 = a1 | a2\n 43588: a2 = a0 | a4\n 43591: a2 = a2 | a1\n 43594: a1 = a1 | a4\n 43597: a2 = a2 >> 0x20\n 43600: a1 = a1 << 0x20\n 43603: a1 = a1 | a2\n 43606: jump @643 if a1 == 0\n      : @638 (gas: 1)\n 43609: trap\n      : @639 (gas: 8)\n 43610: u64 [s1 + 176] = 0\n 43614: u64 [s1 + 168] = 0\n 43618: u64 [s1 + 160] = 0\n 43622: a0 = 0x4e487b7100000000\n 43632: a1 = s1 + 0xa0\n 43636: u64 [s1 + 0xb8] = a0\n 43640: a0 = 0\n 43642: ra = 558, jump @23\n      : @640 [@dyn 279] (gas: 7)\n 43649: u64 [s1 + 152] = 0\n 43653: u64 [s1 + 144] = 0\n 43657: u64 [s1 + 128] = 0x11\n 43662: a0 = 0x4\n 43665: a1 = s1 + 0x80\n 43669: u64 [s1 + 136] = 0\n 43673: ra = 560, jump @23\n      : @641 [@dyn 280] (gas: 3)\n 43680: a1 = 0x24\n 43683: a0 = 0\n 43685: ra = 562, jump @0\n      : @642 [@dyn 281] (gas: 5)\n 43692: i32 a1 = a0 + 0\n 43694: a0 = 0x1\n 43697: a2 = 0x24\n 43700: ecalli 11 // 'seal_return'\n 43702: fallthrough\n      : @643 (gas: 4)\n 43703: i32 a1 = a0 + 0\n 43705: u64 [s1 + 0x38] = a1\n 43708: a0 = u64 [s1 + 0x18]\n 43711: ra = 564, jump @0\n      : @644 [@dyn 282] (gas: 6)\n 43718: i32 a1 = a0 + 0\n 43720: a0 = 0x1\n 43723: a2 = u64 [s1 + 0x38]\n 43726: ra = 0x236\n 43730: ecalli 11 // 'seal_return'\n 43732: fallthrough\n      : @645 [@dyn 283] (gas: 47)\n 43733: sp = sp + 0xfffffffffffffe80\n 43737: u64 [sp + 0x178] = ra\n 43741: u64 [sp + 0x170] = s0\n 43745: u64 [sp + 0x168] = s1\n 43749: s0 = sp + 0x180\n 43753: sp = sp & 0xffffffffffffffe0\n 43756: a3 = u64 [a2 + 0x18]\n 43759: u64 [sp] = a3\n 43761: a3 = u64 [a2 + 0x10]\n 43764: u64 [sp + 0x8] = a3\n 43767: a3 = u64 [a2 + 0x8]\n 43770: u64 [sp + 0x10] = a3\n 43773: a2 = u64 [a2]\n 43775: u64 [sp + 0x18] = a2\n 43778: a2 = u64 [a1 + 0x18]\n 43781: u64 [sp + 0x20] = a2\n 43784: a2 = u64 [a1 + 0x10]\n 43787: u64 [sp + 0x28] = a2\n 43790: a2 = u64 [a1 + 0x8]\n 43793: u64 [sp + 0x30] = a2\n 43796: a1 = u64 [a1]\n 43798: u64 [sp + 0x38] = a1\n 43801: a1 = u64 [a0 + 0x18]\n 43804: u64 [sp + 0x40] = a1\n 43807: a1 = u64 [a0 + 0x10]\n 43810: u64 [sp + 0x48] = a1\n 43813: a1 = u64 [a0 + 0x8]\n 43816: u64 [sp + 0x50] = a1\n 43819: a0 = u64 [a0]\n 43821: u64 [sp + 0x58] = a0\n 43824: u64 [sp + 312] = 0\n 43828: u64 [sp + 304] = 0\n 43832: u64 [sp + 296] = 0\n 43836: s1 = 0x3\n 43839: u64 [sp + 0x120] = s1\n 43843: u64 [sp + 344] = 0\n 43847: u64 [sp + 336] = 0\n 43851: u64 [sp + 328] = 0\n 43855: u64 [sp + 320] = 0\n 43859: u32 [sp + 256] = 0x20\n 43864: i32 a1 = sp + 0x120\n 43868: i32 a3 = sp + 0x140\n 43872: i32 a4 = sp + 0x100\n 43876: a2 = 0xffffffffffffffff\n 43879: a0 = 0\n 43881: ecalli 7 // 'get_storage'\n 43883: fallthrough\n      : @646 (gas: 9)\n 43884: a0 = u64 [sp + 0x158]\n 43888: a1 = u64 [sp + 0x148]\n 43892: a2 = u64 [sp + 0x140]\n 43896: a3 = u64 [sp + 0x150]\n 43900: a0 = a0 | a1\n 43903: a1 = a2 ^ 0x1\n 43906: a1 = a1 | a3\n 43909: a0 = a0 | a1\n 43912: jump @649 if a0 != 0\n      : @647 (gas: 88)\n 43916: u64 [sp + 312] = 0\n 43920: u64 [sp + 304] = 0\n 43924: u64 [sp + 296] = 0\n 43928: u64 [sp + 288] = 0x3\n 43933: u64 [sp + 344] = 0\n 43937: u64 [sp + 336] = 0\n 43941: u64 [sp + 328] = 0\n 43945: u64 [sp + 320] = 0\n 43949: u32 [sp + 256] = 0x20\n 43954: i32 a1 = sp + 0x120\n 43958: i32 a3 = sp + 0x140\n 43962: i32 a4 = sp + 0x100\n 43966: a2 = 0xffffffffffffffff\n 43969: a0 = 0\n 43971: ecalli 7 // 'get_storage'\n 43973: u64 [sp + 312] = 0\n 43977: u64 [sp + 304] = 0\n 43981: u64 [sp + 296] = 0\n 43985: u64 [sp + 288] = 0x3\n 43990: u64 [sp + 344] = 0\n 43994: u64 [sp + 336] = 0\n 43998: u64 [sp + 328] = 0\n 44002: u64 [sp + 320] = 0\n 44006: i32 a1 = sp + 0x120\n 44010: i32 a3 = sp + 0x140\n 44014: a2 = 0xffffffffffffffff\n 44017: a4 = 0x20\n 44020: a0 = 0\n 44022: ecalli 13 // 'set_storage'\n 44024: a0 = u64 [sp]\n 44026: u64 [sp + 0x78] = a0\n 44029: a0 = u64 [sp + 0x8]\n 44032: u64 [sp + 0x70] = a0\n 44035: a0 = u64 [sp + 0x10]\n 44038: u64 [sp + 0x68] = a0\n 44041: a0 = u64 [sp + 0x18]\n 44044: u64 [sp + 0x60] = a0\n 44047: a0 = u64 [sp + 0x20]\n 44050: u64 [sp + 0x98] = a0\n 44054: a0 = u64 [sp + 0x28]\n 44057: u64 [sp + 0x90] = a0\n 44061: a0 = u64 [sp + 0x30]\n 44064: u64 [sp + 0x88] = a0\n 44068: a0 = u64 [sp + 0x38]\n 44071: u64 [sp + 0x80] = a0\n 44075: a0 = u64 [sp + 0x40]\n 44078: u64 [sp + 0xb8] = a0\n 44082: a0 = u64 [sp + 0x48]\n 44085: u64 [sp + 0xb0] = a0\n 44089: a0 = u64 [sp + 0x50]\n 44092: u64 [sp + 0xa8] = a0\n 44096: a0 = sp + 0xa0\n 44100: a1 = sp + 0x80\n 44104: a2 = sp + 0x60\n 44107: a3 = u64 [sp + 0x58]\n 44110: u64 [sp + 0xa0] = a3\n 44114: ra = 0x238\n 44118: sp = sp + 0xfffffffffffffcc0\n 44122: u64 [sp + 0x338] = ra\n 44126: u64 [sp + 0x330] = s0\n 44130: u64 [sp + 808] = 0x3\n 44135: s0 = sp + 0x340\n 44139: sp = sp & 0xffffffffffffffe0\n 44142: a3 = u64 [a2 + 0x18]\n 44145: u64 [sp + 0x18] = a3\n 44148: a3 = u64 [a2 + 0x10]\n 44151: u64 [sp + 0x20] = a3\n 44154: a3 = u64 [a2 + 0x8]\n 44157: u64 [sp + 0x28] = a3\n 44160: a2 = u64 [a2]\n 44162: u64 [sp + 0x30] = a2\n 44165: a2 = u64 [a1 + 0x10]\n 44168: u64 [sp + 0x118] = a2\n 44172: a2 = u64 [a1 + 0x8]\n 44175: u64 [sp + 0x120] = a2\n 44179: a1 = u64 [a1]\n 44181: u64 [sp + 0x128] = a1\n 44185: a1 = u64 [a0]\n 44187: u64 [sp + 0x178] = a1\n 44191: a1 = u64 [a0 + 0x8]\n 44194: u64 [sp + 0x170] = a1\n 44198: a1 = u64 [a0 + 0x10]\n 44201: u64 [sp + 0x168] = a1\n 44205: s1 = u64 [a0 + 0x18]\n 44208: a1 = 0x20\n 44211: a0 = 0\n 44213: ra = 0x24c\n 44217: jump @0\n      : @648 [@dyn 284] (gas: 35)\n 44221: u64 [sp + 312] = 0\n 44225: u64 [sp + 304] = 0\n 44229: u64 [sp + 296] = 0\n 44233: u64 [sp + 0x120] = s1\n 44237: u64 [sp + 344] = 0\n 44241: u64 [sp + 336] = 0\n 44245: u64 [sp + 328] = 0\n 44249: u64 [sp + 320] = 0\n 44253: u32 [sp + 256] = 0x20\n 44258: i32 a1 = sp + 0x120\n 44262: i32 a3 = sp + 0x140\n 44266: i32 a4 = sp + 0x100\n 44270: a2 = 0xffffffffffffffff\n 44273: a0 = 0\n 44275: ecalli 7 // 'get_storage'\n 44277: u64 [sp + 312] = 0\n 44281: u64 [sp + 304] = 0\n 44285: u64 [sp + 296] = 0\n 44289: u64 [sp + 0x120] = s1\n 44293: u64 [sp + 344] = 0\n 44297: u64 [sp + 336] = 0\n 44301: u64 [sp + 328] = 0\n 44305: u64 [sp + 320] = 0x1\n 44310: i32 a1 = sp + 0x120\n 44314: i32 a3 = sp + 0x140\n 44318: a2 = 0xffffffffffffffff\n 44321: a4 = 0x20\n 44324: a0 = 0\n 44326: ecalli 13 // 'set_storage'\n 44328: sp = s0 + 0xfffffffffffffe80\n 44332: ra = u64 [sp + 0x178]\n 44336: s0 = u64 [sp + 0x170]\n 44340: s1 = u64 [sp + 0x168]\n 44344: sp = sp + 0x180\n 44348: ret\n      : @649 (gas: 3)\n 44350: a0 = 0x40\n 44353: a1 = 0x20\n 44356: ra = 570, jump @0\n      : @650 [@dyn 285] (gas: 103)\n 44363: a1 = u8 [a0 + 0x11]\n 44366: a2 = u8 [a0 + 0x10]\n 44369: a3 = u8 [a0 + 0x12]\n 44372: a4 = u8 [a0 + 0x13]\n 44375: a1 = a1 << 0x8\n 44378: a1 = a1 | a2\n 44381: a3 = a3 << 0x10\n 44384: a4 = a4 << 0x18\n 44387: a3 = a3 | a4\n 44390: a1 = a1 | a3\n 44393: a2 = u8 [a0 + 0x15]\n 44396: a3 = u8 [a0 + 0x14]\n 44399: a4 = u8 [a0 + 0x16]\n 44402: a5 = u8 [a0 + 0x17]\n 44405: a2 = a2 << 0x8\n 44408: a2 = a2 | a3\n 44411: a4 = a4 << 0x10\n 44414: a5 = a5 << 0x18\n 44417: a4 = a4 | a5\n 44420: a2 = a2 | a4\n 44423: a2 = a2 << 0x20\n 44426: t0 = a2 | a1\n 44429: a2 = u8 [a0 + 0x1]\n 44432: a3 = u8 [a0]\n 44434: a4 = u8 [a0 + 0x2]\n 44437: a5 = u8 [a0 + 0x3]\n 44440: a2 = a2 << 0x8\n 44443: a2 = a2 | a3\n 44446: a4 = a4 << 0x10\n 44449: a5 = a5 << 0x18\n 44452: a4 = a4 | a5\n 44455: a2 = a2 | a4\n 44458: a3 = u8 [a0 + 0x5]\n 44461: a4 = u8 [a0 + 0x4]\n 44464: a5 = u8 [a0 + 0x6]\n 44467: s1 = u8 [a0 + 0x7]\n 44470: a3 = a3 << 0x8\n 44473: a3 = a3 | a4\n 44476: a5 = a5 << 0x10\n 44479: s1 = s1 << 0x18\n 44482: a5 = a5 | s1\n 44485: a3 = a3 | a5\n 44488: a3 = a3 << 0x20\n 44491: a2 = a2 | a3\n 44494: a3 = u8 [a0 + 0x19]\n 44497: a4 = u8 [a0 + 0x18]\n 44500: a5 = u8 [a0 + 0x1a]\n 44503: s1 = u8 [a0 + 0x1b]\n 44506: a3 = a3 << 0x8\n 44509: a3 = a3 | a4\n 44512: a5 = a5 << 0x10\n 44515: s1 = s1 << 0x18\n 44518: a5 = a5 | s1\n 44521: a3 = a3 | a5\n 44524: a4 = u8 [a0 + 0x1d]\n 44527: a5 = u8 [a0 + 0x1c]\n 44530: s1 = u8 [a0 + 0x1e]\n 44533: a1 = u8 [a0 + 0x1f]\n 44536: a4 = a4 << 0x8\n 44539: a4 = a4 | a5\n 44542: s1 = s1 << 0x10\n 44545: a1 = a1 << 0x18\n 44548: a1 = a1 | s1\n 44551: a1 = a1 | a4\n 44554: a1 = a1 << 0x20\n 44557: a3 = a3 | a1\n 44560: a1 = u8 [a0 + 0x9]\n 44563: a4 = u8 [a0 + 0x8]\n 44566: a5 = u8 [a0 + 0xa]\n 44569: s1 = u8 [a0 + 0xb]\n 44572: a1 = a1 << 0x8\n 44575: a1 = a1 | a4\n 44578: a5 = a5 << 0x10\n 44581: s1 = s1 << 0x18\n 44584: a5 = a5 | s1\n 44587: a1 = a1 | a5\n 44590: a4 = u8 [a0 + 0xd]\n 44593: a5 = u8 [a0 + 0xc]\n 44596: s1 = u8 [a0 + 0xe]\n 44599: a0 = u8 [a0 + 0xf]\n 44602: a4 = a4 << 0x8\n 44605: a4 = a4 | a5\n 44608: s1 = s1 << 0x10\n 44611: a0 = a0 << 0x18\n 44614: a0 = a0 | s1\n 44617: a0 = a0 | a4\n 44620: a0 = a0 << 0x20\n 44623: a0 = a0 | a1\n 44626: s1 = reverse a0\n 44628: a1 = reverse a3\n 44630: a2 = reverse a2\n 44632: a0 = reverse t0\n 44634: u64 [sp + 0x58] = a0\n 44637: u64 [sp + 0x50] = a2\n 44640: a0 = a0 | a2\n 44643: a2 = a1\n 44645: a1 = a1 | s1\n 44648: a1 = a1 | a0\n 44651: a1 = a1 >> 0x20\n 44654: a0 = a0 | s1\n 44657: a0 = a0 << 0x20\n 44660: a0 = a0 | a1\n 44663: jump @654 if a0 != 0\n      : @651 (gas: 5)\n 44667: u64 [sp + 0x48] = a2\n 44670: i32 a0 = a2 + 0\n 44672: a1 = 0x20\n 44675: u64 [sp + 0x40] = a0\n 44678: ra = 572, jump @0\n      : @652 [@dyn 286] (gas: 50)\n 44685: u8 [a0 + 31] = 0\n 44688: u8 [a0 + 30] = 0\n 44691: u8 [a0 + 29] = 0\n 44694: u8 [a0 + 28] = 0\n 44697: u8 [a0 + 27] = 0\n 44700: u8 [a0 + 26] = 0\n 44703: u8 [a0 + 25] = 0\n 44706: u8 [a0 + 24] = 0\n 44709: u8 [a0 + 23] = 0\n 44712: u8 [a0 + 22] = 0\n 44715: u8 [a0 + 21] = 0\n 44718: u8 [a0 + 20] = 0\n 44721: u8 [a0 + 19] = 0\n 44724: u8 [a0 + 18] = 0\n 44727: u8 [a0 + 17] = 0\n 44730: u8 [a0 + 16] = 0\n 44733: u8 [a0 + 15] = 0\n 44736: u8 [a0 + 14] = 0\n 44739: u8 [a0 + 13] = 0\n 44742: u8 [a0 + 12] = 0\n 44745: u8 [a0 + 11] = 0\n 44748: u8 [a0 + 10] = 0\n 44751: u8 [a0 + 9] = 0\n 44754: u8 [a0 + 8] = 0\n 44757: u8 [a0 + 7] = 0\n 44760: u8 [a0 + 6] = 0\n 44763: u8 [a0 + 5] = 0\n 44766: u8 [a0 + 4] = 0\n 44769: u8 [a0 + 3] = 0xa0\n 44774: u8 [a0 + 2] = 0x79\n 44778: u8 [a0 + 1] = 0xc3\n 44783: u8 [a0 + 0] = 0x8\n 44786: a1 = u64 [sp + 0x48]\n 44789: a0 = a1 + 0x4\n 44792: a1 = a0 <u a1\n 44795: a3 = u64 [sp + 0x58]\n 44798: a2 = a3 + a1\n 44801: a3 = a2 <u a3\n 44804: a3 = a1 if a1 == 0\n 44807: a3 = a3 + s1\n 44810: a1 = a3 <u s1\n 44813: a4 = u64 [sp + 0x50]\n 44816: a4 = a4 + a1\n 44819: u64 [sp + 0xc8] = a2\n 44823: u64 [sp + 0xc0] = a0\n 44827: u64 [sp + 0xd0] = a3\n 44831: a0 = sp + 0xe0\n 44835: a1 = sp + 0xc0\n 44839: u64 [sp + 0xd8] = a4\n 44843: ra = 574, jump @432\n      : @653 [@dyn 287] (gas: 30)\n 44849: a0 = u64 [sp + 0xe8]\n 44853: t0 = u64 [sp + 0xf8]\n 44857: t1 = u64 [sp + 0xe0]\n 44861: a3 = u64 [sp + 0xf0]\n 44865: a1 = u64 [sp + 0x58]\n 44868: a4 = a0 ^ a1\n 44871: a5 = a0 <u a1\n 44874: t2 = a1\n 44876: a2 = u64 [sp + 0x48]\n 44879: a1 = t1 <u a2\n 44882: a5 = a1 if a4 == 0\n 44885: a4 = a3 - s1\n 44888: a3 = a3 <u s1\n 44891: s1 = u64 [sp + 0x50]\n 44894: s1 = t0 - s1\n 44897: s1 = s1 - a3\n 44900: a3 = a4 <u a5\n 44903: s1 = s1 - a3\n 44906: a4 = a4 - a5\n 44909: a0 = a0 - t2\n 44912: a1 = a0 - a1\n 44915: a0 = t1 - a2\n 44918: a1 = a1 | s1\n 44921: a2 = a0 | a4\n 44924: a2 = a2 | a1\n 44927: a1 = a1 | a4\n 44930: a2 = a2 >> 0x20\n 44933: a1 = a1 << 0x20\n 44936: a1 = a1 | a2\n 44939: jump @655 if a1 == 0\n      : @654 (gas: 1)\n 44942: trap\n      : @655 (gas: 4)\n 44943: i32 s1 = a0 + 0\n 44945: a0 = u64 [sp + 0x40]\n 44948: a1 = s1\n 44950: ra = 576, jump @0\n      : @656 [@dyn 288] (gas: 6)\n 44957: i32 a1 = a0 + 0\n 44959: a0 = 0x1\n 44962: a2 = s1\n 44964: ra = 0x242\n 44968: ecalli 11 // 'seal_return'\n 44970: fallthrough\n      : @657 [@dyn 289] (gas: 12)\n 44971: a1 = u64 [a0 + 0x10]\n 44974: a2 = u64 [a0 + 0x18]\n 44977: a3 = u64 [a0 + 0x8]\n 44980: a0 = u64 [a0]\n 44982: a2 = a2 | a3\n 44985: a3 = a0 | a1\n 44988: a3 = a3 | a2\n 44991: a3 = a3 >> 0x20\n 44994: a1 = a1 | a2\n 44997: a1 = a1 << 0x20\n 45000: a1 = a1 | a3\n 45003: jump @660 if a1 != 0\n      : @658 (gas: 7)\n 45007: sp = sp + 0xfffffffffffffff0\n 45010: u64 [sp + 0x8] = ra\n 45013: u64 [sp] = s0\n 45015: i32 a0 = a0 + 0\n 45017: a1 = 0x20\n 45020: s0 = 0x20\n 45023: ra = 580, jump @0\n      : @659 [@dyn 290] (gas: 39)\n 45030: u8 [a0 + 31] = 0\n 45033: u8 [a0 + 30] = 0\n 45036: u8 [a0 + 29] = 0\n 45039: u8 [a0 + 28] = 0\n 45042: u8 [a0 + 27] = 0\n 45045: u8 [a0 + 26] = 0\n 45048: u8 [a0 + 25] = 0\n 45051: u8 [a0 + 24] = 0\n 45054: u8 [a0 + 23] = 0\n 45057: u8 [a0 + 22] = 0\n 45060: u8 [a0 + 21] = 0\n 45063: u8 [a0 + 20] = 0\n 45066: u8 [a0 + 19] = 0\n 45069: u8 [a0 + 18] = 0\n 45072: u8 [a0 + 17] = 0\n 45075: u8 [a0 + 16] = 0\n 45078: u8 [a0 + 15] = 0x65\n 45082: u8 [a0 + 14] = 0x73\n 45086: u8 [a0 + 13] = 0x61\n 45090: u8 [a0 + 12] = 0x68\n 45094: u8 [a0 + 11] = 0x63\n 45098: u8 [a0 + 10] = 0x72\n 45102: u8 [a0 + 9] = 0x75\n 45106: u8 [a0 + 8] = 0x70\n 45110: u8 [a0 + 0x7] = s0\n 45113: u8 [a0 + 6] = 0x64\n 45117: a2 = 0x69\n 45120: u8 [a0 + 0x5] = a2\n 45123: a3 = 0x6c\n 45126: u8 [a0 + 0x4] = a3\n 45129: u8 [a0 + 3] = 0x61\n 45133: u8 [a0 + 2] = 0x76\n 45137: a1 = 0x6e\n 45140: u8 [a0 + 0x1] = a1\n 45143: u8 [a0] = a2\n 45145: ra = u64 [sp + 0x8]\n 45148: s0 = u64 [sp]\n 45150: sp = sp + 0x10\n 45153: ret\n      : @660 (gas: 1)\n 45155: trap\n      : @661 (gas: 17)\n 45156: sp = sp + 0xffffffffffffffa0\n 45159: u64 [sp + 0x58] = ra\n 45162: u64 [sp + 0x50] = s0\n 45165: u64 [sp + 0x48] = s1\n 45168: a3 = u64 [a1 + 0x18]\n 45171: a4 = u64 [a1 + 0x10]\n 45174: a5 = u64 [a1 + 0x8]\n 45177: s1 = u64 [a1]\n 45179: a1 = a5 | a3\n 45182: a2 = s1 | a4\n 45185: a2 = a2 | a1\n 45188: a2 = a2 >> 0x20\n 45191: a1 = a1 | a4\n 45194: a1 = a1 << 0x20\n 45197: a1 = a1 | a2\n 45200: u64 [sp + 0x28] = a0\n 45203: jump @668 if a1 != 0\n      : @662 (gas: 19)\n 45207: a0 = s1 + 0x20\n 45210: u64 [sp + 0x30] = a0\n 45213: a0 = a0 <u s1\n 45216: a1 = a5 + a0\n 45219: u64 [sp + 0x40] = a1\n 45222: u64 [sp + 0x8] = a5\n 45225: s0 = a1 <u a5\n 45228: s0 = a0 if a0 == 0\n 45231: s0 = s0 + a4\n 45234: u64 [sp + 0x10] = a4\n 45237: a0 = s0 <u a4\n 45240: u64 [sp + 0x18] = a3\n 45243: a0 = a0 + a3\n 45246: u64 [sp + 0x38] = a0\n 45249: u64 [sp] = s1\n 45251: i32 a0 = s1 + 0\n 45253: a1 = 0x20\n 45256: s1 = 0x20\n 45259: ra = 582, jump @0\n      : @663 [@dyn 291] (gas: 45)\n 45266: u8 [a0 + 0x1f] = s1\n 45269: a1 = u64 [sp + 0x30]\n 45272: s1 = a1\n 45274: a1 = a1 | s0\n 45277: a2 = u64 [sp + 0x40]\n 45280: a4 = u64 [sp + 0x38]\n 45283: a2 = a2 | a4\n 45286: a1 = a1 | a2\n 45289: a1 = a1 >> 0x20\n 45292: u64 [sp + 0x20] = s0\n 45295: a2 = a2 | s0\n 45298: a2 = a2 << 0x20\n 45301: a1 = a1 | a2\n 45304: u8 [a0 + 30] = 0\n 45307: u8 [a0 + 29] = 0\n 45310: u8 [a0 + 28] = 0\n 45313: u8 [a0 + 27] = 0\n 45316: u8 [a0 + 26] = 0\n 45319: u8 [a0 + 25] = 0\n 45322: u8 [a0 + 24] = 0\n 45325: u8 [a0 + 23] = 0\n 45328: u8 [a0 + 22] = 0\n 45331: u8 [a0 + 21] = 0\n 45334: u8 [a0 + 20] = 0\n 45337: u8 [a0 + 19] = 0\n 45340: u8 [a0 + 18] = 0\n 45343: u8 [a0 + 17] = 0\n 45346: u8 [a0 + 16] = 0\n 45349: u8 [a0 + 15] = 0\n 45352: u8 [a0 + 14] = 0\n 45355: u8 [a0 + 13] = 0\n 45358: u8 [a0 + 12] = 0\n 45361: u8 [a0 + 11] = 0\n 45364: u8 [a0 + 10] = 0\n 45367: u8 [a0 + 9] = 0\n 45370: u8 [a0 + 8] = 0\n 45373: u8 [a0 + 7] = 0\n 45376: u8 [a0 + 6] = 0\n 45379: u8 [a0 + 5] = 0\n 45382: u8 [a0 + 4] = 0\n 45385: u8 [a0 + 3] = 0\n 45388: u8 [a0 + 2] = 0\n 45391: u8 [a0 + 1] = 0\n 45394: u8 [a0 + 0] = 0\n 45396: jump @668 if a1 != 0\n      : @664 (gas: 4)\n 45400: i32 s0 = s1 + 0\n 45402: a1 = 0x20\n 45405: a0 = s0\n 45407: ra = 584, jump @0\n      : @665 [@dyn 292] (gas: 41)\n 45414: u8 [a0 + 31] = 0x10\n 45418: u8 [a0 + 30] = 0\n 45421: u8 [a0 + 29] = 0\n 45424: u8 [a0 + 28] = 0\n 45427: u8 [a0 + 27] = 0\n 45430: u8 [a0 + 26] = 0\n 45433: u8 [a0 + 25] = 0\n 45436: u8 [a0 + 24] = 0\n 45439: u8 [a0 + 23] = 0\n 45442: u8 [a0 + 22] = 0\n 45445: u8 [a0 + 21] = 0\n 45448: u8 [a0 + 20] = 0\n 45451: u8 [a0 + 19] = 0\n 45454: u8 [a0 + 18] = 0\n 45457: u8 [a0 + 17] = 0\n 45460: u8 [a0 + 16] = 0\n 45463: u8 [a0 + 15] = 0\n 45466: u8 [a0 + 14] = 0\n 45469: u8 [a0 + 13] = 0\n 45472: u8 [a0 + 12] = 0\n 45475: u8 [a0 + 11] = 0\n 45478: u8 [a0 + 10] = 0\n 45481: u8 [a0 + 9] = 0\n 45484: u8 [a0 + 8] = 0\n 45487: u8 [a0 + 7] = 0\n 45490: u8 [a0 + 6] = 0\n 45493: u8 [a0 + 5] = 0\n 45496: u8 [a0 + 4] = 0\n 45499: u8 [a0 + 3] = 0\n 45502: u8 [a0 + 2] = 0\n 45505: u8 [a0 + 1] = 0\n 45508: a1 = u64 [sp + 0x20]\n 45511: a2 = u64 [sp + 0x38]\n 45514: a1 = a1 | a2\n 45517: a2 = 0xffffffe0\n 45527: a2 = s1 <u a2\n 45530: a3 = u64 [sp + 0x40]\n 45533: a2 = 0 if a3 != 0\n 45535: a2 = 0 if a1 != 0\n 45537: u8 [a0 + 0] = 0\n 45539: jump @668 if a2 == 0\n      : @666 (gas: 3)\n 45543: i32 a0 = s0 + 0x20\n 45546: a1 = 0x20\n 45549: ra = 586, jump @0\n      : @667 [@dyn 293] (gas: 54)\n 45556: u8 [a0 + 31] = 0\n 45559: u8 [a0 + 30] = 0\n 45562: u8 [a0 + 29] = 0\n 45565: u8 [a0 + 28] = 0\n 45568: u8 [a0 + 27] = 0\n 45571: u8 [a0 + 26] = 0\n 45574: u8 [a0 + 25] = 0\n 45577: u8 [a0 + 24] = 0\n 45580: u8 [a0 + 23] = 0\n 45583: u8 [a0 + 22] = 0\n 45586: u8 [a0 + 21] = 0\n 45589: u8 [a0 + 20] = 0\n 45592: u8 [a0 + 19] = 0\n 45595: u8 [a0 + 18] = 0\n 45598: u8 [a0 + 17] = 0\n 45601: u8 [a0 + 16] = 0\n 45604: u8 [a0 + 15] = 0x65\n 45608: u8 [a0 + 14] = 0x73\n 45612: u8 [a0 + 13] = 0x61\n 45616: u8 [a0 + 12] = 0x68\n 45620: u8 [a0 + 11] = 0x63\n 45624: u8 [a0 + 10] = 0x72\n 45628: u8 [a0 + 9] = 0x75\n 45632: u8 [a0 + 8] = 0x70\n 45636: u8 [a0 + 7] = 0x20\n 45640: u8 [a0 + 6] = 0x64\n 45644: u8 [a0 + 5] = 0x69\n 45648: u8 [a0 + 4] = 0x6c\n 45652: u8 [a0 + 3] = 0x61\n 45656: u8 [a0 + 2] = 0x76\n 45660: u8 [a0 + 1] = 0x6e\n 45664: u8 [a0 + 0] = 0x69\n 45667: a1 = u64 [sp]\n 45669: a0 = a1 + 0x60\n 45672: a1 = a0 <u a1\n 45675: a3 = u64 [sp + 0x8]\n 45678: a2 = a3 + a1\n 45681: a3 = a2 <u a3\n 45684: a3 = a1 if a1 == 0\n 45687: a1 = u64 [sp + 0x10]\n 45690: a3 = a3 + a1\n 45693: a1 = a3 <u a1\n 45696: a4 = u64 [sp + 0x18]\n 45699: a1 = a1 + a4\n 45702: a4 = u64 [sp + 0x28]\n 45705: u64 [a4] = a0\n 45707: u64 [a4 + 0x8] = a2\n 45710: u64 [a4 + 0x10] = a3\n 45713: u64 [a4 + 0x18] = a1\n 45716: ra = u64 [sp + 0x58]\n 45719: s0 = u64 [sp + 0x50]\n 45722: s1 = u64 [sp + 0x48]\n 45725: sp = sp + 0x60\n 45728: ret\n      : @668 (gas: 1)\n 45730: trap\n      : @669 [@dyn 294] (gas: 102)\n 45731: a1 = reverse s1\n 45733: a2 = u64 [sp + 0x168]\n 45737: a2 = reverse a2\n 45739: a3 = u64 [sp + 0x170]\n 45743: a4 = reverse a3\n 45745: a3 = u64 [sp + 0x178]\n 45749: a3 = reverse a3\n 45751: u8 [a0 + 0x18] = a3\n 45754: u8 [a0 + 0x10] = a4\n 45757: u8 [a0 + 0x8] = a2\n 45760: u8 [a0] = a1\n 45762: a5 = a3 >> 0x38\n 45765: u64 [sp + 0x110] = a5\n 45769: u8 [a0 + 0x1f] = a5\n 45772: a5 = a3 >> 0x30\n 45775: u64 [sp + 0x108] = a5\n 45779: u8 [a0 + 0x1e] = a5\n 45782: a5 = a3 >> 0x28\n 45785: u64 [sp + 0x100] = a5\n 45789: u8 [a0 + 0x1d] = a5\n 45792: a5 = a3 >> 0x20\n 45795: u64 [sp + 0xf8] = a5\n 45799: u8 [a0 + 0x1c] = a5\n 45802: a5 = a3 >> 0x18\n 45805: u64 [sp + 0xf0] = a5\n 45809: u8 [a0 + 0x1b] = a5\n 45812: a5 = a3 >> 0x10\n 45815: u64 [sp + 0xe8] = a5\n 45819: u8 [a0 + 0x1a] = a5\n 45822: u64 [sp + 0x140] = a3\n 45826: a3 = a3 >> 0x8\n 45829: u64 [sp + 0xe0] = a3\n 45833: u8 [a0 + 0x19] = a3\n 45836: a3 = a4 >> 0x38\n 45839: u64 [sp + 0xd8] = a3\n 45843: u8 [a0 + 0x17] = a3\n 45846: a3 = a4 >> 0x30\n 45849: u64 [sp + 0xd0] = a3\n 45853: u8 [a0 + 0x16] = a3\n 45856: a3 = a4 >> 0x28\n 45859: u64 [sp + 0xc8] = a3\n 45863: u8 [a0 + 0x15] = a3\n 45866: a3 = a4 >> 0x20\n 45869: u64 [sp + 0xc0] = a3\n 45873: u8 [a0 + 0x14] = a3\n 45876: a3 = a4 >> 0x18\n 45879: u64 [sp + 0xb8] = a3\n 45883: u8 [a0 + 0x13] = a3\n 45886: a3 = a4 >> 0x10\n 45889: u64 [sp + 0xb0] = a3\n 45893: u8 [a0 + 0x12] = a3\n 45896: u64 [sp + 0x148] = a4\n 45900: a4 = a4 >> 0x8\n 45903: u64 [sp + 0xa8] = a4\n 45907: u8 [a0 + 0x11] = a4\n 45910: a3 = a2 >> 0x38\n 45913: u64 [sp + 0xa0] = a3\n 45917: u8 [a0 + 0xf] = a3\n 45920: a3 = a2 >> 0x30\n 45923: u64 [sp + 0x98] = a3\n 45927: u8 [a0 + 0xe] = a3\n 45930: a3 = a2 >> 0x28\n 45933: u64 [sp + 0x90] = a3\n 45937: u8 [a0 + 0xd] = a3\n 45940: a3 = a2 >> 0x20\n 45943: u64 [sp + 0x88] = a3\n 45947: u8 [a0 + 0xc] = a3\n 45950: a3 = a2 >> 0x18\n 45953: u64 [sp + 0x80] = a3\n 45957: u8 [a0 + 0xb] = a3\n 45960: a3 = a2 >> 0x10\n 45963: u64 [sp + 0x78] = a3\n 45966: u8 [a0 + 0xa] = a3\n 45969: u64 [sp + 0x150] = a2\n 45973: a2 = a2 >> 0x8\n 45976: u64 [sp + 0x70] = a2\n 45979: u8 [a0 + 0x9] = a2\n 45982: a2 = a1 >> 0x38\n 45985: u64 [sp + 0x68] = a2\n 45988: u8 [a0 + 0x7] = a2\n 45991: a2 = a1 >> 0x30\n 45994: u64 [sp + 0x60] = a2\n 45997: u8 [a0 + 0x6] = a2\n 46000: a2 = a1 >> 0x28\n 46003: u64 [sp + 0x58] = a2\n 46006: u8 [a0 + 0x5] = a2\n 46009: a2 = a1 >> 0x20\n 46012: u64 [sp + 0x50] = a2\n 46015: u8 [a0 + 0x4] = a2\n 46018: a2 = a1 >> 0x18\n 46021: u64 [sp + 0x48] = a2\n 46024: u8 [a0 + 0x3] = a2\n 46027: a2 = a1 >> 0x10\n 46030: u64 [sp + 0x40] = a2\n 46033: u8 [a0 + 0x2] = a2\n 46036: u64 [sp + 0x158] = a1\n 46040: a1 = a1 >> 0x8\n 46043: u64 [sp + 0x38] = a1\n 46046: u8 [a0 + 0x1] = a1\n 46049: a0 = 0x20\n 46052: a1 = 0x20\n 46055: ra = 590, jump @0\n      : @670 [@dyn 295] (gas: 35)\n 46062: u8 [a0 + 31] = 0x1\n 46066: u8 [a0 + 30] = 0\n 46069: u8 [a0 + 29] = 0\n 46072: u8 [a0 + 28] = 0\n 46075: u8 [a0 + 27] = 0\n 46078: u8 [a0 + 26] = 0\n 46081: u8 [a0 + 25] = 0\n 46084: u8 [a0 + 24] = 0\n 46087: u8 [a0 + 23] = 0\n 46090: u8 [a0 + 22] = 0\n 46093: u8 [a0 + 21] = 0\n 46096: u8 [a0 + 20] = 0\n 46099: u8 [a0 + 19] = 0\n 46102: u8 [a0 + 18] = 0\n 46105: u8 [a0 + 17] = 0\n 46108: u8 [a0 + 16] = 0\n 46111: u8 [a0 + 15] = 0\n 46114: u8 [a0 + 14] = 0\n 46117: u8 [a0 + 13] = 0\n 46120: u8 [a0 + 12] = 0\n 46123: u8 [a0 + 11] = 0\n 46126: u8 [a0 + 10] = 0\n 46129: u8 [a0 + 9] = 0\n 46132: u8 [a0 + 8] = 0\n 46135: u8 [a0 + 7] = 0\n 46138: u8 [a0 + 6] = 0\n 46141: u8 [a0 + 5] = 0\n 46144: u8 [a0 + 4] = 0\n 46147: u8 [a0 + 3] = 0\n 46150: u8 [a0 + 2] = 0\n 46153: u8 [a0 + 1] = 0\n 46156: u8 [a0 + 0] = 0\n 46158: a1 = 0x40\n 46161: a0 = 0\n 46163: ra = 592, jump @0\n      : @671 [@dyn 296] (gas: 53)\n 46170: i32 a0 = a0 + 0\n 46172: i32 a2 = sp + 0x2a0\n 46176: a1 = 0x40\n 46179: ecalli 8 // 'hash_keccak_256'\n 46181: a0 = u64 [sp + 0x2b8]\n 46185: a1 = u64 [sp + 0x2b0]\n 46189: a2 = u64 [sp + 0x2a8]\n 46193: a3 = u64 [sp + 0x2a0]\n 46197: a0 = reverse a0\n 46199: u64 [sp + 0x178] = a0\n 46203: a0 = reverse a1\n 46205: u64 [sp + 0x170] = a0\n 46209: a0 = reverse a2\n 46211: u64 [sp + 0x168] = a0\n 46215: a0 = reverse a3\n 46217: u64 [sp + 0x160] = a0\n 46221: i32 a0 = sp + 0x200\n 46225: ecalli 4 // 'caller'\n 46227: a0 = u64 [sp + 0x208]\n 46231: a1 = u64 [sp + 0x200]\n 46235: a2 = i32 [sp + 0x210]\n 46239: a0 = reverse a0\n 46241: a3 = a0 >> 0x20\n 46244: s1 = reverse a1\n 46246: a1 = s1 << 0x20\n 46249: a1 = a1 | a3\n 46252: u64 [sp + 0x138] = a1\n 46256: a0 = a0 << 0x20\n 46259: a1 = reverse a2\n 46261: a1 = a1 >> 0x20\n 46264: a0 = a0 | a1\n 46267: u64 [sp + 0x130] = a0\n 46271: s1 = s1 >> 0x20\n 46274: a0 = u64 [sp + 0x160]\n 46278: u64 [sp + 0x318] = a0\n 46282: a0 = u64 [sp + 0x168]\n 46286: u64 [sp + 0x310] = a0\n 46290: a0 = u64 [sp + 0x170]\n 46294: u64 [sp + 0x308] = a0\n 46298: a0 = u64 [sp + 0x178]\n 46302: u64 [sp + 0x300] = a0\n 46306: u64 [sp + 696] = 0\n 46310: u64 [sp + 688] = 0\n 46314: u64 [sp + 680] = 0\n 46318: u64 [sp + 672] = 0\n 46322: u32 [sp + 800] = 0x20\n 46327: i32 a1 = sp + 0x300\n 46331: i32 a3 = sp + 0x2a0\n 46335: i32 a4 = sp + 0x320\n 46339: a2 = 0xffffffffffffffff\n 46342: a0 = 0\n 46344: ecalli 7 // 'get_storage'\n 46346: fallthrough\n      : @672 (gas: 11)\n 46347: a0 = u32 [sp + 0x2b0]\n 46351: a1 = u64 [sp + 0x2a0]\n 46355: a2 = u64 [sp + 0x2a8]\n 46359: a0 = a0 ^ s1\n 46362: a3 = u64 [sp + 0x130]\n 46366: a1 = a1 ^ a3\n 46369: a0 = a0 | a1\n 46372: a1 = u64 [sp + 0x138]\n 46376: a1 = a1 ^ a2\n 46379: a0 = a0 | a1\n 46382: jump @697 if a0 != 0\n      : @673 (gas: 2)\n 46386: a1 = 0x20\n 46389: ra = 594, jump @0\n      : @674 [@dyn 297] (gas: 67)\n 46396: a1 = u64 [sp + 0xa0]\n 46400: u8 [a0 + 0xf] = a1\n 46403: a1 = u64 [sp + 0x98]\n 46407: u8 [a0 + 0xe] = a1\n 46410: a1 = u64 [sp + 0x90]\n 46414: u8 [a0 + 0xd] = a1\n 46417: a1 = u64 [sp + 0x88]\n 46421: u8 [a0 + 0xc] = a1\n 46424: a1 = u64 [sp + 0x80]\n 46428: u8 [a0 + 0xb] = a1\n 46431: a1 = u64 [sp + 0x78]\n 46434: u8 [a0 + 0xa] = a1\n 46437: a1 = u64 [sp + 0x70]\n 46440: u8 [a0 + 0x9] = a1\n 46443: a1 = u64 [sp + 0x68]\n 46446: u8 [a0 + 0x7] = a1\n 46449: a1 = u64 [sp + 0x60]\n 46452: u8 [a0 + 0x6] = a1\n 46455: a1 = u64 [sp + 0x58]\n 46458: u8 [a0 + 0x5] = a1\n 46461: a1 = u64 [sp + 0x50]\n 46464: u8 [a0 + 0x4] = a1\n 46467: a1 = u64 [sp + 0x48]\n 46470: u8 [a0 + 0x3] = a1\n 46473: a1 = u64 [sp + 0x40]\n 46476: u8 [a0 + 0x2] = a1\n 46479: a1 = u64 [sp + 0x38]\n 46482: u8 [a0 + 0x1] = a1\n 46485: a1 = u64 [sp + 0xd8]\n 46489: u8 [a0 + 0x17] = a1\n 46492: a1 = u64 [sp + 0xd0]\n 46496: u8 [a0 + 0x16] = a1\n 46499: a1 = u64 [sp + 0xc8]\n 46503: u8 [a0 + 0x15] = a1\n 46506: a1 = u64 [sp + 0xc0]\n 46510: u8 [a0 + 0x14] = a1\n 46513: a1 = u64 [sp + 0xb8]\n 46517: u8 [a0 + 0x13] = a1\n 46520: a1 = u64 [sp + 0xb0]\n 46524: u8 [a0 + 0x12] = a1\n 46527: a1 = u64 [sp + 0xa8]\n 46531: u8 [a0 + 0x11] = a1\n 46534: a1 = u64 [sp + 0x110]\n 46538: u8 [a0 + 0x1f] = a1\n 46541: a1 = u64 [sp + 0x108]\n 46545: u8 [a0 + 0x1e] = a1\n 46548: a1 = u64 [sp + 0x100]\n 46552: u8 [a0 + 0x1d] = a1\n 46555: a1 = u64 [sp + 0xf8]\n 46559: u8 [a0 + 0x1c] = a1\n 46562: a1 = u64 [sp + 0xf0]\n 46566: u8 [a0 + 0x1b] = a1\n 46569: a1 = u64 [sp + 0xe8]\n 46573: u8 [a0 + 0x1a] = a1\n 46576: a1 = u64 [sp + 0xe0]\n 46580: u8 [a0 + 0x19] = a1\n 46583: a1 = u64 [sp + 0x148]\n 46587: u8 [a0 + 0x10] = a1\n 46590: a1 = u64 [sp + 0x150]\n 46594: u8 [a0 + 0x8] = a1\n 46597: a1 = u64 [sp + 0x158]\n 46601: u8 [a0] = a1\n 46603: a1 = u64 [sp + 0x140]\n 46607: u8 [a0 + 0x18] = a1\n 46610: a0 = 0x20\n 46613: a1 = 0x20\n 46616: ra = 596, jump @0\n      : @675 [@dyn 298] (gas: 35)\n 46623: u8 [a0 + 31] = 0x2\n 46627: u8 [a0 + 30] = 0\n 46630: u8 [a0 + 29] = 0\n 46633: u8 [a0 + 28] = 0\n 46636: u8 [a0 + 27] = 0\n 46639: u8 [a0 + 26] = 0\n 46642: u8 [a0 + 25] = 0\n 46645: u8 [a0 + 24] = 0\n 46648: u8 [a0 + 23] = 0\n 46651: u8 [a0 + 22] = 0\n 46654: u8 [a0 + 21] = 0\n 46657: u8 [a0 + 20] = 0\n 46660: u8 [a0 + 19] = 0\n 46663: u8 [a0 + 18] = 0\n 46666: u8 [a0 + 17] = 0\n 46669: u8 [a0 + 16] = 0\n 46672: u8 [a0 + 15] = 0\n 46675: u8 [a0 + 14] = 0\n 46678: u8 [a0 + 13] = 0\n 46681: u8 [a0 + 12] = 0\n 46684: u8 [a0 + 11] = 0\n 46687: u8 [a0 + 10] = 0\n 46690: u8 [a0 + 9] = 0\n 46693: u8 [a0 + 8] = 0\n 46696: u8 [a0 + 7] = 0\n 46699: u8 [a0 + 6] = 0\n 46702: u8 [a0 + 5] = 0\n 46705: u8 [a0 + 4] = 0\n 46708: u8 [a0 + 3] = 0\n 46711: u8 [a0 + 2] = 0\n 46714: u8 [a0 + 1] = 0\n 46717: u8 [a0 + 0] = 0\n 46719: a1 = 0x40\n 46722: a0 = 0\n 46724: ra = 598, jump @0\n      : @676 [@dyn 299] (gas: 18)\n 46731: i32 a0 = a0 + 0\n 46733: i32 a2 = sp + 0x2a0\n 46737: a1 = 0x40\n 46740: ecalli 8 // 'hash_keccak_256'\n 46742: a0 = u64 [sp + 0x2a0]\n 46746: u64 [sp + 0x138] = a0\n 46750: a0 = u64 [sp + 0x2a8]\n 46754: u64 [sp + 0x130] = a0\n 46758: a0 = u64 [sp + 0x2b0]\n 46762: u64 [sp + 0x110] = a0\n 46766: s1 = u64 [sp + 0x2b8]\n 46770: a0 = u64 [sp + 0x118]\n 46774: a0 = a0 << 0x20\n 46777: a0 = a0 >> 0x20\n 46780: u64 [sp + 0x118] = a0\n 46784: a1 = 0x20\n 46787: a0 = 0\n 46789: ra = 600, jump @0\n      : @677 [@dyn 300] (gas: 62)\n 46796: a1 = u64 [sp + 0x118]\n 46800: a2 = reverse a1\n 46802: a1 = u64 [sp + 0x120]\n 46806: a3 = reverse a1\n 46808: a1 = u64 [sp + 0x128]\n 46812: a4 = reverse a1\n 46814: a1 = a4 >> 0x38\n 46817: u8 [a0 + 0x1f] = a1\n 46820: a1 = a4 >> 0x30\n 46823: u8 [a0 + 0x1e] = a1\n 46826: a1 = a4 >> 0x28\n 46829: u8 [a0 + 0x1d] = a1\n 46832: a1 = a4 >> 0x20\n 46835: u8 [a0 + 0x1c] = a1\n 46838: a1 = a4 >> 0x18\n 46841: u8 [a0 + 0x1b] = a1\n 46844: a1 = a4 >> 0x10\n 46847: u8 [a0 + 0x1a] = a1\n 46850: a1 = a4 >> 0x8\n 46853: u8 [a0 + 0x19] = a1\n 46856: u64 [sp + 0x108] = a4\n 46860: u8 [a0 + 0x18] = a4\n 46863: a1 = a3 >> 0x38\n 46866: u8 [a0 + 0x17] = a1\n 46869: a1 = a3 >> 0x30\n 46872: u8 [a0 + 0x16] = a1\n 46875: a1 = a3 >> 0x28\n 46878: u8 [a0 + 0x15] = a1\n 46881: a1 = a3 >> 0x20\n 46884: u8 [a0 + 0x14] = a1\n 46887: a1 = a3 >> 0x18\n 46890: u8 [a0 + 0x13] = a1\n 46893: a1 = a3 >> 0x10\n 46896: u8 [a0 + 0x12] = a1\n 46899: a1 = a3 >> 0x8\n 46902: u8 [a0 + 0x11] = a1\n 46905: u64 [sp + 0x118] = a3\n 46909: u8 [a0 + 0x10] = a3\n 46912: a1 = a2 >> 0x38\n 46915: u8 [a0 + 0xf] = a1\n 46918: a1 = a2 >> 0x30\n 46921: u8 [a0 + 0xe] = a1\n 46924: a1 = a2 >> 0x28\n 46927: u8 [a0 + 0xd] = a1\n 46930: a1 = a2 >> 0x20\n 46933: u8 [a0 + 0xc] = a1\n 46936: u8 [a0 + 11] = 0\n 46939: u8 [a0 + 10] = 0\n 46942: u8 [a0 + 9] = 0\n 46945: u64 [sp + 0x120] = a2\n 46949: u8 [a0 + 0x8] = a2\n 46952: u8 [a0 + 7] = 0\n 46955: u8 [a0 + 6] = 0\n 46958: u8 [a0 + 5] = 0\n 46961: u8 [a0 + 4] = 0\n 46964: u8 [a0 + 3] = 0\n 46967: u8 [a0 + 2] = 0\n 46970: u8 [a0 + 1] = 0\n 46973: u8 [a0 + 0] = 0\n 46975: a0 = 0x20\n 46978: a1 = 0x20\n 46981: ra = 602, jump @0\n      : @678 [@dyn 301] (gas: 66)\n 46988: a1 = s1 >> 0x38\n 46991: u8 [a0 + 0x1f] = a1\n 46994: a1 = s1 >> 0x30\n 46997: u8 [a0 + 0x1e] = a1\n 47000: a1 = s1 >> 0x28\n 47003: u8 [a0 + 0x1d] = a1\n 47006: a1 = s1 >> 0x20\n 47009: u8 [a0 + 0x1c] = a1\n 47012: a1 = s1 >> 0x18\n 47015: u8 [a0 + 0x1b] = a1\n 47018: a1 = s1 >> 0x10\n 47021: u8 [a0 + 0x1a] = a1\n 47024: a1 = s1 >> 0x8\n 47027: u8 [a0 + 0x19] = a1\n 47030: u8 [a0 + 0x18] = s1\n 47033: a2 = u64 [sp + 0x110]\n 47037: a1 = a2 >> 0x38\n 47040: u8 [a0 + 0x17] = a1\n 47043: a1 = a2 >> 0x30\n 47046: u8 [a0 + 0x16] = a1\n 47049: a1 = a2 >> 0x28\n 47052: u8 [a0 + 0x15] = a1\n 47055: a1 = a2 >> 0x20\n 47058: u8 [a0 + 0x14] = a1\n 47061: a1 = a2 >> 0x18\n 47064: u8 [a0 + 0x13] = a1\n 47067: a1 = a2 >> 0x10\n 47070: u8 [a0 + 0x12] = a1\n 47073: a1 = a2 >> 0x8\n 47076: u8 [a0 + 0x11] = a1\n 47079: u8 [a0 + 0x10] = a2\n 47082: a2 = u64 [sp + 0x130]\n 47086: a1 = a2 >> 0x38\n 47089: u8 [a0 + 0xf] = a1\n 47092: a1 = a2 >> 0x30\n 47095: u8 [a0 + 0xe] = a1\n 47098: a1 = a2 >> 0x28\n 47101: u8 [a0 + 0xd] = a1\n 47104: a1 = a2 >> 0x20\n 47107: u8 [a0 + 0xc] = a1\n 47110: a1 = a2 >> 0x18\n 47113: u8 [a0 + 0xb] = a1\n 47116: a1 = a2 >> 0x10\n 47119: u8 [a0 + 0xa] = a1\n 47122: a1 = a2 >> 0x8\n 47125: u8 [a0 + 0x9] = a1\n 47128: u8 [a0 + 0x8] = a2\n 47131: a2 = u64 [sp + 0x138]\n 47135: a1 = a2 >> 0x38\n 47138: u8 [a0 + 0x7] = a1\n 47141: a1 = a2 >> 0x30\n 47144: u8 [a0 + 0x6] = a1\n 47147: a1 = a2 >> 0x28\n 47150: u8 [a0 + 0x5] = a1\n 47153: a1 = a2 >> 0x20\n 47156: u8 [a0 + 0x4] = a1\n 47159: a1 = a2 >> 0x18\n 47162: u8 [a0 + 0x3] = a1\n 47165: a1 = a2 >> 0x10\n 47168: u8 [a0 + 0x2] = a1\n 47171: a1 = a2 >> 0x8\n 47174: u8 [a0 + 0x1] = a1\n 47177: u8 [a0] = a2\n 47179: a1 = 0x40\n 47182: a0 = 0\n 47184: ra = 604, jump @0\n      : @679 [@dyn 302] (gas: 43)\n 47191: i32 a0 = a0 + 0\n 47193: i32 a2 = sp + 0x2a0\n 47197: a1 = 0x40\n 47200: ecalli 8 // 'hash_keccak_256'\n 47202: a0 = u64 [sp + 0x2a0]\n 47206: a1 = u64 [sp + 0x2a8]\n 47210: a2 = u64 [sp + 0x2b0]\n 47214: a3 = u64 [sp + 0x2b8]\n 47218: a4 = reverse a0\n 47220: s1 = reverse a1\n 47222: a2 = reverse a2\n 47224: a1 = reverse a3\n 47226: u64 [sp + 0x128] = a1\n 47230: a1 = a1 + 0x1\n 47233: a0 = a1 <u 0x1\n 47236: u64 [sp + 0x130] = a2\n 47240: a2 = a2 + a0\n 47243: a0 = a1 | a2\n 47246: a0 = a0 <u 0x1\n 47249: a3 = s1 + a0\n 47252: a0 = a3 <u s1\n 47255: u64 [sp + 0x138] = a4\n 47259: a0 = a0 + a4\n 47262: u64 [sp + 0x100] = a2\n 47266: u64 [sp + 0x308] = a2\n 47270: u64 [sp + 0x110] = a1\n 47274: u64 [sp + 0x300] = a1\n 47278: u64 [sp + 0xf8] = a3\n 47282: u64 [sp + 0x310] = a3\n 47286: u64 [sp + 0xf0] = a0\n 47290: u64 [sp + 0x318] = a0\n 47294: u64 [sp + 696] = 0\n 47298: u64 [sp + 688] = 0\n 47302: u64 [sp + 680] = 0\n 47306: u64 [sp + 672] = 0\n 47310: u32 [sp + 800] = 0x20\n 47315: i32 a1 = sp + 0x300\n 47319: i32 a3 = sp + 0x2a0\n 47323: i32 a4 = sp + 0x320\n 47327: a2 = 0xffffffffffffffff\n 47330: a0 = 0\n 47332: ecalli 7 // 'get_storage'\n 47334: fallthrough\n      : @680 (gas: 8)\n 47335: a0 = u64 [sp + 0x2b0]\n 47339: a1 = u64 [sp + 0x2b8]\n 47343: a2 = u64 [sp + 0x2a8]\n 47347: a3 = u64 [sp + 0x2a0]\n 47351: a1 = a1 | a2\n 47354: a0 = a0 | a3\n 47357: a0 = a0 | a1\n 47360: jump @692 if a0 == 0\n      : @681 (gas: 31)\n 47364: a0 = u64 [sp + 0x128]\n 47368: a2 = a0 + 0x2\n 47371: a0 = a2 <u a0\n 47374: a1 = u64 [sp + 0x130]\n 47378: a3 = a1 + a0\n 47381: a1 = a3 <u a1\n 47384: a1 = a0 if a0 == 0\n 47387: a1 = a1 + s1\n 47390: a0 = a1 <u s1\n 47393: a4 = u64 [sp + 0x138]\n 47397: a0 = a0 + a4\n 47400: u64 [sp + 0x138] = a2\n 47404: u64 [sp + 0x300] = a2\n 47408: u64 [sp + 0x130] = a3\n 47412: u64 [sp + 0x308] = a3\n 47416: s1 = a1\n 47418: u64 [sp + 0x310] = a1\n 47422: u64 [sp + 0x128] = a0\n 47426: u64 [sp + 0x318] = a0\n 47430: u64 [sp + 696] = 0\n 47434: u64 [sp + 688] = 0\n 47438: u64 [sp + 680] = 0\n 47442: u64 [sp + 672] = 0\n 47446: u32 [sp + 800] = 0x20\n 47451: i32 a1 = sp + 0x300\n 47455: i32 a3 = sp + 0x2a0\n 47459: i32 a4 = sp + 0x320\n 47463: a2 = 0xffffffffffffffff\n 47466: a0 = 0\n 47468: ecalli 7 // 'get_storage'\n 47470: fallthrough\n      : @682 (gas: 2)\n 47471: a0 = u8 [sp + 0x2a0]\n 47475: jump @692 if a0 != 0\n      : @683 (gas: 45)\n 47479: u64 [sp + 0xe8] = s1\n 47483: u64 [sp + 0x310] = s1\n 47487: a0 = u64 [sp + 0x130]\n 47491: u64 [sp + 0x308] = a0\n 47495: a0 = u64 [sp + 0x138]\n 47499: u64 [sp + 0x300] = a0\n 47503: s1 = u64 [sp + 0x128]\n 47507: u64 [sp + 0x318] = s1\n 47511: u64 [sp + 696] = 0\n 47515: u64 [sp + 688] = 0\n 47519: u64 [sp + 680] = 0\n 47523: u64 [sp + 672] = 0\n 47527: u32 [sp + 800] = 0x20\n 47532: i32 a1 = sp + 0x300\n 47536: i32 a3 = sp + 0x2a0\n 47540: i32 a4 = sp + 0x320\n 47544: a2 = 0xffffffffffffffff\n 47547: a0 = 0\n 47549: ecalli 7 // 'get_storage'\n 47551: a0 = u64 [sp + 0x2a0]\n 47555: a1 = u64 [sp + 0x2a8]\n 47559: a2 = u64 [sp + 0x2b0]\n 47563: a3 = u64 [sp + 0x2b8]\n 47567: a0 = a0 & 0xffffffffffffff00\n 47571: a0 = a0 | 0x1\n 47574: u64 [sp + 0x318] = s1\n 47578: a4 = u64 [sp + 0xe8]\n 47582: u64 [sp + 0x310] = a4\n 47586: a4 = u64 [sp + 0x130]\n 47590: u64 [sp + 0x308] = a4\n 47594: a4 = u64 [sp + 0x138]\n 47598: u64 [sp + 0x300] = a4\n 47602: u64 [sp + 0x2b8] = a3\n 47606: u64 [sp + 0x2b0] = a2\n 47610: u64 [sp + 0x2a8] = a1\n 47614: u64 [sp + 0x2a0] = a0\n 47618: i32 a1 = sp + 0x300\n 47622: i32 a3 = sp + 0x2a0\n 47626: a2 = 0xffffffffffffffff\n 47629: a4 = 0x20\n 47632: a0 = 0\n 47634: ecalli 13 // 'set_storage'\n 47636: a0 = 0x40\n 47639: a1 = 0x20\n 47642: ra = 606, jump @0\n      : @684 [@dyn 303] (gas: 100)\n 47649: a1 = u8 [a0 + 0x11]\n 47652: a2 = u8 [a0 + 0x10]\n 47655: a3 = u8 [a0 + 0x12]\n 47658: a4 = u8 [a0 + 0x13]\n 47661: a1 = a1 << 0x8\n 47664: a1 = a1 | a2\n 47667: a3 = a3 << 0x10\n 47670: a4 = a4 << 0x18\n 47673: a3 = a3 | a4\n 47676: a1 = a1 | a3\n 47679: a2 = u8 [a0 + 0x15]\n 47682: a3 = u8 [a0 + 0x14]\n 47685: a4 = u8 [a0 + 0x16]\n 47688: a5 = u8 [a0 + 0x17]\n 47691: a2 = a2 << 0x8\n 47694: a2 = a2 | a3\n 47697: a4 = a4 << 0x10\n 47700: a5 = a5 << 0x18\n 47703: a4 = a4 | a5\n 47706: a2 = a2 | a4\n 47709: a2 = a2 << 0x20\n 47712: t0 = a2 | a1\n 47715: a2 = u8 [a0 + 0x1]\n 47718: a3 = u8 [a0]\n 47720: a4 = u8 [a0 + 0x2]\n 47723: a5 = u8 [a0 + 0x3]\n 47726: a2 = a2 << 0x8\n 47729: a2 = a2 | a3\n 47732: a4 = a4 << 0x10\n 47735: a5 = a5 << 0x18\n 47738: a4 = a4 | a5\n 47741: a2 = a2 | a4\n 47744: a3 = u8 [a0 + 0x5]\n 47747: a4 = u8 [a0 + 0x4]\n 47750: a5 = u8 [a0 + 0x6]\n 47753: s1 = u8 [a0 + 0x7]\n 47756: a3 = a3 << 0x8\n 47759: a3 = a3 | a4\n 47762: a5 = a5 << 0x10\n 47765: s1 = s1 << 0x18\n 47768: a5 = a5 | s1\n 47771: a3 = a3 | a5\n 47774: a3 = a3 << 0x20\n 47777: a2 = a2 | a3\n 47780: a3 = u8 [a0 + 0x19]\n 47783: a4 = u8 [a0 + 0x18]\n 47786: a5 = u8 [a0 + 0x1a]\n 47789: s1 = u8 [a0 + 0x1b]\n 47792: a3 = a3 << 0x8\n 47795: a3 = a3 | a4\n 47798: a5 = a5 << 0x10\n 47801: s1 = s1 << 0x18\n 47804: a5 = a5 | s1\n 47807: a3 = a3 | a5\n 47810: a4 = u8 [a0 + 0x1d]\n 47813: a5 = u8 [a0 + 0x1c]\n 47816: s1 = u8 [a0 + 0x1e]\n 47819: a1 = u8 [a0 + 0x1f]\n 47822: a4 = a4 << 0x8\n 47825: a4 = a4 | a5\n 47828: s1 = s1 << 0x10\n 47831: a1 = a1 << 0x18\n 47834: a1 = a1 | s1\n 47837: a1 = a1 | a4\n 47840: a1 = a1 << 0x20\n 47843: a3 = a3 | a1\n 47846: a1 = u8 [a0 + 0x9]\n 47849: a4 = u8 [a0 + 0x8]\n 47852: a5 = u8 [a0 + 0xa]\n 47855: s1 = u8 [a0 + 0xb]\n 47858: a1 = a1 << 0x8\n 47861: a1 = a1 | a4\n 47864: a5 = a5 << 0x10\n 47867: s1 = s1 << 0x18\n 47870: a5 = a5 | s1\n 47873: a1 = a1 | a5\n 47876: a4 = u8 [a0 + 0xd]\n 47879: a5 = u8 [a0 + 0xc]\n 47882: s1 = u8 [a0 + 0xe]\n 47885: a0 = u8 [a0 + 0xf]\n 47888: a4 = a4 << 0x8\n 47891: a4 = a4 | a5\n 47894: s1 = s1 << 0x10\n 47897: a0 = a0 << 0x18\n 47900: a0 = a0 | s1\n 47903: a0 = a0 | a4\n 47906: a0 = a0 << 0x20\n 47909: a0 = a0 | a1\n 47912: a0 = reverse a0\n 47914: s1 = reverse a3\n 47916: a1 = reverse a2\n 47918: a2 = reverse t0\n 47920: a1 = a1 | a2\n 47923: a2 = s1 | a0\n 47926: a2 = a2 | a1\n 47929: a2 = a2 >> 0x20\n 47932: a0 = a0 | a1\n 47935: a0 = a0 << 0x20\n 47938: a0 = a0 | a2\n 47941: jump @703 if a0 != 0\n      : @685 (gas: 4)\n 47945: i32 s1 = s1 + 0\n 47947: a1 = 0x20\n 47950: a0 = s1\n 47952: ra = 608, jump @0\n      : @686 [@dyn 304] (gas: 71)\n 47959: a1 = u64 [sp + 0x18]\n 47962: a1 = reverse a1\n 47964: a2 = u64 [sp + 0x20]\n 47967: a2 = reverse a2\n 47969: a3 = u64 [sp + 0x28]\n 47972: a3 = reverse a3\n 47974: a4 = u64 [sp + 0x30]\n 47977: a4 = reverse a4\n 47979: a5 = a4 >> 0x38\n 47982: u8 [a0 + 0x1f] = a5\n 47985: a5 = a4 >> 0x30\n 47988: u8 [a0 + 0x1e] = a5\n 47991: a5 = a4 >> 0x28\n 47994: u8 [a0 + 0x1d] = a5\n 47997: a5 = a4 >> 0x20\n 48000: u8 [a0 + 0x1c] = a5\n 48003: a5 = a4 >> 0x18\n 48006: u8 [a0 + 0x1b] = a5\n 48009: a5 = a4 >> 0x10\n 48012: u8 [a0 + 0x1a] = a5\n 48015: a5 = a4 >> 0x8\n 48018: u8 [a0 + 0x19] = a5\n 48021: u8 [a0 + 0x18] = a4\n 48024: u8 [a0 + 0x10] = a3\n 48027: a4 = a3 >> 0x38\n 48030: u8 [a0 + 0x17] = a4\n 48033: a4 = a3 >> 0x30\n 48036: u8 [a0 + 0x16] = a4\n 48039: a4 = a3 >> 0x28\n 48042: u8 [a0 + 0x15] = a4\n 48045: a4 = a3 >> 0x20\n 48048: u8 [a0 + 0x14] = a4\n 48051: a4 = a3 >> 0x18\n 48054: u8 [a0 + 0x13] = a4\n 48057: a4 = a3 >> 0x10\n 48060: u8 [a0 + 0x12] = a4\n 48063: a3 = a3 >> 0x8\n 48066: u8 [a0 + 0x11] = a3\n 48069: u8 [a0 + 0x8] = a2\n 48072: a3 = a2 >> 0x38\n 48075: u8 [a0 + 0xf] = a3\n 48078: a3 = a2 >> 0x30\n 48081: u8 [a0 + 0xe] = a3\n 48084: a3 = a2 >> 0x28\n 48087: u8 [a0 + 0xd] = a3\n 48090: a3 = a2 >> 0x20\n 48093: u8 [a0 + 0xc] = a3\n 48096: a3 = a2 >> 0x18\n 48099: u8 [a0 + 0xb] = a3\n 48102: a3 = a2 >> 0x10\n 48105: u8 [a0 + 0xa] = a3\n 48108: a2 = a2 >> 0x8\n 48111: u8 [a0 + 0x9] = a2\n 48114: u8 [a0] = a1\n 48116: a2 = a1 >> 0x38\n 48119: u8 [a0 + 0x7] = a2\n 48122: a2 = a1 >> 0x30\n 48125: u8 [a0 + 0x6] = a2\n 48128: a2 = a1 >> 0x28\n 48131: u8 [a0 + 0x5] = a2\n 48134: a2 = a1 >> 0x20\n 48137: u8 [a0 + 0x4] = a2\n 48140: a2 = a1 >> 0x18\n 48143: u8 [a0 + 0x3] = a2\n 48146: a2 = a1 >> 0x10\n 48149: u8 [a0 + 0x2] = a2\n 48152: a1 = a1 >> 0x8\n 48155: u8 [a0 + 0x1] = a1\n 48158: a1 = 0x20\n 48161: a0 = s1\n 48163: ra = 610, jump @0\n      : @687 [@dyn 305] (gas: 97)\n 48170: a1 = u64 [0x20040]\n 48175: a2 = u64 [0x20048]\n 48180: a3 = u64 [0x20050]\n 48185: a4 = u64 [0x20058]\n 48190: u64 [sp + 0x2b8] = a1\n 48194: u64 [sp + 0x2b0] = a2\n 48198: u64 [sp + 0x2a8] = a3\n 48202: u64 [sp + 0x2a0] = a4\n 48206: a1 = u64 [sp + 0x140]\n 48210: u64 [sp + 0x2d8] = a1\n 48214: a1 = u64 [sp + 0x148]\n 48218: u64 [sp + 0x2d0] = a1\n 48222: a1 = u64 [sp + 0x150]\n 48226: u64 [sp + 0x2c8] = a1\n 48230: a1 = u64 [sp + 0x158]\n 48234: u64 [sp + 0x2c0] = a1\n 48238: a1 = u64 [sp + 0x108]\n 48242: u64 [sp + 0x2f8] = a1\n 48246: a1 = u64 [sp + 0x118]\n 48250: u64 [sp + 0x2f0] = a1\n 48254: a1 = u64 [sp + 0x120]\n 48258: u64 [sp + 0x2e8] = a1\n 48262: u64 [sp + 736] = 0\n 48266: i32 a2 = a0 + 0\n 48268: i32 a0 = sp + 0x2a0\n 48272: a1 = 0x3\n 48275: a3 = 0x20\n 48278: ecalli 5 // 'deposit_event'\n 48280: a0 = u64 [sp + 0x160]\n 48284: u64 [sp + 0x318] = a0\n 48288: a0 = u64 [sp + 0x168]\n 48292: u64 [sp + 0x310] = a0\n 48296: a0 = u64 [sp + 0x170]\n 48300: u64 [sp + 0x308] = a0\n 48304: a0 = u64 [sp + 0x178]\n 48308: u64 [sp + 0x300] = a0\n 48312: u64 [sp + 696] = 0\n 48316: u64 [sp + 688] = 0\n 48320: u64 [sp + 680] = 0\n 48324: u64 [sp + 672] = 0\n 48328: u32 [sp + 800] = 0x20\n 48333: i32 a1 = sp + 0x300\n 48337: i32 a3 = sp + 0x2a0\n 48341: i32 a4 = sp + 0x320\n 48345: a2 = 0xffffffffffffffff\n 48348: a0 = 0\n 48350: ecalli 7 // 'get_storage'\n 48352: a0 = u64 [sp + 0x2a0]\n 48356: u64 [sp + 0x178] = a0\n 48360: a0 = u64 [sp + 0x2b0]\n 48364: u64 [sp + 0x170] = a0\n 48368: s1 = u64 [sp + 0x2a8]\n 48372: a0 = u64 [sp + 0xf0]\n 48376: u64 [sp + 0x318] = a0\n 48380: a0 = u64 [sp + 0xf8]\n 48384: u64 [sp + 0x310] = a0\n 48388: a0 = u64 [sp + 0x100]\n 48392: u64 [sp + 0x308] = a0\n 48396: a0 = u64 [sp + 0x110]\n 48400: u64 [sp + 0x300] = a0\n 48404: u64 [sp + 696] = 0\n 48408: u64 [sp + 688] = 0\n 48412: u64 [sp + 680] = 0\n 48416: u64 [sp + 672] = 0\n 48420: u32 [sp + 800] = 0x20\n 48425: i32 a1 = sp + 0x300\n 48429: i32 a3 = sp + 0x2a0\n 48433: i32 a4 = sp + 0x320\n 48437: a2 = 0xffffffffffffffff\n 48440: a0 = 0\n 48442: ecalli 7 // 'get_storage'\n 48444: t0 = u64 [sp + 0x2a0]\n 48448: a1 = u64 [sp + 0x2a8]\n 48452: a2 = u64 [sp + 0x2b0]\n 48456: a3 = u64 [sp + 0x2b8]\n 48460: a4 = reverse s1\n 48462: a5 = a4 << 0x20\n 48465: a0 = u64 [sp + 0x170]\n 48469: s1 = reverse a0\n 48471: s1 = s1 >> 0x20\n 48474: a5 = a5 | s1\n 48477: a4 = a4 >> 0x20\n 48480: a0 = u64 [sp + 0x178]\n 48484: a0 = reverse a0\n 48486: s1 = a0 << 0x20\n 48489: a4 = a4 | s1\n 48492: a0 = a0 >> 0x20\n 48495: u64 [sp + 0x228] = a4\n 48499: u64 [sp + 0x220] = a5\n 48503: u32 [sp + 0x230] = a0\n 48507: u64 [sp + 0x258] = a3\n 48511: u64 [sp + 0x250] = a2\n 48515: u64 [sp + 0x248] = a1\n 48519: u64 [sp + 0x240] = t0\n 48523: a0 = 0\n 48525: a1 = 0\n 48527: ra = 612, jump @0\n      : @688 [@dyn 306] (gas: 4)\n 48534: u64 [sp + 0x178] = a0\n 48538: a0 = 0\n 48540: a1 = 0\n 48542: ra = 614, jump @0\n      : @689 [@dyn 307] (gas: 27)\n 48549: u32 [sp + 608] = 0\n 48553: u64 [sp + 664] = 0\n 48557: u64 [sp + 656] = 0\n 48561: u64 [sp + 648] = 0\n 48565: u64 [sp + 640] = 0\n 48569: a1 = sp + 0x220\n 48573: a1 = a1 << 0x20\n 48576: s1 = a1 >> 0x20\n 48579: a1 = sp + 0x240\n 48583: a1 = a1 << 0x20\n 48586: a1 = a1 >> 0x20\n 48589: a2 = sp + 0x280\n 48593: a2 = a2 << 0x20\n 48596: a3 = a2 | a1\n 48599: a4 = u64 [sp + 0x178]\n 48603: a4 = a4 << 0x20\n 48606: a4 = a4 >> 0x20\n 48609: a0 = a0 << 0x20\n 48612: a0 = a0 >> 0x20\n 48615: a1 = sp + 0x260\n 48619: a1 = a1 << 0x20\n 48622: a5 = a1 | a0\n 48625: a1 = 0xffffffffffffffff\n 48628: a2 = 0xffffffffffffffff\n 48631: a0 = s1\n 48633: ecalli 0 // 'call'\n 48634: fallthrough\n      : @690 (gas: 1)\n 48635: jump @704 if a0 != 0\n      : @691 (gas: 6)\n 48639: sp = s0 + 0xfffffffffffffcc0\n 48643: ra = u64 [sp + 0x338]\n 48647: s0 = u64 [sp + 0x330]\n 48651: s1 = u64 [sp + 0x328]\n 48655: sp = sp + 0x340\n 48659: ret\n      : @692 (gas: 3)\n 48661: a0 = 0x40\n 48664: a1 = 0x20\n 48667: ra = 616, jump @0\n      : @693 [@dyn 308] (gas: 103)\n 48674: a1 = u8 [a0 + 0x11]\n 48677: a2 = u8 [a0 + 0x10]\n 48680: a3 = u8 [a0 + 0x12]\n 48683: a4 = u8 [a0 + 0x13]\n 48686: a1 = a1 << 0x8\n 48689: a1 = a1 | a2\n 48692: a3 = a3 << 0x10\n 48695: a4 = a4 << 0x18\n 48698: a3 = a3 | a4\n 48701: a1 = a1 | a3\n 48704: a2 = u8 [a0 + 0x15]\n 48707: a3 = u8 [a0 + 0x14]\n 48710: a4 = u8 [a0 + 0x16]\n 48713: a5 = u8 [a0 + 0x17]\n 48716: a2 = a2 << 0x8\n 48719: a2 = a2 | a3\n 48722: a4 = a4 << 0x10\n 48725: a5 = a5 << 0x18\n 48728: a4 = a4 | a5\n 48731: a2 = a2 | a4\n 48734: a2 = a2 << 0x20\n 48737: t0 = a2 | a1\n 48740: a2 = u8 [a0 + 0x1]\n 48743: a3 = u8 [a0]\n 48745: a4 = u8 [a0 + 0x2]\n 48748: a5 = u8 [a0 + 0x3]\n 48751: a2 = a2 << 0x8\n 48754: a2 = a2 | a3\n 48757: a4 = a4 << 0x10\n 48760: a5 = a5 << 0x18\n 48763: a4 = a4 | a5\n 48766: a2 = a2 | a4\n 48769: a3 = u8 [a0 + 0x5]\n 48772: a4 = u8 [a0 + 0x4]\n 48775: a5 = u8 [a0 + 0x6]\n 48778: s1 = u8 [a0 + 0x7]\n 48781: a3 = a3 << 0x8\n 48784: a3 = a3 | a4\n 48787: a5 = a5 << 0x10\n 48790: s1 = s1 << 0x18\n 48793: a5 = a5 | s1\n 48796: a3 = a3 | a5\n 48799: a3 = a3 << 0x20\n 48802: a2 = a2 | a3\n 48805: a3 = u8 [a0 + 0x19]\n 48808: a4 = u8 [a0 + 0x18]\n 48811: a5 = u8 [a0 + 0x1a]\n 48814: s1 = u8 [a0 + 0x1b]\n 48817: a3 = a3 << 0x8\n 48820: a3 = a3 | a4\n 48823: a5 = a5 << 0x10\n 48826: s1 = s1 << 0x18\n 48829: a5 = a5 | s1\n 48832: a3 = a3 | a5\n 48835: a4 = u8 [a0 + 0x1d]\n 48838: a5 = u8 [a0 + 0x1c]\n 48841: s1 = u8 [a0 + 0x1e]\n 48844: a1 = u8 [a0 + 0x1f]\n 48847: a4 = a4 << 0x8\n 48850: a4 = a4 | a5\n 48853: s1 = s1 << 0x10\n 48856: a1 = a1 << 0x18\n 48859: a1 = a1 | s1\n 48862: a1 = a1 | a4\n 48865: a1 = a1 << 0x20\n 48868: a3 = a3 | a1\n 48871: a1 = u8 [a0 + 0x9]\n 48874: a4 = u8 [a0 + 0x8]\n 48877: a5 = u8 [a0 + 0xa]\n 48880: s1 = u8 [a0 + 0xb]\n 48883: a1 = a1 << 0x8\n 48886: a1 = a1 | a4\n 48889: a5 = a5 << 0x10\n 48892: s1 = s1 << 0x18\n 48895: a5 = a5 | s1\n 48898: a1 = a1 | a5\n 48901: a4 = u8 [a0 + 0xd]\n 48904: a5 = u8 [a0 + 0xc]\n 48907: s1 = u8 [a0 + 0xe]\n 48910: a0 = u8 [a0 + 0xf]\n 48913: a4 = a4 << 0x8\n 48916: a4 = a4 | a5\n 48919: s1 = s1 << 0x10\n 48922: a0 = a0 << 0x18\n 48925: a0 = a0 | s1\n 48928: a0 = a0 | a4\n 48931: a0 = a0 << 0x20\n 48934: a0 = a0 | a1\n 48937: s1 = reverse a0\n 48939: a1 = reverse a3\n 48941: a2 = reverse a2\n 48943: a0 = reverse t0\n 48945: u64 [sp + 0x178] = a0\n 48949: u64 [sp + 0x170] = a2\n 48953: a0 = a0 | a2\n 48956: a2 = a1\n 48958: a1 = a1 | s1\n 48961: a1 = a1 | a0\n 48964: a1 = a1 >> 0x20\n 48967: a0 = a0 | s1\n 48970: a0 = a0 << 0x20\n 48973: a0 = a0 | a1\n 48976: jump @703 if a0 != 0\n      : @694 (gas: 5)\n 48980: u64 [sp + 0x168] = a2\n 48984: i32 a0 = a2 + 0\n 48986: a1 = 0x20\n 48989: u64 [sp + 0x160] = a0\n 48993: ra = 618, jump @0\n      : @695 [@dyn 309] (gas: 50)\n 49000: u8 [a0 + 31] = 0\n 49003: u8 [a0 + 30] = 0\n 49006: u8 [a0 + 29] = 0\n 49009: u8 [a0 + 28] = 0\n 49012: u8 [a0 + 27] = 0\n 49015: u8 [a0 + 26] = 0\n 49018: u8 [a0 + 25] = 0\n 49021: u8 [a0 + 24] = 0\n 49024: u8 [a0 + 23] = 0\n 49027: u8 [a0 + 22] = 0\n 49030: u8 [a0 + 21] = 0\n 49033: u8 [a0 + 20] = 0\n 49036: u8 [a0 + 19] = 0\n 49039: u8 [a0 + 18] = 0\n 49042: u8 [a0 + 17] = 0\n 49045: u8 [a0 + 16] = 0\n 49048: u8 [a0 + 15] = 0\n 49051: u8 [a0 + 14] = 0\n 49054: u8 [a0 + 13] = 0\n 49057: u8 [a0 + 12] = 0\n 49060: u8 [a0 + 11] = 0\n 49063: u8 [a0 + 10] = 0\n 49066: u8 [a0 + 9] = 0\n 49069: u8 [a0 + 8] = 0\n 49072: u8 [a0 + 7] = 0\n 49075: u8 [a0 + 6] = 0\n 49078: u8 [a0 + 5] = 0\n 49081: u8 [a0 + 4] = 0\n 49084: u8 [a0 + 3] = 0xa0\n 49089: u8 [a0 + 2] = 0x79\n 49093: u8 [a0 + 1] = 0xc3\n 49098: u8 [a0 + 0] = 0x8\n 49101: a1 = u64 [sp + 0x168]\n 49105: a0 = a1 + 0x4\n 49108: a1 = a0 <u a1\n 49111: a3 = u64 [sp + 0x178]\n 49115: a2 = a3 + a1\n 49118: a3 = a2 <u a3\n 49121: a3 = a1 if a1 == 0\n 49124: a3 = a3 + s1\n 49127: a1 = a3 <u s1\n 49130: a4 = u64 [sp + 0x170]\n 49134: a4 = a4 + a1\n 49137: u64 [sp + 0x188] = a2\n 49141: u64 [sp + 0x180] = a0\n 49145: u64 [sp + 0x190] = a3\n 49149: a0 = sp + 0x1a0\n 49153: a1 = sp + 0x180\n 49157: u64 [sp + 0x198] = a4\n 49161: ra = 620, jump @661\n      : @696 [@dyn 310] (gas: 5)\n 49167: a0 = u64 [sp + 0x1a8]\n 49171: t0 = u64 [sp + 0x1b8]\n 49175: t1 = u64 [sp + 0x1a0]\n 49179: a3 = u64 [sp + 0x1b0]\n 49183: jump @702\n      : @697 (gas: 3)\n 49186: a0 = 0x40\n 49189: a1 = 0x20\n 49192: ra = 622, jump @0\n      : @698 [@dyn 311] (gas: 103)\n 49199: a1 = u8 [a0 + 0x11]\n 49202: a2 = u8 [a0 + 0x10]\n 49205: a3 = u8 [a0 + 0x12]\n 49208: a4 = u8 [a0 + 0x13]\n 49211: a1 = a1 << 0x8\n 49214: a1 = a1 | a2\n 49217: a3 = a3 << 0x10\n 49220: a4 = a4 << 0x18\n 49223: a3 = a3 | a4\n 49226: a1 = a1 | a3\n 49229: a2 = u8 [a0 + 0x15]\n 49232: a3 = u8 [a0 + 0x14]\n 49235: a4 = u8 [a0 + 0x16]\n 49238: a5 = u8 [a0 + 0x17]\n 49241: a2 = a2 << 0x8\n 49244: a2 = a2 | a3\n 49247: a4 = a4 << 0x10\n 49250: a5 = a5 << 0x18\n 49253: a4 = a4 | a5\n 49256: a2 = a2 | a4\n 49259: a2 = a2 << 0x20\n 49262: t0 = a2 | a1\n 49265: a2 = u8 [a0 + 0x1]\n 49268: a3 = u8 [a0]\n 49270: a4 = u8 [a0 + 0x2]\n 49273: a5 = u8 [a0 + 0x3]\n 49276: a2 = a2 << 0x8\n 49279: a2 = a2 | a3\n 49282: a4 = a4 << 0x10\n 49285: a5 = a5 << 0x18\n 49288: a4 = a4 | a5\n 49291: a2 = a2 | a4\n 49294: a3 = u8 [a0 + 0x5]\n 49297: a4 = u8 [a0 + 0x4]\n 49300: a5 = u8 [a0 + 0x6]\n 49303: s1 = u8 [a0 + 0x7]\n 49306: a3 = a3 << 0x8\n 49309: a3 = a3 | a4\n 49312: a5 = a5 << 0x10\n 49315: s1 = s1 << 0x18\n 49318: a5 = a5 | s1\n 49321: a3 = a3 | a5\n 49324: a3 = a3 << 0x20\n 49327: a2 = a2 | a3\n 49330: a3 = u8 [a0 + 0x19]\n 49333: a4 = u8 [a0 + 0x18]\n 49336: a5 = u8 [a0 + 0x1a]\n 49339: s1 = u8 [a0 + 0x1b]\n 49342: a3 = a3 << 0x8\n 49345: a3 = a3 | a4\n 49348: a5 = a5 << 0x10\n 49351: s1 = s1 << 0x18\n 49354: a5 = a5 | s1\n 49357: a3 = a3 | a5\n 49360: a4 = u8 [a0 + 0x1d]\n 49363: a5 = u8 [a0 + 0x1c]\n 49366: s1 = u8 [a0 + 0x1e]\n 49369: a1 = u8 [a0 + 0x1f]\n 49372: a4 = a4 << 0x8\n 49375: a4 = a4 | a5\n 49378: s1 = s1 << 0x10\n 49381: a1 = a1 << 0x18\n 49384: a1 = a1 | s1\n 49387: a1 = a1 | a4\n 49390: a1 = a1 << 0x20\n 49393: a3 = a3 | a1\n 49396: a1 = u8 [a0 + 0x9]\n 49399: a4 = u8 [a0 + 0x8]\n 49402: a5 = u8 [a0 + 0xa]\n 49405: s1 = u8 [a0 + 0xb]\n 49408: a1 = a1 << 0x8\n 49411: a1 = a1 | a4\n 49414: a5 = a5 << 0x10\n 49417: s1 = s1 << 0x18\n 49420: a5 = a5 | s1\n 49423: a1 = a1 | a5\n 49426: a4 = u8 [a0 + 0xd]\n 49429: a5 = u8 [a0 + 0xc]\n 49432: s1 = u8 [a0 + 0xe]\n 49435: a0 = u8 [a0 + 0xf]\n 49438: a4 = a4 << 0x8\n 49441: a4 = a4 | a5\n 49444: s1 = s1 << 0x10\n 49447: a0 = a0 << 0x18\n 49450: a0 = a0 | s1\n 49453: a0 = a0 | a4\n 49456: a0 = a0 << 0x20\n 49459: a0 = a0 | a1\n 49462: s1 = reverse a0\n 49464: a1 = reverse a3\n 49466: a2 = reverse a2\n 49468: a0 = reverse t0\n 49470: u64 [sp + 0x178] = a0\n 49474: u64 [sp + 0x170] = a2\n 49478: a0 = a0 | a2\n 49481: a2 = a1\n 49483: a1 = a1 | s1\n 49486: a1 = a1 | a0\n 49489: a1 = a1 >> 0x20\n 49492: a0 = a0 | s1\n 49495: a0 = a0 << 0x20\n 49498: a0 = a0 | a1\n 49501: jump @703 if a0 != 0\n      : @699 (gas: 5)\n 49505: u64 [sp + 0x168] = a2\n 49509: i32 a0 = a2 + 0\n 49511: a1 = 0x20\n 49514: u64 [sp + 0x160] = a0\n 49518: ra = 624, jump @0\n      : @700 [@dyn 312] (gas: 50)\n 49525: u8 [a0 + 31] = 0\n 49528: u8 [a0 + 30] = 0\n 49531: u8 [a0 + 29] = 0\n 49534: u8 [a0 + 28] = 0\n 49537: u8 [a0 + 27] = 0\n 49540: u8 [a0 + 26] = 0\n 49543: u8 [a0 + 25] = 0\n 49546: u8 [a0 + 24] = 0\n 49549: u8 [a0 + 23] = 0\n 49552: u8 [a0 + 22] = 0\n 49555: u8 [a0 + 21] = 0\n 49558: u8 [a0 + 20] = 0\n 49561: u8 [a0 + 19] = 0\n 49564: u8 [a0 + 18] = 0\n 49567: u8 [a0 + 17] = 0\n 49570: u8 [a0 + 16] = 0\n 49573: u8 [a0 + 15] = 0\n 49576: u8 [a0 + 14] = 0\n 49579: u8 [a0 + 13] = 0\n 49582: u8 [a0 + 12] = 0\n 49585: u8 [a0 + 11] = 0\n 49588: u8 [a0 + 10] = 0\n 49591: u8 [a0 + 9] = 0\n 49594: u8 [a0 + 8] = 0\n 49597: u8 [a0 + 7] = 0\n 49600: u8 [a0 + 6] = 0\n 49603: u8 [a0 + 5] = 0\n 49606: u8 [a0 + 4] = 0\n 49609: u8 [a0 + 3] = 0xa0\n 49614: u8 [a0 + 2] = 0x79\n 49618: u8 [a0 + 1] = 0xc3\n 49623: u8 [a0 + 0] = 0x8\n 49626: a1 = u64 [sp + 0x168]\n 49630: a0 = a1 + 0x4\n 49633: a1 = a0 <u a1\n 49636: a3 = u64 [sp + 0x178]\n 49640: a2 = a3 + a1\n 49643: a3 = a2 <u a3\n 49646: a3 = a1 if a1 == 0\n 49649: a3 = a3 + s1\n 49652: a1 = a3 <u s1\n 49655: a4 = u64 [sp + 0x170]\n 49659: a4 = a4 + a1\n 49662: u64 [sp + 0x1c8] = a2\n 49666: u64 [sp + 0x1c0] = a0\n 49670: u64 [sp + 0x1d0] = a3\n 49674: a0 = sp + 0x1e0\n 49678: a1 = sp + 0x1c0\n 49682: u64 [sp + 0x1d8] = a4\n 49686: ra = 626, jump @602\n      : @701 [@dyn 313] (gas: 5)\n 49692: a0 = u64 [sp + 0x1e8]\n 49696: t0 = u64 [sp + 0x1f8]\n 49700: t1 = u64 [sp + 0x1e0]\n 49704: a3 = u64 [sp + 0x1f0]\n 49708: fallthrough\n      : @702 (gas: 26)\n 49709: a1 = u64 [sp + 0x178]\n 49713: a4 = a0 ^ a1\n 49716: a5 = a0 <u a1\n 49719: t2 = a1\n 49721: a2 = u64 [sp + 0x168]\n 49725: a1 = t1 <u a2\n 49728: a5 = a1 if a4 == 0\n 49731: a4 = a3 - s1\n 49734: a3 = a3 <u s1\n 49737: s1 = u64 [sp + 0x170]\n 49741: s1 = t0 - s1\n 49744: s1 = s1 - a3\n 49747: a3 = a4 <u a5\n 49750: s1 = s1 - a3\n 49753: a4 = a4 - a5\n 49756: a0 = a0 - t2\n 49759: a1 = a0 - a1\n 49762: a0 = t1 - a2\n 49765: a1 = a1 | s1\n 49768: a2 = a0 | a4\n 49771: a2 = a2 | a1\n 49774: a1 = a1 | a4\n 49777: a2 = a2 >> 0x20\n 49780: a1 = a1 << 0x20\n 49783: a1 = a1 | a2\n 49786: jump @705 if a1 == 0\n      : @703 (gas: 1)\n 49789: trap\n      : @704 (gas: 1)\n 49790: ra = 628, jump @480\n      : @705 [@dyn 314] (gas: 4)\n 49796: i32 s1 = a0 + 0\n 49798: a0 = u64 [sp + 0x160]\n 49802: a1 = s1\n 49804: ra = 630, jump @0\n      : @706 [@dyn 315] (gas: 6)\n 49811: i32 a1 = a0 + 0\n 49813: a0 = 0x1\n 49816: a2 = s1\n 49818: ra = 0x278\n 49822: ecalli 11 // 'seal_return'\n 49824: fallthrough\n      : @707 [@dyn 316] (gas: 36)\n 49825: sp = sp + 0xffffffffffffff70\n 49829: u64 [sp + 0x88] = ra\n 49833: u64 [sp + 0x80] = s0\n 49837: u64 [sp + 0x78] = s1\n 49840: s0 = sp + 0x90\n 49844: sp = sp & 0xfffffffffffffff0\n 49847: a3 = u64 [a0]\n 49849: u64 [sp + 0x8] = a3\n 49852: t1 = u64 [a0 + 0x8]\n 49855: t2 = u64 [a0 + 0x10]\n 49858: ra = u64 [a0 + 0x18]\n 49861: t0 = u64 [a1]\n 49863: a4 = u64 [a1 + 0x8]\n 49866: a5 = u64 [a1 + 0x10]\n 49869: a3 = u64 [a1 + 0x18]\n 49872: s1 = u64 [a2]\n 49874: a1 = u64 [a2 + 0x8]\n 49877: a0 = u64 [a2 + 0x10]\n 49880: a2 = u64 [a2 + 0x18]\n 49883: u64 [sp + 0x28] = a2\n 49886: u64 [sp + 0x20] = a0\n 49889: u64 [sp + 0x18] = a1\n 49892: u64 [sp + 0x10] = s1\n 49895: u64 [sp + 0x48] = a3\n 49898: u64 [sp + 0x40] = a5\n 49901: u64 [sp + 0x38] = a4\n 49904: u64 [sp + 0x30] = t0\n 49907: u64 [sp + 0x68] = ra\n 49910: u64 [sp + 0x60] = t2\n 49913: u64 [sp + 0x58] = t1\n 49916: a0 = sp + 0x50\n 49919: a1 = sp + 0x30\n 49922: a2 = sp + 0x10\n 49925: a3 = u64 [sp + 0x8]\n 49928: u64 [sp + 0x50] = a3\n 49931: ra = 634, jump @645\n      : @708 [@dyn 317] (gas: 6)\n 49937: sp = s0 + 0xffffffffffffff70\n 49941: ra = u64 [sp + 0x88]\n 49945: s0 = u64 [sp + 0x80]\n 49949: s1 = u64 [sp + 0x78]\n 49952: sp = sp + 0x90\n 49956: ret\n      : @709 (gas: 17)\n 49958: sp = sp + 0xffffffffffffffa0\n 49961: u64 [sp + 0x58] = ra\n 49964: u64 [sp + 0x50] = s0\n 49967: u64 [sp + 0x48] = s1\n 49970: a3 = u64 [a1 + 0x18]\n 49973: a4 = u64 [a1 + 0x10]\n 49976: a5 = u64 [a1 + 0x8]\n 49979: s1 = u64 [a1]\n 49981: a1 = a5 | a3\n 49984: a2 = s1 | a4\n 49987: a2 = a2 | a1\n 49990: a2 = a2 >> 0x20\n 49993: a1 = a1 | a4\n 49996: a1 = a1 << 0x20\n 49999: a1 = a1 | a2\n 50002: u64 [sp + 0x28] = a0\n 50005: jump @716 if a1 != 0\n      : @710 (gas: 19)\n 50009: a0 = s1 + 0x20\n 50012: u64 [sp + 0x30] = a0\n 50015: a0 = a0 <u s1\n 50018: a1 = a5 + a0\n 50021: u64 [sp + 0x40] = a1\n 50024: u64 [sp + 0x8] = a5\n 50027: s0 = a1 <u a5\n 50030: s0 = a0 if a0 == 0\n 50033: s0 = s0 + a4\n 50036: u64 [sp + 0x10] = a4\n 50039: a0 = s0 <u a4\n 50042: u64 [sp + 0x18] = a3\n 50045: a0 = a0 + a3\n 50048: u64 [sp + 0x38] = a0\n 50051: u64 [sp] = s1\n 50053: i32 a0 = s1 + 0\n 50055: a1 = 0x20\n 50058: s1 = 0x20\n 50061: ra = 636, jump @0\n      : @711 [@dyn 318] (gas: 45)\n 50068: u8 [a0 + 0x1f] = s1\n 50071: a1 = u64 [sp + 0x30]\n 50074: s1 = a1\n 50076: a1 = a1 | s0\n 50079: a2 = u64 [sp + 0x40]\n 50082: a4 = u64 [sp + 0x38]\n 50085: a2 = a2 | a4\n 50088: a1 = a1 | a2\n 50091: a1 = a1 >> 0x20\n 50094: u64 [sp + 0x20] = s0\n 50097: a2 = a2 | s0\n 50100: a2 = a2 << 0x20\n 50103: a1 = a1 | a2\n 50106: u8 [a0 + 30] = 0\n 50109: u8 [a0 + 29] = 0\n 50112: u8 [a0 + 28] = 0\n 50115: u8 [a0 + 27] = 0\n 50118: u8 [a0 + 26] = 0\n 50121: u8 [a0 + 25] = 0\n 50124: u8 [a0 + 24] = 0\n 50127: u8 [a0 + 23] = 0\n 50130: u8 [a0 + 22] = 0\n 50133: u8 [a0 + 21] = 0\n 50136: u8 [a0 + 20] = 0\n 50139: u8 [a0 + 19] = 0\n 50142: u8 [a0 + 18] = 0\n 50145: u8 [a0 + 17] = 0\n 50148: u8 [a0 + 16] = 0\n 50151: u8 [a0 + 15] = 0\n 50154: u8 [a0 + 14] = 0\n 50157: u8 [a0 + 13] = 0\n 50160: u8 [a0 + 12] = 0\n 50163: u8 [a0 + 11] = 0\n 50166: u8 [a0 + 10] = 0\n 50169: u8 [a0 + 9] = 0\n 50172: u8 [a0 + 8] = 0\n 50175: u8 [a0 + 7] = 0\n 50178: u8 [a0 + 6] = 0\n 50181: u8 [a0 + 5] = 0\n 50184: u8 [a0 + 4] = 0\n 50187: u8 [a0 + 3] = 0\n 50190: u8 [a0 + 2] = 0\n 50193: u8 [a0 + 1] = 0\n 50196: u8 [a0 + 0] = 0\n 50198: jump @716 if a1 != 0\n      : @712 (gas: 4)\n 50202: i32 s0 = s1 + 0\n 50204: a1 = 0x20\n 50207: a0 = s0\n 50209: ra = 638, jump @0\n      : @713 [@dyn 319] (gas: 41)\n 50216: u8 [a0 + 31] = 0x9\n 50220: u8 [a0 + 30] = 0\n 50223: u8 [a0 + 29] = 0\n 50226: u8 [a0 + 28] = 0\n 50229: u8 [a0 + 27] = 0\n 50232: u8 [a0 + 26] = 0\n 50235: u8 [a0 + 25] = 0\n 50238: u8 [a0 + 24] = 0\n 50241: u8 [a0 + 23] = 0\n 50244: u8 [a0 + 22] = 0\n 50247: u8 [a0 + 21] = 0\n 50250: u8 [a0 + 20] = 0\n 50253: u8 [a0 + 19] = 0\n 50256: u8 [a0 + 18] = 0\n 50259: u8 [a0 + 17] = 0\n 50262: u8 [a0 + 16] = 0\n 50265: u8 [a0 + 15] = 0\n 50268: u8 [a0 + 14] = 0\n 50271: u8 [a0 + 13] = 0\n 50274: u8 [a0 + 12] = 0\n 50277: u8 [a0 + 11] = 0\n 50280: u8 [a0 + 10] = 0\n 50283: u8 [a0 + 9] = 0\n 50286: u8 [a0 + 8] = 0\n 50289: u8 [a0 + 7] = 0\n 50292: u8 [a0 + 6] = 0\n 50295: u8 [a0 + 5] = 0\n 50298: u8 [a0 + 4] = 0\n 50301: u8 [a0 + 3] = 0\n 50304: u8 [a0 + 2] = 0\n 50307: u8 [a0 + 1] = 0\n 50310: a1 = u64 [sp + 0x20]\n 50313: a2 = u64 [sp + 0x38]\n 50316: a1 = a1 | a2\n 50319: a2 = 0xffffffe0\n 50329: a2 = s1 <u a2\n 50332: a3 = u64 [sp + 0x40]\n 50335: a2 = 0 if a3 != 0\n 50337: a2 = 0 if a1 != 0\n 50339: u8 [a0 + 0] = 0\n 50341: jump @716 if a2 == 0\n      : @714 (gas: 3)\n 50345: i32 a0 = s0 + 0x20\n 50348: a1 = 0x20\n 50351: ra = 640, jump @0\n      : @715 [@dyn 320] (gas: 54)\n 50358: u8 [a0 + 31] = 0\n 50361: u8 [a0 + 30] = 0\n 50364: u8 [a0 + 29] = 0\n 50367: u8 [a0 + 28] = 0\n 50370: u8 [a0 + 27] = 0\n 50373: u8 [a0 + 26] = 0\n 50376: u8 [a0 + 25] = 0\n 50379: u8 [a0 + 24] = 0\n 50382: u8 [a0 + 23] = 0\n 50385: u8 [a0 + 22] = 0\n 50388: u8 [a0 + 21] = 0\n 50391: u8 [a0 + 20] = 0\n 50394: u8 [a0 + 19] = 0\n 50397: u8 [a0 + 18] = 0\n 50400: u8 [a0 + 17] = 0\n 50403: u8 [a0 + 16] = 0\n 50406: u8 [a0 + 15] = 0\n 50409: u8 [a0 + 14] = 0\n 50412: u8 [a0 + 13] = 0\n 50415: u8 [a0 + 12] = 0\n 50418: u8 [a0 + 11] = 0\n 50421: u8 [a0 + 10] = 0\n 50424: u8 [a0 + 9] = 0\n 50427: u8 [a0 + 8] = 0x30\n 50431: u8 [a0 + 7] = 0x20\n 50435: u8 [a0 + 6] = 0x3d\n 50439: u8 [a0 + 5] = 0x20\n 50443: u8 [a0 + 4] = 0x65\n 50447: u8 [a0 + 3] = 0x63\n 50451: u8 [a0 + 2] = 0x69\n 50455: u8 [a0 + 1] = 0x72\n 50459: u8 [a0 + 0] = 0x70\n 50462: a1 = u64 [sp]\n 50464: a0 = a1 + 0x60\n 50467: a1 = a0 <u a1\n 50470: a3 = u64 [sp + 0x8]\n 50473: a2 = a3 + a1\n 50476: a3 = a2 <u a3\n 50479: a3 = a1 if a1 == 0\n 50482: a1 = u64 [sp + 0x10]\n 50485: a3 = a3 + a1\n 50488: a1 = a3 <u a1\n 50491: a4 = u64 [sp + 0x18]\n 50494: a1 = a1 + a4\n 50497: a4 = u64 [sp + 0x28]\n 50500: u64 [a4] = a0\n 50502: u64 [a4 + 0x8] = a2\n 50505: u64 [a4 + 0x10] = a3\n 50508: u64 [a4 + 0x18] = a1\n 50511: ra = u64 [sp + 0x58]\n 50514: s0 = u64 [sp + 0x50]\n 50517: s1 = u64 [sp + 0x48]\n 50520: sp = sp + 0x60\n 50523: ret\n      : @716 (gas: 1)\n 50525: trap\n      : @717 (gas: 17)\n 50526: sp = sp + 0xffffffffffffffa0\n 50529: u64 [sp + 0x58] = ra\n 50532: u64 [sp + 0x50] = s0\n 50535: u64 [sp + 0x48] = s1\n 50538: a3 = u64 [a1 + 0x18]\n 50541: a4 = u64 [a1 + 0x10]\n 50544: a5 = u64 [a1 + 0x8]\n 50547: s1 = u64 [a1]\n 50549: a1 = a5 | a3\n 50552: a2 = s1 | a4\n 50555: a2 = a2 | a1\n 50558: a2 = a2 >> 0x20\n 50561: a1 = a1 | a4\n 50564: a1 = a1 << 0x20\n 50567: a1 = a1 | a2\n 50570: u64 [sp + 0x28] = a0\n 50573: jump @724 if a1 != 0\n      : @718 (gas: 19)\n 50577: a0 = s1 + 0x20\n 50580: u64 [sp + 0x30] = a0\n 50583: a0 = a0 <u s1\n 50586: a1 = a5 + a0\n 50589: u64 [sp + 0x40] = a1\n 50592: u64 [sp + 0x8] = a5\n 50595: s0 = a1 <u a5\n 50598: s0 = a0 if a0 == 0\n 50601: s0 = s0 + a4\n 50604: u64 [sp + 0x10] = a4\n 50607: a0 = s0 <u a4\n 50610: u64 [sp + 0x18] = a3\n 50613: a0 = a0 + a3\n 50616: u64 [sp + 0x38] = a0\n 50619: u64 [sp] = s1\n 50621: i32 a0 = s1 + 0\n 50623: a1 = 0x20\n 50626: s1 = 0x20\n 50629: ra = 642, jump @0\n      : @719 [@dyn 321] (gas: 45)\n 50636: u8 [a0 + 0x1f] = s1\n 50639: a1 = u64 [sp + 0x30]\n 50642: s1 = a1\n 50644: a1 = a1 | s0\n 50647: a2 = u64 [sp + 0x40]\n 50650: a4 = u64 [sp + 0x38]\n 50653: a2 = a2 | a4\n 50656: a1 = a1 | a2\n 50659: a1 = a1 >> 0x20\n 50662: u64 [sp + 0x20] = s0\n 50665: a2 = a2 | s0\n 50668: a2 = a2 << 0x20\n 50671: a1 = a1 | a2\n 50674: u8 [a0 + 30] = 0\n 50677: u8 [a0 + 29] = 0\n 50680: u8 [a0 + 28] = 0\n 50683: u8 [a0 + 27] = 0\n 50686: u8 [a0 + 26] = 0\n 50689: u8 [a0 + 25] = 0\n 50692: u8 [a0 + 24] = 0\n 50695: u8 [a0 + 23] = 0\n 50698: u8 [a0 + 22] = 0\n 50701: u8 [a0 + 21] = 0\n 50704: u8 [a0 + 20] = 0\n 50707: u8 [a0 + 19] = 0\n 50710: u8 [a0 + 18] = 0\n 50713: u8 [a0 + 17] = 0\n 50716: u8 [a0 + 16] = 0\n 50719: u8 [a0 + 15] = 0\n 50722: u8 [a0 + 14] = 0\n 50725: u8 [a0 + 13] = 0\n 50728: u8 [a0 + 12] = 0\n 50731: u8 [a0 + 11] = 0\n 50734: u8 [a0 + 10] = 0\n 50737: u8 [a0 + 9] = 0\n 50740: u8 [a0 + 8] = 0\n 50743: u8 [a0 + 7] = 0\n 50746: u8 [a0 + 6] = 0\n 50749: u8 [a0 + 5] = 0\n 50752: u8 [a0 + 4] = 0\n 50755: u8 [a0 + 3] = 0\n 50758: u8 [a0 + 2] = 0\n 50761: u8 [a0 + 1] = 0\n 50764: u8 [a0 + 0] = 0\n 50766: jump @724 if a1 != 0\n      : @720 (gas: 4)\n 50770: i32 s0 = s1 + 0\n 50772: a1 = 0x20\n 50775: a0 = s0\n 50777: ra = 644, jump @0\n      : @721 [@dyn 322] (gas: 41)\n 50784: u8 [a0 + 31] = 0xd\n 50788: u8 [a0 + 30] = 0\n 50791: u8 [a0 + 29] = 0\n 50794: u8 [a0 + 28] = 0\n 50797: u8 [a0 + 27] = 0\n 50800: u8 [a0 + 26] = 0\n 50803: u8 [a0 + 25] = 0\n 50806: u8 [a0 + 24] = 0\n 50809: u8 [a0 + 23] = 0\n 50812: u8 [a0 + 22] = 0\n 50815: u8 [a0 + 21] = 0\n 50818: u8 [a0 + 20] = 0\n 50821: u8 [a0 + 19] = 0\n 50824: u8 [a0 + 18] = 0\n 50827: u8 [a0 + 17] = 0\n 50830: u8 [a0 + 16] = 0\n 50833: u8 [a0 + 15] = 0\n 50836: u8 [a0 + 14] = 0\n 50839: u8 [a0 + 13] = 0\n 50842: u8 [a0 + 12] = 0\n 50845: u8 [a0 + 11] = 0\n 50848: u8 [a0 + 10] = 0\n 50851: u8 [a0 + 9] = 0\n 50854: u8 [a0 + 8] = 0\n 50857: u8 [a0 + 7] = 0\n 50860: u8 [a0 + 6] = 0\n 50863: u8 [a0 + 5] = 0\n 50866: u8 [a0 + 4] = 0\n 50869: u8 [a0 + 3] = 0\n 50872: u8 [a0 + 2] = 0\n 50875: u8 [a0 + 1] = 0\n 50878: a1 = u64 [sp + 0x20]\n 50881: a2 = u64 [sp + 0x38]\n 50884: a1 = a1 | a2\n 50887: a2 = 0xffffffe0\n 50897: a2 = s1 <u a2\n 50900: a3 = u64 [sp + 0x40]\n 50903: a2 = 0 if a3 != 0\n 50905: a2 = 0 if a1 != 0\n 50907: u8 [a0 + 0] = 0\n 50909: jump @724 if a2 == 0\n      : @722 (gas: 3)\n 50913: i32 a0 = s0 + 0x20\n 50916: a1 = 0x20\n 50919: ra = 646, jump @0\n      : @723 [@dyn 323] (gas: 54)\n 50926: u8 [a0 + 31] = 0\n 50929: u8 [a0 + 30] = 0\n 50932: u8 [a0 + 29] = 0\n 50935: u8 [a0 + 28] = 0\n 50938: u8 [a0 + 27] = 0\n 50941: u8 [a0 + 26] = 0\n 50944: u8 [a0 + 25] = 0\n 50947: u8 [a0 + 24] = 0\n 50950: u8 [a0 + 23] = 0\n 50953: u8 [a0 + 22] = 0\n 50956: u8 [a0 + 21] = 0\n 50959: u8 [a0 + 20] = 0\n 50962: u8 [a0 + 19] = 0\n 50965: u8 [a0 + 18] = 0\n 50968: u8 [a0 + 17] = 0\n 50971: u8 [a0 + 16] = 0\n 50974: u8 [a0 + 15] = 0\n 50977: u8 [a0 + 14] = 0\n 50980: u8 [a0 + 13] = 0\n 50983: u8 [a0 + 12] = 0x79\n 50987: u8 [a0 + 11] = 0x74\n 50991: u8 [a0 + 10] = 0x70\n 50995: u8 [a0 + 9] = 0x6d\n 50999: u8 [a0 + 8] = 0x65\n 51003: u8 [a0 + 7] = 0x20\n 51007: u8 [a0 + 6] = 0x79\n 51011: u8 [a0 + 5] = 0x61\n 51015: u8 [a0 + 4] = 0x77\n 51019: u8 [a0 + 3] = 0x65\n 51023: u8 [a0 + 2] = 0x74\n 51027: u8 [a0 + 1] = 0x61\n 51031: u8 [a0 + 0] = 0x67\n 51034: a1 = u64 [sp]\n 51036: a0 = a1 + 0x60\n 51039: a1 = a0 <u a1\n 51042: a3 = u64 [sp + 0x8]\n 51045: a2 = a3 + a1\n 51048: a3 = a2 <u a3\n 51051: a3 = a1 if a1 == 0\n 51054: a1 = u64 [sp + 0x10]\n 51057: a3 = a3 + a1\n 51060: a1 = a3 <u a1\n 51063: a4 = u64 [sp + 0x18]\n 51066: a1 = a1 + a4\n 51069: a4 = u64 [sp + 0x28]\n 51072: u64 [a4] = a0\n 51074: u64 [a4 + 0x8] = a2\n 51077: u64 [a4 + 0x10] = a3\n 51080: u64 [a4 + 0x18] = a1\n 51083: ra = u64 [sp + 0x58]\n 51086: s0 = u64 [sp + 0x50]\n 51089: s1 = u64 [sp + 0x48]\n 51092: sp = sp + 0x60\n 51095: ret\n      : @724 (gas: 1)\n 51097: trap\n      : @725 (gas: 17)\n 51098: sp = sp + 0xffffffffffffffa0\n 51101: u64 [sp + 0x58] = ra\n 51104: u64 [sp + 0x50] = s0\n 51107: u64 [sp + 0x48] = s1\n 51110: a3 = u64 [a1 + 0x18]\n 51113: a4 = u64 [a1 + 0x10]\n 51116: a5 = u64 [a1 + 0x8]\n 51119: s1 = u64 [a1]\n 51121: a1 = a5 | a3\n 51124: a2 = s1 | a4\n 51127: a2 = a2 | a1\n 51130: a2 = a2 >> 0x20\n 51133: a1 = a1 | a4\n 51136: a1 = a1 << 0x20\n 51139: a1 = a1 | a2\n 51142: u64 [sp + 0x28] = a0\n 51145: jump @732 if a1 != 0\n      : @726 (gas: 19)\n 51149: a0 = s1 + 0x20\n 51152: u64 [sp + 0x30] = a0\n 51155: a0 = a0 <u s1\n 51158: a1 = a5 + a0\n 51161: u64 [sp + 0x40] = a1\n 51164: u64 [sp + 0x8] = a5\n 51167: s0 = a1 <u a5\n 51170: s0 = a0 if a0 == 0\n 51173: s0 = s0 + a4\n 51176: u64 [sp + 0x10] = a4\n 51179: a0 = s0 <u a4\n 51182: u64 [sp + 0x18] = a3\n 51185: a0 = a0 + a3\n 51188: u64 [sp + 0x38] = a0\n 51191: u64 [sp] = s1\n 51193: i32 a0 = s1 + 0\n 51195: a1 = 0x20\n 51198: s1 = 0x20\n 51201: ra = 648, jump @0\n      : @727 [@dyn 324] (gas: 45)\n 51208: u8 [a0 + 0x1f] = s1\n 51211: a1 = u64 [sp + 0x30]\n 51214: s1 = a1\n 51216: a1 = a1 | s0\n 51219: a2 = u64 [sp + 0x40]\n 51222: a4 = u64 [sp + 0x38]\n 51225: a2 = a2 | a4\n 51228: a1 = a1 | a2\n 51231: a1 = a1 >> 0x20\n 51234: u64 [sp + 0x20] = s0\n 51237: a2 = a2 | s0\n 51240: a2 = a2 << 0x20\n 51243: a1 = a1 | a2\n 51246: u8 [a0 + 30] = 0\n 51249: u8 [a0 + 29] = 0\n 51252: u8 [a0 + 28] = 0\n 51255: u8 [a0 + 27] = 0\n 51258: u8 [a0 + 26] = 0\n 51261: u8 [a0 + 25] = 0\n 51264: u8 [a0 + 24] = 0\n 51267: u8 [a0 + 23] = 0\n 51270: u8 [a0 + 22] = 0\n 51273: u8 [a0 + 21] = 0\n 51276: u8 [a0 + 20] = 0\n 51279: u8 [a0 + 19] = 0\n 51282: u8 [a0 + 18] = 0\n 51285: u8 [a0 + 17] = 0\n 51288: u8 [a0 + 16] = 0\n 51291: u8 [a0 + 15] = 0\n 51294: u8 [a0 + 14] = 0\n 51297: u8 [a0 + 13] = 0\n 51300: u8 [a0 + 12] = 0\n 51303: u8 [a0 + 11] = 0\n 51306: u8 [a0 + 10] = 0\n 51309: u8 [a0 + 9] = 0\n 51312: u8 [a0 + 8] = 0\n 51315: u8 [a0 + 7] = 0\n 51318: u8 [a0 + 6] = 0\n 51321: u8 [a0 + 5] = 0\n 51324: u8 [a0 + 4] = 0\n 51327: u8 [a0 + 3] = 0\n 51330: u8 [a0 + 2] = 0\n 51333: u8 [a0 + 1] = 0\n 51336: u8 [a0 + 0] = 0\n 51338: jump @732 if a1 != 0\n      : @728 (gas: 4)\n 51342: i32 s0 = s1 + 0\n 51344: a1 = 0x20\n 51347: a0 = s0\n 51349: ra = 650, jump @0\n      : @729 [@dyn 325] (gas: 41)\n 51356: u8 [a0 + 31] = 0xd\n 51360: u8 [a0 + 30] = 0\n 51363: u8 [a0 + 29] = 0\n 51366: u8 [a0 + 28] = 0\n 51369: u8 [a0 + 27] = 0\n 51372: u8 [a0 + 26] = 0\n 51375: u8 [a0 + 25] = 0\n 51378: u8 [a0 + 24] = 0\n 51381: u8 [a0 + 23] = 0\n 51384: u8 [a0 + 22] = 0\n 51387: u8 [a0 + 21] = 0\n 51390: u8 [a0 + 20] = 0\n 51393: u8 [a0 + 19] = 0\n 51396: u8 [a0 + 18] = 0\n 51399: u8 [a0 + 17] = 0\n 51402: u8 [a0 + 16] = 0\n 51405: u8 [a0 + 15] = 0\n 51408: u8 [a0 + 14] = 0\n 51411: u8 [a0 + 13] = 0\n 51414: u8 [a0 + 12] = 0\n 51417: u8 [a0 + 11] = 0\n 51420: u8 [a0 + 10] = 0\n 51423: u8 [a0 + 9] = 0\n 51426: u8 [a0 + 8] = 0\n 51429: u8 [a0 + 7] = 0\n 51432: u8 [a0 + 6] = 0\n 51435: u8 [a0 + 5] = 0\n 51438: u8 [a0 + 4] = 0\n 51441: u8 [a0 + 3] = 0\n 51444: u8 [a0 + 2] = 0\n 51447: u8 [a0 + 1] = 0\n 51450: a1 = u64 [sp + 0x20]\n 51453: a2 = u64 [sp + 0x38]\n 51456: a1 = a1 | a2\n 51459: a2 = 0xffffffe0\n 51469: a2 = s1 <u a2\n 51472: a3 = u64 [sp + 0x40]\n 51475: a2 = 0 if a3 != 0\n 51477: a2 = 0 if a1 != 0\n 51479: u8 [a0 + 0] = 0\n 51481: jump @732 if a2 == 0\n      : @730 (gas: 3)\n 51485: i32 a0 = s0 + 0x20\n 51488: a1 = 0x20\n 51491: ra = 652, jump @0\n      : @731 [@dyn 326] (gas: 54)\n 51498: u8 [a0 + 31] = 0\n 51501: u8 [a0 + 30] = 0\n 51504: u8 [a0 + 29] = 0\n 51507: u8 [a0 + 28] = 0\n 51510: u8 [a0 + 27] = 0\n 51513: u8 [a0 + 26] = 0\n 51516: u8 [a0 + 25] = 0\n 51519: u8 [a0 + 24] = 0\n 51522: u8 [a0 + 23] = 0\n 51525: u8 [a0 + 22] = 0\n 51528: u8 [a0 + 21] = 0\n 51531: u8 [a0 + 20] = 0\n 51534: u8 [a0 + 19] = 0\n 51537: u8 [a0 + 18] = 0\n 51540: u8 [a0 + 17] = 0\n 51543: u8 [a0 + 16] = 0\n 51546: u8 [a0 + 15] = 0\n 51549: u8 [a0 + 14] = 0\n 51552: u8 [a0 + 13] = 0\n 51555: u8 [a0 + 12] = 0x65\n 51559: u8 [a0 + 11] = 0x63\n 51563: u8 [a0 + 10] = 0x69\n 51567: u8 [a0 + 9] = 0x72\n 51571: u8 [a0 + 8] = 0x70\n 51575: u8 [a0 + 7] = 0x20\n 51579: u8 [a0 + 6] = 0x3c\n 51583: u8 [a0 + 5] = 0x20\n 51587: u8 [a0 + 4] = 0x65\n 51591: u8 [a0 + 3] = 0x6b\n 51595: u8 [a0 + 2] = 0x61\n 51599: u8 [a0 + 1] = 0x74\n 51603: u8 [a0 + 0] = 0x73\n 51606: a1 = u64 [sp]\n 51608: a0 = a1 + 0x60\n 51611: a1 = a0 <u a1\n 51614: a3 = u64 [sp + 0x8]\n 51617: a2 = a3 + a1\n 51620: a3 = a2 <u a3\n 51623: a3 = a1 if a1 == 0\n 51626: a1 = u64 [sp + 0x10]\n 51629: a3 = a3 + a1\n 51632: a1 = a3 <u a1\n 51635: a4 = u64 [sp + 0x18]\n 51638: a1 = a1 + a4\n 51641: a4 = u64 [sp + 0x28]\n 51644: u64 [a4] = a0\n 51646: u64 [a4 + 0x8] = a2\n 51649: u64 [a4 + 0x10] = a3\n 51652: u64 [a4 + 0x18] = a1\n 51655: ra = u64 [sp + 0x58]\n 51658: s0 = u64 [sp + 0x50]\n 51661: s1 = u64 [sp + 0x48]\n 51664: sp = sp + 0x60\n 51667: ret\n      : @732 (gas: 1)\n 51669: trap\n      : @733 (gas: 16)\n 51670: sp = sp + 0xfffffffffffffee0\n 51674: u64 [sp + 0x118] = ra\n 51678: u64 [sp + 0x110] = s0\n 51682: u64 [sp + 0x108] = s1\n 51686: s0 = sp + 0x120\n 51690: sp = sp & 0xfffffffffffffff0\n 51693: a4 = u64 [a2 + 0x18]\n 51696: a5 = u64 [a2 + 0x10]\n 51699: s1 = u64 [a2 + 0x8]\n 51702: u64 [sp + 0x50] = a4\n 51705: u64 [sp + 0x48] = a5\n 51708: a4 = a4 | a5\n 51711: a5 = s1 <u 0x1\n 51714: a5 = 0 if a4 != 0\n 51716: u64 [sp] = a0\n 51718: jump @747 if a5 == 0\n      : @734 (gas: 35)\n 51722: a0 = u64 [a3 + 0x18]\n 51725: u64 [sp + 0x18] = a0\n 51728: a0 = u64 [a3 + 0x10]\n 51731: u64 [sp + 0x20] = a0\n 51734: a0 = u64 [a3 + 0x8]\n 51737: u64 [sp + 0x8] = a0\n 51740: a0 = u64 [a3]\n 51742: u64 [sp + 0x10] = a0\n 51745: a2 = u64 [a2]\n 51747: a0 = u64 [a1 + 0x18]\n 51750: u64 [sp + 0x70] = a0\n 51753: a0 = u64 [a1 + 0x10]\n 51756: u64 [sp + 0x78] = a0\n 51759: a0 = u64 [a1 + 0x8]\n 51762: u64 [sp + 0x68] = a0\n 51765: a0 = u64 [a1]\n 51767: u64 [sp + 0x60] = a0\n 51770: a0 = a2 + 0x1f\n 51773: u64 [sp + 0x40] = a2\n 51776: a1 = a0 <u a2\n 51779: a1 = a1 + s1\n 51782: a1 = a1 & 0x1\n 51785: a0 = a0 & 0xffffffffffffffe0\n 51788: a2 = a0 + 0x20\n 51791: a0 = a2 <u a0\n 51794: a3 = a1 + a0\n 51797: a4 = a3 <u a1\n 51800: a4 = a0 if a0 == 0\n 51803: u64 [sp + 216] = 0\n 51807: u64 [sp + 0xc0] = a2\n 51811: u64 [sp + 0xc8] = a3\n 51815: a0 = sp + 0xe0\n 51819: a1 = sp + 0xc0\n 51823: u64 [sp + 0xd0] = a4\n 51827: ra = 654, jump @76\n      : @735 [@dyn 327] (gas: 15)\n 51834: a0 = u64 [sp + 0xf8]\n 51838: a2 = u64 [sp + 0xf0]\n 51842: a1 = u64 [sp + 0xe8]\n 51846: a3 = u64 [sp + 0xe0]\n 51850: u64 [sp + 0x58] = a0\n 51853: u64 [sp + 0x30] = a1\n 51856: a0 = a0 | a1\n 51859: a1 = a3 | a2\n 51862: a1 = a1 | a0\n 51865: a1 = a1 >> 0x20\n 51868: u64 [sp + 0x38] = a2\n 51871: a0 = a0 | a2\n 51874: a0 = a0 << 0x20\n 51877: a0 = a0 | a1\n 51880: jump @746 if a0 != 0\n      : @736 (gas: 4)\n 51884: u64 [sp + 0x28] = a3\n 51887: i32 a0 = a3 + 0\n 51889: a1 = 0x20\n 51892: ra = 656, jump @0\n      : @737 [@dyn 328] (gas: 102)\n 51899: t2 = u64 [sp + 0x40]\n 51902: a1 = u64 [sp + 0x60]\n 51905: a1 = a1 + t2\n 51908: a3 = a1 <u t2\n 51911: a2 = u64 [sp + 0x68]\n 51914: a2 = a2 + s1\n 51917: a4 = a2 + a3\n 51920: a5 = a4 ^ s1\n 51923: a2 = a4 <u s1\n 51926: a2 = a3 if a5 == 0\n 51929: a5 = u64 [sp + 0x8]\n 51932: a3 = a4 ^ a5\n 51935: a4 = a5 <u a4\n 51938: a5 = u64 [sp + 0x10]\n 51941: a1 = a5 <u a1\n 51944: ra = u64 [sp + 0x48]\n 51947: a5 = u64 [sp + 0x78]\n 51950: a5 = a5 + ra\n 51953: a1 = a4 if a3 != 0\n 51956: a3 = a5 <u ra\n 51959: t1 = u64 [sp + 0x50]\n 51962: a4 = u64 [sp + 0x70]\n 51965: a4 = a4 + t1\n 51968: a3 = a3 + a4\n 51971: a2 = a2 + a5\n 51974: a4 = a2 <u a5\n 51977: a3 = a3 + a4\n 51980: a5 = u64 [sp + 0x18]\n 51983: a4 = a3 ^ a5\n 51986: a3 = a5 <u a3\n 51989: t0 = u64 [sp + 0x20]\n 51992: a5 = t0 <u a2\n 51995: a3 = a5 if a4 == 0\n 51998: a2 = a2 ^ t0\n 52001: a2 = a2 | a4\n 52004: a1 = a3 if a2 != 0\n 52007: a2 = reverse t2\n 52009: a3 = a2 >> 0x38\n 52012: u8 [a0 + 0x1f] = a3\n 52015: a3 = a2 >> 0x30\n 52018: u8 [a0 + 0x1e] = a3\n 52021: a3 = a2 >> 0x28\n 52024: u8 [a0 + 0x1d] = a3\n 52027: a3 = a2 >> 0x20\n 52030: u8 [a0 + 0x1c] = a3\n 52033: a3 = a2 >> 0x18\n 52036: u8 [a0 + 0x1b] = a3\n 52039: a3 = a2 >> 0x10\n 52042: u8 [a0 + 0x1a] = a3\n 52045: a3 = a2 >> 0x8\n 52048: u8 [a0 + 0x19] = a3\n 52051: a3 = reverse s1\n 52053: u8 [a0 + 0x18] = a2\n 52056: a2 = a3 >> 0x38\n 52059: u8 [a0 + 0x17] = a2\n 52062: a2 = a3 >> 0x30\n 52065: u8 [a0 + 0x16] = a2\n 52068: a2 = a3 >> 0x28\n 52071: u8 [a0 + 0x15] = a2\n 52074: a2 = a3 >> 0x20\n 52077: u8 [a0 + 0x14] = a2\n 52080: a2 = a3 >> 0x18\n 52083: u8 [a0 + 0x13] = a2\n 52086: a2 = a3 >> 0x10\n 52089: u8 [a0 + 0x12] = a2\n 52092: a2 = reverse ra\n 52094: u8 [a0 + 0x10] = a3\n 52097: a3 = a3 >> 0x8\n 52100: u8 [a0 + 0x11] = a3\n 52103: a3 = a2 >> 0x38\n 52106: u8 [a0 + 0xf] = a3\n 52109: a3 = a2 >> 0x30\n 52112: u8 [a0 + 0xe] = a3\n 52115: a3 = a2 >> 0x28\n 52118: u8 [a0 + 0xd] = a3\n 52121: a3 = a2 >> 0x20\n 52124: u8 [a0 + 0xc] = a3\n 52127: a3 = a2 >> 0x18\n 52130: u8 [a0 + 0xb] = a3\n 52133: a3 = a2 >> 0x10\n 52136: u8 [a0 + 0xa] = a3\n 52139: a3 = reverse t1\n 52141: u8 [a0 + 0x8] = a2\n 52144: a2 = a2 >> 0x8\n 52147: u8 [a0 + 0x9] = a2\n 52150: a2 = a3 >> 0x38\n 52153: u8 [a0 + 0x7] = a2\n 52156: a2 = a3 >> 0x30\n 52159: u8 [a0 + 0x6] = a2\n 52162: a2 = a3 >> 0x28\n 52165: u8 [a0 + 0x5] = a2\n 52168: a2 = a3 >> 0x20\n 52171: u8 [a0 + 0x4] = a2\n 52174: a2 = a3 >> 0x18\n 52177: u8 [a0 + 0x3] = a2\n 52180: a2 = a3 >> 0x10\n 52183: u8 [a0 + 0x2] = a2\n 52186: u8 [a0] = a3\n 52188: a3 = a3 >> 0x8\n 52191: u8 [a0 + 0x1] = a3\n 52194: t0 = u64 [sp + 0x60]\n 52197: jump @751 if a1 != 0\n      : @738 (gas: 12)\n 52201: a2 = u64 [sp + 0x78]\n 52204: a0 = t0 | a2\n 52207: a1 = u64 [sp + 0x70]\n 52210: a3 = u64 [sp + 0x68]\n 52213: a1 = a1 | a3\n 52216: a0 = a0 | a1\n 52219: a0 = a0 >> 0x20\n 52222: a1 = a1 | a2\n 52225: a1 = a1 << 0x20\n 52228: a0 = a0 | a1\n 52231: a3 = u64 [sp + 0x58]\n 52234: jump @746 if a0 != 0\n      : @739 (gas: 11)\n 52238: a0 = t2 | ra\n 52241: a1 = s1 | t1\n 52244: a0 = a0 | a1\n 52247: a0 = a0 >> 0x20\n 52250: a1 = a1 | ra\n 52253: a1 = a1 << 0x20\n 52256: a0 = a0 | a1\n 52259: a2 = u64 [sp + 0x38]\n 52262: a4 = u64 [sp + 0x30]\n 52265: a5 = u64 [sp + 0x28]\n 52268: jump @746 if a0 != 0\n      : @740 (gas: 7)\n 52272: u64 [sp + 0x78] = s1\n 52275: a0 = a2 | a3\n 52278: a1 = 0xffffffe0\n 52288: a1 = a5 <u a1\n 52291: a1 = 0 if a4 != 0\n 52293: a1 = 0 if a0 != 0\n 52295: jump @746 if a1 == 0\n      : @741 (gas: 16)\n 52299: s1 = a5 + 0x20\n 52302: a0 = s1 <u a5\n 52305: a1 = a4 + a0\n 52308: u64 [sp + 0x20] = a1\n 52311: a1 = a1 <u a4\n 52314: a1 = a0 if a0 == 0\n 52317: a1 = a1 + a2\n 52320: u64 [sp + 0x68] = a1\n 52323: a0 = a1 <u a2\n 52326: u64 [sp + 0x70] = a0\n 52329: i32 t0 = t0 + 0\n 52331: u64 [sp + 0x60] = t0\n 52334: i32 a0 = s1 + 0\n 52336: i32 a1 = t2 + 0\n 52338: u64 [sp + 0x18] = a1\n 52341: ra = 658, jump @0\n      : @742 [@dyn 329] (gas: 5)\n 52348: i32 a0 = a0 + 0\n 52350: a1 = u64 [sp + 0x18]\n 52353: a2 = u64 [sp + 0x60]\n 52356: ecalli 1 // 'call_data_copy'\n 52358: fallthrough\n      : @743 (gas: 31)\n 52359: a0 = u64 [sp + 0x40]\n 52362: a0 = a0 + s1\n 52365: a1 = a0 <u s1\n 52368: a2 = u64 [sp + 0x78]\n 52371: a4 = u64 [sp + 0x20]\n 52374: a2 = a2 + a4\n 52377: a2 = a2 + a1\n 52380: a3 = a2 ^ a4\n 52383: a4 = a2 <u a4\n 52386: a4 = a1 if a3 == 0\n 52389: a1 = u64 [sp + 0x48]\n 52392: a3 = u64 [sp + 0x68]\n 52395: a1 = a1 + a3\n 52398: a4 = a4 + a1\n 52401: t0 = a4 <u a1\n 52404: a1 = a1 <u a3\n 52407: a5 = u64 [sp + 0x50]\n 52410: s1 = u64 [sp + 0x58]\n 52413: a5 = a5 + s1\n 52416: a3 = u64 [sp + 0x70]\n 52419: a5 = a5 + a3\n 52422: a1 = a1 + a5\n 52425: a1 = a1 + t0\n 52428: a3 = a0 | a4\n 52431: a1 = a1 | a2\n 52434: a3 = a3 | a1\n 52437: a3 = a3 >> 0x20\n 52440: a1 = a1 | a4\n 52443: a1 = a1 << 0x20\n 52446: a1 = a1 | a3\n 52449: jump @746 if a1 != 0\n      : @744 (gas: 3)\n 52453: i32 a0 = a0 + 0\n 52455: a1 = 0x20\n 52458: ra = 660, jump @0\n      : @745 [@dyn 330] (gas: 46)\n 52465: u8 [a0 + 31] = 0\n 52468: u8 [a0 + 30] = 0\n 52471: u8 [a0 + 29] = 0\n 52474: u8 [a0 + 28] = 0\n 52477: u8 [a0 + 27] = 0\n 52480: u8 [a0 + 26] = 0\n 52483: u8 [a0 + 25] = 0\n 52486: u8 [a0 + 24] = 0\n 52489: u8 [a0 + 23] = 0\n 52492: u8 [a0 + 22] = 0\n 52495: u8 [a0 + 21] = 0\n 52498: u8 [a0 + 20] = 0\n 52501: u8 [a0 + 19] = 0\n 52504: u8 [a0 + 18] = 0\n 52507: u8 [a0 + 17] = 0\n 52510: u8 [a0 + 16] = 0\n 52513: u8 [a0 + 15] = 0\n 52516: u8 [a0 + 14] = 0\n 52519: u8 [a0 + 13] = 0\n 52522: u8 [a0 + 12] = 0\n 52525: u8 [a0 + 11] = 0\n 52528: u8 [a0 + 10] = 0\n 52531: u8 [a0 + 9] = 0\n 52534: u8 [a0 + 8] = 0\n 52537: u8 [a0 + 7] = 0\n 52540: u8 [a0 + 6] = 0\n 52543: u8 [a0 + 5] = 0\n 52546: u8 [a0 + 4] = 0\n 52549: u8 [a0 + 3] = 0\n 52552: u8 [a0 + 2] = 0\n 52555: u8 [a0 + 1] = 0\n 52558: u8 [a0 + 0] = 0\n 52560: a0 = u64 [sp]\n 52562: a1 = u64 [sp + 0x28]\n 52565: u64 [a0] = a1\n 52567: u64 [a0 + 0x18] = s1\n 52570: a1 = u64 [sp + 0x30]\n 52573: u64 [a0 + 0x8] = a1\n 52576: a1 = u64 [sp + 0x38]\n 52579: u64 [a0 + 0x10] = a1\n 52582: sp = s0 + 0xfffffffffffffee0\n 52586: ra = u64 [sp + 0x118]\n 52590: s0 = u64 [sp + 0x110]\n 52594: s1 = u64 [sp + 0x108]\n 52598: sp = sp + 0x120\n 52602: ret\n      : @746 (gas: 1)\n 52604: trap\n      : @747 (gas: 8)\n 52605: u64 [sp + 176] = 0\n 52609: u64 [sp + 168] = 0\n 52613: u64 [sp + 160] = 0\n 52617: a0 = 0x4e487b7100000000\n 52627: a1 = sp + 0xa0\n 52631: u64 [sp + 0xb8] = a0\n 52635: a0 = 0\n 52637: ra = 662, jump @23\n      : @748 [@dyn 331] (gas: 7)\n 52644: u64 [sp + 152] = 0\n 52648: u64 [sp + 144] = 0\n 52652: u64 [sp + 128] = 0x41\n 52657: a0 = 0x4\n 52660: a1 = sp + 0x80\n 52664: u64 [sp + 136] = 0\n 52668: ra = 664, jump @23\n      : @749 [@dyn 332] (gas: 3)\n 52675: a1 = 0x24\n 52678: a0 = 0\n 52680: ra = 666, jump @0\n      : @750 [@dyn 333] (gas: 5)\n 52687: i32 a1 = a0 + 0\n 52689: a0 = 0x1\n 52692: a2 = 0x24\n 52695: ecalli 11 // 'seal_return'\n 52697: fallthrough\n      : @751 (gas: 3)\n 52698: a0 = 0\n 52700: a1 = 0\n 52702: ra = 668, jump @0\n      : @752 [@dyn 334] (gas: 6)\n 52709: i32 a1 = a0 + 0\n 52711: a0 = 0x1\n 52714: a2 = 0\n 52716: ra = 0x29e\n 52720: ecalli 11 // 'seal_return'\n 52722: fallthrough\n      : @753 [@dyn 335] (gas: 33)\n 52723: sp = sp + 0xffffffffffffff60\n 52727: u64 [sp + 0x98] = ra\n 52731: u64 [sp + 0x90] = s0\n 52735: u64 [sp + 0x88] = s1\n 52739: s0 = sp + 0xa0\n 52743: sp = sp & 0xfffffffffffffff0\n 52746: t0 = u64 [a1]\n 52748: t1 = u64 [a1 + 0x8]\n 52751: t2 = u64 [a1 + 0x10]\n 52754: ra = u64 [a1 + 0x18]\n 52757: a4 = u64 [a2]\n 52759: a3 = u64 [a2 + 0x8]\n 52762: a5 = u64 [a2 + 0x10]\n 52765: a2 = u64 [a2 + 0x18]\n 52768: a1 = u32 [0x200a8]\n 52773: s1 = a0\n 52775: u64 [sp + 24] = 0\n 52778: u64 [sp + 16] = 0\n 52781: u64 [sp + 8] = 0\n 52784: u64 [sp] = a1\n 52786: u64 [sp + 0x38] = a2\n 52789: u64 [sp + 0x30] = a5\n 52792: u64 [sp + 0x28] = a3\n 52795: u64 [sp + 0x20] = a4\n 52798: u64 [sp + 0x58] = ra\n 52801: u64 [sp + 0x50] = t2\n 52804: u64 [sp + 0x48] = t1\n 52807: a0 = sp + 0x60\n 52810: a1 = sp + 0x40\n 52813: a2 = sp + 0x20\n 52816: a3 = sp\n 52818: u64 [sp + 0x40] = t0\n 52821: ra = 672, jump @733\n      : @754 [@dyn 336] (gas: 14)\n 52827: a0 = u64 [sp + 0x70]\n 52830: a1 = u64 [sp + 0x78]\n 52833: a2 = u64 [sp + 0x60]\n 52836: a3 = u64 [sp + 0x68]\n 52839: u64 [s1 + 0x10] = a0\n 52842: u64 [s1 + 0x18] = a1\n 52845: u64 [s1] = a2\n 52847: u64 [s1 + 0x8] = a3\n 52850: sp = s0 + 0xffffffffffffff60\n 52854: ra = u64 [sp + 0x98]\n 52858: s0 = u64 [sp + 0x90]\n 52862: s1 = u64 [sp + 0x88]\n 52866: sp = sp + 0xa0\n 52870: ret\n      : @755 (gas: 15)\n 52872: sp = sp + 0xffffffffffffff20\n 52876: u64 [sp + 0xd8] = ra\n 52880: u64 [sp + 0xd0] = s0\n 52884: u64 [sp + 0xc8] = s1\n 52888: s0 = sp + 0xe0\n 52892: sp = sp & 0xffffffffffffffe0\n 52895: t0 = u64 [a1 + 0x18]\n 52898: a5 = u64 [a1 + 0x10]\n 52901: a4 = u64 [a1]\n 52903: s1 = u64 [a1 + 0x8]\n 52906: a1 = a5 | t0\n 52909: a3 = a4 <u 0x20\n 52912: a3 = 0 if s1 != 0\n 52914: a3 = 0 if a1 != 0\n 52916: jump @763 if a3 != 0\n      : @756 (gas: 23)\n 52920: a1 = u64 [a2 + 0x18]\n 52923: u64 [sp + 0x50] = a1\n 52926: a1 = u64 [a2 + 0x10]\n 52929: u64 [sp + 0x40] = a1\n 52932: a1 = u64 [a2 + 0x8]\n 52935: u64 [sp + 0x58] = a1\n 52938: a1 = u64 [a2]\n 52940: u64 [sp + 0x20] = a1\n 52943: a1 = u64 [a0 + 0x18]\n 52946: u64 [sp] = a1\n 52948: a1 = u64 [a0 + 0x10]\n 52951: u64 [sp + 0x8] = a1\n 52954: a1 = u64 [a0 + 0x8]\n 52957: u64 [sp + 0x10] = a1\n 52960: a0 = u64 [a0]\n 52962: u64 [sp + 0x18] = a0\n 52965: a1 = 0x20\n 52968: a0 = 0\n 52970: u64 [sp + 0x28] = t0\n 52973: u64 [sp + 0x48] = a5\n 52976: u64 [sp + 0x38] = s1\n 52979: u64 [sp + 0x30] = a4\n 52982: ra = 674, jump @0\n      : @757 [@dyn 337] (gas: 71)\n 52989: a1 = u64 [sp]\n 52991: a1 = reverse a1\n 52993: a2 = u64 [sp + 0x8]\n 52996: a2 = reverse a2\n 52998: a3 = u64 [sp + 0x10]\n 53001: a3 = reverse a3\n 53003: a4 = u64 [sp + 0x18]\n 53006: a4 = reverse a4\n 53008: a5 = a4 >> 0x38\n 53011: u8 [a0 + 0x1f] = a5\n 53014: a5 = a4 >> 0x30\n 53017: u8 [a0 + 0x1e] = a5\n 53020: a5 = a4 >> 0x28\n 53023: u8 [a0 + 0x1d] = a5\n 53026: a5 = a4 >> 0x20\n 53029: u8 [a0 + 0x1c] = a5\n 53032: a5 = a4 >> 0x18\n 53035: u8 [a0 + 0x1b] = a5\n 53038: a5 = a4 >> 0x10\n 53041: u8 [a0 + 0x1a] = a5\n 53044: a5 = a4 >> 0x8\n 53047: u8 [a0 + 0x19] = a5\n 53050: u8 [a0 + 0x18] = a4\n 53053: u8 [a0 + 0x10] = a3\n 53056: a4 = a3 >> 0x38\n 53059: u8 [a0 + 0x17] = a4\n 53062: a4 = a3 >> 0x30\n 53065: u8 [a0 + 0x16] = a4\n 53068: a4 = a3 >> 0x28\n 53071: u8 [a0 + 0x15] = a4\n 53074: a4 = a3 >> 0x20\n 53077: u8 [a0 + 0x14] = a4\n 53080: a4 = a3 >> 0x18\n 53083: u8 [a0 + 0x13] = a4\n 53086: a4 = a3 >> 0x10\n 53089: u8 [a0 + 0x12] = a4\n 53092: a3 = a3 >> 0x8\n 53095: u8 [a0 + 0x11] = a3\n 53098: u8 [a0 + 0x8] = a2\n 53101: a3 = a2 >> 0x38\n 53104: u8 [a0 + 0xf] = a3\n 53107: a3 = a2 >> 0x30\n 53110: u8 [a0 + 0xe] = a3\n 53113: a3 = a2 >> 0x28\n 53116: u8 [a0 + 0xd] = a3\n 53119: a3 = a2 >> 0x20\n 53122: u8 [a0 + 0xc] = a3\n 53125: a3 = a2 >> 0x18\n 53128: u8 [a0 + 0xb] = a3\n 53131: a3 = a2 >> 0x10\n 53134: u8 [a0 + 0xa] = a3\n 53137: a2 = a2 >> 0x8\n 53140: u8 [a0 + 0x9] = a2\n 53143: u8 [a0] = a1\n 53145: a2 = a1 >> 0x38\n 53148: u8 [a0 + 0x7] = a2\n 53151: a2 = a1 >> 0x30\n 53154: u8 [a0 + 0x6] = a2\n 53157: a2 = a1 >> 0x28\n 53160: u8 [a0 + 0x5] = a2\n 53163: a2 = a1 >> 0x20\n 53166: u8 [a0 + 0x4] = a2\n 53169: a2 = a1 >> 0x18\n 53172: u8 [a0 + 0x3] = a2\n 53175: a2 = a1 >> 0x10\n 53178: u8 [a0 + 0x2] = a2\n 53181: a1 = a1 >> 0x8\n 53184: u8 [a0 + 0x1] = a1\n 53187: a1 = 0x20\n 53190: a0 = 0\n 53192: ra = 676, jump @0\n      : @758 [@dyn 338] (gas: 5)\n 53199: i32 a0 = a0 + 0\n 53201: i32 a2 = sp + 0xa0\n 53205: a1 = 0x20\n 53208: ecalli 8 // 'hash_keccak_256'\n 53210: fallthrough\n      : @759 (gas: 112)\n 53211: a2 = u64 [sp + 0x20]\n 53214: a1 = a2 + 0x1f\n 53217: a0 = a1 <u a2\n 53220: t1 = a2\n 53222: a4 = u64 [sp + 0x58]\n 53225: a3 = a4 + a0\n 53228: a2 = a3 <u a4\n 53231: t0 = a4\n 53233: a2 = a0 if a0 == 0\n 53236: s1 = u64 [sp + 0x40]\n 53239: a2 = a2 + s1\n 53242: u64 [sp + 0x18] = a2\n 53245: a2 = a2 << 0x3b\n 53248: a4 = a3 >> 0x5\n 53251: a2 = a2 | a4\n 53254: a3 = a3 << 0x3b\n 53257: a1 = a1 >> 0x5\n 53260: a5 = a1 | a3\n 53263: a1 = t1 <u 0x20\n 53266: a1 = 0 if t0 != 0\n 53268: a3 = u64 [sp + 0xb8]\n 53272: t1 = u64 [sp + 0xb0]\n 53276: a0 = u64 [sp + 0x50]\n 53279: a4 = s1 | a0\n 53282: a1 = 0 if a4 != 0\n 53284: a4 = reverse a3\n 53286: s1 = reverse t1\n 53288: a2 = 0 if a1 != 0\n 53290: a5 = 0 if a1 != 0\n 53292: a5 = a5 + a4\n 53295: u64 [sp + 0x58] = a5\n 53298: a5 = a5 <u a4\n 53301: a3 = s1 + a5\n 53304: t0 = a3 + a2\n 53307: a3 = t0 ^ s1\n 53310: ra = t0 <u s1\n 53313: ra = a5 if a3 == 0\n 53316: a0 = u64 [sp + 0x30]\n 53319: t2 = a0 + 0x1f\n 53322: a0 = t2 <u a0\n 53325: a2 = u64 [sp + 0x38]\n 53328: a3 = a2 + a0\n 53331: a5 = a3 <u a2\n 53334: a5 = a0 if a0 == 0\n 53337: a0 = u64 [sp + 0x48]\n 53340: a5 = a5 + a0\n 53343: a0 = a5 << 0x3b\n 53346: a2 = a3 >> 0x5\n 53349: a0 = a0 | a2\n 53352: a3 = a3 << 0x3b\n 53355: a2 = t2 >> 0x5\n 53358: a2 = a2 | a3\n 53361: t2 = a4 + a2\n 53364: a2 = t2 <u a4\n 53367: a3 = s1 + a2\n 53370: t1 = a3 + a0\n 53373: a0 = t1 ^ s1\n 53376: a3 = t1 <u s1\n 53379: a3 = a2 if a0 == 0\n 53382: a4 = u64 [sp + 0x18]\n 53385: a0 = u64 [sp + 0x40]\n 53388: a0 = a4 <u a0\n 53391: a2 = u64 [sp + 0x50]\n 53394: a0 = a0 + a2\n 53397: a2 = a4 >> 0x5\n 53400: a4 = a0 << 0x3b\n 53403: a2 = a2 | a4\n 53406: a0 = a0 >> 0x5\n 53409: a4 = u64 [sp + 0xa8]\n 53413: s1 = u64 [sp + 0xa0]\n 53417: a2 = 0 if a1 != 0\n 53419: a0 = 0 if a1 != 0\n 53421: a1 = reverse a4\n 53423: a4 = reverse s1\n 53425: u64 [sp + 0x50] = a4\n 53428: a0 = a0 + a4\n 53431: a2 = a2 + a1\n 53434: s1 = a2 <u a1\n 53437: a0 = a0 + s1\n 53440: a4 = a2 + ra\n 53443: s1 = a4 <u a2\n 53446: s1 = s1 + a0\n 53449: a0 = u64 [sp + 0x48]\n 53452: a0 = a5 <u a0\n 53455: a2 = u64 [sp + 0x28]\n 53458: a0 = a0 + a2\n 53461: a5 = a5 >> 0x5\n 53464: a2 = a0 << 0x3b\n 53467: a2 = a2 | a5\n 53470: a5 = u64 [sp + 0x58]\n 53473: a0 = a0 >> 0x5\n 53476: a2 = a2 + a1\n 53479: ra = a2 + a3\n 53482: a1 = a2 <u a1\n 53485: a2 = ra <u a2\n 53488: a3 = u64 [sp + 0x50]\n 53491: a0 = a0 + a3\n 53494: a0 = a0 + a1\n 53497: a3 = a0 + a2\n 53500: a0 = t0 ^ t1\n 53503: a1 = t0 <u t1\n 53506: a2 = a5 <u t2\n 53509: a2 = a1 if a0 != 0\n 53512: a0 = a4 <u ra\n 53515: a1 = s1 ^ a3\n 53518: u64 [sp + 0x40] = a3\n 53521: a3 = s1 <u a3\n 53524: a3 = a0 if a1 == 0\n 53527: a0 = a4 ^ ra\n 53530: a0 = a0 | a1\n 53533: a2 = a3 if a0 != 0\n 53536: jump @763 if a2 == 0\n      : @760 (gas: 5)\n 53540: a0 = a4\n 53542: u64 [sp + 0x38] = t2\n 53545: u64 [sp + 0x30] = t1\n 53548: u64 [sp + 0x28] = ra\n 53551: fallthrough\n      : @761 (gas: 36)\n 53552: u64 [sp + 0x48] = a0\n 53555: u64 [sp + 0x50] = t0\n 53558: u64 [sp + 0x58] = a5\n 53561: u64 [sp + 0x90] = a0\n 53565: u64 [sp + 0x88] = t0\n 53569: u64 [sp + 0x80] = a5\n 53573: u64 [sp + 0x98] = s1\n 53577: u64 [sp + 184] = 0\n 53581: u64 [sp + 176] = 0\n 53585: u64 [sp + 168] = 0\n 53589: u64 [sp + 160] = 0\n 53593: u32 [sp + 96] = 0x20\n 53597: i32 a1 = sp + 0x80\n 53601: i32 a3 = sp + 0xa0\n 53605: i32 a4 = sp + 0x60\n 53608: a2 = 0xffffffffffffffff\n 53611: a0 = 0\n 53613: ecalli 7 // 'get_storage'\n 53615: u64 [sp + 0x98] = s1\n 53619: a0 = u64 [sp + 0x48]\n 53622: u64 [sp + 0x90] = a0\n 53626: a0 = u64 [sp + 0x50]\n 53629: u64 [sp + 0x88] = a0\n 53633: a0 = u64 [sp + 0x58]\n 53636: u64 [sp + 0x80] = a0\n 53640: u64 [sp + 184] = 0\n 53644: u64 [sp + 176] = 0\n 53648: u64 [sp + 168] = 0\n 53652: u64 [sp + 160] = 0\n 53656: i32 a1 = sp + 0x80\n 53660: i32 a3 = sp + 0xa0\n 53664: a2 = 0xffffffffffffffff\n 53667: a4 = 0x20\n 53670: a0 = 0\n 53672: ecalli 13 // 'set_storage'\n 53674: fallthrough\n      : @762 (gas: 27)\n 53675: ra = u64 [sp + 0x28]\n 53678: t1 = u64 [sp + 0x30]\n 53681: t2 = u64 [sp + 0x38]\n 53684: t0 = u64 [sp + 0x50]\n 53687: a5 = u64 [sp + 0x58]\n 53690: a5 = a5 + 0x1\n 53693: a0 = a5 <u 0x1\n 53696: t0 = t0 + a0\n 53699: a0 = a5 | t0\n 53702: a0 = a0 <u 0x1\n 53705: a1 = u64 [sp + 0x48]\n 53708: a0 = a0 + a1\n 53711: a1 = a0 <u a1\n 53714: s1 = s1 + a1\n 53717: a1 = a5 <u t2\n 53720: a2 = t0 ^ t1\n 53723: a3 = t0 <u t1\n 53726: a3 = a1 if a2 == 0\n 53729: a1 = a0 <u ra\n 53732: a4 = u64 [sp + 0x40]\n 53735: a2 = s1 ^ a4\n 53738: a4 = s1 <u a4\n 53741: a4 = a1 if a2 == 0\n 53744: a1 = a0 ^ ra\n 53747: a1 = a1 | a2\n 53750: a4 = a3 if a1 == 0\n 53753: jump @761 if a4 != 0\n      : @763 (gas: 6)\n 53757: sp = s0 + 0xffffffffffffff20\n 53761: ra = u64 [sp + 0xd8]\n 53765: s0 = u64 [sp + 0xd0]\n 53769: s1 = u64 [sp + 0xc8]\n 53773: sp = sp + 0xe0\n 53777: ret\n      : @764 (gas: 21)\n 53779: sp = sp + 0xfffffffffffffd40\n 53783: u64 [sp + 0x2b8] = ra\n 53787: u64 [sp + 0x2b0] = s0\n 53791: u64 [sp + 0x2a8] = s1\n 53795: s0 = sp + 0x2c0\n 53799: sp = sp & 0xffffffffffffffe0\n 53802: a3 = u64 [a1 + 0x10]\n 53805: a2 = u64 [a1 + 0x18]\n 53808: a4 = u64 [a1 + 0x8]\n 53811: a5 = u64 [a1]\n 53813: u64 [sp + 0x98] = a2\n 53817: u64 [sp + 0x88] = a4\n 53821: a1 = a4 | a2\n 53824: a2 = a5 | a3\n 53827: a2 = a2 | a1\n 53830: a2 = a2 >> 0x20\n 53833: u64 [sp + 0x90] = a3\n 53837: a1 = a1 | a3\n 53840: a1 = a1 << 0x20\n 53843: a1 = a1 | a2\n 53846: jump @794 if a1 != 0\n      : @765 (gas: 13)\n 53850: a1 = u64 [a0 + 0x18]\n 53853: u64 [sp + 0x40] = a1\n 53856: a1 = u64 [a0 + 0x10]\n 53859: u64 [sp + 0x58] = a1\n 53862: a1 = u64 [a0 + 0x8]\n 53865: u64 [sp + 0x48] = a1\n 53868: a0 = u64 [a0]\n 53870: u64 [sp + 0x50] = a0\n 53873: u64 [sp + 0x80] = a5\n 53877: i32 a0 = a5 + 0\n 53879: a1 = 0x20\n 53882: u64 [sp + 0x18] = a0\n 53885: ra = 678, jump @0\n      : @766 [@dyn 339] (gas: 80)\n 53892: a1 = u8 [a0 + 0x9]\n 53895: a2 = u8 [a0 + 0x8]\n 53898: a3 = u8 [a0 + 0xa]\n 53901: a4 = u8 [a0 + 0xb]\n 53904: a1 = a1 << 0x8\n 53907: a1 = a1 | a2\n 53910: a3 = a3 << 0x10\n 53913: a4 = a4 << 0x18\n 53916: a3 = a3 | a4\n 53919: a1 = a1 | a3\n 53922: a2 = u8 [a0 + 0xd]\n 53925: a3 = u8 [a0 + 0xc]\n 53928: a4 = u8 [a0 + 0xe]\n 53931: a5 = u8 [a0 + 0xf]\n 53934: a2 = a2 << 0x8\n 53937: a2 = a2 | a3\n 53940: a4 = a4 << 0x10\n 53943: a5 = a5 << 0x18\n 53946: a4 = a4 | a5\n 53949: a2 = a2 | a4\n 53952: a2 = a2 << 0x20\n 53955: t0 = a2 | a1\n 53958: a1 = u8 [a0 + 0x1]\n 53961: a2 = u8 [a0]\n 53963: a3 = u8 [a0 + 0x2]\n 53966: a4 = u8 [a0 + 0x3]\n 53969: a1 = a1 << 0x8\n 53972: a1 = a1 | a2\n 53975: a3 = a3 << 0x10\n 53978: a4 = a4 << 0x18\n 53981: a3 = a3 | a4\n 53984: a1 = a1 | a3\n 53987: a2 = u8 [a0 + 0x5]\n 53990: a3 = u8 [a0 + 0x4]\n 53993: a4 = u8 [a0 + 0x6]\n 53996: a5 = u8 [a0 + 0x7]\n 53999: a2 = a2 << 0x8\n 54002: a2 = a2 | a3\n 54005: a4 = a4 << 0x10\n 54008: a5 = a5 << 0x18\n 54011: a4 = a4 | a5\n 54014: a2 = a2 | a4\n 54017: a2 = a2 << 0x20\n 54020: s1 = a2 | a1\n 54023: a1 = u8 [a0 + 0x11]\n 54026: a2 = u8 [a0 + 0x10]\n 54029: a3 = u8 [a0 + 0x12]\n 54032: a4 = u8 [a0 + 0x13]\n 54035: a1 = a1 << 0x8\n 54038: a1 = a1 | a2\n 54041: a3 = a3 << 0x10\n 54044: a4 = a4 << 0x18\n 54047: a3 = a3 | a4\n 54050: a1 = a1 | a3\n 54053: a2 = u8 [a0 + 0x15]\n 54056: a3 = u8 [a0 + 0x14]\n 54059: a4 = u8 [a0 + 0x16]\n 54062: a5 = u8 [a0 + 0x17]\n 54065: a2 = a2 << 0x8\n 54068: a2 = a2 | a3\n 54071: a4 = a4 << 0x10\n 54074: a5 = a5 << 0x18\n 54077: a4 = a4 | a5\n 54080: a2 = a2 | a4\n 54083: a2 = a2 << 0x20\n 54086: a1 = a1 | a2\n 54089: u64 [sp + 0x60] = a1\n 54092: a1 = reverse a1\n 54094: u64 [sp + 0x68] = s1\n 54097: a3 = reverse s1\n 54099: u64 [sp + 0x70] = t0\n 54102: a2 = reverse t0\n 54104: u64 [sp + 0x30] = a2\n 54107: u64 [sp + 0x28] = a3\n 54110: a2 = a2 | a3\n 54113: u64 [sp + 0x38] = a1\n 54116: a1 = a1 <u 0x1\n 54119: u64 [sp + 0xd8] = a2\n 54123: a1 = 0 if a2 != 0\n 54125: jump @795 if a1 == 0\n      : @767 (gas: 36)\n 54129: a1 = u8 [a0 + 0x18]\n 54132: u64 [sp + 0xb8] = a1\n 54136: a1 = u8 [a0 + 0x19]\n 54139: u64 [sp + 0x78] = a1\n 54142: a1 = u8 [a0 + 0x1a]\n 54145: u64 [sp + 0xa8] = a1\n 54149: a1 = u8 [a0 + 0x1b]\n 54152: u64 [sp + 0xa0] = a1\n 54156: a1 = u8 [a0 + 0x1c]\n 54159: u64 [sp + 0xd0] = a1\n 54163: a1 = u8 [a0 + 0x1d]\n 54166: u64 [sp + 0xb0] = a1\n 54170: a1 = u8 [a0 + 0x1e]\n 54173: u64 [sp + 0xc8] = a1\n 54177: a0 = u8 [a0 + 0x1f]\n 54180: u64 [sp + 0xc0] = a0\n 54184: u32 [sp + 576] = 0x20\n 54189: a0 = u64 [sp + 0x58]\n 54192: u64 [sp + 0x270] = a0\n 54196: a0 = u64 [sp + 0x48]\n 54199: u64 [sp + 0x268] = a0\n 54203: a0 = u64 [sp + 0x50]\n 54206: u64 [sp + 0x260] = a0\n 54210: s1 = u64 [sp + 0x40]\n 54213: u64 [sp + 0x278] = s1\n 54217: u64 [sp + 664] = 0\n 54221: u64 [sp + 656] = 0\n 54225: u64 [sp + 648] = 0\n 54229: u64 [sp + 640] = 0\n 54233: i32 a1 = sp + 0x260\n 54237: i32 a3 = sp + 0x280\n 54241: i32 a4 = sp + 0x240\n 54245: a2 = 0xffffffffffffffff\n 54248: a0 = 0\n 54250: ecalli 7 // 'get_storage'\n 54252: fallthrough\n      : @768 (gas: 28)\n 54253: a0 = u64 [sp + 0x290]\n 54257: a1 = u64 [sp + 0x288]\n 54261: a2 = u64 [sp + 0x280]\n 54265: a3 = u64 [sp + 0x298]\n 54269: a4 = a0 << 0x3f\n 54272: a5 = a1 >> 0x1\n 54275: a4 = a4 | a5\n 54278: a5 = a3 << 0x3f\n 54281: a0 = a0 >> 0x1\n 54284: t2 = s1\n 54286: s1 = a0 | a5\n 54289: a1 = a1 << 0x3f\n 54292: a5 = a2 >> 0x1\n 54295: a1 = a1 | a5\n 54298: a5 = a3 >> 0x1\n 54301: a2 = a2 & 0x1\n 54304: a0 = -a2\n 54306: t0 = a2 <u 0x1\n 54309: a3 = a1 & 0x7f\n 54312: t1 = a0 & s1\n 54315: a4 = a4 & a0\n 54318: a3 = a1 if a2 != 0\n 54321: a1 = a0 & a5\n 54324: a0 = a3 <u 0x20\n 54327: a0 = 0 if a4 != 0\n 54329: a2 = t1 | a1\n 54332: a0 = 0 if a2 != 0\n 54334: jump @797 if t0 != a0\n      : @769 (gas: 47)\n 54338: a0 = u64 [sp + 0x78]\n 54341: a0 = a0 << 0x8\n 54344: a2 = u64 [sp + 0xb8]\n 54348: a0 = a0 | a2\n 54351: a2 = u64 [sp + 0xa8]\n 54355: a2 = a2 << 0x10\n 54358: a5 = u64 [sp + 0xa0]\n 54362: a5 = a5 << 0x18\n 54365: a2 = a2 | a5\n 54368: a0 = a0 | a2\n 54371: a2 = u64 [sp + 0xb0]\n 54375: a2 = a2 << 0x8\n 54378: a5 = u64 [sp + 0xd0]\n 54382: a2 = a2 | a5\n 54385: a5 = u64 [sp + 0xc8]\n 54389: a5 = a5 << 0x10\n 54392: s1 = u64 [sp + 0xc0]\n 54396: s1 = s1 << 0x18\n 54399: a5 = a5 | s1\n 54402: a2 = a2 | a5\n 54405: a2 = a2 << 0x20\n 54408: a0 = a0 | a2\n 54411: u64 [sp + 0xd0] = a0\n 54415: a0 = reverse a0\n 54417: u64 [sp + 0x20] = a0\n 54420: u64 [sp + 0x1e0] = a0\n 54424: u64 [sp + 0x200] = a3\n 54428: a0 = u64 [sp + 0x50]\n 54431: u64 [sp + 0x220] = a0\n 54435: a0 = u64 [sp + 0x38]\n 54438: u64 [sp + 0x1e8] = a0\n 54442: u64 [sp + 0x208] = a4\n 54446: a0 = u64 [sp + 0x48]\n 54449: u64 [sp + 0x228] = a0\n 54453: a0 = u64 [sp + 0x30]\n 54456: u64 [sp + 0x1f0] = a0\n 54460: u64 [sp + 0x210] = t1\n 54464: a0 = u64 [sp + 0x58]\n 54467: u64 [sp + 0x230] = a0\n 54471: s1 = u64 [sp + 0x28]\n 54474: u64 [sp + 0x1f8] = s1\n 54478: u64 [sp + 0x218] = a1\n 54482: a0 = sp + 0x220\n 54486: a1 = sp + 0x200\n 54490: a2 = sp + 0x1e0\n 54494: u64 [sp + 0x238] = t2\n 54498: ra = 680, jump @755\n      : @770 [@dyn 340] (gas: 16)\n 54504: a3 = u64 [sp + 0x20]\n 54507: a2 = u64 [sp + 0x38]\n 54510: a0 = a2 >u 0\n 54512: a1 = a3 <u 0x20\n 54515: a1 = a1 ^ 0x1\n 54518: a1 = a0 if a2 != 0\n 54521: a0 = u64 [sp + 0x30]\n 54524: a0 = a0 >u 0\n 54526: a2 = s1 >u 0\n 54528: a2 = a0 if s1 == 0\n 54531: a0 = u64 [sp + 0xd8]\n 54535: a2 = a1 if a0 == 0\n 54538: a4 = u64 [sp + 0x40]\n 54541: a5 = u64 [sp + 0x58]\n 54544: s1 = u64 [sp + 0x50]\n 54547: jump @781 if a2 == 0\n      : @771 (gas: 5)\n 54551: a3 = a3 & 0xffffffffffffffe0\n 54554: u64 [sp + 0x18] = a3\n 54557: a1 = 0x20\n 54560: a0 = 0\n 54562: ra = 682, jump @0\n      : @772 [@dyn 341] (gas: 70)\n 54569: a1 = u64 [sp + 0x40]\n 54572: a1 = reverse a1\n 54574: a2 = u64 [sp + 0x58]\n 54577: a2 = reverse a2\n 54579: a3 = u64 [sp + 0x48]\n 54582: a3 = reverse a3\n 54584: a4 = reverse s1\n 54586: a5 = a4 >> 0x38\n 54589: u8 [a0 + 0x1f] = a5\n 54592: a5 = a4 >> 0x30\n 54595: u8 [a0 + 0x1e] = a5\n 54598: a5 = a4 >> 0x28\n 54601: u8 [a0 + 0x1d] = a5\n 54604: a5 = a4 >> 0x20\n 54607: u8 [a0 + 0x1c] = a5\n 54610: a5 = a4 >> 0x18\n 54613: u8 [a0 + 0x1b] = a5\n 54616: a5 = a4 >> 0x10\n 54619: u8 [a0 + 0x1a] = a5\n 54622: a5 = a4 >> 0x8\n 54625: u8 [a0 + 0x19] = a5\n 54628: u8 [a0 + 0x18] = a4\n 54631: u8 [a0 + 0x10] = a3\n 54634: a4 = a3 >> 0x38\n 54637: u8 [a0 + 0x17] = a4\n 54640: a4 = a3 >> 0x30\n 54643: u8 [a0 + 0x16] = a4\n 54646: a4 = a3 >> 0x28\n 54649: u8 [a0 + 0x15] = a4\n 54652: a4 = a3 >> 0x20\n 54655: u8 [a0 + 0x14] = a4\n 54658: a4 = a3 >> 0x18\n 54661: u8 [a0 + 0x13] = a4\n 54664: a4 = a3 >> 0x10\n 54667: u8 [a0 + 0x12] = a4\n 54670: a3 = a3 >> 0x8\n 54673: u8 [a0 + 0x11] = a3\n 54676: u8 [a0 + 0x8] = a2\n 54679: a3 = a2 >> 0x38\n 54682: u8 [a0 + 0xf] = a3\n 54685: a3 = a2 >> 0x30\n 54688: u8 [a0 + 0xe] = a3\n 54691: a3 = a2 >> 0x28\n 54694: u8 [a0 + 0xd] = a3\n 54697: a3 = a2 >> 0x20\n 54700: u8 [a0 + 0xc] = a3\n 54703: a3 = a2 >> 0x18\n 54706: u8 [a0 + 0xb] = a3\n 54709: a3 = a2 >> 0x10\n 54712: u8 [a0 + 0xa] = a3\n 54715: a2 = a2 >> 0x8\n 54718: u8 [a0 + 0x9] = a2\n 54721: u8 [a0] = a1\n 54723: a2 = a1 >> 0x38\n 54726: u8 [a0 + 0x7] = a2\n 54729: a2 = a1 >> 0x30\n 54732: u8 [a0 + 0x6] = a2\n 54735: a2 = a1 >> 0x28\n 54738: u8 [a0 + 0x5] = a2\n 54741: a2 = a1 >> 0x20\n 54744: u8 [a0 + 0x4] = a2\n 54747: a2 = a1 >> 0x18\n 54750: u8 [a0 + 0x3] = a2\n 54753: a2 = a1 >> 0x10\n 54756: u8 [a0 + 0x2] = a2\n 54759: a1 = a1 >> 0x8\n 54762: u8 [a0 + 0x1] = a1\n 54765: a1 = 0x20\n 54768: a0 = 0\n 54770: ra = 684, jump @0\n      : @773 [@dyn 342] (gas: 5)\n 54777: i32 a0 = a0 + 0\n 54779: i32 a2 = sp + 0x280\n 54783: a1 = 0x20\n 54786: ecalli 8 // 'hash_keccak_256'\n 54788: fallthrough\n      : @774 (gas: 13)\n 54789: a0 = u64 [sp + 0x280]\n 54793: a1 = u64 [sp + 0x288]\n 54797: a2 = u64 [sp + 0x290]\n 54801: a3 = u64 [sp + 0x298]\n 54805: a0 = reverse a0\n 54807: u64 [sp + 0xd0] = a0\n 54811: t0 = reverse a1\n 54813: a0 = reverse a2\n 54815: u64 [sp + 0xd8] = a0\n 54819: a0 = reverse a3\n 54821: u64 [sp + 0xc0] = a0\n 54825: a0 = u64 [sp + 0x18]\n 54828: jump @785 if a0 == 0\n      : @775 (gas: 118)\n 54832: u64 [sp + 176] = 0\n 54836: u64 [sp + 184] = 0\n 54840: u64 [sp + 168] = 0\n 54844: ra = u64 [sp + 0x80]\n 54848: s1 = ra + 0x20\n 54851: a0 = s1 <u ra\n 54854: t2 = u64 [sp + 0x88]\n 54858: a2 = t2 + a0\n 54861: a3 = a2 <u t2\n 54864: a3 = a0 if a0 == 0\n 54867: t1 = u64 [sp + 0x90]\n 54871: a3 = a3 + t1\n 54874: a0 = a3 <u t1\n 54877: u64 [sp + 0xc8] = t0\n 54881: t0 = u64 [sp + 0x98]\n 54885: t0 = t0 + a0\n 54888: a4 = a3 >u 0\n 54890: a5 = t0 >u 0\n 54892: a5 = a4 if t0 == 0\n 54895: a4 = 0x100000000\n 54905: a1 = s1\n 54907: a0 = maxu(s1, a4)\n 54910: s1 = a4 if a5 == 0\n 54913: a1 = a4 if a2 == 0\n 54916: a0 = a1 if a2 != 0\n 54919: a1 = a3 | t0\n 54922: a0 = s1 if a1 != 0\n 54925: a4 = a2\n 54927: a4 = 0 if a5 == 0\n 54929: a4 = a2 if a1 == 0\n 54932: a1 = a3\n 54934: a1 = 0 if t0 == 0\n 54936: a1 = a3 if t0 == 0\n 54939: a2 = t2 ^ 0xffffffffffffffff\n 54942: a4 = a4 + a2\n 54945: a3 = ra ^ 0xffffffffffffffff\n 54948: a0 = a0 + a3\n 54951: a3 = a0 <u a3\n 54954: a4 = a4 + a3\n 54957: a5 = a4 ^ a2\n 54960: a2 = a4 <u a2\n 54963: a2 = a3 if a5 == 0\n 54966: a5 = t1 ^ 0xffffffffffffffff\n 54969: u64 [sp + 0x78] = a5\n 54972: a5 = a5 + a1\n 54975: s1 = a5 + a2\n 54978: a1 = s1 << 0x3b\n 54981: a2 = a4 >> 0x5\n 54984: a1 = a1 | a2\n 54987: a4 = a4 << 0x3b\n 54990: a0 = a0 >> 0x5\n 54993: a2 = a0 | a4\n 54996: u64 [sp + 0xa0] = a2\n 55000: a4 = u64 [sp + 0x18]\n 55003: a0 = a4 <u 0x1\n 55006: a3 = -a0\n 55008: ra = a0 << 0x3b\n 55011: a4 = a4 + 0xffffffffffffffff\n 55014: a4 = a4 >> 0x5\n 55017: a0 = a4 - ra\n 55020: t2 = a1 ^ a3\n 55023: a4 = a1 <u a3\n 55026: t1 = a2 <u a0\n 55029: t1 = a4 if t2 != 0\n 55032: a2 = u64 [sp + 0x98]\n 55036: a4 = a2 ^ 0xffffffffffffffff\n 55039: t0 = t0 + a4\n 55042: a2 = u64 [sp + 0x78]\n 55045: a4 = a5 <u a2\n 55048: a4 = a4 + t0\n 55051: a5 = s1 <u a5\n 55054: a4 = a4 + a5\n 55057: s1 = s1 >> 0x5\n 55060: a5 = a4 << 0x3b\n 55063: a5 = a5 | s1\n 55066: a4 = a4 >> 0x5\n 55069: s1 = a3 >> 0x5\n 55072: t0 = s1 - ra\n 55075: a2 = a5 <u t0\n 55078: t2 = a4 ^ s1\n 55081: ra = a4 <u s1\n 55084: ra = a2 if t2 == 0\n 55087: a2 = a5 ^ t0\n 55090: a2 = a2 | t2\n 55093: ra = t1 if a2 == 0\n 55096: a2 = u64 [sp + 0xa0]\n 55100: a2 = a0 if ra == 0\n 55103: a1 = a3 if ra == 0\n 55106: a4 = s1 if ra == 0\n 55109: a5 = t0 if ra == 0\n 55112: a0 = a5 >> 0x3b\n 55115: a4 = a4 << 0x5\n 55118: t0 = a4 | a0\n 55121: a4 = u64 [sp + 0xb0]\n 55125: a0 = a1 >> 0x3b\n 55128: a5 = a5 << 0x5\n 55131: t2 = a5 | a0\n 55134: a5 = u64 [sp + 0xb8]\n 55138: a3 = a2 >> 0x3b\n 55141: a1 = a1 << 0x5\n 55144: a0 = a1 | a3\n 55147: t1 = a2 << 0x5\n 55150: a3 = t1 + 0x40\n 55153: u64 [sp + 0x78] = a3\n 55156: a3 = a3 <u t1\n 55159: s1 = u64 [sp + 0xa8]\n 55163: a1 = a0 + a3\n 55166: u64 [sp + 0x70] = a1\n 55169: a1 = a1 <u a0\n 55172: a1 = a3 if a3 == 0\n 55175: a1 = a1 + t2\n 55178: u64 [sp + 0x68] = a1\n 55181: a1 = a1 <u t2\n 55184: a1 = a1 + t0\n 55187: u64 [sp + 0x60] = a1\n 55190: a2 = 0x20\n 55193: a3 = u64 [sp + 0xc8]\n 55197: fallthrough\n      : @776 (gas: 31)\n 55198: u64 [sp + 0xa8] = s1\n 55202: u64 [sp + 0xc8] = a3\n 55206: a0 = u64 [sp + 0x80]\n 55210: a0 = a0 + a2\n 55213: u64 [sp + 0xa0] = a2\n 55217: a1 = a0 <u a2\n 55220: a2 = u64 [sp + 0x88]\n 55224: a2 = a2 + a4\n 55227: a2 = a2 + a1\n 55230: a3 = a2 ^ a4\n 55233: u64 [sp + 0xb0] = a4\n 55237: a4 = a2 <u a4\n 55240: a4 = a1 if a3 == 0\n 55243: a1 = u64 [sp + 0x90]\n 55247: a1 = a1 + a5\n 55250: u64 [sp + 0xb8] = a5\n 55254: a3 = a1 <u a5\n 55257: a5 = u64 [sp + 0x98]\n 55261: a5 = a5 + s1\n 55264: a3 = a3 + a5\n 55267: a4 = a4 + a1\n 55270: a1 = a4 <u a1\n 55273: a1 = a1 + a3\n 55276: a1 = a1 | a2\n 55279: a2 = a0 | a4\n 55282: a2 = a2 | a1\n 55285: a1 = a1 | a4\n 55288: a2 = a2 >> 0x20\n 55291: a1 = a1 << 0x20\n 55294: a1 = a1 | a2\n 55297: jump @794 if a1 != 0\n      : @777 (gas: 3)\n 55301: i32 a0 = a0 + 0\n 55303: a1 = 0x20\n 55306: ra = 686, jump @0\n      : @778 [@dyn 343] (gas: 111)\n 55313: a1 = u8 [a0 + 0x1]\n 55316: a2 = u8 [a0]\n 55318: a3 = u8 [a0 + 0x2]\n 55321: a4 = u8 [a0 + 0x3]\n 55324: a1 = a1 << 0x8\n 55327: a1 = a1 | a2\n 55330: a3 = a3 << 0x10\n 55333: a4 = a4 << 0x18\n 55336: a3 = a3 | a4\n 55339: a1 = a1 | a3\n 55342: a2 = u8 [a0 + 0x5]\n 55345: a3 = u8 [a0 + 0x4]\n 55348: a4 = u8 [a0 + 0x6]\n 55351: a5 = u8 [a0 + 0x7]\n 55354: a2 = a2 << 0x8\n 55357: a2 = a2 | a3\n 55360: a4 = a4 << 0x10\n 55363: a5 = a5 << 0x18\n 55366: a4 = a4 | a5\n 55369: a2 = a2 | a4\n 55372: a2 = a2 << 0x20\n 55375: t0 = a2 | a1\n 55378: a2 = u8 [a0 + 0x9]\n 55381: a3 = u8 [a0 + 0x8]\n 55384: a4 = u8 [a0 + 0xa]\n 55387: a5 = u8 [a0 + 0xb]\n 55390: a2 = a2 << 0x8\n 55393: a2 = a2 | a3\n 55396: a4 = a4 << 0x10\n 55399: a5 = a5 << 0x18\n 55402: a4 = a4 | a5\n 55405: a2 = a2 | a4\n 55408: a3 = u8 [a0 + 0xd]\n 55411: a4 = u8 [a0 + 0xc]\n 55414: a5 = u8 [a0 + 0xe]\n 55417: s1 = u8 [a0 + 0xf]\n 55420: a3 = a3 << 0x8\n 55423: a3 = a3 | a4\n 55426: a5 = a5 << 0x10\n 55429: s1 = s1 << 0x18\n 55432: a5 = a5 | s1\n 55435: a3 = a3 | a5\n 55438: a3 = a3 << 0x20\n 55441: a2 = a2 | a3\n 55444: a3 = u8 [a0 + 0x11]\n 55447: a4 = u8 [a0 + 0x10]\n 55450: a5 = u8 [a0 + 0x12]\n 55453: s1 = u8 [a0 + 0x13]\n 55456: a3 = a3 << 0x8\n 55459: a3 = a3 | a4\n 55462: a5 = a5 << 0x10\n 55465: s1 = s1 << 0x18\n 55468: a5 = a5 | s1\n 55471: a3 = a3 | a5\n 55474: a4 = u8 [a0 + 0x15]\n 55477: a5 = u8 [a0 + 0x14]\n 55480: s1 = u8 [a0 + 0x16]\n 55483: a1 = u8 [a0 + 0x17]\n 55486: a4 = a4 << 0x8\n 55489: a4 = a4 | a5\n 55492: s1 = s1 << 0x10\n 55495: a1 = a1 << 0x18\n 55498: a1 = a1 | s1\n 55501: a1 = a1 | a4\n 55504: a1 = a1 << 0x20\n 55507: a3 = a3 | a1\n 55510: a1 = u8 [a0 + 0x19]\n 55513: a4 = u8 [a0 + 0x18]\n 55516: a5 = u8 [a0 + 0x1a]\n 55519: s1 = u8 [a0 + 0x1b]\n 55522: a1 = a1 << 0x8\n 55525: a1 = a1 | a4\n 55528: a5 = a5 << 0x10\n 55531: s1 = s1 << 0x18\n 55534: a5 = a5 | s1\n 55537: a1 = a1 | a5\n 55540: a4 = u8 [a0 + 0x1d]\n 55543: a5 = u8 [a0 + 0x1c]\n 55546: s1 = u8 [a0 + 0x1e]\n 55549: a0 = u8 [a0 + 0x1f]\n 55552: a4 = a4 << 0x8\n 55555: a4 = a4 | a5\n 55558: s1 = s1 << 0x10\n 55561: a0 = a0 << 0x18\n 55564: a0 = a0 | s1\n 55567: a0 = a0 | a4\n 55570: a0 = a0 << 0x20\n 55573: a0 = a0 | a1\n 55576: a0 = reverse a0\n 55578: a1 = reverse a3\n 55580: a2 = reverse a2\n 55582: a3 = reverse t0\n 55584: a4 = u64 [sp + 0xd0]\n 55588: u64 [sp + 0x278] = a4\n 55592: a4 = u64 [sp + 0xc8]\n 55596: u64 [sp + 0x270] = a4\n 55600: a4 = u64 [sp + 0xd8]\n 55604: u64 [sp + 0x268] = a4\n 55608: s1 = u64 [sp + 0xc0]\n 55612: u64 [sp + 0x260] = s1\n 55616: u64 [sp + 0x298] = a3\n 55620: u64 [sp + 0x290] = a2\n 55624: u64 [sp + 0x288] = a1\n 55628: u64 [sp + 0x280] = a0\n 55632: i32 a1 = sp + 0x260\n 55636: i32 a3 = sp + 0x280\n 55640: a2 = 0xffffffffffffffff\n 55643: a4 = 0x20\n 55646: a0 = 0\n 55648: ecalli 13 // 'set_storage'\n 55650: fallthrough\n      : @779 (gas: 42)\n 55651: s1 = s1 + 0x1\n 55654: a0 = s1 <u 0x1\n 55657: a1 = u64 [sp + 0xd8]\n 55661: a1 = a1 + a0\n 55664: u64 [sp + 0xc0] = s1\n 55668: u64 [sp + 0xd8] = a1\n 55672: a0 = s1 | a1\n 55675: a0 = a0 <u 0x1\n 55678: a1 = u64 [sp + 0xc8]\n 55682: t0 = a1 + a0\n 55685: a2 = t0 <u a1\n 55688: a0 = u64 [sp + 0xa0]\n 55692: a1 = a0 + 0x20\n 55695: a0 = a1 <u a0\n 55698: a3 = u64 [sp + 0xb0]\n 55702: t2 = a3 + a0\n 55705: a3 = t2 <u a3\n 55708: a3 = a0 if a0 == 0\n 55711: a4 = u64 [sp + 0xb8]\n 55715: a0 = a4 + a3\n 55718: a3 = a0 <u a4\n 55721: s1 = u64 [sp + 0xa8]\n 55725: s1 = s1 + a3\n 55728: a3 = u64 [sp + 0x68]\n 55731: a3 = a3 ^ a0\n 55734: a4 = u64 [sp + 0x78]\n 55737: a4 = a4 ^ a1\n 55740: a3 = a3 | a4\n 55743: a4 = u64 [sp + 0x60]\n 55746: a4 = a4 ^ s1\n 55749: a5 = u64 [sp + 0x70]\n 55752: a5 = t2 ^ a5\n 55755: a4 = a4 | a5\n 55758: t1 = a3 | a4\n 55761: a3 = u64 [sp + 0xd0]\n 55765: a3 = a3 + a2\n 55768: u64 [sp + 0xd0] = a3\n 55772: a2 = a1\n 55774: a4 = t2\n 55776: a5 = a0\n 55778: a3 = t0\n 55780: jump @776 if t1 != 0\n      : @780 (gas: 1)\n 55784: jump @786\n      : @781 (gas: 8)\n 55787: a0 = u64 [sp + 0x68]\n 55790: a1 = u64 [sp + 0x60]\n 55793: a0 = a0 | a1\n 55796: a1 = u64 [sp + 0x70]\n 55799: a2 = u64 [sp + 0xd0]\n 55803: a1 = a1 | a2\n 55806: a0 = a0 | a1\n 55809: jump @791 if a0 == 0\n      : @782 (gas: 10)\n 55813: a0 = u64 [sp + 0x98]\n 55817: a1 = u64 [sp + 0x90]\n 55821: a0 = a0 | a1\n 55824: a1 = 0xffffffe0\n 55834: a2 = u64 [sp + 0x80]\n 55838: a1 = a2 <u a1\n 55841: a2 = u64 [sp + 0x88]\n 55845: a1 = 0 if a2 != 0\n 55847: a1 = 0 if a0 != 0\n 55849: jump @794 if a1 == 0\n      : @783 (gas: 4)\n 55853: a0 = u64 [sp + 0x18]\n 55856: i32 a0 = a0 + 0x20\n 55859: a1 = 0x20\n 55862: ra = 688, jump @0\n      : @784 [@dyn 344] (gas: 280)\n 55869: a1 = u8 [a0 + 0x19]\n 55872: a2 = u8 [a0 + 0x18]\n 55875: a3 = u8 [a0 + 0x1a]\n 55878: a4 = u8 [a0 + 0x1b]\n 55881: a1 = a1 << 0x8\n 55884: a1 = a1 | a2\n 55887: a3 = a3 << 0x10\n 55890: a4 = a4 << 0x18\n 55893: a3 = a3 | a4\n 55896: a1 = a1 | a3\n 55899: a2 = u8 [a0 + 0x1d]\n 55902: a3 = u8 [a0 + 0x1c]\n 55905: a4 = u8 [a0 + 0x1e]\n 55908: a5 = u8 [a0 + 0x1f]\n 55911: a2 = a2 << 0x8\n 55914: a2 = a2 | a3\n 55917: a4 = a4 << 0x10\n 55920: a5 = a5 << 0x18\n 55923: a4 = a4 | a5\n 55926: a2 = a2 | a4\n 55929: a2 = a2 << 0x20\n 55932: t0 = a2 | a1\n 55935: a1 = u8 [a0 + 0x11]\n 55938: a2 = u8 [a0 + 0x10]\n 55941: a3 = u8 [a0 + 0x12]\n 55944: a4 = u8 [a0 + 0x13]\n 55947: a1 = a1 << 0x8\n 55950: a1 = a1 | a2\n 55953: a3 = a3 << 0x10\n 55956: a4 = a4 << 0x18\n 55959: a3 = a3 | a4\n 55962: a1 = a1 | a3\n 55965: a2 = u8 [a0 + 0x15]\n 55968: a3 = u8 [a0 + 0x14]\n 55971: a4 = u8 [a0 + 0x16]\n 55974: a5 = u8 [a0 + 0x17]\n 55977: a2 = a2 << 0x8\n 55980: a2 = a2 | a3\n 55983: a4 = a4 << 0x10\n 55986: a5 = a5 << 0x18\n 55989: a4 = a4 | a5\n 55992: a2 = a2 | a4\n 55995: a2 = a2 << 0x20\n 55998: a1 = a1 | a2\n 56001: u64 [sp + 0xd8] = a1\n 56005: a1 = u8 [a0 + 0x9]\n 56008: a3 = u8 [a0 + 0x8]\n 56011: a4 = u8 [a0 + 0xa]\n 56014: a5 = u8 [a0 + 0xb]\n 56017: a1 = a1 << 0x8\n 56020: a1 = a1 | a3\n 56023: a4 = a4 << 0x10\n 56026: a5 = a5 << 0x18\n 56029: a4 = a4 | a5\n 56032: a1 = a1 | a4\n 56035: a3 = u8 [a0 + 0xd]\n 56038: a4 = u8 [a0 + 0xc]\n 56041: a5 = u8 [a0 + 0xe]\n 56044: s1 = u8 [a0 + 0xf]\n 56047: a3 = a3 << 0x8\n 56050: a3 = a3 | a4\n 56053: a5 = a5 << 0x10\n 56056: s1 = s1 << 0x18\n 56059: a5 = a5 | s1\n 56062: a3 = a3 | a5\n 56065: a3 = a3 << 0x20\n 56068: a1 = a1 | a3\n 56071: u64 [sp + 0xd0] = a1\n 56075: a1 = u8 [a0 + 0x1]\n 56078: a4 = u8 [a0]\n 56080: a5 = u8 [a0 + 0x2]\n 56083: s1 = u8 [a0 + 0x3]\n 56086: a1 = a1 << 0x8\n 56089: a1 = a1 | a4\n 56092: a5 = a5 << 0x10\n 56095: s1 = s1 << 0x18\n 56098: a5 = a5 | s1\n 56101: a1 = a1 | a5\n 56104: a4 = u8 [a0 + 0x5]\n 56107: a5 = u8 [a0 + 0x4]\n 56110: s1 = u8 [a0 + 0x6]\n 56113: a0 = u8 [a0 + 0x7]\n 56116: a4 = a4 << 0x8\n 56119: a4 = a4 | a5\n 56122: s1 = s1 << 0x10\n 56125: a0 = a0 << 0x18\n 56128: a0 = a0 | s1\n 56131: a0 = a0 | a4\n 56134: a0 = a0 << 0x20\n 56137: ra = a0 | a1\n 56140: u8 [sp + 479] = 0\n 56144: u8 [sp + 478] = 0\n 56148: u8 [sp + 477] = 0\n 56152: u8 [sp + 476] = 0\n 56156: u8 [sp + 475] = 0\n 56160: u8 [sp + 474] = 0\n 56164: u8 [sp + 473] = 0\n 56168: u8 [sp + 472] = 0\n 56172: u8 [sp + 471] = 0\n 56176: u8 [sp + 470] = 0\n 56180: u8 [sp + 469] = 0\n 56184: u8 [sp + 468] = 0\n 56188: u8 [sp + 467] = 0\n 56192: u8 [sp + 466] = 0\n 56196: u8 [sp + 465] = 0\n 56200: u8 [sp + 464] = 0\n 56204: u8 [sp + 463] = 0\n 56208: u8 [sp + 462] = 0\n 56212: u8 [sp + 461] = 0\n 56216: u8 [sp + 460] = 0\n 56220: u8 [sp + 459] = 0\n 56224: u8 [sp + 458] = 0\n 56228: u8 [sp + 457] = 0\n 56232: u8 [sp + 456] = 0\n 56236: u8 [sp + 455] = 0\n 56240: u8 [sp + 454] = 0\n 56244: u8 [sp + 453] = 0\n 56248: u8 [sp + 452] = 0\n 56252: u8 [sp + 451] = 0\n 56256: u8 [sp + 450] = 0\n 56260: u8 [sp + 449] = 0\n 56264: u8 [sp + 448] = 0\n 56268: u8 [sp + 447] = 0xff\n 56274: u8 [sp + 446] = 0xff\n 56280: u8 [sp + 445] = 0xff\n 56286: u8 [sp + 443] = 0xff\n 56292: u8 [sp + 440] = 0xffffffffffffffff\n 56297: u8 [sp + 439] = 0xff\n 56303: u8 [sp + 438] = 0xff\n 56309: u8 [sp + 437] = 0xff\n 56315: u8 [sp + 435] = 0xff\n 56321: u8 [sp + 432] = 0xffffffffffffffff\n 56326: u8 [sp + 431] = 0xff\n 56332: u8 [sp + 430] = 0xff\n 56338: u8 [sp + 429] = 0xff\n 56344: u8 [sp + 427] = 0xff\n 56350: u8 [sp + 424] = 0xffffffffffffffff\n 56355: u8 [sp + 423] = 0xff\n 56361: u8 [sp + 422] = 0xff\n 56367: u8 [sp + 421] = 0xff\n 56373: u8 [sp + 419] = 0xff\n 56379: u8 [sp + 416] = 0xffffffffffffffff\n 56384: a1 = 0xffffffff\n 56394: u8 [sp + 0x1bc] = a1\n 56398: a5 = 0xffffffffffff\n 56408: u8 [sp + 0x1ba] = a5\n 56412: a4 = 0xffffffffffffff\n 56422: u8 [sp + 0x1b9] = a4\n 56426: u8 [sp + 0x1b4] = a1\n 56430: u8 [sp + 0x1b2] = a5\n 56434: u8 [sp + 0x1b1] = a4\n 56438: u8 [sp + 0x1ac] = a1\n 56442: u8 [sp + 0x1aa] = a5\n 56446: u8 [sp + 0x1a9] = a4\n 56450: u8 [sp + 0x1a4] = a1\n 56454: u8 [sp + 0x1a2] = a5\n 56458: u8 [sp + 0x1a1] = a4\n 56462: t2 = u64 [sp + 0x20]\n 56465: a4 = t2 & 0x1f\n 56468: a1 = sp + 0x1a0\n 56472: a4 = a4 + a1\n 56475: a1 = u8 [a4 + 0x19]\n 56478: a5 = u8 [a4 + 0x18]\n 56481: s1 = u8 [a4 + 0x1a]\n 56484: a2 = u8 [a4 + 0x1b]\n 56487: a1 = a1 << 0x8\n 56490: a1 = a1 | a5\n 56493: s1 = s1 << 0x10\n 56496: a2 = a2 << 0x18\n 56499: a2 = a2 | s1\n 56502: a1 = a1 | a2\n 56505: a2 = u8 [a4 + 0x1d]\n 56508: a5 = u8 [a4 + 0x1c]\n 56511: s1 = u8 [a4 + 0x1e]\n 56514: a3 = u8 [a4 + 0x1f]\n 56517: a2 = a2 << 0x8\n 56520: a2 = a2 | a5\n 56523: s1 = s1 << 0x10\n 56526: a3 = a3 << 0x18\n 56529: a3 = a3 | s1\n 56532: a2 = a2 | a3\n 56535: a2 = a2 << 0x20\n 56538: t1 = a2 | a1\n 56541: a1 = u8 [a4 + 0x11]\n 56544: a2 = u8 [a4 + 0x10]\n 56547: a3 = u8 [a4 + 0x12]\n 56550: s1 = u8 [a4 + 0x13]\n 56553: a1 = a1 << 0x8\n 56556: a1 = a1 | a2\n 56559: a3 = a3 << 0x10\n 56562: s1 = s1 << 0x18\n 56565: a3 = a3 | s1\n 56568: a1 = a1 | a3\n 56571: a2 = u8 [a4 + 0x15]\n 56574: a3 = u8 [a4 + 0x14]\n 56577: s1 = u8 [a4 + 0x16]\n 56580: a0 = u8 [a4 + 0x17]\n 56583: a2 = a2 << 0x8\n 56586: a2 = a2 | a3\n 56589: s1 = s1 << 0x10\n 56592: a0 = a0 << 0x18\n 56595: a0 = a0 | s1\n 56598: a0 = a0 | a2\n 56601: a0 = a0 << 0x20\n 56604: s1 = a0 | a1\n 56607: a0 = u8 [a4 + 0x9]\n 56610: a1 = u8 [a4 + 0x8]\n 56613: a2 = u8 [a4 + 0xa]\n 56616: a3 = u8 [a4 + 0xb]\n 56619: a0 = a0 << 0x8\n 56622: a0 = a0 | a1\n 56625: a2 = a2 << 0x10\n 56628: a3 = a3 << 0x18\n 56631: a2 = a2 | a3\n 56634: a5 = a2 | a0\n 56637: a1 = u8 [a4 + 0xd]\n 56640: a2 = u8 [a4 + 0xc]\n 56643: a3 = u8 [a4 + 0xe]\n 56646: a0 = u8 [a4 + 0xf]\n 56649: a1 = a1 << 0x8\n 56652: a1 = a1 | a2\n 56655: a3 = a3 << 0x10\n 56658: a0 = a0 << 0x18\n 56661: a0 = a0 | a3\n 56664: a0 = a0 | a1\n 56667: a0 = a0 << 0x20\n 56670: a1 = a0 | a5\n 56673: a0 = u8 [a4 + 0x1]\n 56676: a2 = u8 [a4]\n 56678: a3 = u8 [a4 + 0x2]\n 56681: a5 = u8 [a4 + 0x3]\n 56684: a0 = a0 << 0x8\n 56687: a0 = a0 | a2\n 56690: a3 = a3 << 0x10\n 56693: a5 = a5 << 0x18\n 56696: a3 = a3 | a5\n 56699: a0 = a0 | a3\n 56702: a2 = u8 [a4 + 0x5]\n 56705: a3 = u8 [a4 + 0x4]\n 56708: a5 = u8 [a4 + 0x6]\n 56711: a4 = u8 [a4 + 0x7]\n 56714: a2 = a2 << 0x8\n 56717: a2 = a2 | a3\n 56720: a5 = a5 << 0x10\n 56723: a4 = a4 << 0x18\n 56726: a4 = a4 | a5\n 56729: a2 = a2 | a4\n 56732: a2 = a2 << 0x20\n 56735: a0 = a0 | a2\n 56738: a2 = reverse t0\n 56740: t0 = a2 & ~a0\n 56743: a0 = u64 [sp + 0xd8]\n 56747: a0 = reverse a0\n 56749: a2 = a0 & ~a1\n 56752: a0 = reverse ra\n 56754: a1 = u64 [sp + 0xd0]\n 56758: a1 = reverse a1\n 56760: a1 = a1 & ~s1\n 56763: a0 = a0 & ~t1\n 56766: a4 = t2 >> 0x3f\n 56769: a3 = u64 [sp + 0x38]\n 56772: a5 = a3 << 0x1\n 56775: a4 = a4 | a5\n 56778: a5 = a3 >> 0x3f\n 56781: a3 = u64 [sp + 0x30]\n 56784: s1 = a3 << 0x1\n 56787: a5 = a5 | s1\n 56790: s1 = a3 >> 0x3f\n 56793: a3 = u64 [sp + 0x28]\n 56796: a3 = a3 << 0x1\n 56799: a3 = a3 | s1\n 56802: t1 = a0 | a3\n 56805: a1 = a1 | a5\n 56808: a2 = a2 | a4\n 56811: a3 = t2 << 0x1\n 56814: a3 = t0 | a3\n 56817: a4 = u64 [sp + 0x40]\n 56820: a5 = u64 [sp + 0x58]\n 56823: s1 = u64 [sp + 0x50]\n 56826: jump @792\n      : @785 (gas: 4)\n 56829: t2 = 0\n 56831: s1 = 0\n 56833: a1 = 0x20\n 56836: fallthrough\n      : @786 (gas: 10)\n 56837: a5 = u64 [sp + 0x20]\n 56840: a2 = u64 [sp + 0x18]\n 56843: a2 = a2 ^ a5\n 56846: a3 = u64 [sp + 0x30]\n 56849: a2 = a2 | a3\n 56852: a3 = u64 [sp + 0x38]\n 56855: a4 = u64 [sp + 0x28]\n 56858: a3 = a3 | a4\n 56861: a2 = a2 | a3\n 56864: jump @790 if a2 == 0\n      : @787 (gas: 27)\n 56868: u64 [sp + 0xc8] = t0\n 56872: a2 = u64 [sp + 0x80]\n 56876: a2 = a2 + a1\n 56879: a3 = a2 <u a1\n 56882: a4 = u64 [sp + 0x88]\n 56886: a4 = a4 + t2\n 56889: a4 = a4 + a3\n 56892: a5 = a4 ^ t2\n 56895: a1 = a4 <u t2\n 56898: a1 = a3 if a5 == 0\n 56901: a3 = u64 [sp + 0x90]\n 56905: a3 = a3 + a0\n 56908: a1 = a1 + a3\n 56911: a5 = a1 <u a3\n 56914: a0 = a3 <u a0\n 56917: a3 = u64 [sp + 0x98]\n 56921: a3 = a3 + s1\n 56924: a0 = a0 + a3\n 56927: a0 = a0 + a5\n 56930: a3 = a2 | a1\n 56933: a0 = a0 | a4\n 56936: a3 = a3 | a0\n 56939: a3 = a3 >> 0x20\n 56942: a0 = a0 | a1\n 56945: a0 = a0 << 0x20\n 56948: a0 = a0 | a3\n 56951: jump @794 if a0 != 0\n      : @788 (gas: 3)\n 56955: i32 a0 = a2 + 0\n 56957: a1 = 0x20\n 56960: ra = 690, jump @0\n      : @789 [@dyn 345] (gas: 277)\n 56967: a1 = u8 [a0 + 0x19]\n 56970: a2 = u8 [a0 + 0x18]\n 56973: a3 = u8 [a0 + 0x1a]\n 56976: a4 = u8 [a0 + 0x1b]\n 56979: a1 = a1 << 0x8\n 56982: a1 = a1 | a2\n 56985: a3 = a3 << 0x10\n 56988: a4 = a4 << 0x18\n 56991: a3 = a3 | a4\n 56994: a1 = a1 | a3\n 56997: a2 = u8 [a0 + 0x1d]\n 57000: a3 = u8 [a0 + 0x1c]\n 57003: a4 = u8 [a0 + 0x1e]\n 57006: a5 = u8 [a0 + 0x1f]\n 57009: a2 = a2 << 0x8\n 57012: a2 = a2 | a3\n 57015: a4 = a4 << 0x10\n 57018: a5 = a5 << 0x18\n 57021: a4 = a4 | a5\n 57024: a2 = a2 | a4\n 57027: a2 = a2 << 0x20\n 57030: a1 = a1 | a2\n 57033: u64 [sp + 0xb8] = a1\n 57037: a1 = u8 [a0 + 0x11]\n 57040: a2 = u8 [a0 + 0x10]\n 57043: a3 = u8 [a0 + 0x12]\n 57046: a4 = u8 [a0 + 0x13]\n 57049: a1 = a1 << 0x8\n 57052: a1 = a1 | a2\n 57055: a3 = a3 << 0x10\n 57058: a4 = a4 << 0x18\n 57061: a3 = a3 | a4\n 57064: a1 = a1 | a3\n 57067: a2 = u8 [a0 + 0x15]\n 57070: a3 = u8 [a0 + 0x14]\n 57073: a4 = u8 [a0 + 0x16]\n 57076: a5 = u8 [a0 + 0x17]\n 57079: a2 = a2 << 0x8\n 57082: a2 = a2 | a3\n 57085: a4 = a4 << 0x10\n 57088: a5 = a5 << 0x18\n 57091: a4 = a4 | a5\n 57094: a2 = a2 | a4\n 57097: a2 = a2 << 0x20\n 57100: t1 = a2 | a1\n 57103: a1 = u8 [a0 + 0x9]\n 57106: a3 = u8 [a0 + 0x8]\n 57109: a4 = u8 [a0 + 0xa]\n 57112: a5 = u8 [a0 + 0xb]\n 57115: a1 = a1 << 0x8\n 57118: a1 = a1 | a3\n 57121: a4 = a4 << 0x10\n 57124: a5 = a5 << 0x18\n 57127: a4 = a4 | a5\n 57130: a1 = a1 | a4\n 57133: a3 = u8 [a0 + 0xd]\n 57136: a4 = u8 [a0 + 0xc]\n 57139: a5 = u8 [a0 + 0xe]\n 57142: s1 = u8 [a0 + 0xf]\n 57145: a3 = a3 << 0x8\n 57148: a3 = a3 | a4\n 57151: a5 = a5 << 0x10\n 57154: s1 = s1 << 0x18\n 57157: a5 = a5 | s1\n 57160: a3 = a3 | a5\n 57163: a3 = a3 << 0x20\n 57166: t2 = a3 | a1\n 57169: a1 = u8 [a0 + 0x1]\n 57172: a4 = u8 [a0]\n 57174: a5 = u8 [a0 + 0x2]\n 57177: s1 = u8 [a0 + 0x3]\n 57180: a1 = a1 << 0x8\n 57183: a1 = a1 | a4\n 57186: a5 = a5 << 0x10\n 57189: s1 = s1 << 0x18\n 57192: a5 = a5 | s1\n 57195: a1 = a1 | a5\n 57198: a4 = u8 [a0 + 0x5]\n 57201: a5 = u8 [a0 + 0x4]\n 57204: s1 = u8 [a0 + 0x6]\n 57207: a0 = u8 [a0 + 0x7]\n 57210: a4 = a4 << 0x8\n 57213: a4 = a4 | a5\n 57216: s1 = s1 << 0x10\n 57219: a0 = a0 << 0x18\n 57222: a0 = a0 | s1\n 57225: a0 = a0 | a4\n 57228: a0 = a0 << 0x20\n 57231: ra = a0 | a1\n 57234: u8 [sp + 415] = 0\n 57238: u8 [sp + 414] = 0\n 57242: u8 [sp + 413] = 0\n 57246: u8 [sp + 412] = 0\n 57250: u8 [sp + 411] = 0\n 57254: u8 [sp + 410] = 0\n 57258: u8 [sp + 409] = 0\n 57262: u8 [sp + 408] = 0\n 57266: u8 [sp + 407] = 0\n 57270: u8 [sp + 406] = 0\n 57274: u8 [sp + 405] = 0\n 57278: u8 [sp + 404] = 0\n 57282: u8 [sp + 403] = 0\n 57286: u8 [sp + 402] = 0\n 57290: u8 [sp + 401] = 0\n 57294: u8 [sp + 400] = 0\n 57298: u8 [sp + 399] = 0\n 57302: u8 [sp + 398] = 0\n 57306: u8 [sp + 397] = 0\n 57310: u8 [sp + 396] = 0\n 57314: u8 [sp + 395] = 0\n 57318: u8 [sp + 394] = 0\n 57322: u8 [sp + 393] = 0\n 57326: u8 [sp + 392] = 0\n 57330: u8 [sp + 391] = 0\n 57334: u8 [sp + 390] = 0\n 57338: u8 [sp + 389] = 0\n 57342: u8 [sp + 388] = 0\n 57346: u8 [sp + 387] = 0\n 57350: u8 [sp + 386] = 0\n 57354: u8 [sp + 385] = 0\n 57358: u8 [sp + 384] = 0\n 57362: u8 [sp + 383] = 0xff\n 57368: u8 [sp + 382] = 0xff\n 57374: u8 [sp + 381] = 0xff\n 57380: u8 [sp + 379] = 0xff\n 57386: u8 [sp + 376] = 0xffffffffffffffff\n 57391: u8 [sp + 375] = 0xff\n 57397: u8 [sp + 374] = 0xff\n 57403: u8 [sp + 373] = 0xff\n 57409: u8 [sp + 371] = 0xff\n 57415: u8 [sp + 368] = 0xffffffffffffffff\n 57420: u8 [sp + 367] = 0xff\n 57426: u8 [sp + 366] = 0xff\n 57432: u8 [sp + 365] = 0xff\n 57438: u8 [sp + 363] = 0xff\n 57444: u8 [sp + 360] = 0xffffffffffffffff\n 57449: u8 [sp + 359] = 0xff\n 57455: u8 [sp + 358] = 0xff\n 57461: u8 [sp + 357] = 0xff\n 57467: u8 [sp + 355] = 0xff\n 57473: u8 [sp + 352] = 0xffffffffffffffff\n 57478: a1 = 0xffffffff\n 57488: u8 [sp + 0x17c] = a1\n 57492: a5 = 0xffffffffffff\n 57502: u8 [sp + 0x17a] = a5\n 57506: a4 = 0xffffffffffffff\n 57516: u8 [sp + 0x179] = a4\n 57520: u8 [sp + 0x174] = a1\n 57524: u8 [sp + 0x172] = a5\n 57528: u8 [sp + 0x171] = a4\n 57532: u8 [sp + 0x16c] = a1\n 57536: u8 [sp + 0x16a] = a5\n 57540: u8 [sp + 0x169] = a4\n 57544: u8 [sp + 0x164] = a1\n 57548: u8 [sp + 0x162] = a5\n 57552: u8 [sp + 0x161] = a4\n 57556: a4 = u64 [sp + 0x20]\n 57559: a4 = a4 & 0x1f\n 57562: a1 = sp + 0x160\n 57566: a4 = a4 + a1\n 57569: a1 = u8 [a4 + 0x19]\n 57572: a5 = u8 [a4 + 0x18]\n 57575: s1 = u8 [a4 + 0x1a]\n 57578: a2 = u8 [a4 + 0x1b]\n 57581: a1 = a1 << 0x8\n 57584: a1 = a1 | a5\n 57587: s1 = s1 << 0x10\n 57590: a2 = a2 << 0x18\n 57593: a2 = a2 | s1\n 57596: a1 = a1 | a2\n 57599: a2 = u8 [a4 + 0x1d]\n 57602: a5 = u8 [a4 + 0x1c]\n 57605: s1 = u8 [a4 + 0x1e]\n 57608: a3 = u8 [a4 + 0x1f]\n 57611: a2 = a2 << 0x8\n 57614: a2 = a2 | a5\n 57617: s1 = s1 << 0x10\n 57620: a3 = a3 << 0x18\n 57623: a3 = a3 | s1\n 57626: a2 = a2 | a3\n 57629: a2 = a2 << 0x20\n 57632: t0 = a2 | a1\n 57635: a1 = u8 [a4 + 0x11]\n 57638: a2 = u8 [a4 + 0x10]\n 57641: a3 = u8 [a4 + 0x12]\n 57644: s1 = u8 [a4 + 0x13]\n 57647: a1 = a1 << 0x8\n 57650: a1 = a1 | a2\n 57653: a3 = a3 << 0x10\n 57656: s1 = s1 << 0x18\n 57659: a3 = a3 | s1\n 57662: a1 = a1 | a3\n 57665: a2 = u8 [a4 + 0x15]\n 57668: a3 = u8 [a4 + 0x14]\n 57671: s1 = u8 [a4 + 0x16]\n 57674: a0 = u8 [a4 + 0x17]\n 57677: a2 = a2 << 0x8\n 57680: a2 = a2 | a3\n 57683: s1 = s1 << 0x10\n 57686: a0 = a0 << 0x18\n 57689: a0 = a0 | s1\n 57692: a0 = a0 | a2\n 57695: a0 = a0 << 0x20\n 57698: s1 = a0 | a1\n 57701: a0 = u8 [a4 + 0x9]\n 57704: a1 = u8 [a4 + 0x8]\n 57707: a2 = u8 [a4 + 0xa]\n 57710: a3 = u8 [a4 + 0xb]\n 57713: a0 = a0 << 0x8\n 57716: a0 = a0 | a1\n 57719: a2 = a2 << 0x10\n 57722: a3 = a3 << 0x18\n 57725: a2 = a2 | a3\n 57728: a5 = a2 | a0\n 57731: a1 = u8 [a4 + 0xd]\n 57734: a2 = u8 [a4 + 0xc]\n 57737: a3 = u8 [a4 + 0xe]\n 57740: a0 = u8 [a4 + 0xf]\n 57743: a1 = a1 << 0x8\n 57746: a1 = a1 | a2\n 57749: a3 = a3 << 0x10\n 57752: a0 = a0 << 0x18\n 57755: a0 = a0 | a3\n 57758: a0 = a0 | a1\n 57761: a0 = a0 << 0x20\n 57764: a1 = a0 | a5\n 57767: a0 = u8 [a4 + 0x1]\n 57770: a2 = u8 [a4]\n 57772: a3 = u8 [a4 + 0x2]\n 57775: a5 = u8 [a4 + 0x3]\n 57778: a0 = a0 << 0x8\n 57781: a0 = a0 | a2\n 57784: a3 = a3 << 0x10\n 57787: a5 = a5 << 0x18\n 57790: a3 = a3 | a5\n 57793: a0 = a0 | a3\n 57796: a2 = u8 [a4 + 0x5]\n 57799: a3 = u8 [a4 + 0x4]\n 57802: a5 = u8 [a4 + 0x6]\n 57805: a4 = u8 [a4 + 0x7]\n 57808: a2 = a2 << 0x8\n 57811: a2 = a2 | a3\n 57814: a5 = a5 << 0x10\n 57817: a4 = a4 << 0x18\n 57820: a4 = a4 | a5\n 57823: a2 = a2 | a4\n 57826: a2 = a2 << 0x20\n 57829: a0 = a0 | a2\n 57832: a2 = u64 [sp + 0xb8]\n 57836: a2 = reverse a2\n 57838: a0 = a2 & ~a0\n 57841: a2 = reverse t1\n 57843: a1 = a2 & ~a1\n 57846: a2 = reverse t2\n 57848: a2 = a2 & ~s1\n 57851: a3 = reverse ra\n 57853: a3 = a3 & ~t0\n 57856: a4 = u64 [sp + 0xd0]\n 57860: u64 [sp + 0x278] = a4\n 57864: a4 = u64 [sp + 0xc8]\n 57868: u64 [sp + 0x270] = a4\n 57872: a4 = u64 [sp + 0xd8]\n 57876: u64 [sp + 0x268] = a4\n 57880: a4 = u64 [sp + 0xc0]\n 57884: u64 [sp + 0x260] = a4\n 57888: u64 [sp + 0x298] = a3\n 57892: u64 [sp + 0x290] = a2\n 57896: u64 [sp + 0x288] = a1\n 57900: u64 [sp + 0x280] = a0\n 57904: i32 a1 = sp + 0x260\n 57908: i32 a3 = sp + 0x280\n 57912: a2 = 0xffffffffffffffff\n 57915: a4 = 0x20\n 57918: a0 = 0\n 57920: ecalli 13 // 'set_storage'\n 57922: a5 = u64 [sp + 0x20]\n 57925: fallthrough\n      : @790 (gas: 27)\n 57926: a2 = u64 [sp + 0x30]\n 57929: a0 = a2 >> 0x3f\n 57932: a1 = u64 [sp + 0x28]\n 57935: a1 = a1 << 0x1\n 57938: a0 = a0 | a1\n 57941: a3 = u64 [sp + 0x38]\n 57944: a1 = a3 >> 0x3f\n 57947: a2 = a2 << 0x1\n 57950: a1 = a1 | a2\n 57953: a2 = a5 >> 0x3f\n 57956: a3 = a3 << 0x1\n 57959: a2 = a2 | a3\n 57962: a3 = a5 << 0x1\n 57965: a3 = a3 + 0x1\n 57968: a4 = u64 [sp + 0x48]\n 57971: u64 [sp + 0x268] = a4\n 57975: a4 = u64 [sp + 0x50]\n 57978: u64 [sp + 0x260] = a4\n 57982: a4 = u64 [sp + 0x58]\n 57985: u64 [sp + 0x270] = a4\n 57989: a4 = u64 [sp + 0x40]\n 57992: u64 [sp + 0x278] = a4\n 57996: u64 [sp + 0x280] = a3\n 58000: u64 [sp + 0x288] = a2\n 58004: u64 [sp + 0x290] = a1\n 58008: u64 [sp + 0x298] = a0\n 58012: jump @793\n      : @791 (gas: 5)\n 58014: a3 = 0\n 58016: a2 = 0\n 58018: a1 = 0\n 58020: t1 = 0\n 58022: fallthrough\n      : @792 (gas: 10)\n 58023: a0 = u64 [sp + 0x48]\n 58026: u64 [sp + 0x268] = a0\n 58030: u64 [sp + 0x260] = s1\n 58034: u64 [sp + 0x270] = a5\n 58038: u64 [sp + 0x278] = a4\n 58042: u64 [sp + 0x280] = a3\n 58046: u64 [sp + 0x288] = a2\n 58050: u64 [sp + 0x290] = a1\n 58054: u64 [sp + 0x298] = t1\n 58058: fallthrough\n      : @793 (gas: 12)\n 58059: i32 a1 = sp + 0x260\n 58063: i32 a3 = sp + 0x280\n 58067: a2 = 0xffffffffffffffff\n 58070: a4 = 0x20\n 58073: a0 = 0\n 58075: ecalli 13 // 'set_storage'\n 58077: sp = s0 + 0xfffffffffffffd40\n 58081: ra = u64 [sp + 0x2b8]\n 58085: s0 = u64 [sp + 0x2b0]\n 58089: s1 = u64 [sp + 0x2a8]\n 58093: sp = sp + 0x2c0\n 58097: ret\n      : @794 (gas: 1)\n 58099: trap\n      : @795 (gas: 8)\n 58100: u64 [sp + 272] = 0\n 58104: u64 [sp + 264] = 0\n 58108: u64 [sp + 256] = 0\n 58112: a0 = 0x4e487b7100000000\n 58122: a1 = sp + 0x100\n 58126: u64 [sp + 0x118] = a0\n 58130: a0 = 0\n 58132: ra = 692, jump @23\n      : @796 [@dyn 346] (gas: 8)\n 58139: u64 [sp + 248] = 0\n 58143: u64 [sp + 240] = 0\n 58147: u64 [sp + 224] = 0x41\n 58152: a0 = 0x4\n 58155: a1 = sp + 0xe0\n 58159: u64 [sp + 232] = 0\n 58163: ra = 0x2b8\n 58167: jump @23\n      : @797 (gas: 8)\n 58171: u64 [sp + 336] = 0\n 58175: u64 [sp + 328] = 0\n 58179: u64 [sp + 320] = 0\n 58183: a0 = 0x4e487b7100000000\n 58193: a1 = sp + 0x140\n 58197: u64 [sp + 0x158] = a0\n 58201: a0 = 0\n 58203: ra = 694, jump @23\n      : @798 [@dyn 347] (gas: 7)\n 58210: u64 [sp + 312] = 0\n 58214: u64 [sp + 304] = 0\n 58218: u64 [sp + 288] = 0x22\n 58223: a0 = 0x4\n 58226: a1 = sp + 0x120\n 58230: u64 [sp + 296] = 0\n 58234: ra = 696, jump @23\n      : @799 [@dyn 348] (gas: 3)\n 58241: a1 = 0x24\n 58244: a0 = 0\n 58246: ra = 698, jump @0\n      : @800 [@dyn 349] (gas: 6)\n 58253: i32 a1 = a0 + 0\n 58255: a0 = 0x1\n 58258: a2 = 0x24\n 58261: ra = 0x2bc\n 58265: ecalli 11 // 'seal_return'\n 58267: fallthrough\n      : @801 [@dyn 350] (gas: 24)\n 58268: sp = sp + 0xffffffffffffffb0\n 58271: u64 [sp + 0x48] = ra\n 58274: u64 [sp + 0x40] = s0\n 58277: s0 = sp + 0x50\n 58280: sp = sp & 0xfffffffffffffff0\n 58283: t0 = u64 [a0]\n 58285: t1 = u64 [a0 + 0x8]\n 58288: a4 = u64 [a0 + 0x10]\n 58291: a0 = u64 [a0 + 0x18]\n 58294: a5 = u64 [a1]\n 58296: a2 = u64 [a1 + 0x8]\n 58299: a3 = u64 [a1 + 0x10]\n 58302: a1 = u64 [a1 + 0x18]\n 58305: u64 [sp + 0x18] = a1\n 58308: u64 [sp + 0x10] = a3\n 58311: u64 [sp + 0x8] = a2\n 58314: u64 [sp] = a5\n 58316: u64 [sp + 0x38] = a0\n 58319: u64 [sp + 0x30] = a4\n 58322: u64 [sp + 0x28] = t1\n 58325: a0 = sp + 0x20\n 58328: a1 = sp\n 58330: u64 [sp + 0x20] = t0\n 58333: ra = 702, jump @764\n      : @802 [@dyn 351] (gas: 5)\n 58339: sp = s0 + 0xffffffffffffffb0\n 58342: ra = u64 [sp + 0x48]\n 58345: s0 = u64 [sp + 0x40]\n 58348: sp = sp + 0x50\n 58351: ret\n      : @803 (gas: 22)\n 58353: sp = sp + 0xfffffffffffffea0\n 58357: u64 [sp + 0x158] = ra\n 58361: u64 [sp + 0x150] = s0\n 58365: u64 [sp + 0x148] = s1\n 58369: s0 = sp + 0x160\n 58373: sp = sp & 0xffffffffffffffe0\n 58376: a4 = u64 [a1 + 0x10]\n 58379: a5 = u64 [a1 + 0x18]\n 58382: a2 = u64 [a1 + 0x8]\n 58385: a3 = u64 [a1]\n 58387: u64 [sp + 0x70] = a2\n 58390: u64 [sp + 0x58] = a5\n 58393: a1 = a2 | a5\n 58396: u64 [sp + 0x80] = a3\n 58400: a2 = a3 | a4\n 58403: a2 = a2 | a1\n 58406: a2 = a2 >> 0x20\n 58409: u64 [sp + 0x60] = a4\n 58412: a1 = a1 | a4\n 58415: a1 = a1 << 0x20\n 58418: a1 = a1 | a2\n 58421: jump @818 if a1 != 0\n      : @804 (gas: 12)\n 58425: a1 = u64 [a0 + 0x18]\n 58428: u64 [sp + 0x78] = a1\n 58431: a1 = u64 [a0 + 0x10]\n 58434: u64 [sp + 0x98] = a1\n 58438: a1 = u64 [a0 + 0x8]\n 58441: u64 [sp + 0x90] = a1\n 58445: a0 = u64 [a0]\n 58447: u64 [sp + 0x88] = a0\n 58451: a0 = i32 [sp + 0x80]\n 58455: a1 = 0x20\n 58458: u64 [sp + 0x68] = a0\n 58461: ra = 704, jump @0\n      : @805 [@dyn 352] (gas: 105)\n 58468: a1 = u8 [a0 + 0x11]\n 58471: a2 = u8 [a0 + 0x10]\n 58474: a3 = u8 [a0 + 0x12]\n 58477: a4 = u8 [a0 + 0x13]\n 58480: a1 = a1 << 0x8\n 58483: a1 = a1 | a2\n 58486: a3 = a3 << 0x10\n 58489: a4 = a4 << 0x18\n 58492: a3 = a3 | a4\n 58495: a1 = a1 | a3\n 58498: a2 = u8 [a0 + 0x15]\n 58501: a3 = u8 [a0 + 0x14]\n 58504: a4 = u8 [a0 + 0x16]\n 58507: a5 = u8 [a0 + 0x17]\n 58510: a2 = a2 << 0x8\n 58513: a2 = a2 | a3\n 58516: a4 = a4 << 0x10\n 58519: a5 = a5 << 0x18\n 58522: a4 = a4 | a5\n 58525: a2 = a2 | a4\n 58528: a2 = a2 << 0x20\n 58531: a1 = a1 | a2\n 58534: a2 = u8 [a0 + 0x19]\n 58537: a3 = u8 [a0 + 0x18]\n 58540: a4 = u8 [a0 + 0x1a]\n 58543: a5 = u8 [a0 + 0x1b]\n 58546: a2 = a2 << 0x8\n 58549: a2 = a2 | a3\n 58552: a4 = a4 << 0x10\n 58555: a5 = a5 << 0x18\n 58558: a4 = a4 | a5\n 58561: a2 = a2 | a4\n 58564: a3 = u8 [a0 + 0x1d]\n 58567: a4 = u8 [a0 + 0x1c]\n 58570: a5 = u8 [a0 + 0x1e]\n 58573: s1 = u8 [a0 + 0x1f]\n 58576: a3 = a3 << 0x8\n 58579: a3 = a3 | a4\n 58582: a5 = a5 << 0x10\n 58585: s1 = s1 << 0x18\n 58588: a5 = a5 | s1\n 58591: a3 = a3 | a5\n 58594: a3 = a3 << 0x20\n 58597: a2 = a2 | a3\n 58600: a3 = u8 [a0 + 0xd]\n 58603: a4 = u8 [a0 + 0xc]\n 58606: a5 = u8 [a0 + 0xe]\n 58609: a0 = u8 [a0 + 0xf]\n 58612: a3 = a3 << 0x8\n 58615: a3 = a3 | a4\n 58618: a5 = a5 << 0x10\n 58621: a0 = a0 << 0x18\n 58624: a0 = a0 | a5\n 58627: a0 = a0 | a3\n 58630: a2 = reverse a2\n 58632: u64 [sp + 0x50] = a2\n 58635: a1 = reverse a1\n 58637: u64 [sp + 0x48] = a1\n 58640: s1 = reverse a0\n 58642: s1 = s1 >> 0x20\n 58645: u64 [sp + 0x40] = s1\n 58648: s1 = u64 [sp + 0x78]\n 58651: u64 [sp + 0x118] = s1\n 58655: a0 = u64 [sp + 0x98]\n 58659: u64 [sp + 0x110] = a0\n 58663: a0 = u64 [sp + 0x90]\n 58667: u64 [sp + 0x108] = a0\n 58671: a0 = u64 [sp + 0x88]\n 58675: u64 [sp + 0x100] = a0\n 58679: u64 [sp + 312] = 0\n 58683: u64 [sp + 304] = 0\n 58687: u64 [sp + 296] = 0\n 58691: u64 [sp + 288] = 0\n 58695: u32 [sp + 224] = 0x20\n 58700: i32 a1 = sp + 0x100\n 58704: i32 a3 = sp + 0x120\n 58708: i32 a4 = sp + 0xe0\n 58712: a2 = 0xffffffffffffffff\n 58715: a0 = 0\n 58717: ecalli 7 // 'get_storage'\n 58719: a0 = u32 [sp + 0x134]\n 58723: a0 = a0 << 0x20\n 58726: a1 = u64 [sp + 0x138]\n 58730: a2 = u64 [sp + 0x40]\n 58733: a0 = a0 | a2\n 58736: u64 [sp + 0x118] = s1\n 58740: a2 = u64 [sp + 0x98]\n 58744: u64 [sp + 0x110] = a2\n 58748: a2 = u64 [sp + 0x90]\n 58752: u64 [sp + 0x108] = a2\n 58756: a2 = u64 [sp + 0x88]\n 58760: u64 [sp + 0x100] = a2\n 58764: u64 [sp + 0x138] = a1\n 58768: u64 [sp + 0x130] = a0\n 58772: a0 = u64 [sp + 0x48]\n 58775: u64 [sp + 0x128] = a0\n 58779: a0 = u64 [sp + 0x50]\n 58782: u64 [sp + 0x120] = a0\n 58786: i32 a1 = sp + 0x100\n 58790: i32 a3 = sp + 0x120\n 58794: a2 = 0xffffffffffffffff\n 58797: a4 = 0x20\n 58800: a0 = 0\n 58802: ecalli 13 // 'set_storage'\n 58804: fallthrough\n      : @806 (gas: 13)\n 58805: a0 = u64 [sp + 0x60]\n 58808: a2 = u64 [sp + 0x58]\n 58811: a2 = a2 | a0\n 58814: a0 = 0x100000000\n 58824: u64 [sp + 0x40] = a0\n 58827: a0 = 0xffffffe0\n 58837: a1 = u64 [sp + 0x80]\n 58841: a0 = a1 <u a0\n 58844: a1 = u64 [sp + 0x70]\n 58847: a0 = 0 if a1 != 0\n 58849: u64 [sp + 0x60] = a2\n 58852: a0 = 0 if a2 != 0\n 58854: jump @818 if a0 == 0\n      : @807 (gas: 20)\n 58858: a0 = u64 [sp + 0x88]\n 58862: a2 = a0 + 0x1\n 58865: u64 [sp + 0x48] = a2\n 58868: a0 = a2 <u 0x1\n 58871: a1 = u64 [sp + 0x90]\n 58875: a0 = a0 + a1\n 58878: u64 [sp + 0x58] = a0\n 58881: a0 = a0 | a2\n 58884: a0 = a0 <u 0x1\n 58887: a1 = u64 [sp + 0x98]\n 58891: a0 = a0 + a1\n 58894: u64 [sp + 0x50] = a0\n 58897: a0 = a0 <u a1\n 58900: a1 = u64 [sp + 0x78]\n 58903: a0 = a0 + a1\n 58906: u64 [sp + 0x38] = a0\n 58909: a0 = u64 [sp + 0x68]\n 58912: i32 a0 = a0 + 0x20\n 58915: a1 = 0x20\n 58918: ra = 706, jump @0\n      : @808 [@dyn 353] (gas: 137)\n 58925: a1 = u8 [a0 + 0x1]\n 58928: a2 = u8 [a0]\n 58930: a3 = u8 [a0 + 0x2]\n 58933: a4 = u8 [a0 + 0x3]\n 58936: a1 = a1 << 0x8\n 58939: a1 = a1 | a2\n 58942: a3 = a3 << 0x10\n 58945: a4 = a4 << 0x18\n 58948: a3 = a3 | a4\n 58951: a1 = a1 | a3\n 58954: a2 = u8 [a0 + 0x5]\n 58957: a3 = u8 [a0 + 0x4]\n 58960: a4 = u8 [a0 + 0x6]\n 58963: a5 = u8 [a0 + 0x7]\n 58966: a2 = a2 << 0x8\n 58969: a2 = a2 | a3\n 58972: a4 = a4 << 0x10\n 58975: a5 = a5 << 0x18\n 58978: a4 = a4 | a5\n 58981: a2 = a2 | a4\n 58984: a2 = a2 << 0x20\n 58987: t0 = a2 | a1\n 58990: a2 = u8 [a0 + 0x9]\n 58993: a3 = u8 [a0 + 0x8]\n 58996: a4 = u8 [a0 + 0xa]\n 58999: a5 = u8 [a0 + 0xb]\n 59002: a2 = a2 << 0x8\n 59005: a2 = a2 | a3\n 59008: a4 = a4 << 0x10\n 59011: a5 = a5 << 0x18\n 59014: a4 = a4 | a5\n 59017: a2 = a2 | a4\n 59020: a3 = u8 [a0 + 0xd]\n 59023: a4 = u8 [a0 + 0xc]\n 59026: a5 = u8 [a0 + 0xe]\n 59029: s1 = u8 [a0 + 0xf]\n 59032: a3 = a3 << 0x8\n 59035: a3 = a3 | a4\n 59038: a5 = a5 << 0x10\n 59041: s1 = s1 << 0x18\n 59044: a5 = a5 | s1\n 59047: a3 = a3 | a5\n 59050: a3 = a3 << 0x20\n 59053: a2 = a2 | a3\n 59056: a3 = u8 [a0 + 0x11]\n 59059: a4 = u8 [a0 + 0x10]\n 59062: a5 = u8 [a0 + 0x12]\n 59065: s1 = u8 [a0 + 0x13]\n 59068: a3 = a3 << 0x8\n 59071: a3 = a3 | a4\n 59074: a5 = a5 << 0x10\n 59077: s1 = s1 << 0x18\n 59080: a5 = a5 | s1\n 59083: a3 = a3 | a5\n 59086: a4 = u8 [a0 + 0x15]\n 59089: a5 = u8 [a0 + 0x14]\n 59092: s1 = u8 [a0 + 0x16]\n 59095: a1 = u8 [a0 + 0x17]\n 59098: a4 = a4 << 0x8\n 59101: a4 = a4 | a5\n 59104: s1 = s1 << 0x10\n 59107: a1 = a1 << 0x18\n 59110: a1 = a1 | s1\n 59113: a1 = a1 | a4\n 59116: a1 = a1 << 0x20\n 59119: a3 = a3 | a1\n 59122: a1 = u8 [a0 + 0x19]\n 59125: a4 = u8 [a0 + 0x18]\n 59128: a5 = u8 [a0 + 0x1a]\n 59131: s1 = u8 [a0 + 0x1b]\n 59134: a1 = a1 << 0x8\n 59137: a1 = a1 | a4\n 59140: a5 = a5 << 0x10\n 59143: s1 = s1 << 0x18\n 59146: a5 = a5 | s1\n 59149: a1 = a1 | a5\n 59152: a4 = u8 [a0 + 0x1d]\n 59155: a5 = u8 [a0 + 0x1c]\n 59158: s1 = u8 [a0 + 0x1e]\n 59161: a0 = u8 [a0 + 0x1f]\n 59164: a4 = a4 << 0x8\n 59167: a4 = a4 | a5\n 59170: s1 = s1 << 0x10\n 59173: a0 = a0 << 0x18\n 59176: a0 = a0 | s1\n 59179: a0 = a0 | a4\n 59182: a0 = a0 << 0x20\n 59185: a0 = a0 | a1\n 59188: u32 [sp + 224] = 0x20\n 59193: a0 = reverse a0\n 59195: u64 [sp + 0x30] = a0\n 59198: a0 = reverse a3\n 59200: u64 [sp + 0x28] = a0\n 59203: a0 = reverse a2\n 59205: u64 [sp + 0x20] = a0\n 59208: a0 = reverse t0\n 59210: u64 [sp + 0x18] = a0\n 59213: a0 = u64 [sp + 0x50]\n 59216: u64 [sp + 0x110] = a0\n 59220: a0 = u64 [sp + 0x58]\n 59223: u64 [sp + 0x108] = a0\n 59227: a0 = u64 [sp + 0x48]\n 59230: u64 [sp + 0x100] = a0\n 59234: s1 = u64 [sp + 0x38]\n 59237: u64 [sp + 0x118] = s1\n 59241: u64 [sp + 312] = 0\n 59245: u64 [sp + 304] = 0\n 59249: u64 [sp + 296] = 0\n 59253: u64 [sp + 288] = 0\n 59257: i32 a1 = sp + 0x100\n 59261: i32 a3 = sp + 0x120\n 59265: i32 a4 = sp + 0xe0\n 59269: a2 = 0xffffffffffffffff\n 59272: a0 = 0\n 59274: ecalli 7 // 'get_storage'\n 59276: u64 [sp + 0x118] = s1\n 59280: a0 = u64 [sp + 0x50]\n 59283: u64 [sp + 0x110] = a0\n 59287: a0 = u64 [sp + 0x58]\n 59290: u64 [sp + 0x108] = a0\n 59294: a0 = u64 [sp + 0x48]\n 59297: u64 [sp + 0x100] = a0\n 59301: a0 = u64 [sp + 0x18]\n 59304: u64 [sp + 0x138] = a0\n 59308: a0 = u64 [sp + 0x20]\n 59311: u64 [sp + 0x130] = a0\n 59315: a0 = u64 [sp + 0x28]\n 59318: u64 [sp + 0x128] = a0\n 59322: a0 = u64 [sp + 0x30]\n 59325: u64 [sp + 0x120] = a0\n 59329: i32 a1 = sp + 0x100\n 59333: i32 a3 = sp + 0x120\n 59337: a2 = 0xffffffffffffffff\n 59340: a4 = 0x20\n 59343: a0 = 0\n 59345: ecalli 13 // 'set_storage'\n 59347: fallthrough\n      : @809 (gas: 9)\n 59348: a0 = u64 [sp + 0x40]\n 59351: a0 = a0 + 0xffffffffffffffc0\n 59354: a1 = u64 [sp + 0x80]\n 59358: a0 = a1 <u a0\n 59361: a1 = u64 [sp + 0x70]\n 59364: a0 = 0 if a1 != 0\n 59366: a1 = u64 [sp + 0x60]\n 59369: a0 = 0 if a1 != 0\n 59371: jump @818 if a0 == 0\n      : @810 (gas: 20)\n 59375: a0 = u64 [sp + 0x88]\n 59379: a1 = a0 + 0x2\n 59382: u64 [sp + 0x58] = a1\n 59385: a0 = a1 <u a0\n 59388: a1 = u64 [sp + 0x90]\n 59392: a2 = a1 + a0\n 59395: u64 [sp + 0x50] = a2\n 59398: s1 = a2 <u a1\n 59401: s1 = a0 if a0 == 0\n 59404: a0 = u64 [sp + 0x98]\n 59408: s1 = s1 + a0\n 59411: u64 [sp + 0x40] = s1\n 59414: a0 = s1 <u a0\n 59417: a1 = u64 [sp + 0x78]\n 59420: a0 = a0 + a1\n 59423: u64 [sp + 0x48] = a0\n 59426: a0 = u64 [sp + 0x68]\n 59429: i32 a0 = a0 + 0x40\n 59432: a1 = 0x20\n 59435: ra = 708, jump @0\n      : @811 [@dyn 354] (gas: 107)\n 59442: a1 = u8 [a0 + 0x1]\n 59445: a2 = u8 [a0]\n 59447: a3 = u8 [a0 + 0x2]\n 59450: a4 = u8 [a0 + 0x3]\n 59453: a1 = a1 << 0x8\n 59456: a1 = a1 | a2\n 59459: a3 = a3 << 0x10\n 59462: a4 = a4 << 0x18\n 59465: a3 = a3 | a4\n 59468: a1 = a1 | a3\n 59471: a2 = u8 [a0 + 0x5]\n 59474: a3 = u8 [a0 + 0x4]\n 59477: a4 = u8 [a0 + 0x6]\n 59480: a5 = u8 [a0 + 0x7]\n 59483: a2 = a2 << 0x8\n 59486: a2 = a2 | a3\n 59489: a4 = a4 << 0x10\n 59492: a5 = a5 << 0x18\n 59495: a4 = a4 | a5\n 59498: a2 = a2 | a4\n 59501: a2 = a2 << 0x20\n 59504: t0 = a2 | a1\n 59507: a2 = u8 [a0 + 0x9]\n 59510: a3 = u8 [a0 + 0x8]\n 59513: a4 = u8 [a0 + 0xa]\n 59516: a5 = u8 [a0 + 0xb]\n 59519: a2 = a2 << 0x8\n 59522: a2 = a2 | a3\n 59525: a4 = a4 << 0x10\n 59528: a5 = a5 << 0x18\n 59531: a4 = a4 | a5\n 59534: a2 = a2 | a4\n 59537: a3 = u8 [a0 + 0xd]\n 59540: a4 = u8 [a0 + 0xc]\n 59543: a5 = u8 [a0 + 0xe]\n 59546: a1 = u8 [a0 + 0xf]\n 59549: a3 = a3 << 0x8\n 59552: a3 = a3 | a4\n 59555: a5 = a5 << 0x10\n 59558: a1 = a1 << 0x18\n 59561: a1 = a1 | a5\n 59564: a1 = a1 | a3\n 59567: a1 = a1 << 0x20\n 59570: a2 = a2 | a1\n 59573: a1 = u8 [a0 + 0x11]\n 59576: a3 = u8 [a0 + 0x10]\n 59579: a4 = u8 [a0 + 0x12]\n 59582: a5 = u8 [a0 + 0x13]\n 59585: a1 = a1 << 0x8\n 59588: a1 = a1 | a3\n 59591: a4 = a4 << 0x10\n 59594: a5 = a5 << 0x18\n 59597: a4 = a4 | a5\n 59600: a1 = a1 | a4\n 59603: a3 = u8 [a0 + 0x15]\n 59606: a4 = u8 [a0 + 0x14]\n 59609: a5 = u8 [a0 + 0x16]\n 59612: s1 = u8 [a0 + 0x17]\n 59615: a3 = a3 << 0x8\n 59618: a3 = a3 | a4\n 59621: a5 = a5 << 0x10\n 59624: s1 = s1 << 0x18\n 59627: a5 = a5 | s1\n 59630: a3 = a3 | a5\n 59633: a3 = a3 << 0x20\n 59636: a3 = a3 | a1\n 59639: a1 = u8 [a0 + 0x19]\n 59642: a4 = u8 [a0 + 0x18]\n 59645: a5 = u8 [a0 + 0x1a]\n 59648: s1 = u8 [a0 + 0x1b]\n 59651: a1 = a1 << 0x8\n 59654: a1 = a1 | a4\n 59657: a5 = a5 << 0x10\n 59660: s1 = s1 << 0x18\n 59663: a5 = a5 | s1\n 59666: a1 = a1 | a5\n 59669: a4 = u8 [a0 + 0x1d]\n 59672: a5 = u8 [a0 + 0x1c]\n 59675: s1 = u8 [a0 + 0x1e]\n 59678: a0 = u8 [a0 + 0x1f]\n 59681: a4 = a4 << 0x8\n 59684: a4 = a4 | a5\n 59687: s1 = s1 << 0x10\n 59690: a0 = a0 << 0x18\n 59693: a0 = a0 | s1\n 59696: a0 = a0 | a4\n 59699: a0 = a0 << 0x20\n 59702: a0 = a0 | a1\n 59705: a4 = reverse a0\n 59707: a0 = reverse a3\n 59709: a1 = reverse a2\n 59711: a2 = reverse t0\n 59713: a3 = u64 [sp + 0x50]\n 59716: u64 [sp + 0xc8] = a3\n 59720: a3 = u64 [sp + 0x58]\n 59723: u64 [sp + 0xc0] = a3\n 59727: a3 = u64 [sp + 0x40]\n 59730: u64 [sp + 0xd0] = a3\n 59734: a3 = u64 [sp + 0x48]\n 59737: u64 [sp + 0xd8] = a3\n 59741: u64 [sp + 0xb8] = a2\n 59745: u64 [sp + 0xb0] = a1\n 59749: u64 [sp + 0xa8] = a0\n 59753: a0 = sp + 0xc0\n 59757: a1 = sp + 0xa0\n 59761: u64 [sp + 0xa0] = a4\n 59765: ra = 710, jump @764\n      : @812 [@dyn 355] (gas: 10)\n 59771: a0 = 0x100000000\n 59781: u64 [sp + 0x40] = a0\n 59784: a0 = 0xffffffa0\n 59794: a1 = u64 [sp + 0x80]\n 59798: a0 = a1 <u a0\n 59801: a1 = u64 [sp + 0x70]\n 59804: a0 = 0 if a1 != 0\n 59806: a1 = u64 [sp + 0x60]\n 59809: a0 = 0 if a1 != 0\n 59811: jump @818 if a0 == 0\n      : @813 (gas: 20)\n 59815: a0 = u64 [sp + 0x88]\n 59819: a1 = a0 + 0x3\n 59822: u64 [sp + 0x48] = a1\n 59825: a0 = a1 <u a0\n 59828: a1 = u64 [sp + 0x90]\n 59832: a2 = a1 + a0\n 59835: u64 [sp + 0x58] = a2\n 59838: a1 = a2 <u a1\n 59841: a1 = a0 if a0 == 0\n 59844: a0 = u64 [sp + 0x98]\n 59848: a1 = a1 + a0\n 59851: u64 [sp + 0x50] = a1\n 59854: a0 = a1 <u a0\n 59857: a1 = u64 [sp + 0x78]\n 59860: a0 = a0 + a1\n 59863: u64 [sp + 0x38] = a0\n 59866: a0 = u64 [sp + 0x68]\n 59869: i32 a0 = a0 + 0x60\n 59872: a1 = 0x20\n 59875: ra = 712, jump @0\n      : @814 [@dyn 356] (gas: 137)\n 59882: a1 = u8 [a0 + 0x1]\n 59885: a2 = u8 [a0]\n 59887: a3 = u8 [a0 + 0x2]\n 59890: a4 = u8 [a0 + 0x3]\n 59893: a1 = a1 << 0x8\n 59896: a1 = a1 | a2\n 59899: a3 = a3 << 0x10\n 59902: a4 = a4 << 0x18\n 59905: a3 = a3 | a4\n 59908: a1 = a1 | a3\n 59911: a2 = u8 [a0 + 0x5]\n 59914: a3 = u8 [a0 + 0x4]\n 59917: a4 = u8 [a0 + 0x6]\n 59920: a5 = u8 [a0 + 0x7]\n 59923: a2 = a2 << 0x8\n 59926: a2 = a2 | a3\n 59929: a4 = a4 << 0x10\n 59932: a5 = a5 << 0x18\n 59935: a4 = a4 | a5\n 59938: a2 = a2 | a4\n 59941: a2 = a2 << 0x20\n 59944: t0 = a2 | a1\n 59947: a2 = u8 [a0 + 0x9]\n 59950: a3 = u8 [a0 + 0x8]\n 59953: a4 = u8 [a0 + 0xa]\n 59956: a5 = u8 [a0 + 0xb]\n 59959: a2 = a2 << 0x8\n 59962: a2 = a2 | a3\n 59965: a4 = a4 << 0x10\n 59968: a5 = a5 << 0x18\n 59971: a4 = a4 | a5\n 59974: a2 = a2 | a4\n 59977: a3 = u8 [a0 + 0xd]\n 59980: a4 = u8 [a0 + 0xc]\n 59983: a5 = u8 [a0 + 0xe]\n 59986: s1 = u8 [a0 + 0xf]\n 59989: a3 = a3 << 0x8\n 59992: a3 = a3 | a4\n 59995: a5 = a5 << 0x10\n 59998: s1 = s1 << 0x18\n 60001: a5 = a5 | s1\n 60004: a3 = a3 | a5\n 60007: a3 = a3 << 0x20\n 60010: a2 = a2 | a3\n 60013: a3 = u8 [a0 + 0x11]\n 60016: a4 = u8 [a0 + 0x10]\n 60019: a5 = u8 [a0 + 0x12]\n 60022: s1 = u8 [a0 + 0x13]\n 60025: a3 = a3 << 0x8\n 60028: a3 = a3 | a4\n 60031: a5 = a5 << 0x10\n 60034: s1 = s1 << 0x18\n 60037: a5 = a5 | s1\n 60040: a3 = a3 | a5\n 60043: a4 = u8 [a0 + 0x15]\n 60046: a5 = u8 [a0 + 0x14]\n 60049: s1 = u8 [a0 + 0x16]\n 60052: a1 = u8 [a0 + 0x17]\n 60055: a4 = a4 << 0x8\n 60058: a4 = a4 | a5\n 60061: s1 = s1 << 0x10\n 60064: a1 = a1 << 0x18\n 60067: a1 = a1 | s1\n 60070: a1 = a1 | a4\n 60073: a1 = a1 << 0x20\n 60076: a3 = a3 | a1\n 60079: a1 = u8 [a0 + 0x19]\n 60082: a4 = u8 [a0 + 0x18]\n 60085: a5 = u8 [a0 + 0x1a]\n 60088: s1 = u8 [a0 + 0x1b]\n 60091: a1 = a1 << 0x8\n 60094: a1 = a1 | a4\n 60097: a5 = a5 << 0x10\n 60100: s1 = s1 << 0x18\n 60103: a5 = a5 | s1\n 60106: a1 = a1 | a5\n 60109: a4 = u8 [a0 + 0x1d]\n 60112: a5 = u8 [a0 + 0x1c]\n 60115: s1 = u8 [a0 + 0x1e]\n 60118: a0 = u8 [a0 + 0x1f]\n 60121: a4 = a4 << 0x8\n 60124: a4 = a4 | a5\n 60127: s1 = s1 << 0x10\n 60130: a0 = a0 << 0x18\n 60133: a0 = a0 | s1\n 60136: a0 = a0 | a4\n 60139: a0 = a0 << 0x20\n 60142: a0 = a0 | a1\n 60145: u32 [sp + 224] = 0x20\n 60150: a0 = reverse a0\n 60152: u64 [sp + 0x30] = a0\n 60155: a0 = reverse a3\n 60157: u64 [sp + 0x28] = a0\n 60160: a0 = reverse a2\n 60162: u64 [sp + 0x20] = a0\n 60165: a0 = reverse t0\n 60167: u64 [sp + 0x18] = a0\n 60170: a0 = u64 [sp + 0x50]\n 60173: u64 [sp + 0x110] = a0\n 60177: a0 = u64 [sp + 0x58]\n 60180: u64 [sp + 0x108] = a0\n 60184: a0 = u64 [sp + 0x48]\n 60187: u64 [sp + 0x100] = a0\n 60191: s1 = u64 [sp + 0x38]\n 60194: u64 [sp + 0x118] = s1\n 60198: u64 [sp + 312] = 0\n 60202: u64 [sp + 304] = 0\n 60206: u64 [sp + 296] = 0\n 60210: u64 [sp + 288] = 0\n 60214: i32 a1 = sp + 0x100\n 60218: i32 a3 = sp + 0x120\n 60222: i32 a4 = sp + 0xe0\n 60226: a2 = 0xffffffffffffffff\n 60229: a0 = 0\n 60231: ecalli 7 // 'get_storage'\n 60233: u64 [sp + 0x118] = s1\n 60237: a0 = u64 [sp + 0x50]\n 60240: u64 [sp + 0x110] = a0\n 60244: a0 = u64 [sp + 0x58]\n 60247: u64 [sp + 0x108] = a0\n 60251: a0 = u64 [sp + 0x48]\n 60254: u64 [sp + 0x100] = a0\n 60258: a0 = u64 [sp + 0x18]\n 60261: u64 [sp + 0x138] = a0\n 60265: a0 = u64 [sp + 0x20]\n 60268: u64 [sp + 0x130] = a0\n 60272: a0 = u64 [sp + 0x28]\n 60275: u64 [sp + 0x128] = a0\n 60279: a0 = u64 [sp + 0x30]\n 60282: u64 [sp + 0x120] = a0\n 60286: i32 a1 = sp + 0x100\n 60290: i32 a3 = sp + 0x120\n 60294: a2 = 0xffffffffffffffff\n 60297: a4 = 0x20\n 60300: a0 = 0\n 60302: ecalli 13 // 'set_storage'\n 60304: fallthrough\n      : @815 (gas: 9)\n 60305: a0 = u64 [sp + 0x40]\n 60308: a0 = a0 + 0xffffffffffffff80\n 60311: a1 = u64 [sp + 0x80]\n 60315: a0 = a1 <u a0\n 60318: a1 = u64 [sp + 0x70]\n 60321: a0 = 0 if a1 != 0\n 60323: a1 = u64 [sp + 0x60]\n 60326: a0 = 0 if a1 != 0\n 60328: jump @818 if a0 == 0\n      : @816 (gas: 20)\n 60332: a0 = u64 [sp + 0x88]\n 60336: a1 = a0 + 0x4\n 60339: u64 [sp + 0x80] = a1\n 60343: a0 = a1 <u a0\n 60346: a1 = u64 [sp + 0x90]\n 60350: a2 = a1 + a0\n 60353: u64 [sp + 0x88] = a2\n 60357: a1 = a2 <u a1\n 60360: a1 = a0 if a0 == 0\n 60363: a0 = u64 [sp + 0x98]\n 60367: a1 = a1 + a0\n 60370: u64 [sp + 0x90] = a1\n 60374: a0 = a1 <u a0\n 60377: a1 = u64 [sp + 0x78]\n 60380: a0 = a0 + a1\n 60383: u64 [sp + 0x98] = a0\n 60387: a0 = u64 [sp + 0x68]\n 60390: i32 a0 = a0 + 0x80\n 60394: a1 = 0x20\n 60397: ra = 714, jump @0\n      : @817 [@dyn 357] (gas: 140)\n 60404: a1 = u8 [a0 + 0x11]\n 60407: a2 = u8 [a0 + 0x10]\n 60410: a3 = u8 [a0 + 0x12]\n 60413: a4 = u8 [a0 + 0x13]\n 60416: a1 = a1 << 0x8\n 60419: a1 = a1 | a2\n 60422: a3 = a3 << 0x10\n 60425: a4 = a4 << 0x18\n 60428: a3 = a3 | a4\n 60431: t0 = a3 | a1\n 60434: a1 = u8 [a0 + 0x1]\n 60437: a2 = u8 [a0]\n 60439: a3 = u8 [a0 + 0x2]\n 60442: a4 = u8 [a0 + 0x3]\n 60445: a1 = a1 << 0x8\n 60448: a1 = a1 | a2\n 60451: a3 = a3 << 0x10\n 60454: a4 = a4 << 0x18\n 60457: a2 = a4 | a3\n 60460: t1 = a2 | a1\n 60463: a1 = u8 [a0 + 0x15]\n 60466: a3 = u8 [a0 + 0x14]\n 60469: a4 = u8 [a0 + 0x16]\n 60472: a5 = u8 [a0 + 0x17]\n 60475: a1 = a1 << 0x8\n 60478: a1 = a1 | a3\n 60481: a4 = a4 << 0x10\n 60484: a5 = a5 << 0x18\n 60487: a3 = a5 | a4\n 60490: t2 = a3 | a1\n 60493: a1 = u8 [a0 + 0x5]\n 60496: a4 = u8 [a0 + 0x4]\n 60499: a5 = u8 [a0 + 0x6]\n 60502: s1 = u8 [a0 + 0x7]\n 60505: a1 = a1 << 0x8\n 60508: a1 = a1 | a4\n 60511: a5 = a5 << 0x10\n 60514: s1 = s1 << 0x18\n 60517: a4 = s1 | a5\n 60520: ra = a4 | a1\n 60523: a1 = u8 [a0 + 0x19]\n 60526: a5 = u8 [a0 + 0x18]\n 60529: s1 = u8 [a0 + 0x1a]\n 60532: a2 = u8 [a0 + 0x1b]\n 60535: a1 = a1 << 0x8\n 60538: a1 = a1 | a5\n 60541: s1 = s1 << 0x10\n 60544: a2 = a2 << 0x18\n 60547: a2 = a2 | s1\n 60550: a5 = a2 | a1\n 60553: a1 = u8 [a0 + 0x9]\n 60556: a2 = u8 [a0 + 0x8]\n 60559: s1 = u8 [a0 + 0xa]\n 60562: a3 = u8 [a0 + 0xb]\n 60565: a1 = a1 << 0x8\n 60568: a1 = a1 | a2\n 60571: s1 = s1 << 0x10\n 60574: a3 = a3 << 0x18\n 60577: a3 = a3 | s1\n 60580: a1 = a1 | a3\n 60583: a2 = u8 [a0 + 0x1d]\n 60586: a3 = u8 [a0 + 0x1c]\n 60589: s1 = u8 [a0 + 0x1e]\n 60592: a4 = u8 [a0 + 0x1f]\n 60595: a2 = a2 << 0x8\n 60598: a2 = a2 | a3\n 60601: s1 = s1 << 0x10\n 60604: a4 = a4 << 0x18\n 60607: a4 = a4 | s1\n 60610: a2 = a2 | a4\n 60613: a3 = u8 [a0 + 0xd]\n 60616: a4 = u8 [a0 + 0xc]\n 60619: s1 = u8 [a0 + 0xe]\n 60622: a0 = u8 [a0 + 0xf]\n 60625: a3 = a3 << 0x8\n 60628: a3 = a3 | a4\n 60631: s1 = s1 << 0x10\n 60634: a0 = a0 << 0x18\n 60637: a0 = a0 | s1\n 60640: a0 = a0 | a3\n 60643: a0 = a0 | a2\n 60646: a1 = a1 | a5\n 60649: a0 = a0 << 0x20\n 60652: a0 = a0 | a1\n 60655: a1 = ra | t2\n 60658: a2 = t1 | t0\n 60661: a1 = a1 << 0x20\n 60664: a1 = a1 | a2\n 60667: a0 = a0 | a1\n 60670: u32 [sp + 224] = 0x20\n 60675: a0 = a0 >u 0\n 60677: u64 [sp + 0x78] = a0\n 60680: a0 = u64 [sp + 0x90]\n 60684: u64 [sp + 0x110] = a0\n 60688: a0 = u64 [sp + 0x88]\n 60692: u64 [sp + 0x108] = a0\n 60696: a0 = u64 [sp + 0x80]\n 60700: u64 [sp + 0x100] = a0\n 60704: s1 = u64 [sp + 0x98]\n 60708: u64 [sp + 0x118] = s1\n 60712: u64 [sp + 312] = 0\n 60716: u64 [sp + 304] = 0\n 60720: u64 [sp + 296] = 0\n 60724: u64 [sp + 288] = 0\n 60728: i32 a1 = sp + 0x100\n 60732: i32 a3 = sp + 0x120\n 60736: i32 a4 = sp + 0xe0\n 60740: a2 = 0xffffffffffffffff\n 60743: a0 = 0\n 60745: ecalli 7 // 'get_storage'\n 60747: a0 = u64 [sp + 0x120]\n 60751: a1 = u64 [sp + 0x128]\n 60755: a2 = u64 [sp + 0x130]\n 60759: a3 = u64 [sp + 0x138]\n 60763: a0 = a0 & 0xffffffffffffff00\n 60767: a4 = u64 [sp + 0x78]\n 60770: a0 = a0 | a4\n 60773: u64 [sp + 0x118] = s1\n 60777: a4 = u64 [sp + 0x90]\n 60781: u64 [sp + 0x110] = a4\n 60785: a4 = u64 [sp + 0x88]\n 60789: u64 [sp + 0x108] = a4\n 60793: a4 = u64 [sp + 0x80]\n 60797: u64 [sp + 0x100] = a4\n 60801: u64 [sp + 0x138] = a3\n 60805: u64 [sp + 0x130] = a2\n 60809: u64 [sp + 0x128] = a1\n 60813: u64 [sp + 0x120] = a0\n 60817: i32 a1 = sp + 0x100\n 60821: i32 a3 = sp + 0x120\n 60825: a2 = 0xffffffffffffffff\n 60828: a4 = 0x20\n 60831: a0 = 0\n 60833: ecalli 13 // 'set_storage'\n 60835: sp = s0 + 0xfffffffffffffea0\n 60839: ra = u64 [sp + 0x158]\n 60843: s0 = u64 [sp + 0x150]\n 60847: s1 = u64 [sp + 0x148]\n 60851: sp = sp + 0x160\n 60855: ret\n      : @818 (gas: 1)\n 60857: trap\n      : @819 (gas: 20)\n 60858: sp = sp + 0xffffffffffffff48\n 60862: u64 [sp + 0xb0] = ra\n 60866: u64 [sp + 0xa8] = s0\n 60870: u64 [sp + 0xa0] = s1\n 60874: t1 = u64 [a1 + 0x18]\n 60877: s0 = u64 [a1 + 0x10]\n 60880: s1 = u64 [a1 + 0x8]\n 60883: t0 = u64 [a1]\n 60885: u64 [sp + 0x88] = s1\n 60889: u64 [sp + 0x98] = t1\n 60893: a1 = s1 | t1\n 60896: s1 = t0 | s0\n 60899: s1 = s1 | a1\n 60902: s1 = s1 >> 0x20\n 60905: u64 [sp + 0x90] = s0\n 60909: a1 = a1 | s0\n 60912: a1 = a1 << 0x20\n 60915: a1 = a1 | s1\n 60918: u64 [sp] = a0\n 60920: jump @835 if a1 != 0\n      : @820 (gas: 36)\n 60924: a0 = u64 [a5 + 0x18]\n 60927: u64 [sp + 0x68] = a0\n 60930: a0 = u64 [a5 + 0x10]\n 60933: u64 [sp + 0x60] = a0\n 60936: a0 = u64 [a5 + 0x8]\n 60939: u64 [sp + 0x58] = a0\n 60942: a0 = u64 [a5]\n 60944: u64 [sp + 0x80] = a0\n 60948: a0 = u64 [a4 + 0x18]\n 60951: u64 [sp + 0x10] = a0\n 60954: a0 = u64 [a4 + 0x10]\n 60957: u64 [sp + 0x18] = a0\n 60960: a0 = u64 [a4 + 0x8]\n 60963: u64 [sp + 0x8] = a0\n 60966: a0 = u64 [a4]\n 60968: u64 [sp + 0x20] = a0\n 60971: a0 = u64 [a3 + 0x18]\n 60974: u64 [sp + 0x28] = a0\n 60977: a0 = u64 [a3 + 0x10]\n 60980: u64 [sp + 0x30] = a0\n 60983: a0 = u64 [a3 + 0x8]\n 60986: u64 [sp + 0x38] = a0\n 60989: a0 = u64 [a3]\n 60991: u64 [sp + 0x40] = a0\n 60994: a0 = u64 [a2 + 0x18]\n 60997: u64 [sp + 0x48] = a0\n 61000: s1 = u64 [a2 + 0x10]\n 61003: a0 = u64 [a2 + 0x8]\n 61006: u64 [sp + 0x50] = a0\n 61009: a0 = u64 [a2]\n 61011: u64 [sp + 0x70] = a0\n 61014: i32 a0 = t0 + 0\n 61016: a1 = 0x20\n 61019: u64 [sp + 0x78] = a0\n 61022: s0 = t0\n 61024: ra = 716, jump @0\n      : @821 [@dyn 358] (gas: 79)\n 61031: a1 = u64 [sp + 0x48]\n 61034: a1 = reverse a1\n 61036: a2 = reverse s1\n 61038: a3 = u64 [sp + 0x50]\n 61041: a3 = reverse a3\n 61043: a4 = u64 [sp + 0x70]\n 61046: a4 = reverse a4\n 61048: a5 = a4 >> 0x38\n 61051: u8 [a0 + 0x1f] = a5\n 61054: a5 = a4 >> 0x30\n 61057: u8 [a0 + 0x1e] = a5\n 61060: a5 = a4 >> 0x28\n 61063: u8 [a0 + 0x1d] = a5\n 61066: a5 = a4 >> 0x20\n 61069: u8 [a0 + 0x1c] = a5\n 61072: a5 = a4 >> 0x18\n 61075: u8 [a0 + 0x1b] = a5\n 61078: a5 = a4 >> 0x10\n 61081: u8 [a0 + 0x1a] = a5\n 61084: a5 = a4 >> 0x8\n 61087: u8 [a0 + 0x19] = a5\n 61090: u8 [a0 + 0x18] = a4\n 61093: u8 [a0 + 0x10] = a3\n 61096: a4 = a3 >> 0x38\n 61099: u8 [a0 + 0x17] = a4\n 61102: a4 = a3 >> 0x30\n 61105: u8 [a0 + 0x16] = a4\n 61108: a4 = a3 >> 0x28\n 61111: u8 [a0 + 0x15] = a4\n 61114: a4 = a3 >> 0x20\n 61117: u8 [a0 + 0x14] = a4\n 61120: a4 = a3 >> 0x18\n 61123: u8 [a0 + 0x13] = a4\n 61126: a4 = a3 >> 0x10\n 61129: u8 [a0 + 0x12] = a4\n 61132: a3 = a3 >> 0x8\n 61135: u8 [a0 + 0x11] = a3\n 61138: u8 [a0 + 0x8] = a2\n 61141: a3 = a2 >> 0x38\n 61144: u8 [a0 + 0xf] = a3\n 61147: a3 = a2 >> 0x30\n 61150: u8 [a0 + 0xe] = a3\n 61153: a3 = a2 >> 0x28\n 61156: u8 [a0 + 0xd] = a3\n 61159: a3 = a2 >> 0x20\n 61162: u8 [a0 + 0xc] = a3\n 61165: a3 = a2 >> 0x18\n 61168: u8 [a0 + 0xb] = a3\n 61171: a3 = a2 >> 0x10\n 61174: u8 [a0 + 0xa] = a3\n 61177: a2 = a2 >> 0x8\n 61180: u8 [a0 + 0x9] = a2\n 61183: u8 [a0] = a1\n 61185: a2 = a1 >> 0x38\n 61188: u8 [a0 + 0x7] = a2\n 61191: a2 = a1 >> 0x30\n 61194: u8 [a0 + 0x6] = a2\n 61197: a2 = a1 >> 0x28\n 61200: u8 [a0 + 0x5] = a2\n 61203: a2 = a1 >> 0x20\n 61206: u8 [a0 + 0x4] = a2\n 61209: a2 = a1 >> 0x18\n 61212: u8 [a0 + 0x3] = a2\n 61215: a2 = a1 >> 0x10\n 61218: u8 [a0 + 0x2] = a2\n 61221: a1 = a1 >> 0x8\n 61224: a2 = u64 [sp + 0x98]\n 61228: a3 = u64 [sp + 0x90]\n 61232: a3 = a3 | a2\n 61235: s1 = 0x100000000\n 61245: a2 = 0xffffffe0\n 61255: u64 [sp + 0x70] = s0\n 61258: a2 = s0 <u a2\n 61261: s0 = a3\n 61263: a3 = u64 [sp + 0x88]\n 61267: a2 = 0 if a3 != 0\n 61269: a2 = 0 if s0 != 0\n 61271: u8 [a0 + 0x1] = a1\n 61274: jump @835 if a2 == 0\n      : @822 (gas: 4)\n 61278: a0 = u64 [sp + 0x78]\n 61281: i32 a0 = a0 + 0x20\n 61284: a1 = 0x20\n 61287: ra = 718, jump @0\n      : @823 [@dyn 359] (gas: 75)\n 61294: a1 = u64 [sp + 0x28]\n 61297: a1 = reverse a1\n 61299: a2 = u64 [sp + 0x30]\n 61302: a2 = reverse a2\n 61304: a3 = u64 [sp + 0x38]\n 61307: a3 = reverse a3\n 61309: a4 = u64 [sp + 0x40]\n 61312: a4 = reverse a4\n 61314: a5 = a4 >> 0x38\n 61317: u8 [a0 + 0x1f] = a5\n 61320: a5 = a4 >> 0x30\n 61323: u8 [a0 + 0x1e] = a5\n 61326: a5 = a4 >> 0x28\n 61329: u8 [a0 + 0x1d] = a5\n 61332: a5 = a4 >> 0x20\n 61335: u8 [a0 + 0x1c] = a5\n 61338: a5 = a4 >> 0x18\n 61341: u8 [a0 + 0x1b] = a5\n 61344: a5 = a4 >> 0x10\n 61347: u8 [a0 + 0x1a] = a5\n 61350: a5 = a4 >> 0x8\n 61353: u8 [a0 + 0x19] = a5\n 61356: u8 [a0 + 0x18] = a4\n 61359: u8 [a0 + 0x10] = a3\n 61362: a4 = a3 >> 0x38\n 61365: u8 [a0 + 0x17] = a4\n 61368: a4 = a3 >> 0x30\n 61371: u8 [a0 + 0x16] = a4\n 61374: a4 = a3 >> 0x28\n 61377: u8 [a0 + 0x15] = a4\n 61380: a4 = a3 >> 0x20\n 61383: u8 [a0 + 0x14] = a4\n 61386: a4 = a3 >> 0x18\n 61389: u8 [a0 + 0x13] = a4\n 61392: a4 = a3 >> 0x10\n 61395: u8 [a0 + 0x12] = a4\n 61398: a3 = a3 >> 0x8\n 61401: u8 [a0 + 0x11] = a3\n 61404: u8 [a0 + 0x8] = a2\n 61407: a3 = a2 >> 0x38\n 61410: u8 [a0 + 0xf] = a3\n 61413: a3 = a2 >> 0x30\n 61416: u8 [a0 + 0xe] = a3\n 61419: a3 = a2 >> 0x28\n 61422: u8 [a0 + 0xd] = a3\n 61425: a3 = a2 >> 0x20\n 61428: u8 [a0 + 0xc] = a3\n 61431: a3 = a2 >> 0x18\n 61434: u8 [a0 + 0xb] = a3\n 61437: a3 = a2 >> 0x10\n 61440: u8 [a0 + 0xa] = a3\n 61443: a2 = a2 >> 0x8\n 61446: u8 [a0 + 0x9] = a2\n 61449: u8 [a0] = a1\n 61451: a2 = a1 >> 0x38\n 61454: u8 [a0 + 0x7] = a2\n 61457: a2 = a1 >> 0x30\n 61460: u8 [a0 + 0x6] = a2\n 61463: a2 = a1 >> 0x28\n 61466: u8 [a0 + 0x5] = a2\n 61469: a2 = a1 >> 0x20\n 61472: u8 [a0 + 0x4] = a2\n 61475: a2 = a1 >> 0x18\n 61478: u8 [a0 + 0x3] = a2\n 61481: a2 = a1 >> 0x10\n 61484: u8 [a0 + 0x2] = a2\n 61487: a1 = a1 >> 0x8\n 61490: a2 = s1 + 0xffffffffffffffc0\n 61493: a4 = u64 [sp + 0x70]\n 61496: a2 = a4 <u a2\n 61499: a3 = u64 [sp + 0x88]\n 61503: a2 = 0 if a3 != 0\n 61505: a2 = 0 if s0 != 0\n 61507: u8 [a0 + 0x1] = a1\n 61510: jump @835 if a2 == 0\n      : @824 (gas: 16)\n 61514: s0 = a4 + 0x60\n 61517: a0 = s0 <u a4\n 61520: a2 = a3 + a0\n 61523: u64 [sp + 0x50] = a2\n 61526: s1 = a2 <u a3\n 61529: s1 = a0 if a0 == 0\n 61532: a0 = u64 [sp + 0x90]\n 61536: s1 = s1 + a0\n 61539: a0 = s1 <u a0\n 61542: a1 = u64 [sp + 0x98]\n 61546: a0 = a0 + a1\n 61549: u64 [sp + 0x48] = a0\n 61552: a0 = u64 [sp + 0x78]\n 61555: i32 a0 = a0 + 0x40\n 61558: a1 = 0x20\n 61561: ra = 720, jump @0\n      : @825 [@dyn 360] (gas: 43)\n 61568: u8 [a0 + 31] = 0x60\n 61572: a1 = s0 | s1\n 61575: a2 = u64 [sp + 0x50]\n 61578: a4 = u64 [sp + 0x48]\n 61581: a2 = a2 | a4\n 61584: a1 = a1 | a2\n 61587: a1 = a1 >> 0x20\n 61590: u64 [sp + 0x78] = s1\n 61593: a2 = a2 | s1\n 61596: a2 = a2 << 0x20\n 61599: a1 = a1 | a2\n 61602: u8 [a0 + 30] = 0\n 61605: u8 [a0 + 29] = 0\n 61608: u8 [a0 + 28] = 0\n 61611: u8 [a0 + 27] = 0\n 61614: u8 [a0 + 26] = 0\n 61617: u8 [a0 + 25] = 0\n 61620: u8 [a0 + 24] = 0\n 61623: u8 [a0 + 23] = 0\n 61626: u8 [a0 + 22] = 0\n 61629: u8 [a0 + 21] = 0\n 61632: u8 [a0 + 20] = 0\n 61635: u8 [a0 + 19] = 0\n 61638: u8 [a0 + 18] = 0\n 61641: u8 [a0 + 17] = 0\n 61644: u8 [a0 + 16] = 0\n 61647: u8 [a0 + 15] = 0\n 61650: u8 [a0 + 14] = 0\n 61653: u8 [a0 + 13] = 0\n 61656: u8 [a0 + 12] = 0\n 61659: u8 [a0 + 11] = 0\n 61662: u8 [a0 + 10] = 0\n 61665: u8 [a0 + 9] = 0\n 61668: u8 [a0 + 8] = 0\n 61671: u8 [a0 + 7] = 0\n 61674: u8 [a0 + 6] = 0\n 61677: u8 [a0 + 5] = 0\n 61680: u8 [a0 + 4] = 0\n 61683: u8 [a0 + 3] = 0\n 61686: u8 [a0 + 2] = 0\n 61689: u8 [a0 + 1] = 0\n 61692: u8 [a0 + 0] = 0\n 61694: jump @835 if a1 != 0\n      : @826 (gas: 4)\n 61698: u64 [sp + 0x40] = s0\n 61701: i32 a0 = s0 + 0\n 61703: a1 = 0x20\n 61706: ra = 722, jump @0\n      : @827 [@dyn 361] (gas: 80)\n 61713: t1 = u64 [sp + 0x80]\n 61717: a1 = reverse t1\n 61719: a2 = a1 >> 0x38\n 61722: u8 [a0 + 0x1f] = a2\n 61725: a2 = a1 >> 0x30\n 61728: u8 [a0 + 0x1e] = a2\n 61731: a2 = a1 >> 0x28\n 61734: u8 [a0 + 0x1d] = a2\n 61737: a2 = a1 >> 0x20\n 61740: u8 [a0 + 0x1c] = a2\n 61743: a2 = a1 >> 0x18\n 61746: u8 [a0 + 0x1b] = a2\n 61749: a2 = a1 >> 0x10\n 61752: u8 [a0 + 0x1a] = a2\n 61755: a2 = a1 >> 0x8\n 61758: u8 [a0 + 0x19] = a2\n 61761: t0 = u64 [sp + 0x58]\n 61764: a2 = reverse t0\n 61766: u8 [a0 + 0x18] = a1\n 61769: a1 = a2 >> 0x38\n 61772: u8 [a0 + 0x17] = a1\n 61775: a1 = a2 >> 0x30\n 61778: u8 [a0 + 0x16] = a1\n 61781: a1 = a2 >> 0x28\n 61784: u8 [a0 + 0x15] = a1\n 61787: a1 = a2 >> 0x20\n 61790: u8 [a0 + 0x14] = a1\n 61793: a1 = a2 >> 0x18\n 61796: u8 [a0 + 0x13] = a1\n 61799: a1 = a2 >> 0x10\n 61802: u8 [a0 + 0x12] = a1\n 61805: s0 = u64 [sp + 0x60]\n 61808: a3 = reverse s0\n 61810: u8 [a0 + 0x10] = a2\n 61813: a2 = a2 >> 0x8\n 61816: u8 [a0 + 0x11] = a2\n 61819: a1 = a3 >> 0x38\n 61822: u8 [a0 + 0xf] = a1\n 61825: a1 = a3 >> 0x30\n 61828: u8 [a0 + 0xe] = a1\n 61831: a1 = a3 >> 0x28\n 61834: u8 [a0 + 0xd] = a1\n 61837: a1 = a3 >> 0x20\n 61840: u8 [a0 + 0xc] = a1\n 61843: a1 = a3 >> 0x18\n 61846: u8 [a0 + 0xb] = a1\n 61849: a1 = a3 >> 0x10\n 61852: u8 [a0 + 0xa] = a1\n 61855: a5 = u64 [sp + 0x68]\n 61858: a1 = reverse a5\n 61860: u8 [a0 + 0x8] = a3\n 61863: a3 = a3 >> 0x8\n 61866: u8 [a0 + 0x9] = a3\n 61869: a2 = a1 >> 0x38\n 61872: u8 [a0 + 0x7] = a2\n 61875: a2 = a1 >> 0x30\n 61878: u8 [a0 + 0x6] = a2\n 61881: a2 = a1 >> 0x28\n 61884: u8 [a0 + 0x5] = a2\n 61887: a2 = a1 >> 0x20\n 61890: u8 [a0 + 0x4] = a2\n 61893: a2 = a1 >> 0x18\n 61896: u8 [a0 + 0x3] = a2\n 61899: a2 = a1 >> 0x10\n 61902: u8 [a0 + 0x2] = a2\n 61905: a2 = u64 [sp + 0x10]\n 61908: a4 = u64 [sp + 0x8]\n 61911: a4 = a4 | a2\n 61914: t2 = u64 [sp + 0x20]\n 61917: a2 = u64 [sp + 0x18]\n 61920: a3 = t2 | a2\n 61923: a3 = a3 | a4\n 61926: a2 = a2 | a4\n 61929: a3 = a3 >> 0x20\n 61932: a2 = a2 << 0x20\n 61935: a2 = a2 | a3\n 61938: u8 [a0] = a1\n 61940: a1 = a1 >> 0x8\n 61943: u8 [a0 + 0x1] = a1\n 61946: jump @835 if a2 != 0\n      : @828 (gas: 9)\n 61950: a0 = t1 | s0\n 61953: a1 = t0 | a5\n 61956: a0 = a0 | a1\n 61959: a0 = a0 >> 0x20\n 61962: a1 = a1 | s0\n 61965: a1 = a1 << 0x20\n 61968: a0 = a0 | a1\n 61971: a5 = u64 [sp + 0x70]\n 61974: jump @835 if a0 != 0\n      : @829 (gas: 12)\n 61978: a0 = u64 [sp + 0x78]\n 61981: a1 = u64 [sp + 0x48]\n 61984: a0 = a0 | a1\n 61987: a1 = 0xffffffe0\n 61997: a2 = u64 [sp + 0x40]\n 62000: a1 = a2 <u a1\n 62003: a2 = u64 [sp + 0x50]\n 62006: a1 = 0 if a2 != 0\n 62008: a1 = 0 if a0 != 0\n 62010: a2 = u64 [sp + 0x98]\n 62014: a3 = u64 [sp + 0x90]\n 62018: jump @835 if a1 == 0\n      : @830 (gas: 18)\n 62022: s1 = a5 + 0x80\n 62026: a0 = s1 <u a5\n 62029: a1 = u64 [sp + 0x88]\n 62033: a4 = a1 + a0\n 62036: u64 [sp + 0x78] = a4\n 62039: a1 = a4 <u a1\n 62042: a1 = a0 if a0 == 0\n 62045: a1 = a1 + a3\n 62048: u64 [sp + 0x88] = a1\n 62052: a0 = a1 <u a3\n 62055: a0 = a0 + a2\n 62058: u64 [sp + 0x98] = a0\n 62062: i32 t2 = t2 + 0\n 62064: u64 [sp + 0x90] = t2\n 62068: i32 a0 = s1 + 0\n 62070: i32 s0 = t1 + 0\n 62072: a1 = s0\n 62074: ra = 724, jump @0\n      : @831 [@dyn 362] (gas: 6)\n 62081: i32 a0 = a0 + 0\n 62083: a1 = s0\n 62085: s0 = u64 [sp + 0x78]\n 62088: a2 = u64 [sp + 0x90]\n 62092: ecalli 1 // 'call_data_copy'\n 62094: fallthrough\n      : @832 (gas: 29)\n 62095: a0 = u64 [sp + 0x80]\n 62099: a0 = a0 + s1\n 62102: u64 [sp + 0x90] = s1\n 62106: a1 = a0 <u s1\n 62109: a2 = u64 [sp + 0x58]\n 62112: a2 = a2 + s0\n 62115: a2 = a2 + a1\n 62118: a3 = a2 ^ s0\n 62121: a4 = a2 <u s0\n 62124: s0 = u64 [sp + 0x98]\n 62128: a4 = a1 if a3 == 0\n 62131: a1 = u64 [sp + 0x60]\n 62134: a5 = u64 [sp + 0x88]\n 62138: a1 = a1 + a5\n 62141: a4 = a4 + a1\n 62144: a3 = a4 <u a1\n 62147: a1 = a1 <u a5\n 62150: a5 = u64 [sp + 0x68]\n 62153: a5 = a5 + s0\n 62156: a1 = a1 + a5\n 62159: a1 = a1 + a3\n 62162: a3 = a0 | a4\n 62165: a1 = a1 | a2\n 62168: a3 = a3 | a1\n 62171: a3 = a3 >> 0x20\n 62174: a1 = a1 | a4\n 62177: a1 = a1 << 0x20\n 62180: a1 = a1 | a3\n 62183: jump @835 if a1 != 0\n      : @833 (gas: 3)\n 62187: i32 a0 = a0 + 0\n 62189: a1 = 0x20\n 62192: ra = 726, jump @0\n      : @834 [@dyn 363] (gas: 56)\n 62199: u8 [a0 + 31] = 0\n 62202: u8 [a0 + 30] = 0\n 62205: u8 [a0 + 29] = 0\n 62208: u8 [a0 + 28] = 0\n 62211: u8 [a0 + 27] = 0\n 62214: u8 [a0 + 26] = 0\n 62217: u8 [a0 + 25] = 0\n 62220: u8 [a0 + 24] = 0\n 62223: u8 [a0 + 23] = 0\n 62226: u8 [a0 + 22] = 0\n 62229: u8 [a0 + 21] = 0\n 62232: u8 [a0 + 20] = 0\n 62235: u8 [a0 + 19] = 0\n 62238: u8 [a0 + 18] = 0\n 62241: u8 [a0 + 17] = 0\n 62244: u8 [a0 + 16] = 0\n 62247: u8 [a0 + 15] = 0\n 62250: u8 [a0 + 14] = 0\n 62253: u8 [a0 + 13] = 0\n 62256: u8 [a0 + 12] = 0\n 62259: u8 [a0 + 11] = 0\n 62262: u8 [a0 + 10] = 0\n 62265: u8 [a0 + 9] = 0\n 62268: u8 [a0 + 8] = 0\n 62271: u8 [a0 + 7] = 0\n 62274: u8 [a0 + 6] = 0\n 62277: u8 [a0 + 5] = 0\n 62280: u8 [a0 + 4] = 0\n 62283: u8 [a0 + 3] = 0\n 62286: u8 [a0 + 2] = 0\n 62289: u8 [a0 + 1] = 0\n 62292: u8 [a0 + 0] = 0\n 62294: a0 = u64 [sp + 0x80]\n 62298: a0 = a0 + 0x1f\n 62301: a1 = 0x1ffffffe0\n 62311: a0 = a0 & a1\n 62314: a1 = u64 [sp + 0x90]\n 62318: a1 = a1 + a0\n 62321: a0 = a1 <u a0\n 62324: a2 = u64 [sp + 0x78]\n 62327: a2 = a2 + a0\n 62330: a0 = 0 if a2 != 0\n 62332: a3 = u64 [sp + 0x88]\n 62336: a0 = a0 + a3\n 62339: a3 = a0 <u a3\n 62342: a3 = a3 + s0\n 62345: a4 = u64 [sp]\n 62347: u64 [a4] = a1\n 62349: u64 [a4 + 0x8] = a2\n 62352: u64 [a4 + 0x10] = a0\n 62355: u64 [a4 + 0x18] = a3\n 62358: ra = u64 [sp + 0xb0]\n 62362: s0 = u64 [sp + 0xa8]\n 62366: s1 = u64 [sp + 0xa0]\n 62370: sp = sp + 0xb8\n 62374: ret\n      : @835 (gas: 1)\n 62376: trap\n      : @836 (gas: 19)\n 62377: sp = sp + 0xfffffffffffffb20\n 62381: u64 [sp + 0x4d8] = ra\n 62385: u64 [sp + 0x4d0] = s0\n 62389: u64 [sp + 0x4c8] = s1\n 62393: s0 = sp + 0x4e0\n 62397: sp = sp & 0xffffffffffffffe0\n 62400: s1 = sp\n 62402: t0 = u64 [a1 + 0x10]\n 62405: t1 = u64 [a1 + 0x18]\n 62408: a4 = u64 [a1 + 0x8]\n 62411: a5 = u64 [a1]\n 62413: u64 [s1 + 0xf0] = a4\n 62417: u64 [s1 + 0xe8] = t1\n 62421: a1 = a4 | t1\n 62424: u64 [s1 + 0x100] = t0\n 62428: u64 [s1 + 0xf8] = a5\n 62432: a4 = a5 | t0\n 62435: a1 = a1 | a4\n 62438: jump @869 if a1 == 0\n      : @837 (gas: 13)\n 62442: u64 [s1 + 0x38] = a0\n 62445: a4 = u64 [a3 + 0x18]\n 62448: a1 = u64 [a3 + 0x10]\n 62451: a0 = u64 [a3]\n 62453: a3 = u64 [a3 + 0x8]\n 62456: u64 [s1 + 0xd8] = a0\n 62460: u64 [s1 + 0xd0] = a1\n 62464: a0 = a0 | a1\n 62467: u64 [s1 + 0xc8] = a4\n 62471: u64 [s1 + 0xc0] = a3\n 62475: a1 = a3 | a4\n 62478: a0 = a0 | a1\n 62481: jump @839 if a0 != 0\n      : @838 (gas: 1)\n 62484: jump @874\n      : @839 (gas: 19)\n 62487: a0 = u64 [a2 + 0x18]\n 62490: u64 [s1 + 0xa0] = a0\n 62494: a0 = u64 [a2 + 0x10]\n 62497: u64 [s1 + 0xa8] = a0\n 62501: a0 = u64 [a2 + 0x8]\n 62504: u64 [s1 + 0xb0] = a0\n 62508: a0 = u64 [a2]\n 62510: u64 [s1 + 0xb8] = a0\n 62514: a0 = sp + 0xffffffffffffffe0\n 62517: a0 = a0 & 0xffffffffffffffe0\n 62520: u64 [s1 + 0x118] = a0\n 62524: sp = a0\n 62526: u64 [a0 + 24] = 0\n 62529: u64 [a0 + 16] = 0\n 62532: u64 [a0 + 8] = 0\n 62535: u64 [a0 + 0] = 0\n 62537: i32 a0 = a0 + 0\n 62539: ecalli 14 // 'value_transferred'\n 62541: fallthrough\n      : @840 (gas: 21)\n 62542: a1 = u64 [s1 + 0x118]\n 62546: a0 = u64 [a1 + 0x18]\n 62549: t0 = u64 [a1]\n 62551: a2 = u64 [a1 + 0x10]\n 62554: a3 = u64 [a1 + 0x8]\n 62557: a1 = u64 [s1 + 0xe8]\n 62561: a4 = a0 ^ a1\n 62564: a1 = a0 <u a1\n 62567: a0 = u64 [s1 + 0x100]\n 62571: a5 = a2 <u a0\n 62574: a5 = a1 if a4 != 0\n 62577: a1 = u64 [s1 + 0xf0]\n 62581: t1 = a3 ^ a1\n 62584: a3 = a3 <u a1\n 62587: a1 = u64 [s1 + 0xf8]\n 62591: a1 = t0 <u a1\n 62594: a1 = a3 if t1 != 0\n 62597: a0 = a0 ^ a2\n 62600: a0 = a0 | a4\n 62603: a1 = a5 if a0 != 0\n 62606: jump @842 if a1 == 0\n      : @841 (gas: 1)\n 62609: jump @879\n      : @842 (gas: 16)\n 62612: u64 [s1 + 1112] = 0\n 62616: u64 [s1 + 1104] = 0\n 62620: u64 [s1 + 1096] = 0\n 62624: u64 [s1 + 1088] = 0\n 62628: u64 [s1 + 1144] = 0\n 62632: u64 [s1 + 1136] = 0\n 62636: u64 [s1 + 1128] = 0\n 62640: u64 [s1 + 1120] = 0\n 62644: u32 [s1 + 1056] = 0x20\n 62649: i32 a1 = s1 + 0x440\n 62653: i32 a3 = s1 + 0x460\n 62657: i32 a4 = s1 + 0x420\n 62661: a2 = 0xffffffffffffffff\n 62664: a0 = 0\n 62666: ecalli 7 // 'get_storage'\n 62668: fallthrough\n      : @843 (gas: 24)\n 62669: a0 = u64 [s1 + 0x460]\n 62673: a2 = u64 [s1 + 0x478]\n 62677: a1 = u64 [s1 + 0x468]\n 62681: a3 = u64 [s1 + 0x470]\n 62685: u64 [s1 + 0x88] = a0\n 62689: a4 = a0 + 0x1\n 62692: a0 = a4 <u 0x1\n 62695: u64 [s1 + 0x80] = a1\n 62699: a1 = a1 + a0\n 62702: a0 = a4 | a1\n 62705: a0 = a0 <u 0x1\n 62708: a5 = a3 + a0\n 62711: u64 [s1 + 0x70] = a3\n 62714: a0 = a5 <u a3\n 62717: u64 [s1 + 0x78] = a2\n 62720: a0 = a0 + a2\n 62723: u64 [s1 + 0x110] = a1\n 62727: u64 [s1 + 0xe0] = a0\n 62731: a0 = a0 | a1\n 62734: u64 [s1 + 0x118] = a4\n 62738: u64 [s1 + 0x108] = a5\n 62742: a1 = a4 | a5\n 62745: a0 = a0 | a1\n 62748: jump @845 if a0 != 0\n      : @844 (gas: 1)\n 62751: jump @886\n      : @845 (gas: 67)\n 62754: u64 [s1 + 1112] = 0\n 62758: u64 [s1 + 1104] = 0\n 62762: u64 [s1 + 1096] = 0\n 62766: u64 [s1 + 1088] = 0\n 62770: u64 [s1 + 1144] = 0\n 62774: u64 [s1 + 1136] = 0\n 62778: u64 [s1 + 1128] = 0\n 62782: u64 [s1 + 1120] = 0\n 62786: u32 [s1 + 1056] = 0x20\n 62791: i32 a1 = s1 + 0x440\n 62795: i32 a3 = s1 + 0x460\n 62799: i32 a4 = s1 + 0x420\n 62803: a2 = 0xffffffffffffffff\n 62806: a0 = 0\n 62808: ecalli 7 // 'get_storage'\n 62810: u64 [s1 + 1112] = 0\n 62814: u64 [s1 + 1104] = 0\n 62818: u64 [s1 + 1096] = 0\n 62822: u64 [s1 + 1088] = 0\n 62826: a0 = u64 [s1 + 0xe0]\n 62830: u64 [s1 + 0x478] = a0\n 62834: a0 = u64 [s1 + 0x108]\n 62838: u64 [s1 + 0x470] = a0\n 62842: a0 = u64 [s1 + 0x110]\n 62846: u64 [s1 + 0x468] = a0\n 62850: a0 = u64 [s1 + 0x118]\n 62854: u64 [s1 + 0x460] = a0\n 62858: i32 a1 = s1 + 0x440\n 62862: i32 a3 = s1 + 0x460\n 62866: a2 = 0xffffffffffffffff\n 62869: a4 = 0x20\n 62872: a0 = 0\n 62874: ecalli 13 // 'set_storage'\n 62876: i32 a0 = s1 + 0x3e0\n 62880: ecalli 4 // 'caller'\n 62882: a0 = u32 [s1 + 0x3f0]\n 62886: u64 [s1 + 0x108] = a0\n 62890: a0 = u64 [s1 + 0x3e8]\n 62894: u64 [s1 + 0x68] = a0\n 62897: a0 = u64 [s1 + 0x3e0]\n 62901: u64 [s1 + 0xe0] = a0\n 62905: a0 = sp + 0xffffffffffffffe0\n 62908: a0 = a0 & 0xffffffffffffffe0\n 62911: u64 [s1 + 0x118] = a0\n 62915: sp = a0\n 62917: u64 [a0 + 24] = 0\n 62920: u64 [a0 + 16] = 0\n 62923: u64 [a0 + 8] = 0\n 62926: u64 [a0 + 0] = 0\n 62928: i32 a0 = a0 + 0\n 62930: ecalli 14 // 'value_transferred'\n 62932: a1 = u64 [s1 + 0x118]\n 62936: a0 = u64 [a1 + 0x18]\n 62939: u64 [s1 + 0x40] = a0\n 62942: a0 = u64 [a1 + 0x10]\n 62945: u64 [s1 + 0x48] = a0\n 62948: a0 = u64 [a1 + 0x8]\n 62951: u64 [s1 + 0x50] = a0\n 62954: a0 = u64 [a1]\n 62956: u64 [s1 + 0x58] = a0\n 62959: u64 [s1 + 952] = 0\n 62963: u64 [s1 + 944] = 0\n 62967: u64 [s1 + 928] = 0xa0\n 62973: a0 = s1 + 0x3c0\n 62977: a1 = s1 + 0x3a0\n 62981: u64 [s1 + 936] = 0\n 62985: ra = 728, jump @76\n      : @846 [@dyn 364] (gas: 16)\n 62992: a2 = u64 [s1 + 0x3d8]\n 62996: a3 = u64 [s1 + 0x3d0]\n 63000: a0 = u64 [s1 + 0x3c8]\n 63004: a1 = u64 [s1 + 0x3c0]\n 63008: u64 [s1 + 0x110] = a0\n 63012: u64 [s1 + 0x90] = a2\n 63016: a0 = a0 | a2\n 63019: u64 [s1 + 0x118] = a1\n 63023: a1 = a1 | a3\n 63026: a1 = a1 | a0\n 63029: a1 = a1 >> 0x20\n 63032: u64 [s1 + 0x98] = a3\n 63036: a0 = a0 | a3\n 63039: a0 = a0 << 0x20\n 63042: a0 = a0 | a1\n 63045: jump @848 if a0 == 0\n      : @847 (gas: 1)\n 63048: jump @885\n      : @848 (gas: 18)\n 63051: a0 = u64 [s1 + 0xe0]\n 63055: a0 = reverse a0\n 63057: a0 = a0 << 0x20\n 63060: a1 = u64 [s1 + 0x68]\n 63063: a1 = reverse a1\n 63065: a2 = a1 >> 0x20\n 63068: a0 = a0 | a2\n 63071: u64 [s1 + 0x68] = a0\n 63074: a1 = a1 << 0x20\n 63077: a0 = u64 [s1 + 0x108]\n 63081: a0 = reverse a0\n 63083: a0 = a0 >> 0x20\n 63086: a0 = a0 | a1\n 63089: u64 [s1 + 0x60] = a0\n 63092: a0 = i32 [s1 + 0x118]\n 63096: a1 = 0x20\n 63099: u64 [s1 + 0x108] = a0\n 63103: ra = 730, jump @0\n      : @849 [@dyn 365] (gas: 67)\n 63110: a1 = u64 [s1 + 0x60]\n 63113: a1 = reverse a1\n 63115: a2 = u64 [s1 + 0x68]\n 63118: a2 = reverse a2\n 63120: a4 = u64 [s1 + 0xe0]\n 63124: a3 = a4 >> 0x18\n 63127: u8 [a0 + 0xf] = a3\n 63130: a3 = a4 >> 0x10\n 63133: u8 [a0 + 0xe] = a3\n 63136: a3 = a4 >> 0x8\n 63139: u8 [a0 + 0xd] = a3\n 63142: u8 [a0 + 0xc] = a4\n 63145: u8 [a0 + 11] = 0\n 63148: u8 [a0 + 10] = 0\n 63151: u8 [a0 + 9] = 0\n 63154: u8 [a0 + 8] = 0\n 63157: u8 [a0 + 7] = 0\n 63160: u8 [a0 + 6] = 0\n 63163: u8 [a0 + 5] = 0\n 63166: u8 [a0 + 4] = 0\n 63169: u8 [a0 + 3] = 0\n 63172: u8 [a0 + 2] = 0\n 63175: u8 [a0 + 1] = 0\n 63178: u8 [a0 + 0] = 0\n 63180: u8 [a0 + 0x10] = a2\n 63183: u8 [a0 + 0x18] = a1\n 63186: a3 = a2 >> 0x38\n 63189: u8 [a0 + 0x17] = a3\n 63192: a3 = a2 >> 0x30\n 63195: u8 [a0 + 0x16] = a3\n 63198: a3 = a2 >> 0x28\n 63201: u8 [a0 + 0x15] = a3\n 63204: a3 = a2 >> 0x20\n 63207: u8 [a0 + 0x14] = a3\n 63210: a3 = a2 >> 0x18\n 63213: u8 [a0 + 0x13] = a3\n 63216: a3 = a2 >> 0x10\n 63219: u8 [a0 + 0x12] = a3\n 63222: a2 = a2 >> 0x8\n 63225: u8 [a0 + 0x11] = a2\n 63228: a2 = a1 >> 0x38\n 63231: u8 [a0 + 0x1f] = a2\n 63234: a2 = a1 >> 0x30\n 63237: u8 [a0 + 0x1e] = a2\n 63240: a2 = a1 >> 0x28\n 63243: u8 [a0 + 0x1d] = a2\n 63246: a2 = a1 >> 0x20\n 63249: u8 [a0 + 0x1c] = a2\n 63252: a2 = a1 >> 0x18\n 63255: u8 [a0 + 0x1b] = a2\n 63258: a2 = a1 >> 0x10\n 63261: u8 [a0 + 0x1a] = a2\n 63264: a1 = a1 >> 0x8\n 63267: a2 = u64 [s1 + 0x90]\n 63271: a4 = u64 [s1 + 0x98]\n 63275: a4 = a4 | a2\n 63278: a2 = 0x100000000\n 63288: u64 [s1 + 0x68] = a2\n 63291: a2 = 0xffffffe0\n 63301: a3 = u64 [s1 + 0x118]\n 63305: a2 = a3 <u a2\n 63308: a3 = u64 [s1 + 0x110]\n 63312: a2 = 0 if a3 != 0\n 63314: u64 [s1 + 0xe0] = a4\n 63318: a2 = 0 if a4 != 0\n 63320: u8 [a0 + 0x19] = a1\n 63323: jump @851 if a2 != 0\n      : @850 (gas: 1)\n 63326: jump @885\n      : @851 (gas: 4)\n 63329: a0 = u64 [s1 + 0x108]\n 63333: i32 a0 = a0 + 0x20\n 63336: a1 = 0x20\n 63339: ra = 732, jump @0\n      : @852 [@dyn 366] (gas: 94)\n 63346: a1 = u64 [s1 + 0xe8]\n 63350: a1 = reverse a1\n 63352: a2 = u64 [s1 + 0x100]\n 63356: a2 = reverse a2\n 63358: a3 = u64 [s1 + 0xf0]\n 63362: a3 = reverse a3\n 63364: a4 = u64 [s1 + 0xf8]\n 63368: a4 = reverse a4\n 63370: a5 = a4 >> 0x38\n 63373: u8 [a0 + 0x1f] = a5\n 63376: a5 = a4 >> 0x30\n 63379: u8 [a0 + 0x1e] = a5\n 63382: a5 = a4 >> 0x28\n 63385: u8 [a0 + 0x1d] = a5\n 63388: a5 = a4 >> 0x20\n 63391: u8 [a0 + 0x1c] = a5\n 63394: a5 = a4 >> 0x18\n 63397: u8 [a0 + 0x1b] = a5\n 63400: a5 = a4 >> 0x10\n 63403: u8 [a0 + 0x1a] = a5\n 63406: a5 = a4 >> 0x8\n 63409: u8 [a0 + 0x19] = a5\n 63412: u8 [a0 + 0x18] = a4\n 63415: u8 [a0 + 0x10] = a3\n 63418: a4 = a3 >> 0x38\n 63421: u8 [a0 + 0x17] = a4\n 63424: a4 = a3 >> 0x30\n 63427: u8 [a0 + 0x16] = a4\n 63430: a4 = a3 >> 0x28\n 63433: u8 [a0 + 0x15] = a4\n 63436: a4 = a3 >> 0x20\n 63439: u8 [a0 + 0x14] = a4\n 63442: a4 = a3 >> 0x18\n 63445: u8 [a0 + 0x13] = a4\n 63448: a4 = a3 >> 0x10\n 63451: u8 [a0 + 0x12] = a4\n 63454: a3 = a3 >> 0x8\n 63457: u8 [a0 + 0x11] = a3\n 63460: u8 [a0 + 0x8] = a2\n 63463: a3 = a2 >> 0x38\n 63466: u8 [a0 + 0xf] = a3\n 63469: a3 = a2 >> 0x30\n 63472: u8 [a0 + 0xe] = a3\n 63475: a3 = a2 >> 0x28\n 63478: u8 [a0 + 0xd] = a3\n 63481: a3 = a2 >> 0x20\n 63484: u8 [a0 + 0xc] = a3\n 63487: a3 = a2 >> 0x18\n 63490: u8 [a0 + 0xb] = a3\n 63493: a3 = a2 >> 0x10\n 63496: u8 [a0 + 0xa] = a3\n 63499: a2 = a2 >> 0x8\n 63502: u8 [a0 + 0x9] = a2\n 63505: u8 [a0] = a1\n 63507: a2 = a1 >> 0x38\n 63510: u8 [a0 + 0x7] = a2\n 63513: a2 = a1 >> 0x30\n 63516: u8 [a0 + 0x6] = a2\n 63519: a2 = a1 >> 0x28\n 63522: a3 = a1 >> 0x18\n 63525: u8 [a0 + 0x3] = a3\n 63528: a3 = a1 >> 0x10\n 63531: u8 [a0 + 0x2] = a3\n 63534: a3 = a1 >> 0x8\n 63537: u8 [a0 + 0x1] = a3\n 63540: a3 = u32 [0x200a8]\n 63545: u8 [a0 + 0x5] = a2\n 63548: a1 = a1 >> 0x20\n 63551: u8 [a0 + 0x4] = a1\n 63554: u64 [s1 + 824] = 0\n 63558: u64 [s1 + 816] = 0\n 63562: u64 [s1 + 808] = 0\n 63566: u64 [s1 + 0x320] = a3\n 63570: a0 = u64 [s1 + 0xc8]\n 63574: u64 [s1 + 0x358] = a0\n 63578: a0 = u64 [s1 + 0xd0]\n 63582: u64 [s1 + 0x350] = a0\n 63586: a0 = u64 [s1 + 0xc0]\n 63590: u64 [s1 + 0x348] = a0\n 63594: a0 = u64 [s1 + 0xd8]\n 63598: u64 [s1 + 0x340] = a0\n 63602: a0 = u64 [s1 + 0xa0]\n 63606: u64 [s1 + 0x378] = a0\n 63610: a0 = u64 [s1 + 0xa8]\n 63614: u64 [s1 + 0x370] = a0\n 63618: a0 = u64 [s1 + 0xb0]\n 63622: u64 [s1 + 0x368] = a0\n 63626: a0 = s1 + 0x380\n 63630: a1 = s1 + 0x360\n 63634: a2 = s1 + 0x340\n 63638: a3 = s1 + 0x320\n 63642: a4 = u64 [s1 + 0xb8]\n 63646: u64 [s1 + 0x360] = a4\n 63650: ra = 734, jump @733\n      : @853 [@dyn 367] (gas: 9)\n 63656: a0 = u64 [s1 + 0x68]\n 63659: a0 = a0 + 0xffffffffffffffc0\n 63662: a1 = u64 [s1 + 0x118]\n 63666: a0 = a1 <u a0\n 63669: a1 = u64 [s1 + 0x110]\n 63673: a0 = 0 if a1 != 0\n 63675: a1 = u64 [s1 + 0xe0]\n 63679: a0 = 0 if a1 != 0\n 63681: jump @885 if a0 == 0\n      : @854 (gas: 12)\n 63685: a0 = u64 [s1 + 0x398]\n 63689: u64 [s1 + 0x28] = a0\n 63692: a0 = u64 [s1 + 0x390]\n 63696: u64 [s1 + 0x30] = a0\n 63699: a0 = u64 [s1 + 0x388]\n 63703: u64 [s1 + 0x60] = a0\n 63706: a0 = u64 [s1 + 0x380]\n 63710: u64 [s1 + 0x68] = a0\n 63713: a0 = u64 [s1 + 0x108]\n 63717: i32 a0 = a0 + 0x40\n 63720: a1 = 0x20\n 63723: ra = 736, jump @0\n      : @855 [@dyn 368] (gas: 78)\n 63730: a1 = u64 [s1 + 0x28]\n 63733: a1 = reverse a1\n 63735: a2 = u64 [s1 + 0x30]\n 63738: a2 = reverse a2\n 63740: a3 = u64 [s1 + 0x60]\n 63743: a3 = reverse a3\n 63745: a4 = u64 [s1 + 0x68]\n 63748: a4 = reverse a4\n 63750: a5 = a4 >> 0x38\n 63753: u8 [a0 + 0x1f] = a5\n 63756: a5 = a4 >> 0x30\n 63759: u8 [a0 + 0x1e] = a5\n 63762: a5 = a4 >> 0x28\n 63765: u8 [a0 + 0x1d] = a5\n 63768: a5 = a4 >> 0x20\n 63771: u8 [a0 + 0x1c] = a5\n 63774: a5 = a4 >> 0x18\n 63777: u8 [a0 + 0x1b] = a5\n 63780: a5 = a4 >> 0x10\n 63783: u8 [a0 + 0x1a] = a5\n 63786: a5 = a4 >> 0x8\n 63789: u8 [a0 + 0x19] = a5\n 63792: u8 [a0 + 0x18] = a4\n 63795: u8 [a0 + 0x10] = a3\n 63798: a4 = a3 >> 0x38\n 63801: u8 [a0 + 0x17] = a4\n 63804: a4 = a3 >> 0x30\n 63807: u8 [a0 + 0x16] = a4\n 63810: a4 = a3 >> 0x28\n 63813: u8 [a0 + 0x15] = a4\n 63816: a4 = a3 >> 0x20\n 63819: u8 [a0 + 0x14] = a4\n 63822: a4 = a3 >> 0x18\n 63825: u8 [a0 + 0x13] = a4\n 63828: a4 = a3 >> 0x10\n 63831: u8 [a0 + 0x12] = a4\n 63834: a3 = a3 >> 0x8\n 63837: u8 [a0 + 0x11] = a3\n 63840: u8 [a0 + 0x8] = a2\n 63843: a3 = a2 >> 0x38\n 63846: u8 [a0 + 0xf] = a3\n 63849: a3 = a2 >> 0x30\n 63852: u8 [a0 + 0xe] = a3\n 63855: a3 = a2 >> 0x28\n 63858: u8 [a0 + 0xd] = a3\n 63861: a3 = a2 >> 0x20\n 63864: u8 [a0 + 0xc] = a3\n 63867: a3 = a2 >> 0x18\n 63870: u8 [a0 + 0xb] = a3\n 63873: a3 = a2 >> 0x10\n 63876: u8 [a0 + 0xa] = a3\n 63879: a2 = a2 >> 0x8\n 63882: u8 [a0 + 0x9] = a2\n 63885: u8 [a0] = a1\n 63887: a2 = a1 >> 0x38\n 63890: u8 [a0 + 0x7] = a2\n 63893: a2 = a1 >> 0x30\n 63896: u8 [a0 + 0x6] = a2\n 63899: a2 = a1 >> 0x28\n 63902: u8 [a0 + 0x5] = a2\n 63905: a2 = a1 >> 0x20\n 63908: u8 [a0 + 0x4] = a2\n 63911: a2 = a1 >> 0x18\n 63914: u8 [a0 + 0x3] = a2\n 63917: a2 = a1 >> 0x10\n 63920: u8 [a0 + 0x2] = a2\n 63923: a1 = a1 >> 0x8\n 63926: a2 = 0x100000000\n 63936: u64 [s1 + 0x68] = a2\n 63939: a2 = 0xffffffa0\n 63949: a3 = u64 [s1 + 0x118]\n 63953: a2 = a3 <u a2\n 63956: a3 = u64 [s1 + 0x110]\n 63960: a2 = 0 if a3 != 0\n 63962: a3 = u64 [s1 + 0xe0]\n 63966: a2 = 0 if a3 != 0\n 63968: u8 [a0 + 0x1] = a1\n 63971: jump @885 if a2 == 0\n      : @856 (gas: 4)\n 63975: a0 = u64 [s1 + 0x108]\n 63979: i32 a0 = a0 + 0x60\n 63982: a1 = 0x20\n 63985: ra = 738, jump @0\n      : @857 [@dyn 369] (gas: 77)\n 63992: a1 = u64 [s1 + 0x40]\n 63995: a1 = reverse a1\n 63997: a2 = u64 [s1 + 0x48]\n 64000: a2 = reverse a2\n 64002: a3 = u64 [s1 + 0x50]\n 64005: a3 = reverse a3\n 64007: a4 = u64 [s1 + 0x58]\n 64010: a4 = reverse a4\n 64012: a5 = a4 >> 0x38\n 64015: u8 [a0 + 0x1f] = a5\n 64018: a5 = a4 >> 0x30\n 64021: u8 [a0 + 0x1e] = a5\n 64024: a5 = a4 >> 0x28\n 64027: u8 [a0 + 0x1d] = a5\n 64030: a5 = a4 >> 0x20\n 64033: u8 [a0 + 0x1c] = a5\n 64036: a5 = a4 >> 0x18\n 64039: u8 [a0 + 0x1b] = a5\n 64042: a5 = a4 >> 0x10\n 64045: u8 [a0 + 0x1a] = a5\n 64048: a5 = a4 >> 0x8\n 64051: u8 [a0 + 0x19] = a5\n 64054: u8 [a0 + 0x18] = a4\n 64057: u8 [a0 + 0x10] = a3\n 64060: a4 = a3 >> 0x38\n 64063: u8 [a0 + 0x17] = a4\n 64066: a4 = a3 >> 0x30\n 64069: u8 [a0 + 0x16] = a4\n 64072: a4 = a3 >> 0x28\n 64075: u8 [a0 + 0x15] = a4\n 64078: a4 = a3 >> 0x20\n 64081: u8 [a0 + 0x14] = a4\n 64084: a4 = a3 >> 0x18\n 64087: u8 [a0 + 0x13] = a4\n 64090: a4 = a3 >> 0x10\n 64093: u8 [a0 + 0x12] = a4\n 64096: a3 = a3 >> 0x8\n 64099: u8 [a0 + 0x11] = a3\n 64102: u8 [a0 + 0x8] = a2\n 64105: a3 = a2 >> 0x38\n 64108: u8 [a0 + 0xf] = a3\n 64111: a3 = a2 >> 0x30\n 64114: u8 [a0 + 0xe] = a3\n 64117: a3 = a2 >> 0x28\n 64120: u8 [a0 + 0xd] = a3\n 64123: a3 = a2 >> 0x20\n 64126: u8 [a0 + 0xc] = a3\n 64129: a3 = a2 >> 0x18\n 64132: u8 [a0 + 0xb] = a3\n 64135: a3 = a2 >> 0x10\n 64138: u8 [a0 + 0xa] = a3\n 64141: a2 = a2 >> 0x8\n 64144: u8 [a0 + 0x9] = a2\n 64147: u8 [a0] = a1\n 64149: a2 = a1 >> 0x38\n 64152: u8 [a0 + 0x7] = a2\n 64155: a2 = a1 >> 0x30\n 64158: u8 [a0 + 0x6] = a2\n 64161: a2 = a1 >> 0x28\n 64164: u8 [a0 + 0x5] = a2\n 64167: a2 = a1 >> 0x20\n 64170: u8 [a0 + 0x4] = a2\n 64173: a2 = a1 >> 0x18\n 64176: u8 [a0 + 0x3] = a2\n 64179: a2 = a1 >> 0x10\n 64182: u8 [a0 + 0x2] = a2\n 64185: a1 = a1 >> 0x8\n 64188: a2 = u64 [s1 + 0x68]\n 64191: a2 = a2 + 0xffffffffffffff80\n 64194: a3 = u64 [s1 + 0x118]\n 64198: a2 = a3 <u a2\n 64201: a3 = u64 [s1 + 0x110]\n 64205: a2 = 0 if a3 != 0\n 64207: a3 = u64 [s1 + 0xe0]\n 64211: a2 = 0 if a3 != 0\n 64213: u8 [a0 + 0x1] = a1\n 64216: jump @885 if a2 == 0\n      : @858 (gas: 4)\n 64220: a0 = u64 [s1 + 0x108]\n 64224: i32 a0 = a0 + 0x80\n 64228: a1 = 0x20\n 64231: ra = 740, jump @0\n      : @859 [@dyn 370] (gas: 35)\n 64238: u8 [a0 + 31] = 0x1\n 64242: u8 [a0 + 30] = 0\n 64245: u8 [a0 + 29] = 0\n 64248: u8 [a0 + 28] = 0\n 64251: u8 [a0 + 27] = 0\n 64254: u8 [a0 + 26] = 0\n 64257: u8 [a0 + 25] = 0\n 64260: u8 [a0 + 24] = 0\n 64263: u8 [a0 + 23] = 0\n 64266: u8 [a0 + 22] = 0\n 64269: u8 [a0 + 21] = 0\n 64272: u8 [a0 + 20] = 0\n 64275: u8 [a0 + 19] = 0\n 64278: u8 [a0 + 18] = 0\n 64281: u8 [a0 + 17] = 0\n 64284: u8 [a0 + 16] = 0\n 64287: u8 [a0 + 15] = 0\n 64290: u8 [a0 + 14] = 0\n 64293: u8 [a0 + 13] = 0\n 64296: u8 [a0 + 12] = 0\n 64299: u8 [a0 + 11] = 0\n 64302: u8 [a0 + 10] = 0\n 64305: u8 [a0 + 9] = 0\n 64308: u8 [a0 + 8] = 0\n 64311: u8 [a0 + 7] = 0\n 64314: u8 [a0 + 6] = 0\n 64317: u8 [a0 + 5] = 0\n 64320: u8 [a0 + 4] = 0\n 64323: u8 [a0 + 3] = 0\n 64326: u8 [a0 + 2] = 0\n 64329: u8 [a0 + 1] = 0\n 64332: u8 [a0 + 0] = 0\n 64334: a1 = 0x20\n 64337: a0 = 0\n 64339: ra = 742, jump @0\n      : @860 [@dyn 371] (gas: 75)\n 64346: a1 = u64 [s1 + 0x78]\n 64349: a2 = reverse a1\n 64351: a1 = u64 [s1 + 0x70]\n 64354: a3 = reverse a1\n 64356: a1 = u64 [s1 + 0x80]\n 64360: a5 = reverse a1\n 64362: a1 = u64 [s1 + 0x88]\n 64366: a4 = reverse a1\n 64368: a1 = a4 >> 0x38\n 64371: u8 [a0 + 0x1f] = a1\n 64374: a1 = a4 >> 0x30\n 64377: u8 [a0 + 0x1e] = a1\n 64380: a1 = a4 >> 0x28\n 64383: u8 [a0 + 0x1d] = a1\n 64386: a1 = a4 >> 0x20\n 64389: u8 [a0 + 0x1c] = a1\n 64392: a1 = a4 >> 0x18\n 64395: u8 [a0 + 0x1b] = a1\n 64398: a1 = a4 >> 0x10\n 64401: u8 [a0 + 0x1a] = a1\n 64404: a1 = a4 >> 0x8\n 64407: u8 [a0 + 0x19] = a1\n 64410: u64 [s1 + 0x40] = a4\n 64413: u8 [a0 + 0x18] = a4\n 64416: a1 = a5 >> 0x38\n 64419: u8 [a0 + 0x17] = a1\n 64422: a1 = a5 >> 0x30\n 64425: u8 [a0 + 0x16] = a1\n 64428: a1 = a5 >> 0x28\n 64431: u8 [a0 + 0x15] = a1\n 64434: a1 = a5 >> 0x20\n 64437: u8 [a0 + 0x14] = a1\n 64440: a1 = a5 >> 0x18\n 64443: u8 [a0 + 0x13] = a1\n 64446: a1 = a5 >> 0x10\n 64449: u8 [a0 + 0x12] = a1\n 64452: a1 = a5 >> 0x8\n 64455: u8 [a0 + 0x11] = a1\n 64458: u64 [s1 + 0x30] = a5\n 64461: u8 [a0 + 0x10] = a5\n 64464: a1 = a3 >> 0x38\n 64467: u8 [a0 + 0xf] = a1\n 64470: a1 = a3 >> 0x30\n 64473: u8 [a0 + 0xe] = a1\n 64476: a1 = a3 >> 0x28\n 64479: u8 [a0 + 0xd] = a1\n 64482: a1 = a3 >> 0x20\n 64485: u8 [a0 + 0xc] = a1\n 64488: a1 = a3 >> 0x18\n 64491: u8 [a0 + 0xb] = a1\n 64494: a1 = a3 >> 0x10\n 64497: u8 [a0 + 0xa] = a1\n 64500: a1 = a3 >> 0x8\n 64503: u8 [a0 + 0x9] = a1\n 64506: u64 [s1 + 0x48] = a3\n 64509: u8 [a0 + 0x8] = a3\n 64512: a1 = a2 >> 0x38\n 64515: u8 [a0 + 0x7] = a1\n 64518: a1 = a2 >> 0x30\n 64521: u8 [a0 + 0x6] = a1\n 64524: a1 = a2 >> 0x28\n 64527: u8 [a0 + 0x5] = a1\n 64530: a1 = a2 >> 0x20\n 64533: u8 [a0 + 0x4] = a1\n 64536: a1 = a2 >> 0x18\n 64539: u8 [a0 + 0x3] = a1\n 64542: a1 = a2 >> 0x10\n 64545: u8 [a0 + 0x2] = a1\n 64548: a1 = a2 >> 0x8\n 64551: u8 [a0 + 0x1] = a1\n 64554: u64 [s1 + 0x50] = a2\n 64557: u8 [a0] = a2\n 64559: a0 = 0x20\n 64562: a1 = 0x20\n 64565: ra = 744, jump @0\n      : @861 [@dyn 372] (gas: 35)\n 64572: u8 [a0 + 31] = 0x1\n 64576: u8 [a0 + 30] = 0\n 64579: u8 [a0 + 29] = 0\n 64582: u8 [a0 + 28] = 0\n 64585: u8 [a0 + 27] = 0\n 64588: u8 [a0 + 26] = 0\n 64591: u8 [a0 + 25] = 0\n 64594: u8 [a0 + 24] = 0\n 64597: u8 [a0 + 23] = 0\n 64600: u8 [a0 + 22] = 0\n 64603: u8 [a0 + 21] = 0\n 64606: u8 [a0 + 20] = 0\n 64609: u8 [a0 + 19] = 0\n 64612: u8 [a0 + 18] = 0\n 64615: u8 [a0 + 17] = 0\n 64618: u8 [a0 + 16] = 0\n 64621: u8 [a0 + 15] = 0\n 64624: u8 [a0 + 14] = 0\n 64627: u8 [a0 + 13] = 0\n 64630: u8 [a0 + 12] = 0\n 64633: u8 [a0 + 11] = 0\n 64636: u8 [a0 + 10] = 0\n 64639: u8 [a0 + 9] = 0\n 64642: u8 [a0 + 8] = 0\n 64645: u8 [a0 + 7] = 0\n 64648: u8 [a0 + 6] = 0\n 64651: u8 [a0 + 5] = 0\n 64654: u8 [a0 + 4] = 0\n 64657: u8 [a0 + 3] = 0\n 64660: u8 [a0 + 2] = 0\n 64663: u8 [a0 + 1] = 0\n 64666: u8 [a0 + 0] = 0\n 64668: a1 = 0x40\n 64671: a0 = 0\n 64673: ra = 746, jump @0\n      : @862 [@dyn 373] (gas: 27)\n 64680: i32 a0 = a0 + 0\n 64682: i32 a2 = s1 + 0x460\n 64686: a1 = 0x40\n 64689: ecalli 8 // 'hash_keccak_256'\n 64691: a0 = u64 [s1 + 0x478]\n 64695: a1 = u64 [s1 + 0x470]\n 64699: a2 = u64 [s1 + 0x468]\n 64703: a3 = u64 [s1 + 0x460]\n 64707: a4 = reverse a0\n 64709: a0 = reverse a1\n 64711: a1 = reverse a2\n 64713: a2 = reverse a3\n 64715: a3 = u64 [s1 + 0x90]\n 64719: u64 [s1 + 0x2f8] = a3\n 64723: a3 = u64 [s1 + 0x98]\n 64727: u64 [s1 + 0x2f0] = a3\n 64731: a3 = u64 [s1 + 0x110]\n 64735: u64 [s1 + 0x2e8] = a3\n 64739: a3 = u64 [s1 + 0x118]\n 64743: u64 [s1 + 0x2e0] = a3\n 64747: u64 [s1 + 0x318] = a2\n 64751: u64 [s1 + 0x310] = a1\n 64755: u64 [s1 + 0x308] = a0\n 64759: a0 = s1 + 0x300\n 64763: a1 = s1 + 0x2e0\n 64767: u64 [s1 + 0x300] = a4\n 64771: ra = 748, jump @803\n      : @863 [@dyn 374] (gas: 30)\n 64777: i32 a0 = s1 + 0x400\n 64781: ecalli 4 // 'caller'\n 64783: a0 = u32 [s1 + 0x410]\n 64787: u64 [s1 + 0x28] = a0\n 64790: a0 = u64 [s1 + 0x408]\n 64794: u64 [s1 + 0x20] = a0\n 64797: a0 = u64 [s1 + 0x400]\n 64801: u64 [s1 + 0x108] = a0\n 64805: a0 = sp + 0xffffffffffffffe0\n 64808: a0 = a0 & 0xffffffffffffffe0\n 64811: u64 [s1 + 0x118] = a0\n 64815: sp = a0\n 64817: u64 [a0 + 24] = 0\n 64820: u64 [a0 + 16] = 0\n 64823: u64 [a0 + 8] = 0\n 64826: u64 [a0 + 0] = 0\n 64828: i32 a0 = a0 + 0\n 64830: ecalli 14 // 'value_transferred'\n 64832: a1 = u64 [s1 + 0x118]\n 64836: a0 = u64 [a1]\n 64838: u64 [s1 + 0xe0] = a0\n 64842: a0 = u64 [a1 + 0x8]\n 64845: u64 [s1 + 0x98] = a0\n 64849: a0 = u64 [a1 + 0x10]\n 64852: u64 [s1 + 0x90] = a0\n 64856: a0 = u64 [a1 + 0x18]\n 64859: u64 [s1 + 0x68] = a0\n 64862: a0 = 0x40\n 64865: a1 = 0x20\n 64868: ra = 750, jump @0\n      : @864 [@dyn 375] (gas: 139)\n 64875: a1 = u8 [a0 + 0x1]\n 64878: a2 = u8 [a0]\n 64880: a3 = u8 [a0 + 0x2]\n 64883: a4 = u8 [a0 + 0x3]\n 64886: a1 = a1 << 0x8\n 64889: a1 = a1 | a2\n 64892: a3 = a3 << 0x10\n 64895: a4 = a4 << 0x18\n 64898: a3 = a3 | a4\n 64901: a1 = a1 | a3\n 64904: a2 = u8 [a0 + 0x5]\n 64907: a3 = u8 [a0 + 0x4]\n 64910: a4 = u8 [a0 + 0x6]\n 64913: a5 = u8 [a0 + 0x7]\n 64916: a2 = a2 << 0x8\n 64919: a2 = a2 | a3\n 64922: a4 = a4 << 0x10\n 64925: a5 = a5 << 0x18\n 64928: a4 = a4 | a5\n 64931: a2 = a2 | a4\n 64934: a2 = a2 << 0x20\n 64937: t0 = a2 | a1\n 64940: a2 = u8 [a0 + 0x9]\n 64943: a3 = u8 [a0 + 0x8]\n 64946: a4 = u8 [a0 + 0xa]\n 64949: a5 = u8 [a0 + 0xb]\n 64952: a2 = a2 << 0x8\n 64955: a2 = a2 | a3\n 64958: a4 = a4 << 0x10\n 64961: a5 = a5 << 0x18\n 64964: a4 = a4 | a5\n 64967: a2 = a2 | a4\n 64970: a3 = u8 [a0 + 0xd]\n 64973: a4 = u8 [a0 + 0xc]\n 64976: a5 = u8 [a0 + 0xe]\n 64979: a1 = u8 [a0 + 0xf]\n 64982: a3 = a3 << 0x8\n 64985: a3 = a3 | a4\n 64988: a5 = a5 << 0x10\n 64991: a1 = a1 << 0x18\n 64994: a1 = a1 | a5\n 64997: a1 = a1 | a3\n 65000: a1 = a1 << 0x20\n 65003: t1 = a1 | a2\n 65006: a1 = u8 [a0 + 0x11]\n 65009: a3 = u8 [a0 + 0x10]\n 65012: a4 = u8 [a0 + 0x12]\n 65015: a5 = u8 [a0 + 0x13]\n 65018: a1 = a1 << 0x8\n 65021: a1 = a1 | a3\n 65024: a4 = a4 << 0x10\n 65027: a5 = a5 << 0x18\n 65030: a4 = a4 | a5\n 65033: a1 = a1 | a4\n 65036: a3 = u8 [a0 + 0x15]\n 65039: a4 = u8 [a0 + 0x14]\n 65042: a5 = u8 [a0 + 0x16]\n 65045: a2 = u8 [a0 + 0x17]\n 65048: a3 = a3 << 0x8\n 65051: a3 = a3 | a4\n 65054: a5 = a5 << 0x10\n 65057: a2 = a2 << 0x18\n 65060: a2 = a2 | a5\n 65063: a2 = a2 | a3\n 65066: a2 = a2 << 0x20\n 65069: a3 = a2 | a1\n 65072: a1 = u8 [a0 + 0x19]\n 65075: a2 = u8 [a0 + 0x18]\n 65078: a4 = u8 [a0 + 0x1a]\n 65081: a5 = u8 [a0 + 0x1b]\n 65084: a1 = a1 << 0x8\n 65087: a1 = a1 | a2\n 65090: a4 = a4 << 0x10\n 65093: a5 = a5 << 0x18\n 65096: a4 = a4 | a5\n 65099: a1 = a1 | a4\n 65102: a2 = u8 [a0 + 0x1d]\n 65105: a4 = u8 [a0 + 0x1c]\n 65108: a5 = u8 [a0 + 0x1e]\n 65111: a0 = u8 [a0 + 0x1f]\n 65114: a2 = a2 << 0x8\n 65117: a2 = a2 | a4\n 65120: a5 = a5 << 0x10\n 65123: a0 = a0 << 0x18\n 65126: a0 = a0 | a5\n 65129: a0 = a0 | a2\n 65132: a0 = a0 << 0x20\n 65135: a0 = a0 | a1\n 65138: t2 = reverse a0\n 65140: u64 [s1 + 0x118] = t2\n 65144: a2 = reverse a3\n 65146: u64 [s1 + 0x58] = a2\n 65149: a1 = reverse t1\n 65151: u64 [s1 + 0x60] = a1\n 65154: a3 = reverse t0\n 65156: u64 [s1 + 0x110] = a3\n 65160: a0 = u64 [s1 + 0xc8]\n 65164: u64 [s1 + 0x238] = a0\n 65168: a0 = u64 [s1 + 0xd0]\n 65172: u64 [s1 + 0x230] = a0\n 65176: a0 = u64 [s1 + 0xc0]\n 65180: u64 [s1 + 0x228] = a0\n 65184: a0 = u64 [s1 + 0xd8]\n 65188: u64 [s1 + 0x220] = a0\n 65192: a0 = u64 [s1 + 0xa0]\n 65196: u64 [s1 + 0x258] = a0\n 65200: a0 = u64 [s1 + 0xa8]\n 65204: u64 [s1 + 0x250] = a0\n 65208: a0 = u64 [s1 + 0xb0]\n 65212: u64 [s1 + 0x248] = a0\n 65216: a0 = u64 [s1 + 0xb8]\n 65220: u64 [s1 + 0x240] = a0\n 65224: a0 = u64 [s1 + 0x68]\n 65227: u64 [s1 + 0x278] = a0\n 65231: a0 = u64 [s1 + 0x90]\n 65235: u64 [s1 + 0x270] = a0\n 65239: a0 = u64 [s1 + 0x98]\n 65243: u64 [s1 + 0x268] = a0\n 65247: a0 = u64 [s1 + 0xe0]\n 65251: u64 [s1 + 0x260] = a0\n 65255: a0 = u64 [s1 + 0xe8]\n 65259: u64 [s1 + 0x298] = a0\n 65263: a0 = u64 [s1 + 0x100]\n 65267: u64 [s1 + 0x290] = a0\n 65271: a0 = u64 [s1 + 0xf0]\n 65275: u64 [s1 + 0x288] = a0\n 65279: a0 = u64 [s1 + 0xf8]\n 65283: u64 [s1 + 0x280] = a0\n 65287: u64 [s1 + 0x2b8] = a3\n 65291: u64 [s1 + 0x2b0] = a1\n 65295: u64 [s1 + 0x2a8] = a2\n 65299: a0 = s1 + 0x2c0\n 65303: a1 = s1 + 0x2a0\n 65307: a2 = s1 + 0x280\n 65311: a3 = s1 + 0x260\n 65315: a4 = s1 + 0x240\n 65319: a5 = s1 + 0x220\n 65323: u64 [s1 + 0x2a0] = t2\n 65327: ra = 752, jump @819\n      : @865 [@dyn 376] (gas: 12)\n 65333: a2 = u64 [s1 + 0x58]\n 65336: a0 = u64 [s1 + 0x110]\n 65340: a0 = a0 | a2\n 65343: a3 = u64 [s1 + 0x60]\n 65346: a1 = u64 [s1 + 0x118]\n 65350: a1 = a1 | a3\n 65353: a1 = a1 | a0\n 65356: a1 = a1 >> 0x20\n 65359: a0 = a0 | a3\n 65362: a0 = a0 << 0x20\n 65365: a0 = a0 | a1\n 65368: jump @885 if a0 != 0\n      : @866 (gas: 33)\n 65372: ra = a3\n 65374: a0 = u64 [s1 + 0x2c8]\n 65378: a1 = u64 [s1 + 0x2d8]\n 65382: u64 [s1 + 0x100] = a1\n 65386: t2 = u64 [s1 + 0x2c0]\n 65390: a3 = u64 [s1 + 0x2d0]\n 65394: a4 = a0 ^ a2\n 65397: a5 = a0 <u a2\n 65400: t0 = u64 [s1 + 0x118]\n 65404: a1 = t2 <u t0\n 65407: a5 = a1 if a4 == 0\n 65410: a4 = a3 - ra\n 65413: t1 = a4 - a5\n 65416: a4 = a4 <u a5\n 65419: u64 [s1 + 0xf8] = a4\n 65423: a3 = a3 <u ra\n 65426: a5 = u64 [s1 + 0x110]\n 65430: a4 = u64 [s1 + 0x100]\n 65434: a5 = a4 - a5\n 65437: a5 = a5 - a3\n 65440: a3 = u64 [s1 + 0xf8]\n 65444: a5 = a5 - a3\n 65447: a0 = a0 - a2\n 65450: a0 = a0 - a1\n 65453: a1 = t2 - t0\n 65456: a0 = a0 | a5\n 65459: a3 = a1 | t1\n 65462: a3 = a3 | a0\n 65465: a0 = a0 | t1\n 65468: a3 = a3 >> 0x20\n 65471: a0 = a0 << 0x20\n 65474: a0 = a0 | a3\n 65477: jump @885 if a0 != 0\n      : @867 (gas: 18)\n 65481: a0 = u64 [s1 + 0x108]\n 65485: a0 = reverse a0\n 65487: a0 = a0 << 0x20\n 65490: a2 = u64 [s1 + 0x20]\n 65493: a2 = reverse a2\n 65495: a3 = a2 >> 0x20\n 65498: a0 = a0 | a3\n 65501: u64 [s1 + 0x110] = a0\n 65505: a2 = a2 << 0x20\n 65508: a0 = u64 [s1 + 0x28]\n 65511: a0 = reverse a0\n 65513: a0 = a0 >> 0x20\n 65516: a0 = a0 | a2\n 65519: u64 [s1 + 0x100] = a0\n 65523: a0 = i32 [s1 + 0x118]\n 65527: i32 a1 = a1 + 0\n 65529: u64 [s1 + 0x118] = a1\n 65533: ra = 754, jump @0\n      : @868 [@dyn 377] (gas: 46)\n 65540: a1 = u64 [0x20060]\n 65545: a2 = u64 [0x20068]\n 65550: a3 = u64 [0x20070]\n 65555: a4 = u64 [0x20078]\n 65560: u64 [s1 + 0x478] = a1\n 65564: u64 [s1 + 0x470] = a2\n 65568: u64 [s1 + 0x468] = a3\n 65572: u64 [s1 + 0x460] = a4\n 65576: a1 = u64 [s1 + 0x30]\n 65579: u64 [s1 + 0x490] = a1\n 65583: a1 = u64 [s1 + 0x48]\n 65586: u64 [s1 + 0x488] = a1\n 65590: a1 = u64 [s1 + 0x50]\n 65593: u64 [s1 + 0x480] = a1\n 65597: a1 = u64 [s1 + 0x40]\n 65600: u64 [s1 + 0x498] = a1\n 65604: a1 = u64 [s1 + 0x100]\n 65608: a1 = reverse a1\n 65610: a2 = u64 [s1 + 0x110]\n 65614: a2 = reverse a2\n 65616: a3 = u64 [s1 + 0x108]\n 65620: a3 = a3 << 0x20\n 65623: u64 [s1 + 0x4a8] = a3\n 65627: u64 [s1 + 1184] = 0\n 65631: u64 [s1 + 0x4b0] = a2\n 65635: u64 [s1 + 0x4b8] = a1\n 65639: i32 a2 = a0 + 0\n 65641: i32 a0 = s1 + 0x460\n 65645: a1 = 0x3\n 65648: a3 = u64 [s1 + 0x118]\n 65652: ecalli 5 // 'deposit_event'\n 65654: a0 = u64 [s1 + 0x38]\n 65657: a1 = u64 [s1 + 0x78]\n 65660: u64 [a0 + 0x18] = a1\n 65663: a1 = u64 [s1 + 0x70]\n 65666: u64 [a0 + 0x10] = a1\n 65669: a1 = u64 [s1 + 0x80]\n 65673: u64 [a0 + 0x8] = a1\n 65676: a1 = u64 [s1 + 0x88]\n 65680: u64 [a0] = a1\n 65682: sp = s0 + 0xfffffffffffffb20\n 65686: ra = u64 [sp + 0x4d8]\n 65690: s0 = u64 [sp + 0x4d0]\n 65694: s1 = u64 [sp + 0x4c8]\n 65698: sp = sp + 0x4e0\n 65702: ret\n      : @869 (gas: 3)\n 65704: a0 = 0x40\n 65707: a1 = 0x20\n 65710: ra = 756, jump @0\n      : @870 [@dyn 378] (gas: 104)\n 65717: a1 = u8 [a0 + 0x11]\n 65720: a2 = u8 [a0 + 0x10]\n 65723: a3 = u8 [a0 + 0x12]\n 65726: a4 = u8 [a0 + 0x13]\n 65729: a1 = a1 << 0x8\n 65732: a1 = a1 | a2\n 65735: a3 = a3 << 0x10\n 65738: a4 = a4 << 0x18\n 65741: a3 = a3 | a4\n 65744: a1 = a1 | a3\n 65747: a2 = u8 [a0 + 0x15]\n 65750: a3 = u8 [a0 + 0x14]\n 65753: a4 = u8 [a0 + 0x16]\n 65756: a5 = u8 [a0 + 0x17]\n 65759: a2 = a2 << 0x8\n 65762: a2 = a2 | a3\n 65765: a4 = a4 << 0x10\n 65768: a5 = a5 << 0x18\n 65771: a4 = a4 | a5\n 65774: a2 = a2 | a4\n 65777: a2 = a2 << 0x20\n 65780: t0 = a2 | a1\n 65783: a2 = u8 [a0 + 0x1]\n 65786: a3 = u8 [a0]\n 65788: a4 = u8 [a0 + 0x2]\n 65791: a5 = u8 [a0 + 0x3]\n 65794: a2 = a2 << 0x8\n 65797: a2 = a2 | a3\n 65800: a4 = a4 << 0x10\n 65803: a5 = a5 << 0x18\n 65806: a4 = a4 | a5\n 65809: a2 = a2 | a4\n 65812: a3 = u8 [a0 + 0x5]\n 65815: a4 = u8 [a0 + 0x4]\n 65818: a5 = u8 [a0 + 0x6]\n 65821: a1 = u8 [a0 + 0x7]\n 65824: a3 = a3 << 0x8\n 65827: a3 = a3 | a4\n 65830: a5 = a5 << 0x10\n 65833: a1 = a1 << 0x18\n 65836: a1 = a1 | a5\n 65839: a1 = a1 | a3\n 65842: a1 = a1 << 0x20\n 65845: t1 = a1 | a2\n 65848: a1 = u8 [a0 + 0x19]\n 65851: a3 = u8 [a0 + 0x18]\n 65854: a4 = u8 [a0 + 0x1a]\n 65857: a5 = u8 [a0 + 0x1b]\n 65860: a1 = a1 << 0x8\n 65863: a1 = a1 | a3\n 65866: a4 = a4 << 0x10\n 65869: a5 = a5 << 0x18\n 65872: a4 = a4 | a5\n 65875: a1 = a1 | a4\n 65878: a3 = u8 [a0 + 0x1d]\n 65881: a4 = u8 [a0 + 0x1c]\n 65884: a5 = u8 [a0 + 0x1e]\n 65887: a2 = u8 [a0 + 0x1f]\n 65890: a3 = a3 << 0x8\n 65893: a3 = a3 | a4\n 65896: a5 = a5 << 0x10\n 65899: a2 = a2 << 0x18\n 65902: a2 = a2 | a5\n 65905: a2 = a2 | a3\n 65908: a2 = a2 << 0x20\n 65911: a3 = a2 | a1\n 65914: a1 = u8 [a0 + 0x9]\n 65917: a2 = u8 [a0 + 0x8]\n 65920: a4 = u8 [a0 + 0xa]\n 65923: a5 = u8 [a0 + 0xb]\n 65926: a1 = a1 << 0x8\n 65929: a1 = a1 | a2\n 65932: a4 = a4 << 0x10\n 65935: a5 = a5 << 0x18\n 65938: a4 = a4 | a5\n 65941: a1 = a1 | a4\n 65944: a2 = u8 [a0 + 0xd]\n 65947: a4 = u8 [a0 + 0xc]\n 65950: a5 = u8 [a0 + 0xe]\n 65953: a0 = u8 [a0 + 0xf]\n 65956: a2 = a2 << 0x8\n 65959: a2 = a2 | a4\n 65962: a5 = a5 << 0x10\n 65965: a0 = a0 << 0x18\n 65968: a0 = a0 | a5\n 65971: a0 = a0 | a2\n 65974: a0 = a0 << 0x20\n 65977: a0 = a0 | a1\n 65980: a4 = reverse a0\n 65982: a1 = reverse a3\n 65984: a2 = reverse t1\n 65986: a0 = reverse t0\n 65988: u64 [s1 + 0x118] = a0\n 65992: u64 [s1 + 0x108] = a2\n 65996: a0 = a0 | a2\n 65999: a2 = a1\n 66001: a1 = a1 | a4\n 66004: a1 = a1 | a0\n 66007: a1 = a1 >> 0x20\n 66010: u64 [s1 + 0x110] = a4\n 66014: a0 = a0 | a4\n 66017: a0 = a0 << 0x20\n 66020: a0 = a0 | a1\n 66023: jump @885 if a0 != 0\n      : @871 (gas: 5)\n 66027: u64 [s1 + 0x100] = a2\n 66031: i32 a0 = a2 + 0\n 66033: a1 = 0x20\n 66036: u64 [s1 + 0xf8] = a0\n 66040: ra = 758, jump @0\n      : @872 [@dyn 379] (gas: 51)\n 66047: u8 [a0 + 31] = 0\n 66050: u8 [a0 + 30] = 0\n 66053: u8 [a0 + 29] = 0\n 66056: u8 [a0 + 28] = 0\n 66059: u8 [a0 + 27] = 0\n 66062: u8 [a0 + 26] = 0\n 66065: u8 [a0 + 25] = 0\n 66068: u8 [a0 + 24] = 0\n 66071: u8 [a0 + 23] = 0\n 66074: u8 [a0 + 22] = 0\n 66077: u8 [a0 + 21] = 0\n 66080: u8 [a0 + 20] = 0\n 66083: u8 [a0 + 19] = 0\n 66086: u8 [a0 + 18] = 0\n 66089: u8 [a0 + 17] = 0\n 66092: u8 [a0 + 16] = 0\n 66095: u8 [a0 + 15] = 0\n 66098: u8 [a0 + 14] = 0\n 66101: u8 [a0 + 13] = 0\n 66104: u8 [a0 + 12] = 0\n 66107: u8 [a0 + 11] = 0\n 66110: u8 [a0 + 10] = 0\n 66113: u8 [a0 + 9] = 0\n 66116: u8 [a0 + 8] = 0\n 66119: u8 [a0 + 7] = 0\n 66122: u8 [a0 + 6] = 0\n 66125: u8 [a0 + 5] = 0\n 66128: u8 [a0 + 4] = 0\n 66131: u8 [a0 + 3] = 0xa0\n 66136: u8 [a0 + 2] = 0x79\n 66140: u8 [a0 + 1] = 0xc3\n 66145: u8 [a0 + 0] = 0x8\n 66148: a1 = u64 [s1 + 0x100]\n 66152: a0 = a1 + 0x4\n 66155: a1 = a0 <u a1\n 66158: a3 = u64 [s1 + 0x118]\n 66162: a2 = a3 + a1\n 66165: a3 = a2 <u a3\n 66168: a3 = a1 if a1 == 0\n 66171: a1 = u64 [s1 + 0x110]\n 66175: a3 = a3 + a1\n 66178: a1 = a3 <u a1\n 66181: a4 = u64 [s1 + 0x108]\n 66185: a4 = a4 + a1\n 66188: u64 [s1 + 0x128] = a2\n 66192: u64 [s1 + 0x120] = a0\n 66196: u64 [s1 + 0x130] = a3\n 66200: a0 = s1 + 0x140\n 66204: a1 = s1 + 0x120\n 66208: u64 [s1 + 0x138] = a4\n 66212: ra = 760, jump @709\n      : @873 [@dyn 380] (gas: 5)\n 66218: a0 = u64 [s1 + 0x148]\n 66222: t0 = u64 [s1 + 0x158]\n 66226: t1 = u64 [s1 + 0x140]\n 66230: a3 = u64 [s1 + 0x150]\n 66234: jump @884\n      : @874 (gas: 3)\n 66237: a0 = 0x40\n 66240: a1 = 0x20\n 66243: ra = 762, jump @0\n      : @875 [@dyn 381] (gas: 104)\n 66250: a1 = u8 [a0 + 0x11]\n 66253: a2 = u8 [a0 + 0x10]\n 66256: a3 = u8 [a0 + 0x12]\n 66259: a4 = u8 [a0 + 0x13]\n 66262: a1 = a1 << 0x8\n 66265: a1 = a1 | a2\n 66268: a3 = a3 << 0x10\n 66271: a4 = a4 << 0x18\n 66274: a3 = a3 | a4\n 66277: a1 = a1 | a3\n 66280: a2 = u8 [a0 + 0x15]\n 66283: a3 = u8 [a0 + 0x14]\n 66286: a4 = u8 [a0 + 0x16]\n 66289: a5 = u8 [a0 + 0x17]\n 66292: a2 = a2 << 0x8\n 66295: a2 = a2 | a3\n 66298: a4 = a4 << 0x10\n 66301: a5 = a5 << 0x18\n 66304: a4 = a4 | a5\n 66307: a2 = a2 | a4\n 66310: a2 = a2 << 0x20\n 66313: t0 = a2 | a1\n 66316: a2 = u8 [a0 + 0x1]\n 66319: a3 = u8 [a0]\n 66321: a4 = u8 [a0 + 0x2]\n 66324: a5 = u8 [a0 + 0x3]\n 66327: a2 = a2 << 0x8\n 66330: a2 = a2 | a3\n 66333: a4 = a4 << 0x10\n 66336: a5 = a5 << 0x18\n 66339: a4 = a4 | a5\n 66342: a2 = a2 | a4\n 66345: a3 = u8 [a0 + 0x5]\n 66348: a4 = u8 [a0 + 0x4]\n 66351: a5 = u8 [a0 + 0x6]\n 66354: a1 = u8 [a0 + 0x7]\n 66357: a3 = a3 << 0x8\n 66360: a3 = a3 | a4\n 66363: a5 = a5 << 0x10\n 66366: a1 = a1 << 0x18\n 66369: a1 = a1 | a5\n 66372: a1 = a1 | a3\n 66375: a1 = a1 << 0x20\n 66378: t1 = a1 | a2\n 66381: a1 = u8 [a0 + 0x19]\n 66384: a3 = u8 [a0 + 0x18]\n 66387: a4 = u8 [a0 + 0x1a]\n 66390: a5 = u8 [a0 + 0x1b]\n 66393: a1 = a1 << 0x8\n 66396: a1 = a1 | a3\n 66399: a4 = a4 << 0x10\n 66402: a5 = a5 << 0x18\n 66405: a4 = a4 | a5\n 66408: a1 = a1 | a4\n 66411: a3 = u8 [a0 + 0x1d]\n 66414: a4 = u8 [a0 + 0x1c]\n 66417: a5 = u8 [a0 + 0x1e]\n 66420: a2 = u8 [a0 + 0x1f]\n 66423: a3 = a3 << 0x8\n 66426: a3 = a3 | a4\n 66429: a5 = a5 << 0x10\n 66432: a2 = a2 << 0x18\n 66435: a2 = a2 | a5\n 66438: a2 = a2 | a3\n 66441: a2 = a2 << 0x20\n 66444: a3 = a2 | a1\n 66447: a1 = u8 [a0 + 0x9]\n 66450: a2 = u8 [a0 + 0x8]\n 66453: a4 = u8 [a0 + 0xa]\n 66456: a5 = u8 [a0 + 0xb]\n 66459: a1 = a1 << 0x8\n 66462: a1 = a1 | a2\n 66465: a4 = a4 << 0x10\n 66468: a5 = a5 << 0x18\n 66471: a4 = a4 | a5\n 66474: a1 = a1 | a4\n 66477: a2 = u8 [a0 + 0xd]\n 66480: a4 = u8 [a0 + 0xc]\n 66483: a5 = u8 [a0 + 0xe]\n 66486: a0 = u8 [a0 + 0xf]\n 66489: a2 = a2 << 0x8\n 66492: a2 = a2 | a4\n 66495: a5 = a5 << 0x10\n 66498: a0 = a0 << 0x18\n 66501: a0 = a0 | a5\n 66504: a0 = a0 | a2\n 66507: a0 = a0 << 0x20\n 66510: a0 = a0 | a1\n 66513: a4 = reverse a0\n 66515: a1 = reverse a3\n 66517: a2 = reverse t1\n 66519: a0 = reverse t0\n 66521: u64 [s1 + 0x118] = a0\n 66525: u64 [s1 + 0x108] = a2\n 66529: a0 = a0 | a2\n 66532: a2 = a1\n 66534: a1 = a1 | a4\n 66537: a1 = a1 | a0\n 66540: a1 = a1 >> 0x20\n 66543: u64 [s1 + 0x110] = a4\n 66547: a0 = a0 | a4\n 66550: a0 = a0 << 0x20\n 66553: a0 = a0 | a1\n 66556: jump @885 if a0 != 0\n      : @876 (gas: 5)\n 66560: u64 [s1 + 0x100] = a2\n 66564: i32 a0 = a2 + 0\n 66566: a1 = 0x20\n 66569: u64 [s1 + 0xf8] = a0\n 66573: ra = 764, jump @0\n      : @877 [@dyn 382] (gas: 51)\n 66580: u8 [a0 + 31] = 0\n 66583: u8 [a0 + 30] = 0\n 66586: u8 [a0 + 29] = 0\n 66589: u8 [a0 + 28] = 0\n 66592: u8 [a0 + 27] = 0\n 66595: u8 [a0 + 26] = 0\n 66598: u8 [a0 + 25] = 0\n 66601: u8 [a0 + 24] = 0\n 66604: u8 [a0 + 23] = 0\n 66607: u8 [a0 + 22] = 0\n 66610: u8 [a0 + 21] = 0\n 66613: u8 [a0 + 20] = 0\n 66616: u8 [a0 + 19] = 0\n 66619: u8 [a0 + 18] = 0\n 66622: u8 [a0 + 17] = 0\n 66625: u8 [a0 + 16] = 0\n 66628: u8 [a0 + 15] = 0\n 66631: u8 [a0 + 14] = 0\n 66634: u8 [a0 + 13] = 0\n 66637: u8 [a0 + 12] = 0\n 66640: u8 [a0 + 11] = 0\n 66643: u8 [a0 + 10] = 0\n 66646: u8 [a0 + 9] = 0\n 66649: u8 [a0 + 8] = 0\n 66652: u8 [a0 + 7] = 0\n 66655: u8 [a0 + 6] = 0\n 66658: u8 [a0 + 5] = 0\n 66661: u8 [a0 + 4] = 0\n 66664: u8 [a0 + 3] = 0xa0\n 66669: u8 [a0 + 2] = 0x79\n 66673: u8 [a0 + 1] = 0xc3\n 66678: u8 [a0 + 0] = 0x8\n 66681: a1 = u64 [s1 + 0x100]\n 66685: a0 = a1 + 0x4\n 66688: a1 = a0 <u a1\n 66691: a3 = u64 [s1 + 0x118]\n 66695: a2 = a3 + a1\n 66698: a3 = a2 <u a3\n 66701: a3 = a1 if a1 == 0\n 66704: a1 = u64 [s1 + 0x110]\n 66708: a3 = a3 + a1\n 66711: a1 = a3 <u a1\n 66714: a4 = u64 [s1 + 0x108]\n 66718: a4 = a4 + a1\n 66721: u64 [s1 + 0x168] = a2\n 66725: u64 [s1 + 0x160] = a0\n 66729: u64 [s1 + 0x170] = a3\n 66733: a0 = s1 + 0x180\n 66737: a1 = s1 + 0x160\n 66741: u64 [s1 + 0x178] = a4\n 66745: ra = 766, jump @717\n      : @878 [@dyn 383] (gas: 5)\n 66751: a0 = u64 [s1 + 0x188]\n 66755: t0 = u64 [s1 + 0x198]\n 66759: t1 = u64 [s1 + 0x180]\n 66763: a3 = u64 [s1 + 0x190]\n 66767: jump @884\n      : @879 (gas: 3)\n 66770: a0 = 0x40\n 66773: a1 = 0x20\n 66776: ra = 768, jump @0\n      : @880 [@dyn 384] (gas: 104)\n 66783: a1 = u8 [a0 + 0x11]\n 66786: a2 = u8 [a0 + 0x10]\n 66789: a3 = u8 [a0 + 0x12]\n 66792: a4 = u8 [a0 + 0x13]\n 66795: a1 = a1 << 0x8\n 66798: a1 = a1 | a2\n 66801: a3 = a3 << 0x10\n 66804: a4 = a4 << 0x18\n 66807: a3 = a3 | a4\n 66810: a1 = a1 | a3\n 66813: a2 = u8 [a0 + 0x15]\n 66816: a3 = u8 [a0 + 0x14]\n 66819: a4 = u8 [a0 + 0x16]\n 66822: a5 = u8 [a0 + 0x17]\n 66825: a2 = a2 << 0x8\n 66828: a2 = a2 | a3\n 66831: a4 = a4 << 0x10\n 66834: a5 = a5 << 0x18\n 66837: a4 = a4 | a5\n 66840: a2 = a2 | a4\n 66843: a2 = a2 << 0x20\n 66846: t0 = a2 | a1\n 66849: a2 = u8 [a0 + 0x1]\n 66852: a3 = u8 [a0]\n 66854: a4 = u8 [a0 + 0x2]\n 66857: a5 = u8 [a0 + 0x3]\n 66860: a2 = a2 << 0x8\n 66863: a2 = a2 | a3\n 66866: a4 = a4 << 0x10\n 66869: a5 = a5 << 0x18\n 66872: a4 = a4 | a5\n 66875: a2 = a2 | a4\n 66878: a3 = u8 [a0 + 0x5]\n 66881: a4 = u8 [a0 + 0x4]\n 66884: a5 = u8 [a0 + 0x6]\n 66887: a1 = u8 [a0 + 0x7]\n 66890: a3 = a3 << 0x8\n 66893: a3 = a3 | a4\n 66896: a5 = a5 << 0x10\n 66899: a1 = a1 << 0x18\n 66902: a1 = a1 | a5\n 66905: a1 = a1 | a3\n 66908: a1 = a1 << 0x20\n 66911: t1 = a1 | a2\n 66914: a1 = u8 [a0 + 0x19]\n 66917: a3 = u8 [a0 + 0x18]\n 66920: a4 = u8 [a0 + 0x1a]\n 66923: a5 = u8 [a0 + 0x1b]\n 66926: a1 = a1 << 0x8\n 66929: a1 = a1 | a3\n 66932: a4 = a4 << 0x10\n 66935: a5 = a5 << 0x18\n 66938: a4 = a4 | a5\n 66941: a1 = a1 | a4\n 66944: a3 = u8 [a0 + 0x1d]\n 66947: a4 = u8 [a0 + 0x1c]\n 66950: a5 = u8 [a0 + 0x1e]\n 66953: a2 = u8 [a0 + 0x1f]\n 66956: a3 = a3 << 0x8\n 66959: a3 = a3 | a4\n 66962: a5 = a5 << 0x10\n 66965: a2 = a2 << 0x18\n 66968: a2 = a2 | a5\n 66971: a2 = a2 | a3\n 66974: a2 = a2 << 0x20\n 66977: a3 = a2 | a1\n 66980: a1 = u8 [a0 + 0x9]\n 66983: a2 = u8 [a0 + 0x8]\n 66986: a4 = u8 [a0 + 0xa]\n 66989: a5 = u8 [a0 + 0xb]\n 66992: a1 = a1 << 0x8\n 66995: a1 = a1 | a2\n 66998: a4 = a4 << 0x10\n 67001: a5 = a5 << 0x18\n 67004: a4 = a4 | a5\n 67007: a1 = a1 | a4\n 67010: a2 = u8 [a0 + 0xd]\n 67013: a4 = u8 [a0 + 0xc]\n 67016: a5 = u8 [a0 + 0xe]\n 67019: a0 = u8 [a0 + 0xf]\n 67022: a2 = a2 << 0x8\n 67025: a2 = a2 | a4\n 67028: a5 = a5 << 0x10\n 67031: a0 = a0 << 0x18\n 67034: a0 = a0 | a5\n 67037: a0 = a0 | a2\n 67040: a0 = a0 << 0x20\n 67043: a0 = a0 | a1\n 67046: a4 = reverse a0\n 67048: a1 = reverse a3\n 67050: a2 = reverse t1\n 67052: a0 = reverse t0\n 67054: u64 [s1 + 0x118] = a0\n 67058: u64 [s1 + 0x108] = a2\n 67062: a0 = a0 | a2\n 67065: a2 = a1\n 67067: a1 = a1 | a4\n 67070: a1 = a1 | a0\n 67073: a1 = a1 >> 0x20\n 67076: u64 [s1 + 0x110] = a4\n 67080: a0 = a0 | a4\n 67083: a0 = a0 << 0x20\n 67086: a0 = a0 | a1\n 67089: jump @885 if a0 != 0\n      : @881 (gas: 5)\n 67093: u64 [s1 + 0x100] = a2\n 67097: i32 a0 = a2 + 0\n 67099: a1 = 0x20\n 67102: u64 [s1 + 0xf8] = a0\n 67106: ra = 770, jump @0\n      : @882 [@dyn 385] (gas: 51)\n 67113: u8 [a0 + 31] = 0\n 67116: u8 [a0 + 30] = 0\n 67119: u8 [a0 + 29] = 0\n 67122: u8 [a0 + 28] = 0\n 67125: u8 [a0 + 27] = 0\n 67128: u8 [a0 + 26] = 0\n 67131: u8 [a0 + 25] = 0\n 67134: u8 [a0 + 24] = 0\n 67137: u8 [a0 + 23] = 0\n 67140: u8 [a0 + 22] = 0\n 67143: u8 [a0 + 21] = 0\n 67146: u8 [a0 + 20] = 0\n 67149: u8 [a0 + 19] = 0\n 67152: u8 [a0 + 18] = 0\n 67155: u8 [a0 + 17] = 0\n 67158: u8 [a0 + 16] = 0\n 67161: u8 [a0 + 15] = 0\n 67164: u8 [a0 + 14] = 0\n 67167: u8 [a0 + 13] = 0\n 67170: u8 [a0 + 12] = 0\n 67173: u8 [a0 + 11] = 0\n 67176: u8 [a0 + 10] = 0\n 67179: u8 [a0 + 9] = 0\n 67182: u8 [a0 + 8] = 0\n 67185: u8 [a0 + 7] = 0\n 67188: u8 [a0 + 6] = 0\n 67191: u8 [a0 + 5] = 0\n 67194: u8 [a0 + 4] = 0\n 67197: u8 [a0 + 3] = 0xa0\n 67202: u8 [a0 + 2] = 0x79\n 67206: u8 [a0 + 1] = 0xc3\n 67211: u8 [a0 + 0] = 0x8\n 67214: a1 = u64 [s1 + 0x100]\n 67218: a0 = a1 + 0x4\n 67221: a1 = a0 <u a1\n 67224: a3 = u64 [s1 + 0x118]\n 67228: a2 = a3 + a1\n 67231: a3 = a2 <u a3\n 67234: a3 = a1 if a1 == 0\n 67237: a1 = u64 [s1 + 0x110]\n 67241: a3 = a3 + a1\n 67244: a1 = a3 <u a1\n 67247: a4 = u64 [s1 + 0x108]\n 67251: a4 = a4 + a1\n 67254: u64 [s1 + 0x1a8] = a2\n 67258: u64 [s1 + 0x1a0] = a0\n 67262: u64 [s1 + 0x1b0] = a3\n 67266: a0 = s1 + 0x1c0\n 67270: a1 = s1 + 0x1a0\n 67274: u64 [s1 + 0x1b8] = a4\n 67278: ra = 772, jump @725\n      : @883 [@dyn 386] (gas: 5)\n 67284: a0 = u64 [s1 + 0x1c8]\n 67288: t0 = u64 [s1 + 0x1d8]\n 67292: t1 = u64 [s1 + 0x1c0]\n 67296: a3 = u64 [s1 + 0x1d0]\n 67300: fallthrough\n      : @884 (gas: 27)\n 67301: a1 = u64 [s1 + 0x118]\n 67305: a4 = a0 ^ a1\n 67308: a5 = a0 <u a1\n 67311: ra = a1\n 67313: t2 = u64 [s1 + 0x100]\n 67317: a1 = t1 <u t2\n 67320: a5 = a1 if a4 == 0\n 67323: a2 = u64 [s1 + 0x110]\n 67327: a4 = a3 - a2\n 67330: a3 = a3 <u a2\n 67333: a2 = u64 [s1 + 0x108]\n 67337: a2 = t0 - a2\n 67340: a2 = a2 - a3\n 67343: a3 = a4 <u a5\n 67346: a2 = a2 - a3\n 67349: a4 = a4 - a5\n 67352: a0 = a0 - ra\n 67355: a1 = a0 - a1\n 67358: a0 = t1 - t2\n 67361: a1 = a1 | a2\n 67364: a2 = a0 | a4\n 67367: a2 = a2 | a1\n 67370: a1 = a1 | a4\n 67373: a2 = a2 >> 0x20\n 67376: a1 = a1 << 0x20\n 67379: a1 = a1 | a2\n 67382: jump @890 if a1 == 0\n      : @885 (gas: 1)\n 67385: trap\n      : @886 (gas: 8)\n 67386: u64 [s1 + 528] = 0\n 67390: u64 [s1 + 520] = 0\n 67394: u64 [s1 + 512] = 0\n 67398: a0 = 0x4e487b7100000000\n 67408: a1 = s1 + 0x200\n 67412: u64 [s1 + 0x218] = a0\n 67416: a0 = 0\n 67418: ra = 774, jump @23\n      : @887 [@dyn 387] (gas: 7)\n 67425: u64 [s1 + 504] = 0\n 67429: u64 [s1 + 496] = 0\n 67433: u64 [s1 + 480] = 0x11\n 67438: a0 = 0x4\n 67441: a1 = s1 + 0x1e0\n 67445: u64 [s1 + 488] = 0\n 67449: ra = 776, jump @23\n      : @888 [@dyn 388] (gas: 3)\n 67456: a1 = 0x24\n 67459: a0 = 0\n 67461: ra = 778, jump @0\n      : @889 [@dyn 389] (gas: 5)\n 67468: i32 a1 = a0 + 0\n 67470: a0 = 0x1\n 67473: a2 = 0x24\n 67476: ecalli 11 // 'seal_return'\n 67478: fallthrough\n      : @890 (gas: 4)\n 67479: i32 a1 = a0 + 0\n 67481: u64 [s1 + 0x118] = a1\n 67485: a0 = u64 [s1 + 0xf8]\n 67489: ra = 780, jump @0\n      : @891 [@dyn 390] (gas: 6)\n 67496: i32 a1 = a0 + 0\n 67498: a0 = 0x1\n 67501: a2 = u64 [s1 + 0x118]\n 67505: ra = 0x30e\n 67509: ecalli 11 // 'seal_return'\n 67511: fallthrough\n      : @892 [@dyn 391] (gas: 31)\n 67512: sp = sp + 0xffffffffffffff00\n 67516: u64 [sp + 0xf8] = ra\n 67520: u64 [sp + 0xf0] = s0\n 67524: u64 [sp + 0xe8] = s1\n 67528: s0 = sp + 0x100\n 67532: sp = sp & 0xffffffffffffffe0\n 67535: a1 = u64 [a0 + 0x18]\n 67538: u64 [sp] = a1\n 67540: a1 = u64 [a0 + 0x10]\n 67543: u64 [sp + 0x8] = a1\n 67546: a1 = u64 [a0 + 0x8]\n 67549: u64 [sp + 0x10] = a1\n 67552: a0 = u64 [a0]\n 67554: u64 [sp + 0x18] = a0\n 67557: u64 [sp + 184] = 0\n 67561: u64 [sp + 176] = 0\n 67565: u64 [sp + 168] = 0\n 67569: s1 = 0x3\n 67572: u64 [sp + 0xa0] = s1\n 67576: u64 [sp + 216] = 0\n 67580: u64 [sp + 208] = 0\n 67584: u64 [sp + 200] = 0\n 67588: u64 [sp + 192] = 0\n 67592: u32 [sp + 128] = 0x20\n 67597: i32 a1 = sp + 0xa0\n 67601: i32 a3 = sp + 0xc0\n 67605: i32 a4 = sp + 0x80\n 67609: a2 = 0xffffffffffffffff\n 67612: a0 = 0\n 67614: ecalli 7 // 'get_storage'\n 67616: fallthrough\n      : @893 (gas: 9)\n 67617: a0 = u64 [sp + 0xd8]\n 67621: a1 = u64 [sp + 0xc8]\n 67625: a2 = u64 [sp + 0xc0]\n 67629: a3 = u64 [sp + 0xd0]\n 67633: a0 = a0 | a1\n 67636: a1 = a2 ^ 0x1\n 67639: a1 = a1 | a3\n 67642: a0 = a0 | a1\n 67645: jump @896 if a0 != 0\n      : @894 (gas: 58)\n 67649: u64 [sp + 184] = 0\n 67653: u64 [sp + 176] = 0\n 67657: u64 [sp + 168] = 0\n 67661: u64 [sp + 160] = 0x3\n 67666: u64 [sp + 216] = 0\n 67670: u64 [sp + 208] = 0\n 67674: u64 [sp + 200] = 0\n 67678: u64 [sp + 192] = 0\n 67682: u32 [sp + 128] = 0x20\n 67687: i32 a1 = sp + 0xa0\n 67691: i32 a3 = sp + 0xc0\n 67695: i32 a4 = sp + 0x80\n 67699: a2 = 0xffffffffffffffff\n 67702: a0 = 0\n 67704: ecalli 7 // 'get_storage'\n 67706: u64 [sp + 184] = 0\n 67710: u64 [sp + 176] = 0\n 67714: u64 [sp + 168] = 0\n 67718: u64 [sp + 160] = 0x3\n 67723: u64 [sp + 216] = 0\n 67727: u64 [sp + 208] = 0\n 67731: u64 [sp + 200] = 0\n 67735: u64 [sp + 192] = 0\n 67739: i32 a1 = sp + 0xa0\n 67743: i32 a3 = sp + 0xc0\n 67747: a2 = 0xffffffffffffffff\n 67750: a4 = 0x20\n 67753: a0 = 0\n 67755: ecalli 13 // 'set_storage'\n 67757: a0 = u64 [sp]\n 67759: u64 [sp + 0x38] = a0\n 67762: a0 = u64 [sp + 0x8]\n 67765: u64 [sp + 0x30] = a0\n 67768: a0 = u64 [sp + 0x10]\n 67771: u64 [sp + 0x28] = a0\n 67774: a0 = sp + 0x20\n 67777: a1 = u64 [sp + 0x18]\n 67780: u64 [sp + 0x20] = a1\n 67783: ra = 0x310\n 67787: sp = sp + 0xfffffffffffffc20\n 67791: u64 [sp + 0x3d8] = ra\n 67795: u64 [sp + 0x3d0] = s0\n 67799: u64 [sp + 968] = 0x3\n 67804: s0 = sp + 0x3e0\n 67808: sp = sp & 0xffffffffffffffe0\n 67811: s1 = sp\n 67813: a1 = u64 [a0]\n 67815: u64 [s1 + 0x158] = a1\n 67819: a1 = u64 [a0 + 0x8]\n 67822: u64 [s1 + 0x150] = a1\n 67826: a1 = u64 [a0 + 0x10]\n 67829: u64 [s1 + 0x148] = a1\n 67833: a0 = u64 [a0 + 0x18]\n 67836: u64 [s1 + 0x140] = a0\n 67840: a1 = 0x20\n 67843: a0 = 0\n 67845: ra = 0x33a\n 67849: jump @0\n      : @895 [@dyn 392] (gas: 35)\n 67853: u64 [sp + 184] = 0\n 67857: u64 [sp + 176] = 0\n 67861: u64 [sp + 168] = 0\n 67865: u64 [sp + 0xa0] = s1\n 67869: u64 [sp + 216] = 0\n 67873: u64 [sp + 208] = 0\n 67877: u64 [sp + 200] = 0\n 67881: u64 [sp + 192] = 0\n 67885: u32 [sp + 128] = 0x20\n 67890: i32 a1 = sp + 0xa0\n 67894: i32 a3 = sp + 0xc0\n 67898: i32 a4 = sp + 0x80\n 67902: a2 = 0xffffffffffffffff\n 67905: a0 = 0\n 67907: ecalli 7 // 'get_storage'\n 67909: u64 [sp + 184] = 0\n 67913: u64 [sp + 176] = 0\n 67917: u64 [sp + 168] = 0\n 67921: u64 [sp + 0xa0] = s1\n 67925: u64 [sp + 216] = 0\n 67929: u64 [sp + 208] = 0\n 67933: u64 [sp + 200] = 0\n 67937: u64 [sp + 192] = 0x1\n 67942: i32 a1 = sp + 0xa0\n 67946: i32 a3 = sp + 0xc0\n 67950: a2 = 0xffffffffffffffff\n 67953: a4 = 0x20\n 67956: a0 = 0\n 67958: ecalli 13 // 'set_storage'\n 67960: sp = s0 + 0xffffffffffffff00\n 67964: ra = u64 [sp + 0xf8]\n 67968: s0 = u64 [sp + 0xf0]\n 67972: s1 = u64 [sp + 0xe8]\n 67976: sp = sp + 0x100\n 67980: ret\n      : @896 (gas: 3)\n 67982: a0 = 0x40\n 67985: a1 = 0x20\n 67988: ra = 786, jump @0\n      : @897 [@dyn 393] (gas: 103)\n 67995: a1 = u8 [a0 + 0x11]\n 67998: a2 = u8 [a0 + 0x10]\n 68001: a3 = u8 [a0 + 0x12]\n 68004: a4 = u8 [a0 + 0x13]\n 68007: a1 = a1 << 0x8\n 68010: a1 = a1 | a2\n 68013: a3 = a3 << 0x10\n 68016: a4 = a4 << 0x18\n 68019: a3 = a3 | a4\n 68022: a1 = a1 | a3\n 68025: a2 = u8 [a0 + 0x15]\n 68028: a3 = u8 [a0 + 0x14]\n 68031: a4 = u8 [a0 + 0x16]\n 68034: a5 = u8 [a0 + 0x17]\n 68037: a2 = a2 << 0x8\n 68040: a2 = a2 | a3\n 68043: a4 = a4 << 0x10\n 68046: a5 = a5 << 0x18\n 68049: a4 = a4 | a5\n 68052: a2 = a2 | a4\n 68055: a2 = a2 << 0x20\n 68058: t0 = a2 | a1\n 68061: a2 = u8 [a0 + 0x1]\n 68064: a3 = u8 [a0]\n 68066: a4 = u8 [a0 + 0x2]\n 68069: a5 = u8 [a0 + 0x3]\n 68072: a2 = a2 << 0x8\n 68075: a2 = a2 | a3\n 68078: a4 = a4 << 0x10\n 68081: a5 = a5 << 0x18\n 68084: a4 = a4 | a5\n 68087: a2 = a2 | a4\n 68090: a3 = u8 [a0 + 0x5]\n 68093: a4 = u8 [a0 + 0x4]\n 68096: a5 = u8 [a0 + 0x6]\n 68099: s1 = u8 [a0 + 0x7]\n 68102: a3 = a3 << 0x8\n 68105: a3 = a3 | a4\n 68108: a5 = a5 << 0x10\n 68111: s1 = s1 << 0x18\n 68114: a5 = a5 | s1\n 68117: a3 = a3 | a5\n 68120: a3 = a3 << 0x20\n 68123: a2 = a2 | a3\n 68126: a3 = u8 [a0 + 0x19]\n 68129: a4 = u8 [a0 + 0x18]\n 68132: a5 = u8 [a0 + 0x1a]\n 68135: s1 = u8 [a0 + 0x1b]\n 68138: a3 = a3 << 0x8\n 68141: a3 = a3 | a4\n 68144: a5 = a5 << 0x10\n 68147: s1 = s1 << 0x18\n 68150: a5 = a5 | s1\n 68153: a3 = a3 | a5\n 68156: a4 = u8 [a0 + 0x1d]\n 68159: a5 = u8 [a0 + 0x1c]\n 68162: s1 = u8 [a0 + 0x1e]\n 68165: a1 = u8 [a0 + 0x1f]\n 68168: a4 = a4 << 0x8\n 68171: a4 = a4 | a5\n 68174: s1 = s1 << 0x10\n 68177: a1 = a1 << 0x18\n 68180: a1 = a1 | s1\n 68183: a1 = a1 | a4\n 68186: a1 = a1 << 0x20\n 68189: a3 = a3 | a1\n 68192: a1 = u8 [a0 + 0x9]\n 68195: a4 = u8 [a0 + 0x8]\n 68198: a5 = u8 [a0 + 0xa]\n 68201: s1 = u8 [a0 + 0xb]\n 68204: a1 = a1 << 0x8\n 68207: a1 = a1 | a4\n 68210: a5 = a5 << 0x10\n 68213: s1 = s1 << 0x18\n 68216: a5 = a5 | s1\n 68219: a1 = a1 | a5\n 68222: a4 = u8 [a0 + 0xd]\n 68225: a5 = u8 [a0 + 0xc]\n 68228: s1 = u8 [a0 + 0xe]\n 68231: a0 = u8 [a0 + 0xf]\n 68234: a4 = a4 << 0x8\n 68237: a4 = a4 | a5\n 68240: s1 = s1 << 0x10\n 68243: a0 = a0 << 0x18\n 68246: a0 = a0 | s1\n 68249: a0 = a0 | a4\n 68252: a0 = a0 << 0x20\n 68255: a0 = a0 | a1\n 68258: s1 = reverse a0\n 68260: a1 = reverse a3\n 68262: a2 = reverse a2\n 68264: a0 = reverse t0\n 68266: u64 [sp + 0x18] = a0\n 68269: u64 [sp + 0x10] = a2\n 68272: a0 = a0 | a2\n 68275: a2 = a1\n 68277: a1 = a1 | s1\n 68280: a1 = a1 | a0\n 68283: a1 = a1 >> 0x20\n 68286: a0 = a0 | s1\n 68289: a0 = a0 << 0x20\n 68292: a0 = a0 | a1\n 68295: jump @901 if a0 != 0\n      : @898 (gas: 5)\n 68299: u64 [sp + 0x8] = a2\n 68302: i32 a0 = a2 + 0\n 68304: a1 = 0x20\n 68307: u64 [sp] = a0\n 68309: ra = 788, jump @0\n      : @899 [@dyn 394] (gas: 50)\n 68316: u8 [a0 + 31] = 0\n 68319: u8 [a0 + 30] = 0\n 68322: u8 [a0 + 29] = 0\n 68325: u8 [a0 + 28] = 0\n 68328: u8 [a0 + 27] = 0\n 68331: u8 [a0 + 26] = 0\n 68334: u8 [a0 + 25] = 0\n 68337: u8 [a0 + 24] = 0\n 68340: u8 [a0 + 23] = 0\n 68343: u8 [a0 + 22] = 0\n 68346: u8 [a0 + 21] = 0\n 68349: u8 [a0 + 20] = 0\n 68352: u8 [a0 + 19] = 0\n 68355: u8 [a0 + 18] = 0\n 68358: u8 [a0 + 17] = 0\n 68361: u8 [a0 + 16] = 0\n 68364: u8 [a0 + 15] = 0\n 68367: u8 [a0 + 14] = 0\n 68370: u8 [a0 + 13] = 0\n 68373: u8 [a0 + 12] = 0\n 68376: u8 [a0 + 11] = 0\n 68379: u8 [a0 + 10] = 0\n 68382: u8 [a0 + 9] = 0\n 68385: u8 [a0 + 8] = 0\n 68388: u8 [a0 + 7] = 0\n 68391: u8 [a0 + 6] = 0\n 68394: u8 [a0 + 5] = 0\n 68397: u8 [a0 + 4] = 0\n 68400: u8 [a0 + 3] = 0xa0\n 68405: u8 [a0 + 2] = 0x79\n 68409: u8 [a0 + 1] = 0xc3\n 68414: u8 [a0 + 0] = 0x8\n 68417: a1 = u64 [sp + 0x8]\n 68420: a0 = a1 + 0x4\n 68423: a1 = a0 <u a1\n 68426: a3 = u64 [sp + 0x18]\n 68429: a2 = a3 + a1\n 68432: a3 = a2 <u a3\n 68435: a3 = a1 if a1 == 0\n 68438: a3 = a3 + s1\n 68441: a1 = a3 <u s1\n 68444: a4 = u64 [sp + 0x10]\n 68447: a4 = a4 + a1\n 68450: u64 [sp + 0x48] = a2\n 68453: u64 [sp + 0x40] = a0\n 68456: u64 [sp + 0x50] = a3\n 68459: a0 = sp + 0x60\n 68462: a1 = sp + 0x40\n 68465: u64 [sp + 0x58] = a4\n 68468: ra = 790, jump @432\n      : @900 [@dyn 395] (gas: 30)\n 68475: a0 = u64 [sp + 0x68]\n 68478: t0 = u64 [sp + 0x78]\n 68481: t1 = u64 [sp + 0x60]\n 68484: a3 = u64 [sp + 0x70]\n 68487: a1 = u64 [sp + 0x18]\n 68490: a4 = a0 ^ a1\n 68493: a5 = a0 <u a1\n 68496: t2 = a1\n 68498: a2 = u64 [sp + 0x8]\n 68501: a1 = t1 <u a2\n 68504: a5 = a1 if a4 == 0\n 68507: a4 = a3 - s1\n 68510: a3 = a3 <u s1\n 68513: s1 = u64 [sp + 0x10]\n 68516: s1 = t0 - s1\n 68519: s1 = s1 - a3\n 68522: a3 = a4 <u a5\n 68525: s1 = s1 - a3\n 68528: a4 = a4 - a5\n 68531: a0 = a0 - t2\n 68534: a1 = a0 - a1\n 68537: a0 = t1 - a2\n 68540: a1 = a1 | s1\n 68543: a2 = a0 | a4\n 68546: a2 = a2 | a1\n 68549: a1 = a1 | a4\n 68552: a2 = a2 >> 0x20\n 68555: a1 = a1 << 0x20\n 68558: a1 = a1 | a2\n 68561: jump @902 if a1 == 0\n      : @901 (gas: 1)\n 68564: trap\n      : @902 (gas: 4)\n 68565: i32 s1 = a0 + 0\n 68567: a0 = u64 [sp]\n 68569: a1 = s1\n 68571: ra = 792, jump @0\n      : @903 [@dyn 396] (gas: 6)\n 68578: i32 a1 = a0 + 0\n 68580: a0 = 0x1\n 68583: a2 = s1\n 68585: ra = 0x31a\n 68589: ecalli 11 // 'seal_return'\n 68591: fallthrough\n      : @904 [@dyn 397] (gas: 12)\n 68592: a1 = u64 [a0 + 0x10]\n 68595: a2 = u64 [a0 + 0x18]\n 68598: a3 = u64 [a0 + 0x8]\n 68601: a0 = u64 [a0]\n 68603: a2 = a2 | a3\n 68606: a3 = a0 | a1\n 68609: a3 = a3 | a2\n 68612: a3 = a3 >> 0x20\n 68615: a1 = a1 | a2\n 68618: a1 = a1 << 0x20\n 68621: a1 = a1 | a3\n 68624: jump @907 if a1 != 0\n      : @905 (gas: 5)\n 68628: sp = sp + 0xfffffffffffffff8\n 68631: u64 [sp] = ra\n 68633: i32 a0 = a0 + 0\n 68635: a1 = 0x20\n 68638: ra = 796, jump @0\n      : @906 [@dyn 398] (gas: 37)\n 68645: u8 [a0 + 31] = 0\n 68648: u8 [a0 + 30] = 0\n 68651: u8 [a0 + 29] = 0\n 68654: u8 [a0 + 28] = 0\n 68657: u8 [a0 + 27] = 0\n 68660: u8 [a0 + 26] = 0\n 68663: u8 [a0 + 25] = 0\n 68666: u8 [a0 + 24] = 0\n 68669: u8 [a0 + 23] = 0\n 68672: u8 [a0 + 22] = 0\n 68675: u8 [a0 + 21] = 0\n 68678: u8 [a0 + 20] = 0\n 68681: u8 [a0 + 19] = 0\n 68684: u8 [a0 + 18] = 0\n 68687: u8 [a0 + 17] = 0\n 68690: u8 [a0 + 16] = 0\n 68693: u8 [a0 + 15] = 0\n 68696: u8 [a0 + 14] = 0\n 68699: u8 [a0 + 13] = 0\n 68702: u8 [a0 + 12] = 0\n 68705: u8 [a0 + 11] = 0\n 68708: u8 [a0 + 10] = 0\n 68711: u8 [a0 + 9] = 0\n 68714: u8 [a0 + 8] = 0\n 68717: u8 [a0 + 7] = 0x65\n 68721: u8 [a0 + 6] = 0x76\n 68725: a1 = 0x69\n 68728: u8 [a0 + 0x5] = a1\n 68731: u8 [a0 + 4] = 0x74\n 68735: u8 [a0 + 3] = 0x63\n 68739: u8 [a0 + 2] = 0x61\n 68743: a2 = 0x6e\n 68746: u8 [a0 + 0x1] = a2\n 68749: u8 [a0] = a1\n 68751: ra = u64 [sp]\n 68753: sp = sp + 0x8\n 68756: ret\n      : @907 (gas: 1)\n 68758: trap\n      : @908 (gas: 17)\n 68759: sp = sp + 0xffffffffffffffa0\n 68762: u64 [sp + 0x58] = ra\n 68765: u64 [sp + 0x50] = s0\n 68768: u64 [sp + 0x48] = s1\n 68771: a3 = u64 [a1 + 0x18]\n 68774: a4 = u64 [a1 + 0x10]\n 68777: a5 = u64 [a1 + 0x8]\n 68780: s1 = u64 [a1]\n 68782: a1 = a5 | a3\n 68785: a2 = s1 | a4\n 68788: a2 = a2 | a1\n 68791: a2 = a2 >> 0x20\n 68794: a1 = a1 | a4\n 68797: a1 = a1 << 0x20\n 68800: a1 = a1 | a2\n 68803: u64 [sp + 0x28] = a0\n 68806: jump @915 if a1 != 0\n      : @909 (gas: 19)\n 68810: a0 = s1 + 0x20\n 68813: u64 [sp + 0x30] = a0\n 68816: a0 = a0 <u s1\n 68819: a1 = a5 + a0\n 68822: u64 [sp + 0x40] = a1\n 68825: u64 [sp + 0x8] = a5\n 68828: s0 = a1 <u a5\n 68831: s0 = a0 if a0 == 0\n 68834: s0 = s0 + a4\n 68837: u64 [sp + 0x10] = a4\n 68840: a0 = s0 <u a4\n 68843: u64 [sp + 0x18] = a3\n 68846: a0 = a0 + a3\n 68849: u64 [sp + 0x38] = a0\n 68852: u64 [sp] = s1\n 68854: i32 a0 = s1 + 0\n 68856: a1 = 0x20\n 68859: s1 = 0x20\n 68862: ra = 798, jump @0\n      : @910 [@dyn 399] (gas: 45)\n 68869: u8 [a0 + 0x1f] = s1\n 68872: a1 = u64 [sp + 0x30]\n 68875: s1 = a1\n 68877: a1 = a1 | s0\n 68880: a2 = u64 [sp + 0x40]\n 68883: a4 = u64 [sp + 0x38]\n 68886: a2 = a2 | a4\n 68889: a1 = a1 | a2\n 68892: a1 = a1 >> 0x20\n 68895: u64 [sp + 0x20] = s0\n 68898: a2 = a2 | s0\n 68901: a2 = a2 << 0x20\n 68904: a1 = a1 | a2\n 68907: u8 [a0 + 30] = 0\n 68910: u8 [a0 + 29] = 0\n 68913: u8 [a0 + 28] = 0\n 68916: u8 [a0 + 27] = 0\n 68919: u8 [a0 + 26] = 0\n 68922: u8 [a0 + 25] = 0\n 68925: u8 [a0 + 24] = 0\n 68928: u8 [a0 + 23] = 0\n 68931: u8 [a0 + 22] = 0\n 68934: u8 [a0 + 21] = 0\n 68937: u8 [a0 + 20] = 0\n 68940: u8 [a0 + 19] = 0\n 68943: u8 [a0 + 18] = 0\n 68946: u8 [a0 + 17] = 0\n 68949: u8 [a0 + 16] = 0\n 68952: u8 [a0 + 15] = 0\n 68955: u8 [a0 + 14] = 0\n 68958: u8 [a0 + 13] = 0\n 68961: u8 [a0 + 12] = 0\n 68964: u8 [a0 + 11] = 0\n 68967: u8 [a0 + 10] = 0\n 68970: u8 [a0 + 9] = 0\n 68973: u8 [a0 + 8] = 0\n 68976: u8 [a0 + 7] = 0\n 68979: u8 [a0 + 6] = 0\n 68982: u8 [a0 + 5] = 0\n 68985: u8 [a0 + 4] = 0\n 68988: u8 [a0 + 3] = 0\n 68991: u8 [a0 + 2] = 0\n 68994: u8 [a0 + 1] = 0\n 68997: u8 [a0 + 0] = 0\n 68999: jump @915 if a1 != 0\n      : @911 (gas: 4)\n 69003: i32 s0 = s1 + 0\n 69005: a1 = 0x20\n 69008: a0 = s0\n 69010: ra = 800, jump @0\n      : @912 [@dyn 400] (gas: 41)\n 69017: u8 [a0 + 31] = 0x8\n 69021: u8 [a0 + 30] = 0\n 69024: u8 [a0 + 29] = 0\n 69027: u8 [a0 + 28] = 0\n 69030: u8 [a0 + 27] = 0\n 69033: u8 [a0 + 26] = 0\n 69036: u8 [a0 + 25] = 0\n 69039: u8 [a0 + 24] = 0\n 69042: u8 [a0 + 23] = 0\n 69045: u8 [a0 + 22] = 0\n 69048: u8 [a0 + 21] = 0\n 69051: u8 [a0 + 20] = 0\n 69054: u8 [a0 + 19] = 0\n 69057: u8 [a0 + 18] = 0\n 69060: u8 [a0 + 17] = 0\n 69063: u8 [a0 + 16] = 0\n 69066: u8 [a0 + 15] = 0\n 69069: u8 [a0 + 14] = 0\n 69072: u8 [a0 + 13] = 0\n 69075: u8 [a0 + 12] = 0\n 69078: u8 [a0 + 11] = 0\n 69081: u8 [a0 + 10] = 0\n 69084: u8 [a0 + 9] = 0\n 69087: u8 [a0 + 8] = 0\n 69090: u8 [a0 + 7] = 0\n 69093: u8 [a0 + 6] = 0\n 69096: u8 [a0 + 5] = 0\n 69099: u8 [a0 + 4] = 0\n 69102: u8 [a0 + 3] = 0\n 69105: u8 [a0 + 2] = 0\n 69108: u8 [a0 + 1] = 0\n 69111: a1 = u64 [sp + 0x20]\n 69114: a2 = u64 [sp + 0x38]\n 69117: a1 = a1 | a2\n 69120: a2 = 0xffffffe0\n 69130: a2 = s1 <u a2\n 69133: a3 = u64 [sp + 0x40]\n 69136: a2 = 0 if a3 != 0\n 69138: a2 = 0 if a1 != 0\n 69140: u8 [a0 + 0] = 0\n 69142: jump @915 if a2 == 0\n      : @913 (gas: 3)\n 69146: i32 a0 = s0 + 0x20\n 69149: a1 = 0x20\n 69152: ra = 802, jump @0\n      : @914 [@dyn 401] (gas: 54)\n 69159: u8 [a0 + 31] = 0\n 69162: u8 [a0 + 30] = 0\n 69165: u8 [a0 + 29] = 0\n 69168: u8 [a0 + 28] = 0\n 69171: u8 [a0 + 27] = 0\n 69174: u8 [a0 + 26] = 0\n 69177: u8 [a0 + 25] = 0\n 69180: u8 [a0 + 24] = 0\n 69183: u8 [a0 + 23] = 0\n 69186: u8 [a0 + 22] = 0\n 69189: u8 [a0 + 21] = 0\n 69192: u8 [a0 + 20] = 0\n 69195: u8 [a0 + 19] = 0\n 69198: u8 [a0 + 18] = 0\n 69201: u8 [a0 + 17] = 0\n 69204: u8 [a0 + 16] = 0\n 69207: u8 [a0 + 15] = 0\n 69210: u8 [a0 + 14] = 0\n 69213: u8 [a0 + 13] = 0\n 69216: u8 [a0 + 12] = 0\n 69219: u8 [a0 + 11] = 0\n 69222: u8 [a0 + 10] = 0\n 69225: u8 [a0 + 9] = 0\n 69228: u8 [a0 + 8] = 0\n 69231: u8 [a0 + 7] = 0x65\n 69235: u8 [a0 + 6] = 0x76\n 69239: u8 [a0 + 5] = 0x69\n 69243: u8 [a0 + 4] = 0x74\n 69247: u8 [a0 + 3] = 0x63\n 69251: u8 [a0 + 2] = 0x61\n 69255: u8 [a0 + 1] = 0x6e\n 69259: u8 [a0 + 0] = 0x69\n 69262: a1 = u64 [sp]\n 69264: a0 = a1 + 0x60\n 69267: a1 = a0 <u a1\n 69270: a3 = u64 [sp + 0x8]\n 69273: a2 = a3 + a1\n 69276: a3 = a2 <u a3\n 69279: a3 = a1 if a1 == 0\n 69282: a1 = u64 [sp + 0x10]\n 69285: a3 = a3 + a1\n 69288: a1 = a3 <u a1\n 69291: a4 = u64 [sp + 0x18]\n 69294: a1 = a1 + a4\n 69297: a4 = u64 [sp + 0x28]\n 69300: u64 [a4] = a0\n 69302: u64 [a4 + 0x8] = a2\n 69305: u64 [a4 + 0x10] = a3\n 69308: u64 [a4 + 0x18] = a1\n 69311: ra = u64 [sp + 0x58]\n 69314: s0 = u64 [sp + 0x50]\n 69317: s1 = u64 [sp + 0x48]\n 69320: sp = sp + 0x60\n 69323: ret\n      : @915 (gas: 1)\n 69325: trap\n      : @916 (gas: 17)\n 69326: sp = sp + 0xffffffffffffffa0\n 69329: u64 [sp + 0x58] = ra\n 69332: u64 [sp + 0x50] = s0\n 69335: u64 [sp + 0x48] = s1\n 69338: a3 = u64 [a1 + 0x18]\n 69341: a4 = u64 [a1 + 0x10]\n 69344: a5 = u64 [a1 + 0x8]\n 69347: s1 = u64 [a1]\n 69349: a1 = a5 | a3\n 69352: a2 = s1 | a4\n 69355: a2 = a2 | a1\n 69358: a2 = a2 >> 0x20\n 69361: a1 = a1 | a4\n 69364: a1 = a1 << 0x20\n 69367: a1 = a1 | a2\n 69370: u64 [sp + 0x28] = a0\n 69373: jump @923 if a1 != 0\n      : @917 (gas: 19)\n 69377: a0 = s1 + 0x20\n 69380: u64 [sp + 0x30] = a0\n 69383: a0 = a0 <u s1\n 69386: a1 = a5 + a0\n 69389: u64 [sp + 0x40] = a1\n 69392: u64 [sp + 0x8] = a5\n 69395: s0 = a1 <u a5\n 69398: s0 = a0 if a0 == 0\n 69401: s0 = s0 + a4\n 69404: u64 [sp + 0x10] = a4\n 69407: a0 = s0 <u a4\n 69410: u64 [sp + 0x18] = a3\n 69413: a0 = a0 + a3\n 69416: u64 [sp + 0x38] = a0\n 69419: u64 [sp] = s1\n 69421: i32 a0 = s1 + 0\n 69423: a1 = 0x20\n 69426: s1 = 0x20\n 69429: ra = 804, jump @0\n      : @918 [@dyn 402] (gas: 45)\n 69436: u8 [a0 + 0x1f] = s1\n 69439: a1 = u64 [sp + 0x30]\n 69442: s1 = a1\n 69444: a1 = a1 | s0\n 69447: a2 = u64 [sp + 0x40]\n 69450: a4 = u64 [sp + 0x38]\n 69453: a2 = a2 | a4\n 69456: a1 = a1 | a2\n 69459: a1 = a1 >> 0x20\n 69462: u64 [sp + 0x20] = s0\n 69465: a2 = a2 | s0\n 69468: a2 = a2 << 0x20\n 69471: a1 = a1 | a2\n 69474: u8 [a0 + 30] = 0\n 69477: u8 [a0 + 29] = 0\n 69480: u8 [a0 + 28] = 0\n 69483: u8 [a0 + 27] = 0\n 69486: u8 [a0 + 26] = 0\n 69489: u8 [a0 + 25] = 0\n 69492: u8 [a0 + 24] = 0\n 69495: u8 [a0 + 23] = 0\n 69498: u8 [a0 + 22] = 0\n 69501: u8 [a0 + 21] = 0\n 69504: u8 [a0 + 20] = 0\n 69507: u8 [a0 + 19] = 0\n 69510: u8 [a0 + 18] = 0\n 69513: u8 [a0 + 17] = 0\n 69516: u8 [a0 + 16] = 0\n 69519: u8 [a0 + 15] = 0\n 69522: u8 [a0 + 14] = 0\n 69525: u8 [a0 + 13] = 0\n 69528: u8 [a0 + 12] = 0\n 69531: u8 [a0 + 11] = 0\n 69534: u8 [a0 + 10] = 0\n 69537: u8 [a0 + 9] = 0\n 69540: u8 [a0 + 8] = 0\n 69543: u8 [a0 + 7] = 0\n 69546: u8 [a0 + 6] = 0\n 69549: u8 [a0 + 5] = 0\n 69552: u8 [a0 + 4] = 0\n 69555: u8 [a0 + 3] = 0\n 69558: u8 [a0 + 2] = 0\n 69561: u8 [a0 + 1] = 0\n 69564: u8 [a0 + 0] = 0\n 69566: jump @923 if a1 != 0\n      : @919 (gas: 4)\n 69570: i32 s0 = s1 + 0\n 69572: a1 = 0x20\n 69575: a0 = s0\n 69577: ra = 806, jump @0\n      : @920 [@dyn 403] (gas: 41)\n 69584: u8 [a0 + 31] = 0xc\n 69588: u8 [a0 + 30] = 0\n 69591: u8 [a0 + 29] = 0\n 69594: u8 [a0 + 28] = 0\n 69597: u8 [a0 + 27] = 0\n 69600: u8 [a0 + 26] = 0\n 69603: u8 [a0 + 25] = 0\n 69606: u8 [a0 + 24] = 0\n 69609: u8 [a0 + 23] = 0\n 69612: u8 [a0 + 22] = 0\n 69615: u8 [a0 + 21] = 0\n 69618: u8 [a0 + 20] = 0\n 69621: u8 [a0 + 19] = 0\n 69624: u8 [a0 + 18] = 0\n 69627: u8 [a0 + 17] = 0\n 69630: u8 [a0 + 16] = 0\n 69633: u8 [a0 + 15] = 0\n 69636: u8 [a0 + 14] = 0\n 69639: u8 [a0 + 13] = 0\n 69642: u8 [a0 + 12] = 0\n 69645: u8 [a0 + 11] = 0\n 69648: u8 [a0 + 10] = 0\n 69651: u8 [a0 + 9] = 0\n 69654: u8 [a0 + 8] = 0\n 69657: u8 [a0 + 7] = 0\n 69660: u8 [a0 + 6] = 0\n 69663: u8 [a0 + 5] = 0\n 69666: u8 [a0 + 4] = 0\n 69669: u8 [a0 + 3] = 0\n 69672: u8 [a0 + 2] = 0\n 69675: u8 [a0 + 1] = 0\n 69678: a1 = u64 [sp + 0x20]\n 69681: a2 = u64 [sp + 0x38]\n 69684: a1 = a1 | a2\n 69687: a2 = 0xffffffe0\n 69697: a2 = s1 <u a2\n 69700: a3 = u64 [sp + 0x40]\n 69703: a2 = 0 if a3 != 0\n 69705: a2 = 0 if a1 != 0\n 69707: u8 [a0 + 0] = 0\n 69709: jump @923 if a2 == 0\n      : @921 (gas: 3)\n 69713: i32 a0 = s0 + 0x20\n 69716: a1 = 0x20\n 69719: ra = 808, jump @0\n      : @922 [@dyn 404] (gas: 54)\n 69726: u8 [a0 + 31] = 0\n 69729: u8 [a0 + 30] = 0\n 69732: u8 [a0 + 29] = 0\n 69735: u8 [a0 + 28] = 0\n 69738: u8 [a0 + 27] = 0\n 69741: u8 [a0 + 26] = 0\n 69744: u8 [a0 + 25] = 0\n 69747: u8 [a0 + 24] = 0\n 69750: u8 [a0 + 23] = 0\n 69753: u8 [a0 + 22] = 0\n 69756: u8 [a0 + 21] = 0\n 69759: u8 [a0 + 20] = 0\n 69762: u8 [a0 + 19] = 0\n 69765: u8 [a0 + 18] = 0\n 69768: u8 [a0 + 17] = 0\n 69771: u8 [a0 + 16] = 0\n 69774: u8 [a0 + 15] = 0\n 69777: u8 [a0 + 14] = 0\n 69780: u8 [a0 + 13] = 0\n 69783: u8 [a0 + 12] = 0\n 69786: u8 [a0 + 11] = 0x74\n 69790: u8 [a0 + 10] = 0x6e\n 69794: u8 [a0 + 9] = 0x75\n 69798: u8 [a0 + 8] = 0x6f\n 69802: u8 [a0 + 7] = 0x6d\n 69806: u8 [a0 + 6] = 0x61\n 69810: u8 [a0 + 5] = 0x20\n 69814: u8 [a0 + 4] = 0x67\n 69818: u8 [a0 + 3] = 0x6e\n 69822: u8 [a0 + 2] = 0x6f\n 69826: u8 [a0 + 1] = 0x72\n 69830: u8 [a0 + 0] = 0x77\n 69833: a1 = u64 [sp]\n 69835: a0 = a1 + 0x60\n 69838: a1 = a0 <u a1\n 69841: a3 = u64 [sp + 0x8]\n 69844: a2 = a3 + a1\n 69847: a3 = a2 <u a3\n 69850: a3 = a1 if a1 == 0\n 69853: a1 = u64 [sp + 0x10]\n 69856: a3 = a3 + a1\n 69859: a1 = a3 <u a1\n 69862: a4 = u64 [sp + 0x18]\n 69865: a1 = a1 + a4\n 69868: a4 = u64 [sp + 0x28]\n 69871: u64 [a4] = a0\n 69873: u64 [a4 + 0x8] = a2\n 69876: u64 [a4 + 0x10] = a3\n 69879: u64 [a4 + 0x18] = a1\n 69882: ra = u64 [sp + 0x58]\n 69885: s0 = u64 [sp + 0x50]\n 69888: s1 = u64 [sp + 0x48]\n 69891: sp = sp + 0x60\n 69894: ret\n      : @923 (gas: 1)\n 69896: trap\n      : @924 (gas: 17)\n 69897: sp = sp + 0xffffffffffffffa0\n 69900: u64 [sp + 0x58] = ra\n 69903: u64 [sp + 0x50] = s0\n 69906: u64 [sp + 0x48] = s1\n 69909: a3 = u64 [a1 + 0x18]\n 69912: a4 = u64 [a1 + 0x10]\n 69915: a5 = u64 [a1 + 0x8]\n 69918: s1 = u64 [a1]\n 69920: a1 = a5 | a3\n 69923: a2 = s1 | a4\n 69926: a2 = a2 | a1\n 69929: a2 = a2 >> 0x20\n 69932: a1 = a1 | a4\n 69935: a1 = a1 << 0x20\n 69938: a1 = a1 | a2\n 69941: u64 [sp + 0x28] = a0\n 69944: jump @931 if a1 != 0\n      : @925 (gas: 19)\n 69948: a0 = s1 + 0x20\n 69951: u64 [sp + 0x30] = a0\n 69954: a0 = a0 <u s1\n 69957: a1 = a5 + a0\n 69960: u64 [sp + 0x40] = a1\n 69963: u64 [sp + 0x8] = a5\n 69966: s0 = a1 <u a5\n 69969: s0 = a0 if a0 == 0\n 69972: s0 = s0 + a4\n 69975: u64 [sp + 0x10] = a4\n 69978: a0 = s0 <u a4\n 69981: u64 [sp + 0x18] = a3\n 69984: a0 = a0 + a3\n 69987: u64 [sp + 0x38] = a0\n 69990: u64 [sp] = s1\n 69992: i32 a0 = s1 + 0\n 69994: a1 = 0x20\n 69997: s1 = 0x20\n 70000: ra = 810, jump @0\n      : @926 [@dyn 405] (gas: 45)\n 70007: u8 [a0 + 0x1f] = s1\n 70010: a1 = u64 [sp + 0x30]\n 70013: s1 = a1\n 70015: a1 = a1 | s0\n 70018: a2 = u64 [sp + 0x40]\n 70021: a4 = u64 [sp + 0x38]\n 70024: a2 = a2 | a4\n 70027: a1 = a1 | a2\n 70030: a1 = a1 >> 0x20\n 70033: u64 [sp + 0x20] = s0\n 70036: a2 = a2 | s0\n 70039: a2 = a2 << 0x20\n 70042: a1 = a1 | a2\n 70045: u8 [a0 + 30] = 0\n 70048: u8 [a0 + 29] = 0\n 70051: u8 [a0 + 28] = 0\n 70054: u8 [a0 + 27] = 0\n 70057: u8 [a0 + 26] = 0\n 70060: u8 [a0 + 25] = 0\n 70063: u8 [a0 + 24] = 0\n 70066: u8 [a0 + 23] = 0\n 70069: u8 [a0 + 22] = 0\n 70072: u8 [a0 + 21] = 0\n 70075: u8 [a0 + 20] = 0\n 70078: u8 [a0 + 19] = 0\n 70081: u8 [a0 + 18] = 0\n 70084: u8 [a0 + 17] = 0\n 70087: u8 [a0 + 16] = 0\n 70090: u8 [a0 + 15] = 0\n 70093: u8 [a0 + 14] = 0\n 70096: u8 [a0 + 13] = 0\n 70099: u8 [a0 + 12] = 0\n 70102: u8 [a0 + 11] = 0\n 70105: u8 [a0 + 10] = 0\n 70108: u8 [a0 + 9] = 0\n 70111: u8 [a0 + 8] = 0\n 70114: u8 [a0 + 7] = 0\n 70117: u8 [a0 + 6] = 0\n 70120: u8 [a0 + 5] = 0\n 70123: u8 [a0 + 4] = 0\n 70126: u8 [a0 + 3] = 0\n 70129: u8 [a0 + 2] = 0\n 70132: u8 [a0 + 1] = 0\n 70135: u8 [a0 + 0] = 0\n 70137: jump @931 if a1 != 0\n      : @927 (gas: 4)\n 70141: i32 s0 = s1 + 0\n 70143: a1 = 0x20\n 70146: a0 = s0\n 70148: ra = 812, jump @0\n      : @928 [@dyn 406] (gas: 41)\n 70155: u8 [a0 + 31] = 0xe\n 70159: u8 [a0 + 30] = 0\n 70162: u8 [a0 + 29] = 0\n 70165: u8 [a0 + 28] = 0\n 70168: u8 [a0 + 27] = 0\n 70171: u8 [a0 + 26] = 0\n 70174: u8 [a0 + 25] = 0\n 70177: u8 [a0 + 24] = 0\n 70180: u8 [a0 + 23] = 0\n 70183: u8 [a0 + 22] = 0\n 70186: u8 [a0 + 21] = 0\n 70189: u8 [a0 + 20] = 0\n 70192: u8 [a0 + 19] = 0\n 70195: u8 [a0 + 18] = 0\n 70198: u8 [a0 + 17] = 0\n 70201: u8 [a0 + 16] = 0\n 70204: u8 [a0 + 15] = 0\n 70207: u8 [a0 + 14] = 0\n 70210: u8 [a0 + 13] = 0\n 70213: u8 [a0 + 12] = 0\n 70216: u8 [a0 + 11] = 0\n 70219: u8 [a0 + 10] = 0\n 70222: u8 [a0 + 9] = 0\n 70225: u8 [a0 + 8] = 0\n 70228: u8 [a0 + 7] = 0\n 70231: u8 [a0 + 6] = 0\n 70234: u8 [a0 + 5] = 0\n 70237: u8 [a0 + 4] = 0\n 70240: u8 [a0 + 3] = 0\n 70243: u8 [a0 + 2] = 0\n 70246: u8 [a0 + 1] = 0\n 70249: a1 = u64 [sp + 0x20]\n 70252: a2 = u64 [sp + 0x38]\n 70255: a1 = a1 | a2\n 70258: a2 = 0xffffffe0\n 70268: a2 = s1 <u a2\n 70271: a3 = u64 [sp + 0x40]\n 70274: a2 = 0 if a3 != 0\n 70276: a2 = 0 if a1 != 0\n 70278: u8 [a0 + 0] = 0\n 70280: jump @931 if a2 == 0\n      : @929 (gas: 3)\n 70284: i32 a0 = s0 + 0x20\n 70287: a1 = 0x20\n 70290: ra = 814, jump @0\n      : @930 [@dyn 407] (gas: 54)\n 70297: u8 [a0 + 31] = 0\n 70300: u8 [a0 + 30] = 0\n 70303: u8 [a0 + 29] = 0\n 70306: u8 [a0 + 28] = 0\n 70309: u8 [a0 + 27] = 0\n 70312: u8 [a0 + 26] = 0\n 70315: u8 [a0 + 25] = 0\n 70318: u8 [a0 + 24] = 0\n 70321: u8 [a0 + 23] = 0\n 70324: u8 [a0 + 22] = 0\n 70327: u8 [a0 + 21] = 0\n 70330: u8 [a0 + 20] = 0\n 70333: u8 [a0 + 19] = 0\n 70336: u8 [a0 + 18] = 0\n 70339: u8 [a0 + 17] = 0\n 70342: u8 [a0 + 16] = 0\n 70345: u8 [a0 + 15] = 0\n 70348: u8 [a0 + 14] = 0\n 70351: u8 [a0 + 13] = 0x74\n 70355: u8 [a0 + 12] = 0x68\n 70359: u8 [a0 + 11] = 0x67\n 70363: u8 [a0 + 10] = 0x75\n 70367: u8 [a0 + 9] = 0x6f\n 70371: u8 [a0 + 8] = 0x62\n 70375: u8 [a0 + 7] = 0x20\n 70379: u8 [a0 + 6] = 0x79\n 70383: u8 [a0 + 5] = 0x64\n 70387: u8 [a0 + 4] = 0x61\n 70391: u8 [a0 + 3] = 0x65\n 70395: u8 [a0 + 2] = 0x72\n 70399: u8 [a0 + 1] = 0x6c\n 70403: u8 [a0 + 0] = 0x61\n 70406: a1 = u64 [sp]\n 70408: a0 = a1 + 0x60\n 70411: a1 = a0 <u a1\n 70414: a3 = u64 [sp + 0x8]\n 70417: a2 = a3 + a1\n 70420: a3 = a2 <u a3\n 70423: a3 = a1 if a1 == 0\n 70426: a1 = u64 [sp + 0x10]\n 70429: a3 = a3 + a1\n 70432: a1 = a3 <u a1\n 70435: a4 = u64 [sp + 0x18]\n 70438: a1 = a1 + a4\n 70441: a4 = u64 [sp + 0x28]\n 70444: u64 [a4] = a0\n 70446: u64 [a4 + 0x8] = a2\n 70449: u64 [a4 + 0x10] = a3\n 70452: u64 [a4 + 0x18] = a1\n 70455: ra = u64 [sp + 0x58]\n 70458: s0 = u64 [sp + 0x50]\n 70461: s1 = u64 [sp + 0x48]\n 70464: sp = sp + 0x60\n 70467: ret\n      : @931 (gas: 1)\n 70469: trap\n      : @932 (gas: 22)\n 70470: sp = sp + 0xfffffffffffffee0\n 70474: u64 [sp + 0x118] = ra\n 70478: u64 [sp + 0x110] = s0\n 70482: u64 [sp + 0x108] = s1\n 70486: s0 = sp + 0x120\n 70490: sp = sp & 0xffffffffffffffe0\n 70493: a4 = u64 [a1 + 0x10]\n 70496: a5 = u64 [a1 + 0x18]\n 70499: a2 = u64 [a1 + 0x8]\n 70502: a3 = u64 [a1]\n 70504: u64 [sp + 0x70] = a2\n 70507: u64 [sp + 0x58] = a5\n 70510: a1 = a2 | a5\n 70513: u64 [sp + 0x80] = a3\n 70517: a2 = a3 | a4\n 70520: a2 = a2 | a1\n 70523: a2 = a2 >> 0x20\n 70526: u64 [sp + 0x78] = a4\n 70529: a1 = a1 | a4\n 70532: a1 = a1 << 0x20\n 70535: a1 = a1 | a2\n 70538: jump @947 if a1 != 0\n      : @933 (gas: 12)\n 70542: a1 = u64 [a0 + 0x18]\n 70545: u64 [sp + 0x60] = a1\n 70548: a1 = u64 [a0 + 0x10]\n 70551: u64 [sp + 0x88] = a1\n 70555: a1 = u64 [a0 + 0x8]\n 70558: u64 [sp + 0x90] = a1\n 70562: a0 = u64 [a0]\n 70564: u64 [sp + 0x98] = a0\n 70568: a0 = i32 [sp + 0x80]\n 70572: a1 = 0x20\n 70575: u64 [sp + 0x68] = a0\n 70578: ra = 816, jump @0\n      : @934 [@dyn 408] (gas: 105)\n 70585: a1 = u8 [a0 + 0x11]\n 70588: a2 = u8 [a0 + 0x10]\n 70591: a3 = u8 [a0 + 0x12]\n 70594: a4 = u8 [a0 + 0x13]\n 70597: a1 = a1 << 0x8\n 70600: a1 = a1 | a2\n 70603: a3 = a3 << 0x10\n 70606: a4 = a4 << 0x18\n 70609: a3 = a3 | a4\n 70612: a1 = a1 | a3\n 70615: a2 = u8 [a0 + 0x15]\n 70618: a3 = u8 [a0 + 0x14]\n 70621: a4 = u8 [a0 + 0x16]\n 70624: a5 = u8 [a0 + 0x17]\n 70627: a2 = a2 << 0x8\n 70630: a2 = a2 | a3\n 70633: a4 = a4 << 0x10\n 70636: a5 = a5 << 0x18\n 70639: a4 = a4 | a5\n 70642: a2 = a2 | a4\n 70645: a2 = a2 << 0x20\n 70648: a1 = a1 | a2\n 70651: a2 = u8 [a0 + 0x19]\n 70654: a3 = u8 [a0 + 0x18]\n 70657: a4 = u8 [a0 + 0x1a]\n 70660: a5 = u8 [a0 + 0x1b]\n 70663: a2 = a2 << 0x8\n 70666: a2 = a2 | a3\n 70669: a4 = a4 << 0x10\n 70672: a5 = a5 << 0x18\n 70675: a4 = a4 | a5\n 70678: a2 = a2 | a4\n 70681: a3 = u8 [a0 + 0x1d]\n 70684: a4 = u8 [a0 + 0x1c]\n 70687: a5 = u8 [a0 + 0x1e]\n 70690: s1 = u8 [a0 + 0x1f]\n 70693: a3 = a3 << 0x8\n 70696: a3 = a3 | a4\n 70699: a5 = a5 << 0x10\n 70702: s1 = s1 << 0x18\n 70705: a5 = a5 | s1\n 70708: a3 = a3 | a5\n 70711: a3 = a3 << 0x20\n 70714: a2 = a2 | a3\n 70717: a3 = u8 [a0 + 0xd]\n 70720: a4 = u8 [a0 + 0xc]\n 70723: a5 = u8 [a0 + 0xe]\n 70726: a0 = u8 [a0 + 0xf]\n 70729: a3 = a3 << 0x8\n 70732: a3 = a3 | a4\n 70735: a5 = a5 << 0x10\n 70738: a0 = a0 << 0x18\n 70741: a0 = a0 | a5\n 70744: a0 = a0 | a3\n 70747: a2 = reverse a2\n 70749: u64 [sp + 0x50] = a2\n 70752: a1 = reverse a1\n 70754: u64 [sp + 0x48] = a1\n 70757: s1 = reverse a0\n 70759: s1 = s1 >> 0x20\n 70762: u64 [sp + 0x40] = s1\n 70765: s1 = u64 [sp + 0x60]\n 70768: u64 [sp + 0xd8] = s1\n 70772: a0 = u64 [sp + 0x88]\n 70776: u64 [sp + 0xd0] = a0\n 70780: a0 = u64 [sp + 0x90]\n 70784: u64 [sp + 0xc8] = a0\n 70788: a0 = u64 [sp + 0x98]\n 70792: u64 [sp + 0xc0] = a0\n 70796: u64 [sp + 248] = 0\n 70800: u64 [sp + 240] = 0\n 70804: u64 [sp + 232] = 0\n 70808: u64 [sp + 224] = 0\n 70812: u32 [sp + 160] = 0x20\n 70817: i32 a1 = sp + 0xc0\n 70821: i32 a3 = sp + 0xe0\n 70825: i32 a4 = sp + 0xa0\n 70829: a2 = 0xffffffffffffffff\n 70832: a0 = 0\n 70834: ecalli 7 // 'get_storage'\n 70836: a0 = u32 [sp + 0xf4]\n 70840: a0 = a0 << 0x20\n 70843: a1 = u64 [sp + 0xf8]\n 70847: a2 = u64 [sp + 0x40]\n 70850: a0 = a0 | a2\n 70853: u64 [sp + 0xd8] = s1\n 70857: a2 = u64 [sp + 0x88]\n 70861: u64 [sp + 0xd0] = a2\n 70865: a2 = u64 [sp + 0x90]\n 70869: u64 [sp + 0xc8] = a2\n 70873: a2 = u64 [sp + 0x98]\n 70877: u64 [sp + 0xc0] = a2\n 70881: u64 [sp + 0xf8] = a1\n 70885: u64 [sp + 0xf0] = a0\n 70889: a0 = u64 [sp + 0x48]\n 70892: u64 [sp + 0xe8] = a0\n 70896: a0 = u64 [sp + 0x50]\n 70899: u64 [sp + 0xe0] = a0\n 70903: i32 a1 = sp + 0xc0\n 70907: i32 a3 = sp + 0xe0\n 70911: a2 = 0xffffffffffffffff\n 70914: a4 = 0x20\n 70917: a0 = 0\n 70919: ecalli 13 // 'set_storage'\n 70921: fallthrough\n      : @935 (gas: 13)\n 70922: a0 = u64 [sp + 0x78]\n 70925: a2 = u64 [sp + 0x58]\n 70928: a2 = a2 | a0\n 70931: a0 = 0x100000000\n 70941: u64 [sp + 0x40] = a0\n 70944: a0 = 0xffffffe0\n 70954: a1 = u64 [sp + 0x80]\n 70958: a0 = a1 <u a0\n 70961: a1 = u64 [sp + 0x70]\n 70964: a0 = 0 if a1 != 0\n 70966: u64 [sp + 0x58] = a2\n 70969: a0 = 0 if a2 != 0\n 70971: jump @947 if a0 == 0\n      : @936 (gas: 20)\n 70975: a0 = u64 [sp + 0x98]\n 70979: a2 = a0 + 0x1\n 70982: u64 [sp + 0x48] = a2\n 70985: a0 = a2 <u 0x1\n 70988: a1 = u64 [sp + 0x90]\n 70992: a0 = a0 + a1\n 70995: u64 [sp + 0x78] = a0\n 70998: a0 = a0 | a2\n 71001: a0 = a0 <u 0x1\n 71004: a1 = u64 [sp + 0x88]\n 71008: a0 = a0 + a1\n 71011: u64 [sp + 0x50] = a0\n 71014: a0 = a0 <u a1\n 71017: a1 = u64 [sp + 0x60]\n 71020: a0 = a0 + a1\n 71023: u64 [sp + 0x38] = a0\n 71026: a0 = u64 [sp + 0x68]\n 71029: i32 a0 = a0 + 0x20\n 71032: a1 = 0x20\n 71035: ra = 818, jump @0\n      : @937 [@dyn 409] (gas: 137)\n 71042: a1 = u8 [a0 + 0x1]\n 71045: a2 = u8 [a0]\n 71047: a3 = u8 [a0 + 0x2]\n 71050: a4 = u8 [a0 + 0x3]\n 71053: a1 = a1 << 0x8\n 71056: a1 = a1 | a2\n 71059: a3 = a3 << 0x10\n 71062: a4 = a4 << 0x18\n 71065: a3 = a3 | a4\n 71068: a1 = a1 | a3\n 71071: a2 = u8 [a0 + 0x5]\n 71074: a3 = u8 [a0 + 0x4]\n 71077: a4 = u8 [a0 + 0x6]\n 71080: a5 = u8 [a0 + 0x7]\n 71083: a2 = a2 << 0x8\n 71086: a2 = a2 | a3\n 71089: a4 = a4 << 0x10\n 71092: a5 = a5 << 0x18\n 71095: a4 = a4 | a5\n 71098: a2 = a2 | a4\n 71101: a2 = a2 << 0x20\n 71104: t0 = a2 | a1\n 71107: a2 = u8 [a0 + 0x9]\n 71110: a3 = u8 [a0 + 0x8]\n 71113: a4 = u8 [a0 + 0xa]\n 71116: a5 = u8 [a0 + 0xb]\n 71119: a2 = a2 << 0x8\n 71122: a2 = a2 | a3\n 71125: a4 = a4 << 0x10\n 71128: a5 = a5 << 0x18\n 71131: a4 = a4 | a5\n 71134: a2 = a2 | a4\n 71137: a3 = u8 [a0 + 0xd]\n 71140: a4 = u8 [a0 + 0xc]\n 71143: a5 = u8 [a0 + 0xe]\n 71146: s1 = u8 [a0 + 0xf]\n 71149: a3 = a3 << 0x8\n 71152: a3 = a3 | a4\n 71155: a5 = a5 << 0x10\n 71158: s1 = s1 << 0x18\n 71161: a5 = a5 | s1\n 71164: a3 = a3 | a5\n 71167: a3 = a3 << 0x20\n 71170: a2 = a2 | a3\n 71173: a3 = u8 [a0 + 0x11]\n 71176: a4 = u8 [a0 + 0x10]\n 71179: a5 = u8 [a0 + 0x12]\n 71182: s1 = u8 [a0 + 0x13]\n 71185: a3 = a3 << 0x8\n 71188: a3 = a3 | a4\n 71191: a5 = a5 << 0x10\n 71194: s1 = s1 << 0x18\n 71197: a5 = a5 | s1\n 71200: a3 = a3 | a5\n 71203: a4 = u8 [a0 + 0x15]\n 71206: a5 = u8 [a0 + 0x14]\n 71209: s1 = u8 [a0 + 0x16]\n 71212: a1 = u8 [a0 + 0x17]\n 71215: a4 = a4 << 0x8\n 71218: a4 = a4 | a5\n 71221: s1 = s1 << 0x10\n 71224: a1 = a1 << 0x18\n 71227: a1 = a1 | s1\n 71230: a1 = a1 | a4\n 71233: a1 = a1 << 0x20\n 71236: a3 = a3 | a1\n 71239: a1 = u8 [a0 + 0x19]\n 71242: a4 = u8 [a0 + 0x18]\n 71245: a5 = u8 [a0 + 0x1a]\n 71248: s1 = u8 [a0 + 0x1b]\n 71251: a1 = a1 << 0x8\n 71254: a1 = a1 | a4\n 71257: a5 = a5 << 0x10\n 71260: s1 = s1 << 0x18\n 71263: a5 = a5 | s1\n 71266: a1 = a1 | a5\n 71269: a4 = u8 [a0 + 0x1d]\n 71272: a5 = u8 [a0 + 0x1c]\n 71275: s1 = u8 [a0 + 0x1e]\n 71278: a0 = u8 [a0 + 0x1f]\n 71281: a4 = a4 << 0x8\n 71284: a4 = a4 | a5\n 71287: s1 = s1 << 0x10\n 71290: a0 = a0 << 0x18\n 71293: a0 = a0 | s1\n 71296: a0 = a0 | a4\n 71299: a0 = a0 << 0x20\n 71302: a0 = a0 | a1\n 71305: u32 [sp + 160] = 0x20\n 71310: a0 = reverse a0\n 71312: u64 [sp + 0x30] = a0\n 71315: a0 = reverse a3\n 71317: u64 [sp + 0x28] = a0\n 71320: a0 = reverse a2\n 71322: u64 [sp + 0x20] = a0\n 71325: a0 = reverse t0\n 71327: u64 [sp + 0x18] = a0\n 71330: a0 = u64 [sp + 0x50]\n 71333: u64 [sp + 0xd0] = a0\n 71337: a0 = u64 [sp + 0x78]\n 71340: u64 [sp + 0xc8] = a0\n 71344: a0 = u64 [sp + 0x48]\n 71347: u64 [sp + 0xc0] = a0\n 71351: s1 = u64 [sp + 0x38]\n 71354: u64 [sp + 0xd8] = s1\n 71358: u64 [sp + 248] = 0\n 71362: u64 [sp + 240] = 0\n 71366: u64 [sp + 232] = 0\n 71370: u64 [sp + 224] = 0\n 71374: i32 a1 = sp + 0xc0\n 71378: i32 a3 = sp + 0xe0\n 71382: i32 a4 = sp + 0xa0\n 71386: a2 = 0xffffffffffffffff\n 71389: a0 = 0\n 71391: ecalli 7 // 'get_storage'\n 71393: u64 [sp + 0xd8] = s1\n 71397: a0 = u64 [sp + 0x50]\n 71400: u64 [sp + 0xd0] = a0\n 71404: a0 = u64 [sp + 0x78]\n 71407: u64 [sp + 0xc8] = a0\n 71411: a0 = u64 [sp + 0x48]\n 71414: u64 [sp + 0xc0] = a0\n 71418: a0 = u64 [sp + 0x18]\n 71421: u64 [sp + 0xf8] = a0\n 71425: a0 = u64 [sp + 0x20]\n 71428: u64 [sp + 0xf0] = a0\n 71432: a0 = u64 [sp + 0x28]\n 71435: u64 [sp + 0xe8] = a0\n 71439: a0 = u64 [sp + 0x30]\n 71442: u64 [sp + 0xe0] = a0\n 71446: i32 a1 = sp + 0xc0\n 71450: i32 a3 = sp + 0xe0\n 71454: a2 = 0xffffffffffffffff\n 71457: a4 = 0x20\n 71460: a0 = 0\n 71462: ecalli 13 // 'set_storage'\n 71464: fallthrough\n      : @938 (gas: 9)\n 71465: a0 = u64 [sp + 0x40]\n 71468: a0 = a0 + 0xffffffffffffffc0\n 71471: a1 = u64 [sp + 0x80]\n 71475: a0 = a1 <u a0\n 71478: a1 = u64 [sp + 0x70]\n 71481: a0 = 0 if a1 != 0\n 71483: a1 = u64 [sp + 0x58]\n 71486: a0 = 0 if a1 != 0\n 71488: jump @947 if a0 == 0\n      : @939 (gas: 20)\n 71492: a0 = u64 [sp + 0x98]\n 71496: a1 = a0 + 0x2\n 71499: u64 [sp + 0x78] = a1\n 71502: a0 = a1 <u a0\n 71505: a1 = u64 [sp + 0x90]\n 71509: a2 = a1 + a0\n 71512: u64 [sp + 0x98] = a2\n 71516: a1 = a2 <u a1\n 71519: a1 = a0 if a0 == 0\n 71522: a0 = u64 [sp + 0x88]\n 71526: a1 = a1 + a0\n 71529: u64 [sp + 0x90] = a1\n 71533: a0 = a1 <u a0\n 71536: a1 = u64 [sp + 0x60]\n 71539: a0 = a0 + a1\n 71542: u64 [sp + 0x88] = a0\n 71546: a0 = u64 [sp + 0x68]\n 71549: i32 a0 = a0 + 0x40\n 71552: a1 = 0x20\n 71555: ra = 820, jump @0\n      : @940 [@dyn 410] (gas: 135)\n 71562: a1 = u8 [a0 + 0x11]\n 71565: a2 = u8 [a0 + 0x10]\n 71568: a3 = u8 [a0 + 0x12]\n 71571: a4 = u8 [a0 + 0x13]\n 71574: a1 = a1 << 0x8\n 71577: a1 = a1 | a2\n 71580: a3 = a3 << 0x10\n 71583: a4 = a4 << 0x18\n 71586: a3 = a3 | a4\n 71589: t0 = a3 | a1\n 71592: a2 = u8 [a0 + 0x1]\n 71595: a3 = u8 [a0]\n 71597: a4 = u8 [a0 + 0x2]\n 71600: a5 = u8 [a0 + 0x3]\n 71603: a2 = a2 << 0x8\n 71606: a2 = a2 | a3\n 71609: a4 = a4 << 0x10\n 71612: a5 = a5 << 0x18\n 71615: a4 = a4 | a5\n 71618: t1 = a4 | a2\n 71621: a3 = u8 [a0 + 0x15]\n 71624: a4 = u8 [a0 + 0x14]\n 71627: a5 = u8 [a0 + 0x16]\n 71630: s1 = u8 [a0 + 0x17]\n 71633: a3 = a3 << 0x8\n 71636: a3 = a3 | a4\n 71639: a5 = a5 << 0x10\n 71642: s1 = s1 << 0x18\n 71645: a5 = a5 | s1\n 71648: t2 = a5 | a3\n 71651: a4 = u8 [a0 + 0x5]\n 71654: a5 = u8 [a0 + 0x4]\n 71657: s1 = u8 [a0 + 0x6]\n 71660: a1 = u8 [a0 + 0x7]\n 71663: a4 = a4 << 0x8\n 71666: a4 = a4 | a5\n 71669: s1 = s1 << 0x10\n 71672: a1 = a1 << 0x18\n 71675: a1 = a1 | s1\n 71678: ra = a1 | a4\n 71681: a1 = u8 [a0 + 0x19]\n 71684: a5 = u8 [a0 + 0x18]\n 71687: s1 = u8 [a0 + 0x1a]\n 71690: a2 = u8 [a0 + 0x1b]\n 71693: a1 = a1 << 0x8\n 71696: a1 = a1 | a5\n 71699: s1 = s1 << 0x10\n 71702: a2 = a2 << 0x18\n 71705: a2 = a2 | s1\n 71708: a5 = a2 | a1\n 71711: a1 = u8 [a0 + 0x9]\n 71714: a2 = u8 [a0 + 0x8]\n 71717: s1 = u8 [a0 + 0xa]\n 71720: a3 = u8 [a0 + 0xb]\n 71723: a1 = a1 << 0x8\n 71726: a1 = a1 | a2\n 71729: s1 = s1 << 0x10\n 71732: a3 = a3 << 0x18\n 71735: a3 = a3 | s1\n 71738: s1 = a3 | a1\n 71741: a1 = u8 [a0 + 0x1d]\n 71744: a2 = u8 [a0 + 0x1c]\n 71747: a3 = u8 [a0 + 0x1e]\n 71750: a4 = u8 [a0 + 0x1f]\n 71753: a1 = a1 << 0x8\n 71756: a1 = a1 | a2\n 71759: a3 = a3 << 0x10\n 71762: a4 = a4 << 0x18\n 71765: a3 = a3 | a4\n 71768: a1 = a1 | a3\n 71771: a2 = u8 [a0 + 0xd]\n 71774: a3 = u8 [a0 + 0xc]\n 71777: a4 = u8 [a0 + 0xe]\n 71780: a0 = u8 [a0 + 0xf]\n 71783: a2 = a2 << 0x8\n 71786: a2 = a2 | a3\n 71789: a4 = a4 << 0x10\n 71792: a0 = a0 << 0x18\n 71795: a0 = a0 | a4\n 71798: a0 = a0 | a2\n 71801: a0 = a0 | a1\n 71804: a5 = a5 | s1\n 71807: a0 = a0 << 0x20\n 71810: a0 = a0 | a5\n 71813: a1 = ra | t2\n 71816: a2 = t1 | t0\n 71819: a1 = a1 << 0x20\n 71822: a1 = a1 | a2\n 71825: a0 = a0 | a1\n 71828: a0 = a0 >u 0\n 71830: u64 [sp + 0x60] = a0\n 71833: a0 = u64 [sp + 0x88]\n 71837: u64 [sp + 0xd8] = a0\n 71841: a0 = u64 [sp + 0x90]\n 71845: u64 [sp + 0xd0] = a0\n 71849: a0 = u64 [sp + 0x98]\n 71853: u64 [sp + 0xc8] = a0\n 71857: s1 = u64 [sp + 0x78]\n 71860: u64 [sp + 0xc0] = s1\n 71864: u64 [sp + 248] = 0\n 71868: u64 [sp + 240] = 0\n 71872: u64 [sp + 232] = 0\n 71876: u64 [sp + 224] = 0\n 71880: u32 [sp + 160] = 0x20\n 71885: i32 a1 = sp + 0xc0\n 71889: i32 a3 = sp + 0xe0\n 71893: i32 a4 = sp + 0xa0\n 71897: a2 = 0xffffffffffffffff\n 71900: a0 = 0\n 71902: ecalli 7 // 'get_storage'\n 71904: a0 = u64 [sp + 0xe0]\n 71908: a1 = u64 [sp + 0xe8]\n 71912: a2 = u64 [sp + 0xf0]\n 71916: a3 = u64 [sp + 0xf8]\n 71920: a0 = a0 & 0xffffffffffffff00\n 71924: a4 = u64 [sp + 0x60]\n 71927: a0 = a0 | a4\n 71930: a4 = u64 [sp + 0x88]\n 71934: u64 [sp + 0xd8] = a4\n 71938: a4 = u64 [sp + 0x90]\n 71942: u64 [sp + 0xd0] = a4\n 71946: a4 = u64 [sp + 0x98]\n 71950: u64 [sp + 0xc8] = a4\n 71954: u64 [sp + 0xc0] = s1\n 71958: u64 [sp + 0xf8] = a3\n 71962: u64 [sp + 0xf0] = a2\n 71966: u64 [sp + 0xe8] = a1\n 71970: u64 [sp + 0xe0] = a0\n 71974: i32 a1 = sp + 0xc0\n 71978: i32 a3 = sp + 0xe0\n 71982: a2 = 0xffffffffffffffff\n 71985: a4 = 0x20\n 71988: a0 = 0\n 71990: ecalli 13 // 'set_storage'\n 71992: fallthrough\n      : @941 (gas: 10)\n 71993: a0 = 0x100000000\n 72003: u64 [sp + 0x60] = a0\n 72006: a0 = 0xffffffa0\n 72016: a1 = u64 [sp + 0x80]\n 72020: a0 = a1 <u a0\n 72023: a1 = u64 [sp + 0x70]\n 72026: a0 = 0 if a1 != 0\n 72028: a1 = u64 [sp + 0x58]\n 72031: a0 = 0 if a1 != 0\n 72033: jump @947 if a0 == 0\n      : @942 (gas: 4)\n 72037: a0 = u64 [sp + 0x68]\n 72040: i32 a0 = a0 + 0x60\n 72043: a1 = 0x20\n 72046: ra = 822, jump @0\n      : @943 [@dyn 411] (gas: 135)\n 72053: a1 = u8 [a0 + 0x1d]\n 72056: a2 = u8 [a0 + 0x1c]\n 72059: a3 = u8 [a0 + 0x1e]\n 72062: a4 = u8 [a0 + 0x1f]\n 72065: a1 = a1 << 0x8\n 72068: a1 = a1 | a2\n 72071: a3 = a3 << 0x10\n 72074: a4 = a4 << 0x18\n 72077: a3 = a3 | a4\n 72080: a1 = a1 | a3\n 72083: a2 = u8 [a0 + 0xd]\n 72086: a3 = u8 [a0 + 0xc]\n 72089: a4 = u8 [a0 + 0xe]\n 72092: a5 = u8 [a0 + 0xf]\n 72095: a2 = a2 << 0x8\n 72098: a2 = a2 | a3\n 72101: a4 = a4 << 0x10\n 72104: a5 = a5 << 0x18\n 72107: a4 = a4 | a5\n 72110: a2 = a2 | a4\n 72113: a1 = a1 | a2\n 72116: a1 = a1 << 0x20\n 72119: a2 = u8 [a0 + 0x9]\n 72122: a3 = u8 [a0 + 0x8]\n 72125: a4 = u8 [a0 + 0xa]\n 72128: a5 = u8 [a0 + 0xb]\n 72131: a2 = a2 << 0x8\n 72134: a2 = a2 | a3\n 72137: a4 = a4 << 0x10\n 72140: a5 = a5 << 0x18\n 72143: a4 = a4 | a5\n 72146: a2 = a2 | a4\n 72149: a3 = u8 [a0 + 0x19]\n 72152: a4 = u8 [a0 + 0x18]\n 72155: a5 = u8 [a0 + 0x1a]\n 72158: s1 = u8 [a0 + 0x1b]\n 72161: a3 = a3 << 0x8\n 72164: a3 = a3 | a4\n 72167: a5 = a5 << 0x10\n 72170: s1 = s1 << 0x18\n 72173: a5 = a5 | s1\n 72176: a3 = a3 | a5\n 72179: a2 = a2 | a3\n 72182: a1 = a1 | a2\n 72185: a2 = u8 [a0 + 0x15]\n 72188: a3 = u8 [a0 + 0x14]\n 72191: a4 = u8 [a0 + 0x16]\n 72194: a5 = u8 [a0 + 0x17]\n 72197: a2 = a2 << 0x8\n 72200: a2 = a2 | a3\n 72203: a4 = a4 << 0x10\n 72206: a5 = a5 << 0x18\n 72209: a4 = a4 | a5\n 72212: a2 = a2 | a4\n 72215: a3 = u8 [a0 + 0x5]\n 72218: a4 = u8 [a0 + 0x4]\n 72221: a5 = u8 [a0 + 0x6]\n 72224: s1 = u8 [a0 + 0x7]\n 72227: a3 = a3 << 0x8\n 72230: a3 = a3 | a4\n 72233: a5 = a5 << 0x10\n 72236: s1 = s1 << 0x18\n 72239: a5 = a5 | s1\n 72242: a3 = a3 | a5\n 72245: a2 = a2 | a3\n 72248: a3 = u8 [a0 + 0x1]\n 72251: a4 = u8 [a0]\n 72253: a5 = u8 [a0 + 0x2]\n 72256: s1 = u8 [a0 + 0x3]\n 72259: a3 = a3 << 0x8\n 72262: a3 = a3 | a4\n 72265: a5 = a5 << 0x10\n 72268: s1 = s1 << 0x18\n 72271: a4 = u8 [a0 + 0x11]\n 72274: a5 = a5 | s1\n 72277: a3 = a3 | a5\n 72280: a5 = u8 [a0 + 0x10]\n 72283: a4 = a4 << 0x8\n 72286: s1 = u8 [a0 + 0x12]\n 72289: a0 = u8 [a0 + 0x13]\n 72292: a4 = a4 | a5\n 72295: a2 = a2 << 0x20\n 72298: s1 = s1 << 0x10\n 72301: a0 = a0 << 0x18\n 72304: a0 = a0 | s1\n 72307: a0 = a0 | a4\n 72310: a0 = a0 | a3\n 72313: a0 = a0 | a2\n 72316: a0 = a0 | a1\n 72319: s1 = a0 >u 0\n 72321: a0 = u64 [sp + 0x88]\n 72325: u64 [sp + 0xd8] = a0\n 72329: a0 = u64 [sp + 0x90]\n 72333: u64 [sp + 0xd0] = a0\n 72337: a0 = u64 [sp + 0x98]\n 72341: u64 [sp + 0xc8] = a0\n 72345: a0 = u64 [sp + 0x78]\n 72348: u64 [sp + 0xc0] = a0\n 72352: u64 [sp + 248] = 0\n 72356: u64 [sp + 240] = 0\n 72360: u64 [sp + 232] = 0\n 72364: u64 [sp + 224] = 0\n 72368: u32 [sp + 160] = 0x20\n 72373: i32 a1 = sp + 0xc0\n 72377: i32 a3 = sp + 0xe0\n 72381: i32 a4 = sp + 0xa0\n 72385: a2 = 0xffffffffffffffff\n 72388: a0 = 0\n 72390: ecalli 7 // 'get_storage'\n 72392: a0 = u64 [sp + 0xe8]\n 72396: a1 = u64 [sp + 0xf0]\n 72400: a2 = u64 [sp + 0xf8]\n 72404: a3 = u64 [sp + 0xe0]\n 72408: s1 = s1 << 0x8\n 72411: a3 = a3 & 0xffffffffffff00ff\n 72416: a3 = a3 | s1\n 72419: a4 = u64 [sp + 0x88]\n 72423: u64 [sp + 0xd8] = a4\n 72427: a4 = u64 [sp + 0x90]\n 72431: u64 [sp + 0xd0] = a4\n 72435: a4 = u64 [sp + 0x98]\n 72439: u64 [sp + 0xc8] = a4\n 72443: a4 = u64 [sp + 0x78]\n 72446: u64 [sp + 0xc0] = a4\n 72450: u64 [sp + 0xf8] = a2\n 72454: u64 [sp + 0xf0] = a1\n 72458: u64 [sp + 0xe8] = a0\n 72462: u64 [sp + 0xe0] = a3\n 72466: i32 a1 = sp + 0xc0\n 72470: i32 a3 = sp + 0xe0\n 72474: a2 = 0xffffffffffffffff\n 72477: a4 = 0x20\n 72480: a0 = 0\n 72482: ecalli 13 // 'set_storage'\n 72484: fallthrough\n      : @944 (gas: 9)\n 72485: a0 = u64 [sp + 0x60]\n 72488: a0 = a0 + 0xffffffffffffff80\n 72491: a1 = u64 [sp + 0x80]\n 72495: a0 = a1 <u a0\n 72498: a1 = u64 [sp + 0x70]\n 72501: a0 = 0 if a1 != 0\n 72503: a1 = u64 [sp + 0x58]\n 72506: a0 = 0 if a1 != 0\n 72508: jump @947 if a0 == 0\n      : @945 (gas: 4)\n 72512: a0 = u64 [sp + 0x68]\n 72515: i32 a0 = a0 + 0x80\n 72519: a1 = 0x20\n 72522: ra = 824, jump @0\n      : @946 [@dyn 412] (gas: 140)\n 72529: a1 = u8 [a0 + 0x1d]\n 72532: a2 = u8 [a0 + 0x1c]\n 72535: a3 = u8 [a0 + 0x1e]\n 72538: a4 = u8 [a0 + 0x1f]\n 72541: a1 = a1 << 0x8\n 72544: a1 = a1 | a2\n 72547: a3 = a3 << 0x10\n 72550: a4 = a4 << 0x18\n 72553: a3 = a3 | a4\n 72556: a1 = a1 | a3\n 72559: a2 = u8 [a0 + 0xd]\n 72562: a3 = u8 [a0 + 0xc]\n 72565: a4 = u8 [a0 + 0xe]\n 72568: a5 = u8 [a0 + 0xf]\n 72571: a2 = a2 << 0x8\n 72574: a2 = a2 | a3\n 72577: a4 = a4 << 0x10\n 72580: a5 = a5 << 0x18\n 72583: a4 = a4 | a5\n 72586: a2 = a2 | a4\n 72589: a1 = a1 | a2\n 72592: a1 = a1 << 0x20\n 72595: a2 = u8 [a0 + 0x9]\n 72598: a3 = u8 [a0 + 0x8]\n 72601: a4 = u8 [a0 + 0xa]\n 72604: a5 = u8 [a0 + 0xb]\n 72607: a2 = a2 << 0x8\n 72610: a2 = a2 | a3\n 72613: a4 = a4 << 0x10\n 72616: a5 = a5 << 0x18\n 72619: a4 = a4 | a5\n 72622: a2 = a2 | a4\n 72625: a3 = u8 [a0 + 0x19]\n 72628: a4 = u8 [a0 + 0x18]\n 72631: a5 = u8 [a0 + 0x1a]\n 72634: s1 = u8 [a0 + 0x1b]\n 72637: a3 = a3 << 0x8\n 72640: a3 = a3 | a4\n 72643: a5 = a5 << 0x10\n 72646: s1 = s1 << 0x18\n 72649: a5 = a5 | s1\n 72652: a3 = a3 | a5\n 72655: a2 = a2 | a3\n 72658: a1 = a1 | a2\n 72661: a2 = u8 [a0 + 0x15]\n 72664: a3 = u8 [a0 + 0x14]\n 72667: a4 = u8 [a0 + 0x16]\n 72670: a5 = u8 [a0 + 0x17]\n 72673: a2 = a2 << 0x8\n 72676: a2 = a2 | a3\n 72679: a4 = a4 << 0x10\n 72682: a5 = a5 << 0x18\n 72685: a4 = a4 | a5\n 72688: a2 = a2 | a4\n 72691: a3 = u8 [a0 + 0x5]\n 72694: a4 = u8 [a0 + 0x4]\n 72697: a5 = u8 [a0 + 0x6]\n 72700: s1 = u8 [a0 + 0x7]\n 72703: a3 = a3 << 0x8\n 72706: a3 = a3 | a4\n 72709: a5 = a5 << 0x10\n 72712: s1 = s1 << 0x18\n 72715: a5 = a5 | s1\n 72718: a3 = a3 | a5\n 72721: a2 = a2 | a3\n 72724: a3 = u8 [a0 + 0x1]\n 72727: a4 = u8 [a0]\n 72729: a5 = u8 [a0 + 0x2]\n 72732: s1 = u8 [a0 + 0x3]\n 72735: a3 = a3 << 0x8\n 72738: a3 = a3 | a4\n 72741: a5 = a5 << 0x10\n 72744: s1 = s1 << 0x18\n 72747: a4 = u8 [a0 + 0x11]\n 72750: a5 = a5 | s1\n 72753: a3 = a3 | a5\n 72756: a5 = u8 [a0 + 0x10]\n 72759: a4 = a4 << 0x8\n 72762: s1 = u8 [a0 + 0x12]\n 72765: a0 = u8 [a0 + 0x13]\n 72768: a4 = a4 | a5\n 72771: a2 = a2 << 0x20\n 72774: s1 = s1 << 0x10\n 72777: a0 = a0 << 0x18\n 72780: a0 = a0 | s1\n 72783: a0 = a0 | a4\n 72786: a0 = a0 | a3\n 72789: a0 = a0 | a2\n 72792: a0 = a0 | a1\n 72795: s1 = a0 >u 0\n 72797: a0 = u64 [sp + 0x88]\n 72801: u64 [sp + 0xd8] = a0\n 72805: a0 = u64 [sp + 0x90]\n 72809: u64 [sp + 0xd0] = a0\n 72813: a0 = u64 [sp + 0x98]\n 72817: u64 [sp + 0xc8] = a0\n 72821: a0 = u64 [sp + 0x78]\n 72824: u64 [sp + 0xc0] = a0\n 72828: u64 [sp + 248] = 0\n 72832: u64 [sp + 240] = 0\n 72836: u64 [sp + 232] = 0\n 72840: u64 [sp + 224] = 0\n 72844: u32 [sp + 160] = 0x20\n 72849: i32 a1 = sp + 0xc0\n 72853: i32 a3 = sp + 0xe0\n 72857: i32 a4 = sp + 0xa0\n 72861: a2 = 0xffffffffffffffff\n 72864: a0 = 0\n 72866: ecalli 7 // 'get_storage'\n 72868: a0 = u64 [sp + 0xe8]\n 72872: a1 = u64 [sp + 0xf0]\n 72876: a2 = u64 [sp + 0xf8]\n 72880: a3 = u64 [sp + 0xe0]\n 72884: s1 = s1 << 0x10\n 72887: a3 = a3 & 0xffffffffff00ffff\n 72893: a3 = a3 | s1\n 72896: a4 = u64 [sp + 0x88]\n 72900: u64 [sp + 0xd8] = a4\n 72904: a4 = u64 [sp + 0x90]\n 72908: u64 [sp + 0xd0] = a4\n 72912: a4 = u64 [sp + 0x98]\n 72916: u64 [sp + 0xc8] = a4\n 72920: a4 = u64 [sp + 0x78]\n 72923: u64 [sp + 0xc0] = a4\n 72927: u64 [sp + 0xf8] = a2\n 72931: u64 [sp + 0xf0] = a1\n 72935: u64 [sp + 0xe8] = a0\n 72939: u64 [sp + 0xe0] = a3\n 72943: i32 a1 = sp + 0xc0\n 72947: i32 a3 = sp + 0xe0\n 72951: a2 = 0xffffffffffffffff\n 72954: a4 = 0x20\n 72957: a0 = 0\n 72959: ecalli 13 // 'set_storage'\n 72961: sp = s0 + 0xfffffffffffffee0\n 72965: ra = u64 [sp + 0x118]\n 72969: s0 = u64 [sp + 0x110]\n 72973: s1 = u64 [sp + 0x108]\n 72977: sp = sp + 0x120\n 72981: ret\n      : @947 (gas: 1)\n 72983: trap\n      : @948 [@dyn 413] (gas: 103)\n 72984: a1 = u64 [s1 + 0x140]\n 72988: a1 = reverse a1\n 72990: a2 = u64 [s1 + 0x148]\n 72994: a2 = reverse a2\n 72996: a3 = u64 [s1 + 0x150]\n 73000: a3 = reverse a3\n 73002: a4 = u64 [s1 + 0x158]\n 73006: a4 = reverse a4\n 73008: u8 [a0 + 0x18] = a4\n 73011: u8 [a0 + 0x10] = a3\n 73014: u8 [a0 + 0x8] = a2\n 73017: u8 [a0] = a1\n 73019: a5 = a4 >> 0x38\n 73022: u64 [s1 + 0x118] = a5\n 73026: u8 [a0 + 0x1f] = a5\n 73029: a5 = a4 >> 0x30\n 73032: u64 [s1 + 0x110] = a5\n 73036: u8 [a0 + 0x1e] = a5\n 73039: a5 = a4 >> 0x28\n 73042: u64 [s1 + 0x108] = a5\n 73046: u8 [a0 + 0x1d] = a5\n 73049: a5 = a4 >> 0x20\n 73052: u64 [s1 + 0x100] = a5\n 73056: u8 [a0 + 0x1c] = a5\n 73059: a5 = a4 >> 0x18\n 73062: u64 [s1 + 0xf8] = a5\n 73066: u8 [a0 + 0x1b] = a5\n 73069: a5 = a4 >> 0x10\n 73072: u64 [s1 + 0xf0] = a5\n 73076: u8 [a0 + 0x1a] = a5\n 73079: u64 [s1 + 0x128] = a4\n 73083: a4 = a4 >> 0x8\n 73086: u64 [s1 + 0xe8] = a4\n 73090: u8 [a0 + 0x19] = a4\n 73093: a4 = a3 >> 0x38\n 73096: u64 [s1 + 0xe0] = a4\n 73100: u8 [a0 + 0x17] = a4\n 73103: a4 = a3 >> 0x30\n 73106: u64 [s1 + 0xd8] = a4\n 73110: u8 [a0 + 0x16] = a4\n 73113: a4 = a3 >> 0x28\n 73116: u64 [s1 + 0xd0] = a4\n 73120: u8 [a0 + 0x15] = a4\n 73123: a4 = a3 >> 0x20\n 73126: u64 [s1 + 0xc8] = a4\n 73130: u8 [a0 + 0x14] = a4\n 73133: a4 = a3 >> 0x18\n 73136: u64 [s1 + 0xc0] = a4\n 73140: u8 [a0 + 0x13] = a4\n 73143: a4 = a3 >> 0x10\n 73146: u64 [s1 + 0xb8] = a4\n 73150: u8 [a0 + 0x12] = a4\n 73153: u64 [s1 + 0x130] = a3\n 73157: a3 = a3 >> 0x8\n 73160: u64 [s1 + 0xb0] = a3\n 73164: u8 [a0 + 0x11] = a3\n 73167: a3 = a2 >> 0x38\n 73170: u64 [s1 + 0xa8] = a3\n 73174: u8 [a0 + 0xf] = a3\n 73177: a3 = a2 >> 0x30\n 73180: u64 [s1 + 0xa0] = a3\n 73184: u8 [a0 + 0xe] = a3\n 73187: a3 = a2 >> 0x28\n 73190: u64 [s1 + 0x98] = a3\n 73194: u8 [a0 + 0xd] = a3\n 73197: a3 = a2 >> 0x20\n 73200: u64 [s1 + 0x90] = a3\n 73204: u8 [a0 + 0xc] = a3\n 73207: a3 = a2 >> 0x18\n 73210: u64 [s1 + 0x88] = a3\n 73214: u8 [a0 + 0xb] = a3\n 73217: a3 = a2 >> 0x10\n 73220: u64 [s1 + 0x80] = a3\n 73224: u8 [a0 + 0xa] = a3\n 73227: u64 [s1 + 0x138] = a2\n 73231: a2 = a2 >> 0x8\n 73234: u64 [s1 + 0x78] = a2\n 73237: u8 [a0 + 0x9] = a2\n 73240: a2 = a1 >> 0x38\n 73243: u64 [s1 + 0x70] = a2\n 73246: u8 [a0 + 0x7] = a2\n 73249: a2 = a1 >> 0x30\n 73252: u64 [s1 + 0x68] = a2\n 73255: u8 [a0 + 0x6] = a2\n 73258: a2 = a1 >> 0x28\n 73261: u64 [s1 + 0x60] = a2\n 73264: u8 [a0 + 0x5] = a2\n 73267: a2 = a1 >> 0x20\n 73270: u64 [s1 + 0x58] = a2\n 73273: u8 [a0 + 0x4] = a2\n 73276: a2 = a1 >> 0x18\n 73279: u64 [s1 + 0x50] = a2\n 73282: u8 [a0 + 0x3] = a2\n 73285: a2 = a1 >> 0x10\n 73288: u64 [s1 + 0x48] = a2\n 73291: u8 [a0 + 0x2] = a2\n 73294: u64 [s1 + 0x140] = a1\n 73298: a1 = a1 >> 0x8\n 73301: u64 [s1 + 0x40] = a1\n 73304: u8 [a0 + 0x1] = a1\n 73307: a0 = 0x20\n 73310: a1 = 0x20\n 73313: ra = 828, jump @0\n      : @949 [@dyn 414] (gas: 35)\n 73320: u8 [a0 + 31] = 0x1\n 73324: u8 [a0 + 30] = 0\n 73327: u8 [a0 + 29] = 0\n 73330: u8 [a0 + 28] = 0\n 73333: u8 [a0 + 27] = 0\n 73336: u8 [a0 + 26] = 0\n 73339: u8 [a0 + 25] = 0\n 73342: u8 [a0 + 24] = 0\n 73345: u8 [a0 + 23] = 0\n 73348: u8 [a0 + 22] = 0\n 73351: u8 [a0 + 21] = 0\n 73354: u8 [a0 + 20] = 0\n 73357: u8 [a0 + 19] = 0\n 73360: u8 [a0 + 18] = 0\n 73363: u8 [a0 + 17] = 0\n 73366: u8 [a0 + 16] = 0\n 73369: u8 [a0 + 15] = 0\n 73372: u8 [a0 + 14] = 0\n 73375: u8 [a0 + 13] = 0\n 73378: u8 [a0 + 12] = 0\n 73381: u8 [a0 + 11] = 0\n 73384: u8 [a0 + 10] = 0\n 73387: u8 [a0 + 9] = 0\n 73390: u8 [a0 + 8] = 0\n 73393: u8 [a0 + 7] = 0\n 73396: u8 [a0 + 6] = 0\n 73399: u8 [a0 + 5] = 0\n 73402: u8 [a0 + 4] = 0\n 73405: u8 [a0 + 3] = 0\n 73408: u8 [a0 + 2] = 0\n 73411: u8 [a0 + 1] = 0\n 73414: u8 [a0 + 0] = 0\n 73416: a1 = 0x40\n 73419: a0 = 0\n 73421: ra = 830, jump @0\n      : @950 [@dyn 415] (gas: 40)\n 73428: i32 a0 = a0 + 0\n 73430: i32 a2 = s1 + 0x360\n 73434: a1 = 0x40\n 73437: ecalli 8 // 'hash_keccak_256'\n 73439: a0 = u64 [s1 + 0x360]\n 73443: a1 = u64 [s1 + 0x368]\n 73447: a2 = u64 [s1 + 0x370]\n 73451: a3 = u64 [s1 + 0x378]\n 73455: t0 = reverse a0\n 73457: a5 = reverse a1\n 73459: a2 = reverse a2\n 73461: a1 = reverse a3\n 73463: a0 = a1 + 0x4\n 73466: u64 [s1 + 0x120] = a1\n 73470: a1 = a0 <u a1\n 73473: a4 = a2 + a1\n 73476: u64 [s1 + 0x148] = a2\n 73480: a3 = a4 <u a2\n 73483: a3 = a1 if a1 == 0\n 73486: a3 = a3 + a5\n 73489: u64 [s1 + 0x150] = a5\n 73493: a1 = a3 <u a5\n 73496: u64 [s1 + 0x158] = t0\n 73500: a1 = a1 + t0\n 73503: u64 [s1 + 0x328] = a4\n 73507: u64 [s1 + 0x320] = a0\n 73511: u64 [s1 + 0x330] = a3\n 73515: u64 [s1 + 0x338] = a1\n 73519: u64 [s1 + 888] = 0\n 73523: u64 [s1 + 880] = 0\n 73527: u64 [s1 + 872] = 0\n 73531: u64 [s1 + 864] = 0\n 73535: u32 [s1 + 832] = 0x20\n 73540: i32 a1 = s1 + 0x320\n 73544: i32 a3 = s1 + 0x360\n 73548: i32 a4 = s1 + 0x340\n 73552: a2 = 0xffffffffffffffff\n 73555: a0 = 0\n 73557: ecalli 7 // 'get_storage'\n 73559: fallthrough\n      : @951 (gas: 2)\n 73560: a0 = u8 [s1 + 0x360]\n 73564: jump @953 if a0 != 0\n      : @952 (gas: 1)\n 73567: jump @992\n      : @953 (gas: 47)\n 73570: a0 = sp + 0xffffffffffffffe0\n 73573: a0 = a0 & 0xffffffffffffffe0\n 73576: u64 [s1 + 0x20] = a0\n 73579: sp = a0\n 73581: u64 [a0 + 24] = 0\n 73584: u64 [a0 + 16] = 0\n 73587: u64 [a0 + 8] = 0\n 73590: u64 [a0 + 0] = 0\n 73592: i32 a0 = a0 + 0\n 73594: ecalli 14 // 'value_transferred'\n 73596: a1 = u64 [s1 + 0x20]\n 73599: a0 = u64 [a1]\n 73601: u64 [s1 + 0x38] = a0\n 73604: a0 = u64 [a1 + 0x10]\n 73607: u64 [s1 + 0x30] = a0\n 73610: a0 = u64 [a1 + 0x8]\n 73613: u64 [s1 + 0x28] = a0\n 73616: a0 = u64 [a1 + 0x18]\n 73619: u64 [s1 + 0x20] = a0\n 73622: a0 = u64 [s1 + 0x120]\n 73626: a0 = a0 + 0x1\n 73629: a1 = a0 <u 0x1\n 73632: a2 = u64 [s1 + 0x148]\n 73636: a1 = a1 + a2\n 73639: a2 = a0 | a1\n 73642: a2 = a2 <u 0x1\n 73645: a3 = u64 [s1 + 0x150]\n 73649: a2 = a2 + a3\n 73652: a3 = a2 <u a3\n 73655: a4 = u64 [s1 + 0x158]\n 73659: a3 = a3 + a4\n 73662: u64 [s1 + 0x338] = a3\n 73666: u64 [s1 + 0x330] = a2\n 73670: u64 [s1 + 0x328] = a1\n 73674: u64 [s1 + 0x320] = a0\n 73678: u64 [s1 + 888] = 0\n 73682: u64 [s1 + 880] = 0\n 73686: u64 [s1 + 872] = 0\n 73690: u64 [s1 + 864] = 0\n 73694: u32 [s1 + 832] = 0x20\n 73699: i32 a1 = s1 + 0x320\n 73703: i32 a3 = s1 + 0x360\n 73707: i32 a4 = s1 + 0x340\n 73711: a2 = 0xffffffffffffffff\n 73714: a0 = 0\n 73716: ecalli 7 // 'get_storage'\n 73718: fallthrough\n      : @954 (gas: 16)\n 73719: a0 = u64 [s1 + 0x378]\n 73723: a1 = u64 [s1 + 0x368]\n 73727: a2 = u64 [s1 + 0x360]\n 73731: a3 = u64 [s1 + 0x370]\n 73735: a4 = u64 [s1 + 0x20]\n 73738: a0 = a0 ^ a4\n 73741: a4 = u64 [s1 + 0x28]\n 73744: a1 = a1 ^ a4\n 73747: a0 = a0 | a1\n 73750: a1 = u64 [s1 + 0x30]\n 73753: a1 = a1 ^ a3\n 73756: a3 = u64 [s1 + 0x38]\n 73759: a2 = a2 ^ a3\n 73762: a1 = a1 | a2\n 73765: a0 = a0 | a1\n 73768: jump @956 if a0 == 0\n      : @955 (gas: 1)\n 73771: jump @997\n      : @956 (gas: 2)\n 73774: a1 = 0x20\n 73777: ra = 832, jump @0\n      : @957 [@dyn 416] (gas: 67)\n 73784: a1 = u64 [s1 + 0x130]\n 73788: u8 [a0 + 0x10] = a1\n 73791: a1 = u64 [s1 + 0xa8]\n 73795: u8 [a0 + 0xf] = a1\n 73798: a1 = u64 [s1 + 0xa0]\n 73802: u8 [a0 + 0xe] = a1\n 73805: a1 = u64 [s1 + 0x98]\n 73809: u8 [a0 + 0xd] = a1\n 73812: a1 = u64 [s1 + 0x90]\n 73816: u8 [a0 + 0xc] = a1\n 73819: a1 = u64 [s1 + 0x88]\n 73823: u8 [a0 + 0xb] = a1\n 73826: a1 = u64 [s1 + 0x80]\n 73830: u8 [a0 + 0xa] = a1\n 73833: a1 = u64 [s1 + 0x78]\n 73836: u8 [a0 + 0x9] = a1\n 73839: a1 = u64 [s1 + 0x138]\n 73843: u8 [a0 + 0x8] = a1\n 73846: a1 = u64 [s1 + 0x70]\n 73849: u8 [a0 + 0x7] = a1\n 73852: a1 = u64 [s1 + 0x68]\n 73855: u8 [a0 + 0x6] = a1\n 73858: a1 = u64 [s1 + 0x60]\n 73861: u8 [a0 + 0x5] = a1\n 73864: a1 = u64 [s1 + 0x58]\n 73867: u8 [a0 + 0x4] = a1\n 73870: a1 = u64 [s1 + 0x50]\n 73873: u8 [a0 + 0x3] = a1\n 73876: a1 = u64 [s1 + 0x48]\n 73879: u8 [a0 + 0x2] = a1\n 73882: a1 = u64 [s1 + 0x40]\n 73885: u8 [a0 + 0x1] = a1\n 73888: a1 = u64 [s1 + 0x140]\n 73892: u8 [a0] = a1\n 73894: a1 = u64 [s1 + 0x128]\n 73898: u8 [a0 + 0x18] = a1\n 73901: a1 = u64 [s1 + 0xe0]\n 73905: u8 [a0 + 0x17] = a1\n 73908: a1 = u64 [s1 + 0xd8]\n 73912: u8 [a0 + 0x16] = a1\n 73915: a1 = u64 [s1 + 0xd0]\n 73919: u8 [a0 + 0x15] = a1\n 73922: a1 = u64 [s1 + 0xc8]\n 73926: u8 [a0 + 0x14] = a1\n 73929: a1 = u64 [s1 + 0xc0]\n 73933: u8 [a0 + 0x13] = a1\n 73936: a1 = u64 [s1 + 0xb8]\n 73940: u8 [a0 + 0x12] = a1\n 73943: a1 = u64 [s1 + 0xb0]\n 73947: u8 [a0 + 0x11] = a1\n 73950: a1 = u64 [s1 + 0x118]\n 73954: u8 [a0 + 0x1f] = a1\n 73957: a1 = u64 [s1 + 0x110]\n 73961: u8 [a0 + 0x1e] = a1\n 73964: a1 = u64 [s1 + 0x108]\n 73968: u8 [a0 + 0x1d] = a1\n 73971: a1 = u64 [s1 + 0x100]\n 73975: u8 [a0 + 0x1c] = a1\n 73978: a1 = u64 [s1 + 0xf8]\n 73982: u8 [a0 + 0x1b] = a1\n 73985: a1 = u64 [s1 + 0xf0]\n 73989: u8 [a0 + 0x1a] = a1\n 73992: a1 = u64 [s1 + 0xe8]\n 73996: u8 [a0 + 0x19] = a1\n 73999: a0 = 0x20\n 74002: a1 = 0x20\n 74005: ra = 834, jump @0\n      : @958 [@dyn 417] (gas: 35)\n 74012: u8 [a0 + 31] = 0x2\n 74016: u8 [a0 + 30] = 0\n 74019: u8 [a0 + 29] = 0\n 74022: u8 [a0 + 28] = 0\n 74025: u8 [a0 + 27] = 0\n 74028: u8 [a0 + 26] = 0\n 74031: u8 [a0 + 25] = 0\n 74034: u8 [a0 + 24] = 0\n 74037: u8 [a0 + 23] = 0\n 74040: u8 [a0 + 22] = 0\n 74043: u8 [a0 + 21] = 0\n 74046: u8 [a0 + 20] = 0\n 74049: u8 [a0 + 19] = 0\n 74052: u8 [a0 + 18] = 0\n 74055: u8 [a0 + 17] = 0\n 74058: u8 [a0 + 16] = 0\n 74061: u8 [a0 + 15] = 0\n 74064: u8 [a0 + 14] = 0\n 74067: u8 [a0 + 13] = 0\n 74070: u8 [a0 + 12] = 0\n 74073: u8 [a0 + 11] = 0\n 74076: u8 [a0 + 10] = 0\n 74079: u8 [a0 + 9] = 0\n 74082: u8 [a0 + 8] = 0\n 74085: u8 [a0 + 7] = 0\n 74088: u8 [a0 + 6] = 0\n 74091: u8 [a0 + 5] = 0\n 74094: u8 [a0 + 4] = 0\n 74097: u8 [a0 + 3] = 0\n 74100: u8 [a0 + 2] = 0\n 74103: u8 [a0 + 1] = 0\n 74106: u8 [a0 + 0] = 0\n 74108: a1 = 0x40\n 74111: a0 = 0\n 74113: ra = 836, jump @0\n      : @959 [@dyn 418] (gas: 32)\n 74120: i32 a0 = a0 + 0\n 74122: i32 a2 = s1 + 0x360\n 74126: a1 = 0x40\n 74129: ecalli 8 // 'hash_keccak_256'\n 74131: a0 = u64 [s1 + 0x360]\n 74135: u64 [s1 + 0x158] = a0\n 74139: a0 = u64 [s1 + 0x368]\n 74143: u64 [s1 + 0x150] = a0\n 74147: a0 = u64 [s1 + 0x370]\n 74151: u64 [s1 + 0x148] = a0\n 74155: a0 = u64 [s1 + 0x378]\n 74159: u64 [s1 + 0x120] = a0\n 74163: i32 a0 = s1 + 0x2a0\n 74167: ecalli 4 // 'caller'\n 74169: a0 = u64 [s1 + 0x2a8]\n 74173: a1 = i32 [s1 + 0x2b0]\n 74177: a3 = u64 [s1 + 0x2a0]\n 74181: u64 [s1 + 0x30] = a3\n 74184: a0 = reverse a0\n 74186: a2 = a0 << 0x20\n 74189: a1 = reverse a1\n 74191: a1 = a1 >> 0x20\n 74194: a1 = a1 | a2\n 74197: u64 [s1 + 0x38] = a1\n 74200: a0 = a0 >> 0x20\n 74203: a1 = reverse a3\n 74205: a1 = a1 << 0x20\n 74208: a0 = a0 | a1\n 74211: u64 [s1 + 0x28] = a0\n 74214: a1 = 0x20\n 74217: a0 = 0\n 74219: ra = 838, jump @0\n      : @960 [@dyn 419] (gas: 57)\n 74226: a1 = u64 [s1 + 0x28]\n 74229: a1 = reverse a1\n 74231: a2 = u64 [s1 + 0x38]\n 74234: a2 = reverse a2\n 74236: a4 = u64 [s1 + 0x30]\n 74239: a3 = a4 >> 0x18\n 74242: u8 [a0 + 0xf] = a3\n 74245: a3 = a4 >> 0x10\n 74248: u8 [a0 + 0xe] = a3\n 74251: a3 = a4 >> 0x8\n 74254: u8 [a0 + 0xd] = a3\n 74257: u8 [a0 + 0xc] = a4\n 74260: u8 [a0 + 11] = 0\n 74263: u8 [a0 + 10] = 0\n 74266: u8 [a0 + 9] = 0\n 74269: u8 [a0 + 8] = 0\n 74272: u8 [a0 + 7] = 0\n 74275: u8 [a0 + 6] = 0\n 74278: u8 [a0 + 5] = 0\n 74281: u8 [a0 + 4] = 0\n 74284: u8 [a0 + 3] = 0\n 74287: u8 [a0 + 2] = 0\n 74290: u8 [a0 + 1] = 0\n 74293: u8 [a0 + 0] = 0\n 74295: u8 [a0 + 0x18] = a2\n 74298: u8 [a0 + 0x10] = a1\n 74301: a3 = a2 >> 0x38\n 74304: u8 [a0 + 0x1f] = a3\n 74307: a3 = a2 >> 0x30\n 74310: u8 [a0 + 0x1e] = a3\n 74313: a3 = a2 >> 0x28\n 74316: u8 [a0 + 0x1d] = a3\n 74319: a3 = a2 >> 0x20\n 74322: u8 [a0 + 0x1c] = a3\n 74325: a3 = a2 >> 0x18\n 74328: u8 [a0 + 0x1b] = a3\n 74331: a3 = a2 >> 0x10\n 74334: u8 [a0 + 0x1a] = a3\n 74337: a2 = a2 >> 0x8\n 74340: u8 [a0 + 0x19] = a2\n 74343: a2 = a1 >> 0x38\n 74346: u8 [a0 + 0x17] = a2\n 74349: a2 = a1 >> 0x30\n 74352: u8 [a0 + 0x16] = a2\n 74355: a2 = a1 >> 0x28\n 74358: u8 [a0 + 0x15] = a2\n 74361: a2 = a1 >> 0x20\n 74364: u8 [a0 + 0x14] = a2\n 74367: a2 = a1 >> 0x18\n 74370: u8 [a0 + 0x13] = a2\n 74373: a2 = a1 >> 0x10\n 74376: u8 [a0 + 0x12] = a2\n 74379: a1 = a1 >> 0x8\n 74382: u8 [a0 + 0x11] = a1\n 74385: a0 = 0x20\n 74388: a1 = 0x20\n 74391: ra = 840, jump @0\n      : @961 [@dyn 420] (gas: 67)\n 74398: a2 = u64 [s1 + 0x120]\n 74402: a1 = a2 >> 0x38\n 74405: u8 [a0 + 0x1f] = a1\n 74408: a1 = a2 >> 0x30\n 74411: u8 [a0 + 0x1e] = a1\n 74414: a1 = a2 >> 0x28\n 74417: u8 [a0 + 0x1d] = a1\n 74420: a1 = a2 >> 0x20\n 74423: u8 [a0 + 0x1c] = a1\n 74426: a1 = a2 >> 0x18\n 74429: u8 [a0 + 0x1b] = a1\n 74432: a1 = a2 >> 0x10\n 74435: u8 [a0 + 0x1a] = a1\n 74438: a1 = a2 >> 0x8\n 74441: u8 [a0 + 0x19] = a1\n 74444: u8 [a0 + 0x18] = a2\n 74447: a2 = u64 [s1 + 0x148]\n 74451: a1 = a2 >> 0x38\n 74454: u8 [a0 + 0x17] = a1\n 74457: a1 = a2 >> 0x30\n 74460: u8 [a0 + 0x16] = a1\n 74463: a1 = a2 >> 0x28\n 74466: u8 [a0 + 0x15] = a1\n 74469: a1 = a2 >> 0x20\n 74472: u8 [a0 + 0x14] = a1\n 74475: a1 = a2 >> 0x18\n 74478: u8 [a0 + 0x13] = a1\n 74481: a1 = a2 >> 0x10\n 74484: u8 [a0 + 0x12] = a1\n 74487: a1 = a2 >> 0x8\n 74490: u8 [a0 + 0x11] = a1\n 74493: u8 [a0 + 0x10] = a2\n 74496: a2 = u64 [s1 + 0x150]\n 74500: a1 = a2 >> 0x38\n 74503: u8 [a0 + 0xf] = a1\n 74506: a1 = a2 >> 0x30\n 74509: u8 [a0 + 0xe] = a1\n 74512: a1 = a2 >> 0x28\n 74515: u8 [a0 + 0xd] = a1\n 74518: a1 = a2 >> 0x20\n 74521: u8 [a0 + 0xc] = a1\n 74524: a1 = a2 >> 0x18\n 74527: u8 [a0 + 0xb] = a1\n 74530: a1 = a2 >> 0x10\n 74533: u8 [a0 + 0xa] = a1\n 74536: a1 = a2 >> 0x8\n 74539: u8 [a0 + 0x9] = a1\n 74542: u8 [a0 + 0x8] = a2\n 74545: a2 = u64 [s1 + 0x158]\n 74549: a1 = a2 >> 0x38\n 74552: u8 [a0 + 0x7] = a1\n 74555: a1 = a2 >> 0x30\n 74558: u8 [a0 + 0x6] = a1\n 74561: a1 = a2 >> 0x28\n 74564: u8 [a0 + 0x5] = a1\n 74567: a1 = a2 >> 0x20\n 74570: u8 [a0 + 0x4] = a1\n 74573: a1 = a2 >> 0x18\n 74576: u8 [a0 + 0x3] = a1\n 74579: a1 = a2 >> 0x10\n 74582: u8 [a0 + 0x2] = a1\n 74585: a1 = a2 >> 0x8\n 74588: u8 [a0 + 0x1] = a1\n 74591: u8 [a0] = a2\n 74593: a1 = 0x40\n 74596: a0 = 0\n 74598: ra = 842, jump @0\n      : @962 [@dyn 421] (gas: 36)\n 74605: i32 a0 = a0 + 0\n 74607: i32 a2 = s1 + 0x360\n 74611: a1 = 0x40\n 74614: ecalli 8 // 'hash_keccak_256'\n 74616: a0 = u64 [s1 + 0x360]\n 74620: a1 = u64 [s1 + 0x368]\n 74624: a2 = u64 [s1 + 0x370]\n 74628: a3 = u64 [s1 + 0x378]\n 74632: a0 = reverse a0\n 74634: a1 = reverse a1\n 74636: a2 = reverse a2\n 74638: a3 = reverse a3\n 74640: a3 = a3 + 0x1\n 74643: a4 = a3 <u 0x1\n 74646: a2 = a2 + a4\n 74649: a4 = a3 | a2\n 74652: a4 = a4 <u 0x1\n 74655: a4 = a4 + a1\n 74658: a1 = a4 <u a1\n 74661: a0 = a0 + a1\n 74664: u64 [s1 + 0x328] = a2\n 74668: u64 [s1 + 0x320] = a3\n 74672: u64 [s1 + 0x330] = a4\n 74676: u64 [s1 + 0x338] = a0\n 74680: u64 [s1 + 888] = 0\n 74684: u64 [s1 + 880] = 0\n 74688: u64 [s1 + 872] = 0\n 74692: u64 [s1 + 864] = 0\n 74696: u32 [s1 + 832] = 0x20\n 74701: i32 a1 = s1 + 0x320\n 74705: i32 a3 = s1 + 0x360\n 74709: i32 a4 = s1 + 0x340\n 74713: a2 = 0xffffffffffffffff\n 74716: a0 = 0\n 74718: ecalli 7 // 'get_storage'\n 74720: fallthrough\n      : @963 (gas: 8)\n 74721: a0 = u64 [s1 + 0x370]\n 74725: a1 = u64 [s1 + 0x378]\n 74729: a2 = u64 [s1 + 0x368]\n 74733: a3 = u64 [s1 + 0x360]\n 74737: a1 = a1 | a2\n 74740: a0 = a0 | a3\n 74743: a0 = a0 | a1\n 74746: jump @965 if a0 == 0\n      : @964 (gas: 1)\n 74749: jump @1002\n      : @965 (gas: 34)\n 74752: i32 a0 = s1 + 0x2c0\n 74756: ecalli 4 // 'caller'\n 74758: a0 = u32 [s1 + 0x2d0]\n 74762: u64 [s1 + 0x148] = a0\n 74766: a0 = u64 [s1 + 0x2c8]\n 74770: u64 [s1 + 0x28] = a0\n 74773: a0 = u64 [s1 + 0x2c0]\n 74777: u64 [s1 + 0x120] = a0\n 74781: a0 = sp + 0xffffffffffffffe0\n 74784: a0 = a0 & 0xffffffffffffffe0\n 74787: u64 [s1 + 0x158] = a0\n 74791: sp = a0\n 74793: u64 [a0 + 24] = 0\n 74796: u64 [a0 + 16] = 0\n 74799: u64 [a0 + 8] = 0\n 74802: u64 [a0 + 0] = 0\n 74804: i32 a0 = a0 + 0\n 74806: ecalli 14 // 'value_transferred'\n 74808: a1 = u64 [s1 + 0x158]\n 74812: a0 = u64 [a1 + 0x18]\n 74815: u64 [s1 + 0x8] = a0\n 74818: a0 = u64 [a1 + 0x10]\n 74821: u64 [s1 + 0x10] = a0\n 74824: a0 = u64 [a1 + 0x8]\n 74827: u64 [s1 + 0x18] = a0\n 74830: a0 = u64 [a1]\n 74832: u64 [s1 + 0x20] = a0\n 74835: u64 [s1 + 504] = 0\n 74839: u64 [s1 + 496] = 0\n 74843: u64 [s1 + 480] = 0xa0\n 74849: a0 = s1 + 0x200\n 74853: a1 = s1 + 0x1e0\n 74857: u64 [s1 + 488] = 0\n 74861: ra = 844, jump @76\n      : @966 [@dyn 422] (gas: 16)\n 74868: a2 = u64 [s1 + 0x218]\n 74872: a3 = u64 [s1 + 0x210]\n 74876: a0 = u64 [s1 + 0x208]\n 74880: a1 = u64 [s1 + 0x200]\n 74884: u64 [s1 + 0x150] = a0\n 74888: u64 [s1 + 0x30] = a2\n 74891: a0 = a0 | a2\n 74894: u64 [s1 + 0x158] = a1\n 74898: a1 = a1 | a3\n 74901: a1 = a1 | a0\n 74904: a1 = a1 >> 0x20\n 74907: u64 [s1 + 0x38] = a3\n 74910: a0 = a0 | a3\n 74913: a0 = a0 << 0x20\n 74916: a0 = a0 | a1\n 74919: jump @968 if a0 == 0\n      : @967 (gas: 1)\n 74922: jump @1008\n      : @968 (gas: 18)\n 74925: a0 = u64 [s1 + 0x120]\n 74929: a0 = reverse a0\n 74931: a0 = a0 << 0x20\n 74934: a1 = u64 [s1 + 0x28]\n 74937: a1 = reverse a1\n 74939: a2 = a1 >> 0x20\n 74942: a0 = a0 | a2\n 74945: u64 [s1 + 0x28] = a0\n 74948: a1 = a1 << 0x20\n 74951: a0 = u64 [s1 + 0x148]\n 74955: a0 = reverse a0\n 74957: a0 = a0 >> 0x20\n 74960: a0 = a0 | a1\n 74963: u64 [s1] = a0\n 74965: a0 = i32 [s1 + 0x158]\n 74969: a1 = 0x20\n 74972: u64 [s1 + 0x148] = a0\n 74976: ra = 846, jump @0\n      : @969 [@dyn 423] (gas: 67)\n 74983: a1 = u64 [s1]\n 74985: a1 = reverse a1\n 74987: a2 = u64 [s1 + 0x28]\n 74990: a2 = reverse a2\n 74992: a4 = u64 [s1 + 0x120]\n 74996: a3 = a4 >> 0x18\n 74999: u8 [a0 + 0xf] = a3\n 75002: a3 = a4 >> 0x10\n 75005: u8 [a0 + 0xe] = a3\n 75008: a3 = a4 >> 0x8\n 75011: u8 [a0 + 0xd] = a3\n 75014: u8 [a0 + 0xc] = a4\n 75017: u8 [a0 + 11] = 0\n 75020: u8 [a0 + 10] = 0\n 75023: u8 [a0 + 9] = 0\n 75026: u8 [a0 + 8] = 0\n 75029: u8 [a0 + 7] = 0\n 75032: u8 [a0 + 6] = 0\n 75035: u8 [a0 + 5] = 0\n 75038: u8 [a0 + 4] = 0\n 75041: u8 [a0 + 3] = 0\n 75044: u8 [a0 + 2] = 0\n 75047: u8 [a0 + 1] = 0\n 75050: u8 [a0 + 0] = 0\n 75052: u8 [a0 + 0x10] = a2\n 75055: u8 [a0 + 0x18] = a1\n 75058: a3 = a2 >> 0x38\n 75061: u8 [a0 + 0x17] = a3\n 75064: a3 = a2 >> 0x30\n 75067: u8 [a0 + 0x16] = a3\n 75070: a3 = a2 >> 0x28\n 75073: u8 [a0 + 0x15] = a3\n 75076: a3 = a2 >> 0x20\n 75079: u8 [a0 + 0x14] = a3\n 75082: a3 = a2 >> 0x18\n 75085: u8 [a0 + 0x13] = a3\n 75088: a3 = a2 >> 0x10\n 75091: u8 [a0 + 0x12] = a3\n 75094: a2 = a2 >> 0x8\n 75097: u8 [a0 + 0x11] = a2\n 75100: a2 = a1 >> 0x38\n 75103: u8 [a0 + 0x1f] = a2\n 75106: a2 = a1 >> 0x30\n 75109: u8 [a0 + 0x1e] = a2\n 75112: a2 = a1 >> 0x28\n 75115: u8 [a0 + 0x1d] = a2\n 75118: a2 = a1 >> 0x20\n 75121: u8 [a0 + 0x1c] = a2\n 75124: a2 = a1 >> 0x18\n 75127: u8 [a0 + 0x1b] = a2\n 75130: a2 = a1 >> 0x10\n 75133: u8 [a0 + 0x1a] = a2\n 75136: a1 = a1 >> 0x8\n 75139: a2 = u64 [s1 + 0x30]\n 75142: a4 = u64 [s1 + 0x38]\n 75145: a4 = a4 | a2\n 75148: a2 = 0x100000000\n 75158: u64 [s1 + 0x28] = a2\n 75161: a2 = 0xffffffe0\n 75171: a3 = u64 [s1 + 0x158]\n 75175: a2 = a3 <u a2\n 75178: a3 = u64 [s1 + 0x150]\n 75182: a2 = 0 if a3 != 0\n 75184: u64 [s1 + 0x120] = a4\n 75188: a2 = 0 if a4 != 0\n 75190: u8 [a0 + 0x19] = a1\n 75193: jump @971 if a2 != 0\n      : @970 (gas: 1)\n 75196: jump @1008\n      : @971 (gas: 4)\n 75199: a0 = u64 [s1 + 0x148]\n 75203: i32 a0 = a0 + 0x20\n 75206: a1 = 0x20\n 75209: ra = 848, jump @0\n      : @972 [@dyn 424] (gas: 77)\n 75216: a1 = u64 [s1 + 0x8]\n 75219: a1 = reverse a1\n 75221: a2 = u64 [s1 + 0x10]\n 75224: a2 = reverse a2\n 75226: a3 = u64 [s1 + 0x18]\n 75229: a3 = reverse a3\n 75231: a4 = u64 [s1 + 0x20]\n 75234: a4 = reverse a4\n 75236: a5 = a4 >> 0x38\n 75239: u8 [a0 + 0x1f] = a5\n 75242: a5 = a4 >> 0x30\n 75245: u8 [a0 + 0x1e] = a5\n 75248: a5 = a4 >> 0x28\n 75251: u8 [a0 + 0x1d] = a5\n 75254: a5 = a4 >> 0x20\n 75257: u8 [a0 + 0x1c] = a5\n 75260: a5 = a4 >> 0x18\n 75263: u8 [a0 + 0x1b] = a5\n 75266: a5 = a4 >> 0x10\n 75269: u8 [a0 + 0x1a] = a5\n 75272: a5 = a4 >> 0x8\n 75275: u8 [a0 + 0x19] = a5\n 75278: u8 [a0 + 0x18] = a4\n 75281: u8 [a0 + 0x10] = a3\n 75284: a4 = a3 >> 0x38\n 75287: u8 [a0 + 0x17] = a4\n 75290: a4 = a3 >> 0x30\n 75293: u8 [a0 + 0x16] = a4\n 75296: a4 = a3 >> 0x28\n 75299: u8 [a0 + 0x15] = a4\n 75302: a4 = a3 >> 0x20\n 75305: u8 [a0 + 0x14] = a4\n 75308: a4 = a3 >> 0x18\n 75311: u8 [a0 + 0x13] = a4\n 75314: a4 = a3 >> 0x10\n 75317: u8 [a0 + 0x12] = a4\n 75320: a3 = a3 >> 0x8\n 75323: u8 [a0 + 0x11] = a3\n 75326: u8 [a0 + 0x8] = a2\n 75329: a3 = a2 >> 0x38\n 75332: u8 [a0 + 0xf] = a3\n 75335: a3 = a2 >> 0x30\n 75338: u8 [a0 + 0xe] = a3\n 75341: a3 = a2 >> 0x28\n 75344: u8 [a0 + 0xd] = a3\n 75347: a3 = a2 >> 0x20\n 75350: u8 [a0 + 0xc] = a3\n 75353: a3 = a2 >> 0x18\n 75356: u8 [a0 + 0xb] = a3\n 75359: a3 = a2 >> 0x10\n 75362: u8 [a0 + 0xa] = a3\n 75365: a2 = a2 >> 0x8\n 75368: u8 [a0 + 0x9] = a2\n 75371: u8 [a0] = a1\n 75373: a2 = a1 >> 0x38\n 75376: u8 [a0 + 0x7] = a2\n 75379: a2 = a1 >> 0x30\n 75382: u8 [a0 + 0x6] = a2\n 75385: a2 = a1 >> 0x28\n 75388: u8 [a0 + 0x5] = a2\n 75391: a2 = a1 >> 0x20\n 75394: u8 [a0 + 0x4] = a2\n 75397: a2 = a1 >> 0x18\n 75400: u8 [a0 + 0x3] = a2\n 75403: a2 = a1 >> 0x10\n 75406: u8 [a0 + 0x2] = a2\n 75409: a1 = a1 >> 0x8\n 75412: a2 = u64 [s1 + 0x28]\n 75415: a2 = a2 + 0xffffffffffffffc0\n 75418: a3 = u64 [s1 + 0x158]\n 75422: a2 = a3 <u a2\n 75425: a3 = u64 [s1 + 0x150]\n 75429: a2 = 0 if a3 != 0\n 75431: a3 = u64 [s1 + 0x120]\n 75435: a2 = 0 if a3 != 0\n 75437: u8 [a0 + 0x1] = a1\n 75440: jump @974 if a2 != 0\n      : @973 (gas: 1)\n 75443: jump @1008\n      : @974 (gas: 4)\n 75446: a0 = u64 [s1 + 0x148]\n 75450: i32 a0 = a0 + 0x40\n 75453: a1 = 0x20\n 75456: ra = 850, jump @0\n      : @975 [@dyn 425] (gas: 42)\n 75463: u8 [a0 + 31] = 0\n 75466: u8 [a0 + 30] = 0\n 75469: u8 [a0 + 29] = 0\n 75472: u8 [a0 + 28] = 0\n 75475: u8 [a0 + 27] = 0\n 75478: u8 [a0 + 26] = 0\n 75481: u8 [a0 + 25] = 0\n 75484: u8 [a0 + 24] = 0\n 75487: u8 [a0 + 23] = 0\n 75490: u8 [a0 + 22] = 0\n 75493: u8 [a0 + 21] = 0\n 75496: u8 [a0 + 20] = 0\n 75499: u8 [a0 + 19] = 0\n 75502: u8 [a0 + 18] = 0\n 75505: u8 [a0 + 17] = 0\n 75508: u8 [a0 + 16] = 0\n 75511: u8 [a0 + 15] = 0\n 75514: u8 [a0 + 14] = 0\n 75517: u8 [a0 + 13] = 0\n 75520: u8 [a0 + 12] = 0\n 75523: u8 [a0 + 11] = 0\n 75526: u8 [a0 + 10] = 0\n 75529: u8 [a0 + 9] = 0\n 75532: u8 [a0 + 8] = 0\n 75535: u8 [a0 + 7] = 0\n 75538: u8 [a0 + 6] = 0\n 75541: u8 [a0 + 5] = 0\n 75544: u8 [a0 + 4] = 0\n 75547: u8 [a0 + 3] = 0\n 75550: u8 [a0 + 2] = 0\n 75553: u8 [a0 + 1] = 0\n 75556: a1 = 0x100000000\n 75566: u64 [s1 + 0x28] = a1\n 75569: a1 = 0xffffffa0\n 75579: a2 = u64 [s1 + 0x158]\n 75583: a1 = a2 <u a1\n 75586: a2 = u64 [s1 + 0x150]\n 75590: a1 = 0 if a2 != 0\n 75592: a2 = u64 [s1 + 0x120]\n 75596: a1 = 0 if a2 != 0\n 75598: u8 [a0 + 0] = 0\n 75600: jump @977 if a1 != 0\n      : @976 (gas: 1)\n 75603: jump @1008\n      : @977 (gas: 4)\n 75606: a0 = u64 [s1 + 0x148]\n 75610: i32 a0 = a0 + 0x60\n 75613: a1 = 0x20\n 75616: ra = 852, jump @0\n      : @978 [@dyn 426] (gas: 41)\n 75623: u8 [a0 + 31] = 0\n 75626: u8 [a0 + 30] = 0\n 75629: u8 [a0 + 29] = 0\n 75632: u8 [a0 + 28] = 0\n 75635: u8 [a0 + 27] = 0\n 75638: u8 [a0 + 26] = 0\n 75641: u8 [a0 + 25] = 0\n 75644: u8 [a0 + 24] = 0\n 75647: u8 [a0 + 23] = 0\n 75650: u8 [a0 + 22] = 0\n 75653: u8 [a0 + 21] = 0\n 75656: u8 [a0 + 20] = 0\n 75659: u8 [a0 + 19] = 0\n 75662: u8 [a0 + 18] = 0\n 75665: u8 [a0 + 17] = 0\n 75668: u8 [a0 + 16] = 0\n 75671: u8 [a0 + 15] = 0\n 75674: u8 [a0 + 14] = 0\n 75677: u8 [a0 + 13] = 0\n 75680: u8 [a0 + 12] = 0\n 75683: u8 [a0 + 11] = 0\n 75686: u8 [a0 + 10] = 0\n 75689: u8 [a0 + 9] = 0\n 75692: u8 [a0 + 8] = 0\n 75695: u8 [a0 + 7] = 0\n 75698: u8 [a0 + 6] = 0\n 75701: u8 [a0 + 5] = 0\n 75704: u8 [a0 + 4] = 0\n 75707: u8 [a0 + 3] = 0\n 75710: u8 [a0 + 2] = 0\n 75713: u8 [a0 + 1] = 0\n 75716: a1 = u64 [s1 + 0x28]\n 75719: a1 = a1 + 0xffffffffffffff80\n 75722: a2 = u64 [s1 + 0x158]\n 75726: a1 = a2 <u a1\n 75729: a2 = u64 [s1 + 0x150]\n 75733: a1 = 0 if a2 != 0\n 75735: a2 = u64 [s1 + 0x120]\n 75739: a1 = 0 if a2 != 0\n 75741: u8 [a0 + 0] = 0\n 75743: jump @1008 if a1 == 0\n      : @979 (gas: 4)\n 75747: a0 = u64 [s1 + 0x148]\n 75751: i32 a0 = a0 + 0x80\n 75755: a1 = 0x20\n 75758: ra = 854, jump @0\n      : @980 [@dyn 427] (gas: 35)\n 75765: u8 [a0 + 31] = 0\n 75768: u8 [a0 + 30] = 0\n 75771: u8 [a0 + 29] = 0\n 75774: u8 [a0 + 28] = 0\n 75777: u8 [a0 + 27] = 0\n 75780: u8 [a0 + 26] = 0\n 75783: u8 [a0 + 25] = 0\n 75786: u8 [a0 + 24] = 0\n 75789: u8 [a0 + 23] = 0\n 75792: u8 [a0 + 22] = 0\n 75795: u8 [a0 + 21] = 0\n 75798: u8 [a0 + 20] = 0\n 75801: u8 [a0 + 19] = 0\n 75804: u8 [a0 + 18] = 0\n 75807: u8 [a0 + 17] = 0\n 75810: u8 [a0 + 16] = 0\n 75813: u8 [a0 + 15] = 0\n 75816: u8 [a0 + 14] = 0\n 75819: u8 [a0 + 13] = 0\n 75822: u8 [a0 + 12] = 0\n 75825: u8 [a0 + 11] = 0\n 75828: u8 [a0 + 10] = 0\n 75831: u8 [a0 + 9] = 0\n 75834: u8 [a0 + 8] = 0\n 75837: u8 [a0 + 7] = 0\n 75840: u8 [a0 + 6] = 0\n 75843: u8 [a0 + 5] = 0\n 75846: u8 [a0 + 4] = 0\n 75849: u8 [a0 + 3] = 0\n 75852: u8 [a0 + 2] = 0\n 75855: u8 [a0 + 1] = 0\n 75858: u8 [a0 + 0] = 0\n 75860: a1 = 0x20\n 75863: a0 = 0\n 75865: ra = 856, jump @0\n      : @981 [@dyn 428] (gas: 67)\n 75872: a1 = u64 [s1 + 0x118]\n 75876: u8 [a0 + 0x1f] = a1\n 75879: a1 = u64 [s1 + 0x110]\n 75883: u8 [a0 + 0x1e] = a1\n 75886: a1 = u64 [s1 + 0x108]\n 75890: u8 [a0 + 0x1d] = a1\n 75893: a1 = u64 [s1 + 0x100]\n 75897: u8 [a0 + 0x1c] = a1\n 75900: a1 = u64 [s1 + 0xf8]\n 75904: u8 [a0 + 0x1b] = a1\n 75907: a1 = u64 [s1 + 0xf0]\n 75911: u8 [a0 + 0x1a] = a1\n 75914: a1 = u64 [s1 + 0xe8]\n 75918: u8 [a0 + 0x19] = a1\n 75921: a1 = u64 [s1 + 0xe0]\n 75925: u8 [a0 + 0x17] = a1\n 75928: a1 = u64 [s1 + 0xd8]\n 75932: u8 [a0 + 0x16] = a1\n 75935: a1 = u64 [s1 + 0xd0]\n 75939: u8 [a0 + 0x15] = a1\n 75942: a1 = u64 [s1 + 0xc8]\n 75946: u8 [a0 + 0x14] = a1\n 75949: a1 = u64 [s1 + 0xc0]\n 75953: u8 [a0 + 0x13] = a1\n 75956: a1 = u64 [s1 + 0xb8]\n 75960: u8 [a0 + 0x12] = a1\n 75963: a1 = u64 [s1 + 0xb0]\n 75967: u8 [a0 + 0x11] = a1\n 75970: a1 = u64 [s1 + 0xa8]\n 75974: u8 [a0 + 0xf] = a1\n 75977: a1 = u64 [s1 + 0xa0]\n 75981: u8 [a0 + 0xe] = a1\n 75984: a1 = u64 [s1 + 0x98]\n 75988: u8 [a0 + 0xd] = a1\n 75991: a1 = u64 [s1 + 0x90]\n 75995: u8 [a0 + 0xc] = a1\n 75998: a1 = u64 [s1 + 0x88]\n 76002: u8 [a0 + 0xb] = a1\n 76005: a1 = u64 [s1 + 0x80]\n 76009: u8 [a0 + 0xa] = a1\n 76012: a1 = u64 [s1 + 0x78]\n 76015: u8 [a0 + 0x9] = a1\n 76018: a1 = u64 [s1 + 0x70]\n 76021: u8 [a0 + 0x7] = a1\n 76024: a1 = u64 [s1 + 0x68]\n 76027: u8 [a0 + 0x6] = a1\n 76030: a1 = u64 [s1 + 0x60]\n 76033: u8 [a0 + 0x5] = a1\n 76036: a1 = u64 [s1 + 0x58]\n 76039: u8 [a0 + 0x4] = a1\n 76042: a1 = u64 [s1 + 0x50]\n 76045: u8 [a0 + 0x3] = a1\n 76048: a1 = u64 [s1 + 0x48]\n 76051: u8 [a0 + 0x2] = a1\n 76054: a1 = u64 [s1 + 0x40]\n 76057: u8 [a0 + 0x1] = a1\n 76060: a1 = u64 [s1 + 0x128]\n 76064: u8 [a0 + 0x18] = a1\n 76067: a1 = u64 [s1 + 0x130]\n 76071: u8 [a0 + 0x10] = a1\n 76074: a1 = u64 [s1 + 0x138]\n 76078: u8 [a0 + 0x8] = a1\n 76081: a1 = u64 [s1 + 0x140]\n 76085: u8 [a0] = a1\n 76087: a0 = 0x20\n 76090: a1 = 0x20\n 76093: ra = 858, jump @0\n      : @982 [@dyn 429] (gas: 35)\n 76100: u8 [a0 + 31] = 0x2\n 76104: u8 [a0 + 30] = 0\n 76107: u8 [a0 + 29] = 0\n 76110: u8 [a0 + 28] = 0\n 76113: u8 [a0 + 27] = 0\n 76116: u8 [a0 + 26] = 0\n 76119: u8 [a0 + 25] = 0\n 76122: u8 [a0 + 24] = 0\n 76125: u8 [a0 + 23] = 0\n 76128: u8 [a0 + 22] = 0\n 76131: u8 [a0 + 21] = 0\n 76134: u8 [a0 + 20] = 0\n 76137: u8 [a0 + 19] = 0\n 76140: u8 [a0 + 18] = 0\n 76143: u8 [a0 + 17] = 0\n 76146: u8 [a0 + 16] = 0\n 76149: u8 [a0 + 15] = 0\n 76152: u8 [a0 + 14] = 0\n 76155: u8 [a0 + 13] = 0\n 76158: u8 [a0 + 12] = 0\n 76161: u8 [a0 + 11] = 0\n 76164: u8 [a0 + 10] = 0\n 76167: u8 [a0 + 9] = 0\n 76170: u8 [a0 + 8] = 0\n 76173: u8 [a0 + 7] = 0\n 76176: u8 [a0 + 6] = 0\n 76179: u8 [a0 + 5] = 0\n 76182: u8 [a0 + 4] = 0\n 76185: u8 [a0 + 3] = 0\n 76188: u8 [a0 + 2] = 0\n 76191: u8 [a0 + 1] = 0\n 76194: u8 [a0 + 0] = 0\n 76196: a1 = 0x40\n 76199: a0 = 0\n 76201: ra = 860, jump @0\n      : @983 [@dyn 430] (gas: 32)\n 76208: i32 a0 = a0 + 0\n 76210: i32 a2 = s1 + 0x360\n 76214: a1 = 0x40\n 76217: ecalli 8 // 'hash_keccak_256'\n 76219: a0 = u64 [s1 + 0x360]\n 76223: u64 [s1 + 0x148] = a0\n 76227: a0 = u64 [s1 + 0x368]\n 76231: u64 [s1 + 0x120] = a0\n 76235: a0 = u64 [s1 + 0x370]\n 76239: u64 [s1 + 0x118] = a0\n 76243: a0 = u64 [s1 + 0x378]\n 76247: u64 [s1 + 0x110] = a0\n 76251: i32 a0 = s1 + 0x2e0\n 76255: ecalli 4 // 'caller'\n 76257: a0 = u64 [s1 + 0x2e8]\n 76261: a1 = i32 [s1 + 0x2f0]\n 76265: a3 = u64 [s1 + 0x2e0]\n 76269: u64 [s1 + 0x100] = a3\n 76273: a0 = reverse a0\n 76275: a2 = a0 << 0x20\n 76278: a1 = reverse a1\n 76280: a1 = a1 >> 0x20\n 76283: a1 = a1 | a2\n 76286: u64 [s1 + 0x108] = a1\n 76290: a0 = a0 >> 0x20\n 76293: a1 = reverse a3\n 76295: a1 = a1 << 0x20\n 76298: a0 = a0 | a1\n 76301: u64 [s1 + 0xf8] = a0\n 76305: a1 = 0x20\n 76308: a0 = 0\n 76310: ra = 862, jump @0\n      : @984 [@dyn 431] (gas: 57)\n 76317: a1 = u64 [s1 + 0xf8]\n 76321: a1 = reverse a1\n 76323: a2 = u64 [s1 + 0x108]\n 76327: a2 = reverse a2\n 76329: a4 = u64 [s1 + 0x100]\n 76333: a3 = a4 >> 0x18\n 76336: u8 [a0 + 0xf] = a3\n 76339: a3 = a4 >> 0x10\n 76342: u8 [a0 + 0xe] = a3\n 76345: a3 = a4 >> 0x8\n 76348: u8 [a0 + 0xd] = a3\n 76351: u8 [a0 + 0xc] = a4\n 76354: u8 [a0 + 11] = 0\n 76357: u8 [a0 + 10] = 0\n 76360: u8 [a0 + 9] = 0\n 76363: u8 [a0 + 8] = 0\n 76366: u8 [a0 + 7] = 0\n 76369: u8 [a0 + 6] = 0\n 76372: u8 [a0 + 5] = 0\n 76375: u8 [a0 + 4] = 0\n 76378: u8 [a0 + 3] = 0\n 76381: u8 [a0 + 2] = 0\n 76384: u8 [a0 + 1] = 0\n 76387: u8 [a0 + 0] = 0\n 76389: u8 [a0 + 0x18] = a2\n 76392: u8 [a0 + 0x10] = a1\n 76395: a3 = a2 >> 0x38\n 76398: u8 [a0 + 0x1f] = a3\n 76401: a3 = a2 >> 0x30\n 76404: u8 [a0 + 0x1e] = a3\n 76407: a3 = a2 >> 0x28\n 76410: u8 [a0 + 0x1d] = a3\n 76413: a3 = a2 >> 0x20\n 76416: u8 [a0 + 0x1c] = a3\n 76419: a3 = a2 >> 0x18\n 76422: u8 [a0 + 0x1b] = a3\n 76425: a3 = a2 >> 0x10\n 76428: u8 [a0 + 0x1a] = a3\n 76431: a2 = a2 >> 0x8\n 76434: u8 [a0 + 0x19] = a2\n 76437: a2 = a1 >> 0x38\n 76440: u8 [a0 + 0x17] = a2\n 76443: a2 = a1 >> 0x30\n 76446: u8 [a0 + 0x16] = a2\n 76449: a2 = a1 >> 0x28\n 76452: u8 [a0 + 0x15] = a2\n 76455: a2 = a1 >> 0x20\n 76458: u8 [a0 + 0x14] = a2\n 76461: a2 = a1 >> 0x18\n 76464: u8 [a0 + 0x13] = a2\n 76467: a2 = a1 >> 0x10\n 76470: u8 [a0 + 0x12] = a2\n 76473: a1 = a1 >> 0x8\n 76476: u8 [a0 + 0x11] = a1\n 76479: a0 = 0x20\n 76482: a1 = 0x20\n 76485: ra = 864, jump @0\n      : @985 [@dyn 432] (gas: 67)\n 76492: a2 = u64 [s1 + 0x110]\n 76496: a1 = a2 >> 0x38\n 76499: u8 [a0 + 0x1f] = a1\n 76502: a1 = a2 >> 0x30\n 76505: u8 [a0 + 0x1e] = a1\n 76508: a1 = a2 >> 0x28\n 76511: u8 [a0 + 0x1d] = a1\n 76514: a1 = a2 >> 0x20\n 76517: u8 [a0 + 0x1c] = a1\n 76520: a1 = a2 >> 0x18\n 76523: u8 [a0 + 0x1b] = a1\n 76526: a1 = a2 >> 0x10\n 76529: u8 [a0 + 0x1a] = a1\n 76532: a1 = a2 >> 0x8\n 76535: u8 [a0 + 0x19] = a1\n 76538: u8 [a0 + 0x18] = a2\n 76541: a2 = u64 [s1 + 0x118]\n 76545: a1 = a2 >> 0x38\n 76548: u8 [a0 + 0x17] = a1\n 76551: a1 = a2 >> 0x30\n 76554: u8 [a0 + 0x16] = a1\n 76557: a1 = a2 >> 0x28\n 76560: u8 [a0 + 0x15] = a1\n 76563: a1 = a2 >> 0x20\n 76566: u8 [a0 + 0x14] = a1\n 76569: a1 = a2 >> 0x18\n 76572: u8 [a0 + 0x13] = a1\n 76575: a1 = a2 >> 0x10\n 76578: u8 [a0 + 0x12] = a1\n 76581: a1 = a2 >> 0x8\n 76584: u8 [a0 + 0x11] = a1\n 76587: u8 [a0 + 0x10] = a2\n 76590: a2 = u64 [s1 + 0x120]\n 76594: a1 = a2 >> 0x38\n 76597: u8 [a0 + 0xf] = a1\n 76600: a1 = a2 >> 0x30\n 76603: u8 [a0 + 0xe] = a1\n 76606: a1 = a2 >> 0x28\n 76609: u8 [a0 + 0xd] = a1\n 76612: a1 = a2 >> 0x20\n 76615: u8 [a0 + 0xc] = a1\n 76618: a1 = a2 >> 0x18\n 76621: u8 [a0 + 0xb] = a1\n 76624: a1 = a2 >> 0x10\n 76627: u8 [a0 + 0xa] = a1\n 76630: a1 = a2 >> 0x8\n 76633: u8 [a0 + 0x9] = a1\n 76636: u8 [a0 + 0x8] = a2\n 76639: a2 = u64 [s1 + 0x148]\n 76643: a1 = a2 >> 0x38\n 76646: u8 [a0 + 0x7] = a1\n 76649: a1 = a2 >> 0x30\n 76652: u8 [a0 + 0x6] = a1\n 76655: a1 = a2 >> 0x28\n 76658: u8 [a0 + 0x5] = a1\n 76661: a1 = a2 >> 0x20\n 76664: u8 [a0 + 0x4] = a1\n 76667: a1 = a2 >> 0x18\n 76670: u8 [a0 + 0x3] = a1\n 76673: a1 = a2 >> 0x10\n 76676: u8 [a0 + 0x2] = a1\n 76679: a1 = a2 >> 0x8\n 76682: u8 [a0 + 0x1] = a1\n 76685: u8 [a0] = a2\n 76687: a1 = 0x40\n 76690: a0 = 0\n 76692: ra = 866, jump @0\n      : @986 [@dyn 433] (gas: 27)\n 76699: i32 a0 = a0 + 0\n 76701: i32 a2 = s1 + 0x360\n 76705: a1 = 0x40\n 76708: ecalli 8 // 'hash_keccak_256'\n 76710: a0 = u64 [s1 + 0x378]\n 76714: a1 = u64 [s1 + 0x370]\n 76718: a2 = u64 [s1 + 0x368]\n 76722: a3 = u64 [s1 + 0x360]\n 76726: a4 = reverse a0\n 76728: a0 = reverse a1\n 76730: a1 = reverse a2\n 76732: a2 = reverse a3\n 76734: a3 = u64 [s1 + 0x30]\n 76737: u64 [s1 + 0x1b8] = a3\n 76741: a3 = u64 [s1 + 0x38]\n 76744: u64 [s1 + 0x1b0] = a3\n 76748: a3 = u64 [s1 + 0x150]\n 76752: u64 [s1 + 0x1a8] = a3\n 76756: a3 = u64 [s1 + 0x158]\n 76760: u64 [s1 + 0x1a0] = a3\n 76764: u64 [s1 + 0x1d8] = a2\n 76768: u64 [s1 + 0x1d0] = a1\n 76772: u64 [s1 + 0x1c8] = a0\n 76776: a0 = s1 + 0x1c0\n 76780: a1 = s1 + 0x1a0\n 76784: u64 [s1 + 0x1c0] = a4\n 76788: ra = 868, jump @932\n      : @987 [@dyn 434] (gas: 30)\n 76794: i32 a0 = s1 + 0x300\n 76798: ecalli 4 // 'caller'\n 76800: a0 = u32 [s1 + 0x310]\n 76804: u64 [s1 + 0x148] = a0\n 76808: a0 = u64 [s1 + 0x308]\n 76812: u64 [s1 + 0x108] = a0\n 76816: a0 = u64 [s1 + 0x300]\n 76820: u64 [s1 + 0x158] = a0\n 76824: a0 = sp + 0xffffffffffffffe0\n 76827: a0 = a0 & 0xffffffffffffffe0\n 76830: u64 [s1 + 0x150] = a0\n 76834: sp = a0\n 76836: u64 [a0 + 24] = 0\n 76839: u64 [a0 + 16] = 0\n 76842: u64 [a0 + 8] = 0\n 76845: u64 [a0 + 0] = 0\n 76847: i32 a0 = a0 + 0\n 76849: ecalli 14 // 'value_transferred'\n 76851: a1 = u64 [s1 + 0x150]\n 76855: a0 = u64 [a1 + 0x18]\n 76858: u64 [s1 + 0x110] = a0\n 76862: a0 = u64 [a1 + 0x10]\n 76865: u64 [s1 + 0x118] = a0\n 76869: a0 = u64 [a1 + 0x8]\n 76872: u64 [s1 + 0x120] = a0\n 76876: a0 = u64 [a1]\n 76878: u64 [s1 + 0x150] = a0\n 76882: a0 = 0x40\n 76885: a1 = 0x20\n 76888: ra = 870, jump @0\n      : @988 [@dyn 435] (gas: 100)\n 76895: a1 = u8 [a0 + 0x11]\n 76898: a2 = u8 [a0 + 0x10]\n 76901: a3 = u8 [a0 + 0x12]\n 76904: a4 = u8 [a0 + 0x13]\n 76907: a1 = a1 << 0x8\n 76910: a1 = a1 | a2\n 76913: a3 = a3 << 0x10\n 76916: a4 = a4 << 0x18\n 76919: a3 = a3 | a4\n 76922: a1 = a1 | a3\n 76925: a2 = u8 [a0 + 0x15]\n 76928: a3 = u8 [a0 + 0x14]\n 76931: a4 = u8 [a0 + 0x16]\n 76934: a5 = u8 [a0 + 0x17]\n 76937: a2 = a2 << 0x8\n 76940: a2 = a2 | a3\n 76943: a4 = a4 << 0x10\n 76946: a5 = a5 << 0x18\n 76949: a4 = a4 | a5\n 76952: a2 = a2 | a4\n 76955: a2 = a2 << 0x20\n 76958: t0 = a2 | a1\n 76961: a2 = u8 [a0 + 0x1]\n 76964: a3 = u8 [a0]\n 76966: a4 = u8 [a0 + 0x2]\n 76969: a5 = u8 [a0 + 0x3]\n 76972: a2 = a2 << 0x8\n 76975: a2 = a2 | a3\n 76978: a4 = a4 << 0x10\n 76981: a5 = a5 << 0x18\n 76984: a4 = a4 | a5\n 76987: a2 = a2 | a4\n 76990: a3 = u8 [a0 + 0x5]\n 76993: a4 = u8 [a0 + 0x4]\n 76996: a5 = u8 [a0 + 0x6]\n 76999: a1 = u8 [a0 + 0x7]\n 77002: a3 = a3 << 0x8\n 77005: a3 = a3 | a4\n 77008: a5 = a5 << 0x10\n 77011: a1 = a1 << 0x18\n 77014: a1 = a1 | a5\n 77017: a1 = a1 | a3\n 77020: a1 = a1 << 0x20\n 77023: t1 = a1 | a2\n 77026: a1 = u8 [a0 + 0x19]\n 77029: a3 = u8 [a0 + 0x18]\n 77032: a4 = u8 [a0 + 0x1a]\n 77035: a5 = u8 [a0 + 0x1b]\n 77038: a1 = a1 << 0x8\n 77041: a1 = a1 | a3\n 77044: a4 = a4 << 0x10\n 77047: a5 = a5 << 0x18\n 77050: a4 = a4 | a5\n 77053: a1 = a1 | a4\n 77056: a3 = u8 [a0 + 0x1d]\n 77059: a4 = u8 [a0 + 0x1c]\n 77062: a5 = u8 [a0 + 0x1e]\n 77065: a2 = u8 [a0 + 0x1f]\n 77068: a3 = a3 << 0x8\n 77071: a3 = a3 | a4\n 77074: a5 = a5 << 0x10\n 77077: a2 = a2 << 0x18\n 77080: a2 = a2 | a5\n 77083: a2 = a2 | a3\n 77086: a2 = a2 << 0x20\n 77089: a3 = a2 | a1\n 77092: a1 = u8 [a0 + 0x9]\n 77095: a2 = u8 [a0 + 0x8]\n 77098: a4 = u8 [a0 + 0xa]\n 77101: a5 = u8 [a0 + 0xb]\n 77104: a1 = a1 << 0x8\n 77107: a1 = a1 | a2\n 77110: a4 = a4 << 0x10\n 77113: a5 = a5 << 0x18\n 77116: a4 = a4 | a5\n 77119: a1 = a1 | a4\n 77122: a2 = u8 [a0 + 0xd]\n 77125: a4 = u8 [a0 + 0xc]\n 77128: a5 = u8 [a0 + 0xe]\n 77131: a0 = u8 [a0 + 0xf]\n 77134: a2 = a2 << 0x8\n 77137: a2 = a2 | a4\n 77140: a5 = a5 << 0x10\n 77143: a0 = a0 << 0x18\n 77146: a0 = a0 | a5\n 77149: a0 = a0 | a2\n 77152: a0 = a0 << 0x20\n 77155: a0 = a0 | a1\n 77158: a1 = reverse a0\n 77160: a0 = reverse a3\n 77162: a2 = reverse t1\n 77164: a3 = reverse t0\n 77166: a2 = a2 | a3\n 77169: a3 = a0 | a1\n 77172: a3 = a3 | a2\n 77175: a3 = a3 >> 0x20\n 77178: a1 = a1 | a2\n 77181: a1 = a1 << 0x20\n 77184: a1 = a1 | a3\n 77187: jump @1008 if a1 != 0\n      : @989 (gas: 18)\n 77191: a1 = u64 [s1 + 0x108]\n 77195: a1 = reverse a1\n 77197: a2 = a1 << 0x20\n 77200: a3 = u64 [s1 + 0x148]\n 77204: a3 = reverse a3\n 77206: a3 = a3 >> 0x20\n 77209: a2 = a2 | a3\n 77212: u64 [s1 + 0x148] = a2\n 77216: a2 = u64 [s1 + 0x158]\n 77220: a2 = reverse a2\n 77222: a2 = a2 << 0x20\n 77225: a1 = a1 >> 0x20\n 77228: a1 = a1 | a2\n 77231: u64 [s1 + 0x108] = a1\n 77235: i32 a0 = a0 + 0\n 77237: u64 [s1 + 0x100] = a0\n 77241: a1 = 0x20\n 77244: ra = 872, jump @0\n      : @990 [@dyn 436] (gas: 71)\n 77251: a1 = u64 [s1 + 0x110]\n 77255: a1 = reverse a1\n 77257: a2 = u64 [s1 + 0x118]\n 77261: a2 = reverse a2\n 77263: a3 = u64 [s1 + 0x120]\n 77267: a3 = reverse a3\n 77269: a4 = u64 [s1 + 0x150]\n 77273: a4 = reverse a4\n 77275: a5 = a4 >> 0x38\n 77278: u8 [a0 + 0x1f] = a5\n 77281: a5 = a4 >> 0x30\n 77284: u8 [a0 + 0x1e] = a5\n 77287: a5 = a4 >> 0x28\n 77290: u8 [a0 + 0x1d] = a5\n 77293: a5 = a4 >> 0x20\n 77296: u8 [a0 + 0x1c] = a5\n 77299: a5 = a4 >> 0x18\n 77302: u8 [a0 + 0x1b] = a5\n 77305: a5 = a4 >> 0x10\n 77308: u8 [a0 + 0x1a] = a5\n 77311: a5 = a4 >> 0x8\n 77314: u8 [a0 + 0x19] = a5\n 77317: u8 [a0 + 0x18] = a4\n 77320: u8 [a0 + 0x10] = a3\n 77323: a4 = a3 >> 0x38\n 77326: u8 [a0 + 0x17] = a4\n 77329: a4 = a3 >> 0x30\n 77332: u8 [a0 + 0x16] = a4\n 77335: a4 = a3 >> 0x28\n 77338: u8 [a0 + 0x15] = a4\n 77341: a4 = a3 >> 0x20\n 77344: u8 [a0 + 0x14] = a4\n 77347: a4 = a3 >> 0x18\n 77350: u8 [a0 + 0x13] = a4\n 77353: a4 = a3 >> 0x10\n 77356: u8 [a0 + 0x12] = a4\n 77359: a3 = a3 >> 0x8\n 77362: u8 [a0 + 0x11] = a3\n 77365: u8 [a0 + 0x8] = a2\n 77368: a3 = a2 >> 0x38\n 77371: u8 [a0 + 0xf] = a3\n 77374: a3 = a2 >> 0x30\n 77377: u8 [a0 + 0xe] = a3\n 77380: a3 = a2 >> 0x28\n 77383: u8 [a0 + 0xd] = a3\n 77386: a3 = a2 >> 0x20\n 77389: u8 [a0 + 0xc] = a3\n 77392: a3 = a2 >> 0x18\n 77395: u8 [a0 + 0xb] = a3\n 77398: a3 = a2 >> 0x10\n 77401: u8 [a0 + 0xa] = a3\n 77404: a2 = a2 >> 0x8\n 77407: u8 [a0 + 0x9] = a2\n 77410: u8 [a0] = a1\n 77412: a2 = a1 >> 0x38\n 77415: u8 [a0 + 0x7] = a2\n 77418: a2 = a1 >> 0x30\n 77421: u8 [a0 + 0x6] = a2\n 77424: a2 = a1 >> 0x28\n 77427: u8 [a0 + 0x5] = a2\n 77430: a2 = a1 >> 0x20\n 77433: u8 [a0 + 0x4] = a2\n 77436: a2 = a1 >> 0x18\n 77439: u8 [a0 + 0x3] = a2\n 77442: a2 = a1 >> 0x10\n 77445: u8 [a0 + 0x2] = a2\n 77448: a1 = a1 >> 0x8\n 77451: u8 [a0 + 0x1] = a1\n 77454: a1 = 0x20\n 77457: a0 = u64 [s1 + 0x100]\n 77461: ra = 874, jump @0\n      : @991 [@dyn 437] (gas: 37)\n 77468: a1 = u64 [0x20080]\n 77473: a2 = u64 [0x20088]\n 77478: a3 = u64 [0x20090]\n 77483: a4 = u64 [0x20098]\n 77488: u64 [s1 + 0x378] = a1\n 77492: u64 [s1 + 0x370] = a2\n 77496: u64 [s1 + 0x368] = a3\n 77500: u64 [s1 + 0x360] = a4\n 77504: a1 = u64 [s1 + 0x128]\n 77508: u64 [s1 + 0x398] = a1\n 77512: a1 = u64 [s1 + 0x130]\n 77516: u64 [s1 + 0x390] = a1\n 77520: a1 = u64 [s1 + 0x138]\n 77524: u64 [s1 + 0x388] = a1\n 77528: a1 = u64 [s1 + 0x140]\n 77532: u64 [s1 + 0x380] = a1\n 77536: a1 = u64 [s1 + 0x108]\n 77540: a1 = reverse a1\n 77542: a2 = u64 [s1 + 0x148]\n 77546: a2 = reverse a2\n 77548: a3 = u64 [s1 + 0x158]\n 77552: a3 = a3 << 0x20\n 77555: u64 [s1 + 0x3b8] = a2\n 77559: u64 [s1 + 0x3b0] = a1\n 77563: u64 [s1 + 0x3a8] = a3\n 77567: u64 [s1 + 928] = 0\n 77571: i32 a2 = a0 + 0\n 77573: i32 a0 = s1 + 0x360\n 77577: a1 = 0x3\n 77580: a3 = 0x20\n 77583: ecalli 5 // 'deposit_event'\n 77585: sp = s0 + 0xfffffffffffffc20\n 77589: ra = u64 [sp + 0x3d8]\n 77593: s0 = u64 [sp + 0x3d0]\n 77597: s1 = u64 [sp + 0x3c8]\n 77601: sp = sp + 0x3e0\n 77605: ret\n      : @992 (gas: 3)\n 77607: a0 = 0x40\n 77610: a1 = 0x20\n 77613: ra = 876, jump @0\n      : @993 [@dyn 438] (gas: 104)\n 77620: a1 = u8 [a0 + 0x11]\n 77623: a2 = u8 [a0 + 0x10]\n 77626: a3 = u8 [a0 + 0x12]\n 77629: a4 = u8 [a0 + 0x13]\n 77632: a1 = a1 << 0x8\n 77635: a1 = a1 | a2\n 77638: a3 = a3 << 0x10\n 77641: a4 = a4 << 0x18\n 77644: a3 = a3 | a4\n 77647: a1 = a1 | a3\n 77650: a2 = u8 [a0 + 0x15]\n 77653: a3 = u8 [a0 + 0x14]\n 77656: a4 = u8 [a0 + 0x16]\n 77659: a5 = u8 [a0 + 0x17]\n 77662: a2 = a2 << 0x8\n 77665: a2 = a2 | a3\n 77668: a4 = a4 << 0x10\n 77671: a5 = a5 << 0x18\n 77674: a4 = a4 | a5\n 77677: a2 = a2 | a4\n 77680: a2 = a2 << 0x20\n 77683: t0 = a2 | a1\n 77686: a2 = u8 [a0 + 0x1]\n 77689: a3 = u8 [a0]\n 77691: a4 = u8 [a0 + 0x2]\n 77694: a5 = u8 [a0 + 0x3]\n 77697: a2 = a2 << 0x8\n 77700: a2 = a2 | a3\n 77703: a4 = a4 << 0x10\n 77706: a5 = a5 << 0x18\n 77709: a4 = a4 | a5\n 77712: a2 = a2 | a4\n 77715: a3 = u8 [a0 + 0x5]\n 77718: a4 = u8 [a0 + 0x4]\n 77721: a5 = u8 [a0 + 0x6]\n 77724: a1 = u8 [a0 + 0x7]\n 77727: a3 = a3 << 0x8\n 77730: a3 = a3 | a4\n 77733: a5 = a5 << 0x10\n 77736: a1 = a1 << 0x18\n 77739: a1 = a1 | a5\n 77742: a1 = a1 | a3\n 77745: a1 = a1 << 0x20\n 77748: t1 = a1 | a2\n 77751: a1 = u8 [a0 + 0x19]\n 77754: a3 = u8 [a0 + 0x18]\n 77757: a4 = u8 [a0 + 0x1a]\n 77760: a5 = u8 [a0 + 0x1b]\n 77763: a1 = a1 << 0x8\n 77766: a1 = a1 | a3\n 77769: a4 = a4 << 0x10\n 77772: a5 = a5 << 0x18\n 77775: a4 = a4 | a5\n 77778: a1 = a1 | a4\n 77781: a3 = u8 [a0 + 0x1d]\n 77784: a4 = u8 [a0 + 0x1c]\n 77787: a5 = u8 [a0 + 0x1e]\n 77790: a2 = u8 [a0 + 0x1f]\n 77793: a3 = a3 << 0x8\n 77796: a3 = a3 | a4\n 77799: a5 = a5 << 0x10\n 77802: a2 = a2 << 0x18\n 77805: a2 = a2 | a5\n 77808: a2 = a2 | a3\n 77811: a2 = a2 << 0x20\n 77814: a3 = a2 | a1\n 77817: a1 = u8 [a0 + 0x9]\n 77820: a2 = u8 [a0 + 0x8]\n 77823: a4 = u8 [a0 + 0xa]\n 77826: a5 = u8 [a0 + 0xb]\n 77829: a1 = a1 << 0x8\n 77832: a1 = a1 | a2\n 77835: a4 = a4 << 0x10\n 77838: a5 = a5 << 0x18\n 77841: a4 = a4 | a5\n 77844: a1 = a1 | a4\n 77847: a2 = u8 [a0 + 0xd]\n 77850: a4 = u8 [a0 + 0xc]\n 77853: a5 = u8 [a0 + 0xe]\n 77856: a0 = u8 [a0 + 0xf]\n 77859: a2 = a2 << 0x8\n 77862: a2 = a2 | a4\n 77865: a5 = a5 << 0x10\n 77868: a0 = a0 << 0x18\n 77871: a0 = a0 | a5\n 77874: a0 = a0 | a2\n 77877: a0 = a0 << 0x20\n 77880: a0 = a0 | a1\n 77883: a4 = reverse a0\n 77885: a1 = reverse a3\n 77887: a2 = reverse t1\n 77889: a0 = reverse t0\n 77891: u64 [s1 + 0x158] = a0\n 77895: u64 [s1 + 0x148] = a2\n 77899: a0 = a0 | a2\n 77902: a2 = a1\n 77904: a1 = a1 | a4\n 77907: a1 = a1 | a0\n 77910: a1 = a1 >> 0x20\n 77913: u64 [s1 + 0x150] = a4\n 77917: a0 = a0 | a4\n 77920: a0 = a0 << 0x20\n 77923: a0 = a0 | a1\n 77926: jump @1008 if a0 != 0\n      : @994 (gas: 5)\n 77930: u64 [s1 + 0x140] = a2\n 77934: i32 a0 = a2 + 0\n 77936: a1 = 0x20\n 77939: u64 [s1 + 0x138] = a0\n 77943: ra = 878, jump @0\n      : @995 [@dyn 439] (gas: 51)\n 77950: u8 [a0 + 31] = 0\n 77953: u8 [a0 + 30] = 0\n 77956: u8 [a0 + 29] = 0\n 77959: u8 [a0 + 28] = 0\n 77962: u8 [a0 + 27] = 0\n 77965: u8 [a0 + 26] = 0\n 77968: u8 [a0 + 25] = 0\n 77971: u8 [a0 + 24] = 0\n 77974: u8 [a0 + 23] = 0\n 77977: u8 [a0 + 22] = 0\n 77980: u8 [a0 + 21] = 0\n 77983: u8 [a0 + 20] = 0\n 77986: u8 [a0 + 19] = 0\n 77989: u8 [a0 + 18] = 0\n 77992: u8 [a0 + 17] = 0\n 77995: u8 [a0 + 16] = 0\n 77998: u8 [a0 + 15] = 0\n 78001: u8 [a0 + 14] = 0\n 78004: u8 [a0 + 13] = 0\n 78007: u8 [a0 + 12] = 0\n 78010: u8 [a0 + 11] = 0\n 78013: u8 [a0 + 10] = 0\n 78016: u8 [a0 + 9] = 0\n 78019: u8 [a0 + 8] = 0\n 78022: u8 [a0 + 7] = 0\n 78025: u8 [a0 + 6] = 0\n 78028: u8 [a0 + 5] = 0\n 78031: u8 [a0 + 4] = 0\n 78034: u8 [a0 + 3] = 0xa0\n 78039: u8 [a0 + 2] = 0x79\n 78043: u8 [a0 + 1] = 0xc3\n 78048: u8 [a0 + 0] = 0x8\n 78051: a1 = u64 [s1 + 0x140]\n 78055: a0 = a1 + 0x4\n 78058: a1 = a0 <u a1\n 78061: a3 = u64 [s1 + 0x158]\n 78065: a2 = a3 + a1\n 78068: a3 = a2 <u a3\n 78071: a3 = a1 if a1 == 0\n 78074: a1 = u64 [s1 + 0x150]\n 78078: a3 = a3 + a1\n 78081: a1 = a3 <u a1\n 78084: a4 = u64 [s1 + 0x148]\n 78088: a4 = a4 + a1\n 78091: u64 [s1 + 0x168] = a2\n 78095: u64 [s1 + 0x160] = a0\n 78099: u64 [s1 + 0x170] = a3\n 78103: a0 = s1 + 0x180\n 78107: a1 = s1 + 0x160\n 78111: u64 [s1 + 0x178] = a4\n 78115: ra = 880, jump @908\n      : @996 [@dyn 440] (gas: 5)\n 78121: a0 = u64 [s1 + 0x188]\n 78125: t0 = u64 [s1 + 0x198]\n 78129: t1 = u64 [s1 + 0x180]\n 78133: a3 = u64 [s1 + 0x190]\n 78137: jump @1007\n      : @997 (gas: 3)\n 78140: a0 = 0x40\n 78143: a1 = 0x20\n 78146: ra = 882, jump @0\n      : @998 [@dyn 441] (gas: 104)\n 78153: a1 = u8 [a0 + 0x11]\n 78156: a2 = u8 [a0 + 0x10]\n 78159: a3 = u8 [a0 + 0x12]\n 78162: a4 = u8 [a0 + 0x13]\n 78165: a1 = a1 << 0x8\n 78168: a1 = a1 | a2\n 78171: a3 = a3 << 0x10\n 78174: a4 = a4 << 0x18\n 78177: a3 = a3 | a4\n 78180: a1 = a1 | a3\n 78183: a2 = u8 [a0 + 0x15]\n 78186: a3 = u8 [a0 + 0x14]\n 78189: a4 = u8 [a0 + 0x16]\n 78192: a5 = u8 [a0 + 0x17]\n 78195: a2 = a2 << 0x8\n 78198: a2 = a2 | a3\n 78201: a4 = a4 << 0x10\n 78204: a5 = a5 << 0x18\n 78207: a4 = a4 | a5\n 78210: a2 = a2 | a4\n 78213: a2 = a2 << 0x20\n 78216: t0 = a2 | a1\n 78219: a2 = u8 [a0 + 0x1]\n 78222: a3 = u8 [a0]\n 78224: a4 = u8 [a0 + 0x2]\n 78227: a5 = u8 [a0 + 0x3]\n 78230: a2 = a2 << 0x8\n 78233: a2 = a2 | a3\n 78236: a4 = a4 << 0x10\n 78239: a5 = a5 << 0x18\n 78242: a4 = a4 | a5\n 78245: a2 = a2 | a4\n 78248: a3 = u8 [a0 + 0x5]\n 78251: a4 = u8 [a0 + 0x4]\n 78254: a5 = u8 [a0 + 0x6]\n 78257: a1 = u8 [a0 + 0x7]\n 78260: a3 = a3 << 0x8\n 78263: a3 = a3 | a4\n 78266: a5 = a5 << 0x10\n 78269: a1 = a1 << 0x18\n 78272: a1 = a1 | a5\n 78275: a1 = a1 | a3\n 78278: a1 = a1 << 0x20\n 78281: t1 = a1 | a2\n 78284: a1 = u8 [a0 + 0x19]\n 78287: a3 = u8 [a0 + 0x18]\n 78290: a4 = u8 [a0 + 0x1a]\n 78293: a5 = u8 [a0 + 0x1b]\n 78296: a1 = a1 << 0x8\n 78299: a1 = a1 | a3\n 78302: a4 = a4 << 0x10\n 78305: a5 = a5 << 0x18\n 78308: a4 = a4 | a5\n 78311: a1 = a1 | a4\n 78314: a3 = u8 [a0 + 0x1d]\n 78317: a4 = u8 [a0 + 0x1c]\n 78320: a5 = u8 [a0 + 0x1e]\n 78323: a2 = u8 [a0 + 0x1f]\n 78326: a3 = a3 << 0x8\n 78329: a3 = a3 | a4\n 78332: a5 = a5 << 0x10\n 78335: a2 = a2 << 0x18\n 78338: a2 = a2 | a5\n 78341: a2 = a2 | a3\n 78344: a2 = a2 << 0x20\n 78347: a3 = a2 | a1\n 78350: a1 = u8 [a0 + 0x9]\n 78353: a2 = u8 [a0 + 0x8]\n 78356: a4 = u8 [a0 + 0xa]\n 78359: a5 = u8 [a0 + 0xb]\n 78362: a1 = a1 << 0x8\n 78365: a1 = a1 | a2\n 78368: a4 = a4 << 0x10\n 78371: a5 = a5 << 0x18\n 78374: a4 = a4 | a5\n 78377: a1 = a1 | a4\n 78380: a2 = u8 [a0 + 0xd]\n 78383: a4 = u8 [a0 + 0xc]\n 78386: a5 = u8 [a0 + 0xe]\n 78389: a0 = u8 [a0 + 0xf]\n 78392: a2 = a2 << 0x8\n 78395: a2 = a2 | a4\n 78398: a5 = a5 << 0x10\n 78401: a0 = a0 << 0x18\n 78404: a0 = a0 | a5\n 78407: a0 = a0 | a2\n 78410: a0 = a0 << 0x20\n 78413: a0 = a0 | a1\n 78416: a4 = reverse a0\n 78418: a1 = reverse a3\n 78420: a2 = reverse t1\n 78422: a0 = reverse t0\n 78424: u64 [s1 + 0x158] = a0\n 78428: u64 [s1 + 0x148] = a2\n 78432: a0 = a0 | a2\n 78435: a2 = a1\n 78437: a1 = a1 | a4\n 78440: a1 = a1 | a0\n 78443: a1 = a1 >> 0x20\n 78446: u64 [s1 + 0x150] = a4\n 78450: a0 = a0 | a4\n 78453: a0 = a0 << 0x20\n 78456: a0 = a0 | a1\n 78459: jump @1008 if a0 != 0\n      : @999 (gas: 5)\n 78463: u64 [s1 + 0x140] = a2\n 78467: i32 a0 = a2 + 0\n 78469: a1 = 0x20\n 78472: u64 [s1 + 0x138] = a0\n 78476: ra = 884, jump @0\n      : @1000 [@dyn 442] (gas: 51)\n 78483: u8 [a0 + 31] = 0\n 78486: u8 [a0 + 30] = 0\n 78489: u8 [a0 + 29] = 0\n 78492: u8 [a0 + 28] = 0\n 78495: u8 [a0 + 27] = 0\n 78498: u8 [a0 + 26] = 0\n 78501: u8 [a0 + 25] = 0\n 78504: u8 [a0 + 24] = 0\n 78507: u8 [a0 + 23] = 0\n 78510: u8 [a0 + 22] = 0\n 78513: u8 [a0 + 21] = 0\n 78516: u8 [a0 + 20] = 0\n 78519: u8 [a0 + 19] = 0\n 78522: u8 [a0 + 18] = 0\n 78525: u8 [a0 + 17] = 0\n 78528: u8 [a0 + 16] = 0\n 78531: u8 [a0 + 15] = 0\n 78534: u8 [a0 + 14] = 0\n 78537: u8 [a0 + 13] = 0\n 78540: u8 [a0 + 12] = 0\n 78543: u8 [a0 + 11] = 0\n 78546: u8 [a0 + 10] = 0\n 78549: u8 [a0 + 9] = 0\n 78552: u8 [a0 + 8] = 0\n 78555: u8 [a0 + 7] = 0\n 78558: u8 [a0 + 6] = 0\n 78561: u8 [a0 + 5] = 0\n 78564: u8 [a0 + 4] = 0\n 78567: u8 [a0 + 3] = 0xa0\n 78572: u8 [a0 + 2] = 0x79\n 78576: u8 [a0 + 1] = 0xc3\n 78581: u8 [a0 + 0] = 0x8\n 78584: a1 = u64 [s1 + 0x140]\n 78588: a0 = a1 + 0x4\n 78591: a1 = a0 <u a1\n 78594: a3 = u64 [s1 + 0x158]\n 78598: a2 = a3 + a1\n 78601: a3 = a2 <u a3\n 78604: a3 = a1 if a1 == 0\n 78607: a1 = u64 [s1 + 0x150]\n 78611: a3 = a3 + a1\n 78614: a1 = a3 <u a1\n 78617: a4 = u64 [s1 + 0x148]\n 78621: a4 = a4 + a1\n 78624: u64 [s1 + 0x268] = a2\n 78628: u64 [s1 + 0x260] = a0\n 78632: u64 [s1 + 0x270] = a3\n 78636: a0 = s1 + 0x280\n 78640: a1 = s1 + 0x260\n 78644: u64 [s1 + 0x278] = a4\n 78648: ra = 886, jump @916\n      : @1001 [@dyn 443] (gas: 5)\n 78654: a0 = u64 [s1 + 0x288]\n 78658: t0 = u64 [s1 + 0x298]\n 78662: t1 = u64 [s1 + 0x280]\n 78666: a3 = u64 [s1 + 0x290]\n 78670: jump @1007\n      : @1002 (gas: 3)\n 78673: a0 = 0x40\n 78676: a1 = 0x20\n 78679: ra = 888, jump @0\n      : @1003 [@dyn 444] (gas: 104)\n 78686: a1 = u8 [a0 + 0x11]\n 78689: a2 = u8 [a0 + 0x10]\n 78692: a3 = u8 [a0 + 0x12]\n 78695: a4 = u8 [a0 + 0x13]\n 78698: a1 = a1 << 0x8\n 78701: a1 = a1 | a2\n 78704: a3 = a3 << 0x10\n 78707: a4 = a4 << 0x18\n 78710: a3 = a3 | a4\n 78713: a1 = a1 | a3\n 78716: a2 = u8 [a0 + 0x15]\n 78719: a3 = u8 [a0 + 0x14]\n 78722: a4 = u8 [a0 + 0x16]\n 78725: a5 = u8 [a0 + 0x17]\n 78728: a2 = a2 << 0x8\n 78731: a2 = a2 | a3\n 78734: a4 = a4 << 0x10\n 78737: a5 = a5 << 0x18\n 78740: a4 = a4 | a5\n 78743: a2 = a2 | a4\n 78746: a2 = a2 << 0x20\n 78749: t0 = a2 | a1\n 78752: a2 = u8 [a0 + 0x1]\n 78755: a3 = u8 [a0]\n 78757: a4 = u8 [a0 + 0x2]\n 78760: a5 = u8 [a0 + 0x3]\n 78763: a2 = a2 << 0x8\n 78766: a2 = a2 | a3\n 78769: a4 = a4 << 0x10\n 78772: a5 = a5 << 0x18\n 78775: a4 = a4 | a5\n 78778: a2 = a2 | a4\n 78781: a3 = u8 [a0 + 0x5]\n 78784: a4 = u8 [a0 + 0x4]\n 78787: a5 = u8 [a0 + 0x6]\n 78790: a1 = u8 [a0 + 0x7]\n 78793: a3 = a3 << 0x8\n 78796: a3 = a3 | a4\n 78799: a5 = a5 << 0x10\n 78802: a1 = a1 << 0x18\n 78805: a1 = a1 | a5\n 78808: a1 = a1 | a3\n 78811: a1 = a1 << 0x20\n 78814: t1 = a1 | a2\n 78817: a1 = u8 [a0 + 0x19]\n 78820: a3 = u8 [a0 + 0x18]\n 78823: a4 = u8 [a0 + 0x1a]\n 78826: a5 = u8 [a0 + 0x1b]\n 78829: a1 = a1 << 0x8\n 78832: a1 = a1 | a3\n 78835: a4 = a4 << 0x10\n 78838: a5 = a5 << 0x18\n 78841: a4 = a4 | a5\n 78844: a1 = a1 | a4\n 78847: a3 = u8 [a0 + 0x1d]\n 78850: a4 = u8 [a0 + 0x1c]\n 78853: a5 = u8 [a0 + 0x1e]\n 78856: a2 = u8 [a0 + 0x1f]\n 78859: a3 = a3 << 0x8\n 78862: a3 = a3 | a4\n 78865: a5 = a5 << 0x10\n 78868: a2 = a2 << 0x18\n 78871: a2 = a2 | a5\n 78874: a2 = a2 | a3\n 78877: a2 = a2 << 0x20\n 78880: a3 = a2 | a1\n 78883: a1 = u8 [a0 + 0x9]\n 78886: a2 = u8 [a0 + 0x8]\n 78889: a4 = u8 [a0 + 0xa]\n 78892: a5 = u8 [a0 + 0xb]\n 78895: a1 = a1 << 0x8\n 78898: a1 = a1 | a2\n 78901: a4 = a4 << 0x10\n 78904: a5 = a5 << 0x18\n 78907: a4 = a4 | a5\n 78910: a1 = a1 | a4\n 78913: a2 = u8 [a0 + 0xd]\n 78916: a4 = u8 [a0 + 0xc]\n 78919: a5 = u8 [a0 + 0xe]\n 78922: a0 = u8 [a0 + 0xf]\n 78925: a2 = a2 << 0x8\n 78928: a2 = a2 | a4\n 78931: a5 = a5 << 0x10\n 78934: a0 = a0 << 0x18\n 78937: a0 = a0 | a5\n 78940: a0 = a0 | a2\n 78943: a0 = a0 << 0x20\n 78946: a0 = a0 | a1\n 78949: a4 = reverse a0\n 78951: a1 = reverse a3\n 78953: a2 = reverse t1\n 78955: a0 = reverse t0\n 78957: u64 [s1 + 0x158] = a0\n 78961: u64 [s1 + 0x148] = a2\n 78965: a0 = a0 | a2\n 78968: a2 = a1\n 78970: a1 = a1 | a4\n 78973: a1 = a1 | a0\n 78976: a1 = a1 >> 0x20\n 78979: u64 [s1 + 0x150] = a4\n 78983: a0 = a0 | a4\n 78986: a0 = a0 << 0x20\n 78989: a0 = a0 | a1\n 78992: jump @1008 if a0 != 0\n      : @1004 (gas: 5)\n 78996: u64 [s1 + 0x140] = a2\n 79000: i32 a0 = a2 + 0\n 79002: a1 = 0x20\n 79005: u64 [s1 + 0x138] = a0\n 79009: ra = 890, jump @0\n      : @1005 [@dyn 445] (gas: 51)\n 79016: u8 [a0 + 31] = 0\n 79019: u8 [a0 + 30] = 0\n 79022: u8 [a0 + 29] = 0\n 79025: u8 [a0 + 28] = 0\n 79028: u8 [a0 + 27] = 0\n 79031: u8 [a0 + 26] = 0\n 79034: u8 [a0 + 25] = 0\n 79037: u8 [a0 + 24] = 0\n 79040: u8 [a0 + 23] = 0\n 79043: u8 [a0 + 22] = 0\n 79046: u8 [a0 + 21] = 0\n 79049: u8 [a0 + 20] = 0\n 79052: u8 [a0 + 19] = 0\n 79055: u8 [a0 + 18] = 0\n 79058: u8 [a0 + 17] = 0\n 79061: u8 [a0 + 16] = 0\n 79064: u8 [a0 + 15] = 0\n 79067: u8 [a0 + 14] = 0\n 79070: u8 [a0 + 13] = 0\n 79073: u8 [a0 + 12] = 0\n 79076: u8 [a0 + 11] = 0\n 79079: u8 [a0 + 10] = 0\n 79082: u8 [a0 + 9] = 0\n 79085: u8 [a0 + 8] = 0\n 79088: u8 [a0 + 7] = 0\n 79091: u8 [a0 + 6] = 0\n 79094: u8 [a0 + 5] = 0\n 79097: u8 [a0 + 4] = 0\n 79100: u8 [a0 + 3] = 0xa0\n 79105: u8 [a0 + 2] = 0x79\n 79109: u8 [a0 + 1] = 0xc3\n 79114: u8 [a0 + 0] = 0x8\n 79117: a1 = u64 [s1 + 0x140]\n 79121: a0 = a1 + 0x4\n 79124: a1 = a0 <u a1\n 79127: a3 = u64 [s1 + 0x158]\n 79131: a2 = a3 + a1\n 79134: a3 = a2 <u a3\n 79137: a3 = a1 if a1 == 0\n 79140: a1 = u64 [s1 + 0x150]\n 79144: a3 = a3 + a1\n 79147: a1 = a3 <u a1\n 79150: a4 = u64 [s1 + 0x148]\n 79154: a4 = a4 + a1\n 79157: u64 [s1 + 0x228] = a2\n 79161: u64 [s1 + 0x220] = a0\n 79165: u64 [s1 + 0x230] = a3\n 79169: a0 = s1 + 0x240\n 79173: a1 = s1 + 0x220\n 79177: u64 [s1 + 0x238] = a4\n 79181: ra = 892, jump @924\n      : @1006 [@dyn 446] (gas: 5)\n 79187: a0 = u64 [s1 + 0x248]\n 79191: t0 = u64 [s1 + 0x258]\n 79195: t1 = u64 [s1 + 0x240]\n 79199: a3 = u64 [s1 + 0x250]\n 79203: fallthrough\n      : @1007 (gas: 27)\n 79204: a1 = u64 [s1 + 0x158]\n 79208: a4 = a0 ^ a1\n 79211: a5 = a0 <u a1\n 79214: ra = a1\n 79216: t2 = u64 [s1 + 0x140]\n 79220: a1 = t1 <u t2\n 79223: a5 = a1 if a4 == 0\n 79226: a2 = u64 [s1 + 0x150]\n 79230: a4 = a3 - a2\n 79233: a3 = a3 <u a2\n 79236: a2 = u64 [s1 + 0x148]\n 79240: a2 = t0 - a2\n 79243: a2 = a2 - a3\n 79246: a3 = a4 <u a5\n 79249: a2 = a2 - a3\n 79252: a4 = a4 - a5\n 79255: a0 = a0 - ra\n 79258: a1 = a0 - a1\n 79261: a0 = t1 - t2\n 79264: a1 = a1 | a2\n 79267: a2 = a0 | a4\n 79270: a2 = a2 | a1\n 79273: a1 = a1 | a4\n 79276: a2 = a2 >> 0x20\n 79279: a1 = a1 << 0x20\n 79282: a1 = a1 | a2\n 79285: jump @1009 if a1 == 0\n      : @1008 (gas: 1)\n 79288: trap\n      : @1009 (gas: 4)\n 79289: i32 a1 = a0 + 0\n 79291: u64 [s1 + 0x158] = a1\n 79295: a0 = u64 [s1 + 0x138]\n 79299: ra = 894, jump @0\n      : @1010 [@dyn 447] (gas: 6)\n 79306: i32 a1 = a0 + 0\n 79308: a0 = 0x1\n 79311: a2 = u64 [s1 + 0x158]\n 79315: ra = 0x380\n 79319: ecalli 11 // 'seal_return'\n 79321: fallthrough\n      : @1011 [@dyn 448] (gas: 15)\n 79322: sp = sp + 0xffffffffffffffd0\n 79325: u64 [sp + 0x28] = ra\n 79328: u64 [sp + 0x20] = s0\n 79331: s0 = sp + 0x30\n 79334: sp = sp & 0xfffffffffffffff0\n 79337: a1 = u64 [a0]\n 79339: a2 = u64 [a0 + 0x8]\n 79342: a3 = u64 [a0 + 0x10]\n 79345: a0 = u64 [a0 + 0x18]\n 79348: u64 [sp + 0x18] = a0\n 79351: u64 [sp + 0x10] = a3\n 79354: u64 [sp + 0x8] = a2\n 79357: a0 = sp\n 79359: u64 [sp] = a1\n 79361: ra = 898, jump @892\n      : @1012 [@dyn 449] (gas: 5)\n 79367: sp = s0 + 0xffffffffffffffd0\n 79370: ra = u64 [sp + 0x28]\n 79373: s0 = u64 [sp + 0x20]\n 79376: sp = sp + 0x30\n 79379: ret\n      : @1013 (gas: 39)\n 79381: sp = sp + 0xfffffffffffffec0\n 79385: u64 [sp + 0x138] = ra\n 79389: u64 [sp + 0x130] = s0\n 79393: u64 [sp + 0x128] = s1\n 79397: s0 = sp + 0x140\n 79401: sp = sp & 0xffffffffffffffe0\n 79404: a2 = u64 [a1 + 0x18]\n 79407: u64 [sp] = a2\n 79409: a2 = u64 [a1 + 0x10]\n 79412: u64 [sp + 0x8] = a2\n 79415: a2 = u64 [a1 + 0x8]\n 79418: u64 [sp + 0x10] = a2\n 79421: a1 = u64 [a1]\n 79423: u64 [sp + 0x18] = a1\n 79426: a1 = u64 [a0 + 0x18]\n 79429: u64 [sp + 0x20] = a1\n 79432: a1 = u64 [a0 + 0x10]\n 79435: u64 [sp + 0x28] = a1\n 79438: a1 = u64 [a0 + 0x8]\n 79441: u64 [sp + 0x30] = a1\n 79444: a0 = u64 [a0]\n 79446: u64 [sp + 0x38] = a0\n 79449: u64 [sp + 248] = 0\n 79453: u64 [sp + 240] = 0\n 79457: u64 [sp + 232] = 0\n 79461: s1 = 0x3\n 79464: u64 [sp + 0xe0] = s1\n 79468: u64 [sp + 280] = 0\n 79472: u64 [sp + 272] = 0\n 79476: u64 [sp + 264] = 0\n 79480: u64 [sp + 256] = 0\n 79484: u32 [sp + 192] = 0x20\n 79489: i32 a1 = sp + 0xe0\n 79493: i32 a3 = sp + 0x100\n 79497: i32 a4 = sp + 0xc0\n 79501: a2 = 0xffffffffffffffff\n 79504: a0 = 0\n 79506: ecalli 7 // 'get_storage'\n 79508: fallthrough\n      : @1014 (gas: 9)\n 79509: a0 = u64 [sp + 0x118]\n 79513: a1 = u64 [sp + 0x108]\n 79517: a2 = u64 [sp + 0x100]\n 79521: a3 = u64 [sp + 0x110]\n 79525: a0 = a0 | a1\n 79528: a1 = a2 ^ 0x1\n 79531: a1 = a1 | a3\n 79534: a0 = a0 | a1\n 79537: jump @1017 if a0 != 0\n      : @1015 (gas: 73)\n 79541: u64 [sp + 248] = 0\n 79545: u64 [sp + 240] = 0\n 79549: u64 [sp + 232] = 0\n 79553: u64 [sp + 224] = 0x3\n 79558: u64 [sp + 280] = 0\n 79562: u64 [sp + 272] = 0\n 79566: u64 [sp + 264] = 0\n 79570: u64 [sp + 256] = 0\n 79574: u32 [sp + 192] = 0x20\n 79579: i32 a1 = sp + 0xe0\n 79583: i32 a3 = sp + 0x100\n 79587: i32 a4 = sp + 0xc0\n 79591: a2 = 0xffffffffffffffff\n 79594: a0 = 0\n 79596: ecalli 7 // 'get_storage'\n 79598: u64 [sp + 248] = 0\n 79602: u64 [sp + 240] = 0\n 79606: u64 [sp + 232] = 0\n 79610: u64 [sp + 224] = 0x3\n 79615: u64 [sp + 280] = 0\n 79619: u64 [sp + 272] = 0\n 79623: u64 [sp + 264] = 0\n 79627: u64 [sp + 256] = 0\n 79631: i32 a1 = sp + 0xe0\n 79635: i32 a3 = sp + 0x100\n 79639: a2 = 0xffffffffffffffff\n 79642: a4 = 0x20\n 79645: a0 = 0\n 79647: ecalli 13 // 'set_storage'\n 79649: a0 = u64 [sp]\n 79651: u64 [sp + 0x58] = a0\n 79654: a0 = u64 [sp + 0x8]\n 79657: u64 [sp + 0x50] = a0\n 79660: a0 = u64 [sp + 0x10]\n 79663: u64 [sp + 0x48] = a0\n 79666: a0 = u64 [sp + 0x18]\n 79669: u64 [sp + 0x40] = a0\n 79672: a0 = u64 [sp + 0x20]\n 79675: u64 [sp + 0x78] = a0\n 79678: a0 = u64 [sp + 0x28]\n 79681: u64 [sp + 0x70] = a0\n 79684: a0 = u64 [sp + 0x30]\n 79687: u64 [sp + 0x68] = a0\n 79690: a0 = sp + 0x60\n 79693: a1 = sp + 0x40\n 79696: a2 = u64 [sp + 0x38]\n 79699: u64 [sp + 0x60] = a2\n 79702: ra = 0x384\n 79706: sp = sp + 0xfffffffffffffdc0\n 79710: u64 [sp + 0x238] = ra\n 79714: u64 [sp + 0x230] = s0\n 79718: u64 [sp + 552] = 0x3\n 79723: s0 = sp + 0x240\n 79727: sp = sp & 0xffffffffffffffe0\n 79730: a2 = u64 [a1 + 0x18]\n 79733: u64 [sp + 0x60] = a2\n 79736: a2 = u64 [a1 + 0x10]\n 79739: u64 [sp + 0x68] = a2\n 79742: a2 = u64 [a1 + 0x8]\n 79745: u64 [sp + 0x70] = a2\n 79748: a1 = u64 [a1]\n 79750: u64 [sp + 0x78] = a1\n 79753: a1 = u64 [a0]\n 79755: u64 [sp + 0x58] = a1\n 79758: a1 = u64 [a0 + 0x8]\n 79761: u64 [sp + 0x50] = a1\n 79764: a1 = u64 [a0 + 0x10]\n 79767: u64 [sp + 0x48] = a1\n 79770: s1 = u64 [a0 + 0x18]\n 79773: a1 = 0x20\n 79776: a0 = 0\n 79778: ra = 0x398\n 79782: jump @0\n      : @1016 [@dyn 450] (gas: 35)\n 79786: u64 [sp + 248] = 0\n 79790: u64 [sp + 240] = 0\n 79794: u64 [sp + 232] = 0\n 79798: u64 [sp + 0xe0] = s1\n 79802: u64 [sp + 280] = 0\n 79806: u64 [sp + 272] = 0\n 79810: u64 [sp + 264] = 0\n 79814: u64 [sp + 256] = 0\n 79818: u32 [sp + 192] = 0x20\n 79823: i32 a1 = sp + 0xe0\n 79827: i32 a3 = sp + 0x100\n 79831: i32 a4 = sp + 0xc0\n 79835: a2 = 0xffffffffffffffff\n 79838: a0 = 0\n 79840: ecalli 7 // 'get_storage'\n 79842: u64 [sp + 248] = 0\n 79846: u64 [sp + 240] = 0\n 79850: u64 [sp + 232] = 0\n 79854: u64 [sp + 0xe0] = s1\n 79858: u64 [sp + 280] = 0\n 79862: u64 [sp + 272] = 0\n 79866: u64 [sp + 264] = 0\n 79870: u64 [sp + 256] = 0x1\n 79875: i32 a1 = sp + 0xe0\n 79879: i32 a3 = sp + 0x100\n 79883: a2 = 0xffffffffffffffff\n 79886: a4 = 0x20\n 79889: a0 = 0\n 79891: ecalli 13 // 'set_storage'\n 79893: sp = s0 + 0xfffffffffffffec0\n 79897: ra = u64 [sp + 0x138]\n 79901: s0 = u64 [sp + 0x130]\n 79905: s1 = u64 [sp + 0x128]\n 79909: sp = sp + 0x140\n 79913: ret\n      : @1017 (gas: 3)\n 79915: a0 = 0x40\n 79918: a1 = 0x20\n 79921: ra = 902, jump @0\n      : @1018 [@dyn 451] (gas: 103)\n 79928: a1 = u8 [a0 + 0x11]\n 79931: a2 = u8 [a0 + 0x10]\n 79934: a3 = u8 [a0 + 0x12]\n 79937: a4 = u8 [a0 + 0x13]\n 79940: a1 = a1 << 0x8\n 79943: a1 = a1 | a2\n 79946: a3 = a3 << 0x10\n 79949: a4 = a4 << 0x18\n 79952: a3 = a3 | a4\n 79955: a1 = a1 | a3\n 79958: a2 = u8 [a0 + 0x15]\n 79961: a3 = u8 [a0 + 0x14]\n 79964: a4 = u8 [a0 + 0x16]\n 79967: a5 = u8 [a0 + 0x17]\n 79970: a2 = a2 << 0x8\n 79973: a2 = a2 | a3\n 79976: a4 = a4 << 0x10\n 79979: a5 = a5 << 0x18\n 79982: a4 = a4 | a5\n 79985: a2 = a2 | a4\n 79988: a2 = a2 << 0x20\n 79991: t0 = a2 | a1\n 79994: a2 = u8 [a0 + 0x1]\n 79997: a3 = u8 [a0]\n 79999: a4 = u8 [a0 + 0x2]\n 80002: a5 = u8 [a0 + 0x3]\n 80005: a2 = a2 << 0x8\n 80008: a2 = a2 | a3\n 80011: a4 = a4 << 0x10\n 80014: a5 = a5 << 0x18\n 80017: a4 = a4 | a5\n 80020: a2 = a2 | a4\n 80023: a3 = u8 [a0 + 0x5]\n 80026: a4 = u8 [a0 + 0x4]\n 80029: a5 = u8 [a0 + 0x6]\n 80032: s1 = u8 [a0 + 0x7]\n 80035: a3 = a3 << 0x8\n 80038: a3 = a3 | a4\n 80041: a5 = a5 << 0x10\n 80044: s1 = s1 << 0x18\n 80047: a5 = a5 | s1\n 80050: a3 = a3 | a5\n 80053: a3 = a3 << 0x20\n 80056: a2 = a2 | a3\n 80059: a3 = u8 [a0 + 0x19]\n 80062: a4 = u8 [a0 + 0x18]\n 80065: a5 = u8 [a0 + 0x1a]\n 80068: s1 = u8 [a0 + 0x1b]\n 80071: a3 = a3 << 0x8\n 80074: a3 = a3 | a4\n 80077: a5 = a5 << 0x10\n 80080: s1 = s1 << 0x18\n 80083: a5 = a5 | s1\n 80086: a3 = a3 | a5\n 80089: a4 = u8 [a0 + 0x1d]\n 80092: a5 = u8 [a0 + 0x1c]\n 80095: s1 = u8 [a0 + 0x1e]\n 80098: a1 = u8 [a0 + 0x1f]\n 80101: a4 = a4 << 0x8\n 80104: a4 = a4 | a5\n 80107: s1 = s1 << 0x10\n 80110: a1 = a1 << 0x18\n 80113: a1 = a1 | s1\n 80116: a1 = a1 | a4\n 80119: a1 = a1 << 0x20\n 80122: a3 = a3 | a1\n 80125: a1 = u8 [a0 + 0x9]\n 80128: a4 = u8 [a0 + 0x8]\n 80131: a5 = u8 [a0 + 0xa]\n 80134: s1 = u8 [a0 + 0xb]\n 80137: a1 = a1 << 0x8\n 80140: a1 = a1 | a4\n 80143: a5 = a5 << 0x10\n 80146: s1 = s1 << 0x18\n 80149: a5 = a5 | s1\n 80152: a1 = a1 | a5\n 80155: a4 = u8 [a0 + 0xd]\n 80158: a5 = u8 [a0 + 0xc]\n 80161: s1 = u8 [a0 + 0xe]\n 80164: a0 = u8 [a0 + 0xf]\n 80167: a4 = a4 << 0x8\n 80170: a4 = a4 | a5\n 80173: s1 = s1 << 0x10\n 80176: a0 = a0 << 0x18\n 80179: a0 = a0 | s1\n 80182: a0 = a0 | a4\n 80185: a0 = a0 << 0x20\n 80188: a0 = a0 | a1\n 80191: s1 = reverse a0\n 80193: a1 = reverse a3\n 80195: a2 = reverse a2\n 80197: a0 = reverse t0\n 80199: u64 [sp + 0x38] = a0\n 80202: u64 [sp + 0x30] = a2\n 80205: a0 = a0 | a2\n 80208: a2 = a1\n 80210: a1 = a1 | s1\n 80213: a1 = a1 | a0\n 80216: a1 = a1 >> 0x20\n 80219: a0 = a0 | s1\n 80222: a0 = a0 << 0x20\n 80225: a0 = a0 | a1\n 80228: jump @1022 if a0 != 0\n      : @1019 (gas: 5)\n 80232: u64 [sp + 0x28] = a2\n 80235: i32 a0 = a2 + 0\n 80237: a1 = 0x20\n 80240: u64 [sp + 0x20] = a0\n 80243: ra = 904, jump @0\n      : @1020 [@dyn 452] (gas: 50)\n 80250: u8 [a0 + 31] = 0\n 80253: u8 [a0 + 30] = 0\n 80256: u8 [a0 + 29] = 0\n 80259: u8 [a0 + 28] = 0\n 80262: u8 [a0 + 27] = 0\n 80265: u8 [a0 + 26] = 0\n 80268: u8 [a0 + 25] = 0\n 80271: u8 [a0 + 24] = 0\n 80274: u8 [a0 + 23] = 0\n 80277: u8 [a0 + 22] = 0\n 80280: u8 [a0 + 21] = 0\n 80283: u8 [a0 + 20] = 0\n 80286: u8 [a0 + 19] = 0\n 80289: u8 [a0 + 18] = 0\n 80292: u8 [a0 + 17] = 0\n 80295: u8 [a0 + 16] = 0\n 80298: u8 [a0 + 15] = 0\n 80301: u8 [a0 + 14] = 0\n 80304: u8 [a0 + 13] = 0\n 80307: u8 [a0 + 12] = 0\n 80310: u8 [a0 + 11] = 0\n 80313: u8 [a0 + 10] = 0\n 80316: u8 [a0 + 9] = 0\n 80319: u8 [a0 + 8] = 0\n 80322: u8 [a0 + 7] = 0\n 80325: u8 [a0 + 6] = 0\n 80328: u8 [a0 + 5] = 0\n 80331: u8 [a0 + 4] = 0\n 80334: u8 [a0 + 3] = 0xa0\n 80339: u8 [a0 + 2] = 0x79\n 80343: u8 [a0 + 1] = 0xc3\n 80348: u8 [a0 + 0] = 0x8\n 80351: a1 = u64 [sp + 0x28]\n 80354: a0 = a1 + 0x4\n 80357: a1 = a0 <u a1\n 80360: a3 = u64 [sp + 0x38]\n 80363: a2 = a3 + a1\n 80366: a3 = a2 <u a3\n 80369: a3 = a1 if a1 == 0\n 80372: a3 = a3 + s1\n 80375: a1 = a3 <u s1\n 80378: a4 = u64 [sp + 0x30]\n 80381: a4 = a4 + a1\n 80384: u64 [sp + 0x88] = a2\n 80388: u64 [sp + 0x80] = a0\n 80392: u64 [sp + 0x90] = a3\n 80396: a0 = sp + 0xa0\n 80400: a1 = sp + 0x80\n 80404: u64 [sp + 0x98] = a4\n 80408: ra = 906, jump @432\n      : @1021 [@dyn 453] (gas: 30)\n 80415: a0 = u64 [sp + 0xa8]\n 80419: t0 = u64 [sp + 0xb8]\n 80423: t1 = u64 [sp + 0xa0]\n 80427: a3 = u64 [sp + 0xb0]\n 80431: a1 = u64 [sp + 0x38]\n 80434: a4 = a0 ^ a1\n 80437: a5 = a0 <u a1\n 80440: t2 = a1\n 80442: a2 = u64 [sp + 0x28]\n 80445: a1 = t1 <u a2\n 80448: a5 = a1 if a4 == 0\n 80451: a4 = a3 - s1\n 80454: a3 = a3 <u s1\n 80457: s1 = u64 [sp + 0x30]\n 80460: s1 = t0 - s1\n 80463: s1 = s1 - a3\n 80466: a3 = a4 <u a5\n 80469: s1 = s1 - a3\n 80472: a4 = a4 - a5\n 80475: a0 = a0 - t2\n 80478: a1 = a0 - a1\n 80481: a0 = t1 - a2\n 80484: a1 = a1 | s1\n 80487: a2 = a0 | a4\n 80490: a2 = a2 | a1\n 80493: a1 = a1 | a4\n 80496: a2 = a2 >> 0x20\n 80499: a1 = a1 << 0x20\n 80502: a1 = a1 | a2\n 80505: jump @1023 if a1 == 0\n      : @1022 (gas: 1)\n 80508: trap\n      : @1023 (gas: 4)\n 80509: i32 s1 = a0 + 0\n 80511: a0 = u64 [sp + 0x20]\n 80514: a1 = s1\n 80516: ra = 908, jump @0\n      : @1024 [@dyn 454] (gas: 6)\n 80523: i32 a1 = a0 + 0\n 80525: a0 = 0x1\n 80528: a2 = s1\n 80530: ra = 0x38e\n 80534: ecalli 11 // 'seal_return'\n 80536: fallthrough\n      : @1025 [@dyn 455] (gas: 12)\n 80537: a1 = u64 [a0 + 0x10]\n 80540: a2 = u64 [a0 + 0x18]\n 80543: a3 = u64 [a0 + 0x8]\n 80546: a0 = u64 [a0]\n 80548: a2 = a2 | a3\n 80551: a3 = a0 | a1\n 80554: a3 = a3 | a2\n 80557: a3 = a3 >> 0x20\n 80560: a1 = a1 | a2\n 80563: a1 = a1 << 0x20\n 80566: a1 = a1 | a3\n 80569: jump @1028 if a1 != 0\n      : @1026 (gas: 5)\n 80573: sp = sp + 0xfffffffffffffff8\n 80576: u64 [sp] = ra\n 80578: i32 a0 = a0 + 0\n 80580: a1 = 0x20\n 80583: ra = 912, jump @0\n      : @1027 [@dyn 456] (gas: 37)\n 80590: u8 [a0 + 31] = 0\n 80593: u8 [a0 + 30] = 0\n 80596: u8 [a0 + 29] = 0\n 80599: u8 [a0 + 28] = 0\n 80602: u8 [a0 + 27] = 0\n 80605: u8 [a0 + 26] = 0\n 80608: u8 [a0 + 25] = 0\n 80611: u8 [a0 + 24] = 0\n 80614: u8 [a0 + 23] = 0\n 80617: u8 [a0 + 22] = 0\n 80620: u8 [a0 + 21] = 0\n 80623: u8 [a0 + 20] = 0\n 80626: u8 [a0 + 19] = 0\n 80629: u8 [a0 + 18] = 0\n 80632: u8 [a0 + 17] = 0\n 80635: u8 [a0 + 16] = 0\n 80638: u8 [a0 + 15] = 0\n 80641: u8 [a0 + 14] = 0\n 80644: u8 [a0 + 13] = 0\n 80647: u8 [a0 + 12] = 0\n 80650: u8 [a0 + 11] = 0\n 80653: u8 [a0 + 10] = 0\n 80656: u8 [a0 + 9] = 0\n 80659: u8 [a0 + 8] = 0\n 80662: u8 [a0 + 7] = 0x77\n 80666: u8 [a0 + 6] = 0x61\n 80670: u8 [a0 + 5] = 0x72\n 80674: a2 = 0x64\n 80677: u8 [a0 + 0x4] = a2\n 80680: u8 [a0 + 3] = 0x72\n 80684: u8 [a0 + 2] = 0x65\n 80688: u8 [a0 + 1] = 0x76\n 80692: a1 = 0x6f\n 80695: u8 [a0] = a1\n 80697: ra = u64 [sp]\n 80699: sp = sp + 0x8\n 80702: ret\n      : @1028 (gas: 1)\n 80704: trap\n      : @1029 (gas: 17)\n 80705: sp = sp + 0xffffffffffffffa0\n 80708: u64 [sp + 0x58] = ra\n 80711: u64 [sp + 0x50] = s0\n 80714: u64 [sp + 0x48] = s1\n 80717: a3 = u64 [a1 + 0x18]\n 80720: a4 = u64 [a1 + 0x10]\n 80723: a5 = u64 [a1 + 0x8]\n 80726: s1 = u64 [a1]\n 80728: a1 = a5 | a3\n 80731: a2 = s1 | a4\n 80734: a2 = a2 | a1\n 80737: a2 = a2 >> 0x20\n 80740: a1 = a1 | a4\n 80743: a1 = a1 << 0x20\n 80746: a1 = a1 | a2\n 80749: u64 [sp + 0x28] = a0\n 80752: jump @1036 if a1 != 0\n      : @1030 (gas: 19)\n 80756: a0 = s1 + 0x20\n 80759: u64 [sp + 0x30] = a0\n 80762: a0 = a0 <u s1\n 80765: a1 = a5 + a0\n 80768: u64 [sp + 0x40] = a1\n 80771: u64 [sp + 0x8] = a5\n 80774: s0 = a1 <u a5\n 80777: s0 = a0 if a0 == 0\n 80780: s0 = s0 + a4\n 80783: u64 [sp + 0x10] = a4\n 80786: a0 = s0 <u a4\n 80789: u64 [sp + 0x18] = a3\n 80792: a0 = a0 + a3\n 80795: u64 [sp + 0x38] = a0\n 80798: u64 [sp] = s1\n 80800: i32 a0 = s1 + 0\n 80802: a1 = 0x20\n 80805: s1 = 0x20\n 80808: ra = 914, jump @0\n      : @1031 [@dyn 457] (gas: 45)\n 80815: u8 [a0 + 0x1f] = s1\n 80818: a1 = u64 [sp + 0x30]\n 80821: s1 = a1\n 80823: a1 = a1 | s0\n 80826: a2 = u64 [sp + 0x40]\n 80829: a4 = u64 [sp + 0x38]\n 80832: a2 = a2 | a4\n 80835: a1 = a1 | a2\n 80838: a1 = a1 >> 0x20\n 80841: u64 [sp + 0x20] = s0\n 80844: a2 = a2 | s0\n 80847: a2 = a2 << 0x20\n 80850: a1 = a1 | a2\n 80853: u8 [a0 + 30] = 0\n 80856: u8 [a0 + 29] = 0\n 80859: u8 [a0 + 28] = 0\n 80862: u8 [a0 + 27] = 0\n 80865: u8 [a0 + 26] = 0\n 80868: u8 [a0 + 25] = 0\n 80871: u8 [a0 + 24] = 0\n 80874: u8 [a0 + 23] = 0\n 80877: u8 [a0 + 22] = 0\n 80880: u8 [a0 + 21] = 0\n 80883: u8 [a0 + 20] = 0\n 80886: u8 [a0 + 19] = 0\n 80889: u8 [a0 + 18] = 0\n 80892: u8 [a0 + 17] = 0\n 80895: u8 [a0 + 16] = 0\n 80898: u8 [a0 + 15] = 0\n 80901: u8 [a0 + 14] = 0\n 80904: u8 [a0 + 13] = 0\n 80907: u8 [a0 + 12] = 0\n 80910: u8 [a0 + 11] = 0\n 80913: u8 [a0 + 10] = 0\n 80916: u8 [a0 + 9] = 0\n 80919: u8 [a0 + 8] = 0\n 80922: u8 [a0 + 7] = 0\n 80925: u8 [a0 + 6] = 0\n 80928: u8 [a0 + 5] = 0\n 80931: u8 [a0 + 4] = 0\n 80934: u8 [a0 + 3] = 0\n 80937: u8 [a0 + 2] = 0\n 80940: u8 [a0 + 1] = 0\n 80943: u8 [a0 + 0] = 0\n 80945: jump @1036 if a1 != 0\n      : @1032 (gas: 4)\n 80949: i32 s0 = s1 + 0\n 80951: a1 = 0x20\n 80954: a0 = s0\n 80956: ra = 916, jump @0\n      : @1033 [@dyn 458] (gas: 41)\n 80963: u8 [a0 + 31] = 0x8\n 80967: u8 [a0 + 30] = 0\n 80970: u8 [a0 + 29] = 0\n 80973: u8 [a0 + 28] = 0\n 80976: u8 [a0 + 27] = 0\n 80979: u8 [a0 + 26] = 0\n 80982: u8 [a0 + 25] = 0\n 80985: u8 [a0 + 24] = 0\n 80988: u8 [a0 + 23] = 0\n 80991: u8 [a0 + 22] = 0\n 80994: u8 [a0 + 21] = 0\n 80997: u8 [a0 + 20] = 0\n 81000: u8 [a0 + 19] = 0\n 81003: u8 [a0 + 18] = 0\n 81006: u8 [a0 + 17] = 0\n 81009: u8 [a0 + 16] = 0\n 81012: u8 [a0 + 15] = 0\n 81015: u8 [a0 + 14] = 0\n 81018: u8 [a0 + 13] = 0\n 81021: u8 [a0 + 12] = 0\n 81024: u8 [a0 + 11] = 0\n 81027: u8 [a0 + 10] = 0\n 81030: u8 [a0 + 9] = 0\n 81033: u8 [a0 + 8] = 0\n 81036: u8 [a0 + 7] = 0\n 81039: u8 [a0 + 6] = 0\n 81042: u8 [a0 + 5] = 0\n 81045: u8 [a0 + 4] = 0\n 81048: u8 [a0 + 3] = 0\n 81051: u8 [a0 + 2] = 0\n 81054: u8 [a0 + 1] = 0\n 81057: a1 = u64 [sp + 0x20]\n 81060: a2 = u64 [sp + 0x38]\n 81063: a1 = a1 | a2\n 81066: a2 = 0xffffffe0\n 81076: a2 = s1 <u a2\n 81079: a3 = u64 [sp + 0x40]\n 81082: a2 = 0 if a3 != 0\n 81084: a2 = 0 if a1 != 0\n 81086: u8 [a0 + 0] = 0\n 81088: jump @1036 if a2 == 0\n      : @1034 (gas: 3)\n 81092: i32 a0 = s0 + 0x20\n 81095: a1 = 0x20\n 81098: ra = 918, jump @0\n      : @1035 [@dyn 459] (gas: 54)\n 81105: u8 [a0 + 31] = 0\n 81108: u8 [a0 + 30] = 0\n 81111: u8 [a0 + 29] = 0\n 81114: u8 [a0 + 28] = 0\n 81117: u8 [a0 + 27] = 0\n 81120: u8 [a0 + 26] = 0\n 81123: u8 [a0 + 25] = 0\n 81126: u8 [a0 + 24] = 0\n 81129: u8 [a0 + 23] = 0\n 81132: u8 [a0 + 22] = 0\n 81135: u8 [a0 + 21] = 0\n 81138: u8 [a0 + 20] = 0\n 81141: u8 [a0 + 19] = 0\n 81144: u8 [a0 + 18] = 0\n 81147: u8 [a0 + 17] = 0\n 81150: u8 [a0 + 16] = 0\n 81153: u8 [a0 + 15] = 0\n 81156: u8 [a0 + 14] = 0\n 81159: u8 [a0 + 13] = 0\n 81162: u8 [a0 + 12] = 0\n 81165: u8 [a0 + 11] = 0\n 81168: u8 [a0 + 10] = 0\n 81171: u8 [a0 + 9] = 0\n 81174: u8 [a0 + 8] = 0\n 81177: u8 [a0 + 7] = 0x77\n 81181: u8 [a0 + 6] = 0x61\n 81185: u8 [a0 + 5] = 0x72\n 81189: u8 [a0 + 4] = 0x64\n 81193: u8 [a0 + 3] = 0x72\n 81197: u8 [a0 + 2] = 0x65\n 81201: u8 [a0 + 1] = 0x76\n 81205: u8 [a0 + 0] = 0x6f\n 81208: a1 = u64 [sp]\n 81210: a0 = a1 + 0x60\n 81213: a1 = a0 <u a1\n 81216: a3 = u64 [sp + 0x8]\n 81219: a2 = a3 + a1\n 81222: a3 = a2 <u a3\n 81225: a3 = a1 if a1 == 0\n 81228: a1 = u64 [sp + 0x10]\n 81231: a3 = a3 + a1\n 81234: a1 = a3 <u a1\n 81237: a4 = u64 [sp + 0x18]\n 81240: a1 = a1 + a4\n 81243: a4 = u64 [sp + 0x28]\n 81246: u64 [a4] = a0\n 81248: u64 [a4 + 0x8] = a2\n 81251: u64 [a4 + 0x10] = a3\n 81254: u64 [a4 + 0x18] = a1\n 81257: ra = u64 [sp + 0x58]\n 81260: s0 = u64 [sp + 0x50]\n 81263: s1 = u64 [sp + 0x48]\n 81266: sp = sp + 0x60\n 81269: ret\n      : @1036 (gas: 1)\n 81271: trap\n      : @1037 [@dyn 460] (gas: 70)\n 81272: a1 = reverse s1\n 81274: a2 = u64 [sp + 0x48]\n 81277: a2 = reverse a2\n 81279: a3 = u64 [sp + 0x50]\n 81282: a3 = reverse a3\n 81284: a4 = u64 [sp + 0x58]\n 81287: a4 = reverse a4\n 81289: u8 [a0 + 0x18] = a4\n 81292: u8 [a0 + 0x10] = a3\n 81295: u8 [a0 + 0x8] = a2\n 81298: u8 [a0] = a1\n 81300: a5 = a4 >> 0x38\n 81303: u8 [a0 + 0x1f] = a5\n 81306: a5 = a4 >> 0x30\n 81309: u8 [a0 + 0x1e] = a5\n 81312: a5 = a4 >> 0x28\n 81315: u8 [a0 + 0x1d] = a5\n 81318: a5 = a4 >> 0x20\n 81321: u8 [a0 + 0x1c] = a5\n 81324: a5 = a4 >> 0x18\n 81327: u8 [a0 + 0x1b] = a5\n 81330: a5 = a4 >> 0x10\n 81333: u8 [a0 + 0x1a] = a5\n 81336: a4 = a4 >> 0x8\n 81339: u8 [a0 + 0x19] = a4\n 81342: a4 = a3 >> 0x38\n 81345: u8 [a0 + 0x17] = a4\n 81348: a4 = a3 >> 0x30\n 81351: u8 [a0 + 0x16] = a4\n 81354: a4 = a3 >> 0x28\n 81357: u8 [a0 + 0x15] = a4\n 81360: a4 = a3 >> 0x20\n 81363: u8 [a0 + 0x14] = a4\n 81366: a4 = a3 >> 0x18\n 81369: u8 [a0 + 0x13] = a4\n 81372: a4 = a3 >> 0x10\n 81375: u8 [a0 + 0x12] = a4\n 81378: a3 = a3 >> 0x8\n 81381: u8 [a0 + 0x11] = a3\n 81384: a3 = a2 >> 0x38\n 81387: u8 [a0 + 0xf] = a3\n 81390: a3 = a2 >> 0x30\n 81393: u8 [a0 + 0xe] = a3\n 81396: a3 = a2 >> 0x28\n 81399: u8 [a0 + 0xd] = a3\n 81402: a3 = a2 >> 0x20\n 81405: u8 [a0 + 0xc] = a3\n 81408: a3 = a2 >> 0x18\n 81411: u8 [a0 + 0xb] = a3\n 81414: a3 = a2 >> 0x10\n 81417: u8 [a0 + 0xa] = a3\n 81420: a2 = a2 >> 0x8\n 81423: u8 [a0 + 0x9] = a2\n 81426: a2 = a1 >> 0x38\n 81429: u8 [a0 + 0x7] = a2\n 81432: a2 = a1 >> 0x30\n 81435: u8 [a0 + 0x6] = a2\n 81438: a2 = a1 >> 0x28\n 81441: u8 [a0 + 0x5] = a2\n 81444: a2 = a1 >> 0x20\n 81447: u8 [a0 + 0x4] = a2\n 81450: a2 = a1 >> 0x18\n 81453: u8 [a0 + 0x3] = a2\n 81456: a2 = a1 >> 0x10\n 81459: u8 [a0 + 0x2] = a2\n 81462: a1 = a1 >> 0x8\n 81465: u8 [a0 + 0x1] = a1\n 81468: a0 = 0x20\n 81471: a1 = 0x20\n 81474: ra = 922, jump @0\n      : @1038 [@dyn 461] (gas: 35)\n 81481: u8 [a0 + 31] = 0x1\n 81485: u8 [a0 + 30] = 0\n 81488: u8 [a0 + 29] = 0\n 81491: u8 [a0 + 28] = 0\n 81494: u8 [a0 + 27] = 0\n 81497: u8 [a0 + 26] = 0\n 81500: u8 [a0 + 25] = 0\n 81503: u8 [a0 + 24] = 0\n 81506: u8 [a0 + 23] = 0\n 81509: u8 [a0 + 22] = 0\n 81512: u8 [a0 + 21] = 0\n 81515: u8 [a0 + 20] = 0\n 81518: u8 [a0 + 19] = 0\n 81521: u8 [a0 + 18] = 0\n 81524: u8 [a0 + 17] = 0\n 81527: u8 [a0 + 16] = 0\n 81530: u8 [a0 + 15] = 0\n 81533: u8 [a0 + 14] = 0\n 81536: u8 [a0 + 13] = 0\n 81539: u8 [a0 + 12] = 0\n 81542: u8 [a0 + 11] = 0\n 81545: u8 [a0 + 10] = 0\n 81548: u8 [a0 + 9] = 0\n 81551: u8 [a0 + 8] = 0\n 81554: u8 [a0 + 7] = 0\n 81557: u8 [a0 + 6] = 0\n 81560: u8 [a0 + 5] = 0\n 81563: u8 [a0 + 4] = 0\n 81566: u8 [a0 + 3] = 0\n 81569: u8 [a0 + 2] = 0\n 81572: u8 [a0 + 1] = 0\n 81575: u8 [a0 + 0] = 0\n 81577: a1 = 0x40\n 81580: a0 = 0\n 81582: ra = 924, jump @0\n      : @1039 [@dyn 462] (gas: 53)\n 81589: i32 a0 = a0 + 0\n 81591: i32 a2 = sp + 0x200\n 81595: a1 = 0x40\n 81598: ecalli 8 // 'hash_keccak_256'\n 81600: a0 = u64 [sp + 0x218]\n 81604: a1 = u64 [sp + 0x210]\n 81608: a2 = u64 [sp + 0x208]\n 81612: a3 = u64 [sp + 0x200]\n 81616: a0 = reverse a0\n 81618: u64 [sp + 0x58] = a0\n 81621: a0 = reverse a1\n 81623: u64 [sp + 0x50] = a0\n 81626: a0 = reverse a2\n 81628: u64 [sp + 0x48] = a0\n 81631: a0 = reverse a3\n 81633: u64 [sp + 0x40] = a0\n 81636: i32 a0 = sp + 0x140\n 81640: ecalli 4 // 'caller'\n 81642: a0 = u64 [sp + 0x148]\n 81646: a1 = u64 [sp + 0x140]\n 81650: a2 = i32 [sp + 0x150]\n 81654: a0 = reverse a0\n 81656: a3 = a0 >> 0x20\n 81659: s1 = reverse a1\n 81661: a1 = s1 << 0x20\n 81664: a1 = a1 | a3\n 81667: u64 [sp + 0x38] = a1\n 81670: a0 = a0 << 0x20\n 81673: a1 = reverse a2\n 81675: a1 = a1 >> 0x20\n 81678: a0 = a0 | a1\n 81681: u64 [sp + 0x30] = a0\n 81684: s1 = s1 >> 0x20\n 81687: a0 = u64 [sp + 0x40]\n 81690: u64 [sp + 0x1f8] = a0\n 81694: a0 = u64 [sp + 0x48]\n 81697: u64 [sp + 0x1f0] = a0\n 81701: a0 = u64 [sp + 0x50]\n 81704: u64 [sp + 0x1e8] = a0\n 81708: a0 = u64 [sp + 0x58]\n 81711: u64 [sp + 0x1e0] = a0\n 81715: u64 [sp + 536] = 0\n 81719: u64 [sp + 528] = 0\n 81723: u64 [sp + 520] = 0\n 81727: u64 [sp + 512] = 0\n 81731: u32 [sp + 544] = 0x20\n 81736: i32 a1 = sp + 0x1e0\n 81740: i32 a3 = sp + 0x200\n 81744: i32 a4 = sp + 0x220\n 81748: a2 = 0xffffffffffffffff\n 81751: a0 = 0\n 81753: ecalli 7 // 'get_storage'\n 81755: fallthrough\n      : @1040 (gas: 11)\n 81756: a0 = u32 [sp + 0x210]\n 81760: a1 = u64 [sp + 0x200]\n 81764: a2 = u64 [sp + 0x208]\n 81768: a0 = a0 ^ s1\n 81771: a3 = u64 [sp + 0x30]\n 81774: a1 = a1 ^ a3\n 81777: a0 = a0 | a1\n 81780: a1 = u64 [sp + 0x38]\n 81783: a1 = a1 ^ a2\n 81786: a0 = a0 | a1\n 81789: jump @1050 if a0 != 0\n      : @1041 (gas: 32)\n 81793: a0 = u64 [sp + 0x58]\n 81796: a2 = a0 + 0x3\n 81799: a0 = a2 <u a0\n 81802: a1 = u64 [sp + 0x50]\n 81805: a3 = a1 + a0\n 81808: a1 = a3 <u a1\n 81811: a1 = a0 if a0 == 0\n 81814: a0 = u64 [sp + 0x48]\n 81817: a1 = a1 + a0\n 81820: a0 = a1 <u a0\n 81823: a4 = u64 [sp + 0x40]\n 81826: a0 = a0 + a4\n 81829: u64 [sp + 0x38] = a2\n 81832: u64 [sp + 0x1e0] = a2\n 81836: u64 [sp + 0x30] = a3\n 81839: u64 [sp + 0x1e8] = a3\n 81843: u64 [sp + 0x28] = a1\n 81846: u64 [sp + 0x1f0] = a1\n 81850: u64 [sp + 0x20] = a0\n 81853: u64 [sp + 0x1f8] = a0\n 81857: u64 [sp + 536] = 0\n 81861: u64 [sp + 528] = 0\n 81865: u64 [sp + 520] = 0\n 81869: u64 [sp + 512] = 0\n 81873: u32 [sp + 544] = 0x20\n 81878: i32 a1 = sp + 0x1e0\n 81882: i32 a3 = sp + 0x200\n 81886: i32 a4 = sp + 0x220\n 81890: a2 = 0xffffffffffffffff\n 81893: a0 = 0\n 81895: ecalli 7 // 'get_storage'\n 81897: fallthrough\n      : @1042 (gas: 20)\n 81898: a0 = u64 [sp + 0x218]\n 81902: a1 = u64 [sp + 0x200]\n 81906: t1 = u64 [sp + 0x210]\n 81910: a3 = u64 [sp + 0x208]\n 81914: a2 = u64 [sp + 0x60]\n 81917: a4 = a0 ^ a2\n 81920: a0 = a0 <u a2\n 81923: a2 = u64 [sp + 0x68]\n 81926: a5 = t1 <u a2\n 81929: a5 = a0 if a4 != 0\n 81932: a0 = u64 [sp + 0x70]\n 81935: t0 = a3 ^ a0\n 81938: a3 = a3 <u a0\n 81941: s1 = u64 [sp + 0x78]\n 81944: a1 = a1 <u s1\n 81947: a1 = a3 if t0 != 0\n 81950: a0 = t1 ^ a2\n 81953: a0 = a0 | a4\n 81956: a1 = a5 if a0 != 0\n 81959: jump @1055 if a1 != 0\n      : @1043 (gas: 20)\n 81963: a0 = u64 [sp + 0x28]\n 81966: u64 [sp + 0x1f0] = a0\n 81970: a0 = u64 [sp + 0x30]\n 81973: u64 [sp + 0x1e8] = a0\n 81977: a0 = u64 [sp + 0x38]\n 81980: u64 [sp + 0x1e0] = a0\n 81984: a0 = u64 [sp + 0x20]\n 81987: u64 [sp + 0x1f8] = a0\n 81991: u64 [sp + 536] = 0\n 81995: u64 [sp + 528] = 0\n 81999: u64 [sp + 520] = 0\n 82003: u64 [sp + 512] = 0\n 82007: u32 [sp + 544] = 0x20\n 82012: i32 a1 = sp + 0x1e0\n 82016: i32 a3 = sp + 0x200\n 82020: i32 a4 = sp + 0x220\n 82024: a2 = 0xffffffffffffffff\n 82027: a0 = 0\n 82029: ecalli 7 // 'get_storage'\n 82031: fallthrough\n      : @1044 (gas: 22)\n 82032: a2 = u64 [sp + 0x218]\n 82036: a3 = u64 [sp + 0x210]\n 82040: t1 = u64 [sp + 0x208]\n 82044: a1 = u64 [sp + 0x200]\n 82048: a4 = u64 [sp + 0x60]\n 82051: a0 = a2 ^ a4\n 82054: a4 = a2 <u a4\n 82057: t0 = u64 [sp + 0x68]\n 82060: a5 = a3 <u t0\n 82063: u64 [sp + 0x10] = a5\n 82066: a4 = a5 if a0 == 0\n 82069: a5 = u64 [sp + 0x70]\n 82072: t2 = t1 ^ a5\n 82075: s1 = t1 <u a5\n 82078: a5 = u64 [sp + 0x78]\n 82081: u64 [sp] = a1\n 82083: ra = a1 <u a5\n 82086: s1 = ra if t2 == 0\n 82089: a5 = a3 ^ t0\n 82092: a0 = a0 | a5\n 82095: a4 = s1 if a0 == 0\n 82098: jump @1063 if a4 != 0\n      : @1045 (gas: 105)\n 82102: a0 = u64 [sp + 0x68]\n 82105: a0 = a3 - a0\n 82108: a3 = a0 - s1\n 82111: u64 [sp + 0x18] = a3\n 82114: a0 = a0 <u s1\n 82117: a3 = u64 [sp + 0x60]\n 82120: a2 = a2 - a3\n 82123: a1 = u64 [sp + 0x10]\n 82126: a2 = a2 - a1\n 82129: a2 = a2 - a0\n 82132: u64 [sp + 0x10] = a2\n 82135: a0 = u64 [sp + 0x70]\n 82138: a0 = t1 - a0\n 82141: a0 = a0 - ra\n 82144: u64 [sp + 0x8] = a0\n 82147: a0 = u64 [sp + 0x78]\n 82150: a1 = u64 [sp]\n 82152: a0 = a1 - a0\n 82155: u64 [sp] = a0\n 82157: a0 = u64 [sp + 0x28]\n 82160: u64 [sp + 0x1f0] = a0\n 82164: a0 = u64 [sp + 0x30]\n 82167: u64 [sp + 0x1e8] = a0\n 82171: a0 = u64 [sp + 0x38]\n 82174: u64 [sp + 0x1e0] = a0\n 82178: s1 = u64 [sp + 0x20]\n 82181: u64 [sp + 0x1f8] = s1\n 82185: u64 [sp + 536] = 0\n 82189: u64 [sp + 528] = 0\n 82193: u64 [sp + 520] = 0\n 82197: u64 [sp + 512] = 0\n 82201: u32 [sp + 544] = 0x20\n 82206: i32 a1 = sp + 0x1e0\n 82210: i32 a3 = sp + 0x200\n 82214: i32 a4 = sp + 0x220\n 82218: a2 = 0xffffffffffffffff\n 82221: a0 = 0\n 82223: ecalli 7 // 'get_storage'\n 82225: u64 [sp + 0x1f8] = s1\n 82229: a0 = u64 [sp + 0x28]\n 82232: u64 [sp + 0x1f0] = a0\n 82236: a0 = u64 [sp + 0x30]\n 82239: u64 [sp + 0x1e8] = a0\n 82243: a0 = u64 [sp + 0x38]\n 82246: u64 [sp + 0x1e0] = a0\n 82250: a0 = u64 [sp + 0x10]\n 82253: u64 [sp + 0x218] = a0\n 82257: a0 = u64 [sp + 0x18]\n 82260: u64 [sp + 0x210] = a0\n 82264: a0 = u64 [sp + 0x8]\n 82267: u64 [sp + 0x208] = a0\n 82271: a0 = u64 [sp]\n 82273: u64 [sp + 0x200] = a0\n 82277: i32 a1 = sp + 0x1e0\n 82281: i32 a3 = sp + 0x200\n 82285: a2 = 0xffffffffffffffff\n 82288: a4 = 0x20\n 82291: a0 = 0\n 82293: ecalli 13 // 'set_storage'\n 82295: a0 = u64 [sp + 0x40]\n 82298: u64 [sp + 0x1f8] = a0\n 82302: a0 = u64 [sp + 0x48]\n 82305: u64 [sp + 0x1f0] = a0\n 82309: a0 = u64 [sp + 0x50]\n 82312: u64 [sp + 0x1e8] = a0\n 82316: a0 = u64 [sp + 0x58]\n 82319: u64 [sp + 0x1e0] = a0\n 82323: u64 [sp + 536] = 0\n 82327: u64 [sp + 528] = 0\n 82331: u64 [sp + 520] = 0\n 82335: u64 [sp + 512] = 0\n 82339: u32 [sp + 544] = 0x20\n 82344: i32 a1 = sp + 0x1e0\n 82348: i32 a3 = sp + 0x200\n 82352: i32 a4 = sp + 0x220\n 82356: a2 = 0xffffffffffffffff\n 82359: a0 = 0\n 82361: ecalli 7 // 'get_storage'\n 82363: a0 = u64 [sp + 0x208]\n 82367: a1 = u64 [sp + 0x210]\n 82371: a2 = u64 [sp + 0x200]\n 82375: a0 = reverse a0\n 82377: a3 = a0 << 0x20\n 82380: a1 = reverse a1\n 82382: a1 = a1 >> 0x20\n 82385: a1 = a1 | a3\n 82388: a0 = a0 >> 0x20\n 82391: a2 = reverse a2\n 82393: a3 = a2 << 0x20\n 82396: a0 = a0 | a3\n 82399: a2 = a2 >> 0x20\n 82402: u32 [sp + 0x170] = a2\n 82406: u64 [sp + 0x168] = a0\n 82410: u64 [sp + 0x160] = a1\n 82414: a0 = u64 [sp + 0x60]\n 82417: u64 [sp + 0x198] = a0\n 82421: a0 = u64 [sp + 0x68]\n 82424: u64 [sp + 0x190] = a0\n 82428: a0 = u64 [sp + 0x70]\n 82431: u64 [sp + 0x188] = a0\n 82435: a0 = u64 [sp + 0x78]\n 82438: u64 [sp + 0x180] = a0\n 82442: a0 = 0\n 82444: a1 = 0\n 82446: ra = 926, jump @0\n      : @1046 [@dyn 463] (gas: 4)\n 82453: u64 [sp + 0x78] = a0\n 82456: a0 = 0\n 82458: a1 = 0\n 82460: ra = 928, jump @0\n      : @1047 [@dyn 464] (gas: 27)\n 82467: u32 [sp + 416] = 0\n 82471: u64 [sp + 472] = 0\n 82475: u64 [sp + 464] = 0\n 82479: u64 [sp + 456] = 0\n 82483: u64 [sp + 448] = 0\n 82487: a1 = sp + 0x160\n 82491: a1 = a1 << 0x20\n 82494: s1 = a1 >> 0x20\n 82497: a1 = sp + 0x180\n 82501: a1 = a1 << 0x20\n 82504: a1 = a1 >> 0x20\n 82507: a2 = sp + 0x1c0\n 82511: a2 = a2 << 0x20\n 82514: a3 = a2 | a1\n 82517: a4 = u64 [sp + 0x78]\n 82520: a4 = a4 << 0x20\n 82523: a4 = a4 >> 0x20\n 82526: a0 = a0 << 0x20\n 82529: a0 = a0 >> 0x20\n 82532: a1 = sp + 0x1a0\n 82536: a1 = a1 << 0x20\n 82539: a5 = a1 | a0\n 82542: a1 = 0xffffffffffffffff\n 82545: a2 = 0xffffffffffffffff\n 82548: a0 = s1\n 82550: ecalli 0 // 'call'\n 82551: fallthrough\n      : @1048 (gas: 1)\n 82552: jump @1062 if a0 != 0\n      : @1049 (gas: 6)\n 82556: sp = s0 + 0xfffffffffffffdc0\n 82560: ra = u64 [sp + 0x238]\n 82564: s0 = u64 [sp + 0x230]\n 82568: s1 = u64 [sp + 0x228]\n 82572: sp = sp + 0x240\n 82576: ret\n      : @1050 (gas: 3)\n 82578: a0 = 0x40\n 82581: a1 = 0x20\n 82584: ra = 930, jump @0\n      : @1051 [@dyn 465] (gas: 103)\n 82591: a1 = u8 [a0 + 0x11]\n 82594: a2 = u8 [a0 + 0x10]\n 82597: a3 = u8 [a0 + 0x12]\n 82600: a4 = u8 [a0 + 0x13]\n 82603: a1 = a1 << 0x8\n 82606: a1 = a1 | a2\n 82609: a3 = a3 << 0x10\n 82612: a4 = a4 << 0x18\n 82615: a3 = a3 | a4\n 82618: a1 = a1 | a3\n 82621: a2 = u8 [a0 + 0x15]\n 82624: a3 = u8 [a0 + 0x14]\n 82627: a4 = u8 [a0 + 0x16]\n 82630: a5 = u8 [a0 + 0x17]\n 82633: a2 = a2 << 0x8\n 82636: a2 = a2 | a3\n 82639: a4 = a4 << 0x10\n 82642: a5 = a5 << 0x18\n 82645: a4 = a4 | a5\n 82648: a2 = a2 | a4\n 82651: a2 = a2 << 0x20\n 82654: t0 = a2 | a1\n 82657: a2 = u8 [a0 + 0x1]\n 82660: a3 = u8 [a0]\n 82662: a4 = u8 [a0 + 0x2]\n 82665: a5 = u8 [a0 + 0x3]\n 82668: a2 = a2 << 0x8\n 82671: a2 = a2 | a3\n 82674: a4 = a4 << 0x10\n 82677: a5 = a5 << 0x18\n 82680: a4 = a4 | a5\n 82683: a2 = a2 | a4\n 82686: a3 = u8 [a0 + 0x5]\n 82689: a4 = u8 [a0 + 0x4]\n 82692: a5 = u8 [a0 + 0x6]\n 82695: s1 = u8 [a0 + 0x7]\n 82698: a3 = a3 << 0x8\n 82701: a3 = a3 | a4\n 82704: a5 = a5 << 0x10\n 82707: s1 = s1 << 0x18\n 82710: a5 = a5 | s1\n 82713: a3 = a3 | a5\n 82716: a3 = a3 << 0x20\n 82719: a2 = a2 | a3\n 82722: a3 = u8 [a0 + 0x19]\n 82725: a4 = u8 [a0 + 0x18]\n 82728: a5 = u8 [a0 + 0x1a]\n 82731: s1 = u8 [a0 + 0x1b]\n 82734: a3 = a3 << 0x8\n 82737: a3 = a3 | a4\n 82740: a5 = a5 << 0x10\n 82743: s1 = s1 << 0x18\n 82746: a5 = a5 | s1\n 82749: a3 = a3 | a5\n 82752: a4 = u8 [a0 + 0x1d]\n 82755: a5 = u8 [a0 + 0x1c]\n 82758: s1 = u8 [a0 + 0x1e]\n 82761: a1 = u8 [a0 + 0x1f]\n 82764: a4 = a4 << 0x8\n 82767: a4 = a4 | a5\n 82770: s1 = s1 << 0x10\n 82773: a1 = a1 << 0x18\n 82776: a1 = a1 | s1\n 82779: a1 = a1 | a4\n 82782: a1 = a1 << 0x20\n 82785: a3 = a3 | a1\n 82788: a1 = u8 [a0 + 0x9]\n 82791: a4 = u8 [a0 + 0x8]\n 82794: a5 = u8 [a0 + 0xa]\n 82797: s1 = u8 [a0 + 0xb]\n 82800: a1 = a1 << 0x8\n 82803: a1 = a1 | a4\n 82806: a5 = a5 << 0x10\n 82809: s1 = s1 << 0x18\n 82812: a5 = a5 | s1\n 82815: a1 = a1 | a5\n 82818: a4 = u8 [a0 + 0xd]\n 82821: a5 = u8 [a0 + 0xc]\n 82824: s1 = u8 [a0 + 0xe]\n 82827: a0 = u8 [a0 + 0xf]\n 82830: a4 = a4 << 0x8\n 82833: a4 = a4 | a5\n 82836: s1 = s1 << 0x10\n 82839: a0 = a0 << 0x18\n 82842: a0 = a0 | s1\n 82845: a0 = a0 | a4\n 82848: a0 = a0 << 0x20\n 82851: a0 = a0 | a1\n 82854: s1 = reverse a0\n 82856: a1 = reverse a3\n 82858: a2 = reverse a2\n 82860: a0 = reverse t0\n 82862: u64 [sp + 0x78] = a0\n 82865: u64 [sp + 0x70] = a2\n 82868: a0 = a0 | a2\n 82871: a2 = a1\n 82873: a1 = a1 | s1\n 82876: a1 = a1 | a0\n 82879: a1 = a1 >> 0x20\n 82882: a0 = a0 | s1\n 82885: a0 = a0 << 0x20\n 82888: a0 = a0 | a1\n 82891: jump @1061 if a0 != 0\n      : @1052 (gas: 5)\n 82895: u64 [sp + 0x68] = a2\n 82898: i32 a0 = a2 + 0\n 82900: a1 = 0x20\n 82903: u64 [sp + 0x60] = a0\n 82906: ra = 932, jump @0\n      : @1053 [@dyn 466] (gas: 50)\n 82913: u8 [a0 + 31] = 0\n 82916: u8 [a0 + 30] = 0\n 82919: u8 [a0 + 29] = 0\n 82922: u8 [a0 + 28] = 0\n 82925: u8 [a0 + 27] = 0\n 82928: u8 [a0 + 26] = 0\n 82931: u8 [a0 + 25] = 0\n 82934: u8 [a0 + 24] = 0\n 82937: u8 [a0 + 23] = 0\n 82940: u8 [a0 + 22] = 0\n 82943: u8 [a0 + 21] = 0\n 82946: u8 [a0 + 20] = 0\n 82949: u8 [a0 + 19] = 0\n 82952: u8 [a0 + 18] = 0\n 82955: u8 [a0 + 17] = 0\n 82958: u8 [a0 + 16] = 0\n 82961: u8 [a0 + 15] = 0\n 82964: u8 [a0 + 14] = 0\n 82967: u8 [a0 + 13] = 0\n 82970: u8 [a0 + 12] = 0\n 82973: u8 [a0 + 11] = 0\n 82976: u8 [a0 + 10] = 0\n 82979: u8 [a0 + 9] = 0\n 82982: u8 [a0 + 8] = 0\n 82985: u8 [a0 + 7] = 0\n 82988: u8 [a0 + 6] = 0\n 82991: u8 [a0 + 5] = 0\n 82994: u8 [a0 + 4] = 0\n 82997: u8 [a0 + 3] = 0xa0\n 83002: u8 [a0 + 2] = 0x79\n 83006: u8 [a0 + 1] = 0xc3\n 83011: u8 [a0 + 0] = 0x8\n 83014: a1 = u64 [sp + 0x68]\n 83017: a0 = a1 + 0x4\n 83020: a1 = a0 <u a1\n 83023: a3 = u64 [sp + 0x78]\n 83026: a2 = a3 + a1\n 83029: a3 = a2 <u a3\n 83032: a3 = a1 if a1 == 0\n 83035: a3 = a3 + s1\n 83038: a1 = a3 <u s1\n 83041: a4 = u64 [sp + 0x70]\n 83044: a4 = a4 + a1\n 83047: u64 [sp + 0x108] = a2\n 83051: u64 [sp + 0x100] = a0\n 83055: u64 [sp + 0x110] = a3\n 83059: a0 = sp + 0x120\n 83063: a1 = sp + 0x100\n 83067: u64 [sp + 0x118] = a4\n 83071: ra = 934, jump @602\n      : @1054 [@dyn 467] (gas: 5)\n 83078: a0 = u64 [sp + 0x128]\n 83082: t0 = u64 [sp + 0x138]\n 83086: t1 = u64 [sp + 0x120]\n 83090: a3 = u64 [sp + 0x130]\n 83094: jump @1060\n      : @1055 (gas: 3)\n 83097: a0 = 0x40\n 83100: a1 = 0x20\n 83103: ra = 936, jump @0\n      : @1056 [@dyn 468] (gas: 103)\n 83110: a1 = u8 [a0 + 0x11]\n 83113: a2 = u8 [a0 + 0x10]\n 83116: a3 = u8 [a0 + 0x12]\n 83119: a4 = u8 [a0 + 0x13]\n 83122: a1 = a1 << 0x8\n 83125: a1 = a1 | a2\n 83128: a3 = a3 << 0x10\n 83131: a4 = a4 << 0x18\n 83134: a3 = a3 | a4\n 83137: a1 = a1 | a3\n 83140: a2 = u8 [a0 + 0x15]\n 83143: a3 = u8 [a0 + 0x14]\n 83146: a4 = u8 [a0 + 0x16]\n 83149: a5 = u8 [a0 + 0x17]\n 83152: a2 = a2 << 0x8\n 83155: a2 = a2 | a3\n 83158: a4 = a4 << 0x10\n 83161: a5 = a5 << 0x18\n 83164: a4 = a4 | a5\n 83167: a2 = a2 | a4\n 83170: a2 = a2 << 0x20\n 83173: t0 = a2 | a1\n 83176: a2 = u8 [a0 + 0x1]\n 83179: a3 = u8 [a0]\n 83181: a4 = u8 [a0 + 0x2]\n 83184: a5 = u8 [a0 + 0x3]\n 83187: a2 = a2 << 0x8\n 83190: a2 = a2 | a3\n 83193: a4 = a4 << 0x10\n 83196: a5 = a5 << 0x18\n 83199: a4 = a4 | a5\n 83202: a2 = a2 | a4\n 83205: a3 = u8 [a0 + 0x5]\n 83208: a4 = u8 [a0 + 0x4]\n 83211: a5 = u8 [a0 + 0x6]\n 83214: s1 = u8 [a0 + 0x7]\n 83217: a3 = a3 << 0x8\n 83220: a3 = a3 | a4\n 83223: a5 = a5 << 0x10\n 83226: s1 = s1 << 0x18\n 83229: a5 = a5 | s1\n 83232: a3 = a3 | a5\n 83235: a3 = a3 << 0x20\n 83238: a2 = a2 | a3\n 83241: a3 = u8 [a0 + 0x19]\n 83244: a4 = u8 [a0 + 0x18]\n 83247: a5 = u8 [a0 + 0x1a]\n 83250: s1 = u8 [a0 + 0x1b]\n 83253: a3 = a3 << 0x8\n 83256: a3 = a3 | a4\n 83259: a5 = a5 << 0x10\n 83262: s1 = s1 << 0x18\n 83265: a5 = a5 | s1\n 83268: a3 = a3 | a5\n 83271: a4 = u8 [a0 + 0x1d]\n 83274: a5 = u8 [a0 + 0x1c]\n 83277: s1 = u8 [a0 + 0x1e]\n 83280: a1 = u8 [a0 + 0x1f]\n 83283: a4 = a4 << 0x8\n 83286: a4 = a4 | a5\n 83289: s1 = s1 << 0x10\n 83292: a1 = a1 << 0x18\n 83295: a1 = a1 | s1\n 83298: a1 = a1 | a4\n 83301: a1 = a1 << 0x20\n 83304: a3 = a3 | a1\n 83307: a1 = u8 [a0 + 0x9]\n 83310: a4 = u8 [a0 + 0x8]\n 83313: a5 = u8 [a0 + 0xa]\n 83316: s1 = u8 [a0 + 0xb]\n 83319: a1 = a1 << 0x8\n 83322: a1 = a1 | a4\n 83325: a5 = a5 << 0x10\n 83328: s1 = s1 << 0x18\n 83331: a5 = a5 | s1\n 83334: a1 = a1 | a5\n 83337: a4 = u8 [a0 + 0xd]\n 83340: a5 = u8 [a0 + 0xc]\n 83343: s1 = u8 [a0 + 0xe]\n 83346: a0 = u8 [a0 + 0xf]\n 83349: a4 = a4 << 0x8\n 83352: a4 = a4 | a5\n 83355: s1 = s1 << 0x10\n 83358: a0 = a0 << 0x18\n 83361: a0 = a0 | s1\n 83364: a0 = a0 | a4\n 83367: a0 = a0 << 0x20\n 83370: a0 = a0 | a1\n 83373: s1 = reverse a0\n 83375: a1 = reverse a3\n 83377: a2 = reverse a2\n 83379: a0 = reverse t0\n 83381: u64 [sp + 0x78] = a0\n 83384: u64 [sp + 0x70] = a2\n 83387: a0 = a0 | a2\n 83390: a2 = a1\n 83392: a1 = a1 | s1\n 83395: a1 = a1 | a0\n 83398: a1 = a1 >> 0x20\n 83401: a0 = a0 | s1\n 83404: a0 = a0 << 0x20\n 83407: a0 = a0 | a1\n 83410: jump @1061 if a0 != 0\n      : @1057 (gas: 5)\n 83414: u64 [sp + 0x68] = a2\n 83417: i32 a0 = a2 + 0\n 83419: a1 = 0x20\n 83422: u64 [sp + 0x60] = a0\n 83425: ra = 938, jump @0\n      : @1058 [@dyn 469] (gas: 50)\n 83432: u8 [a0 + 31] = 0\n 83435: u8 [a0 + 30] = 0\n 83438: u8 [a0 + 29] = 0\n 83441: u8 [a0 + 28] = 0\n 83444: u8 [a0 + 27] = 0\n 83447: u8 [a0 + 26] = 0\n 83450: u8 [a0 + 25] = 0\n 83453: u8 [a0 + 24] = 0\n 83456: u8 [a0 + 23] = 0\n 83459: u8 [a0 + 22] = 0\n 83462: u8 [a0 + 21] = 0\n 83465: u8 [a0 + 20] = 0\n 83468: u8 [a0 + 19] = 0\n 83471: u8 [a0 + 18] = 0\n 83474: u8 [a0 + 17] = 0\n 83477: u8 [a0 + 16] = 0\n 83480: u8 [a0 + 15] = 0\n 83483: u8 [a0 + 14] = 0\n 83486: u8 [a0 + 13] = 0\n 83489: u8 [a0 + 12] = 0\n 83492: u8 [a0 + 11] = 0\n 83495: u8 [a0 + 10] = 0\n 83498: u8 [a0 + 9] = 0\n 83501: u8 [a0 + 8] = 0\n 83504: u8 [a0 + 7] = 0\n 83507: u8 [a0 + 6] = 0\n 83510: u8 [a0 + 5] = 0\n 83513: u8 [a0 + 4] = 0\n 83516: u8 [a0 + 3] = 0xa0\n 83521: u8 [a0 + 2] = 0x79\n 83525: u8 [a0 + 1] = 0xc3\n 83530: u8 [a0 + 0] = 0x8\n 83533: a1 = u64 [sp + 0x68]\n 83536: a0 = a1 + 0x4\n 83539: a1 = a0 <u a1\n 83542: a3 = u64 [sp + 0x78]\n 83545: a2 = a3 + a1\n 83548: a3 = a2 <u a3\n 83551: a3 = a1 if a1 == 0\n 83554: a3 = a3 + s1\n 83557: a1 = a3 <u s1\n 83560: a4 = u64 [sp + 0x70]\n 83563: a4 = a4 + a1\n 83566: u64 [sp + 0x88] = a2\n 83570: u64 [sp + 0x80] = a0\n 83574: u64 [sp + 0x90] = a3\n 83578: a0 = sp + 0xa0\n 83582: a1 = sp + 0x80\n 83586: u64 [sp + 0x98] = a4\n 83590: ra = 940, jump @1029\n      : @1059 [@dyn 470] (gas: 5)\n 83596: a0 = u64 [sp + 0xa8]\n 83600: t0 = u64 [sp + 0xb8]\n 83604: t1 = u64 [sp + 0xa0]\n 83608: a3 = u64 [sp + 0xb0]\n 83612: fallthrough\n      : @1060 (gas: 26)\n 83613: a1 = u64 [sp + 0x78]\n 83616: a4 = a0 ^ a1\n 83619: a5 = a0 <u a1\n 83622: t2 = a1\n 83624: a2 = u64 [sp + 0x68]\n 83627: a1 = t1 <u a2\n 83630: a5 = a1 if a4 == 0\n 83633: a4 = a3 - s1\n 83636: a3 = a3 <u s1\n 83639: s1 = u64 [sp + 0x70]\n 83642: s1 = t0 - s1\n 83645: s1 = s1 - a3\n 83648: a3 = a4 <u a5\n 83651: s1 = s1 - a3\n 83654: a4 = a4 - a5\n 83657: a0 = a0 - t2\n 83660: a1 = a0 - a1\n 83663: a0 = t1 - a2\n 83666: a1 = a1 | s1\n 83669: a2 = a0 | a4\n 83672: a2 = a2 | a1\n 83675: a1 = a1 | a4\n 83678: a2 = a2 >> 0x20\n 83681: a1 = a1 << 0x20\n 83684: a1 = a1 | a2\n 83687: jump @1067 if a1 == 0\n      : @1061 (gas: 1)\n 83690: trap\n      : @1062 (gas: 1)\n 83691: ra = 942, jump @480\n      : @1063 [@dyn 471] (gas: 8)\n 83698: u64 [sp + 240] = 0\n 83702: u64 [sp + 232] = 0\n 83706: u64 [sp + 224] = 0\n 83710: a0 = 0x4e487b7100000000\n 83720: a1 = sp + 0xe0\n 83724: u64 [sp + 0xf8] = a0\n 83728: a0 = 0\n 83730: ra = 944, jump @23\n      : @1064 [@dyn 472] (gas: 7)\n 83737: u64 [sp + 216] = 0\n 83741: u64 [sp + 208] = 0\n 83745: u64 [sp + 192] = 0x11\n 83750: a0 = 0x4\n 83753: a1 = sp + 0xc0\n 83757: u64 [sp + 200] = 0\n 83761: ra = 946, jump @23\n      : @1065 [@dyn 473] (gas: 3)\n 83768: a1 = 0x24\n 83771: a0 = 0\n 83773: ra = 948, jump @0\n      : @1066 [@dyn 474] (gas: 5)\n 83780: i32 a1 = a0 + 0\n 83782: a0 = 0x1\n 83785: a2 = 0x24\n 83788: ecalli 11 // 'seal_return'\n 83790: fallthrough\n      : @1067 (gas: 4)\n 83791: i32 s1 = a0 + 0\n 83793: a0 = u64 [sp + 0x60]\n 83796: a1 = s1\n 83798: ra = 950, jump @0\n      : @1068 [@dyn 475] (gas: 6)\n 83805: i32 a1 = a0 + 0\n 83807: a0 = 0x1\n 83810: a2 = s1\n 83812: ra = 0x3b8\n 83816: ecalli 11 // 'seal_return'\n 83818: fallthrough\n      : @1069 [@dyn 476] (gas: 24)\n 83819: sp = sp + 0xffffffffffffffb0\n 83822: u64 [sp + 0x48] = ra\n 83825: u64 [sp + 0x40] = s0\n 83828: s0 = sp + 0x50\n 83831: sp = sp & 0xfffffffffffffff0\n 83834: t0 = u64 [a0]\n 83836: t1 = u64 [a0 + 0x8]\n 83839: a4 = u64 [a0 + 0x10]\n 83842: a0 = u64 [a0 + 0x18]\n 83845: a5 = u64 [a1]\n 83847: a2 = u64 [a1 + 0x8]\n 83850: a3 = u64 [a1 + 0x10]\n 83853: a1 = u64 [a1 + 0x18]\n 83856: u64 [sp + 0x18] = a1\n 83859: u64 [sp + 0x10] = a3\n 83862: u64 [sp + 0x8] = a2\n 83865: u64 [sp] = a5\n 83867: u64 [sp + 0x38] = a0\n 83870: u64 [sp + 0x30] = a4\n 83873: u64 [sp + 0x28] = t1\n 83876: a0 = sp + 0x20\n 83879: a1 = sp\n 83881: u64 [sp + 0x20] = t0\n 83884: ra = 954, jump @1013\n      : @1070 [@dyn 477] (gas: 5)\n 83890: sp = s0 + 0xffffffffffffffb0\n 83893: ra = u64 [sp + 0x48]\n 83896: s0 = u64 [sp + 0x40]\n 83899: sp = sp + 0x50\n 83902: ret\n      : @1071 [export #0: 'call'] (gas: 2)\n 83904: a0 = 0\n 83906: ra = 956, jump @25\n      : @1072 [@dyn 478] [export #1: 'deploy'] (gas: 2)\n 83913: a0 = 0x1\n 83916: ra = 958, jump @25\n      : @1073 [@dyn 479] (gas: 27)\n 83923: sp = sp + 0xffffffffffffff80\n 83926: u64 [sp + 0x78] = ra\n 83929: u64 [sp + 0x70] = s0\n 83932: u64 [sp + 0x68] = s1\n 83935: s0 = sp + 0x80\n 83939: sp = sp & 0xfffffffffffffff0\n 83942: t0 = u64 [a1]\n 83944: t1 = u64 [a1 + 0x8]\n 83947: t2 = u64 [a1 + 0x10]\n 83950: a1 = u64 [a1 + 0x18]\n 83953: a3 = u64 [a2]\n 83955: a4 = u64 [a2 + 0x8]\n 83958: a5 = u64 [a2 + 0x10]\n 83961: a2 = u64 [a2 + 0x18]\n 83964: s1 = a0\n 83966: u64 [sp + 0x18] = a2\n 83969: u64 [sp + 0x10] = a5\n 83972: u64 [sp + 0x8] = a4\n 83975: u64 [sp] = a3\n 83977: u64 [sp + 0x38] = a1\n 83980: u64 [sp + 0x30] = t2\n 83983: u64 [sp + 0x28] = t1\n 83986: a0 = sp + 0x40\n 83989: a1 = sp + 0x20\n 83992: a2 = sp\n 83994: u64 [sp + 0x20] = t0\n 83997: ra = 960, jump @97\n      : @1074 [@dyn 480] (gas: 14)\n 84004: a0 = u64 [sp + 0x50]\n 84007: a1 = u64 [sp + 0x58]\n 84010: a2 = u64 [sp + 0x40]\n 84013: a3 = u64 [sp + 0x48]\n 84016: u64 [s1 + 0x10] = a0\n 84019: u64 [s1 + 0x18] = a1\n 84022: u64 [s1] = a2\n 84024: u64 [s1 + 0x8] = a3\n 84027: sp = s0 + 0xffffffffffffff80\n 84030: ra = u64 [sp + 0x78]\n 84033: s0 = u64 [sp + 0x70]\n 84036: s1 = u64 [sp + 0x68]\n 84039: sp = sp + 0x80\n 84043: ret\n",
				"bytecode": {
					"object": "50564d0000da78010000000000010700c1d000c000400380a49468502e7920dabcd72502f79f4adf40b6e29c0d6f25e27c8fdd4548a8481406ede4e13ff8a552b4015f30c477d9c9496ca6dee4458a06c384a477df8a28a42749282cdadf2ffad62f79918aaf4ffa3dc6504f6870b91576ac68d36b65c75333149a4b229b339ca7de70f39f09110bd4e8218c236c0428efe52b4cac100a9ec9e731185ac2736df57e56cf4efa352219995f68ff4d4a94e66989fd04c5bc56c8200000000481030f000000000400000012000000200000002e0000003400000041000000530000005e0000006d0000007d0000008d00000098000000aa000000b500000063616c6c63616c6c5f646174615f636f707963616c6c5f646174615f6c6f616463616c6c5f646174615f73697a6563616c6c65726465706f7369745f6576656e746765745f696d6d757461626c655f646174616765745f73746f72616765686173685f6b656363616b5f32353672657475726e5f646174615f636f707972657475726e5f646174615f73697a657365616c5f72657475726e7365745f696d6d757461626c655f646174617365745f73746f7261676576616c75655f7472616e73666572726564051302c1c0470463616c6cc1c947066465706c6f7906c1fd7681e003c14d48d60000be0100c30100e50100af0200d40300df03001005002605003a05007906008506009f0600140700740700c907001108002408002908002e08003308003808006b08007008007508009e0800b30800130a00be0b00d10c00e90c00f30c00010d00160d00460d005e0d00b40e00c10e00320f009f1000311100bd11008912006d1300ac1400491500ae1500bb15003c17004917006117003018009a1800c818007719003d1a00651d00491e00511f00012000d52000b521004e2200ed2200cd24005a25007025007d2500a62500b425003126003f26003b2800492800b628001f29002b29005d2a00772a00842a00762b00842b00252c00312c00632d007d2d008a2d00042e00102e00422f005c2f00692f006e31007c3100ff3100683200743200a63300c03300cd3300dc3300ea33007c35008a3500223700923700a03700ef37005d3800843800b939008a3a00983a00c83a00df3a00ea3a00f93a00953b00ac3b00b73b00c63b00f93b00c73c00363e006c3f004e40002041005a42004244006044006b44007a4400ca4400f344004846003747004b48006448006f48007e4800ba48008d4900f849006d4b00444d00814e00dd4f00ed4f00fa4f005d5000db5100c45200eb5300965400f15400f95500eb56008a57006a5900f759000d5a001a5a005b5a00675a00995b00b35b00c05b000e5d001c5d00d15d00dd5d000f5f00295f00365f007e5f008c5f00b76200e96300006400d16400df6400b96500eb66000c6700b96700c767004c6800df68006c6900fd6b008a6c00cb6d006f6e00da6e00e86e00226f000870009b70002871003f7200d272005f73007c74000f75009c75006b7600bf7700ec7700fa7700717800937900e27a004d7b008d7b00517c001b7d00a97e008c7f00f77f00448300538300ba8300fa8400698500f985003f8700e687000688004c8900f38900138a00598b00008c00688c008f8c00ae8c00ba8c00d48c00e28c00528d00d58d00698e00f78e00169000aa9000389100e79100c492003093009393003c9400079500969600f097007d9800bf99005e9a007e9a00c09b00649c00d19c00df9c001a9d00fe9d00929e00209f0036a000caa00058a100ffa100d3a2003fa3000aa6004fa700f6a70016a8005ba900fca90081aa00a0aa00acaa00c6aa00d5aa00bdac004bad008dae0031af009daf00abaf00e6af00d2b00066b100f4b100a3b200eeb3005ab4003cb5001fb6008bb600ccb6008cb70057b80021ba0057bb002abc0096bd00a5bd0022be0068bf000fc0002fc00075c1001cc20084c20093c200a1c20011c30094c30028c400b6c400ccc50060c600eec60008c8009cc8002ac9007aca00bbca007ccc00f1cc00a4cd00c3cd00cfcd00e5cd00f3cd005bce00fdce00cfcf0084d200e8d40029d500f9d50011d8003dda0087de001be30062e30081e3008de3009ce300e3e30064e4002de60032e8007be900eae900f4eb0067ee006eef0080f00011f10081f200f7f20010f60086f60072f700a8f800f2f800f8f900eefa005afb003cfc00a8fc0009fd006bfd0035ff00040001b50001ff0101aa0201ca0201140401bf0401df0401290601d406016107018007018c0701a80701b807010d09019b0901dc0a017b0b01e20b01f00b01250c01050d01990d01270e013c0f01d00f015e10017711010b1201991201b913018215018a1701751901511b01181d01681e01d41e013820011c2101882101f221019e22016d2301742401e72401d02501c72601672701f52701602801442901b029011d2a01cc2a019b2b01fa2b015f2c01c32d019c2e01342f017e30012931014931019332013e33015e3301a83401533501ca3501da3501073601aa37013838017a39011f3a018b3a01993a01ce3a01af3b01433c01d13c01783d01493e01b53e011542012342019f4201e14301864401a64401e845018c4601f246011947013847014447015d47016b4701b24701c94701d347012448018b791052093b3309010001ae9833c8780883881f8488e0553801000128390aa40002ae8a123d08a400023308b00002c8870732003308b00002c8870732000000aa876e978a2098aa20977b2098bb20c89b0bc9ba0a979b019abbaeab20ae873751094ec87909647a017c8b95880195ac0178ab64caab9cf42836510934c87909647a017c8b95880195ac0178ab64caab9cf4281c51091a839aff01c8a80b7cbb9599ffc8a70c78cb83aaff5209f032009511d87b10207b15187b161082897b19088289087b1982851082861883773308205010022fff6f686f59821a6faa821b086fbb787b18787a10787908787898bc38787c1f98bc30787c1e98bc28787c1d98bc20787c1c98bc18787c1b98bc10787c1a98bb08787b1998ab38787b1798ab30787b1698ab28787b1598ab20787b1498ab18787b1398ab10787b1298aa08787a11989a38787a0f989a30787a0e989a28787a0d989a20787a0c989a18787a0b989a10787a0a98990878790998893878790798893078790698892878790598892078790498891878790398891078790298880878780182102082151882161095112832009511f07b10087b158475010a03013d07a8000251050750100409501006c704951160ff7b1098007b1590007b1688009515a0008411e033074033082050100820fe46171fa00046171e46171d46171c46171b46171a46171946171846171746171646171546171446171346171246171146171046170f46170e46170d46170c46170b46170a46170946170846170746170646170546170446170346170246170146074911784911604911684911708317600a0e01821770821878821968821a60d49808d4a707d4870752079a0295174033000a9511907b10687b15607b16589515708411f03906a800027b17089767209877204911284911207b1710951730951810491118330044282b07821840821748821950821a587b1a387b19307b17289517207b182033000c951120ff7b10d8007b15d0007b16c8009515e0008411e08278187b188278087b181882787b18088277107b1710492198004921900049218800492180004921b8004921b0004921a8004921a0004811602083188000831aa000831b603309ff33070a07492198004921900049218800492180004921b8004921b0004921a8004921a0000183188000831aa0003309ff330b2033070a0d49219800492190004921880049218000034921b8004921b0004921a8004921a0004811602083188000831aa000831b603309ff33070a0749219800492190004921880049218000038216084921b8004921b0004921a8004921a0000183188000831aa0003309ff330b2033070a0d28960e33074033082050100e26fc7c78117c79107c7a127c7b13978808d4980897aa1097bb18d4ba0ad4a8087c79157c7a147c7b167c7c17979908d4a90997bb1097cc18d4cb0bd4b909979920d489027c79017c7a7c7b027c7c03979908d4a90997bb1097cc18d4cb0bd4b9097c7a057c7b047c7c067c760797aa08d4ba0a97cc10976618d46c0cd4ca0a97aa20d4a9097c7a197c7b187c7c1a7c761b97aa08d4ba0a97cc10976618d46c0cd4ca0a7c7b1d7c7c1c7c761e7c781f97bb08d4cb0b976610978818d46808d4b808978820d48a0a7c78097c7b087c7c0a7c760b978808d4b80897cc10976618d46c0cd4c8087c7b0d7c7c0c7c760e7c770f97bb08d4cb0b976610977718d46707d4b707977720d487076f776fa66f986f29d49808d47609d48909989920d48707977720d497075107170033073308501010f5fa837833070133090a0b0183677b17183308501012dffa8377330833090a0133078000330820501014cbfa7c78017c797c7a027c7b03978808d4980897aa1097bb18d4ba0ad4a8087c79057c7a047c7b067c7c07979908d4a90997bb1097cc18d4cb0bd4b909979920d489027c79197c7a187c7b1a7c7c1b979908d4a90997bb1097cc18d4cb0bd4b9097c7a1d7c7b1c7c7c1e7c761f97aa08d4ba0a97cc10976618d46c0cd4ca0a97aa20d4a9097c7a117c7b107c7c127c761397aa08d4ba0a97cc10976618d46c0cd4ca0a7c7b157c7c147c76167c781797bb08d4cb0b976610978818d46808d4b808978820d48a0a7c78097c7b087c7c0a7c760b978808d4b80897cc10976618d46c0cd4c8087c7b0d7c7c0c7c760e7c770f97bb08d4cb0b976610977718d46707d4b707977720d487076f7b6faa3307b000036f996f2c3908a000023e0cc800033e09b000033e0ab800033e0bc0000351080883770a0c0182171833085010168cf98378330733093300180a0b019511c07b10387b15309515408411e033074033082050101a66f946171f800046171e46171d46171c46171b46171a46171946171846171746171646171546171446171346171246171146171046170f46170e46170d46170c46170b46170a46170946170846170746170346170246170146073908a800024617064617054617045318041f018317330833001c0a020181171c5847ebe594c55d330800e025fe330909e025fead799f005147ece594c54201514769f4fdf1fd0052479b3dc5f6e60033001e951160ff7b1098007b1590007b1688009515a0008411e04911384911304911284911208317200a0e28d25a3309d99702bbaf7997005147da9702bbed00514787ebfdbda8005247434f2cc29600330020951140fd7b10b8027b15b0027b16a8029515c0028411e049217802492170024921680249216002831760020a0e28c74e83880aaa87a9005147c6e5091c685247e684db644d3300229511a0fe7b1058017b1550017b164801951560018411e049213801492130014921280149212001831720010a0e28532051474e67c1a51852474fe006ac0c5010246b25501026a92b5010285b2350102a722f50102ce95433002e9511c0fc7b1038037b1530037b162803951540038411e049211803492110034921080349210003831700030a0e28f9185010301129501032aa513300349511a07b10587b15507b16489515608411e04911384911304911284911208317200a0e28aa5c9511f07b10087b15647533074033082050103652f77c78017c797c7a027c7b03978808d4980897aa1097bb18d4ba0ad4a8087c79057c7a047c7b067c7c07979908d4a90997bb1097cc18d4cb0bd4b909979920d489027c79097c7a087c7b0a7c7c0b979908d4a90997bb1097cc18d4cb0bd4b9097c7a0d7c7b0c7c7c0e7c780f97aa08d4ba0a97cc10978818d4c808d4a808978820d498037c78117c7a107c7b127c7c13978808d4a80897bb1097cc18d4cb0bd4b8087c7a157c7b147c7c167c791797aa08d4ba0a97cc10979918d4c909d4a909979920d4890a7c78197c79187c7b1a7c7c1b978808d4980897bb1097cc18d4cb0bd4b8087c791d7c7b1c7c7c1e7c771f979908d4b90997cc10977718d4c707d49707977720d487076f776fa86f396f2a7b5a187b59107b58087b5782100882159511103200951160ff7b1098007b1590007b1688009515a0008411f08289187b19308289107b19288289087b192082887b18187b1738330740330820501038f2f57c78197c79187c7a1a7c7b1b978808d4980897aa1097bb18d4ba0ad4a8087c791d7c7a1c7c7b1e7c7c1f979908d4a90997bb1097cc18d4cb0bd4b909979920d489027c79117c7a107c7b127c7c13979908d4a90997bb1097cc18d4cb0bd4b9097c7a157c7b147c7c167c761797aa08d4ba0a97cc10976618d46c0cd4ca0a97aa20d4a9097c7a097c7b087c7c0a7c760b97aa08d4ba0a97cc10976618d46c0cd4ca0a7c7b0d7c7c0c7c760e7c780f97bb08d4cb0b976610978818d46808d4b808978820d48a0a7c78017c7b7c7c027c7603978808d4b80897cc10976618d46c0cd4c8087c7b057c7c047c76067c770797bb08d4cb0b976610977718d46707d4b707977720d487076f736fa46f966f2c82181895871fd88708821a20c88a09d8a90ada880a821828c88a0ad88a08821b30c8b8088477e0c8c7077b1c287b1710d8c70bc86909c8b90cd36c097b1630d86c07da9b07c84a0ac87a0bd8ab06d84a09c83808c89808c886068eb88e69da6809d46b087b1c088ecadb890a520a2301d84b08d33609d8360ada980ad34b08d49808db8a0752070a013307403308207b14207b13187b1b50103a47f46f6882196f99821a086faa821b106fbb787b1898bc38787c1f98bc30787c1e98bc28787c1d98bc20787c1c98bc18787c1b98bc10787c1a98bb08787b19787a1098ab38787b1798ab30787b1698ab28787b1598ab20787b1498ab18787b1398ab10787b1298aa08787a11787908989a38787a0f989a30787a0e989a28787a0d989a20787a0c989a18787a0b989a10787a0a98990878790978789889387879079889307879069889287879059889207879049889187879039889107879029888087878018217388218287b788218187b78188218307b78088218207b7810955160ff8210980082159000821688009511a0003200491170491168491160140700000000717b484e9518607b1778330750103ce4f34911584911504911404133070495184049114850103eccf3330824330750104012f383783307013309243300420a0b01808910828a0882884917187b79107b7a087b783200821848821940821a38821730d4a808d4970ad48a0a98aa20d49808978820d4a8085208730183777b176468501046bff28377646833090a010154161f5c013308208217501048a7f27c78097c79087c7a0a7c7b0b978808d4980897aa1097bb18d4ba0ad4a8087c790d7c7a0c7c7b0e7c7c0f979908d4a90997bb1097cc18d4cb0bd4b909979920d489097c78017c7a7c7b027c7c03978808d4a80897bb1097cc18d4cb0bd4b8087c7a057c7b047c7c067c760797aa08d4ba0a97cc10976618d46c0cd4ca0a97aa20d4a8086f826f99140a0000000001000000d39a0ad42a0a989b2088bb01942b93ab510bac007c7a197c7b187c7c1a7c761b97aa08d4ba0a97cc10976618d46c0cd4ca0a7c7b1d7c7c1c7c761e7c781f97bb08d4cb0b976610978818d46808d4b808978820d48a0a7c78117c7b107c7c127c7613978808d4b80897cc10976618d46c0cd4c8087c7b157c7c147c76167c771797bb08d4cb0b976610977718d46707d4b707977720d487076f776fa8821a087ba87ba7087ba9107ba2189551908210688215608216589511703200003307330850104a51f18378330701330933004c0a0b01828918828a10828b0882887b79187b7a107b7b087b7832009511b07b10487b15407b1638828b10828a18828c0882857b1a287b1c20d4ac08d4b50ad48a0a98aa207b1b30d4b808978820d4a8087b1718520821018297187b178296108297087b170882977b1710835733082050104ed3f082186f886f69821a086faa821b106fbb98bc38787c1f98bc30787c1e98bc28787c1d98bc20787c1c98bc18787c1b98bc10787c1a98bc08787c19787b18787a1098ab38787b1798ab30787b1698ab28787b1598ab20787b1498ab18787b1398ab10787b1298aa08787a11787908989a38787a0f989a30787a0e989a28787a0d989a20787a0c989a18787a0b989a10787a0a9899087879097878988938787907988930787906988928787905988920787904988918787903988910787902988808787801955720d85708821a20c88a09d8a90ada880a821830c88a0ad88a08821b28c8b808821b187bb77bb9087bba107bb8188210488215408216389511503200009511a07b10587b15507b1648828a18828b10828c088286d4ac08d4b609d48909989920d4b808978820d498087b1728520804029567207b1730d86707c87c087b18407b1c08d8c805da7705c8b5057b1b10d8b5077b1a18c8a7077b17387b16836733082033062050105066ef78761f8218306486d45808821940821b38d4b909d498089888207b1520d45909979920d4980846171e46171d46171c46171b46171a46171946171846171746171646171546171446171346171246171146171046170f46170e46170d46170c46170b46170a46170946170846170746170646170546170446170346170246170146075208450183653308206457501052d4ee46171f0b46171e46171d46171c46171b46171a46171946171846171746171646171546171446171346171246171146171046170f46170e46170d46170c46170b46170a461709461708461707461706461705461704461703461702461701821820821938d498081409e0ffffff00000000d89609821a4094a9948946075109b80083572033082050105448ee46171f46171e46171d46171c46171b46171a46171946171846171746171646171546171446171346171246171146171046170f46170e46170d46170c46170b46170a30461709204617083d461707204617067246170565461704744617036946170262461701724607618218958760d88708821a08c88a09d8a90ada880a821810c88a0ad88a08821b18c8b808821b287bb77bb9087bba107bb818821058821550821648951160320000821710977720987720821818d46808d487075107e900330780003308205010567ced82186f888219106f99821a186faa6f6b787b1898bc38787c1f98bc30787c1e98bc28787c1d98bc20787c1c98bc18787c1b98bc10787c1a98bb08787b19787a1098ab38787b1798ab30787b1698ab28787b1598ab20787b1498ab18787b1398ab10787b1298aa08787a11787908989a38787a0f989a30787a0e989a28787a0d989a20787a0c989a18787a0b989a10787a0a9899087879097878988938787907988930787906988928787905988920787904988918787903988910787902988808787801955120ff8210d8008215d0008216c8009511e000320033074033082050105898ec7c78117c79107c7a127c7b13978808d4980897aa1097bb18d4ba0ad4a8087c79157c7a147c7b167c7c17979908d4a90997bb1097cc18d4cb0bd4b909979920d489027c79017c7a7c7b027c7c03979908d4a90997bb1097cc18d4cb0bd4b9097c7a057c7b047c7c067c760797aa08d4ba0a97cc10976618d46c0cd4ca0a97aa20d4a9097c7a197c7b187c7c1a7c761b97aa08d4ba0a97cc10976618d46c0cd4ca0a7c7b1d7c7c1c7c761e7c781f97bb08d4cb0b976610978818d46808d4b808978820d48a0a7c78097c7b087c7c0a7c760b978808d4b80897cc10976618d46c0cd4c8087c7b0d7c7c0c7c760e7c770f97bb08d4cb0b976610977718d46707d4b707977720d487076f766fa86f996f277b17187b1910d497076489d46808d47808988820d46707977720d48707520709017b190883973308207b1750105a59eb46171f46171e46171d46171c46171b46171a46171946171846171746171646171546171446171346171246171146171046170f46170e46170d46170c46170b46170a461709461708461707461706461705461704461703a00046170279461701c300460708821808958704d88708821a18c88a09d8a90ada880ac86a0ad86a08821b10c88b0b7b19287b17207b1a309517409518207b1b3850105ceffa821748821258821340821a50821818d3870bd8870c6484821908d89308dab80cc96a0bd86a0a821610c96206c9a606d8cb0ac9a606c9cb0bc94707c98708c99307d46808d4b709d48909d4b808989920978820d498085108040083768217646850105e57ea837833070164693300600a0b0180881c4917184917104917087b7832009511807b10787b15707b1668951580008411e0828010828c08829a088283829b7b1b28829410d3ca02d8ca06d83b0b7b1b20da2b068282188298187b1818c90409c969087b1830d86908d8040b7b1238821918c92909c9b909c98909c9ca08821a20c9a808821a28c93a0a8e8b88aa4085aa01db8b0a8f968218308e8bdb960bd49808db8b0a510ae2006476d403077b1c30821838d4c808d487079877207b1028d40808978820d487075207bd0083388317407b18187b13200a0201821728821838d48707140800000000010000007b18381408e0ffffff00000000821920d889088219309498947851087e8217587b17308217507b17288217487b17108217407b17208217188378208317400a0201821850821758821938d38909d47909988a2088aa01947a939a510a3f821948821a407b69287b6a208219107b69088219207b697b68308218287b68107b67388217307b67189551808210788215708216689511800032000033073308501062c9e8837833070133093300640a0b01828918828a10828b0882887b79187b7a107b7b087b7832006f688219486f99821a586faa821b606fbb98bc38787c1f98bc30787c1e98bc28787c1d98bc20787c1c98bc18787c1b98bc10787c1a98bc08787c19787b1898ab38787b1798ab30787b1698ab28787b1598ab20787b1498ab18787b1398ab10787b1298ab08787b11787a10989a38787a0f989a30787a0e989a28787a0d989a20787a0c989a18787a0b989a10787a0a989a08787a097879089889387879079889307879069889287879059889207879049889187879039889107879029889087879017878330720330820501068d5e746171f0246171e46171d46171c46171b46171a46171946171846171746171646171546171446171346171246171146171046170f46170e46170d46170c46170b46170a4617094617084617074617064617054617044617034617024617014607330840330750106a6be783778319a0003308400a088217a0007b17608217a8007b17588217b0007b17488216b800330820330750106c3de78218686f888219706f99821a786faa98ab38787b1f98ab30787b1e98ab28787b1d98ab20787b1c98ab18787b1b98ab10787b1a98ab08787b19787a18989a38787a17989a30787a16989a28787a15989a20787a14989a18787a13989a10787a12989a08787a1178791098893878790f98893078790e98892878790d98892078790c46170b46170a461709787808461707461706461705461704461703461702461701460733072033082050106e8ee698683878781f98683078781e98682878781d98682078781c98681878781b98681078781a98680878781978761882194898983878781798983078781698982878781598982078781498981878781398981078781298980878781178791082195898983878780f98983078780e98982878780d98982078780c98981878780b98981078780a98980878780978790882196098983878780798983078780698982878780598982078780498981878780398981078780298980878780178793308403307501070c8e583778319a0003308400a088217b8008218b0008219a800821aa0006f766f887b18706f997b19586fa77b17787b1798007b1990007b1888007b1680007b16604921b8004921b0004921a8004921a0004821c0002083188000831aa000831bc0003309ff33070a07956701887801821970c89808d48709889901821a58c8a909d8a90a821b78c8ba0a7b1a98007b1990008219a0007b19487b1888008218a8007b18407b1780008017b0007b17384921b8004921b0004921a8004921a0004821c0002083188000831aa000831bc0003309ff33070a078217a0007b17308217a8007b17288217b0007b17208217b8007b1718821760957802d8780764897b1868821870c8780a7b1a60d88a06da7706821758c87606d87607821878c887077b17787b1798007b1690007b1a88007b1980004921b8004921b0004921a8004921a0004821c0002083188000831aa000831bc0003309ff33070a077c17a0007b17708217787b1798007b1690008217607b1788008217687b1780004921b8004921b0004921a8004921a0004821c0002083188000831aa000831bc0003309ff33070a077c17a1007b17588217787b1798007b1690008217607b1788008217687b1780004921b8004921b0004921a8004921a0004821c0002083188000831aa000831bc0003309ff33070a077c17a2008218504928980049289000492888007b8780004918784918704918688217587b87604918584918504918488217707b87408217187b87388217207b87308217287b87288217307b87204918188217387b87108217407b87088217487b87955120ff8210d8008215d0008216c8009511e0003200951130ff7b10c8007b15c0007b16b80082851082821882860882887b16a8007b128800d426027b18b000d45806d426069866207b159000d45208978820d468087b1740520881048217d0008278187b18188278107b18088278087b181082777b1782c7187b173882c7107b172882c7087b173082c77b172082b7187b176082b7107b175082b7087b175882b77b174882a7187b177082a7107b177882a7087b17800082971082a87b18688298087b18980082969777209875208117b0003308207b17a000501072a0e26f58821998006f996f6a98ab38787b1f98ab30787b1e98ab28787b1d98ab20787b1c98ab18787b1b98ab10787b1a98ab08787b19787a1878791046170b46170a4617094617074617064617054617044617034617024617014607989a38787a17989a30787a16989a28787a15989a20787a14989a18787a13989a10787a1298990878791178780898893878790f98893078790e98892878790d98882082199000821b8800d49b0b140500000000010000001409e0ffffff00000000821ab000d89a09821aa80094a97b1b980094b978780c51092a038217a000837720330820501074bce18218706f888219786f99821a80006faa821b686fbb98bc38787c1f98bc30787c1e98bc28787c1d98bc20787c1c98bc18787c1b98bc10787c1a98bc08787c19787b18787a1098ab38787b1798ab30787b1698ab28787b1598ab20787b1498ab18787b1398ab10787b1298aa08787a11787908989a38787a0f989a30787a0e989a28787a0d989a20787a0c989a18787a0b989a10787a0a98990878790978789889387879079889307879069889287879059889207879049889187879039889107879029888089559c0821ab000d89a09821aa80094a9821a980094a978780151093902821750821848d48707821860821958d49808d487078e758217a000837740330820501076b4e046171e46171d46171c46171b46171a46171946171846171746171646171546171446171346171246171146171046170f46170e46170d46170c46170b46170a46170946170846170746170646170546170446170346170246170178751f140500000000010000001408a0ffffff000000008219b000d889088219a8009498821998009498460751088901821728821820d48707821838821930d49808d487078e768217a00083776033082050107804e046171e46171d46171c46171b46171a46171946171846171746171646171546171446171346171246171146171046170f46170e46170d46170c46170b46170a46170946170846170746170646170546170446170346170246170146079558808219b000d889088219a800949882199800949878761f5108ea008217b0009578a0007b189800d878078218a800c87806d88605da770582179000c87505d8750782188800c887077b17b0008217088218d48707821818821910d49808d487078e777b17a8008217a0008377800033082050107a30df46171e46171d46171c46171b46171a46171946171846171746171646171546171446171346171246171146171046170f46170e46170d46170c46170b46170a46170946170846170746170646170546170446170346170246170146078218a80078781f821740821898007b788218b0007b78187b76087b75108210c8008215c0008216b8009511d000320000821710038218180382190803821a0003d49808d4a707d487075207d6033807a800024921980249219002492188027b1780024921b8024921b0024921a002049517c0029518a002951980024921a80250107c1bf48212c0028217c8028218d0028219d802821be002821ce8028216f002821af8027b1ab8017b16b0017b1ca8017b1ba0017b19d8017b18d0017b17c8019517e0019518c0019519a0017b12c00133007e951120ff7b10d8007b15d0007b16c8009515e0008411e0829a7b1a78829a087b1a708099107b196882897b19608289087b19588289107b19488286187b1750330820330733006628b5dd8217e0017b17b0008217e8017b17a8008217f0017b17a0008217f8017b179800821700027b179000821708027b178800821710027b178000821718027b1778821720027b1770821728027b1768821730027b1760821738027b1758821740027b1750821748027b1748821750027b1740821758027b1738821760027b1730821768027b1728821770027b1720821778027b17183307403308205020800019dd7c78017c797c7a027c7b03978808d4980897aa1097bb18d4ba0ad4a8087c79057c7a047c7b067c7c07979908d4a90997bb1097cc18d4cb0bd4b909979920d489027c79097c7a087c7b0a7c7c0b979908d4a90997bb1097cc18d4cb0bd4b9097c7a0d7c7b0c7c7c0e7c760f97aa08d4ba0a97cc10976618d46c0cd4ca0a97aa20d4a9097c7a117c7b107c7c127c761397aa08d4ba0a97cc10976618d46c0cd4ca0a7c7b157c7c147c76167c781797bb08d4cb0b976610978818d46808d4b808978820d48a0a7c78197c7b187c7c1a7c761b978808d4b80897cc10976618d46c0cd4c8087c7b1d7c7c1c7c761e7c771f97bb08d4cb0b976610977718d46707d4b707977720d487076f766faa7b1a086f987b18106f297b19b8009517c0007b178217187b17d8008217207b17d0008217287b17c8008217307b17c0008217387b17f8008217407b17f0008217487b17e8008217507b17e0008217587b1718018217607b1710018217687b1708018217707b1700018217787b173801821780007b173001821788007b172801821790007b172001821798007b1758018217a0007b1750018217a8007b1748018217b0007b1740017b1978017b1870017b1a6801951780019518600195194001951a2001951b0001951ce0007b16600150208200d5f7821b0864698217b800d4b707821610d46908d47808988820d46707977720d4870752076182178801821898017b18b0008213800182189001d3b704d8b70cd89300da400cc9680ac9ca04d8ca02d8680a8218b800821cb000c98c0cc9ac0cc92c0cc9b707c90707c99306d4c707d44608d47808d44707988820977720d48707510718003307330850208400acda837833070133090a0b018397836664685020860096da837833076469330088000a0b01827818827910827a827708d4980888a9029479948951090532009511f87b103307330850208a0060da8378330701330933008c000a0b019511c07b10387b15307b16289515408411e0828910828a18828b088288d4ba0ad4980bd4ab0b98bb20d4a909979920d4b9095209406476838883170a02018217188218108219821a08d4780b889c0294ac94bc510c207b697b6a087b68107b67189551c08210388215308216289511403200003307330850208e00d5d983783307013309330090000a0b01951160ff7b1098007b1590007b1688009515a0008411e0828210828008829408828a829b7b1b40829c107b1c50d30403d80406d8ab0c7b1c3864abda3c068283188298187b1830821a50c92a09c969087b1848d869087b1258d82a0c64b27b1350821930c93909c9c909c98909c90408821a38c9a808821a40c9ba0a8e8b88aa6085aa01db8b0a8f98821c488ecbdb980bd49c08db8b0a510a52016476821958d49207821850d48008d48707987720d49808978820d487077b104852072d0183288317607b18387b12400a0201821758821850d47808140700000000010000007b17501407e0ffffff00000000821940d8790782194894977b185894875107eb008217787b17308217707b17288217687b17188217607b17208217388378208317600a0201821a70821978821750d3a707d4970798a820888801949893785108b6007b1a107b19501407c0ffffff00000000821840d8780782184894878218589487510786008217687b17488217607b17588217388378408317600a0201821778821870821960821a68d4780b889c0294ac94bc510c557b6a487b69408219487b69288219587b69208219187b69088219207b697b68508218107b68308218287b68107b67588217507b67388217307b6718955160ff8210980082159000821688009511a000320000330733083300920028d0d7330750209200cbd783783307013309330094000a0b01828918828a10828b0882887b79187b7a107b7b087b783200821730018218380182192801821a2001d49808d4a707d487075207d9013807a800024921980049219000492188007b1780004921b8004921b0004921a000049517c0009518a000951980004921a800502096008ffd8217c0007b17188213c8008214d0008210d8008212e000821ce800821bf000821af800821800018216080182191001821718017b17387b19307b16287b18207b1a587b1b507b1c487b12407b10787b14707b1368951760951840951920821a187b1a6050209800f84033074033082050209a00dbd67c78117c79107c7a127c7b13978808d4980897aa1097bb18d4ba0ad4a8087c79157c7a147c7b167c7c17979908d4a90997bb1097cc18d4cb0bd4b909979920d489027c79017c7a7c7b027c7c03979908d4a90997bb1097cc18d4cb0bd4b9097c7a057c7b047c7c067c760797aa08d4ba0a97cc10976618d46c0cd4ca0a97aa20d4a9097c7a197c7b187c7c1a7c761b97aa08d4ba0a97cc10976618d46c0cd4ca0a7c7b1d7c7c1c7c761e7c781f97bb08d4cb0b976610978818d46808d4b808978820d48a0a7c78097c7b087c7c0a7c760b978808d4b80897cc10976618d46c0cd4c8087c7b0d7c7c0c7c760e7c770f97bb08d4cb0b976610977718d46707d4b707977720d487076f786fa76f996f2ad4a909d4870ad49a0a98aa20d49808978820d4a808510820003307330850209c00a9d5837833070133090a0b837733009e002894d5837750209e008fd58378330733093300a0000a0b019511807b10787b15707b1668951580008411e0828410828c0882920882867b1610829b7b1b18829010d3c20a7b1a38d8c20ad86b0b821338da3b0a64b38288187b18388298187b1820c94008c9a8097b1928d8a8097b1430d8400a821838821b20c98b08c9a808c99804c9c206c93609821210821818c9280a8e9b88aa2085aa01db9b0a8f498218288e8bdb490bd44808db8b0a510a546476821930d49207821838d4c808d48707987720d49808978820d4870752073383288317400a02821758821850821948821a407b67187b68107b69087b6a95518082107882157082166895118000320000330733085020a20090d4837833070133093300a4000a0b019511807b10787b1570951580008411e04911384911304911284911208317200a0e01821730821838821928821a20d49808d4a707d4870752079e013907a8000254172395018317403308040a02821840821748821950821a587b1a187b19107b170864177b183300a600951120fe7b10d8017b15d0017b16c8019515e0018411e082787b18588278087b18508278107b184882761833082033073300ee0128ded33307403308205020a800d5d37c78117c79107c7a127c7b13978808d4980897aa1097bb18d4ba0ad4a8087c79157c7a147c7b167c7c17979908d4a90997bb1097cc18d4cb0bd4b909979920d489027c79017c7a7c7b027c7c03979908d4a90997bb1097cc18d4cb0bd4b9097c7a057c7b047c7c067c780797aa08d4ba0a97cc10978818d4c808d4a808978820d498037c78197c7a187c7b1a7c7c1b978808d4a80897bb1097cc18d4cb0bd4b8087c7a1d7c7b1c7c7c1e7c791f97aa08d4ba0a97cc10979918d4c909d4a909979920d4890a7c78097c79087c7b0a7c7c0b978808d4980897bb1097cc18d4cb0bd4b8087c790d7c7b0c7c7c0e7c770f979908d4b90997cc10977718d4c707d49707977720d487076f786fa76f396f2ad4a909d4870ad49a0a98aa20d49808978820d4a80851082000330733085020aa00a3d2837833070133090a0b83773300ac00288ed283775020ac0089d28378330733093300ae000a0b019511a07b10587b15509515608411e03907a800025417239a018317203308040a02821820821728821930821a387b1a187b19107b170864177b183300b000951160fe7b1098017b1590017b1688019515a0018411e0641682787b68388278087b68308278107b68288277187b6720330820330733001c0228ffd13307403308205020b200f6d17c78117c79107c7a127c7b13978808d4980897aa1097bb18d4ba0ad4a8087c79157c7a147c7b167c7c17979908d4a90997bb1097cc18d4cb0bd4b909979920d489027c79017c7a7c7b027c7c03979908d4a90997bb1097cc18d4cb0bd4b9097c7a057c7b047c7c067c780797aa08d4ba0a97cc10978818d4c808d4a808978820d498037c78197c7a187c7b1a7c7c1b978808d4a80897bb1097cc18d4cb0bd4b8087c7a1d7c7b1c7c7c1e7c791f97aa08d4ba0a97cc10979918d4c909d4a909979920d4890a7c78097c79087c7b0a7c7c0b978808d4980897bb1097cc18d4cb0bd4b8087c790d7c7b0c7c7c0e7c770f979908d4b90997cc10977718d4c707d49707977720d487076f786fa76f396f2ad4a909d4870ad49a0a98aa20d49808978820d4a80851082000330733085020b400c4d0837833070133090a0b83773300b60028afd083775020b600aad08378330733093300b8000a0b01828918828a10828b0882887b79187b7a107b7b087b783200951160ff7b1098007b1590007b1688009515a0008411e0828210828008829408828a829b7b1b40829c107b1c50d30403d80406d8ab0c7b1c3864abda3c068283188298187b1830821a50c92a09c969087b1848d869087b1258d82a0c64b27b1350821930c93909c9c909c98909c90408821a38c9a808821a40c9ba0a8e8b88aa6085aa01db8b0a8f98821c488ecbdb980bd49c08db8b0a510a43016476821958d49207821850d48008d48707987720d49808978820d487077b104852071e0183288317607b18387b12400a0201821758821850d47808140700000000010000007b17501407e0ffffff00000000821940d8790782194894977b185894875107dc008217787b17188217707b17208217687b17288217607b17308217388378208317600a0201821970821a78821750d39707d4a70798982088880194a893785108a7007b1a107b19501407c0ffffff00000000821840d87807821848948782185894875107778217687b17488217607b17588217388378408317600a02821778821870821968821a607b67587b68507b69487b6a408217107b67388217507b67308217487b67288217587b67208217187b67188217207b67108217287b67088217307b67955160ff8210980082159000821688009511a000320000330733083300ba00289dce33075020ba0098ce837833070133093300bc000a0b019511a0fe7b1058017b1550017b164801951560018411e049213801492130014921280149212001831720010a0e01821730018218380182192801821a2001d49808d4a707d487075207d9013807a800024921980049219000492188007b1780004921b8004921b0004921a000049517c0009518a000951980004921a8005020be0088fd8217c0007b17188213c8008214d0008210d8008212e000821ce800821bf000821af800821800018216080182191001821718017b17387b19307b16287b18207b1a587b1b507b1c487b12407b10787b14707b1368951760951840951920821a187b1a605020c00073783307403308205020c20092cd7c78117c79107c7a127c7b13978808d4980897aa1097bb18d4ba0ad4a8087c79157c7a147c7b167c7c17979908d4a90997bb1097cc18d4cb0bd4b909979920d489027c79017c7a7c7b027c7c03979908d4a90997bb1097cc18d4cb0bd4b9097c7a057c7b047c7c067c760797aa08d4ba0a97cc10976618d46c0cd4ca0a97aa20d4a9097c7a197c7b187c7c1a7c761b97aa08d4ba0a97cc10976618d46c0cd4ca0a7c7b1d7c7c1c7c761e7c781f97bb08d4cb0b976610978818d46808d4b808978820d48a0a7c78097c7b087c7c0a7c760b978808d4b80897cc10976618d46c0cd4c8087c7b0d7c7c0c7c760e7c770f97bb08d4cb0b976610977718d46707d4b707977720d487076f786fa76f996f2ad4a909d4870ad49a0a98aa20d49808978820d4a80851082000330733085020c40060cc837833070133090a0b83773300c600284bcc83775020c60046cc8378330733093300c8000a0b019511f87b10330733085020ca002acc837833070133093300cc000a0b01951160ff7b1098007b1590007b1688009515a0008411e0828b829608828008829395ba1f7b1b58d8ba02c8200c7b1340d83a03d36c0a7b1648d86c0bdaa30b828410d80c0ada220a829218828318829610c84a0ad84a08c83808d32809d92808d86a0cda9c08d36a0ad4a909db980b510b19017b12287b16307b1738821758d447077b1318d43008d487079877207b1420d44808978820d487075207ed0064068118588317600a02018217788218708213687b1750d48707883a01947a510acb00821960821758957b20d87b07c876007b1b10c89b0b7b1958d89b02c8030cc82c0cd33c09d83c0ada920ad86009da7709821720c89704d87406821718c86707821648d36c09d8c60c821640d8b60bdb9c0bc84809d8890c8216507b1748c87606c86c0cc89a0ad89a09c8c909821628d3690cd89602821930d8a906dbc206d3a909d4c909db960b520b408219388217587b97208217107b977b93287b90087b98307b94108217507b97388217487b9718955160ff8210980082159000821688009511a000320000330733085020ce008aca837833070133093300d0000a0b019511a0fe7b1058017b1550017b164801951560018411e08294088280088296828c829210d3040bd8040ad8c603dab30ac9040bc93b0b7b16487b1c78c9c60c88cc4085cc018283108eb6dbb60c829b18828618c93208c9a809d8a8087b1370d8320a7b1b407b1668c96b0bc9ab0bc98b0b8fb88e9adbb80ad4b909db9a0c510c800164767b12507b1458821970821478d49407821868d48008d48707987720d49808978820d487077b1060520752018348831720017b18380a0201821770821868d487071408e0ffffff00000000821978d889088219609498947851082201821738017b1728821730017b1718821728017b1730821720017b1720821738837820831700010a0201821218018218100182190801d4280a889b0194ab510be200821a0001821b78c8ab0bd8ab0a821c60c89c0cc8ac0cd39c07d89c09da7a09821770c88707c87909d8790ad88707821868c88202c82707c87a0a8217487b1780008217587b1788007b1ba0008217507b1790008217407b1798007b1ca8007b19b0009517c0009518a000951980007b1ab8005020d200cefc8212c8008213c0008219d800821ad000821bf000821cf8008217e0008218e8007b6b507b6c587b67407b68487b6a307b69387b63207b62288217187b67108217287b67188217207b678217307b67089551a0fe82105801821550018216480195116001320000330733085020d40074c8837833070133093300d6000a0b019511a0fe7b1058017b1550017b164801951560018411f03807a800024921b8004921b0004921a8007b17a0004921d8004921d0004921c000049517e0009518c0009519a0004921c8005020d800a1fd8217e0007b17188213e8008214f0008210f80082120001821c080182161001821b1801821a20018218280182193001821738017b17387b19307b18287b1a207b1b587b16507b1c487b12407b10787b14707b136895178000951860951940951a20821b187b1b605020da0053bb00821798007b17821790007b1708821788007b1710821780007b17183307403308205020dc0082c77c78117c79107c7a127c7b13978808d4980897aa1097bb18d4ba0ad4a8087c79157c7a147c7b167c7c17979908d4a90997bb1097cc18d4cb0bd4b909979920d489027c79017c7a7c7b027c7c03979908d4a90997bb1097cc18d4cb0bd4b9097c7a057c7b047c7c067c760797aa08d4ba0a97cc10976618d46c0cd4ca0a97aa20d4a9097c7a197c7b187c7c1a7c761b97aa08d4ba0a97cc10976618d46c0cd4ca0a7c7b1d7c7c1c7c761e7c781f97bb08d4cb0b976610978818d46808d4b808978820d48a0a7c78097c7b087c7c0a7c760b978808d4b80897cc10976618d46c0cd4c8087c7b0d7c7c0c7c760e7c770f97bb08d4cb0b976610977718d46707d4b707977720d487076f786fa76f996f2ad4a909d4870ad49a0a98aa20d49808978820d4a80851080400837633082064675020de004dc682186f888219086f99821a106faa821b186fbb98bc38787c1f98bc30787c1e98bc28787c1d98bc20787c1c98bc18787c1b98bc10787c1a98bc08787c19787b18787a1098ab38787b1798ab30787b1698ab28787b1598ab20787b1498ab18787b1398ab10787b1298aa08787a11787908989a38787a0f989a30787a0e989a28787a0d989a20787a0c989a18787a0b989a10787a0a989908787909787898893878790798893078790698892878790598892078790498891878790398891078790298880878780133082064675020e0007cc5837833092033073300e2000a0b019511b07b10487b15409515508411f0491130491128491120140700000000717b484e9518207b173833075020e400eec549111849111049012233070464184911085020e600d7c533082433075020e8001cc583783307013309243300ea000a0b019511a07b10587b15507b16489515608411f0828910828c08828b82881897923f98ca01d42a02978a3f989901d49a0a97cc3f98b901d49c0c98830184bb019ab888b60184c97fd2a804d2280adbbc09d2380b88982094a8d4b40c94c8ab861f7b797b7a087b74107b7b189551a08210588215508216489511603200491130491128491120140700000000717b484e9518207b173833075020ec0021c549111849111049012233070464184911085020ee000ac533082433075020f0004fc483783307013309243300f2000a0b019511a07b10587b15507b16489515608411e082897b19108289087b19088289107b198286187b171833082033075020f4000dc46f6882196f99821a086faa821b106fbb98bc38787c1f98bc30787c1e98bc28787c1d98bc20787c1c98bc18787c1b98bc10787c1a98bc08787c19787b1898ab38787b1798ab30787b1698ab28787b1598ab20787b1498ab18787b1398ab10787b1298ab08787b11787a10989a38787a0f989a30787a0e989a28787a0d989a20787a0c989a18787a0b989a10787a0a989a08787a09787908988938787907988930787906988928787905988920787904988918787903988910787902988908787901787833082033075020f6003fc383778319203308200a08821738821830821928821a206f776f886f996faa821b187bba187bb9107bb8087bb79551a082105882155082164895116032009511a0fe7b1058017b1550017b164801951560018411e07b17088297187b17b0008297107b17a8008297087b17a00082977b17b800828b18828a1082890882877b1b187b1b18017b1a207b1a10017b19687b1908017b17707b17000149213801492130014921280149212001482140012083180001831a2001831b40013309ff33070a0701821230018213280182143801821c200197273f983801d4870797483f982901d4980897393f98ca01d49a0b9849017b1c7884cc019aca84b07fd2a808d27a06dac00bd2a9097b1b5888b7207b164894677b18507b1940d49808948788c801ab7835067b1c98007b10107b1380007b1288007b1490008217b8008219a800d497078218b000821aa000d4a808d48707987720d49808978820d487075207f8058216b80083673308205020f800d0c18218406f888219586f99989a38787a1f989a30787a1e989a28787a1d989a20787a1c989a18787a1b989a10787a1a989a08787a19821a486faa78791898a93878791798a93078791698a92878791598a92078791498a91878791398a9107879128219506f99787a1098aa08787a11787908989a38787a0f989a30787a0e989a28787a0d989a20787a0c989a18787a0b989a10787a0a98990878790978789889387879079889307879069889287879059889207879049889187879039889107879029888087878019567207b1760d86707821aa000c87a087b1828d8a808da77088217a800c878087b1830d878078218b000c887077b173882179800520712018217b0008218a800d487071408e0ffffff000000008219b800d8890894a894785108c604821778847600ff8117603308205020fa009ac0330233034921b0006f6a98ab30787b1e98ab28787b1d98ab20787b1c98ab18787b1b98ab10787b1a821880006f8b787a1898aa08787a1998ba38787a1798ba30787a1698ba28787a1598ba20787a1498ba18787a1398ba10787a12821888006f8a787b1098bb08787b1198ab38787b0f98ab30787b0e98ab28787b0d98ab20787b0c98ab18787b0b98ab10787b0a821890006f8b46171f787a0898aa08787a09787b98ba38787a0798ba30787a0698ba28787a0598ba20787a0498ba18787a0398ba10787a0298bb08787b018217108e77977005287d0333082033075020fc00b8bf8218186f888219206f99821a686faa821b706fbb98bc38787c1f98bc30787c1e98bc28787c1d98bc20787c1c98bc18787c1b98bc10787c1a98bc08787c19787b18787a1098ab38787b1798ab30787b1698ab28787b1598ab20787b1498ab18787b1398ab10787b1298aa08787a11787908989a38787a0f989a30787a0e989a28787a0d989a20787a0c989a18787a0b989a10787a0a989908787909787898893878790798893078790698892878790598892078790498891878790398891078790298880878780133082033075020fe00e6be8377831920013308200a08018217788877028218800094878218900082198800d4980894875107103300330233034921b000286b024921a8004921a00033064921b000821720018218280182193001821a38016f776f8c6f986fa4831a00017b1a20831a20017b1a18831a40017b1a10017b1c88007b1c10017b18b8007b1808017b1490007b1400017b1798007b1718014921380149213001492128014921200148214001203309ff3307821820821a18821b100a07018217608218a800c88707d88708821928821ba000c8b909c88909d3b90ad8b90bdaa80b821830c868087b168000d8680a821c388216b000c86c0cc8ca0ac88b0bd88b08c8a808d49808d4b709d48909d4b808989920978820d498085208e901821838017b1870821830017b1878821828017b186882162001837733082050200001acbd6f6898893878791f98893078791e98892878791d98892078791c98891878791b98891078791a9889087879198219686f997878189898387878179898307878169898287878159898207878149898187878139898107878128218706f88821a786faa787910989908787911787a0898a93878790f98a93078790e98a92878790d98a92078790c98a91878790b98a91078790a98aa08787a097878988938787907988930787906988928787905988920787904988918787903988910787902988808787801821490009544018847018218b800c878087b18b8008217a800957020d870098217a000c89702d8720ada990a82178000c8a703d8730a821cb000c8ac0c821850d883077b17a800821958d8900b821948d39206d8920ada6b0a821940d39c077b1cb000d89c068219a800da7906d3830b8218b800d4b707d4840c88cc01821b8800c8bc0cd8bc0bdb760a82179800c8b7077b10a8007b12a0006436520ad8fd821a60c80a0ad80a07821b28c82b0bc87b0bd32b0cd82b08dac708821730c83707c87808d8780cd837078219388216b000c86909c89707c8c7078219087b9a7b9b087b98107b97189551a0fe821058018215500182164801951160013200004921f0004921e8004921e000140700000000717b484e9518e0007b17f80033075020020174bc4921d8004921d0004921c000223307049518c0004921c8005020040156bc3308243307502006019bbb8378330701330924330008010a0b019511807b10787b15707b1668951580008411f08282828308828410828818829a829b08829c1082991864767b19187b1c107b1b087b1a7b18387b14307b132895174095182064197b122050200a0140f8821750821858821940821a487b67107b68187b697b6a089551808210788215708216689511800032007c78017c797c7a027c7b03978808d4980897aa1097bb18d4ba0ad4a8087c79057c7a047c7b067c7c07979908d4a90997bb1097cc18d4cb0bd4b909979920d489027c79097c7a087c7b0a7c7c0b979908d4a90997bb1097cc18d4cb0bd4b9097c7a0d7c7b0c7c7c0e7c760f97aa08d4ba0a97cc10976618d46c0cd4ca0a97aa20d4a9097c7a117c7b107c7c127c761397aa08d4ba0a97cc10976618d46c0cd4ca0a7c7b157c7c147c76167c781797bb08d4cb0b976610978818d46808d4b808978820d48a0a7c78197c7b187c7c1a7c761b978808d4b80897cc10976618d46c0cd4c8087c7b1d7c7c1c7c761e7c771f97bb08d4cb0b976610977718d46707d4b707977720d487076f7b7b1b386fa66f997b19306f287b182882177b17b8008217087b17b0008217107b17a8008217207b17a0007b1898007b1990007b1688009517c0009518a000951980007b1b800050200e01c2f66464821ac8008217d8007b1710821bc0008213d000d36a0cd86a08821938d89b06dac608c94a0ac96a0a7b1a08c99b0b95bc1fd8bc0bc8ba0a84cce0c84a07c8c9097b1920d8c90cc8c702d3a207d8a209da7c09821630c96307d8630c6463821028821610c90606c9c606d8870cc9c606c98707821808d88a08dabb08c87808d87807c8380ac89a0cd88a08d8ac09c80606c86707c88707c897068e678ec8db6708d46c078e29db780952093801643b821738821820d87807d34208d84209da8709d83c07d30608d8060ada870ad33c07d48707da790a520a0b013307403308207b14107b12087b1c50201001cfb86f6882196f99821a086faa821b206fbb787b1898bc38787c1f98bc30787c1e98bc28787c1d98bc20787c1c98bc18787c1b98bc10787c1a98bb08787b19787a1098ab38787b1798ab30787b1698ab28787b1598ab20787b1498ab18787b1398ab10787b1298aa08787a11787908989a38787a0f989a30787a0e989a28787a0d989a20787a0c989a18787a0b989a10787a0a98990878790978789889387879079889307879069889287879059889207879049889187879039889107879029888087878018217188218387b788218287b78188218107b78088218307b7810955100ff8210f8008215f0008216e800951100013200491170491168491160140700000000717b484e9518607b17783307502012016bb8491158491150491140413307049518404911485020140152b833082433075020160197b78378330701330924330018010a0b019511c0fe7b1038017b1530017b162801951540018411e082897b1998008289087b1990008289107b1988008286187b1778330820330750201a014cb76f68821988006f99821a90006faa821b98006fbb98bc38787c1f98bc30787c1e98bc28787c1d98bc20787c1c98bc18787c1b98bc10787c1a98bc08787c19787b1898ab38787b1798ab30787b1698ab28787b1598ab20787b1498ab18787b1398ab10787b1298ab08787b11787a10989a38787a0f989a30787a0e989a28787a0d989a20787a0c989a18787a0b989a10787a0a989a08787a09787908988938787907988930787906988928787905988920787904988918787903988910787902988908787901787833072033082050201c0179b646171f0146171e46171d46171c46171b46171a46171946171846171746171646171546171446171346171246171146171046170f46170e46170d46170c46170b46170a4617094617084617074617064617054617044617034617024617014607330840330750201e010eb68377831900013308400a08821718018218100182190801821a00016f766f887b1898006f997b1980006fa77b1790007b17f8007b19f0007b18e8007b16e0007b1688004921180149211001492108014921000148212001208318e000831a0001831b20013309ff33070a0795670188780182199800c89808d4870988990182168000c86909d8690a821b9000c8ba0a7b1af8007b19f000821900017b19707b18e800821808017b18687b17e000801710017b17604921180149211001492108014921000148212001208318e000831a0001831b20013309ff33070a07821700017b1758821708017b1750821710017b1748821718017b174082178800957902d87907821a9800c87a08d8a80ada770ac86a0ad86a0782169000c867077b17b8007b1ab0007b18a8009517c0009518a0007b19a00033002001951100ff7b10f8007b15f0007b16e800951500018411f082897b19208289087b19108289107b19088288187b187b171833074033082033000c012896b48217c0007b17388217c8007b17308217d0007b17288217d8007b172082188800958703d88708821a9800c88a09d8a90ada880a82188000c88a0ad88a08c868087b18f8007b1af0007b19e8007b17e0004921180149211001492108014921000148212001208318e000831a0001831b20013309ff33070a0782160001821708017b1718821710017b1710821718017b170882188800958704d88708821a9800c88a09d8a90ada880a82188000c88a0ad88a08821b9000c8b8087b18f8007b1af0007b19e8007b17e0004921180149211001492108014921000148212001208318e000831a0001831b20013309ff33070a077c1700018218787b8780008217087b87788217107b87708217187b87687b86608217207b87588217287b87508217307b87488217387b87408217407b87388217487b87308217507b87288217587b87208217607b87108217687b87088217707b874928980049289000492888004918189551c0fe8210380182153001821628019511400132009511887b10707b15687b1660828c10828618828b088285d46b08d4c50ad48a0a98aa20d4c808978820d4a8085208f7037b16287b1c307b1b407b178297187b17588296108297087b175082977b17487b152083573308207b170850202201c2b2821248d46208821958821a50d4a909d498089888207b1638d46909979920d498085208a2037c78197c79187c7a1a7c7b1b978808d4980897aa1097bb18d4ba0ad4a8087c791d7c7a1c7c7b1e7c7c1f979908d4a90997bb1097cc18d4cb0bd4b909979920d498087b18187c78117c79107c7a127c7b13978808d4980897aa1097bb18d4ba0ad4a8087c79157c7a147c7b167c7c17979908d4a90997bb1097cc18d4cb0bd4b909979920d498087b18107c78097c79087c7a0a7c7b0b978808d4980897aa1097bb18d4ba0ad4a8087c790d7c7a0c7c7b0e7c7c0f979908d4a90997bb1097cc18d4cb0bd4b909979920d489067c78017c797c7a027c7b03978808d4980897aa1097bb18d4ba0ad4a8087c79057c7a047c7b067c7707979908d4a90997bb10977718d4b707d49707977720d4870583273308205020240185b1646b82191082161882124898b83878780f98b83078780e98b82878780d98b82078780c98b81878780b98b81078780a98b80878780998583878780798583078780698582878780598582078780498581878780398581078780298580878780198983878781798983078781698982878781598982078781498981878781398981078781298980878781198683878781f98683078781e98682878781d98682078781c98681878781b98681078781a986808787819821058821438d404031408e0ffffff00000000d8820a821c5094ca943a787910787b087875787618510aab01821730821a28d4a707821a20d88a08821a4094a89478510891016f586fba6f9b6f65d4a5077b18307b1b20d4b808d487079877207b1a28d4a808978820d4870752076701952a207b1a40d82a07c87c087b1848d8c808da7708c848087b1850d84807c807077b175883a78218088388207b1838835664685020260129b07b1718821738646864565020280119b06478821718645950202a014cb0821740c85707d85708821b20821948c8b909c88909d3b90ad8b90bdaa80b821c28821850c8c808c88b0bd88b0ad8c808821c30821558c85c0cc8c808c8a808d4b70ad49808d48a0a98aa20d4b808978820d4a8085208b900837733082050202c01a9af46171f46171e46171d46171c46171b46171a46171946171846171746171646171546171446171346171246171146171046170f46170e46170d46170c46170b46170a461709461708461707461706461705461704461703461702461701460795671f1408e0ffffff01000000d28707821840c87808d87807821948c879099497821a50c8a707d8a70a821b58c8ba0a821b7bb87bb9087bb7107bba188210708215688216609511783200009511c0fe7b1038017b1530017b162801951540018411f082821882831082860882887b16b0007b129800d426027b18b800d43806d426069866207b139000d43208978820d468087b174052083a0582578278187b18188278107b18088278087b181082777b1782c7187b172082c7107b172882c7087b173082c77b173882b7187b174882b7107b175082b7087b175882b77b176082a7187b177082a7107b177882a7087b17800082971082a87b18688298087b18880082987b18a0009777209876208117b8003308207b17a80050202e012bae6f68821988006f99821aa0006faa98ab38787b1f98ab30787b1e98ab28787b1d98ab20787b1c98ab18787b1b98ab10787b1a98ab08787b19787a1878791046170b46170a4617094617074617064617054617044617034617024617014607989a38787a17989a30787a16989a28787a15989a20787a14989a18787a13989a10787a1298990878791178780898893878790f98893078790e98892878790d98882082199800821b9000d49b0b140600000000010000001409e0ffffff00000000821ab800d89a09821ab00094a97b1ba00094b978780c5109dc038217a8008377203308205020300142ad8218706f888219786f99821a80006faa821b686fbb98bc38787c1f98bc30787c1e98bc28787c1d98bc20787c1c98bc18787c1b98bc10787c1a98bc08787c19787b18787a1098ab38787b1798ab30787b1698ab28787b1598ab20787b1498ab18787b1398ab10787b1298aa08787a11787908989a38787a0f989a30787a0e989a28787a0d989a20787a0c989a18787a0b989a10787a0a98990878790978789889387879079889307879069889287879059889207879049889187879039889107879029888089569c0821ab800d89a09821ab00094a9821aa00094a97878015109ea028217b8009578a0007b188800d878078218b000c878097b198000d88906da770682179000c87606d8760782189800c887077b1798008217a800837740330820502032011bac46171fa00046171e46171d46171c46171b46171a46171946171846171746171646171546171446171346171246171146171046170f46170e46170d46170c46170b46170a4617094617084617074617064617054617044617034617024617014607821798007b17d8007b16d000821780007b17c800821788007b17c0008217487b17f8008217507b17f0008217587b17e800951700019518e0009519c000821a607b1ae0005020340154f8140600000000010000001407a0ffffff000000008218b800d878078218b00094878218a00094875107cf01821718017b179000821710017b179800821708017b178800821700017b1780008217a8008377603308205020360115ab8218206f888219286f99821a306faa821b386fbb98bc38787c1f98bc30787c1e98bc28787c1d98bc20787c1c98bc18787c1b98bc10787c1a98bc08787c19787b18787a1098ab38787b1798ab30787b1698ab28787b1598ab20787b1498ab18787b1398ab10787b1298aa08787a11787908989a38787a0f989a30787a0e989a28787a0d989a20787a0c989a18787a0b989a10787a0a9899087879097878988938787907988930787906988928787905988920787904988918787903988910787902988808956980821ab800d89a09821ab00094a9821aa00094a97878015109be008217088218d48707821818821910d49808d487078e768217a80083778000330820502038010daa46171e46171d46171c46171b46171a46171946171846171746171646171546171446171346171246171146171046170f46170e46170d46170c46170b46170a461709461708461707461706461705461704461703461702461701460778761f821740821880007b78821890007b7818821888007b7808821898007b78109551c0fe82103801821530018216280195114001320000821770028218780282196802821a6002d49808d4a707d48707520747033907a800025417233e03831780023308040a02821980028217880282189002821a98027b1ab8017b18b0017b17a8019517c0019518a0017b19a00150203a0199f18217c0017b17b0008217c8017b17a8008217d0017b17a0008217d8017b1798008217e0017b1790008217e8017b1788008217f0017b1780008217f8017b1778821700027b1770821708027b1768821710027b1760821718027b1758821720027b1750821728027b1748821730027b1740821738027b1738821740027b1730821748027b1728821750027b1720821758027b171833074033082050203c017ca87c78017c797c7a027c7b03978808d4980897aa1097bb18d4ba0ad4a8087c79057c7a047c7b067c7c07979908d4a90997bb1097cc18d4cb0bd4b909979920d489027c79097c7a087c7b0a7c7c0b979908d4a90997bb1097cc18d4cb0bd4b9097c7a0d7c7b0c7c7c0e7c760f97aa08d4ba0a97cc10976618d46c0cd4ca0a97aa20d4a9097c7a117c7b107c7c127c761397aa08d4ba0a97cc10976618d46c0cd4ca0a7c7b157c7c147c76167c781797bb08d4cb0b976610978818d46808d4b808978820d48a0a7c78197c7b187c7c1a7c761b978808d4b80897cc10976618d46c0cd4c8087c7b1d7c7c1c7c761e7c771f97bb08d4cb0b976610977718d46707d4b707977720d487076f766faa7b1a086f987b18106f297b19b8009517c0007b178217187b17d8008217207b17d0008217287b17c8008217307b17c0008217387b17f8008217407b17f0008217487b17e8008217507b17e0008217587b1718018217607b1710018217687b1708018217707b1700018217787b173801821780007b173001821788007b172801821790007b172001821798007b1758018217a0007b1750018217a8007b1748018217b0007b1740017b1978017b1870017b1a6801951780019518600195194001951a2001951b0001951ce0007b16600150203e01a4f7821b0864698217b800d4b707821610d46908d47808988820d46707977720d4870752076182178801821898017b18b0008213800182189001d3b704d8b70cd89300da400cc9680ac9ca04d8ca02d8680a8218b800821cb000c98c0cc9ac0cc92c0cc9b707c90707c99306d4c707d44608d47808d44707988820977720d487075107180033073308502040010fa6837833070133090a0b0183978366646850204201f9a5837833076469330044010a0b019511a07b10587b15509515608411e03907a8000254172361018317203308040a02821820821728821930821a387b1a187b19107b170864177b185020460164ad00330740330820502048019fa57c78117c79107c7a127c7b13978808d4980897aa1097bb18d4ba0ad4a8087c79157c7a147c7b167c7c17979908d4a90997bb1097cc18d4cb0bd4b909979920d489027c79017c7a7c7b027c7c03979908d4a90997bb1097cc18d4cb0bd4b9097c7a057c7b047c7c067c780797aa08d4ba0a97cc10978818d4c808d4a808978820d498037c78197c7a187c7b1a7c7c1b978808d4a80897bb1097cc18d4cb0bd4b8087c7a1d7c7b1c7c7c1e7c791f97aa08d4ba0a97cc10979918d4c909d4a909979920d4890a7c78097c79087c7b0a7c7c0b978808d4980897bb1097cc18d4cb0bd4b8087c790d7c7b0c7c7c0e7c770f979908d4b90997cc10977718d4c707d49707977720d487076f786fa76f396f2ad4a909d4870ad49a0a98aa20d49808978820d4a808510820003307330850204a016da4837833070133090a0b837733004c012858a4837750204c0153a483783307330933004e010a0b019511807b10787b15707b1668951580008411e0828010828c08829a088283829b7b1b28829410d3ca02d8ca06d83b0b7b1b20da2b068282188298187b1818c90409c969087b1830d86908d8040b7b1238821918c92909c9b909c98909c9ca08821a20c9a808821a28c93a0a8e8b88aa4085aa01db8b0a8f968218308e8bdb960bd49808db8b0a510abe006476d403077b1c30821838d4c808d487079877207b1028d40808978820d487075207990083388317407b18187b13200a0201821728821838d487071408e0ffffff00000000821920d88908821930949894785108678217587b17208217507b17288217487b17308217407b17388217188378208317400a02821758821850821948821a407b67387b68307b69287b6a208217207b67188217287b67108217307b67088217387b67955180821078821570821668951180003200003307330850205001f8a283783307013309330052010a0b01951140ff7b10b8007b15b0007b16a8009515c0008411e04911784911704911684911608317600a0e01821770821878821968821a60d49808d4a707d487075207ab013907a80002541743a201831780003308040a02821780007b1718821788007b1710821790007b170882169800831780003308240a02821780008218880082199000821a98007b1a387b19307b18287b17207b16588217087b17508217107b17489517409518208219187b1940502054014bd8003307403308205020560129a27c78117c79107c7a127c7b13978808d4980897aa1097bb18d4ba0ad4a8087c79157c7a147c7b167c7c17979908d4a90997bb1097cc18d4cb0bd4b909979920d489027c79017c7a7c7b027c7c03979908d4a90997bb1097cc18d4cb0bd4b9097c7a057c7b047c7c067c760797aa08d4ba0a97cc10976618d46c0cd4ca0a97aa20d4a9097c7a197c7b187c7c1a7c761b97aa08d4ba0a97cc10976618d46c0cd4ca0a7c7b1d7c7c1c7c761e7c781f97bb08d4cb0b976610978818d46808d4b808978820d48a0a7c78097c7b087c7c0a7c760b978808d4b80897cc10976618d46c0cd4c8087c7b0d7c7c0c7c760e7c770f97bb08d4cb0b976610977718d46707d4b707977720d487076f786fa76f996f2ad4a909d4870ad49a0a98aa20d49808978820d4a808510820003307330850205801f7a0837833070133090a0b837733005a0128e2a0837750205a01dda083783307330933005c010a0b01827218828318827b10827c088289088274828a828810d3c907d8c909d84a0adb790ac9b807d8a707d8b808c92309c98909c9790957090532009511f87b103307330850205e0188a083783307013309330060010a0b019511a07b10587b15507b16487b1782828293829708829a10828b188285108299188288088eb48e56dbb4068e80882c000185c401db8004d45b0bdbb60446114746114646114546114446114346114246114146114046113f46113e46113d46113c46113b46113a46113946113846113746113646113546113446113346113246113146113046112f46112e46112d46112c46112b46112a461129461128781920781a1878171078130898983878182798983078182698982878182598982078182498981878182398981078182298990878192198a83878181f98a83078181e98a82878181d98a82078181c98a81878181b98a81078181a98aa08781a1998783878181798783078181698782878181598782078181498781878181398781078181298770878171198373878170f98373078170e98372878170d98372078170c98371878170b98371078170a98370878170997273898773b951908c879097c97117c98107c9a127c9b13977708d4870797aa1097bb18d4ba0ad4a7077c98157c9a147c9b167c9c17978808d4a80897bb1097cc18d4cb0bd4b808978820d47800842a07d0a0087c97197c9b187c961a7c951b977708d4b707976610975518d46505d457077c9b1d7c961c7c951e7c9c1f97bb08d46b0b97551097cc18d45c0cd4cb0b97bb20d47b0297270185a33fcf370bd48b0b7c97097c98087c9c0a7c950b977708d4870797cc10975518d45c0cd4c7077c980d7c9c0c7c950e7c960f978808d4c808975510976618d46505d45808978820d47808d0a80797000185acffcfc00cd4c7007c97017c957c96027c9c03977708d4570797661097cc18d46c0cd4c7077c9c057c95047c96067c990797cc08d45c0c976610979918d46909d4c909979920d49707d0a707978801cf3808d48707d0a20894479440944b944882197b98187b9b107b90087b978210588215508216489511603200821730821838821928821a20d49808d4a707d48707520787013907a800025417037e014911584911504911484911404911784911704911684911604821800020831840831a60831b80003309ff33070a078217787b178217707b17088217687b17108217607b1718330740330820502062014f9d7c78117c79107c7a127c7b13978808d4980897aa1097bb18d4ba0ad4a8087c79157c7a147c7b167c7c17979908d4a90997bb1097cc18d4cb0bd4b909979920d489027c79017c7a7c7b027c7c03979908d4a90997bb1097cc18d4cb0bd4b9097c7a057c7b047c7c067c760797aa08d4ba0a97cc10976618d46c0cd4ca0a97aa20d4a9097c7a197c7b187c7c1a7c761b97aa08d4ba0a97cc10976618d46c0cd4ca0a7c7b1d7c7c1c7c761e7c781f97bb08d4cb0b976610978818d46808d4b808978820d48a0a7c78097c7b087c7c0a7c760b978808d4b80897cc10976618d46c0cd4c8087c7b0d7c7c0c7c760e7c770f97bb08d4cb0b976610977718d46707d4b707977720d487076f786fa76f996f2ad4a909d4870ad49a0a98aa20d49808978820d4a8085108180033073308502064011d9c837833070133090a0b018376330820646750206601069c82186f888219086f99821a106faa821b186fbb98bc38787c1f98bc30787c1e98bc28787c1d98bc20787c1c98bc18787c1b98bc10787c1a98bc08787c19787b18787a1098ab38787b1798ab30787b1698ab28787b1598ab20787b1498ab18787b1398ab10787b1298aa08787a11787908989a38787a0f989a30787a0e989a28787a0d989a20787a0c989a18787a0b989a10787a0a9899087879097878988938787907988930787906988928787905988920787904988918787903988910787902988808787801330820646750206801359b8378330920330733006a010a0b019511e07b10187b15107b16083306a000023908a0000264755108203307b0000383777b1883680a06013907a000022003a000028218ac87303a08c800033a09c000033a0ab800033a07b000037b58187b59107b5a087b57821018821510821608951120320000821730821838821928821a20d49808d4a707d48707520787013907a800025417037e013306a000023907a000025107237b17183307b00003837783680a06013907a000022003a00002821818ac874f013a08c000037b18083a08b800037b18103a07b000037b171833074033082050206c014d9a7c78117c79107c7a127c7b13978808d4980897aa1097bb18d4ba0ad4a8087c79157c7a147c7b167c7c17979908d4a90997bb1097cc18d4cb0bd4b909979920d489027c79017c7a7c7b027c7c03979908d4a90997bb1097cc18d4cb0bd4b9097c7a057c7b047c7c067c760797aa08d4ba0a97cc10976618d46c0cd4ca0a97aa20d4a9097c7a197c7b187c7c1a7c761b97aa08d4ba0a97cc10976618d46c0cd4ca0a7c7b1d7c7c1c7c761e7c781f97bb08d4cb0b976610978818d46808d4b808978820d48a0a7c78097c7b087c7c0a7c760b978808d4b80897cc10976618d46c0cd4c8087c7b0d7c7c0c7c760e7c770f97bb08d4cb0b976610977718d46707d4b707977720d487076f786fa76f996f2ad4a909d4870ad49a0a98aa20d49808978820d4a808510818003307330850206e011b99837833070133090a0b0182180897882098862083777b170833082050207001fa986f688219106f99821a186faa98ab38787b1f98ab30787b1e98ab28787b1d98ab20787b1c98ab18787b1b98ab10787b1a98ab08787b19787a1878791046170b46170a4617094617074617064617054617044617034617024617014607989a38787a17989a30787a16989a28787a15989a20787a14989a18787a13989a10787a1298990878791178780898893878790f98893078790e98892878790d98882078780c330820821708502072014d9883783309203307330074010a0b01828918828a10828b0882887b79187b7a107b7b087b7832009511a07b10587b15507b1648828a18828b10828c088286d4ac08d4b609d48909989920d4b808978820d498087b1728520802029567207b1730d86707c87c087b18407b1c08d8c805da7705c8b5057b1b10d8b5077b1a18c8a7077b17387b16836733082033062050207601ba9778761f8218306486d45808821940821b38d4b909d498089888207b1520d45909979920d4980846171e46171d46171c46171b46171a46171946171846171746171646171546171446171346171246171146171046170f46170e46170d46170c46170b46170a4617094617084617074617064617054617044617034617024617014607520842018365330820645750207801279746171f0646171e46171d46171c46171b46171a46171946171846171746171646171546171446171346171246171146171046170f46170e46170d46170c46170b46170a461709461708461707461706461705461704461703461702461701821820821938d498081409e0ffffff00000000d89609821a4094a9948946075109b40083572033082050207a019a9646171f46171e46171d46171c46171b46171a46171946171846171746171646171546171446171346171246171146171046170f46170e46170d46170c46170b46170a46170946170846170746170646170544461704454617034b461702434617014f46074c8218958760d88708821a08c88a09d8a90ada880a821810c88a0ad88a08821b18c8b808821b287bb77bb9087bba107bb818821058821550821648951160320000951180fe7b1078017b1570017b166801951580018411e0829a187b1a829a107b1a08829a087b1a1082997b19188289187b19208289107b19288289087b193082887b18388278187b18408278107b18488278087b185082777b17584921380149213001492128013306037b16200149215801492150014921480149214001482100012083182001831a4001831b00013309ff33070a0701821758018218480182194001821a5001d48707859801d4a808d487075207ba01492138014921300149212801492120010349215801492150014921480149214001482100012083182001831a4001831b00013309ff33070a0749213801492130014921280149212001034921580149215001492148014921400183182001831a40013309ff330b2033070a0d82177b17788217087b17708217107b17688217187b17608217207b1798008217287b1790008217307b1788008217387b1780008217407b17b8008217487b17b0008217507b17a8009517a00095188000951960821a587b1aa00033007c01951100fc7b10f8037b15f0034921e80303951500048411e0829a187b1a3801829a107b1a2801829a087b1a300182997b1920018289107b1960018289087b19900182887b1898018278187b1870018278107b1878018278087b18800182777b1788018317a0020a0428fe0c4921380149213001492128017b16200149215801492150014921480149214001482100012083182001831a4001831b00013309ff33070a074921380149213001492128017b162001492158014921500149214801492140010183182001831a40013309ff330b2033070a0d955180fe82107801821570018216680195118001320033074033082050207e017c937c78117c79107c7a127c7b13978808d4980897aa1097bb18d4ba0ad4a8087c79157c7a147c7b167c7c17979908d4a90997bb1097cc18d4cb0bd4b909979920d489027c79017c7a7c7b027c7c03979908d4a90997bb1097cc18d4cb0bd4b9097c7a057c7b047c7c067c760797aa08d4ba0a97cc10976618d46c0cd4ca0a97aa20d4a9097c7a197c7b187c7c1a7c761b97aa08d4ba0a97cc10976618d46c0cd4ca0a7c7b1d7c7c1c7c761e7c781f97bb08d4cb0b976610978818d46808d4b808978820d48a0a7c78097c7b087c7c0a7c760b978808d4b80897cc10976618d46c0cd4c8087c7b0d7c7c0c7c760e7c770f97bb08d4cb0b976610977718d46707d4b707977720d487076f766fa86f996f277b17587b1950d497076489d46808d47808988820d46707977720d48707520716017b194883973308207b1740502080013b9246171f46171e46171d46171c46171b46171a46171946171846171746171646171546171446171346171246171146171046170f46170e46170d46170c46170b46170a461709461708461707461706461705461704461703a00046170279461701c300460708821848958704d88708821a58c88a09d8a90ada880ac86a0ad86a08821b50c88b0b7b19c8007b17c0007b1ad0009517e0009518c0007b1bd8005020820176f98217e8008212f8008213e000821af000821858d3870bd8870c6484821948d89308dab80cc96a0bd86a0a821650c96206c9a606d8cb0ac9a606c9cb0bc94707c98708c99307d46808d4b709d48909d4b808989920978820d498085108040083768217406468502084012c9183783307016469330086010a0b01827810827918827a088277d4a909d4870ad49a0a98aa20d49808978820d4a808520892009511f07b10087b15837733082033052050208801e49046171f46171e46171d46171c46171b46171a46171946171846171746171646171546171446171346171246171146171046170f46170e46170d46170c46170b46170a724617096533097478790846170769330a62787a0646170572461704617875037879024617016f33086e787882100882159511103200009511a07b10587b15507b1648828a18828b10828c088286d4ac08d4b609d48909989920d4b808978820d498087b1728520807029567207b1730d86707c87c087b18407b1c08d8c805da7705c8b5057b1b10d8b5077b1a18c8a7077b17387b16836733082033062050208a01fe8f78761f8218306486d45808821940821b38d4b909d498089888207b1520d45909979920d4980846171e46171d46171c46171b46171a46171946171846171746171646171546171446171346171246171146171046170f46170e46170d46170c46170b46170a4617094617084617074617064617054617044617034617024617014607520847018365330820645750208c016b8f46171f0b46171e46171d46171c46171b46171a46171946171846171746171646171546171446171346171246171146171046170f46170e46170d46170c46170b46170a461709461708461707461706461705461704461703461702461701821820821938d498081409e0ffffff00000000d89609821a4094a9948946075109b90083572033082050208e01de8e46171f46171e46171d46171c46171b46171a46171946171846171746171646171546171446171346171246171146171046170f46170e46170d46170c46170b46170a7246170965461708744617076946170662461705724617046146170320461702744617016f46076e8218958760d88708821a08c88a09d8a90ada880a821810c88a0ad88a08821b18c8b808821b287bb77bb9087bba107bb8188210588215508216489511603200009511a07b10587b15507b1648828a18828b10828c088286d4ac08d4b609d48909989920d4b808978820d498087b172852080d029567207b1730d86707c87c087b18407b1c08d8c805da7705c8b5057b1b10d8b5077b1a18c8a7077b17387b16836733082033062050209001c78d78761f8218306486d45808821940821b38d4b909d498089888207b1520d45909979920d4980846171e46171d46171c46171b46171a46171946171846171746171646171546171446171346171246171146171046170f46170e46170d46170c46170b46170a461709461708461707461706461705461704461703461702461701460752084d018365330820645750209201348d46171f1146171e46171d46171c46171b46171a46171946171846171746171646171546171446171346171246171146171046170f46170e46170d46170c46170b46170a461709461708461707461706461705461704461703461702461701821820821938d498081409e0ffffff00000000d89609821a4094a9948946075109bf0083572033082050209401a78c46171f46171e46171d46171c46171b46171a4617194617184617174617164617154617144617134617124617114617106546170f7446170e7546170d7046170c7346170b6946170a6446170920461708654617077646170669461705744617046346170361461702204617016f46076e8218958760d88708821a08c88a09d8a90ada880a821810c88a0ad88a08821b18c8b808821b287bb77bb9087bba107bb8188210588215508216489511603200009511a07b10587b15507b1648828a18828b10828c088286d4ac08d4b609d48909989920d4b808978820d498087b172852080e029567207b1730d86707c87c087b18407b1c08d8c805da7705c8b5057b1b10d8b5077b1a18c8a7077b17387b168367330820330620502096018a8b78761f8218306486d45808821940821b38d4b909d498089888207b1520d45909979920d4980846171e46171d46171c46171b46171a46171946171846171746171646171546171446171346171246171146171046170f46170e46170d46170c46170b46170a461709461708461707461706461705461704461703461702461701460752084e018365330820645750209801f78a46171f1246171e46171d46171c46171b46171a46171946171846171746171646171546171446171346171246171146171046170f46170e46170d46170c46170b46170a461709461708461707461706461705461704461703461702461701821820821938d498081409e0ffffff00000000d89609821a4094a9948946075109c00083572033082050209a016a8a46171f46171e46171d46171c46171b46171a461719461718461717461716461715461714461713461712461711654617106b46170f6146170e7446170d7346170c2046170b7446170a6e46170965461708694617076346170669461705664617046646170375461702734617016e4607698218958760d88708821a08c88a09d8a90ada880a821810c88a0ad88a08821b18c8b808821b287bb77bb9087bba107bb8188210588215508216489511603200009511c07b10387b15307b16289515408411e033074033082050209c019b897c78117c79107c7a127c7b13978808d4980897aa1097bb18d4ba0ad4a8087c79157c7a147c7b167c7c17979908d4a90997bb1097cc18d4cb0bd4b909979920d489027c79017c7a7c7b027c7c03979908d4a90997bb1097cc18d4cb0bd4b9097c7a057c7b047c7c067c760797aa08d4ba0a97cc10976618d46c0cd4ca0a97aa20d4a9097c7a197c7b187c7c1a7c761b97aa08d4ba0a97cc10976618d46c0cd4ca0a7c7b1d7c7c1c7c761e7c781f97bb08d4cb0b976610978818d46808d4b808978820d48a0a7c78097c7b087c7c0a7c760b978808d4b80897cc10976618d46c0cd4c8087c7b0d7c7c0c7c760e7c770f97bb08d4cb0b976610977718d46707d4b707977720d487076f766fa77b17086f977b17186f277b17100a0a01821a08821818821910d49808d46a09d48909989920d46808978820d4980852083a647698772052073283a783687b18187b171050209e0147887a1620837783182033090a0901811720821818ac870c0a0a0198782051080400837682171064685020a0011a88837833070164693300a2010a0b019511c07b10387b15307b1628828a10828618828c088285d46c0bd4a508d4b808988820d4ab0b97bb20d4b8087b17205208ce00829218829310829b0882999557207b1718d85707c87c087b1810d8c80cda770cc8ac0c7b1c08d8ac07c87606d43908d42b07d487078e777b1783573308205020a401958746171e46171d46171c46171b46171a46171946171846171746171646171546171446171346171246171146171046170f46170e46170d46170c46170b46170a4617094617084617074617064617054617044617034617024617014607821878781f8217208218187b787b76188218107b78088218087b78108210388215308216289511403200003306a00002811bb0028219a0023907a000028218a80251073f7b1748013307b0000383777b18500183687b1b68017b1958010a06018218500182195801821b68013907a000022003a00002821a4801aea7062817136f879878206f99979a20d4a8089777206fbb98bb20d4b7073a0bb00003380cc000039899203a0ab80003d3b707d3c909d49707d3a808d487075207730e3308205020a6017386821870016f88821978016f99821a80016faa821b88016fbb98bc387b1c1801787c1f98bc307b1c1001787c1e98bc287b1c0801787c1d98bc207b1c0001787c1c98bc187b1cf800787c1b98bc107b1cf000787c1a98bc087b1ce800787c197b1b6801787b18787a1098ab387b1be000787b1798ab307b1bd800787b1698ab287b1bd000787b1598ab207b1bc800787b1498ab187b1bc000787b1398ab107b1bb800787b127b1a700198aa087b1ab000787a11787908989a387b1aa800787a0f989a307b1aa000787a0e989a287b1a9800787a0d989a207b1a9000787a0c989a187b1a8800787a0b989a107b1a8000787a0a7b1978019899087b197878790978789889387b19707879079889307b19687879069889287b19607879059889207b19587879049889187b19507879039889107b19487879027b1880019888087b18407878013307203308205020a801248546171f0246171e46171d46171c46171b46171a46171946171846171746171646171546171446171346171246171146171046170f46170e46170d46170c46170b46170a461709461708461707461706461705461704461703461702461701460733084033075020aa01b9848377831980033308400a08821780037b178801821788037b174801821790037b17400182169803821760019777209877207b17580133082033075020ac017984821858016f89821890016f8a821898016f8b98b83878781f98b83078781e98b82878781d98b8207b181878781c98b81878781b98b81078781a98b8087878197b1b5001787b1898a83878781798a83078781698a82878781598a8207b181078781498a81878781398a81078781298a8087878117b1a5801787a1098983878780f98983078780e98982878780d98982078780c46170b46170a4617097b193878790846170746170646170546170446170346170246170146073307203308205020ae01b58398683878781f98683078781e98682878781d98682078781c98681878781b98681078781a986808787819787618821940019898387878179898307878169898287878159898207878149898187878139898107878129898087878117879108219480198983878780f98983078780e98982878780d98982078780c98981878780b98981078780a98980878780978790882198801989838787807989830787806989828787805989820787804989818787803989810787802989808787801787933084033075020b001eb828377831980033308400a08821780038218880382199003821a98036f7b6f886f996fa7957a027b1720d87a07c8790c7b1928d89c06da7706c886067b1830d886077b1b4001c8b7077b1c90017b1c68037b1a98017b1a60037b1670037b1788017b17780349219803492190034921880349218003482140032083186003831a8003831b40033309ff33070a07017c178103510740087b167003821790017b176803821798017b176003821788017b17780349219803492190034921880349218003482140032083186003831a8003831b40033309ff33070a07017c1782035207f3077b167003821790017b176803821798017b1760037b164801821688017b16780349219803492190034921880349218003482140032083186003831a8003831b40033309ff33070a07821788038218900382198003821a98038499ffff00ff86990000017b167803821b48017b1b7003821b90017b1b6803821b98017b1b60037b1a98037b1890037b1788037b19800383186003831a80033309ff330b2033070a0d33082033075020b2015d818218180178781f8218100178781e8218080178781d8218000178781c8218f80078781b8218f00078781a8218e8007878198218e0007878178218d8007878168218d0007878158218c8007878148218c0007878138218b8007878128218b0007878118218a80078780f8218a00078780e8218980078780d8218900078780c8218880078780b8218800078780a8218787878098218707878078218687878068218607878058218587878048218507878038218487878028218407878018218680178781882187001787810821878017878088218800178783307203308205020b4017a8046171f0146171e46171d46171c46171b46171a46171946171846171746171646171546171446171346171246171146171046170f46170e46170d46170c46170b46170a461709461708461707461706461705461704461703461702461701460733084033075020b6010f808377831980033308400a08018217280182182001d487078218380182193001d49808d487077b17280151078d03821780038218880382199003821a98036f777b1748016f877b1738016f977b1730016fa77b172001821720957701887801821928c89808d48709889901821a30c8a909d8a90a821b4001c8ba0a7b1760037b1868037b1970037b1a780349219803492190034921880349218003482140032083186003831a8003831b40033309ff33070a0782169803821790037b178801821788037b179001821780037b17980182172001957903d8790782183001c8780ad88a08da770882173801c87808d87807821b4801c8b7077b1720017b1778037b1830017b1870037b1a38017b1a68037b1940017b19600349219803492190034921880349218003482140032083186003831a8003831b40033309ff33070a0701821798038212800382199003821a8803d3670b7b164801d8670682178801d8790cdbb60c82189001d38a06d88a0a82189801d88208db6a08d39707d4b707db7c0852088f08821730017b177003821738017b176803821740017b176003821720017b17780349219803492190034921880349218003482140032083186003831a8003831b40033309ff33070a070182199803821a90038213880382188003821b4801d3b907d8b90b82128801d82a0c7b1c1001da7c0b821c9001d3c304d8c306821c98017b180001d8c800da4006d32a0cd4c707da760b520b5b0a82178801c97a07c9670a7b1a1801d86707821a4801c9a90982181001c98909c979097b19100182179001c97307c907077b17080148214003208217980182180001c978087b180001821730017b177003821738017b176803821740017b176003821620017b1678034921980349219003492188034921800383186003831a8003831b40033309ff33070a077b167803821730017b177003821738017b176803821740017b176003821710017b179803821718017b179003821708017b178803821700017b17800383186003831a80033309ff330b2033070a0d82175801977720821860016f88988820d4870782185001978820821910d498087b18c8027b17c0028217187a17d002821748017b17f802821788017b17f002821790017b17e802821798017b17e002330733085020b801c37cff7b179801330733085020ba01b47cff48210003492138034921300349212803492120039518c0029788209886209518e00297882098882095192003979920d4890a821b980197bb2098bb2097772098772095180003978820d4780c3308ff3309ff64670a015207b9083307403308205020bc014d7cff7c78117c79107c7a127c7b13978808d4980897aa1097bb18d4ba0ad4a8087c79157c7a147c7b167c7c17979908d4a90997bb1097cc18d4cb0bd4b909979920d489027c79017c7a7c7b027c7c03979908d4a90997bb1097cc18d4cb0bd4b9097c7a057c7b047c7c067c760797aa08d4ba0a97cc10976618d46c0cd4ca0a97aa20d4a9097c7a197c7b187c7c1a7c761b97aa08d4ba0a97cc10976618d46c0cd4ca0a7c7b1d7c7c1c7c761e7c781f97bb08d4cb0b976610978818d46808d4b808978820d48a0a7c78097c7b087c7c0a7c760b978808d4b80897cc10976618d46c0cd4c8087c7b0d7c7c0c7c760e7c770f97bb08d4cb0b976610977718d46707d4b707977720d487076f776fa66f986f29d49808d47609d48909989920d48707977720d4970752078307821728018e777b179801836633082064675020be010d7bff46171e46171d46171c46171b46171a46171946171846171746171646171546171446171346171246171146171046170f46170e46170d46170c46170b46170a46170946170846170746170646170546170446170346170246170146078218980178781f33082064675020c0019e7aff3a080000023a090800023a0a1000023a0b1800027b1898037b1990037b1a88037b1b8003821868017b18b803821870017b18b003821878017b18a803821880017b18a003821850017b18d803821858017b18d0038218387b18c8034921c003837983178003330803330a200a05955100fc8210f8038215f0038216e8039511000432003307403308205020c2010e7aff7c78117c79107c7a127c7b13978808d4980897aa1097bb18d4ba0ad4a8087c79157c7a147c7b167c7c17979908d4a90997bb1097cc18d4cb0bd4b909979920d489027c79017c7a7c7b027c7c03979908d4a90997bb1097cc18d4cb0bd4b9097c7a057c7b047c7c067c760797aa08d4ba0a97cc10976618d46c0cd4ca0a97aa20d4a9097c7a197c7b187c7c1a7c761b97aa08d4ba0a97cc10976618d46c0cd4ca0a7c7b1d7c7c1c7c761e7c781f97bb08d4cb0b976610978818d46808d4b808978820d48a0a7c78097c7b087c7c0a7c760b978808d4b80897cc10976618d46c0cd4c8087c7b0d7c7c0c7c760e7c770f97bb08d4cb0b976610977718d46707d4b707977720d487076f766fa86f996f277b1798017b199001d497076489d46808d47808988820d46707977720d4870752073a057b19880183973308207b1780015020c401c878ff46171f46171e46171d46171c46171b46171a46171946171846171746171646171546171446171346171246171146171046170f46170e46170d46170c46170b46170a461709461708461707461706461705461704461703a00046170279461701c30046070882188801958704d88708821a9801c88a09d8a90ada880ac86a0ad86a08821b9001c88b0b7b19a8017b17a0017b1ab0019517c0019518a0017b1bb8015020c601f2e98217c8018212d8018213c001821ad001281b043307403308205020c8010178ff7c78117c79107c7a127c7b13978808d4980897aa1097bb18d4ba0ad4a8087c79157c7a147c7b167c7c17979908d4a90997bb1097cc18d4cb0bd4b909979920d489027c79017c7a7c7b027c7c03979908d4a90997bb1097cc18d4cb0bd4b9097c7a057c7b047c7c067c760797aa08d4ba0a97cc10976618d46c0cd4ca0a97aa20d4a9097c7a197c7b187c7c1a7c761b97aa08d4ba0a97cc10976618d46c0cd4ca0a7c7b1d7c7c1c7c761e7c781f97bb08d4cb0b976610978818d46808d4b808978820d48a0a7c78097c7b087c7c0a7c760b978808d4b80897cc10976618d46c0cd4c8087c7b0d7c7c0c7c760e7c770f97bb08d4cb0b976610977718d46707d4b707977720d487076f766fa86f996f277b1798017b199001d497076489d46808d47808988820d46707977720d4870752072d037b19880183973308207b1780015020ca01bb76ff46171f46171e46171d46171c46171b46171a46171946171846171746171646171546171446171346171246171146171046170f46170e46170d46170c46170b46170a461709461708461707461706461705461704461703a00046170279461701c30046070882188801958704d88708821a9801c88a09d8a90ada880ac86a0ad86a08821b9001c88b0b7b1968027b1760027b1a700295178002951860027b1b78025020cc01aee5821788028212980282138002821a9002280e023307403308205020ce01f475ff7c78117c79107c7a127c7b13978808d4980897aa1097bb18d4ba0ad4a8087c79157c7a147c7b167c7c17979908d4a90997bb1097cc18d4cb0bd4b909979920d489027c79017c7a7c7b027c7c03979908d4a90997bb1097cc18d4cb0bd4b9097c7a057c7b047c7c067c760797aa08d4ba0a97cc10976618d46c0cd4ca0a97aa20d4a9097c7a197c7b187c7c1a7c761b97aa08d4ba0a97cc10976618d46c0cd4ca0a7c7b1d7c7c1c7c761e7c781f97bb08d4cb0b976610978818d46808d4b808978820d48a0a7c78097c7b087c7c0a7c760b978808d4b80897cc10976618d46c0cd4c8087c7b0d7c7c0c7c760e7c770f97bb08d4cb0b976610977718d46707d4b707977720d487076f766fa86f996f277b1798017b199001d497076489d46808d47808988820d46707977720d48707520720017b19880183973308207b1780015020d001ae74ff46171f46171e46171d46171c46171b46171a46171946171846171746171646171546171446171346171246171146171046170f46170e46170d46170c46170b46170a461709461708461707461706461705461704461703a00046170279461701c30046070882188801958704d88708821a9801c88a09d8a90ada880ac86a0ad86a08821b9001c88b0b7b19e8017b17e0017b1af001951700029518e0017b1bf8015020d20115e8821708028212180282130002821a10020182189801d3870bd8870c648482198801d89308dab80cc96a0bd86a0a82169001c96206c9a606d8cb0ac9a606c9cb0bc94707c98708c99307d46808d4b709d48909d4b808989920978820d49808510867005020d401ebe9492150024921480249214002140700000000717b484e951840027b17580233075020d6012874ff4921380249213002492120021133070495182002492128025020d8010974ff33082433075020da014d73ff83783307013309240a0b0183768217800164685020dc013373ff837833070164693300de010a0b01951170ff7b1088007b1580007b1678951590008411f0827a7b1a088273088274108270188282828b08828c10828a1882968298088297108299187b19287b17207b18187b16107b1a487b1c407b1b387b12307b10687b14607b1358951750951830951910821a087b1a505020e001c5dc955170ff82108800821580008216789511900032009511a07b10587b15507b1648828a18828b10828c088286d4ac08d4b609d48909989920d4b808978820d498087b1728520811029567207b1730d86707c87c087b18407b1c08d8c805da7705c8b5057b1b10d8b5077b1a18c8a7077b17387b1683673308203306205020e2013272ff78761f8218306486d45808821940821b38d4b909d498089888207b1520d45909979920d4980846171e46171d46171c46171b46171a46171946171846171746171646171546171446171346171246171146171046170f46170e46170d46170c46170b46170a461709461708461707461706461705461704461703461702461701460752085001836533082064575020e4019e71ff46171f1146171e46171d46171c46171b46171a46171946171846171746171646171546171446171346171246171146171046170f46170e46170d46170c46170b46170a461709461708461707461706461705461704461703461702461701821820821938d498081409e0ffffff00000000d89609821a4094a9948946075109c1008357203308205020e6011071ff46171f46171e46171d46171c46171b46171a4617194617184617174617164617154617144617134617124617114617107446170f6546170e79330c20787c0d46170c6446170b6546170a724617096546170876461707694617066c4617056546170464787c03461702744617016f46076e8218958760d88708821a08c88a09d8a90ada880a821810c88a0ad88a08821b18c8b808821b287bb77bb9087bba107bb8188210588215508216489511603200009511a07b10587b15507b1648828a18828b10828c088286d4ac08d4b609d48909989920d4b808978820d498087b172852080f029567207b1730d86707c87c087b18407b1c08d8c805da7705c8b5057b1b10d8b5077b1a18c8a7077b17387b1683673308203306205020e801f16fff78761f8218306486d45808821940821b38d4b909d498089888207b1520d45909979920d4980846171e46171d46171c46171b46171a46171946171846171746171646171546171446171346171246171146171046170f46170e46170d46170c46170b46170a461709461708461707461706461705461704461703461702461701460752084e01836533082064575020ea015d6fff46171f1046171e46171d46171c46171b46171a46171946171846171746171646171546171446171346171246171146171046170f46170e46170d46170c46170b46170a461709461708461707461706461705461704461703461702461701821820821938d498081409e0ffffff00000000d89609821a4094a9948946075109bf008357203308205020ec01cf6eff46171f46171e46171d46171c46171b46171a46171946171846171746171646171546171446171346171246171146171046170f6446170e6546170d7446170c7546170b7046170a7346170969461708644617072046170679461705644617046146170365461702724617016c4607618218958760d88708821a08c88a09d8a90ada880a821810c88a0ad88a08821b18c8b808821b287bb77bb9087bba107bb8188210588215508216489511603200006f698218486f8a8218506f8c8218586f8b787b18787c10787a08787998b83878781f98b83078781e98b82878781d98b82078781c98b81878781b98b81078781a7b1b1898b80878781998c83878781798c83078781698c82878781598c82078781498c81878781398c8107878127b1c1098c80878781198a83878780f98a83078780e98a82878780d98a82078780c98a81878780b98a81078780a7b1a2098a8087878099898387878079898307878069898287878059898207878049898187878039898107878027b19289898087878013307203308205020f001436dff46171f0246171e46171d46171c46171b46171a46171946171846171746171646171546171446171346171246171146171046170f46170e46170d46170c46170b46170a461709461708461707461706461705461704461703461702461701460733084033075020f201d76cff8377831960013308400a08821760017b1758821768017b1750821770017b1748821778017b17408317e0000a048217e8008118f0008216e0006f779779206f88988820d498087b18389877206f68978820d487077b173033082033075020f401746cff8218306f888219386f99986a18787a0f986a10787a0e986a08787a0d78760c46170b46170a4617094617084617074617064617054617044617034617024617014607787918787810989a38787a1f989a30787a1e989a28787a1d989a20787a1c989a18787a1b989a10787a1a9899087879199889387879179889307879169889287879159889207879149889187879139889107879129888087878113307203308205020f601cb6bff82194098983878781f98983078781e98982878781d98982078781c98981878781b98981078781a98980878781978791882194898983878781798983078781698982878781598982078781498981878781398981078781298980878781178791082195098983878780f98983078780e98982878780d98982078780c98981878780b98981078780a989808787809787908821958989838787807989830787806989828787805989820787804989818787803989810787802989808787801787933084033075020f801006bff8377831960013308400a08821760018218680182197001821a78016f776f886f996faa95ab02d8ab0ac8a90cd89c06daaa06c88606d88608c887077b1c507b1c48017b1b587b1b40017b1650017b17487b17580149217801492170014921680149216001482120012083184001831a6001831b20013309ff33070a07017c1760015107e8027b1650018217507b1748018217587b1740018217487b17580149217801492170014921680149216001482120012083184001831a6001831b20013309ff33070a07017c17610152079f047b1650018217507b1748018217587b1740017b16408216487b16580149217801492170014921680149216001482120012083184001831a6001831b20013309ff33070a07821768018218700182196001821a78018499ff00ff869900017b165801821b407b1b5001821b507b1b4801821b587b1b40017b1a78017b1870017b1768017b19600183184001831a60013309ff330b2033070a0d831700010a04801710017b1750821708017b1748821700017b17583307403308205020fa017169ff7c78117c79107c7a127c7b13978808d4980897aa1097bb18d4ba0ad4a8087c79157c7a147c7b167c7c17979908d4a90997bb1097cc18d4cb0bd4b909979920d489027c79017c7a7c7b027c7c03979908d4a90997bb1097cc18d4cb0bd4b9097c7a057c7b047c7c067c760797aa08d4ba0a97cc10976618d46c0cd4ca0a97aa20d4a9097c7a197c7b187c7c1a7c761b97aa08d4ba0a97cc10976618d46c0cd4ca0a7c7b1d7c7c1c7c761e7c781f97bb08d4cb0b976610978818d46808d4b808978820d48a0a7c78097c7b087c7c0a7c760b978808d4b80897cc10976618d46c0cd4c8087c7b0d7c7c0c7c760e7c770f97bb08d4cb0b976610977718d46707d4b707977720d487076f786fa76f996f2ad4a909d4870ad49a0a98aa20d49808978820d4a808520808058216586f689788208219486f99989a20d4a8087b18489799208218506f88988820d498087b1850837733085020fc011768ff3a082000023a092800023a0a3000023a0b3800027b1878017b1970017b1a68017b1b60018218107b1890018218207b1888018218287b1880018218187b1898018218506f888219486f99976a207b1aa8014921a0017b19b0017b18b801837983176001330803330a0a05955120fe8210d8018215d0018216c8019511e00132003307403308205020fe018a67ff7c78117c79107c7a127c7b13978808d4980897aa1097bb18d4ba0ad4a8087c79157c7a147c7b167c7c17979908d4a90997bb1097cc18d4cb0bd4b909979920d489027c79017c7a7c7b027c7c03979908d4a90997bb1097cc18d4cb0bd4b9097c7a057c7b047c7c067c760797aa08d4ba0a97cc10976618d46c0cd4ca0a97aa20d4a9097c7a197c7b187c7c1a7c761b97aa08d4ba0a97cc10976618d46c0cd4ca0a7c7b1d7c7c1c7c761e7c781f97bb08d4cb0b976610978818d46808d4b808978820d48a0a7c78097c7b087c7c0a7c760b978808d4b80897cc10976618d46c0cd4c8087c7b0d7c7c0c7c760e7c770f97bb08d4cb0b976610977718d46707d4b707977720d487076f766fa86f996f277b17587b1950d497076489d46808d47808988820d46707977720d48707520719037b194883973308207b1740502000024866ff46171f46171e46171d46171c46171b46171a46171946171846171746171646171546171446171346171246171146171046170f46170e46170d46170c46170b46170a461709461708461707461706461705461704461703a00046170279461701c300460708821848958704d88708821a58c88a09d8a90ada880ac86a0ad86a08821b50c88b0b7b19687b17607b1a70951780009518607b1b78502002020ff3821788008212980082138000821a9000280702330740330820502004028965ff7c78117c79107c7a127c7b13978808d4980897aa1097bb18d4ba0ad4a8087c79157c7a147c7b167c7c17979908d4a90997bb1097cc18d4cb0bd4b909979920d489027c79017c7a7c7b027c7c03979908d4a90997bb1097cc18d4cb0bd4b9097c7a057c7b047c7c067c760797aa08d4ba0a97cc10976618d46c0cd4ca0a97aa20d4a9097c7a197c7b187c7c1a7c761b97aa08d4ba0a97cc10976618d46c0cd4ca0a7c7b1d7c7c1c7c761e7c781f97bb08d4cb0b976610978818d46808d4b808978820d48a0a7c78097c7b087c7c0a7c760b978808d4b80897cc10976618d46c0cd4c8087c7b0d7c7c0c7c760e7c770f97bb08d4cb0b976610977718d46707d4b707977720d487076f766fa86f996f277b17587b1950d497076489d46808d47808988820d46707977720d48707520718017b194883973308207b1740502006024764ff46171f46171e46171d46171c46171b46171a46171946171846171746171646171546171446171346171246171146171046170f46170e46170d46170c46170b46170a461709461708461707461706461705461704461703a00046170279461701c300460708821848958704d88708821a58c88a09d8a90ada880ac86a0ad86a08821b50c88b0b7b19a8007b17a0007b1ab0009517c0009518a0007b1bb800502008024af38217c8008212d8008213c000821ad00001821858d3870bd8870c6484821948d89308dab80cc96a0bd86a0a821650c96206c9a606d8cb0ac9a606c9cb0bc94707c98708c99307d46808d4b709d48909d4b808989920978820d49808510804008376821740646850200a023663ff8378330701646933000c020a0b01827810827918827a088277d4a909d4870ad49a0a98aa20d49808978820d4a808520890009511f07b10087b15837733082033052050200e02ed62ff46171f46171e46171d46171c46171b46171a46171946171846171746171646171546171446171346171246171146171046170f46170e46170d46170c46170b46170a461709461708724617076533086e7878064617057733096f787904787503330a74787a02787901787882100882159511103200009511a07b10587b15507b1648828a18828b10828c088286d4ac08d4b609d48909989920d4b808978820d498087b1728520808029567207b1730d86707c87c087b18407b1c08d8c805da7705c8b5057b1b10d8b5077b1a18c8a7077b17387b168367330820330620502010020962ff78761f8218306486d45808821940821b38d4b909d498089888207b1520d45909979920d4980846171e46171d46171c46171b46171a46171946171846171746171646171546171446171346171246171146171046170f46170e46170d46170c46170b46170a46170946170846170746170646170546170446170346170246170146075208470183653308206457502012027561ff46171f0946171e46171d46171c46171b46171a46171946171846171746171646171546171446171346171246171146171046170f46170e46170d46170c46170b46170a461709461708461707461706461705461704461703461702461701821820821938d498081409e0ffffff00000000d89609821a4094a9948946075109b80083572033082050201402e760ff46171f46171e46171d46171c46171b46171a46171946171846171746171646171546171446171346171246171146171046170f46170e46170d46170c46170b46170a46170946170872461707654617066e461705774617046f46170320461702744617016f46076e8218958760d88708821a08c88a09d8a90ada880a821810c88a0ad88a08821b18c8b808821b287bb77bb9087bba107bb8188210588215508216489511603200009511a07b10587b15507b1648828a18828b10828c088286d4ac08d4b609d48909989920d4b808978820d498087b1728520807029567207b1730d86707c87c087b18407b1c08d8c805da7705c8b5057b1b10d8b5077b1a18c8a7077b17387b16836733082033062050201602d15fff78761f8218306486d45808821940821b38d4b909d498089888207b1520d45909979920d4980846171e46171d46171c46171b46171a46171946171846171746171646171546171446171346171246171146171046170f46170e46170d46170c46170b46170a46170946170846170746170646170546170446170346170246170146075208460183653308206457502018023d5fff46171f0846171e46171d46171c46171b46171a46171946171846171746171646171546171446171346171246171146171046170f46170e46170d46170c46170b46170a461709461708461707461706461705461704461703461702461701821820821938d498081409e0ffffff00000000d89609821a4094a9948946075109b70083572033082050201a02af5eff46171f46171e46171d46171c46171b46171a46171946171846171746171646171546171446171346171246171146171046170f46170e46170d46170c46170b46170a46170946170846170765461706754617056c4617046146170376461702204617016f46076e8218958760d88708821a08c88a09d8a90ada880a821810c88a0ad88a08821b18c8b808821b287bb77bb9087bba107bb8188210588215508216489511603200008268206f888269286f99826a306faa826b386fbb787b18787a10787908787898bc38787c1f98bc30787c1e98bc28787c1d98bc20787c1c98bc18787c1b98bc10787c1a98bb08787b1998ab38787b1798ab30787b1698ab28787b1598ab20787b1498ab18787b1398ab10787b1298aa08787a11989a38787a0f989a30787a0e989a28787a0d989a20787a0c989a18787a0b989a10787a0a98990878790998893878790798893078790698892878790598892078790498891878790398891078790298880878780133072033082050201e02345dff46171f0146171e46171d46171c46171b46171a46171946171846171746171646171546171446171346171246171146171046170f46170e46170d46170c46170b46170a4617094617084617074617064617054617044617034617024617014607330840330750202002c85cff8377836960013308400a08826778018268700182696801826a60016f777b67206f877b67286f977b67386fa77b6730836700010a048267080182680001816910016f77987a206f88978b20d4ba0a7b6a189777206f99989920d497077b67109888207b68088267307b6758018267387b6750018267287b6748018267207b67400149267801492670014926680149266001482620012083684001836a6001836b20013309ff33070a0701806770018268600182696801826a08d3a707826a10d3a808d48707826818d39808d487075207f0019517e08477e07b67186471491718491710491708490783770a0e01826a1882a71082a81882a90882aad49808d4a707d487075107c6039517e08477e07b67106471491718491710491708490783770a0e8268108287187b67088287107b6782877b67188287087b6710826720957903d87907826828c8780ad88a08da7708826738c8870bd87b07826830c887077b67207b6758017b6b287b6b50017b6a307b6a48017b69387b69400149267801492670014926680149266001482620012083684001836a6001836b20013309ff33070a0701826b6801826960018262780182647001826c10c8bc0c826818c898087b6818d8980ac8ac0cd3bc037b6c10d8bc0b826cc84c0c826808c82808d84c09c8980864a9db3b09c89c07d8c709c8980c85a80185b901db3908d84709d32c0a7b6cd82c0bdaa90b7b6708d34707d4a70785b901db7908510804058267287b6750018267307b6748018267387b6740018267207b67580149267801492670014926680149266001482620012083684001836a6001836b20013309ff33070a078267207b6758018267287b6750018267307b6748018267387b67400182677b6778018267087b6770018267107b6768018267187b67600183684001836a60013309ff330b2033070a0d955160fe8210980182159001821688019511a001320033074033082050202202fd59ff7c78117c79107c7a127c7b13978808d4980897aa1097bb18d4ba0ad4a8087c79157c7a147c7b167c7c17979908d4a90997bb1097cc18d4cb0bd4b909979920d489027c79017c7a7c7b027c7c03979908d4a90997bb1097cc18d4cb0bd4b9097c7a057c7b047c7c067c780797aa08d4ba0a97cc10978818d4c808d4a808978820d498037c78197c7a187c7b1a7c7c1b978808d4a80897bb1097cc18d4cb0bd4b8087c7a1d7c7b1c7c7c1e7c791f97aa08d4ba0a97cc10979918d4c909d4a909979920d4890a7c78097c79087c7b0a7c7c0b978808d4980897bb1097cc18d4cb0bd4b8087c790d7c7b0c7c7c0e7c770f979908d4b90997cc10977718d4c707d49707977720d487076f7b6fa86f396f277b67387b6928d497076489d4b808d478089888207b6b30d4b707977720d48707520720037b692083973308207b671850202402b858ff46171f46171e46171d46171c46171b46171a46171946171846171746171646171546171446171346171246171146171046170f46170e46170d46170c46170b46170a461709461708461707461706461705461704461703a00046170279461701c300460708826820958704d88708826a38c88a09d8a90ada880a826830c88a0ad88a08826b28c88b0b7b69c8007b67c0007b6ad0009567e0009568c0007b6bd80050202602a0f58267e8008262f8008263e000826af00028030233074033082050202802f157ff7c78117c79107c7a127c7b13978808d4980897aa1097bb18d4ba0ad4a8087c79157c7a147c7b167c7c17979908d4a90997bb1097cc18d4cb0bd4b909979920d489027c79017c7a7c7b027c7c03979908d4a90997bb1097cc18d4cb0bd4b9097c7a057c7b047c7c067c780797aa08d4ba0a97cc10978818d4c808d4a808978820d498037c78197c7a187c7b1a7c7c1b978808d4a80897bb1097cc18d4cb0bd4b8087c7a1d7c7b1c7c7c1e7c791f97aa08d4ba0a97cc10979918d4c909d4a909979920d4890a7c78097c79087c7b0a7c7c0b978808d4980897bb1097cc18d4cb0bd4b8087c790d7c7b0c7c7c0e7c770f979908d4b90997cc10977718d4c707d49707977720d487076f7b6fa86f396f277b67387b6928d497076489d4b808d478089888207b6b30d4b707977720d48707520714017b692083973308207b671850202a02ac56ff46171f46171e46171d46171c46171b46171a46171946171846171746171646171546171446171346171246171146171046170f46170e46170d46170c46170b46170a461709461708461707461706461705461704461703a00046170279461701c300460708826820958704d88708826a38c88a09d8a90ada880a826830c88a0ad88a08826b28c88b0b7b69487b67407b6a509567609568407b6b5850202c02d2f5826768826278826360826a7001826838d3870bd8870c6480826420d84308dab80c826930c99a0bd89a0a826928c99209c9a909d8cb0ac9a909c9cb0bc90707c98708c94307d49808d4b709d48909d4b808989920978820d49808510861004926b0004926a8004926a000140700000000717b484e9568a0007b67b800330750202e023656ff492698004926900049268000113307049568800049268800502030021756ff3308243307502032025b55ff83783307013309240a0b0183787b6838826718502034024155ff8378330701826938330036020a0b01951180fe7b1078017b1570017b166801951580018411e0829a187b1a829a107b1a08829a087b1a1082997b19188289187b19208289107b19288289087b193082887b18388278187b18408278107b18488278087b185082777b17584921380149213001492128013306037b16200149215801492150014921480149214001482100012083182001831a4001831b00013309ff33070a0701821758018218480182194001821a5001d48707859801d4a808d487075207b601492138014921300149212801492120010349215801492150014921480149214001482100012083182001831a4001831b00013309ff33070a0749213801492130014921280149212001034921580149215001492148014921400183182001831a40013309ff330b2033070a0d82177b17788217087b17708217107b17688217187b17608217207b1798008217287b1790008217307b1788008217387b1780008217407b17b8008217487b17b0008217507b17a8009517a00095188000951960821a587b1aa000330038029511c0fc7b1038037b1530034921280303951540038411e0829a187b1a18829a107b1a20829a087b1a2882997b19308289107b1918018289087b19200182887b18280182787b1878018278087b1870018278107b186801827618330820330733004c02284753ff4921380149213001492128017b16200149215801492150014921480149214001482100012083182001831a4001831b00013309ff33070a074921380149213001492128017b162001492158014921500149214801492140010183182001831a40013309ff330b2033070a0d955180fe82107801821570018216680195118001320033074033082050203a02bc52ff7c78117c79107c7a127c7b13978808d4980897aa1097bb18d4ba0ad4a8087c79157c7a147c7b167c7c17979908d4a90997bb1097cc18d4cb0bd4b909979920d489027c79017c7a7c7b027c7c03979908d4a90997bb1097cc18d4cb0bd4b9097c7a057c7b047c7c067c760797aa08d4ba0a97cc10976618d46c0cd4ca0a97aa20d4a9097c7a197c7b187c7c1a7c761b97aa08d4ba0a97cc10976618d46c0cd4ca0a7c7b1d7c7c1c7c761e7c781f97bb08d4cb0b976610978818d46808d4b808978820d48a0a7c78097c7b087c7c0a7c760b978808d4b80897cc10976618d46c0cd4c8087c7b0d7c7c0c7c760e7c770f97bb08d4cb0b976610977718d46707d4b707977720d487076f766fa86f996f277b17587b1950d497076489d46808d47808988820d46707977720d48707520717017b194883973308207b174050203c027a51ff46171f46171e46171d46171c46171b46171a46171946171846171746171646171546171446171346171246171146171046170f46170e46170d46170c46170b46170a461709461708461707461706461705461704461703a00046170279461701c300460708821848958704d88708821a58c88a09d8a90ada880ac86a0ad86a08821b50c88b0b7b19c8007b17c0007b1ad0009517e0009518c0007b1bd80050203e02b4b88217e8008212f8008213e000821af000821858d3870bd8870c6484821948d89308dab80cc96a0bd86a0a821650c96206c9a606d8cb0ac9a606c9cb0bc94707c98708c99307d46808d4b709d48909d4b808989920978820d498085108040083768217406468502040026a50ff83783307016469330042020a0b01827810827918827a088277d4a909d4870ad49a0a98aa20d49808978820d4a808520898009511f07b10087b158377330820330520502044022150ff46171f46171e46171d46171c46171b46171a46171946171846171746171646171546171446171346171246171146171046170f6546170e7346170d6146170c6846170b6346170a72461709754617087078750746170664330969787905330a6c787a04461703614617027633086e787801787982100882159511103200009511a07b10587b15507b1648828a18828b10828c088286d4ac08d4b609d48909989920d4b808978820d498087b172852080f029567207b1730d86707c87c087b18407b1c08d8c805da7705c8b5057b1b10d8b5077b1a18c8a7077b17387b16836733082033062050204602354fff78761f8218306486d45808821940821b38d4b909d498089888207b1520d45909979920d4980846171e46171d46171c46171b46171a46171946171846171746171646171546171446171346171246171146171046170f46170e46170d46170c46170b46170a461709461708461707461706461705461704461703461702461701460752084e018365330820645750204802a14eff46171f1046171e46171d46171c46171b46171a46171946171846171746171646171546171446171346171246171146171046170f46170e46170d46170c46170b46170a461709461708461707461706461705461704461703461702461701821820821938d498081409e0ffffff00000000d89609821a4094a9948946075109bf0083572033082050204a02134eff46171f46171e46171d46171c46171b46171a46171946171846171746171646171546171446171346171246171146171046170f6546170e7346170d6146170c6846170b6346170a7246170975461708704617072046170664461705694617046c46170361461702764617016e4607698218958760d88708821a08c88a09d8a90ada880a821810c88a0ad88a08821b18c8b808821b287bb77bb9087bba107bb8188210588215508216489511603200006f68821968016f99821a70016fab821a78016faa787a18787b10787908787898ac387b1c1001787c1f98ac307b1c0801787c1e98ac287b1c0001787c1d98ac207b1cf800787c1c98ac187b1cf000787c1b98ac107b1ce800787c1a7b1a400198aa087b1ae000787a1998ba387b1ad800787a1798ba307b1ad000787a1698ba287b1ac800787a1598ba207b1ac000787a1498ba187b1ab800787a1398ba107b1ab000787a127b1b480198bb087b1ba800787b11989a387b1aa000787a0f989a307b1a9800787a0e989a287b1a9000787a0d989a207b1a8800787a0c989a187b1a8000787a0b989a107b1a78787a0a7b1950019899087b19707879099889387b19687879079889307b19607879069889287b19587879059889207b19507879049889187b19487879039889107b19407879027b1858019888087b183878780133072033082050204e02194cff46171f0146171e46171d46171c46171b46171a46171946171846171746171646171546171446171346171246171146171046170f46170e46170d46170c46170b46170a4617094617084617074617064617054617044617034617024617014607330840330750205002ad4bff83778319a0023308400a088217b8028218b0028219a802821aa0026f777b1778016f877b1770016f977b1768016fa77b176001831700020a048217080282180002811910026f77987a206f86976820d4a8087b1838019777206f98988820d487077b173001986620821760017b171803821768017b171003821770017b170803821778017b1700034921b8024921b0024921a8024921a002482120032083180003831aa002831b20033309ff33070a07018017b0028218a0028219a802d36707821a3001d3a808d4870782183801d39808d487075207f40a33082050205202cb4aff8218a00078780f8218980078780e8218900078780d8218880078780c8218800078780b82187878780a8218707878098218687878078218607878068218587878058218507878048218487878038218407878028218387878018218d8007878178218d0007878168218c8007878158218c0007878148218b8007878138218b0007878128218a8007878118218100178781f8218080178781e8218000178781d8218f80078781c8218f00078781b8218e80078781a8218e00078781982184801787810821850017878088218580178788218400178781833072033082050205402e849ff46171f0246171e46171d46171c46171b46171a46171946171846171746171646171546171446171346171246171146171046170f46170e46170d46170c46170b46170a46170946170846170746170646170546170446170346170246170146073308403307502056027c49ff83778319a0023308400a088217a0027b1738018217a8027b1730018217b0027b1710018216b802821718019777209877207b1718013308203307502058023b49ff821818016f89821820016f8a821828016f8b98b83878781f98b83078781e98b82878781d98b82078781c98b81878781b98b81078781a98b8087878197b1b0801787b1898a83878781798a83078781698a82878781598a82078781498a81878781398a81078781298a8087878117b1a1801787a1098983878780f98983078780e98982878780d98982078780c46170b46170a4617097b192001787908461707461706461705461704461703461702461701460733072033082050205a027b48ff98683878781f98683078781e98682878781d98682078781c98681878781b98681078781a986808787819787618821910019898387878179898307878169898287878159898207878149898187878139898107878129898087878117879108219300198983878780f98983078780e98982878780d98982078780c98981878780b98981078780a989808787809787908821938019898387878079898307878069898287878059898207878049898187878039898107878029898087878017879330840330750205c02b047ff83778319a0023308400a088217a0028218a8028219b002821ab8026f7b6f866f996fa87b1828019588018887017b193001c87909d49807887701c8760ad86a077b1b3801c8b7077b1900017b1908037b1810017b1800037b1af8007b1a10037b17f0007b1718034921b8024921b0024921a8024921a002482120032083180003831aa002831b20033309ff33070a07018217b0028218b8028219a802821aa002d49808d4a707d487075107150582172801957902d8790782183001c8780ad88a08da7708c86808d86807821b3801c8b7077b1938017b1900037b1a30017b1a080364867b1810037b1728017b1718034921b8024921b0024921a8024921a002482120032083180003831aa002831b20033309ff33070a07017c17a0025207a2047b16e8007b161003821730017b170803821738017b170003821628017b1618034921b8024921b0024921a8024921a002482120032083180003831aa002831b20033309ff33070a078217a0028218a8028219b002821ab802847700ff8677017b161803821be8007b1b1003821b30017b1b0803821b38017b1b00037b1ab8027b19b0027b18a8027b17a00283180003831aa0023309ff330b2033070a0d33074033082050205e02e645ff7c78117c79107c7a127c7b13978808d4980897aa1097bb18d4ba0ad4a8087c79157c7a147c7b167c7c17979908d4a90997bb1097cc18d4cb0bd4b909979920d489027c79017c7a7c7b027c7c03979908d4a90997bb1097cc18d4cb0bd4b9097c7a057c7b047c7c067c760797aa08d4ba0a97cc10976618d46c0cd4ca0a97aa20d4a9097c7a197c7b187c7c1a7c761b97aa08d4ba0a97cc10976618d46c0cd4ca0a7c7b1d7c7c1c7c761e7c781f97bb08d4cb0b976610978818d46808d4b808978820d48a0a7c78097c7b087c7c0a7c760b978808d4b80897cc10976618d46c0cd4c8087c7b0d7c7c0c7c760e7c770f97bb08d4cb0b976610977718d46707d4b707977720d487076f776fa66f986f29d49808d47609d48909989920d48707977720d49707520738078366330820646750206002b044ff8218186f888219206f99821a286faa821b306fbb98bc38787c1f98bc30787c1e98bc28787c1d98bc20787c1c98bc18787c1b98bc10787c1a98bc08787c19787b18787a1098ab38787b1798ab30787b1698ab28787b1598ab20787b1498ab18787b1398ab10787b1298aa08787a11787908989a38787a0f989a30787a0e989a28787a0d989a20787a0c989a18787a0b989a10787a0a9899087879097878988938787907988930787906988928787905988920787904988918787903988910787902988808787801330820646750206202dd43ff3a084000023a094800023a0a5000023a0b5800027b18b8027b19b0027b1aa8027b1ba002821840017b18d802821848017b18d002821850017b18c802821858017b18c002821808017b18f802821818017b18f002821820017b18e8024921e00283798317a002330803330a200a05821760017b171803821768017b171003821770017b170803821778017b1700034921b8024921b0024921a8024921a002482120032083180003831aa002831b20033309ff33070a078217a0027b1778018217b0027b1770018216a8028217f0007b1718038217f8007b171003821700017b170803821710017b1700034921b8024921b0024921a8024921a002482120032083180003831aa002831b20033309ff33070a078212a0028218a8028219b002821ab8026f6b97bc20821770016f76986620d46c0c98bb20821778016f77977620d46b0b9877207b1b28027b1c20027a1730027b1a58027b1950027b1848027b12400233073308502064027142ff7b17780133073308502066026242ff4821600249219802492190024921880249218002951820029788209886209518400297882098882095198002979920d4890a821b780197bb2098bb2097772098772095186002978820d4780c3308ff3309ff64670a01520783049551c0fc82103803821530038216280395114003320033074033082050206802e541ff7c78117c79107c7a127c7b13978808d4980897aa1097bb18d4ba0ad4a8087c79157c7a147c7b167c7c17979908d4a90997bb1097cc18d4cb0bd4b909979920d489027c79017c7a7c7b027c7c03979908d4a90997bb1097cc18d4cb0bd4b9097c7a057c7b047c7c067c760797aa08d4ba0a97cc10976618d46c0cd4ca0a97aa20d4a9097c7a197c7b187c7c1a7c761b97aa08d4ba0a97cc10976618d46c0cd4ca0a7c7b1d7c7c1c7c761e7c781f97bb08d4cb0b976610978818d46808d4b808978820d48a0a7c78097c7b087c7c0a7c760b978808d4b80897cc10976618d46c0cd4c8087c7b0d7c7c0c7c760e7c770f97bb08d4cb0b976610977718d46707d4b707977720d487076f766fa86f996f277b1778017b197001d497076489d46808d47808988820d46707977720d4870752072d037b19680183973308207b17600150206a029f40ff46171f46171e46171d46171c46171b46171a46171946171846171746171646171546171446171346171246171146171046170f46170e46170d46170c46170b46170a461709461708461707461706461705461704461703a00046170279461701c30046070882186801958704d88708821a7801c88a09d8a90ada880ac86a0ad86a08821b7001c88b0b7b1988017b1780017b1a90019517a001951880017b1b980150206c025bf08217a8018212b8018213a001821ab001280e0233074033082050206e02d83fff7c78117c79107c7a127c7b13978808d4980897aa1097bb18d4ba0ad4a8087c79157c7a147c7b167c7c17979908d4a90997bb1097cc18d4cb0bd4b909979920d489027c79017c7a7c7b027c7c03979908d4a90997bb1097cc18d4cb0bd4b9097c7a057c7b047c7c067c760797aa08d4ba0a97cc10976618d46c0cd4ca0a97aa20d4a9097c7a197c7b187c7c1a7c761b97aa08d4ba0a97cc10976618d46c0cd4ca0a7c7b1d7c7c1c7c761e7c781f97bb08d4cb0b976610978818d46808d4b808978820d48a0a7c78097c7b087c7c0a7c760b978808d4b80897cc10976618d46c0cd4c8087c7b0d7c7c0c7c760e7c770f97bb08d4cb0b976610977718d46707d4b707977720d487076f766fa86f996f277b1778017b197001d497076489d46808d47808988820d46707977720d48707520720017b19680183973308207b17600150207002923eff46171f46171e46171d46171c46171b46171a46171946171846171746171646171546171446171346171246171146171046170f46170e46170d46170c46170b46170a461709461708461707461706461705461704461703a00046170279461701c30046070882186801958704d88708821a7801c88a09d8a90ada880ac86a0ad86a08821b7001c88b0b7b19c8017b17c0017b1ad0019517e0019518c0017b1bd801502072027adb8217e8018212f8018213e001821af0010182187801d3870bd8870c648482196801d89308dab80cc96a0bd86a0a82167001c96206c9a606d8cb0ac9a606c9cb0bc94707c98708c99307d46808d4b709d48909d4b808989920978820d4980851080a0050207402cfb3837682176001646850207602743dff83783307016469330078020a0b01951170ff7b1088007b1580007b1678951590008411f0827a7b1a088273088274108270188282828b08828c10828a1882968298088297108299187b19287b17207b18187b16107b1a487b1c407b1b387b12307b10687b14607b1358951750951830951910821a087b1a5050207a02cae7955170ff82108800821580008216789511900032009511a07b10587b15507b1648828a18828b10828c088286d4ac08d4b609d48909989920d4b808978820d498087b1728520808029567207b1730d86707c87c087b18407b1c08d8c805da7705c8b5057b1b10d8b5077b1a18c8a7077b17387b16836733082033062050207c02733cff78761f8218306486d45808821940821b38d4b909d498089888207b1520d45909979920d4980846171e46171d46171c46171b46171a46171946171846171746171646171546171446171346171246171146171046170f46170e46170d46170c46170b46170a4617094617084617074617064617054617044617034617024617014607520847018365330820645750207e02df3bff46171f0946171e46171d46171c46171b46171a46171946171846171746171646171546171446171346171246171146171046170f46170e46170d46170c46170b46170a461709461708461707461706461705461704461703461702461701821820821938d498081409e0ffffff00000000d89609821a4094a9948946075109b80083572033082050208002513bff46171f46171e46171d46171c46171b46171a46171946171846171746171646171546171446171346171246171146171046170f46170e46170d46170c46170b46170a46170946170830461707204617063d46170520461704654617036346170269461701724607708218958760d88708821a08c88a09d8a90ada880a821810c88a0ad88a08821b18c8b808821b287bb77bb9087bba107bb8188210588215508216489511603200009511a07b10587b15507b1648828a18828b10828c088286d4ac08d4b609d48909989920d4b808978820d498087b172852080c029567207b1730d86707c87c087b18407b1c08d8c805da7705c8b5057b1b10d8b5077b1a18c8a7077b17387b168367330820330620502082023b3aff78761f8218306486d45808821940821b38d4b909d498089888207b1520d45909979920d4980846171e46171d46171c46171b46171a46171946171846171746171646171546171446171346171246171146171046170f46170e46170d46170c46170b46170a461709461708461707461706461705461704461703461702461701460752084b018365330820645750208402a739ff46171f0d46171e46171d46171c46171b46171a46171946171846171746171646171546171446171346171246171146171046170f46170e46170d46170c46170b46170a461709461708461707461706461705461704461703461702461701821820821938d498081409e0ffffff00000000d89609821a4094a9948946075109bc00835720330820502086021939ff46171f46171e46171d46171c46171b46171a46171946171846171746171646171546171446171346171246171146171046170f46170e46170d46170c7946170b7446170a704617096d46170865461707204617067946170561461704774617036546170274461701614607678218958760d88708821a08c88a09d8a90ada880a821810c88a0ad88a08821b18c8b808821b287bb77bb9087bba107bb8188210588215508216489511603200009511a07b10587b15507b1648828a18828b10828c088286d4ac08d4b609d48909989920d4b808978820d498087b172852080c029567207b1730d86707c87c087b18407b1c08d8c805da7705c8b5057b1b10d8b5077b1a18c8a7077b17387b16836733082033062050208802ff37ff78761f8218306486d45808821940821b38d4b909d498089888207b1520d45909979920d4980846171e46171d46171c46171b46171a46171946171846171746171646171546171446171346171246171146171046170f46170e46170d46170c46170b46170a461709461708461707461706461705461704461703461702461701460752084b018365330820645750208a026b37ff46171f0d46171e46171d46171c46171b46171a46171946171846171746171646171546171446171346171246171146171046170f46170e46170d46170c46170b46170a461709461708461707461706461705461704461703461702461701821820821938d498081409e0ffffff00000000d89609821a4094a9948946075109bc0083572033082050208c02dd36ff46171f46171e46171d46171c46171b46171a46171946171846171746171646171546171446171346171246171146171046170f46170e46170d46170c6546170b6346170a694617097246170870461707204617063c46170520461704654617036b46170261461701744607738218958760d88708821a08c88a09d8a90ada880a821810c88a0ad88a08821b18c8b808821b287bb77bb9087bba107bb8188210588215508216489511603200009511e0fe7b1018017b1510017b160801951520018411f0829b18829c108296087b1b507b1c48d4cb0b886c0194bc7b17510c770382a7187b171882a7107b172082a7087b170882a77b171082998287187b17708287107b17788287087b176882877b176095971f7b1940d89708c868088488018477e0957920d87907c8780ad88a0bda770b4921d8007b19c0007b1ac8009517e0009518c0007b1bd00050208e02643fff8217f8008219f0008218e800821ae0007b17587b1830d48707d49a08d478089888207b1938d49707977720d487075207d4027b1a2883a7330820502090024c35ff821440821860c84808d8480a821968c86909c8a90bd36b0cd86b09daca09821c08d3cb0ad8bc0b821c10d88c08821048821c78c80c0cdbab08d80c0a821350821b70c83b0bc8ba0ac8c909d8c90bc8ba0a821c18d3ca0bd8ac0a821220d8920cdabc0ad32909d4b909db9a086f49989a38787a1f989a30787a1e989a28787a1d989a20787a1c989a18787a1b989a10787a1a989a08787a196f6a78791898a93878791798a93078791698a92878791598a92078791498a91878791398a9107879126f09787a1098aa08787a11989a38787a0f989a30787a0e989a28787a0d989a20787a0c989a18787a0b989a10787a0a6f3a78790898990878790998a93878790798a93078790698a92878790598a92078790498a91878790398a910787902787a98aa08787a018212605208f501821978d49207821870821a68d4a808d48707987720d49808978820d48707821a5852077201d40407d43608d48707987720d40808978820d48707821938821b30821c28520750017b1678d4a9071408e0ffffff00000000d88c0894b894785108350195c620d8c607c87b087b1820d8b808da7708c898087b1868d898077b177083227b1260836783487b1818502092028b33ff83778218188219600a0101821740c86707d86708821978821b20c8b909c88909d3b90ad8b90bdaa80b821848821a68c8a808c88b0bd88b02d8a808821c50821658c86c0c821a70c8ac0cc8c808c82808d4b70ad49808d48a0a98aa20d4b808978820d4a80852089b008377330820502094021633ff46171f46171e46171d46171c46171b46171a46171946171846171746171646171546171446171346171246171146171046170f46170e46170d46170c46170b46170a461709461708461707461706461705461704461703461702461701460782178218287b787b76188218307b78088218387b78109551e0fe821018018215100182160801951120013200004921b0004921a8004921a000140700000000717b484e9518a0007b17b8003307502096021333ff49219800492190004921800041330704951880004921880050209802f432ff330824330750209a023832ff83783307013309240a0b013307330850209c022232ff8378330701330933009e020a0b01951160ff7b1098007b1590007b1688009515a0008411f08282828308828410828018829b829a08829c108299183808a8000264764911184911104911087b187b19387b1c307b1a287b1b207b10587b14507b1348951760951840951920641a7b12405020a00281fb821770821878821960821a687b67107b68187b697b6a08955160ff8210980082159000821688009511a0003200951120ff7b10d8007b15d0007b16c8009515e0008411e0828218828c10828b828608d42c0888ba20946a948a520a49038298187b18508298107b18408298087b185882987b18208278187b188278107b18088278087b181082777b171833082033077b12287b1c487b16387b1b305020a2020a31ff82186f888219086f99821a106faa821b186fbb98bc38787c1f98bc30787c1e98bc28787c1d98bc20787c1c98bc18787c1b98bc10787c1a98bc08787c19787b18787a1098ab38787b1798ab30787b1698ab28787b1598ab20787b1498ab18787b1398ab10787b1298aa08787a11787908989a38787a0f989a30787a0e989a28787a0d989a20787a0c989a18787a0b989a10787a0a989908787909787898893878790798893078790698892878790598892078790498891878790398891078790298880878780133082033075020a4023830ff83778319a0003308200a080182192095981fd898076493821b58c87b0ad8ba0964b2da7709821640c869097b191897993b98ab05d4b90997aa3b988805d4a80c8838209428821ab8008213b000821750d4760b94b86fab6f369489948cc8bc0c7b1c58d8bc0cc8c60ac89a02d3620ad86200daac0082173095741fd87407821938c8790ad89a0cda770c821748c87c0c97c73b98a905d4970797aa3b984905d4a909c89b04d8b409c8960ac87a03d36307d8630ada790a821b18821740d87b07821950c8970798b905977b3bd4b909987705821ba8008216a000948994876fb86f6b7b1b50c8b707c88909d88906c86707c8090bd89b06c87606821748d87c07821928c8970798cc0597793bd4c909821c58987705c88909c8a900d88908d89009821a50c8a707c88707c8970ad33207d83208d84c09db7809d80b07d3a6087b1a40d8a60ada870ad30b07d48707db7a095109dd0064b77b14387b13307b1028017b17487b12507b1c587b1790007b1288007b1c80007b1698004921b8004921b0004921a8004921a0004811602083188000831aa000831b603309ff33070a077b1698008217487b1790008217507b1788008217587b1780004921b8004921b0004921a8004921a00083188000831aa0003309ff330b2033070a0d01821028821330821438821250821c5895cc0188c701c87202d42c07887701821848c88707d88708c88606d84c08d33209d8320ada980ad80708821b40d3b609d8b60bda980bd30708d49808da8a0b520b37ff955120ff8210d8008215d0008216c8009511e0003200951140fd7b10b8027b15b0027b16a8029515c0028411e0828a10828918828b08828c7b1998007b1b8800d49b08d4ac09d489099899207b1a9000d4a808978820d4980852089d108278187b18408278107b18588278087b184882777b17507b1c800083c73308207b17185020a602832dff7c78097c79087c7a0a7c7b0b978808d4980897aa1097bb18d4ba0ad4a8087c790d7c7a0c7c7b0e7c7c0f979908d4a90997bb1097cc18d4cb0bd4b909979920d489027c78017c797c7a027c7b03978808d4980897aa1097bb18d4ba0ad4a8087c79057c7a047c7b067c7c07979908d4a90997bb1097cc18d4cb0bd4b909979920d489067c78117c79107c7a127c7b13978808d4980897aa1097bb18d4ba0ad4a8087c79157c7a147c7b167c7c17979908d4a90997bb1097cc18d4cb0bd4b909979920d498087b18606f887b16686f6a7b12706f297b19307b1a28d4a9097b18388888017b19d80094985108870f7c78187b18b8007c78197b18787c781a7b18a8007c781b7b18a0007c781c7b18d0007c781d7b18b0007c781e7b18c8007c771f7b17c00048214002208217587b1770028217487b1768028217507b1760028216407b1678024921980249219002492188024921800283186002831a8002831b40023309ff33070a0701821790028218880282198002821a9802977b3f988c01d4cb0b97ac3f9877016464d4c70697883f989c01d4c80898ac018499019a97889201848a7fd26703d27b0bdb980ad2c70888a72094b7d483099497ab72fd0e8217789777088219b800d497078219a800979910821ca00097cc18d4c909d497078219b000979908821cd000d4c909821cc80097cc108216c000976618d46c0cd4c909979920d497077b17d0006f777b17207b17e0017b1a00028217507b1720028217387b17e8017b1b08028217487b1728028217307b17f0017b1310028217587b1730028216287b16f8017b18180295172002951800029519e0017b1438025020a802a6f9821a208219388e9788a820858801db97088217308e778e69da67098217d800da7809821b40821c588216505109d80484aae07b1a1833082033075020aa02de2aff8218406f888219586f99821a486faa6f6b98bc38787c1f98bc30787c1e98bc28787c1d98bc20787c1c98bc18787c1b98bc10787c1a98bc08787c19787b18787a1098ab38787b1798ab30787b1698ab28787b1598ab20787b1498ab18787b1398ab10787b1298aa08787a11787908989a38787a0f989a30787a0e989a28787a0d989a20787a0c989a18787a0b989a10787a0a989908787909787898893878790798893078790698892878790598892078790498891878790398891078790298880878780133082033075020ac020e2aff8377831980023308200a0801821780028218880282199002821a98026f777b17d0006f826f977b17d8006fa77b17c0008217185107d1074921b0004921b8004921a80082108000950620d8060782148800c87409d8490ada770a82139000c83a0ad83a077b12c80082129800c872028eab8e2cda2b0c140b00000000010000006468e4b607dacb06da9b08db9807d42a08db8607649b93cbda890b64a89328da2a088549ffc89b0b850affc8a707d8a70ac8ab0bd39b0cd89b09daca09853cff7b1c78c88c0cc89c0697683b98b905d4980897bb3b987705d4b7097b19a000821b1888b7019a7a97703b95bbff98bb05c90b07d3a804d8a80bd87903db4b0382199800859bffc8b202821978d89c0bc82b0bd8c60cc8cb0b98660597bc3bd46c0c98bb0598a605c90602d82c09d36b04d86b00da4900d32c09d44909da93008219a000da0709da0a08da060bda020c98c73b97bb05d47b02821bb00098873b97cc05d47c04821cb800989a3b978805d4a807979305953a407b1a78d83a0a8216a800c8a7087b1870d87808daaa08c848087b1868d84808c828087b1860330920821ac800017b16a8007b1ac80082178000c897077b19a000d8970882198800c8b909c88909d3b90a7b1bb000d8b90bdaa80b82189000c8c8087b1cb800d8c80a821c9800c86c0cc8ca0ac88b0bd88b08c8a808d49808d4b709d48909d4b808989920978820d498085208f20a83773308205020ae02f627ff7c78017c797c7a027c7b03978808d4980897aa1097bb18d4ba0ad4a8087c79057c7a047c7b067c7c07979908d4a90997bb1097cc18d4cb0bd4b909979920d489027c79097c7a087c7b0a7c7c0b979908d4a90997bb1097cc18d4cb0bd4b9097c7a0d7c7b0c7c7c0e7c760f97aa08d4ba0a97cc10976618d46c0cd4ca0a97aa20d4a9097c7a117c7b107c7c127c761397aa08d4ba0a97cc10976618d46c0cd4ca0a7c7b157c7c147c76167c781797bb08d4cb0b976610978818d46808d4b808978820d48a0a7c78197c7b187c7c1a7c761b978808d4b80897cc10976618d46c0cd4c8087c7b1d7c7c1c7c761e7c771f97bb08d4cb0b976610977718d46707d4b707977720d487076f776fa86f996f2a821bd0007b1b7802821bc8007b1b7002821bd8007b1b68028216c0007b1660027b1a98027b1990027b1888027b17800283186002831a80023309ff330b2033070a0d019566018867018218d800c878087b16c0007b18d800d486078877018218c800c87802d882098217a000957820d87807821ab000c87a04d8a40ada770a821bb800c8ab07d8b70a8216a800c8a606821a68d37a0a821b78d38b0bd4ba0a821b60d36b0b821c70d3c40cd4cb0bd4ba03821ad000c89a0a7b1ad0006489644b647c642a5203bafd281d04821768821860d487078218708219d000d49808d4870751079d088217980082189000d487071408e0ffffff0000000082198000d8890882198800949894785108ca088217188377203308205020b002ca25ff7c78197c79187c7a1a7c7b1b978808d4980897aa1097bb18d4ba0ad4a8087c791d7c7a1c7c7b1e7c7c1f979908d4a90997bb1097cc18d4cb0bd4b909979920d489027c78117c79107c7a127c7b13978808d4980897aa1097bb18d4ba0ad4a8087c79157c7a147c7b167c7c17979908d4a90997bb1097cc18d4cb0bd4b909979920d498087b18d8007c78097c7a087c7b0a7c7c0b978808d4a80897bb1097cc18d4cb0bd4b8087c7a0d7c7b0c7c7c0e7c760f97aa08d4ba0a97cc10976618d46c0cd4ca0a97aa20d4a8087b18d0007c78017c7b7c7c027c7603978808d4b80897cc10976618d46c0cd4c8087c7b057c7c047c76067c770797bb08d4cb0b976610977718d46707d4b707977720d487004621df014621de014621dd014621dc014621db014621da014621d9014621d8014621d7014621d6014621d5014621d4014621d3014621d2014621d1014621d0014621cf014621ce014621cd014621cc014621cb014621ca014621c9014621c8014621c7014621c6014621c5014621c4014621c3014621c2014621c1014621c0014621bf01ff004621be01ff004621bd01ff004621bb01ff004621b801ff4621b701ff004621b601ff004621b501ff004621b301ff004621b001ff4621af01ff004621ae01ff004621ad01ff004621ab01ff004621a801ff4621a701ff004621a601ff004621a501ff004621a301ff004621a001ff1408ffffffff000000007818bc01140cffffffffffff0000781cba01140bffffffffffffff00781bb9017818b401781cb201781bb1017818ac01781caa01781ba9017818a401781ca201781ba101821420844b1f9518a001c88b0b7cb8197cbc187cb61a7cb91b978808d4c808976610979918d46909d498087cb91d7cbc1c7cb61e7cba1f979908d4c90997661097aa18d46a0ad4a909979920d489037cb8117cb9107cba127cb613978808d4980897aa10976618d46a0ad4a8087cb9157cba147cb6167cb717979908d4a909976610977718d46707d49707977720d487067cb7097cb8087cb90a7cba0b977708d4870797991097aa18d4a909d4790c7cb80d7cb90c7cba0e7cb70f978808d4980897aa10977718d4a707d48707977720d4c7087cb7017cb97cba027cbc03977708d4970797aa1097cc18d4ca0ad4a7077cb9057cba047cbc067cbb07979908d4a90997cc1097bb18d4cb0bd4b909979920d497076f29e079028217d8006f77e087096f078218d0006f88e06808e03707984b3f821a3897ac01d4cb0b98ac3f821a3097a601d46c0c98a63f821a2897aa01d46a0ad4a703d4c808d4b909974a01d4a20a821b40821c5882165028ad043304330633082001821c20821918d3c909821a30d4a909821a38821b28d4ba0ad4a909510926047b12c80082198000c88909d8890a821b8800c84b0bc8ab0bd34b0cd84b08daca08821a9000c87a0ac8a808d8a80cd87a07821a9800c86a0ac8a707c8c707d4890ad4b707d47a0a98aa20d48707977720d4a70752077c0483973308205020b2028021ff7c78197c79187c7a1a7c7b1b978808d4980897aa1097bb18d4ba0ad4a8087c791d7c7a1c7c7b1e7c7c1f979908d4a90997bb1097cc18d4cb0bd4b909979920d498087b18b8007c78117c79107c7a127c7b13978808d4980897aa1097bb18d4ba0ad4a8087c79157c7a147c7b167c7c17979908d4a90997bb1097cc18d4cb0bd4b909979920d489037c78097c7a087c7b0a7c7c0b978808d4a80897bb1097cc18d4cb0bd4b8087c7a0d7c7b0c7c7c0e7c760f97aa08d4ba0a97cc10976618d46c0cd4ca0a97aa20d48a047c78017c7b7c7c027c7603978808d4b80897cc10976618d46c0cd4c8087c7b057c7c047c76067c770797bb08d4cb0b976610977718d46707d4b707977720d4870046219f0146219e0146219d0146219c0146219b0146219a014621990146219801462197014621960146219501462194014621930146219201462191014621900146218f0146218e0146218d0146218c0146218b0146218a014621890146218801462187014621860146218501462184014621830146218201462181014621800146217f01ff0046217e01ff0046217d01ff0046217b01ff0046217801ff46217701ff0046217601ff0046217501ff0046217301ff0046217001ff46216f01ff0046216e01ff0046216d01ff0046216b01ff0046216801ff46216701ff0046216601ff0046216501ff0046216301ff0046216001ff1408ffffffff0000000078187c01140cffffffffffff0000781c7a01140bffffffffffffff00781b790178187401781c7201781b710178186c01781c6a01781b690178186401781c6201781b6101821b2084bb1f95186001c88b0b7cb8197cbc187cb61a7cb91b978808d4c808976610979918d46909d498087cb91d7cbc1c7cb61e7cba1f979908d4c90997661097aa18d46a0ad4a909979920d489027cb8117cb9107cba127cb613978808d4980897aa10976618d46a0ad4a8087cb9157cba147cb6167cb717979908d4a909976610977718d46707d49707977720d487067cb7097cb8087cb90a7cba0b977708d4870797991097aa18d4a909d4790c7cb80d7cb90c7cba0e7cb70f978808d4980897aa10977718d4a707d48707977720d4c7087cb7017cb97cba027cbc03977708d4970797aa1097cc18d4ca0ad4a7077cb9057cba047cbc067cbb07979908d4a90997cc1097bb18d4cb0bd4b909979920d497078219b8006f99e079076f39e089086f49e069096f0ae02a0a821bd0007b1b7802821bc8007b1b7002821bd8007b1b6802821bc0007b1b60027b1a98027b1990027b1888027b17800283186002831a80023309ff330b2033070a0d821c200182193098973f821828978801d48707821a3898a83f979901d4980898c93f97aa01d4a90997ca0195aa01821b487b1b6802821b507b1b6002821b587b1b7002821b407b1b78027b1a80027b1988027b1890027b179802282f330a330933083303018217487b1768027b1660027b1c70027b1b78027b1a80027b1988027b1890027b1398020183186002831a80023309ff330b2033070a0d955140fd8210b8028215b0028216a8029511c002320000492110014921080149210001140700000000717b484e951800017b17180133075020b4029c1dff4921f8004921f0004921e000413307049518e0004921e8003300b80228791dff492150014921480149214001140700000000717b484e951840017b17580133075020b602551dff4921380149213001492120012233070495182001492128015020b802361dff33082433075020ba027a1cff83783307013309243300bc020a0b019511b07b10487b15409515508411f08272827308827b10827718828c828908828a108288187b18187b1a107b19087b1c7b17387b1b307b132895172064187b12205020be0236ee9551b082104882154095115032009511a0fe7b1058017b1550017b164801951560018411e0828b10828c18828908828a7b19707b1c58d4c9087b1a8000d4ba09d489099899207b1b60d4b808978820d49808520884098278187b18788278107b1898008278087b18900082777b178800811780003308207b17685020c002a31bff7c78117c79107c7a127c7b13978808d4980897aa1097bb18d4ba0ad4a8087c79157c7a147c7b167c7c17979908d4a90997bb1097cc18d4cb0bd4b909979920d498087c79197c7a187c7b1a7c7c1b979908d4a90997bb1097cc18d4cb0bd4b9097c7a1d7c7b1c7c7c1e7c761f97aa08d4ba0a97cc10976618d46c0cd4ca0a97aa20d4a9097c7a0d7c7b0c7c7c0e7c770f97aa08d4ba0a97cc10977718d4c707d4a7076f997b19506f887b18486f769866207b16408216787b161801821798007b171001821790007b170801821788007b170001492138014921300149212801492120014821e0002083180001831a2001831be0003309ff33070a078017340197772082183801821940d497077b161801821998007b191001821990007b190801821988007b1900017b1838017b1730018217487b1728018217507b17200183180001831a20013309ff330b2033070a0d01821760821958d47909140700000000010000007b17401407e0ffffff0000000082188000d8780782187094877b196094975107d307821788009579017b194888970182189000c887077b1758d4970788770182189800c887077b1750d88707821878c887077b17388217688377203308205020c202da19ff7c78017c797c7a027c7b03978808d4980897aa1097bb18d4ba0ad4a8087c79057c7a047c7b067c7c07979908d4a90997bb1097cc18d4cb0bd4b909979920d489027c79097c7a087c7b0a7c7c0b979908d4a90997bb1097cc18d4cb0bd4b9097c7a0d7c7b0c7c7c0e7c760f97aa08d4ba0a97cc10976618d46c0cd4ca0a97aa20d4a9097c7a117c7b107c7c127c761397aa08d4ba0a97cc10976618d46c0cd4ca0a7c7b157c7c147c76167c781797bb08d4cb0b976610978818d46808d4b808978820d48a0a7c78197c7b187c7c1a7c761b978808d4b80897cc10976618d46c0cd4c8087c7b1d7c7c1c7c761e7c771f97bb08d4cb0b976610977718d46707d4b707977720d487074821e000206f777b17306fa77b17286f977b17206f277b17188217507b1710018217587b1708018217487b1700018216387b1618014921380149213001492128014921200183180001831a2001831be0003309ff33070a077b1618018217507b1710018217587b1708018217487b1700018217187b1738018217207b1730018217287b1728018217307b17200183180001831a20013309ff330b2033070a0d018217409577c082188000d87807821870948782186094875107ce05821788009578027b1858d8780782189000c878097b1950d88906da770682179800c876067b1640d87607821878c887077b17488217688377403308205020c402d517ff7c78017c797c7a027c7b03978808d4980897aa1097bb18d4ba0ad4a8087c79057c7a047c7b067c7c07979908d4a90997bb1097cc18d4cb0bd4b909979920d489027c79097c7a087c7b0a7c7c0b979908d4a90997bb1097cc18d4cb0bd4b9097c7a0d7c7b0c7c7c0e7c780f97aa08d4ba0a97cc10978818d4c808d4a808978820d489097c78117c7a107c7b127c7c13978808d4a80897bb1097cc18d4cb0bd4b8087c7a157c7b147c7c167c761797aa08d4ba0a97cc10976618d46c0cd4ca0a97aa20d48a0a7c78197c7b187c7c1a7c761b978808d4b80897cc10976618d46c0cd4c8087c7b1d7c7c1c7c761e7c771f97bb08d4cb0b976610977718d46707d4b707977720d487076f7b6fa76f986f29821a507b1ac800821a587b1ac000821a407b1ad000821a487b1ad8007b19b8007b18b0007b17a8009517c0009518a0007b1ba0005020c6029ee8140700000000010000007b17401407a0ffffff0000000082188000d878078218709487821860948751071604821788009578037b1848d8780782189000c878097b1958d88908da770882179800c878087b1850d87807821878c887077b17388217688377603308205020c8021d16ff7c78017c797c7a027c7b03978808d4980897aa1097bb18d4ba0ad4a8087c79057c7a047c7b067c7c07979908d4a90997bb1097cc18d4cb0bd4b909979920d489027c79097c7a087c7b0a7c7c0b979908d4a90997bb1097cc18d4cb0bd4b9097c7a0d7c7b0c7c7c0e7c760f97aa08d4ba0a97cc10976618d46c0cd4ca0a97aa20d4a9097c7a117c7b107c7c127c761397aa08d4ba0a97cc10976618d46c0cd4ca0a7c7b157c7c147c76167c781797bb08d4cb0b976610978818d46808d4b808978820d48a0a7c78197c7b187c7c1a7c761b978808d4b80897cc10976618d46c0cd4c8087c7b1d7c7c1c7c761e7c771f97bb08d4cb0b976610977718d46707d4b707977720d487074821e000206f777b17306fa77b17286f977b17206f277b17188217507b1710018217587b1708018217487b1700018216387b1618014921380149213001492128014921200183180001831a2001831be0003309ff33070a077b1618018217507b1710018217587b1708018217487b1700018217187b1738018217207b1730018217287b1728018217307b17200183180001831a20013309ff330b2033070a0d0182174095778082188000d878078218709487821860948751071102821788009578047b188000d8780782189000c878097b198800d88908da770882179800c878087b189000d87807821878c887077b179800821768837780003308205020ca021314ff7c78117c79107c7a127c7b13978808d4980897aa1097bb18d4ba0ad48a027c78017c797c7a027c7b03978808d4980897aa1097bb18d4ab09d489037c78157c7a147c7b167c7c17978808d4a80897bb1097cc18d4bc0ad48a047c78057c7b047c7c067c7607978808d4b80897cc10976618d4c60bd48b007c78197c7c187c761a7c791b978808d4c808976610979918d46909d4890c7c78097c79087c760a7c7a0b978808d4980897661097aa18d46a0ad4a8087c791d7c7a1c7c761e7c7b1f979908d4a90997661097bb18d46b0bd4b9097c7a0d7c7b0c7c760e7c770f97aa08d4ba0a976610977718d46707d4a707d49707d4c808977720d48707d44008d42309978820d49808d487074821e000208e777b1778821790007b171001821788007b170801821780007b170001821698007b1618014921380149213001492128014921200183180001831a2001831be0003309ff33070a07821720018218280182193001821a3801847700ff821b78d4b7077b161801821b90007b1b1001821b88007b1b0801821b80007b1b00017b1a38017b1930017b1828017b17200183180001831a20013309ff330b2033070a0d9551a0fe82105801821550018216480195116001320000951148ff7b10b0007b15a8007b16a00082831882851082860882827b1688007b139800d43608d45206d486069866207b159000d45808978820d468087b175208b00582c7187b176882c7107b176082c7087b175882c77b17800082b7187b171082b7107b171882b7087b170882b77b172082a7187b172882a7107b173082a7087b173882a77b17408297187b17488296108297087b175082977b177083273308207b177864255020cc02a011ff8218486f886f69821a506faa821b706fbb98bc38787c1f98bc30787c1e98bc28787c1d98bc20787c1c98bc18787c1b98bc10787c1a98bc08787c19787b18787a1098ab38787b1798ab30787b1698ab28787b1598ab20787b1498ab18787b1398ab10787b1298aa08787a11787908989a38787a0f989a30787a0e989a28787a0d989a20787a0c989a18787a0b989a10787a0a989908787909787898893878790798893078790698892878790598892078790498891878790398891078790298880882199800821a9000d49a0a140600000000010000001409e0ffffff000000007b1570d8950964a5821a880094a9945978780151094e048217788377203308205020ce029910ff8218286f888219306f99821a386faa821b406fbb98bc38787c1f98bc30787c1e98bc28787c1d98bc20787c1c98bc18787c1b98bc10787c1a98bc08787c19787b18787a1098ab38787b1798ab30787b1698ab28787b1598ab20787b1498ab18787b1398ab10787b1298aa08787a11787908989a38787a0f989a30787a0e989a28787a0d989a20787a0c989a18787a0b989a10787a0a98990878790978789889387879079889307879069889287879059889207879049889187879039889107879029888089569c0821b70d89b09821a880094a994597878015109620395b560d8b507c87a097b1950d8a906da770682179000c87606d8760782189800c887077b17488217788377403308205020d002870fff46171f60d46508821950821b48d4b909d498089888207b1678d46909979920d4980846171e46171d46171c46171b46171a46171946171846171746171646171546171446171346171246171146171046170f46170e46170d46170c46170b46170a46170946170846170746170646170546170446170346170246170146075208aa027b154083573308205020d202f60eff821380006f3898893878791f98893078791e98892878791d98892078791c98891878791b98891078791a9889087879198212586f297878189898387878179898307878169898287878159898207878149898187878139898107878128215606f5a78791098990878791198a83878780f98a83078780e98a82878780d98a82078780c98a81878780b98a81078780a821c686fc8787a0898aa08787a09988938787907988930787906988928787905988920787904988918787903988910787902821910821b08d49b0b821420821918d4940ad4ba0ad4b90998aa20979920d4a90978789888087878015209ae01d45307d4c208d48707987720d45808978820d48707821c7052079201821778821848d487071408e0ffffff00000000821940d889088219509498947882199800821a90005108660195c68000d8c60782188800c8780b7b1b78d88b08da7708c8a8087b188800d8a807c897077b17980083447b1490008367833564585020d402860dff83776458821578821990000a010182178000c867077b169000d86708821958c85909c88909d3590ad8590b82159800daa80b821860821c8800c8c808c88b0bd88b0ad8c808821c68c85c0cc8c808c8a808d4b70ad49808d48a0a98aa20d4b808978820d4a8085208c10083773308205020d602100dff46171f46171e46171d46171c46171b46171a46171946171846171746171646171546171446171346171246171146171046170f46170e46170d46170c46170b46170a46170946170846170746170646170546170446170346170246170146078217800095771f1408e0ffffff01000000d2870782189000c87808d87807821978c879099497821a8800c8a707d8a70ac85a0a821b7bb87bb9087bb7107bba188210b0008215a8008216a0009511b800320000951120fb7b10d8047b15d0047b16c8049515e0048411e06416828210828318828b08828c7b6bf0007b63e800d43b087b6200017b6cf800d42c0bd4b8085108c20c7b673882ab1882a81082a782aa087b67d8007b68d000d487077b6bc8007b6ac000d4ba08d4870752070628a90e8297187b67a0008297107b67a8008297087b67b00082977b67b8009517e08477e07b6718016471491718491710491708490783770a0e01826818018287188282828910828a088268e800d3870bd8870882670001d8790cdbb80c8268f000d38a03d88a0a8268f800d88208db3a08d39707d4b707db7c085108062841104926580449265004492648044926400449267804492670044926680449266004482620042083684004836a6004836b20043309ff33070a0701826760048269780482686804826a70047b678800957b0188b7017b688000c87808d48b07887701c87a0c7b6a70d8ac077b6978c897077b6810017b67e000d487077b6b18017b6c0801d4cb08d48707520706281b124926580449265004492648044926400449267804492670044926680449266004482620042083684004836a6004836b20043309ff33070a07492658044926500449264804492640048267e0007b677804826708017b677004826710017b676804826718017b67600483684004836a60043309ff330b2033070a0d8367e0030a048067f0037b6708018267e8037b67688267e0037b67e0009517e08477e07b6718016471491718491710491708490783770a0e826818018287187b67408287107b67488287087b675082877b67584926b8034926b0034926a003a0009567c0039568a0034926a8035020d802ce13ff8269d803826ad0038267c8038268c0037b6710017b699000d497077b681801d4a808d478089888207b6a9800d4a707977720d4870751070628f1108267e0006f779777208268686f88988920d497077b6768978820826708016f77987720d487077b6760816718013308207b6708015020da028109ff8268606f888269686f99826be00098ba18787a0f98ba10787a0e98ba08787a0d787b0c46170b46170a4617094617084617074617064617054617044617034617024617014607787910787818989a38787a17989a30787a16989a28787a15989a20787a14989a18787a13989a10787a1298990878791198893878791f98893078791e98892878791d98892078791c98891878791b98891078791a98880882699000826b9800d49b0b140900000000010000007b69681409e0ffffff00000000826a1801d89a09826a100194a97b6be00094b978781952090628db0f826708018377203308205020dc029508ff8268e8006f88826900016f99826af0006faa826bf8006fbb98bc38787c1f98bc30787c1e98bc28787c1d98bc20787c1c98bc18787c1b98bc10787c1a98bc08787c19787b18787a1098ab38787b1798ab30787b1698ab28787b1598ab20787b1498ab18787b1398ab10787b1298aa08787a11787908989a38787a0f989a30787a0e989a28787a0d989a20787a0c989a18787a0b989a10787a0a9899087879097878988938787907988930787906988928988a18787a03988a10787a02988a08787a01380aa800027879059888207878044926380349263003492628037b6a20038267c8007b6758038267d0007b6750038267c0007b6748038267d8007b6740038267a0007b6778038267a8007b6770038267b0007b676803956780039568600395694003956a2003826bb8007b6b60035020de0234d18267689577c082681801d878078268100194878268e00094875107780e826798037b6728826790037b6730826788037b6760826780037b6768826708018377403308205020e0021507ff8268286f888269306f99826a606faa826b686fbb98bc38787c1f98bc30787c1e98bc28787c1d98bc20787c1c98bc18787c1b98bc10787c1a98bc08787c19787b18787a1098ab38787b1798ab30787b1698ab28787b1598ab20787b1498ab18787b1398ab10787b1298aa08787a11787908989a38787a0f989a30787a0e989a28787a0d989a20787a0c989a18787a0b989a10787a0a9899087879097878988938787907988930787906988928787905988920787904988918787903988910787902988808140900000000010000007b69681409a0ffffff00000000826a1801d89a09826a100194a9826ae00094a97878015109560d826708018377603308205020e2020f06ff8268406f888269486f99826a506faa826b586fbb98bc38787c1f98bc30787c1e98bc28787c1d98bc20787c1c98bc18787c1b98bc10787c1a98bc08787c19787b18787a1098ab38787b1798ab30787b1698ab28787b1598ab20787b1498ab18787b1398ab10787b1298aa08787a11787908989a38787a0f989a30787a0e989a28787a0d989a20787a0c989a18787a0b989a10787a0a9899087879097878988938787907988930787906988928787905988920787904988918787903988910787902988808826968959980826a1801d89a09826a100194a9826ae00094a97878015109610c82670801837780003308205020e4021905ff46171f0146171e46171d46171c46171b46171a46171946171846171746171646171546171446171346171246171146171046170f46170e46170d46170c46170b46170a461709461708461707461706461705461704461703461702461701460733082033075020e602ad04ff8268786f898268706f8a826880006f8c826888006f8b98b83878781f98b83078781e98b82878781d98b82078781c98b81878781b98b81078781a98b8087878197b6b40787b1898c83878781798c83078781698c82878781598c82078781498c81878781398c81078781298c8087878117b6c30787c1098a83878780f98a83078780e98a82878780d98a82078780c98a81878780b98a81078780a98a8087878097b6a48787a089898387878079898307878069898287878059898207878049898187878039898107878029898087878017b695078793307203308205020e802cb03ff46171f0146171e46171d46171c46171b46171a46171946171846171746171646171546171446171346171246171146171046170f46170e46170d46170c46170b46170a461709461708461707461706461705461704461703461702461701460733084033075020ea025f03ff8377836960043308400a08826778048268700482696804826a60046f7b6f876f986fa9826a90007b6af802826a98007b6af002826a10017b6ae802826a18017b6ae0027b6918037b6810037b670803956700039568e0027b6b00035020ec02eee6836700040a04806710047b6728826708047b6720826700047b6708019517e08477e07b6718016471491718491710491708490783770a0e8268180182877b67e0008287087b6798008287107b6790008287187b67683307403308205020ee029c02ff7c78017c797c7a027c7b03978808d4980897aa1097bb18d4ba0ad4a8087c79057c7a047c7b067c7c07979908d4a90997bb1097cc18d4cb0bd4b909979920d489027c79097c7a087c7b0a7c7c0b979908d4a90997bb1097cc18d4cb0bd4b9097c7a0d7c7b0c7c7c0e7c780f97aa08d4ba0a97cc10978818d4c808d4a808978820d498037c78117c7a107c7b127c7c13978808d4a80897bb1097cc18d4cb0bd4b8087c7a157c7b147c7c167c791797aa08d4ba0a97cc10979918d4c909d4a909979920d4890a7c78197c79187c7b1a7c7c1b978808d4980897bb1097cc18d4cb0bd4b8087c791d7c7b1c7c7c1e7c771f979908d4b90997cc10977718d4c707d49707977720d487076f747b6418016fa97b69586f387b68606f2a7b6a10018267c8007b6738028267d0007b6730028267c0007b6728028267d8007b6720028267a0007b6758028267a8007b6750028267b0007b6748028267b8007b6740028267687b677802826790007b677002826798007b6768028267e0007b6760028267e8007b679802826700017b6790028267f0007b6788028267f8007b6780027b6ab8027b68b0027b69a8029567c0029568a00295698002956a6002956b4002956c20027b64a0025020f0028bee82695882671001d49707826a6082681801d4a808d47808988820d4a707977720d487075207e10764a08267c8028268d8027b6800018264c002826ad002d3970bd8970c82621801d82408dab80cc90a0bc9cb03d8cb0b7b6bf800d80a0a826c1001826b0001c9cb0cc9ac0c826af800c9ac0cc99707c98707c92408d4c707d4380ad47a0ad4370798aa20977720d4a70752077407826708016f779777208269206f99989a20d4a7077b6710019799208267286f77987720d497077b6700018167180183887b6818015020f2020300ff3a086000023a096800023a0a7000023a0b7800027b6878047b6970047b6a68047b6b60048268307b6890048268487b6888048268507b6880048268407b689804826800016f88826910016f99826a080197aa207b6aa8044926a0047b69b0047b68b804837983676004330803826a18010a058267388268787b78188268707b7810826880007b7808826888007b78955120fb8210d8048215d0048216c8049511e00432003307403308205020f40252fffe7c78117c79107c7a127c7b13978808d4980897aa1097bb18d4ba0ad4a8087c79157c7a147c7b167c7c17979908d4a90997bb1097cc18d4cb0bd4b909979920d489027c79017c7a7c7b027c7c03979908d4a90997bb1097cc18d4cb0bd4b9097c7a057c7b047c7c067c780797aa08d4ba0a97cc10978818d4c808d4a808978820d498037c78197c7a187c7b1a7c7c1b978808d4a80897bb1097cc18d4cb0bd4b8087c7a1d7c7b1c7c7c1e7c791f97aa08d4ba0a97cc10979918d4c909d4a909979920d4890a7c78097c79087c7b0a7c7c0b978808d4980897bb1097cc18d4cb0bd4b8087c790d7c7b0c7c7c0e7c770f979908d4b90997cc10977718d4c707d49707977720d487076f7b6fa86f396f277b6718017b690801d497076489d4b808d478089888207b6b1001d4b707977720d48707520752057b69000183973308207b67f8005020f60208fefe46171f46171e46171d46171c46171b46171a46171946171846171746171646171546171446171346171246171146171046170f46170e46170d46170c46170b46170a461709461708461707461706461705461704461703a00046170279461701c30046070882680001958704d88708826a1801c88a09d8a90ada880a82681001c88a0ad88a08826b0801c88b0b7b6928017b6720017b6a300195674001956820017b6b38015020f80282c0826748018262580182634001826a5001282b043307403308205020fa023dfdfe7c78117c79107c7a127c7b13978808d4980897aa1097bb18d4ba0ad4a8087c79157c7a147c7b167c7c17979908d4a90997bb1097cc18d4cb0bd4b909979920d489027c79017c7a7c7b027c7c03979908d4a90997bb1097cc18d4cb0bd4b9097c7a057c7b047c7c067c780797aa08d4ba0a97cc10978818d4c808d4a808978820d498037c78197c7a187c7b1a7c7c1b978808d4a80897bb1097cc18d4cb0bd4b8087c7a1d7c7b1c7c7c1e7c791f97aa08d4ba0a97cc10979918d4c909d4a909979920d4890a7c78097c79087c7b0a7c7c0b978808d4980897bb1097cc18d4cb0bd4b8087c790d7c7b0c7c7c0e7c770f979908d4b90997cc10977718d4c707d49707977720d487076f7b6fa86f396f277b6718017b690801d497076489d4b808d478089888207b6b1001d4b707977720d4870752073d037b69000183973308207b67f8005020fc02f3fbfe46171f46171e46171d46171c46171b46171a46171946171846171746171646171546171446171346171246171146171046170f46170e46170d46170c46170b46170a461709461708461707461706461705461704461703a00046170279461701c30046070882680001958704d88708826a1801c88a09d8a90ada880a82681001c88a0ad88a08826b0801c88b0b7b6968017b6760017b6a700195678001956860017b6b78015020fe02a5c0826788018262980182638001826a90012816023307403308205020000328fbfe7c78117c79107c7a127c7b13978808d4980897aa1097bb18d4ba0ad4a8087c79157c7a147c7b167c7c17979908d4a90997bb1097cc18d4cb0bd4b909979920d489027c79017c7a7c7b027c7c03979908d4a90997bb1097cc18d4cb0bd4b9097c7a057c7b047c7c067c780797aa08d4ba0a97cc10978818d4c808d4a808978820d498037c78197c7a187c7b1a7c7c1b978808d4a80897bb1097cc18d4cb0bd4b8087c7a1d7c7b1c7c7c1e7c791f97aa08d4ba0a97cc10979918d4c909d4a909979920d4890a7c78097c79087c7b0a7c7c0b978808d4980897bb1097cc18d4cb0bd4b8087c790d7c7b0c7c7c0e7c770f979908d4b90997cc10977718d4c707d49707977720d487076f7b6fa86f396f277b6718017b690801d497076489d4b808d478089888207b6b1001d4b707977720d48707520728017b69000183973308207b67f80050200203def9fe46171f46171e46171d46171c46171b46171a46171946171846171746171646171546171446171346171246171146171046170f46170e46170d46170c46170b46170a461709461708461707461706461705461704461703a00046170279461701c30046070882680001958704d88708826a1801c88a09d8a90ada880a82681001c88a0ad88a08826b0801c88b0b7b69a8017b67a0017b6ab0019567c0019568a0017b6bb80150200403ccc08267c8018262d8018263c001826ad0010182681801d3870bd8870c648082640001d84308dab80c82691001c99a0bd89a0a82690801c99209c9a909d8cb0ac9a909c9cb0bc90707c98708c94307d49808d4b709d48909d4b808989920978820d4980851086100492610024926080249260002140700000000717b484e956800027b67180233075020060356f9fe4926f8014926f0014926e001113307049568e0014926e8015020080337f9fe330824330750200a037bf8fe83783307013309240a0b0183787b6818018267f80050200c035ff8fe83783307018269180133000e030a0b01951100ff7b10f8007b15f0007b16e800951500018411e08278187b188278107b18088278087b181082777b17184921b8004921b0004921a8003306037b16a0004921d8004921d0004921c8004921c00048218000208318a000831ac000831b80003309ff33070a07018217d8008218c8008219c000821ad000d48707859801d4a808d48707520751014921b8004921b0004921a8004921a000034921d8004921d0004921c8004921c00048218000208318a000831ac000831b80003309ff33070a074921b8004921b0004921a8004921a000034921d8004921d0004921c8004921c0008318a000831ac0003309ff330b2033070a0d82177b17388217087b17308217107b17289517208218187b182033001003951120fc7b10d8037b15d0034921c803039515e0038411e0641682787b6858018278087b6850018278107b6848018277187b674001330820330733003a0328f7f6fe4921b8004921b0004921a8007b16a0004921d8004921d0004921c8004921c00048218000208318a000831ac000831b80003309ff33070a074921b8004921b0004921a8007b16a0004921d8004921d0004921c8004921c000018318a000831ac0003309ff330b2033070a0d955100ff8210f8008215f0008216e800951100013200330740330820502012036cf6fe7c78117c79107c7a127c7b13978808d4980897aa1097bb18d4ba0ad4a8087c79157c7a147c7b167c7c17979908d4a90997bb1097cc18d4cb0bd4b909979920d489027c79017c7a7c7b027c7c03979908d4a90997bb1097cc18d4cb0bd4b9097c7a057c7b047c7c067c760797aa08d4ba0a97cc10976618d46c0cd4ca0a97aa20d4a9097c7a197c7b187c7c1a7c761b97aa08d4ba0a97cc10976618d46c0cd4ca0a7c7b1d7c7c1c7c761e7c781f97bb08d4cb0b976610978818d46808d4b808978820d48a0a7c78097c7b087c7c0a7c760b978808d4b80897cc10976618d46c0cd4c8087c7b0d7c7c0c7c760e7c770f97bb08d4cb0b976610977718d46707d4b707977720d487076f766fa86f996f277b17187b1910d497076489d46808d47808988820d46707977720d4870752070d017b190883973308207b17502014032bf5fe46171f46171e46171d46171c46171b46171a46171946171846171746171646171546171446171346171246171146171046170f46170e46170d46170c46170b46170a461709461708461707461706461705461704461703a00046170279461701c300460708821808958704d88708821a18c88a09d8a90ada880ac86a0ad86a08821b10c88b0b7b19487b17407b1a509517609518407b1b58502016036b5cff821768821278821360821a70821818d3870bd8870c6484821908d89308dab80cc96a0bd86a0a821610c96206c9a606d8cb0ac9a606c9cb0bc94707c98708c99307d46808d4b709d48909d4b808989920978820d49808510804008376821764685020180325f4fe8378330701646933001a030a0b01827810827918827a088277d4a909d4870ad49a0a98aa20d49808978820d4a808520886009511f87b10837733082050201c03e2f3fe46171f46171e46171d46171c46171b46171a46171946171846171746171646171546171446171346171246171146171046170f46170e46170d46170c46170b46170a461709461708461707654617067633086978780546170474461703634617026133096e787901787882109511083200009511a07b10587b15507b1648828a18828b10828c088286d4ac08d4b609d48909989920d4b808978820d498087b1728520807029567207b1730d86707c87c087b18407b1c08d8c805da7705c8b5057b1b10d8b5077b1a18c8a7077b17387b16836733082033062050201e0302f3fe78761f8218306486d45808821940821b38d4b909d498089888207b1520d45909979920d4980846171e46171d46171c46171b46171a46171946171846171746171646171546171446171346171246171146171046170f46170e46170d46170c46170b46170a46170946170846170746170646170546170446170346170246170146075208460183653308206457502020036ef2fe46171f0846171e46171d46171c46171b46171a46171946171846171746171646171546171446171346171246171146171046170f46170e46170d46170c46170b46170a461709461708461707461706461705461704461703461702461701821820821938d498081409e0ffffff00000000d89609821a4094a9948946075109b70083572033082050202203e0f1fe46171f46171e46171d46171c46171b46171a46171946171846171746171646171546171446171346171246171146171046170f46170e46170d46170c46170b46170a4617094617084617076546170676461705694617047446170363461702614617016e4607698218958760d88708821a08c88a09d8a90ada880a821810c88a0ad88a08821b18c8b808821b287bb77bb9087bba107bb8188210588215508216489511603200009511a07b10587b15507b1648828a18828b10828c088286d4ac08d4b609d48909989920d4b808978820d498087b172852080b029567207b1730d86707c87c087b18407b1c08d8c805da7705c8b5057b1b10d8b5077b1a18c8a7077b17387b16836733082033062050202403cbf0fe78761f8218306486d45808821940821b38d4b909d498089888207b1520d45909979920d4980846171e46171d46171c46171b46171a46171946171846171746171646171546171446171346171246171146171046170f46170e46170d46170c46170b46170a461709461708461707461706461705461704461703461702461701460752084a01836533082064575020260337f0fe46171f0c46171e46171d46171c46171b46171a46171946171846171746171646171546171446171346171246171146171046170f46170e46170d46170c46170b46170a461709461708461707461706461705461704461703461702461701821820821938d498081409e0ffffff00000000d89609821a4094a9948946075109bb0083572033082050202803a9effe46171f46171e46171d46171c46171b46171a46171946171846171746171646171546171446171346171246171146171046170f46170e46170d46170c46170b7446170a6e461709754617086f4617076d4617066146170520461704674617036e4617026f461701724607778218958760d88708821a08c88a09d8a90ada880a821810c88a0ad88a08821b18c8b808821b287bb77bb9087bba107bb8188210588215508216489511603200009511a07b10587b15507b1648828a18828b10828c088286d4ac08d4b609d48909989920d4b808978820d498087b172852080d029567207b1730d86707c87c087b18407b1c08d8c805da7705c8b5057b1b10d8b5077b1a18c8a7077b17387b16836733082033062050202a0390eefe78761f8218306486d45808821940821b38d4b909d498089888207b1520d45909979920d4980846171e46171d46171c46171b46171a46171946171846171746171646171546171446171346171246171146171046170f46170e46170d46170c46170b46170a461709461708461707461706461705461704461703461702461701460752084c018365330820645750202c03fcedfe46171f0e46171e46171d46171c46171b46171a46171946171846171746171646171546171446171346171246171146171046170f46170e46170d46170c46170b46170a461709461708461707461706461705461704461703461702461701821820821938d498081409e0ffffff00000000d89609821a4094a9948946075109bd0083572033082050202e036eedfe46171f46171e46171d46171c46171b46171a46171946171846171746171646171546171446171346171246171146171046170f46170e46170d7446170c6846170b6746170a754617096f461708624617072046170679461705644617046146170365461702724617016c4607618218958760d88708821a08c88a09d8a90ada880a821810c88a0ad88a08821b18c8b808821b287bb77bb9087bba107bb8188210588215508216489511603200009511e0fe7b1018017b1510017b160801951520018411e0828b10828c18828908828a7b19707b1c58d4c9087b1a8000d4ba09d489099899207b1b78d4b808978820d4980852088d098278187b18608278107b1888008278087b18900082777b179800811780003308207b1768502030034eecfe7c78117c79107c7a127c7b13978808d4980897aa1097bb18d4ba0ad4a8087c79157c7a147c7b167c7c17979908d4a90997bb1097cc18d4cb0bd4b909979920d498087c79197c7a187c7b1a7c7c1b979908d4a90997bb1097cc18d4cb0bd4b9097c7a1d7c7b1c7c7c1e7c761f97aa08d4ba0a97cc10976618d46c0cd4ca0a97aa20d4a9097c7a0d7c7b0c7c7c0e7c770f97aa08d4ba0a97cc10977718d4c707d4a7076f997b19506f887b18486f769866207b16408216607b16d800821788007b17d000821790007b17c800821798007b17c0004921f8004921f0004921e8004921e0004821a000208318c000831ae000831ba0003309ff33070a078017f4009777208218f800821940d497077b16d800821988007b19d000821990007b19c800821998007b19c0007b18f8007b17f0008217487b17e8008217507b17e0008318c000831ae0003309ff330b2033070a0d01821778821958d47909140700000000010000007b17401407e0ffffff0000000082188000d8780782187094877b195894975107dc07821798009579017b194888970182189000c887077b1778d4970788770182188800c887077b1750d88707821860c887077b17388217688377203308205020320385eafe7c78017c797c7a027c7b03978808d4980897aa1097bb18d4ba0ad4a8087c79057c7a047c7b067c7c07979908d4a90997bb1097cc18d4cb0bd4b909979920d489027c79097c7a087c7b0a7c7c0b979908d4a90997bb1097cc18d4cb0bd4b9097c7a0d7c7b0c7c7c0e7c760f97aa08d4ba0a97cc10976618d46c0cd4ca0a97aa20d4a9097c7a117c7b107c7c127c761397aa08d4ba0a97cc10976618d46c0cd4ca0a7c7b157c7c147c76167c781797bb08d4cb0b976610978818d46808d4b808978820d48a0a7c78197c7b187c7c1a7c761b978808d4b80897cc10976618d46c0cd4c8087c7b1d7c7c1c7c761e7c771f97bb08d4cb0b976610977718d46707d4b707977720d487074821a000206f777b17306fa77b17286f977b17206f277b17188217507b17d0008217787b17c8008217487b17c0008216387b16d8004921f8004921f0004921e8004921e0008318c000831ae000831ba0003309ff33070a077b16d8008217507b17d0008217787b17c8008217487b17c0008217187b17f8008217207b17f0008217287b17e8008217307b17e0008318c000831ae0003309ff330b2033070a0d018217409577c082188000d87807821870948782185894875107d705821798009578027b1878d8780782189000c878097b199800d88908da770882178800c878087b189000d87807821860c887077b178800821768837740330820502034037de8fe7c78117c79107c7a127c7b13978808d4980897aa1097bb18d4ba0ad48a027c79017c7a7c7b027c7c03979908d4a90997bb1097cc18d4cb0bd49b037c7a157c7b147c7c167c761797aa08d4ba0a97cc10976618d46c0cd4ac047c7b057c7c047c76067c780797bb08d4cb0b976610978818d46808d4b8007c78197c7c187c761a7c791b978808d4c808976610979918d46909d4890c7c78097c79087c760a7c7a0b978808d4980897661097aa18d46a0ad48a067c781d7c791c7c7a1e7c7b1f978808d4980897aa1097bb18d4ba0ad4a8087c790d7c7a0c7c7b0e7c770f979908d4a90997bb10977718d4b707d49707d48707d46c0c977720d4c707d44008d42309978820d49808d487078e777b1760821788007b17d800821790007b17d000821798007b17c8008216787b16c0004921f8004921f0004921e8004921e0004821a000208318c000831ae000831ba0003309ff33070a078217e0008218e8008219f000821af800847700ff821b60d4b707821b88007b1bd800821b90007b1bd000821b98007b1bc8007b16c0007b1af8007b19f0007b18e8007b17e0008318c000831ae0003309ff330b2033070a0d01140700000000010000007b17601407a0ffffff0000000082188000d87807821870948782185894875107b6038217688377603308205020360392e6fe7c781d7c791c7c7a1e7c7b1f978808d4980897aa1097bb18d4ba0ad4a8087c790d7c7a0c7c7b0e7c7c0f979908d4a90997bb1097cc18d4cb0bd4b909d498089788207c79097c7a087c7b0a7c7c0b979908d4a90997bb1097cc18d4cb0bd4b9097c7a197c7b187c7c1a7c761b97aa08d4ba0a97cc10976618d46c0cd4ca0ad4a909d498087c79157c7a147c7b167c7c17979908d4a90997bb1097cc18d4cb0bd4b9097c7a057c7b047c7c067c760797aa08d4ba0a97cc10976618d46c0cd4ca0ad4a9097c7a017c7b7c7c027c760397aa08d4ba0a97cc109766187c7b11d46c0cd4ca0a7c7c1097bb087c76127c7713d4cb0b979920976610977718d46707d4b707d4a707d49707d487078e76821788007b17d800821790007b17d000821798007b17c8008217787b17c0004921f8004921f0004921e8004921e0004821a000208318c000831ae000831ba0003309ff33070a078217e8008218f0008219f800821ae00097660884aaff00ffd46a0a821b88007b1bd800821b90007b1bd000821b98007b1bc800821b787b1bc0007b19f8007b18f0007b17e8007b1ae0008318c000831ae0003309ff330b2033070a0d0182176095778082188000d87807821870948782185894875107db018217688377800033082050203803b6e4fe7c781d7c791c7c7a1e7c7b1f978808d4980897aa1097bb18d4ba0ad4a8087c790d7c7a0c7c7b0e7c7c0f979908d4a90997bb1097cc18d4cb0bd4b909d498089788207c79097c7a087c7b0a7c7c0b979908d4a90997bb1097cc18d4cb0bd4b9097c7a197c7b187c7c1a7c761b97aa08d4ba0a97cc10976618d46c0cd4ca0ad4a909d498087c79157c7a147c7b167c7c17979908d4a90997bb1097cc18d4cb0bd4b9097c7a057c7b047c7c067c760797aa08d4ba0a97cc10976618d46c0cd4ca0ad4a9097c7a017c7b7c7c027c760397aa08d4ba0a97cc109766187c7b11d46c0cd4ca0a7c7c1097bb087c76127c7713d4cb0b979920976610977718d46707d4b707d4a707d49707d487078e76821788007b17d800821790007b17d000821798007b17c8008217787b17c0004921f8004921f0004921e8004921e0004821a000208318c000831ae000831ba0003309ff33070a078217e8008218f0008219f800821ae00097661084aaffff00ffd46a0a821b88007b1bd800821b90007b1bd000821b98007b1bc800821b787b1bc0007b19f8007b18f0007b17e8007b1ae0008318c000831ae0003309ff330b2033070a0d9551e0fe82101801821510018216080195112001320000826840016f88826948016f99826a50016faa826b58016fbb787b18787a10787908787898bc387b6c1801787c1f98bc307b6c1001787c1e98bc287b6c0801787c1d98bc207b6c0001787c1c98bc187b6cf800787c1b98bc107b6cf000787c1a7b6b280198bb087b6be800787b1998ab387b6be000787b1798ab307b6bd800787b1698ab287b6bd000787b1598ab207b6bc800787b1498ab187b6bc000787b1398ab107b6bb800787b127b6a300198aa087b6ab000787a11989a387b6aa800787a0f989a307b6aa000787a0e989a287b6a9800787a0d989a207b6a9000787a0c989a187b6a8800787a0b989a107b6a8000787a0a7b6938019899087b69787879099889387b69707879079889307b69687879069889287b69607879059889207b69587879049889187b69507879039889107b69487879027b6840019888087b684078780133072033082050203c039fe1fe46171f0146171e46171d46171c46171b46171a46171946171846171746171646171546171446171346171246171146171046170f46170e46170d46170c46170b46170a4617094617084617074617064617054617044617034617024617014607330840330750203e0333e1fe8377836960033308400a08826760038268680382697003826a78036f726f8c6f996fa89587047b682001d88708c8890b7b694801d89b0ada880ac8ca0a7b6c5001d8ca087b625801c828087b6b28037b6720037b6a30037b68380349267803492670034926680349266003482640032083682003836a6003836b40033309ff33070a07017c67600352070628c80f9517e08477e07b67206471491718491710491708490783770a0e82682082877b67388287107b67308287087b67288287187b67208267200195770188780182694801c89808d48709889901826a5001c8a909d8a90a826b5801c8ba0a7b6a38037b6930037b6828037b67200349267803492670034926680349266003482640032083682003836a6003836b40033309ff33070a0701826778038268680382696003826a7003826b20d3b707826b28d3b808d48707826830d3a808826a38d3a909d49808d4870751070628111133082050204003cfdffe826830017878108268a80078780f8268a00078780e8268980078780d8268900078780c8268880078780b8268800078780a82687878780982683801787808826870787807826868787806826860787805826858787804826850787803826848787802826840787801826840017878826828017878188268e0007878178268d8007878168268d0007878158268c8007878148268c0007878138268b8007878128268b0007878118268180178781f8268100178781e8268080178781d8268000178781c8268f80078781b8268f00078781a8268e80078781933072033082050204203ebdefe46171f0246171e46171d46171c46171b46171a46171946171846171746171646171546171446171346171246171146171046170f46170e46170d46170c46170b46170a46170946170846170746170646170546170446170346170246170146073308403307502044037fdefe8377836960033308400a08826760037b675801826768037b675001826770037b674801826778037b6720018367a0020a048267a8028168b002826aa0027b6a306f779779206f88988820d498087b68389877206fa8978820d487077b672833082033075020460315defe8268286f888269386f99826b3098ba18787a0f98ba10787a0e98ba08787a0d787b0c46170b46170a4617094617084617074617064617054617044617034617024617014607787918787810989a38787a1f989a30787a1e989a28787a1d989a20787a1c989a18787a1b989a10787a1a9899087879199889387879179889307879169889287879159889207879149889187879139889107879129888087878113307203308205020480369ddfe8269200198983878781f98983078781e98982878781d98982078781c98981878781b98981078781a989808787819787918826948019898387878179898307878169898287878159898207878149898187878139898107878129898087878117879108269500198983878780f98983078780e98982878780d98982078780c98981878780b98981078780a989808787809787908826958019898387878079898307878069898287878059898207878049898187878039898107878029898087878017879330840330750204a039adcfe8377836960033308400a08826760038268680382697003826a78036f776f886f996faa95aa0188ab01c8b909d49a0b88bb01c88b0bd88b08c887077b6928037b6a20037b6b30037b67380349267803492670034926680349266003482640032083682003836a6003836b40033309ff33070a0701826770038268780382696803826a6003d49808d4a707d4870751070628540f8367c0020a048067d0027b6748018267c8027b67288267c0027b6720019517e08477e07b6758016471491718491710491708490783770a0e826858018287187b67088287107b67108287087b671882877b67204926f8014926f0014926e001a000956700029568e0014926e80150204c036ae5fe82691802826a100282670802826800027b6750017b6930d497077b685801d4a808d478089888207b6a38d4a707977720d48707510706280e11826720016f779777208268286f88988920d497077b6728978820826748016f77987720d487077b67816758013308207b67480150204e0320dbfe82686f888269286f99826b200198ba18787a0f98ba10787a0e98ba08787a0d787b0c46170b46170a4617094617084617074617064617054617044617034617024617014607787910787818989a38787a17989a30787a16989a28787a15989a20787a14989a18787a13989a10787a1298990878791198893878791f98893078791e98892878791d98892078791c98891878791b98891078791a988808826930826b38d49b0b140900000000010000007b69281409e0ffffff00000000826a5801d89a09826a500194a97b6b200194b978781952090628fc0f826748018377203308205020500337dafe8268086f888269106f99826a186faa826b206fbb98bc38787c1f98bc30787c1e98bc28787c1d98bc20787c1c98bc18787c1b98bc10787c1a98bc08787c19787b18787a1098ab38787b1798ab30787b1698ab28787b1598ab20787b1498ab18787b1398ab10787b1298aa08787a11787908989a38787a0f989a30787a0e989a28787a0d989a20787a0c989a18787a0b989a10787a0a98990878790978789889387879079889307879069889287879059889207879049889187879039889107879029888088269289599c0826a5801d89a09826a500194a9826a200194a978780152090628050f826748018377403308205020520340d9fe46171f46171e46171d46171c46171b46171a46171946171846171746171646171546171446171346171246171146171046170f46170e46170d46170c46170b46170a461709461708461707461706461705461704461703461702461701140800000000010000007b68281408a0ffffff0000000082695801d88908826950019498826920019498460752080628650e8267480183776033082050205403a0d8fe46171f46171e46171d46171c46171b46171a46171946171846171746171646171546171446171346171246171146171046170f46170e46170d46170c46170b46170a46170946170846170746170646170546170446170346170246170182682895888082695801d8890882695001949882692001949846075108d90d82674801837780003308205020560312d8fe46171f46171e46171d46171c46171b46171a46171946171846171746171646171546171446171346171246171146171046170f46170e46170d46170c46170b46170a4617094617084617074617064617054617044617034617024617014607330820330750205803a7d7fe8268180178781f8268100178781e8268080178781d8268000178781c8268f80078781b8268f00078781a8268e8007878198268e0007878178268d8007878168268d0007878158268c8007878148268c0007878138268b8007878128268b0007878118268a80078780f8268a00078780e8268980078780d8268900078780c8268880078780b8268800078780a82687878780982687078780782686878780682686078780582685878780482685078780382684878780282684078780182682801787818826830017878108268380178780882684001787833072033082050205a03c3d6fe46171f0246171e46171d46171c46171b46171a46171946171846171746171646171546171446171346171246171146171046170f46170e46170d46170c46170b46170a4617094617084617074617064617054617044617034617024617014607330840330750205c0357d6fe8377836960033308400a08826760037b674801826768037b672001826770037b671801826778037b6710018367e0020a048267e8028168f002826ae0027b6a00016f779779206f88988820d498087b6808019877206fa8978820d487077b67f800330820330750205e03ead5fe8268f8006f88826908016f99826b000198ba18787a0f98ba10787a0e98ba08787a0d787b0c46170b46170a4617094617084617074617064617054617044617034617024617014607787918787810989a38787a1f989a30787a1e989a28787a1d989a20787a1c989a18787a1b989a10787a1a989908787919988938787917988930787916988928787915988920787914988918787913988910787912988808787811330720330820502060033bd5fe8269100198983878781f98983078781e98982878781d98982078781c98981878781b98981078781a989808787819787918826918019898387878179898307878169898287878159898207878149898187878139898107878129898087878117879108269200198983878780f98983078780e98982878780d98982078780c98981878780b98981078780a9898087878097879088269480198983878780798983078780698982878780598982078780498981878780398981078780298980878780178793308403307502062036cd4fe8377836960033308400a08826778038268700382696803826a60036f7b6f876f986fa9826a307b6ab801826a387b6ab001826a50017b6aa801826a58017b6aa0017b69d8017b68d0017b67c8019567c0019568a0017b6bc0015020640352e7836700030a04806710037b674801826708037b670801826700037b6758019517e08477e07b6750016471491718491710491708490783770a0e826850018287187b6710018287107b6718018287087b67200182877b67500133074033082050206603a8d3fe7c78117c79107c7a127c7b13978808d4980897aa1097bb18d4ba0ad4a8087c79157c7a147c7b167c7c17979908d4a90997bb1097cc18d4cb0bd4b909979920d489027c79017c7a7c7b027c7c03979908d4a90997bb1097cc18d4cb0bd4b9097c7a057c7b047c7c067c780797aa08d4ba0a97cc10978818d4c808d4a808978820d498037c78197c7a187c7b1a7c7c1b978808d4a80897bb1097cc18d4cb0bd4b8087c7a1d7c7b1c7c7c1e7c791f97aa08d4ba0a97cc10979918d4c909d4a909979920d4890a7c78097c79087c7b0a7c7c0b978808d4980897bb1097cc18d4cb0bd4b8087c790d7c7b0c7c7c0e7c770f979908d4b90997cc10977718d4c707d49707977720d487076f786fa76f396f2ad4a909d4870ad49a0a98aa20d49808978820d4a80852083508826808016f88978920826a48016faa98aa20d4a9097b694801826958016f99979920988820d498087b68080183777b6700013308205020680344d2fe826810016f88826918016f99826a20016faa826b50016fbb98bc38787c1f98bc30787c1e98bc28787c1d98bc20787c1c98bc18787c1b98bc10787c1a98bc08787c19787b18787a1098ab38787b1798ab30787b1698ab28787b1598ab20787b1498ab18787b1398ab10787b1298aa08787a11787908989a38787a0f989a30787a0e989a28787a0d989a20787a0c989a18787a0b989a10787a0a98990878790978789889387879079889307879069889287879059889207879049889187879039889107879029888087878013308208267000150206a036bd1fe3a088000023a098800023a0a9000023a0b9800027b6878037b6970037b6a68037b6b6003826828017b689803826830017b689003826838017b688803826840017b688003826808016f88826948016f99826a580197aa207b69b8037b68b0037b6aa8034926a003837983676003330803330a200a05955120fc8210d8038215d0038216c8039511e003320033074033082050206c03d3d0fe7c78117c79107c7a127c7b13978808d4980897aa1097bb18d4ba0ad4a8087c79157c7a147c7b167c7c17979908d4a90997bb1097cc18d4cb0bd4b909979920d489027c79017c7a7c7b027c7c03979908d4a90997bb1097cc18d4cb0bd4b9097c7a057c7b047c7c067c780797aa08d4ba0a97cc10978818d4c808d4a808978820d498037c78197c7a187c7b1a7c7c1b978808d4a80897bb1097cc18d4cb0bd4b8087c7a1d7c7b1c7c7c1e7c791f97aa08d4ba0a97cc10979918d4c909d4a909979920d4890a7c78097c79087c7b0a7c7c0b978808d4980897bb1097cc18d4cb0bd4b8087c790d7c7b0c7c7c0e7c770f979908d4b90997cc10977718d4c707d49707977720d487076f7b6fa86f396f277b6758017b694801d497076489d4b808d478089888207b6b5001d4b707977720d48707520752057b69400183973308207b67380150206e0389cffe46171f46171e46171d46171c46171b46171a46171946171846171746171646171546171446171346171246171146171046170f46170e46170d46170c46170b46170a461709461708461707461706461705461704461703a00046170279461701c30046070882684001958704d88708826a5801c88a09d8a90ada880a82685001c88a0ad88a08826b4801c88b0b7b6968017b6760017b6a700195678001956860017b6b78015020700374db826788018262980182638001826a9001282b0433074033082050207203becefe7c78117c79107c7a127c7b13978808d4980897aa1097bb18d4ba0ad4a8087c79157c7a147c7b167c7c17979908d4a90997bb1097cc18d4cb0bd4b909979920d489027c79017c7a7c7b027c7c03979908d4a90997bb1097cc18d4cb0bd4b9097c7a057c7b047c7c067c780797aa08d4ba0a97cc10978818d4c808d4a808978820d498037c78197c7a187c7b1a7c7c1b978808d4a80897bb1097cc18d4cb0bd4b8087c7a1d7c7b1c7c7c1e7c791f97aa08d4ba0a97cc10979918d4c909d4a909979920d4890a7c78097c79087c7b0a7c7c0b978808d4980897bb1097cc18d4cb0bd4b8087c790d7c7b0c7c7c0e7c770f979908d4b90997cc10977718d4c707d49707977720d487076f7b6fa86f396f277b6758017b694801d497076489d4b808d478089888207b6b5001d4b707977720d4870752073d037b69400183973308207b6738015020740374cdfe46171f46171e46171d46171c46171b46171a46171946171846171746171646171546171446171346171246171146171046170f46170e46170d46170c46170b46170a461709461708461707461706461705461704461703a00046170279461701c30046070882684001958704d88708826a5801c88a09d8a90ada880a82685001c88a0ad88a08826b4801c88b0b7b6968027b6760027b6a700295678002956860027b6b78025020760396db826788028262980282638002826a900228160233074033082050207803a9ccfe7c78117c79107c7a127c7b13978808d4980897aa1097bb18d4ba0ad4a8087c79157c7a147c7b167c7c17979908d4a90997bb1097cc18d4cb0bd4b909979920d489027c79017c7a7c7b027c7c03979908d4a90997bb1097cc18d4cb0bd4b9097c7a057c7b047c7c067c780797aa08d4ba0a97cc10978818d4c808d4a808978820d498037c78197c7a187c7b1a7c7c1b978808d4a80897bb1097cc18d4cb0bd4b8087c7a1d7c7b1c7c7c1e7c791f97aa08d4ba0a97cc10979918d4c909d4a909979920d4890a7c78097c79087c7b0a7c7c0b978808d4980897bb1097cc18d4cb0bd4b8087c790d7c7b0c7c7c0e7c770f979908d4b90997cc10977718d4c707d49707977720d487076f7b6fa86f396f277b6758017b694801d497076489d4b808d478089888207b6b5001d4b707977720d48707520728017b69400183973308207b67380150207a035fcbfe46171f46171e46171d46171c46171b46171a46171946171846171746171646171546171446171346171246171146171046170f46170e46170d46170c46170b46170a461709461708461707461706461705461704461703a00046170279461701c30046070882684001958704d88708826a5801c88a09d8a90ada880a82685001c88a0ad88a08826b4801c88b0b7b6928027b6720027b6a300295674002956820027b6b380250207c03bcdb826748028262580282634002826a50020182685801d3870bd8870c648082644001d84308dab80c82695001c99a0bd89a0a82694801c99209c9a909d8cb0ac9a909c9cb0bc90707c98708c94307d49808d4b709d48909d4b808989920978820d498085108040083787b6858018267380150207e033dcafe837833070182695801330080030a0b019511d07b10287b15209515308411f08278827908827a108277187b17187b1a107b190864177b1850208203b7d19551d082102882152095113032009511c0fe7b1038017b1530017b162801951540018411e08289187b198289107b19088289087b191082887b18188278187b18208278107b18288278087b183082777b17384921f8004921f0004921e8003306037b16e000492118014921100149210801492100014821c000208318e000831a0001831bc0003309ff33070a0701821718018218080182190001821a1001d48707859801d4a808d4870752077a014921f8004921f0004921e8004921e00003492118014921100149210801492100014821c000208318e000831a0001831bc0003309ff33070a074921f8004921f0004921e8004921e00003492118014921100149210801492100018318e000831a00013309ff330b2033070a0d82177b17588217087b17508217107b17488217187b17408217207b17788217287b17708217307b17689517609518408219387b1960330084039511c0fd7b1038027b1530024921280203951540028411e08289187b19608289107b19688289087b197082887b187882787b18588278087b18508278107b1848827618330820330733009803285ac8fe4921f8004921f0004921e8007b16e000492118014921100149210801492100014821c000208318e000831a0001831bc0003309ff33070a074921f8004921f0004921e8007b16e00049211801492110014921080149210001018318e000831a00013309ff330b2033070a0d9551c0fe82103801821530018216280195114001320033074033082050208603cfc7fe7c78117c79107c7a127c7b13978808d4980897aa1097bb18d4ba0ad4a8087c79157c7a147c7b167c7c17979908d4a90997bb1097cc18d4cb0bd4b909979920d489027c79017c7a7c7b027c7c03979908d4a90997bb1097cc18d4cb0bd4b9097c7a057c7b047c7c067c760797aa08d4ba0a97cc10976618d46c0cd4ca0a97aa20d4a9097c7a197c7b187c7c1a7c761b97aa08d4ba0a97cc10976618d46c0cd4ca0a7c7b1d7c7c1c7c761e7c781f97bb08d4cb0b976610978818d46808d4b808978820d48a0a7c78097c7b087c7c0a7c760b978808d4b80897cc10976618d46c0cd4c8087c7b0d7c7c0c7c760e7c770f97bb08d4cb0b976610977718d46707d4b707977720d487076f766fa86f996f277b17387b1930d497076489d46808d47808988820d46707977720d48707520718017b192883973308207b1720502088038dc6fe46171f46171e46171d46171c46171b46171a46171946171846171746171646171546171446171346171246171146171046170f46170e46170d46170c46170b46170a461709461708461707461706461705461704461703a00046170279461701c300460708821828958704d88708821a38c88a09d8a90ada880ac86a0ad86a08821b30c88b0b7b1988007b1780007b1a90009517a000951880007b1b980050208a03c72dff8217a8008212b8008213a000821ab000821838d3870bd8870c6484821928d89308dab80cc96a0bd86a0a821630c96206c9a606d8cb0ac9a606c9cb0bc94707c98708c99307d46808d4b709d48909d4b808989920978820d49808510804008376821720646850208c037cc5fe8378330701646933008e030a0b01827810827918827a088277d4a909d4870ad49a0a98aa20d49808978820d4a808520887009511f87b1083773308205020900339c5fe46171f46171e46171d46171c46171b46171a46171946171846171746171646171546171446171346171246171146171046170f46170e46170d46170c46170b46170a46170946170846170777461706614617057233096478790446170372461702654617017633086f787882109511083200009511a07b10587b15507b1648828a18828b10828c088286d4ac08d4b609d48909989920d4b808978820d498087b1728520807029567207b1730d86707c87c087b18407b1c08d8c805da7705c8b5057b1b10d8b5077b1a18c8a7077b17387b1683673308203306205020920358c4fe78761f8218306486d45808821940821b38d4b909d498089888207b1520d45909979920d4980846171e46171d46171c46171b46171a46171946171846171746171646171546171446171346171246171146171046170f46170e46170d46170c46170b46170a4617094617084617074617064617054617044617034617024617014607520846018365330820645750209403c4c3fe46171f0846171e46171d46171c46171b46171a46171946171846171746171646171546171446171346171246171146171046170f46170e46170d46170c46170b46170a461709461708461707461706461705461704461703461702461701821820821938d498081409e0ffffff00000000d89609821a4094a9948946075109b7008357203308205020960336c3fe46171f46171e46171d46171c46171b46171a46171946171846171746171646171546171446171346171246171146171046170f46170e46170d46170c46170b46170a4617094617084617077746170661461705724617046446170372461702654617017646076f8218958760d88708821a08c88a09d8a90ada880a821810c88a0ad88a08821b18c8b808821b287bb77bb9087bba107bb8188210588215508216489511603200006f688219486f99821a506faa821b586fbb787b18787a10787908787898bc38787c1f98bc30787c1e98bc28787c1d98bc20787c1c98bc18787c1b98bc10787c1a98bb08787b1998ab38787b1798ab30787b1698ab28787b1598ab20787b1498ab18787b1398ab10787b1298aa08787a11989a38787a0f989a30787a0e989a28787a0d989a20787a0c989a18787a0b989a10787a0a98990878790998893878790798893078790698892878790598892078790498891878790398891078790298880878780133072033082050209a03bec1fe46171f0146171e46171d46171c46171b46171a46171946171846171746171646171546171446171346171246171146171046170f46170e46170d46170c46170b46170a4617094617084617074617064617054617044617034617024617014607330840330750209c0352c1fe8377831900023308400a08821718028218100282190802821a00026f777b17586f877b17506f977b17486fa77b1740831740010a048217480182184001811950016f77987a206f86976820d4a8087b18389777206f98988820d487077b17309866208217407b17f8018217487b17f0018217507b17e8018217587b17e0014921180249211002492108024921000248212002208318e001831a0002831b20023309ff33070a0701801710028218000282190802d36707821a30d3a808d48707821838d39808d4870752071503821758957903d87907821850c8780ad88a08da7708821748c87808d87807821b40c8b7077b19387b19e0017b1a307b1ae8017b18287b18f0017b17207b17f8014921180249211002492108024921000248212002208318e001831a0002831b20023309ff33070a0701821718028218000282131002821a0802821960d3970bd89707821968d8930cdbb70c821770d37a02d87a0a821678d86808db2a08d39307d4b707db7c08520872048217287b17f0018217307b17e8018217387b17e0018217207b17f8014921180249211002492108024921000248212002208318e001831a0002831b20023309ff33070a070182191802821a10028213080282180002821b60d3b907d8b90b821268d82a0c7b1c10da7c0b821c70d3c304d8c306821c787b18d8c800da4006d32a0cd4c707da760b520b4006821768c97a07c9670a7b1a18d86707821a60c9a909821810c98909c979097b1910821770c97307c907077b17088217788218c978077b178217287b17f0018217307b17e8018217387b17e0018216207b16f8014921180249211002492108024921000248212002208318e001831a0002831b20023309ff33070a077b16f8018217287b17f0018217307b17e8018217387b17e0018217107b1718028217187b1710028217087b17080282177b1700028318e001831a00023309ff330b2033070a0d8217407b17f8018217487b17f0018217507b17e8018217587b17e0014921180249211002492108024921000248212002208318e001831a0002831b20023309ff33070a078217080282181002821900026f77977a206f88988820d4a8089877206f99979a20d4a7079899207a1970017b1768017b1860018217607b1798018217687b1790018217707b1788018217787b1780013307330850209e03f2bdfe7b1778330733085020a003e4bdfe4821a0014921d8014921d0014921c8014921c00195186001978820988620951880019788209888209519c001979920d4890a821b7897bb2098bb209777209877209518a001978820d4780c3308ff3309ff64670a01520773049551c0fd8210380282153002821628029511400232003307403308205020a20368bdfe7c78117c79107c7a127c7b13978808d4980897aa1097bb18d4ba0ad4a8087c79157c7a147c7b167c7c17979908d4a90997bb1097cc18d4cb0bd4b909979920d489027c79017c7a7c7b027c7c03979908d4a90997bb1097cc18d4cb0bd4b9097c7a057c7b047c7c067c760797aa08d4ba0a97cc10976618d46c0cd4ca0a97aa20d4a9097c7a197c7b187c7c1a7c761b97aa08d4ba0a97cc10976618d46c0cd4ca0a7c7b1d7c7c1c7c761e7c781f97bb08d4cb0b976610978818d46808d4b808978820d48a0a7c78097c7b087c7c0a7c760b978808d4b80897cc10976618d46c0cd4c8087c7b0d7c7c0c7c760e7c770f97bb08d4cb0b976610977718d46707d4b707977720d487076f766fa86f996f277b17787b1970d497076489d46808d47808988820d46707977720d4870752071f037b196883973308207b17605020a40326bcfe46171f46171e46171d46171c46171b46171a46171946171846171746171646171546171446171346171246171146171046170f46170e46170d46170c46170b46170a461709461708461707461706461705461704461703a00046170279461701c300460708821868958704d88708821a78c88a09d8a90ada880ac86a0ad86a08821b70c88b0b7b1908017b1700017b1a100195172001951800017b1b18015020a6031159ff821728018212380182132001821a30012807023307403308205020a80361bbfe7c78117c79107c7a127c7b13978808d4980897aa1097bb18d4ba0ad4a8087c79157c7a147c7b167c7c17979908d4a90997bb1097cc18d4cb0bd4b909979920d489027c79017c7a7c7b027c7c03979908d4a90997bb1097cc18d4cb0bd4b9097c7a057c7b047c7c067c760797aa08d4ba0a97cc10976618d46c0cd4ca0a97aa20d4a9097c7a197c7b187c7c1a7c761b97aa08d4ba0a97cc10976618d46c0cd4ca0a7c7b1d7c7c1c7c761e7c781f97bb08d4cb0b976610978818d46808d4b808978820d48a0a7c78097c7b087c7c0a7c760b978808d4b80897cc10976618d46c0cd4c8087c7b0d7c7c0c7c760e7c770f97bb08d4cb0b976610977718d46707d4b707977720d487076f766fa86f996f277b17787b1970d497076489d46808d47808988820d46707977720d48707520718017b196883973308207b17605020aa031fbafe46171f46171e46171d46171c46171b46171a46171946171846171746171646171546171446171346171246171146171046170f46170e46170d46170c46170b46170a461709461708461707461706461705461704461703a00046170279461701c300460708821868958704d88708821a78c88a09d8a90ada880ac86a0ad86a08821b70c88b0b7b1988007b1780007b1a90009517a000951880007b1b98005020ac03bbf48217a8008212b8008213a000821ab00001821878d3870bd8870c6484821968d89308dab80cc96a0bd86a0a821670c96206c9a606d8cb0ac9a606c9cb0bc94707c98708c99307d46808d4b709d48909d4b808989920978820d49808510868005020ae03622fff4921f0004921e8004921e000140700000000717b484e9518e0007b17f80033075020b0039eb9fe4921d8004921d0004921c000113307049518c0004921c8005020b2037fb9fe33082433075020b403c3b8fe83783307013309240a0b01837682176064685020b603aab8fe837833070164693300b8030a0b019511b07b10487b15409515508411f08272827308827b10827718828c828908828a108288187b18187b1a107b19087b1c7b17387b1b307b132895172064187b12205020ba0369ee9551b0821048821540951150320033075020bc03e2b9fe3307015020be03d8b9fe9511807b10787b15707b1668951580008411f08282828308828410828818829a829b08829c1082991864767b19187b1c107b1b087b1a7b18387b14307b132895174095182064197b12205020c003bcc6fe821750821858821940821a487b67107b68187b697b6a0895518082107882157082166895118000320049489220248414d249922425494b2a252da9944c49494952525242554a529224499224499224499224499224499224499224499294948644888888242124499224499224499224495292a44992249224494292244992244992242222929292444444444444521111111122928a881011111149454448448488a49284244992244992244952922449922449922449922449922449922449922449922449559224c90aa596425524a424499224499224499224499224499224499224499224499224499224499224492a54082184d414aa3449928490244992244992244992a49024549a4010444040402222224992124440404022222211115112814022222211115102811042088988884444440921499224494a5249484992244992244992244992244992244992244992244992244992244992244992542529a58888489224254948922449922449922449922449922449922449922449922449529224499224499254254992244992244992244952494a244992489242955292244992244992244992244992244992a424499224499292248988889204901492481252284993925492244992a842d59042922449922449922429499224499224492a8024a948922449922449922449922449922449924a499224ad504a9394a49224494992244922252925542925499224499224499224499224499224494a9224499224499224494a92244d92242549924492244992249584a4244992244992244992244992244992a2142249922449922449922449922401245524214992244992244912111111119192244992a42449d2244922122aa592244992244992244992244992244992242549922449121111252149922449922449929424499224499224499224499224499224499224499224495295a4244922a590244992244992244992242142922449922449129224494992244992244992ac42294d924a9248924a922449922449922449494a49a2244992244ad2240124802495244992244d92249524495292244912ad504a9394a44a292549922449922449922449922449922449922449922429099124499224499224499224492914291289440a29a5244992244992244992244992244992244992948424499224499224499224499224499224499224499224494aa14811119552222212111122229524499224221291884444848848452291489292244992242222222244442a92884422222244442a92884422222244442a1211912449922449922449524444141191a488449248928824492a49929224494992444aa22412a1a8244992244992244992a424499224499224492212400091284a4412528a5292244992244992244992244992244992a424499224492251944892244512922449922449922449922449000144a2a8489224451292244992244992244992242991284a444422492491484992222221499224499224499224499222892249444423229244888888081111212222222222222222221211112949529224494944444444444444241289442291482412894492202549922449922449922449922449922449922449922449922449922449922449522945944824128944229148241289888888888888888888888888204592244922222249922422499224499215945a0555342949a55441299a244992922449aa2625a9942449d20a4ad1888848924a92242549922429499224294929499424499244499a24800490a414499224499a24492a920092942249923449924a9224494a9224492222a2152928459394a42222924488888808111141242222222222922449922449822448922449922449922425499224499224499224499224499224499224499224499254254992aca05491822a9a249124a524499292244992244992a424a524294992242925499292245a41299a249224699224891092922449454444a42449522409922449922449922449499224499224499224499224499224499224499224499224554992242b2855a4a08a264942484a9224151111914a92242992044992244992244992a4244992244992244992244992244992244992244992244992aa24499215942a5250459394a4222222492a499294244992a4244992a424a5245192244912256992001240925224499224699224a9480248524a9224294992244992244992141111ad4841291a1111898888464424891011111122228248444444444424499224499204499024499224499224494a9224499224499224499224499224499224499224499224a94a92245941a92205553455508a4644444a4a922449922449922449224992244912254d92a4489224499224499224499224499224499224494a922489888856508a464444924a922449929424499224a9245192244992248a344900492a22914824894644524492244992244992484422111111114444444424499224494a2222a21594a21111911011111122228248444444444424499224892449208a4422499024499224499224494a9224499224499224499224499224499224499224499224a94a9224590a2aa594244992244992244992244992244992242949922449921494a24992240124054952821494449324494a9224499292244929254992942480a420494a9082926892242549490aaa949224499224499224499224499224499224499224499294829292a42a494a921411114922912892944824121111212252232292244992a42449929294884444442292248928414a4992244992a424499224494a9224499224494a9224499224492449248924222201442a124950519224491225499224499228499224499244495292244992242949414a2925499224499224499224499224499224494a922449922405459a4411295524a28888a88a4422232222222222424ad2449248922491449224499244241289129424499224494a92244992a494244992244992942449922449249188249244124922499224124924892491882249922449924492942422221a11014414448444042928892649a42425294949921224495292244a4992244992244992244992244992244992244992244992244992244992244992944a29128944444444044524224992244992244992a424499224499224a9a44449922449924892822aa52449922449922449922449922449922449499224499224254912111125092029482249908292684444a44824921414455192244992244992244992244992244992244992244992922092244992244992244992242905458a88a8288a888888880811914a22492491884844221211112222158944229144922412111111111191922429492412894422892491242222222244442a2291482491249248444444448888542492244992244992244992a4884844449424494a922491a424494949902449922492244992244992244992244992244992244992244992244992242549922449922449094a922449922449922449922449922449922449922449922480a492124992545425499224912449922425a920a9a014244992244992244992244994204992244992244992244992940092242949524992a41111912445249244924449925492242549929224899444914422288a9224499224499224499292244992244992248948000144a2281149905294922449922449922449922449922449922425499224491289a244442412492491882408499224499224499224499214111111894422221241000144a228222222222209524a294992244992244992244992244992244952922449922491284aa4244911099224499224499224499224298922914844443422224984102922222222228888888888888888442291482412894422914812a424499224499224499224499224499224499224499224499224499224499224492aa588128944229148241289442211111111111111111111111111a4489224494444244992442449922449b28252aba08a264942484a9224154882244992244992244952922449922449922449922449922449922449922449922449559224c90a4a1529a8a249124952499224499224499224294929499424499244499a248024952449922425499224499292245a41291a11114992344992440891229148448a884892244992049220499224499224499294244992244992244992244992244992244992244992244952952449b28252450aaa6892a492244992a45441299a24559224952249922449922449922449922449922449922449922449922449922449922449922449922449922449922449922449922449922449922449922449922449922449922429499224499224499224552529494a9224114292244948229592244982244992244992244952922449922449922449922449922449922449922449922449559224c90a4a2d0595524a922449922449922449922449922449929424499224490a4ad12409a184aa2194104248529234499244082124a11a422224242409922449922449922449499224499224499224499224499224499224499224499224554992242b28354949504a49922449922449922449499224499224499224094ad12425a924495292244924499224495249909424499224499224499224499224495294824892244992244992244992244900491549902449922449922449924444444a9224499292244923222229494a922425499212118988881011a911114912111122224244a422224444442455922449241289442211914444448824128922912812894411252222222244442a22222242445211115112244992244992244992922449922449922449922449922449922449922449922449aa92942449a4244892244992244992244992102149922449222222828888242549922449922449b21494a2494a92249154122449922449922449229248229248294d922425499244922449922495044949922449922449922449922449922445298824499224499224499224499204905491044992244992244992888888888894244992242549922649929224492249922449924a82a4244992244992244992244992244992a214449224499224499224499224490248aa4882244992244912111111111111119192244992a42449d2244952922449244992244952499094244992244992244992244992244952948248922449922449922449922449004915499024499224494444444444444444a42449922429499234499224489224499224499224254992244992244992244992244992244992244992244992544a6992244992924a82949aa4c952508a2649929224492249499224499254099224499224499224499224a924254992a421224422144534224288a494a424848424492488a2284a249144124924914422492491441249249148248924924822892412494a922449922449224912449224499224499224499224a5a0481111111149a4208aa224499224491249922449922491244992244992242909922449922449244992244992489224499224912449922449292852444455922449128988888888881011a9111111111111112222352222222222222244442a22220811111111111191540a229148241289442291482412894422914824499224499224128944491049922449922449922449929482228d48441211115114459124499244222222224244a422222222924812492422222222222244446a44442291441249928888888888880811911a11114924124944922422894422894822442422222222222222221511111111111111114945a224924424222222222a101588888848228924922492a42309244992244992244992922449922449922449922449922449922449922449922449aa92244944510a24499224499224499224495224054208212222222222222222114552444494049224499224499224494992244992244992244992244992244992244992244992245511294992881281244992244992244992240911124924492211111141444492409224499224499224294992244992244992244992244992244992244992244992a42a222549125122902449922449922449922421422289244924222222888848124892244992244992242549922449922449922449922449922449922449922449925445a42449224a04922449922449922449922444482491248944444404111123299224922449922449061111404481889088400a94b428508a4644222549494a922449922449124444a22449529224492449922449524920294992244992244992244992244992a42805224992244992244992244992240124552481244992244912114944444444242225499224494992a44992a42449924892244992a4924052922449922449922449922449922449510a449224499224499224499224490248aa4802499224499224111111111111119192244992a42449d2524a494a92244992244992244992244992244992244992244992241049922449922449922449929402458a44229128224a495292144829499224499224294992244992244992244992249024499224499224499224499224499224499224499224494a812245445425499224129188880811911a11894422222244446a442412494444848848454484884422111111915414894492409224499224499224294992244992244992244992244992244992244992244992a42a4992444a4a9294a4022184101191482412292522a248454444492049922449922449929424499224499224499224499224499224499224499224495295a424492225812449922449922449922409119224499224492441444492409224499224499224294992244992244992244992244992244992244992244992a42a494992444a0249922449922449922449122224499224494444441011314949922449922449922c054ad124254992482a092449922449922449928824922429a54992a42449924892244992a4924052922449922449922449922449922449510a449224499224499224499224490248aa48024992244992244992242222222225499224494992a44992a42449924892244992a4924052922449922449922449922449922449510a449224499224499224499224490248aa48024992244992244992241111119192244992a42449d294524a52922449922449922449922449922449922449922449128824499224499224499224494a8122454494524a1411a524294992482412111121225223224992249294a49a2425892425a992a492244992244922914844448488488d88489224494a92942449929224492412894444448888542291481489442222a988882809244992244992244992922449922449922449922449922449922449922449922449aa92942449222581244992244992244992240911922449922411111141444492409224499224499224294992244992244992244992244992244992244992244992a42a49499224521248922449922449922449921021499224499224499024939424499224499224494644001105224222022950d29240493422229292a4244952922429119188880811911a119124111121222244442a22424444445225499244229148241211494444844892242591288a442229222222222244442a22222242445211115112489224499224499224254992244992244992244992244992244992244992244992542529499248492049922449922449922449428424499224898888082222929424499224499224c952a0144d52922489a492409224499224494444444422492292529a24494a92248924499224492a092425499224499224499224499224499214a5402449922449922449922449922480a48a24902449922449121111111111111129499224494a92242d8aa22425924822892492482492482289249248229148228924924822492249922449922449124992402449922449922449922449520a142922a2288a228a88521229894444444444448488488d884412492410894422912449922449922412894422914824128944229148248a24814892244992244992244992a414285244444444122910455192244992249124499224492249922449224992a4249024499224492249922449924492244992248924499224494a812245445445124992484444444444448888d488882411492449221111454444448888d4888888888888881011a9888848444444444444249504922449922449922449499224499224499224499224499224499224499224499224554992244a8194524a922449922449922449922449922449929424499224490a84104244444444444444444414491111111111112122521111111111111111112222151151a2245192888888a8405420222222892492489248928e88882809244992244992244992922449922449922449922449922449922449922449922449aa225292241125024992244992244992244912222492489244222222828888248124499224499224495292244992244992244992244992244992244992244992244955444a9224a244204992244992244992244942844412499248444444101131922249224992244992645014284523229192a42425499224499224092222519224294992249224499224a924909424499224499224499224499224495294029124499224499224499224499200922a92409224499224499224898888884849922449529224699224294992249224499224a924909424499224499224499224499224495294029124499224499224499224499200922a92409224499224499288888888888894244992242549922649929224492249922449924a02494992244992244992244992244992244529104992244992244992244992240920a92209244992244992248988888888884849922449529224694444244992542449524a92a42449922489888808444424499224911248922449922449922449922449929224499224294992244952922449922429499224499294249224499244922449124900a9489224494a2550d22449922449922449922449a204922449922449922449922449a52449444434220288281011121148819256a0148d888894a424a12425499224254892a4444444111191a424154992949424252549a0524a499224499224499224499224499224499292244992244981224d52929224499214915495244992244992244992244992244922aa9224499224499224499224499224519249222222222222a9482412111111494d9224499224499224492222228a8888242922492249244952a2249024499224499224494a922449922449922449922449922449524a49922812492291482412219148242222222235222249529224254992522491482489442291248912914844221189444444044949528924892405524a25499224499224499224499224499224494a9224499224058a3422a2a828121111492489242295004a92a452499224499224491249499224912449922449922491244922492449924892244962442412492289442249922449a2045292244992244992244992244992244992244992244992244992244992244992245511111111111111494d2211492491449248224992244922511549924822220144a22249204992244992244992244992244992244922499224499224499248499224499224491211111111111111111111111111111111044110822008421004410882200801440011404444444444124992244992244992244992244992244992244992244992244952922449922449929428454992244992244992a43249922411914492249224922449922881244992244992244922499224499224499224499224499224495292244992244992444444444444444444444444444444440441108420088210044110822008420011400410111111119144922449922449922449922449922449922449922449922449929424499224499224514a291111111111111149659224499224894422111151d5444444448c482a22221a1101441488088988888800220a4484440452a0249a24294949929424254892222222494a124992249244a2882490244992244992244992244992244992244992244929258988888888881011a948241111111191484424354900092092524492489248922449202549922449922449922449922449922449922449922449922449922449922449124a2925914824222222221589442291482422929a44528a4812491249922409a42449922449922449922449922449922449922449922449922449922449922449aa1289442222222208200144528a4812491249922409a424499224499224499224499224499224499224499224499224499224499224494229a524128944444444a422914824128944445293484a11894422894492482490244992a424499224499224499224499224499224499224499224499224499224492811111111111111918a888824222222222222928a888846442429224922499124499124494992a424494a4981544a4992244992244992244992244992244992922449922411092080a4a84492404a2925499224499224499224499224499224494a9224499224894a2449124924490291244992244992244992244992244952a404a22449922449529224499224254992244992942449922449922449929444922449240920494544249224914451052ad1482449124924499224499228812449922449922449922449522480449214492a49444423222225292211492429118948924422512451926aa42492482289244912111111112222352222924892248948449244444444848848454444444444442415454422922849154992948820220211111189249124899292244a1289404a9124499224499294244992244992244992248948000920124549220944511425499224499224499224499224499224494a92244912924444444444444444444444440449248a221289442209a4945292244992244992244992244992244992a42449922449000920124589480229a5942449922449922449922449922449922429499224499244a2281191402449922449922449922449520aa414454992244992244992244992244992244992244992244992a4241049922449922449922449929402458a88a88a88888888888808a2482422899254512412491248499224499224499224499224499224499224499224499224499224499224499214a51411111111111111118988888888888888888888888820914492245144442491248944249124499224a2a424929288221042081111894422114591888822519224124544444920499224499224499294244992244992244992244992244992244992244992244952159192449288128124499224499224499224091112492489241211111144442409244992244992244992922449922449922449922449922449922449922449922449aa22529248125122902449922449922449922421422289249144222222828888248124499224499224495292244992244992244992244992244992244992244992244955444a1249224a04922449922449922449922444482491249248444444101131922289249224499224494644001105224222022950d2220225a2111191942425221211112122522322922422224444848848454488888848aa244992888810a948241229222222222244442a222222424452111151124892244992244992242549922449922449922449922449922449922449922449925425294992482990244992244992244992242142922449922449124892242549922449922449b20a94a2494a9224914a20499224499224499224228988a4d22449529224492449922449524920294992244992244992244992244992a428052249922449922449922449922401245524812449922449922449928888884849922449529224699224294992249224499224a924909424499224499224499224499224495294029124499224499224499224499200922a9240922449922449924444444444444a922449929224499324494992249124499224492581a4244992244992244992244992244992a214882449922449922449922449920490549104922449922449928888888888884849922449529224694444244949224992449248149104922449922449922449922449922449922449922429a524111111111111222215892422222222128988a42609200144528a4812491249922409a424499224499224499224499224499224499224499224499224499224499224494229a524128944444444a422914824128944445293484a114922914422492409244992242949922449922449922449922449922449922449922449922449922449522222221211112122521111914444444444444452034800919422492049922449922449922449922449922449922449922449922429499224499224499222222212111121225211110989888848444444243589a41489049224499224499224499224499224499224499224499224499292244992244992242922222211111122221511912011111189888888a42222a2511445494a249144124924914824914412492491442291441249249144128924499224499224492449029124499224499224499224492950a48888aa4412492291888888881011a991242949959224492491249248444444448888d48888244992244902914824128944924892244992245124128944229148241289442291241049922449922449922449929402458a888888882222a52429490aa494244992244992a42449922449922449922449924024499224499248922449922491244992244922499224499252a0481111554992241111111121225223229224514424228992549124498908222210111149244992244a4a92282912814a9124499224499294244992244992244992244912400288445192480229a5942449922449922449922449922449922429499224499244a228492481244992244992244992244912400288445149248124499224499224499224499244a2a8884820499224499224499224499294029148241289442291482412894422914824922449922449128944a2241049922449922449922449929402458a8888888822224a49a42452208a2249922449922429499224499224499224499224104992244992249224499224492449922449924892244992a414285244445522111111111111441111114994a48a4422512481244992244992244952922449922449922449922449922449922449922449922449559224892851125192281288a2284a92244992244992244992244992244992942449922449221042081111111111115114898828922222a2249024499224499224494a9224499224499224499224499224499224499224499224a98a4849224944894092244992244992244992840889249244128988880822229204922449922449922449499224499224499224499224499224499224499224499224551129492489281148922449922449922449921021914492482211111141444492409224499224499224294992244992244992244992244992244992244992244992a42a22258924112502499224499224499224491222249248124924222222888818499144124992244992248b08948826494a92a482242922229292a4244952222211111122223522224922224244448888544484888888a44a9224499224494444882449524a922445444444448488484544444488482a22224a024992244992244992a4244992244992244992244992244992244992244992244992aa2425491229092449922449922449922449889024499224111111818888242549922449922449b214284593942449229540922449922449922449442411914a9324494992249124499224492581a4244992244992244992244992244992a2148824499224499224499224499204905491049224499224499224492222222225499224494992a4a59492942449922449922449922449922449922449922449920422499224499224499224499252a0481111a59412454429494a9244229188880811911a11499224922449922491482422224244a446442449922449924824128988881011a91111499224494a92449224499224492991482422224244a42291482412892222a944229188880811918a88529292444422914854201588888848228924491249d2111111258124499224499224495292244992244992244992244992244992244992244992244955929224899404922449922449922449922444489224499288888840444492409224499224499224294992244992244992244992244992244992244992244992a42a494992444a0249922449922449922449122224499224494444441011314949922449922449920c4444001105224222022950d252a0144d9294a424494a921224490512489248494a529292242590244949920800"
				},
				"methodIdentifiers": {
					"arbiter()": "fe25e00a",
					"buyService(uint256)": "c594e5ec",
					"createService(uint256,string)": "bdfdeb87",
					"deliver(uint256,address,bytes32)": "bb0297da",
					"nextServiceId()": "f6c53d9b",
					"purchases(uint256,address)": "1c09e5c6",
					"raiseDispute(uint256)": "a5c1674e",
					"resolveDispute(uint256,address,bool)": "64db84e6",
					"services(uint256)": "c22c4f43",
					"topUpStake(uint256)": "ac06e04f",
					"withdrawStake(uint256,uint256)": "f1fdf469"
				}
			},
			"hash": "979de5769c32d5cc6472be897c7ea11965df9b72031eacf73d59877ab852c5ef",
			"factoryDependencies": {}
		}
	}
}