{
	"data": {
		"bytecode": {
			"linkReferences": {},
			"object": "6080604052348015600e575f5ffd5b506159888061001c5f395ff3fe60806040526004361061007e575f3560e01c8063a269eeb41161004d578063a269eeb41461019e578063de1c5488146101ce578063eaa3668f146101f9578063faf0bbbf14610215576100be565b80630a790eb7146100c257806319dc5716146100fe57806369d26933146101265780638fee640714610162576100be565b366100be576040517f08c379a00000000000000000000000000000000000000000000000000000000081526004016100b590610f99565b60405180910390fd5b5f5ffd5b3480156100cd575f5ffd5b506100e860048036038101906100e39190610ff2565b610231565b6040516100f5919061105c565b60405180910390f35b348015610109575f5ffd5b50610124600480360381019061011f91906110a8565b610260565b005b348015610131575f5ffd5b5061014c600480360381019061014791906110e6565b6104b5565b6040516101599190611120565b60405180910390f35b34801561016d575f5ffd5b5061018860048036038101906101839190610ff2565b6104d5565b6040516101959190611148565b60405180910390f35b6101b860048036038101906101b391906111ec565b6104ea565b6040516101c5919061105c565b60405180910390f35b3480156101d9575f5ffd5b506101e261075f565b6040516101f0929190611431565b60405180910390f35b610213600480360381019061020e9190610ff2565b6108b4565b005b61022f600480360381019061022a919061149b565b610aa5565b005b5f602052805f5260405f205f915054906101000a900473ffffffffffffffffffffffffffffffffffffffff1681565b5f5f5f8481526020019081526020015f205f9054906101000a900473ffffffffffffffffffffffffffffffffffffffff1690505f73ffffffffffffffffffffffffffffffffffffffff168173ffffffffffffffffffffffffffffffffffffffff1603610301576040517f08c379a00000000000000000000000000000000000000000000000000000000081526004016102f890611535565b60405180910390fd5b5f8190508073ffffffffffffffffffffffffffffffffffffffff1663085d48836040518163ffffffff1660e01b8152600401602060405180830381865afa15801561034e573d5f5f3e3d5ffd5b505050506040513d601f19601f820116820180604052508101906103729190611567565b73ffffffffffffffffffffffffffffffffffffffff163373ffffffffffffffffffffffffffffffffffffffff16146103df576040517f08c379a00000000000000000000000000000000000000000000000000000000081526004016103d6906115dc565b60405180910390fd5b60025f8581526020019081526020015f2054831115610433576040517f08c379a000000000000000000000000000000000000000000000000000000000815260040161042a9061166a565b60405180910390fd5b8260025f8681526020019081526020015f205f82825461045391906116b5565b925050819055506104643384610e85565b837f64b42729c893e3b5f300276ef3057e004bd614dfc15219a30a3b069ec43869338460025f8881526020019081526020015f20546040516104a79291906116e8565b60405180910390a250505050565b600181815481106104c4575f80fd5b905f5260205f20015f915090505481565b6002602052805f5260405f205f915090505481565b5f5f8989905011610530576040517f08c379a000000000000000000000000000000000000000000000000000000000815260040161052790611759565b60405180910390fd5b86341015610573576040517f08c379a000000000000000000000000000000000000000000000000000000000815260040161056a906117e7565b60405180910390fd5b5f8989604051610584929190611841565b604051809103902090505f73ffffffffffffffffffffffffffffffffffffffff165f5f8381526020019081526020015f205f9054906101000a900473ffffffffffffffffffffffffffffffffffffffff1673ffffffffffffffffffffffffffffffffffffffff161461062b576040517f08c379a0000000000000000000000000000000000000000000000000000000008152600401610622906118c9565b60405180910390fd5b5f3082338b8b8b8b8b8b60405161064190610f32565b61065399989796959493929190611923565b604051809103905ff08015801561066c573d5f5f3e3d5ffd5b509050805f5f8481526020019081526020015f205f6101000a81548173ffffffffffffffffffffffffffffffffffffffff021916908373ffffffffffffffffffffffffffffffffffffffff160217905550600182908060018154018082558091505060019003905f5260205f20015f90919091909150553460025f8481526020019081526020015f20819055503373ffffffffffffffffffffffffffffffffffffffff16827f55617356247c187daefc7e9c394e92ac79246493b4da24a6d351d4076f9bac4d8d8d853460405161074694939291906119a2565b60405180910390a3809250505098975050505050505050565b60608060018054806020026020016040519081016040528092919081815260200182805480156107ac57602002820191905f5260205f20905b815481526020019060010190808311610798575b50505050509150815167ffffffffffffffff8111156107ce576107cd6119e0565b5b6040519080825280602002602001820160405280156107fc5781602001602082028036833780820191505090505b5090505f5f90505b82518110156108af575f5f84838151811061082257610821611a0d565b5b602002602001015181526020019081526020015f205f9054906101000a900473ffffffffffffffffffffffffffffffffffffffff1682828151811061086a57610869611a0d565b5b602002602001019073ffffffffffffffffffffffffffffffffffffffff16908173ffffffffffffffffffffffffffffffffffffffff1681525050806001019050610804565b509091565b5f5f5f8381526020019081526020015f205f9054906101000a900473ffffffffffffffffffffffffffffffffffffffff1690505f73ffffffffffffffffffffffffffffffffffffffff168173ffffffffffffffffffffffffffffffffffffffff1603610955576040517f08c379a000000000000000000000000000000000000000000000000000000000815260040161094c90611535565b60405180910390fd5b8073ffffffffffffffffffffffffffffffffffffffff1663085d48836040518163ffffffff1660e01b8152600401602060405180830381865afa15801561099e573d5f5f3e3d5ffd5b505050506040513d601f19601f820116820180604052508101906109c29190611567565b73ffffffffffffffffffffffffffffffffffffffff163373ffffffffffffffffffffffffffffffffffffffff1614610a2f576040517f08c379a0000000000000000000000000000000000000000000000000000000008152600401610a26906115dc565b60405180910390fd5b3460025f8481526020019081526020015f205f828254610a4f9190611a3a565b92505081905550817f077a7ccf44b26a4e3477c9abb31e09a68f3d67436717d4ffa709adb2949dc70b3460025f8681526020019081526020015f2054604051610a999291906116e8565b60405180910390a25050565b5f5f5f8581526020019081526020015f205f9054906101000a900473ffffffffffffffffffffffffffffffffffffffff1690505f73ffffffffffffffffffffffffffffffffffffffff168173ffffffffffffffffffffffffffffffffffffffff1603610b46576040517f08c379a0000000000000000000000000000000000000000000000000000000008152600401610b3d90611535565b60405180910390fd5b5f8190508073ffffffffffffffffffffffffffffffffffffffff1663a035b1fe6040518163ffffffff1660e01b8152600401602060405180830381865afa158015610b93573d5f5f3e3d5ffd5b505050506040513d601f19601f82011682018060405250810190610bb79190611a81565b341015610bf9576040517f08c379a0000000000000000000000000000000000000000000000000000000008152600401610bf090611af6565b60405180910390fd5b8215610dbd578073ffffffffffffffffffffffffffffffffffffffff1663a035b1fe6040518163ffffffff1660e01b8152600401602060405180830381865afa158015610c48573d5f5f3e3d5ffd5b505050506040513d601f19601f82011682018060405250810190610c6c9190611a81565b60025f8781526020019081526020015f20541015610cbf576040517f08c379a0000000000000000000000000000000000000000000000000000000008152600401610cb690611b84565b60405180910390fd5b8073ffffffffffffffffffffffffffffffffffffffff1663a035b1fe6040518163ffffffff1660e01b8152600401602060405180830381865afa158015610d08573d5f5f3e3d5ffd5b505050506040513d601f19601f82011682018060405250810190610d2c9190611a81565b60025f8781526020019081526020015f205f828254610d4b91906116b5565b925050819055508073ffffffffffffffffffffffffffffffffffffffff166388985ec5856040518263ffffffff1660e01b8152600401610d8b9190611148565b5f604051808303815f87803b158015610da2575f5ffd5b505af1158015610db4573d5f5f3e3d5ffd5b50505050610e24565b8073ffffffffffffffffffffffffffffffffffffffff1663df686ded856040518263ffffffff1660e01b8152600401610df69190611148565b5f604051808303815f87803b158015610e0d575f5ffd5b505af1158015610e1f573d5f5f3e3d5ffd5b505050505b610e2e3334610e85565b3373ffffffffffffffffffffffffffffffffffffffff1684867fbc15360fdbc18726032673554343b47ea8c03297136da385c28550253778baf586604051610e769190611bb1565b60405180910390a45050505050565b5f8273ffffffffffffffffffffffffffffffffffffffff1682604051610eaa90611bed565b5f6040518083038185875af1925050503d805f8114610ee4576040519150601f19603f3d011682016040523d82523d5f602084013e610ee9565b606091505b5050905080610f2d576040517f08c379a0000000000000000000000000000000000000000000000000000000008152600401610f2490611c4b565b60405180910390fd5b505050565b613ce980611c6a83390190565b5f82825260208201905092915050565b7f466163746f72793a2064697265637420455448206e6f742061636365707465645f82015250565b5f610f83602083610f3f565b9150610f8e82610f4f565b602082019050919050565b5f6020820190508181035f830152610fb081610f77565b9050919050565b5f5ffd5b5f5ffd5b5f819050919050565b610fd181610fbf565b8114610fdb575f5ffd5b50565b5f81359050610fec81610fc8565b92915050565b5f6020828403121561100757611006610fb7565b5b5f61101484828501610fde565b91505092915050565b5f73ffffffffffffffffffffffffffffffffffffffff82169050919050565b5f6110468261101d565b9050919050565b6110568161103c565b82525050565b5f60208201905061106f5f83018461104d565b92915050565b5f819050919050565b61108781611075565b8114611091575f5ffd5b50565b5f813590506110a28161107e565b92915050565b5f5f604083850312156110be576110bd610fb7565b5b5f6110cb85828601610fde565b92505060206110dc85828601611094565b9150509250929050565b5f602082840312156110fb576110fa610fb7565b5b5f61110884828501611094565b91505092915050565b61111a81610fbf565b82525050565b5f6020820190506111335f830184611111565b92915050565b61114281611075565b82525050565b5f60208201905061115b5f830184611139565b92915050565b5f5ffd5b5f5ffd5b5f5ffd5b5f5f83601f84011261118257611181611161565b5b8235905067ffffffffffffffff81111561119f5761119e611165565b5b6020830191508360018202830111156111bb576111ba611169565b5b9250929050565b6111cb8161103c565b81146111d5575f5ffd5b50565b5f813590506111e6816111c2565b92915050565b5f5f5f5f5f5f5f5f60a0898b03121561120857611207610fb7565b5b5f89013567ffffffffffffffff81111561122557611224610fbb565b5b6112318b828c0161116d565b985098505060206112448b828c01611094565b965050604089013567ffffffffffffffff81111561126557611264610fbb565b5b6112718b828c0161116d565b955095505060606112848b828c016111d8565b935050608089013567ffffffffffffffff8111156112a5576112a4610fbb565b5b6112b18b828c0161116d565b92509250509295985092959890939650565b5f81519050919050565b5f82825260208201905092915050565b5f819050602082019050919050565b6112f581610fbf565b82525050565b5f61130683836112ec565b60208301905092915050565b5f602082019050919050565b5f611328826112c3565b61133281856112cd565b935061133d836112dd565b805f5b8381101561136d57815161135488826112fb565b975061135f83611312565b925050600181019050611340565b5085935050505092915050565b5f81519050919050565b5f82825260208201905092915050565b5f819050602082019050919050565b6113ac8161103c565b82525050565b5f6113bd83836113a3565b60208301905092915050565b5f602082019050919050565b5f6113df8261137a565b6113e98185611384565b93506113f483611394565b805f5b8381101561142457815161140b88826113b2565b9750611416836113c9565b9250506001810190506113f7565b5085935050505092915050565b5f6040820190508181035f830152611449818561131e565b9050818103602083015261145d81846113d5565b90509392505050565b5f8115159050919050565b61147a81611466565b8114611484575f5ffd5b50565b5f8135905061149581611471565b92915050565b5f5f5f606084860312156114b2576114b1610fb7565b5b5f6114bf86828701610fde565b93505060206114d086828701611094565b92505060406114e186828701611487565b9150509250925092565b7f466163746f72793a20756e6b6e6f776e207365727669636500000000000000005f82015250565b5f61151f601883610f3f565b915061152a826114eb565b602082019050919050565b5f6020820190508181035f83015261154c81611513565b9050919050565b5f81519050611561816111c2565b92915050565b5f6020828403121561157c5761157b610fb7565b5b5f61158984828501611553565b91505092915050565b7f466163746f72793a2063616c6c6572206973206e6f742070726f7669646572005f82015250565b5f6115c6601f83610f3f565b91506115d182611592565b602082019050919050565b5f6020820190508181035f8301526115f3816115ba565b9050919050565b7f466163746f72793a20696e73756666696369656e74207374616b652062616c615f8201527f6e63650000000000000000000000000000000000000000000000000000000000602082015250565b5f611654602383610f3f565b915061165f826115fa565b604082019050919050565b5f6020820190508181035f83015261168181611648565b9050919050565b7f4e487b71000000000000000000000000000000000000000000000000000000005f52601160045260245ffd5b5f6116bf82611075565b91506116ca83611075565b92508282039050818111156116e2576116e1611688565b5b92915050565b5f6040820190506116fb5f830185611139565b6117086020830184611139565b9392505050565b7f466163746f72793a206e616d652063616e6e6f7420626520656d7074790000005f82015250565b5f611743601d83610f3f565b915061174e8261170f565b602082019050919050565b5f6020820190508181035f83015261177081611737565b9050919050565b7f466163746f72793a207374616b65206d75737420636f766572206174206c65615f8201527f7374206f6e6520726566756e6400000000000000000000000000000000000000602082015250565b5f6117d1602d83610f3f565b91506117dc82611777565b604082019050919050565b5f6020820190508181035f8301526117fe816117c5565b9050919050565b5f81905092915050565b828183375f83830152505050565b5f6118288385611805565b935061183583858461180f565b82840190509392505050565b5f61184d82848661181d565b91508190509392505050565b7f466163746f72793a2073657276696365206e616d6520616c72656164792074615f8201527f6b656e0000000000000000000000000000000000000000000000000000000000602082015250565b5f6118b3602383610f3f565b91506118be82611859565b604082019050919050565b5f6020820190508181035f8301526118e0816118a7565b9050919050565b5f601f19601f8301169050919050565b5f6119028385610f3f565b935061190f83858461180f565b611918836118e7565b840190509392505050565b5f60e0820190506119365f83018c61104d565b611943602083018b611111565b611950604083018a61104d565b61195d6060830189611139565b81810360808301526119708187896118f7565b905061197f60a083018661104d565b81810360c08301526119928184866118f7565b90509a9950505050505050505050565b5f6060820190508181035f8301526119bb8186886118f7565b90506119ca602083018561104d565b6119d76040830184611139565b95945050505050565b7f4e487b71000000000000000000000000000000000000000000000000000000005f52604160045260245ffd5b7f4e487b71000000000000000000000000000000000000000000000000000000005f52603260045260245ffd5b5f611a4482611075565b9150611a4f83611075565b9250828201905080821115611a6757611a66611688565b5b92915050565b5f81519050611a7b8161107e565b92915050565b5f60208284031215611a9657611a95610fb7565b5b5f611aa384828501611a6d565b91505092915050565b7f466163746f72793a206172626974657220626f6e6420746f6f206c6f770000005f82015250565b5f611ae0601d83610f3f565b9150611aeb82611aac565b602082019050919050565b5f6020820190508181035f830152611b0d81611ad4565b9050919050565b7f466163746f72793a2070726f7669646572207374616b6520696e7375666669635f8201527f69656e7400000000000000000000000000000000000000000000000000000000602082015250565b5f611b6e602483610f3f565b9150611b7982611b14565b604082019050919050565b5f6020820190508181035f830152611b9b81611b62565b9050919050565b611bab81611466565b82525050565b5f602082019050611bc45f830184611ba2565b92915050565b50565b5f611bd85f83611805565b9150611be382611bca565b5f82019050919050565b5f611bf782611bcd565b9150819050919050565b7f466163746f72793a20455448207472616e73666572206661696c6564000000005f82015250565b5f611c35601c83610f3f565b9150611c4082611c01565b602082019050919050565b5f6020820190508181035f830152611c6281611c29565b905091905056fe6101006040526001600555348015610015575f5ffd5b50604051613ce9380380613ce9833981810160405281019061003791906104f6565b5f73ffffffffffffffffffffffffffffffffffffffff168773ffffffffffffffffffffffffffffffffffffffff16036100a5576040517f08c379a000000000000000000000000000000000000000000000000000000000815260040161009c90610625565b60405180910390fd5b5f73ffffffffffffffffffffffffffffffffffffffff168573ffffffffffffffffffffffffffffffffffffffff1603610113576040517f08c379a000000000000000000000000000000000000000000000000000000000815260040161010a9061068d565b60405180910390fd5b5f8411610155576040517f08c379a000000000000000000000000000000000000000000000000000000000815260040161014c906106f5565b60405180910390fd5b5f835111610198576040517f08c379a000000000000000000000000000000000000000000000000000000000815260040161018f9061075d565b60405180910390fd5b5f73ffffffffffffffffffffffffffffffffffffffff168273ffffffffffffffffffffffffffffffffffffffff1603610206576040517f08c379a00000000000000000000000000000000000000000000000000000000081526004016101fd906107eb565b60405180910390fd5b8673ffffffffffffffffffffffffffffffffffffffff1660808173ffffffffffffffffffffffffffffffffffffffff16815250508560a081815250508473ffffffffffffffffffffffffffffffffffffffff1660c08173ffffffffffffffffffffffffffffffffffffffff16815250508360e08181525050826001908161028d9190610a10565b508160025f6101000a81548173ffffffffffffffffffffffffffffffffffffffff021916908373ffffffffffffffffffffffffffffffffffffffff160217905550805f90816102dc9190610a10565b5050505050505050610adf565b5f604051905090565b5f5ffd5b5f5ffd5b5f73ffffffffffffffffffffffffffffffffffffffff82169050919050565b5f610323826102fa565b9050919050565b61033381610319565b811461033d575f5ffd5b50565b5f8151905061034e8161032a565b92915050565b5f819050919050565b61036681610354565b8114610370575f5ffd5b50565b5f815190506103818161035d565b92915050565b5f819050919050565b61039981610387565b81146103a3575f5ffd5b50565b5f815190506103b481610390565b92915050565b5f5ffd5b5f5ffd5b5f601f19601f8301169050919050565b7f4e487b71000000000000000000000000000000000000000000000000000000005f52604160045260245ffd5b610408826103c2565b810181811067ffffffffffffffff82111715610427576104266103d2565b5b80604052505050565b5f6104396102e9565b905061044582826103ff565b919050565b5f67ffffffffffffffff821115610464576104636103d2565b5b61046d826103c2565b9050602081019050919050565b8281835e5f83830152505050565b5f61049a6104958461044a565b610430565b9050828152602081018484840111156104b6576104b56103be565b5b6104c184828561047a565b509392505050565b5f82601f8301126104dd576104dc6103ba565b5b81516104ed848260208601610488565b91505092915050565b5f5f5f5f5f5f5f60e0888a031215610511576105106102f2565b5b5f61051e8a828b01610340565b975050602061052f8a828b01610373565b96505060406105408a828b01610340565b95505060606105518a828b016103a6565b945050608088015167ffffffffffffffff811115610572576105716102f6565b5b61057e8a828b016104c9565b93505060a061058f8a828b01610340565b92505060c088015167ffffffffffffffff8111156105b0576105af6102f6565b5b6105bc8a828b016104c9565b91505092959891949750929550565b5f82825260208201905092915050565b7f457363726f773a20666163746f7279206973207a65726f2061646472657373005f82015250565b5f61060f601f836105cb565b915061061a826105db565b602082019050919050565b5f6020820190508181035f83015261063c81610603565b9050919050565b7f457363726f773a2070726f7669646572206973207a65726f20616464726573735f82015250565b5f6106776020836105cb565b915061068282610643565b602082019050919050565b5f6020820190508181035f8301526106a48161066b565b9050919050565b7f457363726f773a207072696365206d757374206265203e2030000000000000005f82015250565b5f6106df6019836105cb565b91506106ea826106ab565b602082019050919050565b5f6020820190508181035f83015261070c816106d3565b9050919050565b7f457363726f773a20676174657761792063616e6e6f7420626520656d707479005f82015250565b5f610747601f836105cb565b915061075282610713565b602082019050919050565b5f6020820190508181035f8301526107748161073b565b9050919050565b7f457363726f773a2067617465776179207369676e65722063616e6e6f742062655f8201527f207a65726f206164647265737300000000000000000000000000000000000000602082015250565b5f6107d5602d836105cb565b91506107e08261077b565b604082019050919050565b5f6020820190508181035f830152610802816107c9565b9050919050565b5f81519050919050565b7f4e487b71000000000000000000000000000000000000000000000000000000005f52602260045260245ffd5b5f600282049050600182168061085757607f821691505b60208210810361086a57610869610813565b5b50919050565b5f819050815f5260205f209050919050565b5f6020601f8301049050919050565b5f82821b905092915050565b5f600883026108cc7fffffffffffffffffffffffffffffffffffffffffffffffffffffffffffffffff82610891565b6108d68683610891565b95508019841693508086168417925050509392505050565b5f819050919050565b5f61091161090c61090784610387565b6108ee565b610387565b9050919050565b5f819050919050565b61092a836108f7565b61093e61093682610918565b84845461089d565b825550505050565b5f5f905090565b610955610946565b610960818484610921565b505050565b5b81811015610983576109785f8261094d565b600181019050610966565b5050565b601f8211156109c85761099981610870565b6109a284610882565b810160208510156109b1578190505b6109c56109bd85610882565b830182610965565b50505b505050565b5f82821c905092915050565b5f6109e85f19846008026109cd565b1980831691505092915050565b5f610a0083836109d9565b9150826002028217905092915050565b610a1982610809565b67ffffffffffffffff811115610a3257610a316103d2565b5b610a3c8254610840565b610a47828285610987565b5f60209050601f831160018114610a78575f8415610a66578287015190505b610a7085826109f5565b865550610ad7565b601f198416610a8686610870565b5f5b82811015610aad57848901518255600182019150602085019450602081019050610a88565b86831015610aca5784890151610ac6601f8916826109d9565b8355505b6001600288020188555050505b505050505050565b60805160a05160c05160e051613198610b515f395f8181610965015261110d01525f81816104950152818161054501528181610b9d01528181610dee015281816114a3015281816114da01526115c301525f6112ea01525f8181610f59015281816112c6015261130e01526131985ff3fe608060405260043610610122575f3560e01c80638392fe311161009f578063da20ec6a11610063578063da20ec6a146103c7578063df686ded146103f1578063e726168714610419578063e735b48a14610441578063f3253c631461046957610129565b80638392fe31146102e357806388985ec514610323578063a035b1fe1461034b578063a5c1674e14610375578063c45a01551461039d57610129565b8063558eab4b116100e6578063558eab4b1461020f5780635c646b5a146102375780635ec96f751461025557806360595ac9146102915780637284e416146102b957610129565b8063085d48831461012d578063116191b61461015757806311acfb3d1461018157806323b4a7a3146101a957806329514482146101d357610129565b3661012957005b5f5ffd5b348015610138575f5ffd5b50610141610493565b60405161014e9190611b8d565b60405180910390f35b348015610162575f5ffd5b5061016b6104b7565b6040516101789190611c16565b60405180910390f35b34801561018c575f5ffd5b506101a760048036038101906101a29190611c71565b610543565b005b3480156101b4575f5ffd5b506101bd610682565b6040516101ca9190611cb4565b60405180910390f35b3480156101de575f5ffd5b506101f960048036038101906101f49190611d2e565b610688565b6040516102069190611dfe565b60405180910390f35b34801561021a575f5ffd5b5061023560048036038101906102309190611e48565b610738565b005b61023f610915565b60405161024c9190611cb4565b60405180910390f35b348015610260575f5ffd5b5061027b60048036038101906102769190611ed8565b610b3b565b6040516102889190611f25565b60405180910390f35b34801561029c575f5ffd5b506102b760048036038101906102b29190611f3e565b610b4e565b005b3480156102c4575f5ffd5b506102cd610e55565b6040516102da9190611c16565b60405180910390f35b3480156102ee575f5ffd5b5061030960048036038101906103049190611faf565b610ee0565b60405161031a959493929190611ff4565b60405180910390f35b34801561032e575f5ffd5b5061034960048036038101906103449190611faf565b610f57565b005b348015610356575f5ffd5b5061035f61110b565b60405161036c9190611cb4565b60405180910390f35b348015610380575f5ffd5b5061039b60048036038101906103969190611faf565b61112f565b005b3480156103a8575f5ffd5b506103b16112c4565b6040516103be9190611b8d565b60405180910390f35b3480156103d2575f5ffd5b506103db6112e8565b6040516103e89190611f25565b60405180910390f35b3480156103fc575f5ffd5b5061041760048036038101906104129190611faf565b61130c565b005b348015610424575f5ffd5b5061043f600480360381019061043a919061209a565b6114d8565b005b34801561044c575f5ffd5b506104676004803603810190610462919061209a565b6115c1565b005b348015610474575f5ffd5b5061047d611664565b60405161048a9190611b8d565b60405180910390f35b7f000000000000000000000000000000000000000000000000000000000000000081565b600180546104c490612112565b80601f01602080910402602001604051908101604052809291908181526020018280546104f090612112565b801561053b5780601f106105125761010080835404028352916020019161053b565b820191905f5260205f20905b81548152906001019060200180831161051e57829003601f168201915b505050505081565b7f000000000000000000000000000000000000000000000000000000000000000073ffffffffffffffffffffffffffffffffffffffff163373ffffffffffffffffffffffffffffffffffffffff16146105d1576040517f08c379a00000000000000000000000000000000000000000000000000000000081526004016105c8906121b2565b60405180910390fd5b5f73ffffffffffffffffffffffffffffffffffffffff168173ffffffffffffffffffffffffffffffffffffffff160361063f576040517f08c379a000000000000000000000000000000000000000000000000000000000815260040161063690612240565b60405180910390fd5b8060025f6101000a81548173ffffffffffffffffffffffffffffffffffffffff021916908373ffffffffffffffffffffffffffffffffffffffff16021790555050565b60035481565b60605f5f61069885858989611689565b9150915060025f9054906101000a900473ffffffffffffffffffffffffffffffffffffffff1673ffffffffffffffffffffffffffffffffffffffff168273ffffffffffffffffffffffffffffffffffffffff161461072b576040517f08c379a0000000000000000000000000000000000000000000000000000000008152600401610722906122ce565b60405180910390fd5b8092505050949350505050565b5f60045f8581526020019081526020015f20600101541161078e576040517f08c379a000000000000000000000000000000000000000000000000000000000815260040161078590612336565b60405180910390fd5b5f600167ffffffffffffffff8111156107aa576107a9612354565b5b6040519080825280602002602001820160405280156107dd57816020015b60608152602001906001900390816107c85790505b509050600180546107ed90612112565b80601f016020809104026020016040519081016040528092919081815260200182805461081990612112565b80156108645780601f1061083b57610100808354040283529160200191610864565b820191905f5260205f20905b81548152906001019060200180831161084757829003601f168201915b5050505050815f8151811061087c5761087b612381565b5b6020026020010181905250308184848760405160200161089e939291906123e8565b604051602081830303815290604052632951448260e01b876040516020016108c69190611cb4565b6040516020818303038152906040526040517f556f183000000000000000000000000000000000000000000000000000000000815260040161090c959493929190612555565b60405180910390fd5b5f60016005541461095b576040517f08c379a000000000000000000000000000000000000000000000000000000000815260040161095290612605565b60405180910390fd5b60026005819055507f000000000000000000000000000000000000000000000000000000000000000034146109c5576040517f08c379a00000000000000000000000000000000000000000000000000000000081526004016109bc9061266d565b60405180910390fd5b60035f8154809291906109d7906126b8565b9190505590506040518060a001604052803373ffffffffffffffffffffffffffffffffffffffff1681526020013481526020015f151581526020015f151581526020015f151581525060045f8381526020019081526020015f205f820151815f015f6101000a81548173ffffffffffffffffffffffffffffffffffffffff021916908373ffffffffffffffffffffffffffffffffffffffff160217905550602082015181600101556040820151816002015f6101000a81548160ff02191690831515021790555060608201518160020160016101000a81548160ff02191690831515021790555060808201518160020160026101000a81548160ff0219169083151502179055509050503373ffffffffffffffffffffffffffffffffffffffff16817f6989fd04c5bc56c8995f68ff4d4a94e67e56cf4efa352219e731185ac2736df534604051610b289190611cb4565b60405180910390a3600160058190555090565b5f610b46838361175f565b905092915050565b600160055414610b93576040517f08c379a0000000000000000000000000000000000000000000000000000000008152600401610b8a90612605565b60405180910390fd5b60026005819055507f000000000000000000000000000000000000000000000000000000000000000073ffffffffffffffffffffffffffffffffffffffff163373ffffffffffffffffffffffffffffffffffffffff1614610c29576040517f08c379a0000000000000000000000000000000000000000000000000000000008152600401610c20906121b2565b60405180910390fd5b5f60045f8681526020019081526020015f209050806002015f9054906101000a900460ff1615610c8e576040517f08c379a0000000000000000000000000000000000000000000000000000000008152600401610c8590612749565b60405180910390fd5b8060020160019054906101000a900460ff1615610ce0576040517f08c379a0000000000000000000000000000000000000000000000000000000008152600401610cd7906127b1565b60405180910390fd5b5f610ceb868661175f565b90505f610d3b8286868080601f0160208091040260200160405190810160405280939291908181526020018383808284375f81840152601f19601f82011690508083019250505050505050611793565b9050825f015f9054906101000a900473ffffffffffffffffffffffffffffffffffffffff1673ffffffffffffffffffffffffffffffffffffffff168173ffffffffffffffffffffffffffffffffffffffff1614610dcd576040517f08c379a0000000000000000000000000000000000000000000000000000000008152600401610dc4906122ce565b60405180910390fd5b6001836002015f6101000a81548160ff021916908315150217905550610e177f000000000000000000000000000000000000000000000000000000000000000084600101546117bd565b867f9b6fad3638aff112640e0386ff933ec4087b8ef6944df50928b1b578fa968c1960405160405180910390a2505050600160058190555050505050565b5f8054610e6190612112565b80601f0160208091040260200160405190810160405280929190818152602001828054610e8d90612112565b8015610ed85780601f10610eaf57610100808354040283529160200191610ed8565b820191905f5260205f20905b815481529060010190602001808311610ebb57829003601f168201915b505050505081565b6004602052805f5260405f205f91509050805f015f9054906101000a900473ffffffffffffffffffffffffffffffffffffffff1690806001015490806002015f9054906101000a900460ff16908060020160019054906101000a900460ff16908060020160029054906101000a900460ff16905085565b7f000000000000000000000000000000000000000000000000000000000000000073ffffffffffffffffffffffffffffffffffffffff163373ffffffffffffffffffffffffffffffffffffffff1614610fe5576040517f08c379a0000000000000000000000000000000000000000000000000000000008152600401610fdc9061283f565b60405180910390fd5b60016005541461102a576040517f08c379a000000000000000000000000000000000000000000000000000000000815260040161102190612605565b60405180910390fd5b60026005819055505f60045f8381526020019081526020015f2090508060020160019054906101000a900460ff16801561107357508060020160029054906101000a900460ff16155b6110b2576040517f08c379a00000000000000000000000000000000000000000000000000000000081526004016110a9906128a7565b60405180910390fd5b60018160020160026101000a81548160ff0219169083151502179055506110ff815f015f9054906101000a900473ffffffffffffffffffffffffffffffffffffffff1682600101546117bd565b50600160058190555050565b7f000000000000000000000000000000000000000000000000000000000000000081565b5f60045f8381526020019081526020015f209050805f015f9054906101000a900473ffffffffffffffffffffffffffffffffffffffff1673ffffffffffffffffffffffffffffffffffffffff163373ffffffffffffffffffffffffffffffffffffffff16146111d3576040517f08c379a00000000000000000000000000000000000000000000000000000000081526004016111ca9061290f565b60405180910390fd5b806002015f9054906101000a900460ff1615611224576040517f08c379a000000000000000000000000000000000000000000000000000000000815260040161121b90612749565b60405180910390fd5b8060020160019054906101000a900460ff1615611276576040517f08c379a000000000000000000000000000000000000000000000000000000000815260040161126d90612977565b60405180910390fd5b60018160020160016101000a81548160ff021916908315150217905550817f04901f83201c8724eadf084436db8aa391820bae6d11f9f78a17edb6f2eef3cf60405160405180910390a25050565b7f000000000000000000000000000000000000000000000000000000000000000081565b7f000000000000000000000000000000000000000000000000000000000000000081565b7f000000000000000000000000000000000000000000000000000000000000000073ffffffffffffffffffffffffffffffffffffffff163373ffffffffffffffffffffffffffffffffffffffff161461139a576040517f08c379a00000000000000000000000000000000000000000000000000000000081526004016113919061283f565b60405180910390fd5b6001600554146113df576040517f08c379a00000000000000000000000000000000000000000000000000000000081526004016113d690612605565b60405180910390fd5b60026005819055505f60045f8381526020019081526020015f209050806002015f9054906101000a900460ff1615801561142757508060020160019054906101000a900460ff165b801561144257508060020160029054906101000a900460ff16155b611481576040517f08c379a0000000000000000000000000000000000000000000000000000000008152600401611478906128a7565b60405180910390fd5b60018160020160026101000a81548160ff0219169083151502179055506114cc7f000000000000000000000000000000000000000000000000000000000000000082600101546117bd565b50600160058190555050565b7f000000000000000000000000000000000000000000000000000000000000000073ffffffffffffffffffffffffffffffffffffffff163373ffffffffffffffffffffffffffffffffffffffff1614611566576040517f08c379a000000000000000000000000000000000000000000000000000000000815260040161155d906121b2565b60405180910390fd5b5f82829050116115ab576040517f08c379a00000000000000000000000000000000000000000000000000000000081526004016115a2906129df565b60405180910390fd5b8181600191826115bc929190612ba7565b505050565b7f000000000000000000000000000000000000000000000000000000000000000073ffffffffffffffffffffffffffffffffffffffff163373ffffffffffffffffffffffffffffffffffffffff161461164f576040517f08c379a0000000000000000000000000000000000000000000000000000000008152600401611646906121b2565b60405180910390fd5b81815f918261165f929190612ba7565b505050565b60025f9054906101000a900473ffffffffffffffffffffffffffffffffffffffff1681565b5f60605f5f5f868681019061169e9190612d9e565b9250925092505f6116fd6116f730858d8d8080601f0160208091040260200160405190810160405280939291908181526020018383808284375f81840152601f19601f820116905080830192505050505050508861186a565b83611793565b9050428367ffffffffffffffff16101561174c576040517f08c379a000000000000000000000000000000000000000000000000000000000815260040161174390612e96565b60405180910390fd5b8084955095505050505094509492505050565b5f30838360405160200161177593929190612eb4565b60405160208183030381529060405280519060200120905092915050565b5f5f5f5f6117a186866118b0565b9250925092506117b18282611905565b82935050505092915050565b5f8273ffffffffffffffffffffffffffffffffffffffff16826040516117e290612f16565b5f6040518083038185875af1925050503d805f811461181c576040519150601f19603f3d011682016040523d82523d5f602084013e611821565b606091505b5050905080611865576040517f08c379a000000000000000000000000000000000000000000000000000000000815260040161185c90612f74565b60405180910390fd5b505050565b5f848484805190602001208480519060200120604051602001611890949392919061307f565b604051602081830303815290604052805190602001209050949350505050565b5f5f5f60418451036118f0575f5f5f602087015192506040870151915060608701515f1a90506118e288828585611a67565b9550955095505050506118fe565b5f600285515f1b9250925092505b9250925092565b5f6003811115611918576119176130d7565b5b82600381111561192b5761192a6130d7565b5b0315611a635760016003811115611945576119446130d7565b5b826003811115611958576119576130d7565b5b0361198f576040517ff645eedf00000000000000000000000000000000000000000000000000000000815260040160405180910390fd5b600260038111156119a3576119a26130d7565b5b8260038111156119b6576119b56130d7565b5b036119fa57805f1c6040517ffce698f70000000000000000000000000000000000000000000000000000000081526004016119f19190611cb4565b60405180910390fd5b600380811115611a0d57611a0c6130d7565b5b826003811115611a2057611a1f6130d7565b5b03611a6257806040517fd78bce0c000000000000000000000000000000000000000000000000000000008152600401611a599190611f25565b60405180910390fd5b5b5050565b5f5f5f7f7fffffffffffffffffffffffffffffff5d576e7357a4501ddfe92f46681b20a0845f1c1115611aa3575f600385925092509250611b44565b5f6001888888886040515f8152602001604052604051611ac6949392919061311f565b6020604051602081039080840390855afa158015611ae6573d5f5f3e3d5ffd5b5050506020604051035190505f73ffffffffffffffffffffffffffffffffffffffff168173ffffffffffffffffffffffffffffffffffffffff1603611b37575f60015f5f1b93509350935050611b44565b805f5f5f1b935093509350505b9450945094915050565b5f73ffffffffffffffffffffffffffffffffffffffff82169050919050565b5f611b7782611b4e565b9050919050565b611b8781611b6d565b82525050565b5f602082019050611ba05f830184611b7e565b92915050565b5f81519050919050565b5f82825260208201905092915050565b8281835e5f83830152505050565b5f601f19601f8301169050919050565b5f611be882611ba6565b611bf28185611bb0565b9350611c02818560208601611bc0565b611c0b81611bce565b840191505092915050565b5f6020820190508181035f830152611c2e8184611bde565b905092915050565b5f604051905090565b5f5ffd5b5f5ffd5b611c5081611b6d565b8114611c5a575f5ffd5b50565b5f81359050611c6b81611c47565b92915050565b5f60208284031215611c8657611c85611c3f565b5b5f611c9384828501611c5d565b91505092915050565b5f819050919050565b611cae81611c9c565b82525050565b5f602082019050611cc75f830184611ca5565b92915050565b5f5ffd5b5f5ffd5b5f5ffd5b5f5f83601f840112611cee57611ced611ccd565b5b8235905067ffffffffffffffff811115611d0b57611d0a611cd1565b5b602083019150836001820283011115611d2757611d26611cd5565b5b9250929050565b5f5f5f5f60408587031215611d4657611d45611c3f565b5b5f85013567ffffffffffffffff811115611d6357611d62611c43565b5b611d6f87828801611cd9565b9450945050602085013567ffffffffffffffff811115611d9257611d91611c43565b5b611d9e87828801611cd9565b925092505092959194509250565b5f81519050919050565b5f82825260208201905092915050565b5f611dd082611dac565b611dda8185611db6565b9350611dea818560208601611bc0565b611df381611bce565b840191505092915050565b5f6020820190508181035f830152611e168184611dc6565b905092915050565b611e2781611c9c565b8114611e31575f5ffd5b50565b5f81359050611e4281611e1e565b92915050565b5f5f5f60408486031215611e5f57611e5e611c3f565b5b5f611e6c86828701611e34565b935050602084013567ffffffffffffffff811115611e8d57611e8c611c43565b5b611e9986828701611cd9565b92509250509250925092565b5f819050919050565b611eb781611ea5565b8114611ec1575f5ffd5b50565b5f81359050611ed281611eae565b92915050565b5f5f60408385031215611eee57611eed611c3f565b5b5f611efb85828601611e34565b9250506020611f0c85828601611ec4565b9150509250929050565b611f1f81611ea5565b82525050565b5f602082019050611f385f830184611f16565b92915050565b5f5f5f5f60608587031215611f5657611f55611c3f565b5b5f611f6387828801611e34565b9450506020611f7487828801611ec4565b935050604085013567ffffffffffffffff811115611f9557611f94611c43565b5b611fa187828801611cd9565b925092505092959194509250565b5f60208284031215611fc457611fc3611c3f565b5b5f611fd184828501611e34565b91505092915050565b5f8115159050919050565b611fee81611fda565b82525050565b5f60a0820190506120075f830188611b7e565b6120146020830187611ca5565b6120216040830186611fe5565b61202e6060830185611fe5565b61203b6080830184611fe5565b9695505050505050565b5f5f83601f84011261205a57612059611ccd565b5b8235905067ffffffffffffffff81111561207757612076611cd1565b5b60208301915083600182028301111561209357612092611cd5565b5b9250929050565b5f5f602083850312156120b0576120af611c3f565b5b5f83013567ffffffffffffffff8111156120cd576120cc611c43565b5b6120d985828601612045565b92509250509250929050565b7f4e487b71000000000000000000000000000000000000000000000000000000005f52602260045260245ffd5b5f600282049050600182168061212957607f821691505b60208210810361213c5761213b6120e5565b5b50919050565b7f457363726f773a2063616c6c6572206973206e6f74207468652070726f7669645f8201527f6572000000000000000000000000000000000000000000000000000000000000602082015250565b5f61219c602283611bb0565b91506121a782612142565b604082019050919050565b5f6020820190508181035f8301526121c981612190565b9050919050565b7f457363726f773a207369676e65722063616e6e6f74206265207a65726f2061645f8201527f6472657373000000000000000000000000000000000000000000000000000000602082015250565b5f61222a602583611bb0565b9150612235826121d0565b604082019050919050565b5f6020820190508181035f8301526122578161221e565b9050919050565b7f5369676e617475726556657269666965723a20496e76616c6964207369676e615f8201527f7475726500000000000000000000000000000000000000000000000000000000602082015250565b5f6122b8602483611bb0565b91506122c38261225e565b604082019050919050565b5f6020820190508181035f8301526122e5816122ac565b9050919050565b7f457363726f773a20696e76616c696420707572636861736520696400000000005f82015250565b5f612320601b83611bb0565b915061232b826122ec565b602082019050919050565b5f6020820190508181035f83015261234d81612314565b9050919050565b7f4e487b71000000000000000000000000000000000000000000000000000000005f52604160045260245ffd5b7f4e487b71000000000000000000000000000000000000000000000000000000005f52603260045260245ffd5b828183375f83830152505050565b5f6123c78385611db6565b93506123d48385846123ae565b6123dd83611bce565b840190509392505050565b5f6040820190508181035f8301526124018185876123bc565b90506124106020830184611ca5565b949350505050565b5f81519050919050565b5f82825260208201905092915050565b5f819050602082019050919050565b5f82825260208201905092915050565b5f61245b82611ba6565b6124658185612441565b9350612475818560208601611bc0565b61247e81611bce565b840191505092915050565b5f6124948383612451565b905092915050565b5f602082019050919050565b5f6124b282612418565b6124bc8185612422565b9350836020820285016124ce85612432565b805f5b8581101561250957848403895281516124ea8582612489565b94506124f58361249c565b925060208a019950506001810190506124d1565b50829750879550505050505092915050565b5f7fffffffff0000000000000000000000000000000000000000000000000000000082169050919050565b61254f8161251b565b82525050565b5f60a0820190506125685f830188611b7e565b818103602083015261257a81876124a8565b9050818103604083015261258e8186611dc6565b905061259d6060830185612546565b81810360808301526125af8184611dc6565b90509695505050505050565b7f457363726f773a207265656e7472616e742063616c6c000000000000000000005f82015250565b5f6125ef601683611bb0565b91506125fa826125bb565b602082019050919050565b5f6020820190508181035f83015261261c816125e3565b9050919050565b7f457363726f773a20696e636f7272656374207061796d656e7420616d6f756e745f82015250565b5f612657602083611bb0565b915061266282612623565b602082019050919050565b5f6020820190508181035f8301526126848161264b565b9050919050565b7f4e487b71000000000000000000000000000000000000000000000000000000005f52601160045260245ffd5b5f6126c282611c9c565b91507fffffffffffffffffffffffffffffffffffffffffffffffffffffffffffffffff82036126f4576126f361268b565b5b600182019050919050565b7f457363726f773a207061796d656e7420616c726561647920636c61696d6564005f82015250565b5f612733601f83611bb0565b915061273e826126ff565b602082019050919050565b5f6020820190508181035f83015261276081612727565b9050919050565b7f457363726f773a20707572636861736520697320696e206469737075746500005f82015250565b5f61279b601e83611bb0565b91506127a682612767565b602082019050919050565b5f6020820190508181035f8301526127c88161278f565b9050919050565b7f457363726f773a2063616c6c6572206973206e6f742074686520666163746f725f8201527f7900000000000000000000000000000000000000000000000000000000000000602082015250565b5f612829602183611bb0565b9150612834826127cf565b604082019050919050565b5f6020820190508181035f8301526128568161281d565b9050919050565b7f457363726f773a20696e76616c696420737461746500000000000000000000005f82015250565b5f612891601583611bb0565b915061289c8261285d565b602082019050919050565b5f6020820190508181035f8301526128be81612885565b9050919050565b7f457363726f773a2063616c6c6572206973206e6f7420746865206275796572005f82015250565b5f6128f9601f83611bb0565b9150612904826128c5565b602082019050919050565b5f6020820190508181035f830152612926816128ed565b9050919050565b7f457363726f773a206469737075746520616c72656164792072616973656400005f82015250565b5f612961601e83611bb0565b915061296c8261292d565b602082019050919050565b5f6020820190508181035f83015261298e81612955565b9050919050565b7f457363726f773a20676174657761792063616e6e6f7420626520656d707479005f82015250565b5f6129c9601f83611bb0565b91506129d482612995565b602082019050919050565b5f6020820190508181035f8301526129f6816129bd565b9050919050565b5f82905092915050565b5f819050815f5260205f209050919050565b5f6020601f8301049050919050565b5f82821b905092915050565b5f60088302612a637fffffffffffffffffffffffffffffffffffffffffffffffffffffffffffffffff82612a28565b612a6d8683612a28565b95508019841693508086168417925050509392505050565b5f819050919050565b5f612aa8612aa3612a9e84611c9c565b612a85565b611c9c565b9050919050565b5f819050919050565b612ac183612a8e565b612ad5612acd82612aaf565b848454612a34565b825550505050565b5f5f905090565b612aec612add565b612af7818484612ab8565b505050565b5b81811015612b1a57612b0f5f82612ae4565b600181019050612afd565b5050565b601f821115612b5f57612b3081612a07565b612b3984612a19565b81016020851015612b48578190505b612b5c612b5485612a19565b830182612afc565b50505b505050565b5f82821c905092915050565b5f612b7f5f1984600802612b64565b1980831691505092915050565b5f612b978383612b70565b9150826002028217905092915050565b612bb183836129fd565b67ffffffffffffffff811115612bca57612bc9612354565b5b612bd48254612112565b612bdf828285612b1e565b5f601f831160018114612c0c575f8415612bfa578287013590505b612c048582612b8c565b865550612c6b565b601f198416612c1a86612a07565b5f5b82811015612c4157848901358255600182019150602085019450602081019050612c1c565b86831015612c5e5784890135612c5a601f891682612b70565b8355505b6001600288020188555050505b50505050505050565b5f5ffd5b612c8182611bce565b810181811067ffffffffffffffff82111715612ca057612c9f612354565b5b80604052505050565b5f612cb2611c36565b9050612cbe8282612c78565b919050565b5f67ffffffffffffffff821115612cdd57612cdc612354565b5b612ce682611bce565b9050602081019050919050565b5f612d05612d0084612cc3565b612ca9565b905082815260208101848484011115612d2157612d20612c74565b5b612d2c8482856123ae565b509392505050565b5f82601f830112612d4857612d47611ccd565b5b8135612d58848260208601612cf3565b91505092915050565b5f67ffffffffffffffff82169050919050565b612d7d81612d61565b8114612d87575f5ffd5b50565b5f81359050612d9881612d74565b92915050565b5f5f5f60608486031215612db557612db4611c3f565b5b5f84013567ffffffffffffffff811115612dd257612dd1611c43565b5b612dde86828701612d34565b9350506020612def86828701612d8a565b925050604084013567ffffffffffffffff811115612e1057612e0f611c43565b5b612e1c86828701612d34565b9150509250925092565b7f5369676e617475726556657269666965723a205369676e6174757265206578705f8201527f6972656400000000000000000000000000000000000000000000000000000000602082015250565b5f612e80602483611bb0565b9150612e8b82612e26565b604082019050919050565b5f6020820190508181035f830152612ead81612e74565b9050919050565b5f606082019050612ec75f830186611b7e565b612ed46020830185611ca5565b612ee16040830184611f16565b949350505050565b5f81905092915050565b50565b5f612f015f83612ee9565b9150612f0c82612ef3565b5f82019050919050565b5f612f2082612ef6565b9150819050919050565b7f457363726f773a20455448207472616e73666572206661696c656400000000005f82015250565b5f612f5e601b83611bb0565b9150612f6982612f2a565b602082019050919050565b5f6020820190508181035f830152612f8b81612f52565b9050919050565b5f81905092915050565b7f19000000000000000000000000000000000000000000000000000000000000005f82015250565b5f612fd0600283612f92565b9150612fdb82612f9c565b600282019050919050565b5f8160601b9050919050565b5f612ffc82612fe6565b9050919050565b5f61300d82612ff2565b9050919050565b61302561302082611b6d565b613003565b82525050565b5f8160c01b9050919050565b5f6130418261302b565b9050919050565b61305961305482612d61565b613037565b82525050565b5f819050919050565b61307961307482611ea5565b61305f565b82525050565b5f61308982612fc4565b91506130958287613014565b6014820191506130a58286613048565b6008820191506130b58285613068565b6020820191506130c58284613068565b60208201915081905095945050505050565b7f4e487b71000000000000000000000000000000000000000000000000000000005f52602160045260245ffd5b5f60ff82169050919050565b61311981613104565b82525050565b5f6080820190506131325f830187611f16565b61313f6020830186613110565b61314c6040830185611f16565b6131596060830184611f16565b9594505050505056fea26469706673582212206e032c622f8171e9758b361b281bb88ea650450839b556bb7c7494e53c16eea464736f6c634300081c0033a2646970667358221220d1f272c825149395f8406fd2ef6cad9adc04c895b63aa66d4a9ea022d533ea6464736f6c634300081c0033",
			"opcodes": "PUSH1 0x80 PUSH1 0x40 MSTORE CALLVALUE DUP1 ISZERO PUSH1 0xE JUMPI PUSH0 PUSH0 REVERT JUMPDEST POP PUSH2 0x5988 DUP1 PUSH2 0x1C PUSH0 CODECOPY PUSH0 RETURN INVALID PUSH1 0x80 PUSH1 0x40 MSTORE PUSH1 0x4 CALLDATASIZE LT PUSH2 0x7E JUMPI PUSH0 CALLDATALOAD PUSH1 0xE0 SHR DUP1 PUSH4 0xA269EEB4 GT PUSH2 0x4D JUMPI DUP1 PUSH4 0xA269EEB4 EQ PUSH2 0x19E JUMPI DUP1 PUSH4 0xDE1C5488 EQ PUSH2 0x1CE JUMPI DUP1 PUSH4 0xEAA3668F EQ PUSH2 0x1F9 JUMPI DUP1 PUSH4 0xFAF0BBBF EQ PUSH2 0x215 JUMPI PUSH2 0xBE JUMP JUMPDEST DUP1 PUSH4 0xA790EB7 EQ PUSH2 0xC2 JUMPI DUP1 PUSH4 0x19DC5716 EQ PUSH2 0xFE JUMPI DUP1 PUSH4 0x69D26933 EQ PUSH2 0x126 JUMPI DUP1 PUSH4 0x8FEE6407 EQ PUSH2 0x162 JUMPI PUSH2 0xBE JUMP JUMPDEST CALLDATASIZE PUSH2 0xBE JUMPI PUSH1 0x40 MLOAD PUSH32 0x8C379A000000000000000000000000000000000000000000000000000000000 DUP2 MSTORE PUSH1 0x4 ADD PUSH2 0xB5 SWAP1 PUSH2 0xF99 JUMP JUMPDEST PUSH1 0x40 MLOAD DUP1 SWAP2 SUB SWAP1 REVERT JUMPDEST PUSH0 PUSH0 REVERT JUMPDEST CALLVALUE DUP1 ISZERO PUSH2 0xCD JUMPI PUSH0 PUSH0 REVERT JUMPDEST POP PUSH2 0xE8 PUSH1 0x4 DUP1 CALLDATASIZE SUB DUP2 ADD SWAP1 PUSH2 0xE3 SWAP2 SWAP1 PUSH2 0xFF2 JUMP JUMPDEST PUSH2 0x231 JUMP JUMPDEST PUSH1 0x40 MLOAD PUSH2 0xF5 SWAP2 SWAP1 PUSH2 0x105C JUMP JUMPDEST PUSH1 0x40 MLOAD DUP1 SWAP2 SUB SWAP1 RETURN JUMPDEST CALLVALUE DUP1 ISZERO PUSH2 0x109 JUMPI PUSH0 PUSH0 REVERT JUMPDEST POP PUSH2 0x124 PUSH1 0x4 DUP1 CALLDATASIZE SUB DUP2 ADD SWAP1 PUSH2 0x11F SWAP2 SWAP1 PUSH2 0x10A8 JUMP JUMPDEST PUSH2 0x260 JUMP JUMPDEST STOP JUMPDEST CALLVALUE DUP1 ISZERO PUSH2 0x131 JUMPI PUSH0 PUSH0 REVERT JUMPDEST POP PUSH2 0x14C PUSH1 0x4 DUP1 CALLDATASIZE SUB DUP2 ADD SWAP1 PUSH2 0x147 SWAP2 SWAP1 PUSH2 0x10E6 JUMP JUMPDEST PUSH2 0x4B5 JUMP JUMPDEST PUSH1 0x40 MLOAD PUSH2 0x159 SWAP2 SWAP1 PUSH2 0x1120 JUMP JUMPDEST PUSH1 0x40 MLOAD DUP1 SWAP2 SUB SWAP1 RETURN JUMPDEST CALLVALUE DUP1 ISZERO PUSH2 0x16D JUMPI PUSH0 PUSH0 REVERT JUMPDEST POP PUSH2 0x188 PUSH1 0x4 DUP1 CALLDATASIZE SUB DUP2 ADD SWAP1 PUSH2 0x183 SWAP2 SWAP1 PUSH2 0xFF2 JUMP JUMPDEST PUSH2 0x4D5 JUMP JUMPDEST PUSH1 0x40 MLOAD PUSH2 0x195 SWAP2 SWAP1 PUSH2 0x1148 JUMP JUMPDEST PUSH1 0x40 MLOAD DUP1 SWAP2 SUB SWAP1 RETURN JUMPDEST PUSH2 0x1B8 PUSH1 0x4 DUP1 CALLDATASIZE SUB DUP2 ADD SWAP1 PUSH2 0x1B3 SWAP2 SWAP1 PUSH2 0x11EC JUMP JUMPDEST PUSH2 0x4EA JUMP JUMPDEST PUSH1 0x40 MLOAD PUSH2 0x1C5 SWAP2 SWAP1 PUSH2 0x105C JUMP JUMPDEST PUSH1 0x40 MLOAD DUP1 SWAP2 SUB SWAP1 RETURN JUMPDEST CALLVALUE DUP1 ISZERO PUSH2 0x1D9 JUMPI PUSH0 PUSH0 REVERT JUMPDEST POP PUSH2 0x1E2 PUSH2 0x75F JUMP JUMPDEST PUSH1 0x40 MLOAD PUSH2 0x1F0 SWAP3 SWAP2 SWAP1 PUSH2 0x1431 JUMP JUMPDEST PUSH1 0x40 MLOAD DUP1 SWAP2 SUB SWAP1 RETURN JUMPDEST PUSH2 0x213 PUSH1 0x4 DUP1 CALLDATASIZE SUB DUP2 ADD SWAP1 PUSH2 0x20E SWAP2 SWAP1 PUSH2 0xFF2 JUMP JUMPDEST PUSH2 0x8B4 JUMP JUMPDEST STOP JUMPDEST PUSH2 0x22F PUSH1 0x4 DUP1 CALLDATASIZE SUB DUP2 ADD SWAP1 PUSH2 0x22A SWAP2 SWAP1 PUSH2 0x149B JUMP JUMPDEST PUSH2 0xAA5 JUMP JUMPDEST STOP JUMPDEST PUSH0 PUSH1 0x20 MSTORE DUP1 PUSH0 MSTORE PUSH1 0x40 PUSH0 KECCAK256 PUSH0 SWAP2 POP SLOAD SWAP1 PUSH2 0x100 EXP SWAP1 DIV PUSH20 0xFFFFFFFFFFFFFFFFFFFFFFFFFFFFFFFFFFFFFFFF AND DUP2 JUMP JUMPDEST PUSH0 PUSH0 PUSH0 DUP5 DUP2 MSTORE PUSH1 0x20 ADD SWAP1 DUP2 MSTORE PUSH1 0x20 ADD PUSH0 KECCAK256 PUSH0 SWAP1 SLOAD SWAP1 PUSH2 0x100 EXP SWAP1 DIV PUSH20 0xFFFFFFFFFFFFFFFFFFFFFFFFFFFFFFFFFFFFFFFF AND SWAP1 POP PUSH0 PUSH20 0xFFFFFFFFFFFFFFFFFFFFFFFFFFFFFFFFFFFFFFFF AND DUP2 PUSH20 0xFFFFFFFFFFFFFFFFFFFFFFFFFFFFFFFFFFFFFFFF AND SUB PUSH2 0x301 JUMPI PUSH1 0x40 MLOAD PUSH32 0x8C379A000000000000000000000000000000000000000000000000000000000 DUP2 MSTORE PUSH1 0x4 ADD PUSH2 0x2F8 SWAP1 PUSH2 0x1535 JUMP JUMPDEST PUSH1 0x40 MLOAD DUP1 SWAP2 SUB SWAP1 REVERT JUMPDEST PUSH0 DUP2 SWAP1 POP DUP1 PUSH20 0xFFFFFFFFFFFFFFFFFFFFFFFFFFFFFFFFFFFFFFFF AND PUSH4 0x85D4883 PUSH1 0x40 MLOAD DUP2 PUSH4 0xFFFFFFFF AND PUSH1 0xE0 SHL DUP2 MSTORE PUSH1 0x4 ADD PUSH1 0x20 PUSH1 0x40 MLOAD DUP1 DUP4 SUB DUP2 DUP7 GAS STATICCALL ISZERO DUP1 ISZERO PUSH2 0x34E JUMPI RETURNDATASIZE PUSH0 PUSH0 RETURNDATACOPY RETURNDATASIZE PUSH0 REVERT JUMPDEST POP POP POP POP PUSH1 0x40 MLOAD RETURNDATASIZE PUSH1 0x1F NOT PUSH1 0x1F DUP3 ADD AND DUP3 ADD DUP1 PUSH1 0x40 MSTORE POP DUP2 ADD SWAP1 PUSH2 0x372 SWAP2 SWAP1 PUSH2 0x1567 JUMP JUMPDEST PUSH20 0xFFFFFFFFFFFFFFFFFFFFFFFFFFFFFFFFFFFFFFFF AND CALLER PUSH20 0xFFFFFFFFFFFFFFFFFFFFFFFFFFFFFFFFFFFFFFFF AND EQ PUSH2 0x3DF JUMPI PUSH1 0x40 MLOAD PUSH32 0x8C379A000000000000000000000000000000000000000000000000000000000 DUP2 MSTORE PUSH1 0x4 ADD PUSH2 0x3D6 SWAP1 PUSH2 0x15DC JUMP JUMPDEST PUSH1 0x40 MLOAD DUP1 SWAP2 SUB SWAP1 REVERT JUMPDEST PUSH1 0x2 PUSH0 DUP6 DUP2 MSTORE PUSH1 0x20 ADD SWAP1 DUP2 MSTORE PUSH1 0x20 ADD PUSH0 KECCAK256 SLOAD DUP4 GT ISZERO PUSH2 0x433 JUMPI PUSH1 0x40 MLOAD PUSH32 0x8C379A000000000000000000000000000000000000000000000000000000000 DUP2 MSTORE PUSH1 0x4 ADD PUSH2 0x42A SWAP1 PUSH2 0x166A JUMP JUMPDEST PUSH1 0x40 MLOAD DUP1 SWAP2 SUB SWAP1 REVERT JUMPDEST DUP3 PUSH1 0x2 PUSH0 DUP7 DUP2 MSTORE PUSH1 0x20 ADD SWAP1 DUP2 MSTORE PUSH1 0x20 ADD PUSH0 KECCAK256 PUSH0 DUP3 DUP3 SLOAD PUSH2 0x453 SWAP2 SWAP1 PUSH2 0x16B5 JUMP JUMPDEST SWAP3 POP POP DUP2 SWAP1 SSTORE POP PUSH2 0x464 CALLER DUP5 PUSH2 0xE85 JUMP JUMPDEST DUP4 PUSH32 0x64B42729C893E3B5F300276EF3057E004BD614DFC15219A30A3B069EC4386933 DUP5 PUSH1 0x2 PUSH0 DUP9 DUP2 MSTORE PUSH1 0x20 ADD SWAP1 DUP2 MSTORE PUSH1 0x20 ADD PUSH0 KECCAK256 SLOAD PUSH1 0x40 MLOAD PUSH2 0x4A7 SWAP3 SWAP2 SWAP1 PUSH2 0x16E8 JUMP JUMPDEST PUSH1 0x40 MLOAD DUP1 SWAP2 SUB SWAP1 LOG2 POP POP POP POP JUMP JUMPDEST PUSH1 0x1 DUP2 DUP2 SLOAD DUP2 LT PUSH2 0x4C4 JUMPI PUSH0 DUP1 REVERT JUMPDEST SWAP1 PUSH0 MSTORE PUSH1 0x20 PUSH0 KECCAK256 ADD PUSH0 SWAP2 POP SWAP1 POP SLOAD DUP2 JUMP JUMPDEST PUSH1 0x2 PUSH1 0x20 MSTORE DUP1 PUSH0 MSTORE PUSH1 0x40 PUSH0 KECCAK256 PUSH0 SWAP2 POP SWAP1 POP SLOAD DUP2 JUMP JUMPDEST PUSH0 PUSH0 DUP10 DUP10 SWAP1 POP GT PUSH2 0x530 JUMPI PUSH1 0x40 MLOAD PUSH32 0x8C379A000000000000000000000000000000000000000000000000000000000 DUP2 MSTORE PUSH1 0x4 ADD PUSH2 0x527 SWAP1 PUSH2 0x1759 JUMP JUMPDEST PUSH1 0x40 MLOAD DUP1 SWAP2 SUB SWAP1 REVERT JUMPDEST DUP7 CALLVALUE LT ISZERO PUSH2 0x573 JUMPI PUSH1 0x40 MLOAD PUSH32 0x8C379A000000000000000000000000000000000000000000000000000000000 DUP2 MSTORE PUSH1 0x4 ADD PUSH2 0x56A SWAP1 PUSH2 0x17E7 JUMP JUMPDEST PUSH1 0x40 MLOAD DUP1 SWAP2 SUB SWAP1 REVERT JUMPDEST PUSH0 DUP10 DUP10 PUSH1 0x40 MLOAD PUSH2 0x584 SWAP3 SWAP2 SWAP1 PUSH2 0x1841 JUMP JUMPDEST PUSH1 0x40 MLOAD DUP1 SWAP2 SUB SWAP1 KECCAK256 SWAP1 POP PUSH0 PUSH20 0xFFFFFFFFFFFFFFFFFFFFFFFFFFFFFFFFFFFFFFFF AND PUSH0 PUSH0 DUP4 DUP2 MSTORE PUSH1 0x20 ADD SWAP1 DUP2 MSTORE PUSH1 0x20 ADD PUSH0 KECCAK256 PUSH0 SWAP1 SLOAD SWAP1 PUSH2 0x100 EXP SWAP1 DIV PUSH20 0xFFFFFFFFFFFFFFFFFFFFFFFFFFFFFFFFFFFFFFFF AND PUSH20 0xFFFFFFFFFFFFFFFFFFFFFFFFFFFFFFFFFFFFFFFF AND EQ PUSH2 0x62B JUMPI PUSH1 0x40 MLOAD PUSH32 0x8C379A000000000000000000000000000000000000000000000000000000000 DUP2 MSTORE PUSH1 0x4 ADD PUSH2 0x622 SWAP1 PUSH2 0x18C9 JUMP JUMPDEST PUSH1 0x40 MLOAD DUP1 SWAP2 SUB SWAP1 REVERT JUMPDEST PUSH0 ADDRESS DUP3 CALLER DUP12 DUP12 DUP12 DUP12 DUP12 DUP12 PUSH1 0x40 MLOAD PUSH2 0x641 SWAP1 PUSH2 0xF32 JUMP JUMPDEST PUSH2 0x653 SWAP10 SWAP9 SWAP8 SWAP7 SWAP6 SWAP5 SWAP4 SWAP3 SWAP2 SWAP1 PUSH2 0x1923 JUMP JUMPDEST PUSH1 0x40 MLOAD DUP1 SWAP2 SUB SWAP1 PUSH0 CREATE DUP1 ISZERO DUP1 ISZERO PUSH2 0x66C JUMPI RETURNDATASIZE PUSH0 PUSH0 RETURNDATACOPY RETURNDATASIZE PUSH0 REVERT JUMPDEST POP SWAP1 POP DUP1 PUSH0 PUSH0 DUP5 DUP2 MSTORE PUSH1 0x20 ADD SWAP1 DUP2 MSTORE PUSH1 0x20 ADD PUSH0 KECCAK256 PUSH0 PUSH2 0x100 EXP DUP2 SLOAD DUP2 PUSH20 0xFFFFFFFFFFFFFFFFFFFFFFFFFFFFFFFFFFFFFFFF MUL NOT AND SWAP1 DUP4 PUSH20 0xFFFFFFFFFFFFFFFFFFFFFFFFFFFFFFFFFFFFFFFF AND MUL OR SWAP1 SSTORE POP PUSH1 0x1 DUP3 SWAP1 DUP1 PUSH1 0x1 DUP2 SLOAD ADD DUP1 DUP3 SSTORE DUP1 SWAP2 POP POP PUSH1 0x1 SWAP1 SUB SWAP1 PUSH0 MSTORE PUSH1 0x20 PUSH0 KECCAK256 ADD PUSH0 SWAP1 SWAP2 SWAP1 SWAP2 SWAP1 SWAP2 POP SSTORE CALLVALUE PUSH1 0x2 PUSH0 DUP5 DUP2 MSTORE PUSH1 0x20 ADD SWAP1 DUP2 MSTORE PUSH1 0x20 ADD PUSH0 KECCAK256 DUP2 SWAP1 SSTORE POP CALLER PUSH20 0xFFFFFFFFFFFFFFFFFFFFFFFFFFFFFFFFFFFFFFFF AND DUP3 PUSH32 0x55617356247C187DAEFC7E9C394E92AC79246493B4DA24A6D351D4076F9BAC4D DUP14 DUP14 DUP6 CALLVALUE PUSH1 0x40 MLOAD PUSH2 0x746 SWAP5 SWAP4 SWAP3 SWAP2 SWAP1 PUSH2 0x19A2 JUMP JUMPDEST PUSH1 0x40 MLOAD DUP1 SWAP2 SUB SWAP1 LOG3 DUP1 SWAP3 POP POP POP SWAP9 SWAP8 POP POP POP POP POP POP POP POP JUMP JUMPDEST PUSH1 0x60 DUP1 PUSH1 0x1 DUP1 SLOAD DUP1 PUSH1 0x20 MUL PUSH1 0x20 ADD PUSH1 0x40 MLOAD SWAP1 DUP2 ADD PUSH1 0x40 MSTORE DUP1 SWAP3 SWAP2 SWAP1 DUP2 DUP2 MSTORE PUSH1 0x20 ADD DUP3 DUP1 SLOAD DUP1 ISZERO PUSH2 0x7AC JUMPI PUSH1 0x20 MUL DUP3 ADD SWAP2 SWAP1 PUSH0 MSTORE PUSH1 0x20 PUSH0 KECCAK256 SWAP1 JUMPDEST DUP2 SLOAD DUP2 MSTORE PUSH1 0x20 ADD SWAP1 PUSH1 0x1 ADD SWAP1 DUP1 DUP4 GT PUSH2 0x798 JUMPI JUMPDEST POP POP POP POP POP SWAP2 POP DUP2 MLOAD PUSH8 0xFFFFFFFFFFFFFFFF DUP2 GT ISZERO PUSH2 0x7CE JUMPI PUSH2 0x7CD PUSH2 0x19E0 JUMP JUMPDEST JUMPDEST PUSH1 0x40 MLOAD SWAP1 DUP1 DUP3 MSTORE DUP1 PUSH1 0x20 MUL PUSH1 0x20 ADD DUP3 ADD PUSH1 0x40 MSTORE DUP1 ISZERO PUSH2 0x7FC JUMPI DUP2 PUSH1 0x20 ADD PUSH1 0x20 DUP3 MUL DUP1 CALLDATASIZE DUP4 CALLDATACOPY DUP1 DUP3 ADD SWAP2 POP POP SWAP1 POP JUMPDEST POP SWAP1 POP PUSH0 PUSH0 SWAP1 POP JUMPDEST DUP3 MLOAD DUP2 LT ISZERO PUSH2 0x8AF JUMPI PUSH0 PUSH0 DUP5 DUP4 DUP2 MLOAD DUP2 LT PUSH2 0x822 JUMPI PUSH2 0x821 PUSH2 0x1A0D JUMP JUMPDEST JUMPDEST PUSH1 0x20 MUL PUSH1 0x20 ADD ADD MLOAD DUP2 MSTORE PUSH1 0x20 ADD SWAP1 DUP2 MSTORE PUSH1 0x20 ADD PUSH0 KECCAK256 PUSH0 SWAP1 SLOAD SWAP1 PUSH2 0x100 EXP SWAP1 DIV PUSH20 0xFFFFFFFFFFFFFFFFFFFFFFFFFFFFFFFFFFFFFFFF AND DUP3 DUP3 DUP2 MLOAD DUP2 LT PUSH2 0x86A JUMPI PUSH2 0x869 PUSH2 0x1A0D JUMP JUMPDEST JUMPDEST PUSH1 0x20 MUL PUSH1 0x20 ADD ADD SWAP1 PUSH20 0xFFFFFFFFFFFFFFFFFFFFFFFFFFFFFFFFFFFFFFFF AND SWAP1 DUP2 PUSH20 0xFFFFFFFFFFFFFFFFFFFFFFFFFFFFFFFFFFFFFFFF AND DUP2 MSTORE POP POP DUP1 PUSH1 0x1 ADD SWAP1 POP PUSH2 0x804 JUMP JUMPDEST POP SWAP1 SWAP2 JUMP JUMPDEST PUSH0 PUSH0 PUSH0 DUP4 DUP2 MSTORE PUSH1 0x20 ADD SWAP1 DUP2 MSTORE PUSH1 0x20 ADD PUSH0 KECCAK256 PUSH0 SWAP1 SLOAD SWAP1 PUSH2 0x100 EXP SWAP1 DIV PUSH20 0xFFFFFFFFFFFFFFFFFFFFFFFFFFFFFFFFFFFFFFFF AND SWAP1 POP PUSH0 PUSH20 0xFFFFFFFFFFFFFFFFFFFFFFFFFFFFFFFFFFFFFFFF AND DUP2 PUSH20 0xFFFFFFFFFFFFFFFFFFFFFFFFFFFFFFFFFFFFFFFF AND SUB PUSH2 0x955 JUMPI PUSH1 0x40 MLOAD PUSH32 0x8C379A000000000000000000000000000000000000000000000000000000000 DUP2 MSTORE PUSH1 0x4 ADD PUSH2 0x94C SWAP1 PUSH2 0x1535 JUMP JUMPDEST PUSH1 0x40 MLOAD DUP1 SWAP2 SUB SWAP1 REVERT JUMPDEST DUP1 PUSH20 0xFFFFFFFFFFFFFFFFFFFFFFFFFFFFFFFFFFFFFFFF AND PUSH4 0x85D4883 PUSH1 0x40 MLOAD DUP2 PUSH4 0xFFFFFFFF AND PUSH1 0xE0 SHL DUP2 MSTORE PUSH1 0x4 ADD PUSH1 0x20 PUSH1 0x40 MLOAD DUP1 DUP4 SUB DUP2 DUP7 GAS STATICCALL ISZERO DUP1 ISZERO PUSH2 0x99E JUMPI RETURNDATASIZE PUSH0 PUSH0 RETURNDATACOPY RETURNDATASIZE PUSH0 REVERT JUMPDEST POP POP POP POP PUSH1 0x40 MLOAD RETURNDATASIZE PUSH1 0x1F NOT PUSH1 0x1F DUP3 ADD AND DUP3 ADD DUP1 PUSH1 0x40 MSTORE POP DUP2 ADD SWAP1 PUSH2 0x9C2 SWAP2 SWAP1 PUSH2 0x1567 JUMP JUMPDEST PUSH20 0xFFFFFFFFFFFFFFFFFFFFFFFFFFFFFFFFFFFFFFFF AND CALLER PUSH20 0xFFFFFFFFFFFFFFFFFFFFFFFFFFFFFFFFFFFFFFFF AND EQ PUSH2 0xA2F JUMPI PUSH1 0x40 MLOAD PUSH32 0x8C379A000000000000000000000000000000000000000000000000000000000 DUP2 MSTORE PUSH1 0x4 ADD PUSH2 0xA26 SWAP1 PUSH2 0x15DC JUMP JUMPDEST PUSH1 0x40 MLOAD DUP1 SWAP2 SUB SWAP1 REVERT JUMPDEST CALLVALUE PUSH1 0x2 PUSH0 DUP5 DUP2 MSTORE PUSH1 0x20 ADD SWAP1 DUP2 MSTORE PUSH1 0x20 ADD PUSH0 KECCAK256 PUSH0 DUP3 DUP3 SLOAD PUSH2 0xA4F SWAP2 SWAP1 PUSH2 0x1A3A JUMP JUMPDEST SWAP3 POP POP DUP2 SWAP1 SSTORE POP DUP2 PUSH32 0x77A7CCF44B26A4E3477C9ABB31E09A68F3D67436717D4FFA709ADB2949DC70B CALLVALUE PUSH1 0x2 PUSH0 DUP7 DUP2 MSTORE PUSH1 0x20 ADD SWAP1 DUP2 MSTORE PUSH1 0x20 ADD PUSH0 KECCAK256 SLOAD PUSH1 0x40 MLOAD PUSH2 0xA99 SWAP3 SWAP2 SWAP1 PUSH2 0x16E8 JUMP JUMPDEST PUSH1 0x40 MLOAD DUP1 SWAP2 SUB SWAP1 LOG2 POP POP JUMP JUMPDEST PUSH0 PUSH0 PUSH0 DUP6 DUP2 MSTORE PUSH1 0x20 ADD SWAP1 DUP2 MSTORE PUSH1 0x20 ADD PUSH0 KECCAK256 PUSH0 SWAP1 SLOAD SWAP1 PUSH2 0x100 EXP SWAP1 DIV PUSH20 0xFFFFFFFFFFFFFFFFFFFFFFFFFFFFFFFFFFFFFFFF AND SWAP1 POP PUSH0 PUSH20 0xFFFFFFFFFFFFFFFFFFFFFFFFFFFFFFFFFFFFFFFF AND DUP2 PUSH20 0xFFFFFFFFFFFFFFFFFFFFFFFFFFFFFFFFFFFFFFFF AND SUB PUSH2 0xB46 JUMPI PUSH1 0x40 MLOAD PUSH32 0x8C379A000000000000000000000000000000000000000000000000000000000 DUP2 MSTORE PUSH1 0x4 ADD PUSH2 0xB3D SWAP1 PUSH2 0x1535 JUMP JUMPDEST PUSH1 0x40 MLOAD DUP1 SWAP2 SUB SWAP1 REVERT JUMPDEST PUSH0 DUP2 SWAP1 POP DUP1 PUSH20 0xFFFFFFFFFFFFFFFFFFFFFFFFFFFFFFFFFFFFFFFF AND PUSH4 0xA035B1FE PUSH1 0x40 MLOAD DUP2 PUSH4 0xFFFFFFFF AND PUSH1 0xE0 SHL DUP2 MSTORE PUSH1 0x4 ADD PUSH1 0x20 PUSH1 0x40 MLOAD DUP1 DUP4 SUB DUP2 DUP7 GAS STATICCALL ISZERO DUP1 ISZERO PUSH2 0xB93 JUMPI RETURNDATASIZE PUSH0 PUSH0 RETURNDATACOPY RETURNDATASIZE PUSH0 REVERT JUMPDEST POP POP POP POP PUSH1 0x40 MLOAD RETURNDATASIZE PUSH1 0x1F NOT PUSH1 0x1F DUP3 ADD AND DUP3 ADD DUP1 PUSH1 0x40 MSTORE POP DUP2 ADD SWAP1 PUSH2 0xBB7 SWAP2 SWAP1 PUSH2 0x1A81 JUMP JUMPDEST CALLVALUE LT ISZERO PUSH2 0xBF9 JUMPI PUSH1 0x40 MLOAD PUSH32 0x8C379A000000000000000000000000000000000000000000000000000000000 DUP2 MSTORE PUSH1 0x4 ADD PUSH2 0xBF0 SWAP1 PUSH2 0x1AF6 JUMP JUMPDEST PUSH1 0x40 MLOAD DUP1 SWAP2 SUB SWAP1 REVERT JUMPDEST DUP3 ISZERO PUSH2 0xDBD JUMPI DUP1 PUSH20 0xFFFFFFFFFFFFFFFFFFFFFFFFFFFFFFFFFFFFFFFF AND PUSH4 0xA035B1FE PUSH1 0x40 MLOAD DUP2 PUSH4 0xFFFFFFFF AND PUSH1 0xE0 SHL DUP2 MSTORE PUSH1 0x4 ADD PUSH1 0x20 PUSH1 0x40 MLOAD DUP1 DUP4 SUB DUP2 DUP7 GAS STATICCALL ISZERO DUP1 ISZERO PUSH2 0xC48 JUMPI RETURNDATASIZE PUSH0 PUSH0 RETURNDATACOPY RETURNDATASIZE PUSH0 REVERT JUMPDEST POP POP POP POP PUSH1 0x40 MLOAD RETURNDATASIZE PUSH1 0x1F NOT PUSH1 0x1F DUP3 ADD AND DUP3 ADD DUP1 PUSH1 0x40 MSTORE POP DUP2 ADD SWAP1 PUSH2 0xC6C SWAP2 SWAP1 PUSH2 0x1A81 JUMP JUMPDEST PUSH1 0x2 PUSH0 DUP8 DUP2 MSTORE PUSH1 0x20 ADD SWAP1 DUP2 MSTORE PUSH1 0x20 ADD PUSH0 KECCAK256 SLOAD LT ISZERO PUSH2 0xCBF JUMPI PUSH1 0x40 MLOAD PUSH32 0x8C379A000000000000000000000000000000000000000000000000000000000 DUP2 MSTORE PUSH1 0x4 ADD PUSH2 0xCB6 SWAP1 PUSH2 0x1B84 JUMP JUMPDEST PUSH1 0x40 MLOAD DUP1 SWAP2 SUB SWAP1 REVERT JUMPDEST DUP1 PUSH20 0xFFFFFFFFFFFFFFFFFFFFFFFFFFFFFFFFFFFFFFFF AND PUSH4 0xA035B1FE PUSH1 0x40 MLOAD DUP2 PUSH4 0xFFFFFFFF AND PUSH1 0xE0 SHL DUP2 MSTORE PUSH1 0x4 ADD PUSH1 0x20 PUSH1 0x40 MLOAD DUP1 DUP4 SUB DUP2 DUP7 GAS STATICCALL ISZERO DUP1 ISZERO PUSH2 0xD08 JUMPI RETURNDATASIZE PUSH0 PUSH0 RETURNDATACOPY RETURNDATASIZE PUSH0 REVERT JUMPDEST POP POP POP POP PUSH1 0x40 MLOAD RETURNDATASIZE PUSH1 0x1F NOT PUSH1 0x1F DUP3 ADD AND DUP3 ADD DUP1 PUSH1 0x40 MSTORE POP DUP2 ADD SWAP1 PUSH2 0xD2C SWAP2 SWAP1 PUSH2 0x1A81 JUMP JUMPDEST PUSH1 0x2 PUSH0 DUP8 DUP2 MSTORE PUSH1 0x20 ADD SWAP1 DUP2 MSTORE PUSH1 0x20 ADD PUSH0 KECCAK256 PUSH0 DUP3 DUP3 SLOAD PUSH2 0xD4B SWAP2 SWAP1 PUSH2 0x16B5 JUMP JUMPDEST SWAP3 POP POP DUP2 SWAP1 SSTORE POP DUP1 PUSH20 0xFFFFFFFFFFFFFFFFFFFFFFFFFFFFFFFFFFFFFFFF AND PUSH4 0x88985EC5 DUP6 PUSH1 0x40 MLOAD DUP3 PUSH4 0xFFFFFFFF AND PUSH1 0xE0 SHL DUP2 MSTORE PUSH1 0x4 ADD PUSH2 0xD8B SWAP2 SWAP1 PUSH2 0x1148 JUMP JUMPDEST PUSH0 PUSH1 0x40 MLOAD DUP1 DUP4 SUB DUP2 PUSH0 DUP8 DUP1 EXTCODESIZE ISZERO DUP1 ISZERO PUSH2 0xDA2 JUMPI PUSH0 PUSH0 REVERT JUMPDEST POP GAS CALL ISZERO DUP1 ISZERO PUSH2 0xDB4 JUMPI RETURNDATASIZE PUSH0 PUSH0 RETURNDATACOPY RETURNDATASIZE PUSH0 REVERT JUMPDEST POP POP POP POP PUSH2 0xE24 JUMP JUMPDEST DUP1 PUSH20 0xFFFFFFFFFFFFFFFFFFFFFFFFFFFFFFFFFFFFFFFF AND PUSH4 0xDF686DED DUP6 PUSH1 0x40 MLOAD DUP3 PUSH4 0xFFFFFFFF AND PUSH1 0xE0 SHL DUP2 MSTORE PUSH1 0x4 ADD PUSH2 0xDF6 SWAP2 SWAP1 PUSH2 0x1148 JUMP JUMPDEST PUSH0 PUSH1 0x40 MLOAD DUP1 DUP4 SUB DUP2 PUSH0 DUP8 DUP1 EXTCODESIZE ISZERO DUP1 ISZERO PUSH2 0xE0D JUMPI PUSH0 PUSH0 REVERT JUMPDEST POP GAS CALL ISZERO DUP1 ISZERO PUSH2 0xE1F JUMPI RETURNDATASIZE PUSH0 PUSH0 RETURNDATACOPY RETURNDATASIZE PUSH0 REVERT JUMPDEST POP POP POP POP JUMPDEST PUSH2 0xE2E CALLER CALLVALUE PUSH2 0xE85 JUMP JUMPDEST CALLER PUSH20 0xFFFFFFFFFFFFFFFFFFFFFFFFFFFFFFFFFFFFFFFF AND DUP5 DUP7 PUSH32 0xBC15360FDBC18726032673554343B47EA8C03297136DA385C28550253778BAF5 DUP7 PUSH1 0x40 MLOAD PUSH2 0xE76 SWAP2 SWAP1 PUSH2 0x1BB1 JUMP JUMPDEST PUSH1 0x40 MLOAD DUP1 SWAP2 SUB SWAP1 LOG4 POP POP POP POP POP JUMP JUMPDEST PUSH0 DUP3 PUSH20 0xFFFFFFFFFFFFFFFFFFFFFFFFFFFFFFFFFFFFFFFF AND DUP3 PUSH1 0x40 MLOAD PUSH2 0xEAA SWAP1 PUSH2 0x1BED JUMP JUMPDEST PUSH0 PUSH1 0x40 MLOAD DUP1 DUP4 SUB DUP2 DUP6 DUP8 GAS CALL SWAP3 POP POP POP RETURNDATASIZE DUP1 PUSH0 DUP2 EQ PUSH2 0xEE4 JUMPI PUSH1 0x40 MLOAD SWAP2 POP PUSH1 0x1F NOT PUSH1 0x3F RETURNDATASIZE ADD AND DUP3 ADD PUSH1 0x40 MSTORE RETURNDATASIZE DUP3 MSTORE RETURNDATASIZE PUSH0 PUSH1 0x20 DUP5 ADD RETURNDATACOPY PUSH2 0xEE9 JUMP JUMPDEST PUSH1 0x60 SWAP2 POP JUMPDEST POP POP SWAP1 POP DUP1 PUSH2 0xF2D JUMPI PUSH1 0x40 MLOAD PUSH32 0x8C379A000000000000000000000000000000000000000000000000000000000 DUP2 MSTORE PUSH1 0x4 ADD PUSH2 0xF24 SWAP1 PUSH2 0x1C4B JUMP JUMPDEST PUSH1 0x40 MLOAD DUP1 SWAP2 SUB SWAP1 REVERT JUMPDEST POP POP POP JUMP JUMPDEST PUSH2 0x3CE9 DUP1 PUSH2 0x1C6A DUP4 CODECOPY ADD SWAP1 JUMP JUMPDEST PUSH0 DUP3 DUP3 MSTORE PUSH1 0x20 DUP3 ADD SWAP1 POP SWAP3 SWAP2 POP POP JUMP JUMPDEST PUSH32 0x466163746F72793A2064697265637420455448206E6F74206163636570746564 PUSH0 DUP3 ADD MSTORE POP JUMP JUMPDEST PUSH0 PUSH2 0xF83 PUSH1 0x20 DUP4 PUSH2 0xF3F JUMP JUMPDEST SWAP2 POP PUSH2 0xF8E DUP3 PUSH2 0xF4F JUMP JUMPDEST PUSH1 0x20 DUP3 ADD SWAP1 POP SWAP2 SWAP1 POP JUMP JUMPDEST PUSH0 PUSH1 0x20 DUP3 ADD SWAP1 POP DUP2 DUP2 SUB PUSH0 DUP4 ADD MSTORE PUSH2 0xFB0 DUP2 PUSH2 0xF77 JUMP JUMPDEST SWAP1 POP SWAP2 SWAP1 POP JUMP JUMPDEST PUSH0 PUSH0 REVERT JUMPDEST PUSH0 PUSH0 REVERT JUMPDEST PUSH0 DUP2 SWAP1 POP SWAP2 SWAP1 POP JUMP JUMPDEST PUSH2 0xFD1 DUP2 PUSH2 0xFBF JUMP JUMPDEST DUP2 EQ PUSH2 0xFDB JUMPI PUSH0 PUSH0 REVERT JUMPDEST POP JUMP JUMPDEST PUSH0 DUP2 CALLDATALOAD SWAP1 POP PUSH2 0xFEC DUP2 PUSH2 0xFC8 JUMP JUMPDEST SWAP3 SWAP2 POP POP JUMP JUMPDEST PUSH0 PUSH1 0x20 DUP3 DUP5 SUB SLT ISZERO PUSH2 0x1007 JUMPI PUSH2 0x1006 PUSH2 0xFB7 JUMP JUMPDEST JUMPDEST PUSH0 PUSH2 0x1014 DUP5 DUP3 DUP6 ADD PUSH2 0xFDE JUMP JUMPDEST SWAP2 POP POP SWAP3 SWAP2 POP POP JUMP JUMPDEST PUSH0 PUSH20 0xFFFFFFFFFFFFFFFFFFFFFFFFFFFFFFFFFFFFFFFF DUP3 AND SWAP1 POP SWAP2 SWAP1 POP JUMP JUMPDEST PUSH0 PUSH2 0x1046 DUP3 PUSH2 0x101D JUMP JUMPDEST SWAP1 POP SWAP2 SWAP1 POP JUMP JUMPDEST PUSH2 0x1056 DUP2 PUSH2 0x103C JUMP JUMPDEST DUP3 MSTORE POP POP JUMP JUMPDEST PUSH0 PUSH1 0x20 DUP3 ADD SWAP1 POP PUSH2 0x106F PUSH0 DUP4 ADD DUP5 PUSH2 0x104D JUMP JUMPDEST SWAP3 SWAP2 POP POP JUMP JUMPDEST PUSH0 DUP2 SWAP1 POP SWAP2 SWAP1 POP JUMP JUMPDEST PUSH2 0x1087 DUP2 PUSH2 0x1075 JUMP JUMPDEST DUP2 EQ PUSH2 0x1091 JUMPI PUSH0 PUSH0 REVERT JUMPDEST POP JUMP JUMPDEST PUSH0 DUP2 CALLDATALOAD SWAP1 POP PUSH2 0x10A2 DUP2 PUSH2 0x107E JUMP JUMPDEST SWAP3 SWAP2 POP POP JUMP JUMPDEST PUSH0 PUSH0 PUSH1 0x40 DUP4 DUP6 SUB SLT ISZERO PUSH2 0x10BE JUMPI PUSH2 0x10BD PUSH2 0xFB7 JUMP JUMPDEST JUMPDEST PUSH0 PUSH2 0x10CB DUP6 DUP3 DUP7 ADD PUSH2 0xFDE JUMP JUMPDEST SWAP3 POP POP PUSH1 0x20 PUSH2 0x10DC DUP6 DUP3 DUP7 ADD PUSH2 0x1094 JUMP JUMPDEST SWAP2 POP POP SWAP3 POP SWAP3 SWAP1 POP JUMP JUMPDEST PUSH0 PUSH1 0x20 DUP3 DUP5 SUB SLT ISZERO PUSH2 0x10FB JUMPI PUSH2 0x10FA PUSH2 0xFB7 JUMP JUMPDEST JUMPDEST PUSH0 PUSH2 0x1108 DUP5 DUP3 DUP6 ADD PUSH2 0x1094 JUMP JUMPDEST SWAP2 POP POP SWAP3 SWAP2 POP POP JUMP JUMPDEST PUSH2 0x111A DUP2 PUSH2 0xFBF JUMP JUMPDEST DUP3 MSTORE POP POP JUMP JUMPDEST PUSH0 PUSH1 0x20 DUP3 ADD SWAP1 POP PUSH2 0x1133 PUSH0 DUP4 ADD DUP5 PUSH2 0x1111 JUMP JUMPDEST SWAP3 SWAP2 POP POP JUMP JUMPDEST PUSH2 0x1142 DUP2 PUSH2 0x1075 JUMP JUMPDEST DUP3 MSTORE POP POP JUMP JUMPDEST PUSH0 PUSH1 0x20 DUP3 ADD SWAP1 POP PUSH2 0x115B PUSH0 DUP4 ADD DUP5 PUSH2 0x1139 JUMP JUMPDEST SWAP3 SWAP2 POP POP JUMP JUMPDEST PUSH0 PUSH0 REVERT JUMPDEST PUSH0 PUSH0 REVERT JUMPDEST PUSH0 PUSH0 REVERT JUMPDEST PUSH0 PUSH0 DUP4 PUSH1 0x1F DUP5 ADD SLT PUSH2 0x1182 JUMPI PUSH2 0x1181 PUSH2 0x1161 JUMP JUMPDEST JUMPDEST DUP3 CALLDATALOAD SWAP1 POP PUSH8 0xFFFFFFFFFFFFFFFF DUP2 GT ISZERO PUSH2 0x119F JUMPI PUSH2 0x119E PUSH2 0x1165 JUMP JUMPDEST JUMPDEST PUSH1 0x20 DUP4 ADD SWAP2 POP DUP4 PUSH1 0x1 DUP3 MUL DUP4 ADD GT ISZERO PUSH2 0x11BB JUMPI PUSH2 0x11BA PUSH2 0x1169 JUMP JUMPDEST JUMPDEST SWAP3 POP SWAP3 SWAP1 POP JUMP JUMPDEST PUSH2 0x11CB DUP2 PUSH2 0x103C JUMP JUMPDEST DUP2 EQ PUSH2 0x11D5 JUMPI PUSH0 PUSH0 REVERT JUMPDEST POP JUMP JUMPDEST PUSH0 DUP2 CALLDATALOAD SWAP1 POP PUSH2 0x11E6 DUP2 PUSH2 0x11C2 JUMP JUMPDEST SWAP3 SWAP2 POP POP JUMP JUMPDEST PUSH0 PUSH0 PUSH0 PUSH0 PUSH0 PUSH0 PUSH0 PUSH0 PUSH1 0xA0 DUP10 DUP12 SUB SLT ISZERO PUSH2 0x1208 JUMPI PUSH2 0x1207 PUSH2 0xFB7 JUMP JUMPDEST JUMPDEST PUSH0 DUP10 ADD CALLDATALOAD PUSH8 0xFFFFFFFFFFFFFFFF DUP2 GT ISZERO PUSH2 0x1225 JUMPI PUSH2 0x1224 PUSH2 0xFBB JUMP JUMPDEST JUMPDEST PUSH2 0x1231 DUP12 DUP3 DUP13 ADD PUSH2 0x116D JUMP JUMPDEST SWAP9 POP SWAP9 POP POP PUSH1 0x20 PUSH2 0x1244 DUP12 DUP3 DUP13 ADD PUSH2 0x1094 JUMP JUMPDEST SWAP7 POP POP PUSH1 0x40 DUP10 ADD CALLDATALOAD PUSH8 0xFFFFFFFFFFFFFFFF DUP2 GT ISZERO PUSH2 0x1265 JUMPI PUSH2 0x1264 PUSH2 0xFBB JUMP JUMPDEST JUMPDEST PUSH2 0x1271 DUP12 DUP3 DUP13 ADD PUSH2 0x116D JUMP JUMPDEST SWAP6 POP SWAP6 POP POP PUSH1 0x60 PUSH2 0x1284 DUP12 DUP3 DUP13 ADD PUSH2 0x11D8 JUMP JUMPDEST SWAP4 POP POP PUSH1 0x80 DUP10 ADD CALLDATALOAD PUSH8 0xFFFFFFFFFFFFFFFF DUP2 GT ISZERO PUSH2 0x12A5 JUMPI PUSH2 0x12A4 PUSH2 0xFBB JUMP JUMPDEST JUMPDEST PUSH2 0x12B1 DUP12 DUP3 DUP13 ADD PUSH2 0x116D JUMP JUMPDEST SWAP3 POP SWAP3 POP POP SWAP3 SWAP6 SWAP9 POP SWAP3 SWAP6 SWAP9 SWAP1 SWAP4 SWAP7 POP JUMP JUMPDEST PUSH0 DUP2 MLOAD SWAP1 POP SWAP2 SWAP1 POP JUMP JUMPDEST PUSH0 DUP3 DUP3 MSTORE PUSH1 0x20 DUP3 ADD SWAP1 POP SWAP3 SWAP2 POP POP JUMP JUMPDEST PUSH0 DUP2 SWAP1 POP PUSH1 0x20 DUP3 ADD SWAP1 POP SWAP2 SWAP1 POP JUMP JUMPDEST PUSH2 0x12F5 DUP2 PUSH2 0xFBF JUMP JUMPDEST DUP3 MSTORE POP POP JUMP JUMPDEST PUSH0 PUSH2 0x1306 DUP4 DUP4 PUSH2 0x12EC JUMP JUMPDEST PUSH1 0x20 DUP4 ADD SWAP1 POP SWAP3 SWAP2 POP POP JUMP JUMPDEST PUSH0 PUSH1 0x20 DUP3 ADD SWAP1 POP SWAP2 SWAP1 POP JUMP JUMPDEST PUSH0 PUSH2 0x1328 DUP3 PUSH2 0x12C3 JUMP JUMPDEST PUSH2 0x1332 DUP2 DUP6 PUSH2 0x12CD JUMP JUMPDEST SWAP4 POP PUSH2 0x133D DUP4 PUSH2 0x12DD JUMP JUMPDEST DUP1 PUSH0 JUMPDEST DUP4 DUP2 LT ISZERO PUSH2 0x136D JUMPI DUP2 MLOAD PUSH2 0x1354 DUP9 DUP3 PUSH2 0x12FB JUMP JUMPDEST SWAP8 POP PUSH2 0x135F DUP4 PUSH2 0x1312 JUMP JUMPDEST SWAP3 POP POP PUSH1 0x1 DUP2 ADD SWAP1 POP PUSH2 0x1340 JUMP JUMPDEST POP DUP6 SWAP4 POP POP POP POP SWAP3 SWAP2 POP POP JUMP JUMPDEST PUSH0 DUP2 MLOAD SWAP1 POP SWAP2 SWAP1 POP JUMP JUMPDEST PUSH0 DUP3 DUP3 MSTORE PUSH1 0x20 DUP3 ADD SWAP1 POP SWAP3 SWAP2 POP POP JUMP JUMPDEST PUSH0 DUP2 SWAP1 POP PUSH1 0x20 DUP3 ADD SWAP1 POP SWAP2 SWAP1 POP JUMP JUMPDEST PUSH2 0x13AC DUP2 PUSH2 0x103C JUMP JUMPDEST DUP3 MSTORE POP POP JUMP JUMPDEST PUSH0 PUSH2 0x13BD DUP4 DUP4 PUSH2 0x13A3 JUMP JUMPDEST PUSH1 0x20 DUP4 ADD SWAP1 POP SWAP3 SWAP2 POP POP JUMP JUMPDEST PUSH0 PUSH1 0x20 DUP3 ADD SWAP1 POP SWAP2 SWAP1 POP JUMP JUMPDEST PUSH0 PUSH2 0x13DF DUP3 PUSH2 0x137A JUMP JUMPDEST PUSH2 0x13E9 DUP2 DUP6 PUSH2 0x1384 JUMP JUMPDEST SWAP4 POP PUSH2 0x13F4 DUP4 PUSH2 0x1394 JUMP JUMPDEST DUP1 PUSH0 JUMPDEST DUP4 DUP2 LT ISZERO PUSH2 0x1424 JUMPI DUP2 MLOAD PUSH2 0x140B DUP9 DUP3 PUSH2 0x13B2 JUMP JUMPDEST SWAP8 POP PUSH2 0x1416 DUP4 PUSH2 0x13C9 JUMP JUMPDEST SWAP3 POP POP PUSH1 0x1 DUP2 ADD SWAP1 POP PUSH2 0x13F7 JUMP JUMPDEST POP DUP6 SWAP4 POP POP POP POP SWAP3 SWAP2 POP POP JUMP JUMPDEST PUSH0 PUSH1 0x40 DUP3 ADD SWAP1 POP DUP2 DUP2 SUB PUSH0 DUP4 ADD MSTORE PUSH2 0x1449 DUP2 DUP6 PUSH2 0x131E JUMP JUMPDEST SWAP1 POP DUP2 DUP2 SUB PUSH1 0x20 DUP4 ADD MSTORE PUSH2 0x145D DUP2 DUP5 PUSH2 0x13D5 JUMP JUMPDEST SWAP1 POP SWAP4 SWAP3 POP POP POP JUMP JUMPDEST PUSH0 DUP2 ISZERO ISZERO SWAP1 POP SWAP2 SWAP1 POP JUMP JUMPDEST PUSH2 0x147A DUP2 PUSH2 0x1466 JUMP JUMPDEST DUP2 EQ PUSH2 0x1484 JUMPI PUSH0 PUSH0 REVERT JUMPDEST POP JUMP JUMPDEST PUSH0 DUP2 CALLDATALOAD SWAP1 POP PUSH2 0x1495 DUP2 PUSH2 0x1471 JUMP JUMPDEST SWAP3 SWAP2 POP POP JUMP JUMPDEST PUSH0 PUSH0 PUSH0 PUSH1 0x60 DUP5 DUP7 SUB SLT ISZERO PUSH2 0x14B2 JUMPI PUSH2 0x14B1 PUSH2 0xFB7 JUMP JUMPDEST JUMPDEST PUSH0 PUSH2 0x14BF DUP7 DUP3 DUP8 ADD PUSH2 0xFDE JUMP JUMPDEST SWAP4 POP POP PUSH1 0x20 PUSH2 0x14D0 DUP7 DUP3 DUP8 ADD PUSH2 0x1094 JUMP JUMPDEST SWAP3 POP POP PUSH1 0x40 PUSH2 0x14E1 DUP7 DUP3 DUP8 ADD PUSH2 0x1487 JUMP JUMPDEST SWAP2 POP POP SWAP3 POP SWAP3 POP SWAP3 JUMP JUMPDEST PUSH32 0x466163746F72793A20756E6B6E6F776E20736572766963650000000000000000 PUSH0 DUP3 ADD MSTORE POP JUMP JUMPDEST PUSH0 PUSH2 0x151F PUSH1 0x18 DUP4 PUSH2 0xF3F JUMP JUMPDEST SWAP2 POP PUSH2 0x152A DUP3 PUSH2 0x14EB JUMP JUMPDEST PUSH1 0x20 DUP3 ADD SWAP1 POP SWAP2 SWAP1 POP JUMP JUMPDEST PUSH0 PUSH1 0x20 DUP3 ADD SWAP1 POP DUP2 DUP2 SUB PUSH0 DUP4 ADD MSTORE PUSH2 0x154C DUP2 PUSH2 0x1513 JUMP JUMPDEST SWAP1 POP SWAP2 SWAP1 POP JUMP JUMPDEST PUSH0 DUP2 MLOAD SWAP1 POP PUSH2 0x1561 DUP2 PUSH2 0x11C2 JUMP JUMPDEST SWAP3 SWAP2 POP POP JUMP JUMPDEST PUSH0 PUSH1 0x20 DUP3 DUP5 SUB SLT ISZERO PUSH2 0x157C JUMPI PUSH2 0x157B PUSH2 0xFB7 JUMP JUMPDEST JUMPDEST PUSH0 PUSH2 0x1589 DUP5 DUP3 DUP6 ADD PUSH2 0x1553 JUMP JUMPDEST SWAP2 POP POP SWAP3 SWAP2 POP POP JUMP JUMPDEST PUSH32 0x466163746F72793A2063616C6C6572206973206E6F742070726F766964657200 PUSH0 DUP3 ADD MSTORE POP JUMP JUMPDEST PUSH0 PUSH2 0x15C6 PUSH1 0x1F DUP4 PUSH2 0xF3F JUMP JUMPDEST SWAP2 POP PUSH2 0x15D1 DUP3 PUSH2 0x1592 JUMP JUMPDEST PUSH1 0x20 DUP3 ADD SWAP1 POP SWAP2 SWAP1 POP JUMP JUMPDEST PUSH0 PUSH1 0x20 DUP3 ADD SWAP1 POP DUP2 DUP2 SUB PUSH0 DUP4 ADD MSTORE PUSH2 0x15F3 DUP2 PUSH2 0x15BA JUMP JUMPDEST SWAP1 POP SWAP2 SWAP1 POP JUMP JUMPDEST PUSH32 0x466163746F72793A20696E73756666696369656E74207374616B652062616C61 PUSH0 DUP3 ADD MSTORE PUSH32 0x6E63650000000000000000000000000000000000000000000000000000000000 PUSH1 0x20 DUP3 ADD MSTORE POP JUMP JUMPDEST PUSH0 PUSH2 0x1654 PUSH1 0x23 DUP4 PUSH2 0xF3F JUMP JUMPDEST SWAP2 POP PUSH2 0x165F DUP3 PUSH2 0x15FA JUMP JUMPDEST PUSH1 0x40 DUP3 ADD SWAP1 POP SWAP2 SWAP1 POP JUMP JUMPDEST PUSH0 PUSH1 0x20 DUP3 ADD SWAP1 POP DUP2 DUP2 SUB PUSH0 DUP4 ADD MSTORE PUSH2 0x1681 DUP2 PUSH2 0x1648 JUMP JUMPDEST SWAP1 POP SWAP2 SWAP1 POP JUMP JUMPDEST PUSH32 0x4E487B7100000000000000000000000000000000000000000000000000000000 PUSH0 MSTORE PUSH1 0x11 PUSH1 0x4 MSTORE PUSH1 0x24 PUSH0 REVERT JUMPDEST PUSH0 PUSH2 0x16BF DUP3 PUSH2 0x1075 JUMP JUMPDEST SWAP2 POP PUSH2 0x16CA DUP4 PUSH2 0x1075 JUMP JUMPDEST SWAP3 POP DUP3 DUP3 SUB SWAP1 POP DUP2 DUP2 GT ISZERO PUSH2 0x16E2 JUMPI PUSH2 0x16E1 PUSH2 0x1688 JUMP JUMPDEST JUMPDEST SWAP3 SWAP2 POP POP JUMP JUMPDEST PUSH0 PUSH1 0x40 DUP3 ADD SWAP1 POP PUSH2 0x16FB PUSH0 DUP4 ADD DUP6 PUSH2 0x1139 JUMP JUMPDEST PUSH2 0x1708 PUSH1 0x20 DUP4 ADD DUP5 PUSH2 0x1139 JUMP JUMPDEST SWAP4 SWAP3 POP POP POP JUMP JUMPDEST PUSH32 0x466163746F72793A206E616D652063616E6E6F7420626520656D707479000000 PUSH0 DUP3 ADD MSTORE POP JUMP JUMPDEST PUSH0 PUSH2 0x1743 PUSH1 0x1D DUP4 PUSH2 0xF3F JUMP JUMPDEST SWAP2 POP PUSH2 0x174E DUP3 PUSH2 0x170F JUMP JUMPDEST PUSH1 0x20 DUP3 ADD SWAP1 POP SWAP2 SWAP1 POP JUMP JUMPDEST PUSH0 PUSH1 0x20 DUP3 ADD SWAP1 POP DUP2 DUP2 SUB PUSH0 DUP4 ADD MSTORE PUSH2 0x1770 DUP2 PUSH2 0x1737 JUMP JUMPDEST SWAP1 POP SWAP2 SWAP1 POP JUMP JUMPDEST PUSH32 0x466163746F72793A207374616B65206D75737420636F766572206174206C6561 PUSH0 DUP3 ADD MSTORE PUSH32 0x7374206F6E6520726566756E6400000000000000000000000000000000000000 PUSH1 0x20 DUP3 ADD MSTORE POP JUMP JUMPDEST PUSH0 PUSH2 0x17D1 PUSH1 0x2D DUP4 PUSH2 0xF3F JUMP JUMPDEST SWAP2 POP PUSH2 0x17DC DUP3 PUSH2 0x1777 JUMP JUMPDEST PUSH1 0x40 DUP3 ADD SWAP1 POP SWAP2 SWAP1 POP JUMP JUMPDEST PUSH0 PUSH1 0x20 DUP3 ADD SWAP1 POP DUP2 DUP2 SUB PUSH0 DUP4 ADD MSTORE PUSH2 0x17FE DUP2 PUSH2 0x17C5 JUMP JUMPDEST SWAP1 POP SWAP2 SWAP1 POP JUMP JUMPDEST PUSH0 DUP2 SWAP1 POP SWAP3 SWAP2 POP POP JUMP JUMPDEST DUP3 DUP2 DUP4 CALLDATACOPY PUSH0 DUP4 DUP4 ADD MSTORE POP POP POP JUMP JUMPDEST PUSH0 PUSH2 0x1828 DUP4 DUP6 PUSH2 0x1805 JUMP JUMPDEST SWAP4 POP PUSH2 0x1835 DUP4 DUP6 DUP5 PUSH2 0x180F JUMP JUMPDEST DUP3 DUP5 ADD SWAP1 POP SWAP4 SWAP3 POP POP POP JUMP JUMPDEST PUSH0 PUSH2 0x184D DUP3 DUP5 DUP7 PUSH2 0x181D JUMP JUMPDEST SWAP2 POP DUP2 SWAP1 POP SWAP4 SWAP3 POP POP POP JUMP JUMPDEST PUSH32 0x466163746F72793A2073657276696365206E616D6520616C7265616479207461 PUSH0 DUP3 ADD MSTORE PUSH32 0x6B656E0000000000000000000000000000000000000000000000000000000000 PUSH1 0x20 DUP3 ADD MSTORE POP JUMP JUMPDEST PUSH0 PUSH2 0x18B3 PUSH1 0x23 DUP4 PUSH2 0xF3F JUMP JUMPDEST SWAP2 POP PUSH2 0x18BE DUP3 PUSH2 0x1859 JUMP JUMPDEST PUSH1 0x40 DUP3 ADD SWAP1 POP SWAP2 SWAP1 POP JUMP JUMPDEST PUSH0 PUSH1 0x20 DUP3 ADD SWAP1 POP DUP2 DUP2 SUB PUSH0 DUP4 ADD MSTORE PUSH2 0x18E0 DUP2 PUSH2 0x18A7 JUMP JUMPDEST SWAP1 POP SWAP2 SWAP1 POP JUMP JUMPDEST PUSH0 PUSH1 0x1F NOT PUSH1 0x1F DUP4 ADD AND SWAP1 POP SWAP2 SWAP1 POP JUMP JUMPDEST PUSH0 PUSH2 0x1902 DUP4 DUP6 PUSH2 0xF3F JUMP JUMPDEST SWAP4 POP PUSH2 0x190F DUP4 DUP6 DUP5 PUSH2 0x180F JUMP JUMPDEST PUSH2 0x1918 DUP4 PUSH2 0x18E7 JUMP JUMPDEST DUP5 ADD SWAP1 POP SWAP4 SWAP3 POP POP POP JUMP JUMPDEST PUSH0 PUSH1 0xE0 DUP3 ADD SWAP1 POP PUSH2 0x1936 PUSH0 DUP4 ADD DUP13 PUSH2 0x104D JUMP JUMPDEST PUSH2 0x1943 PUSH1 0x20 DUP4 ADD DUP12 PUSH2 0x1111 JUMP JUMPDEST PUSH2 0x1950 PUSH1 0x40 DUP4 ADD DUP11 PUSH2 0x104D JUMP JUMPDEST PUSH2 0x195D PUSH1 0x60 DUP4 ADD DUP10 PUSH2 0x1139 JUMP JUMPDEST DUP2 DUP2 SUB PUSH1 0x80 DUP4 ADD MSTORE PUSH2 0x1970 DUP2 DUP8 DUP10 PUSH2 0x18F7 JUMP JUMPDEST SWAP1 POP PUSH2 0x197F PUSH1 0xA0 DUP4 ADD DUP7 PUSH2 0x104D JUMP JUMPDEST DUP2 DUP2 SUB PUSH1 0xC0 DUP4 ADD MSTORE PUSH2 0x1992 DUP2 DUP5 DUP7 PUSH2 0x18F7 JUMP JUMPDEST SWAP1 POP SWAP11 SWAP10 POP POP POP POP POP POP POP POP POP POP JUMP JUMPDEST PUSH0 PUSH1 0x60 DUP3 ADD SWAP1 POP DUP2 DUP2 SUB PUSH0 DUP4 ADD MSTORE PUSH2 0x19BB DUP2 DUP7 DUP9 PUSH2 0x18F7 JUMP JUMPDEST SWAP1 POP PUSH2 0x19CA PUSH1 0x20 DUP4 ADD DUP6 PUSH2 0x104D JUMP JUMPDEST PUSH2 0x19D7 PUSH1 0x40 DUP4 ADD DUP5 PUSH2 0x1139 JUMP JUMPDEST SWAP6 SWAP5 POP POP POP POP POP JUMP JUMPDEST PUSH32 0x4E487B7100000000000000000000000000000000000000000000000000000000 PUSH0 MSTORE PUSH1 0x41 PUSH1 0x4 MSTORE PUSH1 0x24 PUSH0 REVERT JUMPDEST PUSH32 0x4E487B7100000000000000000000000000000000000000000000000000000000 PUSH0 MSTORE PUSH1 0x32 PUSH1 0x4 MSTORE PUSH1 0x24 PUSH0 REVERT JUMPDEST PUSH0 PUSH2 0x1A44 DUP3 PUSH2 0x1075 JUMP JUMPDEST SWAP2 POP PUSH2 0x1A4F DUP4 PUSH2 0x1075 JUMP JUMPDEST SWAP3 POP DUP3 DUP3 ADD SWAP1 POP DUP1 DUP3 GT ISZERO PUSH2 0x1A67 JUMPI PUSH2 0x1A66 PUSH2 0x1688 JUMP JUMPDEST JUMPDEST SWAP3 SWAP2 POP POP JUMP JUMPDEST PUSH0 DUP2 MLOAD SWAP1 POP PUSH2 0x1A7B DUP2 PUSH2 0x107E JUMP JUMPDEST SWAP3 SWAP2 POP POP JUMP JUMPDEST PUSH0 PUSH1 0x20 DUP3 DUP5 SUB SLT ISZERO PUSH2 0x1A96 JUMPI PUSH2 0x1A95 PUSH2 0xFB7 JUMP JUMPDEST JUMPDEST PUSH0 PUSH2 0x1AA3 DUP5 DUP3 DUP6 ADD PUSH2 0x1A6D JUMP JUMPDEST SWAP2 POP POP SWAP3 SWAP2 POP POP JUMP JUMPDEST PUSH32 0x466163746F72793A206172626974657220626F6E6420746F6F206C6F77000000 PUSH0 DUP3 ADD MSTORE POP JUMP JUMPDEST PUSH0 PUSH2 0x1AE0 PUSH1 0x1D DUP4 PUSH2 0xF3F JUMP JUMPDEST SWAP2 POP PUSH2 0x1AEB DUP3 PUSH2 0x1AAC JUMP JUMPDEST PUSH1 0x20 DUP3 ADD SWAP1 POP SWAP2 SWAP1 POP JUMP JUMPDEST PUSH0 PUSH1 0x20 DUP3 ADD SWAP1 POP DUP2 DUP2 SUB PUSH0 DUP4 ADD MSTORE PUSH2 0x1B0D DUP2 PUSH2 0x1AD4 JUMP JUMPDEST SWAP1 POP SWAP2 SWAP1 POP JUMP JUMPDEST PUSH32 0x466163746F72793A2070726F7669646572207374616B6520696E737566666963 PUSH0 DUP3 ADD MSTORE PUSH32 0x69656E7400000000000000000000000000000000000000000000000000000000 PUSH1 0x20 DUP3 ADD MSTORE POP JUMP JUMPDEST PUSH0 PUSH2 0x1B6E PUSH1 0x24 DUP4 PUSH2 0xF3F JUMP JUMPDEST SWAP2 POP PUSH2 0x1B79 DUP3 PUSH2 0x1B14 JUMP JUMPDEST PUSH1 0x40 DUP3 ADD SWAP1 POP SWAP2 SWAP1 POP JUMP JUMPDEST PUSH0 PUSH1 0x20 DUP3 ADD SWAP1 POP DUP2 DUP2 SUB PUSH0 DUP4 ADD MSTORE PUSH2 0x1B9B DUP2 PUSH2 0x1B62 JUMP JUMPDEST SWAP1 POP SWAP2 SWAP1 POP JUMP JUMPDEST PUSH2 0x1BAB DUP2 PUSH2 0x1466 JUMP JUMPDEST DUP3 MSTORE POP POP JUMP JUMPDEST PUSH0 PUSH1 0x20 DUP3 ADD SWAP1 POP PUSH2 0x1BC4 PUSH0 DUP4 ADD DUP5 PUSH2 0x1BA2 JUMP JUMPDEST SWAP3 SWAP2 POP POP JUMP JUMPDEST POP JUMP JUMPDEST PUSH0 PUSH2 0x1BD8 PUSH0 DUP4 PUSH2 0x1805 JUMP JUMPDEST SWAP2 POP PUSH2 0x1BE3 DUP3 PUSH2 0x1BCA JUMP JUMPDEST PUSH0 DUP3 ADD SWAP1 POP SWAP2 SWAP1 POP JUMP JUMPDEST PUSH0 PUSH2 0x1BF7 DUP3 PUSH2 0x1BCD JUMP JUMPDEST SWAP2 POP DUP2 SWAP1 POP SWAP2 SWAP1 POP JUMP JUMPDEST PUSH32 0x466163746F72793A20455448207472616E73666572206661696C656400000000 PUSH0 DUP3 ADD MSTORE POP JUMP JUMPDEST PUSH0 PUSH2 0x1C35 PUSH1 0x1C DUP4 PUSH2 0xF3F JUMP JUMPDEST SWAP2 POP PUSH2 0x1C40 DUP3 PUSH2 0x1C01 JUMP JUMPDEST PUSH1 0x20 DUP3 ADD SWAP1 POP SWAP2 SWAP1 POP JUMP JUMPDEST PUSH0 PUSH1 0x20 DUP3 ADD SWAP1 POP DUP2 DUP2 SUB PUSH0 DUP4 ADD MSTORE PUSH2 0x1C62 DUP2 PUSH2 0x1C29 JUMP JUMPDEST SWAP1 POP SWAP2 SWAP1 POP JUMP INVALID PUSH2 0x100 PUSH1 0x40 MSTORE PUSH1 0x1 PUSH1 0x5 SSTORE CALLVALUE DUP1 ISZERO PUSH2 0x15 JUMPI PUSH0 PUSH0 REVERT JUMPDEST POP PUSH1 0x40 MLOAD PUSH2 0x3CE9 CODESIZE SUB DUP1 PUSH2 0x3CE9 DUP4 CODECOPY DUP2 DUP2 ADD PUSH1 0x40 MSTORE DUP2 ADD SWAP1 PUSH2 0x37 SWAP2 SWAP1 PUSH2 0x4F6 JUMP JUMPDEST PUSH0 PUSH20 0xFFFFFFFFFFFFFFFFFFFFFFFFFFFFFFFFFFFFFFFF AND DUP8 PUSH20 0xFFFFFFFFFFFFFFFFFFFFFFFFFFFFFFFFFFFFFFFF AND SUB PUSH2 0xA5 JUMPI PUSH1 0x40 MLOAD PUSH32 0x8C379A000000000000000000000000000000000000000000000000000000000 DUP2 MSTORE PUSH1 0x4 ADD PUSH2 0x9C SWAP1 PUSH2 0x625 JUMP JUMPDEST PUSH1 0x40 MLOAD DUP1 SWAP2 SUB SWAP1 REVERT JUMPDEST PUSH0 PUSH20 0xFFFFFFFFFFFFFFFFFFFFFFFFFFFFFFFFFFFFFFFF AND DUP6 PUSH20 0xFFFFFFFFFFFFFFFFFFFFFFFFFFFFFFFFFFFFFFFF AND SUB PUSH2 0x113 JUMPI PUSH1 0x40 MLOAD PUSH32 0x8C379A000000000000000000000000000000000000000000000000000000000 DUP2 MSTORE PUSH1 0x4 ADD PUSH2 0x10A SWAP1 PUSH2 0x68D JUMP JUMPDEST PUSH1 0x40 MLOAD DUP1 SWAP2 SUB SWAP1 REVERT JUMPDEST PUSH0 DUP5 GT PUSH2 0x155 JUMPI PUSH1 0x40 MLOAD PUSH32 0x8C379A000000000000000000000000000000000000000000000000000000000 DUP2 MSTORE PUSH1 0x4 ADD PUSH2 0x14C SWAP1 PUSH2 0x6F5 JUMP JUMPDEST PUSH1 0x40 MLOAD DUP1 SWAP2 SUB SWAP1 REVERT JUMPDEST PUSH0 DUP4 MLOAD GT PUSH2 0x198 JUMPI PUSH1 0x40 MLOAD PUSH32 0x8C379A000000000000000000000000000000000000000000000000000000000 DUP2 MSTORE PUSH1 0x4 ADD PUSH2 0x18F SWAP1 PUSH2 0x75D JUMP JUMPDEST PUSH1 0x40 MLOAD DUP1 SWAP2 SUB SWAP1 REVERT JUMPDEST PUSH0 PUSH20 0xFFFFFFFFFFFFFFFFFFFFFFFFFFFFFFFFFFFFFFFF AND DUP3 PUSH20 0xFFFFFFFFFFFFFFFFFFFFFFFFFFFFFFFFFFFFFFFF AND SUB PUSH2 0x206 JUMPI PUSH1 0x40 MLOAD PUSH32 0x8C379A000000000000000000000000000000000000000000000000000000000 DUP2 MSTORE PUSH1 0x4 ADD PUSH2 0x1FD SWAP1 PUSH2 0x7EB JUMP JUMPDEST PUSH1 0x40 MLOAD DUP1 SWAP2 SUB SWAP1 REVERT JUMPDEST DUP7 PUSH20 0xFFFFFFFFFFFFFFFFFFFFFFFFFFFFFFFFFFFFFFFF AND PUSH1 0x80 DUP2 PUSH20 0xFFFFFFFFFFFFFFFFFFFFFFFFFFFFFFFFFFFFFFFF AND DUP2 MSTORE POP POP DUP6 PUSH1 0xA0 DUP2 DUP2 MSTORE POP POP DUP5 PUSH20 0xFFFFFFFFFFFFFFFFFFFFFFFFFFFFFFFFFFFFFFFF AND PUSH1 0xC0 DUP2 PUSH20 0xFFFFFFFFFFFFFFFFFFFFFFFFFFFFFFFFFFFFFFFF AND DUP2 MSTORE POP POP DUP4 PUSH1 0xE0 DUP2 DUP2 MSTORE POP POP DUP3 PUSH1 0x1 SWAP1 DUP2 PUSH2 0x28D SWAP2 SWAP1 PUSH2 0xA10 JUMP JUMPDEST POP DUP2 PUSH1 0x2 PUSH0 PUSH2 0x100 EXP DUP2 SLOAD DUP2 PUSH20 0xFFFFFFFFFFFFFFFFFFFFFFFFFFFFFFFFFFFFFFFF MUL NOT AND SWAP1 DUP4 PUSH20 0xFFFFFFFFFFFFFFFFFFFFFFFFFFFFFFFFFFFFFFFF AND MUL OR SWAP1 SSTORE POP DUP1 PUSH0 SWAP1 DUP2 PUSH2 0x2DC SWAP2 SWAP1 PUSH2 0xA10 JUMP JUMPDEST POP POP POP POP POP POP POP POP PUSH2 0xADF JUMP JUMPDEST PUSH0 PUSH1 0x40 MLOAD SWAP1 POP SWAP1 JUMP JUMPDEST PUSH0 PUSH0 REVERT JUMPDEST PUSH0 PUSH0 REVERT JUMPDEST PUSH0 PUSH20 0xFFFFFFFFFFFFFFFFFFFFFFFFFFFFFFFFFFFFFFFF DUP3 AND SWAP1 POP SWAP2 SWAP1 POP JUMP JUMPDEST PUSH0 PUSH2 0x323 DUP3 PUSH2 0x2FA JUMP JUMPDEST SWAP1 POP SWAP2 SWAP1 POP JUMP JUMPDEST PUSH2 0x333 DUP2 PUSH2 0x319 JUMP JUMPDEST DUP2 EQ PUSH2 0x33D JUMPI PUSH0 PUSH0 REVERT JUMPDEST POP JUMP JUMPDEST PUSH0 DUP2 MLOAD SWAP1 POP PUSH2 0x34E DUP2 PUSH2 0x32A JUMP JUMPDEST SWAP3 SWAP2 POP POP JUMP JUMPDEST PUSH0 DUP2 SWAP1 POP SWAP2 SWAP1 POP JUMP JUMPDEST PUSH2 0x366 DUP2 PUSH2 0x354 JUMP JUMPDEST DUP2 EQ PUSH2 0x370 JUMPI PUSH0 PUSH0 REVERT JUMPDEST POP JUMP JUMPDEST PUSH0 DUP2 MLOAD SWAP1 POP PUSH2 0x381 DUP2 PUSH2 0x35D JUMP JUMPDEST SWAP3 SWAP2 POP POP JUMP JUMPDEST PUSH0 DUP2 SWAP1 POP SWAP2 SWAP1 POP JUMP JUMPDEST PUSH2 0x399 DUP2 PUSH2 0x387 JUMP JUMPDEST DUP2 EQ PUSH2 0x3A3 JUMPI PUSH0 PUSH0 REVERT JUMPDEST POP JUMP JUMPDEST PUSH0 DUP2 MLOAD SWAP1 POP PUSH2 0x3B4 DUP2 PUSH2 0x390 JUMP JUMPDEST SWAP3 SWAP2 POP POP JUMP JUMPDEST PUSH0 PUSH0 REVERT JUMPDEST PUSH0 PUSH0 REVERT JUMPDEST PUSH0 PUSH1 0x1F NOT PUSH1 0x1F DUP4 ADD AND SWAP1 POP SWAP2 SWAP1 POP JUMP JUMPDEST PUSH32 0x4E487B7100000000000000000000000000000000000000000000000000000000 PUSH0 MSTORE PUSH1 0x41 PUSH1 0x4 MSTORE PUSH1 0x24 PUSH0 REVERT JUMPDEST PUSH2 0x408 DUP3 PUSH2 0x3C2 JUMP JUMPDEST DUP2 ADD DUP2 DUP2 LT PUSH8 0xFFFFFFFFFFFFFFFF DUP3 GT OR ISZERO PUSH2 0x427 JUMPI PUSH2 0x426 PUSH2 0x3D2 JUMP JUMPDEST JUMPDEST DUP1 PUSH1 0x40 MSTORE POP POP POP JUMP JUMPDEST PUSH0 PUSH2 0x439 PUSH2 0x2E9 JUMP JUMPDEST SWAP1 POP PUSH2 0x445 DUP3 DUP3 PUSH2 0x3FF JUMP JUMPDEST SWAP2 SWAP1 POP JUMP JUMPDEST PUSH0 PUSH8 0xFFFFFFFFFFFFFFFF DUP3 GT ISZERO PUSH2 0x464 JUMPI PUSH2 0x463 PUSH2 0x3D2 JUMP JUMPDEST JUMPDEST PUSH2 0x46D DUP3 PUSH2 0x3C2 JUMP JUMPDEST SWAP1 POP PUSH1 0x20 DUP2 ADD SWAP1 POP SWAP2 SWAP1 POP JUMP JUMPDEST DUP3 DUP2 DUP4 MCOPY PUSH0 DUP4 DUP4 ADD MSTORE POP POP POP JUMP JUMPDEST PUSH0 PUSH2 0x49A PUSH2 0x495 DUP5 PUSH2 0x44A JUMP JUMPDEST PUSH2 0x430 JUMP JUMPDEST SWAP1 POP DUP3 DUP2 MSTORE PUSH1 0x20 DUP2 ADD DUP5 DUP5 DUP5 ADD GT ISZERO PUSH2 0x4B6 JUMPI PUSH2 0x4B5 PUSH2 0x3BE JUMP JUMPDEST JUMPDEST PUSH2 0x4C1 DUP5 DUP3 DUP6 PUSH2 0x47A JUMP JUMPDEST POP SWAP4 SWAP3 POP POP POP JUMP JUMPDEST PUSH0 DUP3 PUSH1 0x1F DUP4 ADD SLT PUSH2 0x4DD JUMPI PUSH2 0x4DC PUSH2 0x3BA JUMP JUMPDEST JUMPDEST DUP2 MLOAD PUSH2 0x4ED DUP5 DUP3 PUSH1 0x20 DUP7 ADD PUSH2 0x488 JUMP JUMPDEST SWAP2 POP POP SWAP3 SWAP2 POP POP JUMP JUMPDEST PUSH0 PUSH0 PUSH0 PUSH0 PUSH0 PUSH0 PUSH0 PUSH1 0xE0 DUP9 DUP11 SUB SLT ISZERO PUSH2 0x511 JUMPI PUSH2 0x510 PUSH2 0x2F2 JUMP JUMPDEST JUMPDEST PUSH0 PUSH2 0x51E DUP11 DUP3 DUP12 ADD PUSH2 0x340 JUMP JUMPDEST SWAP8 POP POP PUSH1 0x20 PUSH2 0x52F DUP11 DUP3 DUP12 ADD PUSH2 0x373 JUMP JUMPDEST SWAP7 POP POP PUSH1 0x40 PUSH2 0x540 DUP11 DUP3 DUP12 ADD PUSH2 0x340 JUMP JUMPDEST SWAP6 POP POP PUSH1 0x60 PUSH2 0x551 DUP11 DUP3 DUP12 ADD PUSH2 0x3A6 JUMP JUMPDEST SWAP5 POP POP PUSH1 0x80 DUP9 ADD MLOAD PUSH8 0xFFFFFFFFFFFFFFFF DUP2 GT ISZERO PUSH2 0x572 JUMPI PUSH2 0x571 PUSH2 0x2F6 JUMP JUMPDEST JUMPDEST PUSH2 0x57E DUP11 DUP3 DUP12 ADD PUSH2 0x4C9 JUMP JUMPDEST SWAP4 POP POP PUSH1 0xA0 PUSH2 0x58F DUP11 DUP3 DUP12 ADD PUSH2 0x340 JUMP JUMPDEST SWAP3 POP POP PUSH1 0xC0 DUP9 ADD MLOAD PUSH8 0xFFFFFFFFFFFFFFFF DUP2 GT ISZERO PUSH2 0x5B0 JUMPI PUSH2 0x5AF PUSH2 0x2F6 JUMP JUMPDEST JUMPDEST PUSH2 0x5BC DUP11 DUP3 DUP12 ADD PUSH2 0x4C9 JUMP JUMPDEST SWAP2 POP POP SWAP3 SWAP6 SWAP9 SWAP2 SWAP5 SWAP8 POP SWAP3 SWAP6 POP JUMP JUMPDEST PUSH0 DUP3 DUP3 MSTORE PUSH1 0x20 DUP3 ADD SWAP1 POP SWAP3 SWAP2 POP POP JUMP JUMPDEST PUSH32 0x457363726F773A20666163746F7279206973207A65726F206164647265737300 PUSH0 DUP3 ADD MSTORE POP JUMP JUMPDEST PUSH0 PUSH2 0x60F PUSH1 0x1F DUP4 PUSH2 0x5CB JUMP JUMPDEST SWAP2 POP PUSH2 0x61A DUP3 PUSH2 0x5DB JUMP JUMPDEST PUSH1 0x20 DUP3 ADD SWAP1 POP SWAP2 SWAP1 POP JUMP JUMPDEST PUSH0 PUSH1 0x20 DUP3 ADD SWAP1 POP DUP2 DUP2 SUB PUSH0 DUP4 ADD MSTORE PUSH2 0x63C DUP2 PUSH2 0x603 JUMP JUMPDEST SWAP1 POP SWAP2 SWAP1 POP JUMP JUMPDEST PUSH32 0x457363726F773A2070726F7669646572206973207A65726F2061646472657373 PUSH0 DUP3 ADD MSTORE POP JUMP JUMPDEST PUSH0 PUSH2 0x677 PUSH1 0x20 DUP4 PUSH2 0x5CB JUMP JUMPDEST SWAP2 POP PUSH2 0x682 DUP3 PUSH2 0x643 JUMP JUMPDEST PUSH1 0x20 DUP3 ADD SWAP1 POP SWAP2 SWAP1 POP JUMP JUMPDEST PUSH0 PUSH1 0x20 DUP3 ADD SWAP1 POP DUP2 DUP2 SUB PUSH0 DUP4 ADD MSTORE PUSH2 0x6A4 DUP2 PUSH2 0x66B JUMP JUMPDEST SWAP1 POP SWAP2 SWAP1 POP JUMP JUMPDEST PUSH32 0x457363726F773A207072696365206D757374206265203E203000000000000000 PUSH0 DUP3 ADD MSTORE POP JUMP JUMPDEST PUSH0 PUSH2 0x6DF PUSH1 0x19 DUP4 PUSH2 0x5CB JUMP JUMPDEST SWAP2 POP PUSH2 0x6EA DUP3 PUSH2 0x6AB JUMP JUMPDEST PUSH1 0x20 DUP3 ADD SWAP1 POP SWAP2 SWAP1 POP JUMP JUMPDEST PUSH0 PUSH1 0x20 DUP3 ADD SWAP1 POP DUP2 DUP2 SUB PUSH0 DUP4 ADD MSTORE PUSH2 0x70C DUP2 PUSH2 0x6D3 JUMP JUMPDEST SWAP1 POP SWAP2 SWAP1 POP JUMP JUMPDEST PUSH32 0x457363726F773A20676174657761792063616E6E6F7420626520656D70747900 PUSH0 DUP3 ADD MSTORE POP JUMP JUMPDEST PUSH0 PUSH2 0x747 PUSH1 0x1F DUP4 PUSH2 0x5CB JUMP JUMPDEST SWAP2 POP PUSH2 0x752 DUP3 PUSH2 0x713 JUMP JUMPDEST PUSH1 0x20 DUP3 ADD SWAP1 POP SWAP2 SWAP1 POP JUMP JUMPDEST PUSH0 PUSH1 0x20 DUP3 ADD SWAP1 POP DUP2 DUP2 SUB PUSH0 DUP4 ADD MSTORE PUSH2 0x774 DUP2 PUSH2 0x73B JUMP JUMPDEST SWAP1 POP SWAP2 SWAP1 POP JUMP JUMPDEST PUSH32 0x457363726F773A2067617465776179207369676E65722063616E6E6F74206265 PUSH0 DUP3 ADD MSTORE PUSH32 0x207A65726F206164647265737300000000000000000000000000000000000000 PUSH1 0x20 DUP3 ADD MSTORE POP JUMP JUMPDEST PUSH0 PUSH2 0x7D5 PUSH1 0x2D DUP4 PUSH2 0x5CB JUMP JUMPDEST SWAP2 POP PUSH2 0x7E0 DUP3 PUSH2 0x77B JUMP JUMPDEST PUSH1 0x40 DUP3 ADD SWAP1 POP SWAP2 SWAP1 POP JUMP JUMPDEST PUSH0 PUSH1 0x20 DUP3 ADD SWAP1 POP DUP2 DUP2 SUB PUSH0 DUP4 ADD MSTORE PUSH2 0x802 DUP2 PUSH2 0x7C9 JUMP JUMPDEST SWAP1 POP SWAP2 SWAP1 POP JUMP JUMPDEST PUSH0 DUP2 MLOAD SWAP1 POP SWAP2 SWAP1 POP JUMP JUMPDEST PUSH32 0x4E487B7100000000000000000000000000000000000000000000000000000000 PUSH0 MSTORE PUSH1 0x22 PUSH1 0x4 MSTORE PUSH1 0x24 PUSH0 REVERT JUMPDEST PUSH0 PUSH1 0x2 DUP3 DIV SWAP1 POP PUSH1 0x1 DUP3 AND DUP1 PUSH2 0x857 JUMPI PUSH1 0x7F DUP3 AND SWAP2 POP JUMPDEST PUSH1 0x20 DUP3 LT DUP2 SUB PUSH2 0x86A JUMPI PUSH2 0x869 PUSH2 0x813 JUMP JUMPDEST JUMPDEST POP SWAP2 SWAP1 POP JUMP JUMPDEST PUSH0 DUP2 SWAP1 POP DUP2 PUSH0 MSTORE PUSH1 0x20 PUSH0 KECCAK256 SWAP1 POP SWAP2 SWAP1 POP JUMP JUMPDEST PUSH0 PUSH1 0x20 PUSH1 0x1F DUP4 ADD DIV SWAP1 POP SWAP2 SWAP1 POP JUMP JUMPDEST PUSH0 DUP3 DUP3 SHL SWAP1 POP SWAP3 SWAP2 POP POP JUMP JUMPDEST PUSH0 PUSH1 0x8 DUP4 MUL PUSH2 0x8CC PUSH32 0xFFFFFFFFFFFFFFFFFFFFFFFFFFFFFFFFFFFFFFFFFFFFFFFFFFFFFFFFFFFFFFFF DUP3 PUSH2 0x891 JUMP JUMPDEST PUSH2 0x8D6 DUP7 DUP4 PUSH2 0x891 JUMP JUMPDEST SWAP6 POP DUP1 NOT DUP5 AND SWAP4 POP DUP1 DUP7 AND DUP5 OR SWAP3 POP POP POP SWAP4 SWAP3 POP POP POP JUMP JUMPDEST PUSH0 DUP2 SWAP1 POP SWAP2 SWAP1 POP JUMP JUMPDEST PUSH0 PUSH2 0x911 PUSH2 0x90C PUSH2 0x907 DUP5 PUSH2 0x387 JUMP JUMPDEST PUSH2 0x8EE JUMP JUMPDEST PUSH2 0x387 JUMP JUMPDEST SWAP1 POP SWAP2 SWAP1 POP JUMP JUMPDEST PUSH0 DUP2 SWAP1 POP SWAP2 SWAP1 POP JUMP JUMPDEST PUSH2 0x92A DUP4 PUSH2 0x8F7 JUMP JUMPDEST PUSH2 0x93E PUSH2 0x936 DUP3 PUSH2 0x918 JUMP JUMPDEST DUP5 DUP5 SLOAD PUSH2 0x89D JUMP JUMPDEST DUP3 SSTORE POP POP POP POP JUMP JUMPDEST PUSH0 PUSH0 SWAP1 POP SWAP1 JUMP JUMPDEST PUSH2 0x955 PUSH2 0x946 JUMP JUMPDEST PUSH2 0x960 DUP2 DUP5 DUP5 PUSH2 0x921 JUMP JUMPDEST POP POP POP JUMP JUMPDEST JUMPDEST DUP2 DUP2 LT ISZERO PUSH2 0x983 JUMPI PUSH2 0x978 PUSH0 DUP3 PUSH2 0x94D JUMP JUMPDEST PUSH1 0x1 DUP2 ADD SWAP1 POP PUSH2 0x966 JUMP JUMPDEST POP POP JUMP JUMPDEST PUSH1 0x1F DUP3 GT ISZERO PUSH2 0x9C8 JUMPI PUSH2 0x999 DUP2 PUSH2 0x870 JUMP JUMPDEST PUSH2 0x9A2 DUP5 PUSH2 0x882 JUMP JUMPDEST DUP2 ADD PUSH1 0x20 DUP6 LT ISZERO PUSH2 0x9B1 JUMPI DUP2 SWAP1 POP JUMPDEST PUSH2 0x9C5 PUSH2 0x9BD DUP6 PUSH2 0x882 JUMP JUMPDEST DUP4 ADD DUP3 PUSH2 0x965 JUMP JUMPDEST POP POP JUMPDEST POP POP POP JUMP JUMPDEST PUSH0 DUP3 DUP3 SHR SWAP1 POP SWAP3 SWAP2 POP POP JUMP JUMPDEST PUSH0 PUSH2 0x9E8 PUSH0 NOT DUP5 PUSH1 0x8 MUL PUSH2 0x9CD JUMP JUMPDEST NOT DUP1 DUP4 AND SWAP2 POP POP SWAP3 SWAP2 POP POP JUMP JUMPDEST PUSH0 PUSH2 0xA00 DUP4 DUP4 PUSH2 0x9D9 JUMP JUMPDEST SWAP2 POP DUP3 PUSH1 0x2 MUL DUP3 OR SWAP1 POP SWAP3 SWAP2 POP POP JUMP JUMPDEST PUSH2 0xA19 DUP3 PUSH2 0x809 JUMP JUMPDEST PUSH8 0xFFFFFFFFFFFFFFFF DUP2 GT ISZERO PUSH2 0xA32 JUMPI PUSH2 0xA31 PUSH2 0x3D2 JUMP JUMPDEST JUMPDEST PUSH2 0xA3C DUP3 SLOAD PUSH2 0x840 JUMP JUMPDEST PUSH2 0xA47 DUP3 DUP3 DUP6 PUSH2 0x987 JUMP JUMPDEST PUSH0 PUSH1 0x20 SWAP1 POP PUSH1 0x1F DUP4 GT PUSH1 0x1 DUP2 EQ PUSH2 0xA78 JUMPI PUSH0 DUP5 ISZERO PUSH2 0xA66 JUMPI DUP3 DUP8 ADD MLOAD SWAP1 POP JUMPDEST PUSH2 0xA70 DUP6 DUP3 PUSH2 0x9F5 JUMP JUMPDEST DUP7 SSTORE POP PUSH2 0xAD7 JUMP JUMPDEST PUSH1 0x1F NOT DUP5 AND PUSH2 0xA86 DUP7 PUSH2 0x870 JUMP JUMPDEST PUSH0 JUMPDEST DUP3 DUP2 LT ISZERO PUSH2 0xAAD JUMPI DUP5 DUP10 ADD MLOAD DUP3 SSTORE PUSH1 0x1 DUP3 ADD SWAP2 POP PUSH1 0x20 DUP6 ADD SWAP5 POP PUSH1 0x20 DUP2 ADD SWAP1 POP PUSH2 0xA88 JUMP JUMPDEST DUP7 DUP4 LT ISZERO PUSH2 0xACA JUMPI DUP5 DUP10 ADD MLOAD PUSH2 0xAC6 PUSH1 0x1F DUP10 AND DUP3 PUSH2 0x9D9 JUMP JUMPDEST DUP4 SSTORE POP JUMPDEST PUSH1 0x1 PUSH1 0x2 DUP9 MUL ADD DUP9 SSTORE POP POP POP JUMPDEST POP POP POP POP POP POP JUMP JUMPDEST PUSH1 0x80 MLOAD PUSH1 0xA0 MLOAD PUSH1 0xC0 MLOAD PUSH1 0xE0 MLOAD PUSH2 0x3198 PUSH2 0xB51 PUSH0 CODECOPY PUSH0 DUP2 DUP2 PUSH2 0x965 ADD MSTORE PUSH2 0x110D ADD MSTORE PUSH0 DUP2 DUP2 PUSH2 0x495 ADD MSTORE DUP2 DUP2 PUSH2 0x545 ADD MSTORE DUP2 DUP2 PUSH2 0xB9D ADD MSTORE DUP2 DUP2 PUSH2 0xDEE ADD MSTORE DUP2 DUP2 PUSH2 0x14A3 ADD MSTORE DUP2 DUP2 PUSH2 0x14DA ADD MSTORE PUSH2 0x15C3 ADD MSTORE PUSH0 PUSH2 0x12EA ADD MSTORE PUSH0 DUP2 DUP2 PUSH2 0xF59 ADD MSTORE DUP2 DUP2 PUSH2 0x12C6 ADD MSTORE PUSH2 0x130E ADD MSTORE PUSH2 0x3198 PUSH0 RETURN INVALID PUSH1 0x80 PUSH1 0x40 MSTORE PUSH1 0x4 CALLDATASIZE LT PUSH2 0x122 JUMPI PUSH0 CALLDATALOAD PUSH1 0xE0 SHR DUP1 PUSH4 0x8392FE31 GT PUSH2 0x9F JUMPI DUP1 PUSH4 0xDA20EC6A GT PUSH2 0x63 JUMPI DUP1 PUSH4 0xDA20EC6A EQ PUSH2 0x3C7 JUMPI DUP1 PUSH4 0xDF686DED EQ PUSH2 0x3F1 JUMPI DUP1 PUSH4 0xE7261687 EQ PUSH2 0x419 JUMPI DUP1 PUSH4 0xE735B48A EQ PUSH2 0x441 JUMPI DUP1 PUSH4 0xF3253C63 EQ PUSH2 0x469 JUMPI PUSH2 0x129 JUMP JUMPDEST DUP1 PUSH4 0x8392FE31 EQ PUSH2 0x2E3 JUMPI DUP1 PUSH4 0x88985EC5 EQ PUSH2 0x323 JUMPI DUP1 PUSH4 0xA035B1FE EQ PUSH2 0x34B JUMPI DUP1 PUSH4 0xA5C1674E EQ PUSH2 0x375 JUMPI DUP1 PUSH4 0xC45A0155 EQ PUSH2 0x39D JUMPI PUSH2 0x129 JUMP JUMPDEST DUP1 PUSH4 0x558EAB4B GT PUSH2 0xE6 JUMPI DUP1 PUSH4 0x558EAB4B EQ PUSH2 0x20F JUMPI DUP1 PUSH4 0x5C646B5A EQ PUSH2 0x237 JUMPI DUP1 PUSH4 0x5EC96F75 EQ PUSH2 0x255 JUMPI DUP1 PUSH4 0x60595AC9 EQ PUSH2 0x291 JUMPI DUP1 PUSH4 0x7284E416 EQ PUSH2 0x2B9 JUMPI PUSH2 0x129 JUMP JUMPDEST DUP1 PUSH4 0x85D4883 EQ PUSH2 0x12D JUMPI DUP1 PUSH4 0x116191B6 EQ PUSH2 0x157 JUMPI DUP1 PUSH4 0x11ACFB3D EQ PUSH2 0x181 JUMPI DUP1 PUSH4 0x23B4A7A3 EQ PUSH2 0x1A9 JUMPI DUP1 PUSH4 0x29514482 EQ PUSH2 0x1D3 JUMPI PUSH2 0x129 JUMP JUMPDEST CALLDATASIZE PUSH2 0x129 JUMPI STOP JUMPDEST PUSH0 PUSH0 REVERT JUMPDEST CALLVALUE DUP1 ISZERO PUSH2 0x138 JUMPI PUSH0 PUSH0 REVERT JUMPDEST POP PUSH2 0x141 PUSH2 0x493 JUMP JUMPDEST PUSH1 0x40 MLOAD PUSH2 0x14E SWAP2 SWAP1 PUSH2 0x1B8D JUMP JUMPDEST PUSH1 0x40 MLOAD DUP1 SWAP2 SUB SWAP1 RETURN JUMPDEST CALLVALUE DUP1 ISZERO PUSH2 0x162 JUMPI PUSH0 PUSH0 REVERT JUMPDEST POP PUSH2 0x16B PUSH2 0x4B7 JUMP JUMPDEST PUSH1 0x40 MLOAD PUSH2 0x178 SWAP2 SWAP1 PUSH2 0x1C16 JUMP JUMPDEST PUSH1 0x40 MLOAD DUP1 SWAP2 SUB SWAP1 RETURN JUMPDEST CALLVALUE DUP1 ISZERO PUSH2 0x18C JUMPI PUSH0 PUSH0 REVERT JUMPDEST POP PUSH2 0x1A7 PUSH1 0x4 DUP1 CALLDATASIZE SUB DUP2 ADD SWAP1 PUSH2 0x1A2 SWAP2 SWAP1 PUSH2 0x1C71 JUMP JUMPDEST PUSH2 0x543 JUMP JUMPDEST STOP JUMPDEST CALLVALUE DUP1 ISZERO PUSH2 0x1B4 JUMPI PUSH0 PUSH0 REVERT JUMPDEST POP PUSH2 0x1BD PUSH2 0x682 JUMP JUMPDEST PUSH1 0x40 MLOAD PUSH2 0x1CA SWAP2 SWAP1 PUSH2 0x1CB4 JUMP JUMPDEST PUSH1 0x40 MLOAD DUP1 SWAP2 SUB SWAP1 RETURN JUMPDEST CALLVALUE DUP1 ISZERO PUSH2 0x1DE JUMPI PUSH0 PUSH0 REVERT JUMPDEST POP PUSH2 0x1F9 PUSH1 0x4 DUP1 CALLDATASIZE SUB DUP2 ADD SWAP1 PUSH2 0x1F4 SWAP2 SWAP1 PUSH2 0x1D2E JUMP JUMPDEST PUSH2 0x688 JUMP JUMPDEST PUSH1 0x40 MLOAD PUSH2 0x206 SWAP2 SWAP1 PUSH2 0x1DFE JUMP JUMPDEST PUSH1 0x40 MLOAD DUP1 SWAP2 SUB SWAP1 RETURN JUMPDEST CALLVALUE DUP1 ISZERO PUSH2 0x21A JUMPI PUSH0 PUSH0 REVERT JUMPDEST POP PUSH2 0x235 PUSH1 0x4 DUP1 CALLDATASIZE SUB DUP2 ADD SWAP1 PUSH2 0x230 SWAP2 SWAP1 PUSH2 0x1E48 JUMP JUMPDEST PUSH2 0x738 JUMP JUMPDEST STOP JUMPDEST PUSH2 0x23F PUSH2 0x915 JUMP JUMPDEST PUSH1 0x40 MLOAD PUSH2 0x24C SWAP2 SWAP1 PUSH2 0x1CB4 JUMP JUMPDEST PUSH1 0x40 MLOAD DUP1 SWAP2 SUB SWAP1 RETURN JUMPDEST CALLVALUE DUP1 ISZERO PUSH2 0x260 JUMPI PUSH0 PUSH0 REVERT JUMPDEST POP PUSH2 0x27B PUSH1 0x4 DUP1 CALLDATASIZE SUB DUP2 ADD SWAP1 PUSH2 0x276 SWAP2 SWAP1 PUSH2 0x1ED8 JUMP JUMPDEST PUSH2 0xB3B JUMP JUMPDEST PUSH1 0x40 MLOAD PUSH2 0x288 SWAP2 SWAP1 PUSH2 0x1F25 JUMP JUMPDEST PUSH1 0x40 MLOAD DUP1 SWAP2 SUB SWAP1 RETURN JUMPDEST CALLVALUE DUP1 ISZERO PUSH2 0x29C JUMPI PUSH0 PUSH0 REVERT JUMPDEST POP PUSH2 0x2B7 PUSH1 0x4 DUP1 CALLDATASIZE SUB DUP2 ADD SWAP1 PUSH2 0x2B2 SWAP2 SWAP1 PUSH2 0x1F3E JUMP JUMPDEST PUSH2 0xB4E JUMP JUMPDEST STOP JUMPDEST CALLVALUE DUP1 ISZERO PUSH2 0x2C4 JUMPI PUSH0 PUSH0 REVERT JUMPDEST POP PUSH2 0x2CD PUSH2 0xE55 JUMP JUMPDEST PUSH1 0x40 MLOAD PUSH2 0x2DA SWAP2 SWAP1 PUSH2 0x1C16 JUMP JUMPDEST PUSH1 0x40 MLOAD DUP1 SWAP2 SUB SWAP1 RETURN JUMPDEST CALLVALUE DUP1 ISZERO PUSH2 0x2EE JUMPI PUSH0 PUSH0 REVERT JUMPDEST POP PUSH2 0x309 PUSH1 0x4 DUP1 CALLDATASIZE SUB DUP2 ADD SWAP1 PUSH2 0x304 SWAP2 SWAP1 PUSH2 0x1FAF JUMP JUMPDEST PUSH2 0xEE0 JUMP JUMPDEST PUSH1 0x40 MLOAD PUSH2 0x31A SWAP6 SWAP5 SWAP4 SWAP3 SWAP2 SWAP1 PUSH2 0x1FF4 JUMP JUMPDEST PUSH1 0x40 MLOAD DUP1 SWAP2 SUB SWAP1 RETURN JUMPDEST CALLVALUE DUP1 ISZERO PUSH2 0x32E JUMPI PUSH0 PUSH0 REVERT JUMPDEST POP PUSH2 0x349 PUSH1 0x4 DUP1 CALLDATASIZE SUB DUP2 ADD SWAP1 PUSH2 0x344 SWAP2 SWAP1 PUSH2 0x1FAF JUMP JUMPDEST PUSH2 0xF57 JUMP JUMPDEST STOP JUMPDEST CALLVALUE DUP1 ISZERO PUSH2 0x356 JUMPI PUSH0 PUSH0 REVERT JUMPDEST POP PUSH2 0x35F PUSH2 0x110B JUMP JUMPDEST PUSH1 0x40 MLOAD PUSH2 0x36C SWAP2 SWAP1 PUSH2 0x1CB4 JUMP JUMPDEST PUSH1 0x40 MLOAD DUP1 SWAP2 SUB SWAP1 RETURN JUMPDEST CALLVALUE DUP1 ISZERO PUSH2 0x380 JUMPI PUSH0 PUSH0 REVERT JUMPDEST POP PUSH2 0x39B PUSH1 0x4 DUP1 CALLDATASIZE SUB DUP2 ADD SWAP1 PUSH2 0x396 SWAP2 SWAP1 PUSH2 0x1FAF JUMP JUMPDEST PUSH2 0x112F JUMP JUMPDEST STOP JUMPDEST CALLVALUE DUP1 ISZERO PUSH2 0x3A8 JUMPI PUSH0 PUSH0 REVERT JUMPDEST POP PUSH2 0x3B1 PUSH2 0x12C4 JUMP JUMPDEST PUSH1 0x40 MLOAD PUSH2 0x3BE SWAP2 SWAP1 PUSH2 0x1B8D JUMP JUMPDEST PUSH1 0x40 MLOAD DUP1 SWAP2 SUB SWAP1 RETURN JUMPDEST CALLVALUE DUP1 ISZERO PUSH2 0x3D2 JUMPI PUSH0 PUSH0 REVERT JUMPDEST POP PUSH2 0x3DB PUSH2 0x12E8 JUMP JUMPDEST PUSH1 0x40 MLOAD PUSH2 0x3E8 SWAP2 SWAP1 PUSH2 0x1F25 JUMP JUMPDEST PUSH1 0x40 MLOAD DUP1 SWAP2 SUB SWAP1 RETURN JUMPDEST CALLVALUE DUP1 ISZERO PUSH2 0x3FC JUMPI PUSH0 PUSH0 REVERT JUMPDEST POP PUSH2 0x417 PUSH1 0x4 DUP1 CALLDATASIZE SUB DUP2 ADD SWAP1 PUSH2 0x412 SWAP2 SWAP1 PUSH2 0x1FAF JUMP JUMPDEST PUSH2 0x130C JUMP JUMPDEST STOP JUMPDEST CALLVALUE DUP1 ISZERO PUSH2 0x424 JUMPI PUSH0 PUSH0 REVERT JUMPDEST POP PUSH2 0x43F PUSH1 0x4 DUP1 CALLDATASIZE SUB DUP2 ADD SWAP1 PUSH2 0x43A SWAP2 SWAP1 PUSH2 0x209A JUMP JUMPDEST PUSH2 0x14D8 JUMP JUMPDEST STOP JUMPDEST CALLVALUE DUP1 ISZERO PUSH2 0x44C JUMPI PUSH0 PUSH0 REVERT JUMPDEST POP PUSH2 0x467 PUSH1 0x4 DUP1 CALLDATASIZE SUB DUP2 ADD SWAP1 PUSH2 0x462 SWAP2 SWAP1 PUSH2 0x209A JUMP JUMPDEST PUSH2 0x15C1 JUMP JUMPDEST STOP JUMPDEST CALLVALUE DUP1 ISZERO PUSH2 0x474 JUMPI PUSH0 PUSH0 REVERT JUMPDEST POP PUSH2 0x47D PUSH2 0x1664 JUMP JUMPDEST PUSH1 0x40 MLOAD PUSH2 0x48A SWAP2 SWAP1 PUSH2 0x1B8D JUMP JUMPDEST PUSH1 0x40 MLOAD DUP1 SWAP2 SUB SWAP1 RETURN JUMPDEST PUSH32 0x0 DUP2 JUMP JUMPDEST PUSH1 0x1 DUP1 SLOAD PUSH2 0x4C4 SWAP1 PUSH2 0x2112 JUMP JUMPDEST DUP1 PUSH1 0x1F ADD PUSH1 0x20 DUP1 SWAP2 DIV MUL PUSH1 0x20 ADD PUSH1 0x40 MLOAD SWAP1 DUP2 ADD PUSH1 0x40 MSTORE DUP1 SWAP3 SWAP2 SWAP1 DUP2 DUP2 MSTORE PUSH1 0x20 ADD DUP3 DUP1 SLOAD PUSH2 0x4F0 SWAP1 PUSH2 0x2112 JUMP JUMPDEST DUP1 ISZERO PUSH2 0x53B JUMPI DUP1 PUSH1 0x1F LT PUSH2 0x512 JUMPI PUSH2 0x100 DUP1 DUP4 SLOAD DIV MUL DUP4 MSTORE SWAP2 PUSH1 0x20 ADD SWAP2 PUSH2 0x53B JUMP JUMPDEST DUP3 ADD SWAP2 SWAP1 PUSH0 MSTORE PUSH1 0x20 PUSH0 KECCAK256 SWAP1 JUMPDEST DUP2 SLOAD DUP2 MSTORE SWAP1 PUSH1 0x1 ADD SWAP1 PUSH1 0x20 ADD DUP1 DUP4 GT PUSH2 0x51E JUMPI DUP3 SWAP1 SUB PUSH1 0x1F AND DUP3 ADD SWAP2 JUMPDEST POP POP POP POP POP DUP2 JUMP JUMPDEST PUSH32 0x0 PUSH20 0xFFFFFFFFFFFFFFFFFFFFFFFFFFFFFFFFFFFFFFFF AND CALLER PUSH20 0xFFFFFFFFFFFFFFFFFFFFFFFFFFFFFFFFFFFFFFFF AND EQ PUSH2 0x5D1 JUMPI PUSH1 0x40 MLOAD PUSH32 0x8C379A000000000000000000000000000000000000000000000000000000000 DUP2 MSTORE PUSH1 0x4 ADD PUSH2 0x5C8 SWAP1 PUSH2 0x21B2 JUMP JUMPDEST PUSH1 0x40 MLOAD DUP1 SWAP2 SUB SWAP1 REVERT JUMPDEST PUSH0 PUSH20 0xFFFFFFFFFFFFFFFFFFFFFFFFFFFFFFFFFFFFFFFF AND DUP2 PUSH20 0xFFFFFFFFFFFFFFFFFFFFFFFFFFFFFFFFFFFFFFFF AND SUB PUSH2 0x63F JUMPI PUSH1 0x40 MLOAD PUSH32 0x8C379A000000000000000000000000000000000000000000000000000000000 DUP2 MSTORE PUSH1 0x4 ADD PUSH2 0x636 SWAP1 PUSH2 0x2240 JUMP JUMPDEST PUSH1 0x40 MLOAD DUP1 SWAP2 SUB SWAP1 REVERT JUMPDEST DUP1 PUSH1 0x2 PUSH0 PUSH2 0x100 EXP DUP2 SLOAD DUP2 PUSH20 0xFFFFFFFFFFFFFFFFFFFFFFFFFFFFFFFFFFFFFFFF MUL NOT AND SWAP1 DUP4 PUSH20 0xFFFFFFFFFFFFFFFFFFFFFFFFFFFFFFFFFFFFFFFF AND MUL OR SWAP1 SSTORE POP POP JUMP JUMPDEST PUSH1 0x3 SLOAD DUP2 JUMP JUMPDEST PUSH1 0x60 PUSH0 PUSH0 PUSH2 0x698 DUP6 DUP6 DUP10 DUP10 PUSH2 0x1689 JUMP JUMPDEST SWAP2 POP SWAP2 POP PUSH1 0x2 PUSH0 SWAP1 SLOAD SWAP1 PUSH2 0x100 EXP SWAP1 DIV PUSH20 0xFFFFFFFFFFFFFFFFFFFFFFFFFFFFFFFFFFFFFFFF AND PUSH20 0xFFFFFFFFFFFFFFFFFFFFFFFFFFFFFFFFFFFFFFFF AND DUP3 PUSH20 0xFFFFFFFFFFFFFFFFFFFFFFFFFFFFFFFFFFFFFFFF AND EQ PUSH2 0x72B JUMPI PUSH1 0x40 MLOAD PUSH32 0x8C379A000000000000000000000000000000000000000000000000000000000 DUP2 MSTORE PUSH1 0x4 ADD PUSH2 0x722 SWAP1 PUSH2 0x22CE JUMP JUMPDEST PUSH1 0x40 MLOAD DUP1 SWAP2 SUB SWAP1 REVERT JUMPDEST DUP1 SWAP3 POP POP POP SWAP5 SWAP4 POP POP POP POP JUMP JUMPDEST PUSH0 PUSH1 0x4 PUSH0 DUP6 DUP2 MSTORE PUSH1 0x20 ADD SWAP1 DUP2 MSTORE PUSH1 0x20 ADD PUSH0 KECCAK256 PUSH1 0x1 ADD SLOAD GT PUSH2 0x78E JUMPI PUSH1 0x40 MLOAD PUSH32 0x8C379A000000000000000000000000000000000000000000000000000000000 DUP2 MSTORE PUSH1 0x4 ADD PUSH2 0x785 SWAP1 PUSH2 0x2336 JUMP JUMPDEST PUSH1 0x40 MLOAD DUP1 SWAP2 SUB SWAP1 REVERT JUMPDEST PUSH0 PUSH1 0x1 PUSH8 0xFFFFFFFFFFFFFFFF DUP2 GT ISZERO PUSH2 0x7AA JUMPI PUSH2 0x7A9 PUSH2 0x2354 JUMP JUMPDEST JUMPDEST PUSH1 0x40 MLOAD SWAP1 DUP1 DUP3 MSTORE DUP1 PUSH1 0x20 MUL PUSH1 0x20 ADD DUP3 ADD PUSH1 0x40 MSTORE DUP1 ISZERO PUSH2 0x7DD JUMPI DUP2 PUSH1 0x20 ADD JUMPDEST PUSH1 0x60 DUP2 MSTORE PUSH1 0x20 ADD SWAP1 PUSH1 0x1 SWAP1 SUB SWAP1 DUP2 PUSH2 0x7C8 JUMPI SWAP1 POP JUMPDEST POP SWAP1 POP PUSH1 0x1 DUP1 SLOAD PUSH2 0x7ED SWAP1 PUSH2 0x2112 JUMP JUMPDEST DUP1 PUSH1 0x1F ADD PUSH1 0x20 DUP1 SWAP2 DIV MUL PUSH1 0x20 ADD PUSH1 0x40 MLOAD SWAP1 DUP2 ADD PUSH1 0x40 MSTORE DUP1 SWAP3 SWAP2 SWAP1 DUP2 DUP2 MSTORE PUSH1 0x20 ADD DUP3 DUP1 SLOAD PUSH2 0x819 SWAP1 PUSH2 0x2112 JUMP JUMPDEST DUP1 ISZERO PUSH2 0x864 JUMPI DUP1 PUSH1 0x1F LT PUSH2 0x83B JUMPI PUSH2 0x100 DUP1 DUP4 SLOAD DIV MUL DUP4 MSTORE SWAP2 PUSH1 0x20 ADD SWAP2 PUSH2 0x864 JUMP JUMPDEST DUP3 ADD SWAP2 SWAP1 PUSH0 MSTORE PUSH1 0x20 PUSH0 KECCAK256 SWAP1 JUMPDEST DUP2 SLOAD DUP2 MSTORE SWAP1 PUSH1 0x1 ADD SWAP1 PUSH1 0x20 ADD DUP1 DUP4 GT PUSH2 0x847 JUMPI DUP3 SWAP1 SUB PUSH1 0x1F AND DUP3 ADD SWAP2 JUMPDEST POP POP POP POP POP DUP2 PUSH0 DUP2 MLOAD DUP2 LT PUSH2 0x87C JUMPI PUSH2 0x87B PUSH2 0x2381 JUMP JUMPDEST JUMPDEST PUSH1 0x20 MUL PUSH1 0x20 ADD ADD DUP2 SWAP1 MSTORE POP ADDRESS DUP2 DUP5 DUP5 DUP8 PUSH1 0x40 MLOAD PUSH1 0x20 ADD PUSH2 0x89E SWAP4 SWAP3 SWAP2 SWAP1 PUSH2 0x23E8 JUMP JUMPDEST PUSH1 0x40 MLOAD PUSH1 0x20 DUP2 DUP4 SUB SUB DUP2 MSTORE SWAP1 PUSH1 0x40 MSTORE PUSH4 0x29514482 PUSH1 0xE0 SHL DUP8 PUSH1 0x40 MLOAD PUSH1 0x20 ADD PUSH2 0x8C6 SWAP2 SWAP1 PUSH2 0x1CB4 JUMP JUMPDEST PUSH1 0x40 MLOAD PUSH1 0x20 DUP2 DUP4 SUB SUB DUP2 MSTORE SWAP1 PUSH1 0x40 MSTORE PUSH1 0x40 MLOAD PUSH32 0x556F183000000000000000000000000000000000000000000000000000000000 DUP2 MSTORE PUSH1 0x4 ADD PUSH2 0x90C SWAP6 SWAP5 SWAP4 SWAP3 SWAP2 SWAP1 PUSH2 0x2555 JUMP JUMPDEST PUSH1 0x40 MLOAD DUP1 SWAP2 SUB SWAP1 REVERT JUMPDEST PUSH0 PUSH1 0x1 PUSH1 0x5 SLOAD EQ PUSH2 0x95B JUMPI PUSH1 0x40 MLOAD PUSH32 0x8C379A000000000000000000000000000000000000000000000000000000000 DUP2 MSTORE PUSH1 0x4 ADD PUSH2 0x952 SWAP1 PUSH2 0x2605 JUMP JUMPDEST PUSH1 0x40 MLOAD DUP1 SWAP2 SUB SWAP1 REVERT JUMPDEST PUSH1 0x2 PUSH1 0x5 DUP2 SWAP1 SSTORE POP PUSH32 0x0 CALLVALUE EQ PUSH2 0x9C5 JUMPI PUSH1 0x40 MLOAD PUSH32 0x8C379A000000000000000000000000000000000000000000000000000000000 DUP2 MSTORE PUSH1 0x4 ADD PUSH2 0x9BC SWAP1 PUSH2 0x266D JUMP JUMPDEST PUSH1 0x40 MLOAD DUP1 SWAP2 SUB SWAP1 REVERT JUMPDEST PUSH1 0x3 PUSH0 DUP2 SLOAD DUP1 SWAP3 SWAP2 SWAP1 PUSH2 0x9D7 SWAP1 PUSH2 0x26B8 JUMP JUMPDEST SWAP2 SWAP1 POP SSTORE SWAP1 POP PUSH1 0x40 MLOAD DUP1 PUSH1 0xA0 ADD PUSH1 0x40 MSTORE DUP1 CALLER PUSH20 0xFFFFFFFFFFFFFFFFFFFFFFFFFFFFFFFFFFFFFFFF AND DUP2 MSTORE PUSH1 0x20 ADD CALLVALUE DUP2 MSTORE PUSH1 0x20 ADD PUSH0 ISZERO ISZERO DUP2 MSTORE PUSH1 0x20 ADD PUSH0 ISZERO ISZERO DUP2 MSTORE PUSH1 0x20 ADD PUSH0 ISZERO ISZERO DUP2 MSTORE POP PUSH1 0x4 PUSH0 DUP4 DUP2 MSTORE PUSH1 0x20 ADD SWAP1 DUP2 MSTORE PUSH1 0x20 ADD PUSH0 KECCAK256 PUSH0 DUP3 ADD MLOAD DUP2 PUSH0 ADD PUSH0 PUSH2 0x100 EXP DUP2 SLOAD DUP2 PUSH20 0xFFFFFFFFFFFFFFFFFFFFFFFFFFFFFFFFFFFFFFFF MUL NOT AND SWAP1 DUP4 PUSH20 0xFFFFFFFFFFFFFFFFFFFFFFFFFFFFFFFFFFFFFFFF AND MUL OR SWAP1 SSTORE POP PUSH1 0x20 DUP3 ADD MLOAD DUP2 PUSH1 0x1 ADD SSTORE PUSH1 0x40 DUP3 ADD MLOAD DUP2 PUSH1 0x2 ADD PUSH0 PUSH2 0x100 EXP DUP2 SLOAD DUP2 PUSH1 0xFF MUL NOT AND SWAP1 DUP4 ISZERO ISZERO MUL OR SWAP1 SSTORE POP PUSH1 0x60 DUP3 ADD MLOAD DUP2 PUSH1 0x2 ADD PUSH1 0x1 PUSH2 0x100 EXP DUP2 SLOAD DUP2 PUSH1 0xFF MUL NOT AND SWAP1 DUP4 ISZERO ISZERO MUL OR SWAP1 SSTORE POP PUSH1 0x80 DUP3 ADD MLOAD DUP2 PUSH1 0x2 ADD PUSH1 0x2 PUSH2 0x100 EXP DUP2 SLOAD DUP2 PUSH1 0xFF MUL NOT AND SWAP1 DUP4 ISZERO ISZERO MUL OR SWAP1 SSTORE POP SWAP1 POP POP CALLER PUSH20 0xFFFFFFFFFFFFFFFFFFFFFFFFFFFFFFFFFFFFFFFF AND DUP2 PUSH32 0x6989FD04C5BC56C8995F68FF4D4A94E67E56CF4EFA352219E731185AC2736DF5 CALLVALUE PUSH1 0x40 MLOAD PUSH2 0xB28 SWAP2 SWAP1 PUSH2 0x1CB4 JUMP JUMPDEST PUSH1 0x40 MLOAD DUP1 SWAP2 SUB SWAP1 LOG3 PUSH1 0x1 PUSH1 0x5 DUP2 SWAP1 SSTORE POP SWAP1 JUMP JUMPDEST PUSH0 PUSH2 0xB46 DUP4 DUP4 PUSH2 0x175F JUMP JUMPDEST SWAP1 POP SWAP3 SWAP2 POP POP JUMP JUMPDEST PUSH1 0x1 PUSH1 0x5 SLOAD EQ PUSH2 0xB93 JUMPI PUSH1 0x40 MLOAD PUSH32 0x8C379A000000000000000000000000000000000000000000000000000000000 DUP2 MSTORE PUSH1 0x4 ADD PUSH2 0xB8A SWAP1 PUSH2 0x2605 JUMP JUMPDEST PUSH1 0x40 MLOAD DUP1 SWAP2 SUB SWAP1 REVERT JUMPDEST PUSH1 0x2 PUSH1 0x5 DUP2 SWAP1 SSTORE POP PUSH32 0x0 PUSH20 0xFFFFFFFFFFFFFFFFFFFFFFFFFFFFFFFFFFFFFFFF AND CALLER PUSH20 0xFFFFFFFFFFFFFFFFFFFFFFFFFFFFFFFFFFFFFFFF AND EQ PUSH2 0xC29 JUMPI PUSH1 0x40 MLOAD PUSH32 0x8C379A000000000000000000000000000000000000000000000000000000000 DUP2 MSTORE PUSH1 0x4 ADD PUSH2 0xC20 SWAP1 PUSH2 0x21B2 JUMP JUMPDEST PUSH1 0x40 MLOAD DUP1 SWAP2 SUB SWAP1 REVERT JUMPDEST PUSH0 PUSH1 0x4 PUSH0 DUP7 DUP2 MSTORE PUSH1 0x20 ADD SWAP1 DUP2 MSTORE PUSH1 0x20 ADD PUSH0 KECCAK256 SWAP1 POP DUP1 PUSH1 0x2 ADD PUSH0 SWAP1 SLOAD SWAP1 PUSH2 0x100 EXP SWAP1 DIV PUSH1 0xFF AND ISZERO PUSH2 0xC8E JUMPI PUSH1 0x40 MLOAD PUSH32 0x8C379A000000000000000000000000000000000000000000000000000000000 DUP2 MSTORE PUSH1 0x4 ADD PUSH2 0xC85 SWAP1 PUSH2 0x2749 JUMP JUMPDEST PUSH1 0x40 MLOAD DUP1 SWAP2 SUB SWAP1 REVERT JUMPDEST DUP1 PUSH1 0x2 ADD PUSH1 0x1 SWAP1 SLOAD SWAP1 PUSH2 0x100 EXP SWAP1 DIV PUSH1 0xFF AND ISZERO PUSH2 0xCE0 JUMPI PUSH1 0x40 MLOAD PUSH32 0x8C379A000000000000000000000000000000000000000000000000000000000 DUP2 MSTORE PUSH1 0x4 ADD PUSH2 0xCD7 SWAP1 PUSH2 0x27B1 JUMP JUMPDEST PUSH1 0x40 MLOAD DUP1 SWAP2 SUB SWAP1 REVERT JUMPDEST PUSH0 PUSH2 0xCEB DUP7 DUP7 PUSH2 0x175F JUMP JUMPDEST SWAP1 POP PUSH0 PUSH2 0xD3B DUP3 DUP7 DUP7 DUP1 DUP1 PUSH1 0x1F ADD PUSH1 0x20 DUP1 SWAP2 DIV MUL PUSH1 0x20 ADD PUSH1 0x40 MLOAD SWAP1 DUP2 ADD PUSH1 0x40 MSTORE DUP1 SWAP4 SWAP3 SWAP2 SWAP1 DUP2 DUP2 MSTORE PUSH1 0x20 ADD DUP4 DUP4 DUP1 DUP3 DUP5 CALLDATACOPY PUSH0 DUP2 DUP5 ADD MSTORE PUSH1 0x1F NOT PUSH1 0x1F DUP3 ADD AND SWAP1 POP DUP1 DUP4 ADD SWAP3 POP POP POP POP POP POP POP PUSH2 0x1793 JUMP JUMPDEST SWAP1 POP DUP3 PUSH0 ADD PUSH0 SWAP1 SLOAD SWAP1 PUSH2 0x100 EXP SWAP1 DIV PUSH20 0xFFFFFFFFFFFFFFFFFFFFFFFFFFFFFFFFFFFFFFFF AND PUSH20 0xFFFFFFFFFFFFFFFFFFFFFFFFFFFFFFFFFFFFFFFF AND DUP2 PUSH20 0xFFFFFFFFFFFFFFFFFFFFFFFFFFFFFFFFFFFFFFFF AND EQ PUSH2 0xDCD JUMPI PUSH1 0x40 MLOAD PUSH32 0x8C379A000000000000000000000000000000000000000000000000000000000 DUP2 MSTORE PUSH1 0x4 ADD PUSH2 0xDC4 SWAP1 PUSH2 0x22CE JUMP JUMPDEST PUSH1 0x40 MLOAD DUP1 SWAP2 SUB SWAP1 REVERT JUMPDEST PUSH1 0x1 DUP4 PUSH1 0x2 ADD PUSH0 PUSH2 0x100 EXP DUP2 SLOAD DUP2 PUSH1 0xFF MUL NOT AND SWAP1 DUP4 ISZERO ISZERO MUL OR SWAP1 SSTORE POP PUSH2 0xE17 PUSH32 0x0 DUP5 PUSH1 0x1 ADD SLOAD PUSH2 0x17BD JUMP JUMPDEST DUP7 PUSH32 0x9B6FAD3638AFF112640E0386FF933EC4087B8EF6944DF50928B1B578FA968C19 PUSH1 0x40 MLOAD PUSH1 0x40 MLOAD DUP1 SWAP2 SUB SWAP1 LOG2 POP POP POP PUSH1 0x1 PUSH1 0x5 DUP2 SWAP1 SSTORE POP POP POP POP POP JUMP JUMPDEST PUSH0 DUP1 SLOAD PUSH2 0xE61 SWAP1 PUSH2 0x2112 JUMP JUMPDEST DUP1 PUSH1 0x1F ADD PUSH1 0x20 DUP1 SWAP2 DIV MUL PUSH1 0x20 ADD PUSH1 0x40 MLOAD SWAP1 DUP2 ADD PUSH1 0x40 MSTORE DUP1 SWAP3 SWAP2 SWAP1 DUP2 DUP2 MSTORE PUSH1 0x20 ADD DUP3 DUP1 SLOAD PUSH2 0xE8D SWAP1 PUSH2 0x2112 JUMP JUMPDEST DUP1 ISZERO PUSH2 0xED8 JUMPI DUP1 PUSH1 0x1F LT PUSH2 0xEAF JUMPI PUSH2 0x100 DUP1 DUP4 SLOAD DIV MUL DUP4 MSTORE SWAP2 PUSH1 0x20 ADD SWAP2 PUSH2 0xED8 JUMP JUMPDEST DUP3 ADD SWAP2 SWAP1 PUSH0 MSTORE PUSH1 0x20 PUSH0 KECCAK256 SWAP1 JUMPDEST DUP2 SLOAD DUP2 MSTORE SWAP1 PUSH1 0x1 ADD SWAP1 PUSH1 0x20 ADD DUP1 DUP4 GT PUSH2 0xEBB JUMPI DUP3 SWAP1 SUB PUSH1 0x1F AND DUP3 ADD SWAP2 JUMPDEST POP POP POP POP POP DUP2 JUMP JUMPDEST PUSH1 0x4 PUSH1 0x20 MSTORE DUP1 PUSH0 MSTORE PUSH1 0x40 PUSH0 KECCAK256 PUSH0 SWAP2 POP SWAP1 POP DUP1 PUSH0 ADD PUSH0 SWAP1 SLOAD SWAP1 PUSH2 0x100 EXP SWAP1 DIV PUSH20 0xFFFFFFFFFFFFFFFFFFFFFFFFFFFFFFFFFFFFFFFF AND SWAP1 DUP1 PUSH1 0x1 ADD SLOAD SWAP1 DUP1 PUSH1 0x2 ADD PUSH0 SWAP1 SLOAD SWAP1 PUSH2 0x100 EXP SWAP1 DIV PUSH1 0xFF AND SWAP1 DUP1 PUSH1 0x2 ADD PUSH1 0x1 SWAP1 SLOAD SWAP1 PUSH2 0x100 EXP SWAP1 DIV PUSH1 0xFF AND SWAP1 DUP1 PUSH1 0x2 ADD PUSH1 0x2 SWAP1 SLOAD SWAP1 PUSH2 0x100 EXP SWAP1 DIV PUSH1 0xFF AND SWAP1 POP DUP6 JUMP JUMPDEST PUSH32 0x0 PUSH20 0xFFFFFFFFFFFFFFFFFFFFFFFFFFFFFFFFFFFFFFFF AND CALLER PUSH20 0xFFFFFFFFFFFFFFFFFFFFFFFFFFFFFFFFFFFFFFFF AND EQ PUSH2 0xFE5 JUMPI PUSH1 0x40 MLOAD PUSH32 0x8C379A000000000000000000000000000000000000000000000000000000000 DUP2 MSTORE PUSH1 0x4 ADD PUSH2 0xFDC SWAP1 PUSH2 0x283F JUMP JUMPDEST PUSH1 0x40 MLOAD DUP1 SWAP2 SUB SWAP1 REVERT JUMPDEST PUSH1 0x1 PUSH1 0x5 SLOAD EQ PUSH2 0x102A JUMPI PUSH1 0x40 MLOAD PUSH32 0x8C379A000000000000000000000000000000000000000000000000000000000 DUP2 MSTORE PUSH1 0x4 ADD PUSH2 0x1021 SWAP1 PUSH2 0x2605 JUMP JUMPDEST PUSH1 0x40 MLOAD DUP1 SWAP2 SUB SWAP1 REVERT JUMPDEST PUSH1 0x2 PUSH1 0x5 DUP2 SWAP1 SSTORE POP PUSH0 PUSH1 0x4 PUSH0 DUP4 DUP2 MSTORE PUSH1 0x20 ADD SWAP1 DUP2 MSTORE PUSH1 0x20 ADD PUSH0 KECCAK256 SWAP1 POP DUP1 PUSH1 0x2 ADD PUSH1 0x1 SWAP1 SLOAD SWAP1 PUSH2 0x100 EXP SWAP1 DIV PUSH1 0xFF AND DUP1 ISZERO PUSH2 0x1073 JUMPI POP DUP1 PUSH1 0x2 ADD PUSH1 0x2 SWAP1 SLOAD SWAP1 PUSH2 0x100 EXP SWAP1 DIV PUSH1 0xFF AND ISZERO JUMPDEST PUSH2 0x10B2 JUMPI PUSH1 0x40 MLOAD PUSH32 0x8C379A000000000000000000000000000000000000000000000000000000000 DUP2 MSTORE PUSH1 0x4 ADD PUSH2 0x10A9 SWAP1 PUSH2 0x28A7 JUMP JUMPDEST PUSH1 0x40 MLOAD DUP1 SWAP2 SUB SWAP1 REVERT JUMPDEST PUSH1 0x1 DUP2 PUSH1 0x2 ADD PUSH1 0x2 PUSH2 0x100 EXP DUP2 SLOAD DUP2 PUSH1 0xFF MUL NOT AND SWAP1 DUP4 ISZERO ISZERO MUL OR SWAP1 SSTORE POP PUSH2 0x10FF DUP2 PUSH0 ADD PUSH0 SWAP1 SLOAD SWAP1 PUSH2 0x100 EXP SWAP1 DIV PUSH20 0xFFFFFFFFFFFFFFFFFFFFFFFFFFFFFFFFFFFFFFFF AND DUP3 PUSH1 0x1 ADD SLOAD PUSH2 0x17BD JUMP JUMPDEST POP PUSH1 0x1 PUSH1 0x5 DUP2 SWAP1 SSTORE POP POP JUMP JUMPDEST PUSH32 0x0 DUP2 JUMP JUMPDEST PUSH0 PUSH1 0x4 PUSH0 DUP4 DUP2 MSTORE PUSH1 0x20 ADD SWAP1 DUP2 MSTORE PUSH1 0x20 ADD PUSH0 KECCAK256 SWAP1 POP DUP1 PUSH0 ADD PUSH0 SWAP1 SLOAD SWAP1 PUSH2 0x100 EXP SWAP1 DIV PUSH20 0xFFFFFFFFFFFFFFFFFFFFFFFFFFFFFFFFFFFFFFFF AND PUSH20 0xFFFFFFFFFFFFFFFFFFFFFFFFFFFFFFFFFFFFFFFF AND CALLER PUSH20 0xFFFFFFFFFFFFFFFFFFFFFFFFFFFFFFFFFFFFFFFF AND EQ PUSH2 0x11D3 JUMPI PUSH1 0x40 MLOAD PUSH32 0x8C379A000000000000000000000000000000000000000000000000000000000 DUP2 MSTORE PUSH1 0x4 ADD PUSH2 0x11CA SWAP1 PUSH2 0x290F JUMP JUMPDEST PUSH1 0x40 MLOAD DUP1 SWAP2 SUB SWAP1 REVERT JUMPDEST DUP1 PUSH1 0x2 ADD PUSH0 SWAP1 SLOAD SWAP1 PUSH2 0x100 EXP SWAP1 DIV PUSH1 0xFF AND ISZERO PUSH2 0x1224 JUMPI PUSH1 0x40 MLOAD PUSH32 0x8C379A000000000000000000000000000000000000000000000000000000000 DUP2 MSTORE PUSH1 0x4 ADD PUSH2 0x121B SWAP1 PUSH2 0x2749 JUMP JUMPDEST PUSH1 0x40 MLOAD DUP1 SWAP2 SUB SWAP1 REVERT JUMPDEST DUP1 PUSH1 0x2 ADD PUSH1 0x1 SWAP1 SLOAD SWAP1 PUSH2 0x100 EXP SWAP1 DIV PUSH1 0xFF AND ISZERO PUSH2 0x1276 JUMPI PUSH1 0x40 MLOAD PUSH32 0x8C379A000000000000000000000000000000000000000000000000000000000 DUP2 MSTORE PUSH1 0x4 ADD PUSH2 0x126D SWAP1 PUSH2 0x2977 JUMP JUMPDEST PUSH1 0x40 MLOAD DUP1 SWAP2 SUB SWAP1 REVERT JUMPDEST PUSH1 0x1 DUP2 PUSH1 0x2 ADD PUSH1 0x1 PUSH2 0x100 EXP DUP2 SLOAD DUP2 PUSH1 0xFF MUL NOT AND SWAP1 DUP4 ISZERO ISZERO MUL OR SWAP1 SSTORE POP DUP2 PUSH32 0x4901F83201C8724EADF084436DB8AA391820BAE6D11F9F78A17EDB6F2EEF3CF PUSH1 0x40 MLOAD PUSH1 0x40 MLOAD DUP1 SWAP2 SUB SWAP1 LOG2 POP POP JUMP JUMPDEST PUSH32 0x0 DUP2 JUMP JUMPDEST PUSH32 0x0 DUP2 JUMP JUMPDEST PUSH32 0x0 PUSH20 0xFFFFFFFFFFFFFFFFFFFFFFFFFFFFFFFFFFFFFFFF AND CALLER PUSH20 0xFFFFFFFFFFFFFFFFFFFFFFFFFFFFFFFFFFFFFFFF AND EQ PUSH2 0x139A JUMPI PUSH1 0x40 MLOAD PUSH32 0x8C379A000000000000000000000000000000000000000000000000000000000 DUP2 MSTORE PUSH1 0x4 ADD PUSH2 0x1391 SWAP1 PUSH2 0x283F JUMP JUMPDEST PUSH1 0x40 MLOAD DUP1 SWAP2 SUB SWAP1 REVERT JUMPDEST PUSH1 0x1 PUSH1 0x5 SLOAD EQ PUSH2 0x13DF JUMPI PUSH1 0x40 MLOAD PUSH32 0x8C379A000000000000000000000000000000000000000000000000000000000 DUP2 MSTORE PUSH1 0x4 ADD PUSH2 0x13D6 SWAP1 PUSH2 0x2605 JUMP JUMPDEST PUSH1 0x40 MLOAD DUP1 SWAP2 SUB SWAP1 REVERT JUMPDEST PUSH1 0x2 PUSH1 0x5 DUP2 SWAP1 SSTORE POP PUSH0 PUSH1 0x4 PUSH0 DUP4 DUP2 MSTORE PUSH1 0x20 ADD SWAP1 DUP2 MSTORE PUSH1 0x20 ADD PUSH0 KECCAK256 SWAP1 POP DUP1 PUSH1 0x2 ADD PUSH0 SWAP1 SLOAD SWAP1 PUSH2 0x100 EXP SWAP1 DIV PUSH1 0xFF AND ISZERO DUP1 ISZERO PUSH2 0x1427 JUMPI POP DUP1 PUSH1 0x2 ADD PUSH1 0x1 SWAP1 SLOAD SWAP1 PUSH2 0x100 EXP SWAP1 DIV PUSH1 0xFF AND JUMPDEST DUP1 ISZERO PUSH2 0x1442 JUMPI POP DUP1 PUSH1 0x2 ADD PUSH1 0x2 SWAP1 SLOAD SWAP1 PUSH2 0x100 EXP SWAP1 DIV PUSH1 0xFF AND ISZERO JUMPDEST PUSH2 0x1481 JUMPI PUSH1 0x40 MLOAD PUSH32 0x8C379A000000000000000000000000000000000000000000000000000000000 DUP2 MSTORE PUSH1 0x4 ADD PUSH2 0x1478 SWAP1 PUSH2 0x28A7 JUMP JUMPDEST PUSH1 0x40 MLOAD DUP1 SWAP2 SUB SWAP1 REVERT JUMPDEST PUSH1 0x1 DUP2 PUSH1 0x2 ADD PUSH1 0x2 PUSH2 0x100 EXP DUP2 SLOAD DUP2 PUSH1 0xFF MUL NOT AND SWAP1 DUP4 ISZERO ISZERO MUL OR SWAP1 SSTORE POP PUSH2 0x14CC PUSH32 0x0 DUP3 PUSH1 0x1 ADD SLOAD PUSH2 0x17BD JUMP JUMPDEST POP PUSH1 0x1 PUSH1 0x5 DUP2 SWAP1 SSTORE POP POP JUMP JUMPDEST PUSH32 0x0 PUSH20 0xFFFFFFFFFFFFFFFFFFFFFFFFFFFFFFFFFFFFFFFF AND CALLER PUSH20 0xFFFFFFFFFFFFFFFFFFFFFFFFFFFFFFFFFFFFFFFF AND EQ PUSH2 0x1566 JUMPI PUSH1 0x40 MLOAD PUSH32 0x8C379A000000000000000000000000000000000000000000000000000000000 DUP2 MSTORE PUSH1 0x4 ADD PUSH2 0x155D SWAP1 PUSH2 0x21B2 JUMP JUMPDEST PUSH1 0x40 MLOAD DUP1 SWAP2 SUB SWAP1 REVERT JUMPDEST PUSH0 DUP3 DUP3 SWAP1 POP GT PUSH2 0x15AB JUMPI PUSH1 0x40 MLOAD PUSH32 0x8C379A000000000000000000000000000000000000000000000000000000000 DUP2 MSTORE PUSH1 0x4 ADD PUSH2 0x15A2 SWAP1 PUSH2 0x29DF JUMP JUMPDEST PUSH1 0x40 MLOAD DUP1 SWAP2 SUB SWAP1 REVERT JUMPDEST DUP2 DUP2 PUSH1 0x1 SWAP2 DUP3 PUSH2 0x15BC SWAP3 SWAP2 SWAP1 PUSH2 0x2BA7 JUMP JUMPDEST POP POP POP JUMP JUMPDEST PUSH32 0x0 PUSH20 0xFFFFFFFFFFFFFFFFFFFFFFFFFFFFFFFFFFFFFFFF AND CALLER PUSH20 0xFFFFFFFFFFFFFFFFFFFFFFFFFFFFFFFFFFFFFFFF AND EQ PUSH2 0x164F JUMPI PUSH1 0x40 MLOAD PUSH32 0x8C379A000000000000000000000000000000000000000000000000000000000 DUP2 MSTORE PUSH1 0x4 ADD PUSH2 0x1646 SWAP1 PUSH2 0x21B2 JUMP JUMPDEST PUSH1 0x40 MLOAD DUP1 SWAP2 SUB SWAP1 REVERT JUMPDEST DUP2 DUP2 PUSH0 SWAP2 DUP3 PUSH2 0x165F SWAP3 SWAP2 SWAP1 PUSH2 0x2BA7 JUMP JUMPDEST POP POP POP JUMP JUMPDEST PUSH1 0x2 PUSH0 SWAP1 SLOAD SWAP1 PUSH2 0x100 EXP SWAP1 DIV PUSH20 0xFFFFFFFFFFFFFFFFFFFFFFFFFFFFFFFFFFFFFFFF AND DUP2 JUMP JUMPDEST PUSH0 PUSH1 0x60 PUSH0 PUSH0 PUSH0 DUP7 DUP7 DUP2 ADD SWAP1 PUSH2 0x169E SWAP2 SWAP1 PUSH2 0x2D9E JUMP JUMPDEST SWAP3 POP SWAP3 POP SWAP3 POP PUSH0 PUSH2 0x16FD PUSH2 0x16F7 ADDRESS DUP6 DUP14 DUP14 DUP1 DUP1 PUSH1 0x1F ADD PUSH1 0x20 DUP1 SWAP2 DIV MUL PUSH1 0x20 ADD PUSH1 0x40 MLOAD SWAP1 DUP2 ADD PUSH1 0x40 MSTORE DUP1 SWAP4 SWAP3 SWAP2 SWAP1 DUP2 DUP2 MSTORE PUSH1 0x20 ADD DUP4 DUP4 DUP1 DUP3 DUP5 CALLDATACOPY PUSH0 DUP2 DUP5 ADD MSTORE PUSH1 0x1F NOT PUSH1 0x1F DUP3 ADD AND SWAP1 POP DUP1 DUP4 ADD SWAP3 POP POP POP POP POP POP POP DUP9 PUSH2 0x186A JUMP JUMPDEST DUP4 PUSH2 0x1793 JUMP JUMPDEST SWAP1 POP TIMESTAMP DUP4 PUSH8 0xFFFFFFFFFFFFFFFF AND LT ISZERO PUSH2 0x174C JUMPI PUSH1 0x40 MLOAD PUSH32 0x8C379A000000000000000000000000000000000000000000000000000000000 DUP2 MSTORE PUSH1 0x4 ADD PUSH2 0x1743 SWAP1 PUSH2 0x2E96 JUMP JUMPDEST PUSH1 0x40 MLOAD DUP1 SWAP2 SUB SWAP1 REVERT JUMPDEST DUP1 DUP5 SWAP6 POP SWAP6 POP POP POP POP POP SWAP5 POP SWAP5 SWAP3 POP POP POP JUMP JUMPDEST PUSH0 ADDRESS DUP4 DUP4 PUSH1 0x40 MLOAD PUSH1 0x20 ADD PUSH2 0x1775 SWAP4 SWAP3 SWAP2 SWAP1 PUSH2 0x2EB4 JUMP JUMPDEST PUSH1 0x40 MLOAD PUSH1 0x20 DUP2 DUP4 SUB SUB DUP2 MSTORE SWAP1 PUSH1 0x40 MSTORE DUP1 MLOAD SWAP1 PUSH1 0x20 ADD KECCAK256 SWAP1 POP SWAP3 SWAP2 POP POP JUMP JUMPDEST PUSH0 PUSH0 PUSH0 PUSH0 PUSH2 0x17A1 DUP7 DUP7 PUSH2 0x18B0 JUMP JUMPDEST SWAP3 POP SWAP3 POP SWAP3 POP PUSH2 0x17B1 DUP3 DUP3 PUSH2 0x1905 JUMP JUMPDEST DUP3 SWAP4 POP POP POP POP SWAP3 SWAP2 POP POP JUMP JUMPDEST PUSH0 DUP3 PUSH20 0xFFFFFFFFFFFFFFFFFFFFFFFFFFFFFFFFFFFFFFFF AND DUP3 PUSH1 0x40 MLOAD PUSH2 0x17E2 SWAP1 PUSH2 0x2F16 JUMP JUMPDEST PUSH0 PUSH1 0x40 MLOAD DUP1 DUP4 SUB DUP2 DUP6 DUP8 GAS CALL SWAP3 POP POP POP RETURNDATASIZE DUP1 PUSH0 DUP2 EQ PUSH2 0x181C JUMPI PUSH1 0x40 MLOAD SWAP2 POP PUSH1 0x1F NOT PUSH1 0x3F RETURNDATASIZE ADD AND DUP3 ADD PUSH1 0x40 MSTORE RETURNDATASIZE DUP3 MSTORE RETURNDATASIZE PUSH0 PUSH1 0x20 DUP5 ADD RETURNDATACOPY PUSH2 0x1821 JUMP JUMPDEST PUSH1 0x60 SWAP2 POP JUMPDEST POP POP SWAP1 POP DUP1 PUSH2 0x1865 JUMPI PUSH1 0x40 MLOAD PUSH32 0x8C379A000000000000000000000000000000000000000000000000000000000 DUP2 MSTORE PUSH1 0x4 ADD PUSH2 0x185C SWAP1 PUSH2 0x2F74 JUMP JUMPDEST PUSH1 0x40 MLOAD DUP1 SWAP2 SUB SWAP1 REVERT JUMPDEST POP POP POP JUMP JUMPDEST PUSH0 DUP5 DUP5 DUP5 DUP1 MLOAD SWAP1 PUSH1 0x20 ADD KECCAK256 DUP5 DUP1 MLOAD SWAP1 PUSH1 0x20 ADD KECCAK256 PUSH1 0x40 MLOAD PUSH1 0x20 ADD PUSH2 0x1890 SWAP5 SWAP4 SWAP3 SWAP2 SWAP1 PUSH2 0x307F JUMP JUMPDEST PUSH1 0x40 MLOAD PUSH1 0x20 DUP2 DUP4 SUB SUB DUP2 MSTORE SWAP1 PUSH1 0x40 MSTORE DUP1 MLOAD SWAP1 PUSH1 0x20 ADD KECCAK256 SWAP1 POP SWAP5 SWAP4 POP POP POP POP JUMP JUMPDEST PUSH0 PUSH0 PUSH0 PUSH1 0x41 DUP5 MLOAD SUB PUSH2 0x18F0 JUMPI PUSH0 PUSH0 PUSH0 PUSH1 0x20 DUP8 ADD MLOAD SWAP3 POP PUSH1 0x40 DUP8 ADD MLOAD SWAP2 POP PUSH1 0x60 DUP8 ADD MLOAD PUSH0 BYTE SWAP1 POP PUSH2 0x18E2 DUP9 DUP3 DUP6 DUP6 PUSH2 0x1A67 JUMP JUMPDEST SWAP6 POP SWAP6 POP SWAP6 POP POP POP POP PUSH2 0x18FE JUMP JUMPDEST PUSH0 PUSH1 0x2 DUP6 MLOAD PUSH0 SHL SWAP3 POP SWAP3 POP SWAP3 POP JUMPDEST SWAP3 POP SWAP3 POP SWAP3 JUMP JUMPDEST PUSH0 PUSH1 0x3 DUP2 GT ISZERO PUSH2 0x1918 JUMPI PUSH2 0x1917 PUSH2 0x30D7 JUMP JUMPDEST JUMPDEST DUP3 PUSH1 0x3 DUP2 GT ISZERO PUSH2 0x192B JUMPI PUSH2 0x192A PUSH2 0x30D7 JUMP JUMPDEST JUMPDEST SUB ISZERO PUSH2 0x1A63 JUMPI PUSH1 0x1 PUSH1 0x3 DUP2 GT ISZERO PUSH2 0x1945 JUMPI PUSH2 0x1944 PUSH2 0x30D7 JUMP JUMPDEST JUMPDEST DUP3 PUSH1 0x3 DUP2 GT ISZERO PUSH2 0x1958 JUMPI PUSH2 0x1957 PUSH2 0x30D7 JUMP JUMPDEST JUMPDEST SUB PUSH2 0x198F JUMPI PUSH1 0x40 MLOAD PUSH32 0xF645EEDF00000000000000000000000000000000000000000000000000000000 DUP2 MSTORE PUSH1 0x4 ADD PUSH1 0x40 MLOAD DUP1 SWAP2 SUB SWAP1 REVERT JUMPDEST PUSH1 0x2 PUSH1 0x3 DUP2 GT ISZERO PUSH2 0x19A3 JUMPI PUSH2 0x19A2 PUSH2 0x30D7 JUMP JUMPDEST JUMPDEST DUP3 PUSH1 0x3 DUP2 GT ISZERO PUSH2 0x19B6 JUMPI PUSH2 0x19B5 PUSH2 0x30D7 JUMP JUMPDEST JUMPDEST SUB PUSH2 0x19FA JUMPI DUP1 PUSH0 SHR PUSH1 0x40 MLOAD PUSH32 0xFCE698F700000000000000000000000000000000000000000000000000000000 DUP2 MSTORE PUSH1 0x4 ADD PUSH2 0x19F1 SWAP2 SWAP1 PUSH2 0x1CB4 JUMP JUMPDEST PUSH1 0x40 MLOAD DUP1 SWAP2 SUB SWAP1 REVERT JUMPDEST PUSH1 0x3 DUP1 DUP2 GT ISZERO PUSH2 0x1A0D JUMPI PUSH2 0x1A0C PUSH2 0x30D7 JUMP JUMPDEST JUMPDEST DUP3 PUSH1 0x3 DUP2 GT ISZERO PUSH2 0x1A20 JUMPI PUSH2 0x1A1F PUSH2 0x30D7 JUMP JUMPDEST JUMPDEST SUB PUSH2 0x1A62 JUMPI DUP1 PUSH1 0x40 MLOAD PUSH32 0xD78BCE0C00000000000000000000000000000000000000000000000000000000 DUP2 MSTORE PUSH1 0x4 ADD PUSH2 0x1A59 SWAP2 SWAP1 PUSH2 0x1F25 JUMP JUMPDEST PUSH1 0x40 MLOAD DUP1 SWAP2 SUB SWAP1 REVERT JUMPDEST JUMPDEST POP POP JUMP JUMPDEST PUSH0 PUSH0 PUSH0 PUSH32 0x7FFFFFFFFFFFFFFFFFFFFFFFFFFFFFFF5D576E7357A4501DDFE92F46681B20A0 DUP5 PUSH0 SHR GT ISZERO PUSH2 0x1AA3 JUMPI PUSH0 PUSH1 0x3 DUP6 SWAP3 POP SWAP3 POP SWAP3 POP PUSH2 0x1B44 JUMP JUMPDEST PUSH0 PUSH1 0x1 DUP9 DUP9 DUP9 DUP9 PUSH1 0x40 MLOAD PUSH0 DUP2 MSTORE PUSH1 0x20 ADD PUSH1 0x40 MSTORE PUSH1 0x40 MLOAD PUSH2 0x1AC6 SWAP5 SWAP4 SWAP3 SWAP2 SWAP1 PUSH2 0x311F JUMP JUMPDEST PUSH1 0x20 PUSH1 0x40 MLOAD PUSH1 0x20 DUP2 SUB SWAP1 DUP1 DUP5 SUB SWAP1 DUP6 GAS STATICCALL ISZERO DUP1 ISZERO PUSH2 0x1AE6 JUMPI RETURNDATASIZE PUSH0 PUSH0 RETURNDATACOPY RETURNDATASIZE PUSH0 REVERT JUMPDEST POP POP POP PUSH1 0x20 PUSH1 0x40 MLOAD SUB MLOAD SWAP1 POP PUSH0 PUSH20 0xFFFFFFFFFFFFFFFFFFFFFFFFFFFFFFFFFFFFFFFF AND DUP2 PUSH20 0xFFFFFFFFFFFFFFFFFFFFFFFFFFFFFFFFFFFFFFFF AND SUB PUSH2 0x1B37 JUMPI PUSH0 PUSH1 0x1 PUSH0 PUSH0 SHL SWAP4 POP SWAP4 POP SWAP4 POP POP PUSH2 0x1B44 JUMP JUMPDEST DUP1 PUSH0 PUSH0 PUSH0 SHL SWAP4 POP SWAP4 POP SWAP4 POP POP JUMPDEST SWAP5 POP SWAP5 POP SWAP5 SWAP2 POP POP JUMP JUMPDEST PUSH0 PUSH20 0xFFFFFFFFFFFFFFFFFFFFFFFFFFFFFFFFFFFFFFFF DUP3 AND SWAP1 POP SWAP2 SWAP1 POP JUMP JUMPDEST PUSH0 PUSH2 0x1B77 DUP3 PUSH2 0x1B4E JUMP JUMPDEST SWAP1 POP SWAP2 SWAP1 POP JUMP JUMPDEST PUSH2 0x1B87 DUP2 PUSH2 0x1B6D JUMP JUMPDEST DUP3 MSTORE POP POP JUMP JUMPDEST PUSH0 PUSH1 0x20 DUP3 ADD SWAP1 POP PUSH2 0x1BA0 PUSH0 DUP4 ADD DUP5 PUSH2 0x1B7E JUMP JUMPDEST SWAP3 SWAP2 POP POP JUMP JUMPDEST PUSH0 DUP2 MLOAD SWAP1 POP SWAP2 SWAP1 POP JUMP JUMPDEST PUSH0 DUP3 DUP3 MSTORE PUSH1 0x20 DUP3 ADD SWAP1 POP SWAP3 SWAP2 POP POP JUMP JUMPDEST DUP3 DUP2 DUP4 MCOPY PUSH0 DUP4 DUP4 ADD MSTORE POP POP POP JUMP JUMPDEST PUSH0 PUSH1 0x1F NOT PUSH1 0x1F DUP4 ADD AND SWAP1 POP SWAP2 SWAP1 POP JUMP JUMPDEST PUSH0 PUSH2 0x1BE8 DUP3 PUSH2 0x1BA6 JUMP JUMPDEST PUSH2 0x1BF2 DUP2 DUP6 PUSH2 0x1BB0 JUMP JUMPDEST SWAP4 POP PUSH2 0x1C02 DUP2 DUP6 PUSH1 0x20 DUP7 ADD PUSH2 0x1BC0 JUMP JUMPDEST PUSH2 0x1C0B DUP2 PUSH2 0x1BCE JUMP JUMPDEST DUP5 ADD SWAP2 POP POP SWAP3 SWAP2 POP POP JUMP JUMPDEST PUSH0 PUSH1 0x20 DUP3 ADD SWAP1 POP DUP2 DUP2 SUB PUSH0 DUP4 ADD MSTORE PUSH2 0x1C2E DUP2 DUP5 PUSH2 0x1BDE JUMP JUMPDEST SWAP1 POP SWAP3 SWAP2 POP POP JUMP JUMPDEST PUSH0 PUSH1 0x40 MLOAD SWAP1 POP SWAP1 JUMP JUMPDEST PUSH0 PUSH0 REVERT JUMPDEST PUSH0 PUSH0 REVERT JUMPDEST PUSH2 0x1C50 DUP2 PUSH2 0x1B6D JUMP JUMPDEST DUP2 EQ PUSH2 0x1C5A JUMPI PUSH0 PUSH0 REVERT JUMPDEST POP JUMP JUMPDEST PUSH0 DUP2 CALLDATALOAD SWAP1 POP PUSH2 0x1C6B DUP2 PUSH2 0x1C47 JUMP JUMPDEST SWAP3 SWAP2 POP POP JUMP JUMPDEST PUSH0 PUSH1 0x20 DUP3 DUP5 SUB SLT ISZERO PUSH2 0x1C86 JUMPI PUSH2 0x1C85 PUSH2 0x1C3F JUMP JUMPDEST JUMPDEST PUSH0 PUSH2 0x1C93 DUP5 DUP3 DUP6 ADD PUSH2 0x1C5D JUMP JUMPDEST SWAP2 POP POP SWAP3 SWAP2 POP POP JUMP JUMPDEST PUSH0 DUP2 SWAP1 POP SWAP2 SWAP1 POP JUMP JUMPDEST PUSH2 0x1CAE DUP2 PUSH2 0x1C9C JUMP JUMPDEST DUP3 MSTORE POP POP JUMP JUMPDEST PUSH0 PUSH1 0x20 DUP3 ADD SWAP1 POP PUSH2 0x1CC7 PUSH0 DUP4 ADD DUP5 PUSH2 0x1CA5 JUMP JUMPDEST SWAP3 SWAP2 POP POP JUMP JUMPDEST PUSH0 PUSH0 REVERT JUMPDEST PUSH0 PUSH0 REVERT JUMPDEST PUSH0 PUSH0 REVERT JUMPDEST PUSH0 PUSH0 DUP4 PUSH1 0x1F DUP5 ADD SLT PUSH2 0x1CEE JUMPI PUSH2 0x1CED PUSH2 0x1CCD JUMP JUMPDEST JUMPDEST DUP3 CALLDATALOAD SWAP1 POP PUSH8 0xFFFFFFFFFFFFFFFF DUP2 GT ISZERO PUSH2 0x1D0B JUMPI PUSH2 0x1D0A PUSH2 0x1CD1 JUMP JUMPDEST JUMPDEST PUSH1 0x20 DUP4 ADD SWAP2 POP DUP4 PUSH1 0x1 DUP3 MUL DUP4 ADD GT ISZERO PUSH2 0x1D27 JUMPI PUSH2 0x1D26 PUSH2 0x1CD5 JUMP JUMPDEST JUMPDEST SWAP3 POP SWAP3 SWAP1 POP JUMP JUMPDEST PUSH0 PUSH0 PUSH0 PUSH0 PUSH1 0x40 DUP6 DUP8 SUB SLT ISZERO PUSH2 0x1D46 JUMPI PUSH2 0x1D45 PUSH2 0x1C3F JUMP JUMPDEST JUMPDEST PUSH0 DUP6 ADD CALLDATALOAD PUSH8 0xFFFFFFFFFFFFFFFF DUP2 GT ISZERO PUSH2 0x1D63 JUMPI PUSH2 0x1D62 PUSH2 0x1C43 JUMP JUMPDEST JUMPDEST PUSH2 0x1D6F DUP8 DUP3 DUP9 ADD PUSH2 0x1CD9 JUMP JUMPDEST SWAP5 POP SWAP5 POP POP PUSH1 0x20 DUP6 ADD CALLDATALOAD PUSH8 0xFFFFFFFFFFFFFFFF DUP2 GT ISZERO PUSH2 0x1D92 JUMPI PUSH2 0x1D91 PUSH2 0x1C43 JUMP JUMPDEST JUMPDEST PUSH2 0x1D9E DUP8 DUP3 DUP9 ADD PUSH2 0x1CD9 JUMP JUMPDEST SWAP3 POP SWAP3 POP POP SWAP3 SWAP6 SWAP2 SWAP5 POP SWAP3 POP JUMP JUMPDEST PUSH0 DUP2 MLOAD SWAP1 POP SWAP2 SWAP1 POP JUMP JUMPDEST PUSH0 DUP3 DUP3 MSTORE PUSH1 0x20 DUP3 ADD SWAP1 POP SWAP3 SWAP2 POP POP JUMP JUMPDEST PUSH0 PUSH2 0x1DD0 DUP3 PUSH2 0x1DAC JUMP JUMPDEST PUSH2 0x1DDA DUP2 DUP6 PUSH2 0x1DB6 JUMP JUMPDEST SWAP4 POP PUSH2 0x1DEA DUP2 DUP6 PUSH1 0x20 DUP7 ADD PUSH2 0x1BC0 JUMP JUMPDEST PUSH2 0x1DF3 DUP2 PUSH2 0x1BCE JUMP JUMPDEST DUP5 ADD SWAP2 POP POP SWAP3 SWAP2 POP POP JUMP JUMPDEST PUSH0 PUSH1 0x20 DUP3 ADD SWAP1 POP DUP2 DUP2 SUB PUSH0 DUP4 ADD MSTORE PUSH2 0x1E16 DUP2 DUP5 PUSH2 0x1DC6 JUMP JUMPDEST SWAP1 POP SWAP3 SWAP2 POP POP JUMP JUMPDEST PUSH2 0x1E27 DUP2 PUSH2 0x1C9C JUMP JUMPDEST DUP2 EQ PUSH2 0x1E31 JUMPI PUSH0 PUSH0 REVERT JUMPDEST POP JUMP JUMPDEST PUSH0 DUP2 CALLDATALOAD SWAP1 POP PUSH2 0x1E42 DUP2 PUSH2 0x1E1E JUMP JUMPDEST SWAP3 SWAP2 POP POP JUMP JUMPDEST PUSH0 PUSH0 PUSH0 PUSH1 0x40 DUP5 DUP7 SUB SLT ISZERO PUSH2 0x1E5F JUMPI PUSH2 0x1E5E PUSH2 0x1C3F JUMP JUMPDEST JUMPDEST PUSH0 PUSH2 0x1E6C DUP7 DUP3 DUP8 ADD PUSH2 0x1E34 JUMP JUMPDEST SWAP4 POP POP PUSH1 0x20 DUP5 ADD CALLDATALOAD PUSH8 0xFFFFFFFFFFFFFFFF DUP2 GT ISZERO PUSH2 0x1E8D JUMPI PUSH2 0x1E8C PUSH2 0x1C43 JUMP JUMPDEST JUMPDEST PUSH2 0x1E99 DUP7 DUP3 DUP8 ADD PUSH2 0x1CD9 JUMP JUMPDEST SWAP3 POP SWAP3 POP POP SWAP3 POP SWAP3 POP SWAP3 JUMP JUMPDEST PUSH0 DUP2 SWAP1 POP SWAP2 SWAP1 POP JUMP JUMPDEST PUSH2 0x1EB7 DUP2 PUSH2 0x1EA5 JUMP JUMPDEST DUP2 EQ PUSH2 0x1EC1 JUMPI PUSH0 PUSH0 REVERT JUMPDEST POP JUMP JUMPDEST PUSH0 DUP2 CALLDATALOAD SWAP1 POP PUSH2 0x1ED2 DUP2 PUSH2 0x1EAE JUMP JUMPDEST SWAP3 SWAP2 POP POP JUMP JUMPDEST PUSH0 PUSH0 PUSH1 0x40 DUP4 DUP6 SUB SLT ISZERO PUSH2 0x1EEE JUMPI PUSH2 0x1EED PUSH2 0x1C3F JUMP JUMPDEST JUMPDEST PUSH0 PUSH2 0x1EFB DUP6 DUP3 DUP7 ADD PUSH2 0x1E34 JUMP JUMPDEST SWAP3 POP POP PUSH1 0x20 PUSH2 0x1F0C DUP6 DUP3 DUP7 ADD PUSH2 0x1EC4 JUMP JUMPDEST SWAP2 POP POP SWAP3 POP SWAP3 SWAP1 POP JUMP JUMPDEST PUSH2 0x1F1F DUP2 PUSH2 0x1EA5 JUMP JUMPDEST DUP3 MSTORE POP POP JUMP JUMPDEST PUSH0 PUSH1 0x20 DUP3 ADD SWAP1 POP PUSH2 0x1F38 PUSH0 DUP4 ADD DUP5 PUSH2 0x1F16 JUMP JUMPDEST SWAP3 SWAP2 POP POP JUMP JUMPDEST PUSH0 PUSH0 PUSH0 PUSH0 PUSH1 0x60 DUP6 DUP8 SUB SLT ISZERO PUSH2 0x1F56 JUMPI PUSH2 0x1F55 PUSH2 0x1C3F JUMP JUMPDEST JUMPDEST PUSH0 PUSH2 0x1F63 DUP8 DUP3 DUP9 ADD PUSH2 0x1E34 JUMP JUMPDEST SWAP5 POP POP PUSH1 0x20 PUSH2 0x1F74 DUP8 DUP3 DUP9 ADD PUSH2 0x1EC4 JUMP JUMPDEST SWAP4 POP POP PUSH1 0x40 DUP6 ADD CALLDATALOAD PUSH8 0xFFFFFFFFFFFFFFFF DUP2 GT ISZERO PUSH2 0x1F95 JUMPI PUSH2 0x1F94 PUSH2 0x1C43 JUMP JUMPDEST JUMPDEST PUSH2 0x1FA1 DUP8 DUP3 DUP9 ADD PUSH2 0x1CD9 JUMP JUMPDEST SWAP3 POP SWAP3 POP POP SWAP3 SWAP6 SWAP2 SWAP5 POP SWAP3 POP JUMP JUMPDEST PUSH0 PUSH1 0x20 DUP3 DUP5 SUB SLT ISZERO PUSH2 0x1FC4 JUMPI PUSH2 0x1FC3 PUSH2 0x1C3F JUMP JUMPDEST JUMPDEST PUSH0 PUSH2 0x1FD1 DUP5 DUP3 DUP6 ADD PUSH2 0x1E34 JUMP JUMPDEST SWAP2 POP POP SWAP3 SWAP2 POP POP JUMP JUMPDEST PUSH0 DUP2 ISZERO ISZERO SWAP1 POP SWAP2 SWAP1 POP JUMP JUMPDEST PUSH2 0x1FEE DUP2 PUSH2 0x1FDA JUMP JUMPDEST DUP3 MSTORE POP POP JUMP JUMPDEST PUSH0 PUSH1 0xA0 DUP3 ADD SWAP1 POP PUSH2 0x2007 PUSH0 DUP4 ADD DUP9 PUSH2 0x1B7E JUMP JUMPDEST PUSH2 0x2014 PUSH1 0x20 DUP4 ADD DUP8 PUSH2 0x1CA5 JUMP JUMPDEST PUSH2 0x2021 PUSH1 0x40 DUP4 ADD DUP7 PUSH2 0x1FE5 JUMP JUMPDEST PUSH2 0x202E PUSH1 0x60 DUP4 ADD DUP6 PUSH2 0x1FE5 JUMP JUMPDEST PUSH2 0x203B PUSH1 0x80 DUP4 ADD DUP5 PUSH2 0x1FE5 JUMP JUMPDEST SWAP7 SWAP6 POP POP POP POP POP POP JUMP JUMPDEST PUSH0 PUSH0 DUP4 PUSH1 0x1F DUP5 ADD SLT PUSH2 0x205A JUMPI PUSH2 0x2059 PUSH2 0x1CCD JUMP JUMPDEST JUMPDEST DUP3 CALLDATALOAD SWAP1 POP PUSH8 0xFFFFFFFFFFFFFFFF DUP2 GT ISZERO PUSH2 0x2077 JUMPI PUSH2 0x2076 PUSH2 0x1CD1 JUMP JUMPDEST JUMPDEST PUSH1 0x20 DUP4 ADD SWAP2 POP DUP4 PUSH1 0x1 DUP3 MUL DUP4 ADD GT ISZERO PUSH2 0x2093 JUMPI PUSH2 0x2092 PUSH2 0x1CD5 JUMP JUMPDEST JUMPDEST SWAP3 POP SWAP3 SWAP1 POP JUMP JUMPDEST PUSH0 PUSH0 PUSH1 0x20 DUP4 DUP6 SUB SLT ISZERO PUSH2 0x20B0 JUMPI PUSH2 0x20AF PUSH2 0x1C3F JUMP JUMPDEST JUMPDEST PUSH0 DUP4 ADD CALLDATALOAD PUSH8 0xFFFFFFFFFFFFFFFF DUP2 GT ISZERO PUSH2 0x20CD JUMPI PUSH2 0x20CC PUSH2 0x1C43 JUMP JUMPDEST JUMPDEST PUSH2 0x20D9 DUP6 DUP3 DUP7 ADD PUSH2 0x2045 JUMP JUMPDEST SWAP3 POP SWAP3 POP POP SWAP3 POP SWAP3 SWAP1 POP JUMP JUMPDEST PUSH32 0x4E487B7100000000000000000000000000000000000000000000000000000000 PUSH0 MSTORE PUSH1 0x22 PUSH1 0x4 MSTORE PUSH1 0x24 PUSH0 REVERT JUMPDEST PUSH0 PUSH1 0x2 DUP3 DIV SWAP1 POP PUSH1 0x1 DUP3 AND DUP1 PUSH2 0x2129 JUMPI PUSH1 0x7F DUP3 AND SWAP2 POP JUMPDEST PUSH1 0x20 DUP3 LT DUP2 SUB PUSH2 0x213C JUMPI PUSH2 0x213B PUSH2 0x20E5 JUMP JUMPDEST JUMPDEST POP SWAP2 SWAP1 POP JUMP JUMPDEST PUSH32 0x457363726F773A2063616C6C6572206973206E6F74207468652070726F766964 PUSH0 DUP3 ADD MSTORE PUSH32 0x6572000000000000000000000000000000000000000000000000000000000000 PUSH1 0x20 DUP3 ADD MSTORE POP JUMP JUMPDEST PUSH0 PUSH2 0x219C PUSH1 0x22 DUP4 PUSH2 0x1BB0 JUMP JUMPDEST SWAP2 POP PUSH2 0x21A7 DUP3 PUSH2 0x2142 JUMP JUMPDEST PUSH1 0x40 DUP3 ADD SWAP1 POP SWAP2 SWAP1 POP JUMP JUMPDEST PUSH0 PUSH1 0x20 DUP3 ADD SWAP1 POP DUP2 DUP2 SUB PUSH0 DUP4 ADD MSTORE PUSH2 0x21C9 DUP2 PUSH2 0x2190 JUMP JUMPDEST SWAP1 POP SWAP2 SWAP1 POP JUMP JUMPDEST PUSH32 0x457363726F773A207369676E65722063616E6E6F74206265207A65726F206164 PUSH0 DUP3 ADD MSTORE PUSH32 0x6472657373000000000000000000000000000000000000000000000000000000 PUSH1 0x20 DUP3 ADD MSTORE POP JUMP JUMPDEST PUSH0 PUSH2 0x222A PUSH1 0x25 DUP4 PUSH2 0x1BB0 JUMP JUMPDEST SWAP2 POP PUSH2 0x2235 DUP3 PUSH2 0x21D0 JUMP JUMPDEST PUSH1 0x40 DUP3 ADD SWAP1 POP SWAP2 SWAP1 POP JUMP JUMPDEST PUSH0 PUSH1 0x20 DUP3 ADD SWAP1 POP DUP2 DUP2 SUB PUSH0 DUP4 ADD MSTORE PUSH2 0x2257 DUP2 PUSH2 0x221E JUMP JUMPDEST SWAP1 POP SWAP2 SWAP1 POP JUMP JUMPDEST PUSH32 0x5369676E617475726556657269666965723A20496E76616C6964207369676E61 PUSH0 DUP3 ADD MSTORE PUSH32 0x7475726500000000000000000000000000000000000000000000000000000000 PUSH1 0x20 DUP3 ADD MSTORE POP JUMP JUMPDEST PUSH0 PUSH2 0x22B8 PUSH1 0x24 DUP4 PUSH2 0x1BB0 JUMP JUMPDEST SWAP2 POP PUSH2 0x22C3 DUP3 PUSH2 0x225E JUMP JUMPDEST PUSH1 0x40 DUP3 ADD SWAP1 POP SWAP2 SWAP1 POP JUMP JUMPDEST PUSH0 PUSH1 0x20 DUP3 ADD SWAP1 POP DUP2 DUP2 SUB PUSH0 DUP4 ADD MSTORE PUSH2 0x22E5 DUP2 PUSH2 0x22AC JUMP JUMPDEST SWAP1 POP SWAP2 SWAP1 POP JUMP JUMPDEST PUSH32 0x457363726F773A20696E76616C69642070757263686173652069640000000000 PUSH0 DUP3 ADD MSTORE POP JUMP JUMPDEST PUSH0 PUSH2 0x2320 PUSH1 0x1B DUP4 PUSH2 0x1BB0 JUMP JUMPDEST SWAP2 POP PUSH2 0x232B DUP3 PUSH2 0x22EC JUMP JUMPDEST PUSH1 0x20 DUP3 ADD SWAP1 POP SWAP2 SWAP1 POP JUMP JUMPDEST PUSH0 PUSH1 0x20 DUP3 ADD SWAP1 POP DUP2 DUP2 SUB PUSH0 DUP4 ADD MSTORE PUSH2 0x234D DUP2 PUSH2 0x2314 JUMP JUMPDEST SWAP1 POP SWAP2 SWAP1 POP JUMP JUMPDEST PUSH32 0x4E487B7100000000000000000000000000000000000000000000000000000000 PUSH0 MSTORE PUSH1 0x41 PUSH1 0x4 MSTORE PUSH1 0x24 PUSH0 REVERT JUMPDEST PUSH32 0x4E487B7100000000000000000000000000000000000000000000000000000000 PUSH0 MSTORE PUSH1 0x32 PUSH1 0x4 MSTORE PUSH1 0x24 PUSH0 REVERT JUMPDEST DUP3 DUP2 DUP4 CALLDATACOPY PUSH0 DUP4 DUP4 ADD MSTORE POP POP POP JUMP JUMPDEST PUSH0 PUSH2 0x23C7 DUP4 DUP6 PUSH2 0x1DB6 JUMP JUMPDEST SWAP4 POP PUSH2 0x23D4 DUP4 DUP6 DUP5 PUSH2 0x23AE JUMP JUMPDEST PUSH2 0x23DD DUP4 PUSH2 0x1BCE JUMP JUMPDEST DUP5 ADD SWAP1 POP SWAP4 SWAP3 POP POP POP JUMP JUMPDEST PUSH0 PUSH1 0x40 DUP3 ADD SWAP1 POP DUP2 DUP2 SUB PUSH0 DUP4 ADD MSTORE PUSH2 0x2401 DUP2 DUP6 DUP8 PUSH2 0x23BC JUMP JUMPDEST SWAP1 POP PUSH2 0x2410 PUSH1 0x20 DUP4 ADD DUP5 PUSH2 0x1CA5 JUMP JUMPDEST SWAP5 SWAP4 POP POP POP POP JUMP JUMPDEST PUSH0 DUP2 MLOAD SWAP1 POP SWAP2 SWAP1 POP JUMP JUMPDEST PUSH0 DUP3 DUP3 MSTORE PUSH1 0x20 DUP3 ADD SWAP1 POP SWAP3 SWAP2 POP POP JUMP JUMPDEST PUSH0 DUP2 SWAP1 POP PUSH1 0x20 DUP3 ADD SWAP1 POP SWAP2 SWAP1 POP JUMP JUMPDEST PUSH0 DUP3 DUP3 MSTORE PUSH1 0x20 DUP3 ADD SWAP1 POP SWAP3 SWAP2 POP POP JUMP JUMPDEST PUSH0 PUSH2 0x245B DUP3 PUSH2 0x1BA6 JUMP JUMPDEST PUSH2 0x2465 DUP2 DUP6 PUSH2 0x2441 JUMP JUMPDEST SWAP4 POP PUSH2 0x2475 DUP2 DUP6 PUSH1 0x20 DUP7 ADD PUSH2 0x1BC0 JUMP JUMPDEST PUSH2 0x247E DUP2 PUSH2 0x1BCE JUMP JUMPDEST DUP5 ADD SWAP2 POP POP SWAP3 SWAP2 POP POP JUMP JUMPDEST PUSH0 PUSH2 0x2494 DUP4 DUP4 PUSH2 0x2451 JUMP JUMPDEST SWAP1 POP SWAP3 SWAP2 POP POP JUMP JUMPDEST PUSH0 PUSH1 0x20 DUP3 ADD SWAP1 POP SWAP2 SWAP1 POP JUMP JUMPDEST PUSH0 PUSH2 0x24B2 DUP3 PUSH2 0x2418 JUMP JUMPDEST PUSH2 0x24BC DUP2 DUP6 PUSH2 0x2422 JUMP JUMPDEST SWAP4 POP DUP4 PUSH1 0x20 DUP3 MUL DUP6 ADD PUSH2 0x24CE DUP6 PUSH2 0x2432 JUMP JUMPDEST DUP1 PUSH0 JUMPDEST DUP6 DUP2 LT ISZERO PUSH2 0x2509 JUMPI DUP5 DUP5 SUB DUP10 MSTORE DUP2 MLOAD PUSH2 0x24EA DUP6 DUP3 PUSH2 0x2489 JUMP JUMPDEST SWAP5 POP PUSH2 0x24F5 DUP4 PUSH2 0x249C JUMP JUMPDEST SWAP3 POP PUSH1 0x20 DUP11 ADD SWAP10 POP POP PUSH1 0x1 DUP2 ADD SWAP1 POP PUSH2 0x24D1 JUMP JUMPDEST POP DUP3 SWAP8 POP DUP8 SWAP6 POP POP POP POP POP POP SWAP3 SWAP2 POP POP JUMP JUMPDEST PUSH0 PUSH32 0xFFFFFFFF00000000000000000000000000000000000000000000000000000000 DUP3 AND SWAP1 POP SWAP2 SWAP1 POP JUMP JUMPDEST PUSH2 0x254F DUP2 PUSH2 0x251B JUMP JUMPDEST DUP3 MSTORE POP POP JUMP JUMPDEST PUSH0 PUSH1 0xA0 DUP3 ADD SWAP1 POP PUSH2 0x2568 PUSH0 DUP4 ADD DUP9 PUSH2 0x1B7E JUMP JUMPDEST DUP2 DUP2 SUB PUSH1 0x20 DUP4 ADD MSTORE PUSH2 0x257A DUP2 DUP8 PUSH2 0x24A8 JUMP JUMPDEST SWAP1 POP DUP2 DUP2 SUB PUSH1 0x40 DUP4 ADD MSTORE PUSH2 0x258E DUP2 DUP7 PUSH2 0x1DC6 JUMP JUMPDEST SWAP1 POP PUSH2 0x259D PUSH1 0x60 DUP4 ADD DUP6 PUSH2 0x2546 JUMP JUMPDEST DUP2 DUP2 SUB PUSH1 0x80 DUP4 ADD MSTORE PUSH2 0x25AF DUP2 DUP5 PUSH2 0x1DC6 JUMP JUMPDEST SWAP1 POP SWAP7 SWAP6 POP POP POP POP POP POP JUMP JUMPDEST PUSH32 0x457363726F773A207265656E7472616E742063616C6C00000000000000000000 PUSH0 DUP3 ADD MSTORE POP JUMP JUMPDEST PUSH0 PUSH2 0x25EF PUSH1 0x16 DUP4 PUSH2 0x1BB0 JUMP JUMPDEST SWAP2 POP PUSH2 0x25FA DUP3 PUSH2 0x25BB JUMP JUMPDEST PUSH1 0x20 DUP3 ADD SWAP1 POP SWAP2 SWAP1 POP JUMP JUMPDEST PUSH0 PUSH1 0x20 DUP3 ADD SWAP1 POP DUP2 DUP2 SUB PUSH0 DUP4 ADD MSTORE PUSH2 0x261C DUP2 PUSH2 0x25E3 JUMP JUMPDEST SWAP1 POP SWAP2 SWAP1 POP JUMP JUMPDEST PUSH32 0x457363726F773A20696E636F7272656374207061796D656E7420616D6F756E74 PUSH0 DUP3 ADD MSTORE POP JUMP JUMPDEST PUSH0 PUSH2 0x2657 PUSH1 0x20 DUP4 PUSH2 0x1BB0 JUMP JUMPDEST SWAP2 POP PUSH2 0x2662 DUP3 PUSH2 0x2623 JUMP JUMPDEST PUSH1 0x20 DUP3 ADD SWAP1 POP SWAP2 SWAP1 POP JUMP JUMPDEST PUSH0 PUSH1 0x20 DUP3 ADD SWAP1 POP DUP2 DUP2 SUB PUSH0 DUP4 ADD MSTORE PUSH2 0x2684 DUP2 PUSH2 0x264B JUMP JUMPDEST SWAP1 POP SWAP2 SWAP1 POP JUMP JUMPDEST PUSH32 0x4E487B7100000000000000000000000000000000000000000000000000000000 PUSH0 MSTORE PUSH1 0x11 PUSH1 0x4 MSTORE PUSH1 0x24 PUSH0 REVERT JUMPDEST PUSH0 PUSH2 0x26C2 DUP3 PUSH2 0x1C9C JUMP JUMPDEST SWAP2 POP PUSH32 0xFFFFFFFFFFFFFFFFFFFFFFFFFFFFFFFFFFFFFFFFFFFFFFFFFFFFFFFFFFFFFFFF DUP3 SUB PUSH2 0x26F4 JUMPI PUSH2 0x26F3 PUSH2 0x268B JUMP JUMPDEST JUMPDEST PUSH1 0x1 DUP3 ADD SWAP1 POP SWAP2 SWAP1 POP JUMP JUMPDEST PUSH32 0x457363726F773A207061796D656E7420616C726561647920636C61696D656400 PUSH0 DUP3 ADD MSTORE POP JUMP JUMPDEST PUSH0 PUSH2 0x2733 PUSH1 0x1F DUP4 PUSH2 0x1BB0 JUMP JUMPDEST SWAP2 POP PUSH2 0x273E DUP3 PUSH2 0x26FF JUMP JUMPDEST PUSH1 0x20 DUP3 ADD SWAP1 POP SWAP2 SWAP1 POP JUMP JUMPDEST PUSH0 PUSH1 0x20 DUP3 ADD SWAP1 POP DUP2 DUP2 SUB PUSH0 DUP4 ADD MSTORE PUSH2 0x2760 DUP2 PUSH2 0x2727 JUMP JUMPDEST SWAP1 POP SWAP2 SWAP1 POP JUMP JUMPDEST PUSH32 0x457363726F773A20707572636861736520697320696E20646973707574650000 PUSH0 DUP3 ADD MSTORE POP JUMP JUMPDEST PUSH0 PUSH2 0x279B PUSH1 0x1E DUP4 PUSH2 0x1BB0 JUMP JUMPDEST SWAP2 POP PUSH2 0x27A6 DUP3 PUSH2 0x2767 JUMP JUMPDEST PUSH1 0x20 DUP3 ADD SWAP1 POP SWAP2 SWAP1 POP JUMP JUMPDEST PUSH0 PUSH1 0x20 DUP3 ADD SWAP1 POP DUP2 DUP2 SUB PUSH0 DUP4 ADD MSTORE PUSH2 0x27C8 DUP2 PUSH2 0x278F JUMP JUMPDEST SWAP1 POP SWAP2 SWAP1 POP JUMP JUMPDEST PUSH32 0x457363726F773A2063616C6C6572206973206E6F742074686520666163746F72 PUSH0 DUP3 ADD MSTORE PUSH32 0x7900000000000000000000000000000000000000000000000000000000000000 PUSH1 0x20 DUP3 ADD MSTORE POP JUMP JUMPDEST PUSH0 PUSH2 0x2829 PUSH1 0x21 DUP4 PUSH2 0x1BB0 JUMP JUMPDEST SWAP2 POP PUSH2 0x2834 DUP3 PUSH2 0x27CF JUMP JUMPDEST PUSH1 0x40 DUP3 ADD SWAP1 POP SWAP2 SWAP1 POP JUMP JUMPDEST PUSH0 PUSH1 0x20 DUP3 ADD SWAP1 POP DUP2 DUP2 SUB PUSH0 DUP4 ADD MSTORE PUSH2 0x2856 DUP2 PUSH2 0x281D JUMP JUMPDEST SWAP1 POP SWAP2 SWAP1 POP JUMP JUMPDEST PUSH32 0x457363726F773A20696E76616C69642073746174650000000000000000000000 PUSH0 DUP3 ADD MSTORE POP JUMP JUMPDEST PUSH0 PUSH2 0x2891 PUSH1 0x15 DUP4 PUSH2 0x1BB0 JUMP JUMPDEST SWAP2 POP PUSH2 0x289C DUP3 PUSH2 0x285D JUMP JUMPDEST PUSH1 0x20 DUP3 ADD SWAP1 POP SWAP2 SWAP1 POP JUMP JUMPDEST PUSH0 PUSH1 0x20 DUP3 ADD SWAP1 POP DUP2 DUP2 SUB PUSH0 DUP4 ADD MSTORE PUSH2 0x28BE DUP2 PUSH2 0x2885 JUMP JUMPDEST SWAP1 POP SWAP2 SWAP1 POP JUMP JUMPDEST PUSH32 0x457363726F773A2063616C6C6572206973206E6F742074686520627579657200 PUSH0 DUP3 ADD MSTORE POP JUMP JUMPDEST PUSH0 PUSH2 0x28F9 PUSH1 0x1F DUP4 PUSH2 0x1BB0 JUMP JUMPDEST SWAP2 POP PUSH2 0x2904 DUP3 PUSH2 0x28C5 JUMP JUMPDEST PUSH1 0x20 DUP3 ADD SWAP1 POP SWAP2 SWAP1 POP JUMP JUMPDEST PUSH0 PUSH1 0x20 DUP3 ADD SWAP1 POP DUP2 DUP2 SUB PUSH0 DUP4 ADD MSTORE PUSH2 0x2926 DUP2 PUSH2 0x28ED JUMP JUMPDEST SWAP1 POP SWAP2 SWAP1 POP JUMP JUMPDEST PUSH32 0x457363726F773A206469737075746520616C7265616479207261697365640000 PUSH0 DUP3 ADD MSTORE POP JUMP JUMPDEST PUSH0 PUSH2 0x2961 PUSH1 0x1E DUP4 PUSH2 0x1BB0 JUMP JUMPDEST SWAP2 POP PUSH2 0x296C DUP3 PUSH2 0x292D JUMP JUMPDEST PUSH1 0x20 DUP3 ADD SWAP1 POP SWAP2 SWAP1 POP JUMP JUMPDEST PUSH0 PUSH1 0x20 DUP3 ADD SWAP1 POP DUP2 DUP2 SUB PUSH0 DUP4 ADD MSTORE PUSH2 0x298E DUP2 PUSH2 0x2955 JUMP JUMPDEST SWAP1 POP SWAP2 SWAP1 POP JUMP JUMPDEST PUSH32 0x457363726F773A20676174657761792063616E6E6F7420626520656D70747900 PUSH0 DUP3 ADD MSTORE POP JUMP JUMPDEST PUSH0 PUSH2 0x29C9 PUSH1 0x1F DUP4 PUSH2 0x1BB0 JUMP JUMPDEST SWAP2 POP PUSH2 0x29D4 DUP3 PUSH2 0x2995 JUMP JUMPDEST PUSH1 0x20 DUP3 ADD SWAP1 POP SWAP2 SWAP1 POP JUMP JUMPDEST PUSH0 PUSH1 0x20 DUP3 ADD SWAP1 POP DUP2 DUP2 SUB PUSH0 DUP4 ADD MSTORE PUSH2 0x29F6 DUP2 PUSH2 0x29BD JUMP JUMPDEST SWAP1 POP SWAP2 SWAP1 POP JUMP JUMPDEST PUSH0 DUP3 SWAP1 POP SWAP3 SWAP2 POP POP JUMP JUMPDEST PUSH0 DUP2 SWAP1 POP DUP2 PUSH0 MSTORE PUSH1 0x20 PUSH0 KECCAK256 SWAP1 POP SWAP2 SWAP1 POP JUMP JUMPDEST PUSH0 PUSH1 0x20 PUSH1 0x1F DUP4 ADD DIV SWAP1 POP SWAP2 SWAP1 POP JUMP JUMPDEST PUSH0 DUP3 DUP3 SHL SWAP1 POP SWAP3 SWAP2 POP POP JUMP JUMPDEST PUSH0 PUSH1 0x8 DUP4 MUL PUSH2 0x2A63 PUSH32 0xFFFFFFFFFFFFFFFFFFFFFFFFFFFFFFFFFFFFFFFFFFFFFFFFFFFFFFFFFFFFFFFF DUP3 PUSH2 0x2A28 JUMP JUMPDEST PUSH2 0x2A6D DUP7 DUP4 PUSH2 0x2A28 JUMP JUMPDEST SWAP6 POP DUP1 NOT DUP5 AND SWAP4 POP DUP1 DUP7 AND DUP5 OR SWAP3 POP POP POP SWAP4 SWAP3 POP POP POP JUMP JUMPDEST PUSH0 DUP2 SWAP1 POP SWAP2 SWAP1 POP JUMP JUMPDEST PUSH0 PUSH2 0x2AA8 PUSH2 0x2AA3 PUSH2 0x2A9E DUP5 PUSH2 0x1C9C JUMP JUMPDEST PUSH2 0x2A85 JUMP JUMPDEST PUSH2 0x1C9C JUMP JUMPDEST SWAP1 POP SWAP2 SWAP1 POP JUMP JUMPDEST PUSH0 DUP2 SWAP1 POP SWAP2 SWAP1 POP JUMP JUMPDEST PUSH2 0x2AC1 DUP4 PUSH2 0x2A8E JUMP JUMPDEST PUSH2 0x2AD5 PUSH2 0x2ACD DUP3 PUSH2 0x2AAF JUMP JUMPDEST DUP5 DUP5 SLOAD PUSH2 0x2A34 JUMP JUMPDEST DUP3 SSTORE POP POP POP POP JUMP JUMPDEST PUSH0 PUSH0 SWAP1 POP SWAP1 JUMP JUMPDEST PUSH2 0x2AEC PUSH2 0x2ADD JUMP JUMPDEST PUSH2 0x2AF7 DUP2 DUP5 DUP5 PUSH2 0x2AB8 JUMP JUMPDEST POP POP POP JUMP JUMPDEST JUMPDEST DUP2 DUP2 LT ISZERO PUSH2 0x2B1A JUMPI PUSH2 0x2B0F PUSH0 DUP3 PUSH2 0x2AE4 JUMP JUMPDEST PUSH1 0x1 DUP2 ADD SWAP1 POP PUSH2 0x2AFD JUMP JUMPDEST POP POP JUMP JUMPDEST PUSH1 0x1F DUP3 GT ISZERO PUSH2 0x2B5F JUMPI PUSH2 0x2B30 DUP2 PUSH2 0x2A07 JUMP JUMPDEST PUSH2 0x2B39 DUP5 PUSH2 0x2A19 JUMP JUMPDEST DUP2 ADD PUSH1 0x20 DUP6 LT ISZERO PUSH2 0x2B48 JUMPI DUP2 SWAP1 POP JUMPDEST PUSH2 0x2B5C PUSH2 0x2B54 DUP6 PUSH2 0x2A19 JUMP JUMPDEST DUP4 ADD DUP3 PUSH2 0x2AFC JUMP JUMPDEST POP POP JUMPDEST POP POP POP JUMP JUMPDEST PUSH0 DUP3 DUP3 SHR SWAP1 POP SWAP3 SWAP2 POP POP JUMP JUMPDEST PUSH0 PUSH2 0x2B7F PUSH0 NOT DUP5 PUSH1 0x8 MUL PUSH2 0x2B64 JUMP JUMPDEST NOT DUP1 DUP4 AND SWAP2 POP POP SWAP3 SWAP2 POP POP JUMP JUMPDEST PUSH0 PUSH2 0x2B97 DUP4 DUP4 PUSH2 0x2B70 JUMP JUMPDEST SWAP2 POP DUP3 PUSH1 0x2 MUL DUP3 OR SWAP1 POP SWAP3 SWAP2 POP POP JUMP JUMPDEST PUSH2 0x2BB1 DUP4 DUP4 PUSH2 0x29FD JUMP JUMPDEST PUSH8 0xFFFFFFFFFFFFFFFF DUP2 GT ISZERO PUSH2 0x2BCA JUMPI PUSH2 0x2BC9 PUSH2 0x2354 JUMP JUMPDEST JUMPDEST PUSH2 0x2BD4 DUP3 SLOAD PUSH2 0x2112 JUMP JUMPDEST PUSH2 0x2BDF DUP3 DUP3 DUP6 PUSH2 0x2B1E JUMP JUMPDEST PUSH0 PUSH1 0x1F DUP4 GT PUSH1 0x1 DUP2 EQ PUSH2 0x2C0C JUMPI PUSH0 DUP5 ISZERO PUSH2 0x2BFA JUMPI DUP3 DUP8 ADD CALLDATALOAD SWAP1 POP JUMPDEST PUSH2 0x2C04 DUP6 DUP3 PUSH2 0x2B8C JUMP JUMPDEST DUP7 SSTORE POP PUSH2 0x2C6B JUMP JUMPDEST PUSH1 0x1F NOT DUP5 AND PUSH2 0x2C1A DUP7 PUSH2 0x2A07 JUMP JUMPDEST PUSH0 JUMPDEST DUP3 DUP2 LT ISZERO PUSH2 0x2C41 JUMPI DUP5 DUP10 ADD CALLDATALOAD DUP3 SSTORE PUSH1 0x1 DUP3 ADD SWAP2 POP PUSH1 0x20 DUP6 ADD SWAP5 POP PUSH1 0x20 DUP2 ADD SWAP1 POP PUSH2 0x2C1C JUMP JUMPDEST DUP7 DUP4 LT ISZERO PUSH2 0x2C5E JUMPI DUP5 DUP10 ADD CALLDATALOAD PUSH2 0x2C5A PUSH1 0x1F DUP10 AND DUP3 PUSH2 0x2B70 JUMP JUMPDEST DUP4 SSTORE POP JUMPDEST PUSH1 0x1 PUSH1 0x2 DUP9 MUL ADD DUP9 SSTORE POP POP POP JUMPDEST POP POP POP POP POP POP POP JUMP JUMPDEST PUSH0 PUSH0 REVERT JUMPDEST PUSH2 0x2C81 DUP3 PUSH2 0x1BCE JUMP JUMPDEST DUP2 ADD DUP2 DUP2 LT PUSH8 0xFFFFFFFFFFFFFFFF DUP3 GT OR ISZERO PUSH2 0x2CA0 JUMPI PUSH2 0x2C9F PUSH2 0x2354 JUMP JUMPDEST JUMPDEST DUP1 PUSH1 0x40 MSTORE POP POP POP JUMP JUMPDEST PUSH0 PUSH2 0x2CB2 PUSH2 0x1C36 JUMP JUMPDEST SWAP1 POP PUSH2 0x2CBE DUP3 DUP3 PUSH2 0x2C78 JUMP JUMPDEST SWAP2 SWAP1 POP JUMP JUMPDEST PUSH0 PUSH8 0xFFFFFFFFFFFFFFFF DUP3 GT ISZERO PUSH2 0x2CDD JUMPI PUSH2 0x2CDC PUSH2 0x2354 JUMP JUMPDEST JUMPDEST PUSH2 0x2CE6 DUP3 PUSH2 0x1BCE JUMP JUMPDEST SWAP1 POP PUSH1 0x20 DUP2 ADD SWAP1 POP SWAP2 SWAP1 POP JUMP JUMPDEST PUSH0 PUSH2 0x2D05 PUSH2 0x2D00 DUP5 PUSH2 0x2CC3 JUMP JUMPDEST PUSH2 0x2CA9 JUMP JUMPDEST SWAP1 POP DUP3 DUP2 MSTORE PUSH1 0x20 DUP2 ADD DUP5 DUP5 DUP5 ADD GT ISZERO PUSH2 0x2D21 JUMPI PUSH2 0x2D20 PUSH2 0x2C74 JUMP JUMPDEST JUMPDEST PUSH2 0x2D2C DUP5 DUP3 DUP6 PUSH2 0x23AE JUMP JUMPDEST POP SWAP4 SWAP3 POP POP POP JUMP JUMPDEST PUSH0 DUP3 PUSH1 0x1F DUP4 ADD SLT PUSH2 0x2D48 JUMPI PUSH2 0x2D47 PUSH2 0x1CCD JUMP JUMPDEST JUMPDEST DUP2 CALLDATALOAD PUSH2 0x2D58 DUP5 DUP3 PUSH1 0x20 DUP7 ADD PUSH2 0x2CF3 JUMP JUMPDEST SWAP2 POP POP SWAP3 SWAP2 POP POP JUMP JUMPDEST PUSH0 PUSH8 0xFFFFFFFFFFFFFFFF DUP3 AND SWAP1 POP SWAP2 SWAP1 POP JUMP JUMPDEST PUSH2 0x2D7D DUP2 PUSH2 0x2D61 JUMP JUMPDEST DUP2 EQ PUSH2 0x2D87 JUMPI PUSH0 PUSH0 REVERT JUMPDEST POP JUMP JUMPDEST PUSH0 DUP2 CALLDATALOAD SWAP1 POP PUSH2 0x2D98 DUP2 PUSH2 0x2D74 JUMP JUMPDEST SWAP3 SWAP2 POP POP JUMP JUMPDEST PUSH0 PUSH0 PUSH0 PUSH1 0x60 DUP5 DUP7 SUB SLT ISZERO PUSH2 0x2DB5 JUMPI PUSH2 0x2DB4 PUSH2 0x1C3F JUMP JUMPDEST JUMPDEST PUSH0 DUP5 ADD CALLDATALOAD PUSH8 0xFFFFFFFFFFFFFFFF DUP2 GT ISZERO PUSH2 0x2DD2 JUMPI PUSH2 0x2DD1 PUSH2 0x1C43 JUMP JUMPDEST JUMPDEST PUSH2 0x2DDE DUP7 DUP3 DUP8 ADD PUSH2 0x2D34 JUMP JUMPDEST SWAP4 POP POP PUSH1 0x20 PUSH2 0x2DEF DUP7 DUP3 DUP8 ADD PUSH2 0x2D8A JUMP JUMPDEST SWAP3 POP POP PUSH1 0x40 DUP5 ADD CALLDATALOAD PUSH8 0xFFFFFFFFFFFFFFFF DUP2 GT ISZERO PUSH2 0x2E10 JUMPI PUSH2 0x2E0F PUSH2 0x1C43 JUMP JUMPDEST JUMPDEST PUSH2 0x2E1C DUP7 DUP3 DUP8 ADD PUSH2 0x2D34 JUMP JUMPDEST SWAP2 POP POP SWAP3 POP SWAP3 POP SWAP3 JUMP JUMPDEST PUSH32 0x5369676E617475726556657269666965723A205369676E617475726520657870 PUSH0 DUP3 ADD MSTORE PUSH32 0x6972656400000000000000000000000000000000000000000000000000000000 PUSH1 0x20 DUP3 ADD MSTORE POP JUMP JUMPDEST PUSH0 PUSH2 0x2E80 PUSH1 0x24 DUP4 PUSH2 0x1BB0 JUMP JUMPDEST SWAP2 POP PUSH2 0x2E8B DUP3 PUSH2 0x2E26 JUMP JUMPDEST PUSH1 0x40 DUP3 ADD SWAP1 POP SWAP2 SWAP1 POP JUMP JUMPDEST PUSH0 PUSH1 0x20 DUP3 ADD SWAP1 POP DUP2 DUP2 SUB PUSH0 DUP4 ADD MSTORE PUSH2 0x2EAD DUP2 PUSH2 0x2E74 JUMP JUMPDEST SWAP1 POP SWAP2 SWAP1 POP JUMP JUMPDEST PUSH0 PUSH1 0x60 DUP3 ADD SWAP1 POP PUSH2 0x2EC7 PUSH0 DUP4 ADD DUP7 PUSH2 0x1B7E JUMP JUMPDEST PUSH2 0x2ED4 PUSH1 0x20 DUP4 ADD DUP6 PUSH2 0x1CA5 JUMP JUMPDEST PUSH2 0x2EE1 PUSH1 0x40 DUP4 ADD DUP5 PUSH2 0x1F16 JUMP JUMPDEST SWAP5 SWAP4 POP POP POP POP JUMP JUMPDEST PUSH0 DUP2 SWAP1 POP SWAP3 SWAP2 POP POP JUMP JUMPDEST POP JUMP JUMPDEST PUSH0 PUSH2 0x2F01 PUSH0 DUP4 PUSH2 0x2EE9 JUMP JUMPDEST SWAP2 POP PUSH2 0x2F0C DUP3 PUSH2 0x2EF3 JUMP JUMPDEST PUSH0 DUP3 ADD SWAP1 POP SWAP2 SWAP1 POP JUMP JUMPDEST PUSH0 PUSH2 0x2F20 DUP3 PUSH2 0x2EF6 JUMP JUMPDEST SWAP2 POP DUP2 SWAP1 POP SWAP2 SWAP1 POP JUMP JUMPDEST PUSH32 0x457363726F773A20455448207472616E73666572206661696C65640000000000 PUSH0 DUP3 ADD MSTORE POP JUMP JUMPDEST PUSH0 PUSH2 0x2F5E PUSH1 0x1B DUP4 PUSH2 0x1BB0 JUMP JUMPDEST SWAP2 POP PUSH2 0x2F69 DUP3 PUSH2 0x2F2A JUMP JUMPDEST PUSH1 0x20 DUP3 ADD SWAP1 POP SWAP2 SWAP1 POP JUMP JUMPDEST PUSH0 PUSH1 0x20 DUP3 ADD SWAP1 POP DUP2 DUP2 SUB PUSH0 DUP4 ADD MSTORE PUSH2 0x2F8B DUP2 PUSH2 0x2F52 JUMP JUMPDEST SWAP1 POP SWAP2 SWAP1 POP JUMP JUMPDEST PUSH0 DUP2 SWAP1 POP SWAP3 SWAP2 POP POP JUMP JUMPDEST PUSH32 0x1900000000000000000000000000000000000000000000000000000000000000 PUSH0 DUP3 ADD MSTORE POP JUMP JUMPDEST PUSH0 PUSH2 0x2FD0 PUSH1 0x2 DUP4 PUSH2 0x2F92 JUMP JUMPDEST SWAP2 POP PUSH2 0x2FDB DUP3 PUSH2 0x2F9C JUMP JUMPDEST PUSH1 0x2 DUP3 ADD SWAP1 POP SWAP2 SWAP1 POP JUMP JUMPDEST PUSH0 DUP2 PUSH1 0x60 SHL SWAP1 POP SWAP2 SWAP1 POP JUMP JUMPDEST PUSH0 PUSH2 0x2FFC DUP3 PUSH2 0x2FE6 JUMP JUMPDEST SWAP1 POP SWAP2 SWAP1 POP JUMP JUMPDEST PUSH0 PUSH2 0x300D DUP3 PUSH2 0x2FF2 JUMP JUMPDEST SWAP1 POP SWAP2 SWAP1 POP JUMP JUMPDEST PUSH2 0x3025 PUSH2 0x3020 DUP3 PUSH2 0x1B6D JUMP JUMPDEST PUSH2 0x3003 JUMP JUMPDEST DUP3 MSTORE POP POP JUMP JUMPDEST PUSH0 DUP2 PUSH1 0xC0 SHL SWAP1 POP SWAP2 SWAP1 POP JUMP JUMPDEST PUSH0 PUSH2 0x3041 DUP3 PUSH2 0x302B JUMP JUMPDEST SWAP1 POP SWAP2 SWAP1 POP JUMP JUMPDEST PUSH2 0x3059 PUSH2 0x3054 DUP3 PUSH2 0x2D61 JUMP JUMPDEST PUSH2 0x3037 JUMP JUMPDEST DUP3 MSTORE POP POP JUMP JUMPDEST PUSH0 DUP2 SWAP1 POP SWAP2 SWAP1 POP JUMP JUMPDEST PUSH2 0x3079 PUSH2 0x3074 DUP3 PUSH2 0x1EA5 JUMP JUMPDEST PUSH2 0x305F JUMP JUMPDEST DUP3 MSTORE POP POP JUMP JUMPDEST PUSH0 PUSH2 0x3089 DUP3 PUSH2 0x2FC4 JUMP JUMPDEST SWAP2 POP PUSH2 0x3095 DUP3 DUP8 PUSH2 0x3014 JUMP JUMPDEST PUSH1 0x14 DUP3 ADD SWAP2 POP PUSH2 0x30A5 DUP3 DUP7 PUSH2 0x3048 JUMP JUMPDEST PUSH1 0x8 DUP3 ADD SWAP2 POP PUSH2 0x30B5 DUP3 DUP6 PUSH2 0x3068 JUMP JUMPDEST PUSH1 0x20 DUP3 ADD SWAP2 POP PUSH2 0x30C5 DUP3 DUP5 PUSH2 0x3068 JUMP JUMPDEST PUSH1 0x20 DUP3 ADD SWAP2 POP DUP2 SWAP1 POP SWAP6 SWAP5 POP POP POP POP POP JUMP JUMPDEST PUSH32 0x4E487B7100000000000000000000000000000000000000000000000000000000 PUSH0 MSTORE PUSH1 0x21 PUSH1 0x4 MSTORE PUSH1 0x24 PUSH0 REVERT JUMPDEST PUSH0 PUSH1 0xFF DUP3 AND SWAP1 POP SWAP2 SWAP1 POP JUMP JUMPDEST PUSH2 0x3119 DUP2 PUSH2 0x3104 JUMP JUMPDEST DUP3 MSTORE POP POP JUMP JUMPDEST PUSH0 PUSH1 0x80 DUP3 ADD SWAP1 POP PUSH2 0x3132 PUSH0 DUP4 ADD DUP8 PUSH2 0x1F16 JUMP JUMPDEST PUSH2 0x313F PUSH1 0x20 DUP4 ADD DUP7 PUSH2 0x3110 JUMP JUMPDEST PUSH2 0x314C PUSH1 0x40 DUP4 ADD DUP6 PUSH2 0x1F16 JUMP JUMPDEST PUSH2 0x3159 PUSH1 0x60 DUP4 ADD DUP5 PUSH2 0x1F16 JUMP JUMPDEST SWAP6 SWAP5 POP POP POP POP POP JUMP INVALID LOG2 PUSH5 0x6970667358 0x22 SLT KECCAK256 PUSH15 0x32C622F8171E9758B361B281BB88E 0xA6 POP GASLIMIT ADDMOD CODECOPY 0xB5 JUMP 0xBB PUSH29 0x7494E53C16EEA464736F6C634300081C0033A2646970667358221220D1 CALLCODE PUSH19 0xC825149395F8406FD2EF6CAD9ADC04C895B63A 0xA6 PUSH14 0x4A9EA022D533EA6464736F6C6343 STOP ADDMOD SHR STOP CALLER "
		},
		"gasEstimates": {
			"creation": {
				"codeDepositCost": "4584000",
				"executionCost": "5355",
				"totalCost": "4589355"
			},
			"external": {
				"createService(string,uint256,string,address,string)": "infinite",
				"listServices()": "infinite",
				"resolveDispute(bytes32,uint256,bool)": "infinite",
				"serviceIds(uint256)": "4916",
				"services(bytes32)": "2827",
				"stakes(bytes32)": "2821",
				"topUpStake(bytes32)": "infinite",
				"withdrawStake(bytes32,uint256)": "infinite"
			},
			"internal": {
				"_sendETH(address payable,uint256)": "infinite"
			}
		},
		"methodIdentifiers": {
			"createService(string,uint256,string,address,string)": "a269eeb4",
			"listServices()": "de1c5488",
			"resolveDispute(bytes32,uint256,bool)": "faf0bbbf",
			"serviceIds(uint256)": "69d26933",
			"services(bytes32)": "0a790eb7",
			"stakes(bytes32)": "8fee6407",
			"topUpStake(bytes32)": "eaa3668f",
			"withdrawStake(bytes32,uint256)": "19dc5716"
		}
	},
	"abi": [
		{
			"anonymous": false,
			"inputs": [
				{
					"indexed": true,
					"internalType": "bytes32",
					"name": "serviceId",
					"type": "bytes32"
				},
				{
					"indexed": true,
					"internalType": "uint256",
					"name": "purchaseId",
					"type": "uint256"
				},
				{
					"indexed": false,
					"internalType": "bool",
					"name": "refunded",
					"type": "bool"
				},
				{
					"indexed": true,
					"internalType": "address",
					"name": "arbiter",
					"type": "address"
				}
			],
			"name": "DisputeResolved",
			"type": "event"
		},
		{
			"anonymous": false,
			"inputs": [
				{
					"indexed": true,
					"internalType": "bytes32",
					"name": "serviceId",
					"type": "bytes32"
				},
				{
					"indexed": false,
					"internalType": "string",
					"name": "name",
					"type": "string"
				},
				{
					"indexed": false,
					"internalType": "address",
					"name": "escrow",
					"type": "address"
				},
				{
					"indexed": true,
					"internalType": "address",
					"name": "provider",
					"type": "address"
				},
				{
					"indexed": false,
					"internalType": "uint256",
					"name": "stake",
					"type": "uint256"
				}
			],
			"name": "ServiceDeployed",
			"type": "event"
		},
		{
			"anonymous": false,
			"inputs": [
				{
					"indexed": true,
					"internalType": "bytes32",
					"name": "serviceId",
					"type": "bytes32"
				},
				{
					"indexed": false,
					"internalType": "uint256",
					"name": "amount",
					"type": "uint256"
				},
				{
					"indexed": false,
					"internalType": "uint256",
					"name": "newTotal",
					"type": "uint256"
				}
			],
			"name": "StakeToppedUp",
			"type": "event"
		},
		{
			"anonymous": false,
			"inputs": [
				{
					"indexed": true,
					"internalType": "bytes32",
					"name": "serviceId",
					"type": "bytes32"
				},
				{
					"indexed": false,
					"internalType": "uint256",
					"name": "amount",
					"type": "uint256"
				},
				{
					"indexed": false,
					"internalType": "uint256",
					"name": "newTotal",
					"type": "uint256"
				}
			],
			"name": "StakeWithdrawn",
			"type": "event"
		},
		{
			"inputs": [
				{
					"internalType": "string",
					"name": "name",
					"type": "string"
				},
				{
					"internalType": "uint256",
					"name": "price",
					"type": "uint256"
				},
				{
					"internalType": "string",
					"name": "gateway",
					"type": "string"
				},
				{
					"internalType": "address",
					"name": "gatewaySigner",
					"type": "address"
				},
				{
					"internalType": "string",
					"name": "description",
					"type": "string"
				}
			],
			"name": "createService",
			"outputs": [
				{
					"internalType": "address",
					"name": "escrow",
					"type": "address"
				}
			],
			"stateMutability": "payable",
			"type": "function"
		},
		{
			"inputs": [],
			"name": "listServices",
			"outputs": [
				{
					"internalType": "bytes32[]",
					"name": "ids",
					"type": "bytes32[]"
				},
				{
					"internalType": "address[]",
					"name": "escrows",
					"type": "address[]"
				}
			],
			"stateMutability": "view",
			"type": "function"
		},
		{
			"inputs": [
				{
					"internalType": "bytes32",
					"name": "serviceId",
					"type": "bytes32"
				},
				{
					"internalType": "uint256",
					"name": "purchaseId",
					"type": "uint256"
				},
				{
					"internalType": "bool",
					"name": "refundBuyer",
					"type": "bool"
				}
			],
			"name": "resolveDispute",
			"outputs": [],
			"stateMutability": "payable",
			"type": "function"
		},
		{
			"inputs": [
				{
					"internalType": "uint256",
					"name": "",
					"type": "uint256"
				}
			],
			"name": "serviceIds",
			"outputs": [
				{
					"internalType": "bytes32",
					"name": "",
					"type": "bytes32"
				}
			],
			"stateMutability": "view",
			"type": "function"
		},
		{
			"inputs": [
				{
					"internalType": "bytes32",
					"name": "",
					"type": "bytes32"
				}
			],
			"name": "services",
			"outputs": [
				{
					"internalType": "address",
					"name": "",
					"type": "address"
				}
			],
			"stateMutability": "view",
			"type": "function"
		},
		{
			"inputs": [
				{
					"internalType": "bytes32",
					"name": "",
					"type": "bytes32"
				}
			],
			"name": "stakes",
			"outputs": [
				{
					"internalType": "uint256",
					"name": "",
					"type": "uint256"
				}
			],
			"stateMutability": "view",
			"type": "function"
		},
		{
			"inputs": [
				{
					"internalType": "bytes32",
					"name": "serviceId",
					"type": "bytes32"
				}
			],
			"name": "topUpStake",
			"outputs": [],
			"stateMutability": "payable",
			"type": "function"
		},
		{
			"inputs": [
				{
					"internalType": "bytes32",
					"name": "serviceId",
					"type": "bytes32"
				},
				{
					"internalType": "uint256",
					"name": "amount",
					"type": "uint256"
				}
			],
			"name": "withdrawStake",
			"outputs": [],
			"stateMutability": "nonpayable",
			"type": "function"
		},
		{
			"stateMutability": "payable",
			"type": "receive"
		}
	]
}